{
	"data": {
		"bytecode": {
			"linkReferences": {},
			"object": "60806040526a0422ca8b0a00a42500000060035560006004556005805460ff199081169091556064600855600980549091169055681b1ae4d6e2ef500000600d553480156200004d57600080fd5b50604080518082019091526004808252630a6928e960e31b60209092019182526200007b91603191620001b7565b50604080518082019091526004808252630a6928e960e31b6020909201918252620000a991603291620001b7565b506033805460ff19166012179055620000ca6001600160e01b03620001b216565b600080546001600160a01b039283166001600160a01b031991821617808355831682526001602090815260408084206a0422ca8b0a00a425000000908190558454600c80549095169616958617909355600b839055928052600e81527fe710864318d4a32f37d6ce54cb3fadbef648dd12d8dbdf53973564d56b7f881c82905542600a81905560065460075460035486519283529382015280850195909552606085019290925260808401524360a084015260c0830152517f7d6dc069eaaf435521e8e6f346ddff2e5d922845a8835e69ef45c6b2065b720f9181900360e00190a162000259565b335b90565b828054600181600116156101000203166002900490600052602060002090601f016020900481019282601f10620001fa57805160ff19168380011785556200022a565b828001600101855582156200022a579182015b828111156200022a5782518255916020019190600101906200020d565b50620002389291506200023c565b5090565b620001b491905b8082111562000238576000815560010162000243565b611bd780620002696000396000f3fe608060405234801561001057600080fd5b50600436106102315760003560e01c80634efd014a11610130578063b09f1266116100b8578063d28d88521161007c578063d28d88521461052f578063dd62ed3e14610537578063e504934214610565578063fa1acb5c1461056d578063fc399a0d1461057557610231565b8063b09f126614610507578063bd845d531461050f578063be26ed7f14610517578063c1523b621461051f578063d250b6cb1461052757610231565b8063798907c1116100ff578063798907c11461049757806395d89b411461049f578063a457c2d7146104a7578063a8cc6d32146104d3578063a9059cbb146104db57610231565b80634efd014a1461043b5780636b3dee3b146104615780636c6101fc1461046957806370a082311461047157610231565b8063305f8e7a116101be578063395093511161018257806339509351146103be57806342966c68146103ea57806345ee48cf14610407578063482d28101461040f5780634e1098a01461041757610231565b8063305f8e7a14610380578063313ce5671461038857806332424aa3146103a657806333c42fe0146103ae57806338af3735146103b657610231565b8063095ea7b311610205578063095ea7b3146102f15780630cb45f3b1461031d57806318160ddd1461033a57806322948c771461034257806323b872dd1461034a57610231565b8062dee43f1461023657806301d6364b1461025257806306fdde031461025a57806307ec0443146102d7575b600080fd5b61023e61057d565b604080519115158252519081900360200190f35b61023e610676565b61026261067f565b6040805160208082528351818301528351919283929083019185019080838360005b8381101561029c578181015183820152602001610284565b50505050905090810190601f1680156102c95780820380516001836020036101000a031916815260200191505b509250505060405180910390f35b6102df610716565b60408051918252519081900360200190f35b61023e6004803603604081101561030757600080fd5b506001600160a01b03813516906020013561071c565b6102df6004803603602081101561033357600080fd5b5035610739565b6102df61074b565b6102df610751565b61023e6004803603606081101561036057600080fd5b506001600160a01b03813581169160208101359091169060400135610757565b6102df610862565b610390610868565b6040805160ff9092168252519081900360200190f35b610390610871565b6102df61087a565b6102df610880565b61023e600480360360408110156103d457600080fd5b506001600160a01b038135169060200135610886565b61023e6004803603602081101561040057600080fd5b50356108da565b6102df610a0c565b6102df610a12565b61041f610a18565b604080516001600160a01b039092168252519081900360200190f35b61023e6004803603602081101561045157600080fd5b50356001600160a01b0316610a2c565b61041f610b4c565b6102df610b5b565b6102df6004803603602081101561048757600080fd5b50356001600160a01b0316610b61565b61023e610b7c565b610262610be4565b61023e600480360360408110156104bd57600080fd5b506001600160a01b038135169060200135610c45565b6102df610cb3565b61023e600480360360408110156104f157600080fd5b506001600160a01b038135169060200135610cb8565b610262610ccc565b61041f610d5a565b6102df610d69565b61023e610d6f565b6102df610d78565b610262610d7e565b6102df6004803603604081101561054d57600080fd5b506001600160a01b0381358116916020013516610dd9565b6102df610e04565b6102df610e0a565b61023e610e10565b600080546001600160a01b0316610592610e19565b6001600160a01b0316146105d75760405162461bcd60e51b815260040180806020018281038252602c815260200180611a8c602c913960400191505060405180910390fd5b60055460ff166106185760405162461bcd60e51b815260040180806020018281038252603a8152602001806119cc603a913960400191505060405180910390fd5b60095460ff161561065a5760405162461bcd60e51b8152600401808060200182810382526024815260200180611a066024913960400191505060405180910390fd5b610662610e1d565b426030556009805460ff1916600117905590565b60095460ff1681565b60318054604080516020601f600260001961010060018816150201909516949094049384018190048102820181019092528281526060939092909183018282801561070b5780601f106106e05761010080835404028352916020019161070b565b820191906000526020600020905b8154815290600101906020018083116106ee57829003601f168201915b505050505090505b90565b60075481565b6000610730610729610e19565b8484610ffd565b50600192915050565b6000908152600e602052604090205490565b60035490565b60035481565b6001600160a01b038316600090815260026020526040812082908261077a610e19565b6001600160a01b03166001600160a01b0316815260200190815260200160002054116107d75760405162461bcd60e51b8152600401808060200182810382526021815260200180611ab86021913960400191505060405180910390fd5b6107e28484846110e9565b610858846107ee610e19565b61085385604051806060016040528060288152602001611a64602891396001600160a01b038a1660009081526002602052604081209061082c610e19565b6001600160a01b03168152602081019190915260400160002054919063ffffffff61129a16565b610ffd565b5060019392505050565b60085481565b60335460ff1690565b60335460ff1681565b610e7f81565b600b5490565b6000610730610893610e19565b8461085385600260006108a4610e19565b6001600160a01b03908116825260208083019390935260409182016000908120918c16815292529020549063ffffffff61133116565b3360009081526001602052604081205482106109275760405162461bcd60e51b8152600401808060200182810382526033815260200180611b226033913960400191505060405180910390fd5b33600090815260016020526040902054610947908363ffffffff61139216565b60016000336001600160a01b03166001600160a01b03168152602001908152602001600020819055506000610997600454846040518060600160405280603a8152602001611a2a603a91396113d4565b60048190556003549091506109b2908463ffffffff61139216565b6003819055600454604080513381526020810187905280820192909252606082019290925290517f3116ed15ff49d8cc626f45bb9ee0bed8515d96a41c12c1422eb2719219f9e2159181900360800190a150600192915050565b60045481565b600a5481565b60055461010090046001600160a01b031681565b600080546001600160a01b0316610a41610e19565b6001600160a01b031614610a865760405162461bcd60e51b8152600401808060200182810382526029815260200180611b556029913960400191505060405180910390fd5b6001600160a01b038216610acb5760405162461bcd60e51b81526004018080602001828103825260248152602001806119866024913960400191505060405180910390fd5b6005805460ff196001600160a01b03858116610100908102610100600160a81b031985161792909216600117938490556040805193839004821680855292909404166020830152438284015291517f1d08b6dc830ba58d6b4eb7f6e47a8694c605f5a915daeba017c21ed78edfec619181900360600190a150600192915050565b600c546001600160a01b031681565b600b5481565b6001600160a01b031660009081526001602052604090205490565b6000610b86611432565b610bd7576040805162461bcd60e51b815260206004820152601960248201527f4d696e74696e67206e6f7420706f737369626c65207965742e00000000000000604482015290519081900360640190fd5b610bdf6114fe565b905090565b60328054604080516020601f600260001961010060018816150201909516949094049384018190048102820181019092528281526060939092909183018282801561070b5780601f106106e05761010080835404028352916020019161070b565b6000610730610c52610e19565b8461085385604051806060016040528060258152602001611b7e6025913960026000610c7c610e19565b6001600160a01b03908116825260208083019390935260409182016000908120918d1681529252902054919063ffffffff61129a16565b603c81565b6000610730610cc5610e19565b84846110e9565b6032805460408051602060026001851615610100026000190190941693909304601f81018490048402820184019092528181529291830182828015610d525780601f10610d2757610100808354040283529160200191610d52565b820191906000526020600020905b815481529060010190602001808311610d3557829003601f168201915b505050505081565b600c546001600160a01b031690565b60065490565b60055460ff1681565b60075490565b6031805460408051602060026001851615610100026000190190941693909304601f81018490048402820184019092528181529291830182828015610d525780601f10610d2757610100808354040283529160200191610d52565b6001600160a01b03918216600090815260026020908152604080832093909416825291909152205490565b60065481565b60305481565b60095460ff1690565b3390565b6040805160608082018352600180835260208084018390526064938501849052600f9190915560108290556011929092558251808201845260618082526101ce82850181905260c8928601839052601291909155601355601455825180820184526101cf80825261033c8285018190526101909286018390526015919091556016556017558251808201845261033d8082526104aa828501819052610320928601839052601891909155601955601a55825180820184526104ab808252610618828501819052610640928601839052601b91909155601c55601d5582518082018452610619808252610786828501819052610c80928601839052601e91909155601f558255825180820184526107878082526108f4828501819052611900928601839052602191909155602255602355825180820184526108f5808252610a6282850181905261320092860183905260249190915560255560265582518082018452610a63808252610bd082850181905261640092860183905260279190915560285560295582518082018452610bd1808252610d3e82850181905261c800928601839052602a91909155602b55602c5582519081018352610d3f808252610eac9282018390526201900091909301819052602d92909255602e55602f55565b6001600160a01b0383166110425760405162461bcd60e51b8152600401808060200182810382526024815260200180611afe6024913960400191505060405180910390fd5b6001600160a01b0382166110875760405162461bcd60e51b81526004018080602001828103825260228152602001806119aa6022913960400191505060405180910390fd5b6001600160a01b03808416600081815260026020908152604080832094871680845294825291829020859055815185815291517f8c5be1e5ebec7d5bd14f71427d1e84f3dd0314c0f7b2291e5b200ac8c7c3b9259281900390910190a3505050565b6001600160a01b03831661112e5760405162461bcd60e51b8152600401808060200182810382526025815260200180611ad96025913960400191505060405180910390fd5b6001600160a01b0382166111735760405162461bcd60e51b81526004018080602001828103825260238152602001806119426023913960400191505060405180910390fd5b6001600160a01b03831660009081526001602052604090205481106111c95760405162461bcd60e51b8152600401808060200182810382526033815260200180611b226033913960400191505060405180910390fd5b6111d1611432565b156111e0576111de6114fe565b505b6001600160a01b038316600090815260016020526040902054611209908263ffffffff61139216565b6001600160a01b03808516600090815260016020526040808220939093559084168152205461123e908263ffffffff61133116565b6001600160a01b0380841660008181526001602090815260409182902094909455805185815290519193928716927fddf252ad1be2c89b69c2b068fc378daa952ba7f163c4a11628f55a4df523b3ef92918290030190a3505050565b600081848411156113295760405162461bcd60e51b81526004018080602001828103825283818151815260200191508051906020019080838360005b838110156112ee5781810151838201526020016112d6565b50505050905090810190601f16801561131b5780820380516001836020036101000a031916815260200191505b509250505060405180910390fd5b505050900390565b60008282018381101561138b576040805162461bcd60e51b815260206004820152601b60248201527f536166654d6174683a206164646974696f6e206f766572666c6f770000000000604482015290519081900360640190fd5b9392505050565b600061138b83836040518060400160405280601e81526020017f536166654d6174683a207375627472616374696f6e206f766572666c6f77000081525061129a565b600083830182858210156114295760405162461bcd60e51b81526020600482018181528351602484015283519092839260449091019190850190808383600083156112ee5781810151838201526020016112d6565b50949350505050565b60095460009060ff16801561144a5750610e7f600654105b80156114615750603c61145f600a54426117b5565b115b156114f65760006006549050600061149d6006546001604051806040016040528060088152602001674f766572666c6f7760c01b8152506113d4565b60068190556040805184815260208101839052438183015242606082015290519192507fac27c13938741aebe5a244eb97650610021a2747e4587c4e0a4969032464e6a3919081900360800190a1600192505050610713565b506000610713565b60006115086117c7565b60075410156115c85760006007549050600061155d60075460016040518060400160405280601d81526020017f4e455720455241203a204164646974696f6e2067617665206572726f720000008152506113d4565b60078190559050600f81600b811061157157fe5b60030201600201546008556007546040805184815260208101929092524382820152426060830152517fa7041f0c0dac061a7423e0d7d7b69a0d28e782c6e4842f4fce5523379acbb254916080908290030190a150505b60006115f5600f600754600b81106115dc57fe5b600302016002015460035461189e90919063ffffffff16565b9050600061161e60035483604051806060016040528060218152602001611965602191396113d4565b90508060038190555061165f600d5460016000611639610e19565b6001600160a01b031681526020810191909152604001600020549063ffffffff61133116565b6001600061166b610e19565b6001600160a01b03166001600160a01b031681526020019081526020016000208190555060006116a6600d548461139290919063ffffffff16565b60055461010090046001600160a01b03166000908152600160205260409020549091506116d39082611331565b60055461010090046001600160a01b03166000908152600160205260409020556116fb610e19565b600c80546001600160a01b0319166001600160a01b0392909216919091179055600b839055600680546000908152600e6020526040902084905542600a55546007547f7d6dc069eaaf435521e8e6f346ddff2e5d922845a8835e69ef45c6b2065b720f9190611768610e19565b6003546040805194855260208501939093526001600160a01b03909116838301526060830187905260808301524360a08301524260c0830152519081900360e00190a16001935050505090565b600061138b828463ffffffff61139216565b60006007600654111580156117da575060015b156117e757506000610713565b600061182c60065460076040518060400160405280601b81526020017f4552413a205375627472616374696f6e2067617665206572726f72000000000081525061129a565b905060006118718260056040518060400160405280601981526020017f455241203a204469766973696f6e2067617665206572726f72000000000000008152506118dc565b9050600981116118955761188c81600163ffffffff61133116565b92505050610713565b600b9250505090565b600061138b83836040518060400160405280601a81526020017f536166654d6174683a206469766973696f6e206279207a65726f0000000000008152505b6000818361192b5760405162461bcd60e51b81526020600482018181528351602484015283519092839260449091019190850190808383600083156112ee5781810151838201526020016112d6565b50600083858161193757fe5b049594505050505056fe45524332303a207472616e7366657220746f20746865207a65726f2061646472657373546f74616c20537570706c793a204164646974696f6e2067617665206572726f724e6f7420612076616c696420537065656420436f6e74726f6c6c6572206164647265737345524332303a20617070726f766520746f20746865207a65726f2061646472657373537065656420436f6e74726f6c6c6572206e6565647320746f20626520736574206265666f72652074686520457261732063616e20626567696e4d696e74696e672063616e206f6e6c7920626520696e697469616c697a6564206f6e63656275726e203a20546f74616c204e756d626572206f6620746f6b656e73206275726e742067617665206164646974696f6e206f766572666c6f7745524332303a207472616e7366657220616d6f756e74206578636565647320616c6c6f77616e63654d696e696e672063616e206f6e6c7920626520696e697469616c697a656420627920746865206f776e65722e5472616e7366657220616d6f756e74206578636565647320416c6c6f77616e636545524332303a207472616e736665722066726f6d20746865207a65726f206164647265737345524332303a20617070726f76652066726f6d20746865207a65726f206164647265737345524332303a205468652053656e64657220646f65736e27742068617665207468652072657175697265642062616c616e63654f6e6c79207468652041646d696e2063616e206368616e6765205370656564436f6e74726f6c6c657245524332303a2064656372656173656420616c6c6f77616e63652062656c6f77207a65726fa265627a7a72315820da5c1aa99fb0fee6cd75b5387d6df688e71242baf8fb1caddcab749d28f152e764736f6c63430005110032",
			"opcodes": "PUSH1 0x80 PUSH1 0x40 MSTORE PUSH11 0x422CA8B0A00A425000000 PUSH1 0x3 SSTORE PUSH1 0x0 PUSH1 0x4 SSTORE PUSH1 0x5 DUP1 SLOAD PUSH1 0xFF NOT SWAP1 DUP2 AND SWAP1 SWAP2 SSTORE PUSH1 0x64 PUSH1 0x8 SSTORE PUSH1 0x9 DUP1 SLOAD SWAP1 SWAP2 AND SWAP1 SSTORE PUSH9 0x1B1AE4D6E2EF500000 PUSH1 0xD SSTORE CALLVALUE DUP1 ISZERO PUSH3 0x4D JUMPI PUSH1 0x0 DUP1 REVERT JUMPDEST POP PUSH1 0x40 DUP1 MLOAD DUP1 DUP3 ADD SWAP1 SWAP2 MSTORE PUSH1 0x4 DUP1 DUP3 MSTORE PUSH4 0xA6928E9 PUSH1 0xE3 SHL PUSH1 0x20 SWAP1 SWAP3 ADD SWAP2 DUP3 MSTORE PUSH3 0x7B SWAP2 PUSH1 0x31 SWAP2 PUSH3 0x1B7 JUMP JUMPDEST POP PUSH1 0x40 DUP1 MLOAD DUP1 DUP3 ADD SWAP1 SWAP2 MSTORE PUSH1 0x4 DUP1 DUP3 MSTORE PUSH4 0xA6928E9 PUSH1 0xE3 SHL PUSH1 0x20 SWAP1 SWAP3 ADD SWAP2 DUP3 MSTORE PUSH3 0xA9 SWAP2 PUSH1 0x32 SWAP2 PUSH3 0x1B7 JUMP JUMPDEST POP PUSH1 0x33 DUP1 SLOAD PUSH1 0xFF NOT AND PUSH1 0x12 OR SWAP1 SSTORE PUSH3 0xCA PUSH1 0x1 PUSH1 0x1 PUSH1 0xE0 SHL SUB PUSH3 0x1B2 AND JUMP JUMPDEST PUSH1 0x0 DUP1 SLOAD PUSH1 0x1 PUSH1 0x1 PUSH1 0xA0 SHL SUB SWAP3 DUP4 AND PUSH1 0x1 PUSH1 0x1 PUSH1 0xA0 SHL SUB NOT SWAP2 DUP3 AND OR DUP1 DUP4 SSTORE DUP4 AND DUP3 MSTORE PUSH1 0x1 PUSH1 0x20 SWAP1 DUP2 MSTORE PUSH1 0x40 DUP1 DUP5 KECCAK256 PUSH11 0x422CA8B0A00A425000000 SWAP1 DUP2 SWAP1 SSTORE DUP5 SLOAD PUSH1 0xC DUP1 SLOAD SWAP1 SWAP6 AND SWAP7 AND SWAP6 DUP7 OR SWAP1 SWAP4 SSTORE PUSH1 0xB DUP4 SWAP1 SSTORE SWAP3 DUP1 MSTORE PUSH1 0xE DUP2 MSTORE PUSH32 0xE710864318D4A32F37D6CE54CB3FADBEF648DD12D8DBDF53973564D56B7F881C DUP3 SWAP1 SSTORE TIMESTAMP PUSH1 0xA DUP2 SWAP1 SSTORE PUSH1 0x6 SLOAD PUSH1 0x7 SLOAD PUSH1 0x3 SLOAD DUP7 MLOAD SWAP3 DUP4 MSTORE SWAP4 DUP3 ADD MSTORE DUP1 DUP6 ADD SWAP6 SWAP1 SWAP6 MSTORE PUSH1 0x60 DUP6 ADD SWAP3 SWAP1 SWAP3 MSTORE PUSH1 0x80 DUP5 ADD MSTORE NUMBER PUSH1 0xA0 DUP5 ADD MSTORE PUSH1 0xC0 DUP4 ADD MSTORE MLOAD PUSH32 0x7D6DC069EAAF435521E8E6F346DDFF2E5D922845A8835E69EF45C6B2065B720F SWAP2 DUP2 SWAP1 SUB PUSH1 0xE0 ADD SWAP1 LOG1 PUSH3 0x259 JUMP JUMPDEST CALLER JUMPDEST SWAP1 JUMP JUMPDEST DUP3 DUP1 SLOAD PUSH1 0x1 DUP2 PUSH1 0x1 AND ISZERO PUSH2 0x100 MUL SUB AND PUSH1 0x2 SWAP1 DIV SWAP1 PUSH1 0x0 MSTORE PUSH1 0x20 PUSH1 0x0 KECCAK256 SWAP1 PUSH1 0x1F ADD PUSH1 0x20 SWAP1 DIV DUP2 ADD SWAP3 DUP3 PUSH1 0x1F LT PUSH3 0x1FA JUMPI DUP1 MLOAD PUSH1 0xFF NOT AND DUP4 DUP1 ADD OR DUP6 SSTORE PUSH3 0x22A JUMP JUMPDEST DUP3 DUP1 ADD PUSH1 0x1 ADD DUP6 SSTORE DUP3 ISZERO PUSH3 0x22A JUMPI SWAP2 DUP3 ADD JUMPDEST DUP3 DUP2 GT ISZERO PUSH3 0x22A JUMPI DUP3 MLOAD DUP3 SSTORE SWAP2 PUSH1 0x20 ADD SWAP2 SWAP1 PUSH1 0x1 ADD SWAP1 PUSH3 0x20D JUMP JUMPDEST POP PUSH3 0x238 SWAP3 SWAP2 POP PUSH3 0x23C JUMP JUMPDEST POP SWAP1 JUMP JUMPDEST PUSH3 0x1B4 SWAP2 SWAP1 JUMPDEST DUP1 DUP3 GT ISZERO PUSH3 0x238 JUMPI PUSH1 0x0 DUP2 SSTORE PUSH1 0x1 ADD PUSH3 0x243 JUMP JUMPDEST PUSH2 0x1BD7 DUP1 PUSH3 0x269 PUSH1 0x0 CODECOPY PUSH1 0x0 RETURN INVALID PUSH1 0x80 PUSH1 0x40 MSTORE CALLVALUE DUP1 ISZERO PUSH2 0x10 JUMPI PUSH1 0x0 DUP1 REVERT JUMPDEST POP PUSH1 0x4 CALLDATASIZE LT PUSH2 0x231 JUMPI PUSH1 0x0 CALLDATALOAD PUSH1 0xE0 SHR DUP1 PUSH4 0x4EFD014A GT PUSH2 0x130 JUMPI DUP1 PUSH4 0xB09F1266 GT PUSH2 0xB8 JUMPI DUP1 PUSH4 0xD28D8852 GT PUSH2 0x7C JUMPI DUP1 PUSH4 0xD28D8852 EQ PUSH2 0x52F JUMPI DUP1 PUSH4 0xDD62ED3E EQ PUSH2 0x537 JUMPI DUP1 PUSH4 0xE5049342 EQ PUSH2 0x565 JUMPI DUP1 PUSH4 0xFA1ACB5C EQ PUSH2 0x56D JUMPI DUP1 PUSH4 0xFC399A0D EQ PUSH2 0x575 JUMPI PUSH2 0x231 JUMP JUMPDEST DUP1 PUSH4 0xB09F1266 EQ PUSH2 0x507 JUMPI DUP1 PUSH4 0xBD845D53 EQ PUSH2 0x50F JUMPI DUP1 PUSH4 0xBE26ED7F EQ PUSH2 0x517 JUMPI DUP1 PUSH4 0xC1523B62 EQ PUSH2 0x51F JUMPI DUP1 PUSH4 0xD250B6CB EQ PUSH2 0x527 JUMPI PUSH2 0x231 JUMP JUMPDEST DUP1 PUSH4 0x798907C1 GT PUSH2 0xFF JUMPI DUP1 PUSH4 0x798907C1 EQ PUSH2 0x497 JUMPI DUP1 PUSH4 0x95D89B41 EQ PUSH2 0x49F JUMPI DUP1 PUSH4 0xA457C2D7 EQ PUSH2 0x4A7 JUMPI DUP1 PUSH4 0xA8CC6D32 EQ PUSH2 0x4D3 JUMPI DUP1 PUSH4 0xA9059CBB EQ PUSH2 0x4DB JUMPI PUSH2 0x231 JUMP JUMPDEST DUP1 PUSH4 0x4EFD014A EQ PUSH2 0x43B JUMPI DUP1 PUSH4 0x6B3DEE3B EQ PUSH2 0x461 JUMPI DUP1 PUSH4 0x6C6101FC EQ PUSH2 0x469 JUMPI DUP1 PUSH4 0x70A08231 EQ PUSH2 0x471 JUMPI PUSH2 0x231 JUMP JUMPDEST DUP1 PUSH4 0x305F8E7A GT PUSH2 0x1BE JUMPI DUP1 PUSH4 0x39509351 GT PUSH2 0x182 JUMPI DUP1 PUSH4 0x39509351 EQ PUSH2 0x3BE JUMPI DUP1 PUSH4 0x42966C68 EQ PUSH2 0x3EA JUMPI DUP1 PUSH4 0x45EE48CF EQ PUSH2 0x407 JUMPI DUP1 PUSH4 0x482D2810 EQ PUSH2 0x40F JUMPI DUP1 PUSH4 0x4E1098A0 EQ PUSH2 0x417 JUMPI PUSH2 0x231 JUMP JUMPDEST DUP1 PUSH4 0x305F8E7A EQ PUSH2 0x380 JUMPI DUP1 PUSH4 0x313CE567 EQ PUSH2 0x388 JUMPI DUP1 PUSH4 0x32424AA3 EQ PUSH2 0x3A6 JUMPI DUP1 PUSH4 0x33C42FE0 EQ PUSH2 0x3AE JUMPI DUP1 PUSH4 0x38AF3735 EQ PUSH2 0x3B6 JUMPI PUSH2 0x231 JUMP JUMPDEST DUP1 PUSH4 0x95EA7B3 GT PUSH2 0x205 JUMPI DUP1 PUSH4 0x95EA7B3 EQ PUSH2 0x2F1 JUMPI DUP1 PUSH4 0xCB45F3B EQ PUSH2 0x31D JUMPI DUP1 PUSH4 0x18160DDD EQ PUSH2 0x33A JUMPI DUP1 PUSH4 0x22948C77 EQ PUSH2 0x342 JUMPI DUP1 PUSH4 0x23B872DD EQ PUSH2 0x34A JUMPI PUSH2 0x231 JUMP JUMPDEST DUP1 PUSH3 0xDEE43F EQ PUSH2 0x236 JUMPI DUP1 PUSH4 0x1D6364B EQ PUSH2 0x252 JUMPI DUP1 PUSH4 0x6FDDE03 EQ PUSH2 0x25A JUMPI DUP1 PUSH4 0x7EC0443 EQ PUSH2 0x2D7 JUMPI JUMPDEST PUSH1 0x0 DUP1 REVERT JUMPDEST PUSH2 0x23E PUSH2 0x57D JUMP JUMPDEST PUSH1 0x40 DUP1 MLOAD SWAP2 ISZERO ISZERO DUP3 MSTORE MLOAD SWAP1 DUP2 SWAP1 SUB PUSH1 0x20 ADD SWAP1 RETURN JUMPDEST PUSH2 0x23E PUSH2 0x676 JUMP JUMPDEST PUSH2 0x262 PUSH2 0x67F JUMP JUMPDEST PUSH1 0x40 DUP1 MLOAD PUSH1 0x20 DUP1 DUP3 MSTORE DUP4 MLOAD DUP2 DUP4 ADD MSTORE DUP4 MLOAD SWAP2 SWAP3 DUP4 SWAP3 SWAP1 DUP4 ADD SWAP2 DUP6 ADD SWAP1 DUP1 DUP4 DUP4 PUSH1 0x0 JUMPDEST DUP4 DUP2 LT ISZERO PUSH2 0x29C JUMPI DUP2 DUP2 ADD MLOAD DUP4 DUP3 ADD MSTORE PUSH1 0x20 ADD PUSH2 0x284 JUMP JUMPDEST POP POP POP POP SWAP1 POP SWAP1 DUP2 ADD SWAP1 PUSH1 0x1F AND DUP1 ISZERO PUSH2 0x2C9 JUMPI DUP1 DUP3 SUB DUP1 MLOAD PUSH1 0x1 DUP4 PUSH1 0x20 SUB PUSH2 0x100 EXP SUB NOT AND DUP2 MSTORE PUSH1 0x20 ADD SWAP2 POP JUMPDEST POP SWAP3 POP POP POP PUSH1 0x40 MLOAD DUP1 SWAP2 SUB SWAP1 RETURN JUMPDEST PUSH2 0x2DF PUSH2 0x716 JUMP JUMPDEST PUSH1 0x40 DUP1 MLOAD SWAP2 DUP3 MSTORE MLOAD SWAP1 DUP2 SWAP1 SUB PUSH1 0x20 ADD SWAP1 RETURN JUMPDEST PUSH2 0x23E PUSH1 0x4 DUP1 CALLDATASIZE SUB PUSH1 0x40 DUP2 LT ISZERO PUSH2 0x307 JUMPI PUSH1 0x0 DUP1 REVERT JUMPDEST POP PUSH1 0x1 PUSH1 0x1 PUSH1 0xA0 SHL SUB DUP2 CALLDATALOAD AND SWAP1 PUSH1 0x20 ADD CALLDATALOAD PUSH2 0x71C JUMP JUMPDEST PUSH2 0x2DF PUSH1 0x4 DUP1 CALLDATASIZE SUB PUSH1 0x20 DUP2 LT ISZERO PUSH2 0x333 JUMPI PUSH1 0x0 DUP1 REVERT JUMPDEST POP CALLDATALOAD PUSH2 0x739 JUMP JUMPDEST PUSH2 0x2DF PUSH2 0x74B JUMP JUMPDEST PUSH2 0x2DF PUSH2 0x751 JUMP JUMPDEST PUSH2 0x23E PUSH1 0x4 DUP1 CALLDATASIZE SUB PUSH1 0x60 DUP2 LT ISZERO PUSH2 0x360 JUMPI PUSH1 0x0 DUP1 REVERT JUMPDEST POP PUSH1 0x1 PUSH1 0x1 PUSH1 0xA0 SHL SUB DUP2 CALLDATALOAD DUP2 AND SWAP2 PUSH1 0x20 DUP2 ADD CALLDATALOAD SWAP1 SWAP2 AND SWAP1 PUSH1 0x40 ADD CALLDATALOAD PUSH2 0x757 JUMP JUMPDEST PUSH2 0x2DF PUSH2 0x862 JUMP JUMPDEST PUSH2 0x390 PUSH2 0x868 JUMP JUMPDEST PUSH1 0x40 DUP1 MLOAD PUSH1 0xFF SWAP1 SWAP3 AND DUP3 MSTORE MLOAD SWAP1 DUP2 SWAP1 SUB PUSH1 0x20 ADD SWAP1 RETURN JUMPDEST PUSH2 0x390 PUSH2 0x871 JUMP JUMPDEST PUSH2 0x2DF PUSH2 0x87A JUMP JUMPDEST PUSH2 0x2DF PUSH2 0x880 JUMP JUMPDEST PUSH2 0x23E PUSH1 0x4 DUP1 CALLDATASIZE SUB PUSH1 0x40 DUP2 LT ISZERO PUSH2 0x3D4 JUMPI PUSH1 0x0 DUP1 REVERT JUMPDEST POP PUSH1 0x1 PUSH1 0x1 PUSH1 0xA0 SHL SUB DUP2 CALLDATALOAD AND SWAP1 PUSH1 0x20 ADD CALLDATALOAD PUSH2 0x886 JUMP JUMPDEST PUSH2 0x23E PUSH1 0x4 DUP1 CALLDATASIZE SUB PUSH1 0x20 DUP2 LT ISZERO PUSH2 0x400 JUMPI PUSH1 0x0 DUP1 REVERT JUMPDEST POP CALLDATALOAD PUSH2 0x8DA JUMP JUMPDEST PUSH2 0x2DF PUSH2 0xA0C JUMP JUMPDEST PUSH2 0x2DF PUSH2 0xA12 JUMP JUMPDEST PUSH2 0x41F PUSH2 0xA18 JUMP JUMPDEST PUSH1 0x40 DUP1 MLOAD PUSH1 0x1 PUSH1 0x1 PUSH1 0xA0 SHL SUB SWAP1 SWAP3 AND DUP3 MSTORE MLOAD SWAP1 DUP2 SWAP1 SUB PUSH1 0x20 ADD SWAP1 RETURN JUMPDEST PUSH2 0x23E PUSH1 0x4 DUP1 CALLDATASIZE SUB PUSH1 0x20 DUP2 LT ISZERO PUSH2 0x451 JUMPI PUSH1 0x0 DUP1 REVERT JUMPDEST POP CALLDATALOAD PUSH1 0x1 PUSH1 0x1 PUSH1 0xA0 SHL SUB AND PUSH2 0xA2C JUMP JUMPDEST PUSH2 0x41F PUSH2 0xB4C JUMP JUMPDEST PUSH2 0x2DF PUSH2 0xB5B JUMP JUMPDEST PUSH2 0x2DF PUSH1 0x4 DUP1 CALLDATASIZE SUB PUSH1 0x20 DUP2 LT ISZERO PUSH2 0x487 JUMPI PUSH1 0x0 DUP1 REVERT JUMPDEST POP CALLDATALOAD PUSH1 0x1 PUSH1 0x1 PUSH1 0xA0 SHL SUB AND PUSH2 0xB61 JUMP JUMPDEST PUSH2 0x23E PUSH2 0xB7C JUMP JUMPDEST PUSH2 0x262 PUSH2 0xBE4 JUMP JUMPDEST PUSH2 0x23E PUSH1 0x4 DUP1 CALLDATASIZE SUB PUSH1 0x40 DUP2 LT ISZERO PUSH2 0x4BD JUMPI PUSH1 0x0 DUP1 REVERT JUMPDEST POP PUSH1 0x1 PUSH1 0x1 PUSH1 0xA0 SHL SUB DUP2 CALLDATALOAD AND SWAP1 PUSH1 0x20 ADD CALLDATALOAD PUSH2 0xC45 JUMP JUMPDEST PUSH2 0x2DF PUSH2 0xCB3 JUMP JUMPDEST PUSH2 0x23E PUSH1 0x4 DUP1 CALLDATASIZE SUB PUSH1 0x40 DUP2 LT ISZERO PUSH2 0x4F1 JUMPI PUSH1 0x0 DUP1 REVERT JUMPDEST POP PUSH1 0x1 PUSH1 0x1 PUSH1 0xA0 SHL SUB DUP2 CALLDATALOAD AND SWAP1 PUSH1 0x20 ADD CALLDATALOAD PUSH2 0xCB8 JUMP JUMPDEST PUSH2 0x262 PUSH2 0xCCC JUMP JUMPDEST PUSH2 0x41F PUSH2 0xD5A JUMP JUMPDEST PUSH2 0x2DF PUSH2 0xD69 JUMP JUMPDEST PUSH2 0x23E PUSH2 0xD6F JUMP JUMPDEST PUSH2 0x2DF PUSH2 0xD78 JUMP JUMPDEST PUSH2 0x262 PUSH2 0xD7E JUMP JUMPDEST PUSH2 0x2DF PUSH1 0x4 DUP1 CALLDATASIZE SUB PUSH1 0x40 DUP2 LT ISZERO PUSH2 0x54D JUMPI PUSH1 0x0 DUP1 REVERT JUMPDEST POP PUSH1 0x1 PUSH1 0x1 PUSH1 0xA0 SHL SUB DUP2 CALLDATALOAD DUP2 AND SWAP2 PUSH1 0x20 ADD CALLDATALOAD AND PUSH2 0xDD9 JUMP JUMPDEST PUSH2 0x2DF PUSH2 0xE04 JUMP JUMPDEST PUSH2 0x2DF PUSH2 0xE0A JUMP JUMPDEST PUSH2 0x23E PUSH2 0xE10 JUMP JUMPDEST PUSH1 0x0 DUP1 SLOAD PUSH1 0x1 PUSH1 0x1 PUSH1 0xA0 SHL SUB AND PUSH2 0x592 PUSH2 0xE19 JUMP JUMPDEST PUSH1 0x1 PUSH1 0x1 PUSH1 0xA0 SHL SUB AND EQ PUSH2 0x5D7 JUMPI PUSH1 0x40 MLOAD PUSH3 0x461BCD PUSH1 0xE5 SHL DUP2 MSTORE PUSH1 0x4 ADD DUP1 DUP1 PUSH1 0x20 ADD DUP3 DUP2 SUB DUP3 MSTORE PUSH1 0x2C DUP2 MSTORE PUSH1 0x20 ADD DUP1 PUSH2 0x1A8C PUSH1 0x2C SWAP2 CODECOPY PUSH1 0x40 ADD SWAP2 POP POP PUSH1 0x40 MLOAD DUP1 SWAP2 SUB SWAP1 REVERT JUMPDEST PUSH1 0x5 SLOAD PUSH1 0xFF AND PUSH2 0x618 JUMPI PUSH1 0x40 MLOAD PUSH3 0x461BCD PUSH1 0xE5 SHL DUP2 MSTORE PUSH1 0x4 ADD DUP1 DUP1 PUSH1 0x20 ADD DUP3 DUP2 SUB DUP3 MSTORE PUSH1 0x3A DUP2 MSTORE PUSH1 0x20 ADD DUP1 PUSH2 0x19CC PUSH1 0x3A SWAP2 CODECOPY PUSH1 0x40 ADD SWAP2 POP POP PUSH1 0x40 MLOAD DUP1 SWAP2 SUB SWAP1 REVERT JUMPDEST PUSH1 0x9 SLOAD PUSH1 0xFF AND ISZERO PUSH2 0x65A JUMPI PUSH1 0x40 MLOAD PUSH3 0x461BCD PUSH1 0xE5 SHL DUP2 MSTORE PUSH1 0x4 ADD DUP1 DUP1 PUSH1 0x20 ADD DUP3 DUP2 SUB DUP3 MSTORE PUSH1 0x24 DUP2 MSTORE PUSH1 0x20 ADD DUP1 PUSH2 0x1A06 PUSH1 0x24 SWAP2 CODECOPY PUSH1 0x40 ADD SWAP2 POP POP PUSH1 0x40 MLOAD DUP1 SWAP2 SUB SWAP1 REVERT JUMPDEST PUSH2 0x662 PUSH2 0xE1D JUMP JUMPDEST TIMESTAMP PUSH1 0x30 SSTORE PUSH1 0x9 DUP1 SLOAD PUSH1 0xFF NOT AND PUSH1 0x1 OR SWAP1 SSTORE SWAP1 JUMP JUMPDEST PUSH1 0x9 SLOAD PUSH1 0xFF AND DUP2 JUMP JUMPDEST PUSH1 0x31 DUP1 SLOAD PUSH1 0x40 DUP1 MLOAD PUSH1 0x20 PUSH1 0x1F PUSH1 0x2 PUSH1 0x0 NOT PUSH2 0x100 PUSH1 0x1 DUP9 AND ISZERO MUL ADD SWAP1 SWAP6 AND SWAP5 SWAP1 SWAP5 DIV SWAP4 DUP5 ADD DUP2 SWAP1 DIV DUP2 MUL DUP3 ADD DUP2 ADD SWAP1 SWAP3 MSTORE DUP3 DUP2 MSTORE PUSH1 0x60 SWAP4 SWAP1 SWAP3 SWAP1 SWAP2 DUP4 ADD DUP3 DUP3 DUP1 ISZERO PUSH2 0x70B JUMPI DUP1 PUSH1 0x1F LT PUSH2 0x6E0 JUMPI PUSH2 0x100 DUP1 DUP4 SLOAD DIV MUL DUP4 MSTORE SWAP2 PUSH1 0x20 ADD SWAP2 PUSH2 0x70B JUMP JUMPDEST DUP3 ADD SWAP2 SWAP1 PUSH1 0x0 MSTORE PUSH1 0x20 PUSH1 0x0 KECCAK256 SWAP1 JUMPDEST DUP2 SLOAD DUP2 MSTORE SWAP1 PUSH1 0x1 ADD SWAP1 PUSH1 0x20 ADD DUP1 DUP4 GT PUSH2 0x6EE JUMPI DUP3 SWAP1 SUB PUSH1 0x1F AND DUP3 ADD SWAP2 JUMPDEST POP POP POP POP POP SWAP1 POP JUMPDEST SWAP1 JUMP JUMPDEST PUSH1 0x7 SLOAD DUP2 JUMP JUMPDEST PUSH1 0x0 PUSH2 0x730 PUSH2 0x729 PUSH2 0xE19 JUMP JUMPDEST DUP5 DUP5 PUSH2 0xFFD JUMP JUMPDEST POP PUSH1 0x1 SWAP3 SWAP2 POP POP JUMP JUMPDEST PUSH1 0x0 SWAP1 DUP2 MSTORE PUSH1 0xE PUSH1 0x20 MSTORE PUSH1 0x40 SWAP1 KECCAK256 SLOAD SWAP1 JUMP JUMPDEST PUSH1 0x3 SLOAD SWAP1 JUMP JUMPDEST PUSH1 0x3 SLOAD DUP2 JUMP JUMPDEST PUSH1 0x1 PUSH1 0x1 PUSH1 0xA0 SHL SUB DUP4 AND PUSH1 0x0 SWAP1 DUP2 MSTORE PUSH1 0x2 PUSH1 0x20 MSTORE PUSH1 0x40 DUP2 KECCAK256 DUP3 SWAP1 DUP3 PUSH2 0x77A PUSH2 0xE19 JUMP JUMPDEST PUSH1 0x1 PUSH1 0x1 PUSH1 0xA0 SHL SUB AND PUSH1 0x1 PUSH1 0x1 PUSH1 0xA0 SHL SUB AND DUP2 MSTORE PUSH1 0x20 ADD SWAP1 DUP2 MSTORE PUSH1 0x20 ADD PUSH1 0x0 KECCAK256 SLOAD GT PUSH2 0x7D7 JUMPI PUSH1 0x40 MLOAD PUSH3 0x461BCD PUSH1 0xE5 SHL DUP2 MSTORE PUSH1 0x4 ADD DUP1 DUP1 PUSH1 0x20 ADD DUP3 DUP2 SUB DUP3 MSTORE PUSH1 0x21 DUP2 MSTORE PUSH1 0x20 ADD DUP1 PUSH2 0x1AB8 PUSH1 0x21 SWAP2 CODECOPY PUSH1 0x40 ADD SWAP2 POP POP PUSH1 0x40 MLOAD DUP1 SWAP2 SUB SWAP1 REVERT JUMPDEST PUSH2 0x7E2 DUP5 DUP5 DUP5 PUSH2 0x10E9 JUMP JUMPDEST PUSH2 0x858 DUP5 PUSH2 0x7EE PUSH2 0xE19 JUMP JUMPDEST PUSH2 0x853 DUP6 PUSH1 0x40 MLOAD DUP1 PUSH1 0x60 ADD PUSH1 0x40 MSTORE DUP1 PUSH1 0x28 DUP2 MSTORE PUSH1 0x20 ADD PUSH2 0x1A64 PUSH1 0x28 SWAP2 CODECOPY PUSH1 0x1 PUSH1 0x1 PUSH1 0xA0 SHL SUB DUP11 AND PUSH1 0x0 SWAP1 DUP2 MSTORE PUSH1 0x2 PUSH1 0x20 MSTORE PUSH1 0x40 DUP2 KECCAK256 SWAP1 PUSH2 0x82C PUSH2 0xE19 JUMP JUMPDEST PUSH1 0x1 PUSH1 0x1 PUSH1 0xA0 SHL SUB AND DUP2 MSTORE PUSH1 0x20 DUP2 ADD SWAP2 SWAP1 SWAP2 MSTORE PUSH1 0x40 ADD PUSH1 0x0 KECCAK256 SLOAD SWAP2 SWAP1 PUSH4 0xFFFFFFFF PUSH2 0x129A AND JUMP JUMPDEST PUSH2 0xFFD JUMP JUMPDEST POP PUSH1 0x1 SWAP4 SWAP3 POP POP POP JUMP JUMPDEST PUSH1 0x8 SLOAD DUP2 JUMP JUMPDEST PUSH1 0x33 SLOAD PUSH1 0xFF AND SWAP1 JUMP JUMPDEST PUSH1 0x33 SLOAD PUSH1 0xFF AND DUP2 JUMP JUMPDEST PUSH2 0xE7F DUP2 JUMP JUMPDEST PUSH1 0xB SLOAD SWAP1 JUMP JUMPDEST PUSH1 0x0 PUSH2 0x730 PUSH2 0x893 PUSH2 0xE19 JUMP JUMPDEST DUP5 PUSH2 0x853 DUP6 PUSH1 0x2 PUSH1 0x0 PUSH2 0x8A4 PUSH2 0xE19 JUMP JUMPDEST PUSH1 0x1 PUSH1 0x1 PUSH1 0xA0 SHL SUB SWAP1 DUP2 AND DUP3 MSTORE PUSH1 0x20 DUP1 DUP4 ADD SWAP4 SWAP1 SWAP4 MSTORE PUSH1 0x40 SWAP2 DUP3 ADD PUSH1 0x0 SWAP1 DUP2 KECCAK256 SWAP2 DUP13 AND DUP2 MSTORE SWAP3 MSTORE SWAP1 KECCAK256 SLOAD SWAP1 PUSH4 0xFFFFFFFF PUSH2 0x1331 AND JUMP JUMPDEST CALLER PUSH1 0x0 SWAP1 DUP2 MSTORE PUSH1 0x1 PUSH1 0x20 MSTORE PUSH1 0x40 DUP2 KECCAK256 SLOAD DUP3 LT PUSH2 0x927 JUMPI PUSH1 0x40 MLOAD PUSH3 0x461BCD PUSH1 0xE5 SHL DUP2 MSTORE PUSH1 0x4 ADD DUP1 DUP1 PUSH1 0x20 ADD DUP3 DUP2 SUB DUP3 MSTORE PUSH1 0x33 DUP2 MSTORE PUSH1 0x20 ADD DUP1 PUSH2 0x1B22 PUSH1 0x33 SWAP2 CODECOPY PUSH1 0x40 ADD SWAP2 POP POP PUSH1 0x40 MLOAD DUP1 SWAP2 SUB SWAP1 REVERT JUMPDEST CALLER PUSH1 0x0 SWAP1 DUP2 MSTORE PUSH1 0x1 PUSH1 0x20 MSTORE PUSH1 0x40 SWAP1 KECCAK256 SLOAD PUSH2 0x947 SWAP1 DUP4 PUSH4 0xFFFFFFFF PUSH2 0x1392 AND JUMP JUMPDEST PUSH1 0x1 PUSH1 0x0 CALLER PUSH1 0x1 PUSH1 0x1 PUSH1 0xA0 SHL SUB AND PUSH1 0x1 PUSH1 0x1 PUSH1 0xA0 SHL SUB AND DUP2 MSTORE PUSH1 0x20 ADD SWAP1 DUP2 MSTORE PUSH1 0x20 ADD PUSH1 0x0 KECCAK256 DUP2 SWAP1 SSTORE POP PUSH1 0x0 PUSH2 0x997 PUSH1 0x4 SLOAD DUP5 PUSH1 0x40 MLOAD DUP1 PUSH1 0x60 ADD PUSH1 0x40 MSTORE DUP1 PUSH1 0x3A DUP2 MSTORE PUSH1 0x20 ADD PUSH2 0x1A2A PUSH1 0x3A SWAP2 CODECOPY PUSH2 0x13D4 JUMP JUMPDEST PUSH1 0x4 DUP2 SWAP1 SSTORE PUSH1 0x3 SLOAD SWAP1 SWAP2 POP PUSH2 0x9B2 SWAP1 DUP5 PUSH4 0xFFFFFFFF PUSH2 0x1392 AND JUMP JUMPDEST PUSH1 0x3 DUP2 SWAP1 SSTORE PUSH1 0x4 SLOAD PUSH1 0x40 DUP1 MLOAD CALLER DUP2 MSTORE PUSH1 0x20 DUP2 ADD DUP8 SWAP1 MSTORE DUP1 DUP3 ADD SWAP3 SWAP1 SWAP3 MSTORE PUSH1 0x60 DUP3 ADD SWAP3 SWAP1 SWAP3 MSTORE SWAP1 MLOAD PUSH32 0x3116ED15FF49D8CC626F45BB9EE0BED8515D96A41C12C1422EB2719219F9E215 SWAP2 DUP2 SWAP1 SUB PUSH1 0x80 ADD SWAP1 LOG1 POP PUSH1 0x1 SWAP3 SWAP2 POP POP JUMP JUMPDEST PUSH1 0x4 SLOAD DUP2 JUMP JUMPDEST PUSH1 0xA SLOAD DUP2 JUMP JUMPDEST PUSH1 0x5 SLOAD PUSH2 0x100 SWAP1 DIV PUSH1 0x1 PUSH1 0x1 PUSH1 0xA0 SHL SUB AND DUP2 JUMP JUMPDEST PUSH1 0x0 DUP1 SLOAD PUSH1 0x1 PUSH1 0x1 PUSH1 0xA0 SHL SUB AND PUSH2 0xA41 PUSH2 0xE19 JUMP JUMPDEST PUSH1 0x1 PUSH1 0x1 PUSH1 0xA0 SHL SUB AND EQ PUSH2 0xA86 JUMPI PUSH1 0x40 MLOAD PUSH3 0x461BCD PUSH1 0xE5 SHL DUP2 MSTORE PUSH1 0x4 ADD DUP1 DUP1 PUSH1 0x20 ADD DUP3 DUP2 SUB DUP3 MSTORE PUSH1 0x29 DUP2 MSTORE PUSH1 0x20 ADD DUP1 PUSH2 0x1B55 PUSH1 0x29 SWAP2 CODECOPY PUSH1 0x40 ADD SWAP2 POP POP PUSH1 0x40 MLOAD DUP1 SWAP2 SUB SWAP1 REVERT JUMPDEST PUSH1 0x1 PUSH1 0x1 PUSH1 0xA0 SHL SUB DUP3 AND PUSH2 0xACB JUMPI PUSH1 0x40 MLOAD PUSH3 0x461BCD PUSH1 0xE5 SHL DUP2 MSTORE PUSH1 0x4 ADD DUP1 DUP1 PUSH1 0x20 ADD DUP3 DUP2 SUB DUP3 MSTORE PUSH1 0x24 DUP2 MSTORE PUSH1 0x20 ADD DUP1 PUSH2 0x1986 PUSH1 0x24 SWAP2 CODECOPY PUSH1 0x40 ADD SWAP2 POP POP PUSH1 0x40 MLOAD DUP1 SWAP2 SUB SWAP1 REVERT JUMPDEST PUSH1 0x5 DUP1 SLOAD PUSH1 0xFF NOT PUSH1 0x1 PUSH1 0x1 PUSH1 0xA0 SHL SUB DUP6 DUP2 AND PUSH2 0x100 SWAP1 DUP2 MUL PUSH2 0x100 PUSH1 0x1 PUSH1 0xA8 SHL SUB NOT DUP6 AND OR SWAP3 SWAP1 SWAP3 AND PUSH1 0x1 OR SWAP4 DUP5 SWAP1 SSTORE PUSH1 0x40 DUP1 MLOAD SWAP4 DUP4 SWAP1 DIV DUP3 AND DUP1 DUP6 MSTORE SWAP3 SWAP1 SWAP5 DIV AND PUSH1 0x20 DUP4 ADD MSTORE NUMBER DUP3 DUP5 ADD MSTORE SWAP2 MLOAD PUSH32 0x1D08B6DC830BA58D6B4EB7F6E47A8694C605F5A915DAEBA017C21ED78EDFEC61 SWAP2 DUP2 SWAP1 SUB PUSH1 0x60 ADD SWAP1 LOG1 POP PUSH1 0x1 SWAP3 SWAP2 POP POP JUMP JUMPDEST PUSH1 0xC SLOAD PUSH1 0x1 PUSH1 0x1 PUSH1 0xA0 SHL SUB AND DUP2 JUMP JUMPDEST PUSH1 0xB SLOAD DUP2 JUMP JUMPDEST PUSH1 0x1 PUSH1 0x1 PUSH1 0xA0 SHL SUB AND PUSH1 0x0 SWAP1 DUP2 MSTORE PUSH1 0x1 PUSH1 0x20 MSTORE PUSH1 0x40 SWAP1 KECCAK256 SLOAD SWAP1 JUMP JUMPDEST PUSH1 0x0 PUSH2 0xB86 PUSH2 0x1432 JUMP JUMPDEST PUSH2 0xBD7 JUMPI PUSH1 0x40 DUP1 MLOAD PUSH3 0x461BCD PUSH1 0xE5 SHL DUP2 MSTORE PUSH1 0x20 PUSH1 0x4 DUP3 ADD MSTORE PUSH1 0x19 PUSH1 0x24 DUP3 ADD MSTORE PUSH32 0x4D696E74696E67206E6F7420706F737369626C65207965742E00000000000000 PUSH1 0x44 DUP3 ADD MSTORE SWAP1 MLOAD SWAP1 DUP2 SWAP1 SUB PUSH1 0x64 ADD SWAP1 REVERT JUMPDEST PUSH2 0xBDF PUSH2 0x14FE JUMP JUMPDEST SWAP1 POP SWAP1 JUMP JUMPDEST PUSH1 0x32 DUP1 SLOAD PUSH1 0x40 DUP1 MLOAD PUSH1 0x20 PUSH1 0x1F PUSH1 0x2 PUSH1 0x0 NOT PUSH2 0x100 PUSH1 0x1 DUP9 AND ISZERO MUL ADD SWAP1 SWAP6 AND SWAP5 SWAP1 SWAP5 DIV SWAP4 DUP5 ADD DUP2 SWAP1 DIV DUP2 MUL DUP3 ADD DUP2 ADD SWAP1 SWAP3 MSTORE DUP3 DUP2 MSTORE PUSH1 0x60 SWAP4 SWAP1 SWAP3 SWAP1 SWAP2 DUP4 ADD DUP3 DUP3 DUP1 ISZERO PUSH2 0x70B JUMPI DUP1 PUSH1 0x1F LT PUSH2 0x6E0 JUMPI PUSH2 0x100 DUP1 DUP4 SLOAD DIV MUL DUP4 MSTORE SWAP2 PUSH1 0x20 ADD SWAP2 PUSH2 0x70B JUMP JUMPDEST PUSH1 0x0 PUSH2 0x730 PUSH2 0xC52 PUSH2 0xE19 JUMP JUMPDEST DUP5 PUSH2 0x853 DUP6 PUSH1 0x40 MLOAD DUP1 PUSH1 0x60 ADD PUSH1 0x40 MSTORE DUP1 PUSH1 0x25 DUP2 MSTORE PUSH1 0x20 ADD PUSH2 0x1B7E PUSH1 0x25 SWAP2 CODECOPY PUSH1 0x2 PUSH1 0x0 PUSH2 0xC7C PUSH2 0xE19 JUMP JUMPDEST PUSH1 0x1 PUSH1 0x1 PUSH1 0xA0 SHL SUB SWAP1 DUP2 AND DUP3 MSTORE PUSH1 0x20 DUP1 DUP4 ADD SWAP4 SWAP1 SWAP4 MSTORE PUSH1 0x40 SWAP2 DUP3 ADD PUSH1 0x0 SWAP1 DUP2 KECCAK256 SWAP2 DUP14 AND DUP2 MSTORE SWAP3 MSTORE SWAP1 KECCAK256 SLOAD SWAP2 SWAP1 PUSH4 0xFFFFFFFF PUSH2 0x129A AND JUMP JUMPDEST PUSH1 0x3C DUP2 JUMP JUMPDEST PUSH1 0x0 PUSH2 0x730 PUSH2 0xCC5 PUSH2 0xE19 JUMP JUMPDEST DUP5 DUP5 PUSH2 0x10E9 JUMP JUMPDEST PUSH1 0x32 DUP1 SLOAD PUSH1 0x40 DUP1 MLOAD PUSH1 0x20 PUSH1 0x2 PUSH1 0x1 DUP6 AND ISZERO PUSH2 0x100 MUL PUSH1 0x0 NOT ADD SWAP1 SWAP5 AND SWAP4 SWAP1 SWAP4 DIV PUSH1 0x1F DUP2 ADD DUP5 SWAP1 DIV DUP5 MUL DUP3 ADD DUP5 ADD SWAP1 SWAP3 MSTORE DUP2 DUP2 MSTORE SWAP3 SWAP2 DUP4 ADD DUP3 DUP3 DUP1 ISZERO PUSH2 0xD52 JUMPI DUP1 PUSH1 0x1F LT PUSH2 0xD27 JUMPI PUSH2 0x100 DUP1 DUP4 SLOAD DIV MUL DUP4 MSTORE SWAP2 PUSH1 0x20 ADD SWAP2 PUSH2 0xD52 JUMP JUMPDEST DUP3 ADD SWAP2 SWAP1 PUSH1 0x0 MSTORE PUSH1 0x20 PUSH1 0x0 KECCAK256 SWAP1 JUMPDEST DUP2 SLOAD DUP2 MSTORE SWAP1 PUSH1 0x1 ADD SWAP1 PUSH1 0x20 ADD DUP1 DUP4 GT PUSH2 0xD35 JUMPI DUP3 SWAP1 SUB PUSH1 0x1F AND DUP3 ADD SWAP2 JUMPDEST POP POP POP POP POP DUP2 JUMP JUMPDEST PUSH1 0xC SLOAD PUSH1 0x1 PUSH1 0x1 PUSH1 0xA0 SHL SUB AND SWAP1 JUMP JUMPDEST PUSH1 0x6 SLOAD SWAP1 JUMP JUMPDEST PUSH1 0x5 SLOAD PUSH1 0xFF AND DUP2 JUMP JUMPDEST PUSH1 0x7 SLOAD SWAP1 JUMP JUMPDEST PUSH1 0x31 DUP1 SLOAD PUSH1 0x40 DUP1 MLOAD PUSH1 0x20 PUSH1 0x2 PUSH1 0x1 DUP6 AND ISZERO PUSH2 0x100 MUL PUSH1 0x0 NOT ADD SWAP1 SWAP5 AND SWAP4 SWAP1 SWAP4 DIV PUSH1 0x1F DUP2 ADD DUP5 SWAP1 DIV DUP5 MUL DUP3 ADD DUP5 ADD SWAP1 SWAP3 MSTORE DUP2 DUP2 MSTORE SWAP3 SWAP2 DUP4 ADD DUP3 DUP3 DUP1 ISZERO PUSH2 0xD52 JUMPI DUP1 PUSH1 0x1F LT PUSH2 0xD27 JUMPI PUSH2 0x100 DUP1 DUP4 SLOAD DIV MUL DUP4 MSTORE SWAP2 PUSH1 0x20 ADD SWAP2 PUSH2 0xD52 JUMP JUMPDEST PUSH1 0x1 PUSH1 0x1 PUSH1 0xA0 SHL SUB SWAP2 DUP3 AND PUSH1 0x0 SWAP1 DUP2 MSTORE PUSH1 0x2 PUSH1 0x20 SWAP1 DUP2 MSTORE PUSH1 0x40 DUP1 DUP4 KECCAK256 SWAP4 SWAP1 SWAP5 AND DUP3 MSTORE SWAP2 SWAP1 SWAP2 MSTORE KECCAK256 SLOAD SWAP1 JUMP JUMPDEST PUSH1 0x6 SLOAD DUP2 JUMP JUMPDEST PUSH1 0x30 SLOAD DUP2 JUMP JUMPDEST PUSH1 0x9 SLOAD PUSH1 0xFF AND SWAP1 JUMP JUMPDEST CALLER SWAP1 JUMP JUMPDEST PUSH1 0x40 DUP1 MLOAD PUSH1 0x60 DUP1 DUP3 ADD DUP4 MSTORE PUSH1 0x1 DUP1 DUP4 MSTORE PUSH1 0x20 DUP1 DUP5 ADD DUP4 SWAP1 MSTORE PUSH1 0x64 SWAP4 DUP6 ADD DUP5 SWAP1 MSTORE PUSH1 0xF SWAP2 SWAP1 SWAP2 SSTORE PUSH1 0x10 DUP3 SWAP1 SSTORE PUSH1 0x11 SWAP3 SWAP1 SWAP3 SSTORE DUP3 MLOAD DUP1 DUP3 ADD DUP5 MSTORE PUSH1 0x61 DUP1 DUP3 MSTORE PUSH2 0x1CE DUP3 DUP6 ADD DUP2 SWAP1 MSTORE PUSH1 0xC8 SWAP3 DUP7 ADD DUP4 SWAP1 MSTORE PUSH1 0x12 SWAP2 SWAP1 SWAP2 SSTORE PUSH1 0x13 SSTORE PUSH1 0x14 SSTORE DUP3 MLOAD DUP1 DUP3 ADD DUP5 MSTORE PUSH2 0x1CF DUP1 DUP3 MSTORE PUSH2 0x33C DUP3 DUP6 ADD DUP2 SWAP1 MSTORE PUSH2 0x190 SWAP3 DUP7 ADD DUP4 SWAP1 MSTORE PUSH1 0x15 SWAP2 SWAP1 SWAP2 SSTORE PUSH1 0x16 SSTORE PUSH1 0x17 SSTORE DUP3 MLOAD DUP1 DUP3 ADD DUP5 MSTORE PUSH2 0x33D DUP1 DUP3 MSTORE PUSH2 0x4AA DUP3 DUP6 ADD DUP2 SWAP1 MSTORE PUSH2 0x320 SWAP3 DUP7 ADD DUP4 SWAP1 MSTORE PUSH1 0x18 SWAP2 SWAP1 SWAP2 SSTORE PUSH1 0x19 SSTORE PUSH1 0x1A SSTORE DUP3 MLOAD DUP1 DUP3 ADD DUP5 MSTORE PUSH2 0x4AB DUP1 DUP3 MSTORE PUSH2 0x618 DUP3 DUP6 ADD DUP2 SWAP1 MSTORE PUSH2 0x640 SWAP3 DUP7 ADD DUP4 SWAP1 MSTORE PUSH1 0x1B SWAP2 SWAP1 SWAP2 SSTORE PUSH1 0x1C SSTORE PUSH1 0x1D SSTORE DUP3 MLOAD DUP1 DUP3 ADD DUP5 MSTORE PUSH2 0x619 DUP1 DUP3 MSTORE PUSH2 0x786 DUP3 DUP6 ADD DUP2 SWAP1 MSTORE PUSH2 0xC80 SWAP3 DUP7 ADD DUP4 SWAP1 MSTORE PUSH1 0x1E SWAP2 SWAP1 SWAP2 SSTORE PUSH1 0x1F SSTORE DUP3 SSTORE DUP3 MLOAD DUP1 DUP3 ADD DUP5 MSTORE PUSH2 0x787 DUP1 DUP3 MSTORE PUSH2 0x8F4 DUP3 DUP6 ADD DUP2 SWAP1 MSTORE PUSH2 0x1900 SWAP3 DUP7 ADD DUP4 SWAP1 MSTORE PUSH1 0x21 SWAP2 SWAP1 SWAP2 SSTORE PUSH1 0x22 SSTORE PUSH1 0x23 SSTORE DUP3 MLOAD DUP1 DUP3 ADD DUP5 MSTORE PUSH2 0x8F5 DUP1 DUP3 MSTORE PUSH2 0xA62 DUP3 DUP6 ADD DUP2 SWAP1 MSTORE PUSH2 0x3200 SWAP3 DUP7 ADD DUP4 SWAP1 MSTORE PUSH1 0x24 SWAP2 SWAP1 SWAP2 SSTORE PUSH1 0x25 SSTORE PUSH1 0x26 SSTORE DUP3 MLOAD DUP1 DUP3 ADD DUP5 MSTORE PUSH2 0xA63 DUP1 DUP3 MSTORE PUSH2 0xBD0 DUP3 DUP6 ADD DUP2 SWAP1 MSTORE PUSH2 0x6400 SWAP3 DUP7 ADD DUP4 SWAP1 MSTORE PUSH1 0x27 SWAP2 SWAP1 SWAP2 SSTORE PUSH1 0x28 SSTORE PUSH1 0x29 SSTORE DUP3 MLOAD DUP1 DUP3 ADD DUP5 MSTORE PUSH2 0xBD1 DUP1 DUP3 MSTORE PUSH2 0xD3E DUP3 DUP6 ADD DUP2 SWAP1 MSTORE PUSH2 0xC800 SWAP3 DUP7 ADD DUP4 SWAP1 MSTORE PUSH1 0x2A SWAP2 SWAP1 SWAP2 SSTORE PUSH1 0x2B SSTORE PUSH1 0x2C SSTORE DUP3 MLOAD SWAP1 DUP2 ADD DUP4 MSTORE PUSH2 0xD3F DUP1 DUP3 MSTORE PUSH2 0xEAC SWAP3 DUP3 ADD DUP4 SWAP1 MSTORE PUSH3 0x19000 SWAP2 SWAP1 SWAP4 ADD DUP2 SWAP1 MSTORE PUSH1 0x2D SWAP3 SWAP1 SWAP3 SSTORE PUSH1 0x2E SSTORE PUSH1 0x2F SSTORE JUMP JUMPDEST PUSH1 0x1 PUSH1 0x1 PUSH1 0xA0 SHL SUB DUP4 AND PUSH2 0x1042 JUMPI PUSH1 0x40 MLOAD PUSH3 0x461BCD PUSH1 0xE5 SHL DUP2 MSTORE PUSH1 0x4 ADD DUP1 DUP1 PUSH1 0x20 ADD DUP3 DUP2 SUB DUP3 MSTORE PUSH1 0x24 DUP2 MSTORE PUSH1 0x20 ADD DUP1 PUSH2 0x1AFE PUSH1 0x24 SWAP2 CODECOPY PUSH1 0x40 ADD SWAP2 POP POP PUSH1 0x40 MLOAD DUP1 SWAP2 SUB SWAP1 REVERT JUMPDEST PUSH1 0x1 PUSH1 0x1 PUSH1 0xA0 SHL SUB DUP3 AND PUSH2 0x1087 JUMPI PUSH1 0x40 MLOAD PUSH3 0x461BCD PUSH1 0xE5 SHL DUP2 MSTORE PUSH1 0x4 ADD DUP1 DUP1 PUSH1 0x20 ADD DUP3 DUP2 SUB DUP3 MSTORE PUSH1 0x22 DUP2 MSTORE PUSH1 0x20 ADD DUP1 PUSH2 0x19AA PUSH1 0x22 SWAP2 CODECOPY PUSH1 0x40 ADD SWAP2 POP POP PUSH1 0x40 MLOAD DUP1 SWAP2 SUB SWAP1 REVERT JUMPDEST PUSH1 0x1 PUSH1 0x1 PUSH1 0xA0 SHL SUB DUP1 DUP5 AND PUSH1 0x0 DUP2 DUP2 MSTORE PUSH1 0x2 PUSH1 0x20 SWAP1 DUP2 MSTORE PUSH1 0x40 DUP1 DUP4 KECCAK256 SWAP5 DUP8 AND DUP1 DUP5 MSTORE SWAP5 DUP3 MSTORE SWAP2 DUP3 SWAP1 KECCAK256 DUP6 SWAP1 SSTORE DUP2 MLOAD DUP6 DUP2 MSTORE SWAP2 MLOAD PUSH32 0x8C5BE1E5EBEC7D5BD14F71427D1E84F3DD0314C0F7B2291E5B200AC8C7C3B925 SWAP3 DUP2 SWAP1 SUB SWAP1 SWAP2 ADD SWAP1 LOG3 POP POP POP JUMP JUMPDEST PUSH1 0x1 PUSH1 0x1 PUSH1 0xA0 SHL SUB DUP4 AND PUSH2 0x112E JUMPI PUSH1 0x40 MLOAD PUSH3 0x461BCD PUSH1 0xE5 SHL DUP2 MSTORE PUSH1 0x4 ADD DUP1 DUP1 PUSH1 0x20 ADD DUP3 DUP2 SUB DUP3 MSTORE PUSH1 0x25 DUP2 MSTORE PUSH1 0x20 ADD DUP1 PUSH2 0x1AD9 PUSH1 0x25 SWAP2 CODECOPY PUSH1 0x40 ADD SWAP2 POP POP PUSH1 0x40 MLOAD DUP1 SWAP2 SUB SWAP1 REVERT JUMPDEST PUSH1 0x1 PUSH1 0x1 PUSH1 0xA0 SHL SUB DUP3 AND PUSH2 0x1173 JUMPI PUSH1 0x40 MLOAD PUSH3 0x461BCD PUSH1 0xE5 SHL DUP2 MSTORE PUSH1 0x4 ADD DUP1 DUP1 PUSH1 0x20 ADD DUP3 DUP2 SUB DUP3 MSTORE PUSH1 0x23 DUP2 MSTORE PUSH1 0x20 ADD DUP1 PUSH2 0x1942 PUSH1 0x23 SWAP2 CODECOPY PUSH1 0x40 ADD SWAP2 POP POP PUSH1 0x40 MLOAD DUP1 SWAP2 SUB SWAP1 REVERT JUMPDEST PUSH1 0x1 PUSH1 0x1 PUSH1 0xA0 SHL SUB DUP4 AND PUSH1 0x0 SWAP1 DUP2 MSTORE PUSH1 0x1 PUSH1 0x20 MSTORE PUSH1 0x40 SWAP1 KECCAK256 SLOAD DUP2 LT PUSH2 0x11C9 JUMPI PUSH1 0x40 MLOAD PUSH3 0x461BCD PUSH1 0xE5 SHL DUP2 MSTORE PUSH1 0x4 ADD DUP1 DUP1 PUSH1 0x20 ADD DUP3 DUP2 SUB DUP3 MSTORE PUSH1 0x33 DUP2 MSTORE PUSH1 0x20 ADD DUP1 PUSH2 0x1B22 PUSH1 0x33 SWAP2 CODECOPY PUSH1 0x40 ADD SWAP2 POP POP PUSH1 0x40 MLOAD DUP1 SWAP2 SUB SWAP1 REVERT JUMPDEST PUSH2 0x11D1 PUSH2 0x1432 JUMP JUMPDEST ISZERO PUSH2 0x11E0 JUMPI PUSH2 0x11DE PUSH2 0x14FE JUMP JUMPDEST POP JUMPDEST PUSH1 0x1 PUSH1 0x1 PUSH1 0xA0 SHL SUB DUP4 AND PUSH1 0x0 SWAP1 DUP2 MSTORE PUSH1 0x1 PUSH1 0x20 MSTORE PUSH1 0x40 SWAP1 KECCAK256 SLOAD PUSH2 0x1209 SWAP1 DUP3 PUSH4 0xFFFFFFFF PUSH2 0x1392 AND JUMP JUMPDEST PUSH1 0x1 PUSH1 0x1 PUSH1 0xA0 SHL SUB DUP1 DUP6 AND PUSH1 0x0 SWAP1 DUP2 MSTORE PUSH1 0x1 PUSH1 0x20 MSTORE PUSH1 0x40 DUP1 DUP3 KECCAK256 SWAP4 SWAP1 SWAP4 SSTORE SWAP1 DUP5 AND DUP2 MSTORE KECCAK256 SLOAD PUSH2 0x123E SWAP1 DUP3 PUSH4 0xFFFFFFFF PUSH2 0x1331 AND JUMP JUMPDEST PUSH1 0x1 PUSH1 0x1 PUSH1 0xA0 SHL SUB DUP1 DUP5 AND PUSH1 0x0 DUP2 DUP2 MSTORE PUSH1 0x1 PUSH1 0x20 SWAP1 DUP2 MSTORE PUSH1 0x40 SWAP2 DUP3 SWAP1 KECCAK256 SWAP5 SWAP1 SWAP5 SSTORE DUP1 MLOAD DUP6 DUP2 MSTORE SWAP1 MLOAD SWAP2 SWAP4 SWAP3 DUP8 AND SWAP3 PUSH32 0xDDF252AD1BE2C89B69C2B068FC378DAA952BA7F163C4A11628F55A4DF523B3EF SWAP3 SWAP2 DUP3 SWAP1 SUB ADD SWAP1 LOG3 POP POP POP JUMP JUMPDEST PUSH1 0x0 DUP2 DUP5 DUP5 GT ISZERO PUSH2 0x1329 JUMPI PUSH1 0x40 MLOAD PUSH3 0x461BCD PUSH1 0xE5 SHL DUP2 MSTORE PUSH1 0x4 ADD DUP1 DUP1 PUSH1 0x20 ADD DUP3 DUP2 SUB DUP3 MSTORE DUP4 DUP2 DUP2 MLOAD DUP2 MSTORE PUSH1 0x20 ADD SWAP2 POP DUP1 MLOAD SWAP1 PUSH1 0x20 ADD SWAP1 DUP1 DUP4 DUP4 PUSH1 0x0 JUMPDEST DUP4 DUP2 LT ISZERO PUSH2 0x12EE JUMPI DUP2 DUP2 ADD MLOAD DUP4 DUP3 ADD MSTORE PUSH1 0x20 ADD PUSH2 0x12D6 JUMP JUMPDEST POP POP POP POP SWAP1 POP SWAP1 DUP2 ADD SWAP1 PUSH1 0x1F AND DUP1 ISZERO PUSH2 0x131B JUMPI DUP1 DUP3 SUB DUP1 MLOAD PUSH1 0x1 DUP4 PUSH1 0x20 SUB PUSH2 0x100 EXP SUB NOT AND DUP2 MSTORE PUSH1 0x20 ADD SWAP2 POP JUMPDEST POP SWAP3 POP POP POP PUSH1 0x40 MLOAD DUP1 SWAP2 SUB SWAP1 REVERT JUMPDEST POP POP POP SWAP1 SUB SWAP1 JUMP JUMPDEST PUSH1 0x0 DUP3 DUP3 ADD DUP4 DUP2 LT ISZERO PUSH2 0x138B JUMPI PUSH1 0x40 DUP1 MLOAD PUSH3 0x461BCD PUSH1 0xE5 SHL DUP2 MSTORE PUSH1 0x20 PUSH1 0x4 DUP3 ADD MSTORE PUSH1 0x1B PUSH1 0x24 DUP3 ADD MSTORE PUSH32 0x536166654D6174683A206164646974696F6E206F766572666C6F770000000000 PUSH1 0x44 DUP3 ADD MSTORE SWAP1 MLOAD SWAP1 DUP2 SWAP1 SUB PUSH1 0x64 ADD SWAP1 REVERT JUMPDEST SWAP4 SWAP3 POP POP POP JUMP JUMPDEST PUSH1 0x0 PUSH2 0x138B DUP4 DUP4 PUSH1 0x40 MLOAD DUP1 PUSH1 0x40 ADD PUSH1 0x40 MSTORE DUP1 PUSH1 0x1E DUP2 MSTORE PUSH1 0x20 ADD PUSH32 0x536166654D6174683A207375627472616374696F6E206F766572666C6F770000 DUP2 MSTORE POP PUSH2 0x129A JUMP JUMPDEST PUSH1 0x0 DUP4 DUP4 ADD DUP3 DUP6 DUP3 LT ISZERO PUSH2 0x1429 JUMPI PUSH1 0x40 MLOAD PUSH3 0x461BCD PUSH1 0xE5 SHL DUP2 MSTORE PUSH1 0x20 PUSH1 0x4 DUP3 ADD DUP2 DUP2 MSTORE DUP4 MLOAD PUSH1 0x24 DUP5 ADD MSTORE DUP4 MLOAD SWAP1 SWAP3 DUP4 SWAP3 PUSH1 0x44 SWAP1 SWAP2 ADD SWAP2 SWAP1 DUP6 ADD SWAP1 DUP1 DUP4 DUP4 PUSH1 0x0 DUP4 ISZERO PUSH2 0x12EE JUMPI DUP2 DUP2 ADD MLOAD DUP4 DUP3 ADD MSTORE PUSH1 0x20 ADD PUSH2 0x12D6 JUMP JUMPDEST POP SWAP5 SWAP4 POP POP POP POP JUMP JUMPDEST PUSH1 0x9 SLOAD PUSH1 0x0 SWAP1 PUSH1 0xFF AND DUP1 ISZERO PUSH2 0x144A JUMPI POP PUSH2 0xE7F PUSH1 0x6 SLOAD LT JUMPDEST DUP1 ISZERO PUSH2 0x1461 JUMPI POP PUSH1 0x3C PUSH2 0x145F PUSH1 0xA SLOAD TIMESTAMP PUSH2 0x17B5 JUMP JUMPDEST GT JUMPDEST ISZERO PUSH2 0x14F6 JUMPI PUSH1 0x0 PUSH1 0x6 SLOAD SWAP1 POP PUSH1 0x0 PUSH2 0x149D PUSH1 0x6 SLOAD PUSH1 0x1 PUSH1 0x40 MLOAD DUP1 PUSH1 0x40 ADD PUSH1 0x40 MSTORE DUP1 PUSH1 0x8 DUP2 MSTORE PUSH1 0x20 ADD PUSH8 0x4F766572666C6F77 PUSH1 0xC0 SHL DUP2 MSTORE POP PUSH2 0x13D4 JUMP JUMPDEST PUSH1 0x6 DUP2 SWAP1 SSTORE PUSH1 0x40 DUP1 MLOAD DUP5 DUP2 MSTORE PUSH1 0x20 DUP2 ADD DUP4 SWAP1 MSTORE NUMBER DUP2 DUP4 ADD MSTORE TIMESTAMP PUSH1 0x60 DUP3 ADD MSTORE SWAP1 MLOAD SWAP2 SWAP3 POP PUSH32 0xAC27C13938741AEBE5A244EB97650610021A2747E4587C4E0A4969032464E6A3 SWAP2 SWAP1 DUP2 SWAP1 SUB PUSH1 0x80 ADD SWAP1 LOG1 PUSH1 0x1 SWAP3 POP POP POP PUSH2 0x713 JUMP JUMPDEST POP PUSH1 0x0 PUSH2 0x713 JUMP JUMPDEST PUSH1 0x0 PUSH2 0x1508 PUSH2 0x17C7 JUMP JUMPDEST PUSH1 0x7 SLOAD LT ISZERO PUSH2 0x15C8 JUMPI PUSH1 0x0 PUSH1 0x7 SLOAD SWAP1 POP PUSH1 0x0 PUSH2 0x155D PUSH1 0x7 SLOAD PUSH1 0x1 PUSH1 0x40 MLOAD DUP1 PUSH1 0x40 ADD PUSH1 0x40 MSTORE DUP1 PUSH1 0x1D DUP2 MSTORE PUSH1 0x20 ADD PUSH32 0x4E455720455241203A204164646974696F6E2067617665206572726F72000000 DUP2 MSTORE POP PUSH2 0x13D4 JUMP JUMPDEST PUSH1 0x7 DUP2 SWAP1 SSTORE SWAP1 POP PUSH1 0xF DUP2 PUSH1 0xB DUP2 LT PUSH2 0x1571 JUMPI INVALID JUMPDEST PUSH1 0x3 MUL ADD PUSH1 0x2 ADD SLOAD PUSH1 0x8 SSTORE PUSH1 0x7 SLOAD PUSH1 0x40 DUP1 MLOAD DUP5 DUP2 MSTORE PUSH1 0x20 DUP2 ADD SWAP3 SWAP1 SWAP3 MSTORE NUMBER DUP3 DUP3 ADD MSTORE TIMESTAMP PUSH1 0x60 DUP4 ADD MSTORE MLOAD PUSH32 0xA7041F0C0DAC061A7423E0D7D7B69A0D28E782C6E4842F4FCE5523379ACBB254 SWAP2 PUSH1 0x80 SWAP1 DUP3 SWAP1 SUB ADD SWAP1 LOG1 POP POP JUMPDEST PUSH1 0x0 PUSH2 0x15F5 PUSH1 0xF PUSH1 0x7 SLOAD PUSH1 0xB DUP2 LT PUSH2 0x15DC JUMPI INVALID JUMPDEST PUSH1 0x3 MUL ADD PUSH1 0x2 ADD SLOAD PUSH1 0x3 SLOAD PUSH2 0x189E SWAP1 SWAP2 SWAP1 PUSH4 0xFFFFFFFF AND JUMP JUMPDEST SWAP1 POP PUSH1 0x0 PUSH2 0x161E PUSH1 0x3 SLOAD DUP4 PUSH1 0x40 MLOAD DUP1 PUSH1 0x60 ADD PUSH1 0x40 MSTORE DUP1 PUSH1 0x21 DUP2 MSTORE PUSH1 0x20 ADD PUSH2 0x1965 PUSH1 0x21 SWAP2 CODECOPY PUSH2 0x13D4 JUMP JUMPDEST SWAP1 POP DUP1 PUSH1 0x3 DUP2 SWAP1 SSTORE POP PUSH2 0x165F PUSH1 0xD SLOAD PUSH1 0x1 PUSH1 0x0 PUSH2 0x1639 PUSH2 0xE19 JUMP JUMPDEST PUSH1 0x1 PUSH1 0x1 PUSH1 0xA0 SHL SUB AND DUP2 MSTORE PUSH1 0x20 DUP2 ADD SWAP2 SWAP1 SWAP2 MSTORE PUSH1 0x40 ADD PUSH1 0x0 KECCAK256 SLOAD SWAP1 PUSH4 0xFFFFFFFF PUSH2 0x1331 AND JUMP JUMPDEST PUSH1 0x1 PUSH1 0x0 PUSH2 0x166B PUSH2 0xE19 JUMP JUMPDEST PUSH1 0x1 PUSH1 0x1 PUSH1 0xA0 SHL SUB AND PUSH1 0x1 PUSH1 0x1 PUSH1 0xA0 SHL SUB AND DUP2 MSTORE PUSH1 0x20 ADD SWAP1 DUP2 MSTORE PUSH1 0x20 ADD PUSH1 0x0 KECCAK256 DUP2 SWAP1 SSTORE POP PUSH1 0x0 PUSH2 0x16A6 PUSH1 0xD SLOAD DUP5 PUSH2 0x1392 SWAP1 SWAP2 SWAP1 PUSH4 0xFFFFFFFF AND JUMP JUMPDEST PUSH1 0x5 SLOAD PUSH2 0x100 SWAP1 DIV PUSH1 0x1 PUSH1 0x1 PUSH1 0xA0 SHL SUB AND PUSH1 0x0 SWAP1 DUP2 MSTORE PUSH1 0x1 PUSH1 0x20 MSTORE PUSH1 0x40 SWAP1 KECCAK256 SLOAD SWAP1 SWAP2 POP PUSH2 0x16D3 SWAP1 DUP3 PUSH2 0x1331 JUMP JUMPDEST PUSH1 0x5 SLOAD PUSH2 0x100 SWAP1 DIV PUSH1 0x1 PUSH1 0x1 PUSH1 0xA0 SHL SUB AND PUSH1 0x0 SWAP1 DUP2 MSTORE PUSH1 0x1 PUSH1 0x20 MSTORE PUSH1 0x40 SWAP1 KECCAK256 SSTORE PUSH2 0x16FB PUSH2 0xE19 JUMP JUMPDEST PUSH1 0xC DUP1 SLOAD PUSH1 0x1 PUSH1 0x1 PUSH1 0xA0 SHL SUB NOT AND PUSH1 0x1 PUSH1 0x1 PUSH1 0xA0 SHL SUB SWAP3 SWAP1 SWAP3 AND SWAP2 SWAP1 SWAP2 OR SWAP1 SSTORE PUSH1 0xB DUP4 SWAP1 SSTORE PUSH1 0x6 DUP1 SLOAD PUSH1 0x0 SWAP1 DUP2 MSTORE PUSH1 0xE PUSH1 0x20 MSTORE PUSH1 0x40 SWAP1 KECCAK256 DUP5 SWAP1 SSTORE TIMESTAMP PUSH1 0xA SSTORE SLOAD PUSH1 0x7 SLOAD PUSH32 0x7D6DC069EAAF435521E8E6F346DDFF2E5D922845A8835E69EF45C6B2065B720F SWAP2 SWAP1 PUSH2 0x1768 PUSH2 0xE19 JUMP JUMPDEST PUSH1 0x3 SLOAD PUSH1 0x40 DUP1 MLOAD SWAP5 DUP6 MSTORE PUSH1 0x20 DUP6 ADD SWAP4 SWAP1 SWAP4 MSTORE PUSH1 0x1 PUSH1 0x1 PUSH1 0xA0 SHL SUB SWAP1 SWAP2 AND DUP4 DUP4 ADD MSTORE PUSH1 0x60 DUP4 ADD DUP8 SWAP1 MSTORE PUSH1 0x80 DUP4 ADD MSTORE NUMBER PUSH1 0xA0 DUP4 ADD MSTORE TIMESTAMP PUSH1 0xC0 DUP4 ADD MSTORE MLOAD SWAP1 DUP2 SWAP1 SUB PUSH1 0xE0 ADD SWAP1 LOG1 PUSH1 0x1 SWAP4 POP POP POP POP SWAP1 JUMP JUMPDEST PUSH1 0x0 PUSH2 0x138B DUP3 DUP5 PUSH4 0xFFFFFFFF PUSH2 0x1392 AND JUMP JUMPDEST PUSH1 0x0 PUSH1 0x7 PUSH1 0x6 SLOAD GT ISZERO DUP1 ISZERO PUSH2 0x17DA JUMPI POP PUSH1 0x1 JUMPDEST ISZERO PUSH2 0x17E7 JUMPI POP PUSH1 0x0 PUSH2 0x713 JUMP JUMPDEST PUSH1 0x0 PUSH2 0x182C PUSH1 0x6 SLOAD PUSH1 0x7 PUSH1 0x40 MLOAD DUP1 PUSH1 0x40 ADD PUSH1 0x40 MSTORE DUP1 PUSH1 0x1B DUP2 MSTORE PUSH1 0x20 ADD PUSH32 0x4552413A205375627472616374696F6E2067617665206572726F720000000000 DUP2 MSTORE POP PUSH2 0x129A JUMP JUMPDEST SWAP1 POP PUSH1 0x0 PUSH2 0x1871 DUP3 PUSH1 0x5 PUSH1 0x40 MLOAD DUP1 PUSH1 0x40 ADD PUSH1 0x40 MSTORE DUP1 PUSH1 0x19 DUP2 MSTORE PUSH1 0x20 ADD PUSH32 0x455241203A204469766973696F6E2067617665206572726F7200000000000000 DUP2 MSTORE POP PUSH2 0x18DC JUMP JUMPDEST SWAP1 POP PUSH1 0x9 DUP2 GT PUSH2 0x1895 JUMPI PUSH2 0x188C DUP2 PUSH1 0x1 PUSH4 0xFFFFFFFF PUSH2 0x1331 AND JUMP JUMPDEST SWAP3 POP POP POP PUSH2 0x713 JUMP JUMPDEST PUSH1 0xB SWAP3 POP POP POP SWAP1 JUMP JUMPDEST PUSH1 0x0 PUSH2 0x138B DUP4 DUP4 PUSH1 0x40 MLOAD DUP1 PUSH1 0x40 ADD PUSH1 0x40 MSTORE DUP1 PUSH1 0x1A DUP2 MSTORE PUSH1 0x20 ADD PUSH32 0x536166654D6174683A206469766973696F6E206279207A65726F000000000000 DUP2 MSTORE POP JUMPDEST PUSH1 0x0 DUP2 DUP4 PUSH2 0x192B JUMPI PUSH1 0x40 MLOAD PUSH3 0x461BCD PUSH1 0xE5 SHL DUP2 MSTORE PUSH1 0x20 PUSH1 0x4 DUP3 ADD DUP2 DUP2 MSTORE DUP4 MLOAD PUSH1 0x24 DUP5 ADD MSTORE DUP4 MLOAD SWAP1 SWAP3 DUP4 SWAP3 PUSH1 0x44 SWAP1 SWAP2 ADD SWAP2 SWAP1 DUP6 ADD SWAP1 DUP1 DUP4 DUP4 PUSH1 0x0 DUP4 ISZERO PUSH2 0x12EE JUMPI DUP2 DUP2 ADD MLOAD DUP4 DUP3 ADD MSTORE PUSH1 0x20 ADD PUSH2 0x12D6 JUMP JUMPDEST POP PUSH1 0x0 DUP4 DUP6 DUP2 PUSH2 0x1937 JUMPI INVALID JUMPDEST DIV SWAP6 SWAP5 POP POP POP POP POP JUMP INVALID GASLIMIT MSTORE NUMBER ORIGIN ADDRESS GASPRICE KECCAK256 PUSH21 0x72616E7366657220746F20746865207A65726F2061 PUSH5 0x6472657373 SLOAD PUSH16 0x74616C20537570706C793A2041646469 PUSH21 0x696F6E2067617665206572726F724E6F7420612076 PUSH2 0x6C69 PUSH5 0x2053706565 PUSH5 0x20436F6E74 PUSH19 0x6F6C6C6572206164647265737345524332303A KECCAK256 PUSH2 0x7070 PUSH19 0x6F766520746F20746865207A65726F20616464 PUSH19 0x657373537065656420436F6E74726F6C6C6572 KECCAK256 PUSH15 0x6565647320746F2062652073657420 PUSH3 0x65666F PUSH19 0x652074686520457261732063616E2062656769 PUSH15 0x4D696E74696E672063616E206F6E6C PUSH26 0x20626520696E697469616C697A6564206F6E63656275726E203A KECCAK256 SLOAD PUSH16 0x74616C204E756D626572206F6620746F PUSH12 0x656E73206275726E74206761 PUSH23 0x65206164646974696F6E206F766572666C6F7745524332 ADDRESS GASPRICE KECCAK256 PUSH21 0x72616E7366657220616D6F756E7420657863656564 PUSH20 0x20616C6C6F77616E63654D696E696E672063616E KECCAK256 PUSH16 0x6E6C7920626520696E697469616C697A PUSH6 0x642062792074 PUSH9 0x65206F776E65722E54 PUSH19 0x616E7366657220616D6F756E74206578636565 PUSH5 0x7320416C6C PUSH16 0x77616E636545524332303A207472616E PUSH20 0x6665722066726F6D20746865207A65726F206164 PUSH5 0x7265737345 MSTORE NUMBER ORIGIN ADDRESS GASPRICE KECCAK256 PUSH2 0x7070 PUSH19 0x6F76652066726F6D20746865207A65726F2061 PUSH5 0x6472657373 GASLIMIT MSTORE NUMBER ORIGIN ADDRESS GASPRICE KECCAK256 SLOAD PUSH9 0x652053656E64657220 PUSH5 0x6F65736E27 PUSH21 0x206861766520746865207265717569726564206261 PUSH13 0x616E63654F6E6C792074686520 COINBASE PUSH5 0x6D696E2063 PUSH2 0x6E20 PUSH4 0x68616E67 PUSH6 0x205370656564 NUMBER PUSH16 0x6E74726F6C6C657245524332303A2064 PUSH6 0x637265617365 PUSH5 0x20616C6C6F PUSH24 0x616E63652062656C6F77207A65726FA265627A7A72315820 0xDA 0x5C BYTE 0xA9 SWAP16 0xB0 INVALID 0xE6 0xCD PUSH22 0xB5387D6DF688E71242BAF8FB1CADDCAB749D28F152E7 PUSH5 0x736F6C6343 STOP SDIV GT STOP ORIGIN "
		},
		"gasEstimates": {
			"creation": {
				"codeDepositCost": "1425400",
				"executionCost": "infinite",
				"totalCost": "infinite"
			},
			"external": {
				"CURRENT_SUPPLY()": "1110",
				"CYCLE_SECONDS()": "309",
				"Current_Cycle()": "1086",
				"Current_Era()": "1111",
				"FINAL_CYCLE()": "310",
				"SpeedController()": "1181",
				"_decimals()": "1103",
				"_name()": "infinite",
				"_startTime()": "1108",
				"_symbol()": "infinite",
				"allowance(address,address)": "1316",
				"approve(address,uint256)": "infinite",
				"balanceOf(address)": "1254",
				"burn(uint256)": "infinite",
				"currentDivisibilityFactor()": "1044",
				"decimals()": "1081",
				"decreaseAllowance(address,uint256)": "infinite",
				"getCurrentCycle()": "1087",
				"getCurrentEra()": "1131",
				"getMintHistory(uint256)": "1174",
				"getRecentMinter()": "1104",
				"getRecentyMintedAmount()": "1132",
				"increaseAllowance(address,uint256)": "infinite",
				"initMinting()": "infinite",
				"isMintingActivated()": "1142",
				"isSpeedControllerSet()": "1121",
				"mintCoins()": "infinite",
				"mintingActivated()": "1079",
				"name()": "infinite",
				"previousMintTimeStamp()": "1109",
				"recentMinter()": "1105",
				"recentlyMintedAmount()": "1088",
				"setSpeedController(address)": "infinite",
				"symbol()": "infinite",
				"totalAmountBurnt()": "1087",
				"totalSupply()": "1088",
				"transfer(address,uint256)": "infinite",
				"transferFrom(address,address,uint256)": "infinite"
			},
			"internal": {
				"_CalculateCurrentEra()": "infinite",
				"_approve(address,address,uint256)": "infinite",
				"_getElapsedSeconds(uint256,uint256)": "infinite",
				"_initEras()": "infinite",
				"_transfer(address,address,uint256)": "infinite",
				"add(uint256,uint256,string memory)": "infinite",
				"div(uint256,uint256)": "infinite",
				"div(uint256,uint256,string memory)": "infinite",
				"isMintingPossible()": "infinite",
				"min(uint256,uint256)": "infinite",
				"mintNewCoins()": "infinite",
				"mul(uint256,uint256,string memory)": "infinite",
				"sub(uint256,uint256,string memory)": "infinite"
			}
		},
		"methodIdentifiers": {
			"CURRENT_SUPPLY()": "22948c77",
			"CYCLE_SECONDS()": "a8cc6d32",
			"Current_Cycle()": "e5049342",
			"Current_Era()": "07ec0443",
			"FINAL_CYCLE()": "33c42fe0",
			"SpeedController()": "4e1098a0",
			"_decimals()": "32424aa3",
			"_name()": "d28d8852",
			"_startTime()": "fa1acb5c",
			"_symbol()": "b09f1266",
			"allowance(address,address)": "dd62ed3e",
			"approve(address,uint256)": "095ea7b3",
			"balanceOf(address)": "70a08231",
			"burn(uint256)": "42966c68",
			"currentDivisibilityFactor()": "305f8e7a",
			"decimals()": "313ce567",
			"decreaseAllowance(address,uint256)": "a457c2d7",
			"getCurrentCycle()": "be26ed7f",
			"getCurrentEra()": "d250b6cb",
			"getMintHistory(uint256)": "0cb45f3b",
			"getRecentMinter()": "bd845d53",
			"getRecentyMintedAmount()": "38af3735",
			"increaseAllowance(address,uint256)": "39509351",
			"initMinting()": "00dee43f",
			"isMintingActivated()": "fc399a0d",
			"isSpeedControllerSet()": "c1523b62",
			"mintCoins()": "798907c1",
			"mintingActivated()": "01d6364b",
			"name()": "06fdde03",
			"previousMintTimeStamp()": "482d2810",
			"recentMinter()": "6b3dee3b",
			"recentlyMintedAmount()": "6c6101fc",
			"setSpeedController(address)": "4efd014a",
			"symbol()": "95d89b41",
			"totalAmountBurnt()": "45ee48cf",
			"totalSupply()": "18160ddd",
			"transfer(address,uint256)": "a9059cbb",
			"transferFrom(address,address,uint256)": "23b872dd"
		}
	},
	"abi": [
		{
			"inputs": [],
			"payable": false,
			"stateMutability": "nonpayable",
			"type": "constructor"
		},
		{
			"anonymous": false,
			"inputs": [
				{
					"indexed": true,
					"internalType": "address",
					"name": "owner",
					"type": "address"
				},
				{
					"indexed": true,
					"internalType": "address",
					"name": "spender",
					"type": "address"
				},
				{
					"indexed": false,
					"internalType": "uint256",
					"name": "value",
					"type": "uint256"
				}
			],
			"name": "Approval",
			"type": "event"
		},
		{
			"anonymous": false,
			"inputs": [
				{
					"indexed": false,
					"internalType": "uint256",
					"name": "prevCycle",
					"type": "uint256"
				},
				{
					"indexed": false,
					"internalType": "uint256",
					"name": "newCycle",
					"type": "uint256"
				},
				{
					"indexed": false,
					"internalType": "uint256",
					"name": "blockNumber",
					"type": "uint256"
				},
				{
					"indexed": false,
					"internalType": "uint256",
					"name": "timeStamp",
					"type": "uint256"
				}
			],
			"name": "NewCycle",
			"type": "event"
		},
		{
			"anonymous": false,
			"inputs": [
				{
					"indexed": false,
					"internalType": "uint256",
					"name": "prevEra",
					"type": "uint256"
				},
				{
					"indexed": false,
					"internalType": "uint256",
					"name": "newEra",
					"type": "uint256"
				},
				{
					"indexed": false,
					"internalType": "uint256",
					"name": "blockNumber",
					"type": "uint256"
				},
				{
					"indexed": false,
					"internalType": "uint256",
					"name": "timeStamp",
					"type": "uint256"
				}
			],
			"name": "NewEra",
			"type": "event"
		},
		{
			"anonymous": false,
			"inputs": [
				{
					"indexed": false,
					"internalType": "address",
					"name": "userAddress",
					"type": "address"
				},
				{
					"indexed": false,
					"internalType": "uint256",
					"name": "amount",
					"type": "uint256"
				},
				{
					"indexed": false,
					"internalType": "uint256",
					"name": "totalBurnedAmount",
					"type": "uint256"
				},
				{
					"indexed": false,
					"internalType": "uint256",
					"name": "currentSupply",
					"type": "uint256"
				}
			],
			"name": "SIGHBurned",
			"type": "event"
		},
		{
			"anonymous": false,
			"inputs": [
				{
					"indexed": false,
					"internalType": "uint256",
					"name": "cycle",
					"type": "uint256"
				},
				{
					"indexed": false,
					"internalType": "uint256",
					"name": "Era",
					"type": "uint256"
				},
				{
					"indexed": false,
					"internalType": "address",
					"name": "minter",
					"type": "address"
				},
				{
					"indexed": false,
					"internalType": "uint256",
					"name": "amountMinted",
					"type": "uint256"
				},
				{
					"indexed": false,
					"internalType": "uint256",
					"name": "current_supply",
					"type": "uint256"
				},
				{
					"indexed": false,
					"internalType": "uint256",
					"name": "block_number",
					"type": "uint256"
				},
				{
					"indexed": false,
					"internalType": "uint256",
					"name": "timestamp",
					"type": "uint256"
				}
			],
			"name": "SIGHMinted",
			"type": "event"
		},
		{
			"anonymous": false,
			"inputs": [
				{
					"indexed": false,
					"internalType": "address",
					"name": "prevSpeedController",
					"type": "address"
				},
				{
					"indexed": false,
					"internalType": "address",
					"name": "newSpeedController",
					"type": "address"
				},
				{
					"indexed": false,
					"internalType": "uint256",
					"name": "blockNumber",
					"type": "uint256"
				}
			],
			"name": "SpeedControllerChanged",
			"type": "event"
		},
		{
			"anonymous": false,
			"inputs": [
				{
					"indexed": true,
					"internalType": "address",
					"name": "from",
					"type": "address"
				},
				{
					"indexed": true,
					"internalType": "address",
					"name": "to",
					"type": "address"
				},
				{
					"indexed": false,
					"internalType": "uint256",
					"name": "value",
					"type": "uint256"
				}
			],
			"name": "Transfer",
			"type": "event"
		},
		{
			"constant": true,
			"inputs": [],
			"name": "CURRENT_SUPPLY",
			"outputs": [
				{
					"internalType": "uint256",
					"name": "",
					"type": "uint256"
				}
			],
			"payable": false,
			"stateMutability": "view",
			"type": "function"
		},
		{
			"constant": true,
			"inputs": [],
			"name": "CYCLE_SECONDS",
			"outputs": [
				{
					"internalType": "uint256",
					"name": "",
					"type": "uint256"
				}
			],
			"payable": false,
			"stateMutability": "view",
			"type": "function"
		},
		{
			"constant": true,
			"inputs": [],
			"name": "Current_Cycle",
			"outputs": [
				{
					"internalType": "uint256",
					"name": "",
					"type": "uint256"
				}
			],
			"payable": false,
			"stateMutability": "view",
			"type": "function"
		},
		{
			"constant": true,
			"inputs": [],
			"name": "Current_Era",
			"outputs": [
				{
					"internalType": "uint256",
					"name": "",
					"type": "uint256"
				}
			],
			"payable": false,
			"stateMutability": "view",
			"type": "function"
		},
		{
			"constant": true,
			"inputs": [],
			"name": "FINAL_CYCLE",
			"outputs": [
				{
					"internalType": "uint256",
					"name": "",
					"type": "uint256"
				}
			],
			"payable": false,
			"stateMutability": "view",
			"type": "function"
		},
		{
			"constant": true,
			"inputs": [],
			"name": "SpeedController",
			"outputs": [
				{
					"internalType": "address",
					"name": "",
					"type": "address"
				}
			],
			"payable": false,
			"stateMutability": "view",
			"type": "function"
		},
		{
			"constant": true,
			"inputs": [],
			"name": "_decimals",
			"outputs": [
				{
					"internalType": "uint8",
					"name": "",
					"type": "uint8"
				}
			],
			"payable": false,
			"stateMutability": "view",
			"type": "function"
		},
		{
			"constant": true,
			"inputs": [],
			"name": "_name",
			"outputs": [
				{
					"internalType": "string",
					"name": "",
					"type": "string"
				}
			],
			"payable": false,
			"stateMutability": "view",
			"type": "function"
		},
		{
			"constant": true,
			"inputs": [],
			"name": "_startTime",
			"outputs": [
				{
					"internalType": "uint256",
					"name": "",
					"type": "uint256"
				}
			],
			"payable": false,
			"stateMutability": "view",
			"type": "function"
		},
		{
			"constant": true,
			"inputs": [],
			"name": "_symbol",
			"outputs": [
				{
					"internalType": "string",
					"name": "",
					"type": "string"
				}
			],
			"payable": false,
			"stateMutability": "view",
			"type": "function"
		},
		{
			"constant": true,
			"inputs": [
				{
					"internalType": "address",
					"name": "owner",
					"type": "address"
				},
				{
					"internalType": "address",
					"name": "spender",
					"type": "address"
				}
			],
			"name": "allowance",
			"outputs": [
				{
					"internalType": "uint256",
					"name": "",
					"type": "uint256"
				}
			],
			"payable": false,
			"stateMutability": "view",
			"type": "function"
		},
		{
			"constant": false,
			"inputs": [
				{
					"internalType": "address",
					"name": "spender",
					"type": "address"
				},
				{
					"internalType": "uint256",
					"name": "amount",
					"type": "uint256"
				}
			],
			"name": "approve",
			"outputs": [
				{
					"internalType": "bool",
					"name": "",
					"type": "bool"
				}
			],
			"payable": false,
			"stateMutability": "nonpayable",
			"type": "function"
		},
		{
			"constant": true,
			"inputs": [
				{
					"internalType": "address",
					"name": "account",
					"type": "address"
				}
			],
			"name": "balanceOf",
			"outputs": [
				{
					"internalType": "uint256",
					"name": "",
					"type": "uint256"
				}
			],
			"payable": false,
			"stateMutability": "view",
			"type": "function"
		},
		{
			"constant": false,
			"inputs": [
				{
					"internalType": "uint256",
					"name": "amount",
					"type": "uint256"
				}
			],
			"name": "burn",
			"outputs": [
				{
					"internalType": "bool",
					"name": "",
					"type": "bool"
				}
			],
			"payable": false,
			"stateMutability": "nonpayable",
			"type": "function"
		},
		{
			"constant": true,
			"inputs": [],
			"name": "currentDivisibilityFactor",
			"outputs": [
				{
					"internalType": "uint256",
					"name": "",
					"type": "uint256"
				}
			],
			"payable": false,
			"stateMutability": "view",
			"type": "function"
		},
		{
			"constant": true,
			"inputs": [],
			"name": "decimals",
			"outputs": [
				{
					"internalType": "uint8",
					"name": "",
					"type": "uint8"
				}
			],
			"payable": false,
			"stateMutability": "view",
			"type": "function"
		},
		{
			"constant": false,
			"inputs": [
				{
					"internalType": "address",
					"name": "spender",
					"type": "address"
				},
				{
					"internalType": "uint256",
					"name": "subtractedValue",
					"type": "uint256"
				}
			],
			"name": "decreaseAllowance",
			"outputs": [
				{
					"internalType": "bool",
					"name": "",
					"type": "bool"
				}
			],
			"payable": false,
			"stateMutability": "nonpayable",
			"type": "function"
		},
		{
			"constant": true,
			"inputs": [],
			"name": "getCurrentCycle",
			"outputs": [
				{
					"internalType": "uint256",
					"name": "",
					"type": "uint256"
				}
			],
			"payable": false,
			"stateMutability": "view",
			"type": "function"
		},
		{
			"constant": true,
			"inputs": [],
			"name": "getCurrentEra",
			"outputs": [
				{
					"internalType": "uint256",
					"name": "",
					"type": "uint256"
				}
			],
			"payable": false,
			"stateMutability": "view",
			"type": "function"
		},
		{
			"constant": true,
			"inputs": [
				{
					"internalType": "uint256",
					"name": "cycle",
					"type": "uint256"
				}
			],
			"name": "getMintHistory",
			"outputs": [
				{
					"internalType": "uint256",
					"name": "",
					"type": "uint256"
				}
			],
			"payable": false,
			"stateMutability": "view",
			"type": "function"
		},
		{
			"constant": true,
			"inputs": [],
			"name": "getRecentMinter",
			"outputs": [
				{
					"internalType": "address",
					"name": "",
					"type": "address"
				}
			],
			"payable": false,
			"stateMutability": "view",
			"type": "function"
		},
		{
			"constant": true,
			"inputs": [],
			"name": "getRecentyMintedAmount",
			"outputs": [
				{
					"internalType": "uint256",
					"name": "",
					"type": "uint256"
				}
			],
			"payable": false,
			"stateMutability": "view",
			"type": "function"
		},
		{
			"constant": false,
			"inputs": [
				{
					"internalType": "address",
					"name": "spender",
					"type": "address"
				},
				{
					"internalType": "uint256",
					"name": "addedValue",
					"type": "uint256"
				}
			],
			"name": "increaseAllowance",
			"outputs": [
				{
					"internalType": "bool",
					"name": "",
					"type": "bool"
				}
			],
			"payable": false,
			"stateMutability": "nonpayable",
			"type": "function"
		},
		{
			"constant": false,
			"inputs": [],
			"name": "initMinting",
			"outputs": [
				{
					"internalType": "bool",
					"name": "",
					"type": "bool"
				}
			],
			"payable": false,
			"stateMutability": "nonpayable",
			"type": "function"
		},
		{
			"constant": true,
			"inputs": [],
			"name": "isMintingActivated",
			"outputs": [
				{
					"internalType": "bool",
					"name": "",
					"type": "bool"
				}
			],
			"payable": false,
			"stateMutability": "view",
			"type": "function"
		},
		{
			"constant": true,
			"inputs": [],
			"name": "isSpeedControllerSet",
			"outputs": [
				{
					"internalType": "bool",
					"name": "",
					"type": "bool"
				}
			],
			"payable": false,
			"stateMutability": "view",
			"type": "function"
		},
		{
			"constant": false,
			"inputs": [],
			"name": "mintCoins",
			"outputs": [
				{
					"internalType": "bool",
					"name": "",
					"type": "bool"
				}
			],
			"payable": false,
			"stateMutability": "nonpayable",
			"type": "function"
		},
		{
			"constant": true,
			"inputs": [],
			"name": "mintingActivated",
			"outputs": [
				{
					"internalType": "bool",
					"name": "",
					"type": "bool"
				}
			],
			"payable": false,
			"stateMutability": "view",
			"type": "function"
		},
		{
			"constant": true,
			"inputs": [],
			"name": "name",
			"outputs": [
				{
					"internalType": "string",
					"name": "",
					"type": "string"
				}
			],
			"payable": false,
			"stateMutability": "view",
			"type": "function"
		},
		{
			"constant": true,
			"inputs": [],
			"name": "previousMintTimeStamp",
			"outputs": [
				{
					"internalType": "uint256",
					"name": "",
					"type": "uint256"
				}
			],
			"payable": false,
			"stateMutability": "view",
			"type": "function"
		},
		{
			"constant": true,
			"inputs": [],
			"name": "recentMinter",
			"outputs": [
				{
					"internalType": "address",
					"name": "",
					"type": "address"
				}
			],
			"payable": false,
			"stateMutability": "view",
			"type": "function"
		},
		{
			"constant": true,
			"inputs": [],
			"name": "recentlyMintedAmount",
			"outputs": [
				{
					"internalType": "uint256",
					"name": "",
					"type": "uint256"
				}
			],
			"payable": false,
			"stateMutability": "view",
			"type": "function"
		},
		{
			"constant": false,
			"inputs": [
				{
					"internalType": "address",
					"name": "newSpeedController",
					"type": "address"
				}
			],
			"name": "setSpeedController",
			"outputs": [
				{
					"internalType": "bool",
					"name": "",
					"type": "bool"
				}
			],
			"payable": false,
			"stateMutability": "nonpayable",
			"type": "function"
		},
		{
			"constant": true,
			"inputs": [],
			"name": "symbol",
			"outputs": [
				{
					"internalType": "string",
					"name": "",
					"type": "string"
				}
			],
			"payable": false,
			"stateMutability": "view",
			"type": "function"
		},
		{
			"constant": true,
			"inputs": [],
			"name": "totalAmountBurnt",
			"outputs": [
				{
					"internalType": "uint256",
					"name": "",
					"type": "uint256"
				}
			],
			"payable": false,
			"stateMutability": "view",
			"type": "function"
		},
		{
			"constant": true,
			"inputs": [],
			"name": "totalSupply",
			"outputs": [
				{
					"internalType": "uint256",
					"name": "",
					"type": "uint256"
				}
			],
			"payable": false,
			"stateMutability": "view",
			"type": "function"
		},
		{
			"constant": false,
			"inputs": [
				{
					"internalType": "address",
					"name": "recipient",
					"type": "address"
				},
				{
					"internalType": "uint256",
					"name": "amount",
					"type": "uint256"
				}
			],
			"name": "transfer",
			"outputs": [
				{
					"internalType": "bool",
					"name": "",
					"type": "bool"
				}
			],
			"payable": false,
			"stateMutability": "nonpayable",
			"type": "function"
		},
		{
			"constant": false,
			"inputs": [
				{
					"internalType": "address",
					"name": "spender",
					"type": "address"
				},
				{
					"internalType": "address",
					"name": "recipient",
					"type": "address"
				},
				{
					"internalType": "uint256",
					"name": "amount",
					"type": "uint256"
				}
			],
			"name": "transferFrom",
			"outputs": [
				{
					"internalType": "bool",
					"name": "",
					"type": "bool"
				}
			],
			"payable": false,
			"stateMutability": "nonpayable",
			"type": "function"
		}
	]
}