{
	"data": {
		"bytecode": {
			"linkReferences": {},
			"object": "6080604052733af8c569ab77af5230596acf0e8c2f9351d24c386000806101000a81548173ffffffffffffffffffffffffffffffffffffffff021916908373ffffffffffffffffffffffffffffffffffffffff160217905550736135b13325bfc4b00278b4abc5e20bbce2d6580e600160006101000a81548173ffffffffffffffffffffffffffffffffffffffff021916908373ffffffffffffffffffffffffffffffffffffffff16021790555073777a68032a88e5a84678a77af2cd65a7b3c0775a600260006101000a81548173ffffffffffffffffffffffffffffffffffffffff021916908373ffffffffffffffffffffffffffffffffffffffff160217905550738e67a0cffbbf6a346ce87dfe06dae2dc782b3219600360006101000a81548173ffffffffffffffffffffffffffffffffffffffff021916908373ffffffffffffffffffffffffffffffffffffffff16021790555073396c5e36dd0a0f5a5d33dae44368d4193f69a1f0600460006101000a81548173ffffffffffffffffffffffffffffffffffffffff021916908373ffffffffffffffffffffffffffffffffffffffff1602179055507331f93da9823d737b7e44bdee0df389fe62fd1acd600560006101000a81548173ffffffffffffffffffffffffffffffffffffffff021916908373ffffffffffffffffffffffffffffffffffffffff160217905550736135b13325bfc4b00278b4abc5e20bbce2d6580e600660006101000a81548173ffffffffffffffffffffffffffffffffffffffff021916908373ffffffffffffffffffffffffffffffffffffffff160217905550735813a90f826e16db392abd2af7966313fc1fd5b8600760006101000a81548173ffffffffffffffffffffffffffffffffffffffff021916908373ffffffffffffffffffffffffffffffffffffffff1602179055506000602060006101000a81548160ff0219169083151502179055503480156102d257600080fd5b5061049f806102e26000396000f3fe608060405234801561001057600080fd5b50600436106100575760003560e01c806366331bba1461005c578063c4980b621461007e578063dbe321f41461009c578063ddba6e6b146100f4578063fc57d4df14610136575b600080fd5b61006461018e565b604051808215151515815260200191505060405180910390f35b610086610193565b6040518082815260200191505060405180910390f35b6100de600480360360208110156100b257600080fd5b81019080803573ffffffffffffffffffffffffffffffffffffffff169060200190929190505050610199565b6040518082815260200191505060405180910390f35b6101206004803603602081101561010a57600080fd5b81019080803590602001909291905050506101f6565b6040518082815260200191505060405180910390f35b6101786004803603602081101561014c57600080fd5b81019080803573ffffffffffffffffffffffffffffffffffffffff16906020019092919050505061020e565b6040518082815260200191505060405180910390f35b600181565b60215481565b6000602060009054906101000a900460ff166101b9576101b7610228565b505b60006021549050600181016021819055506018602154106101dd5760006021819055505b6008602154601881106101ec57fe5b0154915050919050565b6008816018811061020357fe5b016000915090505481565b600060086021546018811061021f57fe5b01549050919050565b6000620f4240600860006018811061023c57fe5b0181905550620c3500600860016018811061025357fe5b0181905550620aae60600860026018811061026a57fe5b01819055506209eb10600860036018811061028157fe5b0181905550620dbba0600860046018811061029857fe5b0181905550620c350060086005601881106102af57fe5b01819055506207a12060086006601881106102c657fe5b0181905550620f424060086007601881106102dd57fe5b01819055506210c8e0600880601881106102f357fe5b018190555062118c30600860096018811061030a57fe5b0181905550620dbba06008600a6018811061032157fe5b0181905550620cf8506008600b6018811061033857fe5b0181905550620b71b06008600c6018811061034f57fe5b0181905550620afc806008600d6018811061036657fe5b0181905550620aae606008600e6018811061037d57fe5b0181905550620975e06008600f6018811061039457fe5b0181905550620f424060086010601881106103ab57fe5b01819055506216e36060086011601881106103c257fe5b018190555062155cc060086012601881106103d957fe5b018190555062124f8060086013601881106103f057fe5b01819055506210c8e0600860146018811061040757fe5b018190555062155cc0600860166018811061041e57fe5b0181905550620dbba0600860176018811061043557fe5b01819055506001602060006101000a81548160ff021916908315150217905550602060009054906101000a900460ff1690509056fea265627a7a723158200289ab54cd9c5112a5ece92777e00afff3896b273e930278b934e299a582160a64736f6c63430005110032",
			"opcodes": "PUSH1 0x80 PUSH1 0x40 MSTORE PUSH20 0x3AF8C569AB77AF5230596ACF0E8C2F9351D24C38 PUSH1 0x0 DUP1 PUSH2 0x100 EXP DUP2 SLOAD DUP2 PUSH20 0xFFFFFFFFFFFFFFFFFFFFFFFFFFFFFFFFFFFFFFFF MUL NOT AND SWAP1 DUP4 PUSH20 0xFFFFFFFFFFFFFFFFFFFFFFFFFFFFFFFFFFFFFFFF AND MUL OR SWAP1 SSTORE POP PUSH20 0x6135B13325BFC4B00278B4ABC5E20BBCE2D6580E PUSH1 0x1 PUSH1 0x0 PUSH2 0x100 EXP DUP2 SLOAD DUP2 PUSH20 0xFFFFFFFFFFFFFFFFFFFFFFFFFFFFFFFFFFFFFFFF MUL NOT AND SWAP1 DUP4 PUSH20 0xFFFFFFFFFFFFFFFFFFFFFFFFFFFFFFFFFFFFFFFF AND MUL OR SWAP1 SSTORE POP PUSH20 0x777A68032A88E5A84678A77AF2CD65A7B3C0775A PUSH1 0x2 PUSH1 0x0 PUSH2 0x100 EXP DUP2 SLOAD DUP2 PUSH20 0xFFFFFFFFFFFFFFFFFFFFFFFFFFFFFFFFFFFFFFFF MUL NOT AND SWAP1 DUP4 PUSH20 0xFFFFFFFFFFFFFFFFFFFFFFFFFFFFFFFFFFFFFFFF AND MUL OR SWAP1 SSTORE POP PUSH20 0x8E67A0CFFBBF6A346CE87DFE06DAE2DC782B3219 PUSH1 0x3 PUSH1 0x0 PUSH2 0x100 EXP DUP2 SLOAD DUP2 PUSH20 0xFFFFFFFFFFFFFFFFFFFFFFFFFFFFFFFFFFFFFFFF MUL NOT AND SWAP1 DUP4 PUSH20 0xFFFFFFFFFFFFFFFFFFFFFFFFFFFFFFFFFFFFFFFF AND MUL OR SWAP1 SSTORE POP PUSH20 0x396C5E36DD0A0F5A5D33DAE44368D4193F69A1F0 PUSH1 0x4 PUSH1 0x0 PUSH2 0x100 EXP DUP2 SLOAD DUP2 PUSH20 0xFFFFFFFFFFFFFFFFFFFFFFFFFFFFFFFFFFFFFFFF MUL NOT AND SWAP1 DUP4 PUSH20 0xFFFFFFFFFFFFFFFFFFFFFFFFFFFFFFFFFFFFFFFF AND MUL OR SWAP1 SSTORE POP PUSH20 0x31F93DA9823D737B7E44BDEE0DF389FE62FD1ACD PUSH1 0x5 PUSH1 0x0 PUSH2 0x100 EXP DUP2 SLOAD DUP2 PUSH20 0xFFFFFFFFFFFFFFFFFFFFFFFFFFFFFFFFFFFFFFFF MUL NOT AND SWAP1 DUP4 PUSH20 0xFFFFFFFFFFFFFFFFFFFFFFFFFFFFFFFFFFFFFFFF AND MUL OR SWAP1 SSTORE POP PUSH20 0x6135B13325BFC4B00278B4ABC5E20BBCE2D6580E PUSH1 0x6 PUSH1 0x0 PUSH2 0x100 EXP DUP2 SLOAD DUP2 PUSH20 0xFFFFFFFFFFFFFFFFFFFFFFFFFFFFFFFFFFFFFFFF MUL NOT AND SWAP1 DUP4 PUSH20 0xFFFFFFFFFFFFFFFFFFFFFFFFFFFFFFFFFFFFFFFF AND MUL OR SWAP1 SSTORE POP PUSH20 0x5813A90F826E16DB392ABD2AF7966313FC1FD5B8 PUSH1 0x7 PUSH1 0x0 PUSH2 0x100 EXP DUP2 SLOAD DUP2 PUSH20 0xFFFFFFFFFFFFFFFFFFFFFFFFFFFFFFFFFFFFFFFF MUL NOT AND SWAP1 DUP4 PUSH20 0xFFFFFFFFFFFFFFFFFFFFFFFFFFFFFFFFFFFFFFFF AND MUL OR SWAP1 SSTORE POP PUSH1 0x0 PUSH1 0x20 PUSH1 0x0 PUSH2 0x100 EXP DUP2 SLOAD DUP2 PUSH1 0xFF MUL NOT AND SWAP1 DUP4 ISZERO ISZERO MUL OR SWAP1 SSTORE POP CALLVALUE DUP1 ISZERO PUSH2 0x2D2 JUMPI PUSH1 0x0 DUP1 REVERT JUMPDEST POP PUSH2 0x49F DUP1 PUSH2 0x2E2 PUSH1 0x0 CODECOPY PUSH1 0x0 RETURN INVALID PUSH1 0x80 PUSH1 0x40 MSTORE CALLVALUE DUP1 ISZERO PUSH2 0x10 JUMPI PUSH1 0x0 DUP1 REVERT JUMPDEST POP PUSH1 0x4 CALLDATASIZE LT PUSH2 0x57 JUMPI PUSH1 0x0 CALLDATALOAD PUSH1 0xE0 SHR DUP1 PUSH4 0x66331BBA EQ PUSH2 0x5C JUMPI DUP1 PUSH4 0xC4980B62 EQ PUSH2 0x7E JUMPI DUP1 PUSH4 0xDBE321F4 EQ PUSH2 0x9C JUMPI DUP1 PUSH4 0xDDBA6E6B EQ PUSH2 0xF4 JUMPI DUP1 PUSH4 0xFC57D4DF EQ PUSH2 0x136 JUMPI JUMPDEST PUSH1 0x0 DUP1 REVERT JUMPDEST PUSH2 0x64 PUSH2 0x18E JUMP JUMPDEST PUSH1 0x40 MLOAD DUP1 DUP3 ISZERO ISZERO ISZERO ISZERO DUP2 MSTORE PUSH1 0x20 ADD SWAP2 POP POP PUSH1 0x40 MLOAD DUP1 SWAP2 SUB SWAP1 RETURN JUMPDEST PUSH2 0x86 PUSH2 0x193 JUMP JUMPDEST PUSH1 0x40 MLOAD DUP1 DUP3 DUP2 MSTORE PUSH1 0x20 ADD SWAP2 POP POP PUSH1 0x40 MLOAD DUP1 SWAP2 SUB SWAP1 RETURN JUMPDEST PUSH2 0xDE PUSH1 0x4 DUP1 CALLDATASIZE SUB PUSH1 0x20 DUP2 LT ISZERO PUSH2 0xB2 JUMPI PUSH1 0x0 DUP1 REVERT JUMPDEST DUP2 ADD SWAP1 DUP1 DUP1 CALLDATALOAD PUSH20 0xFFFFFFFFFFFFFFFFFFFFFFFFFFFFFFFFFFFFFFFF AND SWAP1 PUSH1 0x20 ADD SWAP1 SWAP3 SWAP2 SWAP1 POP POP POP PUSH2 0x199 JUMP JUMPDEST PUSH1 0x40 MLOAD DUP1 DUP3 DUP2 MSTORE PUSH1 0x20 ADD SWAP2 POP POP PUSH1 0x40 MLOAD DUP1 SWAP2 SUB SWAP1 RETURN JUMPDEST PUSH2 0x120 PUSH1 0x4 DUP1 CALLDATASIZE SUB PUSH1 0x20 DUP2 LT ISZERO PUSH2 0x10A JUMPI PUSH1 0x0 DUP1 REVERT JUMPDEST DUP2 ADD SWAP1 DUP1 DUP1 CALLDATALOAD SWAP1 PUSH1 0x20 ADD SWAP1 SWAP3 SWAP2 SWAP1 POP POP POP PUSH2 0x1F6 JUMP JUMPDEST PUSH1 0x40 MLOAD DUP1 DUP3 DUP2 MSTORE PUSH1 0x20 ADD SWAP2 POP POP PUSH1 0x40 MLOAD DUP1 SWAP2 SUB SWAP1 RETURN JUMPDEST PUSH2 0x178 PUSH1 0x4 DUP1 CALLDATASIZE SUB PUSH1 0x20 DUP2 LT ISZERO PUSH2 0x14C JUMPI PUSH1 0x0 DUP1 REVERT JUMPDEST DUP2 ADD SWAP1 DUP1 DUP1 CALLDATALOAD PUSH20 0xFFFFFFFFFFFFFFFFFFFFFFFFFFFFFFFFFFFFFFFF AND SWAP1 PUSH1 0x20 ADD SWAP1 SWAP3 SWAP2 SWAP1 POP POP POP PUSH2 0x20E JUMP JUMPDEST PUSH1 0x40 MLOAD DUP1 DUP3 DUP2 MSTORE PUSH1 0x20 ADD SWAP2 POP POP PUSH1 0x40 MLOAD DUP1 SWAP2 SUB SWAP1 RETURN JUMPDEST PUSH1 0x1 DUP2 JUMP JUMPDEST PUSH1 0x21 SLOAD DUP2 JUMP JUMPDEST PUSH1 0x0 PUSH1 0x20 PUSH1 0x0 SWAP1 SLOAD SWAP1 PUSH2 0x100 EXP SWAP1 DIV PUSH1 0xFF AND PUSH2 0x1B9 JUMPI PUSH2 0x1B7 PUSH2 0x228 JUMP JUMPDEST POP JUMPDEST PUSH1 0x0 PUSH1 0x21 SLOAD SWAP1 POP PUSH1 0x1 DUP2 ADD PUSH1 0x21 DUP2 SWAP1 SSTORE POP PUSH1 0x18 PUSH1 0x21 SLOAD LT PUSH2 0x1DD JUMPI PUSH1 0x0 PUSH1 0x21 DUP2 SWAP1 SSTORE POP JUMPDEST PUSH1 0x8 PUSH1 0x21 SLOAD PUSH1 0x18 DUP2 LT PUSH2 0x1EC JUMPI INVALID JUMPDEST ADD SLOAD SWAP2 POP POP SWAP2 SWAP1 POP JUMP JUMPDEST PUSH1 0x8 DUP2 PUSH1 0x18 DUP2 LT PUSH2 0x203 JUMPI INVALID JUMPDEST ADD PUSH1 0x0 SWAP2 POP SWAP1 POP SLOAD DUP2 JUMP JUMPDEST PUSH1 0x0 PUSH1 0x8 PUSH1 0x21 SLOAD PUSH1 0x18 DUP2 LT PUSH2 0x21F JUMPI INVALID JUMPDEST ADD SLOAD SWAP1 POP SWAP2 SWAP1 POP JUMP JUMPDEST PUSH1 0x0 PUSH3 0xF4240 PUSH1 0x8 PUSH1 0x0 PUSH1 0x18 DUP2 LT PUSH2 0x23C JUMPI INVALID JUMPDEST ADD DUP2 SWAP1 SSTORE POP PUSH3 0xC3500 PUSH1 0x8 PUSH1 0x1 PUSH1 0x18 DUP2 LT PUSH2 0x253 JUMPI INVALID JUMPDEST ADD DUP2 SWAP1 SSTORE POP PUSH3 0xAAE60 PUSH1 0x8 PUSH1 0x2 PUSH1 0x18 DUP2 LT PUSH2 0x26A JUMPI INVALID JUMPDEST ADD DUP2 SWAP1 SSTORE POP PUSH3 0x9EB10 PUSH1 0x8 PUSH1 0x3 PUSH1 0x18 DUP2 LT PUSH2 0x281 JUMPI INVALID JUMPDEST ADD DUP2 SWAP1 SSTORE POP PUSH3 0xDBBA0 PUSH1 0x8 PUSH1 0x4 PUSH1 0x18 DUP2 LT PUSH2 0x298 JUMPI INVALID JUMPDEST ADD DUP2 SWAP1 SSTORE POP PUSH3 0xC3500 PUSH1 0x8 PUSH1 0x5 PUSH1 0x18 DUP2 LT PUSH2 0x2AF JUMPI INVALID JUMPDEST ADD DUP2 SWAP1 SSTORE POP PUSH3 0x7A120 PUSH1 0x8 PUSH1 0x6 PUSH1 0x18 DUP2 LT PUSH2 0x2C6 JUMPI INVALID JUMPDEST ADD DUP2 SWAP1 SSTORE POP PUSH3 0xF4240 PUSH1 0x8 PUSH1 0x7 PUSH1 0x18 DUP2 LT PUSH2 0x2DD JUMPI INVALID JUMPDEST ADD DUP2 SWAP1 SSTORE POP PUSH3 0x10C8E0 PUSH1 0x8 DUP1 PUSH1 0x18 DUP2 LT PUSH2 0x2F3 JUMPI INVALID JUMPDEST ADD DUP2 SWAP1 SSTORE POP PUSH3 0x118C30 PUSH1 0x8 PUSH1 0x9 PUSH1 0x18 DUP2 LT PUSH2 0x30A JUMPI INVALID JUMPDEST ADD DUP2 SWAP1 SSTORE POP PUSH3 0xDBBA0 PUSH1 0x8 PUSH1 0xA PUSH1 0x18 DUP2 LT PUSH2 0x321 JUMPI INVALID JUMPDEST ADD DUP2 SWAP1 SSTORE POP PUSH3 0xCF850 PUSH1 0x8 PUSH1 0xB PUSH1 0x18 DUP2 LT PUSH2 0x338 JUMPI INVALID JUMPDEST ADD DUP2 SWAP1 SSTORE POP PUSH3 0xB71B0 PUSH1 0x8 PUSH1 0xC PUSH1 0x18 DUP2 LT PUSH2 0x34F JUMPI INVALID JUMPDEST ADD DUP2 SWAP1 SSTORE POP PUSH3 0xAFC80 PUSH1 0x8 PUSH1 0xD PUSH1 0x18 DUP2 LT PUSH2 0x366 JUMPI INVALID JUMPDEST ADD DUP2 SWAP1 SSTORE POP PUSH3 0xAAE60 PUSH1 0x8 PUSH1 0xE PUSH1 0x18 DUP2 LT PUSH2 0x37D JUMPI INVALID JUMPDEST ADD DUP2 SWAP1 SSTORE POP PUSH3 0x975E0 PUSH1 0x8 PUSH1 0xF PUSH1 0x18 DUP2 LT PUSH2 0x394 JUMPI INVALID JUMPDEST ADD DUP2 SWAP1 SSTORE POP PUSH3 0xF4240 PUSH1 0x8 PUSH1 0x10 PUSH1 0x18 DUP2 LT PUSH2 0x3AB JUMPI INVALID JUMPDEST ADD DUP2 SWAP1 SSTORE POP PUSH3 0x16E360 PUSH1 0x8 PUSH1 0x11 PUSH1 0x18 DUP2 LT PUSH2 0x3C2 JUMPI INVALID JUMPDEST ADD DUP2 SWAP1 SSTORE POP PUSH3 0x155CC0 PUSH1 0x8 PUSH1 0x12 PUSH1 0x18 DUP2 LT PUSH2 0x3D9 JUMPI INVALID JUMPDEST ADD DUP2 SWAP1 SSTORE POP PUSH3 0x124F80 PUSH1 0x8 PUSH1 0x13 PUSH1 0x18 DUP2 LT PUSH2 0x3F0 JUMPI INVALID JUMPDEST ADD DUP2 SWAP1 SSTORE POP PUSH3 0x10C8E0 PUSH1 0x8 PUSH1 0x14 PUSH1 0x18 DUP2 LT PUSH2 0x407 JUMPI INVALID JUMPDEST ADD DUP2 SWAP1 SSTORE POP PUSH3 0x155CC0 PUSH1 0x8 PUSH1 0x16 PUSH1 0x18 DUP2 LT PUSH2 0x41E JUMPI INVALID JUMPDEST ADD DUP2 SWAP1 SSTORE POP PUSH3 0xDBBA0 PUSH1 0x8 PUSH1 0x17 PUSH1 0x18 DUP2 LT PUSH2 0x435 JUMPI INVALID JUMPDEST ADD DUP2 SWAP1 SSTORE POP PUSH1 0x1 PUSH1 0x20 PUSH1 0x0 PUSH2 0x100 EXP DUP2 SLOAD DUP2 PUSH1 0xFF MUL NOT AND SWAP1 DUP4 ISZERO ISZERO MUL OR SWAP1 SSTORE POP PUSH1 0x20 PUSH1 0x0 SWAP1 SLOAD SWAP1 PUSH2 0x100 EXP SWAP1 DIV PUSH1 0xFF AND SWAP1 POP SWAP1 JUMP INVALID LOG2 PUSH6 0x627A7A723158 KECCAK256 MUL DUP10 0xAB SLOAD 0xCD SWAP13 MLOAD SLT 0xA5 0xEC 0xE9 0x27 PUSH24 0xE00AFFF3896B273E930278B934E299A582160A64736F6C63 NUMBER STOP SDIV GT STOP ORIGIN "
		},
		"gasEstimates": {
			"creation": {
				"codeDepositCost": "236600",
				"executionCost": "188078",
				"totalCost": "424678"
			},
			"external": {
				"currentCLock()": "1005",
				"getUnderlyingPrice(address)": "2001",
				"getUnderlyingPriceRefresh(address)": "512212",
				"isPriceOracle()": "195",
				"pricesList(uint256)": "1173"
			},
			"internal": {
				"compareStrings(string memory,string memory)": "infinite",
				"initializePrices()": "482715"
			}
		},
		"methodIdentifiers": {
			"currentCLock()": "c4980b62",
			"getUnderlyingPrice(address)": "fc57d4df",
			"getUnderlyingPriceRefresh(address)": "dbe321f4",
			"isPriceOracle()": "66331bba",
			"pricesList(uint256)": "ddba6e6b"
		}
	},
	"abi": [
		{
			"constant": true,
			"inputs": [],
			"name": "currentCLock",
			"outputs": [
				{
					"internalType": "uint256",
					"name": "",
					"type": "uint256"
				}
			],
			"payable": false,
			"stateMutability": "view",
			"type": "function"
		},
		{
			"constant": false,
			"inputs": [
				{
					"internalType": "contract CToken",
					"name": "cToken",
					"type": "address"
				}
			],
			"name": "getUnderlyingPrice",
			"outputs": [
				{
					"internalType": "uint256",
					"name": "",
					"type": "uint256"
				}
			],
			"payable": false,
			"stateMutability": "nonpayable",
			"type": "function"
		},
		{
			"constant": false,
			"inputs": [
				{
					"internalType": "contract CToken",
					"name": "cToken",
					"type": "address"
				}
			],
			"name": "getUnderlyingPriceRefresh",
			"outputs": [
				{
					"internalType": "uint256",
					"name": "",
					"type": "uint256"
				}
			],
			"payable": false,
			"stateMutability": "nonpayable",
			"type": "function"
		},
		{
			"constant": true,
			"inputs": [],
			"name": "isPriceOracle",
			"outputs": [
				{
					"internalType": "bool",
					"name": "",
					"type": "bool"
				}
			],
			"payable": false,
			"stateMutability": "view",
			"type": "function"
		},
		{
			"constant": true,
			"inputs": [
				{
					"internalType": "uint256",
					"name": "",
					"type": "uint256"
				}
			],
			"name": "pricesList",
			"outputs": [
				{
					"internalType": "uint256",
					"name": "",
					"type": "uint256"
				}
			],
			"payable": false,
			"stateMutability": "view",
			"type": "function"
		}
	]
}