{
	"data": {
		"bytecode": {
			"linkReferences": {},
			"object": "60806040526001805460ff60a01b1916905534801561001d57600080fd5b506040516118513803806118518339818101604052604081101561004057600080fd5b508051602090910151600080546001600160a01b03199081166001600160a01b038086169182179384905560018054909316818616179092559116146100b75760405162461bcd60e51b815260040180806020018281038252602a815260200180611827602a913960400191505060405180910390fd5b6001546001600160a01b038281169116146101035760405162461bcd60e51b815260040180806020018281038252602c8152602001806117fb602c913960400191505060405180910390fd5b50506116e7806101146000396000f3fe608060405234801561001057600080fd5b506004361061010b5760003560e01c8063633eec44116100a2578063b02644d011610071578063b02644d0146102ce578063c6a6bfb1146102d6578063c9c90642146102de578063d2ee1ea614610304578063ebb3e0861461032a5761010b565b8063633eec441461026a57806378b122dc146102965780638438cc231461029e5780639f678cca146102c45761010b565b80634c2d2333116100de5780634c2d2333146101c2578063532913a5146101de5780635a2ac256146102365780635c8cfed81461023e5761010b565b80630259d8c114610110578063101cd9ca1461015e5780632aef904a14610178578063497a8ed41461019e575b600080fd5b6101366004803603602081101561012657600080fd5b50356001600160a01b0316610350565b6040805194151585526020850193909352838301919091526060830152519081900360800190f35b610166610383565b60408051918252519081900360200190f35b6101666004803603602081101561018e57600080fd5b50356001600160a01b031661038a565b6101a66103a9565b604080516001600160a01b039092168252519081900360200190f35b6101ca6103b8565b604080519115158252519081900360200190f35b6101e66103c8565b60408051602080825283518183015283519192839290830191858101910280838360005b8381101561022257818101518382015260200161020a565b505050509050019250505060405180910390f35b61016661042a565b6101ca6004803603604081101561025457600080fd5b506001600160a01b038135169060200135610430565b6101ca6004803603604081101561028057600080fd5b506001600160a01b0381351690602001356105e3565b6101ca610930565b6101ca600480360360208110156102b457600080fd5b50356001600160a01b0316610a95565b6102cc610d52565b005b6101a6610da4565b610166610db3565b610166600480360360208110156102f457600080fd5b50356001600160a01b0316610e36565b6101666004803603602081101561031a57600080fd5b50356001600160a01b0316610e54565b6101ca6004803603602081101561034057600080fd5b50356001600160a01b0316610e72565b6001600160a01b03166000908152600360208190526040909120805460018201546002830154929093015460ff90911693565b6004545b90565b6001600160a01b03166000908152600360208190526040909120015490565b6001546001600160a01b031690565b600154600160a01b900460ff1690565b6060600480548060200260200160405190810160405280929190818152602001828054801561042057602002820191906000526020600020905b81546001600160a01b03168152600190910190602001808311610402575b5050505050905090565b60025490565b6000336001600160a01b0316600160009054906101000a90046001600160a01b03166001600160a01b031663db49224b6040518163ffffffff1660e01b815260040160206040518083038186803b15801561048a57600080fd5b505afa15801561049e573d6000803e3d6000fd5b505050506040513d60208110156104b457600080fd5b50516001600160a01b0316146104fb5760405162461bcd60e51b815260040180806020018281038252603a81526020018061154b603a913960400191505060405180910390fd5b6001600160a01b03831660009081526003602052604090205460ff166105525760405162461bcd60e51b815260040180806020018281038252603a81526020018061149e603a913960400191505060405180910390fd5b600154600160a01b900460ff161561056c5761056c610e90565b6001600160a01b0383166000818152600360209081526040918290206001018054908690558251938452908301819052828201859052436060840152905190917fd91508c5e5e51cec5f1772d2fc7dfd76bd6f0f9de3696afffe91490121d73b90919081900360800190a160019150505b92915050565b6000336001600160a01b0316600160009054906101000a90046001600160a01b03166001600160a01b031663db49224b6040518163ffffffff1660e01b815260040160206040518083038186803b15801561063d57600080fd5b505afa158015610651573d6000803e3d6000fd5b505050506040513d602081101561066757600080fd5b50516001600160a01b0316146106ae5760405162461bcd60e51b815260040180806020018281038252603a81526020018061154b603a913960400191505060405180910390fd5b6001600160a01b03831660009081526003602052604090205460ff16156107065760405162461bcd60e51b815260040180806020018281038252603f81526020018061150c603f913960400191505060405180910390fd5b600154600160a01b900460ff161561072057610720610e90565b60048054600181019091557f8a35acfbc15ff81a39ae7d344fd709f28e8600b4aa8c65c6b64bfe7fe36bd19b0180546001600160a01b0319166001600160a01b038516908117909155600090815260036020526040902060020154156107ae576001600160a01b0383166000908152600360205260409020805460ff1916600190811782550182905561080e565b60408051608081018252600180825260208083018681526000848601818152606086018281526001600160a01b038b168352600394859052969091209451855460ff19169015151785559051928401929092559051600283015591519101555b436002556001600160a01b03831660009081526003602052604090205460ff166108695760405162461bcd60e51b815260040180806020018281038252602a815260200180611474602a913960400191505060405180910390fd5b6001600160a01b03831660009081526003602052604090206001015482146108c25760405162461bcd60e51b815260040180806020018281038252603d815260200180611585603d913960400191505060405180910390fd5b6001600160a01b038316600081815260036020908152604091829020600181015460029091015483519485529184015282820152436060830152517f37c08ff6da738f1c72ae4223548bf0fc53b4f97c5314a3c0cf0c940af9598ad79181900360800190a150600192915050565b6000336001600160a01b0316600160009054906101000a90046001600160a01b03166001600160a01b031663db49224b6040518163ffffffff1660e01b815260040160206040518083038186803b15801561098a57600080fd5b505afa15801561099e573d6000803e3d6000fd5b505050506040513d60208110156109b457600080fd5b50516001600160a01b0316146109fb5760405162461bcd60e51b815260040180806020018281038252603a81526020018061154b603a913960400191505060405180910390fd5b600154600160a01b900460ff1615610a445760405162461bcd60e51b815260040180806020018281038252602581526020018061168e6025913960400191505060405180910390fd5b6001805460ff60a01b1916600160a01b17905543600281905560408051918252517ff030f7afe867c9186d292811b9b968f3d2c4928e6aa2f12d6cc3eadf3205a1e19181900360200190a150600190565b6000336001600160a01b0316600160009054906101000a90046001600160a01b03166001600160a01b031663db49224b6040518163ffffffff1660e01b815260040160206040518083038186803b158015610aef57600080fd5b505afa158015610b03573d6000803e3d6000fd5b505050506040513d6020811015610b1957600080fd5b50516001600160a01b031614610b605760405162461bcd60e51b815260040180806020018281038252603a81526020018061154b603a913960400191505060405180910390fd5b6001600160a01b03821660009081526003602052604090205460ff16610bb75760405162461bcd60e51b81526004018080602001828103825260428152602001806115c26042913960600191505060405180910390fd5b600154600160a01b900460ff1615610bd157610bd1610e90565b600454600090815b81811015610c2357846001600160a01b031660048281548110610bf857fe5b6000918252602090912001546001600160a01b03161415610c1b57809250610c23565b600101610bd9565b5060046001820381548110610c3457fe5b600091825260209091200154600480546001600160a01b039092169184908110610c5a57fe5b600091825260209091200180546001600160a01b0319166001600160a01b03929092169190911790556004805490610c969060001983016113fb565b506004546000198201908114610cdd5760405162461bcd60e51b81526004018080602001828103825260348152602001806114d86034913960400191505060405180910390fd5b6001600160a01b0385166000818152600360209081526040808320805460ff1916815560018101939093556002909201548251938452908301524382820152517fe521b99e16fdffe28054ed6110b75589a9116a2bf0c462fd55f4d3b792380c3b9181900360600190a1506001949350505050565b600154600160a01b900460ff16610d9a5760405162461bcd60e51b815260040180806020018281038252603d815260200180611604603d913960400191505060405180910390fd5b610da2610e90565b565b6000546001600160a01b031690565b60008054604080516370a0823160e01b815230600482015290516001600160a01b0390921691839183916370a0823191602480820192602092909190829003018186803b158015610e0357600080fd5b505afa158015610e17573d6000803e3d6000fd5b505050506040513d6020811015610e2d57600080fd5b50519250505090565b6001600160a01b031660009081526003602052604090206002015490565b6001600160a01b031660009081526003602052604090206001015490565b6001600160a01b031660009081526003602052604090205460ff1690565b436002541415610e9f57610da2565b60005460048054604080516020808402820181019092528281526001600160a01b039094169360609390929091830182828015610f0557602002820191906000526020600020905b81546001600160a01b03168152600190910190602001808311610ee7575b505050505090506000815190506000804390506000610f5c826002546040518060400160405280601781526020017f44656c746120426c6f636b732067617665206572726f7200000000000000000081525061127f565b905083156112735760005b84811015611271576000868281518110610f7d57fe5b6020908102919091018101516001600160a01b0381166000908152600390925260409091205490915060ff161561126857604080516370a0823160e01b815230600482015290516001600160a01b038a16916370a08231916024808301926020929190829003018186803b158015610ff457600080fd5b505afa158015611008573d6000803e3d6000fd5b505050506040513d602081101561101e57600080fd5b50516001600160a01b0382166000908152600360209081526040808320600101548151808301909252601282527164726970546f74616c206f766572666c6f7760701b9282019290925292975090916110799190869061131b565b90506000611087878361138f565b9050866110c55760405162461bcd60e51b815260040180806020018281038252604d815260200180611641604d913960600191505060405180910390fd5b896001600160a01b031663a9059cbb84836040518363ffffffff1660e01b815260040180836001600160a01b03166001600160a01b0316815260200182815260200192505050602060405180830381600087803b15801561112557600080fd5b505af1158015611139573d6000803e3d6000fd5b505050506040513d602081101561114f57600080fd5b505161118c5760405162461bcd60e51b81526004018080602001828103825260318152602001806114436031913960400191505060405180910390fd5b600060036000856001600160a01b03166001600160a01b031681526020019081526020016000206002015490506111e48183604051806040016040528060088152602001674f766572666c6f7760c01b8152506113a6565b6001600160a01b0385166000818152600360208181526040928390206002810186905591820187905560019091015482519384529083018a90528282015260608201859052608082019290925260a0810189905290517f9f349058588b272e36f7ad9fbd937a116f31b3739d787cbefc43e34f6ea9891e9181900360c00190a15050505b50600101610f67565b505b50504360025550505050565b6000818484111561130e5760405162461bcd60e51b81526004018080602001828103825283818151815260200191508051906020019080838360005b838110156112d35781810151838201526020016112bb565b50505050905090810190601f1680156113005780820380516001836020036101000a031916815260200191505b509250505060405180910390fd5b50508183035b9392505050565b60008361132a57506000611314565b8383028385828161133757fe5b041483906113865760405162461bcd60e51b81526020600482018181528351602484015283519092839260449091019190850190808383600083156112d35781810151838201526020016112bb565b50949350505050565b600081831161139f5750816105dd565b50806105dd565b600083830182858210156113865760405162461bcd60e51b81526020600482018181528351602484015283519092839260449091019190850190808383600083156112d35781810151838201526020016112bb565b81548183558181111561141f5760008381526020902061141f918101908301611424565b505050565b61038791905b8082111561143e576000815560010161142a565b509056fe50726f746f636f6c205472616e736665723a20546865207472616e7366657220646964206e6f7420636f6d706c6574652e4572726f72206f636375726564207768656e20616464696e6720746865206e65772070726f746f636f6c5468652050726f746f636f6c206973206e6f7420537570706f7274656420627920746865205369676820537065656420436f6e74726f6c6c6572546865206c656e677468206f6620746865206c69737420776173206e6f742070726f7065726c792064656372656d656e7465642e546869732050726f746f636f6c20697320616c726561647920737570706f7274656420627920746865205369676820537065656420436f6e74726f6c6c65725468652063616c6c6572206d7573742062652074686520534947482046696e616e61636520436f6e666967757261746f7220436f6e74726163745349474820537065656420666f7220746865206e65772070726f746f636f6c20776173206e6f7420696e697469616c697a65642070726f7065726c792e5468652050726f746f636f6c20697320616c7265616479206e6f7420537570706f7274656420627920746865205369676820537065656420436f6e74726f6c6c65724472697070696e6720686173206e6f74206265656e20696e697469616c697a65642062792074686520534947482046696e616e6365204d616e6167657250726f746f636f6c205472616e736665723a20546865207265736572766f69722063757272656e746c7920646f6573206e6f74206861766520616e79205349474820496e737472756d656e74734472697070696e672063616e206f6e6c7920626520696e697469616c697a6564206f6e6365a265627a7a72315820a080c6552b79ff41ed14bd2225c8925858b6e0430a62152511818c92ce6eade764736f6c634300051100322041646472657373657350726f7669646572206e6f7420696e697469616c697a65642050726f7065726c7920205349474820496e737472756d656e74206e6f7420696e697469616c697a65642050726f7065726c7920",
			"opcodes": "PUSH1 0x80 PUSH1 0x40 MSTORE PUSH1 0x1 DUP1 SLOAD PUSH1 0xFF PUSH1 0xA0 SHL NOT AND SWAP1 SSTORE CALLVALUE DUP1 ISZERO PUSH2 0x1D JUMPI PUSH1 0x0 DUP1 REVERT JUMPDEST POP PUSH1 0x40 MLOAD PUSH2 0x1851 CODESIZE SUB DUP1 PUSH2 0x1851 DUP4 CODECOPY DUP2 DUP2 ADD PUSH1 0x40 MSTORE PUSH1 0x40 DUP2 LT ISZERO PUSH2 0x40 JUMPI PUSH1 0x0 DUP1 REVERT JUMPDEST POP DUP1 MLOAD PUSH1 0x20 SWAP1 SWAP2 ADD MLOAD PUSH1 0x0 DUP1 SLOAD PUSH1 0x1 PUSH1 0x1 PUSH1 0xA0 SHL SUB NOT SWAP1 DUP2 AND PUSH1 0x1 PUSH1 0x1 PUSH1 0xA0 SHL SUB DUP1 DUP7 AND SWAP2 DUP3 OR SWAP4 DUP5 SWAP1 SSTORE PUSH1 0x1 DUP1 SLOAD SWAP1 SWAP4 AND DUP2 DUP7 AND OR SWAP1 SWAP3 SSTORE SWAP2 AND EQ PUSH2 0xB7 JUMPI PUSH1 0x40 MLOAD PUSH3 0x461BCD PUSH1 0xE5 SHL DUP2 MSTORE PUSH1 0x4 ADD DUP1 DUP1 PUSH1 0x20 ADD DUP3 DUP2 SUB DUP3 MSTORE PUSH1 0x2A DUP2 MSTORE PUSH1 0x20 ADD DUP1 PUSH2 0x1827 PUSH1 0x2A SWAP2 CODECOPY PUSH1 0x40 ADD SWAP2 POP POP PUSH1 0x40 MLOAD DUP1 SWAP2 SUB SWAP1 REVERT JUMPDEST PUSH1 0x1 SLOAD PUSH1 0x1 PUSH1 0x1 PUSH1 0xA0 SHL SUB DUP3 DUP2 AND SWAP2 AND EQ PUSH2 0x103 JUMPI PUSH1 0x40 MLOAD PUSH3 0x461BCD PUSH1 0xE5 SHL DUP2 MSTORE PUSH1 0x4 ADD DUP1 DUP1 PUSH1 0x20 ADD DUP3 DUP2 SUB DUP3 MSTORE PUSH1 0x2C DUP2 MSTORE PUSH1 0x20 ADD DUP1 PUSH2 0x17FB PUSH1 0x2C SWAP2 CODECOPY PUSH1 0x40 ADD SWAP2 POP POP PUSH1 0x40 MLOAD DUP1 SWAP2 SUB SWAP1 REVERT JUMPDEST POP POP PUSH2 0x16E7 DUP1 PUSH2 0x114 PUSH1 0x0 CODECOPY PUSH1 0x0 RETURN INVALID PUSH1 0x80 PUSH1 0x40 MSTORE CALLVALUE DUP1 ISZERO PUSH2 0x10 JUMPI PUSH1 0x0 DUP1 REVERT JUMPDEST POP PUSH1 0x4 CALLDATASIZE LT PUSH2 0x10B JUMPI PUSH1 0x0 CALLDATALOAD PUSH1 0xE0 SHR DUP1 PUSH4 0x633EEC44 GT PUSH2 0xA2 JUMPI DUP1 PUSH4 0xB02644D0 GT PUSH2 0x71 JUMPI DUP1 PUSH4 0xB02644D0 EQ PUSH2 0x2CE JUMPI DUP1 PUSH4 0xC6A6BFB1 EQ PUSH2 0x2D6 JUMPI DUP1 PUSH4 0xC9C90642 EQ PUSH2 0x2DE JUMPI DUP1 PUSH4 0xD2EE1EA6 EQ PUSH2 0x304 JUMPI DUP1 PUSH4 0xEBB3E086 EQ PUSH2 0x32A JUMPI PUSH2 0x10B JUMP JUMPDEST DUP1 PUSH4 0x633EEC44 EQ PUSH2 0x26A JUMPI DUP1 PUSH4 0x78B122DC EQ PUSH2 0x296 JUMPI DUP1 PUSH4 0x8438CC23 EQ PUSH2 0x29E JUMPI DUP1 PUSH4 0x9F678CCA EQ PUSH2 0x2C4 JUMPI PUSH2 0x10B JUMP JUMPDEST DUP1 PUSH4 0x4C2D2333 GT PUSH2 0xDE JUMPI DUP1 PUSH4 0x4C2D2333 EQ PUSH2 0x1C2 JUMPI DUP1 PUSH4 0x532913A5 EQ PUSH2 0x1DE JUMPI DUP1 PUSH4 0x5A2AC256 EQ PUSH2 0x236 JUMPI DUP1 PUSH4 0x5C8CFED8 EQ PUSH2 0x23E JUMPI PUSH2 0x10B JUMP JUMPDEST DUP1 PUSH4 0x259D8C1 EQ PUSH2 0x110 JUMPI DUP1 PUSH4 0x101CD9CA EQ PUSH2 0x15E JUMPI DUP1 PUSH4 0x2AEF904A EQ PUSH2 0x178 JUMPI DUP1 PUSH4 0x497A8ED4 EQ PUSH2 0x19E JUMPI JUMPDEST PUSH1 0x0 DUP1 REVERT JUMPDEST PUSH2 0x136 PUSH1 0x4 DUP1 CALLDATASIZE SUB PUSH1 0x20 DUP2 LT ISZERO PUSH2 0x126 JUMPI PUSH1 0x0 DUP1 REVERT JUMPDEST POP CALLDATALOAD PUSH1 0x1 PUSH1 0x1 PUSH1 0xA0 SHL SUB AND PUSH2 0x350 JUMP JUMPDEST PUSH1 0x40 DUP1 MLOAD SWAP5 ISZERO ISZERO DUP6 MSTORE PUSH1 0x20 DUP6 ADD SWAP4 SWAP1 SWAP4 MSTORE DUP4 DUP4 ADD SWAP2 SWAP1 SWAP2 MSTORE PUSH1 0x60 DUP4 ADD MSTORE MLOAD SWAP1 DUP2 SWAP1 SUB PUSH1 0x80 ADD SWAP1 RETURN JUMPDEST PUSH2 0x166 PUSH2 0x383 JUMP JUMPDEST PUSH1 0x40 DUP1 MLOAD SWAP2 DUP3 MSTORE MLOAD SWAP1 DUP2 SWAP1 SUB PUSH1 0x20 ADD SWAP1 RETURN JUMPDEST PUSH2 0x166 PUSH1 0x4 DUP1 CALLDATASIZE SUB PUSH1 0x20 DUP2 LT ISZERO PUSH2 0x18E JUMPI PUSH1 0x0 DUP1 REVERT JUMPDEST POP CALLDATALOAD PUSH1 0x1 PUSH1 0x1 PUSH1 0xA0 SHL SUB AND PUSH2 0x38A JUMP JUMPDEST PUSH2 0x1A6 PUSH2 0x3A9 JUMP JUMPDEST PUSH1 0x40 DUP1 MLOAD PUSH1 0x1 PUSH1 0x1 PUSH1 0xA0 SHL SUB SWAP1 SWAP3 AND DUP3 MSTORE MLOAD SWAP1 DUP2 SWAP1 SUB PUSH1 0x20 ADD SWAP1 RETURN JUMPDEST PUSH2 0x1CA PUSH2 0x3B8 JUMP JUMPDEST PUSH1 0x40 DUP1 MLOAD SWAP2 ISZERO ISZERO DUP3 MSTORE MLOAD SWAP1 DUP2 SWAP1 SUB PUSH1 0x20 ADD SWAP1 RETURN JUMPDEST PUSH2 0x1E6 PUSH2 0x3C8 JUMP JUMPDEST PUSH1 0x40 DUP1 MLOAD PUSH1 0x20 DUP1 DUP3 MSTORE DUP4 MLOAD DUP2 DUP4 ADD MSTORE DUP4 MLOAD SWAP2 SWAP3 DUP4 SWAP3 SWAP1 DUP4 ADD SWAP2 DUP6 DUP2 ADD SWAP2 MUL DUP1 DUP4 DUP4 PUSH1 0x0 JUMPDEST DUP4 DUP2 LT ISZERO PUSH2 0x222 JUMPI DUP2 DUP2 ADD MLOAD DUP4 DUP3 ADD MSTORE PUSH1 0x20 ADD PUSH2 0x20A JUMP JUMPDEST POP POP POP POP SWAP1 POP ADD SWAP3 POP POP POP PUSH1 0x40 MLOAD DUP1 SWAP2 SUB SWAP1 RETURN JUMPDEST PUSH2 0x166 PUSH2 0x42A JUMP JUMPDEST PUSH2 0x1CA PUSH1 0x4 DUP1 CALLDATASIZE SUB PUSH1 0x40 DUP2 LT ISZERO PUSH2 0x254 JUMPI PUSH1 0x0 DUP1 REVERT JUMPDEST POP PUSH1 0x1 PUSH1 0x1 PUSH1 0xA0 SHL SUB DUP2 CALLDATALOAD AND SWAP1 PUSH1 0x20 ADD CALLDATALOAD PUSH2 0x430 JUMP JUMPDEST PUSH2 0x1CA PUSH1 0x4 DUP1 CALLDATASIZE SUB PUSH1 0x40 DUP2 LT ISZERO PUSH2 0x280 JUMPI PUSH1 0x0 DUP1 REVERT JUMPDEST POP PUSH1 0x1 PUSH1 0x1 PUSH1 0xA0 SHL SUB DUP2 CALLDATALOAD AND SWAP1 PUSH1 0x20 ADD CALLDATALOAD PUSH2 0x5E3 JUMP JUMPDEST PUSH2 0x1CA PUSH2 0x930 JUMP JUMPDEST PUSH2 0x1CA PUSH1 0x4 DUP1 CALLDATASIZE SUB PUSH1 0x20 DUP2 LT ISZERO PUSH2 0x2B4 JUMPI PUSH1 0x0 DUP1 REVERT JUMPDEST POP CALLDATALOAD PUSH1 0x1 PUSH1 0x1 PUSH1 0xA0 SHL SUB AND PUSH2 0xA95 JUMP JUMPDEST PUSH2 0x2CC PUSH2 0xD52 JUMP JUMPDEST STOP JUMPDEST PUSH2 0x1A6 PUSH2 0xDA4 JUMP JUMPDEST PUSH2 0x166 PUSH2 0xDB3 JUMP JUMPDEST PUSH2 0x166 PUSH1 0x4 DUP1 CALLDATASIZE SUB PUSH1 0x20 DUP2 LT ISZERO PUSH2 0x2F4 JUMPI PUSH1 0x0 DUP1 REVERT JUMPDEST POP CALLDATALOAD PUSH1 0x1 PUSH1 0x1 PUSH1 0xA0 SHL SUB AND PUSH2 0xE36 JUMP JUMPDEST PUSH2 0x166 PUSH1 0x4 DUP1 CALLDATASIZE SUB PUSH1 0x20 DUP2 LT ISZERO PUSH2 0x31A JUMPI PUSH1 0x0 DUP1 REVERT JUMPDEST POP CALLDATALOAD PUSH1 0x1 PUSH1 0x1 PUSH1 0xA0 SHL SUB AND PUSH2 0xE54 JUMP JUMPDEST PUSH2 0x1CA PUSH1 0x4 DUP1 CALLDATASIZE SUB PUSH1 0x20 DUP2 LT ISZERO PUSH2 0x340 JUMPI PUSH1 0x0 DUP1 REVERT JUMPDEST POP CALLDATALOAD PUSH1 0x1 PUSH1 0x1 PUSH1 0xA0 SHL SUB AND PUSH2 0xE72 JUMP JUMPDEST PUSH1 0x1 PUSH1 0x1 PUSH1 0xA0 SHL SUB AND PUSH1 0x0 SWAP1 DUP2 MSTORE PUSH1 0x3 PUSH1 0x20 DUP2 SWAP1 MSTORE PUSH1 0x40 SWAP1 SWAP2 KECCAK256 DUP1 SLOAD PUSH1 0x1 DUP3 ADD SLOAD PUSH1 0x2 DUP4 ADD SLOAD SWAP3 SWAP1 SWAP4 ADD SLOAD PUSH1 0xFF SWAP1 SWAP2 AND SWAP4 JUMP JUMPDEST PUSH1 0x4 SLOAD JUMPDEST SWAP1 JUMP JUMPDEST PUSH1 0x1 PUSH1 0x1 PUSH1 0xA0 SHL SUB AND PUSH1 0x0 SWAP1 DUP2 MSTORE PUSH1 0x3 PUSH1 0x20 DUP2 SWAP1 MSTORE PUSH1 0x40 SWAP1 SWAP2 KECCAK256 ADD SLOAD SWAP1 JUMP JUMPDEST PUSH1 0x1 SLOAD PUSH1 0x1 PUSH1 0x1 PUSH1 0xA0 SHL SUB AND SWAP1 JUMP JUMPDEST PUSH1 0x1 SLOAD PUSH1 0x1 PUSH1 0xA0 SHL SWAP1 DIV PUSH1 0xFF AND SWAP1 JUMP JUMPDEST PUSH1 0x60 PUSH1 0x4 DUP1 SLOAD DUP1 PUSH1 0x20 MUL PUSH1 0x20 ADD PUSH1 0x40 MLOAD SWAP1 DUP2 ADD PUSH1 0x40 MSTORE DUP1 SWAP3 SWAP2 SWAP1 DUP2 DUP2 MSTORE PUSH1 0x20 ADD DUP3 DUP1 SLOAD DUP1 ISZERO PUSH2 0x420 JUMPI PUSH1 0x20 MUL DUP3 ADD SWAP2 SWAP1 PUSH1 0x0 MSTORE PUSH1 0x20 PUSH1 0x0 KECCAK256 SWAP1 JUMPDEST DUP2 SLOAD PUSH1 0x1 PUSH1 0x1 PUSH1 0xA0 SHL SUB AND DUP2 MSTORE PUSH1 0x1 SWAP1 SWAP2 ADD SWAP1 PUSH1 0x20 ADD DUP1 DUP4 GT PUSH2 0x402 JUMPI JUMPDEST POP POP POP POP POP SWAP1 POP SWAP1 JUMP JUMPDEST PUSH1 0x2 SLOAD SWAP1 JUMP JUMPDEST PUSH1 0x0 CALLER PUSH1 0x1 PUSH1 0x1 PUSH1 0xA0 SHL SUB AND PUSH1 0x1 PUSH1 0x0 SWAP1 SLOAD SWAP1 PUSH2 0x100 EXP SWAP1 DIV PUSH1 0x1 PUSH1 0x1 PUSH1 0xA0 SHL SUB AND PUSH1 0x1 PUSH1 0x1 PUSH1 0xA0 SHL SUB AND PUSH4 0xDB49224B PUSH1 0x40 MLOAD DUP2 PUSH4 0xFFFFFFFF AND PUSH1 0xE0 SHL DUP2 MSTORE PUSH1 0x4 ADD PUSH1 0x20 PUSH1 0x40 MLOAD DUP1 DUP4 SUB DUP2 DUP7 DUP1 EXTCODESIZE ISZERO DUP1 ISZERO PUSH2 0x48A JUMPI PUSH1 0x0 DUP1 REVERT JUMPDEST POP GAS STATICCALL ISZERO DUP1 ISZERO PUSH2 0x49E JUMPI RETURNDATASIZE PUSH1 0x0 DUP1 RETURNDATACOPY RETURNDATASIZE PUSH1 0x0 REVERT JUMPDEST POP POP POP POP PUSH1 0x40 MLOAD RETURNDATASIZE PUSH1 0x20 DUP2 LT ISZERO PUSH2 0x4B4 JUMPI PUSH1 0x0 DUP1 REVERT JUMPDEST POP MLOAD PUSH1 0x1 PUSH1 0x1 PUSH1 0xA0 SHL SUB AND EQ PUSH2 0x4FB JUMPI PUSH1 0x40 MLOAD PUSH3 0x461BCD PUSH1 0xE5 SHL DUP2 MSTORE PUSH1 0x4 ADD DUP1 DUP1 PUSH1 0x20 ADD DUP3 DUP2 SUB DUP3 MSTORE PUSH1 0x3A DUP2 MSTORE PUSH1 0x20 ADD DUP1 PUSH2 0x154B PUSH1 0x3A SWAP2 CODECOPY PUSH1 0x40 ADD SWAP2 POP POP PUSH1 0x40 MLOAD DUP1 SWAP2 SUB SWAP1 REVERT JUMPDEST PUSH1 0x1 PUSH1 0x1 PUSH1 0xA0 SHL SUB DUP4 AND PUSH1 0x0 SWAP1 DUP2 MSTORE PUSH1 0x3 PUSH1 0x20 MSTORE PUSH1 0x40 SWAP1 KECCAK256 SLOAD PUSH1 0xFF AND PUSH2 0x552 JUMPI PUSH1 0x40 MLOAD PUSH3 0x461BCD PUSH1 0xE5 SHL DUP2 MSTORE PUSH1 0x4 ADD DUP1 DUP1 PUSH1 0x20 ADD DUP3 DUP2 SUB DUP3 MSTORE PUSH1 0x3A DUP2 MSTORE PUSH1 0x20 ADD DUP1 PUSH2 0x149E PUSH1 0x3A SWAP2 CODECOPY PUSH1 0x40 ADD SWAP2 POP POP PUSH1 0x40 MLOAD DUP1 SWAP2 SUB SWAP1 REVERT JUMPDEST PUSH1 0x1 SLOAD PUSH1 0x1 PUSH1 0xA0 SHL SWAP1 DIV PUSH1 0xFF AND ISZERO PUSH2 0x56C JUMPI PUSH2 0x56C PUSH2 0xE90 JUMP JUMPDEST PUSH1 0x1 PUSH1 0x1 PUSH1 0xA0 SHL SUB DUP4 AND PUSH1 0x0 DUP2 DUP2 MSTORE PUSH1 0x3 PUSH1 0x20 SWAP1 DUP2 MSTORE PUSH1 0x40 SWAP2 DUP3 SWAP1 KECCAK256 PUSH1 0x1 ADD DUP1 SLOAD SWAP1 DUP7 SWAP1 SSTORE DUP3 MLOAD SWAP4 DUP5 MSTORE SWAP1 DUP4 ADD DUP2 SWAP1 MSTORE DUP3 DUP3 ADD DUP6 SWAP1 MSTORE NUMBER PUSH1 0x60 DUP5 ADD MSTORE SWAP1 MLOAD SWAP1 SWAP2 PUSH32 0xD91508C5E5E51CEC5F1772D2FC7DFD76BD6F0F9DE3696AFFFE91490121D73B90 SWAP2 SWAP1 DUP2 SWAP1 SUB PUSH1 0x80 ADD SWAP1 LOG1 PUSH1 0x1 SWAP2 POP POP JUMPDEST SWAP3 SWAP2 POP POP JUMP JUMPDEST PUSH1 0x0 CALLER PUSH1 0x1 PUSH1 0x1 PUSH1 0xA0 SHL SUB AND PUSH1 0x1 PUSH1 0x0 SWAP1 SLOAD SWAP1 PUSH2 0x100 EXP SWAP1 DIV PUSH1 0x1 PUSH1 0x1 PUSH1 0xA0 SHL SUB AND PUSH1 0x1 PUSH1 0x1 PUSH1 0xA0 SHL SUB AND PUSH4 0xDB49224B PUSH1 0x40 MLOAD DUP2 PUSH4 0xFFFFFFFF AND PUSH1 0xE0 SHL DUP2 MSTORE PUSH1 0x4 ADD PUSH1 0x20 PUSH1 0x40 MLOAD DUP1 DUP4 SUB DUP2 DUP7 DUP1 EXTCODESIZE ISZERO DUP1 ISZERO PUSH2 0x63D JUMPI PUSH1 0x0 DUP1 REVERT JUMPDEST POP GAS STATICCALL ISZERO DUP1 ISZERO PUSH2 0x651 JUMPI RETURNDATASIZE PUSH1 0x0 DUP1 RETURNDATACOPY RETURNDATASIZE PUSH1 0x0 REVERT JUMPDEST POP POP POP POP PUSH1 0x40 MLOAD RETURNDATASIZE PUSH1 0x20 DUP2 LT ISZERO PUSH2 0x667 JUMPI PUSH1 0x0 DUP1 REVERT JUMPDEST POP MLOAD PUSH1 0x1 PUSH1 0x1 PUSH1 0xA0 SHL SUB AND EQ PUSH2 0x6AE JUMPI PUSH1 0x40 MLOAD PUSH3 0x461BCD PUSH1 0xE5 SHL DUP2 MSTORE PUSH1 0x4 ADD DUP1 DUP1 PUSH1 0x20 ADD DUP3 DUP2 SUB DUP3 MSTORE PUSH1 0x3A DUP2 MSTORE PUSH1 0x20 ADD DUP1 PUSH2 0x154B PUSH1 0x3A SWAP2 CODECOPY PUSH1 0x40 ADD SWAP2 POP POP PUSH1 0x40 MLOAD DUP1 SWAP2 SUB SWAP1 REVERT JUMPDEST PUSH1 0x1 PUSH1 0x1 PUSH1 0xA0 SHL SUB DUP4 AND PUSH1 0x0 SWAP1 DUP2 MSTORE PUSH1 0x3 PUSH1 0x20 MSTORE PUSH1 0x40 SWAP1 KECCAK256 SLOAD PUSH1 0xFF AND ISZERO PUSH2 0x706 JUMPI PUSH1 0x40 MLOAD PUSH3 0x461BCD PUSH1 0xE5 SHL DUP2 MSTORE PUSH1 0x4 ADD DUP1 DUP1 PUSH1 0x20 ADD DUP3 DUP2 SUB DUP3 MSTORE PUSH1 0x3F DUP2 MSTORE PUSH1 0x20 ADD DUP1 PUSH2 0x150C PUSH1 0x3F SWAP2 CODECOPY PUSH1 0x40 ADD SWAP2 POP POP PUSH1 0x40 MLOAD DUP1 SWAP2 SUB SWAP1 REVERT JUMPDEST PUSH1 0x1 SLOAD PUSH1 0x1 PUSH1 0xA0 SHL SWAP1 DIV PUSH1 0xFF AND ISZERO PUSH2 0x720 JUMPI PUSH2 0x720 PUSH2 0xE90 JUMP JUMPDEST PUSH1 0x4 DUP1 SLOAD PUSH1 0x1 DUP2 ADD SWAP1 SWAP2 SSTORE PUSH32 0x8A35ACFBC15FF81A39AE7D344FD709F28E8600B4AA8C65C6B64BFE7FE36BD19B ADD DUP1 SLOAD PUSH1 0x1 PUSH1 0x1 PUSH1 0xA0 SHL SUB NOT AND PUSH1 0x1 PUSH1 0x1 PUSH1 0xA0 SHL SUB DUP6 AND SWAP1 DUP2 OR SWAP1 SWAP2 SSTORE PUSH1 0x0 SWAP1 DUP2 MSTORE PUSH1 0x3 PUSH1 0x20 MSTORE PUSH1 0x40 SWAP1 KECCAK256 PUSH1 0x2 ADD SLOAD ISZERO PUSH2 0x7AE JUMPI PUSH1 0x1 PUSH1 0x1 PUSH1 0xA0 SHL SUB DUP4 AND PUSH1 0x0 SWAP1 DUP2 MSTORE PUSH1 0x3 PUSH1 0x20 MSTORE PUSH1 0x40 SWAP1 KECCAK256 DUP1 SLOAD PUSH1 0xFF NOT AND PUSH1 0x1 SWAP1 DUP2 OR DUP3 SSTORE ADD DUP3 SWAP1 SSTORE PUSH2 0x80E JUMP JUMPDEST PUSH1 0x40 DUP1 MLOAD PUSH1 0x80 DUP2 ADD DUP3 MSTORE PUSH1 0x1 DUP1 DUP3 MSTORE PUSH1 0x20 DUP1 DUP4 ADD DUP7 DUP2 MSTORE PUSH1 0x0 DUP5 DUP7 ADD DUP2 DUP2 MSTORE PUSH1 0x60 DUP7 ADD DUP3 DUP2 MSTORE PUSH1 0x1 PUSH1 0x1 PUSH1 0xA0 SHL SUB DUP12 AND DUP4 MSTORE PUSH1 0x3 SWAP5 DUP6 SWAP1 MSTORE SWAP7 SWAP1 SWAP2 KECCAK256 SWAP5 MLOAD DUP6 SLOAD PUSH1 0xFF NOT AND SWAP1 ISZERO ISZERO OR DUP6 SSTORE SWAP1 MLOAD SWAP3 DUP5 ADD SWAP3 SWAP1 SWAP3 SSTORE SWAP1 MLOAD PUSH1 0x2 DUP4 ADD SSTORE SWAP2 MLOAD SWAP2 ADD SSTORE JUMPDEST NUMBER PUSH1 0x2 SSTORE PUSH1 0x1 PUSH1 0x1 PUSH1 0xA0 SHL SUB DUP4 AND PUSH1 0x0 SWAP1 DUP2 MSTORE PUSH1 0x3 PUSH1 0x20 MSTORE PUSH1 0x40 SWAP1 KECCAK256 SLOAD PUSH1 0xFF AND PUSH2 0x869 JUMPI PUSH1 0x40 MLOAD PUSH3 0x461BCD PUSH1 0xE5 SHL DUP2 MSTORE PUSH1 0x4 ADD DUP1 DUP1 PUSH1 0x20 ADD DUP3 DUP2 SUB DUP3 MSTORE PUSH1 0x2A DUP2 MSTORE PUSH1 0x20 ADD DUP1 PUSH2 0x1474 PUSH1 0x2A SWAP2 CODECOPY PUSH1 0x40 ADD SWAP2 POP POP PUSH1 0x40 MLOAD DUP1 SWAP2 SUB SWAP1 REVERT JUMPDEST PUSH1 0x1 PUSH1 0x1 PUSH1 0xA0 SHL SUB DUP4 AND PUSH1 0x0 SWAP1 DUP2 MSTORE PUSH1 0x3 PUSH1 0x20 MSTORE PUSH1 0x40 SWAP1 KECCAK256 PUSH1 0x1 ADD SLOAD DUP3 EQ PUSH2 0x8C2 JUMPI PUSH1 0x40 MLOAD PUSH3 0x461BCD PUSH1 0xE5 SHL DUP2 MSTORE PUSH1 0x4 ADD DUP1 DUP1 PUSH1 0x20 ADD DUP3 DUP2 SUB DUP3 MSTORE PUSH1 0x3D DUP2 MSTORE PUSH1 0x20 ADD DUP1 PUSH2 0x1585 PUSH1 0x3D SWAP2 CODECOPY PUSH1 0x40 ADD SWAP2 POP POP PUSH1 0x40 MLOAD DUP1 SWAP2 SUB SWAP1 REVERT JUMPDEST PUSH1 0x1 PUSH1 0x1 PUSH1 0xA0 SHL SUB DUP4 AND PUSH1 0x0 DUP2 DUP2 MSTORE PUSH1 0x3 PUSH1 0x20 SWAP1 DUP2 MSTORE PUSH1 0x40 SWAP2 DUP3 SWAP1 KECCAK256 PUSH1 0x1 DUP2 ADD SLOAD PUSH1 0x2 SWAP1 SWAP2 ADD SLOAD DUP4 MLOAD SWAP5 DUP6 MSTORE SWAP2 DUP5 ADD MSTORE DUP3 DUP3 ADD MSTORE NUMBER PUSH1 0x60 DUP4 ADD MSTORE MLOAD PUSH32 0x37C08FF6DA738F1C72AE4223548BF0FC53B4F97C5314A3C0CF0C940AF9598AD7 SWAP2 DUP2 SWAP1 SUB PUSH1 0x80 ADD SWAP1 LOG1 POP PUSH1 0x1 SWAP3 SWAP2 POP POP JUMP JUMPDEST PUSH1 0x0 CALLER PUSH1 0x1 PUSH1 0x1 PUSH1 0xA0 SHL SUB AND PUSH1 0x1 PUSH1 0x0 SWAP1 SLOAD SWAP1 PUSH2 0x100 EXP SWAP1 DIV PUSH1 0x1 PUSH1 0x1 PUSH1 0xA0 SHL SUB AND PUSH1 0x1 PUSH1 0x1 PUSH1 0xA0 SHL SUB AND PUSH4 0xDB49224B PUSH1 0x40 MLOAD DUP2 PUSH4 0xFFFFFFFF AND PUSH1 0xE0 SHL DUP2 MSTORE PUSH1 0x4 ADD PUSH1 0x20 PUSH1 0x40 MLOAD DUP1 DUP4 SUB DUP2 DUP7 DUP1 EXTCODESIZE ISZERO DUP1 ISZERO PUSH2 0x98A JUMPI PUSH1 0x0 DUP1 REVERT JUMPDEST POP GAS STATICCALL ISZERO DUP1 ISZERO PUSH2 0x99E JUMPI RETURNDATASIZE PUSH1 0x0 DUP1 RETURNDATACOPY RETURNDATASIZE PUSH1 0x0 REVERT JUMPDEST POP POP POP POP PUSH1 0x40 MLOAD RETURNDATASIZE PUSH1 0x20 DUP2 LT ISZERO PUSH2 0x9B4 JUMPI PUSH1 0x0 DUP1 REVERT JUMPDEST POP MLOAD PUSH1 0x1 PUSH1 0x1 PUSH1 0xA0 SHL SUB AND EQ PUSH2 0x9FB JUMPI PUSH1 0x40 MLOAD PUSH3 0x461BCD PUSH1 0xE5 SHL DUP2 MSTORE PUSH1 0x4 ADD DUP1 DUP1 PUSH1 0x20 ADD DUP3 DUP2 SUB DUP3 MSTORE PUSH1 0x3A DUP2 MSTORE PUSH1 0x20 ADD DUP1 PUSH2 0x154B PUSH1 0x3A SWAP2 CODECOPY PUSH1 0x40 ADD SWAP2 POP POP PUSH1 0x40 MLOAD DUP1 SWAP2 SUB SWAP1 REVERT JUMPDEST PUSH1 0x1 SLOAD PUSH1 0x1 PUSH1 0xA0 SHL SWAP1 DIV PUSH1 0xFF AND ISZERO PUSH2 0xA44 JUMPI PUSH1 0x40 MLOAD PUSH3 0x461BCD PUSH1 0xE5 SHL DUP2 MSTORE PUSH1 0x4 ADD DUP1 DUP1 PUSH1 0x20 ADD DUP3 DUP2 SUB DUP3 MSTORE PUSH1 0x25 DUP2 MSTORE PUSH1 0x20 ADD DUP1 PUSH2 0x168E PUSH1 0x25 SWAP2 CODECOPY PUSH1 0x40 ADD SWAP2 POP POP PUSH1 0x40 MLOAD DUP1 SWAP2 SUB SWAP1 REVERT JUMPDEST PUSH1 0x1 DUP1 SLOAD PUSH1 0xFF PUSH1 0xA0 SHL NOT AND PUSH1 0x1 PUSH1 0xA0 SHL OR SWAP1 SSTORE NUMBER PUSH1 0x2 DUP2 SWAP1 SSTORE PUSH1 0x40 DUP1 MLOAD SWAP2 DUP3 MSTORE MLOAD PUSH32 0xF030F7AFE867C9186D292811B9B968F3D2C4928E6AA2F12D6CC3EADF3205A1E1 SWAP2 DUP2 SWAP1 SUB PUSH1 0x20 ADD SWAP1 LOG1 POP PUSH1 0x1 SWAP1 JUMP JUMPDEST PUSH1 0x0 CALLER PUSH1 0x1 PUSH1 0x1 PUSH1 0xA0 SHL SUB AND PUSH1 0x1 PUSH1 0x0 SWAP1 SLOAD SWAP1 PUSH2 0x100 EXP SWAP1 DIV PUSH1 0x1 PUSH1 0x1 PUSH1 0xA0 SHL SUB AND PUSH1 0x1 PUSH1 0x1 PUSH1 0xA0 SHL SUB AND PUSH4 0xDB49224B PUSH1 0x40 MLOAD DUP2 PUSH4 0xFFFFFFFF AND PUSH1 0xE0 SHL DUP2 MSTORE PUSH1 0x4 ADD PUSH1 0x20 PUSH1 0x40 MLOAD DUP1 DUP4 SUB DUP2 DUP7 DUP1 EXTCODESIZE ISZERO DUP1 ISZERO PUSH2 0xAEF JUMPI PUSH1 0x0 DUP1 REVERT JUMPDEST POP GAS STATICCALL ISZERO DUP1 ISZERO PUSH2 0xB03 JUMPI RETURNDATASIZE PUSH1 0x0 DUP1 RETURNDATACOPY RETURNDATASIZE PUSH1 0x0 REVERT JUMPDEST POP POP POP POP PUSH1 0x40 MLOAD RETURNDATASIZE PUSH1 0x20 DUP2 LT ISZERO PUSH2 0xB19 JUMPI PUSH1 0x0 DUP1 REVERT JUMPDEST POP MLOAD PUSH1 0x1 PUSH1 0x1 PUSH1 0xA0 SHL SUB AND EQ PUSH2 0xB60 JUMPI PUSH1 0x40 MLOAD PUSH3 0x461BCD PUSH1 0xE5 SHL DUP2 MSTORE PUSH1 0x4 ADD DUP1 DUP1 PUSH1 0x20 ADD DUP3 DUP2 SUB DUP3 MSTORE PUSH1 0x3A DUP2 MSTORE PUSH1 0x20 ADD DUP1 PUSH2 0x154B PUSH1 0x3A SWAP2 CODECOPY PUSH1 0x40 ADD SWAP2 POP POP PUSH1 0x40 MLOAD DUP1 SWAP2 SUB SWAP1 REVERT JUMPDEST PUSH1 0x1 PUSH1 0x1 PUSH1 0xA0 SHL SUB DUP3 AND PUSH1 0x0 SWAP1 DUP2 MSTORE PUSH1 0x3 PUSH1 0x20 MSTORE PUSH1 0x40 SWAP1 KECCAK256 SLOAD PUSH1 0xFF AND PUSH2 0xBB7 JUMPI PUSH1 0x40 MLOAD PUSH3 0x461BCD PUSH1 0xE5 SHL DUP2 MSTORE PUSH1 0x4 ADD DUP1 DUP1 PUSH1 0x20 ADD DUP3 DUP2 SUB DUP3 MSTORE PUSH1 0x42 DUP2 MSTORE PUSH1 0x20 ADD DUP1 PUSH2 0x15C2 PUSH1 0x42 SWAP2 CODECOPY PUSH1 0x60 ADD SWAP2 POP POP PUSH1 0x40 MLOAD DUP1 SWAP2 SUB SWAP1 REVERT JUMPDEST PUSH1 0x1 SLOAD PUSH1 0x1 PUSH1 0xA0 SHL SWAP1 DIV PUSH1 0xFF AND ISZERO PUSH2 0xBD1 JUMPI PUSH2 0xBD1 PUSH2 0xE90 JUMP JUMPDEST PUSH1 0x4 SLOAD PUSH1 0x0 SWAP1 DUP2 JUMPDEST DUP2 DUP2 LT ISZERO PUSH2 0xC23 JUMPI DUP5 PUSH1 0x1 PUSH1 0x1 PUSH1 0xA0 SHL SUB AND PUSH1 0x4 DUP3 DUP2 SLOAD DUP2 LT PUSH2 0xBF8 JUMPI INVALID JUMPDEST PUSH1 0x0 SWAP2 DUP3 MSTORE PUSH1 0x20 SWAP1 SWAP2 KECCAK256 ADD SLOAD PUSH1 0x1 PUSH1 0x1 PUSH1 0xA0 SHL SUB AND EQ ISZERO PUSH2 0xC1B JUMPI DUP1 SWAP3 POP PUSH2 0xC23 JUMP JUMPDEST PUSH1 0x1 ADD PUSH2 0xBD9 JUMP JUMPDEST POP PUSH1 0x4 PUSH1 0x1 DUP3 SUB DUP2 SLOAD DUP2 LT PUSH2 0xC34 JUMPI INVALID JUMPDEST PUSH1 0x0 SWAP2 DUP3 MSTORE PUSH1 0x20 SWAP1 SWAP2 KECCAK256 ADD SLOAD PUSH1 0x4 DUP1 SLOAD PUSH1 0x1 PUSH1 0x1 PUSH1 0xA0 SHL SUB SWAP1 SWAP3 AND SWAP2 DUP5 SWAP1 DUP2 LT PUSH2 0xC5A JUMPI INVALID JUMPDEST PUSH1 0x0 SWAP2 DUP3 MSTORE PUSH1 0x20 SWAP1 SWAP2 KECCAK256 ADD DUP1 SLOAD PUSH1 0x1 PUSH1 0x1 PUSH1 0xA0 SHL SUB NOT AND PUSH1 0x1 PUSH1 0x1 PUSH1 0xA0 SHL SUB SWAP3 SWAP1 SWAP3 AND SWAP2 SWAP1 SWAP2 OR SWAP1 SSTORE PUSH1 0x4 DUP1 SLOAD SWAP1 PUSH2 0xC96 SWAP1 PUSH1 0x0 NOT DUP4 ADD PUSH2 0x13FB JUMP JUMPDEST POP PUSH1 0x4 SLOAD PUSH1 0x0 NOT DUP3 ADD SWAP1 DUP2 EQ PUSH2 0xCDD JUMPI PUSH1 0x40 MLOAD PUSH3 0x461BCD PUSH1 0xE5 SHL DUP2 MSTORE PUSH1 0x4 ADD DUP1 DUP1 PUSH1 0x20 ADD DUP3 DUP2 SUB DUP3 MSTORE PUSH1 0x34 DUP2 MSTORE PUSH1 0x20 ADD DUP1 PUSH2 0x14D8 PUSH1 0x34 SWAP2 CODECOPY PUSH1 0x40 ADD SWAP2 POP POP PUSH1 0x40 MLOAD DUP1 SWAP2 SUB SWAP1 REVERT JUMPDEST PUSH1 0x1 PUSH1 0x1 PUSH1 0xA0 SHL SUB DUP6 AND PUSH1 0x0 DUP2 DUP2 MSTORE PUSH1 0x3 PUSH1 0x20 SWAP1 DUP2 MSTORE PUSH1 0x40 DUP1 DUP4 KECCAK256 DUP1 SLOAD PUSH1 0xFF NOT AND DUP2 SSTORE PUSH1 0x1 DUP2 ADD SWAP4 SWAP1 SWAP4 SSTORE PUSH1 0x2 SWAP1 SWAP3 ADD SLOAD DUP3 MLOAD SWAP4 DUP5 MSTORE SWAP1 DUP4 ADD MSTORE NUMBER DUP3 DUP3 ADD MSTORE MLOAD PUSH32 0xE521B99E16FDFFE28054ED6110B75589A9116A2BF0C462FD55F4D3B792380C3B SWAP2 DUP2 SWAP1 SUB PUSH1 0x60 ADD SWAP1 LOG1 POP PUSH1 0x1 SWAP5 SWAP4 POP POP POP POP JUMP JUMPDEST PUSH1 0x1 SLOAD PUSH1 0x1 PUSH1 0xA0 SHL SWAP1 DIV PUSH1 0xFF AND PUSH2 0xD9A JUMPI PUSH1 0x40 MLOAD PUSH3 0x461BCD PUSH1 0xE5 SHL DUP2 MSTORE PUSH1 0x4 ADD DUP1 DUP1 PUSH1 0x20 ADD DUP3 DUP2 SUB DUP3 MSTORE PUSH1 0x3D DUP2 MSTORE PUSH1 0x20 ADD DUP1 PUSH2 0x1604 PUSH1 0x3D SWAP2 CODECOPY PUSH1 0x40 ADD SWAP2 POP POP PUSH1 0x40 MLOAD DUP1 SWAP2 SUB SWAP1 REVERT JUMPDEST PUSH2 0xDA2 PUSH2 0xE90 JUMP JUMPDEST JUMP JUMPDEST PUSH1 0x0 SLOAD PUSH1 0x1 PUSH1 0x1 PUSH1 0xA0 SHL SUB AND SWAP1 JUMP JUMPDEST PUSH1 0x0 DUP1 SLOAD PUSH1 0x40 DUP1 MLOAD PUSH4 0x70A08231 PUSH1 0xE0 SHL DUP2 MSTORE ADDRESS PUSH1 0x4 DUP3 ADD MSTORE SWAP1 MLOAD PUSH1 0x1 PUSH1 0x1 PUSH1 0xA0 SHL SUB SWAP1 SWAP3 AND SWAP2 DUP4 SWAP2 DUP4 SWAP2 PUSH4 0x70A08231 SWAP2 PUSH1 0x24 DUP1 DUP3 ADD SWAP3 PUSH1 0x20 SWAP3 SWAP1 SWAP2 SWAP1 DUP3 SWAP1 SUB ADD DUP2 DUP7 DUP1 EXTCODESIZE ISZERO DUP1 ISZERO PUSH2 0xE03 JUMPI PUSH1 0x0 DUP1 REVERT JUMPDEST POP GAS STATICCALL ISZERO DUP1 ISZERO PUSH2 0xE17 JUMPI RETURNDATASIZE PUSH1 0x0 DUP1 RETURNDATACOPY RETURNDATASIZE PUSH1 0x0 REVERT JUMPDEST POP POP POP POP PUSH1 0x40 MLOAD RETURNDATASIZE PUSH1 0x20 DUP2 LT ISZERO PUSH2 0xE2D JUMPI PUSH1 0x0 DUP1 REVERT JUMPDEST POP MLOAD SWAP3 POP POP POP SWAP1 JUMP JUMPDEST PUSH1 0x1 PUSH1 0x1 PUSH1 0xA0 SHL SUB AND PUSH1 0x0 SWAP1 DUP2 MSTORE PUSH1 0x3 PUSH1 0x20 MSTORE PUSH1 0x40 SWAP1 KECCAK256 PUSH1 0x2 ADD SLOAD SWAP1 JUMP JUMPDEST PUSH1 0x1 PUSH1 0x1 PUSH1 0xA0 SHL SUB AND PUSH1 0x0 SWAP1 DUP2 MSTORE PUSH1 0x3 PUSH1 0x20 MSTORE PUSH1 0x40 SWAP1 KECCAK256 PUSH1 0x1 ADD SLOAD SWAP1 JUMP JUMPDEST PUSH1 0x1 PUSH1 0x1 PUSH1 0xA0 SHL SUB AND PUSH1 0x0 SWAP1 DUP2 MSTORE PUSH1 0x3 PUSH1 0x20 MSTORE PUSH1 0x40 SWAP1 KECCAK256 SLOAD PUSH1 0xFF AND SWAP1 JUMP JUMPDEST NUMBER PUSH1 0x2 SLOAD EQ ISZERO PUSH2 0xE9F JUMPI PUSH2 0xDA2 JUMP JUMPDEST PUSH1 0x0 SLOAD PUSH1 0x4 DUP1 SLOAD PUSH1 0x40 DUP1 MLOAD PUSH1 0x20 DUP1 DUP5 MUL DUP3 ADD DUP2 ADD SWAP1 SWAP3 MSTORE DUP3 DUP2 MSTORE PUSH1 0x1 PUSH1 0x1 PUSH1 0xA0 SHL SUB SWAP1 SWAP5 AND SWAP4 PUSH1 0x60 SWAP4 SWAP1 SWAP3 SWAP1 SWAP2 DUP4 ADD DUP3 DUP3 DUP1 ISZERO PUSH2 0xF05 JUMPI PUSH1 0x20 MUL DUP3 ADD SWAP2 SWAP1 PUSH1 0x0 MSTORE PUSH1 0x20 PUSH1 0x0 KECCAK256 SWAP1 JUMPDEST DUP2 SLOAD PUSH1 0x1 PUSH1 0x1 PUSH1 0xA0 SHL SUB AND DUP2 MSTORE PUSH1 0x1 SWAP1 SWAP2 ADD SWAP1 PUSH1 0x20 ADD DUP1 DUP4 GT PUSH2 0xEE7 JUMPI JUMPDEST POP POP POP POP POP SWAP1 POP PUSH1 0x0 DUP2 MLOAD SWAP1 POP PUSH1 0x0 DUP1 NUMBER SWAP1 POP PUSH1 0x0 PUSH2 0xF5C DUP3 PUSH1 0x2 SLOAD PUSH1 0x40 MLOAD DUP1 PUSH1 0x40 ADD PUSH1 0x40 MSTORE DUP1 PUSH1 0x17 DUP2 MSTORE PUSH1 0x20 ADD PUSH32 0x44656C746120426C6F636B732067617665206572726F72000000000000000000 DUP2 MSTORE POP PUSH2 0x127F JUMP JUMPDEST SWAP1 POP DUP4 ISZERO PUSH2 0x1273 JUMPI PUSH1 0x0 JUMPDEST DUP5 DUP2 LT ISZERO PUSH2 0x1271 JUMPI PUSH1 0x0 DUP7 DUP3 DUP2 MLOAD DUP2 LT PUSH2 0xF7D JUMPI INVALID JUMPDEST PUSH1 0x20 SWAP1 DUP2 MUL SWAP2 SWAP1 SWAP2 ADD DUP2 ADD MLOAD PUSH1 0x1 PUSH1 0x1 PUSH1 0xA0 SHL SUB DUP2 AND PUSH1 0x0 SWAP1 DUP2 MSTORE PUSH1 0x3 SWAP1 SWAP3 MSTORE PUSH1 0x40 SWAP1 SWAP2 KECCAK256 SLOAD SWAP1 SWAP2 POP PUSH1 0xFF AND ISZERO PUSH2 0x1268 JUMPI PUSH1 0x40 DUP1 MLOAD PUSH4 0x70A08231 PUSH1 0xE0 SHL DUP2 MSTORE ADDRESS PUSH1 0x4 DUP3 ADD MSTORE SWAP1 MLOAD PUSH1 0x1 PUSH1 0x1 PUSH1 0xA0 SHL SUB DUP11 AND SWAP2 PUSH4 0x70A08231 SWAP2 PUSH1 0x24 DUP1 DUP4 ADD SWAP3 PUSH1 0x20 SWAP3 SWAP2 SWAP1 DUP3 SWAP1 SUB ADD DUP2 DUP7 DUP1 EXTCODESIZE ISZERO DUP1 ISZERO PUSH2 0xFF4 JUMPI PUSH1 0x0 DUP1 REVERT JUMPDEST POP GAS STATICCALL ISZERO DUP1 ISZERO PUSH2 0x1008 JUMPI RETURNDATASIZE PUSH1 0x0 DUP1 RETURNDATACOPY RETURNDATASIZE PUSH1 0x0 REVERT JUMPDEST POP POP POP POP PUSH1 0x40 MLOAD RETURNDATASIZE PUSH1 0x20 DUP2 LT ISZERO PUSH2 0x101E JUMPI PUSH1 0x0 DUP1 REVERT JUMPDEST POP MLOAD PUSH1 0x1 PUSH1 0x1 PUSH1 0xA0 SHL SUB DUP3 AND PUSH1 0x0 SWAP1 DUP2 MSTORE PUSH1 0x3 PUSH1 0x20 SWAP1 DUP2 MSTORE PUSH1 0x40 DUP1 DUP4 KECCAK256 PUSH1 0x1 ADD SLOAD DUP2 MLOAD DUP1 DUP4 ADD SWAP1 SWAP3 MSTORE PUSH1 0x12 DUP3 MSTORE PUSH18 0x64726970546F74616C206F766572666C6F77 PUSH1 0x70 SHL SWAP3 DUP3 ADD SWAP3 SWAP1 SWAP3 MSTORE SWAP3 SWAP8 POP SWAP1 SWAP2 PUSH2 0x1079 SWAP2 SWAP1 DUP7 SWAP1 PUSH2 0x131B JUMP JUMPDEST SWAP1 POP PUSH1 0x0 PUSH2 0x1087 DUP8 DUP4 PUSH2 0x138F JUMP JUMPDEST SWAP1 POP DUP7 PUSH2 0x10C5 JUMPI PUSH1 0x40 MLOAD PUSH3 0x461BCD PUSH1 0xE5 SHL DUP2 MSTORE PUSH1 0x4 ADD DUP1 DUP1 PUSH1 0x20 ADD DUP3 DUP2 SUB DUP3 MSTORE PUSH1 0x4D DUP2 MSTORE PUSH1 0x20 ADD DUP1 PUSH2 0x1641 PUSH1 0x4D SWAP2 CODECOPY PUSH1 0x60 ADD SWAP2 POP POP PUSH1 0x40 MLOAD DUP1 SWAP2 SUB SWAP1 REVERT JUMPDEST DUP10 PUSH1 0x1 PUSH1 0x1 PUSH1 0xA0 SHL SUB AND PUSH4 0xA9059CBB DUP5 DUP4 PUSH1 0x40 MLOAD DUP4 PUSH4 0xFFFFFFFF AND PUSH1 0xE0 SHL DUP2 MSTORE PUSH1 0x4 ADD DUP1 DUP4 PUSH1 0x1 PUSH1 0x1 PUSH1 0xA0 SHL SUB AND PUSH1 0x1 PUSH1 0x1 PUSH1 0xA0 SHL SUB AND DUP2 MSTORE PUSH1 0x20 ADD DUP3 DUP2 MSTORE PUSH1 0x20 ADD SWAP3 POP POP POP PUSH1 0x20 PUSH1 0x40 MLOAD DUP1 DUP4 SUB DUP2 PUSH1 0x0 DUP8 DUP1 EXTCODESIZE ISZERO DUP1 ISZERO PUSH2 0x1125 JUMPI PUSH1 0x0 DUP1 REVERT JUMPDEST POP GAS CALL ISZERO DUP1 ISZERO PUSH2 0x1139 JUMPI RETURNDATASIZE PUSH1 0x0 DUP1 RETURNDATACOPY RETURNDATASIZE PUSH1 0x0 REVERT JUMPDEST POP POP POP POP PUSH1 0x40 MLOAD RETURNDATASIZE PUSH1 0x20 DUP2 LT ISZERO PUSH2 0x114F JUMPI PUSH1 0x0 DUP1 REVERT JUMPDEST POP MLOAD PUSH2 0x118C JUMPI PUSH1 0x40 MLOAD PUSH3 0x461BCD PUSH1 0xE5 SHL DUP2 MSTORE PUSH1 0x4 ADD DUP1 DUP1 PUSH1 0x20 ADD DUP3 DUP2 SUB DUP3 MSTORE PUSH1 0x31 DUP2 MSTORE PUSH1 0x20 ADD DUP1 PUSH2 0x1443 PUSH1 0x31 SWAP2 CODECOPY PUSH1 0x40 ADD SWAP2 POP POP PUSH1 0x40 MLOAD DUP1 SWAP2 SUB SWAP1 REVERT JUMPDEST PUSH1 0x0 PUSH1 0x3 PUSH1 0x0 DUP6 PUSH1 0x1 PUSH1 0x1 PUSH1 0xA0 SHL SUB AND PUSH1 0x1 PUSH1 0x1 PUSH1 0xA0 SHL SUB AND DUP2 MSTORE PUSH1 0x20 ADD SWAP1 DUP2 MSTORE PUSH1 0x20 ADD PUSH1 0x0 KECCAK256 PUSH1 0x2 ADD SLOAD SWAP1 POP PUSH2 0x11E4 DUP2 DUP4 PUSH1 0x40 MLOAD DUP1 PUSH1 0x40 ADD PUSH1 0x40 MSTORE DUP1 PUSH1 0x8 DUP2 MSTORE PUSH1 0x20 ADD PUSH8 0x4F766572666C6F77 PUSH1 0xC0 SHL DUP2 MSTORE POP PUSH2 0x13A6 JUMP JUMPDEST PUSH1 0x1 PUSH1 0x1 PUSH1 0xA0 SHL SUB DUP6 AND PUSH1 0x0 DUP2 DUP2 MSTORE PUSH1 0x3 PUSH1 0x20 DUP2 DUP2 MSTORE PUSH1 0x40 SWAP3 DUP4 SWAP1 KECCAK256 PUSH1 0x2 DUP2 ADD DUP7 SWAP1 SSTORE SWAP2 DUP3 ADD DUP8 SWAP1 SSTORE PUSH1 0x1 SWAP1 SWAP2 ADD SLOAD DUP3 MLOAD SWAP4 DUP5 MSTORE SWAP1 DUP4 ADD DUP11 SWAP1 MSTORE DUP3 DUP3 ADD MSTORE PUSH1 0x60 DUP3 ADD DUP6 SWAP1 MSTORE PUSH1 0x80 DUP3 ADD SWAP3 SWAP1 SWAP3 MSTORE PUSH1 0xA0 DUP2 ADD DUP10 SWAP1 MSTORE SWAP1 MLOAD PUSH32 0x9F349058588B272E36F7AD9FBD937A116F31B3739D787CBEFC43E34F6EA9891E SWAP2 DUP2 SWAP1 SUB PUSH1 0xC0 ADD SWAP1 LOG1 POP POP POP JUMPDEST POP PUSH1 0x1 ADD PUSH2 0xF67 JUMP JUMPDEST POP JUMPDEST POP POP NUMBER PUSH1 0x2 SSTORE POP POP POP POP JUMP JUMPDEST PUSH1 0x0 DUP2 DUP5 DUP5 GT ISZERO PUSH2 0x130E JUMPI PUSH1 0x40 MLOAD PUSH3 0x461BCD PUSH1 0xE5 SHL DUP2 MSTORE PUSH1 0x4 ADD DUP1 DUP1 PUSH1 0x20 ADD DUP3 DUP2 SUB DUP3 MSTORE DUP4 DUP2 DUP2 MLOAD DUP2 MSTORE PUSH1 0x20 ADD SWAP2 POP DUP1 MLOAD SWAP1 PUSH1 0x20 ADD SWAP1 DUP1 DUP4 DUP4 PUSH1 0x0 JUMPDEST DUP4 DUP2 LT ISZERO PUSH2 0x12D3 JUMPI DUP2 DUP2 ADD MLOAD DUP4 DUP3 ADD MSTORE PUSH1 0x20 ADD PUSH2 0x12BB JUMP JUMPDEST POP POP POP POP SWAP1 POP SWAP1 DUP2 ADD SWAP1 PUSH1 0x1F AND DUP1 ISZERO PUSH2 0x1300 JUMPI DUP1 DUP3 SUB DUP1 MLOAD PUSH1 0x1 DUP4 PUSH1 0x20 SUB PUSH2 0x100 EXP SUB NOT AND DUP2 MSTORE PUSH1 0x20 ADD SWAP2 POP JUMPDEST POP SWAP3 POP POP POP PUSH1 0x40 MLOAD DUP1 SWAP2 SUB SWAP1 REVERT JUMPDEST POP POP DUP2 DUP4 SUB JUMPDEST SWAP4 SWAP3 POP POP POP JUMP JUMPDEST PUSH1 0x0 DUP4 PUSH2 0x132A JUMPI POP PUSH1 0x0 PUSH2 0x1314 JUMP JUMPDEST DUP4 DUP4 MUL DUP4 DUP6 DUP3 DUP2 PUSH2 0x1337 JUMPI INVALID JUMPDEST DIV EQ DUP4 SWAP1 PUSH2 0x1386 JUMPI PUSH1 0x40 MLOAD PUSH3 0x461BCD PUSH1 0xE5 SHL DUP2 MSTORE PUSH1 0x20 PUSH1 0x4 DUP3 ADD DUP2 DUP2 MSTORE DUP4 MLOAD PUSH1 0x24 DUP5 ADD MSTORE DUP4 MLOAD SWAP1 SWAP3 DUP4 SWAP3 PUSH1 0x44 SWAP1 SWAP2 ADD SWAP2 SWAP1 DUP6 ADD SWAP1 DUP1 DUP4 DUP4 PUSH1 0x0 DUP4 ISZERO PUSH2 0x12D3 JUMPI DUP2 DUP2 ADD MLOAD DUP4 DUP3 ADD MSTORE PUSH1 0x20 ADD PUSH2 0x12BB JUMP JUMPDEST POP SWAP5 SWAP4 POP POP POP POP JUMP JUMPDEST PUSH1 0x0 DUP2 DUP4 GT PUSH2 0x139F JUMPI POP DUP2 PUSH2 0x5DD JUMP JUMPDEST POP DUP1 PUSH2 0x5DD JUMP JUMPDEST PUSH1 0x0 DUP4 DUP4 ADD DUP3 DUP6 DUP3 LT ISZERO PUSH2 0x1386 JUMPI PUSH1 0x40 MLOAD PUSH3 0x461BCD PUSH1 0xE5 SHL DUP2 MSTORE PUSH1 0x20 PUSH1 0x4 DUP3 ADD DUP2 DUP2 MSTORE DUP4 MLOAD PUSH1 0x24 DUP5 ADD MSTORE DUP4 MLOAD SWAP1 SWAP3 DUP4 SWAP3 PUSH1 0x44 SWAP1 SWAP2 ADD SWAP2 SWAP1 DUP6 ADD SWAP1 DUP1 DUP4 DUP4 PUSH1 0x0 DUP4 ISZERO PUSH2 0x12D3 JUMPI DUP2 DUP2 ADD MLOAD DUP4 DUP3 ADD MSTORE PUSH1 0x20 ADD PUSH2 0x12BB JUMP JUMPDEST DUP2 SLOAD DUP2 DUP4 SSTORE DUP2 DUP2 GT ISZERO PUSH2 0x141F JUMPI PUSH1 0x0 DUP4 DUP2 MSTORE PUSH1 0x20 SWAP1 KECCAK256 PUSH2 0x141F SWAP2 DUP2 ADD SWAP1 DUP4 ADD PUSH2 0x1424 JUMP JUMPDEST POP POP POP JUMP JUMPDEST PUSH2 0x387 SWAP2 SWAP1 JUMPDEST DUP1 DUP3 GT ISZERO PUSH2 0x143E JUMPI PUSH1 0x0 DUP2 SSTORE PUSH1 0x1 ADD PUSH2 0x142A JUMP JUMPDEST POP SWAP1 JUMP INVALID POP PUSH19 0x6F746F636F6C205472616E736665723A205468 PUSH6 0x207472616E73 PUSH7 0x65722064696420 PUSH15 0x6F7420636F6D706C6574652E457272 PUSH16 0x72206F636375726564207768656E2061 PUSH5 0x64696E6720 PUSH21 0x6865206E65772070726F746F636F6C546865205072 PUSH16 0x746F636F6C206973206E6F7420537570 PUSH17 0x6F72746564206279207468652053696768 KECCAK256 MSTORE8 PUSH17 0x65656420436F6E74726F6C6C6572546865 KECCAK256 PUSH13 0x656E677468206F662074686520 PUSH13 0x69737420776173206E6F742070 PUSH19 0x6F7065726C792064656372656D656E7465642E SLOAD PUSH9 0x69732050726F746F63 PUSH16 0x6C20697320616C726561647920737570 PUSH17 0x6F72746564206279207468652053696768 KECCAK256 MSTORE8 PUSH17 0x65656420436F6E74726F6C6C6572546865 KECCAK256 PUSH4 0x616C6C65 PUSH19 0x206D7573742062652074686520534947482046 PUSH10 0x6E616E61636520436F6E PUSH7 0x6967757261746F PUSH19 0x20436F6E747261637453494748205370656564 KECCAK256 PUSH7 0x6F722074686520 PUSH15 0x65772070726F746F636F6C20776173 KECCAK256 PUSH15 0x6F7420696E697469616C697A656420 PUSH17 0x726F7065726C792E5468652050726F746F PUSH4 0x6F6C2069 PUSH20 0x20616C7265616479206E6F7420537570706F7274 PUSH6 0x642062792074 PUSH9 0x652053696768205370 PUSH6 0x656420436F6E PUSH21 0x726F6C6C65724472697070696E6720686173206E6F PUSH21 0x206265656E20696E697469616C697A656420627920 PUSH21 0x686520534947482046696E616E6365204D616E6167 PUSH6 0x7250726F746F PUSH4 0x6F6C2054 PUSH19 0x616E736665723A20546865207265736572766F PUSH10 0x722063757272656E746C PUSH26 0x20646F6573206E6F74206861766520616E79205349474820496E PUSH20 0x7472756D656E74734472697070696E672063616E KECCAK256 PUSH16 0x6E6C7920626520696E697469616C697A PUSH6 0x64206F6E6365 LOG2 PUSH6 0x627A7A723158 KECCAK256 LOG0 DUP1 0xC6 SSTORE 0x2B PUSH26 0xFF41ED14BD2225C8925858B6E0430A62152511818C92CE6EADE7 PUSH5 0x736F6C6343 STOP SDIV GT STOP ORIGIN KECCAK256 COINBASE PUSH5 0x6472657373 PUSH6 0x7350726F7669 PUSH5 0x6572206E6F PUSH21 0x20696E697469616C697A65642050726F7065726C79 KECCAK256 KECCAK256 MSTORE8 0x49 SELFBALANCE 0x48 KECCAK256 0x49 PUSH15 0x737472756D656E74206E6F7420696E PUSH10 0x7469616C697A65642050 PUSH19 0x6F7065726C7920000000000000000000000000 "
		},
		"gasEstimates": {
			"creation": {
				"codeDepositCost": "1172600",
				"executionCost": "infinite",
				"totalCost": "infinite"
			},
			"external": {
				"_isDripAllowed()": "1050",
				"beginDripping()": "infinite",
				"changeProtocolSIGHSpeed(address,uint256)": "infinite",
				"drip()": "infinite",
				"getGlobalAddressProvider()": "1127",
				"getRecentAmountDistributedToProtocol(address)": "1222",
				"getSIGHBalance()": "infinite",
				"getSIGHSpeedForProtocol(address)": "1236",
				"getSighAddress()": "1059",
				"getSupportedProtocolState(address)": "3689",
				"getSupportedProtocols()": "infinite",
				"getTotalAmountDistributedToProtocol(address)": "1214",
				"getlastDripBlockNumber()": "1065",
				"isThisProtocolSupported(address)": "1264",
				"removeSupportedProtocol(address)": "infinite",
				"supportNewProtocol(address,uint256)": "infinite",
				"totalProtocolsSupported()": "1045"
			},
			"internal": {
				"add(uint256,uint256,string memory)": "infinite",
				"dripInternal()": "infinite",
				"min(uint256,uint256)": "62",
				"mul(uint256,uint256,string memory)": "infinite",
				"sub(uint256,uint256,string memory)": "infinite"
			}
		},
		"methodIdentifiers": {
			"_isDripAllowed()": "4c2d2333",
			"beginDripping()": "78b122dc",
			"changeProtocolSIGHSpeed(address,uint256)": "5c8cfed8",
			"drip()": "9f678cca",
			"getGlobalAddressProvider()": "497a8ed4",
			"getRecentAmountDistributedToProtocol(address)": "2aef904a",
			"getSIGHBalance()": "c6a6bfb1",
			"getSIGHSpeedForProtocol(address)": "d2ee1ea6",
			"getSighAddress()": "b02644d0",
			"getSupportedProtocolState(address)": "0259d8c1",
			"getSupportedProtocols()": "532913a5",
			"getTotalAmountDistributedToProtocol(address)": "c9c90642",
			"getlastDripBlockNumber()": "5a2ac256",
			"isThisProtocolSupported(address)": "ebb3e086",
			"removeSupportedProtocol(address)": "8438cc23",
			"supportNewProtocol(address,uint256)": "633eec44",
			"totalProtocolsSupported()": "101cd9ca"
		}
	},
	"abi": [
		{
			"inputs": [
				{
					"internalType": "address",
					"name": "sighInstrument_",
					"type": "address"
				},
				{
					"internalType": "address",
					"name": "_addressesProvider",
					"type": "address"
				}
			],
			"payable": false,
			"stateMutability": "nonpayable",
			"type": "constructor"
		},
		{
			"anonymous": false,
			"inputs": [
				{
					"indexed": false,
					"internalType": "uint256",
					"name": "blockNumber",
					"type": "uint256"
				}
			],
			"name": "DistributionInitialized",
			"type": "event"
		},
		{
			"anonymous": false,
			"inputs": [
				{
					"indexed": false,
					"internalType": "address",
					"name": "protocolAddress",
					"type": "address"
				},
				{
					"indexed": false,
					"internalType": "uint256",
					"name": "prevSpeed",
					"type": "uint256"
				},
				{
					"indexed": false,
					"internalType": "uint256",
					"name": "newSpeed",
					"type": "uint256"
				},
				{
					"indexed": false,
					"internalType": "uint256",
					"name": "blockNumber",
					"type": "uint256"
				}
			],
			"name": "DistributionSpeedChanged",
			"type": "event"
		},
		{
			"anonymous": false,
			"inputs": [
				{
					"indexed": false,
					"internalType": "address",
					"name": "protocolAddress",
					"type": "address"
				},
				{
					"indexed": false,
					"internalType": "uint256",
					"name": "deltaBlocks",
					"type": "uint256"
				},
				{
					"indexed": false,
					"internalType": "uint256",
					"name": "distributionSpeed",
					"type": "uint256"
				},
				{
					"indexed": false,
					"internalType": "uint256",
					"name": "AmountDripped",
					"type": "uint256"
				},
				{
					"indexed": false,
					"internalType": "uint256",
					"name": "totalAmountDripped",
					"type": "uint256"
				},
				{
					"indexed": false,
					"internalType": "uint256",
					"name": "blockNumber",
					"type": "uint256"
				}
			],
			"name": "Dripped",
			"type": "event"
		},
		{
			"anonymous": false,
			"inputs": [
				{
					"indexed": false,
					"internalType": "address",
					"name": "protocolAddress",
					"type": "address"
				},
				{
					"indexed": false,
					"internalType": "uint256",
					"name": "sighSpeed",
					"type": "uint256"
				},
				{
					"indexed": false,
					"internalType": "uint256",
					"name": "totalDrippedAmount",
					"type": "uint256"
				},
				{
					"indexed": false,
					"internalType": "uint256",
					"name": "blockNumber",
					"type": "uint256"
				}
			],
			"name": "NewProtocolSupported",
			"type": "event"
		},
		{
			"anonymous": false,
			"inputs": [
				{
					"indexed": false,
					"internalType": "address",
					"name": "protocolAddress",
					"type": "address"
				},
				{
					"indexed": false,
					"internalType": "uint256",
					"name": "totalDrippedToProtocol",
					"type": "uint256"
				},
				{
					"indexed": false,
					"internalType": "uint256",
					"name": "blockNumber",
					"type": "uint256"
				}
			],
			"name": "ProtocolRemoved",
			"type": "event"
		},
		{
			"constant": true,
			"inputs": [],
			"name": "_isDripAllowed",
			"outputs": [
				{
					"internalType": "bool",
					"name": "",
					"type": "bool"
				}
			],
			"payable": false,
			"stateMutability": "view",
			"type": "function"
		},
		{
			"constant": false,
			"inputs": [],
			"name": "beginDripping",
			"outputs": [
				{
					"internalType": "bool",
					"name": "",
					"type": "bool"
				}
			],
			"payable": false,
			"stateMutability": "nonpayable",
			"type": "function"
		},
		{
			"constant": false,
			"inputs": [
				{
					"internalType": "address",
					"name": "targetAddress",
					"type": "address"
				},
				{
					"internalType": "uint256",
					"name": "newSpeed_",
					"type": "uint256"
				}
			],
			"name": "changeProtocolSIGHSpeed",
			"outputs": [
				{
					"internalType": "bool",
					"name": "",
					"type": "bool"
				}
			],
			"payable": false,
			"stateMutability": "nonpayable",
			"type": "function"
		},
		{
			"constant": false,
			"inputs": [],
			"name": "drip",
			"outputs": [],
			"payable": false,
			"stateMutability": "nonpayable",
			"type": "function"
		},
		{
			"constant": true,
			"inputs": [],
			"name": "getGlobalAddressProvider",
			"outputs": [
				{
					"internalType": "address",
					"name": "",
					"type": "address"
				}
			],
			"payable": false,
			"stateMutability": "view",
			"type": "function"
		},
		{
			"constant": true,
			"inputs": [
				{
					"internalType": "address",
					"name": "protocolAddress",
					"type": "address"
				}
			],
			"name": "getRecentAmountDistributedToProtocol",
			"outputs": [
				{
					"internalType": "uint256",
					"name": "",
					"type": "uint256"
				}
			],
			"payable": false,
			"stateMutability": "view",
			"type": "function"
		},
		{
			"constant": true,
			"inputs": [],
			"name": "getSIGHBalance",
			"outputs": [
				{
					"internalType": "uint256",
					"name": "",
					"type": "uint256"
				}
			],
			"payable": false,
			"stateMutability": "view",
			"type": "function"
		},
		{
			"constant": true,
			"inputs": [
				{
					"internalType": "address",
					"name": "protocolAddress",
					"type": "address"
				}
			],
			"name": "getSIGHSpeedForProtocol",
			"outputs": [
				{
					"internalType": "uint256",
					"name": "",
					"type": "uint256"
				}
			],
			"payable": false,
			"stateMutability": "view",
			"type": "function"
		},
		{
			"constant": true,
			"inputs": [],
			"name": "getSighAddress",
			"outputs": [
				{
					"internalType": "address",
					"name": "",
					"type": "address"
				}
			],
			"payable": false,
			"stateMutability": "view",
			"type": "function"
		},
		{
			"constant": true,
			"inputs": [
				{
					"internalType": "address",
					"name": "protocolAddress",
					"type": "address"
				}
			],
			"name": "getSupportedProtocolState",
			"outputs": [
				{
					"internalType": "bool",
					"name": "isSupported",
					"type": "bool"
				},
				{
					"internalType": "uint256",
					"name": "distributionSpeed",
					"type": "uint256"
				},
				{
					"internalType": "uint256",
					"name": "totalDrippedAmount",
					"type": "uint256"
				},
				{
					"internalType": "uint256",
					"name": "recentlyDrippedAmount",
					"type": "uint256"
				}
			],
			"payable": false,
			"stateMutability": "view",
			"type": "function"
		},
		{
			"constant": true,
			"inputs": [],
			"name": "getSupportedProtocols",
			"outputs": [
				{
					"internalType": "address[]",
					"name": "",
					"type": "address[]"
				}
			],
			"payable": false,
			"stateMutability": "view",
			"type": "function"
		},
		{
			"constant": true,
			"inputs": [
				{
					"internalType": "address",
					"name": "protocolAddress",
					"type": "address"
				}
			],
			"name": "getTotalAmountDistributedToProtocol",
			"outputs": [
				{
					"internalType": "uint256",
					"name": "",
					"type": "uint256"
				}
			],
			"payable": false,
			"stateMutability": "view",
			"type": "function"
		},
		{
			"constant": true,
			"inputs": [],
			"name": "getlastDripBlockNumber",
			"outputs": [
				{
					"internalType": "uint256",
					"name": "",
					"type": "uint256"
				}
			],
			"payable": false,
			"stateMutability": "view",
			"type": "function"
		},
		{
			"constant": true,
			"inputs": [
				{
					"internalType": "address",
					"name": "protocolAddress",
					"type": "address"
				}
			],
			"name": "isThisProtocolSupported",
			"outputs": [
				{
					"internalType": "bool",
					"name": "",
					"type": "bool"
				}
			],
			"payable": false,
			"stateMutability": "view",
			"type": "function"
		},
		{
			"constant": false,
			"inputs": [
				{
					"internalType": "address",
					"name": "protocolAddress_",
					"type": "address"
				}
			],
			"name": "removeSupportedProtocol",
			"outputs": [
				{
					"internalType": "bool",
					"name": "",
					"type": "bool"
				}
			],
			"payable": false,
			"stateMutability": "nonpayable",
			"type": "function"
		},
		{
			"constant": false,
			"inputs": [
				{
					"internalType": "address",
					"name": "newProtocolAddress",
					"type": "address"
				},
				{
					"internalType": "uint256",
					"name": "sighSpeed",
					"type": "uint256"
				}
			],
			"name": "supportNewProtocol",
			"outputs": [
				{
					"internalType": "bool",
					"name": "",
					"type": "bool"
				}
			],
			"payable": false,
			"stateMutability": "nonpayable",
			"type": "function"
		},
		{
			"constant": true,
			"inputs": [],
			"name": "totalProtocolsSupported",
			"outputs": [
				{
					"internalType": "uint256",
					"name": "",
					"type": "uint256"
				}
			],
			"payable": false,
			"stateMutability": "view",
			"type": "function"
		}
	]
}