{
	"data": {
		"bytecode": {
			"linkReferences": {},
			"object": "6080604052681b1ae4d6e2ef500000606d5560646072556073805460ff191690553480156200002d57600080fd5b506040518060800160405280605d8152602001620021e4605d9139604051806040016040528060048152602001630a6928e960e31b815250601282606890805190602001906200007f92919062000450565b5081516200009590606990602085019062000450565b50606a805460ff191660ff9290921691909117905550620000b79050620002de565b606a8054610100600160a81b0319166101006001600160a01b0393841681029190911791829055620000f8929104166a0422ca8b0a00a425000000620002e3565b62000102620004d5565b60405180610100016040528060705481526020016071548152602001600081526020016a0422ca8b0a00a4250000008152602001600081526020016200014d620003e860201b60201c565b81523360208083019190915243604092830152606f805460018101825560009190915283517f39f2babe526038520877fc7c33d81accf578af4a06c5fa6b0d038cae36e12711600890920291820155908301517f39f2babe526038520877fc7c33d81accf578af4a06c5fa6b0d038cae36e12712820155908201517f39f2babe526038520877fc7c33d81accf578af4a06c5fa6b0d038cae36e1271382015560608201517f39f2babe526038520877fc7c33d81accf578af4a06c5fa6b0d038cae36e1271482015560808201517f39f2babe526038520877fc7c33d81accf578af4a06c5fa6b0d038cae36e1271582015560a08201517f39f2babe526038520877fc7c33d81accf578af4a06c5fa6b0d038cae36e1271682015560c08201517f39f2babe526038520877fc7c33d81accf578af4a06c5fa6b0d038cae36e12717820180546001600160a01b0319166001600160a01b0390921691909117905560e0909101517f39f2babe526038520877fc7c33d81accf578af4a06c5fa6b0d038cae36e12718909101555062000540565b335b90565b6001600160a01b0382166200033f576040805162461bcd60e51b815260206004820152601f60248201527f45524332303a206d696e7420746f20746865207a65726f206164647265737300604482015290519081900360640190fd5b6200035b81603554620003ee60201b62000ec41790919060201c565b6035556001600160a01b0382166000908152603360209081526040909120546200039091839062000ec4620003ee821b17901c565b6001600160a01b03831660008181526033602090815260408083209490945583518581529351929391927fddf252ad1be2c89b69c2b068fc378daa952ba7f163c4a11628f55a4df523b3ef9281900390910190a35050565b60355490565b60008282018381101562000449576040805162461bcd60e51b815260206004820152601b60248201527f536166654d6174683a206164646974696f6e206f766572666c6f770000000000604482015290519081900360640190fd5b9392505050565b828054600181600116156101000203166002900490600052602060002090601f016020900481019282601f106200049357805160ff1916838001178555620004c3565b82800160010185558215620004c3579182015b82811115620004c3578251825591602001919060010190620004a6565b50620004d192915062000523565b5090565b60405180610100016040528060008152602001600081526020016000815260200160008152602001600081526020016000815260200160006001600160a01b03168152602001600081525090565b620002e091905b80821115620004d157600081556001016200052a565b611c9480620005506000396000f3fe608060405234801561001057600080fd5b50600436106101a95760003560e01c80635c26a643116100f9578063be26ed7f11610097578063dd62ed3e11610071578063dd62ed3e146104ea578063f257c08014610518578063fa7a11e214610520578063fc399a0d14610528576101a9565b8063be26ed7f146104d2578063d250b6cb146104da578063dae0e05c146104e2576101a9565b8063798907c1116100d3578063798907c11461046a57806395d89b4114610472578063a457c2d71461047a578063a9059cbb146104a6576101a9565b80635c26a6431461040e5780635f103dc81461043c57806370a0823114610444576101a9565b80632d5a9db011610166578063395093511161014057806339509351146103995780633b19e84a146103c557806342966c68146103e95780634f9d3fd514610406576101a9565b80632d5a9db014610315578063313ce5671461037357806333c42fe014610391576101a9565b806306fdde03146101ae578063095ea7b31461022b5780631384b2191461026b57806318160ddd146102855780631a6947011461028d57806323b872dd146102df575b600080fd5b6101b6610530565b6040805160208082528351818301528351919283929083019185019080838360005b838110156101f05781810151838201526020016101d8565b50505050905090810190601f16801561021d5780820380516001836020036101000a031916815260200191505b509250505060405180910390f35b6102576004803603604081101561024157600080fd5b506001600160a01b0381351690602001356105c7565b604080519115158252519081900360200190f35b6102736105e4565b60408051918252519081900360200190f35b61027361060e565b610295610614565b604080519889526020890197909752878701959095526060870193909352608086019190915260a08501526001600160a01b031660c084015260e083015251908190036101000190f35b610257600480360360608110156102f557600080fd5b506001600160a01b0381358116916020810135909116906040013561062f565b6103326004803603602081101561032b57600080fd5b50356106bc565b60408051978852602088019690965286860194909452606086019290925260808501526001600160a01b031660a084015260c0830152519081900360e00190f35b61037b6107cc565b6040805160ff9092168252519081900360200190f35b6102736107d5565b610257600480360360408110156103af57600080fd5b506001600160a01b0381351690602001356107da565b6103cd61082e565b604080516001600160a01b039092168252519081900360200190f35b610257600480360360208110156103ff57600080fd5b503561083d565b6103cd610924565b6102576004803603604081101561042457600080fd5b506001600160a01b0381358116916020013516610933565b610273610ad0565b6102736004803603602081101561045a57600080fd5b50356001600160a01b0316610ad5565b610257610af0565b6101b6610b17565b6102576004803603604081101561049057600080fd5b506001600160a01b038135169060200135610b78565b610257600480360360408110156104bc57600080fd5b506001600160a01b038135169060200135610be6565b610273610bfa565b610273610c00565b610273610c06565b6102736004803603604081101561050057600080fd5b506001600160a01b0381358116916020013516610c69565b610273610c94565b610273610c9a565b610257610cf7565b60688054604080516020601f60026000196101006001881615020190951694909404938401819004810282018101909252828152606093909290918301828280156105bc5780601f10610591576101008083540402835291602001916105bc565b820191906000526020600020905b81548152906001019060200180831161059f57829003601f168201915b505050505090505b90565b60006105db6105d4610d16565b8484610d1a565b50600192915050565b6000604d60705411806105fa575060735460ff16155b15610607575060006105c4565b5060725490565b60355490565b606f8054600091829182918291829182918291829190819081fe5b600061063c848484610e06565b6106b284610648610d16565b6106ad85604051806060016040528060288152602001611b7d602891396001600160a01b038a16600090815260346020526040812090610686610d16565b6001600160a01b03168152602081019190915260400160002054919063ffffffff610e2d16565b610d1a565b5060019392505050565b6000806000806000806000606f88815481106106d457fe5b906000526020600020906008020160010154606f89815481106106f357fe5b906000526020600020906008020160020154606f8a8154811061071257fe5b906000526020600020906008020160030154606f8b8154811061073157fe5b906000526020600020906008020160040154606f8c8154811061075057fe5b906000526020600020906008020160050154606f8d8154811061076f57fe5b906000526020600020906008020160060160009054906101000a90046001600160a01b0316606f8e815481106107a157fe5b9060005260206000209060080201600701549650965096509650965096509650919395979092949650565b606a5460ff1690565b604d81565b60006105db6107e7610d16565b846106ad85603460006107f8610d16565b6001600160a01b03908116825260208083019390935260409182016000908120918c16815292529020549063ffffffff610ec416565b606b546001600160a01b031690565b606b546000906001600160a01b031633146108895760405162461bcd60e51b8152600401808060200182810382526022815260200180611b346022913960400191505060405180910390fd5b606b5461089f906001600160a01b031683610f25565b60006108c6606e54846040518060600160405280603a8152602001611afa603a9139611021565b606e81905590507fa97f27f366c18c45537a14af9d132390cf44128f0dadbf4aef7f020b1218cd5583826108f861060e565b60408051938452602084019290925282820152436060830152519081900360800190a150600192915050565b606c546001600160a01b031690565b606a5460009061010090046001600160a01b031661094f610d16565b6001600160a01b0316146109945760405162461bcd60e51b815260040180806020018281038252602c815260200180611ba5602c913960400191505060405180910390fd5b6001600160a01b0383166109d95760405162461bcd60e51b8152600401808060200182810382526024815260200180611a8e6024913960400191505060405180910390fd5b6001600160a01b038216610a34576040805162461bcd60e51b815260206004820152601c60248201527f4e6f7420612076616c6964205472656173757279206164647265737300000000604482015290519081900360640190fd5b606c80546001600160a01b038086166001600160a01b031992831617909255606b805492851692909116919091179055610a6c61107f565b606c54606b54604080516001600160a01b039384168152919092166020820152438183015290517f8eae0c2f651a44c8e5f3b32376232a187ebb06d44450a4c9303f9ccb90a4143a9181900360600190a16073805460ff1916600117905592915050565b600481565b6001600160a01b031660009081526033602052604090205490565b6000610afa61124d565b15610b1157610b076112c6565b50600190506105c4565b50600090565b60698054604080516020601f60026000196101006001881615020190951694909404938401819004810282018101909252828152606093909290918301828280156105bc5780601f10610591576101008083540402835291602001916105bc565b60006105db610b85610d16565b846106ad85604051806060016040528060258152602001611c3b6025913960346000610baf610d16565b6001600160a01b03908116825260208083019390935260409182016000908120918d1681529252902054919063ffffffff610e2d16565b60006105db610bf3610d16565b8484610e06565b60705490565b60715490565b6000604d6070541180610c1c575060735460ff16155b15610c29575060006105c4565b6000610c3361060e565b90506000610c4c607254836115bc90919063ffffffff16565b90506000610c6182600463ffffffff6115bc16565b935050505090565b6001600160a01b03918216600090815260346020908152604080832093909416825291909152205490565b606e5490565b6000604d6070541180610cb0575060735460ff16155b15610cbe57506000196105c4565b6000610ccc436074546115fe565b905060048110610ce05760009150506105c4565b610cf160048263ffffffff61162c16565b91505090565b6000604d6070541115610d0c575060006105c4565b5060735460ff1690565b3390565b6001600160a01b038316610d5f5760405162461bcd60e51b8152600401808060200182810382526024815260200180611c176024913960400191505060405180910390fd5b6001600160a01b038216610da45760405162461bcd60e51b8152600401808060200182810382526022815260200180611ab26022913960400191505060405180910390fd5b6001600160a01b03808416600081815260346020908152604080832094871680845294825291829020859055815185815291517f8c5be1e5ebec7d5bd14f71427d1e84f3dd0314c0f7b2291e5b200ac8c7c3b9259281900390910190a3505050565b610e0e61124d565b15610e1d57610e1b6112c6565b505b610e2883838361166e565b505050565b60008184841115610ebc5760405162461bcd60e51b81526004018080602001828103825283818151815260200191508051906020019080838360005b83811015610e81578181015183820152602001610e69565b50505050905090810190601f168015610eae5780820380516001836020036101000a031916815260200191505b509250505060405180910390fd5b505050900390565b600082820183811015610f1e576040805162461bcd60e51b815260206004820152601b60248201527f536166654d6174683a206164646974696f6e206f766572666c6f770000000000604482015290519081900360640190fd5b9392505050565b6001600160a01b038216610f6a5760405162461bcd60e51b8152600401808060200182810382526021815260200180611bd16021913960400191505060405180910390fd5b610fad81604051806060016040528060228152602001611a6c602291396001600160a01b038516600090815260336020526040902054919063ffffffff610e2d16565b6001600160a01b038316600090815260336020526040902055603554610fd9908263ffffffff61162c16565b6035556040805182815290516000916001600160a01b038516917fddf252ad1be2c89b69c2b068fc378daa952ba7f163c4a11628f55a4df523b3ef9181900360200190a35050565b600083830182858210156110765760405162461bcd60e51b8152602060048201818152835160248401528351909283926044909101919085019080838360008315610e81578181015183820152602001610e69565b50949350505050565b60408051606080820183526001808352600660208085018290526064948601859052607592909255607655607792909255825180820184526007808252600d82850181905260c8928601839052607891909155607955607a5582518082018452600e8082526014828501819052610190928601839052607b91909155607c55607d55825180820184526015808252601b828501819052610320928601839052607e91909155607f5560805582518082018452601c80825260228285018190526106409286018390526081919091556082556083558251808201845260238082526029828501819052610c8092860183905260849190915560855560865582518082018452602a80825260308285018190526119009286018390526087919091556088556089558251808201845260318082526037828501819052613200928601839052608a91909155608b55608c55825180820184526038808252603e828501819052616400928601839052608d91909155608e55608f5582518082018452603f808252604582850181905261c800928601839052609091909155609155609255825190810183526046808252604d9282018390526201900091909301819052609392909255609455609555565b60735460009060ff1680156112655750604d60705411155b801561127c5750600461127a436074546115fe565b115b156112be5760006112b16070546001604051806040016040528060088152602001674f766572666c6f7760c01b815250611021565b60705550600190506105c4565b5060006105c4565b60006112d06117cc565b607154101561137b5761131c60715460016040518060400160405280601d81526020017f4e455720455241203a204164646974696f6e2067617665206572726f72000000815250611021565b6071819055607590600b811061132e57fe5b6003020160020154607255607154604080519182524360208301524282820152517f9d472bcf372fce01fd875c3296e8e5ae0a08bfca42dedac19e202271ce8f39c5916060908290030190a15b600061138561060e565b9050600061139e607254836115bc90919063ffffffff16565b905060006113b382600463ffffffff6115bc16565b90506113bd6119fa565b6040518061010001604052806070548152602001607154815260200160725481526020018481526020018381526020016113f561060e565b815233602082015243604090910152606d5490915083111561142c57606d5461142590849063ffffffff61162c16565b9250611432565b6000606d555b61143e33606d546118a3565b606c54611454906001600160a01b0316846118a3565b61145c61060e565b8160a0018181525050606f8190806001815401808255809150509060018203906000526020600020906008020160009091929091909150600082015181600001556020820151816001015560408201518160020155606082015181600301556080820151816004015560a0820151816005015560c08201518160060160006101000a8154816001600160a01b0302191690836001600160a01b0316021790555060e08201518160070155505050436074819055507fd1199909fe7e3430ff4a50acc1aec543fc4714b8b54f90b45d6914344835f94e8160c00151826000015183602001518460400151856060015186608001518760a001518860e0015160405180896001600160a01b03166001600160a01b031681526020018881526020018781526020018681526020018581526020018481526020018381526020018281526020019850505050505050505060405180910390a1600194505050505090565b6000610f1e83836040518060400160405280601a81526020017f536166654d6174683a206469766973696f6e206279207a65726f000000000000815250611995565b6000806116248484604051806060016040528060278152602001611b5660279139610e2d565b949350505050565b6000610f1e83836040518060400160405280601e81526020017f536166654d6174683a207375627472616374696f6e206f766572666c6f770000815250610e2d565b6001600160a01b0383166116b35760405162461bcd60e51b8152600401808060200182810382526025815260200180611bf26025913960400191505060405180910390fd5b6001600160a01b0382166116f85760405162461bcd60e51b8152600401808060200182810382526023815260200180611a496023913960400191505060405180910390fd5b61173b81604051806060016040528060268152602001611ad4602691396001600160a01b038616600090815260336020526040902054919063ffffffff610e2d16565b6001600160a01b038085166000908152603360205260408082209390935590841681522054611770908263ffffffff610ec416565b6001600160a01b0380841660008181526033602090815260409182902094909455805185815290519193928716927fddf252ad1be2c89b69c2b068fc378daa952ba7f163c4a11628f55a4df523b3ef92918290030190a3505050565b60006007607054111580156117df575060015b156117ec575060006105c4565b600061183160705460076040518060400160405280601b81526020017f4552413a205375627472616374696f6e2067617665206572726f720000000000815250610e2d565b905060006118768260076040518060400160405280601981526020017f455241203a204469766973696f6e2067617665206572726f7200000000000000815250611995565b90506009811161189a5761189181600163ffffffff610ec416565b925050506105c4565b600b9250505090565b6001600160a01b0382166118fe576040805162461bcd60e51b815260206004820152601f60248201527f45524332303a206d696e7420746f20746865207a65726f206164647265737300604482015290519081900360640190fd5b603554611911908263ffffffff610ec416565b6035556001600160a01b03821660009081526033602052604090205461193d908263ffffffff610ec416565b6001600160a01b03831660008181526033602090815260408083209490945583518581529351929391927fddf252ad1be2c89b69c2b068fc378daa952ba7f163c4a11628f55a4df523b3ef9281900390910190a35050565b600081836119e45760405162461bcd60e51b8152602060048201818152835160248401528351909283926044909101919085019080838360008315610e81578181015183820152602001610e69565b5060008385816119f057fe5b0495945050505050565b60405180610100016040528060008152602001600081526020016000815260200160008152602001600081526020016000815260200160006001600160a01b0316815260200160008152509056fe45524332303a207472616e7366657220746f20746865207a65726f206164647265737345524332303a206275726e20616d6f756e7420657863656564732062616c616e63654e6f7420612076616c696420537065656420436f6e74726f6c6c6572206164647265737345524332303a20617070726f766520746f20746865207a65726f206164647265737345524332303a207472616e7366657220616d6f756e7420657863656564732062616c616e63656275726e203a20546f74616c204e756d626572206f6620746f6b656e73206275726e742067617665206164646974696f6e206f766572666c6f774f6e6c792054726561737572792063616e206275726e205349474820546f6b656e73476574456c6170736564426c6f636b733a205375627472616374696f6e20556e646572666c6f7745524332303a207472616e7366657220616d6f756e74206578636565647320616c6c6f77616e63654d696e696e672063616e206f6e6c7920626520696e697469616c697a656420627920746865206f776e65722e45524332303a206275726e2066726f6d20746865207a65726f206164647265737345524332303a207472616e736665722066726f6d20746865207a65726f206164647265737345524332303a20617070726f76652066726f6d20746865207a65726f206164647265737345524332303a2064656372656173656420616c6c6f77616e63652062656c6f77207a65726fa265627a7a7231582087f1a90b5c8510fb2276a9bdd38f18fb910afa2e43c75667a504d57b5f95c45c64736f6c634300051100325349474820496e737472756d656e74203a20412066726565206469737472696275746f72206f662066757475726520657870656374656420616363756d756c617465642076616c7565206f662066696e616e6369616c20617373657473",
			"opcodes": "PUSH1 0x80 PUSH1 0x40 MSTORE PUSH9 0x1B1AE4D6E2EF500000 PUSH1 0x6D SSTORE PUSH1 0x64 PUSH1 0x72 SSTORE PUSH1 0x73 DUP1 SLOAD PUSH1 0xFF NOT AND SWAP1 SSTORE CALLVALUE DUP1 ISZERO PUSH3 0x2D JUMPI PUSH1 0x0 DUP1 REVERT JUMPDEST POP PUSH1 0x40 MLOAD DUP1 PUSH1 0x80 ADD PUSH1 0x40 MSTORE DUP1 PUSH1 0x5D DUP2 MSTORE PUSH1 0x20 ADD PUSH3 0x21E4 PUSH1 0x5D SWAP2 CODECOPY PUSH1 0x40 MLOAD DUP1 PUSH1 0x40 ADD PUSH1 0x40 MSTORE DUP1 PUSH1 0x4 DUP2 MSTORE PUSH1 0x20 ADD PUSH4 0xA6928E9 PUSH1 0xE3 SHL DUP2 MSTORE POP PUSH1 0x12 DUP3 PUSH1 0x68 SWAP1 DUP1 MLOAD SWAP1 PUSH1 0x20 ADD SWAP1 PUSH3 0x7F SWAP3 SWAP2 SWAP1 PUSH3 0x450 JUMP JUMPDEST POP DUP2 MLOAD PUSH3 0x95 SWAP1 PUSH1 0x69 SWAP1 PUSH1 0x20 DUP6 ADD SWAP1 PUSH3 0x450 JUMP JUMPDEST POP PUSH1 0x6A DUP1 SLOAD PUSH1 0xFF NOT AND PUSH1 0xFF SWAP3 SWAP1 SWAP3 AND SWAP2 SWAP1 SWAP2 OR SWAP1 SSTORE POP PUSH3 0xB7 SWAP1 POP PUSH3 0x2DE JUMP JUMPDEST PUSH1 0x6A DUP1 SLOAD PUSH2 0x100 PUSH1 0x1 PUSH1 0xA8 SHL SUB NOT AND PUSH2 0x100 PUSH1 0x1 PUSH1 0x1 PUSH1 0xA0 SHL SUB SWAP4 DUP5 AND DUP2 MUL SWAP2 SWAP1 SWAP2 OR SWAP2 DUP3 SWAP1 SSTORE PUSH3 0xF8 SWAP3 SWAP2 DIV AND PUSH11 0x422CA8B0A00A425000000 PUSH3 0x2E3 JUMP JUMPDEST PUSH3 0x102 PUSH3 0x4D5 JUMP JUMPDEST PUSH1 0x40 MLOAD DUP1 PUSH2 0x100 ADD PUSH1 0x40 MSTORE DUP1 PUSH1 0x70 SLOAD DUP2 MSTORE PUSH1 0x20 ADD PUSH1 0x71 SLOAD DUP2 MSTORE PUSH1 0x20 ADD PUSH1 0x0 DUP2 MSTORE PUSH1 0x20 ADD PUSH11 0x422CA8B0A00A425000000 DUP2 MSTORE PUSH1 0x20 ADD PUSH1 0x0 DUP2 MSTORE PUSH1 0x20 ADD PUSH3 0x14D PUSH3 0x3E8 PUSH1 0x20 SHL PUSH1 0x20 SHR JUMP JUMPDEST DUP2 MSTORE CALLER PUSH1 0x20 DUP1 DUP4 ADD SWAP2 SWAP1 SWAP2 MSTORE NUMBER PUSH1 0x40 SWAP3 DUP4 ADD MSTORE PUSH1 0x6F DUP1 SLOAD PUSH1 0x1 DUP2 ADD DUP3 SSTORE PUSH1 0x0 SWAP2 SWAP1 SWAP2 MSTORE DUP4 MLOAD PUSH32 0x39F2BABE526038520877FC7C33D81ACCF578AF4A06C5FA6B0D038CAE36E12711 PUSH1 0x8 SWAP1 SWAP3 MUL SWAP2 DUP3 ADD SSTORE SWAP1 DUP4 ADD MLOAD PUSH32 0x39F2BABE526038520877FC7C33D81ACCF578AF4A06C5FA6B0D038CAE36E12712 DUP3 ADD SSTORE SWAP1 DUP3 ADD MLOAD PUSH32 0x39F2BABE526038520877FC7C33D81ACCF578AF4A06C5FA6B0D038CAE36E12713 DUP3 ADD SSTORE PUSH1 0x60 DUP3 ADD MLOAD PUSH32 0x39F2BABE526038520877FC7C33D81ACCF578AF4A06C5FA6B0D038CAE36E12714 DUP3 ADD SSTORE PUSH1 0x80 DUP3 ADD MLOAD PUSH32 0x39F2BABE526038520877FC7C33D81ACCF578AF4A06C5FA6B0D038CAE36E12715 DUP3 ADD SSTORE PUSH1 0xA0 DUP3 ADD MLOAD PUSH32 0x39F2BABE526038520877FC7C33D81ACCF578AF4A06C5FA6B0D038CAE36E12716 DUP3 ADD SSTORE PUSH1 0xC0 DUP3 ADD MLOAD PUSH32 0x39F2BABE526038520877FC7C33D81ACCF578AF4A06C5FA6B0D038CAE36E12717 DUP3 ADD DUP1 SLOAD PUSH1 0x1 PUSH1 0x1 PUSH1 0xA0 SHL SUB NOT AND PUSH1 0x1 PUSH1 0x1 PUSH1 0xA0 SHL SUB SWAP1 SWAP3 AND SWAP2 SWAP1 SWAP2 OR SWAP1 SSTORE PUSH1 0xE0 SWAP1 SWAP2 ADD MLOAD PUSH32 0x39F2BABE526038520877FC7C33D81ACCF578AF4A06C5FA6B0D038CAE36E12718 SWAP1 SWAP2 ADD SSTORE POP PUSH3 0x540 JUMP JUMPDEST CALLER JUMPDEST SWAP1 JUMP JUMPDEST PUSH1 0x1 PUSH1 0x1 PUSH1 0xA0 SHL SUB DUP3 AND PUSH3 0x33F JUMPI PUSH1 0x40 DUP1 MLOAD PUSH3 0x461BCD PUSH1 0xE5 SHL DUP2 MSTORE PUSH1 0x20 PUSH1 0x4 DUP3 ADD MSTORE PUSH1 0x1F PUSH1 0x24 DUP3 ADD MSTORE PUSH32 0x45524332303A206D696E7420746F20746865207A65726F206164647265737300 PUSH1 0x44 DUP3 ADD MSTORE SWAP1 MLOAD SWAP1 DUP2 SWAP1 SUB PUSH1 0x64 ADD SWAP1 REVERT JUMPDEST PUSH3 0x35B DUP2 PUSH1 0x35 SLOAD PUSH3 0x3EE PUSH1 0x20 SHL PUSH3 0xEC4 OR SWAP1 SWAP2 SWAP1 PUSH1 0x20 SHR JUMP JUMPDEST PUSH1 0x35 SSTORE PUSH1 0x1 PUSH1 0x1 PUSH1 0xA0 SHL SUB DUP3 AND PUSH1 0x0 SWAP1 DUP2 MSTORE PUSH1 0x33 PUSH1 0x20 SWAP1 DUP2 MSTORE PUSH1 0x40 SWAP1 SWAP2 KECCAK256 SLOAD PUSH3 0x390 SWAP2 DUP4 SWAP1 PUSH3 0xEC4 PUSH3 0x3EE DUP3 SHL OR SWAP1 SHR JUMP JUMPDEST PUSH1 0x1 PUSH1 0x1 PUSH1 0xA0 SHL SUB DUP4 AND PUSH1 0x0 DUP2 DUP2 MSTORE PUSH1 0x33 PUSH1 0x20 SWAP1 DUP2 MSTORE PUSH1 0x40 DUP1 DUP4 KECCAK256 SWAP5 SWAP1 SWAP5 SSTORE DUP4 MLOAD DUP6 DUP2 MSTORE SWAP4 MLOAD SWAP3 SWAP4 SWAP2 SWAP3 PUSH32 0xDDF252AD1BE2C89B69C2B068FC378DAA952BA7F163C4A11628F55A4DF523B3EF SWAP3 DUP2 SWAP1 SUB SWAP1 SWAP2 ADD SWAP1 LOG3 POP POP JUMP JUMPDEST PUSH1 0x35 SLOAD SWAP1 JUMP JUMPDEST PUSH1 0x0 DUP3 DUP3 ADD DUP4 DUP2 LT ISZERO PUSH3 0x449 JUMPI PUSH1 0x40 DUP1 MLOAD PUSH3 0x461BCD PUSH1 0xE5 SHL DUP2 MSTORE PUSH1 0x20 PUSH1 0x4 DUP3 ADD MSTORE PUSH1 0x1B PUSH1 0x24 DUP3 ADD MSTORE PUSH32 0x536166654D6174683A206164646974696F6E206F766572666C6F770000000000 PUSH1 0x44 DUP3 ADD MSTORE SWAP1 MLOAD SWAP1 DUP2 SWAP1 SUB PUSH1 0x64 ADD SWAP1 REVERT JUMPDEST SWAP4 SWAP3 POP POP POP JUMP JUMPDEST DUP3 DUP1 SLOAD PUSH1 0x1 DUP2 PUSH1 0x1 AND ISZERO PUSH2 0x100 MUL SUB AND PUSH1 0x2 SWAP1 DIV SWAP1 PUSH1 0x0 MSTORE PUSH1 0x20 PUSH1 0x0 KECCAK256 SWAP1 PUSH1 0x1F ADD PUSH1 0x20 SWAP1 DIV DUP2 ADD SWAP3 DUP3 PUSH1 0x1F LT PUSH3 0x493 JUMPI DUP1 MLOAD PUSH1 0xFF NOT AND DUP4 DUP1 ADD OR DUP6 SSTORE PUSH3 0x4C3 JUMP JUMPDEST DUP3 DUP1 ADD PUSH1 0x1 ADD DUP6 SSTORE DUP3 ISZERO PUSH3 0x4C3 JUMPI SWAP2 DUP3 ADD JUMPDEST DUP3 DUP2 GT ISZERO PUSH3 0x4C3 JUMPI DUP3 MLOAD DUP3 SSTORE SWAP2 PUSH1 0x20 ADD SWAP2 SWAP1 PUSH1 0x1 ADD SWAP1 PUSH3 0x4A6 JUMP JUMPDEST POP PUSH3 0x4D1 SWAP3 SWAP2 POP PUSH3 0x523 JUMP JUMPDEST POP SWAP1 JUMP JUMPDEST PUSH1 0x40 MLOAD DUP1 PUSH2 0x100 ADD PUSH1 0x40 MSTORE DUP1 PUSH1 0x0 DUP2 MSTORE PUSH1 0x20 ADD PUSH1 0x0 DUP2 MSTORE PUSH1 0x20 ADD PUSH1 0x0 DUP2 MSTORE PUSH1 0x20 ADD PUSH1 0x0 DUP2 MSTORE PUSH1 0x20 ADD PUSH1 0x0 DUP2 MSTORE PUSH1 0x20 ADD PUSH1 0x0 DUP2 MSTORE PUSH1 0x20 ADD PUSH1 0x0 PUSH1 0x1 PUSH1 0x1 PUSH1 0xA0 SHL SUB AND DUP2 MSTORE PUSH1 0x20 ADD PUSH1 0x0 DUP2 MSTORE POP SWAP1 JUMP JUMPDEST PUSH3 0x2E0 SWAP2 SWAP1 JUMPDEST DUP1 DUP3 GT ISZERO PUSH3 0x4D1 JUMPI PUSH1 0x0 DUP2 SSTORE PUSH1 0x1 ADD PUSH3 0x52A JUMP JUMPDEST PUSH2 0x1C94 DUP1 PUSH3 0x550 PUSH1 0x0 CODECOPY PUSH1 0x0 RETURN INVALID PUSH1 0x80 PUSH1 0x40 MSTORE CALLVALUE DUP1 ISZERO PUSH2 0x10 JUMPI PUSH1 0x0 DUP1 REVERT JUMPDEST POP PUSH1 0x4 CALLDATASIZE LT PUSH2 0x1A9 JUMPI PUSH1 0x0 CALLDATALOAD PUSH1 0xE0 SHR DUP1 PUSH4 0x5C26A643 GT PUSH2 0xF9 JUMPI DUP1 PUSH4 0xBE26ED7F GT PUSH2 0x97 JUMPI DUP1 PUSH4 0xDD62ED3E GT PUSH2 0x71 JUMPI DUP1 PUSH4 0xDD62ED3E EQ PUSH2 0x4EA JUMPI DUP1 PUSH4 0xF257C080 EQ PUSH2 0x518 JUMPI DUP1 PUSH4 0xFA7A11E2 EQ PUSH2 0x520 JUMPI DUP1 PUSH4 0xFC399A0D EQ PUSH2 0x528 JUMPI PUSH2 0x1A9 JUMP JUMPDEST DUP1 PUSH4 0xBE26ED7F EQ PUSH2 0x4D2 JUMPI DUP1 PUSH4 0xD250B6CB EQ PUSH2 0x4DA JUMPI DUP1 PUSH4 0xDAE0E05C EQ PUSH2 0x4E2 JUMPI PUSH2 0x1A9 JUMP JUMPDEST DUP1 PUSH4 0x798907C1 GT PUSH2 0xD3 JUMPI DUP1 PUSH4 0x798907C1 EQ PUSH2 0x46A JUMPI DUP1 PUSH4 0x95D89B41 EQ PUSH2 0x472 JUMPI DUP1 PUSH4 0xA457C2D7 EQ PUSH2 0x47A JUMPI DUP1 PUSH4 0xA9059CBB EQ PUSH2 0x4A6 JUMPI PUSH2 0x1A9 JUMP JUMPDEST DUP1 PUSH4 0x5C26A643 EQ PUSH2 0x40E JUMPI DUP1 PUSH4 0x5F103DC8 EQ PUSH2 0x43C JUMPI DUP1 PUSH4 0x70A08231 EQ PUSH2 0x444 JUMPI PUSH2 0x1A9 JUMP JUMPDEST DUP1 PUSH4 0x2D5A9DB0 GT PUSH2 0x166 JUMPI DUP1 PUSH4 0x39509351 GT PUSH2 0x140 JUMPI DUP1 PUSH4 0x39509351 EQ PUSH2 0x399 JUMPI DUP1 PUSH4 0x3B19E84A EQ PUSH2 0x3C5 JUMPI DUP1 PUSH4 0x42966C68 EQ PUSH2 0x3E9 JUMPI DUP1 PUSH4 0x4F9D3FD5 EQ PUSH2 0x406 JUMPI PUSH2 0x1A9 JUMP JUMPDEST DUP1 PUSH4 0x2D5A9DB0 EQ PUSH2 0x315 JUMPI DUP1 PUSH4 0x313CE567 EQ PUSH2 0x373 JUMPI DUP1 PUSH4 0x33C42FE0 EQ PUSH2 0x391 JUMPI PUSH2 0x1A9 JUMP JUMPDEST DUP1 PUSH4 0x6FDDE03 EQ PUSH2 0x1AE JUMPI DUP1 PUSH4 0x95EA7B3 EQ PUSH2 0x22B JUMPI DUP1 PUSH4 0x1384B219 EQ PUSH2 0x26B JUMPI DUP1 PUSH4 0x18160DDD EQ PUSH2 0x285 JUMPI DUP1 PUSH4 0x1A694701 EQ PUSH2 0x28D JUMPI DUP1 PUSH4 0x23B872DD EQ PUSH2 0x2DF JUMPI JUMPDEST PUSH1 0x0 DUP1 REVERT JUMPDEST PUSH2 0x1B6 PUSH2 0x530 JUMP JUMPDEST PUSH1 0x40 DUP1 MLOAD PUSH1 0x20 DUP1 DUP3 MSTORE DUP4 MLOAD DUP2 DUP4 ADD MSTORE DUP4 MLOAD SWAP2 SWAP3 DUP4 SWAP3 SWAP1 DUP4 ADD SWAP2 DUP6 ADD SWAP1 DUP1 DUP4 DUP4 PUSH1 0x0 JUMPDEST DUP4 DUP2 LT ISZERO PUSH2 0x1F0 JUMPI DUP2 DUP2 ADD MLOAD DUP4 DUP3 ADD MSTORE PUSH1 0x20 ADD PUSH2 0x1D8 JUMP JUMPDEST POP POP POP POP SWAP1 POP SWAP1 DUP2 ADD SWAP1 PUSH1 0x1F AND DUP1 ISZERO PUSH2 0x21D JUMPI DUP1 DUP3 SUB DUP1 MLOAD PUSH1 0x1 DUP4 PUSH1 0x20 SUB PUSH2 0x100 EXP SUB NOT AND DUP2 MSTORE PUSH1 0x20 ADD SWAP2 POP JUMPDEST POP SWAP3 POP POP POP PUSH1 0x40 MLOAD DUP1 SWAP2 SUB SWAP1 RETURN JUMPDEST PUSH2 0x257 PUSH1 0x4 DUP1 CALLDATASIZE SUB PUSH1 0x40 DUP2 LT ISZERO PUSH2 0x241 JUMPI PUSH1 0x0 DUP1 REVERT JUMPDEST POP PUSH1 0x1 PUSH1 0x1 PUSH1 0xA0 SHL SUB DUP2 CALLDATALOAD AND SWAP1 PUSH1 0x20 ADD CALLDATALOAD PUSH2 0x5C7 JUMP JUMPDEST PUSH1 0x40 DUP1 MLOAD SWAP2 ISZERO ISZERO DUP3 MSTORE MLOAD SWAP1 DUP2 SWAP1 SUB PUSH1 0x20 ADD SWAP1 RETURN JUMPDEST PUSH2 0x273 PUSH2 0x5E4 JUMP JUMPDEST PUSH1 0x40 DUP1 MLOAD SWAP2 DUP3 MSTORE MLOAD SWAP1 DUP2 SWAP1 SUB PUSH1 0x20 ADD SWAP1 RETURN JUMPDEST PUSH2 0x273 PUSH2 0x60E JUMP JUMPDEST PUSH2 0x295 PUSH2 0x614 JUMP JUMPDEST PUSH1 0x40 DUP1 MLOAD SWAP9 DUP10 MSTORE PUSH1 0x20 DUP10 ADD SWAP8 SWAP1 SWAP8 MSTORE DUP8 DUP8 ADD SWAP6 SWAP1 SWAP6 MSTORE PUSH1 0x60 DUP8 ADD SWAP4 SWAP1 SWAP4 MSTORE PUSH1 0x80 DUP7 ADD SWAP2 SWAP1 SWAP2 MSTORE PUSH1 0xA0 DUP6 ADD MSTORE PUSH1 0x1 PUSH1 0x1 PUSH1 0xA0 SHL SUB AND PUSH1 0xC0 DUP5 ADD MSTORE PUSH1 0xE0 DUP4 ADD MSTORE MLOAD SWAP1 DUP2 SWAP1 SUB PUSH2 0x100 ADD SWAP1 RETURN JUMPDEST PUSH2 0x257 PUSH1 0x4 DUP1 CALLDATASIZE SUB PUSH1 0x60 DUP2 LT ISZERO PUSH2 0x2F5 JUMPI PUSH1 0x0 DUP1 REVERT JUMPDEST POP PUSH1 0x1 PUSH1 0x1 PUSH1 0xA0 SHL SUB DUP2 CALLDATALOAD DUP2 AND SWAP2 PUSH1 0x20 DUP2 ADD CALLDATALOAD SWAP1 SWAP2 AND SWAP1 PUSH1 0x40 ADD CALLDATALOAD PUSH2 0x62F JUMP JUMPDEST PUSH2 0x332 PUSH1 0x4 DUP1 CALLDATASIZE SUB PUSH1 0x20 DUP2 LT ISZERO PUSH2 0x32B JUMPI PUSH1 0x0 DUP1 REVERT JUMPDEST POP CALLDATALOAD PUSH2 0x6BC JUMP JUMPDEST PUSH1 0x40 DUP1 MLOAD SWAP8 DUP9 MSTORE PUSH1 0x20 DUP9 ADD SWAP7 SWAP1 SWAP7 MSTORE DUP7 DUP7 ADD SWAP5 SWAP1 SWAP5 MSTORE PUSH1 0x60 DUP7 ADD SWAP3 SWAP1 SWAP3 MSTORE PUSH1 0x80 DUP6 ADD MSTORE PUSH1 0x1 PUSH1 0x1 PUSH1 0xA0 SHL SUB AND PUSH1 0xA0 DUP5 ADD MSTORE PUSH1 0xC0 DUP4 ADD MSTORE MLOAD SWAP1 DUP2 SWAP1 SUB PUSH1 0xE0 ADD SWAP1 RETURN JUMPDEST PUSH2 0x37B PUSH2 0x7CC JUMP JUMPDEST PUSH1 0x40 DUP1 MLOAD PUSH1 0xFF SWAP1 SWAP3 AND DUP3 MSTORE MLOAD SWAP1 DUP2 SWAP1 SUB PUSH1 0x20 ADD SWAP1 RETURN JUMPDEST PUSH2 0x273 PUSH2 0x7D5 JUMP JUMPDEST PUSH2 0x257 PUSH1 0x4 DUP1 CALLDATASIZE SUB PUSH1 0x40 DUP2 LT ISZERO PUSH2 0x3AF JUMPI PUSH1 0x0 DUP1 REVERT JUMPDEST POP PUSH1 0x1 PUSH1 0x1 PUSH1 0xA0 SHL SUB DUP2 CALLDATALOAD AND SWAP1 PUSH1 0x20 ADD CALLDATALOAD PUSH2 0x7DA JUMP JUMPDEST PUSH2 0x3CD PUSH2 0x82E JUMP JUMPDEST PUSH1 0x40 DUP1 MLOAD PUSH1 0x1 PUSH1 0x1 PUSH1 0xA0 SHL SUB SWAP1 SWAP3 AND DUP3 MSTORE MLOAD SWAP1 DUP2 SWAP1 SUB PUSH1 0x20 ADD SWAP1 RETURN JUMPDEST PUSH2 0x257 PUSH1 0x4 DUP1 CALLDATASIZE SUB PUSH1 0x20 DUP2 LT ISZERO PUSH2 0x3FF JUMPI PUSH1 0x0 DUP1 REVERT JUMPDEST POP CALLDATALOAD PUSH2 0x83D JUMP JUMPDEST PUSH2 0x3CD PUSH2 0x924 JUMP JUMPDEST PUSH2 0x257 PUSH1 0x4 DUP1 CALLDATASIZE SUB PUSH1 0x40 DUP2 LT ISZERO PUSH2 0x424 JUMPI PUSH1 0x0 DUP1 REVERT JUMPDEST POP PUSH1 0x1 PUSH1 0x1 PUSH1 0xA0 SHL SUB DUP2 CALLDATALOAD DUP2 AND SWAP2 PUSH1 0x20 ADD CALLDATALOAD AND PUSH2 0x933 JUMP JUMPDEST PUSH2 0x273 PUSH2 0xAD0 JUMP JUMPDEST PUSH2 0x273 PUSH1 0x4 DUP1 CALLDATASIZE SUB PUSH1 0x20 DUP2 LT ISZERO PUSH2 0x45A JUMPI PUSH1 0x0 DUP1 REVERT JUMPDEST POP CALLDATALOAD PUSH1 0x1 PUSH1 0x1 PUSH1 0xA0 SHL SUB AND PUSH2 0xAD5 JUMP JUMPDEST PUSH2 0x257 PUSH2 0xAF0 JUMP JUMPDEST PUSH2 0x1B6 PUSH2 0xB17 JUMP JUMPDEST PUSH2 0x257 PUSH1 0x4 DUP1 CALLDATASIZE SUB PUSH1 0x40 DUP2 LT ISZERO PUSH2 0x490 JUMPI PUSH1 0x0 DUP1 REVERT JUMPDEST POP PUSH1 0x1 PUSH1 0x1 PUSH1 0xA0 SHL SUB DUP2 CALLDATALOAD AND SWAP1 PUSH1 0x20 ADD CALLDATALOAD PUSH2 0xB78 JUMP JUMPDEST PUSH2 0x257 PUSH1 0x4 DUP1 CALLDATASIZE SUB PUSH1 0x40 DUP2 LT ISZERO PUSH2 0x4BC JUMPI PUSH1 0x0 DUP1 REVERT JUMPDEST POP PUSH1 0x1 PUSH1 0x1 PUSH1 0xA0 SHL SUB DUP2 CALLDATALOAD AND SWAP1 PUSH1 0x20 ADD CALLDATALOAD PUSH2 0xBE6 JUMP JUMPDEST PUSH2 0x273 PUSH2 0xBFA JUMP JUMPDEST PUSH2 0x273 PUSH2 0xC00 JUMP JUMPDEST PUSH2 0x273 PUSH2 0xC06 JUMP JUMPDEST PUSH2 0x273 PUSH1 0x4 DUP1 CALLDATASIZE SUB PUSH1 0x40 DUP2 LT ISZERO PUSH2 0x500 JUMPI PUSH1 0x0 DUP1 REVERT JUMPDEST POP PUSH1 0x1 PUSH1 0x1 PUSH1 0xA0 SHL SUB DUP2 CALLDATALOAD DUP2 AND SWAP2 PUSH1 0x20 ADD CALLDATALOAD AND PUSH2 0xC69 JUMP JUMPDEST PUSH2 0x273 PUSH2 0xC94 JUMP JUMPDEST PUSH2 0x273 PUSH2 0xC9A JUMP JUMPDEST PUSH2 0x257 PUSH2 0xCF7 JUMP JUMPDEST PUSH1 0x68 DUP1 SLOAD PUSH1 0x40 DUP1 MLOAD PUSH1 0x20 PUSH1 0x1F PUSH1 0x2 PUSH1 0x0 NOT PUSH2 0x100 PUSH1 0x1 DUP9 AND ISZERO MUL ADD SWAP1 SWAP6 AND SWAP5 SWAP1 SWAP5 DIV SWAP4 DUP5 ADD DUP2 SWAP1 DIV DUP2 MUL DUP3 ADD DUP2 ADD SWAP1 SWAP3 MSTORE DUP3 DUP2 MSTORE PUSH1 0x60 SWAP4 SWAP1 SWAP3 SWAP1 SWAP2 DUP4 ADD DUP3 DUP3 DUP1 ISZERO PUSH2 0x5BC JUMPI DUP1 PUSH1 0x1F LT PUSH2 0x591 JUMPI PUSH2 0x100 DUP1 DUP4 SLOAD DIV MUL DUP4 MSTORE SWAP2 PUSH1 0x20 ADD SWAP2 PUSH2 0x5BC JUMP JUMPDEST DUP3 ADD SWAP2 SWAP1 PUSH1 0x0 MSTORE PUSH1 0x20 PUSH1 0x0 KECCAK256 SWAP1 JUMPDEST DUP2 SLOAD DUP2 MSTORE SWAP1 PUSH1 0x1 ADD SWAP1 PUSH1 0x20 ADD DUP1 DUP4 GT PUSH2 0x59F JUMPI DUP3 SWAP1 SUB PUSH1 0x1F AND DUP3 ADD SWAP2 JUMPDEST POP POP POP POP POP SWAP1 POP JUMPDEST SWAP1 JUMP JUMPDEST PUSH1 0x0 PUSH2 0x5DB PUSH2 0x5D4 PUSH2 0xD16 JUMP JUMPDEST DUP5 DUP5 PUSH2 0xD1A JUMP JUMPDEST POP PUSH1 0x1 SWAP3 SWAP2 POP POP JUMP JUMPDEST PUSH1 0x0 PUSH1 0x4D PUSH1 0x70 SLOAD GT DUP1 PUSH2 0x5FA JUMPI POP PUSH1 0x73 SLOAD PUSH1 0xFF AND ISZERO JUMPDEST ISZERO PUSH2 0x607 JUMPI POP PUSH1 0x0 PUSH2 0x5C4 JUMP JUMPDEST POP PUSH1 0x72 SLOAD SWAP1 JUMP JUMPDEST PUSH1 0x35 SLOAD SWAP1 JUMP JUMPDEST PUSH1 0x6F DUP1 SLOAD PUSH1 0x0 SWAP2 DUP3 SWAP2 DUP3 SWAP2 DUP3 SWAP2 DUP3 SWAP2 DUP3 SWAP2 DUP3 SWAP2 DUP3 SWAP2 SWAP1 DUP2 SWAP1 DUP2 INVALID JUMPDEST PUSH1 0x0 PUSH2 0x63C DUP5 DUP5 DUP5 PUSH2 0xE06 JUMP JUMPDEST PUSH2 0x6B2 DUP5 PUSH2 0x648 PUSH2 0xD16 JUMP JUMPDEST PUSH2 0x6AD DUP6 PUSH1 0x40 MLOAD DUP1 PUSH1 0x60 ADD PUSH1 0x40 MSTORE DUP1 PUSH1 0x28 DUP2 MSTORE PUSH1 0x20 ADD PUSH2 0x1B7D PUSH1 0x28 SWAP2 CODECOPY PUSH1 0x1 PUSH1 0x1 PUSH1 0xA0 SHL SUB DUP11 AND PUSH1 0x0 SWAP1 DUP2 MSTORE PUSH1 0x34 PUSH1 0x20 MSTORE PUSH1 0x40 DUP2 KECCAK256 SWAP1 PUSH2 0x686 PUSH2 0xD16 JUMP JUMPDEST PUSH1 0x1 PUSH1 0x1 PUSH1 0xA0 SHL SUB AND DUP2 MSTORE PUSH1 0x20 DUP2 ADD SWAP2 SWAP1 SWAP2 MSTORE PUSH1 0x40 ADD PUSH1 0x0 KECCAK256 SLOAD SWAP2 SWAP1 PUSH4 0xFFFFFFFF PUSH2 0xE2D AND JUMP JUMPDEST PUSH2 0xD1A JUMP JUMPDEST POP PUSH1 0x1 SWAP4 SWAP3 POP POP POP JUMP JUMPDEST PUSH1 0x0 DUP1 PUSH1 0x0 DUP1 PUSH1 0x0 DUP1 PUSH1 0x0 PUSH1 0x6F DUP9 DUP2 SLOAD DUP2 LT PUSH2 0x6D4 JUMPI INVALID JUMPDEST SWAP1 PUSH1 0x0 MSTORE PUSH1 0x20 PUSH1 0x0 KECCAK256 SWAP1 PUSH1 0x8 MUL ADD PUSH1 0x1 ADD SLOAD PUSH1 0x6F DUP10 DUP2 SLOAD DUP2 LT PUSH2 0x6F3 JUMPI INVALID JUMPDEST SWAP1 PUSH1 0x0 MSTORE PUSH1 0x20 PUSH1 0x0 KECCAK256 SWAP1 PUSH1 0x8 MUL ADD PUSH1 0x2 ADD SLOAD PUSH1 0x6F DUP11 DUP2 SLOAD DUP2 LT PUSH2 0x712 JUMPI INVALID JUMPDEST SWAP1 PUSH1 0x0 MSTORE PUSH1 0x20 PUSH1 0x0 KECCAK256 SWAP1 PUSH1 0x8 MUL ADD PUSH1 0x3 ADD SLOAD PUSH1 0x6F DUP12 DUP2 SLOAD DUP2 LT PUSH2 0x731 JUMPI INVALID JUMPDEST SWAP1 PUSH1 0x0 MSTORE PUSH1 0x20 PUSH1 0x0 KECCAK256 SWAP1 PUSH1 0x8 MUL ADD PUSH1 0x4 ADD SLOAD PUSH1 0x6F DUP13 DUP2 SLOAD DUP2 LT PUSH2 0x750 JUMPI INVALID JUMPDEST SWAP1 PUSH1 0x0 MSTORE PUSH1 0x20 PUSH1 0x0 KECCAK256 SWAP1 PUSH1 0x8 MUL ADD PUSH1 0x5 ADD SLOAD PUSH1 0x6F DUP14 DUP2 SLOAD DUP2 LT PUSH2 0x76F JUMPI INVALID JUMPDEST SWAP1 PUSH1 0x0 MSTORE PUSH1 0x20 PUSH1 0x0 KECCAK256 SWAP1 PUSH1 0x8 MUL ADD PUSH1 0x6 ADD PUSH1 0x0 SWAP1 SLOAD SWAP1 PUSH2 0x100 EXP SWAP1 DIV PUSH1 0x1 PUSH1 0x1 PUSH1 0xA0 SHL SUB AND PUSH1 0x6F DUP15 DUP2 SLOAD DUP2 LT PUSH2 0x7A1 JUMPI INVALID JUMPDEST SWAP1 PUSH1 0x0 MSTORE PUSH1 0x20 PUSH1 0x0 KECCAK256 SWAP1 PUSH1 0x8 MUL ADD PUSH1 0x7 ADD SLOAD SWAP7 POP SWAP7 POP SWAP7 POP SWAP7 POP SWAP7 POP SWAP7 POP SWAP7 POP SWAP2 SWAP4 SWAP6 SWAP8 SWAP1 SWAP3 SWAP5 SWAP7 POP JUMP JUMPDEST PUSH1 0x6A SLOAD PUSH1 0xFF AND SWAP1 JUMP JUMPDEST PUSH1 0x4D DUP2 JUMP JUMPDEST PUSH1 0x0 PUSH2 0x5DB PUSH2 0x7E7 PUSH2 0xD16 JUMP JUMPDEST DUP5 PUSH2 0x6AD DUP6 PUSH1 0x34 PUSH1 0x0 PUSH2 0x7F8 PUSH2 0xD16 JUMP JUMPDEST PUSH1 0x1 PUSH1 0x1 PUSH1 0xA0 SHL SUB SWAP1 DUP2 AND DUP3 MSTORE PUSH1 0x20 DUP1 DUP4 ADD SWAP4 SWAP1 SWAP4 MSTORE PUSH1 0x40 SWAP2 DUP3 ADD PUSH1 0x0 SWAP1 DUP2 KECCAK256 SWAP2 DUP13 AND DUP2 MSTORE SWAP3 MSTORE SWAP1 KECCAK256 SLOAD SWAP1 PUSH4 0xFFFFFFFF PUSH2 0xEC4 AND JUMP JUMPDEST PUSH1 0x6B SLOAD PUSH1 0x1 PUSH1 0x1 PUSH1 0xA0 SHL SUB AND SWAP1 JUMP JUMPDEST PUSH1 0x6B SLOAD PUSH1 0x0 SWAP1 PUSH1 0x1 PUSH1 0x1 PUSH1 0xA0 SHL SUB AND CALLER EQ PUSH2 0x889 JUMPI PUSH1 0x40 MLOAD PUSH3 0x461BCD PUSH1 0xE5 SHL DUP2 MSTORE PUSH1 0x4 ADD DUP1 DUP1 PUSH1 0x20 ADD DUP3 DUP2 SUB DUP3 MSTORE PUSH1 0x22 DUP2 MSTORE PUSH1 0x20 ADD DUP1 PUSH2 0x1B34 PUSH1 0x22 SWAP2 CODECOPY PUSH1 0x40 ADD SWAP2 POP POP PUSH1 0x40 MLOAD DUP1 SWAP2 SUB SWAP1 REVERT JUMPDEST PUSH1 0x6B SLOAD PUSH2 0x89F SWAP1 PUSH1 0x1 PUSH1 0x1 PUSH1 0xA0 SHL SUB AND DUP4 PUSH2 0xF25 JUMP JUMPDEST PUSH1 0x0 PUSH2 0x8C6 PUSH1 0x6E SLOAD DUP5 PUSH1 0x40 MLOAD DUP1 PUSH1 0x60 ADD PUSH1 0x40 MSTORE DUP1 PUSH1 0x3A DUP2 MSTORE PUSH1 0x20 ADD PUSH2 0x1AFA PUSH1 0x3A SWAP2 CODECOPY PUSH2 0x1021 JUMP JUMPDEST PUSH1 0x6E DUP2 SWAP1 SSTORE SWAP1 POP PUSH32 0xA97F27F366C18C45537A14AF9D132390CF44128F0DADBF4AEF7F020B1218CD55 DUP4 DUP3 PUSH2 0x8F8 PUSH2 0x60E JUMP JUMPDEST PUSH1 0x40 DUP1 MLOAD SWAP4 DUP5 MSTORE PUSH1 0x20 DUP5 ADD SWAP3 SWAP1 SWAP3 MSTORE DUP3 DUP3 ADD MSTORE NUMBER PUSH1 0x60 DUP4 ADD MSTORE MLOAD SWAP1 DUP2 SWAP1 SUB PUSH1 0x80 ADD SWAP1 LOG1 POP PUSH1 0x1 SWAP3 SWAP2 POP POP JUMP JUMPDEST PUSH1 0x6C SLOAD PUSH1 0x1 PUSH1 0x1 PUSH1 0xA0 SHL SUB AND SWAP1 JUMP JUMPDEST PUSH1 0x6A SLOAD PUSH1 0x0 SWAP1 PUSH2 0x100 SWAP1 DIV PUSH1 0x1 PUSH1 0x1 PUSH1 0xA0 SHL SUB AND PUSH2 0x94F PUSH2 0xD16 JUMP JUMPDEST PUSH1 0x1 PUSH1 0x1 PUSH1 0xA0 SHL SUB AND EQ PUSH2 0x994 JUMPI PUSH1 0x40 MLOAD PUSH3 0x461BCD PUSH1 0xE5 SHL DUP2 MSTORE PUSH1 0x4 ADD DUP1 DUP1 PUSH1 0x20 ADD DUP3 DUP2 SUB DUP3 MSTORE PUSH1 0x2C DUP2 MSTORE PUSH1 0x20 ADD DUP1 PUSH2 0x1BA5 PUSH1 0x2C SWAP2 CODECOPY PUSH1 0x40 ADD SWAP2 POP POP PUSH1 0x40 MLOAD DUP1 SWAP2 SUB SWAP1 REVERT JUMPDEST PUSH1 0x1 PUSH1 0x1 PUSH1 0xA0 SHL SUB DUP4 AND PUSH2 0x9D9 JUMPI PUSH1 0x40 MLOAD PUSH3 0x461BCD PUSH1 0xE5 SHL DUP2 MSTORE PUSH1 0x4 ADD DUP1 DUP1 PUSH1 0x20 ADD DUP3 DUP2 SUB DUP3 MSTORE PUSH1 0x24 DUP2 MSTORE PUSH1 0x20 ADD DUP1 PUSH2 0x1A8E PUSH1 0x24 SWAP2 CODECOPY PUSH1 0x40 ADD SWAP2 POP POP PUSH1 0x40 MLOAD DUP1 SWAP2 SUB SWAP1 REVERT JUMPDEST PUSH1 0x1 PUSH1 0x1 PUSH1 0xA0 SHL SUB DUP3 AND PUSH2 0xA34 JUMPI PUSH1 0x40 DUP1 MLOAD PUSH3 0x461BCD PUSH1 0xE5 SHL DUP2 MSTORE PUSH1 0x20 PUSH1 0x4 DUP3 ADD MSTORE PUSH1 0x1C PUSH1 0x24 DUP3 ADD MSTORE PUSH32 0x4E6F7420612076616C6964205472656173757279206164647265737300000000 PUSH1 0x44 DUP3 ADD MSTORE SWAP1 MLOAD SWAP1 DUP2 SWAP1 SUB PUSH1 0x64 ADD SWAP1 REVERT JUMPDEST PUSH1 0x6C DUP1 SLOAD PUSH1 0x1 PUSH1 0x1 PUSH1 0xA0 SHL SUB DUP1 DUP7 AND PUSH1 0x1 PUSH1 0x1 PUSH1 0xA0 SHL SUB NOT SWAP3 DUP4 AND OR SWAP1 SWAP3 SSTORE PUSH1 0x6B DUP1 SLOAD SWAP3 DUP6 AND SWAP3 SWAP1 SWAP2 AND SWAP2 SWAP1 SWAP2 OR SWAP1 SSTORE PUSH2 0xA6C PUSH2 0x107F JUMP JUMPDEST PUSH1 0x6C SLOAD PUSH1 0x6B SLOAD PUSH1 0x40 DUP1 MLOAD PUSH1 0x1 PUSH1 0x1 PUSH1 0xA0 SHL SUB SWAP4 DUP5 AND DUP2 MSTORE SWAP2 SWAP1 SWAP3 AND PUSH1 0x20 DUP3 ADD MSTORE NUMBER DUP2 DUP4 ADD MSTORE SWAP1 MLOAD PUSH32 0x8EAE0C2F651A44C8E5F3B32376232A187EBB06D44450A4C9303F9CCB90A4143A SWAP2 DUP2 SWAP1 SUB PUSH1 0x60 ADD SWAP1 LOG1 PUSH1 0x73 DUP1 SLOAD PUSH1 0xFF NOT AND PUSH1 0x1 OR SWAP1 SSTORE SWAP3 SWAP2 POP POP JUMP JUMPDEST PUSH1 0x4 DUP2 JUMP JUMPDEST PUSH1 0x1 PUSH1 0x1 PUSH1 0xA0 SHL SUB AND PUSH1 0x0 SWAP1 DUP2 MSTORE PUSH1 0x33 PUSH1 0x20 MSTORE PUSH1 0x40 SWAP1 KECCAK256 SLOAD SWAP1 JUMP JUMPDEST PUSH1 0x0 PUSH2 0xAFA PUSH2 0x124D JUMP JUMPDEST ISZERO PUSH2 0xB11 JUMPI PUSH2 0xB07 PUSH2 0x12C6 JUMP JUMPDEST POP PUSH1 0x1 SWAP1 POP PUSH2 0x5C4 JUMP JUMPDEST POP PUSH1 0x0 SWAP1 JUMP JUMPDEST PUSH1 0x69 DUP1 SLOAD PUSH1 0x40 DUP1 MLOAD PUSH1 0x20 PUSH1 0x1F PUSH1 0x2 PUSH1 0x0 NOT PUSH2 0x100 PUSH1 0x1 DUP9 AND ISZERO MUL ADD SWAP1 SWAP6 AND SWAP5 SWAP1 SWAP5 DIV SWAP4 DUP5 ADD DUP2 SWAP1 DIV DUP2 MUL DUP3 ADD DUP2 ADD SWAP1 SWAP3 MSTORE DUP3 DUP2 MSTORE PUSH1 0x60 SWAP4 SWAP1 SWAP3 SWAP1 SWAP2 DUP4 ADD DUP3 DUP3 DUP1 ISZERO PUSH2 0x5BC JUMPI DUP1 PUSH1 0x1F LT PUSH2 0x591 JUMPI PUSH2 0x100 DUP1 DUP4 SLOAD DIV MUL DUP4 MSTORE SWAP2 PUSH1 0x20 ADD SWAP2 PUSH2 0x5BC JUMP JUMPDEST PUSH1 0x0 PUSH2 0x5DB PUSH2 0xB85 PUSH2 0xD16 JUMP JUMPDEST DUP5 PUSH2 0x6AD DUP6 PUSH1 0x40 MLOAD DUP1 PUSH1 0x60 ADD PUSH1 0x40 MSTORE DUP1 PUSH1 0x25 DUP2 MSTORE PUSH1 0x20 ADD PUSH2 0x1C3B PUSH1 0x25 SWAP2 CODECOPY PUSH1 0x34 PUSH1 0x0 PUSH2 0xBAF PUSH2 0xD16 JUMP JUMPDEST PUSH1 0x1 PUSH1 0x1 PUSH1 0xA0 SHL SUB SWAP1 DUP2 AND DUP3 MSTORE PUSH1 0x20 DUP1 DUP4 ADD SWAP4 SWAP1 SWAP4 MSTORE PUSH1 0x40 SWAP2 DUP3 ADD PUSH1 0x0 SWAP1 DUP2 KECCAK256 SWAP2 DUP14 AND DUP2 MSTORE SWAP3 MSTORE SWAP1 KECCAK256 SLOAD SWAP2 SWAP1 PUSH4 0xFFFFFFFF PUSH2 0xE2D AND JUMP JUMPDEST PUSH1 0x0 PUSH2 0x5DB PUSH2 0xBF3 PUSH2 0xD16 JUMP JUMPDEST DUP5 DUP5 PUSH2 0xE06 JUMP JUMPDEST PUSH1 0x70 SLOAD SWAP1 JUMP JUMPDEST PUSH1 0x71 SLOAD SWAP1 JUMP JUMPDEST PUSH1 0x0 PUSH1 0x4D PUSH1 0x70 SLOAD GT DUP1 PUSH2 0xC1C JUMPI POP PUSH1 0x73 SLOAD PUSH1 0xFF AND ISZERO JUMPDEST ISZERO PUSH2 0xC29 JUMPI POP PUSH1 0x0 PUSH2 0x5C4 JUMP JUMPDEST PUSH1 0x0 PUSH2 0xC33 PUSH2 0x60E JUMP JUMPDEST SWAP1 POP PUSH1 0x0 PUSH2 0xC4C PUSH1 0x72 SLOAD DUP4 PUSH2 0x15BC SWAP1 SWAP2 SWAP1 PUSH4 0xFFFFFFFF AND JUMP JUMPDEST SWAP1 POP PUSH1 0x0 PUSH2 0xC61 DUP3 PUSH1 0x4 PUSH4 0xFFFFFFFF PUSH2 0x15BC AND JUMP JUMPDEST SWAP4 POP POP POP POP SWAP1 JUMP JUMPDEST PUSH1 0x1 PUSH1 0x1 PUSH1 0xA0 SHL SUB SWAP2 DUP3 AND PUSH1 0x0 SWAP1 DUP2 MSTORE PUSH1 0x34 PUSH1 0x20 SWAP1 DUP2 MSTORE PUSH1 0x40 DUP1 DUP4 KECCAK256 SWAP4 SWAP1 SWAP5 AND DUP3 MSTORE SWAP2 SWAP1 SWAP2 MSTORE KECCAK256 SLOAD SWAP1 JUMP JUMPDEST PUSH1 0x6E SLOAD SWAP1 JUMP JUMPDEST PUSH1 0x0 PUSH1 0x4D PUSH1 0x70 SLOAD GT DUP1 PUSH2 0xCB0 JUMPI POP PUSH1 0x73 SLOAD PUSH1 0xFF AND ISZERO JUMPDEST ISZERO PUSH2 0xCBE JUMPI POP PUSH1 0x0 NOT PUSH2 0x5C4 JUMP JUMPDEST PUSH1 0x0 PUSH2 0xCCC NUMBER PUSH1 0x74 SLOAD PUSH2 0x15FE JUMP JUMPDEST SWAP1 POP PUSH1 0x4 DUP2 LT PUSH2 0xCE0 JUMPI PUSH1 0x0 SWAP2 POP POP PUSH2 0x5C4 JUMP JUMPDEST PUSH2 0xCF1 PUSH1 0x4 DUP3 PUSH4 0xFFFFFFFF PUSH2 0x162C AND JUMP JUMPDEST SWAP2 POP POP SWAP1 JUMP JUMPDEST PUSH1 0x0 PUSH1 0x4D PUSH1 0x70 SLOAD GT ISZERO PUSH2 0xD0C JUMPI POP PUSH1 0x0 PUSH2 0x5C4 JUMP JUMPDEST POP PUSH1 0x73 SLOAD PUSH1 0xFF AND SWAP1 JUMP JUMPDEST CALLER SWAP1 JUMP JUMPDEST PUSH1 0x1 PUSH1 0x1 PUSH1 0xA0 SHL SUB DUP4 AND PUSH2 0xD5F JUMPI PUSH1 0x40 MLOAD PUSH3 0x461BCD PUSH1 0xE5 SHL DUP2 MSTORE PUSH1 0x4 ADD DUP1 DUP1 PUSH1 0x20 ADD DUP3 DUP2 SUB DUP3 MSTORE PUSH1 0x24 DUP2 MSTORE PUSH1 0x20 ADD DUP1 PUSH2 0x1C17 PUSH1 0x24 SWAP2 CODECOPY PUSH1 0x40 ADD SWAP2 POP POP PUSH1 0x40 MLOAD DUP1 SWAP2 SUB SWAP1 REVERT JUMPDEST PUSH1 0x1 PUSH1 0x1 PUSH1 0xA0 SHL SUB DUP3 AND PUSH2 0xDA4 JUMPI PUSH1 0x40 MLOAD PUSH3 0x461BCD PUSH1 0xE5 SHL DUP2 MSTORE PUSH1 0x4 ADD DUP1 DUP1 PUSH1 0x20 ADD DUP3 DUP2 SUB DUP3 MSTORE PUSH1 0x22 DUP2 MSTORE PUSH1 0x20 ADD DUP1 PUSH2 0x1AB2 PUSH1 0x22 SWAP2 CODECOPY PUSH1 0x40 ADD SWAP2 POP POP PUSH1 0x40 MLOAD DUP1 SWAP2 SUB SWAP1 REVERT JUMPDEST PUSH1 0x1 PUSH1 0x1 PUSH1 0xA0 SHL SUB DUP1 DUP5 AND PUSH1 0x0 DUP2 DUP2 MSTORE PUSH1 0x34 PUSH1 0x20 SWAP1 DUP2 MSTORE PUSH1 0x40 DUP1 DUP4 KECCAK256 SWAP5 DUP8 AND DUP1 DUP5 MSTORE SWAP5 DUP3 MSTORE SWAP2 DUP3 SWAP1 KECCAK256 DUP6 SWAP1 SSTORE DUP2 MLOAD DUP6 DUP2 MSTORE SWAP2 MLOAD PUSH32 0x8C5BE1E5EBEC7D5BD14F71427D1E84F3DD0314C0F7B2291E5B200AC8C7C3B925 SWAP3 DUP2 SWAP1 SUB SWAP1 SWAP2 ADD SWAP1 LOG3 POP POP POP JUMP JUMPDEST PUSH2 0xE0E PUSH2 0x124D JUMP JUMPDEST ISZERO PUSH2 0xE1D JUMPI PUSH2 0xE1B PUSH2 0x12C6 JUMP JUMPDEST POP JUMPDEST PUSH2 0xE28 DUP4 DUP4 DUP4 PUSH2 0x166E JUMP JUMPDEST POP POP POP JUMP JUMPDEST PUSH1 0x0 DUP2 DUP5 DUP5 GT ISZERO PUSH2 0xEBC JUMPI PUSH1 0x40 MLOAD PUSH3 0x461BCD PUSH1 0xE5 SHL DUP2 MSTORE PUSH1 0x4 ADD DUP1 DUP1 PUSH1 0x20 ADD DUP3 DUP2 SUB DUP3 MSTORE DUP4 DUP2 DUP2 MLOAD DUP2 MSTORE PUSH1 0x20 ADD SWAP2 POP DUP1 MLOAD SWAP1 PUSH1 0x20 ADD SWAP1 DUP1 DUP4 DUP4 PUSH1 0x0 JUMPDEST DUP4 DUP2 LT ISZERO PUSH2 0xE81 JUMPI DUP2 DUP2 ADD MLOAD DUP4 DUP3 ADD MSTORE PUSH1 0x20 ADD PUSH2 0xE69 JUMP JUMPDEST POP POP POP POP SWAP1 POP SWAP1 DUP2 ADD SWAP1 PUSH1 0x1F AND DUP1 ISZERO PUSH2 0xEAE JUMPI DUP1 DUP3 SUB DUP1 MLOAD PUSH1 0x1 DUP4 PUSH1 0x20 SUB PUSH2 0x100 EXP SUB NOT AND DUP2 MSTORE PUSH1 0x20 ADD SWAP2 POP JUMPDEST POP SWAP3 POP POP POP PUSH1 0x40 MLOAD DUP1 SWAP2 SUB SWAP1 REVERT JUMPDEST POP POP POP SWAP1 SUB SWAP1 JUMP JUMPDEST PUSH1 0x0 DUP3 DUP3 ADD DUP4 DUP2 LT ISZERO PUSH2 0xF1E JUMPI PUSH1 0x40 DUP1 MLOAD PUSH3 0x461BCD PUSH1 0xE5 SHL DUP2 MSTORE PUSH1 0x20 PUSH1 0x4 DUP3 ADD MSTORE PUSH1 0x1B PUSH1 0x24 DUP3 ADD MSTORE PUSH32 0x536166654D6174683A206164646974696F6E206F766572666C6F770000000000 PUSH1 0x44 DUP3 ADD MSTORE SWAP1 MLOAD SWAP1 DUP2 SWAP1 SUB PUSH1 0x64 ADD SWAP1 REVERT JUMPDEST SWAP4 SWAP3 POP POP POP JUMP JUMPDEST PUSH1 0x1 PUSH1 0x1 PUSH1 0xA0 SHL SUB DUP3 AND PUSH2 0xF6A JUMPI PUSH1 0x40 MLOAD PUSH3 0x461BCD PUSH1 0xE5 SHL DUP2 MSTORE PUSH1 0x4 ADD DUP1 DUP1 PUSH1 0x20 ADD DUP3 DUP2 SUB DUP3 MSTORE PUSH1 0x21 DUP2 MSTORE PUSH1 0x20 ADD DUP1 PUSH2 0x1BD1 PUSH1 0x21 SWAP2 CODECOPY PUSH1 0x40 ADD SWAP2 POP POP PUSH1 0x40 MLOAD DUP1 SWAP2 SUB SWAP1 REVERT JUMPDEST PUSH2 0xFAD DUP2 PUSH1 0x40 MLOAD DUP1 PUSH1 0x60 ADD PUSH1 0x40 MSTORE DUP1 PUSH1 0x22 DUP2 MSTORE PUSH1 0x20 ADD PUSH2 0x1A6C PUSH1 0x22 SWAP2 CODECOPY PUSH1 0x1 PUSH1 0x1 PUSH1 0xA0 SHL SUB DUP6 AND PUSH1 0x0 SWAP1 DUP2 MSTORE PUSH1 0x33 PUSH1 0x20 MSTORE PUSH1 0x40 SWAP1 KECCAK256 SLOAD SWAP2 SWAP1 PUSH4 0xFFFFFFFF PUSH2 0xE2D AND JUMP JUMPDEST PUSH1 0x1 PUSH1 0x1 PUSH1 0xA0 SHL SUB DUP4 AND PUSH1 0x0 SWAP1 DUP2 MSTORE PUSH1 0x33 PUSH1 0x20 MSTORE PUSH1 0x40 SWAP1 KECCAK256 SSTORE PUSH1 0x35 SLOAD PUSH2 0xFD9 SWAP1 DUP3 PUSH4 0xFFFFFFFF PUSH2 0x162C AND JUMP JUMPDEST PUSH1 0x35 SSTORE PUSH1 0x40 DUP1 MLOAD DUP3 DUP2 MSTORE SWAP1 MLOAD PUSH1 0x0 SWAP2 PUSH1 0x1 PUSH1 0x1 PUSH1 0xA0 SHL SUB DUP6 AND SWAP2 PUSH32 0xDDF252AD1BE2C89B69C2B068FC378DAA952BA7F163C4A11628F55A4DF523B3EF SWAP2 DUP2 SWAP1 SUB PUSH1 0x20 ADD SWAP1 LOG3 POP POP JUMP JUMPDEST PUSH1 0x0 DUP4 DUP4 ADD DUP3 DUP6 DUP3 LT ISZERO PUSH2 0x1076 JUMPI PUSH1 0x40 MLOAD PUSH3 0x461BCD PUSH1 0xE5 SHL DUP2 MSTORE PUSH1 0x20 PUSH1 0x4 DUP3 ADD DUP2 DUP2 MSTORE DUP4 MLOAD PUSH1 0x24 DUP5 ADD MSTORE DUP4 MLOAD SWAP1 SWAP3 DUP4 SWAP3 PUSH1 0x44 SWAP1 SWAP2 ADD SWAP2 SWAP1 DUP6 ADD SWAP1 DUP1 DUP4 DUP4 PUSH1 0x0 DUP4 ISZERO PUSH2 0xE81 JUMPI DUP2 DUP2 ADD MLOAD DUP4 DUP3 ADD MSTORE PUSH1 0x20 ADD PUSH2 0xE69 JUMP JUMPDEST POP SWAP5 SWAP4 POP POP POP POP JUMP JUMPDEST PUSH1 0x40 DUP1 MLOAD PUSH1 0x60 DUP1 DUP3 ADD DUP4 MSTORE PUSH1 0x1 DUP1 DUP4 MSTORE PUSH1 0x6 PUSH1 0x20 DUP1 DUP6 ADD DUP3 SWAP1 MSTORE PUSH1 0x64 SWAP5 DUP7 ADD DUP6 SWAP1 MSTORE PUSH1 0x75 SWAP3 SWAP1 SWAP3 SSTORE PUSH1 0x76 SSTORE PUSH1 0x77 SWAP3 SWAP1 SWAP3 SSTORE DUP3 MLOAD DUP1 DUP3 ADD DUP5 MSTORE PUSH1 0x7 DUP1 DUP3 MSTORE PUSH1 0xD DUP3 DUP6 ADD DUP2 SWAP1 MSTORE PUSH1 0xC8 SWAP3 DUP7 ADD DUP4 SWAP1 MSTORE PUSH1 0x78 SWAP2 SWAP1 SWAP2 SSTORE PUSH1 0x79 SSTORE PUSH1 0x7A SSTORE DUP3 MLOAD DUP1 DUP3 ADD DUP5 MSTORE PUSH1 0xE DUP1 DUP3 MSTORE PUSH1 0x14 DUP3 DUP6 ADD DUP2 SWAP1 MSTORE PUSH2 0x190 SWAP3 DUP7 ADD DUP4 SWAP1 MSTORE PUSH1 0x7B SWAP2 SWAP1 SWAP2 SSTORE PUSH1 0x7C SSTORE PUSH1 0x7D SSTORE DUP3 MLOAD DUP1 DUP3 ADD DUP5 MSTORE PUSH1 0x15 DUP1 DUP3 MSTORE PUSH1 0x1B DUP3 DUP6 ADD DUP2 SWAP1 MSTORE PUSH2 0x320 SWAP3 DUP7 ADD DUP4 SWAP1 MSTORE PUSH1 0x7E SWAP2 SWAP1 SWAP2 SSTORE PUSH1 0x7F SSTORE PUSH1 0x80 SSTORE DUP3 MLOAD DUP1 DUP3 ADD DUP5 MSTORE PUSH1 0x1C DUP1 DUP3 MSTORE PUSH1 0x22 DUP3 DUP6 ADD DUP2 SWAP1 MSTORE PUSH2 0x640 SWAP3 DUP7 ADD DUP4 SWAP1 MSTORE PUSH1 0x81 SWAP2 SWAP1 SWAP2 SSTORE PUSH1 0x82 SSTORE PUSH1 0x83 SSTORE DUP3 MLOAD DUP1 DUP3 ADD DUP5 MSTORE PUSH1 0x23 DUP1 DUP3 MSTORE PUSH1 0x29 DUP3 DUP6 ADD DUP2 SWAP1 MSTORE PUSH2 0xC80 SWAP3 DUP7 ADD DUP4 SWAP1 MSTORE PUSH1 0x84 SWAP2 SWAP1 SWAP2 SSTORE PUSH1 0x85 SSTORE PUSH1 0x86 SSTORE DUP3 MLOAD DUP1 DUP3 ADD DUP5 MSTORE PUSH1 0x2A DUP1 DUP3 MSTORE PUSH1 0x30 DUP3 DUP6 ADD DUP2 SWAP1 MSTORE PUSH2 0x1900 SWAP3 DUP7 ADD DUP4 SWAP1 MSTORE PUSH1 0x87 SWAP2 SWAP1 SWAP2 SSTORE PUSH1 0x88 SSTORE PUSH1 0x89 SSTORE DUP3 MLOAD DUP1 DUP3 ADD DUP5 MSTORE PUSH1 0x31 DUP1 DUP3 MSTORE PUSH1 0x37 DUP3 DUP6 ADD DUP2 SWAP1 MSTORE PUSH2 0x3200 SWAP3 DUP7 ADD DUP4 SWAP1 MSTORE PUSH1 0x8A SWAP2 SWAP1 SWAP2 SSTORE PUSH1 0x8B SSTORE PUSH1 0x8C SSTORE DUP3 MLOAD DUP1 DUP3 ADD DUP5 MSTORE PUSH1 0x38 DUP1 DUP3 MSTORE PUSH1 0x3E DUP3 DUP6 ADD DUP2 SWAP1 MSTORE PUSH2 0x6400 SWAP3 DUP7 ADD DUP4 SWAP1 MSTORE PUSH1 0x8D SWAP2 SWAP1 SWAP2 SSTORE PUSH1 0x8E SSTORE PUSH1 0x8F SSTORE DUP3 MLOAD DUP1 DUP3 ADD DUP5 MSTORE PUSH1 0x3F DUP1 DUP3 MSTORE PUSH1 0x45 DUP3 DUP6 ADD DUP2 SWAP1 MSTORE PUSH2 0xC800 SWAP3 DUP7 ADD DUP4 SWAP1 MSTORE PUSH1 0x90 SWAP2 SWAP1 SWAP2 SSTORE PUSH1 0x91 SSTORE PUSH1 0x92 SSTORE DUP3 MLOAD SWAP1 DUP2 ADD DUP4 MSTORE PUSH1 0x46 DUP1 DUP3 MSTORE PUSH1 0x4D SWAP3 DUP3 ADD DUP4 SWAP1 MSTORE PUSH3 0x19000 SWAP2 SWAP1 SWAP4 ADD DUP2 SWAP1 MSTORE PUSH1 0x93 SWAP3 SWAP1 SWAP3 SSTORE PUSH1 0x94 SSTORE PUSH1 0x95 SSTORE JUMP JUMPDEST PUSH1 0x73 SLOAD PUSH1 0x0 SWAP1 PUSH1 0xFF AND DUP1 ISZERO PUSH2 0x1265 JUMPI POP PUSH1 0x4D PUSH1 0x70 SLOAD GT ISZERO JUMPDEST DUP1 ISZERO PUSH2 0x127C JUMPI POP PUSH1 0x4 PUSH2 0x127A NUMBER PUSH1 0x74 SLOAD PUSH2 0x15FE JUMP JUMPDEST GT JUMPDEST ISZERO PUSH2 0x12BE JUMPI PUSH1 0x0 PUSH2 0x12B1 PUSH1 0x70 SLOAD PUSH1 0x1 PUSH1 0x40 MLOAD DUP1 PUSH1 0x40 ADD PUSH1 0x40 MSTORE DUP1 PUSH1 0x8 DUP2 MSTORE PUSH1 0x20 ADD PUSH8 0x4F766572666C6F77 PUSH1 0xC0 SHL DUP2 MSTORE POP PUSH2 0x1021 JUMP JUMPDEST PUSH1 0x70 SSTORE POP PUSH1 0x1 SWAP1 POP PUSH2 0x5C4 JUMP JUMPDEST POP PUSH1 0x0 PUSH2 0x5C4 JUMP JUMPDEST PUSH1 0x0 PUSH2 0x12D0 PUSH2 0x17CC JUMP JUMPDEST PUSH1 0x71 SLOAD LT ISZERO PUSH2 0x137B JUMPI PUSH2 0x131C PUSH1 0x71 SLOAD PUSH1 0x1 PUSH1 0x40 MLOAD DUP1 PUSH1 0x40 ADD PUSH1 0x40 MSTORE DUP1 PUSH1 0x1D DUP2 MSTORE PUSH1 0x20 ADD PUSH32 0x4E455720455241203A204164646974696F6E2067617665206572726F72000000 DUP2 MSTORE POP PUSH2 0x1021 JUMP JUMPDEST PUSH1 0x71 DUP2 SWAP1 SSTORE PUSH1 0x75 SWAP1 PUSH1 0xB DUP2 LT PUSH2 0x132E JUMPI INVALID JUMPDEST PUSH1 0x3 MUL ADD PUSH1 0x2 ADD SLOAD PUSH1 0x72 SSTORE PUSH1 0x71 SLOAD PUSH1 0x40 DUP1 MLOAD SWAP2 DUP3 MSTORE NUMBER PUSH1 0x20 DUP4 ADD MSTORE TIMESTAMP DUP3 DUP3 ADD MSTORE MLOAD PUSH32 0x9D472BCF372FCE01FD875C3296E8E5AE0A08BFCA42DEDAC19E202271CE8F39C5 SWAP2 PUSH1 0x60 SWAP1 DUP3 SWAP1 SUB ADD SWAP1 LOG1 JUMPDEST PUSH1 0x0 PUSH2 0x1385 PUSH2 0x60E JUMP JUMPDEST SWAP1 POP PUSH1 0x0 PUSH2 0x139E PUSH1 0x72 SLOAD DUP4 PUSH2 0x15BC SWAP1 SWAP2 SWAP1 PUSH4 0xFFFFFFFF AND JUMP JUMPDEST SWAP1 POP PUSH1 0x0 PUSH2 0x13B3 DUP3 PUSH1 0x4 PUSH4 0xFFFFFFFF PUSH2 0x15BC AND JUMP JUMPDEST SWAP1 POP PUSH2 0x13BD PUSH2 0x19FA JUMP JUMPDEST PUSH1 0x40 MLOAD DUP1 PUSH2 0x100 ADD PUSH1 0x40 MSTORE DUP1 PUSH1 0x70 SLOAD DUP2 MSTORE PUSH1 0x20 ADD PUSH1 0x71 SLOAD DUP2 MSTORE PUSH1 0x20 ADD PUSH1 0x72 SLOAD DUP2 MSTORE PUSH1 0x20 ADD DUP5 DUP2 MSTORE PUSH1 0x20 ADD DUP4 DUP2 MSTORE PUSH1 0x20 ADD PUSH2 0x13F5 PUSH2 0x60E JUMP JUMPDEST DUP2 MSTORE CALLER PUSH1 0x20 DUP3 ADD MSTORE NUMBER PUSH1 0x40 SWAP1 SWAP2 ADD MSTORE PUSH1 0x6D SLOAD SWAP1 SWAP2 POP DUP4 GT ISZERO PUSH2 0x142C JUMPI PUSH1 0x6D SLOAD PUSH2 0x1425 SWAP1 DUP5 SWAP1 PUSH4 0xFFFFFFFF PUSH2 0x162C AND JUMP JUMPDEST SWAP3 POP PUSH2 0x1432 JUMP JUMPDEST PUSH1 0x0 PUSH1 0x6D SSTORE JUMPDEST PUSH2 0x143E CALLER PUSH1 0x6D SLOAD PUSH2 0x18A3 JUMP JUMPDEST PUSH1 0x6C SLOAD PUSH2 0x1454 SWAP1 PUSH1 0x1 PUSH1 0x1 PUSH1 0xA0 SHL SUB AND DUP5 PUSH2 0x18A3 JUMP JUMPDEST PUSH2 0x145C PUSH2 0x60E JUMP JUMPDEST DUP2 PUSH1 0xA0 ADD DUP2 DUP2 MSTORE POP POP PUSH1 0x6F DUP2 SWAP1 DUP1 PUSH1 0x1 DUP2 SLOAD ADD DUP1 DUP3 SSTORE DUP1 SWAP2 POP POP SWAP1 PUSH1 0x1 DUP3 SUB SWAP1 PUSH1 0x0 MSTORE PUSH1 0x20 PUSH1 0x0 KECCAK256 SWAP1 PUSH1 0x8 MUL ADD PUSH1 0x0 SWAP1 SWAP2 SWAP3 SWAP1 SWAP2 SWAP1 SWAP2 POP PUSH1 0x0 DUP3 ADD MLOAD DUP2 PUSH1 0x0 ADD SSTORE PUSH1 0x20 DUP3 ADD MLOAD DUP2 PUSH1 0x1 ADD SSTORE PUSH1 0x40 DUP3 ADD MLOAD DUP2 PUSH1 0x2 ADD SSTORE PUSH1 0x60 DUP3 ADD MLOAD DUP2 PUSH1 0x3 ADD SSTORE PUSH1 0x80 DUP3 ADD MLOAD DUP2 PUSH1 0x4 ADD SSTORE PUSH1 0xA0 DUP3 ADD MLOAD DUP2 PUSH1 0x5 ADD SSTORE PUSH1 0xC0 DUP3 ADD MLOAD DUP2 PUSH1 0x6 ADD PUSH1 0x0 PUSH2 0x100 EXP DUP2 SLOAD DUP2 PUSH1 0x1 PUSH1 0x1 PUSH1 0xA0 SHL SUB MUL NOT AND SWAP1 DUP4 PUSH1 0x1 PUSH1 0x1 PUSH1 0xA0 SHL SUB AND MUL OR SWAP1 SSTORE POP PUSH1 0xE0 DUP3 ADD MLOAD DUP2 PUSH1 0x7 ADD SSTORE POP POP POP NUMBER PUSH1 0x74 DUP2 SWAP1 SSTORE POP PUSH32 0xD1199909FE7E3430FF4A50ACC1AEC543FC4714B8B54F90B45D6914344835F94E DUP2 PUSH1 0xC0 ADD MLOAD DUP3 PUSH1 0x0 ADD MLOAD DUP4 PUSH1 0x20 ADD MLOAD DUP5 PUSH1 0x40 ADD MLOAD DUP6 PUSH1 0x60 ADD MLOAD DUP7 PUSH1 0x80 ADD MLOAD DUP8 PUSH1 0xA0 ADD MLOAD DUP9 PUSH1 0xE0 ADD MLOAD PUSH1 0x40 MLOAD DUP1 DUP10 PUSH1 0x1 PUSH1 0x1 PUSH1 0xA0 SHL SUB AND PUSH1 0x1 PUSH1 0x1 PUSH1 0xA0 SHL SUB AND DUP2 MSTORE PUSH1 0x20 ADD DUP9 DUP2 MSTORE PUSH1 0x20 ADD DUP8 DUP2 MSTORE PUSH1 0x20 ADD DUP7 DUP2 MSTORE PUSH1 0x20 ADD DUP6 DUP2 MSTORE PUSH1 0x20 ADD DUP5 DUP2 MSTORE PUSH1 0x20 ADD DUP4 DUP2 MSTORE PUSH1 0x20 ADD DUP3 DUP2 MSTORE PUSH1 0x20 ADD SWAP9 POP POP POP POP POP POP POP POP POP PUSH1 0x40 MLOAD DUP1 SWAP2 SUB SWAP1 LOG1 PUSH1 0x1 SWAP5 POP POP POP POP POP SWAP1 JUMP JUMPDEST PUSH1 0x0 PUSH2 0xF1E DUP4 DUP4 PUSH1 0x40 MLOAD DUP1 PUSH1 0x40 ADD PUSH1 0x40 MSTORE DUP1 PUSH1 0x1A DUP2 MSTORE PUSH1 0x20 ADD PUSH32 0x536166654D6174683A206469766973696F6E206279207A65726F000000000000 DUP2 MSTORE POP PUSH2 0x1995 JUMP JUMPDEST PUSH1 0x0 DUP1 PUSH2 0x1624 DUP5 DUP5 PUSH1 0x40 MLOAD DUP1 PUSH1 0x60 ADD PUSH1 0x40 MSTORE DUP1 PUSH1 0x27 DUP2 MSTORE PUSH1 0x20 ADD PUSH2 0x1B56 PUSH1 0x27 SWAP2 CODECOPY PUSH2 0xE2D JUMP JUMPDEST SWAP5 SWAP4 POP POP POP POP JUMP JUMPDEST PUSH1 0x0 PUSH2 0xF1E DUP4 DUP4 PUSH1 0x40 MLOAD DUP1 PUSH1 0x40 ADD PUSH1 0x40 MSTORE DUP1 PUSH1 0x1E DUP2 MSTORE PUSH1 0x20 ADD PUSH32 0x536166654D6174683A207375627472616374696F6E206F766572666C6F770000 DUP2 MSTORE POP PUSH2 0xE2D JUMP JUMPDEST PUSH1 0x1 PUSH1 0x1 PUSH1 0xA0 SHL SUB DUP4 AND PUSH2 0x16B3 JUMPI PUSH1 0x40 MLOAD PUSH3 0x461BCD PUSH1 0xE5 SHL DUP2 MSTORE PUSH1 0x4 ADD DUP1 DUP1 PUSH1 0x20 ADD DUP3 DUP2 SUB DUP3 MSTORE PUSH1 0x25 DUP2 MSTORE PUSH1 0x20 ADD DUP1 PUSH2 0x1BF2 PUSH1 0x25 SWAP2 CODECOPY PUSH1 0x40 ADD SWAP2 POP POP PUSH1 0x40 MLOAD DUP1 SWAP2 SUB SWAP1 REVERT JUMPDEST PUSH1 0x1 PUSH1 0x1 PUSH1 0xA0 SHL SUB DUP3 AND PUSH2 0x16F8 JUMPI PUSH1 0x40 MLOAD PUSH3 0x461BCD PUSH1 0xE5 SHL DUP2 MSTORE PUSH1 0x4 ADD DUP1 DUP1 PUSH1 0x20 ADD DUP3 DUP2 SUB DUP3 MSTORE PUSH1 0x23 DUP2 MSTORE PUSH1 0x20 ADD DUP1 PUSH2 0x1A49 PUSH1 0x23 SWAP2 CODECOPY PUSH1 0x40 ADD SWAP2 POP POP PUSH1 0x40 MLOAD DUP1 SWAP2 SUB SWAP1 REVERT JUMPDEST PUSH2 0x173B DUP2 PUSH1 0x40 MLOAD DUP1 PUSH1 0x60 ADD PUSH1 0x40 MSTORE DUP1 PUSH1 0x26 DUP2 MSTORE PUSH1 0x20 ADD PUSH2 0x1AD4 PUSH1 0x26 SWAP2 CODECOPY PUSH1 0x1 PUSH1 0x1 PUSH1 0xA0 SHL SUB DUP7 AND PUSH1 0x0 SWAP1 DUP2 MSTORE PUSH1 0x33 PUSH1 0x20 MSTORE PUSH1 0x40 SWAP1 KECCAK256 SLOAD SWAP2 SWAP1 PUSH4 0xFFFFFFFF PUSH2 0xE2D AND JUMP JUMPDEST PUSH1 0x1 PUSH1 0x1 PUSH1 0xA0 SHL SUB DUP1 DUP6 AND PUSH1 0x0 SWAP1 DUP2 MSTORE PUSH1 0x33 PUSH1 0x20 MSTORE PUSH1 0x40 DUP1 DUP3 KECCAK256 SWAP4 SWAP1 SWAP4 SSTORE SWAP1 DUP5 AND DUP2 MSTORE KECCAK256 SLOAD PUSH2 0x1770 SWAP1 DUP3 PUSH4 0xFFFFFFFF PUSH2 0xEC4 AND JUMP JUMPDEST PUSH1 0x1 PUSH1 0x1 PUSH1 0xA0 SHL SUB DUP1 DUP5 AND PUSH1 0x0 DUP2 DUP2 MSTORE PUSH1 0x33 PUSH1 0x20 SWAP1 DUP2 MSTORE PUSH1 0x40 SWAP2 DUP3 SWAP1 KECCAK256 SWAP5 SWAP1 SWAP5 SSTORE DUP1 MLOAD DUP6 DUP2 MSTORE SWAP1 MLOAD SWAP2 SWAP4 SWAP3 DUP8 AND SWAP3 PUSH32 0xDDF252AD1BE2C89B69C2B068FC378DAA952BA7F163C4A11628F55A4DF523B3EF SWAP3 SWAP2 DUP3 SWAP1 SUB ADD SWAP1 LOG3 POP POP POP JUMP JUMPDEST PUSH1 0x0 PUSH1 0x7 PUSH1 0x70 SLOAD GT ISZERO DUP1 ISZERO PUSH2 0x17DF JUMPI POP PUSH1 0x1 JUMPDEST ISZERO PUSH2 0x17EC JUMPI POP PUSH1 0x0 PUSH2 0x5C4 JUMP JUMPDEST PUSH1 0x0 PUSH2 0x1831 PUSH1 0x70 SLOAD PUSH1 0x7 PUSH1 0x40 MLOAD DUP1 PUSH1 0x40 ADD PUSH1 0x40 MSTORE DUP1 PUSH1 0x1B DUP2 MSTORE PUSH1 0x20 ADD PUSH32 0x4552413A205375627472616374696F6E2067617665206572726F720000000000 DUP2 MSTORE POP PUSH2 0xE2D JUMP JUMPDEST SWAP1 POP PUSH1 0x0 PUSH2 0x1876 DUP3 PUSH1 0x7 PUSH1 0x40 MLOAD DUP1 PUSH1 0x40 ADD PUSH1 0x40 MSTORE DUP1 PUSH1 0x19 DUP2 MSTORE PUSH1 0x20 ADD PUSH32 0x455241203A204469766973696F6E2067617665206572726F7200000000000000 DUP2 MSTORE POP PUSH2 0x1995 JUMP JUMPDEST SWAP1 POP PUSH1 0x9 DUP2 GT PUSH2 0x189A JUMPI PUSH2 0x1891 DUP2 PUSH1 0x1 PUSH4 0xFFFFFFFF PUSH2 0xEC4 AND JUMP JUMPDEST SWAP3 POP POP POP PUSH2 0x5C4 JUMP JUMPDEST PUSH1 0xB SWAP3 POP POP POP SWAP1 JUMP JUMPDEST PUSH1 0x1 PUSH1 0x1 PUSH1 0xA0 SHL SUB DUP3 AND PUSH2 0x18FE JUMPI PUSH1 0x40 DUP1 MLOAD PUSH3 0x461BCD PUSH1 0xE5 SHL DUP2 MSTORE PUSH1 0x20 PUSH1 0x4 DUP3 ADD MSTORE PUSH1 0x1F PUSH1 0x24 DUP3 ADD MSTORE PUSH32 0x45524332303A206D696E7420746F20746865207A65726F206164647265737300 PUSH1 0x44 DUP3 ADD MSTORE SWAP1 MLOAD SWAP1 DUP2 SWAP1 SUB PUSH1 0x64 ADD SWAP1 REVERT JUMPDEST PUSH1 0x35 SLOAD PUSH2 0x1911 SWAP1 DUP3 PUSH4 0xFFFFFFFF PUSH2 0xEC4 AND JUMP JUMPDEST PUSH1 0x35 SSTORE PUSH1 0x1 PUSH1 0x1 PUSH1 0xA0 SHL SUB DUP3 AND PUSH1 0x0 SWAP1 DUP2 MSTORE PUSH1 0x33 PUSH1 0x20 MSTORE PUSH1 0x40 SWAP1 KECCAK256 SLOAD PUSH2 0x193D SWAP1 DUP3 PUSH4 0xFFFFFFFF PUSH2 0xEC4 AND JUMP JUMPDEST PUSH1 0x1 PUSH1 0x1 PUSH1 0xA0 SHL SUB DUP4 AND PUSH1 0x0 DUP2 DUP2 MSTORE PUSH1 0x33 PUSH1 0x20 SWAP1 DUP2 MSTORE PUSH1 0x40 DUP1 DUP4 KECCAK256 SWAP5 SWAP1 SWAP5 SSTORE DUP4 MLOAD DUP6 DUP2 MSTORE SWAP4 MLOAD SWAP3 SWAP4 SWAP2 SWAP3 PUSH32 0xDDF252AD1BE2C89B69C2B068FC378DAA952BA7F163C4A11628F55A4DF523B3EF SWAP3 DUP2 SWAP1 SUB SWAP1 SWAP2 ADD SWAP1 LOG3 POP POP JUMP JUMPDEST PUSH1 0x0 DUP2 DUP4 PUSH2 0x19E4 JUMPI PUSH1 0x40 MLOAD PUSH3 0x461BCD PUSH1 0xE5 SHL DUP2 MSTORE PUSH1 0x20 PUSH1 0x4 DUP3 ADD DUP2 DUP2 MSTORE DUP4 MLOAD PUSH1 0x24 DUP5 ADD MSTORE DUP4 MLOAD SWAP1 SWAP3 DUP4 SWAP3 PUSH1 0x44 SWAP1 SWAP2 ADD SWAP2 SWAP1 DUP6 ADD SWAP1 DUP1 DUP4 DUP4 PUSH1 0x0 DUP4 ISZERO PUSH2 0xE81 JUMPI DUP2 DUP2 ADD MLOAD DUP4 DUP3 ADD MSTORE PUSH1 0x20 ADD PUSH2 0xE69 JUMP JUMPDEST POP PUSH1 0x0 DUP4 DUP6 DUP2 PUSH2 0x19F0 JUMPI INVALID JUMPDEST DIV SWAP6 SWAP5 POP POP POP POP POP JUMP JUMPDEST PUSH1 0x40 MLOAD DUP1 PUSH2 0x100 ADD PUSH1 0x40 MSTORE DUP1 PUSH1 0x0 DUP2 MSTORE PUSH1 0x20 ADD PUSH1 0x0 DUP2 MSTORE PUSH1 0x20 ADD PUSH1 0x0 DUP2 MSTORE PUSH1 0x20 ADD PUSH1 0x0 DUP2 MSTORE PUSH1 0x20 ADD PUSH1 0x0 DUP2 MSTORE PUSH1 0x20 ADD PUSH1 0x0 DUP2 MSTORE PUSH1 0x20 ADD PUSH1 0x0 PUSH1 0x1 PUSH1 0x1 PUSH1 0xA0 SHL SUB AND DUP2 MSTORE PUSH1 0x20 ADD PUSH1 0x0 DUP2 MSTORE POP SWAP1 JUMP INVALID GASLIMIT MSTORE NUMBER ORIGIN ADDRESS GASPRICE KECCAK256 PUSH21 0x72616E7366657220746F20746865207A65726F2061 PUSH5 0x6472657373 GASLIMIT MSTORE NUMBER ORIGIN ADDRESS GASPRICE KECCAK256 PUSH3 0x75726E KECCAK256 PUSH2 0x6D6F PUSH22 0x6E7420657863656564732062616C616E63654E6F7420 PUSH2 0x2076 PUSH2 0x6C69 PUSH5 0x2053706565 PUSH5 0x20436F6E74 PUSH19 0x6F6C6C6572206164647265737345524332303A KECCAK256 PUSH2 0x7070 PUSH19 0x6F766520746F20746865207A65726F20616464 PUSH19 0x65737345524332303A207472616E7366657220 PUSH2 0x6D6F PUSH22 0x6E7420657863656564732062616C616E63656275726E KECCAK256 GASPRICE KECCAK256 SLOAD PUSH16 0x74616C204E756D626572206F6620746F PUSH12 0x656E73206275726E74206761 PUSH23 0x65206164646974696F6E206F766572666C6F774F6E6C79 KECCAK256 SLOAD PUSH19 0x6561737572792063616E206275726E20534947 0x48 KECCAK256 SLOAD PUSH16 0x6B656E73476574456C6170736564426C PUSH16 0x636B733A205375627472616374696F6E KECCAK256 SSTORE PUSH15 0x646572666C6F7745524332303A2074 PUSH19 0x616E7366657220616D6F756E74206578636565 PUSH5 0x7320616C6C PUSH16 0x77616E63654D696E696E672063616E20 PUSH16 0x6E6C7920626520696E697469616C697A PUSH6 0x642062792074 PUSH9 0x65206F776E65722E45 MSTORE NUMBER ORIGIN ADDRESS GASPRICE KECCAK256 PUSH3 0x75726E KECCAK256 PUSH7 0x726F6D20746865 KECCAK256 PUSH27 0x65726F206164647265737345524332303A207472616E7366657220 PUSH7 0x726F6D20746865 KECCAK256 PUSH27 0x65726F206164647265737345524332303A20617070726F76652066 PUSH19 0x6F6D20746865207A65726F2061646472657373 GASLIMIT MSTORE NUMBER ORIGIN ADDRESS GASPRICE KECCAK256 PUSH5 0x6563726561 PUSH20 0x656420616C6C6F77616E63652062656C6F77207A PUSH6 0x726FA265627A PUSH27 0x7231582087F1A90B5C8510FB2276A9BDD38F18FB910AFA2E43C756 PUSH8 0xA504D57B5F95C45C PUSH5 0x736F6C6343 STOP SDIV GT STOP ORIGIN MSTORE8 0x49 SELFBALANCE 0x48 KECCAK256 0x49 PUSH15 0x737472756D656E74203A2041206672 PUSH6 0x652064697374 PUSH19 0x696275746F72206F6620667574757265206578 PUSH17 0x656374656420616363756D756C61746564 KECCAK256 PUSH23 0x616C7565206F662066696E616E6369616C206173736574 PUSH20 0x0 "
		},
		"gasEstimates": {
			"creation": {
				"codeDepositCost": "1463200",
				"executionCost": "infinite",
				"totalCost": "infinite"
			},
			"external": {
				"CYCLE_BLOCKS()": "266",
				"FINAL_CYCLE()": "288",
				"allowance(address,address)": "1294",
				"approve(address,uint256)": "infinite",
				"balanceOf(address)": "1232",
				"burn(uint256)": "infinite",
				"decimals()": "1081",
				"decreaseAllowance(address,uint256)": "infinite",
				"getBlocksRemainingToMint()": "infinite",
				"getCurrentCycle()": "1043",
				"getCurrentEra()": "1065",
				"getCurrentInflationRate()": "2728",
				"getCurrentMintSpeed()": "infinite",
				"getLatestMintSnapshotForCycle()": "1113",
				"getMintSnapshotForCycle(uint256)": "12445",
				"getSpeedController()": "1148",
				"getTotalSighBurnt()": "1064",
				"getTreasury()": "1104",
				"increaseAllowance(address,uint256)": "infinite",
				"initMinting(address,address)": "infinite",
				"isMintingActivated()": "1951",
				"mintCoins()": "infinite",
				"name()": "infinite",
				"symbol()": "infinite",
				"totalSupply()": "1088",
				"transfer(address,uint256)": "infinite",
				"transferFrom(address,address,uint256)": "infinite"
			},
			"internal": {
				"_CalculateCurrentEra()": "infinite",
				"_getElapsedBlocks(uint256,uint256)": "infinite",
				"_initEras()": "infinite",
				"_transfer(address,address,uint256)": "infinite",
				"add(uint256,uint256,string memory)": "infinite",
				"div(uint256,uint256)": "infinite",
				"div(uint256,uint256,string memory)": "infinite",
				"isMintingPossible()": "infinite",
				"min(uint256,uint256)": "infinite",
				"mintNewCoins()": "infinite",
				"mul(uint256,uint256,string memory)": "infinite",
				"sub(uint256,uint256,string memory)": "infinite"
			}
		},
		"methodIdentifiers": {
			"CYCLE_BLOCKS()": "5f103dc8",
			"FINAL_CYCLE()": "33c42fe0",
			"allowance(address,address)": "dd62ed3e",
			"approve(address,uint256)": "095ea7b3",
			"balanceOf(address)": "70a08231",
			"burn(uint256)": "42966c68",
			"decimals()": "313ce567",
			"decreaseAllowance(address,uint256)": "a457c2d7",
			"getBlocksRemainingToMint()": "fa7a11e2",
			"getCurrentCycle()": "be26ed7f",
			"getCurrentEra()": "d250b6cb",
			"getCurrentInflationRate()": "1384b219",
			"getCurrentMintSpeed()": "dae0e05c",
			"getLatestMintSnapshotForCycle()": "1a694701",
			"getMintSnapshotForCycle(uint256)": "2d5a9db0",
			"getSpeedController()": "4f9d3fd5",
			"getTotalSighBurnt()": "f257c080",
			"getTreasury()": "3b19e84a",
			"increaseAllowance(address,uint256)": "39509351",
			"initMinting(address,address)": "5c26a643",
			"isMintingActivated()": "fc399a0d",
			"mintCoins()": "798907c1",
			"name()": "06fdde03",
			"symbol()": "95d89b41",
			"totalSupply()": "18160ddd",
			"transfer(address,uint256)": "a9059cbb",
			"transferFrom(address,address,uint256)": "23b872dd"
		}
	},
	"abi": [
		{
			"inputs": [],
			"payable": false,
			"stateMutability": "nonpayable",
			"type": "constructor"
		},
		{
			"anonymous": false,
			"inputs": [
				{
					"indexed": true,
					"internalType": "address",
					"name": "owner",
					"type": "address"
				},
				{
					"indexed": true,
					"internalType": "address",
					"name": "spender",
					"type": "address"
				},
				{
					"indexed": false,
					"internalType": "uint256",
					"name": "value",
					"type": "uint256"
				}
			],
			"name": "Approval",
			"type": "event"
		},
		{
			"anonymous": false,
			"inputs": [
				{
					"indexed": false,
					"internalType": "address",
					"name": "speedController",
					"type": "address"
				},
				{
					"indexed": false,
					"internalType": "address",
					"name": "treasury",
					"type": "address"
				},
				{
					"indexed": false,
					"internalType": "uint256",
					"name": "blockNumber",
					"type": "uint256"
				}
			],
			"name": "MintingInitialized",
			"type": "event"
		},
		{
			"anonymous": false,
			"inputs": [
				{
					"indexed": false,
					"internalType": "uint256",
					"name": "newEra",
					"type": "uint256"
				},
				{
					"indexed": false,
					"internalType": "uint256",
					"name": "blockNumber",
					"type": "uint256"
				},
				{
					"indexed": false,
					"internalType": "uint256",
					"name": "timeStamp",
					"type": "uint256"
				}
			],
			"name": "NewEra",
			"type": "event"
		},
		{
			"anonymous": false,
			"inputs": [
				{
					"indexed": false,
					"internalType": "uint256",
					"name": "burntAmount",
					"type": "uint256"
				},
				{
					"indexed": false,
					"internalType": "uint256",
					"name": "totalBurnedAmount",
					"type": "uint256"
				},
				{
					"indexed": false,
					"internalType": "uint256",
					"name": "currentSupply",
					"type": "uint256"
				},
				{
					"indexed": false,
					"internalType": "uint256",
					"name": "blockNumber",
					"type": "uint256"
				}
			],
			"name": "SIGHBurned",
			"type": "event"
		},
		{
			"anonymous": false,
			"inputs": [
				{
					"indexed": false,
					"internalType": "address",
					"name": "minter",
					"type": "address"
				},
				{
					"indexed": false,
					"internalType": "uint256",
					"name": "cycle",
					"type": "uint256"
				},
				{
					"indexed": false,
					"internalType": "uint256",
					"name": "Era",
					"type": "uint256"
				},
				{
					"indexed": false,
					"internalType": "uint256",
					"name": "inflationRate",
					"type": "uint256"
				},
				{
					"indexed": false,
					"internalType": "uint256",
					"name": "amountMinted",
					"type": "uint256"
				},
				{
					"indexed": false,
					"internalType": "uint256",
					"name": "mintSpeed",
					"type": "uint256"
				},
				{
					"indexed": false,
					"internalType": "uint256",
					"name": "current_supply",
					"type": "uint256"
				},
				{
					"indexed": false,
					"internalType": "uint256",
					"name": "block_number",
					"type": "uint256"
				}
			],
			"name": "SIGHMinted",
			"type": "event"
		},
		{
			"anonymous": false,
			"inputs": [
				{
					"indexed": true,
					"internalType": "address",
					"name": "from",
					"type": "address"
				},
				{
					"indexed": true,
					"internalType": "address",
					"name": "to",
					"type": "address"
				},
				{
					"indexed": false,
					"internalType": "uint256",
					"name": "value",
					"type": "uint256"
				}
			],
			"name": "Transfer",
			"type": "event"
		},
		{
			"constant": true,
			"inputs": [],
			"name": "CYCLE_BLOCKS",
			"outputs": [
				{
					"internalType": "uint256",
					"name": "",
					"type": "uint256"
				}
			],
			"payable": false,
			"stateMutability": "view",
			"type": "function"
		},
		{
			"constant": true,
			"inputs": [],
			"name": "FINAL_CYCLE",
			"outputs": [
				{
					"internalType": "uint256",
					"name": "",
					"type": "uint256"
				}
			],
			"payable": false,
			"stateMutability": "view",
			"type": "function"
		},
		{
			"constant": true,
			"inputs": [
				{
					"internalType": "address",
					"name": "owner",
					"type": "address"
				},
				{
					"internalType": "address",
					"name": "spender",
					"type": "address"
				}
			],
			"name": "allowance",
			"outputs": [
				{
					"internalType": "uint256",
					"name": "",
					"type": "uint256"
				}
			],
			"payable": false,
			"stateMutability": "view",
			"type": "function"
		},
		{
			"constant": false,
			"inputs": [
				{
					"internalType": "address",
					"name": "spender",
					"type": "address"
				},
				{
					"internalType": "uint256",
					"name": "amount",
					"type": "uint256"
				}
			],
			"name": "approve",
			"outputs": [
				{
					"internalType": "bool",
					"name": "",
					"type": "bool"
				}
			],
			"payable": false,
			"stateMutability": "nonpayable",
			"type": "function"
		},
		{
			"constant": true,
			"inputs": [
				{
					"internalType": "address",
					"name": "account",
					"type": "address"
				}
			],
			"name": "balanceOf",
			"outputs": [
				{
					"internalType": "uint256",
					"name": "",
					"type": "uint256"
				}
			],
			"payable": false,
			"stateMutability": "view",
			"type": "function"
		},
		{
			"constant": false,
			"inputs": [
				{
					"internalType": "uint256",
					"name": "amount",
					"type": "uint256"
				}
			],
			"name": "burn",
			"outputs": [
				{
					"internalType": "bool",
					"name": "",
					"type": "bool"
				}
			],
			"payable": false,
			"stateMutability": "nonpayable",
			"type": "function"
		},
		{
			"constant": true,
			"inputs": [],
			"name": "decimals",
			"outputs": [
				{
					"internalType": "uint8",
					"name": "",
					"type": "uint8"
				}
			],
			"payable": false,
			"stateMutability": "view",
			"type": "function"
		},
		{
			"constant": false,
			"inputs": [
				{
					"internalType": "address",
					"name": "spender",
					"type": "address"
				},
				{
					"internalType": "uint256",
					"name": "subtractedValue",
					"type": "uint256"
				}
			],
			"name": "decreaseAllowance",
			"outputs": [
				{
					"internalType": "bool",
					"name": "",
					"type": "bool"
				}
			],
			"payable": false,
			"stateMutability": "nonpayable",
			"type": "function"
		},
		{
			"constant": true,
			"inputs": [],
			"name": "getBlocksRemainingToMint",
			"outputs": [
				{
					"internalType": "uint256",
					"name": "",
					"type": "uint256"
				}
			],
			"payable": false,
			"stateMutability": "view",
			"type": "function"
		},
		{
			"constant": true,
			"inputs": [],
			"name": "getCurrentCycle",
			"outputs": [
				{
					"internalType": "uint256",
					"name": "",
					"type": "uint256"
				}
			],
			"payable": false,
			"stateMutability": "view",
			"type": "function"
		},
		{
			"constant": true,
			"inputs": [],
			"name": "getCurrentEra",
			"outputs": [
				{
					"internalType": "uint256",
					"name": "",
					"type": "uint256"
				}
			],
			"payable": false,
			"stateMutability": "view",
			"type": "function"
		},
		{
			"constant": true,
			"inputs": [],
			"name": "getCurrentInflationRate",
			"outputs": [
				{
					"internalType": "uint256",
					"name": "",
					"type": "uint256"
				}
			],
			"payable": false,
			"stateMutability": "view",
			"type": "function"
		},
		{
			"constant": true,
			"inputs": [],
			"name": "getCurrentMintSpeed",
			"outputs": [
				{
					"internalType": "uint256",
					"name": "",
					"type": "uint256"
				}
			],
			"payable": false,
			"stateMutability": "view",
			"type": "function"
		},
		{
			"constant": true,
			"inputs": [],
			"name": "getLatestMintSnapshotForCycle",
			"outputs": [
				{
					"internalType": "uint256",
					"name": "cycle",
					"type": "uint256"
				},
				{
					"internalType": "uint256",
					"name": "era",
					"type": "uint256"
				},
				{
					"internalType": "uint256",
					"name": "inflationRate",
					"type": "uint256"
				},
				{
					"internalType": "uint256",
					"name": "mintedAmount",
					"type": "uint256"
				},
				{
					"internalType": "uint256",
					"name": "mintSpeed",
					"type": "uint256"
				},
				{
					"internalType": "uint256",
					"name": "newTotalSupply",
					"type": "uint256"
				},
				{
					"internalType": "address",
					"name": "minter",
					"type": "address"
				},
				{
					"internalType": "uint256",
					"name": "blockNumber",
					"type": "uint256"
				}
			],
			"payable": false,
			"stateMutability": "view",
			"type": "function"
		},
		{
			"constant": true,
			"inputs": [
				{
					"internalType": "uint256",
					"name": "cycleNumber",
					"type": "uint256"
				}
			],
			"name": "getMintSnapshotForCycle",
			"outputs": [
				{
					"internalType": "uint256",
					"name": "era",
					"type": "uint256"
				},
				{
					"internalType": "uint256",
					"name": "inflationRate",
					"type": "uint256"
				},
				{
					"internalType": "uint256",
					"name": "mintedAmount",
					"type": "uint256"
				},
				{
					"internalType": "uint256",
					"name": "mintSpeed",
					"type": "uint256"
				},
				{
					"internalType": "uint256",
					"name": "newTotalSupply",
					"type": "uint256"
				},
				{
					"internalType": "address",
					"name": "minter",
					"type": "address"
				},
				{
					"internalType": "uint256",
					"name": "blockNumber",
					"type": "uint256"
				}
			],
			"payable": false,
			"stateMutability": "view",
			"type": "function"
		},
		{
			"constant": true,
			"inputs": [],
			"name": "getSpeedController",
			"outputs": [
				{
					"internalType": "address",
					"name": "",
					"type": "address"
				}
			],
			"payable": false,
			"stateMutability": "view",
			"type": "function"
		},
		{
			"constant": true,
			"inputs": [],
			"name": "getTotalSighBurnt",
			"outputs": [
				{
					"internalType": "uint256",
					"name": "",
					"type": "uint256"
				}
			],
			"payable": false,
			"stateMutability": "view",
			"type": "function"
		},
		{
			"constant": true,
			"inputs": [],
			"name": "getTreasury",
			"outputs": [
				{
					"internalType": "address",
					"name": "",
					"type": "address"
				}
			],
			"payable": false,
			"stateMutability": "view",
			"type": "function"
		},
		{
			"constant": false,
			"inputs": [
				{
					"internalType": "address",
					"name": "spender",
					"type": "address"
				},
				{
					"internalType": "uint256",
					"name": "addedValue",
					"type": "uint256"
				}
			],
			"name": "increaseAllowance",
			"outputs": [
				{
					"internalType": "bool",
					"name": "",
					"type": "bool"
				}
			],
			"payable": false,
			"stateMutability": "nonpayable",
			"type": "function"
		},
		{
			"constant": false,
			"inputs": [
				{
					"internalType": "address",
					"name": "newSpeedController",
					"type": "address"
				},
				{
					"internalType": "address",
					"name": "_treasury",
					"type": "address"
				}
			],
			"name": "initMinting",
			"outputs": [
				{
					"internalType": "bool",
					"name": "",
					"type": "bool"
				}
			],
			"payable": false,
			"stateMutability": "nonpayable",
			"type": "function"
		},
		{
			"constant": true,
			"inputs": [],
			"name": "isMintingActivated",
			"outputs": [
				{
					"internalType": "bool",
					"name": "",
					"type": "bool"
				}
			],
			"payable": false,
			"stateMutability": "view",
			"type": "function"
		},
		{
			"constant": false,
			"inputs": [],
			"name": "mintCoins",
			"outputs": [
				{
					"internalType": "bool",
					"name": "",
					"type": "bool"
				}
			],
			"payable": false,
			"stateMutability": "nonpayable",
			"type": "function"
		},
		{
			"constant": true,
			"inputs": [],
			"name": "name",
			"outputs": [
				{
					"internalType": "string",
					"name": "",
					"type": "string"
				}
			],
			"payable": false,
			"stateMutability": "view",
			"type": "function"
		},
		{
			"constant": true,
			"inputs": [],
			"name": "symbol",
			"outputs": [
				{
					"internalType": "string",
					"name": "",
					"type": "string"
				}
			],
			"payable": false,
			"stateMutability": "view",
			"type": "function"
		},
		{
			"constant": true,
			"inputs": [],
			"name": "totalSupply",
			"outputs": [
				{
					"internalType": "uint256",
					"name": "",
					"type": "uint256"
				}
			],
			"payable": false,
			"stateMutability": "view",
			"type": "function"
		},
		{
			"constant": false,
			"inputs": [
				{
					"internalType": "address",
					"name": "recipient",
					"type": "address"
				},
				{
					"internalType": "uint256",
					"name": "amount",
					"type": "uint256"
				}
			],
			"name": "transfer",
			"outputs": [
				{
					"internalType": "bool",
					"name": "",
					"type": "bool"
				}
			],
			"payable": false,
			"stateMutability": "nonpayable",
			"type": "function"
		},
		{
			"constant": false,
			"inputs": [
				{
					"internalType": "address",
					"name": "sender",
					"type": "address"
				},
				{
					"internalType": "address",
					"name": "recipient",
					"type": "address"
				},
				{
					"internalType": "uint256",
					"name": "amount",
					"type": "uint256"
				}
			],
			"name": "transferFrom",
			"outputs": [
				{
					"internalType": "bool",
					"name": "",
					"type": "bool"
				}
			],
			"payable": false,
			"stateMutability": "nonpayable",
			"type": "function"
		}
	]
}