{
	"data": {
		"bytecode": {
			"linkReferences": {},
			"object": "60008080556037805460ff60a01b1916905560a06040526080819052603855600160575534801561002f57600080fd5b50614e438061003f6000396000f3fe608060405234801561001057600080fd5b506004361061021c5760003560e01c80637c52b66811610125578063bf1678f6116100ad578063c72c4d101161007c578063c72c4d1014610727578063d63570631461072f578063eeabe79f14610755578063f9665d441461075d578063ffffd7fb1461078b5761021c565b8063bf1678f6146106cb578063c3d1b72d146106d3578063c4d66de8146106f9578063c6a6bfb11461071f5761021c565b8063832c6c90116100f4578063832c6c90146106165780638d9cf8641461063b5780638e26fc38146106615780639a717b241461069d578063be36810a146106c35761021c565b80637c52b668146105865780637c55ccb3146105ac5780637dc0d1d0146105b6578063831449de146105be5761021c565b80634dc54a38116101a857806352bbe6581161017757806352bbe6581461047f578063570b39d0146104b5578063659f73c5146104bd578063663e34c2146104fe5780636f610c501461057e5761021c565b80634dc54a38146103305780634df859fd146104075780634f425fbb146104335780634f78deef146104595761021c565b80631e7faed9116101ef5780631e7faed9146102c557806321428a12146102e25780632df0f9a9146102ea5780633e9552651461030757806342cbb15c1461030f5761021c565b806304c66321146102215780630d7ff887146102615780630ef9e9d71461028557806310fa61e61461029f575b600080fd5b61024d6004803603604081101561023757600080fd5b506001600160a01b0381351690602001356107b1565b604080519115158252519081900360200190f35b610269610963565b604080516001600160a01b039092168252519081900360200190f35b61028d610972565b60408051918252519081900360200190f35b61028d600480360360208110156102b557600080fd5b50356001600160a01b0316610979565b61024d600480360360208110156102db57600080fd5b50356109c5565b610269610af8565b61024d6004803603602081101561030057600080fd5b5035610b07565b61028d610c0e565b610317610c14565b6040805163ffffffff9092168252519081900360200190f35b6103566004803603602081101561034657600080fd5b50356001600160a01b0316610c18565b6040518080602001876001600160a01b03166001600160a01b0316815260200186815260200185151515158152602001848152602001838152602001828103825288818151815260200191508051906020019080838360005b838110156103c75781810151838201526020016103af565b50505050905090810190601f1680156103f45780820380516001836020036101000a031916815260200191505b5097505050505050505060405180910390f35b61028d6004803603604081101561041d57600080fd5b506001600160a01b038135169060200135610d06565b61024d6004803603602081101561044957600080fd5b50356001600160a01b0316610d32565b61024d6004803603602081101561046f57600080fd5b50356001600160a01b0316610e25565b61024d6004803603606081101561049557600080fd5b506001600160a01b03813581169160208101359091169060400135611100565b61028d61167a565b6104c5611680565b604051808261030080838360005b838110156104eb5781810151838201526020016104d3565b5050505090500191505060405180910390f35b6105246004803603602081101561051457600080fd5b50356001600160a01b03166116bd565b604051808781526020018681526020018581526020018481526020018060200183815260200182810382528481815181526020019150805190602001908083836000838110156103c75781810151838201526020016103af565b61028d6117a0565b61024d6004803603602081101561059c57600080fd5b50356001600160a01b03166117d7565b6105b46118c2565b005b610269611981565b6105c6611990565b60408051602080825283518183015283519192839290830191858101910280838360005b838110156106025781810151838201526020016105ea565b505050509050019250505060405180910390f35b61024d6004803603604081101561062c57600080fd5b508035151590602001356119f1565b6103176004803603602081101561065157600080fd5b50356001600160a01b0316611c0c565b61028d6004803603608081101561067757600080fd5b506001600160a01b03813581169160208101358216916040820135169060600135611c30565b61028d600480360360208110156106b357600080fd5b50356001600160a01b0316611f9f565b61028d611fe2565b61024d611fe8565b61024d600480360360208110156106e957600080fd5b50356001600160a01b031661203d565b6105b46004803603602081101561070f57600080fd5b50356001600160a01b031661205b565b61028d61217b565b6102696121fd565b6104c56004803603602081101561074557600080fd5b50356001600160a01b031661220c565b61028d61225f565b61024d6004803603604081101561077357600080fd5b506001600160a01b0381358116916020013516612265565b61024d600480360360208110156107a157600080fd5b50356001600160a01b0316612679565b6000336001600160a01b0316603460009054906101000a90046001600160a01b03166001600160a01b031663db49224b6040518163ffffffff1660e01b815260040160206040518083038186803b15801561080b57600080fd5b505afa15801561081f573d6000803e3d6000fd5b505050506040513d602081101561083557600080fd5b50516001600160a01b03161461087c5760405162461bcd60e51b815260040180806020018281038252603a815260200180614ab4603a913960400191505060405180910390fd5b6001600160a01b0383166000908152603a602052604090205460ff166108d7576040805162461bcd60e51b81526020600482015260196024820152600080516020614def833981519152604482015290519081900360640190fd5b6001600160a01b03831660009081526056602052604090206002018054908390557f60ab6bb8f64f97a68e803dc67f55f0a08732fe0db1e669b39f3b45dd35d9580d848285610924610c14565b604080516001600160a01b03909516855260208501939093528383019190915263ffffffff166060830152519081900360800190a15060019392505050565b6037546001600160a01b031681565b6038545b90565b6001600160a01b0381166000908152603a602052604081205460ff16156109bc57506001600160a01b0381166000908152603a60205260409020600701546109c0565b5060005b919050565b6000336001600160a01b0316603460009054906101000a90046001600160a01b03166001600160a01b031663db49224b6040518163ffffffff1660e01b815260040160206040518083038186803b158015610a1f57600080fd5b505afa158015610a33573d6000803e3d6000fd5b505050506040513d6020811015610a4957600080fd5b50516001600160a01b031614610a905760405162461bcd60e51b815260040180806020018281038252603a815260200180614ab4603a913960400191505060405180910390fd5b610a98611fe8565b5060578054908390557f8574a512a3537f7f97e2c60304507aa6816866c2d1fed5ffa1815cb01d2b1e448184610acc610c14565b60408051938452602084019290925263ffffffff1682820152519081900360600190a150600192915050565b6035546001600160a01b031681565b6000336001600160a01b0316603460009054906101000a90046001600160a01b03166001600160a01b031663db49224b6040518163ffffffff1660e01b815260040160206040518083038186803b158015610b6157600080fd5b505afa158015610b75573d6000803e3d6000fd5b505050506040513d6020811015610b8b57600080fd5b50516001600160a01b031614610bd25760405162461bcd60e51b815260040180806020018281038252603a815260200180614ab4603a913960400191505060405180910390fd5b610bda611fe8565b5060558054908390557fb35ae78d38c9ad12feab06bfa59b6d4364d33e312f0e00ffb1776f0c60e5ff7a8184610acc610c14565b60585490565b4390565b6001600160a01b038181166000908152603a6020908152604080832060028082015460038301546004840154600585015460078601546001968701805489516101009982161599909902600019011696909604601f81018a90048a0288018a0190985287875260609a8a998a998a998a9998909316969560ff1694939291889190830182828015610cea5780601f10610cbf57610100808354040283529160200191610cea565b820191906000526020600020905b815481529060010190602001808311610ccd57829003601f168201915b5050505050955095509550955095509550955091939550919395565b6001600160a01b0382166000908152603b602052604081208260188110610d2957fe5b01549392505050565b6037546000906001600160a01b03163314610d7e5760405162461bcd60e51b8152600401808060200182810382526031815260200180614a406031913960400191505060405180910390fd5b6001600160a01b0382166000908152603a602052604090205460ff16610dd9576040805162461bcd60e51b81526020600482015260196024820152600080516020614def833981519152604482015290519081900360640190fd5b610de282612918565b610e1d5760405162461bcd60e51b815260040180806020018281038252602d815260200180614be1602d913960400191505060405180910390fd5b506001919050565b6000336001600160a01b0316603460009054906101000a90046001600160a01b03166001600160a01b031663db49224b6040518163ffffffff1660e01b815260040160206040518083038186803b158015610e7f57600080fd5b505afa158015610e93573d6000803e3d6000fd5b505050506040513d6020811015610ea957600080fd5b50516001600160a01b031614610ef05760405162461bcd60e51b815260040180806020018281038252603a815260200180614ab4603a913960400191505060405180910390fd5b6001600160a01b0382166000908152603a602052604090205460ff16610f4b576040805162461bcd60e51b81526020600482015260196024820152600080516020614def833981519152604482015290519081900360640190fd5b6001600160a01b0382166000908152603a602052604090206004015460ff16610fa55760405162461bcd60e51b8152600401808060200182810382526043815260200180614a716043913960600191505060405180910390fd5b610fad611fe8565b50610fb661477f565b6001600160a01b0383166000908152603b60205260409020610fda9082601861479e565b506001600160a01b0383166000908152603b60209081526040808320601801805463ffffffff19169055603a909152812060048101805460ff191690557f95eb8164ada5bbd9b16bb9918bcf97960c1d006f76427f3faf2bfb2ebc963e4291859160010190611047610c14565b604080516001600160a01b03861681528315159181019190915263ffffffff821660608201526080602082018181528554600260001961010060018416150201909116049183018290529060a0830190869080156110e65780601f106110bb576101008083540402835291602001916110e6565b820191906000526020600020905b8154815290600101906020018083116110c957829003601f168201915b50509550505050505060405180910390a150600192915050565b6001600160a01b0383166000908152603a602052604081205460ff161561116e576040805162461bcd60e51b815260206004820152601d60248201527f496e737472756d656e7420616c726561647920737570706f727465642e000000604482015290519081900360640190fd5b603980546001808201835560009283527fdc16fef70f8d5ddbc01ee3d903d1e69c18a3c7be080eb86a81e0578814ee58d390910180546001600160a01b0319166001600160a01b0388811691909117909155604080516101208101825292835280516306fdde0360e01b81529051879460208501938616926306fdde039260048083019392829003018186803b15801561120757600080fd5b505afa15801561121b573d6000803e3d6000fd5b505050506040513d6000823e601f3d908101601f19168201604052602081101561124457600080fd5b810190808051604051939291908464010000000082111561126457600080fd5b90830190602082018581111561127957600080fd5b825164010000000081118282018810171561129357600080fd5b82525081516020918201929091019080838360005b838110156112c05781810151838201526020016112a8565b50505050905090810190601f1680156112ed5780820380516001836020036101000a031916815260200191505b506040525050508152602001856001600160a01b031681526020018481526020016000151581526020016ec097ce7bc90715b34b9f10000000008152602001611334610c14565b63ffffffff1681526020016ec097ce7bc90715b34b9f1000000000815260200161135c610c14565b63ffffffff1690526001600160a01b0386166000908152603a602090815260409091208251815460ff191690151517815582820151805191926113a7926001850192909101906147dc565b5060408201518160020160006101000a8154816001600160a01b0302191690836001600160a01b031602179055506060820151816003015560808201518160040160006101000a81548160ff02191690831515021790555060a0820151816005015560c0820151816006015560e0820151816007015561010082015181600801559050506040518060c0016040528060008152602001600081526020016000815260200160008152602001604051806040016040528060048152602001631b9d5b1b60e21b8152508152602001600081525060566000876001600160a01b03166001600160a01b031681526020019081526020016000206000820151816000015560208201518160010155604082015181600201556060820151816003015560808201518160040190805190602001906114e29291906147dc565b5060a091909101516005909101556001600160a01b0385166000908152603b602052604090206018015463ffffffff1661157d5761151e61477f565b604080518082018252828152600060208083018290526001600160a01b038a168252603b9052919091208151611557908290601861479e565b50602091909101516018909101805463ffffffff191663ffffffff909216919091179055505b6001600160a01b038581166000818152603a602090815260409182902082519384529183018790529287166060830152436080830181905260a093830184815260019283018054600294811615610100026000190116939093049484018590527f147287eb47162017688bf4e80590ac2faa6656751fd480b76fa8f7612910141a948a9489938b93909260c08301908790801561165b5780601f106116305761010080835404028352916020019161165b565b820191906000526020600020905b81548152906001019060200180831161163e57829003601f168201915b5050965050505050505060405180910390a160019150505b9392505050565b60555490565b61168861477f565b6040805161030081019182905290603c9060189082845b81548152602001906001019080831161169f575b5050505050905090565b6001600160a01b03811660009081526056602090815260408083208054600180830154600280850154600386015460058701546004909701805489519681161561010002600019011693909304601f81018a90048a0286018a019098528785528998899889986060988a9890979693919290918491908301828280156117845780601f1061175957610100808354040283529160200191611784565b820191906000526020600020905b81548152906001019060200180831161176757829003601f168201915b5050505050915095509550955095509550955091939550919395565b6000806117af43605854612b5a565b90508060575411156117cf576117c760575482612b5a565b915050610976565b600091505090565b6037546000906001600160a01b031633146118235760405162461bcd60e51b8152600401808060200182810382526031815260200180614a406031913960400191505060405180910390fd5b6001600160a01b0382166000908152603a602052604090205460ff1661187e576040805162461bcd60e51b81526020600482015260196024820152600080516020614def833981519152604482015290519081900360640190fd5b61188782612b94565b610e1d5760405162461bcd60e51b815260040180806020018281038252602d815260200180614d06602d913960400191505060405180910390fd5b6034546040805163db49224b60e01b8152905133926001600160a01b03169163db49224b916004808301926020929190829003018186803b15801561190657600080fd5b505afa15801561191a573d6000803e3d6000fd5b505050506040513d602081101561193057600080fd5b50516001600160a01b0316146119775760405162461bcd60e51b815260040180806020018281038252603a815260200180614ab4603a913960400191505060405180910390fd5b61197f612dd9565b565b6036546001600160a01b031681565b606060398054806020026020016040519081016040528092919081815260200182805480156116b357602002820191906000526020600020905b81546001600160a01b031681526001909101906020018083116119ca575050505050905090565b6000336001600160a01b0316603460009054906101000a90046001600160a01b03166001600160a01b031663db49224b6040518163ffffffff1660e01b815260040160206040518083038186803b158015611a4b57600080fd5b505afa158015611a5f573d6000803e3d6000fd5b505050506040513d6020811015611a7557600080fd5b50516001600160a01b031614611abc5760405162461bcd60e51b815260040180806020018281038252603a815260200180614ab4603a913960400191505060405180910390fd5b662386f26fc100008211611b015760405162461bcd60e51b815260040180806020018281038252603c8152602001806148f1603c913960400191505060405180910390fd5b671bc16d674ec80000821115611b485760405162461bcd60e51b8152600401808060200182810382526034815260200180614b276034913960400191505060405180910390fd5b611b50611fe8565b5082611b7c576037805460ff60a01b191690556040805160208101909152600090819052603855611ba3565b6037805460ff60a01b1916600160a01b179055604080516020810190915282905260388290555b6037546038547ff27fc072c7772962292b4f5221d157312241ae2757928921516bb837b3d1e7bc91600160a01b900460ff1690611bde610c14565b604080519315158452602084019290925263ffffffff1682820152519081900360600190a150600192915050565b6001600160a01b03166000908152603b602052604090206018015463ffffffff1690565b603554604080516370a0823160e01b81523060048201529051600092839285926001600160a01b03909216916370a0823191602480820192602092909190829003018186803b158015611c8257600080fd5b505afa158015611c96573d6000803e3d6000fd5b505050506040513d6020811015611cac57600080fd5b50511115611f93576035546040805163a9059cbb60e01b81526001600160a01b038781166004830152602482018790529151919092169163a9059cbb9160448083019260209291908290030181600087803b158015611d0a57600080fd5b505af1158015611d1e573d6000803e3d6000fd5b505050506040513d6020811015611d3457600080fd5b5051611d715760405162461bcd60e51b815260040180806020018281038252602c815260200180614c91602c913960400191505060405180910390fd5b603460009054906101000a90046001600160a01b03166001600160a01b0316631db4f5696040518163ffffffff1660e01b815260040160206040518083038186803b158015611dbf57600080fd5b505afa158015611dd3573d6000803e3d6000fd5b505050506040513d6020811015611de957600080fd5b50516001600160a01b0385811691161415611f445760345460408051631db4f56960e01b815290516000926001600160a01b031691631db4f569916004808301926020929190829003018186803b158015611e4357600080fd5b505afa158015611e57573d6000803e3d6000fd5b505050506040513d6020811015611e6d57600080fd5b50516040805163660ecbc960e01b81526001600160a01b0389811660048301526024820188905291519293509083169163660ecbc9916044808201926020929091908290030181600087803b158015611ec557600080fd5b505af1158015611ed9573d6000803e3d6000fd5b505050506040513d6020811015611eef57600080fd5b5051611f42576040805162461bcd60e51b815260206004820152601f60248201527f4661696c656420746f20757064617465205374616b65642062616c616e636500604482015290519081900360640190fd5b505b604080516001600160a01b0380891682528716602082015280820185905290517f922c86da5ba82864ddc6d719ccdd80a788323e2a4dc17cfe258d00ba885b2bec9181900360600190a1611f96565b50815b95945050505050565b6001600160a01b0381166000908152603a602052604081205460ff16156109bc57506001600160a01b0381166000908152603a60205260409020600501546109c0565b60575490565b60008043905060006120158260585460405180606001604052806036815260200161497360369139612f7e565b9050605754811061203457612028613015565b50605855506001610976565b60009250505090565b6001600160a01b03166000908152603a602052604090205460ff1690565b6000612065613d58565b60015490915060ff168061207c575061207c613d5d565b80612088575060005481115b6120c35760405162461bcd60e51b815260040180806020018281038252602e815260200180614c63602e913960400191505060405180910390fd5b60015460ff161580156120e2576001805460ff19168117905560008290555b603480546001600160a01b0319166001600160a01b038516179055612105612dd9565b603454603554603654603754604080516001600160a01b039586168152938516602085015291841683830152909216606082015290517f0c1ebb533f3d7d1a5b07028f3f2b3cd0d8b9912e1e524eea0afa6873c6fff6499181900360800190a18015612176576001805460ff191690555b505050565b603554604080516370a0823160e01b8152306004820152905160009283926001600160a01b03909116916370a0823191602480820192602092909190829003018186803b1580156121cb57600080fd5b505afa1580156121df573d6000803e3d6000fd5b505050506040513d60208110156121f557600080fd5b505191505090565b6034546001600160a01b031681565b61221461477f565b6001600160a01b0382166000908152603b60205260409081902081516103008101928390529160189082845b8154815260200190600101908083116122405750505050509050919050565b60395490565b6001600160a01b0382166000908152603a602052604081205460ff166122d2576040805162461bcd60e51b815260206004820152601d60248201527f496e737472756d656e7420616c726561647920737570706f727465642e000000604482015290519081900360640190fd5b603954600090815b8181101561232457856001600160a01b0316603982815481106122f957fe5b6000918252602090912001546001600160a01b0316141561231c57809250612324565b6001016122da565b506039600182038154811061233557fe5b600091825260209091200154603980546001600160a01b03909216918490811061235b57fe5b600091825260209091200180546001600160a01b0319166001600160a01b03929092169190911790556039805490612397906000198301614849565b5060395460001982019081146123de5760405162461bcd60e51b815260040180806020018281038252604681526020018061492d6046913960600191505060405180910390fd5b6060603a6000886001600160a01b03166001600160a01b031681526020019081526020016000206001018054600181600116156101000203166002900480601f01602080910402602001604051908101604052809291908181526020018280546001816001161561010002031660029004801561249c5780601f106124715761010080835404028352916020019161249c565b820191906000526020600020905b81548152906001019060200180831161247f57829003601f168201915b505050506001600160a01b0389166000908152603a60205260408120805460ff1916815592935090506124d2600183018261486d565b50600281810180546001600160a01b0319169055600060038084018290556004808501805460ff1916905560058501839055600685018390556007850183905560089094018290556001600160a01b038b16825260566020526040822082815560018101839055928301829055820181905590916125529083018261486d565b5060006005919091018190556001600160a01b0388168152603b602052604081209061257e82826148b4565b6018820160006101000a81549063ffffffff021916905550507f65f75a1dd08cc1db84fba8e6f47ee955c0a2d816b86a642be1f1f7867bf38ee58787834360405180856001600160a01b03166001600160a01b03168152602001846001600160a01b03166001600160a01b0316815260200180602001838152602001828103825284818151815260200191508051906020019080838360005b8381101561262f578181015183820152602001612617565b50505050905090810190601f16801561265c5780820380516001836020036101000a031916815260200191505b509550505050505060405180910390a15060019695505050505050565b6000336001600160a01b0316603460009054906101000a90046001600160a01b03166001600160a01b031663db49224b6040518163ffffffff1660e01b815260040160206040518083038186803b1580156126d357600080fd5b505afa1580156126e7573d6000803e3d6000fd5b505050506040513d60208110156126fd57600080fd5b50516001600160a01b0316146127445760405162461bcd60e51b815260040180806020018281038252603a815260200180614ab4603a913960400191505060405180910390fd5b6001600160a01b0382166000908152603a602052604090205460ff1661279f576040805162461bcd60e51b81526020600482015260196024820152600080516020614def833981519152604482015290519081900360640190fd5b6001600160a01b0382166000908152603a602052604090206004015460ff16156127fa5760405162461bcd60e51b815260040180806020018281038252603c8152602001806149a9603c913960400191505060405180910390fd5b612802611fe8565b506001600160a01b0382166000908152603a6020526040902060048101805460ff19166001908117918290557f95eb8164ada5bbd9b16bb9918bcf97960c1d006f76427f3faf2bfb2ebc963e4292859291019060ff16612860610c14565b604080516001600160a01b03861681528315159181019190915263ffffffff821660608201526080602082018181528554600260001961010060018416150201909116049183018290529060a0830190869080156128ff5780601f106128d4576101008083540402835291602001916128ff565b820191906000526020600020905b8154815290600101906020018083116128e257829003601f168201915b50509550505050505060405180910390a1506001919050565b6000612922610c14565b6001600160a01b0383166000908152603a602052604090206006015463ffffffff919091161415612955575060016109c0565b6001600160a01b0382166000908152603a6020908152604080832060568352818420805460029091015483516060810190945260338085529295946129a6949293919291906149e590830139613d63565b905060006129b2610c14565b63ffffffff16905060006129e3828560060154604051806060016040528060338152602001614dbc60339139612f7e565b90506000811180156129f55750600083115b15612b46576000612a068285613dc1565b6037546040805163792a0feb60e01b81526001600160a01b038b811660048301529151939450600093919092169163792a0feb916024808301926020929190829003018186803b158015612a5957600080fd5b505afa158015612a6d573d6000803e3d6000fd5b505050506040513d6020811015612a8357600080fd5b50519050612a8f6148c3565b60008211612aac5760405180602001604052806000815250612ab6565b612ab68383613e03565b9050612ac06148c3565b612adc60405180602001604052808a6005015481525083613e41565b82518151604080516001600160a01b038f1681526020810189905280820193909352606083019190915260808201899052519192507fb867b8b8d737258b7b2a8f2a73127133cae096a336db6b64516ce59e8e733f5b919081900360a00190a15160058801555050505b506006909201919091555060019050919050565b60006116738383604051806040016040528060158152602001747375627472616374696f6e20756e646572666c6f7760581b815250612f7e565b6000612b9e610c14565b6001600160a01b0383166000908152603a602052604090206008015463ffffffff919091161415612bd1575060016109c0565b6001600160a01b0382166000908152603a602090815260408083206056835281842060018101546002909101548351606081019094526033808552929594612c25949293919291906149e590830139613d63565b90506000612c31610c14565b63ffffffff1690506000612c62828560080154604051806060016040528060338152602001614c0e60339139612f7e565b9050600081118015612c745750600083115b15612dc5576000612c858285613dc1565b60375460408051630915c83b60e21b81526001600160a01b038b811660048301529151939450600093919092169163245720ec916024808301926020929190829003018186803b158015612cd857600080fd5b505afa158015612cec573d6000803e3d6000fd5b505050506040513d6020811015612d0257600080fd5b50519050612d0e6148c3565b60008211612d2b5760405180602001604052806000815250612d35565b612d358383613e03565b9050612d3f6148c3565b612d5b60405180602001604052808a6007015481525083613e41565b82518151604080516001600160a01b038f1681526020810189905280820193909352606083019190915260808201899052519192507f30f0a079ceae43619c1d76b029ef6084b05b2234181e81720fea3b9624177601919081900360a00190a15160078801555050505b506008909201919091555060019050919050565b603460009054906101000a90046001600160a01b03166001600160a01b031663841aa40c6040518163ffffffff1660e01b815260040160206040518083038186803b158015612e2757600080fd5b505afa158015612e3b573d6000803e3d6000fd5b505050506040513d6020811015612e5157600080fd5b5051603580546001600160a01b0319166001600160a01b0392831617905560345460408051631f94a27560e31b81529051919092169163fca513a8916004808301926020929190829003018186803b158015612eac57600080fd5b505afa158015612ec0573d6000803e3d6000fd5b505050506040513d6020811015612ed657600080fd5b5051603680546001600160a01b0319166001600160a01b039283161790556034546040805163076b7fbb60e51b81529051919092169163ed6ff760916004808301926020929190829003018186803b158015612f3157600080fd5b505afa158015612f45573d6000803e3d6000fd5b505050506040513d6020811015612f5b57600080fd5b5051603780546001600160a01b0319166001600160a01b03909216919091179055565b6000818484111561300d5760405162461bcd60e51b81526004018080602001828103825283818151815260200191508051906020019080838360005b83811015612fd2578181015183820152602001612fba565b50505050905090810190601f168015612fff5780820380516001836020036101000a031916815260200191505b509250505060405180910390fd5b505050900390565b6060603980548060200260200160405190810160405280929190818152602001828054801561306d57602002820191906000526020600020905b81546001600160a01b0316815260019091019060200180831161304f575b50506054549394506000936130b79350439250603c91506001600160e01b03166018811061309757fe5b0154604051806060016040528060218152602001614bc060219139612f7e565b6054549091507fd54b3c8dde4fe116ee9cf6976b328b65c622d171e8a73017473b4257bd5bf6f8906001600160e01b031682603c82601881106130f657fe5b0154604080516001600160e01b039094168452602084019290925282820152436060830152519081900360800190a16054544390603c906001600160e01b03166018811061314057fe5b015561314a613e66565b6131855760405162461bcd60e51b8152600401808060200182810382526022815260200180614c416022913960400191505060405180910390fd5b606082516040519080825280602002602001820160405280156131c257816020015b6131af6148c3565b8152602001906001900390816131a75790505b5090506060835160405190808252806020026020018201604052801561320257816020015b6131ef6148c3565b8152602001906001900390816131e75790505b50905061320d6148c3565b50604080516020810190915260008082525b8551811015613afa57600086828151811061323657fe5b602002602001015190506132486148c3565b60408051602080820183526001600160a01b0385166000908152603b909152919091206054548291906001600160e01b03166018811061328457fe5b0154905290506132926148c3565b60408051602080820180845260365463b3596f0760e01b9091526001600160a01b03878116602485015293519293849391169163b3596f07916044808601929190818703018186803b1580156132e757600080fd5b505afa1580156132fb573d6000803e3d6000fd5b505050506040513d602081101561331157600080fd5b5051905280519091506133555760405162461bcd60e51b8152600401808060200182810382526039815260200180614aee6039913960400191505060405180910390fd5b80516001600160a01b0384166000908152603b602052604090206054546001600160e01b03166018811061338557fe5b015581516001600160a01b0384166000908152603b602052604090206054547f4c4cb8d799ad60c5e77071f11a367ff22e59c2de36f996f1daf8a2f99b1826a592869290916001600160e01b0316601881106133dd57fe5b0154605454604080516001600160a01b0390951685526020850193909352838301919091526001600160e01b03166060830152519081900360800190a16001600160a01b0383166000908152603a602052604090206004015460ff16158061346757506001600160a01b0383166000908152603b6020526040902060189081015463ffffffff1614155b156135d2576040518060200160405280600081525087858151811061348857fe5b6020026020010181905250604051806020016040528060008152508685815181106134af57fe5b6020908102919091018101919091526040805180820182526008815267696e61637469766560c01b8184019081526001600160a01b038716600090815260569094529190922091516135059260040191906147dc565b506001600160a01b0383166000908152603b6020526040902060189081015463ffffffff1610156135cd576001600160a01b0383166000908152603b6020908152604091829020601801548251808401909352601e83527f507269636520436f756e746572206164646974696f6e206661696c65642e0000918301919091526135999163ffffffff90911690600190613d63565b6001600160a01b0384166000908152603b60205260409020601801805463ffffffff191663ffffffff929092169190911790555b613a00565b6135dc8282613ebf565b15613813576037546040805163792a0feb60e01b81526001600160a01b0386811660048301529151600093929092169163792a0feb91602480820192602092909190829003018186803b15801561363257600080fd5b505afa158015613646573d6000803e3d6000fd5b505050506040513d602081101561365c57600080fd5b50519050600061366a6148c3565b6136748585613ec6565b9150915060006136826148c3565b61368c8386613f02565b80516001600160a01b03808c166000818152603a602090815260409182902060030154603654835163a9ec70d160e01b81526004810195909552925197995095975061372f96949594919093169263a9ec70d19260248082019391829003018186803b1580156136fb57600080fd5b505afa15801561370f573d6000803e3d6000fd5b505050506040513d602081101561372557600080fd5b505160ff16613f6a565b8c8a8151811061373b57fe5b60200260200101516000018181525050604051806020016040528060008152508b8a8151811061376757fe5b602002602001018190525061378f8a8d8b8151811061378257fe5b60200260200101516140bf565b809b5081955050508b89815181106137a357fe5b602090810291909101810151516001600160a01b038a1660008181526056808552604080832060038101959095558051808201909152600881526729bab8383634b2b960c11b81870190815293909252909352915161380892600490920191906147dc565b505050505050613a00565b60375460408051630915c83b60e21b81526001600160a01b0386811660048301529151600093929092169163245720ec91602480820192602092909190829003018186803b15801561386457600080fd5b505afa158015613878573d6000803e3d6000fd5b505050506040513d602081101561388e57600080fd5b50519050600061389c6148c3565b6138a68486613ec6565b9150915060006138b46148c3565b6138be8386613f02565b80516001600160a01b03808c166000818152603a602090815260409182902060030154603654835163a9ec70d160e01b81526004810195909552925197995095975061392d96949594919093169263a9ec70d19260248082019391829003018186803b1580156136fb57600080fd5b8b8a8151811061393957fe5b60200260200101516000018181525050604051806020016040528060008152508c8a8151811061396557fe5b60200260200101819052506139808a8c8b8151811061378257fe5b809b5081955050508a898151811061399457fe5b602090810291909101810151516001600160a01b038a166000818152605680855260408083206003810195909555805180820190915260088152672137b93937bbb2b960c11b8187019081529390925290935291516139f992600490920191906147dc565b5050505050505b6001600160a01b03831660008181526056602090815260409182902060038101548951845195865293850181905260608501849052608092850183815260049092018054600260001961010060018416150201909116049386018490527f0df8e3d371510d3b7d621f474e199bcea211830c364f434ad20ca33f5a0bc9d495899591949293919290919060a083019086908015613ade5780601f10613ab357610100808354040283529160200191613ade565b820191906000526020600020905b815481529060010190602001808311613ac157829003601f168201915b50509550505050505060405180910390a150505060010161321f565b50605554603754600160a01b900460ff1615613b3b576000613b1a6148c3565b613b2484886140de565b91509150613b368160000151886140f9565b925050505b60005b8651811015613cfe576000878281518110613b5557fe5b6020908102919091018101516001600160a01b038116600090815260569092526040909120805460019091015491925090613b8e6148c3565b865160009015613c4e5760008a8781518110613ba657fe5b6020026020010151600001511115613c0957613bd58a8781518110613bc757fe5b6020026020010151896143ff565b92509050613be38783614422565b6001600160a01b0386166000908152605660205260408120918255600190910155613c49565b613c18898781518110613bc757fe5b92509050613c268783614422565b6001600160a01b0386166000908152605660205260408120600181019290925590555b613c6f565b6001600160a01b038516600090815260566020526040812060018101829055555b613c7a606483614422565b6001600160a01b03861660008181526056602090815260409182902060058101859055805460019091015483519485529184018c9052838301526060830152608082019290925290517fd64ef6d519dc914efe554091a4d9cf435b9756c3eedce9446860554062de19c39181900360a00190a1505060019093019250613b3e915050565b50613d0761444a565b613d50576040805162461bcd60e51b8152602060048201526015602482015274155c19185d1a5b99c810d31bd8dac811985a5b1959605a1b604482015290519081900360640190fd5b505050505050565b600990565b303b1590565b60008383018285821015613db85760405162461bcd60e51b8152602060048201818152835160248401528351909283926044909101919085019080838360008315612fd2578181015183820152602001612fba565b50949350505050565b600061167383836040518060400160405280601781526020017f6d756c7469706c69636174696f6e206f766572666c6f770000000000000000008152506144db565b613e0b6148c3565b6040518060200160405280613e38613e32866ec097ce7bc90715b34b9f1000000000613dc1565b85614551565b90529392505050565b613e496148c3565b6040518060200160405280613e3885600001518560000151614584565b6000805b603954811015613eb757600060398281548110613e8357fe5b6000918252602090912001546001600160a01b03169050613ea381612918565b50613ead81612b94565b5050600101613e6a565b506001905090565b5190511190565b6000613ed06148c3565b600080613ee5866000015186600001516145ba565b6040805160208101909152908152909450925050505b9250929050565b6000613f0c6148c3565b600080613f1d8660000151866145dd565b90925090506000826003811115613f3057fe5b14613f4f57506040805160208101909152600081529092509050613efb565b60408051602081019091529081526000969095509350505050565b6000808311613faa5760405162461bcd60e51b8152600401808060200182810382526022815260200180614d9a6022913960400191505060405180910390fd5b60008211613fe95760405162461bcd60e51b8152600401808060200182810382526026815260200180614cbd6026913960400191505060405180910390fd5b600061401685670de0b6b3a76400006040518060600160405280602e8152602001614d6c602e91396144db565b905060006140408286600a0a604051806060016040528060288152602001614a186028913961461c565b9050600061406a8286600a0a604051806060016040528060238152602001614ce36023913961461c565b60408051898152602081018990528082018890526060810183905290519192507ffe9d10d13b2ee3396d1e4efc88cb4dbf5174580f2599868a20372cd286b4566f919081900360800190a19695505050505050565b60006140c96148c3565b600080613ee58660000151866000015161467e565b60006140e86148c3565b600080613f1d8660000151866146a4565b6055546036546035546040805163b3596f0760e01b81526001600160a01b0392831660048201529051600094938593169163b3596f07916024808301926020929190829003018186803b15801561414f57600080fd5b505afa158015614163573d6000803e3d6000fd5b505050506040513d602081101561417957600080fd5b50516035546036546040805163a9ec70d160e01b81526001600160a01b0393841660048201819052915194955090936000939092169163a9ec70d191602480820192602092909190829003018186803b1580156141d557600080fd5b505afa1580156141e9573d6000803e3d6000fd5b505050506040513d60208110156141ff57600080fd5b50516040805163313ce56760e01b8152905160ff90921692506000916001600160a01b0385169163313ce567916004808301926020929190829003018186803b15801561424b57600080fd5b505afa15801561425f573d6000803e3d6000fd5b505050506040513d602081101561427557600080fd5b505160555460ff909116915060009061428f908690613dc1565b9050600061429e828486613f6a565b604080516020810190915260385481529091506000906142bf908c90614422565b9050808211156143925760006142f18286600a0a604051806060016040528060388152602001614b5b603891396144db565b9050600061431b8288600a0a604051806060016040528060398152602001614d33603991396144db565b9050600061434a82670de0b6b3a76400006040518060600160405280602d8152602001614b93602d913961461c565b905061438c818b6040518060400160405280601d81526020017f4d6178205370656564206469766973696f6e2067617665206572726f7200000081525061461c565b9a505050505b60555460408051918252602082018990528181018d9052606082018c90526080820183905260a0820184905260c082018a9052517fa4dc08eb8e90f2fb1c44ca5d6b4b7fc9894bfb25fa369fa001241c8ec8d7895f9181900360e00190a150959998505050505050505050565b60006144096148c3565b8351835161441791906146cf565b915091509250929050565b6000670de0b6b3a764000061443b848460000151613dc1565b8161444257fe5b049392505050565b6054546000906001600160e01b03166017146144b25760545460408051808201909152601a81527f637572436c6f636b203a204164646974696f6e204661696c656400000000000060208201526144ad916001600160e01b031690600190613d63565b6144b5565b60005b605480546001600160e01b0319166001600160e01b039290921691909117905550600190565b60008315806144e8575082155b156144f557506000611673565b8383028385828161450257fe5b04148390613db85760405162461bcd60e51b8152602060048201818152835160248401528351909283926044909101919085019080838360008315612fd2578181015183820152602001612fba565b600061167383836040518060400160405280600e81526020016d646976696465206279207a65726f60901b81525061461c565b60006116738383604051806040016040528060118152602001706164646974696f6e206f766572666c6f7760781b815250613d63565b6000808383116145d1575060009050818303613efb565b50600390506000613efb565b600080836145f057506000905080613efb565b838302838582816145fd57fe5b041461461157506002915060009050613efb565b600092509050613efb565b6000818361466b5760405162461bcd60e51b8152602060048201818152835160248401528351909283926044909101919085019080838360008315612fd2578181015183820152602001612fba565b5082848161467557fe5b04949350505050565b60008083830184811061469657600092509050613efb565b506002915060009050613efb565b600080826146b85750600190506000613efb565b60008385816146c357fe5b04915091509250929050565b60006146d96148c3565b6000806146ee86670de0b6b3a76400006145dd565b9092509050600082600381111561470157fe5b1461472057506040805160208101909152600081529092509050613efb565b60008061472d83886146a4565b9092509050600082600381111561474057fe5b1461476257506040805160208101909152600081529094509250613efb915050565b604080516020810190915290815260009890975095505050505050565b6040518061030001604052806018906020820280388339509192915050565b82601881019282156147cc579160200282015b828111156147cc5782518255916020019190600101906147b1565b506147d89291506148d6565b5090565b828054600181600116156101000203166002900490600052602060002090601f016020900481019282601f1061481d57805160ff19168380011785556147cc565b828001600101855582156147cc57918201828111156147cc5782518255916020019190600101906147b1565b815481835581811115612176576000838152602090206121769181019083016148d6565b50805460018160011615610100020316600290046000825580601f1061489357506148b1565b601f0160209004906000526020600020908101906148b191906148d6565b50565b506148b19060188101906148d6565b6040518060200160405280600081525090565b61097691905b808211156147d857600081556001016148dc56fe546865206e65772050726f6669742050657263656e74616765206d7573742062652067726561746572207468616e20302e3031653138202831252920496e737472756d656e74206e6f742070726f7065726c792072656d6f7665642066726f6d20746865206c697374206f6620696e737472756d656e747320737570706f7274656452656672657368205349474820537065656473203a205375627472616374696f6e20756e646572666c6f7720666f7220626c6f636b73496e737472756d656e7420616c726561647920636f766572656420756e646572205349474820446973747269627574696f6e204d656368616e69736d537570706c696572207370656564206164646974696f6e2077697468207374616b696e67207370656564206f766572666c6f77496e737472756d656e7420446563696d616c7320636f7272656374696f6e20756e646572666c6f775468652063616c6c6572206d75737420626520746865204c656e64696e6720706f6f6c20436f726520636f6e7472616374496e737472756d656e7420616c7265616479206e6f7420737570706f7274656420627920746865205349474820446973747269627574696f6e204d656368616e69736d5468652063616c6c6572206d7573742062652074686520534947482046696e616e61636520436f6e666967757261746f7220436f6e74726163747265667265736853494748537065656473496e7465726e616c203a204f7261636c652072657475726e656420496e76616c6964205072696365546865206e657720537570706c69657220526174696f206d757374206265206c657373207468616e2032653138202832303025294d617820566f6c6174696c697479203a205349474820446563696d616c73206d756c7469706c69636174696f6e2067617665206572726f724d617820566f6c6174696c697479203a20446563696d616c73206469766973696f6e2067617665206572726f7244656c7461426c6f636b7320726573756c74656420696e20556e646572666c6f775570646174696e67205369676820537570706c7920496e6465786573206f7065726174696f6e206661696c656475706461746553494748426f72726f77496e646578203a20426c6f636b205375627472616374696f6e20556e646572666c6f775570646174696e6720496e737472756d656e7420496e6465786573204661696c6564436f6e747261637420696e7374616e63652068617320616c7265616479206265656e20696e697469616c697a65644661696c656420746f207472616e736665722061636375726564205349474820746f2074686520757365722e4f7261636c652072657475726e656420696e76616c696420707269636520446563696d616c73507269636520446563696d616c7320636f7272656374696f6e20756e646572666c6f775570646174696e67205369676820426f72726f7720496e6465786573206f7065726174696f6e206661696c65644d617820566f6c6174696c697479203a20507269636520446563696d616c73206d756c7469706c69636174696f6e2067617665206572726f724c6f737320416d6f756e74206d756c7469706c69636174696f6e2041646a7573746d656e74206f766572666c6f77496e737472756d656e7420446563696d616c732063616e6e6f74206265205a65726f75706461746553494748537570706c79496e646578203a20426c6f636b205375627472616374696f6e20556e646572666c6f77496e737472756d656e74206e6f7420737570706f727465642e00000000000000a265627a7a723158207ba7c1815722b2495f07b83535a84be0907582c5afcf874b3881c3b23625aef664736f6c63430005110032",
			"opcodes": "PUSH1 0x0 DUP1 DUP1 SSTORE PUSH1 0x37 DUP1 SLOAD PUSH1 0xFF PUSH1 0xA0 SHL NOT AND SWAP1 SSTORE PUSH1 0xA0 PUSH1 0x40 MSTORE PUSH1 0x80 DUP2 SWAP1 MSTORE PUSH1 0x38 SSTORE PUSH1 0x1 PUSH1 0x57 SSTORE CALLVALUE DUP1 ISZERO PUSH2 0x2F JUMPI PUSH1 0x0 DUP1 REVERT JUMPDEST POP PUSH2 0x4E43 DUP1 PUSH2 0x3F PUSH1 0x0 CODECOPY PUSH1 0x0 RETURN INVALID PUSH1 0x80 PUSH1 0x40 MSTORE CALLVALUE DUP1 ISZERO PUSH2 0x10 JUMPI PUSH1 0x0 DUP1 REVERT JUMPDEST POP PUSH1 0x4 CALLDATASIZE LT PUSH2 0x21C JUMPI PUSH1 0x0 CALLDATALOAD PUSH1 0xE0 SHR DUP1 PUSH4 0x7C52B668 GT PUSH2 0x125 JUMPI DUP1 PUSH4 0xBF1678F6 GT PUSH2 0xAD JUMPI DUP1 PUSH4 0xC72C4D10 GT PUSH2 0x7C JUMPI DUP1 PUSH4 0xC72C4D10 EQ PUSH2 0x727 JUMPI DUP1 PUSH4 0xD6357063 EQ PUSH2 0x72F JUMPI DUP1 PUSH4 0xEEABE79F EQ PUSH2 0x755 JUMPI DUP1 PUSH4 0xF9665D44 EQ PUSH2 0x75D JUMPI DUP1 PUSH4 0xFFFFD7FB EQ PUSH2 0x78B JUMPI PUSH2 0x21C JUMP JUMPDEST DUP1 PUSH4 0xBF1678F6 EQ PUSH2 0x6CB JUMPI DUP1 PUSH4 0xC3D1B72D EQ PUSH2 0x6D3 JUMPI DUP1 PUSH4 0xC4D66DE8 EQ PUSH2 0x6F9 JUMPI DUP1 PUSH4 0xC6A6BFB1 EQ PUSH2 0x71F JUMPI PUSH2 0x21C JUMP JUMPDEST DUP1 PUSH4 0x832C6C90 GT PUSH2 0xF4 JUMPI DUP1 PUSH4 0x832C6C90 EQ PUSH2 0x616 JUMPI DUP1 PUSH4 0x8D9CF864 EQ PUSH2 0x63B JUMPI DUP1 PUSH4 0x8E26FC38 EQ PUSH2 0x661 JUMPI DUP1 PUSH4 0x9A717B24 EQ PUSH2 0x69D JUMPI DUP1 PUSH4 0xBE36810A EQ PUSH2 0x6C3 JUMPI PUSH2 0x21C JUMP JUMPDEST DUP1 PUSH4 0x7C52B668 EQ PUSH2 0x586 JUMPI DUP1 PUSH4 0x7C55CCB3 EQ PUSH2 0x5AC JUMPI DUP1 PUSH4 0x7DC0D1D0 EQ PUSH2 0x5B6 JUMPI DUP1 PUSH4 0x831449DE EQ PUSH2 0x5BE JUMPI PUSH2 0x21C JUMP JUMPDEST DUP1 PUSH4 0x4DC54A38 GT PUSH2 0x1A8 JUMPI DUP1 PUSH4 0x52BBE658 GT PUSH2 0x177 JUMPI DUP1 PUSH4 0x52BBE658 EQ PUSH2 0x47F JUMPI DUP1 PUSH4 0x570B39D0 EQ PUSH2 0x4B5 JUMPI DUP1 PUSH4 0x659F73C5 EQ PUSH2 0x4BD JUMPI DUP1 PUSH4 0x663E34C2 EQ PUSH2 0x4FE JUMPI DUP1 PUSH4 0x6F610C50 EQ PUSH2 0x57E JUMPI PUSH2 0x21C JUMP JUMPDEST DUP1 PUSH4 0x4DC54A38 EQ PUSH2 0x330 JUMPI DUP1 PUSH4 0x4DF859FD EQ PUSH2 0x407 JUMPI DUP1 PUSH4 0x4F425FBB EQ PUSH2 0x433 JUMPI DUP1 PUSH4 0x4F78DEEF EQ PUSH2 0x459 JUMPI PUSH2 0x21C JUMP JUMPDEST DUP1 PUSH4 0x1E7FAED9 GT PUSH2 0x1EF JUMPI DUP1 PUSH4 0x1E7FAED9 EQ PUSH2 0x2C5 JUMPI DUP1 PUSH4 0x21428A12 EQ PUSH2 0x2E2 JUMPI DUP1 PUSH4 0x2DF0F9A9 EQ PUSH2 0x2EA JUMPI DUP1 PUSH4 0x3E955265 EQ PUSH2 0x307 JUMPI DUP1 PUSH4 0x42CBB15C EQ PUSH2 0x30F JUMPI PUSH2 0x21C JUMP JUMPDEST DUP1 PUSH4 0x4C66321 EQ PUSH2 0x221 JUMPI DUP1 PUSH4 0xD7FF887 EQ PUSH2 0x261 JUMPI DUP1 PUSH4 0xEF9E9D7 EQ PUSH2 0x285 JUMPI DUP1 PUSH4 0x10FA61E6 EQ PUSH2 0x29F JUMPI JUMPDEST PUSH1 0x0 DUP1 REVERT JUMPDEST PUSH2 0x24D PUSH1 0x4 DUP1 CALLDATASIZE SUB PUSH1 0x40 DUP2 LT ISZERO PUSH2 0x237 JUMPI PUSH1 0x0 DUP1 REVERT JUMPDEST POP PUSH1 0x1 PUSH1 0x1 PUSH1 0xA0 SHL SUB DUP2 CALLDATALOAD AND SWAP1 PUSH1 0x20 ADD CALLDATALOAD PUSH2 0x7B1 JUMP JUMPDEST PUSH1 0x40 DUP1 MLOAD SWAP2 ISZERO ISZERO DUP3 MSTORE MLOAD SWAP1 DUP2 SWAP1 SUB PUSH1 0x20 ADD SWAP1 RETURN JUMPDEST PUSH2 0x269 PUSH2 0x963 JUMP JUMPDEST PUSH1 0x40 DUP1 MLOAD PUSH1 0x1 PUSH1 0x1 PUSH1 0xA0 SHL SUB SWAP1 SWAP3 AND DUP3 MSTORE MLOAD SWAP1 DUP2 SWAP1 SUB PUSH1 0x20 ADD SWAP1 RETURN JUMPDEST PUSH2 0x28D PUSH2 0x972 JUMP JUMPDEST PUSH1 0x40 DUP1 MLOAD SWAP2 DUP3 MSTORE MLOAD SWAP1 DUP2 SWAP1 SUB PUSH1 0x20 ADD SWAP1 RETURN JUMPDEST PUSH2 0x28D PUSH1 0x4 DUP1 CALLDATASIZE SUB PUSH1 0x20 DUP2 LT ISZERO PUSH2 0x2B5 JUMPI PUSH1 0x0 DUP1 REVERT JUMPDEST POP CALLDATALOAD PUSH1 0x1 PUSH1 0x1 PUSH1 0xA0 SHL SUB AND PUSH2 0x979 JUMP JUMPDEST PUSH2 0x24D PUSH1 0x4 DUP1 CALLDATASIZE SUB PUSH1 0x20 DUP2 LT ISZERO PUSH2 0x2DB JUMPI PUSH1 0x0 DUP1 REVERT JUMPDEST POP CALLDATALOAD PUSH2 0x9C5 JUMP JUMPDEST PUSH2 0x269 PUSH2 0xAF8 JUMP JUMPDEST PUSH2 0x24D PUSH1 0x4 DUP1 CALLDATASIZE SUB PUSH1 0x20 DUP2 LT ISZERO PUSH2 0x300 JUMPI PUSH1 0x0 DUP1 REVERT JUMPDEST POP CALLDATALOAD PUSH2 0xB07 JUMP JUMPDEST PUSH2 0x28D PUSH2 0xC0E JUMP JUMPDEST PUSH2 0x317 PUSH2 0xC14 JUMP JUMPDEST PUSH1 0x40 DUP1 MLOAD PUSH4 0xFFFFFFFF SWAP1 SWAP3 AND DUP3 MSTORE MLOAD SWAP1 DUP2 SWAP1 SUB PUSH1 0x20 ADD SWAP1 RETURN JUMPDEST PUSH2 0x356 PUSH1 0x4 DUP1 CALLDATASIZE SUB PUSH1 0x20 DUP2 LT ISZERO PUSH2 0x346 JUMPI PUSH1 0x0 DUP1 REVERT JUMPDEST POP CALLDATALOAD PUSH1 0x1 PUSH1 0x1 PUSH1 0xA0 SHL SUB AND PUSH2 0xC18 JUMP JUMPDEST PUSH1 0x40 MLOAD DUP1 DUP1 PUSH1 0x20 ADD DUP8 PUSH1 0x1 PUSH1 0x1 PUSH1 0xA0 SHL SUB AND PUSH1 0x1 PUSH1 0x1 PUSH1 0xA0 SHL SUB AND DUP2 MSTORE PUSH1 0x20 ADD DUP7 DUP2 MSTORE PUSH1 0x20 ADD DUP6 ISZERO ISZERO ISZERO ISZERO DUP2 MSTORE PUSH1 0x20 ADD DUP5 DUP2 MSTORE PUSH1 0x20 ADD DUP4 DUP2 MSTORE PUSH1 0x20 ADD DUP3 DUP2 SUB DUP3 MSTORE DUP9 DUP2 DUP2 MLOAD DUP2 MSTORE PUSH1 0x20 ADD SWAP2 POP DUP1 MLOAD SWAP1 PUSH1 0x20 ADD SWAP1 DUP1 DUP4 DUP4 PUSH1 0x0 JUMPDEST DUP4 DUP2 LT ISZERO PUSH2 0x3C7 JUMPI DUP2 DUP2 ADD MLOAD DUP4 DUP3 ADD MSTORE PUSH1 0x20 ADD PUSH2 0x3AF JUMP JUMPDEST POP POP POP POP SWAP1 POP SWAP1 DUP2 ADD SWAP1 PUSH1 0x1F AND DUP1 ISZERO PUSH2 0x3F4 JUMPI DUP1 DUP3 SUB DUP1 MLOAD PUSH1 0x1 DUP4 PUSH1 0x20 SUB PUSH2 0x100 EXP SUB NOT AND DUP2 MSTORE PUSH1 0x20 ADD SWAP2 POP JUMPDEST POP SWAP8 POP POP POP POP POP POP POP POP PUSH1 0x40 MLOAD DUP1 SWAP2 SUB SWAP1 RETURN JUMPDEST PUSH2 0x28D PUSH1 0x4 DUP1 CALLDATASIZE SUB PUSH1 0x40 DUP2 LT ISZERO PUSH2 0x41D JUMPI PUSH1 0x0 DUP1 REVERT JUMPDEST POP PUSH1 0x1 PUSH1 0x1 PUSH1 0xA0 SHL SUB DUP2 CALLDATALOAD AND SWAP1 PUSH1 0x20 ADD CALLDATALOAD PUSH2 0xD06 JUMP JUMPDEST PUSH2 0x24D PUSH1 0x4 DUP1 CALLDATASIZE SUB PUSH1 0x20 DUP2 LT ISZERO PUSH2 0x449 JUMPI PUSH1 0x0 DUP1 REVERT JUMPDEST POP CALLDATALOAD PUSH1 0x1 PUSH1 0x1 PUSH1 0xA0 SHL SUB AND PUSH2 0xD32 JUMP JUMPDEST PUSH2 0x24D PUSH1 0x4 DUP1 CALLDATASIZE SUB PUSH1 0x20 DUP2 LT ISZERO PUSH2 0x46F JUMPI PUSH1 0x0 DUP1 REVERT JUMPDEST POP CALLDATALOAD PUSH1 0x1 PUSH1 0x1 PUSH1 0xA0 SHL SUB AND PUSH2 0xE25 JUMP JUMPDEST PUSH2 0x24D PUSH1 0x4 DUP1 CALLDATASIZE SUB PUSH1 0x60 DUP2 LT ISZERO PUSH2 0x495 JUMPI PUSH1 0x0 DUP1 REVERT JUMPDEST POP PUSH1 0x1 PUSH1 0x1 PUSH1 0xA0 SHL SUB DUP2 CALLDATALOAD DUP2 AND SWAP2 PUSH1 0x20 DUP2 ADD CALLDATALOAD SWAP1 SWAP2 AND SWAP1 PUSH1 0x40 ADD CALLDATALOAD PUSH2 0x1100 JUMP JUMPDEST PUSH2 0x28D PUSH2 0x167A JUMP JUMPDEST PUSH2 0x4C5 PUSH2 0x1680 JUMP JUMPDEST PUSH1 0x40 MLOAD DUP1 DUP3 PUSH2 0x300 DUP1 DUP4 DUP4 PUSH1 0x0 JUMPDEST DUP4 DUP2 LT ISZERO PUSH2 0x4EB JUMPI DUP2 DUP2 ADD MLOAD DUP4 DUP3 ADD MSTORE PUSH1 0x20 ADD PUSH2 0x4D3 JUMP JUMPDEST POP POP POP POP SWAP1 POP ADD SWAP2 POP POP PUSH1 0x40 MLOAD DUP1 SWAP2 SUB SWAP1 RETURN JUMPDEST PUSH2 0x524 PUSH1 0x4 DUP1 CALLDATASIZE SUB PUSH1 0x20 DUP2 LT ISZERO PUSH2 0x514 JUMPI PUSH1 0x0 DUP1 REVERT JUMPDEST POP CALLDATALOAD PUSH1 0x1 PUSH1 0x1 PUSH1 0xA0 SHL SUB AND PUSH2 0x16BD JUMP JUMPDEST PUSH1 0x40 MLOAD DUP1 DUP8 DUP2 MSTORE PUSH1 0x20 ADD DUP7 DUP2 MSTORE PUSH1 0x20 ADD DUP6 DUP2 MSTORE PUSH1 0x20 ADD DUP5 DUP2 MSTORE PUSH1 0x20 ADD DUP1 PUSH1 0x20 ADD DUP4 DUP2 MSTORE PUSH1 0x20 ADD DUP3 DUP2 SUB DUP3 MSTORE DUP5 DUP2 DUP2 MLOAD DUP2 MSTORE PUSH1 0x20 ADD SWAP2 POP DUP1 MLOAD SWAP1 PUSH1 0x20 ADD SWAP1 DUP1 DUP4 DUP4 PUSH1 0x0 DUP4 DUP2 LT ISZERO PUSH2 0x3C7 JUMPI DUP2 DUP2 ADD MLOAD DUP4 DUP3 ADD MSTORE PUSH1 0x20 ADD PUSH2 0x3AF JUMP JUMPDEST PUSH2 0x28D PUSH2 0x17A0 JUMP JUMPDEST PUSH2 0x24D PUSH1 0x4 DUP1 CALLDATASIZE SUB PUSH1 0x20 DUP2 LT ISZERO PUSH2 0x59C JUMPI PUSH1 0x0 DUP1 REVERT JUMPDEST POP CALLDATALOAD PUSH1 0x1 PUSH1 0x1 PUSH1 0xA0 SHL SUB AND PUSH2 0x17D7 JUMP JUMPDEST PUSH2 0x5B4 PUSH2 0x18C2 JUMP JUMPDEST STOP JUMPDEST PUSH2 0x269 PUSH2 0x1981 JUMP JUMPDEST PUSH2 0x5C6 PUSH2 0x1990 JUMP JUMPDEST PUSH1 0x40 DUP1 MLOAD PUSH1 0x20 DUP1 DUP3 MSTORE DUP4 MLOAD DUP2 DUP4 ADD MSTORE DUP4 MLOAD SWAP2 SWAP3 DUP4 SWAP3 SWAP1 DUP4 ADD SWAP2 DUP6 DUP2 ADD SWAP2 MUL DUP1 DUP4 DUP4 PUSH1 0x0 JUMPDEST DUP4 DUP2 LT ISZERO PUSH2 0x602 JUMPI DUP2 DUP2 ADD MLOAD DUP4 DUP3 ADD MSTORE PUSH1 0x20 ADD PUSH2 0x5EA JUMP JUMPDEST POP POP POP POP SWAP1 POP ADD SWAP3 POP POP POP PUSH1 0x40 MLOAD DUP1 SWAP2 SUB SWAP1 RETURN JUMPDEST PUSH2 0x24D PUSH1 0x4 DUP1 CALLDATASIZE SUB PUSH1 0x40 DUP2 LT ISZERO PUSH2 0x62C JUMPI PUSH1 0x0 DUP1 REVERT JUMPDEST POP DUP1 CALLDATALOAD ISZERO ISZERO SWAP1 PUSH1 0x20 ADD CALLDATALOAD PUSH2 0x19F1 JUMP JUMPDEST PUSH2 0x317 PUSH1 0x4 DUP1 CALLDATASIZE SUB PUSH1 0x20 DUP2 LT ISZERO PUSH2 0x651 JUMPI PUSH1 0x0 DUP1 REVERT JUMPDEST POP CALLDATALOAD PUSH1 0x1 PUSH1 0x1 PUSH1 0xA0 SHL SUB AND PUSH2 0x1C0C JUMP JUMPDEST PUSH2 0x28D PUSH1 0x4 DUP1 CALLDATASIZE SUB PUSH1 0x80 DUP2 LT ISZERO PUSH2 0x677 JUMPI PUSH1 0x0 DUP1 REVERT JUMPDEST POP PUSH1 0x1 PUSH1 0x1 PUSH1 0xA0 SHL SUB DUP2 CALLDATALOAD DUP2 AND SWAP2 PUSH1 0x20 DUP2 ADD CALLDATALOAD DUP3 AND SWAP2 PUSH1 0x40 DUP3 ADD CALLDATALOAD AND SWAP1 PUSH1 0x60 ADD CALLDATALOAD PUSH2 0x1C30 JUMP JUMPDEST PUSH2 0x28D PUSH1 0x4 DUP1 CALLDATASIZE SUB PUSH1 0x20 DUP2 LT ISZERO PUSH2 0x6B3 JUMPI PUSH1 0x0 DUP1 REVERT JUMPDEST POP CALLDATALOAD PUSH1 0x1 PUSH1 0x1 PUSH1 0xA0 SHL SUB AND PUSH2 0x1F9F JUMP JUMPDEST PUSH2 0x28D PUSH2 0x1FE2 JUMP JUMPDEST PUSH2 0x24D PUSH2 0x1FE8 JUMP JUMPDEST PUSH2 0x24D PUSH1 0x4 DUP1 CALLDATASIZE SUB PUSH1 0x20 DUP2 LT ISZERO PUSH2 0x6E9 JUMPI PUSH1 0x0 DUP1 REVERT JUMPDEST POP CALLDATALOAD PUSH1 0x1 PUSH1 0x1 PUSH1 0xA0 SHL SUB AND PUSH2 0x203D JUMP JUMPDEST PUSH2 0x5B4 PUSH1 0x4 DUP1 CALLDATASIZE SUB PUSH1 0x20 DUP2 LT ISZERO PUSH2 0x70F JUMPI PUSH1 0x0 DUP1 REVERT JUMPDEST POP CALLDATALOAD PUSH1 0x1 PUSH1 0x1 PUSH1 0xA0 SHL SUB AND PUSH2 0x205B JUMP JUMPDEST PUSH2 0x28D PUSH2 0x217B JUMP JUMPDEST PUSH2 0x269 PUSH2 0x21FD JUMP JUMPDEST PUSH2 0x4C5 PUSH1 0x4 DUP1 CALLDATASIZE SUB PUSH1 0x20 DUP2 LT ISZERO PUSH2 0x745 JUMPI PUSH1 0x0 DUP1 REVERT JUMPDEST POP CALLDATALOAD PUSH1 0x1 PUSH1 0x1 PUSH1 0xA0 SHL SUB AND PUSH2 0x220C JUMP JUMPDEST PUSH2 0x28D PUSH2 0x225F JUMP JUMPDEST PUSH2 0x24D PUSH1 0x4 DUP1 CALLDATASIZE SUB PUSH1 0x40 DUP2 LT ISZERO PUSH2 0x773 JUMPI PUSH1 0x0 DUP1 REVERT JUMPDEST POP PUSH1 0x1 PUSH1 0x1 PUSH1 0xA0 SHL SUB DUP2 CALLDATALOAD DUP2 AND SWAP2 PUSH1 0x20 ADD CALLDATALOAD AND PUSH2 0x2265 JUMP JUMPDEST PUSH2 0x24D PUSH1 0x4 DUP1 CALLDATASIZE SUB PUSH1 0x20 DUP2 LT ISZERO PUSH2 0x7A1 JUMPI PUSH1 0x0 DUP1 REVERT JUMPDEST POP CALLDATALOAD PUSH1 0x1 PUSH1 0x1 PUSH1 0xA0 SHL SUB AND PUSH2 0x2679 JUMP JUMPDEST PUSH1 0x0 CALLER PUSH1 0x1 PUSH1 0x1 PUSH1 0xA0 SHL SUB AND PUSH1 0x34 PUSH1 0x0 SWAP1 SLOAD SWAP1 PUSH2 0x100 EXP SWAP1 DIV PUSH1 0x1 PUSH1 0x1 PUSH1 0xA0 SHL SUB AND PUSH1 0x1 PUSH1 0x1 PUSH1 0xA0 SHL SUB AND PUSH4 0xDB49224B PUSH1 0x40 MLOAD DUP2 PUSH4 0xFFFFFFFF AND PUSH1 0xE0 SHL DUP2 MSTORE PUSH1 0x4 ADD PUSH1 0x20 PUSH1 0x40 MLOAD DUP1 DUP4 SUB DUP2 DUP7 DUP1 EXTCODESIZE ISZERO DUP1 ISZERO PUSH2 0x80B JUMPI PUSH1 0x0 DUP1 REVERT JUMPDEST POP GAS STATICCALL ISZERO DUP1 ISZERO PUSH2 0x81F JUMPI RETURNDATASIZE PUSH1 0x0 DUP1 RETURNDATACOPY RETURNDATASIZE PUSH1 0x0 REVERT JUMPDEST POP POP POP POP PUSH1 0x40 MLOAD RETURNDATASIZE PUSH1 0x20 DUP2 LT ISZERO PUSH2 0x835 JUMPI PUSH1 0x0 DUP1 REVERT JUMPDEST POP MLOAD PUSH1 0x1 PUSH1 0x1 PUSH1 0xA0 SHL SUB AND EQ PUSH2 0x87C JUMPI PUSH1 0x40 MLOAD PUSH3 0x461BCD PUSH1 0xE5 SHL DUP2 MSTORE PUSH1 0x4 ADD DUP1 DUP1 PUSH1 0x20 ADD DUP3 DUP2 SUB DUP3 MSTORE PUSH1 0x3A DUP2 MSTORE PUSH1 0x20 ADD DUP1 PUSH2 0x4AB4 PUSH1 0x3A SWAP2 CODECOPY PUSH1 0x40 ADD SWAP2 POP POP PUSH1 0x40 MLOAD DUP1 SWAP2 SUB SWAP1 REVERT JUMPDEST PUSH1 0x1 PUSH1 0x1 PUSH1 0xA0 SHL SUB DUP4 AND PUSH1 0x0 SWAP1 DUP2 MSTORE PUSH1 0x3A PUSH1 0x20 MSTORE PUSH1 0x40 SWAP1 KECCAK256 SLOAD PUSH1 0xFF AND PUSH2 0x8D7 JUMPI PUSH1 0x40 DUP1 MLOAD PUSH3 0x461BCD PUSH1 0xE5 SHL DUP2 MSTORE PUSH1 0x20 PUSH1 0x4 DUP3 ADD MSTORE PUSH1 0x19 PUSH1 0x24 DUP3 ADD MSTORE PUSH1 0x0 DUP1 MLOAD PUSH1 0x20 PUSH2 0x4DEF DUP4 CODECOPY DUP2 MLOAD SWAP2 MSTORE PUSH1 0x44 DUP3 ADD MSTORE SWAP1 MLOAD SWAP1 DUP2 SWAP1 SUB PUSH1 0x64 ADD SWAP1 REVERT JUMPDEST PUSH1 0x1 PUSH1 0x1 PUSH1 0xA0 SHL SUB DUP4 AND PUSH1 0x0 SWAP1 DUP2 MSTORE PUSH1 0x56 PUSH1 0x20 MSTORE PUSH1 0x40 SWAP1 KECCAK256 PUSH1 0x2 ADD DUP1 SLOAD SWAP1 DUP4 SWAP1 SSTORE PUSH32 0x60AB6BB8F64F97A68E803DC67F55F0A08732FE0DB1E669B39F3B45DD35D9580D DUP5 DUP3 DUP6 PUSH2 0x924 PUSH2 0xC14 JUMP JUMPDEST PUSH1 0x40 DUP1 MLOAD PUSH1 0x1 PUSH1 0x1 PUSH1 0xA0 SHL SUB SWAP1 SWAP6 AND DUP6 MSTORE PUSH1 0x20 DUP6 ADD SWAP4 SWAP1 SWAP4 MSTORE DUP4 DUP4 ADD SWAP2 SWAP1 SWAP2 MSTORE PUSH4 0xFFFFFFFF AND PUSH1 0x60 DUP4 ADD MSTORE MLOAD SWAP1 DUP2 SWAP1 SUB PUSH1 0x80 ADD SWAP1 LOG1 POP PUSH1 0x1 SWAP4 SWAP3 POP POP POP JUMP JUMPDEST PUSH1 0x37 SLOAD PUSH1 0x1 PUSH1 0x1 PUSH1 0xA0 SHL SUB AND DUP2 JUMP JUMPDEST PUSH1 0x38 SLOAD JUMPDEST SWAP1 JUMP JUMPDEST PUSH1 0x1 PUSH1 0x1 PUSH1 0xA0 SHL SUB DUP2 AND PUSH1 0x0 SWAP1 DUP2 MSTORE PUSH1 0x3A PUSH1 0x20 MSTORE PUSH1 0x40 DUP2 KECCAK256 SLOAD PUSH1 0xFF AND ISZERO PUSH2 0x9BC JUMPI POP PUSH1 0x1 PUSH1 0x1 PUSH1 0xA0 SHL SUB DUP2 AND PUSH1 0x0 SWAP1 DUP2 MSTORE PUSH1 0x3A PUSH1 0x20 MSTORE PUSH1 0x40 SWAP1 KECCAK256 PUSH1 0x7 ADD SLOAD PUSH2 0x9C0 JUMP JUMPDEST POP PUSH1 0x0 JUMPDEST SWAP2 SWAP1 POP JUMP JUMPDEST PUSH1 0x0 CALLER PUSH1 0x1 PUSH1 0x1 PUSH1 0xA0 SHL SUB AND PUSH1 0x34 PUSH1 0x0 SWAP1 SLOAD SWAP1 PUSH2 0x100 EXP SWAP1 DIV PUSH1 0x1 PUSH1 0x1 PUSH1 0xA0 SHL SUB AND PUSH1 0x1 PUSH1 0x1 PUSH1 0xA0 SHL SUB AND PUSH4 0xDB49224B PUSH1 0x40 MLOAD DUP2 PUSH4 0xFFFFFFFF AND PUSH1 0xE0 SHL DUP2 MSTORE PUSH1 0x4 ADD PUSH1 0x20 PUSH1 0x40 MLOAD DUP1 DUP4 SUB DUP2 DUP7 DUP1 EXTCODESIZE ISZERO DUP1 ISZERO PUSH2 0xA1F JUMPI PUSH1 0x0 DUP1 REVERT JUMPDEST POP GAS STATICCALL ISZERO DUP1 ISZERO PUSH2 0xA33 JUMPI RETURNDATASIZE PUSH1 0x0 DUP1 RETURNDATACOPY RETURNDATASIZE PUSH1 0x0 REVERT JUMPDEST POP POP POP POP PUSH1 0x40 MLOAD RETURNDATASIZE PUSH1 0x20 DUP2 LT ISZERO PUSH2 0xA49 JUMPI PUSH1 0x0 DUP1 REVERT JUMPDEST POP MLOAD PUSH1 0x1 PUSH1 0x1 PUSH1 0xA0 SHL SUB AND EQ PUSH2 0xA90 JUMPI PUSH1 0x40 MLOAD PUSH3 0x461BCD PUSH1 0xE5 SHL DUP2 MSTORE PUSH1 0x4 ADD DUP1 DUP1 PUSH1 0x20 ADD DUP3 DUP2 SUB DUP3 MSTORE PUSH1 0x3A DUP2 MSTORE PUSH1 0x20 ADD DUP1 PUSH2 0x4AB4 PUSH1 0x3A SWAP2 CODECOPY PUSH1 0x40 ADD SWAP2 POP POP PUSH1 0x40 MLOAD DUP1 SWAP2 SUB SWAP1 REVERT JUMPDEST PUSH2 0xA98 PUSH2 0x1FE8 JUMP JUMPDEST POP PUSH1 0x57 DUP1 SLOAD SWAP1 DUP4 SWAP1 SSTORE PUSH32 0x8574A512A3537F7F97E2C60304507AA6816866C2D1FED5FFA1815CB01D2B1E44 DUP2 DUP5 PUSH2 0xACC PUSH2 0xC14 JUMP JUMPDEST PUSH1 0x40 DUP1 MLOAD SWAP4 DUP5 MSTORE PUSH1 0x20 DUP5 ADD SWAP3 SWAP1 SWAP3 MSTORE PUSH4 0xFFFFFFFF AND DUP3 DUP3 ADD MSTORE MLOAD SWAP1 DUP2 SWAP1 SUB PUSH1 0x60 ADD SWAP1 LOG1 POP PUSH1 0x1 SWAP3 SWAP2 POP POP JUMP JUMPDEST PUSH1 0x35 SLOAD PUSH1 0x1 PUSH1 0x1 PUSH1 0xA0 SHL SUB AND DUP2 JUMP JUMPDEST PUSH1 0x0 CALLER PUSH1 0x1 PUSH1 0x1 PUSH1 0xA0 SHL SUB AND PUSH1 0x34 PUSH1 0x0 SWAP1 SLOAD SWAP1 PUSH2 0x100 EXP SWAP1 DIV PUSH1 0x1 PUSH1 0x1 PUSH1 0xA0 SHL SUB AND PUSH1 0x1 PUSH1 0x1 PUSH1 0xA0 SHL SUB AND PUSH4 0xDB49224B PUSH1 0x40 MLOAD DUP2 PUSH4 0xFFFFFFFF AND PUSH1 0xE0 SHL DUP2 MSTORE PUSH1 0x4 ADD PUSH1 0x20 PUSH1 0x40 MLOAD DUP1 DUP4 SUB DUP2 DUP7 DUP1 EXTCODESIZE ISZERO DUP1 ISZERO PUSH2 0xB61 JUMPI PUSH1 0x0 DUP1 REVERT JUMPDEST POP GAS STATICCALL ISZERO DUP1 ISZERO PUSH2 0xB75 JUMPI RETURNDATASIZE PUSH1 0x0 DUP1 RETURNDATACOPY RETURNDATASIZE PUSH1 0x0 REVERT JUMPDEST POP POP POP POP PUSH1 0x40 MLOAD RETURNDATASIZE PUSH1 0x20 DUP2 LT ISZERO PUSH2 0xB8B JUMPI PUSH1 0x0 DUP1 REVERT JUMPDEST POP MLOAD PUSH1 0x1 PUSH1 0x1 PUSH1 0xA0 SHL SUB AND EQ PUSH2 0xBD2 JUMPI PUSH1 0x40 MLOAD PUSH3 0x461BCD PUSH1 0xE5 SHL DUP2 MSTORE PUSH1 0x4 ADD DUP1 DUP1 PUSH1 0x20 ADD DUP3 DUP2 SUB DUP3 MSTORE PUSH1 0x3A DUP2 MSTORE PUSH1 0x20 ADD DUP1 PUSH2 0x4AB4 PUSH1 0x3A SWAP2 CODECOPY PUSH1 0x40 ADD SWAP2 POP POP PUSH1 0x40 MLOAD DUP1 SWAP2 SUB SWAP1 REVERT JUMPDEST PUSH2 0xBDA PUSH2 0x1FE8 JUMP JUMPDEST POP PUSH1 0x55 DUP1 SLOAD SWAP1 DUP4 SWAP1 SSTORE PUSH32 0xB35AE78D38C9AD12FEAB06BFA59B6D4364D33E312F0E00FFB1776F0C60E5FF7A DUP2 DUP5 PUSH2 0xACC PUSH2 0xC14 JUMP JUMPDEST PUSH1 0x58 SLOAD SWAP1 JUMP JUMPDEST NUMBER SWAP1 JUMP JUMPDEST PUSH1 0x1 PUSH1 0x1 PUSH1 0xA0 SHL SUB DUP2 DUP2 AND PUSH1 0x0 SWAP1 DUP2 MSTORE PUSH1 0x3A PUSH1 0x20 SWAP1 DUP2 MSTORE PUSH1 0x40 DUP1 DUP4 KECCAK256 PUSH1 0x2 DUP1 DUP3 ADD SLOAD PUSH1 0x3 DUP4 ADD SLOAD PUSH1 0x4 DUP5 ADD SLOAD PUSH1 0x5 DUP6 ADD SLOAD PUSH1 0x7 DUP7 ADD SLOAD PUSH1 0x1 SWAP7 DUP8 ADD DUP1 SLOAD DUP10 MLOAD PUSH2 0x100 SWAP10 DUP3 AND ISZERO SWAP10 SWAP1 SWAP10 MUL PUSH1 0x0 NOT ADD AND SWAP7 SWAP1 SWAP7 DIV PUSH1 0x1F DUP2 ADD DUP11 SWAP1 DIV DUP11 MUL DUP9 ADD DUP11 ADD SWAP1 SWAP9 MSTORE DUP8 DUP8 MSTORE PUSH1 0x60 SWAP11 DUP11 SWAP10 DUP11 SWAP10 DUP11 SWAP10 DUP11 SWAP10 SWAP9 SWAP1 SWAP4 AND SWAP7 SWAP6 PUSH1 0xFF AND SWAP5 SWAP4 SWAP3 SWAP2 DUP9 SWAP2 SWAP1 DUP4 ADD DUP3 DUP3 DUP1 ISZERO PUSH2 0xCEA JUMPI DUP1 PUSH1 0x1F LT PUSH2 0xCBF JUMPI PUSH2 0x100 DUP1 DUP4 SLOAD DIV MUL DUP4 MSTORE SWAP2 PUSH1 0x20 ADD SWAP2 PUSH2 0xCEA JUMP JUMPDEST DUP3 ADD SWAP2 SWAP1 PUSH1 0x0 MSTORE PUSH1 0x20 PUSH1 0x0 KECCAK256 SWAP1 JUMPDEST DUP2 SLOAD DUP2 MSTORE SWAP1 PUSH1 0x1 ADD SWAP1 PUSH1 0x20 ADD DUP1 DUP4 GT PUSH2 0xCCD JUMPI DUP3 SWAP1 SUB PUSH1 0x1F AND DUP3 ADD SWAP2 JUMPDEST POP POP POP POP POP SWAP6 POP SWAP6 POP SWAP6 POP SWAP6 POP SWAP6 POP SWAP6 POP SWAP6 POP SWAP2 SWAP4 SWAP6 POP SWAP2 SWAP4 SWAP6 JUMP JUMPDEST PUSH1 0x1 PUSH1 0x1 PUSH1 0xA0 SHL SUB DUP3 AND PUSH1 0x0 SWAP1 DUP2 MSTORE PUSH1 0x3B PUSH1 0x20 MSTORE PUSH1 0x40 DUP2 KECCAK256 DUP3 PUSH1 0x18 DUP2 LT PUSH2 0xD29 JUMPI INVALID JUMPDEST ADD SLOAD SWAP4 SWAP3 POP POP POP JUMP JUMPDEST PUSH1 0x37 SLOAD PUSH1 0x0 SWAP1 PUSH1 0x1 PUSH1 0x1 PUSH1 0xA0 SHL SUB AND CALLER EQ PUSH2 0xD7E JUMPI PUSH1 0x40 MLOAD PUSH3 0x461BCD PUSH1 0xE5 SHL DUP2 MSTORE PUSH1 0x4 ADD DUP1 DUP1 PUSH1 0x20 ADD DUP3 DUP2 SUB DUP3 MSTORE PUSH1 0x31 DUP2 MSTORE PUSH1 0x20 ADD DUP1 PUSH2 0x4A40 PUSH1 0x31 SWAP2 CODECOPY PUSH1 0x40 ADD SWAP2 POP POP PUSH1 0x40 MLOAD DUP1 SWAP2 SUB SWAP1 REVERT JUMPDEST PUSH1 0x1 PUSH1 0x1 PUSH1 0xA0 SHL SUB DUP3 AND PUSH1 0x0 SWAP1 DUP2 MSTORE PUSH1 0x3A PUSH1 0x20 MSTORE PUSH1 0x40 SWAP1 KECCAK256 SLOAD PUSH1 0xFF AND PUSH2 0xDD9 JUMPI PUSH1 0x40 DUP1 MLOAD PUSH3 0x461BCD PUSH1 0xE5 SHL DUP2 MSTORE PUSH1 0x20 PUSH1 0x4 DUP3 ADD MSTORE PUSH1 0x19 PUSH1 0x24 DUP3 ADD MSTORE PUSH1 0x0 DUP1 MLOAD PUSH1 0x20 PUSH2 0x4DEF DUP4 CODECOPY DUP2 MLOAD SWAP2 MSTORE PUSH1 0x44 DUP3 ADD MSTORE SWAP1 MLOAD SWAP1 DUP2 SWAP1 SUB PUSH1 0x64 ADD SWAP1 REVERT JUMPDEST PUSH2 0xDE2 DUP3 PUSH2 0x2918 JUMP JUMPDEST PUSH2 0xE1D JUMPI PUSH1 0x40 MLOAD PUSH3 0x461BCD PUSH1 0xE5 SHL DUP2 MSTORE PUSH1 0x4 ADD DUP1 DUP1 PUSH1 0x20 ADD DUP3 DUP2 SUB DUP3 MSTORE PUSH1 0x2D DUP2 MSTORE PUSH1 0x20 ADD DUP1 PUSH2 0x4BE1 PUSH1 0x2D SWAP2 CODECOPY PUSH1 0x40 ADD SWAP2 POP POP PUSH1 0x40 MLOAD DUP1 SWAP2 SUB SWAP1 REVERT JUMPDEST POP PUSH1 0x1 SWAP2 SWAP1 POP JUMP JUMPDEST PUSH1 0x0 CALLER PUSH1 0x1 PUSH1 0x1 PUSH1 0xA0 SHL SUB AND PUSH1 0x34 PUSH1 0x0 SWAP1 SLOAD SWAP1 PUSH2 0x100 EXP SWAP1 DIV PUSH1 0x1 PUSH1 0x1 PUSH1 0xA0 SHL SUB AND PUSH1 0x1 PUSH1 0x1 PUSH1 0xA0 SHL SUB AND PUSH4 0xDB49224B PUSH1 0x40 MLOAD DUP2 PUSH4 0xFFFFFFFF AND PUSH1 0xE0 SHL DUP2 MSTORE PUSH1 0x4 ADD PUSH1 0x20 PUSH1 0x40 MLOAD DUP1 DUP4 SUB DUP2 DUP7 DUP1 EXTCODESIZE ISZERO DUP1 ISZERO PUSH2 0xE7F JUMPI PUSH1 0x0 DUP1 REVERT JUMPDEST POP GAS STATICCALL ISZERO DUP1 ISZERO PUSH2 0xE93 JUMPI RETURNDATASIZE PUSH1 0x0 DUP1 RETURNDATACOPY RETURNDATASIZE PUSH1 0x0 REVERT JUMPDEST POP POP POP POP PUSH1 0x40 MLOAD RETURNDATASIZE PUSH1 0x20 DUP2 LT ISZERO PUSH2 0xEA9 JUMPI PUSH1 0x0 DUP1 REVERT JUMPDEST POP MLOAD PUSH1 0x1 PUSH1 0x1 PUSH1 0xA0 SHL SUB AND EQ PUSH2 0xEF0 JUMPI PUSH1 0x40 MLOAD PUSH3 0x461BCD PUSH1 0xE5 SHL DUP2 MSTORE PUSH1 0x4 ADD DUP1 DUP1 PUSH1 0x20 ADD DUP3 DUP2 SUB DUP3 MSTORE PUSH1 0x3A DUP2 MSTORE PUSH1 0x20 ADD DUP1 PUSH2 0x4AB4 PUSH1 0x3A SWAP2 CODECOPY PUSH1 0x40 ADD SWAP2 POP POP PUSH1 0x40 MLOAD DUP1 SWAP2 SUB SWAP1 REVERT JUMPDEST PUSH1 0x1 PUSH1 0x1 PUSH1 0xA0 SHL SUB DUP3 AND PUSH1 0x0 SWAP1 DUP2 MSTORE PUSH1 0x3A PUSH1 0x20 MSTORE PUSH1 0x40 SWAP1 KECCAK256 SLOAD PUSH1 0xFF AND PUSH2 0xF4B JUMPI PUSH1 0x40 DUP1 MLOAD PUSH3 0x461BCD PUSH1 0xE5 SHL DUP2 MSTORE PUSH1 0x20 PUSH1 0x4 DUP3 ADD MSTORE PUSH1 0x19 PUSH1 0x24 DUP3 ADD MSTORE PUSH1 0x0 DUP1 MLOAD PUSH1 0x20 PUSH2 0x4DEF DUP4 CODECOPY DUP2 MLOAD SWAP2 MSTORE PUSH1 0x44 DUP3 ADD MSTORE SWAP1 MLOAD SWAP1 DUP2 SWAP1 SUB PUSH1 0x64 ADD SWAP1 REVERT JUMPDEST PUSH1 0x1 PUSH1 0x1 PUSH1 0xA0 SHL SUB DUP3 AND PUSH1 0x0 SWAP1 DUP2 MSTORE PUSH1 0x3A PUSH1 0x20 MSTORE PUSH1 0x40 SWAP1 KECCAK256 PUSH1 0x4 ADD SLOAD PUSH1 0xFF AND PUSH2 0xFA5 JUMPI PUSH1 0x40 MLOAD PUSH3 0x461BCD PUSH1 0xE5 SHL DUP2 MSTORE PUSH1 0x4 ADD DUP1 DUP1 PUSH1 0x20 ADD DUP3 DUP2 SUB DUP3 MSTORE PUSH1 0x43 DUP2 MSTORE PUSH1 0x20 ADD DUP1 PUSH2 0x4A71 PUSH1 0x43 SWAP2 CODECOPY PUSH1 0x60 ADD SWAP2 POP POP PUSH1 0x40 MLOAD DUP1 SWAP2 SUB SWAP1 REVERT JUMPDEST PUSH2 0xFAD PUSH2 0x1FE8 JUMP JUMPDEST POP PUSH2 0xFB6 PUSH2 0x477F JUMP JUMPDEST PUSH1 0x1 PUSH1 0x1 PUSH1 0xA0 SHL SUB DUP4 AND PUSH1 0x0 SWAP1 DUP2 MSTORE PUSH1 0x3B PUSH1 0x20 MSTORE PUSH1 0x40 SWAP1 KECCAK256 PUSH2 0xFDA SWAP1 DUP3 PUSH1 0x18 PUSH2 0x479E JUMP JUMPDEST POP PUSH1 0x1 PUSH1 0x1 PUSH1 0xA0 SHL SUB DUP4 AND PUSH1 0x0 SWAP1 DUP2 MSTORE PUSH1 0x3B PUSH1 0x20 SWAP1 DUP2 MSTORE PUSH1 0x40 DUP1 DUP4 KECCAK256 PUSH1 0x18 ADD DUP1 SLOAD PUSH4 0xFFFFFFFF NOT AND SWAP1 SSTORE PUSH1 0x3A SWAP1 SWAP2 MSTORE DUP2 KECCAK256 PUSH1 0x4 DUP2 ADD DUP1 SLOAD PUSH1 0xFF NOT AND SWAP1 SSTORE PUSH32 0x95EB8164ADA5BBD9B16BB9918BCF97960C1D006F76427F3FAF2BFB2EBC963E42 SWAP2 DUP6 SWAP2 PUSH1 0x1 ADD SWAP1 PUSH2 0x1047 PUSH2 0xC14 JUMP JUMPDEST PUSH1 0x40 DUP1 MLOAD PUSH1 0x1 PUSH1 0x1 PUSH1 0xA0 SHL SUB DUP7 AND DUP2 MSTORE DUP4 ISZERO ISZERO SWAP2 DUP2 ADD SWAP2 SWAP1 SWAP2 MSTORE PUSH4 0xFFFFFFFF DUP3 AND PUSH1 0x60 DUP3 ADD MSTORE PUSH1 0x80 PUSH1 0x20 DUP3 ADD DUP2 DUP2 MSTORE DUP6 SLOAD PUSH1 0x2 PUSH1 0x0 NOT PUSH2 0x100 PUSH1 0x1 DUP5 AND ISZERO MUL ADD SWAP1 SWAP2 AND DIV SWAP2 DUP4 ADD DUP3 SWAP1 MSTORE SWAP1 PUSH1 0xA0 DUP4 ADD SWAP1 DUP7 SWAP1 DUP1 ISZERO PUSH2 0x10E6 JUMPI DUP1 PUSH1 0x1F LT PUSH2 0x10BB JUMPI PUSH2 0x100 DUP1 DUP4 SLOAD DIV MUL DUP4 MSTORE SWAP2 PUSH1 0x20 ADD SWAP2 PUSH2 0x10E6 JUMP JUMPDEST DUP3 ADD SWAP2 SWAP1 PUSH1 0x0 MSTORE PUSH1 0x20 PUSH1 0x0 KECCAK256 SWAP1 JUMPDEST DUP2 SLOAD DUP2 MSTORE SWAP1 PUSH1 0x1 ADD SWAP1 PUSH1 0x20 ADD DUP1 DUP4 GT PUSH2 0x10C9 JUMPI DUP3 SWAP1 SUB PUSH1 0x1F AND DUP3 ADD SWAP2 JUMPDEST POP POP SWAP6 POP POP POP POP POP POP PUSH1 0x40 MLOAD DUP1 SWAP2 SUB SWAP1 LOG1 POP PUSH1 0x1 SWAP3 SWAP2 POP POP JUMP JUMPDEST PUSH1 0x1 PUSH1 0x1 PUSH1 0xA0 SHL SUB DUP4 AND PUSH1 0x0 SWAP1 DUP2 MSTORE PUSH1 0x3A PUSH1 0x20 MSTORE PUSH1 0x40 DUP2 KECCAK256 SLOAD PUSH1 0xFF AND ISZERO PUSH2 0x116E JUMPI PUSH1 0x40 DUP1 MLOAD PUSH3 0x461BCD PUSH1 0xE5 SHL DUP2 MSTORE PUSH1 0x20 PUSH1 0x4 DUP3 ADD MSTORE PUSH1 0x1D PUSH1 0x24 DUP3 ADD MSTORE PUSH32 0x496E737472756D656E7420616C726561647920737570706F727465642E000000 PUSH1 0x44 DUP3 ADD MSTORE SWAP1 MLOAD SWAP1 DUP2 SWAP1 SUB PUSH1 0x64 ADD SWAP1 REVERT JUMPDEST PUSH1 0x39 DUP1 SLOAD PUSH1 0x1 DUP1 DUP3 ADD DUP4 SSTORE PUSH1 0x0 SWAP3 DUP4 MSTORE PUSH32 0xDC16FEF70F8D5DDBC01EE3D903D1E69C18A3C7BE080EB86A81E0578814EE58D3 SWAP1 SWAP2 ADD DUP1 SLOAD PUSH1 0x1 PUSH1 0x1 PUSH1 0xA0 SHL SUB NOT AND PUSH1 0x1 PUSH1 0x1 PUSH1 0xA0 SHL SUB DUP9 DUP2 AND SWAP2 SWAP1 SWAP2 OR SWAP1 SWAP2 SSTORE PUSH1 0x40 DUP1 MLOAD PUSH2 0x120 DUP2 ADD DUP3 MSTORE SWAP3 DUP4 MSTORE DUP1 MLOAD PUSH4 0x6FDDE03 PUSH1 0xE0 SHL DUP2 MSTORE SWAP1 MLOAD DUP8 SWAP5 PUSH1 0x20 DUP6 ADD SWAP4 DUP7 AND SWAP3 PUSH4 0x6FDDE03 SWAP3 PUSH1 0x4 DUP1 DUP4 ADD SWAP4 SWAP3 DUP3 SWAP1 SUB ADD DUP2 DUP7 DUP1 EXTCODESIZE ISZERO DUP1 ISZERO PUSH2 0x1207 JUMPI PUSH1 0x0 DUP1 REVERT JUMPDEST POP GAS STATICCALL ISZERO DUP1 ISZERO PUSH2 0x121B JUMPI RETURNDATASIZE PUSH1 0x0 DUP1 RETURNDATACOPY RETURNDATASIZE PUSH1 0x0 REVERT JUMPDEST POP POP POP POP PUSH1 0x40 MLOAD RETURNDATASIZE PUSH1 0x0 DUP3 RETURNDATACOPY PUSH1 0x1F RETURNDATASIZE SWAP1 DUP2 ADD PUSH1 0x1F NOT AND DUP3 ADD PUSH1 0x40 MSTORE PUSH1 0x20 DUP2 LT ISZERO PUSH2 0x1244 JUMPI PUSH1 0x0 DUP1 REVERT JUMPDEST DUP2 ADD SWAP1 DUP1 DUP1 MLOAD PUSH1 0x40 MLOAD SWAP4 SWAP3 SWAP2 SWAP1 DUP5 PUSH5 0x100000000 DUP3 GT ISZERO PUSH2 0x1264 JUMPI PUSH1 0x0 DUP1 REVERT JUMPDEST SWAP1 DUP4 ADD SWAP1 PUSH1 0x20 DUP3 ADD DUP6 DUP2 GT ISZERO PUSH2 0x1279 JUMPI PUSH1 0x0 DUP1 REVERT JUMPDEST DUP3 MLOAD PUSH5 0x100000000 DUP2 GT DUP3 DUP3 ADD DUP9 LT OR ISZERO PUSH2 0x1293 JUMPI PUSH1 0x0 DUP1 REVERT JUMPDEST DUP3 MSTORE POP DUP2 MLOAD PUSH1 0x20 SWAP2 DUP3 ADD SWAP3 SWAP1 SWAP2 ADD SWAP1 DUP1 DUP4 DUP4 PUSH1 0x0 JUMPDEST DUP4 DUP2 LT ISZERO PUSH2 0x12C0 JUMPI DUP2 DUP2 ADD MLOAD DUP4 DUP3 ADD MSTORE PUSH1 0x20 ADD PUSH2 0x12A8 JUMP JUMPDEST POP POP POP POP SWAP1 POP SWAP1 DUP2 ADD SWAP1 PUSH1 0x1F AND DUP1 ISZERO PUSH2 0x12ED JUMPI DUP1 DUP3 SUB DUP1 MLOAD PUSH1 0x1 DUP4 PUSH1 0x20 SUB PUSH2 0x100 EXP SUB NOT AND DUP2 MSTORE PUSH1 0x20 ADD SWAP2 POP JUMPDEST POP PUSH1 0x40 MSTORE POP POP POP DUP2 MSTORE PUSH1 0x20 ADD DUP6 PUSH1 0x1 PUSH1 0x1 PUSH1 0xA0 SHL SUB AND DUP2 MSTORE PUSH1 0x20 ADD DUP5 DUP2 MSTORE PUSH1 0x20 ADD PUSH1 0x0 ISZERO ISZERO DUP2 MSTORE PUSH1 0x20 ADD PUSH15 0xC097CE7BC90715B34B9F1000000000 DUP2 MSTORE PUSH1 0x20 ADD PUSH2 0x1334 PUSH2 0xC14 JUMP JUMPDEST PUSH4 0xFFFFFFFF AND DUP2 MSTORE PUSH1 0x20 ADD PUSH15 0xC097CE7BC90715B34B9F1000000000 DUP2 MSTORE PUSH1 0x20 ADD PUSH2 0x135C PUSH2 0xC14 JUMP JUMPDEST PUSH4 0xFFFFFFFF AND SWAP1 MSTORE PUSH1 0x1 PUSH1 0x1 PUSH1 0xA0 SHL SUB DUP7 AND PUSH1 0x0 SWAP1 DUP2 MSTORE PUSH1 0x3A PUSH1 0x20 SWAP1 DUP2 MSTORE PUSH1 0x40 SWAP1 SWAP2 KECCAK256 DUP3 MLOAD DUP2 SLOAD PUSH1 0xFF NOT AND SWAP1 ISZERO ISZERO OR DUP2 SSTORE DUP3 DUP3 ADD MLOAD DUP1 MLOAD SWAP2 SWAP3 PUSH2 0x13A7 SWAP3 PUSH1 0x1 DUP6 ADD SWAP3 SWAP1 SWAP2 ADD SWAP1 PUSH2 0x47DC JUMP JUMPDEST POP PUSH1 0x40 DUP3 ADD MLOAD DUP2 PUSH1 0x2 ADD PUSH1 0x0 PUSH2 0x100 EXP DUP2 SLOAD DUP2 PUSH1 0x1 PUSH1 0x1 PUSH1 0xA0 SHL SUB MUL NOT AND SWAP1 DUP4 PUSH1 0x1 PUSH1 0x1 PUSH1 0xA0 SHL SUB AND MUL OR SWAP1 SSTORE POP PUSH1 0x60 DUP3 ADD MLOAD DUP2 PUSH1 0x3 ADD SSTORE PUSH1 0x80 DUP3 ADD MLOAD DUP2 PUSH1 0x4 ADD PUSH1 0x0 PUSH2 0x100 EXP DUP2 SLOAD DUP2 PUSH1 0xFF MUL NOT AND SWAP1 DUP4 ISZERO ISZERO MUL OR SWAP1 SSTORE POP PUSH1 0xA0 DUP3 ADD MLOAD DUP2 PUSH1 0x5 ADD SSTORE PUSH1 0xC0 DUP3 ADD MLOAD DUP2 PUSH1 0x6 ADD SSTORE PUSH1 0xE0 DUP3 ADD MLOAD DUP2 PUSH1 0x7 ADD SSTORE PUSH2 0x100 DUP3 ADD MLOAD DUP2 PUSH1 0x8 ADD SSTORE SWAP1 POP POP PUSH1 0x40 MLOAD DUP1 PUSH1 0xC0 ADD PUSH1 0x40 MSTORE DUP1 PUSH1 0x0 DUP2 MSTORE PUSH1 0x20 ADD PUSH1 0x0 DUP2 MSTORE PUSH1 0x20 ADD PUSH1 0x0 DUP2 MSTORE PUSH1 0x20 ADD PUSH1 0x0 DUP2 MSTORE PUSH1 0x20 ADD PUSH1 0x40 MLOAD DUP1 PUSH1 0x40 ADD PUSH1 0x40 MSTORE DUP1 PUSH1 0x4 DUP2 MSTORE PUSH1 0x20 ADD PUSH4 0x1B9D5B1B PUSH1 0xE2 SHL DUP2 MSTORE POP DUP2 MSTORE PUSH1 0x20 ADD PUSH1 0x0 DUP2 MSTORE POP PUSH1 0x56 PUSH1 0x0 DUP8 PUSH1 0x1 PUSH1 0x1 PUSH1 0xA0 SHL SUB AND PUSH1 0x1 PUSH1 0x1 PUSH1 0xA0 SHL SUB AND DUP2 MSTORE PUSH1 0x20 ADD SWAP1 DUP2 MSTORE PUSH1 0x20 ADD PUSH1 0x0 KECCAK256 PUSH1 0x0 DUP3 ADD MLOAD DUP2 PUSH1 0x0 ADD SSTORE PUSH1 0x20 DUP3 ADD MLOAD DUP2 PUSH1 0x1 ADD SSTORE PUSH1 0x40 DUP3 ADD MLOAD DUP2 PUSH1 0x2 ADD SSTORE PUSH1 0x60 DUP3 ADD MLOAD DUP2 PUSH1 0x3 ADD SSTORE PUSH1 0x80 DUP3 ADD MLOAD DUP2 PUSH1 0x4 ADD SWAP1 DUP1 MLOAD SWAP1 PUSH1 0x20 ADD SWAP1 PUSH2 0x14E2 SWAP3 SWAP2 SWAP1 PUSH2 0x47DC JUMP JUMPDEST POP PUSH1 0xA0 SWAP2 SWAP1 SWAP2 ADD MLOAD PUSH1 0x5 SWAP1 SWAP2 ADD SSTORE PUSH1 0x1 PUSH1 0x1 PUSH1 0xA0 SHL SUB DUP6 AND PUSH1 0x0 SWAP1 DUP2 MSTORE PUSH1 0x3B PUSH1 0x20 MSTORE PUSH1 0x40 SWAP1 KECCAK256 PUSH1 0x18 ADD SLOAD PUSH4 0xFFFFFFFF AND PUSH2 0x157D JUMPI PUSH2 0x151E PUSH2 0x477F JUMP JUMPDEST PUSH1 0x40 DUP1 MLOAD DUP1 DUP3 ADD DUP3 MSTORE DUP3 DUP2 MSTORE PUSH1 0x0 PUSH1 0x20 DUP1 DUP4 ADD DUP3 SWAP1 MSTORE PUSH1 0x1 PUSH1 0x1 PUSH1 0xA0 SHL SUB DUP11 AND DUP3 MSTORE PUSH1 0x3B SWAP1 MSTORE SWAP2 SWAP1 SWAP2 KECCAK256 DUP2 MLOAD PUSH2 0x1557 SWAP1 DUP3 SWAP1 PUSH1 0x18 PUSH2 0x479E JUMP JUMPDEST POP PUSH1 0x20 SWAP2 SWAP1 SWAP2 ADD MLOAD PUSH1 0x18 SWAP1 SWAP2 ADD DUP1 SLOAD PUSH4 0xFFFFFFFF NOT AND PUSH4 0xFFFFFFFF SWAP1 SWAP3 AND SWAP2 SWAP1 SWAP2 OR SWAP1 SSTORE POP JUMPDEST PUSH1 0x1 PUSH1 0x1 PUSH1 0xA0 SHL SUB DUP6 DUP2 AND PUSH1 0x0 DUP2 DUP2 MSTORE PUSH1 0x3A PUSH1 0x20 SWAP1 DUP2 MSTORE PUSH1 0x40 SWAP2 DUP3 SWAP1 KECCAK256 DUP3 MLOAD SWAP4 DUP5 MSTORE SWAP2 DUP4 ADD DUP8 SWAP1 MSTORE SWAP3 DUP8 AND PUSH1 0x60 DUP4 ADD MSTORE NUMBER PUSH1 0x80 DUP4 ADD DUP2 SWAP1 MSTORE PUSH1 0xA0 SWAP4 DUP4 ADD DUP5 DUP2 MSTORE PUSH1 0x1 SWAP3 DUP4 ADD DUP1 SLOAD PUSH1 0x2 SWAP5 DUP2 AND ISZERO PUSH2 0x100 MUL PUSH1 0x0 NOT ADD AND SWAP4 SWAP1 SWAP4 DIV SWAP5 DUP5 ADD DUP6 SWAP1 MSTORE PUSH32 0x147287EB47162017688BF4E80590AC2FAA6656751FD480B76FA8F7612910141A SWAP5 DUP11 SWAP5 DUP10 SWAP4 DUP12 SWAP4 SWAP1 SWAP3 PUSH1 0xC0 DUP4 ADD SWAP1 DUP8 SWAP1 DUP1 ISZERO PUSH2 0x165B JUMPI DUP1 PUSH1 0x1F LT PUSH2 0x1630 JUMPI PUSH2 0x100 DUP1 DUP4 SLOAD DIV MUL DUP4 MSTORE SWAP2 PUSH1 0x20 ADD SWAP2 PUSH2 0x165B JUMP JUMPDEST DUP3 ADD SWAP2 SWAP1 PUSH1 0x0 MSTORE PUSH1 0x20 PUSH1 0x0 KECCAK256 SWAP1 JUMPDEST DUP2 SLOAD DUP2 MSTORE SWAP1 PUSH1 0x1 ADD SWAP1 PUSH1 0x20 ADD DUP1 DUP4 GT PUSH2 0x163E JUMPI DUP3 SWAP1 SUB PUSH1 0x1F AND DUP3 ADD SWAP2 JUMPDEST POP POP SWAP7 POP POP POP POP POP POP POP PUSH1 0x40 MLOAD DUP1 SWAP2 SUB SWAP1 LOG1 PUSH1 0x1 SWAP2 POP POP JUMPDEST SWAP4 SWAP3 POP POP POP JUMP JUMPDEST PUSH1 0x55 SLOAD SWAP1 JUMP JUMPDEST PUSH2 0x1688 PUSH2 0x477F JUMP JUMPDEST PUSH1 0x40 DUP1 MLOAD PUSH2 0x300 DUP2 ADD SWAP2 DUP3 SWAP1 MSTORE SWAP1 PUSH1 0x3C SWAP1 PUSH1 0x18 SWAP1 DUP3 DUP5 JUMPDEST DUP2 SLOAD DUP2 MSTORE PUSH1 0x20 ADD SWAP1 PUSH1 0x1 ADD SWAP1 DUP1 DUP4 GT PUSH2 0x169F JUMPI JUMPDEST POP POP POP POP POP SWAP1 POP SWAP1 JUMP JUMPDEST PUSH1 0x1 PUSH1 0x1 PUSH1 0xA0 SHL SUB DUP2 AND PUSH1 0x0 SWAP1 DUP2 MSTORE PUSH1 0x56 PUSH1 0x20 SWAP1 DUP2 MSTORE PUSH1 0x40 DUP1 DUP4 KECCAK256 DUP1 SLOAD PUSH1 0x1 DUP1 DUP4 ADD SLOAD PUSH1 0x2 DUP1 DUP6 ADD SLOAD PUSH1 0x3 DUP7 ADD SLOAD PUSH1 0x5 DUP8 ADD SLOAD PUSH1 0x4 SWAP1 SWAP8 ADD DUP1 SLOAD DUP10 MLOAD SWAP7 DUP2 AND ISZERO PUSH2 0x100 MUL PUSH1 0x0 NOT ADD AND SWAP4 SWAP1 SWAP4 DIV PUSH1 0x1F DUP2 ADD DUP11 SWAP1 DIV DUP11 MUL DUP7 ADD DUP11 ADD SWAP1 SWAP9 MSTORE DUP8 DUP6 MSTORE DUP10 SWAP9 DUP10 SWAP9 DUP10 SWAP9 PUSH1 0x60 SWAP9 DUP11 SWAP9 SWAP1 SWAP8 SWAP7 SWAP4 SWAP2 SWAP3 SWAP1 SWAP2 DUP5 SWAP2 SWAP1 DUP4 ADD DUP3 DUP3 DUP1 ISZERO PUSH2 0x1784 JUMPI DUP1 PUSH1 0x1F LT PUSH2 0x1759 JUMPI PUSH2 0x100 DUP1 DUP4 SLOAD DIV MUL DUP4 MSTORE SWAP2 PUSH1 0x20 ADD SWAP2 PUSH2 0x1784 JUMP JUMPDEST DUP3 ADD SWAP2 SWAP1 PUSH1 0x0 MSTORE PUSH1 0x20 PUSH1 0x0 KECCAK256 SWAP1 JUMPDEST DUP2 SLOAD DUP2 MSTORE SWAP1 PUSH1 0x1 ADD SWAP1 PUSH1 0x20 ADD DUP1 DUP4 GT PUSH2 0x1767 JUMPI DUP3 SWAP1 SUB PUSH1 0x1F AND DUP3 ADD SWAP2 JUMPDEST POP POP POP POP POP SWAP2 POP SWAP6 POP SWAP6 POP SWAP6 POP SWAP6 POP SWAP6 POP SWAP6 POP SWAP2 SWAP4 SWAP6 POP SWAP2 SWAP4 SWAP6 JUMP JUMPDEST PUSH1 0x0 DUP1 PUSH2 0x17AF NUMBER PUSH1 0x58 SLOAD PUSH2 0x2B5A JUMP JUMPDEST SWAP1 POP DUP1 PUSH1 0x57 SLOAD GT ISZERO PUSH2 0x17CF JUMPI PUSH2 0x17C7 PUSH1 0x57 SLOAD DUP3 PUSH2 0x2B5A JUMP JUMPDEST SWAP2 POP POP PUSH2 0x976 JUMP JUMPDEST PUSH1 0x0 SWAP2 POP POP SWAP1 JUMP JUMPDEST PUSH1 0x37 SLOAD PUSH1 0x0 SWAP1 PUSH1 0x1 PUSH1 0x1 PUSH1 0xA0 SHL SUB AND CALLER EQ PUSH2 0x1823 JUMPI PUSH1 0x40 MLOAD PUSH3 0x461BCD PUSH1 0xE5 SHL DUP2 MSTORE PUSH1 0x4 ADD DUP1 DUP1 PUSH1 0x20 ADD DUP3 DUP2 SUB DUP3 MSTORE PUSH1 0x31 DUP2 MSTORE PUSH1 0x20 ADD DUP1 PUSH2 0x4A40 PUSH1 0x31 SWAP2 CODECOPY PUSH1 0x40 ADD SWAP2 POP POP PUSH1 0x40 MLOAD DUP1 SWAP2 SUB SWAP1 REVERT JUMPDEST PUSH1 0x1 PUSH1 0x1 PUSH1 0xA0 SHL SUB DUP3 AND PUSH1 0x0 SWAP1 DUP2 MSTORE PUSH1 0x3A PUSH1 0x20 MSTORE PUSH1 0x40 SWAP1 KECCAK256 SLOAD PUSH1 0xFF AND PUSH2 0x187E JUMPI PUSH1 0x40 DUP1 MLOAD PUSH3 0x461BCD PUSH1 0xE5 SHL DUP2 MSTORE PUSH1 0x20 PUSH1 0x4 DUP3 ADD MSTORE PUSH1 0x19 PUSH1 0x24 DUP3 ADD MSTORE PUSH1 0x0 DUP1 MLOAD PUSH1 0x20 PUSH2 0x4DEF DUP4 CODECOPY DUP2 MLOAD SWAP2 MSTORE PUSH1 0x44 DUP3 ADD MSTORE SWAP1 MLOAD SWAP1 DUP2 SWAP1 SUB PUSH1 0x64 ADD SWAP1 REVERT JUMPDEST PUSH2 0x1887 DUP3 PUSH2 0x2B94 JUMP JUMPDEST PUSH2 0xE1D JUMPI PUSH1 0x40 MLOAD PUSH3 0x461BCD PUSH1 0xE5 SHL DUP2 MSTORE PUSH1 0x4 ADD DUP1 DUP1 PUSH1 0x20 ADD DUP3 DUP2 SUB DUP3 MSTORE PUSH1 0x2D DUP2 MSTORE PUSH1 0x20 ADD DUP1 PUSH2 0x4D06 PUSH1 0x2D SWAP2 CODECOPY PUSH1 0x40 ADD SWAP2 POP POP PUSH1 0x40 MLOAD DUP1 SWAP2 SUB SWAP1 REVERT JUMPDEST PUSH1 0x34 SLOAD PUSH1 0x40 DUP1 MLOAD PUSH4 0xDB49224B PUSH1 0xE0 SHL DUP2 MSTORE SWAP1 MLOAD CALLER SWAP3 PUSH1 0x1 PUSH1 0x1 PUSH1 0xA0 SHL SUB AND SWAP2 PUSH4 0xDB49224B SWAP2 PUSH1 0x4 DUP1 DUP4 ADD SWAP3 PUSH1 0x20 SWAP3 SWAP2 SWAP1 DUP3 SWAP1 SUB ADD DUP2 DUP7 DUP1 EXTCODESIZE ISZERO DUP1 ISZERO PUSH2 0x1906 JUMPI PUSH1 0x0 DUP1 REVERT JUMPDEST POP GAS STATICCALL ISZERO DUP1 ISZERO PUSH2 0x191A JUMPI RETURNDATASIZE PUSH1 0x0 DUP1 RETURNDATACOPY RETURNDATASIZE PUSH1 0x0 REVERT JUMPDEST POP POP POP POP PUSH1 0x40 MLOAD RETURNDATASIZE PUSH1 0x20 DUP2 LT ISZERO PUSH2 0x1930 JUMPI PUSH1 0x0 DUP1 REVERT JUMPDEST POP MLOAD PUSH1 0x1 PUSH1 0x1 PUSH1 0xA0 SHL SUB AND EQ PUSH2 0x1977 JUMPI PUSH1 0x40 MLOAD PUSH3 0x461BCD PUSH1 0xE5 SHL DUP2 MSTORE PUSH1 0x4 ADD DUP1 DUP1 PUSH1 0x20 ADD DUP3 DUP2 SUB DUP3 MSTORE PUSH1 0x3A DUP2 MSTORE PUSH1 0x20 ADD DUP1 PUSH2 0x4AB4 PUSH1 0x3A SWAP2 CODECOPY PUSH1 0x40 ADD SWAP2 POP POP PUSH1 0x40 MLOAD DUP1 SWAP2 SUB SWAP1 REVERT JUMPDEST PUSH2 0x197F PUSH2 0x2DD9 JUMP JUMPDEST JUMP JUMPDEST PUSH1 0x36 SLOAD PUSH1 0x1 PUSH1 0x1 PUSH1 0xA0 SHL SUB AND DUP2 JUMP JUMPDEST PUSH1 0x60 PUSH1 0x39 DUP1 SLOAD DUP1 PUSH1 0x20 MUL PUSH1 0x20 ADD PUSH1 0x40 MLOAD SWAP1 DUP2 ADD PUSH1 0x40 MSTORE DUP1 SWAP3 SWAP2 SWAP1 DUP2 DUP2 MSTORE PUSH1 0x20 ADD DUP3 DUP1 SLOAD DUP1 ISZERO PUSH2 0x16B3 JUMPI PUSH1 0x20 MUL DUP3 ADD SWAP2 SWAP1 PUSH1 0x0 MSTORE PUSH1 0x20 PUSH1 0x0 KECCAK256 SWAP1 JUMPDEST DUP2 SLOAD PUSH1 0x1 PUSH1 0x1 PUSH1 0xA0 SHL SUB AND DUP2 MSTORE PUSH1 0x1 SWAP1 SWAP2 ADD SWAP1 PUSH1 0x20 ADD DUP1 DUP4 GT PUSH2 0x19CA JUMPI POP POP POP POP POP SWAP1 POP SWAP1 JUMP JUMPDEST PUSH1 0x0 CALLER PUSH1 0x1 PUSH1 0x1 PUSH1 0xA0 SHL SUB AND PUSH1 0x34 PUSH1 0x0 SWAP1 SLOAD SWAP1 PUSH2 0x100 EXP SWAP1 DIV PUSH1 0x1 PUSH1 0x1 PUSH1 0xA0 SHL SUB AND PUSH1 0x1 PUSH1 0x1 PUSH1 0xA0 SHL SUB AND PUSH4 0xDB49224B PUSH1 0x40 MLOAD DUP2 PUSH4 0xFFFFFFFF AND PUSH1 0xE0 SHL DUP2 MSTORE PUSH1 0x4 ADD PUSH1 0x20 PUSH1 0x40 MLOAD DUP1 DUP4 SUB DUP2 DUP7 DUP1 EXTCODESIZE ISZERO DUP1 ISZERO PUSH2 0x1A4B JUMPI PUSH1 0x0 DUP1 REVERT JUMPDEST POP GAS STATICCALL ISZERO DUP1 ISZERO PUSH2 0x1A5F JUMPI RETURNDATASIZE PUSH1 0x0 DUP1 RETURNDATACOPY RETURNDATASIZE PUSH1 0x0 REVERT JUMPDEST POP POP POP POP PUSH1 0x40 MLOAD RETURNDATASIZE PUSH1 0x20 DUP2 LT ISZERO PUSH2 0x1A75 JUMPI PUSH1 0x0 DUP1 REVERT JUMPDEST POP MLOAD PUSH1 0x1 PUSH1 0x1 PUSH1 0xA0 SHL SUB AND EQ PUSH2 0x1ABC JUMPI PUSH1 0x40 MLOAD PUSH3 0x461BCD PUSH1 0xE5 SHL DUP2 MSTORE PUSH1 0x4 ADD DUP1 DUP1 PUSH1 0x20 ADD DUP3 DUP2 SUB DUP3 MSTORE PUSH1 0x3A DUP2 MSTORE PUSH1 0x20 ADD DUP1 PUSH2 0x4AB4 PUSH1 0x3A SWAP2 CODECOPY PUSH1 0x40 ADD SWAP2 POP POP PUSH1 0x40 MLOAD DUP1 SWAP2 SUB SWAP1 REVERT JUMPDEST PUSH7 0x2386F26FC10000 DUP3 GT PUSH2 0x1B01 JUMPI PUSH1 0x40 MLOAD PUSH3 0x461BCD PUSH1 0xE5 SHL DUP2 MSTORE PUSH1 0x4 ADD DUP1 DUP1 PUSH1 0x20 ADD DUP3 DUP2 SUB DUP3 MSTORE PUSH1 0x3C DUP2 MSTORE PUSH1 0x20 ADD DUP1 PUSH2 0x48F1 PUSH1 0x3C SWAP2 CODECOPY PUSH1 0x40 ADD SWAP2 POP POP PUSH1 0x40 MLOAD DUP1 SWAP2 SUB SWAP1 REVERT JUMPDEST PUSH8 0x1BC16D674EC80000 DUP3 GT ISZERO PUSH2 0x1B48 JUMPI PUSH1 0x40 MLOAD PUSH3 0x461BCD PUSH1 0xE5 SHL DUP2 MSTORE PUSH1 0x4 ADD DUP1 DUP1 PUSH1 0x20 ADD DUP3 DUP2 SUB DUP3 MSTORE PUSH1 0x34 DUP2 MSTORE PUSH1 0x20 ADD DUP1 PUSH2 0x4B27 PUSH1 0x34 SWAP2 CODECOPY PUSH1 0x40 ADD SWAP2 POP POP PUSH1 0x40 MLOAD DUP1 SWAP2 SUB SWAP1 REVERT JUMPDEST PUSH2 0x1B50 PUSH2 0x1FE8 JUMP JUMPDEST POP DUP3 PUSH2 0x1B7C JUMPI PUSH1 0x37 DUP1 SLOAD PUSH1 0xFF PUSH1 0xA0 SHL NOT AND SWAP1 SSTORE PUSH1 0x40 DUP1 MLOAD PUSH1 0x20 DUP2 ADD SWAP1 SWAP2 MSTORE PUSH1 0x0 SWAP1 DUP2 SWAP1 MSTORE PUSH1 0x38 SSTORE PUSH2 0x1BA3 JUMP JUMPDEST PUSH1 0x37 DUP1 SLOAD PUSH1 0xFF PUSH1 0xA0 SHL NOT AND PUSH1 0x1 PUSH1 0xA0 SHL OR SWAP1 SSTORE PUSH1 0x40 DUP1 MLOAD PUSH1 0x20 DUP2 ADD SWAP1 SWAP2 MSTORE DUP3 SWAP1 MSTORE PUSH1 0x38 DUP3 SWAP1 SSTORE JUMPDEST PUSH1 0x37 SLOAD PUSH1 0x38 SLOAD PUSH32 0xF27FC072C7772962292B4F5221D157312241AE2757928921516BB837B3D1E7BC SWAP2 PUSH1 0x1 PUSH1 0xA0 SHL SWAP1 DIV PUSH1 0xFF AND SWAP1 PUSH2 0x1BDE PUSH2 0xC14 JUMP JUMPDEST PUSH1 0x40 DUP1 MLOAD SWAP4 ISZERO ISZERO DUP5 MSTORE PUSH1 0x20 DUP5 ADD SWAP3 SWAP1 SWAP3 MSTORE PUSH4 0xFFFFFFFF AND DUP3 DUP3 ADD MSTORE MLOAD SWAP1 DUP2 SWAP1 SUB PUSH1 0x60 ADD SWAP1 LOG1 POP PUSH1 0x1 SWAP3 SWAP2 POP POP JUMP JUMPDEST PUSH1 0x1 PUSH1 0x1 PUSH1 0xA0 SHL SUB AND PUSH1 0x0 SWAP1 DUP2 MSTORE PUSH1 0x3B PUSH1 0x20 MSTORE PUSH1 0x40 SWAP1 KECCAK256 PUSH1 0x18 ADD SLOAD PUSH4 0xFFFFFFFF AND SWAP1 JUMP JUMPDEST PUSH1 0x35 SLOAD PUSH1 0x40 DUP1 MLOAD PUSH4 0x70A08231 PUSH1 0xE0 SHL DUP2 MSTORE ADDRESS PUSH1 0x4 DUP3 ADD MSTORE SWAP1 MLOAD PUSH1 0x0 SWAP3 DUP4 SWAP3 DUP6 SWAP3 PUSH1 0x1 PUSH1 0x1 PUSH1 0xA0 SHL SUB SWAP1 SWAP3 AND SWAP2 PUSH4 0x70A08231 SWAP2 PUSH1 0x24 DUP1 DUP3 ADD SWAP3 PUSH1 0x20 SWAP3 SWAP1 SWAP2 SWAP1 DUP3 SWAP1 SUB ADD DUP2 DUP7 DUP1 EXTCODESIZE ISZERO DUP1 ISZERO PUSH2 0x1C82 JUMPI PUSH1 0x0 DUP1 REVERT JUMPDEST POP GAS STATICCALL ISZERO DUP1 ISZERO PUSH2 0x1C96 JUMPI RETURNDATASIZE PUSH1 0x0 DUP1 RETURNDATACOPY RETURNDATASIZE PUSH1 0x0 REVERT JUMPDEST POP POP POP POP PUSH1 0x40 MLOAD RETURNDATASIZE PUSH1 0x20 DUP2 LT ISZERO PUSH2 0x1CAC JUMPI PUSH1 0x0 DUP1 REVERT JUMPDEST POP MLOAD GT ISZERO PUSH2 0x1F93 JUMPI PUSH1 0x35 SLOAD PUSH1 0x40 DUP1 MLOAD PUSH4 0xA9059CBB PUSH1 0xE0 SHL DUP2 MSTORE PUSH1 0x1 PUSH1 0x1 PUSH1 0xA0 SHL SUB DUP8 DUP2 AND PUSH1 0x4 DUP4 ADD MSTORE PUSH1 0x24 DUP3 ADD DUP8 SWAP1 MSTORE SWAP2 MLOAD SWAP2 SWAP1 SWAP3 AND SWAP2 PUSH4 0xA9059CBB SWAP2 PUSH1 0x44 DUP1 DUP4 ADD SWAP3 PUSH1 0x20 SWAP3 SWAP2 SWAP1 DUP3 SWAP1 SUB ADD DUP2 PUSH1 0x0 DUP8 DUP1 EXTCODESIZE ISZERO DUP1 ISZERO PUSH2 0x1D0A JUMPI PUSH1 0x0 DUP1 REVERT JUMPDEST POP GAS CALL ISZERO DUP1 ISZERO PUSH2 0x1D1E JUMPI RETURNDATASIZE PUSH1 0x0 DUP1 RETURNDATACOPY RETURNDATASIZE PUSH1 0x0 REVERT JUMPDEST POP POP POP POP PUSH1 0x40 MLOAD RETURNDATASIZE PUSH1 0x20 DUP2 LT ISZERO PUSH2 0x1D34 JUMPI PUSH1 0x0 DUP1 REVERT JUMPDEST POP MLOAD PUSH2 0x1D71 JUMPI PUSH1 0x40 MLOAD PUSH3 0x461BCD PUSH1 0xE5 SHL DUP2 MSTORE PUSH1 0x4 ADD DUP1 DUP1 PUSH1 0x20 ADD DUP3 DUP2 SUB DUP3 MSTORE PUSH1 0x2C DUP2 MSTORE PUSH1 0x20 ADD DUP1 PUSH2 0x4C91 PUSH1 0x2C SWAP2 CODECOPY PUSH1 0x40 ADD SWAP2 POP POP PUSH1 0x40 MLOAD DUP1 SWAP2 SUB SWAP1 REVERT JUMPDEST PUSH1 0x34 PUSH1 0x0 SWAP1 SLOAD SWAP1 PUSH2 0x100 EXP SWAP1 DIV PUSH1 0x1 PUSH1 0x1 PUSH1 0xA0 SHL SUB AND PUSH1 0x1 PUSH1 0x1 PUSH1 0xA0 SHL SUB AND PUSH4 0x1DB4F569 PUSH1 0x40 MLOAD DUP2 PUSH4 0xFFFFFFFF AND PUSH1 0xE0 SHL DUP2 MSTORE PUSH1 0x4 ADD PUSH1 0x20 PUSH1 0x40 MLOAD DUP1 DUP4 SUB DUP2 DUP7 DUP1 EXTCODESIZE ISZERO DUP1 ISZERO PUSH2 0x1DBF JUMPI PUSH1 0x0 DUP1 REVERT JUMPDEST POP GAS STATICCALL ISZERO DUP1 ISZERO PUSH2 0x1DD3 JUMPI RETURNDATASIZE PUSH1 0x0 DUP1 RETURNDATACOPY RETURNDATASIZE PUSH1 0x0 REVERT JUMPDEST POP POP POP POP PUSH1 0x40 MLOAD RETURNDATASIZE PUSH1 0x20 DUP2 LT ISZERO PUSH2 0x1DE9 JUMPI PUSH1 0x0 DUP1 REVERT JUMPDEST POP MLOAD PUSH1 0x1 PUSH1 0x1 PUSH1 0xA0 SHL SUB DUP6 DUP2 AND SWAP2 AND EQ ISZERO PUSH2 0x1F44 JUMPI PUSH1 0x34 SLOAD PUSH1 0x40 DUP1 MLOAD PUSH4 0x1DB4F569 PUSH1 0xE0 SHL DUP2 MSTORE SWAP1 MLOAD PUSH1 0x0 SWAP3 PUSH1 0x1 PUSH1 0x1 PUSH1 0xA0 SHL SUB AND SWAP2 PUSH4 0x1DB4F569 SWAP2 PUSH1 0x4 DUP1 DUP4 ADD SWAP3 PUSH1 0x20 SWAP3 SWAP2 SWAP1 DUP3 SWAP1 SUB ADD DUP2 DUP7 DUP1 EXTCODESIZE ISZERO DUP1 ISZERO PUSH2 0x1E43 JUMPI PUSH1 0x0 DUP1 REVERT JUMPDEST POP GAS STATICCALL ISZERO DUP1 ISZERO PUSH2 0x1E57 JUMPI RETURNDATASIZE PUSH1 0x0 DUP1 RETURNDATACOPY RETURNDATASIZE PUSH1 0x0 REVERT JUMPDEST POP POP POP POP PUSH1 0x40 MLOAD RETURNDATASIZE PUSH1 0x20 DUP2 LT ISZERO PUSH2 0x1E6D JUMPI PUSH1 0x0 DUP1 REVERT JUMPDEST POP MLOAD PUSH1 0x40 DUP1 MLOAD PUSH4 0x660ECBC9 PUSH1 0xE0 SHL DUP2 MSTORE PUSH1 0x1 PUSH1 0x1 PUSH1 0xA0 SHL SUB DUP10 DUP2 AND PUSH1 0x4 DUP4 ADD MSTORE PUSH1 0x24 DUP3 ADD DUP9 SWAP1 MSTORE SWAP2 MLOAD SWAP3 SWAP4 POP SWAP1 DUP4 AND SWAP2 PUSH4 0x660ECBC9 SWAP2 PUSH1 0x44 DUP1 DUP3 ADD SWAP3 PUSH1 0x20 SWAP3 SWAP1 SWAP2 SWAP1 DUP3 SWAP1 SUB ADD DUP2 PUSH1 0x0 DUP8 DUP1 EXTCODESIZE ISZERO DUP1 ISZERO PUSH2 0x1EC5 JUMPI PUSH1 0x0 DUP1 REVERT JUMPDEST POP GAS CALL ISZERO DUP1 ISZERO PUSH2 0x1ED9 JUMPI RETURNDATASIZE PUSH1 0x0 DUP1 RETURNDATACOPY RETURNDATASIZE PUSH1 0x0 REVERT JUMPDEST POP POP POP POP PUSH1 0x40 MLOAD RETURNDATASIZE PUSH1 0x20 DUP2 LT ISZERO PUSH2 0x1EEF JUMPI PUSH1 0x0 DUP1 REVERT JUMPDEST POP MLOAD PUSH2 0x1F42 JUMPI PUSH1 0x40 DUP1 MLOAD PUSH3 0x461BCD PUSH1 0xE5 SHL DUP2 MSTORE PUSH1 0x20 PUSH1 0x4 DUP3 ADD MSTORE PUSH1 0x1F PUSH1 0x24 DUP3 ADD MSTORE PUSH32 0x4661696C656420746F20757064617465205374616B65642062616C616E636500 PUSH1 0x44 DUP3 ADD MSTORE SWAP1 MLOAD SWAP1 DUP2 SWAP1 SUB PUSH1 0x64 ADD SWAP1 REVERT JUMPDEST POP JUMPDEST PUSH1 0x40 DUP1 MLOAD PUSH1 0x1 PUSH1 0x1 PUSH1 0xA0 SHL SUB DUP1 DUP10 AND DUP3 MSTORE DUP8 AND PUSH1 0x20 DUP3 ADD MSTORE DUP1 DUP3 ADD DUP6 SWAP1 MSTORE SWAP1 MLOAD PUSH32 0x922C86DA5BA82864DDC6D719CCDD80A788323E2A4DC17CFE258D00BA885B2BEC SWAP2 DUP2 SWAP1 SUB PUSH1 0x60 ADD SWAP1 LOG1 PUSH2 0x1F96 JUMP JUMPDEST POP DUP2 JUMPDEST SWAP6 SWAP5 POP POP POP POP POP JUMP JUMPDEST PUSH1 0x1 PUSH1 0x1 PUSH1 0xA0 SHL SUB DUP2 AND PUSH1 0x0 SWAP1 DUP2 MSTORE PUSH1 0x3A PUSH1 0x20 MSTORE PUSH1 0x40 DUP2 KECCAK256 SLOAD PUSH1 0xFF AND ISZERO PUSH2 0x9BC JUMPI POP PUSH1 0x1 PUSH1 0x1 PUSH1 0xA0 SHL SUB DUP2 AND PUSH1 0x0 SWAP1 DUP2 MSTORE PUSH1 0x3A PUSH1 0x20 MSTORE PUSH1 0x40 SWAP1 KECCAK256 PUSH1 0x5 ADD SLOAD PUSH2 0x9C0 JUMP JUMPDEST PUSH1 0x57 SLOAD SWAP1 JUMP JUMPDEST PUSH1 0x0 DUP1 NUMBER SWAP1 POP PUSH1 0x0 PUSH2 0x2015 DUP3 PUSH1 0x58 SLOAD PUSH1 0x40 MLOAD DUP1 PUSH1 0x60 ADD PUSH1 0x40 MSTORE DUP1 PUSH1 0x36 DUP2 MSTORE PUSH1 0x20 ADD PUSH2 0x4973 PUSH1 0x36 SWAP2 CODECOPY PUSH2 0x2F7E JUMP JUMPDEST SWAP1 POP PUSH1 0x57 SLOAD DUP2 LT PUSH2 0x2034 JUMPI PUSH2 0x2028 PUSH2 0x3015 JUMP JUMPDEST POP PUSH1 0x58 SSTORE POP PUSH1 0x1 PUSH2 0x976 JUMP JUMPDEST PUSH1 0x0 SWAP3 POP POP POP SWAP1 JUMP JUMPDEST PUSH1 0x1 PUSH1 0x1 PUSH1 0xA0 SHL SUB AND PUSH1 0x0 SWAP1 DUP2 MSTORE PUSH1 0x3A PUSH1 0x20 MSTORE PUSH1 0x40 SWAP1 KECCAK256 SLOAD PUSH1 0xFF AND SWAP1 JUMP JUMPDEST PUSH1 0x0 PUSH2 0x2065 PUSH2 0x3D58 JUMP JUMPDEST PUSH1 0x1 SLOAD SWAP1 SWAP2 POP PUSH1 0xFF AND DUP1 PUSH2 0x207C JUMPI POP PUSH2 0x207C PUSH2 0x3D5D JUMP JUMPDEST DUP1 PUSH2 0x2088 JUMPI POP PUSH1 0x0 SLOAD DUP2 GT JUMPDEST PUSH2 0x20C3 JUMPI PUSH1 0x40 MLOAD PUSH3 0x461BCD PUSH1 0xE5 SHL DUP2 MSTORE PUSH1 0x4 ADD DUP1 DUP1 PUSH1 0x20 ADD DUP3 DUP2 SUB DUP3 MSTORE PUSH1 0x2E DUP2 MSTORE PUSH1 0x20 ADD DUP1 PUSH2 0x4C63 PUSH1 0x2E SWAP2 CODECOPY PUSH1 0x40 ADD SWAP2 POP POP PUSH1 0x40 MLOAD DUP1 SWAP2 SUB SWAP1 REVERT JUMPDEST PUSH1 0x1 SLOAD PUSH1 0xFF AND ISZERO DUP1 ISZERO PUSH2 0x20E2 JUMPI PUSH1 0x1 DUP1 SLOAD PUSH1 0xFF NOT AND DUP2 OR SWAP1 SSTORE PUSH1 0x0 DUP3 SWAP1 SSTORE JUMPDEST PUSH1 0x34 DUP1 SLOAD PUSH1 0x1 PUSH1 0x1 PUSH1 0xA0 SHL SUB NOT AND PUSH1 0x1 PUSH1 0x1 PUSH1 0xA0 SHL SUB DUP6 AND OR SWAP1 SSTORE PUSH2 0x2105 PUSH2 0x2DD9 JUMP JUMPDEST PUSH1 0x34 SLOAD PUSH1 0x35 SLOAD PUSH1 0x36 SLOAD PUSH1 0x37 SLOAD PUSH1 0x40 DUP1 MLOAD PUSH1 0x1 PUSH1 0x1 PUSH1 0xA0 SHL SUB SWAP6 DUP7 AND DUP2 MSTORE SWAP4 DUP6 AND PUSH1 0x20 DUP6 ADD MSTORE SWAP2 DUP5 AND DUP4 DUP4 ADD MSTORE SWAP1 SWAP3 AND PUSH1 0x60 DUP3 ADD MSTORE SWAP1 MLOAD PUSH32 0xC1EBB533F3D7D1A5B07028F3F2B3CD0D8B9912E1E524EEA0AFA6873C6FFF649 SWAP2 DUP2 SWAP1 SUB PUSH1 0x80 ADD SWAP1 LOG1 DUP1 ISZERO PUSH2 0x2176 JUMPI PUSH1 0x1 DUP1 SLOAD PUSH1 0xFF NOT AND SWAP1 SSTORE JUMPDEST POP POP POP JUMP JUMPDEST PUSH1 0x35 SLOAD PUSH1 0x40 DUP1 MLOAD PUSH4 0x70A08231 PUSH1 0xE0 SHL DUP2 MSTORE ADDRESS PUSH1 0x4 DUP3 ADD MSTORE SWAP1 MLOAD PUSH1 0x0 SWAP3 DUP4 SWAP3 PUSH1 0x1 PUSH1 0x1 PUSH1 0xA0 SHL SUB SWAP1 SWAP2 AND SWAP2 PUSH4 0x70A08231 SWAP2 PUSH1 0x24 DUP1 DUP3 ADD SWAP3 PUSH1 0x20 SWAP3 SWAP1 SWAP2 SWAP1 DUP3 SWAP1 SUB ADD DUP2 DUP7 DUP1 EXTCODESIZE ISZERO DUP1 ISZERO PUSH2 0x21CB JUMPI PUSH1 0x0 DUP1 REVERT JUMPDEST POP GAS STATICCALL ISZERO DUP1 ISZERO PUSH2 0x21DF JUMPI RETURNDATASIZE PUSH1 0x0 DUP1 RETURNDATACOPY RETURNDATASIZE PUSH1 0x0 REVERT JUMPDEST POP POP POP POP PUSH1 0x40 MLOAD RETURNDATASIZE PUSH1 0x20 DUP2 LT ISZERO PUSH2 0x21F5 JUMPI PUSH1 0x0 DUP1 REVERT JUMPDEST POP MLOAD SWAP2 POP POP SWAP1 JUMP JUMPDEST PUSH1 0x34 SLOAD PUSH1 0x1 PUSH1 0x1 PUSH1 0xA0 SHL SUB AND DUP2 JUMP JUMPDEST PUSH2 0x2214 PUSH2 0x477F JUMP JUMPDEST PUSH1 0x1 PUSH1 0x1 PUSH1 0xA0 SHL SUB DUP3 AND PUSH1 0x0 SWAP1 DUP2 MSTORE PUSH1 0x3B PUSH1 0x20 MSTORE PUSH1 0x40 SWAP1 DUP2 SWAP1 KECCAK256 DUP2 MLOAD PUSH2 0x300 DUP2 ADD SWAP3 DUP4 SWAP1 MSTORE SWAP2 PUSH1 0x18 SWAP1 DUP3 DUP5 JUMPDEST DUP2 SLOAD DUP2 MSTORE PUSH1 0x20 ADD SWAP1 PUSH1 0x1 ADD SWAP1 DUP1 DUP4 GT PUSH2 0x2240 JUMPI POP POP POP POP POP SWAP1 POP SWAP2 SWAP1 POP JUMP JUMPDEST PUSH1 0x39 SLOAD SWAP1 JUMP JUMPDEST PUSH1 0x1 PUSH1 0x1 PUSH1 0xA0 SHL SUB DUP3 AND PUSH1 0x0 SWAP1 DUP2 MSTORE PUSH1 0x3A PUSH1 0x20 MSTORE PUSH1 0x40 DUP2 KECCAK256 SLOAD PUSH1 0xFF AND PUSH2 0x22D2 JUMPI PUSH1 0x40 DUP1 MLOAD PUSH3 0x461BCD PUSH1 0xE5 SHL DUP2 MSTORE PUSH1 0x20 PUSH1 0x4 DUP3 ADD MSTORE PUSH1 0x1D PUSH1 0x24 DUP3 ADD MSTORE PUSH32 0x496E737472756D656E7420616C726561647920737570706F727465642E000000 PUSH1 0x44 DUP3 ADD MSTORE SWAP1 MLOAD SWAP1 DUP2 SWAP1 SUB PUSH1 0x64 ADD SWAP1 REVERT JUMPDEST PUSH1 0x39 SLOAD PUSH1 0x0 SWAP1 DUP2 JUMPDEST DUP2 DUP2 LT ISZERO PUSH2 0x2324 JUMPI DUP6 PUSH1 0x1 PUSH1 0x1 PUSH1 0xA0 SHL SUB AND PUSH1 0x39 DUP3 DUP2 SLOAD DUP2 LT PUSH2 0x22F9 JUMPI INVALID JUMPDEST PUSH1 0x0 SWAP2 DUP3 MSTORE PUSH1 0x20 SWAP1 SWAP2 KECCAK256 ADD SLOAD PUSH1 0x1 PUSH1 0x1 PUSH1 0xA0 SHL SUB AND EQ ISZERO PUSH2 0x231C JUMPI DUP1 SWAP3 POP PUSH2 0x2324 JUMP JUMPDEST PUSH1 0x1 ADD PUSH2 0x22DA JUMP JUMPDEST POP PUSH1 0x39 PUSH1 0x1 DUP3 SUB DUP2 SLOAD DUP2 LT PUSH2 0x2335 JUMPI INVALID JUMPDEST PUSH1 0x0 SWAP2 DUP3 MSTORE PUSH1 0x20 SWAP1 SWAP2 KECCAK256 ADD SLOAD PUSH1 0x39 DUP1 SLOAD PUSH1 0x1 PUSH1 0x1 PUSH1 0xA0 SHL SUB SWAP1 SWAP3 AND SWAP2 DUP5 SWAP1 DUP2 LT PUSH2 0x235B JUMPI INVALID JUMPDEST PUSH1 0x0 SWAP2 DUP3 MSTORE PUSH1 0x20 SWAP1 SWAP2 KECCAK256 ADD DUP1 SLOAD PUSH1 0x1 PUSH1 0x1 PUSH1 0xA0 SHL SUB NOT AND PUSH1 0x1 PUSH1 0x1 PUSH1 0xA0 SHL SUB SWAP3 SWAP1 SWAP3 AND SWAP2 SWAP1 SWAP2 OR SWAP1 SSTORE PUSH1 0x39 DUP1 SLOAD SWAP1 PUSH2 0x2397 SWAP1 PUSH1 0x0 NOT DUP4 ADD PUSH2 0x4849 JUMP JUMPDEST POP PUSH1 0x39 SLOAD PUSH1 0x0 NOT DUP3 ADD SWAP1 DUP2 EQ PUSH2 0x23DE JUMPI PUSH1 0x40 MLOAD PUSH3 0x461BCD PUSH1 0xE5 SHL DUP2 MSTORE PUSH1 0x4 ADD DUP1 DUP1 PUSH1 0x20 ADD DUP3 DUP2 SUB DUP3 MSTORE PUSH1 0x46 DUP2 MSTORE PUSH1 0x20 ADD DUP1 PUSH2 0x492D PUSH1 0x46 SWAP2 CODECOPY PUSH1 0x60 ADD SWAP2 POP POP PUSH1 0x40 MLOAD DUP1 SWAP2 SUB SWAP1 REVERT JUMPDEST PUSH1 0x60 PUSH1 0x3A PUSH1 0x0 DUP9 PUSH1 0x1 PUSH1 0x1 PUSH1 0xA0 SHL SUB AND PUSH1 0x1 PUSH1 0x1 PUSH1 0xA0 SHL SUB AND DUP2 MSTORE PUSH1 0x20 ADD SWAP1 DUP2 MSTORE PUSH1 0x20 ADD PUSH1 0x0 KECCAK256 PUSH1 0x1 ADD DUP1 SLOAD PUSH1 0x1 DUP2 PUSH1 0x1 AND ISZERO PUSH2 0x100 MUL SUB AND PUSH1 0x2 SWAP1 DIV DUP1 PUSH1 0x1F ADD PUSH1 0x20 DUP1 SWAP2 DIV MUL PUSH1 0x20 ADD PUSH1 0x40 MLOAD SWAP1 DUP2 ADD PUSH1 0x40 MSTORE DUP1 SWAP3 SWAP2 SWAP1 DUP2 DUP2 MSTORE PUSH1 0x20 ADD DUP3 DUP1 SLOAD PUSH1 0x1 DUP2 PUSH1 0x1 AND ISZERO PUSH2 0x100 MUL SUB AND PUSH1 0x2 SWAP1 DIV DUP1 ISZERO PUSH2 0x249C JUMPI DUP1 PUSH1 0x1F LT PUSH2 0x2471 JUMPI PUSH2 0x100 DUP1 DUP4 SLOAD DIV MUL DUP4 MSTORE SWAP2 PUSH1 0x20 ADD SWAP2 PUSH2 0x249C JUMP JUMPDEST DUP3 ADD SWAP2 SWAP1 PUSH1 0x0 MSTORE PUSH1 0x20 PUSH1 0x0 KECCAK256 SWAP1 JUMPDEST DUP2 SLOAD DUP2 MSTORE SWAP1 PUSH1 0x1 ADD SWAP1 PUSH1 0x20 ADD DUP1 DUP4 GT PUSH2 0x247F JUMPI DUP3 SWAP1 SUB PUSH1 0x1F AND DUP3 ADD SWAP2 JUMPDEST POP POP POP POP PUSH1 0x1 PUSH1 0x1 PUSH1 0xA0 SHL SUB DUP10 AND PUSH1 0x0 SWAP1 DUP2 MSTORE PUSH1 0x3A PUSH1 0x20 MSTORE PUSH1 0x40 DUP2 KECCAK256 DUP1 SLOAD PUSH1 0xFF NOT AND DUP2 SSTORE SWAP3 SWAP4 POP SWAP1 POP PUSH2 0x24D2 PUSH1 0x1 DUP4 ADD DUP3 PUSH2 0x486D JUMP JUMPDEST POP PUSH1 0x2 DUP2 DUP2 ADD DUP1 SLOAD PUSH1 0x1 PUSH1 0x1 PUSH1 0xA0 SHL SUB NOT AND SWAP1 SSTORE PUSH1 0x0 PUSH1 0x3 DUP1 DUP5 ADD DUP3 SWAP1 SSTORE PUSH1 0x4 DUP1 DUP6 ADD DUP1 SLOAD PUSH1 0xFF NOT AND SWAP1 SSTORE PUSH1 0x5 DUP6 ADD DUP4 SWAP1 SSTORE PUSH1 0x6 DUP6 ADD DUP4 SWAP1 SSTORE PUSH1 0x7 DUP6 ADD DUP4 SWAP1 SSTORE PUSH1 0x8 SWAP1 SWAP5 ADD DUP3 SWAP1 SSTORE PUSH1 0x1 PUSH1 0x1 PUSH1 0xA0 SHL SUB DUP12 AND DUP3 MSTORE PUSH1 0x56 PUSH1 0x20 MSTORE PUSH1 0x40 DUP3 KECCAK256 DUP3 DUP2 SSTORE PUSH1 0x1 DUP2 ADD DUP4 SWAP1 SSTORE SWAP3 DUP4 ADD DUP3 SWAP1 SSTORE DUP3 ADD DUP2 SWAP1 SSTORE SWAP1 SWAP2 PUSH2 0x2552 SWAP1 DUP4 ADD DUP3 PUSH2 0x486D JUMP JUMPDEST POP PUSH1 0x0 PUSH1 0x5 SWAP2 SWAP1 SWAP2 ADD DUP2 SWAP1 SSTORE PUSH1 0x1 PUSH1 0x1 PUSH1 0xA0 SHL SUB DUP9 AND DUP2 MSTORE PUSH1 0x3B PUSH1 0x20 MSTORE PUSH1 0x40 DUP2 KECCAK256 SWAP1 PUSH2 0x257E DUP3 DUP3 PUSH2 0x48B4 JUMP JUMPDEST PUSH1 0x18 DUP3 ADD PUSH1 0x0 PUSH2 0x100 EXP DUP2 SLOAD SWAP1 PUSH4 0xFFFFFFFF MUL NOT AND SWAP1 SSTORE POP POP PUSH32 0x65F75A1DD08CC1DB84FBA8E6F47EE955C0A2D816B86A642BE1F1F7867BF38EE5 DUP8 DUP8 DUP4 NUMBER PUSH1 0x40 MLOAD DUP1 DUP6 PUSH1 0x1 PUSH1 0x1 PUSH1 0xA0 SHL SUB AND PUSH1 0x1 PUSH1 0x1 PUSH1 0xA0 SHL SUB AND DUP2 MSTORE PUSH1 0x20 ADD DUP5 PUSH1 0x1 PUSH1 0x1 PUSH1 0xA0 SHL SUB AND PUSH1 0x1 PUSH1 0x1 PUSH1 0xA0 SHL SUB AND DUP2 MSTORE PUSH1 0x20 ADD DUP1 PUSH1 0x20 ADD DUP4 DUP2 MSTORE PUSH1 0x20 ADD DUP3 DUP2 SUB DUP3 MSTORE DUP5 DUP2 DUP2 MLOAD DUP2 MSTORE PUSH1 0x20 ADD SWAP2 POP DUP1 MLOAD SWAP1 PUSH1 0x20 ADD SWAP1 DUP1 DUP4 DUP4 PUSH1 0x0 JUMPDEST DUP4 DUP2 LT ISZERO PUSH2 0x262F JUMPI DUP2 DUP2 ADD MLOAD DUP4 DUP3 ADD MSTORE PUSH1 0x20 ADD PUSH2 0x2617 JUMP JUMPDEST POP POP POP POP SWAP1 POP SWAP1 DUP2 ADD SWAP1 PUSH1 0x1F AND DUP1 ISZERO PUSH2 0x265C JUMPI DUP1 DUP3 SUB DUP1 MLOAD PUSH1 0x1 DUP4 PUSH1 0x20 SUB PUSH2 0x100 EXP SUB NOT AND DUP2 MSTORE PUSH1 0x20 ADD SWAP2 POP JUMPDEST POP SWAP6 POP POP POP POP POP POP PUSH1 0x40 MLOAD DUP1 SWAP2 SUB SWAP1 LOG1 POP PUSH1 0x1 SWAP7 SWAP6 POP POP POP POP POP POP JUMP JUMPDEST PUSH1 0x0 CALLER PUSH1 0x1 PUSH1 0x1 PUSH1 0xA0 SHL SUB AND PUSH1 0x34 PUSH1 0x0 SWAP1 SLOAD SWAP1 PUSH2 0x100 EXP SWAP1 DIV PUSH1 0x1 PUSH1 0x1 PUSH1 0xA0 SHL SUB AND PUSH1 0x1 PUSH1 0x1 PUSH1 0xA0 SHL SUB AND PUSH4 0xDB49224B PUSH1 0x40 MLOAD DUP2 PUSH4 0xFFFFFFFF AND PUSH1 0xE0 SHL DUP2 MSTORE PUSH1 0x4 ADD PUSH1 0x20 PUSH1 0x40 MLOAD DUP1 DUP4 SUB DUP2 DUP7 DUP1 EXTCODESIZE ISZERO DUP1 ISZERO PUSH2 0x26D3 JUMPI PUSH1 0x0 DUP1 REVERT JUMPDEST POP GAS STATICCALL ISZERO DUP1 ISZERO PUSH2 0x26E7 JUMPI RETURNDATASIZE PUSH1 0x0 DUP1 RETURNDATACOPY RETURNDATASIZE PUSH1 0x0 REVERT JUMPDEST POP POP POP POP PUSH1 0x40 MLOAD RETURNDATASIZE PUSH1 0x20 DUP2 LT ISZERO PUSH2 0x26FD JUMPI PUSH1 0x0 DUP1 REVERT JUMPDEST POP MLOAD PUSH1 0x1 PUSH1 0x1 PUSH1 0xA0 SHL SUB AND EQ PUSH2 0x2744 JUMPI PUSH1 0x40 MLOAD PUSH3 0x461BCD PUSH1 0xE5 SHL DUP2 MSTORE PUSH1 0x4 ADD DUP1 DUP1 PUSH1 0x20 ADD DUP3 DUP2 SUB DUP3 MSTORE PUSH1 0x3A DUP2 MSTORE PUSH1 0x20 ADD DUP1 PUSH2 0x4AB4 PUSH1 0x3A SWAP2 CODECOPY PUSH1 0x40 ADD SWAP2 POP POP PUSH1 0x40 MLOAD DUP1 SWAP2 SUB SWAP1 REVERT JUMPDEST PUSH1 0x1 PUSH1 0x1 PUSH1 0xA0 SHL SUB DUP3 AND PUSH1 0x0 SWAP1 DUP2 MSTORE PUSH1 0x3A PUSH1 0x20 MSTORE PUSH1 0x40 SWAP1 KECCAK256 SLOAD PUSH1 0xFF AND PUSH2 0x279F JUMPI PUSH1 0x40 DUP1 MLOAD PUSH3 0x461BCD PUSH1 0xE5 SHL DUP2 MSTORE PUSH1 0x20 PUSH1 0x4 DUP3 ADD MSTORE PUSH1 0x19 PUSH1 0x24 DUP3 ADD MSTORE PUSH1 0x0 DUP1 MLOAD PUSH1 0x20 PUSH2 0x4DEF DUP4 CODECOPY DUP2 MLOAD SWAP2 MSTORE PUSH1 0x44 DUP3 ADD MSTORE SWAP1 MLOAD SWAP1 DUP2 SWAP1 SUB PUSH1 0x64 ADD SWAP1 REVERT JUMPDEST PUSH1 0x1 PUSH1 0x1 PUSH1 0xA0 SHL SUB DUP3 AND PUSH1 0x0 SWAP1 DUP2 MSTORE PUSH1 0x3A PUSH1 0x20 MSTORE PUSH1 0x40 SWAP1 KECCAK256 PUSH1 0x4 ADD SLOAD PUSH1 0xFF AND ISZERO PUSH2 0x27FA JUMPI PUSH1 0x40 MLOAD PUSH3 0x461BCD PUSH1 0xE5 SHL DUP2 MSTORE PUSH1 0x4 ADD DUP1 DUP1 PUSH1 0x20 ADD DUP3 DUP2 SUB DUP3 MSTORE PUSH1 0x3C DUP2 MSTORE PUSH1 0x20 ADD DUP1 PUSH2 0x49A9 PUSH1 0x3C SWAP2 CODECOPY PUSH1 0x40 ADD SWAP2 POP POP PUSH1 0x40 MLOAD DUP1 SWAP2 SUB SWAP1 REVERT JUMPDEST PUSH2 0x2802 PUSH2 0x1FE8 JUMP JUMPDEST POP PUSH1 0x1 PUSH1 0x1 PUSH1 0xA0 SHL SUB DUP3 AND PUSH1 0x0 SWAP1 DUP2 MSTORE PUSH1 0x3A PUSH1 0x20 MSTORE PUSH1 0x40 SWAP1 KECCAK256 PUSH1 0x4 DUP2 ADD DUP1 SLOAD PUSH1 0xFF NOT AND PUSH1 0x1 SWAP1 DUP2 OR SWAP2 DUP3 SWAP1 SSTORE PUSH32 0x95EB8164ADA5BBD9B16BB9918BCF97960C1D006F76427F3FAF2BFB2EBC963E42 SWAP3 DUP6 SWAP3 SWAP2 ADD SWAP1 PUSH1 0xFF AND PUSH2 0x2860 PUSH2 0xC14 JUMP JUMPDEST PUSH1 0x40 DUP1 MLOAD PUSH1 0x1 PUSH1 0x1 PUSH1 0xA0 SHL SUB DUP7 AND DUP2 MSTORE DUP4 ISZERO ISZERO SWAP2 DUP2 ADD SWAP2 SWAP1 SWAP2 MSTORE PUSH4 0xFFFFFFFF DUP3 AND PUSH1 0x60 DUP3 ADD MSTORE PUSH1 0x80 PUSH1 0x20 DUP3 ADD DUP2 DUP2 MSTORE DUP6 SLOAD PUSH1 0x2 PUSH1 0x0 NOT PUSH2 0x100 PUSH1 0x1 DUP5 AND ISZERO MUL ADD SWAP1 SWAP2 AND DIV SWAP2 DUP4 ADD DUP3 SWAP1 MSTORE SWAP1 PUSH1 0xA0 DUP4 ADD SWAP1 DUP7 SWAP1 DUP1 ISZERO PUSH2 0x28FF JUMPI DUP1 PUSH1 0x1F LT PUSH2 0x28D4 JUMPI PUSH2 0x100 DUP1 DUP4 SLOAD DIV MUL DUP4 MSTORE SWAP2 PUSH1 0x20 ADD SWAP2 PUSH2 0x28FF JUMP JUMPDEST DUP3 ADD SWAP2 SWAP1 PUSH1 0x0 MSTORE PUSH1 0x20 PUSH1 0x0 KECCAK256 SWAP1 JUMPDEST DUP2 SLOAD DUP2 MSTORE SWAP1 PUSH1 0x1 ADD SWAP1 PUSH1 0x20 ADD DUP1 DUP4 GT PUSH2 0x28E2 JUMPI DUP3 SWAP1 SUB PUSH1 0x1F AND DUP3 ADD SWAP2 JUMPDEST POP POP SWAP6 POP POP POP POP POP POP PUSH1 0x40 MLOAD DUP1 SWAP2 SUB SWAP1 LOG1 POP PUSH1 0x1 SWAP2 SWAP1 POP JUMP JUMPDEST PUSH1 0x0 PUSH2 0x2922 PUSH2 0xC14 JUMP JUMPDEST PUSH1 0x1 PUSH1 0x1 PUSH1 0xA0 SHL SUB DUP4 AND PUSH1 0x0 SWAP1 DUP2 MSTORE PUSH1 0x3A PUSH1 0x20 MSTORE PUSH1 0x40 SWAP1 KECCAK256 PUSH1 0x6 ADD SLOAD PUSH4 0xFFFFFFFF SWAP2 SWAP1 SWAP2 AND EQ ISZERO PUSH2 0x2955 JUMPI POP PUSH1 0x1 PUSH2 0x9C0 JUMP JUMPDEST PUSH1 0x1 PUSH1 0x1 PUSH1 0xA0 SHL SUB DUP3 AND PUSH1 0x0 SWAP1 DUP2 MSTORE PUSH1 0x3A PUSH1 0x20 SWAP1 DUP2 MSTORE PUSH1 0x40 DUP1 DUP4 KECCAK256 PUSH1 0x56 DUP4 MSTORE DUP2 DUP5 KECCAK256 DUP1 SLOAD PUSH1 0x2 SWAP1 SWAP2 ADD SLOAD DUP4 MLOAD PUSH1 0x60 DUP2 ADD SWAP1 SWAP5 MSTORE PUSH1 0x33 DUP1 DUP6 MSTORE SWAP3 SWAP6 SWAP5 PUSH2 0x29A6 SWAP5 SWAP3 SWAP4 SWAP2 SWAP3 SWAP2 SWAP1 PUSH2 0x49E5 SWAP1 DUP4 ADD CODECOPY PUSH2 0x3D63 JUMP JUMPDEST SWAP1 POP PUSH1 0x0 PUSH2 0x29B2 PUSH2 0xC14 JUMP JUMPDEST PUSH4 0xFFFFFFFF AND SWAP1 POP PUSH1 0x0 PUSH2 0x29E3 DUP3 DUP6 PUSH1 0x6 ADD SLOAD PUSH1 0x40 MLOAD DUP1 PUSH1 0x60 ADD PUSH1 0x40 MSTORE DUP1 PUSH1 0x33 DUP2 MSTORE PUSH1 0x20 ADD PUSH2 0x4DBC PUSH1 0x33 SWAP2 CODECOPY PUSH2 0x2F7E JUMP JUMPDEST SWAP1 POP PUSH1 0x0 DUP2 GT DUP1 ISZERO PUSH2 0x29F5 JUMPI POP PUSH1 0x0 DUP4 GT JUMPDEST ISZERO PUSH2 0x2B46 JUMPI PUSH1 0x0 PUSH2 0x2A06 DUP3 DUP6 PUSH2 0x3DC1 JUMP JUMPDEST PUSH1 0x37 SLOAD PUSH1 0x40 DUP1 MLOAD PUSH4 0x792A0FEB PUSH1 0xE0 SHL DUP2 MSTORE PUSH1 0x1 PUSH1 0x1 PUSH1 0xA0 SHL SUB DUP12 DUP2 AND PUSH1 0x4 DUP4 ADD MSTORE SWAP2 MLOAD SWAP4 SWAP5 POP PUSH1 0x0 SWAP4 SWAP2 SWAP1 SWAP3 AND SWAP2 PUSH4 0x792A0FEB SWAP2 PUSH1 0x24 DUP1 DUP4 ADD SWAP3 PUSH1 0x20 SWAP3 SWAP2 SWAP1 DUP3 SWAP1 SUB ADD DUP2 DUP7 DUP1 EXTCODESIZE ISZERO DUP1 ISZERO PUSH2 0x2A59 JUMPI PUSH1 0x0 DUP1 REVERT JUMPDEST POP GAS STATICCALL ISZERO DUP1 ISZERO PUSH2 0x2A6D JUMPI RETURNDATASIZE PUSH1 0x0 DUP1 RETURNDATACOPY RETURNDATASIZE PUSH1 0x0 REVERT JUMPDEST POP POP POP POP PUSH1 0x40 MLOAD RETURNDATASIZE PUSH1 0x20 DUP2 LT ISZERO PUSH2 0x2A83 JUMPI PUSH1 0x0 DUP1 REVERT JUMPDEST POP MLOAD SWAP1 POP PUSH2 0x2A8F PUSH2 0x48C3 JUMP JUMPDEST PUSH1 0x0 DUP3 GT PUSH2 0x2AAC JUMPI PUSH1 0x40 MLOAD DUP1 PUSH1 0x20 ADD PUSH1 0x40 MSTORE DUP1 PUSH1 0x0 DUP2 MSTORE POP PUSH2 0x2AB6 JUMP JUMPDEST PUSH2 0x2AB6 DUP4 DUP4 PUSH2 0x3E03 JUMP JUMPDEST SWAP1 POP PUSH2 0x2AC0 PUSH2 0x48C3 JUMP JUMPDEST PUSH2 0x2ADC PUSH1 0x40 MLOAD DUP1 PUSH1 0x20 ADD PUSH1 0x40 MSTORE DUP1 DUP11 PUSH1 0x5 ADD SLOAD DUP2 MSTORE POP DUP4 PUSH2 0x3E41 JUMP JUMPDEST DUP3 MLOAD DUP2 MLOAD PUSH1 0x40 DUP1 MLOAD PUSH1 0x1 PUSH1 0x1 PUSH1 0xA0 SHL SUB DUP16 AND DUP2 MSTORE PUSH1 0x20 DUP2 ADD DUP10 SWAP1 MSTORE DUP1 DUP3 ADD SWAP4 SWAP1 SWAP4 MSTORE PUSH1 0x60 DUP4 ADD SWAP2 SWAP1 SWAP2 MSTORE PUSH1 0x80 DUP3 ADD DUP10 SWAP1 MSTORE MLOAD SWAP2 SWAP3 POP PUSH32 0xB867B8B8D737258B7B2A8F2A73127133CAE096A336DB6B64516CE59E8E733F5B SWAP2 SWAP1 DUP2 SWAP1 SUB PUSH1 0xA0 ADD SWAP1 LOG1 MLOAD PUSH1 0x5 DUP9 ADD SSTORE POP POP POP JUMPDEST POP PUSH1 0x6 SWAP1 SWAP3 ADD SWAP2 SWAP1 SWAP2 SSTORE POP PUSH1 0x1 SWAP1 POP SWAP2 SWAP1 POP JUMP JUMPDEST PUSH1 0x0 PUSH2 0x1673 DUP4 DUP4 PUSH1 0x40 MLOAD DUP1 PUSH1 0x40 ADD PUSH1 0x40 MSTORE DUP1 PUSH1 0x15 DUP2 MSTORE PUSH1 0x20 ADD PUSH21 0x7375627472616374696F6E20756E646572666C6F77 PUSH1 0x58 SHL DUP2 MSTORE POP PUSH2 0x2F7E JUMP JUMPDEST PUSH1 0x0 PUSH2 0x2B9E PUSH2 0xC14 JUMP JUMPDEST PUSH1 0x1 PUSH1 0x1 PUSH1 0xA0 SHL SUB DUP4 AND PUSH1 0x0 SWAP1 DUP2 MSTORE PUSH1 0x3A PUSH1 0x20 MSTORE PUSH1 0x40 SWAP1 KECCAK256 PUSH1 0x8 ADD SLOAD PUSH4 0xFFFFFFFF SWAP2 SWAP1 SWAP2 AND EQ ISZERO PUSH2 0x2BD1 JUMPI POP PUSH1 0x1 PUSH2 0x9C0 JUMP JUMPDEST PUSH1 0x1 PUSH1 0x1 PUSH1 0xA0 SHL SUB DUP3 AND PUSH1 0x0 SWAP1 DUP2 MSTORE PUSH1 0x3A PUSH1 0x20 SWAP1 DUP2 MSTORE PUSH1 0x40 DUP1 DUP4 KECCAK256 PUSH1 0x56 DUP4 MSTORE DUP2 DUP5 KECCAK256 PUSH1 0x1 DUP2 ADD SLOAD PUSH1 0x2 SWAP1 SWAP2 ADD SLOAD DUP4 MLOAD PUSH1 0x60 DUP2 ADD SWAP1 SWAP5 MSTORE PUSH1 0x33 DUP1 DUP6 MSTORE SWAP3 SWAP6 SWAP5 PUSH2 0x2C25 SWAP5 SWAP3 SWAP4 SWAP2 SWAP3 SWAP2 SWAP1 PUSH2 0x49E5 SWAP1 DUP4 ADD CODECOPY PUSH2 0x3D63 JUMP JUMPDEST SWAP1 POP PUSH1 0x0 PUSH2 0x2C31 PUSH2 0xC14 JUMP JUMPDEST PUSH4 0xFFFFFFFF AND SWAP1 POP PUSH1 0x0 PUSH2 0x2C62 DUP3 DUP6 PUSH1 0x8 ADD SLOAD PUSH1 0x40 MLOAD DUP1 PUSH1 0x60 ADD PUSH1 0x40 MSTORE DUP1 PUSH1 0x33 DUP2 MSTORE PUSH1 0x20 ADD PUSH2 0x4C0E PUSH1 0x33 SWAP2 CODECOPY PUSH2 0x2F7E JUMP JUMPDEST SWAP1 POP PUSH1 0x0 DUP2 GT DUP1 ISZERO PUSH2 0x2C74 JUMPI POP PUSH1 0x0 DUP4 GT JUMPDEST ISZERO PUSH2 0x2DC5 JUMPI PUSH1 0x0 PUSH2 0x2C85 DUP3 DUP6 PUSH2 0x3DC1 JUMP JUMPDEST PUSH1 0x37 SLOAD PUSH1 0x40 DUP1 MLOAD PUSH4 0x915C83B PUSH1 0xE2 SHL DUP2 MSTORE PUSH1 0x1 PUSH1 0x1 PUSH1 0xA0 SHL SUB DUP12 DUP2 AND PUSH1 0x4 DUP4 ADD MSTORE SWAP2 MLOAD SWAP4 SWAP5 POP PUSH1 0x0 SWAP4 SWAP2 SWAP1 SWAP3 AND SWAP2 PUSH4 0x245720EC SWAP2 PUSH1 0x24 DUP1 DUP4 ADD SWAP3 PUSH1 0x20 SWAP3 SWAP2 SWAP1 DUP3 SWAP1 SUB ADD DUP2 DUP7 DUP1 EXTCODESIZE ISZERO DUP1 ISZERO PUSH2 0x2CD8 JUMPI PUSH1 0x0 DUP1 REVERT JUMPDEST POP GAS STATICCALL ISZERO DUP1 ISZERO PUSH2 0x2CEC JUMPI RETURNDATASIZE PUSH1 0x0 DUP1 RETURNDATACOPY RETURNDATASIZE PUSH1 0x0 REVERT JUMPDEST POP POP POP POP PUSH1 0x40 MLOAD RETURNDATASIZE PUSH1 0x20 DUP2 LT ISZERO PUSH2 0x2D02 JUMPI PUSH1 0x0 DUP1 REVERT JUMPDEST POP MLOAD SWAP1 POP PUSH2 0x2D0E PUSH2 0x48C3 JUMP JUMPDEST PUSH1 0x0 DUP3 GT PUSH2 0x2D2B JUMPI PUSH1 0x40 MLOAD DUP1 PUSH1 0x20 ADD PUSH1 0x40 MSTORE DUP1 PUSH1 0x0 DUP2 MSTORE POP PUSH2 0x2D35 JUMP JUMPDEST PUSH2 0x2D35 DUP4 DUP4 PUSH2 0x3E03 JUMP JUMPDEST SWAP1 POP PUSH2 0x2D3F PUSH2 0x48C3 JUMP JUMPDEST PUSH2 0x2D5B PUSH1 0x40 MLOAD DUP1 PUSH1 0x20 ADD PUSH1 0x40 MSTORE DUP1 DUP11 PUSH1 0x7 ADD SLOAD DUP2 MSTORE POP DUP4 PUSH2 0x3E41 JUMP JUMPDEST DUP3 MLOAD DUP2 MLOAD PUSH1 0x40 DUP1 MLOAD PUSH1 0x1 PUSH1 0x1 PUSH1 0xA0 SHL SUB DUP16 AND DUP2 MSTORE PUSH1 0x20 DUP2 ADD DUP10 SWAP1 MSTORE DUP1 DUP3 ADD SWAP4 SWAP1 SWAP4 MSTORE PUSH1 0x60 DUP4 ADD SWAP2 SWAP1 SWAP2 MSTORE PUSH1 0x80 DUP3 ADD DUP10 SWAP1 MSTORE MLOAD SWAP2 SWAP3 POP PUSH32 0x30F0A079CEAE43619C1D76B029EF6084B05B2234181E81720FEA3B9624177601 SWAP2 SWAP1 DUP2 SWAP1 SUB PUSH1 0xA0 ADD SWAP1 LOG1 MLOAD PUSH1 0x7 DUP9 ADD SSTORE POP POP POP JUMPDEST POP PUSH1 0x8 SWAP1 SWAP3 ADD SWAP2 SWAP1 SWAP2 SSTORE POP PUSH1 0x1 SWAP1 POP SWAP2 SWAP1 POP JUMP JUMPDEST PUSH1 0x34 PUSH1 0x0 SWAP1 SLOAD SWAP1 PUSH2 0x100 EXP SWAP1 DIV PUSH1 0x1 PUSH1 0x1 PUSH1 0xA0 SHL SUB AND PUSH1 0x1 PUSH1 0x1 PUSH1 0xA0 SHL SUB AND PUSH4 0x841AA40C PUSH1 0x40 MLOAD DUP2 PUSH4 0xFFFFFFFF AND PUSH1 0xE0 SHL DUP2 MSTORE PUSH1 0x4 ADD PUSH1 0x20 PUSH1 0x40 MLOAD DUP1 DUP4 SUB DUP2 DUP7 DUP1 EXTCODESIZE ISZERO DUP1 ISZERO PUSH2 0x2E27 JUMPI PUSH1 0x0 DUP1 REVERT JUMPDEST POP GAS STATICCALL ISZERO DUP1 ISZERO PUSH2 0x2E3B JUMPI RETURNDATASIZE PUSH1 0x0 DUP1 RETURNDATACOPY RETURNDATASIZE PUSH1 0x0 REVERT JUMPDEST POP POP POP POP PUSH1 0x40 MLOAD RETURNDATASIZE PUSH1 0x20 DUP2 LT ISZERO PUSH2 0x2E51 JUMPI PUSH1 0x0 DUP1 REVERT JUMPDEST POP MLOAD PUSH1 0x35 DUP1 SLOAD PUSH1 0x1 PUSH1 0x1 PUSH1 0xA0 SHL SUB NOT AND PUSH1 0x1 PUSH1 0x1 PUSH1 0xA0 SHL SUB SWAP3 DUP4 AND OR SWAP1 SSTORE PUSH1 0x34 SLOAD PUSH1 0x40 DUP1 MLOAD PUSH4 0x1F94A275 PUSH1 0xE3 SHL DUP2 MSTORE SWAP1 MLOAD SWAP2 SWAP1 SWAP3 AND SWAP2 PUSH4 0xFCA513A8 SWAP2 PUSH1 0x4 DUP1 DUP4 ADD SWAP3 PUSH1 0x20 SWAP3 SWAP2 SWAP1 DUP3 SWAP1 SUB ADD DUP2 DUP7 DUP1 EXTCODESIZE ISZERO DUP1 ISZERO PUSH2 0x2EAC JUMPI PUSH1 0x0 DUP1 REVERT JUMPDEST POP GAS STATICCALL ISZERO DUP1 ISZERO PUSH2 0x2EC0 JUMPI RETURNDATASIZE PUSH1 0x0 DUP1 RETURNDATACOPY RETURNDATASIZE PUSH1 0x0 REVERT JUMPDEST POP POP POP POP PUSH1 0x40 MLOAD RETURNDATASIZE PUSH1 0x20 DUP2 LT ISZERO PUSH2 0x2ED6 JUMPI PUSH1 0x0 DUP1 REVERT JUMPDEST POP MLOAD PUSH1 0x36 DUP1 SLOAD PUSH1 0x1 PUSH1 0x1 PUSH1 0xA0 SHL SUB NOT AND PUSH1 0x1 PUSH1 0x1 PUSH1 0xA0 SHL SUB SWAP3 DUP4 AND OR SWAP1 SSTORE PUSH1 0x34 SLOAD PUSH1 0x40 DUP1 MLOAD PUSH4 0x76B7FBB PUSH1 0xE5 SHL DUP2 MSTORE SWAP1 MLOAD SWAP2 SWAP1 SWAP3 AND SWAP2 PUSH4 0xED6FF760 SWAP2 PUSH1 0x4 DUP1 DUP4 ADD SWAP3 PUSH1 0x20 SWAP3 SWAP2 SWAP1 DUP3 SWAP1 SUB ADD DUP2 DUP7 DUP1 EXTCODESIZE ISZERO DUP1 ISZERO PUSH2 0x2F31 JUMPI PUSH1 0x0 DUP1 REVERT JUMPDEST POP GAS STATICCALL ISZERO DUP1 ISZERO PUSH2 0x2F45 JUMPI RETURNDATASIZE PUSH1 0x0 DUP1 RETURNDATACOPY RETURNDATASIZE PUSH1 0x0 REVERT JUMPDEST POP POP POP POP PUSH1 0x40 MLOAD RETURNDATASIZE PUSH1 0x20 DUP2 LT ISZERO PUSH2 0x2F5B JUMPI PUSH1 0x0 DUP1 REVERT JUMPDEST POP MLOAD PUSH1 0x37 DUP1 SLOAD PUSH1 0x1 PUSH1 0x1 PUSH1 0xA0 SHL SUB NOT AND PUSH1 0x1 PUSH1 0x1 PUSH1 0xA0 SHL SUB SWAP1 SWAP3 AND SWAP2 SWAP1 SWAP2 OR SWAP1 SSTORE JUMP JUMPDEST PUSH1 0x0 DUP2 DUP5 DUP5 GT ISZERO PUSH2 0x300D JUMPI PUSH1 0x40 MLOAD PUSH3 0x461BCD PUSH1 0xE5 SHL DUP2 MSTORE PUSH1 0x4 ADD DUP1 DUP1 PUSH1 0x20 ADD DUP3 DUP2 SUB DUP3 MSTORE DUP4 DUP2 DUP2 MLOAD DUP2 MSTORE PUSH1 0x20 ADD SWAP2 POP DUP1 MLOAD SWAP1 PUSH1 0x20 ADD SWAP1 DUP1 DUP4 DUP4 PUSH1 0x0 JUMPDEST DUP4 DUP2 LT ISZERO PUSH2 0x2FD2 JUMPI DUP2 DUP2 ADD MLOAD DUP4 DUP3 ADD MSTORE PUSH1 0x20 ADD PUSH2 0x2FBA JUMP JUMPDEST POP POP POP POP SWAP1 POP SWAP1 DUP2 ADD SWAP1 PUSH1 0x1F AND DUP1 ISZERO PUSH2 0x2FFF JUMPI DUP1 DUP3 SUB DUP1 MLOAD PUSH1 0x1 DUP4 PUSH1 0x20 SUB PUSH2 0x100 EXP SUB NOT AND DUP2 MSTORE PUSH1 0x20 ADD SWAP2 POP JUMPDEST POP SWAP3 POP POP POP PUSH1 0x40 MLOAD DUP1 SWAP2 SUB SWAP1 REVERT JUMPDEST POP POP POP SWAP1 SUB SWAP1 JUMP JUMPDEST PUSH1 0x60 PUSH1 0x39 DUP1 SLOAD DUP1 PUSH1 0x20 MUL PUSH1 0x20 ADD PUSH1 0x40 MLOAD SWAP1 DUP2 ADD PUSH1 0x40 MSTORE DUP1 SWAP3 SWAP2 SWAP1 DUP2 DUP2 MSTORE PUSH1 0x20 ADD DUP3 DUP1 SLOAD DUP1 ISZERO PUSH2 0x306D JUMPI PUSH1 0x20 MUL DUP3 ADD SWAP2 SWAP1 PUSH1 0x0 MSTORE PUSH1 0x20 PUSH1 0x0 KECCAK256 SWAP1 JUMPDEST DUP2 SLOAD PUSH1 0x1 PUSH1 0x1 PUSH1 0xA0 SHL SUB AND DUP2 MSTORE PUSH1 0x1 SWAP1 SWAP2 ADD SWAP1 PUSH1 0x20 ADD DUP1 DUP4 GT PUSH2 0x304F JUMPI JUMPDEST POP POP PUSH1 0x54 SLOAD SWAP4 SWAP5 POP PUSH1 0x0 SWAP4 PUSH2 0x30B7 SWAP4 POP NUMBER SWAP3 POP PUSH1 0x3C SWAP2 POP PUSH1 0x1 PUSH1 0x1 PUSH1 0xE0 SHL SUB AND PUSH1 0x18 DUP2 LT PUSH2 0x3097 JUMPI INVALID JUMPDEST ADD SLOAD PUSH1 0x40 MLOAD DUP1 PUSH1 0x60 ADD PUSH1 0x40 MSTORE DUP1 PUSH1 0x21 DUP2 MSTORE PUSH1 0x20 ADD PUSH2 0x4BC0 PUSH1 0x21 SWAP2 CODECOPY PUSH2 0x2F7E JUMP JUMPDEST PUSH1 0x54 SLOAD SWAP1 SWAP2 POP PUSH32 0xD54B3C8DDE4FE116EE9CF6976B328B65C622D171E8A73017473B4257BD5BF6F8 SWAP1 PUSH1 0x1 PUSH1 0x1 PUSH1 0xE0 SHL SUB AND DUP3 PUSH1 0x3C DUP3 PUSH1 0x18 DUP2 LT PUSH2 0x30F6 JUMPI INVALID JUMPDEST ADD SLOAD PUSH1 0x40 DUP1 MLOAD PUSH1 0x1 PUSH1 0x1 PUSH1 0xE0 SHL SUB SWAP1 SWAP5 AND DUP5 MSTORE PUSH1 0x20 DUP5 ADD SWAP3 SWAP1 SWAP3 MSTORE DUP3 DUP3 ADD MSTORE NUMBER PUSH1 0x60 DUP4 ADD MSTORE MLOAD SWAP1 DUP2 SWAP1 SUB PUSH1 0x80 ADD SWAP1 LOG1 PUSH1 0x54 SLOAD NUMBER SWAP1 PUSH1 0x3C SWAP1 PUSH1 0x1 PUSH1 0x1 PUSH1 0xE0 SHL SUB AND PUSH1 0x18 DUP2 LT PUSH2 0x3140 JUMPI INVALID JUMPDEST ADD SSTORE PUSH2 0x314A PUSH2 0x3E66 JUMP JUMPDEST PUSH2 0x3185 JUMPI PUSH1 0x40 MLOAD PUSH3 0x461BCD PUSH1 0xE5 SHL DUP2 MSTORE PUSH1 0x4 ADD DUP1 DUP1 PUSH1 0x20 ADD DUP3 DUP2 SUB DUP3 MSTORE PUSH1 0x22 DUP2 MSTORE PUSH1 0x20 ADD DUP1 PUSH2 0x4C41 PUSH1 0x22 SWAP2 CODECOPY PUSH1 0x40 ADD SWAP2 POP POP PUSH1 0x40 MLOAD DUP1 SWAP2 SUB SWAP1 REVERT JUMPDEST PUSH1 0x60 DUP3 MLOAD PUSH1 0x40 MLOAD SWAP1 DUP1 DUP3 MSTORE DUP1 PUSH1 0x20 MUL PUSH1 0x20 ADD DUP3 ADD PUSH1 0x40 MSTORE DUP1 ISZERO PUSH2 0x31C2 JUMPI DUP2 PUSH1 0x20 ADD JUMPDEST PUSH2 0x31AF PUSH2 0x48C3 JUMP JUMPDEST DUP2 MSTORE PUSH1 0x20 ADD SWAP1 PUSH1 0x1 SWAP1 SUB SWAP1 DUP2 PUSH2 0x31A7 JUMPI SWAP1 POP JUMPDEST POP SWAP1 POP PUSH1 0x60 DUP4 MLOAD PUSH1 0x40 MLOAD SWAP1 DUP1 DUP3 MSTORE DUP1 PUSH1 0x20 MUL PUSH1 0x20 ADD DUP3 ADD PUSH1 0x40 MSTORE DUP1 ISZERO PUSH2 0x3202 JUMPI DUP2 PUSH1 0x20 ADD JUMPDEST PUSH2 0x31EF PUSH2 0x48C3 JUMP JUMPDEST DUP2 MSTORE PUSH1 0x20 ADD SWAP1 PUSH1 0x1 SWAP1 SUB SWAP1 DUP2 PUSH2 0x31E7 JUMPI SWAP1 POP JUMPDEST POP SWAP1 POP PUSH2 0x320D PUSH2 0x48C3 JUMP JUMPDEST POP PUSH1 0x40 DUP1 MLOAD PUSH1 0x20 DUP2 ADD SWAP1 SWAP2 MSTORE PUSH1 0x0 DUP1 DUP3 MSTORE JUMPDEST DUP6 MLOAD DUP2 LT ISZERO PUSH2 0x3AFA JUMPI PUSH1 0x0 DUP7 DUP3 DUP2 MLOAD DUP2 LT PUSH2 0x3236 JUMPI INVALID JUMPDEST PUSH1 0x20 MUL PUSH1 0x20 ADD ADD MLOAD SWAP1 POP PUSH2 0x3248 PUSH2 0x48C3 JUMP JUMPDEST PUSH1 0x40 DUP1 MLOAD PUSH1 0x20 DUP1 DUP3 ADD DUP4 MSTORE PUSH1 0x1 PUSH1 0x1 PUSH1 0xA0 SHL SUB DUP6 AND PUSH1 0x0 SWAP1 DUP2 MSTORE PUSH1 0x3B SWAP1 SWAP2 MSTORE SWAP2 SWAP1 SWAP2 KECCAK256 PUSH1 0x54 SLOAD DUP3 SWAP2 SWAP1 PUSH1 0x1 PUSH1 0x1 PUSH1 0xE0 SHL SUB AND PUSH1 0x18 DUP2 LT PUSH2 0x3284 JUMPI INVALID JUMPDEST ADD SLOAD SWAP1 MSTORE SWAP1 POP PUSH2 0x3292 PUSH2 0x48C3 JUMP JUMPDEST PUSH1 0x40 DUP1 MLOAD PUSH1 0x20 DUP1 DUP3 ADD DUP1 DUP5 MSTORE PUSH1 0x36 SLOAD PUSH4 0xB3596F07 PUSH1 0xE0 SHL SWAP1 SWAP2 MSTORE PUSH1 0x1 PUSH1 0x1 PUSH1 0xA0 SHL SUB DUP8 DUP2 AND PUSH1 0x24 DUP6 ADD MSTORE SWAP4 MLOAD SWAP3 SWAP4 DUP5 SWAP4 SWAP2 AND SWAP2 PUSH4 0xB3596F07 SWAP2 PUSH1 0x44 DUP1 DUP7 ADD SWAP3 SWAP2 SWAP1 DUP2 DUP8 SUB ADD DUP2 DUP7 DUP1 EXTCODESIZE ISZERO DUP1 ISZERO PUSH2 0x32E7 JUMPI PUSH1 0x0 DUP1 REVERT JUMPDEST POP GAS STATICCALL ISZERO DUP1 ISZERO PUSH2 0x32FB JUMPI RETURNDATASIZE PUSH1 0x0 DUP1 RETURNDATACOPY RETURNDATASIZE PUSH1 0x0 REVERT JUMPDEST POP POP POP POP PUSH1 0x40 MLOAD RETURNDATASIZE PUSH1 0x20 DUP2 LT ISZERO PUSH2 0x3311 JUMPI PUSH1 0x0 DUP1 REVERT JUMPDEST POP MLOAD SWAP1 MSTORE DUP1 MLOAD SWAP1 SWAP2 POP PUSH2 0x3355 JUMPI PUSH1 0x40 MLOAD PUSH3 0x461BCD PUSH1 0xE5 SHL DUP2 MSTORE PUSH1 0x4 ADD DUP1 DUP1 PUSH1 0x20 ADD DUP3 DUP2 SUB DUP3 MSTORE PUSH1 0x39 DUP2 MSTORE PUSH1 0x20 ADD DUP1 PUSH2 0x4AEE PUSH1 0x39 SWAP2 CODECOPY PUSH1 0x40 ADD SWAP2 POP POP PUSH1 0x40 MLOAD DUP1 SWAP2 SUB SWAP1 REVERT JUMPDEST DUP1 MLOAD PUSH1 0x1 PUSH1 0x1 PUSH1 0xA0 SHL SUB DUP5 AND PUSH1 0x0 SWAP1 DUP2 MSTORE PUSH1 0x3B PUSH1 0x20 MSTORE PUSH1 0x40 SWAP1 KECCAK256 PUSH1 0x54 SLOAD PUSH1 0x1 PUSH1 0x1 PUSH1 0xE0 SHL SUB AND PUSH1 0x18 DUP2 LT PUSH2 0x3385 JUMPI INVALID JUMPDEST ADD SSTORE DUP2 MLOAD PUSH1 0x1 PUSH1 0x1 PUSH1 0xA0 SHL SUB DUP5 AND PUSH1 0x0 SWAP1 DUP2 MSTORE PUSH1 0x3B PUSH1 0x20 MSTORE PUSH1 0x40 SWAP1 KECCAK256 PUSH1 0x54 SLOAD PUSH32 0x4C4CB8D799AD60C5E77071F11A367FF22E59C2DE36F996F1DAF8A2F99B1826A5 SWAP3 DUP7 SWAP3 SWAP1 SWAP2 PUSH1 0x1 PUSH1 0x1 PUSH1 0xE0 SHL SUB AND PUSH1 0x18 DUP2 LT PUSH2 0x33DD JUMPI INVALID JUMPDEST ADD SLOAD PUSH1 0x54 SLOAD PUSH1 0x40 DUP1 MLOAD PUSH1 0x1 PUSH1 0x1 PUSH1 0xA0 SHL SUB SWAP1 SWAP6 AND DUP6 MSTORE PUSH1 0x20 DUP6 ADD SWAP4 SWAP1 SWAP4 MSTORE DUP4 DUP4 ADD SWAP2 SWAP1 SWAP2 MSTORE PUSH1 0x1 PUSH1 0x1 PUSH1 0xE0 SHL SUB AND PUSH1 0x60 DUP4 ADD MSTORE MLOAD SWAP1 DUP2 SWAP1 SUB PUSH1 0x80 ADD SWAP1 LOG1 PUSH1 0x1 PUSH1 0x1 PUSH1 0xA0 SHL SUB DUP4 AND PUSH1 0x0 SWAP1 DUP2 MSTORE PUSH1 0x3A PUSH1 0x20 MSTORE PUSH1 0x40 SWAP1 KECCAK256 PUSH1 0x4 ADD SLOAD PUSH1 0xFF AND ISZERO DUP1 PUSH2 0x3467 JUMPI POP PUSH1 0x1 PUSH1 0x1 PUSH1 0xA0 SHL SUB DUP4 AND PUSH1 0x0 SWAP1 DUP2 MSTORE PUSH1 0x3B PUSH1 0x20 MSTORE PUSH1 0x40 SWAP1 KECCAK256 PUSH1 0x18 SWAP1 DUP2 ADD SLOAD PUSH4 0xFFFFFFFF AND EQ ISZERO JUMPDEST ISZERO PUSH2 0x35D2 JUMPI PUSH1 0x40 MLOAD DUP1 PUSH1 0x20 ADD PUSH1 0x40 MSTORE DUP1 PUSH1 0x0 DUP2 MSTORE POP DUP8 DUP6 DUP2 MLOAD DUP2 LT PUSH2 0x3488 JUMPI INVALID JUMPDEST PUSH1 0x20 MUL PUSH1 0x20 ADD ADD DUP2 SWAP1 MSTORE POP PUSH1 0x40 MLOAD DUP1 PUSH1 0x20 ADD PUSH1 0x40 MSTORE DUP1 PUSH1 0x0 DUP2 MSTORE POP DUP7 DUP6 DUP2 MLOAD DUP2 LT PUSH2 0x34AF JUMPI INVALID JUMPDEST PUSH1 0x20 SWAP1 DUP2 MUL SWAP2 SWAP1 SWAP2 ADD DUP2 ADD SWAP2 SWAP1 SWAP2 MSTORE PUSH1 0x40 DUP1 MLOAD DUP1 DUP3 ADD DUP3 MSTORE PUSH1 0x8 DUP2 MSTORE PUSH8 0x696E616374697665 PUSH1 0xC0 SHL DUP2 DUP5 ADD SWAP1 DUP2 MSTORE PUSH1 0x1 PUSH1 0x1 PUSH1 0xA0 SHL SUB DUP8 AND PUSH1 0x0 SWAP1 DUP2 MSTORE PUSH1 0x56 SWAP1 SWAP5 MSTORE SWAP2 SWAP1 SWAP3 KECCAK256 SWAP2 MLOAD PUSH2 0x3505 SWAP3 PUSH1 0x4 ADD SWAP2 SWAP1 PUSH2 0x47DC JUMP JUMPDEST POP PUSH1 0x1 PUSH1 0x1 PUSH1 0xA0 SHL SUB DUP4 AND PUSH1 0x0 SWAP1 DUP2 MSTORE PUSH1 0x3B PUSH1 0x20 MSTORE PUSH1 0x40 SWAP1 KECCAK256 PUSH1 0x18 SWAP1 DUP2 ADD SLOAD PUSH4 0xFFFFFFFF AND LT ISZERO PUSH2 0x35CD JUMPI PUSH1 0x1 PUSH1 0x1 PUSH1 0xA0 SHL SUB DUP4 AND PUSH1 0x0 SWAP1 DUP2 MSTORE PUSH1 0x3B PUSH1 0x20 SWAP1 DUP2 MSTORE PUSH1 0x40 SWAP2 DUP3 SWAP1 KECCAK256 PUSH1 0x18 ADD SLOAD DUP3 MLOAD DUP1 DUP5 ADD SWAP1 SWAP4 MSTORE PUSH1 0x1E DUP4 MSTORE PUSH32 0x507269636520436F756E746572206164646974696F6E206661696C65642E0000 SWAP2 DUP4 ADD SWAP2 SWAP1 SWAP2 MSTORE PUSH2 0x3599 SWAP2 PUSH4 0xFFFFFFFF SWAP1 SWAP2 AND SWAP1 PUSH1 0x1 SWAP1 PUSH2 0x3D63 JUMP JUMPDEST PUSH1 0x1 PUSH1 0x1 PUSH1 0xA0 SHL SUB DUP5 AND PUSH1 0x0 SWAP1 DUP2 MSTORE PUSH1 0x3B PUSH1 0x20 MSTORE PUSH1 0x40 SWAP1 KECCAK256 PUSH1 0x18 ADD DUP1 SLOAD PUSH4 0xFFFFFFFF NOT AND PUSH4 0xFFFFFFFF SWAP3 SWAP1 SWAP3 AND SWAP2 SWAP1 SWAP2 OR SWAP1 SSTORE JUMPDEST PUSH2 0x3A00 JUMP JUMPDEST PUSH2 0x35DC DUP3 DUP3 PUSH2 0x3EBF JUMP JUMPDEST ISZERO PUSH2 0x3813 JUMPI PUSH1 0x37 SLOAD PUSH1 0x40 DUP1 MLOAD PUSH4 0x792A0FEB PUSH1 0xE0 SHL DUP2 MSTORE PUSH1 0x1 PUSH1 0x1 PUSH1 0xA0 SHL SUB DUP7 DUP2 AND PUSH1 0x4 DUP4 ADD MSTORE SWAP2 MLOAD PUSH1 0x0 SWAP4 SWAP3 SWAP1 SWAP3 AND SWAP2 PUSH4 0x792A0FEB SWAP2 PUSH1 0x24 DUP1 DUP3 ADD SWAP3 PUSH1 0x20 SWAP3 SWAP1 SWAP2 SWAP1 DUP3 SWAP1 SUB ADD DUP2 DUP7 DUP1 EXTCODESIZE ISZERO DUP1 ISZERO PUSH2 0x3632 JUMPI PUSH1 0x0 DUP1 REVERT JUMPDEST POP GAS STATICCALL ISZERO DUP1 ISZERO PUSH2 0x3646 JUMPI RETURNDATASIZE PUSH1 0x0 DUP1 RETURNDATACOPY RETURNDATASIZE PUSH1 0x0 REVERT JUMPDEST POP POP POP POP PUSH1 0x40 MLOAD RETURNDATASIZE PUSH1 0x20 DUP2 LT ISZERO PUSH2 0x365C JUMPI PUSH1 0x0 DUP1 REVERT JUMPDEST POP MLOAD SWAP1 POP PUSH1 0x0 PUSH2 0x366A PUSH2 0x48C3 JUMP JUMPDEST PUSH2 0x3674 DUP6 DUP6 PUSH2 0x3EC6 JUMP JUMPDEST SWAP2 POP SWAP2 POP PUSH1 0x0 PUSH2 0x3682 PUSH2 0x48C3 JUMP JUMPDEST PUSH2 0x368C DUP4 DUP7 PUSH2 0x3F02 JUMP JUMPDEST DUP1 MLOAD PUSH1 0x1 PUSH1 0x1 PUSH1 0xA0 SHL SUB DUP1 DUP13 AND PUSH1 0x0 DUP2 DUP2 MSTORE PUSH1 0x3A PUSH1 0x20 SWAP1 DUP2 MSTORE PUSH1 0x40 SWAP2 DUP3 SWAP1 KECCAK256 PUSH1 0x3 ADD SLOAD PUSH1 0x36 SLOAD DUP4 MLOAD PUSH4 0xA9EC70D1 PUSH1 0xE0 SHL DUP2 MSTORE PUSH1 0x4 DUP2 ADD SWAP6 SWAP1 SWAP6 MSTORE SWAP3 MLOAD SWAP8 SWAP10 POP SWAP6 SWAP8 POP PUSH2 0x372F SWAP7 SWAP5 SWAP6 SWAP5 SWAP2 SWAP1 SWAP4 AND SWAP3 PUSH4 0xA9EC70D1 SWAP3 PUSH1 0x24 DUP1 DUP3 ADD SWAP4 SWAP2 DUP3 SWAP1 SUB ADD DUP2 DUP7 DUP1 EXTCODESIZE ISZERO DUP1 ISZERO PUSH2 0x36FB JUMPI PUSH1 0x0 DUP1 REVERT JUMPDEST POP GAS STATICCALL ISZERO DUP1 ISZERO PUSH2 0x370F JUMPI RETURNDATASIZE PUSH1 0x0 DUP1 RETURNDATACOPY RETURNDATASIZE PUSH1 0x0 REVERT JUMPDEST POP POP POP POP PUSH1 0x40 MLOAD RETURNDATASIZE PUSH1 0x20 DUP2 LT ISZERO PUSH2 0x3725 JUMPI PUSH1 0x0 DUP1 REVERT JUMPDEST POP MLOAD PUSH1 0xFF AND PUSH2 0x3F6A JUMP JUMPDEST DUP13 DUP11 DUP2 MLOAD DUP2 LT PUSH2 0x373B JUMPI INVALID JUMPDEST PUSH1 0x20 MUL PUSH1 0x20 ADD ADD MLOAD PUSH1 0x0 ADD DUP2 DUP2 MSTORE POP POP PUSH1 0x40 MLOAD DUP1 PUSH1 0x20 ADD PUSH1 0x40 MSTORE DUP1 PUSH1 0x0 DUP2 MSTORE POP DUP12 DUP11 DUP2 MLOAD DUP2 LT PUSH2 0x3767 JUMPI INVALID JUMPDEST PUSH1 0x20 MUL PUSH1 0x20 ADD ADD DUP2 SWAP1 MSTORE POP PUSH2 0x378F DUP11 DUP14 DUP12 DUP2 MLOAD DUP2 LT PUSH2 0x3782 JUMPI INVALID JUMPDEST PUSH1 0x20 MUL PUSH1 0x20 ADD ADD MLOAD PUSH2 0x40BF JUMP JUMPDEST DUP1 SWAP12 POP DUP2 SWAP6 POP POP POP DUP12 DUP10 DUP2 MLOAD DUP2 LT PUSH2 0x37A3 JUMPI INVALID JUMPDEST PUSH1 0x20 SWAP1 DUP2 MUL SWAP2 SWAP1 SWAP2 ADD DUP2 ADD MLOAD MLOAD PUSH1 0x1 PUSH1 0x1 PUSH1 0xA0 SHL SUB DUP11 AND PUSH1 0x0 DUP2 DUP2 MSTORE PUSH1 0x56 DUP1 DUP6 MSTORE PUSH1 0x40 DUP1 DUP4 KECCAK256 PUSH1 0x3 DUP2 ADD SWAP6 SWAP1 SWAP6 SSTORE DUP1 MLOAD DUP1 DUP3 ADD SWAP1 SWAP2 MSTORE PUSH1 0x8 DUP2 MSTORE PUSH8 0x29BAB8383634B2B9 PUSH1 0xC1 SHL DUP2 DUP8 ADD SWAP1 DUP2 MSTORE SWAP4 SWAP1 SWAP3 MSTORE SWAP1 SWAP4 MSTORE SWAP2 MLOAD PUSH2 0x3808 SWAP3 PUSH1 0x4 SWAP1 SWAP3 ADD SWAP2 SWAP1 PUSH2 0x47DC JUMP JUMPDEST POP POP POP POP POP POP PUSH2 0x3A00 JUMP JUMPDEST PUSH1 0x37 SLOAD PUSH1 0x40 DUP1 MLOAD PUSH4 0x915C83B PUSH1 0xE2 SHL DUP2 MSTORE PUSH1 0x1 PUSH1 0x1 PUSH1 0xA0 SHL SUB DUP7 DUP2 AND PUSH1 0x4 DUP4 ADD MSTORE SWAP2 MLOAD PUSH1 0x0 SWAP4 SWAP3 SWAP1 SWAP3 AND SWAP2 PUSH4 0x245720EC SWAP2 PUSH1 0x24 DUP1 DUP3 ADD SWAP3 PUSH1 0x20 SWAP3 SWAP1 SWAP2 SWAP1 DUP3 SWAP1 SUB ADD DUP2 DUP7 DUP1 EXTCODESIZE ISZERO DUP1 ISZERO PUSH2 0x3864 JUMPI PUSH1 0x0 DUP1 REVERT JUMPDEST POP GAS STATICCALL ISZERO DUP1 ISZERO PUSH2 0x3878 JUMPI RETURNDATASIZE PUSH1 0x0 DUP1 RETURNDATACOPY RETURNDATASIZE PUSH1 0x0 REVERT JUMPDEST POP POP POP POP PUSH1 0x40 MLOAD RETURNDATASIZE PUSH1 0x20 DUP2 LT ISZERO PUSH2 0x388E JUMPI PUSH1 0x0 DUP1 REVERT JUMPDEST POP MLOAD SWAP1 POP PUSH1 0x0 PUSH2 0x389C PUSH2 0x48C3 JUMP JUMPDEST PUSH2 0x38A6 DUP5 DUP7 PUSH2 0x3EC6 JUMP JUMPDEST SWAP2 POP SWAP2 POP PUSH1 0x0 PUSH2 0x38B4 PUSH2 0x48C3 JUMP JUMPDEST PUSH2 0x38BE DUP4 DUP7 PUSH2 0x3F02 JUMP JUMPDEST DUP1 MLOAD PUSH1 0x1 PUSH1 0x1 PUSH1 0xA0 SHL SUB DUP1 DUP13 AND PUSH1 0x0 DUP2 DUP2 MSTORE PUSH1 0x3A PUSH1 0x20 SWAP1 DUP2 MSTORE PUSH1 0x40 SWAP2 DUP3 SWAP1 KECCAK256 PUSH1 0x3 ADD SLOAD PUSH1 0x36 SLOAD DUP4 MLOAD PUSH4 0xA9EC70D1 PUSH1 0xE0 SHL DUP2 MSTORE PUSH1 0x4 DUP2 ADD SWAP6 SWAP1 SWAP6 MSTORE SWAP3 MLOAD SWAP8 SWAP10 POP SWAP6 SWAP8 POP PUSH2 0x392D SWAP7 SWAP5 SWAP6 SWAP5 SWAP2 SWAP1 SWAP4 AND SWAP3 PUSH4 0xA9EC70D1 SWAP3 PUSH1 0x24 DUP1 DUP3 ADD SWAP4 SWAP2 DUP3 SWAP1 SUB ADD DUP2 DUP7 DUP1 EXTCODESIZE ISZERO DUP1 ISZERO PUSH2 0x36FB JUMPI PUSH1 0x0 DUP1 REVERT JUMPDEST DUP12 DUP11 DUP2 MLOAD DUP2 LT PUSH2 0x3939 JUMPI INVALID JUMPDEST PUSH1 0x20 MUL PUSH1 0x20 ADD ADD MLOAD PUSH1 0x0 ADD DUP2 DUP2 MSTORE POP POP PUSH1 0x40 MLOAD DUP1 PUSH1 0x20 ADD PUSH1 0x40 MSTORE DUP1 PUSH1 0x0 DUP2 MSTORE POP DUP13 DUP11 DUP2 MLOAD DUP2 LT PUSH2 0x3965 JUMPI INVALID JUMPDEST PUSH1 0x20 MUL PUSH1 0x20 ADD ADD DUP2 SWAP1 MSTORE POP PUSH2 0x3980 DUP11 DUP13 DUP12 DUP2 MLOAD DUP2 LT PUSH2 0x3782 JUMPI INVALID JUMPDEST DUP1 SWAP12 POP DUP2 SWAP6 POP POP POP DUP11 DUP10 DUP2 MLOAD DUP2 LT PUSH2 0x3994 JUMPI INVALID JUMPDEST PUSH1 0x20 SWAP1 DUP2 MUL SWAP2 SWAP1 SWAP2 ADD DUP2 ADD MLOAD MLOAD PUSH1 0x1 PUSH1 0x1 PUSH1 0xA0 SHL SUB DUP11 AND PUSH1 0x0 DUP2 DUP2 MSTORE PUSH1 0x56 DUP1 DUP6 MSTORE PUSH1 0x40 DUP1 DUP4 KECCAK256 PUSH1 0x3 DUP2 ADD SWAP6 SWAP1 SWAP6 SSTORE DUP1 MLOAD DUP1 DUP3 ADD SWAP1 SWAP2 MSTORE PUSH1 0x8 DUP2 MSTORE PUSH8 0x2137B93937BBB2B9 PUSH1 0xC1 SHL DUP2 DUP8 ADD SWAP1 DUP2 MSTORE SWAP4 SWAP1 SWAP3 MSTORE SWAP1 SWAP4 MSTORE SWAP2 MLOAD PUSH2 0x39F9 SWAP3 PUSH1 0x4 SWAP1 SWAP3 ADD SWAP2 SWAP1 PUSH2 0x47DC JUMP JUMPDEST POP POP POP POP POP POP JUMPDEST PUSH1 0x1 PUSH1 0x1 PUSH1 0xA0 SHL SUB DUP4 AND PUSH1 0x0 DUP2 DUP2 MSTORE PUSH1 0x56 PUSH1 0x20 SWAP1 DUP2 MSTORE PUSH1 0x40 SWAP2 DUP3 SWAP1 KECCAK256 PUSH1 0x3 DUP2 ADD SLOAD DUP10 MLOAD DUP5 MLOAD SWAP6 DUP7 MSTORE SWAP4 DUP6 ADD DUP2 SWAP1 MSTORE PUSH1 0x60 DUP6 ADD DUP5 SWAP1 MSTORE PUSH1 0x80 SWAP3 DUP6 ADD DUP4 DUP2 MSTORE PUSH1 0x4 SWAP1 SWAP3 ADD DUP1 SLOAD PUSH1 0x2 PUSH1 0x0 NOT PUSH2 0x100 PUSH1 0x1 DUP5 AND ISZERO MUL ADD SWAP1 SWAP2 AND DIV SWAP4 DUP7 ADD DUP5 SWAP1 MSTORE PUSH32 0xDF8E3D371510D3B7D621F474E199BCEA211830C364F434AD20CA33F5A0BC9D4 SWAP6 DUP10 SWAP6 SWAP2 SWAP5 SWAP3 SWAP4 SWAP2 SWAP3 SWAP1 SWAP2 SWAP1 PUSH1 0xA0 DUP4 ADD SWAP1 DUP7 SWAP1 DUP1 ISZERO PUSH2 0x3ADE JUMPI DUP1 PUSH1 0x1F LT PUSH2 0x3AB3 JUMPI PUSH2 0x100 DUP1 DUP4 SLOAD DIV MUL DUP4 MSTORE SWAP2 PUSH1 0x20 ADD SWAP2 PUSH2 0x3ADE JUMP JUMPDEST DUP3 ADD SWAP2 SWAP1 PUSH1 0x0 MSTORE PUSH1 0x20 PUSH1 0x0 KECCAK256 SWAP1 JUMPDEST DUP2 SLOAD DUP2 MSTORE SWAP1 PUSH1 0x1 ADD SWAP1 PUSH1 0x20 ADD DUP1 DUP4 GT PUSH2 0x3AC1 JUMPI DUP3 SWAP1 SUB PUSH1 0x1F AND DUP3 ADD SWAP2 JUMPDEST POP POP SWAP6 POP POP POP POP POP POP PUSH1 0x40 MLOAD DUP1 SWAP2 SUB SWAP1 LOG1 POP POP POP PUSH1 0x1 ADD PUSH2 0x321F JUMP JUMPDEST POP PUSH1 0x55 SLOAD PUSH1 0x37 SLOAD PUSH1 0x1 PUSH1 0xA0 SHL SWAP1 DIV PUSH1 0xFF AND ISZERO PUSH2 0x3B3B JUMPI PUSH1 0x0 PUSH2 0x3B1A PUSH2 0x48C3 JUMP JUMPDEST PUSH2 0x3B24 DUP5 DUP9 PUSH2 0x40DE JUMP JUMPDEST SWAP2 POP SWAP2 POP PUSH2 0x3B36 DUP2 PUSH1 0x0 ADD MLOAD DUP9 PUSH2 0x40F9 JUMP JUMPDEST SWAP3 POP POP POP JUMPDEST PUSH1 0x0 JUMPDEST DUP7 MLOAD DUP2 LT ISZERO PUSH2 0x3CFE JUMPI PUSH1 0x0 DUP8 DUP3 DUP2 MLOAD DUP2 LT PUSH2 0x3B55 JUMPI INVALID JUMPDEST PUSH1 0x20 SWAP1 DUP2 MUL SWAP2 SWAP1 SWAP2 ADD DUP2 ADD MLOAD PUSH1 0x1 PUSH1 0x1 PUSH1 0xA0 SHL SUB DUP2 AND PUSH1 0x0 SWAP1 DUP2 MSTORE PUSH1 0x56 SWAP1 SWAP3 MSTORE PUSH1 0x40 SWAP1 SWAP2 KECCAK256 DUP1 SLOAD PUSH1 0x1 SWAP1 SWAP2 ADD SLOAD SWAP2 SWAP3 POP SWAP1 PUSH2 0x3B8E PUSH2 0x48C3 JUMP JUMPDEST DUP7 MLOAD PUSH1 0x0 SWAP1 ISZERO PUSH2 0x3C4E JUMPI PUSH1 0x0 DUP11 DUP8 DUP2 MLOAD DUP2 LT PUSH2 0x3BA6 JUMPI INVALID JUMPDEST PUSH1 0x20 MUL PUSH1 0x20 ADD ADD MLOAD PUSH1 0x0 ADD MLOAD GT ISZERO PUSH2 0x3C09 JUMPI PUSH2 0x3BD5 DUP11 DUP8 DUP2 MLOAD DUP2 LT PUSH2 0x3BC7 JUMPI INVALID JUMPDEST PUSH1 0x20 MUL PUSH1 0x20 ADD ADD MLOAD DUP10 PUSH2 0x43FF JUMP JUMPDEST SWAP3 POP SWAP1 POP PUSH2 0x3BE3 DUP8 DUP4 PUSH2 0x4422 JUMP JUMPDEST PUSH1 0x1 PUSH1 0x1 PUSH1 0xA0 SHL SUB DUP7 AND PUSH1 0x0 SWAP1 DUP2 MSTORE PUSH1 0x56 PUSH1 0x20 MSTORE PUSH1 0x40 DUP2 KECCAK256 SWAP2 DUP3 SSTORE PUSH1 0x1 SWAP1 SWAP2 ADD SSTORE PUSH2 0x3C49 JUMP JUMPDEST PUSH2 0x3C18 DUP10 DUP8 DUP2 MLOAD DUP2 LT PUSH2 0x3BC7 JUMPI INVALID JUMPDEST SWAP3 POP SWAP1 POP PUSH2 0x3C26 DUP8 DUP4 PUSH2 0x4422 JUMP JUMPDEST PUSH1 0x1 PUSH1 0x1 PUSH1 0xA0 SHL SUB DUP7 AND PUSH1 0x0 SWAP1 DUP2 MSTORE PUSH1 0x56 PUSH1 0x20 MSTORE PUSH1 0x40 DUP2 KECCAK256 PUSH1 0x1 DUP2 ADD SWAP3 SWAP1 SWAP3 SSTORE SWAP1 SSTORE JUMPDEST PUSH2 0x3C6F JUMP JUMPDEST PUSH1 0x1 PUSH1 0x1 PUSH1 0xA0 SHL SUB DUP6 AND PUSH1 0x0 SWAP1 DUP2 MSTORE PUSH1 0x56 PUSH1 0x20 MSTORE PUSH1 0x40 DUP2 KECCAK256 PUSH1 0x1 DUP2 ADD DUP3 SWAP1 SSTORE SSTORE JUMPDEST PUSH2 0x3C7A PUSH1 0x64 DUP4 PUSH2 0x4422 JUMP JUMPDEST PUSH1 0x1 PUSH1 0x1 PUSH1 0xA0 SHL SUB DUP7 AND PUSH1 0x0 DUP2 DUP2 MSTORE PUSH1 0x56 PUSH1 0x20 SWAP1 DUP2 MSTORE PUSH1 0x40 SWAP2 DUP3 SWAP1 KECCAK256 PUSH1 0x5 DUP2 ADD DUP6 SWAP1 SSTORE DUP1 SLOAD PUSH1 0x1 SWAP1 SWAP2 ADD SLOAD DUP4 MLOAD SWAP5 DUP6 MSTORE SWAP2 DUP5 ADD DUP13 SWAP1 MSTORE DUP4 DUP4 ADD MSTORE PUSH1 0x60 DUP4 ADD MSTORE PUSH1 0x80 DUP3 ADD SWAP3 SWAP1 SWAP3 MSTORE SWAP1 MLOAD PUSH32 0xD64EF6D519DC914EFE554091A4D9CF435B9756C3EEDCE9446860554062DE19C3 SWAP2 DUP2 SWAP1 SUB PUSH1 0xA0 ADD SWAP1 LOG1 POP POP PUSH1 0x1 SWAP1 SWAP4 ADD SWAP3 POP PUSH2 0x3B3E SWAP2 POP POP JUMP JUMPDEST POP PUSH2 0x3D07 PUSH2 0x444A JUMP JUMPDEST PUSH2 0x3D50 JUMPI PUSH1 0x40 DUP1 MLOAD PUSH3 0x461BCD PUSH1 0xE5 SHL DUP2 MSTORE PUSH1 0x20 PUSH1 0x4 DUP3 ADD MSTORE PUSH1 0x15 PUSH1 0x24 DUP3 ADD MSTORE PUSH21 0x155C19185D1A5B99C810D31BD8DAC811985A5B1959 PUSH1 0x5A SHL PUSH1 0x44 DUP3 ADD MSTORE SWAP1 MLOAD SWAP1 DUP2 SWAP1 SUB PUSH1 0x64 ADD SWAP1 REVERT JUMPDEST POP POP POP POP POP POP JUMP JUMPDEST PUSH1 0x9 SWAP1 JUMP JUMPDEST ADDRESS EXTCODESIZE ISZERO SWAP1 JUMP JUMPDEST PUSH1 0x0 DUP4 DUP4 ADD DUP3 DUP6 DUP3 LT ISZERO PUSH2 0x3DB8 JUMPI PUSH1 0x40 MLOAD PUSH3 0x461BCD PUSH1 0xE5 SHL DUP2 MSTORE PUSH1 0x20 PUSH1 0x4 DUP3 ADD DUP2 DUP2 MSTORE DUP4 MLOAD PUSH1 0x24 DUP5 ADD MSTORE DUP4 MLOAD SWAP1 SWAP3 DUP4 SWAP3 PUSH1 0x44 SWAP1 SWAP2 ADD SWAP2 SWAP1 DUP6 ADD SWAP1 DUP1 DUP4 DUP4 PUSH1 0x0 DUP4 ISZERO PUSH2 0x2FD2 JUMPI DUP2 DUP2 ADD MLOAD DUP4 DUP3 ADD MSTORE PUSH1 0x20 ADD PUSH2 0x2FBA JUMP JUMPDEST POP SWAP5 SWAP4 POP POP POP POP JUMP JUMPDEST PUSH1 0x0 PUSH2 0x1673 DUP4 DUP4 PUSH1 0x40 MLOAD DUP1 PUSH1 0x40 ADD PUSH1 0x40 MSTORE DUP1 PUSH1 0x17 DUP2 MSTORE PUSH1 0x20 ADD PUSH32 0x6D756C7469706C69636174696F6E206F766572666C6F77000000000000000000 DUP2 MSTORE POP PUSH2 0x44DB JUMP JUMPDEST PUSH2 0x3E0B PUSH2 0x48C3 JUMP JUMPDEST PUSH1 0x40 MLOAD DUP1 PUSH1 0x20 ADD PUSH1 0x40 MSTORE DUP1 PUSH2 0x3E38 PUSH2 0x3E32 DUP7 PUSH15 0xC097CE7BC90715B34B9F1000000000 PUSH2 0x3DC1 JUMP JUMPDEST DUP6 PUSH2 0x4551 JUMP JUMPDEST SWAP1 MSTORE SWAP4 SWAP3 POP POP POP JUMP JUMPDEST PUSH2 0x3E49 PUSH2 0x48C3 JUMP JUMPDEST PUSH1 0x40 MLOAD DUP1 PUSH1 0x20 ADD PUSH1 0x40 MSTORE DUP1 PUSH2 0x3E38 DUP6 PUSH1 0x0 ADD MLOAD DUP6 PUSH1 0x0 ADD MLOAD PUSH2 0x4584 JUMP JUMPDEST PUSH1 0x0 DUP1 JUMPDEST PUSH1 0x39 SLOAD DUP2 LT ISZERO PUSH2 0x3EB7 JUMPI PUSH1 0x0 PUSH1 0x39 DUP3 DUP2 SLOAD DUP2 LT PUSH2 0x3E83 JUMPI INVALID JUMPDEST PUSH1 0x0 SWAP2 DUP3 MSTORE PUSH1 0x20 SWAP1 SWAP2 KECCAK256 ADD SLOAD PUSH1 0x1 PUSH1 0x1 PUSH1 0xA0 SHL SUB AND SWAP1 POP PUSH2 0x3EA3 DUP2 PUSH2 0x2918 JUMP JUMPDEST POP PUSH2 0x3EAD DUP2 PUSH2 0x2B94 JUMP JUMPDEST POP POP PUSH1 0x1 ADD PUSH2 0x3E6A JUMP JUMPDEST POP PUSH1 0x1 SWAP1 POP SWAP1 JUMP JUMPDEST MLOAD SWAP1 MLOAD GT SWAP1 JUMP JUMPDEST PUSH1 0x0 PUSH2 0x3ED0 PUSH2 0x48C3 JUMP JUMPDEST PUSH1 0x0 DUP1 PUSH2 0x3EE5 DUP7 PUSH1 0x0 ADD MLOAD DUP7 PUSH1 0x0 ADD MLOAD PUSH2 0x45BA JUMP JUMPDEST PUSH1 0x40 DUP1 MLOAD PUSH1 0x20 DUP2 ADD SWAP1 SWAP2 MSTORE SWAP1 DUP2 MSTORE SWAP1 SWAP5 POP SWAP3 POP POP POP JUMPDEST SWAP3 POP SWAP3 SWAP1 POP JUMP JUMPDEST PUSH1 0x0 PUSH2 0x3F0C PUSH2 0x48C3 JUMP JUMPDEST PUSH1 0x0 DUP1 PUSH2 0x3F1D DUP7 PUSH1 0x0 ADD MLOAD DUP7 PUSH2 0x45DD JUMP JUMPDEST SWAP1 SWAP3 POP SWAP1 POP PUSH1 0x0 DUP3 PUSH1 0x3 DUP2 GT ISZERO PUSH2 0x3F30 JUMPI INVALID JUMPDEST EQ PUSH2 0x3F4F JUMPI POP PUSH1 0x40 DUP1 MLOAD PUSH1 0x20 DUP2 ADD SWAP1 SWAP2 MSTORE PUSH1 0x0 DUP2 MSTORE SWAP1 SWAP3 POP SWAP1 POP PUSH2 0x3EFB JUMP JUMPDEST PUSH1 0x40 DUP1 MLOAD PUSH1 0x20 DUP2 ADD SWAP1 SWAP2 MSTORE SWAP1 DUP2 MSTORE PUSH1 0x0 SWAP7 SWAP1 SWAP6 POP SWAP4 POP POP POP POP JUMP JUMPDEST PUSH1 0x0 DUP1 DUP4 GT PUSH2 0x3FAA JUMPI PUSH1 0x40 MLOAD PUSH3 0x461BCD PUSH1 0xE5 SHL DUP2 MSTORE PUSH1 0x4 ADD DUP1 DUP1 PUSH1 0x20 ADD DUP3 DUP2 SUB DUP3 MSTORE PUSH1 0x22 DUP2 MSTORE PUSH1 0x20 ADD DUP1 PUSH2 0x4D9A PUSH1 0x22 SWAP2 CODECOPY PUSH1 0x40 ADD SWAP2 POP POP PUSH1 0x40 MLOAD DUP1 SWAP2 SUB SWAP1 REVERT JUMPDEST PUSH1 0x0 DUP3 GT PUSH2 0x3FE9 JUMPI PUSH1 0x40 MLOAD PUSH3 0x461BCD PUSH1 0xE5 SHL DUP2 MSTORE PUSH1 0x4 ADD DUP1 DUP1 PUSH1 0x20 ADD DUP3 DUP2 SUB DUP3 MSTORE PUSH1 0x26 DUP2 MSTORE PUSH1 0x20 ADD DUP1 PUSH2 0x4CBD PUSH1 0x26 SWAP2 CODECOPY PUSH1 0x40 ADD SWAP2 POP POP PUSH1 0x40 MLOAD DUP1 SWAP2 SUB SWAP1 REVERT JUMPDEST PUSH1 0x0 PUSH2 0x4016 DUP6 PUSH8 0xDE0B6B3A7640000 PUSH1 0x40 MLOAD DUP1 PUSH1 0x60 ADD PUSH1 0x40 MSTORE DUP1 PUSH1 0x2E DUP2 MSTORE PUSH1 0x20 ADD PUSH2 0x4D6C PUSH1 0x2E SWAP2 CODECOPY PUSH2 0x44DB JUMP JUMPDEST SWAP1 POP PUSH1 0x0 PUSH2 0x4040 DUP3 DUP7 PUSH1 0xA EXP PUSH1 0x40 MLOAD DUP1 PUSH1 0x60 ADD PUSH1 0x40 MSTORE DUP1 PUSH1 0x28 DUP2 MSTORE PUSH1 0x20 ADD PUSH2 0x4A18 PUSH1 0x28 SWAP2 CODECOPY PUSH2 0x461C JUMP JUMPDEST SWAP1 POP PUSH1 0x0 PUSH2 0x406A DUP3 DUP7 PUSH1 0xA EXP PUSH1 0x40 MLOAD DUP1 PUSH1 0x60 ADD PUSH1 0x40 MSTORE DUP1 PUSH1 0x23 DUP2 MSTORE PUSH1 0x20 ADD PUSH2 0x4CE3 PUSH1 0x23 SWAP2 CODECOPY PUSH2 0x461C JUMP JUMPDEST PUSH1 0x40 DUP1 MLOAD DUP10 DUP2 MSTORE PUSH1 0x20 DUP2 ADD DUP10 SWAP1 MSTORE DUP1 DUP3 ADD DUP9 SWAP1 MSTORE PUSH1 0x60 DUP2 ADD DUP4 SWAP1 MSTORE SWAP1 MLOAD SWAP2 SWAP3 POP PUSH32 0xFE9D10D13B2EE3396D1E4EFC88CB4DBF5174580F2599868A20372CD286B4566F SWAP2 SWAP1 DUP2 SWAP1 SUB PUSH1 0x80 ADD SWAP1 LOG1 SWAP7 SWAP6 POP POP POP POP POP POP JUMP JUMPDEST PUSH1 0x0 PUSH2 0x40C9 PUSH2 0x48C3 JUMP JUMPDEST PUSH1 0x0 DUP1 PUSH2 0x3EE5 DUP7 PUSH1 0x0 ADD MLOAD DUP7 PUSH1 0x0 ADD MLOAD PUSH2 0x467E JUMP JUMPDEST PUSH1 0x0 PUSH2 0x40E8 PUSH2 0x48C3 JUMP JUMPDEST PUSH1 0x0 DUP1 PUSH2 0x3F1D DUP7 PUSH1 0x0 ADD MLOAD DUP7 PUSH2 0x46A4 JUMP JUMPDEST PUSH1 0x55 SLOAD PUSH1 0x36 SLOAD PUSH1 0x35 SLOAD PUSH1 0x40 DUP1 MLOAD PUSH4 0xB3596F07 PUSH1 0xE0 SHL DUP2 MSTORE PUSH1 0x1 PUSH1 0x1 PUSH1 0xA0 SHL SUB SWAP3 DUP4 AND PUSH1 0x4 DUP3 ADD MSTORE SWAP1 MLOAD PUSH1 0x0 SWAP5 SWAP4 DUP6 SWAP4 AND SWAP2 PUSH4 0xB3596F07 SWAP2 PUSH1 0x24 DUP1 DUP4 ADD SWAP3 PUSH1 0x20 SWAP3 SWAP2 SWAP1 DUP3 SWAP1 SUB ADD DUP2 DUP7 DUP1 EXTCODESIZE ISZERO DUP1 ISZERO PUSH2 0x414F JUMPI PUSH1 0x0 DUP1 REVERT JUMPDEST POP GAS STATICCALL ISZERO DUP1 ISZERO PUSH2 0x4163 JUMPI RETURNDATASIZE PUSH1 0x0 DUP1 RETURNDATACOPY RETURNDATASIZE PUSH1 0x0 REVERT JUMPDEST POP POP POP POP PUSH1 0x40 MLOAD RETURNDATASIZE PUSH1 0x20 DUP2 LT ISZERO PUSH2 0x4179 JUMPI PUSH1 0x0 DUP1 REVERT JUMPDEST POP MLOAD PUSH1 0x35 SLOAD PUSH1 0x36 SLOAD PUSH1 0x40 DUP1 MLOAD PUSH4 0xA9EC70D1 PUSH1 0xE0 SHL DUP2 MSTORE PUSH1 0x1 PUSH1 0x1 PUSH1 0xA0 SHL SUB SWAP4 DUP5 AND PUSH1 0x4 DUP3 ADD DUP2 SWAP1 MSTORE SWAP2 MLOAD SWAP5 SWAP6 POP SWAP1 SWAP4 PUSH1 0x0 SWAP4 SWAP1 SWAP3 AND SWAP2 PUSH4 0xA9EC70D1 SWAP2 PUSH1 0x24 DUP1 DUP3 ADD SWAP3 PUSH1 0x20 SWAP3 SWAP1 SWAP2 SWAP1 DUP3 SWAP1 SUB ADD DUP2 DUP7 DUP1 EXTCODESIZE ISZERO DUP1 ISZERO PUSH2 0x41D5 JUMPI PUSH1 0x0 DUP1 REVERT JUMPDEST POP GAS STATICCALL ISZERO DUP1 ISZERO PUSH2 0x41E9 JUMPI RETURNDATASIZE PUSH1 0x0 DUP1 RETURNDATACOPY RETURNDATASIZE PUSH1 0x0 REVERT JUMPDEST POP POP POP POP PUSH1 0x40 MLOAD RETURNDATASIZE PUSH1 0x20 DUP2 LT ISZERO PUSH2 0x41FF JUMPI PUSH1 0x0 DUP1 REVERT JUMPDEST POP MLOAD PUSH1 0x40 DUP1 MLOAD PUSH4 0x313CE567 PUSH1 0xE0 SHL DUP2 MSTORE SWAP1 MLOAD PUSH1 0xFF SWAP1 SWAP3 AND SWAP3 POP PUSH1 0x0 SWAP2 PUSH1 0x1 PUSH1 0x1 PUSH1 0xA0 SHL SUB DUP6 AND SWAP2 PUSH4 0x313CE567 SWAP2 PUSH1 0x4 DUP1 DUP4 ADD SWAP3 PUSH1 0x20 SWAP3 SWAP2 SWAP1 DUP3 SWAP1 SUB ADD DUP2 DUP7 DUP1 EXTCODESIZE ISZERO DUP1 ISZERO PUSH2 0x424B JUMPI PUSH1 0x0 DUP1 REVERT JUMPDEST POP GAS STATICCALL ISZERO DUP1 ISZERO PUSH2 0x425F JUMPI RETURNDATASIZE PUSH1 0x0 DUP1 RETURNDATACOPY RETURNDATASIZE PUSH1 0x0 REVERT JUMPDEST POP POP POP POP PUSH1 0x40 MLOAD RETURNDATASIZE PUSH1 0x20 DUP2 LT ISZERO PUSH2 0x4275 JUMPI PUSH1 0x0 DUP1 REVERT JUMPDEST POP MLOAD PUSH1 0x55 SLOAD PUSH1 0xFF SWAP1 SWAP2 AND SWAP2 POP PUSH1 0x0 SWAP1 PUSH2 0x428F SWAP1 DUP7 SWAP1 PUSH2 0x3DC1 JUMP JUMPDEST SWAP1 POP PUSH1 0x0 PUSH2 0x429E DUP3 DUP5 DUP7 PUSH2 0x3F6A JUMP JUMPDEST PUSH1 0x40 DUP1 MLOAD PUSH1 0x20 DUP2 ADD SWAP1 SWAP2 MSTORE PUSH1 0x38 SLOAD DUP2 MSTORE SWAP1 SWAP2 POP PUSH1 0x0 SWAP1 PUSH2 0x42BF SWAP1 DUP13 SWAP1 PUSH2 0x4422 JUMP JUMPDEST SWAP1 POP DUP1 DUP3 GT ISZERO PUSH2 0x4392 JUMPI PUSH1 0x0 PUSH2 0x42F1 DUP3 DUP7 PUSH1 0xA EXP PUSH1 0x40 MLOAD DUP1 PUSH1 0x60 ADD PUSH1 0x40 MSTORE DUP1 PUSH1 0x38 DUP2 MSTORE PUSH1 0x20 ADD PUSH2 0x4B5B PUSH1 0x38 SWAP2 CODECOPY PUSH2 0x44DB JUMP JUMPDEST SWAP1 POP PUSH1 0x0 PUSH2 0x431B DUP3 DUP9 PUSH1 0xA EXP PUSH1 0x40 MLOAD DUP1 PUSH1 0x60 ADD PUSH1 0x40 MSTORE DUP1 PUSH1 0x39 DUP2 MSTORE PUSH1 0x20 ADD PUSH2 0x4D33 PUSH1 0x39 SWAP2 CODECOPY PUSH2 0x44DB JUMP JUMPDEST SWAP1 POP PUSH1 0x0 PUSH2 0x434A DUP3 PUSH8 0xDE0B6B3A7640000 PUSH1 0x40 MLOAD DUP1 PUSH1 0x60 ADD PUSH1 0x40 MSTORE DUP1 PUSH1 0x2D DUP2 MSTORE PUSH1 0x20 ADD PUSH2 0x4B93 PUSH1 0x2D SWAP2 CODECOPY PUSH2 0x461C JUMP JUMPDEST SWAP1 POP PUSH2 0x438C DUP2 DUP12 PUSH1 0x40 MLOAD DUP1 PUSH1 0x40 ADD PUSH1 0x40 MSTORE DUP1 PUSH1 0x1D DUP2 MSTORE PUSH1 0x20 ADD PUSH32 0x4D6178205370656564206469766973696F6E2067617665206572726F72000000 DUP2 MSTORE POP PUSH2 0x461C JUMP JUMPDEST SWAP11 POP POP POP POP JUMPDEST PUSH1 0x55 SLOAD PUSH1 0x40 DUP1 MLOAD SWAP2 DUP3 MSTORE PUSH1 0x20 DUP3 ADD DUP10 SWAP1 MSTORE DUP2 DUP2 ADD DUP14 SWAP1 MSTORE PUSH1 0x60 DUP3 ADD DUP13 SWAP1 MSTORE PUSH1 0x80 DUP3 ADD DUP4 SWAP1 MSTORE PUSH1 0xA0 DUP3 ADD DUP5 SWAP1 MSTORE PUSH1 0xC0 DUP3 ADD DUP11 SWAP1 MSTORE MLOAD PUSH32 0xA4DC08EB8E90F2FB1C44CA5D6B4B7FC9894BFB25FA369FA001241C8EC8D7895F SWAP2 DUP2 SWAP1 SUB PUSH1 0xE0 ADD SWAP1 LOG1 POP SWAP6 SWAP10 SWAP9 POP POP POP POP POP POP POP POP POP JUMP JUMPDEST PUSH1 0x0 PUSH2 0x4409 PUSH2 0x48C3 JUMP JUMPDEST DUP4 MLOAD DUP4 MLOAD PUSH2 0x4417 SWAP2 SWAP1 PUSH2 0x46CF JUMP JUMPDEST SWAP2 POP SWAP2 POP SWAP3 POP SWAP3 SWAP1 POP JUMP JUMPDEST PUSH1 0x0 PUSH8 0xDE0B6B3A7640000 PUSH2 0x443B DUP5 DUP5 PUSH1 0x0 ADD MLOAD PUSH2 0x3DC1 JUMP JUMPDEST DUP2 PUSH2 0x4442 JUMPI INVALID JUMPDEST DIV SWAP4 SWAP3 POP POP POP JUMP JUMPDEST PUSH1 0x54 SLOAD PUSH1 0x0 SWAP1 PUSH1 0x1 PUSH1 0x1 PUSH1 0xE0 SHL SUB AND PUSH1 0x17 EQ PUSH2 0x44B2 JUMPI PUSH1 0x54 SLOAD PUSH1 0x40 DUP1 MLOAD DUP1 DUP3 ADD SWAP1 SWAP2 MSTORE PUSH1 0x1A DUP2 MSTORE PUSH32 0x637572436C6F636B203A204164646974696F6E204661696C6564000000000000 PUSH1 0x20 DUP3 ADD MSTORE PUSH2 0x44AD SWAP2 PUSH1 0x1 PUSH1 0x1 PUSH1 0xE0 SHL SUB AND SWAP1 PUSH1 0x1 SWAP1 PUSH2 0x3D63 JUMP JUMPDEST PUSH2 0x44B5 JUMP JUMPDEST PUSH1 0x0 JUMPDEST PUSH1 0x54 DUP1 SLOAD PUSH1 0x1 PUSH1 0x1 PUSH1 0xE0 SHL SUB NOT AND PUSH1 0x1 PUSH1 0x1 PUSH1 0xE0 SHL SUB SWAP3 SWAP1 SWAP3 AND SWAP2 SWAP1 SWAP2 OR SWAP1 SSTORE POP PUSH1 0x1 SWAP1 JUMP JUMPDEST PUSH1 0x0 DUP4 ISZERO DUP1 PUSH2 0x44E8 JUMPI POP DUP3 ISZERO JUMPDEST ISZERO PUSH2 0x44F5 JUMPI POP PUSH1 0x0 PUSH2 0x1673 JUMP JUMPDEST DUP4 DUP4 MUL DUP4 DUP6 DUP3 DUP2 PUSH2 0x4502 JUMPI INVALID JUMPDEST DIV EQ DUP4 SWAP1 PUSH2 0x3DB8 JUMPI PUSH1 0x40 MLOAD PUSH3 0x461BCD PUSH1 0xE5 SHL DUP2 MSTORE PUSH1 0x20 PUSH1 0x4 DUP3 ADD DUP2 DUP2 MSTORE DUP4 MLOAD PUSH1 0x24 DUP5 ADD MSTORE DUP4 MLOAD SWAP1 SWAP3 DUP4 SWAP3 PUSH1 0x44 SWAP1 SWAP2 ADD SWAP2 SWAP1 DUP6 ADD SWAP1 DUP1 DUP4 DUP4 PUSH1 0x0 DUP4 ISZERO PUSH2 0x2FD2 JUMPI DUP2 DUP2 ADD MLOAD DUP4 DUP3 ADD MSTORE PUSH1 0x20 ADD PUSH2 0x2FBA JUMP JUMPDEST PUSH1 0x0 PUSH2 0x1673 DUP4 DUP4 PUSH1 0x40 MLOAD DUP1 PUSH1 0x40 ADD PUSH1 0x40 MSTORE DUP1 PUSH1 0xE DUP2 MSTORE PUSH1 0x20 ADD PUSH14 0x646976696465206279207A65726F PUSH1 0x90 SHL DUP2 MSTORE POP PUSH2 0x461C JUMP JUMPDEST PUSH1 0x0 PUSH2 0x1673 DUP4 DUP4 PUSH1 0x40 MLOAD DUP1 PUSH1 0x40 ADD PUSH1 0x40 MSTORE DUP1 PUSH1 0x11 DUP2 MSTORE PUSH1 0x20 ADD PUSH17 0x6164646974696F6E206F766572666C6F77 PUSH1 0x78 SHL DUP2 MSTORE POP PUSH2 0x3D63 JUMP JUMPDEST PUSH1 0x0 DUP1 DUP4 DUP4 GT PUSH2 0x45D1 JUMPI POP PUSH1 0x0 SWAP1 POP DUP2 DUP4 SUB PUSH2 0x3EFB JUMP JUMPDEST POP PUSH1 0x3 SWAP1 POP PUSH1 0x0 PUSH2 0x3EFB JUMP JUMPDEST PUSH1 0x0 DUP1 DUP4 PUSH2 0x45F0 JUMPI POP PUSH1 0x0 SWAP1 POP DUP1 PUSH2 0x3EFB JUMP JUMPDEST DUP4 DUP4 MUL DUP4 DUP6 DUP3 DUP2 PUSH2 0x45FD JUMPI INVALID JUMPDEST DIV EQ PUSH2 0x4611 JUMPI POP PUSH1 0x2 SWAP2 POP PUSH1 0x0 SWAP1 POP PUSH2 0x3EFB JUMP JUMPDEST PUSH1 0x0 SWAP3 POP SWAP1 POP PUSH2 0x3EFB JUMP JUMPDEST PUSH1 0x0 DUP2 DUP4 PUSH2 0x466B JUMPI PUSH1 0x40 MLOAD PUSH3 0x461BCD PUSH1 0xE5 SHL DUP2 MSTORE PUSH1 0x20 PUSH1 0x4 DUP3 ADD DUP2 DUP2 MSTORE DUP4 MLOAD PUSH1 0x24 DUP5 ADD MSTORE DUP4 MLOAD SWAP1 SWAP3 DUP4 SWAP3 PUSH1 0x44 SWAP1 SWAP2 ADD SWAP2 SWAP1 DUP6 ADD SWAP1 DUP1 DUP4 DUP4 PUSH1 0x0 DUP4 ISZERO PUSH2 0x2FD2 JUMPI DUP2 DUP2 ADD MLOAD DUP4 DUP3 ADD MSTORE PUSH1 0x20 ADD PUSH2 0x2FBA JUMP JUMPDEST POP DUP3 DUP5 DUP2 PUSH2 0x4675 JUMPI INVALID JUMPDEST DIV SWAP5 SWAP4 POP POP POP POP JUMP JUMPDEST PUSH1 0x0 DUP1 DUP4 DUP4 ADD DUP5 DUP2 LT PUSH2 0x4696 JUMPI PUSH1 0x0 SWAP3 POP SWAP1 POP PUSH2 0x3EFB JUMP JUMPDEST POP PUSH1 0x2 SWAP2 POP PUSH1 0x0 SWAP1 POP PUSH2 0x3EFB JUMP JUMPDEST PUSH1 0x0 DUP1 DUP3 PUSH2 0x46B8 JUMPI POP PUSH1 0x1 SWAP1 POP PUSH1 0x0 PUSH2 0x3EFB JUMP JUMPDEST PUSH1 0x0 DUP4 DUP6 DUP2 PUSH2 0x46C3 JUMPI INVALID JUMPDEST DIV SWAP2 POP SWAP2 POP SWAP3 POP SWAP3 SWAP1 POP JUMP JUMPDEST PUSH1 0x0 PUSH2 0x46D9 PUSH2 0x48C3 JUMP JUMPDEST PUSH1 0x0 DUP1 PUSH2 0x46EE DUP7 PUSH8 0xDE0B6B3A7640000 PUSH2 0x45DD JUMP JUMPDEST SWAP1 SWAP3 POP SWAP1 POP PUSH1 0x0 DUP3 PUSH1 0x3 DUP2 GT ISZERO PUSH2 0x4701 JUMPI INVALID JUMPDEST EQ PUSH2 0x4720 JUMPI POP PUSH1 0x40 DUP1 MLOAD PUSH1 0x20 DUP2 ADD SWAP1 SWAP2 MSTORE PUSH1 0x0 DUP2 MSTORE SWAP1 SWAP3 POP SWAP1 POP PUSH2 0x3EFB JUMP JUMPDEST PUSH1 0x0 DUP1 PUSH2 0x472D DUP4 DUP9 PUSH2 0x46A4 JUMP JUMPDEST SWAP1 SWAP3 POP SWAP1 POP PUSH1 0x0 DUP3 PUSH1 0x3 DUP2 GT ISZERO PUSH2 0x4740 JUMPI INVALID JUMPDEST EQ PUSH2 0x4762 JUMPI POP PUSH1 0x40 DUP1 MLOAD PUSH1 0x20 DUP2 ADD SWAP1 SWAP2 MSTORE PUSH1 0x0 DUP2 MSTORE SWAP1 SWAP5 POP SWAP3 POP PUSH2 0x3EFB SWAP2 POP POP JUMP JUMPDEST PUSH1 0x40 DUP1 MLOAD PUSH1 0x20 DUP2 ADD SWAP1 SWAP2 MSTORE SWAP1 DUP2 MSTORE PUSH1 0x0 SWAP9 SWAP1 SWAP8 POP SWAP6 POP POP POP POP POP POP JUMP JUMPDEST PUSH1 0x40 MLOAD DUP1 PUSH2 0x300 ADD PUSH1 0x40 MSTORE DUP1 PUSH1 0x18 SWAP1 PUSH1 0x20 DUP3 MUL DUP1 CODESIZE DUP4 CODECOPY POP SWAP2 SWAP3 SWAP2 POP POP JUMP JUMPDEST DUP3 PUSH1 0x18 DUP2 ADD SWAP3 DUP3 ISZERO PUSH2 0x47CC JUMPI SWAP2 PUSH1 0x20 MUL DUP3 ADD JUMPDEST DUP3 DUP2 GT ISZERO PUSH2 0x47CC JUMPI DUP3 MLOAD DUP3 SSTORE SWAP2 PUSH1 0x20 ADD SWAP2 SWAP1 PUSH1 0x1 ADD SWAP1 PUSH2 0x47B1 JUMP JUMPDEST POP PUSH2 0x47D8 SWAP3 SWAP2 POP PUSH2 0x48D6 JUMP JUMPDEST POP SWAP1 JUMP JUMPDEST DUP3 DUP1 SLOAD PUSH1 0x1 DUP2 PUSH1 0x1 AND ISZERO PUSH2 0x100 MUL SUB AND PUSH1 0x2 SWAP1 DIV SWAP1 PUSH1 0x0 MSTORE PUSH1 0x20 PUSH1 0x0 KECCAK256 SWAP1 PUSH1 0x1F ADD PUSH1 0x20 SWAP1 DIV DUP2 ADD SWAP3 DUP3 PUSH1 0x1F LT PUSH2 0x481D JUMPI DUP1 MLOAD PUSH1 0xFF NOT AND DUP4 DUP1 ADD OR DUP6 SSTORE PUSH2 0x47CC JUMP JUMPDEST DUP3 DUP1 ADD PUSH1 0x1 ADD DUP6 SSTORE DUP3 ISZERO PUSH2 0x47CC JUMPI SWAP2 DUP3 ADD DUP3 DUP2 GT ISZERO PUSH2 0x47CC JUMPI DUP3 MLOAD DUP3 SSTORE SWAP2 PUSH1 0x20 ADD SWAP2 SWAP1 PUSH1 0x1 ADD SWAP1 PUSH2 0x47B1 JUMP JUMPDEST DUP2 SLOAD DUP2 DUP4 SSTORE DUP2 DUP2 GT ISZERO PUSH2 0x2176 JUMPI PUSH1 0x0 DUP4 DUP2 MSTORE PUSH1 0x20 SWAP1 KECCAK256 PUSH2 0x2176 SWAP2 DUP2 ADD SWAP1 DUP4 ADD PUSH2 0x48D6 JUMP JUMPDEST POP DUP1 SLOAD PUSH1 0x1 DUP2 PUSH1 0x1 AND ISZERO PUSH2 0x100 MUL SUB AND PUSH1 0x2 SWAP1 DIV PUSH1 0x0 DUP3 SSTORE DUP1 PUSH1 0x1F LT PUSH2 0x4893 JUMPI POP PUSH2 0x48B1 JUMP JUMPDEST PUSH1 0x1F ADD PUSH1 0x20 SWAP1 DIV SWAP1 PUSH1 0x0 MSTORE PUSH1 0x20 PUSH1 0x0 KECCAK256 SWAP1 DUP2 ADD SWAP1 PUSH2 0x48B1 SWAP2 SWAP1 PUSH2 0x48D6 JUMP JUMPDEST POP JUMP JUMPDEST POP PUSH2 0x48B1 SWAP1 PUSH1 0x18 DUP2 ADD SWAP1 PUSH2 0x48D6 JUMP JUMPDEST PUSH1 0x40 MLOAD DUP1 PUSH1 0x20 ADD PUSH1 0x40 MSTORE DUP1 PUSH1 0x0 DUP2 MSTORE POP SWAP1 JUMP JUMPDEST PUSH2 0x976 SWAP2 SWAP1 JUMPDEST DUP1 DUP3 GT ISZERO PUSH2 0x47D8 JUMPI PUSH1 0x0 DUP2 SSTORE PUSH1 0x1 ADD PUSH2 0x48DC JUMP INVALID SLOAD PUSH9 0x65206E65772050726F PUSH7 0x69742050657263 PUSH6 0x6E7461676520 PUSH14 0x7573742062652067726561746572 KECCAK256 PUSH21 0x68616E20302E3031653138202831252920496E7374 PUSH19 0x756D656E74206E6F742070726F7065726C7920 PUSH19 0x656D6F7665642066726F6D20746865206C6973 PUSH21 0x206F6620696E737472756D656E747320737570706F PUSH19 0x74656452656672657368205349474820537065 PUSH6 0x6473203A2053 PUSH22 0x627472616374696F6E20756E646572666C6F7720666F PUSH19 0x20626C6F636B73496E737472756D656E742061 PUSH13 0x726561647920636F7665726564 KECCAK256 PUSH22 0x6E646572205349474820446973747269627574696F6E KECCAK256 0x4D PUSH6 0x6368616E6973 PUSH14 0x537570706C696572207370656564 KECCAK256 PUSH2 0x6464 PUSH10 0x74696F6E207769746820 PUSH20 0x74616B696E67207370656564206F766572666C6F PUSH24 0x496E737472756D656E7420446563696D616C7320636F7272 PUSH6 0x6374696F6E20 PUSH22 0x6E646572666C6F775468652063616C6C6572206D7573 PUSH21 0x20626520746865204C656E64696E6720706F6F6C20 NUMBER PUSH16 0x726520636F6E7472616374496E737472 PUSH22 0x6D656E7420616C7265616479206E6F7420737570706F PUSH19 0x74656420627920746865205349474820446973 PUSH21 0x7269627574696F6E204D656368616E69736D546865 KECCAK256 PUSH4 0x616C6C65 PUSH19 0x206D7573742062652074686520534947482046 PUSH10 0x6E616E61636520436F6E PUSH7 0x6967757261746F PUSH19 0x20436F6E747261637472656672657368534947 0x48 MSTORE8 PUSH17 0x65656473496E7465726E616C203A204F72 PUSH2 0x636C PUSH6 0x207265747572 PUSH15 0x656420496E76616C69642050726963 PUSH6 0x546865206E65 PUSH24 0x20537570706C69657220526174696F206D75737420626520 PUSH13 0x657373207468616E2032653138 KECCAK256 0x28 ORIGIN ADDRESS ADDRESS 0x25 0x29 0x4D PUSH2 0x7820 JUMP PUSH16 0x6C6174696C697479203A205349474820 DIFFICULTY PUSH6 0x63696D616C73 KECCAK256 PUSH14 0x756C7469706C69636174696F6E20 PUSH8 0x617665206572726F PUSH19 0x4D617820566F6C6174696C697479203A204465 PUSH4 0x696D616C PUSH20 0x206469766973696F6E2067617665206572726F72 DIFFICULTY PUSH6 0x6C7461426C6F PUSH4 0x6B732072 PUSH6 0x73756C746564 KECCAK256 PUSH10 0x6E20556E646572666C6F PUSH24 0x5570646174696E67205369676820537570706C7920496E64 PUSH6 0x786573206F70 PUSH6 0x726174696F6E KECCAK256 PUSH7 0x61696C65647570 PUSH5 0x6174655349 SELFBALANCE 0x48 TIMESTAMP PUSH16 0x72726F77496E646578203A20426C6F63 PUSH12 0x205375627472616374696F6E KECCAK256 SSTORE PUSH15 0x646572666C6F775570646174696E67 KECCAK256 0x49 PUSH15 0x737472756D656E7420496E64657865 PUSH20 0x204661696C6564436F6E747261637420696E7374 PUSH2 0x6E63 PUSH6 0x206861732061 PUSH13 0x7265616479206265656E20696E PUSH10 0x7469616C697A65644661 PUSH10 0x6C656420746F20747261 PUSH15 0x736665722061636375726564205349 SELFBALANCE 0x48 KECCAK256 PUSH21 0x6F2074686520757365722E4F7261636C6520726574 PUSH22 0x726E656420696E76616C696420707269636520446563 PUSH10 0x6D616C73507269636520 DIFFICULTY PUSH6 0x63696D616C73 KECCAK256 PUSH4 0x6F727265 PUSH4 0x74696F6E KECCAK256 PUSH22 0x6E646572666C6F775570646174696E67205369676820 TIMESTAMP PUSH16 0x72726F7720496E6465786573206F7065 PUSH19 0x6174696F6E206661696C65644D617820566F6C PUSH2 0x7469 PUSH13 0x697479203A2050726963652044 PUSH6 0x63696D616C73 KECCAK256 PUSH14 0x756C7469706C69636174696F6E20 PUSH8 0x617665206572726F PUSH19 0x4C6F737320416D6F756E74206D756C7469706C PUSH10 0x636174696F6E2041646A PUSH22 0x73746D656E74206F766572666C6F77496E737472756D PUSH6 0x6E7420446563 PUSH10 0x6D616C732063616E6E6F PUSH21 0x206265205A65726F75706461746553494748537570 PUSH17 0x6C79496E646578203A20426C6F636B2053 PUSH22 0x627472616374696F6E20556E646572666C6F77496E73 PUSH21 0x72756D656E74206E6F7420737570706F727465642E STOP STOP STOP STOP STOP STOP STOP LOG2 PUSH6 0x627A7A723158 KECCAK256 PUSH28 0xA7C1815722B2495F07B83535A84BE0907582C5AFCF874B3881C3B236 0x25 0xAE 0xF6 PUSH5 0x736F6C6343 STOP SDIV GT STOP ORIGIN "
		},
		"gasEstimates": {
			"creation": {
				"codeDepositCost": "4007000",
				"executionCost": "55434",
				"totalCost": "4062434"
			},
			"external": {
				"Instrument_SIGHed(address)": "infinite",
				"Instrument_UNSIGHed(address)": "infinite",
				"Sigh_Address()": "1105",
				"SpeedUpperCheckSwitch(bool,uint256)": "infinite",
				"addInstrument(address,address,uint256)": "infinite",
				"addressesProvider()": "1081",
				"checkPriceSnapshots(address,uint256)": "1266",
				"checkinitializationCounter(address)": "1230",
				"getAllInstrumentsSupported()": "infinite",
				"getAllPriceSnapshots(address)": "infinite",
				"getBlockNumber()": "340",
				"getBlockNumbersForPriceSnapshots()": "infinite",
				"getBlocksRemainingToNextSpeedRefresh()": "infinite",
				"getDeltaBlocksForSpeed()": "1131",
				"getInstrumentBorrowIndex(address)": "2195",
				"getInstrumentData(address)": "infinite",
				"getInstrumentSighMechansimStates(address)": "infinite",
				"getInstrumentSupplyIndex(address)": "2193",
				"getPrevSpeedRefreshBlock()": "1110",
				"getSIGHBalance()": "infinite",
				"getSIGHSpeed()": "1065",
				"getupperCheckProfitPercentage()": "1090",
				"initialize(address)": "infinite",
				"isInstrumentSupported(address)": "1221",
				"lendingPoolCore()": "1106",
				"oracle()": "1127",
				"refreshConfig()": "infinite",
				"refreshSIGHSpeeds()": "infinite",
				"removeInstrument(address,address)": "infinite",
				"totalInstrumentsSupported()": "1086",
				"transferSighTotheUser(address,address,address,uint256)": "infinite",
				"updateDeltaBlocksForSpeedRefresh(uint256)": "infinite",
				"updateSIGHBorrowIndex(address)": "infinite",
				"updateSIGHSpeed(uint256)": "infinite",
				"updateSIGHSupplyIndex(address)": "infinite",
				"updateStakingSpeedForAnInstrument(address,uint256)": "infinite"
			},
			"internal": {
				"adjustForDecimalsInternal(uint256,uint256,uint256)": "infinite",
				"calculateMaxSighSpeedInternal(uint256,uint256)": "infinite",
				"getRevision()": "15",
				"refreshConfigInternal()": "infinite",
				"refreshSIGHSpeedsInternal()": "infinite",
				"updateCurrentClockInternal()": "infinite",
				"updateSIGHBorrowIndexInternal(address)": "infinite",
				"updateSIGHSupplyIndexInternal(address)": "infinite",
				"updatedInstrumentIndexesInternal()": "infinite"
			}
		},
		"methodIdentifiers": {
			"Instrument_SIGHed(address)": "ffffd7fb",
			"Instrument_UNSIGHed(address)": "4f78deef",
			"Sigh_Address()": "21428a12",
			"SpeedUpperCheckSwitch(bool,uint256)": "832c6c90",
			"addInstrument(address,address,uint256)": "52bbe658",
			"addressesProvider()": "c72c4d10",
			"checkPriceSnapshots(address,uint256)": "4df859fd",
			"checkinitializationCounter(address)": "8d9cf864",
			"getAllInstrumentsSupported()": "831449de",
			"getAllPriceSnapshots(address)": "d6357063",
			"getBlockNumber()": "42cbb15c",
			"getBlockNumbersForPriceSnapshots()": "659f73c5",
			"getBlocksRemainingToNextSpeedRefresh()": "6f610c50",
			"getDeltaBlocksForSpeed()": "be36810a",
			"getInstrumentBorrowIndex(address)": "10fa61e6",
			"getInstrumentData(address)": "4dc54a38",
			"getInstrumentSighMechansimStates(address)": "663e34c2",
			"getInstrumentSupplyIndex(address)": "9a717b24",
			"getPrevSpeedRefreshBlock()": "3e955265",
			"getSIGHBalance()": "c6a6bfb1",
			"getSIGHSpeed()": "570b39d0",
			"getupperCheckProfitPercentage()": "0ef9e9d7",
			"initialize(address)": "c4d66de8",
			"isInstrumentSupported(address)": "c3d1b72d",
			"lendingPoolCore()": "0d7ff887",
			"oracle()": "7dc0d1d0",
			"refreshConfig()": "7c55ccb3",
			"refreshSIGHSpeeds()": "bf1678f6",
			"removeInstrument(address,address)": "f9665d44",
			"totalInstrumentsSupported()": "eeabe79f",
			"transferSighTotheUser(address,address,address,uint256)": "8e26fc38",
			"updateDeltaBlocksForSpeedRefresh(uint256)": "1e7faed9",
			"updateSIGHBorrowIndex(address)": "7c52b668",
			"updateSIGHSpeed(uint256)": "2df0f9a9",
			"updateSIGHSupplyIndex(address)": "4f425fbb",
			"updateStakingSpeedForAnInstrument(address,uint256)": "04c66321"
		}
	},
	"abi": [
		{
			"anonymous": false,
			"inputs": [
				{
					"indexed": false,
					"internalType": "address",
					"name": "instrument",
					"type": "address"
				},
				{
					"indexed": false,
					"internalType": "address",
					"name": "user",
					"type": "address"
				},
				{
					"indexed": false,
					"internalType": "uint256",
					"name": "sigh_Amount",
					"type": "uint256"
				}
			],
			"name": "AccuredSIGHTransferredToTheUser",
			"type": "event"
		},
		{
			"anonymous": false,
			"inputs": [
				{
					"indexed": false,
					"internalType": "address",
					"name": "instrument",
					"type": "address"
				},
				{
					"indexed": false,
					"internalType": "uint256",
					"name": "prevSpeed",
					"type": "uint256"
				},
				{
					"indexed": false,
					"internalType": "uint256",
					"name": "newSpeed",
					"type": "uint256"
				},
				{
					"indexed": false,
					"internalType": "uint256",
					"name": "blockNumber",
					"type": "uint256"
				}
			],
			"name": "BorrowersSIGHSpeedUpdated",
			"type": "event"
		},
		{
			"anonymous": false,
			"inputs": [
				{
					"indexed": false,
					"internalType": "uint224",
					"name": "curClock",
					"type": "uint224"
				},
				{
					"indexed": false,
					"internalType": "uint256",
					"name": "blockNumber",
					"type": "uint256"
				}
			],
			"name": "ClockUpdated",
			"type": "event"
		},
		{
			"anonymous": false,
			"inputs": [
				{
					"indexed": false,
					"internalType": "address",
					"name": "instrumentAddress_",
					"type": "address"
				},
				{
					"indexed": false,
					"internalType": "string",
					"name": "name",
					"type": "string"
				},
				{
					"indexed": false,
					"internalType": "uint256",
					"name": "decimals",
					"type": "uint256"
				},
				{
					"indexed": false,
					"internalType": "address",
					"name": "iTokenAddress",
					"type": "address"
				},
				{
					"indexed": false,
					"internalType": "uint256",
					"name": "blockNumber",
					"type": "uint256"
				}
			],
			"name": "InstrumentAdded",
			"type": "event"
		},
		{
			"anonymous": false,
			"inputs": [
				{
					"indexed": false,
					"internalType": "address",
					"name": "_instrument",
					"type": "address"
				},
				{
					"indexed": false,
					"internalType": "address",
					"name": "_iTokenAddress",
					"type": "address"
				},
				{
					"indexed": false,
					"internalType": "string",
					"name": "name",
					"type": "string"
				},
				{
					"indexed": false,
					"internalType": "uint256",
					"name": "blockNumber",
					"type": "uint256"
				}
			],
			"name": "InstrumentRemoved",
			"type": "event"
		},
		{
			"anonymous": false,
			"inputs": [
				{
					"indexed": false,
					"internalType": "address",
					"name": "instrumentAddress_",
					"type": "address"
				},
				{
					"indexed": false,
					"internalType": "string",
					"name": "name",
					"type": "string"
				},
				{
					"indexed": false,
					"internalType": "bool",
					"name": "isSighed",
					"type": "bool"
				},
				{
					"indexed": false,
					"internalType": "uint256",
					"name": "blockNumber",
					"type": "uint256"
				}
			],
			"name": "InstrumentSIGHed",
			"type": "event"
		},
		{
			"anonymous": false,
			"inputs": [
				{
					"indexed": false,
					"internalType": "uint256",
					"name": "_SIGHSpeed",
					"type": "uint256"
				},
				{
					"indexed": false,
					"internalType": "uint256",
					"name": "current_Sigh_Price",
					"type": "uint256"
				},
				{
					"indexed": false,
					"internalType": "uint256",
					"name": "totalVolatilityPerBlockAverage",
					"type": "uint256"
				},
				{
					"indexed": false,
					"internalType": "uint256",
					"name": "deltaBlocks",
					"type": "uint256"
				},
				{
					"indexed": false,
					"internalType": "uint256",
					"name": "maxVolatilityToAddress",
					"type": "uint256"
				},
				{
					"indexed": false,
					"internalType": "uint256",
					"name": "max_valueDistributionLimitDecimalsAdjusted",
					"type": "uint256"
				},
				{
					"indexed": false,
					"internalType": "uint256",
					"name": "sigh_speed_used",
					"type": "uint256"
				}
			],
			"name": "MaxSIGHSpeedCalculated",
			"type": "event"
		},
		{
			"anonymous": false,
			"inputs": [
				{
					"indexed": false,
					"internalType": "uint256",
					"name": "oldSIGHSpeed",
					"type": "uint256"
				},
				{
					"indexed": false,
					"internalType": "uint256",
					"name": "newSIGHSpeed",
					"type": "uint256"
				},
				{
					"indexed": false,
					"internalType": "uint256",
					"name": "blockNumber_",
					"type": "uint256"
				}
			],
			"name": "NewSIGHSpeed",
			"type": "event"
		},
		{
			"anonymous": false,
			"inputs": [
				{
					"indexed": false,
					"internalType": "address",
					"name": "instrument",
					"type": "address"
				},
				{
					"indexed": false,
					"internalType": "uint256",
					"name": "prevPrice",
					"type": "uint256"
				},
				{
					"indexed": false,
					"internalType": "uint256",
					"name": "currentPrice",
					"type": "uint256"
				},
				{
					"indexed": false,
					"internalType": "uint256",
					"name": "currentClock",
					"type": "uint256"
				}
			],
			"name": "PriceSnapped",
			"type": "event"
		},
		{
			"anonymous": false,
			"inputs": [
				{
					"indexed": false,
					"internalType": "address",
					"name": "iToken",
					"type": "address"
				},
				{
					"indexed": false,
					"internalType": "uint256",
					"name": "prevPrice",
					"type": "uint256"
				},
				{
					"indexed": false,
					"internalType": "uint256",
					"name": "currentPrice",
					"type": "uint256"
				},
				{
					"indexed": false,
					"internalType": "uint32",
					"name": "currentCounter",
					"type": "uint32"
				}
			],
			"name": "PriceSnappedCheck",
			"type": "event"
		},
		{
			"anonymous": false,
			"inputs": [
				{
					"indexed": false,
					"internalType": "address",
					"name": "instrument",
					"type": "address"
				},
				{
					"indexed": false,
					"internalType": "uint256",
					"name": "sighAccured",
					"type": "uint256"
				},
				{
					"indexed": false,
					"internalType": "uint256",
					"name": "ratioMantissa",
					"type": "uint256"
				},
				{
					"indexed": false,
					"internalType": "uint256",
					"name": "newIndexMantissa",
					"type": "uint256"
				},
				{
					"indexed": false,
					"internalType": "uint256",
					"name": "blockNum",
					"type": "uint256"
				}
			],
			"name": "SIGHBorrowIndexUpdated",
			"type": "event"
		},
		{
			"anonymous": false,
			"inputs": [
				{
					"indexed": false,
					"internalType": "address",
					"name": "addressesProvider",
					"type": "address"
				},
				{
					"indexed": false,
					"internalType": "address",
					"name": "Sigh_Address",
					"type": "address"
				},
				{
					"indexed": false,
					"internalType": "address",
					"name": "priceOracle",
					"type": "address"
				},
				{
					"indexed": false,
					"internalType": "address",
					"name": "lendingPoolCore",
					"type": "address"
				}
			],
			"name": "SIGHDistributionHandlerInitialized",
			"type": "event"
		},
		{
			"anonymous": false,
			"inputs": [
				{
					"indexed": false,
					"internalType": "address",
					"name": "instrument",
					"type": "address"
				},
				{
					"indexed": false,
					"internalType": "uint256",
					"name": "sighAccured",
					"type": "uint256"
				},
				{
					"indexed": false,
					"internalType": "uint256",
					"name": "ratioMantissa",
					"type": "uint256"
				},
				{
					"indexed": false,
					"internalType": "uint256",
					"name": "newIndexMantissa",
					"type": "uint256"
				},
				{
					"indexed": false,
					"internalType": "uint256",
					"name": "blockNum",
					"type": "uint256"
				}
			],
			"name": "SIGHSupplyIndexUpdated",
			"type": "event"
		},
		{
			"anonymous": false,
			"inputs": [
				{
					"indexed": false,
					"internalType": "bool",
					"name": "previsSpeedUpperCheckAllowed",
					"type": "bool"
				},
				{
					"indexed": false,
					"internalType": "uint256",
					"name": "upperCheckProfitPercentage",
					"type": "uint256"
				},
				{
					"indexed": false,
					"internalType": "uint256",
					"name": "blockNumber",
					"type": "uint256"
				}
			],
			"name": "SpeedUpperCheckSwitched",
			"type": "event"
		},
		{
			"anonymous": false,
			"inputs": [
				{
					"indexed": false,
					"internalType": "address",
					"name": "instrumentAddress_",
					"type": "address"
				},
				{
					"indexed": false,
					"internalType": "uint256",
					"name": "prevStakingSpeed",
					"type": "uint256"
				},
				{
					"indexed": false,
					"internalType": "uint256",
					"name": "new_staking_Speed",
					"type": "uint256"
				},
				{
					"indexed": false,
					"internalType": "uint256",
					"name": "blockNumber",
					"type": "uint256"
				}
			],
			"name": "StakingSpeedUpdated",
			"type": "event"
		},
		{
			"anonymous": false,
			"inputs": [
				{
					"indexed": false,
					"internalType": "address",
					"name": "instrument",
					"type": "address"
				},
				{
					"indexed": false,
					"internalType": "uint256",
					"name": "prevSpeed",
					"type": "uint256"
				},
				{
					"indexed": false,
					"internalType": "uint256",
					"name": "newSpeed",
					"type": "uint256"
				},
				{
					"indexed": false,
					"internalType": "uint256",
					"name": "blockNumber",
					"type": "uint256"
				}
			],
			"name": "SuppliersSIGHSpeedUpdated",
			"type": "event"
		},
		{
			"anonymous": false,
			"inputs": [
				{
					"indexed": false,
					"internalType": "uint224",
					"name": "curClock",
					"type": "uint224"
				},
				{
					"indexed": false,
					"internalType": "uint256",
					"name": "deltaBlocks_",
					"type": "uint256"
				},
				{
					"indexed": false,
					"internalType": "uint256",
					"name": "blockNumberForPriceSnapshots",
					"type": "uint256"
				},
				{
					"indexed": false,
					"internalType": "uint256",
					"name": "blocknumber",
					"type": "uint256"
				}
			],
			"name": "blockNumberForSnapshotUpdated",
			"type": "event"
		},
		{
			"anonymous": false,
			"inputs": [
				{
					"indexed": false,
					"internalType": "address",
					"name": "_Instrument",
					"type": "address"
				},
				{
					"indexed": false,
					"internalType": "string",
					"name": "side",
					"type": "string"
				},
				{
					"indexed": false,
					"internalType": "uint256",
					"name": "_24HrVolatility",
					"type": "uint256"
				},
				{
					"indexed": false,
					"internalType": "uint256",
					"name": "totalLosses",
					"type": "uint256"
				}
			],
			"name": "calculatingInstrumentVolatility",
			"type": "event"
		},
		{
			"anonymous": false,
			"inputs": [
				{
					"indexed": false,
					"internalType": "uint256",
					"name": "lossAmount",
					"type": "uint256"
				},
				{
					"indexed": false,
					"internalType": "uint256",
					"name": "instrumentDecimals",
					"type": "uint256"
				},
				{
					"indexed": false,
					"internalType": "uint256",
					"name": "priceDecimals",
					"type": "uint256"
				},
				{
					"indexed": false,
					"internalType": "uint256",
					"name": "correctedLossAmount",
					"type": "uint256"
				}
			],
			"name": "decimalsAdjustment",
			"type": "event"
		},
		{
			"anonymous": false,
			"inputs": [
				{
					"indexed": false,
					"internalType": "uint256",
					"name": "SIGH",
					"type": "uint256"
				}
			],
			"name": "maxSpeedCheck",
			"type": "event"
		},
		{
			"anonymous": false,
			"inputs": [
				{
					"indexed": false,
					"internalType": "uint256",
					"name": "prevDeltaBlocksForSpeed",
					"type": "uint256"
				},
				{
					"indexed": false,
					"internalType": "uint256",
					"name": "newDeltaBlocksForSpeed",
					"type": "uint256"
				},
				{
					"indexed": false,
					"internalType": "uint256",
					"name": "blockNumber",
					"type": "uint256"
				}
			],
			"name": "minimumBlocksForSpeedRefreshUpdated",
			"type": "event"
		},
		{
			"anonymous": false,
			"inputs": [
				{
					"indexed": false,
					"internalType": "address",
					"name": "_Instrument",
					"type": "address"
				},
				{
					"indexed": false,
					"internalType": "uint256",
					"name": "maxSpeed",
					"type": "uint256"
				},
				{
					"indexed": false,
					"internalType": "uint256",
					"name": "supplierSpeed",
					"type": "uint256"
				},
				{
					"indexed": false,
					"internalType": "uint256",
					"name": "borrowerSpeed",
					"type": "uint256"
				},
				{
					"indexed": false,
					"internalType": "uint256",
					"name": "percentTotalVolatility",
					"type": "uint256"
				}
			],
			"name": "refreshingSighSpeeds",
			"type": "event"
		},
		{
			"constant": false,
			"inputs": [
				{
					"internalType": "address",
					"name": "instrument_",
					"type": "address"
				}
			],
			"name": "Instrument_SIGHed",
			"outputs": [
				{
					"internalType": "bool",
					"name": "",
					"type": "bool"
				}
			],
			"payable": false,
			"stateMutability": "nonpayable",
			"type": "function"
		},
		{
			"constant": false,
			"inputs": [
				{
					"internalType": "address",
					"name": "instrument_",
					"type": "address"
				}
			],
			"name": "Instrument_UNSIGHed",
			"outputs": [
				{
					"internalType": "bool",
					"name": "",
					"type": "bool"
				}
			],
			"payable": false,
			"stateMutability": "nonpayable",
			"type": "function"
		},
		{
			"constant": true,
			"inputs": [],
			"name": "Sigh_Address",
			"outputs": [
				{
					"internalType": "contract IERC20",
					"name": "",
					"type": "address"
				}
			],
			"payable": false,
			"stateMutability": "view",
			"type": "function"
		},
		{
			"constant": false,
			"inputs": [
				{
					"internalType": "bool",
					"name": "isActivated",
					"type": "bool"
				},
				{
					"internalType": "uint256",
					"name": "profitPercentage",
					"type": "uint256"
				}
			],
			"name": "SpeedUpperCheckSwitch",
			"outputs": [
				{
					"internalType": "bool",
					"name": "",
					"type": "bool"
				}
			],
			"payable": false,
			"stateMutability": "nonpayable",
			"type": "function"
		},
		{
			"constant": false,
			"inputs": [
				{
					"internalType": "address",
					"name": "_instrument",
					"type": "address"
				},
				{
					"internalType": "address",
					"name": "_iTokenAddress",
					"type": "address"
				},
				{
					"internalType": "uint256",
					"name": "_decimals",
					"type": "uint256"
				}
			],
			"name": "addInstrument",
			"outputs": [
				{
					"internalType": "bool",
					"name": "",
					"type": "bool"
				}
			],
			"payable": false,
			"stateMutability": "nonpayable",
			"type": "function"
		},
		{
			"constant": true,
			"inputs": [],
			"name": "addressesProvider",
			"outputs": [
				{
					"internalType": "contract GlobalAddressesProvider",
					"name": "",
					"type": "address"
				}
			],
			"payable": false,
			"stateMutability": "view",
			"type": "function"
		},
		{
			"constant": true,
			"inputs": [
				{
					"internalType": "address",
					"name": "instrument_",
					"type": "address"
				},
				{
					"internalType": "uint256",
					"name": "clock",
					"type": "uint256"
				}
			],
			"name": "checkPriceSnapshots",
			"outputs": [
				{
					"internalType": "uint256",
					"name": "",
					"type": "uint256"
				}
			],
			"payable": false,
			"stateMutability": "view",
			"type": "function"
		},
		{
			"constant": true,
			"inputs": [
				{
					"internalType": "address",
					"name": "instrument_",
					"type": "address"
				}
			],
			"name": "checkinitializationCounter",
			"outputs": [
				{
					"internalType": "uint32",
					"name": "",
					"type": "uint32"
				}
			],
			"payable": false,
			"stateMutability": "view",
			"type": "function"
		},
		{
			"constant": true,
			"inputs": [],
			"name": "getAllInstrumentsSupported",
			"outputs": [
				{
					"internalType": "address[]",
					"name": "",
					"type": "address[]"
				}
			],
			"payable": false,
			"stateMutability": "view",
			"type": "function"
		},
		{
			"constant": true,
			"inputs": [
				{
					"internalType": "address",
					"name": "instrument_",
					"type": "address"
				}
			],
			"name": "getAllPriceSnapshots",
			"outputs": [
				{
					"internalType": "uint256[24]",
					"name": "",
					"type": "uint256[24]"
				}
			],
			"payable": false,
			"stateMutability": "view",
			"type": "function"
		},
		{
			"constant": true,
			"inputs": [],
			"name": "getBlockNumber",
			"outputs": [
				{
					"internalType": "uint32",
					"name": "",
					"type": "uint32"
				}
			],
			"payable": false,
			"stateMutability": "view",
			"type": "function"
		},
		{
			"constant": true,
			"inputs": [],
			"name": "getBlockNumbersForPriceSnapshots",
			"outputs": [
				{
					"internalType": "uint256[24]",
					"name": "",
					"type": "uint256[24]"
				}
			],
			"payable": false,
			"stateMutability": "view",
			"type": "function"
		},
		{
			"constant": true,
			"inputs": [],
			"name": "getBlocksRemainingToNextSpeedRefresh",
			"outputs": [
				{
					"internalType": "uint256",
					"name": "",
					"type": "uint256"
				}
			],
			"payable": false,
			"stateMutability": "view",
			"type": "function"
		},
		{
			"constant": true,
			"inputs": [],
			"name": "getDeltaBlocksForSpeed",
			"outputs": [
				{
					"internalType": "uint256",
					"name": "",
					"type": "uint256"
				}
			],
			"payable": false,
			"stateMutability": "view",
			"type": "function"
		},
		{
			"constant": true,
			"inputs": [
				{
					"internalType": "address",
					"name": "instrument_",
					"type": "address"
				}
			],
			"name": "getInstrumentBorrowIndex",
			"outputs": [
				{
					"internalType": "uint256",
					"name": "",
					"type": "uint256"
				}
			],
			"payable": false,
			"stateMutability": "view",
			"type": "function"
		},
		{
			"constant": true,
			"inputs": [
				{
					"internalType": "address",
					"name": "instrument_",
					"type": "address"
				}
			],
			"name": "getInstrumentData",
			"outputs": [
				{
					"internalType": "string",
					"name": "name",
					"type": "string"
				},
				{
					"internalType": "address",
					"name": "iTokenAddress",
					"type": "address"
				},
				{
					"internalType": "uint256",
					"name": "decimals",
					"type": "uint256"
				},
				{
					"internalType": "bool",
					"name": "isSIGHMechanismActivated",
					"type": "bool"
				},
				{
					"internalType": "uint256",
					"name": "supplyindex",
					"type": "uint256"
				},
				{
					"internalType": "uint256",
					"name": "borrowindex",
					"type": "uint256"
				}
			],
			"payable": false,
			"stateMutability": "view",
			"type": "function"
		},
		{
			"constant": true,
			"inputs": [
				{
					"internalType": "address",
					"name": "instrument",
					"type": "address"
				}
			],
			"name": "getInstrumentSighMechansimStates",
			"outputs": [
				{
					"internalType": "uint256",
					"name": "suppliers_speed",
					"type": "uint256"
				},
				{
					"internalType": "uint256",
					"name": "borrowers_speed",
					"type": "uint256"
				},
				{
					"internalType": "uint256",
					"name": "staking_speed",
					"type": "uint256"
				},
				{
					"internalType": "uint256",
					"name": "_24HrVolatility",
					"type": "uint256"
				},
				{
					"internalType": "string",
					"name": "side",
					"type": "string"
				},
				{
					"internalType": "uint256",
					"name": "percentTotalVolatility",
					"type": "uint256"
				}
			],
			"payable": false,
			"stateMutability": "view",
			"type": "function"
		},
		{
			"constant": true,
			"inputs": [
				{
					"internalType": "address",
					"name": "instrument_",
					"type": "address"
				}
			],
			"name": "getInstrumentSupplyIndex",
			"outputs": [
				{
					"internalType": "uint256",
					"name": "",
					"type": "uint256"
				}
			],
			"payable": false,
			"stateMutability": "view",
			"type": "function"
		},
		{
			"constant": true,
			"inputs": [],
			"name": "getPrevSpeedRefreshBlock",
			"outputs": [
				{
					"internalType": "uint256",
					"name": "",
					"type": "uint256"
				}
			],
			"payable": false,
			"stateMutability": "view",
			"type": "function"
		},
		{
			"constant": true,
			"inputs": [],
			"name": "getSIGHBalance",
			"outputs": [
				{
					"internalType": "uint256",
					"name": "",
					"type": "uint256"
				}
			],
			"payable": false,
			"stateMutability": "view",
			"type": "function"
		},
		{
			"constant": true,
			"inputs": [],
			"name": "getSIGHSpeed",
			"outputs": [
				{
					"internalType": "uint256",
					"name": "",
					"type": "uint256"
				}
			],
			"payable": false,
			"stateMutability": "view",
			"type": "function"
		},
		{
			"constant": true,
			"inputs": [],
			"name": "getupperCheckProfitPercentage",
			"outputs": [
				{
					"internalType": "uint256",
					"name": "",
					"type": "uint256"
				}
			],
			"payable": false,
			"stateMutability": "view",
			"type": "function"
		},
		{
			"constant": false,
			"inputs": [
				{
					"internalType": "contract GlobalAddressesProvider",
					"name": "addressesProvider_",
					"type": "address"
				}
			],
			"name": "initialize",
			"outputs": [],
			"payable": false,
			"stateMutability": "nonpayable",
			"type": "function"
		},
		{
			"constant": true,
			"inputs": [
				{
					"internalType": "address",
					"name": "instrument_",
					"type": "address"
				}
			],
			"name": "isInstrumentSupported",
			"outputs": [
				{
					"internalType": "bool",
					"name": "",
					"type": "bool"
				}
			],
			"payable": false,
			"stateMutability": "view",
			"type": "function"
		},
		{
			"constant": true,
			"inputs": [],
			"name": "lendingPoolCore",
			"outputs": [
				{
					"internalType": "contract ILendingPoolCore",
					"name": "",
					"type": "address"
				}
			],
			"payable": false,
			"stateMutability": "view",
			"type": "function"
		},
		{
			"constant": true,
			"inputs": [],
			"name": "oracle",
			"outputs": [
				{
					"internalType": "contract IPriceOracleGetter",
					"name": "",
					"type": "address"
				}
			],
			"payable": false,
			"stateMutability": "view",
			"type": "function"
		},
		{
			"constant": false,
			"inputs": [],
			"name": "refreshConfig",
			"outputs": [],
			"payable": false,
			"stateMutability": "nonpayable",
			"type": "function"
		},
		{
			"constant": false,
			"inputs": [],
			"name": "refreshSIGHSpeeds",
			"outputs": [
				{
					"internalType": "bool",
					"name": "",
					"type": "bool"
				}
			],
			"payable": false,
			"stateMutability": "nonpayable",
			"type": "function"
		},
		{
			"constant": false,
			"inputs": [
				{
					"internalType": "address",
					"name": "_instrument",
					"type": "address"
				},
				{
					"internalType": "address",
					"name": "_iTokenAddress",
					"type": "address"
				}
			],
			"name": "removeInstrument",
			"outputs": [
				{
					"internalType": "bool",
					"name": "",
					"type": "bool"
				}
			],
			"payable": false,
			"stateMutability": "nonpayable",
			"type": "function"
		},
		{
			"constant": true,
			"inputs": [],
			"name": "totalInstrumentsSupported",
			"outputs": [
				{
					"internalType": "uint256",
					"name": "",
					"type": "uint256"
				}
			],
			"payable": false,
			"stateMutability": "view",
			"type": "function"
		},
		{
			"constant": false,
			"inputs": [
				{
					"internalType": "address",
					"name": "instrument",
					"type": "address"
				},
				{
					"internalType": "address",
					"name": "user",
					"type": "address"
				},
				{
					"internalType": "address",
					"name": "sighAccuredTo",
					"type": "address"
				},
				{
					"internalType": "uint256",
					"name": "sigh_Amount",
					"type": "uint256"
				}
			],
			"name": "transferSighTotheUser",
			"outputs": [
				{
					"internalType": "uint256",
					"name": "",
					"type": "uint256"
				}
			],
			"payable": false,
			"stateMutability": "nonpayable",
			"type": "function"
		},
		{
			"constant": false,
			"inputs": [
				{
					"internalType": "uint256",
					"name": "deltaBlocksLimit",
					"type": "uint256"
				}
			],
			"name": "updateDeltaBlocksForSpeedRefresh",
			"outputs": [
				{
					"internalType": "bool",
					"name": "",
					"type": "bool"
				}
			],
			"payable": false,
			"stateMutability": "nonpayable",
			"type": "function"
		},
		{
			"constant": false,
			"inputs": [
				{
					"internalType": "address",
					"name": "currentInstrument",
					"type": "address"
				}
			],
			"name": "updateSIGHBorrowIndex",
			"outputs": [
				{
					"internalType": "bool",
					"name": "",
					"type": "bool"
				}
			],
			"payable": false,
			"stateMutability": "nonpayable",
			"type": "function"
		},
		{
			"constant": false,
			"inputs": [
				{
					"internalType": "uint256",
					"name": "SIGHSpeed_",
					"type": "uint256"
				}
			],
			"name": "updateSIGHSpeed",
			"outputs": [
				{
					"internalType": "bool",
					"name": "",
					"type": "bool"
				}
			],
			"payable": false,
			"stateMutability": "nonpayable",
			"type": "function"
		},
		{
			"constant": false,
			"inputs": [
				{
					"internalType": "address",
					"name": "currentInstrument",
					"type": "address"
				}
			],
			"name": "updateSIGHSupplyIndex",
			"outputs": [
				{
					"internalType": "bool",
					"name": "",
					"type": "bool"
				}
			],
			"payable": false,
			"stateMutability": "nonpayable",
			"type": "function"
		},
		{
			"constant": false,
			"inputs": [
				{
					"internalType": "address",
					"name": "instrument_",
					"type": "address"
				},
				{
					"internalType": "uint256",
					"name": "newStakingSpeed",
					"type": "uint256"
				}
			],
			"name": "updateStakingSpeedForAnInstrument",
			"outputs": [
				{
					"internalType": "bool",
					"name": "",
					"type": "bool"
				}
			],
			"payable": false,
			"stateMutability": "nonpayable",
			"type": "function"
		}
	]
}