{
	"data": {
		"bytecode": {
			"linkReferences": {},
			"object": "60008080556037805460ff60a01b1916905560a06040526080819052603855600160575534801561002f57600080fd5b506152598061003f6000396000f3fe608060405234801561001057600080fd5b506004361061021c5760003560e01c80637c52b66811610125578063bf1678f6116100ad578063c72c4d101161007c578063c72c4d10146106eb578063d6357063146106f3578063eeabe79f14610719578063f9665d4414610721578063ffffd7fb1461074f5761021c565b8063bf1678f61461068f578063c3d1b72d14610697578063c4d66de8146106bd578063c6a6bfb1146106e35761021c565b8063832c6c90116100f4578063832c6c90146105da5780638d9cf864146105ff5780638e26fc38146106255780639a717b2414610661578063be36810a146106875761021c565b80637c52b6681461054a5780637c55ccb3146105705780637dc0d1d01461057a578063831449de146105825761021c565b806342cbb15c116101a85780634f78deef116101775780634f78deef1461049d57806352bbe658146104c3578063570b39d0146104f9578063659f73c5146105015780636f610c50146105425761021c565b806342cbb15c146103535780634dc54a38146103745780634df859fd1461044b5780634f425fbb146104775761021c565b80631e7faed9116101ef5780631e7faed9146102c557806321428a12146102e25780632df0f9a9146102ea5780633e5eee46146103075780633e9552651461034b5761021c565b806304c66321146102215780630d7ff887146102615780630ef9e9d71461028557806310fa61e61461029f575b600080fd5b61024d6004803603604081101561023757600080fd5b506001600160a01b038135169060200135610775565b604080519115158252519081900360200190f35b610269610927565b604080516001600160a01b039092168252519081900360200190f35b61028d610936565b60408051918252519081900360200190f35b61028d600480360360208110156102b557600080fd5b50356001600160a01b031661093d565b61024d600480360360208110156102db57600080fd5b5035610989565b610269610ab9565b61024d6004803603602081101561030057600080fd5b5035610ac8565b61032d6004803603602081101561031d57600080fd5b50356001600160a01b0316610bfb565b60408051938452602084019290925282820152519081900360600190f35b61028d610c23565b61035b610c29565b6040805163ffffffff9092168252519081900360200190f35b61039a6004803603602081101561038a57600080fd5b50356001600160a01b0316610c2d565b6040518080602001876001600160a01b03166001600160a01b0316815260200186815260200185151515158152602001848152602001838152602001828103825288818151815260200191508051906020019080838360005b8381101561040b5781810151838201526020016103f3565b50505050905090810190601f1680156104385780820380516001836020036101000a031916815260200191505b5097505050505050505060405180910390f35b61028d6004803603604081101561046157600080fd5b506001600160a01b038135169060200135610d1b565b61024d6004803603602081101561048d57600080fd5b50356001600160a01b0316610d47565b61024d600480360360208110156104b357600080fd5b50356001600160a01b0316610e3a565b61024d600480360360608110156104d957600080fd5b506001600160a01b03813581169160208101359091169060400135611115565b61028d611631565b610509611637565b604051808261030080838360005b8381101561052f578181015183820152602001610517565b5050505090500191505060405180910390f35b61028d611674565b61024d6004803603602081101561056057600080fd5b50356001600160a01b03166116ab565b610578611796565b005b610269611855565b61058a611864565b60408051602080825283518183015283519192839290830191858101910280838360005b838110156105c65781810151838201526020016105ae565b505050509050019250505060405180910390f35b61024d600480360360408110156105f057600080fd5b508035151590602001356118c5565b61035b6004803603602081101561061557600080fd5b50356001600160a01b0316611ac2565b61028d6004803603608081101561063b57600080fd5b506001600160a01b03813581169160208101358216916040820135169060600135611ae6565b61028d6004803603602081101561067757600080fd5b50356001600160a01b0316612011565b61028d612054565b61024d61205a565b61024d600480360360208110156106ad57600080fd5b50356001600160a01b03166120af565b610578600480360360208110156106d357600080fd5b50356001600160a01b03166120cd565b61028d6121ed565b61026961226f565b6105096004803603602081101561070957600080fd5b50356001600160a01b031661227e565b61028d6122d1565b61024d6004803603604081101561073757600080fd5b506001600160a01b03813581169160200135166122d7565b61024d6004803603602081101561076557600080fd5b50356001600160a01b031661270a565b6000336001600160a01b0316603460009054906101000a90046001600160a01b03166001600160a01b031663db49224b6040518163ffffffff1660e01b815260040160206040518083038186803b1580156107cf57600080fd5b505afa1580156107e3573d6000803e3d6000fd5b505050506040513d60208110156107f957600080fd5b50516001600160a01b0316146108405760405162461bcd60e51b815260040180806020018281038252603a815260200180614f2f603a913960400191505060405180910390fd5b6001600160a01b0383166000908152603a602052604090205460ff1661089b576040805162461bcd60e51b81526020600482015260196024820152600080516020615205833981519152604482015290519081900360640190fd5b6001600160a01b03831660009081526056602052604090206002018054908390557f60ab6bb8f64f97a68e803dc67f55f0a08732fe0db1e669b39f3b45dd35d9580d8482856108e8610c29565b604080516001600160a01b03909516855260208501939093528383019190915263ffffffff166060830152519081900360800190a15060019392505050565b6037546001600160a01b031681565b6038545b90565b6001600160a01b0381166000908152603a602052604081205460ff161561098057506001600160a01b0381166000908152603a6020526040902060070154610984565b5060005b919050565b6000336001600160a01b0316603460009054906101000a90046001600160a01b03166001600160a01b031663db49224b6040518163ffffffff1660e01b815260040160206040518083038186803b1580156109e357600080fd5b505afa1580156109f7573d6000803e3d6000fd5b505050506040513d6020811015610a0d57600080fd5b50516001600160a01b031614610a545760405162461bcd60e51b815260040180806020018281038252603a815260200180614f2f603a913960400191505060405180910390fd5b610a5c61205a565b5060578054908390557f8574a512a3537f7f97e2c60304507aa6816866c2d1fed5ffa1815cb01d2b1e448184610a90610c29565b60408051938452602084019290925263ffffffff1682820152519081900360600190a150919050565b6035546001600160a01b031681565b6000336001600160a01b0316603460009054906101000a90046001600160a01b03166001600160a01b031663db49224b6040518163ffffffff1660e01b815260040160206040518083038186803b158015610b2257600080fd5b505afa158015610b36573d6000803e3d6000fd5b505050506040513d6020811015610b4c57600080fd5b50516001600160a01b031614610b935760405162461bcd60e51b815260040180806020018281038252603a815260200180614f2f603a913960400191505060405180910390fd5b610b9b61205a565b5060558054908390557fb35ae78d38c9ad12feab06bfa59b6d4364d33e312f0e00ffb1776f0c60e5ff7a8184610bcf610c29565b60408051938452602084019290925263ffffffff1682820152519081900360600190a150600192915050565b6001600160a01b03166000908152605660205260409020805460018201546002909201549092565b60585490565b4390565b6001600160a01b038181166000908152603a6020908152604080832060028082015460038301546004840154600585015460078601546001968701805489516101009982161599909902600019011696909604601f81018a90048a0288018a0190985287875260609a8a998a998a998a9998909316969560ff1694939291889190830182828015610cff5780601f10610cd457610100808354040283529160200191610cff565b820191906000526020600020905b815481529060010190602001808311610ce257829003601f168201915b5050505050955095509550955095509550955091939550919395565b6001600160a01b0382166000908152603b602052604081208260188110610d3e57fe5b01549392505050565b6037546000906001600160a01b03163314610d935760405162461bcd60e51b8152600401808060200182810382526031815260200180614ebb6031913960400191505060405180910390fd5b6001600160a01b0382166000908152603a602052604090205460ff16610dee576040805162461bcd60e51b81526020600482015260196024820152600080516020615205833981519152604482015290519081900360640190fd5b610df7826129a9565b610e325760405162461bcd60e51b815260040180806020018281038252602d815260200180614ff7602d913960400191505060405180910390fd5b506001919050565b6000336001600160a01b0316603460009054906101000a90046001600160a01b03166001600160a01b031663db49224b6040518163ffffffff1660e01b815260040160206040518083038186803b158015610e9457600080fd5b505afa158015610ea8573d6000803e3d6000fd5b505050506040513d6020811015610ebe57600080fd5b50516001600160a01b031614610f055760405162461bcd60e51b815260040180806020018281038252603a815260200180614f2f603a913960400191505060405180910390fd5b6001600160a01b0382166000908152603a602052604090205460ff16610f60576040805162461bcd60e51b81526020600482015260196024820152600080516020615205833981519152604482015290519081900360640190fd5b6001600160a01b0382166000908152603a602052604090206004015460ff16610fba5760405162461bcd60e51b8152600401808060200182810382526043815260200180614eec6043913960600191505060405180910390fd5b610fc261205a565b50610fcb614b2c565b6001600160a01b0383166000908152603b60205260409020610fef90826018614b4b565b506001600160a01b0383166000908152603b60209081526040808320601801805463ffffffff19169055603a909152812060048101805460ff191690557f95eb8164ada5bbd9b16bb9918bcf97960c1d006f76427f3faf2bfb2ebc963e429185916001019061105c610c29565b604080516001600160a01b03861681528315159181019190915263ffffffff821660608201526080602082018181528554600260001961010060018416150201909116049183018290529060a0830190869080156110fb5780601f106110d0576101008083540402835291602001916110fb565b820191906000526020600020905b8154815290600101906020018083116110de57829003601f168201915b50509550505050505060405180910390a150600192915050565b6037546000906001600160a01b031633146111615760405162461bcd60e51b8152600401808060200182810382526031815260200180614ebb6031913960400191505060405180910390fd5b6001600160a01b0384166000908152603a602052604090205460ff16156111cf576040805162461bcd60e51b815260206004820152601d60248201527f496e737472756d656e7420616c726561647920737570706f727465642e000000604482015290519081900360640190fd5b603980546001808201835560009283527fdc16fef70f8d5ddbc01ee3d903d1e69c18a3c7be080eb86a81e0578814ee58d390910180546001600160a01b0319166001600160a01b0388811691909117909155604080516101208101825292835280516306fdde0360e01b81529051879460208501938616926306fdde039260048083019392829003018186803b15801561126857600080fd5b505afa15801561127c573d6000803e3d6000fd5b505050506040513d6000823e601f3d908101601f1916820160405260208110156112a557600080fd5b81019080805160405193929190846401000000008211156112c557600080fd5b9083019060208201858111156112da57600080fd5b82516401000000008111828201881017156112f457600080fd5b82525081516020918201929091019080838360005b83811015611321578181015183820152602001611309565b50505050905090810190601f16801561134e5780820380516001836020036101000a031916815260200191505b506040525050508152602001856001600160a01b031681526020018481526020016000151581526020016ec097ce7bc90715b34b9f10000000008152602001611395610c29565b63ffffffff1681526020016ec097ce7bc90715b34b9f100000000081526020016113bd610c29565b63ffffffff1690526001600160a01b0386166000908152603a602090815260409091208251815460ff1916901515178155828201518051919261140892600185019290910190614b89565b50604082810151600283810180546001600160a01b0319166001600160a01b039384161790556060808601516003860155608086015160048601805460ff191691151591909117905560a0860151600586015560c0860151600686015560e08601516007860155610100909501516008909401939093558151938401825260008085526020808601828152868501838152938c168352605682528483209651875551600187015591519490930193909355603b909252206018015463ffffffff16611534576114d5614b2c565b604080518082018252828152600060208083018290526001600160a01b038a168252603b905291909120815161150e9082906018614b4b565b50602091909101516018909101805463ffffffff191663ffffffff909216919091179055505b6001600160a01b038581166000818152603a602090815260409182902082519384529183018790529287166060830152436080830181905260a093830184815260019283018054600294811615610100026000190116939093049484018590527f147287eb47162017688bf4e80590ac2faa6656751fd480b76fa8f7612910141a948a9489938b93909260c0830190879080156116125780601f106115e757610100808354040283529160200191611612565b820191906000526020600020905b8154815290600101906020018083116115f557829003601f168201915b5050965050505050505060405180910390a160019150505b9392505050565b60555490565b61163f614b2c565b6040805161030081019182905290603c9060189082845b815481526020019060010190808311611656575b5050505050905090565b60008061168343605854612e28565b90508060575411156116a35761169b60575482612e28565b91505061093a565b600091505090565b6037546000906001600160a01b031633146116f75760405162461bcd60e51b8152600401808060200182810382526031815260200180614ebb6031913960400191505060405180910390fd5b6001600160a01b0382166000908152603a602052604090205460ff16611752576040805162461bcd60e51b81526020600482015260196024820152600080516020615205833981519152604482015290519081900360640190fd5b61175b82612e62565b610e325760405162461bcd60e51b815260040180806020018281038252602d81526020018061516d602d913960400191505060405180910390fd5b6034546040805163db49224b60e01b8152905133926001600160a01b03169163db49224b916004808301926020929190829003018186803b1580156117da57600080fd5b505afa1580156117ee573d6000803e3d6000fd5b505050506040513d602081101561180457600080fd5b50516001600160a01b03161461184b5760405162461bcd60e51b815260040180806020018281038252603a815260200180614f2f603a913960400191505060405180910390fd5b6118536132b1565b565b6036546001600160a01b031681565b6060603980548060200260200160405190810160405280929190818152602001828054801561166a57602002820191906000526020600020905b81546001600160a01b0316815260019091019060200180831161189e575050505050905090565b6000336001600160a01b0316603460009054906101000a90046001600160a01b03166001600160a01b031663db49224b6040518163ffffffff1660e01b815260040160206040518083038186803b15801561191f57600080fd5b505afa158015611933573d6000803e3d6000fd5b505050506040513d602081101561194957600080fd5b50516001600160a01b0316146119905760405162461bcd60e51b815260040180806020018281038252603a815260200180614f2f603a913960400191505060405180910390fd5b662386f26fc1000082116119d55760405162461bcd60e51b815260040180806020018281038252603c815260200180614cf7603c913960400191505060405180910390fd5b670de0b6b3a7640000821115611a1c5760405162461bcd60e51b8152600401808060200182810382526034815260200180614fa26034913960400191505060405180910390fd5b611a2461205a565b506040805160208101909152829052603882905582611a4b576037805460ff60a01b191690555b6037805460ff60a01b1916600160a01b908117918290556038547ff27fc072c7772962292b4f5221d157312241ae2757928921516bb837b3d1e7bc929190910460ff1690611a97610c29565b604080519315158452602084019290925263ffffffff1682820152519081900360600190a192915050565b6001600160a01b03166000908152603b602052604090206018015463ffffffff1690565b600084611af1614bf6565b6001600160a01b0382166000908152603a6020908152604091829020825161012081018452815460ff1615158152600180830180548651600261010094831615949094026000190190911692909204601f8101869004860283018601909652858252919492938581019391929190830182828015611bb05780601f10611b8557610100808354040283529160200191611bb0565b820191906000526020600020905b815481529060010190602001808311611b9357829003601f168201915b505050918352505060028201546001600160a01b0316602082015260038201546040820152600482015460ff161515606082015260058201546080820152600682015460a0820152600782015460c082015260089091015460e0909101528051909150611c4e5760405162461bcd60e51b815260040180806020018281038252603d815260200180614dd9603d913960400191505060405180910390fd5b80604001516001600160a01b0316336001600160a01b031614611ca25760405162461bcd60e51b81526004018080602001828103825260448152602001806150246044913960600191505060405180910390fd5b603554604080516370a0823160e01b8152306004820152905160009287926001600160a01b03909116916370a0823191602480820192602092909190829003018186803b158015611cf257600080fd5b505afa158015611d06573d6000803e3d6000fd5b505050506040513d6020811015611d1c57600080fd5b50511115612003576035546040805163a9059cbb60e01b81526001600160a01b038981166004830152602482018990529151919092169163a9059cbb9160448083019260209291908290030181600087803b158015611d7a57600080fd5b505af1158015611d8e573d6000803e3d6000fd5b505050506040513d6020811015611da457600080fd5b5051611de15760405162461bcd60e51b815260040180806020018281038252602c8152602001806150eb602c913960400191505060405180910390fd5b603460009054906101000a90046001600160a01b03166001600160a01b0316631db4f5696040518163ffffffff1660e01b815260040160206040518083038186803b158015611e2f57600080fd5b505afa158015611e43573d6000803e3d6000fd5b505050506040513d6020811015611e5957600080fd5b50516001600160a01b0387811691161415611fb45760345460408051631db4f56960e01b815290516000926001600160a01b031691631db4f569916004808301926020929190829003018186803b158015611eb357600080fd5b505afa158015611ec7573d6000803e3d6000fd5b505050506040513d6020811015611edd57600080fd5b50516040805163660ecbc960e01b81526001600160a01b038b81166004830152602482018a905291519293509083169163660ecbc9916044808201926020929091908290030181600087803b158015611f3557600080fd5b505af1158015611f49573d6000803e3d6000fd5b505050506040513d6020811015611f5f57600080fd5b5051611fb2576040805162461bcd60e51b815260206004820152601f60248201527f4661696c656420746f20757064617465205374616b65642062616c616e636500604482015290519081900360640190fd5b505b604080516001600160a01b03808b1682528916602082015280820187905290517f922c86da5ba82864ddc6d719ccdd80a788323e2a4dc17cfe258d00ba885b2bec9181900360600190a1612006565b50835b979650505050505050565b6001600160a01b0381166000908152603a602052604081205460ff161561098057506001600160a01b0381166000908152603a6020526040902060050154610984565b60575490565b600080439050600061208782605854604051806060016040528060368152602001614e1660369139613456565b905060575481106120a65761209a6134ed565b5060585550600161093a565b60009250505090565b6001600160a01b03166000908152603a602052604090205460ff1690565b60006120d761418b565b60015490915060ff16806120ee57506120ee614190565b806120fa575060005481115b6121355760405162461bcd60e51b815260040180806020018281038252602e8152602001806150bd602e913960400191505060405180910390fd5b60015460ff16158015612154576001805460ff19168117905560008290555b603480546001600160a01b0319166001600160a01b0385161790556121776132b1565b603454603554603654603754604080516001600160a01b039586168152938516602085015291841683830152909216606082015290517f0c1ebb533f3d7d1a5b07028f3f2b3cd0d8b9912e1e524eea0afa6873c6fff6499181900360800190a180156121e8576001805460ff191690555b505050565b603554604080516370a0823160e01b8152306004820152905160009283926001600160a01b03909116916370a0823191602480820192602092909190829003018186803b15801561223d57600080fd5b505afa158015612251573d6000803e3d6000fd5b505050506040513d602081101561226757600080fd5b505191505090565b6034546001600160a01b031681565b612286614b2c565b6001600160a01b0382166000908152603b60205260409081902081516103008101928390529160189082845b8154815260200190600101908083116122b25750505050509050919050565b60395490565b6037546000906001600160a01b031633146123235760405162461bcd60e51b8152600401808060200182810382526031815260200180614ebb6031913960400191505060405180910390fd5b6001600160a01b0383166000908152603a602052604090205460ff16612390576040805162461bcd60e51b815260206004820152601d60248201527f496e737472756d656e7420616c726561647920737570706f727465642e000000604482015290519081900360640190fd5b603954600090815b818110156123e257856001600160a01b0316603982815481106123b757fe5b6000918252602090912001546001600160a01b031614156123da578092506123e2565b600101612398565b50603960018203815481106123f357fe5b600091825260209091200154603980546001600160a01b03909216918490811061241957fe5b600091825260209091200180546001600160a01b0319166001600160a01b03929092169190911790556039805490612455906000198301614c4f565b50603954600019820190811461249c5760405162461bcd60e51b8152600401808060200182810382526046815260200180614d616046913960600191505060405180910390fd5b6060603a6000886001600160a01b03166001600160a01b031681526020019081526020016000206001018054600181600116156101000203166002900480601f01602080910402602001604051908101604052809291908181526020018280546001816001161561010002031660029004801561255a5780601f1061252f5761010080835404028352916020019161255a565b820191906000526020600020905b81548152906001019060200180831161253d57829003601f168201915b505050506001600160a01b0389166000908152603a60205260408120805460ff1916815592935090506125906001830182614c73565b50600281810180546001600160a01b031916905560006003830181905560048301805460ff1916905560058301819055600683018190556007830181905560089092018290556001600160a01b038916825260566020908152604080842084815560018101859055909201839055603b905281209061260f8282614cba565b6018820160006101000a81549063ffffffff021916905550507f65f75a1dd08cc1db84fba8e6f47ee955c0a2d816b86a642be1f1f7867bf38ee58787834360405180856001600160a01b03166001600160a01b03168152602001846001600160a01b03166001600160a01b0316815260200180602001838152602001828103825284818151815260200191508051906020019080838360005b838110156126c05781810151838201526020016126a8565b50505050905090810190601f1680156126ed5780820380516001836020036101000a031916815260200191505b509550505050505060405180910390a15060019695505050505050565b6000336001600160a01b0316603460009054906101000a90046001600160a01b03166001600160a01b031663db49224b6040518163ffffffff1660e01b815260040160206040518083038186803b15801561276457600080fd5b505afa158015612778573d6000803e3d6000fd5b505050506040513d602081101561278e57600080fd5b50516001600160a01b0316146127d55760405162461bcd60e51b815260040180806020018281038252603a815260200180614f2f603a913960400191505060405180910390fd5b6001600160a01b0382166000908152603a602052604090205460ff16612830576040805162461bcd60e51b81526020600482015260196024820152600080516020615205833981519152604482015290519081900360640190fd5b6001600160a01b0382166000908152603a602052604090206004015460ff161561288b5760405162461bcd60e51b815260040180806020018281038252603c815260200180614e4c603c913960400191505060405180910390fd5b61289361205a565b506001600160a01b0382166000908152603a6020526040902060048101805460ff19166001908117918290557f95eb8164ada5bbd9b16bb9918bcf97960c1d006f76427f3faf2bfb2ebc963e4292859291019060ff166128f1610c29565b604080516001600160a01b03861681528315159181019190915263ffffffff821660608201526080602082018181528554600260001961010060018416150201909116049183018290529060a0830190869080156129905780601f1061296557610100808354040283529160200191612990565b820191906000526020600020905b81548152906001019060200180831161297357829003601f168201915b50509550505050505060405180910390a1506001919050565b60006129b3610c29565b6001600160a01b0383166000908152603a602052604090206006015463ffffffff9190911614156129e657506001610984565b6001600160a01b0382166000908152603a602090815260408083206056835281842080546002909101548351606081019094526033808552929594612a3794929391929190614e8890830139614196565b90506000612a43610c29565b63ffffffff1690506000836005015490506000612a7d83866006015460405180606001604052806033815260200161519a60339139613456565b6006860154604080516001600160a01b038b1681526020810188905280820186905260608101929092526080820186905260a08201839052519192507f33c3c4fbbf284318eed04c3cf9daac06e5923d93fe4a2be263a7ef9ca04a61d1919081900360c00190a1600081118015612af45750600084115b15612c63576000612b0582866141f4565b6037546040805163792a0feb60e01b81526001600160a01b038c811660048301529151939450600093919092169163792a0feb916024808301926020929190829003018186803b158015612b5857600080fd5b505afa158015612b6c573d6000803e3d6000fd5b505050506040513d6020811015612b8257600080fd5b50519050612b8e614cc9565b60008211612bab5760405180602001604052806000815250612bb5565b612bb58383614236565b9050612bbf614cc9565b612bdb60405180602001604052808b6005015481525083614274565b90507fe95dd326fd60b246147ca887c909941be4959f1d69568fada2de48030966a6b68b84868560000151856000015160405180866001600160a01b03166001600160a01b031681526020018581526020018481526020018381526020018281526020019550505050505060405180910390a151600589015550505060068501839055612c6b565b600685018390555b612c73614bf6565b6001600160a01b0388166000908152603a6020908152604091829020825161012081018452815460ff1615158152600180830180548651600261010094831615949094026000190190911692909204601f8101869004860283018601909652858252919492938581019391929190830182828015612d325780601f10612d0757610100808354040283529160200191612d32565b820191906000526020600020905b815481529060010190602001808311612d1557829003601f168201915b505050505081526020016002820160009054906101000a90046001600160a01b03166001600160a01b03166001600160a01b03168152602001600382015481526020016004820160009054906101000a900460ff1615151515815260200160058201548152602001600682015481526020016007820154815260200160088201548152505090507f04154c6dbc61d39e4a9bd51dfa697154d646e7b335507287d93212c0382de097888260a001518360c0015160405180846001600160a01b03166001600160a01b03168152602001838152602001828152602001935050505060405180910390a1506001979650505050505050565b600061162a8383604051806040016040528060158152602001747375627472616374696f6e20756e646572666c6f7760581b815250613456565b6000612e6c610c29565b6001600160a01b0383166000908152603a602052604090206008015463ffffffff919091161415612e9f57506001610984565b6001600160a01b0382166000908152603a602090815260408083206056835281842060018101546002909101548351606081019094526033808552929594612ef394929391929190614e8890830139614196565b90506000612eff610c29565b63ffffffff1690506000836007015490506000612f3983866008015460405180606001604052806033815260200161506860339139613456565b6008860154604080516001600160a01b038b1681526020810188905280820186905260608101929092526080820186905260a08201839052519192507fa058dfd6c04d9834195c4b80ae7ca35418d9d07d684cdeb45972eec16c1b336e919081900360c00190a1600081118015612fb05750600084115b1561311f576000612fc182866141f4565b60375460408051630915c83b60e21b81526001600160a01b038c811660048301529151939450600093919092169163245720ec916024808301926020929190829003018186803b15801561301457600080fd5b505afa158015613028573d6000803e3d6000fd5b505050506040513d602081101561303e57600080fd5b5051905061304a614cc9565b600082116130675760405180602001604052806000815250613071565b6130718383614236565b905061307b614cc9565b61309760405180602001604052808b6007015481525083614274565b90507f0be37f70e594e12d41728104a3b673f3291f124ea114f134a0880e6f5f84b16c8b84868560000151856000015160405180866001600160a01b03166001600160a01b031681526020018581526020018481526020018381526020018281526020019550505050505060405180910390a151600789015550505060088501839055613127565b600885018390555b61312f614bf6565b6001600160a01b0388166000908152603a6020908152604091829020825161012081018452815460ff1615158152600180830180548651600261010094831615949094026000190190911692909204601f81018690048602830186019096528582529194929385810193919291908301828280156131ee5780601f106131c3576101008083540402835291602001916131ee565b820191906000526020600020905b8154815290600101906020018083116131d157829003601f168201915b505050918352505060028201546001600160a01b039081166020808401919091526003840154604080850191909152600485015460ff16151560608086019190915260058601546080860152600686015460a0860152600786015460c086015260089095015460e094850152928501516101008601518451938f168452918301528183015290519293507f3186aada172c7dfc5268ed7afcfe1af6f94d695b869760b6c2f90d092256056e929081900390910190a1506001979650505050505050565b603460009054906101000a90046001600160a01b03166001600160a01b031663841aa40c6040518163ffffffff1660e01b815260040160206040518083038186803b1580156132ff57600080fd5b505afa158015613313573d6000803e3d6000fd5b505050506040513d602081101561332957600080fd5b5051603580546001600160a01b0319166001600160a01b0392831617905560345460408051631f94a27560e31b81529051919092169163fca513a8916004808301926020929190829003018186803b15801561338457600080fd5b505afa158015613398573d6000803e3d6000fd5b505050506040513d60208110156133ae57600080fd5b5051603680546001600160a01b0319166001600160a01b039283161790556034546040805163076b7fbb60e51b81529051919092169163ed6ff760916004808301926020929190829003018186803b15801561340957600080fd5b505afa15801561341d573d6000803e3d6000fd5b505050506040513d602081101561343357600080fd5b5051603780546001600160a01b0319166001600160a01b03909216919091179055565b600081848411156134e55760405162461bcd60e51b81526004018080602001828103825283818151815260200191508051906020019080838360005b838110156134aa578181015183820152602001613492565b50505050905090810190601f1680156134d75780820380516001836020036101000a031916815260200191505b509250505060405180910390fd5b505050900390565b6060603980548060200260200160405190810160405280929190818152602001828054801561354557602002820191906000526020600020905b81546001600160a01b03168152600190910190602001808311613527575b505060545493945060009361358f9350439250603c91506001600160e01b03166018811061356f57fe5b0154604051806060016040528060218152602001614fd660219139613456565b6054549091504390603c906001600160e01b0316601881106135ad57fe5b01556054547fd54b3c8dde4fe116ee9cf6976b328b65c622d171e8a73017473b4257bd5bf6f8906001600160e01b0316603c81601881106135ea57fe5b0154604080516001600160e01b0390931683526020830191909152818101849052436060830152519081900360800190a1613623614299565b61365e5760405162461bcd60e51b815260040180806020018281038252602281526020018061509b6022913960400191505060405180910390fd5b6060825160405190808252806020026020018201604052801561369b57816020015b613688614cc9565b8152602001906001900390816136805790505b509050606083516040519080825280602002602001820160405280156136db57816020015b6136c8614cc9565b8152602001906001900390816136c05790505b5090506136e6614cc9565b50604080516020810190915260008082525b8551811015613e7b57600086828151811061370f57fe5b60200260200101519050613721614cc9565b60408051602080820183526001600160a01b0385166000908152603b909152919091206054548291906001600160e01b03166018811061375d57fe5b01549052905061376b614cc9565b60408051602080820180845260365463b3596f0760e01b9091526001600160a01b03878116602485015293519293849391169163b3596f07916044808601929190818703018186803b1580156137c057600080fd5b505afa1580156137d4573d6000803e3d6000fd5b505050506040513d60208110156137ea57600080fd5b50519052805190915061382e5760405162461bcd60e51b8152600401808060200182810382526039815260200180614f696039913960400191505060405180910390fd5b80516001600160a01b0384166000908152603b602052604090206054546001600160e01b03166018811061385e57fe5b015581516001600160a01b0384166000908152603b602052604090206054547f4c4cb8d799ad60c5e77071f11a367ff22e59c2de36f996f1daf8a2f99b1826a592869290916001600160e01b0316601881106138b657fe5b0154605454604080516001600160a01b0390951685526020850193909352838301919091526001600160e01b03166060830152519081900360800190a16001600160a01b0383166000908152603a602052604090206004015460ff16158061394057506001600160a01b0383166000908152603b6020526040902060189081015463ffffffff1614155b15613aac576040518060200160405280600081525087858151811061396157fe5b60200260200101819052506040518060200160405280600081525086858151811061398857fe5b6020908102919091018101919091526001600160a01b0384166000908152603b9091526040902060189081015463ffffffff161015613aa7576001600160a01b0383166000908152603b6020908152604091829020601801548251808401909352601e83527f507269636520436f756e746572206164646974696f6e206661696c65642e00009183019190915263ffffffff1690613a2a908290600190614196565b6001600160a01b0385166000908152603b6020908152604091829020601801805463ffffffff191663ffffffff948516179081905560545483519190941681526001600160e01b039093169083015280517f696a3915458c89a47768bc2632c577bf3483b15461af15c18411ad653c4f67af9281900390910190a1505b613ded565b613ab682826142f2565b15613c77576037546040805163792a0feb60e01b81526001600160a01b0386811660048301529151600093929092169163792a0feb91602480820192602092909190829003018186803b158015613b0c57600080fd5b505afa158015613b20573d6000803e3d6000fd5b505050506040513d6020811015613b3657600080fd5b505190506000613b44614cc9565b613b4e85856142f9565b915091506000613b5c614cc9565b613b668386614335565b80516001600160a01b03808c166000818152603a602090815260409182902060030154603654835163a9ec70d160e01b815260048101959095529251979950959750613c0996949594919093169263a9ec70d19260248082019391829003018186803b158015613bd557600080fd5b505afa158015613be9573d6000803e3d6000fd5b505050506040513d6020811015613bff57600080fd5b505160ff1661439d565b8c8a81518110613c1557fe5b60200260200101516000018181525050604051806020016040528060008152508b8a81518110613c4157fe5b6020026020010181905250613c698a8d8b81518110613c5c57fe5b60200260200101516144fa565b9a50613ded95505050505050565b60375460408051630915c83b60e21b81526001600160a01b0386811660048301529151600093929092169163245720ec91602480820192602092909190829003018186803b158015613cc857600080fd5b505afa158015613cdc573d6000803e3d6000fd5b505050506040513d6020811015613cf257600080fd5b505190506000613d00614cc9565b613d0a84866142f9565b915091506000613d18614cc9565b613d228386614335565b80516001600160a01b03808c166000818152603a602090815260409182902060030154603654835163a9ec70d160e01b815260048101959095529251979950959750613d9196949594919093169263a9ec70d19260248082019391829003018186803b158015613bd557600080fd5b8b8a81518110613d9d57fe5b60200260200101516000018181525050604051806020016040528060008152508c8a81518110613dc957fe5b6020026020010181905250613de48a8c8b81518110613c5c57fe5b9a505050505050505b7facb876830293015bcdcd10daf8faefd0428853121b7c78b2768c3669a1f7d8f083888681518110613e1b57fe5b602002602001015160000151888781518110613e3357fe5b602090810291909101810151518951604080516001600160a01b03909616865292850193909352838201526060830191909152519081900360800190a15050506001016136f8565b50605554603754600160a01b900460ff1615613ebb576000613e9b614cc9565b613ea58488614519565b91509150613eb68160000151614534565b925050505b60005b8651811015614131576000878281518110613ed557fe5b6020908102919091018101516001600160a01b038116600090815260569092526040909120805460019091015491925090613f0e614cc9565b865160009015613fce5760008a8781518110613f2657fe5b6020026020010151600001511115613f8957613f558a8781518110613f4757fe5b602002602001015189614740565b92509050613f638783614763565b6001600160a01b0386166000908152605660205260408120918255600190910155613fc9565b613f98898781518110613f4757fe5b92509050613fa68783614763565b6001600160a01b0386166000908152605660205260408120600181019290925590555b613fef565b6001600160a01b038516600090815260566020526040812060018101829055555b81516001600160a01b038616600081815260566020908152604091829020805460019091015483519485529184018c9052838301949094526060830193909352608082019290925290517f2d0a046e2caddc2b9944fad523cdb42eeef62cd1f88a134ee4663c80d58ef9e29181900360a00190a16001600160a01b03851660008181526056602090815260409182902054825193845290830187905282820152436060830152517fceeb4301c137f855dbeb32ef25b069995662ef3fa12fd7c698c74aa872c2546e9181900360800190a16001600160a01b03851660008181526056602090815260409182902060010154825193845290830186905282820152436060830152517f02545f2f6f97091236978cc7101e8ba295a94bdb80e4f0f9c4bfbeafbd3bf1b89181900360800190a1505060019093019250613ebe915050565b5061413a61478b565b614183576040805162461bcd60e51b8152602060048201526015602482015274155c19185d1a5b99c810d31bd8dac811985a5b1959605a1b604482015290519081900360640190fd5b505050505050565b600190565b303b1590565b600083830182858210156141eb5760405162461bcd60e51b81526020600482018181528351602484015283519092839260449091019190850190808383600083156134aa578181015183820152602001613492565b50949350505050565b600061162a83836040518060400160405280601781526020017f6d756c7469706c69636174696f6e206f766572666c6f77000000000000000000815250614888565b61423e614cc9565b604051806020016040528061426b614265866ec097ce7bc90715b34b9f10000000006141f4565b856148fe565b90529392505050565b61427c614cc9565b604051806020016040528061426b85600001518560000151614931565b6000805b6039548110156142ea576000603982815481106142b657fe5b6000918252602090912001546001600160a01b031690506142d6816129a9565b506142e081612e62565b505060010161429d565b506001905090565b5190511190565b6000614303614cc9565b60008061431886600001518660000151614967565b6040805160208101909152908152909450925050505b9250929050565b600061433f614cc9565b60008061435086600001518661498a565b9092509050600082600381111561436357fe5b146143825750604080516020810190915260008152909250905061432e565b60408051602081019091529081526000969095509350505050565b6000806143e084846040518060400160405280601a81526020017f446563696d616c73206164646974696f6e206f766572666c6f77000000000000815250614196565b9050600080601883106144465760006144138460186040518060600160405280602e8152602001614d33602e9139613456565b905080600a0a925061443e8884604051806060016040528060328152602001614da7603291396149c9565b91505061449b565b600061446c6018856040518060600160405280602f8152602001615117602f9139613456565b905080600a0a925061449788846040518060600160405280603881526020016151cd60389139614888565b9150505b6040805188815260208101889052808201879052606081018590526080810184905260a0810183905290517f30a0b12009e9070c500b3df0a206a883d9d8ac7b4d5c09498e5dd7c0d11a645d9181900360c00190a19695505050505050565b6000614504614cc9565b60008061431886600001518660000151614a2b565b6000614523614cc9565b600080614350866000015186614a51565b6055546036546035546040805163b3596f0760e01b81526001600160a01b0392831660048201529051600094938593169163b3596f07916024808301926020929190829003018186803b15801561458a57600080fd5b505afa15801561459e573d6000803e3d6000fd5b505050506040513d60208110156145b457600080fd5b50516055549091506000906145ca9083906141f4565b604080516020810190915260385481529091506000906145eb908790614763565b90506000614612878360405180606001604052806027815260200161514660279139614196565b90508315806146215750808311155b15614691576055546040805191825260208201879052818101869052606082018590526080820189905260a0820184905260c08201839052517fb193e798a428f589d26c41c53fee578eb242c6090f5193e6188bc323fdcc3cb39181900360e00190a18495505050505050610984565b6146d181856040518060400160405280601d81526020017f4d6178205370656564206469766973696f6e2067617665206572726f720000008152506149c9565b605554604080519182526020820183905281810187905260608201869052608082018a905260a0820185905260c08201849052519196507fb193e798a428f589d26c41c53fee578eb242c6090f5193e6188bc323fdcc3cb3919081900360e00190a18495505050505050610984565b600061474a614cc9565b835183516147589190614a7c565b915091509250929050565b6000670de0b6b3a764000061477c8484600001516141f4565b8161478357fe5b049392505050565b6054546000906001600160e01b0316601714156147b757605480546001600160e01b0319169055614825565b60545460408051808201909152601a81527f637572436c6f636b203a204164646974696f6e204661696c65640000000000006020820152614804916001600160e01b031690600190614196565b605480546001600160e01b0319166001600160e01b03929092169190911790555b6054547f1f5c4f82a071a103f9b71cad79752570e576a18239107229bd7679cc8594c354906001600160e01b031661485b610c29565b604080516001600160e01b03909316835263ffffffff90911660208301528051918290030190a150600190565b6000831580614895575082155b156148a25750600061162a565b838302838582816148af57fe5b041483906141eb5760405162461bcd60e51b81526020600482018181528351602484015283519092839260449091019190850190808383600083156134aa578181015183820152602001613492565b600061162a83836040518060400160405280600e81526020016d646976696465206279207a65726f60901b8152506149c9565b600061162a8383604051806040016040528060118152602001706164646974696f6e206f766572666c6f7760781b815250614196565b60008083831161497e57506000905081830361432e565b5060039050600061432e565b6000808361499d5750600090508061432e565b838302838582816149aa57fe5b04146149be5750600291506000905061432e565b60009250905061432e565b60008183614a185760405162461bcd60e51b81526020600482018181528351602484015283519092839260449091019190850190808383600083156134aa578181015183820152602001613492565b50828481614a2257fe5b04949350505050565b600080838301848110614a435760009250905061432e565b50600291506000905061432e565b60008082614a65575060019050600061432e565b6000838581614a7057fe5b04915091509250929050565b6000614a86614cc9565b600080614a9b86670de0b6b3a764000061498a565b90925090506000826003811115614aae57fe5b14614acd5750604080516020810190915260008152909250905061432e565b600080614ada8388614a51565b90925090506000826003811115614aed57fe5b14614b0f5750604080516020810190915260008152909450925061432e915050565b604080516020810190915290815260009890975095505050505050565b6040518061030001604052806018906020820280388339509192915050565b8260188101928215614b79579160200282015b82811115614b79578251825591602001919060010190614b5e565b50614b85929150614cdc565b5090565b828054600181600116156101000203166002900490600052602060002090601f016020900481019282601f10614bca57805160ff1916838001178555614b79565b82800160010185558215614b795791820182811115614b79578251825591602001919060010190614b5e565b6040518061012001604052806000151581526020016060815260200160006001600160a01b0316815260200160008152602001600015158152602001600081526020016000815260200160008152602001600081525090565b8154818355818111156121e8576000838152602090206121e8918101908301614cdc565b50805460018160011615610100020316600290046000825580601f10614c995750614cb7565b601f016020900490600052602060002090810190614cb79190614cdc565b50565b50614cb7906018810190614cdc565b6040518060200160405280600081525090565b61093a91905b80821115614b855760008155600101614ce256fe546865206e65772050726f6669742050657263656e74616765206d7573742062652067726561746572207468616e20302e3031653138202831252920446563696d616c73207375627472616374696f6e20286578747261446563696d616c732920756e646572666c6f77496e737472756d656e74206e6f742070726f7065726c792072656d6f7665642066726f6d20746865206c697374206f6620696e737472756d656e747320737570706f727465644c6f737320416d6f756e74204469766973696f6e20746f2061646a75737420666f7220646563696d616c73206661696c65645468697320696e737472756d656e74206973206e6f7420737570706f72746564206279205349474820446973747269627574696f6e2048616e646c657252656672657368205349474820537065656473203a205375627472616374696f6e20756e646572666c6f7720666f7220626c6f636b73496e737472756d656e7420616c726561647920636f766572656420756e646572205349474820446973747269627574696f6e204d656368616e69736d537570706c696572207370656564206164646974696f6e2077697468207374616b696e67207370656564206f766572666c6f775468652063616c6c6572206d75737420626520746865204c656e64696e6720706f6f6c20436f726520636f6e7472616374496e737472756d656e7420616c7265616479206e6f7420737570706f7274656420627920746865205349474820446973747269627574696f6e204d656368616e69736d5468652063616c6c6572206d7573742062652074686520534947482046696e616e61636520436f6e666967757261746f7220436f6e74726163747265667265736853494748537065656473496e7465726e616c203a204f7261636c652072657475726e656420496e76616c6964205072696365546865206e657720537570706c69657220526174696f206d757374206265206c657373207468616e20316531382028313030252944656c7461426c6f636b7320726573756c74656420696e20556e646572666c6f775570646174696e67205369676820537570706c7920496e6465786573206f7065726174696f6e206661696c6564546869732066756e6374696f6e2063616e206f6e6c792062652063616c6c65642062792074686520496e737472756d656e7427732049546f6b656e20436f6e747261637475706461746553494748426f72726f77496e646578203a20426c6f636b205375627472616374696f6e20556e646572666c6f775570646174696e6720496e737472756d656e7420496e6465786573204661696c6564436f6e747261637420696e7374616e63652068617320616c7265616479206265656e20696e697469616c697a65644661696c656420746f207472616e736665722061636375726564205349474820746f2074686520757365722e446563696d616c73207375627472616374696f6e20286e6565646564446563696d616c732920756e646572666c6f77506f74656e7469616c206c6f73736573206164646974696f6e2067617665206f766572666c6f775570646174696e67205369676820426f72726f7720496e6465786573206f7065726174696f6e206661696c656475706461746553494748537570706c79496e646578203a20426c6f636b205375627472616374696f6e20556e646572666c6f774c6f737320416d6f756e74204d756c7469706c69636174696f6e20746f2061646a75737420666f7220646563696d616c73206661696c6564496e737472756d656e74206e6f7420737570706f727465642e00000000000000a265627a7a7231582044438537dd638965fcfe53f27dd181184c694ce4fa439b9647b6780ba1b8a24664736f6c63430005110032",
			"opcodes": "PUSH1 0x0 DUP1 DUP1 SSTORE PUSH1 0x37 DUP1 SLOAD PUSH1 0xFF PUSH1 0xA0 SHL NOT AND SWAP1 SSTORE PUSH1 0xA0 PUSH1 0x40 MSTORE PUSH1 0x80 DUP2 SWAP1 MSTORE PUSH1 0x38 SSTORE PUSH1 0x1 PUSH1 0x57 SSTORE CALLVALUE DUP1 ISZERO PUSH2 0x2F JUMPI PUSH1 0x0 DUP1 REVERT JUMPDEST POP PUSH2 0x5259 DUP1 PUSH2 0x3F PUSH1 0x0 CODECOPY PUSH1 0x0 RETURN INVALID PUSH1 0x80 PUSH1 0x40 MSTORE CALLVALUE DUP1 ISZERO PUSH2 0x10 JUMPI PUSH1 0x0 DUP1 REVERT JUMPDEST POP PUSH1 0x4 CALLDATASIZE LT PUSH2 0x21C JUMPI PUSH1 0x0 CALLDATALOAD PUSH1 0xE0 SHR DUP1 PUSH4 0x7C52B668 GT PUSH2 0x125 JUMPI DUP1 PUSH4 0xBF1678F6 GT PUSH2 0xAD JUMPI DUP1 PUSH4 0xC72C4D10 GT PUSH2 0x7C JUMPI DUP1 PUSH4 0xC72C4D10 EQ PUSH2 0x6EB JUMPI DUP1 PUSH4 0xD6357063 EQ PUSH2 0x6F3 JUMPI DUP1 PUSH4 0xEEABE79F EQ PUSH2 0x719 JUMPI DUP1 PUSH4 0xF9665D44 EQ PUSH2 0x721 JUMPI DUP1 PUSH4 0xFFFFD7FB EQ PUSH2 0x74F JUMPI PUSH2 0x21C JUMP JUMPDEST DUP1 PUSH4 0xBF1678F6 EQ PUSH2 0x68F JUMPI DUP1 PUSH4 0xC3D1B72D EQ PUSH2 0x697 JUMPI DUP1 PUSH4 0xC4D66DE8 EQ PUSH2 0x6BD JUMPI DUP1 PUSH4 0xC6A6BFB1 EQ PUSH2 0x6E3 JUMPI PUSH2 0x21C JUMP JUMPDEST DUP1 PUSH4 0x832C6C90 GT PUSH2 0xF4 JUMPI DUP1 PUSH4 0x832C6C90 EQ PUSH2 0x5DA JUMPI DUP1 PUSH4 0x8D9CF864 EQ PUSH2 0x5FF JUMPI DUP1 PUSH4 0x8E26FC38 EQ PUSH2 0x625 JUMPI DUP1 PUSH4 0x9A717B24 EQ PUSH2 0x661 JUMPI DUP1 PUSH4 0xBE36810A EQ PUSH2 0x687 JUMPI PUSH2 0x21C JUMP JUMPDEST DUP1 PUSH4 0x7C52B668 EQ PUSH2 0x54A JUMPI DUP1 PUSH4 0x7C55CCB3 EQ PUSH2 0x570 JUMPI DUP1 PUSH4 0x7DC0D1D0 EQ PUSH2 0x57A JUMPI DUP1 PUSH4 0x831449DE EQ PUSH2 0x582 JUMPI PUSH2 0x21C JUMP JUMPDEST DUP1 PUSH4 0x42CBB15C GT PUSH2 0x1A8 JUMPI DUP1 PUSH4 0x4F78DEEF GT PUSH2 0x177 JUMPI DUP1 PUSH4 0x4F78DEEF EQ PUSH2 0x49D JUMPI DUP1 PUSH4 0x52BBE658 EQ PUSH2 0x4C3 JUMPI DUP1 PUSH4 0x570B39D0 EQ PUSH2 0x4F9 JUMPI DUP1 PUSH4 0x659F73C5 EQ PUSH2 0x501 JUMPI DUP1 PUSH4 0x6F610C50 EQ PUSH2 0x542 JUMPI PUSH2 0x21C JUMP JUMPDEST DUP1 PUSH4 0x42CBB15C EQ PUSH2 0x353 JUMPI DUP1 PUSH4 0x4DC54A38 EQ PUSH2 0x374 JUMPI DUP1 PUSH4 0x4DF859FD EQ PUSH2 0x44B JUMPI DUP1 PUSH4 0x4F425FBB EQ PUSH2 0x477 JUMPI PUSH2 0x21C JUMP JUMPDEST DUP1 PUSH4 0x1E7FAED9 GT PUSH2 0x1EF JUMPI DUP1 PUSH4 0x1E7FAED9 EQ PUSH2 0x2C5 JUMPI DUP1 PUSH4 0x21428A12 EQ PUSH2 0x2E2 JUMPI DUP1 PUSH4 0x2DF0F9A9 EQ PUSH2 0x2EA JUMPI DUP1 PUSH4 0x3E5EEE46 EQ PUSH2 0x307 JUMPI DUP1 PUSH4 0x3E955265 EQ PUSH2 0x34B JUMPI PUSH2 0x21C JUMP JUMPDEST DUP1 PUSH4 0x4C66321 EQ PUSH2 0x221 JUMPI DUP1 PUSH4 0xD7FF887 EQ PUSH2 0x261 JUMPI DUP1 PUSH4 0xEF9E9D7 EQ PUSH2 0x285 JUMPI DUP1 PUSH4 0x10FA61E6 EQ PUSH2 0x29F JUMPI JUMPDEST PUSH1 0x0 DUP1 REVERT JUMPDEST PUSH2 0x24D PUSH1 0x4 DUP1 CALLDATASIZE SUB PUSH1 0x40 DUP2 LT ISZERO PUSH2 0x237 JUMPI PUSH1 0x0 DUP1 REVERT JUMPDEST POP PUSH1 0x1 PUSH1 0x1 PUSH1 0xA0 SHL SUB DUP2 CALLDATALOAD AND SWAP1 PUSH1 0x20 ADD CALLDATALOAD PUSH2 0x775 JUMP JUMPDEST PUSH1 0x40 DUP1 MLOAD SWAP2 ISZERO ISZERO DUP3 MSTORE MLOAD SWAP1 DUP2 SWAP1 SUB PUSH1 0x20 ADD SWAP1 RETURN JUMPDEST PUSH2 0x269 PUSH2 0x927 JUMP JUMPDEST PUSH1 0x40 DUP1 MLOAD PUSH1 0x1 PUSH1 0x1 PUSH1 0xA0 SHL SUB SWAP1 SWAP3 AND DUP3 MSTORE MLOAD SWAP1 DUP2 SWAP1 SUB PUSH1 0x20 ADD SWAP1 RETURN JUMPDEST PUSH2 0x28D PUSH2 0x936 JUMP JUMPDEST PUSH1 0x40 DUP1 MLOAD SWAP2 DUP3 MSTORE MLOAD SWAP1 DUP2 SWAP1 SUB PUSH1 0x20 ADD SWAP1 RETURN JUMPDEST PUSH2 0x28D PUSH1 0x4 DUP1 CALLDATASIZE SUB PUSH1 0x20 DUP2 LT ISZERO PUSH2 0x2B5 JUMPI PUSH1 0x0 DUP1 REVERT JUMPDEST POP CALLDATALOAD PUSH1 0x1 PUSH1 0x1 PUSH1 0xA0 SHL SUB AND PUSH2 0x93D JUMP JUMPDEST PUSH2 0x24D PUSH1 0x4 DUP1 CALLDATASIZE SUB PUSH1 0x20 DUP2 LT ISZERO PUSH2 0x2DB JUMPI PUSH1 0x0 DUP1 REVERT JUMPDEST POP CALLDATALOAD PUSH2 0x989 JUMP JUMPDEST PUSH2 0x269 PUSH2 0xAB9 JUMP JUMPDEST PUSH2 0x24D PUSH1 0x4 DUP1 CALLDATASIZE SUB PUSH1 0x20 DUP2 LT ISZERO PUSH2 0x300 JUMPI PUSH1 0x0 DUP1 REVERT JUMPDEST POP CALLDATALOAD PUSH2 0xAC8 JUMP JUMPDEST PUSH2 0x32D PUSH1 0x4 DUP1 CALLDATASIZE SUB PUSH1 0x20 DUP2 LT ISZERO PUSH2 0x31D JUMPI PUSH1 0x0 DUP1 REVERT JUMPDEST POP CALLDATALOAD PUSH1 0x1 PUSH1 0x1 PUSH1 0xA0 SHL SUB AND PUSH2 0xBFB JUMP JUMPDEST PUSH1 0x40 DUP1 MLOAD SWAP4 DUP5 MSTORE PUSH1 0x20 DUP5 ADD SWAP3 SWAP1 SWAP3 MSTORE DUP3 DUP3 ADD MSTORE MLOAD SWAP1 DUP2 SWAP1 SUB PUSH1 0x60 ADD SWAP1 RETURN JUMPDEST PUSH2 0x28D PUSH2 0xC23 JUMP JUMPDEST PUSH2 0x35B PUSH2 0xC29 JUMP JUMPDEST PUSH1 0x40 DUP1 MLOAD PUSH4 0xFFFFFFFF SWAP1 SWAP3 AND DUP3 MSTORE MLOAD SWAP1 DUP2 SWAP1 SUB PUSH1 0x20 ADD SWAP1 RETURN JUMPDEST PUSH2 0x39A PUSH1 0x4 DUP1 CALLDATASIZE SUB PUSH1 0x20 DUP2 LT ISZERO PUSH2 0x38A JUMPI PUSH1 0x0 DUP1 REVERT JUMPDEST POP CALLDATALOAD PUSH1 0x1 PUSH1 0x1 PUSH1 0xA0 SHL SUB AND PUSH2 0xC2D JUMP JUMPDEST PUSH1 0x40 MLOAD DUP1 DUP1 PUSH1 0x20 ADD DUP8 PUSH1 0x1 PUSH1 0x1 PUSH1 0xA0 SHL SUB AND PUSH1 0x1 PUSH1 0x1 PUSH1 0xA0 SHL SUB AND DUP2 MSTORE PUSH1 0x20 ADD DUP7 DUP2 MSTORE PUSH1 0x20 ADD DUP6 ISZERO ISZERO ISZERO ISZERO DUP2 MSTORE PUSH1 0x20 ADD DUP5 DUP2 MSTORE PUSH1 0x20 ADD DUP4 DUP2 MSTORE PUSH1 0x20 ADD DUP3 DUP2 SUB DUP3 MSTORE DUP9 DUP2 DUP2 MLOAD DUP2 MSTORE PUSH1 0x20 ADD SWAP2 POP DUP1 MLOAD SWAP1 PUSH1 0x20 ADD SWAP1 DUP1 DUP4 DUP4 PUSH1 0x0 JUMPDEST DUP4 DUP2 LT ISZERO PUSH2 0x40B JUMPI DUP2 DUP2 ADD MLOAD DUP4 DUP3 ADD MSTORE PUSH1 0x20 ADD PUSH2 0x3F3 JUMP JUMPDEST POP POP POP POP SWAP1 POP SWAP1 DUP2 ADD SWAP1 PUSH1 0x1F AND DUP1 ISZERO PUSH2 0x438 JUMPI DUP1 DUP3 SUB DUP1 MLOAD PUSH1 0x1 DUP4 PUSH1 0x20 SUB PUSH2 0x100 EXP SUB NOT AND DUP2 MSTORE PUSH1 0x20 ADD SWAP2 POP JUMPDEST POP SWAP8 POP POP POP POP POP POP POP POP PUSH1 0x40 MLOAD DUP1 SWAP2 SUB SWAP1 RETURN JUMPDEST PUSH2 0x28D PUSH1 0x4 DUP1 CALLDATASIZE SUB PUSH1 0x40 DUP2 LT ISZERO PUSH2 0x461 JUMPI PUSH1 0x0 DUP1 REVERT JUMPDEST POP PUSH1 0x1 PUSH1 0x1 PUSH1 0xA0 SHL SUB DUP2 CALLDATALOAD AND SWAP1 PUSH1 0x20 ADD CALLDATALOAD PUSH2 0xD1B JUMP JUMPDEST PUSH2 0x24D PUSH1 0x4 DUP1 CALLDATASIZE SUB PUSH1 0x20 DUP2 LT ISZERO PUSH2 0x48D JUMPI PUSH1 0x0 DUP1 REVERT JUMPDEST POP CALLDATALOAD PUSH1 0x1 PUSH1 0x1 PUSH1 0xA0 SHL SUB AND PUSH2 0xD47 JUMP JUMPDEST PUSH2 0x24D PUSH1 0x4 DUP1 CALLDATASIZE SUB PUSH1 0x20 DUP2 LT ISZERO PUSH2 0x4B3 JUMPI PUSH1 0x0 DUP1 REVERT JUMPDEST POP CALLDATALOAD PUSH1 0x1 PUSH1 0x1 PUSH1 0xA0 SHL SUB AND PUSH2 0xE3A JUMP JUMPDEST PUSH2 0x24D PUSH1 0x4 DUP1 CALLDATASIZE SUB PUSH1 0x60 DUP2 LT ISZERO PUSH2 0x4D9 JUMPI PUSH1 0x0 DUP1 REVERT JUMPDEST POP PUSH1 0x1 PUSH1 0x1 PUSH1 0xA0 SHL SUB DUP2 CALLDATALOAD DUP2 AND SWAP2 PUSH1 0x20 DUP2 ADD CALLDATALOAD SWAP1 SWAP2 AND SWAP1 PUSH1 0x40 ADD CALLDATALOAD PUSH2 0x1115 JUMP JUMPDEST PUSH2 0x28D PUSH2 0x1631 JUMP JUMPDEST PUSH2 0x509 PUSH2 0x1637 JUMP JUMPDEST PUSH1 0x40 MLOAD DUP1 DUP3 PUSH2 0x300 DUP1 DUP4 DUP4 PUSH1 0x0 JUMPDEST DUP4 DUP2 LT ISZERO PUSH2 0x52F JUMPI DUP2 DUP2 ADD MLOAD DUP4 DUP3 ADD MSTORE PUSH1 0x20 ADD PUSH2 0x517 JUMP JUMPDEST POP POP POP POP SWAP1 POP ADD SWAP2 POP POP PUSH1 0x40 MLOAD DUP1 SWAP2 SUB SWAP1 RETURN JUMPDEST PUSH2 0x28D PUSH2 0x1674 JUMP JUMPDEST PUSH2 0x24D PUSH1 0x4 DUP1 CALLDATASIZE SUB PUSH1 0x20 DUP2 LT ISZERO PUSH2 0x560 JUMPI PUSH1 0x0 DUP1 REVERT JUMPDEST POP CALLDATALOAD PUSH1 0x1 PUSH1 0x1 PUSH1 0xA0 SHL SUB AND PUSH2 0x16AB JUMP JUMPDEST PUSH2 0x578 PUSH2 0x1796 JUMP JUMPDEST STOP JUMPDEST PUSH2 0x269 PUSH2 0x1855 JUMP JUMPDEST PUSH2 0x58A PUSH2 0x1864 JUMP JUMPDEST PUSH1 0x40 DUP1 MLOAD PUSH1 0x20 DUP1 DUP3 MSTORE DUP4 MLOAD DUP2 DUP4 ADD MSTORE DUP4 MLOAD SWAP2 SWAP3 DUP4 SWAP3 SWAP1 DUP4 ADD SWAP2 DUP6 DUP2 ADD SWAP2 MUL DUP1 DUP4 DUP4 PUSH1 0x0 JUMPDEST DUP4 DUP2 LT ISZERO PUSH2 0x5C6 JUMPI DUP2 DUP2 ADD MLOAD DUP4 DUP3 ADD MSTORE PUSH1 0x20 ADD PUSH2 0x5AE JUMP JUMPDEST POP POP POP POP SWAP1 POP ADD SWAP3 POP POP POP PUSH1 0x40 MLOAD DUP1 SWAP2 SUB SWAP1 RETURN JUMPDEST PUSH2 0x24D PUSH1 0x4 DUP1 CALLDATASIZE SUB PUSH1 0x40 DUP2 LT ISZERO PUSH2 0x5F0 JUMPI PUSH1 0x0 DUP1 REVERT JUMPDEST POP DUP1 CALLDATALOAD ISZERO ISZERO SWAP1 PUSH1 0x20 ADD CALLDATALOAD PUSH2 0x18C5 JUMP JUMPDEST PUSH2 0x35B PUSH1 0x4 DUP1 CALLDATASIZE SUB PUSH1 0x20 DUP2 LT ISZERO PUSH2 0x615 JUMPI PUSH1 0x0 DUP1 REVERT JUMPDEST POP CALLDATALOAD PUSH1 0x1 PUSH1 0x1 PUSH1 0xA0 SHL SUB AND PUSH2 0x1AC2 JUMP JUMPDEST PUSH2 0x28D PUSH1 0x4 DUP1 CALLDATASIZE SUB PUSH1 0x80 DUP2 LT ISZERO PUSH2 0x63B JUMPI PUSH1 0x0 DUP1 REVERT JUMPDEST POP PUSH1 0x1 PUSH1 0x1 PUSH1 0xA0 SHL SUB DUP2 CALLDATALOAD DUP2 AND SWAP2 PUSH1 0x20 DUP2 ADD CALLDATALOAD DUP3 AND SWAP2 PUSH1 0x40 DUP3 ADD CALLDATALOAD AND SWAP1 PUSH1 0x60 ADD CALLDATALOAD PUSH2 0x1AE6 JUMP JUMPDEST PUSH2 0x28D PUSH1 0x4 DUP1 CALLDATASIZE SUB PUSH1 0x20 DUP2 LT ISZERO PUSH2 0x677 JUMPI PUSH1 0x0 DUP1 REVERT JUMPDEST POP CALLDATALOAD PUSH1 0x1 PUSH1 0x1 PUSH1 0xA0 SHL SUB AND PUSH2 0x2011 JUMP JUMPDEST PUSH2 0x28D PUSH2 0x2054 JUMP JUMPDEST PUSH2 0x24D PUSH2 0x205A JUMP JUMPDEST PUSH2 0x24D PUSH1 0x4 DUP1 CALLDATASIZE SUB PUSH1 0x20 DUP2 LT ISZERO PUSH2 0x6AD JUMPI PUSH1 0x0 DUP1 REVERT JUMPDEST POP CALLDATALOAD PUSH1 0x1 PUSH1 0x1 PUSH1 0xA0 SHL SUB AND PUSH2 0x20AF JUMP JUMPDEST PUSH2 0x578 PUSH1 0x4 DUP1 CALLDATASIZE SUB PUSH1 0x20 DUP2 LT ISZERO PUSH2 0x6D3 JUMPI PUSH1 0x0 DUP1 REVERT JUMPDEST POP CALLDATALOAD PUSH1 0x1 PUSH1 0x1 PUSH1 0xA0 SHL SUB AND PUSH2 0x20CD JUMP JUMPDEST PUSH2 0x28D PUSH2 0x21ED JUMP JUMPDEST PUSH2 0x269 PUSH2 0x226F JUMP JUMPDEST PUSH2 0x509 PUSH1 0x4 DUP1 CALLDATASIZE SUB PUSH1 0x20 DUP2 LT ISZERO PUSH2 0x709 JUMPI PUSH1 0x0 DUP1 REVERT JUMPDEST POP CALLDATALOAD PUSH1 0x1 PUSH1 0x1 PUSH1 0xA0 SHL SUB AND PUSH2 0x227E JUMP JUMPDEST PUSH2 0x28D PUSH2 0x22D1 JUMP JUMPDEST PUSH2 0x24D PUSH1 0x4 DUP1 CALLDATASIZE SUB PUSH1 0x40 DUP2 LT ISZERO PUSH2 0x737 JUMPI PUSH1 0x0 DUP1 REVERT JUMPDEST POP PUSH1 0x1 PUSH1 0x1 PUSH1 0xA0 SHL SUB DUP2 CALLDATALOAD DUP2 AND SWAP2 PUSH1 0x20 ADD CALLDATALOAD AND PUSH2 0x22D7 JUMP JUMPDEST PUSH2 0x24D PUSH1 0x4 DUP1 CALLDATASIZE SUB PUSH1 0x20 DUP2 LT ISZERO PUSH2 0x765 JUMPI PUSH1 0x0 DUP1 REVERT JUMPDEST POP CALLDATALOAD PUSH1 0x1 PUSH1 0x1 PUSH1 0xA0 SHL SUB AND PUSH2 0x270A JUMP JUMPDEST PUSH1 0x0 CALLER PUSH1 0x1 PUSH1 0x1 PUSH1 0xA0 SHL SUB AND PUSH1 0x34 PUSH1 0x0 SWAP1 SLOAD SWAP1 PUSH2 0x100 EXP SWAP1 DIV PUSH1 0x1 PUSH1 0x1 PUSH1 0xA0 SHL SUB AND PUSH1 0x1 PUSH1 0x1 PUSH1 0xA0 SHL SUB AND PUSH4 0xDB49224B PUSH1 0x40 MLOAD DUP2 PUSH4 0xFFFFFFFF AND PUSH1 0xE0 SHL DUP2 MSTORE PUSH1 0x4 ADD PUSH1 0x20 PUSH1 0x40 MLOAD DUP1 DUP4 SUB DUP2 DUP7 DUP1 EXTCODESIZE ISZERO DUP1 ISZERO PUSH2 0x7CF JUMPI PUSH1 0x0 DUP1 REVERT JUMPDEST POP GAS STATICCALL ISZERO DUP1 ISZERO PUSH2 0x7E3 JUMPI RETURNDATASIZE PUSH1 0x0 DUP1 RETURNDATACOPY RETURNDATASIZE PUSH1 0x0 REVERT JUMPDEST POP POP POP POP PUSH1 0x40 MLOAD RETURNDATASIZE PUSH1 0x20 DUP2 LT ISZERO PUSH2 0x7F9 JUMPI PUSH1 0x0 DUP1 REVERT JUMPDEST POP MLOAD PUSH1 0x1 PUSH1 0x1 PUSH1 0xA0 SHL SUB AND EQ PUSH2 0x840 JUMPI PUSH1 0x40 MLOAD PUSH3 0x461BCD PUSH1 0xE5 SHL DUP2 MSTORE PUSH1 0x4 ADD DUP1 DUP1 PUSH1 0x20 ADD DUP3 DUP2 SUB DUP3 MSTORE PUSH1 0x3A DUP2 MSTORE PUSH1 0x20 ADD DUP1 PUSH2 0x4F2F PUSH1 0x3A SWAP2 CODECOPY PUSH1 0x40 ADD SWAP2 POP POP PUSH1 0x40 MLOAD DUP1 SWAP2 SUB SWAP1 REVERT JUMPDEST PUSH1 0x1 PUSH1 0x1 PUSH1 0xA0 SHL SUB DUP4 AND PUSH1 0x0 SWAP1 DUP2 MSTORE PUSH1 0x3A PUSH1 0x20 MSTORE PUSH1 0x40 SWAP1 KECCAK256 SLOAD PUSH1 0xFF AND PUSH2 0x89B JUMPI PUSH1 0x40 DUP1 MLOAD PUSH3 0x461BCD PUSH1 0xE5 SHL DUP2 MSTORE PUSH1 0x20 PUSH1 0x4 DUP3 ADD MSTORE PUSH1 0x19 PUSH1 0x24 DUP3 ADD MSTORE PUSH1 0x0 DUP1 MLOAD PUSH1 0x20 PUSH2 0x5205 DUP4 CODECOPY DUP2 MLOAD SWAP2 MSTORE PUSH1 0x44 DUP3 ADD MSTORE SWAP1 MLOAD SWAP1 DUP2 SWAP1 SUB PUSH1 0x64 ADD SWAP1 REVERT JUMPDEST PUSH1 0x1 PUSH1 0x1 PUSH1 0xA0 SHL SUB DUP4 AND PUSH1 0x0 SWAP1 DUP2 MSTORE PUSH1 0x56 PUSH1 0x20 MSTORE PUSH1 0x40 SWAP1 KECCAK256 PUSH1 0x2 ADD DUP1 SLOAD SWAP1 DUP4 SWAP1 SSTORE PUSH32 0x60AB6BB8F64F97A68E803DC67F55F0A08732FE0DB1E669B39F3B45DD35D9580D DUP5 DUP3 DUP6 PUSH2 0x8E8 PUSH2 0xC29 JUMP JUMPDEST PUSH1 0x40 DUP1 MLOAD PUSH1 0x1 PUSH1 0x1 PUSH1 0xA0 SHL SUB SWAP1 SWAP6 AND DUP6 MSTORE PUSH1 0x20 DUP6 ADD SWAP4 SWAP1 SWAP4 MSTORE DUP4 DUP4 ADD SWAP2 SWAP1 SWAP2 MSTORE PUSH4 0xFFFFFFFF AND PUSH1 0x60 DUP4 ADD MSTORE MLOAD SWAP1 DUP2 SWAP1 SUB PUSH1 0x80 ADD SWAP1 LOG1 POP PUSH1 0x1 SWAP4 SWAP3 POP POP POP JUMP JUMPDEST PUSH1 0x37 SLOAD PUSH1 0x1 PUSH1 0x1 PUSH1 0xA0 SHL SUB AND DUP2 JUMP JUMPDEST PUSH1 0x38 SLOAD JUMPDEST SWAP1 JUMP JUMPDEST PUSH1 0x1 PUSH1 0x1 PUSH1 0xA0 SHL SUB DUP2 AND PUSH1 0x0 SWAP1 DUP2 MSTORE PUSH1 0x3A PUSH1 0x20 MSTORE PUSH1 0x40 DUP2 KECCAK256 SLOAD PUSH1 0xFF AND ISZERO PUSH2 0x980 JUMPI POP PUSH1 0x1 PUSH1 0x1 PUSH1 0xA0 SHL SUB DUP2 AND PUSH1 0x0 SWAP1 DUP2 MSTORE PUSH1 0x3A PUSH1 0x20 MSTORE PUSH1 0x40 SWAP1 KECCAK256 PUSH1 0x7 ADD SLOAD PUSH2 0x984 JUMP JUMPDEST POP PUSH1 0x0 JUMPDEST SWAP2 SWAP1 POP JUMP JUMPDEST PUSH1 0x0 CALLER PUSH1 0x1 PUSH1 0x1 PUSH1 0xA0 SHL SUB AND PUSH1 0x34 PUSH1 0x0 SWAP1 SLOAD SWAP1 PUSH2 0x100 EXP SWAP1 DIV PUSH1 0x1 PUSH1 0x1 PUSH1 0xA0 SHL SUB AND PUSH1 0x1 PUSH1 0x1 PUSH1 0xA0 SHL SUB AND PUSH4 0xDB49224B PUSH1 0x40 MLOAD DUP2 PUSH4 0xFFFFFFFF AND PUSH1 0xE0 SHL DUP2 MSTORE PUSH1 0x4 ADD PUSH1 0x20 PUSH1 0x40 MLOAD DUP1 DUP4 SUB DUP2 DUP7 DUP1 EXTCODESIZE ISZERO DUP1 ISZERO PUSH2 0x9E3 JUMPI PUSH1 0x0 DUP1 REVERT JUMPDEST POP GAS STATICCALL ISZERO DUP1 ISZERO PUSH2 0x9F7 JUMPI RETURNDATASIZE PUSH1 0x0 DUP1 RETURNDATACOPY RETURNDATASIZE PUSH1 0x0 REVERT JUMPDEST POP POP POP POP PUSH1 0x40 MLOAD RETURNDATASIZE PUSH1 0x20 DUP2 LT ISZERO PUSH2 0xA0D JUMPI PUSH1 0x0 DUP1 REVERT JUMPDEST POP MLOAD PUSH1 0x1 PUSH1 0x1 PUSH1 0xA0 SHL SUB AND EQ PUSH2 0xA54 JUMPI PUSH1 0x40 MLOAD PUSH3 0x461BCD PUSH1 0xE5 SHL DUP2 MSTORE PUSH1 0x4 ADD DUP1 DUP1 PUSH1 0x20 ADD DUP3 DUP2 SUB DUP3 MSTORE PUSH1 0x3A DUP2 MSTORE PUSH1 0x20 ADD DUP1 PUSH2 0x4F2F PUSH1 0x3A SWAP2 CODECOPY PUSH1 0x40 ADD SWAP2 POP POP PUSH1 0x40 MLOAD DUP1 SWAP2 SUB SWAP1 REVERT JUMPDEST PUSH2 0xA5C PUSH2 0x205A JUMP JUMPDEST POP PUSH1 0x57 DUP1 SLOAD SWAP1 DUP4 SWAP1 SSTORE PUSH32 0x8574A512A3537F7F97E2C60304507AA6816866C2D1FED5FFA1815CB01D2B1E44 DUP2 DUP5 PUSH2 0xA90 PUSH2 0xC29 JUMP JUMPDEST PUSH1 0x40 DUP1 MLOAD SWAP4 DUP5 MSTORE PUSH1 0x20 DUP5 ADD SWAP3 SWAP1 SWAP3 MSTORE PUSH4 0xFFFFFFFF AND DUP3 DUP3 ADD MSTORE MLOAD SWAP1 DUP2 SWAP1 SUB PUSH1 0x60 ADD SWAP1 LOG1 POP SWAP2 SWAP1 POP JUMP JUMPDEST PUSH1 0x35 SLOAD PUSH1 0x1 PUSH1 0x1 PUSH1 0xA0 SHL SUB AND DUP2 JUMP JUMPDEST PUSH1 0x0 CALLER PUSH1 0x1 PUSH1 0x1 PUSH1 0xA0 SHL SUB AND PUSH1 0x34 PUSH1 0x0 SWAP1 SLOAD SWAP1 PUSH2 0x100 EXP SWAP1 DIV PUSH1 0x1 PUSH1 0x1 PUSH1 0xA0 SHL SUB AND PUSH1 0x1 PUSH1 0x1 PUSH1 0xA0 SHL SUB AND PUSH4 0xDB49224B PUSH1 0x40 MLOAD DUP2 PUSH4 0xFFFFFFFF AND PUSH1 0xE0 SHL DUP2 MSTORE PUSH1 0x4 ADD PUSH1 0x20 PUSH1 0x40 MLOAD DUP1 DUP4 SUB DUP2 DUP7 DUP1 EXTCODESIZE ISZERO DUP1 ISZERO PUSH2 0xB22 JUMPI PUSH1 0x0 DUP1 REVERT JUMPDEST POP GAS STATICCALL ISZERO DUP1 ISZERO PUSH2 0xB36 JUMPI RETURNDATASIZE PUSH1 0x0 DUP1 RETURNDATACOPY RETURNDATASIZE PUSH1 0x0 REVERT JUMPDEST POP POP POP POP PUSH1 0x40 MLOAD RETURNDATASIZE PUSH1 0x20 DUP2 LT ISZERO PUSH2 0xB4C JUMPI PUSH1 0x0 DUP1 REVERT JUMPDEST POP MLOAD PUSH1 0x1 PUSH1 0x1 PUSH1 0xA0 SHL SUB AND EQ PUSH2 0xB93 JUMPI PUSH1 0x40 MLOAD PUSH3 0x461BCD PUSH1 0xE5 SHL DUP2 MSTORE PUSH1 0x4 ADD DUP1 DUP1 PUSH1 0x20 ADD DUP3 DUP2 SUB DUP3 MSTORE PUSH1 0x3A DUP2 MSTORE PUSH1 0x20 ADD DUP1 PUSH2 0x4F2F PUSH1 0x3A SWAP2 CODECOPY PUSH1 0x40 ADD SWAP2 POP POP PUSH1 0x40 MLOAD DUP1 SWAP2 SUB SWAP1 REVERT JUMPDEST PUSH2 0xB9B PUSH2 0x205A JUMP JUMPDEST POP PUSH1 0x55 DUP1 SLOAD SWAP1 DUP4 SWAP1 SSTORE PUSH32 0xB35AE78D38C9AD12FEAB06BFA59B6D4364D33E312F0E00FFB1776F0C60E5FF7A DUP2 DUP5 PUSH2 0xBCF PUSH2 0xC29 JUMP JUMPDEST PUSH1 0x40 DUP1 MLOAD SWAP4 DUP5 MSTORE PUSH1 0x20 DUP5 ADD SWAP3 SWAP1 SWAP3 MSTORE PUSH4 0xFFFFFFFF AND DUP3 DUP3 ADD MSTORE MLOAD SWAP1 DUP2 SWAP1 SUB PUSH1 0x60 ADD SWAP1 LOG1 POP PUSH1 0x1 SWAP3 SWAP2 POP POP JUMP JUMPDEST PUSH1 0x1 PUSH1 0x1 PUSH1 0xA0 SHL SUB AND PUSH1 0x0 SWAP1 DUP2 MSTORE PUSH1 0x56 PUSH1 0x20 MSTORE PUSH1 0x40 SWAP1 KECCAK256 DUP1 SLOAD PUSH1 0x1 DUP3 ADD SLOAD PUSH1 0x2 SWAP1 SWAP3 ADD SLOAD SWAP1 SWAP3 JUMP JUMPDEST PUSH1 0x58 SLOAD SWAP1 JUMP JUMPDEST NUMBER SWAP1 JUMP JUMPDEST PUSH1 0x1 PUSH1 0x1 PUSH1 0xA0 SHL SUB DUP2 DUP2 AND PUSH1 0x0 SWAP1 DUP2 MSTORE PUSH1 0x3A PUSH1 0x20 SWAP1 DUP2 MSTORE PUSH1 0x40 DUP1 DUP4 KECCAK256 PUSH1 0x2 DUP1 DUP3 ADD SLOAD PUSH1 0x3 DUP4 ADD SLOAD PUSH1 0x4 DUP5 ADD SLOAD PUSH1 0x5 DUP6 ADD SLOAD PUSH1 0x7 DUP7 ADD SLOAD PUSH1 0x1 SWAP7 DUP8 ADD DUP1 SLOAD DUP10 MLOAD PUSH2 0x100 SWAP10 DUP3 AND ISZERO SWAP10 SWAP1 SWAP10 MUL PUSH1 0x0 NOT ADD AND SWAP7 SWAP1 SWAP7 DIV PUSH1 0x1F DUP2 ADD DUP11 SWAP1 DIV DUP11 MUL DUP9 ADD DUP11 ADD SWAP1 SWAP9 MSTORE DUP8 DUP8 MSTORE PUSH1 0x60 SWAP11 DUP11 SWAP10 DUP11 SWAP10 DUP11 SWAP10 DUP11 SWAP10 SWAP9 SWAP1 SWAP4 AND SWAP7 SWAP6 PUSH1 0xFF AND SWAP5 SWAP4 SWAP3 SWAP2 DUP9 SWAP2 SWAP1 DUP4 ADD DUP3 DUP3 DUP1 ISZERO PUSH2 0xCFF JUMPI DUP1 PUSH1 0x1F LT PUSH2 0xCD4 JUMPI PUSH2 0x100 DUP1 DUP4 SLOAD DIV MUL DUP4 MSTORE SWAP2 PUSH1 0x20 ADD SWAP2 PUSH2 0xCFF JUMP JUMPDEST DUP3 ADD SWAP2 SWAP1 PUSH1 0x0 MSTORE PUSH1 0x20 PUSH1 0x0 KECCAK256 SWAP1 JUMPDEST DUP2 SLOAD DUP2 MSTORE SWAP1 PUSH1 0x1 ADD SWAP1 PUSH1 0x20 ADD DUP1 DUP4 GT PUSH2 0xCE2 JUMPI DUP3 SWAP1 SUB PUSH1 0x1F AND DUP3 ADD SWAP2 JUMPDEST POP POP POP POP POP SWAP6 POP SWAP6 POP SWAP6 POP SWAP6 POP SWAP6 POP SWAP6 POP SWAP6 POP SWAP2 SWAP4 SWAP6 POP SWAP2 SWAP4 SWAP6 JUMP JUMPDEST PUSH1 0x1 PUSH1 0x1 PUSH1 0xA0 SHL SUB DUP3 AND PUSH1 0x0 SWAP1 DUP2 MSTORE PUSH1 0x3B PUSH1 0x20 MSTORE PUSH1 0x40 DUP2 KECCAK256 DUP3 PUSH1 0x18 DUP2 LT PUSH2 0xD3E JUMPI INVALID JUMPDEST ADD SLOAD SWAP4 SWAP3 POP POP POP JUMP JUMPDEST PUSH1 0x37 SLOAD PUSH1 0x0 SWAP1 PUSH1 0x1 PUSH1 0x1 PUSH1 0xA0 SHL SUB AND CALLER EQ PUSH2 0xD93 JUMPI PUSH1 0x40 MLOAD PUSH3 0x461BCD PUSH1 0xE5 SHL DUP2 MSTORE PUSH1 0x4 ADD DUP1 DUP1 PUSH1 0x20 ADD DUP3 DUP2 SUB DUP3 MSTORE PUSH1 0x31 DUP2 MSTORE PUSH1 0x20 ADD DUP1 PUSH2 0x4EBB PUSH1 0x31 SWAP2 CODECOPY PUSH1 0x40 ADD SWAP2 POP POP PUSH1 0x40 MLOAD DUP1 SWAP2 SUB SWAP1 REVERT JUMPDEST PUSH1 0x1 PUSH1 0x1 PUSH1 0xA0 SHL SUB DUP3 AND PUSH1 0x0 SWAP1 DUP2 MSTORE PUSH1 0x3A PUSH1 0x20 MSTORE PUSH1 0x40 SWAP1 KECCAK256 SLOAD PUSH1 0xFF AND PUSH2 0xDEE JUMPI PUSH1 0x40 DUP1 MLOAD PUSH3 0x461BCD PUSH1 0xE5 SHL DUP2 MSTORE PUSH1 0x20 PUSH1 0x4 DUP3 ADD MSTORE PUSH1 0x19 PUSH1 0x24 DUP3 ADD MSTORE PUSH1 0x0 DUP1 MLOAD PUSH1 0x20 PUSH2 0x5205 DUP4 CODECOPY DUP2 MLOAD SWAP2 MSTORE PUSH1 0x44 DUP3 ADD MSTORE SWAP1 MLOAD SWAP1 DUP2 SWAP1 SUB PUSH1 0x64 ADD SWAP1 REVERT JUMPDEST PUSH2 0xDF7 DUP3 PUSH2 0x29A9 JUMP JUMPDEST PUSH2 0xE32 JUMPI PUSH1 0x40 MLOAD PUSH3 0x461BCD PUSH1 0xE5 SHL DUP2 MSTORE PUSH1 0x4 ADD DUP1 DUP1 PUSH1 0x20 ADD DUP3 DUP2 SUB DUP3 MSTORE PUSH1 0x2D DUP2 MSTORE PUSH1 0x20 ADD DUP1 PUSH2 0x4FF7 PUSH1 0x2D SWAP2 CODECOPY PUSH1 0x40 ADD SWAP2 POP POP PUSH1 0x40 MLOAD DUP1 SWAP2 SUB SWAP1 REVERT JUMPDEST POP PUSH1 0x1 SWAP2 SWAP1 POP JUMP JUMPDEST PUSH1 0x0 CALLER PUSH1 0x1 PUSH1 0x1 PUSH1 0xA0 SHL SUB AND PUSH1 0x34 PUSH1 0x0 SWAP1 SLOAD SWAP1 PUSH2 0x100 EXP SWAP1 DIV PUSH1 0x1 PUSH1 0x1 PUSH1 0xA0 SHL SUB AND PUSH1 0x1 PUSH1 0x1 PUSH1 0xA0 SHL SUB AND PUSH4 0xDB49224B PUSH1 0x40 MLOAD DUP2 PUSH4 0xFFFFFFFF AND PUSH1 0xE0 SHL DUP2 MSTORE PUSH1 0x4 ADD PUSH1 0x20 PUSH1 0x40 MLOAD DUP1 DUP4 SUB DUP2 DUP7 DUP1 EXTCODESIZE ISZERO DUP1 ISZERO PUSH2 0xE94 JUMPI PUSH1 0x0 DUP1 REVERT JUMPDEST POP GAS STATICCALL ISZERO DUP1 ISZERO PUSH2 0xEA8 JUMPI RETURNDATASIZE PUSH1 0x0 DUP1 RETURNDATACOPY RETURNDATASIZE PUSH1 0x0 REVERT JUMPDEST POP POP POP POP PUSH1 0x40 MLOAD RETURNDATASIZE PUSH1 0x20 DUP2 LT ISZERO PUSH2 0xEBE JUMPI PUSH1 0x0 DUP1 REVERT JUMPDEST POP MLOAD PUSH1 0x1 PUSH1 0x1 PUSH1 0xA0 SHL SUB AND EQ PUSH2 0xF05 JUMPI PUSH1 0x40 MLOAD PUSH3 0x461BCD PUSH1 0xE5 SHL DUP2 MSTORE PUSH1 0x4 ADD DUP1 DUP1 PUSH1 0x20 ADD DUP3 DUP2 SUB DUP3 MSTORE PUSH1 0x3A DUP2 MSTORE PUSH1 0x20 ADD DUP1 PUSH2 0x4F2F PUSH1 0x3A SWAP2 CODECOPY PUSH1 0x40 ADD SWAP2 POP POP PUSH1 0x40 MLOAD DUP1 SWAP2 SUB SWAP1 REVERT JUMPDEST PUSH1 0x1 PUSH1 0x1 PUSH1 0xA0 SHL SUB DUP3 AND PUSH1 0x0 SWAP1 DUP2 MSTORE PUSH1 0x3A PUSH1 0x20 MSTORE PUSH1 0x40 SWAP1 KECCAK256 SLOAD PUSH1 0xFF AND PUSH2 0xF60 JUMPI PUSH1 0x40 DUP1 MLOAD PUSH3 0x461BCD PUSH1 0xE5 SHL DUP2 MSTORE PUSH1 0x20 PUSH1 0x4 DUP3 ADD MSTORE PUSH1 0x19 PUSH1 0x24 DUP3 ADD MSTORE PUSH1 0x0 DUP1 MLOAD PUSH1 0x20 PUSH2 0x5205 DUP4 CODECOPY DUP2 MLOAD SWAP2 MSTORE PUSH1 0x44 DUP3 ADD MSTORE SWAP1 MLOAD SWAP1 DUP2 SWAP1 SUB PUSH1 0x64 ADD SWAP1 REVERT JUMPDEST PUSH1 0x1 PUSH1 0x1 PUSH1 0xA0 SHL SUB DUP3 AND PUSH1 0x0 SWAP1 DUP2 MSTORE PUSH1 0x3A PUSH1 0x20 MSTORE PUSH1 0x40 SWAP1 KECCAK256 PUSH1 0x4 ADD SLOAD PUSH1 0xFF AND PUSH2 0xFBA JUMPI PUSH1 0x40 MLOAD PUSH3 0x461BCD PUSH1 0xE5 SHL DUP2 MSTORE PUSH1 0x4 ADD DUP1 DUP1 PUSH1 0x20 ADD DUP3 DUP2 SUB DUP3 MSTORE PUSH1 0x43 DUP2 MSTORE PUSH1 0x20 ADD DUP1 PUSH2 0x4EEC PUSH1 0x43 SWAP2 CODECOPY PUSH1 0x60 ADD SWAP2 POP POP PUSH1 0x40 MLOAD DUP1 SWAP2 SUB SWAP1 REVERT JUMPDEST PUSH2 0xFC2 PUSH2 0x205A JUMP JUMPDEST POP PUSH2 0xFCB PUSH2 0x4B2C JUMP JUMPDEST PUSH1 0x1 PUSH1 0x1 PUSH1 0xA0 SHL SUB DUP4 AND PUSH1 0x0 SWAP1 DUP2 MSTORE PUSH1 0x3B PUSH1 0x20 MSTORE PUSH1 0x40 SWAP1 KECCAK256 PUSH2 0xFEF SWAP1 DUP3 PUSH1 0x18 PUSH2 0x4B4B JUMP JUMPDEST POP PUSH1 0x1 PUSH1 0x1 PUSH1 0xA0 SHL SUB DUP4 AND PUSH1 0x0 SWAP1 DUP2 MSTORE PUSH1 0x3B PUSH1 0x20 SWAP1 DUP2 MSTORE PUSH1 0x40 DUP1 DUP4 KECCAK256 PUSH1 0x18 ADD DUP1 SLOAD PUSH4 0xFFFFFFFF NOT AND SWAP1 SSTORE PUSH1 0x3A SWAP1 SWAP2 MSTORE DUP2 KECCAK256 PUSH1 0x4 DUP2 ADD DUP1 SLOAD PUSH1 0xFF NOT AND SWAP1 SSTORE PUSH32 0x95EB8164ADA5BBD9B16BB9918BCF97960C1D006F76427F3FAF2BFB2EBC963E42 SWAP2 DUP6 SWAP2 PUSH1 0x1 ADD SWAP1 PUSH2 0x105C PUSH2 0xC29 JUMP JUMPDEST PUSH1 0x40 DUP1 MLOAD PUSH1 0x1 PUSH1 0x1 PUSH1 0xA0 SHL SUB DUP7 AND DUP2 MSTORE DUP4 ISZERO ISZERO SWAP2 DUP2 ADD SWAP2 SWAP1 SWAP2 MSTORE PUSH4 0xFFFFFFFF DUP3 AND PUSH1 0x60 DUP3 ADD MSTORE PUSH1 0x80 PUSH1 0x20 DUP3 ADD DUP2 DUP2 MSTORE DUP6 SLOAD PUSH1 0x2 PUSH1 0x0 NOT PUSH2 0x100 PUSH1 0x1 DUP5 AND ISZERO MUL ADD SWAP1 SWAP2 AND DIV SWAP2 DUP4 ADD DUP3 SWAP1 MSTORE SWAP1 PUSH1 0xA0 DUP4 ADD SWAP1 DUP7 SWAP1 DUP1 ISZERO PUSH2 0x10FB JUMPI DUP1 PUSH1 0x1F LT PUSH2 0x10D0 JUMPI PUSH2 0x100 DUP1 DUP4 SLOAD DIV MUL DUP4 MSTORE SWAP2 PUSH1 0x20 ADD SWAP2 PUSH2 0x10FB JUMP JUMPDEST DUP3 ADD SWAP2 SWAP1 PUSH1 0x0 MSTORE PUSH1 0x20 PUSH1 0x0 KECCAK256 SWAP1 JUMPDEST DUP2 SLOAD DUP2 MSTORE SWAP1 PUSH1 0x1 ADD SWAP1 PUSH1 0x20 ADD DUP1 DUP4 GT PUSH2 0x10DE JUMPI DUP3 SWAP1 SUB PUSH1 0x1F AND DUP3 ADD SWAP2 JUMPDEST POP POP SWAP6 POP POP POP POP POP POP PUSH1 0x40 MLOAD DUP1 SWAP2 SUB SWAP1 LOG1 POP PUSH1 0x1 SWAP3 SWAP2 POP POP JUMP JUMPDEST PUSH1 0x37 SLOAD PUSH1 0x0 SWAP1 PUSH1 0x1 PUSH1 0x1 PUSH1 0xA0 SHL SUB AND CALLER EQ PUSH2 0x1161 JUMPI PUSH1 0x40 MLOAD PUSH3 0x461BCD PUSH1 0xE5 SHL DUP2 MSTORE PUSH1 0x4 ADD DUP1 DUP1 PUSH1 0x20 ADD DUP3 DUP2 SUB DUP3 MSTORE PUSH1 0x31 DUP2 MSTORE PUSH1 0x20 ADD DUP1 PUSH2 0x4EBB PUSH1 0x31 SWAP2 CODECOPY PUSH1 0x40 ADD SWAP2 POP POP PUSH1 0x40 MLOAD DUP1 SWAP2 SUB SWAP1 REVERT JUMPDEST PUSH1 0x1 PUSH1 0x1 PUSH1 0xA0 SHL SUB DUP5 AND PUSH1 0x0 SWAP1 DUP2 MSTORE PUSH1 0x3A PUSH1 0x20 MSTORE PUSH1 0x40 SWAP1 KECCAK256 SLOAD PUSH1 0xFF AND ISZERO PUSH2 0x11CF JUMPI PUSH1 0x40 DUP1 MLOAD PUSH3 0x461BCD PUSH1 0xE5 SHL DUP2 MSTORE PUSH1 0x20 PUSH1 0x4 DUP3 ADD MSTORE PUSH1 0x1D PUSH1 0x24 DUP3 ADD MSTORE PUSH32 0x496E737472756D656E7420616C726561647920737570706F727465642E000000 PUSH1 0x44 DUP3 ADD MSTORE SWAP1 MLOAD SWAP1 DUP2 SWAP1 SUB PUSH1 0x64 ADD SWAP1 REVERT JUMPDEST PUSH1 0x39 DUP1 SLOAD PUSH1 0x1 DUP1 DUP3 ADD DUP4 SSTORE PUSH1 0x0 SWAP3 DUP4 MSTORE PUSH32 0xDC16FEF70F8D5DDBC01EE3D903D1E69C18A3C7BE080EB86A81E0578814EE58D3 SWAP1 SWAP2 ADD DUP1 SLOAD PUSH1 0x1 PUSH1 0x1 PUSH1 0xA0 SHL SUB NOT AND PUSH1 0x1 PUSH1 0x1 PUSH1 0xA0 SHL SUB DUP9 DUP2 AND SWAP2 SWAP1 SWAP2 OR SWAP1 SWAP2 SSTORE PUSH1 0x40 DUP1 MLOAD PUSH2 0x120 DUP2 ADD DUP3 MSTORE SWAP3 DUP4 MSTORE DUP1 MLOAD PUSH4 0x6FDDE03 PUSH1 0xE0 SHL DUP2 MSTORE SWAP1 MLOAD DUP8 SWAP5 PUSH1 0x20 DUP6 ADD SWAP4 DUP7 AND SWAP3 PUSH4 0x6FDDE03 SWAP3 PUSH1 0x4 DUP1 DUP4 ADD SWAP4 SWAP3 DUP3 SWAP1 SUB ADD DUP2 DUP7 DUP1 EXTCODESIZE ISZERO DUP1 ISZERO PUSH2 0x1268 JUMPI PUSH1 0x0 DUP1 REVERT JUMPDEST POP GAS STATICCALL ISZERO DUP1 ISZERO PUSH2 0x127C JUMPI RETURNDATASIZE PUSH1 0x0 DUP1 RETURNDATACOPY RETURNDATASIZE PUSH1 0x0 REVERT JUMPDEST POP POP POP POP PUSH1 0x40 MLOAD RETURNDATASIZE PUSH1 0x0 DUP3 RETURNDATACOPY PUSH1 0x1F RETURNDATASIZE SWAP1 DUP2 ADD PUSH1 0x1F NOT AND DUP3 ADD PUSH1 0x40 MSTORE PUSH1 0x20 DUP2 LT ISZERO PUSH2 0x12A5 JUMPI PUSH1 0x0 DUP1 REVERT JUMPDEST DUP2 ADD SWAP1 DUP1 DUP1 MLOAD PUSH1 0x40 MLOAD SWAP4 SWAP3 SWAP2 SWAP1 DUP5 PUSH5 0x100000000 DUP3 GT ISZERO PUSH2 0x12C5 JUMPI PUSH1 0x0 DUP1 REVERT JUMPDEST SWAP1 DUP4 ADD SWAP1 PUSH1 0x20 DUP3 ADD DUP6 DUP2 GT ISZERO PUSH2 0x12DA JUMPI PUSH1 0x0 DUP1 REVERT JUMPDEST DUP3 MLOAD PUSH5 0x100000000 DUP2 GT DUP3 DUP3 ADD DUP9 LT OR ISZERO PUSH2 0x12F4 JUMPI PUSH1 0x0 DUP1 REVERT JUMPDEST DUP3 MSTORE POP DUP2 MLOAD PUSH1 0x20 SWAP2 DUP3 ADD SWAP3 SWAP1 SWAP2 ADD SWAP1 DUP1 DUP4 DUP4 PUSH1 0x0 JUMPDEST DUP4 DUP2 LT ISZERO PUSH2 0x1321 JUMPI DUP2 DUP2 ADD MLOAD DUP4 DUP3 ADD MSTORE PUSH1 0x20 ADD PUSH2 0x1309 JUMP JUMPDEST POP POP POP POP SWAP1 POP SWAP1 DUP2 ADD SWAP1 PUSH1 0x1F AND DUP1 ISZERO PUSH2 0x134E JUMPI DUP1 DUP3 SUB DUP1 MLOAD PUSH1 0x1 DUP4 PUSH1 0x20 SUB PUSH2 0x100 EXP SUB NOT AND DUP2 MSTORE PUSH1 0x20 ADD SWAP2 POP JUMPDEST POP PUSH1 0x40 MSTORE POP POP POP DUP2 MSTORE PUSH1 0x20 ADD DUP6 PUSH1 0x1 PUSH1 0x1 PUSH1 0xA0 SHL SUB AND DUP2 MSTORE PUSH1 0x20 ADD DUP5 DUP2 MSTORE PUSH1 0x20 ADD PUSH1 0x0 ISZERO ISZERO DUP2 MSTORE PUSH1 0x20 ADD PUSH15 0xC097CE7BC90715B34B9F1000000000 DUP2 MSTORE PUSH1 0x20 ADD PUSH2 0x1395 PUSH2 0xC29 JUMP JUMPDEST PUSH4 0xFFFFFFFF AND DUP2 MSTORE PUSH1 0x20 ADD PUSH15 0xC097CE7BC90715B34B9F1000000000 DUP2 MSTORE PUSH1 0x20 ADD PUSH2 0x13BD PUSH2 0xC29 JUMP JUMPDEST PUSH4 0xFFFFFFFF AND SWAP1 MSTORE PUSH1 0x1 PUSH1 0x1 PUSH1 0xA0 SHL SUB DUP7 AND PUSH1 0x0 SWAP1 DUP2 MSTORE PUSH1 0x3A PUSH1 0x20 SWAP1 DUP2 MSTORE PUSH1 0x40 SWAP1 SWAP2 KECCAK256 DUP3 MLOAD DUP2 SLOAD PUSH1 0xFF NOT AND SWAP1 ISZERO ISZERO OR DUP2 SSTORE DUP3 DUP3 ADD MLOAD DUP1 MLOAD SWAP2 SWAP3 PUSH2 0x1408 SWAP3 PUSH1 0x1 DUP6 ADD SWAP3 SWAP1 SWAP2 ADD SWAP1 PUSH2 0x4B89 JUMP JUMPDEST POP PUSH1 0x40 DUP3 DUP2 ADD MLOAD PUSH1 0x2 DUP4 DUP2 ADD DUP1 SLOAD PUSH1 0x1 PUSH1 0x1 PUSH1 0xA0 SHL SUB NOT AND PUSH1 0x1 PUSH1 0x1 PUSH1 0xA0 SHL SUB SWAP4 DUP5 AND OR SWAP1 SSTORE PUSH1 0x60 DUP1 DUP7 ADD MLOAD PUSH1 0x3 DUP7 ADD SSTORE PUSH1 0x80 DUP7 ADD MLOAD PUSH1 0x4 DUP7 ADD DUP1 SLOAD PUSH1 0xFF NOT AND SWAP2 ISZERO ISZERO SWAP2 SWAP1 SWAP2 OR SWAP1 SSTORE PUSH1 0xA0 DUP7 ADD MLOAD PUSH1 0x5 DUP7 ADD SSTORE PUSH1 0xC0 DUP7 ADD MLOAD PUSH1 0x6 DUP7 ADD SSTORE PUSH1 0xE0 DUP7 ADD MLOAD PUSH1 0x7 DUP7 ADD SSTORE PUSH2 0x100 SWAP1 SWAP6 ADD MLOAD PUSH1 0x8 SWAP1 SWAP5 ADD SWAP4 SWAP1 SWAP4 SSTORE DUP2 MLOAD SWAP4 DUP5 ADD DUP3 MSTORE PUSH1 0x0 DUP1 DUP6 MSTORE PUSH1 0x20 DUP1 DUP7 ADD DUP3 DUP2 MSTORE DUP7 DUP6 ADD DUP4 DUP2 MSTORE SWAP4 DUP13 AND DUP4 MSTORE PUSH1 0x56 DUP3 MSTORE DUP5 DUP4 KECCAK256 SWAP7 MLOAD DUP8 SSTORE MLOAD PUSH1 0x1 DUP8 ADD SSTORE SWAP2 MLOAD SWAP5 SWAP1 SWAP4 ADD SWAP4 SWAP1 SWAP4 SSTORE PUSH1 0x3B SWAP1 SWAP3 MSTORE KECCAK256 PUSH1 0x18 ADD SLOAD PUSH4 0xFFFFFFFF AND PUSH2 0x1534 JUMPI PUSH2 0x14D5 PUSH2 0x4B2C JUMP JUMPDEST PUSH1 0x40 DUP1 MLOAD DUP1 DUP3 ADD DUP3 MSTORE DUP3 DUP2 MSTORE PUSH1 0x0 PUSH1 0x20 DUP1 DUP4 ADD DUP3 SWAP1 MSTORE PUSH1 0x1 PUSH1 0x1 PUSH1 0xA0 SHL SUB DUP11 AND DUP3 MSTORE PUSH1 0x3B SWAP1 MSTORE SWAP2 SWAP1 SWAP2 KECCAK256 DUP2 MLOAD PUSH2 0x150E SWAP1 DUP3 SWAP1 PUSH1 0x18 PUSH2 0x4B4B JUMP JUMPDEST POP PUSH1 0x20 SWAP2 SWAP1 SWAP2 ADD MLOAD PUSH1 0x18 SWAP1 SWAP2 ADD DUP1 SLOAD PUSH4 0xFFFFFFFF NOT AND PUSH4 0xFFFFFFFF SWAP1 SWAP3 AND SWAP2 SWAP1 SWAP2 OR SWAP1 SSTORE POP JUMPDEST PUSH1 0x1 PUSH1 0x1 PUSH1 0xA0 SHL SUB DUP6 DUP2 AND PUSH1 0x0 DUP2 DUP2 MSTORE PUSH1 0x3A PUSH1 0x20 SWAP1 DUP2 MSTORE PUSH1 0x40 SWAP2 DUP3 SWAP1 KECCAK256 DUP3 MLOAD SWAP4 DUP5 MSTORE SWAP2 DUP4 ADD DUP8 SWAP1 MSTORE SWAP3 DUP8 AND PUSH1 0x60 DUP4 ADD MSTORE NUMBER PUSH1 0x80 DUP4 ADD DUP2 SWAP1 MSTORE PUSH1 0xA0 SWAP4 DUP4 ADD DUP5 DUP2 MSTORE PUSH1 0x1 SWAP3 DUP4 ADD DUP1 SLOAD PUSH1 0x2 SWAP5 DUP2 AND ISZERO PUSH2 0x100 MUL PUSH1 0x0 NOT ADD AND SWAP4 SWAP1 SWAP4 DIV SWAP5 DUP5 ADD DUP6 SWAP1 MSTORE PUSH32 0x147287EB47162017688BF4E80590AC2FAA6656751FD480B76FA8F7612910141A SWAP5 DUP11 SWAP5 DUP10 SWAP4 DUP12 SWAP4 SWAP1 SWAP3 PUSH1 0xC0 DUP4 ADD SWAP1 DUP8 SWAP1 DUP1 ISZERO PUSH2 0x1612 JUMPI DUP1 PUSH1 0x1F LT PUSH2 0x15E7 JUMPI PUSH2 0x100 DUP1 DUP4 SLOAD DIV MUL DUP4 MSTORE SWAP2 PUSH1 0x20 ADD SWAP2 PUSH2 0x1612 JUMP JUMPDEST DUP3 ADD SWAP2 SWAP1 PUSH1 0x0 MSTORE PUSH1 0x20 PUSH1 0x0 KECCAK256 SWAP1 JUMPDEST DUP2 SLOAD DUP2 MSTORE SWAP1 PUSH1 0x1 ADD SWAP1 PUSH1 0x20 ADD DUP1 DUP4 GT PUSH2 0x15F5 JUMPI DUP3 SWAP1 SUB PUSH1 0x1F AND DUP3 ADD SWAP2 JUMPDEST POP POP SWAP7 POP POP POP POP POP POP POP PUSH1 0x40 MLOAD DUP1 SWAP2 SUB SWAP1 LOG1 PUSH1 0x1 SWAP2 POP POP JUMPDEST SWAP4 SWAP3 POP POP POP JUMP JUMPDEST PUSH1 0x55 SLOAD SWAP1 JUMP JUMPDEST PUSH2 0x163F PUSH2 0x4B2C JUMP JUMPDEST PUSH1 0x40 DUP1 MLOAD PUSH2 0x300 DUP2 ADD SWAP2 DUP3 SWAP1 MSTORE SWAP1 PUSH1 0x3C SWAP1 PUSH1 0x18 SWAP1 DUP3 DUP5 JUMPDEST DUP2 SLOAD DUP2 MSTORE PUSH1 0x20 ADD SWAP1 PUSH1 0x1 ADD SWAP1 DUP1 DUP4 GT PUSH2 0x1656 JUMPI JUMPDEST POP POP POP POP POP SWAP1 POP SWAP1 JUMP JUMPDEST PUSH1 0x0 DUP1 PUSH2 0x1683 NUMBER PUSH1 0x58 SLOAD PUSH2 0x2E28 JUMP JUMPDEST SWAP1 POP DUP1 PUSH1 0x57 SLOAD GT ISZERO PUSH2 0x16A3 JUMPI PUSH2 0x169B PUSH1 0x57 SLOAD DUP3 PUSH2 0x2E28 JUMP JUMPDEST SWAP2 POP POP PUSH2 0x93A JUMP JUMPDEST PUSH1 0x0 SWAP2 POP POP SWAP1 JUMP JUMPDEST PUSH1 0x37 SLOAD PUSH1 0x0 SWAP1 PUSH1 0x1 PUSH1 0x1 PUSH1 0xA0 SHL SUB AND CALLER EQ PUSH2 0x16F7 JUMPI PUSH1 0x40 MLOAD PUSH3 0x461BCD PUSH1 0xE5 SHL DUP2 MSTORE PUSH1 0x4 ADD DUP1 DUP1 PUSH1 0x20 ADD DUP3 DUP2 SUB DUP3 MSTORE PUSH1 0x31 DUP2 MSTORE PUSH1 0x20 ADD DUP1 PUSH2 0x4EBB PUSH1 0x31 SWAP2 CODECOPY PUSH1 0x40 ADD SWAP2 POP POP PUSH1 0x40 MLOAD DUP1 SWAP2 SUB SWAP1 REVERT JUMPDEST PUSH1 0x1 PUSH1 0x1 PUSH1 0xA0 SHL SUB DUP3 AND PUSH1 0x0 SWAP1 DUP2 MSTORE PUSH1 0x3A PUSH1 0x20 MSTORE PUSH1 0x40 SWAP1 KECCAK256 SLOAD PUSH1 0xFF AND PUSH2 0x1752 JUMPI PUSH1 0x40 DUP1 MLOAD PUSH3 0x461BCD PUSH1 0xE5 SHL DUP2 MSTORE PUSH1 0x20 PUSH1 0x4 DUP3 ADD MSTORE PUSH1 0x19 PUSH1 0x24 DUP3 ADD MSTORE PUSH1 0x0 DUP1 MLOAD PUSH1 0x20 PUSH2 0x5205 DUP4 CODECOPY DUP2 MLOAD SWAP2 MSTORE PUSH1 0x44 DUP3 ADD MSTORE SWAP1 MLOAD SWAP1 DUP2 SWAP1 SUB PUSH1 0x64 ADD SWAP1 REVERT JUMPDEST PUSH2 0x175B DUP3 PUSH2 0x2E62 JUMP JUMPDEST PUSH2 0xE32 JUMPI PUSH1 0x40 MLOAD PUSH3 0x461BCD PUSH1 0xE5 SHL DUP2 MSTORE PUSH1 0x4 ADD DUP1 DUP1 PUSH1 0x20 ADD DUP3 DUP2 SUB DUP3 MSTORE PUSH1 0x2D DUP2 MSTORE PUSH1 0x20 ADD DUP1 PUSH2 0x516D PUSH1 0x2D SWAP2 CODECOPY PUSH1 0x40 ADD SWAP2 POP POP PUSH1 0x40 MLOAD DUP1 SWAP2 SUB SWAP1 REVERT JUMPDEST PUSH1 0x34 SLOAD PUSH1 0x40 DUP1 MLOAD PUSH4 0xDB49224B PUSH1 0xE0 SHL DUP2 MSTORE SWAP1 MLOAD CALLER SWAP3 PUSH1 0x1 PUSH1 0x1 PUSH1 0xA0 SHL SUB AND SWAP2 PUSH4 0xDB49224B SWAP2 PUSH1 0x4 DUP1 DUP4 ADD SWAP3 PUSH1 0x20 SWAP3 SWAP2 SWAP1 DUP3 SWAP1 SUB ADD DUP2 DUP7 DUP1 EXTCODESIZE ISZERO DUP1 ISZERO PUSH2 0x17DA JUMPI PUSH1 0x0 DUP1 REVERT JUMPDEST POP GAS STATICCALL ISZERO DUP1 ISZERO PUSH2 0x17EE JUMPI RETURNDATASIZE PUSH1 0x0 DUP1 RETURNDATACOPY RETURNDATASIZE PUSH1 0x0 REVERT JUMPDEST POP POP POP POP PUSH1 0x40 MLOAD RETURNDATASIZE PUSH1 0x20 DUP2 LT ISZERO PUSH2 0x1804 JUMPI PUSH1 0x0 DUP1 REVERT JUMPDEST POP MLOAD PUSH1 0x1 PUSH1 0x1 PUSH1 0xA0 SHL SUB AND EQ PUSH2 0x184B JUMPI PUSH1 0x40 MLOAD PUSH3 0x461BCD PUSH1 0xE5 SHL DUP2 MSTORE PUSH1 0x4 ADD DUP1 DUP1 PUSH1 0x20 ADD DUP3 DUP2 SUB DUP3 MSTORE PUSH1 0x3A DUP2 MSTORE PUSH1 0x20 ADD DUP1 PUSH2 0x4F2F PUSH1 0x3A SWAP2 CODECOPY PUSH1 0x40 ADD SWAP2 POP POP PUSH1 0x40 MLOAD DUP1 SWAP2 SUB SWAP1 REVERT JUMPDEST PUSH2 0x1853 PUSH2 0x32B1 JUMP JUMPDEST JUMP JUMPDEST PUSH1 0x36 SLOAD PUSH1 0x1 PUSH1 0x1 PUSH1 0xA0 SHL SUB AND DUP2 JUMP JUMPDEST PUSH1 0x60 PUSH1 0x39 DUP1 SLOAD DUP1 PUSH1 0x20 MUL PUSH1 0x20 ADD PUSH1 0x40 MLOAD SWAP1 DUP2 ADD PUSH1 0x40 MSTORE DUP1 SWAP3 SWAP2 SWAP1 DUP2 DUP2 MSTORE PUSH1 0x20 ADD DUP3 DUP1 SLOAD DUP1 ISZERO PUSH2 0x166A JUMPI PUSH1 0x20 MUL DUP3 ADD SWAP2 SWAP1 PUSH1 0x0 MSTORE PUSH1 0x20 PUSH1 0x0 KECCAK256 SWAP1 JUMPDEST DUP2 SLOAD PUSH1 0x1 PUSH1 0x1 PUSH1 0xA0 SHL SUB AND DUP2 MSTORE PUSH1 0x1 SWAP1 SWAP2 ADD SWAP1 PUSH1 0x20 ADD DUP1 DUP4 GT PUSH2 0x189E JUMPI POP POP POP POP POP SWAP1 POP SWAP1 JUMP JUMPDEST PUSH1 0x0 CALLER PUSH1 0x1 PUSH1 0x1 PUSH1 0xA0 SHL SUB AND PUSH1 0x34 PUSH1 0x0 SWAP1 SLOAD SWAP1 PUSH2 0x100 EXP SWAP1 DIV PUSH1 0x1 PUSH1 0x1 PUSH1 0xA0 SHL SUB AND PUSH1 0x1 PUSH1 0x1 PUSH1 0xA0 SHL SUB AND PUSH4 0xDB49224B PUSH1 0x40 MLOAD DUP2 PUSH4 0xFFFFFFFF AND PUSH1 0xE0 SHL DUP2 MSTORE PUSH1 0x4 ADD PUSH1 0x20 PUSH1 0x40 MLOAD DUP1 DUP4 SUB DUP2 DUP7 DUP1 EXTCODESIZE ISZERO DUP1 ISZERO PUSH2 0x191F JUMPI PUSH1 0x0 DUP1 REVERT JUMPDEST POP GAS STATICCALL ISZERO DUP1 ISZERO PUSH2 0x1933 JUMPI RETURNDATASIZE PUSH1 0x0 DUP1 RETURNDATACOPY RETURNDATASIZE PUSH1 0x0 REVERT JUMPDEST POP POP POP POP PUSH1 0x40 MLOAD RETURNDATASIZE PUSH1 0x20 DUP2 LT ISZERO PUSH2 0x1949 JUMPI PUSH1 0x0 DUP1 REVERT JUMPDEST POP MLOAD PUSH1 0x1 PUSH1 0x1 PUSH1 0xA0 SHL SUB AND EQ PUSH2 0x1990 JUMPI PUSH1 0x40 MLOAD PUSH3 0x461BCD PUSH1 0xE5 SHL DUP2 MSTORE PUSH1 0x4 ADD DUP1 DUP1 PUSH1 0x20 ADD DUP3 DUP2 SUB DUP3 MSTORE PUSH1 0x3A DUP2 MSTORE PUSH1 0x20 ADD DUP1 PUSH2 0x4F2F PUSH1 0x3A SWAP2 CODECOPY PUSH1 0x40 ADD SWAP2 POP POP PUSH1 0x40 MLOAD DUP1 SWAP2 SUB SWAP1 REVERT JUMPDEST PUSH7 0x2386F26FC10000 DUP3 GT PUSH2 0x19D5 JUMPI PUSH1 0x40 MLOAD PUSH3 0x461BCD PUSH1 0xE5 SHL DUP2 MSTORE PUSH1 0x4 ADD DUP1 DUP1 PUSH1 0x20 ADD DUP3 DUP2 SUB DUP3 MSTORE PUSH1 0x3C DUP2 MSTORE PUSH1 0x20 ADD DUP1 PUSH2 0x4CF7 PUSH1 0x3C SWAP2 CODECOPY PUSH1 0x40 ADD SWAP2 POP POP PUSH1 0x40 MLOAD DUP1 SWAP2 SUB SWAP1 REVERT JUMPDEST PUSH8 0xDE0B6B3A7640000 DUP3 GT ISZERO PUSH2 0x1A1C JUMPI PUSH1 0x40 MLOAD PUSH3 0x461BCD PUSH1 0xE5 SHL DUP2 MSTORE PUSH1 0x4 ADD DUP1 DUP1 PUSH1 0x20 ADD DUP3 DUP2 SUB DUP3 MSTORE PUSH1 0x34 DUP2 MSTORE PUSH1 0x20 ADD DUP1 PUSH2 0x4FA2 PUSH1 0x34 SWAP2 CODECOPY PUSH1 0x40 ADD SWAP2 POP POP PUSH1 0x40 MLOAD DUP1 SWAP2 SUB SWAP1 REVERT JUMPDEST PUSH2 0x1A24 PUSH2 0x205A JUMP JUMPDEST POP PUSH1 0x40 DUP1 MLOAD PUSH1 0x20 DUP2 ADD SWAP1 SWAP2 MSTORE DUP3 SWAP1 MSTORE PUSH1 0x38 DUP3 SWAP1 SSTORE DUP3 PUSH2 0x1A4B JUMPI PUSH1 0x37 DUP1 SLOAD PUSH1 0xFF PUSH1 0xA0 SHL NOT AND SWAP1 SSTORE JUMPDEST PUSH1 0x37 DUP1 SLOAD PUSH1 0xFF PUSH1 0xA0 SHL NOT AND PUSH1 0x1 PUSH1 0xA0 SHL SWAP1 DUP2 OR SWAP2 DUP3 SWAP1 SSTORE PUSH1 0x38 SLOAD PUSH32 0xF27FC072C7772962292B4F5221D157312241AE2757928921516BB837B3D1E7BC SWAP3 SWAP2 SWAP1 SWAP2 DIV PUSH1 0xFF AND SWAP1 PUSH2 0x1A97 PUSH2 0xC29 JUMP JUMPDEST PUSH1 0x40 DUP1 MLOAD SWAP4 ISZERO ISZERO DUP5 MSTORE PUSH1 0x20 DUP5 ADD SWAP3 SWAP1 SWAP3 MSTORE PUSH4 0xFFFFFFFF AND DUP3 DUP3 ADD MSTORE MLOAD SWAP1 DUP2 SWAP1 SUB PUSH1 0x60 ADD SWAP1 LOG1 SWAP3 SWAP2 POP POP JUMP JUMPDEST PUSH1 0x1 PUSH1 0x1 PUSH1 0xA0 SHL SUB AND PUSH1 0x0 SWAP1 DUP2 MSTORE PUSH1 0x3B PUSH1 0x20 MSTORE PUSH1 0x40 SWAP1 KECCAK256 PUSH1 0x18 ADD SLOAD PUSH4 0xFFFFFFFF AND SWAP1 JUMP JUMPDEST PUSH1 0x0 DUP5 PUSH2 0x1AF1 PUSH2 0x4BF6 JUMP JUMPDEST PUSH1 0x1 PUSH1 0x1 PUSH1 0xA0 SHL SUB DUP3 AND PUSH1 0x0 SWAP1 DUP2 MSTORE PUSH1 0x3A PUSH1 0x20 SWAP1 DUP2 MSTORE PUSH1 0x40 SWAP2 DUP3 SWAP1 KECCAK256 DUP3 MLOAD PUSH2 0x120 DUP2 ADD DUP5 MSTORE DUP2 SLOAD PUSH1 0xFF AND ISZERO ISZERO DUP2 MSTORE PUSH1 0x1 DUP1 DUP4 ADD DUP1 SLOAD DUP7 MLOAD PUSH1 0x2 PUSH2 0x100 SWAP5 DUP4 AND ISZERO SWAP5 SWAP1 SWAP5 MUL PUSH1 0x0 NOT ADD SWAP1 SWAP2 AND SWAP3 SWAP1 SWAP3 DIV PUSH1 0x1F DUP2 ADD DUP7 SWAP1 DIV DUP7 MUL DUP4 ADD DUP7 ADD SWAP1 SWAP7 MSTORE DUP6 DUP3 MSTORE SWAP2 SWAP5 SWAP3 SWAP4 DUP6 DUP2 ADD SWAP4 SWAP2 SWAP3 SWAP2 SWAP1 DUP4 ADD DUP3 DUP3 DUP1 ISZERO PUSH2 0x1BB0 JUMPI DUP1 PUSH1 0x1F LT PUSH2 0x1B85 JUMPI PUSH2 0x100 DUP1 DUP4 SLOAD DIV MUL DUP4 MSTORE SWAP2 PUSH1 0x20 ADD SWAP2 PUSH2 0x1BB0 JUMP JUMPDEST DUP3 ADD SWAP2 SWAP1 PUSH1 0x0 MSTORE PUSH1 0x20 PUSH1 0x0 KECCAK256 SWAP1 JUMPDEST DUP2 SLOAD DUP2 MSTORE SWAP1 PUSH1 0x1 ADD SWAP1 PUSH1 0x20 ADD DUP1 DUP4 GT PUSH2 0x1B93 JUMPI DUP3 SWAP1 SUB PUSH1 0x1F AND DUP3 ADD SWAP2 JUMPDEST POP POP POP SWAP2 DUP4 MSTORE POP POP PUSH1 0x2 DUP3 ADD SLOAD PUSH1 0x1 PUSH1 0x1 PUSH1 0xA0 SHL SUB AND PUSH1 0x20 DUP3 ADD MSTORE PUSH1 0x3 DUP3 ADD SLOAD PUSH1 0x40 DUP3 ADD MSTORE PUSH1 0x4 DUP3 ADD SLOAD PUSH1 0xFF AND ISZERO ISZERO PUSH1 0x60 DUP3 ADD MSTORE PUSH1 0x5 DUP3 ADD SLOAD PUSH1 0x80 DUP3 ADD MSTORE PUSH1 0x6 DUP3 ADD SLOAD PUSH1 0xA0 DUP3 ADD MSTORE PUSH1 0x7 DUP3 ADD SLOAD PUSH1 0xC0 DUP3 ADD MSTORE PUSH1 0x8 SWAP1 SWAP2 ADD SLOAD PUSH1 0xE0 SWAP1 SWAP2 ADD MSTORE DUP1 MLOAD SWAP1 SWAP2 POP PUSH2 0x1C4E JUMPI PUSH1 0x40 MLOAD PUSH3 0x461BCD PUSH1 0xE5 SHL DUP2 MSTORE PUSH1 0x4 ADD DUP1 DUP1 PUSH1 0x20 ADD DUP3 DUP2 SUB DUP3 MSTORE PUSH1 0x3D DUP2 MSTORE PUSH1 0x20 ADD DUP1 PUSH2 0x4DD9 PUSH1 0x3D SWAP2 CODECOPY PUSH1 0x40 ADD SWAP2 POP POP PUSH1 0x40 MLOAD DUP1 SWAP2 SUB SWAP1 REVERT JUMPDEST DUP1 PUSH1 0x40 ADD MLOAD PUSH1 0x1 PUSH1 0x1 PUSH1 0xA0 SHL SUB AND CALLER PUSH1 0x1 PUSH1 0x1 PUSH1 0xA0 SHL SUB AND EQ PUSH2 0x1CA2 JUMPI PUSH1 0x40 MLOAD PUSH3 0x461BCD PUSH1 0xE5 SHL DUP2 MSTORE PUSH1 0x4 ADD DUP1 DUP1 PUSH1 0x20 ADD DUP3 DUP2 SUB DUP3 MSTORE PUSH1 0x44 DUP2 MSTORE PUSH1 0x20 ADD DUP1 PUSH2 0x5024 PUSH1 0x44 SWAP2 CODECOPY PUSH1 0x60 ADD SWAP2 POP POP PUSH1 0x40 MLOAD DUP1 SWAP2 SUB SWAP1 REVERT JUMPDEST PUSH1 0x35 SLOAD PUSH1 0x40 DUP1 MLOAD PUSH4 0x70A08231 PUSH1 0xE0 SHL DUP2 MSTORE ADDRESS PUSH1 0x4 DUP3 ADD MSTORE SWAP1 MLOAD PUSH1 0x0 SWAP3 DUP8 SWAP3 PUSH1 0x1 PUSH1 0x1 PUSH1 0xA0 SHL SUB SWAP1 SWAP2 AND SWAP2 PUSH4 0x70A08231 SWAP2 PUSH1 0x24 DUP1 DUP3 ADD SWAP3 PUSH1 0x20 SWAP3 SWAP1 SWAP2 SWAP1 DUP3 SWAP1 SUB ADD DUP2 DUP7 DUP1 EXTCODESIZE ISZERO DUP1 ISZERO PUSH2 0x1CF2 JUMPI PUSH1 0x0 DUP1 REVERT JUMPDEST POP GAS STATICCALL ISZERO DUP1 ISZERO PUSH2 0x1D06 JUMPI RETURNDATASIZE PUSH1 0x0 DUP1 RETURNDATACOPY RETURNDATASIZE PUSH1 0x0 REVERT JUMPDEST POP POP POP POP PUSH1 0x40 MLOAD RETURNDATASIZE PUSH1 0x20 DUP2 LT ISZERO PUSH2 0x1D1C JUMPI PUSH1 0x0 DUP1 REVERT JUMPDEST POP MLOAD GT ISZERO PUSH2 0x2003 JUMPI PUSH1 0x35 SLOAD PUSH1 0x40 DUP1 MLOAD PUSH4 0xA9059CBB PUSH1 0xE0 SHL DUP2 MSTORE PUSH1 0x1 PUSH1 0x1 PUSH1 0xA0 SHL SUB DUP10 DUP2 AND PUSH1 0x4 DUP4 ADD MSTORE PUSH1 0x24 DUP3 ADD DUP10 SWAP1 MSTORE SWAP2 MLOAD SWAP2 SWAP1 SWAP3 AND SWAP2 PUSH4 0xA9059CBB SWAP2 PUSH1 0x44 DUP1 DUP4 ADD SWAP3 PUSH1 0x20 SWAP3 SWAP2 SWAP1 DUP3 SWAP1 SUB ADD DUP2 PUSH1 0x0 DUP8 DUP1 EXTCODESIZE ISZERO DUP1 ISZERO PUSH2 0x1D7A JUMPI PUSH1 0x0 DUP1 REVERT JUMPDEST POP GAS CALL ISZERO DUP1 ISZERO PUSH2 0x1D8E JUMPI RETURNDATASIZE PUSH1 0x0 DUP1 RETURNDATACOPY RETURNDATASIZE PUSH1 0x0 REVERT JUMPDEST POP POP POP POP PUSH1 0x40 MLOAD RETURNDATASIZE PUSH1 0x20 DUP2 LT ISZERO PUSH2 0x1DA4 JUMPI PUSH1 0x0 DUP1 REVERT JUMPDEST POP MLOAD PUSH2 0x1DE1 JUMPI PUSH1 0x40 MLOAD PUSH3 0x461BCD PUSH1 0xE5 SHL DUP2 MSTORE PUSH1 0x4 ADD DUP1 DUP1 PUSH1 0x20 ADD DUP3 DUP2 SUB DUP3 MSTORE PUSH1 0x2C DUP2 MSTORE PUSH1 0x20 ADD DUP1 PUSH2 0x50EB PUSH1 0x2C SWAP2 CODECOPY PUSH1 0x40 ADD SWAP2 POP POP PUSH1 0x40 MLOAD DUP1 SWAP2 SUB SWAP1 REVERT JUMPDEST PUSH1 0x34 PUSH1 0x0 SWAP1 SLOAD SWAP1 PUSH2 0x100 EXP SWAP1 DIV PUSH1 0x1 PUSH1 0x1 PUSH1 0xA0 SHL SUB AND PUSH1 0x1 PUSH1 0x1 PUSH1 0xA0 SHL SUB AND PUSH4 0x1DB4F569 PUSH1 0x40 MLOAD DUP2 PUSH4 0xFFFFFFFF AND PUSH1 0xE0 SHL DUP2 MSTORE PUSH1 0x4 ADD PUSH1 0x20 PUSH1 0x40 MLOAD DUP1 DUP4 SUB DUP2 DUP7 DUP1 EXTCODESIZE ISZERO DUP1 ISZERO PUSH2 0x1E2F JUMPI PUSH1 0x0 DUP1 REVERT JUMPDEST POP GAS STATICCALL ISZERO DUP1 ISZERO PUSH2 0x1E43 JUMPI RETURNDATASIZE PUSH1 0x0 DUP1 RETURNDATACOPY RETURNDATASIZE PUSH1 0x0 REVERT JUMPDEST POP POP POP POP PUSH1 0x40 MLOAD RETURNDATASIZE PUSH1 0x20 DUP2 LT ISZERO PUSH2 0x1E59 JUMPI PUSH1 0x0 DUP1 REVERT JUMPDEST POP MLOAD PUSH1 0x1 PUSH1 0x1 PUSH1 0xA0 SHL SUB DUP8 DUP2 AND SWAP2 AND EQ ISZERO PUSH2 0x1FB4 JUMPI PUSH1 0x34 SLOAD PUSH1 0x40 DUP1 MLOAD PUSH4 0x1DB4F569 PUSH1 0xE0 SHL DUP2 MSTORE SWAP1 MLOAD PUSH1 0x0 SWAP3 PUSH1 0x1 PUSH1 0x1 PUSH1 0xA0 SHL SUB AND SWAP2 PUSH4 0x1DB4F569 SWAP2 PUSH1 0x4 DUP1 DUP4 ADD SWAP3 PUSH1 0x20 SWAP3 SWAP2 SWAP1 DUP3 SWAP1 SUB ADD DUP2 DUP7 DUP1 EXTCODESIZE ISZERO DUP1 ISZERO PUSH2 0x1EB3 JUMPI PUSH1 0x0 DUP1 REVERT JUMPDEST POP GAS STATICCALL ISZERO DUP1 ISZERO PUSH2 0x1EC7 JUMPI RETURNDATASIZE PUSH1 0x0 DUP1 RETURNDATACOPY RETURNDATASIZE PUSH1 0x0 REVERT JUMPDEST POP POP POP POP PUSH1 0x40 MLOAD RETURNDATASIZE PUSH1 0x20 DUP2 LT ISZERO PUSH2 0x1EDD JUMPI PUSH1 0x0 DUP1 REVERT JUMPDEST POP MLOAD PUSH1 0x40 DUP1 MLOAD PUSH4 0x660ECBC9 PUSH1 0xE0 SHL DUP2 MSTORE PUSH1 0x1 PUSH1 0x1 PUSH1 0xA0 SHL SUB DUP12 DUP2 AND PUSH1 0x4 DUP4 ADD MSTORE PUSH1 0x24 DUP3 ADD DUP11 SWAP1 MSTORE SWAP2 MLOAD SWAP3 SWAP4 POP SWAP1 DUP4 AND SWAP2 PUSH4 0x660ECBC9 SWAP2 PUSH1 0x44 DUP1 DUP3 ADD SWAP3 PUSH1 0x20 SWAP3 SWAP1 SWAP2 SWAP1 DUP3 SWAP1 SUB ADD DUP2 PUSH1 0x0 DUP8 DUP1 EXTCODESIZE ISZERO DUP1 ISZERO PUSH2 0x1F35 JUMPI PUSH1 0x0 DUP1 REVERT JUMPDEST POP GAS CALL ISZERO DUP1 ISZERO PUSH2 0x1F49 JUMPI RETURNDATASIZE PUSH1 0x0 DUP1 RETURNDATACOPY RETURNDATASIZE PUSH1 0x0 REVERT JUMPDEST POP POP POP POP PUSH1 0x40 MLOAD RETURNDATASIZE PUSH1 0x20 DUP2 LT ISZERO PUSH2 0x1F5F JUMPI PUSH1 0x0 DUP1 REVERT JUMPDEST POP MLOAD PUSH2 0x1FB2 JUMPI PUSH1 0x40 DUP1 MLOAD PUSH3 0x461BCD PUSH1 0xE5 SHL DUP2 MSTORE PUSH1 0x20 PUSH1 0x4 DUP3 ADD MSTORE PUSH1 0x1F PUSH1 0x24 DUP3 ADD MSTORE PUSH32 0x4661696C656420746F20757064617465205374616B65642062616C616E636500 PUSH1 0x44 DUP3 ADD MSTORE SWAP1 MLOAD SWAP1 DUP2 SWAP1 SUB PUSH1 0x64 ADD SWAP1 REVERT JUMPDEST POP JUMPDEST PUSH1 0x40 DUP1 MLOAD PUSH1 0x1 PUSH1 0x1 PUSH1 0xA0 SHL SUB DUP1 DUP12 AND DUP3 MSTORE DUP10 AND PUSH1 0x20 DUP3 ADD MSTORE DUP1 DUP3 ADD DUP8 SWAP1 MSTORE SWAP1 MLOAD PUSH32 0x922C86DA5BA82864DDC6D719CCDD80A788323E2A4DC17CFE258D00BA885B2BEC SWAP2 DUP2 SWAP1 SUB PUSH1 0x60 ADD SWAP1 LOG1 PUSH2 0x2006 JUMP JUMPDEST POP DUP4 JUMPDEST SWAP8 SWAP7 POP POP POP POP POP POP POP JUMP JUMPDEST PUSH1 0x1 PUSH1 0x1 PUSH1 0xA0 SHL SUB DUP2 AND PUSH1 0x0 SWAP1 DUP2 MSTORE PUSH1 0x3A PUSH1 0x20 MSTORE PUSH1 0x40 DUP2 KECCAK256 SLOAD PUSH1 0xFF AND ISZERO PUSH2 0x980 JUMPI POP PUSH1 0x1 PUSH1 0x1 PUSH1 0xA0 SHL SUB DUP2 AND PUSH1 0x0 SWAP1 DUP2 MSTORE PUSH1 0x3A PUSH1 0x20 MSTORE PUSH1 0x40 SWAP1 KECCAK256 PUSH1 0x5 ADD SLOAD PUSH2 0x984 JUMP JUMPDEST PUSH1 0x57 SLOAD SWAP1 JUMP JUMPDEST PUSH1 0x0 DUP1 NUMBER SWAP1 POP PUSH1 0x0 PUSH2 0x2087 DUP3 PUSH1 0x58 SLOAD PUSH1 0x40 MLOAD DUP1 PUSH1 0x60 ADD PUSH1 0x40 MSTORE DUP1 PUSH1 0x36 DUP2 MSTORE PUSH1 0x20 ADD PUSH2 0x4E16 PUSH1 0x36 SWAP2 CODECOPY PUSH2 0x3456 JUMP JUMPDEST SWAP1 POP PUSH1 0x57 SLOAD DUP2 LT PUSH2 0x20A6 JUMPI PUSH2 0x209A PUSH2 0x34ED JUMP JUMPDEST POP PUSH1 0x58 SSTORE POP PUSH1 0x1 PUSH2 0x93A JUMP JUMPDEST PUSH1 0x0 SWAP3 POP POP POP SWAP1 JUMP JUMPDEST PUSH1 0x1 PUSH1 0x1 PUSH1 0xA0 SHL SUB AND PUSH1 0x0 SWAP1 DUP2 MSTORE PUSH1 0x3A PUSH1 0x20 MSTORE PUSH1 0x40 SWAP1 KECCAK256 SLOAD PUSH1 0xFF AND SWAP1 JUMP JUMPDEST PUSH1 0x0 PUSH2 0x20D7 PUSH2 0x418B JUMP JUMPDEST PUSH1 0x1 SLOAD SWAP1 SWAP2 POP PUSH1 0xFF AND DUP1 PUSH2 0x20EE JUMPI POP PUSH2 0x20EE PUSH2 0x4190 JUMP JUMPDEST DUP1 PUSH2 0x20FA JUMPI POP PUSH1 0x0 SLOAD DUP2 GT JUMPDEST PUSH2 0x2135 JUMPI PUSH1 0x40 MLOAD PUSH3 0x461BCD PUSH1 0xE5 SHL DUP2 MSTORE PUSH1 0x4 ADD DUP1 DUP1 PUSH1 0x20 ADD DUP3 DUP2 SUB DUP3 MSTORE PUSH1 0x2E DUP2 MSTORE PUSH1 0x20 ADD DUP1 PUSH2 0x50BD PUSH1 0x2E SWAP2 CODECOPY PUSH1 0x40 ADD SWAP2 POP POP PUSH1 0x40 MLOAD DUP1 SWAP2 SUB SWAP1 REVERT JUMPDEST PUSH1 0x1 SLOAD PUSH1 0xFF AND ISZERO DUP1 ISZERO PUSH2 0x2154 JUMPI PUSH1 0x1 DUP1 SLOAD PUSH1 0xFF NOT AND DUP2 OR SWAP1 SSTORE PUSH1 0x0 DUP3 SWAP1 SSTORE JUMPDEST PUSH1 0x34 DUP1 SLOAD PUSH1 0x1 PUSH1 0x1 PUSH1 0xA0 SHL SUB NOT AND PUSH1 0x1 PUSH1 0x1 PUSH1 0xA0 SHL SUB DUP6 AND OR SWAP1 SSTORE PUSH2 0x2177 PUSH2 0x32B1 JUMP JUMPDEST PUSH1 0x34 SLOAD PUSH1 0x35 SLOAD PUSH1 0x36 SLOAD PUSH1 0x37 SLOAD PUSH1 0x40 DUP1 MLOAD PUSH1 0x1 PUSH1 0x1 PUSH1 0xA0 SHL SUB SWAP6 DUP7 AND DUP2 MSTORE SWAP4 DUP6 AND PUSH1 0x20 DUP6 ADD MSTORE SWAP2 DUP5 AND DUP4 DUP4 ADD MSTORE SWAP1 SWAP3 AND PUSH1 0x60 DUP3 ADD MSTORE SWAP1 MLOAD PUSH32 0xC1EBB533F3D7D1A5B07028F3F2B3CD0D8B9912E1E524EEA0AFA6873C6FFF649 SWAP2 DUP2 SWAP1 SUB PUSH1 0x80 ADD SWAP1 LOG1 DUP1 ISZERO PUSH2 0x21E8 JUMPI PUSH1 0x1 DUP1 SLOAD PUSH1 0xFF NOT AND SWAP1 SSTORE JUMPDEST POP POP POP JUMP JUMPDEST PUSH1 0x35 SLOAD PUSH1 0x40 DUP1 MLOAD PUSH4 0x70A08231 PUSH1 0xE0 SHL DUP2 MSTORE ADDRESS PUSH1 0x4 DUP3 ADD MSTORE SWAP1 MLOAD PUSH1 0x0 SWAP3 DUP4 SWAP3 PUSH1 0x1 PUSH1 0x1 PUSH1 0xA0 SHL SUB SWAP1 SWAP2 AND SWAP2 PUSH4 0x70A08231 SWAP2 PUSH1 0x24 DUP1 DUP3 ADD SWAP3 PUSH1 0x20 SWAP3 SWAP1 SWAP2 SWAP1 DUP3 SWAP1 SUB ADD DUP2 DUP7 DUP1 EXTCODESIZE ISZERO DUP1 ISZERO PUSH2 0x223D JUMPI PUSH1 0x0 DUP1 REVERT JUMPDEST POP GAS STATICCALL ISZERO DUP1 ISZERO PUSH2 0x2251 JUMPI RETURNDATASIZE PUSH1 0x0 DUP1 RETURNDATACOPY RETURNDATASIZE PUSH1 0x0 REVERT JUMPDEST POP POP POP POP PUSH1 0x40 MLOAD RETURNDATASIZE PUSH1 0x20 DUP2 LT ISZERO PUSH2 0x2267 JUMPI PUSH1 0x0 DUP1 REVERT JUMPDEST POP MLOAD SWAP2 POP POP SWAP1 JUMP JUMPDEST PUSH1 0x34 SLOAD PUSH1 0x1 PUSH1 0x1 PUSH1 0xA0 SHL SUB AND DUP2 JUMP JUMPDEST PUSH2 0x2286 PUSH2 0x4B2C JUMP JUMPDEST PUSH1 0x1 PUSH1 0x1 PUSH1 0xA0 SHL SUB DUP3 AND PUSH1 0x0 SWAP1 DUP2 MSTORE PUSH1 0x3B PUSH1 0x20 MSTORE PUSH1 0x40 SWAP1 DUP2 SWAP1 KECCAK256 DUP2 MLOAD PUSH2 0x300 DUP2 ADD SWAP3 DUP4 SWAP1 MSTORE SWAP2 PUSH1 0x18 SWAP1 DUP3 DUP5 JUMPDEST DUP2 SLOAD DUP2 MSTORE PUSH1 0x20 ADD SWAP1 PUSH1 0x1 ADD SWAP1 DUP1 DUP4 GT PUSH2 0x22B2 JUMPI POP POP POP POP POP SWAP1 POP SWAP2 SWAP1 POP JUMP JUMPDEST PUSH1 0x39 SLOAD SWAP1 JUMP JUMPDEST PUSH1 0x37 SLOAD PUSH1 0x0 SWAP1 PUSH1 0x1 PUSH1 0x1 PUSH1 0xA0 SHL SUB AND CALLER EQ PUSH2 0x2323 JUMPI PUSH1 0x40 MLOAD PUSH3 0x461BCD PUSH1 0xE5 SHL DUP2 MSTORE PUSH1 0x4 ADD DUP1 DUP1 PUSH1 0x20 ADD DUP3 DUP2 SUB DUP3 MSTORE PUSH1 0x31 DUP2 MSTORE PUSH1 0x20 ADD DUP1 PUSH2 0x4EBB PUSH1 0x31 SWAP2 CODECOPY PUSH1 0x40 ADD SWAP2 POP POP PUSH1 0x40 MLOAD DUP1 SWAP2 SUB SWAP1 REVERT JUMPDEST PUSH1 0x1 PUSH1 0x1 PUSH1 0xA0 SHL SUB DUP4 AND PUSH1 0x0 SWAP1 DUP2 MSTORE PUSH1 0x3A PUSH1 0x20 MSTORE PUSH1 0x40 SWAP1 KECCAK256 SLOAD PUSH1 0xFF AND PUSH2 0x2390 JUMPI PUSH1 0x40 DUP1 MLOAD PUSH3 0x461BCD PUSH1 0xE5 SHL DUP2 MSTORE PUSH1 0x20 PUSH1 0x4 DUP3 ADD MSTORE PUSH1 0x1D PUSH1 0x24 DUP3 ADD MSTORE PUSH32 0x496E737472756D656E7420616C726561647920737570706F727465642E000000 PUSH1 0x44 DUP3 ADD MSTORE SWAP1 MLOAD SWAP1 DUP2 SWAP1 SUB PUSH1 0x64 ADD SWAP1 REVERT JUMPDEST PUSH1 0x39 SLOAD PUSH1 0x0 SWAP1 DUP2 JUMPDEST DUP2 DUP2 LT ISZERO PUSH2 0x23E2 JUMPI DUP6 PUSH1 0x1 PUSH1 0x1 PUSH1 0xA0 SHL SUB AND PUSH1 0x39 DUP3 DUP2 SLOAD DUP2 LT PUSH2 0x23B7 JUMPI INVALID JUMPDEST PUSH1 0x0 SWAP2 DUP3 MSTORE PUSH1 0x20 SWAP1 SWAP2 KECCAK256 ADD SLOAD PUSH1 0x1 PUSH1 0x1 PUSH1 0xA0 SHL SUB AND EQ ISZERO PUSH2 0x23DA JUMPI DUP1 SWAP3 POP PUSH2 0x23E2 JUMP JUMPDEST PUSH1 0x1 ADD PUSH2 0x2398 JUMP JUMPDEST POP PUSH1 0x39 PUSH1 0x1 DUP3 SUB DUP2 SLOAD DUP2 LT PUSH2 0x23F3 JUMPI INVALID JUMPDEST PUSH1 0x0 SWAP2 DUP3 MSTORE PUSH1 0x20 SWAP1 SWAP2 KECCAK256 ADD SLOAD PUSH1 0x39 DUP1 SLOAD PUSH1 0x1 PUSH1 0x1 PUSH1 0xA0 SHL SUB SWAP1 SWAP3 AND SWAP2 DUP5 SWAP1 DUP2 LT PUSH2 0x2419 JUMPI INVALID JUMPDEST PUSH1 0x0 SWAP2 DUP3 MSTORE PUSH1 0x20 SWAP1 SWAP2 KECCAK256 ADD DUP1 SLOAD PUSH1 0x1 PUSH1 0x1 PUSH1 0xA0 SHL SUB NOT AND PUSH1 0x1 PUSH1 0x1 PUSH1 0xA0 SHL SUB SWAP3 SWAP1 SWAP3 AND SWAP2 SWAP1 SWAP2 OR SWAP1 SSTORE PUSH1 0x39 DUP1 SLOAD SWAP1 PUSH2 0x2455 SWAP1 PUSH1 0x0 NOT DUP4 ADD PUSH2 0x4C4F JUMP JUMPDEST POP PUSH1 0x39 SLOAD PUSH1 0x0 NOT DUP3 ADD SWAP1 DUP2 EQ PUSH2 0x249C JUMPI PUSH1 0x40 MLOAD PUSH3 0x461BCD PUSH1 0xE5 SHL DUP2 MSTORE PUSH1 0x4 ADD DUP1 DUP1 PUSH1 0x20 ADD DUP3 DUP2 SUB DUP3 MSTORE PUSH1 0x46 DUP2 MSTORE PUSH1 0x20 ADD DUP1 PUSH2 0x4D61 PUSH1 0x46 SWAP2 CODECOPY PUSH1 0x60 ADD SWAP2 POP POP PUSH1 0x40 MLOAD DUP1 SWAP2 SUB SWAP1 REVERT JUMPDEST PUSH1 0x60 PUSH1 0x3A PUSH1 0x0 DUP9 PUSH1 0x1 PUSH1 0x1 PUSH1 0xA0 SHL SUB AND PUSH1 0x1 PUSH1 0x1 PUSH1 0xA0 SHL SUB AND DUP2 MSTORE PUSH1 0x20 ADD SWAP1 DUP2 MSTORE PUSH1 0x20 ADD PUSH1 0x0 KECCAK256 PUSH1 0x1 ADD DUP1 SLOAD PUSH1 0x1 DUP2 PUSH1 0x1 AND ISZERO PUSH2 0x100 MUL SUB AND PUSH1 0x2 SWAP1 DIV DUP1 PUSH1 0x1F ADD PUSH1 0x20 DUP1 SWAP2 DIV MUL PUSH1 0x20 ADD PUSH1 0x40 MLOAD SWAP1 DUP2 ADD PUSH1 0x40 MSTORE DUP1 SWAP3 SWAP2 SWAP1 DUP2 DUP2 MSTORE PUSH1 0x20 ADD DUP3 DUP1 SLOAD PUSH1 0x1 DUP2 PUSH1 0x1 AND ISZERO PUSH2 0x100 MUL SUB AND PUSH1 0x2 SWAP1 DIV DUP1 ISZERO PUSH2 0x255A JUMPI DUP1 PUSH1 0x1F LT PUSH2 0x252F JUMPI PUSH2 0x100 DUP1 DUP4 SLOAD DIV MUL DUP4 MSTORE SWAP2 PUSH1 0x20 ADD SWAP2 PUSH2 0x255A JUMP JUMPDEST DUP3 ADD SWAP2 SWAP1 PUSH1 0x0 MSTORE PUSH1 0x20 PUSH1 0x0 KECCAK256 SWAP1 JUMPDEST DUP2 SLOAD DUP2 MSTORE SWAP1 PUSH1 0x1 ADD SWAP1 PUSH1 0x20 ADD DUP1 DUP4 GT PUSH2 0x253D JUMPI DUP3 SWAP1 SUB PUSH1 0x1F AND DUP3 ADD SWAP2 JUMPDEST POP POP POP POP PUSH1 0x1 PUSH1 0x1 PUSH1 0xA0 SHL SUB DUP10 AND PUSH1 0x0 SWAP1 DUP2 MSTORE PUSH1 0x3A PUSH1 0x20 MSTORE PUSH1 0x40 DUP2 KECCAK256 DUP1 SLOAD PUSH1 0xFF NOT AND DUP2 SSTORE SWAP3 SWAP4 POP SWAP1 POP PUSH2 0x2590 PUSH1 0x1 DUP4 ADD DUP3 PUSH2 0x4C73 JUMP JUMPDEST POP PUSH1 0x2 DUP2 DUP2 ADD DUP1 SLOAD PUSH1 0x1 PUSH1 0x1 PUSH1 0xA0 SHL SUB NOT AND SWAP1 SSTORE PUSH1 0x0 PUSH1 0x3 DUP4 ADD DUP2 SWAP1 SSTORE PUSH1 0x4 DUP4 ADD DUP1 SLOAD PUSH1 0xFF NOT AND SWAP1 SSTORE PUSH1 0x5 DUP4 ADD DUP2 SWAP1 SSTORE PUSH1 0x6 DUP4 ADD DUP2 SWAP1 SSTORE PUSH1 0x7 DUP4 ADD DUP2 SWAP1 SSTORE PUSH1 0x8 SWAP1 SWAP3 ADD DUP3 SWAP1 SSTORE PUSH1 0x1 PUSH1 0x1 PUSH1 0xA0 SHL SUB DUP10 AND DUP3 MSTORE PUSH1 0x56 PUSH1 0x20 SWAP1 DUP2 MSTORE PUSH1 0x40 DUP1 DUP5 KECCAK256 DUP5 DUP2 SSTORE PUSH1 0x1 DUP2 ADD DUP6 SWAP1 SSTORE SWAP1 SWAP3 ADD DUP4 SWAP1 SSTORE PUSH1 0x3B SWAP1 MSTORE DUP2 KECCAK256 SWAP1 PUSH2 0x260F DUP3 DUP3 PUSH2 0x4CBA JUMP JUMPDEST PUSH1 0x18 DUP3 ADD PUSH1 0x0 PUSH2 0x100 EXP DUP2 SLOAD SWAP1 PUSH4 0xFFFFFFFF MUL NOT AND SWAP1 SSTORE POP POP PUSH32 0x65F75A1DD08CC1DB84FBA8E6F47EE955C0A2D816B86A642BE1F1F7867BF38EE5 DUP8 DUP8 DUP4 NUMBER PUSH1 0x40 MLOAD DUP1 DUP6 PUSH1 0x1 PUSH1 0x1 PUSH1 0xA0 SHL SUB AND PUSH1 0x1 PUSH1 0x1 PUSH1 0xA0 SHL SUB AND DUP2 MSTORE PUSH1 0x20 ADD DUP5 PUSH1 0x1 PUSH1 0x1 PUSH1 0xA0 SHL SUB AND PUSH1 0x1 PUSH1 0x1 PUSH1 0xA0 SHL SUB AND DUP2 MSTORE PUSH1 0x20 ADD DUP1 PUSH1 0x20 ADD DUP4 DUP2 MSTORE PUSH1 0x20 ADD DUP3 DUP2 SUB DUP3 MSTORE DUP5 DUP2 DUP2 MLOAD DUP2 MSTORE PUSH1 0x20 ADD SWAP2 POP DUP1 MLOAD SWAP1 PUSH1 0x20 ADD SWAP1 DUP1 DUP4 DUP4 PUSH1 0x0 JUMPDEST DUP4 DUP2 LT ISZERO PUSH2 0x26C0 JUMPI DUP2 DUP2 ADD MLOAD DUP4 DUP3 ADD MSTORE PUSH1 0x20 ADD PUSH2 0x26A8 JUMP JUMPDEST POP POP POP POP SWAP1 POP SWAP1 DUP2 ADD SWAP1 PUSH1 0x1F AND DUP1 ISZERO PUSH2 0x26ED JUMPI DUP1 DUP3 SUB DUP1 MLOAD PUSH1 0x1 DUP4 PUSH1 0x20 SUB PUSH2 0x100 EXP SUB NOT AND DUP2 MSTORE PUSH1 0x20 ADD SWAP2 POP JUMPDEST POP SWAP6 POP POP POP POP POP POP PUSH1 0x40 MLOAD DUP1 SWAP2 SUB SWAP1 LOG1 POP PUSH1 0x1 SWAP7 SWAP6 POP POP POP POP POP POP JUMP JUMPDEST PUSH1 0x0 CALLER PUSH1 0x1 PUSH1 0x1 PUSH1 0xA0 SHL SUB AND PUSH1 0x34 PUSH1 0x0 SWAP1 SLOAD SWAP1 PUSH2 0x100 EXP SWAP1 DIV PUSH1 0x1 PUSH1 0x1 PUSH1 0xA0 SHL SUB AND PUSH1 0x1 PUSH1 0x1 PUSH1 0xA0 SHL SUB AND PUSH4 0xDB49224B PUSH1 0x40 MLOAD DUP2 PUSH4 0xFFFFFFFF AND PUSH1 0xE0 SHL DUP2 MSTORE PUSH1 0x4 ADD PUSH1 0x20 PUSH1 0x40 MLOAD DUP1 DUP4 SUB DUP2 DUP7 DUP1 EXTCODESIZE ISZERO DUP1 ISZERO PUSH2 0x2764 JUMPI PUSH1 0x0 DUP1 REVERT JUMPDEST POP GAS STATICCALL ISZERO DUP1 ISZERO PUSH2 0x2778 JUMPI RETURNDATASIZE PUSH1 0x0 DUP1 RETURNDATACOPY RETURNDATASIZE PUSH1 0x0 REVERT JUMPDEST POP POP POP POP PUSH1 0x40 MLOAD RETURNDATASIZE PUSH1 0x20 DUP2 LT ISZERO PUSH2 0x278E JUMPI PUSH1 0x0 DUP1 REVERT JUMPDEST POP MLOAD PUSH1 0x1 PUSH1 0x1 PUSH1 0xA0 SHL SUB AND EQ PUSH2 0x27D5 JUMPI PUSH1 0x40 MLOAD PUSH3 0x461BCD PUSH1 0xE5 SHL DUP2 MSTORE PUSH1 0x4 ADD DUP1 DUP1 PUSH1 0x20 ADD DUP3 DUP2 SUB DUP3 MSTORE PUSH1 0x3A DUP2 MSTORE PUSH1 0x20 ADD DUP1 PUSH2 0x4F2F PUSH1 0x3A SWAP2 CODECOPY PUSH1 0x40 ADD SWAP2 POP POP PUSH1 0x40 MLOAD DUP1 SWAP2 SUB SWAP1 REVERT JUMPDEST PUSH1 0x1 PUSH1 0x1 PUSH1 0xA0 SHL SUB DUP3 AND PUSH1 0x0 SWAP1 DUP2 MSTORE PUSH1 0x3A PUSH1 0x20 MSTORE PUSH1 0x40 SWAP1 KECCAK256 SLOAD PUSH1 0xFF AND PUSH2 0x2830 JUMPI PUSH1 0x40 DUP1 MLOAD PUSH3 0x461BCD PUSH1 0xE5 SHL DUP2 MSTORE PUSH1 0x20 PUSH1 0x4 DUP3 ADD MSTORE PUSH1 0x19 PUSH1 0x24 DUP3 ADD MSTORE PUSH1 0x0 DUP1 MLOAD PUSH1 0x20 PUSH2 0x5205 DUP4 CODECOPY DUP2 MLOAD SWAP2 MSTORE PUSH1 0x44 DUP3 ADD MSTORE SWAP1 MLOAD SWAP1 DUP2 SWAP1 SUB PUSH1 0x64 ADD SWAP1 REVERT JUMPDEST PUSH1 0x1 PUSH1 0x1 PUSH1 0xA0 SHL SUB DUP3 AND PUSH1 0x0 SWAP1 DUP2 MSTORE PUSH1 0x3A PUSH1 0x20 MSTORE PUSH1 0x40 SWAP1 KECCAK256 PUSH1 0x4 ADD SLOAD PUSH1 0xFF AND ISZERO PUSH2 0x288B JUMPI PUSH1 0x40 MLOAD PUSH3 0x461BCD PUSH1 0xE5 SHL DUP2 MSTORE PUSH1 0x4 ADD DUP1 DUP1 PUSH1 0x20 ADD DUP3 DUP2 SUB DUP3 MSTORE PUSH1 0x3C DUP2 MSTORE PUSH1 0x20 ADD DUP1 PUSH2 0x4E4C PUSH1 0x3C SWAP2 CODECOPY PUSH1 0x40 ADD SWAP2 POP POP PUSH1 0x40 MLOAD DUP1 SWAP2 SUB SWAP1 REVERT JUMPDEST PUSH2 0x2893 PUSH2 0x205A JUMP JUMPDEST POP PUSH1 0x1 PUSH1 0x1 PUSH1 0xA0 SHL SUB DUP3 AND PUSH1 0x0 SWAP1 DUP2 MSTORE PUSH1 0x3A PUSH1 0x20 MSTORE PUSH1 0x40 SWAP1 KECCAK256 PUSH1 0x4 DUP2 ADD DUP1 SLOAD PUSH1 0xFF NOT AND PUSH1 0x1 SWAP1 DUP2 OR SWAP2 DUP3 SWAP1 SSTORE PUSH32 0x95EB8164ADA5BBD9B16BB9918BCF97960C1D006F76427F3FAF2BFB2EBC963E42 SWAP3 DUP6 SWAP3 SWAP2 ADD SWAP1 PUSH1 0xFF AND PUSH2 0x28F1 PUSH2 0xC29 JUMP JUMPDEST PUSH1 0x40 DUP1 MLOAD PUSH1 0x1 PUSH1 0x1 PUSH1 0xA0 SHL SUB DUP7 AND DUP2 MSTORE DUP4 ISZERO ISZERO SWAP2 DUP2 ADD SWAP2 SWAP1 SWAP2 MSTORE PUSH4 0xFFFFFFFF DUP3 AND PUSH1 0x60 DUP3 ADD MSTORE PUSH1 0x80 PUSH1 0x20 DUP3 ADD DUP2 DUP2 MSTORE DUP6 SLOAD PUSH1 0x2 PUSH1 0x0 NOT PUSH2 0x100 PUSH1 0x1 DUP5 AND ISZERO MUL ADD SWAP1 SWAP2 AND DIV SWAP2 DUP4 ADD DUP3 SWAP1 MSTORE SWAP1 PUSH1 0xA0 DUP4 ADD SWAP1 DUP7 SWAP1 DUP1 ISZERO PUSH2 0x2990 JUMPI DUP1 PUSH1 0x1F LT PUSH2 0x2965 JUMPI PUSH2 0x100 DUP1 DUP4 SLOAD DIV MUL DUP4 MSTORE SWAP2 PUSH1 0x20 ADD SWAP2 PUSH2 0x2990 JUMP JUMPDEST DUP3 ADD SWAP2 SWAP1 PUSH1 0x0 MSTORE PUSH1 0x20 PUSH1 0x0 KECCAK256 SWAP1 JUMPDEST DUP2 SLOAD DUP2 MSTORE SWAP1 PUSH1 0x1 ADD SWAP1 PUSH1 0x20 ADD DUP1 DUP4 GT PUSH2 0x2973 JUMPI DUP3 SWAP1 SUB PUSH1 0x1F AND DUP3 ADD SWAP2 JUMPDEST POP POP SWAP6 POP POP POP POP POP POP PUSH1 0x40 MLOAD DUP1 SWAP2 SUB SWAP1 LOG1 POP PUSH1 0x1 SWAP2 SWAP1 POP JUMP JUMPDEST PUSH1 0x0 PUSH2 0x29B3 PUSH2 0xC29 JUMP JUMPDEST PUSH1 0x1 PUSH1 0x1 PUSH1 0xA0 SHL SUB DUP4 AND PUSH1 0x0 SWAP1 DUP2 MSTORE PUSH1 0x3A PUSH1 0x20 MSTORE PUSH1 0x40 SWAP1 KECCAK256 PUSH1 0x6 ADD SLOAD PUSH4 0xFFFFFFFF SWAP2 SWAP1 SWAP2 AND EQ ISZERO PUSH2 0x29E6 JUMPI POP PUSH1 0x1 PUSH2 0x984 JUMP JUMPDEST PUSH1 0x1 PUSH1 0x1 PUSH1 0xA0 SHL SUB DUP3 AND PUSH1 0x0 SWAP1 DUP2 MSTORE PUSH1 0x3A PUSH1 0x20 SWAP1 DUP2 MSTORE PUSH1 0x40 DUP1 DUP4 KECCAK256 PUSH1 0x56 DUP4 MSTORE DUP2 DUP5 KECCAK256 DUP1 SLOAD PUSH1 0x2 SWAP1 SWAP2 ADD SLOAD DUP4 MLOAD PUSH1 0x60 DUP2 ADD SWAP1 SWAP5 MSTORE PUSH1 0x33 DUP1 DUP6 MSTORE SWAP3 SWAP6 SWAP5 PUSH2 0x2A37 SWAP5 SWAP3 SWAP4 SWAP2 SWAP3 SWAP2 SWAP1 PUSH2 0x4E88 SWAP1 DUP4 ADD CODECOPY PUSH2 0x4196 JUMP JUMPDEST SWAP1 POP PUSH1 0x0 PUSH2 0x2A43 PUSH2 0xC29 JUMP JUMPDEST PUSH4 0xFFFFFFFF AND SWAP1 POP PUSH1 0x0 DUP4 PUSH1 0x5 ADD SLOAD SWAP1 POP PUSH1 0x0 PUSH2 0x2A7D DUP4 DUP7 PUSH1 0x6 ADD SLOAD PUSH1 0x40 MLOAD DUP1 PUSH1 0x60 ADD PUSH1 0x40 MSTORE DUP1 PUSH1 0x33 DUP2 MSTORE PUSH1 0x20 ADD PUSH2 0x519A PUSH1 0x33 SWAP2 CODECOPY PUSH2 0x3456 JUMP JUMPDEST PUSH1 0x6 DUP7 ADD SLOAD PUSH1 0x40 DUP1 MLOAD PUSH1 0x1 PUSH1 0x1 PUSH1 0xA0 SHL SUB DUP12 AND DUP2 MSTORE PUSH1 0x20 DUP2 ADD DUP9 SWAP1 MSTORE DUP1 DUP3 ADD DUP7 SWAP1 MSTORE PUSH1 0x60 DUP2 ADD SWAP3 SWAP1 SWAP3 MSTORE PUSH1 0x80 DUP3 ADD DUP7 SWAP1 MSTORE PUSH1 0xA0 DUP3 ADD DUP4 SWAP1 MSTORE MLOAD SWAP2 SWAP3 POP PUSH32 0x33C3C4FBBF284318EED04C3CF9DAAC06E5923D93FE4A2BE263A7EF9CA04A61D1 SWAP2 SWAP1 DUP2 SWAP1 SUB PUSH1 0xC0 ADD SWAP1 LOG1 PUSH1 0x0 DUP2 GT DUP1 ISZERO PUSH2 0x2AF4 JUMPI POP PUSH1 0x0 DUP5 GT JUMPDEST ISZERO PUSH2 0x2C63 JUMPI PUSH1 0x0 PUSH2 0x2B05 DUP3 DUP7 PUSH2 0x41F4 JUMP JUMPDEST PUSH1 0x37 SLOAD PUSH1 0x40 DUP1 MLOAD PUSH4 0x792A0FEB PUSH1 0xE0 SHL DUP2 MSTORE PUSH1 0x1 PUSH1 0x1 PUSH1 0xA0 SHL SUB DUP13 DUP2 AND PUSH1 0x4 DUP4 ADD MSTORE SWAP2 MLOAD SWAP4 SWAP5 POP PUSH1 0x0 SWAP4 SWAP2 SWAP1 SWAP3 AND SWAP2 PUSH4 0x792A0FEB SWAP2 PUSH1 0x24 DUP1 DUP4 ADD SWAP3 PUSH1 0x20 SWAP3 SWAP2 SWAP1 DUP3 SWAP1 SUB ADD DUP2 DUP7 DUP1 EXTCODESIZE ISZERO DUP1 ISZERO PUSH2 0x2B58 JUMPI PUSH1 0x0 DUP1 REVERT JUMPDEST POP GAS STATICCALL ISZERO DUP1 ISZERO PUSH2 0x2B6C JUMPI RETURNDATASIZE PUSH1 0x0 DUP1 RETURNDATACOPY RETURNDATASIZE PUSH1 0x0 REVERT JUMPDEST POP POP POP POP PUSH1 0x40 MLOAD RETURNDATASIZE PUSH1 0x20 DUP2 LT ISZERO PUSH2 0x2B82 JUMPI PUSH1 0x0 DUP1 REVERT JUMPDEST POP MLOAD SWAP1 POP PUSH2 0x2B8E PUSH2 0x4CC9 JUMP JUMPDEST PUSH1 0x0 DUP3 GT PUSH2 0x2BAB JUMPI PUSH1 0x40 MLOAD DUP1 PUSH1 0x20 ADD PUSH1 0x40 MSTORE DUP1 PUSH1 0x0 DUP2 MSTORE POP PUSH2 0x2BB5 JUMP JUMPDEST PUSH2 0x2BB5 DUP4 DUP4 PUSH2 0x4236 JUMP JUMPDEST SWAP1 POP PUSH2 0x2BBF PUSH2 0x4CC9 JUMP JUMPDEST PUSH2 0x2BDB PUSH1 0x40 MLOAD DUP1 PUSH1 0x20 ADD PUSH1 0x40 MSTORE DUP1 DUP12 PUSH1 0x5 ADD SLOAD DUP2 MSTORE POP DUP4 PUSH2 0x4274 JUMP JUMPDEST SWAP1 POP PUSH32 0xE95DD326FD60B246147CA887C909941BE4959F1D69568FADA2DE48030966A6B6 DUP12 DUP5 DUP7 DUP6 PUSH1 0x0 ADD MLOAD DUP6 PUSH1 0x0 ADD MLOAD PUSH1 0x40 MLOAD DUP1 DUP7 PUSH1 0x1 PUSH1 0x1 PUSH1 0xA0 SHL SUB AND PUSH1 0x1 PUSH1 0x1 PUSH1 0xA0 SHL SUB AND DUP2 MSTORE PUSH1 0x20 ADD DUP6 DUP2 MSTORE PUSH1 0x20 ADD DUP5 DUP2 MSTORE PUSH1 0x20 ADD DUP4 DUP2 MSTORE PUSH1 0x20 ADD DUP3 DUP2 MSTORE PUSH1 0x20 ADD SWAP6 POP POP POP POP POP POP PUSH1 0x40 MLOAD DUP1 SWAP2 SUB SWAP1 LOG1 MLOAD PUSH1 0x5 DUP10 ADD SSTORE POP POP POP PUSH1 0x6 DUP6 ADD DUP4 SWAP1 SSTORE PUSH2 0x2C6B JUMP JUMPDEST PUSH1 0x6 DUP6 ADD DUP4 SWAP1 SSTORE JUMPDEST PUSH2 0x2C73 PUSH2 0x4BF6 JUMP JUMPDEST PUSH1 0x1 PUSH1 0x1 PUSH1 0xA0 SHL SUB DUP9 AND PUSH1 0x0 SWAP1 DUP2 MSTORE PUSH1 0x3A PUSH1 0x20 SWAP1 DUP2 MSTORE PUSH1 0x40 SWAP2 DUP3 SWAP1 KECCAK256 DUP3 MLOAD PUSH2 0x120 DUP2 ADD DUP5 MSTORE DUP2 SLOAD PUSH1 0xFF AND ISZERO ISZERO DUP2 MSTORE PUSH1 0x1 DUP1 DUP4 ADD DUP1 SLOAD DUP7 MLOAD PUSH1 0x2 PUSH2 0x100 SWAP5 DUP4 AND ISZERO SWAP5 SWAP1 SWAP5 MUL PUSH1 0x0 NOT ADD SWAP1 SWAP2 AND SWAP3 SWAP1 SWAP3 DIV PUSH1 0x1F DUP2 ADD DUP7 SWAP1 DIV DUP7 MUL DUP4 ADD DUP7 ADD SWAP1 SWAP7 MSTORE DUP6 DUP3 MSTORE SWAP2 SWAP5 SWAP3 SWAP4 DUP6 DUP2 ADD SWAP4 SWAP2 SWAP3 SWAP2 SWAP1 DUP4 ADD DUP3 DUP3 DUP1 ISZERO PUSH2 0x2D32 JUMPI DUP1 PUSH1 0x1F LT PUSH2 0x2D07 JUMPI PUSH2 0x100 DUP1 DUP4 SLOAD DIV MUL DUP4 MSTORE SWAP2 PUSH1 0x20 ADD SWAP2 PUSH2 0x2D32 JUMP JUMPDEST DUP3 ADD SWAP2 SWAP1 PUSH1 0x0 MSTORE PUSH1 0x20 PUSH1 0x0 KECCAK256 SWAP1 JUMPDEST DUP2 SLOAD DUP2 MSTORE SWAP1 PUSH1 0x1 ADD SWAP1 PUSH1 0x20 ADD DUP1 DUP4 GT PUSH2 0x2D15 JUMPI DUP3 SWAP1 SUB PUSH1 0x1F AND DUP3 ADD SWAP2 JUMPDEST POP POP POP POP POP DUP2 MSTORE PUSH1 0x20 ADD PUSH1 0x2 DUP3 ADD PUSH1 0x0 SWAP1 SLOAD SWAP1 PUSH2 0x100 EXP SWAP1 DIV PUSH1 0x1 PUSH1 0x1 PUSH1 0xA0 SHL SUB AND PUSH1 0x1 PUSH1 0x1 PUSH1 0xA0 SHL SUB AND PUSH1 0x1 PUSH1 0x1 PUSH1 0xA0 SHL SUB AND DUP2 MSTORE PUSH1 0x20 ADD PUSH1 0x3 DUP3 ADD SLOAD DUP2 MSTORE PUSH1 0x20 ADD PUSH1 0x4 DUP3 ADD PUSH1 0x0 SWAP1 SLOAD SWAP1 PUSH2 0x100 EXP SWAP1 DIV PUSH1 0xFF AND ISZERO ISZERO ISZERO ISZERO DUP2 MSTORE PUSH1 0x20 ADD PUSH1 0x5 DUP3 ADD SLOAD DUP2 MSTORE PUSH1 0x20 ADD PUSH1 0x6 DUP3 ADD SLOAD DUP2 MSTORE PUSH1 0x20 ADD PUSH1 0x7 DUP3 ADD SLOAD DUP2 MSTORE PUSH1 0x20 ADD PUSH1 0x8 DUP3 ADD SLOAD DUP2 MSTORE POP POP SWAP1 POP PUSH32 0x4154C6DBC61D39E4A9BD51DFA697154D646E7B335507287D93212C0382DE097 DUP9 DUP3 PUSH1 0xA0 ADD MLOAD DUP4 PUSH1 0xC0 ADD MLOAD PUSH1 0x40 MLOAD DUP1 DUP5 PUSH1 0x1 PUSH1 0x1 PUSH1 0xA0 SHL SUB AND PUSH1 0x1 PUSH1 0x1 PUSH1 0xA0 SHL SUB AND DUP2 MSTORE PUSH1 0x20 ADD DUP4 DUP2 MSTORE PUSH1 0x20 ADD DUP3 DUP2 MSTORE PUSH1 0x20 ADD SWAP4 POP POP POP POP PUSH1 0x40 MLOAD DUP1 SWAP2 SUB SWAP1 LOG1 POP PUSH1 0x1 SWAP8 SWAP7 POP POP POP POP POP POP POP JUMP JUMPDEST PUSH1 0x0 PUSH2 0x162A DUP4 DUP4 PUSH1 0x40 MLOAD DUP1 PUSH1 0x40 ADD PUSH1 0x40 MSTORE DUP1 PUSH1 0x15 DUP2 MSTORE PUSH1 0x20 ADD PUSH21 0x7375627472616374696F6E20756E646572666C6F77 PUSH1 0x58 SHL DUP2 MSTORE POP PUSH2 0x3456 JUMP JUMPDEST PUSH1 0x0 PUSH2 0x2E6C PUSH2 0xC29 JUMP JUMPDEST PUSH1 0x1 PUSH1 0x1 PUSH1 0xA0 SHL SUB DUP4 AND PUSH1 0x0 SWAP1 DUP2 MSTORE PUSH1 0x3A PUSH1 0x20 MSTORE PUSH1 0x40 SWAP1 KECCAK256 PUSH1 0x8 ADD SLOAD PUSH4 0xFFFFFFFF SWAP2 SWAP1 SWAP2 AND EQ ISZERO PUSH2 0x2E9F JUMPI POP PUSH1 0x1 PUSH2 0x984 JUMP JUMPDEST PUSH1 0x1 PUSH1 0x1 PUSH1 0xA0 SHL SUB DUP3 AND PUSH1 0x0 SWAP1 DUP2 MSTORE PUSH1 0x3A PUSH1 0x20 SWAP1 DUP2 MSTORE PUSH1 0x40 DUP1 DUP4 KECCAK256 PUSH1 0x56 DUP4 MSTORE DUP2 DUP5 KECCAK256 PUSH1 0x1 DUP2 ADD SLOAD PUSH1 0x2 SWAP1 SWAP2 ADD SLOAD DUP4 MLOAD PUSH1 0x60 DUP2 ADD SWAP1 SWAP5 MSTORE PUSH1 0x33 DUP1 DUP6 MSTORE SWAP3 SWAP6 SWAP5 PUSH2 0x2EF3 SWAP5 SWAP3 SWAP4 SWAP2 SWAP3 SWAP2 SWAP1 PUSH2 0x4E88 SWAP1 DUP4 ADD CODECOPY PUSH2 0x4196 JUMP JUMPDEST SWAP1 POP PUSH1 0x0 PUSH2 0x2EFF PUSH2 0xC29 JUMP JUMPDEST PUSH4 0xFFFFFFFF AND SWAP1 POP PUSH1 0x0 DUP4 PUSH1 0x7 ADD SLOAD SWAP1 POP PUSH1 0x0 PUSH2 0x2F39 DUP4 DUP7 PUSH1 0x8 ADD SLOAD PUSH1 0x40 MLOAD DUP1 PUSH1 0x60 ADD PUSH1 0x40 MSTORE DUP1 PUSH1 0x33 DUP2 MSTORE PUSH1 0x20 ADD PUSH2 0x5068 PUSH1 0x33 SWAP2 CODECOPY PUSH2 0x3456 JUMP JUMPDEST PUSH1 0x8 DUP7 ADD SLOAD PUSH1 0x40 DUP1 MLOAD PUSH1 0x1 PUSH1 0x1 PUSH1 0xA0 SHL SUB DUP12 AND DUP2 MSTORE PUSH1 0x20 DUP2 ADD DUP9 SWAP1 MSTORE DUP1 DUP3 ADD DUP7 SWAP1 MSTORE PUSH1 0x60 DUP2 ADD SWAP3 SWAP1 SWAP3 MSTORE PUSH1 0x80 DUP3 ADD DUP7 SWAP1 MSTORE PUSH1 0xA0 DUP3 ADD DUP4 SWAP1 MSTORE MLOAD SWAP2 SWAP3 POP PUSH32 0xA058DFD6C04D9834195C4B80AE7CA35418D9D07D684CDEB45972EEC16C1B336E SWAP2 SWAP1 DUP2 SWAP1 SUB PUSH1 0xC0 ADD SWAP1 LOG1 PUSH1 0x0 DUP2 GT DUP1 ISZERO PUSH2 0x2FB0 JUMPI POP PUSH1 0x0 DUP5 GT JUMPDEST ISZERO PUSH2 0x311F JUMPI PUSH1 0x0 PUSH2 0x2FC1 DUP3 DUP7 PUSH2 0x41F4 JUMP JUMPDEST PUSH1 0x37 SLOAD PUSH1 0x40 DUP1 MLOAD PUSH4 0x915C83B PUSH1 0xE2 SHL DUP2 MSTORE PUSH1 0x1 PUSH1 0x1 PUSH1 0xA0 SHL SUB DUP13 DUP2 AND PUSH1 0x4 DUP4 ADD MSTORE SWAP2 MLOAD SWAP4 SWAP5 POP PUSH1 0x0 SWAP4 SWAP2 SWAP1 SWAP3 AND SWAP2 PUSH4 0x245720EC SWAP2 PUSH1 0x24 DUP1 DUP4 ADD SWAP3 PUSH1 0x20 SWAP3 SWAP2 SWAP1 DUP3 SWAP1 SUB ADD DUP2 DUP7 DUP1 EXTCODESIZE ISZERO DUP1 ISZERO PUSH2 0x3014 JUMPI PUSH1 0x0 DUP1 REVERT JUMPDEST POP GAS STATICCALL ISZERO DUP1 ISZERO PUSH2 0x3028 JUMPI RETURNDATASIZE PUSH1 0x0 DUP1 RETURNDATACOPY RETURNDATASIZE PUSH1 0x0 REVERT JUMPDEST POP POP POP POP PUSH1 0x40 MLOAD RETURNDATASIZE PUSH1 0x20 DUP2 LT ISZERO PUSH2 0x303E JUMPI PUSH1 0x0 DUP1 REVERT JUMPDEST POP MLOAD SWAP1 POP PUSH2 0x304A PUSH2 0x4CC9 JUMP JUMPDEST PUSH1 0x0 DUP3 GT PUSH2 0x3067 JUMPI PUSH1 0x40 MLOAD DUP1 PUSH1 0x20 ADD PUSH1 0x40 MSTORE DUP1 PUSH1 0x0 DUP2 MSTORE POP PUSH2 0x3071 JUMP JUMPDEST PUSH2 0x3071 DUP4 DUP4 PUSH2 0x4236 JUMP JUMPDEST SWAP1 POP PUSH2 0x307B PUSH2 0x4CC9 JUMP JUMPDEST PUSH2 0x3097 PUSH1 0x40 MLOAD DUP1 PUSH1 0x20 ADD PUSH1 0x40 MSTORE DUP1 DUP12 PUSH1 0x7 ADD SLOAD DUP2 MSTORE POP DUP4 PUSH2 0x4274 JUMP JUMPDEST SWAP1 POP PUSH32 0xBE37F70E594E12D41728104A3B673F3291F124EA114F134A0880E6F5F84B16C DUP12 DUP5 DUP7 DUP6 PUSH1 0x0 ADD MLOAD DUP6 PUSH1 0x0 ADD MLOAD PUSH1 0x40 MLOAD DUP1 DUP7 PUSH1 0x1 PUSH1 0x1 PUSH1 0xA0 SHL SUB AND PUSH1 0x1 PUSH1 0x1 PUSH1 0xA0 SHL SUB AND DUP2 MSTORE PUSH1 0x20 ADD DUP6 DUP2 MSTORE PUSH1 0x20 ADD DUP5 DUP2 MSTORE PUSH1 0x20 ADD DUP4 DUP2 MSTORE PUSH1 0x20 ADD DUP3 DUP2 MSTORE PUSH1 0x20 ADD SWAP6 POP POP POP POP POP POP PUSH1 0x40 MLOAD DUP1 SWAP2 SUB SWAP1 LOG1 MLOAD PUSH1 0x7 DUP10 ADD SSTORE POP POP POP PUSH1 0x8 DUP6 ADD DUP4 SWAP1 SSTORE PUSH2 0x3127 JUMP JUMPDEST PUSH1 0x8 DUP6 ADD DUP4 SWAP1 SSTORE JUMPDEST PUSH2 0x312F PUSH2 0x4BF6 JUMP JUMPDEST PUSH1 0x1 PUSH1 0x1 PUSH1 0xA0 SHL SUB DUP9 AND PUSH1 0x0 SWAP1 DUP2 MSTORE PUSH1 0x3A PUSH1 0x20 SWAP1 DUP2 MSTORE PUSH1 0x40 SWAP2 DUP3 SWAP1 KECCAK256 DUP3 MLOAD PUSH2 0x120 DUP2 ADD DUP5 MSTORE DUP2 SLOAD PUSH1 0xFF AND ISZERO ISZERO DUP2 MSTORE PUSH1 0x1 DUP1 DUP4 ADD DUP1 SLOAD DUP7 MLOAD PUSH1 0x2 PUSH2 0x100 SWAP5 DUP4 AND ISZERO SWAP5 SWAP1 SWAP5 MUL PUSH1 0x0 NOT ADD SWAP1 SWAP2 AND SWAP3 SWAP1 SWAP3 DIV PUSH1 0x1F DUP2 ADD DUP7 SWAP1 DIV DUP7 MUL DUP4 ADD DUP7 ADD SWAP1 SWAP7 MSTORE DUP6 DUP3 MSTORE SWAP2 SWAP5 SWAP3 SWAP4 DUP6 DUP2 ADD SWAP4 SWAP2 SWAP3 SWAP2 SWAP1 DUP4 ADD DUP3 DUP3 DUP1 ISZERO PUSH2 0x31EE JUMPI DUP1 PUSH1 0x1F LT PUSH2 0x31C3 JUMPI PUSH2 0x100 DUP1 DUP4 SLOAD DIV MUL DUP4 MSTORE SWAP2 PUSH1 0x20 ADD SWAP2 PUSH2 0x31EE JUMP JUMPDEST DUP3 ADD SWAP2 SWAP1 PUSH1 0x0 MSTORE PUSH1 0x20 PUSH1 0x0 KECCAK256 SWAP1 JUMPDEST DUP2 SLOAD DUP2 MSTORE SWAP1 PUSH1 0x1 ADD SWAP1 PUSH1 0x20 ADD DUP1 DUP4 GT PUSH2 0x31D1 JUMPI DUP3 SWAP1 SUB PUSH1 0x1F AND DUP3 ADD SWAP2 JUMPDEST POP POP POP SWAP2 DUP4 MSTORE POP POP PUSH1 0x2 DUP3 ADD SLOAD PUSH1 0x1 PUSH1 0x1 PUSH1 0xA0 SHL SUB SWAP1 DUP2 AND PUSH1 0x20 DUP1 DUP5 ADD SWAP2 SWAP1 SWAP2 MSTORE PUSH1 0x3 DUP5 ADD SLOAD PUSH1 0x40 DUP1 DUP6 ADD SWAP2 SWAP1 SWAP2 MSTORE PUSH1 0x4 DUP6 ADD SLOAD PUSH1 0xFF AND ISZERO ISZERO PUSH1 0x60 DUP1 DUP7 ADD SWAP2 SWAP1 SWAP2 MSTORE PUSH1 0x5 DUP7 ADD SLOAD PUSH1 0x80 DUP7 ADD MSTORE PUSH1 0x6 DUP7 ADD SLOAD PUSH1 0xA0 DUP7 ADD MSTORE PUSH1 0x7 DUP7 ADD SLOAD PUSH1 0xC0 DUP7 ADD MSTORE PUSH1 0x8 SWAP1 SWAP6 ADD SLOAD PUSH1 0xE0 SWAP5 DUP6 ADD MSTORE SWAP3 DUP6 ADD MLOAD PUSH2 0x100 DUP7 ADD MLOAD DUP5 MLOAD SWAP4 DUP16 AND DUP5 MSTORE SWAP2 DUP4 ADD MSTORE DUP2 DUP4 ADD MSTORE SWAP1 MLOAD SWAP3 SWAP4 POP PUSH32 0x3186AADA172C7DFC5268ED7AFCFE1AF6F94D695B869760B6C2F90D092256056E SWAP3 SWAP1 DUP2 SWAP1 SUB SWAP1 SWAP2 ADD SWAP1 LOG1 POP PUSH1 0x1 SWAP8 SWAP7 POP POP POP POP POP POP POP JUMP JUMPDEST PUSH1 0x34 PUSH1 0x0 SWAP1 SLOAD SWAP1 PUSH2 0x100 EXP SWAP1 DIV PUSH1 0x1 PUSH1 0x1 PUSH1 0xA0 SHL SUB AND PUSH1 0x1 PUSH1 0x1 PUSH1 0xA0 SHL SUB AND PUSH4 0x841AA40C PUSH1 0x40 MLOAD DUP2 PUSH4 0xFFFFFFFF AND PUSH1 0xE0 SHL DUP2 MSTORE PUSH1 0x4 ADD PUSH1 0x20 PUSH1 0x40 MLOAD DUP1 DUP4 SUB DUP2 DUP7 DUP1 EXTCODESIZE ISZERO DUP1 ISZERO PUSH2 0x32FF JUMPI PUSH1 0x0 DUP1 REVERT JUMPDEST POP GAS STATICCALL ISZERO DUP1 ISZERO PUSH2 0x3313 JUMPI RETURNDATASIZE PUSH1 0x0 DUP1 RETURNDATACOPY RETURNDATASIZE PUSH1 0x0 REVERT JUMPDEST POP POP POP POP PUSH1 0x40 MLOAD RETURNDATASIZE PUSH1 0x20 DUP2 LT ISZERO PUSH2 0x3329 JUMPI PUSH1 0x0 DUP1 REVERT JUMPDEST POP MLOAD PUSH1 0x35 DUP1 SLOAD PUSH1 0x1 PUSH1 0x1 PUSH1 0xA0 SHL SUB NOT AND PUSH1 0x1 PUSH1 0x1 PUSH1 0xA0 SHL SUB SWAP3 DUP4 AND OR SWAP1 SSTORE PUSH1 0x34 SLOAD PUSH1 0x40 DUP1 MLOAD PUSH4 0x1F94A275 PUSH1 0xE3 SHL DUP2 MSTORE SWAP1 MLOAD SWAP2 SWAP1 SWAP3 AND SWAP2 PUSH4 0xFCA513A8 SWAP2 PUSH1 0x4 DUP1 DUP4 ADD SWAP3 PUSH1 0x20 SWAP3 SWAP2 SWAP1 DUP3 SWAP1 SUB ADD DUP2 DUP7 DUP1 EXTCODESIZE ISZERO DUP1 ISZERO PUSH2 0x3384 JUMPI PUSH1 0x0 DUP1 REVERT JUMPDEST POP GAS STATICCALL ISZERO DUP1 ISZERO PUSH2 0x3398 JUMPI RETURNDATASIZE PUSH1 0x0 DUP1 RETURNDATACOPY RETURNDATASIZE PUSH1 0x0 REVERT JUMPDEST POP POP POP POP PUSH1 0x40 MLOAD RETURNDATASIZE PUSH1 0x20 DUP2 LT ISZERO PUSH2 0x33AE JUMPI PUSH1 0x0 DUP1 REVERT JUMPDEST POP MLOAD PUSH1 0x36 DUP1 SLOAD PUSH1 0x1 PUSH1 0x1 PUSH1 0xA0 SHL SUB NOT AND PUSH1 0x1 PUSH1 0x1 PUSH1 0xA0 SHL SUB SWAP3 DUP4 AND OR SWAP1 SSTORE PUSH1 0x34 SLOAD PUSH1 0x40 DUP1 MLOAD PUSH4 0x76B7FBB PUSH1 0xE5 SHL DUP2 MSTORE SWAP1 MLOAD SWAP2 SWAP1 SWAP3 AND SWAP2 PUSH4 0xED6FF760 SWAP2 PUSH1 0x4 DUP1 DUP4 ADD SWAP3 PUSH1 0x20 SWAP3 SWAP2 SWAP1 DUP3 SWAP1 SUB ADD DUP2 DUP7 DUP1 EXTCODESIZE ISZERO DUP1 ISZERO PUSH2 0x3409 JUMPI PUSH1 0x0 DUP1 REVERT JUMPDEST POP GAS STATICCALL ISZERO DUP1 ISZERO PUSH2 0x341D JUMPI RETURNDATASIZE PUSH1 0x0 DUP1 RETURNDATACOPY RETURNDATASIZE PUSH1 0x0 REVERT JUMPDEST POP POP POP POP PUSH1 0x40 MLOAD RETURNDATASIZE PUSH1 0x20 DUP2 LT ISZERO PUSH2 0x3433 JUMPI PUSH1 0x0 DUP1 REVERT JUMPDEST POP MLOAD PUSH1 0x37 DUP1 SLOAD PUSH1 0x1 PUSH1 0x1 PUSH1 0xA0 SHL SUB NOT AND PUSH1 0x1 PUSH1 0x1 PUSH1 0xA0 SHL SUB SWAP1 SWAP3 AND SWAP2 SWAP1 SWAP2 OR SWAP1 SSTORE JUMP JUMPDEST PUSH1 0x0 DUP2 DUP5 DUP5 GT ISZERO PUSH2 0x34E5 JUMPI PUSH1 0x40 MLOAD PUSH3 0x461BCD PUSH1 0xE5 SHL DUP2 MSTORE PUSH1 0x4 ADD DUP1 DUP1 PUSH1 0x20 ADD DUP3 DUP2 SUB DUP3 MSTORE DUP4 DUP2 DUP2 MLOAD DUP2 MSTORE PUSH1 0x20 ADD SWAP2 POP DUP1 MLOAD SWAP1 PUSH1 0x20 ADD SWAP1 DUP1 DUP4 DUP4 PUSH1 0x0 JUMPDEST DUP4 DUP2 LT ISZERO PUSH2 0x34AA JUMPI DUP2 DUP2 ADD MLOAD DUP4 DUP3 ADD MSTORE PUSH1 0x20 ADD PUSH2 0x3492 JUMP JUMPDEST POP POP POP POP SWAP1 POP SWAP1 DUP2 ADD SWAP1 PUSH1 0x1F AND DUP1 ISZERO PUSH2 0x34D7 JUMPI DUP1 DUP3 SUB DUP1 MLOAD PUSH1 0x1 DUP4 PUSH1 0x20 SUB PUSH2 0x100 EXP SUB NOT AND DUP2 MSTORE PUSH1 0x20 ADD SWAP2 POP JUMPDEST POP SWAP3 POP POP POP PUSH1 0x40 MLOAD DUP1 SWAP2 SUB SWAP1 REVERT JUMPDEST POP POP POP SWAP1 SUB SWAP1 JUMP JUMPDEST PUSH1 0x60 PUSH1 0x39 DUP1 SLOAD DUP1 PUSH1 0x20 MUL PUSH1 0x20 ADD PUSH1 0x40 MLOAD SWAP1 DUP2 ADD PUSH1 0x40 MSTORE DUP1 SWAP3 SWAP2 SWAP1 DUP2 DUP2 MSTORE PUSH1 0x20 ADD DUP3 DUP1 SLOAD DUP1 ISZERO PUSH2 0x3545 JUMPI PUSH1 0x20 MUL DUP3 ADD SWAP2 SWAP1 PUSH1 0x0 MSTORE PUSH1 0x20 PUSH1 0x0 KECCAK256 SWAP1 JUMPDEST DUP2 SLOAD PUSH1 0x1 PUSH1 0x1 PUSH1 0xA0 SHL SUB AND DUP2 MSTORE PUSH1 0x1 SWAP1 SWAP2 ADD SWAP1 PUSH1 0x20 ADD DUP1 DUP4 GT PUSH2 0x3527 JUMPI JUMPDEST POP POP PUSH1 0x54 SLOAD SWAP4 SWAP5 POP PUSH1 0x0 SWAP4 PUSH2 0x358F SWAP4 POP NUMBER SWAP3 POP PUSH1 0x3C SWAP2 POP PUSH1 0x1 PUSH1 0x1 PUSH1 0xE0 SHL SUB AND PUSH1 0x18 DUP2 LT PUSH2 0x356F JUMPI INVALID JUMPDEST ADD SLOAD PUSH1 0x40 MLOAD DUP1 PUSH1 0x60 ADD PUSH1 0x40 MSTORE DUP1 PUSH1 0x21 DUP2 MSTORE PUSH1 0x20 ADD PUSH2 0x4FD6 PUSH1 0x21 SWAP2 CODECOPY PUSH2 0x3456 JUMP JUMPDEST PUSH1 0x54 SLOAD SWAP1 SWAP2 POP NUMBER SWAP1 PUSH1 0x3C SWAP1 PUSH1 0x1 PUSH1 0x1 PUSH1 0xE0 SHL SUB AND PUSH1 0x18 DUP2 LT PUSH2 0x35AD JUMPI INVALID JUMPDEST ADD SSTORE PUSH1 0x54 SLOAD PUSH32 0xD54B3C8DDE4FE116EE9CF6976B328B65C622D171E8A73017473B4257BD5BF6F8 SWAP1 PUSH1 0x1 PUSH1 0x1 PUSH1 0xE0 SHL SUB AND PUSH1 0x3C DUP2 PUSH1 0x18 DUP2 LT PUSH2 0x35EA JUMPI INVALID JUMPDEST ADD SLOAD PUSH1 0x40 DUP1 MLOAD PUSH1 0x1 PUSH1 0x1 PUSH1 0xE0 SHL SUB SWAP1 SWAP4 AND DUP4 MSTORE PUSH1 0x20 DUP4 ADD SWAP2 SWAP1 SWAP2 MSTORE DUP2 DUP2 ADD DUP5 SWAP1 MSTORE NUMBER PUSH1 0x60 DUP4 ADD MSTORE MLOAD SWAP1 DUP2 SWAP1 SUB PUSH1 0x80 ADD SWAP1 LOG1 PUSH2 0x3623 PUSH2 0x4299 JUMP JUMPDEST PUSH2 0x365E JUMPI PUSH1 0x40 MLOAD PUSH3 0x461BCD PUSH1 0xE5 SHL DUP2 MSTORE PUSH1 0x4 ADD DUP1 DUP1 PUSH1 0x20 ADD DUP3 DUP2 SUB DUP3 MSTORE PUSH1 0x22 DUP2 MSTORE PUSH1 0x20 ADD DUP1 PUSH2 0x509B PUSH1 0x22 SWAP2 CODECOPY PUSH1 0x40 ADD SWAP2 POP POP PUSH1 0x40 MLOAD DUP1 SWAP2 SUB SWAP1 REVERT JUMPDEST PUSH1 0x60 DUP3 MLOAD PUSH1 0x40 MLOAD SWAP1 DUP1 DUP3 MSTORE DUP1 PUSH1 0x20 MUL PUSH1 0x20 ADD DUP3 ADD PUSH1 0x40 MSTORE DUP1 ISZERO PUSH2 0x369B JUMPI DUP2 PUSH1 0x20 ADD JUMPDEST PUSH2 0x3688 PUSH2 0x4CC9 JUMP JUMPDEST DUP2 MSTORE PUSH1 0x20 ADD SWAP1 PUSH1 0x1 SWAP1 SUB SWAP1 DUP2 PUSH2 0x3680 JUMPI SWAP1 POP JUMPDEST POP SWAP1 POP PUSH1 0x60 DUP4 MLOAD PUSH1 0x40 MLOAD SWAP1 DUP1 DUP3 MSTORE DUP1 PUSH1 0x20 MUL PUSH1 0x20 ADD DUP3 ADD PUSH1 0x40 MSTORE DUP1 ISZERO PUSH2 0x36DB JUMPI DUP2 PUSH1 0x20 ADD JUMPDEST PUSH2 0x36C8 PUSH2 0x4CC9 JUMP JUMPDEST DUP2 MSTORE PUSH1 0x20 ADD SWAP1 PUSH1 0x1 SWAP1 SUB SWAP1 DUP2 PUSH2 0x36C0 JUMPI SWAP1 POP JUMPDEST POP SWAP1 POP PUSH2 0x36E6 PUSH2 0x4CC9 JUMP JUMPDEST POP PUSH1 0x40 DUP1 MLOAD PUSH1 0x20 DUP2 ADD SWAP1 SWAP2 MSTORE PUSH1 0x0 DUP1 DUP3 MSTORE JUMPDEST DUP6 MLOAD DUP2 LT ISZERO PUSH2 0x3E7B JUMPI PUSH1 0x0 DUP7 DUP3 DUP2 MLOAD DUP2 LT PUSH2 0x370F JUMPI INVALID JUMPDEST PUSH1 0x20 MUL PUSH1 0x20 ADD ADD MLOAD SWAP1 POP PUSH2 0x3721 PUSH2 0x4CC9 JUMP JUMPDEST PUSH1 0x40 DUP1 MLOAD PUSH1 0x20 DUP1 DUP3 ADD DUP4 MSTORE PUSH1 0x1 PUSH1 0x1 PUSH1 0xA0 SHL SUB DUP6 AND PUSH1 0x0 SWAP1 DUP2 MSTORE PUSH1 0x3B SWAP1 SWAP2 MSTORE SWAP2 SWAP1 SWAP2 KECCAK256 PUSH1 0x54 SLOAD DUP3 SWAP2 SWAP1 PUSH1 0x1 PUSH1 0x1 PUSH1 0xE0 SHL SUB AND PUSH1 0x18 DUP2 LT PUSH2 0x375D JUMPI INVALID JUMPDEST ADD SLOAD SWAP1 MSTORE SWAP1 POP PUSH2 0x376B PUSH2 0x4CC9 JUMP JUMPDEST PUSH1 0x40 DUP1 MLOAD PUSH1 0x20 DUP1 DUP3 ADD DUP1 DUP5 MSTORE PUSH1 0x36 SLOAD PUSH4 0xB3596F07 PUSH1 0xE0 SHL SWAP1 SWAP2 MSTORE PUSH1 0x1 PUSH1 0x1 PUSH1 0xA0 SHL SUB DUP8 DUP2 AND PUSH1 0x24 DUP6 ADD MSTORE SWAP4 MLOAD SWAP3 SWAP4 DUP5 SWAP4 SWAP2 AND SWAP2 PUSH4 0xB3596F07 SWAP2 PUSH1 0x44 DUP1 DUP7 ADD SWAP3 SWAP2 SWAP1 DUP2 DUP8 SUB ADD DUP2 DUP7 DUP1 EXTCODESIZE ISZERO DUP1 ISZERO PUSH2 0x37C0 JUMPI PUSH1 0x0 DUP1 REVERT JUMPDEST POP GAS STATICCALL ISZERO DUP1 ISZERO PUSH2 0x37D4 JUMPI RETURNDATASIZE PUSH1 0x0 DUP1 RETURNDATACOPY RETURNDATASIZE PUSH1 0x0 REVERT JUMPDEST POP POP POP POP PUSH1 0x40 MLOAD RETURNDATASIZE PUSH1 0x20 DUP2 LT ISZERO PUSH2 0x37EA JUMPI PUSH1 0x0 DUP1 REVERT JUMPDEST POP MLOAD SWAP1 MSTORE DUP1 MLOAD SWAP1 SWAP2 POP PUSH2 0x382E JUMPI PUSH1 0x40 MLOAD PUSH3 0x461BCD PUSH1 0xE5 SHL DUP2 MSTORE PUSH1 0x4 ADD DUP1 DUP1 PUSH1 0x20 ADD DUP3 DUP2 SUB DUP3 MSTORE PUSH1 0x39 DUP2 MSTORE PUSH1 0x20 ADD DUP1 PUSH2 0x4F69 PUSH1 0x39 SWAP2 CODECOPY PUSH1 0x40 ADD SWAP2 POP POP PUSH1 0x40 MLOAD DUP1 SWAP2 SUB SWAP1 REVERT JUMPDEST DUP1 MLOAD PUSH1 0x1 PUSH1 0x1 PUSH1 0xA0 SHL SUB DUP5 AND PUSH1 0x0 SWAP1 DUP2 MSTORE PUSH1 0x3B PUSH1 0x20 MSTORE PUSH1 0x40 SWAP1 KECCAK256 PUSH1 0x54 SLOAD PUSH1 0x1 PUSH1 0x1 PUSH1 0xE0 SHL SUB AND PUSH1 0x18 DUP2 LT PUSH2 0x385E JUMPI INVALID JUMPDEST ADD SSTORE DUP2 MLOAD PUSH1 0x1 PUSH1 0x1 PUSH1 0xA0 SHL SUB DUP5 AND PUSH1 0x0 SWAP1 DUP2 MSTORE PUSH1 0x3B PUSH1 0x20 MSTORE PUSH1 0x40 SWAP1 KECCAK256 PUSH1 0x54 SLOAD PUSH32 0x4C4CB8D799AD60C5E77071F11A367FF22E59C2DE36F996F1DAF8A2F99B1826A5 SWAP3 DUP7 SWAP3 SWAP1 SWAP2 PUSH1 0x1 PUSH1 0x1 PUSH1 0xE0 SHL SUB AND PUSH1 0x18 DUP2 LT PUSH2 0x38B6 JUMPI INVALID JUMPDEST ADD SLOAD PUSH1 0x54 SLOAD PUSH1 0x40 DUP1 MLOAD PUSH1 0x1 PUSH1 0x1 PUSH1 0xA0 SHL SUB SWAP1 SWAP6 AND DUP6 MSTORE PUSH1 0x20 DUP6 ADD SWAP4 SWAP1 SWAP4 MSTORE DUP4 DUP4 ADD SWAP2 SWAP1 SWAP2 MSTORE PUSH1 0x1 PUSH1 0x1 PUSH1 0xE0 SHL SUB AND PUSH1 0x60 DUP4 ADD MSTORE MLOAD SWAP1 DUP2 SWAP1 SUB PUSH1 0x80 ADD SWAP1 LOG1 PUSH1 0x1 PUSH1 0x1 PUSH1 0xA0 SHL SUB DUP4 AND PUSH1 0x0 SWAP1 DUP2 MSTORE PUSH1 0x3A PUSH1 0x20 MSTORE PUSH1 0x40 SWAP1 KECCAK256 PUSH1 0x4 ADD SLOAD PUSH1 0xFF AND ISZERO DUP1 PUSH2 0x3940 JUMPI POP PUSH1 0x1 PUSH1 0x1 PUSH1 0xA0 SHL SUB DUP4 AND PUSH1 0x0 SWAP1 DUP2 MSTORE PUSH1 0x3B PUSH1 0x20 MSTORE PUSH1 0x40 SWAP1 KECCAK256 PUSH1 0x18 SWAP1 DUP2 ADD SLOAD PUSH4 0xFFFFFFFF AND EQ ISZERO JUMPDEST ISZERO PUSH2 0x3AAC JUMPI PUSH1 0x40 MLOAD DUP1 PUSH1 0x20 ADD PUSH1 0x40 MSTORE DUP1 PUSH1 0x0 DUP2 MSTORE POP DUP8 DUP6 DUP2 MLOAD DUP2 LT PUSH2 0x3961 JUMPI INVALID JUMPDEST PUSH1 0x20 MUL PUSH1 0x20 ADD ADD DUP2 SWAP1 MSTORE POP PUSH1 0x40 MLOAD DUP1 PUSH1 0x20 ADD PUSH1 0x40 MSTORE DUP1 PUSH1 0x0 DUP2 MSTORE POP DUP7 DUP6 DUP2 MLOAD DUP2 LT PUSH2 0x3988 JUMPI INVALID JUMPDEST PUSH1 0x20 SWAP1 DUP2 MUL SWAP2 SWAP1 SWAP2 ADD DUP2 ADD SWAP2 SWAP1 SWAP2 MSTORE PUSH1 0x1 PUSH1 0x1 PUSH1 0xA0 SHL SUB DUP5 AND PUSH1 0x0 SWAP1 DUP2 MSTORE PUSH1 0x3B SWAP1 SWAP2 MSTORE PUSH1 0x40 SWAP1 KECCAK256 PUSH1 0x18 SWAP1 DUP2 ADD SLOAD PUSH4 0xFFFFFFFF AND LT ISZERO PUSH2 0x3AA7 JUMPI PUSH1 0x1 PUSH1 0x1 PUSH1 0xA0 SHL SUB DUP4 AND PUSH1 0x0 SWAP1 DUP2 MSTORE PUSH1 0x3B PUSH1 0x20 SWAP1 DUP2 MSTORE PUSH1 0x40 SWAP2 DUP3 SWAP1 KECCAK256 PUSH1 0x18 ADD SLOAD DUP3 MLOAD DUP1 DUP5 ADD SWAP1 SWAP4 MSTORE PUSH1 0x1E DUP4 MSTORE PUSH32 0x507269636520436F756E746572206164646974696F6E206661696C65642E0000 SWAP2 DUP4 ADD SWAP2 SWAP1 SWAP2 MSTORE PUSH4 0xFFFFFFFF AND SWAP1 PUSH2 0x3A2A SWAP1 DUP3 SWAP1 PUSH1 0x1 SWAP1 PUSH2 0x4196 JUMP JUMPDEST PUSH1 0x1 PUSH1 0x1 PUSH1 0xA0 SHL SUB DUP6 AND PUSH1 0x0 SWAP1 DUP2 MSTORE PUSH1 0x3B PUSH1 0x20 SWAP1 DUP2 MSTORE PUSH1 0x40 SWAP2 DUP3 SWAP1 KECCAK256 PUSH1 0x18 ADD DUP1 SLOAD PUSH4 0xFFFFFFFF NOT AND PUSH4 0xFFFFFFFF SWAP5 DUP6 AND OR SWAP1 DUP2 SWAP1 SSTORE PUSH1 0x54 SLOAD DUP4 MLOAD SWAP2 SWAP1 SWAP5 AND DUP2 MSTORE PUSH1 0x1 PUSH1 0x1 PUSH1 0xE0 SHL SUB SWAP1 SWAP4 AND SWAP1 DUP4 ADD MSTORE DUP1 MLOAD PUSH32 0x696A3915458C89A47768BC2632C577BF3483B15461AF15C18411AD653C4F67AF SWAP3 DUP2 SWAP1 SUB SWAP1 SWAP2 ADD SWAP1 LOG1 POP JUMPDEST PUSH2 0x3DED JUMP JUMPDEST PUSH2 0x3AB6 DUP3 DUP3 PUSH2 0x42F2 JUMP JUMPDEST ISZERO PUSH2 0x3C77 JUMPI PUSH1 0x37 SLOAD PUSH1 0x40 DUP1 MLOAD PUSH4 0x792A0FEB PUSH1 0xE0 SHL DUP2 MSTORE PUSH1 0x1 PUSH1 0x1 PUSH1 0xA0 SHL SUB DUP7 DUP2 AND PUSH1 0x4 DUP4 ADD MSTORE SWAP2 MLOAD PUSH1 0x0 SWAP4 SWAP3 SWAP1 SWAP3 AND SWAP2 PUSH4 0x792A0FEB SWAP2 PUSH1 0x24 DUP1 DUP3 ADD SWAP3 PUSH1 0x20 SWAP3 SWAP1 SWAP2 SWAP1 DUP3 SWAP1 SUB ADD DUP2 DUP7 DUP1 EXTCODESIZE ISZERO DUP1 ISZERO PUSH2 0x3B0C JUMPI PUSH1 0x0 DUP1 REVERT JUMPDEST POP GAS STATICCALL ISZERO DUP1 ISZERO PUSH2 0x3B20 JUMPI RETURNDATASIZE PUSH1 0x0 DUP1 RETURNDATACOPY RETURNDATASIZE PUSH1 0x0 REVERT JUMPDEST POP POP POP POP PUSH1 0x40 MLOAD RETURNDATASIZE PUSH1 0x20 DUP2 LT ISZERO PUSH2 0x3B36 JUMPI PUSH1 0x0 DUP1 REVERT JUMPDEST POP MLOAD SWAP1 POP PUSH1 0x0 PUSH2 0x3B44 PUSH2 0x4CC9 JUMP JUMPDEST PUSH2 0x3B4E DUP6 DUP6 PUSH2 0x42F9 JUMP JUMPDEST SWAP2 POP SWAP2 POP PUSH1 0x0 PUSH2 0x3B5C PUSH2 0x4CC9 JUMP JUMPDEST PUSH2 0x3B66 DUP4 DUP7 PUSH2 0x4335 JUMP JUMPDEST DUP1 MLOAD PUSH1 0x1 PUSH1 0x1 PUSH1 0xA0 SHL SUB DUP1 DUP13 AND PUSH1 0x0 DUP2 DUP2 MSTORE PUSH1 0x3A PUSH1 0x20 SWAP1 DUP2 MSTORE PUSH1 0x40 SWAP2 DUP3 SWAP1 KECCAK256 PUSH1 0x3 ADD SLOAD PUSH1 0x36 SLOAD DUP4 MLOAD PUSH4 0xA9EC70D1 PUSH1 0xE0 SHL DUP2 MSTORE PUSH1 0x4 DUP2 ADD SWAP6 SWAP1 SWAP6 MSTORE SWAP3 MLOAD SWAP8 SWAP10 POP SWAP6 SWAP8 POP PUSH2 0x3C09 SWAP7 SWAP5 SWAP6 SWAP5 SWAP2 SWAP1 SWAP4 AND SWAP3 PUSH4 0xA9EC70D1 SWAP3 PUSH1 0x24 DUP1 DUP3 ADD SWAP4 SWAP2 DUP3 SWAP1 SUB ADD DUP2 DUP7 DUP1 EXTCODESIZE ISZERO DUP1 ISZERO PUSH2 0x3BD5 JUMPI PUSH1 0x0 DUP1 REVERT JUMPDEST POP GAS STATICCALL ISZERO DUP1 ISZERO PUSH2 0x3BE9 JUMPI RETURNDATASIZE PUSH1 0x0 DUP1 RETURNDATACOPY RETURNDATASIZE PUSH1 0x0 REVERT JUMPDEST POP POP POP POP PUSH1 0x40 MLOAD RETURNDATASIZE PUSH1 0x20 DUP2 LT ISZERO PUSH2 0x3BFF JUMPI PUSH1 0x0 DUP1 REVERT JUMPDEST POP MLOAD PUSH1 0xFF AND PUSH2 0x439D JUMP JUMPDEST DUP13 DUP11 DUP2 MLOAD DUP2 LT PUSH2 0x3C15 JUMPI INVALID JUMPDEST PUSH1 0x20 MUL PUSH1 0x20 ADD ADD MLOAD PUSH1 0x0 ADD DUP2 DUP2 MSTORE POP POP PUSH1 0x40 MLOAD DUP1 PUSH1 0x20 ADD PUSH1 0x40 MSTORE DUP1 PUSH1 0x0 DUP2 MSTORE POP DUP12 DUP11 DUP2 MLOAD DUP2 LT PUSH2 0x3C41 JUMPI INVALID JUMPDEST PUSH1 0x20 MUL PUSH1 0x20 ADD ADD DUP2 SWAP1 MSTORE POP PUSH2 0x3C69 DUP11 DUP14 DUP12 DUP2 MLOAD DUP2 LT PUSH2 0x3C5C JUMPI INVALID JUMPDEST PUSH1 0x20 MUL PUSH1 0x20 ADD ADD MLOAD PUSH2 0x44FA JUMP JUMPDEST SWAP11 POP PUSH2 0x3DED SWAP6 POP POP POP POP POP POP JUMP JUMPDEST PUSH1 0x37 SLOAD PUSH1 0x40 DUP1 MLOAD PUSH4 0x915C83B PUSH1 0xE2 SHL DUP2 MSTORE PUSH1 0x1 PUSH1 0x1 PUSH1 0xA0 SHL SUB DUP7 DUP2 AND PUSH1 0x4 DUP4 ADD MSTORE SWAP2 MLOAD PUSH1 0x0 SWAP4 SWAP3 SWAP1 SWAP3 AND SWAP2 PUSH4 0x245720EC SWAP2 PUSH1 0x24 DUP1 DUP3 ADD SWAP3 PUSH1 0x20 SWAP3 SWAP1 SWAP2 SWAP1 DUP3 SWAP1 SUB ADD DUP2 DUP7 DUP1 EXTCODESIZE ISZERO DUP1 ISZERO PUSH2 0x3CC8 JUMPI PUSH1 0x0 DUP1 REVERT JUMPDEST POP GAS STATICCALL ISZERO DUP1 ISZERO PUSH2 0x3CDC JUMPI RETURNDATASIZE PUSH1 0x0 DUP1 RETURNDATACOPY RETURNDATASIZE PUSH1 0x0 REVERT JUMPDEST POP POP POP POP PUSH1 0x40 MLOAD RETURNDATASIZE PUSH1 0x20 DUP2 LT ISZERO PUSH2 0x3CF2 JUMPI PUSH1 0x0 DUP1 REVERT JUMPDEST POP MLOAD SWAP1 POP PUSH1 0x0 PUSH2 0x3D00 PUSH2 0x4CC9 JUMP JUMPDEST PUSH2 0x3D0A DUP5 DUP7 PUSH2 0x42F9 JUMP JUMPDEST SWAP2 POP SWAP2 POP PUSH1 0x0 PUSH2 0x3D18 PUSH2 0x4CC9 JUMP JUMPDEST PUSH2 0x3D22 DUP4 DUP7 PUSH2 0x4335 JUMP JUMPDEST DUP1 MLOAD PUSH1 0x1 PUSH1 0x1 PUSH1 0xA0 SHL SUB DUP1 DUP13 AND PUSH1 0x0 DUP2 DUP2 MSTORE PUSH1 0x3A PUSH1 0x20 SWAP1 DUP2 MSTORE PUSH1 0x40 SWAP2 DUP3 SWAP1 KECCAK256 PUSH1 0x3 ADD SLOAD PUSH1 0x36 SLOAD DUP4 MLOAD PUSH4 0xA9EC70D1 PUSH1 0xE0 SHL DUP2 MSTORE PUSH1 0x4 DUP2 ADD SWAP6 SWAP1 SWAP6 MSTORE SWAP3 MLOAD SWAP8 SWAP10 POP SWAP6 SWAP8 POP PUSH2 0x3D91 SWAP7 SWAP5 SWAP6 SWAP5 SWAP2 SWAP1 SWAP4 AND SWAP3 PUSH4 0xA9EC70D1 SWAP3 PUSH1 0x24 DUP1 DUP3 ADD SWAP4 SWAP2 DUP3 SWAP1 SUB ADD DUP2 DUP7 DUP1 EXTCODESIZE ISZERO DUP1 ISZERO PUSH2 0x3BD5 JUMPI PUSH1 0x0 DUP1 REVERT JUMPDEST DUP12 DUP11 DUP2 MLOAD DUP2 LT PUSH2 0x3D9D JUMPI INVALID JUMPDEST PUSH1 0x20 MUL PUSH1 0x20 ADD ADD MLOAD PUSH1 0x0 ADD DUP2 DUP2 MSTORE POP POP PUSH1 0x40 MLOAD DUP1 PUSH1 0x20 ADD PUSH1 0x40 MSTORE DUP1 PUSH1 0x0 DUP2 MSTORE POP DUP13 DUP11 DUP2 MLOAD DUP2 LT PUSH2 0x3DC9 JUMPI INVALID JUMPDEST PUSH1 0x20 MUL PUSH1 0x20 ADD ADD DUP2 SWAP1 MSTORE POP PUSH2 0x3DE4 DUP11 DUP13 DUP12 DUP2 MLOAD DUP2 LT PUSH2 0x3C5C JUMPI INVALID JUMPDEST SWAP11 POP POP POP POP POP POP POP JUMPDEST PUSH32 0xACB876830293015BCDCD10DAF8FAEFD0428853121B7C78B2768C3669A1F7D8F0 DUP4 DUP9 DUP7 DUP2 MLOAD DUP2 LT PUSH2 0x3E1B JUMPI INVALID JUMPDEST PUSH1 0x20 MUL PUSH1 0x20 ADD ADD MLOAD PUSH1 0x0 ADD MLOAD DUP9 DUP8 DUP2 MLOAD DUP2 LT PUSH2 0x3E33 JUMPI INVALID JUMPDEST PUSH1 0x20 SWAP1 DUP2 MUL SWAP2 SWAP1 SWAP2 ADD DUP2 ADD MLOAD MLOAD DUP10 MLOAD PUSH1 0x40 DUP1 MLOAD PUSH1 0x1 PUSH1 0x1 PUSH1 0xA0 SHL SUB SWAP1 SWAP7 AND DUP7 MSTORE SWAP3 DUP6 ADD SWAP4 SWAP1 SWAP4 MSTORE DUP4 DUP3 ADD MSTORE PUSH1 0x60 DUP4 ADD SWAP2 SWAP1 SWAP2 MSTORE MLOAD SWAP1 DUP2 SWAP1 SUB PUSH1 0x80 ADD SWAP1 LOG1 POP POP POP PUSH1 0x1 ADD PUSH2 0x36F8 JUMP JUMPDEST POP PUSH1 0x55 SLOAD PUSH1 0x37 SLOAD PUSH1 0x1 PUSH1 0xA0 SHL SWAP1 DIV PUSH1 0xFF AND ISZERO PUSH2 0x3EBB JUMPI PUSH1 0x0 PUSH2 0x3E9B PUSH2 0x4CC9 JUMP JUMPDEST PUSH2 0x3EA5 DUP5 DUP9 PUSH2 0x4519 JUMP JUMPDEST SWAP2 POP SWAP2 POP PUSH2 0x3EB6 DUP2 PUSH1 0x0 ADD MLOAD PUSH2 0x4534 JUMP JUMPDEST SWAP3 POP POP POP JUMPDEST PUSH1 0x0 JUMPDEST DUP7 MLOAD DUP2 LT ISZERO PUSH2 0x4131 JUMPI PUSH1 0x0 DUP8 DUP3 DUP2 MLOAD DUP2 LT PUSH2 0x3ED5 JUMPI INVALID JUMPDEST PUSH1 0x20 SWAP1 DUP2 MUL SWAP2 SWAP1 SWAP2 ADD DUP2 ADD MLOAD PUSH1 0x1 PUSH1 0x1 PUSH1 0xA0 SHL SUB DUP2 AND PUSH1 0x0 SWAP1 DUP2 MSTORE PUSH1 0x56 SWAP1 SWAP3 MSTORE PUSH1 0x40 SWAP1 SWAP2 KECCAK256 DUP1 SLOAD PUSH1 0x1 SWAP1 SWAP2 ADD SLOAD SWAP2 SWAP3 POP SWAP1 PUSH2 0x3F0E PUSH2 0x4CC9 JUMP JUMPDEST DUP7 MLOAD PUSH1 0x0 SWAP1 ISZERO PUSH2 0x3FCE JUMPI PUSH1 0x0 DUP11 DUP8 DUP2 MLOAD DUP2 LT PUSH2 0x3F26 JUMPI INVALID JUMPDEST PUSH1 0x20 MUL PUSH1 0x20 ADD ADD MLOAD PUSH1 0x0 ADD MLOAD GT ISZERO PUSH2 0x3F89 JUMPI PUSH2 0x3F55 DUP11 DUP8 DUP2 MLOAD DUP2 LT PUSH2 0x3F47 JUMPI INVALID JUMPDEST PUSH1 0x20 MUL PUSH1 0x20 ADD ADD MLOAD DUP10 PUSH2 0x4740 JUMP JUMPDEST SWAP3 POP SWAP1 POP PUSH2 0x3F63 DUP8 DUP4 PUSH2 0x4763 JUMP JUMPDEST PUSH1 0x1 PUSH1 0x1 PUSH1 0xA0 SHL SUB DUP7 AND PUSH1 0x0 SWAP1 DUP2 MSTORE PUSH1 0x56 PUSH1 0x20 MSTORE PUSH1 0x40 DUP2 KECCAK256 SWAP2 DUP3 SSTORE PUSH1 0x1 SWAP1 SWAP2 ADD SSTORE PUSH2 0x3FC9 JUMP JUMPDEST PUSH2 0x3F98 DUP10 DUP8 DUP2 MLOAD DUP2 LT PUSH2 0x3F47 JUMPI INVALID JUMPDEST SWAP3 POP SWAP1 POP PUSH2 0x3FA6 DUP8 DUP4 PUSH2 0x4763 JUMP JUMPDEST PUSH1 0x1 PUSH1 0x1 PUSH1 0xA0 SHL SUB DUP7 AND PUSH1 0x0 SWAP1 DUP2 MSTORE PUSH1 0x56 PUSH1 0x20 MSTORE PUSH1 0x40 DUP2 KECCAK256 PUSH1 0x1 DUP2 ADD SWAP3 SWAP1 SWAP3 SSTORE SWAP1 SSTORE JUMPDEST PUSH2 0x3FEF JUMP JUMPDEST PUSH1 0x1 PUSH1 0x1 PUSH1 0xA0 SHL SUB DUP6 AND PUSH1 0x0 SWAP1 DUP2 MSTORE PUSH1 0x56 PUSH1 0x20 MSTORE PUSH1 0x40 DUP2 KECCAK256 PUSH1 0x1 DUP2 ADD DUP3 SWAP1 SSTORE SSTORE JUMPDEST DUP2 MLOAD PUSH1 0x1 PUSH1 0x1 PUSH1 0xA0 SHL SUB DUP7 AND PUSH1 0x0 DUP2 DUP2 MSTORE PUSH1 0x56 PUSH1 0x20 SWAP1 DUP2 MSTORE PUSH1 0x40 SWAP2 DUP3 SWAP1 KECCAK256 DUP1 SLOAD PUSH1 0x1 SWAP1 SWAP2 ADD SLOAD DUP4 MLOAD SWAP5 DUP6 MSTORE SWAP2 DUP5 ADD DUP13 SWAP1 MSTORE DUP4 DUP4 ADD SWAP5 SWAP1 SWAP5 MSTORE PUSH1 0x60 DUP4 ADD SWAP4 SWAP1 SWAP4 MSTORE PUSH1 0x80 DUP3 ADD SWAP3 SWAP1 SWAP3 MSTORE SWAP1 MLOAD PUSH32 0x2D0A046E2CADDC2B9944FAD523CDB42EEEF62CD1F88A134EE4663C80D58EF9E2 SWAP2 DUP2 SWAP1 SUB PUSH1 0xA0 ADD SWAP1 LOG1 PUSH1 0x1 PUSH1 0x1 PUSH1 0xA0 SHL SUB DUP6 AND PUSH1 0x0 DUP2 DUP2 MSTORE PUSH1 0x56 PUSH1 0x20 SWAP1 DUP2 MSTORE PUSH1 0x40 SWAP2 DUP3 SWAP1 KECCAK256 SLOAD DUP3 MLOAD SWAP4 DUP5 MSTORE SWAP1 DUP4 ADD DUP8 SWAP1 MSTORE DUP3 DUP3 ADD MSTORE NUMBER PUSH1 0x60 DUP4 ADD MSTORE MLOAD PUSH32 0xCEEB4301C137F855DBEB32EF25B069995662EF3FA12FD7C698C74AA872C2546E SWAP2 DUP2 SWAP1 SUB PUSH1 0x80 ADD SWAP1 LOG1 PUSH1 0x1 PUSH1 0x1 PUSH1 0xA0 SHL SUB DUP6 AND PUSH1 0x0 DUP2 DUP2 MSTORE PUSH1 0x56 PUSH1 0x20 SWAP1 DUP2 MSTORE PUSH1 0x40 SWAP2 DUP3 SWAP1 KECCAK256 PUSH1 0x1 ADD SLOAD DUP3 MLOAD SWAP4 DUP5 MSTORE SWAP1 DUP4 ADD DUP7 SWAP1 MSTORE DUP3 DUP3 ADD MSTORE NUMBER PUSH1 0x60 DUP4 ADD MSTORE MLOAD PUSH32 0x2545F2F6F97091236978CC7101E8BA295A94BDB80E4F0F9C4BFBEAFBD3BF1B8 SWAP2 DUP2 SWAP1 SUB PUSH1 0x80 ADD SWAP1 LOG1 POP POP PUSH1 0x1 SWAP1 SWAP4 ADD SWAP3 POP PUSH2 0x3EBE SWAP2 POP POP JUMP JUMPDEST POP PUSH2 0x413A PUSH2 0x478B JUMP JUMPDEST PUSH2 0x4183 JUMPI PUSH1 0x40 DUP1 MLOAD PUSH3 0x461BCD PUSH1 0xE5 SHL DUP2 MSTORE PUSH1 0x20 PUSH1 0x4 DUP3 ADD MSTORE PUSH1 0x15 PUSH1 0x24 DUP3 ADD MSTORE PUSH21 0x155C19185D1A5B99C810D31BD8DAC811985A5B1959 PUSH1 0x5A SHL PUSH1 0x44 DUP3 ADD MSTORE SWAP1 MLOAD SWAP1 DUP2 SWAP1 SUB PUSH1 0x64 ADD SWAP1 REVERT JUMPDEST POP POP POP POP POP POP JUMP JUMPDEST PUSH1 0x1 SWAP1 JUMP JUMPDEST ADDRESS EXTCODESIZE ISZERO SWAP1 JUMP JUMPDEST PUSH1 0x0 DUP4 DUP4 ADD DUP3 DUP6 DUP3 LT ISZERO PUSH2 0x41EB JUMPI PUSH1 0x40 MLOAD PUSH3 0x461BCD PUSH1 0xE5 SHL DUP2 MSTORE PUSH1 0x20 PUSH1 0x4 DUP3 ADD DUP2 DUP2 MSTORE DUP4 MLOAD PUSH1 0x24 DUP5 ADD MSTORE DUP4 MLOAD SWAP1 SWAP3 DUP4 SWAP3 PUSH1 0x44 SWAP1 SWAP2 ADD SWAP2 SWAP1 DUP6 ADD SWAP1 DUP1 DUP4 DUP4 PUSH1 0x0 DUP4 ISZERO PUSH2 0x34AA JUMPI DUP2 DUP2 ADD MLOAD DUP4 DUP3 ADD MSTORE PUSH1 0x20 ADD PUSH2 0x3492 JUMP JUMPDEST POP SWAP5 SWAP4 POP POP POP POP JUMP JUMPDEST PUSH1 0x0 PUSH2 0x162A DUP4 DUP4 PUSH1 0x40 MLOAD DUP1 PUSH1 0x40 ADD PUSH1 0x40 MSTORE DUP1 PUSH1 0x17 DUP2 MSTORE PUSH1 0x20 ADD PUSH32 0x6D756C7469706C69636174696F6E206F766572666C6F77000000000000000000 DUP2 MSTORE POP PUSH2 0x4888 JUMP JUMPDEST PUSH2 0x423E PUSH2 0x4CC9 JUMP JUMPDEST PUSH1 0x40 MLOAD DUP1 PUSH1 0x20 ADD PUSH1 0x40 MSTORE DUP1 PUSH2 0x426B PUSH2 0x4265 DUP7 PUSH15 0xC097CE7BC90715B34B9F1000000000 PUSH2 0x41F4 JUMP JUMPDEST DUP6 PUSH2 0x48FE JUMP JUMPDEST SWAP1 MSTORE SWAP4 SWAP3 POP POP POP JUMP JUMPDEST PUSH2 0x427C PUSH2 0x4CC9 JUMP JUMPDEST PUSH1 0x40 MLOAD DUP1 PUSH1 0x20 ADD PUSH1 0x40 MSTORE DUP1 PUSH2 0x426B DUP6 PUSH1 0x0 ADD MLOAD DUP6 PUSH1 0x0 ADD MLOAD PUSH2 0x4931 JUMP JUMPDEST PUSH1 0x0 DUP1 JUMPDEST PUSH1 0x39 SLOAD DUP2 LT ISZERO PUSH2 0x42EA JUMPI PUSH1 0x0 PUSH1 0x39 DUP3 DUP2 SLOAD DUP2 LT PUSH2 0x42B6 JUMPI INVALID JUMPDEST PUSH1 0x0 SWAP2 DUP3 MSTORE PUSH1 0x20 SWAP1 SWAP2 KECCAK256 ADD SLOAD PUSH1 0x1 PUSH1 0x1 PUSH1 0xA0 SHL SUB AND SWAP1 POP PUSH2 0x42D6 DUP2 PUSH2 0x29A9 JUMP JUMPDEST POP PUSH2 0x42E0 DUP2 PUSH2 0x2E62 JUMP JUMPDEST POP POP PUSH1 0x1 ADD PUSH2 0x429D JUMP JUMPDEST POP PUSH1 0x1 SWAP1 POP SWAP1 JUMP JUMPDEST MLOAD SWAP1 MLOAD GT SWAP1 JUMP JUMPDEST PUSH1 0x0 PUSH2 0x4303 PUSH2 0x4CC9 JUMP JUMPDEST PUSH1 0x0 DUP1 PUSH2 0x4318 DUP7 PUSH1 0x0 ADD MLOAD DUP7 PUSH1 0x0 ADD MLOAD PUSH2 0x4967 JUMP JUMPDEST PUSH1 0x40 DUP1 MLOAD PUSH1 0x20 DUP2 ADD SWAP1 SWAP2 MSTORE SWAP1 DUP2 MSTORE SWAP1 SWAP5 POP SWAP3 POP POP POP JUMPDEST SWAP3 POP SWAP3 SWAP1 POP JUMP JUMPDEST PUSH1 0x0 PUSH2 0x433F PUSH2 0x4CC9 JUMP JUMPDEST PUSH1 0x0 DUP1 PUSH2 0x4350 DUP7 PUSH1 0x0 ADD MLOAD DUP7 PUSH2 0x498A JUMP JUMPDEST SWAP1 SWAP3 POP SWAP1 POP PUSH1 0x0 DUP3 PUSH1 0x3 DUP2 GT ISZERO PUSH2 0x4363 JUMPI INVALID JUMPDEST EQ PUSH2 0x4382 JUMPI POP PUSH1 0x40 DUP1 MLOAD PUSH1 0x20 DUP2 ADD SWAP1 SWAP2 MSTORE PUSH1 0x0 DUP2 MSTORE SWAP1 SWAP3 POP SWAP1 POP PUSH2 0x432E JUMP JUMPDEST PUSH1 0x40 DUP1 MLOAD PUSH1 0x20 DUP2 ADD SWAP1 SWAP2 MSTORE SWAP1 DUP2 MSTORE PUSH1 0x0 SWAP7 SWAP1 SWAP6 POP SWAP4 POP POP POP POP JUMP JUMPDEST PUSH1 0x0 DUP1 PUSH2 0x43E0 DUP5 DUP5 PUSH1 0x40 MLOAD DUP1 PUSH1 0x40 ADD PUSH1 0x40 MSTORE DUP1 PUSH1 0x1A DUP2 MSTORE PUSH1 0x20 ADD PUSH32 0x446563696D616C73206164646974696F6E206F766572666C6F77000000000000 DUP2 MSTORE POP PUSH2 0x4196 JUMP JUMPDEST SWAP1 POP PUSH1 0x0 DUP1 PUSH1 0x18 DUP4 LT PUSH2 0x4446 JUMPI PUSH1 0x0 PUSH2 0x4413 DUP5 PUSH1 0x18 PUSH1 0x40 MLOAD DUP1 PUSH1 0x60 ADD PUSH1 0x40 MSTORE DUP1 PUSH1 0x2E DUP2 MSTORE PUSH1 0x20 ADD PUSH2 0x4D33 PUSH1 0x2E SWAP2 CODECOPY PUSH2 0x3456 JUMP JUMPDEST SWAP1 POP DUP1 PUSH1 0xA EXP SWAP3 POP PUSH2 0x443E DUP9 DUP5 PUSH1 0x40 MLOAD DUP1 PUSH1 0x60 ADD PUSH1 0x40 MSTORE DUP1 PUSH1 0x32 DUP2 MSTORE PUSH1 0x20 ADD PUSH2 0x4DA7 PUSH1 0x32 SWAP2 CODECOPY PUSH2 0x49C9 JUMP JUMPDEST SWAP2 POP POP PUSH2 0x449B JUMP JUMPDEST PUSH1 0x0 PUSH2 0x446C PUSH1 0x18 DUP6 PUSH1 0x40 MLOAD DUP1 PUSH1 0x60 ADD PUSH1 0x40 MSTORE DUP1 PUSH1 0x2F DUP2 MSTORE PUSH1 0x20 ADD PUSH2 0x5117 PUSH1 0x2F SWAP2 CODECOPY PUSH2 0x3456 JUMP JUMPDEST SWAP1 POP DUP1 PUSH1 0xA EXP SWAP3 POP PUSH2 0x4497 DUP9 DUP5 PUSH1 0x40 MLOAD DUP1 PUSH1 0x60 ADD PUSH1 0x40 MSTORE DUP1 PUSH1 0x38 DUP2 MSTORE PUSH1 0x20 ADD PUSH2 0x51CD PUSH1 0x38 SWAP2 CODECOPY PUSH2 0x4888 JUMP JUMPDEST SWAP2 POP POP JUMPDEST PUSH1 0x40 DUP1 MLOAD DUP9 DUP2 MSTORE PUSH1 0x20 DUP2 ADD DUP9 SWAP1 MSTORE DUP1 DUP3 ADD DUP8 SWAP1 MSTORE PUSH1 0x60 DUP2 ADD DUP6 SWAP1 MSTORE PUSH1 0x80 DUP2 ADD DUP5 SWAP1 MSTORE PUSH1 0xA0 DUP2 ADD DUP4 SWAP1 MSTORE SWAP1 MLOAD PUSH32 0x30A0B12009E9070C500B3DF0A206A883D9D8AC7B4D5C09498E5DD7C0D11A645D SWAP2 DUP2 SWAP1 SUB PUSH1 0xC0 ADD SWAP1 LOG1 SWAP7 SWAP6 POP POP POP POP POP POP JUMP JUMPDEST PUSH1 0x0 PUSH2 0x4504 PUSH2 0x4CC9 JUMP JUMPDEST PUSH1 0x0 DUP1 PUSH2 0x4318 DUP7 PUSH1 0x0 ADD MLOAD DUP7 PUSH1 0x0 ADD MLOAD PUSH2 0x4A2B JUMP JUMPDEST PUSH1 0x0 PUSH2 0x4523 PUSH2 0x4CC9 JUMP JUMPDEST PUSH1 0x0 DUP1 PUSH2 0x4350 DUP7 PUSH1 0x0 ADD MLOAD DUP7 PUSH2 0x4A51 JUMP JUMPDEST PUSH1 0x55 SLOAD PUSH1 0x36 SLOAD PUSH1 0x35 SLOAD PUSH1 0x40 DUP1 MLOAD PUSH4 0xB3596F07 PUSH1 0xE0 SHL DUP2 MSTORE PUSH1 0x1 PUSH1 0x1 PUSH1 0xA0 SHL SUB SWAP3 DUP4 AND PUSH1 0x4 DUP3 ADD MSTORE SWAP1 MLOAD PUSH1 0x0 SWAP5 SWAP4 DUP6 SWAP4 AND SWAP2 PUSH4 0xB3596F07 SWAP2 PUSH1 0x24 DUP1 DUP4 ADD SWAP3 PUSH1 0x20 SWAP3 SWAP2 SWAP1 DUP3 SWAP1 SUB ADD DUP2 DUP7 DUP1 EXTCODESIZE ISZERO DUP1 ISZERO PUSH2 0x458A JUMPI PUSH1 0x0 DUP1 REVERT JUMPDEST POP GAS STATICCALL ISZERO DUP1 ISZERO PUSH2 0x459E JUMPI RETURNDATASIZE PUSH1 0x0 DUP1 RETURNDATACOPY RETURNDATASIZE PUSH1 0x0 REVERT JUMPDEST POP POP POP POP PUSH1 0x40 MLOAD RETURNDATASIZE PUSH1 0x20 DUP2 LT ISZERO PUSH2 0x45B4 JUMPI PUSH1 0x0 DUP1 REVERT JUMPDEST POP MLOAD PUSH1 0x55 SLOAD SWAP1 SWAP2 POP PUSH1 0x0 SWAP1 PUSH2 0x45CA SWAP1 DUP4 SWAP1 PUSH2 0x41F4 JUMP JUMPDEST PUSH1 0x40 DUP1 MLOAD PUSH1 0x20 DUP2 ADD SWAP1 SWAP2 MSTORE PUSH1 0x38 SLOAD DUP2 MSTORE SWAP1 SWAP2 POP PUSH1 0x0 SWAP1 PUSH2 0x45EB SWAP1 DUP8 SWAP1 PUSH2 0x4763 JUMP JUMPDEST SWAP1 POP PUSH1 0x0 PUSH2 0x4612 DUP8 DUP4 PUSH1 0x40 MLOAD DUP1 PUSH1 0x60 ADD PUSH1 0x40 MSTORE DUP1 PUSH1 0x27 DUP2 MSTORE PUSH1 0x20 ADD PUSH2 0x5146 PUSH1 0x27 SWAP2 CODECOPY PUSH2 0x4196 JUMP JUMPDEST SWAP1 POP DUP4 ISZERO DUP1 PUSH2 0x4621 JUMPI POP DUP1 DUP4 GT ISZERO JUMPDEST ISZERO PUSH2 0x4691 JUMPI PUSH1 0x55 SLOAD PUSH1 0x40 DUP1 MLOAD SWAP2 DUP3 MSTORE PUSH1 0x20 DUP3 ADD DUP8 SWAP1 MSTORE DUP2 DUP2 ADD DUP7 SWAP1 MSTORE PUSH1 0x60 DUP3 ADD DUP6 SWAP1 MSTORE PUSH1 0x80 DUP3 ADD DUP10 SWAP1 MSTORE PUSH1 0xA0 DUP3 ADD DUP5 SWAP1 MSTORE PUSH1 0xC0 DUP3 ADD DUP4 SWAP1 MSTORE MLOAD PUSH32 0xB193E798A428F589D26C41C53FEE578EB242C6090F5193E6188BC323FDCC3CB3 SWAP2 DUP2 SWAP1 SUB PUSH1 0xE0 ADD SWAP1 LOG1 DUP5 SWAP6 POP POP POP POP POP POP PUSH2 0x984 JUMP JUMPDEST PUSH2 0x46D1 DUP2 DUP6 PUSH1 0x40 MLOAD DUP1 PUSH1 0x40 ADD PUSH1 0x40 MSTORE DUP1 PUSH1 0x1D DUP2 MSTORE PUSH1 0x20 ADD PUSH32 0x4D6178205370656564206469766973696F6E2067617665206572726F72000000 DUP2 MSTORE POP PUSH2 0x49C9 JUMP JUMPDEST PUSH1 0x55 SLOAD PUSH1 0x40 DUP1 MLOAD SWAP2 DUP3 MSTORE PUSH1 0x20 DUP3 ADD DUP4 SWAP1 MSTORE DUP2 DUP2 ADD DUP8 SWAP1 MSTORE PUSH1 0x60 DUP3 ADD DUP7 SWAP1 MSTORE PUSH1 0x80 DUP3 ADD DUP11 SWAP1 MSTORE PUSH1 0xA0 DUP3 ADD DUP6 SWAP1 MSTORE PUSH1 0xC0 DUP3 ADD DUP5 SWAP1 MSTORE MLOAD SWAP2 SWAP7 POP PUSH32 0xB193E798A428F589D26C41C53FEE578EB242C6090F5193E6188BC323FDCC3CB3 SWAP2 SWAP1 DUP2 SWAP1 SUB PUSH1 0xE0 ADD SWAP1 LOG1 DUP5 SWAP6 POP POP POP POP POP POP PUSH2 0x984 JUMP JUMPDEST PUSH1 0x0 PUSH2 0x474A PUSH2 0x4CC9 JUMP JUMPDEST DUP4 MLOAD DUP4 MLOAD PUSH2 0x4758 SWAP2 SWAP1 PUSH2 0x4A7C JUMP JUMPDEST SWAP2 POP SWAP2 POP SWAP3 POP SWAP3 SWAP1 POP JUMP JUMPDEST PUSH1 0x0 PUSH8 0xDE0B6B3A7640000 PUSH2 0x477C DUP5 DUP5 PUSH1 0x0 ADD MLOAD PUSH2 0x41F4 JUMP JUMPDEST DUP2 PUSH2 0x4783 JUMPI INVALID JUMPDEST DIV SWAP4 SWAP3 POP POP POP JUMP JUMPDEST PUSH1 0x54 SLOAD PUSH1 0x0 SWAP1 PUSH1 0x1 PUSH1 0x1 PUSH1 0xE0 SHL SUB AND PUSH1 0x17 EQ ISZERO PUSH2 0x47B7 JUMPI PUSH1 0x54 DUP1 SLOAD PUSH1 0x1 PUSH1 0x1 PUSH1 0xE0 SHL SUB NOT AND SWAP1 SSTORE PUSH2 0x4825 JUMP JUMPDEST PUSH1 0x54 SLOAD PUSH1 0x40 DUP1 MLOAD DUP1 DUP3 ADD SWAP1 SWAP2 MSTORE PUSH1 0x1A DUP2 MSTORE PUSH32 0x637572436C6F636B203A204164646974696F6E204661696C6564000000000000 PUSH1 0x20 DUP3 ADD MSTORE PUSH2 0x4804 SWAP2 PUSH1 0x1 PUSH1 0x1 PUSH1 0xE0 SHL SUB AND SWAP1 PUSH1 0x1 SWAP1 PUSH2 0x4196 JUMP JUMPDEST PUSH1 0x54 DUP1 SLOAD PUSH1 0x1 PUSH1 0x1 PUSH1 0xE0 SHL SUB NOT AND PUSH1 0x1 PUSH1 0x1 PUSH1 0xE0 SHL SUB SWAP3 SWAP1 SWAP3 AND SWAP2 SWAP1 SWAP2 OR SWAP1 SSTORE JUMPDEST PUSH1 0x54 SLOAD PUSH32 0x1F5C4F82A071A103F9B71CAD79752570E576A18239107229BD7679CC8594C354 SWAP1 PUSH1 0x1 PUSH1 0x1 PUSH1 0xE0 SHL SUB AND PUSH2 0x485B PUSH2 0xC29 JUMP JUMPDEST PUSH1 0x40 DUP1 MLOAD PUSH1 0x1 PUSH1 0x1 PUSH1 0xE0 SHL SUB SWAP1 SWAP4 AND DUP4 MSTORE PUSH4 0xFFFFFFFF SWAP1 SWAP2 AND PUSH1 0x20 DUP4 ADD MSTORE DUP1 MLOAD SWAP2 DUP3 SWAP1 SUB ADD SWAP1 LOG1 POP PUSH1 0x1 SWAP1 JUMP JUMPDEST PUSH1 0x0 DUP4 ISZERO DUP1 PUSH2 0x4895 JUMPI POP DUP3 ISZERO JUMPDEST ISZERO PUSH2 0x48A2 JUMPI POP PUSH1 0x0 PUSH2 0x162A JUMP JUMPDEST DUP4 DUP4 MUL DUP4 DUP6 DUP3 DUP2 PUSH2 0x48AF JUMPI INVALID JUMPDEST DIV EQ DUP4 SWAP1 PUSH2 0x41EB JUMPI PUSH1 0x40 MLOAD PUSH3 0x461BCD PUSH1 0xE5 SHL DUP2 MSTORE PUSH1 0x20 PUSH1 0x4 DUP3 ADD DUP2 DUP2 MSTORE DUP4 MLOAD PUSH1 0x24 DUP5 ADD MSTORE DUP4 MLOAD SWAP1 SWAP3 DUP4 SWAP3 PUSH1 0x44 SWAP1 SWAP2 ADD SWAP2 SWAP1 DUP6 ADD SWAP1 DUP1 DUP4 DUP4 PUSH1 0x0 DUP4 ISZERO PUSH2 0x34AA JUMPI DUP2 DUP2 ADD MLOAD DUP4 DUP3 ADD MSTORE PUSH1 0x20 ADD PUSH2 0x3492 JUMP JUMPDEST PUSH1 0x0 PUSH2 0x162A DUP4 DUP4 PUSH1 0x40 MLOAD DUP1 PUSH1 0x40 ADD PUSH1 0x40 MSTORE DUP1 PUSH1 0xE DUP2 MSTORE PUSH1 0x20 ADD PUSH14 0x646976696465206279207A65726F PUSH1 0x90 SHL DUP2 MSTORE POP PUSH2 0x49C9 JUMP JUMPDEST PUSH1 0x0 PUSH2 0x162A DUP4 DUP4 PUSH1 0x40 MLOAD DUP1 PUSH1 0x40 ADD PUSH1 0x40 MSTORE DUP1 PUSH1 0x11 DUP2 MSTORE PUSH1 0x20 ADD PUSH17 0x6164646974696F6E206F766572666C6F77 PUSH1 0x78 SHL DUP2 MSTORE POP PUSH2 0x4196 JUMP JUMPDEST PUSH1 0x0 DUP1 DUP4 DUP4 GT PUSH2 0x497E JUMPI POP PUSH1 0x0 SWAP1 POP DUP2 DUP4 SUB PUSH2 0x432E JUMP JUMPDEST POP PUSH1 0x3 SWAP1 POP PUSH1 0x0 PUSH2 0x432E JUMP JUMPDEST PUSH1 0x0 DUP1 DUP4 PUSH2 0x499D JUMPI POP PUSH1 0x0 SWAP1 POP DUP1 PUSH2 0x432E JUMP JUMPDEST DUP4 DUP4 MUL DUP4 DUP6 DUP3 DUP2 PUSH2 0x49AA JUMPI INVALID JUMPDEST DIV EQ PUSH2 0x49BE JUMPI POP PUSH1 0x2 SWAP2 POP PUSH1 0x0 SWAP1 POP PUSH2 0x432E JUMP JUMPDEST PUSH1 0x0 SWAP3 POP SWAP1 POP PUSH2 0x432E JUMP JUMPDEST PUSH1 0x0 DUP2 DUP4 PUSH2 0x4A18 JUMPI PUSH1 0x40 MLOAD PUSH3 0x461BCD PUSH1 0xE5 SHL DUP2 MSTORE PUSH1 0x20 PUSH1 0x4 DUP3 ADD DUP2 DUP2 MSTORE DUP4 MLOAD PUSH1 0x24 DUP5 ADD MSTORE DUP4 MLOAD SWAP1 SWAP3 DUP4 SWAP3 PUSH1 0x44 SWAP1 SWAP2 ADD SWAP2 SWAP1 DUP6 ADD SWAP1 DUP1 DUP4 DUP4 PUSH1 0x0 DUP4 ISZERO PUSH2 0x34AA JUMPI DUP2 DUP2 ADD MLOAD DUP4 DUP3 ADD MSTORE PUSH1 0x20 ADD PUSH2 0x3492 JUMP JUMPDEST POP DUP3 DUP5 DUP2 PUSH2 0x4A22 JUMPI INVALID JUMPDEST DIV SWAP5 SWAP4 POP POP POP POP JUMP JUMPDEST PUSH1 0x0 DUP1 DUP4 DUP4 ADD DUP5 DUP2 LT PUSH2 0x4A43 JUMPI PUSH1 0x0 SWAP3 POP SWAP1 POP PUSH2 0x432E JUMP JUMPDEST POP PUSH1 0x2 SWAP2 POP PUSH1 0x0 SWAP1 POP PUSH2 0x432E JUMP JUMPDEST PUSH1 0x0 DUP1 DUP3 PUSH2 0x4A65 JUMPI POP PUSH1 0x1 SWAP1 POP PUSH1 0x0 PUSH2 0x432E JUMP JUMPDEST PUSH1 0x0 DUP4 DUP6 DUP2 PUSH2 0x4A70 JUMPI INVALID JUMPDEST DIV SWAP2 POP SWAP2 POP SWAP3 POP SWAP3 SWAP1 POP JUMP JUMPDEST PUSH1 0x0 PUSH2 0x4A86 PUSH2 0x4CC9 JUMP JUMPDEST PUSH1 0x0 DUP1 PUSH2 0x4A9B DUP7 PUSH8 0xDE0B6B3A7640000 PUSH2 0x498A JUMP JUMPDEST SWAP1 SWAP3 POP SWAP1 POP PUSH1 0x0 DUP3 PUSH1 0x3 DUP2 GT ISZERO PUSH2 0x4AAE JUMPI INVALID JUMPDEST EQ PUSH2 0x4ACD JUMPI POP PUSH1 0x40 DUP1 MLOAD PUSH1 0x20 DUP2 ADD SWAP1 SWAP2 MSTORE PUSH1 0x0 DUP2 MSTORE SWAP1 SWAP3 POP SWAP1 POP PUSH2 0x432E JUMP JUMPDEST PUSH1 0x0 DUP1 PUSH2 0x4ADA DUP4 DUP9 PUSH2 0x4A51 JUMP JUMPDEST SWAP1 SWAP3 POP SWAP1 POP PUSH1 0x0 DUP3 PUSH1 0x3 DUP2 GT ISZERO PUSH2 0x4AED JUMPI INVALID JUMPDEST EQ PUSH2 0x4B0F JUMPI POP PUSH1 0x40 DUP1 MLOAD PUSH1 0x20 DUP2 ADD SWAP1 SWAP2 MSTORE PUSH1 0x0 DUP2 MSTORE SWAP1 SWAP5 POP SWAP3 POP PUSH2 0x432E SWAP2 POP POP JUMP JUMPDEST PUSH1 0x40 DUP1 MLOAD PUSH1 0x20 DUP2 ADD SWAP1 SWAP2 MSTORE SWAP1 DUP2 MSTORE PUSH1 0x0 SWAP9 SWAP1 SWAP8 POP SWAP6 POP POP POP POP POP POP JUMP JUMPDEST PUSH1 0x40 MLOAD DUP1 PUSH2 0x300 ADD PUSH1 0x40 MSTORE DUP1 PUSH1 0x18 SWAP1 PUSH1 0x20 DUP3 MUL DUP1 CODESIZE DUP4 CODECOPY POP SWAP2 SWAP3 SWAP2 POP POP JUMP JUMPDEST DUP3 PUSH1 0x18 DUP2 ADD SWAP3 DUP3 ISZERO PUSH2 0x4B79 JUMPI SWAP2 PUSH1 0x20 MUL DUP3 ADD JUMPDEST DUP3 DUP2 GT ISZERO PUSH2 0x4B79 JUMPI DUP3 MLOAD DUP3 SSTORE SWAP2 PUSH1 0x20 ADD SWAP2 SWAP1 PUSH1 0x1 ADD SWAP1 PUSH2 0x4B5E JUMP JUMPDEST POP PUSH2 0x4B85 SWAP3 SWAP2 POP PUSH2 0x4CDC JUMP JUMPDEST POP SWAP1 JUMP JUMPDEST DUP3 DUP1 SLOAD PUSH1 0x1 DUP2 PUSH1 0x1 AND ISZERO PUSH2 0x100 MUL SUB AND PUSH1 0x2 SWAP1 DIV SWAP1 PUSH1 0x0 MSTORE PUSH1 0x20 PUSH1 0x0 KECCAK256 SWAP1 PUSH1 0x1F ADD PUSH1 0x20 SWAP1 DIV DUP2 ADD SWAP3 DUP3 PUSH1 0x1F LT PUSH2 0x4BCA JUMPI DUP1 MLOAD PUSH1 0xFF NOT AND DUP4 DUP1 ADD OR DUP6 SSTORE PUSH2 0x4B79 JUMP JUMPDEST DUP3 DUP1 ADD PUSH1 0x1 ADD DUP6 SSTORE DUP3 ISZERO PUSH2 0x4B79 JUMPI SWAP2 DUP3 ADD DUP3 DUP2 GT ISZERO PUSH2 0x4B79 JUMPI DUP3 MLOAD DUP3 SSTORE SWAP2 PUSH1 0x20 ADD SWAP2 SWAP1 PUSH1 0x1 ADD SWAP1 PUSH2 0x4B5E JUMP JUMPDEST PUSH1 0x40 MLOAD DUP1 PUSH2 0x120 ADD PUSH1 0x40 MSTORE DUP1 PUSH1 0x0 ISZERO ISZERO DUP2 MSTORE PUSH1 0x20 ADD PUSH1 0x60 DUP2 MSTORE PUSH1 0x20 ADD PUSH1 0x0 PUSH1 0x1 PUSH1 0x1 PUSH1 0xA0 SHL SUB AND DUP2 MSTORE PUSH1 0x20 ADD PUSH1 0x0 DUP2 MSTORE PUSH1 0x20 ADD PUSH1 0x0 ISZERO ISZERO DUP2 MSTORE PUSH1 0x20 ADD PUSH1 0x0 DUP2 MSTORE PUSH1 0x20 ADD PUSH1 0x0 DUP2 MSTORE PUSH1 0x20 ADD PUSH1 0x0 DUP2 MSTORE PUSH1 0x20 ADD PUSH1 0x0 DUP2 MSTORE POP SWAP1 JUMP JUMPDEST DUP2 SLOAD DUP2 DUP4 SSTORE DUP2 DUP2 GT ISZERO PUSH2 0x21E8 JUMPI PUSH1 0x0 DUP4 DUP2 MSTORE PUSH1 0x20 SWAP1 KECCAK256 PUSH2 0x21E8 SWAP2 DUP2 ADD SWAP1 DUP4 ADD PUSH2 0x4CDC JUMP JUMPDEST POP DUP1 SLOAD PUSH1 0x1 DUP2 PUSH1 0x1 AND ISZERO PUSH2 0x100 MUL SUB AND PUSH1 0x2 SWAP1 DIV PUSH1 0x0 DUP3 SSTORE DUP1 PUSH1 0x1F LT PUSH2 0x4C99 JUMPI POP PUSH2 0x4CB7 JUMP JUMPDEST PUSH1 0x1F ADD PUSH1 0x20 SWAP1 DIV SWAP1 PUSH1 0x0 MSTORE PUSH1 0x20 PUSH1 0x0 KECCAK256 SWAP1 DUP2 ADD SWAP1 PUSH2 0x4CB7 SWAP2 SWAP1 PUSH2 0x4CDC JUMP JUMPDEST POP JUMP JUMPDEST POP PUSH2 0x4CB7 SWAP1 PUSH1 0x18 DUP2 ADD SWAP1 PUSH2 0x4CDC JUMP JUMPDEST PUSH1 0x40 MLOAD DUP1 PUSH1 0x20 ADD PUSH1 0x40 MSTORE DUP1 PUSH1 0x0 DUP2 MSTORE POP SWAP1 JUMP JUMPDEST PUSH2 0x93A SWAP2 SWAP1 JUMPDEST DUP1 DUP3 GT ISZERO PUSH2 0x4B85 JUMPI PUSH1 0x0 DUP2 SSTORE PUSH1 0x1 ADD PUSH2 0x4CE2 JUMP INVALID SLOAD PUSH9 0x65206E65772050726F PUSH7 0x69742050657263 PUSH6 0x6E7461676520 PUSH14 0x7573742062652067726561746572 KECCAK256 PUSH21 0x68616E20302E303165313820283125292044656369 PUSH14 0x616C73207375627472616374696F PUSH15 0x20286578747261446563696D616C73 0x29 KECCAK256 PUSH22 0x6E646572666C6F77496E737472756D656E74206E6F74 KECCAK256 PUSH17 0x726F7065726C792072656D6F7665642066 PUSH19 0x6F6D20746865206C697374206F6620696E7374 PUSH19 0x756D656E747320737570706F727465644C6F73 PUSH20 0x20416D6F756E74204469766973696F6E20746F20 PUSH2 0x646A PUSH22 0x737420666F7220646563696D616C73206661696C6564 SLOAD PUSH9 0x697320696E73747275 PUSH14 0x656E74206973206E6F7420737570 PUSH17 0x6F72746564206279205349474820446973 PUSH21 0x7269627574696F6E2048616E646C65725265667265 PUSH20 0x68205349474820537065656473203A2053756274 PUSH19 0x616374696F6E20756E646572666C6F7720666F PUSH19 0x20626C6F636B73496E737472756D656E742061 PUSH13 0x726561647920636F7665726564 KECCAK256 PUSH22 0x6E646572205349474820446973747269627574696F6E KECCAK256 0x4D PUSH6 0x6368616E6973 PUSH14 0x537570706C696572207370656564 KECCAK256 PUSH2 0x6464 PUSH10 0x74696F6E207769746820 PUSH20 0x74616B696E67207370656564206F766572666C6F PUSH24 0x5468652063616C6C6572206D75737420626520746865204C PUSH6 0x6E64696E6720 PUSH17 0x6F6F6C20436F726520636F6E7472616374 0x49 PUSH15 0x737472756D656E7420616C72656164 PUSH26 0x206E6F7420737570706F72746564206279207468652053494748 KECCAK256 DIFFICULTY PUSH10 0x73747269627574696F6E KECCAK256 0x4D PUSH6 0x6368616E6973 PUSH14 0x5468652063616C6C6572206D7573 PUSH21 0x2062652074686520534947482046696E616E616365 KECCAK256 NUMBER PUSH16 0x6E666967757261746F7220436F6E7472 PUSH2 0x6374 PUSH19 0x65667265736853494748537065656473496E74 PUSH6 0x726E616C203A KECCAK256 0x4F PUSH19 0x61636C652072657475726E656420496E76616C PUSH10 0x64205072696365546865 KECCAK256 PUSH15 0x657720537570706C69657220526174 PUSH10 0x6F206D75737420626520 PUSH13 0x657373207468616E2031653138 KECCAK256 0x28 BALANCE ADDRESS ADDRESS 0x25 0x29 DIFFICULTY PUSH6 0x6C7461426C6F PUSH4 0x6B732072 PUSH6 0x73756C746564 KECCAK256 PUSH10 0x6E20556E646572666C6F PUSH24 0x5570646174696E67205369676820537570706C7920496E64 PUSH6 0x786573206F70 PUSH6 0x726174696F6E KECCAK256 PUSH7 0x61696C65645468 PUSH10 0x732066756E6374696F6E KECCAK256 PUSH4 0x616E206F PUSH15 0x6C792062652063616C6C6564206279 KECCAK256 PUSH21 0x686520496E737472756D656E7427732049546F6B65 PUSH15 0x20436F6E7472616374757064617465 MSTORE8 0x49 SELFBALANCE 0x48 TIMESTAMP PUSH16 0x72726F77496E646578203A20426C6F63 PUSH12 0x205375627472616374696F6E KECCAK256 SSTORE PUSH15 0x646572666C6F775570646174696E67 KECCAK256 0x49 PUSH15 0x737472756D656E7420496E64657865 PUSH20 0x204661696C6564436F6E747261637420696E7374 PUSH2 0x6E63 PUSH6 0x206861732061 PUSH13 0x7265616479206265656E20696E PUSH10 0x7469616C697A65644661 PUSH10 0x6C656420746F20747261 PUSH15 0x736665722061636375726564205349 SELFBALANCE 0x48 KECCAK256 PUSH21 0x6F2074686520757365722E446563696D616C732073 PUSH22 0x627472616374696F6E20286E6565646564446563696D PUSH2 0x6C73 0x29 KECCAK256 PUSH22 0x6E646572666C6F77506F74656E7469616C206C6F7373 PUSH6 0x732061646469 PUSH21 0x696F6E2067617665206F766572666C6F7755706461 PUSH21 0x696E67205369676820426F72726F7720496E646578 PUSH6 0x73206F706572 PUSH2 0x7469 PUSH16 0x6E206661696C65647570646174655349 SELFBALANCE 0x48 MSTORE8 PUSH22 0x70706C79496E646578203A20426C6F636B2053756274 PUSH19 0x616374696F6E20556E646572666C6F774C6F73 PUSH20 0x20416D6F756E74204D756C7469706C6963617469 PUSH16 0x6E20746F2061646A75737420666F7220 PUSH5 0x6563696D61 PUSH13 0x73206661696C6564496E737472 PUSH22 0x6D656E74206E6F7420737570706F727465642E000000 STOP STOP STOP STOP LOG2 PUSH6 0x627A7A723158 KECCAK256 DIFFICULTY NUMBER DUP6 CALLDATACOPY 0xDD PUSH4 0x8965FCFE MSTORE8 CALLCODE PUSH30 0xD181184C694CE4FA439B9647B6780BA1B8A24664736F6C63430005110032 "
		},
		"gasEstimates": {
			"creation": {
				"codeDepositCost": "4216200",
				"executionCost": "55707",
				"totalCost": "4271907"
			},
			"external": {
				"Instrument_SIGHed(address)": "infinite",
				"Instrument_UNSIGHed(address)": "infinite",
				"Sigh_Address()": "1105",
				"SpeedUpperCheckSwitch(bool,uint256)": "infinite",
				"addInstrument(address,address,uint256)": "infinite",
				"addressesProvider()": "1081",
				"checkPriceSnapshots(address,uint256)": "1288",
				"checkinitializationCounter(address)": "1230",
				"getAllInstrumentsSupported()": "infinite",
				"getAllPriceSnapshots(address)": "infinite",
				"getBlockNumber()": "252",
				"getBlockNumbersForPriceSnapshots()": "infinite",
				"getBlocksRemainingToNextSpeedRefresh()": "infinite",
				"getDeltaBlocksForSpeed()": "1131",
				"getInstrumentBorrowIndex(address)": "2195",
				"getInstrumentData(address)": "infinite",
				"getInstrumentSpeeds(address)": "2920",
				"getInstrumentSupplyIndex(address)": "2193",
				"getPrevSpeedRefreshBlock()": "1132",
				"getSIGHBalance()": "infinite",
				"getSIGHSpeed()": "1087",
				"getupperCheckProfitPercentage()": "1090",
				"initialize(address)": "infinite",
				"isInstrumentSupported(address)": "1221",
				"lendingPoolCore()": "1106",
				"oracle()": "1127",
				"refreshConfig()": "infinite",
				"refreshSIGHSpeeds()": "infinite",
				"removeInstrument(address,address)": "infinite",
				"totalInstrumentsSupported()": "1086",
				"transferSighTotheUser(address,address,address,uint256)": "infinite",
				"updateDeltaBlocksForSpeedRefresh(uint256)": "infinite",
				"updateSIGHBorrowIndex(address)": "infinite",
				"updateSIGHSpeed(uint256)": "infinite",
				"updateSIGHSupplyIndex(address)": "infinite",
				"updateStakingSpeedForAnInstrument(address,uint256)": "infinite"
			},
			"internal": {
				"adjustForDecimalsInternal(uint256,uint256,uint256)": "infinite",
				"calculateMaxSighSpeedInternal(uint256)": "infinite",
				"getRevision()": "15",
				"refreshConfigInternal()": "infinite",
				"refreshSIGHSpeedsInternal()": "infinite",
				"updateCurrentClockInternal()": "infinite",
				"updateSIGHBorrowIndexInternal(address)": "infinite",
				"updateSIGHSupplyIndexInternal(address)": "infinite",
				"updatedInstrumentIndexesInternal()": "infinite"
			}
		},
		"methodIdentifiers": {
			"Instrument_SIGHed(address)": "ffffd7fb",
			"Instrument_UNSIGHed(address)": "4f78deef",
			"Sigh_Address()": "21428a12",
			"SpeedUpperCheckSwitch(bool,uint256)": "832c6c90",
			"addInstrument(address,address,uint256)": "52bbe658",
			"addressesProvider()": "c72c4d10",
			"checkPriceSnapshots(address,uint256)": "4df859fd",
			"checkinitializationCounter(address)": "8d9cf864",
			"getAllInstrumentsSupported()": "831449de",
			"getAllPriceSnapshots(address)": "d6357063",
			"getBlockNumber()": "42cbb15c",
			"getBlockNumbersForPriceSnapshots()": "659f73c5",
			"getBlocksRemainingToNextSpeedRefresh()": "6f610c50",
			"getDeltaBlocksForSpeed()": "be36810a",
			"getInstrumentBorrowIndex(address)": "10fa61e6",
			"getInstrumentData(address)": "4dc54a38",
			"getInstrumentSpeeds(address)": "3e5eee46",
			"getInstrumentSupplyIndex(address)": "9a717b24",
			"getPrevSpeedRefreshBlock()": "3e955265",
			"getSIGHBalance()": "c6a6bfb1",
			"getSIGHSpeed()": "570b39d0",
			"getupperCheckProfitPercentage()": "0ef9e9d7",
			"initialize(address)": "c4d66de8",
			"isInstrumentSupported(address)": "c3d1b72d",
			"lendingPoolCore()": "0d7ff887",
			"oracle()": "7dc0d1d0",
			"refreshConfig()": "7c55ccb3",
			"refreshSIGHSpeeds()": "bf1678f6",
			"removeInstrument(address,address)": "f9665d44",
			"totalInstrumentsSupported()": "eeabe79f",
			"transferSighTotheUser(address,address,address,uint256)": "8e26fc38",
			"updateDeltaBlocksForSpeedRefresh(uint256)": "1e7faed9",
			"updateSIGHBorrowIndex(address)": "7c52b668",
			"updateSIGHSpeed(uint256)": "2df0f9a9",
			"updateSIGHSupplyIndex(address)": "4f425fbb",
			"updateStakingSpeedForAnInstrument(address,uint256)": "04c66321"
		}
	},
	"abi": [
		{
			"anonymous": false,
			"inputs": [
				{
					"indexed": false,
					"internalType": "address",
					"name": "instrument",
					"type": "address"
				},
				{
					"indexed": false,
					"internalType": "address",
					"name": "user",
					"type": "address"
				},
				{
					"indexed": false,
					"internalType": "uint256",
					"name": "sigh_Amount",
					"type": "uint256"
				}
			],
			"name": "AccuredSIGHTransferredToTheUser",
			"type": "event"
		},
		{
			"anonymous": false,
			"inputs": [
				{
					"indexed": false,
					"internalType": "address",
					"name": "instrument",
					"type": "address"
				},
				{
					"indexed": false,
					"internalType": "uint256",
					"name": "prevSpeed",
					"type": "uint256"
				},
				{
					"indexed": false,
					"internalType": "uint256",
					"name": "newSpeed",
					"type": "uint256"
				},
				{
					"indexed": false,
					"internalType": "uint256",
					"name": "blockNumber",
					"type": "uint256"
				}
			],
			"name": "BorrowersSIGHSpeedUpdated",
			"type": "event"
		},
		{
			"anonymous": false,
			"inputs": [
				{
					"indexed": false,
					"internalType": "uint224",
					"name": "curClock",
					"type": "uint224"
				},
				{
					"indexed": false,
					"internalType": "uint256",
					"name": "blockNumber",
					"type": "uint256"
				}
			],
			"name": "ClockUpdated",
			"type": "event"
		},
		{
			"anonymous": false,
			"inputs": [
				{
					"indexed": false,
					"internalType": "address",
					"name": "instrumentAddress_",
					"type": "address"
				},
				{
					"indexed": false,
					"internalType": "string",
					"name": "name",
					"type": "string"
				},
				{
					"indexed": false,
					"internalType": "uint256",
					"name": "decimals",
					"type": "uint256"
				},
				{
					"indexed": false,
					"internalType": "address",
					"name": "iTokenAddress",
					"type": "address"
				},
				{
					"indexed": false,
					"internalType": "uint256",
					"name": "blockNumber",
					"type": "uint256"
				}
			],
			"name": "InstrumentAdded",
			"type": "event"
		},
		{
			"anonymous": false,
			"inputs": [
				{
					"indexed": false,
					"internalType": "uint32",
					"name": "initializationCounter",
					"type": "uint32"
				},
				{
					"indexed": false,
					"internalType": "uint224",
					"name": "curClock",
					"type": "uint224"
				}
			],
			"name": "InstrumentCounterUpdated",
			"type": "event"
		},
		{
			"anonymous": false,
			"inputs": [
				{
					"indexed": false,
					"internalType": "address",
					"name": "_instrument",
					"type": "address"
				},
				{
					"indexed": false,
					"internalType": "address",
					"name": "_iTokenAddress",
					"type": "address"
				},
				{
					"indexed": false,
					"internalType": "string",
					"name": "name",
					"type": "string"
				},
				{
					"indexed": false,
					"internalType": "uint256",
					"name": "blockNumber",
					"type": "uint256"
				}
			],
			"name": "InstrumentRemoved",
			"type": "event"
		},
		{
			"anonymous": false,
			"inputs": [
				{
					"indexed": false,
					"internalType": "address",
					"name": "instrumentAddress_",
					"type": "address"
				},
				{
					"indexed": false,
					"internalType": "string",
					"name": "name",
					"type": "string"
				},
				{
					"indexed": false,
					"internalType": "bool",
					"name": "isSighed",
					"type": "bool"
				},
				{
					"indexed": false,
					"internalType": "uint256",
					"name": "blockNumber",
					"type": "uint256"
				}
			],
			"name": "InstrumentSIGHed",
			"type": "event"
		},
		{
			"anonymous": false,
			"inputs": [
				{
					"indexed": false,
					"internalType": "uint256",
					"name": "SIGHSpeed",
					"type": "uint256"
				},
				{
					"indexed": false,
					"internalType": "uint256",
					"name": "sigh_speed_used",
					"type": "uint256"
				},
				{
					"indexed": false,
					"internalType": "uint256",
					"name": "sighPrice",
					"type": "uint256"
				},
				{
					"indexed": false,
					"internalType": "uint256",
					"name": "max_valueDistributionLimit",
					"type": "uint256"
				},
				{
					"indexed": false,
					"internalType": "uint256",
					"name": "totalLossesPerBlockAverage",
					"type": "uint256"
				},
				{
					"indexed": false,
					"internalType": "uint256",
					"name": "profitPotentialPerBlock",
					"type": "uint256"
				},
				{
					"indexed": false,
					"internalType": "uint256",
					"name": "lossesPlusProfitPotentialPerBlock",
					"type": "uint256"
				}
			],
			"name": "MaxSpeedUsedWhenRefreshingPriceSnapshots",
			"type": "event"
		},
		{
			"anonymous": false,
			"inputs": [
				{
					"indexed": false,
					"internalType": "uint256",
					"name": "oldSIGHSpeed",
					"type": "uint256"
				},
				{
					"indexed": false,
					"internalType": "uint256",
					"name": "newSIGHSpeed",
					"type": "uint256"
				},
				{
					"indexed": false,
					"internalType": "uint256",
					"name": "blockNumber_",
					"type": "uint256"
				}
			],
			"name": "NewSIGHSpeed",
			"type": "event"
		},
		{
			"anonymous": false,
			"inputs": [
				{
					"indexed": false,
					"internalType": "address",
					"name": "instrument",
					"type": "address"
				},
				{
					"indexed": false,
					"internalType": "uint256",
					"name": "prevPrice",
					"type": "uint256"
				},
				{
					"indexed": false,
					"internalType": "uint256",
					"name": "currentPrice",
					"type": "uint256"
				},
				{
					"indexed": false,
					"internalType": "uint256",
					"name": "currentClock",
					"type": "uint256"
				}
			],
			"name": "PriceSnapped",
			"type": "event"
		},
		{
			"anonymous": false,
			"inputs": [
				{
					"indexed": false,
					"internalType": "address",
					"name": "iToken",
					"type": "address"
				},
				{
					"indexed": false,
					"internalType": "uint256",
					"name": "prevPrice",
					"type": "uint256"
				},
				{
					"indexed": false,
					"internalType": "uint256",
					"name": "currentPrice",
					"type": "uint256"
				},
				{
					"indexed": false,
					"internalType": "uint32",
					"name": "currentCounter",
					"type": "uint32"
				}
			],
			"name": "PriceSnappedCheck",
			"type": "event"
		},
		{
			"anonymous": false,
			"inputs": [
				{
					"indexed": false,
					"internalType": "address",
					"name": "addressesProvider",
					"type": "address"
				},
				{
					"indexed": false,
					"internalType": "address",
					"name": "Sigh_Address",
					"type": "address"
				},
				{
					"indexed": false,
					"internalType": "address",
					"name": "priceOracle",
					"type": "address"
				},
				{
					"indexed": false,
					"internalType": "address",
					"name": "lendingPoolCore",
					"type": "address"
				}
			],
			"name": "SIGHDistributionHandlerInitialized",
			"type": "event"
		},
		{
			"anonymous": false,
			"inputs": [
				{
					"indexed": false,
					"internalType": "bool",
					"name": "previsSpeedUpperCheckAllowed",
					"type": "bool"
				},
				{
					"indexed": false,
					"internalType": "uint256",
					"name": "upperCheckProfitPercentage",
					"type": "uint256"
				},
				{
					"indexed": false,
					"internalType": "uint256",
					"name": "blockNumber",
					"type": "uint256"
				}
			],
			"name": "SpeedUpperCheckSwitched",
			"type": "event"
		},
		{
			"anonymous": false,
			"inputs": [
				{
					"indexed": false,
					"internalType": "address",
					"name": "instrumentAddress_",
					"type": "address"
				},
				{
					"indexed": false,
					"internalType": "uint256",
					"name": "prevStakingSpeed",
					"type": "uint256"
				},
				{
					"indexed": false,
					"internalType": "uint256",
					"name": "new_staking_Speed",
					"type": "uint256"
				},
				{
					"indexed": false,
					"internalType": "uint256",
					"name": "blockNumber",
					"type": "uint256"
				}
			],
			"name": "StakingSpeedUpdated",
			"type": "event"
		},
		{
			"anonymous": false,
			"inputs": [
				{
					"indexed": false,
					"internalType": "address",
					"name": "instrument",
					"type": "address"
				},
				{
					"indexed": false,
					"internalType": "uint256",
					"name": "prevSpeed",
					"type": "uint256"
				},
				{
					"indexed": false,
					"internalType": "uint256",
					"name": "newSpeed",
					"type": "uint256"
				},
				{
					"indexed": false,
					"internalType": "uint256",
					"name": "blockNumber",
					"type": "uint256"
				}
			],
			"name": "SuppliersSIGHSpeedUpdated",
			"type": "event"
		},
		{
			"anonymous": false,
			"inputs": [
				{
					"indexed": false,
					"internalType": "uint224",
					"name": "curClock",
					"type": "uint224"
				},
				{
					"indexed": false,
					"internalType": "uint256",
					"name": "blockNumbersForPriceSnapshots",
					"type": "uint256"
				},
				{
					"indexed": false,
					"internalType": "uint256",
					"name": "deltaBlocks_",
					"type": "uint256"
				},
				{
					"indexed": false,
					"internalType": "uint256",
					"name": "blocknumber",
					"type": "uint256"
				}
			],
			"name": "blockNumberForSnapshotUpdated",
			"type": "event"
		},
		{
			"anonymous": false,
			"inputs": [
				{
					"indexed": false,
					"internalType": "uint256",
					"name": "lossAmount",
					"type": "uint256"
				},
				{
					"indexed": false,
					"internalType": "uint256",
					"name": "instrumentDecimals",
					"type": "uint256"
				},
				{
					"indexed": false,
					"internalType": "uint256",
					"name": "priceDecimals",
					"type": "uint256"
				},
				{
					"indexed": false,
					"internalType": "uint256",
					"name": "totalDecimals",
					"type": "uint256"
				},
				{
					"indexed": false,
					"internalType": "uint256",
					"name": "correctionNumber",
					"type": "uint256"
				},
				{
					"indexed": false,
					"internalType": "uint256",
					"name": "correctedLossAmount",
					"type": "uint256"
				}
			],
			"name": "decimalsAdjustment",
			"type": "event"
		},
		{
			"anonymous": false,
			"inputs": [
				{
					"indexed": false,
					"internalType": "uint256",
					"name": "SIGH",
					"type": "uint256"
				}
			],
			"name": "maxSpeedCheck",
			"type": "event"
		},
		{
			"anonymous": false,
			"inputs": [
				{
					"indexed": false,
					"internalType": "uint256",
					"name": "prevDeltaBlocksForSpeed",
					"type": "uint256"
				},
				{
					"indexed": false,
					"internalType": "uint256",
					"name": "newDeltaBlocksForSpeed",
					"type": "uint256"
				},
				{
					"indexed": false,
					"internalType": "uint256",
					"name": "blockNumber",
					"type": "uint256"
				}
			],
			"name": "minimumBlocksForSpeedRefreshUpdated",
			"type": "event"
		},
		{
			"anonymous": false,
			"inputs": [
				{
					"indexed": false,
					"internalType": "address",
					"name": "market",
					"type": "address"
				},
				{
					"indexed": false,
					"internalType": "uint256",
					"name": "supplierLoss",
					"type": "uint256"
				},
				{
					"indexed": false,
					"internalType": "uint256",
					"name": "borrowerLoss",
					"type": "uint256"
				},
				{
					"indexed": false,
					"internalType": "uint256",
					"name": "totalLosses",
					"type": "uint256"
				}
			],
			"name": "refreshingSighSpeeds_1",
			"type": "event"
		},
		{
			"anonymous": false,
			"inputs": [
				{
					"indexed": false,
					"internalType": "address",
					"name": "market",
					"type": "address"
				},
				{
					"indexed": false,
					"internalType": "uint256",
					"name": "maxSpeed",
					"type": "uint256"
				},
				{
					"indexed": false,
					"internalType": "uint256",
					"name": "lossRatio",
					"type": "uint256"
				},
				{
					"indexed": false,
					"internalType": "uint256",
					"name": "supplierSpeed",
					"type": "uint256"
				},
				{
					"indexed": false,
					"internalType": "uint256",
					"name": "borrowerSpeed",
					"type": "uint256"
				}
			],
			"name": "refreshingSighSpeeds_2",
			"type": "event"
		},
		{
			"anonymous": false,
			"inputs": [
				{
					"indexed": false,
					"internalType": "address",
					"name": "market",
					"type": "address"
				},
				{
					"indexed": false,
					"internalType": "uint256",
					"name": "speed",
					"type": "uint256"
				},
				{
					"indexed": false,
					"internalType": "uint256",
					"name": "currentIndex",
					"type": "uint256"
				},
				{
					"indexed": false,
					"internalType": "uint256",
					"name": "prevBlock",
					"type": "uint256"
				},
				{
					"indexed": false,
					"internalType": "uint256",
					"name": "curBlock",
					"type": "uint256"
				},
				{
					"indexed": false,
					"internalType": "uint256",
					"name": "deltaBlocks",
					"type": "uint256"
				}
			],
			"name": "updateSIGHBorrowIndex_test1",
			"type": "event"
		},
		{
			"anonymous": false,
			"inputs": [
				{
					"indexed": false,
					"internalType": "address",
					"name": "market",
					"type": "address"
				},
				{
					"indexed": false,
					"internalType": "uint256",
					"name": "borrowAmount",
					"type": "uint256"
				},
				{
					"indexed": false,
					"internalType": "uint256",
					"name": "sigh_Accrued",
					"type": "uint256"
				},
				{
					"indexed": false,
					"internalType": "uint256",
					"name": "ratio",
					"type": "uint256"
				},
				{
					"indexed": false,
					"internalType": "uint256",
					"name": "index",
					"type": "uint256"
				}
			],
			"name": "updateSIGHBorrowIndex_test2",
			"type": "event"
		},
		{
			"anonymous": false,
			"inputs": [
				{
					"indexed": false,
					"internalType": "address",
					"name": "market",
					"type": "address"
				},
				{
					"indexed": false,
					"internalType": "uint256",
					"name": "newIndex",
					"type": "uint256"
				},
				{
					"indexed": false,
					"internalType": "uint256",
					"name": "blockNum",
					"type": "uint256"
				}
			],
			"name": "updateSIGHBorrowIndex_test3",
			"type": "event"
		},
		{
			"anonymous": false,
			"inputs": [
				{
					"indexed": false,
					"internalType": "address",
					"name": "market",
					"type": "address"
				},
				{
					"indexed": false,
					"internalType": "uint256",
					"name": "speed",
					"type": "uint256"
				},
				{
					"indexed": false,
					"internalType": "uint256",
					"name": "currentIndex",
					"type": "uint256"
				},
				{
					"indexed": false,
					"internalType": "uint256",
					"name": "prevBlock",
					"type": "uint256"
				},
				{
					"indexed": false,
					"internalType": "uint256",
					"name": "curBlock",
					"type": "uint256"
				},
				{
					"indexed": false,
					"internalType": "uint256",
					"name": "deltaBlocks",
					"type": "uint256"
				}
			],
			"name": "updateSIGHSupplyIndex_test1",
			"type": "event"
		},
		{
			"anonymous": false,
			"inputs": [
				{
					"indexed": false,
					"internalType": "address",
					"name": "market",
					"type": "address"
				},
				{
					"indexed": false,
					"internalType": "uint256",
					"name": "supplyTokens",
					"type": "uint256"
				},
				{
					"indexed": false,
					"internalType": "uint256",
					"name": "sigh_Accrued",
					"type": "uint256"
				},
				{
					"indexed": false,
					"internalType": "uint256",
					"name": "ratio",
					"type": "uint256"
				},
				{
					"indexed": false,
					"internalType": "uint256",
					"name": "index",
					"type": "uint256"
				}
			],
			"name": "updateSIGHSupplyIndex_test2",
			"type": "event"
		},
		{
			"anonymous": false,
			"inputs": [
				{
					"indexed": false,
					"internalType": "address",
					"name": "market",
					"type": "address"
				},
				{
					"indexed": false,
					"internalType": "uint256",
					"name": "newIndex",
					"type": "uint256"
				},
				{
					"indexed": false,
					"internalType": "uint256",
					"name": "blockNum",
					"type": "uint256"
				}
			],
			"name": "updateSIGHSupplyIndex_test3",
			"type": "event"
		},
		{
			"constant": false,
			"inputs": [
				{
					"internalType": "address",
					"name": "instrument_",
					"type": "address"
				}
			],
			"name": "Instrument_SIGHed",
			"outputs": [
				{
					"internalType": "bool",
					"name": "",
					"type": "bool"
				}
			],
			"payable": false,
			"stateMutability": "nonpayable",
			"type": "function"
		},
		{
			"constant": false,
			"inputs": [
				{
					"internalType": "address",
					"name": "instrument_",
					"type": "address"
				}
			],
			"name": "Instrument_UNSIGHed",
			"outputs": [
				{
					"internalType": "bool",
					"name": "",
					"type": "bool"
				}
			],
			"payable": false,
			"stateMutability": "nonpayable",
			"type": "function"
		},
		{
			"constant": true,
			"inputs": [],
			"name": "Sigh_Address",
			"outputs": [
				{
					"internalType": "contract IERC20",
					"name": "",
					"type": "address"
				}
			],
			"payable": false,
			"stateMutability": "view",
			"type": "function"
		},
		{
			"constant": false,
			"inputs": [
				{
					"internalType": "bool",
					"name": "isActivated",
					"type": "bool"
				},
				{
					"internalType": "uint256",
					"name": "profitPercentage",
					"type": "uint256"
				}
			],
			"name": "SpeedUpperCheckSwitch",
			"outputs": [
				{
					"internalType": "bool",
					"name": "",
					"type": "bool"
				}
			],
			"payable": false,
			"stateMutability": "nonpayable",
			"type": "function"
		},
		{
			"constant": false,
			"inputs": [
				{
					"internalType": "address",
					"name": "_instrument",
					"type": "address"
				},
				{
					"internalType": "address",
					"name": "_iTokenAddress",
					"type": "address"
				},
				{
					"internalType": "uint256",
					"name": "_decimals",
					"type": "uint256"
				}
			],
			"name": "addInstrument",
			"outputs": [
				{
					"internalType": "bool",
					"name": "",
					"type": "bool"
				}
			],
			"payable": false,
			"stateMutability": "nonpayable",
			"type": "function"
		},
		{
			"constant": true,
			"inputs": [],
			"name": "addressesProvider",
			"outputs": [
				{
					"internalType": "contract GlobalAddressesProvider",
					"name": "",
					"type": "address"
				}
			],
			"payable": false,
			"stateMutability": "view",
			"type": "function"
		},
		{
			"constant": true,
			"inputs": [
				{
					"internalType": "address",
					"name": "instrument_",
					"type": "address"
				},
				{
					"internalType": "uint256",
					"name": "clock",
					"type": "uint256"
				}
			],
			"name": "checkPriceSnapshots",
			"outputs": [
				{
					"internalType": "uint256",
					"name": "",
					"type": "uint256"
				}
			],
			"payable": false,
			"stateMutability": "view",
			"type": "function"
		},
		{
			"constant": true,
			"inputs": [
				{
					"internalType": "address",
					"name": "instrument_",
					"type": "address"
				}
			],
			"name": "checkinitializationCounter",
			"outputs": [
				{
					"internalType": "uint32",
					"name": "",
					"type": "uint32"
				}
			],
			"payable": false,
			"stateMutability": "view",
			"type": "function"
		},
		{
			"constant": true,
			"inputs": [],
			"name": "getAllInstrumentsSupported",
			"outputs": [
				{
					"internalType": "address[]",
					"name": "",
					"type": "address[]"
				}
			],
			"payable": false,
			"stateMutability": "view",
			"type": "function"
		},
		{
			"constant": true,
			"inputs": [
				{
					"internalType": "address",
					"name": "instrument_",
					"type": "address"
				}
			],
			"name": "getAllPriceSnapshots",
			"outputs": [
				{
					"internalType": "uint256[24]",
					"name": "",
					"type": "uint256[24]"
				}
			],
			"payable": false,
			"stateMutability": "view",
			"type": "function"
		},
		{
			"constant": true,
			"inputs": [],
			"name": "getBlockNumber",
			"outputs": [
				{
					"internalType": "uint32",
					"name": "",
					"type": "uint32"
				}
			],
			"payable": false,
			"stateMutability": "view",
			"type": "function"
		},
		{
			"constant": true,
			"inputs": [],
			"name": "getBlockNumbersForPriceSnapshots",
			"outputs": [
				{
					"internalType": "uint256[24]",
					"name": "",
					"type": "uint256[24]"
				}
			],
			"payable": false,
			"stateMutability": "view",
			"type": "function"
		},
		{
			"constant": true,
			"inputs": [],
			"name": "getBlocksRemainingToNextSpeedRefresh",
			"outputs": [
				{
					"internalType": "uint256",
					"name": "",
					"type": "uint256"
				}
			],
			"payable": false,
			"stateMutability": "view",
			"type": "function"
		},
		{
			"constant": true,
			"inputs": [],
			"name": "getDeltaBlocksForSpeed",
			"outputs": [
				{
					"internalType": "uint256",
					"name": "",
					"type": "uint256"
				}
			],
			"payable": false,
			"stateMutability": "view",
			"type": "function"
		},
		{
			"constant": true,
			"inputs": [
				{
					"internalType": "address",
					"name": "instrument_",
					"type": "address"
				}
			],
			"name": "getInstrumentBorrowIndex",
			"outputs": [
				{
					"internalType": "uint256",
					"name": "",
					"type": "uint256"
				}
			],
			"payable": false,
			"stateMutability": "view",
			"type": "function"
		},
		{
			"constant": true,
			"inputs": [
				{
					"internalType": "address",
					"name": "instrument_",
					"type": "address"
				}
			],
			"name": "getInstrumentData",
			"outputs": [
				{
					"internalType": "string",
					"name": "name",
					"type": "string"
				},
				{
					"internalType": "address",
					"name": "iTokenAddress",
					"type": "address"
				},
				{
					"internalType": "uint256",
					"name": "decimals",
					"type": "uint256"
				},
				{
					"internalType": "bool",
					"name": "isSIGHMechanismActivated",
					"type": "bool"
				},
				{
					"internalType": "uint256",
					"name": "supplyindex",
					"type": "uint256"
				},
				{
					"internalType": "uint256",
					"name": "borrowindex",
					"type": "uint256"
				}
			],
			"payable": false,
			"stateMutability": "view",
			"type": "function"
		},
		{
			"constant": true,
			"inputs": [
				{
					"internalType": "address",
					"name": "instrument",
					"type": "address"
				}
			],
			"name": "getInstrumentSpeeds",
			"outputs": [
				{
					"internalType": "uint256",
					"name": "suppliers_speed",
					"type": "uint256"
				},
				{
					"internalType": "uint256",
					"name": "borroweers_speed",
					"type": "uint256"
				},
				{
					"internalType": "uint256",
					"name": "staking_speed",
					"type": "uint256"
				}
			],
			"payable": false,
			"stateMutability": "view",
			"type": "function"
		},
		{
			"constant": true,
			"inputs": [
				{
					"internalType": "address",
					"name": "instrument_",
					"type": "address"
				}
			],
			"name": "getInstrumentSupplyIndex",
			"outputs": [
				{
					"internalType": "uint256",
					"name": "",
					"type": "uint256"
				}
			],
			"payable": false,
			"stateMutability": "view",
			"type": "function"
		},
		{
			"constant": true,
			"inputs": [],
			"name": "getPrevSpeedRefreshBlock",
			"outputs": [
				{
					"internalType": "uint256",
					"name": "",
					"type": "uint256"
				}
			],
			"payable": false,
			"stateMutability": "view",
			"type": "function"
		},
		{
			"constant": true,
			"inputs": [],
			"name": "getSIGHBalance",
			"outputs": [
				{
					"internalType": "uint256",
					"name": "",
					"type": "uint256"
				}
			],
			"payable": false,
			"stateMutability": "view",
			"type": "function"
		},
		{
			"constant": true,
			"inputs": [],
			"name": "getSIGHSpeed",
			"outputs": [
				{
					"internalType": "uint256",
					"name": "",
					"type": "uint256"
				}
			],
			"payable": false,
			"stateMutability": "view",
			"type": "function"
		},
		{
			"constant": true,
			"inputs": [],
			"name": "getupperCheckProfitPercentage",
			"outputs": [
				{
					"internalType": "uint256",
					"name": "",
					"type": "uint256"
				}
			],
			"payable": false,
			"stateMutability": "view",
			"type": "function"
		},
		{
			"constant": false,
			"inputs": [
				{
					"internalType": "contract GlobalAddressesProvider",
					"name": "addressesProvider_",
					"type": "address"
				}
			],
			"name": "initialize",
			"outputs": [],
			"payable": false,
			"stateMutability": "nonpayable",
			"type": "function"
		},
		{
			"constant": true,
			"inputs": [
				{
					"internalType": "address",
					"name": "instrument_",
					"type": "address"
				}
			],
			"name": "isInstrumentSupported",
			"outputs": [
				{
					"internalType": "bool",
					"name": "",
					"type": "bool"
				}
			],
			"payable": false,
			"stateMutability": "view",
			"type": "function"
		},
		{
			"constant": true,
			"inputs": [],
			"name": "lendingPoolCore",
			"outputs": [
				{
					"internalType": "contract ILendingPoolCore",
					"name": "",
					"type": "address"
				}
			],
			"payable": false,
			"stateMutability": "view",
			"type": "function"
		},
		{
			"constant": true,
			"inputs": [],
			"name": "oracle",
			"outputs": [
				{
					"internalType": "contract IPriceOracleGetter",
					"name": "",
					"type": "address"
				}
			],
			"payable": false,
			"stateMutability": "view",
			"type": "function"
		},
		{
			"constant": false,
			"inputs": [],
			"name": "refreshConfig",
			"outputs": [],
			"payable": false,
			"stateMutability": "nonpayable",
			"type": "function"
		},
		{
			"constant": false,
			"inputs": [],
			"name": "refreshSIGHSpeeds",
			"outputs": [
				{
					"internalType": "bool",
					"name": "",
					"type": "bool"
				}
			],
			"payable": false,
			"stateMutability": "nonpayable",
			"type": "function"
		},
		{
			"constant": false,
			"inputs": [
				{
					"internalType": "address",
					"name": "_instrument",
					"type": "address"
				},
				{
					"internalType": "address",
					"name": "_iTokenAddress",
					"type": "address"
				}
			],
			"name": "removeInstrument",
			"outputs": [
				{
					"internalType": "bool",
					"name": "",
					"type": "bool"
				}
			],
			"payable": false,
			"stateMutability": "nonpayable",
			"type": "function"
		},
		{
			"constant": true,
			"inputs": [],
			"name": "totalInstrumentsSupported",
			"outputs": [
				{
					"internalType": "uint256",
					"name": "",
					"type": "uint256"
				}
			],
			"payable": false,
			"stateMutability": "view",
			"type": "function"
		},
		{
			"constant": false,
			"inputs": [
				{
					"internalType": "address",
					"name": "instrument",
					"type": "address"
				},
				{
					"internalType": "address",
					"name": "user",
					"type": "address"
				},
				{
					"internalType": "address",
					"name": "sighAccuredTo",
					"type": "address"
				},
				{
					"internalType": "uint256",
					"name": "sigh_Amount",
					"type": "uint256"
				}
			],
			"name": "transferSighTotheUser",
			"outputs": [
				{
					"internalType": "uint256",
					"name": "",
					"type": "uint256"
				}
			],
			"payable": false,
			"stateMutability": "nonpayable",
			"type": "function"
		},
		{
			"constant": false,
			"inputs": [
				{
					"internalType": "uint256",
					"name": "deltaBlocksLimit",
					"type": "uint256"
				}
			],
			"name": "updateDeltaBlocksForSpeedRefresh",
			"outputs": [
				{
					"internalType": "bool",
					"name": "",
					"type": "bool"
				}
			],
			"payable": false,
			"stateMutability": "nonpayable",
			"type": "function"
		},
		{
			"constant": false,
			"inputs": [
				{
					"internalType": "address",
					"name": "currentInstrument",
					"type": "address"
				}
			],
			"name": "updateSIGHBorrowIndex",
			"outputs": [
				{
					"internalType": "bool",
					"name": "",
					"type": "bool"
				}
			],
			"payable": false,
			"stateMutability": "nonpayable",
			"type": "function"
		},
		{
			"constant": false,
			"inputs": [
				{
					"internalType": "uint256",
					"name": "SIGHSpeed_",
					"type": "uint256"
				}
			],
			"name": "updateSIGHSpeed",
			"outputs": [
				{
					"internalType": "bool",
					"name": "",
					"type": "bool"
				}
			],
			"payable": false,
			"stateMutability": "nonpayable",
			"type": "function"
		},
		{
			"constant": false,
			"inputs": [
				{
					"internalType": "address",
					"name": "currentInstrument",
					"type": "address"
				}
			],
			"name": "updateSIGHSupplyIndex",
			"outputs": [
				{
					"internalType": "bool",
					"name": "",
					"type": "bool"
				}
			],
			"payable": false,
			"stateMutability": "nonpayable",
			"type": "function"
		},
		{
			"constant": false,
			"inputs": [
				{
					"internalType": "address",
					"name": "instrument_",
					"type": "address"
				},
				{
					"internalType": "uint256",
					"name": "newStakingSpeed",
					"type": "uint256"
				}
			],
			"name": "updateStakingSpeedForAnInstrument",
			"outputs": [
				{
					"internalType": "bool",
					"name": "",
					"type": "bool"
				}
			],
			"payable": false,
			"stateMutability": "nonpayable",
			"type": "function"
		}
	]
}