{
	"data": {
		"bytecode": {
			"linkReferences": {},
			"object": "60008080556037805460ff60a01b1916905560a0604052670de0b6b3a764000060808190526038556039819055603a819055603b556001605b5534801561004557600080fd5b50614c9d806100556000396000f3fe608060405234801561001057600080fd5b50600436106102535760003560e01c80636f610c5011610146578063be36810a116100c3578063c6a6bfb111610087578063c6a6bfb1146107b0578063c72c4d10146107b8578063ca2a9602146107c0578063d6357063146107ff578063d74d6d3f14610825578063eeabe79f1461084a57610253565b8063be36810a146106ff578063bf1678f614610707578063c3d1b72d1461070f578063c4d66de814610735578063c6486d301461075b57610253565b80638d9cf8641161010a5780638d9cf8641461063b578063975152dd146106615780639a717b24146106695780639df816cf1461068f578063b482e0d1146106c957610253565b80636f610c50146105a35780637c52b668146105ab5780637c55ccb3146105d15780637dc0d1d0146105db578063831449de146105e357610253565b80633e955265116101d4578063570b39d011610198578063570b39d01461050e578063659f73c5146105165780636767198914610557578063693ebf7f146105935780636b8ce90b1461059b57610253565b80633e955265146103bc57806342cbb15c146103c45780634dc54a38146103e55780634df859fd146104bc5780634f425fbb146104e857610253565b806321428a121161021b57806321428a121461031957806326562793146103215780632df0f9a9146103475780633e322f5f146103645780633e5eee461461036c57610253565b806304c66321146102585780630d7ff8871461029857806310fa61e6146102bc5780631e7faed9146102f45780631eddc47314610311575b600080fd5b6102846004803603604081101561026e57600080fd5b506001600160a01b038135169060200135610852565b604080519115158252519081900360200190f35b6102a0610a12565b604080516001600160a01b039092168252519081900360200190f35b6102e2600480360360208110156102d257600080fd5b50356001600160a01b0316610a21565b60408051918252519081900360200190f35b6102846004803603602081101561030a57600080fd5b5035610a6d565b6102e2610ba0565b6102a0610ba7565b6102846004803603602081101561033757600080fd5b50356001600160a01b0316610bb6565b6102846004803603602081101561035d57600080fd5b5035610f0c565b6102e2611013565b6103926004803603602081101561038257600080fd5b50356001600160a01b0316611019565b6040805160ff90951685526020850193909352838301919091526060830152519081900360800190f35b6102e261104e565b6103cc611054565b6040805163ffffffff9092168252519081900360200190f35b61040b600480360360208110156103fb57600080fd5b50356001600160a01b0316611058565b6040518080602001876001600160a01b03166001600160a01b0316815260200186815260200185151515158152602001848152602001838152602001828103825288818151815260200191508051906020019080838360005b8381101561047c578181015183820152602001610464565b50505050905090810190601f1680156104a95780820380516001836020036101000a031916815260200191505b5097505050505050505060405180910390f35b6102e2600480360360408110156104d257600080fd5b506001600160a01b038135169060200135611146565b610284600480360360208110156104fe57600080fd5b50356001600160a01b0316611172565b6102e2611273565b61051e611279565b604051808261030080838360005b8381101561054457818101518382015260200161052c565b5050505090500191505060405180910390f35b6102846004803603608081101561056d57600080fd5b506001600160a01b038135811691602081013582169160408201351690606001356112b6565b6102e2611881565b6102e2611887565b6102e261188d565b610284600480360360208110156105c157600080fd5b50356001600160a01b03166118c4565b6105d96119bd565b005b6102a0611a7c565b6105eb611a8b565b60408051602080825283518183015283519192839290830191858101910280838360005b8381101561062757818101518382015260200161060f565b505050509050019250505060405180910390f35b6103cc6004803603602081101561065157600080fd5b50356001600160a01b0316611aec565b6102e2611b10565b6102e26004803603602081101561067f57600080fd5b50356001600160a01b0316611b16565b610284600480360360808110156106a557600080fd5b506001600160a01b0381351690602081013590604081013590606001351515611b59565b6102e2600480360360608110156106df57600080fd5b506001600160a01b03813581169160208101359091169060400135611e43565b6102e26121a8565b6102846121ae565b6102846004803603602081101561072557600080fd5b50356001600160a01b0316612203565b6105d96004803603602081101561074b57600080fd5b50356001600160a01b0316612221565b6107816004803603602081101561077157600080fd5b50356001600160a01b03166122e1565b6040805160ff909616865260208601949094528484019290925260608401526080830152519081900360a00190f35b6102e261231d565b6102a061239f565b6107e6600480360360208110156107d657600080fd5b50356001600160a01b03166123ae565b6040805192835260208301919091528051918290030190f35b61051e6004803603602081101561081557600080fd5b50356001600160a01b03166123d4565b6102846004803603604081101561083b57600080fd5b50803515159060200135612427565b6102e26125fb565b6000336001600160a01b0316603460009054906101000a90046001600160a01b03166001600160a01b031663db49224b6040518163ffffffff1660e01b815260040160206040518083038186803b1580156108ac57600080fd5b505afa1580156108c0573d6000803e3d6000fd5b505050506040513d60208110156108d657600080fd5b50516001600160a01b03161461091d5760405162461bcd60e51b815260040180806020018281038252603a81526020018061488c603a913960400191505060405180910390fd5b6001600160a01b0383166000908152603f602052604090205460ff16610986576040805162461bcd60e51b815260206004820152601960248201527824b739ba393ab6b2b73a103737ba1039bab83837b93a32b21760391b604482015290519081900360640190fd5b6001600160a01b0383166000908152605a602052604090206009018054908390557f60ab6bb8f64f97a68e803dc67f55f0a08732fe0db1e669b39f3b45dd35d9580d8482856109d3611054565b604080516001600160a01b03909516855260208501939093528383019190915263ffffffff166060830152519081900360800190a15060019392505050565b6037546001600160a01b031681565b6001600160a01b0381166000908152603f602052604081205460ff1615610a6457506001600160a01b0381166000908152603f6020526040902060080154610a68565b5060005b919050565b6000336001600160a01b0316603460009054906101000a90046001600160a01b03166001600160a01b031663db49224b6040518163ffffffff1660e01b815260040160206040518083038186803b158015610ac757600080fd5b505afa158015610adb573d6000803e3d6000fd5b505050506040513d6020811015610af157600080fd5b50516001600160a01b031614610b385760405162461bcd60e51b815260040180806020018281038252603a81526020018061488c603a913960400191505060405180910390fd5b610b406121ae565b50605b8054908390557f8574a512a3537f7f97e2c60304507aa6816866c2d1fed5ffa1815cb01d2b1e448184610b74611054565b60408051938452602084019290925263ffffffff1682820152519081900360600190a150600192915050565b603b545b90565b6035546001600160a01b031681565b6037546000906001600160a01b03163314610c025760405162461bcd60e51b815260040180806020018281038252603181526020018061485b6031913960400191505060405180910390fd5b6001600160a01b0382166000908152603f602052604090205460ff16610c6f576040805162461bcd60e51b815260206004820152601d60248201527f496e737472756d656e7420616c726561647920737570706f727465642e000000604482015290519081900360640190fd5b610c77612601565b610cb25760405162461bcd60e51b8152600401808060200182810382526022815260200180614a976022913960400191505060405180910390fd5b603e54600090815b81811015610d0457846001600160a01b0316603e8281548110610cd957fe5b6000918252602090912001546001600160a01b03161415610cfc57809250610d04565b600101610cba565b50603e6001820381548110610d1557fe5b600091825260209091200154603e80546001600160a01b039092169184908110610d3b57fe5b600091825260209091200180546001600160a01b0319166001600160a01b0392909216919091179055603e805490610d77906000198301614492565b50603e546000198201908114610dbe5760405162461bcd60e51b81526004018080602001828103825260468152602001806146b16046913960600191505060405180910390fd5b6001600160a01b0385166000908152603f60205260408120805460ff1916815590610dec60018301826144b6565b50600281810180546001600160a01b031990811690915560038084018054909216909155600060048085018290556005808601805460ff19908116909155600680880185905560078089018690556008808a018790556009998a018790556001600160a01b038f168752605a6020908152604080892080549096168655600186018990559985018890559784018790559483018690559282018590558101849055908101839055908101829055909301839055819052812090610eaf82826144fd565b50601801805463ffffffff19169055604080516001600160a01b038716815243602082015281517f057ca28169e1c052b51583802d0c8d8c934e939672146aa3648005bf500256a7929181900390910190a1506001949350505050565b6000336001600160a01b0316603460009054906101000a90046001600160a01b03166001600160a01b031663db49224b6040518163ffffffff1660e01b815260040160206040518083038186803b158015610f6657600080fd5b505afa158015610f7a573d6000803e3d6000fd5b505050506040513d6020811015610f9057600080fd5b50516001600160a01b031614610fd75760405162461bcd60e51b815260040180806020018281038252603a81526020018061488c603a913960400191505060405180910390fd5b610fdf6121ae565b50603c8054908390557f61108193375c8731a245b1f1f657bc84dc9031680a54eb7c816c37ae750d7a438184610b74611054565b603a5490565b6001600160a01b03166000908152605a6020526040902080546007820154600883015460099093015460ff9092169390929190565b605c5490565b4390565b6001600160a01b038181166000908152603f6020908152604080832060028082015460048301546005840154600685015460088601546001968701805489516101009982161599909902600019011696909604601f81018a90048a0288018a0190985287875260609a8a998a998a998a9998909316969560ff169493929188919083018282801561112a5780601f106110ff5761010080835404028352916020019161112a565b820191906000526020600020905b81548152906001019060200180831161110d57829003601f168201915b5050505050955095509550955095509550955091939550919395565b6001600160a01b0382166000908152604060208190528120826018811061116957fe5b01549392505050565b6037546000906001600160a01b031633146111be5760405162461bcd60e51b815260040180806020018281038252603181526020018061485b6031913960400191505060405180910390fd5b6001600160a01b0382166000908152603f602052604090205460ff16611227576040805162461bcd60e51b815260206004820152601960248201527824b739ba393ab6b2b73a103737ba1039bab83837b93a32b21760391b604482015290519081900360640190fd5b6112308261265a565b61126b5760405162461bcd60e51b815260040180806020018281038252602d815260200180614a11602d913960400191505060405180910390fd5b506001919050565b603c5490565b61128161450c565b604080516103008101918290529060419060189082845b815481526020019060010190808311611298575b5050505050905090565b6037546000906001600160a01b031633146113025760405162461bcd60e51b815260040180806020018281038252603181526020018061485b6031913960400191505060405180910390fd5b6001600160a01b0385166000908152603f602052604090205460ff1615611370576040805162461bcd60e51b815260206004820152601d60248201527f496e737472756d656e7420616c726561647920737570706f727465642e000000604482015290519081900360640190fd5b603e80546001808201835560009283527f8d800d6614d35eed73733ee453164a3b48076eb3138f466adeeb9dec7bb31f7090910180546001600160a01b0319166001600160a01b0389811691909117909155604080516101408101825292835280516306fdde0360e01b81529051889460208501938616926306fdde039260048083019392829003018186803b15801561140957600080fd5b505afa15801561141d573d6000803e3d6000fd5b505050506040513d6000823e601f3d908101601f19168201604052602081101561144657600080fd5b810190808051604051939291908464010000000082111561146657600080fd5b90830190602082018581111561147b57600080fd5b825164010000000081118282018810171561149557600080fd5b82525081516020918201929091019080838360005b838110156114c25781810151838201526020016114aa565b50505050905090810190601f1680156114ef5780820380516001836020036101000a031916815260200191505b506040525050508152602001866001600160a01b03168152602001856001600160a01b031681526020018481526020016000151581526020016ec097ce7bc90715b34b9f10000000008152602001611545611054565b63ffffffff1681526020016ec097ce7bc90715b34b9f1000000000815260200161156d611054565b63ffffffff1690526001600160a01b0387166000908152603f602090815260409091208251815460ff191690151517815582820151805191926115b89260018501929091019061452b565b5060408201518160020160006101000a8154816001600160a01b0302191690836001600160a01b0316021790555060608201518160030160006101000a8154816001600160a01b0302191690836001600160a01b031602179055506080820151816004015560a08201518160050160006101000a81548160ff02191690831515021790555060c0820151816006015560e0820151816007015561010082015181600801556101208201518160090155905050604051806101400160405280600060ff168152602001670de0b6b3a76400008152602001670de0b6b3a764000081526020016000815260200160008152602001600081526020016000815260200160008152602001600081526020016000815250605a6000886001600160a01b03166001600160a01b0316815260200190815260200160002060008201518160000160006101000a81548160ff021916908360ff1602179055506020820151816001015560408201518160020155606082015181600301556080820151816004015560a0820151816005015560c0820151816006015560e082015181600701556101008201518160080155610120820151816009015590505060406000876001600160a01b03166001600160a01b0316815260200190815260200160002060180160009054906101000a900463ffffffff1663ffffffff166000141561181d576117bf61450c565b604080518082018252828152600060208083018290526001600160a01b038b1682528390529190912081516117f790829060186145a5565b50602091909101516018909101805463ffffffff191663ffffffff909216919091179055505b604080516001600160a01b03808916825280881660208301528616818301526060810185905243608082015290517f277a3d0c5095ef666c15fd8809f0980618b283fa86541cdf3a473ce33f5c60799181900360a00190a150600195945050505050565b60385490565b60395490565b60008061189c43605c5461289a565b905080605b5411156118bc576118b4605b548261289a565b915050610ba4565b600091505090565b6037546000906001600160a01b031633146119105760405162461bcd60e51b815260040180806020018281038252603181526020018061485b6031913960400191505060405180910390fd5b6001600160a01b0382166000908152603f602052604090205460ff16611979576040805162461bcd60e51b815260206004820152601960248201527824b739ba393ab6b2b73a103737ba1039bab83837b93a32b21760391b604482015290519081900360640190fd5b611982826128db565b61126b5760405162461bcd60e51b815260040180806020018281038252602d815260200180614b80602d913960400191505060405180910390fd5b6034546040805163db49224b60e01b8152905133926001600160a01b03169163db49224b916004808301926020929190829003018186803b158015611a0157600080fd5b505afa158015611a15573d6000803e3d6000fd5b505050506040513d6020811015611a2b57600080fd5b50516001600160a01b031614611a725760405162461bcd60e51b815260040180806020018281038252603a81526020018061488c603a913960400191505060405180910390fd5b611a7a612bd6565b565b6036546001600160a01b031681565b6060603e8054806020026020016040519081016040528092919081815260200182805480156112ac57602002820191906000526020600020905b81546001600160a01b03168152600190910190602001808311611ac5575050505050905090565b6001600160a01b031660009081526040602081905290206018015463ffffffff1690565b603d5490565b6001600160a01b0381166000908152603f602052604081205460ff1615610a6457506001600160a01b0381166000908152603f6020526040902060060154610a68565b6000336001600160a01b0316603460009054906101000a90046001600160a01b03166001600160a01b031663db49224b6040518163ffffffff1660e01b815260040160206040518083038186803b158015611bb357600080fd5b505afa158015611bc7573d6000803e3d6000fd5b505050506040513d6020811015611bdd57600080fd5b50516001600160a01b031614611c245760405162461bcd60e51b815260040180806020018281038252603a81526020018061488c603a913960400191505060405180910390fd5b6001600160a01b0385166000908152603f602052604090205460ff16611c8d576040805162461bcd60e51b815260206004820152601960248201527824b739ba393ab6b2b73a103737ba1039bab83837b93a32b21760391b604482015290519081900360640190fd5b662386f26fc10000841015611cd35760405162461bcd60e51b81526004018080602001828103825260488152602001806146696048913960600191505060405180910390fd5b678ac7230489e80000841115611d1a5760405162461bcd60e51b81526004018080602001828103825260448152602001806148176044913960600191505060405180910390fd5b662386f26fc10000831015611d605760405162461bcd60e51b81526004018080602001828103825260488152602001806149436048913960600191505060405180910390fd5b678ac7230489e80000831115611da75760405162461bcd60e51b81526004018080602001828103825260448152602001806148ff6044913960600191505060405180910390fd5b611daf6121ae565b506001600160a01b0385166000818152603f60209081526040808320600501805460ff1916871515178155605a835292819020600181018990556002018790559154825193845260ff1615159083015281810186905260608201859052517f4581958725035645ecd9f28d5a64e8667be51f54a77f1b1cf9b346f23c7f4d80916080908290030190a1506001949350505050565b600083611e4e6145d2565b6001600160a01b0382166000908152603f6020908152604091829020825161014081018452815460ff1615158152600180830180548651600261010094831615949094026000190190911692909204601f8101869004860283018601909652858252919492938581019391929190830182828015611f0d5780601f10611ee257610100808354040283529160200191611f0d565b820191906000526020600020905b815481529060010190602001808311611ef057829003601f168201915b505050918352505060028201546001600160a01b039081166020830152600383015416604082015260048201546060820152600582015460ff1615156080820152600682015460a0820152600782015460c0820152600882015460e0820152600990910154610100909101528051909150611fb95760405162461bcd60e51b815260040180806020018281038252603d8152602001806146f7603d913960400191505060405180910390fd5b80606001516001600160a01b0316336001600160a01b03161461200d5760405162461bcd60e51b815260040180806020018281038252605281526020018061479d6052913960600191505060405180910390fd5b603554604080516370a0823160e01b8152306004820152905160009287926001600160a01b03909116916370a0823191602480820192602092909190829003018186803b15801561205d57600080fd5b505afa158015612071573d6000803e3d6000fd5b505050506040513d602081101561208757600080fd5b5051111561219b576035546040805163a9059cbb60e01b81526001600160a01b038981166004830152602482018990529151919092169163a9059cbb9160448083019260209291908290030181600087803b1580156120e557600080fd5b505af11580156120f9573d6000803e3d6000fd5b505050506040513d602081101561210f57600080fd5b505161214c5760405162461bcd60e51b815260040180806020018281038252602c815260200180614ae7602c913960400191505060405180910390fd5b604080516001600160a01b03808a1682528816602082015280820187905290517f922c86da5ba82864ddc6d719ccdd80a788323e2a4dc17cfe258d00ba885b2bec9181900360600190a161219e565b50835b9695505050505050565b605b5490565b60008043905060006121db82605c5460405180606001604052806036815260200161473460369139612d7b565b9050605b5481106121fa576121ee612e12565b50605c55506001610ba4565b60009250505090565b6001600160a01b03166000908152603f602052604090205460ff1690565b600061222b6138aa565b60015490915060ff168061224257506122426138af565b8061224e575060005481115b6122895760405162461bcd60e51b815260040180806020018281038252602e815260200180614ab9602e913960400191505060405180910390fd5b60015460ff161580156122a8576001805460ff19168117905560008290555b603480546001600160a01b0319166001600160a01b0385161790556122cb612bd6565b80156122dc576001805460ff191690555b505050565b6001600160a01b03166000908152605a60205260409020805460048201546006830154600384015460059094015460ff90931694919390929091565b603554604080516370a0823160e01b8152306004820152905160009283926001600160a01b03909116916370a0823191602480820192602092909190829003018186803b15801561236d57600080fd5b505afa158015612381573d6000803e3d6000fd5b505050506040513d602081101561239757600080fd5b505191505090565b6034546001600160a01b031681565b6001600160a01b03166000908152605a6020526040902060018101546002909101549091565b6123dc61450c565b6001600160a01b0382166000908152604060208190529081902081516103008101928390529160189082845b8154815260200190600101908083116124085750505050509050919050565b6000336001600160a01b0316603460009054906101000a90046001600160a01b03166001600160a01b031663db49224b6040518163ffffffff1660e01b815260040160206040518083038186803b15801561248157600080fd5b505afa158015612495573d6000803e3d6000fd5b505050506040513d60208110156124ab57600080fd5b50516001600160a01b0316146124f25760405162461bcd60e51b815260040180806020018281038252603a81526020018061488c603a913960400191505060405180910390fd5b662386f26fc100008210156125385760405162461bcd60e51b81526004018080602001828103825260488152602001806149436048913960600191505060405180910390fd5b678ac7230489e8000082111561257f5760405162461bcd60e51b81526004018080602001828103825260448152602001806148ff6044913960600191505060405180910390fd5b6037805460ff60a01b1916600160a01b851515810291909117918290556040805160208082018352908690526038869055815160ff93909404929092161515835290820184905280517fd55be47c68f8b685395f793f2bb6bd42d63a65216e247f7afdcf33fdb2f94bb09281900390910190a150600192915050565b603e5490565b6000805b603e54811015612652576000603e828154811061261e57fe5b6000918252602090912001546001600160a01b0316905061263e8161265a565b50612648816128db565b5050600101612605565b506001905090565b600080612665611054565b6001600160a01b0384166000908152603f602052604090206007015463ffffffff91909116915081141561269d576001915050610a68565b6001600160a01b0383166000908152603f60209081526040808320605a8352818420600781015460099091015483516060810190945260338085529295946126f19492939192919061476a908301396138b5565b9050600061271c848460070154604051806060016040528060338152602001614c3660339139612d7b565b905060008111801561272e5750600082115b1561288c57600061273f8284613913565b6001600160a01b038089166000908152603f602090815260408083206002015481516318160ddd60e01b81529151959650929492909316926318160ddd9260048083019392829003018186803b15801561279857600080fd5b505afa1580156127ac573d6000803e3d6000fd5b505050506040513d60208110156127c257600080fd5b505190506127ce61463b565b600082116127eb57604051806020016040528060008152506127f5565b6127f58383613955565b90506127ff61463b565b61281b6040518060200160405280896006015481525083613993565b82518151604080516001600160a01b038f168152602081018890528082018990526060810193909352608083019190915260a082018b9052519192507f125a275b17a028107fb8ea33eab77a419fe44c0237a8f4ec5a20e536529b3c62919081900360c00190a15160068701555050505b505060070155506001919050565b60006128d48383604051806040016040528060158152602001747375627472616374696f6e20756e646572666c6f7760581b815250612d7b565b9392505050565b6000806128e6611054565b6001600160a01b0384166000908152603f602052604090206009015463ffffffff91909116915081141561291e576001915050610a68565b6001600160a01b0383166000908152603f60209081526040808320605a8352818420600881015460099091015483516060810190945260338085529295946129729492939192919061476a908301396138b5565b9050600061299d848460090154604051806060016040528060338152602001614a3e60339139612d7b565b6037546040805163358b080b60e21b81526001600160a01b038a811660048301529151939450600093919092169163d62c202c916024808301926020929190829003018186803b1580156129f057600080fd5b505afa158015612a04573d6000803e3d6000fd5b505050506040513d6020811015612a1a57600080fd5b505160375460408051632c8dcf3f60e01b81526001600160a01b038b8116600483015291519394506000939190921691632c8dcf3f916024808301926020929190829003018186803b158015612a6f57600080fd5b505afa158015612a83573d6000803e3d6000fd5b505050506040513d6020811015612a9957600080fd5b505160408051606081019091526026808252919250600091612ac7918591859190614a7160208301396138b5565b9050600084118015612ad95750600085115b15612bc5576000612aea8587613913565b9050612af461463b565b60008311612b115760405180602001604052806000815250612b1b565b612b1b8284613955565b9050612b2561463b565b612b4160405180602001604052808b6008015481525083613993565b90507f1abb946ba6c022fcf874811b294895f1634872403a0b573600ae4b8f12c2bd608c8688868660000151866000015160405180876001600160a01b03166001600160a01b03168152602001868152602001858152602001848152602001838152602001828152602001965050505050505060405180910390a151600889015550505b505050505060090155506001919050565b603460009054906101000a90046001600160a01b03166001600160a01b031663841aa40c6040518163ffffffff1660e01b815260040160206040518083038186803b158015612c2457600080fd5b505afa158015612c38573d6000803e3d6000fd5b505050506040513d6020811015612c4e57600080fd5b5051603580546001600160a01b0319166001600160a01b0392831617905560345460408051631f94a27560e31b81529051919092169163fca513a8916004808301926020929190829003018186803b158015612ca957600080fd5b505afa158015612cbd573d6000803e3d6000fd5b505050506040513d6020811015612cd357600080fd5b5051603680546001600160a01b0319166001600160a01b039283161790556034546040805163076b7fbb60e51b81529051919092169163ed6ff760916004808301926020929190829003018186803b158015612d2e57600080fd5b505afa158015612d42573d6000803e3d6000fd5b505050506040513d6020811015612d5857600080fd5b5051603780546001600160a01b0319166001600160a01b03909216919091179055565b60008184841115612e0a5760405162461bcd60e51b81526004018080602001828103825283818151815260200191508051906020019080838360005b83811015612dcf578181015183820152602001612db7565b50505050905090810190601f168015612dfc5780820380516001836020036101000a031916815260200191505b509250505060405180910390fd5b505050900390565b6060603e805480602002602001604051908101604052809291908181526020018280548015612e6a57602002820191906000526020600020905b81546001600160a01b03168152600190910190602001808311612e4c575b5050605954939450600093612eb49350439250604191506001600160e01b031660188110612e9457fe5b01546040518060600160405280602181526020016149f060219139612d7b565b60595490915043906041906001600160e01b031660188110612ed257fe5b0155612edc612601565b612f175760405162461bcd60e51b8152600401808060200182810382526022815260200180614a976022913960400191505060405180910390fd5b612f1f61463b565b50604080516020810190915260008152612f3761463b565b50604080516020810190915260008082525b84518110156137ea576000858281518110612f6057fe5b60200260200101519050612f7261463b565b60408051602080820183526001600160a01b038516600090815290839052919091206059548291906001600160e01b031660188110612fad57fe5b015490529050612fbb61463b565b60408051602080820180845260365463b3596f0760e01b9091526001600160a01b03878116602485015293519293849391169163b3596f07916044808601929190818703018186803b15801561301057600080fd5b505afa158015613024573d6000803e3d6000fd5b505050506040513d602081101561303a57600080fd5b50519052805190915061307e5760405162461bcd60e51b81526004018080602001828103825260398152602001806148c66039913960400191505060405180910390fd5b80516001600160a01b03841660009081526040602081905290206059546001600160e01b0316601881106130ae57fe5b015581516001600160a01b03841660009081526040602081905290206059547ffb7039f84d4fe0388609065a7edaaf1a5e50affbbb1c2fd19818de856e82ecb492869290916001600160e01b03166018811061310657fe5b0154605954604080516001600160a01b039095168552602085019390935283830191909152606083018b90526001600160e01b03166080830152519081900360a00190a16001600160a01b0383166000908152603f602052604090206005015460ff16158061319757506001600160a01b038316600090815260406020819052902060189081015463ffffffff1614155b15613282576001600160a01b0383166000908152605a60209081526040808320805460ff191681556003810184905560040183905590819052902060189081015463ffffffff16101561327d576001600160a01b03831660009081526040602081815291819020601801548151808301909252601e82527f507269636520436f756e746572206164646974696f6e206661696c65642e0000928201929092526132499163ffffffff16906001906138b5565b6001600160a01b0384166000908152604060208190529020601801805463ffffffff191663ffffffff929092169190911790555b613780565b600061328c61463b565b506040805160208101909152600081526132a461463b565b506040805160208101909152600081526132bc61463b565b506040805160208101909152600081526132d686866139b8565b1561348c576001600160a01b038088166000908152603f602090815260408083206002015481516318160ddd60e01b81529151939416926318160ddd92600480840193919291829003018186803b15801561333057600080fd5b505afa158015613344573d6000803e3d6000fd5b505050506040513d602081101561335a57600080fd5b5051905061336887876139bf565b909550925061337783826139fb565b60408051602080820183526001600160a01b03808e166000818152605a84528581206001015485528651828252603f855290869020600490810154603654885163a9ec70d160e01b8152928301949094529651989d50969b5093985061343396939591169263a9ec70d192602480840193919291829003018186803b1580156133ff57600080fd5b505afa158015613413573d6000803e3d6000fd5b505050506040513d602081101561342957600080fd5b505160ff16613a63565b6001600160a01b0389166000908152605a6020526040902060030181905561345b9083613b6e565b6001600160a01b0389166000908152605a602052604090206004810191909155805460ff1916600117905550613703565b6037546040805163358b080b60e21b81526001600160a01b038a811660048301529151600093929092169163d62c202c91602480820192602092909190829003018186803b1580156134dd57600080fd5b505afa1580156134f1573d6000803e3d6000fd5b505050506040513d602081101561350757600080fd5b505160375460408051632c8dcf3f60e01b81526001600160a01b038c8116600483015291519394506000939190921691632c8dcf3f916024808301926020929190829003018186803b15801561355c57600080fd5b505afa158015613570573d6000803e3d6000fd5b505050506040513d602081101561358657600080fd5b5051604080516060810190915260268082529192506000916135b4918591859190614a7160208301396138b5565b90506135c0888a6139bf565b90975094506135cf85826139fb565b80975081985050506040518060200160405280605a60008d6001600160a01b03166001600160a01b031681526020019081526020016000206002015481525093506136ac8660000151603f60008d6001600160a01b03166001600160a01b0316815260200190815260200160002060040154603660009054906101000a90046001600160a01b03166001600160a01b031663a9ec70d18e6040518263ffffffff1660e01b815260040180826001600160a01b03166001600160a01b0316815260200191505060206040518083038186803b1580156133ff57600080fd5b6001600160a01b038b166000908152605a602052604090206003018190556136d49085613b6e565b6001600160a01b038b166000908152605a602052604090206004810191909155805460ff191660021790555050505b60408051602080820183526001600160a01b038a166000908152605a90915291909120600301548152613737908b90613993565b9950613779896040518060200160405280605a60008c6001600160a01b03166001600160a01b0316815260200190815260200160002060040154815250613993565b9850505050505b6001600160a01b0383166000818152605a6020908152604091829020600381015460049091015483519485529184015282820152517fd472f492dc7528ff82496536e94a7e8dc3d0e6ed6c7c58731e37193d6edffa839181900360600190a1505050600101612f49565b5081516039558051603a55603b839055603c54603d55603754600160a01b900460ff161561384a57600061381c61463b565b6138366040518060200160405280603a5481525086613b96565b915091506138478160000151613bb1565b50505b613852613ede565b5061385b614183565b6138a4576040805162461bcd60e51b8152602060048201526015602482015274155c19185d1a5b99c810d31bd8dac811985a5b1959605a1b604482015290519081900360640190fd5b50505050565b600490565b303b1590565b6000838301828582101561390a5760405162461bcd60e51b8152602060048201818152835160248401528351909283926044909101919085019080838360008315612dcf578181015183820152602001612db7565b50949350505050565b60006128d483836040518060400160405280601781526020017f6d756c7469706c69636174696f6e206f766572666c6f77000000000000000000815250614214565b61395d61463b565b604051806020016040528061398a613984866ec097ce7bc90715b34b9f1000000000613913565b8561428a565b90529392505050565b61399b61463b565b604051806020016040528061398a856000015185600001516142bd565b5190511190565b60006139c961463b565b6000806139de866000015186600001516142f3565b6040805160208101909152908152909450925050505b9250929050565b6000613a0561463b565b600080613a16866000015186614316565b90925090506000826003811115613a2957fe5b14613a48575060408051602081019091526000815290925090506139f4565b60408051602081019091529081526000969095509350505050565b6000808311613aa35760405162461bcd60e51b8152600401808060200182810382526022815260200180614c146022913960400191505060405180910390fd5b60008211613ae25760405162461bcd60e51b8152600401808060200182810382526026815260200180614b136026913960400191505060405180910390fd5b6000613b0f85670de0b6b3a76400006040518060600160405280602e8152602001614be6602e9139614214565b90506000613b398286600a0a6040518060600160405280602881526020016147ef60289139614355565b90506000613b638286600a0a604051806060016040528060238152602001614b5d60239139614355565b979650505050505050565b6000670de0b6b3a7640000613b87848460000151613913565b81613b8e57fe5b049392505050565b6000613ba061463b565b600080613a168660000151866143b7565b6036546035546040805163b3596f0760e01b81526001600160a01b0392831660048201529051600093929092169163b3596f0791602480820192602092909190829003018186803b158015613c0557600080fd5b505afa158015613c19573d6000803e3d6000fd5b505050506040513d6020811015613c2f57600080fd5b50516035546036546040805163a9ec70d160e01b81526001600160a01b0393841660048201819052915194955090936000939092169163a9ec70d191602480820192602092909190829003018186803b158015613c8b57600080fd5b505afa158015613c9f573d6000803e3d6000fd5b505050506040513d6020811015613cb557600080fd5b50516040805163313ce56760e01b8152905160ff90921692506000916001600160a01b0385169163313ce567916004808301926020929190829003018186803b158015613d0157600080fd5b505afa158015613d15573d6000803e3d6000fd5b505050506040513d6020811015613d2b57600080fd5b505160ff16905083613d6e5760405162461bcd60e51b8152600401808060200182810382526024815260200180614b396024913960400191505060405180910390fd5b6000613d7c85603c54613913565b90506000613d8b828486613a63565b60408051602081019091526038548152909150600090613dac908990613b6e565b905080821115613e80576000613dde8286600a0a60405180606001604052806038815260200161498b60389139614214565b90506000613e088288600a0a604051806060016040528060398152602001614bad60399139614214565b90506000613e3782670de0b6b3a76400006040518060600160405280602d81526020016149c3602d9139614355565b9050613e79818b6040518060400160405280601d81526020017f4d6178205370656564206469766973696f6e2067617665206572726f72000000815250614355565b603d555050505b603c54603d546040805192835260208301919091528181018a90526060820183905260808201849052517fb46f7bf4158f3a71283ac90fc060ebefd6ee78121b305c9768c5f5d9929709fa9181900360a00190a15050505050505050565b6000805b603e5481101561417f576000603e8281548110613efb57fe5b6000918252602090912001546001600160a01b03169050613f1a61463b565b50604080516020810190915260008152613f3261463b565b5060408051602081019091526000808252603a5415801590613f6e57506001600160a01b0384166000908152605a602052604090206004015415155b15614088576001600160a01b0384166000908152605a6020526040902060040154603a54613f9c91906143e2565b6001600160a01b0386166000908152605a6020526040902060030154603954919550919250613fcb91906143e2565b6001600160a01b0386166000908152605a602052604090205490935090915060ff166001141561402c57614001603d5484613b6e565b6001600160a01b0385166000908152605a602052604081206007810192909255600890910155614083565b6001600160a01b0384166000908152605a602052604090205460ff16600214156140835761405c603d5484613b6e565b6001600160a01b0385166000908152605a6020526040812060088101929092556007909101555b6140ac565b6001600160a01b0384166000908152605a6020526040812060088101829055600701555b6140ba633b9aca0084613b6e565b6001600160a01b0385166000908152605a60205260409020600601556140e4633b9aca0083613b6e565b6001600160a01b0385166000818152605a602090815260409182902060058101859055805460078201546008830154600690930154855196875260ff90921693860193909352848401929092526060840152608083015260a082019290925290517fb77e0c67aad5552fab291ca0f92913ed655f8193dacb98659dd705512a026e649181900360c00190a1505060019092019150613ee29050565b5090565b6059546000906001600160e01b03166017146141eb5760595460408051808201909152601a81527f637572436c6f636b203a204164646974696f6e204661696c656400000000000060208201526141e6916001600160e01b0316906001906138b5565b6141ee565b60005b605980546001600160e01b0319166001600160e01b039290921691909117905550600190565b6000831580614221575082155b1561422e575060006128d4565b8383028385828161423b57fe5b0414839061390a5760405162461bcd60e51b8152602060048201818152835160248401528351909283926044909101919085019080838360008315612dcf578181015183820152602001612db7565b60006128d483836040518060400160405280600e81526020016d646976696465206279207a65726f60901b815250614355565b60006128d48383604051806040016040528060118152602001706164646974696f6e206f766572666c6f7760781b8152506138b5565b60008083831161430a5750600090508183036139f4565b506003905060006139f4565b60008083614329575060009050806139f4565b8383028385828161433657fe5b041461434a575060029150600090506139f4565b6000925090506139f4565b600081836143a45760405162461bcd60e51b8152602060048201818152835160248401528351909283926044909101919085019080838360008315612dcf578181015183820152602001612db7565b508284816143ae57fe5b04949350505050565b600080826143cb57506001905060006139f4565b60008385816143d657fe5b04915091509250929050565b60006143ec61463b565b60008061440186670de0b6b3a7640000614316565b9092509050600082600381111561441457fe5b14614433575060408051602081019091526000815290925090506139f4565b60008061444083886143b7565b9092509050600082600381111561445357fe5b14614475575060408051602081019091526000815290945092506139f4915050565b604080516020810190915290815260009890975095505050505050565b8154818355818111156122dc576000838152602090206122dc91810190830161464e565b50805460018160011615610100020316600290046000825580601f106144dc57506144fa565b601f0160209004906000526020600020908101906144fa919061464e565b50565b506144fa90601881019061464e565b6040518061030001604052806018906020820280388339509192915050565b828054600181600116156101000203166002900490600052602060002090601f016020900481019282601f1061456c57805160ff1916838001178555614599565b82800160010185558215614599579182015b8281111561459957825182559160200191906001019061457e565b5061417f92915061464e565b8260188101928215614599579160200282018281111561459957825182559160200191906001019061457e565b6040518061014001604052806000151581526020016060815260200160006001600160a01b0316815260200160006001600160a01b0316815260200160008152602001600015158152602001600081526020016000815260200160008152602001600081525090565b6040518060200160405280600081525090565b610ba491905b8082111561417f576000815560010161465456fe546865206e657720566f6c6174696c697479204c696d697420666f7220537570706c69657273206d7573742062652067726561746572207468616e20302e30316531382028312529496e737472756d656e74206e6f742070726f7065726c792072656d6f7665642066726f6d20746865206c697374206f6620696e737472756d656e747320737570706f727465645468697320696e737472756d656e74206973206e6f7420737570706f72746564206279205349474820446973747269627574696f6e2048616e646c657252656672657368205349474820537065656473203a205375627472616374696f6e20756e646572666c6f7720666f7220626c6f636b73537570706c696572207370656564206164646974696f6e2077697468207374616b696e67207370656564206f766572666c6f77546869732066756e6374696f6e2063616e206f6e6c792062652063616c6c65642062792074686520496e737472756d656e74277320534947482053747265616d732048616e646c657220436f6e7472616374496e737472756d656e7420446563696d616c7320636f7272656374696f6e20756e646572666c6f77546865206e657720566f6c6174696c697479204c696d697420666f7220537570706c69657273206d757374206265206c657373207468616e2031306531382028313078295468652063616c6c6572206d75737420626520746865204c656e64696e6720706f6f6c20436f726520636f6e74726163745468652063616c6c6572206d7573742062652074686520534947482046696e616e61636520436f6e666967757261746f7220436f6e74726163747265667265736853494748537065656473496e7465726e616c203a204f7261636c652072657475726e656420496e76616c6964205072696365546865206e657720566f6c6174696c697479204c696d697420666f7220426f72726f77657273206d757374206265206c657373207468616e203130653138202831307829546865206e657720566f6c6174696c697479204c696d697420666f7220426f72726f77657273206d7573742062652067726561746572207468616e20302e303165313820283125294d617820566f6c6174696c697479203a205349474820446563696d616c73206d756c7469706c69636174696f6e2067617665206572726f724d617820566f6c6174696c697479203a20446563696d616c73206469766973696f6e2067617665206572726f7244656c7461426c6f636b7320726573756c74656420696e20556e646572666c6f775570646174696e67205369676820537570706c7920496e6465786573206f7065726174696f6e206661696c656475706461746553494748426f72726f77496e646578203a20426c6f636b205375627472616374696f6e20556e646572666c6f77436f6d706f756e64656420426f72726f7773204164646974696f6e2067617665206572726f725570646174696e6720496e737472756d656e7420496e6465786573204661696c6564436f6e747261637420696e7374616e63652068617320616c7265616479206265656e20696e697469616c697a65644661696c656420746f207472616e736665722061636375726564205349474820746f2074686520757365722e4f7261636c652072657475726e656420696e76616c696420707269636520446563696d616c734f7261636c652072657475726e656420696e76616c696420245349474820507269636521507269636520446563696d616c7320636f7272656374696f6e20756e646572666c6f775570646174696e67205369676820426f72726f7720496e6465786573206f7065726174696f6e206661696c65644d617820566f6c6174696c697479203a20507269636520446563696d616c73206d756c7469706c69636174696f6e2067617665206572726f724c6f737320416d6f756e74206d756c7469706c69636174696f6e2041646a7573746d656e74206f766572666c6f77496e737472756d656e7420446563696d616c732063616e6e6f74206265205a65726f75706461746553494748537570706c79496e646578203a20426c6f636b205375627472616374696f6e20556e646572666c6f77a265627a7a72315820bf478487871085ed72ed0f049820334e1d23c5a6d503cca29dc40f7890a55fd664736f6c63430005110032",
			"opcodes": "PUSH1 0x0 DUP1 DUP1 SSTORE PUSH1 0x37 DUP1 SLOAD PUSH1 0xFF PUSH1 0xA0 SHL NOT AND SWAP1 SSTORE PUSH1 0xA0 PUSH1 0x40 MSTORE PUSH8 0xDE0B6B3A7640000 PUSH1 0x80 DUP2 SWAP1 MSTORE PUSH1 0x38 SSTORE PUSH1 0x39 DUP2 SWAP1 SSTORE PUSH1 0x3A DUP2 SWAP1 SSTORE PUSH1 0x3B SSTORE PUSH1 0x1 PUSH1 0x5B SSTORE CALLVALUE DUP1 ISZERO PUSH2 0x45 JUMPI PUSH1 0x0 DUP1 REVERT JUMPDEST POP PUSH2 0x4C9D DUP1 PUSH2 0x55 PUSH1 0x0 CODECOPY PUSH1 0x0 RETURN INVALID PUSH1 0x80 PUSH1 0x40 MSTORE CALLVALUE DUP1 ISZERO PUSH2 0x10 JUMPI PUSH1 0x0 DUP1 REVERT JUMPDEST POP PUSH1 0x4 CALLDATASIZE LT PUSH2 0x253 JUMPI PUSH1 0x0 CALLDATALOAD PUSH1 0xE0 SHR DUP1 PUSH4 0x6F610C50 GT PUSH2 0x146 JUMPI DUP1 PUSH4 0xBE36810A GT PUSH2 0xC3 JUMPI DUP1 PUSH4 0xC6A6BFB1 GT PUSH2 0x87 JUMPI DUP1 PUSH4 0xC6A6BFB1 EQ PUSH2 0x7B0 JUMPI DUP1 PUSH4 0xC72C4D10 EQ PUSH2 0x7B8 JUMPI DUP1 PUSH4 0xCA2A9602 EQ PUSH2 0x7C0 JUMPI DUP1 PUSH4 0xD6357063 EQ PUSH2 0x7FF JUMPI DUP1 PUSH4 0xD74D6D3F EQ PUSH2 0x825 JUMPI DUP1 PUSH4 0xEEABE79F EQ PUSH2 0x84A JUMPI PUSH2 0x253 JUMP JUMPDEST DUP1 PUSH4 0xBE36810A EQ PUSH2 0x6FF JUMPI DUP1 PUSH4 0xBF1678F6 EQ PUSH2 0x707 JUMPI DUP1 PUSH4 0xC3D1B72D EQ PUSH2 0x70F JUMPI DUP1 PUSH4 0xC4D66DE8 EQ PUSH2 0x735 JUMPI DUP1 PUSH4 0xC6486D30 EQ PUSH2 0x75B JUMPI PUSH2 0x253 JUMP JUMPDEST DUP1 PUSH4 0x8D9CF864 GT PUSH2 0x10A JUMPI DUP1 PUSH4 0x8D9CF864 EQ PUSH2 0x63B JUMPI DUP1 PUSH4 0x975152DD EQ PUSH2 0x661 JUMPI DUP1 PUSH4 0x9A717B24 EQ PUSH2 0x669 JUMPI DUP1 PUSH4 0x9DF816CF EQ PUSH2 0x68F JUMPI DUP1 PUSH4 0xB482E0D1 EQ PUSH2 0x6C9 JUMPI PUSH2 0x253 JUMP JUMPDEST DUP1 PUSH4 0x6F610C50 EQ PUSH2 0x5A3 JUMPI DUP1 PUSH4 0x7C52B668 EQ PUSH2 0x5AB JUMPI DUP1 PUSH4 0x7C55CCB3 EQ PUSH2 0x5D1 JUMPI DUP1 PUSH4 0x7DC0D1D0 EQ PUSH2 0x5DB JUMPI DUP1 PUSH4 0x831449DE EQ PUSH2 0x5E3 JUMPI PUSH2 0x253 JUMP JUMPDEST DUP1 PUSH4 0x3E955265 GT PUSH2 0x1D4 JUMPI DUP1 PUSH4 0x570B39D0 GT PUSH2 0x198 JUMPI DUP1 PUSH4 0x570B39D0 EQ PUSH2 0x50E JUMPI DUP1 PUSH4 0x659F73C5 EQ PUSH2 0x516 JUMPI DUP1 PUSH4 0x67671989 EQ PUSH2 0x557 JUMPI DUP1 PUSH4 0x693EBF7F EQ PUSH2 0x593 JUMPI DUP1 PUSH4 0x6B8CE90B EQ PUSH2 0x59B JUMPI PUSH2 0x253 JUMP JUMPDEST DUP1 PUSH4 0x3E955265 EQ PUSH2 0x3BC JUMPI DUP1 PUSH4 0x42CBB15C EQ PUSH2 0x3C4 JUMPI DUP1 PUSH4 0x4DC54A38 EQ PUSH2 0x3E5 JUMPI DUP1 PUSH4 0x4DF859FD EQ PUSH2 0x4BC JUMPI DUP1 PUSH4 0x4F425FBB EQ PUSH2 0x4E8 JUMPI PUSH2 0x253 JUMP JUMPDEST DUP1 PUSH4 0x21428A12 GT PUSH2 0x21B JUMPI DUP1 PUSH4 0x21428A12 EQ PUSH2 0x319 JUMPI DUP1 PUSH4 0x26562793 EQ PUSH2 0x321 JUMPI DUP1 PUSH4 0x2DF0F9A9 EQ PUSH2 0x347 JUMPI DUP1 PUSH4 0x3E322F5F EQ PUSH2 0x364 JUMPI DUP1 PUSH4 0x3E5EEE46 EQ PUSH2 0x36C JUMPI PUSH2 0x253 JUMP JUMPDEST DUP1 PUSH4 0x4C66321 EQ PUSH2 0x258 JUMPI DUP1 PUSH4 0xD7FF887 EQ PUSH2 0x298 JUMPI DUP1 PUSH4 0x10FA61E6 EQ PUSH2 0x2BC JUMPI DUP1 PUSH4 0x1E7FAED9 EQ PUSH2 0x2F4 JUMPI DUP1 PUSH4 0x1EDDC473 EQ PUSH2 0x311 JUMPI JUMPDEST PUSH1 0x0 DUP1 REVERT JUMPDEST PUSH2 0x284 PUSH1 0x4 DUP1 CALLDATASIZE SUB PUSH1 0x40 DUP2 LT ISZERO PUSH2 0x26E JUMPI PUSH1 0x0 DUP1 REVERT JUMPDEST POP PUSH1 0x1 PUSH1 0x1 PUSH1 0xA0 SHL SUB DUP2 CALLDATALOAD AND SWAP1 PUSH1 0x20 ADD CALLDATALOAD PUSH2 0x852 JUMP JUMPDEST PUSH1 0x40 DUP1 MLOAD SWAP2 ISZERO ISZERO DUP3 MSTORE MLOAD SWAP1 DUP2 SWAP1 SUB PUSH1 0x20 ADD SWAP1 RETURN JUMPDEST PUSH2 0x2A0 PUSH2 0xA12 JUMP JUMPDEST PUSH1 0x40 DUP1 MLOAD PUSH1 0x1 PUSH1 0x1 PUSH1 0xA0 SHL SUB SWAP1 SWAP3 AND DUP3 MSTORE MLOAD SWAP1 DUP2 SWAP1 SUB PUSH1 0x20 ADD SWAP1 RETURN JUMPDEST PUSH2 0x2E2 PUSH1 0x4 DUP1 CALLDATASIZE SUB PUSH1 0x20 DUP2 LT ISZERO PUSH2 0x2D2 JUMPI PUSH1 0x0 DUP1 REVERT JUMPDEST POP CALLDATALOAD PUSH1 0x1 PUSH1 0x1 PUSH1 0xA0 SHL SUB AND PUSH2 0xA21 JUMP JUMPDEST PUSH1 0x40 DUP1 MLOAD SWAP2 DUP3 MSTORE MLOAD SWAP1 DUP2 SWAP1 SUB PUSH1 0x20 ADD SWAP1 RETURN JUMPDEST PUSH2 0x284 PUSH1 0x4 DUP1 CALLDATASIZE SUB PUSH1 0x20 DUP2 LT ISZERO PUSH2 0x30A JUMPI PUSH1 0x0 DUP1 REVERT JUMPDEST POP CALLDATALOAD PUSH2 0xA6D JUMP JUMPDEST PUSH2 0x2E2 PUSH2 0xBA0 JUMP JUMPDEST PUSH2 0x2A0 PUSH2 0xBA7 JUMP JUMPDEST PUSH2 0x284 PUSH1 0x4 DUP1 CALLDATASIZE SUB PUSH1 0x20 DUP2 LT ISZERO PUSH2 0x337 JUMPI PUSH1 0x0 DUP1 REVERT JUMPDEST POP CALLDATALOAD PUSH1 0x1 PUSH1 0x1 PUSH1 0xA0 SHL SUB AND PUSH2 0xBB6 JUMP JUMPDEST PUSH2 0x284 PUSH1 0x4 DUP1 CALLDATASIZE SUB PUSH1 0x20 DUP2 LT ISZERO PUSH2 0x35D JUMPI PUSH1 0x0 DUP1 REVERT JUMPDEST POP CALLDATALOAD PUSH2 0xF0C JUMP JUMPDEST PUSH2 0x2E2 PUSH2 0x1013 JUMP JUMPDEST PUSH2 0x392 PUSH1 0x4 DUP1 CALLDATASIZE SUB PUSH1 0x20 DUP2 LT ISZERO PUSH2 0x382 JUMPI PUSH1 0x0 DUP1 REVERT JUMPDEST POP CALLDATALOAD PUSH1 0x1 PUSH1 0x1 PUSH1 0xA0 SHL SUB AND PUSH2 0x1019 JUMP JUMPDEST PUSH1 0x40 DUP1 MLOAD PUSH1 0xFF SWAP1 SWAP6 AND DUP6 MSTORE PUSH1 0x20 DUP6 ADD SWAP4 SWAP1 SWAP4 MSTORE DUP4 DUP4 ADD SWAP2 SWAP1 SWAP2 MSTORE PUSH1 0x60 DUP4 ADD MSTORE MLOAD SWAP1 DUP2 SWAP1 SUB PUSH1 0x80 ADD SWAP1 RETURN JUMPDEST PUSH2 0x2E2 PUSH2 0x104E JUMP JUMPDEST PUSH2 0x3CC PUSH2 0x1054 JUMP JUMPDEST PUSH1 0x40 DUP1 MLOAD PUSH4 0xFFFFFFFF SWAP1 SWAP3 AND DUP3 MSTORE MLOAD SWAP1 DUP2 SWAP1 SUB PUSH1 0x20 ADD SWAP1 RETURN JUMPDEST PUSH2 0x40B PUSH1 0x4 DUP1 CALLDATASIZE SUB PUSH1 0x20 DUP2 LT ISZERO PUSH2 0x3FB JUMPI PUSH1 0x0 DUP1 REVERT JUMPDEST POP CALLDATALOAD PUSH1 0x1 PUSH1 0x1 PUSH1 0xA0 SHL SUB AND PUSH2 0x1058 JUMP JUMPDEST PUSH1 0x40 MLOAD DUP1 DUP1 PUSH1 0x20 ADD DUP8 PUSH1 0x1 PUSH1 0x1 PUSH1 0xA0 SHL SUB AND PUSH1 0x1 PUSH1 0x1 PUSH1 0xA0 SHL SUB AND DUP2 MSTORE PUSH1 0x20 ADD DUP7 DUP2 MSTORE PUSH1 0x20 ADD DUP6 ISZERO ISZERO ISZERO ISZERO DUP2 MSTORE PUSH1 0x20 ADD DUP5 DUP2 MSTORE PUSH1 0x20 ADD DUP4 DUP2 MSTORE PUSH1 0x20 ADD DUP3 DUP2 SUB DUP3 MSTORE DUP9 DUP2 DUP2 MLOAD DUP2 MSTORE PUSH1 0x20 ADD SWAP2 POP DUP1 MLOAD SWAP1 PUSH1 0x20 ADD SWAP1 DUP1 DUP4 DUP4 PUSH1 0x0 JUMPDEST DUP4 DUP2 LT ISZERO PUSH2 0x47C JUMPI DUP2 DUP2 ADD MLOAD DUP4 DUP3 ADD MSTORE PUSH1 0x20 ADD PUSH2 0x464 JUMP JUMPDEST POP POP POP POP SWAP1 POP SWAP1 DUP2 ADD SWAP1 PUSH1 0x1F AND DUP1 ISZERO PUSH2 0x4A9 JUMPI DUP1 DUP3 SUB DUP1 MLOAD PUSH1 0x1 DUP4 PUSH1 0x20 SUB PUSH2 0x100 EXP SUB NOT AND DUP2 MSTORE PUSH1 0x20 ADD SWAP2 POP JUMPDEST POP SWAP8 POP POP POP POP POP POP POP POP PUSH1 0x40 MLOAD DUP1 SWAP2 SUB SWAP1 RETURN JUMPDEST PUSH2 0x2E2 PUSH1 0x4 DUP1 CALLDATASIZE SUB PUSH1 0x40 DUP2 LT ISZERO PUSH2 0x4D2 JUMPI PUSH1 0x0 DUP1 REVERT JUMPDEST POP PUSH1 0x1 PUSH1 0x1 PUSH1 0xA0 SHL SUB DUP2 CALLDATALOAD AND SWAP1 PUSH1 0x20 ADD CALLDATALOAD PUSH2 0x1146 JUMP JUMPDEST PUSH2 0x284 PUSH1 0x4 DUP1 CALLDATASIZE SUB PUSH1 0x20 DUP2 LT ISZERO PUSH2 0x4FE JUMPI PUSH1 0x0 DUP1 REVERT JUMPDEST POP CALLDATALOAD PUSH1 0x1 PUSH1 0x1 PUSH1 0xA0 SHL SUB AND PUSH2 0x1172 JUMP JUMPDEST PUSH2 0x2E2 PUSH2 0x1273 JUMP JUMPDEST PUSH2 0x51E PUSH2 0x1279 JUMP JUMPDEST PUSH1 0x40 MLOAD DUP1 DUP3 PUSH2 0x300 DUP1 DUP4 DUP4 PUSH1 0x0 JUMPDEST DUP4 DUP2 LT ISZERO PUSH2 0x544 JUMPI DUP2 DUP2 ADD MLOAD DUP4 DUP3 ADD MSTORE PUSH1 0x20 ADD PUSH2 0x52C JUMP JUMPDEST POP POP POP POP SWAP1 POP ADD SWAP2 POP POP PUSH1 0x40 MLOAD DUP1 SWAP2 SUB SWAP1 RETURN JUMPDEST PUSH2 0x284 PUSH1 0x4 DUP1 CALLDATASIZE SUB PUSH1 0x80 DUP2 LT ISZERO PUSH2 0x56D JUMPI PUSH1 0x0 DUP1 REVERT JUMPDEST POP PUSH1 0x1 PUSH1 0x1 PUSH1 0xA0 SHL SUB DUP2 CALLDATALOAD DUP2 AND SWAP2 PUSH1 0x20 DUP2 ADD CALLDATALOAD DUP3 AND SWAP2 PUSH1 0x40 DUP3 ADD CALLDATALOAD AND SWAP1 PUSH1 0x60 ADD CALLDATALOAD PUSH2 0x12B6 JUMP JUMPDEST PUSH2 0x2E2 PUSH2 0x1881 JUMP JUMPDEST PUSH2 0x2E2 PUSH2 0x1887 JUMP JUMPDEST PUSH2 0x2E2 PUSH2 0x188D JUMP JUMPDEST PUSH2 0x284 PUSH1 0x4 DUP1 CALLDATASIZE SUB PUSH1 0x20 DUP2 LT ISZERO PUSH2 0x5C1 JUMPI PUSH1 0x0 DUP1 REVERT JUMPDEST POP CALLDATALOAD PUSH1 0x1 PUSH1 0x1 PUSH1 0xA0 SHL SUB AND PUSH2 0x18C4 JUMP JUMPDEST PUSH2 0x5D9 PUSH2 0x19BD JUMP JUMPDEST STOP JUMPDEST PUSH2 0x2A0 PUSH2 0x1A7C JUMP JUMPDEST PUSH2 0x5EB PUSH2 0x1A8B JUMP JUMPDEST PUSH1 0x40 DUP1 MLOAD PUSH1 0x20 DUP1 DUP3 MSTORE DUP4 MLOAD DUP2 DUP4 ADD MSTORE DUP4 MLOAD SWAP2 SWAP3 DUP4 SWAP3 SWAP1 DUP4 ADD SWAP2 DUP6 DUP2 ADD SWAP2 MUL DUP1 DUP4 DUP4 PUSH1 0x0 JUMPDEST DUP4 DUP2 LT ISZERO PUSH2 0x627 JUMPI DUP2 DUP2 ADD MLOAD DUP4 DUP3 ADD MSTORE PUSH1 0x20 ADD PUSH2 0x60F JUMP JUMPDEST POP POP POP POP SWAP1 POP ADD SWAP3 POP POP POP PUSH1 0x40 MLOAD DUP1 SWAP2 SUB SWAP1 RETURN JUMPDEST PUSH2 0x3CC PUSH1 0x4 DUP1 CALLDATASIZE SUB PUSH1 0x20 DUP2 LT ISZERO PUSH2 0x651 JUMPI PUSH1 0x0 DUP1 REVERT JUMPDEST POP CALLDATALOAD PUSH1 0x1 PUSH1 0x1 PUSH1 0xA0 SHL SUB AND PUSH2 0x1AEC JUMP JUMPDEST PUSH2 0x2E2 PUSH2 0x1B10 JUMP JUMPDEST PUSH2 0x2E2 PUSH1 0x4 DUP1 CALLDATASIZE SUB PUSH1 0x20 DUP2 LT ISZERO PUSH2 0x67F JUMPI PUSH1 0x0 DUP1 REVERT JUMPDEST POP CALLDATALOAD PUSH1 0x1 PUSH1 0x1 PUSH1 0xA0 SHL SUB AND PUSH2 0x1B16 JUMP JUMPDEST PUSH2 0x284 PUSH1 0x4 DUP1 CALLDATASIZE SUB PUSH1 0x80 DUP2 LT ISZERO PUSH2 0x6A5 JUMPI PUSH1 0x0 DUP1 REVERT JUMPDEST POP PUSH1 0x1 PUSH1 0x1 PUSH1 0xA0 SHL SUB DUP2 CALLDATALOAD AND SWAP1 PUSH1 0x20 DUP2 ADD CALLDATALOAD SWAP1 PUSH1 0x40 DUP2 ADD CALLDATALOAD SWAP1 PUSH1 0x60 ADD CALLDATALOAD ISZERO ISZERO PUSH2 0x1B59 JUMP JUMPDEST PUSH2 0x2E2 PUSH1 0x4 DUP1 CALLDATASIZE SUB PUSH1 0x60 DUP2 LT ISZERO PUSH2 0x6DF JUMPI PUSH1 0x0 DUP1 REVERT JUMPDEST POP PUSH1 0x1 PUSH1 0x1 PUSH1 0xA0 SHL SUB DUP2 CALLDATALOAD DUP2 AND SWAP2 PUSH1 0x20 DUP2 ADD CALLDATALOAD SWAP1 SWAP2 AND SWAP1 PUSH1 0x40 ADD CALLDATALOAD PUSH2 0x1E43 JUMP JUMPDEST PUSH2 0x2E2 PUSH2 0x21A8 JUMP JUMPDEST PUSH2 0x284 PUSH2 0x21AE JUMP JUMPDEST PUSH2 0x284 PUSH1 0x4 DUP1 CALLDATASIZE SUB PUSH1 0x20 DUP2 LT ISZERO PUSH2 0x725 JUMPI PUSH1 0x0 DUP1 REVERT JUMPDEST POP CALLDATALOAD PUSH1 0x1 PUSH1 0x1 PUSH1 0xA0 SHL SUB AND PUSH2 0x2203 JUMP JUMPDEST PUSH2 0x5D9 PUSH1 0x4 DUP1 CALLDATASIZE SUB PUSH1 0x20 DUP2 LT ISZERO PUSH2 0x74B JUMPI PUSH1 0x0 DUP1 REVERT JUMPDEST POP CALLDATALOAD PUSH1 0x1 PUSH1 0x1 PUSH1 0xA0 SHL SUB AND PUSH2 0x2221 JUMP JUMPDEST PUSH2 0x781 PUSH1 0x4 DUP1 CALLDATASIZE SUB PUSH1 0x20 DUP2 LT ISZERO PUSH2 0x771 JUMPI PUSH1 0x0 DUP1 REVERT JUMPDEST POP CALLDATALOAD PUSH1 0x1 PUSH1 0x1 PUSH1 0xA0 SHL SUB AND PUSH2 0x22E1 JUMP JUMPDEST PUSH1 0x40 DUP1 MLOAD PUSH1 0xFF SWAP1 SWAP7 AND DUP7 MSTORE PUSH1 0x20 DUP7 ADD SWAP5 SWAP1 SWAP5 MSTORE DUP5 DUP5 ADD SWAP3 SWAP1 SWAP3 MSTORE PUSH1 0x60 DUP5 ADD MSTORE PUSH1 0x80 DUP4 ADD MSTORE MLOAD SWAP1 DUP2 SWAP1 SUB PUSH1 0xA0 ADD SWAP1 RETURN JUMPDEST PUSH2 0x2E2 PUSH2 0x231D JUMP JUMPDEST PUSH2 0x2A0 PUSH2 0x239F JUMP JUMPDEST PUSH2 0x7E6 PUSH1 0x4 DUP1 CALLDATASIZE SUB PUSH1 0x20 DUP2 LT ISZERO PUSH2 0x7D6 JUMPI PUSH1 0x0 DUP1 REVERT JUMPDEST POP CALLDATALOAD PUSH1 0x1 PUSH1 0x1 PUSH1 0xA0 SHL SUB AND PUSH2 0x23AE JUMP JUMPDEST PUSH1 0x40 DUP1 MLOAD SWAP3 DUP4 MSTORE PUSH1 0x20 DUP4 ADD SWAP2 SWAP1 SWAP2 MSTORE DUP1 MLOAD SWAP2 DUP3 SWAP1 SUB ADD SWAP1 RETURN JUMPDEST PUSH2 0x51E PUSH1 0x4 DUP1 CALLDATASIZE SUB PUSH1 0x20 DUP2 LT ISZERO PUSH2 0x815 JUMPI PUSH1 0x0 DUP1 REVERT JUMPDEST POP CALLDATALOAD PUSH1 0x1 PUSH1 0x1 PUSH1 0xA0 SHL SUB AND PUSH2 0x23D4 JUMP JUMPDEST PUSH2 0x284 PUSH1 0x4 DUP1 CALLDATASIZE SUB PUSH1 0x40 DUP2 LT ISZERO PUSH2 0x83B JUMPI PUSH1 0x0 DUP1 REVERT JUMPDEST POP DUP1 CALLDATALOAD ISZERO ISZERO SWAP1 PUSH1 0x20 ADD CALLDATALOAD PUSH2 0x2427 JUMP JUMPDEST PUSH2 0x2E2 PUSH2 0x25FB JUMP JUMPDEST PUSH1 0x0 CALLER PUSH1 0x1 PUSH1 0x1 PUSH1 0xA0 SHL SUB AND PUSH1 0x34 PUSH1 0x0 SWAP1 SLOAD SWAP1 PUSH2 0x100 EXP SWAP1 DIV PUSH1 0x1 PUSH1 0x1 PUSH1 0xA0 SHL SUB AND PUSH1 0x1 PUSH1 0x1 PUSH1 0xA0 SHL SUB AND PUSH4 0xDB49224B PUSH1 0x40 MLOAD DUP2 PUSH4 0xFFFFFFFF AND PUSH1 0xE0 SHL DUP2 MSTORE PUSH1 0x4 ADD PUSH1 0x20 PUSH1 0x40 MLOAD DUP1 DUP4 SUB DUP2 DUP7 DUP1 EXTCODESIZE ISZERO DUP1 ISZERO PUSH2 0x8AC JUMPI PUSH1 0x0 DUP1 REVERT JUMPDEST POP GAS STATICCALL ISZERO DUP1 ISZERO PUSH2 0x8C0 JUMPI RETURNDATASIZE PUSH1 0x0 DUP1 RETURNDATACOPY RETURNDATASIZE PUSH1 0x0 REVERT JUMPDEST POP POP POP POP PUSH1 0x40 MLOAD RETURNDATASIZE PUSH1 0x20 DUP2 LT ISZERO PUSH2 0x8D6 JUMPI PUSH1 0x0 DUP1 REVERT JUMPDEST POP MLOAD PUSH1 0x1 PUSH1 0x1 PUSH1 0xA0 SHL SUB AND EQ PUSH2 0x91D JUMPI PUSH1 0x40 MLOAD PUSH3 0x461BCD PUSH1 0xE5 SHL DUP2 MSTORE PUSH1 0x4 ADD DUP1 DUP1 PUSH1 0x20 ADD DUP3 DUP2 SUB DUP3 MSTORE PUSH1 0x3A DUP2 MSTORE PUSH1 0x20 ADD DUP1 PUSH2 0x488C PUSH1 0x3A SWAP2 CODECOPY PUSH1 0x40 ADD SWAP2 POP POP PUSH1 0x40 MLOAD DUP1 SWAP2 SUB SWAP1 REVERT JUMPDEST PUSH1 0x1 PUSH1 0x1 PUSH1 0xA0 SHL SUB DUP4 AND PUSH1 0x0 SWAP1 DUP2 MSTORE PUSH1 0x3F PUSH1 0x20 MSTORE PUSH1 0x40 SWAP1 KECCAK256 SLOAD PUSH1 0xFF AND PUSH2 0x986 JUMPI PUSH1 0x40 DUP1 MLOAD PUSH3 0x461BCD PUSH1 0xE5 SHL DUP2 MSTORE PUSH1 0x20 PUSH1 0x4 DUP3 ADD MSTORE PUSH1 0x19 PUSH1 0x24 DUP3 ADD MSTORE PUSH25 0x24B739BA393AB6B2B73A103737BA1039BAB83837B93A32B217 PUSH1 0x39 SHL PUSH1 0x44 DUP3 ADD MSTORE SWAP1 MLOAD SWAP1 DUP2 SWAP1 SUB PUSH1 0x64 ADD SWAP1 REVERT JUMPDEST PUSH1 0x1 PUSH1 0x1 PUSH1 0xA0 SHL SUB DUP4 AND PUSH1 0x0 SWAP1 DUP2 MSTORE PUSH1 0x5A PUSH1 0x20 MSTORE PUSH1 0x40 SWAP1 KECCAK256 PUSH1 0x9 ADD DUP1 SLOAD SWAP1 DUP4 SWAP1 SSTORE PUSH32 0x60AB6BB8F64F97A68E803DC67F55F0A08732FE0DB1E669B39F3B45DD35D9580D DUP5 DUP3 DUP6 PUSH2 0x9D3 PUSH2 0x1054 JUMP JUMPDEST PUSH1 0x40 DUP1 MLOAD PUSH1 0x1 PUSH1 0x1 PUSH1 0xA0 SHL SUB SWAP1 SWAP6 AND DUP6 MSTORE PUSH1 0x20 DUP6 ADD SWAP4 SWAP1 SWAP4 MSTORE DUP4 DUP4 ADD SWAP2 SWAP1 SWAP2 MSTORE PUSH4 0xFFFFFFFF AND PUSH1 0x60 DUP4 ADD MSTORE MLOAD SWAP1 DUP2 SWAP1 SUB PUSH1 0x80 ADD SWAP1 LOG1 POP PUSH1 0x1 SWAP4 SWAP3 POP POP POP JUMP JUMPDEST PUSH1 0x37 SLOAD PUSH1 0x1 PUSH1 0x1 PUSH1 0xA0 SHL SUB AND DUP2 JUMP JUMPDEST PUSH1 0x1 PUSH1 0x1 PUSH1 0xA0 SHL SUB DUP2 AND PUSH1 0x0 SWAP1 DUP2 MSTORE PUSH1 0x3F PUSH1 0x20 MSTORE PUSH1 0x40 DUP2 KECCAK256 SLOAD PUSH1 0xFF AND ISZERO PUSH2 0xA64 JUMPI POP PUSH1 0x1 PUSH1 0x1 PUSH1 0xA0 SHL SUB DUP2 AND PUSH1 0x0 SWAP1 DUP2 MSTORE PUSH1 0x3F PUSH1 0x20 MSTORE PUSH1 0x40 SWAP1 KECCAK256 PUSH1 0x8 ADD SLOAD PUSH2 0xA68 JUMP JUMPDEST POP PUSH1 0x0 JUMPDEST SWAP2 SWAP1 POP JUMP JUMPDEST PUSH1 0x0 CALLER PUSH1 0x1 PUSH1 0x1 PUSH1 0xA0 SHL SUB AND PUSH1 0x34 PUSH1 0x0 SWAP1 SLOAD SWAP1 PUSH2 0x100 EXP SWAP1 DIV PUSH1 0x1 PUSH1 0x1 PUSH1 0xA0 SHL SUB AND PUSH1 0x1 PUSH1 0x1 PUSH1 0xA0 SHL SUB AND PUSH4 0xDB49224B PUSH1 0x40 MLOAD DUP2 PUSH4 0xFFFFFFFF AND PUSH1 0xE0 SHL DUP2 MSTORE PUSH1 0x4 ADD PUSH1 0x20 PUSH1 0x40 MLOAD DUP1 DUP4 SUB DUP2 DUP7 DUP1 EXTCODESIZE ISZERO DUP1 ISZERO PUSH2 0xAC7 JUMPI PUSH1 0x0 DUP1 REVERT JUMPDEST POP GAS STATICCALL ISZERO DUP1 ISZERO PUSH2 0xADB JUMPI RETURNDATASIZE PUSH1 0x0 DUP1 RETURNDATACOPY RETURNDATASIZE PUSH1 0x0 REVERT JUMPDEST POP POP POP POP PUSH1 0x40 MLOAD RETURNDATASIZE PUSH1 0x20 DUP2 LT ISZERO PUSH2 0xAF1 JUMPI PUSH1 0x0 DUP1 REVERT JUMPDEST POP MLOAD PUSH1 0x1 PUSH1 0x1 PUSH1 0xA0 SHL SUB AND EQ PUSH2 0xB38 JUMPI PUSH1 0x40 MLOAD PUSH3 0x461BCD PUSH1 0xE5 SHL DUP2 MSTORE PUSH1 0x4 ADD DUP1 DUP1 PUSH1 0x20 ADD DUP3 DUP2 SUB DUP3 MSTORE PUSH1 0x3A DUP2 MSTORE PUSH1 0x20 ADD DUP1 PUSH2 0x488C PUSH1 0x3A SWAP2 CODECOPY PUSH1 0x40 ADD SWAP2 POP POP PUSH1 0x40 MLOAD DUP1 SWAP2 SUB SWAP1 REVERT JUMPDEST PUSH2 0xB40 PUSH2 0x21AE JUMP JUMPDEST POP PUSH1 0x5B DUP1 SLOAD SWAP1 DUP4 SWAP1 SSTORE PUSH32 0x8574A512A3537F7F97E2C60304507AA6816866C2D1FED5FFA1815CB01D2B1E44 DUP2 DUP5 PUSH2 0xB74 PUSH2 0x1054 JUMP JUMPDEST PUSH1 0x40 DUP1 MLOAD SWAP4 DUP5 MSTORE PUSH1 0x20 DUP5 ADD SWAP3 SWAP1 SWAP3 MSTORE PUSH4 0xFFFFFFFF AND DUP3 DUP3 ADD MSTORE MLOAD SWAP1 DUP2 SWAP1 SUB PUSH1 0x60 ADD SWAP1 LOG1 POP PUSH1 0x1 SWAP3 SWAP2 POP POP JUMP JUMPDEST PUSH1 0x3B SLOAD JUMPDEST SWAP1 JUMP JUMPDEST PUSH1 0x35 SLOAD PUSH1 0x1 PUSH1 0x1 PUSH1 0xA0 SHL SUB AND DUP2 JUMP JUMPDEST PUSH1 0x37 SLOAD PUSH1 0x0 SWAP1 PUSH1 0x1 PUSH1 0x1 PUSH1 0xA0 SHL SUB AND CALLER EQ PUSH2 0xC02 JUMPI PUSH1 0x40 MLOAD PUSH3 0x461BCD PUSH1 0xE5 SHL DUP2 MSTORE PUSH1 0x4 ADD DUP1 DUP1 PUSH1 0x20 ADD DUP3 DUP2 SUB DUP3 MSTORE PUSH1 0x31 DUP2 MSTORE PUSH1 0x20 ADD DUP1 PUSH2 0x485B PUSH1 0x31 SWAP2 CODECOPY PUSH1 0x40 ADD SWAP2 POP POP PUSH1 0x40 MLOAD DUP1 SWAP2 SUB SWAP1 REVERT JUMPDEST PUSH1 0x1 PUSH1 0x1 PUSH1 0xA0 SHL SUB DUP3 AND PUSH1 0x0 SWAP1 DUP2 MSTORE PUSH1 0x3F PUSH1 0x20 MSTORE PUSH1 0x40 SWAP1 KECCAK256 SLOAD PUSH1 0xFF AND PUSH2 0xC6F JUMPI PUSH1 0x40 DUP1 MLOAD PUSH3 0x461BCD PUSH1 0xE5 SHL DUP2 MSTORE PUSH1 0x20 PUSH1 0x4 DUP3 ADD MSTORE PUSH1 0x1D PUSH1 0x24 DUP3 ADD MSTORE PUSH32 0x496E737472756D656E7420616C726561647920737570706F727465642E000000 PUSH1 0x44 DUP3 ADD MSTORE SWAP1 MLOAD SWAP1 DUP2 SWAP1 SUB PUSH1 0x64 ADD SWAP1 REVERT JUMPDEST PUSH2 0xC77 PUSH2 0x2601 JUMP JUMPDEST PUSH2 0xCB2 JUMPI PUSH1 0x40 MLOAD PUSH3 0x461BCD PUSH1 0xE5 SHL DUP2 MSTORE PUSH1 0x4 ADD DUP1 DUP1 PUSH1 0x20 ADD DUP3 DUP2 SUB DUP3 MSTORE PUSH1 0x22 DUP2 MSTORE PUSH1 0x20 ADD DUP1 PUSH2 0x4A97 PUSH1 0x22 SWAP2 CODECOPY PUSH1 0x40 ADD SWAP2 POP POP PUSH1 0x40 MLOAD DUP1 SWAP2 SUB SWAP1 REVERT JUMPDEST PUSH1 0x3E SLOAD PUSH1 0x0 SWAP1 DUP2 JUMPDEST DUP2 DUP2 LT ISZERO PUSH2 0xD04 JUMPI DUP5 PUSH1 0x1 PUSH1 0x1 PUSH1 0xA0 SHL SUB AND PUSH1 0x3E DUP3 DUP2 SLOAD DUP2 LT PUSH2 0xCD9 JUMPI INVALID JUMPDEST PUSH1 0x0 SWAP2 DUP3 MSTORE PUSH1 0x20 SWAP1 SWAP2 KECCAK256 ADD SLOAD PUSH1 0x1 PUSH1 0x1 PUSH1 0xA0 SHL SUB AND EQ ISZERO PUSH2 0xCFC JUMPI DUP1 SWAP3 POP PUSH2 0xD04 JUMP JUMPDEST PUSH1 0x1 ADD PUSH2 0xCBA JUMP JUMPDEST POP PUSH1 0x3E PUSH1 0x1 DUP3 SUB DUP2 SLOAD DUP2 LT PUSH2 0xD15 JUMPI INVALID JUMPDEST PUSH1 0x0 SWAP2 DUP3 MSTORE PUSH1 0x20 SWAP1 SWAP2 KECCAK256 ADD SLOAD PUSH1 0x3E DUP1 SLOAD PUSH1 0x1 PUSH1 0x1 PUSH1 0xA0 SHL SUB SWAP1 SWAP3 AND SWAP2 DUP5 SWAP1 DUP2 LT PUSH2 0xD3B JUMPI INVALID JUMPDEST PUSH1 0x0 SWAP2 DUP3 MSTORE PUSH1 0x20 SWAP1 SWAP2 KECCAK256 ADD DUP1 SLOAD PUSH1 0x1 PUSH1 0x1 PUSH1 0xA0 SHL SUB NOT AND PUSH1 0x1 PUSH1 0x1 PUSH1 0xA0 SHL SUB SWAP3 SWAP1 SWAP3 AND SWAP2 SWAP1 SWAP2 OR SWAP1 SSTORE PUSH1 0x3E DUP1 SLOAD SWAP1 PUSH2 0xD77 SWAP1 PUSH1 0x0 NOT DUP4 ADD PUSH2 0x4492 JUMP JUMPDEST POP PUSH1 0x3E SLOAD PUSH1 0x0 NOT DUP3 ADD SWAP1 DUP2 EQ PUSH2 0xDBE JUMPI PUSH1 0x40 MLOAD PUSH3 0x461BCD PUSH1 0xE5 SHL DUP2 MSTORE PUSH1 0x4 ADD DUP1 DUP1 PUSH1 0x20 ADD DUP3 DUP2 SUB DUP3 MSTORE PUSH1 0x46 DUP2 MSTORE PUSH1 0x20 ADD DUP1 PUSH2 0x46B1 PUSH1 0x46 SWAP2 CODECOPY PUSH1 0x60 ADD SWAP2 POP POP PUSH1 0x40 MLOAD DUP1 SWAP2 SUB SWAP1 REVERT JUMPDEST PUSH1 0x1 PUSH1 0x1 PUSH1 0xA0 SHL SUB DUP6 AND PUSH1 0x0 SWAP1 DUP2 MSTORE PUSH1 0x3F PUSH1 0x20 MSTORE PUSH1 0x40 DUP2 KECCAK256 DUP1 SLOAD PUSH1 0xFF NOT AND DUP2 SSTORE SWAP1 PUSH2 0xDEC PUSH1 0x1 DUP4 ADD DUP3 PUSH2 0x44B6 JUMP JUMPDEST POP PUSH1 0x2 DUP2 DUP2 ADD DUP1 SLOAD PUSH1 0x1 PUSH1 0x1 PUSH1 0xA0 SHL SUB NOT SWAP1 DUP2 AND SWAP1 SWAP2 SSTORE PUSH1 0x3 DUP1 DUP5 ADD DUP1 SLOAD SWAP1 SWAP3 AND SWAP1 SWAP2 SSTORE PUSH1 0x0 PUSH1 0x4 DUP1 DUP6 ADD DUP3 SWAP1 SSTORE PUSH1 0x5 DUP1 DUP7 ADD DUP1 SLOAD PUSH1 0xFF NOT SWAP1 DUP2 AND SWAP1 SWAP2 SSTORE PUSH1 0x6 DUP1 DUP9 ADD DUP6 SWAP1 SSTORE PUSH1 0x7 DUP1 DUP10 ADD DUP7 SWAP1 SSTORE PUSH1 0x8 DUP1 DUP11 ADD DUP8 SWAP1 SSTORE PUSH1 0x9 SWAP10 DUP11 ADD DUP8 SWAP1 SSTORE PUSH1 0x1 PUSH1 0x1 PUSH1 0xA0 SHL SUB DUP16 AND DUP8 MSTORE PUSH1 0x5A PUSH1 0x20 SWAP1 DUP2 MSTORE PUSH1 0x40 DUP1 DUP10 KECCAK256 DUP1 SLOAD SWAP1 SWAP7 AND DUP7 SSTORE PUSH1 0x1 DUP7 ADD DUP10 SWAP1 SSTORE SWAP10 DUP6 ADD DUP9 SWAP1 SSTORE SWAP8 DUP5 ADD DUP8 SWAP1 SSTORE SWAP5 DUP4 ADD DUP7 SWAP1 SSTORE SWAP3 DUP3 ADD DUP6 SWAP1 SSTORE DUP2 ADD DUP5 SWAP1 SSTORE SWAP1 DUP2 ADD DUP4 SWAP1 SSTORE SWAP1 DUP2 ADD DUP3 SWAP1 SSTORE SWAP1 SWAP4 ADD DUP4 SWAP1 SSTORE DUP2 SWAP1 MSTORE DUP2 KECCAK256 SWAP1 PUSH2 0xEAF DUP3 DUP3 PUSH2 0x44FD JUMP JUMPDEST POP PUSH1 0x18 ADD DUP1 SLOAD PUSH4 0xFFFFFFFF NOT AND SWAP1 SSTORE PUSH1 0x40 DUP1 MLOAD PUSH1 0x1 PUSH1 0x1 PUSH1 0xA0 SHL SUB DUP8 AND DUP2 MSTORE NUMBER PUSH1 0x20 DUP3 ADD MSTORE DUP2 MLOAD PUSH32 0x57CA28169E1C052B51583802D0C8D8C934E939672146AA3648005BF500256A7 SWAP3 SWAP2 DUP2 SWAP1 SUB SWAP1 SWAP2 ADD SWAP1 LOG1 POP PUSH1 0x1 SWAP5 SWAP4 POP POP POP POP JUMP JUMPDEST PUSH1 0x0 CALLER PUSH1 0x1 PUSH1 0x1 PUSH1 0xA0 SHL SUB AND PUSH1 0x34 PUSH1 0x0 SWAP1 SLOAD SWAP1 PUSH2 0x100 EXP SWAP1 DIV PUSH1 0x1 PUSH1 0x1 PUSH1 0xA0 SHL SUB AND PUSH1 0x1 PUSH1 0x1 PUSH1 0xA0 SHL SUB AND PUSH4 0xDB49224B PUSH1 0x40 MLOAD DUP2 PUSH4 0xFFFFFFFF AND PUSH1 0xE0 SHL DUP2 MSTORE PUSH1 0x4 ADD PUSH1 0x20 PUSH1 0x40 MLOAD DUP1 DUP4 SUB DUP2 DUP7 DUP1 EXTCODESIZE ISZERO DUP1 ISZERO PUSH2 0xF66 JUMPI PUSH1 0x0 DUP1 REVERT JUMPDEST POP GAS STATICCALL ISZERO DUP1 ISZERO PUSH2 0xF7A JUMPI RETURNDATASIZE PUSH1 0x0 DUP1 RETURNDATACOPY RETURNDATASIZE PUSH1 0x0 REVERT JUMPDEST POP POP POP POP PUSH1 0x40 MLOAD RETURNDATASIZE PUSH1 0x20 DUP2 LT ISZERO PUSH2 0xF90 JUMPI PUSH1 0x0 DUP1 REVERT JUMPDEST POP MLOAD PUSH1 0x1 PUSH1 0x1 PUSH1 0xA0 SHL SUB AND EQ PUSH2 0xFD7 JUMPI PUSH1 0x40 MLOAD PUSH3 0x461BCD PUSH1 0xE5 SHL DUP2 MSTORE PUSH1 0x4 ADD DUP1 DUP1 PUSH1 0x20 ADD DUP3 DUP2 SUB DUP3 MSTORE PUSH1 0x3A DUP2 MSTORE PUSH1 0x20 ADD DUP1 PUSH2 0x488C PUSH1 0x3A SWAP2 CODECOPY PUSH1 0x40 ADD SWAP2 POP POP PUSH1 0x40 MLOAD DUP1 SWAP2 SUB SWAP1 REVERT JUMPDEST PUSH2 0xFDF PUSH2 0x21AE JUMP JUMPDEST POP PUSH1 0x3C DUP1 SLOAD SWAP1 DUP4 SWAP1 SSTORE PUSH32 0x61108193375C8731A245B1F1F657BC84DC9031680A54EB7C816C37AE750D7A43 DUP2 DUP5 PUSH2 0xB74 PUSH2 0x1054 JUMP JUMPDEST PUSH1 0x3A SLOAD SWAP1 JUMP JUMPDEST PUSH1 0x1 PUSH1 0x1 PUSH1 0xA0 SHL SUB AND PUSH1 0x0 SWAP1 DUP2 MSTORE PUSH1 0x5A PUSH1 0x20 MSTORE PUSH1 0x40 SWAP1 KECCAK256 DUP1 SLOAD PUSH1 0x7 DUP3 ADD SLOAD PUSH1 0x8 DUP4 ADD SLOAD PUSH1 0x9 SWAP1 SWAP4 ADD SLOAD PUSH1 0xFF SWAP1 SWAP3 AND SWAP4 SWAP1 SWAP3 SWAP2 SWAP1 JUMP JUMPDEST PUSH1 0x5C SLOAD SWAP1 JUMP JUMPDEST NUMBER SWAP1 JUMP JUMPDEST PUSH1 0x1 PUSH1 0x1 PUSH1 0xA0 SHL SUB DUP2 DUP2 AND PUSH1 0x0 SWAP1 DUP2 MSTORE PUSH1 0x3F PUSH1 0x20 SWAP1 DUP2 MSTORE PUSH1 0x40 DUP1 DUP4 KECCAK256 PUSH1 0x2 DUP1 DUP3 ADD SLOAD PUSH1 0x4 DUP4 ADD SLOAD PUSH1 0x5 DUP5 ADD SLOAD PUSH1 0x6 DUP6 ADD SLOAD PUSH1 0x8 DUP7 ADD SLOAD PUSH1 0x1 SWAP7 DUP8 ADD DUP1 SLOAD DUP10 MLOAD PUSH2 0x100 SWAP10 DUP3 AND ISZERO SWAP10 SWAP1 SWAP10 MUL PUSH1 0x0 NOT ADD AND SWAP7 SWAP1 SWAP7 DIV PUSH1 0x1F DUP2 ADD DUP11 SWAP1 DIV DUP11 MUL DUP9 ADD DUP11 ADD SWAP1 SWAP9 MSTORE DUP8 DUP8 MSTORE PUSH1 0x60 SWAP11 DUP11 SWAP10 DUP11 SWAP10 DUP11 SWAP10 DUP11 SWAP10 SWAP9 SWAP1 SWAP4 AND SWAP7 SWAP6 PUSH1 0xFF AND SWAP5 SWAP4 SWAP3 SWAP2 DUP9 SWAP2 SWAP1 DUP4 ADD DUP3 DUP3 DUP1 ISZERO PUSH2 0x112A JUMPI DUP1 PUSH1 0x1F LT PUSH2 0x10FF JUMPI PUSH2 0x100 DUP1 DUP4 SLOAD DIV MUL DUP4 MSTORE SWAP2 PUSH1 0x20 ADD SWAP2 PUSH2 0x112A JUMP JUMPDEST DUP3 ADD SWAP2 SWAP1 PUSH1 0x0 MSTORE PUSH1 0x20 PUSH1 0x0 KECCAK256 SWAP1 JUMPDEST DUP2 SLOAD DUP2 MSTORE SWAP1 PUSH1 0x1 ADD SWAP1 PUSH1 0x20 ADD DUP1 DUP4 GT PUSH2 0x110D JUMPI DUP3 SWAP1 SUB PUSH1 0x1F AND DUP3 ADD SWAP2 JUMPDEST POP POP POP POP POP SWAP6 POP SWAP6 POP SWAP6 POP SWAP6 POP SWAP6 POP SWAP6 POP SWAP6 POP SWAP2 SWAP4 SWAP6 POP SWAP2 SWAP4 SWAP6 JUMP JUMPDEST PUSH1 0x1 PUSH1 0x1 PUSH1 0xA0 SHL SUB DUP3 AND PUSH1 0x0 SWAP1 DUP2 MSTORE PUSH1 0x40 PUSH1 0x20 DUP2 SWAP1 MSTORE DUP2 KECCAK256 DUP3 PUSH1 0x18 DUP2 LT PUSH2 0x1169 JUMPI INVALID JUMPDEST ADD SLOAD SWAP4 SWAP3 POP POP POP JUMP JUMPDEST PUSH1 0x37 SLOAD PUSH1 0x0 SWAP1 PUSH1 0x1 PUSH1 0x1 PUSH1 0xA0 SHL SUB AND CALLER EQ PUSH2 0x11BE JUMPI PUSH1 0x40 MLOAD PUSH3 0x461BCD PUSH1 0xE5 SHL DUP2 MSTORE PUSH1 0x4 ADD DUP1 DUP1 PUSH1 0x20 ADD DUP3 DUP2 SUB DUP3 MSTORE PUSH1 0x31 DUP2 MSTORE PUSH1 0x20 ADD DUP1 PUSH2 0x485B PUSH1 0x31 SWAP2 CODECOPY PUSH1 0x40 ADD SWAP2 POP POP PUSH1 0x40 MLOAD DUP1 SWAP2 SUB SWAP1 REVERT JUMPDEST PUSH1 0x1 PUSH1 0x1 PUSH1 0xA0 SHL SUB DUP3 AND PUSH1 0x0 SWAP1 DUP2 MSTORE PUSH1 0x3F PUSH1 0x20 MSTORE PUSH1 0x40 SWAP1 KECCAK256 SLOAD PUSH1 0xFF AND PUSH2 0x1227 JUMPI PUSH1 0x40 DUP1 MLOAD PUSH3 0x461BCD PUSH1 0xE5 SHL DUP2 MSTORE PUSH1 0x20 PUSH1 0x4 DUP3 ADD MSTORE PUSH1 0x19 PUSH1 0x24 DUP3 ADD MSTORE PUSH25 0x24B739BA393AB6B2B73A103737BA1039BAB83837B93A32B217 PUSH1 0x39 SHL PUSH1 0x44 DUP3 ADD MSTORE SWAP1 MLOAD SWAP1 DUP2 SWAP1 SUB PUSH1 0x64 ADD SWAP1 REVERT JUMPDEST PUSH2 0x1230 DUP3 PUSH2 0x265A JUMP JUMPDEST PUSH2 0x126B JUMPI PUSH1 0x40 MLOAD PUSH3 0x461BCD PUSH1 0xE5 SHL DUP2 MSTORE PUSH1 0x4 ADD DUP1 DUP1 PUSH1 0x20 ADD DUP3 DUP2 SUB DUP3 MSTORE PUSH1 0x2D DUP2 MSTORE PUSH1 0x20 ADD DUP1 PUSH2 0x4A11 PUSH1 0x2D SWAP2 CODECOPY PUSH1 0x40 ADD SWAP2 POP POP PUSH1 0x40 MLOAD DUP1 SWAP2 SUB SWAP1 REVERT JUMPDEST POP PUSH1 0x1 SWAP2 SWAP1 POP JUMP JUMPDEST PUSH1 0x3C SLOAD SWAP1 JUMP JUMPDEST PUSH2 0x1281 PUSH2 0x450C JUMP JUMPDEST PUSH1 0x40 DUP1 MLOAD PUSH2 0x300 DUP2 ADD SWAP2 DUP3 SWAP1 MSTORE SWAP1 PUSH1 0x41 SWAP1 PUSH1 0x18 SWAP1 DUP3 DUP5 JUMPDEST DUP2 SLOAD DUP2 MSTORE PUSH1 0x20 ADD SWAP1 PUSH1 0x1 ADD SWAP1 DUP1 DUP4 GT PUSH2 0x1298 JUMPI JUMPDEST POP POP POP POP POP SWAP1 POP SWAP1 JUMP JUMPDEST PUSH1 0x37 SLOAD PUSH1 0x0 SWAP1 PUSH1 0x1 PUSH1 0x1 PUSH1 0xA0 SHL SUB AND CALLER EQ PUSH2 0x1302 JUMPI PUSH1 0x40 MLOAD PUSH3 0x461BCD PUSH1 0xE5 SHL DUP2 MSTORE PUSH1 0x4 ADD DUP1 DUP1 PUSH1 0x20 ADD DUP3 DUP2 SUB DUP3 MSTORE PUSH1 0x31 DUP2 MSTORE PUSH1 0x20 ADD DUP1 PUSH2 0x485B PUSH1 0x31 SWAP2 CODECOPY PUSH1 0x40 ADD SWAP2 POP POP PUSH1 0x40 MLOAD DUP1 SWAP2 SUB SWAP1 REVERT JUMPDEST PUSH1 0x1 PUSH1 0x1 PUSH1 0xA0 SHL SUB DUP6 AND PUSH1 0x0 SWAP1 DUP2 MSTORE PUSH1 0x3F PUSH1 0x20 MSTORE PUSH1 0x40 SWAP1 KECCAK256 SLOAD PUSH1 0xFF AND ISZERO PUSH2 0x1370 JUMPI PUSH1 0x40 DUP1 MLOAD PUSH3 0x461BCD PUSH1 0xE5 SHL DUP2 MSTORE PUSH1 0x20 PUSH1 0x4 DUP3 ADD MSTORE PUSH1 0x1D PUSH1 0x24 DUP3 ADD MSTORE PUSH32 0x496E737472756D656E7420616C726561647920737570706F727465642E000000 PUSH1 0x44 DUP3 ADD MSTORE SWAP1 MLOAD SWAP1 DUP2 SWAP1 SUB PUSH1 0x64 ADD SWAP1 REVERT JUMPDEST PUSH1 0x3E DUP1 SLOAD PUSH1 0x1 DUP1 DUP3 ADD DUP4 SSTORE PUSH1 0x0 SWAP3 DUP4 MSTORE PUSH32 0x8D800D6614D35EED73733EE453164A3B48076EB3138F466ADEEB9DEC7BB31F70 SWAP1 SWAP2 ADD DUP1 SLOAD PUSH1 0x1 PUSH1 0x1 PUSH1 0xA0 SHL SUB NOT AND PUSH1 0x1 PUSH1 0x1 PUSH1 0xA0 SHL SUB DUP10 DUP2 AND SWAP2 SWAP1 SWAP2 OR SWAP1 SWAP2 SSTORE PUSH1 0x40 DUP1 MLOAD PUSH2 0x140 DUP2 ADD DUP3 MSTORE SWAP3 DUP4 MSTORE DUP1 MLOAD PUSH4 0x6FDDE03 PUSH1 0xE0 SHL DUP2 MSTORE SWAP1 MLOAD DUP9 SWAP5 PUSH1 0x20 DUP6 ADD SWAP4 DUP7 AND SWAP3 PUSH4 0x6FDDE03 SWAP3 PUSH1 0x4 DUP1 DUP4 ADD SWAP4 SWAP3 DUP3 SWAP1 SUB ADD DUP2 DUP7 DUP1 EXTCODESIZE ISZERO DUP1 ISZERO PUSH2 0x1409 JUMPI PUSH1 0x0 DUP1 REVERT JUMPDEST POP GAS STATICCALL ISZERO DUP1 ISZERO PUSH2 0x141D JUMPI RETURNDATASIZE PUSH1 0x0 DUP1 RETURNDATACOPY RETURNDATASIZE PUSH1 0x0 REVERT JUMPDEST POP POP POP POP PUSH1 0x40 MLOAD RETURNDATASIZE PUSH1 0x0 DUP3 RETURNDATACOPY PUSH1 0x1F RETURNDATASIZE SWAP1 DUP2 ADD PUSH1 0x1F NOT AND DUP3 ADD PUSH1 0x40 MSTORE PUSH1 0x20 DUP2 LT ISZERO PUSH2 0x1446 JUMPI PUSH1 0x0 DUP1 REVERT JUMPDEST DUP2 ADD SWAP1 DUP1 DUP1 MLOAD PUSH1 0x40 MLOAD SWAP4 SWAP3 SWAP2 SWAP1 DUP5 PUSH5 0x100000000 DUP3 GT ISZERO PUSH2 0x1466 JUMPI PUSH1 0x0 DUP1 REVERT JUMPDEST SWAP1 DUP4 ADD SWAP1 PUSH1 0x20 DUP3 ADD DUP6 DUP2 GT ISZERO PUSH2 0x147B JUMPI PUSH1 0x0 DUP1 REVERT JUMPDEST DUP3 MLOAD PUSH5 0x100000000 DUP2 GT DUP3 DUP3 ADD DUP9 LT OR ISZERO PUSH2 0x1495 JUMPI PUSH1 0x0 DUP1 REVERT JUMPDEST DUP3 MSTORE POP DUP2 MLOAD PUSH1 0x20 SWAP2 DUP3 ADD SWAP3 SWAP1 SWAP2 ADD SWAP1 DUP1 DUP4 DUP4 PUSH1 0x0 JUMPDEST DUP4 DUP2 LT ISZERO PUSH2 0x14C2 JUMPI DUP2 DUP2 ADD MLOAD DUP4 DUP3 ADD MSTORE PUSH1 0x20 ADD PUSH2 0x14AA JUMP JUMPDEST POP POP POP POP SWAP1 POP SWAP1 DUP2 ADD SWAP1 PUSH1 0x1F AND DUP1 ISZERO PUSH2 0x14EF JUMPI DUP1 DUP3 SUB DUP1 MLOAD PUSH1 0x1 DUP4 PUSH1 0x20 SUB PUSH2 0x100 EXP SUB NOT AND DUP2 MSTORE PUSH1 0x20 ADD SWAP2 POP JUMPDEST POP PUSH1 0x40 MSTORE POP POP POP DUP2 MSTORE PUSH1 0x20 ADD DUP7 PUSH1 0x1 PUSH1 0x1 PUSH1 0xA0 SHL SUB AND DUP2 MSTORE PUSH1 0x20 ADD DUP6 PUSH1 0x1 PUSH1 0x1 PUSH1 0xA0 SHL SUB AND DUP2 MSTORE PUSH1 0x20 ADD DUP5 DUP2 MSTORE PUSH1 0x20 ADD PUSH1 0x0 ISZERO ISZERO DUP2 MSTORE PUSH1 0x20 ADD PUSH15 0xC097CE7BC90715B34B9F1000000000 DUP2 MSTORE PUSH1 0x20 ADD PUSH2 0x1545 PUSH2 0x1054 JUMP JUMPDEST PUSH4 0xFFFFFFFF AND DUP2 MSTORE PUSH1 0x20 ADD PUSH15 0xC097CE7BC90715B34B9F1000000000 DUP2 MSTORE PUSH1 0x20 ADD PUSH2 0x156D PUSH2 0x1054 JUMP JUMPDEST PUSH4 0xFFFFFFFF AND SWAP1 MSTORE PUSH1 0x1 PUSH1 0x1 PUSH1 0xA0 SHL SUB DUP8 AND PUSH1 0x0 SWAP1 DUP2 MSTORE PUSH1 0x3F PUSH1 0x20 SWAP1 DUP2 MSTORE PUSH1 0x40 SWAP1 SWAP2 KECCAK256 DUP3 MLOAD DUP2 SLOAD PUSH1 0xFF NOT AND SWAP1 ISZERO ISZERO OR DUP2 SSTORE DUP3 DUP3 ADD MLOAD DUP1 MLOAD SWAP2 SWAP3 PUSH2 0x15B8 SWAP3 PUSH1 0x1 DUP6 ADD SWAP3 SWAP1 SWAP2 ADD SWAP1 PUSH2 0x452B JUMP JUMPDEST POP PUSH1 0x40 DUP3 ADD MLOAD DUP2 PUSH1 0x2 ADD PUSH1 0x0 PUSH2 0x100 EXP DUP2 SLOAD DUP2 PUSH1 0x1 PUSH1 0x1 PUSH1 0xA0 SHL SUB MUL NOT AND SWAP1 DUP4 PUSH1 0x1 PUSH1 0x1 PUSH1 0xA0 SHL SUB AND MUL OR SWAP1 SSTORE POP PUSH1 0x60 DUP3 ADD MLOAD DUP2 PUSH1 0x3 ADD PUSH1 0x0 PUSH2 0x100 EXP DUP2 SLOAD DUP2 PUSH1 0x1 PUSH1 0x1 PUSH1 0xA0 SHL SUB MUL NOT AND SWAP1 DUP4 PUSH1 0x1 PUSH1 0x1 PUSH1 0xA0 SHL SUB AND MUL OR SWAP1 SSTORE POP PUSH1 0x80 DUP3 ADD MLOAD DUP2 PUSH1 0x4 ADD SSTORE PUSH1 0xA0 DUP3 ADD MLOAD DUP2 PUSH1 0x5 ADD PUSH1 0x0 PUSH2 0x100 EXP DUP2 SLOAD DUP2 PUSH1 0xFF MUL NOT AND SWAP1 DUP4 ISZERO ISZERO MUL OR SWAP1 SSTORE POP PUSH1 0xC0 DUP3 ADD MLOAD DUP2 PUSH1 0x6 ADD SSTORE PUSH1 0xE0 DUP3 ADD MLOAD DUP2 PUSH1 0x7 ADD SSTORE PUSH2 0x100 DUP3 ADD MLOAD DUP2 PUSH1 0x8 ADD SSTORE PUSH2 0x120 DUP3 ADD MLOAD DUP2 PUSH1 0x9 ADD SSTORE SWAP1 POP POP PUSH1 0x40 MLOAD DUP1 PUSH2 0x140 ADD PUSH1 0x40 MSTORE DUP1 PUSH1 0x0 PUSH1 0xFF AND DUP2 MSTORE PUSH1 0x20 ADD PUSH8 0xDE0B6B3A7640000 DUP2 MSTORE PUSH1 0x20 ADD PUSH8 0xDE0B6B3A7640000 DUP2 MSTORE PUSH1 0x20 ADD PUSH1 0x0 DUP2 MSTORE PUSH1 0x20 ADD PUSH1 0x0 DUP2 MSTORE PUSH1 0x20 ADD PUSH1 0x0 DUP2 MSTORE PUSH1 0x20 ADD PUSH1 0x0 DUP2 MSTORE PUSH1 0x20 ADD PUSH1 0x0 DUP2 MSTORE PUSH1 0x20 ADD PUSH1 0x0 DUP2 MSTORE PUSH1 0x20 ADD PUSH1 0x0 DUP2 MSTORE POP PUSH1 0x5A PUSH1 0x0 DUP9 PUSH1 0x1 PUSH1 0x1 PUSH1 0xA0 SHL SUB AND PUSH1 0x1 PUSH1 0x1 PUSH1 0xA0 SHL SUB AND DUP2 MSTORE PUSH1 0x20 ADD SWAP1 DUP2 MSTORE PUSH1 0x20 ADD PUSH1 0x0 KECCAK256 PUSH1 0x0 DUP3 ADD MLOAD DUP2 PUSH1 0x0 ADD PUSH1 0x0 PUSH2 0x100 EXP DUP2 SLOAD DUP2 PUSH1 0xFF MUL NOT AND SWAP1 DUP4 PUSH1 0xFF AND MUL OR SWAP1 SSTORE POP PUSH1 0x20 DUP3 ADD MLOAD DUP2 PUSH1 0x1 ADD SSTORE PUSH1 0x40 DUP3 ADD MLOAD DUP2 PUSH1 0x2 ADD SSTORE PUSH1 0x60 DUP3 ADD MLOAD DUP2 PUSH1 0x3 ADD SSTORE PUSH1 0x80 DUP3 ADD MLOAD DUP2 PUSH1 0x4 ADD SSTORE PUSH1 0xA0 DUP3 ADD MLOAD DUP2 PUSH1 0x5 ADD SSTORE PUSH1 0xC0 DUP3 ADD MLOAD DUP2 PUSH1 0x6 ADD SSTORE PUSH1 0xE0 DUP3 ADD MLOAD DUP2 PUSH1 0x7 ADD SSTORE PUSH2 0x100 DUP3 ADD MLOAD DUP2 PUSH1 0x8 ADD SSTORE PUSH2 0x120 DUP3 ADD MLOAD DUP2 PUSH1 0x9 ADD SSTORE SWAP1 POP POP PUSH1 0x40 PUSH1 0x0 DUP8 PUSH1 0x1 PUSH1 0x1 PUSH1 0xA0 SHL SUB AND PUSH1 0x1 PUSH1 0x1 PUSH1 0xA0 SHL SUB AND DUP2 MSTORE PUSH1 0x20 ADD SWAP1 DUP2 MSTORE PUSH1 0x20 ADD PUSH1 0x0 KECCAK256 PUSH1 0x18 ADD PUSH1 0x0 SWAP1 SLOAD SWAP1 PUSH2 0x100 EXP SWAP1 DIV PUSH4 0xFFFFFFFF AND PUSH4 0xFFFFFFFF AND PUSH1 0x0 EQ ISZERO PUSH2 0x181D JUMPI PUSH2 0x17BF PUSH2 0x450C JUMP JUMPDEST PUSH1 0x40 DUP1 MLOAD DUP1 DUP3 ADD DUP3 MSTORE DUP3 DUP2 MSTORE PUSH1 0x0 PUSH1 0x20 DUP1 DUP4 ADD DUP3 SWAP1 MSTORE PUSH1 0x1 PUSH1 0x1 PUSH1 0xA0 SHL SUB DUP12 AND DUP3 MSTORE DUP4 SWAP1 MSTORE SWAP2 SWAP1 SWAP2 KECCAK256 DUP2 MLOAD PUSH2 0x17F7 SWAP1 DUP3 SWAP1 PUSH1 0x18 PUSH2 0x45A5 JUMP JUMPDEST POP PUSH1 0x20 SWAP2 SWAP1 SWAP2 ADD MLOAD PUSH1 0x18 SWAP1 SWAP2 ADD DUP1 SLOAD PUSH4 0xFFFFFFFF NOT AND PUSH4 0xFFFFFFFF SWAP1 SWAP3 AND SWAP2 SWAP1 SWAP2 OR SWAP1 SSTORE POP JUMPDEST PUSH1 0x40 DUP1 MLOAD PUSH1 0x1 PUSH1 0x1 PUSH1 0xA0 SHL SUB DUP1 DUP10 AND DUP3 MSTORE DUP1 DUP9 AND PUSH1 0x20 DUP4 ADD MSTORE DUP7 AND DUP2 DUP4 ADD MSTORE PUSH1 0x60 DUP2 ADD DUP6 SWAP1 MSTORE NUMBER PUSH1 0x80 DUP3 ADD MSTORE SWAP1 MLOAD PUSH32 0x277A3D0C5095EF666C15FD8809F0980618B283FA86541CDF3A473CE33F5C6079 SWAP2 DUP2 SWAP1 SUB PUSH1 0xA0 ADD SWAP1 LOG1 POP PUSH1 0x1 SWAP6 SWAP5 POP POP POP POP POP JUMP JUMPDEST PUSH1 0x38 SLOAD SWAP1 JUMP JUMPDEST PUSH1 0x39 SLOAD SWAP1 JUMP JUMPDEST PUSH1 0x0 DUP1 PUSH2 0x189C NUMBER PUSH1 0x5C SLOAD PUSH2 0x289A JUMP JUMPDEST SWAP1 POP DUP1 PUSH1 0x5B SLOAD GT ISZERO PUSH2 0x18BC JUMPI PUSH2 0x18B4 PUSH1 0x5B SLOAD DUP3 PUSH2 0x289A JUMP JUMPDEST SWAP2 POP POP PUSH2 0xBA4 JUMP JUMPDEST PUSH1 0x0 SWAP2 POP POP SWAP1 JUMP JUMPDEST PUSH1 0x37 SLOAD PUSH1 0x0 SWAP1 PUSH1 0x1 PUSH1 0x1 PUSH1 0xA0 SHL SUB AND CALLER EQ PUSH2 0x1910 JUMPI PUSH1 0x40 MLOAD PUSH3 0x461BCD PUSH1 0xE5 SHL DUP2 MSTORE PUSH1 0x4 ADD DUP1 DUP1 PUSH1 0x20 ADD DUP3 DUP2 SUB DUP3 MSTORE PUSH1 0x31 DUP2 MSTORE PUSH1 0x20 ADD DUP1 PUSH2 0x485B PUSH1 0x31 SWAP2 CODECOPY PUSH1 0x40 ADD SWAP2 POP POP PUSH1 0x40 MLOAD DUP1 SWAP2 SUB SWAP1 REVERT JUMPDEST PUSH1 0x1 PUSH1 0x1 PUSH1 0xA0 SHL SUB DUP3 AND PUSH1 0x0 SWAP1 DUP2 MSTORE PUSH1 0x3F PUSH1 0x20 MSTORE PUSH1 0x40 SWAP1 KECCAK256 SLOAD PUSH1 0xFF AND PUSH2 0x1979 JUMPI PUSH1 0x40 DUP1 MLOAD PUSH3 0x461BCD PUSH1 0xE5 SHL DUP2 MSTORE PUSH1 0x20 PUSH1 0x4 DUP3 ADD MSTORE PUSH1 0x19 PUSH1 0x24 DUP3 ADD MSTORE PUSH25 0x24B739BA393AB6B2B73A103737BA1039BAB83837B93A32B217 PUSH1 0x39 SHL PUSH1 0x44 DUP3 ADD MSTORE SWAP1 MLOAD SWAP1 DUP2 SWAP1 SUB PUSH1 0x64 ADD SWAP1 REVERT JUMPDEST PUSH2 0x1982 DUP3 PUSH2 0x28DB JUMP JUMPDEST PUSH2 0x126B JUMPI PUSH1 0x40 MLOAD PUSH3 0x461BCD PUSH1 0xE5 SHL DUP2 MSTORE PUSH1 0x4 ADD DUP1 DUP1 PUSH1 0x20 ADD DUP3 DUP2 SUB DUP3 MSTORE PUSH1 0x2D DUP2 MSTORE PUSH1 0x20 ADD DUP1 PUSH2 0x4B80 PUSH1 0x2D SWAP2 CODECOPY PUSH1 0x40 ADD SWAP2 POP POP PUSH1 0x40 MLOAD DUP1 SWAP2 SUB SWAP1 REVERT JUMPDEST PUSH1 0x34 SLOAD PUSH1 0x40 DUP1 MLOAD PUSH4 0xDB49224B PUSH1 0xE0 SHL DUP2 MSTORE SWAP1 MLOAD CALLER SWAP3 PUSH1 0x1 PUSH1 0x1 PUSH1 0xA0 SHL SUB AND SWAP2 PUSH4 0xDB49224B SWAP2 PUSH1 0x4 DUP1 DUP4 ADD SWAP3 PUSH1 0x20 SWAP3 SWAP2 SWAP1 DUP3 SWAP1 SUB ADD DUP2 DUP7 DUP1 EXTCODESIZE ISZERO DUP1 ISZERO PUSH2 0x1A01 JUMPI PUSH1 0x0 DUP1 REVERT JUMPDEST POP GAS STATICCALL ISZERO DUP1 ISZERO PUSH2 0x1A15 JUMPI RETURNDATASIZE PUSH1 0x0 DUP1 RETURNDATACOPY RETURNDATASIZE PUSH1 0x0 REVERT JUMPDEST POP POP POP POP PUSH1 0x40 MLOAD RETURNDATASIZE PUSH1 0x20 DUP2 LT ISZERO PUSH2 0x1A2B JUMPI PUSH1 0x0 DUP1 REVERT JUMPDEST POP MLOAD PUSH1 0x1 PUSH1 0x1 PUSH1 0xA0 SHL SUB AND EQ PUSH2 0x1A72 JUMPI PUSH1 0x40 MLOAD PUSH3 0x461BCD PUSH1 0xE5 SHL DUP2 MSTORE PUSH1 0x4 ADD DUP1 DUP1 PUSH1 0x20 ADD DUP3 DUP2 SUB DUP3 MSTORE PUSH1 0x3A DUP2 MSTORE PUSH1 0x20 ADD DUP1 PUSH2 0x488C PUSH1 0x3A SWAP2 CODECOPY PUSH1 0x40 ADD SWAP2 POP POP PUSH1 0x40 MLOAD DUP1 SWAP2 SUB SWAP1 REVERT JUMPDEST PUSH2 0x1A7A PUSH2 0x2BD6 JUMP JUMPDEST JUMP JUMPDEST PUSH1 0x36 SLOAD PUSH1 0x1 PUSH1 0x1 PUSH1 0xA0 SHL SUB AND DUP2 JUMP JUMPDEST PUSH1 0x60 PUSH1 0x3E DUP1 SLOAD DUP1 PUSH1 0x20 MUL PUSH1 0x20 ADD PUSH1 0x40 MLOAD SWAP1 DUP2 ADD PUSH1 0x40 MSTORE DUP1 SWAP3 SWAP2 SWAP1 DUP2 DUP2 MSTORE PUSH1 0x20 ADD DUP3 DUP1 SLOAD DUP1 ISZERO PUSH2 0x12AC JUMPI PUSH1 0x20 MUL DUP3 ADD SWAP2 SWAP1 PUSH1 0x0 MSTORE PUSH1 0x20 PUSH1 0x0 KECCAK256 SWAP1 JUMPDEST DUP2 SLOAD PUSH1 0x1 PUSH1 0x1 PUSH1 0xA0 SHL SUB AND DUP2 MSTORE PUSH1 0x1 SWAP1 SWAP2 ADD SWAP1 PUSH1 0x20 ADD DUP1 DUP4 GT PUSH2 0x1AC5 JUMPI POP POP POP POP POP SWAP1 POP SWAP1 JUMP JUMPDEST PUSH1 0x1 PUSH1 0x1 PUSH1 0xA0 SHL SUB AND PUSH1 0x0 SWAP1 DUP2 MSTORE PUSH1 0x40 PUSH1 0x20 DUP2 SWAP1 MSTORE SWAP1 KECCAK256 PUSH1 0x18 ADD SLOAD PUSH4 0xFFFFFFFF AND SWAP1 JUMP JUMPDEST PUSH1 0x3D SLOAD SWAP1 JUMP JUMPDEST PUSH1 0x1 PUSH1 0x1 PUSH1 0xA0 SHL SUB DUP2 AND PUSH1 0x0 SWAP1 DUP2 MSTORE PUSH1 0x3F PUSH1 0x20 MSTORE PUSH1 0x40 DUP2 KECCAK256 SLOAD PUSH1 0xFF AND ISZERO PUSH2 0xA64 JUMPI POP PUSH1 0x1 PUSH1 0x1 PUSH1 0xA0 SHL SUB DUP2 AND PUSH1 0x0 SWAP1 DUP2 MSTORE PUSH1 0x3F PUSH1 0x20 MSTORE PUSH1 0x40 SWAP1 KECCAK256 PUSH1 0x6 ADD SLOAD PUSH2 0xA68 JUMP JUMPDEST PUSH1 0x0 CALLER PUSH1 0x1 PUSH1 0x1 PUSH1 0xA0 SHL SUB AND PUSH1 0x34 PUSH1 0x0 SWAP1 SLOAD SWAP1 PUSH2 0x100 EXP SWAP1 DIV PUSH1 0x1 PUSH1 0x1 PUSH1 0xA0 SHL SUB AND PUSH1 0x1 PUSH1 0x1 PUSH1 0xA0 SHL SUB AND PUSH4 0xDB49224B PUSH1 0x40 MLOAD DUP2 PUSH4 0xFFFFFFFF AND PUSH1 0xE0 SHL DUP2 MSTORE PUSH1 0x4 ADD PUSH1 0x20 PUSH1 0x40 MLOAD DUP1 DUP4 SUB DUP2 DUP7 DUP1 EXTCODESIZE ISZERO DUP1 ISZERO PUSH2 0x1BB3 JUMPI PUSH1 0x0 DUP1 REVERT JUMPDEST POP GAS STATICCALL ISZERO DUP1 ISZERO PUSH2 0x1BC7 JUMPI RETURNDATASIZE PUSH1 0x0 DUP1 RETURNDATACOPY RETURNDATASIZE PUSH1 0x0 REVERT JUMPDEST POP POP POP POP PUSH1 0x40 MLOAD RETURNDATASIZE PUSH1 0x20 DUP2 LT ISZERO PUSH2 0x1BDD JUMPI PUSH1 0x0 DUP1 REVERT JUMPDEST POP MLOAD PUSH1 0x1 PUSH1 0x1 PUSH1 0xA0 SHL SUB AND EQ PUSH2 0x1C24 JUMPI PUSH1 0x40 MLOAD PUSH3 0x461BCD PUSH1 0xE5 SHL DUP2 MSTORE PUSH1 0x4 ADD DUP1 DUP1 PUSH1 0x20 ADD DUP3 DUP2 SUB DUP3 MSTORE PUSH1 0x3A DUP2 MSTORE PUSH1 0x20 ADD DUP1 PUSH2 0x488C PUSH1 0x3A SWAP2 CODECOPY PUSH1 0x40 ADD SWAP2 POP POP PUSH1 0x40 MLOAD DUP1 SWAP2 SUB SWAP1 REVERT JUMPDEST PUSH1 0x1 PUSH1 0x1 PUSH1 0xA0 SHL SUB DUP6 AND PUSH1 0x0 SWAP1 DUP2 MSTORE PUSH1 0x3F PUSH1 0x20 MSTORE PUSH1 0x40 SWAP1 KECCAK256 SLOAD PUSH1 0xFF AND PUSH2 0x1C8D JUMPI PUSH1 0x40 DUP1 MLOAD PUSH3 0x461BCD PUSH1 0xE5 SHL DUP2 MSTORE PUSH1 0x20 PUSH1 0x4 DUP3 ADD MSTORE PUSH1 0x19 PUSH1 0x24 DUP3 ADD MSTORE PUSH25 0x24B739BA393AB6B2B73A103737BA1039BAB83837B93A32B217 PUSH1 0x39 SHL PUSH1 0x44 DUP3 ADD MSTORE SWAP1 MLOAD SWAP1 DUP2 SWAP1 SUB PUSH1 0x64 ADD SWAP1 REVERT JUMPDEST PUSH7 0x2386F26FC10000 DUP5 LT ISZERO PUSH2 0x1CD3 JUMPI PUSH1 0x40 MLOAD PUSH3 0x461BCD PUSH1 0xE5 SHL DUP2 MSTORE PUSH1 0x4 ADD DUP1 DUP1 PUSH1 0x20 ADD DUP3 DUP2 SUB DUP3 MSTORE PUSH1 0x48 DUP2 MSTORE PUSH1 0x20 ADD DUP1 PUSH2 0x4669 PUSH1 0x48 SWAP2 CODECOPY PUSH1 0x60 ADD SWAP2 POP POP PUSH1 0x40 MLOAD DUP1 SWAP2 SUB SWAP1 REVERT JUMPDEST PUSH8 0x8AC7230489E80000 DUP5 GT ISZERO PUSH2 0x1D1A JUMPI PUSH1 0x40 MLOAD PUSH3 0x461BCD PUSH1 0xE5 SHL DUP2 MSTORE PUSH1 0x4 ADD DUP1 DUP1 PUSH1 0x20 ADD DUP3 DUP2 SUB DUP3 MSTORE PUSH1 0x44 DUP2 MSTORE PUSH1 0x20 ADD DUP1 PUSH2 0x4817 PUSH1 0x44 SWAP2 CODECOPY PUSH1 0x60 ADD SWAP2 POP POP PUSH1 0x40 MLOAD DUP1 SWAP2 SUB SWAP1 REVERT JUMPDEST PUSH7 0x2386F26FC10000 DUP4 LT ISZERO PUSH2 0x1D60 JUMPI PUSH1 0x40 MLOAD PUSH3 0x461BCD PUSH1 0xE5 SHL DUP2 MSTORE PUSH1 0x4 ADD DUP1 DUP1 PUSH1 0x20 ADD DUP3 DUP2 SUB DUP3 MSTORE PUSH1 0x48 DUP2 MSTORE PUSH1 0x20 ADD DUP1 PUSH2 0x4943 PUSH1 0x48 SWAP2 CODECOPY PUSH1 0x60 ADD SWAP2 POP POP PUSH1 0x40 MLOAD DUP1 SWAP2 SUB SWAP1 REVERT JUMPDEST PUSH8 0x8AC7230489E80000 DUP4 GT ISZERO PUSH2 0x1DA7 JUMPI PUSH1 0x40 MLOAD PUSH3 0x461BCD PUSH1 0xE5 SHL DUP2 MSTORE PUSH1 0x4 ADD DUP1 DUP1 PUSH1 0x20 ADD DUP3 DUP2 SUB DUP3 MSTORE PUSH1 0x44 DUP2 MSTORE PUSH1 0x20 ADD DUP1 PUSH2 0x48FF PUSH1 0x44 SWAP2 CODECOPY PUSH1 0x60 ADD SWAP2 POP POP PUSH1 0x40 MLOAD DUP1 SWAP2 SUB SWAP1 REVERT JUMPDEST PUSH2 0x1DAF PUSH2 0x21AE JUMP JUMPDEST POP PUSH1 0x1 PUSH1 0x1 PUSH1 0xA0 SHL SUB DUP6 AND PUSH1 0x0 DUP2 DUP2 MSTORE PUSH1 0x3F PUSH1 0x20 SWAP1 DUP2 MSTORE PUSH1 0x40 DUP1 DUP4 KECCAK256 PUSH1 0x5 ADD DUP1 SLOAD PUSH1 0xFF NOT AND DUP8 ISZERO ISZERO OR DUP2 SSTORE PUSH1 0x5A DUP4 MSTORE SWAP3 DUP2 SWAP1 KECCAK256 PUSH1 0x1 DUP2 ADD DUP10 SWAP1 SSTORE PUSH1 0x2 ADD DUP8 SWAP1 SSTORE SWAP2 SLOAD DUP3 MLOAD SWAP4 DUP5 MSTORE PUSH1 0xFF AND ISZERO ISZERO SWAP1 DUP4 ADD MSTORE DUP2 DUP2 ADD DUP7 SWAP1 MSTORE PUSH1 0x60 DUP3 ADD DUP6 SWAP1 MSTORE MLOAD PUSH32 0x4581958725035645ECD9F28D5A64E8667BE51F54A77F1B1CF9B346F23C7F4D80 SWAP2 PUSH1 0x80 SWAP1 DUP3 SWAP1 SUB ADD SWAP1 LOG1 POP PUSH1 0x1 SWAP5 SWAP4 POP POP POP POP JUMP JUMPDEST PUSH1 0x0 DUP4 PUSH2 0x1E4E PUSH2 0x45D2 JUMP JUMPDEST PUSH1 0x1 PUSH1 0x1 PUSH1 0xA0 SHL SUB DUP3 AND PUSH1 0x0 SWAP1 DUP2 MSTORE PUSH1 0x3F PUSH1 0x20 SWAP1 DUP2 MSTORE PUSH1 0x40 SWAP2 DUP3 SWAP1 KECCAK256 DUP3 MLOAD PUSH2 0x140 DUP2 ADD DUP5 MSTORE DUP2 SLOAD PUSH1 0xFF AND ISZERO ISZERO DUP2 MSTORE PUSH1 0x1 DUP1 DUP4 ADD DUP1 SLOAD DUP7 MLOAD PUSH1 0x2 PUSH2 0x100 SWAP5 DUP4 AND ISZERO SWAP5 SWAP1 SWAP5 MUL PUSH1 0x0 NOT ADD SWAP1 SWAP2 AND SWAP3 SWAP1 SWAP3 DIV PUSH1 0x1F DUP2 ADD DUP7 SWAP1 DIV DUP7 MUL DUP4 ADD DUP7 ADD SWAP1 SWAP7 MSTORE DUP6 DUP3 MSTORE SWAP2 SWAP5 SWAP3 SWAP4 DUP6 DUP2 ADD SWAP4 SWAP2 SWAP3 SWAP2 SWAP1 DUP4 ADD DUP3 DUP3 DUP1 ISZERO PUSH2 0x1F0D JUMPI DUP1 PUSH1 0x1F LT PUSH2 0x1EE2 JUMPI PUSH2 0x100 DUP1 DUP4 SLOAD DIV MUL DUP4 MSTORE SWAP2 PUSH1 0x20 ADD SWAP2 PUSH2 0x1F0D JUMP JUMPDEST DUP3 ADD SWAP2 SWAP1 PUSH1 0x0 MSTORE PUSH1 0x20 PUSH1 0x0 KECCAK256 SWAP1 JUMPDEST DUP2 SLOAD DUP2 MSTORE SWAP1 PUSH1 0x1 ADD SWAP1 PUSH1 0x20 ADD DUP1 DUP4 GT PUSH2 0x1EF0 JUMPI DUP3 SWAP1 SUB PUSH1 0x1F AND DUP3 ADD SWAP2 JUMPDEST POP POP POP SWAP2 DUP4 MSTORE POP POP PUSH1 0x2 DUP3 ADD SLOAD PUSH1 0x1 PUSH1 0x1 PUSH1 0xA0 SHL SUB SWAP1 DUP2 AND PUSH1 0x20 DUP4 ADD MSTORE PUSH1 0x3 DUP4 ADD SLOAD AND PUSH1 0x40 DUP3 ADD MSTORE PUSH1 0x4 DUP3 ADD SLOAD PUSH1 0x60 DUP3 ADD MSTORE PUSH1 0x5 DUP3 ADD SLOAD PUSH1 0xFF AND ISZERO ISZERO PUSH1 0x80 DUP3 ADD MSTORE PUSH1 0x6 DUP3 ADD SLOAD PUSH1 0xA0 DUP3 ADD MSTORE PUSH1 0x7 DUP3 ADD SLOAD PUSH1 0xC0 DUP3 ADD MSTORE PUSH1 0x8 DUP3 ADD SLOAD PUSH1 0xE0 DUP3 ADD MSTORE PUSH1 0x9 SWAP1 SWAP2 ADD SLOAD PUSH2 0x100 SWAP1 SWAP2 ADD MSTORE DUP1 MLOAD SWAP1 SWAP2 POP PUSH2 0x1FB9 JUMPI PUSH1 0x40 MLOAD PUSH3 0x461BCD PUSH1 0xE5 SHL DUP2 MSTORE PUSH1 0x4 ADD DUP1 DUP1 PUSH1 0x20 ADD DUP3 DUP2 SUB DUP3 MSTORE PUSH1 0x3D DUP2 MSTORE PUSH1 0x20 ADD DUP1 PUSH2 0x46F7 PUSH1 0x3D SWAP2 CODECOPY PUSH1 0x40 ADD SWAP2 POP POP PUSH1 0x40 MLOAD DUP1 SWAP2 SUB SWAP1 REVERT JUMPDEST DUP1 PUSH1 0x60 ADD MLOAD PUSH1 0x1 PUSH1 0x1 PUSH1 0xA0 SHL SUB AND CALLER PUSH1 0x1 PUSH1 0x1 PUSH1 0xA0 SHL SUB AND EQ PUSH2 0x200D JUMPI PUSH1 0x40 MLOAD PUSH3 0x461BCD PUSH1 0xE5 SHL DUP2 MSTORE PUSH1 0x4 ADD DUP1 DUP1 PUSH1 0x20 ADD DUP3 DUP2 SUB DUP3 MSTORE PUSH1 0x52 DUP2 MSTORE PUSH1 0x20 ADD DUP1 PUSH2 0x479D PUSH1 0x52 SWAP2 CODECOPY PUSH1 0x60 ADD SWAP2 POP POP PUSH1 0x40 MLOAD DUP1 SWAP2 SUB SWAP1 REVERT JUMPDEST PUSH1 0x35 SLOAD PUSH1 0x40 DUP1 MLOAD PUSH4 0x70A08231 PUSH1 0xE0 SHL DUP2 MSTORE ADDRESS PUSH1 0x4 DUP3 ADD MSTORE SWAP1 MLOAD PUSH1 0x0 SWAP3 DUP8 SWAP3 PUSH1 0x1 PUSH1 0x1 PUSH1 0xA0 SHL SUB SWAP1 SWAP2 AND SWAP2 PUSH4 0x70A08231 SWAP2 PUSH1 0x24 DUP1 DUP3 ADD SWAP3 PUSH1 0x20 SWAP3 SWAP1 SWAP2 SWAP1 DUP3 SWAP1 SUB ADD DUP2 DUP7 DUP1 EXTCODESIZE ISZERO DUP1 ISZERO PUSH2 0x205D JUMPI PUSH1 0x0 DUP1 REVERT JUMPDEST POP GAS STATICCALL ISZERO DUP1 ISZERO PUSH2 0x2071 JUMPI RETURNDATASIZE PUSH1 0x0 DUP1 RETURNDATACOPY RETURNDATASIZE PUSH1 0x0 REVERT JUMPDEST POP POP POP POP PUSH1 0x40 MLOAD RETURNDATASIZE PUSH1 0x20 DUP2 LT ISZERO PUSH2 0x2087 JUMPI PUSH1 0x0 DUP1 REVERT JUMPDEST POP MLOAD GT ISZERO PUSH2 0x219B JUMPI PUSH1 0x35 SLOAD PUSH1 0x40 DUP1 MLOAD PUSH4 0xA9059CBB PUSH1 0xE0 SHL DUP2 MSTORE PUSH1 0x1 PUSH1 0x1 PUSH1 0xA0 SHL SUB DUP10 DUP2 AND PUSH1 0x4 DUP4 ADD MSTORE PUSH1 0x24 DUP3 ADD DUP10 SWAP1 MSTORE SWAP2 MLOAD SWAP2 SWAP1 SWAP3 AND SWAP2 PUSH4 0xA9059CBB SWAP2 PUSH1 0x44 DUP1 DUP4 ADD SWAP3 PUSH1 0x20 SWAP3 SWAP2 SWAP1 DUP3 SWAP1 SUB ADD DUP2 PUSH1 0x0 DUP8 DUP1 EXTCODESIZE ISZERO DUP1 ISZERO PUSH2 0x20E5 JUMPI PUSH1 0x0 DUP1 REVERT JUMPDEST POP GAS CALL ISZERO DUP1 ISZERO PUSH2 0x20F9 JUMPI RETURNDATASIZE PUSH1 0x0 DUP1 RETURNDATACOPY RETURNDATASIZE PUSH1 0x0 REVERT JUMPDEST POP POP POP POP PUSH1 0x40 MLOAD RETURNDATASIZE PUSH1 0x20 DUP2 LT ISZERO PUSH2 0x210F JUMPI PUSH1 0x0 DUP1 REVERT JUMPDEST POP MLOAD PUSH2 0x214C JUMPI PUSH1 0x40 MLOAD PUSH3 0x461BCD PUSH1 0xE5 SHL DUP2 MSTORE PUSH1 0x4 ADD DUP1 DUP1 PUSH1 0x20 ADD DUP3 DUP2 SUB DUP3 MSTORE PUSH1 0x2C DUP2 MSTORE PUSH1 0x20 ADD DUP1 PUSH2 0x4AE7 PUSH1 0x2C SWAP2 CODECOPY PUSH1 0x40 ADD SWAP2 POP POP PUSH1 0x40 MLOAD DUP1 SWAP2 SUB SWAP1 REVERT JUMPDEST PUSH1 0x40 DUP1 MLOAD PUSH1 0x1 PUSH1 0x1 PUSH1 0xA0 SHL SUB DUP1 DUP11 AND DUP3 MSTORE DUP9 AND PUSH1 0x20 DUP3 ADD MSTORE DUP1 DUP3 ADD DUP8 SWAP1 MSTORE SWAP1 MLOAD PUSH32 0x922C86DA5BA82864DDC6D719CCDD80A788323E2A4DC17CFE258D00BA885B2BEC SWAP2 DUP2 SWAP1 SUB PUSH1 0x60 ADD SWAP1 LOG1 PUSH2 0x219E JUMP JUMPDEST POP DUP4 JUMPDEST SWAP7 SWAP6 POP POP POP POP POP POP JUMP JUMPDEST PUSH1 0x5B SLOAD SWAP1 JUMP JUMPDEST PUSH1 0x0 DUP1 NUMBER SWAP1 POP PUSH1 0x0 PUSH2 0x21DB DUP3 PUSH1 0x5C SLOAD PUSH1 0x40 MLOAD DUP1 PUSH1 0x60 ADD PUSH1 0x40 MSTORE DUP1 PUSH1 0x36 DUP2 MSTORE PUSH1 0x20 ADD PUSH2 0x4734 PUSH1 0x36 SWAP2 CODECOPY PUSH2 0x2D7B JUMP JUMPDEST SWAP1 POP PUSH1 0x5B SLOAD DUP2 LT PUSH2 0x21FA JUMPI PUSH2 0x21EE PUSH2 0x2E12 JUMP JUMPDEST POP PUSH1 0x5C SSTORE POP PUSH1 0x1 PUSH2 0xBA4 JUMP JUMPDEST PUSH1 0x0 SWAP3 POP POP POP SWAP1 JUMP JUMPDEST PUSH1 0x1 PUSH1 0x1 PUSH1 0xA0 SHL SUB AND PUSH1 0x0 SWAP1 DUP2 MSTORE PUSH1 0x3F PUSH1 0x20 MSTORE PUSH1 0x40 SWAP1 KECCAK256 SLOAD PUSH1 0xFF AND SWAP1 JUMP JUMPDEST PUSH1 0x0 PUSH2 0x222B PUSH2 0x38AA JUMP JUMPDEST PUSH1 0x1 SLOAD SWAP1 SWAP2 POP PUSH1 0xFF AND DUP1 PUSH2 0x2242 JUMPI POP PUSH2 0x2242 PUSH2 0x38AF JUMP JUMPDEST DUP1 PUSH2 0x224E JUMPI POP PUSH1 0x0 SLOAD DUP2 GT JUMPDEST PUSH2 0x2289 JUMPI PUSH1 0x40 MLOAD PUSH3 0x461BCD PUSH1 0xE5 SHL DUP2 MSTORE PUSH1 0x4 ADD DUP1 DUP1 PUSH1 0x20 ADD DUP3 DUP2 SUB DUP3 MSTORE PUSH1 0x2E DUP2 MSTORE PUSH1 0x20 ADD DUP1 PUSH2 0x4AB9 PUSH1 0x2E SWAP2 CODECOPY PUSH1 0x40 ADD SWAP2 POP POP PUSH1 0x40 MLOAD DUP1 SWAP2 SUB SWAP1 REVERT JUMPDEST PUSH1 0x1 SLOAD PUSH1 0xFF AND ISZERO DUP1 ISZERO PUSH2 0x22A8 JUMPI PUSH1 0x1 DUP1 SLOAD PUSH1 0xFF NOT AND DUP2 OR SWAP1 SSTORE PUSH1 0x0 DUP3 SWAP1 SSTORE JUMPDEST PUSH1 0x34 DUP1 SLOAD PUSH1 0x1 PUSH1 0x1 PUSH1 0xA0 SHL SUB NOT AND PUSH1 0x1 PUSH1 0x1 PUSH1 0xA0 SHL SUB DUP6 AND OR SWAP1 SSTORE PUSH2 0x22CB PUSH2 0x2BD6 JUMP JUMPDEST DUP1 ISZERO PUSH2 0x22DC JUMPI PUSH1 0x1 DUP1 SLOAD PUSH1 0xFF NOT AND SWAP1 SSTORE JUMPDEST POP POP POP JUMP JUMPDEST PUSH1 0x1 PUSH1 0x1 PUSH1 0xA0 SHL SUB AND PUSH1 0x0 SWAP1 DUP2 MSTORE PUSH1 0x5A PUSH1 0x20 MSTORE PUSH1 0x40 SWAP1 KECCAK256 DUP1 SLOAD PUSH1 0x4 DUP3 ADD SLOAD PUSH1 0x6 DUP4 ADD SLOAD PUSH1 0x3 DUP5 ADD SLOAD PUSH1 0x5 SWAP1 SWAP5 ADD SLOAD PUSH1 0xFF SWAP1 SWAP4 AND SWAP5 SWAP2 SWAP4 SWAP1 SWAP3 SWAP1 SWAP2 JUMP JUMPDEST PUSH1 0x35 SLOAD PUSH1 0x40 DUP1 MLOAD PUSH4 0x70A08231 PUSH1 0xE0 SHL DUP2 MSTORE ADDRESS PUSH1 0x4 DUP3 ADD MSTORE SWAP1 MLOAD PUSH1 0x0 SWAP3 DUP4 SWAP3 PUSH1 0x1 PUSH1 0x1 PUSH1 0xA0 SHL SUB SWAP1 SWAP2 AND SWAP2 PUSH4 0x70A08231 SWAP2 PUSH1 0x24 DUP1 DUP3 ADD SWAP3 PUSH1 0x20 SWAP3 SWAP1 SWAP2 SWAP1 DUP3 SWAP1 SUB ADD DUP2 DUP7 DUP1 EXTCODESIZE ISZERO DUP1 ISZERO PUSH2 0x236D JUMPI PUSH1 0x0 DUP1 REVERT JUMPDEST POP GAS STATICCALL ISZERO DUP1 ISZERO PUSH2 0x2381 JUMPI RETURNDATASIZE PUSH1 0x0 DUP1 RETURNDATACOPY RETURNDATASIZE PUSH1 0x0 REVERT JUMPDEST POP POP POP POP PUSH1 0x40 MLOAD RETURNDATASIZE PUSH1 0x20 DUP2 LT ISZERO PUSH2 0x2397 JUMPI PUSH1 0x0 DUP1 REVERT JUMPDEST POP MLOAD SWAP2 POP POP SWAP1 JUMP JUMPDEST PUSH1 0x34 SLOAD PUSH1 0x1 PUSH1 0x1 PUSH1 0xA0 SHL SUB AND DUP2 JUMP JUMPDEST PUSH1 0x1 PUSH1 0x1 PUSH1 0xA0 SHL SUB AND PUSH1 0x0 SWAP1 DUP2 MSTORE PUSH1 0x5A PUSH1 0x20 MSTORE PUSH1 0x40 SWAP1 KECCAK256 PUSH1 0x1 DUP2 ADD SLOAD PUSH1 0x2 SWAP1 SWAP2 ADD SLOAD SWAP1 SWAP2 JUMP JUMPDEST PUSH2 0x23DC PUSH2 0x450C JUMP JUMPDEST PUSH1 0x1 PUSH1 0x1 PUSH1 0xA0 SHL SUB DUP3 AND PUSH1 0x0 SWAP1 DUP2 MSTORE PUSH1 0x40 PUSH1 0x20 DUP2 SWAP1 MSTORE SWAP1 DUP2 SWAP1 KECCAK256 DUP2 MLOAD PUSH2 0x300 DUP2 ADD SWAP3 DUP4 SWAP1 MSTORE SWAP2 PUSH1 0x18 SWAP1 DUP3 DUP5 JUMPDEST DUP2 SLOAD DUP2 MSTORE PUSH1 0x20 ADD SWAP1 PUSH1 0x1 ADD SWAP1 DUP1 DUP4 GT PUSH2 0x2408 JUMPI POP POP POP POP POP SWAP1 POP SWAP2 SWAP1 POP JUMP JUMPDEST PUSH1 0x0 CALLER PUSH1 0x1 PUSH1 0x1 PUSH1 0xA0 SHL SUB AND PUSH1 0x34 PUSH1 0x0 SWAP1 SLOAD SWAP1 PUSH2 0x100 EXP SWAP1 DIV PUSH1 0x1 PUSH1 0x1 PUSH1 0xA0 SHL SUB AND PUSH1 0x1 PUSH1 0x1 PUSH1 0xA0 SHL SUB AND PUSH4 0xDB49224B PUSH1 0x40 MLOAD DUP2 PUSH4 0xFFFFFFFF AND PUSH1 0xE0 SHL DUP2 MSTORE PUSH1 0x4 ADD PUSH1 0x20 PUSH1 0x40 MLOAD DUP1 DUP4 SUB DUP2 DUP7 DUP1 EXTCODESIZE ISZERO DUP1 ISZERO PUSH2 0x2481 JUMPI PUSH1 0x0 DUP1 REVERT JUMPDEST POP GAS STATICCALL ISZERO DUP1 ISZERO PUSH2 0x2495 JUMPI RETURNDATASIZE PUSH1 0x0 DUP1 RETURNDATACOPY RETURNDATASIZE PUSH1 0x0 REVERT JUMPDEST POP POP POP POP PUSH1 0x40 MLOAD RETURNDATASIZE PUSH1 0x20 DUP2 LT ISZERO PUSH2 0x24AB JUMPI PUSH1 0x0 DUP1 REVERT JUMPDEST POP MLOAD PUSH1 0x1 PUSH1 0x1 PUSH1 0xA0 SHL SUB AND EQ PUSH2 0x24F2 JUMPI PUSH1 0x40 MLOAD PUSH3 0x461BCD PUSH1 0xE5 SHL DUP2 MSTORE PUSH1 0x4 ADD DUP1 DUP1 PUSH1 0x20 ADD DUP3 DUP2 SUB DUP3 MSTORE PUSH1 0x3A DUP2 MSTORE PUSH1 0x20 ADD DUP1 PUSH2 0x488C PUSH1 0x3A SWAP2 CODECOPY PUSH1 0x40 ADD SWAP2 POP POP PUSH1 0x40 MLOAD DUP1 SWAP2 SUB SWAP1 REVERT JUMPDEST PUSH7 0x2386F26FC10000 DUP3 LT ISZERO PUSH2 0x2538 JUMPI PUSH1 0x40 MLOAD PUSH3 0x461BCD PUSH1 0xE5 SHL DUP2 MSTORE PUSH1 0x4 ADD DUP1 DUP1 PUSH1 0x20 ADD DUP3 DUP2 SUB DUP3 MSTORE PUSH1 0x48 DUP2 MSTORE PUSH1 0x20 ADD DUP1 PUSH2 0x4943 PUSH1 0x48 SWAP2 CODECOPY PUSH1 0x60 ADD SWAP2 POP POP PUSH1 0x40 MLOAD DUP1 SWAP2 SUB SWAP1 REVERT JUMPDEST PUSH8 0x8AC7230489E80000 DUP3 GT ISZERO PUSH2 0x257F JUMPI PUSH1 0x40 MLOAD PUSH3 0x461BCD PUSH1 0xE5 SHL DUP2 MSTORE PUSH1 0x4 ADD DUP1 DUP1 PUSH1 0x20 ADD DUP3 DUP2 SUB DUP3 MSTORE PUSH1 0x44 DUP2 MSTORE PUSH1 0x20 ADD DUP1 PUSH2 0x48FF PUSH1 0x44 SWAP2 CODECOPY PUSH1 0x60 ADD SWAP2 POP POP PUSH1 0x40 MLOAD DUP1 SWAP2 SUB SWAP1 REVERT JUMPDEST PUSH1 0x37 DUP1 SLOAD PUSH1 0xFF PUSH1 0xA0 SHL NOT AND PUSH1 0x1 PUSH1 0xA0 SHL DUP6 ISZERO ISZERO DUP2 MUL SWAP2 SWAP1 SWAP2 OR SWAP2 DUP3 SWAP1 SSTORE PUSH1 0x40 DUP1 MLOAD PUSH1 0x20 DUP1 DUP3 ADD DUP4 MSTORE SWAP1 DUP7 SWAP1 MSTORE PUSH1 0x38 DUP7 SWAP1 SSTORE DUP2 MLOAD PUSH1 0xFF SWAP4 SWAP1 SWAP5 DIV SWAP3 SWAP1 SWAP3 AND ISZERO ISZERO DUP4 MSTORE SWAP1 DUP3 ADD DUP5 SWAP1 MSTORE DUP1 MLOAD PUSH32 0xD55BE47C68F8B685395F793F2BB6BD42D63A65216E247F7AFDCF33FDB2F94BB0 SWAP3 DUP2 SWAP1 SUB SWAP1 SWAP2 ADD SWAP1 LOG1 POP PUSH1 0x1 SWAP3 SWAP2 POP POP JUMP JUMPDEST PUSH1 0x3E SLOAD SWAP1 JUMP JUMPDEST PUSH1 0x0 DUP1 JUMPDEST PUSH1 0x3E SLOAD DUP2 LT ISZERO PUSH2 0x2652 JUMPI PUSH1 0x0 PUSH1 0x3E DUP3 DUP2 SLOAD DUP2 LT PUSH2 0x261E JUMPI INVALID JUMPDEST PUSH1 0x0 SWAP2 DUP3 MSTORE PUSH1 0x20 SWAP1 SWAP2 KECCAK256 ADD SLOAD PUSH1 0x1 PUSH1 0x1 PUSH1 0xA0 SHL SUB AND SWAP1 POP PUSH2 0x263E DUP2 PUSH2 0x265A JUMP JUMPDEST POP PUSH2 0x2648 DUP2 PUSH2 0x28DB JUMP JUMPDEST POP POP PUSH1 0x1 ADD PUSH2 0x2605 JUMP JUMPDEST POP PUSH1 0x1 SWAP1 POP SWAP1 JUMP JUMPDEST PUSH1 0x0 DUP1 PUSH2 0x2665 PUSH2 0x1054 JUMP JUMPDEST PUSH1 0x1 PUSH1 0x1 PUSH1 0xA0 SHL SUB DUP5 AND PUSH1 0x0 SWAP1 DUP2 MSTORE PUSH1 0x3F PUSH1 0x20 MSTORE PUSH1 0x40 SWAP1 KECCAK256 PUSH1 0x7 ADD SLOAD PUSH4 0xFFFFFFFF SWAP2 SWAP1 SWAP2 AND SWAP2 POP DUP2 EQ ISZERO PUSH2 0x269D JUMPI PUSH1 0x1 SWAP2 POP POP PUSH2 0xA68 JUMP JUMPDEST PUSH1 0x1 PUSH1 0x1 PUSH1 0xA0 SHL SUB DUP4 AND PUSH1 0x0 SWAP1 DUP2 MSTORE PUSH1 0x3F PUSH1 0x20 SWAP1 DUP2 MSTORE PUSH1 0x40 DUP1 DUP4 KECCAK256 PUSH1 0x5A DUP4 MSTORE DUP2 DUP5 KECCAK256 PUSH1 0x7 DUP2 ADD SLOAD PUSH1 0x9 SWAP1 SWAP2 ADD SLOAD DUP4 MLOAD PUSH1 0x60 DUP2 ADD SWAP1 SWAP5 MSTORE PUSH1 0x33 DUP1 DUP6 MSTORE SWAP3 SWAP6 SWAP5 PUSH2 0x26F1 SWAP5 SWAP3 SWAP4 SWAP2 SWAP3 SWAP2 SWAP1 PUSH2 0x476A SWAP1 DUP4 ADD CODECOPY PUSH2 0x38B5 JUMP JUMPDEST SWAP1 POP PUSH1 0x0 PUSH2 0x271C DUP5 DUP5 PUSH1 0x7 ADD SLOAD PUSH1 0x40 MLOAD DUP1 PUSH1 0x60 ADD PUSH1 0x40 MSTORE DUP1 PUSH1 0x33 DUP2 MSTORE PUSH1 0x20 ADD PUSH2 0x4C36 PUSH1 0x33 SWAP2 CODECOPY PUSH2 0x2D7B JUMP JUMPDEST SWAP1 POP PUSH1 0x0 DUP2 GT DUP1 ISZERO PUSH2 0x272E JUMPI POP PUSH1 0x0 DUP3 GT JUMPDEST ISZERO PUSH2 0x288C JUMPI PUSH1 0x0 PUSH2 0x273F DUP3 DUP5 PUSH2 0x3913 JUMP JUMPDEST PUSH1 0x1 PUSH1 0x1 PUSH1 0xA0 SHL SUB DUP1 DUP10 AND PUSH1 0x0 SWAP1 DUP2 MSTORE PUSH1 0x3F PUSH1 0x20 SWAP1 DUP2 MSTORE PUSH1 0x40 DUP1 DUP4 KECCAK256 PUSH1 0x2 ADD SLOAD DUP2 MLOAD PUSH4 0x18160DDD PUSH1 0xE0 SHL DUP2 MSTORE SWAP2 MLOAD SWAP6 SWAP7 POP SWAP3 SWAP5 SWAP3 SWAP1 SWAP4 AND SWAP3 PUSH4 0x18160DDD SWAP3 PUSH1 0x4 DUP1 DUP4 ADD SWAP4 SWAP3 DUP3 SWAP1 SUB ADD DUP2 DUP7 DUP1 EXTCODESIZE ISZERO DUP1 ISZERO PUSH2 0x2798 JUMPI PUSH1 0x0 DUP1 REVERT JUMPDEST POP GAS STATICCALL ISZERO DUP1 ISZERO PUSH2 0x27AC JUMPI RETURNDATASIZE PUSH1 0x0 DUP1 RETURNDATACOPY RETURNDATASIZE PUSH1 0x0 REVERT JUMPDEST POP POP POP POP PUSH1 0x40 MLOAD RETURNDATASIZE PUSH1 0x20 DUP2 LT ISZERO PUSH2 0x27C2 JUMPI PUSH1 0x0 DUP1 REVERT JUMPDEST POP MLOAD SWAP1 POP PUSH2 0x27CE PUSH2 0x463B JUMP JUMPDEST PUSH1 0x0 DUP3 GT PUSH2 0x27EB JUMPI PUSH1 0x40 MLOAD DUP1 PUSH1 0x20 ADD PUSH1 0x40 MSTORE DUP1 PUSH1 0x0 DUP2 MSTORE POP PUSH2 0x27F5 JUMP JUMPDEST PUSH2 0x27F5 DUP4 DUP4 PUSH2 0x3955 JUMP JUMPDEST SWAP1 POP PUSH2 0x27FF PUSH2 0x463B JUMP JUMPDEST PUSH2 0x281B PUSH1 0x40 MLOAD DUP1 PUSH1 0x20 ADD PUSH1 0x40 MSTORE DUP1 DUP10 PUSH1 0x6 ADD SLOAD DUP2 MSTORE POP DUP4 PUSH2 0x3993 JUMP JUMPDEST DUP3 MLOAD DUP2 MLOAD PUSH1 0x40 DUP1 MLOAD PUSH1 0x1 PUSH1 0x1 PUSH1 0xA0 SHL SUB DUP16 AND DUP2 MSTORE PUSH1 0x20 DUP2 ADD DUP9 SWAP1 MSTORE DUP1 DUP3 ADD DUP10 SWAP1 MSTORE PUSH1 0x60 DUP2 ADD SWAP4 SWAP1 SWAP4 MSTORE PUSH1 0x80 DUP4 ADD SWAP2 SWAP1 SWAP2 MSTORE PUSH1 0xA0 DUP3 ADD DUP12 SWAP1 MSTORE MLOAD SWAP2 SWAP3 POP PUSH32 0x125A275B17A028107FB8EA33EAB77A419FE44C0237A8F4EC5A20E536529B3C62 SWAP2 SWAP1 DUP2 SWAP1 SUB PUSH1 0xC0 ADD SWAP1 LOG1 MLOAD PUSH1 0x6 DUP8 ADD SSTORE POP POP POP JUMPDEST POP POP PUSH1 0x7 ADD SSTORE POP PUSH1 0x1 SWAP2 SWAP1 POP JUMP JUMPDEST PUSH1 0x0 PUSH2 0x28D4 DUP4 DUP4 PUSH1 0x40 MLOAD DUP1 PUSH1 0x40 ADD PUSH1 0x40 MSTORE DUP1 PUSH1 0x15 DUP2 MSTORE PUSH1 0x20 ADD PUSH21 0x7375627472616374696F6E20756E646572666C6F77 PUSH1 0x58 SHL DUP2 MSTORE POP PUSH2 0x2D7B JUMP JUMPDEST SWAP4 SWAP3 POP POP POP JUMP JUMPDEST PUSH1 0x0 DUP1 PUSH2 0x28E6 PUSH2 0x1054 JUMP JUMPDEST PUSH1 0x1 PUSH1 0x1 PUSH1 0xA0 SHL SUB DUP5 AND PUSH1 0x0 SWAP1 DUP2 MSTORE PUSH1 0x3F PUSH1 0x20 MSTORE PUSH1 0x40 SWAP1 KECCAK256 PUSH1 0x9 ADD SLOAD PUSH4 0xFFFFFFFF SWAP2 SWAP1 SWAP2 AND SWAP2 POP DUP2 EQ ISZERO PUSH2 0x291E JUMPI PUSH1 0x1 SWAP2 POP POP PUSH2 0xA68 JUMP JUMPDEST PUSH1 0x1 PUSH1 0x1 PUSH1 0xA0 SHL SUB DUP4 AND PUSH1 0x0 SWAP1 DUP2 MSTORE PUSH1 0x3F PUSH1 0x20 SWAP1 DUP2 MSTORE PUSH1 0x40 DUP1 DUP4 KECCAK256 PUSH1 0x5A DUP4 MSTORE DUP2 DUP5 KECCAK256 PUSH1 0x8 DUP2 ADD SLOAD PUSH1 0x9 SWAP1 SWAP2 ADD SLOAD DUP4 MLOAD PUSH1 0x60 DUP2 ADD SWAP1 SWAP5 MSTORE PUSH1 0x33 DUP1 DUP6 MSTORE SWAP3 SWAP6 SWAP5 PUSH2 0x2972 SWAP5 SWAP3 SWAP4 SWAP2 SWAP3 SWAP2 SWAP1 PUSH2 0x476A SWAP1 DUP4 ADD CODECOPY PUSH2 0x38B5 JUMP JUMPDEST SWAP1 POP PUSH1 0x0 PUSH2 0x299D DUP5 DUP5 PUSH1 0x9 ADD SLOAD PUSH1 0x40 MLOAD DUP1 PUSH1 0x60 ADD PUSH1 0x40 MSTORE DUP1 PUSH1 0x33 DUP2 MSTORE PUSH1 0x20 ADD PUSH2 0x4A3E PUSH1 0x33 SWAP2 CODECOPY PUSH2 0x2D7B JUMP JUMPDEST PUSH1 0x37 SLOAD PUSH1 0x40 DUP1 MLOAD PUSH4 0x358B080B PUSH1 0xE2 SHL DUP2 MSTORE PUSH1 0x1 PUSH1 0x1 PUSH1 0xA0 SHL SUB DUP11 DUP2 AND PUSH1 0x4 DUP4 ADD MSTORE SWAP2 MLOAD SWAP4 SWAP5 POP PUSH1 0x0 SWAP4 SWAP2 SWAP1 SWAP3 AND SWAP2 PUSH4 0xD62C202C SWAP2 PUSH1 0x24 DUP1 DUP4 ADD SWAP3 PUSH1 0x20 SWAP3 SWAP2 SWAP1 DUP3 SWAP1 SUB ADD DUP2 DUP7 DUP1 EXTCODESIZE ISZERO DUP1 ISZERO PUSH2 0x29F0 JUMPI PUSH1 0x0 DUP1 REVERT JUMPDEST POP GAS STATICCALL ISZERO DUP1 ISZERO PUSH2 0x2A04 JUMPI RETURNDATASIZE PUSH1 0x0 DUP1 RETURNDATACOPY RETURNDATASIZE PUSH1 0x0 REVERT JUMPDEST POP POP POP POP PUSH1 0x40 MLOAD RETURNDATASIZE PUSH1 0x20 DUP2 LT ISZERO PUSH2 0x2A1A JUMPI PUSH1 0x0 DUP1 REVERT JUMPDEST POP MLOAD PUSH1 0x37 SLOAD PUSH1 0x40 DUP1 MLOAD PUSH4 0x2C8DCF3F PUSH1 0xE0 SHL DUP2 MSTORE PUSH1 0x1 PUSH1 0x1 PUSH1 0xA0 SHL SUB DUP12 DUP2 AND PUSH1 0x4 DUP4 ADD MSTORE SWAP2 MLOAD SWAP4 SWAP5 POP PUSH1 0x0 SWAP4 SWAP2 SWAP1 SWAP3 AND SWAP2 PUSH4 0x2C8DCF3F SWAP2 PUSH1 0x24 DUP1 DUP4 ADD SWAP3 PUSH1 0x20 SWAP3 SWAP2 SWAP1 DUP3 SWAP1 SUB ADD DUP2 DUP7 DUP1 EXTCODESIZE ISZERO DUP1 ISZERO PUSH2 0x2A6F JUMPI PUSH1 0x0 DUP1 REVERT JUMPDEST POP GAS STATICCALL ISZERO DUP1 ISZERO PUSH2 0x2A83 JUMPI RETURNDATASIZE PUSH1 0x0 DUP1 RETURNDATACOPY RETURNDATASIZE PUSH1 0x0 REVERT JUMPDEST POP POP POP POP PUSH1 0x40 MLOAD RETURNDATASIZE PUSH1 0x20 DUP2 LT ISZERO PUSH2 0x2A99 JUMPI PUSH1 0x0 DUP1 REVERT JUMPDEST POP MLOAD PUSH1 0x40 DUP1 MLOAD PUSH1 0x60 DUP2 ADD SWAP1 SWAP2 MSTORE PUSH1 0x26 DUP1 DUP3 MSTORE SWAP2 SWAP3 POP PUSH1 0x0 SWAP2 PUSH2 0x2AC7 SWAP2 DUP6 SWAP2 DUP6 SWAP2 SWAP1 PUSH2 0x4A71 PUSH1 0x20 DUP4 ADD CODECOPY PUSH2 0x38B5 JUMP JUMPDEST SWAP1 POP PUSH1 0x0 DUP5 GT DUP1 ISZERO PUSH2 0x2AD9 JUMPI POP PUSH1 0x0 DUP6 GT JUMPDEST ISZERO PUSH2 0x2BC5 JUMPI PUSH1 0x0 PUSH2 0x2AEA DUP6 DUP8 PUSH2 0x3913 JUMP JUMPDEST SWAP1 POP PUSH2 0x2AF4 PUSH2 0x463B JUMP JUMPDEST PUSH1 0x0 DUP4 GT PUSH2 0x2B11 JUMPI PUSH1 0x40 MLOAD DUP1 PUSH1 0x20 ADD PUSH1 0x40 MSTORE DUP1 PUSH1 0x0 DUP2 MSTORE POP PUSH2 0x2B1B JUMP JUMPDEST PUSH2 0x2B1B DUP3 DUP5 PUSH2 0x3955 JUMP JUMPDEST SWAP1 POP PUSH2 0x2B25 PUSH2 0x463B JUMP JUMPDEST PUSH2 0x2B41 PUSH1 0x40 MLOAD DUP1 PUSH1 0x20 ADD PUSH1 0x40 MSTORE DUP1 DUP12 PUSH1 0x8 ADD SLOAD DUP2 MSTORE POP DUP4 PUSH2 0x3993 JUMP JUMPDEST SWAP1 POP PUSH32 0x1ABB946BA6C022FCF874811B294895F1634872403A0B573600AE4B8F12C2BD60 DUP13 DUP7 DUP9 DUP7 DUP7 PUSH1 0x0 ADD MLOAD DUP7 PUSH1 0x0 ADD MLOAD PUSH1 0x40 MLOAD DUP1 DUP8 PUSH1 0x1 PUSH1 0x1 PUSH1 0xA0 SHL SUB AND PUSH1 0x1 PUSH1 0x1 PUSH1 0xA0 SHL SUB AND DUP2 MSTORE PUSH1 0x20 ADD DUP7 DUP2 MSTORE PUSH1 0x20 ADD DUP6 DUP2 MSTORE PUSH1 0x20 ADD DUP5 DUP2 MSTORE PUSH1 0x20 ADD DUP4 DUP2 MSTORE PUSH1 0x20 ADD DUP3 DUP2 MSTORE PUSH1 0x20 ADD SWAP7 POP POP POP POP POP POP POP PUSH1 0x40 MLOAD DUP1 SWAP2 SUB SWAP1 LOG1 MLOAD PUSH1 0x8 DUP10 ADD SSTORE POP POP JUMPDEST POP POP POP POP POP PUSH1 0x9 ADD SSTORE POP PUSH1 0x1 SWAP2 SWAP1 POP JUMP JUMPDEST PUSH1 0x34 PUSH1 0x0 SWAP1 SLOAD SWAP1 PUSH2 0x100 EXP SWAP1 DIV PUSH1 0x1 PUSH1 0x1 PUSH1 0xA0 SHL SUB AND PUSH1 0x1 PUSH1 0x1 PUSH1 0xA0 SHL SUB AND PUSH4 0x841AA40C PUSH1 0x40 MLOAD DUP2 PUSH4 0xFFFFFFFF AND PUSH1 0xE0 SHL DUP2 MSTORE PUSH1 0x4 ADD PUSH1 0x20 PUSH1 0x40 MLOAD DUP1 DUP4 SUB DUP2 DUP7 DUP1 EXTCODESIZE ISZERO DUP1 ISZERO PUSH2 0x2C24 JUMPI PUSH1 0x0 DUP1 REVERT JUMPDEST POP GAS STATICCALL ISZERO DUP1 ISZERO PUSH2 0x2C38 JUMPI RETURNDATASIZE PUSH1 0x0 DUP1 RETURNDATACOPY RETURNDATASIZE PUSH1 0x0 REVERT JUMPDEST POP POP POP POP PUSH1 0x40 MLOAD RETURNDATASIZE PUSH1 0x20 DUP2 LT ISZERO PUSH2 0x2C4E JUMPI PUSH1 0x0 DUP1 REVERT JUMPDEST POP MLOAD PUSH1 0x35 DUP1 SLOAD PUSH1 0x1 PUSH1 0x1 PUSH1 0xA0 SHL SUB NOT AND PUSH1 0x1 PUSH1 0x1 PUSH1 0xA0 SHL SUB SWAP3 DUP4 AND OR SWAP1 SSTORE PUSH1 0x34 SLOAD PUSH1 0x40 DUP1 MLOAD PUSH4 0x1F94A275 PUSH1 0xE3 SHL DUP2 MSTORE SWAP1 MLOAD SWAP2 SWAP1 SWAP3 AND SWAP2 PUSH4 0xFCA513A8 SWAP2 PUSH1 0x4 DUP1 DUP4 ADD SWAP3 PUSH1 0x20 SWAP3 SWAP2 SWAP1 DUP3 SWAP1 SUB ADD DUP2 DUP7 DUP1 EXTCODESIZE ISZERO DUP1 ISZERO PUSH2 0x2CA9 JUMPI PUSH1 0x0 DUP1 REVERT JUMPDEST POP GAS STATICCALL ISZERO DUP1 ISZERO PUSH2 0x2CBD JUMPI RETURNDATASIZE PUSH1 0x0 DUP1 RETURNDATACOPY RETURNDATASIZE PUSH1 0x0 REVERT JUMPDEST POP POP POP POP PUSH1 0x40 MLOAD RETURNDATASIZE PUSH1 0x20 DUP2 LT ISZERO PUSH2 0x2CD3 JUMPI PUSH1 0x0 DUP1 REVERT JUMPDEST POP MLOAD PUSH1 0x36 DUP1 SLOAD PUSH1 0x1 PUSH1 0x1 PUSH1 0xA0 SHL SUB NOT AND PUSH1 0x1 PUSH1 0x1 PUSH1 0xA0 SHL SUB SWAP3 DUP4 AND OR SWAP1 SSTORE PUSH1 0x34 SLOAD PUSH1 0x40 DUP1 MLOAD PUSH4 0x76B7FBB PUSH1 0xE5 SHL DUP2 MSTORE SWAP1 MLOAD SWAP2 SWAP1 SWAP3 AND SWAP2 PUSH4 0xED6FF760 SWAP2 PUSH1 0x4 DUP1 DUP4 ADD SWAP3 PUSH1 0x20 SWAP3 SWAP2 SWAP1 DUP3 SWAP1 SUB ADD DUP2 DUP7 DUP1 EXTCODESIZE ISZERO DUP1 ISZERO PUSH2 0x2D2E JUMPI PUSH1 0x0 DUP1 REVERT JUMPDEST POP GAS STATICCALL ISZERO DUP1 ISZERO PUSH2 0x2D42 JUMPI RETURNDATASIZE PUSH1 0x0 DUP1 RETURNDATACOPY RETURNDATASIZE PUSH1 0x0 REVERT JUMPDEST POP POP POP POP PUSH1 0x40 MLOAD RETURNDATASIZE PUSH1 0x20 DUP2 LT ISZERO PUSH2 0x2D58 JUMPI PUSH1 0x0 DUP1 REVERT JUMPDEST POP MLOAD PUSH1 0x37 DUP1 SLOAD PUSH1 0x1 PUSH1 0x1 PUSH1 0xA0 SHL SUB NOT AND PUSH1 0x1 PUSH1 0x1 PUSH1 0xA0 SHL SUB SWAP1 SWAP3 AND SWAP2 SWAP1 SWAP2 OR SWAP1 SSTORE JUMP JUMPDEST PUSH1 0x0 DUP2 DUP5 DUP5 GT ISZERO PUSH2 0x2E0A JUMPI PUSH1 0x40 MLOAD PUSH3 0x461BCD PUSH1 0xE5 SHL DUP2 MSTORE PUSH1 0x4 ADD DUP1 DUP1 PUSH1 0x20 ADD DUP3 DUP2 SUB DUP3 MSTORE DUP4 DUP2 DUP2 MLOAD DUP2 MSTORE PUSH1 0x20 ADD SWAP2 POP DUP1 MLOAD SWAP1 PUSH1 0x20 ADD SWAP1 DUP1 DUP4 DUP4 PUSH1 0x0 JUMPDEST DUP4 DUP2 LT ISZERO PUSH2 0x2DCF JUMPI DUP2 DUP2 ADD MLOAD DUP4 DUP3 ADD MSTORE PUSH1 0x20 ADD PUSH2 0x2DB7 JUMP JUMPDEST POP POP POP POP SWAP1 POP SWAP1 DUP2 ADD SWAP1 PUSH1 0x1F AND DUP1 ISZERO PUSH2 0x2DFC JUMPI DUP1 DUP3 SUB DUP1 MLOAD PUSH1 0x1 DUP4 PUSH1 0x20 SUB PUSH2 0x100 EXP SUB NOT AND DUP2 MSTORE PUSH1 0x20 ADD SWAP2 POP JUMPDEST POP SWAP3 POP POP POP PUSH1 0x40 MLOAD DUP1 SWAP2 SUB SWAP1 REVERT JUMPDEST POP POP POP SWAP1 SUB SWAP1 JUMP JUMPDEST PUSH1 0x60 PUSH1 0x3E DUP1 SLOAD DUP1 PUSH1 0x20 MUL PUSH1 0x20 ADD PUSH1 0x40 MLOAD SWAP1 DUP2 ADD PUSH1 0x40 MSTORE DUP1 SWAP3 SWAP2 SWAP1 DUP2 DUP2 MSTORE PUSH1 0x20 ADD DUP3 DUP1 SLOAD DUP1 ISZERO PUSH2 0x2E6A JUMPI PUSH1 0x20 MUL DUP3 ADD SWAP2 SWAP1 PUSH1 0x0 MSTORE PUSH1 0x20 PUSH1 0x0 KECCAK256 SWAP1 JUMPDEST DUP2 SLOAD PUSH1 0x1 PUSH1 0x1 PUSH1 0xA0 SHL SUB AND DUP2 MSTORE PUSH1 0x1 SWAP1 SWAP2 ADD SWAP1 PUSH1 0x20 ADD DUP1 DUP4 GT PUSH2 0x2E4C JUMPI JUMPDEST POP POP PUSH1 0x59 SLOAD SWAP4 SWAP5 POP PUSH1 0x0 SWAP4 PUSH2 0x2EB4 SWAP4 POP NUMBER SWAP3 POP PUSH1 0x41 SWAP2 POP PUSH1 0x1 PUSH1 0x1 PUSH1 0xE0 SHL SUB AND PUSH1 0x18 DUP2 LT PUSH2 0x2E94 JUMPI INVALID JUMPDEST ADD SLOAD PUSH1 0x40 MLOAD DUP1 PUSH1 0x60 ADD PUSH1 0x40 MSTORE DUP1 PUSH1 0x21 DUP2 MSTORE PUSH1 0x20 ADD PUSH2 0x49F0 PUSH1 0x21 SWAP2 CODECOPY PUSH2 0x2D7B JUMP JUMPDEST PUSH1 0x59 SLOAD SWAP1 SWAP2 POP NUMBER SWAP1 PUSH1 0x41 SWAP1 PUSH1 0x1 PUSH1 0x1 PUSH1 0xE0 SHL SUB AND PUSH1 0x18 DUP2 LT PUSH2 0x2ED2 JUMPI INVALID JUMPDEST ADD SSTORE PUSH2 0x2EDC PUSH2 0x2601 JUMP JUMPDEST PUSH2 0x2F17 JUMPI PUSH1 0x40 MLOAD PUSH3 0x461BCD PUSH1 0xE5 SHL DUP2 MSTORE PUSH1 0x4 ADD DUP1 DUP1 PUSH1 0x20 ADD DUP3 DUP2 SUB DUP3 MSTORE PUSH1 0x22 DUP2 MSTORE PUSH1 0x20 ADD DUP1 PUSH2 0x4A97 PUSH1 0x22 SWAP2 CODECOPY PUSH1 0x40 ADD SWAP2 POP POP PUSH1 0x40 MLOAD DUP1 SWAP2 SUB SWAP1 REVERT JUMPDEST PUSH2 0x2F1F PUSH2 0x463B JUMP JUMPDEST POP PUSH1 0x40 DUP1 MLOAD PUSH1 0x20 DUP2 ADD SWAP1 SWAP2 MSTORE PUSH1 0x0 DUP2 MSTORE PUSH2 0x2F37 PUSH2 0x463B JUMP JUMPDEST POP PUSH1 0x40 DUP1 MLOAD PUSH1 0x20 DUP2 ADD SWAP1 SWAP2 MSTORE PUSH1 0x0 DUP1 DUP3 MSTORE JUMPDEST DUP5 MLOAD DUP2 LT ISZERO PUSH2 0x37EA JUMPI PUSH1 0x0 DUP6 DUP3 DUP2 MLOAD DUP2 LT PUSH2 0x2F60 JUMPI INVALID JUMPDEST PUSH1 0x20 MUL PUSH1 0x20 ADD ADD MLOAD SWAP1 POP PUSH2 0x2F72 PUSH2 0x463B JUMP JUMPDEST PUSH1 0x40 DUP1 MLOAD PUSH1 0x20 DUP1 DUP3 ADD DUP4 MSTORE PUSH1 0x1 PUSH1 0x1 PUSH1 0xA0 SHL SUB DUP6 AND PUSH1 0x0 SWAP1 DUP2 MSTORE SWAP1 DUP4 SWAP1 MSTORE SWAP2 SWAP1 SWAP2 KECCAK256 PUSH1 0x59 SLOAD DUP3 SWAP2 SWAP1 PUSH1 0x1 PUSH1 0x1 PUSH1 0xE0 SHL SUB AND PUSH1 0x18 DUP2 LT PUSH2 0x2FAD JUMPI INVALID JUMPDEST ADD SLOAD SWAP1 MSTORE SWAP1 POP PUSH2 0x2FBB PUSH2 0x463B JUMP JUMPDEST PUSH1 0x40 DUP1 MLOAD PUSH1 0x20 DUP1 DUP3 ADD DUP1 DUP5 MSTORE PUSH1 0x36 SLOAD PUSH4 0xB3596F07 PUSH1 0xE0 SHL SWAP1 SWAP2 MSTORE PUSH1 0x1 PUSH1 0x1 PUSH1 0xA0 SHL SUB DUP8 DUP2 AND PUSH1 0x24 DUP6 ADD MSTORE SWAP4 MLOAD SWAP3 SWAP4 DUP5 SWAP4 SWAP2 AND SWAP2 PUSH4 0xB3596F07 SWAP2 PUSH1 0x44 DUP1 DUP7 ADD SWAP3 SWAP2 SWAP1 DUP2 DUP8 SUB ADD DUP2 DUP7 DUP1 EXTCODESIZE ISZERO DUP1 ISZERO PUSH2 0x3010 JUMPI PUSH1 0x0 DUP1 REVERT JUMPDEST POP GAS STATICCALL ISZERO DUP1 ISZERO PUSH2 0x3024 JUMPI RETURNDATASIZE PUSH1 0x0 DUP1 RETURNDATACOPY RETURNDATASIZE PUSH1 0x0 REVERT JUMPDEST POP POP POP POP PUSH1 0x40 MLOAD RETURNDATASIZE PUSH1 0x20 DUP2 LT ISZERO PUSH2 0x303A JUMPI PUSH1 0x0 DUP1 REVERT JUMPDEST POP MLOAD SWAP1 MSTORE DUP1 MLOAD SWAP1 SWAP2 POP PUSH2 0x307E JUMPI PUSH1 0x40 MLOAD PUSH3 0x461BCD PUSH1 0xE5 SHL DUP2 MSTORE PUSH1 0x4 ADD DUP1 DUP1 PUSH1 0x20 ADD DUP3 DUP2 SUB DUP3 MSTORE PUSH1 0x39 DUP2 MSTORE PUSH1 0x20 ADD DUP1 PUSH2 0x48C6 PUSH1 0x39 SWAP2 CODECOPY PUSH1 0x40 ADD SWAP2 POP POP PUSH1 0x40 MLOAD DUP1 SWAP2 SUB SWAP1 REVERT JUMPDEST DUP1 MLOAD PUSH1 0x1 PUSH1 0x1 PUSH1 0xA0 SHL SUB DUP5 AND PUSH1 0x0 SWAP1 DUP2 MSTORE PUSH1 0x40 PUSH1 0x20 DUP2 SWAP1 MSTORE SWAP1 KECCAK256 PUSH1 0x59 SLOAD PUSH1 0x1 PUSH1 0x1 PUSH1 0xE0 SHL SUB AND PUSH1 0x18 DUP2 LT PUSH2 0x30AE JUMPI INVALID JUMPDEST ADD SSTORE DUP2 MLOAD PUSH1 0x1 PUSH1 0x1 PUSH1 0xA0 SHL SUB DUP5 AND PUSH1 0x0 SWAP1 DUP2 MSTORE PUSH1 0x40 PUSH1 0x20 DUP2 SWAP1 MSTORE SWAP1 KECCAK256 PUSH1 0x59 SLOAD PUSH32 0xFB7039F84D4FE0388609065A7EDAAF1A5E50AFFBBB1C2FD19818DE856E82ECB4 SWAP3 DUP7 SWAP3 SWAP1 SWAP2 PUSH1 0x1 PUSH1 0x1 PUSH1 0xE0 SHL SUB AND PUSH1 0x18 DUP2 LT PUSH2 0x3106 JUMPI INVALID JUMPDEST ADD SLOAD PUSH1 0x59 SLOAD PUSH1 0x40 DUP1 MLOAD PUSH1 0x1 PUSH1 0x1 PUSH1 0xA0 SHL SUB SWAP1 SWAP6 AND DUP6 MSTORE PUSH1 0x20 DUP6 ADD SWAP4 SWAP1 SWAP4 MSTORE DUP4 DUP4 ADD SWAP2 SWAP1 SWAP2 MSTORE PUSH1 0x60 DUP4 ADD DUP12 SWAP1 MSTORE PUSH1 0x1 PUSH1 0x1 PUSH1 0xE0 SHL SUB AND PUSH1 0x80 DUP4 ADD MSTORE MLOAD SWAP1 DUP2 SWAP1 SUB PUSH1 0xA0 ADD SWAP1 LOG1 PUSH1 0x1 PUSH1 0x1 PUSH1 0xA0 SHL SUB DUP4 AND PUSH1 0x0 SWAP1 DUP2 MSTORE PUSH1 0x3F PUSH1 0x20 MSTORE PUSH1 0x40 SWAP1 KECCAK256 PUSH1 0x5 ADD SLOAD PUSH1 0xFF AND ISZERO DUP1 PUSH2 0x3197 JUMPI POP PUSH1 0x1 PUSH1 0x1 PUSH1 0xA0 SHL SUB DUP4 AND PUSH1 0x0 SWAP1 DUP2 MSTORE PUSH1 0x40 PUSH1 0x20 DUP2 SWAP1 MSTORE SWAP1 KECCAK256 PUSH1 0x18 SWAP1 DUP2 ADD SLOAD PUSH4 0xFFFFFFFF AND EQ ISZERO JUMPDEST ISZERO PUSH2 0x3282 JUMPI PUSH1 0x1 PUSH1 0x1 PUSH1 0xA0 SHL SUB DUP4 AND PUSH1 0x0 SWAP1 DUP2 MSTORE PUSH1 0x5A PUSH1 0x20 SWAP1 DUP2 MSTORE PUSH1 0x40 DUP1 DUP4 KECCAK256 DUP1 SLOAD PUSH1 0xFF NOT AND DUP2 SSTORE PUSH1 0x3 DUP2 ADD DUP5 SWAP1 SSTORE PUSH1 0x4 ADD DUP4 SWAP1 SSTORE SWAP1 DUP2 SWAP1 MSTORE SWAP1 KECCAK256 PUSH1 0x18 SWAP1 DUP2 ADD SLOAD PUSH4 0xFFFFFFFF AND LT ISZERO PUSH2 0x327D JUMPI PUSH1 0x1 PUSH1 0x1 PUSH1 0xA0 SHL SUB DUP4 AND PUSH1 0x0 SWAP1 DUP2 MSTORE PUSH1 0x40 PUSH1 0x20 DUP2 DUP2 MSTORE SWAP2 DUP2 SWAP1 KECCAK256 PUSH1 0x18 ADD SLOAD DUP2 MLOAD DUP1 DUP4 ADD SWAP1 SWAP3 MSTORE PUSH1 0x1E DUP3 MSTORE PUSH32 0x507269636520436F756E746572206164646974696F6E206661696C65642E0000 SWAP3 DUP3 ADD SWAP3 SWAP1 SWAP3 MSTORE PUSH2 0x3249 SWAP2 PUSH4 0xFFFFFFFF AND SWAP1 PUSH1 0x1 SWAP1 PUSH2 0x38B5 JUMP JUMPDEST PUSH1 0x1 PUSH1 0x1 PUSH1 0xA0 SHL SUB DUP5 AND PUSH1 0x0 SWAP1 DUP2 MSTORE PUSH1 0x40 PUSH1 0x20 DUP2 SWAP1 MSTORE SWAP1 KECCAK256 PUSH1 0x18 ADD DUP1 SLOAD PUSH4 0xFFFFFFFF NOT AND PUSH4 0xFFFFFFFF SWAP3 SWAP1 SWAP3 AND SWAP2 SWAP1 SWAP2 OR SWAP1 SSTORE JUMPDEST PUSH2 0x3780 JUMP JUMPDEST PUSH1 0x0 PUSH2 0x328C PUSH2 0x463B JUMP JUMPDEST POP PUSH1 0x40 DUP1 MLOAD PUSH1 0x20 DUP2 ADD SWAP1 SWAP2 MSTORE PUSH1 0x0 DUP2 MSTORE PUSH2 0x32A4 PUSH2 0x463B JUMP JUMPDEST POP PUSH1 0x40 DUP1 MLOAD PUSH1 0x20 DUP2 ADD SWAP1 SWAP2 MSTORE PUSH1 0x0 DUP2 MSTORE PUSH2 0x32BC PUSH2 0x463B JUMP JUMPDEST POP PUSH1 0x40 DUP1 MLOAD PUSH1 0x20 DUP2 ADD SWAP1 SWAP2 MSTORE PUSH1 0x0 DUP2 MSTORE PUSH2 0x32D6 DUP7 DUP7 PUSH2 0x39B8 JUMP JUMPDEST ISZERO PUSH2 0x348C JUMPI PUSH1 0x1 PUSH1 0x1 PUSH1 0xA0 SHL SUB DUP1 DUP9 AND PUSH1 0x0 SWAP1 DUP2 MSTORE PUSH1 0x3F PUSH1 0x20 SWAP1 DUP2 MSTORE PUSH1 0x40 DUP1 DUP4 KECCAK256 PUSH1 0x2 ADD SLOAD DUP2 MLOAD PUSH4 0x18160DDD PUSH1 0xE0 SHL DUP2 MSTORE SWAP2 MLOAD SWAP4 SWAP5 AND SWAP3 PUSH4 0x18160DDD SWAP3 PUSH1 0x4 DUP1 DUP5 ADD SWAP4 SWAP2 SWAP3 SWAP2 DUP3 SWAP1 SUB ADD DUP2 DUP7 DUP1 EXTCODESIZE ISZERO DUP1 ISZERO PUSH2 0x3330 JUMPI PUSH1 0x0 DUP1 REVERT JUMPDEST POP GAS STATICCALL ISZERO DUP1 ISZERO PUSH2 0x3344 JUMPI RETURNDATASIZE PUSH1 0x0 DUP1 RETURNDATACOPY RETURNDATASIZE PUSH1 0x0 REVERT JUMPDEST POP POP POP POP PUSH1 0x40 MLOAD RETURNDATASIZE PUSH1 0x20 DUP2 LT ISZERO PUSH2 0x335A JUMPI PUSH1 0x0 DUP1 REVERT JUMPDEST POP MLOAD SWAP1 POP PUSH2 0x3368 DUP8 DUP8 PUSH2 0x39BF JUMP JUMPDEST SWAP1 SWAP6 POP SWAP3 POP PUSH2 0x3377 DUP4 DUP3 PUSH2 0x39FB JUMP JUMPDEST PUSH1 0x40 DUP1 MLOAD PUSH1 0x20 DUP1 DUP3 ADD DUP4 MSTORE PUSH1 0x1 PUSH1 0x1 PUSH1 0xA0 SHL SUB DUP1 DUP15 AND PUSH1 0x0 DUP2 DUP2 MSTORE PUSH1 0x5A DUP5 MSTORE DUP6 DUP2 KECCAK256 PUSH1 0x1 ADD SLOAD DUP6 MSTORE DUP7 MLOAD DUP3 DUP3 MSTORE PUSH1 0x3F DUP6 MSTORE SWAP1 DUP7 SWAP1 KECCAK256 PUSH1 0x4 SWAP1 DUP2 ADD SLOAD PUSH1 0x36 SLOAD DUP9 MLOAD PUSH4 0xA9EC70D1 PUSH1 0xE0 SHL DUP2 MSTORE SWAP3 DUP4 ADD SWAP5 SWAP1 SWAP5 MSTORE SWAP7 MLOAD SWAP9 SWAP14 POP SWAP7 SWAP12 POP SWAP4 SWAP9 POP PUSH2 0x3433 SWAP7 SWAP4 SWAP6 SWAP2 AND SWAP3 PUSH4 0xA9EC70D1 SWAP3 PUSH1 0x24 DUP1 DUP5 ADD SWAP4 SWAP2 SWAP3 SWAP2 DUP3 SWAP1 SUB ADD DUP2 DUP7 DUP1 EXTCODESIZE ISZERO DUP1 ISZERO PUSH2 0x33FF JUMPI PUSH1 0x0 DUP1 REVERT JUMPDEST POP GAS STATICCALL ISZERO DUP1 ISZERO PUSH2 0x3413 JUMPI RETURNDATASIZE PUSH1 0x0 DUP1 RETURNDATACOPY RETURNDATASIZE PUSH1 0x0 REVERT JUMPDEST POP POP POP POP PUSH1 0x40 MLOAD RETURNDATASIZE PUSH1 0x20 DUP2 LT ISZERO PUSH2 0x3429 JUMPI PUSH1 0x0 DUP1 REVERT JUMPDEST POP MLOAD PUSH1 0xFF AND PUSH2 0x3A63 JUMP JUMPDEST PUSH1 0x1 PUSH1 0x1 PUSH1 0xA0 SHL SUB DUP10 AND PUSH1 0x0 SWAP1 DUP2 MSTORE PUSH1 0x5A PUSH1 0x20 MSTORE PUSH1 0x40 SWAP1 KECCAK256 PUSH1 0x3 ADD DUP2 SWAP1 SSTORE PUSH2 0x345B SWAP1 DUP4 PUSH2 0x3B6E JUMP JUMPDEST PUSH1 0x1 PUSH1 0x1 PUSH1 0xA0 SHL SUB DUP10 AND PUSH1 0x0 SWAP1 DUP2 MSTORE PUSH1 0x5A PUSH1 0x20 MSTORE PUSH1 0x40 SWAP1 KECCAK256 PUSH1 0x4 DUP2 ADD SWAP2 SWAP1 SWAP2 SSTORE DUP1 SLOAD PUSH1 0xFF NOT AND PUSH1 0x1 OR SWAP1 SSTORE POP PUSH2 0x3703 JUMP JUMPDEST PUSH1 0x37 SLOAD PUSH1 0x40 DUP1 MLOAD PUSH4 0x358B080B PUSH1 0xE2 SHL DUP2 MSTORE PUSH1 0x1 PUSH1 0x1 PUSH1 0xA0 SHL SUB DUP11 DUP2 AND PUSH1 0x4 DUP4 ADD MSTORE SWAP2 MLOAD PUSH1 0x0 SWAP4 SWAP3 SWAP1 SWAP3 AND SWAP2 PUSH4 0xD62C202C SWAP2 PUSH1 0x24 DUP1 DUP3 ADD SWAP3 PUSH1 0x20 SWAP3 SWAP1 SWAP2 SWAP1 DUP3 SWAP1 SUB ADD DUP2 DUP7 DUP1 EXTCODESIZE ISZERO DUP1 ISZERO PUSH2 0x34DD JUMPI PUSH1 0x0 DUP1 REVERT JUMPDEST POP GAS STATICCALL ISZERO DUP1 ISZERO PUSH2 0x34F1 JUMPI RETURNDATASIZE PUSH1 0x0 DUP1 RETURNDATACOPY RETURNDATASIZE PUSH1 0x0 REVERT JUMPDEST POP POP POP POP PUSH1 0x40 MLOAD RETURNDATASIZE PUSH1 0x20 DUP2 LT ISZERO PUSH2 0x3507 JUMPI PUSH1 0x0 DUP1 REVERT JUMPDEST POP MLOAD PUSH1 0x37 SLOAD PUSH1 0x40 DUP1 MLOAD PUSH4 0x2C8DCF3F PUSH1 0xE0 SHL DUP2 MSTORE PUSH1 0x1 PUSH1 0x1 PUSH1 0xA0 SHL SUB DUP13 DUP2 AND PUSH1 0x4 DUP4 ADD MSTORE SWAP2 MLOAD SWAP4 SWAP5 POP PUSH1 0x0 SWAP4 SWAP2 SWAP1 SWAP3 AND SWAP2 PUSH4 0x2C8DCF3F SWAP2 PUSH1 0x24 DUP1 DUP4 ADD SWAP3 PUSH1 0x20 SWAP3 SWAP2 SWAP1 DUP3 SWAP1 SUB ADD DUP2 DUP7 DUP1 EXTCODESIZE ISZERO DUP1 ISZERO PUSH2 0x355C JUMPI PUSH1 0x0 DUP1 REVERT JUMPDEST POP GAS STATICCALL ISZERO DUP1 ISZERO PUSH2 0x3570 JUMPI RETURNDATASIZE PUSH1 0x0 DUP1 RETURNDATACOPY RETURNDATASIZE PUSH1 0x0 REVERT JUMPDEST POP POP POP POP PUSH1 0x40 MLOAD RETURNDATASIZE PUSH1 0x20 DUP2 LT ISZERO PUSH2 0x3586 JUMPI PUSH1 0x0 DUP1 REVERT JUMPDEST POP MLOAD PUSH1 0x40 DUP1 MLOAD PUSH1 0x60 DUP2 ADD SWAP1 SWAP2 MSTORE PUSH1 0x26 DUP1 DUP3 MSTORE SWAP2 SWAP3 POP PUSH1 0x0 SWAP2 PUSH2 0x35B4 SWAP2 DUP6 SWAP2 DUP6 SWAP2 SWAP1 PUSH2 0x4A71 PUSH1 0x20 DUP4 ADD CODECOPY PUSH2 0x38B5 JUMP JUMPDEST SWAP1 POP PUSH2 0x35C0 DUP9 DUP11 PUSH2 0x39BF JUMP JUMPDEST SWAP1 SWAP8 POP SWAP5 POP PUSH2 0x35CF DUP6 DUP3 PUSH2 0x39FB JUMP JUMPDEST DUP1 SWAP8 POP DUP2 SWAP9 POP POP POP PUSH1 0x40 MLOAD DUP1 PUSH1 0x20 ADD PUSH1 0x40 MSTORE DUP1 PUSH1 0x5A PUSH1 0x0 DUP14 PUSH1 0x1 PUSH1 0x1 PUSH1 0xA0 SHL SUB AND PUSH1 0x1 PUSH1 0x1 PUSH1 0xA0 SHL SUB AND DUP2 MSTORE PUSH1 0x20 ADD SWAP1 DUP2 MSTORE PUSH1 0x20 ADD PUSH1 0x0 KECCAK256 PUSH1 0x2 ADD SLOAD DUP2 MSTORE POP SWAP4 POP PUSH2 0x36AC DUP7 PUSH1 0x0 ADD MLOAD PUSH1 0x3F PUSH1 0x0 DUP14 PUSH1 0x1 PUSH1 0x1 PUSH1 0xA0 SHL SUB AND PUSH1 0x1 PUSH1 0x1 PUSH1 0xA0 SHL SUB AND DUP2 MSTORE PUSH1 0x20 ADD SWAP1 DUP2 MSTORE PUSH1 0x20 ADD PUSH1 0x0 KECCAK256 PUSH1 0x4 ADD SLOAD PUSH1 0x36 PUSH1 0x0 SWAP1 SLOAD SWAP1 PUSH2 0x100 EXP SWAP1 DIV PUSH1 0x1 PUSH1 0x1 PUSH1 0xA0 SHL SUB AND PUSH1 0x1 PUSH1 0x1 PUSH1 0xA0 SHL SUB AND PUSH4 0xA9EC70D1 DUP15 PUSH1 0x40 MLOAD DUP3 PUSH4 0xFFFFFFFF AND PUSH1 0xE0 SHL DUP2 MSTORE PUSH1 0x4 ADD DUP1 DUP3 PUSH1 0x1 PUSH1 0x1 PUSH1 0xA0 SHL SUB AND PUSH1 0x1 PUSH1 0x1 PUSH1 0xA0 SHL SUB AND DUP2 MSTORE PUSH1 0x20 ADD SWAP2 POP POP PUSH1 0x20 PUSH1 0x40 MLOAD DUP1 DUP4 SUB DUP2 DUP7 DUP1 EXTCODESIZE ISZERO DUP1 ISZERO PUSH2 0x33FF JUMPI PUSH1 0x0 DUP1 REVERT JUMPDEST PUSH1 0x1 PUSH1 0x1 PUSH1 0xA0 SHL SUB DUP12 AND PUSH1 0x0 SWAP1 DUP2 MSTORE PUSH1 0x5A PUSH1 0x20 MSTORE PUSH1 0x40 SWAP1 KECCAK256 PUSH1 0x3 ADD DUP2 SWAP1 SSTORE PUSH2 0x36D4 SWAP1 DUP6 PUSH2 0x3B6E JUMP JUMPDEST PUSH1 0x1 PUSH1 0x1 PUSH1 0xA0 SHL SUB DUP12 AND PUSH1 0x0 SWAP1 DUP2 MSTORE PUSH1 0x5A PUSH1 0x20 MSTORE PUSH1 0x40 SWAP1 KECCAK256 PUSH1 0x4 DUP2 ADD SWAP2 SWAP1 SWAP2 SSTORE DUP1 SLOAD PUSH1 0xFF NOT AND PUSH1 0x2 OR SWAP1 SSTORE POP POP POP JUMPDEST PUSH1 0x40 DUP1 MLOAD PUSH1 0x20 DUP1 DUP3 ADD DUP4 MSTORE PUSH1 0x1 PUSH1 0x1 PUSH1 0xA0 SHL SUB DUP11 AND PUSH1 0x0 SWAP1 DUP2 MSTORE PUSH1 0x5A SWAP1 SWAP2 MSTORE SWAP2 SWAP1 SWAP2 KECCAK256 PUSH1 0x3 ADD SLOAD DUP2 MSTORE PUSH2 0x3737 SWAP1 DUP12 SWAP1 PUSH2 0x3993 JUMP JUMPDEST SWAP10 POP PUSH2 0x3779 DUP10 PUSH1 0x40 MLOAD DUP1 PUSH1 0x20 ADD PUSH1 0x40 MSTORE DUP1 PUSH1 0x5A PUSH1 0x0 DUP13 PUSH1 0x1 PUSH1 0x1 PUSH1 0xA0 SHL SUB AND PUSH1 0x1 PUSH1 0x1 PUSH1 0xA0 SHL SUB AND DUP2 MSTORE PUSH1 0x20 ADD SWAP1 DUP2 MSTORE PUSH1 0x20 ADD PUSH1 0x0 KECCAK256 PUSH1 0x4 ADD SLOAD DUP2 MSTORE POP PUSH2 0x3993 JUMP JUMPDEST SWAP9 POP POP POP POP POP JUMPDEST PUSH1 0x1 PUSH1 0x1 PUSH1 0xA0 SHL SUB DUP4 AND PUSH1 0x0 DUP2 DUP2 MSTORE PUSH1 0x5A PUSH1 0x20 SWAP1 DUP2 MSTORE PUSH1 0x40 SWAP2 DUP3 SWAP1 KECCAK256 PUSH1 0x3 DUP2 ADD SLOAD PUSH1 0x4 SWAP1 SWAP2 ADD SLOAD DUP4 MLOAD SWAP5 DUP6 MSTORE SWAP2 DUP5 ADD MSTORE DUP3 DUP3 ADD MSTORE MLOAD PUSH32 0xD472F492DC7528FF82496536E94A7E8DC3D0E6ED6C7C58731E37193D6EDFFA83 SWAP2 DUP2 SWAP1 SUB PUSH1 0x60 ADD SWAP1 LOG1 POP POP POP PUSH1 0x1 ADD PUSH2 0x2F49 JUMP JUMPDEST POP DUP2 MLOAD PUSH1 0x39 SSTORE DUP1 MLOAD PUSH1 0x3A SSTORE PUSH1 0x3B DUP4 SWAP1 SSTORE PUSH1 0x3C SLOAD PUSH1 0x3D SSTORE PUSH1 0x37 SLOAD PUSH1 0x1 PUSH1 0xA0 SHL SWAP1 DIV PUSH1 0xFF AND ISZERO PUSH2 0x384A JUMPI PUSH1 0x0 PUSH2 0x381C PUSH2 0x463B JUMP JUMPDEST PUSH2 0x3836 PUSH1 0x40 MLOAD DUP1 PUSH1 0x20 ADD PUSH1 0x40 MSTORE DUP1 PUSH1 0x3A SLOAD DUP2 MSTORE POP DUP7 PUSH2 0x3B96 JUMP JUMPDEST SWAP2 POP SWAP2 POP PUSH2 0x3847 DUP2 PUSH1 0x0 ADD MLOAD PUSH2 0x3BB1 JUMP JUMPDEST POP POP JUMPDEST PUSH2 0x3852 PUSH2 0x3EDE JUMP JUMPDEST POP PUSH2 0x385B PUSH2 0x4183 JUMP JUMPDEST PUSH2 0x38A4 JUMPI PUSH1 0x40 DUP1 MLOAD PUSH3 0x461BCD PUSH1 0xE5 SHL DUP2 MSTORE PUSH1 0x20 PUSH1 0x4 DUP3 ADD MSTORE PUSH1 0x15 PUSH1 0x24 DUP3 ADD MSTORE PUSH21 0x155C19185D1A5B99C810D31BD8DAC811985A5B1959 PUSH1 0x5A SHL PUSH1 0x44 DUP3 ADD MSTORE SWAP1 MLOAD SWAP1 DUP2 SWAP1 SUB PUSH1 0x64 ADD SWAP1 REVERT JUMPDEST POP POP POP POP JUMP JUMPDEST PUSH1 0x4 SWAP1 JUMP JUMPDEST ADDRESS EXTCODESIZE ISZERO SWAP1 JUMP JUMPDEST PUSH1 0x0 DUP4 DUP4 ADD DUP3 DUP6 DUP3 LT ISZERO PUSH2 0x390A JUMPI PUSH1 0x40 MLOAD PUSH3 0x461BCD PUSH1 0xE5 SHL DUP2 MSTORE PUSH1 0x20 PUSH1 0x4 DUP3 ADD DUP2 DUP2 MSTORE DUP4 MLOAD PUSH1 0x24 DUP5 ADD MSTORE DUP4 MLOAD SWAP1 SWAP3 DUP4 SWAP3 PUSH1 0x44 SWAP1 SWAP2 ADD SWAP2 SWAP1 DUP6 ADD SWAP1 DUP1 DUP4 DUP4 PUSH1 0x0 DUP4 ISZERO PUSH2 0x2DCF JUMPI DUP2 DUP2 ADD MLOAD DUP4 DUP3 ADD MSTORE PUSH1 0x20 ADD PUSH2 0x2DB7 JUMP JUMPDEST POP SWAP5 SWAP4 POP POP POP POP JUMP JUMPDEST PUSH1 0x0 PUSH2 0x28D4 DUP4 DUP4 PUSH1 0x40 MLOAD DUP1 PUSH1 0x40 ADD PUSH1 0x40 MSTORE DUP1 PUSH1 0x17 DUP2 MSTORE PUSH1 0x20 ADD PUSH32 0x6D756C7469706C69636174696F6E206F766572666C6F77000000000000000000 DUP2 MSTORE POP PUSH2 0x4214 JUMP JUMPDEST PUSH2 0x395D PUSH2 0x463B JUMP JUMPDEST PUSH1 0x40 MLOAD DUP1 PUSH1 0x20 ADD PUSH1 0x40 MSTORE DUP1 PUSH2 0x398A PUSH2 0x3984 DUP7 PUSH15 0xC097CE7BC90715B34B9F1000000000 PUSH2 0x3913 JUMP JUMPDEST DUP6 PUSH2 0x428A JUMP JUMPDEST SWAP1 MSTORE SWAP4 SWAP3 POP POP POP JUMP JUMPDEST PUSH2 0x399B PUSH2 0x463B JUMP JUMPDEST PUSH1 0x40 MLOAD DUP1 PUSH1 0x20 ADD PUSH1 0x40 MSTORE DUP1 PUSH2 0x398A DUP6 PUSH1 0x0 ADD MLOAD DUP6 PUSH1 0x0 ADD MLOAD PUSH2 0x42BD JUMP JUMPDEST MLOAD SWAP1 MLOAD GT SWAP1 JUMP JUMPDEST PUSH1 0x0 PUSH2 0x39C9 PUSH2 0x463B JUMP JUMPDEST PUSH1 0x0 DUP1 PUSH2 0x39DE DUP7 PUSH1 0x0 ADD MLOAD DUP7 PUSH1 0x0 ADD MLOAD PUSH2 0x42F3 JUMP JUMPDEST PUSH1 0x40 DUP1 MLOAD PUSH1 0x20 DUP2 ADD SWAP1 SWAP2 MSTORE SWAP1 DUP2 MSTORE SWAP1 SWAP5 POP SWAP3 POP POP POP JUMPDEST SWAP3 POP SWAP3 SWAP1 POP JUMP JUMPDEST PUSH1 0x0 PUSH2 0x3A05 PUSH2 0x463B JUMP JUMPDEST PUSH1 0x0 DUP1 PUSH2 0x3A16 DUP7 PUSH1 0x0 ADD MLOAD DUP7 PUSH2 0x4316 JUMP JUMPDEST SWAP1 SWAP3 POP SWAP1 POP PUSH1 0x0 DUP3 PUSH1 0x3 DUP2 GT ISZERO PUSH2 0x3A29 JUMPI INVALID JUMPDEST EQ PUSH2 0x3A48 JUMPI POP PUSH1 0x40 DUP1 MLOAD PUSH1 0x20 DUP2 ADD SWAP1 SWAP2 MSTORE PUSH1 0x0 DUP2 MSTORE SWAP1 SWAP3 POP SWAP1 POP PUSH2 0x39F4 JUMP JUMPDEST PUSH1 0x40 DUP1 MLOAD PUSH1 0x20 DUP2 ADD SWAP1 SWAP2 MSTORE SWAP1 DUP2 MSTORE PUSH1 0x0 SWAP7 SWAP1 SWAP6 POP SWAP4 POP POP POP POP JUMP JUMPDEST PUSH1 0x0 DUP1 DUP4 GT PUSH2 0x3AA3 JUMPI PUSH1 0x40 MLOAD PUSH3 0x461BCD PUSH1 0xE5 SHL DUP2 MSTORE PUSH1 0x4 ADD DUP1 DUP1 PUSH1 0x20 ADD DUP3 DUP2 SUB DUP3 MSTORE PUSH1 0x22 DUP2 MSTORE PUSH1 0x20 ADD DUP1 PUSH2 0x4C14 PUSH1 0x22 SWAP2 CODECOPY PUSH1 0x40 ADD SWAP2 POP POP PUSH1 0x40 MLOAD DUP1 SWAP2 SUB SWAP1 REVERT JUMPDEST PUSH1 0x0 DUP3 GT PUSH2 0x3AE2 JUMPI PUSH1 0x40 MLOAD PUSH3 0x461BCD PUSH1 0xE5 SHL DUP2 MSTORE PUSH1 0x4 ADD DUP1 DUP1 PUSH1 0x20 ADD DUP3 DUP2 SUB DUP3 MSTORE PUSH1 0x26 DUP2 MSTORE PUSH1 0x20 ADD DUP1 PUSH2 0x4B13 PUSH1 0x26 SWAP2 CODECOPY PUSH1 0x40 ADD SWAP2 POP POP PUSH1 0x40 MLOAD DUP1 SWAP2 SUB SWAP1 REVERT JUMPDEST PUSH1 0x0 PUSH2 0x3B0F DUP6 PUSH8 0xDE0B6B3A7640000 PUSH1 0x40 MLOAD DUP1 PUSH1 0x60 ADD PUSH1 0x40 MSTORE DUP1 PUSH1 0x2E DUP2 MSTORE PUSH1 0x20 ADD PUSH2 0x4BE6 PUSH1 0x2E SWAP2 CODECOPY PUSH2 0x4214 JUMP JUMPDEST SWAP1 POP PUSH1 0x0 PUSH2 0x3B39 DUP3 DUP7 PUSH1 0xA EXP PUSH1 0x40 MLOAD DUP1 PUSH1 0x60 ADD PUSH1 0x40 MSTORE DUP1 PUSH1 0x28 DUP2 MSTORE PUSH1 0x20 ADD PUSH2 0x47EF PUSH1 0x28 SWAP2 CODECOPY PUSH2 0x4355 JUMP JUMPDEST SWAP1 POP PUSH1 0x0 PUSH2 0x3B63 DUP3 DUP7 PUSH1 0xA EXP PUSH1 0x40 MLOAD DUP1 PUSH1 0x60 ADD PUSH1 0x40 MSTORE DUP1 PUSH1 0x23 DUP2 MSTORE PUSH1 0x20 ADD PUSH2 0x4B5D PUSH1 0x23 SWAP2 CODECOPY PUSH2 0x4355 JUMP JUMPDEST SWAP8 SWAP7 POP POP POP POP POP POP POP JUMP JUMPDEST PUSH1 0x0 PUSH8 0xDE0B6B3A7640000 PUSH2 0x3B87 DUP5 DUP5 PUSH1 0x0 ADD MLOAD PUSH2 0x3913 JUMP JUMPDEST DUP2 PUSH2 0x3B8E JUMPI INVALID JUMPDEST DIV SWAP4 SWAP3 POP POP POP JUMP JUMPDEST PUSH1 0x0 PUSH2 0x3BA0 PUSH2 0x463B JUMP JUMPDEST PUSH1 0x0 DUP1 PUSH2 0x3A16 DUP7 PUSH1 0x0 ADD MLOAD DUP7 PUSH2 0x43B7 JUMP JUMPDEST PUSH1 0x36 SLOAD PUSH1 0x35 SLOAD PUSH1 0x40 DUP1 MLOAD PUSH4 0xB3596F07 PUSH1 0xE0 SHL DUP2 MSTORE PUSH1 0x1 PUSH1 0x1 PUSH1 0xA0 SHL SUB SWAP3 DUP4 AND PUSH1 0x4 DUP3 ADD MSTORE SWAP1 MLOAD PUSH1 0x0 SWAP4 SWAP3 SWAP1 SWAP3 AND SWAP2 PUSH4 0xB3596F07 SWAP2 PUSH1 0x24 DUP1 DUP3 ADD SWAP3 PUSH1 0x20 SWAP3 SWAP1 SWAP2 SWAP1 DUP3 SWAP1 SUB ADD DUP2 DUP7 DUP1 EXTCODESIZE ISZERO DUP1 ISZERO PUSH2 0x3C05 JUMPI PUSH1 0x0 DUP1 REVERT JUMPDEST POP GAS STATICCALL ISZERO DUP1 ISZERO PUSH2 0x3C19 JUMPI RETURNDATASIZE PUSH1 0x0 DUP1 RETURNDATACOPY RETURNDATASIZE PUSH1 0x0 REVERT JUMPDEST POP POP POP POP PUSH1 0x40 MLOAD RETURNDATASIZE PUSH1 0x20 DUP2 LT ISZERO PUSH2 0x3C2F JUMPI PUSH1 0x0 DUP1 REVERT JUMPDEST POP MLOAD PUSH1 0x35 SLOAD PUSH1 0x36 SLOAD PUSH1 0x40 DUP1 MLOAD PUSH4 0xA9EC70D1 PUSH1 0xE0 SHL DUP2 MSTORE PUSH1 0x1 PUSH1 0x1 PUSH1 0xA0 SHL SUB SWAP4 DUP5 AND PUSH1 0x4 DUP3 ADD DUP2 SWAP1 MSTORE SWAP2 MLOAD SWAP5 SWAP6 POP SWAP1 SWAP4 PUSH1 0x0 SWAP4 SWAP1 SWAP3 AND SWAP2 PUSH4 0xA9EC70D1 SWAP2 PUSH1 0x24 DUP1 DUP3 ADD SWAP3 PUSH1 0x20 SWAP3 SWAP1 SWAP2 SWAP1 DUP3 SWAP1 SUB ADD DUP2 DUP7 DUP1 EXTCODESIZE ISZERO DUP1 ISZERO PUSH2 0x3C8B JUMPI PUSH1 0x0 DUP1 REVERT JUMPDEST POP GAS STATICCALL ISZERO DUP1 ISZERO PUSH2 0x3C9F JUMPI RETURNDATASIZE PUSH1 0x0 DUP1 RETURNDATACOPY RETURNDATASIZE PUSH1 0x0 REVERT JUMPDEST POP POP POP POP PUSH1 0x40 MLOAD RETURNDATASIZE PUSH1 0x20 DUP2 LT ISZERO PUSH2 0x3CB5 JUMPI PUSH1 0x0 DUP1 REVERT JUMPDEST POP MLOAD PUSH1 0x40 DUP1 MLOAD PUSH4 0x313CE567 PUSH1 0xE0 SHL DUP2 MSTORE SWAP1 MLOAD PUSH1 0xFF SWAP1 SWAP3 AND SWAP3 POP PUSH1 0x0 SWAP2 PUSH1 0x1 PUSH1 0x1 PUSH1 0xA0 SHL SUB DUP6 AND SWAP2 PUSH4 0x313CE567 SWAP2 PUSH1 0x4 DUP1 DUP4 ADD SWAP3 PUSH1 0x20 SWAP3 SWAP2 SWAP1 DUP3 SWAP1 SUB ADD DUP2 DUP7 DUP1 EXTCODESIZE ISZERO DUP1 ISZERO PUSH2 0x3D01 JUMPI PUSH1 0x0 DUP1 REVERT JUMPDEST POP GAS STATICCALL ISZERO DUP1 ISZERO PUSH2 0x3D15 JUMPI RETURNDATASIZE PUSH1 0x0 DUP1 RETURNDATACOPY RETURNDATASIZE PUSH1 0x0 REVERT JUMPDEST POP POP POP POP PUSH1 0x40 MLOAD RETURNDATASIZE PUSH1 0x20 DUP2 LT ISZERO PUSH2 0x3D2B JUMPI PUSH1 0x0 DUP1 REVERT JUMPDEST POP MLOAD PUSH1 0xFF AND SWAP1 POP DUP4 PUSH2 0x3D6E JUMPI PUSH1 0x40 MLOAD PUSH3 0x461BCD PUSH1 0xE5 SHL DUP2 MSTORE PUSH1 0x4 ADD DUP1 DUP1 PUSH1 0x20 ADD DUP3 DUP2 SUB DUP3 MSTORE PUSH1 0x24 DUP2 MSTORE PUSH1 0x20 ADD DUP1 PUSH2 0x4B39 PUSH1 0x24 SWAP2 CODECOPY PUSH1 0x40 ADD SWAP2 POP POP PUSH1 0x40 MLOAD DUP1 SWAP2 SUB SWAP1 REVERT JUMPDEST PUSH1 0x0 PUSH2 0x3D7C DUP6 PUSH1 0x3C SLOAD PUSH2 0x3913 JUMP JUMPDEST SWAP1 POP PUSH1 0x0 PUSH2 0x3D8B DUP3 DUP5 DUP7 PUSH2 0x3A63 JUMP JUMPDEST PUSH1 0x40 DUP1 MLOAD PUSH1 0x20 DUP2 ADD SWAP1 SWAP2 MSTORE PUSH1 0x38 SLOAD DUP2 MSTORE SWAP1 SWAP2 POP PUSH1 0x0 SWAP1 PUSH2 0x3DAC SWAP1 DUP10 SWAP1 PUSH2 0x3B6E JUMP JUMPDEST SWAP1 POP DUP1 DUP3 GT ISZERO PUSH2 0x3E80 JUMPI PUSH1 0x0 PUSH2 0x3DDE DUP3 DUP7 PUSH1 0xA EXP PUSH1 0x40 MLOAD DUP1 PUSH1 0x60 ADD PUSH1 0x40 MSTORE DUP1 PUSH1 0x38 DUP2 MSTORE PUSH1 0x20 ADD PUSH2 0x498B PUSH1 0x38 SWAP2 CODECOPY PUSH2 0x4214 JUMP JUMPDEST SWAP1 POP PUSH1 0x0 PUSH2 0x3E08 DUP3 DUP9 PUSH1 0xA EXP PUSH1 0x40 MLOAD DUP1 PUSH1 0x60 ADD PUSH1 0x40 MSTORE DUP1 PUSH1 0x39 DUP2 MSTORE PUSH1 0x20 ADD PUSH2 0x4BAD PUSH1 0x39 SWAP2 CODECOPY PUSH2 0x4214 JUMP JUMPDEST SWAP1 POP PUSH1 0x0 PUSH2 0x3E37 DUP3 PUSH8 0xDE0B6B3A7640000 PUSH1 0x40 MLOAD DUP1 PUSH1 0x60 ADD PUSH1 0x40 MSTORE DUP1 PUSH1 0x2D DUP2 MSTORE PUSH1 0x20 ADD PUSH2 0x49C3 PUSH1 0x2D SWAP2 CODECOPY PUSH2 0x4355 JUMP JUMPDEST SWAP1 POP PUSH2 0x3E79 DUP2 DUP12 PUSH1 0x40 MLOAD DUP1 PUSH1 0x40 ADD PUSH1 0x40 MSTORE DUP1 PUSH1 0x1D DUP2 MSTORE PUSH1 0x20 ADD PUSH32 0x4D6178205370656564206469766973696F6E2067617665206572726F72000000 DUP2 MSTORE POP PUSH2 0x4355 JUMP JUMPDEST PUSH1 0x3D SSTORE POP POP POP JUMPDEST PUSH1 0x3C SLOAD PUSH1 0x3D SLOAD PUSH1 0x40 DUP1 MLOAD SWAP3 DUP4 MSTORE PUSH1 0x20 DUP4 ADD SWAP2 SWAP1 SWAP2 MSTORE DUP2 DUP2 ADD DUP11 SWAP1 MSTORE PUSH1 0x60 DUP3 ADD DUP4 SWAP1 MSTORE PUSH1 0x80 DUP3 ADD DUP5 SWAP1 MSTORE MLOAD PUSH32 0xB46F7BF4158F3A71283AC90FC060EBEFD6EE78121B305C9768C5F5D9929709FA SWAP2 DUP2 SWAP1 SUB PUSH1 0xA0 ADD SWAP1 LOG1 POP POP POP POP POP POP POP POP JUMP JUMPDEST PUSH1 0x0 DUP1 JUMPDEST PUSH1 0x3E SLOAD DUP2 LT ISZERO PUSH2 0x417F JUMPI PUSH1 0x0 PUSH1 0x3E DUP3 DUP2 SLOAD DUP2 LT PUSH2 0x3EFB JUMPI INVALID JUMPDEST PUSH1 0x0 SWAP2 DUP3 MSTORE PUSH1 0x20 SWAP1 SWAP2 KECCAK256 ADD SLOAD PUSH1 0x1 PUSH1 0x1 PUSH1 0xA0 SHL SUB AND SWAP1 POP PUSH2 0x3F1A PUSH2 0x463B JUMP JUMPDEST POP PUSH1 0x40 DUP1 MLOAD PUSH1 0x20 DUP2 ADD SWAP1 SWAP2 MSTORE PUSH1 0x0 DUP2 MSTORE PUSH2 0x3F32 PUSH2 0x463B JUMP JUMPDEST POP PUSH1 0x40 DUP1 MLOAD PUSH1 0x20 DUP2 ADD SWAP1 SWAP2 MSTORE PUSH1 0x0 DUP1 DUP3 MSTORE PUSH1 0x3A SLOAD ISZERO DUP1 ISZERO SWAP1 PUSH2 0x3F6E JUMPI POP PUSH1 0x1 PUSH1 0x1 PUSH1 0xA0 SHL SUB DUP5 AND PUSH1 0x0 SWAP1 DUP2 MSTORE PUSH1 0x5A PUSH1 0x20 MSTORE PUSH1 0x40 SWAP1 KECCAK256 PUSH1 0x4 ADD SLOAD ISZERO ISZERO JUMPDEST ISZERO PUSH2 0x4088 JUMPI PUSH1 0x1 PUSH1 0x1 PUSH1 0xA0 SHL SUB DUP5 AND PUSH1 0x0 SWAP1 DUP2 MSTORE PUSH1 0x5A PUSH1 0x20 MSTORE PUSH1 0x40 SWAP1 KECCAK256 PUSH1 0x4 ADD SLOAD PUSH1 0x3A SLOAD PUSH2 0x3F9C SWAP2 SWAP1 PUSH2 0x43E2 JUMP JUMPDEST PUSH1 0x1 PUSH1 0x1 PUSH1 0xA0 SHL SUB DUP7 AND PUSH1 0x0 SWAP1 DUP2 MSTORE PUSH1 0x5A PUSH1 0x20 MSTORE PUSH1 0x40 SWAP1 KECCAK256 PUSH1 0x3 ADD SLOAD PUSH1 0x39 SLOAD SWAP2 SWAP6 POP SWAP2 SWAP3 POP PUSH2 0x3FCB SWAP2 SWAP1 PUSH2 0x43E2 JUMP JUMPDEST PUSH1 0x1 PUSH1 0x1 PUSH1 0xA0 SHL SUB DUP7 AND PUSH1 0x0 SWAP1 DUP2 MSTORE PUSH1 0x5A PUSH1 0x20 MSTORE PUSH1 0x40 SWAP1 KECCAK256 SLOAD SWAP1 SWAP4 POP SWAP1 SWAP2 POP PUSH1 0xFF AND PUSH1 0x1 EQ ISZERO PUSH2 0x402C JUMPI PUSH2 0x4001 PUSH1 0x3D SLOAD DUP5 PUSH2 0x3B6E JUMP JUMPDEST PUSH1 0x1 PUSH1 0x1 PUSH1 0xA0 SHL SUB DUP6 AND PUSH1 0x0 SWAP1 DUP2 MSTORE PUSH1 0x5A PUSH1 0x20 MSTORE PUSH1 0x40 DUP2 KECCAK256 PUSH1 0x7 DUP2 ADD SWAP3 SWAP1 SWAP3 SSTORE PUSH1 0x8 SWAP1 SWAP2 ADD SSTORE PUSH2 0x4083 JUMP JUMPDEST PUSH1 0x1 PUSH1 0x1 PUSH1 0xA0 SHL SUB DUP5 AND PUSH1 0x0 SWAP1 DUP2 MSTORE PUSH1 0x5A PUSH1 0x20 MSTORE PUSH1 0x40 SWAP1 KECCAK256 SLOAD PUSH1 0xFF AND PUSH1 0x2 EQ ISZERO PUSH2 0x4083 JUMPI PUSH2 0x405C PUSH1 0x3D SLOAD DUP5 PUSH2 0x3B6E JUMP JUMPDEST PUSH1 0x1 PUSH1 0x1 PUSH1 0xA0 SHL SUB DUP6 AND PUSH1 0x0 SWAP1 DUP2 MSTORE PUSH1 0x5A PUSH1 0x20 MSTORE PUSH1 0x40 DUP2 KECCAK256 PUSH1 0x8 DUP2 ADD SWAP3 SWAP1 SWAP3 SSTORE PUSH1 0x7 SWAP1 SWAP2 ADD SSTORE JUMPDEST PUSH2 0x40AC JUMP JUMPDEST PUSH1 0x1 PUSH1 0x1 PUSH1 0xA0 SHL SUB DUP5 AND PUSH1 0x0 SWAP1 DUP2 MSTORE PUSH1 0x5A PUSH1 0x20 MSTORE PUSH1 0x40 DUP2 KECCAK256 PUSH1 0x8 DUP2 ADD DUP3 SWAP1 SSTORE PUSH1 0x7 ADD SSTORE JUMPDEST PUSH2 0x40BA PUSH4 0x3B9ACA00 DUP5 PUSH2 0x3B6E JUMP JUMPDEST PUSH1 0x1 PUSH1 0x1 PUSH1 0xA0 SHL SUB DUP6 AND PUSH1 0x0 SWAP1 DUP2 MSTORE PUSH1 0x5A PUSH1 0x20 MSTORE PUSH1 0x40 SWAP1 KECCAK256 PUSH1 0x6 ADD SSTORE PUSH2 0x40E4 PUSH4 0x3B9ACA00 DUP4 PUSH2 0x3B6E JUMP JUMPDEST PUSH1 0x1 PUSH1 0x1 PUSH1 0xA0 SHL SUB DUP6 AND PUSH1 0x0 DUP2 DUP2 MSTORE PUSH1 0x5A PUSH1 0x20 SWAP1 DUP2 MSTORE PUSH1 0x40 SWAP2 DUP3 SWAP1 KECCAK256 PUSH1 0x5 DUP2 ADD DUP6 SWAP1 SSTORE DUP1 SLOAD PUSH1 0x7 DUP3 ADD SLOAD PUSH1 0x8 DUP4 ADD SLOAD PUSH1 0x6 SWAP1 SWAP4 ADD SLOAD DUP6 MLOAD SWAP7 DUP8 MSTORE PUSH1 0xFF SWAP1 SWAP3 AND SWAP4 DUP7 ADD SWAP4 SWAP1 SWAP4 MSTORE DUP5 DUP5 ADD SWAP3 SWAP1 SWAP3 MSTORE PUSH1 0x60 DUP5 ADD MSTORE PUSH1 0x80 DUP4 ADD MSTORE PUSH1 0xA0 DUP3 ADD SWAP3 SWAP1 SWAP3 MSTORE SWAP1 MLOAD PUSH32 0xB77E0C67AAD5552FAB291CA0F92913ED655F8193DACB98659DD705512A026E64 SWAP2 DUP2 SWAP1 SUB PUSH1 0xC0 ADD SWAP1 LOG1 POP POP PUSH1 0x1 SWAP1 SWAP3 ADD SWAP2 POP PUSH2 0x3EE2 SWAP1 POP JUMP JUMPDEST POP SWAP1 JUMP JUMPDEST PUSH1 0x59 SLOAD PUSH1 0x0 SWAP1 PUSH1 0x1 PUSH1 0x1 PUSH1 0xE0 SHL SUB AND PUSH1 0x17 EQ PUSH2 0x41EB JUMPI PUSH1 0x59 SLOAD PUSH1 0x40 DUP1 MLOAD DUP1 DUP3 ADD SWAP1 SWAP2 MSTORE PUSH1 0x1A DUP2 MSTORE PUSH32 0x637572436C6F636B203A204164646974696F6E204661696C6564000000000000 PUSH1 0x20 DUP3 ADD MSTORE PUSH2 0x41E6 SWAP2 PUSH1 0x1 PUSH1 0x1 PUSH1 0xE0 SHL SUB AND SWAP1 PUSH1 0x1 SWAP1 PUSH2 0x38B5 JUMP JUMPDEST PUSH2 0x41EE JUMP JUMPDEST PUSH1 0x0 JUMPDEST PUSH1 0x59 DUP1 SLOAD PUSH1 0x1 PUSH1 0x1 PUSH1 0xE0 SHL SUB NOT AND PUSH1 0x1 PUSH1 0x1 PUSH1 0xE0 SHL SUB SWAP3 SWAP1 SWAP3 AND SWAP2 SWAP1 SWAP2 OR SWAP1 SSTORE POP PUSH1 0x1 SWAP1 JUMP JUMPDEST PUSH1 0x0 DUP4 ISZERO DUP1 PUSH2 0x4221 JUMPI POP DUP3 ISZERO JUMPDEST ISZERO PUSH2 0x422E JUMPI POP PUSH1 0x0 PUSH2 0x28D4 JUMP JUMPDEST DUP4 DUP4 MUL DUP4 DUP6 DUP3 DUP2 PUSH2 0x423B JUMPI INVALID JUMPDEST DIV EQ DUP4 SWAP1 PUSH2 0x390A JUMPI PUSH1 0x40 MLOAD PUSH3 0x461BCD PUSH1 0xE5 SHL DUP2 MSTORE PUSH1 0x20 PUSH1 0x4 DUP3 ADD DUP2 DUP2 MSTORE DUP4 MLOAD PUSH1 0x24 DUP5 ADD MSTORE DUP4 MLOAD SWAP1 SWAP3 DUP4 SWAP3 PUSH1 0x44 SWAP1 SWAP2 ADD SWAP2 SWAP1 DUP6 ADD SWAP1 DUP1 DUP4 DUP4 PUSH1 0x0 DUP4 ISZERO PUSH2 0x2DCF JUMPI DUP2 DUP2 ADD MLOAD DUP4 DUP3 ADD MSTORE PUSH1 0x20 ADD PUSH2 0x2DB7 JUMP JUMPDEST PUSH1 0x0 PUSH2 0x28D4 DUP4 DUP4 PUSH1 0x40 MLOAD DUP1 PUSH1 0x40 ADD PUSH1 0x40 MSTORE DUP1 PUSH1 0xE DUP2 MSTORE PUSH1 0x20 ADD PUSH14 0x646976696465206279207A65726F PUSH1 0x90 SHL DUP2 MSTORE POP PUSH2 0x4355 JUMP JUMPDEST PUSH1 0x0 PUSH2 0x28D4 DUP4 DUP4 PUSH1 0x40 MLOAD DUP1 PUSH1 0x40 ADD PUSH1 0x40 MSTORE DUP1 PUSH1 0x11 DUP2 MSTORE PUSH1 0x20 ADD PUSH17 0x6164646974696F6E206F766572666C6F77 PUSH1 0x78 SHL DUP2 MSTORE POP PUSH2 0x38B5 JUMP JUMPDEST PUSH1 0x0 DUP1 DUP4 DUP4 GT PUSH2 0x430A JUMPI POP PUSH1 0x0 SWAP1 POP DUP2 DUP4 SUB PUSH2 0x39F4 JUMP JUMPDEST POP PUSH1 0x3 SWAP1 POP PUSH1 0x0 PUSH2 0x39F4 JUMP JUMPDEST PUSH1 0x0 DUP1 DUP4 PUSH2 0x4329 JUMPI POP PUSH1 0x0 SWAP1 POP DUP1 PUSH2 0x39F4 JUMP JUMPDEST DUP4 DUP4 MUL DUP4 DUP6 DUP3 DUP2 PUSH2 0x4336 JUMPI INVALID JUMPDEST DIV EQ PUSH2 0x434A JUMPI POP PUSH1 0x2 SWAP2 POP PUSH1 0x0 SWAP1 POP PUSH2 0x39F4 JUMP JUMPDEST PUSH1 0x0 SWAP3 POP SWAP1 POP PUSH2 0x39F4 JUMP JUMPDEST PUSH1 0x0 DUP2 DUP4 PUSH2 0x43A4 JUMPI PUSH1 0x40 MLOAD PUSH3 0x461BCD PUSH1 0xE5 SHL DUP2 MSTORE PUSH1 0x20 PUSH1 0x4 DUP3 ADD DUP2 DUP2 MSTORE DUP4 MLOAD PUSH1 0x24 DUP5 ADD MSTORE DUP4 MLOAD SWAP1 SWAP3 DUP4 SWAP3 PUSH1 0x44 SWAP1 SWAP2 ADD SWAP2 SWAP1 DUP6 ADD SWAP1 DUP1 DUP4 DUP4 PUSH1 0x0 DUP4 ISZERO PUSH2 0x2DCF JUMPI DUP2 DUP2 ADD MLOAD DUP4 DUP3 ADD MSTORE PUSH1 0x20 ADD PUSH2 0x2DB7 JUMP JUMPDEST POP DUP3 DUP5 DUP2 PUSH2 0x43AE JUMPI INVALID JUMPDEST DIV SWAP5 SWAP4 POP POP POP POP JUMP JUMPDEST PUSH1 0x0 DUP1 DUP3 PUSH2 0x43CB JUMPI POP PUSH1 0x1 SWAP1 POP PUSH1 0x0 PUSH2 0x39F4 JUMP JUMPDEST PUSH1 0x0 DUP4 DUP6 DUP2 PUSH2 0x43D6 JUMPI INVALID JUMPDEST DIV SWAP2 POP SWAP2 POP SWAP3 POP SWAP3 SWAP1 POP JUMP JUMPDEST PUSH1 0x0 PUSH2 0x43EC PUSH2 0x463B JUMP JUMPDEST PUSH1 0x0 DUP1 PUSH2 0x4401 DUP7 PUSH8 0xDE0B6B3A7640000 PUSH2 0x4316 JUMP JUMPDEST SWAP1 SWAP3 POP SWAP1 POP PUSH1 0x0 DUP3 PUSH1 0x3 DUP2 GT ISZERO PUSH2 0x4414 JUMPI INVALID JUMPDEST EQ PUSH2 0x4433 JUMPI POP PUSH1 0x40 DUP1 MLOAD PUSH1 0x20 DUP2 ADD SWAP1 SWAP2 MSTORE PUSH1 0x0 DUP2 MSTORE SWAP1 SWAP3 POP SWAP1 POP PUSH2 0x39F4 JUMP JUMPDEST PUSH1 0x0 DUP1 PUSH2 0x4440 DUP4 DUP9 PUSH2 0x43B7 JUMP JUMPDEST SWAP1 SWAP3 POP SWAP1 POP PUSH1 0x0 DUP3 PUSH1 0x3 DUP2 GT ISZERO PUSH2 0x4453 JUMPI INVALID JUMPDEST EQ PUSH2 0x4475 JUMPI POP PUSH1 0x40 DUP1 MLOAD PUSH1 0x20 DUP2 ADD SWAP1 SWAP2 MSTORE PUSH1 0x0 DUP2 MSTORE SWAP1 SWAP5 POP SWAP3 POP PUSH2 0x39F4 SWAP2 POP POP JUMP JUMPDEST PUSH1 0x40 DUP1 MLOAD PUSH1 0x20 DUP2 ADD SWAP1 SWAP2 MSTORE SWAP1 DUP2 MSTORE PUSH1 0x0 SWAP9 SWAP1 SWAP8 POP SWAP6 POP POP POP POP POP POP JUMP JUMPDEST DUP2 SLOAD DUP2 DUP4 SSTORE DUP2 DUP2 GT ISZERO PUSH2 0x22DC JUMPI PUSH1 0x0 DUP4 DUP2 MSTORE PUSH1 0x20 SWAP1 KECCAK256 PUSH2 0x22DC SWAP2 DUP2 ADD SWAP1 DUP4 ADD PUSH2 0x464E JUMP JUMPDEST POP DUP1 SLOAD PUSH1 0x1 DUP2 PUSH1 0x1 AND ISZERO PUSH2 0x100 MUL SUB AND PUSH1 0x2 SWAP1 DIV PUSH1 0x0 DUP3 SSTORE DUP1 PUSH1 0x1F LT PUSH2 0x44DC JUMPI POP PUSH2 0x44FA JUMP JUMPDEST PUSH1 0x1F ADD PUSH1 0x20 SWAP1 DIV SWAP1 PUSH1 0x0 MSTORE PUSH1 0x20 PUSH1 0x0 KECCAK256 SWAP1 DUP2 ADD SWAP1 PUSH2 0x44FA SWAP2 SWAP1 PUSH2 0x464E JUMP JUMPDEST POP JUMP JUMPDEST POP PUSH2 0x44FA SWAP1 PUSH1 0x18 DUP2 ADD SWAP1 PUSH2 0x464E JUMP JUMPDEST PUSH1 0x40 MLOAD DUP1 PUSH2 0x300 ADD PUSH1 0x40 MSTORE DUP1 PUSH1 0x18 SWAP1 PUSH1 0x20 DUP3 MUL DUP1 CODESIZE DUP4 CODECOPY POP SWAP2 SWAP3 SWAP2 POP POP JUMP JUMPDEST DUP3 DUP1 SLOAD PUSH1 0x1 DUP2 PUSH1 0x1 AND ISZERO PUSH2 0x100 MUL SUB AND PUSH1 0x2 SWAP1 DIV SWAP1 PUSH1 0x0 MSTORE PUSH1 0x20 PUSH1 0x0 KECCAK256 SWAP1 PUSH1 0x1F ADD PUSH1 0x20 SWAP1 DIV DUP2 ADD SWAP3 DUP3 PUSH1 0x1F LT PUSH2 0x456C JUMPI DUP1 MLOAD PUSH1 0xFF NOT AND DUP4 DUP1 ADD OR DUP6 SSTORE PUSH2 0x4599 JUMP JUMPDEST DUP3 DUP1 ADD PUSH1 0x1 ADD DUP6 SSTORE DUP3 ISZERO PUSH2 0x4599 JUMPI SWAP2 DUP3 ADD JUMPDEST DUP3 DUP2 GT ISZERO PUSH2 0x4599 JUMPI DUP3 MLOAD DUP3 SSTORE SWAP2 PUSH1 0x20 ADD SWAP2 SWAP1 PUSH1 0x1 ADD SWAP1 PUSH2 0x457E JUMP JUMPDEST POP PUSH2 0x417F SWAP3 SWAP2 POP PUSH2 0x464E JUMP JUMPDEST DUP3 PUSH1 0x18 DUP2 ADD SWAP3 DUP3 ISZERO PUSH2 0x4599 JUMPI SWAP2 PUSH1 0x20 MUL DUP3 ADD DUP3 DUP2 GT ISZERO PUSH2 0x4599 JUMPI DUP3 MLOAD DUP3 SSTORE SWAP2 PUSH1 0x20 ADD SWAP2 SWAP1 PUSH1 0x1 ADD SWAP1 PUSH2 0x457E JUMP JUMPDEST PUSH1 0x40 MLOAD DUP1 PUSH2 0x140 ADD PUSH1 0x40 MSTORE DUP1 PUSH1 0x0 ISZERO ISZERO DUP2 MSTORE PUSH1 0x20 ADD PUSH1 0x60 DUP2 MSTORE PUSH1 0x20 ADD PUSH1 0x0 PUSH1 0x1 PUSH1 0x1 PUSH1 0xA0 SHL SUB AND DUP2 MSTORE PUSH1 0x20 ADD PUSH1 0x0 PUSH1 0x1 PUSH1 0x1 PUSH1 0xA0 SHL SUB AND DUP2 MSTORE PUSH1 0x20 ADD PUSH1 0x0 DUP2 MSTORE PUSH1 0x20 ADD PUSH1 0x0 ISZERO ISZERO DUP2 MSTORE PUSH1 0x20 ADD PUSH1 0x0 DUP2 MSTORE PUSH1 0x20 ADD PUSH1 0x0 DUP2 MSTORE PUSH1 0x20 ADD PUSH1 0x0 DUP2 MSTORE PUSH1 0x20 ADD PUSH1 0x0 DUP2 MSTORE POP SWAP1 JUMP JUMPDEST PUSH1 0x40 MLOAD DUP1 PUSH1 0x20 ADD PUSH1 0x40 MSTORE DUP1 PUSH1 0x0 DUP2 MSTORE POP SWAP1 JUMP JUMPDEST PUSH2 0xBA4 SWAP2 SWAP1 JUMPDEST DUP1 DUP3 GT ISZERO PUSH2 0x417F JUMPI PUSH1 0x0 DUP2 SSTORE PUSH1 0x1 ADD PUSH2 0x4654 JUMP INVALID SLOAD PUSH9 0x65206E657720566F6C PUSH2 0x7469 PUSH13 0x697479204C696D697420666F72 KECCAK256 MSTORE8 PUSH22 0x70706C69657273206D75737420626520677265617465 PUSH19 0x207468616E20302E3031653138202831252949 PUSH15 0x737472756D656E74206E6F74207072 PUSH16 0x7065726C792072656D6F766564206672 PUSH16 0x6D20746865206C697374206F6620696E PUSH20 0x7472756D656E747320737570706F727465645468 PUSH10 0x7320696E737472756D65 PUSH15 0x74206973206E6F7420737570706F72 PUSH21 0x656420627920534947482044697374726962757469 PUSH16 0x6E2048616E646C657252656672657368 KECCAK256 MSTORE8 0x49 SELFBALANCE 0x48 KECCAK256 MSTORE8 PUSH17 0x65656473203A205375627472616374696F PUSH15 0x20756E646572666C6F7720666F7220 PUSH3 0x6C6F63 PUSH12 0x73537570706C696572207370 PUSH6 0x656420616464 PUSH10 0x74696F6E207769746820 PUSH20 0x74616B696E67207370656564206F766572666C6F PUSH24 0x546869732066756E6374696F6E2063616E206F6E6C792062 PUSH6 0x2063616C6C65 PUSH5 0x2062792074 PUSH9 0x6520496E737472756D PUSH6 0x6E7427732053 0x49 SELFBALANCE 0x48 KECCAK256 MSTORE8 PUSH21 0x7265616D732048616E646C657220436F6E74726163 PUSH21 0x496E737472756D656E7420446563696D616C732063 PUSH16 0x7272656374696F6E20756E646572666C PUSH16 0x77546865206E657720566F6C6174696C PUSH10 0x7479204C696D69742066 PUSH16 0x7220537570706C69657273206D757374 KECCAK256 PUSH3 0x65206C PUSH6 0x737320746861 PUSH15 0x203130653138202831307829546865 KECCAK256 PUSH4 0x616C6C65 PUSH19 0x206D75737420626520746865204C656E64696E PUSH8 0x20706F6F6C20436F PUSH19 0x6520636F6E74726163745468652063616C6C65 PUSH19 0x206D7573742062652074686520534947482046 PUSH10 0x6E616E61636520436F6E PUSH7 0x6967757261746F PUSH19 0x20436F6E747261637472656672657368534947 0x48 MSTORE8 PUSH17 0x65656473496E7465726E616C203A204F72 PUSH2 0x636C PUSH6 0x207265747572 PUSH15 0x656420496E76616C69642050726963 PUSH6 0x546865206E65 PUSH24 0x20566F6C6174696C697479204C696D697420666F7220426F PUSH19 0x726F77657273206D757374206265206C657373 KECCAK256 PUSH21 0x68616E203130653138202831307829546865206E65 PUSH24 0x20566F6C6174696C697479204C696D697420666F7220426F PUSH19 0x726F77657273206D7573742062652067726561 PUSH21 0x6572207468616E20302E303165313820283125294D PUSH2 0x7820 JUMP PUSH16 0x6C6174696C697479203A205349474820 DIFFICULTY PUSH6 0x63696D616C73 KECCAK256 PUSH14 0x756C7469706C69636174696F6E20 PUSH8 0x617665206572726F PUSH19 0x4D617820566F6C6174696C697479203A204465 PUSH4 0x696D616C PUSH20 0x206469766973696F6E2067617665206572726F72 DIFFICULTY PUSH6 0x6C7461426C6F PUSH4 0x6B732072 PUSH6 0x73756C746564 KECCAK256 PUSH10 0x6E20556E646572666C6F PUSH24 0x5570646174696E67205369676820537570706C7920496E64 PUSH6 0x786573206F70 PUSH6 0x726174696F6E KECCAK256 PUSH7 0x61696C65647570 PUSH5 0x6174655349 SELFBALANCE 0x48 TIMESTAMP PUSH16 0x72726F77496E646578203A20426C6F63 PUSH12 0x205375627472616374696F6E KECCAK256 SSTORE PUSH15 0x646572666C6F77436F6D706F756E64 PUSH6 0x6420426F7272 PUSH16 0x7773204164646974696F6E2067617665 KECCAK256 PUSH6 0x72726F725570 PUSH5 0x6174696E67 KECCAK256 0x49 PUSH15 0x737472756D656E7420496E64657865 PUSH20 0x204661696C6564436F6E747261637420696E7374 PUSH2 0x6E63 PUSH6 0x206861732061 PUSH13 0x7265616479206265656E20696E PUSH10 0x7469616C697A65644661 PUSH10 0x6C656420746F20747261 PUSH15 0x736665722061636375726564205349 SELFBALANCE 0x48 KECCAK256 PUSH21 0x6F2074686520757365722E4F7261636C6520726574 PUSH22 0x726E656420696E76616C696420707269636520446563 PUSH10 0x6D616C734F7261636C65 KECCAK256 PUSH19 0x657475726E656420696E76616C696420245349 SELFBALANCE 0x48 KECCAK256 POP PUSH19 0x69636521507269636520446563696D616C7320 PUSH4 0x6F727265 PUSH4 0x74696F6E KECCAK256 PUSH22 0x6E646572666C6F775570646174696E67205369676820 TIMESTAMP PUSH16 0x72726F7720496E6465786573206F7065 PUSH19 0x6174696F6E206661696C65644D617820566F6C PUSH2 0x7469 PUSH13 0x697479203A2050726963652044 PUSH6 0x63696D616C73 KECCAK256 PUSH14 0x756C7469706C69636174696F6E20 PUSH8 0x617665206572726F PUSH19 0x4C6F737320416D6F756E74206D756C7469706C PUSH10 0x636174696F6E2041646A PUSH22 0x73746D656E74206F766572666C6F77496E737472756D PUSH6 0x6E7420446563 PUSH10 0x6D616C732063616E6E6F PUSH21 0x206265205A65726F75706461746553494748537570 PUSH17 0x6C79496E646578203A20426C6F636B2053 PUSH22 0x627472616374696F6E20556E646572666C6F77A26562 PUSH27 0x7A72315820BF478487871085ED72ED0F049820334E1D23C5A6D503 0xCC LOG2 SWAP14 0xC4 0xF PUSH25 0x90A55FD664736F6C6343000511003200000000000000000000 "
		},
		"gasEstimates": {
			"creation": {
				"codeDepositCost": "3922600",
				"executionCost": "85340",
				"totalCost": "4007940"
			},
			"external": {
				"Instrument_SIGH_StateUpdated(address,uint256,uint256,bool)": "infinite",
				"Sigh_Address()": "1083",
				"addInstrument(address,address,address,uint256)": "infinite",
				"addressesProvider()": "1103",
				"checkPriceSnapshots(address,uint256)": "1313",
				"checkinitializationCounter(address)": "1211",
				"getAllInstrumentsSupported()": "infinite",
				"getAllPriceSnapshots(address)": "infinite",
				"getBlockNumber()": "274",
				"getBlockNumbersForPriceSnapshots()": "infinite",
				"getBlocksRemainingToNextSpeedRefresh()": "infinite",
				"getCryptoMarketSentiment()": "1109",
				"getDeltaBlocksForSpeed()": "1043",
				"getDeltaBlockslast24HrSession()": "1134",
				"getInstrumentBorrowIndex(address)": "2173",
				"getInstrumentData(address)": "infinite",
				"getInstrumentSighLimits(address)": "2078",
				"getInstrumentSpeeds(address)": "3805",
				"getInstrumentSupplyIndex(address)": "2171",
				"getInstrumentVolatilityStates(address)": "4634",
				"getLast24HrsTotalProtocolVolatility()": "1131",
				"getLast24HrsTotalSentimentProtocolVolatility()": "1110",
				"getPrevSpeedRefreshBlock()": "1044",
				"getSIGHBalance()": "infinite",
				"getSIGHSpeed()": "1043",
				"getSIGHSpeedUsed()": "1065",
				"initialize(address)": "infinite",
				"isInstrumentSupported(address)": "1243",
				"lendingPoolCore()": "1106",
				"oracle()": "1149",
				"refreshConfig()": "infinite",
				"refreshSIGHSpeeds()": "infinite",
				"removeInstrument(address)": "infinite",
				"totalInstrumentsSupported()": "1152",
				"transferSighTotheUser(address,address,uint256)": "infinite",
				"updateCryptoMarketSentiment(bool,uint256)": "infinite",
				"updateDeltaBlocksForSpeedRefresh(uint256)": "infinite",
				"updateSIGHBorrowIndex(address)": "infinite",
				"updateSIGHSpeed(uint256)": "infinite",
				"updateSIGHSupplyIndex(address)": "infinite",
				"updateStakingSpeedForAnInstrument(address,uint256)": "infinite"
			},
			"internal": {
				"adjustForDecimalsInternal(uint256,uint256,uint256)": "infinite",
				"calculateMaxSighSpeedInternal(uint256)": "infinite",
				"getRevision()": "15",
				"refreshConfigInternal()": "infinite",
				"refreshSIGHSpeedsInternal()": "infinite",
				"updateCurrentClockInternal()": "infinite",
				"updateSIGHBorrowIndexInternal(address)": "infinite",
				"updateSIGHDistributionSpeeds()": "infinite",
				"updateSIGHSupplyIndexInternal(address)": "infinite",
				"updatedInstrumentIndexesInternal()": "infinite"
			}
		},
		"methodIdentifiers": {
			"Instrument_SIGH_StateUpdated(address,uint256,uint256,bool)": "9df816cf",
			"Sigh_Address()": "21428a12",
			"addInstrument(address,address,address,uint256)": "67671989",
			"addressesProvider()": "c72c4d10",
			"checkPriceSnapshots(address,uint256)": "4df859fd",
			"checkinitializationCounter(address)": "8d9cf864",
			"getAllInstrumentsSupported()": "831449de",
			"getAllPriceSnapshots(address)": "d6357063",
			"getBlockNumber()": "42cbb15c",
			"getBlockNumbersForPriceSnapshots()": "659f73c5",
			"getBlocksRemainingToNextSpeedRefresh()": "6f610c50",
			"getCryptoMarketSentiment()": "693ebf7f",
			"getDeltaBlocksForSpeed()": "be36810a",
			"getDeltaBlockslast24HrSession()": "1eddc473",
			"getInstrumentBorrowIndex(address)": "10fa61e6",
			"getInstrumentData(address)": "4dc54a38",
			"getInstrumentSighLimits(address)": "ca2a9602",
			"getInstrumentSpeeds(address)": "3e5eee46",
			"getInstrumentSupplyIndex(address)": "9a717b24",
			"getInstrumentVolatilityStates(address)": "c6486d30",
			"getLast24HrsTotalProtocolVolatility()": "6b8ce90b",
			"getLast24HrsTotalSentimentProtocolVolatility()": "3e322f5f",
			"getPrevSpeedRefreshBlock()": "3e955265",
			"getSIGHBalance()": "c6a6bfb1",
			"getSIGHSpeed()": "570b39d0",
			"getSIGHSpeedUsed()": "975152dd",
			"initialize(address)": "c4d66de8",
			"isInstrumentSupported(address)": "c3d1b72d",
			"lendingPoolCore()": "0d7ff887",
			"oracle()": "7dc0d1d0",
			"refreshConfig()": "7c55ccb3",
			"refreshSIGHSpeeds()": "bf1678f6",
			"removeInstrument(address)": "26562793",
			"totalInstrumentsSupported()": "eeabe79f",
			"transferSighTotheUser(address,address,uint256)": "b482e0d1",
			"updateCryptoMarketSentiment(bool,uint256)": "d74d6d3f",
			"updateDeltaBlocksForSpeedRefresh(uint256)": "1e7faed9",
			"updateSIGHBorrowIndex(address)": "7c52b668",
			"updateSIGHSpeed(uint256)": "2df0f9a9",
			"updateSIGHSupplyIndex(address)": "4f425fbb",
			"updateStakingSpeedForAnInstrument(address,uint256)": "04c66321"
		}
	},
	"abi": [
		{
			"anonymous": false,
			"inputs": [
				{
					"indexed": false,
					"internalType": "address",
					"name": "instrument",
					"type": "address"
				},
				{
					"indexed": false,
					"internalType": "address",
					"name": "user",
					"type": "address"
				},
				{
					"indexed": false,
					"internalType": "uint256",
					"name": "sigh_Amount",
					"type": "uint256"
				}
			],
			"name": "AccuredSIGHTransferredToTheUser",
			"type": "event"
		},
		{
			"anonymous": false,
			"inputs": [
				{
					"indexed": false,
					"internalType": "bool",
					"name": "previsSpeedUpperCheckAllowed",
					"type": "bool"
				},
				{
					"indexed": false,
					"internalType": "uint256",
					"name": "cryptoMarketSentiment",
					"type": "uint256"
				}
			],
			"name": "CryptoMarketSentimentUpdated",
			"type": "event"
		},
		{
			"anonymous": false,
			"inputs": [
				{
					"indexed": false,
					"internalType": "address",
					"name": "instrumentAddress_",
					"type": "address"
				},
				{
					"indexed": false,
					"internalType": "address",
					"name": "iTokenAddress",
					"type": "address"
				},
				{
					"indexed": false,
					"internalType": "address",
					"name": "sighStreamAddress",
					"type": "address"
				},
				{
					"indexed": false,
					"internalType": "uint256",
					"name": "decimals",
					"type": "uint256"
				},
				{
					"indexed": false,
					"internalType": "uint256",
					"name": "blockNumber",
					"type": "uint256"
				}
			],
			"name": "InstrumentAdded",
			"type": "event"
		},
		{
			"anonymous": false,
			"inputs": [
				{
					"indexed": false,
					"internalType": "address",
					"name": "_instrument",
					"type": "address"
				},
				{
					"indexed": false,
					"internalType": "uint256",
					"name": "blockNumber",
					"type": "uint256"
				}
			],
			"name": "InstrumentRemoved",
			"type": "event"
		},
		{
			"anonymous": false,
			"inputs": [
				{
					"indexed": false,
					"internalType": "address",
					"name": "instrument_",
					"type": "address"
				},
				{
					"indexed": false,
					"internalType": "bool",
					"name": "isSIGHMechanismActivated",
					"type": "bool"
				},
				{
					"indexed": false,
					"internalType": "uint256",
					"name": "bearSentiment",
					"type": "uint256"
				},
				{
					"indexed": false,
					"internalType": "uint256",
					"name": "bullSentiment",
					"type": "uint256"
				}
			],
			"name": "InstrumentSIGHStateUpdated",
			"type": "event"
		},
		{
			"anonymous": false,
			"inputs": [
				{
					"indexed": false,
					"internalType": "address",
					"name": "_Instrument",
					"type": "address"
				},
				{
					"indexed": false,
					"internalType": "uint256",
					"name": "_total24HrVolatility",
					"type": "uint256"
				},
				{
					"indexed": false,
					"internalType": "uint256",
					"name": "_total24HrSentimentVolatility",
					"type": "uint256"
				}
			],
			"name": "InstrumentVolatilityCalculated",
			"type": "event"
		},
		{
			"anonymous": false,
			"inputs": [
				{
					"indexed": false,
					"internalType": "uint256",
					"name": "_SIGHSpeed",
					"type": "uint256"
				},
				{
					"indexed": false,
					"internalType": "uint256",
					"name": "_SIGHSpeedUsed",
					"type": "uint256"
				},
				{
					"indexed": false,
					"internalType": "uint256",
					"name": "_totalVolatilityLimitPerBlock",
					"type": "uint256"
				},
				{
					"indexed": false,
					"internalType": "uint256",
					"name": "_maxVolatilityToAddressPerBlock",
					"type": "uint256"
				},
				{
					"indexed": false,
					"internalType": "uint256",
					"name": "_max_SIGHDistributionLimitDecimalsAdjusted",
					"type": "uint256"
				}
			],
			"name": "MaxSIGHSpeedCalculated",
			"type": "event"
		},
		{
			"anonymous": false,
			"inputs": [
				{
					"indexed": false,
					"internalType": "address",
					"name": "instrument",
					"type": "address"
				},
				{
					"indexed": false,
					"internalType": "uint256",
					"name": "prevPrice",
					"type": "uint256"
				},
				{
					"indexed": false,
					"internalType": "uint256",
					"name": "currentPrice",
					"type": "uint256"
				},
				{
					"indexed": false,
					"internalType": "uint256",
					"name": "deltaBlocks",
					"type": "uint256"
				},
				{
					"indexed": false,
					"internalType": "uint256",
					"name": "currentClock",
					"type": "uint256"
				}
			],
			"name": "PriceSnapped",
			"type": "event"
		},
		{
			"anonymous": false,
			"inputs": [
				{
					"indexed": false,
					"internalType": "address",
					"name": "instrument",
					"type": "address"
				},
				{
					"indexed": false,
					"internalType": "uint256",
					"name": "totalCompoundedStableBorrows",
					"type": "uint256"
				},
				{
					"indexed": false,
					"internalType": "uint256",
					"name": "totalCompoundedVariableBorrows",
					"type": "uint256"
				},
				{
					"indexed": false,
					"internalType": "uint256",
					"name": "sighAccured",
					"type": "uint256"
				},
				{
					"indexed": false,
					"internalType": "uint256",
					"name": "ratioMantissa",
					"type": "uint256"
				},
				{
					"indexed": false,
					"internalType": "uint256",
					"name": "newIndexMantissa",
					"type": "uint256"
				}
			],
			"name": "SIGHBorrowIndexUpdated",
			"type": "event"
		},
		{
			"anonymous": false,
			"inputs": [
				{
					"indexed": false,
					"internalType": "uint256",
					"name": "oldSIGHSpeed",
					"type": "uint256"
				},
				{
					"indexed": false,
					"internalType": "uint256",
					"name": "newSIGHSpeed",
					"type": "uint256"
				},
				{
					"indexed": false,
					"internalType": "uint256",
					"name": "blockNumber_",
					"type": "uint256"
				}
			],
			"name": "SIGHSpeedUpdated",
			"type": "event"
		},
		{
			"anonymous": false,
			"inputs": [
				{
					"indexed": false,
					"internalType": "address",
					"name": "instrument",
					"type": "address"
				},
				{
					"indexed": false,
					"internalType": "uint256",
					"name": "totalCompoundedSupply",
					"type": "uint256"
				},
				{
					"indexed": false,
					"internalType": "uint256",
					"name": "sighAccured",
					"type": "uint256"
				},
				{
					"indexed": false,
					"internalType": "uint256",
					"name": "ratioMantissa",
					"type": "uint256"
				},
				{
					"indexed": false,
					"internalType": "uint256",
					"name": "newIndexMantissa",
					"type": "uint256"
				},
				{
					"indexed": false,
					"internalType": "uint256",
					"name": "blockNum",
					"type": "uint256"
				}
			],
			"name": "SIGHSupplyIndexUpdated",
			"type": "event"
		},
		{
			"anonymous": false,
			"inputs": [
				{
					"indexed": false,
					"internalType": "address",
					"name": "instrumentAddress_",
					"type": "address"
				},
				{
					"indexed": false,
					"internalType": "uint256",
					"name": "prevStakingSpeed",
					"type": "uint256"
				},
				{
					"indexed": false,
					"internalType": "uint256",
					"name": "new_staking_Speed",
					"type": "uint256"
				},
				{
					"indexed": false,
					"internalType": "uint256",
					"name": "blockNumber",
					"type": "uint256"
				}
			],
			"name": "StakingSpeedUpdated",
			"type": "event"
		},
		{
			"anonymous": false,
			"inputs": [
				{
					"indexed": false,
					"internalType": "uint256",
					"name": "prevDeltaBlocksForSpeed",
					"type": "uint256"
				},
				{
					"indexed": false,
					"internalType": "uint256",
					"name": "newDeltaBlocksForSpeed",
					"type": "uint256"
				},
				{
					"indexed": false,
					"internalType": "uint256",
					"name": "blockNumber",
					"type": "uint256"
				}
			],
			"name": "minimumBlocksForSpeedRefreshUpdated",
			"type": "event"
		},
		{
			"anonymous": false,
			"inputs": [
				{
					"indexed": false,
					"internalType": "address",
					"name": "_Instrument",
					"type": "address"
				},
				{
					"indexed": false,
					"internalType": "uint8",
					"name": "side",
					"type": "uint8"
				},
				{
					"indexed": false,
					"internalType": "uint256",
					"name": "supplierSpeed",
					"type": "uint256"
				},
				{
					"indexed": false,
					"internalType": "uint256",
					"name": "borrowerSpeed",
					"type": "uint256"
				},
				{
					"indexed": false,
					"internalType": "uint256",
					"name": "_percentTotalSentimentVolatility",
					"type": "uint256"
				},
				{
					"indexed": false,
					"internalType": "uint256",
					"name": "_percentTotalVolatility",
					"type": "uint256"
				}
			],
			"name": "refreshingSighSpeeds",
			"type": "event"
		},
		{
			"constant": false,
			"inputs": [
				{
					"internalType": "address",
					"name": "instrument_",
					"type": "address"
				},
				{
					"internalType": "uint256",
					"name": "_bearSentiment",
					"type": "uint256"
				},
				{
					"internalType": "uint256",
					"name": "_bullSentiment",
					"type": "uint256"
				},
				{
					"internalType": "bool",
					"name": "_isSIGHMechanismActivated",
					"type": "bool"
				}
			],
			"name": "Instrument_SIGH_StateUpdated",
			"outputs": [
				{
					"internalType": "bool",
					"name": "",
					"type": "bool"
				}
			],
			"payable": false,
			"stateMutability": "nonpayable",
			"type": "function"
		},
		{
			"constant": true,
			"inputs": [],
			"name": "Sigh_Address",
			"outputs": [
				{
					"internalType": "contract IERC20",
					"name": "",
					"type": "address"
				}
			],
			"payable": false,
			"stateMutability": "view",
			"type": "function"
		},
		{
			"constant": false,
			"inputs": [
				{
					"internalType": "address",
					"name": "_instrument",
					"type": "address"
				},
				{
					"internalType": "address",
					"name": "_iTokenAddress",
					"type": "address"
				},
				{
					"internalType": "address",
					"name": "_sighStreamAddress",
					"type": "address"
				},
				{
					"internalType": "uint256",
					"name": "_decimals",
					"type": "uint256"
				}
			],
			"name": "addInstrument",
			"outputs": [
				{
					"internalType": "bool",
					"name": "",
					"type": "bool"
				}
			],
			"payable": false,
			"stateMutability": "nonpayable",
			"type": "function"
		},
		{
			"constant": true,
			"inputs": [],
			"name": "addressesProvider",
			"outputs": [
				{
					"internalType": "contract GlobalAddressesProvider",
					"name": "",
					"type": "address"
				}
			],
			"payable": false,
			"stateMutability": "view",
			"type": "function"
		},
		{
			"constant": true,
			"inputs": [
				{
					"internalType": "address",
					"name": "instrument_",
					"type": "address"
				},
				{
					"internalType": "uint256",
					"name": "clock",
					"type": "uint256"
				}
			],
			"name": "checkPriceSnapshots",
			"outputs": [
				{
					"internalType": "uint256",
					"name": "",
					"type": "uint256"
				}
			],
			"payable": false,
			"stateMutability": "view",
			"type": "function"
		},
		{
			"constant": true,
			"inputs": [
				{
					"internalType": "address",
					"name": "instrument_",
					"type": "address"
				}
			],
			"name": "checkinitializationCounter",
			"outputs": [
				{
					"internalType": "uint32",
					"name": "",
					"type": "uint32"
				}
			],
			"payable": false,
			"stateMutability": "view",
			"type": "function"
		},
		{
			"constant": true,
			"inputs": [],
			"name": "getAllInstrumentsSupported",
			"outputs": [
				{
					"internalType": "address[]",
					"name": "",
					"type": "address[]"
				}
			],
			"payable": false,
			"stateMutability": "view",
			"type": "function"
		},
		{
			"constant": true,
			"inputs": [
				{
					"internalType": "address",
					"name": "instrument_",
					"type": "address"
				}
			],
			"name": "getAllPriceSnapshots",
			"outputs": [
				{
					"internalType": "uint256[24]",
					"name": "",
					"type": "uint256[24]"
				}
			],
			"payable": false,
			"stateMutability": "view",
			"type": "function"
		},
		{
			"constant": true,
			"inputs": [],
			"name": "getBlockNumber",
			"outputs": [
				{
					"internalType": "uint32",
					"name": "",
					"type": "uint32"
				}
			],
			"payable": false,
			"stateMutability": "view",
			"type": "function"
		},
		{
			"constant": true,
			"inputs": [],
			"name": "getBlockNumbersForPriceSnapshots",
			"outputs": [
				{
					"internalType": "uint256[24]",
					"name": "",
					"type": "uint256[24]"
				}
			],
			"payable": false,
			"stateMutability": "view",
			"type": "function"
		},
		{
			"constant": true,
			"inputs": [],
			"name": "getBlocksRemainingToNextSpeedRefresh",
			"outputs": [
				{
					"internalType": "uint256",
					"name": "",
					"type": "uint256"
				}
			],
			"payable": false,
			"stateMutability": "view",
			"type": "function"
		},
		{
			"constant": true,
			"inputs": [],
			"name": "getCryptoMarketSentiment",
			"outputs": [
				{
					"internalType": "uint256",
					"name": "",
					"type": "uint256"
				}
			],
			"payable": false,
			"stateMutability": "view",
			"type": "function"
		},
		{
			"constant": true,
			"inputs": [],
			"name": "getDeltaBlocksForSpeed",
			"outputs": [
				{
					"internalType": "uint256",
					"name": "",
					"type": "uint256"
				}
			],
			"payable": false,
			"stateMutability": "view",
			"type": "function"
		},
		{
			"constant": true,
			"inputs": [],
			"name": "getDeltaBlockslast24HrSession",
			"outputs": [
				{
					"internalType": "uint256",
					"name": "",
					"type": "uint256"
				}
			],
			"payable": false,
			"stateMutability": "view",
			"type": "function"
		},
		{
			"constant": true,
			"inputs": [
				{
					"internalType": "address",
					"name": "instrument_",
					"type": "address"
				}
			],
			"name": "getInstrumentBorrowIndex",
			"outputs": [
				{
					"internalType": "uint256",
					"name": "",
					"type": "uint256"
				}
			],
			"payable": false,
			"stateMutability": "view",
			"type": "function"
		},
		{
			"constant": true,
			"inputs": [
				{
					"internalType": "address",
					"name": "instrument_",
					"type": "address"
				}
			],
			"name": "getInstrumentData",
			"outputs": [
				{
					"internalType": "string",
					"name": "name",
					"type": "string"
				},
				{
					"internalType": "address",
					"name": "iTokenAddress",
					"type": "address"
				},
				{
					"internalType": "uint256",
					"name": "decimals",
					"type": "uint256"
				},
				{
					"internalType": "bool",
					"name": "isSIGHMechanismActivated",
					"type": "bool"
				},
				{
					"internalType": "uint256",
					"name": "supplyindex",
					"type": "uint256"
				},
				{
					"internalType": "uint256",
					"name": "borrowindex",
					"type": "uint256"
				}
			],
			"payable": false,
			"stateMutability": "view",
			"type": "function"
		},
		{
			"constant": true,
			"inputs": [
				{
					"internalType": "address",
					"name": "instrument",
					"type": "address"
				}
			],
			"name": "getInstrumentSighLimits",
			"outputs": [
				{
					"internalType": "uint256",
					"name": "_bearSentiment",
					"type": "uint256"
				},
				{
					"internalType": "uint256",
					"name": "_bullSentiment",
					"type": "uint256"
				}
			],
			"payable": false,
			"stateMutability": "view",
			"type": "function"
		},
		{
			"constant": true,
			"inputs": [
				{
					"internalType": "address",
					"name": "instrument",
					"type": "address"
				}
			],
			"name": "getInstrumentSpeeds",
			"outputs": [
				{
					"internalType": "uint8",
					"name": "side",
					"type": "uint8"
				},
				{
					"internalType": "uint256",
					"name": "suppliers_speed",
					"type": "uint256"
				},
				{
					"internalType": "uint256",
					"name": "borrowers_speed",
					"type": "uint256"
				},
				{
					"internalType": "uint256",
					"name": "staking_speed",
					"type": "uint256"
				}
			],
			"payable": false,
			"stateMutability": "view",
			"type": "function"
		},
		{
			"constant": true,
			"inputs": [
				{
					"internalType": "address",
					"name": "instrument_",
					"type": "address"
				}
			],
			"name": "getInstrumentSupplyIndex",
			"outputs": [
				{
					"internalType": "uint256",
					"name": "",
					"type": "uint256"
				}
			],
			"payable": false,
			"stateMutability": "view",
			"type": "function"
		},
		{
			"constant": true,
			"inputs": [
				{
					"internalType": "address",
					"name": "instrument",
					"type": "address"
				}
			],
			"name": "getInstrumentVolatilityStates",
			"outputs": [
				{
					"internalType": "uint8",
					"name": "side",
					"type": "uint8"
				},
				{
					"internalType": "uint256",
					"name": "_total24HrSentimentVolatility",
					"type": "uint256"
				},
				{
					"internalType": "uint256",
					"name": "percentTotalSentimentVolatility",
					"type": "uint256"
				},
				{
					"internalType": "uint256",
					"name": "_total24HrVolatility",
					"type": "uint256"
				},
				{
					"internalType": "uint256",
					"name": "percentTotalVolatility",
					"type": "uint256"
				}
			],
			"payable": false,
			"stateMutability": "view",
			"type": "function"
		},
		{
			"constant": true,
			"inputs": [],
			"name": "getLast24HrsTotalProtocolVolatility",
			"outputs": [
				{
					"internalType": "uint256",
					"name": "",
					"type": "uint256"
				}
			],
			"payable": false,
			"stateMutability": "view",
			"type": "function"
		},
		{
			"constant": true,
			"inputs": [],
			"name": "getLast24HrsTotalSentimentProtocolVolatility",
			"outputs": [
				{
					"internalType": "uint256",
					"name": "",
					"type": "uint256"
				}
			],
			"payable": false,
			"stateMutability": "view",
			"type": "function"
		},
		{
			"constant": true,
			"inputs": [],
			"name": "getPrevSpeedRefreshBlock",
			"outputs": [
				{
					"internalType": "uint256",
					"name": "",
					"type": "uint256"
				}
			],
			"payable": false,
			"stateMutability": "view",
			"type": "function"
		},
		{
			"constant": true,
			"inputs": [],
			"name": "getSIGHBalance",
			"outputs": [
				{
					"internalType": "uint256",
					"name": "",
					"type": "uint256"
				}
			],
			"payable": false,
			"stateMutability": "view",
			"type": "function"
		},
		{
			"constant": true,
			"inputs": [],
			"name": "getSIGHSpeed",
			"outputs": [
				{
					"internalType": "uint256",
					"name": "",
					"type": "uint256"
				}
			],
			"payable": false,
			"stateMutability": "view",
			"type": "function"
		},
		{
			"constant": true,
			"inputs": [],
			"name": "getSIGHSpeedUsed",
			"outputs": [
				{
					"internalType": "uint256",
					"name": "",
					"type": "uint256"
				}
			],
			"payable": false,
			"stateMutability": "view",
			"type": "function"
		},
		{
			"constant": false,
			"inputs": [
				{
					"internalType": "contract GlobalAddressesProvider",
					"name": "addressesProvider_",
					"type": "address"
				}
			],
			"name": "initialize",
			"outputs": [],
			"payable": false,
			"stateMutability": "nonpayable",
			"type": "function"
		},
		{
			"constant": true,
			"inputs": [
				{
					"internalType": "address",
					"name": "instrument_",
					"type": "address"
				}
			],
			"name": "isInstrumentSupported",
			"outputs": [
				{
					"internalType": "bool",
					"name": "",
					"type": "bool"
				}
			],
			"payable": false,
			"stateMutability": "view",
			"type": "function"
		},
		{
			"constant": true,
			"inputs": [],
			"name": "lendingPoolCore",
			"outputs": [
				{
					"internalType": "contract ILendingPoolCore",
					"name": "",
					"type": "address"
				}
			],
			"payable": false,
			"stateMutability": "view",
			"type": "function"
		},
		{
			"constant": true,
			"inputs": [],
			"name": "oracle",
			"outputs": [
				{
					"internalType": "contract IPriceOracleGetter",
					"name": "",
					"type": "address"
				}
			],
			"payable": false,
			"stateMutability": "view",
			"type": "function"
		},
		{
			"constant": false,
			"inputs": [],
			"name": "refreshConfig",
			"outputs": [],
			"payable": false,
			"stateMutability": "nonpayable",
			"type": "function"
		},
		{
			"constant": false,
			"inputs": [],
			"name": "refreshSIGHSpeeds",
			"outputs": [
				{
					"internalType": "bool",
					"name": "",
					"type": "bool"
				}
			],
			"payable": false,
			"stateMutability": "nonpayable",
			"type": "function"
		},
		{
			"constant": false,
			"inputs": [
				{
					"internalType": "address",
					"name": "_instrument",
					"type": "address"
				}
			],
			"name": "removeInstrument",
			"outputs": [
				{
					"internalType": "bool",
					"name": "",
					"type": "bool"
				}
			],
			"payable": false,
			"stateMutability": "nonpayable",
			"type": "function"
		},
		{
			"constant": true,
			"inputs": [],
			"name": "totalInstrumentsSupported",
			"outputs": [
				{
					"internalType": "uint256",
					"name": "",
					"type": "uint256"
				}
			],
			"payable": false,
			"stateMutability": "view",
			"type": "function"
		},
		{
			"constant": false,
			"inputs": [
				{
					"internalType": "address",
					"name": "instrument",
					"type": "address"
				},
				{
					"internalType": "address",
					"name": "user",
					"type": "address"
				},
				{
					"internalType": "uint256",
					"name": "sigh_Amount",
					"type": "uint256"
				}
			],
			"name": "transferSighTotheUser",
			"outputs": [
				{
					"internalType": "uint256",
					"name": "",
					"type": "uint256"
				}
			],
			"payable": false,
			"stateMutability": "nonpayable",
			"type": "function"
		},
		{
			"constant": false,
			"inputs": [
				{
					"internalType": "bool",
					"name": "isSpeedUpperCheckAllowed_",
					"type": "bool"
				},
				{
					"internalType": "uint256",
					"name": "cryptoMarketSentiment_",
					"type": "uint256"
				}
			],
			"name": "updateCryptoMarketSentiment",
			"outputs": [
				{
					"internalType": "bool",
					"name": "",
					"type": "bool"
				}
			],
			"payable": false,
			"stateMutability": "nonpayable",
			"type": "function"
		},
		{
			"constant": false,
			"inputs": [
				{
					"internalType": "uint256",
					"name": "deltaBlocksLimit",
					"type": "uint256"
				}
			],
			"name": "updateDeltaBlocksForSpeedRefresh",
			"outputs": [
				{
					"internalType": "bool",
					"name": "",
					"type": "bool"
				}
			],
			"payable": false,
			"stateMutability": "nonpayable",
			"type": "function"
		},
		{
			"constant": false,
			"inputs": [
				{
					"internalType": "address",
					"name": "currentInstrument",
					"type": "address"
				}
			],
			"name": "updateSIGHBorrowIndex",
			"outputs": [
				{
					"internalType": "bool",
					"name": "",
					"type": "bool"
				}
			],
			"payable": false,
			"stateMutability": "nonpayable",
			"type": "function"
		},
		{
			"constant": false,
			"inputs": [
				{
					"internalType": "uint256",
					"name": "SIGHSpeed_",
					"type": "uint256"
				}
			],
			"name": "updateSIGHSpeed",
			"outputs": [
				{
					"internalType": "bool",
					"name": "",
					"type": "bool"
				}
			],
			"payable": false,
			"stateMutability": "nonpayable",
			"type": "function"
		},
		{
			"constant": false,
			"inputs": [
				{
					"internalType": "address",
					"name": "currentInstrument",
					"type": "address"
				}
			],
			"name": "updateSIGHSupplyIndex",
			"outputs": [
				{
					"internalType": "bool",
					"name": "",
					"type": "bool"
				}
			],
			"payable": false,
			"stateMutability": "nonpayable",
			"type": "function"
		},
		{
			"constant": false,
			"inputs": [
				{
					"internalType": "address",
					"name": "instrument_",
					"type": "address"
				},
				{
					"internalType": "uint256",
					"name": "newStakingSpeed",
					"type": "uint256"
				}
			],
			"name": "updateStakingSpeedForAnInstrument",
			"outputs": [
				{
					"internalType": "bool",
					"name": "",
					"type": "bool"
				}
			],
			"payable": false,
			"stateMutability": "nonpayable",
			"type": "function"
		}
	]
}