{
	"data": {
		"bytecode": {
			"linkReferences": {},
			"object": "6003805460ff60a01b1916905560a060405260006080819052600455600160235534801561002c57600080fd5b506148d58061003c6000396000f3fe608060405234801561001057600080fd5b50600436106102275760003560e01c80636f610c5011610130578063be36810a116100b8578063c72c4d101161007c578063c72c4d101461071c578063d635706314610724578063eeabe79f1461074a578063f9665d4414610752578063ffffd7fb1461078057610227565b8063be36810a146106b8578063bf1678f6146106c0578063c3d1b72d146106c8578063c4d66de8146106ee578063c6a6bfb11461071457610227565b8063831449de116100ff578063831449de146105b3578063832c6c901461060b5780638d9cf864146106305780638e26fc38146106565780639a717b241461069257610227565b80636f610c50146105755780637c52b6681461057d5780637c55ccb3146105a35780637dc0d1d0146105ab57610227565b806342cbb15c116101b35780634f78deef116101825780634f78deef146104a857806352bbe658146104ce578063530e784f14610504578063570b39d01461052c578063659f73c51461053457610227565b806342cbb15c1461035e5780634dc54a381461037f5780634df859fd146104565780634f425fbb1461048257610227565b80631e7faed9116101fa5780631e7faed9146102d057806321428a12146102ed5780632df0f9a9146102f55780633e5eee46146103125780633e9552651461035657610227565b806304c663211461022c5780630d7ff8871461026c5780630ef9e9d71461029057806310fa61e6146102aa575b600080fd5b6102586004803603604081101561024257600080fd5b506001600160a01b0381351690602001356107a6565b604080519115158252519081900360200190f35b61027461088d565b604080516001600160a01b039092168252519081900360200190f35b61029861089c565b60408051918252519081900360200190f35b610298600480360360208110156102c057600080fd5b50356001600160a01b03166108a3565b610258600480360360208110156102e657600080fd5b50356108ef565b610274610956565b6102586004803603602081101561030b57600080fd5b5035610965565b6103386004803603602081101561032857600080fd5b50356001600160a01b03166109cf565b60408051938452602084019290925282820152519081900360600190f35b6102986109f7565b6103666109fd565b6040805163ffffffff9092168252519081900360200190f35b6103a56004803603602081101561039557600080fd5b50356001600160a01b0316610a01565b6040518080602001876001600160a01b03166001600160a01b0316815260200186815260200185151515158152602001848152602001838152602001828103825288818151815260200191508051906020019080838360005b838110156104165781810151838201526020016103fe565b50505050905090810190601f1680156104435780820380516001836020036101000a031916815260200191505b5097505050505050505060405180910390f35b6102986004803603604081101561046c57600080fd5b506001600160a01b038135169060200135610aef565b6102586004803603602081101561049857600080fd5b50356001600160a01b0316610b1b565b610258600480360360208110156104be57600080fd5b50356001600160a01b0316610bc2565b610258600480360360608110156104e457600080fd5b506001600160a01b03813581169160208101359091169060400135610dd2565b61052a6004803603602081101561051a57600080fd5b50356001600160a01b03166112a5565b005b6102986112c7565b61053c6112cd565b604051808261030080838360005b8381101561056257818101518382015260200161054a565b5050505090500191505060405180910390f35b61029861130a565b6102586004803603602081101561059357600080fd5b50356001600160a01b0316611341565b61052a6113e0565b6102746113ea565b6105bb6113f9565b60408051602080825283518183015283519192839290830191858101910280838360005b838110156105f75781810151838201526020016105df565b505050509050019250505060405180910390f35b6102586004803603604081101561062157600080fd5b5080351515906020013561145a565b6103666004803603602081101561064657600080fd5b50356001600160a01b031661158e565b6102986004803603608081101561066c57600080fd5b506001600160a01b038135811691602081013582169160408201351690606001356115b2565b610298600480360360208110156106a857600080fd5b50356001600160a01b031661192a565b61029861196d565b610258611973565b610258600480360360208110156106de57600080fd5b50356001600160a01b03166119c8565b61052a6004803603602081101561070457600080fd5b50356001600160a01b03166119e6565b610298611a6c565b610274611aee565b61053c6004803603602081101561073a57600080fd5b50356001600160a01b0316611afd565b610298611b50565b6102586004803603604081101561076857600080fd5b506001600160a01b0381358116916020013516611b56565b6102586004803603602081101561079657600080fd5b50356001600160a01b0316611f3e565b6001600160a01b03821660009081526006602052604081205460ff16610801576040805162461bcd60e51b81526020600482015260196024820152600080516020614881833981519152604482015290519081900360640190fd5b6001600160a01b03831660009081526022602052604090206002018054908390557f60ab6bb8f64f97a68e803dc67f55f0a08732fe0db1e669b39f3b45dd35d9580d84828561084e6109fd565b604080516001600160a01b03909516855260208501939093528383019190915263ffffffff166060830152519081900360800190a15060019392505050565b6003546001600160a01b031681565b6004545b90565b6001600160a01b03811660009081526006602052604081205460ff16156108e657506001600160a01b0381166000908152600660205260409020600701546108ea565b5060005b919050565b60006108f9611973565b5060238054908390557f8574a512a3537f7f97e2c60304507aa6816866c2d1fed5ffa1815cb01d2b1e44818461092d6109fd565b60408051938452602084019290925263ffffffff1682820152519081900360600190a150919050565b6001546001600160a01b031681565b600061096f611973565b5060218054908390557fb35ae78d38c9ad12feab06bfa59b6d4364d33e312f0e00ffb1776f0c60e5ff7a81846109a36109fd565b60408051938452602084019290925263ffffffff1682820152519081900360600190a150600192915050565b6001600160a01b03166000908152602260205260409020805460018201546002909201549092565b60245490565b4390565b6001600160a01b03818116600090815260066020908152604080832060028082015460038301546004840154600585015460078601546001968701805489516101009982161599909902600019011696909604601f81018a90048a0288018a0190985287875260609a8a998a998a998a9998909316969560ff1694939291889190830182828015610ad35780601f10610aa857610100808354040283529160200191610ad3565b820191906000526020600020905b815481529060010190602001808311610ab657829003601f168201915b5050505050955095509550955095509550955091939550919395565b6001600160a01b03821660009081526007602052604081208260188110610b1257fe5b01549392505050565b6001600160a01b03811660009081526006602052604081205460ff16610b76576040805162461bcd60e51b81526020600482015260196024820152600080516020614881833981519152604482015290519081900360640190fd5b610b7f82612112565b610bba5760405162461bcd60e51b815260040180806020018281038252602d8152602001806146e5602d913960400191505060405180910390fd5b506001919050565b6001600160a01b03811660009081526006602052604081205460ff16610c1d576040805162461bcd60e51b81526020600482015260196024820152600080516020614881833981519152604482015290519081900360640190fd5b6001600160a01b03821660009081526006602052604090206004015460ff16610c775760405162461bcd60e51b81526004018080602001828103825260438152602001806146146043913960600191505060405180910390fd5b610c7f611973565b50610c886142bd565b6001600160a01b0383166000908152600760205260409020610cac908260186142dc565b506001600160a01b0383166000908152600760209081526040808320601801805463ffffffff191690556006909152812060048101805460ff191690557f95eb8164ada5bbd9b16bb9918bcf97960c1d006f76427f3faf2bfb2ebc963e4291859160010190610d196109fd565b604080516001600160a01b03861681528315159181019190915263ffffffff821660608201526080602082018181528554600260001961010060018416150201909116049183018290529060a083019086908015610db85780601f10610d8d57610100808354040283529160200191610db8565b820191906000526020600020905b815481529060010190602001808311610d9b57829003601f168201915b50509550505050505060405180910390a150600192915050565b6001600160a01b03831660009081526006602052604081205460ff1615610e40576040805162461bcd60e51b815260206004820152601d60248201527f496e737472756d656e7420616c726561647920737570706f727465642e000000604482015290519081900360640190fd5b600580546001808201835560009283527f036b6384b5eca791c62761152d0c79bb0604c104a5fb6f4eb0703f3154bb3db090910180546001600160a01b0319166001600160a01b0388811691909117909155604080516101208101825292835280516306fdde0360e01b81529051879460208501938616926306fdde039260048083019392829003018186803b158015610ed957600080fd5b505afa158015610eed573d6000803e3d6000fd5b505050506040513d6000823e601f3d908101601f191682016040526020811015610f1657600080fd5b8101908080516040519392919084640100000000821115610f3657600080fd5b908301906020820185811115610f4b57600080fd5b8251640100000000811182820188101715610f6557600080fd5b82525081516020918201929091019080838360005b83811015610f92578181015183820152602001610f7a565b50505050905090810190601f168015610fbf5780820380516001836020036101000a031916815260200191505b506040525050508152602001856001600160a01b031681526020018481526020016000151581526020016ec097ce7bc90715b34b9f100000000081526020016110066109fd565b63ffffffff1681526020016ec097ce7bc90715b34b9f1000000000815260200161102e6109fd565b63ffffffff1690526001600160a01b03861660009081526006602090815260409091208251815460ff191690151517815582820151805191926110799260018501929091019061431a565b50604082810151600283810180546001600160a01b0319166001600160a01b039384161790556060808601516003860155608086015160048601805460ff191691151591909117905560a0860151600586015560c0860151600686015560e0860151600780870191909155610100909601516008909501949094558251938401835260008085526020808601828152868601838152948d16835260228252858320965187555160018701559251949091019390935592909252206018015463ffffffff166111a8576111496142bd565b604080518082018252828152600060208083018290526001600160a01b038a1682526007905291909120815161118290829060186142dc565b50602091909101516018909101805463ffffffff191663ffffffff909216919091179055505b6001600160a01b0385811660008181526006602090815260409182902082519384529183018790529287166060830152436080830181905260a093830184815260019283018054600294811615610100026000190116939093049484018590527f147287eb47162017688bf4e80590ac2faa6656751fd480b76fa8f7612910141a948a9489938b93909260c0830190879080156112865780601f1061125b57610100808354040283529160200191611286565b820191906000526020600020905b81548152906001019060200180831161126957829003601f168201915b5050965050505050505060405180910390a160019150505b9392505050565b600280546001600160a01b0319166001600160a01b0392909216919091179055565b60215490565b6112d56142bd565b604080516103008101918290529060089060189082845b8154815260200190600101908083116112ec575b5050505050905090565b600080611319436024546125a1565b905080602354111561133957611331602354826125a1565b9150506108a0565b600091505090565b6001600160a01b03811660009081526006602052604081205460ff1661139c576040805162461bcd60e51b81526020600482015260196024820152600080516020614881833981519152604482015290519081900360640190fd5b6113a5826125db565b610bba5760405162461bcd60e51b815260040180806020018281038252602d8152602001806147e9602d913960400191505060405180910390fd5b6113e8612a30565b565b6002546001600160a01b031681565b6060600580548060200260200160405190810160405280929190818152602001828054801561130057602002820191906000526020600020905b81546001600160a01b03168152600190910190602001808311611433575050505050905090565b6000662386f26fc1000082116114a15760405162461bcd60e51b815260040180806020018281038252603c81526020018061448d603c913960400191505060405180910390fd5b670de0b6b3a76400008211156114e85760405162461bcd60e51b81526004018080602001828103825260348152602001806146906034913960400191505060405180910390fd5b6114f0611973565b506040805160208101909152829052600482905582611517576003805460ff60a01b191690555b6003805460ff60a01b1916600160a01b908117918290556004547ff27fc072c7772962292b4f5221d157312241ae2757928921516bb837b3d1e7bc929190910460ff16906115636109fd565b604080519315158452602084019290925263ffffffff1682820152519081900360600190a192915050565b6001600160a01b031660009081526007602052604090206018015463ffffffff1690565b600154604080516370a0823160e01b81523060048201529051600092839285926001600160a01b03909216916370a0823191602480820192602092909190829003018186803b15801561160457600080fd5b505afa158015611618573d6000803e3d6000fd5b505050506040513d602081101561162e57600080fd5b5051111561191e576001546040805163a9059cbb60e01b81526001600160a01b038781166004830152602482018790529151919092169163a9059cbb9160448083019260209291908290030181600087803b15801561168c57600080fd5b505af11580156116a0573d6000803e3d6000fd5b505050506040513d60208110156116b657600080fd5b50516116f35760405162461bcd60e51b815260040180806020018281038252602c815260200180614767602c913960400191505060405180910390fd5b6000809054906101000a90046001600160a01b03166001600160a01b0316631db4f5696040518163ffffffff1660e01b815260040160206040518083038186803b15801561174057600080fd5b505afa158015611754573d6000803e3d6000fd5b505050506040513d602081101561176a57600080fd5b50516001600160a01b03858116911614156118cf5760008060009054906101000a90046001600160a01b03166001600160a01b0316631db4f5696040518163ffffffff1660e01b815260040160206040518083038186803b1580156117ce57600080fd5b505afa1580156117e2573d6000803e3d6000fd5b505050506040513d60208110156117f857600080fd5b50516040805163660ecbc960e01b81526001600160a01b0389811660048301526024820188905291519293509083169163660ecbc9916044808201926020929091908290030181600087803b15801561185057600080fd5b505af1158015611864573d6000803e3d6000fd5b505050506040513d602081101561187a57600080fd5b50516118cd576040805162461bcd60e51b815260206004820152601f60248201527f4661696c656420746f20757064617465205374616b65642062616c616e636500604482015290519081900360640190fd5b505b604080516001600160a01b0380891682528716602082015280820185905290517f922c86da5ba82864ddc6d719ccdd80a788323e2a4dc17cfe258d00ba885b2bec9181900360600190a1611921565b50815b95945050505050565b6001600160a01b03811660009081526006602052604081205460ff16156108e657506001600160a01b0381166000908152600660205260409020600501546108ea565b60235490565b60008043905060006119a08260245460405180606001604052806036815260200161456f60369139612bd4565b905060235481106119bf576119b3612c6b565b506024555060016108a0565b60009250505090565b6001600160a01b031660009081526006602052604090205460ff1690565b600080546001600160a01b0319166001600160a01b038316179055611a09612a30565b600054600154600254600354604080516001600160a01b039586168152938516602085015291841683830152909216606082015290517f0c1ebb533f3d7d1a5b07028f3f2b3cd0d8b9912e1e524eea0afa6873c6fff6499181900360800190a150565b600154604080516370a0823160e01b8152306004820152905160009283926001600160a01b03909116916370a0823191602480820192602092909190829003018186803b158015611abc57600080fd5b505afa158015611ad0573d6000803e3d6000fd5b505050506040513d6020811015611ae657600080fd5b505191505090565b6000546001600160a01b031681565b611b056142bd565b6001600160a01b0382166000908152600760205260409081902081516103008101928390529160189082845b815481526020019060010190808311611b315750505050509050919050565b60055490565b6001600160a01b03821660009081526006602052604081205460ff16611bc3576040805162461bcd60e51b815260206004820152601d60248201527f496e737472756d656e7420616c726561647920737570706f727465642e000000604482015290519081900360640190fd5b600554600090815b81811015611c1557856001600160a01b031660058281548110611bea57fe5b6000918252602090912001546001600160a01b03161415611c0d57809250611c15565b600101611bcb565b5060056001820381548110611c2657fe5b600091825260209091200154600580546001600160a01b039092169184908110611c4c57fe5b600091825260209091200180546001600160a01b0319166001600160a01b03929092169190911790556005805490611c88906000198301614387565b506005546000198201908114611ccf5760405162461bcd60e51b81526004018080602001828103825260468152602001806144f76046913960600191505060405180910390fd5b606060066000886001600160a01b03166001600160a01b031681526020019081526020016000206001018054600181600116156101000203166002900480601f016020809104026020016040519081016040528092919081815260200182805460018160011615610100020316600290048015611d8d5780601f10611d6257610100808354040283529160200191611d8d565b820191906000526020600020905b815481529060010190602001808311611d7057829003601f168201915b505050506001600160a01b0389166000908152600660205260408120805460ff191681559293509050611dc360018301826143b0565b50600281810180546001600160a01b031916905560006003830181905560048301805460ff191690556005830181905560068301819055600780840182905560089093018190556001600160a01b038a1681526022602090815260408083208381556001810184905590930182905592909252812090611e4382826143f7565b6018820160006101000a81549063ffffffff021916905550507f65f75a1dd08cc1db84fba8e6f47ee955c0a2d816b86a642be1f1f7867bf38ee58787834360405180856001600160a01b03166001600160a01b03168152602001846001600160a01b03166001600160a01b0316815260200180602001838152602001828103825284818151815260200191508051906020019080838360005b83811015611ef4578181015183820152602001611edc565b50505050905090810190601f168015611f215780820380516001836020036101000a031916815260200191505b509550505050505060405180910390a15060019695505050505050565b6001600160a01b03811660009081526006602052604081205460ff16611f99576040805162461bcd60e51b81526020600482015260196024820152600080516020614881833981519152604482015290519081900360640190fd5b6001600160a01b03821660009081526006602052604090206004015460ff1615611ff45760405162461bcd60e51b815260040180806020018281038252603c8152602001806145a5603c913960400191505060405180910390fd5b611ffc611973565b506001600160a01b038216600090815260066020526040902060048101805460ff19166001908117918290557f95eb8164ada5bbd9b16bb9918bcf97960c1d006f76427f3faf2bfb2ebc963e4292859291019060ff1661205a6109fd565b604080516001600160a01b03861681528315159181019190915263ffffffff821660608201526080602082018181528554600260001961010060018416150201909116049183018290529060a0830190869080156120f95780601f106120ce576101008083540402835291602001916120f9565b820191906000526020600020905b8154815290600101906020018083116120dc57829003601f168201915b50509550505050505060405180910390a1506001919050565b600061211c6109fd565b63ffffffff1660066000846001600160a01b03166001600160a01b03168152602001908152602001600020600601541415612159575060016108ea565b6001600160a01b038216600090815260066020908152604080832060228352818420805460029091015483516060810190945260338085529295946121aa949293919291906145e190830139613915565b905060006121b66109fd565b63ffffffff16905060008360050154905060006121f083866006015460405180606001604052806033815260200161481660339139612bd4565b6006860154604080516001600160a01b038b1681526020810188905280820186905260608101929092526080820186905260a08201839052519192507f33c3c4fbbf284318eed04c3cf9daac06e5923d93fe4a2be263a7ef9ca04a61d1919081900360c00190a16000811180156122675750600084115b156123dc5760006122788286613973565b6001600160a01b03808a1660009081526006602090815260408083206002015481516318160ddd60e01b81529151959650929492909316926318160ddd9260048083019392829003018186803b1580156122d157600080fd5b505afa1580156122e5573d6000803e3d6000fd5b505050506040513d60208110156122fb57600080fd5b50519050612307614406565b60008211612324576040518060200160405280600081525061232e565b61232e83836139b5565b9050612338614406565b61235460405180602001604052808b60050154815250836139f3565b90507fe95dd326fd60b246147ca887c909941be4959f1d69568fada2de48030966a6b68b84868560000151856000015160405180866001600160a01b03166001600160a01b031681526020018581526020018481526020018381526020018281526020019550505050505060405180910390a1516005890155505050600685018390556123e4565b600685018390555b6123ec614419565b6001600160a01b038816600090815260066020908152604091829020825161012081018452815460ff1615158152600180830180548651600261010094831615949094026000190190911692909204601f81018690048602830186019096528582529194929385810193919291908301828280156124ab5780601f10612480576101008083540402835291602001916124ab565b820191906000526020600020905b81548152906001019060200180831161248e57829003601f168201915b505050505081526020016002820160009054906101000a90046001600160a01b03166001600160a01b03166001600160a01b03168152602001600382015481526020016004820160009054906101000a900460ff1615151515815260200160058201548152602001600682015481526020016007820154815260200160088201548152505090507f04154c6dbc61d39e4a9bd51dfa697154d646e7b335507287d93212c0382de097888260a001518360c0015160405180846001600160a01b03166001600160a01b03168152602001838152602001828152602001935050505060405180910390a1506001979650505050505050565b600061129e8383604051806040016040528060158152602001747375627472616374696f6e20756e646572666c6f7760581b815250612bd4565b60006125e56109fd565b6001600160a01b03831660009081526006602052604090206008015463ffffffff919091161415612618575060016108ea565b6001600160a01b0382166000908152600660209081526040808320602283528184206001810154600290910154835160608101909452603380855292959461266c949293919291906145e190830139613915565b905060006126786109fd565b63ffffffff16905060008360070154905060006126b283866008015460405180606001604052806033815260200161471260339139612bd4565b6008860154604080516001600160a01b038b1681526020810188905280820186905260608101929092526080820186905260a08201839052519192507fa058dfd6c04d9834195c4b80ae7ca35418d9d07d684cdeb45972eec16c1b336e919081900360c00190a16000811180156127295750600084115b1561289e57600061273a8286613973565b6001600160a01b03808a1660009081526006602090815260408083206002015481516318160ddd60e01b81529151959650929492909316926318160ddd9260048083019392829003018186803b15801561279357600080fd5b505afa1580156127a7573d6000803e3d6000fd5b505050506040513d60208110156127bd57600080fd5b505190506127c9614406565b600082116127e657604051806020016040528060008152506127f0565b6127f083836139b5565b90506127fa614406565b61281660405180602001604052808b60070154815250836139f3565b90507f0be37f70e594e12d41728104a3b673f3291f124ea114f134a0880e6f5f84b16c8b84868560000151856000015160405180866001600160a01b03166001600160a01b031681526020018581526020018481526020018381526020018281526020019550505050505060405180910390a1516007890155505050600885018390556128a6565b600885018390555b6128ae614419565b6001600160a01b038816600090815260066020908152604091829020825161012081018452815460ff1615158152600180830180548651600261010094831615949094026000190190911692909204601f810186900486028301860190965285825291949293858101939192919083018282801561296d5780601f106129425761010080835404028352916020019161296d565b820191906000526020600020905b81548152906001019060200180831161295057829003601f168201915b505050918352505060028201546001600160a01b039081166020808401919091526003840154604080850191909152600485015460ff16151560608086019190915260058601546080860152600686015460a0860152600786015460c086015260089095015460e094850152928501516101008601518451938f168452918301528183015290519293507f3186aada172c7dfc5268ed7afcfe1af6f94d695b869760b6c2f90d092256056e929081900390910190a1506001979650505050505050565b6000809054906101000a90046001600160a01b03166001600160a01b031663841aa40c6040518163ffffffff1660e01b815260040160206040518083038186803b158015612a7d57600080fd5b505afa158015612a91573d6000803e3d6000fd5b505050506040513d6020811015612aa757600080fd5b5051600180546001600160a01b0319166001600160a01b0392831617905560005460408051631f94a27560e31b81529051919092169163fca513a8916004808301926020929190829003018186803b158015612b0257600080fd5b505afa158015612b16573d6000803e3d6000fd5b505050506040513d6020811015612b2c57600080fd5b5051600280546001600160a01b0319166001600160a01b039283161790556000546040805163076b7fbb60e51b81529051919092169163ed6ff760916004808301926020929190829003018186803b158015612b8757600080fd5b505afa158015612b9b573d6000803e3d6000fd5b505050506040513d6020811015612bb157600080fd5b5051600380546001600160a01b0319166001600160a01b03909216919091179055565b60008184841115612c635760405162461bcd60e51b81526004018080602001828103825283818151815260200191508051906020019080838360005b83811015612c28578181015183820152602001612c10565b50505050905090810190601f168015612c555780820380516001836020036101000a031916815260200191505b509250505060405180910390fd5b505050900390565b60606005805480602002602001604051908101604052809291908181526020018280548015612cc357602002820191906000526020600020905b81546001600160a01b03168152600190910190602001808311612ca5575b5050602054939450600093612d0d9350439250600891506001600160e01b031660188110612ced57fe5b01546040518060600160405280602181526020016146c460219139612bd4565b60205490915043906008906001600160e01b031660188110612d2b57fe5b01556020547fd54b3c8dde4fe116ee9cf6976b328b65c622d171e8a73017473b4257bd5bf6f8906001600160e01b031660088160188110612d6857fe5b0154604080516001600160e01b0390931683526020830191909152818101849052436060830152519081900360800190a1612da1613a18565b612ddc5760405162461bcd60e51b81526004018080602001828103825260228152602001806147456022913960400191505060405180910390fd5b60608251604051908082528060200260200182016040528015612e1957816020015b612e06614406565b815260200190600190039081612dfe5790505b50905060608351604051908082528060200260200182016040528015612e5957816020015b612e46614406565b815260200190600190039081612e3e5790505b509050612e64614406565b50604080516020810190915260008082525b8551811015613605576000868281518110612e8d57fe5b60200260200101519050612e9f614406565b60408051602080820183526001600160a01b038516600090815260078252929092209154909182916001600160e01b031660188110612eda57fe5b015490529050612ee8614406565b60408051602080820180845260025463b3596f0760e01b9091526001600160a01b03878116602485015293519293849391169163b3596f07916044808601929190818703018186803b158015612f3d57600080fd5b505afa158015612f51573d6000803e3d6000fd5b505050506040513d6020811015612f6757600080fd5b505190528051909150612fab5760405162461bcd60e51b81526004018080602001828103825260398152602001806146576039913960400191505060405180910390fd5b80516001600160a01b038416600090815260076020908152604090912090546001600160e01b031660188110612fdd57fe5b015581516001600160a01b038416600090815260076020908152604090912090547f4c4cb8d799ad60c5e77071f11a367ff22e59c2de36f996f1daf8a2f99b1826a592869290916001600160e01b03166018811061303757fe5b015460208054604080516001600160a01b03909616865291850193909352838101919091526001600160e01b039091166060830152519081900360800190a16001600160a01b03831660009081526006602052604090206004015460ff1615806130c357506001600160a01b038316600090815260076020526040902060189081015463ffffffff1614155b1561322e57604051806020016040528060008152508785815181106130e457fe5b60200260200101819052506040518060200160405280600081525086858151811061310b57fe5b6020908102919091018101919091526001600160a01b038416600090815260079091526040902060189081015463ffffffff161015613229576001600160a01b038316600090815260076020908152604091829020601801548251808401909352601e83527f507269636520436f756e746572206164646974696f6e206661696c65642e00009183019190915263ffffffff16906131ad908290600190613915565b6001600160a01b038516600090815260076020908152604091829020601801805463ffffffff191663ffffffff9485161790819055815483519190941681526001600160e01b039093169083015280517f696a3915458c89a47768bc2632c577bf3483b15461af15c18411ad653c4f67af9281900390910190a1505b613577565b6132388282613a71565b156133fd576001600160a01b0380841660009081526006602090815260408083206002015481516318160ddd60e01b81529151939416926318160ddd92600480840193919291829003018186803b15801561329257600080fd5b505afa1580156132a6573d6000803e3d6000fd5b505050506040513d60208110156132bc57600080fd5b5051905060006132ca614406565b6132d48585613a78565b9150915060006132e2614406565b6132ec8386613ab4565b80516001600160a01b03808c1660008181526006602090815260409182902060030154600254835163a9ec70d160e01b81526004810195909552925197995095975061338f96949594919093169263a9ec70d19260248082019391829003018186803b15801561335b57600080fd5b505afa15801561336f573d6000803e3d6000fd5b505050506040513d602081101561338557600080fd5b505160ff16613b1c565b8c8a8151811061339b57fe5b60200260200101516000018181525050604051806020016040528060008152508b8a815181106133c757fe5b60200260200101819052506133ef8a8d8b815181106133e257fe5b6020026020010151613c79565b9a5061357795505050505050565b6001600160a01b0380841660009081526006602090815260408083206002015481516318160ddd60e01b81529151939416926318160ddd92600480840193919291829003018186803b15801561345257600080fd5b505afa158015613466573d6000803e3d6000fd5b505050506040513d602081101561347c57600080fd5b50519050600061348a614406565b6134948486613a78565b9150915060006134a2614406565b6134ac8386613ab4565b80516001600160a01b03808c1660008181526006602090815260409182902060030154600254835163a9ec70d160e01b81526004810195909552925197995095975061351b96949594919093169263a9ec70d19260248082019391829003018186803b15801561335b57600080fd5b8b8a8151811061352757fe5b60200260200101516000018181525050604051806020016040528060008152508c8a8151811061355357fe5b602002602001018190525061356e8a8c8b815181106133e257fe5b9a505050505050505b7facb876830293015bcdcd10daf8faefd0428853121b7c78b2768c3669a1f7d8f0838886815181106135a557fe5b6020026020010151600001518887815181106135bd57fe5b602090810291909101810151518951604080516001600160a01b03909616865292850193909352838201526060830191909152519081900360800190a1505050600101612e76565b50602154600354600160a01b900460ff1615613645576000613625614406565b61362f8488613c98565b915091506136408160000151613cb3565b925050505b60005b86518110156138bb57600087828151811061365f57fe5b6020908102919091018101516001600160a01b038116600090815260229092526040909120805460019091015491925090613698614406565b8651600090156137585760008a87815181106136b057fe5b6020026020010151600001511115613713576136df8a87815181106136d157fe5b602002602001015189613ebf565b925090506136ed8783613ee2565b6001600160a01b0386166000908152602260205260408120918255600190910155613753565b6137228987815181106136d157fe5b925090506137308783613ee2565b6001600160a01b0386166000908152602260205260408120600181019290925590555b613779565b6001600160a01b038516600090815260226020526040812060018101829055555b81516001600160a01b038616600081815260226020908152604091829020805460019091015483519485529184018c9052838301949094526060830193909352608082019290925290517f2d0a046e2caddc2b9944fad523cdb42eeef62cd1f88a134ee4663c80d58ef9e29181900360a00190a16001600160a01b03851660008181526022602090815260409182902054825193845290830187905282820152436060830152517fceeb4301c137f855dbeb32ef25b069995662ef3fa12fd7c698c74aa872c2546e9181900360800190a16001600160a01b03851660008181526022602090815260409182902060010154825193845290830186905282820152436060830152517f02545f2f6f97091236978cc7101e8ba295a94bdb80e4f0f9c4bfbeafbd3bf1b89181900360800190a1505060019093019250613648915050565b506138c4613f0a565b61390d576040805162461bcd60e51b8152602060048201526015602482015274155c19185d1a5b99c810d31bd8dac811985a5b1959605a1b604482015290519081900360640190fd5b505050505050565b6000838301828582101561396a5760405162461bcd60e51b8152602060048201818152835160248401528351909283926044909101919085019080838360008315612c28578181015183820152602001612c10565b50949350505050565b600061129e83836040518060400160405280601781526020017f6d756c7469706c69636174696f6e206f766572666c6f77000000000000000000815250614019565b6139bd614406565b60405180602001604052806139ea6139e4866ec097ce7bc90715b34b9f1000000000613973565b8561408f565b90529392505050565b6139fb614406565b60405180602001604052806139ea856000015185600001516140c2565b6000805b600554811015613a6957600060058281548110613a3557fe5b6000918252602090912001546001600160a01b03169050613a5581612112565b50613a5f816125db565b5050600101613a1c565b506001905090565b5190511190565b6000613a82614406565b600080613a97866000015186600001516140f8565b6040805160208101909152908152909450925050505b9250929050565b6000613abe614406565b600080613acf86600001518661411b565b90925090506000826003811115613ae257fe5b14613b0157506040805160208101909152600081529092509050613aad565b60408051602081019091529081526000969095509350505050565b600080613b5f84846040518060400160405280601a81526020017f446563696d616c73206164646974696f6e206f766572666c6f77000000000000815250613915565b905060008060188310613bc5576000613b928460186040518060600160405280602e81526020016144c9602e9139612bd4565b905080600a0a9250613bbd888460405180606001604052806032815260200161453d6032913961415a565b915050613c1a565b6000613beb6018856040518060600160405280602f8152602001614793602f9139612bd4565b905080600a0a9250613c16888460405180606001604052806038815260200161484960389139614019565b9150505b6040805188815260208101889052808201879052606081018590526080810184905260a0810183905290517f30a0b12009e9070c500b3df0a206a883d9d8ac7b4d5c09498e5dd7c0d11a645d9181900360c00190a19695505050505050565b6000613c83614406565b600080613a97866000015186600001516141bc565b6000613ca2614406565b600080613acf8660000151866141e2565b6021546002546001546040805163b3596f0760e01b81526001600160a01b0392831660048201529051600094938593169163b3596f07916024808301926020929190829003018186803b158015613d0957600080fd5b505afa158015613d1d573d6000803e3d6000fd5b505050506040513d6020811015613d3357600080fd5b5051602154909150600090613d49908390613973565b60408051602081019091526004548152909150600090613d6a908790613ee2565b90506000613d9187836040518060600160405280602781526020016147c260279139613915565b9050831580613da05750808311155b15613e10576021546040805191825260208201879052818101869052606082018590526080820189905260a0820184905260c08201839052517fb193e798a428f589d26c41c53fee578eb242c6090f5193e6188bc323fdcc3cb39181900360e00190a184955050505050506108ea565b613e5081856040518060400160405280601d81526020017f4d6178205370656564206469766973696f6e2067617665206572726f7200000081525061415a565b602154604080519182526020820183905281810187905260608201869052608082018a905260a0820185905260c08201849052519196507fb193e798a428f589d26c41c53fee578eb242c6090f5193e6188bc323fdcc3cb3919081900360e00190a184955050505050506108ea565b6000613ec9614406565b83518351613ed7919061420d565b915091509250929050565b6000670de0b6b3a7640000613efb848460000151613973565b81613f0257fe5b049392505050565b6020546000906001600160e01b031660171415613f3657602080546001600160e01b0319169055613fb6565b613f95602060009054906101000a90046001600160e01b03166001600160e01b031660016040518060400160405280601a81526020017f637572436c6f636b203a204164646974696f6e204661696c6564000000000000815250613915565b602080546001600160e01b0319166001600160e01b03929092169190911790555b6020547f1f5c4f82a071a103f9b71cad79752570e576a18239107229bd7679cc8594c354906001600160e01b0316613fec6109fd565b604080516001600160e01b03909316835263ffffffff90911660208301528051918290030190a150600190565b6000831580614026575082155b156140335750600061129e565b8383028385828161404057fe5b0414839061396a5760405162461bcd60e51b8152602060048201818152835160248401528351909283926044909101919085019080838360008315612c28578181015183820152602001612c10565b600061129e83836040518060400160405280600e81526020016d646976696465206279207a65726f60901b81525061415a565b600061129e8383604051806040016040528060118152602001706164646974696f6e206f766572666c6f7760781b815250613915565b60008083831161410f575060009050818303613aad565b50600390506000613aad565b6000808361412e57506000905080613aad565b8383028385828161413b57fe5b041461414f57506002915060009050613aad565b600092509050613aad565b600081836141a95760405162461bcd60e51b8152602060048201818152835160248401528351909283926044909101919085019080838360008315612c28578181015183820152602001612c10565b508284816141b357fe5b04949350505050565b6000808383018481106141d457600092509050613aad565b506002915060009050613aad565b600080826141f65750600190506000613aad565b600083858161420157fe5b04915091509250929050565b6000614217614406565b60008061422c86670de0b6b3a764000061411b565b9092509050600082600381111561423f57fe5b1461425e57506040805160208101909152600081529092509050613aad565b60008061426b83886141e2565b9092509050600082600381111561427e57fe5b146142a057506040805160208101909152600081529094509250613aad915050565b604080516020810190915290815260009890975095505050505050565b6040518061030001604052806018906020820280388339509192915050565b826018810192821561430a579160200282015b8281111561430a5782518255916020019190600101906142ef565b50614316929150614472565b5090565b828054600181600116156101000203166002900490600052602060002090601f016020900481019282601f1061435b57805160ff191683800117855561430a565b8280016001018555821561430a579182018281111561430a5782518255916020019190600101906142ef565b8154818355818111156143ab576000838152602090206143ab918101908301614472565b505050565b50805460018160011615610100020316600290046000825580601f106143d657506143f4565b601f0160209004906000526020600020908101906143f49190614472565b50565b506143f4906018810190614472565b6040518060200160405280600081525090565b6040518061012001604052806000151581526020016060815260200160006001600160a01b0316815260200160008152602001600015158152602001600081526020016000815260200160008152602001600081525090565b6108a091905b80821115614316576000815560010161447856fe546865206e65772050726f6669742050657263656e74616765206d7573742062652067726561746572207468616e20302e3031653138202831252920446563696d616c73207375627472616374696f6e20286578747261446563696d616c732920756e646572666c6f77496e737472756d656e74206e6f742070726f7065726c792072656d6f7665642066726f6d20746865206c697374206f6620696e737472756d656e747320737570706f727465644c6f737320416d6f756e74204469766973696f6e20746f2061646a75737420666f7220646563696d616c73206661696c656452656672657368205349474820537065656473203a205375627472616374696f6e20756e646572666c6f7720666f7220626c6f636b73496e737472756d656e7420616c726561647920636f766572656420756e646572205349474820446973747269627574696f6e204d656368616e69736d537570706c696572207370656564206164646974696f6e2077697468207374616b696e67207370656564206f766572666c6f77496e737472756d656e7420616c7265616479206e6f7420737570706f7274656420627920746865205349474820446973747269627574696f6e204d656368616e69736d7265667265736853494748537065656473496e7465726e616c203a204f7261636c652072657475726e656420496e76616c6964205072696365546865206e657720537570706c69657220526174696f206d757374206265206c657373207468616e20316531382028313030252944656c7461426c6f636b7320726573756c74656420696e20556e646572666c6f775570646174696e67205369676820537570706c7920496e6465786573206f7065726174696f6e206661696c656475706461746553494748426f72726f77496e646578203a20426c6f636b205375627472616374696f6e20556e646572666c6f775570646174696e6720496e737472756d656e7420496e6465786573204661696c65644661696c656420746f207472616e736665722061636375726564205349474820746f2074686520757365722e446563696d616c73207375627472616374696f6e20286e6565646564446563696d616c732920756e646572666c6f77506f74656e7469616c206c6f73736573206164646974696f6e2067617665206f766572666c6f775570646174696e67205369676820426f72726f7720496e6465786573206f7065726174696f6e206661696c656475706461746553494748537570706c79496e646578203a20426c6f636b205375627472616374696f6e20556e646572666c6f774c6f737320416d6f756e74204d756c7469706c69636174696f6e20746f2061646a75737420666f7220646563696d616c73206661696c6564496e737472756d656e74206e6f7420737570706f727465642e00000000000000a265627a7a72315820e38401d3aaf677bbcc87f4eabee1d5f179e24b27128847e43d14382709a0add364736f6c63430005110032",
			"opcodes": "PUSH1 0x3 DUP1 SLOAD PUSH1 0xFF PUSH1 0xA0 SHL NOT AND SWAP1 SSTORE PUSH1 0xA0 PUSH1 0x40 MSTORE PUSH1 0x0 PUSH1 0x80 DUP2 SWAP1 MSTORE PUSH1 0x4 SSTORE PUSH1 0x1 PUSH1 0x23 SSTORE CALLVALUE DUP1 ISZERO PUSH2 0x2C JUMPI PUSH1 0x0 DUP1 REVERT JUMPDEST POP PUSH2 0x48D5 DUP1 PUSH2 0x3C PUSH1 0x0 CODECOPY PUSH1 0x0 RETURN INVALID PUSH1 0x80 PUSH1 0x40 MSTORE CALLVALUE DUP1 ISZERO PUSH2 0x10 JUMPI PUSH1 0x0 DUP1 REVERT JUMPDEST POP PUSH1 0x4 CALLDATASIZE LT PUSH2 0x227 JUMPI PUSH1 0x0 CALLDATALOAD PUSH1 0xE0 SHR DUP1 PUSH4 0x6F610C50 GT PUSH2 0x130 JUMPI DUP1 PUSH4 0xBE36810A GT PUSH2 0xB8 JUMPI DUP1 PUSH4 0xC72C4D10 GT PUSH2 0x7C JUMPI DUP1 PUSH4 0xC72C4D10 EQ PUSH2 0x71C JUMPI DUP1 PUSH4 0xD6357063 EQ PUSH2 0x724 JUMPI DUP1 PUSH4 0xEEABE79F EQ PUSH2 0x74A JUMPI DUP1 PUSH4 0xF9665D44 EQ PUSH2 0x752 JUMPI DUP1 PUSH4 0xFFFFD7FB EQ PUSH2 0x780 JUMPI PUSH2 0x227 JUMP JUMPDEST DUP1 PUSH4 0xBE36810A EQ PUSH2 0x6B8 JUMPI DUP1 PUSH4 0xBF1678F6 EQ PUSH2 0x6C0 JUMPI DUP1 PUSH4 0xC3D1B72D EQ PUSH2 0x6C8 JUMPI DUP1 PUSH4 0xC4D66DE8 EQ PUSH2 0x6EE JUMPI DUP1 PUSH4 0xC6A6BFB1 EQ PUSH2 0x714 JUMPI PUSH2 0x227 JUMP JUMPDEST DUP1 PUSH4 0x831449DE GT PUSH2 0xFF JUMPI DUP1 PUSH4 0x831449DE EQ PUSH2 0x5B3 JUMPI DUP1 PUSH4 0x832C6C90 EQ PUSH2 0x60B JUMPI DUP1 PUSH4 0x8D9CF864 EQ PUSH2 0x630 JUMPI DUP1 PUSH4 0x8E26FC38 EQ PUSH2 0x656 JUMPI DUP1 PUSH4 0x9A717B24 EQ PUSH2 0x692 JUMPI PUSH2 0x227 JUMP JUMPDEST DUP1 PUSH4 0x6F610C50 EQ PUSH2 0x575 JUMPI DUP1 PUSH4 0x7C52B668 EQ PUSH2 0x57D JUMPI DUP1 PUSH4 0x7C55CCB3 EQ PUSH2 0x5A3 JUMPI DUP1 PUSH4 0x7DC0D1D0 EQ PUSH2 0x5AB JUMPI PUSH2 0x227 JUMP JUMPDEST DUP1 PUSH4 0x42CBB15C GT PUSH2 0x1B3 JUMPI DUP1 PUSH4 0x4F78DEEF GT PUSH2 0x182 JUMPI DUP1 PUSH4 0x4F78DEEF EQ PUSH2 0x4A8 JUMPI DUP1 PUSH4 0x52BBE658 EQ PUSH2 0x4CE JUMPI DUP1 PUSH4 0x530E784F EQ PUSH2 0x504 JUMPI DUP1 PUSH4 0x570B39D0 EQ PUSH2 0x52C JUMPI DUP1 PUSH4 0x659F73C5 EQ PUSH2 0x534 JUMPI PUSH2 0x227 JUMP JUMPDEST DUP1 PUSH4 0x42CBB15C EQ PUSH2 0x35E JUMPI DUP1 PUSH4 0x4DC54A38 EQ PUSH2 0x37F JUMPI DUP1 PUSH4 0x4DF859FD EQ PUSH2 0x456 JUMPI DUP1 PUSH4 0x4F425FBB EQ PUSH2 0x482 JUMPI PUSH2 0x227 JUMP JUMPDEST DUP1 PUSH4 0x1E7FAED9 GT PUSH2 0x1FA JUMPI DUP1 PUSH4 0x1E7FAED9 EQ PUSH2 0x2D0 JUMPI DUP1 PUSH4 0x21428A12 EQ PUSH2 0x2ED JUMPI DUP1 PUSH4 0x2DF0F9A9 EQ PUSH2 0x2F5 JUMPI DUP1 PUSH4 0x3E5EEE46 EQ PUSH2 0x312 JUMPI DUP1 PUSH4 0x3E955265 EQ PUSH2 0x356 JUMPI PUSH2 0x227 JUMP JUMPDEST DUP1 PUSH4 0x4C66321 EQ PUSH2 0x22C JUMPI DUP1 PUSH4 0xD7FF887 EQ PUSH2 0x26C JUMPI DUP1 PUSH4 0xEF9E9D7 EQ PUSH2 0x290 JUMPI DUP1 PUSH4 0x10FA61E6 EQ PUSH2 0x2AA JUMPI JUMPDEST PUSH1 0x0 DUP1 REVERT JUMPDEST PUSH2 0x258 PUSH1 0x4 DUP1 CALLDATASIZE SUB PUSH1 0x40 DUP2 LT ISZERO PUSH2 0x242 JUMPI PUSH1 0x0 DUP1 REVERT JUMPDEST POP PUSH1 0x1 PUSH1 0x1 PUSH1 0xA0 SHL SUB DUP2 CALLDATALOAD AND SWAP1 PUSH1 0x20 ADD CALLDATALOAD PUSH2 0x7A6 JUMP JUMPDEST PUSH1 0x40 DUP1 MLOAD SWAP2 ISZERO ISZERO DUP3 MSTORE MLOAD SWAP1 DUP2 SWAP1 SUB PUSH1 0x20 ADD SWAP1 RETURN JUMPDEST PUSH2 0x274 PUSH2 0x88D JUMP JUMPDEST PUSH1 0x40 DUP1 MLOAD PUSH1 0x1 PUSH1 0x1 PUSH1 0xA0 SHL SUB SWAP1 SWAP3 AND DUP3 MSTORE MLOAD SWAP1 DUP2 SWAP1 SUB PUSH1 0x20 ADD SWAP1 RETURN JUMPDEST PUSH2 0x298 PUSH2 0x89C JUMP JUMPDEST PUSH1 0x40 DUP1 MLOAD SWAP2 DUP3 MSTORE MLOAD SWAP1 DUP2 SWAP1 SUB PUSH1 0x20 ADD SWAP1 RETURN JUMPDEST PUSH2 0x298 PUSH1 0x4 DUP1 CALLDATASIZE SUB PUSH1 0x20 DUP2 LT ISZERO PUSH2 0x2C0 JUMPI PUSH1 0x0 DUP1 REVERT JUMPDEST POP CALLDATALOAD PUSH1 0x1 PUSH1 0x1 PUSH1 0xA0 SHL SUB AND PUSH2 0x8A3 JUMP JUMPDEST PUSH2 0x258 PUSH1 0x4 DUP1 CALLDATASIZE SUB PUSH1 0x20 DUP2 LT ISZERO PUSH2 0x2E6 JUMPI PUSH1 0x0 DUP1 REVERT JUMPDEST POP CALLDATALOAD PUSH2 0x8EF JUMP JUMPDEST PUSH2 0x274 PUSH2 0x956 JUMP JUMPDEST PUSH2 0x258 PUSH1 0x4 DUP1 CALLDATASIZE SUB PUSH1 0x20 DUP2 LT ISZERO PUSH2 0x30B JUMPI PUSH1 0x0 DUP1 REVERT JUMPDEST POP CALLDATALOAD PUSH2 0x965 JUMP JUMPDEST PUSH2 0x338 PUSH1 0x4 DUP1 CALLDATASIZE SUB PUSH1 0x20 DUP2 LT ISZERO PUSH2 0x328 JUMPI PUSH1 0x0 DUP1 REVERT JUMPDEST POP CALLDATALOAD PUSH1 0x1 PUSH1 0x1 PUSH1 0xA0 SHL SUB AND PUSH2 0x9CF JUMP JUMPDEST PUSH1 0x40 DUP1 MLOAD SWAP4 DUP5 MSTORE PUSH1 0x20 DUP5 ADD SWAP3 SWAP1 SWAP3 MSTORE DUP3 DUP3 ADD MSTORE MLOAD SWAP1 DUP2 SWAP1 SUB PUSH1 0x60 ADD SWAP1 RETURN JUMPDEST PUSH2 0x298 PUSH2 0x9F7 JUMP JUMPDEST PUSH2 0x366 PUSH2 0x9FD JUMP JUMPDEST PUSH1 0x40 DUP1 MLOAD PUSH4 0xFFFFFFFF SWAP1 SWAP3 AND DUP3 MSTORE MLOAD SWAP1 DUP2 SWAP1 SUB PUSH1 0x20 ADD SWAP1 RETURN JUMPDEST PUSH2 0x3A5 PUSH1 0x4 DUP1 CALLDATASIZE SUB PUSH1 0x20 DUP2 LT ISZERO PUSH2 0x395 JUMPI PUSH1 0x0 DUP1 REVERT JUMPDEST POP CALLDATALOAD PUSH1 0x1 PUSH1 0x1 PUSH1 0xA0 SHL SUB AND PUSH2 0xA01 JUMP JUMPDEST PUSH1 0x40 MLOAD DUP1 DUP1 PUSH1 0x20 ADD DUP8 PUSH1 0x1 PUSH1 0x1 PUSH1 0xA0 SHL SUB AND PUSH1 0x1 PUSH1 0x1 PUSH1 0xA0 SHL SUB AND DUP2 MSTORE PUSH1 0x20 ADD DUP7 DUP2 MSTORE PUSH1 0x20 ADD DUP6 ISZERO ISZERO ISZERO ISZERO DUP2 MSTORE PUSH1 0x20 ADD DUP5 DUP2 MSTORE PUSH1 0x20 ADD DUP4 DUP2 MSTORE PUSH1 0x20 ADD DUP3 DUP2 SUB DUP3 MSTORE DUP9 DUP2 DUP2 MLOAD DUP2 MSTORE PUSH1 0x20 ADD SWAP2 POP DUP1 MLOAD SWAP1 PUSH1 0x20 ADD SWAP1 DUP1 DUP4 DUP4 PUSH1 0x0 JUMPDEST DUP4 DUP2 LT ISZERO PUSH2 0x416 JUMPI DUP2 DUP2 ADD MLOAD DUP4 DUP3 ADD MSTORE PUSH1 0x20 ADD PUSH2 0x3FE JUMP JUMPDEST POP POP POP POP SWAP1 POP SWAP1 DUP2 ADD SWAP1 PUSH1 0x1F AND DUP1 ISZERO PUSH2 0x443 JUMPI DUP1 DUP3 SUB DUP1 MLOAD PUSH1 0x1 DUP4 PUSH1 0x20 SUB PUSH2 0x100 EXP SUB NOT AND DUP2 MSTORE PUSH1 0x20 ADD SWAP2 POP JUMPDEST POP SWAP8 POP POP POP POP POP POP POP POP PUSH1 0x40 MLOAD DUP1 SWAP2 SUB SWAP1 RETURN JUMPDEST PUSH2 0x298 PUSH1 0x4 DUP1 CALLDATASIZE SUB PUSH1 0x40 DUP2 LT ISZERO PUSH2 0x46C JUMPI PUSH1 0x0 DUP1 REVERT JUMPDEST POP PUSH1 0x1 PUSH1 0x1 PUSH1 0xA0 SHL SUB DUP2 CALLDATALOAD AND SWAP1 PUSH1 0x20 ADD CALLDATALOAD PUSH2 0xAEF JUMP JUMPDEST PUSH2 0x258 PUSH1 0x4 DUP1 CALLDATASIZE SUB PUSH1 0x20 DUP2 LT ISZERO PUSH2 0x498 JUMPI PUSH1 0x0 DUP1 REVERT JUMPDEST POP CALLDATALOAD PUSH1 0x1 PUSH1 0x1 PUSH1 0xA0 SHL SUB AND PUSH2 0xB1B JUMP JUMPDEST PUSH2 0x258 PUSH1 0x4 DUP1 CALLDATASIZE SUB PUSH1 0x20 DUP2 LT ISZERO PUSH2 0x4BE JUMPI PUSH1 0x0 DUP1 REVERT JUMPDEST POP CALLDATALOAD PUSH1 0x1 PUSH1 0x1 PUSH1 0xA0 SHL SUB AND PUSH2 0xBC2 JUMP JUMPDEST PUSH2 0x258 PUSH1 0x4 DUP1 CALLDATASIZE SUB PUSH1 0x60 DUP2 LT ISZERO PUSH2 0x4E4 JUMPI PUSH1 0x0 DUP1 REVERT JUMPDEST POP PUSH1 0x1 PUSH1 0x1 PUSH1 0xA0 SHL SUB DUP2 CALLDATALOAD DUP2 AND SWAP2 PUSH1 0x20 DUP2 ADD CALLDATALOAD SWAP1 SWAP2 AND SWAP1 PUSH1 0x40 ADD CALLDATALOAD PUSH2 0xDD2 JUMP JUMPDEST PUSH2 0x52A PUSH1 0x4 DUP1 CALLDATASIZE SUB PUSH1 0x20 DUP2 LT ISZERO PUSH2 0x51A JUMPI PUSH1 0x0 DUP1 REVERT JUMPDEST POP CALLDATALOAD PUSH1 0x1 PUSH1 0x1 PUSH1 0xA0 SHL SUB AND PUSH2 0x12A5 JUMP JUMPDEST STOP JUMPDEST PUSH2 0x298 PUSH2 0x12C7 JUMP JUMPDEST PUSH2 0x53C PUSH2 0x12CD JUMP JUMPDEST PUSH1 0x40 MLOAD DUP1 DUP3 PUSH2 0x300 DUP1 DUP4 DUP4 PUSH1 0x0 JUMPDEST DUP4 DUP2 LT ISZERO PUSH2 0x562 JUMPI DUP2 DUP2 ADD MLOAD DUP4 DUP3 ADD MSTORE PUSH1 0x20 ADD PUSH2 0x54A JUMP JUMPDEST POP POP POP POP SWAP1 POP ADD SWAP2 POP POP PUSH1 0x40 MLOAD DUP1 SWAP2 SUB SWAP1 RETURN JUMPDEST PUSH2 0x298 PUSH2 0x130A JUMP JUMPDEST PUSH2 0x258 PUSH1 0x4 DUP1 CALLDATASIZE SUB PUSH1 0x20 DUP2 LT ISZERO PUSH2 0x593 JUMPI PUSH1 0x0 DUP1 REVERT JUMPDEST POP CALLDATALOAD PUSH1 0x1 PUSH1 0x1 PUSH1 0xA0 SHL SUB AND PUSH2 0x1341 JUMP JUMPDEST PUSH2 0x52A PUSH2 0x13E0 JUMP JUMPDEST PUSH2 0x274 PUSH2 0x13EA JUMP JUMPDEST PUSH2 0x5BB PUSH2 0x13F9 JUMP JUMPDEST PUSH1 0x40 DUP1 MLOAD PUSH1 0x20 DUP1 DUP3 MSTORE DUP4 MLOAD DUP2 DUP4 ADD MSTORE DUP4 MLOAD SWAP2 SWAP3 DUP4 SWAP3 SWAP1 DUP4 ADD SWAP2 DUP6 DUP2 ADD SWAP2 MUL DUP1 DUP4 DUP4 PUSH1 0x0 JUMPDEST DUP4 DUP2 LT ISZERO PUSH2 0x5F7 JUMPI DUP2 DUP2 ADD MLOAD DUP4 DUP3 ADD MSTORE PUSH1 0x20 ADD PUSH2 0x5DF JUMP JUMPDEST POP POP POP POP SWAP1 POP ADD SWAP3 POP POP POP PUSH1 0x40 MLOAD DUP1 SWAP2 SUB SWAP1 RETURN JUMPDEST PUSH2 0x258 PUSH1 0x4 DUP1 CALLDATASIZE SUB PUSH1 0x40 DUP2 LT ISZERO PUSH2 0x621 JUMPI PUSH1 0x0 DUP1 REVERT JUMPDEST POP DUP1 CALLDATALOAD ISZERO ISZERO SWAP1 PUSH1 0x20 ADD CALLDATALOAD PUSH2 0x145A JUMP JUMPDEST PUSH2 0x366 PUSH1 0x4 DUP1 CALLDATASIZE SUB PUSH1 0x20 DUP2 LT ISZERO PUSH2 0x646 JUMPI PUSH1 0x0 DUP1 REVERT JUMPDEST POP CALLDATALOAD PUSH1 0x1 PUSH1 0x1 PUSH1 0xA0 SHL SUB AND PUSH2 0x158E JUMP JUMPDEST PUSH2 0x298 PUSH1 0x4 DUP1 CALLDATASIZE SUB PUSH1 0x80 DUP2 LT ISZERO PUSH2 0x66C JUMPI PUSH1 0x0 DUP1 REVERT JUMPDEST POP PUSH1 0x1 PUSH1 0x1 PUSH1 0xA0 SHL SUB DUP2 CALLDATALOAD DUP2 AND SWAP2 PUSH1 0x20 DUP2 ADD CALLDATALOAD DUP3 AND SWAP2 PUSH1 0x40 DUP3 ADD CALLDATALOAD AND SWAP1 PUSH1 0x60 ADD CALLDATALOAD PUSH2 0x15B2 JUMP JUMPDEST PUSH2 0x298 PUSH1 0x4 DUP1 CALLDATASIZE SUB PUSH1 0x20 DUP2 LT ISZERO PUSH2 0x6A8 JUMPI PUSH1 0x0 DUP1 REVERT JUMPDEST POP CALLDATALOAD PUSH1 0x1 PUSH1 0x1 PUSH1 0xA0 SHL SUB AND PUSH2 0x192A JUMP JUMPDEST PUSH2 0x298 PUSH2 0x196D JUMP JUMPDEST PUSH2 0x258 PUSH2 0x1973 JUMP JUMPDEST PUSH2 0x258 PUSH1 0x4 DUP1 CALLDATASIZE SUB PUSH1 0x20 DUP2 LT ISZERO PUSH2 0x6DE JUMPI PUSH1 0x0 DUP1 REVERT JUMPDEST POP CALLDATALOAD PUSH1 0x1 PUSH1 0x1 PUSH1 0xA0 SHL SUB AND PUSH2 0x19C8 JUMP JUMPDEST PUSH2 0x52A PUSH1 0x4 DUP1 CALLDATASIZE SUB PUSH1 0x20 DUP2 LT ISZERO PUSH2 0x704 JUMPI PUSH1 0x0 DUP1 REVERT JUMPDEST POP CALLDATALOAD PUSH1 0x1 PUSH1 0x1 PUSH1 0xA0 SHL SUB AND PUSH2 0x19E6 JUMP JUMPDEST PUSH2 0x298 PUSH2 0x1A6C JUMP JUMPDEST PUSH2 0x274 PUSH2 0x1AEE JUMP JUMPDEST PUSH2 0x53C PUSH1 0x4 DUP1 CALLDATASIZE SUB PUSH1 0x20 DUP2 LT ISZERO PUSH2 0x73A JUMPI PUSH1 0x0 DUP1 REVERT JUMPDEST POP CALLDATALOAD PUSH1 0x1 PUSH1 0x1 PUSH1 0xA0 SHL SUB AND PUSH2 0x1AFD JUMP JUMPDEST PUSH2 0x298 PUSH2 0x1B50 JUMP JUMPDEST PUSH2 0x258 PUSH1 0x4 DUP1 CALLDATASIZE SUB PUSH1 0x40 DUP2 LT ISZERO PUSH2 0x768 JUMPI PUSH1 0x0 DUP1 REVERT JUMPDEST POP PUSH1 0x1 PUSH1 0x1 PUSH1 0xA0 SHL SUB DUP2 CALLDATALOAD DUP2 AND SWAP2 PUSH1 0x20 ADD CALLDATALOAD AND PUSH2 0x1B56 JUMP JUMPDEST PUSH2 0x258 PUSH1 0x4 DUP1 CALLDATASIZE SUB PUSH1 0x20 DUP2 LT ISZERO PUSH2 0x796 JUMPI PUSH1 0x0 DUP1 REVERT JUMPDEST POP CALLDATALOAD PUSH1 0x1 PUSH1 0x1 PUSH1 0xA0 SHL SUB AND PUSH2 0x1F3E JUMP JUMPDEST PUSH1 0x1 PUSH1 0x1 PUSH1 0xA0 SHL SUB DUP3 AND PUSH1 0x0 SWAP1 DUP2 MSTORE PUSH1 0x6 PUSH1 0x20 MSTORE PUSH1 0x40 DUP2 KECCAK256 SLOAD PUSH1 0xFF AND PUSH2 0x801 JUMPI PUSH1 0x40 DUP1 MLOAD PUSH3 0x461BCD PUSH1 0xE5 SHL DUP2 MSTORE PUSH1 0x20 PUSH1 0x4 DUP3 ADD MSTORE PUSH1 0x19 PUSH1 0x24 DUP3 ADD MSTORE PUSH1 0x0 DUP1 MLOAD PUSH1 0x20 PUSH2 0x4881 DUP4 CODECOPY DUP2 MLOAD SWAP2 MSTORE PUSH1 0x44 DUP3 ADD MSTORE SWAP1 MLOAD SWAP1 DUP2 SWAP1 SUB PUSH1 0x64 ADD SWAP1 REVERT JUMPDEST PUSH1 0x1 PUSH1 0x1 PUSH1 0xA0 SHL SUB DUP4 AND PUSH1 0x0 SWAP1 DUP2 MSTORE PUSH1 0x22 PUSH1 0x20 MSTORE PUSH1 0x40 SWAP1 KECCAK256 PUSH1 0x2 ADD DUP1 SLOAD SWAP1 DUP4 SWAP1 SSTORE PUSH32 0x60AB6BB8F64F97A68E803DC67F55F0A08732FE0DB1E669B39F3B45DD35D9580D DUP5 DUP3 DUP6 PUSH2 0x84E PUSH2 0x9FD JUMP JUMPDEST PUSH1 0x40 DUP1 MLOAD PUSH1 0x1 PUSH1 0x1 PUSH1 0xA0 SHL SUB SWAP1 SWAP6 AND DUP6 MSTORE PUSH1 0x20 DUP6 ADD SWAP4 SWAP1 SWAP4 MSTORE DUP4 DUP4 ADD SWAP2 SWAP1 SWAP2 MSTORE PUSH4 0xFFFFFFFF AND PUSH1 0x60 DUP4 ADD MSTORE MLOAD SWAP1 DUP2 SWAP1 SUB PUSH1 0x80 ADD SWAP1 LOG1 POP PUSH1 0x1 SWAP4 SWAP3 POP POP POP JUMP JUMPDEST PUSH1 0x3 SLOAD PUSH1 0x1 PUSH1 0x1 PUSH1 0xA0 SHL SUB AND DUP2 JUMP JUMPDEST PUSH1 0x4 SLOAD JUMPDEST SWAP1 JUMP JUMPDEST PUSH1 0x1 PUSH1 0x1 PUSH1 0xA0 SHL SUB DUP2 AND PUSH1 0x0 SWAP1 DUP2 MSTORE PUSH1 0x6 PUSH1 0x20 MSTORE PUSH1 0x40 DUP2 KECCAK256 SLOAD PUSH1 0xFF AND ISZERO PUSH2 0x8E6 JUMPI POP PUSH1 0x1 PUSH1 0x1 PUSH1 0xA0 SHL SUB DUP2 AND PUSH1 0x0 SWAP1 DUP2 MSTORE PUSH1 0x6 PUSH1 0x20 MSTORE PUSH1 0x40 SWAP1 KECCAK256 PUSH1 0x7 ADD SLOAD PUSH2 0x8EA JUMP JUMPDEST POP PUSH1 0x0 JUMPDEST SWAP2 SWAP1 POP JUMP JUMPDEST PUSH1 0x0 PUSH2 0x8F9 PUSH2 0x1973 JUMP JUMPDEST POP PUSH1 0x23 DUP1 SLOAD SWAP1 DUP4 SWAP1 SSTORE PUSH32 0x8574A512A3537F7F97E2C60304507AA6816866C2D1FED5FFA1815CB01D2B1E44 DUP2 DUP5 PUSH2 0x92D PUSH2 0x9FD JUMP JUMPDEST PUSH1 0x40 DUP1 MLOAD SWAP4 DUP5 MSTORE PUSH1 0x20 DUP5 ADD SWAP3 SWAP1 SWAP3 MSTORE PUSH4 0xFFFFFFFF AND DUP3 DUP3 ADD MSTORE MLOAD SWAP1 DUP2 SWAP1 SUB PUSH1 0x60 ADD SWAP1 LOG1 POP SWAP2 SWAP1 POP JUMP JUMPDEST PUSH1 0x1 SLOAD PUSH1 0x1 PUSH1 0x1 PUSH1 0xA0 SHL SUB AND DUP2 JUMP JUMPDEST PUSH1 0x0 PUSH2 0x96F PUSH2 0x1973 JUMP JUMPDEST POP PUSH1 0x21 DUP1 SLOAD SWAP1 DUP4 SWAP1 SSTORE PUSH32 0xB35AE78D38C9AD12FEAB06BFA59B6D4364D33E312F0E00FFB1776F0C60E5FF7A DUP2 DUP5 PUSH2 0x9A3 PUSH2 0x9FD JUMP JUMPDEST PUSH1 0x40 DUP1 MLOAD SWAP4 DUP5 MSTORE PUSH1 0x20 DUP5 ADD SWAP3 SWAP1 SWAP3 MSTORE PUSH4 0xFFFFFFFF AND DUP3 DUP3 ADD MSTORE MLOAD SWAP1 DUP2 SWAP1 SUB PUSH1 0x60 ADD SWAP1 LOG1 POP PUSH1 0x1 SWAP3 SWAP2 POP POP JUMP JUMPDEST PUSH1 0x1 PUSH1 0x1 PUSH1 0xA0 SHL SUB AND PUSH1 0x0 SWAP1 DUP2 MSTORE PUSH1 0x22 PUSH1 0x20 MSTORE PUSH1 0x40 SWAP1 KECCAK256 DUP1 SLOAD PUSH1 0x1 DUP3 ADD SLOAD PUSH1 0x2 SWAP1 SWAP3 ADD SLOAD SWAP1 SWAP3 JUMP JUMPDEST PUSH1 0x24 SLOAD SWAP1 JUMP JUMPDEST NUMBER SWAP1 JUMP JUMPDEST PUSH1 0x1 PUSH1 0x1 PUSH1 0xA0 SHL SUB DUP2 DUP2 AND PUSH1 0x0 SWAP1 DUP2 MSTORE PUSH1 0x6 PUSH1 0x20 SWAP1 DUP2 MSTORE PUSH1 0x40 DUP1 DUP4 KECCAK256 PUSH1 0x2 DUP1 DUP3 ADD SLOAD PUSH1 0x3 DUP4 ADD SLOAD PUSH1 0x4 DUP5 ADD SLOAD PUSH1 0x5 DUP6 ADD SLOAD PUSH1 0x7 DUP7 ADD SLOAD PUSH1 0x1 SWAP7 DUP8 ADD DUP1 SLOAD DUP10 MLOAD PUSH2 0x100 SWAP10 DUP3 AND ISZERO SWAP10 SWAP1 SWAP10 MUL PUSH1 0x0 NOT ADD AND SWAP7 SWAP1 SWAP7 DIV PUSH1 0x1F DUP2 ADD DUP11 SWAP1 DIV DUP11 MUL DUP9 ADD DUP11 ADD SWAP1 SWAP9 MSTORE DUP8 DUP8 MSTORE PUSH1 0x60 SWAP11 DUP11 SWAP10 DUP11 SWAP10 DUP11 SWAP10 DUP11 SWAP10 SWAP9 SWAP1 SWAP4 AND SWAP7 SWAP6 PUSH1 0xFF AND SWAP5 SWAP4 SWAP3 SWAP2 DUP9 SWAP2 SWAP1 DUP4 ADD DUP3 DUP3 DUP1 ISZERO PUSH2 0xAD3 JUMPI DUP1 PUSH1 0x1F LT PUSH2 0xAA8 JUMPI PUSH2 0x100 DUP1 DUP4 SLOAD DIV MUL DUP4 MSTORE SWAP2 PUSH1 0x20 ADD SWAP2 PUSH2 0xAD3 JUMP JUMPDEST DUP3 ADD SWAP2 SWAP1 PUSH1 0x0 MSTORE PUSH1 0x20 PUSH1 0x0 KECCAK256 SWAP1 JUMPDEST DUP2 SLOAD DUP2 MSTORE SWAP1 PUSH1 0x1 ADD SWAP1 PUSH1 0x20 ADD DUP1 DUP4 GT PUSH2 0xAB6 JUMPI DUP3 SWAP1 SUB PUSH1 0x1F AND DUP3 ADD SWAP2 JUMPDEST POP POP POP POP POP SWAP6 POP SWAP6 POP SWAP6 POP SWAP6 POP SWAP6 POP SWAP6 POP SWAP6 POP SWAP2 SWAP4 SWAP6 POP SWAP2 SWAP4 SWAP6 JUMP JUMPDEST PUSH1 0x1 PUSH1 0x1 PUSH1 0xA0 SHL SUB DUP3 AND PUSH1 0x0 SWAP1 DUP2 MSTORE PUSH1 0x7 PUSH1 0x20 MSTORE PUSH1 0x40 DUP2 KECCAK256 DUP3 PUSH1 0x18 DUP2 LT PUSH2 0xB12 JUMPI INVALID JUMPDEST ADD SLOAD SWAP4 SWAP3 POP POP POP JUMP JUMPDEST PUSH1 0x1 PUSH1 0x1 PUSH1 0xA0 SHL SUB DUP2 AND PUSH1 0x0 SWAP1 DUP2 MSTORE PUSH1 0x6 PUSH1 0x20 MSTORE PUSH1 0x40 DUP2 KECCAK256 SLOAD PUSH1 0xFF AND PUSH2 0xB76 JUMPI PUSH1 0x40 DUP1 MLOAD PUSH3 0x461BCD PUSH1 0xE5 SHL DUP2 MSTORE PUSH1 0x20 PUSH1 0x4 DUP3 ADD MSTORE PUSH1 0x19 PUSH1 0x24 DUP3 ADD MSTORE PUSH1 0x0 DUP1 MLOAD PUSH1 0x20 PUSH2 0x4881 DUP4 CODECOPY DUP2 MLOAD SWAP2 MSTORE PUSH1 0x44 DUP3 ADD MSTORE SWAP1 MLOAD SWAP1 DUP2 SWAP1 SUB PUSH1 0x64 ADD SWAP1 REVERT JUMPDEST PUSH2 0xB7F DUP3 PUSH2 0x2112 JUMP JUMPDEST PUSH2 0xBBA JUMPI PUSH1 0x40 MLOAD PUSH3 0x461BCD PUSH1 0xE5 SHL DUP2 MSTORE PUSH1 0x4 ADD DUP1 DUP1 PUSH1 0x20 ADD DUP3 DUP2 SUB DUP3 MSTORE PUSH1 0x2D DUP2 MSTORE PUSH1 0x20 ADD DUP1 PUSH2 0x46E5 PUSH1 0x2D SWAP2 CODECOPY PUSH1 0x40 ADD SWAP2 POP POP PUSH1 0x40 MLOAD DUP1 SWAP2 SUB SWAP1 REVERT JUMPDEST POP PUSH1 0x1 SWAP2 SWAP1 POP JUMP JUMPDEST PUSH1 0x1 PUSH1 0x1 PUSH1 0xA0 SHL SUB DUP2 AND PUSH1 0x0 SWAP1 DUP2 MSTORE PUSH1 0x6 PUSH1 0x20 MSTORE PUSH1 0x40 DUP2 KECCAK256 SLOAD PUSH1 0xFF AND PUSH2 0xC1D JUMPI PUSH1 0x40 DUP1 MLOAD PUSH3 0x461BCD PUSH1 0xE5 SHL DUP2 MSTORE PUSH1 0x20 PUSH1 0x4 DUP3 ADD MSTORE PUSH1 0x19 PUSH1 0x24 DUP3 ADD MSTORE PUSH1 0x0 DUP1 MLOAD PUSH1 0x20 PUSH2 0x4881 DUP4 CODECOPY DUP2 MLOAD SWAP2 MSTORE PUSH1 0x44 DUP3 ADD MSTORE SWAP1 MLOAD SWAP1 DUP2 SWAP1 SUB PUSH1 0x64 ADD SWAP1 REVERT JUMPDEST PUSH1 0x1 PUSH1 0x1 PUSH1 0xA0 SHL SUB DUP3 AND PUSH1 0x0 SWAP1 DUP2 MSTORE PUSH1 0x6 PUSH1 0x20 MSTORE PUSH1 0x40 SWAP1 KECCAK256 PUSH1 0x4 ADD SLOAD PUSH1 0xFF AND PUSH2 0xC77 JUMPI PUSH1 0x40 MLOAD PUSH3 0x461BCD PUSH1 0xE5 SHL DUP2 MSTORE PUSH1 0x4 ADD DUP1 DUP1 PUSH1 0x20 ADD DUP3 DUP2 SUB DUP3 MSTORE PUSH1 0x43 DUP2 MSTORE PUSH1 0x20 ADD DUP1 PUSH2 0x4614 PUSH1 0x43 SWAP2 CODECOPY PUSH1 0x60 ADD SWAP2 POP POP PUSH1 0x40 MLOAD DUP1 SWAP2 SUB SWAP1 REVERT JUMPDEST PUSH2 0xC7F PUSH2 0x1973 JUMP JUMPDEST POP PUSH2 0xC88 PUSH2 0x42BD JUMP JUMPDEST PUSH1 0x1 PUSH1 0x1 PUSH1 0xA0 SHL SUB DUP4 AND PUSH1 0x0 SWAP1 DUP2 MSTORE PUSH1 0x7 PUSH1 0x20 MSTORE PUSH1 0x40 SWAP1 KECCAK256 PUSH2 0xCAC SWAP1 DUP3 PUSH1 0x18 PUSH2 0x42DC JUMP JUMPDEST POP PUSH1 0x1 PUSH1 0x1 PUSH1 0xA0 SHL SUB DUP4 AND PUSH1 0x0 SWAP1 DUP2 MSTORE PUSH1 0x7 PUSH1 0x20 SWAP1 DUP2 MSTORE PUSH1 0x40 DUP1 DUP4 KECCAK256 PUSH1 0x18 ADD DUP1 SLOAD PUSH4 0xFFFFFFFF NOT AND SWAP1 SSTORE PUSH1 0x6 SWAP1 SWAP2 MSTORE DUP2 KECCAK256 PUSH1 0x4 DUP2 ADD DUP1 SLOAD PUSH1 0xFF NOT AND SWAP1 SSTORE PUSH32 0x95EB8164ADA5BBD9B16BB9918BCF97960C1D006F76427F3FAF2BFB2EBC963E42 SWAP2 DUP6 SWAP2 PUSH1 0x1 ADD SWAP1 PUSH2 0xD19 PUSH2 0x9FD JUMP JUMPDEST PUSH1 0x40 DUP1 MLOAD PUSH1 0x1 PUSH1 0x1 PUSH1 0xA0 SHL SUB DUP7 AND DUP2 MSTORE DUP4 ISZERO ISZERO SWAP2 DUP2 ADD SWAP2 SWAP1 SWAP2 MSTORE PUSH4 0xFFFFFFFF DUP3 AND PUSH1 0x60 DUP3 ADD MSTORE PUSH1 0x80 PUSH1 0x20 DUP3 ADD DUP2 DUP2 MSTORE DUP6 SLOAD PUSH1 0x2 PUSH1 0x0 NOT PUSH2 0x100 PUSH1 0x1 DUP5 AND ISZERO MUL ADD SWAP1 SWAP2 AND DIV SWAP2 DUP4 ADD DUP3 SWAP1 MSTORE SWAP1 PUSH1 0xA0 DUP4 ADD SWAP1 DUP7 SWAP1 DUP1 ISZERO PUSH2 0xDB8 JUMPI DUP1 PUSH1 0x1F LT PUSH2 0xD8D JUMPI PUSH2 0x100 DUP1 DUP4 SLOAD DIV MUL DUP4 MSTORE SWAP2 PUSH1 0x20 ADD SWAP2 PUSH2 0xDB8 JUMP JUMPDEST DUP3 ADD SWAP2 SWAP1 PUSH1 0x0 MSTORE PUSH1 0x20 PUSH1 0x0 KECCAK256 SWAP1 JUMPDEST DUP2 SLOAD DUP2 MSTORE SWAP1 PUSH1 0x1 ADD SWAP1 PUSH1 0x20 ADD DUP1 DUP4 GT PUSH2 0xD9B JUMPI DUP3 SWAP1 SUB PUSH1 0x1F AND DUP3 ADD SWAP2 JUMPDEST POP POP SWAP6 POP POP POP POP POP POP PUSH1 0x40 MLOAD DUP1 SWAP2 SUB SWAP1 LOG1 POP PUSH1 0x1 SWAP3 SWAP2 POP POP JUMP JUMPDEST PUSH1 0x1 PUSH1 0x1 PUSH1 0xA0 SHL SUB DUP4 AND PUSH1 0x0 SWAP1 DUP2 MSTORE PUSH1 0x6 PUSH1 0x20 MSTORE PUSH1 0x40 DUP2 KECCAK256 SLOAD PUSH1 0xFF AND ISZERO PUSH2 0xE40 JUMPI PUSH1 0x40 DUP1 MLOAD PUSH3 0x461BCD PUSH1 0xE5 SHL DUP2 MSTORE PUSH1 0x20 PUSH1 0x4 DUP3 ADD MSTORE PUSH1 0x1D PUSH1 0x24 DUP3 ADD MSTORE PUSH32 0x496E737472756D656E7420616C726561647920737570706F727465642E000000 PUSH1 0x44 DUP3 ADD MSTORE SWAP1 MLOAD SWAP1 DUP2 SWAP1 SUB PUSH1 0x64 ADD SWAP1 REVERT JUMPDEST PUSH1 0x5 DUP1 SLOAD PUSH1 0x1 DUP1 DUP3 ADD DUP4 SSTORE PUSH1 0x0 SWAP3 DUP4 MSTORE PUSH32 0x36B6384B5ECA791C62761152D0C79BB0604C104A5FB6F4EB0703F3154BB3DB0 SWAP1 SWAP2 ADD DUP1 SLOAD PUSH1 0x1 PUSH1 0x1 PUSH1 0xA0 SHL SUB NOT AND PUSH1 0x1 PUSH1 0x1 PUSH1 0xA0 SHL SUB DUP9 DUP2 AND SWAP2 SWAP1 SWAP2 OR SWAP1 SWAP2 SSTORE PUSH1 0x40 DUP1 MLOAD PUSH2 0x120 DUP2 ADD DUP3 MSTORE SWAP3 DUP4 MSTORE DUP1 MLOAD PUSH4 0x6FDDE03 PUSH1 0xE0 SHL DUP2 MSTORE SWAP1 MLOAD DUP8 SWAP5 PUSH1 0x20 DUP6 ADD SWAP4 DUP7 AND SWAP3 PUSH4 0x6FDDE03 SWAP3 PUSH1 0x4 DUP1 DUP4 ADD SWAP4 SWAP3 DUP3 SWAP1 SUB ADD DUP2 DUP7 DUP1 EXTCODESIZE ISZERO DUP1 ISZERO PUSH2 0xED9 JUMPI PUSH1 0x0 DUP1 REVERT JUMPDEST POP GAS STATICCALL ISZERO DUP1 ISZERO PUSH2 0xEED JUMPI RETURNDATASIZE PUSH1 0x0 DUP1 RETURNDATACOPY RETURNDATASIZE PUSH1 0x0 REVERT JUMPDEST POP POP POP POP PUSH1 0x40 MLOAD RETURNDATASIZE PUSH1 0x0 DUP3 RETURNDATACOPY PUSH1 0x1F RETURNDATASIZE SWAP1 DUP2 ADD PUSH1 0x1F NOT AND DUP3 ADD PUSH1 0x40 MSTORE PUSH1 0x20 DUP2 LT ISZERO PUSH2 0xF16 JUMPI PUSH1 0x0 DUP1 REVERT JUMPDEST DUP2 ADD SWAP1 DUP1 DUP1 MLOAD PUSH1 0x40 MLOAD SWAP4 SWAP3 SWAP2 SWAP1 DUP5 PUSH5 0x100000000 DUP3 GT ISZERO PUSH2 0xF36 JUMPI PUSH1 0x0 DUP1 REVERT JUMPDEST SWAP1 DUP4 ADD SWAP1 PUSH1 0x20 DUP3 ADD DUP6 DUP2 GT ISZERO PUSH2 0xF4B JUMPI PUSH1 0x0 DUP1 REVERT JUMPDEST DUP3 MLOAD PUSH5 0x100000000 DUP2 GT DUP3 DUP3 ADD DUP9 LT OR ISZERO PUSH2 0xF65 JUMPI PUSH1 0x0 DUP1 REVERT JUMPDEST DUP3 MSTORE POP DUP2 MLOAD PUSH1 0x20 SWAP2 DUP3 ADD SWAP3 SWAP1 SWAP2 ADD SWAP1 DUP1 DUP4 DUP4 PUSH1 0x0 JUMPDEST DUP4 DUP2 LT ISZERO PUSH2 0xF92 JUMPI DUP2 DUP2 ADD MLOAD DUP4 DUP3 ADD MSTORE PUSH1 0x20 ADD PUSH2 0xF7A JUMP JUMPDEST POP POP POP POP SWAP1 POP SWAP1 DUP2 ADD SWAP1 PUSH1 0x1F AND DUP1 ISZERO PUSH2 0xFBF JUMPI DUP1 DUP3 SUB DUP1 MLOAD PUSH1 0x1 DUP4 PUSH1 0x20 SUB PUSH2 0x100 EXP SUB NOT AND DUP2 MSTORE PUSH1 0x20 ADD SWAP2 POP JUMPDEST POP PUSH1 0x40 MSTORE POP POP POP DUP2 MSTORE PUSH1 0x20 ADD DUP6 PUSH1 0x1 PUSH1 0x1 PUSH1 0xA0 SHL SUB AND DUP2 MSTORE PUSH1 0x20 ADD DUP5 DUP2 MSTORE PUSH1 0x20 ADD PUSH1 0x0 ISZERO ISZERO DUP2 MSTORE PUSH1 0x20 ADD PUSH15 0xC097CE7BC90715B34B9F1000000000 DUP2 MSTORE PUSH1 0x20 ADD PUSH2 0x1006 PUSH2 0x9FD JUMP JUMPDEST PUSH4 0xFFFFFFFF AND DUP2 MSTORE PUSH1 0x20 ADD PUSH15 0xC097CE7BC90715B34B9F1000000000 DUP2 MSTORE PUSH1 0x20 ADD PUSH2 0x102E PUSH2 0x9FD JUMP JUMPDEST PUSH4 0xFFFFFFFF AND SWAP1 MSTORE PUSH1 0x1 PUSH1 0x1 PUSH1 0xA0 SHL SUB DUP7 AND PUSH1 0x0 SWAP1 DUP2 MSTORE PUSH1 0x6 PUSH1 0x20 SWAP1 DUP2 MSTORE PUSH1 0x40 SWAP1 SWAP2 KECCAK256 DUP3 MLOAD DUP2 SLOAD PUSH1 0xFF NOT AND SWAP1 ISZERO ISZERO OR DUP2 SSTORE DUP3 DUP3 ADD MLOAD DUP1 MLOAD SWAP2 SWAP3 PUSH2 0x1079 SWAP3 PUSH1 0x1 DUP6 ADD SWAP3 SWAP1 SWAP2 ADD SWAP1 PUSH2 0x431A JUMP JUMPDEST POP PUSH1 0x40 DUP3 DUP2 ADD MLOAD PUSH1 0x2 DUP4 DUP2 ADD DUP1 SLOAD PUSH1 0x1 PUSH1 0x1 PUSH1 0xA0 SHL SUB NOT AND PUSH1 0x1 PUSH1 0x1 PUSH1 0xA0 SHL SUB SWAP4 DUP5 AND OR SWAP1 SSTORE PUSH1 0x60 DUP1 DUP7 ADD MLOAD PUSH1 0x3 DUP7 ADD SSTORE PUSH1 0x80 DUP7 ADD MLOAD PUSH1 0x4 DUP7 ADD DUP1 SLOAD PUSH1 0xFF NOT AND SWAP2 ISZERO ISZERO SWAP2 SWAP1 SWAP2 OR SWAP1 SSTORE PUSH1 0xA0 DUP7 ADD MLOAD PUSH1 0x5 DUP7 ADD SSTORE PUSH1 0xC0 DUP7 ADD MLOAD PUSH1 0x6 DUP7 ADD SSTORE PUSH1 0xE0 DUP7 ADD MLOAD PUSH1 0x7 DUP1 DUP8 ADD SWAP2 SWAP1 SWAP2 SSTORE PUSH2 0x100 SWAP1 SWAP7 ADD MLOAD PUSH1 0x8 SWAP1 SWAP6 ADD SWAP5 SWAP1 SWAP5 SSTORE DUP3 MLOAD SWAP4 DUP5 ADD DUP4 MSTORE PUSH1 0x0 DUP1 DUP6 MSTORE PUSH1 0x20 DUP1 DUP7 ADD DUP3 DUP2 MSTORE DUP7 DUP7 ADD DUP4 DUP2 MSTORE SWAP5 DUP14 AND DUP4 MSTORE PUSH1 0x22 DUP3 MSTORE DUP6 DUP4 KECCAK256 SWAP7 MLOAD DUP8 SSTORE MLOAD PUSH1 0x1 DUP8 ADD SSTORE SWAP3 MLOAD SWAP5 SWAP1 SWAP2 ADD SWAP4 SWAP1 SWAP4 SSTORE SWAP3 SWAP1 SWAP3 MSTORE KECCAK256 PUSH1 0x18 ADD SLOAD PUSH4 0xFFFFFFFF AND PUSH2 0x11A8 JUMPI PUSH2 0x1149 PUSH2 0x42BD JUMP JUMPDEST PUSH1 0x40 DUP1 MLOAD DUP1 DUP3 ADD DUP3 MSTORE DUP3 DUP2 MSTORE PUSH1 0x0 PUSH1 0x20 DUP1 DUP4 ADD DUP3 SWAP1 MSTORE PUSH1 0x1 PUSH1 0x1 PUSH1 0xA0 SHL SUB DUP11 AND DUP3 MSTORE PUSH1 0x7 SWAP1 MSTORE SWAP2 SWAP1 SWAP2 KECCAK256 DUP2 MLOAD PUSH2 0x1182 SWAP1 DUP3 SWAP1 PUSH1 0x18 PUSH2 0x42DC JUMP JUMPDEST POP PUSH1 0x20 SWAP2 SWAP1 SWAP2 ADD MLOAD PUSH1 0x18 SWAP1 SWAP2 ADD DUP1 SLOAD PUSH4 0xFFFFFFFF NOT AND PUSH4 0xFFFFFFFF SWAP1 SWAP3 AND SWAP2 SWAP1 SWAP2 OR SWAP1 SSTORE POP JUMPDEST PUSH1 0x1 PUSH1 0x1 PUSH1 0xA0 SHL SUB DUP6 DUP2 AND PUSH1 0x0 DUP2 DUP2 MSTORE PUSH1 0x6 PUSH1 0x20 SWAP1 DUP2 MSTORE PUSH1 0x40 SWAP2 DUP3 SWAP1 KECCAK256 DUP3 MLOAD SWAP4 DUP5 MSTORE SWAP2 DUP4 ADD DUP8 SWAP1 MSTORE SWAP3 DUP8 AND PUSH1 0x60 DUP4 ADD MSTORE NUMBER PUSH1 0x80 DUP4 ADD DUP2 SWAP1 MSTORE PUSH1 0xA0 SWAP4 DUP4 ADD DUP5 DUP2 MSTORE PUSH1 0x1 SWAP3 DUP4 ADD DUP1 SLOAD PUSH1 0x2 SWAP5 DUP2 AND ISZERO PUSH2 0x100 MUL PUSH1 0x0 NOT ADD AND SWAP4 SWAP1 SWAP4 DIV SWAP5 DUP5 ADD DUP6 SWAP1 MSTORE PUSH32 0x147287EB47162017688BF4E80590AC2FAA6656751FD480B76FA8F7612910141A SWAP5 DUP11 SWAP5 DUP10 SWAP4 DUP12 SWAP4 SWAP1 SWAP3 PUSH1 0xC0 DUP4 ADD SWAP1 DUP8 SWAP1 DUP1 ISZERO PUSH2 0x1286 JUMPI DUP1 PUSH1 0x1F LT PUSH2 0x125B JUMPI PUSH2 0x100 DUP1 DUP4 SLOAD DIV MUL DUP4 MSTORE SWAP2 PUSH1 0x20 ADD SWAP2 PUSH2 0x1286 JUMP JUMPDEST DUP3 ADD SWAP2 SWAP1 PUSH1 0x0 MSTORE PUSH1 0x20 PUSH1 0x0 KECCAK256 SWAP1 JUMPDEST DUP2 SLOAD DUP2 MSTORE SWAP1 PUSH1 0x1 ADD SWAP1 PUSH1 0x20 ADD DUP1 DUP4 GT PUSH2 0x1269 JUMPI DUP3 SWAP1 SUB PUSH1 0x1F AND DUP3 ADD SWAP2 JUMPDEST POP POP SWAP7 POP POP POP POP POP POP POP PUSH1 0x40 MLOAD DUP1 SWAP2 SUB SWAP1 LOG1 PUSH1 0x1 SWAP2 POP POP JUMPDEST SWAP4 SWAP3 POP POP POP JUMP JUMPDEST PUSH1 0x2 DUP1 SLOAD PUSH1 0x1 PUSH1 0x1 PUSH1 0xA0 SHL SUB NOT AND PUSH1 0x1 PUSH1 0x1 PUSH1 0xA0 SHL SUB SWAP3 SWAP1 SWAP3 AND SWAP2 SWAP1 SWAP2 OR SWAP1 SSTORE JUMP JUMPDEST PUSH1 0x21 SLOAD SWAP1 JUMP JUMPDEST PUSH2 0x12D5 PUSH2 0x42BD JUMP JUMPDEST PUSH1 0x40 DUP1 MLOAD PUSH2 0x300 DUP2 ADD SWAP2 DUP3 SWAP1 MSTORE SWAP1 PUSH1 0x8 SWAP1 PUSH1 0x18 SWAP1 DUP3 DUP5 JUMPDEST DUP2 SLOAD DUP2 MSTORE PUSH1 0x20 ADD SWAP1 PUSH1 0x1 ADD SWAP1 DUP1 DUP4 GT PUSH2 0x12EC JUMPI JUMPDEST POP POP POP POP POP SWAP1 POP SWAP1 JUMP JUMPDEST PUSH1 0x0 DUP1 PUSH2 0x1319 NUMBER PUSH1 0x24 SLOAD PUSH2 0x25A1 JUMP JUMPDEST SWAP1 POP DUP1 PUSH1 0x23 SLOAD GT ISZERO PUSH2 0x1339 JUMPI PUSH2 0x1331 PUSH1 0x23 SLOAD DUP3 PUSH2 0x25A1 JUMP JUMPDEST SWAP2 POP POP PUSH2 0x8A0 JUMP JUMPDEST PUSH1 0x0 SWAP2 POP POP SWAP1 JUMP JUMPDEST PUSH1 0x1 PUSH1 0x1 PUSH1 0xA0 SHL SUB DUP2 AND PUSH1 0x0 SWAP1 DUP2 MSTORE PUSH1 0x6 PUSH1 0x20 MSTORE PUSH1 0x40 DUP2 KECCAK256 SLOAD PUSH1 0xFF AND PUSH2 0x139C JUMPI PUSH1 0x40 DUP1 MLOAD PUSH3 0x461BCD PUSH1 0xE5 SHL DUP2 MSTORE PUSH1 0x20 PUSH1 0x4 DUP3 ADD MSTORE PUSH1 0x19 PUSH1 0x24 DUP3 ADD MSTORE PUSH1 0x0 DUP1 MLOAD PUSH1 0x20 PUSH2 0x4881 DUP4 CODECOPY DUP2 MLOAD SWAP2 MSTORE PUSH1 0x44 DUP3 ADD MSTORE SWAP1 MLOAD SWAP1 DUP2 SWAP1 SUB PUSH1 0x64 ADD SWAP1 REVERT JUMPDEST PUSH2 0x13A5 DUP3 PUSH2 0x25DB JUMP JUMPDEST PUSH2 0xBBA JUMPI PUSH1 0x40 MLOAD PUSH3 0x461BCD PUSH1 0xE5 SHL DUP2 MSTORE PUSH1 0x4 ADD DUP1 DUP1 PUSH1 0x20 ADD DUP3 DUP2 SUB DUP3 MSTORE PUSH1 0x2D DUP2 MSTORE PUSH1 0x20 ADD DUP1 PUSH2 0x47E9 PUSH1 0x2D SWAP2 CODECOPY PUSH1 0x40 ADD SWAP2 POP POP PUSH1 0x40 MLOAD DUP1 SWAP2 SUB SWAP1 REVERT JUMPDEST PUSH2 0x13E8 PUSH2 0x2A30 JUMP JUMPDEST JUMP JUMPDEST PUSH1 0x2 SLOAD PUSH1 0x1 PUSH1 0x1 PUSH1 0xA0 SHL SUB AND DUP2 JUMP JUMPDEST PUSH1 0x60 PUSH1 0x5 DUP1 SLOAD DUP1 PUSH1 0x20 MUL PUSH1 0x20 ADD PUSH1 0x40 MLOAD SWAP1 DUP2 ADD PUSH1 0x40 MSTORE DUP1 SWAP3 SWAP2 SWAP1 DUP2 DUP2 MSTORE PUSH1 0x20 ADD DUP3 DUP1 SLOAD DUP1 ISZERO PUSH2 0x1300 JUMPI PUSH1 0x20 MUL DUP3 ADD SWAP2 SWAP1 PUSH1 0x0 MSTORE PUSH1 0x20 PUSH1 0x0 KECCAK256 SWAP1 JUMPDEST DUP2 SLOAD PUSH1 0x1 PUSH1 0x1 PUSH1 0xA0 SHL SUB AND DUP2 MSTORE PUSH1 0x1 SWAP1 SWAP2 ADD SWAP1 PUSH1 0x20 ADD DUP1 DUP4 GT PUSH2 0x1433 JUMPI POP POP POP POP POP SWAP1 POP SWAP1 JUMP JUMPDEST PUSH1 0x0 PUSH7 0x2386F26FC10000 DUP3 GT PUSH2 0x14A1 JUMPI PUSH1 0x40 MLOAD PUSH3 0x461BCD PUSH1 0xE5 SHL DUP2 MSTORE PUSH1 0x4 ADD DUP1 DUP1 PUSH1 0x20 ADD DUP3 DUP2 SUB DUP3 MSTORE PUSH1 0x3C DUP2 MSTORE PUSH1 0x20 ADD DUP1 PUSH2 0x448D PUSH1 0x3C SWAP2 CODECOPY PUSH1 0x40 ADD SWAP2 POP POP PUSH1 0x40 MLOAD DUP1 SWAP2 SUB SWAP1 REVERT JUMPDEST PUSH8 0xDE0B6B3A7640000 DUP3 GT ISZERO PUSH2 0x14E8 JUMPI PUSH1 0x40 MLOAD PUSH3 0x461BCD PUSH1 0xE5 SHL DUP2 MSTORE PUSH1 0x4 ADD DUP1 DUP1 PUSH1 0x20 ADD DUP3 DUP2 SUB DUP3 MSTORE PUSH1 0x34 DUP2 MSTORE PUSH1 0x20 ADD DUP1 PUSH2 0x4690 PUSH1 0x34 SWAP2 CODECOPY PUSH1 0x40 ADD SWAP2 POP POP PUSH1 0x40 MLOAD DUP1 SWAP2 SUB SWAP1 REVERT JUMPDEST PUSH2 0x14F0 PUSH2 0x1973 JUMP JUMPDEST POP PUSH1 0x40 DUP1 MLOAD PUSH1 0x20 DUP2 ADD SWAP1 SWAP2 MSTORE DUP3 SWAP1 MSTORE PUSH1 0x4 DUP3 SWAP1 SSTORE DUP3 PUSH2 0x1517 JUMPI PUSH1 0x3 DUP1 SLOAD PUSH1 0xFF PUSH1 0xA0 SHL NOT AND SWAP1 SSTORE JUMPDEST PUSH1 0x3 DUP1 SLOAD PUSH1 0xFF PUSH1 0xA0 SHL NOT AND PUSH1 0x1 PUSH1 0xA0 SHL SWAP1 DUP2 OR SWAP2 DUP3 SWAP1 SSTORE PUSH1 0x4 SLOAD PUSH32 0xF27FC072C7772962292B4F5221D157312241AE2757928921516BB837B3D1E7BC SWAP3 SWAP2 SWAP1 SWAP2 DIV PUSH1 0xFF AND SWAP1 PUSH2 0x1563 PUSH2 0x9FD JUMP JUMPDEST PUSH1 0x40 DUP1 MLOAD SWAP4 ISZERO ISZERO DUP5 MSTORE PUSH1 0x20 DUP5 ADD SWAP3 SWAP1 SWAP3 MSTORE PUSH4 0xFFFFFFFF AND DUP3 DUP3 ADD MSTORE MLOAD SWAP1 DUP2 SWAP1 SUB PUSH1 0x60 ADD SWAP1 LOG1 SWAP3 SWAP2 POP POP JUMP JUMPDEST PUSH1 0x1 PUSH1 0x1 PUSH1 0xA0 SHL SUB AND PUSH1 0x0 SWAP1 DUP2 MSTORE PUSH1 0x7 PUSH1 0x20 MSTORE PUSH1 0x40 SWAP1 KECCAK256 PUSH1 0x18 ADD SLOAD PUSH4 0xFFFFFFFF AND SWAP1 JUMP JUMPDEST PUSH1 0x1 SLOAD PUSH1 0x40 DUP1 MLOAD PUSH4 0x70A08231 PUSH1 0xE0 SHL DUP2 MSTORE ADDRESS PUSH1 0x4 DUP3 ADD MSTORE SWAP1 MLOAD PUSH1 0x0 SWAP3 DUP4 SWAP3 DUP6 SWAP3 PUSH1 0x1 PUSH1 0x1 PUSH1 0xA0 SHL SUB SWAP1 SWAP3 AND SWAP2 PUSH4 0x70A08231 SWAP2 PUSH1 0x24 DUP1 DUP3 ADD SWAP3 PUSH1 0x20 SWAP3 SWAP1 SWAP2 SWAP1 DUP3 SWAP1 SUB ADD DUP2 DUP7 DUP1 EXTCODESIZE ISZERO DUP1 ISZERO PUSH2 0x1604 JUMPI PUSH1 0x0 DUP1 REVERT JUMPDEST POP GAS STATICCALL ISZERO DUP1 ISZERO PUSH2 0x1618 JUMPI RETURNDATASIZE PUSH1 0x0 DUP1 RETURNDATACOPY RETURNDATASIZE PUSH1 0x0 REVERT JUMPDEST POP POP POP POP PUSH1 0x40 MLOAD RETURNDATASIZE PUSH1 0x20 DUP2 LT ISZERO PUSH2 0x162E JUMPI PUSH1 0x0 DUP1 REVERT JUMPDEST POP MLOAD GT ISZERO PUSH2 0x191E JUMPI PUSH1 0x1 SLOAD PUSH1 0x40 DUP1 MLOAD PUSH4 0xA9059CBB PUSH1 0xE0 SHL DUP2 MSTORE PUSH1 0x1 PUSH1 0x1 PUSH1 0xA0 SHL SUB DUP8 DUP2 AND PUSH1 0x4 DUP4 ADD MSTORE PUSH1 0x24 DUP3 ADD DUP8 SWAP1 MSTORE SWAP2 MLOAD SWAP2 SWAP1 SWAP3 AND SWAP2 PUSH4 0xA9059CBB SWAP2 PUSH1 0x44 DUP1 DUP4 ADD SWAP3 PUSH1 0x20 SWAP3 SWAP2 SWAP1 DUP3 SWAP1 SUB ADD DUP2 PUSH1 0x0 DUP8 DUP1 EXTCODESIZE ISZERO DUP1 ISZERO PUSH2 0x168C JUMPI PUSH1 0x0 DUP1 REVERT JUMPDEST POP GAS CALL ISZERO DUP1 ISZERO PUSH2 0x16A0 JUMPI RETURNDATASIZE PUSH1 0x0 DUP1 RETURNDATACOPY RETURNDATASIZE PUSH1 0x0 REVERT JUMPDEST POP POP POP POP PUSH1 0x40 MLOAD RETURNDATASIZE PUSH1 0x20 DUP2 LT ISZERO PUSH2 0x16B6 JUMPI PUSH1 0x0 DUP1 REVERT JUMPDEST POP MLOAD PUSH2 0x16F3 JUMPI PUSH1 0x40 MLOAD PUSH3 0x461BCD PUSH1 0xE5 SHL DUP2 MSTORE PUSH1 0x4 ADD DUP1 DUP1 PUSH1 0x20 ADD DUP3 DUP2 SUB DUP3 MSTORE PUSH1 0x2C DUP2 MSTORE PUSH1 0x20 ADD DUP1 PUSH2 0x4767 PUSH1 0x2C SWAP2 CODECOPY PUSH1 0x40 ADD SWAP2 POP POP PUSH1 0x40 MLOAD DUP1 SWAP2 SUB SWAP1 REVERT JUMPDEST PUSH1 0x0 DUP1 SWAP1 SLOAD SWAP1 PUSH2 0x100 EXP SWAP1 DIV PUSH1 0x1 PUSH1 0x1 PUSH1 0xA0 SHL SUB AND PUSH1 0x1 PUSH1 0x1 PUSH1 0xA0 SHL SUB AND PUSH4 0x1DB4F569 PUSH1 0x40 MLOAD DUP2 PUSH4 0xFFFFFFFF AND PUSH1 0xE0 SHL DUP2 MSTORE PUSH1 0x4 ADD PUSH1 0x20 PUSH1 0x40 MLOAD DUP1 DUP4 SUB DUP2 DUP7 DUP1 EXTCODESIZE ISZERO DUP1 ISZERO PUSH2 0x1740 JUMPI PUSH1 0x0 DUP1 REVERT JUMPDEST POP GAS STATICCALL ISZERO DUP1 ISZERO PUSH2 0x1754 JUMPI RETURNDATASIZE PUSH1 0x0 DUP1 RETURNDATACOPY RETURNDATASIZE PUSH1 0x0 REVERT JUMPDEST POP POP POP POP PUSH1 0x40 MLOAD RETURNDATASIZE PUSH1 0x20 DUP2 LT ISZERO PUSH2 0x176A JUMPI PUSH1 0x0 DUP1 REVERT JUMPDEST POP MLOAD PUSH1 0x1 PUSH1 0x1 PUSH1 0xA0 SHL SUB DUP6 DUP2 AND SWAP2 AND EQ ISZERO PUSH2 0x18CF JUMPI PUSH1 0x0 DUP1 PUSH1 0x0 SWAP1 SLOAD SWAP1 PUSH2 0x100 EXP SWAP1 DIV PUSH1 0x1 PUSH1 0x1 PUSH1 0xA0 SHL SUB AND PUSH1 0x1 PUSH1 0x1 PUSH1 0xA0 SHL SUB AND PUSH4 0x1DB4F569 PUSH1 0x40 MLOAD DUP2 PUSH4 0xFFFFFFFF AND PUSH1 0xE0 SHL DUP2 MSTORE PUSH1 0x4 ADD PUSH1 0x20 PUSH1 0x40 MLOAD DUP1 DUP4 SUB DUP2 DUP7 DUP1 EXTCODESIZE ISZERO DUP1 ISZERO PUSH2 0x17CE JUMPI PUSH1 0x0 DUP1 REVERT JUMPDEST POP GAS STATICCALL ISZERO DUP1 ISZERO PUSH2 0x17E2 JUMPI RETURNDATASIZE PUSH1 0x0 DUP1 RETURNDATACOPY RETURNDATASIZE PUSH1 0x0 REVERT JUMPDEST POP POP POP POP PUSH1 0x40 MLOAD RETURNDATASIZE PUSH1 0x20 DUP2 LT ISZERO PUSH2 0x17F8 JUMPI PUSH1 0x0 DUP1 REVERT JUMPDEST POP MLOAD PUSH1 0x40 DUP1 MLOAD PUSH4 0x660ECBC9 PUSH1 0xE0 SHL DUP2 MSTORE PUSH1 0x1 PUSH1 0x1 PUSH1 0xA0 SHL SUB DUP10 DUP2 AND PUSH1 0x4 DUP4 ADD MSTORE PUSH1 0x24 DUP3 ADD DUP9 SWAP1 MSTORE SWAP2 MLOAD SWAP3 SWAP4 POP SWAP1 DUP4 AND SWAP2 PUSH4 0x660ECBC9 SWAP2 PUSH1 0x44 DUP1 DUP3 ADD SWAP3 PUSH1 0x20 SWAP3 SWAP1 SWAP2 SWAP1 DUP3 SWAP1 SUB ADD DUP2 PUSH1 0x0 DUP8 DUP1 EXTCODESIZE ISZERO DUP1 ISZERO PUSH2 0x1850 JUMPI PUSH1 0x0 DUP1 REVERT JUMPDEST POP GAS CALL ISZERO DUP1 ISZERO PUSH2 0x1864 JUMPI RETURNDATASIZE PUSH1 0x0 DUP1 RETURNDATACOPY RETURNDATASIZE PUSH1 0x0 REVERT JUMPDEST POP POP POP POP PUSH1 0x40 MLOAD RETURNDATASIZE PUSH1 0x20 DUP2 LT ISZERO PUSH2 0x187A JUMPI PUSH1 0x0 DUP1 REVERT JUMPDEST POP MLOAD PUSH2 0x18CD JUMPI PUSH1 0x40 DUP1 MLOAD PUSH3 0x461BCD PUSH1 0xE5 SHL DUP2 MSTORE PUSH1 0x20 PUSH1 0x4 DUP3 ADD MSTORE PUSH1 0x1F PUSH1 0x24 DUP3 ADD MSTORE PUSH32 0x4661696C656420746F20757064617465205374616B65642062616C616E636500 PUSH1 0x44 DUP3 ADD MSTORE SWAP1 MLOAD SWAP1 DUP2 SWAP1 SUB PUSH1 0x64 ADD SWAP1 REVERT JUMPDEST POP JUMPDEST PUSH1 0x40 DUP1 MLOAD PUSH1 0x1 PUSH1 0x1 PUSH1 0xA0 SHL SUB DUP1 DUP10 AND DUP3 MSTORE DUP8 AND PUSH1 0x20 DUP3 ADD MSTORE DUP1 DUP3 ADD DUP6 SWAP1 MSTORE SWAP1 MLOAD PUSH32 0x922C86DA5BA82864DDC6D719CCDD80A788323E2A4DC17CFE258D00BA885B2BEC SWAP2 DUP2 SWAP1 SUB PUSH1 0x60 ADD SWAP1 LOG1 PUSH2 0x1921 JUMP JUMPDEST POP DUP2 JUMPDEST SWAP6 SWAP5 POP POP POP POP POP JUMP JUMPDEST PUSH1 0x1 PUSH1 0x1 PUSH1 0xA0 SHL SUB DUP2 AND PUSH1 0x0 SWAP1 DUP2 MSTORE PUSH1 0x6 PUSH1 0x20 MSTORE PUSH1 0x40 DUP2 KECCAK256 SLOAD PUSH1 0xFF AND ISZERO PUSH2 0x8E6 JUMPI POP PUSH1 0x1 PUSH1 0x1 PUSH1 0xA0 SHL SUB DUP2 AND PUSH1 0x0 SWAP1 DUP2 MSTORE PUSH1 0x6 PUSH1 0x20 MSTORE PUSH1 0x40 SWAP1 KECCAK256 PUSH1 0x5 ADD SLOAD PUSH2 0x8EA JUMP JUMPDEST PUSH1 0x23 SLOAD SWAP1 JUMP JUMPDEST PUSH1 0x0 DUP1 NUMBER SWAP1 POP PUSH1 0x0 PUSH2 0x19A0 DUP3 PUSH1 0x24 SLOAD PUSH1 0x40 MLOAD DUP1 PUSH1 0x60 ADD PUSH1 0x40 MSTORE DUP1 PUSH1 0x36 DUP2 MSTORE PUSH1 0x20 ADD PUSH2 0x456F PUSH1 0x36 SWAP2 CODECOPY PUSH2 0x2BD4 JUMP JUMPDEST SWAP1 POP PUSH1 0x23 SLOAD DUP2 LT PUSH2 0x19BF JUMPI PUSH2 0x19B3 PUSH2 0x2C6B JUMP JUMPDEST POP PUSH1 0x24 SSTORE POP PUSH1 0x1 PUSH2 0x8A0 JUMP JUMPDEST PUSH1 0x0 SWAP3 POP POP POP SWAP1 JUMP JUMPDEST PUSH1 0x1 PUSH1 0x1 PUSH1 0xA0 SHL SUB AND PUSH1 0x0 SWAP1 DUP2 MSTORE PUSH1 0x6 PUSH1 0x20 MSTORE PUSH1 0x40 SWAP1 KECCAK256 SLOAD PUSH1 0xFF AND SWAP1 JUMP JUMPDEST PUSH1 0x0 DUP1 SLOAD PUSH1 0x1 PUSH1 0x1 PUSH1 0xA0 SHL SUB NOT AND PUSH1 0x1 PUSH1 0x1 PUSH1 0xA0 SHL SUB DUP4 AND OR SWAP1 SSTORE PUSH2 0x1A09 PUSH2 0x2A30 JUMP JUMPDEST PUSH1 0x0 SLOAD PUSH1 0x1 SLOAD PUSH1 0x2 SLOAD PUSH1 0x3 SLOAD PUSH1 0x40 DUP1 MLOAD PUSH1 0x1 PUSH1 0x1 PUSH1 0xA0 SHL SUB SWAP6 DUP7 AND DUP2 MSTORE SWAP4 DUP6 AND PUSH1 0x20 DUP6 ADD MSTORE SWAP2 DUP5 AND DUP4 DUP4 ADD MSTORE SWAP1 SWAP3 AND PUSH1 0x60 DUP3 ADD MSTORE SWAP1 MLOAD PUSH32 0xC1EBB533F3D7D1A5B07028F3F2B3CD0D8B9912E1E524EEA0AFA6873C6FFF649 SWAP2 DUP2 SWAP1 SUB PUSH1 0x80 ADD SWAP1 LOG1 POP JUMP JUMPDEST PUSH1 0x1 SLOAD PUSH1 0x40 DUP1 MLOAD PUSH4 0x70A08231 PUSH1 0xE0 SHL DUP2 MSTORE ADDRESS PUSH1 0x4 DUP3 ADD MSTORE SWAP1 MLOAD PUSH1 0x0 SWAP3 DUP4 SWAP3 PUSH1 0x1 PUSH1 0x1 PUSH1 0xA0 SHL SUB SWAP1 SWAP2 AND SWAP2 PUSH4 0x70A08231 SWAP2 PUSH1 0x24 DUP1 DUP3 ADD SWAP3 PUSH1 0x20 SWAP3 SWAP1 SWAP2 SWAP1 DUP3 SWAP1 SUB ADD DUP2 DUP7 DUP1 EXTCODESIZE ISZERO DUP1 ISZERO PUSH2 0x1ABC JUMPI PUSH1 0x0 DUP1 REVERT JUMPDEST POP GAS STATICCALL ISZERO DUP1 ISZERO PUSH2 0x1AD0 JUMPI RETURNDATASIZE PUSH1 0x0 DUP1 RETURNDATACOPY RETURNDATASIZE PUSH1 0x0 REVERT JUMPDEST POP POP POP POP PUSH1 0x40 MLOAD RETURNDATASIZE PUSH1 0x20 DUP2 LT ISZERO PUSH2 0x1AE6 JUMPI PUSH1 0x0 DUP1 REVERT JUMPDEST POP MLOAD SWAP2 POP POP SWAP1 JUMP JUMPDEST PUSH1 0x0 SLOAD PUSH1 0x1 PUSH1 0x1 PUSH1 0xA0 SHL SUB AND DUP2 JUMP JUMPDEST PUSH2 0x1B05 PUSH2 0x42BD JUMP JUMPDEST PUSH1 0x1 PUSH1 0x1 PUSH1 0xA0 SHL SUB DUP3 AND PUSH1 0x0 SWAP1 DUP2 MSTORE PUSH1 0x7 PUSH1 0x20 MSTORE PUSH1 0x40 SWAP1 DUP2 SWAP1 KECCAK256 DUP2 MLOAD PUSH2 0x300 DUP2 ADD SWAP3 DUP4 SWAP1 MSTORE SWAP2 PUSH1 0x18 SWAP1 DUP3 DUP5 JUMPDEST DUP2 SLOAD DUP2 MSTORE PUSH1 0x20 ADD SWAP1 PUSH1 0x1 ADD SWAP1 DUP1 DUP4 GT PUSH2 0x1B31 JUMPI POP POP POP POP POP SWAP1 POP SWAP2 SWAP1 POP JUMP JUMPDEST PUSH1 0x5 SLOAD SWAP1 JUMP JUMPDEST PUSH1 0x1 PUSH1 0x1 PUSH1 0xA0 SHL SUB DUP3 AND PUSH1 0x0 SWAP1 DUP2 MSTORE PUSH1 0x6 PUSH1 0x20 MSTORE PUSH1 0x40 DUP2 KECCAK256 SLOAD PUSH1 0xFF AND PUSH2 0x1BC3 JUMPI PUSH1 0x40 DUP1 MLOAD PUSH3 0x461BCD PUSH1 0xE5 SHL DUP2 MSTORE PUSH1 0x20 PUSH1 0x4 DUP3 ADD MSTORE PUSH1 0x1D PUSH1 0x24 DUP3 ADD MSTORE PUSH32 0x496E737472756D656E7420616C726561647920737570706F727465642E000000 PUSH1 0x44 DUP3 ADD MSTORE SWAP1 MLOAD SWAP1 DUP2 SWAP1 SUB PUSH1 0x64 ADD SWAP1 REVERT JUMPDEST PUSH1 0x5 SLOAD PUSH1 0x0 SWAP1 DUP2 JUMPDEST DUP2 DUP2 LT ISZERO PUSH2 0x1C15 JUMPI DUP6 PUSH1 0x1 PUSH1 0x1 PUSH1 0xA0 SHL SUB AND PUSH1 0x5 DUP3 DUP2 SLOAD DUP2 LT PUSH2 0x1BEA JUMPI INVALID JUMPDEST PUSH1 0x0 SWAP2 DUP3 MSTORE PUSH1 0x20 SWAP1 SWAP2 KECCAK256 ADD SLOAD PUSH1 0x1 PUSH1 0x1 PUSH1 0xA0 SHL SUB AND EQ ISZERO PUSH2 0x1C0D JUMPI DUP1 SWAP3 POP PUSH2 0x1C15 JUMP JUMPDEST PUSH1 0x1 ADD PUSH2 0x1BCB JUMP JUMPDEST POP PUSH1 0x5 PUSH1 0x1 DUP3 SUB DUP2 SLOAD DUP2 LT PUSH2 0x1C26 JUMPI INVALID JUMPDEST PUSH1 0x0 SWAP2 DUP3 MSTORE PUSH1 0x20 SWAP1 SWAP2 KECCAK256 ADD SLOAD PUSH1 0x5 DUP1 SLOAD PUSH1 0x1 PUSH1 0x1 PUSH1 0xA0 SHL SUB SWAP1 SWAP3 AND SWAP2 DUP5 SWAP1 DUP2 LT PUSH2 0x1C4C JUMPI INVALID JUMPDEST PUSH1 0x0 SWAP2 DUP3 MSTORE PUSH1 0x20 SWAP1 SWAP2 KECCAK256 ADD DUP1 SLOAD PUSH1 0x1 PUSH1 0x1 PUSH1 0xA0 SHL SUB NOT AND PUSH1 0x1 PUSH1 0x1 PUSH1 0xA0 SHL SUB SWAP3 SWAP1 SWAP3 AND SWAP2 SWAP1 SWAP2 OR SWAP1 SSTORE PUSH1 0x5 DUP1 SLOAD SWAP1 PUSH2 0x1C88 SWAP1 PUSH1 0x0 NOT DUP4 ADD PUSH2 0x4387 JUMP JUMPDEST POP PUSH1 0x5 SLOAD PUSH1 0x0 NOT DUP3 ADD SWAP1 DUP2 EQ PUSH2 0x1CCF JUMPI PUSH1 0x40 MLOAD PUSH3 0x461BCD PUSH1 0xE5 SHL DUP2 MSTORE PUSH1 0x4 ADD DUP1 DUP1 PUSH1 0x20 ADD DUP3 DUP2 SUB DUP3 MSTORE PUSH1 0x46 DUP2 MSTORE PUSH1 0x20 ADD DUP1 PUSH2 0x44F7 PUSH1 0x46 SWAP2 CODECOPY PUSH1 0x60 ADD SWAP2 POP POP PUSH1 0x40 MLOAD DUP1 SWAP2 SUB SWAP1 REVERT JUMPDEST PUSH1 0x60 PUSH1 0x6 PUSH1 0x0 DUP9 PUSH1 0x1 PUSH1 0x1 PUSH1 0xA0 SHL SUB AND PUSH1 0x1 PUSH1 0x1 PUSH1 0xA0 SHL SUB AND DUP2 MSTORE PUSH1 0x20 ADD SWAP1 DUP2 MSTORE PUSH1 0x20 ADD PUSH1 0x0 KECCAK256 PUSH1 0x1 ADD DUP1 SLOAD PUSH1 0x1 DUP2 PUSH1 0x1 AND ISZERO PUSH2 0x100 MUL SUB AND PUSH1 0x2 SWAP1 DIV DUP1 PUSH1 0x1F ADD PUSH1 0x20 DUP1 SWAP2 DIV MUL PUSH1 0x20 ADD PUSH1 0x40 MLOAD SWAP1 DUP2 ADD PUSH1 0x40 MSTORE DUP1 SWAP3 SWAP2 SWAP1 DUP2 DUP2 MSTORE PUSH1 0x20 ADD DUP3 DUP1 SLOAD PUSH1 0x1 DUP2 PUSH1 0x1 AND ISZERO PUSH2 0x100 MUL SUB AND PUSH1 0x2 SWAP1 DIV DUP1 ISZERO PUSH2 0x1D8D JUMPI DUP1 PUSH1 0x1F LT PUSH2 0x1D62 JUMPI PUSH2 0x100 DUP1 DUP4 SLOAD DIV MUL DUP4 MSTORE SWAP2 PUSH1 0x20 ADD SWAP2 PUSH2 0x1D8D JUMP JUMPDEST DUP3 ADD SWAP2 SWAP1 PUSH1 0x0 MSTORE PUSH1 0x20 PUSH1 0x0 KECCAK256 SWAP1 JUMPDEST DUP2 SLOAD DUP2 MSTORE SWAP1 PUSH1 0x1 ADD SWAP1 PUSH1 0x20 ADD DUP1 DUP4 GT PUSH2 0x1D70 JUMPI DUP3 SWAP1 SUB PUSH1 0x1F AND DUP3 ADD SWAP2 JUMPDEST POP POP POP POP PUSH1 0x1 PUSH1 0x1 PUSH1 0xA0 SHL SUB DUP10 AND PUSH1 0x0 SWAP1 DUP2 MSTORE PUSH1 0x6 PUSH1 0x20 MSTORE PUSH1 0x40 DUP2 KECCAK256 DUP1 SLOAD PUSH1 0xFF NOT AND DUP2 SSTORE SWAP3 SWAP4 POP SWAP1 POP PUSH2 0x1DC3 PUSH1 0x1 DUP4 ADD DUP3 PUSH2 0x43B0 JUMP JUMPDEST POP PUSH1 0x2 DUP2 DUP2 ADD DUP1 SLOAD PUSH1 0x1 PUSH1 0x1 PUSH1 0xA0 SHL SUB NOT AND SWAP1 SSTORE PUSH1 0x0 PUSH1 0x3 DUP4 ADD DUP2 SWAP1 SSTORE PUSH1 0x4 DUP4 ADD DUP1 SLOAD PUSH1 0xFF NOT AND SWAP1 SSTORE PUSH1 0x5 DUP4 ADD DUP2 SWAP1 SSTORE PUSH1 0x6 DUP4 ADD DUP2 SWAP1 SSTORE PUSH1 0x7 DUP1 DUP5 ADD DUP3 SWAP1 SSTORE PUSH1 0x8 SWAP1 SWAP4 ADD DUP2 SWAP1 SSTORE PUSH1 0x1 PUSH1 0x1 PUSH1 0xA0 SHL SUB DUP11 AND DUP2 MSTORE PUSH1 0x22 PUSH1 0x20 SWAP1 DUP2 MSTORE PUSH1 0x40 DUP1 DUP4 KECCAK256 DUP4 DUP2 SSTORE PUSH1 0x1 DUP2 ADD DUP5 SWAP1 SSTORE SWAP1 SWAP4 ADD DUP3 SWAP1 SSTORE SWAP3 SWAP1 SWAP3 MSTORE DUP2 KECCAK256 SWAP1 PUSH2 0x1E43 DUP3 DUP3 PUSH2 0x43F7 JUMP JUMPDEST PUSH1 0x18 DUP3 ADD PUSH1 0x0 PUSH2 0x100 EXP DUP2 SLOAD SWAP1 PUSH4 0xFFFFFFFF MUL NOT AND SWAP1 SSTORE POP POP PUSH32 0x65F75A1DD08CC1DB84FBA8E6F47EE955C0A2D816B86A642BE1F1F7867BF38EE5 DUP8 DUP8 DUP4 NUMBER PUSH1 0x40 MLOAD DUP1 DUP6 PUSH1 0x1 PUSH1 0x1 PUSH1 0xA0 SHL SUB AND PUSH1 0x1 PUSH1 0x1 PUSH1 0xA0 SHL SUB AND DUP2 MSTORE PUSH1 0x20 ADD DUP5 PUSH1 0x1 PUSH1 0x1 PUSH1 0xA0 SHL SUB AND PUSH1 0x1 PUSH1 0x1 PUSH1 0xA0 SHL SUB AND DUP2 MSTORE PUSH1 0x20 ADD DUP1 PUSH1 0x20 ADD DUP4 DUP2 MSTORE PUSH1 0x20 ADD DUP3 DUP2 SUB DUP3 MSTORE DUP5 DUP2 DUP2 MLOAD DUP2 MSTORE PUSH1 0x20 ADD SWAP2 POP DUP1 MLOAD SWAP1 PUSH1 0x20 ADD SWAP1 DUP1 DUP4 DUP4 PUSH1 0x0 JUMPDEST DUP4 DUP2 LT ISZERO PUSH2 0x1EF4 JUMPI DUP2 DUP2 ADD MLOAD DUP4 DUP3 ADD MSTORE PUSH1 0x20 ADD PUSH2 0x1EDC JUMP JUMPDEST POP POP POP POP SWAP1 POP SWAP1 DUP2 ADD SWAP1 PUSH1 0x1F AND DUP1 ISZERO PUSH2 0x1F21 JUMPI DUP1 DUP3 SUB DUP1 MLOAD PUSH1 0x1 DUP4 PUSH1 0x20 SUB PUSH2 0x100 EXP SUB NOT AND DUP2 MSTORE PUSH1 0x20 ADD SWAP2 POP JUMPDEST POP SWAP6 POP POP POP POP POP POP PUSH1 0x40 MLOAD DUP1 SWAP2 SUB SWAP1 LOG1 POP PUSH1 0x1 SWAP7 SWAP6 POP POP POP POP POP POP JUMP JUMPDEST PUSH1 0x1 PUSH1 0x1 PUSH1 0xA0 SHL SUB DUP2 AND PUSH1 0x0 SWAP1 DUP2 MSTORE PUSH1 0x6 PUSH1 0x20 MSTORE PUSH1 0x40 DUP2 KECCAK256 SLOAD PUSH1 0xFF AND PUSH2 0x1F99 JUMPI PUSH1 0x40 DUP1 MLOAD PUSH3 0x461BCD PUSH1 0xE5 SHL DUP2 MSTORE PUSH1 0x20 PUSH1 0x4 DUP3 ADD MSTORE PUSH1 0x19 PUSH1 0x24 DUP3 ADD MSTORE PUSH1 0x0 DUP1 MLOAD PUSH1 0x20 PUSH2 0x4881 DUP4 CODECOPY DUP2 MLOAD SWAP2 MSTORE PUSH1 0x44 DUP3 ADD MSTORE SWAP1 MLOAD SWAP1 DUP2 SWAP1 SUB PUSH1 0x64 ADD SWAP1 REVERT JUMPDEST PUSH1 0x1 PUSH1 0x1 PUSH1 0xA0 SHL SUB DUP3 AND PUSH1 0x0 SWAP1 DUP2 MSTORE PUSH1 0x6 PUSH1 0x20 MSTORE PUSH1 0x40 SWAP1 KECCAK256 PUSH1 0x4 ADD SLOAD PUSH1 0xFF AND ISZERO PUSH2 0x1FF4 JUMPI PUSH1 0x40 MLOAD PUSH3 0x461BCD PUSH1 0xE5 SHL DUP2 MSTORE PUSH1 0x4 ADD DUP1 DUP1 PUSH1 0x20 ADD DUP3 DUP2 SUB DUP3 MSTORE PUSH1 0x3C DUP2 MSTORE PUSH1 0x20 ADD DUP1 PUSH2 0x45A5 PUSH1 0x3C SWAP2 CODECOPY PUSH1 0x40 ADD SWAP2 POP POP PUSH1 0x40 MLOAD DUP1 SWAP2 SUB SWAP1 REVERT JUMPDEST PUSH2 0x1FFC PUSH2 0x1973 JUMP JUMPDEST POP PUSH1 0x1 PUSH1 0x1 PUSH1 0xA0 SHL SUB DUP3 AND PUSH1 0x0 SWAP1 DUP2 MSTORE PUSH1 0x6 PUSH1 0x20 MSTORE PUSH1 0x40 SWAP1 KECCAK256 PUSH1 0x4 DUP2 ADD DUP1 SLOAD PUSH1 0xFF NOT AND PUSH1 0x1 SWAP1 DUP2 OR SWAP2 DUP3 SWAP1 SSTORE PUSH32 0x95EB8164ADA5BBD9B16BB9918BCF97960C1D006F76427F3FAF2BFB2EBC963E42 SWAP3 DUP6 SWAP3 SWAP2 ADD SWAP1 PUSH1 0xFF AND PUSH2 0x205A PUSH2 0x9FD JUMP JUMPDEST PUSH1 0x40 DUP1 MLOAD PUSH1 0x1 PUSH1 0x1 PUSH1 0xA0 SHL SUB DUP7 AND DUP2 MSTORE DUP4 ISZERO ISZERO SWAP2 DUP2 ADD SWAP2 SWAP1 SWAP2 MSTORE PUSH4 0xFFFFFFFF DUP3 AND PUSH1 0x60 DUP3 ADD MSTORE PUSH1 0x80 PUSH1 0x20 DUP3 ADD DUP2 DUP2 MSTORE DUP6 SLOAD PUSH1 0x2 PUSH1 0x0 NOT PUSH2 0x100 PUSH1 0x1 DUP5 AND ISZERO MUL ADD SWAP1 SWAP2 AND DIV SWAP2 DUP4 ADD DUP3 SWAP1 MSTORE SWAP1 PUSH1 0xA0 DUP4 ADD SWAP1 DUP7 SWAP1 DUP1 ISZERO PUSH2 0x20F9 JUMPI DUP1 PUSH1 0x1F LT PUSH2 0x20CE JUMPI PUSH2 0x100 DUP1 DUP4 SLOAD DIV MUL DUP4 MSTORE SWAP2 PUSH1 0x20 ADD SWAP2 PUSH2 0x20F9 JUMP JUMPDEST DUP3 ADD SWAP2 SWAP1 PUSH1 0x0 MSTORE PUSH1 0x20 PUSH1 0x0 KECCAK256 SWAP1 JUMPDEST DUP2 SLOAD DUP2 MSTORE SWAP1 PUSH1 0x1 ADD SWAP1 PUSH1 0x20 ADD DUP1 DUP4 GT PUSH2 0x20DC JUMPI DUP3 SWAP1 SUB PUSH1 0x1F AND DUP3 ADD SWAP2 JUMPDEST POP POP SWAP6 POP POP POP POP POP POP PUSH1 0x40 MLOAD DUP1 SWAP2 SUB SWAP1 LOG1 POP PUSH1 0x1 SWAP2 SWAP1 POP JUMP JUMPDEST PUSH1 0x0 PUSH2 0x211C PUSH2 0x9FD JUMP JUMPDEST PUSH4 0xFFFFFFFF AND PUSH1 0x6 PUSH1 0x0 DUP5 PUSH1 0x1 PUSH1 0x1 PUSH1 0xA0 SHL SUB AND PUSH1 0x1 PUSH1 0x1 PUSH1 0xA0 SHL SUB AND DUP2 MSTORE PUSH1 0x20 ADD SWAP1 DUP2 MSTORE PUSH1 0x20 ADD PUSH1 0x0 KECCAK256 PUSH1 0x6 ADD SLOAD EQ ISZERO PUSH2 0x2159 JUMPI POP PUSH1 0x1 PUSH2 0x8EA JUMP JUMPDEST PUSH1 0x1 PUSH1 0x1 PUSH1 0xA0 SHL SUB DUP3 AND PUSH1 0x0 SWAP1 DUP2 MSTORE PUSH1 0x6 PUSH1 0x20 SWAP1 DUP2 MSTORE PUSH1 0x40 DUP1 DUP4 KECCAK256 PUSH1 0x22 DUP4 MSTORE DUP2 DUP5 KECCAK256 DUP1 SLOAD PUSH1 0x2 SWAP1 SWAP2 ADD SLOAD DUP4 MLOAD PUSH1 0x60 DUP2 ADD SWAP1 SWAP5 MSTORE PUSH1 0x33 DUP1 DUP6 MSTORE SWAP3 SWAP6 SWAP5 PUSH2 0x21AA SWAP5 SWAP3 SWAP4 SWAP2 SWAP3 SWAP2 SWAP1 PUSH2 0x45E1 SWAP1 DUP4 ADD CODECOPY PUSH2 0x3915 JUMP JUMPDEST SWAP1 POP PUSH1 0x0 PUSH2 0x21B6 PUSH2 0x9FD JUMP JUMPDEST PUSH4 0xFFFFFFFF AND SWAP1 POP PUSH1 0x0 DUP4 PUSH1 0x5 ADD SLOAD SWAP1 POP PUSH1 0x0 PUSH2 0x21F0 DUP4 DUP7 PUSH1 0x6 ADD SLOAD PUSH1 0x40 MLOAD DUP1 PUSH1 0x60 ADD PUSH1 0x40 MSTORE DUP1 PUSH1 0x33 DUP2 MSTORE PUSH1 0x20 ADD PUSH2 0x4816 PUSH1 0x33 SWAP2 CODECOPY PUSH2 0x2BD4 JUMP JUMPDEST PUSH1 0x6 DUP7 ADD SLOAD PUSH1 0x40 DUP1 MLOAD PUSH1 0x1 PUSH1 0x1 PUSH1 0xA0 SHL SUB DUP12 AND DUP2 MSTORE PUSH1 0x20 DUP2 ADD DUP9 SWAP1 MSTORE DUP1 DUP3 ADD DUP7 SWAP1 MSTORE PUSH1 0x60 DUP2 ADD SWAP3 SWAP1 SWAP3 MSTORE PUSH1 0x80 DUP3 ADD DUP7 SWAP1 MSTORE PUSH1 0xA0 DUP3 ADD DUP4 SWAP1 MSTORE MLOAD SWAP2 SWAP3 POP PUSH32 0x33C3C4FBBF284318EED04C3CF9DAAC06E5923D93FE4A2BE263A7EF9CA04A61D1 SWAP2 SWAP1 DUP2 SWAP1 SUB PUSH1 0xC0 ADD SWAP1 LOG1 PUSH1 0x0 DUP2 GT DUP1 ISZERO PUSH2 0x2267 JUMPI POP PUSH1 0x0 DUP5 GT JUMPDEST ISZERO PUSH2 0x23DC JUMPI PUSH1 0x0 PUSH2 0x2278 DUP3 DUP7 PUSH2 0x3973 JUMP JUMPDEST PUSH1 0x1 PUSH1 0x1 PUSH1 0xA0 SHL SUB DUP1 DUP11 AND PUSH1 0x0 SWAP1 DUP2 MSTORE PUSH1 0x6 PUSH1 0x20 SWAP1 DUP2 MSTORE PUSH1 0x40 DUP1 DUP4 KECCAK256 PUSH1 0x2 ADD SLOAD DUP2 MLOAD PUSH4 0x18160DDD PUSH1 0xE0 SHL DUP2 MSTORE SWAP2 MLOAD SWAP6 SWAP7 POP SWAP3 SWAP5 SWAP3 SWAP1 SWAP4 AND SWAP3 PUSH4 0x18160DDD SWAP3 PUSH1 0x4 DUP1 DUP4 ADD SWAP4 SWAP3 DUP3 SWAP1 SUB ADD DUP2 DUP7 DUP1 EXTCODESIZE ISZERO DUP1 ISZERO PUSH2 0x22D1 JUMPI PUSH1 0x0 DUP1 REVERT JUMPDEST POP GAS STATICCALL ISZERO DUP1 ISZERO PUSH2 0x22E5 JUMPI RETURNDATASIZE PUSH1 0x0 DUP1 RETURNDATACOPY RETURNDATASIZE PUSH1 0x0 REVERT JUMPDEST POP POP POP POP PUSH1 0x40 MLOAD RETURNDATASIZE PUSH1 0x20 DUP2 LT ISZERO PUSH2 0x22FB JUMPI PUSH1 0x0 DUP1 REVERT JUMPDEST POP MLOAD SWAP1 POP PUSH2 0x2307 PUSH2 0x4406 JUMP JUMPDEST PUSH1 0x0 DUP3 GT PUSH2 0x2324 JUMPI PUSH1 0x40 MLOAD DUP1 PUSH1 0x20 ADD PUSH1 0x40 MSTORE DUP1 PUSH1 0x0 DUP2 MSTORE POP PUSH2 0x232E JUMP JUMPDEST PUSH2 0x232E DUP4 DUP4 PUSH2 0x39B5 JUMP JUMPDEST SWAP1 POP PUSH2 0x2338 PUSH2 0x4406 JUMP JUMPDEST PUSH2 0x2354 PUSH1 0x40 MLOAD DUP1 PUSH1 0x20 ADD PUSH1 0x40 MSTORE DUP1 DUP12 PUSH1 0x5 ADD SLOAD DUP2 MSTORE POP DUP4 PUSH2 0x39F3 JUMP JUMPDEST SWAP1 POP PUSH32 0xE95DD326FD60B246147CA887C909941BE4959F1D69568FADA2DE48030966A6B6 DUP12 DUP5 DUP7 DUP6 PUSH1 0x0 ADD MLOAD DUP6 PUSH1 0x0 ADD MLOAD PUSH1 0x40 MLOAD DUP1 DUP7 PUSH1 0x1 PUSH1 0x1 PUSH1 0xA0 SHL SUB AND PUSH1 0x1 PUSH1 0x1 PUSH1 0xA0 SHL SUB AND DUP2 MSTORE PUSH1 0x20 ADD DUP6 DUP2 MSTORE PUSH1 0x20 ADD DUP5 DUP2 MSTORE PUSH1 0x20 ADD DUP4 DUP2 MSTORE PUSH1 0x20 ADD DUP3 DUP2 MSTORE PUSH1 0x20 ADD SWAP6 POP POP POP POP POP POP PUSH1 0x40 MLOAD DUP1 SWAP2 SUB SWAP1 LOG1 MLOAD PUSH1 0x5 DUP10 ADD SSTORE POP POP POP PUSH1 0x6 DUP6 ADD DUP4 SWAP1 SSTORE PUSH2 0x23E4 JUMP JUMPDEST PUSH1 0x6 DUP6 ADD DUP4 SWAP1 SSTORE JUMPDEST PUSH2 0x23EC PUSH2 0x4419 JUMP JUMPDEST PUSH1 0x1 PUSH1 0x1 PUSH1 0xA0 SHL SUB DUP9 AND PUSH1 0x0 SWAP1 DUP2 MSTORE PUSH1 0x6 PUSH1 0x20 SWAP1 DUP2 MSTORE PUSH1 0x40 SWAP2 DUP3 SWAP1 KECCAK256 DUP3 MLOAD PUSH2 0x120 DUP2 ADD DUP5 MSTORE DUP2 SLOAD PUSH1 0xFF AND ISZERO ISZERO DUP2 MSTORE PUSH1 0x1 DUP1 DUP4 ADD DUP1 SLOAD DUP7 MLOAD PUSH1 0x2 PUSH2 0x100 SWAP5 DUP4 AND ISZERO SWAP5 SWAP1 SWAP5 MUL PUSH1 0x0 NOT ADD SWAP1 SWAP2 AND SWAP3 SWAP1 SWAP3 DIV PUSH1 0x1F DUP2 ADD DUP7 SWAP1 DIV DUP7 MUL DUP4 ADD DUP7 ADD SWAP1 SWAP7 MSTORE DUP6 DUP3 MSTORE SWAP2 SWAP5 SWAP3 SWAP4 DUP6 DUP2 ADD SWAP4 SWAP2 SWAP3 SWAP2 SWAP1 DUP4 ADD DUP3 DUP3 DUP1 ISZERO PUSH2 0x24AB JUMPI DUP1 PUSH1 0x1F LT PUSH2 0x2480 JUMPI PUSH2 0x100 DUP1 DUP4 SLOAD DIV MUL DUP4 MSTORE SWAP2 PUSH1 0x20 ADD SWAP2 PUSH2 0x24AB JUMP JUMPDEST DUP3 ADD SWAP2 SWAP1 PUSH1 0x0 MSTORE PUSH1 0x20 PUSH1 0x0 KECCAK256 SWAP1 JUMPDEST DUP2 SLOAD DUP2 MSTORE SWAP1 PUSH1 0x1 ADD SWAP1 PUSH1 0x20 ADD DUP1 DUP4 GT PUSH2 0x248E JUMPI DUP3 SWAP1 SUB PUSH1 0x1F AND DUP3 ADD SWAP2 JUMPDEST POP POP POP POP POP DUP2 MSTORE PUSH1 0x20 ADD PUSH1 0x2 DUP3 ADD PUSH1 0x0 SWAP1 SLOAD SWAP1 PUSH2 0x100 EXP SWAP1 DIV PUSH1 0x1 PUSH1 0x1 PUSH1 0xA0 SHL SUB AND PUSH1 0x1 PUSH1 0x1 PUSH1 0xA0 SHL SUB AND PUSH1 0x1 PUSH1 0x1 PUSH1 0xA0 SHL SUB AND DUP2 MSTORE PUSH1 0x20 ADD PUSH1 0x3 DUP3 ADD SLOAD DUP2 MSTORE PUSH1 0x20 ADD PUSH1 0x4 DUP3 ADD PUSH1 0x0 SWAP1 SLOAD SWAP1 PUSH2 0x100 EXP SWAP1 DIV PUSH1 0xFF AND ISZERO ISZERO ISZERO ISZERO DUP2 MSTORE PUSH1 0x20 ADD PUSH1 0x5 DUP3 ADD SLOAD DUP2 MSTORE PUSH1 0x20 ADD PUSH1 0x6 DUP3 ADD SLOAD DUP2 MSTORE PUSH1 0x20 ADD PUSH1 0x7 DUP3 ADD SLOAD DUP2 MSTORE PUSH1 0x20 ADD PUSH1 0x8 DUP3 ADD SLOAD DUP2 MSTORE POP POP SWAP1 POP PUSH32 0x4154C6DBC61D39E4A9BD51DFA697154D646E7B335507287D93212C0382DE097 DUP9 DUP3 PUSH1 0xA0 ADD MLOAD DUP4 PUSH1 0xC0 ADD MLOAD PUSH1 0x40 MLOAD DUP1 DUP5 PUSH1 0x1 PUSH1 0x1 PUSH1 0xA0 SHL SUB AND PUSH1 0x1 PUSH1 0x1 PUSH1 0xA0 SHL SUB AND DUP2 MSTORE PUSH1 0x20 ADD DUP4 DUP2 MSTORE PUSH1 0x20 ADD DUP3 DUP2 MSTORE PUSH1 0x20 ADD SWAP4 POP POP POP POP PUSH1 0x40 MLOAD DUP1 SWAP2 SUB SWAP1 LOG1 POP PUSH1 0x1 SWAP8 SWAP7 POP POP POP POP POP POP POP JUMP JUMPDEST PUSH1 0x0 PUSH2 0x129E DUP4 DUP4 PUSH1 0x40 MLOAD DUP1 PUSH1 0x40 ADD PUSH1 0x40 MSTORE DUP1 PUSH1 0x15 DUP2 MSTORE PUSH1 0x20 ADD PUSH21 0x7375627472616374696F6E20756E646572666C6F77 PUSH1 0x58 SHL DUP2 MSTORE POP PUSH2 0x2BD4 JUMP JUMPDEST PUSH1 0x0 PUSH2 0x25E5 PUSH2 0x9FD JUMP JUMPDEST PUSH1 0x1 PUSH1 0x1 PUSH1 0xA0 SHL SUB DUP4 AND PUSH1 0x0 SWAP1 DUP2 MSTORE PUSH1 0x6 PUSH1 0x20 MSTORE PUSH1 0x40 SWAP1 KECCAK256 PUSH1 0x8 ADD SLOAD PUSH4 0xFFFFFFFF SWAP2 SWAP1 SWAP2 AND EQ ISZERO PUSH2 0x2618 JUMPI POP PUSH1 0x1 PUSH2 0x8EA JUMP JUMPDEST PUSH1 0x1 PUSH1 0x1 PUSH1 0xA0 SHL SUB DUP3 AND PUSH1 0x0 SWAP1 DUP2 MSTORE PUSH1 0x6 PUSH1 0x20 SWAP1 DUP2 MSTORE PUSH1 0x40 DUP1 DUP4 KECCAK256 PUSH1 0x22 DUP4 MSTORE DUP2 DUP5 KECCAK256 PUSH1 0x1 DUP2 ADD SLOAD PUSH1 0x2 SWAP1 SWAP2 ADD SLOAD DUP4 MLOAD PUSH1 0x60 DUP2 ADD SWAP1 SWAP5 MSTORE PUSH1 0x33 DUP1 DUP6 MSTORE SWAP3 SWAP6 SWAP5 PUSH2 0x266C SWAP5 SWAP3 SWAP4 SWAP2 SWAP3 SWAP2 SWAP1 PUSH2 0x45E1 SWAP1 DUP4 ADD CODECOPY PUSH2 0x3915 JUMP JUMPDEST SWAP1 POP PUSH1 0x0 PUSH2 0x2678 PUSH2 0x9FD JUMP JUMPDEST PUSH4 0xFFFFFFFF AND SWAP1 POP PUSH1 0x0 DUP4 PUSH1 0x7 ADD SLOAD SWAP1 POP PUSH1 0x0 PUSH2 0x26B2 DUP4 DUP7 PUSH1 0x8 ADD SLOAD PUSH1 0x40 MLOAD DUP1 PUSH1 0x60 ADD PUSH1 0x40 MSTORE DUP1 PUSH1 0x33 DUP2 MSTORE PUSH1 0x20 ADD PUSH2 0x4712 PUSH1 0x33 SWAP2 CODECOPY PUSH2 0x2BD4 JUMP JUMPDEST PUSH1 0x8 DUP7 ADD SLOAD PUSH1 0x40 DUP1 MLOAD PUSH1 0x1 PUSH1 0x1 PUSH1 0xA0 SHL SUB DUP12 AND DUP2 MSTORE PUSH1 0x20 DUP2 ADD DUP9 SWAP1 MSTORE DUP1 DUP3 ADD DUP7 SWAP1 MSTORE PUSH1 0x60 DUP2 ADD SWAP3 SWAP1 SWAP3 MSTORE PUSH1 0x80 DUP3 ADD DUP7 SWAP1 MSTORE PUSH1 0xA0 DUP3 ADD DUP4 SWAP1 MSTORE MLOAD SWAP2 SWAP3 POP PUSH32 0xA058DFD6C04D9834195C4B80AE7CA35418D9D07D684CDEB45972EEC16C1B336E SWAP2 SWAP1 DUP2 SWAP1 SUB PUSH1 0xC0 ADD SWAP1 LOG1 PUSH1 0x0 DUP2 GT DUP1 ISZERO PUSH2 0x2729 JUMPI POP PUSH1 0x0 DUP5 GT JUMPDEST ISZERO PUSH2 0x289E JUMPI PUSH1 0x0 PUSH2 0x273A DUP3 DUP7 PUSH2 0x3973 JUMP JUMPDEST PUSH1 0x1 PUSH1 0x1 PUSH1 0xA0 SHL SUB DUP1 DUP11 AND PUSH1 0x0 SWAP1 DUP2 MSTORE PUSH1 0x6 PUSH1 0x20 SWAP1 DUP2 MSTORE PUSH1 0x40 DUP1 DUP4 KECCAK256 PUSH1 0x2 ADD SLOAD DUP2 MLOAD PUSH4 0x18160DDD PUSH1 0xE0 SHL DUP2 MSTORE SWAP2 MLOAD SWAP6 SWAP7 POP SWAP3 SWAP5 SWAP3 SWAP1 SWAP4 AND SWAP3 PUSH4 0x18160DDD SWAP3 PUSH1 0x4 DUP1 DUP4 ADD SWAP4 SWAP3 DUP3 SWAP1 SUB ADD DUP2 DUP7 DUP1 EXTCODESIZE ISZERO DUP1 ISZERO PUSH2 0x2793 JUMPI PUSH1 0x0 DUP1 REVERT JUMPDEST POP GAS STATICCALL ISZERO DUP1 ISZERO PUSH2 0x27A7 JUMPI RETURNDATASIZE PUSH1 0x0 DUP1 RETURNDATACOPY RETURNDATASIZE PUSH1 0x0 REVERT JUMPDEST POP POP POP POP PUSH1 0x40 MLOAD RETURNDATASIZE PUSH1 0x20 DUP2 LT ISZERO PUSH2 0x27BD JUMPI PUSH1 0x0 DUP1 REVERT JUMPDEST POP MLOAD SWAP1 POP PUSH2 0x27C9 PUSH2 0x4406 JUMP JUMPDEST PUSH1 0x0 DUP3 GT PUSH2 0x27E6 JUMPI PUSH1 0x40 MLOAD DUP1 PUSH1 0x20 ADD PUSH1 0x40 MSTORE DUP1 PUSH1 0x0 DUP2 MSTORE POP PUSH2 0x27F0 JUMP JUMPDEST PUSH2 0x27F0 DUP4 DUP4 PUSH2 0x39B5 JUMP JUMPDEST SWAP1 POP PUSH2 0x27FA PUSH2 0x4406 JUMP JUMPDEST PUSH2 0x2816 PUSH1 0x40 MLOAD DUP1 PUSH1 0x20 ADD PUSH1 0x40 MSTORE DUP1 DUP12 PUSH1 0x7 ADD SLOAD DUP2 MSTORE POP DUP4 PUSH2 0x39F3 JUMP JUMPDEST SWAP1 POP PUSH32 0xBE37F70E594E12D41728104A3B673F3291F124EA114F134A0880E6F5F84B16C DUP12 DUP5 DUP7 DUP6 PUSH1 0x0 ADD MLOAD DUP6 PUSH1 0x0 ADD MLOAD PUSH1 0x40 MLOAD DUP1 DUP7 PUSH1 0x1 PUSH1 0x1 PUSH1 0xA0 SHL SUB AND PUSH1 0x1 PUSH1 0x1 PUSH1 0xA0 SHL SUB AND DUP2 MSTORE PUSH1 0x20 ADD DUP6 DUP2 MSTORE PUSH1 0x20 ADD DUP5 DUP2 MSTORE PUSH1 0x20 ADD DUP4 DUP2 MSTORE PUSH1 0x20 ADD DUP3 DUP2 MSTORE PUSH1 0x20 ADD SWAP6 POP POP POP POP POP POP PUSH1 0x40 MLOAD DUP1 SWAP2 SUB SWAP1 LOG1 MLOAD PUSH1 0x7 DUP10 ADD SSTORE POP POP POP PUSH1 0x8 DUP6 ADD DUP4 SWAP1 SSTORE PUSH2 0x28A6 JUMP JUMPDEST PUSH1 0x8 DUP6 ADD DUP4 SWAP1 SSTORE JUMPDEST PUSH2 0x28AE PUSH2 0x4419 JUMP JUMPDEST PUSH1 0x1 PUSH1 0x1 PUSH1 0xA0 SHL SUB DUP9 AND PUSH1 0x0 SWAP1 DUP2 MSTORE PUSH1 0x6 PUSH1 0x20 SWAP1 DUP2 MSTORE PUSH1 0x40 SWAP2 DUP3 SWAP1 KECCAK256 DUP3 MLOAD PUSH2 0x120 DUP2 ADD DUP5 MSTORE DUP2 SLOAD PUSH1 0xFF AND ISZERO ISZERO DUP2 MSTORE PUSH1 0x1 DUP1 DUP4 ADD DUP1 SLOAD DUP7 MLOAD PUSH1 0x2 PUSH2 0x100 SWAP5 DUP4 AND ISZERO SWAP5 SWAP1 SWAP5 MUL PUSH1 0x0 NOT ADD SWAP1 SWAP2 AND SWAP3 SWAP1 SWAP3 DIV PUSH1 0x1F DUP2 ADD DUP7 SWAP1 DIV DUP7 MUL DUP4 ADD DUP7 ADD SWAP1 SWAP7 MSTORE DUP6 DUP3 MSTORE SWAP2 SWAP5 SWAP3 SWAP4 DUP6 DUP2 ADD SWAP4 SWAP2 SWAP3 SWAP2 SWAP1 DUP4 ADD DUP3 DUP3 DUP1 ISZERO PUSH2 0x296D JUMPI DUP1 PUSH1 0x1F LT PUSH2 0x2942 JUMPI PUSH2 0x100 DUP1 DUP4 SLOAD DIV MUL DUP4 MSTORE SWAP2 PUSH1 0x20 ADD SWAP2 PUSH2 0x296D JUMP JUMPDEST DUP3 ADD SWAP2 SWAP1 PUSH1 0x0 MSTORE PUSH1 0x20 PUSH1 0x0 KECCAK256 SWAP1 JUMPDEST DUP2 SLOAD DUP2 MSTORE SWAP1 PUSH1 0x1 ADD SWAP1 PUSH1 0x20 ADD DUP1 DUP4 GT PUSH2 0x2950 JUMPI DUP3 SWAP1 SUB PUSH1 0x1F AND DUP3 ADD SWAP2 JUMPDEST POP POP POP SWAP2 DUP4 MSTORE POP POP PUSH1 0x2 DUP3 ADD SLOAD PUSH1 0x1 PUSH1 0x1 PUSH1 0xA0 SHL SUB SWAP1 DUP2 AND PUSH1 0x20 DUP1 DUP5 ADD SWAP2 SWAP1 SWAP2 MSTORE PUSH1 0x3 DUP5 ADD SLOAD PUSH1 0x40 DUP1 DUP6 ADD SWAP2 SWAP1 SWAP2 MSTORE PUSH1 0x4 DUP6 ADD SLOAD PUSH1 0xFF AND ISZERO ISZERO PUSH1 0x60 DUP1 DUP7 ADD SWAP2 SWAP1 SWAP2 MSTORE PUSH1 0x5 DUP7 ADD SLOAD PUSH1 0x80 DUP7 ADD MSTORE PUSH1 0x6 DUP7 ADD SLOAD PUSH1 0xA0 DUP7 ADD MSTORE PUSH1 0x7 DUP7 ADD SLOAD PUSH1 0xC0 DUP7 ADD MSTORE PUSH1 0x8 SWAP1 SWAP6 ADD SLOAD PUSH1 0xE0 SWAP5 DUP6 ADD MSTORE SWAP3 DUP6 ADD MLOAD PUSH2 0x100 DUP7 ADD MLOAD DUP5 MLOAD SWAP4 DUP16 AND DUP5 MSTORE SWAP2 DUP4 ADD MSTORE DUP2 DUP4 ADD MSTORE SWAP1 MLOAD SWAP3 SWAP4 POP PUSH32 0x3186AADA172C7DFC5268ED7AFCFE1AF6F94D695B869760B6C2F90D092256056E SWAP3 SWAP1 DUP2 SWAP1 SUB SWAP1 SWAP2 ADD SWAP1 LOG1 POP PUSH1 0x1 SWAP8 SWAP7 POP POP POP POP POP POP POP JUMP JUMPDEST PUSH1 0x0 DUP1 SWAP1 SLOAD SWAP1 PUSH2 0x100 EXP SWAP1 DIV PUSH1 0x1 PUSH1 0x1 PUSH1 0xA0 SHL SUB AND PUSH1 0x1 PUSH1 0x1 PUSH1 0xA0 SHL SUB AND PUSH4 0x841AA40C PUSH1 0x40 MLOAD DUP2 PUSH4 0xFFFFFFFF AND PUSH1 0xE0 SHL DUP2 MSTORE PUSH1 0x4 ADD PUSH1 0x20 PUSH1 0x40 MLOAD DUP1 DUP4 SUB DUP2 DUP7 DUP1 EXTCODESIZE ISZERO DUP1 ISZERO PUSH2 0x2A7D JUMPI PUSH1 0x0 DUP1 REVERT JUMPDEST POP GAS STATICCALL ISZERO DUP1 ISZERO PUSH2 0x2A91 JUMPI RETURNDATASIZE PUSH1 0x0 DUP1 RETURNDATACOPY RETURNDATASIZE PUSH1 0x0 REVERT JUMPDEST POP POP POP POP PUSH1 0x40 MLOAD RETURNDATASIZE PUSH1 0x20 DUP2 LT ISZERO PUSH2 0x2AA7 JUMPI PUSH1 0x0 DUP1 REVERT JUMPDEST POP MLOAD PUSH1 0x1 DUP1 SLOAD PUSH1 0x1 PUSH1 0x1 PUSH1 0xA0 SHL SUB NOT AND PUSH1 0x1 PUSH1 0x1 PUSH1 0xA0 SHL SUB SWAP3 DUP4 AND OR SWAP1 SSTORE PUSH1 0x0 SLOAD PUSH1 0x40 DUP1 MLOAD PUSH4 0x1F94A275 PUSH1 0xE3 SHL DUP2 MSTORE SWAP1 MLOAD SWAP2 SWAP1 SWAP3 AND SWAP2 PUSH4 0xFCA513A8 SWAP2 PUSH1 0x4 DUP1 DUP4 ADD SWAP3 PUSH1 0x20 SWAP3 SWAP2 SWAP1 DUP3 SWAP1 SUB ADD DUP2 DUP7 DUP1 EXTCODESIZE ISZERO DUP1 ISZERO PUSH2 0x2B02 JUMPI PUSH1 0x0 DUP1 REVERT JUMPDEST POP GAS STATICCALL ISZERO DUP1 ISZERO PUSH2 0x2B16 JUMPI RETURNDATASIZE PUSH1 0x0 DUP1 RETURNDATACOPY RETURNDATASIZE PUSH1 0x0 REVERT JUMPDEST POP POP POP POP PUSH1 0x40 MLOAD RETURNDATASIZE PUSH1 0x20 DUP2 LT ISZERO PUSH2 0x2B2C JUMPI PUSH1 0x0 DUP1 REVERT JUMPDEST POP MLOAD PUSH1 0x2 DUP1 SLOAD PUSH1 0x1 PUSH1 0x1 PUSH1 0xA0 SHL SUB NOT AND PUSH1 0x1 PUSH1 0x1 PUSH1 0xA0 SHL SUB SWAP3 DUP4 AND OR SWAP1 SSTORE PUSH1 0x0 SLOAD PUSH1 0x40 DUP1 MLOAD PUSH4 0x76B7FBB PUSH1 0xE5 SHL DUP2 MSTORE SWAP1 MLOAD SWAP2 SWAP1 SWAP3 AND SWAP2 PUSH4 0xED6FF760 SWAP2 PUSH1 0x4 DUP1 DUP4 ADD SWAP3 PUSH1 0x20 SWAP3 SWAP2 SWAP1 DUP3 SWAP1 SUB ADD DUP2 DUP7 DUP1 EXTCODESIZE ISZERO DUP1 ISZERO PUSH2 0x2B87 JUMPI PUSH1 0x0 DUP1 REVERT JUMPDEST POP GAS STATICCALL ISZERO DUP1 ISZERO PUSH2 0x2B9B JUMPI RETURNDATASIZE PUSH1 0x0 DUP1 RETURNDATACOPY RETURNDATASIZE PUSH1 0x0 REVERT JUMPDEST POP POP POP POP PUSH1 0x40 MLOAD RETURNDATASIZE PUSH1 0x20 DUP2 LT ISZERO PUSH2 0x2BB1 JUMPI PUSH1 0x0 DUP1 REVERT JUMPDEST POP MLOAD PUSH1 0x3 DUP1 SLOAD PUSH1 0x1 PUSH1 0x1 PUSH1 0xA0 SHL SUB NOT AND PUSH1 0x1 PUSH1 0x1 PUSH1 0xA0 SHL SUB SWAP1 SWAP3 AND SWAP2 SWAP1 SWAP2 OR SWAP1 SSTORE JUMP JUMPDEST PUSH1 0x0 DUP2 DUP5 DUP5 GT ISZERO PUSH2 0x2C63 JUMPI PUSH1 0x40 MLOAD PUSH3 0x461BCD PUSH1 0xE5 SHL DUP2 MSTORE PUSH1 0x4 ADD DUP1 DUP1 PUSH1 0x20 ADD DUP3 DUP2 SUB DUP3 MSTORE DUP4 DUP2 DUP2 MLOAD DUP2 MSTORE PUSH1 0x20 ADD SWAP2 POP DUP1 MLOAD SWAP1 PUSH1 0x20 ADD SWAP1 DUP1 DUP4 DUP4 PUSH1 0x0 JUMPDEST DUP4 DUP2 LT ISZERO PUSH2 0x2C28 JUMPI DUP2 DUP2 ADD MLOAD DUP4 DUP3 ADD MSTORE PUSH1 0x20 ADD PUSH2 0x2C10 JUMP JUMPDEST POP POP POP POP SWAP1 POP SWAP1 DUP2 ADD SWAP1 PUSH1 0x1F AND DUP1 ISZERO PUSH2 0x2C55 JUMPI DUP1 DUP3 SUB DUP1 MLOAD PUSH1 0x1 DUP4 PUSH1 0x20 SUB PUSH2 0x100 EXP SUB NOT AND DUP2 MSTORE PUSH1 0x20 ADD SWAP2 POP JUMPDEST POP SWAP3 POP POP POP PUSH1 0x40 MLOAD DUP1 SWAP2 SUB SWAP1 REVERT JUMPDEST POP POP POP SWAP1 SUB SWAP1 JUMP JUMPDEST PUSH1 0x60 PUSH1 0x5 DUP1 SLOAD DUP1 PUSH1 0x20 MUL PUSH1 0x20 ADD PUSH1 0x40 MLOAD SWAP1 DUP2 ADD PUSH1 0x40 MSTORE DUP1 SWAP3 SWAP2 SWAP1 DUP2 DUP2 MSTORE PUSH1 0x20 ADD DUP3 DUP1 SLOAD DUP1 ISZERO PUSH2 0x2CC3 JUMPI PUSH1 0x20 MUL DUP3 ADD SWAP2 SWAP1 PUSH1 0x0 MSTORE PUSH1 0x20 PUSH1 0x0 KECCAK256 SWAP1 JUMPDEST DUP2 SLOAD PUSH1 0x1 PUSH1 0x1 PUSH1 0xA0 SHL SUB AND DUP2 MSTORE PUSH1 0x1 SWAP1 SWAP2 ADD SWAP1 PUSH1 0x20 ADD DUP1 DUP4 GT PUSH2 0x2CA5 JUMPI JUMPDEST POP POP PUSH1 0x20 SLOAD SWAP4 SWAP5 POP PUSH1 0x0 SWAP4 PUSH2 0x2D0D SWAP4 POP NUMBER SWAP3 POP PUSH1 0x8 SWAP2 POP PUSH1 0x1 PUSH1 0x1 PUSH1 0xE0 SHL SUB AND PUSH1 0x18 DUP2 LT PUSH2 0x2CED JUMPI INVALID JUMPDEST ADD SLOAD PUSH1 0x40 MLOAD DUP1 PUSH1 0x60 ADD PUSH1 0x40 MSTORE DUP1 PUSH1 0x21 DUP2 MSTORE PUSH1 0x20 ADD PUSH2 0x46C4 PUSH1 0x21 SWAP2 CODECOPY PUSH2 0x2BD4 JUMP JUMPDEST PUSH1 0x20 SLOAD SWAP1 SWAP2 POP NUMBER SWAP1 PUSH1 0x8 SWAP1 PUSH1 0x1 PUSH1 0x1 PUSH1 0xE0 SHL SUB AND PUSH1 0x18 DUP2 LT PUSH2 0x2D2B JUMPI INVALID JUMPDEST ADD SSTORE PUSH1 0x20 SLOAD PUSH32 0xD54B3C8DDE4FE116EE9CF6976B328B65C622D171E8A73017473B4257BD5BF6F8 SWAP1 PUSH1 0x1 PUSH1 0x1 PUSH1 0xE0 SHL SUB AND PUSH1 0x8 DUP2 PUSH1 0x18 DUP2 LT PUSH2 0x2D68 JUMPI INVALID JUMPDEST ADD SLOAD PUSH1 0x40 DUP1 MLOAD PUSH1 0x1 PUSH1 0x1 PUSH1 0xE0 SHL SUB SWAP1 SWAP4 AND DUP4 MSTORE PUSH1 0x20 DUP4 ADD SWAP2 SWAP1 SWAP2 MSTORE DUP2 DUP2 ADD DUP5 SWAP1 MSTORE NUMBER PUSH1 0x60 DUP4 ADD MSTORE MLOAD SWAP1 DUP2 SWAP1 SUB PUSH1 0x80 ADD SWAP1 LOG1 PUSH2 0x2DA1 PUSH2 0x3A18 JUMP JUMPDEST PUSH2 0x2DDC JUMPI PUSH1 0x40 MLOAD PUSH3 0x461BCD PUSH1 0xE5 SHL DUP2 MSTORE PUSH1 0x4 ADD DUP1 DUP1 PUSH1 0x20 ADD DUP3 DUP2 SUB DUP3 MSTORE PUSH1 0x22 DUP2 MSTORE PUSH1 0x20 ADD DUP1 PUSH2 0x4745 PUSH1 0x22 SWAP2 CODECOPY PUSH1 0x40 ADD SWAP2 POP POP PUSH1 0x40 MLOAD DUP1 SWAP2 SUB SWAP1 REVERT JUMPDEST PUSH1 0x60 DUP3 MLOAD PUSH1 0x40 MLOAD SWAP1 DUP1 DUP3 MSTORE DUP1 PUSH1 0x20 MUL PUSH1 0x20 ADD DUP3 ADD PUSH1 0x40 MSTORE DUP1 ISZERO PUSH2 0x2E19 JUMPI DUP2 PUSH1 0x20 ADD JUMPDEST PUSH2 0x2E06 PUSH2 0x4406 JUMP JUMPDEST DUP2 MSTORE PUSH1 0x20 ADD SWAP1 PUSH1 0x1 SWAP1 SUB SWAP1 DUP2 PUSH2 0x2DFE JUMPI SWAP1 POP JUMPDEST POP SWAP1 POP PUSH1 0x60 DUP4 MLOAD PUSH1 0x40 MLOAD SWAP1 DUP1 DUP3 MSTORE DUP1 PUSH1 0x20 MUL PUSH1 0x20 ADD DUP3 ADD PUSH1 0x40 MSTORE DUP1 ISZERO PUSH2 0x2E59 JUMPI DUP2 PUSH1 0x20 ADD JUMPDEST PUSH2 0x2E46 PUSH2 0x4406 JUMP JUMPDEST DUP2 MSTORE PUSH1 0x20 ADD SWAP1 PUSH1 0x1 SWAP1 SUB SWAP1 DUP2 PUSH2 0x2E3E JUMPI SWAP1 POP JUMPDEST POP SWAP1 POP PUSH2 0x2E64 PUSH2 0x4406 JUMP JUMPDEST POP PUSH1 0x40 DUP1 MLOAD PUSH1 0x20 DUP2 ADD SWAP1 SWAP2 MSTORE PUSH1 0x0 DUP1 DUP3 MSTORE JUMPDEST DUP6 MLOAD DUP2 LT ISZERO PUSH2 0x3605 JUMPI PUSH1 0x0 DUP7 DUP3 DUP2 MLOAD DUP2 LT PUSH2 0x2E8D JUMPI INVALID JUMPDEST PUSH1 0x20 MUL PUSH1 0x20 ADD ADD MLOAD SWAP1 POP PUSH2 0x2E9F PUSH2 0x4406 JUMP JUMPDEST PUSH1 0x40 DUP1 MLOAD PUSH1 0x20 DUP1 DUP3 ADD DUP4 MSTORE PUSH1 0x1 PUSH1 0x1 PUSH1 0xA0 SHL SUB DUP6 AND PUSH1 0x0 SWAP1 DUP2 MSTORE PUSH1 0x7 DUP3 MSTORE SWAP3 SWAP1 SWAP3 KECCAK256 SWAP2 SLOAD SWAP1 SWAP2 DUP3 SWAP2 PUSH1 0x1 PUSH1 0x1 PUSH1 0xE0 SHL SUB AND PUSH1 0x18 DUP2 LT PUSH2 0x2EDA JUMPI INVALID JUMPDEST ADD SLOAD SWAP1 MSTORE SWAP1 POP PUSH2 0x2EE8 PUSH2 0x4406 JUMP JUMPDEST PUSH1 0x40 DUP1 MLOAD PUSH1 0x20 DUP1 DUP3 ADD DUP1 DUP5 MSTORE PUSH1 0x2 SLOAD PUSH4 0xB3596F07 PUSH1 0xE0 SHL SWAP1 SWAP2 MSTORE PUSH1 0x1 PUSH1 0x1 PUSH1 0xA0 SHL SUB DUP8 DUP2 AND PUSH1 0x24 DUP6 ADD MSTORE SWAP4 MLOAD SWAP3 SWAP4 DUP5 SWAP4 SWAP2 AND SWAP2 PUSH4 0xB3596F07 SWAP2 PUSH1 0x44 DUP1 DUP7 ADD SWAP3 SWAP2 SWAP1 DUP2 DUP8 SUB ADD DUP2 DUP7 DUP1 EXTCODESIZE ISZERO DUP1 ISZERO PUSH2 0x2F3D JUMPI PUSH1 0x0 DUP1 REVERT JUMPDEST POP GAS STATICCALL ISZERO DUP1 ISZERO PUSH2 0x2F51 JUMPI RETURNDATASIZE PUSH1 0x0 DUP1 RETURNDATACOPY RETURNDATASIZE PUSH1 0x0 REVERT JUMPDEST POP POP POP POP PUSH1 0x40 MLOAD RETURNDATASIZE PUSH1 0x20 DUP2 LT ISZERO PUSH2 0x2F67 JUMPI PUSH1 0x0 DUP1 REVERT JUMPDEST POP MLOAD SWAP1 MSTORE DUP1 MLOAD SWAP1 SWAP2 POP PUSH2 0x2FAB JUMPI PUSH1 0x40 MLOAD PUSH3 0x461BCD PUSH1 0xE5 SHL DUP2 MSTORE PUSH1 0x4 ADD DUP1 DUP1 PUSH1 0x20 ADD DUP3 DUP2 SUB DUP3 MSTORE PUSH1 0x39 DUP2 MSTORE PUSH1 0x20 ADD DUP1 PUSH2 0x4657 PUSH1 0x39 SWAP2 CODECOPY PUSH1 0x40 ADD SWAP2 POP POP PUSH1 0x40 MLOAD DUP1 SWAP2 SUB SWAP1 REVERT JUMPDEST DUP1 MLOAD PUSH1 0x1 PUSH1 0x1 PUSH1 0xA0 SHL SUB DUP5 AND PUSH1 0x0 SWAP1 DUP2 MSTORE PUSH1 0x7 PUSH1 0x20 SWAP1 DUP2 MSTORE PUSH1 0x40 SWAP1 SWAP2 KECCAK256 SWAP1 SLOAD PUSH1 0x1 PUSH1 0x1 PUSH1 0xE0 SHL SUB AND PUSH1 0x18 DUP2 LT PUSH2 0x2FDD JUMPI INVALID JUMPDEST ADD SSTORE DUP2 MLOAD PUSH1 0x1 PUSH1 0x1 PUSH1 0xA0 SHL SUB DUP5 AND PUSH1 0x0 SWAP1 DUP2 MSTORE PUSH1 0x7 PUSH1 0x20 SWAP1 DUP2 MSTORE PUSH1 0x40 SWAP1 SWAP2 KECCAK256 SWAP1 SLOAD PUSH32 0x4C4CB8D799AD60C5E77071F11A367FF22E59C2DE36F996F1DAF8A2F99B1826A5 SWAP3 DUP7 SWAP3 SWAP1 SWAP2 PUSH1 0x1 PUSH1 0x1 PUSH1 0xE0 SHL SUB AND PUSH1 0x18 DUP2 LT PUSH2 0x3037 JUMPI INVALID JUMPDEST ADD SLOAD PUSH1 0x20 DUP1 SLOAD PUSH1 0x40 DUP1 MLOAD PUSH1 0x1 PUSH1 0x1 PUSH1 0xA0 SHL SUB SWAP1 SWAP7 AND DUP7 MSTORE SWAP2 DUP6 ADD SWAP4 SWAP1 SWAP4 MSTORE DUP4 DUP2 ADD SWAP2 SWAP1 SWAP2 MSTORE PUSH1 0x1 PUSH1 0x1 PUSH1 0xE0 SHL SUB SWAP1 SWAP2 AND PUSH1 0x60 DUP4 ADD MSTORE MLOAD SWAP1 DUP2 SWAP1 SUB PUSH1 0x80 ADD SWAP1 LOG1 PUSH1 0x1 PUSH1 0x1 PUSH1 0xA0 SHL SUB DUP4 AND PUSH1 0x0 SWAP1 DUP2 MSTORE PUSH1 0x6 PUSH1 0x20 MSTORE PUSH1 0x40 SWAP1 KECCAK256 PUSH1 0x4 ADD SLOAD PUSH1 0xFF AND ISZERO DUP1 PUSH2 0x30C3 JUMPI POP PUSH1 0x1 PUSH1 0x1 PUSH1 0xA0 SHL SUB DUP4 AND PUSH1 0x0 SWAP1 DUP2 MSTORE PUSH1 0x7 PUSH1 0x20 MSTORE PUSH1 0x40 SWAP1 KECCAK256 PUSH1 0x18 SWAP1 DUP2 ADD SLOAD PUSH4 0xFFFFFFFF AND EQ ISZERO JUMPDEST ISZERO PUSH2 0x322E JUMPI PUSH1 0x40 MLOAD DUP1 PUSH1 0x20 ADD PUSH1 0x40 MSTORE DUP1 PUSH1 0x0 DUP2 MSTORE POP DUP8 DUP6 DUP2 MLOAD DUP2 LT PUSH2 0x30E4 JUMPI INVALID JUMPDEST PUSH1 0x20 MUL PUSH1 0x20 ADD ADD DUP2 SWAP1 MSTORE POP PUSH1 0x40 MLOAD DUP1 PUSH1 0x20 ADD PUSH1 0x40 MSTORE DUP1 PUSH1 0x0 DUP2 MSTORE POP DUP7 DUP6 DUP2 MLOAD DUP2 LT PUSH2 0x310B JUMPI INVALID JUMPDEST PUSH1 0x20 SWAP1 DUP2 MUL SWAP2 SWAP1 SWAP2 ADD DUP2 ADD SWAP2 SWAP1 SWAP2 MSTORE PUSH1 0x1 PUSH1 0x1 PUSH1 0xA0 SHL SUB DUP5 AND PUSH1 0x0 SWAP1 DUP2 MSTORE PUSH1 0x7 SWAP1 SWAP2 MSTORE PUSH1 0x40 SWAP1 KECCAK256 PUSH1 0x18 SWAP1 DUP2 ADD SLOAD PUSH4 0xFFFFFFFF AND LT ISZERO PUSH2 0x3229 JUMPI PUSH1 0x1 PUSH1 0x1 PUSH1 0xA0 SHL SUB DUP4 AND PUSH1 0x0 SWAP1 DUP2 MSTORE PUSH1 0x7 PUSH1 0x20 SWAP1 DUP2 MSTORE PUSH1 0x40 SWAP2 DUP3 SWAP1 KECCAK256 PUSH1 0x18 ADD SLOAD DUP3 MLOAD DUP1 DUP5 ADD SWAP1 SWAP4 MSTORE PUSH1 0x1E DUP4 MSTORE PUSH32 0x507269636520436F756E746572206164646974696F6E206661696C65642E0000 SWAP2 DUP4 ADD SWAP2 SWAP1 SWAP2 MSTORE PUSH4 0xFFFFFFFF AND SWAP1 PUSH2 0x31AD SWAP1 DUP3 SWAP1 PUSH1 0x1 SWAP1 PUSH2 0x3915 JUMP JUMPDEST PUSH1 0x1 PUSH1 0x1 PUSH1 0xA0 SHL SUB DUP6 AND PUSH1 0x0 SWAP1 DUP2 MSTORE PUSH1 0x7 PUSH1 0x20 SWAP1 DUP2 MSTORE PUSH1 0x40 SWAP2 DUP3 SWAP1 KECCAK256 PUSH1 0x18 ADD DUP1 SLOAD PUSH4 0xFFFFFFFF NOT AND PUSH4 0xFFFFFFFF SWAP5 DUP6 AND OR SWAP1 DUP2 SWAP1 SSTORE DUP2 SLOAD DUP4 MLOAD SWAP2 SWAP1 SWAP5 AND DUP2 MSTORE PUSH1 0x1 PUSH1 0x1 PUSH1 0xE0 SHL SUB SWAP1 SWAP4 AND SWAP1 DUP4 ADD MSTORE DUP1 MLOAD PUSH32 0x696A3915458C89A47768BC2632C577BF3483B15461AF15C18411AD653C4F67AF SWAP3 DUP2 SWAP1 SUB SWAP1 SWAP2 ADD SWAP1 LOG1 POP JUMPDEST PUSH2 0x3577 JUMP JUMPDEST PUSH2 0x3238 DUP3 DUP3 PUSH2 0x3A71 JUMP JUMPDEST ISZERO PUSH2 0x33FD JUMPI PUSH1 0x1 PUSH1 0x1 PUSH1 0xA0 SHL SUB DUP1 DUP5 AND PUSH1 0x0 SWAP1 DUP2 MSTORE PUSH1 0x6 PUSH1 0x20 SWAP1 DUP2 MSTORE PUSH1 0x40 DUP1 DUP4 KECCAK256 PUSH1 0x2 ADD SLOAD DUP2 MLOAD PUSH4 0x18160DDD PUSH1 0xE0 SHL DUP2 MSTORE SWAP2 MLOAD SWAP4 SWAP5 AND SWAP3 PUSH4 0x18160DDD SWAP3 PUSH1 0x4 DUP1 DUP5 ADD SWAP4 SWAP2 SWAP3 SWAP2 DUP3 SWAP1 SUB ADD DUP2 DUP7 DUP1 EXTCODESIZE ISZERO DUP1 ISZERO PUSH2 0x3292 JUMPI PUSH1 0x0 DUP1 REVERT JUMPDEST POP GAS STATICCALL ISZERO DUP1 ISZERO PUSH2 0x32A6 JUMPI RETURNDATASIZE PUSH1 0x0 DUP1 RETURNDATACOPY RETURNDATASIZE PUSH1 0x0 REVERT JUMPDEST POP POP POP POP PUSH1 0x40 MLOAD RETURNDATASIZE PUSH1 0x20 DUP2 LT ISZERO PUSH2 0x32BC JUMPI PUSH1 0x0 DUP1 REVERT JUMPDEST POP MLOAD SWAP1 POP PUSH1 0x0 PUSH2 0x32CA PUSH2 0x4406 JUMP JUMPDEST PUSH2 0x32D4 DUP6 DUP6 PUSH2 0x3A78 JUMP JUMPDEST SWAP2 POP SWAP2 POP PUSH1 0x0 PUSH2 0x32E2 PUSH2 0x4406 JUMP JUMPDEST PUSH2 0x32EC DUP4 DUP7 PUSH2 0x3AB4 JUMP JUMPDEST DUP1 MLOAD PUSH1 0x1 PUSH1 0x1 PUSH1 0xA0 SHL SUB DUP1 DUP13 AND PUSH1 0x0 DUP2 DUP2 MSTORE PUSH1 0x6 PUSH1 0x20 SWAP1 DUP2 MSTORE PUSH1 0x40 SWAP2 DUP3 SWAP1 KECCAK256 PUSH1 0x3 ADD SLOAD PUSH1 0x2 SLOAD DUP4 MLOAD PUSH4 0xA9EC70D1 PUSH1 0xE0 SHL DUP2 MSTORE PUSH1 0x4 DUP2 ADD SWAP6 SWAP1 SWAP6 MSTORE SWAP3 MLOAD SWAP8 SWAP10 POP SWAP6 SWAP8 POP PUSH2 0x338F SWAP7 SWAP5 SWAP6 SWAP5 SWAP2 SWAP1 SWAP4 AND SWAP3 PUSH4 0xA9EC70D1 SWAP3 PUSH1 0x24 DUP1 DUP3 ADD SWAP4 SWAP2 DUP3 SWAP1 SUB ADD DUP2 DUP7 DUP1 EXTCODESIZE ISZERO DUP1 ISZERO PUSH2 0x335B JUMPI PUSH1 0x0 DUP1 REVERT JUMPDEST POP GAS STATICCALL ISZERO DUP1 ISZERO PUSH2 0x336F JUMPI RETURNDATASIZE PUSH1 0x0 DUP1 RETURNDATACOPY RETURNDATASIZE PUSH1 0x0 REVERT JUMPDEST POP POP POP POP PUSH1 0x40 MLOAD RETURNDATASIZE PUSH1 0x20 DUP2 LT ISZERO PUSH2 0x3385 JUMPI PUSH1 0x0 DUP1 REVERT JUMPDEST POP MLOAD PUSH1 0xFF AND PUSH2 0x3B1C JUMP JUMPDEST DUP13 DUP11 DUP2 MLOAD DUP2 LT PUSH2 0x339B JUMPI INVALID JUMPDEST PUSH1 0x20 MUL PUSH1 0x20 ADD ADD MLOAD PUSH1 0x0 ADD DUP2 DUP2 MSTORE POP POP PUSH1 0x40 MLOAD DUP1 PUSH1 0x20 ADD PUSH1 0x40 MSTORE DUP1 PUSH1 0x0 DUP2 MSTORE POP DUP12 DUP11 DUP2 MLOAD DUP2 LT PUSH2 0x33C7 JUMPI INVALID JUMPDEST PUSH1 0x20 MUL PUSH1 0x20 ADD ADD DUP2 SWAP1 MSTORE POP PUSH2 0x33EF DUP11 DUP14 DUP12 DUP2 MLOAD DUP2 LT PUSH2 0x33E2 JUMPI INVALID JUMPDEST PUSH1 0x20 MUL PUSH1 0x20 ADD ADD MLOAD PUSH2 0x3C79 JUMP JUMPDEST SWAP11 POP PUSH2 0x3577 SWAP6 POP POP POP POP POP POP JUMP JUMPDEST PUSH1 0x1 PUSH1 0x1 PUSH1 0xA0 SHL SUB DUP1 DUP5 AND PUSH1 0x0 SWAP1 DUP2 MSTORE PUSH1 0x6 PUSH1 0x20 SWAP1 DUP2 MSTORE PUSH1 0x40 DUP1 DUP4 KECCAK256 PUSH1 0x2 ADD SLOAD DUP2 MLOAD PUSH4 0x18160DDD PUSH1 0xE0 SHL DUP2 MSTORE SWAP2 MLOAD SWAP4 SWAP5 AND SWAP3 PUSH4 0x18160DDD SWAP3 PUSH1 0x4 DUP1 DUP5 ADD SWAP4 SWAP2 SWAP3 SWAP2 DUP3 SWAP1 SUB ADD DUP2 DUP7 DUP1 EXTCODESIZE ISZERO DUP1 ISZERO PUSH2 0x3452 JUMPI PUSH1 0x0 DUP1 REVERT JUMPDEST POP GAS STATICCALL ISZERO DUP1 ISZERO PUSH2 0x3466 JUMPI RETURNDATASIZE PUSH1 0x0 DUP1 RETURNDATACOPY RETURNDATASIZE PUSH1 0x0 REVERT JUMPDEST POP POP POP POP PUSH1 0x40 MLOAD RETURNDATASIZE PUSH1 0x20 DUP2 LT ISZERO PUSH2 0x347C JUMPI PUSH1 0x0 DUP1 REVERT JUMPDEST POP MLOAD SWAP1 POP PUSH1 0x0 PUSH2 0x348A PUSH2 0x4406 JUMP JUMPDEST PUSH2 0x3494 DUP5 DUP7 PUSH2 0x3A78 JUMP JUMPDEST SWAP2 POP SWAP2 POP PUSH1 0x0 PUSH2 0x34A2 PUSH2 0x4406 JUMP JUMPDEST PUSH2 0x34AC DUP4 DUP7 PUSH2 0x3AB4 JUMP JUMPDEST DUP1 MLOAD PUSH1 0x1 PUSH1 0x1 PUSH1 0xA0 SHL SUB DUP1 DUP13 AND PUSH1 0x0 DUP2 DUP2 MSTORE PUSH1 0x6 PUSH1 0x20 SWAP1 DUP2 MSTORE PUSH1 0x40 SWAP2 DUP3 SWAP1 KECCAK256 PUSH1 0x3 ADD SLOAD PUSH1 0x2 SLOAD DUP4 MLOAD PUSH4 0xA9EC70D1 PUSH1 0xE0 SHL DUP2 MSTORE PUSH1 0x4 DUP2 ADD SWAP6 SWAP1 SWAP6 MSTORE SWAP3 MLOAD SWAP8 SWAP10 POP SWAP6 SWAP8 POP PUSH2 0x351B SWAP7 SWAP5 SWAP6 SWAP5 SWAP2 SWAP1 SWAP4 AND SWAP3 PUSH4 0xA9EC70D1 SWAP3 PUSH1 0x24 DUP1 DUP3 ADD SWAP4 SWAP2 DUP3 SWAP1 SUB ADD DUP2 DUP7 DUP1 EXTCODESIZE ISZERO DUP1 ISZERO PUSH2 0x335B JUMPI PUSH1 0x0 DUP1 REVERT JUMPDEST DUP12 DUP11 DUP2 MLOAD DUP2 LT PUSH2 0x3527 JUMPI INVALID JUMPDEST PUSH1 0x20 MUL PUSH1 0x20 ADD ADD MLOAD PUSH1 0x0 ADD DUP2 DUP2 MSTORE POP POP PUSH1 0x40 MLOAD DUP1 PUSH1 0x20 ADD PUSH1 0x40 MSTORE DUP1 PUSH1 0x0 DUP2 MSTORE POP DUP13 DUP11 DUP2 MLOAD DUP2 LT PUSH2 0x3553 JUMPI INVALID JUMPDEST PUSH1 0x20 MUL PUSH1 0x20 ADD ADD DUP2 SWAP1 MSTORE POP PUSH2 0x356E DUP11 DUP13 DUP12 DUP2 MLOAD DUP2 LT PUSH2 0x33E2 JUMPI INVALID JUMPDEST SWAP11 POP POP POP POP POP POP POP JUMPDEST PUSH32 0xACB876830293015BCDCD10DAF8FAEFD0428853121B7C78B2768C3669A1F7D8F0 DUP4 DUP9 DUP7 DUP2 MLOAD DUP2 LT PUSH2 0x35A5 JUMPI INVALID JUMPDEST PUSH1 0x20 MUL PUSH1 0x20 ADD ADD MLOAD PUSH1 0x0 ADD MLOAD DUP9 DUP8 DUP2 MLOAD DUP2 LT PUSH2 0x35BD JUMPI INVALID JUMPDEST PUSH1 0x20 SWAP1 DUP2 MUL SWAP2 SWAP1 SWAP2 ADD DUP2 ADD MLOAD MLOAD DUP10 MLOAD PUSH1 0x40 DUP1 MLOAD PUSH1 0x1 PUSH1 0x1 PUSH1 0xA0 SHL SUB SWAP1 SWAP7 AND DUP7 MSTORE SWAP3 DUP6 ADD SWAP4 SWAP1 SWAP4 MSTORE DUP4 DUP3 ADD MSTORE PUSH1 0x60 DUP4 ADD SWAP2 SWAP1 SWAP2 MSTORE MLOAD SWAP1 DUP2 SWAP1 SUB PUSH1 0x80 ADD SWAP1 LOG1 POP POP POP PUSH1 0x1 ADD PUSH2 0x2E76 JUMP JUMPDEST POP PUSH1 0x21 SLOAD PUSH1 0x3 SLOAD PUSH1 0x1 PUSH1 0xA0 SHL SWAP1 DIV PUSH1 0xFF AND ISZERO PUSH2 0x3645 JUMPI PUSH1 0x0 PUSH2 0x3625 PUSH2 0x4406 JUMP JUMPDEST PUSH2 0x362F DUP5 DUP9 PUSH2 0x3C98 JUMP JUMPDEST SWAP2 POP SWAP2 POP PUSH2 0x3640 DUP2 PUSH1 0x0 ADD MLOAD PUSH2 0x3CB3 JUMP JUMPDEST SWAP3 POP POP POP JUMPDEST PUSH1 0x0 JUMPDEST DUP7 MLOAD DUP2 LT ISZERO PUSH2 0x38BB JUMPI PUSH1 0x0 DUP8 DUP3 DUP2 MLOAD DUP2 LT PUSH2 0x365F JUMPI INVALID JUMPDEST PUSH1 0x20 SWAP1 DUP2 MUL SWAP2 SWAP1 SWAP2 ADD DUP2 ADD MLOAD PUSH1 0x1 PUSH1 0x1 PUSH1 0xA0 SHL SUB DUP2 AND PUSH1 0x0 SWAP1 DUP2 MSTORE PUSH1 0x22 SWAP1 SWAP3 MSTORE PUSH1 0x40 SWAP1 SWAP2 KECCAK256 DUP1 SLOAD PUSH1 0x1 SWAP1 SWAP2 ADD SLOAD SWAP2 SWAP3 POP SWAP1 PUSH2 0x3698 PUSH2 0x4406 JUMP JUMPDEST DUP7 MLOAD PUSH1 0x0 SWAP1 ISZERO PUSH2 0x3758 JUMPI PUSH1 0x0 DUP11 DUP8 DUP2 MLOAD DUP2 LT PUSH2 0x36B0 JUMPI INVALID JUMPDEST PUSH1 0x20 MUL PUSH1 0x20 ADD ADD MLOAD PUSH1 0x0 ADD MLOAD GT ISZERO PUSH2 0x3713 JUMPI PUSH2 0x36DF DUP11 DUP8 DUP2 MLOAD DUP2 LT PUSH2 0x36D1 JUMPI INVALID JUMPDEST PUSH1 0x20 MUL PUSH1 0x20 ADD ADD MLOAD DUP10 PUSH2 0x3EBF JUMP JUMPDEST SWAP3 POP SWAP1 POP PUSH2 0x36ED DUP8 DUP4 PUSH2 0x3EE2 JUMP JUMPDEST PUSH1 0x1 PUSH1 0x1 PUSH1 0xA0 SHL SUB DUP7 AND PUSH1 0x0 SWAP1 DUP2 MSTORE PUSH1 0x22 PUSH1 0x20 MSTORE PUSH1 0x40 DUP2 KECCAK256 SWAP2 DUP3 SSTORE PUSH1 0x1 SWAP1 SWAP2 ADD SSTORE PUSH2 0x3753 JUMP JUMPDEST PUSH2 0x3722 DUP10 DUP8 DUP2 MLOAD DUP2 LT PUSH2 0x36D1 JUMPI INVALID JUMPDEST SWAP3 POP SWAP1 POP PUSH2 0x3730 DUP8 DUP4 PUSH2 0x3EE2 JUMP JUMPDEST PUSH1 0x1 PUSH1 0x1 PUSH1 0xA0 SHL SUB DUP7 AND PUSH1 0x0 SWAP1 DUP2 MSTORE PUSH1 0x22 PUSH1 0x20 MSTORE PUSH1 0x40 DUP2 KECCAK256 PUSH1 0x1 DUP2 ADD SWAP3 SWAP1 SWAP3 SSTORE SWAP1 SSTORE JUMPDEST PUSH2 0x3779 JUMP JUMPDEST PUSH1 0x1 PUSH1 0x1 PUSH1 0xA0 SHL SUB DUP6 AND PUSH1 0x0 SWAP1 DUP2 MSTORE PUSH1 0x22 PUSH1 0x20 MSTORE PUSH1 0x40 DUP2 KECCAK256 PUSH1 0x1 DUP2 ADD DUP3 SWAP1 SSTORE SSTORE JUMPDEST DUP2 MLOAD PUSH1 0x1 PUSH1 0x1 PUSH1 0xA0 SHL SUB DUP7 AND PUSH1 0x0 DUP2 DUP2 MSTORE PUSH1 0x22 PUSH1 0x20 SWAP1 DUP2 MSTORE PUSH1 0x40 SWAP2 DUP3 SWAP1 KECCAK256 DUP1 SLOAD PUSH1 0x1 SWAP1 SWAP2 ADD SLOAD DUP4 MLOAD SWAP5 DUP6 MSTORE SWAP2 DUP5 ADD DUP13 SWAP1 MSTORE DUP4 DUP4 ADD SWAP5 SWAP1 SWAP5 MSTORE PUSH1 0x60 DUP4 ADD SWAP4 SWAP1 SWAP4 MSTORE PUSH1 0x80 DUP3 ADD SWAP3 SWAP1 SWAP3 MSTORE SWAP1 MLOAD PUSH32 0x2D0A046E2CADDC2B9944FAD523CDB42EEEF62CD1F88A134EE4663C80D58EF9E2 SWAP2 DUP2 SWAP1 SUB PUSH1 0xA0 ADD SWAP1 LOG1 PUSH1 0x1 PUSH1 0x1 PUSH1 0xA0 SHL SUB DUP6 AND PUSH1 0x0 DUP2 DUP2 MSTORE PUSH1 0x22 PUSH1 0x20 SWAP1 DUP2 MSTORE PUSH1 0x40 SWAP2 DUP3 SWAP1 KECCAK256 SLOAD DUP3 MLOAD SWAP4 DUP5 MSTORE SWAP1 DUP4 ADD DUP8 SWAP1 MSTORE DUP3 DUP3 ADD MSTORE NUMBER PUSH1 0x60 DUP4 ADD MSTORE MLOAD PUSH32 0xCEEB4301C137F855DBEB32EF25B069995662EF3FA12FD7C698C74AA872C2546E SWAP2 DUP2 SWAP1 SUB PUSH1 0x80 ADD SWAP1 LOG1 PUSH1 0x1 PUSH1 0x1 PUSH1 0xA0 SHL SUB DUP6 AND PUSH1 0x0 DUP2 DUP2 MSTORE PUSH1 0x22 PUSH1 0x20 SWAP1 DUP2 MSTORE PUSH1 0x40 SWAP2 DUP3 SWAP1 KECCAK256 PUSH1 0x1 ADD SLOAD DUP3 MLOAD SWAP4 DUP5 MSTORE SWAP1 DUP4 ADD DUP7 SWAP1 MSTORE DUP3 DUP3 ADD MSTORE NUMBER PUSH1 0x60 DUP4 ADD MSTORE MLOAD PUSH32 0x2545F2F6F97091236978CC7101E8BA295A94BDB80E4F0F9C4BFBEAFBD3BF1B8 SWAP2 DUP2 SWAP1 SUB PUSH1 0x80 ADD SWAP1 LOG1 POP POP PUSH1 0x1 SWAP1 SWAP4 ADD SWAP3 POP PUSH2 0x3648 SWAP2 POP POP JUMP JUMPDEST POP PUSH2 0x38C4 PUSH2 0x3F0A JUMP JUMPDEST PUSH2 0x390D JUMPI PUSH1 0x40 DUP1 MLOAD PUSH3 0x461BCD PUSH1 0xE5 SHL DUP2 MSTORE PUSH1 0x20 PUSH1 0x4 DUP3 ADD MSTORE PUSH1 0x15 PUSH1 0x24 DUP3 ADD MSTORE PUSH21 0x155C19185D1A5B99C810D31BD8DAC811985A5B1959 PUSH1 0x5A SHL PUSH1 0x44 DUP3 ADD MSTORE SWAP1 MLOAD SWAP1 DUP2 SWAP1 SUB PUSH1 0x64 ADD SWAP1 REVERT JUMPDEST POP POP POP POP POP POP JUMP JUMPDEST PUSH1 0x0 DUP4 DUP4 ADD DUP3 DUP6 DUP3 LT ISZERO PUSH2 0x396A JUMPI PUSH1 0x40 MLOAD PUSH3 0x461BCD PUSH1 0xE5 SHL DUP2 MSTORE PUSH1 0x20 PUSH1 0x4 DUP3 ADD DUP2 DUP2 MSTORE DUP4 MLOAD PUSH1 0x24 DUP5 ADD MSTORE DUP4 MLOAD SWAP1 SWAP3 DUP4 SWAP3 PUSH1 0x44 SWAP1 SWAP2 ADD SWAP2 SWAP1 DUP6 ADD SWAP1 DUP1 DUP4 DUP4 PUSH1 0x0 DUP4 ISZERO PUSH2 0x2C28 JUMPI DUP2 DUP2 ADD MLOAD DUP4 DUP3 ADD MSTORE PUSH1 0x20 ADD PUSH2 0x2C10 JUMP JUMPDEST POP SWAP5 SWAP4 POP POP POP POP JUMP JUMPDEST PUSH1 0x0 PUSH2 0x129E DUP4 DUP4 PUSH1 0x40 MLOAD DUP1 PUSH1 0x40 ADD PUSH1 0x40 MSTORE DUP1 PUSH1 0x17 DUP2 MSTORE PUSH1 0x20 ADD PUSH32 0x6D756C7469706C69636174696F6E206F766572666C6F77000000000000000000 DUP2 MSTORE POP PUSH2 0x4019 JUMP JUMPDEST PUSH2 0x39BD PUSH2 0x4406 JUMP JUMPDEST PUSH1 0x40 MLOAD DUP1 PUSH1 0x20 ADD PUSH1 0x40 MSTORE DUP1 PUSH2 0x39EA PUSH2 0x39E4 DUP7 PUSH15 0xC097CE7BC90715B34B9F1000000000 PUSH2 0x3973 JUMP JUMPDEST DUP6 PUSH2 0x408F JUMP JUMPDEST SWAP1 MSTORE SWAP4 SWAP3 POP POP POP JUMP JUMPDEST PUSH2 0x39FB PUSH2 0x4406 JUMP JUMPDEST PUSH1 0x40 MLOAD DUP1 PUSH1 0x20 ADD PUSH1 0x40 MSTORE DUP1 PUSH2 0x39EA DUP6 PUSH1 0x0 ADD MLOAD DUP6 PUSH1 0x0 ADD MLOAD PUSH2 0x40C2 JUMP JUMPDEST PUSH1 0x0 DUP1 JUMPDEST PUSH1 0x5 SLOAD DUP2 LT ISZERO PUSH2 0x3A69 JUMPI PUSH1 0x0 PUSH1 0x5 DUP3 DUP2 SLOAD DUP2 LT PUSH2 0x3A35 JUMPI INVALID JUMPDEST PUSH1 0x0 SWAP2 DUP3 MSTORE PUSH1 0x20 SWAP1 SWAP2 KECCAK256 ADD SLOAD PUSH1 0x1 PUSH1 0x1 PUSH1 0xA0 SHL SUB AND SWAP1 POP PUSH2 0x3A55 DUP2 PUSH2 0x2112 JUMP JUMPDEST POP PUSH2 0x3A5F DUP2 PUSH2 0x25DB JUMP JUMPDEST POP POP PUSH1 0x1 ADD PUSH2 0x3A1C JUMP JUMPDEST POP PUSH1 0x1 SWAP1 POP SWAP1 JUMP JUMPDEST MLOAD SWAP1 MLOAD GT SWAP1 JUMP JUMPDEST PUSH1 0x0 PUSH2 0x3A82 PUSH2 0x4406 JUMP JUMPDEST PUSH1 0x0 DUP1 PUSH2 0x3A97 DUP7 PUSH1 0x0 ADD MLOAD DUP7 PUSH1 0x0 ADD MLOAD PUSH2 0x40F8 JUMP JUMPDEST PUSH1 0x40 DUP1 MLOAD PUSH1 0x20 DUP2 ADD SWAP1 SWAP2 MSTORE SWAP1 DUP2 MSTORE SWAP1 SWAP5 POP SWAP3 POP POP POP JUMPDEST SWAP3 POP SWAP3 SWAP1 POP JUMP JUMPDEST PUSH1 0x0 PUSH2 0x3ABE PUSH2 0x4406 JUMP JUMPDEST PUSH1 0x0 DUP1 PUSH2 0x3ACF DUP7 PUSH1 0x0 ADD MLOAD DUP7 PUSH2 0x411B JUMP JUMPDEST SWAP1 SWAP3 POP SWAP1 POP PUSH1 0x0 DUP3 PUSH1 0x3 DUP2 GT ISZERO PUSH2 0x3AE2 JUMPI INVALID JUMPDEST EQ PUSH2 0x3B01 JUMPI POP PUSH1 0x40 DUP1 MLOAD PUSH1 0x20 DUP2 ADD SWAP1 SWAP2 MSTORE PUSH1 0x0 DUP2 MSTORE SWAP1 SWAP3 POP SWAP1 POP PUSH2 0x3AAD JUMP JUMPDEST PUSH1 0x40 DUP1 MLOAD PUSH1 0x20 DUP2 ADD SWAP1 SWAP2 MSTORE SWAP1 DUP2 MSTORE PUSH1 0x0 SWAP7 SWAP1 SWAP6 POP SWAP4 POP POP POP POP JUMP JUMPDEST PUSH1 0x0 DUP1 PUSH2 0x3B5F DUP5 DUP5 PUSH1 0x40 MLOAD DUP1 PUSH1 0x40 ADD PUSH1 0x40 MSTORE DUP1 PUSH1 0x1A DUP2 MSTORE PUSH1 0x20 ADD PUSH32 0x446563696D616C73206164646974696F6E206F766572666C6F77000000000000 DUP2 MSTORE POP PUSH2 0x3915 JUMP JUMPDEST SWAP1 POP PUSH1 0x0 DUP1 PUSH1 0x18 DUP4 LT PUSH2 0x3BC5 JUMPI PUSH1 0x0 PUSH2 0x3B92 DUP5 PUSH1 0x18 PUSH1 0x40 MLOAD DUP1 PUSH1 0x60 ADD PUSH1 0x40 MSTORE DUP1 PUSH1 0x2E DUP2 MSTORE PUSH1 0x20 ADD PUSH2 0x44C9 PUSH1 0x2E SWAP2 CODECOPY PUSH2 0x2BD4 JUMP JUMPDEST SWAP1 POP DUP1 PUSH1 0xA EXP SWAP3 POP PUSH2 0x3BBD DUP9 DUP5 PUSH1 0x40 MLOAD DUP1 PUSH1 0x60 ADD PUSH1 0x40 MSTORE DUP1 PUSH1 0x32 DUP2 MSTORE PUSH1 0x20 ADD PUSH2 0x453D PUSH1 0x32 SWAP2 CODECOPY PUSH2 0x415A JUMP JUMPDEST SWAP2 POP POP PUSH2 0x3C1A JUMP JUMPDEST PUSH1 0x0 PUSH2 0x3BEB PUSH1 0x18 DUP6 PUSH1 0x40 MLOAD DUP1 PUSH1 0x60 ADD PUSH1 0x40 MSTORE DUP1 PUSH1 0x2F DUP2 MSTORE PUSH1 0x20 ADD PUSH2 0x4793 PUSH1 0x2F SWAP2 CODECOPY PUSH2 0x2BD4 JUMP JUMPDEST SWAP1 POP DUP1 PUSH1 0xA EXP SWAP3 POP PUSH2 0x3C16 DUP9 DUP5 PUSH1 0x40 MLOAD DUP1 PUSH1 0x60 ADD PUSH1 0x40 MSTORE DUP1 PUSH1 0x38 DUP2 MSTORE PUSH1 0x20 ADD PUSH2 0x4849 PUSH1 0x38 SWAP2 CODECOPY PUSH2 0x4019 JUMP JUMPDEST SWAP2 POP POP JUMPDEST PUSH1 0x40 DUP1 MLOAD DUP9 DUP2 MSTORE PUSH1 0x20 DUP2 ADD DUP9 SWAP1 MSTORE DUP1 DUP3 ADD DUP8 SWAP1 MSTORE PUSH1 0x60 DUP2 ADD DUP6 SWAP1 MSTORE PUSH1 0x80 DUP2 ADD DUP5 SWAP1 MSTORE PUSH1 0xA0 DUP2 ADD DUP4 SWAP1 MSTORE SWAP1 MLOAD PUSH32 0x30A0B12009E9070C500B3DF0A206A883D9D8AC7B4D5C09498E5DD7C0D11A645D SWAP2 DUP2 SWAP1 SUB PUSH1 0xC0 ADD SWAP1 LOG1 SWAP7 SWAP6 POP POP POP POP POP POP JUMP JUMPDEST PUSH1 0x0 PUSH2 0x3C83 PUSH2 0x4406 JUMP JUMPDEST PUSH1 0x0 DUP1 PUSH2 0x3A97 DUP7 PUSH1 0x0 ADD MLOAD DUP7 PUSH1 0x0 ADD MLOAD PUSH2 0x41BC JUMP JUMPDEST PUSH1 0x0 PUSH2 0x3CA2 PUSH2 0x4406 JUMP JUMPDEST PUSH1 0x0 DUP1 PUSH2 0x3ACF DUP7 PUSH1 0x0 ADD MLOAD DUP7 PUSH2 0x41E2 JUMP JUMPDEST PUSH1 0x21 SLOAD PUSH1 0x2 SLOAD PUSH1 0x1 SLOAD PUSH1 0x40 DUP1 MLOAD PUSH4 0xB3596F07 PUSH1 0xE0 SHL DUP2 MSTORE PUSH1 0x1 PUSH1 0x1 PUSH1 0xA0 SHL SUB SWAP3 DUP4 AND PUSH1 0x4 DUP3 ADD MSTORE SWAP1 MLOAD PUSH1 0x0 SWAP5 SWAP4 DUP6 SWAP4 AND SWAP2 PUSH4 0xB3596F07 SWAP2 PUSH1 0x24 DUP1 DUP4 ADD SWAP3 PUSH1 0x20 SWAP3 SWAP2 SWAP1 DUP3 SWAP1 SUB ADD DUP2 DUP7 DUP1 EXTCODESIZE ISZERO DUP1 ISZERO PUSH2 0x3D09 JUMPI PUSH1 0x0 DUP1 REVERT JUMPDEST POP GAS STATICCALL ISZERO DUP1 ISZERO PUSH2 0x3D1D JUMPI RETURNDATASIZE PUSH1 0x0 DUP1 RETURNDATACOPY RETURNDATASIZE PUSH1 0x0 REVERT JUMPDEST POP POP POP POP PUSH1 0x40 MLOAD RETURNDATASIZE PUSH1 0x20 DUP2 LT ISZERO PUSH2 0x3D33 JUMPI PUSH1 0x0 DUP1 REVERT JUMPDEST POP MLOAD PUSH1 0x21 SLOAD SWAP1 SWAP2 POP PUSH1 0x0 SWAP1 PUSH2 0x3D49 SWAP1 DUP4 SWAP1 PUSH2 0x3973 JUMP JUMPDEST PUSH1 0x40 DUP1 MLOAD PUSH1 0x20 DUP2 ADD SWAP1 SWAP2 MSTORE PUSH1 0x4 SLOAD DUP2 MSTORE SWAP1 SWAP2 POP PUSH1 0x0 SWAP1 PUSH2 0x3D6A SWAP1 DUP8 SWAP1 PUSH2 0x3EE2 JUMP JUMPDEST SWAP1 POP PUSH1 0x0 PUSH2 0x3D91 DUP8 DUP4 PUSH1 0x40 MLOAD DUP1 PUSH1 0x60 ADD PUSH1 0x40 MSTORE DUP1 PUSH1 0x27 DUP2 MSTORE PUSH1 0x20 ADD PUSH2 0x47C2 PUSH1 0x27 SWAP2 CODECOPY PUSH2 0x3915 JUMP JUMPDEST SWAP1 POP DUP4 ISZERO DUP1 PUSH2 0x3DA0 JUMPI POP DUP1 DUP4 GT ISZERO JUMPDEST ISZERO PUSH2 0x3E10 JUMPI PUSH1 0x21 SLOAD PUSH1 0x40 DUP1 MLOAD SWAP2 DUP3 MSTORE PUSH1 0x20 DUP3 ADD DUP8 SWAP1 MSTORE DUP2 DUP2 ADD DUP7 SWAP1 MSTORE PUSH1 0x60 DUP3 ADD DUP6 SWAP1 MSTORE PUSH1 0x80 DUP3 ADD DUP10 SWAP1 MSTORE PUSH1 0xA0 DUP3 ADD DUP5 SWAP1 MSTORE PUSH1 0xC0 DUP3 ADD DUP4 SWAP1 MSTORE MLOAD PUSH32 0xB193E798A428F589D26C41C53FEE578EB242C6090F5193E6188BC323FDCC3CB3 SWAP2 DUP2 SWAP1 SUB PUSH1 0xE0 ADD SWAP1 LOG1 DUP5 SWAP6 POP POP POP POP POP POP PUSH2 0x8EA JUMP JUMPDEST PUSH2 0x3E50 DUP2 DUP6 PUSH1 0x40 MLOAD DUP1 PUSH1 0x40 ADD PUSH1 0x40 MSTORE DUP1 PUSH1 0x1D DUP2 MSTORE PUSH1 0x20 ADD PUSH32 0x4D6178205370656564206469766973696F6E2067617665206572726F72000000 DUP2 MSTORE POP PUSH2 0x415A JUMP JUMPDEST PUSH1 0x21 SLOAD PUSH1 0x40 DUP1 MLOAD SWAP2 DUP3 MSTORE PUSH1 0x20 DUP3 ADD DUP4 SWAP1 MSTORE DUP2 DUP2 ADD DUP8 SWAP1 MSTORE PUSH1 0x60 DUP3 ADD DUP7 SWAP1 MSTORE PUSH1 0x80 DUP3 ADD DUP11 SWAP1 MSTORE PUSH1 0xA0 DUP3 ADD DUP6 SWAP1 MSTORE PUSH1 0xC0 DUP3 ADD DUP5 SWAP1 MSTORE MLOAD SWAP2 SWAP7 POP PUSH32 0xB193E798A428F589D26C41C53FEE578EB242C6090F5193E6188BC323FDCC3CB3 SWAP2 SWAP1 DUP2 SWAP1 SUB PUSH1 0xE0 ADD SWAP1 LOG1 DUP5 SWAP6 POP POP POP POP POP POP PUSH2 0x8EA JUMP JUMPDEST PUSH1 0x0 PUSH2 0x3EC9 PUSH2 0x4406 JUMP JUMPDEST DUP4 MLOAD DUP4 MLOAD PUSH2 0x3ED7 SWAP2 SWAP1 PUSH2 0x420D JUMP JUMPDEST SWAP2 POP SWAP2 POP SWAP3 POP SWAP3 SWAP1 POP JUMP JUMPDEST PUSH1 0x0 PUSH8 0xDE0B6B3A7640000 PUSH2 0x3EFB DUP5 DUP5 PUSH1 0x0 ADD MLOAD PUSH2 0x3973 JUMP JUMPDEST DUP2 PUSH2 0x3F02 JUMPI INVALID JUMPDEST DIV SWAP4 SWAP3 POP POP POP JUMP JUMPDEST PUSH1 0x20 SLOAD PUSH1 0x0 SWAP1 PUSH1 0x1 PUSH1 0x1 PUSH1 0xE0 SHL SUB AND PUSH1 0x17 EQ ISZERO PUSH2 0x3F36 JUMPI PUSH1 0x20 DUP1 SLOAD PUSH1 0x1 PUSH1 0x1 PUSH1 0xE0 SHL SUB NOT AND SWAP1 SSTORE PUSH2 0x3FB6 JUMP JUMPDEST PUSH2 0x3F95 PUSH1 0x20 PUSH1 0x0 SWAP1 SLOAD SWAP1 PUSH2 0x100 EXP SWAP1 DIV PUSH1 0x1 PUSH1 0x1 PUSH1 0xE0 SHL SUB AND PUSH1 0x1 PUSH1 0x1 PUSH1 0xE0 SHL SUB AND PUSH1 0x1 PUSH1 0x40 MLOAD DUP1 PUSH1 0x40 ADD PUSH1 0x40 MSTORE DUP1 PUSH1 0x1A DUP2 MSTORE PUSH1 0x20 ADD PUSH32 0x637572436C6F636B203A204164646974696F6E204661696C6564000000000000 DUP2 MSTORE POP PUSH2 0x3915 JUMP JUMPDEST PUSH1 0x20 DUP1 SLOAD PUSH1 0x1 PUSH1 0x1 PUSH1 0xE0 SHL SUB NOT AND PUSH1 0x1 PUSH1 0x1 PUSH1 0xE0 SHL SUB SWAP3 SWAP1 SWAP3 AND SWAP2 SWAP1 SWAP2 OR SWAP1 SSTORE JUMPDEST PUSH1 0x20 SLOAD PUSH32 0x1F5C4F82A071A103F9B71CAD79752570E576A18239107229BD7679CC8594C354 SWAP1 PUSH1 0x1 PUSH1 0x1 PUSH1 0xE0 SHL SUB AND PUSH2 0x3FEC PUSH2 0x9FD JUMP JUMPDEST PUSH1 0x40 DUP1 MLOAD PUSH1 0x1 PUSH1 0x1 PUSH1 0xE0 SHL SUB SWAP1 SWAP4 AND DUP4 MSTORE PUSH4 0xFFFFFFFF SWAP1 SWAP2 AND PUSH1 0x20 DUP4 ADD MSTORE DUP1 MLOAD SWAP2 DUP3 SWAP1 SUB ADD SWAP1 LOG1 POP PUSH1 0x1 SWAP1 JUMP JUMPDEST PUSH1 0x0 DUP4 ISZERO DUP1 PUSH2 0x4026 JUMPI POP DUP3 ISZERO JUMPDEST ISZERO PUSH2 0x4033 JUMPI POP PUSH1 0x0 PUSH2 0x129E JUMP JUMPDEST DUP4 DUP4 MUL DUP4 DUP6 DUP3 DUP2 PUSH2 0x4040 JUMPI INVALID JUMPDEST DIV EQ DUP4 SWAP1 PUSH2 0x396A JUMPI PUSH1 0x40 MLOAD PUSH3 0x461BCD PUSH1 0xE5 SHL DUP2 MSTORE PUSH1 0x20 PUSH1 0x4 DUP3 ADD DUP2 DUP2 MSTORE DUP4 MLOAD PUSH1 0x24 DUP5 ADD MSTORE DUP4 MLOAD SWAP1 SWAP3 DUP4 SWAP3 PUSH1 0x44 SWAP1 SWAP2 ADD SWAP2 SWAP1 DUP6 ADD SWAP1 DUP1 DUP4 DUP4 PUSH1 0x0 DUP4 ISZERO PUSH2 0x2C28 JUMPI DUP2 DUP2 ADD MLOAD DUP4 DUP3 ADD MSTORE PUSH1 0x20 ADD PUSH2 0x2C10 JUMP JUMPDEST PUSH1 0x0 PUSH2 0x129E DUP4 DUP4 PUSH1 0x40 MLOAD DUP1 PUSH1 0x40 ADD PUSH1 0x40 MSTORE DUP1 PUSH1 0xE DUP2 MSTORE PUSH1 0x20 ADD PUSH14 0x646976696465206279207A65726F PUSH1 0x90 SHL DUP2 MSTORE POP PUSH2 0x415A JUMP JUMPDEST PUSH1 0x0 PUSH2 0x129E DUP4 DUP4 PUSH1 0x40 MLOAD DUP1 PUSH1 0x40 ADD PUSH1 0x40 MSTORE DUP1 PUSH1 0x11 DUP2 MSTORE PUSH1 0x20 ADD PUSH17 0x6164646974696F6E206F766572666C6F77 PUSH1 0x78 SHL DUP2 MSTORE POP PUSH2 0x3915 JUMP JUMPDEST PUSH1 0x0 DUP1 DUP4 DUP4 GT PUSH2 0x410F JUMPI POP PUSH1 0x0 SWAP1 POP DUP2 DUP4 SUB PUSH2 0x3AAD JUMP JUMPDEST POP PUSH1 0x3 SWAP1 POP PUSH1 0x0 PUSH2 0x3AAD JUMP JUMPDEST PUSH1 0x0 DUP1 DUP4 PUSH2 0x412E JUMPI POP PUSH1 0x0 SWAP1 POP DUP1 PUSH2 0x3AAD JUMP JUMPDEST DUP4 DUP4 MUL DUP4 DUP6 DUP3 DUP2 PUSH2 0x413B JUMPI INVALID JUMPDEST DIV EQ PUSH2 0x414F JUMPI POP PUSH1 0x2 SWAP2 POP PUSH1 0x0 SWAP1 POP PUSH2 0x3AAD JUMP JUMPDEST PUSH1 0x0 SWAP3 POP SWAP1 POP PUSH2 0x3AAD JUMP JUMPDEST PUSH1 0x0 DUP2 DUP4 PUSH2 0x41A9 JUMPI PUSH1 0x40 MLOAD PUSH3 0x461BCD PUSH1 0xE5 SHL DUP2 MSTORE PUSH1 0x20 PUSH1 0x4 DUP3 ADD DUP2 DUP2 MSTORE DUP4 MLOAD PUSH1 0x24 DUP5 ADD MSTORE DUP4 MLOAD SWAP1 SWAP3 DUP4 SWAP3 PUSH1 0x44 SWAP1 SWAP2 ADD SWAP2 SWAP1 DUP6 ADD SWAP1 DUP1 DUP4 DUP4 PUSH1 0x0 DUP4 ISZERO PUSH2 0x2C28 JUMPI DUP2 DUP2 ADD MLOAD DUP4 DUP3 ADD MSTORE PUSH1 0x20 ADD PUSH2 0x2C10 JUMP JUMPDEST POP DUP3 DUP5 DUP2 PUSH2 0x41B3 JUMPI INVALID JUMPDEST DIV SWAP5 SWAP4 POP POP POP POP JUMP JUMPDEST PUSH1 0x0 DUP1 DUP4 DUP4 ADD DUP5 DUP2 LT PUSH2 0x41D4 JUMPI PUSH1 0x0 SWAP3 POP SWAP1 POP PUSH2 0x3AAD JUMP JUMPDEST POP PUSH1 0x2 SWAP2 POP PUSH1 0x0 SWAP1 POP PUSH2 0x3AAD JUMP JUMPDEST PUSH1 0x0 DUP1 DUP3 PUSH2 0x41F6 JUMPI POP PUSH1 0x1 SWAP1 POP PUSH1 0x0 PUSH2 0x3AAD JUMP JUMPDEST PUSH1 0x0 DUP4 DUP6 DUP2 PUSH2 0x4201 JUMPI INVALID JUMPDEST DIV SWAP2 POP SWAP2 POP SWAP3 POP SWAP3 SWAP1 POP JUMP JUMPDEST PUSH1 0x0 PUSH2 0x4217 PUSH2 0x4406 JUMP JUMPDEST PUSH1 0x0 DUP1 PUSH2 0x422C DUP7 PUSH8 0xDE0B6B3A7640000 PUSH2 0x411B JUMP JUMPDEST SWAP1 SWAP3 POP SWAP1 POP PUSH1 0x0 DUP3 PUSH1 0x3 DUP2 GT ISZERO PUSH2 0x423F JUMPI INVALID JUMPDEST EQ PUSH2 0x425E JUMPI POP PUSH1 0x40 DUP1 MLOAD PUSH1 0x20 DUP2 ADD SWAP1 SWAP2 MSTORE PUSH1 0x0 DUP2 MSTORE SWAP1 SWAP3 POP SWAP1 POP PUSH2 0x3AAD JUMP JUMPDEST PUSH1 0x0 DUP1 PUSH2 0x426B DUP4 DUP9 PUSH2 0x41E2 JUMP JUMPDEST SWAP1 SWAP3 POP SWAP1 POP PUSH1 0x0 DUP3 PUSH1 0x3 DUP2 GT ISZERO PUSH2 0x427E JUMPI INVALID JUMPDEST EQ PUSH2 0x42A0 JUMPI POP PUSH1 0x40 DUP1 MLOAD PUSH1 0x20 DUP2 ADD SWAP1 SWAP2 MSTORE PUSH1 0x0 DUP2 MSTORE SWAP1 SWAP5 POP SWAP3 POP PUSH2 0x3AAD SWAP2 POP POP JUMP JUMPDEST PUSH1 0x40 DUP1 MLOAD PUSH1 0x20 DUP2 ADD SWAP1 SWAP2 MSTORE SWAP1 DUP2 MSTORE PUSH1 0x0 SWAP9 SWAP1 SWAP8 POP SWAP6 POP POP POP POP POP POP JUMP JUMPDEST PUSH1 0x40 MLOAD DUP1 PUSH2 0x300 ADD PUSH1 0x40 MSTORE DUP1 PUSH1 0x18 SWAP1 PUSH1 0x20 DUP3 MUL DUP1 CODESIZE DUP4 CODECOPY POP SWAP2 SWAP3 SWAP2 POP POP JUMP JUMPDEST DUP3 PUSH1 0x18 DUP2 ADD SWAP3 DUP3 ISZERO PUSH2 0x430A JUMPI SWAP2 PUSH1 0x20 MUL DUP3 ADD JUMPDEST DUP3 DUP2 GT ISZERO PUSH2 0x430A JUMPI DUP3 MLOAD DUP3 SSTORE SWAP2 PUSH1 0x20 ADD SWAP2 SWAP1 PUSH1 0x1 ADD SWAP1 PUSH2 0x42EF JUMP JUMPDEST POP PUSH2 0x4316 SWAP3 SWAP2 POP PUSH2 0x4472 JUMP JUMPDEST POP SWAP1 JUMP JUMPDEST DUP3 DUP1 SLOAD PUSH1 0x1 DUP2 PUSH1 0x1 AND ISZERO PUSH2 0x100 MUL SUB AND PUSH1 0x2 SWAP1 DIV SWAP1 PUSH1 0x0 MSTORE PUSH1 0x20 PUSH1 0x0 KECCAK256 SWAP1 PUSH1 0x1F ADD PUSH1 0x20 SWAP1 DIV DUP2 ADD SWAP3 DUP3 PUSH1 0x1F LT PUSH2 0x435B JUMPI DUP1 MLOAD PUSH1 0xFF NOT AND DUP4 DUP1 ADD OR DUP6 SSTORE PUSH2 0x430A JUMP JUMPDEST DUP3 DUP1 ADD PUSH1 0x1 ADD DUP6 SSTORE DUP3 ISZERO PUSH2 0x430A JUMPI SWAP2 DUP3 ADD DUP3 DUP2 GT ISZERO PUSH2 0x430A JUMPI DUP3 MLOAD DUP3 SSTORE SWAP2 PUSH1 0x20 ADD SWAP2 SWAP1 PUSH1 0x1 ADD SWAP1 PUSH2 0x42EF JUMP JUMPDEST DUP2 SLOAD DUP2 DUP4 SSTORE DUP2 DUP2 GT ISZERO PUSH2 0x43AB JUMPI PUSH1 0x0 DUP4 DUP2 MSTORE PUSH1 0x20 SWAP1 KECCAK256 PUSH2 0x43AB SWAP2 DUP2 ADD SWAP1 DUP4 ADD PUSH2 0x4472 JUMP JUMPDEST POP POP POP JUMP JUMPDEST POP DUP1 SLOAD PUSH1 0x1 DUP2 PUSH1 0x1 AND ISZERO PUSH2 0x100 MUL SUB AND PUSH1 0x2 SWAP1 DIV PUSH1 0x0 DUP3 SSTORE DUP1 PUSH1 0x1F LT PUSH2 0x43D6 JUMPI POP PUSH2 0x43F4 JUMP JUMPDEST PUSH1 0x1F ADD PUSH1 0x20 SWAP1 DIV SWAP1 PUSH1 0x0 MSTORE PUSH1 0x20 PUSH1 0x0 KECCAK256 SWAP1 DUP2 ADD SWAP1 PUSH2 0x43F4 SWAP2 SWAP1 PUSH2 0x4472 JUMP JUMPDEST POP JUMP JUMPDEST POP PUSH2 0x43F4 SWAP1 PUSH1 0x18 DUP2 ADD SWAP1 PUSH2 0x4472 JUMP JUMPDEST PUSH1 0x40 MLOAD DUP1 PUSH1 0x20 ADD PUSH1 0x40 MSTORE DUP1 PUSH1 0x0 DUP2 MSTORE POP SWAP1 JUMP JUMPDEST PUSH1 0x40 MLOAD DUP1 PUSH2 0x120 ADD PUSH1 0x40 MSTORE DUP1 PUSH1 0x0 ISZERO ISZERO DUP2 MSTORE PUSH1 0x20 ADD PUSH1 0x60 DUP2 MSTORE PUSH1 0x20 ADD PUSH1 0x0 PUSH1 0x1 PUSH1 0x1 PUSH1 0xA0 SHL SUB AND DUP2 MSTORE PUSH1 0x20 ADD PUSH1 0x0 DUP2 MSTORE PUSH1 0x20 ADD PUSH1 0x0 ISZERO ISZERO DUP2 MSTORE PUSH1 0x20 ADD PUSH1 0x0 DUP2 MSTORE PUSH1 0x20 ADD PUSH1 0x0 DUP2 MSTORE PUSH1 0x20 ADD PUSH1 0x0 DUP2 MSTORE PUSH1 0x20 ADD PUSH1 0x0 DUP2 MSTORE POP SWAP1 JUMP JUMPDEST PUSH2 0x8A0 SWAP2 SWAP1 JUMPDEST DUP1 DUP3 GT ISZERO PUSH2 0x4316 JUMPI PUSH1 0x0 DUP2 SSTORE PUSH1 0x1 ADD PUSH2 0x4478 JUMP INVALID SLOAD PUSH9 0x65206E65772050726F PUSH7 0x69742050657263 PUSH6 0x6E7461676520 PUSH14 0x7573742062652067726561746572 KECCAK256 PUSH21 0x68616E20302E303165313820283125292044656369 PUSH14 0x616C73207375627472616374696F PUSH15 0x20286578747261446563696D616C73 0x29 KECCAK256 PUSH22 0x6E646572666C6F77496E737472756D656E74206E6F74 KECCAK256 PUSH17 0x726F7065726C792072656D6F7665642066 PUSH19 0x6F6D20746865206C697374206F6620696E7374 PUSH19 0x756D656E747320737570706F727465644C6F73 PUSH20 0x20416D6F756E74204469766973696F6E20746F20 PUSH2 0x646A PUSH22 0x737420666F7220646563696D616C73206661696C6564 MSTORE PUSH6 0x667265736820 MSTORE8 0x49 SELFBALANCE 0x48 KECCAK256 MSTORE8 PUSH17 0x65656473203A205375627472616374696F PUSH15 0x20756E646572666C6F7720666F7220 PUSH3 0x6C6F63 PUSH12 0x73496E737472756D656E7420 PUSH2 0x6C72 PUSH6 0x61647920636F PUSH23 0x6572656420756E64657220534947482044697374726962 PUSH22 0x74696F6E204D656368616E69736D537570706C696572 KECCAK256 PUSH20 0x70656564206164646974696F6E20776974682073 PUSH21 0x616B696E67207370656564206F766572666C6F7749 PUSH15 0x737472756D656E7420616C72656164 PUSH26 0x206E6F7420737570706F72746564206279207468652053494748 KECCAK256 DIFFICULTY PUSH10 0x73747269627574696F6E KECCAK256 0x4D PUSH6 0x6368616E6973 PUSH14 0x7265667265736853494748537065 PUSH6 0x6473496E7465 PUSH19 0x6E616C203A204F7261636C652072657475726E PUSH6 0x6420496E7661 PUSH13 0x6964205072696365546865206E PUSH6 0x772053757070 PUSH13 0x69657220526174696F206D7573 PUSH21 0x206265206C657373207468616E2031653138202831 ADDRESS ADDRESS 0x25 0x29 DIFFICULTY PUSH6 0x6C7461426C6F PUSH4 0x6B732072 PUSH6 0x73756C746564 KECCAK256 PUSH10 0x6E20556E646572666C6F PUSH24 0x5570646174696E67205369676820537570706C7920496E64 PUSH6 0x786573206F70 PUSH6 0x726174696F6E KECCAK256 PUSH7 0x61696C65647570 PUSH5 0x6174655349 SELFBALANCE 0x48 TIMESTAMP PUSH16 0x72726F77496E646578203A20426C6F63 PUSH12 0x205375627472616374696F6E KECCAK256 SSTORE PUSH15 0x646572666C6F775570646174696E67 KECCAK256 0x49 PUSH15 0x737472756D656E7420496E64657865 PUSH20 0x204661696C65644661696C656420746F20747261 PUSH15 0x736665722061636375726564205349 SELFBALANCE 0x48 KECCAK256 PUSH21 0x6F2074686520757365722E446563696D616C732073 PUSH22 0x627472616374696F6E20286E6565646564446563696D PUSH2 0x6C73 0x29 KECCAK256 PUSH22 0x6E646572666C6F77506F74656E7469616C206C6F7373 PUSH6 0x732061646469 PUSH21 0x696F6E2067617665206F766572666C6F7755706461 PUSH21 0x696E67205369676820426F72726F7720496E646578 PUSH6 0x73206F706572 PUSH2 0x7469 PUSH16 0x6E206661696C65647570646174655349 SELFBALANCE 0x48 MSTORE8 PUSH22 0x70706C79496E646578203A20426C6F636B2053756274 PUSH19 0x616374696F6E20556E646572666C6F774C6F73 PUSH20 0x20416D6F756E74204D756C7469706C6963617469 PUSH16 0x6E20746F2061646A75737420666F7220 PUSH5 0x6563696D61 PUSH13 0x73206661696C6564496E737472 PUSH22 0x6D656E74206E6F7420737570706F727465642E000000 STOP STOP STOP STOP LOG2 PUSH6 0x627A7A723158 KECCAK256 0xE3 DUP5 ADD 0xD3 0xAA 0xF6 PUSH24 0xBBCC87F4EABEE1D5F179E24B27128847E43D14382709A0AD 0xD3 PUSH5 0x736F6C6343 STOP SDIV GT STOP ORIGIN "
		},
		"gasEstimates": {
			"creation": {
				"codeDepositCost": "3729000",
				"executionCost": "50060",
				"totalCost": "3779060"
			},
			"external": {
				"Instrument_SIGHed(address)": "infinite",
				"Instrument_UNSIGHed(address)": "infinite",
				"Sigh_Address()": "1105",
				"SpeedUpperCheckSwitch(bool,uint256)": "infinite",
				"addInstrument(address,address,uint256)": "infinite",
				"addressesProvider()": "1081",
				"checkPriceSnapshots(address,uint256)": "1288",
				"checkinitializationCounter(address)": "1252",
				"getAllInstrumentsSupported()": "infinite",
				"getAllPriceSnapshots(address)": "infinite",
				"getBlockNumber()": "252",
				"getBlockNumbersForPriceSnapshots()": "infinite",
				"getBlocksRemainingToNextSpeedRefresh()": "infinite",
				"getDeltaBlocksForSpeed()": "1043",
				"getInstrumentBorrowIndex(address)": "2195",
				"getInstrumentData(address)": "infinite",
				"getInstrumentSpeeds(address)": "2920",
				"getInstrumentSupplyIndex(address)": "2215",
				"getPrevSpeedRefreshBlock()": "1132",
				"getSIGHBalance()": "infinite",
				"getSIGHSpeed()": "1109",
				"getupperCheckProfitPercentage()": "1090",
				"initialize(address)": "infinite",
				"isInstrumentSupported(address)": "1243",
				"lendingPoolCore()": "1106",
				"oracle()": "1149",
				"refreshConfig()": "infinite",
				"refreshSIGHSpeeds()": "infinite",
				"removeInstrument(address,address)": "infinite",
				"setPriceOracle(address)": "21162",
				"totalInstrumentsSupported()": "1086",
				"transferSighTotheUser(address,address,address,uint256)": "infinite",
				"updateDeltaBlocksForSpeedRefresh(uint256)": "infinite",
				"updateSIGHBorrowIndex(address)": "infinite",
				"updateSIGHSpeed(uint256)": "infinite",
				"updateSIGHSupplyIndex(address)": "infinite",
				"updateStakingSpeedForAnInstrument(address,uint256)": "infinite"
			},
			"internal": {
				"adjustForDecimalsInternal(uint256,uint256,uint256)": "infinite",
				"calculateMaxSighSpeedInternal(uint256)": "infinite",
				"getRevision()": "infinite",
				"refreshConfigInternal()": "infinite",
				"refreshSIGHSpeedsInternal()": "infinite",
				"updateCurrentClockInternal()": "infinite",
				"updateSIGHBorrowIndexInternal(address)": "infinite",
				"updateSIGHSupplyIndexInternal(address)": "infinite",
				"updatedInstrumentIndexesInternal()": "infinite"
			}
		},
		"methodIdentifiers": {
			"Instrument_SIGHed(address)": "ffffd7fb",
			"Instrument_UNSIGHed(address)": "4f78deef",
			"Sigh_Address()": "21428a12",
			"SpeedUpperCheckSwitch(bool,uint256)": "832c6c90",
			"addInstrument(address,address,uint256)": "52bbe658",
			"addressesProvider()": "c72c4d10",
			"checkPriceSnapshots(address,uint256)": "4df859fd",
			"checkinitializationCounter(address)": "8d9cf864",
			"getAllInstrumentsSupported()": "831449de",
			"getAllPriceSnapshots(address)": "d6357063",
			"getBlockNumber()": "42cbb15c",
			"getBlockNumbersForPriceSnapshots()": "659f73c5",
			"getBlocksRemainingToNextSpeedRefresh()": "6f610c50",
			"getDeltaBlocksForSpeed()": "be36810a",
			"getInstrumentBorrowIndex(address)": "10fa61e6",
			"getInstrumentData(address)": "4dc54a38",
			"getInstrumentSpeeds(address)": "3e5eee46",
			"getInstrumentSupplyIndex(address)": "9a717b24",
			"getPrevSpeedRefreshBlock()": "3e955265",
			"getSIGHBalance()": "c6a6bfb1",
			"getSIGHSpeed()": "570b39d0",
			"getupperCheckProfitPercentage()": "0ef9e9d7",
			"initialize(address)": "c4d66de8",
			"isInstrumentSupported(address)": "c3d1b72d",
			"lendingPoolCore()": "0d7ff887",
			"oracle()": "7dc0d1d0",
			"refreshConfig()": "7c55ccb3",
			"refreshSIGHSpeeds()": "bf1678f6",
			"removeInstrument(address,address)": "f9665d44",
			"setPriceOracle(address)": "530e784f",
			"totalInstrumentsSupported()": "eeabe79f",
			"transferSighTotheUser(address,address,address,uint256)": "8e26fc38",
			"updateDeltaBlocksForSpeedRefresh(uint256)": "1e7faed9",
			"updateSIGHBorrowIndex(address)": "7c52b668",
			"updateSIGHSpeed(uint256)": "2df0f9a9",
			"updateSIGHSupplyIndex(address)": "4f425fbb",
			"updateStakingSpeedForAnInstrument(address,uint256)": "04c66321"
		}
	},
	"abi": [
		{
			"anonymous": false,
			"inputs": [
				{
					"indexed": false,
					"internalType": "address",
					"name": "instrument",
					"type": "address"
				},
				{
					"indexed": false,
					"internalType": "address",
					"name": "user",
					"type": "address"
				},
				{
					"indexed": false,
					"internalType": "uint256",
					"name": "sigh_Amount",
					"type": "uint256"
				}
			],
			"name": "AccuredSIGHTransferredToTheUser",
			"type": "event"
		},
		{
			"anonymous": false,
			"inputs": [
				{
					"indexed": false,
					"internalType": "address",
					"name": "instrument",
					"type": "address"
				},
				{
					"indexed": false,
					"internalType": "uint256",
					"name": "prevSpeed",
					"type": "uint256"
				},
				{
					"indexed": false,
					"internalType": "uint256",
					"name": "newSpeed",
					"type": "uint256"
				},
				{
					"indexed": false,
					"internalType": "uint256",
					"name": "blockNumber",
					"type": "uint256"
				}
			],
			"name": "BorrowersSIGHSpeedUpdated",
			"type": "event"
		},
		{
			"anonymous": false,
			"inputs": [
				{
					"indexed": false,
					"internalType": "uint224",
					"name": "curClock",
					"type": "uint224"
				},
				{
					"indexed": false,
					"internalType": "uint256",
					"name": "blockNumber",
					"type": "uint256"
				}
			],
			"name": "ClockUpdated",
			"type": "event"
		},
		{
			"anonymous": false,
			"inputs": [
				{
					"indexed": false,
					"internalType": "address",
					"name": "instrumentAddress_",
					"type": "address"
				},
				{
					"indexed": false,
					"internalType": "string",
					"name": "name",
					"type": "string"
				},
				{
					"indexed": false,
					"internalType": "uint256",
					"name": "decimals",
					"type": "uint256"
				},
				{
					"indexed": false,
					"internalType": "address",
					"name": "iTokenAddress",
					"type": "address"
				},
				{
					"indexed": false,
					"internalType": "uint256",
					"name": "blockNumber",
					"type": "uint256"
				}
			],
			"name": "InstrumentAdded",
			"type": "event"
		},
		{
			"anonymous": false,
			"inputs": [
				{
					"indexed": false,
					"internalType": "uint32",
					"name": "initializationCounter",
					"type": "uint32"
				},
				{
					"indexed": false,
					"internalType": "uint224",
					"name": "curClock",
					"type": "uint224"
				}
			],
			"name": "InstrumentCounterUpdated",
			"type": "event"
		},
		{
			"anonymous": false,
			"inputs": [
				{
					"indexed": false,
					"internalType": "address",
					"name": "_instrument",
					"type": "address"
				},
				{
					"indexed": false,
					"internalType": "address",
					"name": "_iTokenAddress",
					"type": "address"
				},
				{
					"indexed": false,
					"internalType": "string",
					"name": "name",
					"type": "string"
				},
				{
					"indexed": false,
					"internalType": "uint256",
					"name": "blockNumber",
					"type": "uint256"
				}
			],
			"name": "InstrumentRemoved",
			"type": "event"
		},
		{
			"anonymous": false,
			"inputs": [
				{
					"indexed": false,
					"internalType": "address",
					"name": "instrumentAddress_",
					"type": "address"
				},
				{
					"indexed": false,
					"internalType": "string",
					"name": "name",
					"type": "string"
				},
				{
					"indexed": false,
					"internalType": "bool",
					"name": "isSighed",
					"type": "bool"
				},
				{
					"indexed": false,
					"internalType": "uint256",
					"name": "blockNumber",
					"type": "uint256"
				}
			],
			"name": "InstrumentSIGHed",
			"type": "event"
		},
		{
			"anonymous": false,
			"inputs": [
				{
					"indexed": false,
					"internalType": "uint256",
					"name": "SIGHSpeed",
					"type": "uint256"
				},
				{
					"indexed": false,
					"internalType": "uint256",
					"name": "sigh_speed_used",
					"type": "uint256"
				},
				{
					"indexed": false,
					"internalType": "uint256",
					"name": "sighPrice",
					"type": "uint256"
				},
				{
					"indexed": false,
					"internalType": "uint256",
					"name": "max_valueDistributionLimit",
					"type": "uint256"
				},
				{
					"indexed": false,
					"internalType": "uint256",
					"name": "totalLossesPerBlockAverage",
					"type": "uint256"
				},
				{
					"indexed": false,
					"internalType": "uint256",
					"name": "profitPotentialPerBlock",
					"type": "uint256"
				},
				{
					"indexed": false,
					"internalType": "uint256",
					"name": "lossesPlusProfitPotentialPerBlock",
					"type": "uint256"
				}
			],
			"name": "MaxSpeedUsedWhenRefreshingPriceSnapshots",
			"type": "event"
		},
		{
			"anonymous": false,
			"inputs": [
				{
					"indexed": false,
					"internalType": "uint256",
					"name": "oldSIGHSpeed",
					"type": "uint256"
				},
				{
					"indexed": false,
					"internalType": "uint256",
					"name": "newSIGHSpeed",
					"type": "uint256"
				},
				{
					"indexed": false,
					"internalType": "uint256",
					"name": "blockNumber_",
					"type": "uint256"
				}
			],
			"name": "NewSIGHSpeed",
			"type": "event"
		},
		{
			"anonymous": false,
			"inputs": [
				{
					"indexed": false,
					"internalType": "address",
					"name": "instrument",
					"type": "address"
				},
				{
					"indexed": false,
					"internalType": "uint256",
					"name": "prevPrice",
					"type": "uint256"
				},
				{
					"indexed": false,
					"internalType": "uint256",
					"name": "currentPrice",
					"type": "uint256"
				},
				{
					"indexed": false,
					"internalType": "uint256",
					"name": "currentClock",
					"type": "uint256"
				}
			],
			"name": "PriceSnapped",
			"type": "event"
		},
		{
			"anonymous": false,
			"inputs": [
				{
					"indexed": false,
					"internalType": "address",
					"name": "iToken",
					"type": "address"
				},
				{
					"indexed": false,
					"internalType": "uint256",
					"name": "prevPrice",
					"type": "uint256"
				},
				{
					"indexed": false,
					"internalType": "uint256",
					"name": "currentPrice",
					"type": "uint256"
				},
				{
					"indexed": false,
					"internalType": "uint32",
					"name": "currentCounter",
					"type": "uint32"
				}
			],
			"name": "PriceSnappedCheck",
			"type": "event"
		},
		{
			"anonymous": false,
			"inputs": [
				{
					"indexed": false,
					"internalType": "address",
					"name": "addressesProvider",
					"type": "address"
				},
				{
					"indexed": false,
					"internalType": "address",
					"name": "Sigh_Address",
					"type": "address"
				},
				{
					"indexed": false,
					"internalType": "address",
					"name": "priceOracle",
					"type": "address"
				},
				{
					"indexed": false,
					"internalType": "address",
					"name": "lendingPoolCore",
					"type": "address"
				}
			],
			"name": "SIGHDistributionHandlerInitialized",
			"type": "event"
		},
		{
			"anonymous": false,
			"inputs": [
				{
					"indexed": false,
					"internalType": "bool",
					"name": "previsSpeedUpperCheckAllowed",
					"type": "bool"
				},
				{
					"indexed": false,
					"internalType": "uint256",
					"name": "upperCheckProfitPercentage",
					"type": "uint256"
				},
				{
					"indexed": false,
					"internalType": "uint256",
					"name": "blockNumber",
					"type": "uint256"
				}
			],
			"name": "SpeedUpperCheckSwitched",
			"type": "event"
		},
		{
			"anonymous": false,
			"inputs": [
				{
					"indexed": false,
					"internalType": "address",
					"name": "instrumentAddress_",
					"type": "address"
				},
				{
					"indexed": false,
					"internalType": "uint256",
					"name": "prevStakingSpeed",
					"type": "uint256"
				},
				{
					"indexed": false,
					"internalType": "uint256",
					"name": "new_staking_Speed",
					"type": "uint256"
				},
				{
					"indexed": false,
					"internalType": "uint256",
					"name": "blockNumber",
					"type": "uint256"
				}
			],
			"name": "StakingSpeedUpdated",
			"type": "event"
		},
		{
			"anonymous": false,
			"inputs": [
				{
					"indexed": false,
					"internalType": "address",
					"name": "instrument",
					"type": "address"
				},
				{
					"indexed": false,
					"internalType": "uint256",
					"name": "prevSpeed",
					"type": "uint256"
				},
				{
					"indexed": false,
					"internalType": "uint256",
					"name": "newSpeed",
					"type": "uint256"
				},
				{
					"indexed": false,
					"internalType": "uint256",
					"name": "blockNumber",
					"type": "uint256"
				}
			],
			"name": "SuppliersSIGHSpeedUpdated",
			"type": "event"
		},
		{
			"anonymous": false,
			"inputs": [
				{
					"indexed": false,
					"internalType": "uint224",
					"name": "curClock",
					"type": "uint224"
				},
				{
					"indexed": false,
					"internalType": "uint256",
					"name": "blockNumbersForPriceSnapshots",
					"type": "uint256"
				},
				{
					"indexed": false,
					"internalType": "uint256",
					"name": "deltaBlocks_",
					"type": "uint256"
				},
				{
					"indexed": false,
					"internalType": "uint256",
					"name": "blocknumber",
					"type": "uint256"
				}
			],
			"name": "blockNumberForSnapshotUpdated",
			"type": "event"
		},
		{
			"anonymous": false,
			"inputs": [
				{
					"indexed": false,
					"internalType": "uint256",
					"name": "lossAmount",
					"type": "uint256"
				},
				{
					"indexed": false,
					"internalType": "uint256",
					"name": "instrumentDecimals",
					"type": "uint256"
				},
				{
					"indexed": false,
					"internalType": "uint256",
					"name": "priceDecimals",
					"type": "uint256"
				},
				{
					"indexed": false,
					"internalType": "uint256",
					"name": "totalDecimals",
					"type": "uint256"
				},
				{
					"indexed": false,
					"internalType": "uint256",
					"name": "correctionNumber",
					"type": "uint256"
				},
				{
					"indexed": false,
					"internalType": "uint256",
					"name": "correctedLossAmount",
					"type": "uint256"
				}
			],
			"name": "decimalsAdjustment",
			"type": "event"
		},
		{
			"anonymous": false,
			"inputs": [
				{
					"indexed": false,
					"internalType": "uint256",
					"name": "SIGH",
					"type": "uint256"
				}
			],
			"name": "maxSpeedCheck",
			"type": "event"
		},
		{
			"anonymous": false,
			"inputs": [
				{
					"indexed": false,
					"internalType": "uint256",
					"name": "prevDeltaBlocksForSpeed",
					"type": "uint256"
				},
				{
					"indexed": false,
					"internalType": "uint256",
					"name": "newDeltaBlocksForSpeed",
					"type": "uint256"
				},
				{
					"indexed": false,
					"internalType": "uint256",
					"name": "blockNumber",
					"type": "uint256"
				}
			],
			"name": "minimumBlocksForSpeedRefreshUpdated",
			"type": "event"
		},
		{
			"anonymous": false,
			"inputs": [
				{
					"indexed": false,
					"internalType": "address",
					"name": "market",
					"type": "address"
				},
				{
					"indexed": false,
					"internalType": "uint256",
					"name": "supplierLoss",
					"type": "uint256"
				},
				{
					"indexed": false,
					"internalType": "uint256",
					"name": "borrowerLoss",
					"type": "uint256"
				},
				{
					"indexed": false,
					"internalType": "uint256",
					"name": "totalLosses",
					"type": "uint256"
				}
			],
			"name": "refreshingSighSpeeds_1",
			"type": "event"
		},
		{
			"anonymous": false,
			"inputs": [
				{
					"indexed": false,
					"internalType": "address",
					"name": "market",
					"type": "address"
				},
				{
					"indexed": false,
					"internalType": "uint256",
					"name": "maxSpeed",
					"type": "uint256"
				},
				{
					"indexed": false,
					"internalType": "uint256",
					"name": "lossRatio",
					"type": "uint256"
				},
				{
					"indexed": false,
					"internalType": "uint256",
					"name": "supplierSpeed",
					"type": "uint256"
				},
				{
					"indexed": false,
					"internalType": "uint256",
					"name": "borrowerSpeed",
					"type": "uint256"
				}
			],
			"name": "refreshingSighSpeeds_2",
			"type": "event"
		},
		{
			"anonymous": false,
			"inputs": [
				{
					"indexed": false,
					"internalType": "address",
					"name": "market",
					"type": "address"
				},
				{
					"indexed": false,
					"internalType": "uint256",
					"name": "speed",
					"type": "uint256"
				},
				{
					"indexed": false,
					"internalType": "uint256",
					"name": "currentIndex",
					"type": "uint256"
				},
				{
					"indexed": false,
					"internalType": "uint256",
					"name": "prevBlock",
					"type": "uint256"
				},
				{
					"indexed": false,
					"internalType": "uint256",
					"name": "curBlock",
					"type": "uint256"
				},
				{
					"indexed": false,
					"internalType": "uint256",
					"name": "deltaBlocks",
					"type": "uint256"
				}
			],
			"name": "updateSIGHBorrowIndex_test1",
			"type": "event"
		},
		{
			"anonymous": false,
			"inputs": [
				{
					"indexed": false,
					"internalType": "address",
					"name": "market",
					"type": "address"
				},
				{
					"indexed": false,
					"internalType": "uint256",
					"name": "borrowAmount",
					"type": "uint256"
				},
				{
					"indexed": false,
					"internalType": "uint256",
					"name": "sigh_Accrued",
					"type": "uint256"
				},
				{
					"indexed": false,
					"internalType": "uint256",
					"name": "ratio",
					"type": "uint256"
				},
				{
					"indexed": false,
					"internalType": "uint256",
					"name": "index",
					"type": "uint256"
				}
			],
			"name": "updateSIGHBorrowIndex_test2",
			"type": "event"
		},
		{
			"anonymous": false,
			"inputs": [
				{
					"indexed": false,
					"internalType": "address",
					"name": "market",
					"type": "address"
				},
				{
					"indexed": false,
					"internalType": "uint256",
					"name": "newIndex",
					"type": "uint256"
				},
				{
					"indexed": false,
					"internalType": "uint256",
					"name": "blockNum",
					"type": "uint256"
				}
			],
			"name": "updateSIGHBorrowIndex_test3",
			"type": "event"
		},
		{
			"anonymous": false,
			"inputs": [
				{
					"indexed": false,
					"internalType": "address",
					"name": "market",
					"type": "address"
				},
				{
					"indexed": false,
					"internalType": "uint256",
					"name": "speed",
					"type": "uint256"
				},
				{
					"indexed": false,
					"internalType": "uint256",
					"name": "currentIndex",
					"type": "uint256"
				},
				{
					"indexed": false,
					"internalType": "uint256",
					"name": "prevBlock",
					"type": "uint256"
				},
				{
					"indexed": false,
					"internalType": "uint256",
					"name": "curBlock",
					"type": "uint256"
				},
				{
					"indexed": false,
					"internalType": "uint256",
					"name": "deltaBlocks",
					"type": "uint256"
				}
			],
			"name": "updateSIGHSupplyIndex_test1",
			"type": "event"
		},
		{
			"anonymous": false,
			"inputs": [
				{
					"indexed": false,
					"internalType": "address",
					"name": "market",
					"type": "address"
				},
				{
					"indexed": false,
					"internalType": "uint256",
					"name": "supplyTokens",
					"type": "uint256"
				},
				{
					"indexed": false,
					"internalType": "uint256",
					"name": "sigh_Accrued",
					"type": "uint256"
				},
				{
					"indexed": false,
					"internalType": "uint256",
					"name": "ratio",
					"type": "uint256"
				},
				{
					"indexed": false,
					"internalType": "uint256",
					"name": "index",
					"type": "uint256"
				}
			],
			"name": "updateSIGHSupplyIndex_test2",
			"type": "event"
		},
		{
			"anonymous": false,
			"inputs": [
				{
					"indexed": false,
					"internalType": "address",
					"name": "market",
					"type": "address"
				},
				{
					"indexed": false,
					"internalType": "uint256",
					"name": "newIndex",
					"type": "uint256"
				},
				{
					"indexed": false,
					"internalType": "uint256",
					"name": "blockNum",
					"type": "uint256"
				}
			],
			"name": "updateSIGHSupplyIndex_test3",
			"type": "event"
		},
		{
			"constant": false,
			"inputs": [
				{
					"internalType": "address",
					"name": "instrument_",
					"type": "address"
				}
			],
			"name": "Instrument_SIGHed",
			"outputs": [
				{
					"internalType": "bool",
					"name": "",
					"type": "bool"
				}
			],
			"payable": false,
			"stateMutability": "nonpayable",
			"type": "function"
		},
		{
			"constant": false,
			"inputs": [
				{
					"internalType": "address",
					"name": "instrument_",
					"type": "address"
				}
			],
			"name": "Instrument_UNSIGHed",
			"outputs": [
				{
					"internalType": "bool",
					"name": "",
					"type": "bool"
				}
			],
			"payable": false,
			"stateMutability": "nonpayable",
			"type": "function"
		},
		{
			"constant": true,
			"inputs": [],
			"name": "Sigh_Address",
			"outputs": [
				{
					"internalType": "contract IERC20",
					"name": "",
					"type": "address"
				}
			],
			"payable": false,
			"stateMutability": "view",
			"type": "function"
		},
		{
			"constant": false,
			"inputs": [
				{
					"internalType": "bool",
					"name": "isActivated",
					"type": "bool"
				},
				{
					"internalType": "uint256",
					"name": "profitPercentage",
					"type": "uint256"
				}
			],
			"name": "SpeedUpperCheckSwitch",
			"outputs": [
				{
					"internalType": "bool",
					"name": "",
					"type": "bool"
				}
			],
			"payable": false,
			"stateMutability": "nonpayable",
			"type": "function"
		},
		{
			"constant": false,
			"inputs": [
				{
					"internalType": "address",
					"name": "_instrument",
					"type": "address"
				},
				{
					"internalType": "address",
					"name": "_iTokenAddress",
					"type": "address"
				},
				{
					"internalType": "uint256",
					"name": "_decimals",
					"type": "uint256"
				}
			],
			"name": "addInstrument",
			"outputs": [
				{
					"internalType": "bool",
					"name": "",
					"type": "bool"
				}
			],
			"payable": false,
			"stateMutability": "nonpayable",
			"type": "function"
		},
		{
			"constant": true,
			"inputs": [],
			"name": "addressesProvider",
			"outputs": [
				{
					"internalType": "contract GlobalAddressesProvider",
					"name": "",
					"type": "address"
				}
			],
			"payable": false,
			"stateMutability": "view",
			"type": "function"
		},
		{
			"constant": true,
			"inputs": [
				{
					"internalType": "address",
					"name": "instrument_",
					"type": "address"
				},
				{
					"internalType": "uint256",
					"name": "clock",
					"type": "uint256"
				}
			],
			"name": "checkPriceSnapshots",
			"outputs": [
				{
					"internalType": "uint256",
					"name": "",
					"type": "uint256"
				}
			],
			"payable": false,
			"stateMutability": "view",
			"type": "function"
		},
		{
			"constant": true,
			"inputs": [
				{
					"internalType": "address",
					"name": "instrument_",
					"type": "address"
				}
			],
			"name": "checkinitializationCounter",
			"outputs": [
				{
					"internalType": "uint32",
					"name": "",
					"type": "uint32"
				}
			],
			"payable": false,
			"stateMutability": "view",
			"type": "function"
		},
		{
			"constant": true,
			"inputs": [],
			"name": "getAllInstrumentsSupported",
			"outputs": [
				{
					"internalType": "address[]",
					"name": "",
					"type": "address[]"
				}
			],
			"payable": false,
			"stateMutability": "view",
			"type": "function"
		},
		{
			"constant": true,
			"inputs": [
				{
					"internalType": "address",
					"name": "instrument_",
					"type": "address"
				}
			],
			"name": "getAllPriceSnapshots",
			"outputs": [
				{
					"internalType": "uint256[24]",
					"name": "",
					"type": "uint256[24]"
				}
			],
			"payable": false,
			"stateMutability": "view",
			"type": "function"
		},
		{
			"constant": true,
			"inputs": [],
			"name": "getBlockNumber",
			"outputs": [
				{
					"internalType": "uint32",
					"name": "",
					"type": "uint32"
				}
			],
			"payable": false,
			"stateMutability": "view",
			"type": "function"
		},
		{
			"constant": true,
			"inputs": [],
			"name": "getBlockNumbersForPriceSnapshots",
			"outputs": [
				{
					"internalType": "uint256[24]",
					"name": "",
					"type": "uint256[24]"
				}
			],
			"payable": false,
			"stateMutability": "view",
			"type": "function"
		},
		{
			"constant": true,
			"inputs": [],
			"name": "getBlocksRemainingToNextSpeedRefresh",
			"outputs": [
				{
					"internalType": "uint256",
					"name": "",
					"type": "uint256"
				}
			],
			"payable": false,
			"stateMutability": "view",
			"type": "function"
		},
		{
			"constant": true,
			"inputs": [],
			"name": "getDeltaBlocksForSpeed",
			"outputs": [
				{
					"internalType": "uint256",
					"name": "",
					"type": "uint256"
				}
			],
			"payable": false,
			"stateMutability": "view",
			"type": "function"
		},
		{
			"constant": true,
			"inputs": [
				{
					"internalType": "address",
					"name": "instrument_",
					"type": "address"
				}
			],
			"name": "getInstrumentBorrowIndex",
			"outputs": [
				{
					"internalType": "uint256",
					"name": "",
					"type": "uint256"
				}
			],
			"payable": false,
			"stateMutability": "view",
			"type": "function"
		},
		{
			"constant": true,
			"inputs": [
				{
					"internalType": "address",
					"name": "instrument_",
					"type": "address"
				}
			],
			"name": "getInstrumentData",
			"outputs": [
				{
					"internalType": "string",
					"name": "name",
					"type": "string"
				},
				{
					"internalType": "address",
					"name": "iTokenAddress",
					"type": "address"
				},
				{
					"internalType": "uint256",
					"name": "decimals",
					"type": "uint256"
				},
				{
					"internalType": "bool",
					"name": "isSIGHMechanismActivated",
					"type": "bool"
				},
				{
					"internalType": "uint256",
					"name": "supplyindex",
					"type": "uint256"
				},
				{
					"internalType": "uint256",
					"name": "borrowindex",
					"type": "uint256"
				}
			],
			"payable": false,
			"stateMutability": "view",
			"type": "function"
		},
		{
			"constant": true,
			"inputs": [
				{
					"internalType": "address",
					"name": "instrument",
					"type": "address"
				}
			],
			"name": "getInstrumentSpeeds",
			"outputs": [
				{
					"internalType": "uint256",
					"name": "suppliers_speed",
					"type": "uint256"
				},
				{
					"internalType": "uint256",
					"name": "borroweers_speed",
					"type": "uint256"
				},
				{
					"internalType": "uint256",
					"name": "staking_speed",
					"type": "uint256"
				}
			],
			"payable": false,
			"stateMutability": "view",
			"type": "function"
		},
		{
			"constant": true,
			"inputs": [
				{
					"internalType": "address",
					"name": "instrument_",
					"type": "address"
				}
			],
			"name": "getInstrumentSupplyIndex",
			"outputs": [
				{
					"internalType": "uint256",
					"name": "",
					"type": "uint256"
				}
			],
			"payable": false,
			"stateMutability": "view",
			"type": "function"
		},
		{
			"constant": true,
			"inputs": [],
			"name": "getPrevSpeedRefreshBlock",
			"outputs": [
				{
					"internalType": "uint256",
					"name": "",
					"type": "uint256"
				}
			],
			"payable": false,
			"stateMutability": "view",
			"type": "function"
		},
		{
			"constant": true,
			"inputs": [],
			"name": "getSIGHBalance",
			"outputs": [
				{
					"internalType": "uint256",
					"name": "",
					"type": "uint256"
				}
			],
			"payable": false,
			"stateMutability": "view",
			"type": "function"
		},
		{
			"constant": true,
			"inputs": [],
			"name": "getSIGHSpeed",
			"outputs": [
				{
					"internalType": "uint256",
					"name": "",
					"type": "uint256"
				}
			],
			"payable": false,
			"stateMutability": "view",
			"type": "function"
		},
		{
			"constant": true,
			"inputs": [],
			"name": "getupperCheckProfitPercentage",
			"outputs": [
				{
					"internalType": "uint256",
					"name": "",
					"type": "uint256"
				}
			],
			"payable": false,
			"stateMutability": "view",
			"type": "function"
		},
		{
			"constant": false,
			"inputs": [
				{
					"internalType": "contract GlobalAddressesProvider",
					"name": "addressesProvider_",
					"type": "address"
				}
			],
			"name": "initialize",
			"outputs": [],
			"payable": false,
			"stateMutability": "nonpayable",
			"type": "function"
		},
		{
			"constant": true,
			"inputs": [
				{
					"internalType": "address",
					"name": "instrument_",
					"type": "address"
				}
			],
			"name": "isInstrumentSupported",
			"outputs": [
				{
					"internalType": "bool",
					"name": "",
					"type": "bool"
				}
			],
			"payable": false,
			"stateMutability": "view",
			"type": "function"
		},
		{
			"constant": true,
			"inputs": [],
			"name": "lendingPoolCore",
			"outputs": [
				{
					"internalType": "contract ILendingPoolCore",
					"name": "",
					"type": "address"
				}
			],
			"payable": false,
			"stateMutability": "view",
			"type": "function"
		},
		{
			"constant": true,
			"inputs": [],
			"name": "oracle",
			"outputs": [
				{
					"internalType": "contract IPriceOracleGetter",
					"name": "",
					"type": "address"
				}
			],
			"payable": false,
			"stateMutability": "view",
			"type": "function"
		},
		{
			"constant": false,
			"inputs": [],
			"name": "refreshConfig",
			"outputs": [],
			"payable": false,
			"stateMutability": "nonpayable",
			"type": "function"
		},
		{
			"constant": false,
			"inputs": [],
			"name": "refreshSIGHSpeeds",
			"outputs": [
				{
					"internalType": "bool",
					"name": "",
					"type": "bool"
				}
			],
			"payable": false,
			"stateMutability": "nonpayable",
			"type": "function"
		},
		{
			"constant": false,
			"inputs": [
				{
					"internalType": "address",
					"name": "_instrument",
					"type": "address"
				},
				{
					"internalType": "address",
					"name": "_iTokenAddress",
					"type": "address"
				}
			],
			"name": "removeInstrument",
			"outputs": [
				{
					"internalType": "bool",
					"name": "",
					"type": "bool"
				}
			],
			"payable": false,
			"stateMutability": "nonpayable",
			"type": "function"
		},
		{
			"constant": false,
			"inputs": [
				{
					"internalType": "address",
					"name": "oracle_",
					"type": "address"
				}
			],
			"name": "setPriceOracle",
			"outputs": [],
			"payable": false,
			"stateMutability": "nonpayable",
			"type": "function"
		},
		{
			"constant": true,
			"inputs": [],
			"name": "totalInstrumentsSupported",
			"outputs": [
				{
					"internalType": "uint256",
					"name": "",
					"type": "uint256"
				}
			],
			"payable": false,
			"stateMutability": "view",
			"type": "function"
		},
		{
			"constant": false,
			"inputs": [
				{
					"internalType": "address",
					"name": "instrument",
					"type": "address"
				},
				{
					"internalType": "address",
					"name": "user",
					"type": "address"
				},
				{
					"internalType": "address",
					"name": "sighAccuredTo",
					"type": "address"
				},
				{
					"internalType": "uint256",
					"name": "sigh_Amount",
					"type": "uint256"
				}
			],
			"name": "transferSighTotheUser",
			"outputs": [
				{
					"internalType": "uint256",
					"name": "",
					"type": "uint256"
				}
			],
			"payable": false,
			"stateMutability": "nonpayable",
			"type": "function"
		},
		{
			"constant": false,
			"inputs": [
				{
					"internalType": "uint256",
					"name": "deltaBlocksLimit",
					"type": "uint256"
				}
			],
			"name": "updateDeltaBlocksForSpeedRefresh",
			"outputs": [
				{
					"internalType": "bool",
					"name": "",
					"type": "bool"
				}
			],
			"payable": false,
			"stateMutability": "nonpayable",
			"type": "function"
		},
		{
			"constant": false,
			"inputs": [
				{
					"internalType": "address",
					"name": "currentInstrument",
					"type": "address"
				}
			],
			"name": "updateSIGHBorrowIndex",
			"outputs": [
				{
					"internalType": "bool",
					"name": "",
					"type": "bool"
				}
			],
			"payable": false,
			"stateMutability": "nonpayable",
			"type": "function"
		},
		{
			"constant": false,
			"inputs": [
				{
					"internalType": "uint256",
					"name": "SIGHSpeed_",
					"type": "uint256"
				}
			],
			"name": "updateSIGHSpeed",
			"outputs": [
				{
					"internalType": "bool",
					"name": "",
					"type": "bool"
				}
			],
			"payable": false,
			"stateMutability": "nonpayable",
			"type": "function"
		},
		{
			"constant": false,
			"inputs": [
				{
					"internalType": "address",
					"name": "currentInstrument",
					"type": "address"
				}
			],
			"name": "updateSIGHSupplyIndex",
			"outputs": [
				{
					"internalType": "bool",
					"name": "",
					"type": "bool"
				}
			],
			"payable": false,
			"stateMutability": "nonpayable",
			"type": "function"
		},
		{
			"constant": false,
			"inputs": [
				{
					"internalType": "address",
					"name": "instrument_",
					"type": "address"
				},
				{
					"internalType": "uint256",
					"name": "newStakingSpeed",
					"type": "uint256"
				}
			],
			"name": "updateStakingSpeedForAnInstrument",
			"outputs": [
				{
					"internalType": "bool",
					"name": "",
					"type": "bool"
				}
			],
			"payable": false,
			"stateMutability": "nonpayable",
			"type": "function"
		}
	]
}