{
	"data": {
		"bytecode": {
			"linkReferences": {},
			"object": "608060405260006100176001600160e01b0361006616565b600080546001600160a01b0319166001600160a01b0383169081178255604051929350917f8be0079c531659141344cd1fd0a4f28419497f9722a3daafe3b4186f6b6457e0908290a35061006a565b3390565b611f11806100796000396000f3fe608060405234801561001057600080fd5b50600436106102115760003560e01c80635aef021f11610125578063a5eface2116100ad578063ed6ff7601161007c578063ed6ff7601461050f578063ee89129614610517578063f2fde38b1461051f578063fbeefc3c14610545578063fca513a81461054d57610211565b8063a5eface214610477578063bfedc1031461049d578063c12542df146104c3578063c5b3f337146104e957610211565b8063841aa40c116100f4578063841aa40c1461043b57806385c858b11461044357806389ae2ad81461044b5780638da5cb5b146104535780638f32d59b1461045b57610211565b80635aef021f146103c1578063715018a6146103e7578063723130ac146103ef578063820d12741461041557610211565b806333128d59116101a857806344ce375b1161017757806344ce375b1461035d5780634cccd18014610383578063530e784f1461038b5780635834eb9a146103b157806359e6130c146103b957610211565b806333128d59146103015780633618abba1461030957806338280e6b1461031157806340fdcadc1461033757610211565b80631e8df2a2116101e45780631e8df2a21461029057806321f8a721146102b65780632a62c636146102d35780632f58b80d146102f957610211565b806301c671c1146102165780630261bf8b1461023e57806304061d8e146102625780631c8272041461026a575b600080fd5b61023c6004803603602081101561022c57600080fd5b50356001600160a01b0316610555565b005b6102466105f9565b604080516001600160a01b039092168252519081900360200190f35b610246610618565b61023c6004803603602081101561028057600080fd5b50356001600160a01b0316610639565b61023c600480360360208110156102a657600080fd5b50356001600160a01b03166106d5565b610246600480360360208110156102cc57600080fd5b5035610779565b61023c600480360360208110156102e957600080fd5b50356001600160a01b0316610794565b61024661082b565b610246610846565b610246610868565b61023c6004803603602081101561032757600080fd5b50356001600160a01b0316610889565b61023c6004803603602081101561034d57600080fd5b50356001600160a01b0316610925565b61023c6004803603602081101561037357600080fd5b50356001600160a01b03166109c4565b610246610a62565b61023c600480360360208110156103a157600080fd5b50356001600160a01b0316610a89565b610246610b20565b610246610b41565b61023c600480360360208110156103d757600080fd5b50356001600160a01b0316610b5c565b61023c610bf3565b61023c6004803603602081101561040557600080fd5b50356001600160a01b0316610c84565b61023c6004803603602081101561042b57600080fd5b50356001600160a01b0316610d13565b610246610db1565b610246610dc3565b610246610dea565b610246610e11565b610463610e20565b604080519115158252519081900360200190f35b61023c6004803603602081101561048d57600080fd5b50356001600160a01b0316610e44565b61023c600480360360208110156104b357600080fd5b50356001600160a01b0316610ee2565b61023c600480360360208110156104d957600080fd5b50356001600160a01b0316610f7a565b61023c600480360360208110156104ff57600080fd5b50356001600160a01b031661101e565b6102466110b6565b6102466110dc565b61023c6004803603602081101561053557600080fd5b50356001600160a01b03166110fb565b61024661114e565b610246611168565b61055d610e20565b61059c576040805162461bcd60e51b81526020600482018190526024820152600080516020611ebd833981519152604482015290519081900360640190fd5b6105c27829a4a3a42fa224a9aa2924a12aaa24a7a72fa420a7222622a960391b82611182565b6040516001600160a01b038216907f7220afee79a4971968b197531ada7f95d66b3b47e4c5eac1ff762d9d09d96ea090600090a250565b60006106136b13115391125391d7d413d3d360a21b610779565b905090565b6000610613722820a920a6a2aa22a929afa82927ab24a222a960691b610779565b610641610e20565b610680576040805162461bcd60e51b81526020600482018190526024820152600080516020611ebd833981519152604482015290519081900360640190fd5b61069e704c454e44494e475f504f4f4c5f434f524560781b82611182565b6040516001600160a01b038216907f71c226bb2879778ca1298196bf7cc1256baee9d05b496c31ee627d35a471b5b790600090a250565b6106dd610e20565b61071c576040805162461bcd60e51b81526020600482018190526024820152600080516020611ebd833981519152604482015290519081900360640190fd5b6107427829a4a3a42fa224a9aa2924a12aaa24a7a72fa6a0a720a3a2a960391b8261141b565b6040516001600160a01b038216907f2f152b7bdcd616dd7130f20531678b684c8587e235ffaddc086a46d3d76e06bd90600090a250565b6000908152600160205260409020546001600160a01b031690565b61079c610e20565b6107db576040805162461bcd60e51b81526020600482018190526024820152600080516020611ebd833981519152604482015290519081900360640190fd5b6107f46b2322a2afa82927ab24a222a960a11b82611182565b6040516001600160a01b038216907f18e1a55b8eff9c93921eecfa1462d6a8cbb80b3988db3eb14c039e43fdb2266190600090a250565b60006106136c2220aa20afa82927ab24a222a960991b610779565b6000610613732622a72224a723afa827a7a62fa6a0a720a3a2a960611b610779565b6000610613724c454e44494e475f524154455f4f5241434c4560681b610779565b610891610e20565b6108d0576040805162461bcd60e51b81526020600482018190526024820152600080516020611ebd833981519152604482015290519081900360640190fd5b6108ee702a27a5a2a72fa224a9aa2924a12aaa27a960791b8261141b565b6040516001600160a01b038216907fa8b48a56ec01f81c3615a21ec43e16b925c26293e0801cf6330427f2a687f05390600090a250565b61092d610e20565b61096c576040805162461bcd60e51b81526020600482018190526024820152600080516020611ebd833981519152604482015290519081900360640190fd5b61098d732622a72224a723afa827a7a62fa6a0a720a3a2a960611b8261141b565b6040516001600160a01b038216907fd5280c51185a38d36f7a0f5e56cac6248312bb70d0974782fa5a595127e0e08e90600090a250565b6109cc610e20565b610a0b576040805162461bcd60e51b81526020600482018190526024820152600080516020611ebd833981519152604482015290519081900360640190fd5b610a2b722624a8aaa4a220aa24a7a72fa6a0a720a3a2a960691b8261141b565b6040516001600160a01b038216907f1a76cb769b814bc038223da86932b099b20aae03473683e6d98f5c3554e2606490600090a250565b60006106137829a4a3a42fa224a9aa2924a12aaa24a7a72fa6a0a720a3a2a960391b610779565b610a91610e20565b610ad0576040805162461bcd60e51b81526020600482018190526024820152600080516020611ebd833981519152604482015290519081900360640190fd5b610ae96b50524943455f4f5241434c4560a01b8261141b565b6040516001600160a01b038216907fefe8ab924ca486283a79dc604baa67add51afb82af1db8ac386ebbba643cdffd90600090a250565b6000610613722624a8aaa4a220aa24a7a72fa6a0a720a3a2a960691b610779565b60006106136c534947485f545245415355525960981b610779565b610b64610e20565b610ba3576040805162461bcd60e51b81526020600482018190526024820152600080516020611ebd833981519152604482015290519081900360640190fd5b610bbc6b13115391125391d7d413d3d360a21b82611182565b6040516001600160a01b038216907fc4e6c6cdf28d0edbd8bcf071d724d33cc2e7a30be7d06443925656e9cb492aa490600090a250565b610bfb610e20565b610c3a576040805162461bcd60e51b81526020600482018190526024820152600080516020611ebd833981519152604482015290519081900360640190fd5b600080546040516001600160a01b03909116907f8be0079c531659141344cd1fd0a4f28419497f9722a3daafe3b4186f6b6457e0908390a3600080546001600160a01b0319169055565b610c8c610e20565b610ccb576040805162461bcd60e51b81526020600482018190526024820152600080516020611ebd833981519152604482015290519081900360640190fd5b610cdc630a6928e960e31b8261141b565b6040516001600160a01b038216907f381506510c1e0c6490721a2b661b0150f544e59c97ff556d7668d894b414ec7d90600090a250565b610d1b610e20565b610d5a576040805162461bcd60e51b81526020600482018190526024820152600080516020611ebd833981519152604482015290519081900360640190fd5b610d7a724c454e44494e475f524154455f4f5241434c4560681b8261141b565b6040516001600160a01b038216907f5c29179aba6942020a8a2d38f65de02fb6b7f784e7f049ed3a3cab97621859b590600090a250565b6000610613630a6928e960e31b610779565b6000610613782622a72224a723afa827a7a62fa1a7a72324a3aaa920aa27a960391b610779565b60006106137829a4a3a42fa224a9aa2924a12aaa24a7a72fa420a7222622a960391b610779565b6000546001600160a01b031690565b600080546001600160a01b0316610e35611449565b6001600160a01b031614905090565b610e4c610e20565b610e8b576040805162461bcd60e51b81526020600482018190526024820152600080516020611ebd833981519152604482015290519081900360640190fd5b610eab722820a920a6a2aa22a929afa82927ab24a222a960691b82611182565b6040516001600160a01b038216907fce16ea9b2fd7cadddd0f7359971028f50b5ddba33dfae1a9bdea956fabb1e28090600090a250565b610eea610e20565b610f29576040805162461bcd60e51b81526020600482018190526024820152600080516020611ebd833981519152604482015290519081900360640190fd5b610f436c2220aa20afa82927ab24a222a960991b82611182565b6040516001600160a01b038216907f07890d7d10db37434d76ee4f2928fb2dc66227c3b3391206aced4f7bcb59cdb090600090a250565b610f82610e20565b610fc1576040805162461bcd60e51b81526020600482018190526024820152600080516020611ebd833981519152604482015290519081900360640190fd5b610fe7782622a72224a723afa827a7a62fa1a7a72324a3aaa920aa27a960391b82611182565b6040516001600160a01b038216907fdfabe479bad36782fb1e77fbfddd4e382671713527e4786cfc93a022ae76372990600090a250565b611026610e20565b611065576040805162461bcd60e51b81526020600482018190526024820152600080516020611ebd833981519152604482015290519081900360640190fd5b61107f6c534947485f545245415355525960981b82611182565b6040516001600160a01b038216907f93fec44c5acd092620c14b28d06a2e524dddba15e76b62cf0ec97d81a4c6f0a090600090a250565b6000806110d6704c454e44494e475f504f4f4c5f434f524560781b610779565b91505090565b6000610613702a27a5a2a72fa224a9aa2924a12aaa27a960791b610779565b611103610e20565b611142576040805162461bcd60e51b81526020600482018190526024820152600080516020611ebd833981519152604482015290519081900360640190fd5b61114b8161144d565b50565b60006106136b2322a2afa82927ab24a222a960a11b610779565b60006106136b50524943455f4f5241434c4560a01b610779565b600061118d83610779565b60408051306024808301919091528251808303909101815260449091019091526020810180516001600160e01b031663189acdbd60e31b17905290915081906001600160a01b038216611347576040516111e6906114ed565b604051809103906000f080158015611202573d6000803e3d6000fd5b509150816001600160a01b031663cf7a1d778530846040518463ffffffff1660e01b815260040180846001600160a01b03166001600160a01b03168152602001836001600160a01b03166001600160a01b0316815260200180602001828103825283818151815260200191508051906020019080838360005b8381101561129357818101518382015260200161127b565b50505050905090810190601f1680156112c05780820380516001836020036101000a031916815260200191505b50945050505050600060405180830381600087803b1580156112e157600080fd5b505af11580156112f5573d6000803e3d6000fd5b50505050611303858361141b565b6040805186815290516001600160a01b038416917f1eb35cb4b5bbb23d152f3b4016a5a46c37a07ae930ed0956aba951e231142438919081900360200190a2611414565b6040805163278f794360e11b81526001600160a01b03868116600483019081526024830193845284516044840152845191861693634f1ef2869389938793929160640190602085019080838360005b838110156113ae578181015183820152602001611396565b50505050905090810190601f1680156113db5780820380516001836020036101000a031916815260200191505b509350505050600060405180830381600087803b1580156113fb57600080fd5b505af115801561140f573d6000803e3d6000fd5b505050505b5050505050565b60009182526001602052604090912080546001600160a01b0319166001600160a01b03909216919091179055565b3390565b6001600160a01b0381166114925760405162461bcd60e51b8152600401808060200182810382526026815260200180611e976026913960400191505060405180910390fd5b600080546040516001600160a01b03808516939216917f8be0079c531659141344cd1fd0a4f28419497f9722a3daafe3b4186f6b6457e091a3600080546001600160a01b0319166001600160a01b0392909216919091179055565b61099c806114fb8339019056fe608060405234801561001057600080fd5b5061097c806100206000396000f3fe6080604052600436106100705760003560e01c80638f2839701161004e5780638f2839701461015e578063cf7a1d7714610191578063d1f5789414610250578063f851a4401461030657610070565b80633659cfe61461007a5780634f1ef286146100ad5780635c60da1b1461012d575b61007861031b565b005b34801561008657600080fd5b506100786004803603602081101561009d57600080fd5b50356001600160a01b0316610335565b610078600480360360408110156100c357600080fd5b6001600160a01b0382351691908101906040810160208201356401000000008111156100ee57600080fd5b82018360208201111561010057600080fd5b8035906020019184600183028401116401000000008311171561012257600080fd5b50909250905061036f565b34801561013957600080fd5b5061014261041c565b604080516001600160a01b039092168252519081900360200190f35b34801561016a57600080fd5b506100786004803603602081101561018157600080fd5b50356001600160a01b0316610459565b610078600480360360608110156101a757600080fd5b6001600160a01b0382358116926020810135909116918101906060810160408201356401000000008111156101db57600080fd5b8201836020820111156101ed57600080fd5b8035906020019184600183028401116401000000008311171561020f57600080fd5b91908080601f016020809104026020016040519081016040528093929190818152602001838380828437600092019190915250929550610513945050505050565b6100786004803603604081101561026657600080fd5b6001600160a01b03823516919081019060408101602082013564010000000081111561029157600080fd5b8201836020820111156102a357600080fd5b803590602001918460018302840111640100000000831117156102c557600080fd5b91908080601f016020809104026020016040519081016040528093929190818152602001838380828437600092019190915250929550610599945050505050565b34801561031257600080fd5b506101426106d9565b610323610704565b61033361032e610764565b610789565b565b61033d6107ad565b6001600160a01b0316336001600160a01b031614156103645761035f816107d2565b61036c565b61036c61031b565b50565b6103776107ad565b6001600160a01b0316336001600160a01b0316141561040f57610399836107d2565b6000836001600160a01b031683836040518083838082843760405192019450600093509091505080830381855af49150503d80600081146103f6576040519150601f19603f3d011682016040523d82523d6000602084013e6103fb565b606091505b505090508061040957600080fd5b50610417565b61041761031b565b505050565b60006104266107ad565b6001600160a01b0316336001600160a01b0316141561044e57610447610764565b9050610456565b61045661031b565b90565b6104616107ad565b6001600160a01b0316336001600160a01b03161415610364576001600160a01b0381166104bf5760405162461bcd60e51b81526004018080602001828103825260368152602001806108d76036913960400191505060405180910390fd5b7f7e644d79422f17c01e4894b5f4f588d331ebfa28653d42ae832dc59e38c9798f6104e86107ad565b604080516001600160a01b03928316815291841660208301528051918290030190a161035f81610812565b600061051d610764565b6001600160a01b03161461053057600080fd5b61053a8382610599565b604080517232b4b8189c9b1b97383937bc3c9730b236b4b760691b815290519081900360130190207fb53127684a568b3173ae13b9f8a6016e243e63b6e8ee1178d6a717850b5d61036000199091011461059057fe5b61041782610812565b60006105a3610764565b6001600160a01b0316146105b657600080fd5b604080517f656970313936372e70726f78792e696d706c656d656e746174696f6e000000008152905190819003601c0190207f360894a13ba1a3210667c828492db98dca3e2076cc3735a920a3ca505d382bbc6000199091011461061657fe5b61061f82610836565b8051156106d5576000826001600160a01b0316826040518082805190602001908083835b602083106106625780518252601f199092019160209182019101610643565b6001836020036101000a038019825116818451168082178552505050505050905001915050600060405180830381855af49150503d80600081146106c2576040519150601f19603f3d011682016040523d82523d6000602084013e6106c7565b606091505b505090508061041757600080fd5b5050565b60006106e36107ad565b6001600160a01b0316336001600160a01b0316141561044e576104476107ad565b61070c6107ad565b6001600160a01b0316336001600160a01b0316141561075c5760405162461bcd60e51b81526004018080602001828103825260328152602001806108a56032913960400191505060405180910390fd5b610333610333565b7f360894a13ba1a3210667c828492db98dca3e2076cc3735a920a3ca505d382bbc5490565b3660008037600080366000845af43d6000803e8080156107a8573d6000f35b3d6000fd5b7fb53127684a568b3173ae13b9f8a6016e243e63b6e8ee1178d6a717850b5d61035490565b6107db81610836565b6040516001600160a01b038216907fbc7cd75a20ee27fd9adebab32041f755214dbc6bffa90cc0225b39da2e5c2d3b90600090a250565b7fb53127684a568b3173ae13b9f8a6016e243e63b6e8ee1178d6a717850b5d610355565b61083f8161089e565b61087a5760405162461bcd60e51b815260040180806020018281038252603b81526020018061090d603b913960400191505060405180910390fd5b7f360894a13ba1a3210667c828492db98dca3e2076cc3735a920a3ca505d382bbc55565b3b15159056fe43616e6e6f742063616c6c2066616c6c6261636b2066756e6374696f6e2066726f6d207468652070726f78792061646d696e43616e6e6f74206368616e6765207468652061646d696e206f6620612070726f787920746f20746865207a65726f206164647265737343616e6e6f742073657420612070726f787920696d706c656d656e746174696f6e20746f2061206e6f6e2d636f6e74726163742061646472657373a265627a7a72315820a53bb2584c9073f7ecc3d4a6e3292ef189975b57656e829be05cb149b847f24764736f6c634300051000324f776e61626c653a206e6577206f776e657220697320746865207a65726f20616464726573734f776e61626c653a2063616c6c6572206973206e6f7420746865206f776e6572a265627a7a7231582013a644a92ce788b9d7ab4b1d5fd74dcb9162fd6ecd81089c8614a85c3607775e64736f6c63430005100032",
			"opcodes": "PUSH1 0x80 PUSH1 0x40 MSTORE PUSH1 0x0 PUSH2 0x17 PUSH1 0x1 PUSH1 0x1 PUSH1 0xE0 SHL SUB PUSH2 0x66 AND JUMP JUMPDEST PUSH1 0x0 DUP1 SLOAD PUSH1 0x1 PUSH1 0x1 PUSH1 0xA0 SHL SUB NOT AND PUSH1 0x1 PUSH1 0x1 PUSH1 0xA0 SHL SUB DUP4 AND SWAP1 DUP2 OR DUP3 SSTORE PUSH1 0x40 MLOAD SWAP3 SWAP4 POP SWAP2 PUSH32 0x8BE0079C531659141344CD1FD0A4F28419497F9722A3DAAFE3B4186F6B6457E0 SWAP1 DUP3 SWAP1 LOG3 POP PUSH2 0x6A JUMP JUMPDEST CALLER SWAP1 JUMP JUMPDEST PUSH2 0x1F11 DUP1 PUSH2 0x79 PUSH1 0x0 CODECOPY PUSH1 0x0 RETURN INVALID PUSH1 0x80 PUSH1 0x40 MSTORE CALLVALUE DUP1 ISZERO PUSH2 0x10 JUMPI PUSH1 0x0 DUP1 REVERT JUMPDEST POP PUSH1 0x4 CALLDATASIZE LT PUSH2 0x211 JUMPI PUSH1 0x0 CALLDATALOAD PUSH1 0xE0 SHR DUP1 PUSH4 0x5AEF021F GT PUSH2 0x125 JUMPI DUP1 PUSH4 0xA5EFACE2 GT PUSH2 0xAD JUMPI DUP1 PUSH4 0xED6FF760 GT PUSH2 0x7C JUMPI DUP1 PUSH4 0xED6FF760 EQ PUSH2 0x50F JUMPI DUP1 PUSH4 0xEE891296 EQ PUSH2 0x517 JUMPI DUP1 PUSH4 0xF2FDE38B EQ PUSH2 0x51F JUMPI DUP1 PUSH4 0xFBEEFC3C EQ PUSH2 0x545 JUMPI DUP1 PUSH4 0xFCA513A8 EQ PUSH2 0x54D JUMPI PUSH2 0x211 JUMP JUMPDEST DUP1 PUSH4 0xA5EFACE2 EQ PUSH2 0x477 JUMPI DUP1 PUSH4 0xBFEDC103 EQ PUSH2 0x49D JUMPI DUP1 PUSH4 0xC12542DF EQ PUSH2 0x4C3 JUMPI DUP1 PUSH4 0xC5B3F337 EQ PUSH2 0x4E9 JUMPI PUSH2 0x211 JUMP JUMPDEST DUP1 PUSH4 0x841AA40C GT PUSH2 0xF4 JUMPI DUP1 PUSH4 0x841AA40C EQ PUSH2 0x43B JUMPI DUP1 PUSH4 0x85C858B1 EQ PUSH2 0x443 JUMPI DUP1 PUSH4 0x89AE2AD8 EQ PUSH2 0x44B JUMPI DUP1 PUSH4 0x8DA5CB5B EQ PUSH2 0x453 JUMPI DUP1 PUSH4 0x8F32D59B EQ PUSH2 0x45B JUMPI PUSH2 0x211 JUMP JUMPDEST DUP1 PUSH4 0x5AEF021F EQ PUSH2 0x3C1 JUMPI DUP1 PUSH4 0x715018A6 EQ PUSH2 0x3E7 JUMPI DUP1 PUSH4 0x723130AC EQ PUSH2 0x3EF JUMPI DUP1 PUSH4 0x820D1274 EQ PUSH2 0x415 JUMPI PUSH2 0x211 JUMP JUMPDEST DUP1 PUSH4 0x33128D59 GT PUSH2 0x1A8 JUMPI DUP1 PUSH4 0x44CE375B GT PUSH2 0x177 JUMPI DUP1 PUSH4 0x44CE375B EQ PUSH2 0x35D JUMPI DUP1 PUSH4 0x4CCCD180 EQ PUSH2 0x383 JUMPI DUP1 PUSH4 0x530E784F EQ PUSH2 0x38B JUMPI DUP1 PUSH4 0x5834EB9A EQ PUSH2 0x3B1 JUMPI DUP1 PUSH4 0x59E6130C EQ PUSH2 0x3B9 JUMPI PUSH2 0x211 JUMP JUMPDEST DUP1 PUSH4 0x33128D59 EQ PUSH2 0x301 JUMPI DUP1 PUSH4 0x3618ABBA EQ PUSH2 0x309 JUMPI DUP1 PUSH4 0x38280E6B EQ PUSH2 0x311 JUMPI DUP1 PUSH4 0x40FDCADC EQ PUSH2 0x337 JUMPI PUSH2 0x211 JUMP JUMPDEST DUP1 PUSH4 0x1E8DF2A2 GT PUSH2 0x1E4 JUMPI DUP1 PUSH4 0x1E8DF2A2 EQ PUSH2 0x290 JUMPI DUP1 PUSH4 0x21F8A721 EQ PUSH2 0x2B6 JUMPI DUP1 PUSH4 0x2A62C636 EQ PUSH2 0x2D3 JUMPI DUP1 PUSH4 0x2F58B80D EQ PUSH2 0x2F9 JUMPI PUSH2 0x211 JUMP JUMPDEST DUP1 PUSH4 0x1C671C1 EQ PUSH2 0x216 JUMPI DUP1 PUSH4 0x261BF8B EQ PUSH2 0x23E JUMPI DUP1 PUSH4 0x4061D8E EQ PUSH2 0x262 JUMPI DUP1 PUSH4 0x1C827204 EQ PUSH2 0x26A JUMPI JUMPDEST PUSH1 0x0 DUP1 REVERT JUMPDEST PUSH2 0x23C PUSH1 0x4 DUP1 CALLDATASIZE SUB PUSH1 0x20 DUP2 LT ISZERO PUSH2 0x22C JUMPI PUSH1 0x0 DUP1 REVERT JUMPDEST POP CALLDATALOAD PUSH1 0x1 PUSH1 0x1 PUSH1 0xA0 SHL SUB AND PUSH2 0x555 JUMP JUMPDEST STOP JUMPDEST PUSH2 0x246 PUSH2 0x5F9 JUMP JUMPDEST PUSH1 0x40 DUP1 MLOAD PUSH1 0x1 PUSH1 0x1 PUSH1 0xA0 SHL SUB SWAP1 SWAP3 AND DUP3 MSTORE MLOAD SWAP1 DUP2 SWAP1 SUB PUSH1 0x20 ADD SWAP1 RETURN JUMPDEST PUSH2 0x246 PUSH2 0x618 JUMP JUMPDEST PUSH2 0x23C PUSH1 0x4 DUP1 CALLDATASIZE SUB PUSH1 0x20 DUP2 LT ISZERO PUSH2 0x280 JUMPI PUSH1 0x0 DUP1 REVERT JUMPDEST POP CALLDATALOAD PUSH1 0x1 PUSH1 0x1 PUSH1 0xA0 SHL SUB AND PUSH2 0x639 JUMP JUMPDEST PUSH2 0x23C PUSH1 0x4 DUP1 CALLDATASIZE SUB PUSH1 0x20 DUP2 LT ISZERO PUSH2 0x2A6 JUMPI PUSH1 0x0 DUP1 REVERT JUMPDEST POP CALLDATALOAD PUSH1 0x1 PUSH1 0x1 PUSH1 0xA0 SHL SUB AND PUSH2 0x6D5 JUMP JUMPDEST PUSH2 0x246 PUSH1 0x4 DUP1 CALLDATASIZE SUB PUSH1 0x20 DUP2 LT ISZERO PUSH2 0x2CC JUMPI PUSH1 0x0 DUP1 REVERT JUMPDEST POP CALLDATALOAD PUSH2 0x779 JUMP JUMPDEST PUSH2 0x23C PUSH1 0x4 DUP1 CALLDATASIZE SUB PUSH1 0x20 DUP2 LT ISZERO PUSH2 0x2E9 JUMPI PUSH1 0x0 DUP1 REVERT JUMPDEST POP CALLDATALOAD PUSH1 0x1 PUSH1 0x1 PUSH1 0xA0 SHL SUB AND PUSH2 0x794 JUMP JUMPDEST PUSH2 0x246 PUSH2 0x82B JUMP JUMPDEST PUSH2 0x246 PUSH2 0x846 JUMP JUMPDEST PUSH2 0x246 PUSH2 0x868 JUMP JUMPDEST PUSH2 0x23C PUSH1 0x4 DUP1 CALLDATASIZE SUB PUSH1 0x20 DUP2 LT ISZERO PUSH2 0x327 JUMPI PUSH1 0x0 DUP1 REVERT JUMPDEST POP CALLDATALOAD PUSH1 0x1 PUSH1 0x1 PUSH1 0xA0 SHL SUB AND PUSH2 0x889 JUMP JUMPDEST PUSH2 0x23C PUSH1 0x4 DUP1 CALLDATASIZE SUB PUSH1 0x20 DUP2 LT ISZERO PUSH2 0x34D JUMPI PUSH1 0x0 DUP1 REVERT JUMPDEST POP CALLDATALOAD PUSH1 0x1 PUSH1 0x1 PUSH1 0xA0 SHL SUB AND PUSH2 0x925 JUMP JUMPDEST PUSH2 0x23C PUSH1 0x4 DUP1 CALLDATASIZE SUB PUSH1 0x20 DUP2 LT ISZERO PUSH2 0x373 JUMPI PUSH1 0x0 DUP1 REVERT JUMPDEST POP CALLDATALOAD PUSH1 0x1 PUSH1 0x1 PUSH1 0xA0 SHL SUB AND PUSH2 0x9C4 JUMP JUMPDEST PUSH2 0x246 PUSH2 0xA62 JUMP JUMPDEST PUSH2 0x23C PUSH1 0x4 DUP1 CALLDATASIZE SUB PUSH1 0x20 DUP2 LT ISZERO PUSH2 0x3A1 JUMPI PUSH1 0x0 DUP1 REVERT JUMPDEST POP CALLDATALOAD PUSH1 0x1 PUSH1 0x1 PUSH1 0xA0 SHL SUB AND PUSH2 0xA89 JUMP JUMPDEST PUSH2 0x246 PUSH2 0xB20 JUMP JUMPDEST PUSH2 0x246 PUSH2 0xB41 JUMP JUMPDEST PUSH2 0x23C PUSH1 0x4 DUP1 CALLDATASIZE SUB PUSH1 0x20 DUP2 LT ISZERO PUSH2 0x3D7 JUMPI PUSH1 0x0 DUP1 REVERT JUMPDEST POP CALLDATALOAD PUSH1 0x1 PUSH1 0x1 PUSH1 0xA0 SHL SUB AND PUSH2 0xB5C JUMP JUMPDEST PUSH2 0x23C PUSH2 0xBF3 JUMP JUMPDEST PUSH2 0x23C PUSH1 0x4 DUP1 CALLDATASIZE SUB PUSH1 0x20 DUP2 LT ISZERO PUSH2 0x405 JUMPI PUSH1 0x0 DUP1 REVERT JUMPDEST POP CALLDATALOAD PUSH1 0x1 PUSH1 0x1 PUSH1 0xA0 SHL SUB AND PUSH2 0xC84 JUMP JUMPDEST PUSH2 0x23C PUSH1 0x4 DUP1 CALLDATASIZE SUB PUSH1 0x20 DUP2 LT ISZERO PUSH2 0x42B JUMPI PUSH1 0x0 DUP1 REVERT JUMPDEST POP CALLDATALOAD PUSH1 0x1 PUSH1 0x1 PUSH1 0xA0 SHL SUB AND PUSH2 0xD13 JUMP JUMPDEST PUSH2 0x246 PUSH2 0xDB1 JUMP JUMPDEST PUSH2 0x246 PUSH2 0xDC3 JUMP JUMPDEST PUSH2 0x246 PUSH2 0xDEA JUMP JUMPDEST PUSH2 0x246 PUSH2 0xE11 JUMP JUMPDEST PUSH2 0x463 PUSH2 0xE20 JUMP JUMPDEST PUSH1 0x40 DUP1 MLOAD SWAP2 ISZERO ISZERO DUP3 MSTORE MLOAD SWAP1 DUP2 SWAP1 SUB PUSH1 0x20 ADD SWAP1 RETURN JUMPDEST PUSH2 0x23C PUSH1 0x4 DUP1 CALLDATASIZE SUB PUSH1 0x20 DUP2 LT ISZERO PUSH2 0x48D JUMPI PUSH1 0x0 DUP1 REVERT JUMPDEST POP CALLDATALOAD PUSH1 0x1 PUSH1 0x1 PUSH1 0xA0 SHL SUB AND PUSH2 0xE44 JUMP JUMPDEST PUSH2 0x23C PUSH1 0x4 DUP1 CALLDATASIZE SUB PUSH1 0x20 DUP2 LT ISZERO PUSH2 0x4B3 JUMPI PUSH1 0x0 DUP1 REVERT JUMPDEST POP CALLDATALOAD PUSH1 0x1 PUSH1 0x1 PUSH1 0xA0 SHL SUB AND PUSH2 0xEE2 JUMP JUMPDEST PUSH2 0x23C PUSH1 0x4 DUP1 CALLDATASIZE SUB PUSH1 0x20 DUP2 LT ISZERO PUSH2 0x4D9 JUMPI PUSH1 0x0 DUP1 REVERT JUMPDEST POP CALLDATALOAD PUSH1 0x1 PUSH1 0x1 PUSH1 0xA0 SHL SUB AND PUSH2 0xF7A JUMP JUMPDEST PUSH2 0x23C PUSH1 0x4 DUP1 CALLDATASIZE SUB PUSH1 0x20 DUP2 LT ISZERO PUSH2 0x4FF JUMPI PUSH1 0x0 DUP1 REVERT JUMPDEST POP CALLDATALOAD PUSH1 0x1 PUSH1 0x1 PUSH1 0xA0 SHL SUB AND PUSH2 0x101E JUMP JUMPDEST PUSH2 0x246 PUSH2 0x10B6 JUMP JUMPDEST PUSH2 0x246 PUSH2 0x10DC JUMP JUMPDEST PUSH2 0x23C PUSH1 0x4 DUP1 CALLDATASIZE SUB PUSH1 0x20 DUP2 LT ISZERO PUSH2 0x535 JUMPI PUSH1 0x0 DUP1 REVERT JUMPDEST POP CALLDATALOAD PUSH1 0x1 PUSH1 0x1 PUSH1 0xA0 SHL SUB AND PUSH2 0x10FB JUMP JUMPDEST PUSH2 0x246 PUSH2 0x114E JUMP JUMPDEST PUSH2 0x246 PUSH2 0x1168 JUMP JUMPDEST PUSH2 0x55D PUSH2 0xE20 JUMP JUMPDEST PUSH2 0x59C JUMPI PUSH1 0x40 DUP1 MLOAD PUSH3 0x461BCD PUSH1 0xE5 SHL DUP2 MSTORE PUSH1 0x20 PUSH1 0x4 DUP3 ADD DUP2 SWAP1 MSTORE PUSH1 0x24 DUP3 ADD MSTORE PUSH1 0x0 DUP1 MLOAD PUSH1 0x20 PUSH2 0x1EBD DUP4 CODECOPY DUP2 MLOAD SWAP2 MSTORE PUSH1 0x44 DUP3 ADD MSTORE SWAP1 MLOAD SWAP1 DUP2 SWAP1 SUB PUSH1 0x64 ADD SWAP1 REVERT JUMPDEST PUSH2 0x5C2 PUSH25 0x29A4A3A42FA224A9AA2924A12AAA24A7A72FA420A7222622A9 PUSH1 0x39 SHL DUP3 PUSH2 0x1182 JUMP JUMPDEST PUSH1 0x40 MLOAD PUSH1 0x1 PUSH1 0x1 PUSH1 0xA0 SHL SUB DUP3 AND SWAP1 PUSH32 0x7220AFEE79A4971968B197531ADA7F95D66B3B47E4C5EAC1FF762D9D09D96EA0 SWAP1 PUSH1 0x0 SWAP1 LOG2 POP JUMP JUMPDEST PUSH1 0x0 PUSH2 0x613 PUSH12 0x13115391125391D7D413D3D3 PUSH1 0xA2 SHL PUSH2 0x779 JUMP JUMPDEST SWAP1 POP SWAP1 JUMP JUMPDEST PUSH1 0x0 PUSH2 0x613 PUSH19 0x2820A920A6A2AA22A929AFA82927AB24A222A9 PUSH1 0x69 SHL PUSH2 0x779 JUMP JUMPDEST PUSH2 0x641 PUSH2 0xE20 JUMP JUMPDEST PUSH2 0x680 JUMPI PUSH1 0x40 DUP1 MLOAD PUSH3 0x461BCD PUSH1 0xE5 SHL DUP2 MSTORE PUSH1 0x20 PUSH1 0x4 DUP3 ADD DUP2 SWAP1 MSTORE PUSH1 0x24 DUP3 ADD MSTORE PUSH1 0x0 DUP1 MLOAD PUSH1 0x20 PUSH2 0x1EBD DUP4 CODECOPY DUP2 MLOAD SWAP2 MSTORE PUSH1 0x44 DUP3 ADD MSTORE SWAP1 MLOAD SWAP1 DUP2 SWAP1 SUB PUSH1 0x64 ADD SWAP1 REVERT JUMPDEST PUSH2 0x69E PUSH17 0x4C454E44494E475F504F4F4C5F434F5245 PUSH1 0x78 SHL DUP3 PUSH2 0x1182 JUMP JUMPDEST PUSH1 0x40 MLOAD PUSH1 0x1 PUSH1 0x1 PUSH1 0xA0 SHL SUB DUP3 AND SWAP1 PUSH32 0x71C226BB2879778CA1298196BF7CC1256BAEE9D05B496C31EE627D35A471B5B7 SWAP1 PUSH1 0x0 SWAP1 LOG2 POP JUMP JUMPDEST PUSH2 0x6DD PUSH2 0xE20 JUMP JUMPDEST PUSH2 0x71C JUMPI PUSH1 0x40 DUP1 MLOAD PUSH3 0x461BCD PUSH1 0xE5 SHL DUP2 MSTORE PUSH1 0x20 PUSH1 0x4 DUP3 ADD DUP2 SWAP1 MSTORE PUSH1 0x24 DUP3 ADD MSTORE PUSH1 0x0 DUP1 MLOAD PUSH1 0x20 PUSH2 0x1EBD DUP4 CODECOPY DUP2 MLOAD SWAP2 MSTORE PUSH1 0x44 DUP3 ADD MSTORE SWAP1 MLOAD SWAP1 DUP2 SWAP1 SUB PUSH1 0x64 ADD SWAP1 REVERT JUMPDEST PUSH2 0x742 PUSH25 0x29A4A3A42FA224A9AA2924A12AAA24A7A72FA6A0A720A3A2A9 PUSH1 0x39 SHL DUP3 PUSH2 0x141B JUMP JUMPDEST PUSH1 0x40 MLOAD PUSH1 0x1 PUSH1 0x1 PUSH1 0xA0 SHL SUB DUP3 AND SWAP1 PUSH32 0x2F152B7BDCD616DD7130F20531678B684C8587E235FFADDC086A46D3D76E06BD SWAP1 PUSH1 0x0 SWAP1 LOG2 POP JUMP JUMPDEST PUSH1 0x0 SWAP1 DUP2 MSTORE PUSH1 0x1 PUSH1 0x20 MSTORE PUSH1 0x40 SWAP1 KECCAK256 SLOAD PUSH1 0x1 PUSH1 0x1 PUSH1 0xA0 SHL SUB AND SWAP1 JUMP JUMPDEST PUSH2 0x79C PUSH2 0xE20 JUMP JUMPDEST PUSH2 0x7DB JUMPI PUSH1 0x40 DUP1 MLOAD PUSH3 0x461BCD PUSH1 0xE5 SHL DUP2 MSTORE PUSH1 0x20 PUSH1 0x4 DUP3 ADD DUP2 SWAP1 MSTORE PUSH1 0x24 DUP3 ADD MSTORE PUSH1 0x0 DUP1 MLOAD PUSH1 0x20 PUSH2 0x1EBD DUP4 CODECOPY DUP2 MLOAD SWAP2 MSTORE PUSH1 0x44 DUP3 ADD MSTORE SWAP1 MLOAD SWAP1 DUP2 SWAP1 SUB PUSH1 0x64 ADD SWAP1 REVERT JUMPDEST PUSH2 0x7F4 PUSH12 0x2322A2AFA82927AB24A222A9 PUSH1 0xA1 SHL DUP3 PUSH2 0x1182 JUMP JUMPDEST PUSH1 0x40 MLOAD PUSH1 0x1 PUSH1 0x1 PUSH1 0xA0 SHL SUB DUP3 AND SWAP1 PUSH32 0x18E1A55B8EFF9C93921EECFA1462D6A8CBB80B3988DB3EB14C039E43FDB22661 SWAP1 PUSH1 0x0 SWAP1 LOG2 POP JUMP JUMPDEST PUSH1 0x0 PUSH2 0x613 PUSH13 0x2220AA20AFA82927AB24A222A9 PUSH1 0x99 SHL PUSH2 0x779 JUMP JUMPDEST PUSH1 0x0 PUSH2 0x613 PUSH20 0x2622A72224A723AFA827A7A62FA6A0A720A3A2A9 PUSH1 0x61 SHL PUSH2 0x779 JUMP JUMPDEST PUSH1 0x0 PUSH2 0x613 PUSH19 0x4C454E44494E475F524154455F4F5241434C45 PUSH1 0x68 SHL PUSH2 0x779 JUMP JUMPDEST PUSH2 0x891 PUSH2 0xE20 JUMP JUMPDEST PUSH2 0x8D0 JUMPI PUSH1 0x40 DUP1 MLOAD PUSH3 0x461BCD PUSH1 0xE5 SHL DUP2 MSTORE PUSH1 0x20 PUSH1 0x4 DUP3 ADD DUP2 SWAP1 MSTORE PUSH1 0x24 DUP3 ADD MSTORE PUSH1 0x0 DUP1 MLOAD PUSH1 0x20 PUSH2 0x1EBD DUP4 CODECOPY DUP2 MLOAD SWAP2 MSTORE PUSH1 0x44 DUP3 ADD MSTORE SWAP1 MLOAD SWAP1 DUP2 SWAP1 SUB PUSH1 0x64 ADD SWAP1 REVERT JUMPDEST PUSH2 0x8EE PUSH17 0x2A27A5A2A72FA224A9AA2924A12AAA27A9 PUSH1 0x79 SHL DUP3 PUSH2 0x141B JUMP JUMPDEST PUSH1 0x40 MLOAD PUSH1 0x1 PUSH1 0x1 PUSH1 0xA0 SHL SUB DUP3 AND SWAP1 PUSH32 0xA8B48A56EC01F81C3615A21EC43E16B925C26293E0801CF6330427F2A687F053 SWAP1 PUSH1 0x0 SWAP1 LOG2 POP JUMP JUMPDEST PUSH2 0x92D PUSH2 0xE20 JUMP JUMPDEST PUSH2 0x96C JUMPI PUSH1 0x40 DUP1 MLOAD PUSH3 0x461BCD PUSH1 0xE5 SHL DUP2 MSTORE PUSH1 0x20 PUSH1 0x4 DUP3 ADD DUP2 SWAP1 MSTORE PUSH1 0x24 DUP3 ADD MSTORE PUSH1 0x0 DUP1 MLOAD PUSH1 0x20 PUSH2 0x1EBD DUP4 CODECOPY DUP2 MLOAD SWAP2 MSTORE PUSH1 0x44 DUP3 ADD MSTORE SWAP1 MLOAD SWAP1 DUP2 SWAP1 SUB PUSH1 0x64 ADD SWAP1 REVERT JUMPDEST PUSH2 0x98D PUSH20 0x2622A72224A723AFA827A7A62FA6A0A720A3A2A9 PUSH1 0x61 SHL DUP3 PUSH2 0x141B JUMP JUMPDEST PUSH1 0x40 MLOAD PUSH1 0x1 PUSH1 0x1 PUSH1 0xA0 SHL SUB DUP3 AND SWAP1 PUSH32 0xD5280C51185A38D36F7A0F5E56CAC6248312BB70D0974782FA5A595127E0E08E SWAP1 PUSH1 0x0 SWAP1 LOG2 POP JUMP JUMPDEST PUSH2 0x9CC PUSH2 0xE20 JUMP JUMPDEST PUSH2 0xA0B JUMPI PUSH1 0x40 DUP1 MLOAD PUSH3 0x461BCD PUSH1 0xE5 SHL DUP2 MSTORE PUSH1 0x20 PUSH1 0x4 DUP3 ADD DUP2 SWAP1 MSTORE PUSH1 0x24 DUP3 ADD MSTORE PUSH1 0x0 DUP1 MLOAD PUSH1 0x20 PUSH2 0x1EBD DUP4 CODECOPY DUP2 MLOAD SWAP2 MSTORE PUSH1 0x44 DUP3 ADD MSTORE SWAP1 MLOAD SWAP1 DUP2 SWAP1 SUB PUSH1 0x64 ADD SWAP1 REVERT JUMPDEST PUSH2 0xA2B PUSH19 0x2624A8AAA4A220AA24A7A72FA6A0A720A3A2A9 PUSH1 0x69 SHL DUP3 PUSH2 0x141B JUMP JUMPDEST PUSH1 0x40 MLOAD PUSH1 0x1 PUSH1 0x1 PUSH1 0xA0 SHL SUB DUP3 AND SWAP1 PUSH32 0x1A76CB769B814BC038223DA86932B099B20AAE03473683E6D98F5C3554E26064 SWAP1 PUSH1 0x0 SWAP1 LOG2 POP JUMP JUMPDEST PUSH1 0x0 PUSH2 0x613 PUSH25 0x29A4A3A42FA224A9AA2924A12AAA24A7A72FA6A0A720A3A2A9 PUSH1 0x39 SHL PUSH2 0x779 JUMP JUMPDEST PUSH2 0xA91 PUSH2 0xE20 JUMP JUMPDEST PUSH2 0xAD0 JUMPI PUSH1 0x40 DUP1 MLOAD PUSH3 0x461BCD PUSH1 0xE5 SHL DUP2 MSTORE PUSH1 0x20 PUSH1 0x4 DUP3 ADD DUP2 SWAP1 MSTORE PUSH1 0x24 DUP3 ADD MSTORE PUSH1 0x0 DUP1 MLOAD PUSH1 0x20 PUSH2 0x1EBD DUP4 CODECOPY DUP2 MLOAD SWAP2 MSTORE PUSH1 0x44 DUP3 ADD MSTORE SWAP1 MLOAD SWAP1 DUP2 SWAP1 SUB PUSH1 0x64 ADD SWAP1 REVERT JUMPDEST PUSH2 0xAE9 PUSH12 0x50524943455F4F5241434C45 PUSH1 0xA0 SHL DUP3 PUSH2 0x141B JUMP JUMPDEST PUSH1 0x40 MLOAD PUSH1 0x1 PUSH1 0x1 PUSH1 0xA0 SHL SUB DUP3 AND SWAP1 PUSH32 0xEFE8AB924CA486283A79DC604BAA67ADD51AFB82AF1DB8AC386EBBBA643CDFFD SWAP1 PUSH1 0x0 SWAP1 LOG2 POP JUMP JUMPDEST PUSH1 0x0 PUSH2 0x613 PUSH19 0x2624A8AAA4A220AA24A7A72FA6A0A720A3A2A9 PUSH1 0x69 SHL PUSH2 0x779 JUMP JUMPDEST PUSH1 0x0 PUSH2 0x613 PUSH13 0x534947485F5452454153555259 PUSH1 0x98 SHL PUSH2 0x779 JUMP JUMPDEST PUSH2 0xB64 PUSH2 0xE20 JUMP JUMPDEST PUSH2 0xBA3 JUMPI PUSH1 0x40 DUP1 MLOAD PUSH3 0x461BCD PUSH1 0xE5 SHL DUP2 MSTORE PUSH1 0x20 PUSH1 0x4 DUP3 ADD DUP2 SWAP1 MSTORE PUSH1 0x24 DUP3 ADD MSTORE PUSH1 0x0 DUP1 MLOAD PUSH1 0x20 PUSH2 0x1EBD DUP4 CODECOPY DUP2 MLOAD SWAP2 MSTORE PUSH1 0x44 DUP3 ADD MSTORE SWAP1 MLOAD SWAP1 DUP2 SWAP1 SUB PUSH1 0x64 ADD SWAP1 REVERT JUMPDEST PUSH2 0xBBC PUSH12 0x13115391125391D7D413D3D3 PUSH1 0xA2 SHL DUP3 PUSH2 0x1182 JUMP JUMPDEST PUSH1 0x40 MLOAD PUSH1 0x1 PUSH1 0x1 PUSH1 0xA0 SHL SUB DUP3 AND SWAP1 PUSH32 0xC4E6C6CDF28D0EDBD8BCF071D724D33CC2E7A30BE7D06443925656E9CB492AA4 SWAP1 PUSH1 0x0 SWAP1 LOG2 POP JUMP JUMPDEST PUSH2 0xBFB PUSH2 0xE20 JUMP JUMPDEST PUSH2 0xC3A JUMPI PUSH1 0x40 DUP1 MLOAD PUSH3 0x461BCD PUSH1 0xE5 SHL DUP2 MSTORE PUSH1 0x20 PUSH1 0x4 DUP3 ADD DUP2 SWAP1 MSTORE PUSH1 0x24 DUP3 ADD MSTORE PUSH1 0x0 DUP1 MLOAD PUSH1 0x20 PUSH2 0x1EBD DUP4 CODECOPY DUP2 MLOAD SWAP2 MSTORE PUSH1 0x44 DUP3 ADD MSTORE SWAP1 MLOAD SWAP1 DUP2 SWAP1 SUB PUSH1 0x64 ADD SWAP1 REVERT JUMPDEST PUSH1 0x0 DUP1 SLOAD PUSH1 0x40 MLOAD PUSH1 0x1 PUSH1 0x1 PUSH1 0xA0 SHL SUB SWAP1 SWAP2 AND SWAP1 PUSH32 0x8BE0079C531659141344CD1FD0A4F28419497F9722A3DAAFE3B4186F6B6457E0 SWAP1 DUP4 SWAP1 LOG3 PUSH1 0x0 DUP1 SLOAD PUSH1 0x1 PUSH1 0x1 PUSH1 0xA0 SHL SUB NOT AND SWAP1 SSTORE JUMP JUMPDEST PUSH2 0xC8C PUSH2 0xE20 JUMP JUMPDEST PUSH2 0xCCB JUMPI PUSH1 0x40 DUP1 MLOAD PUSH3 0x461BCD PUSH1 0xE5 SHL DUP2 MSTORE PUSH1 0x20 PUSH1 0x4 DUP3 ADD DUP2 SWAP1 MSTORE PUSH1 0x24 DUP3 ADD MSTORE PUSH1 0x0 DUP1 MLOAD PUSH1 0x20 PUSH2 0x1EBD DUP4 CODECOPY DUP2 MLOAD SWAP2 MSTORE PUSH1 0x44 DUP3 ADD MSTORE SWAP1 MLOAD SWAP1 DUP2 SWAP1 SUB PUSH1 0x64 ADD SWAP1 REVERT JUMPDEST PUSH2 0xCDC PUSH4 0xA6928E9 PUSH1 0xE3 SHL DUP3 PUSH2 0x141B JUMP JUMPDEST PUSH1 0x40 MLOAD PUSH1 0x1 PUSH1 0x1 PUSH1 0xA0 SHL SUB DUP3 AND SWAP1 PUSH32 0x381506510C1E0C6490721A2B661B0150F544E59C97FF556D7668D894B414EC7D SWAP1 PUSH1 0x0 SWAP1 LOG2 POP JUMP JUMPDEST PUSH2 0xD1B PUSH2 0xE20 JUMP JUMPDEST PUSH2 0xD5A JUMPI PUSH1 0x40 DUP1 MLOAD PUSH3 0x461BCD PUSH1 0xE5 SHL DUP2 MSTORE PUSH1 0x20 PUSH1 0x4 DUP3 ADD DUP2 SWAP1 MSTORE PUSH1 0x24 DUP3 ADD MSTORE PUSH1 0x0 DUP1 MLOAD PUSH1 0x20 PUSH2 0x1EBD DUP4 CODECOPY DUP2 MLOAD SWAP2 MSTORE PUSH1 0x44 DUP3 ADD MSTORE SWAP1 MLOAD SWAP1 DUP2 SWAP1 SUB PUSH1 0x64 ADD SWAP1 REVERT JUMPDEST PUSH2 0xD7A PUSH19 0x4C454E44494E475F524154455F4F5241434C45 PUSH1 0x68 SHL DUP3 PUSH2 0x141B JUMP JUMPDEST PUSH1 0x40 MLOAD PUSH1 0x1 PUSH1 0x1 PUSH1 0xA0 SHL SUB DUP3 AND SWAP1 PUSH32 0x5C29179ABA6942020A8A2D38F65DE02FB6B7F784E7F049ED3A3CAB97621859B5 SWAP1 PUSH1 0x0 SWAP1 LOG2 POP JUMP JUMPDEST PUSH1 0x0 PUSH2 0x613 PUSH4 0xA6928E9 PUSH1 0xE3 SHL PUSH2 0x779 JUMP JUMPDEST PUSH1 0x0 PUSH2 0x613 PUSH25 0x2622A72224A723AFA827A7A62FA1A7A72324A3AAA920AA27A9 PUSH1 0x39 SHL PUSH2 0x779 JUMP JUMPDEST PUSH1 0x0 PUSH2 0x613 PUSH25 0x29A4A3A42FA224A9AA2924A12AAA24A7A72FA420A7222622A9 PUSH1 0x39 SHL PUSH2 0x779 JUMP JUMPDEST PUSH1 0x0 SLOAD PUSH1 0x1 PUSH1 0x1 PUSH1 0xA0 SHL SUB AND SWAP1 JUMP JUMPDEST PUSH1 0x0 DUP1 SLOAD PUSH1 0x1 PUSH1 0x1 PUSH1 0xA0 SHL SUB AND PUSH2 0xE35 PUSH2 0x1449 JUMP JUMPDEST PUSH1 0x1 PUSH1 0x1 PUSH1 0xA0 SHL SUB AND EQ SWAP1 POP SWAP1 JUMP JUMPDEST PUSH2 0xE4C PUSH2 0xE20 JUMP JUMPDEST PUSH2 0xE8B JUMPI PUSH1 0x40 DUP1 MLOAD PUSH3 0x461BCD PUSH1 0xE5 SHL DUP2 MSTORE PUSH1 0x20 PUSH1 0x4 DUP3 ADD DUP2 SWAP1 MSTORE PUSH1 0x24 DUP3 ADD MSTORE PUSH1 0x0 DUP1 MLOAD PUSH1 0x20 PUSH2 0x1EBD DUP4 CODECOPY DUP2 MLOAD SWAP2 MSTORE PUSH1 0x44 DUP3 ADD MSTORE SWAP1 MLOAD SWAP1 DUP2 SWAP1 SUB PUSH1 0x64 ADD SWAP1 REVERT JUMPDEST PUSH2 0xEAB PUSH19 0x2820A920A6A2AA22A929AFA82927AB24A222A9 PUSH1 0x69 SHL DUP3 PUSH2 0x1182 JUMP JUMPDEST PUSH1 0x40 MLOAD PUSH1 0x1 PUSH1 0x1 PUSH1 0xA0 SHL SUB DUP3 AND SWAP1 PUSH32 0xCE16EA9B2FD7CADDDD0F7359971028F50B5DDBA33DFAE1A9BDEA956FABB1E280 SWAP1 PUSH1 0x0 SWAP1 LOG2 POP JUMP JUMPDEST PUSH2 0xEEA PUSH2 0xE20 JUMP JUMPDEST PUSH2 0xF29 JUMPI PUSH1 0x40 DUP1 MLOAD PUSH3 0x461BCD PUSH1 0xE5 SHL DUP2 MSTORE PUSH1 0x20 PUSH1 0x4 DUP3 ADD DUP2 SWAP1 MSTORE PUSH1 0x24 DUP3 ADD MSTORE PUSH1 0x0 DUP1 MLOAD PUSH1 0x20 PUSH2 0x1EBD DUP4 CODECOPY DUP2 MLOAD SWAP2 MSTORE PUSH1 0x44 DUP3 ADD MSTORE SWAP1 MLOAD SWAP1 DUP2 SWAP1 SUB PUSH1 0x64 ADD SWAP1 REVERT JUMPDEST PUSH2 0xF43 PUSH13 0x2220AA20AFA82927AB24A222A9 PUSH1 0x99 SHL DUP3 PUSH2 0x1182 JUMP JUMPDEST PUSH1 0x40 MLOAD PUSH1 0x1 PUSH1 0x1 PUSH1 0xA0 SHL SUB DUP3 AND SWAP1 PUSH32 0x7890D7D10DB37434D76EE4F2928FB2DC66227C3B3391206ACED4F7BCB59CDB0 SWAP1 PUSH1 0x0 SWAP1 LOG2 POP JUMP JUMPDEST PUSH2 0xF82 PUSH2 0xE20 JUMP JUMPDEST PUSH2 0xFC1 JUMPI PUSH1 0x40 DUP1 MLOAD PUSH3 0x461BCD PUSH1 0xE5 SHL DUP2 MSTORE PUSH1 0x20 PUSH1 0x4 DUP3 ADD DUP2 SWAP1 MSTORE PUSH1 0x24 DUP3 ADD MSTORE PUSH1 0x0 DUP1 MLOAD PUSH1 0x20 PUSH2 0x1EBD DUP4 CODECOPY DUP2 MLOAD SWAP2 MSTORE PUSH1 0x44 DUP3 ADD MSTORE SWAP1 MLOAD SWAP1 DUP2 SWAP1 SUB PUSH1 0x64 ADD SWAP1 REVERT JUMPDEST PUSH2 0xFE7 PUSH25 0x2622A72224A723AFA827A7A62FA1A7A72324A3AAA920AA27A9 PUSH1 0x39 SHL DUP3 PUSH2 0x1182 JUMP JUMPDEST PUSH1 0x40 MLOAD PUSH1 0x1 PUSH1 0x1 PUSH1 0xA0 SHL SUB DUP3 AND SWAP1 PUSH32 0xDFABE479BAD36782FB1E77FBFDDD4E382671713527E4786CFC93A022AE763729 SWAP1 PUSH1 0x0 SWAP1 LOG2 POP JUMP JUMPDEST PUSH2 0x1026 PUSH2 0xE20 JUMP JUMPDEST PUSH2 0x1065 JUMPI PUSH1 0x40 DUP1 MLOAD PUSH3 0x461BCD PUSH1 0xE5 SHL DUP2 MSTORE PUSH1 0x20 PUSH1 0x4 DUP3 ADD DUP2 SWAP1 MSTORE PUSH1 0x24 DUP3 ADD MSTORE PUSH1 0x0 DUP1 MLOAD PUSH1 0x20 PUSH2 0x1EBD DUP4 CODECOPY DUP2 MLOAD SWAP2 MSTORE PUSH1 0x44 DUP3 ADD MSTORE SWAP1 MLOAD SWAP1 DUP2 SWAP1 SUB PUSH1 0x64 ADD SWAP1 REVERT JUMPDEST PUSH2 0x107F PUSH13 0x534947485F5452454153555259 PUSH1 0x98 SHL DUP3 PUSH2 0x1182 JUMP JUMPDEST PUSH1 0x40 MLOAD PUSH1 0x1 PUSH1 0x1 PUSH1 0xA0 SHL SUB DUP3 AND SWAP1 PUSH32 0x93FEC44C5ACD092620C14B28D06A2E524DDDBA15E76B62CF0EC97D81A4C6F0A0 SWAP1 PUSH1 0x0 SWAP1 LOG2 POP JUMP JUMPDEST PUSH1 0x0 DUP1 PUSH2 0x10D6 PUSH17 0x4C454E44494E475F504F4F4C5F434F5245 PUSH1 0x78 SHL PUSH2 0x779 JUMP JUMPDEST SWAP2 POP POP SWAP1 JUMP JUMPDEST PUSH1 0x0 PUSH2 0x613 PUSH17 0x2A27A5A2A72FA224A9AA2924A12AAA27A9 PUSH1 0x79 SHL PUSH2 0x779 JUMP JUMPDEST PUSH2 0x1103 PUSH2 0xE20 JUMP JUMPDEST PUSH2 0x1142 JUMPI PUSH1 0x40 DUP1 MLOAD PUSH3 0x461BCD PUSH1 0xE5 SHL DUP2 MSTORE PUSH1 0x20 PUSH1 0x4 DUP3 ADD DUP2 SWAP1 MSTORE PUSH1 0x24 DUP3 ADD MSTORE PUSH1 0x0 DUP1 MLOAD PUSH1 0x20 PUSH2 0x1EBD DUP4 CODECOPY DUP2 MLOAD SWAP2 MSTORE PUSH1 0x44 DUP3 ADD MSTORE SWAP1 MLOAD SWAP1 DUP2 SWAP1 SUB PUSH1 0x64 ADD SWAP1 REVERT JUMPDEST PUSH2 0x114B DUP2 PUSH2 0x144D JUMP JUMPDEST POP JUMP JUMPDEST PUSH1 0x0 PUSH2 0x613 PUSH12 0x2322A2AFA82927AB24A222A9 PUSH1 0xA1 SHL PUSH2 0x779 JUMP JUMPDEST PUSH1 0x0 PUSH2 0x613 PUSH12 0x50524943455F4F5241434C45 PUSH1 0xA0 SHL PUSH2 0x779 JUMP JUMPDEST PUSH1 0x0 PUSH2 0x118D DUP4 PUSH2 0x779 JUMP JUMPDEST PUSH1 0x40 DUP1 MLOAD ADDRESS PUSH1 0x24 DUP1 DUP4 ADD SWAP2 SWAP1 SWAP2 MSTORE DUP3 MLOAD DUP1 DUP4 SUB SWAP1 SWAP2 ADD DUP2 MSTORE PUSH1 0x44 SWAP1 SWAP2 ADD SWAP1 SWAP2 MSTORE PUSH1 0x20 DUP2 ADD DUP1 MLOAD PUSH1 0x1 PUSH1 0x1 PUSH1 0xE0 SHL SUB AND PUSH4 0x189ACDBD PUSH1 0xE3 SHL OR SWAP1 MSTORE SWAP1 SWAP2 POP DUP2 SWAP1 PUSH1 0x1 PUSH1 0x1 PUSH1 0xA0 SHL SUB DUP3 AND PUSH2 0x1347 JUMPI PUSH1 0x40 MLOAD PUSH2 0x11E6 SWAP1 PUSH2 0x14ED JUMP JUMPDEST PUSH1 0x40 MLOAD DUP1 SWAP2 SUB SWAP1 PUSH1 0x0 CREATE DUP1 ISZERO DUP1 ISZERO PUSH2 0x1202 JUMPI RETURNDATASIZE PUSH1 0x0 DUP1 RETURNDATACOPY RETURNDATASIZE PUSH1 0x0 REVERT JUMPDEST POP SWAP2 POP DUP2 PUSH1 0x1 PUSH1 0x1 PUSH1 0xA0 SHL SUB AND PUSH4 0xCF7A1D77 DUP6 ADDRESS DUP5 PUSH1 0x40 MLOAD DUP5 PUSH4 0xFFFFFFFF AND PUSH1 0xE0 SHL DUP2 MSTORE PUSH1 0x4 ADD DUP1 DUP5 PUSH1 0x1 PUSH1 0x1 PUSH1 0xA0 SHL SUB AND PUSH1 0x1 PUSH1 0x1 PUSH1 0xA0 SHL SUB AND DUP2 MSTORE PUSH1 0x20 ADD DUP4 PUSH1 0x1 PUSH1 0x1 PUSH1 0xA0 SHL SUB AND PUSH1 0x1 PUSH1 0x1 PUSH1 0xA0 SHL SUB AND DUP2 MSTORE PUSH1 0x20 ADD DUP1 PUSH1 0x20 ADD DUP3 DUP2 SUB DUP3 MSTORE DUP4 DUP2 DUP2 MLOAD DUP2 MSTORE PUSH1 0x20 ADD SWAP2 POP DUP1 MLOAD SWAP1 PUSH1 0x20 ADD SWAP1 DUP1 DUP4 DUP4 PUSH1 0x0 JUMPDEST DUP4 DUP2 LT ISZERO PUSH2 0x1293 JUMPI DUP2 DUP2 ADD MLOAD DUP4 DUP3 ADD MSTORE PUSH1 0x20 ADD PUSH2 0x127B JUMP JUMPDEST POP POP POP POP SWAP1 POP SWAP1 DUP2 ADD SWAP1 PUSH1 0x1F AND DUP1 ISZERO PUSH2 0x12C0 JUMPI DUP1 DUP3 SUB DUP1 MLOAD PUSH1 0x1 DUP4 PUSH1 0x20 SUB PUSH2 0x100 EXP SUB NOT AND DUP2 MSTORE PUSH1 0x20 ADD SWAP2 POP JUMPDEST POP SWAP5 POP POP POP POP POP PUSH1 0x0 PUSH1 0x40 MLOAD DUP1 DUP4 SUB DUP2 PUSH1 0x0 DUP8 DUP1 EXTCODESIZE ISZERO DUP1 ISZERO PUSH2 0x12E1 JUMPI PUSH1 0x0 DUP1 REVERT JUMPDEST POP GAS CALL ISZERO DUP1 ISZERO PUSH2 0x12F5 JUMPI RETURNDATASIZE PUSH1 0x0 DUP1 RETURNDATACOPY RETURNDATASIZE PUSH1 0x0 REVERT JUMPDEST POP POP POP POP PUSH2 0x1303 DUP6 DUP4 PUSH2 0x141B JUMP JUMPDEST PUSH1 0x40 DUP1 MLOAD DUP7 DUP2 MSTORE SWAP1 MLOAD PUSH1 0x1 PUSH1 0x1 PUSH1 0xA0 SHL SUB DUP5 AND SWAP2 PUSH32 0x1EB35CB4B5BBB23D152F3B4016A5A46C37A07AE930ED0956ABA951E231142438 SWAP2 SWAP1 DUP2 SWAP1 SUB PUSH1 0x20 ADD SWAP1 LOG2 PUSH2 0x1414 JUMP JUMPDEST PUSH1 0x40 DUP1 MLOAD PUSH4 0x278F7943 PUSH1 0xE1 SHL DUP2 MSTORE PUSH1 0x1 PUSH1 0x1 PUSH1 0xA0 SHL SUB DUP7 DUP2 AND PUSH1 0x4 DUP4 ADD SWAP1 DUP2 MSTORE PUSH1 0x24 DUP4 ADD SWAP4 DUP5 MSTORE DUP5 MLOAD PUSH1 0x44 DUP5 ADD MSTORE DUP5 MLOAD SWAP2 DUP7 AND SWAP4 PUSH4 0x4F1EF286 SWAP4 DUP10 SWAP4 DUP8 SWAP4 SWAP3 SWAP2 PUSH1 0x64 ADD SWAP1 PUSH1 0x20 DUP6 ADD SWAP1 DUP1 DUP4 DUP4 PUSH1 0x0 JUMPDEST DUP4 DUP2 LT ISZERO PUSH2 0x13AE JUMPI DUP2 DUP2 ADD MLOAD DUP4 DUP3 ADD MSTORE PUSH1 0x20 ADD PUSH2 0x1396 JUMP JUMPDEST POP POP POP POP SWAP1 POP SWAP1 DUP2 ADD SWAP1 PUSH1 0x1F AND DUP1 ISZERO PUSH2 0x13DB JUMPI DUP1 DUP3 SUB DUP1 MLOAD PUSH1 0x1 DUP4 PUSH1 0x20 SUB PUSH2 0x100 EXP SUB NOT AND DUP2 MSTORE PUSH1 0x20 ADD SWAP2 POP JUMPDEST POP SWAP4 POP POP POP POP PUSH1 0x0 PUSH1 0x40 MLOAD DUP1 DUP4 SUB DUP2 PUSH1 0x0 DUP8 DUP1 EXTCODESIZE ISZERO DUP1 ISZERO PUSH2 0x13FB JUMPI PUSH1 0x0 DUP1 REVERT JUMPDEST POP GAS CALL ISZERO DUP1 ISZERO PUSH2 0x140F JUMPI RETURNDATASIZE PUSH1 0x0 DUP1 RETURNDATACOPY RETURNDATASIZE PUSH1 0x0 REVERT JUMPDEST POP POP POP POP JUMPDEST POP POP POP POP POP JUMP JUMPDEST PUSH1 0x0 SWAP2 DUP3 MSTORE PUSH1 0x1 PUSH1 0x20 MSTORE PUSH1 0x40 SWAP1 SWAP2 KECCAK256 DUP1 SLOAD PUSH1 0x1 PUSH1 0x1 PUSH1 0xA0 SHL SUB NOT AND PUSH1 0x1 PUSH1 0x1 PUSH1 0xA0 SHL SUB SWAP1 SWAP3 AND SWAP2 SWAP1 SWAP2 OR SWAP1 SSTORE JUMP JUMPDEST CALLER SWAP1 JUMP JUMPDEST PUSH1 0x1 PUSH1 0x1 PUSH1 0xA0 SHL SUB DUP2 AND PUSH2 0x1492 JUMPI PUSH1 0x40 MLOAD PUSH3 0x461BCD PUSH1 0xE5 SHL DUP2 MSTORE PUSH1 0x4 ADD DUP1 DUP1 PUSH1 0x20 ADD DUP3 DUP2 SUB DUP3 MSTORE PUSH1 0x26 DUP2 MSTORE PUSH1 0x20 ADD DUP1 PUSH2 0x1E97 PUSH1 0x26 SWAP2 CODECOPY PUSH1 0x40 ADD SWAP2 POP POP PUSH1 0x40 MLOAD DUP1 SWAP2 SUB SWAP1 REVERT JUMPDEST PUSH1 0x0 DUP1 SLOAD PUSH1 0x40 MLOAD PUSH1 0x1 PUSH1 0x1 PUSH1 0xA0 SHL SUB DUP1 DUP6 AND SWAP4 SWAP3 AND SWAP2 PUSH32 0x8BE0079C531659141344CD1FD0A4F28419497F9722A3DAAFE3B4186F6B6457E0 SWAP2 LOG3 PUSH1 0x0 DUP1 SLOAD PUSH1 0x1 PUSH1 0x1 PUSH1 0xA0 SHL SUB NOT AND PUSH1 0x1 PUSH1 0x1 PUSH1 0xA0 SHL SUB SWAP3 SWAP1 SWAP3 AND SWAP2 SWAP1 SWAP2 OR SWAP1 SSTORE JUMP JUMPDEST PUSH2 0x99C DUP1 PUSH2 0x14FB DUP4 CODECOPY ADD SWAP1 JUMP INVALID PUSH1 0x80 PUSH1 0x40 MSTORE CALLVALUE DUP1 ISZERO PUSH2 0x10 JUMPI PUSH1 0x0 DUP1 REVERT JUMPDEST POP PUSH2 0x97C DUP1 PUSH2 0x20 PUSH1 0x0 CODECOPY PUSH1 0x0 RETURN INVALID PUSH1 0x80 PUSH1 0x40 MSTORE PUSH1 0x4 CALLDATASIZE LT PUSH2 0x70 JUMPI PUSH1 0x0 CALLDATALOAD PUSH1 0xE0 SHR DUP1 PUSH4 0x8F283970 GT PUSH2 0x4E JUMPI DUP1 PUSH4 0x8F283970 EQ PUSH2 0x15E JUMPI DUP1 PUSH4 0xCF7A1D77 EQ PUSH2 0x191 JUMPI DUP1 PUSH4 0xD1F57894 EQ PUSH2 0x250 JUMPI DUP1 PUSH4 0xF851A440 EQ PUSH2 0x306 JUMPI PUSH2 0x70 JUMP JUMPDEST DUP1 PUSH4 0x3659CFE6 EQ PUSH2 0x7A JUMPI DUP1 PUSH4 0x4F1EF286 EQ PUSH2 0xAD JUMPI DUP1 PUSH4 0x5C60DA1B EQ PUSH2 0x12D JUMPI JUMPDEST PUSH2 0x78 PUSH2 0x31B JUMP JUMPDEST STOP JUMPDEST CALLVALUE DUP1 ISZERO PUSH2 0x86 JUMPI PUSH1 0x0 DUP1 REVERT JUMPDEST POP PUSH2 0x78 PUSH1 0x4 DUP1 CALLDATASIZE SUB PUSH1 0x20 DUP2 LT ISZERO PUSH2 0x9D JUMPI PUSH1 0x0 DUP1 REVERT JUMPDEST POP CALLDATALOAD PUSH1 0x1 PUSH1 0x1 PUSH1 0xA0 SHL SUB AND PUSH2 0x335 JUMP JUMPDEST PUSH2 0x78 PUSH1 0x4 DUP1 CALLDATASIZE SUB PUSH1 0x40 DUP2 LT ISZERO PUSH2 0xC3 JUMPI PUSH1 0x0 DUP1 REVERT JUMPDEST PUSH1 0x1 PUSH1 0x1 PUSH1 0xA0 SHL SUB DUP3 CALLDATALOAD AND SWAP2 SWAP1 DUP2 ADD SWAP1 PUSH1 0x40 DUP2 ADD PUSH1 0x20 DUP3 ADD CALLDATALOAD PUSH5 0x100000000 DUP2 GT ISZERO PUSH2 0xEE JUMPI PUSH1 0x0 DUP1 REVERT JUMPDEST DUP3 ADD DUP4 PUSH1 0x20 DUP3 ADD GT ISZERO PUSH2 0x100 JUMPI PUSH1 0x0 DUP1 REVERT JUMPDEST DUP1 CALLDATALOAD SWAP1 PUSH1 0x20 ADD SWAP2 DUP5 PUSH1 0x1 DUP4 MUL DUP5 ADD GT PUSH5 0x100000000 DUP4 GT OR ISZERO PUSH2 0x122 JUMPI PUSH1 0x0 DUP1 REVERT JUMPDEST POP SWAP1 SWAP3 POP SWAP1 POP PUSH2 0x36F JUMP JUMPDEST CALLVALUE DUP1 ISZERO PUSH2 0x139 JUMPI PUSH1 0x0 DUP1 REVERT JUMPDEST POP PUSH2 0x142 PUSH2 0x41C JUMP JUMPDEST PUSH1 0x40 DUP1 MLOAD PUSH1 0x1 PUSH1 0x1 PUSH1 0xA0 SHL SUB SWAP1 SWAP3 AND DUP3 MSTORE MLOAD SWAP1 DUP2 SWAP1 SUB PUSH1 0x20 ADD SWAP1 RETURN JUMPDEST CALLVALUE DUP1 ISZERO PUSH2 0x16A JUMPI PUSH1 0x0 DUP1 REVERT JUMPDEST POP PUSH2 0x78 PUSH1 0x4 DUP1 CALLDATASIZE SUB PUSH1 0x20 DUP2 LT ISZERO PUSH2 0x181 JUMPI PUSH1 0x0 DUP1 REVERT JUMPDEST POP CALLDATALOAD PUSH1 0x1 PUSH1 0x1 PUSH1 0xA0 SHL SUB AND PUSH2 0x459 JUMP JUMPDEST PUSH2 0x78 PUSH1 0x4 DUP1 CALLDATASIZE SUB PUSH1 0x60 DUP2 LT ISZERO PUSH2 0x1A7 JUMPI PUSH1 0x0 DUP1 REVERT JUMPDEST PUSH1 0x1 PUSH1 0x1 PUSH1 0xA0 SHL SUB DUP3 CALLDATALOAD DUP2 AND SWAP3 PUSH1 0x20 DUP2 ADD CALLDATALOAD SWAP1 SWAP2 AND SWAP2 DUP2 ADD SWAP1 PUSH1 0x60 DUP2 ADD PUSH1 0x40 DUP3 ADD CALLDATALOAD PUSH5 0x100000000 DUP2 GT ISZERO PUSH2 0x1DB JUMPI PUSH1 0x0 DUP1 REVERT JUMPDEST DUP3 ADD DUP4 PUSH1 0x20 DUP3 ADD GT ISZERO PUSH2 0x1ED JUMPI PUSH1 0x0 DUP1 REVERT JUMPDEST DUP1 CALLDATALOAD SWAP1 PUSH1 0x20 ADD SWAP2 DUP5 PUSH1 0x1 DUP4 MUL DUP5 ADD GT PUSH5 0x100000000 DUP4 GT OR ISZERO PUSH2 0x20F JUMPI PUSH1 0x0 DUP1 REVERT JUMPDEST SWAP2 SWAP1 DUP1 DUP1 PUSH1 0x1F ADD PUSH1 0x20 DUP1 SWAP2 DIV MUL PUSH1 0x20 ADD PUSH1 0x40 MLOAD SWAP1 DUP2 ADD PUSH1 0x40 MSTORE DUP1 SWAP4 SWAP3 SWAP2 SWAP1 DUP2 DUP2 MSTORE PUSH1 0x20 ADD DUP4 DUP4 DUP1 DUP3 DUP5 CALLDATACOPY PUSH1 0x0 SWAP3 ADD SWAP2 SWAP1 SWAP2 MSTORE POP SWAP3 SWAP6 POP PUSH2 0x513 SWAP5 POP POP POP POP POP JUMP JUMPDEST PUSH2 0x78 PUSH1 0x4 DUP1 CALLDATASIZE SUB PUSH1 0x40 DUP2 LT ISZERO PUSH2 0x266 JUMPI PUSH1 0x0 DUP1 REVERT JUMPDEST PUSH1 0x1 PUSH1 0x1 PUSH1 0xA0 SHL SUB DUP3 CALLDATALOAD AND SWAP2 SWAP1 DUP2 ADD SWAP1 PUSH1 0x40 DUP2 ADD PUSH1 0x20 DUP3 ADD CALLDATALOAD PUSH5 0x100000000 DUP2 GT ISZERO PUSH2 0x291 JUMPI PUSH1 0x0 DUP1 REVERT JUMPDEST DUP3 ADD DUP4 PUSH1 0x20 DUP3 ADD GT ISZERO PUSH2 0x2A3 JUMPI PUSH1 0x0 DUP1 REVERT JUMPDEST DUP1 CALLDATALOAD SWAP1 PUSH1 0x20 ADD SWAP2 DUP5 PUSH1 0x1 DUP4 MUL DUP5 ADD GT PUSH5 0x100000000 DUP4 GT OR ISZERO PUSH2 0x2C5 JUMPI PUSH1 0x0 DUP1 REVERT JUMPDEST SWAP2 SWAP1 DUP1 DUP1 PUSH1 0x1F ADD PUSH1 0x20 DUP1 SWAP2 DIV MUL PUSH1 0x20 ADD PUSH1 0x40 MLOAD SWAP1 DUP2 ADD PUSH1 0x40 MSTORE DUP1 SWAP4 SWAP3 SWAP2 SWAP1 DUP2 DUP2 MSTORE PUSH1 0x20 ADD DUP4 DUP4 DUP1 DUP3 DUP5 CALLDATACOPY PUSH1 0x0 SWAP3 ADD SWAP2 SWAP1 SWAP2 MSTORE POP SWAP3 SWAP6 POP PUSH2 0x599 SWAP5 POP POP POP POP POP JUMP JUMPDEST CALLVALUE DUP1 ISZERO PUSH2 0x312 JUMPI PUSH1 0x0 DUP1 REVERT JUMPDEST POP PUSH2 0x142 PUSH2 0x6D9 JUMP JUMPDEST PUSH2 0x323 PUSH2 0x704 JUMP JUMPDEST PUSH2 0x333 PUSH2 0x32E PUSH2 0x764 JUMP JUMPDEST PUSH2 0x789 JUMP JUMPDEST JUMP JUMPDEST PUSH2 0x33D PUSH2 0x7AD JUMP JUMPDEST PUSH1 0x1 PUSH1 0x1 PUSH1 0xA0 SHL SUB AND CALLER PUSH1 0x1 PUSH1 0x1 PUSH1 0xA0 SHL SUB AND EQ ISZERO PUSH2 0x364 JUMPI PUSH2 0x35F DUP2 PUSH2 0x7D2 JUMP JUMPDEST PUSH2 0x36C JUMP JUMPDEST PUSH2 0x36C PUSH2 0x31B JUMP JUMPDEST POP JUMP JUMPDEST PUSH2 0x377 PUSH2 0x7AD JUMP JUMPDEST PUSH1 0x1 PUSH1 0x1 PUSH1 0xA0 SHL SUB AND CALLER PUSH1 0x1 PUSH1 0x1 PUSH1 0xA0 SHL SUB AND EQ ISZERO PUSH2 0x40F JUMPI PUSH2 0x399 DUP4 PUSH2 0x7D2 JUMP JUMPDEST PUSH1 0x0 DUP4 PUSH1 0x1 PUSH1 0x1 PUSH1 0xA0 SHL SUB AND DUP4 DUP4 PUSH1 0x40 MLOAD DUP1 DUP4 DUP4 DUP1 DUP3 DUP5 CALLDATACOPY PUSH1 0x40 MLOAD SWAP3 ADD SWAP5 POP PUSH1 0x0 SWAP4 POP SWAP1 SWAP2 POP POP DUP1 DUP4 SUB DUP2 DUP6 GAS DELEGATECALL SWAP2 POP POP RETURNDATASIZE DUP1 PUSH1 0x0 DUP2 EQ PUSH2 0x3F6 JUMPI PUSH1 0x40 MLOAD SWAP2 POP PUSH1 0x1F NOT PUSH1 0x3F RETURNDATASIZE ADD AND DUP3 ADD PUSH1 0x40 MSTORE RETURNDATASIZE DUP3 MSTORE RETURNDATASIZE PUSH1 0x0 PUSH1 0x20 DUP5 ADD RETURNDATACOPY PUSH2 0x3FB JUMP JUMPDEST PUSH1 0x60 SWAP2 POP JUMPDEST POP POP SWAP1 POP DUP1 PUSH2 0x409 JUMPI PUSH1 0x0 DUP1 REVERT JUMPDEST POP PUSH2 0x417 JUMP JUMPDEST PUSH2 0x417 PUSH2 0x31B JUMP JUMPDEST POP POP POP JUMP JUMPDEST PUSH1 0x0 PUSH2 0x426 PUSH2 0x7AD JUMP JUMPDEST PUSH1 0x1 PUSH1 0x1 PUSH1 0xA0 SHL SUB AND CALLER PUSH1 0x1 PUSH1 0x1 PUSH1 0xA0 SHL SUB AND EQ ISZERO PUSH2 0x44E JUMPI PUSH2 0x447 PUSH2 0x764 JUMP JUMPDEST SWAP1 POP PUSH2 0x456 JUMP JUMPDEST PUSH2 0x456 PUSH2 0x31B JUMP JUMPDEST SWAP1 JUMP JUMPDEST PUSH2 0x461 PUSH2 0x7AD JUMP JUMPDEST PUSH1 0x1 PUSH1 0x1 PUSH1 0xA0 SHL SUB AND CALLER PUSH1 0x1 PUSH1 0x1 PUSH1 0xA0 SHL SUB AND EQ ISZERO PUSH2 0x364 JUMPI PUSH1 0x1 PUSH1 0x1 PUSH1 0xA0 SHL SUB DUP2 AND PUSH2 0x4BF JUMPI PUSH1 0x40 MLOAD PUSH3 0x461BCD PUSH1 0xE5 SHL DUP2 MSTORE PUSH1 0x4 ADD DUP1 DUP1 PUSH1 0x20 ADD DUP3 DUP2 SUB DUP3 MSTORE PUSH1 0x36 DUP2 MSTORE PUSH1 0x20 ADD DUP1 PUSH2 0x8D7 PUSH1 0x36 SWAP2 CODECOPY PUSH1 0x40 ADD SWAP2 POP POP PUSH1 0x40 MLOAD DUP1 SWAP2 SUB SWAP1 REVERT JUMPDEST PUSH32 0x7E644D79422F17C01E4894B5F4F588D331EBFA28653D42AE832DC59E38C9798F PUSH2 0x4E8 PUSH2 0x7AD JUMP JUMPDEST PUSH1 0x40 DUP1 MLOAD PUSH1 0x1 PUSH1 0x1 PUSH1 0xA0 SHL SUB SWAP3 DUP4 AND DUP2 MSTORE SWAP2 DUP5 AND PUSH1 0x20 DUP4 ADD MSTORE DUP1 MLOAD SWAP2 DUP3 SWAP1 SUB ADD SWAP1 LOG1 PUSH2 0x35F DUP2 PUSH2 0x812 JUMP JUMPDEST PUSH1 0x0 PUSH2 0x51D PUSH2 0x764 JUMP JUMPDEST PUSH1 0x1 PUSH1 0x1 PUSH1 0xA0 SHL SUB AND EQ PUSH2 0x530 JUMPI PUSH1 0x0 DUP1 REVERT JUMPDEST PUSH2 0x53A DUP4 DUP3 PUSH2 0x599 JUMP JUMPDEST PUSH1 0x40 DUP1 MLOAD PUSH19 0x32B4B8189C9B1B97383937BC3C9730B236B4B7 PUSH1 0x69 SHL DUP2 MSTORE SWAP1 MLOAD SWAP1 DUP2 SWAP1 SUB PUSH1 0x13 ADD SWAP1 KECCAK256 PUSH32 0xB53127684A568B3173AE13B9F8A6016E243E63B6E8EE1178D6A717850B5D6103 PUSH1 0x0 NOT SWAP1 SWAP2 ADD EQ PUSH2 0x590 JUMPI INVALID JUMPDEST PUSH2 0x417 DUP3 PUSH2 0x812 JUMP JUMPDEST PUSH1 0x0 PUSH2 0x5A3 PUSH2 0x764 JUMP JUMPDEST PUSH1 0x1 PUSH1 0x1 PUSH1 0xA0 SHL SUB AND EQ PUSH2 0x5B6 JUMPI PUSH1 0x0 DUP1 REVERT JUMPDEST PUSH1 0x40 DUP1 MLOAD PUSH32 0x656970313936372E70726F78792E696D706C656D656E746174696F6E00000000 DUP2 MSTORE SWAP1 MLOAD SWAP1 DUP2 SWAP1 SUB PUSH1 0x1C ADD SWAP1 KECCAK256 PUSH32 0x360894A13BA1A3210667C828492DB98DCA3E2076CC3735A920A3CA505D382BBC PUSH1 0x0 NOT SWAP1 SWAP2 ADD EQ PUSH2 0x616 JUMPI INVALID JUMPDEST PUSH2 0x61F DUP3 PUSH2 0x836 JUMP JUMPDEST DUP1 MLOAD ISZERO PUSH2 0x6D5 JUMPI PUSH1 0x0 DUP3 PUSH1 0x1 PUSH1 0x1 PUSH1 0xA0 SHL SUB AND DUP3 PUSH1 0x40 MLOAD DUP1 DUP3 DUP1 MLOAD SWAP1 PUSH1 0x20 ADD SWAP1 DUP1 DUP4 DUP4 JUMPDEST PUSH1 0x20 DUP4 LT PUSH2 0x662 JUMPI DUP1 MLOAD DUP3 MSTORE PUSH1 0x1F NOT SWAP1 SWAP3 ADD SWAP2 PUSH1 0x20 SWAP2 DUP3 ADD SWAP2 ADD PUSH2 0x643 JUMP JUMPDEST PUSH1 0x1 DUP4 PUSH1 0x20 SUB PUSH2 0x100 EXP SUB DUP1 NOT DUP3 MLOAD AND DUP2 DUP5 MLOAD AND DUP1 DUP3 OR DUP6 MSTORE POP POP POP POP POP POP SWAP1 POP ADD SWAP2 POP POP PUSH1 0x0 PUSH1 0x40 MLOAD DUP1 DUP4 SUB DUP2 DUP6 GAS DELEGATECALL SWAP2 POP POP RETURNDATASIZE DUP1 PUSH1 0x0 DUP2 EQ PUSH2 0x6C2 JUMPI PUSH1 0x40 MLOAD SWAP2 POP PUSH1 0x1F NOT PUSH1 0x3F RETURNDATASIZE ADD AND DUP3 ADD PUSH1 0x40 MSTORE RETURNDATASIZE DUP3 MSTORE RETURNDATASIZE PUSH1 0x0 PUSH1 0x20 DUP5 ADD RETURNDATACOPY PUSH2 0x6C7 JUMP JUMPDEST PUSH1 0x60 SWAP2 POP JUMPDEST POP POP SWAP1 POP DUP1 PUSH2 0x417 JUMPI PUSH1 0x0 DUP1 REVERT JUMPDEST POP POP JUMP JUMPDEST PUSH1 0x0 PUSH2 0x6E3 PUSH2 0x7AD JUMP JUMPDEST PUSH1 0x1 PUSH1 0x1 PUSH1 0xA0 SHL SUB AND CALLER PUSH1 0x1 PUSH1 0x1 PUSH1 0xA0 SHL SUB AND EQ ISZERO PUSH2 0x44E JUMPI PUSH2 0x447 PUSH2 0x7AD JUMP JUMPDEST PUSH2 0x70C PUSH2 0x7AD JUMP JUMPDEST PUSH1 0x1 PUSH1 0x1 PUSH1 0xA0 SHL SUB AND CALLER PUSH1 0x1 PUSH1 0x1 PUSH1 0xA0 SHL SUB AND EQ ISZERO PUSH2 0x75C JUMPI PUSH1 0x40 MLOAD PUSH3 0x461BCD PUSH1 0xE5 SHL DUP2 MSTORE PUSH1 0x4 ADD DUP1 DUP1 PUSH1 0x20 ADD DUP3 DUP2 SUB DUP3 MSTORE PUSH1 0x32 DUP2 MSTORE PUSH1 0x20 ADD DUP1 PUSH2 0x8A5 PUSH1 0x32 SWAP2 CODECOPY PUSH1 0x40 ADD SWAP2 POP POP PUSH1 0x40 MLOAD DUP1 SWAP2 SUB SWAP1 REVERT JUMPDEST PUSH2 0x333 PUSH2 0x333 JUMP JUMPDEST PUSH32 0x360894A13BA1A3210667C828492DB98DCA3E2076CC3735A920A3CA505D382BBC SLOAD SWAP1 JUMP JUMPDEST CALLDATASIZE PUSH1 0x0 DUP1 CALLDATACOPY PUSH1 0x0 DUP1 CALLDATASIZE PUSH1 0x0 DUP5 GAS DELEGATECALL RETURNDATASIZE PUSH1 0x0 DUP1 RETURNDATACOPY DUP1 DUP1 ISZERO PUSH2 0x7A8 JUMPI RETURNDATASIZE PUSH1 0x0 RETURN JUMPDEST RETURNDATASIZE PUSH1 0x0 REVERT JUMPDEST PUSH32 0xB53127684A568B3173AE13B9F8A6016E243E63B6E8EE1178D6A717850B5D6103 SLOAD SWAP1 JUMP JUMPDEST PUSH2 0x7DB DUP2 PUSH2 0x836 JUMP JUMPDEST PUSH1 0x40 MLOAD PUSH1 0x1 PUSH1 0x1 PUSH1 0xA0 SHL SUB DUP3 AND SWAP1 PUSH32 0xBC7CD75A20EE27FD9ADEBAB32041F755214DBC6BFFA90CC0225B39DA2E5C2D3B SWAP1 PUSH1 0x0 SWAP1 LOG2 POP JUMP JUMPDEST PUSH32 0xB53127684A568B3173AE13B9F8A6016E243E63B6E8EE1178D6A717850B5D6103 SSTORE JUMP JUMPDEST PUSH2 0x83F DUP2 PUSH2 0x89E JUMP JUMPDEST PUSH2 0x87A JUMPI PUSH1 0x40 MLOAD PUSH3 0x461BCD PUSH1 0xE5 SHL DUP2 MSTORE PUSH1 0x4 ADD DUP1 DUP1 PUSH1 0x20 ADD DUP3 DUP2 SUB DUP3 MSTORE PUSH1 0x3B DUP2 MSTORE PUSH1 0x20 ADD DUP1 PUSH2 0x90D PUSH1 0x3B SWAP2 CODECOPY PUSH1 0x40 ADD SWAP2 POP POP PUSH1 0x40 MLOAD DUP1 SWAP2 SUB SWAP1 REVERT JUMPDEST PUSH32 0x360894A13BA1A3210667C828492DB98DCA3E2076CC3735A920A3CA505D382BBC SSTORE JUMP JUMPDEST EXTCODESIZE ISZERO ISZERO SWAP1 JUMP INVALID NUMBER PUSH2 0x6E6E PUSH16 0x742063616C6C2066616C6C6261636B20 PUSH7 0x756E6374696F6E KECCAK256 PUSH7 0x726F6D20746865 KECCAK256 PUSH17 0x726F78792061646D696E43616E6E6F7420 PUSH4 0x68616E67 PUSH6 0x207468652061 PUSH5 0x6D696E206F PUSH7 0x20612070726F78 PUSH26 0x20746F20746865207A65726F206164647265737343616E6E6F74 KECCAK256 PUSH20 0x657420612070726F787920696D706C656D656E74 PUSH2 0x7469 PUSH16 0x6E20746F2061206E6F6E2D636F6E7472 PUSH2 0x6374 KECCAK256 PUSH2 0x6464 PUSH19 0x657373A265627A7A72315820A53BB2584C9073 0xF7 0xEC 0xC3 0xD4 0xA6 0xE3 0x29 0x2E CALL DUP10 SWAP8 JUMPDEST JUMPI PUSH6 0x6E829BE05CB1 0x49 0xB8 SELFBALANCE CALLCODE SELFBALANCE PUSH5 0x736F6C6343 STOP SDIV LT STOP ORIGIN 0x4F PUSH24 0x6E61626C653A206E6577206F776E65722069732074686520 PUSH27 0x65726F20616464726573734F776E61626C653A2063616C6C657220 PUSH10 0x73206E6F742074686520 PUSH16 0x776E6572A265627A7A7231582013A644 0xA9 0x2C 0xE7 DUP9 0xB9 0xD7 0xAB 0x4B SAR 0x5F 0xD7 0x4D 0xCB SWAP2 PUSH3 0xFD6ECD DUP2 ADDMOD SWAP13 DUP7 EQ 0xA8 0x5C CALLDATASIZE SMOD PUSH24 0x5E64736F6C63430005100032000000000000000000000000 "
		},
		"gasEstimates": {
			"creation": {
				"codeDepositCost": "1590600",
				"executionCost": "infinite",
				"totalCost": "infinite"
			},
			"external": {
				"getAddress(bytes32)": "1213",
				"getFeeProvider()": "1257",
				"getLendingPool()": "1216",
				"getLendingPoolConfigurator()": "1214",
				"getLendingPoolCore()": "1196",
				"getLendingPoolDataProvider()": "1259",
				"getLendingPoolLiquidationManager()": "1258",
				"getLendingPoolManager()": "1193",
				"getLendingPoolParametersProvider()": "1238",
				"getLendingRateOracle()": "1215",
				"getPriceOracle()": "1279",
				"getSIGHAddress()": "1192",
				"getSIGHDistributionHandler()": "1236",
				"getSIGHDistributionManager()": "1214",
				"getSIGHTreasury()": "1280",
				"getTokenDistributor()": "1213",
				"isOwner()": "1213",
				"owner()": "1148",
				"renounceOwnership()": "infinite",
				"setFeeProviderImpl(address)": "infinite",
				"setLendingPoolConfiguratorImpl(address)": "infinite",
				"setLendingPoolCoreImpl(address)": "infinite",
				"setLendingPoolDataProviderImpl(address)": "infinite",
				"setLendingPoolImpl(address)": "infinite",
				"setLendingPoolLiquidationManager(address)": "infinite",
				"setLendingPoolManager(address)": "infinite",
				"setLendingPoolParametersProviderImpl(address)": "infinite",
				"setLendingRateOracle(address)": "infinite",
				"setPriceOracle(address)": "infinite",
				"setSIGHAddress(address)": "infinite",
				"setSIGHDistributionHandlerImpl(address)": "infinite",
				"setSIGHDistributionManager(address)": "infinite",
				"setSIGHTreasuryImpl(address)": "infinite",
				"setTokenDistributor(address)": "infinite",
				"transferOwnership(address)": "infinite"
			},
			"internal": {
				"updateImplInternal(bytes32,address)": "infinite"
			}
		},
		"methodIdentifiers": {
			"getAddress(bytes32)": "21f8a721",
			"getFeeProvider()": "fbeefc3c",
			"getLendingPool()": "0261bf8b",
			"getLendingPoolConfigurator()": "85c858b1",
			"getLendingPoolCore()": "ed6ff760",
			"getLendingPoolDataProvider()": "2f58b80d",
			"getLendingPoolLiquidationManager()": "5834eb9a",
			"getLendingPoolManager()": "33128d59",
			"getLendingPoolParametersProvider()": "04061d8e",
			"getLendingRateOracle()": "3618abba",
			"getPriceOracle()": "fca513a8",
			"getSIGHAddress()": "841aa40c",
			"getSIGHDistributionHandler()": "89ae2ad8",
			"getSIGHDistributionManager()": "4cccd180",
			"getSIGHTreasury()": "59e6130c",
			"getTokenDistributor()": "ee891296",
			"isOwner()": "8f32d59b",
			"owner()": "8da5cb5b",
			"renounceOwnership()": "715018a6",
			"setFeeProviderImpl(address)": "2a62c636",
			"setLendingPoolConfiguratorImpl(address)": "c12542df",
			"setLendingPoolCoreImpl(address)": "1c827204",
			"setLendingPoolDataProviderImpl(address)": "bfedc103",
			"setLendingPoolImpl(address)": "5aef021f",
			"setLendingPoolLiquidationManager(address)": "44ce375b",
			"setLendingPoolManager(address)": "40fdcadc",
			"setLendingPoolParametersProviderImpl(address)": "a5eface2",
			"setLendingRateOracle(address)": "820d1274",
			"setPriceOracle(address)": "530e784f",
			"setSIGHAddress(address)": "723130ac",
			"setSIGHDistributionHandlerImpl(address)": "01c671c1",
			"setSIGHDistributionManager(address)": "1e8df2a2",
			"setSIGHTreasuryImpl(address)": "c5b3f337",
			"setTokenDistributor(address)": "38280e6b",
			"transferOwnership(address)": "f2fde38b"
		}
	},
	"abi": [
		{
			"anonymous": false,
			"inputs": [
				{
					"indexed": true,
					"internalType": "address",
					"name": "newAddress",
					"type": "address"
				}
			],
			"name": "EthereumAddressUpdated",
			"type": "event"
		},
		{
			"anonymous": false,
			"inputs": [
				{
					"indexed": true,
					"internalType": "address",
					"name": "newAddress",
					"type": "address"
				}
			],
			"name": "FeeProviderUpdated",
			"type": "event"
		},
		{
			"anonymous": false,
			"inputs": [
				{
					"indexed": true,
					"internalType": "address",
					"name": "newAddress",
					"type": "address"
				}
			],
			"name": "LendingPoolConfiguratorUpdated",
			"type": "event"
		},
		{
			"anonymous": false,
			"inputs": [
				{
					"indexed": true,
					"internalType": "address",
					"name": "newAddress",
					"type": "address"
				}
			],
			"name": "LendingPoolCoreUpdated",
			"type": "event"
		},
		{
			"anonymous": false,
			"inputs": [
				{
					"indexed": true,
					"internalType": "address",
					"name": "newAddress",
					"type": "address"
				}
			],
			"name": "LendingPoolDataProviderUpdated",
			"type": "event"
		},
		{
			"anonymous": false,
			"inputs": [
				{
					"indexed": true,
					"internalType": "address",
					"name": "newAddress",
					"type": "address"
				}
			],
			"name": "LendingPoolLiquidationManagerUpdated",
			"type": "event"
		},
		{
			"anonymous": false,
			"inputs": [
				{
					"indexed": true,
					"internalType": "address",
					"name": "newAddress",
					"type": "address"
				}
			],
			"name": "LendingPoolManagerUpdated",
			"type": "event"
		},
		{
			"anonymous": false,
			"inputs": [
				{
					"indexed": true,
					"internalType": "address",
					"name": "newAddress",
					"type": "address"
				}
			],
			"name": "LendingPoolParametersProviderUpdated",
			"type": "event"
		},
		{
			"anonymous": false,
			"inputs": [
				{
					"indexed": true,
					"internalType": "address",
					"name": "newAddress",
					"type": "address"
				}
			],
			"name": "LendingPoolUpdated",
			"type": "event"
		},
		{
			"anonymous": false,
			"inputs": [
				{
					"indexed": true,
					"internalType": "address",
					"name": "newAddress",
					"type": "address"
				}
			],
			"name": "LendingRateOracleUpdated",
			"type": "event"
		},
		{
			"anonymous": false,
			"inputs": [
				{
					"indexed": true,
					"internalType": "address",
					"name": "previousOwner",
					"type": "address"
				},
				{
					"indexed": true,
					"internalType": "address",
					"name": "newOwner",
					"type": "address"
				}
			],
			"name": "OwnershipTransferred",
			"type": "event"
		},
		{
			"anonymous": false,
			"inputs": [
				{
					"indexed": true,
					"internalType": "address",
					"name": "newAddress",
					"type": "address"
				}
			],
			"name": "PriceOracleUpdated",
			"type": "event"
		},
		{
			"anonymous": false,
			"inputs": [
				{
					"indexed": false,
					"internalType": "bytes32",
					"name": "id",
					"type": "bytes32"
				},
				{
					"indexed": true,
					"internalType": "address",
					"name": "newAddress",
					"type": "address"
				}
			],
			"name": "ProxyCreated",
			"type": "event"
		},
		{
			"anonymous": false,
			"inputs": [
				{
					"indexed": true,
					"internalType": "address",
					"name": "sighAddress",
					"type": "address"
				}
			],
			"name": "SIGHAddressUpdated",
			"type": "event"
		},
		{
			"anonymous": false,
			"inputs": [
				{
					"indexed": true,
					"internalType": "address",
					"name": "newAddress",
					"type": "address"
				}
			],
			"name": "SIGHDistributionHandlerUpdated",
			"type": "event"
		},
		{
			"anonymous": false,
			"inputs": [
				{
					"indexed": true,
					"internalType": "address",
					"name": "SIGHDistributionManagerAddress",
					"type": "address"
				}
			],
			"name": "SIGHDistributionManagerUpdated",
			"type": "event"
		},
		{
			"anonymous": false,
			"inputs": [
				{
					"indexed": true,
					"internalType": "address",
					"name": "newAddress",
					"type": "address"
				}
			],
			"name": "SIGHTreasuryUpdated",
			"type": "event"
		},
		{
			"anonymous": false,
			"inputs": [
				{
					"indexed": true,
					"internalType": "address",
					"name": "newAddress",
					"type": "address"
				}
			],
			"name": "TokenDistributorUpdated",
			"type": "event"
		},
		{
			"constant": true,
			"inputs": [
				{
					"internalType": "bytes32",
					"name": "_key",
					"type": "bytes32"
				}
			],
			"name": "getAddress",
			"outputs": [
				{
					"internalType": "address",
					"name": "",
					"type": "address"
				}
			],
			"payable": false,
			"stateMutability": "view",
			"type": "function"
		},
		{
			"constant": true,
			"inputs": [],
			"name": "getFeeProvider",
			"outputs": [
				{
					"internalType": "address",
					"name": "",
					"type": "address"
				}
			],
			"payable": false,
			"stateMutability": "view",
			"type": "function"
		},
		{
			"constant": true,
			"inputs": [],
			"name": "getLendingPool",
			"outputs": [
				{
					"internalType": "address",
					"name": "",
					"type": "address"
				}
			],
			"payable": false,
			"stateMutability": "view",
			"type": "function"
		},
		{
			"constant": true,
			"inputs": [],
			"name": "getLendingPoolConfigurator",
			"outputs": [
				{
					"internalType": "address",
					"name": "",
					"type": "address"
				}
			],
			"payable": false,
			"stateMutability": "view",
			"type": "function"
		},
		{
			"constant": true,
			"inputs": [],
			"name": "getLendingPoolCore",
			"outputs": [
				{
					"internalType": "address payable",
					"name": "",
					"type": "address"
				}
			],
			"payable": false,
			"stateMutability": "view",
			"type": "function"
		},
		{
			"constant": true,
			"inputs": [],
			"name": "getLendingPoolDataProvider",
			"outputs": [
				{
					"internalType": "address",
					"name": "",
					"type": "address"
				}
			],
			"payable": false,
			"stateMutability": "view",
			"type": "function"
		},
		{
			"constant": true,
			"inputs": [],
			"name": "getLendingPoolLiquidationManager",
			"outputs": [
				{
					"internalType": "address",
					"name": "",
					"type": "address"
				}
			],
			"payable": false,
			"stateMutability": "view",
			"type": "function"
		},
		{
			"constant": true,
			"inputs": [],
			"name": "getLendingPoolManager",
			"outputs": [
				{
					"internalType": "address",
					"name": "",
					"type": "address"
				}
			],
			"payable": false,
			"stateMutability": "view",
			"type": "function"
		},
		{
			"constant": true,
			"inputs": [],
			"name": "getLendingPoolParametersProvider",
			"outputs": [
				{
					"internalType": "address",
					"name": "",
					"type": "address"
				}
			],
			"payable": false,
			"stateMutability": "view",
			"type": "function"
		},
		{
			"constant": true,
			"inputs": [],
			"name": "getLendingRateOracle",
			"outputs": [
				{
					"internalType": "address",
					"name": "",
					"type": "address"
				}
			],
			"payable": false,
			"stateMutability": "view",
			"type": "function"
		},
		{
			"constant": true,
			"inputs": [],
			"name": "getPriceOracle",
			"outputs": [
				{
					"internalType": "address",
					"name": "",
					"type": "address"
				}
			],
			"payable": false,
			"stateMutability": "view",
			"type": "function"
		},
		{
			"constant": true,
			"inputs": [],
			"name": "getSIGHAddress",
			"outputs": [
				{
					"internalType": "address",
					"name": "",
					"type": "address"
				}
			],
			"payable": false,
			"stateMutability": "view",
			"type": "function"
		},
		{
			"constant": true,
			"inputs": [],
			"name": "getSIGHDistributionHandler",
			"outputs": [
				{
					"internalType": "address",
					"name": "",
					"type": "address"
				}
			],
			"payable": false,
			"stateMutability": "view",
			"type": "function"
		},
		{
			"constant": true,
			"inputs": [],
			"name": "getSIGHDistributionManager",
			"outputs": [
				{
					"internalType": "address",
					"name": "",
					"type": "address"
				}
			],
			"payable": false,
			"stateMutability": "view",
			"type": "function"
		},
		{
			"constant": true,
			"inputs": [],
			"name": "getSIGHTreasury",
			"outputs": [
				{
					"internalType": "address",
					"name": "",
					"type": "address"
				}
			],
			"payable": false,
			"stateMutability": "view",
			"type": "function"
		},
		{
			"constant": true,
			"inputs": [],
			"name": "getTokenDistributor",
			"outputs": [
				{
					"internalType": "address",
					"name": "",
					"type": "address"
				}
			],
			"payable": false,
			"stateMutability": "view",
			"type": "function"
		},
		{
			"constant": true,
			"inputs": [],
			"name": "isOwner",
			"outputs": [
				{
					"internalType": "bool",
					"name": "",
					"type": "bool"
				}
			],
			"payable": false,
			"stateMutability": "view",
			"type": "function"
		},
		{
			"constant": true,
			"inputs": [],
			"name": "owner",
			"outputs": [
				{
					"internalType": "address",
					"name": "",
					"type": "address"
				}
			],
			"payable": false,
			"stateMutability": "view",
			"type": "function"
		},
		{
			"constant": false,
			"inputs": [],
			"name": "renounceOwnership",
			"outputs": [],
			"payable": false,
			"stateMutability": "nonpayable",
			"type": "function"
		},
		{
			"constant": false,
			"inputs": [
				{
					"internalType": "address",
					"name": "_feeProvider",
					"type": "address"
				}
			],
			"name": "setFeeProviderImpl",
			"outputs": [],
			"payable": false,
			"stateMutability": "nonpayable",
			"type": "function"
		},
		{
			"constant": false,
			"inputs": [
				{
					"internalType": "address",
					"name": "_configurator",
					"type": "address"
				}
			],
			"name": "setLendingPoolConfiguratorImpl",
			"outputs": [],
			"payable": false,
			"stateMutability": "nonpayable",
			"type": "function"
		},
		{
			"constant": false,
			"inputs": [
				{
					"internalType": "address",
					"name": "_lendingPoolCore",
					"type": "address"
				}
			],
			"name": "setLendingPoolCoreImpl",
			"outputs": [],
			"payable": false,
			"stateMutability": "nonpayable",
			"type": "function"
		},
		{
			"constant": false,
			"inputs": [
				{
					"internalType": "address",
					"name": "_provider",
					"type": "address"
				}
			],
			"name": "setLendingPoolDataProviderImpl",
			"outputs": [],
			"payable": false,
			"stateMutability": "nonpayable",
			"type": "function"
		},
		{
			"constant": false,
			"inputs": [
				{
					"internalType": "address",
					"name": "_pool",
					"type": "address"
				}
			],
			"name": "setLendingPoolImpl",
			"outputs": [],
			"payable": false,
			"stateMutability": "nonpayable",
			"type": "function"
		},
		{
			"constant": false,
			"inputs": [
				{
					"internalType": "address",
					"name": "_manager",
					"type": "address"
				}
			],
			"name": "setLendingPoolLiquidationManager",
			"outputs": [],
			"payable": false,
			"stateMutability": "nonpayable",
			"type": "function"
		},
		{
			"constant": false,
			"inputs": [
				{
					"internalType": "address",
					"name": "_lendingPoolManager",
					"type": "address"
				}
			],
			"name": "setLendingPoolManager",
			"outputs": [],
			"payable": false,
			"stateMutability": "nonpayable",
			"type": "function"
		},
		{
			"constant": false,
			"inputs": [
				{
					"internalType": "address",
					"name": "_parametersProvider",
					"type": "address"
				}
			],
			"name": "setLendingPoolParametersProviderImpl",
			"outputs": [],
			"payable": false,
			"stateMutability": "nonpayable",
			"type": "function"
		},
		{
			"constant": false,
			"inputs": [
				{
					"internalType": "address",
					"name": "_lendingRateOracle",
					"type": "address"
				}
			],
			"name": "setLendingRateOracle",
			"outputs": [],
			"payable": false,
			"stateMutability": "nonpayable",
			"type": "function"
		},
		{
			"constant": false,
			"inputs": [
				{
					"internalType": "address",
					"name": "_priceOracle",
					"type": "address"
				}
			],
			"name": "setPriceOracle",
			"outputs": [],
			"payable": false,
			"stateMutability": "nonpayable",
			"type": "function"
		},
		{
			"constant": false,
			"inputs": [
				{
					"internalType": "address",
					"name": "sighAddress",
					"type": "address"
				}
			],
			"name": "setSIGHAddress",
			"outputs": [],
			"payable": false,
			"stateMutability": "nonpayable",
			"type": "function"
		},
		{
			"constant": false,
			"inputs": [
				{
					"internalType": "address",
					"name": "_SIGHDistributionHandler",
					"type": "address"
				}
			],
			"name": "setSIGHDistributionHandlerImpl",
			"outputs": [],
			"payable": false,
			"stateMutability": "nonpayable",
			"type": "function"
		},
		{
			"constant": false,
			"inputs": [
				{
					"internalType": "address",
					"name": "_SIGHDistributionManager",
					"type": "address"
				}
			],
			"name": "setSIGHDistributionManager",
			"outputs": [],
			"payable": false,
			"stateMutability": "nonpayable",
			"type": "function"
		},
		{
			"constant": false,
			"inputs": [
				{
					"internalType": "address",
					"name": "_SIGHTreasury",
					"type": "address"
				}
			],
			"name": "setSIGHTreasuryImpl",
			"outputs": [],
			"payable": false,
			"stateMutability": "nonpayable",
			"type": "function"
		},
		{
			"constant": false,
			"inputs": [
				{
					"internalType": "address",
					"name": "_tokenDistributor",
					"type": "address"
				}
			],
			"name": "setTokenDistributor",
			"outputs": [],
			"payable": false,
			"stateMutability": "nonpayable",
			"type": "function"
		},
		{
			"constant": false,
			"inputs": [
				{
					"internalType": "address",
					"name": "newOwner",
					"type": "address"
				}
			],
			"name": "transferOwnership",
			"outputs": [],
			"payable": false,
			"stateMutability": "nonpayable",
			"type": "function"
		}
	]
}