{
	"data": {
		"bytecode": {
			"linkReferences": {},
			"object": "60806040526000805534801561001457600080fd5b506101e4806100246000396000f3fe608060405234801561001057600080fd5b506004361061004c5760003560e01c806346f4f8d114610051578063586feb401461006b578063c4d66de81461008c578063d6b725ac146100b4575b600080fd5b6100596100bc565b60408051918252519081900360200190f35b6100736100cb565b6040805192835260208301919091528051918290030190f35b6100b2600480360360208110156100a257600080fd5b50356001600160a01b03166100d4565b005b610059610171565b6aa56fa5b99019a5c800000090565b6023610bb89091565b60006100de610176565b60015490915060ff16806100f557506100f561017b565b80610101575060005481115b61013c5760405162461bcd60e51b815260040180806020018281038252602e815260200180610182602e913960400191505060405180910390fd5b60015460ff1615801561015b576001805460ff19168117905560008290555b801561016c576001805460ff191690555b505050565b601990565b600190565b303b159056fe436f6e747261637420696e7374616e63652068617320616c7265616479206265656e20696e697469616c697a6564a265627a7a7231582079f8f99954625934322e8c5b650e2e2ece644931e9d30d5be234a86476a863ab64736f6c63430005110032",
			"opcodes": "PUSH1 0x80 PUSH1 0x40 MSTORE PUSH1 0x0 DUP1 SSTORE CALLVALUE DUP1 ISZERO PUSH2 0x14 JUMPI PUSH1 0x0 DUP1 REVERT JUMPDEST POP PUSH2 0x1E4 DUP1 PUSH2 0x24 PUSH1 0x0 CODECOPY PUSH1 0x0 RETURN INVALID PUSH1 0x80 PUSH1 0x40 MSTORE CALLVALUE DUP1 ISZERO PUSH2 0x10 JUMPI PUSH1 0x0 DUP1 REVERT JUMPDEST POP PUSH1 0x4 CALLDATASIZE LT PUSH2 0x4C JUMPI PUSH1 0x0 CALLDATALOAD PUSH1 0xE0 SHR DUP1 PUSH4 0x46F4F8D1 EQ PUSH2 0x51 JUMPI DUP1 PUSH4 0x586FEB40 EQ PUSH2 0x6B JUMPI DUP1 PUSH4 0xC4D66DE8 EQ PUSH2 0x8C JUMPI DUP1 PUSH4 0xD6B725AC EQ PUSH2 0xB4 JUMPI JUMPDEST PUSH1 0x0 DUP1 REVERT JUMPDEST PUSH2 0x59 PUSH2 0xBC JUMP JUMPDEST PUSH1 0x40 DUP1 MLOAD SWAP2 DUP3 MSTORE MLOAD SWAP1 DUP2 SWAP1 SUB PUSH1 0x20 ADD SWAP1 RETURN JUMPDEST PUSH2 0x73 PUSH2 0xCB JUMP JUMPDEST PUSH1 0x40 DUP1 MLOAD SWAP3 DUP4 MSTORE PUSH1 0x20 DUP4 ADD SWAP2 SWAP1 SWAP2 MSTORE DUP1 MLOAD SWAP2 DUP3 SWAP1 SUB ADD SWAP1 RETURN JUMPDEST PUSH2 0xB2 PUSH1 0x4 DUP1 CALLDATASIZE SUB PUSH1 0x20 DUP2 LT ISZERO PUSH2 0xA2 JUMPI PUSH1 0x0 DUP1 REVERT JUMPDEST POP CALLDATALOAD PUSH1 0x1 PUSH1 0x1 PUSH1 0xA0 SHL SUB AND PUSH2 0xD4 JUMP JUMPDEST STOP JUMPDEST PUSH2 0x59 PUSH2 0x171 JUMP JUMPDEST PUSH11 0xA56FA5B99019A5C8000000 SWAP1 JUMP JUMPDEST PUSH1 0x23 PUSH2 0xBB8 SWAP1 SWAP2 JUMP JUMPDEST PUSH1 0x0 PUSH2 0xDE PUSH2 0x176 JUMP JUMPDEST PUSH1 0x1 SLOAD SWAP1 SWAP2 POP PUSH1 0xFF AND DUP1 PUSH2 0xF5 JUMPI POP PUSH2 0xF5 PUSH2 0x17B JUMP JUMPDEST DUP1 PUSH2 0x101 JUMPI POP PUSH1 0x0 SLOAD DUP2 GT JUMPDEST PUSH2 0x13C JUMPI PUSH1 0x40 MLOAD PUSH3 0x461BCD PUSH1 0xE5 SHL DUP2 MSTORE PUSH1 0x4 ADD DUP1 DUP1 PUSH1 0x20 ADD DUP3 DUP2 SUB DUP3 MSTORE PUSH1 0x2E DUP2 MSTORE PUSH1 0x20 ADD DUP1 PUSH2 0x182 PUSH1 0x2E SWAP2 CODECOPY PUSH1 0x40 ADD SWAP2 POP POP PUSH1 0x40 MLOAD DUP1 SWAP2 SUB SWAP1 REVERT JUMPDEST PUSH1 0x1 SLOAD PUSH1 0xFF AND ISZERO DUP1 ISZERO PUSH2 0x15B JUMPI PUSH1 0x1 DUP1 SLOAD PUSH1 0xFF NOT AND DUP2 OR SWAP1 SSTORE PUSH1 0x0 DUP3 SWAP1 SSTORE JUMPDEST DUP1 ISZERO PUSH2 0x16C JUMPI PUSH1 0x1 DUP1 SLOAD PUSH1 0xFF NOT AND SWAP1 SSTORE JUMPDEST POP POP POP JUMP JUMPDEST PUSH1 0x19 SWAP1 JUMP JUMPDEST PUSH1 0x1 SWAP1 JUMP JUMPDEST ADDRESS EXTCODESIZE ISZERO SWAP1 JUMP INVALID NUMBER PUSH16 0x6E747261637420696E7374616E636520 PUSH9 0x617320616C72656164 PUSH26 0x206265656E20696E697469616C697A6564A265627A7A72315820 PUSH26 0xF8F99954625934322E8C5B650E2E2ECE644931E9D30D5BE234A8 PUSH5 0x76A863AB64 PUSH20 0x6F6C634300051100320000000000000000000000 "
		},
		"gasEstimates": {
			"creation": {
				"codeDepositCost": "96800",
				"executionCost": "5153",
				"totalCost": "101953"
			},
			"external": {
				"getFlashLoanFeesInBips()": "228",
				"getMaxStableRateBorrowSizePercent()": "242",
				"getRebalanceDownRateDelta()": "176",
				"initialize(address)": "infinite"
			},
			"internal": {
				"getRevision()": "15"
			}
		},
		"methodIdentifiers": {
			"getFlashLoanFeesInBips()": "586feb40",
			"getMaxStableRateBorrowSizePercent()": "d6b725ac",
			"getRebalanceDownRateDelta()": "46f4f8d1",
			"initialize(address)": "c4d66de8"
		}
	},
	"abi": [
		{
			"constant": true,
			"inputs": [],
			"name": "getFlashLoanFeesInBips",
			"outputs": [
				{
					"internalType": "uint256",
					"name": "",
					"type": "uint256"
				},
				{
					"internalType": "uint256",
					"name": "",
					"type": "uint256"
				}
			],
			"payable": false,
			"stateMutability": "view",
			"type": "function"
		},
		{
			"constant": true,
			"inputs": [],
			"name": "getMaxStableRateBorrowSizePercent",
			"outputs": [
				{
					"internalType": "uint256",
					"name": "",
					"type": "uint256"
				}
			],
			"payable": false,
			"stateMutability": "view",
			"type": "function"
		},
		{
			"constant": true,
			"inputs": [],
			"name": "getRebalanceDownRateDelta",
			"outputs": [
				{
					"internalType": "uint256",
					"name": "",
					"type": "uint256"
				}
			],
			"payable": false,
			"stateMutability": "view",
			"type": "function"
		},
		{
			"constant": false,
			"inputs": [
				{
					"internalType": "address",
					"name": "_addressesProvider",
					"type": "address"
				}
			],
			"name": "initialize",
			"outputs": [],
			"payable": false,
			"stateMutability": "nonpayable",
			"type": "function"
		}
	]
}