{
	"data": {
		"bytecode": {
			"linkReferences": {},
			"object": "60806040526001805461ffff191690553480156200001c57600080fd5b506040516200281b3803806200281b833981810160405260408110156200004257600080fd5b508051602090910151620000807f534947485f46494e414e43455f4d414e41474552000000000000000000000000836001600160e01b036200019d16565b620000b57f4c454e44494e475f504f4f4c5f4d414e41474552000000000000000000000000826001600160e01b036200019d16565b7f54a473ca1eac369f8e9bcfbedd5e7b6a025a683d5e1255f28b804658dfecfa5c6200010a7f534947485f46494e414e43455f4d414e414745520000000000000000000000006001600160e01b03620001cb16565b604080516001600160a01b039092168252519081900360200190a17fd5280c51185a38d36f7a0f5e56cac6248312bb70d0974782fa5a595127e0e08e6200017a7f4c454e44494e475f504f4f4c5f4d414e414745520000000000000000000000006001600160e01b03620001cb16565b604080516001600160a01b039092168252519081900360200190a15050620001e6565b60009182526020829052604090912080546001600160a01b0319166001600160a01b03909216919091179055565b6000908152602081905260409020546001600160a01b031690565b61262580620001f66000396000f3fe608060405234801561001057600080fd5b50600436106102535760003560e01c806359e6130c11610146578063ab3802cb116100c3578063d557d56d11610087578063d557d56d146105a1578063d72e2802146105c7578063db49224b146105cf578063ed6ff760146105d7578063fbeefc3c146105df578063fca513a8146105e757610253565b8063ab3802cb1461051f578063bfedc10314610527578063c12542df1461054d578063c145d05814610573578063c5b3f3371461057b57610253565b8063832b705a1161010a578063832b705a146104bb578063841aa40c146104e157806385c858b1146104e957806387854354146104f1578063a5eface2146104f957610253565b806359e6130c146104395780635aef021f14610441578063723130ac146104675780637725c7bf1461048d578063820d12741461049557610253565b80632f58b80d116101d457806339c06e281161019857806339c06e281461039957806342d419bf146103bf57806344ce375b146103e5578063530e784f1461040b5780635834eb9a1461043157610253565b80632f58b80d1461033557806333128d591461033d578063343c1596146103455780633618abba1461036b57806339ac577e1461037357610253565b80631db4f5691161021b5780631db4f569146102da57806321f8a721146102e25780632a62c636146102ff5780632e07f25d146103255780632e7bac461461032d57610253565b80630261bf8b1461025857806304061d8e1461027c5780630904ac7314610284578063145d02f0146102ac5780631c827204146102b4575b600080fd5b6102606105ef565b604080516001600160a01b039092168252519081900360200190f35b61026061060e565b6102aa6004803603602081101561029a57600080fd5b50356001600160a01b031661062f565b005b6102606106e9565b6102aa600480360360208110156102ca57600080fd5b50356001600160a01b0316610714565b6102606107cc565b610260600480360360208110156102f857600080fd5b50356107e2565b6102aa6004803603602081101561031557600080fd5b50356001600160a01b03166107fd565b6102aa6108b0565b6102606109ec565b610260610a05565b610260610a20565b6102aa6004803603602081101561035b57600080fd5b50356001600160a01b0316610a39565b610260610aec565b6102aa6004803603602081101561038957600080fd5b50356001600160a01b0316610b0d565b6102aa600480360360208110156103af57600080fd5b50356001600160a01b0316610bcd565b6102aa600480360360208110156103d557600080fd5b50356001600160a01b0316610c91565b6102aa600480360360208110156103fb57600080fd5b50356001600160a01b0316610d4b565b6102aa6004803603602081101561042157600080fd5b50356001600160a01b0316610e05565b610260610eb8565b610260610ed9565b6102aa6004803603602081101561045757600080fd5b50356001600160a01b0316610ef4565b6102aa6004803603602081101561047d57600080fd5b50356001600160a01b0316610fa7565b6102aa61105e565b6102aa600480360360208110156104ab57600080fd5b50356001600160a01b031661117c565b6102aa600480360360208110156104d157600080fd5b50356001600160a01b0316611236565b6102606112f6565b610260611308565b61026061132f565b6102aa6004803603602081101561050f57600080fd5b50356001600160a01b0316611348565b610260611402565b6102aa6004803603602081101561053d57600080fd5b50356001600160a01b0316611425565b6102aa6004803603602081101561056357600080fd5b50356001600160a01b03166114d9565b610260611599565b6102aa6004803603602081101561059157600080fd5b50356001600160a01b03166115b2565b6102aa600480360360208110156105b757600080fd5b50356001600160a01b0316611666565b610260611722565b610260611749565b610260611770565b610260611796565b6102606117b0565b60006106096b13115391125391d7d413d3d360a21b6107e2565b905090565b6000610609722820a920a6a2aa22a929afa82927ab24a222a960691b6107e2565b60006106486000805160206125d18339815191526107e2565b90506001600160a01b03811633146106915760405162461bcd60e51b815260040180806020018281038252602f8152602001806125a2602f913960400191505060405180910390fd5b6106a9600080516020612466833981519152836117ca565b604080516001600160a01b038416815290517fee02fbe602fd541026969f988b76e795cc611d62f5b0c23e7d4882c7ded4231e9181900360200190a15050565b60006106097f534947485f46696e616e63655f4665655f436f6c6c6563746f720000000000006107e2565b600061072d6000805160206125d18339815191526107e2565b90506001600160a01b03811633146107765760405162461bcd60e51b815260040180806020018281038252602f8152602001806125a2602f913960400191505060405180910390fd5b610794704c454e44494e475f504f4f4c5f434f524560781b836117f8565b6040516001600160a01b038316907f71c226bb2879778ca1298196bf7cc1256baee9d05b496c31ee627d35a471b5b790600090a25050565b60006106096b534947485f5354414b494e4760a01b5b6000908152602081905260409020546001600160a01b031690565b60006108166000805160206125d18339815191526107e2565b90506001600160a01b038116331461085f5760405162461bcd60e51b815260040180806020018281038252602f8152602001806125a2602f913960400191505060405180910390fd5b6108786b2322a2afa82927ab24a222a960a11b836117f8565b6040516001600160a01b038316907f18e1a55b8eff9c93921eecfa1462d6a8cbb80b3988db3eb14c039e43fdb2266190600090a25050565b60006108c96000805160206125828339815191526107e2565b9050336001600160a01b038216146109125760405162461bcd60e51b815260040180806020018281038252606e815260200180612486606e913960800191505060405180910390fd5b61092a600080516020612562833981519152826117ca565b61094360008051602061258283398151915260006117ca565b7f0a91fa516fe78c8763b8c5dc4a2b5b9a14f1ec037effb782eb387995a8140c4c61097b6000805160206125828339815191526107e2565b604080516001600160a01b039092168252519081900360200190a17f54a473ca1eac369f8e9bcfbedd5e7b6a025a683d5e1255f28b804658dfecfa5c6109ce6000805160206125628339815191526107e2565b604080516001600160a01b039092168252519081900360200190a150565b60006106096000805160206124668339815191526107e2565b60006106096c2220aa20afa82927ab24a222a960991b6107e2565b60006106096000805160206125d18339815191526107e2565b6000610a526000805160206125628339815191526107e2565b90506001600160a01b0381163314610a9b5760405162461bcd60e51b815260040180806020018281038252602b81526020018061243b602b913960400191505060405180910390fd5b610ab46b534947485f5354414b494e4760a01b836117ca565b6040516001600160a01b038316907f5f8861bb6e28928a4078090240da9377fe5dedaa4ac6fbdc29ab3a6a057f28d990600090a25050565b6000610609724c454e44494e475f524154455f4f5241434c4560681b6107e2565b6000610b266000805160206125628339815191526107e2565b90506001600160a01b0381163314610b6f5760405162461bcd60e51b815260040180806020018281038252602b81526020018061243b602b913960400191505060405180910390fd5b610b957829a4a3a42fab27a620aa24a624aa2cafa420a92b22a9aa22a960391b836117f8565b6040516001600160a01b038316907f91cef99c1fa0ac832709f2282ac310f01778ab480ec164ccf068eb4c3111686690600090a25050565b6000610be66000805160206125628339815191526107e2565b90506001600160a01b0381163314610c2f5760405162461bcd60e51b815260040180806020018281038252602b81526020018061243b602b913960400191505060405180910390fd5b610c597f534947485f46696e616e63655f4665655f436f6c6c6563746f72000000000000836117ca565b6040516001600160a01b038316907f39722a85365e94d1c12cb806b2d9e930373a8aee79c6691a20abebeb6554c5d790600090a25050565b6000610caa6000805160206125628339815191526107e2565b90506001600160a01b0381163314610cf35760405162461bcd60e51b815260040180806020018281038252602b81526020018061243b602b913960400191505060405180910390fd5b610d0b600080516020612582833981519152836117ca565b604080516001600160a01b038416815290517f0a91fa516fe78c8763b8c5dc4a2b5b9a14f1ec037effb782eb387995a8140c4c9181900360200190a15050565b6000610d646000805160206125d18339815191526107e2565b90506001600160a01b0381163314610dad5760405162461bcd60e51b815260040180806020018281038252602f8152602001806125a2602f913960400191505060405180910390fd5b610dcd722624a8aaa4a220aa24a7a72fa6a0a720a3a2a960691b836117ca565b6040516001600160a01b038316907f1a76cb769b814bc038223da86932b099b20aae03473683e6d98f5c3554e2606490600090a25050565b6000610e1e6000805160206125d18339815191526107e2565b90506001600160a01b0381163314610e675760405162461bcd60e51b815260040180806020018281038252602f8152602001806125a2602f913960400191505060405180910390fd5b610e806b50524943455f4f5241434c4560a01b836117ca565b6040516001600160a01b038316907fefe8ab924ca486283a79dc604baa67add51afb82af1db8ac386ebbba643cdffd90600090a25050565b6000610609722624a8aaa4a220aa24a7a72fa6a0a720a3a2a960691b6107e2565b60006106096c534947485f545245415355525960981b6107e2565b6000610f0d6000805160206125d18339815191526107e2565b90506001600160a01b0381163314610f565760405162461bcd60e51b815260040180806020018281038252602f8152602001806125a2602f913960400191505060405180910390fd5b610f6f6b13115391125391d7d413d3d360a21b836117f8565b6040516001600160a01b038316907fc4e6c6cdf28d0edbd8bcf071d724d33cc2e7a30be7d06443925656e9cb492aa490600090a25050565b6000610fc06000805160206125628339815191526107e2565b90506001600160a01b03811633146110095760405162461bcd60e51b815260040180806020018281038252602b81526020018061243b602b913960400191505060405180910390fd5b6001805460ff191681179055611026630a6928e960e31b836117ca565b6040516001600160a01b038316907f381506510c1e0c6490721a2b661b0150f544e59c97ff556d7668d894b414ec7d90600090a25050565b60006110776000805160206124668339815191526107e2565b9050336001600160a01b038216146110c05760405162461bcd60e51b815260040180806020018281038252606e8152602001806124f4606e913960800191505060405180910390fd5b6110d86000805160206125d1833981519152826117ca565b6110f160008051602061246683398151915260006117ca565b7fee02fbe602fd541026969f988b76e795cc611d62f5b0c23e7d4882c7ded4231e6111296000805160206124668339815191526107e2565b604080516001600160a01b039092168252519081900360200190a17fd5280c51185a38d36f7a0f5e56cac6248312bb70d0974782fa5a595127e0e08e6109ce6000805160206125d18339815191526107e2565b60006111956000805160206125d18339815191526107e2565b90506001600160a01b03811633146111de5760405162461bcd60e51b815260040180806020018281038252602f8152602001806125a2602f913960400191505060405180910390fd5b6111fe724c454e44494e475f524154455f4f5241434c4560681b836117ca565b6040516001600160a01b038316907f5c29179aba6942020a8a2d38f65de02fb6b7f784e7f049ed3a3cab97621859b590600090a25050565b600061124f6000805160206125628339815191526107e2565b90506001600160a01b03811633146112985760405162461bcd60e51b815260040180806020018281038252602b81526020018061243b602b913960400191505060405180910390fd5b6112be7829a4a3a42fa324a720a721a2afa1a7a72324a3aaa920aa27a960391b836117f8565b6040516001600160a01b038316907f51bda0bdf35cfc37e30f312b0624afc7806d46f71e133364bd9d09507724d83190600090a25050565b6000610609630a6928e960e31b6107e2565b6000610609782622a72224a723afa827a7a62fa1a7a72324a3aaa920aa27a960391b6107e2565b60006106096000805160206125628339815191526107e2565b60006113616000805160206125d18339815191526107e2565b90506001600160a01b03811633146113aa5760405162461bcd60e51b815260040180806020018281038252602f8152602001806125a2602f913960400191505060405180910390fd5b6113ca722820a920a6a2aa22a929afa82927ab24a222a960691b836117f8565b6040516001600160a01b038316907fce16ea9b2fd7cadddd0f7359971028f50b5ddba33dfae1a9bdea956fabb1e28090600090a25050565b60006106097429a4a3a42fa9a822a2a22fa1a7a72a2927a62622a960591b6107e2565b600061143e6000805160206125d18339815191526107e2565b90506001600160a01b03811633146114875760405162461bcd60e51b815260040180806020018281038252602f8152602001806125a2602f913960400191505060405180910390fd5b6114a16c2220aa20afa82927ab24a222a960991b836117f8565b6040516001600160a01b038316907f07890d7d10db37434d76ee4f2928fb2dc66227c3b3391206aced4f7bcb59cdb090600090a25050565b60006114f26000805160206125d18339815191526107e2565b90506001600160a01b038116331461153b5760405162461bcd60e51b815260040180806020018281038252602f8152602001806125a2602f913960400191505060405180910390fd5b611561782622a72224a723afa827a7a62fa1a7a72324a3aaa920aa27a960391b836117f8565b6040516001600160a01b038316907fdfabe479bad36782fb1e77fbfddd4e382671713527e4786cfc93a022ae76372990600090a25050565b60006106096000805160206125828339815191526107e2565b60006115cb6000805160206125628339815191526107e2565b90506001600160a01b03811633146116145760405162461bcd60e51b815260040180806020018281038252602b81526020018061243b602b913960400191505060405180910390fd5b61162e6c534947485f545245415355525960981b836117f8565b6040516001600160a01b038316907f4e594f07049c48e5e02719973ed5064139451dc41d5348d3d52b362ac628a69590600090a25050565b600061167f6000805160206125628339815191526107e2565b90506001600160a01b03811633146116c85760405162461bcd60e51b815260040180806020018281038252602b81526020018061243b602b913960400191505060405180910390fd5b6116ea7429a4a3a42fa9a822a2a22fa1a7a72a2927a62622a960591b836117f8565b6040516001600160a01b038316907f0579f9ffaa1ecb9bf9c8a40161500243b875b8a597c78ec222812e5336ef979390600090a25050565b60006106097829a4a3a42fab27a620aa24a624aa2cafa420a92b22a9aa22a960391b6107e2565b60006106097829a4a3a42fa324a720a721a2afa1a7a72324a3aaa920aa27a960391b6107e2565b600080611790704c454e44494e475f504f4f4c5f434f524560781b6107e2565b91505090565b60006106096b2322a2afa82927ab24a222a960a11b6107e2565b60006106096b50524943455f4f5241434c4560a01b6107e2565b60009182526020829052604090912080546001600160a01b0319166001600160a01b03909216919091179055565b6000611803836107e2565b60408051306024808301919091528251808303909101815260449091019091526020810180516001600160e01b031663189acdbd60e31b17905290915081906001600160a01b0382166119bd5760405161185c90611a91565b604051809103906000f080158015611878573d6000803e3d6000fd5b509150816001600160a01b031663cf7a1d778530846040518463ffffffff1660e01b815260040180846001600160a01b03166001600160a01b03168152602001836001600160a01b03166001600160a01b0316815260200180602001828103825283818151815260200191508051906020019080838360005b838110156119095781810151838201526020016118f1565b50505050905090810190601f1680156119365780820380516001836020036101000a031916815260200191505b50945050505050600060405180830381600087803b15801561195757600080fd5b505af115801561196b573d6000803e3d6000fd5b5050505061197985836117ca565b6040805186815290516001600160a01b038416917f1eb35cb4b5bbb23d152f3b4016a5a46c37a07ae930ed0956aba951e231142438919081900360200190a2611a8a565b6040805163278f794360e11b81526001600160a01b03868116600483019081526024830193845284516044840152845191861693634f1ef2869389938793929160640190602085019080838360005b83811015611a24578181015183820152602001611a0c565b50505050905090810190601f168015611a515780820380516001836020036101000a031916815260200191505b509350505050600060405180830381600087803b158015611a7157600080fd5b505af1158015611a85573d6000803e3d6000fd5b505050505b5050505050565b61099c80611a9f8339019056fe608060405234801561001057600080fd5b5061097c806100206000396000f3fe6080604052600436106100705760003560e01c80638f2839701161004e5780638f2839701461015e578063cf7a1d7714610191578063d1f5789414610250578063f851a4401461030657610070565b80633659cfe61461007a5780634f1ef286146100ad5780635c60da1b1461012d575b61007861031b565b005b34801561008657600080fd5b506100786004803603602081101561009d57600080fd5b50356001600160a01b0316610335565b610078600480360360408110156100c357600080fd5b6001600160a01b0382351691908101906040810160208201356401000000008111156100ee57600080fd5b82018360208201111561010057600080fd5b8035906020019184600183028401116401000000008311171561012257600080fd5b50909250905061036f565b34801561013957600080fd5b5061014261041c565b604080516001600160a01b039092168252519081900360200190f35b34801561016a57600080fd5b506100786004803603602081101561018157600080fd5b50356001600160a01b0316610459565b610078600480360360608110156101a757600080fd5b6001600160a01b0382358116926020810135909116918101906060810160408201356401000000008111156101db57600080fd5b8201836020820111156101ed57600080fd5b8035906020019184600183028401116401000000008311171561020f57600080fd5b91908080601f016020809104026020016040519081016040528093929190818152602001838380828437600092019190915250929550610513945050505050565b6100786004803603604081101561026657600080fd5b6001600160a01b03823516919081019060408101602082013564010000000081111561029157600080fd5b8201836020820111156102a357600080fd5b803590602001918460018302840111640100000000831117156102c557600080fd5b91908080601f016020809104026020016040519081016040528093929190818152602001838380828437600092019190915250929550610599945050505050565b34801561031257600080fd5b506101426106d9565b610323610704565b61033361032e610764565b610789565b565b61033d6107ad565b6001600160a01b0316336001600160a01b031614156103645761035f816107d2565b61036c565b61036c61031b565b50565b6103776107ad565b6001600160a01b0316336001600160a01b0316141561040f57610399836107d2565b6000836001600160a01b031683836040518083838082843760405192019450600093509091505080830381855af49150503d80600081146103f6576040519150601f19603f3d011682016040523d82523d6000602084013e6103fb565b606091505b505090508061040957600080fd5b50610417565b61041761031b565b505050565b60006104266107ad565b6001600160a01b0316336001600160a01b0316141561044e57610447610764565b9050610456565b61045661031b565b90565b6104616107ad565b6001600160a01b0316336001600160a01b03161415610364576001600160a01b0381166104bf5760405162461bcd60e51b81526004018080602001828103825260368152602001806108d76036913960400191505060405180910390fd5b7f7e644d79422f17c01e4894b5f4f588d331ebfa28653d42ae832dc59e38c9798f6104e86107ad565b604080516001600160a01b03928316815291841660208301528051918290030190a161035f81610812565b600061051d610764565b6001600160a01b03161461053057600080fd5b61053a8382610599565b604080517232b4b8189c9b1b97383937bc3c9730b236b4b760691b815290519081900360130190207fb53127684a568b3173ae13b9f8a6016e243e63b6e8ee1178d6a717850b5d61036000199091011461059057fe5b61041782610812565b60006105a3610764565b6001600160a01b0316146105b657600080fd5b604080517f656970313936372e70726f78792e696d706c656d656e746174696f6e000000008152905190819003601c0190207f360894a13ba1a3210667c828492db98dca3e2076cc3735a920a3ca505d382bbc6000199091011461061657fe5b61061f82610836565b8051156106d5576000826001600160a01b0316826040518082805190602001908083835b602083106106625780518252601f199092019160209182019101610643565b6001836020036101000a038019825116818451168082178552505050505050905001915050600060405180830381855af49150503d80600081146106c2576040519150601f19603f3d011682016040523d82523d6000602084013e6106c7565b606091505b505090508061041757600080fd5b5050565b60006106e36107ad565b6001600160a01b0316336001600160a01b0316141561044e576104476107ad565b61070c6107ad565b6001600160a01b0316336001600160a01b0316141561075c5760405162461bcd60e51b81526004018080602001828103825260328152602001806108a56032913960400191505060405180910390fd5b610333610333565b7f360894a13ba1a3210667c828492db98dca3e2076cc3735a920a3ca505d382bbc5490565b3660008037600080366000845af43d6000803e8080156107a8573d6000f35b3d6000fd5b7fb53127684a568b3173ae13b9f8a6016e243e63b6e8ee1178d6a717850b5d61035490565b6107db81610836565b6040516001600160a01b038216907fbc7cd75a20ee27fd9adebab32041f755214dbc6bffa90cc0225b39da2e5c2d3b90600090a250565b7fb53127684a568b3173ae13b9f8a6016e243e63b6e8ee1178d6a717850b5d610355565b61083f8161089e565b61087a5760405162461bcd60e51b815260040180806020018281038252603b81526020018061090d603b913960400191505060405180910390fd5b7f360894a13ba1a3210667c828492db98dca3e2076cc3735a920a3ca505d382bbc55565b3b15159056fe43616e6e6f742063616c6c2066616c6c6261636b2066756e6374696f6e2066726f6d207468652070726f78792061646d696e43616e6e6f74206368616e6765207468652061646d696e206f6620612070726f787920746f20746865207a65726f206164647265737343616e6e6f742073657420612070726f787920696d706c656d656e746174696f6e20746f2061206e6f6e2d636f6e74726163742061646472657373a265627a7a723158203584f0431942c1f14e665dbd411e3292e41d9a07c6e65785027f46dae348be0564736f6c634300051100325468652063616c6c6572206d7573742062652074686520534947482046494e414e4345204d616e6167657250454e44494e475f4c454e44494e475f504f4f4c5f4d414e41474552000000004f6e6c79207468652050656e64696e6720534947482046696e616e6365204d616e616765722063616e2063616c6c20746869732066756e6374696f6e20746f20626520616363657074656420746f206265636f6d652074686520534947482046696e616e6365204d616e616765724f6e6c79207468652050656e64696e67204c656e64696e6720506f6f6c204d616e616765722063616e2063616c6c20746869732066756e6374696f6e20746f20626520616363657074656420746f206265636f6d6520746865204c656e64696e6720506f6f6c204d616e61676572534947485f46494e414e43455f4d414e4147455200000000000000000000000050454e44494e475f534947485f46494e414e43455f4d414e41474552000000005468652063616c6c6572206d75737420626520746865204c656e64696e672050726f746f636f6c204d616e616765724c454e44494e475f504f4f4c5f4d414e41474552000000000000000000000000a265627a7a72315820b829686218bb79c43c7ae96ecf38cd6b35e14d674fb469d60b3eddfa01f4ce0764736f6c63430005110032",
			"opcodes": "PUSH1 0x80 PUSH1 0x40 MSTORE PUSH1 0x1 DUP1 SLOAD PUSH2 0xFFFF NOT AND SWAP1 SSTORE CALLVALUE DUP1 ISZERO PUSH3 0x1C JUMPI PUSH1 0x0 DUP1 REVERT JUMPDEST POP PUSH1 0x40 MLOAD PUSH3 0x281B CODESIZE SUB DUP1 PUSH3 0x281B DUP4 CODECOPY DUP2 DUP2 ADD PUSH1 0x40 MSTORE PUSH1 0x40 DUP2 LT ISZERO PUSH3 0x42 JUMPI PUSH1 0x0 DUP1 REVERT JUMPDEST POP DUP1 MLOAD PUSH1 0x20 SWAP1 SWAP2 ADD MLOAD PUSH3 0x80 PUSH32 0x534947485F46494E414E43455F4D414E41474552000000000000000000000000 DUP4 PUSH1 0x1 PUSH1 0x1 PUSH1 0xE0 SHL SUB PUSH3 0x19D AND JUMP JUMPDEST PUSH3 0xB5 PUSH32 0x4C454E44494E475F504F4F4C5F4D414E41474552000000000000000000000000 DUP3 PUSH1 0x1 PUSH1 0x1 PUSH1 0xE0 SHL SUB PUSH3 0x19D AND JUMP JUMPDEST PUSH32 0x54A473CA1EAC369F8E9BCFBEDD5E7B6A025A683D5E1255F28B804658DFECFA5C PUSH3 0x10A PUSH32 0x534947485F46494E414E43455F4D414E41474552000000000000000000000000 PUSH1 0x1 PUSH1 0x1 PUSH1 0xE0 SHL SUB PUSH3 0x1CB AND JUMP JUMPDEST PUSH1 0x40 DUP1 MLOAD PUSH1 0x1 PUSH1 0x1 PUSH1 0xA0 SHL SUB SWAP1 SWAP3 AND DUP3 MSTORE MLOAD SWAP1 DUP2 SWAP1 SUB PUSH1 0x20 ADD SWAP1 LOG1 PUSH32 0xD5280C51185A38D36F7A0F5E56CAC6248312BB70D0974782FA5A595127E0E08E PUSH3 0x17A PUSH32 0x4C454E44494E475F504F4F4C5F4D414E41474552000000000000000000000000 PUSH1 0x1 PUSH1 0x1 PUSH1 0xE0 SHL SUB PUSH3 0x1CB AND JUMP JUMPDEST PUSH1 0x40 DUP1 MLOAD PUSH1 0x1 PUSH1 0x1 PUSH1 0xA0 SHL SUB SWAP1 SWAP3 AND DUP3 MSTORE MLOAD SWAP1 DUP2 SWAP1 SUB PUSH1 0x20 ADD SWAP1 LOG1 POP POP PUSH3 0x1E6 JUMP JUMPDEST PUSH1 0x0 SWAP2 DUP3 MSTORE PUSH1 0x20 DUP3 SWAP1 MSTORE PUSH1 0x40 SWAP1 SWAP2 KECCAK256 DUP1 SLOAD PUSH1 0x1 PUSH1 0x1 PUSH1 0xA0 SHL SUB NOT AND PUSH1 0x1 PUSH1 0x1 PUSH1 0xA0 SHL SUB SWAP1 SWAP3 AND SWAP2 SWAP1 SWAP2 OR SWAP1 SSTORE JUMP JUMPDEST PUSH1 0x0 SWAP1 DUP2 MSTORE PUSH1 0x20 DUP2 SWAP1 MSTORE PUSH1 0x40 SWAP1 KECCAK256 SLOAD PUSH1 0x1 PUSH1 0x1 PUSH1 0xA0 SHL SUB AND SWAP1 JUMP JUMPDEST PUSH2 0x2625 DUP1 PUSH3 0x1F6 PUSH1 0x0 CODECOPY PUSH1 0x0 RETURN INVALID PUSH1 0x80 PUSH1 0x40 MSTORE CALLVALUE DUP1 ISZERO PUSH2 0x10 JUMPI PUSH1 0x0 DUP1 REVERT JUMPDEST POP PUSH1 0x4 CALLDATASIZE LT PUSH2 0x253 JUMPI PUSH1 0x0 CALLDATALOAD PUSH1 0xE0 SHR DUP1 PUSH4 0x59E6130C GT PUSH2 0x146 JUMPI DUP1 PUSH4 0xAB3802CB GT PUSH2 0xC3 JUMPI DUP1 PUSH4 0xD557D56D GT PUSH2 0x87 JUMPI DUP1 PUSH4 0xD557D56D EQ PUSH2 0x5A1 JUMPI DUP1 PUSH4 0xD72E2802 EQ PUSH2 0x5C7 JUMPI DUP1 PUSH4 0xDB49224B EQ PUSH2 0x5CF JUMPI DUP1 PUSH4 0xED6FF760 EQ PUSH2 0x5D7 JUMPI DUP1 PUSH4 0xFBEEFC3C EQ PUSH2 0x5DF JUMPI DUP1 PUSH4 0xFCA513A8 EQ PUSH2 0x5E7 JUMPI PUSH2 0x253 JUMP JUMPDEST DUP1 PUSH4 0xAB3802CB EQ PUSH2 0x51F JUMPI DUP1 PUSH4 0xBFEDC103 EQ PUSH2 0x527 JUMPI DUP1 PUSH4 0xC12542DF EQ PUSH2 0x54D JUMPI DUP1 PUSH4 0xC145D058 EQ PUSH2 0x573 JUMPI DUP1 PUSH4 0xC5B3F337 EQ PUSH2 0x57B JUMPI PUSH2 0x253 JUMP JUMPDEST DUP1 PUSH4 0x832B705A GT PUSH2 0x10A JUMPI DUP1 PUSH4 0x832B705A EQ PUSH2 0x4BB JUMPI DUP1 PUSH4 0x841AA40C EQ PUSH2 0x4E1 JUMPI DUP1 PUSH4 0x85C858B1 EQ PUSH2 0x4E9 JUMPI DUP1 PUSH4 0x87854354 EQ PUSH2 0x4F1 JUMPI DUP1 PUSH4 0xA5EFACE2 EQ PUSH2 0x4F9 JUMPI PUSH2 0x253 JUMP JUMPDEST DUP1 PUSH4 0x59E6130C EQ PUSH2 0x439 JUMPI DUP1 PUSH4 0x5AEF021F EQ PUSH2 0x441 JUMPI DUP1 PUSH4 0x723130AC EQ PUSH2 0x467 JUMPI DUP1 PUSH4 0x7725C7BF EQ PUSH2 0x48D JUMPI DUP1 PUSH4 0x820D1274 EQ PUSH2 0x495 JUMPI PUSH2 0x253 JUMP JUMPDEST DUP1 PUSH4 0x2F58B80D GT PUSH2 0x1D4 JUMPI DUP1 PUSH4 0x39C06E28 GT PUSH2 0x198 JUMPI DUP1 PUSH4 0x39C06E28 EQ PUSH2 0x399 JUMPI DUP1 PUSH4 0x42D419BF EQ PUSH2 0x3BF JUMPI DUP1 PUSH4 0x44CE375B EQ PUSH2 0x3E5 JUMPI DUP1 PUSH4 0x530E784F EQ PUSH2 0x40B JUMPI DUP1 PUSH4 0x5834EB9A EQ PUSH2 0x431 JUMPI PUSH2 0x253 JUMP JUMPDEST DUP1 PUSH4 0x2F58B80D EQ PUSH2 0x335 JUMPI DUP1 PUSH4 0x33128D59 EQ PUSH2 0x33D JUMPI DUP1 PUSH4 0x343C1596 EQ PUSH2 0x345 JUMPI DUP1 PUSH4 0x3618ABBA EQ PUSH2 0x36B JUMPI DUP1 PUSH4 0x39AC577E EQ PUSH2 0x373 JUMPI PUSH2 0x253 JUMP JUMPDEST DUP1 PUSH4 0x1DB4F569 GT PUSH2 0x21B JUMPI DUP1 PUSH4 0x1DB4F569 EQ PUSH2 0x2DA JUMPI DUP1 PUSH4 0x21F8A721 EQ PUSH2 0x2E2 JUMPI DUP1 PUSH4 0x2A62C636 EQ PUSH2 0x2FF JUMPI DUP1 PUSH4 0x2E07F25D EQ PUSH2 0x325 JUMPI DUP1 PUSH4 0x2E7BAC46 EQ PUSH2 0x32D JUMPI PUSH2 0x253 JUMP JUMPDEST DUP1 PUSH4 0x261BF8B EQ PUSH2 0x258 JUMPI DUP1 PUSH4 0x4061D8E EQ PUSH2 0x27C JUMPI DUP1 PUSH4 0x904AC73 EQ PUSH2 0x284 JUMPI DUP1 PUSH4 0x145D02F0 EQ PUSH2 0x2AC JUMPI DUP1 PUSH4 0x1C827204 EQ PUSH2 0x2B4 JUMPI JUMPDEST PUSH1 0x0 DUP1 REVERT JUMPDEST PUSH2 0x260 PUSH2 0x5EF JUMP JUMPDEST PUSH1 0x40 DUP1 MLOAD PUSH1 0x1 PUSH1 0x1 PUSH1 0xA0 SHL SUB SWAP1 SWAP3 AND DUP3 MSTORE MLOAD SWAP1 DUP2 SWAP1 SUB PUSH1 0x20 ADD SWAP1 RETURN JUMPDEST PUSH2 0x260 PUSH2 0x60E JUMP JUMPDEST PUSH2 0x2AA PUSH1 0x4 DUP1 CALLDATASIZE SUB PUSH1 0x20 DUP2 LT ISZERO PUSH2 0x29A JUMPI PUSH1 0x0 DUP1 REVERT JUMPDEST POP CALLDATALOAD PUSH1 0x1 PUSH1 0x1 PUSH1 0xA0 SHL SUB AND PUSH2 0x62F JUMP JUMPDEST STOP JUMPDEST PUSH2 0x260 PUSH2 0x6E9 JUMP JUMPDEST PUSH2 0x2AA PUSH1 0x4 DUP1 CALLDATASIZE SUB PUSH1 0x20 DUP2 LT ISZERO PUSH2 0x2CA JUMPI PUSH1 0x0 DUP1 REVERT JUMPDEST POP CALLDATALOAD PUSH1 0x1 PUSH1 0x1 PUSH1 0xA0 SHL SUB AND PUSH2 0x714 JUMP JUMPDEST PUSH2 0x260 PUSH2 0x7CC JUMP JUMPDEST PUSH2 0x260 PUSH1 0x4 DUP1 CALLDATASIZE SUB PUSH1 0x20 DUP2 LT ISZERO PUSH2 0x2F8 JUMPI PUSH1 0x0 DUP1 REVERT JUMPDEST POP CALLDATALOAD PUSH2 0x7E2 JUMP JUMPDEST PUSH2 0x2AA PUSH1 0x4 DUP1 CALLDATASIZE SUB PUSH1 0x20 DUP2 LT ISZERO PUSH2 0x315 JUMPI PUSH1 0x0 DUP1 REVERT JUMPDEST POP CALLDATALOAD PUSH1 0x1 PUSH1 0x1 PUSH1 0xA0 SHL SUB AND PUSH2 0x7FD JUMP JUMPDEST PUSH2 0x2AA PUSH2 0x8B0 JUMP JUMPDEST PUSH2 0x260 PUSH2 0x9EC JUMP JUMPDEST PUSH2 0x260 PUSH2 0xA05 JUMP JUMPDEST PUSH2 0x260 PUSH2 0xA20 JUMP JUMPDEST PUSH2 0x2AA PUSH1 0x4 DUP1 CALLDATASIZE SUB PUSH1 0x20 DUP2 LT ISZERO PUSH2 0x35B JUMPI PUSH1 0x0 DUP1 REVERT JUMPDEST POP CALLDATALOAD PUSH1 0x1 PUSH1 0x1 PUSH1 0xA0 SHL SUB AND PUSH2 0xA39 JUMP JUMPDEST PUSH2 0x260 PUSH2 0xAEC JUMP JUMPDEST PUSH2 0x2AA PUSH1 0x4 DUP1 CALLDATASIZE SUB PUSH1 0x20 DUP2 LT ISZERO PUSH2 0x389 JUMPI PUSH1 0x0 DUP1 REVERT JUMPDEST POP CALLDATALOAD PUSH1 0x1 PUSH1 0x1 PUSH1 0xA0 SHL SUB AND PUSH2 0xB0D JUMP JUMPDEST PUSH2 0x2AA PUSH1 0x4 DUP1 CALLDATASIZE SUB PUSH1 0x20 DUP2 LT ISZERO PUSH2 0x3AF JUMPI PUSH1 0x0 DUP1 REVERT JUMPDEST POP CALLDATALOAD PUSH1 0x1 PUSH1 0x1 PUSH1 0xA0 SHL SUB AND PUSH2 0xBCD JUMP JUMPDEST PUSH2 0x2AA PUSH1 0x4 DUP1 CALLDATASIZE SUB PUSH1 0x20 DUP2 LT ISZERO PUSH2 0x3D5 JUMPI PUSH1 0x0 DUP1 REVERT JUMPDEST POP CALLDATALOAD PUSH1 0x1 PUSH1 0x1 PUSH1 0xA0 SHL SUB AND PUSH2 0xC91 JUMP JUMPDEST PUSH2 0x2AA PUSH1 0x4 DUP1 CALLDATASIZE SUB PUSH1 0x20 DUP2 LT ISZERO PUSH2 0x3FB JUMPI PUSH1 0x0 DUP1 REVERT JUMPDEST POP CALLDATALOAD PUSH1 0x1 PUSH1 0x1 PUSH1 0xA0 SHL SUB AND PUSH2 0xD4B JUMP JUMPDEST PUSH2 0x2AA PUSH1 0x4 DUP1 CALLDATASIZE SUB PUSH1 0x20 DUP2 LT ISZERO PUSH2 0x421 JUMPI PUSH1 0x0 DUP1 REVERT JUMPDEST POP CALLDATALOAD PUSH1 0x1 PUSH1 0x1 PUSH1 0xA0 SHL SUB AND PUSH2 0xE05 JUMP JUMPDEST PUSH2 0x260 PUSH2 0xEB8 JUMP JUMPDEST PUSH2 0x260 PUSH2 0xED9 JUMP JUMPDEST PUSH2 0x2AA PUSH1 0x4 DUP1 CALLDATASIZE SUB PUSH1 0x20 DUP2 LT ISZERO PUSH2 0x457 JUMPI PUSH1 0x0 DUP1 REVERT JUMPDEST POP CALLDATALOAD PUSH1 0x1 PUSH1 0x1 PUSH1 0xA0 SHL SUB AND PUSH2 0xEF4 JUMP JUMPDEST PUSH2 0x2AA PUSH1 0x4 DUP1 CALLDATASIZE SUB PUSH1 0x20 DUP2 LT ISZERO PUSH2 0x47D JUMPI PUSH1 0x0 DUP1 REVERT JUMPDEST POP CALLDATALOAD PUSH1 0x1 PUSH1 0x1 PUSH1 0xA0 SHL SUB AND PUSH2 0xFA7 JUMP JUMPDEST PUSH2 0x2AA PUSH2 0x105E JUMP JUMPDEST PUSH2 0x2AA PUSH1 0x4 DUP1 CALLDATASIZE SUB PUSH1 0x20 DUP2 LT ISZERO PUSH2 0x4AB JUMPI PUSH1 0x0 DUP1 REVERT JUMPDEST POP CALLDATALOAD PUSH1 0x1 PUSH1 0x1 PUSH1 0xA0 SHL SUB AND PUSH2 0x117C JUMP JUMPDEST PUSH2 0x2AA PUSH1 0x4 DUP1 CALLDATASIZE SUB PUSH1 0x20 DUP2 LT ISZERO PUSH2 0x4D1 JUMPI PUSH1 0x0 DUP1 REVERT JUMPDEST POP CALLDATALOAD PUSH1 0x1 PUSH1 0x1 PUSH1 0xA0 SHL SUB AND PUSH2 0x1236 JUMP JUMPDEST PUSH2 0x260 PUSH2 0x12F6 JUMP JUMPDEST PUSH2 0x260 PUSH2 0x1308 JUMP JUMPDEST PUSH2 0x260 PUSH2 0x132F JUMP JUMPDEST PUSH2 0x2AA PUSH1 0x4 DUP1 CALLDATASIZE SUB PUSH1 0x20 DUP2 LT ISZERO PUSH2 0x50F JUMPI PUSH1 0x0 DUP1 REVERT JUMPDEST POP CALLDATALOAD PUSH1 0x1 PUSH1 0x1 PUSH1 0xA0 SHL SUB AND PUSH2 0x1348 JUMP JUMPDEST PUSH2 0x260 PUSH2 0x1402 JUMP JUMPDEST PUSH2 0x2AA PUSH1 0x4 DUP1 CALLDATASIZE SUB PUSH1 0x20 DUP2 LT ISZERO PUSH2 0x53D JUMPI PUSH1 0x0 DUP1 REVERT JUMPDEST POP CALLDATALOAD PUSH1 0x1 PUSH1 0x1 PUSH1 0xA0 SHL SUB AND PUSH2 0x1425 JUMP JUMPDEST PUSH2 0x2AA PUSH1 0x4 DUP1 CALLDATASIZE SUB PUSH1 0x20 DUP2 LT ISZERO PUSH2 0x563 JUMPI PUSH1 0x0 DUP1 REVERT JUMPDEST POP CALLDATALOAD PUSH1 0x1 PUSH1 0x1 PUSH1 0xA0 SHL SUB AND PUSH2 0x14D9 JUMP JUMPDEST PUSH2 0x260 PUSH2 0x1599 JUMP JUMPDEST PUSH2 0x2AA PUSH1 0x4 DUP1 CALLDATASIZE SUB PUSH1 0x20 DUP2 LT ISZERO PUSH2 0x591 JUMPI PUSH1 0x0 DUP1 REVERT JUMPDEST POP CALLDATALOAD PUSH1 0x1 PUSH1 0x1 PUSH1 0xA0 SHL SUB AND PUSH2 0x15B2 JUMP JUMPDEST PUSH2 0x2AA PUSH1 0x4 DUP1 CALLDATASIZE SUB PUSH1 0x20 DUP2 LT ISZERO PUSH2 0x5B7 JUMPI PUSH1 0x0 DUP1 REVERT JUMPDEST POP CALLDATALOAD PUSH1 0x1 PUSH1 0x1 PUSH1 0xA0 SHL SUB AND PUSH2 0x1666 JUMP JUMPDEST PUSH2 0x260 PUSH2 0x1722 JUMP JUMPDEST PUSH2 0x260 PUSH2 0x1749 JUMP JUMPDEST PUSH2 0x260 PUSH2 0x1770 JUMP JUMPDEST PUSH2 0x260 PUSH2 0x1796 JUMP JUMPDEST PUSH2 0x260 PUSH2 0x17B0 JUMP JUMPDEST PUSH1 0x0 PUSH2 0x609 PUSH12 0x13115391125391D7D413D3D3 PUSH1 0xA2 SHL PUSH2 0x7E2 JUMP JUMPDEST SWAP1 POP SWAP1 JUMP JUMPDEST PUSH1 0x0 PUSH2 0x609 PUSH19 0x2820A920A6A2AA22A929AFA82927AB24A222A9 PUSH1 0x69 SHL PUSH2 0x7E2 JUMP JUMPDEST PUSH1 0x0 PUSH2 0x648 PUSH1 0x0 DUP1 MLOAD PUSH1 0x20 PUSH2 0x25D1 DUP4 CODECOPY DUP2 MLOAD SWAP2 MSTORE PUSH2 0x7E2 JUMP JUMPDEST SWAP1 POP PUSH1 0x1 PUSH1 0x1 PUSH1 0xA0 SHL SUB DUP2 AND CALLER EQ PUSH2 0x691 JUMPI PUSH1 0x40 MLOAD PUSH3 0x461BCD PUSH1 0xE5 SHL DUP2 MSTORE PUSH1 0x4 ADD DUP1 DUP1 PUSH1 0x20 ADD DUP3 DUP2 SUB DUP3 MSTORE PUSH1 0x2F DUP2 MSTORE PUSH1 0x20 ADD DUP1 PUSH2 0x25A2 PUSH1 0x2F SWAP2 CODECOPY PUSH1 0x40 ADD SWAP2 POP POP PUSH1 0x40 MLOAD DUP1 SWAP2 SUB SWAP1 REVERT JUMPDEST PUSH2 0x6A9 PUSH1 0x0 DUP1 MLOAD PUSH1 0x20 PUSH2 0x2466 DUP4 CODECOPY DUP2 MLOAD SWAP2 MSTORE DUP4 PUSH2 0x17CA JUMP JUMPDEST PUSH1 0x40 DUP1 MLOAD PUSH1 0x1 PUSH1 0x1 PUSH1 0xA0 SHL SUB DUP5 AND DUP2 MSTORE SWAP1 MLOAD PUSH32 0xEE02FBE602FD541026969F988B76E795CC611D62F5B0C23E7D4882C7DED4231E SWAP2 DUP2 SWAP1 SUB PUSH1 0x20 ADD SWAP1 LOG1 POP POP JUMP JUMPDEST PUSH1 0x0 PUSH2 0x609 PUSH32 0x534947485F46696E616E63655F4665655F436F6C6C6563746F72000000000000 PUSH2 0x7E2 JUMP JUMPDEST PUSH1 0x0 PUSH2 0x72D PUSH1 0x0 DUP1 MLOAD PUSH1 0x20 PUSH2 0x25D1 DUP4 CODECOPY DUP2 MLOAD SWAP2 MSTORE PUSH2 0x7E2 JUMP JUMPDEST SWAP1 POP PUSH1 0x1 PUSH1 0x1 PUSH1 0xA0 SHL SUB DUP2 AND CALLER EQ PUSH2 0x776 JUMPI PUSH1 0x40 MLOAD PUSH3 0x461BCD PUSH1 0xE5 SHL DUP2 MSTORE PUSH1 0x4 ADD DUP1 DUP1 PUSH1 0x20 ADD DUP3 DUP2 SUB DUP3 MSTORE PUSH1 0x2F DUP2 MSTORE PUSH1 0x20 ADD DUP1 PUSH2 0x25A2 PUSH1 0x2F SWAP2 CODECOPY PUSH1 0x40 ADD SWAP2 POP POP PUSH1 0x40 MLOAD DUP1 SWAP2 SUB SWAP1 REVERT JUMPDEST PUSH2 0x794 PUSH17 0x4C454E44494E475F504F4F4C5F434F5245 PUSH1 0x78 SHL DUP4 PUSH2 0x17F8 JUMP JUMPDEST PUSH1 0x40 MLOAD PUSH1 0x1 PUSH1 0x1 PUSH1 0xA0 SHL SUB DUP4 AND SWAP1 PUSH32 0x71C226BB2879778CA1298196BF7CC1256BAEE9D05B496C31EE627D35A471B5B7 SWAP1 PUSH1 0x0 SWAP1 LOG2 POP POP JUMP JUMPDEST PUSH1 0x0 PUSH2 0x609 PUSH12 0x534947485F5354414B494E47 PUSH1 0xA0 SHL JUMPDEST PUSH1 0x0 SWAP1 DUP2 MSTORE PUSH1 0x20 DUP2 SWAP1 MSTORE PUSH1 0x40 SWAP1 KECCAK256 SLOAD PUSH1 0x1 PUSH1 0x1 PUSH1 0xA0 SHL SUB AND SWAP1 JUMP JUMPDEST PUSH1 0x0 PUSH2 0x816 PUSH1 0x0 DUP1 MLOAD PUSH1 0x20 PUSH2 0x25D1 DUP4 CODECOPY DUP2 MLOAD SWAP2 MSTORE PUSH2 0x7E2 JUMP JUMPDEST SWAP1 POP PUSH1 0x1 PUSH1 0x1 PUSH1 0xA0 SHL SUB DUP2 AND CALLER EQ PUSH2 0x85F JUMPI PUSH1 0x40 MLOAD PUSH3 0x461BCD PUSH1 0xE5 SHL DUP2 MSTORE PUSH1 0x4 ADD DUP1 DUP1 PUSH1 0x20 ADD DUP3 DUP2 SUB DUP3 MSTORE PUSH1 0x2F DUP2 MSTORE PUSH1 0x20 ADD DUP1 PUSH2 0x25A2 PUSH1 0x2F SWAP2 CODECOPY PUSH1 0x40 ADD SWAP2 POP POP PUSH1 0x40 MLOAD DUP1 SWAP2 SUB SWAP1 REVERT JUMPDEST PUSH2 0x878 PUSH12 0x2322A2AFA82927AB24A222A9 PUSH1 0xA1 SHL DUP4 PUSH2 0x17F8 JUMP JUMPDEST PUSH1 0x40 MLOAD PUSH1 0x1 PUSH1 0x1 PUSH1 0xA0 SHL SUB DUP4 AND SWAP1 PUSH32 0x18E1A55B8EFF9C93921EECFA1462D6A8CBB80B3988DB3EB14C039E43FDB22661 SWAP1 PUSH1 0x0 SWAP1 LOG2 POP POP JUMP JUMPDEST PUSH1 0x0 PUSH2 0x8C9 PUSH1 0x0 DUP1 MLOAD PUSH1 0x20 PUSH2 0x2582 DUP4 CODECOPY DUP2 MLOAD SWAP2 MSTORE PUSH2 0x7E2 JUMP JUMPDEST SWAP1 POP CALLER PUSH1 0x1 PUSH1 0x1 PUSH1 0xA0 SHL SUB DUP3 AND EQ PUSH2 0x912 JUMPI PUSH1 0x40 MLOAD PUSH3 0x461BCD PUSH1 0xE5 SHL DUP2 MSTORE PUSH1 0x4 ADD DUP1 DUP1 PUSH1 0x20 ADD DUP3 DUP2 SUB DUP3 MSTORE PUSH1 0x6E DUP2 MSTORE PUSH1 0x20 ADD DUP1 PUSH2 0x2486 PUSH1 0x6E SWAP2 CODECOPY PUSH1 0x80 ADD SWAP2 POP POP PUSH1 0x40 MLOAD DUP1 SWAP2 SUB SWAP1 REVERT JUMPDEST PUSH2 0x92A PUSH1 0x0 DUP1 MLOAD PUSH1 0x20 PUSH2 0x2562 DUP4 CODECOPY DUP2 MLOAD SWAP2 MSTORE DUP3 PUSH2 0x17CA JUMP JUMPDEST PUSH2 0x943 PUSH1 0x0 DUP1 MLOAD PUSH1 0x20 PUSH2 0x2582 DUP4 CODECOPY DUP2 MLOAD SWAP2 MSTORE PUSH1 0x0 PUSH2 0x17CA JUMP JUMPDEST PUSH32 0xA91FA516FE78C8763B8C5DC4A2B5B9A14F1EC037EFFB782EB387995A8140C4C PUSH2 0x97B PUSH1 0x0 DUP1 MLOAD PUSH1 0x20 PUSH2 0x2582 DUP4 CODECOPY DUP2 MLOAD SWAP2 MSTORE PUSH2 0x7E2 JUMP JUMPDEST PUSH1 0x40 DUP1 MLOAD PUSH1 0x1 PUSH1 0x1 PUSH1 0xA0 SHL SUB SWAP1 SWAP3 AND DUP3 MSTORE MLOAD SWAP1 DUP2 SWAP1 SUB PUSH1 0x20 ADD SWAP1 LOG1 PUSH32 0x54A473CA1EAC369F8E9BCFBEDD5E7B6A025A683D5E1255F28B804658DFECFA5C PUSH2 0x9CE PUSH1 0x0 DUP1 MLOAD PUSH1 0x20 PUSH2 0x2562 DUP4 CODECOPY DUP2 MLOAD SWAP2 MSTORE PUSH2 0x7E2 JUMP JUMPDEST PUSH1 0x40 DUP1 MLOAD PUSH1 0x1 PUSH1 0x1 PUSH1 0xA0 SHL SUB SWAP1 SWAP3 AND DUP3 MSTORE MLOAD SWAP1 DUP2 SWAP1 SUB PUSH1 0x20 ADD SWAP1 LOG1 POP JUMP JUMPDEST PUSH1 0x0 PUSH2 0x609 PUSH1 0x0 DUP1 MLOAD PUSH1 0x20 PUSH2 0x2466 DUP4 CODECOPY DUP2 MLOAD SWAP2 MSTORE PUSH2 0x7E2 JUMP JUMPDEST PUSH1 0x0 PUSH2 0x609 PUSH13 0x2220AA20AFA82927AB24A222A9 PUSH1 0x99 SHL PUSH2 0x7E2 JUMP JUMPDEST PUSH1 0x0 PUSH2 0x609 PUSH1 0x0 DUP1 MLOAD PUSH1 0x20 PUSH2 0x25D1 DUP4 CODECOPY DUP2 MLOAD SWAP2 MSTORE PUSH2 0x7E2 JUMP JUMPDEST PUSH1 0x0 PUSH2 0xA52 PUSH1 0x0 DUP1 MLOAD PUSH1 0x20 PUSH2 0x2562 DUP4 CODECOPY DUP2 MLOAD SWAP2 MSTORE PUSH2 0x7E2 JUMP JUMPDEST SWAP1 POP PUSH1 0x1 PUSH1 0x1 PUSH1 0xA0 SHL SUB DUP2 AND CALLER EQ PUSH2 0xA9B JUMPI PUSH1 0x40 MLOAD PUSH3 0x461BCD PUSH1 0xE5 SHL DUP2 MSTORE PUSH1 0x4 ADD DUP1 DUP1 PUSH1 0x20 ADD DUP3 DUP2 SUB DUP3 MSTORE PUSH1 0x2B DUP2 MSTORE PUSH1 0x20 ADD DUP1 PUSH2 0x243B PUSH1 0x2B SWAP2 CODECOPY PUSH1 0x40 ADD SWAP2 POP POP PUSH1 0x40 MLOAD DUP1 SWAP2 SUB SWAP1 REVERT JUMPDEST PUSH2 0xAB4 PUSH12 0x534947485F5354414B494E47 PUSH1 0xA0 SHL DUP4 PUSH2 0x17CA JUMP JUMPDEST PUSH1 0x40 MLOAD PUSH1 0x1 PUSH1 0x1 PUSH1 0xA0 SHL SUB DUP4 AND SWAP1 PUSH32 0x5F8861BB6E28928A4078090240DA9377FE5DEDAA4AC6FBDC29AB3A6A057F28D9 SWAP1 PUSH1 0x0 SWAP1 LOG2 POP POP JUMP JUMPDEST PUSH1 0x0 PUSH2 0x609 PUSH19 0x4C454E44494E475F524154455F4F5241434C45 PUSH1 0x68 SHL PUSH2 0x7E2 JUMP JUMPDEST PUSH1 0x0 PUSH2 0xB26 PUSH1 0x0 DUP1 MLOAD PUSH1 0x20 PUSH2 0x2562 DUP4 CODECOPY DUP2 MLOAD SWAP2 MSTORE PUSH2 0x7E2 JUMP JUMPDEST SWAP1 POP PUSH1 0x1 PUSH1 0x1 PUSH1 0xA0 SHL SUB DUP2 AND CALLER EQ PUSH2 0xB6F JUMPI PUSH1 0x40 MLOAD PUSH3 0x461BCD PUSH1 0xE5 SHL DUP2 MSTORE PUSH1 0x4 ADD DUP1 DUP1 PUSH1 0x20 ADD DUP3 DUP2 SUB DUP3 MSTORE PUSH1 0x2B DUP2 MSTORE PUSH1 0x20 ADD DUP1 PUSH2 0x243B PUSH1 0x2B SWAP2 CODECOPY PUSH1 0x40 ADD SWAP2 POP POP PUSH1 0x40 MLOAD DUP1 SWAP2 SUB SWAP1 REVERT JUMPDEST PUSH2 0xB95 PUSH25 0x29A4A3A42FAB27A620AA24A624AA2CAFA420A92B22A9AA22A9 PUSH1 0x39 SHL DUP4 PUSH2 0x17F8 JUMP JUMPDEST PUSH1 0x40 MLOAD PUSH1 0x1 PUSH1 0x1 PUSH1 0xA0 SHL SUB DUP4 AND SWAP1 PUSH32 0x91CEF99C1FA0AC832709F2282AC310F01778AB480EC164CCF068EB4C31116866 SWAP1 PUSH1 0x0 SWAP1 LOG2 POP POP JUMP JUMPDEST PUSH1 0x0 PUSH2 0xBE6 PUSH1 0x0 DUP1 MLOAD PUSH1 0x20 PUSH2 0x2562 DUP4 CODECOPY DUP2 MLOAD SWAP2 MSTORE PUSH2 0x7E2 JUMP JUMPDEST SWAP1 POP PUSH1 0x1 PUSH1 0x1 PUSH1 0xA0 SHL SUB DUP2 AND CALLER EQ PUSH2 0xC2F JUMPI PUSH1 0x40 MLOAD PUSH3 0x461BCD PUSH1 0xE5 SHL DUP2 MSTORE PUSH1 0x4 ADD DUP1 DUP1 PUSH1 0x20 ADD DUP3 DUP2 SUB DUP3 MSTORE PUSH1 0x2B DUP2 MSTORE PUSH1 0x20 ADD DUP1 PUSH2 0x243B PUSH1 0x2B SWAP2 CODECOPY PUSH1 0x40 ADD SWAP2 POP POP PUSH1 0x40 MLOAD DUP1 SWAP2 SUB SWAP1 REVERT JUMPDEST PUSH2 0xC59 PUSH32 0x534947485F46696E616E63655F4665655F436F6C6C6563746F72000000000000 DUP4 PUSH2 0x17CA JUMP JUMPDEST PUSH1 0x40 MLOAD PUSH1 0x1 PUSH1 0x1 PUSH1 0xA0 SHL SUB DUP4 AND SWAP1 PUSH32 0x39722A85365E94D1C12CB806B2D9E930373A8AEE79C6691A20ABEBEB6554C5D7 SWAP1 PUSH1 0x0 SWAP1 LOG2 POP POP JUMP JUMPDEST PUSH1 0x0 PUSH2 0xCAA PUSH1 0x0 DUP1 MLOAD PUSH1 0x20 PUSH2 0x2562 DUP4 CODECOPY DUP2 MLOAD SWAP2 MSTORE PUSH2 0x7E2 JUMP JUMPDEST SWAP1 POP PUSH1 0x1 PUSH1 0x1 PUSH1 0xA0 SHL SUB DUP2 AND CALLER EQ PUSH2 0xCF3 JUMPI PUSH1 0x40 MLOAD PUSH3 0x461BCD PUSH1 0xE5 SHL DUP2 MSTORE PUSH1 0x4 ADD DUP1 DUP1 PUSH1 0x20 ADD DUP3 DUP2 SUB DUP3 MSTORE PUSH1 0x2B DUP2 MSTORE PUSH1 0x20 ADD DUP1 PUSH2 0x243B PUSH1 0x2B SWAP2 CODECOPY PUSH1 0x40 ADD SWAP2 POP POP PUSH1 0x40 MLOAD DUP1 SWAP2 SUB SWAP1 REVERT JUMPDEST PUSH2 0xD0B PUSH1 0x0 DUP1 MLOAD PUSH1 0x20 PUSH2 0x2582 DUP4 CODECOPY DUP2 MLOAD SWAP2 MSTORE DUP4 PUSH2 0x17CA JUMP JUMPDEST PUSH1 0x40 DUP1 MLOAD PUSH1 0x1 PUSH1 0x1 PUSH1 0xA0 SHL SUB DUP5 AND DUP2 MSTORE SWAP1 MLOAD PUSH32 0xA91FA516FE78C8763B8C5DC4A2B5B9A14F1EC037EFFB782EB387995A8140C4C SWAP2 DUP2 SWAP1 SUB PUSH1 0x20 ADD SWAP1 LOG1 POP POP JUMP JUMPDEST PUSH1 0x0 PUSH2 0xD64 PUSH1 0x0 DUP1 MLOAD PUSH1 0x20 PUSH2 0x25D1 DUP4 CODECOPY DUP2 MLOAD SWAP2 MSTORE PUSH2 0x7E2 JUMP JUMPDEST SWAP1 POP PUSH1 0x1 PUSH1 0x1 PUSH1 0xA0 SHL SUB DUP2 AND CALLER EQ PUSH2 0xDAD JUMPI PUSH1 0x40 MLOAD PUSH3 0x461BCD PUSH1 0xE5 SHL DUP2 MSTORE PUSH1 0x4 ADD DUP1 DUP1 PUSH1 0x20 ADD DUP3 DUP2 SUB DUP3 MSTORE PUSH1 0x2F DUP2 MSTORE PUSH1 0x20 ADD DUP1 PUSH2 0x25A2 PUSH1 0x2F SWAP2 CODECOPY PUSH1 0x40 ADD SWAP2 POP POP PUSH1 0x40 MLOAD DUP1 SWAP2 SUB SWAP1 REVERT JUMPDEST PUSH2 0xDCD PUSH19 0x2624A8AAA4A220AA24A7A72FA6A0A720A3A2A9 PUSH1 0x69 SHL DUP4 PUSH2 0x17CA JUMP JUMPDEST PUSH1 0x40 MLOAD PUSH1 0x1 PUSH1 0x1 PUSH1 0xA0 SHL SUB DUP4 AND SWAP1 PUSH32 0x1A76CB769B814BC038223DA86932B099B20AAE03473683E6D98F5C3554E26064 SWAP1 PUSH1 0x0 SWAP1 LOG2 POP POP JUMP JUMPDEST PUSH1 0x0 PUSH2 0xE1E PUSH1 0x0 DUP1 MLOAD PUSH1 0x20 PUSH2 0x25D1 DUP4 CODECOPY DUP2 MLOAD SWAP2 MSTORE PUSH2 0x7E2 JUMP JUMPDEST SWAP1 POP PUSH1 0x1 PUSH1 0x1 PUSH1 0xA0 SHL SUB DUP2 AND CALLER EQ PUSH2 0xE67 JUMPI PUSH1 0x40 MLOAD PUSH3 0x461BCD PUSH1 0xE5 SHL DUP2 MSTORE PUSH1 0x4 ADD DUP1 DUP1 PUSH1 0x20 ADD DUP3 DUP2 SUB DUP3 MSTORE PUSH1 0x2F DUP2 MSTORE PUSH1 0x20 ADD DUP1 PUSH2 0x25A2 PUSH1 0x2F SWAP2 CODECOPY PUSH1 0x40 ADD SWAP2 POP POP PUSH1 0x40 MLOAD DUP1 SWAP2 SUB SWAP1 REVERT JUMPDEST PUSH2 0xE80 PUSH12 0x50524943455F4F5241434C45 PUSH1 0xA0 SHL DUP4 PUSH2 0x17CA JUMP JUMPDEST PUSH1 0x40 MLOAD PUSH1 0x1 PUSH1 0x1 PUSH1 0xA0 SHL SUB DUP4 AND SWAP1 PUSH32 0xEFE8AB924CA486283A79DC604BAA67ADD51AFB82AF1DB8AC386EBBBA643CDFFD SWAP1 PUSH1 0x0 SWAP1 LOG2 POP POP JUMP JUMPDEST PUSH1 0x0 PUSH2 0x609 PUSH19 0x2624A8AAA4A220AA24A7A72FA6A0A720A3A2A9 PUSH1 0x69 SHL PUSH2 0x7E2 JUMP JUMPDEST PUSH1 0x0 PUSH2 0x609 PUSH13 0x534947485F5452454153555259 PUSH1 0x98 SHL PUSH2 0x7E2 JUMP JUMPDEST PUSH1 0x0 PUSH2 0xF0D PUSH1 0x0 DUP1 MLOAD PUSH1 0x20 PUSH2 0x25D1 DUP4 CODECOPY DUP2 MLOAD SWAP2 MSTORE PUSH2 0x7E2 JUMP JUMPDEST SWAP1 POP PUSH1 0x1 PUSH1 0x1 PUSH1 0xA0 SHL SUB DUP2 AND CALLER EQ PUSH2 0xF56 JUMPI PUSH1 0x40 MLOAD PUSH3 0x461BCD PUSH1 0xE5 SHL DUP2 MSTORE PUSH1 0x4 ADD DUP1 DUP1 PUSH1 0x20 ADD DUP3 DUP2 SUB DUP3 MSTORE PUSH1 0x2F DUP2 MSTORE PUSH1 0x20 ADD DUP1 PUSH2 0x25A2 PUSH1 0x2F SWAP2 CODECOPY PUSH1 0x40 ADD SWAP2 POP POP PUSH1 0x40 MLOAD DUP1 SWAP2 SUB SWAP1 REVERT JUMPDEST PUSH2 0xF6F PUSH12 0x13115391125391D7D413D3D3 PUSH1 0xA2 SHL DUP4 PUSH2 0x17F8 JUMP JUMPDEST PUSH1 0x40 MLOAD PUSH1 0x1 PUSH1 0x1 PUSH1 0xA0 SHL SUB DUP4 AND SWAP1 PUSH32 0xC4E6C6CDF28D0EDBD8BCF071D724D33CC2E7A30BE7D06443925656E9CB492AA4 SWAP1 PUSH1 0x0 SWAP1 LOG2 POP POP JUMP JUMPDEST PUSH1 0x0 PUSH2 0xFC0 PUSH1 0x0 DUP1 MLOAD PUSH1 0x20 PUSH2 0x2562 DUP4 CODECOPY DUP2 MLOAD SWAP2 MSTORE PUSH2 0x7E2 JUMP JUMPDEST SWAP1 POP PUSH1 0x1 PUSH1 0x1 PUSH1 0xA0 SHL SUB DUP2 AND CALLER EQ PUSH2 0x1009 JUMPI PUSH1 0x40 MLOAD PUSH3 0x461BCD PUSH1 0xE5 SHL DUP2 MSTORE PUSH1 0x4 ADD DUP1 DUP1 PUSH1 0x20 ADD DUP3 DUP2 SUB DUP3 MSTORE PUSH1 0x2B DUP2 MSTORE PUSH1 0x20 ADD DUP1 PUSH2 0x243B PUSH1 0x2B SWAP2 CODECOPY PUSH1 0x40 ADD SWAP2 POP POP PUSH1 0x40 MLOAD DUP1 SWAP2 SUB SWAP1 REVERT JUMPDEST PUSH1 0x1 DUP1 SLOAD PUSH1 0xFF NOT AND DUP2 OR SWAP1 SSTORE PUSH2 0x1026 PUSH4 0xA6928E9 PUSH1 0xE3 SHL DUP4 PUSH2 0x17CA JUMP JUMPDEST PUSH1 0x40 MLOAD PUSH1 0x1 PUSH1 0x1 PUSH1 0xA0 SHL SUB DUP4 AND SWAP1 PUSH32 0x381506510C1E0C6490721A2B661B0150F544E59C97FF556D7668D894B414EC7D SWAP1 PUSH1 0x0 SWAP1 LOG2 POP POP JUMP JUMPDEST PUSH1 0x0 PUSH2 0x1077 PUSH1 0x0 DUP1 MLOAD PUSH1 0x20 PUSH2 0x2466 DUP4 CODECOPY DUP2 MLOAD SWAP2 MSTORE PUSH2 0x7E2 JUMP JUMPDEST SWAP1 POP CALLER PUSH1 0x1 PUSH1 0x1 PUSH1 0xA0 SHL SUB DUP3 AND EQ PUSH2 0x10C0 JUMPI PUSH1 0x40 MLOAD PUSH3 0x461BCD PUSH1 0xE5 SHL DUP2 MSTORE PUSH1 0x4 ADD DUP1 DUP1 PUSH1 0x20 ADD DUP3 DUP2 SUB DUP3 MSTORE PUSH1 0x6E DUP2 MSTORE PUSH1 0x20 ADD DUP1 PUSH2 0x24F4 PUSH1 0x6E SWAP2 CODECOPY PUSH1 0x80 ADD SWAP2 POP POP PUSH1 0x40 MLOAD DUP1 SWAP2 SUB SWAP1 REVERT JUMPDEST PUSH2 0x10D8 PUSH1 0x0 DUP1 MLOAD PUSH1 0x20 PUSH2 0x25D1 DUP4 CODECOPY DUP2 MLOAD SWAP2 MSTORE DUP3 PUSH2 0x17CA JUMP JUMPDEST PUSH2 0x10F1 PUSH1 0x0 DUP1 MLOAD PUSH1 0x20 PUSH2 0x2466 DUP4 CODECOPY DUP2 MLOAD SWAP2 MSTORE PUSH1 0x0 PUSH2 0x17CA JUMP JUMPDEST PUSH32 0xEE02FBE602FD541026969F988B76E795CC611D62F5B0C23E7D4882C7DED4231E PUSH2 0x1129 PUSH1 0x0 DUP1 MLOAD PUSH1 0x20 PUSH2 0x2466 DUP4 CODECOPY DUP2 MLOAD SWAP2 MSTORE PUSH2 0x7E2 JUMP JUMPDEST PUSH1 0x40 DUP1 MLOAD PUSH1 0x1 PUSH1 0x1 PUSH1 0xA0 SHL SUB SWAP1 SWAP3 AND DUP3 MSTORE MLOAD SWAP1 DUP2 SWAP1 SUB PUSH1 0x20 ADD SWAP1 LOG1 PUSH32 0xD5280C51185A38D36F7A0F5E56CAC6248312BB70D0974782FA5A595127E0E08E PUSH2 0x9CE PUSH1 0x0 DUP1 MLOAD PUSH1 0x20 PUSH2 0x25D1 DUP4 CODECOPY DUP2 MLOAD SWAP2 MSTORE PUSH2 0x7E2 JUMP JUMPDEST PUSH1 0x0 PUSH2 0x1195 PUSH1 0x0 DUP1 MLOAD PUSH1 0x20 PUSH2 0x25D1 DUP4 CODECOPY DUP2 MLOAD SWAP2 MSTORE PUSH2 0x7E2 JUMP JUMPDEST SWAP1 POP PUSH1 0x1 PUSH1 0x1 PUSH1 0xA0 SHL SUB DUP2 AND CALLER EQ PUSH2 0x11DE JUMPI PUSH1 0x40 MLOAD PUSH3 0x461BCD PUSH1 0xE5 SHL DUP2 MSTORE PUSH1 0x4 ADD DUP1 DUP1 PUSH1 0x20 ADD DUP3 DUP2 SUB DUP3 MSTORE PUSH1 0x2F DUP2 MSTORE PUSH1 0x20 ADD DUP1 PUSH2 0x25A2 PUSH1 0x2F SWAP2 CODECOPY PUSH1 0x40 ADD SWAP2 POP POP PUSH1 0x40 MLOAD DUP1 SWAP2 SUB SWAP1 REVERT JUMPDEST PUSH2 0x11FE PUSH19 0x4C454E44494E475F524154455F4F5241434C45 PUSH1 0x68 SHL DUP4 PUSH2 0x17CA JUMP JUMPDEST PUSH1 0x40 MLOAD PUSH1 0x1 PUSH1 0x1 PUSH1 0xA0 SHL SUB DUP4 AND SWAP1 PUSH32 0x5C29179ABA6942020A8A2D38F65DE02FB6B7F784E7F049ED3A3CAB97621859B5 SWAP1 PUSH1 0x0 SWAP1 LOG2 POP POP JUMP JUMPDEST PUSH1 0x0 PUSH2 0x124F PUSH1 0x0 DUP1 MLOAD PUSH1 0x20 PUSH2 0x2562 DUP4 CODECOPY DUP2 MLOAD SWAP2 MSTORE PUSH2 0x7E2 JUMP JUMPDEST SWAP1 POP PUSH1 0x1 PUSH1 0x1 PUSH1 0xA0 SHL SUB DUP2 AND CALLER EQ PUSH2 0x1298 JUMPI PUSH1 0x40 MLOAD PUSH3 0x461BCD PUSH1 0xE5 SHL DUP2 MSTORE PUSH1 0x4 ADD DUP1 DUP1 PUSH1 0x20 ADD DUP3 DUP2 SUB DUP3 MSTORE PUSH1 0x2B DUP2 MSTORE PUSH1 0x20 ADD DUP1 PUSH2 0x243B PUSH1 0x2B SWAP2 CODECOPY PUSH1 0x40 ADD SWAP2 POP POP PUSH1 0x40 MLOAD DUP1 SWAP2 SUB SWAP1 REVERT JUMPDEST PUSH2 0x12BE PUSH25 0x29A4A3A42FA324A720A721A2AFA1A7A72324A3AAA920AA27A9 PUSH1 0x39 SHL DUP4 PUSH2 0x17F8 JUMP JUMPDEST PUSH1 0x40 MLOAD PUSH1 0x1 PUSH1 0x1 PUSH1 0xA0 SHL SUB DUP4 AND SWAP1 PUSH32 0x51BDA0BDF35CFC37E30F312B0624AFC7806D46F71E133364BD9D09507724D831 SWAP1 PUSH1 0x0 SWAP1 LOG2 POP POP JUMP JUMPDEST PUSH1 0x0 PUSH2 0x609 PUSH4 0xA6928E9 PUSH1 0xE3 SHL PUSH2 0x7E2 JUMP JUMPDEST PUSH1 0x0 PUSH2 0x609 PUSH25 0x2622A72224A723AFA827A7A62FA1A7A72324A3AAA920AA27A9 PUSH1 0x39 SHL PUSH2 0x7E2 JUMP JUMPDEST PUSH1 0x0 PUSH2 0x609 PUSH1 0x0 DUP1 MLOAD PUSH1 0x20 PUSH2 0x2562 DUP4 CODECOPY DUP2 MLOAD SWAP2 MSTORE PUSH2 0x7E2 JUMP JUMPDEST PUSH1 0x0 PUSH2 0x1361 PUSH1 0x0 DUP1 MLOAD PUSH1 0x20 PUSH2 0x25D1 DUP4 CODECOPY DUP2 MLOAD SWAP2 MSTORE PUSH2 0x7E2 JUMP JUMPDEST SWAP1 POP PUSH1 0x1 PUSH1 0x1 PUSH1 0xA0 SHL SUB DUP2 AND CALLER EQ PUSH2 0x13AA JUMPI PUSH1 0x40 MLOAD PUSH3 0x461BCD PUSH1 0xE5 SHL DUP2 MSTORE PUSH1 0x4 ADD DUP1 DUP1 PUSH1 0x20 ADD DUP3 DUP2 SUB DUP3 MSTORE PUSH1 0x2F DUP2 MSTORE PUSH1 0x20 ADD DUP1 PUSH2 0x25A2 PUSH1 0x2F SWAP2 CODECOPY PUSH1 0x40 ADD SWAP2 POP POP PUSH1 0x40 MLOAD DUP1 SWAP2 SUB SWAP1 REVERT JUMPDEST PUSH2 0x13CA PUSH19 0x2820A920A6A2AA22A929AFA82927AB24A222A9 PUSH1 0x69 SHL DUP4 PUSH2 0x17F8 JUMP JUMPDEST PUSH1 0x40 MLOAD PUSH1 0x1 PUSH1 0x1 PUSH1 0xA0 SHL SUB DUP4 AND SWAP1 PUSH32 0xCE16EA9B2FD7CADDDD0F7359971028F50B5DDBA33DFAE1A9BDEA956FABB1E280 SWAP1 PUSH1 0x0 SWAP1 LOG2 POP POP JUMP JUMPDEST PUSH1 0x0 PUSH2 0x609 PUSH21 0x29A4A3A42FA9A822A2A22FA1A7A72A2927A62622A9 PUSH1 0x59 SHL PUSH2 0x7E2 JUMP JUMPDEST PUSH1 0x0 PUSH2 0x143E PUSH1 0x0 DUP1 MLOAD PUSH1 0x20 PUSH2 0x25D1 DUP4 CODECOPY DUP2 MLOAD SWAP2 MSTORE PUSH2 0x7E2 JUMP JUMPDEST SWAP1 POP PUSH1 0x1 PUSH1 0x1 PUSH1 0xA0 SHL SUB DUP2 AND CALLER EQ PUSH2 0x1487 JUMPI PUSH1 0x40 MLOAD PUSH3 0x461BCD PUSH1 0xE5 SHL DUP2 MSTORE PUSH1 0x4 ADD DUP1 DUP1 PUSH1 0x20 ADD DUP3 DUP2 SUB DUP3 MSTORE PUSH1 0x2F DUP2 MSTORE PUSH1 0x20 ADD DUP1 PUSH2 0x25A2 PUSH1 0x2F SWAP2 CODECOPY PUSH1 0x40 ADD SWAP2 POP POP PUSH1 0x40 MLOAD DUP1 SWAP2 SUB SWAP1 REVERT JUMPDEST PUSH2 0x14A1 PUSH13 0x2220AA20AFA82927AB24A222A9 PUSH1 0x99 SHL DUP4 PUSH2 0x17F8 JUMP JUMPDEST PUSH1 0x40 MLOAD PUSH1 0x1 PUSH1 0x1 PUSH1 0xA0 SHL SUB DUP4 AND SWAP1 PUSH32 0x7890D7D10DB37434D76EE4F2928FB2DC66227C3B3391206ACED4F7BCB59CDB0 SWAP1 PUSH1 0x0 SWAP1 LOG2 POP POP JUMP JUMPDEST PUSH1 0x0 PUSH2 0x14F2 PUSH1 0x0 DUP1 MLOAD PUSH1 0x20 PUSH2 0x25D1 DUP4 CODECOPY DUP2 MLOAD SWAP2 MSTORE PUSH2 0x7E2 JUMP JUMPDEST SWAP1 POP PUSH1 0x1 PUSH1 0x1 PUSH1 0xA0 SHL SUB DUP2 AND CALLER EQ PUSH2 0x153B JUMPI PUSH1 0x40 MLOAD PUSH3 0x461BCD PUSH1 0xE5 SHL DUP2 MSTORE PUSH1 0x4 ADD DUP1 DUP1 PUSH1 0x20 ADD DUP3 DUP2 SUB DUP3 MSTORE PUSH1 0x2F DUP2 MSTORE PUSH1 0x20 ADD DUP1 PUSH2 0x25A2 PUSH1 0x2F SWAP2 CODECOPY PUSH1 0x40 ADD SWAP2 POP POP PUSH1 0x40 MLOAD DUP1 SWAP2 SUB SWAP1 REVERT JUMPDEST PUSH2 0x1561 PUSH25 0x2622A72224A723AFA827A7A62FA1A7A72324A3AAA920AA27A9 PUSH1 0x39 SHL DUP4 PUSH2 0x17F8 JUMP JUMPDEST PUSH1 0x40 MLOAD PUSH1 0x1 PUSH1 0x1 PUSH1 0xA0 SHL SUB DUP4 AND SWAP1 PUSH32 0xDFABE479BAD36782FB1E77FBFDDD4E382671713527E4786CFC93A022AE763729 SWAP1 PUSH1 0x0 SWAP1 LOG2 POP POP JUMP JUMPDEST PUSH1 0x0 PUSH2 0x609 PUSH1 0x0 DUP1 MLOAD PUSH1 0x20 PUSH2 0x2582 DUP4 CODECOPY DUP2 MLOAD SWAP2 MSTORE PUSH2 0x7E2 JUMP JUMPDEST PUSH1 0x0 PUSH2 0x15CB PUSH1 0x0 DUP1 MLOAD PUSH1 0x20 PUSH2 0x2562 DUP4 CODECOPY DUP2 MLOAD SWAP2 MSTORE PUSH2 0x7E2 JUMP JUMPDEST SWAP1 POP PUSH1 0x1 PUSH1 0x1 PUSH1 0xA0 SHL SUB DUP2 AND CALLER EQ PUSH2 0x1614 JUMPI PUSH1 0x40 MLOAD PUSH3 0x461BCD PUSH1 0xE5 SHL DUP2 MSTORE PUSH1 0x4 ADD DUP1 DUP1 PUSH1 0x20 ADD DUP3 DUP2 SUB DUP3 MSTORE PUSH1 0x2B DUP2 MSTORE PUSH1 0x20 ADD DUP1 PUSH2 0x243B PUSH1 0x2B SWAP2 CODECOPY PUSH1 0x40 ADD SWAP2 POP POP PUSH1 0x40 MLOAD DUP1 SWAP2 SUB SWAP1 REVERT JUMPDEST PUSH2 0x162E PUSH13 0x534947485F5452454153555259 PUSH1 0x98 SHL DUP4 PUSH2 0x17F8 JUMP JUMPDEST PUSH1 0x40 MLOAD PUSH1 0x1 PUSH1 0x1 PUSH1 0xA0 SHL SUB DUP4 AND SWAP1 PUSH32 0x4E594F07049C48E5E02719973ED5064139451DC41D5348D3D52B362AC628A695 SWAP1 PUSH1 0x0 SWAP1 LOG2 POP POP JUMP JUMPDEST PUSH1 0x0 PUSH2 0x167F PUSH1 0x0 DUP1 MLOAD PUSH1 0x20 PUSH2 0x2562 DUP4 CODECOPY DUP2 MLOAD SWAP2 MSTORE PUSH2 0x7E2 JUMP JUMPDEST SWAP1 POP PUSH1 0x1 PUSH1 0x1 PUSH1 0xA0 SHL SUB DUP2 AND CALLER EQ PUSH2 0x16C8 JUMPI PUSH1 0x40 MLOAD PUSH3 0x461BCD PUSH1 0xE5 SHL DUP2 MSTORE PUSH1 0x4 ADD DUP1 DUP1 PUSH1 0x20 ADD DUP3 DUP2 SUB DUP3 MSTORE PUSH1 0x2B DUP2 MSTORE PUSH1 0x20 ADD DUP1 PUSH2 0x243B PUSH1 0x2B SWAP2 CODECOPY PUSH1 0x40 ADD SWAP2 POP POP PUSH1 0x40 MLOAD DUP1 SWAP2 SUB SWAP1 REVERT JUMPDEST PUSH2 0x16EA PUSH21 0x29A4A3A42FA9A822A2A22FA1A7A72A2927A62622A9 PUSH1 0x59 SHL DUP4 PUSH2 0x17F8 JUMP JUMPDEST PUSH1 0x40 MLOAD PUSH1 0x1 PUSH1 0x1 PUSH1 0xA0 SHL SUB DUP4 AND SWAP1 PUSH32 0x579F9FFAA1ECB9BF9C8A40161500243B875B8A597C78EC222812E5336EF9793 SWAP1 PUSH1 0x0 SWAP1 LOG2 POP POP JUMP JUMPDEST PUSH1 0x0 PUSH2 0x609 PUSH25 0x29A4A3A42FAB27A620AA24A624AA2CAFA420A92B22A9AA22A9 PUSH1 0x39 SHL PUSH2 0x7E2 JUMP JUMPDEST PUSH1 0x0 PUSH2 0x609 PUSH25 0x29A4A3A42FA324A720A721A2AFA1A7A72324A3AAA920AA27A9 PUSH1 0x39 SHL PUSH2 0x7E2 JUMP JUMPDEST PUSH1 0x0 DUP1 PUSH2 0x1790 PUSH17 0x4C454E44494E475F504F4F4C5F434F5245 PUSH1 0x78 SHL PUSH2 0x7E2 JUMP JUMPDEST SWAP2 POP POP SWAP1 JUMP JUMPDEST PUSH1 0x0 PUSH2 0x609 PUSH12 0x2322A2AFA82927AB24A222A9 PUSH1 0xA1 SHL PUSH2 0x7E2 JUMP JUMPDEST PUSH1 0x0 PUSH2 0x609 PUSH12 0x50524943455F4F5241434C45 PUSH1 0xA0 SHL PUSH2 0x7E2 JUMP JUMPDEST PUSH1 0x0 SWAP2 DUP3 MSTORE PUSH1 0x20 DUP3 SWAP1 MSTORE PUSH1 0x40 SWAP1 SWAP2 KECCAK256 DUP1 SLOAD PUSH1 0x1 PUSH1 0x1 PUSH1 0xA0 SHL SUB NOT AND PUSH1 0x1 PUSH1 0x1 PUSH1 0xA0 SHL SUB SWAP1 SWAP3 AND SWAP2 SWAP1 SWAP2 OR SWAP1 SSTORE JUMP JUMPDEST PUSH1 0x0 PUSH2 0x1803 DUP4 PUSH2 0x7E2 JUMP JUMPDEST PUSH1 0x40 DUP1 MLOAD ADDRESS PUSH1 0x24 DUP1 DUP4 ADD SWAP2 SWAP1 SWAP2 MSTORE DUP3 MLOAD DUP1 DUP4 SUB SWAP1 SWAP2 ADD DUP2 MSTORE PUSH1 0x44 SWAP1 SWAP2 ADD SWAP1 SWAP2 MSTORE PUSH1 0x20 DUP2 ADD DUP1 MLOAD PUSH1 0x1 PUSH1 0x1 PUSH1 0xE0 SHL SUB AND PUSH4 0x189ACDBD PUSH1 0xE3 SHL OR SWAP1 MSTORE SWAP1 SWAP2 POP DUP2 SWAP1 PUSH1 0x1 PUSH1 0x1 PUSH1 0xA0 SHL SUB DUP3 AND PUSH2 0x19BD JUMPI PUSH1 0x40 MLOAD PUSH2 0x185C SWAP1 PUSH2 0x1A91 JUMP JUMPDEST PUSH1 0x40 MLOAD DUP1 SWAP2 SUB SWAP1 PUSH1 0x0 CREATE DUP1 ISZERO DUP1 ISZERO PUSH2 0x1878 JUMPI RETURNDATASIZE PUSH1 0x0 DUP1 RETURNDATACOPY RETURNDATASIZE PUSH1 0x0 REVERT JUMPDEST POP SWAP2 POP DUP2 PUSH1 0x1 PUSH1 0x1 PUSH1 0xA0 SHL SUB AND PUSH4 0xCF7A1D77 DUP6 ADDRESS DUP5 PUSH1 0x40 MLOAD DUP5 PUSH4 0xFFFFFFFF AND PUSH1 0xE0 SHL DUP2 MSTORE PUSH1 0x4 ADD DUP1 DUP5 PUSH1 0x1 PUSH1 0x1 PUSH1 0xA0 SHL SUB AND PUSH1 0x1 PUSH1 0x1 PUSH1 0xA0 SHL SUB AND DUP2 MSTORE PUSH1 0x20 ADD DUP4 PUSH1 0x1 PUSH1 0x1 PUSH1 0xA0 SHL SUB AND PUSH1 0x1 PUSH1 0x1 PUSH1 0xA0 SHL SUB AND DUP2 MSTORE PUSH1 0x20 ADD DUP1 PUSH1 0x20 ADD DUP3 DUP2 SUB DUP3 MSTORE DUP4 DUP2 DUP2 MLOAD DUP2 MSTORE PUSH1 0x20 ADD SWAP2 POP DUP1 MLOAD SWAP1 PUSH1 0x20 ADD SWAP1 DUP1 DUP4 DUP4 PUSH1 0x0 JUMPDEST DUP4 DUP2 LT ISZERO PUSH2 0x1909 JUMPI DUP2 DUP2 ADD MLOAD DUP4 DUP3 ADD MSTORE PUSH1 0x20 ADD PUSH2 0x18F1 JUMP JUMPDEST POP POP POP POP SWAP1 POP SWAP1 DUP2 ADD SWAP1 PUSH1 0x1F AND DUP1 ISZERO PUSH2 0x1936 JUMPI DUP1 DUP3 SUB DUP1 MLOAD PUSH1 0x1 DUP4 PUSH1 0x20 SUB PUSH2 0x100 EXP SUB NOT AND DUP2 MSTORE PUSH1 0x20 ADD SWAP2 POP JUMPDEST POP SWAP5 POP POP POP POP POP PUSH1 0x0 PUSH1 0x40 MLOAD DUP1 DUP4 SUB DUP2 PUSH1 0x0 DUP8 DUP1 EXTCODESIZE ISZERO DUP1 ISZERO PUSH2 0x1957 JUMPI PUSH1 0x0 DUP1 REVERT JUMPDEST POP GAS CALL ISZERO DUP1 ISZERO PUSH2 0x196B JUMPI RETURNDATASIZE PUSH1 0x0 DUP1 RETURNDATACOPY RETURNDATASIZE PUSH1 0x0 REVERT JUMPDEST POP POP POP POP PUSH2 0x1979 DUP6 DUP4 PUSH2 0x17CA JUMP JUMPDEST PUSH1 0x40 DUP1 MLOAD DUP7 DUP2 MSTORE SWAP1 MLOAD PUSH1 0x1 PUSH1 0x1 PUSH1 0xA0 SHL SUB DUP5 AND SWAP2 PUSH32 0x1EB35CB4B5BBB23D152F3B4016A5A46C37A07AE930ED0956ABA951E231142438 SWAP2 SWAP1 DUP2 SWAP1 SUB PUSH1 0x20 ADD SWAP1 LOG2 PUSH2 0x1A8A JUMP JUMPDEST PUSH1 0x40 DUP1 MLOAD PUSH4 0x278F7943 PUSH1 0xE1 SHL DUP2 MSTORE PUSH1 0x1 PUSH1 0x1 PUSH1 0xA0 SHL SUB DUP7 DUP2 AND PUSH1 0x4 DUP4 ADD SWAP1 DUP2 MSTORE PUSH1 0x24 DUP4 ADD SWAP4 DUP5 MSTORE DUP5 MLOAD PUSH1 0x44 DUP5 ADD MSTORE DUP5 MLOAD SWAP2 DUP7 AND SWAP4 PUSH4 0x4F1EF286 SWAP4 DUP10 SWAP4 DUP8 SWAP4 SWAP3 SWAP2 PUSH1 0x64 ADD SWAP1 PUSH1 0x20 DUP6 ADD SWAP1 DUP1 DUP4 DUP4 PUSH1 0x0 JUMPDEST DUP4 DUP2 LT ISZERO PUSH2 0x1A24 JUMPI DUP2 DUP2 ADD MLOAD DUP4 DUP3 ADD MSTORE PUSH1 0x20 ADD PUSH2 0x1A0C JUMP JUMPDEST POP POP POP POP SWAP1 POP SWAP1 DUP2 ADD SWAP1 PUSH1 0x1F AND DUP1 ISZERO PUSH2 0x1A51 JUMPI DUP1 DUP3 SUB DUP1 MLOAD PUSH1 0x1 DUP4 PUSH1 0x20 SUB PUSH2 0x100 EXP SUB NOT AND DUP2 MSTORE PUSH1 0x20 ADD SWAP2 POP JUMPDEST POP SWAP4 POP POP POP POP PUSH1 0x0 PUSH1 0x40 MLOAD DUP1 DUP4 SUB DUP2 PUSH1 0x0 DUP8 DUP1 EXTCODESIZE ISZERO DUP1 ISZERO PUSH2 0x1A71 JUMPI PUSH1 0x0 DUP1 REVERT JUMPDEST POP GAS CALL ISZERO DUP1 ISZERO PUSH2 0x1A85 JUMPI RETURNDATASIZE PUSH1 0x0 DUP1 RETURNDATACOPY RETURNDATASIZE PUSH1 0x0 REVERT JUMPDEST POP POP POP POP JUMPDEST POP POP POP POP POP JUMP JUMPDEST PUSH2 0x99C DUP1 PUSH2 0x1A9F DUP4 CODECOPY ADD SWAP1 JUMP INVALID PUSH1 0x80 PUSH1 0x40 MSTORE CALLVALUE DUP1 ISZERO PUSH2 0x10 JUMPI PUSH1 0x0 DUP1 REVERT JUMPDEST POP PUSH2 0x97C DUP1 PUSH2 0x20 PUSH1 0x0 CODECOPY PUSH1 0x0 RETURN INVALID PUSH1 0x80 PUSH1 0x40 MSTORE PUSH1 0x4 CALLDATASIZE LT PUSH2 0x70 JUMPI PUSH1 0x0 CALLDATALOAD PUSH1 0xE0 SHR DUP1 PUSH4 0x8F283970 GT PUSH2 0x4E JUMPI DUP1 PUSH4 0x8F283970 EQ PUSH2 0x15E JUMPI DUP1 PUSH4 0xCF7A1D77 EQ PUSH2 0x191 JUMPI DUP1 PUSH4 0xD1F57894 EQ PUSH2 0x250 JUMPI DUP1 PUSH4 0xF851A440 EQ PUSH2 0x306 JUMPI PUSH2 0x70 JUMP JUMPDEST DUP1 PUSH4 0x3659CFE6 EQ PUSH2 0x7A JUMPI DUP1 PUSH4 0x4F1EF286 EQ PUSH2 0xAD JUMPI DUP1 PUSH4 0x5C60DA1B EQ PUSH2 0x12D JUMPI JUMPDEST PUSH2 0x78 PUSH2 0x31B JUMP JUMPDEST STOP JUMPDEST CALLVALUE DUP1 ISZERO PUSH2 0x86 JUMPI PUSH1 0x0 DUP1 REVERT JUMPDEST POP PUSH2 0x78 PUSH1 0x4 DUP1 CALLDATASIZE SUB PUSH1 0x20 DUP2 LT ISZERO PUSH2 0x9D JUMPI PUSH1 0x0 DUP1 REVERT JUMPDEST POP CALLDATALOAD PUSH1 0x1 PUSH1 0x1 PUSH1 0xA0 SHL SUB AND PUSH2 0x335 JUMP JUMPDEST PUSH2 0x78 PUSH1 0x4 DUP1 CALLDATASIZE SUB PUSH1 0x40 DUP2 LT ISZERO PUSH2 0xC3 JUMPI PUSH1 0x0 DUP1 REVERT JUMPDEST PUSH1 0x1 PUSH1 0x1 PUSH1 0xA0 SHL SUB DUP3 CALLDATALOAD AND SWAP2 SWAP1 DUP2 ADD SWAP1 PUSH1 0x40 DUP2 ADD PUSH1 0x20 DUP3 ADD CALLDATALOAD PUSH5 0x100000000 DUP2 GT ISZERO PUSH2 0xEE JUMPI PUSH1 0x0 DUP1 REVERT JUMPDEST DUP3 ADD DUP4 PUSH1 0x20 DUP3 ADD GT ISZERO PUSH2 0x100 JUMPI PUSH1 0x0 DUP1 REVERT JUMPDEST DUP1 CALLDATALOAD SWAP1 PUSH1 0x20 ADD SWAP2 DUP5 PUSH1 0x1 DUP4 MUL DUP5 ADD GT PUSH5 0x100000000 DUP4 GT OR ISZERO PUSH2 0x122 JUMPI PUSH1 0x0 DUP1 REVERT JUMPDEST POP SWAP1 SWAP3 POP SWAP1 POP PUSH2 0x36F JUMP JUMPDEST CALLVALUE DUP1 ISZERO PUSH2 0x139 JUMPI PUSH1 0x0 DUP1 REVERT JUMPDEST POP PUSH2 0x142 PUSH2 0x41C JUMP JUMPDEST PUSH1 0x40 DUP1 MLOAD PUSH1 0x1 PUSH1 0x1 PUSH1 0xA0 SHL SUB SWAP1 SWAP3 AND DUP3 MSTORE MLOAD SWAP1 DUP2 SWAP1 SUB PUSH1 0x20 ADD SWAP1 RETURN JUMPDEST CALLVALUE DUP1 ISZERO PUSH2 0x16A JUMPI PUSH1 0x0 DUP1 REVERT JUMPDEST POP PUSH2 0x78 PUSH1 0x4 DUP1 CALLDATASIZE SUB PUSH1 0x20 DUP2 LT ISZERO PUSH2 0x181 JUMPI PUSH1 0x0 DUP1 REVERT JUMPDEST POP CALLDATALOAD PUSH1 0x1 PUSH1 0x1 PUSH1 0xA0 SHL SUB AND PUSH2 0x459 JUMP JUMPDEST PUSH2 0x78 PUSH1 0x4 DUP1 CALLDATASIZE SUB PUSH1 0x60 DUP2 LT ISZERO PUSH2 0x1A7 JUMPI PUSH1 0x0 DUP1 REVERT JUMPDEST PUSH1 0x1 PUSH1 0x1 PUSH1 0xA0 SHL SUB DUP3 CALLDATALOAD DUP2 AND SWAP3 PUSH1 0x20 DUP2 ADD CALLDATALOAD SWAP1 SWAP2 AND SWAP2 DUP2 ADD SWAP1 PUSH1 0x60 DUP2 ADD PUSH1 0x40 DUP3 ADD CALLDATALOAD PUSH5 0x100000000 DUP2 GT ISZERO PUSH2 0x1DB JUMPI PUSH1 0x0 DUP1 REVERT JUMPDEST DUP3 ADD DUP4 PUSH1 0x20 DUP3 ADD GT ISZERO PUSH2 0x1ED JUMPI PUSH1 0x0 DUP1 REVERT JUMPDEST DUP1 CALLDATALOAD SWAP1 PUSH1 0x20 ADD SWAP2 DUP5 PUSH1 0x1 DUP4 MUL DUP5 ADD GT PUSH5 0x100000000 DUP4 GT OR ISZERO PUSH2 0x20F JUMPI PUSH1 0x0 DUP1 REVERT JUMPDEST SWAP2 SWAP1 DUP1 DUP1 PUSH1 0x1F ADD PUSH1 0x20 DUP1 SWAP2 DIV MUL PUSH1 0x20 ADD PUSH1 0x40 MLOAD SWAP1 DUP2 ADD PUSH1 0x40 MSTORE DUP1 SWAP4 SWAP3 SWAP2 SWAP1 DUP2 DUP2 MSTORE PUSH1 0x20 ADD DUP4 DUP4 DUP1 DUP3 DUP5 CALLDATACOPY PUSH1 0x0 SWAP3 ADD SWAP2 SWAP1 SWAP2 MSTORE POP SWAP3 SWAP6 POP PUSH2 0x513 SWAP5 POP POP POP POP POP JUMP JUMPDEST PUSH2 0x78 PUSH1 0x4 DUP1 CALLDATASIZE SUB PUSH1 0x40 DUP2 LT ISZERO PUSH2 0x266 JUMPI PUSH1 0x0 DUP1 REVERT JUMPDEST PUSH1 0x1 PUSH1 0x1 PUSH1 0xA0 SHL SUB DUP3 CALLDATALOAD AND SWAP2 SWAP1 DUP2 ADD SWAP1 PUSH1 0x40 DUP2 ADD PUSH1 0x20 DUP3 ADD CALLDATALOAD PUSH5 0x100000000 DUP2 GT ISZERO PUSH2 0x291 JUMPI PUSH1 0x0 DUP1 REVERT JUMPDEST DUP3 ADD DUP4 PUSH1 0x20 DUP3 ADD GT ISZERO PUSH2 0x2A3 JUMPI PUSH1 0x0 DUP1 REVERT JUMPDEST DUP1 CALLDATALOAD SWAP1 PUSH1 0x20 ADD SWAP2 DUP5 PUSH1 0x1 DUP4 MUL DUP5 ADD GT PUSH5 0x100000000 DUP4 GT OR ISZERO PUSH2 0x2C5 JUMPI PUSH1 0x0 DUP1 REVERT JUMPDEST SWAP2 SWAP1 DUP1 DUP1 PUSH1 0x1F ADD PUSH1 0x20 DUP1 SWAP2 DIV MUL PUSH1 0x20 ADD PUSH1 0x40 MLOAD SWAP1 DUP2 ADD PUSH1 0x40 MSTORE DUP1 SWAP4 SWAP3 SWAP2 SWAP1 DUP2 DUP2 MSTORE PUSH1 0x20 ADD DUP4 DUP4 DUP1 DUP3 DUP5 CALLDATACOPY PUSH1 0x0 SWAP3 ADD SWAP2 SWAP1 SWAP2 MSTORE POP SWAP3 SWAP6 POP PUSH2 0x599 SWAP5 POP POP POP POP POP JUMP JUMPDEST CALLVALUE DUP1 ISZERO PUSH2 0x312 JUMPI PUSH1 0x0 DUP1 REVERT JUMPDEST POP PUSH2 0x142 PUSH2 0x6D9 JUMP JUMPDEST PUSH2 0x323 PUSH2 0x704 JUMP JUMPDEST PUSH2 0x333 PUSH2 0x32E PUSH2 0x764 JUMP JUMPDEST PUSH2 0x789 JUMP JUMPDEST JUMP JUMPDEST PUSH2 0x33D PUSH2 0x7AD JUMP JUMPDEST PUSH1 0x1 PUSH1 0x1 PUSH1 0xA0 SHL SUB AND CALLER PUSH1 0x1 PUSH1 0x1 PUSH1 0xA0 SHL SUB AND EQ ISZERO PUSH2 0x364 JUMPI PUSH2 0x35F DUP2 PUSH2 0x7D2 JUMP JUMPDEST PUSH2 0x36C JUMP JUMPDEST PUSH2 0x36C PUSH2 0x31B JUMP JUMPDEST POP JUMP JUMPDEST PUSH2 0x377 PUSH2 0x7AD JUMP JUMPDEST PUSH1 0x1 PUSH1 0x1 PUSH1 0xA0 SHL SUB AND CALLER PUSH1 0x1 PUSH1 0x1 PUSH1 0xA0 SHL SUB AND EQ ISZERO PUSH2 0x40F JUMPI PUSH2 0x399 DUP4 PUSH2 0x7D2 JUMP JUMPDEST PUSH1 0x0 DUP4 PUSH1 0x1 PUSH1 0x1 PUSH1 0xA0 SHL SUB AND DUP4 DUP4 PUSH1 0x40 MLOAD DUP1 DUP4 DUP4 DUP1 DUP3 DUP5 CALLDATACOPY PUSH1 0x40 MLOAD SWAP3 ADD SWAP5 POP PUSH1 0x0 SWAP4 POP SWAP1 SWAP2 POP POP DUP1 DUP4 SUB DUP2 DUP6 GAS DELEGATECALL SWAP2 POP POP RETURNDATASIZE DUP1 PUSH1 0x0 DUP2 EQ PUSH2 0x3F6 JUMPI PUSH1 0x40 MLOAD SWAP2 POP PUSH1 0x1F NOT PUSH1 0x3F RETURNDATASIZE ADD AND DUP3 ADD PUSH1 0x40 MSTORE RETURNDATASIZE DUP3 MSTORE RETURNDATASIZE PUSH1 0x0 PUSH1 0x20 DUP5 ADD RETURNDATACOPY PUSH2 0x3FB JUMP JUMPDEST PUSH1 0x60 SWAP2 POP JUMPDEST POP POP SWAP1 POP DUP1 PUSH2 0x409 JUMPI PUSH1 0x0 DUP1 REVERT JUMPDEST POP PUSH2 0x417 JUMP JUMPDEST PUSH2 0x417 PUSH2 0x31B JUMP JUMPDEST POP POP POP JUMP JUMPDEST PUSH1 0x0 PUSH2 0x426 PUSH2 0x7AD JUMP JUMPDEST PUSH1 0x1 PUSH1 0x1 PUSH1 0xA0 SHL SUB AND CALLER PUSH1 0x1 PUSH1 0x1 PUSH1 0xA0 SHL SUB AND EQ ISZERO PUSH2 0x44E JUMPI PUSH2 0x447 PUSH2 0x764 JUMP JUMPDEST SWAP1 POP PUSH2 0x456 JUMP JUMPDEST PUSH2 0x456 PUSH2 0x31B JUMP JUMPDEST SWAP1 JUMP JUMPDEST PUSH2 0x461 PUSH2 0x7AD JUMP JUMPDEST PUSH1 0x1 PUSH1 0x1 PUSH1 0xA0 SHL SUB AND CALLER PUSH1 0x1 PUSH1 0x1 PUSH1 0xA0 SHL SUB AND EQ ISZERO PUSH2 0x364 JUMPI PUSH1 0x1 PUSH1 0x1 PUSH1 0xA0 SHL SUB DUP2 AND PUSH2 0x4BF JUMPI PUSH1 0x40 MLOAD PUSH3 0x461BCD PUSH1 0xE5 SHL DUP2 MSTORE PUSH1 0x4 ADD DUP1 DUP1 PUSH1 0x20 ADD DUP3 DUP2 SUB DUP3 MSTORE PUSH1 0x36 DUP2 MSTORE PUSH1 0x20 ADD DUP1 PUSH2 0x8D7 PUSH1 0x36 SWAP2 CODECOPY PUSH1 0x40 ADD SWAP2 POP POP PUSH1 0x40 MLOAD DUP1 SWAP2 SUB SWAP1 REVERT JUMPDEST PUSH32 0x7E644D79422F17C01E4894B5F4F588D331EBFA28653D42AE832DC59E38C9798F PUSH2 0x4E8 PUSH2 0x7AD JUMP JUMPDEST PUSH1 0x40 DUP1 MLOAD PUSH1 0x1 PUSH1 0x1 PUSH1 0xA0 SHL SUB SWAP3 DUP4 AND DUP2 MSTORE SWAP2 DUP5 AND PUSH1 0x20 DUP4 ADD MSTORE DUP1 MLOAD SWAP2 DUP3 SWAP1 SUB ADD SWAP1 LOG1 PUSH2 0x35F DUP2 PUSH2 0x812 JUMP JUMPDEST PUSH1 0x0 PUSH2 0x51D PUSH2 0x764 JUMP JUMPDEST PUSH1 0x1 PUSH1 0x1 PUSH1 0xA0 SHL SUB AND EQ PUSH2 0x530 JUMPI PUSH1 0x0 DUP1 REVERT JUMPDEST PUSH2 0x53A DUP4 DUP3 PUSH2 0x599 JUMP JUMPDEST PUSH1 0x40 DUP1 MLOAD PUSH19 0x32B4B8189C9B1B97383937BC3C9730B236B4B7 PUSH1 0x69 SHL DUP2 MSTORE SWAP1 MLOAD SWAP1 DUP2 SWAP1 SUB PUSH1 0x13 ADD SWAP1 KECCAK256 PUSH32 0xB53127684A568B3173AE13B9F8A6016E243E63B6E8EE1178D6A717850B5D6103 PUSH1 0x0 NOT SWAP1 SWAP2 ADD EQ PUSH2 0x590 JUMPI INVALID JUMPDEST PUSH2 0x417 DUP3 PUSH2 0x812 JUMP JUMPDEST PUSH1 0x0 PUSH2 0x5A3 PUSH2 0x764 JUMP JUMPDEST PUSH1 0x1 PUSH1 0x1 PUSH1 0xA0 SHL SUB AND EQ PUSH2 0x5B6 JUMPI PUSH1 0x0 DUP1 REVERT JUMPDEST PUSH1 0x40 DUP1 MLOAD PUSH32 0x656970313936372E70726F78792E696D706C656D656E746174696F6E00000000 DUP2 MSTORE SWAP1 MLOAD SWAP1 DUP2 SWAP1 SUB PUSH1 0x1C ADD SWAP1 KECCAK256 PUSH32 0x360894A13BA1A3210667C828492DB98DCA3E2076CC3735A920A3CA505D382BBC PUSH1 0x0 NOT SWAP1 SWAP2 ADD EQ PUSH2 0x616 JUMPI INVALID JUMPDEST PUSH2 0x61F DUP3 PUSH2 0x836 JUMP JUMPDEST DUP1 MLOAD ISZERO PUSH2 0x6D5 JUMPI PUSH1 0x0 DUP3 PUSH1 0x1 PUSH1 0x1 PUSH1 0xA0 SHL SUB AND DUP3 PUSH1 0x40 MLOAD DUP1 DUP3 DUP1 MLOAD SWAP1 PUSH1 0x20 ADD SWAP1 DUP1 DUP4 DUP4 JUMPDEST PUSH1 0x20 DUP4 LT PUSH2 0x662 JUMPI DUP1 MLOAD DUP3 MSTORE PUSH1 0x1F NOT SWAP1 SWAP3 ADD SWAP2 PUSH1 0x20 SWAP2 DUP3 ADD SWAP2 ADD PUSH2 0x643 JUMP JUMPDEST PUSH1 0x1 DUP4 PUSH1 0x20 SUB PUSH2 0x100 EXP SUB DUP1 NOT DUP3 MLOAD AND DUP2 DUP5 MLOAD AND DUP1 DUP3 OR DUP6 MSTORE POP POP POP POP POP POP SWAP1 POP ADD SWAP2 POP POP PUSH1 0x0 PUSH1 0x40 MLOAD DUP1 DUP4 SUB DUP2 DUP6 GAS DELEGATECALL SWAP2 POP POP RETURNDATASIZE DUP1 PUSH1 0x0 DUP2 EQ PUSH2 0x6C2 JUMPI PUSH1 0x40 MLOAD SWAP2 POP PUSH1 0x1F NOT PUSH1 0x3F RETURNDATASIZE ADD AND DUP3 ADD PUSH1 0x40 MSTORE RETURNDATASIZE DUP3 MSTORE RETURNDATASIZE PUSH1 0x0 PUSH1 0x20 DUP5 ADD RETURNDATACOPY PUSH2 0x6C7 JUMP JUMPDEST PUSH1 0x60 SWAP2 POP JUMPDEST POP POP SWAP1 POP DUP1 PUSH2 0x417 JUMPI PUSH1 0x0 DUP1 REVERT JUMPDEST POP POP JUMP JUMPDEST PUSH1 0x0 PUSH2 0x6E3 PUSH2 0x7AD JUMP JUMPDEST PUSH1 0x1 PUSH1 0x1 PUSH1 0xA0 SHL SUB AND CALLER PUSH1 0x1 PUSH1 0x1 PUSH1 0xA0 SHL SUB AND EQ ISZERO PUSH2 0x44E JUMPI PUSH2 0x447 PUSH2 0x7AD JUMP JUMPDEST PUSH2 0x70C PUSH2 0x7AD JUMP JUMPDEST PUSH1 0x1 PUSH1 0x1 PUSH1 0xA0 SHL SUB AND CALLER PUSH1 0x1 PUSH1 0x1 PUSH1 0xA0 SHL SUB AND EQ ISZERO PUSH2 0x75C JUMPI PUSH1 0x40 MLOAD PUSH3 0x461BCD PUSH1 0xE5 SHL DUP2 MSTORE PUSH1 0x4 ADD DUP1 DUP1 PUSH1 0x20 ADD DUP3 DUP2 SUB DUP3 MSTORE PUSH1 0x32 DUP2 MSTORE PUSH1 0x20 ADD DUP1 PUSH2 0x8A5 PUSH1 0x32 SWAP2 CODECOPY PUSH1 0x40 ADD SWAP2 POP POP PUSH1 0x40 MLOAD DUP1 SWAP2 SUB SWAP1 REVERT JUMPDEST PUSH2 0x333 PUSH2 0x333 JUMP JUMPDEST PUSH32 0x360894A13BA1A3210667C828492DB98DCA3E2076CC3735A920A3CA505D382BBC SLOAD SWAP1 JUMP JUMPDEST CALLDATASIZE PUSH1 0x0 DUP1 CALLDATACOPY PUSH1 0x0 DUP1 CALLDATASIZE PUSH1 0x0 DUP5 GAS DELEGATECALL RETURNDATASIZE PUSH1 0x0 DUP1 RETURNDATACOPY DUP1 DUP1 ISZERO PUSH2 0x7A8 JUMPI RETURNDATASIZE PUSH1 0x0 RETURN JUMPDEST RETURNDATASIZE PUSH1 0x0 REVERT JUMPDEST PUSH32 0xB53127684A568B3173AE13B9F8A6016E243E63B6E8EE1178D6A717850B5D6103 SLOAD SWAP1 JUMP JUMPDEST PUSH2 0x7DB DUP2 PUSH2 0x836 JUMP JUMPDEST PUSH1 0x40 MLOAD PUSH1 0x1 PUSH1 0x1 PUSH1 0xA0 SHL SUB DUP3 AND SWAP1 PUSH32 0xBC7CD75A20EE27FD9ADEBAB32041F755214DBC6BFFA90CC0225B39DA2E5C2D3B SWAP1 PUSH1 0x0 SWAP1 LOG2 POP JUMP JUMPDEST PUSH32 0xB53127684A568B3173AE13B9F8A6016E243E63B6E8EE1178D6A717850B5D6103 SSTORE JUMP JUMPDEST PUSH2 0x83F DUP2 PUSH2 0x89E JUMP JUMPDEST PUSH2 0x87A JUMPI PUSH1 0x40 MLOAD PUSH3 0x461BCD PUSH1 0xE5 SHL DUP2 MSTORE PUSH1 0x4 ADD DUP1 DUP1 PUSH1 0x20 ADD DUP3 DUP2 SUB DUP3 MSTORE PUSH1 0x3B DUP2 MSTORE PUSH1 0x20 ADD DUP1 PUSH2 0x90D PUSH1 0x3B SWAP2 CODECOPY PUSH1 0x40 ADD SWAP2 POP POP PUSH1 0x40 MLOAD DUP1 SWAP2 SUB SWAP1 REVERT JUMPDEST PUSH32 0x360894A13BA1A3210667C828492DB98DCA3E2076CC3735A920A3CA505D382BBC SSTORE JUMP JUMPDEST EXTCODESIZE ISZERO ISZERO SWAP1 JUMP INVALID NUMBER PUSH2 0x6E6E PUSH16 0x742063616C6C2066616C6C6261636B20 PUSH7 0x756E6374696F6E KECCAK256 PUSH7 0x726F6D20746865 KECCAK256 PUSH17 0x726F78792061646D696E43616E6E6F7420 PUSH4 0x68616E67 PUSH6 0x207468652061 PUSH5 0x6D696E206F PUSH7 0x20612070726F78 PUSH26 0x20746F20746865207A65726F206164647265737343616E6E6F74 KECCAK256 PUSH20 0x657420612070726F787920696D706C656D656E74 PUSH2 0x7469 PUSH16 0x6E20746F2061206E6F6E2D636F6E7472 PUSH2 0x6374 KECCAK256 PUSH2 0x6464 PUSH19 0x657373A265627A7A723158203584F0431942C1 CALL 0x4E PUSH7 0x5DBD411E3292E4 SAR SWAP11 SMOD 0xC6 0xE6 JUMPI DUP6 MUL PUSH32 0x46DAE348BE0564736F6C634300051100325468652063616C6C6572206D757374 KECCAK256 PUSH3 0x652074 PUSH9 0x652053494748204649 0x4E COINBASE 0x4E NUMBER GASLIMIT KECCAK256 0x4D PUSH2 0x6E61 PUSH8 0x657250454E44494E SELFBALANCE 0x5F 0x4C GASLIMIT 0x4E DIFFICULTY 0x49 0x4E SELFBALANCE 0x5F POP 0x4F 0x4F 0x4C 0x5F 0x4D COINBASE 0x4E COINBASE SELFBALANCE GASLIMIT MSTORE STOP STOP STOP STOP 0x4F PUSH15 0x6C79207468652050656E64696E6720 MSTORE8 0x49 SELFBALANCE 0x48 KECCAK256 CHAINID PUSH10 0x6E616E6365204D616E61 PUSH8 0x65722063616E2063 PUSH2 0x6C6C KECCAK256 PUSH21 0x6869732066756E6374696F6E20746F206265206163 PUSH4 0x65707465 PUSH5 0x20746F2062 PUSH6 0x636F6D652074 PUSH9 0x652053494748204669 PUSH15 0x616E6365204D616E616765724F6E6C PUSH26 0x207468652050656E64696E67204C656E64696E6720506F6F6C20 0x4D PUSH2 0x6E61 PUSH8 0x65722063616E2063 PUSH2 0x6C6C KECCAK256 PUSH21 0x6869732066756E6374696F6E20746F206265206163 PUSH4 0x65707465 PUSH5 0x20746F2062 PUSH6 0x636F6D652074 PUSH9 0x65204C656E64696E67 KECCAK256 POP PUSH16 0x6F6C204D616E61676572534947485F46 0x49 0x4E COINBASE 0x4E NUMBER GASLIMIT 0x5F 0x4D COINBASE 0x4E COINBASE SELFBALANCE GASLIMIT MSTORE STOP STOP STOP STOP STOP STOP STOP STOP STOP STOP STOP STOP POP GASLIMIT 0x4E DIFFICULTY 0x49 0x4E SELFBALANCE 0x5F MSTORE8 0x49 SELFBALANCE 0x48 0x5F CHAINID 0x49 0x4E COINBASE 0x4E NUMBER GASLIMIT 0x5F 0x4D COINBASE 0x4E COINBASE SELFBALANCE GASLIMIT MSTORE STOP STOP STOP STOP SLOAD PUSH9 0x652063616C6C657220 PUSH14 0x75737420626520746865204C656E PUSH5 0x696E672050 PUSH19 0x6F746F636F6C204D616E616765724C454E4449 0x4E SELFBALANCE 0x5F POP 0x4F 0x4F 0x4C 0x5F 0x4D COINBASE 0x4E COINBASE SELFBALANCE GASLIMIT MSTORE STOP STOP STOP STOP STOP STOP STOP STOP STOP STOP STOP STOP LOG2 PUSH6 0x627A7A723158 KECCAK256 0xB8 0x29 PUSH9 0x6218BB79C43C7AE96E 0xCF CODESIZE 0xCD PUSH12 0x35E14D674FB469D60B3EDDFA ADD DELEGATECALL 0xCE SMOD PUSH5 0x736F6C6343 STOP SDIV GT STOP ORIGIN "
		},
		"gasEstimates": {
			"creation": {
				"codeDepositCost": "1953000",
				"executionCost": "infinite",
				"totalCost": "infinite"
			},
			"external": {
				"acceptLendingPoolManager()": "infinite",
				"acceptSIGHFinanceManager()": "infinite",
				"getAddress(bytes32)": "1216",
				"getFeeProvider()": "1282",
				"getLendingPool()": "1197",
				"getLendingPoolConfigurator()": "1239",
				"getLendingPoolCore()": "1265",
				"getLendingPoolDataProvider()": "1196",
				"getLendingPoolLiquidationManager()": "1283",
				"getLendingPoolManager()": "infinite",
				"getLendingPoolParametersProvider()": "1219",
				"getLendingRateOracle()": "1262",
				"getPendingLendingPoolManager()": "infinite",
				"getPendingSIGHFinanceManager()": "infinite",
				"getPriceOracle()": "1304",
				"getSIGHAddress()": "1217",
				"getSIGHFinanceConfigurator()": "1238",
				"getSIGHFinanceFeeCollector()": "1257",
				"getSIGHFinanceManager()": "infinite",
				"getSIGHSpeedController()": "1195",
				"getSIGHStaking()": "1185",
				"getSIGHTreasury()": "1196",
				"getSIGHVolatilityHarvester()": "1216",
				"setFeeProviderImpl(address)": "infinite",
				"setLendingPoolConfiguratorImpl(address)": "infinite",
				"setLendingPoolCoreImpl(address)": "infinite",
				"setLendingPoolDataProviderImpl(address)": "infinite",
				"setLendingPoolImpl(address)": "infinite",
				"setLendingPoolLiquidationManager(address)": "infinite",
				"setLendingPoolParametersProviderImpl(address)": "infinite",
				"setLendingRateOracle(address)": "infinite",
				"setPendingLendingPoolManager(address)": "infinite",
				"setPendingSIGHFinanceManager(address)": "infinite",
				"setPriceOracle(address)": "infinite",
				"setSIGHAddress(address)": "infinite",
				"setSIGHFinanceConfiguratorImpl(address)": "infinite",
				"setSIGHFinanceFeeCollector(address)": "infinite",
				"setSIGHSpeedController(address)": "infinite",
				"setSIGHStaking(address)": "infinite",
				"setSIGHTreasuryImpl(address)": "infinite",
				"setSIGHVolatilityHarvesterImpl(address)": "infinite"
			},
			"internal": {
				"updateImplInternal(bytes32,address)": "infinite"
			}
		},
		"methodIdentifiers": {
			"acceptLendingPoolManager()": "7725c7bf",
			"acceptSIGHFinanceManager()": "2e07f25d",
			"getAddress(bytes32)": "21f8a721",
			"getFeeProvider()": "fbeefc3c",
			"getLendingPool()": "0261bf8b",
			"getLendingPoolConfigurator()": "85c858b1",
			"getLendingPoolCore()": "ed6ff760",
			"getLendingPoolDataProvider()": "2f58b80d",
			"getLendingPoolLiquidationManager()": "5834eb9a",
			"getLendingPoolManager()": "33128d59",
			"getLendingPoolParametersProvider()": "04061d8e",
			"getLendingRateOracle()": "3618abba",
			"getPendingLendingPoolManager()": "2e7bac46",
			"getPendingSIGHFinanceManager()": "c145d058",
			"getPriceOracle()": "fca513a8",
			"getSIGHAddress()": "841aa40c",
			"getSIGHFinanceConfigurator()": "db49224b",
			"getSIGHFinanceFeeCollector()": "145d02f0",
			"getSIGHFinanceManager()": "87854354",
			"getSIGHSpeedController()": "ab3802cb",
			"getSIGHStaking()": "1db4f569",
			"getSIGHTreasury()": "59e6130c",
			"getSIGHVolatilityHarvester()": "d72e2802",
			"setFeeProviderImpl(address)": "2a62c636",
			"setLendingPoolConfiguratorImpl(address)": "c12542df",
			"setLendingPoolCoreImpl(address)": "1c827204",
			"setLendingPoolDataProviderImpl(address)": "bfedc103",
			"setLendingPoolImpl(address)": "5aef021f",
			"setLendingPoolLiquidationManager(address)": "44ce375b",
			"setLendingPoolParametersProviderImpl(address)": "a5eface2",
			"setLendingRateOracle(address)": "820d1274",
			"setPendingLendingPoolManager(address)": "0904ac73",
			"setPendingSIGHFinanceManager(address)": "42d419bf",
			"setPriceOracle(address)": "530e784f",
			"setSIGHAddress(address)": "723130ac",
			"setSIGHFinanceConfiguratorImpl(address)": "832b705a",
			"setSIGHFinanceFeeCollector(address)": "39c06e28",
			"setSIGHSpeedController(address)": "d557d56d",
			"setSIGHStaking(address)": "343c1596",
			"setSIGHTreasuryImpl(address)": "c5b3f337",
			"setSIGHVolatilityHarvesterImpl(address)": "39ac577e"
		}
	},
	"abi": [
		{
			"inputs": [
				{
					"internalType": "address",
					"name": "SIGHFinanceManagerAddress",
					"type": "address"
				},
				{
					"internalType": "address",
					"name": "LendingPoolManagerAddress",
					"type": "address"
				}
			],
			"payable": false,
			"stateMutability": "nonpayable",
			"type": "constructor"
		},
		{
			"anonymous": false,
			"inputs": [
				{
					"indexed": true,
					"internalType": "address",
					"name": "newAddress",
					"type": "address"
				}
			],
			"name": "FeeProviderUpdated",
			"type": "event"
		},
		{
			"anonymous": false,
			"inputs": [
				{
					"indexed": true,
					"internalType": "address",
					"name": "newAddress",
					"type": "address"
				}
			],
			"name": "LendingPoolConfiguratorUpdated",
			"type": "event"
		},
		{
			"anonymous": false,
			"inputs": [
				{
					"indexed": true,
					"internalType": "address",
					"name": "newAddress",
					"type": "address"
				}
			],
			"name": "LendingPoolCoreUpdated",
			"type": "event"
		},
		{
			"anonymous": false,
			"inputs": [
				{
					"indexed": true,
					"internalType": "address",
					"name": "newAddress",
					"type": "address"
				}
			],
			"name": "LendingPoolDataProviderUpdated",
			"type": "event"
		},
		{
			"anonymous": false,
			"inputs": [
				{
					"indexed": true,
					"internalType": "address",
					"name": "newAddress",
					"type": "address"
				}
			],
			"name": "LendingPoolLiquidationManagerUpdated",
			"type": "event"
		},
		{
			"anonymous": false,
			"inputs": [
				{
					"indexed": false,
					"internalType": "address",
					"name": "_lendingPoolManager",
					"type": "address"
				}
			],
			"name": "LendingPoolManagerUpdated",
			"type": "event"
		},
		{
			"anonymous": false,
			"inputs": [
				{
					"indexed": true,
					"internalType": "address",
					"name": "newAddress",
					"type": "address"
				}
			],
			"name": "LendingPoolParametersProviderUpdated",
			"type": "event"
		},
		{
			"anonymous": false,
			"inputs": [
				{
					"indexed": true,
					"internalType": "address",
					"name": "newAddress",
					"type": "address"
				}
			],
			"name": "LendingPoolUpdated",
			"type": "event"
		},
		{
			"anonymous": false,
			"inputs": [
				{
					"indexed": true,
					"internalType": "address",
					"name": "newAddress",
					"type": "address"
				}
			],
			"name": "LendingRateOracleUpdated",
			"type": "event"
		},
		{
			"anonymous": false,
			"inputs": [
				{
					"indexed": false,
					"internalType": "address",
					"name": "_pendingLendingPoolManager",
					"type": "address"
				}
			],
			"name": "PendingLendingPoolManagerUpdated",
			"type": "event"
		},
		{
			"anonymous": false,
			"inputs": [
				{
					"indexed": false,
					"internalType": "address",
					"name": "_pendingSighFinanceManager",
					"type": "address"
				}
			],
			"name": "PendingSIGHFinanceManagerUpdated",
			"type": "event"
		},
		{
			"anonymous": false,
			"inputs": [
				{
					"indexed": true,
					"internalType": "address",
					"name": "newAddress",
					"type": "address"
				}
			],
			"name": "PriceOracleUpdated",
			"type": "event"
		},
		{
			"anonymous": false,
			"inputs": [
				{
					"indexed": false,
					"internalType": "bytes32",
					"name": "id",
					"type": "bytes32"
				},
				{
					"indexed": true,
					"internalType": "address",
					"name": "newAddress",
					"type": "address"
				}
			],
			"name": "ProxyCreated",
			"type": "event"
		},
		{
			"anonymous": false,
			"inputs": [
				{
					"indexed": true,
					"internalType": "address",
					"name": "sighAddress",
					"type": "address"
				}
			],
			"name": "SIGHAddressUpdated",
			"type": "event"
		},
		{
			"anonymous": false,
			"inputs": [
				{
					"indexed": true,
					"internalType": "address",
					"name": "sighFinanceConfigAddress",
					"type": "address"
				}
			],
			"name": "SIGHFinanceConfiguratorUpdated",
			"type": "event"
		},
		{
			"anonymous": false,
			"inputs": [
				{
					"indexed": true,
					"internalType": "address",
					"name": "newAddress",
					"type": "address"
				}
			],
			"name": "SIGHFinanceFeeCollectorUpdated",
			"type": "event"
		},
		{
			"anonymous": false,
			"inputs": [
				{
					"indexed": false,
					"internalType": "address",
					"name": "_sighFinanceManager",
					"type": "address"
				}
			],
			"name": "SIGHFinanceManagerUpdated",
			"type": "event"
		},
		{
			"anonymous": false,
			"inputs": [
				{
					"indexed": true,
					"internalType": "address",
					"name": "speedControllerAddress",
					"type": "address"
				}
			],
			"name": "SIGHSpeedControllerUpdated",
			"type": "event"
		},
		{
			"anonymous": false,
			"inputs": [
				{
					"indexed": true,
					"internalType": "address",
					"name": "SIGHStakingAddress",
					"type": "address"
				}
			],
			"name": "SIGHStakingImplUpdated",
			"type": "event"
		},
		{
			"anonymous": false,
			"inputs": [
				{
					"indexed": true,
					"internalType": "address",
					"name": "newAddress",
					"type": "address"
				}
			],
			"name": "SIGHTreasuryImplUpdated",
			"type": "event"
		},
		{
			"anonymous": false,
			"inputs": [
				{
					"indexed": true,
					"internalType": "address",
					"name": "newAddress",
					"type": "address"
				}
			],
			"name": "SIGHVolatilityHarvesterImplUpdated",
			"type": "event"
		},
		{
			"constant": false,
			"inputs": [],
			"name": "acceptLendingPoolManager",
			"outputs": [],
			"payable": false,
			"stateMutability": "nonpayable",
			"type": "function"
		},
		{
			"constant": false,
			"inputs": [],
			"name": "acceptSIGHFinanceManager",
			"outputs": [],
			"payable": false,
			"stateMutability": "nonpayable",
			"type": "function"
		},
		{
			"constant": true,
			"inputs": [
				{
					"internalType": "bytes32",
					"name": "_key",
					"type": "bytes32"
				}
			],
			"name": "getAddress",
			"outputs": [
				{
					"internalType": "address",
					"name": "",
					"type": "address"
				}
			],
			"payable": false,
			"stateMutability": "view",
			"type": "function"
		},
		{
			"constant": true,
			"inputs": [],
			"name": "getFeeProvider",
			"outputs": [
				{
					"internalType": "address",
					"name": "",
					"type": "address"
				}
			],
			"payable": false,
			"stateMutability": "view",
			"type": "function"
		},
		{
			"constant": true,
			"inputs": [],
			"name": "getLendingPool",
			"outputs": [
				{
					"internalType": "address",
					"name": "",
					"type": "address"
				}
			],
			"payable": false,
			"stateMutability": "view",
			"type": "function"
		},
		{
			"constant": true,
			"inputs": [],
			"name": "getLendingPoolConfigurator",
			"outputs": [
				{
					"internalType": "address",
					"name": "",
					"type": "address"
				}
			],
			"payable": false,
			"stateMutability": "view",
			"type": "function"
		},
		{
			"constant": true,
			"inputs": [],
			"name": "getLendingPoolCore",
			"outputs": [
				{
					"internalType": "address payable",
					"name": "",
					"type": "address"
				}
			],
			"payable": false,
			"stateMutability": "view",
			"type": "function"
		},
		{
			"constant": true,
			"inputs": [],
			"name": "getLendingPoolDataProvider",
			"outputs": [
				{
					"internalType": "address",
					"name": "",
					"type": "address"
				}
			],
			"payable": false,
			"stateMutability": "view",
			"type": "function"
		},
		{
			"constant": true,
			"inputs": [],
			"name": "getLendingPoolLiquidationManager",
			"outputs": [
				{
					"internalType": "address",
					"name": "",
					"type": "address"
				}
			],
			"payable": false,
			"stateMutability": "view",
			"type": "function"
		},
		{
			"constant": true,
			"inputs": [],
			"name": "getLendingPoolManager",
			"outputs": [
				{
					"internalType": "address",
					"name": "",
					"type": "address"
				}
			],
			"payable": false,
			"stateMutability": "view",
			"type": "function"
		},
		{
			"constant": true,
			"inputs": [],
			"name": "getLendingPoolParametersProvider",
			"outputs": [
				{
					"internalType": "address",
					"name": "",
					"type": "address"
				}
			],
			"payable": false,
			"stateMutability": "view",
			"type": "function"
		},
		{
			"constant": true,
			"inputs": [],
			"name": "getLendingRateOracle",
			"outputs": [
				{
					"internalType": "address",
					"name": "",
					"type": "address"
				}
			],
			"payable": false,
			"stateMutability": "view",
			"type": "function"
		},
		{
			"constant": true,
			"inputs": [],
			"name": "getPendingLendingPoolManager",
			"outputs": [
				{
					"internalType": "address",
					"name": "",
					"type": "address"
				}
			],
			"payable": false,
			"stateMutability": "view",
			"type": "function"
		},
		{
			"constant": true,
			"inputs": [],
			"name": "getPendingSIGHFinanceManager",
			"outputs": [
				{
					"internalType": "address",
					"name": "",
					"type": "address"
				}
			],
			"payable": false,
			"stateMutability": "view",
			"type": "function"
		},
		{
			"constant": true,
			"inputs": [],
			"name": "getPriceOracle",
			"outputs": [
				{
					"internalType": "address",
					"name": "",
					"type": "address"
				}
			],
			"payable": false,
			"stateMutability": "view",
			"type": "function"
		},
		{
			"constant": true,
			"inputs": [],
			"name": "getSIGHAddress",
			"outputs": [
				{
					"internalType": "address",
					"name": "",
					"type": "address"
				}
			],
			"payable": false,
			"stateMutability": "view",
			"type": "function"
		},
		{
			"constant": true,
			"inputs": [],
			"name": "getSIGHFinanceConfigurator",
			"outputs": [
				{
					"internalType": "address",
					"name": "",
					"type": "address"
				}
			],
			"payable": false,
			"stateMutability": "view",
			"type": "function"
		},
		{
			"constant": true,
			"inputs": [],
			"name": "getSIGHFinanceFeeCollector",
			"outputs": [
				{
					"internalType": "address",
					"name": "",
					"type": "address"
				}
			],
			"payable": false,
			"stateMutability": "view",
			"type": "function"
		},
		{
			"constant": true,
			"inputs": [],
			"name": "getSIGHFinanceManager",
			"outputs": [
				{
					"internalType": "address",
					"name": "",
					"type": "address"
				}
			],
			"payable": false,
			"stateMutability": "view",
			"type": "function"
		},
		{
			"constant": true,
			"inputs": [],
			"name": "getSIGHSpeedController",
			"outputs": [
				{
					"internalType": "address",
					"name": "",
					"type": "address"
				}
			],
			"payable": false,
			"stateMutability": "view",
			"type": "function"
		},
		{
			"constant": true,
			"inputs": [],
			"name": "getSIGHStaking",
			"outputs": [
				{
					"internalType": "address",
					"name": "",
					"type": "address"
				}
			],
			"payable": false,
			"stateMutability": "view",
			"type": "function"
		},
		{
			"constant": true,
			"inputs": [],
			"name": "getSIGHTreasury",
			"outputs": [
				{
					"internalType": "address",
					"name": "",
					"type": "address"
				}
			],
			"payable": false,
			"stateMutability": "view",
			"type": "function"
		},
		{
			"constant": true,
			"inputs": [],
			"name": "getSIGHVolatilityHarvester",
			"outputs": [
				{
					"internalType": "address",
					"name": "",
					"type": "address"
				}
			],
			"payable": false,
			"stateMutability": "view",
			"type": "function"
		},
		{
			"constant": false,
			"inputs": [
				{
					"internalType": "address",
					"name": "_feeProvider",
					"type": "address"
				}
			],
			"name": "setFeeProviderImpl",
			"outputs": [],
			"payable": false,
			"stateMutability": "nonpayable",
			"type": "function"
		},
		{
			"constant": false,
			"inputs": [
				{
					"internalType": "address",
					"name": "_configurator",
					"type": "address"
				}
			],
			"name": "setLendingPoolConfiguratorImpl",
			"outputs": [],
			"payable": false,
			"stateMutability": "nonpayable",
			"type": "function"
		},
		{
			"constant": false,
			"inputs": [
				{
					"internalType": "address",
					"name": "_lendingPoolCore",
					"type": "address"
				}
			],
			"name": "setLendingPoolCoreImpl",
			"outputs": [],
			"payable": false,
			"stateMutability": "nonpayable",
			"type": "function"
		},
		{
			"constant": false,
			"inputs": [
				{
					"internalType": "address",
					"name": "_provider",
					"type": "address"
				}
			],
			"name": "setLendingPoolDataProviderImpl",
			"outputs": [],
			"payable": false,
			"stateMutability": "nonpayable",
			"type": "function"
		},
		{
			"constant": false,
			"inputs": [
				{
					"internalType": "address",
					"name": "_pool",
					"type": "address"
				}
			],
			"name": "setLendingPoolImpl",
			"outputs": [],
			"payable": false,
			"stateMutability": "nonpayable",
			"type": "function"
		},
		{
			"constant": false,
			"inputs": [
				{
					"internalType": "address",
					"name": "_manager",
					"type": "address"
				}
			],
			"name": "setLendingPoolLiquidationManager",
			"outputs": [],
			"payable": false,
			"stateMutability": "nonpayable",
			"type": "function"
		},
		{
			"constant": false,
			"inputs": [
				{
					"internalType": "address",
					"name": "_parametersProvider",
					"type": "address"
				}
			],
			"name": "setLendingPoolParametersProviderImpl",
			"outputs": [],
			"payable": false,
			"stateMutability": "nonpayable",
			"type": "function"
		},
		{
			"constant": false,
			"inputs": [
				{
					"internalType": "address",
					"name": "_lendingRateOracle",
					"type": "address"
				}
			],
			"name": "setLendingRateOracle",
			"outputs": [],
			"payable": false,
			"stateMutability": "nonpayable",
			"type": "function"
		},
		{
			"constant": false,
			"inputs": [
				{
					"internalType": "address",
					"name": "_pendinglendingPoolManager",
					"type": "address"
				}
			],
			"name": "setPendingLendingPoolManager",
			"outputs": [],
			"payable": false,
			"stateMutability": "nonpayable",
			"type": "function"
		},
		{
			"constant": false,
			"inputs": [
				{
					"internalType": "address",
					"name": "_PendingSIGHFinanceManager",
					"type": "address"
				}
			],
			"name": "setPendingSIGHFinanceManager",
			"outputs": [],
			"payable": false,
			"stateMutability": "nonpayable",
			"type": "function"
		},
		{
			"constant": false,
			"inputs": [
				{
					"internalType": "address",
					"name": "_priceOracle",
					"type": "address"
				}
			],
			"name": "setPriceOracle",
			"outputs": [],
			"payable": false,
			"stateMutability": "nonpayable",
			"type": "function"
		},
		{
			"constant": false,
			"inputs": [
				{
					"internalType": "address",
					"name": "sighAddress",
					"type": "address"
				}
			],
			"name": "setSIGHAddress",
			"outputs": [],
			"payable": false,
			"stateMutability": "nonpayable",
			"type": "function"
		},
		{
			"constant": false,
			"inputs": [
				{
					"internalType": "address",
					"name": "_configurator",
					"type": "address"
				}
			],
			"name": "setSIGHFinanceConfiguratorImpl",
			"outputs": [],
			"payable": false,
			"stateMutability": "nonpayable",
			"type": "function"
		},
		{
			"constant": false,
			"inputs": [
				{
					"internalType": "address",
					"name": "_feeCollector",
					"type": "address"
				}
			],
			"name": "setSIGHFinanceFeeCollector",
			"outputs": [],
			"payable": false,
			"stateMutability": "nonpayable",
			"type": "function"
		},
		{
			"constant": false,
			"inputs": [
				{
					"internalType": "address",
					"name": "_SIGHSpeedController",
					"type": "address"
				}
			],
			"name": "setSIGHSpeedController",
			"outputs": [],
			"payable": false,
			"stateMutability": "nonpayable",
			"type": "function"
		},
		{
			"constant": false,
			"inputs": [
				{
					"internalType": "address",
					"name": "_SIGHStaking",
					"type": "address"
				}
			],
			"name": "setSIGHStaking",
			"outputs": [],
			"payable": false,
			"stateMutability": "nonpayable",
			"type": "function"
		},
		{
			"constant": false,
			"inputs": [
				{
					"internalType": "address",
					"name": "_SIGHTreasury",
					"type": "address"
				}
			],
			"name": "setSIGHTreasuryImpl",
			"outputs": [],
			"payable": false,
			"stateMutability": "nonpayable",
			"type": "function"
		},
		{
			"constant": false,
			"inputs": [
				{
					"internalType": "address",
					"name": "_SIGHVolatilityHarvester",
					"type": "address"
				}
			],
			"name": "setSIGHVolatilityHarvesterImpl",
			"outputs": [],
			"payable": false,
			"stateMutability": "nonpayable",
			"type": "function"
		}
	]
}