{
	"data": {
		"bytecode": {
			"linkReferences": {},
			"object": "608060405234801561001057600080fd5b50604051610dbd380380610dbd833981810160405260c081101561003357600080fd5b508051602082015160408301516060840151608085015160a090950151600080546001600160a01b039096166001600160a01b031990961695909517909455600192909255600255600355600491909155600555610d27806100966000396000f3fe608060405234801561001057600080fd5b50600436106101215760003560e01c8063925b3ef8116100ad578063bfa6daef11610071578063bfa6daef14610252578063c72c4d101461026f578063ccab01a314610293578063d5cd73911461029b578063f4202409146102a357610121565b8063925b3ef8146101eb5780639a207c2314610208578063a15f30ac14610225578063b0dfd97d1461022d578063b25895441461024a57610121565b8063280c95b3116100f4578063280c95b31461015857806334762ca51461017757806357e37af01461017f57806365614f81146101db5780637b832f58146101e357610121565b80630b3429a2146101265780630bdf953f1461014057806314e32da4146101485780631731987314610150575b600080fd5b61012e6102ab565b60408051918252519081900360200190f35b61012e6102b1565b61012e6102b7565b61012e6102bd565b6101756004803603602081101561016e57600080fd5b50356102cc565b005b61012e610386565b6101bd600480360360a081101561019557600080fd5b506001600160a01b03813516906020810135906040810135906060810135906080013561038c565b60408051938452602084019290925282820152519081900360600190f35b61012e61063c565b61012e610642565b6101756004803603602081101561020157600080fd5b5035610648565b6101756004803603602081101561021e57600080fd5b5035610702565b61012e6107bc565b6101756004803603602081101561024357600080fd5b50356107cc565b61012e610886565b6101756004803603602081101561026857600080fd5b503561088c565b610277610946565b604080516001600160a01b039092168252519081900360200190f35b61012e610955565b61012e61095b565b61012e610961565b60025490565b60045481565b60055490565b6aa56fa5b99019a5c800000081565b600054604080516333128d5960e01b8152905133926001600160a01b0316916333128d59916004808301926020929190829003018186803b15801561031057600080fd5b505afa158015610324573d6000803e3d6000fd5b505050506040513d602081101561033a57600080fd5b50516001600160a01b0316146103815760405162461bcd60e51b815260040180806020018281038252602b815260200180610cc8602b913960400191505060405180910390fd5b600155565b60015490565b60008080806103a1878763ffffffff61096716565b90506000811580156103b1575088155b6103da576103d56103c88a8463ffffffff61096716565b839063ffffffff6109ca16565b6103dd565b60005b90506000809054906101000a90046001600160a01b03166001600160a01b0316633618abba6040518163ffffffff1660e01b815260040160206040518083038186803b15801561042c57600080fd5b505afa158015610440573d6000803e3d6000fd5b505050506040513d602081101561045657600080fd5b50516040805163bb85c0bb60e01b81526001600160a01b038d811660048301529151919092169163bb85c0bb916024808301926020929190829003018186803b1580156104a257600080fd5b505afa1580156104b6573d6000803e3d6000fd5b505050506040513d60208110156104cc57600080fd5b505193506b0295be96e64066972000000081111561058e57600061051d6aa56fa5b99019a5c8000000610511846b0295be96e64066972000000063ffffffff610a0e16565b9063ffffffff6109ca16565b905061055761053782600554610a5090919063ffffffff16565b60045461054b90889063ffffffff61096716565b9063ffffffff61096716565b945061058661057182600354610a5090919063ffffffff16565b60025460015461054b9163ffffffff61096716565b935050610611565b6105cc6105bf6105b0836b0295be96e64066972000000063ffffffff6109ca16565b6004549063ffffffff610a5016565b859063ffffffff61096716565b935061060e6105ff6105f0836b0295be96e64066972000000063ffffffff6109ca16565b6002549063ffffffff610a5016565b6001549063ffffffff61096716565b92505b61062d816106218a8a878b610a88565b9063ffffffff610a5016565b94505050955095509592505050565b60035481565b60025481565b600054604080516333128d5960e01b8152905133926001600160a01b0316916333128d59916004808301926020929190829003018186803b15801561068c57600080fd5b505afa1580156106a0573d6000803e3d6000fd5b505050506040513d60208110156106b657600080fd5b50516001600160a01b0316146106fd5760405162461bcd60e51b815260040180806020018281038252602b815260200180610cc8602b913960400191505060405180910390fd5b600255565b600054604080516333128d5960e01b8152905133926001600160a01b0316916333128d59916004808301926020929190829003018186803b15801561074657600080fd5b505afa15801561075a573d6000803e3d6000fd5b505050506040513d602081101561077057600080fd5b50516001600160a01b0316146107b75760405162461bcd60e51b815260040180806020018281038252602b815260200180610cc8602b913960400191505060405180910390fd5b600355565b6b0295be96e64066972000000081565b600054604080516333128d5960e01b8152905133926001600160a01b0316916333128d59916004808301926020929190829003018186803b15801561081057600080fd5b505afa158015610824573d6000803e3d6000fd5b505050506040513d602081101561083a57600080fd5b50516001600160a01b0316146108815760405162461bcd60e51b815260040180806020018281038252602b815260200180610cc8602b913960400191505060405180910390fd5b600555565b60015481565b600054604080516333128d5960e01b8152905133926001600160a01b0316916333128d59916004808301926020929190829003018186803b1580156108d057600080fd5b505afa1580156108e4573d6000803e3d6000fd5b505050506040513d60208110156108fa57600080fd5b50516001600160a01b0316146109415760405162461bcd60e51b815260040180806020018281038252602b815260200180610cc8602b913960400191505060405180910390fd5b600455565b6000546001600160a01b031681565b60055481565b60045490565b60035490565b6000828201838110156109c1576040805162461bcd60e51b815260206004820152601b60248201527f536166654d6174683a206164646974696f6e206f766572666c6f770000000000604482015290519081900360640190fd5b90505b92915050565b600060028204610a06836109fa6109ed876b033b2e3c9fd0803ce8000000610af9565b849063ffffffff61096716565b9063ffffffff610b5216565b949350505050565b60006109c183836040518060400160405280601e81526020017f536166654d6174683a207375627472616374696f6e206f766572666c6f770000815250610b94565b60006109c16b033b2e3c9fd0803ce80000006109fa610a75868663ffffffff610af916565b6b019d971e4fe8401e7400000090610967565b600080610a9b868663ffffffff61096716565b905080610aac576000915050610a06565b6000610abb8561062188610c2b565b90506000610acc856106218a610c2b565b90506000610aec610adc85610c2b565b610511858563ffffffff61096716565b9998505050505050505050565b600082610b08575060006109c4565b82820282848281610b1557fe5b04146109c15760405162461bcd60e51b8152600401808060200182810382526021815260200180610ca76021913960400191505060405180910390fd5b60006109c183836040518060400160405280601a81526020017f536166654d6174683a206469766973696f6e206279207a65726f000000000000815250610c41565b60008184841115610c235760405162461bcd60e51b81526004018080602001828103825283818151815260200191508051906020019080838360005b83811015610be8578181015183820152602001610bd0565b50505050905090810190601f168015610c155780820380516001836020036101000a031916815260200191505b509250505060405180910390fd5b505050900390565b60006109c482633b9aca0063ffffffff610af916565b60008183610c905760405162461bcd60e51b8152602060048201818152835160248401528351909283926044909101919085019080838360008315610be8578181015183820152602001610bd0565b506000838581610c9c57fe5b049594505050505056fe536166654d6174683a206d756c7469706c69636174696f6e206f766572666c6f775468652063616c6c6572206d75737420626520746865206c656e64696e6720706f6f6c206d616e61676572a265627a7a723158203e2c767b61c97fc66c11167cd5c71b676800cfc4f7e4c5875406e530df2ce60f64736f6c63430005110032",
			"opcodes": "PUSH1 0x80 PUSH1 0x40 MSTORE CALLVALUE DUP1 ISZERO PUSH2 0x10 JUMPI PUSH1 0x0 DUP1 REVERT JUMPDEST POP PUSH1 0x40 MLOAD PUSH2 0xDBD CODESIZE SUB DUP1 PUSH2 0xDBD DUP4 CODECOPY DUP2 DUP2 ADD PUSH1 0x40 MSTORE PUSH1 0xC0 DUP2 LT ISZERO PUSH2 0x33 JUMPI PUSH1 0x0 DUP1 REVERT JUMPDEST POP DUP1 MLOAD PUSH1 0x20 DUP3 ADD MLOAD PUSH1 0x40 DUP4 ADD MLOAD PUSH1 0x60 DUP5 ADD MLOAD PUSH1 0x80 DUP6 ADD MLOAD PUSH1 0xA0 SWAP1 SWAP6 ADD MLOAD PUSH1 0x0 DUP1 SLOAD PUSH1 0x1 PUSH1 0x1 PUSH1 0xA0 SHL SUB SWAP1 SWAP7 AND PUSH1 0x1 PUSH1 0x1 PUSH1 0xA0 SHL SUB NOT SWAP1 SWAP7 AND SWAP6 SWAP1 SWAP6 OR SWAP1 SWAP5 SSTORE PUSH1 0x1 SWAP3 SWAP1 SWAP3 SSTORE PUSH1 0x2 SSTORE PUSH1 0x3 SSTORE PUSH1 0x4 SWAP2 SWAP1 SWAP2 SSTORE PUSH1 0x5 SSTORE PUSH2 0xD27 DUP1 PUSH2 0x96 PUSH1 0x0 CODECOPY PUSH1 0x0 RETURN INVALID PUSH1 0x80 PUSH1 0x40 MSTORE CALLVALUE DUP1 ISZERO PUSH2 0x10 JUMPI PUSH1 0x0 DUP1 REVERT JUMPDEST POP PUSH1 0x4 CALLDATASIZE LT PUSH2 0x121 JUMPI PUSH1 0x0 CALLDATALOAD PUSH1 0xE0 SHR DUP1 PUSH4 0x925B3EF8 GT PUSH2 0xAD JUMPI DUP1 PUSH4 0xBFA6DAEF GT PUSH2 0x71 JUMPI DUP1 PUSH4 0xBFA6DAEF EQ PUSH2 0x252 JUMPI DUP1 PUSH4 0xC72C4D10 EQ PUSH2 0x26F JUMPI DUP1 PUSH4 0xCCAB01A3 EQ PUSH2 0x293 JUMPI DUP1 PUSH4 0xD5CD7391 EQ PUSH2 0x29B JUMPI DUP1 PUSH4 0xF4202409 EQ PUSH2 0x2A3 JUMPI PUSH2 0x121 JUMP JUMPDEST DUP1 PUSH4 0x925B3EF8 EQ PUSH2 0x1EB JUMPI DUP1 PUSH4 0x9A207C23 EQ PUSH2 0x208 JUMPI DUP1 PUSH4 0xA15F30AC EQ PUSH2 0x225 JUMPI DUP1 PUSH4 0xB0DFD97D EQ PUSH2 0x22D JUMPI DUP1 PUSH4 0xB2589544 EQ PUSH2 0x24A JUMPI PUSH2 0x121 JUMP JUMPDEST DUP1 PUSH4 0x280C95B3 GT PUSH2 0xF4 JUMPI DUP1 PUSH4 0x280C95B3 EQ PUSH2 0x158 JUMPI DUP1 PUSH4 0x34762CA5 EQ PUSH2 0x177 JUMPI DUP1 PUSH4 0x57E37AF0 EQ PUSH2 0x17F JUMPI DUP1 PUSH4 0x65614F81 EQ PUSH2 0x1DB JUMPI DUP1 PUSH4 0x7B832F58 EQ PUSH2 0x1E3 JUMPI PUSH2 0x121 JUMP JUMPDEST DUP1 PUSH4 0xB3429A2 EQ PUSH2 0x126 JUMPI DUP1 PUSH4 0xBDF953F EQ PUSH2 0x140 JUMPI DUP1 PUSH4 0x14E32DA4 EQ PUSH2 0x148 JUMPI DUP1 PUSH4 0x17319873 EQ PUSH2 0x150 JUMPI JUMPDEST PUSH1 0x0 DUP1 REVERT JUMPDEST PUSH2 0x12E PUSH2 0x2AB JUMP JUMPDEST PUSH1 0x40 DUP1 MLOAD SWAP2 DUP3 MSTORE MLOAD SWAP1 DUP2 SWAP1 SUB PUSH1 0x20 ADD SWAP1 RETURN JUMPDEST PUSH2 0x12E PUSH2 0x2B1 JUMP JUMPDEST PUSH2 0x12E PUSH2 0x2B7 JUMP JUMPDEST PUSH2 0x12E PUSH2 0x2BD JUMP JUMPDEST PUSH2 0x175 PUSH1 0x4 DUP1 CALLDATASIZE SUB PUSH1 0x20 DUP2 LT ISZERO PUSH2 0x16E JUMPI PUSH1 0x0 DUP1 REVERT JUMPDEST POP CALLDATALOAD PUSH2 0x2CC JUMP JUMPDEST STOP JUMPDEST PUSH2 0x12E PUSH2 0x386 JUMP JUMPDEST PUSH2 0x1BD PUSH1 0x4 DUP1 CALLDATASIZE SUB PUSH1 0xA0 DUP2 LT ISZERO PUSH2 0x195 JUMPI PUSH1 0x0 DUP1 REVERT JUMPDEST POP PUSH1 0x1 PUSH1 0x1 PUSH1 0xA0 SHL SUB DUP2 CALLDATALOAD AND SWAP1 PUSH1 0x20 DUP2 ADD CALLDATALOAD SWAP1 PUSH1 0x40 DUP2 ADD CALLDATALOAD SWAP1 PUSH1 0x60 DUP2 ADD CALLDATALOAD SWAP1 PUSH1 0x80 ADD CALLDATALOAD PUSH2 0x38C JUMP JUMPDEST PUSH1 0x40 DUP1 MLOAD SWAP4 DUP5 MSTORE PUSH1 0x20 DUP5 ADD SWAP3 SWAP1 SWAP3 MSTORE DUP3 DUP3 ADD MSTORE MLOAD SWAP1 DUP2 SWAP1 SUB PUSH1 0x60 ADD SWAP1 RETURN JUMPDEST PUSH2 0x12E PUSH2 0x63C JUMP JUMPDEST PUSH2 0x12E PUSH2 0x642 JUMP JUMPDEST PUSH2 0x175 PUSH1 0x4 DUP1 CALLDATASIZE SUB PUSH1 0x20 DUP2 LT ISZERO PUSH2 0x201 JUMPI PUSH1 0x0 DUP1 REVERT JUMPDEST POP CALLDATALOAD PUSH2 0x648 JUMP JUMPDEST PUSH2 0x175 PUSH1 0x4 DUP1 CALLDATASIZE SUB PUSH1 0x20 DUP2 LT ISZERO PUSH2 0x21E JUMPI PUSH1 0x0 DUP1 REVERT JUMPDEST POP CALLDATALOAD PUSH2 0x702 JUMP JUMPDEST PUSH2 0x12E PUSH2 0x7BC JUMP JUMPDEST PUSH2 0x175 PUSH1 0x4 DUP1 CALLDATASIZE SUB PUSH1 0x20 DUP2 LT ISZERO PUSH2 0x243 JUMPI PUSH1 0x0 DUP1 REVERT JUMPDEST POP CALLDATALOAD PUSH2 0x7CC JUMP JUMPDEST PUSH2 0x12E PUSH2 0x886 JUMP JUMPDEST PUSH2 0x175 PUSH1 0x4 DUP1 CALLDATASIZE SUB PUSH1 0x20 DUP2 LT ISZERO PUSH2 0x268 JUMPI PUSH1 0x0 DUP1 REVERT JUMPDEST POP CALLDATALOAD PUSH2 0x88C JUMP JUMPDEST PUSH2 0x277 PUSH2 0x946 JUMP JUMPDEST PUSH1 0x40 DUP1 MLOAD PUSH1 0x1 PUSH1 0x1 PUSH1 0xA0 SHL SUB SWAP1 SWAP3 AND DUP3 MSTORE MLOAD SWAP1 DUP2 SWAP1 SUB PUSH1 0x20 ADD SWAP1 RETURN JUMPDEST PUSH2 0x12E PUSH2 0x955 JUMP JUMPDEST PUSH2 0x12E PUSH2 0x95B JUMP JUMPDEST PUSH2 0x12E PUSH2 0x961 JUMP JUMPDEST PUSH1 0x2 SLOAD SWAP1 JUMP JUMPDEST PUSH1 0x4 SLOAD DUP2 JUMP JUMPDEST PUSH1 0x5 SLOAD SWAP1 JUMP JUMPDEST PUSH11 0xA56FA5B99019A5C8000000 DUP2 JUMP JUMPDEST PUSH1 0x0 SLOAD PUSH1 0x40 DUP1 MLOAD PUSH4 0x33128D59 PUSH1 0xE0 SHL DUP2 MSTORE SWAP1 MLOAD CALLER SWAP3 PUSH1 0x1 PUSH1 0x1 PUSH1 0xA0 SHL SUB AND SWAP2 PUSH4 0x33128D59 SWAP2 PUSH1 0x4 DUP1 DUP4 ADD SWAP3 PUSH1 0x20 SWAP3 SWAP2 SWAP1 DUP3 SWAP1 SUB ADD DUP2 DUP7 DUP1 EXTCODESIZE ISZERO DUP1 ISZERO PUSH2 0x310 JUMPI PUSH1 0x0 DUP1 REVERT JUMPDEST POP GAS STATICCALL ISZERO DUP1 ISZERO PUSH2 0x324 JUMPI RETURNDATASIZE PUSH1 0x0 DUP1 RETURNDATACOPY RETURNDATASIZE PUSH1 0x0 REVERT JUMPDEST POP POP POP POP PUSH1 0x40 MLOAD RETURNDATASIZE PUSH1 0x20 DUP2 LT ISZERO PUSH2 0x33A JUMPI PUSH1 0x0 DUP1 REVERT JUMPDEST POP MLOAD PUSH1 0x1 PUSH1 0x1 PUSH1 0xA0 SHL SUB AND EQ PUSH2 0x381 JUMPI PUSH1 0x40 MLOAD PUSH3 0x461BCD PUSH1 0xE5 SHL DUP2 MSTORE PUSH1 0x4 ADD DUP1 DUP1 PUSH1 0x20 ADD DUP3 DUP2 SUB DUP3 MSTORE PUSH1 0x2B DUP2 MSTORE PUSH1 0x20 ADD DUP1 PUSH2 0xCC8 PUSH1 0x2B SWAP2 CODECOPY PUSH1 0x40 ADD SWAP2 POP POP PUSH1 0x40 MLOAD DUP1 SWAP2 SUB SWAP1 REVERT JUMPDEST PUSH1 0x1 SSTORE JUMP JUMPDEST PUSH1 0x1 SLOAD SWAP1 JUMP JUMPDEST PUSH1 0x0 DUP1 DUP1 DUP1 PUSH2 0x3A1 DUP8 DUP8 PUSH4 0xFFFFFFFF PUSH2 0x967 AND JUMP JUMPDEST SWAP1 POP PUSH1 0x0 DUP2 ISZERO DUP1 ISZERO PUSH2 0x3B1 JUMPI POP DUP9 ISZERO JUMPDEST PUSH2 0x3DA JUMPI PUSH2 0x3D5 PUSH2 0x3C8 DUP11 DUP5 PUSH4 0xFFFFFFFF PUSH2 0x967 AND JUMP JUMPDEST DUP4 SWAP1 PUSH4 0xFFFFFFFF PUSH2 0x9CA AND JUMP JUMPDEST PUSH2 0x3DD JUMP JUMPDEST PUSH1 0x0 JUMPDEST SWAP1 POP PUSH1 0x0 DUP1 SWAP1 SLOAD SWAP1 PUSH2 0x100 EXP SWAP1 DIV PUSH1 0x1 PUSH1 0x1 PUSH1 0xA0 SHL SUB AND PUSH1 0x1 PUSH1 0x1 PUSH1 0xA0 SHL SUB AND PUSH4 0x3618ABBA PUSH1 0x40 MLOAD DUP2 PUSH4 0xFFFFFFFF AND PUSH1 0xE0 SHL DUP2 MSTORE PUSH1 0x4 ADD PUSH1 0x20 PUSH1 0x40 MLOAD DUP1 DUP4 SUB DUP2 DUP7 DUP1 EXTCODESIZE ISZERO DUP1 ISZERO PUSH2 0x42C JUMPI PUSH1 0x0 DUP1 REVERT JUMPDEST POP GAS STATICCALL ISZERO DUP1 ISZERO PUSH2 0x440 JUMPI RETURNDATASIZE PUSH1 0x0 DUP1 RETURNDATACOPY RETURNDATASIZE PUSH1 0x0 REVERT JUMPDEST POP POP POP POP PUSH1 0x40 MLOAD RETURNDATASIZE PUSH1 0x20 DUP2 LT ISZERO PUSH2 0x456 JUMPI PUSH1 0x0 DUP1 REVERT JUMPDEST POP MLOAD PUSH1 0x40 DUP1 MLOAD PUSH4 0xBB85C0BB PUSH1 0xE0 SHL DUP2 MSTORE PUSH1 0x1 PUSH1 0x1 PUSH1 0xA0 SHL SUB DUP14 DUP2 AND PUSH1 0x4 DUP4 ADD MSTORE SWAP2 MLOAD SWAP2 SWAP1 SWAP3 AND SWAP2 PUSH4 0xBB85C0BB SWAP2 PUSH1 0x24 DUP1 DUP4 ADD SWAP3 PUSH1 0x20 SWAP3 SWAP2 SWAP1 DUP3 SWAP1 SUB ADD DUP2 DUP7 DUP1 EXTCODESIZE ISZERO DUP1 ISZERO PUSH2 0x4A2 JUMPI PUSH1 0x0 DUP1 REVERT JUMPDEST POP GAS STATICCALL ISZERO DUP1 ISZERO PUSH2 0x4B6 JUMPI RETURNDATASIZE PUSH1 0x0 DUP1 RETURNDATACOPY RETURNDATASIZE PUSH1 0x0 REVERT JUMPDEST POP POP POP POP PUSH1 0x40 MLOAD RETURNDATASIZE PUSH1 0x20 DUP2 LT ISZERO PUSH2 0x4CC JUMPI PUSH1 0x0 DUP1 REVERT JUMPDEST POP MLOAD SWAP4 POP PUSH12 0x295BE96E640669720000000 DUP2 GT ISZERO PUSH2 0x58E JUMPI PUSH1 0x0 PUSH2 0x51D PUSH11 0xA56FA5B99019A5C8000000 PUSH2 0x511 DUP5 PUSH12 0x295BE96E640669720000000 PUSH4 0xFFFFFFFF PUSH2 0xA0E AND JUMP JUMPDEST SWAP1 PUSH4 0xFFFFFFFF PUSH2 0x9CA AND JUMP JUMPDEST SWAP1 POP PUSH2 0x557 PUSH2 0x537 DUP3 PUSH1 0x5 SLOAD PUSH2 0xA50 SWAP1 SWAP2 SWAP1 PUSH4 0xFFFFFFFF AND JUMP JUMPDEST PUSH1 0x4 SLOAD PUSH2 0x54B SWAP1 DUP9 SWAP1 PUSH4 0xFFFFFFFF PUSH2 0x967 AND JUMP JUMPDEST SWAP1 PUSH4 0xFFFFFFFF PUSH2 0x967 AND JUMP JUMPDEST SWAP5 POP PUSH2 0x586 PUSH2 0x571 DUP3 PUSH1 0x3 SLOAD PUSH2 0xA50 SWAP1 SWAP2 SWAP1 PUSH4 0xFFFFFFFF AND JUMP JUMPDEST PUSH1 0x2 SLOAD PUSH1 0x1 SLOAD PUSH2 0x54B SWAP2 PUSH4 0xFFFFFFFF PUSH2 0x967 AND JUMP JUMPDEST SWAP4 POP POP PUSH2 0x611 JUMP JUMPDEST PUSH2 0x5CC PUSH2 0x5BF PUSH2 0x5B0 DUP4 PUSH12 0x295BE96E640669720000000 PUSH4 0xFFFFFFFF PUSH2 0x9CA AND JUMP JUMPDEST PUSH1 0x4 SLOAD SWAP1 PUSH4 0xFFFFFFFF PUSH2 0xA50 AND JUMP JUMPDEST DUP6 SWAP1 PUSH4 0xFFFFFFFF PUSH2 0x967 AND JUMP JUMPDEST SWAP4 POP PUSH2 0x60E PUSH2 0x5FF PUSH2 0x5F0 DUP4 PUSH12 0x295BE96E640669720000000 PUSH4 0xFFFFFFFF PUSH2 0x9CA AND JUMP JUMPDEST PUSH1 0x2 SLOAD SWAP1 PUSH4 0xFFFFFFFF PUSH2 0xA50 AND JUMP JUMPDEST PUSH1 0x1 SLOAD SWAP1 PUSH4 0xFFFFFFFF PUSH2 0x967 AND JUMP JUMPDEST SWAP3 POP JUMPDEST PUSH2 0x62D DUP2 PUSH2 0x621 DUP11 DUP11 DUP8 DUP12 PUSH2 0xA88 JUMP JUMPDEST SWAP1 PUSH4 0xFFFFFFFF PUSH2 0xA50 AND JUMP JUMPDEST SWAP5 POP POP POP SWAP6 POP SWAP6 POP SWAP6 SWAP3 POP POP POP JUMP JUMPDEST PUSH1 0x3 SLOAD DUP2 JUMP JUMPDEST PUSH1 0x2 SLOAD DUP2 JUMP JUMPDEST PUSH1 0x0 SLOAD PUSH1 0x40 DUP1 MLOAD PUSH4 0x33128D59 PUSH1 0xE0 SHL DUP2 MSTORE SWAP1 MLOAD CALLER SWAP3 PUSH1 0x1 PUSH1 0x1 PUSH1 0xA0 SHL SUB AND SWAP2 PUSH4 0x33128D59 SWAP2 PUSH1 0x4 DUP1 DUP4 ADD SWAP3 PUSH1 0x20 SWAP3 SWAP2 SWAP1 DUP3 SWAP1 SUB ADD DUP2 DUP7 DUP1 EXTCODESIZE ISZERO DUP1 ISZERO PUSH2 0x68C JUMPI PUSH1 0x0 DUP1 REVERT JUMPDEST POP GAS STATICCALL ISZERO DUP1 ISZERO PUSH2 0x6A0 JUMPI RETURNDATASIZE PUSH1 0x0 DUP1 RETURNDATACOPY RETURNDATASIZE PUSH1 0x0 REVERT JUMPDEST POP POP POP POP PUSH1 0x40 MLOAD RETURNDATASIZE PUSH1 0x20 DUP2 LT ISZERO PUSH2 0x6B6 JUMPI PUSH1 0x0 DUP1 REVERT JUMPDEST POP MLOAD PUSH1 0x1 PUSH1 0x1 PUSH1 0xA0 SHL SUB AND EQ PUSH2 0x6FD JUMPI PUSH1 0x40 MLOAD PUSH3 0x461BCD PUSH1 0xE5 SHL DUP2 MSTORE PUSH1 0x4 ADD DUP1 DUP1 PUSH1 0x20 ADD DUP3 DUP2 SUB DUP3 MSTORE PUSH1 0x2B DUP2 MSTORE PUSH1 0x20 ADD DUP1 PUSH2 0xCC8 PUSH1 0x2B SWAP2 CODECOPY PUSH1 0x40 ADD SWAP2 POP POP PUSH1 0x40 MLOAD DUP1 SWAP2 SUB SWAP1 REVERT JUMPDEST PUSH1 0x2 SSTORE JUMP JUMPDEST PUSH1 0x0 SLOAD PUSH1 0x40 DUP1 MLOAD PUSH4 0x33128D59 PUSH1 0xE0 SHL DUP2 MSTORE SWAP1 MLOAD CALLER SWAP3 PUSH1 0x1 PUSH1 0x1 PUSH1 0xA0 SHL SUB AND SWAP2 PUSH4 0x33128D59 SWAP2 PUSH1 0x4 DUP1 DUP4 ADD SWAP3 PUSH1 0x20 SWAP3 SWAP2 SWAP1 DUP3 SWAP1 SUB ADD DUP2 DUP7 DUP1 EXTCODESIZE ISZERO DUP1 ISZERO PUSH2 0x746 JUMPI PUSH1 0x0 DUP1 REVERT JUMPDEST POP GAS STATICCALL ISZERO DUP1 ISZERO PUSH2 0x75A JUMPI RETURNDATASIZE PUSH1 0x0 DUP1 RETURNDATACOPY RETURNDATASIZE PUSH1 0x0 REVERT JUMPDEST POP POP POP POP PUSH1 0x40 MLOAD RETURNDATASIZE PUSH1 0x20 DUP2 LT ISZERO PUSH2 0x770 JUMPI PUSH1 0x0 DUP1 REVERT JUMPDEST POP MLOAD PUSH1 0x1 PUSH1 0x1 PUSH1 0xA0 SHL SUB AND EQ PUSH2 0x7B7 JUMPI PUSH1 0x40 MLOAD PUSH3 0x461BCD PUSH1 0xE5 SHL DUP2 MSTORE PUSH1 0x4 ADD DUP1 DUP1 PUSH1 0x20 ADD DUP3 DUP2 SUB DUP3 MSTORE PUSH1 0x2B DUP2 MSTORE PUSH1 0x20 ADD DUP1 PUSH2 0xCC8 PUSH1 0x2B SWAP2 CODECOPY PUSH1 0x40 ADD SWAP2 POP POP PUSH1 0x40 MLOAD DUP1 SWAP2 SUB SWAP1 REVERT JUMPDEST PUSH1 0x3 SSTORE JUMP JUMPDEST PUSH12 0x295BE96E640669720000000 DUP2 JUMP JUMPDEST PUSH1 0x0 SLOAD PUSH1 0x40 DUP1 MLOAD PUSH4 0x33128D59 PUSH1 0xE0 SHL DUP2 MSTORE SWAP1 MLOAD CALLER SWAP3 PUSH1 0x1 PUSH1 0x1 PUSH1 0xA0 SHL SUB AND SWAP2 PUSH4 0x33128D59 SWAP2 PUSH1 0x4 DUP1 DUP4 ADD SWAP3 PUSH1 0x20 SWAP3 SWAP2 SWAP1 DUP3 SWAP1 SUB ADD DUP2 DUP7 DUP1 EXTCODESIZE ISZERO DUP1 ISZERO PUSH2 0x810 JUMPI PUSH1 0x0 DUP1 REVERT JUMPDEST POP GAS STATICCALL ISZERO DUP1 ISZERO PUSH2 0x824 JUMPI RETURNDATASIZE PUSH1 0x0 DUP1 RETURNDATACOPY RETURNDATASIZE PUSH1 0x0 REVERT JUMPDEST POP POP POP POP PUSH1 0x40 MLOAD RETURNDATASIZE PUSH1 0x20 DUP2 LT ISZERO PUSH2 0x83A JUMPI PUSH1 0x0 DUP1 REVERT JUMPDEST POP MLOAD PUSH1 0x1 PUSH1 0x1 PUSH1 0xA0 SHL SUB AND EQ PUSH2 0x881 JUMPI PUSH1 0x40 MLOAD PUSH3 0x461BCD PUSH1 0xE5 SHL DUP2 MSTORE PUSH1 0x4 ADD DUP1 DUP1 PUSH1 0x20 ADD DUP3 DUP2 SUB DUP3 MSTORE PUSH1 0x2B DUP2 MSTORE PUSH1 0x20 ADD DUP1 PUSH2 0xCC8 PUSH1 0x2B SWAP2 CODECOPY PUSH1 0x40 ADD SWAP2 POP POP PUSH1 0x40 MLOAD DUP1 SWAP2 SUB SWAP1 REVERT JUMPDEST PUSH1 0x5 SSTORE JUMP JUMPDEST PUSH1 0x1 SLOAD DUP2 JUMP JUMPDEST PUSH1 0x0 SLOAD PUSH1 0x40 DUP1 MLOAD PUSH4 0x33128D59 PUSH1 0xE0 SHL DUP2 MSTORE SWAP1 MLOAD CALLER SWAP3 PUSH1 0x1 PUSH1 0x1 PUSH1 0xA0 SHL SUB AND SWAP2 PUSH4 0x33128D59 SWAP2 PUSH1 0x4 DUP1 DUP4 ADD SWAP3 PUSH1 0x20 SWAP3 SWAP2 SWAP1 DUP3 SWAP1 SUB ADD DUP2 DUP7 DUP1 EXTCODESIZE ISZERO DUP1 ISZERO PUSH2 0x8D0 JUMPI PUSH1 0x0 DUP1 REVERT JUMPDEST POP GAS STATICCALL ISZERO DUP1 ISZERO PUSH2 0x8E4 JUMPI RETURNDATASIZE PUSH1 0x0 DUP1 RETURNDATACOPY RETURNDATASIZE PUSH1 0x0 REVERT JUMPDEST POP POP POP POP PUSH1 0x40 MLOAD RETURNDATASIZE PUSH1 0x20 DUP2 LT ISZERO PUSH2 0x8FA JUMPI PUSH1 0x0 DUP1 REVERT JUMPDEST POP MLOAD PUSH1 0x1 PUSH1 0x1 PUSH1 0xA0 SHL SUB AND EQ PUSH2 0x941 JUMPI PUSH1 0x40 MLOAD PUSH3 0x461BCD PUSH1 0xE5 SHL DUP2 MSTORE PUSH1 0x4 ADD DUP1 DUP1 PUSH1 0x20 ADD DUP3 DUP2 SUB DUP3 MSTORE PUSH1 0x2B DUP2 MSTORE PUSH1 0x20 ADD DUP1 PUSH2 0xCC8 PUSH1 0x2B SWAP2 CODECOPY PUSH1 0x40 ADD SWAP2 POP POP PUSH1 0x40 MLOAD DUP1 SWAP2 SUB SWAP1 REVERT JUMPDEST PUSH1 0x4 SSTORE JUMP JUMPDEST PUSH1 0x0 SLOAD PUSH1 0x1 PUSH1 0x1 PUSH1 0xA0 SHL SUB AND DUP2 JUMP JUMPDEST PUSH1 0x5 SLOAD DUP2 JUMP JUMPDEST PUSH1 0x4 SLOAD SWAP1 JUMP JUMPDEST PUSH1 0x3 SLOAD SWAP1 JUMP JUMPDEST PUSH1 0x0 DUP3 DUP3 ADD DUP4 DUP2 LT ISZERO PUSH2 0x9C1 JUMPI PUSH1 0x40 DUP1 MLOAD PUSH3 0x461BCD PUSH1 0xE5 SHL DUP2 MSTORE PUSH1 0x20 PUSH1 0x4 DUP3 ADD MSTORE PUSH1 0x1B PUSH1 0x24 DUP3 ADD MSTORE PUSH32 0x536166654D6174683A206164646974696F6E206F766572666C6F770000000000 PUSH1 0x44 DUP3 ADD MSTORE SWAP1 MLOAD SWAP1 DUP2 SWAP1 SUB PUSH1 0x64 ADD SWAP1 REVERT JUMPDEST SWAP1 POP JUMPDEST SWAP3 SWAP2 POP POP JUMP JUMPDEST PUSH1 0x0 PUSH1 0x2 DUP3 DIV PUSH2 0xA06 DUP4 PUSH2 0x9FA PUSH2 0x9ED DUP8 PUSH12 0x33B2E3C9FD0803CE8000000 PUSH2 0xAF9 JUMP JUMPDEST DUP5 SWAP1 PUSH4 0xFFFFFFFF PUSH2 0x967 AND JUMP JUMPDEST SWAP1 PUSH4 0xFFFFFFFF PUSH2 0xB52 AND JUMP JUMPDEST SWAP5 SWAP4 POP POP POP POP JUMP JUMPDEST PUSH1 0x0 PUSH2 0x9C1 DUP4 DUP4 PUSH1 0x40 MLOAD DUP1 PUSH1 0x40 ADD PUSH1 0x40 MSTORE DUP1 PUSH1 0x1E DUP2 MSTORE PUSH1 0x20 ADD PUSH32 0x536166654D6174683A207375627472616374696F6E206F766572666C6F770000 DUP2 MSTORE POP PUSH2 0xB94 JUMP JUMPDEST PUSH1 0x0 PUSH2 0x9C1 PUSH12 0x33B2E3C9FD0803CE8000000 PUSH2 0x9FA PUSH2 0xA75 DUP7 DUP7 PUSH4 0xFFFFFFFF PUSH2 0xAF9 AND JUMP JUMPDEST PUSH12 0x19D971E4FE8401E74000000 SWAP1 PUSH2 0x967 JUMP JUMPDEST PUSH1 0x0 DUP1 PUSH2 0xA9B DUP7 DUP7 PUSH4 0xFFFFFFFF PUSH2 0x967 AND JUMP JUMPDEST SWAP1 POP DUP1 PUSH2 0xAAC JUMPI PUSH1 0x0 SWAP2 POP POP PUSH2 0xA06 JUMP JUMPDEST PUSH1 0x0 PUSH2 0xABB DUP6 PUSH2 0x621 DUP9 PUSH2 0xC2B JUMP JUMPDEST SWAP1 POP PUSH1 0x0 PUSH2 0xACC DUP6 PUSH2 0x621 DUP11 PUSH2 0xC2B JUMP JUMPDEST SWAP1 POP PUSH1 0x0 PUSH2 0xAEC PUSH2 0xADC DUP6 PUSH2 0xC2B JUMP JUMPDEST PUSH2 0x511 DUP6 DUP6 PUSH4 0xFFFFFFFF PUSH2 0x967 AND JUMP JUMPDEST SWAP10 SWAP9 POP POP POP POP POP POP POP POP POP JUMP JUMPDEST PUSH1 0x0 DUP3 PUSH2 0xB08 JUMPI POP PUSH1 0x0 PUSH2 0x9C4 JUMP JUMPDEST DUP3 DUP3 MUL DUP3 DUP5 DUP3 DUP2 PUSH2 0xB15 JUMPI INVALID JUMPDEST DIV EQ PUSH2 0x9C1 JUMPI PUSH1 0x40 MLOAD PUSH3 0x461BCD PUSH1 0xE5 SHL DUP2 MSTORE PUSH1 0x4 ADD DUP1 DUP1 PUSH1 0x20 ADD DUP3 DUP2 SUB DUP3 MSTORE PUSH1 0x21 DUP2 MSTORE PUSH1 0x20 ADD DUP1 PUSH2 0xCA7 PUSH1 0x21 SWAP2 CODECOPY PUSH1 0x40 ADD SWAP2 POP POP PUSH1 0x40 MLOAD DUP1 SWAP2 SUB SWAP1 REVERT JUMPDEST PUSH1 0x0 PUSH2 0x9C1 DUP4 DUP4 PUSH1 0x40 MLOAD DUP1 PUSH1 0x40 ADD PUSH1 0x40 MSTORE DUP1 PUSH1 0x1A DUP2 MSTORE PUSH1 0x20 ADD PUSH32 0x536166654D6174683A206469766973696F6E206279207A65726F000000000000 DUP2 MSTORE POP PUSH2 0xC41 JUMP JUMPDEST PUSH1 0x0 DUP2 DUP5 DUP5 GT ISZERO PUSH2 0xC23 JUMPI PUSH1 0x40 MLOAD PUSH3 0x461BCD PUSH1 0xE5 SHL DUP2 MSTORE PUSH1 0x4 ADD DUP1 DUP1 PUSH1 0x20 ADD DUP3 DUP2 SUB DUP3 MSTORE DUP4 DUP2 DUP2 MLOAD DUP2 MSTORE PUSH1 0x20 ADD SWAP2 POP DUP1 MLOAD SWAP1 PUSH1 0x20 ADD SWAP1 DUP1 DUP4 DUP4 PUSH1 0x0 JUMPDEST DUP4 DUP2 LT ISZERO PUSH2 0xBE8 JUMPI DUP2 DUP2 ADD MLOAD DUP4 DUP3 ADD MSTORE PUSH1 0x20 ADD PUSH2 0xBD0 JUMP JUMPDEST POP POP POP POP SWAP1 POP SWAP1 DUP2 ADD SWAP1 PUSH1 0x1F AND DUP1 ISZERO PUSH2 0xC15 JUMPI DUP1 DUP3 SUB DUP1 MLOAD PUSH1 0x1 DUP4 PUSH1 0x20 SUB PUSH2 0x100 EXP SUB NOT AND DUP2 MSTORE PUSH1 0x20 ADD SWAP2 POP JUMPDEST POP SWAP3 POP POP POP PUSH1 0x40 MLOAD DUP1 SWAP2 SUB SWAP1 REVERT JUMPDEST POP POP POP SWAP1 SUB SWAP1 JUMP JUMPDEST PUSH1 0x0 PUSH2 0x9C4 DUP3 PUSH4 0x3B9ACA00 PUSH4 0xFFFFFFFF PUSH2 0xAF9 AND JUMP JUMPDEST PUSH1 0x0 DUP2 DUP4 PUSH2 0xC90 JUMPI PUSH1 0x40 MLOAD PUSH3 0x461BCD PUSH1 0xE5 SHL DUP2 MSTORE PUSH1 0x20 PUSH1 0x4 DUP3 ADD DUP2 DUP2 MSTORE DUP4 MLOAD PUSH1 0x24 DUP5 ADD MSTORE DUP4 MLOAD SWAP1 SWAP3 DUP4 SWAP3 PUSH1 0x44 SWAP1 SWAP2 ADD SWAP2 SWAP1 DUP6 ADD SWAP1 DUP1 DUP4 DUP4 PUSH1 0x0 DUP4 ISZERO PUSH2 0xBE8 JUMPI DUP2 DUP2 ADD MLOAD DUP4 DUP3 ADD MSTORE PUSH1 0x20 ADD PUSH2 0xBD0 JUMP JUMPDEST POP PUSH1 0x0 DUP4 DUP6 DUP2 PUSH2 0xC9C JUMPI INVALID JUMPDEST DIV SWAP6 SWAP5 POP POP POP POP POP JUMP INVALID MSTORE8 PUSH2 0x6665 0x4D PUSH2 0x7468 GASPRICE KECCAK256 PUSH14 0x756C7469706C69636174696F6E20 PUSH16 0x766572666C6F775468652063616C6C65 PUSH19 0x206D75737420626520746865206C656E64696E PUSH8 0x20706F6F6C206D61 PUSH15 0x61676572A265627A7A723158203E2C PUSH23 0x7B61C97FC66C11167CD5C71B676800CFC4F7E4C5875406 0xE5 ADDRESS 0xDF 0x2C 0xE6 0xF PUSH5 0x736F6C6343 STOP SDIV GT STOP ORIGIN "
		},
		"gasEstimates": {
			"creation": {
				"codeDepositCost": "673400",
				"executionCost": "infinite",
				"totalCost": "infinite"
			},
			"external": {
				"EXCESS_UTILIZATION_RATE()": "288",
				"OPTIMAL_UTILIZATION_RATE()": "265",
				"addressesProvider()": "1081",
				"baseVariableBorrowRate()": "1109",
				"calculateInterestRates(address,uint256,uint256,uint256,uint256)": "infinite",
				"getBaseVariableBorrowRate()": "1043",
				"getStableRateSlope1()": "1086",
				"getStableRateSlope2()": "1066",
				"getVariableRateSlope1()": "1022",
				"getVariableRateSlope2()": "1108",
				"setBaseVariableBorrowRate(uint256)": "infinite",
				"setStableRateSlope1(uint256)": "infinite",
				"setStableRateSlope2(uint256)": "infinite",
				"setVariableRateSlope1(uint256)": "infinite",
				"setVariableRateSlope2(uint256)": "infinite",
				"stableRateSlope1()": "1044",
				"stableRateSlope2()": "1064",
				"variableRateSlope1()": "1109",
				"variableRateSlope2()": "1087"
			},
			"internal": {
				"getOverallBorrowRateInternal(uint256,uint256,uint256,uint256)": "infinite"
			}
		},
		"methodIdentifiers": {
			"EXCESS_UTILIZATION_RATE()": "17319873",
			"OPTIMAL_UTILIZATION_RATE()": "a15f30ac",
			"addressesProvider()": "c72c4d10",
			"baseVariableBorrowRate()": "b2589544",
			"calculateInterestRates(address,uint256,uint256,uint256,uint256)": "57e37af0",
			"getBaseVariableBorrowRate()": "34762ca5",
			"getStableRateSlope1()": "d5cd7391",
			"getStableRateSlope2()": "14e32da4",
			"getVariableRateSlope1()": "0b3429a2",
			"getVariableRateSlope2()": "f4202409",
			"setBaseVariableBorrowRate(uint256)": "280c95b3",
			"setStableRateSlope1(uint256)": "bfa6daef",
			"setStableRateSlope2(uint256)": "b0dfd97d",
			"setVariableRateSlope1(uint256)": "925b3ef8",
			"setVariableRateSlope2(uint256)": "9a207c23",
			"stableRateSlope1()": "0bdf953f",
			"stableRateSlope2()": "ccab01a3",
			"variableRateSlope1()": "7b832f58",
			"variableRateSlope2()": "65614f81"
		}
	},
	"abi": [
		{
			"inputs": [
				{
					"internalType": "contract GlobalAddressesProvider",
					"name": "_provider",
					"type": "address"
				},
				{
					"internalType": "uint256",
					"name": "_baseVariableBorrowRate",
					"type": "uint256"
				},
				{
					"internalType": "uint256",
					"name": "_variableRateSlope1",
					"type": "uint256"
				},
				{
					"internalType": "uint256",
					"name": "_variableRateSlope2",
					"type": "uint256"
				},
				{
					"internalType": "uint256",
					"name": "_stableRateSlope1",
					"type": "uint256"
				},
				{
					"internalType": "uint256",
					"name": "_stableRateSlope2",
					"type": "uint256"
				}
			],
			"payable": false,
			"stateMutability": "nonpayable",
			"type": "constructor"
		},
		{
			"constant": true,
			"inputs": [],
			"name": "EXCESS_UTILIZATION_RATE",
			"outputs": [
				{
					"internalType": "uint256",
					"name": "",
					"type": "uint256"
				}
			],
			"payable": false,
			"stateMutability": "view",
			"type": "function"
		},
		{
			"constant": true,
			"inputs": [],
			"name": "OPTIMAL_UTILIZATION_RATE",
			"outputs": [
				{
					"internalType": "uint256",
					"name": "",
					"type": "uint256"
				}
			],
			"payable": false,
			"stateMutability": "view",
			"type": "function"
		},
		{
			"constant": true,
			"inputs": [],
			"name": "addressesProvider",
			"outputs": [
				{
					"internalType": "contract GlobalAddressesProvider",
					"name": "",
					"type": "address"
				}
			],
			"payable": false,
			"stateMutability": "view",
			"type": "function"
		},
		{
			"constant": true,
			"inputs": [],
			"name": "baseVariableBorrowRate",
			"outputs": [
				{
					"internalType": "uint256",
					"name": "",
					"type": "uint256"
				}
			],
			"payable": false,
			"stateMutability": "view",
			"type": "function"
		},
		{
			"constant": true,
			"inputs": [
				{
					"internalType": "address",
					"name": "_instrument",
					"type": "address"
				},
				{
					"internalType": "uint256",
					"name": "_availableLiquidity",
					"type": "uint256"
				},
				{
					"internalType": "uint256",
					"name": "_totalBorrowsStable",
					"type": "uint256"
				},
				{
					"internalType": "uint256",
					"name": "_totalBorrowsVariable",
					"type": "uint256"
				},
				{
					"internalType": "uint256",
					"name": "_averageStableBorrowRate",
					"type": "uint256"
				}
			],
			"name": "calculateInterestRates",
			"outputs": [
				{
					"internalType": "uint256",
					"name": "currentLiquidityRate",
					"type": "uint256"
				},
				{
					"internalType": "uint256",
					"name": "currentStableBorrowRate",
					"type": "uint256"
				},
				{
					"internalType": "uint256",
					"name": "currentVariableBorrowRate",
					"type": "uint256"
				}
			],
			"payable": false,
			"stateMutability": "view",
			"type": "function"
		},
		{
			"constant": true,
			"inputs": [],
			"name": "getBaseVariableBorrowRate",
			"outputs": [
				{
					"internalType": "uint256",
					"name": "",
					"type": "uint256"
				}
			],
			"payable": false,
			"stateMutability": "view",
			"type": "function"
		},
		{
			"constant": true,
			"inputs": [],
			"name": "getStableRateSlope1",
			"outputs": [
				{
					"internalType": "uint256",
					"name": "",
					"type": "uint256"
				}
			],
			"payable": false,
			"stateMutability": "view",
			"type": "function"
		},
		{
			"constant": true,
			"inputs": [],
			"name": "getStableRateSlope2",
			"outputs": [
				{
					"internalType": "uint256",
					"name": "",
					"type": "uint256"
				}
			],
			"payable": false,
			"stateMutability": "view",
			"type": "function"
		},
		{
			"constant": true,
			"inputs": [],
			"name": "getVariableRateSlope1",
			"outputs": [
				{
					"internalType": "uint256",
					"name": "",
					"type": "uint256"
				}
			],
			"payable": false,
			"stateMutability": "view",
			"type": "function"
		},
		{
			"constant": true,
			"inputs": [],
			"name": "getVariableRateSlope2",
			"outputs": [
				{
					"internalType": "uint256",
					"name": "",
					"type": "uint256"
				}
			],
			"payable": false,
			"stateMutability": "view",
			"type": "function"
		},
		{
			"constant": false,
			"inputs": [
				{
					"internalType": "uint256",
					"name": "newBorrowRate",
					"type": "uint256"
				}
			],
			"name": "setBaseVariableBorrowRate",
			"outputs": [],
			"payable": false,
			"stateMutability": "nonpayable",
			"type": "function"
		},
		{
			"constant": false,
			"inputs": [
				{
					"internalType": "uint256",
					"name": "newstableRateSlope1",
					"type": "uint256"
				}
			],
			"name": "setStableRateSlope1",
			"outputs": [],
			"payable": false,
			"stateMutability": "nonpayable",
			"type": "function"
		},
		{
			"constant": false,
			"inputs": [
				{
					"internalType": "uint256",
					"name": "newstableRateSlope2",
					"type": "uint256"
				}
			],
			"name": "setStableRateSlope2",
			"outputs": [],
			"payable": false,
			"stateMutability": "nonpayable",
			"type": "function"
		},
		{
			"constant": false,
			"inputs": [
				{
					"internalType": "uint256",
					"name": "newVariableRateSlope1",
					"type": "uint256"
				}
			],
			"name": "setVariableRateSlope1",
			"outputs": [],
			"payable": false,
			"stateMutability": "nonpayable",
			"type": "function"
		},
		{
			"constant": false,
			"inputs": [
				{
					"internalType": "uint256",
					"name": "newVariableRateSlope2",
					"type": "uint256"
				}
			],
			"name": "setVariableRateSlope2",
			"outputs": [],
			"payable": false,
			"stateMutability": "nonpayable",
			"type": "function"
		},
		{
			"constant": true,
			"inputs": [],
			"name": "stableRateSlope1",
			"outputs": [
				{
					"internalType": "uint256",
					"name": "",
					"type": "uint256"
				}
			],
			"payable": false,
			"stateMutability": "view",
			"type": "function"
		},
		{
			"constant": true,
			"inputs": [],
			"name": "stableRateSlope2",
			"outputs": [
				{
					"internalType": "uint256",
					"name": "",
					"type": "uint256"
				}
			],
			"payable": false,
			"stateMutability": "view",
			"type": "function"
		},
		{
			"constant": true,
			"inputs": [],
			"name": "variableRateSlope1",
			"outputs": [
				{
					"internalType": "uint256",
					"name": "",
					"type": "uint256"
				}
			],
			"payable": false,
			"stateMutability": "view",
			"type": "function"
		},
		{
			"constant": true,
			"inputs": [],
			"name": "variableRateSlope2",
			"outputs": [
				{
					"internalType": "uint256",
					"name": "",
					"type": "uint256"
				}
			],
			"payable": false,
			"stateMutability": "view",
			"type": "function"
		}
	]
}