{
	"data": {
		"bytecode": {
			"linkReferences": {},
			"object": "6080604052600060018181559055614bee8061001c6000396000f3fe60806040526004361061014a5760003560e01c80638afaff02116100b6578063c72c4d101161006f578063c72c4d10146106e2578063c858f5f9146106f7578063cd11238214610740578063d0fc81d21461077b578063d2d0e06614610790578063f2f4eb26146107c65761014a565b80638afaff021461053457806390ccd4b71461055b5780639895e3d8146105dd578063b334ed8614610626578063bf92857c1461063b578063c4d66de8146106af5761014a565b80634dc54a38116101085780634dc54a381461032657806358707e06146103ce5780635ceae9c4146103e35780635cffe9de146104195780636f7dafcb146104ec5780637c55ccb31461051f5761014a565b8062a718a91461014f5780630c363982146101955780631635717c146101d057806322495627146102355780634066fdea146102c257806348ca1300146102f3575b600080fd5b610193600480360360a081101561016557600080fd5b506001600160a01b0381358116916020810135821691604082013516906060810135906080013515156107db565b005b3480156101a157600080fd5b50610193600480360360408110156101b857600080fd5b506001600160a01b0381351690602001351515610bf0565b3480156101dc57600080fd5b506101e5610ec9565b60408051602080825283518183015283519192839290830191858101910280838360005b83811015610221578181015183820152602001610209565b505050509050019250505060405180910390f35b34801561024157600080fd5b506102706004803603604081101561025857600080fd5b506001600160a01b0381358116916020013516610fdc565b604080519a8b5260208b0199909952898901979097526060890195909552608088019390935260a087019190915260c086015260e0850152610100840152151561012083015251908190036101400190f35b3480156102ce57600080fd5b506102d76110fd565b604080516001600160a01b039092168252519081900360200190f35b3480156102ff57600080fd5b506101936004803603602081101561031657600080fd5b50356001600160a01b031661110c565b34801561033257600080fd5b506103596004803603602081101561034957600080fd5b50356001600160a01b03166114ce565b604080519d8e5260208e019c909c528c8c019a909a5260608c019890985260808b019690965260a08a019490945260c089019290925260e08801526101008701526101208601526101408501526001600160a01b031661016084015264ffffffffff1661018083015251908190036101a00190f35b3480156103da57600080fd5b506102d761162d565b610193600480360360608110156103f957600080fd5b506001600160a01b0381358116916020810135916040909101351661163c565b34801561042557600080fd5b506101936004803603608081101561043c57600080fd5b6001600160a01b0382358116926020810135909116916040820135919081019060808101606082013564010000000081111561047757600080fd5b82018360208201111561048957600080fd5b803590602001918460018302840111640100000000831117156104ab57600080fd5b91908080601f016020809104026020016040519081016040528093929190818152602001838380828437600092019190915250929550611e36945050505050565b3480156104f857600080fd5b506101936004803603602081101561050f57600080fd5b50356001600160a01b03166123fa565b34801561052b57600080fd5b506101936124be565b34801561054057600080fd5b50610549612588565b60408051918252519081900360200190f35b34801561056757600080fd5b5061058e6004803603602081101561057e57600080fd5b50356001600160a01b031661258d565b604080519889526020890197909752878701959095526001600160a01b0390931660608701529015156080860152151560a0850152151560c0840152151560e083015251908190036101000190f35b3480156105e957600080fd5b506101936004803603608081101561060057600080fd5b506001600160a01b03813581169160208101359091169060408101359060600135612676565b34801561063257600080fd5b506102d761299e565b34801561064757600080fd5b5061066e6004803603602081101561065e57600080fd5b50356001600160a01b03166129ad565b604080519889526020890197909752878701959095526060870193909352608086019190915260a085015260c084015260e083015251908190036101000190f35b3480156106bb57600080fd5b50610193600480360360208110156106d257600080fd5b50356001600160a01b0316612a25565b3480156106ee57600080fd5b506102d7612adf565b34801561070357600080fd5b506101936004803603608081101561071a57600080fd5b5080356001600160a01b0316906020810135906040810135906060013561ffff16612aee565b34801561074c57600080fd5b506101936004803603604081101561076357600080fd5b506001600160a01b03813581169160200135166133f5565b34801561078757600080fd5b50610549613946565b610193600480360360608110156107a657600080fd5b5080356001600160a01b0316906020810135906040013561ffff1661394c565b3480156107d257600080fd5b506102d7613ed7565b60026000541415610821576040805162461bcd60e51b815260206004820152601f602482015260008051602061464a833981519152604482015290519081900360640190fd5b60026000558361083081613ee6565b8561083a81613ee6565b60355460408051632c1a75cd60e11b815290516000926001600160a01b031691635834eb9a916004808301926020929190829003018186803b15801561087f57600080fd5b505afa158015610893573d6000803e3d6000fd5b505050506040513d60208110156108a957600080fd5b5051604080516001600160a01b038b811660248301528a8116604483015289811660648301526084820189905287151560a4808401919091528351808403909101815260c490920183526020820180516001600160e01b031662a718a960e01b17815292518251949550600094606094928716939282918083835b602083106109435780518252601f199092019160209182019101610924565b6001836020036101000a038019825116818451168082178552505050505050905001915050600060405180830381855af49150503d80600081146109a3576040519150601f19603f3d011682016040523d82523d6000602084013e6109a8565b606091505b5091509150816109ff576040805162461bcd60e51b815260206004820152601760248201527f4c69717569646174696f6e2063616c6c206661696c6564000000000000000000604482015290519081900360640190fd5b60006060828060200190516040811015610a1857600080fd5b815160208301805160405192949293830192919084640100000000821115610a3f57600080fd5b908301906020820185811115610a5457600080fd5b8251640100000000811182820188101715610a6e57600080fd5b82525081516020918201929091019080838360005b83811015610a9b578181015183820152602001610a83565b50505050905090810190601f168015610ac85780820380516001836020036101000a031916815260200191505b506040525050509150915081600014610bdd578060405160200180807302634b8bab4b230ba34b7b7103330b4b632b21d160651b81525060140182805190602001908083835b60208310610b2d5780518252601f199092019160209182019101610b0e565b51815160209384036101000a60001901801990921691161790526040805192909401828103601f190183529384905262461bcd60e51b84526004840181815282516024860152825192965094508493604401925085019080838360005b83811015610ba2578181015183820152602001610b8a565b50505050905090810190601f168015610bcf5780820380516001836020036101000a031916815260200191505b509250505060405180910390fd5b5050600160005550505050505050505050565b60026000541415610c36576040805162461bcd60e51b815260206004820152601f602482015260008051602061464a833981519152604482015290519081900360640190fd5b600260005581610c4581613ee6565b82610c4f81613f9d565b60365460408051630c526de560e11b81526001600160a01b038781166004830152336024830152915160009392909216916318a4dbca91604480820192602092909190829003018186803b158015610ca657600080fd5b505afa158015610cba573d6000803e3d6000fd5b505050506040513d6020811015610cd057600080fd5b5051905080610d105760405162461bcd60e51b815260040180806020018281038252602a815260200180614975602a913960400191505060405180910390fd5b603754604080516376e9d61560e01b81526001600160a01b03888116600483015233602483015260448201859052915191909216916376e9d615916064808301926020929190829003018186803b158015610d6a57600080fd5b505afa158015610d7e573d6000803e3d6000fd5b505050506040513d6020811015610d9457600080fd5b5051610dd15760405162461bcd60e51b81526004018080602001828103825260308152602001806146df6030913960400191505060405180910390fd5b603654604080516321baeed760e11b81526001600160a01b038881166004830152336024830152871515604483015291519190921691634375ddae91606480830192600092919082900301818387803b158015610e2d57600080fd5b505af1158015610e41573d6000803e3d6000fd5b505050508315610e865760405133906001600160a01b038716907f0fa277da50ddc7ccdfa45b85b1f26c78fe2d562ffe054abc05a44d7e08cd0dda90600090a3610ebd565b60405133906001600160a01b038716907f5f0dbed5d3dac715152b6b58c69a80d2ed41075ed413e35b7379025a642ef0d690600090a35b50506001600055505050565b6036546040805163058d5c5f60e21b815290516060926001600160a01b031691631635717c916004808301926000929190829003018186803b158015610f0e57600080fd5b505afa158015610f22573d6000803e3d6000fd5b505050506040513d6000823e601f3d908101601f191682016040526020811015610f4b57600080fd5b8101908080516040519392919084640100000000821115610f6b57600080fd5b908301906020820185811115610f8057600080fd5b8251866020820283011164010000000082111715610f9d57600080fd5b82525081516020918201928201910280838360005b83811015610fca578181015183820152602001610fb2565b50505050905001604052505050905090565b60375460408051632249562760e01b81526001600160a01b038581166004830152848116602483015291516000938493849384938493849384938493849384931691632249562791604480830192610140929190829003018186803b15801561104457600080fd5b505afa158015611058573d6000803e3d6000fd5b505050506040513d61014081101561106f57600080fd5b810190808051906020019092919080519060200190929190805190602001909291908051906020019092919080519060200190929190805190602001909291908051906020019092919080519060200190929190805190602001909291908051906020019092919050505099509950995099509950995099509950995099509295989b9194979a5092959850565b6039546001600160a01b031681565b60026000541415611152576040805162461bcd60e51b815260206004820152601f602482015260008051602061464a833981519152604482015290519081900360640190fd5b60026000558061116181613ee6565b8161116b81613f9d565b60365460408051639fb8afcd60e01b81526001600160a01b038681166004830152336024830152915160009384938493911691639fb8afcd91604480820192606092909190829003018186803b1580156111c457600080fd5b505afa1580156111d8573d6000803e3d6000fd5b505050506040513d60608110156111ee57600080fd5b50805160208201516040909201519094509092509050816112405760405162461bcd60e51b815260040180806020018281038252603a8152602001806149fd603a913960400191505060405180910390fd5b60365460408051631ca19f1960e01b81526001600160a01b03898116600483015233602483015291516000939290921691631ca19f1991604480820192602092909190829003018186803b15801561129757600080fd5b505afa1580156112ab573d6000803e3d6000fd5b505050506040513d60208110156112c157600080fd5b5051905060028160028111156112d357fe5b141561139a576036546040805163710ba6c360e11b81526001600160a01b038a81166004830152336024830152604482018790529151919092169163e2174d86916064808301926020929190829003018186803b15801561133357600080fd5b505afa158015611347573d6000803e3d6000fd5b505050506040513d602081101561135d57600080fd5b505161139a5760405162461bcd60e51b8152600401808060200182810382526030815260200180614b226030913960400191505060405180910390fd5b60365460405163f614831160e01b81526001600160a01b03898116600483019081523360248401819052604484018990526064840188905260848401879052600094859493169263f6148311928d92918b918b918b918b9160a40182600281111561140157fe5b60ff16815260200196505050505050506040805180830381600087803b15801561142a57600080fd5b505af115801561143e573d6000803e3d6000fd5b505050506040513d604081101561145457600080fd5b5080516020909101519092509050336001600160a01b038a167fb3e2773606abfd36b5bd91394b3a54d1398336c65005baf7bf7a05efeffaf75b84600281111561149a57fe5b6040805191825260208201869052818101899052426060830152519081900360800190a35050600160005550505050505050565b6000806000806000806000806000806000806000603760009054906101000a90046001600160a01b03166001600160a01b0316634dc54a388f6040518263ffffffff1660e01b815260040180826001600160a01b03166001600160a01b031681526020019150506101a06040518083038186803b15801561154e57600080fd5b505afa158015611562573d6000803e3d6000fd5b505050506040513d6101a081101561157957600080fd5b81019080805190602001909291908051906020019092919080519060200190929190805190602001909291908051906020019092919080519060200190929190805190602001909291908051906020019092919080519060200190929190805190602001909291908051906020019092919080519060200190929190805190602001909291905050509c509c509c509c509c509c509c509c509c509c509c509c509c5091939597999b9d90929496989a9c50565b6038546001600160a01b031681565b60026000541415611682576040805162461bcd60e51b815260206004820152601f602482015260008051602061464a833981519152604482015290519081900360640190fd5b60026000558261169181613ee6565b8261169b81614052565b6116a361453b565b60365460408051639fb8afcd60e01b81526001600160a01b038981166004830152878116602483015291519190921691639fb8afcd916044808301926060929190829003018186803b1580156116f857600080fd5b505afa15801561170c573d6000803e3d6000fd5b505050506040513d606081101561172257600080fd5b50805160208083015160409384015185850152848201529083526036548251636f0d264b60e01b81526001600160a01b038a81166004830152888116602483015293519390911692636f0d264b92604480840193919291829003018186803b15801561178d57600080fd5b505afa1580156117a1573d6000803e3d6000fd5b505050506040513d60208110156117b757600080fd5b505160e08201526001600160a01b0386166117d06140a7565b6001600160a01b0316146060820152602081015161181f5760405162461bcd60e51b8152600401808060200182810382526029815260200180614a686029913960400191505060405180910390fd5b600019851415806118385750336001600160a01b038516145b6118735760405162461bcd60e51b8152600401808060200182810382526044815260200180614b526044913960600191505060405180910390fd5b60e0810151602082015161188c9163ffffffff6140bf16565b608082015260001985148015906118a65750806080015185105b156118b357608081018590525b806060015115806118c8575080608001513410155b6119035760405162461bcd60e51b81526004018080602001828103825260288152602001806147fe6028913960400191505060405180910390fd5b8060e00151816080015111611b2e576036546080820151604080840151815163da12d96f60e01b81526001600160a01b038b8116600483015289811660248301526000604483018190526064830195909552608482019290925260a48101849052915193169263da12d96f9260c48084019391929182900301818387803b15801561198d57600080fd5b505af11580156119a1573d6000803e3d6000fd5b505060365460608401516001600160a01b03909116925063c7d1423791506119ca5760006119d0565b82608001515b88878560800151603560009054906101000a90046001600160a01b03166001600160a01b031663145d02f06040518163ffffffff1660e01b815260040160206040518083038186803b158015611a2557600080fd5b505afa158015611a39573d6000803e3d6000fd5b505050506040513d6020811015611a4f57600080fd5b5051604080516001600160e01b031960e089901b1681526001600160a01b039586166004820152938516602485015260448401929092529290921660648201529051608480830192600092919082900301818588803b158015611ab157600080fd5b505af1158015611ac5573d6000803e3d6000fd5b505050608080840151604080860151815160008152602081019390935282820152426060830152513394506001600160a01b0389811694508b16927fb718f0b14f03d8c3adf35b15e3da52421b042ac879e5a689011a8b1e0036773d928290030190a450610ebd565b60e08101516080820151611b479163ffffffff61412216565b60a0820181905260365460e08301516040808501516020860151825163da12d96f60e01b81526001600160a01b038d811660048301528b81166024830152604482018890526064820195909552608481019290925290941460a48501525191169163da12d96f9160c480830192600092919082900301818387803b158015611bce57600080fd5b505af1158015611be2573d6000803e3d6000fd5b5050505060e081015115611d165760365460608201516001600160a01b039091169063c7d1423790611c15576000611c1b565b8260e001515b88878560e00151603560009054906101000a90046001600160a01b03166001600160a01b031663145d02f06040518163ffffffff1660e01b815260040160206040518083038186803b158015611c7057600080fd5b505afa158015611c84573d6000803e3d6000fd5b505050506040513d6020811015611c9a57600080fd5b5051604080516001600160e01b031960e089901b1681526001600160a01b039586166004820152938516602485015260448401929092529290921660648201529051608480830192600092919082900301818588803b158015611cfc57600080fd5b505af1158015611d10573d6000803e3d6000fd5b50505050505b60365460608201516001600160a01b03909116906328fcf4d390611d3b576000611d51565b60e0830151611d5190349063ffffffff61412216565b60a0840151604080516001600160e01b031960e086901b1681526001600160a01b038c166004820152336024820152604481019290925251606480830192600092919082900301818588803b158015611da957600080fd5b505af1158015611dbd573d6000803e3d6000fd5b50505060a083015160e08401516040808601518151938452602084019290925282810191909152426060830152513393506001600160a01b0388811693508a16917fb718f0b14f03d8c3adf35b15e3da52421b042ac879e5a689011a8b1e0036773d919081900360800190a45050506001600055505050565b60026000541415611e7c576040805162461bcd60e51b815260206004820152601f602482015260008051602061464a833981519152604482015290519081900360640190fd5b600260005582611e8b81613ee6565b82611e9581614052565b6000611e9f6140a7565b6001600160a01b0316866001600160a01b031614611f3557603654604080516370a0823160e01b81526001600160a01b0392831660048201529051918816916370a0823191602480820192602092909190829003018186803b158015611f0457600080fd5b505afa158015611f18573d6000803e3d6000fd5b505050506040513d6020811015611f2e57600080fd5b5051611f43565b6036546001600160a01b0316315b905084811015611f845760405162461bcd60e51b815260040180806020018281038252603181526020018061466a6031913960400191505060405180910390fd5b60385460408051630161bfad60e61b8152815160009384936001600160a01b039091169263586feb409260048083019392829003018186803b158015611fc957600080fd5b505afa158015611fdd573d6000803e3d6000fd5b505050506040513d6040811015611ff357600080fd5b508051602090910151909250905060006120256127106120198a8663ffffffff61416416565b9063ffffffff6141bd16565b9050600061203f612710612019848663ffffffff61416416565b90506000821180156120515750600081115b61208c5760405162461bcd60e51b81526004018080602001828103825260328152602001806148dc6032913960400191505060405180910390fd5b6036546040805163fa93b2a560e01b81526001600160a01b038d81166004830152808f166024830152604482018d905291518e938493169163fa93b2a591606480830192600092919082900301818387803b1580156120ea57600080fd5b505af11580156120fe573d6000803e3d6000fd5b50505050816001600160a01b031663ee8725588d8d878e6040518563ffffffff1660e01b815260040180856001600160a01b03166001600160a01b0316815260200184815260200183815260200180602001828103825283818151815260200191508051906020019080838360005b8381101561218557818101518382015260200161216d565b50505050905090810190601f1680156121b25780820380516001836020036101000a031916815260200191505b5095505050505050600060405180830381600087803b1580156121d457600080fd5b505af11580156121e8573d6000803e3d6000fd5b5050505060006121f66140a7565b6001600160a01b03168d6001600160a01b03161461228c57603654604080516370a0823160e01b81526001600160a01b0392831660048201529051918f16916370a0823191602480820192602092909190829003018186803b15801561225b57600080fd5b505afa15801561226f573d6000803e3d6000fd5b505050506040513d602081101561228557600080fd5b505161229a565b6036546001600160a01b0316315b90506122ac888663ffffffff6140bf16565b81146122e95760405162461bcd60e51b81526004018080602001828103825260328152602001806148556032913960400191505060405180910390fd5b6036546001600160a01b03166309ac29538e8a61230c898963ffffffff61412216565b886040518563ffffffff1660e01b815260040180856001600160a01b03166001600160a01b03168152602001848152602001838152602001828152602001945050505050600060405180830381600087803b15801561236a57600080fd5b505af115801561237e573d6000803e3d6000fd5b505050508c6001600160a01b03168e6001600160a01b03167f5b8f46461c1dd69fb968f1a003acee221ea3e19540e350233b612ddb43433b558e8888426040518085815260200184815260200183815260200182815260200194505050505060405180910390a350506001600055505050505050505050505050565b60026000541415612440576040805162461bcd60e51b815260206004820152601f602482015260008051602061464a833981519152604482015290519081900360640190fd5b60026000558061244f81613ee6565b60365460408051636f7dafcb60e01b81526001600160a01b03858116600483015291519190921691636f7dafcb91602480830192600092919082900301818387803b15801561249d57600080fd5b505af11580156124b1573d6000803e3d6000fd5b5050600160005550505050565b603560009054906101000a90046001600160a01b03166001600160a01b03166385c858b16040518163ffffffff1660e01b815260040160206040518083038186803b15801561250c57600080fd5b505afa158015612520573d6000803e3d6000fd5b505050506040513d602081101561253657600080fd5b50516001600160a01b0316331461257e5760405162461bcd60e51b815260040180806020018281038252603c815260200180614767603c913960400191505060405180910390fd5b6125866141ff565b565b600181565b600080600080600080600080603760009054906101000a90046001600160a01b03166001600160a01b03166390ccd4b78a6040518263ffffffff1660e01b815260040180826001600160a01b03166001600160a01b031681526020019150506101006040518083038186803b15801561260557600080fd5b505afa158015612619573d6000803e3d6000fd5b505050506040513d61010081101561263057600080fd5b508051602082015160408301516060840151608085015160a086015160c087015160e090970151959e50939c50919a509850965094509092509050919395975091939597565b600260005414156126bc576040805162461bcd60e51b815260206004820152601f602482015260008051602061464a833981519152604482015290519081900360640190fd5b600260005560365460408051630557d36f60e51b81526001600160a01b03808816600483015291518793929092169163aafa6de091602480820192602092909190829003018186803b15801561271157600080fd5b505afa158015612725573d6000803e3d6000fd5b505050506040513d602081101561273b57600080fd5b50516001600160a01b031633146127835760405162461bcd60e51b815260040180806020018281038252604e815260200180614ad4604e913960600191505060405180910390fd5b8461278d81613ee6565b8361279781614052565b60365460408051634f8aeae360e11b81526001600160a01b038a8116600483015291516000939290921691639f15d5c691602480820192602092909190829003018186803b1580156127e857600080fd5b505afa1580156127fc573d6000803e3d6000fd5b505050506040513d602081101561281257600080fd5b50519050858110156128555760405162461bcd60e51b81526004018080602001828103825260318152602001806147366031913960400191505060405180910390fd5b6036546040805163afcdbea360e01b81526001600160a01b038b811660048301528a81166024830152604482018a9052881560648301529151919092169163afcdbea391608480830192600092919082900301818387803b1580156128b957600080fd5b505af11580156128cd573d6000803e3d6000fd5b50506036546040805163fa93b2a560e01b81526001600160a01b038d811660048301528c81166024830152604482018c9052915191909216935063fa93b2a59250606480830192600092919082900301818387803b15801561292e57600080fd5b505af1158015612942573d6000803e3d6000fd5b50506040805189815242602082015281516001600160a01b03808d1695508d1693507f9c4ed599cd8555b9c1e8cd7643240d7d71eb76b792948c49fcb4d411f7b6b3c6929181900390910190a350506001600055505050505050565b6037546001600160a01b031681565b600080600080600080600080603760009054906101000a90046001600160a01b03166001600160a01b031663bf92857c8a6040518263ffffffff1660e01b815260040180826001600160a01b03166001600160a01b031681526020019150506101006040518083038186803b15801561260557600080fd5b6000612a2f614429565b60025490915060ff1680612a465750612a4661442e565b80612a52575060015481115b612a8d5760405162461bcd60e51b815260040180806020018281038252602e81526020018061490e602e913960400191505060405180910390fd5b60025460ff16158015612aae576002805460ff191660019081179091558290555b603580546001600160a01b0319166001600160a01b0385161790558015612ada576002805460ff191690555b505050565b6035546001600160a01b031681565b60026000541415612b34576040805162461bcd60e51b815260206004820152601f602482015260008051602061464a833981519152604482015290519081900360640190fd5b600260005583612b4381613ee6565b84612b4d81613f9d565b84612b5781614052565b612b5f614582565b603654604080516310183a3560e01b81526001600160a01b038b81166004830152915191909216916310183a35916024808301926020929190829003018186803b158015612bac57600080fd5b505afa158015612bc0573d6000803e3d6000fd5b505050506040513d6020811015612bd657600080fd5b5051612c135760405162461bcd60e51b81526004018080602001828103825260278152602001806147a36027913960400191505060405180910390fd5b8560021480612c225750856001145b612c5d5760405162461bcd60e51b815260040180806020018281038252602381526020018061469b6023913960400191505060405180910390fd5b856002811115612c6957fe5b816101c001906002811115612c7a57fe5b90816002811115612c8757fe5b90525060365460408051634f8aeae360e11b81526001600160a01b038b8116600483015291519190921691639f15d5c6916024808301926020929190829003018186803b158015612cd757600080fd5b505afa158015612ceb573d6000803e3d6000fd5b505050506040513d6020811015612d0157600080fd5b50516101608201819052871115612d495760405162461bcd60e51b8152600401808060200182810382526043815260200180614a916043913960600191505060405180910390fd5b60375460408051632c6d0e9b60e01b815233600482015290516001600160a01b0390921691632c6d0e9b9160248082019261010092909190829003018186803b158015612d9557600080fd5b505afa158015612da9573d6000803e3d6000fd5b505050506040513d610100811015612dc057600080fd5b506020808201516040808401516060850151608086015160a087015160e09788015115156101e08a015293880193909352938601919091526101008501929092529183015260c08201819052612e5d576040805162461bcd60e51b815260206004820152601b60248201527f54686520636f6c6c61746572616c2062616c616e636520697320300000000000604482015290519081900360640190fd5b806101e0015115612e9f5760405162461bcd60e51b815260040180806020018281038252603f81526020018061460b603f913960400191505060405180910390fd5b60395460408051630e563a7d60e41b8152336004820152602481018a905290516001600160a01b039092169163e563a7d091604480820192602092909190829003018186803b158015612ef157600080fd5b505afa158015612f05573d6000803e3d6000fd5b505050506040513d6020811015612f1b57600080fd5b505160608201819052612f5f5760405162461bcd60e51b81526004018080602001828103825260218152602001806146be6021913960400191505060405180910390fd5b603760009054906101000a90046001600160a01b03166001600160a01b03166312737c33898984606001518560e0015186610100015187602001516040518763ffffffff1660e01b815260040180876001600160a01b03166001600160a01b03168152602001868152602001858152602001848152602001838152602001828152602001965050505050505060206040518083038186803b15801561300357600080fd5b505afa158015613017573d6000803e3d6000fd5b505050506040513d602081101561302d57600080fd5b505160a0820181905260c082015110156130785760405162461bcd60e51b81526004018080602001828103825260348152602001806148876034913960400191505060405180910390fd5b6001816101c00151600281111561308b57fe5b141561322a576036546040805163710ba6c360e11b81526001600160a01b038b81166004830152336024830152604482018b90529151919092169163e2174d86916064808301926020929190829003018186803b1580156130eb57600080fd5b505afa1580156130ff573d6000803e3d6000fd5b505050506040513d602081101561311557600080fd5b50516131525760405162461bcd60e51b815260040180806020018281038252603981526020018061493c6039913960400191505060405180910390fd5b603854604080516335adc96b60e21b815290516000926001600160a01b03169163d6b725ac916004808301926020929190829003018186803b15801561319757600080fd5b505afa1580156131ab573d6000803e3d6000fd5b505050506040513d60208110156131c157600080fd5b50516101608301519091506000906131e690606490612019908563ffffffff61416416565b9050808911156132275760405162461bcd60e51b815260040180806020018281038252603c81526020018061499f603c913960400191505060405180910390fd5b50505b60365460608201516101c0830151604051630deb1bf960e21b81526001600160a01b038c8116600483019081523360248401819052604484018e90526064840186905291909516946337ac6fe4948e9492938e9391929060840182600281111561329057fe5b60ff168152602001955050505050506040805180830381600087803b1580156132b857600080fd5b505af11580156132cc573d6000803e3d6000fd5b505050506040513d60408110156132e257600080fd5b5080516020909101516101208301526101a08201526036546040805163fa93b2a560e01b81526001600160a01b038b81166004830152336024830152604482018b90529151919092169163fa93b2a591606480830192600092919082900301818387803b15801561335257600080fd5b505af1158015613366573d6000803e3d6000fd5b5050506101a0820151606080840151610120850151604080518d8152602081018d90528082019590955292840191909152608083015261ffff881660a08301524260c0830152513392506001600160a01b038b16917f1e77446728e5558aa1b7e81e0cdab9cc1b075ba893b740600c76a315c2caa553919081900360e00190a350506001600055505050505050565b6002600054141561343b576040805162461bcd60e51b815260206004820152601f602482015260008051602061464a833981519152604482015290519081900360640190fd5b60026000558161344a81613ee6565b60365460408051639fb8afcd60e01b81526001600160a01b0386811660048301528581166024830152915160009384931691639fb8afcd916044808301926060929190829003018186803b1580156134a157600080fd5b505afa1580156134b5573d6000803e3d6000fd5b505050506040513d60608110156134cb57600080fd5b5060208101516040909101519092509050816135185760405162461bcd60e51b8152600401808060200182810382526031815260200180614a376031913960400191505060405180910390fd5b600160365460408051631ca19f1960e01b81526001600160a01b038981166004830152888116602483015291519190921691631ca19f19916044808301926020929190829003018186803b15801561356f57600080fd5b505afa158015613583573d6000803e3d6000fd5b505050506040513d602081101561359957600080fd5b505160028111156135a657fe5b146135e25760405162461bcd60e51b81526004018080602001828103825260348152602001806147ca6034913960400191505060405180910390fd5b60365460408051631bffeac360e21b81526001600160a01b038881166004830152878116602483015291516000939290921691636fffab0c91604480820192602092909190829003018186803b15801561363b57600080fd5b505afa15801561364f573d6000803e3d6000fd5b505050506040513d602081101561366557600080fd5b505160365460408051631e01ac3360e11b81526001600160a01b038a8116600483015291519394506000939190921691633c035866916024808301926020929190829003018186803b1580156136ba57600080fd5b505afa1580156136ce573d6000803e3d6000fd5b505050506040513d60208110156136e457600080fd5b505160365460408051635751d83f60e11b81526001600160a01b038b811660048301529151939450600093919092169163aea3b07e916024808301926020929190829003018186803b15801561373957600080fd5b505afa15801561374d573d6000803e3d6000fd5b505050506040513d602081101561376357600080fd5b5051603854604080516346f4f8d160e01b81529051929350600092613805926137f8926001600160a01b03909116916346f4f8d191600480820192602092909190829003018186803b1580156137b857600080fd5b505afa1580156137cc573d6000803e3d6000fd5b505050506040513d60208110156137e257600080fd5b50516137ec614434565b9063ffffffff6140bf16565b839063ffffffff61444416565b90508284108061381457508084115b15613905576036546040805163af825b0760e01b81526001600160a01b038c811660048301528b81166024830152604482018990529151600093929092169163af825b079160648082019260209290919082900301818787803b15801561387a57600080fd5b505af115801561388e573d6000803e3d6000fd5b505050506040513d60208110156138a457600080fd5b50516040805182815260208101899052428183015290519192506001600160a01b03808c1692908d16917f5050ad184862424ee0852d1838d355ad65bed1e5e6da67ac9a2dac1922677f60919081900360600190a35050505050505061393c565b60405162461bcd60e51b815260040180806020018281038252602f815260200180614826602f913960400191505060405180910390fd5b5050600160005550565b60001981565b60026000541415613992576040805162461bcd60e51b815260206004820152601f602482015260008051602061464a833981519152604482015290519081900360640190fd5b6002600055826139a181613ee6565b836139ab81613f9d565b836139b581614052565b60365460408051630557d36f60e51b81526001600160a01b0389811660048301529151600093929092169163aafa6de091602480820192602092909190829003018186803b158015613a0657600080fd5b505afa158015613a1a573d6000803e3d6000fd5b505050506040513d6020811015613a3057600080fd5b5051604080516370a0823160e01b815233600482015290519192506000916001600160a01b038416916370a08231916024808301926020929190829003018186803b158015613a7e57600080fd5b505afa158015613a92573d6000803e3d6000fd5b505050506040513d6020811015613aa857600080fd5b505115905060006001600160a01b038916613ac16140a7565b60395460408051638d8a49ad60e01b8152336004820152602481018d905290516001600160a01b039384169490941494506000939190921691638d8a49ad916044808301926020929190829003018186803b158015613b1f57600080fd5b505afa158015613b33573d6000803e3d6000fd5b505050506040513d6020811015613b4957600080fd5b5051905080613b895760405162461bcd60e51b81526004018080602001828103825260228152602001806149db6022913960400191505060405180910390fd5b6036546001600160a01b031663c7d1423783613ba6576000613ba8565b825b8c3385603560009054906101000a90046001600160a01b03166001600160a01b031663145d02f06040518163ffffffff1660e01b815260040160206040518083038186803b158015613bf957600080fd5b505afa158015613c0d573d6000803e3d6000fd5b505050506040513d6020811015613c2357600080fd5b5051604080516001600160e01b031960e089901b1681526001600160a01b039586166004820152938516602485015260448401929092529290921660648201529051608480830192600092919082900301818588803b158015613c8557600080fd5b505af1158015613c99573d6000803e3d6000fd5b50506036546001600160a01b0316925063bcd6ffa491508c905033613cc48d8663ffffffff61412216565b604080516001600160e01b031960e087901b1681526001600160a01b039485166004820152929093166024830152604482015286151560648201529051608480830192600092919082900301818387803b158015613d2157600080fd5b505af1158015613d35573d6000803e3d6000fd5b5050506001600160a01b03851690506394362e8b33613d548c85614122565b6040518363ffffffff1660e01b815260040180836001600160a01b03166001600160a01b0316815260200182815260200192505050600060405180830381600087803b158015613da357600080fd5b505af1158015613db7573d6000803e3d6000fd5b50506036546001600160a01b031691506328fcf4d39050348c33613de18e8763ffffffff61412216565b6040518563ffffffff1660e01b815260040180846001600160a01b03166001600160a01b03168152602001836001600160a01b03166001600160a01b0316815260200182815260200193505050506000604051808303818588803b158015613e4857600080fd5b505af1158015613e5c573d6000803e3d6000fd5b5033935050506001600160a01b038c1690507f09402b532dc7b55c0756ac7964a2376b45d3d1327aa5f98a2ba9e08a02ce136e613e9f8c8563ffffffff61412216565b604080519182526020820186905261ffff8d1682820152426060830152519081900360800190a3505060016000555050505050505050565b6036546001600160a01b031681565b6036546040805163138374a760e11b81526001600160a01b03848116600483015291519190921691632706e94e916024808301926020929190829003018186803b158015613f3357600080fd5b505afa158015613f47573d6000803e3d6000fd5b505050506040513d6020811015613f5d57600080fd5b5051613f9a5760405162461bcd60e51b8152600401808060200182810382526024815260200180614b966024913960400191505060405180910390fd5b50565b603654604080516322ece8f160e21b81526001600160a01b03848116600483015291519190921691638bb3a3c4916024808301926020929190829003018186803b158015613fea57600080fd5b505afa158015613ffe573d6000803e3d6000fd5b505050506040513d602081101561401457600080fd5b505115613f9a5760405162461bcd60e51b815260040180806020018281038252602781526020018061470f6027913960400191505060405180910390fd5b60008111613f9a576040805162461bcd60e51b815260206004820152601d60248201527f416d6f756e74206d7573742062652067726561746572207468616e2030000000604482015290519081900360640190fd5b73eeeeeeeeeeeeeeeeeeeeeeeeeeeeeeeeeeeeeeee90565b600082820183811015614119576040805162461bcd60e51b815260206004820152601b60248201527f536166654d6174683a206164646974696f6e206f766572666c6f770000000000604482015290519081900360640190fd5b90505b92915050565b600061411983836040518060400160405280601e81526020017f536166654d6174683a207375627472616374696f6e206f766572666c6f77000081525061447c565b6000826141735750600061411c565b8282028284828161418057fe5b04146141195760405162461bcd60e51b81526004018080602001828103825260218152602001806148bb6021913960400191505060405180910390fd5b600061411983836040518060400160405280601a81526020017f536166654d6174683a206469766973696f6e206279207a65726f0000000000008152506144d6565b603560009054906101000a90046001600160a01b03166001600160a01b031663ed6ff7606040518163ffffffff1660e01b815260040160206040518083038186803b15801561424d57600080fd5b505afa158015614261573d6000803e3d6000fd5b505050506040513d602081101561427757600080fd5b5051603680546001600160a01b0319166001600160a01b0392831617905560355460408051632f58b80d60e01b815290519190921691632f58b80d916004808301926020929190829003018186803b1580156142d257600080fd5b505afa1580156142e6573d6000803e3d6000fd5b505050506040513d60208110156142fc57600080fd5b5051603780546001600160a01b0319166001600160a01b03928316179055603554604080516302030ec760e11b8152905191909216916304061d8e916004808301926020929190829003018186803b15801561435757600080fd5b505afa15801561436b573d6000803e3d6000fd5b505050506040513d602081101561438157600080fd5b5051603880546001600160a01b0319166001600160a01b0392831617905560355460408051633efbbf0f60e21b81529051919092169163fbeefc3c916004808301926020929190829003018186803b1580156143dc57600080fd5b505afa1580156143f0573d6000803e3d6000fd5b505050506040513d602081101561440657600080fd5b5051603980546001600160a01b0319166001600160a01b03909216919091179055565b600190565b303b1590565b6b033b2e3c9fd0803ce800000090565b60006141196b033b2e3c9fd0803ce8000000612019614469868663ffffffff61416416565b6b019d971e4fe8401e74000000906140bf565b600081848411156144ce5760405162461bcd60e51b8152602060048201818152835160248401528351909283926044909101919085019080838360008315610ba2578181015183820152602001610b8a565b505050900390565b600081836145255760405162461bcd60e51b8152602060048201818152835160248401528351909283926044909101919085019080838360008315610ba2578181015183820152602001610b8a565b50600083858161453157fe5b0495945050505050565b604051806101000160405280600081526020016000815260200160008152602001600015158152602001600081526020016000815260200160008152602001600081525090565b6040518061020001604052806000815260200160008152602001600081526020016000815260200160008152602001600081526020016000815260200160008152602001600081526020016000815260200160008152602001600081526020016000815260200160008152602001600060028111156145fd57fe5b815260006020909101529056fe54686520626f72726f7765722063616e20616c7265616479206265206c69717569646174656420736f2068652063616e6e6f7420626f72726f77206d6f72655265656e7472616e637947756172643a207265656e7472616e742063616c6c005468657265206973206e6f7420656e6f756768206c697175696469747920617661696c61626c6520746f20626f72726f77496e76616c696420696e7465726573742072617465206d6f64652073656c656374656454686520616d6f756e7420746f20626f72726f7720697320746f6f20736d616c6c55736572206465706f73697420697320616c7265616479206265696e67207573656420617320636f6c6c61746572616c416374696f6e20726571756972657320616e20756e667265657a656420696e737472756d656e745468657265206973206e6f7420656e6f756768206c697175696469747920617661696c61626c6520746f2072656465656d4f6e6c79204c656e64696e6720506f6f6c20436f6e666967757261746f722063616e20726566726573682074686520636f6e66696775726174696f6e496e737472756d656e74206973206e6f7420656e61626c656420666f7220626f72726f77696e67546865207573657220626f72726f77206973207661726961626c6520616e642063616e6e6f7420626520726562616c616e636564496e76616c6964206d73672e76616c75652073656e7420666f72207468652072657061796d656e74496e746572657374207261746520726562616c616e636520636f6e646974696f6e732077657265206e6f74206d65745468652061637475616c2062616c616e6365206f66207468652070726f746f636f6c20697320696e636f6e73697374656e745468657265206973206e6f7420656e6f75676820636f6c6c61746572616c20746f20636f7665722061206e657720626f72726f77536166654d6174683a206d756c7469706c69636174696f6e206f766572666c6f775468652072657175657374656420616d6f756e7420697320746f6f20736d616c6c20666f72206120666c6173684c6f616e2e436f6e747261637420696e7374616e63652068617320616c7265616479206265656e20696e697469616c697a6564557365722063616e6e6f7420626f72726f77207468652073656c656374656420616d6f756e742077697468206120737461626c6520726174655573657220646f6573206e6f74206861766520616e79206c6971756964697479206465706f73697465645573657220697320747279696e6720746f20626f72726f7720746f6f206d756368206c6971756964697479206174206120737461626c65207261746554686520616d6f756e7420746f206465706f73697420697320746f6f20736d616c6c5573657220646f6573206e6f742068617665206120626f72726f7720696e2070726f6772657373206f6e207468697320696e737472756d656e745573657220646f6573206e6f74206861766520616e7920626f72726f7720666f72207468697320696e737472756d656e74546865207573657220646f6573206e6f74206861766520616e7920626f72726f772070656e64696e675468657265206973206e6f7420656e6f756768206c697175696469747920617661696c61626c6520696e2074686520496e737472756d656e74277320726573657276655468652063616c6c6572206f6620746869732066756e6374696f6e2063616e206f6e6c79206265207468652049546f6b656e20636f6e7472616374206f66207468697320696e737472756d656e74557365722063616e6e6f7420626f72726f77207468652073656c656374656420616d6f756e7420617420737461626c65546f207265706179206f6e20626568616c66206f6620616e207573657220616e206578706c6963697420616d6f756e7420746f207265706179206973206e65656465642e416374696f6e20726571756972657320616e2061637469766520696e737472756d656e74a265627a7a723158204864ca40036399149a82230d0d608a8361c31d176e99cb37f7e3c53c18b4ace364736f6c63430005110032",
			"opcodes": "PUSH1 0x80 PUSH1 0x40 MSTORE PUSH1 0x0 PUSH1 0x1 DUP2 DUP2 SSTORE SWAP1 SSTORE PUSH2 0x4BEE DUP1 PUSH2 0x1C PUSH1 0x0 CODECOPY PUSH1 0x0 RETURN INVALID PUSH1 0x80 PUSH1 0x40 MSTORE PUSH1 0x4 CALLDATASIZE LT PUSH2 0x14A JUMPI PUSH1 0x0 CALLDATALOAD PUSH1 0xE0 SHR DUP1 PUSH4 0x8AFAFF02 GT PUSH2 0xB6 JUMPI DUP1 PUSH4 0xC72C4D10 GT PUSH2 0x6F JUMPI DUP1 PUSH4 0xC72C4D10 EQ PUSH2 0x6E2 JUMPI DUP1 PUSH4 0xC858F5F9 EQ PUSH2 0x6F7 JUMPI DUP1 PUSH4 0xCD112382 EQ PUSH2 0x740 JUMPI DUP1 PUSH4 0xD0FC81D2 EQ PUSH2 0x77B JUMPI DUP1 PUSH4 0xD2D0E066 EQ PUSH2 0x790 JUMPI DUP1 PUSH4 0xF2F4EB26 EQ PUSH2 0x7C6 JUMPI PUSH2 0x14A JUMP JUMPDEST DUP1 PUSH4 0x8AFAFF02 EQ PUSH2 0x534 JUMPI DUP1 PUSH4 0x90CCD4B7 EQ PUSH2 0x55B JUMPI DUP1 PUSH4 0x9895E3D8 EQ PUSH2 0x5DD JUMPI DUP1 PUSH4 0xB334ED86 EQ PUSH2 0x626 JUMPI DUP1 PUSH4 0xBF92857C EQ PUSH2 0x63B JUMPI DUP1 PUSH4 0xC4D66DE8 EQ PUSH2 0x6AF JUMPI PUSH2 0x14A JUMP JUMPDEST DUP1 PUSH4 0x4DC54A38 GT PUSH2 0x108 JUMPI DUP1 PUSH4 0x4DC54A38 EQ PUSH2 0x326 JUMPI DUP1 PUSH4 0x58707E06 EQ PUSH2 0x3CE JUMPI DUP1 PUSH4 0x5CEAE9C4 EQ PUSH2 0x3E3 JUMPI DUP1 PUSH4 0x5CFFE9DE EQ PUSH2 0x419 JUMPI DUP1 PUSH4 0x6F7DAFCB EQ PUSH2 0x4EC JUMPI DUP1 PUSH4 0x7C55CCB3 EQ PUSH2 0x51F JUMPI PUSH2 0x14A JUMP JUMPDEST DUP1 PUSH3 0xA718A9 EQ PUSH2 0x14F JUMPI DUP1 PUSH4 0xC363982 EQ PUSH2 0x195 JUMPI DUP1 PUSH4 0x1635717C EQ PUSH2 0x1D0 JUMPI DUP1 PUSH4 0x22495627 EQ PUSH2 0x235 JUMPI DUP1 PUSH4 0x4066FDEA EQ PUSH2 0x2C2 JUMPI DUP1 PUSH4 0x48CA1300 EQ PUSH2 0x2F3 JUMPI JUMPDEST PUSH1 0x0 DUP1 REVERT JUMPDEST PUSH2 0x193 PUSH1 0x4 DUP1 CALLDATASIZE SUB PUSH1 0xA0 DUP2 LT ISZERO PUSH2 0x165 JUMPI PUSH1 0x0 DUP1 REVERT JUMPDEST POP PUSH1 0x1 PUSH1 0x1 PUSH1 0xA0 SHL SUB DUP2 CALLDATALOAD DUP2 AND SWAP2 PUSH1 0x20 DUP2 ADD CALLDATALOAD DUP3 AND SWAP2 PUSH1 0x40 DUP3 ADD CALLDATALOAD AND SWAP1 PUSH1 0x60 DUP2 ADD CALLDATALOAD SWAP1 PUSH1 0x80 ADD CALLDATALOAD ISZERO ISZERO PUSH2 0x7DB JUMP JUMPDEST STOP JUMPDEST CALLVALUE DUP1 ISZERO PUSH2 0x1A1 JUMPI PUSH1 0x0 DUP1 REVERT JUMPDEST POP PUSH2 0x193 PUSH1 0x4 DUP1 CALLDATASIZE SUB PUSH1 0x40 DUP2 LT ISZERO PUSH2 0x1B8 JUMPI PUSH1 0x0 DUP1 REVERT JUMPDEST POP PUSH1 0x1 PUSH1 0x1 PUSH1 0xA0 SHL SUB DUP2 CALLDATALOAD AND SWAP1 PUSH1 0x20 ADD CALLDATALOAD ISZERO ISZERO PUSH2 0xBF0 JUMP JUMPDEST CALLVALUE DUP1 ISZERO PUSH2 0x1DC JUMPI PUSH1 0x0 DUP1 REVERT JUMPDEST POP PUSH2 0x1E5 PUSH2 0xEC9 JUMP JUMPDEST PUSH1 0x40 DUP1 MLOAD PUSH1 0x20 DUP1 DUP3 MSTORE DUP4 MLOAD DUP2 DUP4 ADD MSTORE DUP4 MLOAD SWAP2 SWAP3 DUP4 SWAP3 SWAP1 DUP4 ADD SWAP2 DUP6 DUP2 ADD SWAP2 MUL DUP1 DUP4 DUP4 PUSH1 0x0 JUMPDEST DUP4 DUP2 LT ISZERO PUSH2 0x221 JUMPI DUP2 DUP2 ADD MLOAD DUP4 DUP3 ADD MSTORE PUSH1 0x20 ADD PUSH2 0x209 JUMP JUMPDEST POP POP POP POP SWAP1 POP ADD SWAP3 POP POP POP PUSH1 0x40 MLOAD DUP1 SWAP2 SUB SWAP1 RETURN JUMPDEST CALLVALUE DUP1 ISZERO PUSH2 0x241 JUMPI PUSH1 0x0 DUP1 REVERT JUMPDEST POP PUSH2 0x270 PUSH1 0x4 DUP1 CALLDATASIZE SUB PUSH1 0x40 DUP2 LT ISZERO PUSH2 0x258 JUMPI PUSH1 0x0 DUP1 REVERT JUMPDEST POP PUSH1 0x1 PUSH1 0x1 PUSH1 0xA0 SHL SUB DUP2 CALLDATALOAD DUP2 AND SWAP2 PUSH1 0x20 ADD CALLDATALOAD AND PUSH2 0xFDC JUMP JUMPDEST PUSH1 0x40 DUP1 MLOAD SWAP11 DUP12 MSTORE PUSH1 0x20 DUP12 ADD SWAP10 SWAP1 SWAP10 MSTORE DUP10 DUP10 ADD SWAP8 SWAP1 SWAP8 MSTORE PUSH1 0x60 DUP10 ADD SWAP6 SWAP1 SWAP6 MSTORE PUSH1 0x80 DUP9 ADD SWAP4 SWAP1 SWAP4 MSTORE PUSH1 0xA0 DUP8 ADD SWAP2 SWAP1 SWAP2 MSTORE PUSH1 0xC0 DUP7 ADD MSTORE PUSH1 0xE0 DUP6 ADD MSTORE PUSH2 0x100 DUP5 ADD MSTORE ISZERO ISZERO PUSH2 0x120 DUP4 ADD MSTORE MLOAD SWAP1 DUP2 SWAP1 SUB PUSH2 0x140 ADD SWAP1 RETURN JUMPDEST CALLVALUE DUP1 ISZERO PUSH2 0x2CE JUMPI PUSH1 0x0 DUP1 REVERT JUMPDEST POP PUSH2 0x2D7 PUSH2 0x10FD JUMP JUMPDEST PUSH1 0x40 DUP1 MLOAD PUSH1 0x1 PUSH1 0x1 PUSH1 0xA0 SHL SUB SWAP1 SWAP3 AND DUP3 MSTORE MLOAD SWAP1 DUP2 SWAP1 SUB PUSH1 0x20 ADD SWAP1 RETURN JUMPDEST CALLVALUE DUP1 ISZERO PUSH2 0x2FF JUMPI PUSH1 0x0 DUP1 REVERT JUMPDEST POP PUSH2 0x193 PUSH1 0x4 DUP1 CALLDATASIZE SUB PUSH1 0x20 DUP2 LT ISZERO PUSH2 0x316 JUMPI PUSH1 0x0 DUP1 REVERT JUMPDEST POP CALLDATALOAD PUSH1 0x1 PUSH1 0x1 PUSH1 0xA0 SHL SUB AND PUSH2 0x110C JUMP JUMPDEST CALLVALUE DUP1 ISZERO PUSH2 0x332 JUMPI PUSH1 0x0 DUP1 REVERT JUMPDEST POP PUSH2 0x359 PUSH1 0x4 DUP1 CALLDATASIZE SUB PUSH1 0x20 DUP2 LT ISZERO PUSH2 0x349 JUMPI PUSH1 0x0 DUP1 REVERT JUMPDEST POP CALLDATALOAD PUSH1 0x1 PUSH1 0x1 PUSH1 0xA0 SHL SUB AND PUSH2 0x14CE JUMP JUMPDEST PUSH1 0x40 DUP1 MLOAD SWAP14 DUP15 MSTORE PUSH1 0x20 DUP15 ADD SWAP13 SWAP1 SWAP13 MSTORE DUP13 DUP13 ADD SWAP11 SWAP1 SWAP11 MSTORE PUSH1 0x60 DUP13 ADD SWAP9 SWAP1 SWAP9 MSTORE PUSH1 0x80 DUP12 ADD SWAP7 SWAP1 SWAP7 MSTORE PUSH1 0xA0 DUP11 ADD SWAP5 SWAP1 SWAP5 MSTORE PUSH1 0xC0 DUP10 ADD SWAP3 SWAP1 SWAP3 MSTORE PUSH1 0xE0 DUP9 ADD MSTORE PUSH2 0x100 DUP8 ADD MSTORE PUSH2 0x120 DUP7 ADD MSTORE PUSH2 0x140 DUP6 ADD MSTORE PUSH1 0x1 PUSH1 0x1 PUSH1 0xA0 SHL SUB AND PUSH2 0x160 DUP5 ADD MSTORE PUSH5 0xFFFFFFFFFF AND PUSH2 0x180 DUP4 ADD MSTORE MLOAD SWAP1 DUP2 SWAP1 SUB PUSH2 0x1A0 ADD SWAP1 RETURN JUMPDEST CALLVALUE DUP1 ISZERO PUSH2 0x3DA JUMPI PUSH1 0x0 DUP1 REVERT JUMPDEST POP PUSH2 0x2D7 PUSH2 0x162D JUMP JUMPDEST PUSH2 0x193 PUSH1 0x4 DUP1 CALLDATASIZE SUB PUSH1 0x60 DUP2 LT ISZERO PUSH2 0x3F9 JUMPI PUSH1 0x0 DUP1 REVERT JUMPDEST POP PUSH1 0x1 PUSH1 0x1 PUSH1 0xA0 SHL SUB DUP2 CALLDATALOAD DUP2 AND SWAP2 PUSH1 0x20 DUP2 ADD CALLDATALOAD SWAP2 PUSH1 0x40 SWAP1 SWAP2 ADD CALLDATALOAD AND PUSH2 0x163C JUMP JUMPDEST CALLVALUE DUP1 ISZERO PUSH2 0x425 JUMPI PUSH1 0x0 DUP1 REVERT JUMPDEST POP PUSH2 0x193 PUSH1 0x4 DUP1 CALLDATASIZE SUB PUSH1 0x80 DUP2 LT ISZERO PUSH2 0x43C JUMPI PUSH1 0x0 DUP1 REVERT JUMPDEST PUSH1 0x1 PUSH1 0x1 PUSH1 0xA0 SHL SUB DUP3 CALLDATALOAD DUP2 AND SWAP3 PUSH1 0x20 DUP2 ADD CALLDATALOAD SWAP1 SWAP2 AND SWAP2 PUSH1 0x40 DUP3 ADD CALLDATALOAD SWAP2 SWAP1 DUP2 ADD SWAP1 PUSH1 0x80 DUP2 ADD PUSH1 0x60 DUP3 ADD CALLDATALOAD PUSH5 0x100000000 DUP2 GT ISZERO PUSH2 0x477 JUMPI PUSH1 0x0 DUP1 REVERT JUMPDEST DUP3 ADD DUP4 PUSH1 0x20 DUP3 ADD GT ISZERO PUSH2 0x489 JUMPI PUSH1 0x0 DUP1 REVERT JUMPDEST DUP1 CALLDATALOAD SWAP1 PUSH1 0x20 ADD SWAP2 DUP5 PUSH1 0x1 DUP4 MUL DUP5 ADD GT PUSH5 0x100000000 DUP4 GT OR ISZERO PUSH2 0x4AB JUMPI PUSH1 0x0 DUP1 REVERT JUMPDEST SWAP2 SWAP1 DUP1 DUP1 PUSH1 0x1F ADD PUSH1 0x20 DUP1 SWAP2 DIV MUL PUSH1 0x20 ADD PUSH1 0x40 MLOAD SWAP1 DUP2 ADD PUSH1 0x40 MSTORE DUP1 SWAP4 SWAP3 SWAP2 SWAP1 DUP2 DUP2 MSTORE PUSH1 0x20 ADD DUP4 DUP4 DUP1 DUP3 DUP5 CALLDATACOPY PUSH1 0x0 SWAP3 ADD SWAP2 SWAP1 SWAP2 MSTORE POP SWAP3 SWAP6 POP PUSH2 0x1E36 SWAP5 POP POP POP POP POP JUMP JUMPDEST CALLVALUE DUP1 ISZERO PUSH2 0x4F8 JUMPI PUSH1 0x0 DUP1 REVERT JUMPDEST POP PUSH2 0x193 PUSH1 0x4 DUP1 CALLDATASIZE SUB PUSH1 0x20 DUP2 LT ISZERO PUSH2 0x50F JUMPI PUSH1 0x0 DUP1 REVERT JUMPDEST POP CALLDATALOAD PUSH1 0x1 PUSH1 0x1 PUSH1 0xA0 SHL SUB AND PUSH2 0x23FA JUMP JUMPDEST CALLVALUE DUP1 ISZERO PUSH2 0x52B JUMPI PUSH1 0x0 DUP1 REVERT JUMPDEST POP PUSH2 0x193 PUSH2 0x24BE JUMP JUMPDEST CALLVALUE DUP1 ISZERO PUSH2 0x540 JUMPI PUSH1 0x0 DUP1 REVERT JUMPDEST POP PUSH2 0x549 PUSH2 0x2588 JUMP JUMPDEST PUSH1 0x40 DUP1 MLOAD SWAP2 DUP3 MSTORE MLOAD SWAP1 DUP2 SWAP1 SUB PUSH1 0x20 ADD SWAP1 RETURN JUMPDEST CALLVALUE DUP1 ISZERO PUSH2 0x567 JUMPI PUSH1 0x0 DUP1 REVERT JUMPDEST POP PUSH2 0x58E PUSH1 0x4 DUP1 CALLDATASIZE SUB PUSH1 0x20 DUP2 LT ISZERO PUSH2 0x57E JUMPI PUSH1 0x0 DUP1 REVERT JUMPDEST POP CALLDATALOAD PUSH1 0x1 PUSH1 0x1 PUSH1 0xA0 SHL SUB AND PUSH2 0x258D JUMP JUMPDEST PUSH1 0x40 DUP1 MLOAD SWAP9 DUP10 MSTORE PUSH1 0x20 DUP10 ADD SWAP8 SWAP1 SWAP8 MSTORE DUP8 DUP8 ADD SWAP6 SWAP1 SWAP6 MSTORE PUSH1 0x1 PUSH1 0x1 PUSH1 0xA0 SHL SUB SWAP1 SWAP4 AND PUSH1 0x60 DUP8 ADD MSTORE SWAP1 ISZERO ISZERO PUSH1 0x80 DUP7 ADD MSTORE ISZERO ISZERO PUSH1 0xA0 DUP6 ADD MSTORE ISZERO ISZERO PUSH1 0xC0 DUP5 ADD MSTORE ISZERO ISZERO PUSH1 0xE0 DUP4 ADD MSTORE MLOAD SWAP1 DUP2 SWAP1 SUB PUSH2 0x100 ADD SWAP1 RETURN JUMPDEST CALLVALUE DUP1 ISZERO PUSH2 0x5E9 JUMPI PUSH1 0x0 DUP1 REVERT JUMPDEST POP PUSH2 0x193 PUSH1 0x4 DUP1 CALLDATASIZE SUB PUSH1 0x80 DUP2 LT ISZERO PUSH2 0x600 JUMPI PUSH1 0x0 DUP1 REVERT JUMPDEST POP PUSH1 0x1 PUSH1 0x1 PUSH1 0xA0 SHL SUB DUP2 CALLDATALOAD DUP2 AND SWAP2 PUSH1 0x20 DUP2 ADD CALLDATALOAD SWAP1 SWAP2 AND SWAP1 PUSH1 0x40 DUP2 ADD CALLDATALOAD SWAP1 PUSH1 0x60 ADD CALLDATALOAD PUSH2 0x2676 JUMP JUMPDEST CALLVALUE DUP1 ISZERO PUSH2 0x632 JUMPI PUSH1 0x0 DUP1 REVERT JUMPDEST POP PUSH2 0x2D7 PUSH2 0x299E JUMP JUMPDEST CALLVALUE DUP1 ISZERO PUSH2 0x647 JUMPI PUSH1 0x0 DUP1 REVERT JUMPDEST POP PUSH2 0x66E PUSH1 0x4 DUP1 CALLDATASIZE SUB PUSH1 0x20 DUP2 LT ISZERO PUSH2 0x65E JUMPI PUSH1 0x0 DUP1 REVERT JUMPDEST POP CALLDATALOAD PUSH1 0x1 PUSH1 0x1 PUSH1 0xA0 SHL SUB AND PUSH2 0x29AD JUMP JUMPDEST PUSH1 0x40 DUP1 MLOAD SWAP9 DUP10 MSTORE PUSH1 0x20 DUP10 ADD SWAP8 SWAP1 SWAP8 MSTORE DUP8 DUP8 ADD SWAP6 SWAP1 SWAP6 MSTORE PUSH1 0x60 DUP8 ADD SWAP4 SWAP1 SWAP4 MSTORE PUSH1 0x80 DUP7 ADD SWAP2 SWAP1 SWAP2 MSTORE PUSH1 0xA0 DUP6 ADD MSTORE PUSH1 0xC0 DUP5 ADD MSTORE PUSH1 0xE0 DUP4 ADD MSTORE MLOAD SWAP1 DUP2 SWAP1 SUB PUSH2 0x100 ADD SWAP1 RETURN JUMPDEST CALLVALUE DUP1 ISZERO PUSH2 0x6BB JUMPI PUSH1 0x0 DUP1 REVERT JUMPDEST POP PUSH2 0x193 PUSH1 0x4 DUP1 CALLDATASIZE SUB PUSH1 0x20 DUP2 LT ISZERO PUSH2 0x6D2 JUMPI PUSH1 0x0 DUP1 REVERT JUMPDEST POP CALLDATALOAD PUSH1 0x1 PUSH1 0x1 PUSH1 0xA0 SHL SUB AND PUSH2 0x2A25 JUMP JUMPDEST CALLVALUE DUP1 ISZERO PUSH2 0x6EE JUMPI PUSH1 0x0 DUP1 REVERT JUMPDEST POP PUSH2 0x2D7 PUSH2 0x2ADF JUMP JUMPDEST CALLVALUE DUP1 ISZERO PUSH2 0x703 JUMPI PUSH1 0x0 DUP1 REVERT JUMPDEST POP PUSH2 0x193 PUSH1 0x4 DUP1 CALLDATASIZE SUB PUSH1 0x80 DUP2 LT ISZERO PUSH2 0x71A JUMPI PUSH1 0x0 DUP1 REVERT JUMPDEST POP DUP1 CALLDATALOAD PUSH1 0x1 PUSH1 0x1 PUSH1 0xA0 SHL SUB AND SWAP1 PUSH1 0x20 DUP2 ADD CALLDATALOAD SWAP1 PUSH1 0x40 DUP2 ADD CALLDATALOAD SWAP1 PUSH1 0x60 ADD CALLDATALOAD PUSH2 0xFFFF AND PUSH2 0x2AEE JUMP JUMPDEST CALLVALUE DUP1 ISZERO PUSH2 0x74C JUMPI PUSH1 0x0 DUP1 REVERT JUMPDEST POP PUSH2 0x193 PUSH1 0x4 DUP1 CALLDATASIZE SUB PUSH1 0x40 DUP2 LT ISZERO PUSH2 0x763 JUMPI PUSH1 0x0 DUP1 REVERT JUMPDEST POP PUSH1 0x1 PUSH1 0x1 PUSH1 0xA0 SHL SUB DUP2 CALLDATALOAD DUP2 AND SWAP2 PUSH1 0x20 ADD CALLDATALOAD AND PUSH2 0x33F5 JUMP JUMPDEST CALLVALUE DUP1 ISZERO PUSH2 0x787 JUMPI PUSH1 0x0 DUP1 REVERT JUMPDEST POP PUSH2 0x549 PUSH2 0x3946 JUMP JUMPDEST PUSH2 0x193 PUSH1 0x4 DUP1 CALLDATASIZE SUB PUSH1 0x60 DUP2 LT ISZERO PUSH2 0x7A6 JUMPI PUSH1 0x0 DUP1 REVERT JUMPDEST POP DUP1 CALLDATALOAD PUSH1 0x1 PUSH1 0x1 PUSH1 0xA0 SHL SUB AND SWAP1 PUSH1 0x20 DUP2 ADD CALLDATALOAD SWAP1 PUSH1 0x40 ADD CALLDATALOAD PUSH2 0xFFFF AND PUSH2 0x394C JUMP JUMPDEST CALLVALUE DUP1 ISZERO PUSH2 0x7D2 JUMPI PUSH1 0x0 DUP1 REVERT JUMPDEST POP PUSH2 0x2D7 PUSH2 0x3ED7 JUMP JUMPDEST PUSH1 0x2 PUSH1 0x0 SLOAD EQ ISZERO PUSH2 0x821 JUMPI PUSH1 0x40 DUP1 MLOAD PUSH3 0x461BCD PUSH1 0xE5 SHL DUP2 MSTORE PUSH1 0x20 PUSH1 0x4 DUP3 ADD MSTORE PUSH1 0x1F PUSH1 0x24 DUP3 ADD MSTORE PUSH1 0x0 DUP1 MLOAD PUSH1 0x20 PUSH2 0x464A DUP4 CODECOPY DUP2 MLOAD SWAP2 MSTORE PUSH1 0x44 DUP3 ADD MSTORE SWAP1 MLOAD SWAP1 DUP2 SWAP1 SUB PUSH1 0x64 ADD SWAP1 REVERT JUMPDEST PUSH1 0x2 PUSH1 0x0 SSTORE DUP4 PUSH2 0x830 DUP2 PUSH2 0x3EE6 JUMP JUMPDEST DUP6 PUSH2 0x83A DUP2 PUSH2 0x3EE6 JUMP JUMPDEST PUSH1 0x35 SLOAD PUSH1 0x40 DUP1 MLOAD PUSH4 0x2C1A75CD PUSH1 0xE1 SHL DUP2 MSTORE SWAP1 MLOAD PUSH1 0x0 SWAP3 PUSH1 0x1 PUSH1 0x1 PUSH1 0xA0 SHL SUB AND SWAP2 PUSH4 0x5834EB9A SWAP2 PUSH1 0x4 DUP1 DUP4 ADD SWAP3 PUSH1 0x20 SWAP3 SWAP2 SWAP1 DUP3 SWAP1 SUB ADD DUP2 DUP7 DUP1 EXTCODESIZE ISZERO DUP1 ISZERO PUSH2 0x87F JUMPI PUSH1 0x0 DUP1 REVERT JUMPDEST POP GAS STATICCALL ISZERO DUP1 ISZERO PUSH2 0x893 JUMPI RETURNDATASIZE PUSH1 0x0 DUP1 RETURNDATACOPY RETURNDATASIZE PUSH1 0x0 REVERT JUMPDEST POP POP POP POP PUSH1 0x40 MLOAD RETURNDATASIZE PUSH1 0x20 DUP2 LT ISZERO PUSH2 0x8A9 JUMPI PUSH1 0x0 DUP1 REVERT JUMPDEST POP MLOAD PUSH1 0x40 DUP1 MLOAD PUSH1 0x1 PUSH1 0x1 PUSH1 0xA0 SHL SUB DUP12 DUP2 AND PUSH1 0x24 DUP4 ADD MSTORE DUP11 DUP2 AND PUSH1 0x44 DUP4 ADD MSTORE DUP10 DUP2 AND PUSH1 0x64 DUP4 ADD MSTORE PUSH1 0x84 DUP3 ADD DUP10 SWAP1 MSTORE DUP8 ISZERO ISZERO PUSH1 0xA4 DUP1 DUP5 ADD SWAP2 SWAP1 SWAP2 MSTORE DUP4 MLOAD DUP1 DUP5 SUB SWAP1 SWAP2 ADD DUP2 MSTORE PUSH1 0xC4 SWAP1 SWAP3 ADD DUP4 MSTORE PUSH1 0x20 DUP3 ADD DUP1 MLOAD PUSH1 0x1 PUSH1 0x1 PUSH1 0xE0 SHL SUB AND PUSH3 0xA718A9 PUSH1 0xE0 SHL OR DUP2 MSTORE SWAP3 MLOAD DUP3 MLOAD SWAP5 SWAP6 POP PUSH1 0x0 SWAP5 PUSH1 0x60 SWAP5 SWAP3 DUP8 AND SWAP4 SWAP3 DUP3 SWAP2 DUP1 DUP4 DUP4 JUMPDEST PUSH1 0x20 DUP4 LT PUSH2 0x943 JUMPI DUP1 MLOAD DUP3 MSTORE PUSH1 0x1F NOT SWAP1 SWAP3 ADD SWAP2 PUSH1 0x20 SWAP2 DUP3 ADD SWAP2 ADD PUSH2 0x924 JUMP JUMPDEST PUSH1 0x1 DUP4 PUSH1 0x20 SUB PUSH2 0x100 EXP SUB DUP1 NOT DUP3 MLOAD AND DUP2 DUP5 MLOAD AND DUP1 DUP3 OR DUP6 MSTORE POP POP POP POP POP POP SWAP1 POP ADD SWAP2 POP POP PUSH1 0x0 PUSH1 0x40 MLOAD DUP1 DUP4 SUB DUP2 DUP6 GAS DELEGATECALL SWAP2 POP POP RETURNDATASIZE DUP1 PUSH1 0x0 DUP2 EQ PUSH2 0x9A3 JUMPI PUSH1 0x40 MLOAD SWAP2 POP PUSH1 0x1F NOT PUSH1 0x3F RETURNDATASIZE ADD AND DUP3 ADD PUSH1 0x40 MSTORE RETURNDATASIZE DUP3 MSTORE RETURNDATASIZE PUSH1 0x0 PUSH1 0x20 DUP5 ADD RETURNDATACOPY PUSH2 0x9A8 JUMP JUMPDEST PUSH1 0x60 SWAP2 POP JUMPDEST POP SWAP2 POP SWAP2 POP DUP2 PUSH2 0x9FF JUMPI PUSH1 0x40 DUP1 MLOAD PUSH3 0x461BCD PUSH1 0xE5 SHL DUP2 MSTORE PUSH1 0x20 PUSH1 0x4 DUP3 ADD MSTORE PUSH1 0x17 PUSH1 0x24 DUP3 ADD MSTORE PUSH32 0x4C69717569646174696F6E2063616C6C206661696C6564000000000000000000 PUSH1 0x44 DUP3 ADD MSTORE SWAP1 MLOAD SWAP1 DUP2 SWAP1 SUB PUSH1 0x64 ADD SWAP1 REVERT JUMPDEST PUSH1 0x0 PUSH1 0x60 DUP3 DUP1 PUSH1 0x20 ADD SWAP1 MLOAD PUSH1 0x40 DUP2 LT ISZERO PUSH2 0xA18 JUMPI PUSH1 0x0 DUP1 REVERT JUMPDEST DUP2 MLOAD PUSH1 0x20 DUP4 ADD DUP1 MLOAD PUSH1 0x40 MLOAD SWAP3 SWAP5 SWAP3 SWAP4 DUP4 ADD SWAP3 SWAP2 SWAP1 DUP5 PUSH5 0x100000000 DUP3 GT ISZERO PUSH2 0xA3F JUMPI PUSH1 0x0 DUP1 REVERT JUMPDEST SWAP1 DUP4 ADD SWAP1 PUSH1 0x20 DUP3 ADD DUP6 DUP2 GT ISZERO PUSH2 0xA54 JUMPI PUSH1 0x0 DUP1 REVERT JUMPDEST DUP3 MLOAD PUSH5 0x100000000 DUP2 GT DUP3 DUP3 ADD DUP9 LT OR ISZERO PUSH2 0xA6E JUMPI PUSH1 0x0 DUP1 REVERT JUMPDEST DUP3 MSTORE POP DUP2 MLOAD PUSH1 0x20 SWAP2 DUP3 ADD SWAP3 SWAP1 SWAP2 ADD SWAP1 DUP1 DUP4 DUP4 PUSH1 0x0 JUMPDEST DUP4 DUP2 LT ISZERO PUSH2 0xA9B JUMPI DUP2 DUP2 ADD MLOAD DUP4 DUP3 ADD MSTORE PUSH1 0x20 ADD PUSH2 0xA83 JUMP JUMPDEST POP POP POP POP SWAP1 POP SWAP1 DUP2 ADD SWAP1 PUSH1 0x1F AND DUP1 ISZERO PUSH2 0xAC8 JUMPI DUP1 DUP3 SUB DUP1 MLOAD PUSH1 0x1 DUP4 PUSH1 0x20 SUB PUSH2 0x100 EXP SUB NOT AND DUP2 MSTORE PUSH1 0x20 ADD SWAP2 POP JUMPDEST POP PUSH1 0x40 MSTORE POP POP POP SWAP2 POP SWAP2 POP DUP2 PUSH1 0x0 EQ PUSH2 0xBDD JUMPI DUP1 PUSH1 0x40 MLOAD PUSH1 0x20 ADD DUP1 DUP1 PUSH20 0x2634B8BAB4B230BA34B7B7103330B4B632B21D1 PUSH1 0x65 SHL DUP2 MSTORE POP PUSH1 0x14 ADD DUP3 DUP1 MLOAD SWAP1 PUSH1 0x20 ADD SWAP1 DUP1 DUP4 DUP4 JUMPDEST PUSH1 0x20 DUP4 LT PUSH2 0xB2D JUMPI DUP1 MLOAD DUP3 MSTORE PUSH1 0x1F NOT SWAP1 SWAP3 ADD SWAP2 PUSH1 0x20 SWAP2 DUP3 ADD SWAP2 ADD PUSH2 0xB0E JUMP JUMPDEST MLOAD DUP2 MLOAD PUSH1 0x20 SWAP4 DUP5 SUB PUSH2 0x100 EXP PUSH1 0x0 NOT ADD DUP1 NOT SWAP1 SWAP3 AND SWAP2 AND OR SWAP1 MSTORE PUSH1 0x40 DUP1 MLOAD SWAP3 SWAP1 SWAP5 ADD DUP3 DUP2 SUB PUSH1 0x1F NOT ADD DUP4 MSTORE SWAP4 DUP5 SWAP1 MSTORE PUSH3 0x461BCD PUSH1 0xE5 SHL DUP5 MSTORE PUSH1 0x4 DUP5 ADD DUP2 DUP2 MSTORE DUP3 MLOAD PUSH1 0x24 DUP7 ADD MSTORE DUP3 MLOAD SWAP3 SWAP7 POP SWAP5 POP DUP5 SWAP4 PUSH1 0x44 ADD SWAP3 POP DUP6 ADD SWAP1 DUP1 DUP4 DUP4 PUSH1 0x0 JUMPDEST DUP4 DUP2 LT ISZERO PUSH2 0xBA2 JUMPI DUP2 DUP2 ADD MLOAD DUP4 DUP3 ADD MSTORE PUSH1 0x20 ADD PUSH2 0xB8A JUMP JUMPDEST POP POP POP POP SWAP1 POP SWAP1 DUP2 ADD SWAP1 PUSH1 0x1F AND DUP1 ISZERO PUSH2 0xBCF JUMPI DUP1 DUP3 SUB DUP1 MLOAD PUSH1 0x1 DUP4 PUSH1 0x20 SUB PUSH2 0x100 EXP SUB NOT AND DUP2 MSTORE PUSH1 0x20 ADD SWAP2 POP JUMPDEST POP SWAP3 POP POP POP PUSH1 0x40 MLOAD DUP1 SWAP2 SUB SWAP1 REVERT JUMPDEST POP POP PUSH1 0x1 PUSH1 0x0 SSTORE POP POP POP POP POP POP POP POP POP POP JUMP JUMPDEST PUSH1 0x2 PUSH1 0x0 SLOAD EQ ISZERO PUSH2 0xC36 JUMPI PUSH1 0x40 DUP1 MLOAD PUSH3 0x461BCD PUSH1 0xE5 SHL DUP2 MSTORE PUSH1 0x20 PUSH1 0x4 DUP3 ADD MSTORE PUSH1 0x1F PUSH1 0x24 DUP3 ADD MSTORE PUSH1 0x0 DUP1 MLOAD PUSH1 0x20 PUSH2 0x464A DUP4 CODECOPY DUP2 MLOAD SWAP2 MSTORE PUSH1 0x44 DUP3 ADD MSTORE SWAP1 MLOAD SWAP1 DUP2 SWAP1 SUB PUSH1 0x64 ADD SWAP1 REVERT JUMPDEST PUSH1 0x2 PUSH1 0x0 SSTORE DUP2 PUSH2 0xC45 DUP2 PUSH2 0x3EE6 JUMP JUMPDEST DUP3 PUSH2 0xC4F DUP2 PUSH2 0x3F9D JUMP JUMPDEST PUSH1 0x36 SLOAD PUSH1 0x40 DUP1 MLOAD PUSH4 0xC526DE5 PUSH1 0xE1 SHL DUP2 MSTORE PUSH1 0x1 PUSH1 0x1 PUSH1 0xA0 SHL SUB DUP8 DUP2 AND PUSH1 0x4 DUP4 ADD MSTORE CALLER PUSH1 0x24 DUP4 ADD MSTORE SWAP2 MLOAD PUSH1 0x0 SWAP4 SWAP3 SWAP1 SWAP3 AND SWAP2 PUSH4 0x18A4DBCA SWAP2 PUSH1 0x44 DUP1 DUP3 ADD SWAP3 PUSH1 0x20 SWAP3 SWAP1 SWAP2 SWAP1 DUP3 SWAP1 SUB ADD DUP2 DUP7 DUP1 EXTCODESIZE ISZERO DUP1 ISZERO PUSH2 0xCA6 JUMPI PUSH1 0x0 DUP1 REVERT JUMPDEST POP GAS STATICCALL ISZERO DUP1 ISZERO PUSH2 0xCBA JUMPI RETURNDATASIZE PUSH1 0x0 DUP1 RETURNDATACOPY RETURNDATASIZE PUSH1 0x0 REVERT JUMPDEST POP POP POP POP PUSH1 0x40 MLOAD RETURNDATASIZE PUSH1 0x20 DUP2 LT ISZERO PUSH2 0xCD0 JUMPI PUSH1 0x0 DUP1 REVERT JUMPDEST POP MLOAD SWAP1 POP DUP1 PUSH2 0xD10 JUMPI PUSH1 0x40 MLOAD PUSH3 0x461BCD PUSH1 0xE5 SHL DUP2 MSTORE PUSH1 0x4 ADD DUP1 DUP1 PUSH1 0x20 ADD DUP3 DUP2 SUB DUP3 MSTORE PUSH1 0x2A DUP2 MSTORE PUSH1 0x20 ADD DUP1 PUSH2 0x4975 PUSH1 0x2A SWAP2 CODECOPY PUSH1 0x40 ADD SWAP2 POP POP PUSH1 0x40 MLOAD DUP1 SWAP2 SUB SWAP1 REVERT JUMPDEST PUSH1 0x37 SLOAD PUSH1 0x40 DUP1 MLOAD PUSH4 0x76E9D615 PUSH1 0xE0 SHL DUP2 MSTORE PUSH1 0x1 PUSH1 0x1 PUSH1 0xA0 SHL SUB DUP9 DUP2 AND PUSH1 0x4 DUP4 ADD MSTORE CALLER PUSH1 0x24 DUP4 ADD MSTORE PUSH1 0x44 DUP3 ADD DUP6 SWAP1 MSTORE SWAP2 MLOAD SWAP2 SWAP1 SWAP3 AND SWAP2 PUSH4 0x76E9D615 SWAP2 PUSH1 0x64 DUP1 DUP4 ADD SWAP3 PUSH1 0x20 SWAP3 SWAP2 SWAP1 DUP3 SWAP1 SUB ADD DUP2 DUP7 DUP1 EXTCODESIZE ISZERO DUP1 ISZERO PUSH2 0xD6A JUMPI PUSH1 0x0 DUP1 REVERT JUMPDEST POP GAS STATICCALL ISZERO DUP1 ISZERO PUSH2 0xD7E JUMPI RETURNDATASIZE PUSH1 0x0 DUP1 RETURNDATACOPY RETURNDATASIZE PUSH1 0x0 REVERT JUMPDEST POP POP POP POP PUSH1 0x40 MLOAD RETURNDATASIZE PUSH1 0x20 DUP2 LT ISZERO PUSH2 0xD94 JUMPI PUSH1 0x0 DUP1 REVERT JUMPDEST POP MLOAD PUSH2 0xDD1 JUMPI PUSH1 0x40 MLOAD PUSH3 0x461BCD PUSH1 0xE5 SHL DUP2 MSTORE PUSH1 0x4 ADD DUP1 DUP1 PUSH1 0x20 ADD DUP3 DUP2 SUB DUP3 MSTORE PUSH1 0x30 DUP2 MSTORE PUSH1 0x20 ADD DUP1 PUSH2 0x46DF PUSH1 0x30 SWAP2 CODECOPY PUSH1 0x40 ADD SWAP2 POP POP PUSH1 0x40 MLOAD DUP1 SWAP2 SUB SWAP1 REVERT JUMPDEST PUSH1 0x36 SLOAD PUSH1 0x40 DUP1 MLOAD PUSH4 0x21BAEED7 PUSH1 0xE1 SHL DUP2 MSTORE PUSH1 0x1 PUSH1 0x1 PUSH1 0xA0 SHL SUB DUP9 DUP2 AND PUSH1 0x4 DUP4 ADD MSTORE CALLER PUSH1 0x24 DUP4 ADD MSTORE DUP8 ISZERO ISZERO PUSH1 0x44 DUP4 ADD MSTORE SWAP2 MLOAD SWAP2 SWAP1 SWAP3 AND SWAP2 PUSH4 0x4375DDAE SWAP2 PUSH1 0x64 DUP1 DUP4 ADD SWAP3 PUSH1 0x0 SWAP3 SWAP2 SWAP1 DUP3 SWAP1 SUB ADD DUP2 DUP4 DUP8 DUP1 EXTCODESIZE ISZERO DUP1 ISZERO PUSH2 0xE2D JUMPI PUSH1 0x0 DUP1 REVERT JUMPDEST POP GAS CALL ISZERO DUP1 ISZERO PUSH2 0xE41 JUMPI RETURNDATASIZE PUSH1 0x0 DUP1 RETURNDATACOPY RETURNDATASIZE PUSH1 0x0 REVERT JUMPDEST POP POP POP POP DUP4 ISZERO PUSH2 0xE86 JUMPI PUSH1 0x40 MLOAD CALLER SWAP1 PUSH1 0x1 PUSH1 0x1 PUSH1 0xA0 SHL SUB DUP8 AND SWAP1 PUSH32 0xFA277DA50DDC7CCDFA45B85B1F26C78FE2D562FFE054ABC05A44D7E08CD0DDA SWAP1 PUSH1 0x0 SWAP1 LOG3 PUSH2 0xEBD JUMP JUMPDEST PUSH1 0x40 MLOAD CALLER SWAP1 PUSH1 0x1 PUSH1 0x1 PUSH1 0xA0 SHL SUB DUP8 AND SWAP1 PUSH32 0x5F0DBED5D3DAC715152B6B58C69A80D2ED41075ED413E35B7379025A642EF0D6 SWAP1 PUSH1 0x0 SWAP1 LOG3 JUMPDEST POP POP PUSH1 0x1 PUSH1 0x0 SSTORE POP POP POP JUMP JUMPDEST PUSH1 0x36 SLOAD PUSH1 0x40 DUP1 MLOAD PUSH4 0x58D5C5F PUSH1 0xE2 SHL DUP2 MSTORE SWAP1 MLOAD PUSH1 0x60 SWAP3 PUSH1 0x1 PUSH1 0x1 PUSH1 0xA0 SHL SUB AND SWAP2 PUSH4 0x1635717C SWAP2 PUSH1 0x4 DUP1 DUP4 ADD SWAP3 PUSH1 0x0 SWAP3 SWAP2 SWAP1 DUP3 SWAP1 SUB ADD DUP2 DUP7 DUP1 EXTCODESIZE ISZERO DUP1 ISZERO PUSH2 0xF0E JUMPI PUSH1 0x0 DUP1 REVERT JUMPDEST POP GAS STATICCALL ISZERO DUP1 ISZERO PUSH2 0xF22 JUMPI RETURNDATASIZE PUSH1 0x0 DUP1 RETURNDATACOPY RETURNDATASIZE PUSH1 0x0 REVERT JUMPDEST POP POP POP POP PUSH1 0x40 MLOAD RETURNDATASIZE PUSH1 0x0 DUP3 RETURNDATACOPY PUSH1 0x1F RETURNDATASIZE SWAP1 DUP2 ADD PUSH1 0x1F NOT AND DUP3 ADD PUSH1 0x40 MSTORE PUSH1 0x20 DUP2 LT ISZERO PUSH2 0xF4B JUMPI PUSH1 0x0 DUP1 REVERT JUMPDEST DUP2 ADD SWAP1 DUP1 DUP1 MLOAD PUSH1 0x40 MLOAD SWAP4 SWAP3 SWAP2 SWAP1 DUP5 PUSH5 0x100000000 DUP3 GT ISZERO PUSH2 0xF6B JUMPI PUSH1 0x0 DUP1 REVERT JUMPDEST SWAP1 DUP4 ADD SWAP1 PUSH1 0x20 DUP3 ADD DUP6 DUP2 GT ISZERO PUSH2 0xF80 JUMPI PUSH1 0x0 DUP1 REVERT JUMPDEST DUP3 MLOAD DUP7 PUSH1 0x20 DUP3 MUL DUP4 ADD GT PUSH5 0x100000000 DUP3 GT OR ISZERO PUSH2 0xF9D JUMPI PUSH1 0x0 DUP1 REVERT JUMPDEST DUP3 MSTORE POP DUP2 MLOAD PUSH1 0x20 SWAP2 DUP3 ADD SWAP3 DUP3 ADD SWAP2 MUL DUP1 DUP4 DUP4 PUSH1 0x0 JUMPDEST DUP4 DUP2 LT ISZERO PUSH2 0xFCA JUMPI DUP2 DUP2 ADD MLOAD DUP4 DUP3 ADD MSTORE PUSH1 0x20 ADD PUSH2 0xFB2 JUMP JUMPDEST POP POP POP POP SWAP1 POP ADD PUSH1 0x40 MSTORE POP POP POP SWAP1 POP SWAP1 JUMP JUMPDEST PUSH1 0x37 SLOAD PUSH1 0x40 DUP1 MLOAD PUSH4 0x22495627 PUSH1 0xE0 SHL DUP2 MSTORE PUSH1 0x1 PUSH1 0x1 PUSH1 0xA0 SHL SUB DUP6 DUP2 AND PUSH1 0x4 DUP4 ADD MSTORE DUP5 DUP2 AND PUSH1 0x24 DUP4 ADD MSTORE SWAP2 MLOAD PUSH1 0x0 SWAP4 DUP5 SWAP4 DUP5 SWAP4 DUP5 SWAP4 DUP5 SWAP4 DUP5 SWAP4 DUP5 SWAP4 DUP5 SWAP4 DUP5 SWAP4 DUP5 SWAP4 AND SWAP2 PUSH4 0x22495627 SWAP2 PUSH1 0x44 DUP1 DUP4 ADD SWAP3 PUSH2 0x140 SWAP3 SWAP2 SWAP1 DUP3 SWAP1 SUB ADD DUP2 DUP7 DUP1 EXTCODESIZE ISZERO DUP1 ISZERO PUSH2 0x1044 JUMPI PUSH1 0x0 DUP1 REVERT JUMPDEST POP GAS STATICCALL ISZERO DUP1 ISZERO PUSH2 0x1058 JUMPI RETURNDATASIZE PUSH1 0x0 DUP1 RETURNDATACOPY RETURNDATASIZE PUSH1 0x0 REVERT JUMPDEST POP POP POP POP PUSH1 0x40 MLOAD RETURNDATASIZE PUSH2 0x140 DUP2 LT ISZERO PUSH2 0x106F JUMPI PUSH1 0x0 DUP1 REVERT JUMPDEST DUP2 ADD SWAP1 DUP1 DUP1 MLOAD SWAP1 PUSH1 0x20 ADD SWAP1 SWAP3 SWAP2 SWAP1 DUP1 MLOAD SWAP1 PUSH1 0x20 ADD SWAP1 SWAP3 SWAP2 SWAP1 DUP1 MLOAD SWAP1 PUSH1 0x20 ADD SWAP1 SWAP3 SWAP2 SWAP1 DUP1 MLOAD SWAP1 PUSH1 0x20 ADD SWAP1 SWAP3 SWAP2 SWAP1 DUP1 MLOAD SWAP1 PUSH1 0x20 ADD SWAP1 SWAP3 SWAP2 SWAP1 DUP1 MLOAD SWAP1 PUSH1 0x20 ADD SWAP1 SWAP3 SWAP2 SWAP1 DUP1 MLOAD SWAP1 PUSH1 0x20 ADD SWAP1 SWAP3 SWAP2 SWAP1 DUP1 MLOAD SWAP1 PUSH1 0x20 ADD SWAP1 SWAP3 SWAP2 SWAP1 DUP1 MLOAD SWAP1 PUSH1 0x20 ADD SWAP1 SWAP3 SWAP2 SWAP1 DUP1 MLOAD SWAP1 PUSH1 0x20 ADD SWAP1 SWAP3 SWAP2 SWAP1 POP POP POP SWAP10 POP SWAP10 POP SWAP10 POP SWAP10 POP SWAP10 POP SWAP10 POP SWAP10 POP SWAP10 POP SWAP10 POP SWAP10 POP SWAP3 SWAP6 SWAP9 SWAP12 SWAP2 SWAP5 SWAP8 SWAP11 POP SWAP3 SWAP6 SWAP9 POP JUMP JUMPDEST PUSH1 0x39 SLOAD PUSH1 0x1 PUSH1 0x1 PUSH1 0xA0 SHL SUB AND DUP2 JUMP JUMPDEST PUSH1 0x2 PUSH1 0x0 SLOAD EQ ISZERO PUSH2 0x1152 JUMPI PUSH1 0x40 DUP1 MLOAD PUSH3 0x461BCD PUSH1 0xE5 SHL DUP2 MSTORE PUSH1 0x20 PUSH1 0x4 DUP3 ADD MSTORE PUSH1 0x1F PUSH1 0x24 DUP3 ADD MSTORE PUSH1 0x0 DUP1 MLOAD PUSH1 0x20 PUSH2 0x464A DUP4 CODECOPY DUP2 MLOAD SWAP2 MSTORE PUSH1 0x44 DUP3 ADD MSTORE SWAP1 MLOAD SWAP1 DUP2 SWAP1 SUB PUSH1 0x64 ADD SWAP1 REVERT JUMPDEST PUSH1 0x2 PUSH1 0x0 SSTORE DUP1 PUSH2 0x1161 DUP2 PUSH2 0x3EE6 JUMP JUMPDEST DUP2 PUSH2 0x116B DUP2 PUSH2 0x3F9D JUMP JUMPDEST PUSH1 0x36 SLOAD PUSH1 0x40 DUP1 MLOAD PUSH4 0x9FB8AFCD PUSH1 0xE0 SHL DUP2 MSTORE PUSH1 0x1 PUSH1 0x1 PUSH1 0xA0 SHL SUB DUP7 DUP2 AND PUSH1 0x4 DUP4 ADD MSTORE CALLER PUSH1 0x24 DUP4 ADD MSTORE SWAP2 MLOAD PUSH1 0x0 SWAP4 DUP5 SWAP4 DUP5 SWAP4 SWAP2 AND SWAP2 PUSH4 0x9FB8AFCD SWAP2 PUSH1 0x44 DUP1 DUP3 ADD SWAP3 PUSH1 0x60 SWAP3 SWAP1 SWAP2 SWAP1 DUP3 SWAP1 SUB ADD DUP2 DUP7 DUP1 EXTCODESIZE ISZERO DUP1 ISZERO PUSH2 0x11C4 JUMPI PUSH1 0x0 DUP1 REVERT JUMPDEST POP GAS STATICCALL ISZERO DUP1 ISZERO PUSH2 0x11D8 JUMPI RETURNDATASIZE PUSH1 0x0 DUP1 RETURNDATACOPY RETURNDATASIZE PUSH1 0x0 REVERT JUMPDEST POP POP POP POP PUSH1 0x40 MLOAD RETURNDATASIZE PUSH1 0x60 DUP2 LT ISZERO PUSH2 0x11EE JUMPI PUSH1 0x0 DUP1 REVERT JUMPDEST POP DUP1 MLOAD PUSH1 0x20 DUP3 ADD MLOAD PUSH1 0x40 SWAP1 SWAP3 ADD MLOAD SWAP1 SWAP5 POP SWAP1 SWAP3 POP SWAP1 POP DUP2 PUSH2 0x1240 JUMPI PUSH1 0x40 MLOAD PUSH3 0x461BCD PUSH1 0xE5 SHL DUP2 MSTORE PUSH1 0x4 ADD DUP1 DUP1 PUSH1 0x20 ADD DUP3 DUP2 SUB DUP3 MSTORE PUSH1 0x3A DUP2 MSTORE PUSH1 0x20 ADD DUP1 PUSH2 0x49FD PUSH1 0x3A SWAP2 CODECOPY PUSH1 0x40 ADD SWAP2 POP POP PUSH1 0x40 MLOAD DUP1 SWAP2 SUB SWAP1 REVERT JUMPDEST PUSH1 0x36 SLOAD PUSH1 0x40 DUP1 MLOAD PUSH4 0x1CA19F19 PUSH1 0xE0 SHL DUP2 MSTORE PUSH1 0x1 PUSH1 0x1 PUSH1 0xA0 SHL SUB DUP10 DUP2 AND PUSH1 0x4 DUP4 ADD MSTORE CALLER PUSH1 0x24 DUP4 ADD MSTORE SWAP2 MLOAD PUSH1 0x0 SWAP4 SWAP3 SWAP1 SWAP3 AND SWAP2 PUSH4 0x1CA19F19 SWAP2 PUSH1 0x44 DUP1 DUP3 ADD SWAP3 PUSH1 0x20 SWAP3 SWAP1 SWAP2 SWAP1 DUP3 SWAP1 SUB ADD DUP2 DUP7 DUP1 EXTCODESIZE ISZERO DUP1 ISZERO PUSH2 0x1297 JUMPI PUSH1 0x0 DUP1 REVERT JUMPDEST POP GAS STATICCALL ISZERO DUP1 ISZERO PUSH2 0x12AB JUMPI RETURNDATASIZE PUSH1 0x0 DUP1 RETURNDATACOPY RETURNDATASIZE PUSH1 0x0 REVERT JUMPDEST POP POP POP POP PUSH1 0x40 MLOAD RETURNDATASIZE PUSH1 0x20 DUP2 LT ISZERO PUSH2 0x12C1 JUMPI PUSH1 0x0 DUP1 REVERT JUMPDEST POP MLOAD SWAP1 POP PUSH1 0x2 DUP2 PUSH1 0x2 DUP2 GT ISZERO PUSH2 0x12D3 JUMPI INVALID JUMPDEST EQ ISZERO PUSH2 0x139A JUMPI PUSH1 0x36 SLOAD PUSH1 0x40 DUP1 MLOAD PUSH4 0x710BA6C3 PUSH1 0xE1 SHL DUP2 MSTORE PUSH1 0x1 PUSH1 0x1 PUSH1 0xA0 SHL SUB DUP11 DUP2 AND PUSH1 0x4 DUP4 ADD MSTORE CALLER PUSH1 0x24 DUP4 ADD MSTORE PUSH1 0x44 DUP3 ADD DUP8 SWAP1 MSTORE SWAP2 MLOAD SWAP2 SWAP1 SWAP3 AND SWAP2 PUSH4 0xE2174D86 SWAP2 PUSH1 0x64 DUP1 DUP4 ADD SWAP3 PUSH1 0x20 SWAP3 SWAP2 SWAP1 DUP3 SWAP1 SUB ADD DUP2 DUP7 DUP1 EXTCODESIZE ISZERO DUP1 ISZERO PUSH2 0x1333 JUMPI PUSH1 0x0 DUP1 REVERT JUMPDEST POP GAS STATICCALL ISZERO DUP1 ISZERO PUSH2 0x1347 JUMPI RETURNDATASIZE PUSH1 0x0 DUP1 RETURNDATACOPY RETURNDATASIZE PUSH1 0x0 REVERT JUMPDEST POP POP POP POP PUSH1 0x40 MLOAD RETURNDATASIZE PUSH1 0x20 DUP2 LT ISZERO PUSH2 0x135D JUMPI PUSH1 0x0 DUP1 REVERT JUMPDEST POP MLOAD PUSH2 0x139A JUMPI PUSH1 0x40 MLOAD PUSH3 0x461BCD PUSH1 0xE5 SHL DUP2 MSTORE PUSH1 0x4 ADD DUP1 DUP1 PUSH1 0x20 ADD DUP3 DUP2 SUB DUP3 MSTORE PUSH1 0x30 DUP2 MSTORE PUSH1 0x20 ADD DUP1 PUSH2 0x4B22 PUSH1 0x30 SWAP2 CODECOPY PUSH1 0x40 ADD SWAP2 POP POP PUSH1 0x40 MLOAD DUP1 SWAP2 SUB SWAP1 REVERT JUMPDEST PUSH1 0x36 SLOAD PUSH1 0x40 MLOAD PUSH4 0xF6148311 PUSH1 0xE0 SHL DUP2 MSTORE PUSH1 0x1 PUSH1 0x1 PUSH1 0xA0 SHL SUB DUP10 DUP2 AND PUSH1 0x4 DUP4 ADD SWAP1 DUP2 MSTORE CALLER PUSH1 0x24 DUP5 ADD DUP2 SWAP1 MSTORE PUSH1 0x44 DUP5 ADD DUP10 SWAP1 MSTORE PUSH1 0x64 DUP5 ADD DUP9 SWAP1 MSTORE PUSH1 0x84 DUP5 ADD DUP8 SWAP1 MSTORE PUSH1 0x0 SWAP5 DUP6 SWAP5 SWAP4 AND SWAP3 PUSH4 0xF6148311 SWAP3 DUP14 SWAP3 SWAP2 DUP12 SWAP2 DUP12 SWAP2 DUP12 SWAP2 DUP12 SWAP2 PUSH1 0xA4 ADD DUP3 PUSH1 0x2 DUP2 GT ISZERO PUSH2 0x1401 JUMPI INVALID JUMPDEST PUSH1 0xFF AND DUP2 MSTORE PUSH1 0x20 ADD SWAP7 POP POP POP POP POP POP POP PUSH1 0x40 DUP1 MLOAD DUP1 DUP4 SUB DUP2 PUSH1 0x0 DUP8 DUP1 EXTCODESIZE ISZERO DUP1 ISZERO PUSH2 0x142A JUMPI PUSH1 0x0 DUP1 REVERT JUMPDEST POP GAS CALL ISZERO DUP1 ISZERO PUSH2 0x143E JUMPI RETURNDATASIZE PUSH1 0x0 DUP1 RETURNDATACOPY RETURNDATASIZE PUSH1 0x0 REVERT JUMPDEST POP POP POP POP PUSH1 0x40 MLOAD RETURNDATASIZE PUSH1 0x40 DUP2 LT ISZERO PUSH2 0x1454 JUMPI PUSH1 0x0 DUP1 REVERT JUMPDEST POP DUP1 MLOAD PUSH1 0x20 SWAP1 SWAP2 ADD MLOAD SWAP1 SWAP3 POP SWAP1 POP CALLER PUSH1 0x1 PUSH1 0x1 PUSH1 0xA0 SHL SUB DUP11 AND PUSH32 0xB3E2773606ABFD36B5BD91394B3A54D1398336C65005BAF7BF7A05EFEFFAF75B DUP5 PUSH1 0x2 DUP2 GT ISZERO PUSH2 0x149A JUMPI INVALID JUMPDEST PUSH1 0x40 DUP1 MLOAD SWAP2 DUP3 MSTORE PUSH1 0x20 DUP3 ADD DUP7 SWAP1 MSTORE DUP2 DUP2 ADD DUP10 SWAP1 MSTORE TIMESTAMP PUSH1 0x60 DUP4 ADD MSTORE MLOAD SWAP1 DUP2 SWAP1 SUB PUSH1 0x80 ADD SWAP1 LOG3 POP POP PUSH1 0x1 PUSH1 0x0 SSTORE POP POP POP POP POP POP POP JUMP JUMPDEST PUSH1 0x0 DUP1 PUSH1 0x0 DUP1 PUSH1 0x0 DUP1 PUSH1 0x0 DUP1 PUSH1 0x0 DUP1 PUSH1 0x0 DUP1 PUSH1 0x0 PUSH1 0x37 PUSH1 0x0 SWAP1 SLOAD SWAP1 PUSH2 0x100 EXP SWAP1 DIV PUSH1 0x1 PUSH1 0x1 PUSH1 0xA0 SHL SUB AND PUSH1 0x1 PUSH1 0x1 PUSH1 0xA0 SHL SUB AND PUSH4 0x4DC54A38 DUP16 PUSH1 0x40 MLOAD DUP3 PUSH4 0xFFFFFFFF AND PUSH1 0xE0 SHL DUP2 MSTORE PUSH1 0x4 ADD DUP1 DUP3 PUSH1 0x1 PUSH1 0x1 PUSH1 0xA0 SHL SUB AND PUSH1 0x1 PUSH1 0x1 PUSH1 0xA0 SHL SUB AND DUP2 MSTORE PUSH1 0x20 ADD SWAP2 POP POP PUSH2 0x1A0 PUSH1 0x40 MLOAD DUP1 DUP4 SUB DUP2 DUP7 DUP1 EXTCODESIZE ISZERO DUP1 ISZERO PUSH2 0x154E JUMPI PUSH1 0x0 DUP1 REVERT JUMPDEST POP GAS STATICCALL ISZERO DUP1 ISZERO PUSH2 0x1562 JUMPI RETURNDATASIZE PUSH1 0x0 DUP1 RETURNDATACOPY RETURNDATASIZE PUSH1 0x0 REVERT JUMPDEST POP POP POP POP PUSH1 0x40 MLOAD RETURNDATASIZE PUSH2 0x1A0 DUP2 LT ISZERO PUSH2 0x1579 JUMPI PUSH1 0x0 DUP1 REVERT JUMPDEST DUP2 ADD SWAP1 DUP1 DUP1 MLOAD SWAP1 PUSH1 0x20 ADD SWAP1 SWAP3 SWAP2 SWAP1 DUP1 MLOAD SWAP1 PUSH1 0x20 ADD SWAP1 SWAP3 SWAP2 SWAP1 DUP1 MLOAD SWAP1 PUSH1 0x20 ADD SWAP1 SWAP3 SWAP2 SWAP1 DUP1 MLOAD SWAP1 PUSH1 0x20 ADD SWAP1 SWAP3 SWAP2 SWAP1 DUP1 MLOAD SWAP1 PUSH1 0x20 ADD SWAP1 SWAP3 SWAP2 SWAP1 DUP1 MLOAD SWAP1 PUSH1 0x20 ADD SWAP1 SWAP3 SWAP2 SWAP1 DUP1 MLOAD SWAP1 PUSH1 0x20 ADD SWAP1 SWAP3 SWAP2 SWAP1 DUP1 MLOAD SWAP1 PUSH1 0x20 ADD SWAP1 SWAP3 SWAP2 SWAP1 DUP1 MLOAD SWAP1 PUSH1 0x20 ADD SWAP1 SWAP3 SWAP2 SWAP1 DUP1 MLOAD SWAP1 PUSH1 0x20 ADD SWAP1 SWAP3 SWAP2 SWAP1 DUP1 MLOAD SWAP1 PUSH1 0x20 ADD SWAP1 SWAP3 SWAP2 SWAP1 DUP1 MLOAD SWAP1 PUSH1 0x20 ADD SWAP1 SWAP3 SWAP2 SWAP1 DUP1 MLOAD SWAP1 PUSH1 0x20 ADD SWAP1 SWAP3 SWAP2 SWAP1 POP POP POP SWAP13 POP SWAP13 POP SWAP13 POP SWAP13 POP SWAP13 POP SWAP13 POP SWAP13 POP SWAP13 POP SWAP13 POP SWAP13 POP SWAP13 POP SWAP13 POP SWAP13 POP SWAP2 SWAP4 SWAP6 SWAP8 SWAP10 SWAP12 SWAP14 SWAP1 SWAP3 SWAP5 SWAP7 SWAP9 SWAP11 SWAP13 POP JUMP JUMPDEST PUSH1 0x38 SLOAD PUSH1 0x1 PUSH1 0x1 PUSH1 0xA0 SHL SUB AND DUP2 JUMP JUMPDEST PUSH1 0x2 PUSH1 0x0 SLOAD EQ ISZERO PUSH2 0x1682 JUMPI PUSH1 0x40 DUP1 MLOAD PUSH3 0x461BCD PUSH1 0xE5 SHL DUP2 MSTORE PUSH1 0x20 PUSH1 0x4 DUP3 ADD MSTORE PUSH1 0x1F PUSH1 0x24 DUP3 ADD MSTORE PUSH1 0x0 DUP1 MLOAD PUSH1 0x20 PUSH2 0x464A DUP4 CODECOPY DUP2 MLOAD SWAP2 MSTORE PUSH1 0x44 DUP3 ADD MSTORE SWAP1 MLOAD SWAP1 DUP2 SWAP1 SUB PUSH1 0x64 ADD SWAP1 REVERT JUMPDEST PUSH1 0x2 PUSH1 0x0 SSTORE DUP3 PUSH2 0x1691 DUP2 PUSH2 0x3EE6 JUMP JUMPDEST DUP3 PUSH2 0x169B DUP2 PUSH2 0x4052 JUMP JUMPDEST PUSH2 0x16A3 PUSH2 0x453B JUMP JUMPDEST PUSH1 0x36 SLOAD PUSH1 0x40 DUP1 MLOAD PUSH4 0x9FB8AFCD PUSH1 0xE0 SHL DUP2 MSTORE PUSH1 0x1 PUSH1 0x1 PUSH1 0xA0 SHL SUB DUP10 DUP2 AND PUSH1 0x4 DUP4 ADD MSTORE DUP8 DUP2 AND PUSH1 0x24 DUP4 ADD MSTORE SWAP2 MLOAD SWAP2 SWAP1 SWAP3 AND SWAP2 PUSH4 0x9FB8AFCD SWAP2 PUSH1 0x44 DUP1 DUP4 ADD SWAP3 PUSH1 0x60 SWAP3 SWAP2 SWAP1 DUP3 SWAP1 SUB ADD DUP2 DUP7 DUP1 EXTCODESIZE ISZERO DUP1 ISZERO PUSH2 0x16F8 JUMPI PUSH1 0x0 DUP1 REVERT JUMPDEST POP GAS STATICCALL ISZERO DUP1 ISZERO PUSH2 0x170C JUMPI RETURNDATASIZE PUSH1 0x0 DUP1 RETURNDATACOPY RETURNDATASIZE PUSH1 0x0 REVERT JUMPDEST POP POP POP POP PUSH1 0x40 MLOAD RETURNDATASIZE PUSH1 0x60 DUP2 LT ISZERO PUSH2 0x1722 JUMPI PUSH1 0x0 DUP1 REVERT JUMPDEST POP DUP1 MLOAD PUSH1 0x20 DUP1 DUP4 ADD MLOAD PUSH1 0x40 SWAP4 DUP5 ADD MLOAD DUP6 DUP6 ADD MSTORE DUP5 DUP3 ADD MSTORE SWAP1 DUP4 MSTORE PUSH1 0x36 SLOAD DUP3 MLOAD PUSH4 0x6F0D264B PUSH1 0xE0 SHL DUP2 MSTORE PUSH1 0x1 PUSH1 0x1 PUSH1 0xA0 SHL SUB DUP11 DUP2 AND PUSH1 0x4 DUP4 ADD MSTORE DUP9 DUP2 AND PUSH1 0x24 DUP4 ADD MSTORE SWAP4 MLOAD SWAP4 SWAP1 SWAP2 AND SWAP3 PUSH4 0x6F0D264B SWAP3 PUSH1 0x44 DUP1 DUP5 ADD SWAP4 SWAP2 SWAP3 SWAP2 DUP3 SWAP1 SUB ADD DUP2 DUP7 DUP1 EXTCODESIZE ISZERO DUP1 ISZERO PUSH2 0x178D JUMPI PUSH1 0x0 DUP1 REVERT JUMPDEST POP GAS STATICCALL ISZERO DUP1 ISZERO PUSH2 0x17A1 JUMPI RETURNDATASIZE PUSH1 0x0 DUP1 RETURNDATACOPY RETURNDATASIZE PUSH1 0x0 REVERT JUMPDEST POP POP POP POP PUSH1 0x40 MLOAD RETURNDATASIZE PUSH1 0x20 DUP2 LT ISZERO PUSH2 0x17B7 JUMPI PUSH1 0x0 DUP1 REVERT JUMPDEST POP MLOAD PUSH1 0xE0 DUP3 ADD MSTORE PUSH1 0x1 PUSH1 0x1 PUSH1 0xA0 SHL SUB DUP7 AND PUSH2 0x17D0 PUSH2 0x40A7 JUMP JUMPDEST PUSH1 0x1 PUSH1 0x1 PUSH1 0xA0 SHL SUB AND EQ PUSH1 0x60 DUP3 ADD MSTORE PUSH1 0x20 DUP2 ADD MLOAD PUSH2 0x181F JUMPI PUSH1 0x40 MLOAD PUSH3 0x461BCD PUSH1 0xE5 SHL DUP2 MSTORE PUSH1 0x4 ADD DUP1 DUP1 PUSH1 0x20 ADD DUP3 DUP2 SUB DUP3 MSTORE PUSH1 0x29 DUP2 MSTORE PUSH1 0x20 ADD DUP1 PUSH2 0x4A68 PUSH1 0x29 SWAP2 CODECOPY PUSH1 0x40 ADD SWAP2 POP POP PUSH1 0x40 MLOAD DUP1 SWAP2 SUB SWAP1 REVERT JUMPDEST PUSH1 0x0 NOT DUP6 EQ ISZERO DUP1 PUSH2 0x1838 JUMPI POP CALLER PUSH1 0x1 PUSH1 0x1 PUSH1 0xA0 SHL SUB DUP6 AND EQ JUMPDEST PUSH2 0x1873 JUMPI PUSH1 0x40 MLOAD PUSH3 0x461BCD PUSH1 0xE5 SHL DUP2 MSTORE PUSH1 0x4 ADD DUP1 DUP1 PUSH1 0x20 ADD DUP3 DUP2 SUB DUP3 MSTORE PUSH1 0x44 DUP2 MSTORE PUSH1 0x20 ADD DUP1 PUSH2 0x4B52 PUSH1 0x44 SWAP2 CODECOPY PUSH1 0x60 ADD SWAP2 POP POP PUSH1 0x40 MLOAD DUP1 SWAP2 SUB SWAP1 REVERT JUMPDEST PUSH1 0xE0 DUP2 ADD MLOAD PUSH1 0x20 DUP3 ADD MLOAD PUSH2 0x188C SWAP2 PUSH4 0xFFFFFFFF PUSH2 0x40BF AND JUMP JUMPDEST PUSH1 0x80 DUP3 ADD MSTORE PUSH1 0x0 NOT DUP6 EQ DUP1 ISZERO SWAP1 PUSH2 0x18A6 JUMPI POP DUP1 PUSH1 0x80 ADD MLOAD DUP6 LT JUMPDEST ISZERO PUSH2 0x18B3 JUMPI PUSH1 0x80 DUP2 ADD DUP6 SWAP1 MSTORE JUMPDEST DUP1 PUSH1 0x60 ADD MLOAD ISZERO DUP1 PUSH2 0x18C8 JUMPI POP DUP1 PUSH1 0x80 ADD MLOAD CALLVALUE LT ISZERO JUMPDEST PUSH2 0x1903 JUMPI PUSH1 0x40 MLOAD PUSH3 0x461BCD PUSH1 0xE5 SHL DUP2 MSTORE PUSH1 0x4 ADD DUP1 DUP1 PUSH1 0x20 ADD DUP3 DUP2 SUB DUP3 MSTORE PUSH1 0x28 DUP2 MSTORE PUSH1 0x20 ADD DUP1 PUSH2 0x47FE PUSH1 0x28 SWAP2 CODECOPY PUSH1 0x40 ADD SWAP2 POP POP PUSH1 0x40 MLOAD DUP1 SWAP2 SUB SWAP1 REVERT JUMPDEST DUP1 PUSH1 0xE0 ADD MLOAD DUP2 PUSH1 0x80 ADD MLOAD GT PUSH2 0x1B2E JUMPI PUSH1 0x36 SLOAD PUSH1 0x80 DUP3 ADD MLOAD PUSH1 0x40 DUP1 DUP5 ADD MLOAD DUP2 MLOAD PUSH4 0xDA12D96F PUSH1 0xE0 SHL DUP2 MSTORE PUSH1 0x1 PUSH1 0x1 PUSH1 0xA0 SHL SUB DUP12 DUP2 AND PUSH1 0x4 DUP4 ADD MSTORE DUP10 DUP2 AND PUSH1 0x24 DUP4 ADD MSTORE PUSH1 0x0 PUSH1 0x44 DUP4 ADD DUP2 SWAP1 MSTORE PUSH1 0x64 DUP4 ADD SWAP6 SWAP1 SWAP6 MSTORE PUSH1 0x84 DUP3 ADD SWAP3 SWAP1 SWAP3 MSTORE PUSH1 0xA4 DUP2 ADD DUP5 SWAP1 MSTORE SWAP2 MLOAD SWAP4 AND SWAP3 PUSH4 0xDA12D96F SWAP3 PUSH1 0xC4 DUP1 DUP5 ADD SWAP4 SWAP2 SWAP3 SWAP2 DUP3 SWAP1 SUB ADD DUP2 DUP4 DUP8 DUP1 EXTCODESIZE ISZERO DUP1 ISZERO PUSH2 0x198D JUMPI PUSH1 0x0 DUP1 REVERT JUMPDEST POP GAS CALL ISZERO DUP1 ISZERO PUSH2 0x19A1 JUMPI RETURNDATASIZE PUSH1 0x0 DUP1 RETURNDATACOPY RETURNDATASIZE PUSH1 0x0 REVERT JUMPDEST POP POP PUSH1 0x36 SLOAD PUSH1 0x60 DUP5 ADD MLOAD PUSH1 0x1 PUSH1 0x1 PUSH1 0xA0 SHL SUB SWAP1 SWAP2 AND SWAP3 POP PUSH4 0xC7D14237 SWAP2 POP PUSH2 0x19CA JUMPI PUSH1 0x0 PUSH2 0x19D0 JUMP JUMPDEST DUP3 PUSH1 0x80 ADD MLOAD JUMPDEST DUP9 DUP8 DUP6 PUSH1 0x80 ADD MLOAD PUSH1 0x35 PUSH1 0x0 SWAP1 SLOAD SWAP1 PUSH2 0x100 EXP SWAP1 DIV PUSH1 0x1 PUSH1 0x1 PUSH1 0xA0 SHL SUB AND PUSH1 0x1 PUSH1 0x1 PUSH1 0xA0 SHL SUB AND PUSH4 0x145D02F0 PUSH1 0x40 MLOAD DUP2 PUSH4 0xFFFFFFFF AND PUSH1 0xE0 SHL DUP2 MSTORE PUSH1 0x4 ADD PUSH1 0x20 PUSH1 0x40 MLOAD DUP1 DUP4 SUB DUP2 DUP7 DUP1 EXTCODESIZE ISZERO DUP1 ISZERO PUSH2 0x1A25 JUMPI PUSH1 0x0 DUP1 REVERT JUMPDEST POP GAS STATICCALL ISZERO DUP1 ISZERO PUSH2 0x1A39 JUMPI RETURNDATASIZE PUSH1 0x0 DUP1 RETURNDATACOPY RETURNDATASIZE PUSH1 0x0 REVERT JUMPDEST POP POP POP POP PUSH1 0x40 MLOAD RETURNDATASIZE PUSH1 0x20 DUP2 LT ISZERO PUSH2 0x1A4F JUMPI PUSH1 0x0 DUP1 REVERT JUMPDEST POP MLOAD PUSH1 0x40 DUP1 MLOAD PUSH1 0x1 PUSH1 0x1 PUSH1 0xE0 SHL SUB NOT PUSH1 0xE0 DUP10 SWAP1 SHL AND DUP2 MSTORE PUSH1 0x1 PUSH1 0x1 PUSH1 0xA0 SHL SUB SWAP6 DUP7 AND PUSH1 0x4 DUP3 ADD MSTORE SWAP4 DUP6 AND PUSH1 0x24 DUP6 ADD MSTORE PUSH1 0x44 DUP5 ADD SWAP3 SWAP1 SWAP3 MSTORE SWAP3 SWAP1 SWAP3 AND PUSH1 0x64 DUP3 ADD MSTORE SWAP1 MLOAD PUSH1 0x84 DUP1 DUP4 ADD SWAP3 PUSH1 0x0 SWAP3 SWAP2 SWAP1 DUP3 SWAP1 SUB ADD DUP2 DUP6 DUP9 DUP1 EXTCODESIZE ISZERO DUP1 ISZERO PUSH2 0x1AB1 JUMPI PUSH1 0x0 DUP1 REVERT JUMPDEST POP GAS CALL ISZERO DUP1 ISZERO PUSH2 0x1AC5 JUMPI RETURNDATASIZE PUSH1 0x0 DUP1 RETURNDATACOPY RETURNDATASIZE PUSH1 0x0 REVERT JUMPDEST POP POP POP PUSH1 0x80 DUP1 DUP5 ADD MLOAD PUSH1 0x40 DUP1 DUP7 ADD MLOAD DUP2 MLOAD PUSH1 0x0 DUP2 MSTORE PUSH1 0x20 DUP2 ADD SWAP4 SWAP1 SWAP4 MSTORE DUP3 DUP3 ADD MSTORE TIMESTAMP PUSH1 0x60 DUP4 ADD MSTORE MLOAD CALLER SWAP5 POP PUSH1 0x1 PUSH1 0x1 PUSH1 0xA0 SHL SUB DUP10 DUP2 AND SWAP5 POP DUP12 AND SWAP3 PUSH32 0xB718F0B14F03D8C3ADF35B15E3DA52421B042AC879E5A689011A8B1E0036773D SWAP3 DUP3 SWAP1 SUB ADD SWAP1 LOG4 POP PUSH2 0xEBD JUMP JUMPDEST PUSH1 0xE0 DUP2 ADD MLOAD PUSH1 0x80 DUP3 ADD MLOAD PUSH2 0x1B47 SWAP2 PUSH4 0xFFFFFFFF PUSH2 0x4122 AND JUMP JUMPDEST PUSH1 0xA0 DUP3 ADD DUP2 SWAP1 MSTORE PUSH1 0x36 SLOAD PUSH1 0xE0 DUP4 ADD MLOAD PUSH1 0x40 DUP1 DUP6 ADD MLOAD PUSH1 0x20 DUP7 ADD MLOAD DUP3 MLOAD PUSH4 0xDA12D96F PUSH1 0xE0 SHL DUP2 MSTORE PUSH1 0x1 PUSH1 0x1 PUSH1 0xA0 SHL SUB DUP14 DUP2 AND PUSH1 0x4 DUP4 ADD MSTORE DUP12 DUP2 AND PUSH1 0x24 DUP4 ADD MSTORE PUSH1 0x44 DUP3 ADD DUP9 SWAP1 MSTORE PUSH1 0x64 DUP3 ADD SWAP6 SWAP1 SWAP6 MSTORE PUSH1 0x84 DUP2 ADD SWAP3 SWAP1 SWAP3 MSTORE SWAP1 SWAP5 EQ PUSH1 0xA4 DUP6 ADD MSTORE MLOAD SWAP2 AND SWAP2 PUSH4 0xDA12D96F SWAP2 PUSH1 0xC4 DUP1 DUP4 ADD SWAP3 PUSH1 0x0 SWAP3 SWAP2 SWAP1 DUP3 SWAP1 SUB ADD DUP2 DUP4 DUP8 DUP1 EXTCODESIZE ISZERO DUP1 ISZERO PUSH2 0x1BCE JUMPI PUSH1 0x0 DUP1 REVERT JUMPDEST POP GAS CALL ISZERO DUP1 ISZERO PUSH2 0x1BE2 JUMPI RETURNDATASIZE PUSH1 0x0 DUP1 RETURNDATACOPY RETURNDATASIZE PUSH1 0x0 REVERT JUMPDEST POP POP POP POP PUSH1 0xE0 DUP2 ADD MLOAD ISZERO PUSH2 0x1D16 JUMPI PUSH1 0x36 SLOAD PUSH1 0x60 DUP3 ADD MLOAD PUSH1 0x1 PUSH1 0x1 PUSH1 0xA0 SHL SUB SWAP1 SWAP2 AND SWAP1 PUSH4 0xC7D14237 SWAP1 PUSH2 0x1C15 JUMPI PUSH1 0x0 PUSH2 0x1C1B JUMP JUMPDEST DUP3 PUSH1 0xE0 ADD MLOAD JUMPDEST DUP9 DUP8 DUP6 PUSH1 0xE0 ADD MLOAD PUSH1 0x35 PUSH1 0x0 SWAP1 SLOAD SWAP1 PUSH2 0x100 EXP SWAP1 DIV PUSH1 0x1 PUSH1 0x1 PUSH1 0xA0 SHL SUB AND PUSH1 0x1 PUSH1 0x1 PUSH1 0xA0 SHL SUB AND PUSH4 0x145D02F0 PUSH1 0x40 MLOAD DUP2 PUSH4 0xFFFFFFFF AND PUSH1 0xE0 SHL DUP2 MSTORE PUSH1 0x4 ADD PUSH1 0x20 PUSH1 0x40 MLOAD DUP1 DUP4 SUB DUP2 DUP7 DUP1 EXTCODESIZE ISZERO DUP1 ISZERO PUSH2 0x1C70 JUMPI PUSH1 0x0 DUP1 REVERT JUMPDEST POP GAS STATICCALL ISZERO DUP1 ISZERO PUSH2 0x1C84 JUMPI RETURNDATASIZE PUSH1 0x0 DUP1 RETURNDATACOPY RETURNDATASIZE PUSH1 0x0 REVERT JUMPDEST POP POP POP POP PUSH1 0x40 MLOAD RETURNDATASIZE PUSH1 0x20 DUP2 LT ISZERO PUSH2 0x1C9A JUMPI PUSH1 0x0 DUP1 REVERT JUMPDEST POP MLOAD PUSH1 0x40 DUP1 MLOAD PUSH1 0x1 PUSH1 0x1 PUSH1 0xE0 SHL SUB NOT PUSH1 0xE0 DUP10 SWAP1 SHL AND DUP2 MSTORE PUSH1 0x1 PUSH1 0x1 PUSH1 0xA0 SHL SUB SWAP6 DUP7 AND PUSH1 0x4 DUP3 ADD MSTORE SWAP4 DUP6 AND PUSH1 0x24 DUP6 ADD MSTORE PUSH1 0x44 DUP5 ADD SWAP3 SWAP1 SWAP3 MSTORE SWAP3 SWAP1 SWAP3 AND PUSH1 0x64 DUP3 ADD MSTORE SWAP1 MLOAD PUSH1 0x84 DUP1 DUP4 ADD SWAP3 PUSH1 0x0 SWAP3 SWAP2 SWAP1 DUP3 SWAP1 SUB ADD DUP2 DUP6 DUP9 DUP1 EXTCODESIZE ISZERO DUP1 ISZERO PUSH2 0x1CFC JUMPI PUSH1 0x0 DUP1 REVERT JUMPDEST POP GAS CALL ISZERO DUP1 ISZERO PUSH2 0x1D10 JUMPI RETURNDATASIZE PUSH1 0x0 DUP1 RETURNDATACOPY RETURNDATASIZE PUSH1 0x0 REVERT JUMPDEST POP POP POP POP POP JUMPDEST PUSH1 0x36 SLOAD PUSH1 0x60 DUP3 ADD MLOAD PUSH1 0x1 PUSH1 0x1 PUSH1 0xA0 SHL SUB SWAP1 SWAP2 AND SWAP1 PUSH4 0x28FCF4D3 SWAP1 PUSH2 0x1D3B JUMPI PUSH1 0x0 PUSH2 0x1D51 JUMP JUMPDEST PUSH1 0xE0 DUP4 ADD MLOAD PUSH2 0x1D51 SWAP1 CALLVALUE SWAP1 PUSH4 0xFFFFFFFF PUSH2 0x4122 AND JUMP JUMPDEST PUSH1 0xA0 DUP5 ADD MLOAD PUSH1 0x40 DUP1 MLOAD PUSH1 0x1 PUSH1 0x1 PUSH1 0xE0 SHL SUB NOT PUSH1 0xE0 DUP7 SWAP1 SHL AND DUP2 MSTORE PUSH1 0x1 PUSH1 0x1 PUSH1 0xA0 SHL SUB DUP13 AND PUSH1 0x4 DUP3 ADD MSTORE CALLER PUSH1 0x24 DUP3 ADD MSTORE PUSH1 0x44 DUP2 ADD SWAP3 SWAP1 SWAP3 MSTORE MLOAD PUSH1 0x64 DUP1 DUP4 ADD SWAP3 PUSH1 0x0 SWAP3 SWAP2 SWAP1 DUP3 SWAP1 SUB ADD DUP2 DUP6 DUP9 DUP1 EXTCODESIZE ISZERO DUP1 ISZERO PUSH2 0x1DA9 JUMPI PUSH1 0x0 DUP1 REVERT JUMPDEST POP GAS CALL ISZERO DUP1 ISZERO PUSH2 0x1DBD JUMPI RETURNDATASIZE PUSH1 0x0 DUP1 RETURNDATACOPY RETURNDATASIZE PUSH1 0x0 REVERT JUMPDEST POP POP POP PUSH1 0xA0 DUP4 ADD MLOAD PUSH1 0xE0 DUP5 ADD MLOAD PUSH1 0x40 DUP1 DUP7 ADD MLOAD DUP2 MLOAD SWAP4 DUP5 MSTORE PUSH1 0x20 DUP5 ADD SWAP3 SWAP1 SWAP3 MSTORE DUP3 DUP2 ADD SWAP2 SWAP1 SWAP2 MSTORE TIMESTAMP PUSH1 0x60 DUP4 ADD MSTORE MLOAD CALLER SWAP4 POP PUSH1 0x1 PUSH1 0x1 PUSH1 0xA0 SHL SUB DUP9 DUP2 AND SWAP4 POP DUP11 AND SWAP2 PUSH32 0xB718F0B14F03D8C3ADF35B15E3DA52421B042AC879E5A689011A8B1E0036773D SWAP2 SWAP1 DUP2 SWAP1 SUB PUSH1 0x80 ADD SWAP1 LOG4 POP POP POP PUSH1 0x1 PUSH1 0x0 SSTORE POP POP POP JUMP JUMPDEST PUSH1 0x2 PUSH1 0x0 SLOAD EQ ISZERO PUSH2 0x1E7C JUMPI PUSH1 0x40 DUP1 MLOAD PUSH3 0x461BCD PUSH1 0xE5 SHL DUP2 MSTORE PUSH1 0x20 PUSH1 0x4 DUP3 ADD MSTORE PUSH1 0x1F PUSH1 0x24 DUP3 ADD MSTORE PUSH1 0x0 DUP1 MLOAD PUSH1 0x20 PUSH2 0x464A DUP4 CODECOPY DUP2 MLOAD SWAP2 MSTORE PUSH1 0x44 DUP3 ADD MSTORE SWAP1 MLOAD SWAP1 DUP2 SWAP1 SUB PUSH1 0x64 ADD SWAP1 REVERT JUMPDEST PUSH1 0x2 PUSH1 0x0 SSTORE DUP3 PUSH2 0x1E8B DUP2 PUSH2 0x3EE6 JUMP JUMPDEST DUP3 PUSH2 0x1E95 DUP2 PUSH2 0x4052 JUMP JUMPDEST PUSH1 0x0 PUSH2 0x1E9F PUSH2 0x40A7 JUMP JUMPDEST PUSH1 0x1 PUSH1 0x1 PUSH1 0xA0 SHL SUB AND DUP7 PUSH1 0x1 PUSH1 0x1 PUSH1 0xA0 SHL SUB AND EQ PUSH2 0x1F35 JUMPI PUSH1 0x36 SLOAD PUSH1 0x40 DUP1 MLOAD PUSH4 0x70A08231 PUSH1 0xE0 SHL DUP2 MSTORE PUSH1 0x1 PUSH1 0x1 PUSH1 0xA0 SHL SUB SWAP3 DUP4 AND PUSH1 0x4 DUP3 ADD MSTORE SWAP1 MLOAD SWAP2 DUP9 AND SWAP2 PUSH4 0x70A08231 SWAP2 PUSH1 0x24 DUP1 DUP3 ADD SWAP3 PUSH1 0x20 SWAP3 SWAP1 SWAP2 SWAP1 DUP3 SWAP1 SUB ADD DUP2 DUP7 DUP1 EXTCODESIZE ISZERO DUP1 ISZERO PUSH2 0x1F04 JUMPI PUSH1 0x0 DUP1 REVERT JUMPDEST POP GAS STATICCALL ISZERO DUP1 ISZERO PUSH2 0x1F18 JUMPI RETURNDATASIZE PUSH1 0x0 DUP1 RETURNDATACOPY RETURNDATASIZE PUSH1 0x0 REVERT JUMPDEST POP POP POP POP PUSH1 0x40 MLOAD RETURNDATASIZE PUSH1 0x20 DUP2 LT ISZERO PUSH2 0x1F2E JUMPI PUSH1 0x0 DUP1 REVERT JUMPDEST POP MLOAD PUSH2 0x1F43 JUMP JUMPDEST PUSH1 0x36 SLOAD PUSH1 0x1 PUSH1 0x1 PUSH1 0xA0 SHL SUB AND BALANCE JUMPDEST SWAP1 POP DUP5 DUP2 LT ISZERO PUSH2 0x1F84 JUMPI PUSH1 0x40 MLOAD PUSH3 0x461BCD PUSH1 0xE5 SHL DUP2 MSTORE PUSH1 0x4 ADD DUP1 DUP1 PUSH1 0x20 ADD DUP3 DUP2 SUB DUP3 MSTORE PUSH1 0x31 DUP2 MSTORE PUSH1 0x20 ADD DUP1 PUSH2 0x466A PUSH1 0x31 SWAP2 CODECOPY PUSH1 0x40 ADD SWAP2 POP POP PUSH1 0x40 MLOAD DUP1 SWAP2 SUB SWAP1 REVERT JUMPDEST PUSH1 0x38 SLOAD PUSH1 0x40 DUP1 MLOAD PUSH4 0x161BFAD PUSH1 0xE6 SHL DUP2 MSTORE DUP2 MLOAD PUSH1 0x0 SWAP4 DUP5 SWAP4 PUSH1 0x1 PUSH1 0x1 PUSH1 0xA0 SHL SUB SWAP1 SWAP2 AND SWAP3 PUSH4 0x586FEB40 SWAP3 PUSH1 0x4 DUP1 DUP4 ADD SWAP4 SWAP3 DUP3 SWAP1 SUB ADD DUP2 DUP7 DUP1 EXTCODESIZE ISZERO DUP1 ISZERO PUSH2 0x1FC9 JUMPI PUSH1 0x0 DUP1 REVERT JUMPDEST POP GAS STATICCALL ISZERO DUP1 ISZERO PUSH2 0x1FDD JUMPI RETURNDATASIZE PUSH1 0x0 DUP1 RETURNDATACOPY RETURNDATASIZE PUSH1 0x0 REVERT JUMPDEST POP POP POP POP PUSH1 0x40 MLOAD RETURNDATASIZE PUSH1 0x40 DUP2 LT ISZERO PUSH2 0x1FF3 JUMPI PUSH1 0x0 DUP1 REVERT JUMPDEST POP DUP1 MLOAD PUSH1 0x20 SWAP1 SWAP2 ADD MLOAD SWAP1 SWAP3 POP SWAP1 POP PUSH1 0x0 PUSH2 0x2025 PUSH2 0x2710 PUSH2 0x2019 DUP11 DUP7 PUSH4 0xFFFFFFFF PUSH2 0x4164 AND JUMP JUMPDEST SWAP1 PUSH4 0xFFFFFFFF PUSH2 0x41BD AND JUMP JUMPDEST SWAP1 POP PUSH1 0x0 PUSH2 0x203F PUSH2 0x2710 PUSH2 0x2019 DUP5 DUP7 PUSH4 0xFFFFFFFF PUSH2 0x4164 AND JUMP JUMPDEST SWAP1 POP PUSH1 0x0 DUP3 GT DUP1 ISZERO PUSH2 0x2051 JUMPI POP PUSH1 0x0 DUP2 GT JUMPDEST PUSH2 0x208C JUMPI PUSH1 0x40 MLOAD PUSH3 0x461BCD PUSH1 0xE5 SHL DUP2 MSTORE PUSH1 0x4 ADD DUP1 DUP1 PUSH1 0x20 ADD DUP3 DUP2 SUB DUP3 MSTORE PUSH1 0x32 DUP2 MSTORE PUSH1 0x20 ADD DUP1 PUSH2 0x48DC PUSH1 0x32 SWAP2 CODECOPY PUSH1 0x40 ADD SWAP2 POP POP PUSH1 0x40 MLOAD DUP1 SWAP2 SUB SWAP1 REVERT JUMPDEST PUSH1 0x36 SLOAD PUSH1 0x40 DUP1 MLOAD PUSH4 0xFA93B2A5 PUSH1 0xE0 SHL DUP2 MSTORE PUSH1 0x1 PUSH1 0x1 PUSH1 0xA0 SHL SUB DUP14 DUP2 AND PUSH1 0x4 DUP4 ADD MSTORE DUP1 DUP16 AND PUSH1 0x24 DUP4 ADD MSTORE PUSH1 0x44 DUP3 ADD DUP14 SWAP1 MSTORE SWAP2 MLOAD DUP15 SWAP4 DUP5 SWAP4 AND SWAP2 PUSH4 0xFA93B2A5 SWAP2 PUSH1 0x64 DUP1 DUP4 ADD SWAP3 PUSH1 0x0 SWAP3 SWAP2 SWAP1 DUP3 SWAP1 SUB ADD DUP2 DUP4 DUP8 DUP1 EXTCODESIZE ISZERO DUP1 ISZERO PUSH2 0x20EA JUMPI PUSH1 0x0 DUP1 REVERT JUMPDEST POP GAS CALL ISZERO DUP1 ISZERO PUSH2 0x20FE JUMPI RETURNDATASIZE PUSH1 0x0 DUP1 RETURNDATACOPY RETURNDATASIZE PUSH1 0x0 REVERT JUMPDEST POP POP POP POP DUP2 PUSH1 0x1 PUSH1 0x1 PUSH1 0xA0 SHL SUB AND PUSH4 0xEE872558 DUP14 DUP14 DUP8 DUP15 PUSH1 0x40 MLOAD DUP6 PUSH4 0xFFFFFFFF AND PUSH1 0xE0 SHL DUP2 MSTORE PUSH1 0x4 ADD DUP1 DUP6 PUSH1 0x1 PUSH1 0x1 PUSH1 0xA0 SHL SUB AND PUSH1 0x1 PUSH1 0x1 PUSH1 0xA0 SHL SUB AND DUP2 MSTORE PUSH1 0x20 ADD DUP5 DUP2 MSTORE PUSH1 0x20 ADD DUP4 DUP2 MSTORE PUSH1 0x20 ADD DUP1 PUSH1 0x20 ADD DUP3 DUP2 SUB DUP3 MSTORE DUP4 DUP2 DUP2 MLOAD DUP2 MSTORE PUSH1 0x20 ADD SWAP2 POP DUP1 MLOAD SWAP1 PUSH1 0x20 ADD SWAP1 DUP1 DUP4 DUP4 PUSH1 0x0 JUMPDEST DUP4 DUP2 LT ISZERO PUSH2 0x2185 JUMPI DUP2 DUP2 ADD MLOAD DUP4 DUP3 ADD MSTORE PUSH1 0x20 ADD PUSH2 0x216D JUMP JUMPDEST POP POP POP POP SWAP1 POP SWAP1 DUP2 ADD SWAP1 PUSH1 0x1F AND DUP1 ISZERO PUSH2 0x21B2 JUMPI DUP1 DUP3 SUB DUP1 MLOAD PUSH1 0x1 DUP4 PUSH1 0x20 SUB PUSH2 0x100 EXP SUB NOT AND DUP2 MSTORE PUSH1 0x20 ADD SWAP2 POP JUMPDEST POP SWAP6 POP POP POP POP POP POP PUSH1 0x0 PUSH1 0x40 MLOAD DUP1 DUP4 SUB DUP2 PUSH1 0x0 DUP8 DUP1 EXTCODESIZE ISZERO DUP1 ISZERO PUSH2 0x21D4 JUMPI PUSH1 0x0 DUP1 REVERT JUMPDEST POP GAS CALL ISZERO DUP1 ISZERO PUSH2 0x21E8 JUMPI RETURNDATASIZE PUSH1 0x0 DUP1 RETURNDATACOPY RETURNDATASIZE PUSH1 0x0 REVERT JUMPDEST POP POP POP POP PUSH1 0x0 PUSH2 0x21F6 PUSH2 0x40A7 JUMP JUMPDEST PUSH1 0x1 PUSH1 0x1 PUSH1 0xA0 SHL SUB AND DUP14 PUSH1 0x1 PUSH1 0x1 PUSH1 0xA0 SHL SUB AND EQ PUSH2 0x228C JUMPI PUSH1 0x36 SLOAD PUSH1 0x40 DUP1 MLOAD PUSH4 0x70A08231 PUSH1 0xE0 SHL DUP2 MSTORE PUSH1 0x1 PUSH1 0x1 PUSH1 0xA0 SHL SUB SWAP3 DUP4 AND PUSH1 0x4 DUP3 ADD MSTORE SWAP1 MLOAD SWAP2 DUP16 AND SWAP2 PUSH4 0x70A08231 SWAP2 PUSH1 0x24 DUP1 DUP3 ADD SWAP3 PUSH1 0x20 SWAP3 SWAP1 SWAP2 SWAP1 DUP3 SWAP1 SUB ADD DUP2 DUP7 DUP1 EXTCODESIZE ISZERO DUP1 ISZERO PUSH2 0x225B JUMPI PUSH1 0x0 DUP1 REVERT JUMPDEST POP GAS STATICCALL ISZERO DUP1 ISZERO PUSH2 0x226F JUMPI RETURNDATASIZE PUSH1 0x0 DUP1 RETURNDATACOPY RETURNDATASIZE PUSH1 0x0 REVERT JUMPDEST POP POP POP POP PUSH1 0x40 MLOAD RETURNDATASIZE PUSH1 0x20 DUP2 LT ISZERO PUSH2 0x2285 JUMPI PUSH1 0x0 DUP1 REVERT JUMPDEST POP MLOAD PUSH2 0x229A JUMP JUMPDEST PUSH1 0x36 SLOAD PUSH1 0x1 PUSH1 0x1 PUSH1 0xA0 SHL SUB AND BALANCE JUMPDEST SWAP1 POP PUSH2 0x22AC DUP9 DUP7 PUSH4 0xFFFFFFFF PUSH2 0x40BF AND JUMP JUMPDEST DUP2 EQ PUSH2 0x22E9 JUMPI PUSH1 0x40 MLOAD PUSH3 0x461BCD PUSH1 0xE5 SHL DUP2 MSTORE PUSH1 0x4 ADD DUP1 DUP1 PUSH1 0x20 ADD DUP3 DUP2 SUB DUP3 MSTORE PUSH1 0x32 DUP2 MSTORE PUSH1 0x20 ADD DUP1 PUSH2 0x4855 PUSH1 0x32 SWAP2 CODECOPY PUSH1 0x40 ADD SWAP2 POP POP PUSH1 0x40 MLOAD DUP1 SWAP2 SUB SWAP1 REVERT JUMPDEST PUSH1 0x36 SLOAD PUSH1 0x1 PUSH1 0x1 PUSH1 0xA0 SHL SUB AND PUSH4 0x9AC2953 DUP15 DUP11 PUSH2 0x230C DUP10 DUP10 PUSH4 0xFFFFFFFF PUSH2 0x4122 AND JUMP JUMPDEST DUP9 PUSH1 0x40 MLOAD DUP6 PUSH4 0xFFFFFFFF AND PUSH1 0xE0 SHL DUP2 MSTORE PUSH1 0x4 ADD DUP1 DUP6 PUSH1 0x1 PUSH1 0x1 PUSH1 0xA0 SHL SUB AND PUSH1 0x1 PUSH1 0x1 PUSH1 0xA0 SHL SUB AND DUP2 MSTORE PUSH1 0x20 ADD DUP5 DUP2 MSTORE PUSH1 0x20 ADD DUP4 DUP2 MSTORE PUSH1 0x20 ADD DUP3 DUP2 MSTORE PUSH1 0x20 ADD SWAP5 POP POP POP POP POP PUSH1 0x0 PUSH1 0x40 MLOAD DUP1 DUP4 SUB DUP2 PUSH1 0x0 DUP8 DUP1 EXTCODESIZE ISZERO DUP1 ISZERO PUSH2 0x236A JUMPI PUSH1 0x0 DUP1 REVERT JUMPDEST POP GAS CALL ISZERO DUP1 ISZERO PUSH2 0x237E JUMPI RETURNDATASIZE PUSH1 0x0 DUP1 RETURNDATACOPY RETURNDATASIZE PUSH1 0x0 REVERT JUMPDEST POP POP POP POP DUP13 PUSH1 0x1 PUSH1 0x1 PUSH1 0xA0 SHL SUB AND DUP15 PUSH1 0x1 PUSH1 0x1 PUSH1 0xA0 SHL SUB AND PUSH32 0x5B8F46461C1DD69FB968F1A003ACEE221EA3E19540E350233B612DDB43433B55 DUP15 DUP9 DUP9 TIMESTAMP PUSH1 0x40 MLOAD DUP1 DUP6 DUP2 MSTORE PUSH1 0x20 ADD DUP5 DUP2 MSTORE PUSH1 0x20 ADD DUP4 DUP2 MSTORE PUSH1 0x20 ADD DUP3 DUP2 MSTORE PUSH1 0x20 ADD SWAP5 POP POP POP POP POP PUSH1 0x40 MLOAD DUP1 SWAP2 SUB SWAP1 LOG3 POP POP PUSH1 0x1 PUSH1 0x0 SSTORE POP POP POP POP POP POP POP POP POP POP POP POP JUMP JUMPDEST PUSH1 0x2 PUSH1 0x0 SLOAD EQ ISZERO PUSH2 0x2440 JUMPI PUSH1 0x40 DUP1 MLOAD PUSH3 0x461BCD PUSH1 0xE5 SHL DUP2 MSTORE PUSH1 0x20 PUSH1 0x4 DUP3 ADD MSTORE PUSH1 0x1F PUSH1 0x24 DUP3 ADD MSTORE PUSH1 0x0 DUP1 MLOAD PUSH1 0x20 PUSH2 0x464A DUP4 CODECOPY DUP2 MLOAD SWAP2 MSTORE PUSH1 0x44 DUP3 ADD MSTORE SWAP1 MLOAD SWAP1 DUP2 SWAP1 SUB PUSH1 0x64 ADD SWAP1 REVERT JUMPDEST PUSH1 0x2 PUSH1 0x0 SSTORE DUP1 PUSH2 0x244F DUP2 PUSH2 0x3EE6 JUMP JUMPDEST PUSH1 0x36 SLOAD PUSH1 0x40 DUP1 MLOAD PUSH4 0x6F7DAFCB PUSH1 0xE0 SHL DUP2 MSTORE PUSH1 0x1 PUSH1 0x1 PUSH1 0xA0 SHL SUB DUP6 DUP2 AND PUSH1 0x4 DUP4 ADD MSTORE SWAP2 MLOAD SWAP2 SWAP1 SWAP3 AND SWAP2 PUSH4 0x6F7DAFCB SWAP2 PUSH1 0x24 DUP1 DUP4 ADD SWAP3 PUSH1 0x0 SWAP3 SWAP2 SWAP1 DUP3 SWAP1 SUB ADD DUP2 DUP4 DUP8 DUP1 EXTCODESIZE ISZERO DUP1 ISZERO PUSH2 0x249D JUMPI PUSH1 0x0 DUP1 REVERT JUMPDEST POP GAS CALL ISZERO DUP1 ISZERO PUSH2 0x24B1 JUMPI RETURNDATASIZE PUSH1 0x0 DUP1 RETURNDATACOPY RETURNDATASIZE PUSH1 0x0 REVERT JUMPDEST POP POP PUSH1 0x1 PUSH1 0x0 SSTORE POP POP POP POP JUMP JUMPDEST PUSH1 0x35 PUSH1 0x0 SWAP1 SLOAD SWAP1 PUSH2 0x100 EXP SWAP1 DIV PUSH1 0x1 PUSH1 0x1 PUSH1 0xA0 SHL SUB AND PUSH1 0x1 PUSH1 0x1 PUSH1 0xA0 SHL SUB AND PUSH4 0x85C858B1 PUSH1 0x40 MLOAD DUP2 PUSH4 0xFFFFFFFF AND PUSH1 0xE0 SHL DUP2 MSTORE PUSH1 0x4 ADD PUSH1 0x20 PUSH1 0x40 MLOAD DUP1 DUP4 SUB DUP2 DUP7 DUP1 EXTCODESIZE ISZERO DUP1 ISZERO PUSH2 0x250C JUMPI PUSH1 0x0 DUP1 REVERT JUMPDEST POP GAS STATICCALL ISZERO DUP1 ISZERO PUSH2 0x2520 JUMPI RETURNDATASIZE PUSH1 0x0 DUP1 RETURNDATACOPY RETURNDATASIZE PUSH1 0x0 REVERT JUMPDEST POP POP POP POP PUSH1 0x40 MLOAD RETURNDATASIZE PUSH1 0x20 DUP2 LT ISZERO PUSH2 0x2536 JUMPI PUSH1 0x0 DUP1 REVERT JUMPDEST POP MLOAD PUSH1 0x1 PUSH1 0x1 PUSH1 0xA0 SHL SUB AND CALLER EQ PUSH2 0x257E JUMPI PUSH1 0x40 MLOAD PUSH3 0x461BCD PUSH1 0xE5 SHL DUP2 MSTORE PUSH1 0x4 ADD DUP1 DUP1 PUSH1 0x20 ADD DUP3 DUP2 SUB DUP3 MSTORE PUSH1 0x3C DUP2 MSTORE PUSH1 0x20 ADD DUP1 PUSH2 0x4767 PUSH1 0x3C SWAP2 CODECOPY PUSH1 0x40 ADD SWAP2 POP POP PUSH1 0x40 MLOAD DUP1 SWAP2 SUB SWAP1 REVERT JUMPDEST PUSH2 0x2586 PUSH2 0x41FF JUMP JUMPDEST JUMP JUMPDEST PUSH1 0x1 DUP2 JUMP JUMPDEST PUSH1 0x0 DUP1 PUSH1 0x0 DUP1 PUSH1 0x0 DUP1 PUSH1 0x0 DUP1 PUSH1 0x37 PUSH1 0x0 SWAP1 SLOAD SWAP1 PUSH2 0x100 EXP SWAP1 DIV PUSH1 0x1 PUSH1 0x1 PUSH1 0xA0 SHL SUB AND PUSH1 0x1 PUSH1 0x1 PUSH1 0xA0 SHL SUB AND PUSH4 0x90CCD4B7 DUP11 PUSH1 0x40 MLOAD DUP3 PUSH4 0xFFFFFFFF AND PUSH1 0xE0 SHL DUP2 MSTORE PUSH1 0x4 ADD DUP1 DUP3 PUSH1 0x1 PUSH1 0x1 PUSH1 0xA0 SHL SUB AND PUSH1 0x1 PUSH1 0x1 PUSH1 0xA0 SHL SUB AND DUP2 MSTORE PUSH1 0x20 ADD SWAP2 POP POP PUSH2 0x100 PUSH1 0x40 MLOAD DUP1 DUP4 SUB DUP2 DUP7 DUP1 EXTCODESIZE ISZERO DUP1 ISZERO PUSH2 0x2605 JUMPI PUSH1 0x0 DUP1 REVERT JUMPDEST POP GAS STATICCALL ISZERO DUP1 ISZERO PUSH2 0x2619 JUMPI RETURNDATASIZE PUSH1 0x0 DUP1 RETURNDATACOPY RETURNDATASIZE PUSH1 0x0 REVERT JUMPDEST POP POP POP POP PUSH1 0x40 MLOAD RETURNDATASIZE PUSH2 0x100 DUP2 LT ISZERO PUSH2 0x2630 JUMPI PUSH1 0x0 DUP1 REVERT JUMPDEST POP DUP1 MLOAD PUSH1 0x20 DUP3 ADD MLOAD PUSH1 0x40 DUP4 ADD MLOAD PUSH1 0x60 DUP5 ADD MLOAD PUSH1 0x80 DUP6 ADD MLOAD PUSH1 0xA0 DUP7 ADD MLOAD PUSH1 0xC0 DUP8 ADD MLOAD PUSH1 0xE0 SWAP1 SWAP8 ADD MLOAD SWAP6 SWAP15 POP SWAP4 SWAP13 POP SWAP2 SWAP11 POP SWAP9 POP SWAP7 POP SWAP5 POP SWAP1 SWAP3 POP SWAP1 POP SWAP2 SWAP4 SWAP6 SWAP8 POP SWAP2 SWAP4 SWAP6 SWAP8 JUMP JUMPDEST PUSH1 0x2 PUSH1 0x0 SLOAD EQ ISZERO PUSH2 0x26BC JUMPI PUSH1 0x40 DUP1 MLOAD PUSH3 0x461BCD PUSH1 0xE5 SHL DUP2 MSTORE PUSH1 0x20 PUSH1 0x4 DUP3 ADD MSTORE PUSH1 0x1F PUSH1 0x24 DUP3 ADD MSTORE PUSH1 0x0 DUP1 MLOAD PUSH1 0x20 PUSH2 0x464A DUP4 CODECOPY DUP2 MLOAD SWAP2 MSTORE PUSH1 0x44 DUP3 ADD MSTORE SWAP1 MLOAD SWAP1 DUP2 SWAP1 SUB PUSH1 0x64 ADD SWAP1 REVERT JUMPDEST PUSH1 0x2 PUSH1 0x0 SSTORE PUSH1 0x36 SLOAD PUSH1 0x40 DUP1 MLOAD PUSH4 0x557D36F PUSH1 0xE5 SHL DUP2 MSTORE PUSH1 0x1 PUSH1 0x1 PUSH1 0xA0 SHL SUB DUP1 DUP9 AND PUSH1 0x4 DUP4 ADD MSTORE SWAP2 MLOAD DUP8 SWAP4 SWAP3 SWAP1 SWAP3 AND SWAP2 PUSH4 0xAAFA6DE0 SWAP2 PUSH1 0x24 DUP1 DUP3 ADD SWAP3 PUSH1 0x20 SWAP3 SWAP1 SWAP2 SWAP1 DUP3 SWAP1 SUB ADD DUP2 DUP7 DUP1 EXTCODESIZE ISZERO DUP1 ISZERO PUSH2 0x2711 JUMPI PUSH1 0x0 DUP1 REVERT JUMPDEST POP GAS STATICCALL ISZERO DUP1 ISZERO PUSH2 0x2725 JUMPI RETURNDATASIZE PUSH1 0x0 DUP1 RETURNDATACOPY RETURNDATASIZE PUSH1 0x0 REVERT JUMPDEST POP POP POP POP PUSH1 0x40 MLOAD RETURNDATASIZE PUSH1 0x20 DUP2 LT ISZERO PUSH2 0x273B JUMPI PUSH1 0x0 DUP1 REVERT JUMPDEST POP MLOAD PUSH1 0x1 PUSH1 0x1 PUSH1 0xA0 SHL SUB AND CALLER EQ PUSH2 0x2783 JUMPI PUSH1 0x40 MLOAD PUSH3 0x461BCD PUSH1 0xE5 SHL DUP2 MSTORE PUSH1 0x4 ADD DUP1 DUP1 PUSH1 0x20 ADD DUP3 DUP2 SUB DUP3 MSTORE PUSH1 0x4E DUP2 MSTORE PUSH1 0x20 ADD DUP1 PUSH2 0x4AD4 PUSH1 0x4E SWAP2 CODECOPY PUSH1 0x60 ADD SWAP2 POP POP PUSH1 0x40 MLOAD DUP1 SWAP2 SUB SWAP1 REVERT JUMPDEST DUP5 PUSH2 0x278D DUP2 PUSH2 0x3EE6 JUMP JUMPDEST DUP4 PUSH2 0x2797 DUP2 PUSH2 0x4052 JUMP JUMPDEST PUSH1 0x36 SLOAD PUSH1 0x40 DUP1 MLOAD PUSH4 0x4F8AEAE3 PUSH1 0xE1 SHL DUP2 MSTORE PUSH1 0x1 PUSH1 0x1 PUSH1 0xA0 SHL SUB DUP11 DUP2 AND PUSH1 0x4 DUP4 ADD MSTORE SWAP2 MLOAD PUSH1 0x0 SWAP4 SWAP3 SWAP1 SWAP3 AND SWAP2 PUSH4 0x9F15D5C6 SWAP2 PUSH1 0x24 DUP1 DUP3 ADD SWAP3 PUSH1 0x20 SWAP3 SWAP1 SWAP2 SWAP1 DUP3 SWAP1 SUB ADD DUP2 DUP7 DUP1 EXTCODESIZE ISZERO DUP1 ISZERO PUSH2 0x27E8 JUMPI PUSH1 0x0 DUP1 REVERT JUMPDEST POP GAS STATICCALL ISZERO DUP1 ISZERO PUSH2 0x27FC JUMPI RETURNDATASIZE PUSH1 0x0 DUP1 RETURNDATACOPY RETURNDATASIZE PUSH1 0x0 REVERT JUMPDEST POP POP POP POP PUSH1 0x40 MLOAD RETURNDATASIZE PUSH1 0x20 DUP2 LT ISZERO PUSH2 0x2812 JUMPI PUSH1 0x0 DUP1 REVERT JUMPDEST POP MLOAD SWAP1 POP DUP6 DUP2 LT ISZERO PUSH2 0x2855 JUMPI PUSH1 0x40 MLOAD PUSH3 0x461BCD PUSH1 0xE5 SHL DUP2 MSTORE PUSH1 0x4 ADD DUP1 DUP1 PUSH1 0x20 ADD DUP3 DUP2 SUB DUP3 MSTORE PUSH1 0x31 DUP2 MSTORE PUSH1 0x20 ADD DUP1 PUSH2 0x4736 PUSH1 0x31 SWAP2 CODECOPY PUSH1 0x40 ADD SWAP2 POP POP PUSH1 0x40 MLOAD DUP1 SWAP2 SUB SWAP1 REVERT JUMPDEST PUSH1 0x36 SLOAD PUSH1 0x40 DUP1 MLOAD PUSH4 0xAFCDBEA3 PUSH1 0xE0 SHL DUP2 MSTORE PUSH1 0x1 PUSH1 0x1 PUSH1 0xA0 SHL SUB DUP12 DUP2 AND PUSH1 0x4 DUP4 ADD MSTORE DUP11 DUP2 AND PUSH1 0x24 DUP4 ADD MSTORE PUSH1 0x44 DUP3 ADD DUP11 SWAP1 MSTORE DUP9 ISZERO PUSH1 0x64 DUP4 ADD MSTORE SWAP2 MLOAD SWAP2 SWAP1 SWAP3 AND SWAP2 PUSH4 0xAFCDBEA3 SWAP2 PUSH1 0x84 DUP1 DUP4 ADD SWAP3 PUSH1 0x0 SWAP3 SWAP2 SWAP1 DUP3 SWAP1 SUB ADD DUP2 DUP4 DUP8 DUP1 EXTCODESIZE ISZERO DUP1 ISZERO PUSH2 0x28B9 JUMPI PUSH1 0x0 DUP1 REVERT JUMPDEST POP GAS CALL ISZERO DUP1 ISZERO PUSH2 0x28CD JUMPI RETURNDATASIZE PUSH1 0x0 DUP1 RETURNDATACOPY RETURNDATASIZE PUSH1 0x0 REVERT JUMPDEST POP POP PUSH1 0x36 SLOAD PUSH1 0x40 DUP1 MLOAD PUSH4 0xFA93B2A5 PUSH1 0xE0 SHL DUP2 MSTORE PUSH1 0x1 PUSH1 0x1 PUSH1 0xA0 SHL SUB DUP14 DUP2 AND PUSH1 0x4 DUP4 ADD MSTORE DUP13 DUP2 AND PUSH1 0x24 DUP4 ADD MSTORE PUSH1 0x44 DUP3 ADD DUP13 SWAP1 MSTORE SWAP2 MLOAD SWAP2 SWAP1 SWAP3 AND SWAP4 POP PUSH4 0xFA93B2A5 SWAP3 POP PUSH1 0x64 DUP1 DUP4 ADD SWAP3 PUSH1 0x0 SWAP3 SWAP2 SWAP1 DUP3 SWAP1 SUB ADD DUP2 DUP4 DUP8 DUP1 EXTCODESIZE ISZERO DUP1 ISZERO PUSH2 0x292E JUMPI PUSH1 0x0 DUP1 REVERT JUMPDEST POP GAS CALL ISZERO DUP1 ISZERO PUSH2 0x2942 JUMPI RETURNDATASIZE PUSH1 0x0 DUP1 RETURNDATACOPY RETURNDATASIZE PUSH1 0x0 REVERT JUMPDEST POP POP PUSH1 0x40 DUP1 MLOAD DUP10 DUP2 MSTORE TIMESTAMP PUSH1 0x20 DUP3 ADD MSTORE DUP2 MLOAD PUSH1 0x1 PUSH1 0x1 PUSH1 0xA0 SHL SUB DUP1 DUP14 AND SWAP6 POP DUP14 AND SWAP4 POP PUSH32 0x9C4ED599CD8555B9C1E8CD7643240D7D71EB76B792948C49FCB4D411F7B6B3C6 SWAP3 SWAP2 DUP2 SWAP1 SUB SWAP1 SWAP2 ADD SWAP1 LOG3 POP POP PUSH1 0x1 PUSH1 0x0 SSTORE POP POP POP POP POP POP JUMP JUMPDEST PUSH1 0x37 SLOAD PUSH1 0x1 PUSH1 0x1 PUSH1 0xA0 SHL SUB AND DUP2 JUMP JUMPDEST PUSH1 0x0 DUP1 PUSH1 0x0 DUP1 PUSH1 0x0 DUP1 PUSH1 0x0 DUP1 PUSH1 0x37 PUSH1 0x0 SWAP1 SLOAD SWAP1 PUSH2 0x100 EXP SWAP1 DIV PUSH1 0x1 PUSH1 0x1 PUSH1 0xA0 SHL SUB AND PUSH1 0x1 PUSH1 0x1 PUSH1 0xA0 SHL SUB AND PUSH4 0xBF92857C DUP11 PUSH1 0x40 MLOAD DUP3 PUSH4 0xFFFFFFFF AND PUSH1 0xE0 SHL DUP2 MSTORE PUSH1 0x4 ADD DUP1 DUP3 PUSH1 0x1 PUSH1 0x1 PUSH1 0xA0 SHL SUB AND PUSH1 0x1 PUSH1 0x1 PUSH1 0xA0 SHL SUB AND DUP2 MSTORE PUSH1 0x20 ADD SWAP2 POP POP PUSH2 0x100 PUSH1 0x40 MLOAD DUP1 DUP4 SUB DUP2 DUP7 DUP1 EXTCODESIZE ISZERO DUP1 ISZERO PUSH2 0x2605 JUMPI PUSH1 0x0 DUP1 REVERT JUMPDEST PUSH1 0x0 PUSH2 0x2A2F PUSH2 0x4429 JUMP JUMPDEST PUSH1 0x2 SLOAD SWAP1 SWAP2 POP PUSH1 0xFF AND DUP1 PUSH2 0x2A46 JUMPI POP PUSH2 0x2A46 PUSH2 0x442E JUMP JUMPDEST DUP1 PUSH2 0x2A52 JUMPI POP PUSH1 0x1 SLOAD DUP2 GT JUMPDEST PUSH2 0x2A8D JUMPI PUSH1 0x40 MLOAD PUSH3 0x461BCD PUSH1 0xE5 SHL DUP2 MSTORE PUSH1 0x4 ADD DUP1 DUP1 PUSH1 0x20 ADD DUP3 DUP2 SUB DUP3 MSTORE PUSH1 0x2E DUP2 MSTORE PUSH1 0x20 ADD DUP1 PUSH2 0x490E PUSH1 0x2E SWAP2 CODECOPY PUSH1 0x40 ADD SWAP2 POP POP PUSH1 0x40 MLOAD DUP1 SWAP2 SUB SWAP1 REVERT JUMPDEST PUSH1 0x2 SLOAD PUSH1 0xFF AND ISZERO DUP1 ISZERO PUSH2 0x2AAE JUMPI PUSH1 0x2 DUP1 SLOAD PUSH1 0xFF NOT AND PUSH1 0x1 SWAP1 DUP2 OR SWAP1 SWAP2 SSTORE DUP3 SWAP1 SSTORE JUMPDEST PUSH1 0x35 DUP1 SLOAD PUSH1 0x1 PUSH1 0x1 PUSH1 0xA0 SHL SUB NOT AND PUSH1 0x1 PUSH1 0x1 PUSH1 0xA0 SHL SUB DUP6 AND OR SWAP1 SSTORE DUP1 ISZERO PUSH2 0x2ADA JUMPI PUSH1 0x2 DUP1 SLOAD PUSH1 0xFF NOT AND SWAP1 SSTORE JUMPDEST POP POP POP JUMP JUMPDEST PUSH1 0x35 SLOAD PUSH1 0x1 PUSH1 0x1 PUSH1 0xA0 SHL SUB AND DUP2 JUMP JUMPDEST PUSH1 0x2 PUSH1 0x0 SLOAD EQ ISZERO PUSH2 0x2B34 JUMPI PUSH1 0x40 DUP1 MLOAD PUSH3 0x461BCD PUSH1 0xE5 SHL DUP2 MSTORE PUSH1 0x20 PUSH1 0x4 DUP3 ADD MSTORE PUSH1 0x1F PUSH1 0x24 DUP3 ADD MSTORE PUSH1 0x0 DUP1 MLOAD PUSH1 0x20 PUSH2 0x464A DUP4 CODECOPY DUP2 MLOAD SWAP2 MSTORE PUSH1 0x44 DUP3 ADD MSTORE SWAP1 MLOAD SWAP1 DUP2 SWAP1 SUB PUSH1 0x64 ADD SWAP1 REVERT JUMPDEST PUSH1 0x2 PUSH1 0x0 SSTORE DUP4 PUSH2 0x2B43 DUP2 PUSH2 0x3EE6 JUMP JUMPDEST DUP5 PUSH2 0x2B4D DUP2 PUSH2 0x3F9D JUMP JUMPDEST DUP5 PUSH2 0x2B57 DUP2 PUSH2 0x4052 JUMP JUMPDEST PUSH2 0x2B5F PUSH2 0x4582 JUMP JUMPDEST PUSH1 0x36 SLOAD PUSH1 0x40 DUP1 MLOAD PUSH4 0x10183A35 PUSH1 0xE0 SHL DUP2 MSTORE PUSH1 0x1 PUSH1 0x1 PUSH1 0xA0 SHL SUB DUP12 DUP2 AND PUSH1 0x4 DUP4 ADD MSTORE SWAP2 MLOAD SWAP2 SWAP1 SWAP3 AND SWAP2 PUSH4 0x10183A35 SWAP2 PUSH1 0x24 DUP1 DUP4 ADD SWAP3 PUSH1 0x20 SWAP3 SWAP2 SWAP1 DUP3 SWAP1 SUB ADD DUP2 DUP7 DUP1 EXTCODESIZE ISZERO DUP1 ISZERO PUSH2 0x2BAC JUMPI PUSH1 0x0 DUP1 REVERT JUMPDEST POP GAS STATICCALL ISZERO DUP1 ISZERO PUSH2 0x2BC0 JUMPI RETURNDATASIZE PUSH1 0x0 DUP1 RETURNDATACOPY RETURNDATASIZE PUSH1 0x0 REVERT JUMPDEST POP POP POP POP PUSH1 0x40 MLOAD RETURNDATASIZE PUSH1 0x20 DUP2 LT ISZERO PUSH2 0x2BD6 JUMPI PUSH1 0x0 DUP1 REVERT JUMPDEST POP MLOAD PUSH2 0x2C13 JUMPI PUSH1 0x40 MLOAD PUSH3 0x461BCD PUSH1 0xE5 SHL DUP2 MSTORE PUSH1 0x4 ADD DUP1 DUP1 PUSH1 0x20 ADD DUP3 DUP2 SUB DUP3 MSTORE PUSH1 0x27 DUP2 MSTORE PUSH1 0x20 ADD DUP1 PUSH2 0x47A3 PUSH1 0x27 SWAP2 CODECOPY PUSH1 0x40 ADD SWAP2 POP POP PUSH1 0x40 MLOAD DUP1 SWAP2 SUB SWAP1 REVERT JUMPDEST DUP6 PUSH1 0x2 EQ DUP1 PUSH2 0x2C22 JUMPI POP DUP6 PUSH1 0x1 EQ JUMPDEST PUSH2 0x2C5D JUMPI PUSH1 0x40 MLOAD PUSH3 0x461BCD PUSH1 0xE5 SHL DUP2 MSTORE PUSH1 0x4 ADD DUP1 DUP1 PUSH1 0x20 ADD DUP3 DUP2 SUB DUP3 MSTORE PUSH1 0x23 DUP2 MSTORE PUSH1 0x20 ADD DUP1 PUSH2 0x469B PUSH1 0x23 SWAP2 CODECOPY PUSH1 0x40 ADD SWAP2 POP POP PUSH1 0x40 MLOAD DUP1 SWAP2 SUB SWAP1 REVERT JUMPDEST DUP6 PUSH1 0x2 DUP2 GT ISZERO PUSH2 0x2C69 JUMPI INVALID JUMPDEST DUP2 PUSH2 0x1C0 ADD SWAP1 PUSH1 0x2 DUP2 GT ISZERO PUSH2 0x2C7A JUMPI INVALID JUMPDEST SWAP1 DUP2 PUSH1 0x2 DUP2 GT ISZERO PUSH2 0x2C87 JUMPI INVALID JUMPDEST SWAP1 MSTORE POP PUSH1 0x36 SLOAD PUSH1 0x40 DUP1 MLOAD PUSH4 0x4F8AEAE3 PUSH1 0xE1 SHL DUP2 MSTORE PUSH1 0x1 PUSH1 0x1 PUSH1 0xA0 SHL SUB DUP12 DUP2 AND PUSH1 0x4 DUP4 ADD MSTORE SWAP2 MLOAD SWAP2 SWAP1 SWAP3 AND SWAP2 PUSH4 0x9F15D5C6 SWAP2 PUSH1 0x24 DUP1 DUP4 ADD SWAP3 PUSH1 0x20 SWAP3 SWAP2 SWAP1 DUP3 SWAP1 SUB ADD DUP2 DUP7 DUP1 EXTCODESIZE ISZERO DUP1 ISZERO PUSH2 0x2CD7 JUMPI PUSH1 0x0 DUP1 REVERT JUMPDEST POP GAS STATICCALL ISZERO DUP1 ISZERO PUSH2 0x2CEB JUMPI RETURNDATASIZE PUSH1 0x0 DUP1 RETURNDATACOPY RETURNDATASIZE PUSH1 0x0 REVERT JUMPDEST POP POP POP POP PUSH1 0x40 MLOAD RETURNDATASIZE PUSH1 0x20 DUP2 LT ISZERO PUSH2 0x2D01 JUMPI PUSH1 0x0 DUP1 REVERT JUMPDEST POP MLOAD PUSH2 0x160 DUP3 ADD DUP2 SWAP1 MSTORE DUP8 GT ISZERO PUSH2 0x2D49 JUMPI PUSH1 0x40 MLOAD PUSH3 0x461BCD PUSH1 0xE5 SHL DUP2 MSTORE PUSH1 0x4 ADD DUP1 DUP1 PUSH1 0x20 ADD DUP3 DUP2 SUB DUP3 MSTORE PUSH1 0x43 DUP2 MSTORE PUSH1 0x20 ADD DUP1 PUSH2 0x4A91 PUSH1 0x43 SWAP2 CODECOPY PUSH1 0x60 ADD SWAP2 POP POP PUSH1 0x40 MLOAD DUP1 SWAP2 SUB SWAP1 REVERT JUMPDEST PUSH1 0x37 SLOAD PUSH1 0x40 DUP1 MLOAD PUSH4 0x2C6D0E9B PUSH1 0xE0 SHL DUP2 MSTORE CALLER PUSH1 0x4 DUP3 ADD MSTORE SWAP1 MLOAD PUSH1 0x1 PUSH1 0x1 PUSH1 0xA0 SHL SUB SWAP1 SWAP3 AND SWAP2 PUSH4 0x2C6D0E9B SWAP2 PUSH1 0x24 DUP1 DUP3 ADD SWAP3 PUSH2 0x100 SWAP3 SWAP1 SWAP2 SWAP1 DUP3 SWAP1 SUB ADD DUP2 DUP7 DUP1 EXTCODESIZE ISZERO DUP1 ISZERO PUSH2 0x2D95 JUMPI PUSH1 0x0 DUP1 REVERT JUMPDEST POP GAS STATICCALL ISZERO DUP1 ISZERO PUSH2 0x2DA9 JUMPI RETURNDATASIZE PUSH1 0x0 DUP1 RETURNDATACOPY RETURNDATASIZE PUSH1 0x0 REVERT JUMPDEST POP POP POP POP PUSH1 0x40 MLOAD RETURNDATASIZE PUSH2 0x100 DUP2 LT ISZERO PUSH2 0x2DC0 JUMPI PUSH1 0x0 DUP1 REVERT JUMPDEST POP PUSH1 0x20 DUP1 DUP3 ADD MLOAD PUSH1 0x40 DUP1 DUP5 ADD MLOAD PUSH1 0x60 DUP6 ADD MLOAD PUSH1 0x80 DUP7 ADD MLOAD PUSH1 0xA0 DUP8 ADD MLOAD PUSH1 0xE0 SWAP8 DUP9 ADD MLOAD ISZERO ISZERO PUSH2 0x1E0 DUP11 ADD MSTORE SWAP4 DUP9 ADD SWAP4 SWAP1 SWAP4 MSTORE SWAP4 DUP7 ADD SWAP2 SWAP1 SWAP2 MSTORE PUSH2 0x100 DUP6 ADD SWAP3 SWAP1 SWAP3 MSTORE SWAP2 DUP4 ADD MSTORE PUSH1 0xC0 DUP3 ADD DUP2 SWAP1 MSTORE PUSH2 0x2E5D JUMPI PUSH1 0x40 DUP1 MLOAD PUSH3 0x461BCD PUSH1 0xE5 SHL DUP2 MSTORE PUSH1 0x20 PUSH1 0x4 DUP3 ADD MSTORE PUSH1 0x1B PUSH1 0x24 DUP3 ADD MSTORE PUSH32 0x54686520636F6C6C61746572616C2062616C616E636520697320300000000000 PUSH1 0x44 DUP3 ADD MSTORE SWAP1 MLOAD SWAP1 DUP2 SWAP1 SUB PUSH1 0x64 ADD SWAP1 REVERT JUMPDEST DUP1 PUSH2 0x1E0 ADD MLOAD ISZERO PUSH2 0x2E9F JUMPI PUSH1 0x40 MLOAD PUSH3 0x461BCD PUSH1 0xE5 SHL DUP2 MSTORE PUSH1 0x4 ADD DUP1 DUP1 PUSH1 0x20 ADD DUP3 DUP2 SUB DUP3 MSTORE PUSH1 0x3F DUP2 MSTORE PUSH1 0x20 ADD DUP1 PUSH2 0x460B PUSH1 0x3F SWAP2 CODECOPY PUSH1 0x40 ADD SWAP2 POP POP PUSH1 0x40 MLOAD DUP1 SWAP2 SUB SWAP1 REVERT JUMPDEST PUSH1 0x39 SLOAD PUSH1 0x40 DUP1 MLOAD PUSH4 0xE563A7D PUSH1 0xE4 SHL DUP2 MSTORE CALLER PUSH1 0x4 DUP3 ADD MSTORE PUSH1 0x24 DUP2 ADD DUP11 SWAP1 MSTORE SWAP1 MLOAD PUSH1 0x1 PUSH1 0x1 PUSH1 0xA0 SHL SUB SWAP1 SWAP3 AND SWAP2 PUSH4 0xE563A7D0 SWAP2 PUSH1 0x44 DUP1 DUP3 ADD SWAP3 PUSH1 0x20 SWAP3 SWAP1 SWAP2 SWAP1 DUP3 SWAP1 SUB ADD DUP2 DUP7 DUP1 EXTCODESIZE ISZERO DUP1 ISZERO PUSH2 0x2EF1 JUMPI PUSH1 0x0 DUP1 REVERT JUMPDEST POP GAS STATICCALL ISZERO DUP1 ISZERO PUSH2 0x2F05 JUMPI RETURNDATASIZE PUSH1 0x0 DUP1 RETURNDATACOPY RETURNDATASIZE PUSH1 0x0 REVERT JUMPDEST POP POP POP POP PUSH1 0x40 MLOAD RETURNDATASIZE PUSH1 0x20 DUP2 LT ISZERO PUSH2 0x2F1B JUMPI PUSH1 0x0 DUP1 REVERT JUMPDEST POP MLOAD PUSH1 0x60 DUP3 ADD DUP2 SWAP1 MSTORE PUSH2 0x2F5F JUMPI PUSH1 0x40 MLOAD PUSH3 0x461BCD PUSH1 0xE5 SHL DUP2 MSTORE PUSH1 0x4 ADD DUP1 DUP1 PUSH1 0x20 ADD DUP3 DUP2 SUB DUP3 MSTORE PUSH1 0x21 DUP2 MSTORE PUSH1 0x20 ADD DUP1 PUSH2 0x46BE PUSH1 0x21 SWAP2 CODECOPY PUSH1 0x40 ADD SWAP2 POP POP PUSH1 0x40 MLOAD DUP1 SWAP2 SUB SWAP1 REVERT JUMPDEST PUSH1 0x37 PUSH1 0x0 SWAP1 SLOAD SWAP1 PUSH2 0x100 EXP SWAP1 DIV PUSH1 0x1 PUSH1 0x1 PUSH1 0xA0 SHL SUB AND PUSH1 0x1 PUSH1 0x1 PUSH1 0xA0 SHL SUB AND PUSH4 0x12737C33 DUP10 DUP10 DUP5 PUSH1 0x60 ADD MLOAD DUP6 PUSH1 0xE0 ADD MLOAD DUP7 PUSH2 0x100 ADD MLOAD DUP8 PUSH1 0x20 ADD MLOAD PUSH1 0x40 MLOAD DUP8 PUSH4 0xFFFFFFFF AND PUSH1 0xE0 SHL DUP2 MSTORE PUSH1 0x4 ADD DUP1 DUP8 PUSH1 0x1 PUSH1 0x1 PUSH1 0xA0 SHL SUB AND PUSH1 0x1 PUSH1 0x1 PUSH1 0xA0 SHL SUB AND DUP2 MSTORE PUSH1 0x20 ADD DUP7 DUP2 MSTORE PUSH1 0x20 ADD DUP6 DUP2 MSTORE PUSH1 0x20 ADD DUP5 DUP2 MSTORE PUSH1 0x20 ADD DUP4 DUP2 MSTORE PUSH1 0x20 ADD DUP3 DUP2 MSTORE PUSH1 0x20 ADD SWAP7 POP POP POP POP POP POP POP PUSH1 0x20 PUSH1 0x40 MLOAD DUP1 DUP4 SUB DUP2 DUP7 DUP1 EXTCODESIZE ISZERO DUP1 ISZERO PUSH2 0x3003 JUMPI PUSH1 0x0 DUP1 REVERT JUMPDEST POP GAS STATICCALL ISZERO DUP1 ISZERO PUSH2 0x3017 JUMPI RETURNDATASIZE PUSH1 0x0 DUP1 RETURNDATACOPY RETURNDATASIZE PUSH1 0x0 REVERT JUMPDEST POP POP POP POP PUSH1 0x40 MLOAD RETURNDATASIZE PUSH1 0x20 DUP2 LT ISZERO PUSH2 0x302D JUMPI PUSH1 0x0 DUP1 REVERT JUMPDEST POP MLOAD PUSH1 0xA0 DUP3 ADD DUP2 SWAP1 MSTORE PUSH1 0xC0 DUP3 ADD MLOAD LT ISZERO PUSH2 0x3078 JUMPI PUSH1 0x40 MLOAD PUSH3 0x461BCD PUSH1 0xE5 SHL DUP2 MSTORE PUSH1 0x4 ADD DUP1 DUP1 PUSH1 0x20 ADD DUP3 DUP2 SUB DUP3 MSTORE PUSH1 0x34 DUP2 MSTORE PUSH1 0x20 ADD DUP1 PUSH2 0x4887 PUSH1 0x34 SWAP2 CODECOPY PUSH1 0x40 ADD SWAP2 POP POP PUSH1 0x40 MLOAD DUP1 SWAP2 SUB SWAP1 REVERT JUMPDEST PUSH1 0x1 DUP2 PUSH2 0x1C0 ADD MLOAD PUSH1 0x2 DUP2 GT ISZERO PUSH2 0x308B JUMPI INVALID JUMPDEST EQ ISZERO PUSH2 0x322A JUMPI PUSH1 0x36 SLOAD PUSH1 0x40 DUP1 MLOAD PUSH4 0x710BA6C3 PUSH1 0xE1 SHL DUP2 MSTORE PUSH1 0x1 PUSH1 0x1 PUSH1 0xA0 SHL SUB DUP12 DUP2 AND PUSH1 0x4 DUP4 ADD MSTORE CALLER PUSH1 0x24 DUP4 ADD MSTORE PUSH1 0x44 DUP3 ADD DUP12 SWAP1 MSTORE SWAP2 MLOAD SWAP2 SWAP1 SWAP3 AND SWAP2 PUSH4 0xE2174D86 SWAP2 PUSH1 0x64 DUP1 DUP4 ADD SWAP3 PUSH1 0x20 SWAP3 SWAP2 SWAP1 DUP3 SWAP1 SUB ADD DUP2 DUP7 DUP1 EXTCODESIZE ISZERO DUP1 ISZERO PUSH2 0x30EB JUMPI PUSH1 0x0 DUP1 REVERT JUMPDEST POP GAS STATICCALL ISZERO DUP1 ISZERO PUSH2 0x30FF JUMPI RETURNDATASIZE PUSH1 0x0 DUP1 RETURNDATACOPY RETURNDATASIZE PUSH1 0x0 REVERT JUMPDEST POP POP POP POP PUSH1 0x40 MLOAD RETURNDATASIZE PUSH1 0x20 DUP2 LT ISZERO PUSH2 0x3115 JUMPI PUSH1 0x0 DUP1 REVERT JUMPDEST POP MLOAD PUSH2 0x3152 JUMPI PUSH1 0x40 MLOAD PUSH3 0x461BCD PUSH1 0xE5 SHL DUP2 MSTORE PUSH1 0x4 ADD DUP1 DUP1 PUSH1 0x20 ADD DUP3 DUP2 SUB DUP3 MSTORE PUSH1 0x39 DUP2 MSTORE PUSH1 0x20 ADD DUP1 PUSH2 0x493C PUSH1 0x39 SWAP2 CODECOPY PUSH1 0x40 ADD SWAP2 POP POP PUSH1 0x40 MLOAD DUP1 SWAP2 SUB SWAP1 REVERT JUMPDEST PUSH1 0x38 SLOAD PUSH1 0x40 DUP1 MLOAD PUSH4 0x35ADC96B PUSH1 0xE2 SHL DUP2 MSTORE SWAP1 MLOAD PUSH1 0x0 SWAP3 PUSH1 0x1 PUSH1 0x1 PUSH1 0xA0 SHL SUB AND SWAP2 PUSH4 0xD6B725AC SWAP2 PUSH1 0x4 DUP1 DUP4 ADD SWAP3 PUSH1 0x20 SWAP3 SWAP2 SWAP1 DUP3 SWAP1 SUB ADD DUP2 DUP7 DUP1 EXTCODESIZE ISZERO DUP1 ISZERO PUSH2 0x3197 JUMPI PUSH1 0x0 DUP1 REVERT JUMPDEST POP GAS STATICCALL ISZERO DUP1 ISZERO PUSH2 0x31AB JUMPI RETURNDATASIZE PUSH1 0x0 DUP1 RETURNDATACOPY RETURNDATASIZE PUSH1 0x0 REVERT JUMPDEST POP POP POP POP PUSH1 0x40 MLOAD RETURNDATASIZE PUSH1 0x20 DUP2 LT ISZERO PUSH2 0x31C1 JUMPI PUSH1 0x0 DUP1 REVERT JUMPDEST POP MLOAD PUSH2 0x160 DUP4 ADD MLOAD SWAP1 SWAP2 POP PUSH1 0x0 SWAP1 PUSH2 0x31E6 SWAP1 PUSH1 0x64 SWAP1 PUSH2 0x2019 SWAP1 DUP6 PUSH4 0xFFFFFFFF PUSH2 0x4164 AND JUMP JUMPDEST SWAP1 POP DUP1 DUP10 GT ISZERO PUSH2 0x3227 JUMPI PUSH1 0x40 MLOAD PUSH3 0x461BCD PUSH1 0xE5 SHL DUP2 MSTORE PUSH1 0x4 ADD DUP1 DUP1 PUSH1 0x20 ADD DUP3 DUP2 SUB DUP3 MSTORE PUSH1 0x3C DUP2 MSTORE PUSH1 0x20 ADD DUP1 PUSH2 0x499F PUSH1 0x3C SWAP2 CODECOPY PUSH1 0x40 ADD SWAP2 POP POP PUSH1 0x40 MLOAD DUP1 SWAP2 SUB SWAP1 REVERT JUMPDEST POP POP JUMPDEST PUSH1 0x36 SLOAD PUSH1 0x60 DUP3 ADD MLOAD PUSH2 0x1C0 DUP4 ADD MLOAD PUSH1 0x40 MLOAD PUSH4 0xDEB1BF9 PUSH1 0xE2 SHL DUP2 MSTORE PUSH1 0x1 PUSH1 0x1 PUSH1 0xA0 SHL SUB DUP13 DUP2 AND PUSH1 0x4 DUP4 ADD SWAP1 DUP2 MSTORE CALLER PUSH1 0x24 DUP5 ADD DUP2 SWAP1 MSTORE PUSH1 0x44 DUP5 ADD DUP15 SWAP1 MSTORE PUSH1 0x64 DUP5 ADD DUP7 SWAP1 MSTORE SWAP2 SWAP1 SWAP6 AND SWAP5 PUSH4 0x37AC6FE4 SWAP5 DUP15 SWAP5 SWAP3 SWAP4 DUP15 SWAP4 SWAP2 SWAP3 SWAP1 PUSH1 0x84 ADD DUP3 PUSH1 0x2 DUP2 GT ISZERO PUSH2 0x3290 JUMPI INVALID JUMPDEST PUSH1 0xFF AND DUP2 MSTORE PUSH1 0x20 ADD SWAP6 POP POP POP POP POP POP PUSH1 0x40 DUP1 MLOAD DUP1 DUP4 SUB DUP2 PUSH1 0x0 DUP8 DUP1 EXTCODESIZE ISZERO DUP1 ISZERO PUSH2 0x32B8 JUMPI PUSH1 0x0 DUP1 REVERT JUMPDEST POP GAS CALL ISZERO DUP1 ISZERO PUSH2 0x32CC JUMPI RETURNDATASIZE PUSH1 0x0 DUP1 RETURNDATACOPY RETURNDATASIZE PUSH1 0x0 REVERT JUMPDEST POP POP POP POP PUSH1 0x40 MLOAD RETURNDATASIZE PUSH1 0x40 DUP2 LT ISZERO PUSH2 0x32E2 JUMPI PUSH1 0x0 DUP1 REVERT JUMPDEST POP DUP1 MLOAD PUSH1 0x20 SWAP1 SWAP2 ADD MLOAD PUSH2 0x120 DUP4 ADD MSTORE PUSH2 0x1A0 DUP3 ADD MSTORE PUSH1 0x36 SLOAD PUSH1 0x40 DUP1 MLOAD PUSH4 0xFA93B2A5 PUSH1 0xE0 SHL DUP2 MSTORE PUSH1 0x1 PUSH1 0x1 PUSH1 0xA0 SHL SUB DUP12 DUP2 AND PUSH1 0x4 DUP4 ADD MSTORE CALLER PUSH1 0x24 DUP4 ADD MSTORE PUSH1 0x44 DUP3 ADD DUP12 SWAP1 MSTORE SWAP2 MLOAD SWAP2 SWAP1 SWAP3 AND SWAP2 PUSH4 0xFA93B2A5 SWAP2 PUSH1 0x64 DUP1 DUP4 ADD SWAP3 PUSH1 0x0 SWAP3 SWAP2 SWAP1 DUP3 SWAP1 SUB ADD DUP2 DUP4 DUP8 DUP1 EXTCODESIZE ISZERO DUP1 ISZERO PUSH2 0x3352 JUMPI PUSH1 0x0 DUP1 REVERT JUMPDEST POP GAS CALL ISZERO DUP1 ISZERO PUSH2 0x3366 JUMPI RETURNDATASIZE PUSH1 0x0 DUP1 RETURNDATACOPY RETURNDATASIZE PUSH1 0x0 REVERT JUMPDEST POP POP POP PUSH2 0x1A0 DUP3 ADD MLOAD PUSH1 0x60 DUP1 DUP5 ADD MLOAD PUSH2 0x120 DUP6 ADD MLOAD PUSH1 0x40 DUP1 MLOAD DUP14 DUP2 MSTORE PUSH1 0x20 DUP2 ADD DUP14 SWAP1 MSTORE DUP1 DUP3 ADD SWAP6 SWAP1 SWAP6 MSTORE SWAP3 DUP5 ADD SWAP2 SWAP1 SWAP2 MSTORE PUSH1 0x80 DUP4 ADD MSTORE PUSH2 0xFFFF DUP9 AND PUSH1 0xA0 DUP4 ADD MSTORE TIMESTAMP PUSH1 0xC0 DUP4 ADD MSTORE MLOAD CALLER SWAP3 POP PUSH1 0x1 PUSH1 0x1 PUSH1 0xA0 SHL SUB DUP12 AND SWAP2 PUSH32 0x1E77446728E5558AA1B7E81E0CDAB9CC1B075BA893B740600C76A315C2CAA553 SWAP2 SWAP1 DUP2 SWAP1 SUB PUSH1 0xE0 ADD SWAP1 LOG3 POP POP PUSH1 0x1 PUSH1 0x0 SSTORE POP POP POP POP POP POP JUMP JUMPDEST PUSH1 0x2 PUSH1 0x0 SLOAD EQ ISZERO PUSH2 0x343B JUMPI PUSH1 0x40 DUP1 MLOAD PUSH3 0x461BCD PUSH1 0xE5 SHL DUP2 MSTORE PUSH1 0x20 PUSH1 0x4 DUP3 ADD MSTORE PUSH1 0x1F PUSH1 0x24 DUP3 ADD MSTORE PUSH1 0x0 DUP1 MLOAD PUSH1 0x20 PUSH2 0x464A DUP4 CODECOPY DUP2 MLOAD SWAP2 MSTORE PUSH1 0x44 DUP3 ADD MSTORE SWAP1 MLOAD SWAP1 DUP2 SWAP1 SUB PUSH1 0x64 ADD SWAP1 REVERT JUMPDEST PUSH1 0x2 PUSH1 0x0 SSTORE DUP2 PUSH2 0x344A DUP2 PUSH2 0x3EE6 JUMP JUMPDEST PUSH1 0x36 SLOAD PUSH1 0x40 DUP1 MLOAD PUSH4 0x9FB8AFCD PUSH1 0xE0 SHL DUP2 MSTORE PUSH1 0x1 PUSH1 0x1 PUSH1 0xA0 SHL SUB DUP7 DUP2 AND PUSH1 0x4 DUP4 ADD MSTORE DUP6 DUP2 AND PUSH1 0x24 DUP4 ADD MSTORE SWAP2 MLOAD PUSH1 0x0 SWAP4 DUP5 SWAP4 AND SWAP2 PUSH4 0x9FB8AFCD SWAP2 PUSH1 0x44 DUP1 DUP4 ADD SWAP3 PUSH1 0x60 SWAP3 SWAP2 SWAP1 DUP3 SWAP1 SUB ADD DUP2 DUP7 DUP1 EXTCODESIZE ISZERO DUP1 ISZERO PUSH2 0x34A1 JUMPI PUSH1 0x0 DUP1 REVERT JUMPDEST POP GAS STATICCALL ISZERO DUP1 ISZERO PUSH2 0x34B5 JUMPI RETURNDATASIZE PUSH1 0x0 DUP1 RETURNDATACOPY RETURNDATASIZE PUSH1 0x0 REVERT JUMPDEST POP POP POP POP PUSH1 0x40 MLOAD RETURNDATASIZE PUSH1 0x60 DUP2 LT ISZERO PUSH2 0x34CB JUMPI PUSH1 0x0 DUP1 REVERT JUMPDEST POP PUSH1 0x20 DUP2 ADD MLOAD PUSH1 0x40 SWAP1 SWAP2 ADD MLOAD SWAP1 SWAP3 POP SWAP1 POP DUP2 PUSH2 0x3518 JUMPI PUSH1 0x40 MLOAD PUSH3 0x461BCD PUSH1 0xE5 SHL DUP2 MSTORE PUSH1 0x4 ADD DUP1 DUP1 PUSH1 0x20 ADD DUP3 DUP2 SUB DUP3 MSTORE PUSH1 0x31 DUP2 MSTORE PUSH1 0x20 ADD DUP1 PUSH2 0x4A37 PUSH1 0x31 SWAP2 CODECOPY PUSH1 0x40 ADD SWAP2 POP POP PUSH1 0x40 MLOAD DUP1 SWAP2 SUB SWAP1 REVERT JUMPDEST PUSH1 0x1 PUSH1 0x36 SLOAD PUSH1 0x40 DUP1 MLOAD PUSH4 0x1CA19F19 PUSH1 0xE0 SHL DUP2 MSTORE PUSH1 0x1 PUSH1 0x1 PUSH1 0xA0 SHL SUB DUP10 DUP2 AND PUSH1 0x4 DUP4 ADD MSTORE DUP9 DUP2 AND PUSH1 0x24 DUP4 ADD MSTORE SWAP2 MLOAD SWAP2 SWAP1 SWAP3 AND SWAP2 PUSH4 0x1CA19F19 SWAP2 PUSH1 0x44 DUP1 DUP4 ADD SWAP3 PUSH1 0x20 SWAP3 SWAP2 SWAP1 DUP3 SWAP1 SUB ADD DUP2 DUP7 DUP1 EXTCODESIZE ISZERO DUP1 ISZERO PUSH2 0x356F JUMPI PUSH1 0x0 DUP1 REVERT JUMPDEST POP GAS STATICCALL ISZERO DUP1 ISZERO PUSH2 0x3583 JUMPI RETURNDATASIZE PUSH1 0x0 DUP1 RETURNDATACOPY RETURNDATASIZE PUSH1 0x0 REVERT JUMPDEST POP POP POP POP PUSH1 0x40 MLOAD RETURNDATASIZE PUSH1 0x20 DUP2 LT ISZERO PUSH2 0x3599 JUMPI PUSH1 0x0 DUP1 REVERT JUMPDEST POP MLOAD PUSH1 0x2 DUP2 GT ISZERO PUSH2 0x35A6 JUMPI INVALID JUMPDEST EQ PUSH2 0x35E2 JUMPI PUSH1 0x40 MLOAD PUSH3 0x461BCD PUSH1 0xE5 SHL DUP2 MSTORE PUSH1 0x4 ADD DUP1 DUP1 PUSH1 0x20 ADD DUP3 DUP2 SUB DUP3 MSTORE PUSH1 0x34 DUP2 MSTORE PUSH1 0x20 ADD DUP1 PUSH2 0x47CA PUSH1 0x34 SWAP2 CODECOPY PUSH1 0x40 ADD SWAP2 POP POP PUSH1 0x40 MLOAD DUP1 SWAP2 SUB SWAP1 REVERT JUMPDEST PUSH1 0x36 SLOAD PUSH1 0x40 DUP1 MLOAD PUSH4 0x1BFFEAC3 PUSH1 0xE2 SHL DUP2 MSTORE PUSH1 0x1 PUSH1 0x1 PUSH1 0xA0 SHL SUB DUP9 DUP2 AND PUSH1 0x4 DUP4 ADD MSTORE DUP8 DUP2 AND PUSH1 0x24 DUP4 ADD MSTORE SWAP2 MLOAD PUSH1 0x0 SWAP4 SWAP3 SWAP1 SWAP3 AND SWAP2 PUSH4 0x6FFFAB0C SWAP2 PUSH1 0x44 DUP1 DUP3 ADD SWAP3 PUSH1 0x20 SWAP3 SWAP1 SWAP2 SWAP1 DUP3 SWAP1 SUB ADD DUP2 DUP7 DUP1 EXTCODESIZE ISZERO DUP1 ISZERO PUSH2 0x363B JUMPI PUSH1 0x0 DUP1 REVERT JUMPDEST POP GAS STATICCALL ISZERO DUP1 ISZERO PUSH2 0x364F JUMPI RETURNDATASIZE PUSH1 0x0 DUP1 RETURNDATACOPY RETURNDATASIZE PUSH1 0x0 REVERT JUMPDEST POP POP POP POP PUSH1 0x40 MLOAD RETURNDATASIZE PUSH1 0x20 DUP2 LT ISZERO PUSH2 0x3665 JUMPI PUSH1 0x0 DUP1 REVERT JUMPDEST POP MLOAD PUSH1 0x36 SLOAD PUSH1 0x40 DUP1 MLOAD PUSH4 0x1E01AC33 PUSH1 0xE1 SHL DUP2 MSTORE PUSH1 0x1 PUSH1 0x1 PUSH1 0xA0 SHL SUB DUP11 DUP2 AND PUSH1 0x4 DUP4 ADD MSTORE SWAP2 MLOAD SWAP4 SWAP5 POP PUSH1 0x0 SWAP4 SWAP2 SWAP1 SWAP3 AND SWAP2 PUSH4 0x3C035866 SWAP2 PUSH1 0x24 DUP1 DUP4 ADD SWAP3 PUSH1 0x20 SWAP3 SWAP2 SWAP1 DUP3 SWAP1 SUB ADD DUP2 DUP7 DUP1 EXTCODESIZE ISZERO DUP1 ISZERO PUSH2 0x36BA JUMPI PUSH1 0x0 DUP1 REVERT JUMPDEST POP GAS STATICCALL ISZERO DUP1 ISZERO PUSH2 0x36CE JUMPI RETURNDATASIZE PUSH1 0x0 DUP1 RETURNDATACOPY RETURNDATASIZE PUSH1 0x0 REVERT JUMPDEST POP POP POP POP PUSH1 0x40 MLOAD RETURNDATASIZE PUSH1 0x20 DUP2 LT ISZERO PUSH2 0x36E4 JUMPI PUSH1 0x0 DUP1 REVERT JUMPDEST POP MLOAD PUSH1 0x36 SLOAD PUSH1 0x40 DUP1 MLOAD PUSH4 0x5751D83F PUSH1 0xE1 SHL DUP2 MSTORE PUSH1 0x1 PUSH1 0x1 PUSH1 0xA0 SHL SUB DUP12 DUP2 AND PUSH1 0x4 DUP4 ADD MSTORE SWAP2 MLOAD SWAP4 SWAP5 POP PUSH1 0x0 SWAP4 SWAP2 SWAP1 SWAP3 AND SWAP2 PUSH4 0xAEA3B07E SWAP2 PUSH1 0x24 DUP1 DUP4 ADD SWAP3 PUSH1 0x20 SWAP3 SWAP2 SWAP1 DUP3 SWAP1 SUB ADD DUP2 DUP7 DUP1 EXTCODESIZE ISZERO DUP1 ISZERO PUSH2 0x3739 JUMPI PUSH1 0x0 DUP1 REVERT JUMPDEST POP GAS STATICCALL ISZERO DUP1 ISZERO PUSH2 0x374D JUMPI RETURNDATASIZE PUSH1 0x0 DUP1 RETURNDATACOPY RETURNDATASIZE PUSH1 0x0 REVERT JUMPDEST POP POP POP POP PUSH1 0x40 MLOAD RETURNDATASIZE PUSH1 0x20 DUP2 LT ISZERO PUSH2 0x3763 JUMPI PUSH1 0x0 DUP1 REVERT JUMPDEST POP MLOAD PUSH1 0x38 SLOAD PUSH1 0x40 DUP1 MLOAD PUSH4 0x46F4F8D1 PUSH1 0xE0 SHL DUP2 MSTORE SWAP1 MLOAD SWAP3 SWAP4 POP PUSH1 0x0 SWAP3 PUSH2 0x3805 SWAP3 PUSH2 0x37F8 SWAP3 PUSH1 0x1 PUSH1 0x1 PUSH1 0xA0 SHL SUB SWAP1 SWAP2 AND SWAP2 PUSH4 0x46F4F8D1 SWAP2 PUSH1 0x4 DUP1 DUP3 ADD SWAP3 PUSH1 0x20 SWAP3 SWAP1 SWAP2 SWAP1 DUP3 SWAP1 SUB ADD DUP2 DUP7 DUP1 EXTCODESIZE ISZERO DUP1 ISZERO PUSH2 0x37B8 JUMPI PUSH1 0x0 DUP1 REVERT JUMPDEST POP GAS STATICCALL ISZERO DUP1 ISZERO PUSH2 0x37CC JUMPI RETURNDATASIZE PUSH1 0x0 DUP1 RETURNDATACOPY RETURNDATASIZE PUSH1 0x0 REVERT JUMPDEST POP POP POP POP PUSH1 0x40 MLOAD RETURNDATASIZE PUSH1 0x20 DUP2 LT ISZERO PUSH2 0x37E2 JUMPI PUSH1 0x0 DUP1 REVERT JUMPDEST POP MLOAD PUSH2 0x37EC PUSH2 0x4434 JUMP JUMPDEST SWAP1 PUSH4 0xFFFFFFFF PUSH2 0x40BF AND JUMP JUMPDEST DUP4 SWAP1 PUSH4 0xFFFFFFFF PUSH2 0x4444 AND JUMP JUMPDEST SWAP1 POP DUP3 DUP5 LT DUP1 PUSH2 0x3814 JUMPI POP DUP1 DUP5 GT JUMPDEST ISZERO PUSH2 0x3905 JUMPI PUSH1 0x36 SLOAD PUSH1 0x40 DUP1 MLOAD PUSH4 0xAF825B07 PUSH1 0xE0 SHL DUP2 MSTORE PUSH1 0x1 PUSH1 0x1 PUSH1 0xA0 SHL SUB DUP13 DUP2 AND PUSH1 0x4 DUP4 ADD MSTORE DUP12 DUP2 AND PUSH1 0x24 DUP4 ADD MSTORE PUSH1 0x44 DUP3 ADD DUP10 SWAP1 MSTORE SWAP2 MLOAD PUSH1 0x0 SWAP4 SWAP3 SWAP1 SWAP3 AND SWAP2 PUSH4 0xAF825B07 SWAP2 PUSH1 0x64 DUP1 DUP3 ADD SWAP3 PUSH1 0x20 SWAP3 SWAP1 SWAP2 SWAP1 DUP3 SWAP1 SUB ADD DUP2 DUP8 DUP8 DUP1 EXTCODESIZE ISZERO DUP1 ISZERO PUSH2 0x387A JUMPI PUSH1 0x0 DUP1 REVERT JUMPDEST POP GAS CALL ISZERO DUP1 ISZERO PUSH2 0x388E JUMPI RETURNDATASIZE PUSH1 0x0 DUP1 RETURNDATACOPY RETURNDATASIZE PUSH1 0x0 REVERT JUMPDEST POP POP POP POP PUSH1 0x40 MLOAD RETURNDATASIZE PUSH1 0x20 DUP2 LT ISZERO PUSH2 0x38A4 JUMPI PUSH1 0x0 DUP1 REVERT JUMPDEST POP MLOAD PUSH1 0x40 DUP1 MLOAD DUP3 DUP2 MSTORE PUSH1 0x20 DUP2 ADD DUP10 SWAP1 MSTORE TIMESTAMP DUP2 DUP4 ADD MSTORE SWAP1 MLOAD SWAP2 SWAP3 POP PUSH1 0x1 PUSH1 0x1 PUSH1 0xA0 SHL SUB DUP1 DUP13 AND SWAP3 SWAP1 DUP14 AND SWAP2 PUSH32 0x5050AD184862424EE0852D1838D355AD65BED1E5E6DA67AC9A2DAC1922677F60 SWAP2 SWAP1 DUP2 SWAP1 SUB PUSH1 0x60 ADD SWAP1 LOG3 POP POP POP POP POP POP POP PUSH2 0x393C JUMP JUMPDEST PUSH1 0x40 MLOAD PUSH3 0x461BCD PUSH1 0xE5 SHL DUP2 MSTORE PUSH1 0x4 ADD DUP1 DUP1 PUSH1 0x20 ADD DUP3 DUP2 SUB DUP3 MSTORE PUSH1 0x2F DUP2 MSTORE PUSH1 0x20 ADD DUP1 PUSH2 0x4826 PUSH1 0x2F SWAP2 CODECOPY PUSH1 0x40 ADD SWAP2 POP POP PUSH1 0x40 MLOAD DUP1 SWAP2 SUB SWAP1 REVERT JUMPDEST POP POP PUSH1 0x1 PUSH1 0x0 SSTORE POP JUMP JUMPDEST PUSH1 0x0 NOT DUP2 JUMP JUMPDEST PUSH1 0x2 PUSH1 0x0 SLOAD EQ ISZERO PUSH2 0x3992 JUMPI PUSH1 0x40 DUP1 MLOAD PUSH3 0x461BCD PUSH1 0xE5 SHL DUP2 MSTORE PUSH1 0x20 PUSH1 0x4 DUP3 ADD MSTORE PUSH1 0x1F PUSH1 0x24 DUP3 ADD MSTORE PUSH1 0x0 DUP1 MLOAD PUSH1 0x20 PUSH2 0x464A DUP4 CODECOPY DUP2 MLOAD SWAP2 MSTORE PUSH1 0x44 DUP3 ADD MSTORE SWAP1 MLOAD SWAP1 DUP2 SWAP1 SUB PUSH1 0x64 ADD SWAP1 REVERT JUMPDEST PUSH1 0x2 PUSH1 0x0 SSTORE DUP3 PUSH2 0x39A1 DUP2 PUSH2 0x3EE6 JUMP JUMPDEST DUP4 PUSH2 0x39AB DUP2 PUSH2 0x3F9D JUMP JUMPDEST DUP4 PUSH2 0x39B5 DUP2 PUSH2 0x4052 JUMP JUMPDEST PUSH1 0x36 SLOAD PUSH1 0x40 DUP1 MLOAD PUSH4 0x557D36F PUSH1 0xE5 SHL DUP2 MSTORE PUSH1 0x1 PUSH1 0x1 PUSH1 0xA0 SHL SUB DUP10 DUP2 AND PUSH1 0x4 DUP4 ADD MSTORE SWAP2 MLOAD PUSH1 0x0 SWAP4 SWAP3 SWAP1 SWAP3 AND SWAP2 PUSH4 0xAAFA6DE0 SWAP2 PUSH1 0x24 DUP1 DUP3 ADD SWAP3 PUSH1 0x20 SWAP3 SWAP1 SWAP2 SWAP1 DUP3 SWAP1 SUB ADD DUP2 DUP7 DUP1 EXTCODESIZE ISZERO DUP1 ISZERO PUSH2 0x3A06 JUMPI PUSH1 0x0 DUP1 REVERT JUMPDEST POP GAS STATICCALL ISZERO DUP1 ISZERO PUSH2 0x3A1A JUMPI RETURNDATASIZE PUSH1 0x0 DUP1 RETURNDATACOPY RETURNDATASIZE PUSH1 0x0 REVERT JUMPDEST POP POP POP POP PUSH1 0x40 MLOAD RETURNDATASIZE PUSH1 0x20 DUP2 LT ISZERO PUSH2 0x3A30 JUMPI PUSH1 0x0 DUP1 REVERT JUMPDEST POP MLOAD PUSH1 0x40 DUP1 MLOAD PUSH4 0x70A08231 PUSH1 0xE0 SHL DUP2 MSTORE CALLER PUSH1 0x4 DUP3 ADD MSTORE SWAP1 MLOAD SWAP2 SWAP3 POP PUSH1 0x0 SWAP2 PUSH1 0x1 PUSH1 0x1 PUSH1 0xA0 SHL SUB DUP5 AND SWAP2 PUSH4 0x70A08231 SWAP2 PUSH1 0x24 DUP1 DUP4 ADD SWAP3 PUSH1 0x20 SWAP3 SWAP2 SWAP1 DUP3 SWAP1 SUB ADD DUP2 DUP7 DUP1 EXTCODESIZE ISZERO DUP1 ISZERO PUSH2 0x3A7E JUMPI PUSH1 0x0 DUP1 REVERT JUMPDEST POP GAS STATICCALL ISZERO DUP1 ISZERO PUSH2 0x3A92 JUMPI RETURNDATASIZE PUSH1 0x0 DUP1 RETURNDATACOPY RETURNDATASIZE PUSH1 0x0 REVERT JUMPDEST POP POP POP POP PUSH1 0x40 MLOAD RETURNDATASIZE PUSH1 0x20 DUP2 LT ISZERO PUSH2 0x3AA8 JUMPI PUSH1 0x0 DUP1 REVERT JUMPDEST POP MLOAD ISZERO SWAP1 POP PUSH1 0x0 PUSH1 0x1 PUSH1 0x1 PUSH1 0xA0 SHL SUB DUP10 AND PUSH2 0x3AC1 PUSH2 0x40A7 JUMP JUMPDEST PUSH1 0x39 SLOAD PUSH1 0x40 DUP1 MLOAD PUSH4 0x8D8A49AD PUSH1 0xE0 SHL DUP2 MSTORE CALLER PUSH1 0x4 DUP3 ADD MSTORE PUSH1 0x24 DUP2 ADD DUP14 SWAP1 MSTORE SWAP1 MLOAD PUSH1 0x1 PUSH1 0x1 PUSH1 0xA0 SHL SUB SWAP4 DUP5 AND SWAP5 SWAP1 SWAP5 EQ SWAP5 POP PUSH1 0x0 SWAP4 SWAP2 SWAP1 SWAP3 AND SWAP2 PUSH4 0x8D8A49AD SWAP2 PUSH1 0x44 DUP1 DUP4 ADD SWAP3 PUSH1 0x20 SWAP3 SWAP2 SWAP1 DUP3 SWAP1 SUB ADD DUP2 DUP7 DUP1 EXTCODESIZE ISZERO DUP1 ISZERO PUSH2 0x3B1F JUMPI PUSH1 0x0 DUP1 REVERT JUMPDEST POP GAS STATICCALL ISZERO DUP1 ISZERO PUSH2 0x3B33 JUMPI RETURNDATASIZE PUSH1 0x0 DUP1 RETURNDATACOPY RETURNDATASIZE PUSH1 0x0 REVERT JUMPDEST POP POP POP POP PUSH1 0x40 MLOAD RETURNDATASIZE PUSH1 0x20 DUP2 LT ISZERO PUSH2 0x3B49 JUMPI PUSH1 0x0 DUP1 REVERT JUMPDEST POP MLOAD SWAP1 POP DUP1 PUSH2 0x3B89 JUMPI PUSH1 0x40 MLOAD PUSH3 0x461BCD PUSH1 0xE5 SHL DUP2 MSTORE PUSH1 0x4 ADD DUP1 DUP1 PUSH1 0x20 ADD DUP3 DUP2 SUB DUP3 MSTORE PUSH1 0x22 DUP2 MSTORE PUSH1 0x20 ADD DUP1 PUSH2 0x49DB PUSH1 0x22 SWAP2 CODECOPY PUSH1 0x40 ADD SWAP2 POP POP PUSH1 0x40 MLOAD DUP1 SWAP2 SUB SWAP1 REVERT JUMPDEST PUSH1 0x36 SLOAD PUSH1 0x1 PUSH1 0x1 PUSH1 0xA0 SHL SUB AND PUSH4 0xC7D14237 DUP4 PUSH2 0x3BA6 JUMPI PUSH1 0x0 PUSH2 0x3BA8 JUMP JUMPDEST DUP3 JUMPDEST DUP13 CALLER DUP6 PUSH1 0x35 PUSH1 0x0 SWAP1 SLOAD SWAP1 PUSH2 0x100 EXP SWAP1 DIV PUSH1 0x1 PUSH1 0x1 PUSH1 0xA0 SHL SUB AND PUSH1 0x1 PUSH1 0x1 PUSH1 0xA0 SHL SUB AND PUSH4 0x145D02F0 PUSH1 0x40 MLOAD DUP2 PUSH4 0xFFFFFFFF AND PUSH1 0xE0 SHL DUP2 MSTORE PUSH1 0x4 ADD PUSH1 0x20 PUSH1 0x40 MLOAD DUP1 DUP4 SUB DUP2 DUP7 DUP1 EXTCODESIZE ISZERO DUP1 ISZERO PUSH2 0x3BF9 JUMPI PUSH1 0x0 DUP1 REVERT JUMPDEST POP GAS STATICCALL ISZERO DUP1 ISZERO PUSH2 0x3C0D JUMPI RETURNDATASIZE PUSH1 0x0 DUP1 RETURNDATACOPY RETURNDATASIZE PUSH1 0x0 REVERT JUMPDEST POP POP POP POP PUSH1 0x40 MLOAD RETURNDATASIZE PUSH1 0x20 DUP2 LT ISZERO PUSH2 0x3C23 JUMPI PUSH1 0x0 DUP1 REVERT JUMPDEST POP MLOAD PUSH1 0x40 DUP1 MLOAD PUSH1 0x1 PUSH1 0x1 PUSH1 0xE0 SHL SUB NOT PUSH1 0xE0 DUP10 SWAP1 SHL AND DUP2 MSTORE PUSH1 0x1 PUSH1 0x1 PUSH1 0xA0 SHL SUB SWAP6 DUP7 AND PUSH1 0x4 DUP3 ADD MSTORE SWAP4 DUP6 AND PUSH1 0x24 DUP6 ADD MSTORE PUSH1 0x44 DUP5 ADD SWAP3 SWAP1 SWAP3 MSTORE SWAP3 SWAP1 SWAP3 AND PUSH1 0x64 DUP3 ADD MSTORE SWAP1 MLOAD PUSH1 0x84 DUP1 DUP4 ADD SWAP3 PUSH1 0x0 SWAP3 SWAP2 SWAP1 DUP3 SWAP1 SUB ADD DUP2 DUP6 DUP9 DUP1 EXTCODESIZE ISZERO DUP1 ISZERO PUSH2 0x3C85 JUMPI PUSH1 0x0 DUP1 REVERT JUMPDEST POP GAS CALL ISZERO DUP1 ISZERO PUSH2 0x3C99 JUMPI RETURNDATASIZE PUSH1 0x0 DUP1 RETURNDATACOPY RETURNDATASIZE PUSH1 0x0 REVERT JUMPDEST POP POP PUSH1 0x36 SLOAD PUSH1 0x1 PUSH1 0x1 PUSH1 0xA0 SHL SUB AND SWAP3 POP PUSH4 0xBCD6FFA4 SWAP2 POP DUP13 SWAP1 POP CALLER PUSH2 0x3CC4 DUP14 DUP7 PUSH4 0xFFFFFFFF PUSH2 0x4122 AND JUMP JUMPDEST PUSH1 0x40 DUP1 MLOAD PUSH1 0x1 PUSH1 0x1 PUSH1 0xE0 SHL SUB NOT PUSH1 0xE0 DUP8 SWAP1 SHL AND DUP2 MSTORE PUSH1 0x1 PUSH1 0x1 PUSH1 0xA0 SHL SUB SWAP5 DUP6 AND PUSH1 0x4 DUP3 ADD MSTORE SWAP3 SWAP1 SWAP4 AND PUSH1 0x24 DUP4 ADD MSTORE PUSH1 0x44 DUP3 ADD MSTORE DUP7 ISZERO ISZERO PUSH1 0x64 DUP3 ADD MSTORE SWAP1 MLOAD PUSH1 0x84 DUP1 DUP4 ADD SWAP3 PUSH1 0x0 SWAP3 SWAP2 SWAP1 DUP3 SWAP1 SUB ADD DUP2 DUP4 DUP8 DUP1 EXTCODESIZE ISZERO DUP1 ISZERO PUSH2 0x3D21 JUMPI PUSH1 0x0 DUP1 REVERT JUMPDEST POP GAS CALL ISZERO DUP1 ISZERO PUSH2 0x3D35 JUMPI RETURNDATASIZE PUSH1 0x0 DUP1 RETURNDATACOPY RETURNDATASIZE PUSH1 0x0 REVERT JUMPDEST POP POP POP PUSH1 0x1 PUSH1 0x1 PUSH1 0xA0 SHL SUB DUP6 AND SWAP1 POP PUSH4 0x94362E8B CALLER PUSH2 0x3D54 DUP13 DUP6 PUSH2 0x4122 JUMP JUMPDEST PUSH1 0x40 MLOAD DUP4 PUSH4 0xFFFFFFFF AND PUSH1 0xE0 SHL DUP2 MSTORE PUSH1 0x4 ADD DUP1 DUP4 PUSH1 0x1 PUSH1 0x1 PUSH1 0xA0 SHL SUB AND PUSH1 0x1 PUSH1 0x1 PUSH1 0xA0 SHL SUB AND DUP2 MSTORE PUSH1 0x20 ADD DUP3 DUP2 MSTORE PUSH1 0x20 ADD SWAP3 POP POP POP PUSH1 0x0 PUSH1 0x40 MLOAD DUP1 DUP4 SUB DUP2 PUSH1 0x0 DUP8 DUP1 EXTCODESIZE ISZERO DUP1 ISZERO PUSH2 0x3DA3 JUMPI PUSH1 0x0 DUP1 REVERT JUMPDEST POP GAS CALL ISZERO DUP1 ISZERO PUSH2 0x3DB7 JUMPI RETURNDATASIZE PUSH1 0x0 DUP1 RETURNDATACOPY RETURNDATASIZE PUSH1 0x0 REVERT JUMPDEST POP POP PUSH1 0x36 SLOAD PUSH1 0x1 PUSH1 0x1 PUSH1 0xA0 SHL SUB AND SWAP2 POP PUSH4 0x28FCF4D3 SWAP1 POP CALLVALUE DUP13 CALLER PUSH2 0x3DE1 DUP15 DUP8 PUSH4 0xFFFFFFFF PUSH2 0x4122 AND JUMP JUMPDEST PUSH1 0x40 MLOAD DUP6 PUSH4 0xFFFFFFFF AND PUSH1 0xE0 SHL DUP2 MSTORE PUSH1 0x4 ADD DUP1 DUP5 PUSH1 0x1 PUSH1 0x1 PUSH1 0xA0 SHL SUB AND PUSH1 0x1 PUSH1 0x1 PUSH1 0xA0 SHL SUB AND DUP2 MSTORE PUSH1 0x20 ADD DUP4 PUSH1 0x1 PUSH1 0x1 PUSH1 0xA0 SHL SUB AND PUSH1 0x1 PUSH1 0x1 PUSH1 0xA0 SHL SUB AND DUP2 MSTORE PUSH1 0x20 ADD DUP3 DUP2 MSTORE PUSH1 0x20 ADD SWAP4 POP POP POP POP PUSH1 0x0 PUSH1 0x40 MLOAD DUP1 DUP4 SUB DUP2 DUP6 DUP9 DUP1 EXTCODESIZE ISZERO DUP1 ISZERO PUSH2 0x3E48 JUMPI PUSH1 0x0 DUP1 REVERT JUMPDEST POP GAS CALL ISZERO DUP1 ISZERO PUSH2 0x3E5C JUMPI RETURNDATASIZE PUSH1 0x0 DUP1 RETURNDATACOPY RETURNDATASIZE PUSH1 0x0 REVERT JUMPDEST POP CALLER SWAP4 POP POP POP PUSH1 0x1 PUSH1 0x1 PUSH1 0xA0 SHL SUB DUP13 AND SWAP1 POP PUSH32 0x9402B532DC7B55C0756AC7964A2376B45D3D1327AA5F98A2BA9E08A02CE136E PUSH2 0x3E9F DUP13 DUP6 PUSH4 0xFFFFFFFF PUSH2 0x4122 AND JUMP JUMPDEST PUSH1 0x40 DUP1 MLOAD SWAP2 DUP3 MSTORE PUSH1 0x20 DUP3 ADD DUP7 SWAP1 MSTORE PUSH2 0xFFFF DUP14 AND DUP3 DUP3 ADD MSTORE TIMESTAMP PUSH1 0x60 DUP4 ADD MSTORE MLOAD SWAP1 DUP2 SWAP1 SUB PUSH1 0x80 ADD SWAP1 LOG3 POP POP PUSH1 0x1 PUSH1 0x0 SSTORE POP POP POP POP POP POP POP POP JUMP JUMPDEST PUSH1 0x36 SLOAD PUSH1 0x1 PUSH1 0x1 PUSH1 0xA0 SHL SUB AND DUP2 JUMP JUMPDEST PUSH1 0x36 SLOAD PUSH1 0x40 DUP1 MLOAD PUSH4 0x138374A7 PUSH1 0xE1 SHL DUP2 MSTORE PUSH1 0x1 PUSH1 0x1 PUSH1 0xA0 SHL SUB DUP5 DUP2 AND PUSH1 0x4 DUP4 ADD MSTORE SWAP2 MLOAD SWAP2 SWAP1 SWAP3 AND SWAP2 PUSH4 0x2706E94E SWAP2 PUSH1 0x24 DUP1 DUP4 ADD SWAP3 PUSH1 0x20 SWAP3 SWAP2 SWAP1 DUP3 SWAP1 SUB ADD DUP2 DUP7 DUP1 EXTCODESIZE ISZERO DUP1 ISZERO PUSH2 0x3F33 JUMPI PUSH1 0x0 DUP1 REVERT JUMPDEST POP GAS STATICCALL ISZERO DUP1 ISZERO PUSH2 0x3F47 JUMPI RETURNDATASIZE PUSH1 0x0 DUP1 RETURNDATACOPY RETURNDATASIZE PUSH1 0x0 REVERT JUMPDEST POP POP POP POP PUSH1 0x40 MLOAD RETURNDATASIZE PUSH1 0x20 DUP2 LT ISZERO PUSH2 0x3F5D JUMPI PUSH1 0x0 DUP1 REVERT JUMPDEST POP MLOAD PUSH2 0x3F9A JUMPI PUSH1 0x40 MLOAD PUSH3 0x461BCD PUSH1 0xE5 SHL DUP2 MSTORE PUSH1 0x4 ADD DUP1 DUP1 PUSH1 0x20 ADD DUP3 DUP2 SUB DUP3 MSTORE PUSH1 0x24 DUP2 MSTORE PUSH1 0x20 ADD DUP1 PUSH2 0x4B96 PUSH1 0x24 SWAP2 CODECOPY PUSH1 0x40 ADD SWAP2 POP POP PUSH1 0x40 MLOAD DUP1 SWAP2 SUB SWAP1 REVERT JUMPDEST POP JUMP JUMPDEST PUSH1 0x36 SLOAD PUSH1 0x40 DUP1 MLOAD PUSH4 0x22ECE8F1 PUSH1 0xE2 SHL DUP2 MSTORE PUSH1 0x1 PUSH1 0x1 PUSH1 0xA0 SHL SUB DUP5 DUP2 AND PUSH1 0x4 DUP4 ADD MSTORE SWAP2 MLOAD SWAP2 SWAP1 SWAP3 AND SWAP2 PUSH4 0x8BB3A3C4 SWAP2 PUSH1 0x24 DUP1 DUP4 ADD SWAP3 PUSH1 0x20 SWAP3 SWAP2 SWAP1 DUP3 SWAP1 SUB ADD DUP2 DUP7 DUP1 EXTCODESIZE ISZERO DUP1 ISZERO PUSH2 0x3FEA JUMPI PUSH1 0x0 DUP1 REVERT JUMPDEST POP GAS STATICCALL ISZERO DUP1 ISZERO PUSH2 0x3FFE JUMPI RETURNDATASIZE PUSH1 0x0 DUP1 RETURNDATACOPY RETURNDATASIZE PUSH1 0x0 REVERT JUMPDEST POP POP POP POP PUSH1 0x40 MLOAD RETURNDATASIZE PUSH1 0x20 DUP2 LT ISZERO PUSH2 0x4014 JUMPI PUSH1 0x0 DUP1 REVERT JUMPDEST POP MLOAD ISZERO PUSH2 0x3F9A JUMPI PUSH1 0x40 MLOAD PUSH3 0x461BCD PUSH1 0xE5 SHL DUP2 MSTORE PUSH1 0x4 ADD DUP1 DUP1 PUSH1 0x20 ADD DUP3 DUP2 SUB DUP3 MSTORE PUSH1 0x27 DUP2 MSTORE PUSH1 0x20 ADD DUP1 PUSH2 0x470F PUSH1 0x27 SWAP2 CODECOPY PUSH1 0x40 ADD SWAP2 POP POP PUSH1 0x40 MLOAD DUP1 SWAP2 SUB SWAP1 REVERT JUMPDEST PUSH1 0x0 DUP2 GT PUSH2 0x3F9A JUMPI PUSH1 0x40 DUP1 MLOAD PUSH3 0x461BCD PUSH1 0xE5 SHL DUP2 MSTORE PUSH1 0x20 PUSH1 0x4 DUP3 ADD MSTORE PUSH1 0x1D PUSH1 0x24 DUP3 ADD MSTORE PUSH32 0x416D6F756E74206D7573742062652067726561746572207468616E2030000000 PUSH1 0x44 DUP3 ADD MSTORE SWAP1 MLOAD SWAP1 DUP2 SWAP1 SUB PUSH1 0x64 ADD SWAP1 REVERT JUMPDEST PUSH20 0xEEEEEEEEEEEEEEEEEEEEEEEEEEEEEEEEEEEEEEEE SWAP1 JUMP JUMPDEST PUSH1 0x0 DUP3 DUP3 ADD DUP4 DUP2 LT ISZERO PUSH2 0x4119 JUMPI PUSH1 0x40 DUP1 MLOAD PUSH3 0x461BCD PUSH1 0xE5 SHL DUP2 MSTORE PUSH1 0x20 PUSH1 0x4 DUP3 ADD MSTORE PUSH1 0x1B PUSH1 0x24 DUP3 ADD MSTORE PUSH32 0x536166654D6174683A206164646974696F6E206F766572666C6F770000000000 PUSH1 0x44 DUP3 ADD MSTORE SWAP1 MLOAD SWAP1 DUP2 SWAP1 SUB PUSH1 0x64 ADD SWAP1 REVERT JUMPDEST SWAP1 POP JUMPDEST SWAP3 SWAP2 POP POP JUMP JUMPDEST PUSH1 0x0 PUSH2 0x4119 DUP4 DUP4 PUSH1 0x40 MLOAD DUP1 PUSH1 0x40 ADD PUSH1 0x40 MSTORE DUP1 PUSH1 0x1E DUP2 MSTORE PUSH1 0x20 ADD PUSH32 0x536166654D6174683A207375627472616374696F6E206F766572666C6F770000 DUP2 MSTORE POP PUSH2 0x447C JUMP JUMPDEST PUSH1 0x0 DUP3 PUSH2 0x4173 JUMPI POP PUSH1 0x0 PUSH2 0x411C JUMP JUMPDEST DUP3 DUP3 MUL DUP3 DUP5 DUP3 DUP2 PUSH2 0x4180 JUMPI INVALID JUMPDEST DIV EQ PUSH2 0x4119 JUMPI PUSH1 0x40 MLOAD PUSH3 0x461BCD PUSH1 0xE5 SHL DUP2 MSTORE PUSH1 0x4 ADD DUP1 DUP1 PUSH1 0x20 ADD DUP3 DUP2 SUB DUP3 MSTORE PUSH1 0x21 DUP2 MSTORE PUSH1 0x20 ADD DUP1 PUSH2 0x48BB PUSH1 0x21 SWAP2 CODECOPY PUSH1 0x40 ADD SWAP2 POP POP PUSH1 0x40 MLOAD DUP1 SWAP2 SUB SWAP1 REVERT JUMPDEST PUSH1 0x0 PUSH2 0x4119 DUP4 DUP4 PUSH1 0x40 MLOAD DUP1 PUSH1 0x40 ADD PUSH1 0x40 MSTORE DUP1 PUSH1 0x1A DUP2 MSTORE PUSH1 0x20 ADD PUSH32 0x536166654D6174683A206469766973696F6E206279207A65726F000000000000 DUP2 MSTORE POP PUSH2 0x44D6 JUMP JUMPDEST PUSH1 0x35 PUSH1 0x0 SWAP1 SLOAD SWAP1 PUSH2 0x100 EXP SWAP1 DIV PUSH1 0x1 PUSH1 0x1 PUSH1 0xA0 SHL SUB AND PUSH1 0x1 PUSH1 0x1 PUSH1 0xA0 SHL SUB AND PUSH4 0xED6FF760 PUSH1 0x40 MLOAD DUP2 PUSH4 0xFFFFFFFF AND PUSH1 0xE0 SHL DUP2 MSTORE PUSH1 0x4 ADD PUSH1 0x20 PUSH1 0x40 MLOAD DUP1 DUP4 SUB DUP2 DUP7 DUP1 EXTCODESIZE ISZERO DUP1 ISZERO PUSH2 0x424D JUMPI PUSH1 0x0 DUP1 REVERT JUMPDEST POP GAS STATICCALL ISZERO DUP1 ISZERO PUSH2 0x4261 JUMPI RETURNDATASIZE PUSH1 0x0 DUP1 RETURNDATACOPY RETURNDATASIZE PUSH1 0x0 REVERT JUMPDEST POP POP POP POP PUSH1 0x40 MLOAD RETURNDATASIZE PUSH1 0x20 DUP2 LT ISZERO PUSH2 0x4277 JUMPI PUSH1 0x0 DUP1 REVERT JUMPDEST POP MLOAD PUSH1 0x36 DUP1 SLOAD PUSH1 0x1 PUSH1 0x1 PUSH1 0xA0 SHL SUB NOT AND PUSH1 0x1 PUSH1 0x1 PUSH1 0xA0 SHL SUB SWAP3 DUP4 AND OR SWAP1 SSTORE PUSH1 0x35 SLOAD PUSH1 0x40 DUP1 MLOAD PUSH4 0x2F58B80D PUSH1 0xE0 SHL DUP2 MSTORE SWAP1 MLOAD SWAP2 SWAP1 SWAP3 AND SWAP2 PUSH4 0x2F58B80D SWAP2 PUSH1 0x4 DUP1 DUP4 ADD SWAP3 PUSH1 0x20 SWAP3 SWAP2 SWAP1 DUP3 SWAP1 SUB ADD DUP2 DUP7 DUP1 EXTCODESIZE ISZERO DUP1 ISZERO PUSH2 0x42D2 JUMPI PUSH1 0x0 DUP1 REVERT JUMPDEST POP GAS STATICCALL ISZERO DUP1 ISZERO PUSH2 0x42E6 JUMPI RETURNDATASIZE PUSH1 0x0 DUP1 RETURNDATACOPY RETURNDATASIZE PUSH1 0x0 REVERT JUMPDEST POP POP POP POP PUSH1 0x40 MLOAD RETURNDATASIZE PUSH1 0x20 DUP2 LT ISZERO PUSH2 0x42FC JUMPI PUSH1 0x0 DUP1 REVERT JUMPDEST POP MLOAD PUSH1 0x37 DUP1 SLOAD PUSH1 0x1 PUSH1 0x1 PUSH1 0xA0 SHL SUB NOT AND PUSH1 0x1 PUSH1 0x1 PUSH1 0xA0 SHL SUB SWAP3 DUP4 AND OR SWAP1 SSTORE PUSH1 0x35 SLOAD PUSH1 0x40 DUP1 MLOAD PUSH4 0x2030EC7 PUSH1 0xE1 SHL DUP2 MSTORE SWAP1 MLOAD SWAP2 SWAP1 SWAP3 AND SWAP2 PUSH4 0x4061D8E SWAP2 PUSH1 0x4 DUP1 DUP4 ADD SWAP3 PUSH1 0x20 SWAP3 SWAP2 SWAP1 DUP3 SWAP1 SUB ADD DUP2 DUP7 DUP1 EXTCODESIZE ISZERO DUP1 ISZERO PUSH2 0x4357 JUMPI PUSH1 0x0 DUP1 REVERT JUMPDEST POP GAS STATICCALL ISZERO DUP1 ISZERO PUSH2 0x436B JUMPI RETURNDATASIZE PUSH1 0x0 DUP1 RETURNDATACOPY RETURNDATASIZE PUSH1 0x0 REVERT JUMPDEST POP POP POP POP PUSH1 0x40 MLOAD RETURNDATASIZE PUSH1 0x20 DUP2 LT ISZERO PUSH2 0x4381 JUMPI PUSH1 0x0 DUP1 REVERT JUMPDEST POP MLOAD PUSH1 0x38 DUP1 SLOAD PUSH1 0x1 PUSH1 0x1 PUSH1 0xA0 SHL SUB NOT AND PUSH1 0x1 PUSH1 0x1 PUSH1 0xA0 SHL SUB SWAP3 DUP4 AND OR SWAP1 SSTORE PUSH1 0x35 SLOAD PUSH1 0x40 DUP1 MLOAD PUSH4 0x3EFBBF0F PUSH1 0xE2 SHL DUP2 MSTORE SWAP1 MLOAD SWAP2 SWAP1 SWAP3 AND SWAP2 PUSH4 0xFBEEFC3C SWAP2 PUSH1 0x4 DUP1 DUP4 ADD SWAP3 PUSH1 0x20 SWAP3 SWAP2 SWAP1 DUP3 SWAP1 SUB ADD DUP2 DUP7 DUP1 EXTCODESIZE ISZERO DUP1 ISZERO PUSH2 0x43DC JUMPI PUSH1 0x0 DUP1 REVERT JUMPDEST POP GAS STATICCALL ISZERO DUP1 ISZERO PUSH2 0x43F0 JUMPI RETURNDATASIZE PUSH1 0x0 DUP1 RETURNDATACOPY RETURNDATASIZE PUSH1 0x0 REVERT JUMPDEST POP POP POP POP PUSH1 0x40 MLOAD RETURNDATASIZE PUSH1 0x20 DUP2 LT ISZERO PUSH2 0x4406 JUMPI PUSH1 0x0 DUP1 REVERT JUMPDEST POP MLOAD PUSH1 0x39 DUP1 SLOAD PUSH1 0x1 PUSH1 0x1 PUSH1 0xA0 SHL SUB NOT AND PUSH1 0x1 PUSH1 0x1 PUSH1 0xA0 SHL SUB SWAP1 SWAP3 AND SWAP2 SWAP1 SWAP2 OR SWAP1 SSTORE JUMP JUMPDEST PUSH1 0x1 SWAP1 JUMP JUMPDEST ADDRESS EXTCODESIZE ISZERO SWAP1 JUMP JUMPDEST PUSH12 0x33B2E3C9FD0803CE8000000 SWAP1 JUMP JUMPDEST PUSH1 0x0 PUSH2 0x4119 PUSH12 0x33B2E3C9FD0803CE8000000 PUSH2 0x2019 PUSH2 0x4469 DUP7 DUP7 PUSH4 0xFFFFFFFF PUSH2 0x4164 AND JUMP JUMPDEST PUSH12 0x19D971E4FE8401E74000000 SWAP1 PUSH2 0x40BF JUMP JUMPDEST PUSH1 0x0 DUP2 DUP5 DUP5 GT ISZERO PUSH2 0x44CE JUMPI PUSH1 0x40 MLOAD PUSH3 0x461BCD PUSH1 0xE5 SHL DUP2 MSTORE PUSH1 0x20 PUSH1 0x4 DUP3 ADD DUP2 DUP2 MSTORE DUP4 MLOAD PUSH1 0x24 DUP5 ADD MSTORE DUP4 MLOAD SWAP1 SWAP3 DUP4 SWAP3 PUSH1 0x44 SWAP1 SWAP2 ADD SWAP2 SWAP1 DUP6 ADD SWAP1 DUP1 DUP4 DUP4 PUSH1 0x0 DUP4 ISZERO PUSH2 0xBA2 JUMPI DUP2 DUP2 ADD MLOAD DUP4 DUP3 ADD MSTORE PUSH1 0x20 ADD PUSH2 0xB8A JUMP JUMPDEST POP POP POP SWAP1 SUB SWAP1 JUMP JUMPDEST PUSH1 0x0 DUP2 DUP4 PUSH2 0x4525 JUMPI PUSH1 0x40 MLOAD PUSH3 0x461BCD PUSH1 0xE5 SHL DUP2 MSTORE PUSH1 0x20 PUSH1 0x4 DUP3 ADD DUP2 DUP2 MSTORE DUP4 MLOAD PUSH1 0x24 DUP5 ADD MSTORE DUP4 MLOAD SWAP1 SWAP3 DUP4 SWAP3 PUSH1 0x44 SWAP1 SWAP2 ADD SWAP2 SWAP1 DUP6 ADD SWAP1 DUP1 DUP4 DUP4 PUSH1 0x0 DUP4 ISZERO PUSH2 0xBA2 JUMPI DUP2 DUP2 ADD MLOAD DUP4 DUP3 ADD MSTORE PUSH1 0x20 ADD PUSH2 0xB8A JUMP JUMPDEST POP PUSH1 0x0 DUP4 DUP6 DUP2 PUSH2 0x4531 JUMPI INVALID JUMPDEST DIV SWAP6 SWAP5 POP POP POP POP POP JUMP JUMPDEST PUSH1 0x40 MLOAD DUP1 PUSH2 0x100 ADD PUSH1 0x40 MSTORE DUP1 PUSH1 0x0 DUP2 MSTORE PUSH1 0x20 ADD PUSH1 0x0 DUP2 MSTORE PUSH1 0x20 ADD PUSH1 0x0 DUP2 MSTORE PUSH1 0x20 ADD PUSH1 0x0 ISZERO ISZERO DUP2 MSTORE PUSH1 0x20 ADD PUSH1 0x0 DUP2 MSTORE PUSH1 0x20 ADD PUSH1 0x0 DUP2 MSTORE PUSH1 0x20 ADD PUSH1 0x0 DUP2 MSTORE PUSH1 0x20 ADD PUSH1 0x0 DUP2 MSTORE POP SWAP1 JUMP JUMPDEST PUSH1 0x40 MLOAD DUP1 PUSH2 0x200 ADD PUSH1 0x40 MSTORE DUP1 PUSH1 0x0 DUP2 MSTORE PUSH1 0x20 ADD PUSH1 0x0 DUP2 MSTORE PUSH1 0x20 ADD PUSH1 0x0 DUP2 MSTORE PUSH1 0x20 ADD PUSH1 0x0 DUP2 MSTORE PUSH1 0x20 ADD PUSH1 0x0 DUP2 MSTORE PUSH1 0x20 ADD PUSH1 0x0 DUP2 MSTORE PUSH1 0x20 ADD PUSH1 0x0 DUP2 MSTORE PUSH1 0x20 ADD PUSH1 0x0 DUP2 MSTORE PUSH1 0x20 ADD PUSH1 0x0 DUP2 MSTORE PUSH1 0x20 ADD PUSH1 0x0 DUP2 MSTORE PUSH1 0x20 ADD PUSH1 0x0 DUP2 MSTORE PUSH1 0x20 ADD PUSH1 0x0 DUP2 MSTORE PUSH1 0x20 ADD PUSH1 0x0 DUP2 MSTORE PUSH1 0x20 ADD PUSH1 0x0 DUP2 MSTORE PUSH1 0x20 ADD PUSH1 0x0 PUSH1 0x2 DUP2 GT ISZERO PUSH2 0x45FD JUMPI INVALID JUMPDEST DUP2 MSTORE PUSH1 0x0 PUSH1 0x20 SWAP1 SWAP2 ADD MSTORE SWAP1 JUMP INVALID SLOAD PUSH9 0x6520626F72726F7765 PUSH19 0x2063616E20616C7265616479206265206C6971 PUSH22 0x69646174656420736F2068652063616E6E6F7420626F PUSH19 0x726F77206D6F72655265656E7472616E637947 PUSH22 0x6172643A207265656E7472616E742063616C6C005468 PUSH6 0x726520697320 PUSH15 0x6F7420656E6F756768206C69717569 PUSH5 0x6974792061 PUSH23 0x61696C61626C6520746F20626F72726F77496E76616C69 PUSH5 0x20696E7465 PUSH19 0x6573742072617465206D6F64652073656C6563 PUSH21 0x656454686520616D6F756E7420746F20626F72726F PUSH24 0x20697320746F6F20736D616C6C55736572206465706F7369 PUSH21 0x20697320616C7265616479206265696E6720757365 PUSH5 0x2061732063 PUSH16 0x6C6C61746572616C416374696F6E2072 PUSH6 0x717569726573 KECCAK256 PUSH2 0x6E20 PUSH22 0x6E667265657A656420696E737472756D656E74546865 PUSH19 0x65206973206E6F7420656E6F756768206C6971 PUSH22 0x696469747920617661696C61626C6520746F20726564 PUSH6 0x656D4F6E6C79 KECCAK256 0x4C PUSH6 0x6E64696E6720 POP PUSH16 0x6F6C20436F6E666967757261746F7220 PUSH4 0x616E2072 PUSH6 0x667265736820 PUSH21 0x686520636F6E66696775726174696F6E496E737472 PUSH22 0x6D656E74206973206E6F7420656E61626C656420666F PUSH19 0x20626F72726F77696E67546865207573657220 PUSH3 0x6F7272 PUSH16 0x77206973207661726961626C6520616E PUSH5 0x2063616E6E PUSH16 0x7420626520726562616C616E63656449 PUSH15 0x76616C6964206D73672E76616C7565 KECCAK256 PUSH20 0x656E7420666F72207468652072657061796D656E PUSH21 0x496E746572657374207261746520726562616C616E PUSH4 0x6520636F PUSH15 0x646974696F6E732077657265206E6F PUSH21 0x206D65745468652061637475616C2062616C616E63 PUSH6 0x206F66207468 PUSH6 0x2070726F746F PUSH4 0x6F6C2069 PUSH20 0x20696E636F6E73697374656E7454686572652069 PUSH20 0x206E6F7420656E6F75676820636F6C6C61746572 PUSH2 0x6C20 PUSH21 0x6F20636F7665722061206E657720626F72726F7753 PUSH2 0x6665 0x4D PUSH2 0x7468 GASPRICE KECCAK256 PUSH14 0x756C7469706C69636174696F6E20 PUSH16 0x766572666C6F77546865207265717565 PUSH20 0x74656420616D6F756E7420697320746F6F20736D PUSH2 0x6C6C KECCAK256 PUSH7 0x6F72206120666C PUSH2 0x7368 0x4C PUSH16 0x616E2E436F6E747261637420696E7374 PUSH2 0x6E63 PUSH6 0x206861732061 PUSH13 0x7265616479206265656E20696E PUSH10 0x7469616C697A65645573 PUSH6 0x722063616E6E PUSH16 0x7420626F72726F77207468652073656C PUSH6 0x637465642061 PUSH14 0x6F756E7420776974682061207374 PUSH2 0x626C PUSH6 0x207261746555 PUSH20 0x657220646F6573206E6F74206861766520616E79 KECCAK256 PUSH13 0x6971756964697479206465706F PUSH20 0x697465645573657220697320747279696E672074 PUSH16 0x20626F72726F7720746F6F206D756368 KECCAK256 PUSH13 0x69717569646974792061742061 KECCAK256 PUSH20 0x7461626C65207261746554686520616D6F756E74 KECCAK256 PUSH21 0x6F206465706F73697420697320746F6F20736D616C PUSH13 0x5573657220646F6573206E6F74 KECCAK256 PUSH9 0x617665206120626F72 PUSH19 0x6F7720696E2070726F6772657373206F6E2074 PUSH9 0x697320696E73747275 PUSH14 0x656E745573657220646F6573206E PUSH16 0x74206861766520616E7920626F72726F PUSH24 0x20666F72207468697320696E737472756D656E7454686520 PUSH22 0x73657220646F6573206E6F74206861766520616E7920 PUSH3 0x6F7272 PUSH16 0x772070656E64696E6754686572652069 PUSH20 0x206E6F7420656E6F756768206C69717569646974 PUSH26 0x20617661696C61626C6520696E2074686520496E737472756D65 PUSH15 0x742773207265736572766554686520 PUSH4 0x616C6C65 PUSH19 0x206F6620746869732066756E6374696F6E2063 PUSH2 0x6E20 PUSH16 0x6E6C79206265207468652049546F6B65 PUSH15 0x20636F6E7472616374206F66207468 PUSH10 0x7320696E737472756D65 PUSH15 0x74557365722063616E6E6F7420626F PUSH19 0x726F77207468652073656C656374656420616D PUSH16 0x756E7420617420737461626C65546F20 PUSH19 0x65706179206F6E20626568616C66206F662061 PUSH15 0x207573657220616E206578706C6963 PUSH10 0x7420616D6F756E742074 PUSH16 0x207265706179206973206E6565646564 0x2E COINBASE PUSH4 0x74696F6E KECCAK256 PUSH19 0x6571756972657320616E206163746976652069 PUSH15 0x737472756D656E74A265627A7A7231 PC KECCAK256 0x48 PUSH5 0xCA40036399 EQ SWAP11 DUP3 0x23 0xD 0xD PUSH1 0x8A DUP4 PUSH2 0xC31D OR PUSH15 0x99CB37F7E3C53C18B4ACE364736F6C PUSH4 0x43000511 STOP ORIGIN "
		},
		"gasEstimates": {
			"creation": {
				"codeDepositCost": "3887600",
				"executionCost": "29412",
				"totalCost": "3917012"
			},
			"external": {
				"LENDINGPOOL_REVISION()": "221",
				"UINT_MAX_VALUE()": "289",
				"addressesProvider()": "1059",
				"borrow(address,uint256,uint256,uint16)": "infinite",
				"core()": "1169",
				"dataProvider()": "1126",
				"deposit(address,uint256,uint16)": "infinite",
				"feeProvider()": "1149",
				"flashLoan(address,address,uint256,bytes)": "infinite",
				"getInstrumentConfigurationData(address)": "infinite",
				"getInstrumentData(address)": "infinite",
				"getInstruments()": "infinite",
				"getUserAccountData(address)": "infinite",
				"getUserInstrumentData(address,address)": "infinite",
				"initialize(address)": "infinite",
				"liquidationCall(address,address,address,uint256,bool)": "infinite",
				"parametersProvider()": "1082",
				"rebalanceStableBorrowRate(address,address)": "infinite",
				"redeemUnderlying(address,address,uint256,uint256)": "infinite",
				"refreshConfig()": "infinite",
				"repay(address,uint256,address)": "infinite",
				"setUserUseInstrumentAsCollateral(address,bool)": "infinite",
				"swapBorrowRateMode(address)": "infinite",
				"transferSIGHPayToStakingContract(address)": "infinite"
			},
			"internal": {
				"getRevision()": "15",
				"refreshConfigInternal()": "infinite",
				"requireAmountGreaterThanZeroInternal(uint256)": "infinite",
				"requireInstrumentActiveInternal(address)": "infinite",
				"requireInstrumentNotFreezedInternal(address)": "infinite"
			}
		},
		"methodIdentifiers": {
			"LENDINGPOOL_REVISION()": "8afaff02",
			"UINT_MAX_VALUE()": "d0fc81d2",
			"addressesProvider()": "c72c4d10",
			"borrow(address,uint256,uint256,uint16)": "c858f5f9",
			"core()": "f2f4eb26",
			"dataProvider()": "b334ed86",
			"deposit(address,uint256,uint16)": "d2d0e066",
			"feeProvider()": "4066fdea",
			"flashLoan(address,address,uint256,bytes)": "5cffe9de",
			"getInstrumentConfigurationData(address)": "90ccd4b7",
			"getInstrumentData(address)": "4dc54a38",
			"getInstruments()": "1635717c",
			"getUserAccountData(address)": "bf92857c",
			"getUserInstrumentData(address,address)": "22495627",
			"initialize(address)": "c4d66de8",
			"liquidationCall(address,address,address,uint256,bool)": "00a718a9",
			"parametersProvider()": "58707e06",
			"rebalanceStableBorrowRate(address,address)": "cd112382",
			"redeemUnderlying(address,address,uint256,uint256)": "9895e3d8",
			"refreshConfig()": "7c55ccb3",
			"repay(address,uint256,address)": "5ceae9c4",
			"setUserUseInstrumentAsCollateral(address,bool)": "0c363982",
			"swapBorrowRateMode(address)": "48ca1300",
			"transferSIGHPayToStakingContract(address)": "6f7dafcb"
		}
	},
	"abi": [
		{
			"anonymous": false,
			"inputs": [
				{
					"indexed": true,
					"internalType": "address",
					"name": "_instrument",
					"type": "address"
				},
				{
					"indexed": true,
					"internalType": "address",
					"name": "_user",
					"type": "address"
				},
				{
					"indexed": false,
					"internalType": "uint256",
					"name": "_amount",
					"type": "uint256"
				},
				{
					"indexed": false,
					"internalType": "uint256",
					"name": "_borrowRateMode",
					"type": "uint256"
				},
				{
					"indexed": false,
					"internalType": "uint256",
					"name": "_borrowRate",
					"type": "uint256"
				},
				{
					"indexed": false,
					"internalType": "uint256",
					"name": "_borrowFee",
					"type": "uint256"
				},
				{
					"indexed": false,
					"internalType": "uint256",
					"name": "_borrowBalanceIncrease",
					"type": "uint256"
				},
				{
					"indexed": false,
					"internalType": "uint16",
					"name": "_referral",
					"type": "uint16"
				},
				{
					"indexed": false,
					"internalType": "uint256",
					"name": "_timestamp",
					"type": "uint256"
				}
			],
			"name": "Borrow",
			"type": "event"
		},
		{
			"anonymous": false,
			"inputs": [
				{
					"indexed": true,
					"internalType": "address",
					"name": "_instrument",
					"type": "address"
				},
				{
					"indexed": true,
					"internalType": "address",
					"name": "_user",
					"type": "address"
				},
				{
					"indexed": false,
					"internalType": "uint256",
					"name": "_amount",
					"type": "uint256"
				},
				{
					"indexed": false,
					"internalType": "uint256",
					"name": "depositFee",
					"type": "uint256"
				},
				{
					"indexed": false,
					"internalType": "uint16",
					"name": "_referral",
					"type": "uint16"
				},
				{
					"indexed": false,
					"internalType": "uint256",
					"name": "_timestamp",
					"type": "uint256"
				}
			],
			"name": "Deposit",
			"type": "event"
		},
		{
			"anonymous": false,
			"inputs": [
				{
					"indexed": true,
					"internalType": "address",
					"name": "_target",
					"type": "address"
				},
				{
					"indexed": true,
					"internalType": "address",
					"name": "_instrument",
					"type": "address"
				},
				{
					"indexed": false,
					"internalType": "uint256",
					"name": "_amount",
					"type": "uint256"
				},
				{
					"indexed": false,
					"internalType": "uint256",
					"name": "_totalFee",
					"type": "uint256"
				},
				{
					"indexed": false,
					"internalType": "uint256",
					"name": "_protocolFee",
					"type": "uint256"
				},
				{
					"indexed": false,
					"internalType": "uint256",
					"name": "_timestamp",
					"type": "uint256"
				}
			],
			"name": "FlashLoan",
			"type": "event"
		},
		{
			"anonymous": false,
			"inputs": [
				{
					"indexed": true,
					"internalType": "address",
					"name": "_instrument",
					"type": "address"
				},
				{
					"indexed": true,
					"internalType": "address",
					"name": "_user",
					"type": "address"
				}
			],
			"name": "InstrumentUsedAsCollateralDisabled",
			"type": "event"
		},
		{
			"anonymous": false,
			"inputs": [
				{
					"indexed": true,
					"internalType": "address",
					"name": "_instrument",
					"type": "address"
				},
				{
					"indexed": true,
					"internalType": "address",
					"name": "_user",
					"type": "address"
				}
			],
			"name": "InstrumentUsedAsCollateralEnabled",
			"type": "event"
		},
		{
			"anonymous": false,
			"inputs": [
				{
					"indexed": true,
					"internalType": "address",
					"name": "_collateral",
					"type": "address"
				},
				{
					"indexed": true,
					"internalType": "address",
					"name": "_instrument",
					"type": "address"
				},
				{
					"indexed": true,
					"internalType": "address",
					"name": "_user",
					"type": "address"
				},
				{
					"indexed": false,
					"internalType": "uint256",
					"name": "_purchaseAmount",
					"type": "uint256"
				},
				{
					"indexed": false,
					"internalType": "uint256",
					"name": "_liquidatedCollateralAmount",
					"type": "uint256"
				},
				{
					"indexed": false,
					"internalType": "uint256",
					"name": "_accruedBorrowInterest",
					"type": "uint256"
				},
				{
					"indexed": false,
					"internalType": "address",
					"name": "_liquidator",
					"type": "address"
				},
				{
					"indexed": false,
					"internalType": "bool",
					"name": "_receiveIToken",
					"type": "bool"
				},
				{
					"indexed": false,
					"internalType": "uint256",
					"name": "_timestamp",
					"type": "uint256"
				}
			],
			"name": "LiquidationCall",
			"type": "event"
		},
		{
			"anonymous": false,
			"inputs": [
				{
					"indexed": true,
					"internalType": "address",
					"name": "_collateral",
					"type": "address"
				},
				{
					"indexed": true,
					"internalType": "address",
					"name": "_instrument",
					"type": "address"
				},
				{
					"indexed": true,
					"internalType": "address",
					"name": "_user",
					"type": "address"
				},
				{
					"indexed": false,
					"internalType": "uint256",
					"name": "_feeLiquidated",
					"type": "uint256"
				},
				{
					"indexed": false,
					"internalType": "uint256",
					"name": "_liquidatedCollateralForFee",
					"type": "uint256"
				},
				{
					"indexed": false,
					"internalType": "uint256",
					"name": "_timestamp",
					"type": "uint256"
				}
			],
			"name": "OriginationFeeLiquidated",
			"type": "event"
		},
		{
			"anonymous": false,
			"inputs": [
				{
					"indexed": true,
					"internalType": "address",
					"name": "_instrument",
					"type": "address"
				},
				{
					"indexed": true,
					"internalType": "address",
					"name": "_user",
					"type": "address"
				},
				{
					"indexed": false,
					"internalType": "uint256",
					"name": "_newStableRate",
					"type": "uint256"
				},
				{
					"indexed": false,
					"internalType": "uint256",
					"name": "_borrowBalanceIncrease",
					"type": "uint256"
				},
				{
					"indexed": false,
					"internalType": "uint256",
					"name": "_timestamp",
					"type": "uint256"
				}
			],
			"name": "RebalanceStableBorrowRate",
			"type": "event"
		},
		{
			"anonymous": false,
			"inputs": [
				{
					"indexed": true,
					"internalType": "address",
					"name": "_instrument",
					"type": "address"
				},
				{
					"indexed": true,
					"internalType": "address",
					"name": "_user",
					"type": "address"
				},
				{
					"indexed": false,
					"internalType": "uint256",
					"name": "_amount",
					"type": "uint256"
				},
				{
					"indexed": false,
					"internalType": "uint256",
					"name": "_timestamp",
					"type": "uint256"
				}
			],
			"name": "RedeemUnderlying",
			"type": "event"
		},
		{
			"anonymous": false,
			"inputs": [
				{
					"indexed": true,
					"internalType": "address",
					"name": "_instrument",
					"type": "address"
				},
				{
					"indexed": true,
					"internalType": "address",
					"name": "_user",
					"type": "address"
				},
				{
					"indexed": true,
					"internalType": "address",
					"name": "_repayer",
					"type": "address"
				},
				{
					"indexed": false,
					"internalType": "uint256",
					"name": "_amountMinusFees",
					"type": "uint256"
				},
				{
					"indexed": false,
					"internalType": "uint256",
					"name": "_fees",
					"type": "uint256"
				},
				{
					"indexed": false,
					"internalType": "uint256",
					"name": "_borrowBalanceIncrease",
					"type": "uint256"
				},
				{
					"indexed": false,
					"internalType": "uint256",
					"name": "_timestamp",
					"type": "uint256"
				}
			],
			"name": "Repay",
			"type": "event"
		},
		{
			"anonymous": false,
			"inputs": [
				{
					"indexed": true,
					"internalType": "address",
					"name": "_instrument",
					"type": "address"
				},
				{
					"indexed": true,
					"internalType": "address",
					"name": "_user",
					"type": "address"
				},
				{
					"indexed": false,
					"internalType": "uint256",
					"name": "_newRateMode",
					"type": "uint256"
				},
				{
					"indexed": false,
					"internalType": "uint256",
					"name": "_newRate",
					"type": "uint256"
				},
				{
					"indexed": false,
					"internalType": "uint256",
					"name": "_borrowBalanceIncrease",
					"type": "uint256"
				},
				{
					"indexed": false,
					"internalType": "uint256",
					"name": "_timestamp",
					"type": "uint256"
				}
			],
			"name": "Swap",
			"type": "event"
		},
		{
			"constant": true,
			"inputs": [],
			"name": "LENDINGPOOL_REVISION",
			"outputs": [
				{
					"internalType": "uint256",
					"name": "",
					"type": "uint256"
				}
			],
			"payable": false,
			"stateMutability": "view",
			"type": "function"
		},
		{
			"constant": true,
			"inputs": [],
			"name": "UINT_MAX_VALUE",
			"outputs": [
				{
					"internalType": "uint256",
					"name": "",
					"type": "uint256"
				}
			],
			"payable": false,
			"stateMutability": "view",
			"type": "function"
		},
		{
			"constant": true,
			"inputs": [],
			"name": "addressesProvider",
			"outputs": [
				{
					"internalType": "contract GlobalAddressesProvider",
					"name": "",
					"type": "address"
				}
			],
			"payable": false,
			"stateMutability": "view",
			"type": "function"
		},
		{
			"constant": false,
			"inputs": [
				{
					"internalType": "address",
					"name": "_instrument",
					"type": "address"
				},
				{
					"internalType": "uint256",
					"name": "_amount",
					"type": "uint256"
				},
				{
					"internalType": "uint256",
					"name": "_interestRateMode",
					"type": "uint256"
				},
				{
					"internalType": "uint16",
					"name": "_referralCode",
					"type": "uint16"
				}
			],
			"name": "borrow",
			"outputs": [],
			"payable": false,
			"stateMutability": "nonpayable",
			"type": "function"
		},
		{
			"constant": true,
			"inputs": [],
			"name": "core",
			"outputs": [
				{
					"internalType": "contract ILendingPoolCore",
					"name": "",
					"type": "address"
				}
			],
			"payable": false,
			"stateMutability": "view",
			"type": "function"
		},
		{
			"constant": true,
			"inputs": [],
			"name": "dataProvider",
			"outputs": [
				{
					"internalType": "contract ILendingPoolDataProvider",
					"name": "",
					"type": "address"
				}
			],
			"payable": false,
			"stateMutability": "view",
			"type": "function"
		},
		{
			"constant": false,
			"inputs": [
				{
					"internalType": "address",
					"name": "_instrument",
					"type": "address"
				},
				{
					"internalType": "uint256",
					"name": "_amount",
					"type": "uint256"
				},
				{
					"internalType": "uint16",
					"name": "_referralCode",
					"type": "uint16"
				}
			],
			"name": "deposit",
			"outputs": [],
			"payable": true,
			"stateMutability": "payable",
			"type": "function"
		},
		{
			"constant": true,
			"inputs": [],
			"name": "feeProvider",
			"outputs": [
				{
					"internalType": "contract IFeeProvider",
					"name": "",
					"type": "address"
				}
			],
			"payable": false,
			"stateMutability": "view",
			"type": "function"
		},
		{
			"constant": false,
			"inputs": [
				{
					"internalType": "address",
					"name": "_receiver",
					"type": "address"
				},
				{
					"internalType": "address",
					"name": "_instrument",
					"type": "address"
				},
				{
					"internalType": "uint256",
					"name": "_amount",
					"type": "uint256"
				},
				{
					"internalType": "bytes",
					"name": "_params",
					"type": "bytes"
				}
			],
			"name": "flashLoan",
			"outputs": [],
			"payable": false,
			"stateMutability": "nonpayable",
			"type": "function"
		},
		{
			"constant": true,
			"inputs": [
				{
					"internalType": "address",
					"name": "_instrument",
					"type": "address"
				}
			],
			"name": "getInstrumentConfigurationData",
			"outputs": [
				{
					"internalType": "uint256",
					"name": "ltv",
					"type": "uint256"
				},
				{
					"internalType": "uint256",
					"name": "liquidationThreshold",
					"type": "uint256"
				},
				{
					"internalType": "uint256",
					"name": "liquidationBonus",
					"type": "uint256"
				},
				{
					"internalType": "address",
					"name": "interestRateStrategyAddress",
					"type": "address"
				},
				{
					"internalType": "bool",
					"name": "usageAsCollateralEnabled",
					"type": "bool"
				},
				{
					"internalType": "bool",
					"name": "borrowingEnabled",
					"type": "bool"
				},
				{
					"internalType": "bool",
					"name": "stableBorrowRateEnabled",
					"type": "bool"
				},
				{
					"internalType": "bool",
					"name": "isActive",
					"type": "bool"
				}
			],
			"payable": false,
			"stateMutability": "view",
			"type": "function"
		},
		{
			"constant": true,
			"inputs": [
				{
					"internalType": "address",
					"name": "_instrument",
					"type": "address"
				}
			],
			"name": "getInstrumentData",
			"outputs": [
				{
					"internalType": "uint256",
					"name": "totalLiquidity",
					"type": "uint256"
				},
				{
					"internalType": "uint256",
					"name": "availableLiquidity",
					"type": "uint256"
				},
				{
					"internalType": "uint256",
					"name": "totalBorrowsStable",
					"type": "uint256"
				},
				{
					"internalType": "uint256",
					"name": "totalBorrowsVariable",
					"type": "uint256"
				},
				{
					"internalType": "uint256",
					"name": "liquidityRate",
					"type": "uint256"
				},
				{
					"internalType": "uint256",
					"name": "variableBorrowRate",
					"type": "uint256"
				},
				{
					"internalType": "uint256",
					"name": "stableBorrowRate",
					"type": "uint256"
				},
				{
					"internalType": "uint256",
					"name": "averageStableBorrowRate",
					"type": "uint256"
				},
				{
					"internalType": "uint256",
					"name": "utilizationRate",
					"type": "uint256"
				},
				{
					"internalType": "uint256",
					"name": "liquidityIndex",
					"type": "uint256"
				},
				{
					"internalType": "uint256",
					"name": "variableBorrowIndex",
					"type": "uint256"
				},
				{
					"internalType": "address",
					"name": "iTokenAddress",
					"type": "address"
				},
				{
					"internalType": "uint40",
					"name": "lastUpdateTimestamp",
					"type": "uint40"
				}
			],
			"payable": false,
			"stateMutability": "view",
			"type": "function"
		},
		{
			"constant": true,
			"inputs": [],
			"name": "getInstruments",
			"outputs": [
				{
					"internalType": "address[]",
					"name": "",
					"type": "address[]"
				}
			],
			"payable": false,
			"stateMutability": "view",
			"type": "function"
		},
		{
			"constant": true,
			"inputs": [
				{
					"internalType": "address",
					"name": "_user",
					"type": "address"
				}
			],
			"name": "getUserAccountData",
			"outputs": [
				{
					"internalType": "uint256",
					"name": "totalLiquidityETH",
					"type": "uint256"
				},
				{
					"internalType": "uint256",
					"name": "totalCollateralETH",
					"type": "uint256"
				},
				{
					"internalType": "uint256",
					"name": "totalBorrowsETH",
					"type": "uint256"
				},
				{
					"internalType": "uint256",
					"name": "totalFeesETH",
					"type": "uint256"
				},
				{
					"internalType": "uint256",
					"name": "availableBorrowsETH",
					"type": "uint256"
				},
				{
					"internalType": "uint256",
					"name": "currentLiquidationThreshold",
					"type": "uint256"
				},
				{
					"internalType": "uint256",
					"name": "ltv",
					"type": "uint256"
				},
				{
					"internalType": "uint256",
					"name": "healthFactor",
					"type": "uint256"
				}
			],
			"payable": false,
			"stateMutability": "view",
			"type": "function"
		},
		{
			"constant": true,
			"inputs": [
				{
					"internalType": "address",
					"name": "_instrument",
					"type": "address"
				},
				{
					"internalType": "address",
					"name": "_user",
					"type": "address"
				}
			],
			"name": "getUserInstrumentData",
			"outputs": [
				{
					"internalType": "uint256",
					"name": "currentITokenBalance",
					"type": "uint256"
				},
				{
					"internalType": "uint256",
					"name": "currentBorrowBalance",
					"type": "uint256"
				},
				{
					"internalType": "uint256",
					"name": "principalBorrowBalance",
					"type": "uint256"
				},
				{
					"internalType": "uint256",
					"name": "borrowRateMode",
					"type": "uint256"
				},
				{
					"internalType": "uint256",
					"name": "borrowRate",
					"type": "uint256"
				},
				{
					"internalType": "uint256",
					"name": "liquidityRate",
					"type": "uint256"
				},
				{
					"internalType": "uint256",
					"name": "borrowFee",
					"type": "uint256"
				},
				{
					"internalType": "uint256",
					"name": "variableBorrowIndex",
					"type": "uint256"
				},
				{
					"internalType": "uint256",
					"name": "lastUpdateTimestamp",
					"type": "uint256"
				},
				{
					"internalType": "bool",
					"name": "usageAsCollateralEnabled",
					"type": "bool"
				}
			],
			"payable": false,
			"stateMutability": "view",
			"type": "function"
		},
		{
			"constant": false,
			"inputs": [
				{
					"internalType": "contract GlobalAddressesProvider",
					"name": "_addressesProvider",
					"type": "address"
				}
			],
			"name": "initialize",
			"outputs": [],
			"payable": false,
			"stateMutability": "nonpayable",
			"type": "function"
		},
		{
			"constant": false,
			"inputs": [
				{
					"internalType": "address",
					"name": "_collateral",
					"type": "address"
				},
				{
					"internalType": "address",
					"name": "_instrument",
					"type": "address"
				},
				{
					"internalType": "address",
					"name": "_user",
					"type": "address"
				},
				{
					"internalType": "uint256",
					"name": "_purchaseAmount",
					"type": "uint256"
				},
				{
					"internalType": "bool",
					"name": "_receiveIToken",
					"type": "bool"
				}
			],
			"name": "liquidationCall",
			"outputs": [],
			"payable": true,
			"stateMutability": "payable",
			"type": "function"
		},
		{
			"constant": true,
			"inputs": [],
			"name": "parametersProvider",
			"outputs": [
				{
					"internalType": "contract ILendingPoolParametersProvider",
					"name": "",
					"type": "address"
				}
			],
			"payable": false,
			"stateMutability": "view",
			"type": "function"
		},
		{
			"constant": false,
			"inputs": [
				{
					"internalType": "address",
					"name": "_instrument",
					"type": "address"
				},
				{
					"internalType": "address",
					"name": "_user",
					"type": "address"
				}
			],
			"name": "rebalanceStableBorrowRate",
			"outputs": [],
			"payable": false,
			"stateMutability": "nonpayable",
			"type": "function"
		},
		{
			"constant": false,
			"inputs": [
				{
					"internalType": "address",
					"name": "_instrument",
					"type": "address"
				},
				{
					"internalType": "address payable",
					"name": "_user",
					"type": "address"
				},
				{
					"internalType": "uint256",
					"name": "_amount",
					"type": "uint256"
				},
				{
					"internalType": "uint256",
					"name": "_ITokenBalanceAfterRedeem",
					"type": "uint256"
				}
			],
			"name": "redeemUnderlying",
			"outputs": [],
			"payable": false,
			"stateMutability": "nonpayable",
			"type": "function"
		},
		{
			"constant": false,
			"inputs": [],
			"name": "refreshConfig",
			"outputs": [],
			"payable": false,
			"stateMutability": "nonpayable",
			"type": "function"
		},
		{
			"constant": false,
			"inputs": [
				{
					"internalType": "address",
					"name": "_instrument",
					"type": "address"
				},
				{
					"internalType": "uint256",
					"name": "_amount",
					"type": "uint256"
				},
				{
					"internalType": "address payable",
					"name": "_onBehalfOf",
					"type": "address"
				}
			],
			"name": "repay",
			"outputs": [],
			"payable": true,
			"stateMutability": "payable",
			"type": "function"
		},
		{
			"constant": false,
			"inputs": [
				{
					"internalType": "address",
					"name": "_instrument",
					"type": "address"
				},
				{
					"internalType": "bool",
					"name": "_useAsCollateral",
					"type": "bool"
				}
			],
			"name": "setUserUseInstrumentAsCollateral",
			"outputs": [],
			"payable": false,
			"stateMutability": "nonpayable",
			"type": "function"
		},
		{
			"constant": false,
			"inputs": [
				{
					"internalType": "address",
					"name": "_instrument",
					"type": "address"
				}
			],
			"name": "swapBorrowRateMode",
			"outputs": [],
			"payable": false,
			"stateMutability": "nonpayable",
			"type": "function"
		},
		{
			"constant": false,
			"inputs": [
				{
					"internalType": "address",
					"name": "_instrument",
					"type": "address"
				}
			],
			"name": "transferSIGHPayToStakingContract",
			"outputs": [],
			"payable": false,
			"stateMutability": "nonpayable",
			"type": "function"
		}
	]
}