{
	"data": {
		"bytecode": {
			"linkReferences": {
				"localhost/contracts/LendingProtocolContracts/libraries/CoreLibrary.sol": {
					"CoreLibrary": [
						{
							"length": 20,
							"start": 6262
						},
						{
							"length": 20,
							"start": 12760
						},
						{
							"length": 20,
							"start": 12891
						},
						{
							"length": 20,
							"start": 14937
						},
						{
							"length": 20,
							"start": 15250
						}
					]
				}
			},
			"object": "60806040526000805534801561001457600080fd5b50615f3c80620000256000396000f3fe6080604052600436106104105760003560e01c8063908593ca1161021e578063d34651e711610123578063f11c4594116100ab578063fa93b2a51161007a578063fa93b2a5146113d9578063fbab24051461141c578063fcfe58c81461144f578063ff6ad9d31461148a578063ffa388b0146114b457610410565b8063f11c4594146112ac578063f6148311146112df578063f6ea8d7614611363578063fa2968c31461139e57610410565b8063dc08d848116100f2578063dc08d84814611183578063e2174d86146111b6578063e6df474e146111f9578063ea84c1ba1461123e578063ee9c22811461127157610410565b8063d34651e7146110cf578063d3ae26b3146110e4578063d62c202c146110f9578063da12d96f1461112c57610410565b8063b94cc1a9116101a6578063c619adac11610175578063c619adac14610fbd578063c72c4d1014611018578063c7d142371461102d578063d0c5554814611069578063d1c4c0fa1461109c57610410565b8063b94cc1a914610ed1578063bcd6ffa414610f0c578063c172350b14610f57578063c4d66de814610f8a57610410565b80639fb8afcd116101ed5780639fb8afcd14610d84578063aafa6de014610ddd578063aea3b07e14610e10578063af825b0714610e43578063afcdbea314610e8657610410565b8063908593ca14610cb857806390cc4e8514610ceb578063959fc3e514610d1e5780639f15d5c614610d5157610410565b80634375ddae1161032457806368beb4d6116102ac57806372e8d22a1161027b57806372e8d22a14610bae57806375d87acc14610be9578063792a0feb14610c1c5780638bb3a3c414610c4f5780638f385c2214610c8257610410565b806368beb4d614610a9a5780636f0d264b14610b055780636f7dafcb14610b405780636fffab0c14610b7357610410565b80635610992a116102f35780635610992a146109a95780635cfdd994146109e4578063609cb28914610a175780636468108314610a4a57806366d103f314610a5f57610410565b80634375ddae146108b157806344d0a7bc146108f6578063480222eb1461093b57806354e665621461097657610410565b806318f9749a116103a757806328fcf4d31161037657806328fcf4d3146107765780632b0475e1146107ac5780632c8dcf3f146107df57806337ac6fe4146108125780633c0358661461087e57610410565b806318f9749a1461065e5780631ca19f19146106b1578063245720ec146107105780632706e94e1461074357610410565b806310183a35116103e357806310183a35146105445780631635717c1461058b5780631769ba31146105f057806318a4dbca1461062357610410565b806307ce32a51461045657806309ac29531461049b5780630c7de4e9146104e05780630feb5d88146104f5575b61041933611501565b6104545760405162461bcd60e51b8152600401808060200182810382526036815260200180615c306036913960400191505060405180910390fd5b005b34801561046257600080fd5b506104896004803603602081101561047957600080fd5b50356001600160a01b031661150b565b60408051918252519081900360200190f35b3480156104a757600080fd5b50610454600480360360808110156104be57600080fd5b506001600160a01b038135169060208101359060408101359060600135611529565b3480156104ec57600080fd5b506104896115f7565b34801561050157600080fd5b506105286004803603602081101561051857600080fd5b50356001600160a01b03166115fc565b604080516001600160a01b039092168252519081900360200190f35b34801561055057600080fd5b506105776004803603602081101561056757600080fd5b50356001600160a01b031661161d565b604080519115158252519081900360200190f35b34801561059757600080fd5b506105a0611644565b60408051602080825283518183015283519192839290830191858101910280838360005b838110156105dc5781810151838201526020016105c4565b505050509050019250505060405180910390f35b3480156105fc57600080fd5b506104896004803603602081101561061357600080fd5b50356001600160a01b03166116a6565b34801561062f57600080fd5b506104896004803603604081101561064657600080fd5b506001600160a01b03813581169160200135166116c4565b34801561066a57600080fd5b50610454600480360360a081101561068157600080fd5b506001600160a01b0381358116916020810135821691604082013591606081013582169160809091013516611754565b3480156106bd57600080fd5b506106ec600480360360408110156106d457600080fd5b506001600160a01b0381358116916020013516611a30565b604051808260028111156106fc57fe5b60ff16815260200191505060405180910390f35b34801561071c57600080fd5b506104896004803603602081101561073357600080fd5b50356001600160a01b0316611a88565b34801561074f57600080fd5b506105776004803603602081101561076657600080fd5b50356001600160a01b0316611aa9565b6104546004803603606081101561078c57600080fd5b506001600160a01b03813581169160208101359091169060400135611aca565b3480156107b857600080fd5b50610489600480360360208110156107cf57600080fd5b50356001600160a01b0316611c95565b3480156107eb57600080fd5b506104896004803603602081101561080257600080fd5b50356001600160a01b0316611cbd565b34801561081e57600080fd5b50610865600480360360a081101561083557600080fd5b5080356001600160a01b03908116916020810135909116906040810135906060810135906080013560ff16611cde565b6040805192835260208301919091528051918290030190f35b34801561088a57600080fd5b50610489600480360360208110156108a157600080fd5b50356001600160a01b0316611e71565b3480156108bd57600080fd5b50610454600480360360608110156108d457600080fd5b506001600160a01b038135811691602081013590911690604001351515611e8f565b34801561090257600080fd5b506104546004803603608081101561091957600080fd5b506001600160a01b038135169060208101359060408101359060600135611f11565b34801561094757600080fd5b506104546004803603604081101561095e57600080fd5b506001600160a01b0381351690602001351515611ff2565b34801561098257600080fd5b506104896004803603602081101561099957600080fd5b50356001600160a01b031661213a565b3480156109b557600080fd5b50610454600480360360408110156109cc57600080fd5b506001600160a01b0381358116916020013516612158565b3480156109f057600080fd5b5061048960048036036020811015610a0757600080fd5b50356001600160a01b031661223e565b348015610a2357600080fd5b5061048960048036036020811015610a3a57600080fd5b50356001600160a01b03166122ee565b348015610a5657600080fd5b5061045461230c565b348015610a6b57600080fd5b5061048960048036036040811015610a8257600080fd5b506001600160a01b03813581169160200135166123cb565b348015610aa657600080fd5b506104546004803603610120811015610abe57600080fd5b506001600160a01b03813581169160208101358216916040820135169060608101359060808101359060a08101359060c08101359060e08101359061010001351515612401565b348015610b1157600080fd5b5061048960048036036040811015610b2857600080fd5b506001600160a01b038135811691602001351661260a565b348015610b4c57600080fd5b5061045460048036036020811015610b6357600080fd5b50356001600160a01b0316612639565b348015610b7f57600080fd5b5061048960048036036040811015610b9657600080fd5b506001600160a01b038135811691602001351661288f565b348015610bba57600080fd5b5061045460048036036040811015610bd157600080fd5b506001600160a01b03813516906020013515156128be565b348015610bf557600080fd5b5061057760048036036020811015610c0c57600080fd5b50356001600160a01b03166129c0565b348015610c2857600080fd5b5061048960048036036020811015610c3f57600080fd5b50356001600160a01b03166129e9565b348015610c5b57600080fd5b5061057760048036036020811015610c7257600080fd5b50356001600160a01b0316612a22565b61045460048036036060811015610c9857600080fd5b506001600160a01b03813581169160208101359160409091013516612a48565b348015610cc457600080fd5b5061048960048036036020811015610cdb57600080fd5b50356001600160a01b0316612b64565b348015610cf757600080fd5b5061048960048036036020811015610d0e57600080fd5b50356001600160a01b0316612b82565b348015610d2a57600080fd5b5061048960048036036020811015610d4157600080fd5b50356001600160a01b0316612ba0565b348015610d5d57600080fd5b5061048960048036036020811015610d7457600080fd5b50356001600160a01b0316612bbe565b348015610d9057600080fd5b50610dbf60048036036040811015610da757600080fd5b506001600160a01b0381358116916020013516612c62565b60408051938452602084019290925282820152519081900360600190f35b348015610de957600080fd5b5061052860048036036020811015610e0057600080fd5b50356001600160a01b0316612cf3565b348015610e1c57600080fd5b5061048960048036036020811015610e3357600080fd5b50356001600160a01b0316612d11565b348015610e4f57600080fd5b5061048960048036036060811015610e6657600080fd5b506001600160a01b03813581169160208101359091169060400135612e39565b348015610e9257600080fd5b5061045460048036036080811015610ea957600080fd5b506001600160a01b038135811691602081013590911690604081013590606001351515612fc4565b348015610edd57600080fd5b5061045460048036036040811015610ef457600080fd5b506001600160a01b03813516906020013515156130c7565b348015610f1857600080fd5b5061045460048036036080811015610f2f57600080fd5b506001600160a01b038135811691602081013590911690604081013590606001351515613283565b348015610f6357600080fd5b5061048960048036036020811015610f7a57600080fd5b50356001600160a01b0316613386565b348015610f9657600080fd5b5061045460048036036020811015610fad57600080fd5b50356001600160a01b03166133a4565b348015610fc957600080fd5b50610ff060048036036020811015610fe057600080fd5b50356001600160a01b0316613463565b6040805194855260208501939093528383019190915215156060830152519081900360800190f35b34801561102457600080fd5b506105286134a1565b6104546004803603608081101561104357600080fd5b506001600160a01b038135811691602081013582169160408201359160600135166134b0565b34801561107557600080fd5b506105776004803603602081101561108c57600080fd5b50356001600160a01b031661365a565b3480156110a857600080fd5b50610489600480360360208110156110bf57600080fd5b50356001600160a01b0316613682565b3480156110db57600080fd5b506105286136ec565b3480156110f057600080fd5b506105286136fb565b34801561110557600080fd5b506104896004803603602081101561111c57600080fd5b50356001600160a01b031661370a565b34801561113857600080fd5b50610454600480360360c081101561114f57600080fd5b506001600160a01b03813581169160208101359091169060408101359060608101359060808101359060a00135151561372b565b34801561118f57600080fd5b50610489600480360360208110156111a657600080fd5b50356001600160a01b031661388e565b3480156111c257600080fd5b50610577600480360360608110156111d957600080fd5b506001600160a01b038135811691602081013590911690604001356138ac565b34801561120557600080fd5b506104546004803603608081101561121c57600080fd5b506001600160a01b038135169060208101359060408101359060600135613939565b34801561124a57600080fd5b506104546004803603602081101561126157600080fd5b50356001600160a01b0316613a87565b34801561127d57600080fd5b506105776004803603604081101561129457600080fd5b506001600160a01b0381358116916020013516613bb6565b3480156112b857600080fd5b50610489600480360360208110156112cf57600080fd5b50356001600160a01b0316613be5565b3480156112eb57600080fd5b50611338600480360360c081101561130257600080fd5b5080356001600160a01b039081169160208101359091169060408101359060608101359060808101359060a0013560ff16613c03565b6040518083600281111561134857fe5b60ff1681526020018281526020019250505060405180910390f35b34801561136f57600080fd5b506104896004803603604081101561138657600080fd5b506001600160a01b0381358116916020013516613d81565b3480156113aa57600080fd5b50610454600480360360408110156113c157600080fd5b506001600160a01b0381351690602001351515613db0565b3480156113e557600080fd5b50610454600480360360608110156113fc57600080fd5b506001600160a01b03813581169160208101359091169060400135613ea9565b34801561142857600080fd5b506104896004803603602081101561143f57600080fd5b50356001600160a01b0316613fd0565b34801561145b57600080fd5b50610ff06004803603604081101561147257600080fd5b506001600160a01b0381358116916020013516613fee565b34801561149657600080fd5b50610528600480360360208110156114ad57600080fd5b503561408a565b3480156114c057600080fd5b506114e7600480360360208110156114d757600080fd5b50356001600160a01b03166140b1565b6040805164ffffffffff9092168252519081900360200190f35b803b15155b919050565b6001600160a01b03166000908152603860205260409020600b015490565b6035546001600160a01b031633146115725760405162461bcd60e51b815260040180806020018281038252602a815260200180615dfe602a913960400191505060405180910390fd5b61157c84826140d6565b6001600160a01b038416600090815260386020526040902061159d906141b9565b60006115b86115ab86611a88565b859063ffffffff61428416565b6001600160a01b03861660009081526038602052604090209091506115e490828563ffffffff6142de16565b6115f085846000614339565b5050505050565b600481565b6001600160a01b039081166000908152603860205260409020600101541690565b6001600160a01b031660009081526038602052604090206003015462010000900460ff1690565b6060603780548060200260200160405190810160405280929190818152602001828054801561169c57602002820191906000526020600020905b81546001600160a01b0316815260019091019060200180831161167e575b5050505050905090565b6001600160a01b031660009081526038602052604090206007015490565b6001600160a01b0380831660009081526038602090815260408083205481516370a0823160e01b8152868616600482015291519394169283926370a082319260248082019391829003018186803b15801561171e57600080fd5b505afa158015611732573d6000803e3d6000fd5b505050506040513d602081101561174857600080fd5b50519150505b92915050565b603454604080516385c858b160e01b8152905133926001600160a01b0316916385c858b1916004808301926020929190829003018186803b15801561179857600080fd5b505afa1580156117ac573d6000803e3d6000fd5b505050506040513d60208110156117c257600080fd5b50516001600160a01b0316146118095760405162461bcd60e51b8152600401808060200182810382526038815260200180615ed06038913960400191505060405180910390fd5b6001600160a01b03808616600090815260386020526040808220815163710d44ed60e11b8152600481019190915287841660248201526044810187905292851660648401525173__$26aba8fee459e9e1a5346aa6cb9fef744f$__9263e21a89da926084808301939192829003018186803b15801561188757600080fd5b505af415801561189b573d6000803e3d6000fd5b505050506118a8856144f2565b60365460408051636767198960e01b81526001600160a01b03888116600483015287811660248301528481166044830152606482018790529151919092169163676719899160848083019260209291908290030181600087803b15801561190e57600080fd5b505af1158015611922573d6000803e3d6000fd5b505050506040513d602081101561193857600080fd5b50516119755760405162461bcd60e51b815260040180806020018281038252605b815260200180615e28605b913960600191505060405180910390fd5b6040805163427dd40d60e11b81526001600160a01b038381166004830152915186928316916384fba81a9160248083019260209291908290030181600087803b1580156119c157600080fd5b505af11580156119d5573d6000803e3d6000fd5b505050506040513d60208110156119eb57600080fd5b5051611a285760405162461bcd60e51b8152600401808060200182810382526040815260200180615d6f6040913960400191505060405180910390fd5b505050505050565b6001600160a01b03808216600090815260396020908152604080832093861683529290529081206001810154611a6a57600091505061174e565b6000816002015411611a7d576002611a80565b60015b949350505050565b6001600160a01b038116600090815260386020526040812061174e90614596565b6001600160a01b031660009081526038602052604090206003015460ff1690565b6035546001600160a01b03163314611b135760405162461bcd60e51b815260040180806020018281038252602a815260200180615dfe602a913960400191505060405180910390fd5b611b1b6145b3565b6001600160a01b0316836001600160a01b031614611b90573415611b705760405162461bcd60e51b8152600401808060200182810382526032815260200180615cb76032913960400191505060405180910390fd5b611b8b6001600160a01b03841683308463ffffffff6145cb16565b611c90565b80341015611bcf5760405162461bcd60e51b8152600401808060200182810382526035815260200180615bfb6035913960400191505060405180910390fd5b80341115611c90576000611be9348363ffffffff61462516565b6040519091506000906001600160a01b0385169061c35090849084818181858888f193505050503d8060008114611c3c576040519150601f19603f3d011682016040523d82523d6000602084013e611c41565b606091505b50509050806115f0576040805162461bcd60e51b8152602060048201526016602482015275151c985b9cd9995c881bd9881155120819985a5b195960521b604482015290519081900360640190fd5b505050565b6001600160a01b0381166000908152603860205260408120611cb681614667565b9392505050565b6001600160a01b0381166000908152603860205260408120611cb681614690565b60355460009081906001600160a01b03163314611d2c5760405162461bcd60e51b815260040180806020018281038252602a815260200180615dfe602a913960400191505060405180910390fd5b60365460408051630f8a56cd60e31b81526001600160a01b038a8116600483015291519190921691637c52b6689160248083019260209291908290030181600087803b158015611d7b57600080fd5b505af1158015611d8f573d6000803e3d6000fd5b505050506040513d6020811015611da557600080fd5b506000905080611db58989612c62565b6001600160a01b03808d16600090815260386020526040808220548151631e77d68b60e01b81528f8516600482015291519698509396509290911693849350631e77d68b92602480820193929182900301818387803b158015611e1757600080fd5b505af1158015611e2b573d6000803e3d6000fd5b50505050611e3d8a8a85858c8b6146c8565b611e4b8a8a8a858b8b6146f7565b611e578a60008a614339565b611e618a8a6148c5565b9a91995090975050505050505050565b6001600160a01b031660009081526038602052604090206006015490565b6035546001600160a01b03163314611ed85760405162461bcd60e51b815260040180806020018281038252602a815260200180615dfe602a913960400191505060405180910390fd5b6001600160a01b039182166000908152603960209081526040808320959094168252939093529120805460ff1916911515919091179055565b603454604080516385c858b160e01b8152905133926001600160a01b0316916385c858b1916004808301926020929190829003018186803b158015611f5557600080fd5b505afa158015611f69573d6000803e3d6000fd5b505050506040513d6020811015611f7f57600080fd5b50516001600160a01b031614611fc65760405162461bcd60e51b8152600401808060200182810382526038815260200180615ed06038913960400191505060405180910390fd5b6001600160a01b039093166000908152603860205260409020600f810192909255601082015560110155565b603454604080516385c858b160e01b8152905133926001600160a01b0316916385c858b1916004808301926020929190829003018186803b15801561203657600080fd5b505afa15801561204a573d6000803e3d6000fd5b505050506040513d602081101561206057600080fd5b50516001600160a01b0316146120a75760405162461bcd60e51b8152600401808060200182810382526038815260200180615ed06038913960400191505060405180910390fd5b6001600160a01b0382166000908152603860205260409020600c810154158015906120d65750600081600b0154115b6121115760405162461bcd60e51b8152600401808060200182810382526027815260200180615ce96027913960400191505060405180910390fd5b811561212b5760038101805460ff19166001179055611c90565b600301805460ff191690555050565b6001600160a01b031660009081526038602052604090206009015490565b603454604080516385c858b160e01b8152905133926001600160a01b0316916385c858b1916004808301926020929190829003018186803b15801561219c57600080fd5b505afa1580156121b0573d6000803e3d6000fd5b505050506040513d60208110156121c657600080fd5b50516001600160a01b03161461220d5760405162461bcd60e51b8152600401808060200182810382526038815260200180615ed06038913960400191505060405180910390fd5b6001600160a01b03918216600090815260386020526040902060010180546001600160a01b03191691909216179055565b6001600160a01b038116600090815260386020526040812060048101546122e4578060010160009054906101000a90046001600160a01b03166001600160a01b03166334762ca56040518163ffffffff1660e01b815260040160206040518083038186803b1580156122af57600080fd5b505afa1580156122c3573d6000803e3d6000fd5b505050506040513d60208110156122d957600080fd5b505191506115069050565b6004015492915050565b6001600160a01b031660009081526038602052604090206010015490565b603454604080516385c858b160e01b8152905133926001600160a01b0316916385c858b1916004808301926020929190829003018186803b15801561235057600080fd5b505afa158015612364573d6000803e3d6000fd5b505050506040513d602081101561237a57600080fd5b50516001600160a01b0316146123c15760405162461bcd60e51b8152600401808060200182810382526038815260200180615ed06038913960400191505060405180910390fd5b6123c9614957565b565b6001600160a01b0390811660009081526039602090815260408083209490931682529290925290206005015464ffffffffff1690565b6035546001600160a01b0316331461244a5760405162461bcd60e51b815260040180806020018281038252602a815260200180615dfe602a913960400191505060405180910390fd5b60365460408051630f8a56cd60e31b81526001600160a01b038c8116600483015291519190921691637c52b6689160248083019260209291908290030181600087803b15801561249957600080fd5b505af11580156124ad573d6000803e3d6000fd5b505050506040513d60208110156124c357600080fd5b505060365460408051634f425fbb60e01b81526001600160a01b038b8116600483015291519190921691634f425fbb9160248083019260209291908290030181600087803b15801561251457600080fd5b505af1158015612528573d6000803e3d6000fd5b505050506040513d602081101561253e57600080fd5b50506001600160a01b03808a16600090815260386020526040808220548151631e77d68b60e01b81528b8516600482015291519316928392631e77d68b926024808201939182900301818387803b15801561259857600080fd5b505af11580156125ac573d6000803e3d6000fd5b505050506125bc8a898986614a77565b6125c589614b27565b6125d28a89898887614b4b565b6125de8a886000614339565b816125fe576125fe8960006125f9898863ffffffff61428416565b614339565b50505050505050505050565b6001600160a01b0380821660009081526039602090815260408083209386168352929052206004015492915050565b6035546001600160a01b031633146126825760405162461bcd60e51b815260040180806020018281038252602a815260200180615dfe602a913960400191505060405180910390fd5b60345460408051631db4f56960e01b815290516000926001600160a01b031691631db4f569916004808301926020929190829003018186803b1580156126c757600080fd5b505afa1580156126db573d6000803e3d6000fd5b505050506040513d60208110156126f157600080fd5b505190506001600160a01b03811661273a5760405162461bcd60e51b815260040180806020018281038252602e815260200180615c89602e913960400191505060405180910390fd5b6001600160a01b038216600090815260386020526040902061275b816141b9565b6000612766846129e9565b905060006127a76127a284600e015461279661278187614c6d565b61278a87614c96565b9063ffffffff614cac16565b9063ffffffff614cf016565b614d20565b600d840154600e85015590506127bb6145b3565b6001600160a01b0316856001600160a01b0316146127f2576127ed6001600160a01b038616858363ffffffff614d3916565b61282a565b6040516001600160a01b0385169082156108fc029083906000818181858888f19350505050158015612828573d6000803e3d6000fd5b505b600e830154600d8401546040805185815260208101859052808201939093526060830191909152516001600160a01b038716917fcaf88b767f34218df2bee5e44dedf227e0d2a1e85a902226b21375dc5bd654f6919081900360800190a25050505050565b6001600160a01b0380821660009081526039602090815260408083209386168352929052206002015492915050565b603454604080516385c858b160e01b8152905133926001600160a01b0316916385c858b1916004808301926020929190829003018186803b15801561290257600080fd5b505afa158015612916573d6000803e3d6000fd5b505050506040513d602081101561292c57600080fd5b50516001600160a01b0316146129735760405162461bcd60e51b8152600401808060200182810382526038815260200180615ed06038913960400191505060405180910390fd5b6001600160a01b038216600090815260386020526040902081156129ad5760038101805464ff000000001916640100000000179055611c90565b600301805464ff00000000191690555050565b6001600160a01b0316600090815260386020526040902060030154640100000000900460ff1690565b6001600160a01b0381166000908152603860205260408120611cb6612a0d82614596565b612a1685612bbe565b9063ffffffff61428416565b6001600160a01b0316600090815260386020526040902060030154610100900460ff1690565b6035546001600160a01b03163314612a915760405162461bcd60e51b815260040180806020018281038252602a815260200180615dfe602a913960400191505060405180910390fd5b803415612acf5760405162461bcd60e51b8152600401808060200182810382526036815260200180615b756036913960400191505060405180910390fd5b612ad76145b3565b6001600160a01b0316846001600160a01b031614612b0e57612b096001600160a01b038516828563ffffffff614d3916565b612b5e565b6040516000906001600160a01b0383169061c35090869084818181858888f193505050503d8060008114611c3c576040519150601f19603f3d011682016040523d82523d6000602084013e611c41565b50505050565b6001600160a01b03166000908152603860205260409020600d015490565b6001600160a01b03166000908152603860205260409020600e015490565b6001600160a01b03166000908152603860205260409020600c015490565b600080612bc96145b3565b6001600160a01b0316836001600160a01b03161415612be957504761174e565b604080516370a0823160e01b815230600482015290516001600160a01b038516916370a08231916024808301926020929190829003018186803b158015612c2f57600080fd5b505afa158015612c43573d6000803e3d6000fd5b505050506040513d6020811015612c5957600080fd5b50519392505050565b6001600160a01b0380821660009081526039602090815260408083209386168352929052908120600181015482918291612ca6575060009250829150819050612cec565b60018101546001600160a01b0387166000908152603860205260408120612cce908490614d8b565b90508181612ce2818363ffffffff61462516565b9550955095505050505b9250925092565b6001600160a01b039081166000908152603860205260409020541690565b6001600160a01b0380821660009081526038602090815260408083206034548251631b0c55dd60e11b815292519495919486949190921692633618abba9260048083019392829003018186803b158015612d6a57600080fd5b505afa158015612d7e573d6000803e3d6000fd5b505050506040513d6020811015612d9457600080fd5b50516005830154909150612e2e57806001600160a01b031663bb85c0bb856040518263ffffffff1660e01b815260040180826001600160a01b03166001600160a01b0316815260200191505060206040518083038186803b158015612df857600080fd5b505afa158015612e0c573d6000803e3d6000fd5b505050506040513d6020811015612e2257600080fd5b50519250611506915050565b506005015492915050565b6035546000906001600160a01b03163314612e855760405162461bcd60e51b815260040180806020018281038252602a815260200180615dfe602a913960400191505060405180910390fd5b60365460408051630f8a56cd60e31b81526001600160a01b03878116600483015291519190921691637c52b6689160248083019260209291908290030181600087803b158015612ed457600080fd5b505af1158015612ee8573d6000803e3d6000fd5b505050506040513d6020811015612efe57600080fd5b50506001600160a01b03808516600090815260386020526040808220548151631e77d68b60e01b8152878516600482015291519316928392631e77d68b926024808201939182900301818387803b158015612f5857600080fd5b505af1158015612f6c573d6000803e3d6000fd5b50505050612f7b858585614e76565b612f86858585614ec6565b612f9285600080614339565b50506001600160a01b038083166000908152603960209081526040808320938716835292905220600201549392505050565b6035546001600160a01b0316331461300d5760405162461bcd60e51b815260040180806020018281038252602a815260200180615dfe602a913960400191505060405180910390fd5b60365460408051634f425fbb60e01b81526001600160a01b03878116600483015291519190921691634f425fbb9160248083019260209291908290030181600087803b15801561305c57600080fd5b505af1158015613070573d6000803e3d6000fd5b505050506040513d602081101561308657600080fd5b50506001600160a01b03841660009081526038602052604090206130a9906141b9565b6130b584600084614339565b8015612b5e57612b5e84846000611e8f565b603454604080516385c858b160e01b8152905133926001600160a01b0316916385c858b1916004808301926020929190829003018186803b15801561310b57600080fd5b505afa15801561311f573d6000803e3d6000fd5b505050506040513d602081101561313557600080fd5b50516001600160a01b03161461317c5760405162461bcd60e51b8152600401808060200182810382526038815260200180615ed06038913960400191505060405180910390fd5b8015613205576001600160a01b038216600090815260386020526040808220815163db59153560e01b81526004810191909152905173__$26aba8fee459e9e1a5346aa6cb9fef744f$__9263db5915359260248082019391829003018186803b1580156131e857600080fd5b505af41580156131fc573d6000803e3d6000fd5b5050505061327f565b6001600160a01b0382166000908152603860205260408082208151630ea746e560e41b81526004810191909152905173__$26aba8fee459e9e1a5346aa6cb9fef744f$__9263ea746e509260248082019391829003018186803b15801561326b57600080fd5b505af4158015611a28573d6000803e3d6000fd5b5050565b6035546001600160a01b031633146132cc5760405162461bcd60e51b815260040180806020018281038252602a815260200180615dfe602a913960400191505060405180910390fd5b60365460408051634f425fbb60e01b81526001600160a01b03878116600483015291519190921691634f425fbb9160248083019260209291908290030181600087803b15801561331b57600080fd5b505af115801561332f573d6000803e3d6000fd5b505050506040513d602081101561334557600080fd5b50506001600160a01b0384166000908152603860205260409020613368906141b9565b61337484836000614339565b8015612b5e57612b5e84846001611e8f565b6001600160a01b031660009081526038602052604090206008015490565b60006133ae614f9f565b60015490915060ff16806133c557506133c5614fa4565b806133d1575060005481115b61340c5760405162461bcd60e51b815260040180806020018281038252602e815260200180615dd0602e913960400191505060405180910390fd5b60015460ff1615801561342b576001805460ff19168117905560008290555b603480546001600160a01b0319166001600160a01b03851617905561344e614957565b8015611c90576001805460ff19169055505050565b6001600160a01b031660009081526038602052604090206002810154600f820154601083015460039093015491939092916301000000900460ff1690565b6034546001600160a01b031681565b6035546001600160a01b031633146134f95760405162461bcd60e51b815260040180806020018281038252602a815260200180615dfe602a913960400191505060405180910390fd5b806135026145b3565b6001600160a01b0316856001600160a01b0316146135775734156135575760405162461bcd60e51b815260040180806020018281038252605f815260200180615d10605f913960600191505060405180910390fd5b6135726001600160a01b03861685838663ffffffff6145cb16565b6115f0565b823410156135b65760405162461bcd60e51b8152600401808060200182810382526035815260200180615bfb6035913960400191505060405180910390fd5b6040516000906001600160a01b0383169061c35090869084818181858888f193505050503d8060008114613606576040519150601f19603f3d011682016040523d82523d6000602084013e61360b565b606091505b5050905080611a28576040805162461bcd60e51b8152602060048201526016602482015275151c985b9cd9995c881bd9881155120819985a5b195960521b604482015290519081900360640190fd5b6001600160a01b03166000908152603860205260409020600301546301000000900460ff1690565b6001600160a01b0381166000908152603860205260408120816136a482614596565b9050806136b657600092505050611506565b60006136c185612bbe565b90506136e36136d6828463ffffffff61428416565b839063ffffffff614cf016565b95945050505050565b6036546001600160a01b031681565b6035546001600160a01b031681565b6001600160a01b0381166000908152603860205260408120611cb681614faa565b6035546001600160a01b031633146137745760405162461bcd60e51b815260040180806020018281038252602a815260200180615dfe602a913960400191505060405180910390fd5b60365460408051630f8a56cd60e31b81526001600160a01b03898116600483015291519190921691637c52b6689160248083019260209291908290030181600087803b1580156137c357600080fd5b505af11580156137d7573d6000803e3d6000fd5b505050506040513d60208110156137ed57600080fd5b50506001600160a01b03808716600090815260386020526040808220548151631e77d68b60e01b8152898516600482015291519316928392631e77d68b926024808201939182900301818387803b15801561384757600080fd5b505af115801561385b573d6000803e3d6000fd5b5050505061386b87878786614feb565b61387987878787878761504f565b61388587866000614339565b50505050505050565b6001600160a01b031660009081526038602052604090206002015490565b6001600160a01b0383811660008181526038602090815260408083209487168352603982528083209383529290529081206003830154919291640100000000900460ff166138ff57600092505050611cb6565b805460ff16158061391c575060038201546301000000900460ff16155b8061392f575061392c86866116c4565b84115b9695505050505050565b603454604080516385c858b160e01b8152905133926001600160a01b0316916385c858b1916004808301926020929190829003018186803b15801561397d57600080fd5b505afa158015613991573d6000803e3d6000fd5b505050506040513d60208110156139a757600080fd5b50516001600160a01b0316146139ee5760405162461bcd60e51b8152600401808060200182810382526038815260200180615ed06038913960400191505060405180910390fd5b6001600160a01b038416600090815260386020526040808220815163897c124760e01b81526004810191909152602481018690526044810185905260648101849052905173__$26aba8fee459e9e1a5346aa6cb9fef744f$__9263897c12479260848082019391829003018186803b158015613a6957600080fd5b505af4158015613a7d573d6000803e3d6000fd5b5050505050505050565b603454604080516385c858b160e01b8152905133926001600160a01b0316916385c858b1916004808301926020929190829003018186803b158015613acb57600080fd5b505afa158015613adf573d6000803e3d6000fd5b505050506040513d6020811015613af557600080fd5b50516001600160a01b031614613b3c5760405162461bcd60e51b8152600401808060200182810382526038815260200180615ed06038913960400191505060405180910390fd5b6001600160a01b038116600090815260386020526040808220815163df5d411360e01b81526004810191909152905173__$26aba8fee459e9e1a5346aa6cb9fef744f$__9263df5d41139260248082019391829003018186803b158015613ba257600080fd5b505af41580156115f0573d6000803e3d6000fd5b6001600160a01b0380821660009081526039602090815260408083209386168352929052205460ff1692915050565b6001600160a01b031660009081526038602052604090206011015490565b60355460009081906001600160a01b03163314613c515760405162461bcd60e51b815260040180806020018281038252602a815260200180615dfe602a913960400191505060405180910390fd5b60365460408051630f8a56cd60e31b81526001600160a01b038b8116600483015291519190921691637c52b6689160248083019260209291908290030181600087803b158015613ca057600080fd5b505af1158015613cb4573d6000803e3d6000fd5b505050506040513d6020811015613cca57600080fd5b50506001600160a01b03808916600090815260386020526040808220548151631e77d68b60e01b81528b8516600482015291519316928392631e77d68b926024808201939182900301818387803b158015613d2457600080fd5b505af1158015613d38573d6000803e3d6000fd5b50505050613d498989898988615142565b6000613d578a8a8888615241565b9050613d658a600080614339565b80613d708b8b6148c5565b935093505050965096945050505050565b6001600160a01b0380821660009081526039602090815260408083209386168352929052206003015492915050565b603454604080516385c858b160e01b8152905133926001600160a01b0316916385c858b1916004808301926020929190829003018186803b158015613df457600080fd5b505afa158015613e08573d6000803e3d6000fd5b505050506040513d6020811015613e1e57600080fd5b50516001600160a01b031614613e655760405162461bcd60e51b8152600401808060200182810382526038815260200180615ed06038913960400191505060405180910390fd5b6001600160a01b03821660009081526038602052604090208115613e995760038101805461ff001916610100179055611c90565b600301805461ff00191690555050565b6035546001600160a01b03163314613ef25760405162461bcd60e51b815260040180806020018281038252602a815260200180615dfe602a913960400191505060405180910390fd5b613efa6145b3565b6001600160a01b0316836001600160a01b031614613f2c57611b8b6001600160a01b038416838363ffffffff614d3916565b6040516000906001600160a01b0384169061c35090849084818181858888f193505050503d8060008114613f7c576040519150601f19603f3d011682016040523d82523d6000602084013e613f81565b606091505b5050905080612b5e576040805162461bcd60e51b8152602060048201526016602482015275151c985b9cd9995c881bd9881155120819985a5b195960521b604482015290519081900360640190fd5b6001600160a01b03166000908152603860205260409020600a015490565b6001600160a01b03808316600081815260386020908152604080832094861683526039825280832093835292905290812090918291829182918261403289896116c4565b90508160010154600014156140595790549095506000945084935060ff1691506140819050565b8061406a838563ffffffff614d8b16565b6004840154935491985096509194505060ff169150505b92959194509250565b6037818154811061409757fe5b6000918252602090912001546001600160a01b0316905081565b6001600160a01b031660009081526038602052604090206012015464ffffffffff1690565b60345460408051630145d02f60e41b815290516000926001600160a01b03169163145d02f0916004808301926020929190829003018186803b15801561411b57600080fd5b505afa15801561412f573d6000803e3d6000fd5b505050506040513d602081101561414557600080fd5b505190506141516145b3565b6001600160a01b0316836001600160a01b03161461418357611b8b6001600160a01b038416828463ffffffff614d3916565b6040516001600160a01b0382169083156108fc029084906000818181858888f19350505050158015612b5e573d6000803e3d6000fd5b60006141c482614596565b9050801561327f57600682015460128301546000916141e99164ffffffffff166153c4565b905061420283600c015482614cac90919063ffffffff16565b600c840155600783015460128401546000916142249164ffffffffff166153c4565b905061423d84600d015482614cac90919063ffffffff16565b600d8501556004840154601285015460009161425f9164ffffffffff1661540f565b905061427885600b015482614cac90919063ffffffff16565b600b8601555050505050565b600082820183811015611cb6576040805162461bcd60e51b815260206004820152601b60248201527f536166654d6174683a206164646974696f6e206f766572666c6f770000000000604482015290519081900360640190fd5b60006142f56142ec84614c96565b61279684614c96565b90506000614311614304615460565b839063ffffffff61428416565b905061432a85600c015482614cac90919063ffffffff16565b85600c01819055505050505050565b6001600160a01b03808416600090815260386020526040812060018101549092829182918291166357e37af089614383896143778c612a1685612bbe565b9063ffffffff61462516565b886008015489600901548a600a01546040518663ffffffff1660e01b815260040180866001600160a01b03166001600160a01b031681526020018581526020018481526020018381526020018281526020019550505050505060806040518083038186803b1580156143f457600080fd5b505afa158015614408573d6000803e3d6000fd5b505050506040513d608081101561441e57600080fd5b50805160208083015160408085015160609586015160068c0186905560058c0184905560048c0182905560078c0181905560128c01805464ffffffffff421664ffffffffff19909116179055600c8c0154600b8d0154600d8e01548551898152978801879052878601859052988701839052608087019190915260a086015260c0850196909652905193985090965094509192506001600160a01b038a16917f8d04e21dd03921cfd1f7e6f5cd09aa622f50b2edaa2893e1d308f096c44d2a4a919081900360e00190a25050505050505050565b6000805b60375481101561453f57826001600160a01b03166037828154811061451757fe5b6000918252602090912001546001600160a01b0316141561453757600191505b6001016144f6565b508061327f57603780546001810182556000919091527f42a7b7dd785cd69714a189dffb3fd7d7174edc9ece837694ce50f7078f7c31ae0180546001600160a01b0384166001600160a01b03199091161790555050565b600061174e8260090154836008015461428490919063ffffffff16565b73eeeeeeeeeeeeeeeeeeeeeeeeeeeeeeeeeeeeeeee90565b604080516001600160a01b0385811660248301528416604482015260648082018490528251808303909101815260849091019091526020810180516001600160e01b03166323b872dd60e01b179052612b5e908590615470565b6000611cb683836040518060400160405280601e81526020017f536166654d6174683a207375627472616374696f6e206f766572666c6f770000815250615628565b600c810154600682015460128301546000928392611cb69261278a919064ffffffffff166153c4565b600a810154601282015460009182916146b0919064ffffffffff1661540f565b90506000611a806127a28361278a8760080154614c96565b6001600160a01b03861660009081526038602052604090206146e9906141b9565b611a288686868686866156bf565b6001600160a01b038087166000818152603860209081526040808320948a1683526039825280832093835292905220600183600281111561473457fe5b14156147505760058201546002820155600060038201556147c7565b600283600281111561475e57fe5b141561477a5760006002820155600b82015460038201556147c7565b6040805162461bcd60e51b815260206004820152601860248201527f496e76616c696420626f72726f772072617465206d6f64650000000000000000604482015290519081900360640190fd5b6147e285612a1688846001015461428490919063ffffffff16565b60018201556001600160a01b0380891660009081526038602052604090205416806367e6aeed896148198a8a63ffffffff61428416565b60006040518463ffffffff1660e01b815260040180846001600160a01b03166001600160a01b031681526020018381526020018281526020019350505050600060405180830381600087803b15801561487157600080fd5b505af1158015614885573d6000803e3d6000fd5b505050600483015461489e91508663ffffffff61428416565b600483015550600501805464ffffffffff19164264ffffffffff1617905550505050505050565b6000806148d28484611a30565b905060008160028111156148e257fe5b14156148f257600091505061174e565b600181600281111561490057fe5b14614926576001600160a01b038416600090815260386020526040902060040154611a80565b50506001600160a01b0390811660009081526039602090815260408083209490931682529290925290206002015490565b603460009054906101000a90046001600160a01b03166001600160a01b0316630261bf8b6040518163ffffffff1660e01b815260040160206040518083038186803b1580156149a557600080fd5b505afa1580156149b9573d6000803e3d6000fd5b505050506040513d60208110156149cf57600080fd5b5051603580546001600160a01b0319166001600160a01b039283161790556034546040805163a0375c6d60e01b81529051919092169163a0375c6d916004808301926020929190829003018186803b158015614a2a57600080fd5b505afa158015614a3e573d6000803e3d6000fd5b505050506040513d6020811015614a5457600080fd5b5051603680546001600160a01b0319166001600160a01b03909216919091179055565b6001600160a01b03808516600081815260386020908152604080832094881683526039825280832093835292905220614aaf826141b9565b6000614abb8787611a30565b905060015b816002811115614acc57fe5b1415614b07576002820154614aea908490869063ffffffff61582616565b6002820154614b02908490879063ffffffff61589616565b613885565b614b17838563ffffffff6159a116565b613885838663ffffffff6159c216565b6001600160a01b0381166000908152603860205260409020614b48906141b9565b50565b6001600160a01b0380851660008181526039602090815260408083208a8616845282528083206038909252808320805482516367e6aeed60e01b8152600481019690965260248601889052604486018a905291519295909491169283926367e6aeed92606480820193929182900301818387803b158015614bcb57600080fd5b505af1158015614bdf573d6000803e3d6000fd5b50505050614bfe8661437786866001015461428490919063ffffffff16565b60018401556002614c0f8989611a30565b6002811115614c1a57fe5b1415614c2b57600b82015460038401555b8415614c4c576004830154614c46908663ffffffff61462516565b60048401555b5050600501805464ffffffffff19164264ffffffffff161790555050505050565b600d810154600782015460128301546000928392611cb69261278a919064ffffffffff166153c4565b600061174e82633b9aca0063ffffffff615a1a16565b6000611cb66b033b2e3c9fd0803ce8000000614ce4614cd1868663ffffffff615a1a16565b6b019d971e4fe8401e7400000090614284565b9063ffffffff615a7316565b600060028204611a8083614ce4614d13876b033b2e3c9fd0803ce8000000615a1a565b849063ffffffff61428416565b6000631dcd6500611cb6633b9aca00614ce48386614284565b604080516001600160a01b038416602482015260448082018490528251808303909101815260649091019091526020810180516001600160e01b031663a9059cbb60e01b179052611c90908490615470565b6000826001015460001415614da25750600061174e565b6000614db18460010154614c96565b6002850154909150600090819015614de55760028601546005870154614dde919064ffffffffff1661540f565b9050614e1b565b614e18866003015461279687600b015461278a89600401548a60120160009054906101000a900464ffffffffff1661540f565b90505b614e2e6127a2848363ffffffff614cac16565b91508560010154821415614e6d57600586015464ffffffffff164214614e6d57600186810154614e639163ffffffff61428416565b935050505061174e565b50949350505050565b6001600160a01b03808416600081815260386020908152604080832094871683526039825280832093835292905220614eae826141b9565b60028101546115f0908390859063ffffffff61582616565b6001600160a01b038083166000818152603960209081526040808320888616845282528083206038909252808320805482516367e6aeed60e01b81526004810196909652602486018890526044860185905291519295909491169283926367e6aeed92606480820193929182900301818387803b158015614f4657600080fd5b505af1158015614f5a573d6000803e3d6000fd5b5050506001840154614f7391508563ffffffff61428416565b600184015550600590810154600283015501805464ffffffffff19164264ffffffffff16179055505050565b600490565b303b1590565b600b810154600482015460128301546000928392614fd39261278a919064ffffffffff1661540f565b90506000611a806127a28361278a8760090154614c96565b6001600160a01b038085166000908152603860209081526040808320603983528184209488168452939091528120906150248787611a30565b6001600160a01b0388166000908152603860205260409020909150615048906141b9565b6001614ac0565b6001600160a01b0380871660008181526038602081815260408084208b87168086526039845282862096865295835281852093909252815481516367e6aeed60e01b8152600481019690965260248601899052604486018b905290519195929492169283926367e6aeed926064808301939282900301818387803b1580156150d657600080fd5b505af11580156150ea573d6000803e3d6000fd5b505050506151098761437787856001015461428490919063ffffffff16565b6001830155600b8301546003830155831561512d5760006002830181905560038301555b600482015461489e908763ffffffff61462516565b6001600160a01b0380861660008181526038602090815260408083209489168352603982528083209383529290522061517a826141b9565b600183600281111561518857fe5b14156151ba5760028101546151a483878363ffffffff61589616565b6151b4838663ffffffff6159a116565b50613885565b60028360028111156151c857fe5b14156151f45760058201546151e3838763ffffffff6159c216565b6151b483868363ffffffff61582616565b6040805162461bcd60e51b815260206004820152601a60248201527f496e76616c69642072617465206d6f6465207265636569766564000000000000604482015290519081900360640190fd5b6001600160a01b0380841660009081526039602090815260408083209388168352928152828220603890915291812090919082600285600281111561528257fe5b14156152a1575060058101546002830155600060038301556001615307565b60018560028111156152af57fe5b14156152d057506000600283810191909155600b8201546003840155615307565b60405162461bcd60e51b8152600401808060200182810382526023815260200180615e836023913960400191505060405180910390fd5b6001600160a01b038089166000908152603860205260408082205481516367e6aeed60e01b81528b85166004820152602481018b905260448101849052915193169283926367e6aeed926064808201939182900301818387803b15801561536d57600080fd5b505af1158015615381573d6000803e3d6000fd5b505050600185015461539a91508863ffffffff61428416565b6001850155506005909201805464ffffffffff19164264ffffffffff161790555095945050505050565b6000806153de4264ffffffffff851663ffffffff61462516565b905060006153f26142ec6301e13380614c96565b90506136e36153ff615460565b612a16878463ffffffff614cac16565b6000806154294264ffffffffff851663ffffffff61462516565b90506000615441856301e1338063ffffffff615a7316565b9050600061392f836154546115ab615460565b9063ffffffff615ab516565b6b033b2e3c9fd0803ce800000090565b615482826001600160a01b0316611501565b6154d3576040805162461bcd60e51b815260206004820152601f60248201527f5361666545524332303a2063616c6c20746f206e6f6e2d636f6e747261637400604482015290519081900360640190fd5b60006060836001600160a01b0316836040518082805190602001908083835b602083106155115780518252601f1990920191602091820191016154f2565b6001836020036101000a0380198251168184511680821785525050505050509050019150506000604051808303816000865af19150503d8060008114615573576040519150601f19603f3d011682016040523d82523d6000602084013e615578565b606091505b5091509150816155cf576040805162461bcd60e51b815260206004820181905260248201527f5361666545524332303a206c6f772d6c6576656c2063616c6c206661696c6564604482015290519081900360640190fd5b805115612b5e578080602001905160208110156155eb57600080fd5b5051612b5e5760405162461bcd60e51b815260040180806020018281038252602a815260200180615ea6602a913960400191505060405180910390fd5b600081848411156156b75760405162461bcd60e51b81526004018080602001828103825283818151815260200191508051906020019080838360005b8381101561567c578181015183820152602001615664565b50505050905090810190601f1680156156a95780820380516001836020036101000a031916815260200191505b509250505060405180910390fd5b505050900390565b60006156cb8787611a30565b6001600160a01b038816600090815260386020526040902090915060018260028111156156f457fe5b141561573d576001600160a01b038088166000908152603960209081526040808320938c168352929052206002810154615737908390899063ffffffff61589616565b50615761565b600282600281111561574b57fe5b141561576157615761818763ffffffff6159c216565b600061577785612a16898963ffffffff61428416565b9050600184600281111561578757fe5b14156157aa5760058201546157a5908390839063ffffffff61582616565b61581b565b60028460028111156157b857fe5b14156157ce576157a5828263ffffffff6159a116565b6040805162461bcd60e51b815260206004820152601c60248201527f496e76616c6964206e657720626f72726f772072617465206d6f646500000000604482015290519081900360640190fd5b505050505050505050565b600883015461583b818463ffffffff61428416565b6008850155600061584f8361278a86614c96565b9050600061586486600a015461278a85614c96565b90506158866158768760080154614c96565b612796848463ffffffff61428416565b86600a0181905550505050505050565b81836008015410156158ef576040805162461bcd60e51b815260206004820152601a60248201527f496e76616c696420616d6f756e7420746f206465637265617365000000000000604482015290519081900360640190fd5b6008830154615904818463ffffffff61462516565b6008850181905561591c57506000600a840155611c90565b600061592b8361278a86614c96565b9050600061594086600a015461278a85614c96565b9050818110156159815760405162461bcd60e51b8152600401808060200182810382526023815260200180615c666023913960400191505060405180910390fd5b6158866159918760080154614c96565b612796838563ffffffff61462516565b60098201546159b6908263ffffffff61428416565b82600901819055505050565b8082600901541015615a055760405162461bcd60e51b8152600401808060200182810382526050815260200180615bab6050913960600191505060405180910390fd5b60098201546159b6908263ffffffff61462516565b600082615a295750600061174e565b82820282848281615a3657fe5b0414611cb65760405162461bcd60e51b8152600401808060200182810382526021815260200180615daf6021913960400191505060405180910390fd5b6000611cb683836040518060400160405280601a81526020017f536166654d6174683a206469766973696f6e206279207a65726f000000000000815250615b0f565b600060028206615ad1576b033b2e3c9fd0803ce8000000615ad3565b825b90506002820491505b811561174e57615aec8384614cac565b92506002820615615b0457615b018184614cac565b90505b600282049150615adc565b60008183615b5e5760405162461bcd60e51b815260206004820181815283516024840152835190928392604490910191908501908083836000831561567c578181015183820152602001615664565b506000838581615b6a57fe5b049594505050505056fe466565206c69717569646174696f6e20646f6573206e6f74207265717569726520616e79207472616e73666572206f662076616c756554686520616d6f756e742074686174206973206265696e6720737562747261637465642066726f6d20746865207661726961626c6520746f74616c20626f72726f777320697320696e636f727265637454686520616d6f756e7420616e64207468652076616c75652073656e7420746f206465706f73697420646f206e6f74206d617463684f6e6c7920636f6e7472616374732063616e2073656e6420657468657220746f20746865204c656e64696e6720706f6f6c20636f726554686520616d6f756e747320746f20737562747261637420646f6e2774206d6174636853494748205374616b696e6720636f6e74726163742061646472657373206e6f74207365742070726f7065726c79557365722069732073656e64696e672045544820616c6f6e67207769746820746865204552433230207472616e736665722e496e737472756d656e7420686173206e6f74206265656e20696e697469616c697a656420796574557365722069732073656e64696e672045544820616c6f6e67207769746820746865204552433230207472616e736665722e20436865636b207468652076616c756520617474726962757465206f6620746865207472616e73616374696f6e536967682053747265616d2041646472657373206661696c656420746f2062652070726f7065726c7920696e697469616c697a656420696e2049544f4b454e20536166654d6174683a206d756c7469706c69636174696f6e206f766572666c6f77436f6e747261637420696e7374616e63652068617320616c7265616479206265656e20696e697469616c697a65645468652063616c6c6572206d7573742062652061206c656e64696e6720706f6f6c20636f6e7472616374496e737472756d656e74206661696c656420746f2062652070726f7065726c7920616464656420746f20746865206c697374206f6620496e737472756d656e747320737570706f7274656420627920534947482046696e616e6365496e76616c696420696e7465726573742072617465206d6f64652072656365697665645361666545524332303a204552433230206f7065726174696f6e20646964206e6f7420737563636565645468652063616c6c6572206d75737420626520746865206c656e64696e6720706f6f6c20636f6e666967757261746f72206163636f756e74a265627a7a72315820a04faa2edecab16b0ae6f16ebdeb10521f184f43da2cca78e04199fc82b2f62464736f6c63430005110032",
			"opcodes": "PUSH1 0x80 PUSH1 0x40 MSTORE PUSH1 0x0 DUP1 SSTORE CALLVALUE DUP1 ISZERO PUSH2 0x14 JUMPI PUSH1 0x0 DUP1 REVERT JUMPDEST POP PUSH2 0x5F3C DUP1 PUSH3 0x25 PUSH1 0x0 CODECOPY PUSH1 0x0 RETURN INVALID PUSH1 0x80 PUSH1 0x40 MSTORE PUSH1 0x4 CALLDATASIZE LT PUSH2 0x410 JUMPI PUSH1 0x0 CALLDATALOAD PUSH1 0xE0 SHR DUP1 PUSH4 0x908593CA GT PUSH2 0x21E JUMPI DUP1 PUSH4 0xD34651E7 GT PUSH2 0x123 JUMPI DUP1 PUSH4 0xF11C4594 GT PUSH2 0xAB JUMPI DUP1 PUSH4 0xFA93B2A5 GT PUSH2 0x7A JUMPI DUP1 PUSH4 0xFA93B2A5 EQ PUSH2 0x13D9 JUMPI DUP1 PUSH4 0xFBAB2405 EQ PUSH2 0x141C JUMPI DUP1 PUSH4 0xFCFE58C8 EQ PUSH2 0x144F JUMPI DUP1 PUSH4 0xFF6AD9D3 EQ PUSH2 0x148A JUMPI DUP1 PUSH4 0xFFA388B0 EQ PUSH2 0x14B4 JUMPI PUSH2 0x410 JUMP JUMPDEST DUP1 PUSH4 0xF11C4594 EQ PUSH2 0x12AC JUMPI DUP1 PUSH4 0xF6148311 EQ PUSH2 0x12DF JUMPI DUP1 PUSH4 0xF6EA8D76 EQ PUSH2 0x1363 JUMPI DUP1 PUSH4 0xFA2968C3 EQ PUSH2 0x139E JUMPI PUSH2 0x410 JUMP JUMPDEST DUP1 PUSH4 0xDC08D848 GT PUSH2 0xF2 JUMPI DUP1 PUSH4 0xDC08D848 EQ PUSH2 0x1183 JUMPI DUP1 PUSH4 0xE2174D86 EQ PUSH2 0x11B6 JUMPI DUP1 PUSH4 0xE6DF474E EQ PUSH2 0x11F9 JUMPI DUP1 PUSH4 0xEA84C1BA EQ PUSH2 0x123E JUMPI DUP1 PUSH4 0xEE9C2281 EQ PUSH2 0x1271 JUMPI PUSH2 0x410 JUMP JUMPDEST DUP1 PUSH4 0xD34651E7 EQ PUSH2 0x10CF JUMPI DUP1 PUSH4 0xD3AE26B3 EQ PUSH2 0x10E4 JUMPI DUP1 PUSH4 0xD62C202C EQ PUSH2 0x10F9 JUMPI DUP1 PUSH4 0xDA12D96F EQ PUSH2 0x112C JUMPI PUSH2 0x410 JUMP JUMPDEST DUP1 PUSH4 0xB94CC1A9 GT PUSH2 0x1A6 JUMPI DUP1 PUSH4 0xC619ADAC GT PUSH2 0x175 JUMPI DUP1 PUSH4 0xC619ADAC EQ PUSH2 0xFBD JUMPI DUP1 PUSH4 0xC72C4D10 EQ PUSH2 0x1018 JUMPI DUP1 PUSH4 0xC7D14237 EQ PUSH2 0x102D JUMPI DUP1 PUSH4 0xD0C55548 EQ PUSH2 0x1069 JUMPI DUP1 PUSH4 0xD1C4C0FA EQ PUSH2 0x109C JUMPI PUSH2 0x410 JUMP JUMPDEST DUP1 PUSH4 0xB94CC1A9 EQ PUSH2 0xED1 JUMPI DUP1 PUSH4 0xBCD6FFA4 EQ PUSH2 0xF0C JUMPI DUP1 PUSH4 0xC172350B EQ PUSH2 0xF57 JUMPI DUP1 PUSH4 0xC4D66DE8 EQ PUSH2 0xF8A JUMPI PUSH2 0x410 JUMP JUMPDEST DUP1 PUSH4 0x9FB8AFCD GT PUSH2 0x1ED JUMPI DUP1 PUSH4 0x9FB8AFCD EQ PUSH2 0xD84 JUMPI DUP1 PUSH4 0xAAFA6DE0 EQ PUSH2 0xDDD JUMPI DUP1 PUSH4 0xAEA3B07E EQ PUSH2 0xE10 JUMPI DUP1 PUSH4 0xAF825B07 EQ PUSH2 0xE43 JUMPI DUP1 PUSH4 0xAFCDBEA3 EQ PUSH2 0xE86 JUMPI PUSH2 0x410 JUMP JUMPDEST DUP1 PUSH4 0x908593CA EQ PUSH2 0xCB8 JUMPI DUP1 PUSH4 0x90CC4E85 EQ PUSH2 0xCEB JUMPI DUP1 PUSH4 0x959FC3E5 EQ PUSH2 0xD1E JUMPI DUP1 PUSH4 0x9F15D5C6 EQ PUSH2 0xD51 JUMPI PUSH2 0x410 JUMP JUMPDEST DUP1 PUSH4 0x4375DDAE GT PUSH2 0x324 JUMPI DUP1 PUSH4 0x68BEB4D6 GT PUSH2 0x2AC JUMPI DUP1 PUSH4 0x72E8D22A GT PUSH2 0x27B JUMPI DUP1 PUSH4 0x72E8D22A EQ PUSH2 0xBAE JUMPI DUP1 PUSH4 0x75D87ACC EQ PUSH2 0xBE9 JUMPI DUP1 PUSH4 0x792A0FEB EQ PUSH2 0xC1C JUMPI DUP1 PUSH4 0x8BB3A3C4 EQ PUSH2 0xC4F JUMPI DUP1 PUSH4 0x8F385C22 EQ PUSH2 0xC82 JUMPI PUSH2 0x410 JUMP JUMPDEST DUP1 PUSH4 0x68BEB4D6 EQ PUSH2 0xA9A JUMPI DUP1 PUSH4 0x6F0D264B EQ PUSH2 0xB05 JUMPI DUP1 PUSH4 0x6F7DAFCB EQ PUSH2 0xB40 JUMPI DUP1 PUSH4 0x6FFFAB0C EQ PUSH2 0xB73 JUMPI PUSH2 0x410 JUMP JUMPDEST DUP1 PUSH4 0x5610992A GT PUSH2 0x2F3 JUMPI DUP1 PUSH4 0x5610992A EQ PUSH2 0x9A9 JUMPI DUP1 PUSH4 0x5CFDD994 EQ PUSH2 0x9E4 JUMPI DUP1 PUSH4 0x609CB289 EQ PUSH2 0xA17 JUMPI DUP1 PUSH4 0x64681083 EQ PUSH2 0xA4A JUMPI DUP1 PUSH4 0x66D103F3 EQ PUSH2 0xA5F JUMPI PUSH2 0x410 JUMP JUMPDEST DUP1 PUSH4 0x4375DDAE EQ PUSH2 0x8B1 JUMPI DUP1 PUSH4 0x44D0A7BC EQ PUSH2 0x8F6 JUMPI DUP1 PUSH4 0x480222EB EQ PUSH2 0x93B JUMPI DUP1 PUSH4 0x54E66562 EQ PUSH2 0x976 JUMPI PUSH2 0x410 JUMP JUMPDEST DUP1 PUSH4 0x18F9749A GT PUSH2 0x3A7 JUMPI DUP1 PUSH4 0x28FCF4D3 GT PUSH2 0x376 JUMPI DUP1 PUSH4 0x28FCF4D3 EQ PUSH2 0x776 JUMPI DUP1 PUSH4 0x2B0475E1 EQ PUSH2 0x7AC JUMPI DUP1 PUSH4 0x2C8DCF3F EQ PUSH2 0x7DF JUMPI DUP1 PUSH4 0x37AC6FE4 EQ PUSH2 0x812 JUMPI DUP1 PUSH4 0x3C035866 EQ PUSH2 0x87E JUMPI PUSH2 0x410 JUMP JUMPDEST DUP1 PUSH4 0x18F9749A EQ PUSH2 0x65E JUMPI DUP1 PUSH4 0x1CA19F19 EQ PUSH2 0x6B1 JUMPI DUP1 PUSH4 0x245720EC EQ PUSH2 0x710 JUMPI DUP1 PUSH4 0x2706E94E EQ PUSH2 0x743 JUMPI PUSH2 0x410 JUMP JUMPDEST DUP1 PUSH4 0x10183A35 GT PUSH2 0x3E3 JUMPI DUP1 PUSH4 0x10183A35 EQ PUSH2 0x544 JUMPI DUP1 PUSH4 0x1635717C EQ PUSH2 0x58B JUMPI DUP1 PUSH4 0x1769BA31 EQ PUSH2 0x5F0 JUMPI DUP1 PUSH4 0x18A4DBCA EQ PUSH2 0x623 JUMPI PUSH2 0x410 JUMP JUMPDEST DUP1 PUSH4 0x7CE32A5 EQ PUSH2 0x456 JUMPI DUP1 PUSH4 0x9AC2953 EQ PUSH2 0x49B JUMPI DUP1 PUSH4 0xC7DE4E9 EQ PUSH2 0x4E0 JUMPI DUP1 PUSH4 0xFEB5D88 EQ PUSH2 0x4F5 JUMPI JUMPDEST PUSH2 0x419 CALLER PUSH2 0x1501 JUMP JUMPDEST PUSH2 0x454 JUMPI PUSH1 0x40 MLOAD PUSH3 0x461BCD PUSH1 0xE5 SHL DUP2 MSTORE PUSH1 0x4 ADD DUP1 DUP1 PUSH1 0x20 ADD DUP3 DUP2 SUB DUP3 MSTORE PUSH1 0x36 DUP2 MSTORE PUSH1 0x20 ADD DUP1 PUSH2 0x5C30 PUSH1 0x36 SWAP2 CODECOPY PUSH1 0x40 ADD SWAP2 POP POP PUSH1 0x40 MLOAD DUP1 SWAP2 SUB SWAP1 REVERT JUMPDEST STOP JUMPDEST CALLVALUE DUP1 ISZERO PUSH2 0x462 JUMPI PUSH1 0x0 DUP1 REVERT JUMPDEST POP PUSH2 0x489 PUSH1 0x4 DUP1 CALLDATASIZE SUB PUSH1 0x20 DUP2 LT ISZERO PUSH2 0x479 JUMPI PUSH1 0x0 DUP1 REVERT JUMPDEST POP CALLDATALOAD PUSH1 0x1 PUSH1 0x1 PUSH1 0xA0 SHL SUB AND PUSH2 0x150B JUMP JUMPDEST PUSH1 0x40 DUP1 MLOAD SWAP2 DUP3 MSTORE MLOAD SWAP1 DUP2 SWAP1 SUB PUSH1 0x20 ADD SWAP1 RETURN JUMPDEST CALLVALUE DUP1 ISZERO PUSH2 0x4A7 JUMPI PUSH1 0x0 DUP1 REVERT JUMPDEST POP PUSH2 0x454 PUSH1 0x4 DUP1 CALLDATASIZE SUB PUSH1 0x80 DUP2 LT ISZERO PUSH2 0x4BE JUMPI PUSH1 0x0 DUP1 REVERT JUMPDEST POP PUSH1 0x1 PUSH1 0x1 PUSH1 0xA0 SHL SUB DUP2 CALLDATALOAD AND SWAP1 PUSH1 0x20 DUP2 ADD CALLDATALOAD SWAP1 PUSH1 0x40 DUP2 ADD CALLDATALOAD SWAP1 PUSH1 0x60 ADD CALLDATALOAD PUSH2 0x1529 JUMP JUMPDEST CALLVALUE DUP1 ISZERO PUSH2 0x4EC JUMPI PUSH1 0x0 DUP1 REVERT JUMPDEST POP PUSH2 0x489 PUSH2 0x15F7 JUMP JUMPDEST CALLVALUE DUP1 ISZERO PUSH2 0x501 JUMPI PUSH1 0x0 DUP1 REVERT JUMPDEST POP PUSH2 0x528 PUSH1 0x4 DUP1 CALLDATASIZE SUB PUSH1 0x20 DUP2 LT ISZERO PUSH2 0x518 JUMPI PUSH1 0x0 DUP1 REVERT JUMPDEST POP CALLDATALOAD PUSH1 0x1 PUSH1 0x1 PUSH1 0xA0 SHL SUB AND PUSH2 0x15FC JUMP JUMPDEST PUSH1 0x40 DUP1 MLOAD PUSH1 0x1 PUSH1 0x1 PUSH1 0xA0 SHL SUB SWAP1 SWAP3 AND DUP3 MSTORE MLOAD SWAP1 DUP2 SWAP1 SUB PUSH1 0x20 ADD SWAP1 RETURN JUMPDEST CALLVALUE DUP1 ISZERO PUSH2 0x550 JUMPI PUSH1 0x0 DUP1 REVERT JUMPDEST POP PUSH2 0x577 PUSH1 0x4 DUP1 CALLDATASIZE SUB PUSH1 0x20 DUP2 LT ISZERO PUSH2 0x567 JUMPI PUSH1 0x0 DUP1 REVERT JUMPDEST POP CALLDATALOAD PUSH1 0x1 PUSH1 0x1 PUSH1 0xA0 SHL SUB AND PUSH2 0x161D JUMP JUMPDEST PUSH1 0x40 DUP1 MLOAD SWAP2 ISZERO ISZERO DUP3 MSTORE MLOAD SWAP1 DUP2 SWAP1 SUB PUSH1 0x20 ADD SWAP1 RETURN JUMPDEST CALLVALUE DUP1 ISZERO PUSH2 0x597 JUMPI PUSH1 0x0 DUP1 REVERT JUMPDEST POP PUSH2 0x5A0 PUSH2 0x1644 JUMP JUMPDEST PUSH1 0x40 DUP1 MLOAD PUSH1 0x20 DUP1 DUP3 MSTORE DUP4 MLOAD DUP2 DUP4 ADD MSTORE DUP4 MLOAD SWAP2 SWAP3 DUP4 SWAP3 SWAP1 DUP4 ADD SWAP2 DUP6 DUP2 ADD SWAP2 MUL DUP1 DUP4 DUP4 PUSH1 0x0 JUMPDEST DUP4 DUP2 LT ISZERO PUSH2 0x5DC JUMPI DUP2 DUP2 ADD MLOAD DUP4 DUP3 ADD MSTORE PUSH1 0x20 ADD PUSH2 0x5C4 JUMP JUMPDEST POP POP POP POP SWAP1 POP ADD SWAP3 POP POP POP PUSH1 0x40 MLOAD DUP1 SWAP2 SUB SWAP1 RETURN JUMPDEST CALLVALUE DUP1 ISZERO PUSH2 0x5FC JUMPI PUSH1 0x0 DUP1 REVERT JUMPDEST POP PUSH2 0x489 PUSH1 0x4 DUP1 CALLDATASIZE SUB PUSH1 0x20 DUP2 LT ISZERO PUSH2 0x613 JUMPI PUSH1 0x0 DUP1 REVERT JUMPDEST POP CALLDATALOAD PUSH1 0x1 PUSH1 0x1 PUSH1 0xA0 SHL SUB AND PUSH2 0x16A6 JUMP JUMPDEST CALLVALUE DUP1 ISZERO PUSH2 0x62F JUMPI PUSH1 0x0 DUP1 REVERT JUMPDEST POP PUSH2 0x489 PUSH1 0x4 DUP1 CALLDATASIZE SUB PUSH1 0x40 DUP2 LT ISZERO PUSH2 0x646 JUMPI PUSH1 0x0 DUP1 REVERT JUMPDEST POP PUSH1 0x1 PUSH1 0x1 PUSH1 0xA0 SHL SUB DUP2 CALLDATALOAD DUP2 AND SWAP2 PUSH1 0x20 ADD CALLDATALOAD AND PUSH2 0x16C4 JUMP JUMPDEST CALLVALUE DUP1 ISZERO PUSH2 0x66A JUMPI PUSH1 0x0 DUP1 REVERT JUMPDEST POP PUSH2 0x454 PUSH1 0x4 DUP1 CALLDATASIZE SUB PUSH1 0xA0 DUP2 LT ISZERO PUSH2 0x681 JUMPI PUSH1 0x0 DUP1 REVERT JUMPDEST POP PUSH1 0x1 PUSH1 0x1 PUSH1 0xA0 SHL SUB DUP2 CALLDATALOAD DUP2 AND SWAP2 PUSH1 0x20 DUP2 ADD CALLDATALOAD DUP3 AND SWAP2 PUSH1 0x40 DUP3 ADD CALLDATALOAD SWAP2 PUSH1 0x60 DUP2 ADD CALLDATALOAD DUP3 AND SWAP2 PUSH1 0x80 SWAP1 SWAP2 ADD CALLDATALOAD AND PUSH2 0x1754 JUMP JUMPDEST CALLVALUE DUP1 ISZERO PUSH2 0x6BD JUMPI PUSH1 0x0 DUP1 REVERT JUMPDEST POP PUSH2 0x6EC PUSH1 0x4 DUP1 CALLDATASIZE SUB PUSH1 0x40 DUP2 LT ISZERO PUSH2 0x6D4 JUMPI PUSH1 0x0 DUP1 REVERT JUMPDEST POP PUSH1 0x1 PUSH1 0x1 PUSH1 0xA0 SHL SUB DUP2 CALLDATALOAD DUP2 AND SWAP2 PUSH1 0x20 ADD CALLDATALOAD AND PUSH2 0x1A30 JUMP JUMPDEST PUSH1 0x40 MLOAD DUP1 DUP3 PUSH1 0x2 DUP2 GT ISZERO PUSH2 0x6FC JUMPI INVALID JUMPDEST PUSH1 0xFF AND DUP2 MSTORE PUSH1 0x20 ADD SWAP2 POP POP PUSH1 0x40 MLOAD DUP1 SWAP2 SUB SWAP1 RETURN JUMPDEST CALLVALUE DUP1 ISZERO PUSH2 0x71C JUMPI PUSH1 0x0 DUP1 REVERT JUMPDEST POP PUSH2 0x489 PUSH1 0x4 DUP1 CALLDATASIZE SUB PUSH1 0x20 DUP2 LT ISZERO PUSH2 0x733 JUMPI PUSH1 0x0 DUP1 REVERT JUMPDEST POP CALLDATALOAD PUSH1 0x1 PUSH1 0x1 PUSH1 0xA0 SHL SUB AND PUSH2 0x1A88 JUMP JUMPDEST CALLVALUE DUP1 ISZERO PUSH2 0x74F JUMPI PUSH1 0x0 DUP1 REVERT JUMPDEST POP PUSH2 0x577 PUSH1 0x4 DUP1 CALLDATASIZE SUB PUSH1 0x20 DUP2 LT ISZERO PUSH2 0x766 JUMPI PUSH1 0x0 DUP1 REVERT JUMPDEST POP CALLDATALOAD PUSH1 0x1 PUSH1 0x1 PUSH1 0xA0 SHL SUB AND PUSH2 0x1AA9 JUMP JUMPDEST PUSH2 0x454 PUSH1 0x4 DUP1 CALLDATASIZE SUB PUSH1 0x60 DUP2 LT ISZERO PUSH2 0x78C JUMPI PUSH1 0x0 DUP1 REVERT JUMPDEST POP PUSH1 0x1 PUSH1 0x1 PUSH1 0xA0 SHL SUB DUP2 CALLDATALOAD DUP2 AND SWAP2 PUSH1 0x20 DUP2 ADD CALLDATALOAD SWAP1 SWAP2 AND SWAP1 PUSH1 0x40 ADD CALLDATALOAD PUSH2 0x1ACA JUMP JUMPDEST CALLVALUE DUP1 ISZERO PUSH2 0x7B8 JUMPI PUSH1 0x0 DUP1 REVERT JUMPDEST POP PUSH2 0x489 PUSH1 0x4 DUP1 CALLDATASIZE SUB PUSH1 0x20 DUP2 LT ISZERO PUSH2 0x7CF JUMPI PUSH1 0x0 DUP1 REVERT JUMPDEST POP CALLDATALOAD PUSH1 0x1 PUSH1 0x1 PUSH1 0xA0 SHL SUB AND PUSH2 0x1C95 JUMP JUMPDEST CALLVALUE DUP1 ISZERO PUSH2 0x7EB JUMPI PUSH1 0x0 DUP1 REVERT JUMPDEST POP PUSH2 0x489 PUSH1 0x4 DUP1 CALLDATASIZE SUB PUSH1 0x20 DUP2 LT ISZERO PUSH2 0x802 JUMPI PUSH1 0x0 DUP1 REVERT JUMPDEST POP CALLDATALOAD PUSH1 0x1 PUSH1 0x1 PUSH1 0xA0 SHL SUB AND PUSH2 0x1CBD JUMP JUMPDEST CALLVALUE DUP1 ISZERO PUSH2 0x81E JUMPI PUSH1 0x0 DUP1 REVERT JUMPDEST POP PUSH2 0x865 PUSH1 0x4 DUP1 CALLDATASIZE SUB PUSH1 0xA0 DUP2 LT ISZERO PUSH2 0x835 JUMPI PUSH1 0x0 DUP1 REVERT JUMPDEST POP DUP1 CALLDATALOAD PUSH1 0x1 PUSH1 0x1 PUSH1 0xA0 SHL SUB SWAP1 DUP2 AND SWAP2 PUSH1 0x20 DUP2 ADD CALLDATALOAD SWAP1 SWAP2 AND SWAP1 PUSH1 0x40 DUP2 ADD CALLDATALOAD SWAP1 PUSH1 0x60 DUP2 ADD CALLDATALOAD SWAP1 PUSH1 0x80 ADD CALLDATALOAD PUSH1 0xFF AND PUSH2 0x1CDE JUMP JUMPDEST PUSH1 0x40 DUP1 MLOAD SWAP3 DUP4 MSTORE PUSH1 0x20 DUP4 ADD SWAP2 SWAP1 SWAP2 MSTORE DUP1 MLOAD SWAP2 DUP3 SWAP1 SUB ADD SWAP1 RETURN JUMPDEST CALLVALUE DUP1 ISZERO PUSH2 0x88A JUMPI PUSH1 0x0 DUP1 REVERT JUMPDEST POP PUSH2 0x489 PUSH1 0x4 DUP1 CALLDATASIZE SUB PUSH1 0x20 DUP2 LT ISZERO PUSH2 0x8A1 JUMPI PUSH1 0x0 DUP1 REVERT JUMPDEST POP CALLDATALOAD PUSH1 0x1 PUSH1 0x1 PUSH1 0xA0 SHL SUB AND PUSH2 0x1E71 JUMP JUMPDEST CALLVALUE DUP1 ISZERO PUSH2 0x8BD JUMPI PUSH1 0x0 DUP1 REVERT JUMPDEST POP PUSH2 0x454 PUSH1 0x4 DUP1 CALLDATASIZE SUB PUSH1 0x60 DUP2 LT ISZERO PUSH2 0x8D4 JUMPI PUSH1 0x0 DUP1 REVERT JUMPDEST POP PUSH1 0x1 PUSH1 0x1 PUSH1 0xA0 SHL SUB DUP2 CALLDATALOAD DUP2 AND SWAP2 PUSH1 0x20 DUP2 ADD CALLDATALOAD SWAP1 SWAP2 AND SWAP1 PUSH1 0x40 ADD CALLDATALOAD ISZERO ISZERO PUSH2 0x1E8F JUMP JUMPDEST CALLVALUE DUP1 ISZERO PUSH2 0x902 JUMPI PUSH1 0x0 DUP1 REVERT JUMPDEST POP PUSH2 0x454 PUSH1 0x4 DUP1 CALLDATASIZE SUB PUSH1 0x80 DUP2 LT ISZERO PUSH2 0x919 JUMPI PUSH1 0x0 DUP1 REVERT JUMPDEST POP PUSH1 0x1 PUSH1 0x1 PUSH1 0xA0 SHL SUB DUP2 CALLDATALOAD AND SWAP1 PUSH1 0x20 DUP2 ADD CALLDATALOAD SWAP1 PUSH1 0x40 DUP2 ADD CALLDATALOAD SWAP1 PUSH1 0x60 ADD CALLDATALOAD PUSH2 0x1F11 JUMP JUMPDEST CALLVALUE DUP1 ISZERO PUSH2 0x947 JUMPI PUSH1 0x0 DUP1 REVERT JUMPDEST POP PUSH2 0x454 PUSH1 0x4 DUP1 CALLDATASIZE SUB PUSH1 0x40 DUP2 LT ISZERO PUSH2 0x95E JUMPI PUSH1 0x0 DUP1 REVERT JUMPDEST POP PUSH1 0x1 PUSH1 0x1 PUSH1 0xA0 SHL SUB DUP2 CALLDATALOAD AND SWAP1 PUSH1 0x20 ADD CALLDATALOAD ISZERO ISZERO PUSH2 0x1FF2 JUMP JUMPDEST CALLVALUE DUP1 ISZERO PUSH2 0x982 JUMPI PUSH1 0x0 DUP1 REVERT JUMPDEST POP PUSH2 0x489 PUSH1 0x4 DUP1 CALLDATASIZE SUB PUSH1 0x20 DUP2 LT ISZERO PUSH2 0x999 JUMPI PUSH1 0x0 DUP1 REVERT JUMPDEST POP CALLDATALOAD PUSH1 0x1 PUSH1 0x1 PUSH1 0xA0 SHL SUB AND PUSH2 0x213A JUMP JUMPDEST CALLVALUE DUP1 ISZERO PUSH2 0x9B5 JUMPI PUSH1 0x0 DUP1 REVERT JUMPDEST POP PUSH2 0x454 PUSH1 0x4 DUP1 CALLDATASIZE SUB PUSH1 0x40 DUP2 LT ISZERO PUSH2 0x9CC JUMPI PUSH1 0x0 DUP1 REVERT JUMPDEST POP PUSH1 0x1 PUSH1 0x1 PUSH1 0xA0 SHL SUB DUP2 CALLDATALOAD DUP2 AND SWAP2 PUSH1 0x20 ADD CALLDATALOAD AND PUSH2 0x2158 JUMP JUMPDEST CALLVALUE DUP1 ISZERO PUSH2 0x9F0 JUMPI PUSH1 0x0 DUP1 REVERT JUMPDEST POP PUSH2 0x489 PUSH1 0x4 DUP1 CALLDATASIZE SUB PUSH1 0x20 DUP2 LT ISZERO PUSH2 0xA07 JUMPI PUSH1 0x0 DUP1 REVERT JUMPDEST POP CALLDATALOAD PUSH1 0x1 PUSH1 0x1 PUSH1 0xA0 SHL SUB AND PUSH2 0x223E JUMP JUMPDEST CALLVALUE DUP1 ISZERO PUSH2 0xA23 JUMPI PUSH1 0x0 DUP1 REVERT JUMPDEST POP PUSH2 0x489 PUSH1 0x4 DUP1 CALLDATASIZE SUB PUSH1 0x20 DUP2 LT ISZERO PUSH2 0xA3A JUMPI PUSH1 0x0 DUP1 REVERT JUMPDEST POP CALLDATALOAD PUSH1 0x1 PUSH1 0x1 PUSH1 0xA0 SHL SUB AND PUSH2 0x22EE JUMP JUMPDEST CALLVALUE DUP1 ISZERO PUSH2 0xA56 JUMPI PUSH1 0x0 DUP1 REVERT JUMPDEST POP PUSH2 0x454 PUSH2 0x230C JUMP JUMPDEST CALLVALUE DUP1 ISZERO PUSH2 0xA6B JUMPI PUSH1 0x0 DUP1 REVERT JUMPDEST POP PUSH2 0x489 PUSH1 0x4 DUP1 CALLDATASIZE SUB PUSH1 0x40 DUP2 LT ISZERO PUSH2 0xA82 JUMPI PUSH1 0x0 DUP1 REVERT JUMPDEST POP PUSH1 0x1 PUSH1 0x1 PUSH1 0xA0 SHL SUB DUP2 CALLDATALOAD DUP2 AND SWAP2 PUSH1 0x20 ADD CALLDATALOAD AND PUSH2 0x23CB JUMP JUMPDEST CALLVALUE DUP1 ISZERO PUSH2 0xAA6 JUMPI PUSH1 0x0 DUP1 REVERT JUMPDEST POP PUSH2 0x454 PUSH1 0x4 DUP1 CALLDATASIZE SUB PUSH2 0x120 DUP2 LT ISZERO PUSH2 0xABE JUMPI PUSH1 0x0 DUP1 REVERT JUMPDEST POP PUSH1 0x1 PUSH1 0x1 PUSH1 0xA0 SHL SUB DUP2 CALLDATALOAD DUP2 AND SWAP2 PUSH1 0x20 DUP2 ADD CALLDATALOAD DUP3 AND SWAP2 PUSH1 0x40 DUP3 ADD CALLDATALOAD AND SWAP1 PUSH1 0x60 DUP2 ADD CALLDATALOAD SWAP1 PUSH1 0x80 DUP2 ADD CALLDATALOAD SWAP1 PUSH1 0xA0 DUP2 ADD CALLDATALOAD SWAP1 PUSH1 0xC0 DUP2 ADD CALLDATALOAD SWAP1 PUSH1 0xE0 DUP2 ADD CALLDATALOAD SWAP1 PUSH2 0x100 ADD CALLDATALOAD ISZERO ISZERO PUSH2 0x2401 JUMP JUMPDEST CALLVALUE DUP1 ISZERO PUSH2 0xB11 JUMPI PUSH1 0x0 DUP1 REVERT JUMPDEST POP PUSH2 0x489 PUSH1 0x4 DUP1 CALLDATASIZE SUB PUSH1 0x40 DUP2 LT ISZERO PUSH2 0xB28 JUMPI PUSH1 0x0 DUP1 REVERT JUMPDEST POP PUSH1 0x1 PUSH1 0x1 PUSH1 0xA0 SHL SUB DUP2 CALLDATALOAD DUP2 AND SWAP2 PUSH1 0x20 ADD CALLDATALOAD AND PUSH2 0x260A JUMP JUMPDEST CALLVALUE DUP1 ISZERO PUSH2 0xB4C JUMPI PUSH1 0x0 DUP1 REVERT JUMPDEST POP PUSH2 0x454 PUSH1 0x4 DUP1 CALLDATASIZE SUB PUSH1 0x20 DUP2 LT ISZERO PUSH2 0xB63 JUMPI PUSH1 0x0 DUP1 REVERT JUMPDEST POP CALLDATALOAD PUSH1 0x1 PUSH1 0x1 PUSH1 0xA0 SHL SUB AND PUSH2 0x2639 JUMP JUMPDEST CALLVALUE DUP1 ISZERO PUSH2 0xB7F JUMPI PUSH1 0x0 DUP1 REVERT JUMPDEST POP PUSH2 0x489 PUSH1 0x4 DUP1 CALLDATASIZE SUB PUSH1 0x40 DUP2 LT ISZERO PUSH2 0xB96 JUMPI PUSH1 0x0 DUP1 REVERT JUMPDEST POP PUSH1 0x1 PUSH1 0x1 PUSH1 0xA0 SHL SUB DUP2 CALLDATALOAD DUP2 AND SWAP2 PUSH1 0x20 ADD CALLDATALOAD AND PUSH2 0x288F JUMP JUMPDEST CALLVALUE DUP1 ISZERO PUSH2 0xBBA JUMPI PUSH1 0x0 DUP1 REVERT JUMPDEST POP PUSH2 0x454 PUSH1 0x4 DUP1 CALLDATASIZE SUB PUSH1 0x40 DUP2 LT ISZERO PUSH2 0xBD1 JUMPI PUSH1 0x0 DUP1 REVERT JUMPDEST POP PUSH1 0x1 PUSH1 0x1 PUSH1 0xA0 SHL SUB DUP2 CALLDATALOAD AND SWAP1 PUSH1 0x20 ADD CALLDATALOAD ISZERO ISZERO PUSH2 0x28BE JUMP JUMPDEST CALLVALUE DUP1 ISZERO PUSH2 0xBF5 JUMPI PUSH1 0x0 DUP1 REVERT JUMPDEST POP PUSH2 0x577 PUSH1 0x4 DUP1 CALLDATASIZE SUB PUSH1 0x20 DUP2 LT ISZERO PUSH2 0xC0C JUMPI PUSH1 0x0 DUP1 REVERT JUMPDEST POP CALLDATALOAD PUSH1 0x1 PUSH1 0x1 PUSH1 0xA0 SHL SUB AND PUSH2 0x29C0 JUMP JUMPDEST CALLVALUE DUP1 ISZERO PUSH2 0xC28 JUMPI PUSH1 0x0 DUP1 REVERT JUMPDEST POP PUSH2 0x489 PUSH1 0x4 DUP1 CALLDATASIZE SUB PUSH1 0x20 DUP2 LT ISZERO PUSH2 0xC3F JUMPI PUSH1 0x0 DUP1 REVERT JUMPDEST POP CALLDATALOAD PUSH1 0x1 PUSH1 0x1 PUSH1 0xA0 SHL SUB AND PUSH2 0x29E9 JUMP JUMPDEST CALLVALUE DUP1 ISZERO PUSH2 0xC5B JUMPI PUSH1 0x0 DUP1 REVERT JUMPDEST POP PUSH2 0x577 PUSH1 0x4 DUP1 CALLDATASIZE SUB PUSH1 0x20 DUP2 LT ISZERO PUSH2 0xC72 JUMPI PUSH1 0x0 DUP1 REVERT JUMPDEST POP CALLDATALOAD PUSH1 0x1 PUSH1 0x1 PUSH1 0xA0 SHL SUB AND PUSH2 0x2A22 JUMP JUMPDEST PUSH2 0x454 PUSH1 0x4 DUP1 CALLDATASIZE SUB PUSH1 0x60 DUP2 LT ISZERO PUSH2 0xC98 JUMPI PUSH1 0x0 DUP1 REVERT JUMPDEST POP PUSH1 0x1 PUSH1 0x1 PUSH1 0xA0 SHL SUB DUP2 CALLDATALOAD DUP2 AND SWAP2 PUSH1 0x20 DUP2 ADD CALLDATALOAD SWAP2 PUSH1 0x40 SWAP1 SWAP2 ADD CALLDATALOAD AND PUSH2 0x2A48 JUMP JUMPDEST CALLVALUE DUP1 ISZERO PUSH2 0xCC4 JUMPI PUSH1 0x0 DUP1 REVERT JUMPDEST POP PUSH2 0x489 PUSH1 0x4 DUP1 CALLDATASIZE SUB PUSH1 0x20 DUP2 LT ISZERO PUSH2 0xCDB JUMPI PUSH1 0x0 DUP1 REVERT JUMPDEST POP CALLDATALOAD PUSH1 0x1 PUSH1 0x1 PUSH1 0xA0 SHL SUB AND PUSH2 0x2B64 JUMP JUMPDEST CALLVALUE DUP1 ISZERO PUSH2 0xCF7 JUMPI PUSH1 0x0 DUP1 REVERT JUMPDEST POP PUSH2 0x489 PUSH1 0x4 DUP1 CALLDATASIZE SUB PUSH1 0x20 DUP2 LT ISZERO PUSH2 0xD0E JUMPI PUSH1 0x0 DUP1 REVERT JUMPDEST POP CALLDATALOAD PUSH1 0x1 PUSH1 0x1 PUSH1 0xA0 SHL SUB AND PUSH2 0x2B82 JUMP JUMPDEST CALLVALUE DUP1 ISZERO PUSH2 0xD2A JUMPI PUSH1 0x0 DUP1 REVERT JUMPDEST POP PUSH2 0x489 PUSH1 0x4 DUP1 CALLDATASIZE SUB PUSH1 0x20 DUP2 LT ISZERO PUSH2 0xD41 JUMPI PUSH1 0x0 DUP1 REVERT JUMPDEST POP CALLDATALOAD PUSH1 0x1 PUSH1 0x1 PUSH1 0xA0 SHL SUB AND PUSH2 0x2BA0 JUMP JUMPDEST CALLVALUE DUP1 ISZERO PUSH2 0xD5D JUMPI PUSH1 0x0 DUP1 REVERT JUMPDEST POP PUSH2 0x489 PUSH1 0x4 DUP1 CALLDATASIZE SUB PUSH1 0x20 DUP2 LT ISZERO PUSH2 0xD74 JUMPI PUSH1 0x0 DUP1 REVERT JUMPDEST POP CALLDATALOAD PUSH1 0x1 PUSH1 0x1 PUSH1 0xA0 SHL SUB AND PUSH2 0x2BBE JUMP JUMPDEST CALLVALUE DUP1 ISZERO PUSH2 0xD90 JUMPI PUSH1 0x0 DUP1 REVERT JUMPDEST POP PUSH2 0xDBF PUSH1 0x4 DUP1 CALLDATASIZE SUB PUSH1 0x40 DUP2 LT ISZERO PUSH2 0xDA7 JUMPI PUSH1 0x0 DUP1 REVERT JUMPDEST POP PUSH1 0x1 PUSH1 0x1 PUSH1 0xA0 SHL SUB DUP2 CALLDATALOAD DUP2 AND SWAP2 PUSH1 0x20 ADD CALLDATALOAD AND PUSH2 0x2C62 JUMP JUMPDEST PUSH1 0x40 DUP1 MLOAD SWAP4 DUP5 MSTORE PUSH1 0x20 DUP5 ADD SWAP3 SWAP1 SWAP3 MSTORE DUP3 DUP3 ADD MSTORE MLOAD SWAP1 DUP2 SWAP1 SUB PUSH1 0x60 ADD SWAP1 RETURN JUMPDEST CALLVALUE DUP1 ISZERO PUSH2 0xDE9 JUMPI PUSH1 0x0 DUP1 REVERT JUMPDEST POP PUSH2 0x528 PUSH1 0x4 DUP1 CALLDATASIZE SUB PUSH1 0x20 DUP2 LT ISZERO PUSH2 0xE00 JUMPI PUSH1 0x0 DUP1 REVERT JUMPDEST POP CALLDATALOAD PUSH1 0x1 PUSH1 0x1 PUSH1 0xA0 SHL SUB AND PUSH2 0x2CF3 JUMP JUMPDEST CALLVALUE DUP1 ISZERO PUSH2 0xE1C JUMPI PUSH1 0x0 DUP1 REVERT JUMPDEST POP PUSH2 0x489 PUSH1 0x4 DUP1 CALLDATASIZE SUB PUSH1 0x20 DUP2 LT ISZERO PUSH2 0xE33 JUMPI PUSH1 0x0 DUP1 REVERT JUMPDEST POP CALLDATALOAD PUSH1 0x1 PUSH1 0x1 PUSH1 0xA0 SHL SUB AND PUSH2 0x2D11 JUMP JUMPDEST CALLVALUE DUP1 ISZERO PUSH2 0xE4F JUMPI PUSH1 0x0 DUP1 REVERT JUMPDEST POP PUSH2 0x489 PUSH1 0x4 DUP1 CALLDATASIZE SUB PUSH1 0x60 DUP2 LT ISZERO PUSH2 0xE66 JUMPI PUSH1 0x0 DUP1 REVERT JUMPDEST POP PUSH1 0x1 PUSH1 0x1 PUSH1 0xA0 SHL SUB DUP2 CALLDATALOAD DUP2 AND SWAP2 PUSH1 0x20 DUP2 ADD CALLDATALOAD SWAP1 SWAP2 AND SWAP1 PUSH1 0x40 ADD CALLDATALOAD PUSH2 0x2E39 JUMP JUMPDEST CALLVALUE DUP1 ISZERO PUSH2 0xE92 JUMPI PUSH1 0x0 DUP1 REVERT JUMPDEST POP PUSH2 0x454 PUSH1 0x4 DUP1 CALLDATASIZE SUB PUSH1 0x80 DUP2 LT ISZERO PUSH2 0xEA9 JUMPI PUSH1 0x0 DUP1 REVERT JUMPDEST POP PUSH1 0x1 PUSH1 0x1 PUSH1 0xA0 SHL SUB DUP2 CALLDATALOAD DUP2 AND SWAP2 PUSH1 0x20 DUP2 ADD CALLDATALOAD SWAP1 SWAP2 AND SWAP1 PUSH1 0x40 DUP2 ADD CALLDATALOAD SWAP1 PUSH1 0x60 ADD CALLDATALOAD ISZERO ISZERO PUSH2 0x2FC4 JUMP JUMPDEST CALLVALUE DUP1 ISZERO PUSH2 0xEDD JUMPI PUSH1 0x0 DUP1 REVERT JUMPDEST POP PUSH2 0x454 PUSH1 0x4 DUP1 CALLDATASIZE SUB PUSH1 0x40 DUP2 LT ISZERO PUSH2 0xEF4 JUMPI PUSH1 0x0 DUP1 REVERT JUMPDEST POP PUSH1 0x1 PUSH1 0x1 PUSH1 0xA0 SHL SUB DUP2 CALLDATALOAD AND SWAP1 PUSH1 0x20 ADD CALLDATALOAD ISZERO ISZERO PUSH2 0x30C7 JUMP JUMPDEST CALLVALUE DUP1 ISZERO PUSH2 0xF18 JUMPI PUSH1 0x0 DUP1 REVERT JUMPDEST POP PUSH2 0x454 PUSH1 0x4 DUP1 CALLDATASIZE SUB PUSH1 0x80 DUP2 LT ISZERO PUSH2 0xF2F JUMPI PUSH1 0x0 DUP1 REVERT JUMPDEST POP PUSH1 0x1 PUSH1 0x1 PUSH1 0xA0 SHL SUB DUP2 CALLDATALOAD DUP2 AND SWAP2 PUSH1 0x20 DUP2 ADD CALLDATALOAD SWAP1 SWAP2 AND SWAP1 PUSH1 0x40 DUP2 ADD CALLDATALOAD SWAP1 PUSH1 0x60 ADD CALLDATALOAD ISZERO ISZERO PUSH2 0x3283 JUMP JUMPDEST CALLVALUE DUP1 ISZERO PUSH2 0xF63 JUMPI PUSH1 0x0 DUP1 REVERT JUMPDEST POP PUSH2 0x489 PUSH1 0x4 DUP1 CALLDATASIZE SUB PUSH1 0x20 DUP2 LT ISZERO PUSH2 0xF7A JUMPI PUSH1 0x0 DUP1 REVERT JUMPDEST POP CALLDATALOAD PUSH1 0x1 PUSH1 0x1 PUSH1 0xA0 SHL SUB AND PUSH2 0x3386 JUMP JUMPDEST CALLVALUE DUP1 ISZERO PUSH2 0xF96 JUMPI PUSH1 0x0 DUP1 REVERT JUMPDEST POP PUSH2 0x454 PUSH1 0x4 DUP1 CALLDATASIZE SUB PUSH1 0x20 DUP2 LT ISZERO PUSH2 0xFAD JUMPI PUSH1 0x0 DUP1 REVERT JUMPDEST POP CALLDATALOAD PUSH1 0x1 PUSH1 0x1 PUSH1 0xA0 SHL SUB AND PUSH2 0x33A4 JUMP JUMPDEST CALLVALUE DUP1 ISZERO PUSH2 0xFC9 JUMPI PUSH1 0x0 DUP1 REVERT JUMPDEST POP PUSH2 0xFF0 PUSH1 0x4 DUP1 CALLDATASIZE SUB PUSH1 0x20 DUP2 LT ISZERO PUSH2 0xFE0 JUMPI PUSH1 0x0 DUP1 REVERT JUMPDEST POP CALLDATALOAD PUSH1 0x1 PUSH1 0x1 PUSH1 0xA0 SHL SUB AND PUSH2 0x3463 JUMP JUMPDEST PUSH1 0x40 DUP1 MLOAD SWAP5 DUP6 MSTORE PUSH1 0x20 DUP6 ADD SWAP4 SWAP1 SWAP4 MSTORE DUP4 DUP4 ADD SWAP2 SWAP1 SWAP2 MSTORE ISZERO ISZERO PUSH1 0x60 DUP4 ADD MSTORE MLOAD SWAP1 DUP2 SWAP1 SUB PUSH1 0x80 ADD SWAP1 RETURN JUMPDEST CALLVALUE DUP1 ISZERO PUSH2 0x1024 JUMPI PUSH1 0x0 DUP1 REVERT JUMPDEST POP PUSH2 0x528 PUSH2 0x34A1 JUMP JUMPDEST PUSH2 0x454 PUSH1 0x4 DUP1 CALLDATASIZE SUB PUSH1 0x80 DUP2 LT ISZERO PUSH2 0x1043 JUMPI PUSH1 0x0 DUP1 REVERT JUMPDEST POP PUSH1 0x1 PUSH1 0x1 PUSH1 0xA0 SHL SUB DUP2 CALLDATALOAD DUP2 AND SWAP2 PUSH1 0x20 DUP2 ADD CALLDATALOAD DUP3 AND SWAP2 PUSH1 0x40 DUP3 ADD CALLDATALOAD SWAP2 PUSH1 0x60 ADD CALLDATALOAD AND PUSH2 0x34B0 JUMP JUMPDEST CALLVALUE DUP1 ISZERO PUSH2 0x1075 JUMPI PUSH1 0x0 DUP1 REVERT JUMPDEST POP PUSH2 0x577 PUSH1 0x4 DUP1 CALLDATASIZE SUB PUSH1 0x20 DUP2 LT ISZERO PUSH2 0x108C JUMPI PUSH1 0x0 DUP1 REVERT JUMPDEST POP CALLDATALOAD PUSH1 0x1 PUSH1 0x1 PUSH1 0xA0 SHL SUB AND PUSH2 0x365A JUMP JUMPDEST CALLVALUE DUP1 ISZERO PUSH2 0x10A8 JUMPI PUSH1 0x0 DUP1 REVERT JUMPDEST POP PUSH2 0x489 PUSH1 0x4 DUP1 CALLDATASIZE SUB PUSH1 0x20 DUP2 LT ISZERO PUSH2 0x10BF JUMPI PUSH1 0x0 DUP1 REVERT JUMPDEST POP CALLDATALOAD PUSH1 0x1 PUSH1 0x1 PUSH1 0xA0 SHL SUB AND PUSH2 0x3682 JUMP JUMPDEST CALLVALUE DUP1 ISZERO PUSH2 0x10DB JUMPI PUSH1 0x0 DUP1 REVERT JUMPDEST POP PUSH2 0x528 PUSH2 0x36EC JUMP JUMPDEST CALLVALUE DUP1 ISZERO PUSH2 0x10F0 JUMPI PUSH1 0x0 DUP1 REVERT JUMPDEST POP PUSH2 0x528 PUSH2 0x36FB JUMP JUMPDEST CALLVALUE DUP1 ISZERO PUSH2 0x1105 JUMPI PUSH1 0x0 DUP1 REVERT JUMPDEST POP PUSH2 0x489 PUSH1 0x4 DUP1 CALLDATASIZE SUB PUSH1 0x20 DUP2 LT ISZERO PUSH2 0x111C JUMPI PUSH1 0x0 DUP1 REVERT JUMPDEST POP CALLDATALOAD PUSH1 0x1 PUSH1 0x1 PUSH1 0xA0 SHL SUB AND PUSH2 0x370A JUMP JUMPDEST CALLVALUE DUP1 ISZERO PUSH2 0x1138 JUMPI PUSH1 0x0 DUP1 REVERT JUMPDEST POP PUSH2 0x454 PUSH1 0x4 DUP1 CALLDATASIZE SUB PUSH1 0xC0 DUP2 LT ISZERO PUSH2 0x114F JUMPI PUSH1 0x0 DUP1 REVERT JUMPDEST POP PUSH1 0x1 PUSH1 0x1 PUSH1 0xA0 SHL SUB DUP2 CALLDATALOAD DUP2 AND SWAP2 PUSH1 0x20 DUP2 ADD CALLDATALOAD SWAP1 SWAP2 AND SWAP1 PUSH1 0x40 DUP2 ADD CALLDATALOAD SWAP1 PUSH1 0x60 DUP2 ADD CALLDATALOAD SWAP1 PUSH1 0x80 DUP2 ADD CALLDATALOAD SWAP1 PUSH1 0xA0 ADD CALLDATALOAD ISZERO ISZERO PUSH2 0x372B JUMP JUMPDEST CALLVALUE DUP1 ISZERO PUSH2 0x118F JUMPI PUSH1 0x0 DUP1 REVERT JUMPDEST POP PUSH2 0x489 PUSH1 0x4 DUP1 CALLDATASIZE SUB PUSH1 0x20 DUP2 LT ISZERO PUSH2 0x11A6 JUMPI PUSH1 0x0 DUP1 REVERT JUMPDEST POP CALLDATALOAD PUSH1 0x1 PUSH1 0x1 PUSH1 0xA0 SHL SUB AND PUSH2 0x388E JUMP JUMPDEST CALLVALUE DUP1 ISZERO PUSH2 0x11C2 JUMPI PUSH1 0x0 DUP1 REVERT JUMPDEST POP PUSH2 0x577 PUSH1 0x4 DUP1 CALLDATASIZE SUB PUSH1 0x60 DUP2 LT ISZERO PUSH2 0x11D9 JUMPI PUSH1 0x0 DUP1 REVERT JUMPDEST POP PUSH1 0x1 PUSH1 0x1 PUSH1 0xA0 SHL SUB DUP2 CALLDATALOAD DUP2 AND SWAP2 PUSH1 0x20 DUP2 ADD CALLDATALOAD SWAP1 SWAP2 AND SWAP1 PUSH1 0x40 ADD CALLDATALOAD PUSH2 0x38AC JUMP JUMPDEST CALLVALUE DUP1 ISZERO PUSH2 0x1205 JUMPI PUSH1 0x0 DUP1 REVERT JUMPDEST POP PUSH2 0x454 PUSH1 0x4 DUP1 CALLDATASIZE SUB PUSH1 0x80 DUP2 LT ISZERO PUSH2 0x121C JUMPI PUSH1 0x0 DUP1 REVERT JUMPDEST POP PUSH1 0x1 PUSH1 0x1 PUSH1 0xA0 SHL SUB DUP2 CALLDATALOAD AND SWAP1 PUSH1 0x20 DUP2 ADD CALLDATALOAD SWAP1 PUSH1 0x40 DUP2 ADD CALLDATALOAD SWAP1 PUSH1 0x60 ADD CALLDATALOAD PUSH2 0x3939 JUMP JUMPDEST CALLVALUE DUP1 ISZERO PUSH2 0x124A JUMPI PUSH1 0x0 DUP1 REVERT JUMPDEST POP PUSH2 0x454 PUSH1 0x4 DUP1 CALLDATASIZE SUB PUSH1 0x20 DUP2 LT ISZERO PUSH2 0x1261 JUMPI PUSH1 0x0 DUP1 REVERT JUMPDEST POP CALLDATALOAD PUSH1 0x1 PUSH1 0x1 PUSH1 0xA0 SHL SUB AND PUSH2 0x3A87 JUMP JUMPDEST CALLVALUE DUP1 ISZERO PUSH2 0x127D JUMPI PUSH1 0x0 DUP1 REVERT JUMPDEST POP PUSH2 0x577 PUSH1 0x4 DUP1 CALLDATASIZE SUB PUSH1 0x40 DUP2 LT ISZERO PUSH2 0x1294 JUMPI PUSH1 0x0 DUP1 REVERT JUMPDEST POP PUSH1 0x1 PUSH1 0x1 PUSH1 0xA0 SHL SUB DUP2 CALLDATALOAD DUP2 AND SWAP2 PUSH1 0x20 ADD CALLDATALOAD AND PUSH2 0x3BB6 JUMP JUMPDEST CALLVALUE DUP1 ISZERO PUSH2 0x12B8 JUMPI PUSH1 0x0 DUP1 REVERT JUMPDEST POP PUSH2 0x489 PUSH1 0x4 DUP1 CALLDATASIZE SUB PUSH1 0x20 DUP2 LT ISZERO PUSH2 0x12CF JUMPI PUSH1 0x0 DUP1 REVERT JUMPDEST POP CALLDATALOAD PUSH1 0x1 PUSH1 0x1 PUSH1 0xA0 SHL SUB AND PUSH2 0x3BE5 JUMP JUMPDEST CALLVALUE DUP1 ISZERO PUSH2 0x12EB JUMPI PUSH1 0x0 DUP1 REVERT JUMPDEST POP PUSH2 0x1338 PUSH1 0x4 DUP1 CALLDATASIZE SUB PUSH1 0xC0 DUP2 LT ISZERO PUSH2 0x1302 JUMPI PUSH1 0x0 DUP1 REVERT JUMPDEST POP DUP1 CALLDATALOAD PUSH1 0x1 PUSH1 0x1 PUSH1 0xA0 SHL SUB SWAP1 DUP2 AND SWAP2 PUSH1 0x20 DUP2 ADD CALLDATALOAD SWAP1 SWAP2 AND SWAP1 PUSH1 0x40 DUP2 ADD CALLDATALOAD SWAP1 PUSH1 0x60 DUP2 ADD CALLDATALOAD SWAP1 PUSH1 0x80 DUP2 ADD CALLDATALOAD SWAP1 PUSH1 0xA0 ADD CALLDATALOAD PUSH1 0xFF AND PUSH2 0x3C03 JUMP JUMPDEST PUSH1 0x40 MLOAD DUP1 DUP4 PUSH1 0x2 DUP2 GT ISZERO PUSH2 0x1348 JUMPI INVALID JUMPDEST PUSH1 0xFF AND DUP2 MSTORE PUSH1 0x20 ADD DUP3 DUP2 MSTORE PUSH1 0x20 ADD SWAP3 POP POP POP PUSH1 0x40 MLOAD DUP1 SWAP2 SUB SWAP1 RETURN JUMPDEST CALLVALUE DUP1 ISZERO PUSH2 0x136F JUMPI PUSH1 0x0 DUP1 REVERT JUMPDEST POP PUSH2 0x489 PUSH1 0x4 DUP1 CALLDATASIZE SUB PUSH1 0x40 DUP2 LT ISZERO PUSH2 0x1386 JUMPI PUSH1 0x0 DUP1 REVERT JUMPDEST POP PUSH1 0x1 PUSH1 0x1 PUSH1 0xA0 SHL SUB DUP2 CALLDATALOAD DUP2 AND SWAP2 PUSH1 0x20 ADD CALLDATALOAD AND PUSH2 0x3D81 JUMP JUMPDEST CALLVALUE DUP1 ISZERO PUSH2 0x13AA JUMPI PUSH1 0x0 DUP1 REVERT JUMPDEST POP PUSH2 0x454 PUSH1 0x4 DUP1 CALLDATASIZE SUB PUSH1 0x40 DUP2 LT ISZERO PUSH2 0x13C1 JUMPI PUSH1 0x0 DUP1 REVERT JUMPDEST POP PUSH1 0x1 PUSH1 0x1 PUSH1 0xA0 SHL SUB DUP2 CALLDATALOAD AND SWAP1 PUSH1 0x20 ADD CALLDATALOAD ISZERO ISZERO PUSH2 0x3DB0 JUMP JUMPDEST CALLVALUE DUP1 ISZERO PUSH2 0x13E5 JUMPI PUSH1 0x0 DUP1 REVERT JUMPDEST POP PUSH2 0x454 PUSH1 0x4 DUP1 CALLDATASIZE SUB PUSH1 0x60 DUP2 LT ISZERO PUSH2 0x13FC JUMPI PUSH1 0x0 DUP1 REVERT JUMPDEST POP PUSH1 0x1 PUSH1 0x1 PUSH1 0xA0 SHL SUB DUP2 CALLDATALOAD DUP2 AND SWAP2 PUSH1 0x20 DUP2 ADD CALLDATALOAD SWAP1 SWAP2 AND SWAP1 PUSH1 0x40 ADD CALLDATALOAD PUSH2 0x3EA9 JUMP JUMPDEST CALLVALUE DUP1 ISZERO PUSH2 0x1428 JUMPI PUSH1 0x0 DUP1 REVERT JUMPDEST POP PUSH2 0x489 PUSH1 0x4 DUP1 CALLDATASIZE SUB PUSH1 0x20 DUP2 LT ISZERO PUSH2 0x143F JUMPI PUSH1 0x0 DUP1 REVERT JUMPDEST POP CALLDATALOAD PUSH1 0x1 PUSH1 0x1 PUSH1 0xA0 SHL SUB AND PUSH2 0x3FD0 JUMP JUMPDEST CALLVALUE DUP1 ISZERO PUSH2 0x145B JUMPI PUSH1 0x0 DUP1 REVERT JUMPDEST POP PUSH2 0xFF0 PUSH1 0x4 DUP1 CALLDATASIZE SUB PUSH1 0x40 DUP2 LT ISZERO PUSH2 0x1472 JUMPI PUSH1 0x0 DUP1 REVERT JUMPDEST POP PUSH1 0x1 PUSH1 0x1 PUSH1 0xA0 SHL SUB DUP2 CALLDATALOAD DUP2 AND SWAP2 PUSH1 0x20 ADD CALLDATALOAD AND PUSH2 0x3FEE JUMP JUMPDEST CALLVALUE DUP1 ISZERO PUSH2 0x1496 JUMPI PUSH1 0x0 DUP1 REVERT JUMPDEST POP PUSH2 0x528 PUSH1 0x4 DUP1 CALLDATASIZE SUB PUSH1 0x20 DUP2 LT ISZERO PUSH2 0x14AD JUMPI PUSH1 0x0 DUP1 REVERT JUMPDEST POP CALLDATALOAD PUSH2 0x408A JUMP JUMPDEST CALLVALUE DUP1 ISZERO PUSH2 0x14C0 JUMPI PUSH1 0x0 DUP1 REVERT JUMPDEST POP PUSH2 0x14E7 PUSH1 0x4 DUP1 CALLDATASIZE SUB PUSH1 0x20 DUP2 LT ISZERO PUSH2 0x14D7 JUMPI PUSH1 0x0 DUP1 REVERT JUMPDEST POP CALLDATALOAD PUSH1 0x1 PUSH1 0x1 PUSH1 0xA0 SHL SUB AND PUSH2 0x40B1 JUMP JUMPDEST PUSH1 0x40 DUP1 MLOAD PUSH5 0xFFFFFFFFFF SWAP1 SWAP3 AND DUP3 MSTORE MLOAD SWAP1 DUP2 SWAP1 SUB PUSH1 0x20 ADD SWAP1 RETURN JUMPDEST DUP1 EXTCODESIZE ISZERO ISZERO JUMPDEST SWAP2 SWAP1 POP JUMP JUMPDEST PUSH1 0x1 PUSH1 0x1 PUSH1 0xA0 SHL SUB AND PUSH1 0x0 SWAP1 DUP2 MSTORE PUSH1 0x38 PUSH1 0x20 MSTORE PUSH1 0x40 SWAP1 KECCAK256 PUSH1 0xB ADD SLOAD SWAP1 JUMP JUMPDEST PUSH1 0x35 SLOAD PUSH1 0x1 PUSH1 0x1 PUSH1 0xA0 SHL SUB AND CALLER EQ PUSH2 0x1572 JUMPI PUSH1 0x40 MLOAD PUSH3 0x461BCD PUSH1 0xE5 SHL DUP2 MSTORE PUSH1 0x4 ADD DUP1 DUP1 PUSH1 0x20 ADD DUP3 DUP2 SUB DUP3 MSTORE PUSH1 0x2A DUP2 MSTORE PUSH1 0x20 ADD DUP1 PUSH2 0x5DFE PUSH1 0x2A SWAP2 CODECOPY PUSH1 0x40 ADD SWAP2 POP POP PUSH1 0x40 MLOAD DUP1 SWAP2 SUB SWAP1 REVERT JUMPDEST PUSH2 0x157C DUP5 DUP3 PUSH2 0x40D6 JUMP JUMPDEST PUSH1 0x1 PUSH1 0x1 PUSH1 0xA0 SHL SUB DUP5 AND PUSH1 0x0 SWAP1 DUP2 MSTORE PUSH1 0x38 PUSH1 0x20 MSTORE PUSH1 0x40 SWAP1 KECCAK256 PUSH2 0x159D SWAP1 PUSH2 0x41B9 JUMP JUMPDEST PUSH1 0x0 PUSH2 0x15B8 PUSH2 0x15AB DUP7 PUSH2 0x1A88 JUMP JUMPDEST DUP6 SWAP1 PUSH4 0xFFFFFFFF PUSH2 0x4284 AND JUMP JUMPDEST PUSH1 0x1 PUSH1 0x1 PUSH1 0xA0 SHL SUB DUP7 AND PUSH1 0x0 SWAP1 DUP2 MSTORE PUSH1 0x38 PUSH1 0x20 MSTORE PUSH1 0x40 SWAP1 KECCAK256 SWAP1 SWAP2 POP PUSH2 0x15E4 SWAP1 DUP3 DUP6 PUSH4 0xFFFFFFFF PUSH2 0x42DE AND JUMP JUMPDEST PUSH2 0x15F0 DUP6 DUP5 PUSH1 0x0 PUSH2 0x4339 JUMP JUMPDEST POP POP POP POP POP JUMP JUMPDEST PUSH1 0x4 DUP2 JUMP JUMPDEST PUSH1 0x1 PUSH1 0x1 PUSH1 0xA0 SHL SUB SWAP1 DUP2 AND PUSH1 0x0 SWAP1 DUP2 MSTORE PUSH1 0x38 PUSH1 0x20 MSTORE PUSH1 0x40 SWAP1 KECCAK256 PUSH1 0x1 ADD SLOAD AND SWAP1 JUMP JUMPDEST PUSH1 0x1 PUSH1 0x1 PUSH1 0xA0 SHL SUB AND PUSH1 0x0 SWAP1 DUP2 MSTORE PUSH1 0x38 PUSH1 0x20 MSTORE PUSH1 0x40 SWAP1 KECCAK256 PUSH1 0x3 ADD SLOAD PUSH3 0x10000 SWAP1 DIV PUSH1 0xFF AND SWAP1 JUMP JUMPDEST PUSH1 0x60 PUSH1 0x37 DUP1 SLOAD DUP1 PUSH1 0x20 MUL PUSH1 0x20 ADD PUSH1 0x40 MLOAD SWAP1 DUP2 ADD PUSH1 0x40 MSTORE DUP1 SWAP3 SWAP2 SWAP1 DUP2 DUP2 MSTORE PUSH1 0x20 ADD DUP3 DUP1 SLOAD DUP1 ISZERO PUSH2 0x169C JUMPI PUSH1 0x20 MUL DUP3 ADD SWAP2 SWAP1 PUSH1 0x0 MSTORE PUSH1 0x20 PUSH1 0x0 KECCAK256 SWAP1 JUMPDEST DUP2 SLOAD PUSH1 0x1 PUSH1 0x1 PUSH1 0xA0 SHL SUB AND DUP2 MSTORE PUSH1 0x1 SWAP1 SWAP2 ADD SWAP1 PUSH1 0x20 ADD DUP1 DUP4 GT PUSH2 0x167E JUMPI JUMPDEST POP POP POP POP POP SWAP1 POP SWAP1 JUMP JUMPDEST PUSH1 0x1 PUSH1 0x1 PUSH1 0xA0 SHL SUB AND PUSH1 0x0 SWAP1 DUP2 MSTORE PUSH1 0x38 PUSH1 0x20 MSTORE PUSH1 0x40 SWAP1 KECCAK256 PUSH1 0x7 ADD SLOAD SWAP1 JUMP JUMPDEST PUSH1 0x1 PUSH1 0x1 PUSH1 0xA0 SHL SUB DUP1 DUP4 AND PUSH1 0x0 SWAP1 DUP2 MSTORE PUSH1 0x38 PUSH1 0x20 SWAP1 DUP2 MSTORE PUSH1 0x40 DUP1 DUP4 KECCAK256 SLOAD DUP2 MLOAD PUSH4 0x70A08231 PUSH1 0xE0 SHL DUP2 MSTORE DUP7 DUP7 AND PUSH1 0x4 DUP3 ADD MSTORE SWAP2 MLOAD SWAP4 SWAP5 AND SWAP3 DUP4 SWAP3 PUSH4 0x70A08231 SWAP3 PUSH1 0x24 DUP1 DUP3 ADD SWAP4 SWAP2 DUP3 SWAP1 SUB ADD DUP2 DUP7 DUP1 EXTCODESIZE ISZERO DUP1 ISZERO PUSH2 0x171E JUMPI PUSH1 0x0 DUP1 REVERT JUMPDEST POP GAS STATICCALL ISZERO DUP1 ISZERO PUSH2 0x1732 JUMPI RETURNDATASIZE PUSH1 0x0 DUP1 RETURNDATACOPY RETURNDATASIZE PUSH1 0x0 REVERT JUMPDEST POP POP POP POP PUSH1 0x40 MLOAD RETURNDATASIZE PUSH1 0x20 DUP2 LT ISZERO PUSH2 0x1748 JUMPI PUSH1 0x0 DUP1 REVERT JUMPDEST POP MLOAD SWAP2 POP POP JUMPDEST SWAP3 SWAP2 POP POP JUMP JUMPDEST PUSH1 0x34 SLOAD PUSH1 0x40 DUP1 MLOAD PUSH4 0x85C858B1 PUSH1 0xE0 SHL DUP2 MSTORE SWAP1 MLOAD CALLER SWAP3 PUSH1 0x1 PUSH1 0x1 PUSH1 0xA0 SHL SUB AND SWAP2 PUSH4 0x85C858B1 SWAP2 PUSH1 0x4 DUP1 DUP4 ADD SWAP3 PUSH1 0x20 SWAP3 SWAP2 SWAP1 DUP3 SWAP1 SUB ADD DUP2 DUP7 DUP1 EXTCODESIZE ISZERO DUP1 ISZERO PUSH2 0x1798 JUMPI PUSH1 0x0 DUP1 REVERT JUMPDEST POP GAS STATICCALL ISZERO DUP1 ISZERO PUSH2 0x17AC JUMPI RETURNDATASIZE PUSH1 0x0 DUP1 RETURNDATACOPY RETURNDATASIZE PUSH1 0x0 REVERT JUMPDEST POP POP POP POP PUSH1 0x40 MLOAD RETURNDATASIZE PUSH1 0x20 DUP2 LT ISZERO PUSH2 0x17C2 JUMPI PUSH1 0x0 DUP1 REVERT JUMPDEST POP MLOAD PUSH1 0x1 PUSH1 0x1 PUSH1 0xA0 SHL SUB AND EQ PUSH2 0x1809 JUMPI PUSH1 0x40 MLOAD PUSH3 0x461BCD PUSH1 0xE5 SHL DUP2 MSTORE PUSH1 0x4 ADD DUP1 DUP1 PUSH1 0x20 ADD DUP3 DUP2 SUB DUP3 MSTORE PUSH1 0x38 DUP2 MSTORE PUSH1 0x20 ADD DUP1 PUSH2 0x5ED0 PUSH1 0x38 SWAP2 CODECOPY PUSH1 0x40 ADD SWAP2 POP POP PUSH1 0x40 MLOAD DUP1 SWAP2 SUB SWAP1 REVERT JUMPDEST PUSH1 0x1 PUSH1 0x1 PUSH1 0xA0 SHL SUB DUP1 DUP7 AND PUSH1 0x0 SWAP1 DUP2 MSTORE PUSH1 0x38 PUSH1 0x20 MSTORE PUSH1 0x40 DUP1 DUP3 KECCAK256 DUP2 MLOAD PUSH4 0x710D44ED PUSH1 0xE1 SHL DUP2 MSTORE PUSH1 0x4 DUP2 ADD SWAP2 SWAP1 SWAP2 MSTORE DUP8 DUP5 AND PUSH1 0x24 DUP3 ADD MSTORE PUSH1 0x44 DUP2 ADD DUP8 SWAP1 MSTORE SWAP3 DUP6 AND PUSH1 0x64 DUP5 ADD MSTORE MLOAD PUSH20 0x0 SWAP3 PUSH4 0xE21A89DA SWAP3 PUSH1 0x84 DUP1 DUP4 ADD SWAP4 SWAP2 SWAP3 DUP3 SWAP1 SUB ADD DUP2 DUP7 DUP1 EXTCODESIZE ISZERO DUP1 ISZERO PUSH2 0x1887 JUMPI PUSH1 0x0 DUP1 REVERT JUMPDEST POP GAS DELEGATECALL ISZERO DUP1 ISZERO PUSH2 0x189B JUMPI RETURNDATASIZE PUSH1 0x0 DUP1 RETURNDATACOPY RETURNDATASIZE PUSH1 0x0 REVERT JUMPDEST POP POP POP POP PUSH2 0x18A8 DUP6 PUSH2 0x44F2 JUMP JUMPDEST PUSH1 0x36 SLOAD PUSH1 0x40 DUP1 MLOAD PUSH4 0x67671989 PUSH1 0xE0 SHL DUP2 MSTORE PUSH1 0x1 PUSH1 0x1 PUSH1 0xA0 SHL SUB DUP9 DUP2 AND PUSH1 0x4 DUP4 ADD MSTORE DUP8 DUP2 AND PUSH1 0x24 DUP4 ADD MSTORE DUP5 DUP2 AND PUSH1 0x44 DUP4 ADD MSTORE PUSH1 0x64 DUP3 ADD DUP8 SWAP1 MSTORE SWAP2 MLOAD SWAP2 SWAP1 SWAP3 AND SWAP2 PUSH4 0x67671989 SWAP2 PUSH1 0x84 DUP1 DUP4 ADD SWAP3 PUSH1 0x20 SWAP3 SWAP2 SWAP1 DUP3 SWAP1 SUB ADD DUP2 PUSH1 0x0 DUP8 DUP1 EXTCODESIZE ISZERO DUP1 ISZERO PUSH2 0x190E JUMPI PUSH1 0x0 DUP1 REVERT JUMPDEST POP GAS CALL ISZERO DUP1 ISZERO PUSH2 0x1922 JUMPI RETURNDATASIZE PUSH1 0x0 DUP1 RETURNDATACOPY RETURNDATASIZE PUSH1 0x0 REVERT JUMPDEST POP POP POP POP PUSH1 0x40 MLOAD RETURNDATASIZE PUSH1 0x20 DUP2 LT ISZERO PUSH2 0x1938 JUMPI PUSH1 0x0 DUP1 REVERT JUMPDEST POP MLOAD PUSH2 0x1975 JUMPI PUSH1 0x40 MLOAD PUSH3 0x461BCD PUSH1 0xE5 SHL DUP2 MSTORE PUSH1 0x4 ADD DUP1 DUP1 PUSH1 0x20 ADD DUP3 DUP2 SUB DUP3 MSTORE PUSH1 0x5B DUP2 MSTORE PUSH1 0x20 ADD DUP1 PUSH2 0x5E28 PUSH1 0x5B SWAP2 CODECOPY PUSH1 0x60 ADD SWAP2 POP POP PUSH1 0x40 MLOAD DUP1 SWAP2 SUB SWAP1 REVERT JUMPDEST PUSH1 0x40 DUP1 MLOAD PUSH4 0x427DD40D PUSH1 0xE1 SHL DUP2 MSTORE PUSH1 0x1 PUSH1 0x1 PUSH1 0xA0 SHL SUB DUP4 DUP2 AND PUSH1 0x4 DUP4 ADD MSTORE SWAP2 MLOAD DUP7 SWAP3 DUP4 AND SWAP2 PUSH4 0x84FBA81A SWAP2 PUSH1 0x24 DUP1 DUP4 ADD SWAP3 PUSH1 0x20 SWAP3 SWAP2 SWAP1 DUP3 SWAP1 SUB ADD DUP2 PUSH1 0x0 DUP8 DUP1 EXTCODESIZE ISZERO DUP1 ISZERO PUSH2 0x19C1 JUMPI PUSH1 0x0 DUP1 REVERT JUMPDEST POP GAS CALL ISZERO DUP1 ISZERO PUSH2 0x19D5 JUMPI RETURNDATASIZE PUSH1 0x0 DUP1 RETURNDATACOPY RETURNDATASIZE PUSH1 0x0 REVERT JUMPDEST POP POP POP POP PUSH1 0x40 MLOAD RETURNDATASIZE PUSH1 0x20 DUP2 LT ISZERO PUSH2 0x19EB JUMPI PUSH1 0x0 DUP1 REVERT JUMPDEST POP MLOAD PUSH2 0x1A28 JUMPI PUSH1 0x40 MLOAD PUSH3 0x461BCD PUSH1 0xE5 SHL DUP2 MSTORE PUSH1 0x4 ADD DUP1 DUP1 PUSH1 0x20 ADD DUP3 DUP2 SUB DUP3 MSTORE PUSH1 0x40 DUP2 MSTORE PUSH1 0x20 ADD DUP1 PUSH2 0x5D6F PUSH1 0x40 SWAP2 CODECOPY PUSH1 0x40 ADD SWAP2 POP POP PUSH1 0x40 MLOAD DUP1 SWAP2 SUB SWAP1 REVERT JUMPDEST POP POP POP POP POP POP JUMP JUMPDEST PUSH1 0x1 PUSH1 0x1 PUSH1 0xA0 SHL SUB DUP1 DUP3 AND PUSH1 0x0 SWAP1 DUP2 MSTORE PUSH1 0x39 PUSH1 0x20 SWAP1 DUP2 MSTORE PUSH1 0x40 DUP1 DUP4 KECCAK256 SWAP4 DUP7 AND DUP4 MSTORE SWAP3 SWAP1 MSTORE SWAP1 DUP2 KECCAK256 PUSH1 0x1 DUP2 ADD SLOAD PUSH2 0x1A6A JUMPI PUSH1 0x0 SWAP2 POP POP PUSH2 0x174E JUMP JUMPDEST PUSH1 0x0 DUP2 PUSH1 0x2 ADD SLOAD GT PUSH2 0x1A7D JUMPI PUSH1 0x2 PUSH2 0x1A80 JUMP JUMPDEST PUSH1 0x1 JUMPDEST SWAP5 SWAP4 POP POP POP POP JUMP JUMPDEST PUSH1 0x1 PUSH1 0x1 PUSH1 0xA0 SHL SUB DUP2 AND PUSH1 0x0 SWAP1 DUP2 MSTORE PUSH1 0x38 PUSH1 0x20 MSTORE PUSH1 0x40 DUP2 KECCAK256 PUSH2 0x174E SWAP1 PUSH2 0x4596 JUMP JUMPDEST PUSH1 0x1 PUSH1 0x1 PUSH1 0xA0 SHL SUB AND PUSH1 0x0 SWAP1 DUP2 MSTORE PUSH1 0x38 PUSH1 0x20 MSTORE PUSH1 0x40 SWAP1 KECCAK256 PUSH1 0x3 ADD SLOAD PUSH1 0xFF AND SWAP1 JUMP JUMPDEST PUSH1 0x35 SLOAD PUSH1 0x1 PUSH1 0x1 PUSH1 0xA0 SHL SUB AND CALLER EQ PUSH2 0x1B13 JUMPI PUSH1 0x40 MLOAD PUSH3 0x461BCD PUSH1 0xE5 SHL DUP2 MSTORE PUSH1 0x4 ADD DUP1 DUP1 PUSH1 0x20 ADD DUP3 DUP2 SUB DUP3 MSTORE PUSH1 0x2A DUP2 MSTORE PUSH1 0x20 ADD DUP1 PUSH2 0x5DFE PUSH1 0x2A SWAP2 CODECOPY PUSH1 0x40 ADD SWAP2 POP POP PUSH1 0x40 MLOAD DUP1 SWAP2 SUB SWAP1 REVERT JUMPDEST PUSH2 0x1B1B PUSH2 0x45B3 JUMP JUMPDEST PUSH1 0x1 PUSH1 0x1 PUSH1 0xA0 SHL SUB AND DUP4 PUSH1 0x1 PUSH1 0x1 PUSH1 0xA0 SHL SUB AND EQ PUSH2 0x1B90 JUMPI CALLVALUE ISZERO PUSH2 0x1B70 JUMPI PUSH1 0x40 MLOAD PUSH3 0x461BCD PUSH1 0xE5 SHL DUP2 MSTORE PUSH1 0x4 ADD DUP1 DUP1 PUSH1 0x20 ADD DUP3 DUP2 SUB DUP3 MSTORE PUSH1 0x32 DUP2 MSTORE PUSH1 0x20 ADD DUP1 PUSH2 0x5CB7 PUSH1 0x32 SWAP2 CODECOPY PUSH1 0x40 ADD SWAP2 POP POP PUSH1 0x40 MLOAD DUP1 SWAP2 SUB SWAP1 REVERT JUMPDEST PUSH2 0x1B8B PUSH1 0x1 PUSH1 0x1 PUSH1 0xA0 SHL SUB DUP5 AND DUP4 ADDRESS DUP5 PUSH4 0xFFFFFFFF PUSH2 0x45CB AND JUMP JUMPDEST PUSH2 0x1C90 JUMP JUMPDEST DUP1 CALLVALUE LT ISZERO PUSH2 0x1BCF JUMPI PUSH1 0x40 MLOAD PUSH3 0x461BCD PUSH1 0xE5 SHL DUP2 MSTORE PUSH1 0x4 ADD DUP1 DUP1 PUSH1 0x20 ADD DUP3 DUP2 SUB DUP3 MSTORE PUSH1 0x35 DUP2 MSTORE PUSH1 0x20 ADD DUP1 PUSH2 0x5BFB PUSH1 0x35 SWAP2 CODECOPY PUSH1 0x40 ADD SWAP2 POP POP PUSH1 0x40 MLOAD DUP1 SWAP2 SUB SWAP1 REVERT JUMPDEST DUP1 CALLVALUE GT ISZERO PUSH2 0x1C90 JUMPI PUSH1 0x0 PUSH2 0x1BE9 CALLVALUE DUP4 PUSH4 0xFFFFFFFF PUSH2 0x4625 AND JUMP JUMPDEST PUSH1 0x40 MLOAD SWAP1 SWAP2 POP PUSH1 0x0 SWAP1 PUSH1 0x1 PUSH1 0x1 PUSH1 0xA0 SHL SUB DUP6 AND SWAP1 PUSH2 0xC350 SWAP1 DUP5 SWAP1 DUP5 DUP2 DUP2 DUP2 DUP6 DUP9 DUP9 CALL SWAP4 POP POP POP POP RETURNDATASIZE DUP1 PUSH1 0x0 DUP2 EQ PUSH2 0x1C3C JUMPI PUSH1 0x40 MLOAD SWAP2 POP PUSH1 0x1F NOT PUSH1 0x3F RETURNDATASIZE ADD AND DUP3 ADD PUSH1 0x40 MSTORE RETURNDATASIZE DUP3 MSTORE RETURNDATASIZE PUSH1 0x0 PUSH1 0x20 DUP5 ADD RETURNDATACOPY PUSH2 0x1C41 JUMP JUMPDEST PUSH1 0x60 SWAP2 POP JUMPDEST POP POP SWAP1 POP DUP1 PUSH2 0x15F0 JUMPI PUSH1 0x40 DUP1 MLOAD PUSH3 0x461BCD PUSH1 0xE5 SHL DUP2 MSTORE PUSH1 0x20 PUSH1 0x4 DUP3 ADD MSTORE PUSH1 0x16 PUSH1 0x24 DUP3 ADD MSTORE PUSH22 0x151C985B9CD9995C881BD9881155120819985A5B1959 PUSH1 0x52 SHL PUSH1 0x44 DUP3 ADD MSTORE SWAP1 MLOAD SWAP1 DUP2 SWAP1 SUB PUSH1 0x64 ADD SWAP1 REVERT JUMPDEST POP POP POP JUMP JUMPDEST PUSH1 0x1 PUSH1 0x1 PUSH1 0xA0 SHL SUB DUP2 AND PUSH1 0x0 SWAP1 DUP2 MSTORE PUSH1 0x38 PUSH1 0x20 MSTORE PUSH1 0x40 DUP2 KECCAK256 PUSH2 0x1CB6 DUP2 PUSH2 0x4667 JUMP JUMPDEST SWAP4 SWAP3 POP POP POP JUMP JUMPDEST PUSH1 0x1 PUSH1 0x1 PUSH1 0xA0 SHL SUB DUP2 AND PUSH1 0x0 SWAP1 DUP2 MSTORE PUSH1 0x38 PUSH1 0x20 MSTORE PUSH1 0x40 DUP2 KECCAK256 PUSH2 0x1CB6 DUP2 PUSH2 0x4690 JUMP JUMPDEST PUSH1 0x35 SLOAD PUSH1 0x0 SWAP1 DUP2 SWAP1 PUSH1 0x1 PUSH1 0x1 PUSH1 0xA0 SHL SUB AND CALLER EQ PUSH2 0x1D2C JUMPI PUSH1 0x40 MLOAD PUSH3 0x461BCD PUSH1 0xE5 SHL DUP2 MSTORE PUSH1 0x4 ADD DUP1 DUP1 PUSH1 0x20 ADD DUP3 DUP2 SUB DUP3 MSTORE PUSH1 0x2A DUP2 MSTORE PUSH1 0x20 ADD DUP1 PUSH2 0x5DFE PUSH1 0x2A SWAP2 CODECOPY PUSH1 0x40 ADD SWAP2 POP POP PUSH1 0x40 MLOAD DUP1 SWAP2 SUB SWAP1 REVERT JUMPDEST PUSH1 0x36 SLOAD PUSH1 0x40 DUP1 MLOAD PUSH4 0xF8A56CD PUSH1 0xE3 SHL DUP2 MSTORE PUSH1 0x1 PUSH1 0x1 PUSH1 0xA0 SHL SUB DUP11 DUP2 AND PUSH1 0x4 DUP4 ADD MSTORE SWAP2 MLOAD SWAP2 SWAP1 SWAP3 AND SWAP2 PUSH4 0x7C52B668 SWAP2 PUSH1 0x24 DUP1 DUP4 ADD SWAP3 PUSH1 0x20 SWAP3 SWAP2 SWAP1 DUP3 SWAP1 SUB ADD DUP2 PUSH1 0x0 DUP8 DUP1 EXTCODESIZE ISZERO DUP1 ISZERO PUSH2 0x1D7B JUMPI PUSH1 0x0 DUP1 REVERT JUMPDEST POP GAS CALL ISZERO DUP1 ISZERO PUSH2 0x1D8F JUMPI RETURNDATASIZE PUSH1 0x0 DUP1 RETURNDATACOPY RETURNDATASIZE PUSH1 0x0 REVERT JUMPDEST POP POP POP POP PUSH1 0x40 MLOAD RETURNDATASIZE PUSH1 0x20 DUP2 LT ISZERO PUSH2 0x1DA5 JUMPI PUSH1 0x0 DUP1 REVERT JUMPDEST POP PUSH1 0x0 SWAP1 POP DUP1 PUSH2 0x1DB5 DUP10 DUP10 PUSH2 0x2C62 JUMP JUMPDEST PUSH1 0x1 PUSH1 0x1 PUSH1 0xA0 SHL SUB DUP1 DUP14 AND PUSH1 0x0 SWAP1 DUP2 MSTORE PUSH1 0x38 PUSH1 0x20 MSTORE PUSH1 0x40 DUP1 DUP3 KECCAK256 SLOAD DUP2 MLOAD PUSH4 0x1E77D68B PUSH1 0xE0 SHL DUP2 MSTORE DUP16 DUP6 AND PUSH1 0x4 DUP3 ADD MSTORE SWAP2 MLOAD SWAP7 SWAP9 POP SWAP4 SWAP7 POP SWAP3 SWAP1 SWAP2 AND SWAP4 DUP5 SWAP4 POP PUSH4 0x1E77D68B SWAP3 PUSH1 0x24 DUP1 DUP3 ADD SWAP4 SWAP3 SWAP2 DUP3 SWAP1 SUB ADD DUP2 DUP4 DUP8 DUP1 EXTCODESIZE ISZERO DUP1 ISZERO PUSH2 0x1E17 JUMPI PUSH1 0x0 DUP1 REVERT JUMPDEST POP GAS CALL ISZERO DUP1 ISZERO PUSH2 0x1E2B JUMPI RETURNDATASIZE PUSH1 0x0 DUP1 RETURNDATACOPY RETURNDATASIZE PUSH1 0x0 REVERT JUMPDEST POP POP POP POP PUSH2 0x1E3D DUP11 DUP11 DUP6 DUP6 DUP13 DUP12 PUSH2 0x46C8 JUMP JUMPDEST PUSH2 0x1E4B DUP11 DUP11 DUP11 DUP6 DUP12 DUP12 PUSH2 0x46F7 JUMP JUMPDEST PUSH2 0x1E57 DUP11 PUSH1 0x0 DUP11 PUSH2 0x4339 JUMP JUMPDEST PUSH2 0x1E61 DUP11 DUP11 PUSH2 0x48C5 JUMP JUMPDEST SWAP11 SWAP2 SWAP10 POP SWAP1 SWAP8 POP POP POP POP POP POP POP POP JUMP JUMPDEST PUSH1 0x1 PUSH1 0x1 PUSH1 0xA0 SHL SUB AND PUSH1 0x0 SWAP1 DUP2 MSTORE PUSH1 0x38 PUSH1 0x20 MSTORE PUSH1 0x40 SWAP1 KECCAK256 PUSH1 0x6 ADD SLOAD SWAP1 JUMP JUMPDEST PUSH1 0x35 SLOAD PUSH1 0x1 PUSH1 0x1 PUSH1 0xA0 SHL SUB AND CALLER EQ PUSH2 0x1ED8 JUMPI PUSH1 0x40 MLOAD PUSH3 0x461BCD PUSH1 0xE5 SHL DUP2 MSTORE PUSH1 0x4 ADD DUP1 DUP1 PUSH1 0x20 ADD DUP3 DUP2 SUB DUP3 MSTORE PUSH1 0x2A DUP2 MSTORE PUSH1 0x20 ADD DUP1 PUSH2 0x5DFE PUSH1 0x2A SWAP2 CODECOPY PUSH1 0x40 ADD SWAP2 POP POP PUSH1 0x40 MLOAD DUP1 SWAP2 SUB SWAP1 REVERT JUMPDEST PUSH1 0x1 PUSH1 0x1 PUSH1 0xA0 SHL SUB SWAP2 DUP3 AND PUSH1 0x0 SWAP1 DUP2 MSTORE PUSH1 0x39 PUSH1 0x20 SWAP1 DUP2 MSTORE PUSH1 0x40 DUP1 DUP4 KECCAK256 SWAP6 SWAP1 SWAP5 AND DUP3 MSTORE SWAP4 SWAP1 SWAP4 MSTORE SWAP2 KECCAK256 DUP1 SLOAD PUSH1 0xFF NOT AND SWAP2 ISZERO ISZERO SWAP2 SWAP1 SWAP2 OR SWAP1 SSTORE JUMP JUMPDEST PUSH1 0x34 SLOAD PUSH1 0x40 DUP1 MLOAD PUSH4 0x85C858B1 PUSH1 0xE0 SHL DUP2 MSTORE SWAP1 MLOAD CALLER SWAP3 PUSH1 0x1 PUSH1 0x1 PUSH1 0xA0 SHL SUB AND SWAP2 PUSH4 0x85C858B1 SWAP2 PUSH1 0x4 DUP1 DUP4 ADD SWAP3 PUSH1 0x20 SWAP3 SWAP2 SWAP1 DUP3 SWAP1 SUB ADD DUP2 DUP7 DUP1 EXTCODESIZE ISZERO DUP1 ISZERO PUSH2 0x1F55 JUMPI PUSH1 0x0 DUP1 REVERT JUMPDEST POP GAS STATICCALL ISZERO DUP1 ISZERO PUSH2 0x1F69 JUMPI RETURNDATASIZE PUSH1 0x0 DUP1 RETURNDATACOPY RETURNDATASIZE PUSH1 0x0 REVERT JUMPDEST POP POP POP POP PUSH1 0x40 MLOAD RETURNDATASIZE PUSH1 0x20 DUP2 LT ISZERO PUSH2 0x1F7F JUMPI PUSH1 0x0 DUP1 REVERT JUMPDEST POP MLOAD PUSH1 0x1 PUSH1 0x1 PUSH1 0xA0 SHL SUB AND EQ PUSH2 0x1FC6 JUMPI PUSH1 0x40 MLOAD PUSH3 0x461BCD PUSH1 0xE5 SHL DUP2 MSTORE PUSH1 0x4 ADD DUP1 DUP1 PUSH1 0x20 ADD DUP3 DUP2 SUB DUP3 MSTORE PUSH1 0x38 DUP2 MSTORE PUSH1 0x20 ADD DUP1 PUSH2 0x5ED0 PUSH1 0x38 SWAP2 CODECOPY PUSH1 0x40 ADD SWAP2 POP POP PUSH1 0x40 MLOAD DUP1 SWAP2 SUB SWAP1 REVERT JUMPDEST PUSH1 0x1 PUSH1 0x1 PUSH1 0xA0 SHL SUB SWAP1 SWAP4 AND PUSH1 0x0 SWAP1 DUP2 MSTORE PUSH1 0x38 PUSH1 0x20 MSTORE PUSH1 0x40 SWAP1 KECCAK256 PUSH1 0xF DUP2 ADD SWAP3 SWAP1 SWAP3 SSTORE PUSH1 0x10 DUP3 ADD SSTORE PUSH1 0x11 ADD SSTORE JUMP JUMPDEST PUSH1 0x34 SLOAD PUSH1 0x40 DUP1 MLOAD PUSH4 0x85C858B1 PUSH1 0xE0 SHL DUP2 MSTORE SWAP1 MLOAD CALLER SWAP3 PUSH1 0x1 PUSH1 0x1 PUSH1 0xA0 SHL SUB AND SWAP2 PUSH4 0x85C858B1 SWAP2 PUSH1 0x4 DUP1 DUP4 ADD SWAP3 PUSH1 0x20 SWAP3 SWAP2 SWAP1 DUP3 SWAP1 SUB ADD DUP2 DUP7 DUP1 EXTCODESIZE ISZERO DUP1 ISZERO PUSH2 0x2036 JUMPI PUSH1 0x0 DUP1 REVERT JUMPDEST POP GAS STATICCALL ISZERO DUP1 ISZERO PUSH2 0x204A JUMPI RETURNDATASIZE PUSH1 0x0 DUP1 RETURNDATACOPY RETURNDATASIZE PUSH1 0x0 REVERT JUMPDEST POP POP POP POP PUSH1 0x40 MLOAD RETURNDATASIZE PUSH1 0x20 DUP2 LT ISZERO PUSH2 0x2060 JUMPI PUSH1 0x0 DUP1 REVERT JUMPDEST POP MLOAD PUSH1 0x1 PUSH1 0x1 PUSH1 0xA0 SHL SUB AND EQ PUSH2 0x20A7 JUMPI PUSH1 0x40 MLOAD PUSH3 0x461BCD PUSH1 0xE5 SHL DUP2 MSTORE PUSH1 0x4 ADD DUP1 DUP1 PUSH1 0x20 ADD DUP3 DUP2 SUB DUP3 MSTORE PUSH1 0x38 DUP2 MSTORE PUSH1 0x20 ADD DUP1 PUSH2 0x5ED0 PUSH1 0x38 SWAP2 CODECOPY PUSH1 0x40 ADD SWAP2 POP POP PUSH1 0x40 MLOAD DUP1 SWAP2 SUB SWAP1 REVERT JUMPDEST PUSH1 0x1 PUSH1 0x1 PUSH1 0xA0 SHL SUB DUP3 AND PUSH1 0x0 SWAP1 DUP2 MSTORE PUSH1 0x38 PUSH1 0x20 MSTORE PUSH1 0x40 SWAP1 KECCAK256 PUSH1 0xC DUP2 ADD SLOAD ISZERO DUP1 ISZERO SWAP1 PUSH2 0x20D6 JUMPI POP PUSH1 0x0 DUP2 PUSH1 0xB ADD SLOAD GT JUMPDEST PUSH2 0x2111 JUMPI PUSH1 0x40 MLOAD PUSH3 0x461BCD PUSH1 0xE5 SHL DUP2 MSTORE PUSH1 0x4 ADD DUP1 DUP1 PUSH1 0x20 ADD DUP3 DUP2 SUB DUP3 MSTORE PUSH1 0x27 DUP2 MSTORE PUSH1 0x20 ADD DUP1 PUSH2 0x5CE9 PUSH1 0x27 SWAP2 CODECOPY PUSH1 0x40 ADD SWAP2 POP POP PUSH1 0x40 MLOAD DUP1 SWAP2 SUB SWAP1 REVERT JUMPDEST DUP2 ISZERO PUSH2 0x212B JUMPI PUSH1 0x3 DUP2 ADD DUP1 SLOAD PUSH1 0xFF NOT AND PUSH1 0x1 OR SWAP1 SSTORE PUSH2 0x1C90 JUMP JUMPDEST PUSH1 0x3 ADD DUP1 SLOAD PUSH1 0xFF NOT AND SWAP1 SSTORE POP POP JUMP JUMPDEST PUSH1 0x1 PUSH1 0x1 PUSH1 0xA0 SHL SUB AND PUSH1 0x0 SWAP1 DUP2 MSTORE PUSH1 0x38 PUSH1 0x20 MSTORE PUSH1 0x40 SWAP1 KECCAK256 PUSH1 0x9 ADD SLOAD SWAP1 JUMP JUMPDEST PUSH1 0x34 SLOAD PUSH1 0x40 DUP1 MLOAD PUSH4 0x85C858B1 PUSH1 0xE0 SHL DUP2 MSTORE SWAP1 MLOAD CALLER SWAP3 PUSH1 0x1 PUSH1 0x1 PUSH1 0xA0 SHL SUB AND SWAP2 PUSH4 0x85C858B1 SWAP2 PUSH1 0x4 DUP1 DUP4 ADD SWAP3 PUSH1 0x20 SWAP3 SWAP2 SWAP1 DUP3 SWAP1 SUB ADD DUP2 DUP7 DUP1 EXTCODESIZE ISZERO DUP1 ISZERO PUSH2 0x219C JUMPI PUSH1 0x0 DUP1 REVERT JUMPDEST POP GAS STATICCALL ISZERO DUP1 ISZERO PUSH2 0x21B0 JUMPI RETURNDATASIZE PUSH1 0x0 DUP1 RETURNDATACOPY RETURNDATASIZE PUSH1 0x0 REVERT JUMPDEST POP POP POP POP PUSH1 0x40 MLOAD RETURNDATASIZE PUSH1 0x20 DUP2 LT ISZERO PUSH2 0x21C6 JUMPI PUSH1 0x0 DUP1 REVERT JUMPDEST POP MLOAD PUSH1 0x1 PUSH1 0x1 PUSH1 0xA0 SHL SUB AND EQ PUSH2 0x220D JUMPI PUSH1 0x40 MLOAD PUSH3 0x461BCD PUSH1 0xE5 SHL DUP2 MSTORE PUSH1 0x4 ADD DUP1 DUP1 PUSH1 0x20 ADD DUP3 DUP2 SUB DUP3 MSTORE PUSH1 0x38 DUP2 MSTORE PUSH1 0x20 ADD DUP1 PUSH2 0x5ED0 PUSH1 0x38 SWAP2 CODECOPY PUSH1 0x40 ADD SWAP2 POP POP PUSH1 0x40 MLOAD DUP1 SWAP2 SUB SWAP1 REVERT JUMPDEST PUSH1 0x1 PUSH1 0x1 PUSH1 0xA0 SHL SUB SWAP2 DUP3 AND PUSH1 0x0 SWAP1 DUP2 MSTORE PUSH1 0x38 PUSH1 0x20 MSTORE PUSH1 0x40 SWAP1 KECCAK256 PUSH1 0x1 ADD DUP1 SLOAD PUSH1 0x1 PUSH1 0x1 PUSH1 0xA0 SHL SUB NOT AND SWAP2 SWAP1 SWAP3 AND OR SWAP1 SSTORE JUMP JUMPDEST PUSH1 0x1 PUSH1 0x1 PUSH1 0xA0 SHL SUB DUP2 AND PUSH1 0x0 SWAP1 DUP2 MSTORE PUSH1 0x38 PUSH1 0x20 MSTORE PUSH1 0x40 DUP2 KECCAK256 PUSH1 0x4 DUP2 ADD SLOAD PUSH2 0x22E4 JUMPI DUP1 PUSH1 0x1 ADD PUSH1 0x0 SWAP1 SLOAD SWAP1 PUSH2 0x100 EXP SWAP1 DIV PUSH1 0x1 PUSH1 0x1 PUSH1 0xA0 SHL SUB AND PUSH1 0x1 PUSH1 0x1 PUSH1 0xA0 SHL SUB AND PUSH4 0x34762CA5 PUSH1 0x40 MLOAD DUP2 PUSH4 0xFFFFFFFF AND PUSH1 0xE0 SHL DUP2 MSTORE PUSH1 0x4 ADD PUSH1 0x20 PUSH1 0x40 MLOAD DUP1 DUP4 SUB DUP2 DUP7 DUP1 EXTCODESIZE ISZERO DUP1 ISZERO PUSH2 0x22AF JUMPI PUSH1 0x0 DUP1 REVERT JUMPDEST POP GAS STATICCALL ISZERO DUP1 ISZERO PUSH2 0x22C3 JUMPI RETURNDATASIZE PUSH1 0x0 DUP1 RETURNDATACOPY RETURNDATASIZE PUSH1 0x0 REVERT JUMPDEST POP POP POP POP PUSH1 0x40 MLOAD RETURNDATASIZE PUSH1 0x20 DUP2 LT ISZERO PUSH2 0x22D9 JUMPI PUSH1 0x0 DUP1 REVERT JUMPDEST POP MLOAD SWAP2 POP PUSH2 0x1506 SWAP1 POP JUMP JUMPDEST PUSH1 0x4 ADD SLOAD SWAP3 SWAP2 POP POP JUMP JUMPDEST PUSH1 0x1 PUSH1 0x1 PUSH1 0xA0 SHL SUB AND PUSH1 0x0 SWAP1 DUP2 MSTORE PUSH1 0x38 PUSH1 0x20 MSTORE PUSH1 0x40 SWAP1 KECCAK256 PUSH1 0x10 ADD SLOAD SWAP1 JUMP JUMPDEST PUSH1 0x34 SLOAD PUSH1 0x40 DUP1 MLOAD PUSH4 0x85C858B1 PUSH1 0xE0 SHL DUP2 MSTORE SWAP1 MLOAD CALLER SWAP3 PUSH1 0x1 PUSH1 0x1 PUSH1 0xA0 SHL SUB AND SWAP2 PUSH4 0x85C858B1 SWAP2 PUSH1 0x4 DUP1 DUP4 ADD SWAP3 PUSH1 0x20 SWAP3 SWAP2 SWAP1 DUP3 SWAP1 SUB ADD DUP2 DUP7 DUP1 EXTCODESIZE ISZERO DUP1 ISZERO PUSH2 0x2350 JUMPI PUSH1 0x0 DUP1 REVERT JUMPDEST POP GAS STATICCALL ISZERO DUP1 ISZERO PUSH2 0x2364 JUMPI RETURNDATASIZE PUSH1 0x0 DUP1 RETURNDATACOPY RETURNDATASIZE PUSH1 0x0 REVERT JUMPDEST POP POP POP POP PUSH1 0x40 MLOAD RETURNDATASIZE PUSH1 0x20 DUP2 LT ISZERO PUSH2 0x237A JUMPI PUSH1 0x0 DUP1 REVERT JUMPDEST POP MLOAD PUSH1 0x1 PUSH1 0x1 PUSH1 0xA0 SHL SUB AND EQ PUSH2 0x23C1 JUMPI PUSH1 0x40 MLOAD PUSH3 0x461BCD PUSH1 0xE5 SHL DUP2 MSTORE PUSH1 0x4 ADD DUP1 DUP1 PUSH1 0x20 ADD DUP3 DUP2 SUB DUP3 MSTORE PUSH1 0x38 DUP2 MSTORE PUSH1 0x20 ADD DUP1 PUSH2 0x5ED0 PUSH1 0x38 SWAP2 CODECOPY PUSH1 0x40 ADD SWAP2 POP POP PUSH1 0x40 MLOAD DUP1 SWAP2 SUB SWAP1 REVERT JUMPDEST PUSH2 0x23C9 PUSH2 0x4957 JUMP JUMPDEST JUMP JUMPDEST PUSH1 0x1 PUSH1 0x1 PUSH1 0xA0 SHL SUB SWAP1 DUP2 AND PUSH1 0x0 SWAP1 DUP2 MSTORE PUSH1 0x39 PUSH1 0x20 SWAP1 DUP2 MSTORE PUSH1 0x40 DUP1 DUP4 KECCAK256 SWAP5 SWAP1 SWAP4 AND DUP3 MSTORE SWAP3 SWAP1 SWAP3 MSTORE SWAP1 KECCAK256 PUSH1 0x5 ADD SLOAD PUSH5 0xFFFFFFFFFF AND SWAP1 JUMP JUMPDEST PUSH1 0x35 SLOAD PUSH1 0x1 PUSH1 0x1 PUSH1 0xA0 SHL SUB AND CALLER EQ PUSH2 0x244A JUMPI PUSH1 0x40 MLOAD PUSH3 0x461BCD PUSH1 0xE5 SHL DUP2 MSTORE PUSH1 0x4 ADD DUP1 DUP1 PUSH1 0x20 ADD DUP3 DUP2 SUB DUP3 MSTORE PUSH1 0x2A DUP2 MSTORE PUSH1 0x20 ADD DUP1 PUSH2 0x5DFE PUSH1 0x2A SWAP2 CODECOPY PUSH1 0x40 ADD SWAP2 POP POP PUSH1 0x40 MLOAD DUP1 SWAP2 SUB SWAP1 REVERT JUMPDEST PUSH1 0x36 SLOAD PUSH1 0x40 DUP1 MLOAD PUSH4 0xF8A56CD PUSH1 0xE3 SHL DUP2 MSTORE PUSH1 0x1 PUSH1 0x1 PUSH1 0xA0 SHL SUB DUP13 DUP2 AND PUSH1 0x4 DUP4 ADD MSTORE SWAP2 MLOAD SWAP2 SWAP1 SWAP3 AND SWAP2 PUSH4 0x7C52B668 SWAP2 PUSH1 0x24 DUP1 DUP4 ADD SWAP3 PUSH1 0x20 SWAP3 SWAP2 SWAP1 DUP3 SWAP1 SUB ADD DUP2 PUSH1 0x0 DUP8 DUP1 EXTCODESIZE ISZERO DUP1 ISZERO PUSH2 0x2499 JUMPI PUSH1 0x0 DUP1 REVERT JUMPDEST POP GAS CALL ISZERO DUP1 ISZERO PUSH2 0x24AD JUMPI RETURNDATASIZE PUSH1 0x0 DUP1 RETURNDATACOPY RETURNDATASIZE PUSH1 0x0 REVERT JUMPDEST POP POP POP POP PUSH1 0x40 MLOAD RETURNDATASIZE PUSH1 0x20 DUP2 LT ISZERO PUSH2 0x24C3 JUMPI PUSH1 0x0 DUP1 REVERT JUMPDEST POP POP PUSH1 0x36 SLOAD PUSH1 0x40 DUP1 MLOAD PUSH4 0x4F425FBB PUSH1 0xE0 SHL DUP2 MSTORE PUSH1 0x1 PUSH1 0x1 PUSH1 0xA0 SHL SUB DUP12 DUP2 AND PUSH1 0x4 DUP4 ADD MSTORE SWAP2 MLOAD SWAP2 SWAP1 SWAP3 AND SWAP2 PUSH4 0x4F425FBB SWAP2 PUSH1 0x24 DUP1 DUP4 ADD SWAP3 PUSH1 0x20 SWAP3 SWAP2 SWAP1 DUP3 SWAP1 SUB ADD DUP2 PUSH1 0x0 DUP8 DUP1 EXTCODESIZE ISZERO DUP1 ISZERO PUSH2 0x2514 JUMPI PUSH1 0x0 DUP1 REVERT JUMPDEST POP GAS CALL ISZERO DUP1 ISZERO PUSH2 0x2528 JUMPI RETURNDATASIZE PUSH1 0x0 DUP1 RETURNDATACOPY RETURNDATASIZE PUSH1 0x0 REVERT JUMPDEST POP POP POP POP PUSH1 0x40 MLOAD RETURNDATASIZE PUSH1 0x20 DUP2 LT ISZERO PUSH2 0x253E JUMPI PUSH1 0x0 DUP1 REVERT JUMPDEST POP POP PUSH1 0x1 PUSH1 0x1 PUSH1 0xA0 SHL SUB DUP1 DUP11 AND PUSH1 0x0 SWAP1 DUP2 MSTORE PUSH1 0x38 PUSH1 0x20 MSTORE PUSH1 0x40 DUP1 DUP3 KECCAK256 SLOAD DUP2 MLOAD PUSH4 0x1E77D68B PUSH1 0xE0 SHL DUP2 MSTORE DUP12 DUP6 AND PUSH1 0x4 DUP3 ADD MSTORE SWAP2 MLOAD SWAP4 AND SWAP3 DUP4 SWAP3 PUSH4 0x1E77D68B SWAP3 PUSH1 0x24 DUP1 DUP3 ADD SWAP4 SWAP2 DUP3 SWAP1 SUB ADD DUP2 DUP4 DUP8 DUP1 EXTCODESIZE ISZERO DUP1 ISZERO PUSH2 0x2598 JUMPI PUSH1 0x0 DUP1 REVERT JUMPDEST POP GAS CALL ISZERO DUP1 ISZERO PUSH2 0x25AC JUMPI RETURNDATASIZE PUSH1 0x0 DUP1 RETURNDATACOPY RETURNDATASIZE PUSH1 0x0 REVERT JUMPDEST POP POP POP POP PUSH2 0x25BC DUP11 DUP10 DUP10 DUP7 PUSH2 0x4A77 JUMP JUMPDEST PUSH2 0x25C5 DUP10 PUSH2 0x4B27 JUMP JUMPDEST PUSH2 0x25D2 DUP11 DUP10 DUP10 DUP9 DUP8 PUSH2 0x4B4B JUMP JUMPDEST PUSH2 0x25DE DUP11 DUP9 PUSH1 0x0 PUSH2 0x4339 JUMP JUMPDEST DUP2 PUSH2 0x25FE JUMPI PUSH2 0x25FE DUP10 PUSH1 0x0 PUSH2 0x25F9 DUP10 DUP9 PUSH4 0xFFFFFFFF PUSH2 0x4284 AND JUMP JUMPDEST PUSH2 0x4339 JUMP JUMPDEST POP POP POP POP POP POP POP POP POP POP JUMP JUMPDEST PUSH1 0x1 PUSH1 0x1 PUSH1 0xA0 SHL SUB DUP1 DUP3 AND PUSH1 0x0 SWAP1 DUP2 MSTORE PUSH1 0x39 PUSH1 0x20 SWAP1 DUP2 MSTORE PUSH1 0x40 DUP1 DUP4 KECCAK256 SWAP4 DUP7 AND DUP4 MSTORE SWAP3 SWAP1 MSTORE KECCAK256 PUSH1 0x4 ADD SLOAD SWAP3 SWAP2 POP POP JUMP JUMPDEST PUSH1 0x35 SLOAD PUSH1 0x1 PUSH1 0x1 PUSH1 0xA0 SHL SUB AND CALLER EQ PUSH2 0x2682 JUMPI PUSH1 0x40 MLOAD PUSH3 0x461BCD PUSH1 0xE5 SHL DUP2 MSTORE PUSH1 0x4 ADD DUP1 DUP1 PUSH1 0x20 ADD DUP3 DUP2 SUB DUP3 MSTORE PUSH1 0x2A DUP2 MSTORE PUSH1 0x20 ADD DUP1 PUSH2 0x5DFE PUSH1 0x2A SWAP2 CODECOPY PUSH1 0x40 ADD SWAP2 POP POP PUSH1 0x40 MLOAD DUP1 SWAP2 SUB SWAP1 REVERT JUMPDEST PUSH1 0x34 SLOAD PUSH1 0x40 DUP1 MLOAD PUSH4 0x1DB4F569 PUSH1 0xE0 SHL DUP2 MSTORE SWAP1 MLOAD PUSH1 0x0 SWAP3 PUSH1 0x1 PUSH1 0x1 PUSH1 0xA0 SHL SUB AND SWAP2 PUSH4 0x1DB4F569 SWAP2 PUSH1 0x4 DUP1 DUP4 ADD SWAP3 PUSH1 0x20 SWAP3 SWAP2 SWAP1 DUP3 SWAP1 SUB ADD DUP2 DUP7 DUP1 EXTCODESIZE ISZERO DUP1 ISZERO PUSH2 0x26C7 JUMPI PUSH1 0x0 DUP1 REVERT JUMPDEST POP GAS STATICCALL ISZERO DUP1 ISZERO PUSH2 0x26DB JUMPI RETURNDATASIZE PUSH1 0x0 DUP1 RETURNDATACOPY RETURNDATASIZE PUSH1 0x0 REVERT JUMPDEST POP POP POP POP PUSH1 0x40 MLOAD RETURNDATASIZE PUSH1 0x20 DUP2 LT ISZERO PUSH2 0x26F1 JUMPI PUSH1 0x0 DUP1 REVERT JUMPDEST POP MLOAD SWAP1 POP PUSH1 0x1 PUSH1 0x1 PUSH1 0xA0 SHL SUB DUP2 AND PUSH2 0x273A JUMPI PUSH1 0x40 MLOAD PUSH3 0x461BCD PUSH1 0xE5 SHL DUP2 MSTORE PUSH1 0x4 ADD DUP1 DUP1 PUSH1 0x20 ADD DUP3 DUP2 SUB DUP3 MSTORE PUSH1 0x2E DUP2 MSTORE PUSH1 0x20 ADD DUP1 PUSH2 0x5C89 PUSH1 0x2E SWAP2 CODECOPY PUSH1 0x40 ADD SWAP2 POP POP PUSH1 0x40 MLOAD DUP1 SWAP2 SUB SWAP1 REVERT JUMPDEST PUSH1 0x1 PUSH1 0x1 PUSH1 0xA0 SHL SUB DUP3 AND PUSH1 0x0 SWAP1 DUP2 MSTORE PUSH1 0x38 PUSH1 0x20 MSTORE PUSH1 0x40 SWAP1 KECCAK256 PUSH2 0x275B DUP2 PUSH2 0x41B9 JUMP JUMPDEST PUSH1 0x0 PUSH2 0x2766 DUP5 PUSH2 0x29E9 JUMP JUMPDEST SWAP1 POP PUSH1 0x0 PUSH2 0x27A7 PUSH2 0x27A2 DUP5 PUSH1 0xE ADD SLOAD PUSH2 0x2796 PUSH2 0x2781 DUP8 PUSH2 0x4C6D JUMP JUMPDEST PUSH2 0x278A DUP8 PUSH2 0x4C96 JUMP JUMPDEST SWAP1 PUSH4 0xFFFFFFFF PUSH2 0x4CAC AND JUMP JUMPDEST SWAP1 PUSH4 0xFFFFFFFF PUSH2 0x4CF0 AND JUMP JUMPDEST PUSH2 0x4D20 JUMP JUMPDEST PUSH1 0xD DUP5 ADD SLOAD PUSH1 0xE DUP6 ADD SSTORE SWAP1 POP PUSH2 0x27BB PUSH2 0x45B3 JUMP JUMPDEST PUSH1 0x1 PUSH1 0x1 PUSH1 0xA0 SHL SUB AND DUP6 PUSH1 0x1 PUSH1 0x1 PUSH1 0xA0 SHL SUB AND EQ PUSH2 0x27F2 JUMPI PUSH2 0x27ED PUSH1 0x1 PUSH1 0x1 PUSH1 0xA0 SHL SUB DUP7 AND DUP6 DUP4 PUSH4 0xFFFFFFFF PUSH2 0x4D39 AND JUMP JUMPDEST PUSH2 0x282A JUMP JUMPDEST PUSH1 0x40 MLOAD PUSH1 0x1 PUSH1 0x1 PUSH1 0xA0 SHL SUB DUP6 AND SWAP1 DUP3 ISZERO PUSH2 0x8FC MUL SWAP1 DUP4 SWAP1 PUSH1 0x0 DUP2 DUP2 DUP2 DUP6 DUP9 DUP9 CALL SWAP4 POP POP POP POP ISZERO DUP1 ISZERO PUSH2 0x2828 JUMPI RETURNDATASIZE PUSH1 0x0 DUP1 RETURNDATACOPY RETURNDATASIZE PUSH1 0x0 REVERT JUMPDEST POP JUMPDEST PUSH1 0xE DUP4 ADD SLOAD PUSH1 0xD DUP5 ADD SLOAD PUSH1 0x40 DUP1 MLOAD DUP6 DUP2 MSTORE PUSH1 0x20 DUP2 ADD DUP6 SWAP1 MSTORE DUP1 DUP3 ADD SWAP4 SWAP1 SWAP4 MSTORE PUSH1 0x60 DUP4 ADD SWAP2 SWAP1 SWAP2 MSTORE MLOAD PUSH1 0x1 PUSH1 0x1 PUSH1 0xA0 SHL SUB DUP8 AND SWAP2 PUSH32 0xCAF88B767F34218DF2BEE5E44DEDF227E0D2A1E85A902226B21375DC5BD654F6 SWAP2 SWAP1 DUP2 SWAP1 SUB PUSH1 0x80 ADD SWAP1 LOG2 POP POP POP POP POP JUMP JUMPDEST PUSH1 0x1 PUSH1 0x1 PUSH1 0xA0 SHL SUB DUP1 DUP3 AND PUSH1 0x0 SWAP1 DUP2 MSTORE PUSH1 0x39 PUSH1 0x20 SWAP1 DUP2 MSTORE PUSH1 0x40 DUP1 DUP4 KECCAK256 SWAP4 DUP7 AND DUP4 MSTORE SWAP3 SWAP1 MSTORE KECCAK256 PUSH1 0x2 ADD SLOAD SWAP3 SWAP2 POP POP JUMP JUMPDEST PUSH1 0x34 SLOAD PUSH1 0x40 DUP1 MLOAD PUSH4 0x85C858B1 PUSH1 0xE0 SHL DUP2 MSTORE SWAP1 MLOAD CALLER SWAP3 PUSH1 0x1 PUSH1 0x1 PUSH1 0xA0 SHL SUB AND SWAP2 PUSH4 0x85C858B1 SWAP2 PUSH1 0x4 DUP1 DUP4 ADD SWAP3 PUSH1 0x20 SWAP3 SWAP2 SWAP1 DUP3 SWAP1 SUB ADD DUP2 DUP7 DUP1 EXTCODESIZE ISZERO DUP1 ISZERO PUSH2 0x2902 JUMPI PUSH1 0x0 DUP1 REVERT JUMPDEST POP GAS STATICCALL ISZERO DUP1 ISZERO PUSH2 0x2916 JUMPI RETURNDATASIZE PUSH1 0x0 DUP1 RETURNDATACOPY RETURNDATASIZE PUSH1 0x0 REVERT JUMPDEST POP POP POP POP PUSH1 0x40 MLOAD RETURNDATASIZE PUSH1 0x20 DUP2 LT ISZERO PUSH2 0x292C JUMPI PUSH1 0x0 DUP1 REVERT JUMPDEST POP MLOAD PUSH1 0x1 PUSH1 0x1 PUSH1 0xA0 SHL SUB AND EQ PUSH2 0x2973 JUMPI PUSH1 0x40 MLOAD PUSH3 0x461BCD PUSH1 0xE5 SHL DUP2 MSTORE PUSH1 0x4 ADD DUP1 DUP1 PUSH1 0x20 ADD DUP3 DUP2 SUB DUP3 MSTORE PUSH1 0x38 DUP2 MSTORE PUSH1 0x20 ADD DUP1 PUSH2 0x5ED0 PUSH1 0x38 SWAP2 CODECOPY PUSH1 0x40 ADD SWAP2 POP POP PUSH1 0x40 MLOAD DUP1 SWAP2 SUB SWAP1 REVERT JUMPDEST PUSH1 0x1 PUSH1 0x1 PUSH1 0xA0 SHL SUB DUP3 AND PUSH1 0x0 SWAP1 DUP2 MSTORE PUSH1 0x38 PUSH1 0x20 MSTORE PUSH1 0x40 SWAP1 KECCAK256 DUP2 ISZERO PUSH2 0x29AD JUMPI PUSH1 0x3 DUP2 ADD DUP1 SLOAD PUSH5 0xFF00000000 NOT AND PUSH5 0x100000000 OR SWAP1 SSTORE PUSH2 0x1C90 JUMP JUMPDEST PUSH1 0x3 ADD DUP1 SLOAD PUSH5 0xFF00000000 NOT AND SWAP1 SSTORE POP POP JUMP JUMPDEST PUSH1 0x1 PUSH1 0x1 PUSH1 0xA0 SHL SUB AND PUSH1 0x0 SWAP1 DUP2 MSTORE PUSH1 0x38 PUSH1 0x20 MSTORE PUSH1 0x40 SWAP1 KECCAK256 PUSH1 0x3 ADD SLOAD PUSH5 0x100000000 SWAP1 DIV PUSH1 0xFF AND SWAP1 JUMP JUMPDEST PUSH1 0x1 PUSH1 0x1 PUSH1 0xA0 SHL SUB DUP2 AND PUSH1 0x0 SWAP1 DUP2 MSTORE PUSH1 0x38 PUSH1 0x20 MSTORE PUSH1 0x40 DUP2 KECCAK256 PUSH2 0x1CB6 PUSH2 0x2A0D DUP3 PUSH2 0x4596 JUMP JUMPDEST PUSH2 0x2A16 DUP6 PUSH2 0x2BBE JUMP JUMPDEST SWAP1 PUSH4 0xFFFFFFFF PUSH2 0x4284 AND JUMP JUMPDEST PUSH1 0x1 PUSH1 0x1 PUSH1 0xA0 SHL SUB AND PUSH1 0x0 SWAP1 DUP2 MSTORE PUSH1 0x38 PUSH1 0x20 MSTORE PUSH1 0x40 SWAP1 KECCAK256 PUSH1 0x3 ADD SLOAD PUSH2 0x100 SWAP1 DIV PUSH1 0xFF AND SWAP1 JUMP JUMPDEST PUSH1 0x35 SLOAD PUSH1 0x1 PUSH1 0x1 PUSH1 0xA0 SHL SUB AND CALLER EQ PUSH2 0x2A91 JUMPI PUSH1 0x40 MLOAD PUSH3 0x461BCD PUSH1 0xE5 SHL DUP2 MSTORE PUSH1 0x4 ADD DUP1 DUP1 PUSH1 0x20 ADD DUP3 DUP2 SUB DUP3 MSTORE PUSH1 0x2A DUP2 MSTORE PUSH1 0x20 ADD DUP1 PUSH2 0x5DFE PUSH1 0x2A SWAP2 CODECOPY PUSH1 0x40 ADD SWAP2 POP POP PUSH1 0x40 MLOAD DUP1 SWAP2 SUB SWAP1 REVERT JUMPDEST DUP1 CALLVALUE ISZERO PUSH2 0x2ACF JUMPI PUSH1 0x40 MLOAD PUSH3 0x461BCD PUSH1 0xE5 SHL DUP2 MSTORE PUSH1 0x4 ADD DUP1 DUP1 PUSH1 0x20 ADD DUP3 DUP2 SUB DUP3 MSTORE PUSH1 0x36 DUP2 MSTORE PUSH1 0x20 ADD DUP1 PUSH2 0x5B75 PUSH1 0x36 SWAP2 CODECOPY PUSH1 0x40 ADD SWAP2 POP POP PUSH1 0x40 MLOAD DUP1 SWAP2 SUB SWAP1 REVERT JUMPDEST PUSH2 0x2AD7 PUSH2 0x45B3 JUMP JUMPDEST PUSH1 0x1 PUSH1 0x1 PUSH1 0xA0 SHL SUB AND DUP5 PUSH1 0x1 PUSH1 0x1 PUSH1 0xA0 SHL SUB AND EQ PUSH2 0x2B0E JUMPI PUSH2 0x2B09 PUSH1 0x1 PUSH1 0x1 PUSH1 0xA0 SHL SUB DUP6 AND DUP3 DUP6 PUSH4 0xFFFFFFFF PUSH2 0x4D39 AND JUMP JUMPDEST PUSH2 0x2B5E JUMP JUMPDEST PUSH1 0x40 MLOAD PUSH1 0x0 SWAP1 PUSH1 0x1 PUSH1 0x1 PUSH1 0xA0 SHL SUB DUP4 AND SWAP1 PUSH2 0xC350 SWAP1 DUP7 SWAP1 DUP5 DUP2 DUP2 DUP2 DUP6 DUP9 DUP9 CALL SWAP4 POP POP POP POP RETURNDATASIZE DUP1 PUSH1 0x0 DUP2 EQ PUSH2 0x1C3C JUMPI PUSH1 0x40 MLOAD SWAP2 POP PUSH1 0x1F NOT PUSH1 0x3F RETURNDATASIZE ADD AND DUP3 ADD PUSH1 0x40 MSTORE RETURNDATASIZE DUP3 MSTORE RETURNDATASIZE PUSH1 0x0 PUSH1 0x20 DUP5 ADD RETURNDATACOPY PUSH2 0x1C41 JUMP JUMPDEST POP POP POP POP JUMP JUMPDEST PUSH1 0x1 PUSH1 0x1 PUSH1 0xA0 SHL SUB AND PUSH1 0x0 SWAP1 DUP2 MSTORE PUSH1 0x38 PUSH1 0x20 MSTORE PUSH1 0x40 SWAP1 KECCAK256 PUSH1 0xD ADD SLOAD SWAP1 JUMP JUMPDEST PUSH1 0x1 PUSH1 0x1 PUSH1 0xA0 SHL SUB AND PUSH1 0x0 SWAP1 DUP2 MSTORE PUSH1 0x38 PUSH1 0x20 MSTORE PUSH1 0x40 SWAP1 KECCAK256 PUSH1 0xE ADD SLOAD SWAP1 JUMP JUMPDEST PUSH1 0x1 PUSH1 0x1 PUSH1 0xA0 SHL SUB AND PUSH1 0x0 SWAP1 DUP2 MSTORE PUSH1 0x38 PUSH1 0x20 MSTORE PUSH1 0x40 SWAP1 KECCAK256 PUSH1 0xC ADD SLOAD SWAP1 JUMP JUMPDEST PUSH1 0x0 DUP1 PUSH2 0x2BC9 PUSH2 0x45B3 JUMP JUMPDEST PUSH1 0x1 PUSH1 0x1 PUSH1 0xA0 SHL SUB AND DUP4 PUSH1 0x1 PUSH1 0x1 PUSH1 0xA0 SHL SUB AND EQ ISZERO PUSH2 0x2BE9 JUMPI POP SELFBALANCE PUSH2 0x174E JUMP JUMPDEST PUSH1 0x40 DUP1 MLOAD PUSH4 0x70A08231 PUSH1 0xE0 SHL DUP2 MSTORE ADDRESS PUSH1 0x4 DUP3 ADD MSTORE SWAP1 MLOAD PUSH1 0x1 PUSH1 0x1 PUSH1 0xA0 SHL SUB DUP6 AND SWAP2 PUSH4 0x70A08231 SWAP2 PUSH1 0x24 DUP1 DUP4 ADD SWAP3 PUSH1 0x20 SWAP3 SWAP2 SWAP1 DUP3 SWAP1 SUB ADD DUP2 DUP7 DUP1 EXTCODESIZE ISZERO DUP1 ISZERO PUSH2 0x2C2F JUMPI PUSH1 0x0 DUP1 REVERT JUMPDEST POP GAS STATICCALL ISZERO DUP1 ISZERO PUSH2 0x2C43 JUMPI RETURNDATASIZE PUSH1 0x0 DUP1 RETURNDATACOPY RETURNDATASIZE PUSH1 0x0 REVERT JUMPDEST POP POP POP POP PUSH1 0x40 MLOAD RETURNDATASIZE PUSH1 0x20 DUP2 LT ISZERO PUSH2 0x2C59 JUMPI PUSH1 0x0 DUP1 REVERT JUMPDEST POP MLOAD SWAP4 SWAP3 POP POP POP JUMP JUMPDEST PUSH1 0x1 PUSH1 0x1 PUSH1 0xA0 SHL SUB DUP1 DUP3 AND PUSH1 0x0 SWAP1 DUP2 MSTORE PUSH1 0x39 PUSH1 0x20 SWAP1 DUP2 MSTORE PUSH1 0x40 DUP1 DUP4 KECCAK256 SWAP4 DUP7 AND DUP4 MSTORE SWAP3 SWAP1 MSTORE SWAP1 DUP2 KECCAK256 PUSH1 0x1 DUP2 ADD SLOAD DUP3 SWAP2 DUP3 SWAP2 PUSH2 0x2CA6 JUMPI POP PUSH1 0x0 SWAP3 POP DUP3 SWAP2 POP DUP2 SWAP1 POP PUSH2 0x2CEC JUMP JUMPDEST PUSH1 0x1 DUP2 ADD SLOAD PUSH1 0x1 PUSH1 0x1 PUSH1 0xA0 SHL SUB DUP8 AND PUSH1 0x0 SWAP1 DUP2 MSTORE PUSH1 0x38 PUSH1 0x20 MSTORE PUSH1 0x40 DUP2 KECCAK256 PUSH2 0x2CCE SWAP1 DUP5 SWAP1 PUSH2 0x4D8B JUMP JUMPDEST SWAP1 POP DUP2 DUP2 PUSH2 0x2CE2 DUP2 DUP4 PUSH4 0xFFFFFFFF PUSH2 0x4625 AND JUMP JUMPDEST SWAP6 POP SWAP6 POP SWAP6 POP POP POP POP JUMPDEST SWAP3 POP SWAP3 POP SWAP3 JUMP JUMPDEST PUSH1 0x1 PUSH1 0x1 PUSH1 0xA0 SHL SUB SWAP1 DUP2 AND PUSH1 0x0 SWAP1 DUP2 MSTORE PUSH1 0x38 PUSH1 0x20 MSTORE PUSH1 0x40 SWAP1 KECCAK256 SLOAD AND SWAP1 JUMP JUMPDEST PUSH1 0x1 PUSH1 0x1 PUSH1 0xA0 SHL SUB DUP1 DUP3 AND PUSH1 0x0 SWAP1 DUP2 MSTORE PUSH1 0x38 PUSH1 0x20 SWAP1 DUP2 MSTORE PUSH1 0x40 DUP1 DUP4 KECCAK256 PUSH1 0x34 SLOAD DUP3 MLOAD PUSH4 0x1B0C55DD PUSH1 0xE1 SHL DUP2 MSTORE SWAP3 MLOAD SWAP5 SWAP6 SWAP2 SWAP5 DUP7 SWAP5 SWAP2 SWAP1 SWAP3 AND SWAP3 PUSH4 0x3618ABBA SWAP3 PUSH1 0x4 DUP1 DUP4 ADD SWAP4 SWAP3 DUP3 SWAP1 SUB ADD DUP2 DUP7 DUP1 EXTCODESIZE ISZERO DUP1 ISZERO PUSH2 0x2D6A JUMPI PUSH1 0x0 DUP1 REVERT JUMPDEST POP GAS STATICCALL ISZERO DUP1 ISZERO PUSH2 0x2D7E JUMPI RETURNDATASIZE PUSH1 0x0 DUP1 RETURNDATACOPY RETURNDATASIZE PUSH1 0x0 REVERT JUMPDEST POP POP POP POP PUSH1 0x40 MLOAD RETURNDATASIZE PUSH1 0x20 DUP2 LT ISZERO PUSH2 0x2D94 JUMPI PUSH1 0x0 DUP1 REVERT JUMPDEST POP MLOAD PUSH1 0x5 DUP4 ADD SLOAD SWAP1 SWAP2 POP PUSH2 0x2E2E JUMPI DUP1 PUSH1 0x1 PUSH1 0x1 PUSH1 0xA0 SHL SUB AND PUSH4 0xBB85C0BB DUP6 PUSH1 0x40 MLOAD DUP3 PUSH4 0xFFFFFFFF AND PUSH1 0xE0 SHL DUP2 MSTORE PUSH1 0x4 ADD DUP1 DUP3 PUSH1 0x1 PUSH1 0x1 PUSH1 0xA0 SHL SUB AND PUSH1 0x1 PUSH1 0x1 PUSH1 0xA0 SHL SUB AND DUP2 MSTORE PUSH1 0x20 ADD SWAP2 POP POP PUSH1 0x20 PUSH1 0x40 MLOAD DUP1 DUP4 SUB DUP2 DUP7 DUP1 EXTCODESIZE ISZERO DUP1 ISZERO PUSH2 0x2DF8 JUMPI PUSH1 0x0 DUP1 REVERT JUMPDEST POP GAS STATICCALL ISZERO DUP1 ISZERO PUSH2 0x2E0C JUMPI RETURNDATASIZE PUSH1 0x0 DUP1 RETURNDATACOPY RETURNDATASIZE PUSH1 0x0 REVERT JUMPDEST POP POP POP POP PUSH1 0x40 MLOAD RETURNDATASIZE PUSH1 0x20 DUP2 LT ISZERO PUSH2 0x2E22 JUMPI PUSH1 0x0 DUP1 REVERT JUMPDEST POP MLOAD SWAP3 POP PUSH2 0x1506 SWAP2 POP POP JUMP JUMPDEST POP PUSH1 0x5 ADD SLOAD SWAP3 SWAP2 POP POP JUMP JUMPDEST PUSH1 0x35 SLOAD PUSH1 0x0 SWAP1 PUSH1 0x1 PUSH1 0x1 PUSH1 0xA0 SHL SUB AND CALLER EQ PUSH2 0x2E85 JUMPI PUSH1 0x40 MLOAD PUSH3 0x461BCD PUSH1 0xE5 SHL DUP2 MSTORE PUSH1 0x4 ADD DUP1 DUP1 PUSH1 0x20 ADD DUP3 DUP2 SUB DUP3 MSTORE PUSH1 0x2A DUP2 MSTORE PUSH1 0x20 ADD DUP1 PUSH2 0x5DFE PUSH1 0x2A SWAP2 CODECOPY PUSH1 0x40 ADD SWAP2 POP POP PUSH1 0x40 MLOAD DUP1 SWAP2 SUB SWAP1 REVERT JUMPDEST PUSH1 0x36 SLOAD PUSH1 0x40 DUP1 MLOAD PUSH4 0xF8A56CD PUSH1 0xE3 SHL DUP2 MSTORE PUSH1 0x1 PUSH1 0x1 PUSH1 0xA0 SHL SUB DUP8 DUP2 AND PUSH1 0x4 DUP4 ADD MSTORE SWAP2 MLOAD SWAP2 SWAP1 SWAP3 AND SWAP2 PUSH4 0x7C52B668 SWAP2 PUSH1 0x24 DUP1 DUP4 ADD SWAP3 PUSH1 0x20 SWAP3 SWAP2 SWAP1 DUP3 SWAP1 SUB ADD DUP2 PUSH1 0x0 DUP8 DUP1 EXTCODESIZE ISZERO DUP1 ISZERO PUSH2 0x2ED4 JUMPI PUSH1 0x0 DUP1 REVERT JUMPDEST POP GAS CALL ISZERO DUP1 ISZERO PUSH2 0x2EE8 JUMPI RETURNDATASIZE PUSH1 0x0 DUP1 RETURNDATACOPY RETURNDATASIZE PUSH1 0x0 REVERT JUMPDEST POP POP POP POP PUSH1 0x40 MLOAD RETURNDATASIZE PUSH1 0x20 DUP2 LT ISZERO PUSH2 0x2EFE JUMPI PUSH1 0x0 DUP1 REVERT JUMPDEST POP POP PUSH1 0x1 PUSH1 0x1 PUSH1 0xA0 SHL SUB DUP1 DUP6 AND PUSH1 0x0 SWAP1 DUP2 MSTORE PUSH1 0x38 PUSH1 0x20 MSTORE PUSH1 0x40 DUP1 DUP3 KECCAK256 SLOAD DUP2 MLOAD PUSH4 0x1E77D68B PUSH1 0xE0 SHL DUP2 MSTORE DUP8 DUP6 AND PUSH1 0x4 DUP3 ADD MSTORE SWAP2 MLOAD SWAP4 AND SWAP3 DUP4 SWAP3 PUSH4 0x1E77D68B SWAP3 PUSH1 0x24 DUP1 DUP3 ADD SWAP4 SWAP2 DUP3 SWAP1 SUB ADD DUP2 DUP4 DUP8 DUP1 EXTCODESIZE ISZERO DUP1 ISZERO PUSH2 0x2F58 JUMPI PUSH1 0x0 DUP1 REVERT JUMPDEST POP GAS CALL ISZERO DUP1 ISZERO PUSH2 0x2F6C JUMPI RETURNDATASIZE PUSH1 0x0 DUP1 RETURNDATACOPY RETURNDATASIZE PUSH1 0x0 REVERT JUMPDEST POP POP POP POP PUSH2 0x2F7B DUP6 DUP6 DUP6 PUSH2 0x4E76 JUMP JUMPDEST PUSH2 0x2F86 DUP6 DUP6 DUP6 PUSH2 0x4EC6 JUMP JUMPDEST PUSH2 0x2F92 DUP6 PUSH1 0x0 DUP1 PUSH2 0x4339 JUMP JUMPDEST POP POP PUSH1 0x1 PUSH1 0x1 PUSH1 0xA0 SHL SUB DUP1 DUP4 AND PUSH1 0x0 SWAP1 DUP2 MSTORE PUSH1 0x39 PUSH1 0x20 SWAP1 DUP2 MSTORE PUSH1 0x40 DUP1 DUP4 KECCAK256 SWAP4 DUP8 AND DUP4 MSTORE SWAP3 SWAP1 MSTORE KECCAK256 PUSH1 0x2 ADD SLOAD SWAP4 SWAP3 POP POP POP JUMP JUMPDEST PUSH1 0x35 SLOAD PUSH1 0x1 PUSH1 0x1 PUSH1 0xA0 SHL SUB AND CALLER EQ PUSH2 0x300D JUMPI PUSH1 0x40 MLOAD PUSH3 0x461BCD PUSH1 0xE5 SHL DUP2 MSTORE PUSH1 0x4 ADD DUP1 DUP1 PUSH1 0x20 ADD DUP3 DUP2 SUB DUP3 MSTORE PUSH1 0x2A DUP2 MSTORE PUSH1 0x20 ADD DUP1 PUSH2 0x5DFE PUSH1 0x2A SWAP2 CODECOPY PUSH1 0x40 ADD SWAP2 POP POP PUSH1 0x40 MLOAD DUP1 SWAP2 SUB SWAP1 REVERT JUMPDEST PUSH1 0x36 SLOAD PUSH1 0x40 DUP1 MLOAD PUSH4 0x4F425FBB PUSH1 0xE0 SHL DUP2 MSTORE PUSH1 0x1 PUSH1 0x1 PUSH1 0xA0 SHL SUB DUP8 DUP2 AND PUSH1 0x4 DUP4 ADD MSTORE SWAP2 MLOAD SWAP2 SWAP1 SWAP3 AND SWAP2 PUSH4 0x4F425FBB SWAP2 PUSH1 0x24 DUP1 DUP4 ADD SWAP3 PUSH1 0x20 SWAP3 SWAP2 SWAP1 DUP3 SWAP1 SUB ADD DUP2 PUSH1 0x0 DUP8 DUP1 EXTCODESIZE ISZERO DUP1 ISZERO PUSH2 0x305C JUMPI PUSH1 0x0 DUP1 REVERT JUMPDEST POP GAS CALL ISZERO DUP1 ISZERO PUSH2 0x3070 JUMPI RETURNDATASIZE PUSH1 0x0 DUP1 RETURNDATACOPY RETURNDATASIZE PUSH1 0x0 REVERT JUMPDEST POP POP POP POP PUSH1 0x40 MLOAD RETURNDATASIZE PUSH1 0x20 DUP2 LT ISZERO PUSH2 0x3086 JUMPI PUSH1 0x0 DUP1 REVERT JUMPDEST POP POP PUSH1 0x1 PUSH1 0x1 PUSH1 0xA0 SHL SUB DUP5 AND PUSH1 0x0 SWAP1 DUP2 MSTORE PUSH1 0x38 PUSH1 0x20 MSTORE PUSH1 0x40 SWAP1 KECCAK256 PUSH2 0x30A9 SWAP1 PUSH2 0x41B9 JUMP JUMPDEST PUSH2 0x30B5 DUP5 PUSH1 0x0 DUP5 PUSH2 0x4339 JUMP JUMPDEST DUP1 ISZERO PUSH2 0x2B5E JUMPI PUSH2 0x2B5E DUP5 DUP5 PUSH1 0x0 PUSH2 0x1E8F JUMP JUMPDEST PUSH1 0x34 SLOAD PUSH1 0x40 DUP1 MLOAD PUSH4 0x85C858B1 PUSH1 0xE0 SHL DUP2 MSTORE SWAP1 MLOAD CALLER SWAP3 PUSH1 0x1 PUSH1 0x1 PUSH1 0xA0 SHL SUB AND SWAP2 PUSH4 0x85C858B1 SWAP2 PUSH1 0x4 DUP1 DUP4 ADD SWAP3 PUSH1 0x20 SWAP3 SWAP2 SWAP1 DUP3 SWAP1 SUB ADD DUP2 DUP7 DUP1 EXTCODESIZE ISZERO DUP1 ISZERO PUSH2 0x310B JUMPI PUSH1 0x0 DUP1 REVERT JUMPDEST POP GAS STATICCALL ISZERO DUP1 ISZERO PUSH2 0x311F JUMPI RETURNDATASIZE PUSH1 0x0 DUP1 RETURNDATACOPY RETURNDATASIZE PUSH1 0x0 REVERT JUMPDEST POP POP POP POP PUSH1 0x40 MLOAD RETURNDATASIZE PUSH1 0x20 DUP2 LT ISZERO PUSH2 0x3135 JUMPI PUSH1 0x0 DUP1 REVERT JUMPDEST POP MLOAD PUSH1 0x1 PUSH1 0x1 PUSH1 0xA0 SHL SUB AND EQ PUSH2 0x317C JUMPI PUSH1 0x40 MLOAD PUSH3 0x461BCD PUSH1 0xE5 SHL DUP2 MSTORE PUSH1 0x4 ADD DUP1 DUP1 PUSH1 0x20 ADD DUP3 DUP2 SUB DUP3 MSTORE PUSH1 0x38 DUP2 MSTORE PUSH1 0x20 ADD DUP1 PUSH2 0x5ED0 PUSH1 0x38 SWAP2 CODECOPY PUSH1 0x40 ADD SWAP2 POP POP PUSH1 0x40 MLOAD DUP1 SWAP2 SUB SWAP1 REVERT JUMPDEST DUP1 ISZERO PUSH2 0x3205 JUMPI PUSH1 0x1 PUSH1 0x1 PUSH1 0xA0 SHL SUB DUP3 AND PUSH1 0x0 SWAP1 DUP2 MSTORE PUSH1 0x38 PUSH1 0x20 MSTORE PUSH1 0x40 DUP1 DUP3 KECCAK256 DUP2 MLOAD PUSH4 0xDB591535 PUSH1 0xE0 SHL DUP2 MSTORE PUSH1 0x4 DUP2 ADD SWAP2 SWAP1 SWAP2 MSTORE SWAP1 MLOAD PUSH20 0x0 SWAP3 PUSH4 0xDB591535 SWAP3 PUSH1 0x24 DUP1 DUP3 ADD SWAP4 SWAP2 DUP3 SWAP1 SUB ADD DUP2 DUP7 DUP1 EXTCODESIZE ISZERO DUP1 ISZERO PUSH2 0x31E8 JUMPI PUSH1 0x0 DUP1 REVERT JUMPDEST POP GAS DELEGATECALL ISZERO DUP1 ISZERO PUSH2 0x31FC JUMPI RETURNDATASIZE PUSH1 0x0 DUP1 RETURNDATACOPY RETURNDATASIZE PUSH1 0x0 REVERT JUMPDEST POP POP POP POP PUSH2 0x327F JUMP JUMPDEST PUSH1 0x1 PUSH1 0x1 PUSH1 0xA0 SHL SUB DUP3 AND PUSH1 0x0 SWAP1 DUP2 MSTORE PUSH1 0x38 PUSH1 0x20 MSTORE PUSH1 0x40 DUP1 DUP3 KECCAK256 DUP2 MLOAD PUSH4 0xEA746E5 PUSH1 0xE4 SHL DUP2 MSTORE PUSH1 0x4 DUP2 ADD SWAP2 SWAP1 SWAP2 MSTORE SWAP1 MLOAD PUSH20 0x0 SWAP3 PUSH4 0xEA746E50 SWAP3 PUSH1 0x24 DUP1 DUP3 ADD SWAP4 SWAP2 DUP3 SWAP1 SUB ADD DUP2 DUP7 DUP1 EXTCODESIZE ISZERO DUP1 ISZERO PUSH2 0x326B JUMPI PUSH1 0x0 DUP1 REVERT JUMPDEST POP GAS DELEGATECALL ISZERO DUP1 ISZERO PUSH2 0x1A28 JUMPI RETURNDATASIZE PUSH1 0x0 DUP1 RETURNDATACOPY RETURNDATASIZE PUSH1 0x0 REVERT JUMPDEST POP POP JUMP JUMPDEST PUSH1 0x35 SLOAD PUSH1 0x1 PUSH1 0x1 PUSH1 0xA0 SHL SUB AND CALLER EQ PUSH2 0x32CC JUMPI PUSH1 0x40 MLOAD PUSH3 0x461BCD PUSH1 0xE5 SHL DUP2 MSTORE PUSH1 0x4 ADD DUP1 DUP1 PUSH1 0x20 ADD DUP3 DUP2 SUB DUP3 MSTORE PUSH1 0x2A DUP2 MSTORE PUSH1 0x20 ADD DUP1 PUSH2 0x5DFE PUSH1 0x2A SWAP2 CODECOPY PUSH1 0x40 ADD SWAP2 POP POP PUSH1 0x40 MLOAD DUP1 SWAP2 SUB SWAP1 REVERT JUMPDEST PUSH1 0x36 SLOAD PUSH1 0x40 DUP1 MLOAD PUSH4 0x4F425FBB PUSH1 0xE0 SHL DUP2 MSTORE PUSH1 0x1 PUSH1 0x1 PUSH1 0xA0 SHL SUB DUP8 DUP2 AND PUSH1 0x4 DUP4 ADD MSTORE SWAP2 MLOAD SWAP2 SWAP1 SWAP3 AND SWAP2 PUSH4 0x4F425FBB SWAP2 PUSH1 0x24 DUP1 DUP4 ADD SWAP3 PUSH1 0x20 SWAP3 SWAP2 SWAP1 DUP3 SWAP1 SUB ADD DUP2 PUSH1 0x0 DUP8 DUP1 EXTCODESIZE ISZERO DUP1 ISZERO PUSH2 0x331B JUMPI PUSH1 0x0 DUP1 REVERT JUMPDEST POP GAS CALL ISZERO DUP1 ISZERO PUSH2 0x332F JUMPI RETURNDATASIZE PUSH1 0x0 DUP1 RETURNDATACOPY RETURNDATASIZE PUSH1 0x0 REVERT JUMPDEST POP POP POP POP PUSH1 0x40 MLOAD RETURNDATASIZE PUSH1 0x20 DUP2 LT ISZERO PUSH2 0x3345 JUMPI PUSH1 0x0 DUP1 REVERT JUMPDEST POP POP PUSH1 0x1 PUSH1 0x1 PUSH1 0xA0 SHL SUB DUP5 AND PUSH1 0x0 SWAP1 DUP2 MSTORE PUSH1 0x38 PUSH1 0x20 MSTORE PUSH1 0x40 SWAP1 KECCAK256 PUSH2 0x3368 SWAP1 PUSH2 0x41B9 JUMP JUMPDEST PUSH2 0x3374 DUP5 DUP4 PUSH1 0x0 PUSH2 0x4339 JUMP JUMPDEST DUP1 ISZERO PUSH2 0x2B5E JUMPI PUSH2 0x2B5E DUP5 DUP5 PUSH1 0x1 PUSH2 0x1E8F JUMP JUMPDEST PUSH1 0x1 PUSH1 0x1 PUSH1 0xA0 SHL SUB AND PUSH1 0x0 SWAP1 DUP2 MSTORE PUSH1 0x38 PUSH1 0x20 MSTORE PUSH1 0x40 SWAP1 KECCAK256 PUSH1 0x8 ADD SLOAD SWAP1 JUMP JUMPDEST PUSH1 0x0 PUSH2 0x33AE PUSH2 0x4F9F JUMP JUMPDEST PUSH1 0x1 SLOAD SWAP1 SWAP2 POP PUSH1 0xFF AND DUP1 PUSH2 0x33C5 JUMPI POP PUSH2 0x33C5 PUSH2 0x4FA4 JUMP JUMPDEST DUP1 PUSH2 0x33D1 JUMPI POP PUSH1 0x0 SLOAD DUP2 GT JUMPDEST PUSH2 0x340C JUMPI PUSH1 0x40 MLOAD PUSH3 0x461BCD PUSH1 0xE5 SHL DUP2 MSTORE PUSH1 0x4 ADD DUP1 DUP1 PUSH1 0x20 ADD DUP3 DUP2 SUB DUP3 MSTORE PUSH1 0x2E DUP2 MSTORE PUSH1 0x20 ADD DUP1 PUSH2 0x5DD0 PUSH1 0x2E SWAP2 CODECOPY PUSH1 0x40 ADD SWAP2 POP POP PUSH1 0x40 MLOAD DUP1 SWAP2 SUB SWAP1 REVERT JUMPDEST PUSH1 0x1 SLOAD PUSH1 0xFF AND ISZERO DUP1 ISZERO PUSH2 0x342B JUMPI PUSH1 0x1 DUP1 SLOAD PUSH1 0xFF NOT AND DUP2 OR SWAP1 SSTORE PUSH1 0x0 DUP3 SWAP1 SSTORE JUMPDEST PUSH1 0x34 DUP1 SLOAD PUSH1 0x1 PUSH1 0x1 PUSH1 0xA0 SHL SUB NOT AND PUSH1 0x1 PUSH1 0x1 PUSH1 0xA0 SHL SUB DUP6 AND OR SWAP1 SSTORE PUSH2 0x344E PUSH2 0x4957 JUMP JUMPDEST DUP1 ISZERO PUSH2 0x1C90 JUMPI PUSH1 0x1 DUP1 SLOAD PUSH1 0xFF NOT AND SWAP1 SSTORE POP POP POP JUMP JUMPDEST PUSH1 0x1 PUSH1 0x1 PUSH1 0xA0 SHL SUB AND PUSH1 0x0 SWAP1 DUP2 MSTORE PUSH1 0x38 PUSH1 0x20 MSTORE PUSH1 0x40 SWAP1 KECCAK256 PUSH1 0x2 DUP2 ADD SLOAD PUSH1 0xF DUP3 ADD SLOAD PUSH1 0x10 DUP4 ADD SLOAD PUSH1 0x3 SWAP1 SWAP4 ADD SLOAD SWAP2 SWAP4 SWAP1 SWAP3 SWAP2 PUSH4 0x1000000 SWAP1 DIV PUSH1 0xFF AND SWAP1 JUMP JUMPDEST PUSH1 0x34 SLOAD PUSH1 0x1 PUSH1 0x1 PUSH1 0xA0 SHL SUB AND DUP2 JUMP JUMPDEST PUSH1 0x35 SLOAD PUSH1 0x1 PUSH1 0x1 PUSH1 0xA0 SHL SUB AND CALLER EQ PUSH2 0x34F9 JUMPI PUSH1 0x40 MLOAD PUSH3 0x461BCD PUSH1 0xE5 SHL DUP2 MSTORE PUSH1 0x4 ADD DUP1 DUP1 PUSH1 0x20 ADD DUP3 DUP2 SUB DUP3 MSTORE PUSH1 0x2A DUP2 MSTORE PUSH1 0x20 ADD DUP1 PUSH2 0x5DFE PUSH1 0x2A SWAP2 CODECOPY PUSH1 0x40 ADD SWAP2 POP POP PUSH1 0x40 MLOAD DUP1 SWAP2 SUB SWAP1 REVERT JUMPDEST DUP1 PUSH2 0x3502 PUSH2 0x45B3 JUMP JUMPDEST PUSH1 0x1 PUSH1 0x1 PUSH1 0xA0 SHL SUB AND DUP6 PUSH1 0x1 PUSH1 0x1 PUSH1 0xA0 SHL SUB AND EQ PUSH2 0x3577 JUMPI CALLVALUE ISZERO PUSH2 0x3557 JUMPI PUSH1 0x40 MLOAD PUSH3 0x461BCD PUSH1 0xE5 SHL DUP2 MSTORE PUSH1 0x4 ADD DUP1 DUP1 PUSH1 0x20 ADD DUP3 DUP2 SUB DUP3 MSTORE PUSH1 0x5F DUP2 MSTORE PUSH1 0x20 ADD DUP1 PUSH2 0x5D10 PUSH1 0x5F SWAP2 CODECOPY PUSH1 0x60 ADD SWAP2 POP POP PUSH1 0x40 MLOAD DUP1 SWAP2 SUB SWAP1 REVERT JUMPDEST PUSH2 0x3572 PUSH1 0x1 PUSH1 0x1 PUSH1 0xA0 SHL SUB DUP7 AND DUP6 DUP4 DUP7 PUSH4 0xFFFFFFFF PUSH2 0x45CB AND JUMP JUMPDEST PUSH2 0x15F0 JUMP JUMPDEST DUP3 CALLVALUE LT ISZERO PUSH2 0x35B6 JUMPI PUSH1 0x40 MLOAD PUSH3 0x461BCD PUSH1 0xE5 SHL DUP2 MSTORE PUSH1 0x4 ADD DUP1 DUP1 PUSH1 0x20 ADD DUP3 DUP2 SUB DUP3 MSTORE PUSH1 0x35 DUP2 MSTORE PUSH1 0x20 ADD DUP1 PUSH2 0x5BFB PUSH1 0x35 SWAP2 CODECOPY PUSH1 0x40 ADD SWAP2 POP POP PUSH1 0x40 MLOAD DUP1 SWAP2 SUB SWAP1 REVERT JUMPDEST PUSH1 0x40 MLOAD PUSH1 0x0 SWAP1 PUSH1 0x1 PUSH1 0x1 PUSH1 0xA0 SHL SUB DUP4 AND SWAP1 PUSH2 0xC350 SWAP1 DUP7 SWAP1 DUP5 DUP2 DUP2 DUP2 DUP6 DUP9 DUP9 CALL SWAP4 POP POP POP POP RETURNDATASIZE DUP1 PUSH1 0x0 DUP2 EQ PUSH2 0x3606 JUMPI PUSH1 0x40 MLOAD SWAP2 POP PUSH1 0x1F NOT PUSH1 0x3F RETURNDATASIZE ADD AND DUP3 ADD PUSH1 0x40 MSTORE RETURNDATASIZE DUP3 MSTORE RETURNDATASIZE PUSH1 0x0 PUSH1 0x20 DUP5 ADD RETURNDATACOPY PUSH2 0x360B JUMP JUMPDEST PUSH1 0x60 SWAP2 POP JUMPDEST POP POP SWAP1 POP DUP1 PUSH2 0x1A28 JUMPI PUSH1 0x40 DUP1 MLOAD PUSH3 0x461BCD PUSH1 0xE5 SHL DUP2 MSTORE PUSH1 0x20 PUSH1 0x4 DUP3 ADD MSTORE PUSH1 0x16 PUSH1 0x24 DUP3 ADD MSTORE PUSH22 0x151C985B9CD9995C881BD9881155120819985A5B1959 PUSH1 0x52 SHL PUSH1 0x44 DUP3 ADD MSTORE SWAP1 MLOAD SWAP1 DUP2 SWAP1 SUB PUSH1 0x64 ADD SWAP1 REVERT JUMPDEST PUSH1 0x1 PUSH1 0x1 PUSH1 0xA0 SHL SUB AND PUSH1 0x0 SWAP1 DUP2 MSTORE PUSH1 0x38 PUSH1 0x20 MSTORE PUSH1 0x40 SWAP1 KECCAK256 PUSH1 0x3 ADD SLOAD PUSH4 0x1000000 SWAP1 DIV PUSH1 0xFF AND SWAP1 JUMP JUMPDEST PUSH1 0x1 PUSH1 0x1 PUSH1 0xA0 SHL SUB DUP2 AND PUSH1 0x0 SWAP1 DUP2 MSTORE PUSH1 0x38 PUSH1 0x20 MSTORE PUSH1 0x40 DUP2 KECCAK256 DUP2 PUSH2 0x36A4 DUP3 PUSH2 0x4596 JUMP JUMPDEST SWAP1 POP DUP1 PUSH2 0x36B6 JUMPI PUSH1 0x0 SWAP3 POP POP POP PUSH2 0x1506 JUMP JUMPDEST PUSH1 0x0 PUSH2 0x36C1 DUP6 PUSH2 0x2BBE JUMP JUMPDEST SWAP1 POP PUSH2 0x36E3 PUSH2 0x36D6 DUP3 DUP5 PUSH4 0xFFFFFFFF PUSH2 0x4284 AND JUMP JUMPDEST DUP4 SWAP1 PUSH4 0xFFFFFFFF PUSH2 0x4CF0 AND JUMP JUMPDEST SWAP6 SWAP5 POP POP POP POP POP JUMP JUMPDEST PUSH1 0x36 SLOAD PUSH1 0x1 PUSH1 0x1 PUSH1 0xA0 SHL SUB AND DUP2 JUMP JUMPDEST PUSH1 0x35 SLOAD PUSH1 0x1 PUSH1 0x1 PUSH1 0xA0 SHL SUB AND DUP2 JUMP JUMPDEST PUSH1 0x1 PUSH1 0x1 PUSH1 0xA0 SHL SUB DUP2 AND PUSH1 0x0 SWAP1 DUP2 MSTORE PUSH1 0x38 PUSH1 0x20 MSTORE PUSH1 0x40 DUP2 KECCAK256 PUSH2 0x1CB6 DUP2 PUSH2 0x4FAA JUMP JUMPDEST PUSH1 0x35 SLOAD PUSH1 0x1 PUSH1 0x1 PUSH1 0xA0 SHL SUB AND CALLER EQ PUSH2 0x3774 JUMPI PUSH1 0x40 MLOAD PUSH3 0x461BCD PUSH1 0xE5 SHL DUP2 MSTORE PUSH1 0x4 ADD DUP1 DUP1 PUSH1 0x20 ADD DUP3 DUP2 SUB DUP3 MSTORE PUSH1 0x2A DUP2 MSTORE PUSH1 0x20 ADD DUP1 PUSH2 0x5DFE PUSH1 0x2A SWAP2 CODECOPY PUSH1 0x40 ADD SWAP2 POP POP PUSH1 0x40 MLOAD DUP1 SWAP2 SUB SWAP1 REVERT JUMPDEST PUSH1 0x36 SLOAD PUSH1 0x40 DUP1 MLOAD PUSH4 0xF8A56CD PUSH1 0xE3 SHL DUP2 MSTORE PUSH1 0x1 PUSH1 0x1 PUSH1 0xA0 SHL SUB DUP10 DUP2 AND PUSH1 0x4 DUP4 ADD MSTORE SWAP2 MLOAD SWAP2 SWAP1 SWAP3 AND SWAP2 PUSH4 0x7C52B668 SWAP2 PUSH1 0x24 DUP1 DUP4 ADD SWAP3 PUSH1 0x20 SWAP3 SWAP2 SWAP1 DUP3 SWAP1 SUB ADD DUP2 PUSH1 0x0 DUP8 DUP1 EXTCODESIZE ISZERO DUP1 ISZERO PUSH2 0x37C3 JUMPI PUSH1 0x0 DUP1 REVERT JUMPDEST POP GAS CALL ISZERO DUP1 ISZERO PUSH2 0x37D7 JUMPI RETURNDATASIZE PUSH1 0x0 DUP1 RETURNDATACOPY RETURNDATASIZE PUSH1 0x0 REVERT JUMPDEST POP POP POP POP PUSH1 0x40 MLOAD RETURNDATASIZE PUSH1 0x20 DUP2 LT ISZERO PUSH2 0x37ED JUMPI PUSH1 0x0 DUP1 REVERT JUMPDEST POP POP PUSH1 0x1 PUSH1 0x1 PUSH1 0xA0 SHL SUB DUP1 DUP8 AND PUSH1 0x0 SWAP1 DUP2 MSTORE PUSH1 0x38 PUSH1 0x20 MSTORE PUSH1 0x40 DUP1 DUP3 KECCAK256 SLOAD DUP2 MLOAD PUSH4 0x1E77D68B PUSH1 0xE0 SHL DUP2 MSTORE DUP10 DUP6 AND PUSH1 0x4 DUP3 ADD MSTORE SWAP2 MLOAD SWAP4 AND SWAP3 DUP4 SWAP3 PUSH4 0x1E77D68B SWAP3 PUSH1 0x24 DUP1 DUP3 ADD SWAP4 SWAP2 DUP3 SWAP1 SUB ADD DUP2 DUP4 DUP8 DUP1 EXTCODESIZE ISZERO DUP1 ISZERO PUSH2 0x3847 JUMPI PUSH1 0x0 DUP1 REVERT JUMPDEST POP GAS CALL ISZERO DUP1 ISZERO PUSH2 0x385B JUMPI RETURNDATASIZE PUSH1 0x0 DUP1 RETURNDATACOPY RETURNDATASIZE PUSH1 0x0 REVERT JUMPDEST POP POP POP POP PUSH2 0x386B DUP8 DUP8 DUP8 DUP7 PUSH2 0x4FEB JUMP JUMPDEST PUSH2 0x3879 DUP8 DUP8 DUP8 DUP8 DUP8 DUP8 PUSH2 0x504F JUMP JUMPDEST PUSH2 0x3885 DUP8 DUP7 PUSH1 0x0 PUSH2 0x4339 JUMP JUMPDEST POP POP POP POP POP POP POP JUMP JUMPDEST PUSH1 0x1 PUSH1 0x1 PUSH1 0xA0 SHL SUB AND PUSH1 0x0 SWAP1 DUP2 MSTORE PUSH1 0x38 PUSH1 0x20 MSTORE PUSH1 0x40 SWAP1 KECCAK256 PUSH1 0x2 ADD SLOAD SWAP1 JUMP JUMPDEST PUSH1 0x1 PUSH1 0x1 PUSH1 0xA0 SHL SUB DUP4 DUP2 AND PUSH1 0x0 DUP2 DUP2 MSTORE PUSH1 0x38 PUSH1 0x20 SWAP1 DUP2 MSTORE PUSH1 0x40 DUP1 DUP4 KECCAK256 SWAP5 DUP8 AND DUP4 MSTORE PUSH1 0x39 DUP3 MSTORE DUP1 DUP4 KECCAK256 SWAP4 DUP4 MSTORE SWAP3 SWAP1 MSTORE SWAP1 DUP2 KECCAK256 PUSH1 0x3 DUP4 ADD SLOAD SWAP2 SWAP3 SWAP2 PUSH5 0x100000000 SWAP1 DIV PUSH1 0xFF AND PUSH2 0x38FF JUMPI PUSH1 0x0 SWAP3 POP POP POP PUSH2 0x1CB6 JUMP JUMPDEST DUP1 SLOAD PUSH1 0xFF AND ISZERO DUP1 PUSH2 0x391C JUMPI POP PUSH1 0x3 DUP3 ADD SLOAD PUSH4 0x1000000 SWAP1 DIV PUSH1 0xFF AND ISZERO JUMPDEST DUP1 PUSH2 0x392F JUMPI POP PUSH2 0x392C DUP7 DUP7 PUSH2 0x16C4 JUMP JUMPDEST DUP5 GT JUMPDEST SWAP7 SWAP6 POP POP POP POP POP POP JUMP JUMPDEST PUSH1 0x34 SLOAD PUSH1 0x40 DUP1 MLOAD PUSH4 0x85C858B1 PUSH1 0xE0 SHL DUP2 MSTORE SWAP1 MLOAD CALLER SWAP3 PUSH1 0x1 PUSH1 0x1 PUSH1 0xA0 SHL SUB AND SWAP2 PUSH4 0x85C858B1 SWAP2 PUSH1 0x4 DUP1 DUP4 ADD SWAP3 PUSH1 0x20 SWAP3 SWAP2 SWAP1 DUP3 SWAP1 SUB ADD DUP2 DUP7 DUP1 EXTCODESIZE ISZERO DUP1 ISZERO PUSH2 0x397D JUMPI PUSH1 0x0 DUP1 REVERT JUMPDEST POP GAS STATICCALL ISZERO DUP1 ISZERO PUSH2 0x3991 JUMPI RETURNDATASIZE PUSH1 0x0 DUP1 RETURNDATACOPY RETURNDATASIZE PUSH1 0x0 REVERT JUMPDEST POP POP POP POP PUSH1 0x40 MLOAD RETURNDATASIZE PUSH1 0x20 DUP2 LT ISZERO PUSH2 0x39A7 JUMPI PUSH1 0x0 DUP1 REVERT JUMPDEST POP MLOAD PUSH1 0x1 PUSH1 0x1 PUSH1 0xA0 SHL SUB AND EQ PUSH2 0x39EE JUMPI PUSH1 0x40 MLOAD PUSH3 0x461BCD PUSH1 0xE5 SHL DUP2 MSTORE PUSH1 0x4 ADD DUP1 DUP1 PUSH1 0x20 ADD DUP3 DUP2 SUB DUP3 MSTORE PUSH1 0x38 DUP2 MSTORE PUSH1 0x20 ADD DUP1 PUSH2 0x5ED0 PUSH1 0x38 SWAP2 CODECOPY PUSH1 0x40 ADD SWAP2 POP POP PUSH1 0x40 MLOAD DUP1 SWAP2 SUB SWAP1 REVERT JUMPDEST PUSH1 0x1 PUSH1 0x1 PUSH1 0xA0 SHL SUB DUP5 AND PUSH1 0x0 SWAP1 DUP2 MSTORE PUSH1 0x38 PUSH1 0x20 MSTORE PUSH1 0x40 DUP1 DUP3 KECCAK256 DUP2 MLOAD PUSH4 0x897C1247 PUSH1 0xE0 SHL DUP2 MSTORE PUSH1 0x4 DUP2 ADD SWAP2 SWAP1 SWAP2 MSTORE PUSH1 0x24 DUP2 ADD DUP7 SWAP1 MSTORE PUSH1 0x44 DUP2 ADD DUP6 SWAP1 MSTORE PUSH1 0x64 DUP2 ADD DUP5 SWAP1 MSTORE SWAP1 MLOAD PUSH20 0x0 SWAP3 PUSH4 0x897C1247 SWAP3 PUSH1 0x84 DUP1 DUP3 ADD SWAP4 SWAP2 DUP3 SWAP1 SUB ADD DUP2 DUP7 DUP1 EXTCODESIZE ISZERO DUP1 ISZERO PUSH2 0x3A69 JUMPI PUSH1 0x0 DUP1 REVERT JUMPDEST POP GAS DELEGATECALL ISZERO DUP1 ISZERO PUSH2 0x3A7D JUMPI RETURNDATASIZE PUSH1 0x0 DUP1 RETURNDATACOPY RETURNDATASIZE PUSH1 0x0 REVERT JUMPDEST POP POP POP POP POP POP POP POP JUMP JUMPDEST PUSH1 0x34 SLOAD PUSH1 0x40 DUP1 MLOAD PUSH4 0x85C858B1 PUSH1 0xE0 SHL DUP2 MSTORE SWAP1 MLOAD CALLER SWAP3 PUSH1 0x1 PUSH1 0x1 PUSH1 0xA0 SHL SUB AND SWAP2 PUSH4 0x85C858B1 SWAP2 PUSH1 0x4 DUP1 DUP4 ADD SWAP3 PUSH1 0x20 SWAP3 SWAP2 SWAP1 DUP3 SWAP1 SUB ADD DUP2 DUP7 DUP1 EXTCODESIZE ISZERO DUP1 ISZERO PUSH2 0x3ACB JUMPI PUSH1 0x0 DUP1 REVERT JUMPDEST POP GAS STATICCALL ISZERO DUP1 ISZERO PUSH2 0x3ADF JUMPI RETURNDATASIZE PUSH1 0x0 DUP1 RETURNDATACOPY RETURNDATASIZE PUSH1 0x0 REVERT JUMPDEST POP POP POP POP PUSH1 0x40 MLOAD RETURNDATASIZE PUSH1 0x20 DUP2 LT ISZERO PUSH2 0x3AF5 JUMPI PUSH1 0x0 DUP1 REVERT JUMPDEST POP MLOAD PUSH1 0x1 PUSH1 0x1 PUSH1 0xA0 SHL SUB AND EQ PUSH2 0x3B3C JUMPI PUSH1 0x40 MLOAD PUSH3 0x461BCD PUSH1 0xE5 SHL DUP2 MSTORE PUSH1 0x4 ADD DUP1 DUP1 PUSH1 0x20 ADD DUP3 DUP2 SUB DUP3 MSTORE PUSH1 0x38 DUP2 MSTORE PUSH1 0x20 ADD DUP1 PUSH2 0x5ED0 PUSH1 0x38 SWAP2 CODECOPY PUSH1 0x40 ADD SWAP2 POP POP PUSH1 0x40 MLOAD DUP1 SWAP2 SUB SWAP1 REVERT JUMPDEST PUSH1 0x1 PUSH1 0x1 PUSH1 0xA0 SHL SUB DUP2 AND PUSH1 0x0 SWAP1 DUP2 MSTORE PUSH1 0x38 PUSH1 0x20 MSTORE PUSH1 0x40 DUP1 DUP3 KECCAK256 DUP2 MLOAD PUSH4 0xDF5D4113 PUSH1 0xE0 SHL DUP2 MSTORE PUSH1 0x4 DUP2 ADD SWAP2 SWAP1 SWAP2 MSTORE SWAP1 MLOAD PUSH20 0x0 SWAP3 PUSH4 0xDF5D4113 SWAP3 PUSH1 0x24 DUP1 DUP3 ADD SWAP4 SWAP2 DUP3 SWAP1 SUB ADD DUP2 DUP7 DUP1 EXTCODESIZE ISZERO DUP1 ISZERO PUSH2 0x3BA2 JUMPI PUSH1 0x0 DUP1 REVERT JUMPDEST POP GAS DELEGATECALL ISZERO DUP1 ISZERO PUSH2 0x15F0 JUMPI RETURNDATASIZE PUSH1 0x0 DUP1 RETURNDATACOPY RETURNDATASIZE PUSH1 0x0 REVERT JUMPDEST PUSH1 0x1 PUSH1 0x1 PUSH1 0xA0 SHL SUB DUP1 DUP3 AND PUSH1 0x0 SWAP1 DUP2 MSTORE PUSH1 0x39 PUSH1 0x20 SWAP1 DUP2 MSTORE PUSH1 0x40 DUP1 DUP4 KECCAK256 SWAP4 DUP7 AND DUP4 MSTORE SWAP3 SWAP1 MSTORE KECCAK256 SLOAD PUSH1 0xFF AND SWAP3 SWAP2 POP POP JUMP JUMPDEST PUSH1 0x1 PUSH1 0x1 PUSH1 0xA0 SHL SUB AND PUSH1 0x0 SWAP1 DUP2 MSTORE PUSH1 0x38 PUSH1 0x20 MSTORE PUSH1 0x40 SWAP1 KECCAK256 PUSH1 0x11 ADD SLOAD SWAP1 JUMP JUMPDEST PUSH1 0x35 SLOAD PUSH1 0x0 SWAP1 DUP2 SWAP1 PUSH1 0x1 PUSH1 0x1 PUSH1 0xA0 SHL SUB AND CALLER EQ PUSH2 0x3C51 JUMPI PUSH1 0x40 MLOAD PUSH3 0x461BCD PUSH1 0xE5 SHL DUP2 MSTORE PUSH1 0x4 ADD DUP1 DUP1 PUSH1 0x20 ADD DUP3 DUP2 SUB DUP3 MSTORE PUSH1 0x2A DUP2 MSTORE PUSH1 0x20 ADD DUP1 PUSH2 0x5DFE PUSH1 0x2A SWAP2 CODECOPY PUSH1 0x40 ADD SWAP2 POP POP PUSH1 0x40 MLOAD DUP1 SWAP2 SUB SWAP1 REVERT JUMPDEST PUSH1 0x36 SLOAD PUSH1 0x40 DUP1 MLOAD PUSH4 0xF8A56CD PUSH1 0xE3 SHL DUP2 MSTORE PUSH1 0x1 PUSH1 0x1 PUSH1 0xA0 SHL SUB DUP12 DUP2 AND PUSH1 0x4 DUP4 ADD MSTORE SWAP2 MLOAD SWAP2 SWAP1 SWAP3 AND SWAP2 PUSH4 0x7C52B668 SWAP2 PUSH1 0x24 DUP1 DUP4 ADD SWAP3 PUSH1 0x20 SWAP3 SWAP2 SWAP1 DUP3 SWAP1 SUB ADD DUP2 PUSH1 0x0 DUP8 DUP1 EXTCODESIZE ISZERO DUP1 ISZERO PUSH2 0x3CA0 JUMPI PUSH1 0x0 DUP1 REVERT JUMPDEST POP GAS CALL ISZERO DUP1 ISZERO PUSH2 0x3CB4 JUMPI RETURNDATASIZE PUSH1 0x0 DUP1 RETURNDATACOPY RETURNDATASIZE PUSH1 0x0 REVERT JUMPDEST POP POP POP POP PUSH1 0x40 MLOAD RETURNDATASIZE PUSH1 0x20 DUP2 LT ISZERO PUSH2 0x3CCA JUMPI PUSH1 0x0 DUP1 REVERT JUMPDEST POP POP PUSH1 0x1 PUSH1 0x1 PUSH1 0xA0 SHL SUB DUP1 DUP10 AND PUSH1 0x0 SWAP1 DUP2 MSTORE PUSH1 0x38 PUSH1 0x20 MSTORE PUSH1 0x40 DUP1 DUP3 KECCAK256 SLOAD DUP2 MLOAD PUSH4 0x1E77D68B PUSH1 0xE0 SHL DUP2 MSTORE DUP12 DUP6 AND PUSH1 0x4 DUP3 ADD MSTORE SWAP2 MLOAD SWAP4 AND SWAP3 DUP4 SWAP3 PUSH4 0x1E77D68B SWAP3 PUSH1 0x24 DUP1 DUP3 ADD SWAP4 SWAP2 DUP3 SWAP1 SUB ADD DUP2 DUP4 DUP8 DUP1 EXTCODESIZE ISZERO DUP1 ISZERO PUSH2 0x3D24 JUMPI PUSH1 0x0 DUP1 REVERT JUMPDEST POP GAS CALL ISZERO DUP1 ISZERO PUSH2 0x3D38 JUMPI RETURNDATASIZE PUSH1 0x0 DUP1 RETURNDATACOPY RETURNDATASIZE PUSH1 0x0 REVERT JUMPDEST POP POP POP POP PUSH2 0x3D49 DUP10 DUP10 DUP10 DUP10 DUP9 PUSH2 0x5142 JUMP JUMPDEST PUSH1 0x0 PUSH2 0x3D57 DUP11 DUP11 DUP9 DUP9 PUSH2 0x5241 JUMP JUMPDEST SWAP1 POP PUSH2 0x3D65 DUP11 PUSH1 0x0 DUP1 PUSH2 0x4339 JUMP JUMPDEST DUP1 PUSH2 0x3D70 DUP12 DUP12 PUSH2 0x48C5 JUMP JUMPDEST SWAP4 POP SWAP4 POP POP POP SWAP7 POP SWAP7 SWAP5 POP POP POP POP POP JUMP JUMPDEST PUSH1 0x1 PUSH1 0x1 PUSH1 0xA0 SHL SUB DUP1 DUP3 AND PUSH1 0x0 SWAP1 DUP2 MSTORE PUSH1 0x39 PUSH1 0x20 SWAP1 DUP2 MSTORE PUSH1 0x40 DUP1 DUP4 KECCAK256 SWAP4 DUP7 AND DUP4 MSTORE SWAP3 SWAP1 MSTORE KECCAK256 PUSH1 0x3 ADD SLOAD SWAP3 SWAP2 POP POP JUMP JUMPDEST PUSH1 0x34 SLOAD PUSH1 0x40 DUP1 MLOAD PUSH4 0x85C858B1 PUSH1 0xE0 SHL DUP2 MSTORE SWAP1 MLOAD CALLER SWAP3 PUSH1 0x1 PUSH1 0x1 PUSH1 0xA0 SHL SUB AND SWAP2 PUSH4 0x85C858B1 SWAP2 PUSH1 0x4 DUP1 DUP4 ADD SWAP3 PUSH1 0x20 SWAP3 SWAP2 SWAP1 DUP3 SWAP1 SUB ADD DUP2 DUP7 DUP1 EXTCODESIZE ISZERO DUP1 ISZERO PUSH2 0x3DF4 JUMPI PUSH1 0x0 DUP1 REVERT JUMPDEST POP GAS STATICCALL ISZERO DUP1 ISZERO PUSH2 0x3E08 JUMPI RETURNDATASIZE PUSH1 0x0 DUP1 RETURNDATACOPY RETURNDATASIZE PUSH1 0x0 REVERT JUMPDEST POP POP POP POP PUSH1 0x40 MLOAD RETURNDATASIZE PUSH1 0x20 DUP2 LT ISZERO PUSH2 0x3E1E JUMPI PUSH1 0x0 DUP1 REVERT JUMPDEST POP MLOAD PUSH1 0x1 PUSH1 0x1 PUSH1 0xA0 SHL SUB AND EQ PUSH2 0x3E65 JUMPI PUSH1 0x40 MLOAD PUSH3 0x461BCD PUSH1 0xE5 SHL DUP2 MSTORE PUSH1 0x4 ADD DUP1 DUP1 PUSH1 0x20 ADD DUP3 DUP2 SUB DUP3 MSTORE PUSH1 0x38 DUP2 MSTORE PUSH1 0x20 ADD DUP1 PUSH2 0x5ED0 PUSH1 0x38 SWAP2 CODECOPY PUSH1 0x40 ADD SWAP2 POP POP PUSH1 0x40 MLOAD DUP1 SWAP2 SUB SWAP1 REVERT JUMPDEST PUSH1 0x1 PUSH1 0x1 PUSH1 0xA0 SHL SUB DUP3 AND PUSH1 0x0 SWAP1 DUP2 MSTORE PUSH1 0x38 PUSH1 0x20 MSTORE PUSH1 0x40 SWAP1 KECCAK256 DUP2 ISZERO PUSH2 0x3E99 JUMPI PUSH1 0x3 DUP2 ADD DUP1 SLOAD PUSH2 0xFF00 NOT AND PUSH2 0x100 OR SWAP1 SSTORE PUSH2 0x1C90 JUMP JUMPDEST PUSH1 0x3 ADD DUP1 SLOAD PUSH2 0xFF00 NOT AND SWAP1 SSTORE POP POP JUMP JUMPDEST PUSH1 0x35 SLOAD PUSH1 0x1 PUSH1 0x1 PUSH1 0xA0 SHL SUB AND CALLER EQ PUSH2 0x3EF2 JUMPI PUSH1 0x40 MLOAD PUSH3 0x461BCD PUSH1 0xE5 SHL DUP2 MSTORE PUSH1 0x4 ADD DUP1 DUP1 PUSH1 0x20 ADD DUP3 DUP2 SUB DUP3 MSTORE PUSH1 0x2A DUP2 MSTORE PUSH1 0x20 ADD DUP1 PUSH2 0x5DFE PUSH1 0x2A SWAP2 CODECOPY PUSH1 0x40 ADD SWAP2 POP POP PUSH1 0x40 MLOAD DUP1 SWAP2 SUB SWAP1 REVERT JUMPDEST PUSH2 0x3EFA PUSH2 0x45B3 JUMP JUMPDEST PUSH1 0x1 PUSH1 0x1 PUSH1 0xA0 SHL SUB AND DUP4 PUSH1 0x1 PUSH1 0x1 PUSH1 0xA0 SHL SUB AND EQ PUSH2 0x3F2C JUMPI PUSH2 0x1B8B PUSH1 0x1 PUSH1 0x1 PUSH1 0xA0 SHL SUB DUP5 AND DUP4 DUP4 PUSH4 0xFFFFFFFF PUSH2 0x4D39 AND JUMP JUMPDEST PUSH1 0x40 MLOAD PUSH1 0x0 SWAP1 PUSH1 0x1 PUSH1 0x1 PUSH1 0xA0 SHL SUB DUP5 AND SWAP1 PUSH2 0xC350 SWAP1 DUP5 SWAP1 DUP5 DUP2 DUP2 DUP2 DUP6 DUP9 DUP9 CALL SWAP4 POP POP POP POP RETURNDATASIZE DUP1 PUSH1 0x0 DUP2 EQ PUSH2 0x3F7C JUMPI PUSH1 0x40 MLOAD SWAP2 POP PUSH1 0x1F NOT PUSH1 0x3F RETURNDATASIZE ADD AND DUP3 ADD PUSH1 0x40 MSTORE RETURNDATASIZE DUP3 MSTORE RETURNDATASIZE PUSH1 0x0 PUSH1 0x20 DUP5 ADD RETURNDATACOPY PUSH2 0x3F81 JUMP JUMPDEST PUSH1 0x60 SWAP2 POP JUMPDEST POP POP SWAP1 POP DUP1 PUSH2 0x2B5E JUMPI PUSH1 0x40 DUP1 MLOAD PUSH3 0x461BCD PUSH1 0xE5 SHL DUP2 MSTORE PUSH1 0x20 PUSH1 0x4 DUP3 ADD MSTORE PUSH1 0x16 PUSH1 0x24 DUP3 ADD MSTORE PUSH22 0x151C985B9CD9995C881BD9881155120819985A5B1959 PUSH1 0x52 SHL PUSH1 0x44 DUP3 ADD MSTORE SWAP1 MLOAD SWAP1 DUP2 SWAP1 SUB PUSH1 0x64 ADD SWAP1 REVERT JUMPDEST PUSH1 0x1 PUSH1 0x1 PUSH1 0xA0 SHL SUB AND PUSH1 0x0 SWAP1 DUP2 MSTORE PUSH1 0x38 PUSH1 0x20 MSTORE PUSH1 0x40 SWAP1 KECCAK256 PUSH1 0xA ADD SLOAD SWAP1 JUMP JUMPDEST PUSH1 0x1 PUSH1 0x1 PUSH1 0xA0 SHL SUB DUP1 DUP4 AND PUSH1 0x0 DUP2 DUP2 MSTORE PUSH1 0x38 PUSH1 0x20 SWAP1 DUP2 MSTORE PUSH1 0x40 DUP1 DUP4 KECCAK256 SWAP5 DUP7 AND DUP4 MSTORE PUSH1 0x39 DUP3 MSTORE DUP1 DUP4 KECCAK256 SWAP4 DUP4 MSTORE SWAP3 SWAP1 MSTORE SWAP1 DUP2 KECCAK256 SWAP1 SWAP2 DUP3 SWAP2 DUP3 SWAP2 DUP3 SWAP2 DUP3 PUSH2 0x4032 DUP10 DUP10 PUSH2 0x16C4 JUMP JUMPDEST SWAP1 POP DUP2 PUSH1 0x1 ADD SLOAD PUSH1 0x0 EQ ISZERO PUSH2 0x4059 JUMPI SWAP1 SLOAD SWAP1 SWAP6 POP PUSH1 0x0 SWAP5 POP DUP5 SWAP4 POP PUSH1 0xFF AND SWAP2 POP PUSH2 0x4081 SWAP1 POP JUMP JUMPDEST DUP1 PUSH2 0x406A DUP4 DUP6 PUSH4 0xFFFFFFFF PUSH2 0x4D8B AND JUMP JUMPDEST PUSH1 0x4 DUP5 ADD SLOAD SWAP4 SLOAD SWAP2 SWAP9 POP SWAP7 POP SWAP2 SWAP5 POP POP PUSH1 0xFF AND SWAP2 POP POP JUMPDEST SWAP3 SWAP6 SWAP2 SWAP5 POP SWAP3 POP JUMP JUMPDEST PUSH1 0x37 DUP2 DUP2 SLOAD DUP2 LT PUSH2 0x4097 JUMPI INVALID JUMPDEST PUSH1 0x0 SWAP2 DUP3 MSTORE PUSH1 0x20 SWAP1 SWAP2 KECCAK256 ADD SLOAD PUSH1 0x1 PUSH1 0x1 PUSH1 0xA0 SHL SUB AND SWAP1 POP DUP2 JUMP JUMPDEST PUSH1 0x1 PUSH1 0x1 PUSH1 0xA0 SHL SUB AND PUSH1 0x0 SWAP1 DUP2 MSTORE PUSH1 0x38 PUSH1 0x20 MSTORE PUSH1 0x40 SWAP1 KECCAK256 PUSH1 0x12 ADD SLOAD PUSH5 0xFFFFFFFFFF AND SWAP1 JUMP JUMPDEST PUSH1 0x34 SLOAD PUSH1 0x40 DUP1 MLOAD PUSH4 0x145D02F PUSH1 0xE4 SHL DUP2 MSTORE SWAP1 MLOAD PUSH1 0x0 SWAP3 PUSH1 0x1 PUSH1 0x1 PUSH1 0xA0 SHL SUB AND SWAP2 PUSH4 0x145D02F0 SWAP2 PUSH1 0x4 DUP1 DUP4 ADD SWAP3 PUSH1 0x20 SWAP3 SWAP2 SWAP1 DUP3 SWAP1 SUB ADD DUP2 DUP7 DUP1 EXTCODESIZE ISZERO DUP1 ISZERO PUSH2 0x411B JUMPI PUSH1 0x0 DUP1 REVERT JUMPDEST POP GAS STATICCALL ISZERO DUP1 ISZERO PUSH2 0x412F JUMPI RETURNDATASIZE PUSH1 0x0 DUP1 RETURNDATACOPY RETURNDATASIZE PUSH1 0x0 REVERT JUMPDEST POP POP POP POP PUSH1 0x40 MLOAD RETURNDATASIZE PUSH1 0x20 DUP2 LT ISZERO PUSH2 0x4145 JUMPI PUSH1 0x0 DUP1 REVERT JUMPDEST POP MLOAD SWAP1 POP PUSH2 0x4151 PUSH2 0x45B3 JUMP JUMPDEST PUSH1 0x1 PUSH1 0x1 PUSH1 0xA0 SHL SUB AND DUP4 PUSH1 0x1 PUSH1 0x1 PUSH1 0xA0 SHL SUB AND EQ PUSH2 0x4183 JUMPI PUSH2 0x1B8B PUSH1 0x1 PUSH1 0x1 PUSH1 0xA0 SHL SUB DUP5 AND DUP3 DUP5 PUSH4 0xFFFFFFFF PUSH2 0x4D39 AND JUMP JUMPDEST PUSH1 0x40 MLOAD PUSH1 0x1 PUSH1 0x1 PUSH1 0xA0 SHL SUB DUP3 AND SWAP1 DUP4 ISZERO PUSH2 0x8FC MUL SWAP1 DUP5 SWAP1 PUSH1 0x0 DUP2 DUP2 DUP2 DUP6 DUP9 DUP9 CALL SWAP4 POP POP POP POP ISZERO DUP1 ISZERO PUSH2 0x2B5E JUMPI RETURNDATASIZE PUSH1 0x0 DUP1 RETURNDATACOPY RETURNDATASIZE PUSH1 0x0 REVERT JUMPDEST PUSH1 0x0 PUSH2 0x41C4 DUP3 PUSH2 0x4596 JUMP JUMPDEST SWAP1 POP DUP1 ISZERO PUSH2 0x327F JUMPI PUSH1 0x6 DUP3 ADD SLOAD PUSH1 0x12 DUP4 ADD SLOAD PUSH1 0x0 SWAP2 PUSH2 0x41E9 SWAP2 PUSH5 0xFFFFFFFFFF AND PUSH2 0x53C4 JUMP JUMPDEST SWAP1 POP PUSH2 0x4202 DUP4 PUSH1 0xC ADD SLOAD DUP3 PUSH2 0x4CAC SWAP1 SWAP2 SWAP1 PUSH4 0xFFFFFFFF AND JUMP JUMPDEST PUSH1 0xC DUP5 ADD SSTORE PUSH1 0x7 DUP4 ADD SLOAD PUSH1 0x12 DUP5 ADD SLOAD PUSH1 0x0 SWAP2 PUSH2 0x4224 SWAP2 PUSH5 0xFFFFFFFFFF AND PUSH2 0x53C4 JUMP JUMPDEST SWAP1 POP PUSH2 0x423D DUP5 PUSH1 0xD ADD SLOAD DUP3 PUSH2 0x4CAC SWAP1 SWAP2 SWAP1 PUSH4 0xFFFFFFFF AND JUMP JUMPDEST PUSH1 0xD DUP6 ADD SSTORE PUSH1 0x4 DUP5 ADD SLOAD PUSH1 0x12 DUP6 ADD SLOAD PUSH1 0x0 SWAP2 PUSH2 0x425F SWAP2 PUSH5 0xFFFFFFFFFF AND PUSH2 0x540F JUMP JUMPDEST SWAP1 POP PUSH2 0x4278 DUP6 PUSH1 0xB ADD SLOAD DUP3 PUSH2 0x4CAC SWAP1 SWAP2 SWAP1 PUSH4 0xFFFFFFFF AND JUMP JUMPDEST PUSH1 0xB DUP7 ADD SSTORE POP POP POP POP POP JUMP JUMPDEST PUSH1 0x0 DUP3 DUP3 ADD DUP4 DUP2 LT ISZERO PUSH2 0x1CB6 JUMPI PUSH1 0x40 DUP1 MLOAD PUSH3 0x461BCD PUSH1 0xE5 SHL DUP2 MSTORE PUSH1 0x20 PUSH1 0x4 DUP3 ADD MSTORE PUSH1 0x1B PUSH1 0x24 DUP3 ADD MSTORE PUSH32 0x536166654D6174683A206164646974696F6E206F766572666C6F770000000000 PUSH1 0x44 DUP3 ADD MSTORE SWAP1 MLOAD SWAP1 DUP2 SWAP1 SUB PUSH1 0x64 ADD SWAP1 REVERT JUMPDEST PUSH1 0x0 PUSH2 0x42F5 PUSH2 0x42EC DUP5 PUSH2 0x4C96 JUMP JUMPDEST PUSH2 0x2796 DUP5 PUSH2 0x4C96 JUMP JUMPDEST SWAP1 POP PUSH1 0x0 PUSH2 0x4311 PUSH2 0x4304 PUSH2 0x5460 JUMP JUMPDEST DUP4 SWAP1 PUSH4 0xFFFFFFFF PUSH2 0x4284 AND JUMP JUMPDEST SWAP1 POP PUSH2 0x432A DUP6 PUSH1 0xC ADD SLOAD DUP3 PUSH2 0x4CAC SWAP1 SWAP2 SWAP1 PUSH4 0xFFFFFFFF AND JUMP JUMPDEST DUP6 PUSH1 0xC ADD DUP2 SWAP1 SSTORE POP POP POP POP POP POP JUMP JUMPDEST PUSH1 0x1 PUSH1 0x1 PUSH1 0xA0 SHL SUB DUP1 DUP5 AND PUSH1 0x0 SWAP1 DUP2 MSTORE PUSH1 0x38 PUSH1 0x20 MSTORE PUSH1 0x40 DUP2 KECCAK256 PUSH1 0x1 DUP2 ADD SLOAD SWAP1 SWAP3 DUP3 SWAP2 DUP3 SWAP2 DUP3 SWAP2 AND PUSH4 0x57E37AF0 DUP10 PUSH2 0x4383 DUP10 PUSH2 0x4377 DUP13 PUSH2 0x2A16 DUP6 PUSH2 0x2BBE JUMP JUMPDEST SWAP1 PUSH4 0xFFFFFFFF PUSH2 0x4625 AND JUMP JUMPDEST DUP9 PUSH1 0x8 ADD SLOAD DUP10 PUSH1 0x9 ADD SLOAD DUP11 PUSH1 0xA ADD SLOAD PUSH1 0x40 MLOAD DUP7 PUSH4 0xFFFFFFFF AND PUSH1 0xE0 SHL DUP2 MSTORE PUSH1 0x4 ADD DUP1 DUP7 PUSH1 0x1 PUSH1 0x1 PUSH1 0xA0 SHL SUB AND PUSH1 0x1 PUSH1 0x1 PUSH1 0xA0 SHL SUB AND DUP2 MSTORE PUSH1 0x20 ADD DUP6 DUP2 MSTORE PUSH1 0x20 ADD DUP5 DUP2 MSTORE PUSH1 0x20 ADD DUP4 DUP2 MSTORE PUSH1 0x20 ADD DUP3 DUP2 MSTORE PUSH1 0x20 ADD SWAP6 POP POP POP POP POP POP PUSH1 0x80 PUSH1 0x40 MLOAD DUP1 DUP4 SUB DUP2 DUP7 DUP1 EXTCODESIZE ISZERO DUP1 ISZERO PUSH2 0x43F4 JUMPI PUSH1 0x0 DUP1 REVERT JUMPDEST POP GAS STATICCALL ISZERO DUP1 ISZERO PUSH2 0x4408 JUMPI RETURNDATASIZE PUSH1 0x0 DUP1 RETURNDATACOPY RETURNDATASIZE PUSH1 0x0 REVERT JUMPDEST POP POP POP POP PUSH1 0x40 MLOAD RETURNDATASIZE PUSH1 0x80 DUP2 LT ISZERO PUSH2 0x441E JUMPI PUSH1 0x0 DUP1 REVERT JUMPDEST POP DUP1 MLOAD PUSH1 0x20 DUP1 DUP4 ADD MLOAD PUSH1 0x40 DUP1 DUP6 ADD MLOAD PUSH1 0x60 SWAP6 DUP7 ADD MLOAD PUSH1 0x6 DUP13 ADD DUP7 SWAP1 SSTORE PUSH1 0x5 DUP13 ADD DUP5 SWAP1 SSTORE PUSH1 0x4 DUP13 ADD DUP3 SWAP1 SSTORE PUSH1 0x7 DUP13 ADD DUP2 SWAP1 SSTORE PUSH1 0x12 DUP13 ADD DUP1 SLOAD PUSH5 0xFFFFFFFFFF TIMESTAMP AND PUSH5 0xFFFFFFFFFF NOT SWAP1 SWAP2 AND OR SWAP1 SSTORE PUSH1 0xC DUP13 ADD SLOAD PUSH1 0xB DUP14 ADD SLOAD PUSH1 0xD DUP15 ADD SLOAD DUP6 MLOAD DUP10 DUP2 MSTORE SWAP8 DUP9 ADD DUP8 SWAP1 MSTORE DUP8 DUP7 ADD DUP6 SWAP1 MSTORE SWAP9 DUP8 ADD DUP4 SWAP1 MSTORE PUSH1 0x80 DUP8 ADD SWAP2 SWAP1 SWAP2 MSTORE PUSH1 0xA0 DUP7 ADD MSTORE PUSH1 0xC0 DUP6 ADD SWAP7 SWAP1 SWAP7 MSTORE SWAP1 MLOAD SWAP4 SWAP9 POP SWAP1 SWAP7 POP SWAP5 POP SWAP2 SWAP3 POP PUSH1 0x1 PUSH1 0x1 PUSH1 0xA0 SHL SUB DUP11 AND SWAP2 PUSH32 0x8D04E21DD03921CFD1F7E6F5CD09AA622F50B2EDAA2893E1D308F096C44D2A4A SWAP2 SWAP1 DUP2 SWAP1 SUB PUSH1 0xE0 ADD SWAP1 LOG2 POP POP POP POP POP POP POP POP JUMP JUMPDEST PUSH1 0x0 DUP1 JUMPDEST PUSH1 0x37 SLOAD DUP2 LT ISZERO PUSH2 0x453F JUMPI DUP3 PUSH1 0x1 PUSH1 0x1 PUSH1 0xA0 SHL SUB AND PUSH1 0x37 DUP3 DUP2 SLOAD DUP2 LT PUSH2 0x4517 JUMPI INVALID JUMPDEST PUSH1 0x0 SWAP2 DUP3 MSTORE PUSH1 0x20 SWAP1 SWAP2 KECCAK256 ADD SLOAD PUSH1 0x1 PUSH1 0x1 PUSH1 0xA0 SHL SUB AND EQ ISZERO PUSH2 0x4537 JUMPI PUSH1 0x1 SWAP2 POP JUMPDEST PUSH1 0x1 ADD PUSH2 0x44F6 JUMP JUMPDEST POP DUP1 PUSH2 0x327F JUMPI PUSH1 0x37 DUP1 SLOAD PUSH1 0x1 DUP2 ADD DUP3 SSTORE PUSH1 0x0 SWAP2 SWAP1 SWAP2 MSTORE PUSH32 0x42A7B7DD785CD69714A189DFFB3FD7D7174EDC9ECE837694CE50F7078F7C31AE ADD DUP1 SLOAD PUSH1 0x1 PUSH1 0x1 PUSH1 0xA0 SHL SUB DUP5 AND PUSH1 0x1 PUSH1 0x1 PUSH1 0xA0 SHL SUB NOT SWAP1 SWAP2 AND OR SWAP1 SSTORE POP POP JUMP JUMPDEST PUSH1 0x0 PUSH2 0x174E DUP3 PUSH1 0x9 ADD SLOAD DUP4 PUSH1 0x8 ADD SLOAD PUSH2 0x4284 SWAP1 SWAP2 SWAP1 PUSH4 0xFFFFFFFF AND JUMP JUMPDEST PUSH20 0xEEEEEEEEEEEEEEEEEEEEEEEEEEEEEEEEEEEEEEEE SWAP1 JUMP JUMPDEST PUSH1 0x40 DUP1 MLOAD PUSH1 0x1 PUSH1 0x1 PUSH1 0xA0 SHL SUB DUP6 DUP2 AND PUSH1 0x24 DUP4 ADD MSTORE DUP5 AND PUSH1 0x44 DUP3 ADD MSTORE PUSH1 0x64 DUP1 DUP3 ADD DUP5 SWAP1 MSTORE DUP3 MLOAD DUP1 DUP4 SUB SWAP1 SWAP2 ADD DUP2 MSTORE PUSH1 0x84 SWAP1 SWAP2 ADD SWAP1 SWAP2 MSTORE PUSH1 0x20 DUP2 ADD DUP1 MLOAD PUSH1 0x1 PUSH1 0x1 PUSH1 0xE0 SHL SUB AND PUSH4 0x23B872DD PUSH1 0xE0 SHL OR SWAP1 MSTORE PUSH2 0x2B5E SWAP1 DUP6 SWAP1 PUSH2 0x5470 JUMP JUMPDEST PUSH1 0x0 PUSH2 0x1CB6 DUP4 DUP4 PUSH1 0x40 MLOAD DUP1 PUSH1 0x40 ADD PUSH1 0x40 MSTORE DUP1 PUSH1 0x1E DUP2 MSTORE PUSH1 0x20 ADD PUSH32 0x536166654D6174683A207375627472616374696F6E206F766572666C6F770000 DUP2 MSTORE POP PUSH2 0x5628 JUMP JUMPDEST PUSH1 0xC DUP2 ADD SLOAD PUSH1 0x6 DUP3 ADD SLOAD PUSH1 0x12 DUP4 ADD SLOAD PUSH1 0x0 SWAP3 DUP4 SWAP3 PUSH2 0x1CB6 SWAP3 PUSH2 0x278A SWAP2 SWAP1 PUSH5 0xFFFFFFFFFF AND PUSH2 0x53C4 JUMP JUMPDEST PUSH1 0xA DUP2 ADD SLOAD PUSH1 0x12 DUP3 ADD SLOAD PUSH1 0x0 SWAP2 DUP3 SWAP2 PUSH2 0x46B0 SWAP2 SWAP1 PUSH5 0xFFFFFFFFFF AND PUSH2 0x540F JUMP JUMPDEST SWAP1 POP PUSH1 0x0 PUSH2 0x1A80 PUSH2 0x27A2 DUP4 PUSH2 0x278A DUP8 PUSH1 0x8 ADD SLOAD PUSH2 0x4C96 JUMP JUMPDEST PUSH1 0x1 PUSH1 0x1 PUSH1 0xA0 SHL SUB DUP7 AND PUSH1 0x0 SWAP1 DUP2 MSTORE PUSH1 0x38 PUSH1 0x20 MSTORE PUSH1 0x40 SWAP1 KECCAK256 PUSH2 0x46E9 SWAP1 PUSH2 0x41B9 JUMP JUMPDEST PUSH2 0x1A28 DUP7 DUP7 DUP7 DUP7 DUP7 DUP7 PUSH2 0x56BF JUMP JUMPDEST PUSH1 0x1 PUSH1 0x1 PUSH1 0xA0 SHL SUB DUP1 DUP8 AND PUSH1 0x0 DUP2 DUP2 MSTORE PUSH1 0x38 PUSH1 0x20 SWAP1 DUP2 MSTORE PUSH1 0x40 DUP1 DUP4 KECCAK256 SWAP5 DUP11 AND DUP4 MSTORE PUSH1 0x39 DUP3 MSTORE DUP1 DUP4 KECCAK256 SWAP4 DUP4 MSTORE SWAP3 SWAP1 MSTORE KECCAK256 PUSH1 0x1 DUP4 PUSH1 0x2 DUP2 GT ISZERO PUSH2 0x4734 JUMPI INVALID JUMPDEST EQ ISZERO PUSH2 0x4750 JUMPI PUSH1 0x5 DUP3 ADD SLOAD PUSH1 0x2 DUP3 ADD SSTORE PUSH1 0x0 PUSH1 0x3 DUP3 ADD SSTORE PUSH2 0x47C7 JUMP JUMPDEST PUSH1 0x2 DUP4 PUSH1 0x2 DUP2 GT ISZERO PUSH2 0x475E JUMPI INVALID JUMPDEST EQ ISZERO PUSH2 0x477A JUMPI PUSH1 0x0 PUSH1 0x2 DUP3 ADD SSTORE PUSH1 0xB DUP3 ADD SLOAD PUSH1 0x3 DUP3 ADD SSTORE PUSH2 0x47C7 JUMP JUMPDEST PUSH1 0x40 DUP1 MLOAD PUSH3 0x461BCD PUSH1 0xE5 SHL DUP2 MSTORE PUSH1 0x20 PUSH1 0x4 DUP3 ADD MSTORE PUSH1 0x18 PUSH1 0x24 DUP3 ADD MSTORE PUSH32 0x496E76616C696420626F72726F772072617465206D6F64650000000000000000 PUSH1 0x44 DUP3 ADD MSTORE SWAP1 MLOAD SWAP1 DUP2 SWAP1 SUB PUSH1 0x64 ADD SWAP1 REVERT JUMPDEST PUSH2 0x47E2 DUP6 PUSH2 0x2A16 DUP9 DUP5 PUSH1 0x1 ADD SLOAD PUSH2 0x4284 SWAP1 SWAP2 SWAP1 PUSH4 0xFFFFFFFF AND JUMP JUMPDEST PUSH1 0x1 DUP3 ADD SSTORE PUSH1 0x1 PUSH1 0x1 PUSH1 0xA0 SHL SUB DUP1 DUP10 AND PUSH1 0x0 SWAP1 DUP2 MSTORE PUSH1 0x38 PUSH1 0x20 MSTORE PUSH1 0x40 SWAP1 KECCAK256 SLOAD AND DUP1 PUSH4 0x67E6AEED DUP10 PUSH2 0x4819 DUP11 DUP11 PUSH4 0xFFFFFFFF PUSH2 0x4284 AND JUMP JUMPDEST PUSH1 0x0 PUSH1 0x40 MLOAD DUP5 PUSH4 0xFFFFFFFF AND PUSH1 0xE0 SHL DUP2 MSTORE PUSH1 0x4 ADD DUP1 DUP5 PUSH1 0x1 PUSH1 0x1 PUSH1 0xA0 SHL SUB AND PUSH1 0x1 PUSH1 0x1 PUSH1 0xA0 SHL SUB AND DUP2 MSTORE PUSH1 0x20 ADD DUP4 DUP2 MSTORE PUSH1 0x20 ADD DUP3 DUP2 MSTORE PUSH1 0x20 ADD SWAP4 POP POP POP POP PUSH1 0x0 PUSH1 0x40 MLOAD DUP1 DUP4 SUB DUP2 PUSH1 0x0 DUP8 DUP1 EXTCODESIZE ISZERO DUP1 ISZERO PUSH2 0x4871 JUMPI PUSH1 0x0 DUP1 REVERT JUMPDEST POP GAS CALL ISZERO DUP1 ISZERO PUSH2 0x4885 JUMPI RETURNDATASIZE PUSH1 0x0 DUP1 RETURNDATACOPY RETURNDATASIZE PUSH1 0x0 REVERT JUMPDEST POP POP POP PUSH1 0x4 DUP4 ADD SLOAD PUSH2 0x489E SWAP2 POP DUP7 PUSH4 0xFFFFFFFF PUSH2 0x4284 AND JUMP JUMPDEST PUSH1 0x4 DUP4 ADD SSTORE POP PUSH1 0x5 ADD DUP1 SLOAD PUSH5 0xFFFFFFFFFF NOT AND TIMESTAMP PUSH5 0xFFFFFFFFFF AND OR SWAP1 SSTORE POP POP POP POP POP POP POP JUMP JUMPDEST PUSH1 0x0 DUP1 PUSH2 0x48D2 DUP5 DUP5 PUSH2 0x1A30 JUMP JUMPDEST SWAP1 POP PUSH1 0x0 DUP2 PUSH1 0x2 DUP2 GT ISZERO PUSH2 0x48E2 JUMPI INVALID JUMPDEST EQ ISZERO PUSH2 0x48F2 JUMPI PUSH1 0x0 SWAP2 POP POP PUSH2 0x174E JUMP JUMPDEST PUSH1 0x1 DUP2 PUSH1 0x2 DUP2 GT ISZERO PUSH2 0x4900 JUMPI INVALID JUMPDEST EQ PUSH2 0x4926 JUMPI PUSH1 0x1 PUSH1 0x1 PUSH1 0xA0 SHL SUB DUP5 AND PUSH1 0x0 SWAP1 DUP2 MSTORE PUSH1 0x38 PUSH1 0x20 MSTORE PUSH1 0x40 SWAP1 KECCAK256 PUSH1 0x4 ADD SLOAD PUSH2 0x1A80 JUMP JUMPDEST POP POP PUSH1 0x1 PUSH1 0x1 PUSH1 0xA0 SHL SUB SWAP1 DUP2 AND PUSH1 0x0 SWAP1 DUP2 MSTORE PUSH1 0x39 PUSH1 0x20 SWAP1 DUP2 MSTORE PUSH1 0x40 DUP1 DUP4 KECCAK256 SWAP5 SWAP1 SWAP4 AND DUP3 MSTORE SWAP3 SWAP1 SWAP3 MSTORE SWAP1 KECCAK256 PUSH1 0x2 ADD SLOAD SWAP1 JUMP JUMPDEST PUSH1 0x34 PUSH1 0x0 SWAP1 SLOAD SWAP1 PUSH2 0x100 EXP SWAP1 DIV PUSH1 0x1 PUSH1 0x1 PUSH1 0xA0 SHL SUB AND PUSH1 0x1 PUSH1 0x1 PUSH1 0xA0 SHL SUB AND PUSH4 0x261BF8B PUSH1 0x40 MLOAD DUP2 PUSH4 0xFFFFFFFF AND PUSH1 0xE0 SHL DUP2 MSTORE PUSH1 0x4 ADD PUSH1 0x20 PUSH1 0x40 MLOAD DUP1 DUP4 SUB DUP2 DUP7 DUP1 EXTCODESIZE ISZERO DUP1 ISZERO PUSH2 0x49A5 JUMPI PUSH1 0x0 DUP1 REVERT JUMPDEST POP GAS STATICCALL ISZERO DUP1 ISZERO PUSH2 0x49B9 JUMPI RETURNDATASIZE PUSH1 0x0 DUP1 RETURNDATACOPY RETURNDATASIZE PUSH1 0x0 REVERT JUMPDEST POP POP POP POP PUSH1 0x40 MLOAD RETURNDATASIZE PUSH1 0x20 DUP2 LT ISZERO PUSH2 0x49CF JUMPI PUSH1 0x0 DUP1 REVERT JUMPDEST POP MLOAD PUSH1 0x35 DUP1 SLOAD PUSH1 0x1 PUSH1 0x1 PUSH1 0xA0 SHL SUB NOT AND PUSH1 0x1 PUSH1 0x1 PUSH1 0xA0 SHL SUB SWAP3 DUP4 AND OR SWAP1 SSTORE PUSH1 0x34 SLOAD PUSH1 0x40 DUP1 MLOAD PUSH4 0xA0375C6D PUSH1 0xE0 SHL DUP2 MSTORE SWAP1 MLOAD SWAP2 SWAP1 SWAP3 AND SWAP2 PUSH4 0xA0375C6D SWAP2 PUSH1 0x4 DUP1 DUP4 ADD SWAP3 PUSH1 0x20 SWAP3 SWAP2 SWAP1 DUP3 SWAP1 SUB ADD DUP2 DUP7 DUP1 EXTCODESIZE ISZERO DUP1 ISZERO PUSH2 0x4A2A JUMPI PUSH1 0x0 DUP1 REVERT JUMPDEST POP GAS STATICCALL ISZERO DUP1 ISZERO PUSH2 0x4A3E JUMPI RETURNDATASIZE PUSH1 0x0 DUP1 RETURNDATACOPY RETURNDATASIZE PUSH1 0x0 REVERT JUMPDEST POP POP POP POP PUSH1 0x40 MLOAD RETURNDATASIZE PUSH1 0x20 DUP2 LT ISZERO PUSH2 0x4A54 JUMPI PUSH1 0x0 DUP1 REVERT JUMPDEST POP MLOAD PUSH1 0x36 DUP1 SLOAD PUSH1 0x1 PUSH1 0x1 PUSH1 0xA0 SHL SUB NOT AND PUSH1 0x1 PUSH1 0x1 PUSH1 0xA0 SHL SUB SWAP1 SWAP3 AND SWAP2 SWAP1 SWAP2 OR SWAP1 SSTORE JUMP JUMPDEST PUSH1 0x1 PUSH1 0x1 PUSH1 0xA0 SHL SUB DUP1 DUP6 AND PUSH1 0x0 DUP2 DUP2 MSTORE PUSH1 0x38 PUSH1 0x20 SWAP1 DUP2 MSTORE PUSH1 0x40 DUP1 DUP4 KECCAK256 SWAP5 DUP9 AND DUP4 MSTORE PUSH1 0x39 DUP3 MSTORE DUP1 DUP4 KECCAK256 SWAP4 DUP4 MSTORE SWAP3 SWAP1 MSTORE KECCAK256 PUSH2 0x4AAF DUP3 PUSH2 0x41B9 JUMP JUMPDEST PUSH1 0x0 PUSH2 0x4ABB DUP8 DUP8 PUSH2 0x1A30 JUMP JUMPDEST SWAP1 POP PUSH1 0x1 JUMPDEST DUP2 PUSH1 0x2 DUP2 GT ISZERO PUSH2 0x4ACC JUMPI INVALID JUMPDEST EQ ISZERO PUSH2 0x4B07 JUMPI PUSH1 0x2 DUP3 ADD SLOAD PUSH2 0x4AEA SWAP1 DUP5 SWAP1 DUP7 SWAP1 PUSH4 0xFFFFFFFF PUSH2 0x5826 AND JUMP JUMPDEST PUSH1 0x2 DUP3 ADD SLOAD PUSH2 0x4B02 SWAP1 DUP5 SWAP1 DUP8 SWAP1 PUSH4 0xFFFFFFFF PUSH2 0x5896 AND JUMP JUMPDEST PUSH2 0x3885 JUMP JUMPDEST PUSH2 0x4B17 DUP4 DUP6 PUSH4 0xFFFFFFFF PUSH2 0x59A1 AND JUMP JUMPDEST PUSH2 0x3885 DUP4 DUP7 PUSH4 0xFFFFFFFF PUSH2 0x59C2 AND JUMP JUMPDEST PUSH1 0x1 PUSH1 0x1 PUSH1 0xA0 SHL SUB DUP2 AND PUSH1 0x0 SWAP1 DUP2 MSTORE PUSH1 0x38 PUSH1 0x20 MSTORE PUSH1 0x40 SWAP1 KECCAK256 PUSH2 0x4B48 SWAP1 PUSH2 0x41B9 JUMP JUMPDEST POP JUMP JUMPDEST PUSH1 0x1 PUSH1 0x1 PUSH1 0xA0 SHL SUB DUP1 DUP6 AND PUSH1 0x0 DUP2 DUP2 MSTORE PUSH1 0x39 PUSH1 0x20 SWAP1 DUP2 MSTORE PUSH1 0x40 DUP1 DUP4 KECCAK256 DUP11 DUP7 AND DUP5 MSTORE DUP3 MSTORE DUP1 DUP4 KECCAK256 PUSH1 0x38 SWAP1 SWAP3 MSTORE DUP1 DUP4 KECCAK256 DUP1 SLOAD DUP3 MLOAD PUSH4 0x67E6AEED PUSH1 0xE0 SHL DUP2 MSTORE PUSH1 0x4 DUP2 ADD SWAP7 SWAP1 SWAP7 MSTORE PUSH1 0x24 DUP7 ADD DUP9 SWAP1 MSTORE PUSH1 0x44 DUP7 ADD DUP11 SWAP1 MSTORE SWAP2 MLOAD SWAP3 SWAP6 SWAP1 SWAP5 SWAP2 AND SWAP3 DUP4 SWAP3 PUSH4 0x67E6AEED SWAP3 PUSH1 0x64 DUP1 DUP3 ADD SWAP4 SWAP3 SWAP2 DUP3 SWAP1 SUB ADD DUP2 DUP4 DUP8 DUP1 EXTCODESIZE ISZERO DUP1 ISZERO PUSH2 0x4BCB JUMPI PUSH1 0x0 DUP1 REVERT JUMPDEST POP GAS CALL ISZERO DUP1 ISZERO PUSH2 0x4BDF JUMPI RETURNDATASIZE PUSH1 0x0 DUP1 RETURNDATACOPY RETURNDATASIZE PUSH1 0x0 REVERT JUMPDEST POP POP POP POP PUSH2 0x4BFE DUP7 PUSH2 0x4377 DUP7 DUP7 PUSH1 0x1 ADD SLOAD PUSH2 0x4284 SWAP1 SWAP2 SWAP1 PUSH4 0xFFFFFFFF AND JUMP JUMPDEST PUSH1 0x1 DUP5 ADD SSTORE PUSH1 0x2 PUSH2 0x4C0F DUP10 DUP10 PUSH2 0x1A30 JUMP JUMPDEST PUSH1 0x2 DUP2 GT ISZERO PUSH2 0x4C1A JUMPI INVALID JUMPDEST EQ ISZERO PUSH2 0x4C2B JUMPI PUSH1 0xB DUP3 ADD SLOAD PUSH1 0x3 DUP5 ADD SSTORE JUMPDEST DUP5 ISZERO PUSH2 0x4C4C JUMPI PUSH1 0x4 DUP4 ADD SLOAD PUSH2 0x4C46 SWAP1 DUP7 PUSH4 0xFFFFFFFF PUSH2 0x4625 AND JUMP JUMPDEST PUSH1 0x4 DUP5 ADD SSTORE JUMPDEST POP POP PUSH1 0x5 ADD DUP1 SLOAD PUSH5 0xFFFFFFFFFF NOT AND TIMESTAMP PUSH5 0xFFFFFFFFFF AND OR SWAP1 SSTORE POP POP POP POP POP JUMP JUMPDEST PUSH1 0xD DUP2 ADD SLOAD PUSH1 0x7 DUP3 ADD SLOAD PUSH1 0x12 DUP4 ADD SLOAD PUSH1 0x0 SWAP3 DUP4 SWAP3 PUSH2 0x1CB6 SWAP3 PUSH2 0x278A SWAP2 SWAP1 PUSH5 0xFFFFFFFFFF AND PUSH2 0x53C4 JUMP JUMPDEST PUSH1 0x0 PUSH2 0x174E DUP3 PUSH4 0x3B9ACA00 PUSH4 0xFFFFFFFF PUSH2 0x5A1A AND JUMP JUMPDEST PUSH1 0x0 PUSH2 0x1CB6 PUSH12 0x33B2E3C9FD0803CE8000000 PUSH2 0x4CE4 PUSH2 0x4CD1 DUP7 DUP7 PUSH4 0xFFFFFFFF PUSH2 0x5A1A AND JUMP JUMPDEST PUSH12 0x19D971E4FE8401E74000000 SWAP1 PUSH2 0x4284 JUMP JUMPDEST SWAP1 PUSH4 0xFFFFFFFF PUSH2 0x5A73 AND JUMP JUMPDEST PUSH1 0x0 PUSH1 0x2 DUP3 DIV PUSH2 0x1A80 DUP4 PUSH2 0x4CE4 PUSH2 0x4D13 DUP8 PUSH12 0x33B2E3C9FD0803CE8000000 PUSH2 0x5A1A JUMP JUMPDEST DUP5 SWAP1 PUSH4 0xFFFFFFFF PUSH2 0x4284 AND JUMP JUMPDEST PUSH1 0x0 PUSH4 0x1DCD6500 PUSH2 0x1CB6 PUSH4 0x3B9ACA00 PUSH2 0x4CE4 DUP4 DUP7 PUSH2 0x4284 JUMP JUMPDEST PUSH1 0x40 DUP1 MLOAD PUSH1 0x1 PUSH1 0x1 PUSH1 0xA0 SHL SUB DUP5 AND PUSH1 0x24 DUP3 ADD MSTORE PUSH1 0x44 DUP1 DUP3 ADD DUP5 SWAP1 MSTORE DUP3 MLOAD DUP1 DUP4 SUB SWAP1 SWAP2 ADD DUP2 MSTORE PUSH1 0x64 SWAP1 SWAP2 ADD SWAP1 SWAP2 MSTORE PUSH1 0x20 DUP2 ADD DUP1 MLOAD PUSH1 0x1 PUSH1 0x1 PUSH1 0xE0 SHL SUB AND PUSH4 0xA9059CBB PUSH1 0xE0 SHL OR SWAP1 MSTORE PUSH2 0x1C90 SWAP1 DUP5 SWAP1 PUSH2 0x5470 JUMP JUMPDEST PUSH1 0x0 DUP3 PUSH1 0x1 ADD SLOAD PUSH1 0x0 EQ ISZERO PUSH2 0x4DA2 JUMPI POP PUSH1 0x0 PUSH2 0x174E JUMP JUMPDEST PUSH1 0x0 PUSH2 0x4DB1 DUP5 PUSH1 0x1 ADD SLOAD PUSH2 0x4C96 JUMP JUMPDEST PUSH1 0x2 DUP6 ADD SLOAD SWAP1 SWAP2 POP PUSH1 0x0 SWAP1 DUP2 SWAP1 ISZERO PUSH2 0x4DE5 JUMPI PUSH1 0x2 DUP7 ADD SLOAD PUSH1 0x5 DUP8 ADD SLOAD PUSH2 0x4DDE SWAP2 SWAP1 PUSH5 0xFFFFFFFFFF AND PUSH2 0x540F JUMP JUMPDEST SWAP1 POP PUSH2 0x4E1B JUMP JUMPDEST PUSH2 0x4E18 DUP7 PUSH1 0x3 ADD SLOAD PUSH2 0x2796 DUP8 PUSH1 0xB ADD SLOAD PUSH2 0x278A DUP10 PUSH1 0x4 ADD SLOAD DUP11 PUSH1 0x12 ADD PUSH1 0x0 SWAP1 SLOAD SWAP1 PUSH2 0x100 EXP SWAP1 DIV PUSH5 0xFFFFFFFFFF AND PUSH2 0x540F JUMP JUMPDEST SWAP1 POP JUMPDEST PUSH2 0x4E2E PUSH2 0x27A2 DUP5 DUP4 PUSH4 0xFFFFFFFF PUSH2 0x4CAC AND JUMP JUMPDEST SWAP2 POP DUP6 PUSH1 0x1 ADD SLOAD DUP3 EQ ISZERO PUSH2 0x4E6D JUMPI PUSH1 0x5 DUP7 ADD SLOAD PUSH5 0xFFFFFFFFFF AND TIMESTAMP EQ PUSH2 0x4E6D JUMPI PUSH1 0x1 DUP7 DUP2 ADD SLOAD PUSH2 0x4E63 SWAP2 PUSH4 0xFFFFFFFF PUSH2 0x4284 AND JUMP JUMPDEST SWAP4 POP POP POP POP PUSH2 0x174E JUMP JUMPDEST POP SWAP5 SWAP4 POP POP POP POP JUMP JUMPDEST PUSH1 0x1 PUSH1 0x1 PUSH1 0xA0 SHL SUB DUP1 DUP5 AND PUSH1 0x0 DUP2 DUP2 MSTORE PUSH1 0x38 PUSH1 0x20 SWAP1 DUP2 MSTORE PUSH1 0x40 DUP1 DUP4 KECCAK256 SWAP5 DUP8 AND DUP4 MSTORE PUSH1 0x39 DUP3 MSTORE DUP1 DUP4 KECCAK256 SWAP4 DUP4 MSTORE SWAP3 SWAP1 MSTORE KECCAK256 PUSH2 0x4EAE DUP3 PUSH2 0x41B9 JUMP JUMPDEST PUSH1 0x2 DUP2 ADD SLOAD PUSH2 0x15F0 SWAP1 DUP4 SWAP1 DUP6 SWAP1 PUSH4 0xFFFFFFFF PUSH2 0x5826 AND JUMP JUMPDEST PUSH1 0x1 PUSH1 0x1 PUSH1 0xA0 SHL SUB DUP1 DUP4 AND PUSH1 0x0 DUP2 DUP2 MSTORE PUSH1 0x39 PUSH1 0x20 SWAP1 DUP2 MSTORE PUSH1 0x40 DUP1 DUP4 KECCAK256 DUP9 DUP7 AND DUP5 MSTORE DUP3 MSTORE DUP1 DUP4 KECCAK256 PUSH1 0x38 SWAP1 SWAP3 MSTORE DUP1 DUP4 KECCAK256 DUP1 SLOAD DUP3 MLOAD PUSH4 0x67E6AEED PUSH1 0xE0 SHL DUP2 MSTORE PUSH1 0x4 DUP2 ADD SWAP7 SWAP1 SWAP7 MSTORE PUSH1 0x24 DUP7 ADD DUP9 SWAP1 MSTORE PUSH1 0x44 DUP7 ADD DUP6 SWAP1 MSTORE SWAP2 MLOAD SWAP3 SWAP6 SWAP1 SWAP5 SWAP2 AND SWAP3 DUP4 SWAP3 PUSH4 0x67E6AEED SWAP3 PUSH1 0x64 DUP1 DUP3 ADD SWAP4 SWAP3 SWAP2 DUP3 SWAP1 SUB ADD DUP2 DUP4 DUP8 DUP1 EXTCODESIZE ISZERO DUP1 ISZERO PUSH2 0x4F46 JUMPI PUSH1 0x0 DUP1 REVERT JUMPDEST POP GAS CALL ISZERO DUP1 ISZERO PUSH2 0x4F5A JUMPI RETURNDATASIZE PUSH1 0x0 DUP1 RETURNDATACOPY RETURNDATASIZE PUSH1 0x0 REVERT JUMPDEST POP POP POP PUSH1 0x1 DUP5 ADD SLOAD PUSH2 0x4F73 SWAP2 POP DUP6 PUSH4 0xFFFFFFFF PUSH2 0x4284 AND JUMP JUMPDEST PUSH1 0x1 DUP5 ADD SSTORE POP PUSH1 0x5 SWAP1 DUP2 ADD SLOAD PUSH1 0x2 DUP4 ADD SSTORE ADD DUP1 SLOAD PUSH5 0xFFFFFFFFFF NOT AND TIMESTAMP PUSH5 0xFFFFFFFFFF AND OR SWAP1 SSTORE POP POP POP JUMP JUMPDEST PUSH1 0x4 SWAP1 JUMP JUMPDEST ADDRESS EXTCODESIZE ISZERO SWAP1 JUMP JUMPDEST PUSH1 0xB DUP2 ADD SLOAD PUSH1 0x4 DUP3 ADD SLOAD PUSH1 0x12 DUP4 ADD SLOAD PUSH1 0x0 SWAP3 DUP4 SWAP3 PUSH2 0x4FD3 SWAP3 PUSH2 0x278A SWAP2 SWAP1 PUSH5 0xFFFFFFFFFF AND PUSH2 0x540F JUMP JUMPDEST SWAP1 POP PUSH1 0x0 PUSH2 0x1A80 PUSH2 0x27A2 DUP4 PUSH2 0x278A DUP8 PUSH1 0x9 ADD SLOAD PUSH2 0x4C96 JUMP JUMPDEST PUSH1 0x1 PUSH1 0x1 PUSH1 0xA0 SHL SUB DUP1 DUP6 AND PUSH1 0x0 SWAP1 DUP2 MSTORE PUSH1 0x38 PUSH1 0x20 SWAP1 DUP2 MSTORE PUSH1 0x40 DUP1 DUP4 KECCAK256 PUSH1 0x39 DUP4 MSTORE DUP2 DUP5 KECCAK256 SWAP5 DUP9 AND DUP5 MSTORE SWAP4 SWAP1 SWAP2 MSTORE DUP2 KECCAK256 SWAP1 PUSH2 0x5024 DUP8 DUP8 PUSH2 0x1A30 JUMP JUMPDEST PUSH1 0x1 PUSH1 0x1 PUSH1 0xA0 SHL SUB DUP9 AND PUSH1 0x0 SWAP1 DUP2 MSTORE PUSH1 0x38 PUSH1 0x20 MSTORE PUSH1 0x40 SWAP1 KECCAK256 SWAP1 SWAP2 POP PUSH2 0x5048 SWAP1 PUSH2 0x41B9 JUMP JUMPDEST PUSH1 0x1 PUSH2 0x4AC0 JUMP JUMPDEST PUSH1 0x1 PUSH1 0x1 PUSH1 0xA0 SHL SUB DUP1 DUP8 AND PUSH1 0x0 DUP2 DUP2 MSTORE PUSH1 0x38 PUSH1 0x20 DUP2 DUP2 MSTORE PUSH1 0x40 DUP1 DUP5 KECCAK256 DUP12 DUP8 AND DUP1 DUP7 MSTORE PUSH1 0x39 DUP5 MSTORE DUP3 DUP7 KECCAK256 SWAP7 DUP7 MSTORE SWAP6 DUP4 MSTORE DUP2 DUP6 KECCAK256 SWAP4 SWAP1 SWAP3 MSTORE DUP2 SLOAD DUP2 MLOAD PUSH4 0x67E6AEED PUSH1 0xE0 SHL DUP2 MSTORE PUSH1 0x4 DUP2 ADD SWAP7 SWAP1 SWAP7 MSTORE PUSH1 0x24 DUP7 ADD DUP10 SWAP1 MSTORE PUSH1 0x44 DUP7 ADD DUP12 SWAP1 MSTORE SWAP1 MLOAD SWAP2 SWAP6 SWAP3 SWAP5 SWAP3 AND SWAP3 DUP4 SWAP3 PUSH4 0x67E6AEED SWAP3 PUSH1 0x64 DUP1 DUP4 ADD SWAP4 SWAP3 DUP3 SWAP1 SUB ADD DUP2 DUP4 DUP8 DUP1 EXTCODESIZE ISZERO DUP1 ISZERO PUSH2 0x50D6 JUMPI PUSH1 0x0 DUP1 REVERT JUMPDEST POP GAS CALL ISZERO DUP1 ISZERO PUSH2 0x50EA JUMPI RETURNDATASIZE PUSH1 0x0 DUP1 RETURNDATACOPY RETURNDATASIZE PUSH1 0x0 REVERT JUMPDEST POP POP POP POP PUSH2 0x5109 DUP8 PUSH2 0x4377 DUP8 DUP6 PUSH1 0x1 ADD SLOAD PUSH2 0x4284 SWAP1 SWAP2 SWAP1 PUSH4 0xFFFFFFFF AND JUMP JUMPDEST PUSH1 0x1 DUP4 ADD SSTORE PUSH1 0xB DUP4 ADD SLOAD PUSH1 0x3 DUP4 ADD SSTORE DUP4 ISZERO PUSH2 0x512D JUMPI PUSH1 0x0 PUSH1 0x2 DUP4 ADD DUP2 SWAP1 SSTORE PUSH1 0x3 DUP4 ADD SSTORE JUMPDEST PUSH1 0x4 DUP3 ADD SLOAD PUSH2 0x489E SWAP1 DUP8 PUSH4 0xFFFFFFFF PUSH2 0x4625 AND JUMP JUMPDEST PUSH1 0x1 PUSH1 0x1 PUSH1 0xA0 SHL SUB DUP1 DUP7 AND PUSH1 0x0 DUP2 DUP2 MSTORE PUSH1 0x38 PUSH1 0x20 SWAP1 DUP2 MSTORE PUSH1 0x40 DUP1 DUP4 KECCAK256 SWAP5 DUP10 AND DUP4 MSTORE PUSH1 0x39 DUP3 MSTORE DUP1 DUP4 KECCAK256 SWAP4 DUP4 MSTORE SWAP3 SWAP1 MSTORE KECCAK256 PUSH2 0x517A DUP3 PUSH2 0x41B9 JUMP JUMPDEST PUSH1 0x1 DUP4 PUSH1 0x2 DUP2 GT ISZERO PUSH2 0x5188 JUMPI INVALID JUMPDEST EQ ISZERO PUSH2 0x51BA JUMPI PUSH1 0x2 DUP2 ADD SLOAD PUSH2 0x51A4 DUP4 DUP8 DUP4 PUSH4 0xFFFFFFFF PUSH2 0x5896 AND JUMP JUMPDEST PUSH2 0x51B4 DUP4 DUP7 PUSH4 0xFFFFFFFF PUSH2 0x59A1 AND JUMP JUMPDEST POP PUSH2 0x3885 JUMP JUMPDEST PUSH1 0x2 DUP4 PUSH1 0x2 DUP2 GT ISZERO PUSH2 0x51C8 JUMPI INVALID JUMPDEST EQ ISZERO PUSH2 0x51F4 JUMPI PUSH1 0x5 DUP3 ADD SLOAD PUSH2 0x51E3 DUP4 DUP8 PUSH4 0xFFFFFFFF PUSH2 0x59C2 AND JUMP JUMPDEST PUSH2 0x51B4 DUP4 DUP7 DUP4 PUSH4 0xFFFFFFFF PUSH2 0x5826 AND JUMP JUMPDEST PUSH1 0x40 DUP1 MLOAD PUSH3 0x461BCD PUSH1 0xE5 SHL DUP2 MSTORE PUSH1 0x20 PUSH1 0x4 DUP3 ADD MSTORE PUSH1 0x1A PUSH1 0x24 DUP3 ADD MSTORE PUSH32 0x496E76616C69642072617465206D6F6465207265636569766564000000000000 PUSH1 0x44 DUP3 ADD MSTORE SWAP1 MLOAD SWAP1 DUP2 SWAP1 SUB PUSH1 0x64 ADD SWAP1 REVERT JUMPDEST PUSH1 0x1 PUSH1 0x1 PUSH1 0xA0 SHL SUB DUP1 DUP5 AND PUSH1 0x0 SWAP1 DUP2 MSTORE PUSH1 0x39 PUSH1 0x20 SWAP1 DUP2 MSTORE PUSH1 0x40 DUP1 DUP4 KECCAK256 SWAP4 DUP9 AND DUP4 MSTORE SWAP3 DUP2 MSTORE DUP3 DUP3 KECCAK256 PUSH1 0x38 SWAP1 SWAP2 MSTORE SWAP2 DUP2 KECCAK256 SWAP1 SWAP2 SWAP1 DUP3 PUSH1 0x2 DUP6 PUSH1 0x2 DUP2 GT ISZERO PUSH2 0x5282 JUMPI INVALID JUMPDEST EQ ISZERO PUSH2 0x52A1 JUMPI POP PUSH1 0x5 DUP2 ADD SLOAD PUSH1 0x2 DUP4 ADD SSTORE PUSH1 0x0 PUSH1 0x3 DUP4 ADD SSTORE PUSH1 0x1 PUSH2 0x5307 JUMP JUMPDEST PUSH1 0x1 DUP6 PUSH1 0x2 DUP2 GT ISZERO PUSH2 0x52AF JUMPI INVALID JUMPDEST EQ ISZERO PUSH2 0x52D0 JUMPI POP PUSH1 0x0 PUSH1 0x2 DUP4 DUP2 ADD SWAP2 SWAP1 SWAP2 SSTORE PUSH1 0xB DUP3 ADD SLOAD PUSH1 0x3 DUP5 ADD SSTORE PUSH2 0x5307 JUMP JUMPDEST PUSH1 0x40 MLOAD PUSH3 0x461BCD PUSH1 0xE5 SHL DUP2 MSTORE PUSH1 0x4 ADD DUP1 DUP1 PUSH1 0x20 ADD DUP3 DUP2 SUB DUP3 MSTORE PUSH1 0x23 DUP2 MSTORE PUSH1 0x20 ADD DUP1 PUSH2 0x5E83 PUSH1 0x23 SWAP2 CODECOPY PUSH1 0x40 ADD SWAP2 POP POP PUSH1 0x40 MLOAD DUP1 SWAP2 SUB SWAP1 REVERT JUMPDEST PUSH1 0x1 PUSH1 0x1 PUSH1 0xA0 SHL SUB DUP1 DUP10 AND PUSH1 0x0 SWAP1 DUP2 MSTORE PUSH1 0x38 PUSH1 0x20 MSTORE PUSH1 0x40 DUP1 DUP3 KECCAK256 SLOAD DUP2 MLOAD PUSH4 0x67E6AEED PUSH1 0xE0 SHL DUP2 MSTORE DUP12 DUP6 AND PUSH1 0x4 DUP3 ADD MSTORE PUSH1 0x24 DUP2 ADD DUP12 SWAP1 MSTORE PUSH1 0x44 DUP2 ADD DUP5 SWAP1 MSTORE SWAP2 MLOAD SWAP4 AND SWAP3 DUP4 SWAP3 PUSH4 0x67E6AEED SWAP3 PUSH1 0x64 DUP1 DUP3 ADD SWAP4 SWAP2 DUP3 SWAP1 SUB ADD DUP2 DUP4 DUP8 DUP1 EXTCODESIZE ISZERO DUP1 ISZERO PUSH2 0x536D JUMPI PUSH1 0x0 DUP1 REVERT JUMPDEST POP GAS CALL ISZERO DUP1 ISZERO PUSH2 0x5381 JUMPI RETURNDATASIZE PUSH1 0x0 DUP1 RETURNDATACOPY RETURNDATASIZE PUSH1 0x0 REVERT JUMPDEST POP POP POP PUSH1 0x1 DUP6 ADD SLOAD PUSH2 0x539A SWAP2 POP DUP9 PUSH4 0xFFFFFFFF PUSH2 0x4284 AND JUMP JUMPDEST PUSH1 0x1 DUP6 ADD SSTORE POP PUSH1 0x5 SWAP1 SWAP3 ADD DUP1 SLOAD PUSH5 0xFFFFFFFFFF NOT AND TIMESTAMP PUSH5 0xFFFFFFFFFF AND OR SWAP1 SSTORE POP SWAP6 SWAP5 POP POP POP POP POP JUMP JUMPDEST PUSH1 0x0 DUP1 PUSH2 0x53DE TIMESTAMP PUSH5 0xFFFFFFFFFF DUP6 AND PUSH4 0xFFFFFFFF PUSH2 0x4625 AND JUMP JUMPDEST SWAP1 POP PUSH1 0x0 PUSH2 0x53F2 PUSH2 0x42EC PUSH4 0x1E13380 PUSH2 0x4C96 JUMP JUMPDEST SWAP1 POP PUSH2 0x36E3 PUSH2 0x53FF PUSH2 0x5460 JUMP JUMPDEST PUSH2 0x2A16 DUP8 DUP5 PUSH4 0xFFFFFFFF PUSH2 0x4CAC AND JUMP JUMPDEST PUSH1 0x0 DUP1 PUSH2 0x5429 TIMESTAMP PUSH5 0xFFFFFFFFFF DUP6 AND PUSH4 0xFFFFFFFF PUSH2 0x4625 AND JUMP JUMPDEST SWAP1 POP PUSH1 0x0 PUSH2 0x5441 DUP6 PUSH4 0x1E13380 PUSH4 0xFFFFFFFF PUSH2 0x5A73 AND JUMP JUMPDEST SWAP1 POP PUSH1 0x0 PUSH2 0x392F DUP4 PUSH2 0x5454 PUSH2 0x15AB PUSH2 0x5460 JUMP JUMPDEST SWAP1 PUSH4 0xFFFFFFFF PUSH2 0x5AB5 AND JUMP JUMPDEST PUSH12 0x33B2E3C9FD0803CE8000000 SWAP1 JUMP JUMPDEST PUSH2 0x5482 DUP3 PUSH1 0x1 PUSH1 0x1 PUSH1 0xA0 SHL SUB AND PUSH2 0x1501 JUMP JUMPDEST PUSH2 0x54D3 JUMPI PUSH1 0x40 DUP1 MLOAD PUSH3 0x461BCD PUSH1 0xE5 SHL DUP2 MSTORE PUSH1 0x20 PUSH1 0x4 DUP3 ADD MSTORE PUSH1 0x1F PUSH1 0x24 DUP3 ADD MSTORE PUSH32 0x5361666545524332303A2063616C6C20746F206E6F6E2D636F6E747261637400 PUSH1 0x44 DUP3 ADD MSTORE SWAP1 MLOAD SWAP1 DUP2 SWAP1 SUB PUSH1 0x64 ADD SWAP1 REVERT JUMPDEST PUSH1 0x0 PUSH1 0x60 DUP4 PUSH1 0x1 PUSH1 0x1 PUSH1 0xA0 SHL SUB AND DUP4 PUSH1 0x40 MLOAD DUP1 DUP3 DUP1 MLOAD SWAP1 PUSH1 0x20 ADD SWAP1 DUP1 DUP4 DUP4 JUMPDEST PUSH1 0x20 DUP4 LT PUSH2 0x5511 JUMPI DUP1 MLOAD DUP3 MSTORE PUSH1 0x1F NOT SWAP1 SWAP3 ADD SWAP2 PUSH1 0x20 SWAP2 DUP3 ADD SWAP2 ADD PUSH2 0x54F2 JUMP JUMPDEST PUSH1 0x1 DUP4 PUSH1 0x20 SUB PUSH2 0x100 EXP SUB DUP1 NOT DUP3 MLOAD AND DUP2 DUP5 MLOAD AND DUP1 DUP3 OR DUP6 MSTORE POP POP POP POP POP POP SWAP1 POP ADD SWAP2 POP POP PUSH1 0x0 PUSH1 0x40 MLOAD DUP1 DUP4 SUB DUP2 PUSH1 0x0 DUP7 GAS CALL SWAP2 POP POP RETURNDATASIZE DUP1 PUSH1 0x0 DUP2 EQ PUSH2 0x5573 JUMPI PUSH1 0x40 MLOAD SWAP2 POP PUSH1 0x1F NOT PUSH1 0x3F RETURNDATASIZE ADD AND DUP3 ADD PUSH1 0x40 MSTORE RETURNDATASIZE DUP3 MSTORE RETURNDATASIZE PUSH1 0x0 PUSH1 0x20 DUP5 ADD RETURNDATACOPY PUSH2 0x5578 JUMP JUMPDEST PUSH1 0x60 SWAP2 POP JUMPDEST POP SWAP2 POP SWAP2 POP DUP2 PUSH2 0x55CF JUMPI PUSH1 0x40 DUP1 MLOAD PUSH3 0x461BCD PUSH1 0xE5 SHL DUP2 MSTORE PUSH1 0x20 PUSH1 0x4 DUP3 ADD DUP2 SWAP1 MSTORE PUSH1 0x24 DUP3 ADD MSTORE PUSH32 0x5361666545524332303A206C6F772D6C6576656C2063616C6C206661696C6564 PUSH1 0x44 DUP3 ADD MSTORE SWAP1 MLOAD SWAP1 DUP2 SWAP1 SUB PUSH1 0x64 ADD SWAP1 REVERT JUMPDEST DUP1 MLOAD ISZERO PUSH2 0x2B5E JUMPI DUP1 DUP1 PUSH1 0x20 ADD SWAP1 MLOAD PUSH1 0x20 DUP2 LT ISZERO PUSH2 0x55EB JUMPI PUSH1 0x0 DUP1 REVERT JUMPDEST POP MLOAD PUSH2 0x2B5E JUMPI PUSH1 0x40 MLOAD PUSH3 0x461BCD PUSH1 0xE5 SHL DUP2 MSTORE PUSH1 0x4 ADD DUP1 DUP1 PUSH1 0x20 ADD DUP3 DUP2 SUB DUP3 MSTORE PUSH1 0x2A DUP2 MSTORE PUSH1 0x20 ADD DUP1 PUSH2 0x5EA6 PUSH1 0x2A SWAP2 CODECOPY PUSH1 0x40 ADD SWAP2 POP POP PUSH1 0x40 MLOAD DUP1 SWAP2 SUB SWAP1 REVERT JUMPDEST PUSH1 0x0 DUP2 DUP5 DUP5 GT ISZERO PUSH2 0x56B7 JUMPI PUSH1 0x40 MLOAD PUSH3 0x461BCD PUSH1 0xE5 SHL DUP2 MSTORE PUSH1 0x4 ADD DUP1 DUP1 PUSH1 0x20 ADD DUP3 DUP2 SUB DUP3 MSTORE DUP4 DUP2 DUP2 MLOAD DUP2 MSTORE PUSH1 0x20 ADD SWAP2 POP DUP1 MLOAD SWAP1 PUSH1 0x20 ADD SWAP1 DUP1 DUP4 DUP4 PUSH1 0x0 JUMPDEST DUP4 DUP2 LT ISZERO PUSH2 0x567C JUMPI DUP2 DUP2 ADD MLOAD DUP4 DUP3 ADD MSTORE PUSH1 0x20 ADD PUSH2 0x5664 JUMP JUMPDEST POP POP POP POP SWAP1 POP SWAP1 DUP2 ADD SWAP1 PUSH1 0x1F AND DUP1 ISZERO PUSH2 0x56A9 JUMPI DUP1 DUP3 SUB DUP1 MLOAD PUSH1 0x1 DUP4 PUSH1 0x20 SUB PUSH2 0x100 EXP SUB NOT AND DUP2 MSTORE PUSH1 0x20 ADD SWAP2 POP JUMPDEST POP SWAP3 POP POP POP PUSH1 0x40 MLOAD DUP1 SWAP2 SUB SWAP1 REVERT JUMPDEST POP POP POP SWAP1 SUB SWAP1 JUMP JUMPDEST PUSH1 0x0 PUSH2 0x56CB DUP8 DUP8 PUSH2 0x1A30 JUMP JUMPDEST PUSH1 0x1 PUSH1 0x1 PUSH1 0xA0 SHL SUB DUP9 AND PUSH1 0x0 SWAP1 DUP2 MSTORE PUSH1 0x38 PUSH1 0x20 MSTORE PUSH1 0x40 SWAP1 KECCAK256 SWAP1 SWAP2 POP PUSH1 0x1 DUP3 PUSH1 0x2 DUP2 GT ISZERO PUSH2 0x56F4 JUMPI INVALID JUMPDEST EQ ISZERO PUSH2 0x573D JUMPI PUSH1 0x1 PUSH1 0x1 PUSH1 0xA0 SHL SUB DUP1 DUP9 AND PUSH1 0x0 SWAP1 DUP2 MSTORE PUSH1 0x39 PUSH1 0x20 SWAP1 DUP2 MSTORE PUSH1 0x40 DUP1 DUP4 KECCAK256 SWAP4 DUP13 AND DUP4 MSTORE SWAP3 SWAP1 MSTORE KECCAK256 PUSH1 0x2 DUP2 ADD SLOAD PUSH2 0x5737 SWAP1 DUP4 SWAP1 DUP10 SWAP1 PUSH4 0xFFFFFFFF PUSH2 0x5896 AND JUMP JUMPDEST POP PUSH2 0x5761 JUMP JUMPDEST PUSH1 0x2 DUP3 PUSH1 0x2 DUP2 GT ISZERO PUSH2 0x574B JUMPI INVALID JUMPDEST EQ ISZERO PUSH2 0x5761 JUMPI PUSH2 0x5761 DUP2 DUP8 PUSH4 0xFFFFFFFF PUSH2 0x59C2 AND JUMP JUMPDEST PUSH1 0x0 PUSH2 0x5777 DUP6 PUSH2 0x2A16 DUP10 DUP10 PUSH4 0xFFFFFFFF PUSH2 0x4284 AND JUMP JUMPDEST SWAP1 POP PUSH1 0x1 DUP5 PUSH1 0x2 DUP2 GT ISZERO PUSH2 0x5787 JUMPI INVALID JUMPDEST EQ ISZERO PUSH2 0x57AA JUMPI PUSH1 0x5 DUP3 ADD SLOAD PUSH2 0x57A5 SWAP1 DUP4 SWAP1 DUP4 SWAP1 PUSH4 0xFFFFFFFF PUSH2 0x5826 AND JUMP JUMPDEST PUSH2 0x581B JUMP JUMPDEST PUSH1 0x2 DUP5 PUSH1 0x2 DUP2 GT ISZERO PUSH2 0x57B8 JUMPI INVALID JUMPDEST EQ ISZERO PUSH2 0x57CE JUMPI PUSH2 0x57A5 DUP3 DUP3 PUSH4 0xFFFFFFFF PUSH2 0x59A1 AND JUMP JUMPDEST PUSH1 0x40 DUP1 MLOAD PUSH3 0x461BCD PUSH1 0xE5 SHL DUP2 MSTORE PUSH1 0x20 PUSH1 0x4 DUP3 ADD MSTORE PUSH1 0x1C PUSH1 0x24 DUP3 ADD MSTORE PUSH32 0x496E76616C6964206E657720626F72726F772072617465206D6F646500000000 PUSH1 0x44 DUP3 ADD MSTORE SWAP1 MLOAD SWAP1 DUP2 SWAP1 SUB PUSH1 0x64 ADD SWAP1 REVERT JUMPDEST POP POP POP POP POP POP POP POP POP JUMP JUMPDEST PUSH1 0x8 DUP4 ADD SLOAD PUSH2 0x583B DUP2 DUP5 PUSH4 0xFFFFFFFF PUSH2 0x4284 AND JUMP JUMPDEST PUSH1 0x8 DUP6 ADD SSTORE PUSH1 0x0 PUSH2 0x584F DUP4 PUSH2 0x278A DUP7 PUSH2 0x4C96 JUMP JUMPDEST SWAP1 POP PUSH1 0x0 PUSH2 0x5864 DUP7 PUSH1 0xA ADD SLOAD PUSH2 0x278A DUP6 PUSH2 0x4C96 JUMP JUMPDEST SWAP1 POP PUSH2 0x5886 PUSH2 0x5876 DUP8 PUSH1 0x8 ADD SLOAD PUSH2 0x4C96 JUMP JUMPDEST PUSH2 0x2796 DUP5 DUP5 PUSH4 0xFFFFFFFF PUSH2 0x4284 AND JUMP JUMPDEST DUP7 PUSH1 0xA ADD DUP2 SWAP1 SSTORE POP POP POP POP POP POP POP JUMP JUMPDEST DUP2 DUP4 PUSH1 0x8 ADD SLOAD LT ISZERO PUSH2 0x58EF JUMPI PUSH1 0x40 DUP1 MLOAD PUSH3 0x461BCD PUSH1 0xE5 SHL DUP2 MSTORE PUSH1 0x20 PUSH1 0x4 DUP3 ADD MSTORE PUSH1 0x1A PUSH1 0x24 DUP3 ADD MSTORE PUSH32 0x496E76616C696420616D6F756E7420746F206465637265617365000000000000 PUSH1 0x44 DUP3 ADD MSTORE SWAP1 MLOAD SWAP1 DUP2 SWAP1 SUB PUSH1 0x64 ADD SWAP1 REVERT JUMPDEST PUSH1 0x8 DUP4 ADD SLOAD PUSH2 0x5904 DUP2 DUP5 PUSH4 0xFFFFFFFF PUSH2 0x4625 AND JUMP JUMPDEST PUSH1 0x8 DUP6 ADD DUP2 SWAP1 SSTORE PUSH2 0x591C JUMPI POP PUSH1 0x0 PUSH1 0xA DUP5 ADD SSTORE PUSH2 0x1C90 JUMP JUMPDEST PUSH1 0x0 PUSH2 0x592B DUP4 PUSH2 0x278A DUP7 PUSH2 0x4C96 JUMP JUMPDEST SWAP1 POP PUSH1 0x0 PUSH2 0x5940 DUP7 PUSH1 0xA ADD SLOAD PUSH2 0x278A DUP6 PUSH2 0x4C96 JUMP JUMPDEST SWAP1 POP DUP2 DUP2 LT ISZERO PUSH2 0x5981 JUMPI PUSH1 0x40 MLOAD PUSH3 0x461BCD PUSH1 0xE5 SHL DUP2 MSTORE PUSH1 0x4 ADD DUP1 DUP1 PUSH1 0x20 ADD DUP3 DUP2 SUB DUP3 MSTORE PUSH1 0x23 DUP2 MSTORE PUSH1 0x20 ADD DUP1 PUSH2 0x5C66 PUSH1 0x23 SWAP2 CODECOPY PUSH1 0x40 ADD SWAP2 POP POP PUSH1 0x40 MLOAD DUP1 SWAP2 SUB SWAP1 REVERT JUMPDEST PUSH2 0x5886 PUSH2 0x5991 DUP8 PUSH1 0x8 ADD SLOAD PUSH2 0x4C96 JUMP JUMPDEST PUSH2 0x2796 DUP4 DUP6 PUSH4 0xFFFFFFFF PUSH2 0x4625 AND JUMP JUMPDEST PUSH1 0x9 DUP3 ADD SLOAD PUSH2 0x59B6 SWAP1 DUP3 PUSH4 0xFFFFFFFF PUSH2 0x4284 AND JUMP JUMPDEST DUP3 PUSH1 0x9 ADD DUP2 SWAP1 SSTORE POP POP POP JUMP JUMPDEST DUP1 DUP3 PUSH1 0x9 ADD SLOAD LT ISZERO PUSH2 0x5A05 JUMPI PUSH1 0x40 MLOAD PUSH3 0x461BCD PUSH1 0xE5 SHL DUP2 MSTORE PUSH1 0x4 ADD DUP1 DUP1 PUSH1 0x20 ADD DUP3 DUP2 SUB DUP3 MSTORE PUSH1 0x50 DUP2 MSTORE PUSH1 0x20 ADD DUP1 PUSH2 0x5BAB PUSH1 0x50 SWAP2 CODECOPY PUSH1 0x60 ADD SWAP2 POP POP PUSH1 0x40 MLOAD DUP1 SWAP2 SUB SWAP1 REVERT JUMPDEST PUSH1 0x9 DUP3 ADD SLOAD PUSH2 0x59B6 SWAP1 DUP3 PUSH4 0xFFFFFFFF PUSH2 0x4625 AND JUMP JUMPDEST PUSH1 0x0 DUP3 PUSH2 0x5A29 JUMPI POP PUSH1 0x0 PUSH2 0x174E JUMP JUMPDEST DUP3 DUP3 MUL DUP3 DUP5 DUP3 DUP2 PUSH2 0x5A36 JUMPI INVALID JUMPDEST DIV EQ PUSH2 0x1CB6 JUMPI PUSH1 0x40 MLOAD PUSH3 0x461BCD PUSH1 0xE5 SHL DUP2 MSTORE PUSH1 0x4 ADD DUP1 DUP1 PUSH1 0x20 ADD DUP3 DUP2 SUB DUP3 MSTORE PUSH1 0x21 DUP2 MSTORE PUSH1 0x20 ADD DUP1 PUSH2 0x5DAF PUSH1 0x21 SWAP2 CODECOPY PUSH1 0x40 ADD SWAP2 POP POP PUSH1 0x40 MLOAD DUP1 SWAP2 SUB SWAP1 REVERT JUMPDEST PUSH1 0x0 PUSH2 0x1CB6 DUP4 DUP4 PUSH1 0x40 MLOAD DUP1 PUSH1 0x40 ADD PUSH1 0x40 MSTORE DUP1 PUSH1 0x1A DUP2 MSTORE PUSH1 0x20 ADD PUSH32 0x536166654D6174683A206469766973696F6E206279207A65726F000000000000 DUP2 MSTORE POP PUSH2 0x5B0F JUMP JUMPDEST PUSH1 0x0 PUSH1 0x2 DUP3 MOD PUSH2 0x5AD1 JUMPI PUSH12 0x33B2E3C9FD0803CE8000000 PUSH2 0x5AD3 JUMP JUMPDEST DUP3 JUMPDEST SWAP1 POP PUSH1 0x2 DUP3 DIV SWAP2 POP JUMPDEST DUP2 ISZERO PUSH2 0x174E JUMPI PUSH2 0x5AEC DUP4 DUP5 PUSH2 0x4CAC JUMP JUMPDEST SWAP3 POP PUSH1 0x2 DUP3 MOD ISZERO PUSH2 0x5B04 JUMPI PUSH2 0x5B01 DUP2 DUP5 PUSH2 0x4CAC JUMP JUMPDEST SWAP1 POP JUMPDEST PUSH1 0x2 DUP3 DIV SWAP2 POP PUSH2 0x5ADC JUMP JUMPDEST PUSH1 0x0 DUP2 DUP4 PUSH2 0x5B5E JUMPI PUSH1 0x40 MLOAD PUSH3 0x461BCD PUSH1 0xE5 SHL DUP2 MSTORE PUSH1 0x20 PUSH1 0x4 DUP3 ADD DUP2 DUP2 MSTORE DUP4 MLOAD PUSH1 0x24 DUP5 ADD MSTORE DUP4 MLOAD SWAP1 SWAP3 DUP4 SWAP3 PUSH1 0x44 SWAP1 SWAP2 ADD SWAP2 SWAP1 DUP6 ADD SWAP1 DUP1 DUP4 DUP4 PUSH1 0x0 DUP4 ISZERO PUSH2 0x567C JUMPI DUP2 DUP2 ADD MLOAD DUP4 DUP3 ADD MSTORE PUSH1 0x20 ADD PUSH2 0x5664 JUMP JUMPDEST POP PUSH1 0x0 DUP4 DUP6 DUP2 PUSH2 0x5B6A JUMPI INVALID JUMPDEST DIV SWAP6 SWAP5 POP POP POP POP POP JUMP INVALID CHAINID PUSH6 0x65206C697175 PUSH10 0x646174696F6E20646F65 PUSH20 0x206E6F74207265717569726520616E7920747261 PUSH15 0x73666572206F662076616C75655468 PUSH6 0x20616D6F756E PUSH21 0x2074686174206973206265696E6720737562747261 PUSH4 0x74656420 PUSH7 0x726F6D20746865 KECCAK256 PUSH23 0x61726961626C6520746F74616C20626F72726F77732069 PUSH20 0x20696E636F727265637454686520616D6F756E74 KECCAK256 PUSH2 0x6E64 KECCAK256 PUSH21 0x68652076616C75652073656E7420746F206465706F PUSH20 0x697420646F206E6F74206D617463684F6E6C7920 PUSH4 0x6F6E7472 PUSH2 0x6374 PUSH20 0x2063616E2073656E6420657468657220746F2074 PUSH9 0x65204C656E64696E67 KECCAK256 PUSH17 0x6F6F6C20636F726554686520616D6F756E PUSH21 0x7320746F20737562747261637420646F6E2774206D PUSH2 0x7463 PUSH9 0x53494748205374616B PUSH10 0x6E6720636F6E74726163 PUSH21 0x2061646472657373206E6F74207365742070726F70 PUSH6 0x726C79557365 PUSH19 0x2069732073656E64696E672045544820616C6F PUSH15 0x672077697468207468652045524332 ADDRESS KECCAK256 PUSH21 0x72616E736665722E496E737472756D656E74206861 PUSH20 0x206E6F74206265656E20696E697469616C697A65 PUSH5 0x2079657455 PUSH20 0x65722069732073656E64696E672045544820616C PUSH16 0x6E672077697468207468652045524332 ADDRESS KECCAK256 PUSH21 0x72616E736665722E20436865636B20746865207661 PUSH13 0x75652061747472696275746520 PUSH16 0x6620746865207472616E73616374696F PUSH15 0x536967682053747265616D20416464 PUSH19 0x657373206661696C656420746F206265207072 PUSH16 0x7065726C7920696E697469616C697A65 PUSH5 0x20696E2049 SLOAD 0x4F 0x4B GASLIMIT 0x4E KECCAK256 MSTORE8 PUSH2 0x6665 0x4D PUSH2 0x7468 GASPRICE KECCAK256 PUSH14 0x756C7469706C69636174696F6E20 PUSH16 0x766572666C6F77436F6E747261637420 PUSH10 0x6E7374616E6365206861 PUSH20 0x20616C7265616479206265656E20696E69746961 PUSH13 0x697A65645468652063616C6C65 PUSH19 0x206D7573742062652061206C656E64696E6720 PUSH17 0x6F6F6C20636F6E7472616374496E737472 PUSH22 0x6D656E74206661696C656420746F2062652070726F70 PUSH6 0x726C79206164 PUSH5 0x656420746F KECCAK256 PUSH21 0x6865206C697374206F6620496E737472756D656E74 PUSH20 0x20737570706F7274656420627920534947482046 PUSH10 0x6E616E6365496E76616C PUSH10 0x6420696E746572657374 KECCAK256 PUSH19 0x617465206D6F64652072656365697665645361 PUSH7 0x6545524332303A KECCAK256 GASLIMIT MSTORE NUMBER ORIGIN ADDRESS KECCAK256 PUSH16 0x7065726174696F6E20646964206E6F74 KECCAK256 PUSH20 0x7563636565645468652063616C6C6572206D7573 PUSH21 0x20626520746865206C656E64696E6720706F6F6C20 PUSH4 0x6F6E6669 PUSH8 0x757261746F722061 PUSH4 0x636F756E PUSH21 0xA265627A7A72315820A04FAA2EDECAB16B0AE6F16E 0xBD 0xEB LT MSTORE 0x1F XOR 0x4F NUMBER 0xDA 0x2C 0xCA PUSH25 0xE04199FC82B2F62464736F6C63430005110032000000000000 "
		},
		"gasEstimates": {
			"creation": {
				"codeDepositCost": "4876000",
				"executionCost": "10763",
				"totalCost": "4886763"
			},
			"external": {
				"": "infinite",
				"CORE_REVISION()": "312",
				"InstrumentActivationSwitch(address,bool)": "infinite",
				"InstrumentFreezeSwitch(address,bool)": "infinite",
				"addressesProvider()": "1126",
				"borrowingOnInstrumentSwitch(address,bool)": "infinite",
				"disableInstrumentAsCollateral(address)": "infinite",
				"enableInstrumentAsCollateral(address,uint256,uint256,uint256)": "infinite",
				"getInstrumentAvailableLiquidity(address)": "infinite",
				"getInstrumentCompoundedBorrowsStable(address)": "infinite",
				"getInstrumentCompoundedBorrowsVariable(address)": "infinite",
				"getInstrumentConfiguration(address)": "3749",
				"getInstrumentCurrentAverageStableBorrowRate(address)": "1236",
				"getInstrumentCurrentLiquidityRate(address)": "1304",
				"getInstrumentCurrentStableBorrowRate(address)": "infinite",
				"getInstrumentCurrentVariableBorrowRate(address)": "infinite",
				"getInstrumentDecimals(address)": "1215",
				"getInstrumentITokenAddress(address)": "1262",
				"getInstrumentInterestRateStrategyAddress(address)": "1314",
				"getInstrumentIsActive(address)": "1295",
				"getInstrumentIsFreezed(address)": "1304",
				"getInstrumentIsStableBorrowRateEnabled(address)": "1260",
				"getInstrumentLastUpdate(address)": "1317",
				"getInstrumentLiquidationBonus(address)": "1215",
				"getInstrumentLiquidationThreshold(address)": "1260",
				"getInstrumentLiquidityCumulativeIndex(address)": "1261",
				"getInstrumentNormalizedIncome(address)": "infinite",
				"getInstrumentSIGHPayCumulativeIndex(address)": "1217",
				"getInstrumentSIGHPayPaidIndex(address)": "1239",
				"getInstrumentSIGHPayRate(address)": "1261",
				"getInstrumentTotalBorrows(address)": "infinite",
				"getInstrumentTotalBorrowsStable(address)": "1260",
				"getInstrumentTotalBorrowsVariable(address)": "1283",
				"getInstrumentTotalLiquidity(address)": "infinite",
				"getInstrumentUtilizationRate(address)": "infinite",
				"getInstrumentVariableBorrowsCumulativeIndex(address)": "1218",
				"getInstruments()": "infinite",
				"getUserBasicInstrumentData(address,address)": "infinite",
				"getUserBorrowBalances(address,address)": "infinite",
				"getUserBorrowFee(address,address)": "1347",
				"getUserCurrentBorrowRateMode(address,address)": "2257",
				"getUserCurrentStableBorrowRate(address,address)": "1391",
				"getUserLastUpdate(address,address)": "1421",
				"getUserUnderlyingAssetBalance(address,address)": "infinite",
				"getUserVariableBorrowCumulativeIndex(address,address)": "1368",
				"initInstrument(address,address,uint256,address,address)": "infinite",
				"initialize(address)": "infinite",
				"instrumentStableBorrowRateSwitch(address,bool)": "infinite",
				"instrumentsList(uint256)": "2102",
				"isInstrumentBorrowingEnabled(address)": "1240",
				"isInstrumentUsageAsCollateralEnabled(address)": "1304",
				"isUserAllowedToBorrowAtStable(address,address,uint256)": "infinite",
				"isUserUseInstrumentAsCollateralEnabled(address,address)": "1418",
				"lendingPoolAddress()": "1127",
				"liquidateFee(address,uint256,address)": "infinite",
				"refreshConfiguration()": "infinite",
				"setInstrumentInterestRateStrategyAddress(address,address)": "infinite",
				"setUserUseInstrumentAsCollateral(address,address,bool)": "infinite",
				"sighMechanism()": "1105",
				"transferSIGHPayToStakingContract(address)": "infinite",
				"transferToFeeCollectionAddress(address,address,uint256,address)": "infinite",
				"transferToReserve(address,address,uint256)": "infinite",
				"transferToUser(address,address,uint256)": "infinite",
				"updateInstrumentCollateralParameters(address,uint256,uint256,uint256)": "infinite",
				"updateStateOnBorrow(address,address,uint256,uint256,uint8)": "infinite",
				"updateStateOnDeposit(address,address,uint256,bool)": "infinite",
				"updateStateOnFlashLoan(address,uint256,uint256,uint256)": "infinite",
				"updateStateOnLiquidation(address,address,address,uint256,uint256,uint256,uint256,uint256,bool)": "infinite",
				"updateStateOnRebalance(address,address,uint256)": "infinite",
				"updateStateOnRedeem(address,address,uint256,bool)": "infinite",
				"updateStateOnRepay(address,address,uint256,uint256,uint256,bool)": "infinite",
				"updateStateOnSwapRate(address,address,uint256,uint256,uint256,uint8)": "infinite"
			},
			"internal": {
				"addInstrumentToListInternal(address)": "infinite",
				"getRevision()": "15",
				"getUserCurrentBorrowRate(address,address)": "infinite",
				"refreshConfigInternal()": "infinite",
				"transferFlashLoanProtocolFeeInternal(address,uint256)": "infinite",
				"updateInstrumentInterestRatesAndTimestampInternal(address,uint256,uint256)": "infinite",
				"updateInstrumentStateOnBorrowInternal(address,address,uint256,uint256,uint256,enum CoreLibrary.InterestRateMode)": "infinite",
				"updateInstrumentStateOnRebalanceInternal(address,address,uint256)": "infinite",
				"updateInstrumentStateOnRepayInternal(address,address,uint256,uint256)": "infinite",
				"updateInstrumentStateOnSwapRateInternal(address,address,uint256,uint256,enum CoreLibrary.InterestRateMode)": "infinite",
				"updateInstrumentTotalBorrowsByRateModeInternal(address,address,uint256,uint256,uint256,enum CoreLibrary.InterestRateMode)": "infinite",
				"updatePrincipalInstrumentStateOnLiquidationInternal(address)": "infinite",
				"updatePrincipalInstrumentStateOnLiquidationInternal(address,address,uint256,uint256)": "infinite",
				"updateUserStateOnBorrowInternal(address,address,uint256,uint256,uint256,enum CoreLibrary.InterestRateMode)": "infinite",
				"updateUserStateOnLiquidationInternal(address,address,uint256,uint256,uint256)": "infinite",
				"updateUserStateOnRebalanceInternal(address,address,uint256)": "infinite",
				"updateUserStateOnRepayInternal(address,address,uint256,uint256,uint256,bool)": "infinite",
				"updateUserStateOnSwapRateInternal(address,address,uint256,enum CoreLibrary.InterestRateMode)": "infinite"
			}
		},
		"methodIdentifiers": {
			"CORE_REVISION()": "0c7de4e9",
			"InstrumentActivationSwitch(address,bool)": "480222eb",
			"InstrumentFreezeSwitch(address,bool)": "fa2968c3",
			"addressesProvider()": "c72c4d10",
			"borrowingOnInstrumentSwitch(address,bool)": "b94cc1a9",
			"disableInstrumentAsCollateral(address)": "ea84c1ba",
			"enableInstrumentAsCollateral(address,uint256,uint256,uint256)": "e6df474e",
			"getInstrumentAvailableLiquidity(address)": "9f15d5c6",
			"getInstrumentCompoundedBorrowsStable(address)": "2c8dcf3f",
			"getInstrumentCompoundedBorrowsVariable(address)": "d62c202c",
			"getInstrumentConfiguration(address)": "c619adac",
			"getInstrumentCurrentAverageStableBorrowRate(address)": "fbab2405",
			"getInstrumentCurrentLiquidityRate(address)": "3c035866",
			"getInstrumentCurrentStableBorrowRate(address)": "aea3b07e",
			"getInstrumentCurrentVariableBorrowRate(address)": "5cfdd994",
			"getInstrumentDecimals(address)": "dc08d848",
			"getInstrumentITokenAddress(address)": "aafa6de0",
			"getInstrumentInterestRateStrategyAddress(address)": "0feb5d88",
			"getInstrumentIsActive(address)": "2706e94e",
			"getInstrumentIsFreezed(address)": "8bb3a3c4",
			"getInstrumentIsStableBorrowRateEnabled(address)": "75d87acc",
			"getInstrumentLastUpdate(address)": "ffa388b0",
			"getInstrumentLiquidationBonus(address)": "f11c4594",
			"getInstrumentLiquidationThreshold(address)": "609cb289",
			"getInstrumentLiquidityCumulativeIndex(address)": "959fc3e5",
			"getInstrumentNormalizedIncome(address)": "2b0475e1",
			"getInstrumentSIGHPayCumulativeIndex(address)": "908593ca",
			"getInstrumentSIGHPayPaidIndex(address)": "90cc4e85",
			"getInstrumentSIGHPayRate(address)": "1769ba31",
			"getInstrumentTotalBorrows(address)": "245720ec",
			"getInstrumentTotalBorrowsStable(address)": "c172350b",
			"getInstrumentTotalBorrowsVariable(address)": "54e66562",
			"getInstrumentTotalLiquidity(address)": "792a0feb",
			"getInstrumentUtilizationRate(address)": "d1c4c0fa",
			"getInstrumentVariableBorrowsCumulativeIndex(address)": "07ce32a5",
			"getInstruments()": "1635717c",
			"getUserBasicInstrumentData(address,address)": "fcfe58c8",
			"getUserBorrowBalances(address,address)": "9fb8afcd",
			"getUserBorrowFee(address,address)": "6f0d264b",
			"getUserCurrentBorrowRateMode(address,address)": "1ca19f19",
			"getUserCurrentStableBorrowRate(address,address)": "6fffab0c",
			"getUserLastUpdate(address,address)": "66d103f3",
			"getUserUnderlyingAssetBalance(address,address)": "18a4dbca",
			"getUserVariableBorrowCumulativeIndex(address,address)": "f6ea8d76",
			"initInstrument(address,address,uint256,address,address)": "18f9749a",
			"initialize(address)": "c4d66de8",
			"instrumentStableBorrowRateSwitch(address,bool)": "72e8d22a",
			"instrumentsList(uint256)": "ff6ad9d3",
			"isInstrumentBorrowingEnabled(address)": "10183a35",
			"isInstrumentUsageAsCollateralEnabled(address)": "d0c55548",
			"isUserAllowedToBorrowAtStable(address,address,uint256)": "e2174d86",
			"isUserUseInstrumentAsCollateralEnabled(address,address)": "ee9c2281",
			"lendingPoolAddress()": "d3ae26b3",
			"liquidateFee(address,uint256,address)": "8f385c22",
			"refreshConfiguration()": "64681083",
			"setInstrumentInterestRateStrategyAddress(address,address)": "5610992a",
			"setUserUseInstrumentAsCollateral(address,address,bool)": "4375ddae",
			"sighMechanism()": "d34651e7",
			"transferSIGHPayToStakingContract(address)": "6f7dafcb",
			"transferToFeeCollectionAddress(address,address,uint256,address)": "c7d14237",
			"transferToReserve(address,address,uint256)": "28fcf4d3",
			"transferToUser(address,address,uint256)": "fa93b2a5",
			"updateInstrumentCollateralParameters(address,uint256,uint256,uint256)": "44d0a7bc",
			"updateStateOnBorrow(address,address,uint256,uint256,uint8)": "37ac6fe4",
			"updateStateOnDeposit(address,address,uint256,bool)": "bcd6ffa4",
			"updateStateOnFlashLoan(address,uint256,uint256,uint256)": "09ac2953",
			"updateStateOnLiquidation(address,address,address,uint256,uint256,uint256,uint256,uint256,bool)": "68beb4d6",
			"updateStateOnRebalance(address,address,uint256)": "af825b07",
			"updateStateOnRedeem(address,address,uint256,bool)": "afcdbea3",
			"updateStateOnRepay(address,address,uint256,uint256,uint256,bool)": "da12d96f",
			"updateStateOnSwapRate(address,address,uint256,uint256,uint256,uint8)": "f6148311"
		}
	},
	"abi": [
		{
			"anonymous": false,
			"inputs": [
				{
					"indexed": true,
					"internalType": "address",
					"name": "instrument",
					"type": "address"
				},
				{
					"indexed": false,
					"internalType": "uint256",
					"name": "liquidityRate",
					"type": "uint256"
				},
				{
					"indexed": false,
					"internalType": "uint256",
					"name": "stableBorrowRate",
					"type": "uint256"
				},
				{
					"indexed": false,
					"internalType": "uint256",
					"name": "variableBorrowRate",
					"type": "uint256"
				},
				{
					"indexed": false,
					"internalType": "uint256",
					"name": "newSighPayRate",
					"type": "uint256"
				},
				{
					"indexed": false,
					"internalType": "uint256",
					"name": "liquidityIndex",
					"type": "uint256"
				},
				{
					"indexed": false,
					"internalType": "uint256",
					"name": "variableBorrowIndex",
					"type": "uint256"
				},
				{
					"indexed": false,
					"internalType": "uint256",
					"name": "sighPayIndex",
					"type": "uint256"
				}
			],
			"name": "InstrumentUpdated",
			"type": "event"
		},
		{
			"anonymous": false,
			"inputs": [
				{
					"indexed": true,
					"internalType": "address",
					"name": "instrument",
					"type": "address"
				},
				{
					"indexed": false,
					"internalType": "uint256",
					"name": "totalLiquidity",
					"type": "uint256"
				},
				{
					"indexed": false,
					"internalType": "uint256",
					"name": "_sighPayAccured",
					"type": "uint256"
				},
				{
					"indexed": false,
					"internalType": "uint256",
					"name": "lastSIGHPayPaidIndex",
					"type": "uint256"
				},
				{
					"indexed": false,
					"internalType": "uint256",
					"name": "lastSIGHPayCumulativeIndex",
					"type": "uint256"
				}
			],
			"name": "SIGH_PAY_Amount_Transferred",
			"type": "event"
		},
		{
			"payable": true,
			"stateMutability": "payable",
			"type": "fallback"
		},
		{
			"constant": true,
			"inputs": [],
			"name": "CORE_REVISION",
			"outputs": [
				{
					"internalType": "uint256",
					"name": "",
					"type": "uint256"
				}
			],
			"payable": false,
			"stateMutability": "view",
			"type": "function"
		},
		{
			"constant": false,
			"inputs": [
				{
					"internalType": "address",
					"name": "_instrument",
					"type": "address"
				},
				{
					"internalType": "bool",
					"name": "toBeActivated",
					"type": "bool"
				}
			],
			"name": "InstrumentActivationSwitch",
			"outputs": [],
			"payable": false,
			"stateMutability": "nonpayable",
			"type": "function"
		},
		{
			"constant": false,
			"inputs": [
				{
					"internalType": "address",
					"name": "_instrument",
					"type": "address"
				},
				{
					"internalType": "bool",
					"name": "toBeActivated",
					"type": "bool"
				}
			],
			"name": "InstrumentFreezeSwitch",
			"outputs": [],
			"payable": false,
			"stateMutability": "nonpayable",
			"type": "function"
		},
		{
			"constant": true,
			"inputs": [],
			"name": "addressesProvider",
			"outputs": [
				{
					"internalType": "contract GlobalAddressesProvider",
					"name": "",
					"type": "address"
				}
			],
			"payable": false,
			"stateMutability": "view",
			"type": "function"
		},
		{
			"constant": false,
			"inputs": [
				{
					"internalType": "address",
					"name": "_instrument",
					"type": "address"
				},
				{
					"internalType": "bool",
					"name": "toBeActivated",
					"type": "bool"
				}
			],
			"name": "borrowingOnInstrumentSwitch",
			"outputs": [],
			"payable": false,
			"stateMutability": "nonpayable",
			"type": "function"
		},
		{
			"constant": false,
			"inputs": [
				{
					"internalType": "address",
					"name": "_instrument",
					"type": "address"
				}
			],
			"name": "disableInstrumentAsCollateral",
			"outputs": [],
			"payable": false,
			"stateMutability": "nonpayable",
			"type": "function"
		},
		{
			"constant": false,
			"inputs": [
				{
					"internalType": "address",
					"name": "_instrument",
					"type": "address"
				},
				{
					"internalType": "uint256",
					"name": "_baseLTVasCollateral",
					"type": "uint256"
				},
				{
					"internalType": "uint256",
					"name": "_liquidationThreshold",
					"type": "uint256"
				},
				{
					"internalType": "uint256",
					"name": "_liquidationBonus",
					"type": "uint256"
				}
			],
			"name": "enableInstrumentAsCollateral",
			"outputs": [],
			"payable": false,
			"stateMutability": "nonpayable",
			"type": "function"
		},
		{
			"constant": true,
			"inputs": [
				{
					"internalType": "address",
					"name": "_instrument",
					"type": "address"
				}
			],
			"name": "getInstrumentAvailableLiquidity",
			"outputs": [
				{
					"internalType": "uint256",
					"name": "",
					"type": "uint256"
				}
			],
			"payable": false,
			"stateMutability": "view",
			"type": "function"
		},
		{
			"constant": true,
			"inputs": [
				{
					"internalType": "address",
					"name": "_instrument",
					"type": "address"
				}
			],
			"name": "getInstrumentCompoundedBorrowsStable",
			"outputs": [
				{
					"internalType": "uint256",
					"name": "",
					"type": "uint256"
				}
			],
			"payable": false,
			"stateMutability": "view",
			"type": "function"
		},
		{
			"constant": true,
			"inputs": [
				{
					"internalType": "address",
					"name": "_instrument",
					"type": "address"
				}
			],
			"name": "getInstrumentCompoundedBorrowsVariable",
			"outputs": [
				{
					"internalType": "uint256",
					"name": "",
					"type": "uint256"
				}
			],
			"payable": false,
			"stateMutability": "view",
			"type": "function"
		},
		{
			"constant": true,
			"inputs": [
				{
					"internalType": "address",
					"name": "_instrument",
					"type": "address"
				}
			],
			"name": "getInstrumentConfiguration",
			"outputs": [
				{
					"internalType": "uint256",
					"name": "",
					"type": "uint256"
				},
				{
					"internalType": "uint256",
					"name": "",
					"type": "uint256"
				},
				{
					"internalType": "uint256",
					"name": "",
					"type": "uint256"
				},
				{
					"internalType": "bool",
					"name": "",
					"type": "bool"
				}
			],
			"payable": false,
			"stateMutability": "view",
			"type": "function"
		},
		{
			"constant": true,
			"inputs": [
				{
					"internalType": "address",
					"name": "_instrument",
					"type": "address"
				}
			],
			"name": "getInstrumentCurrentAverageStableBorrowRate",
			"outputs": [
				{
					"internalType": "uint256",
					"name": "",
					"type": "uint256"
				}
			],
			"payable": false,
			"stateMutability": "view",
			"type": "function"
		},
		{
			"constant": true,
			"inputs": [
				{
					"internalType": "address",
					"name": "_instrument",
					"type": "address"
				}
			],
			"name": "getInstrumentCurrentLiquidityRate",
			"outputs": [
				{
					"internalType": "uint256",
					"name": "",
					"type": "uint256"
				}
			],
			"payable": false,
			"stateMutability": "view",
			"type": "function"
		},
		{
			"constant": true,
			"inputs": [
				{
					"internalType": "address",
					"name": "_instrument",
					"type": "address"
				}
			],
			"name": "getInstrumentCurrentStableBorrowRate",
			"outputs": [
				{
					"internalType": "uint256",
					"name": "",
					"type": "uint256"
				}
			],
			"payable": false,
			"stateMutability": "view",
			"type": "function"
		},
		{
			"constant": true,
			"inputs": [
				{
					"internalType": "address",
					"name": "_instrument",
					"type": "address"
				}
			],
			"name": "getInstrumentCurrentVariableBorrowRate",
			"outputs": [
				{
					"internalType": "uint256",
					"name": "",
					"type": "uint256"
				}
			],
			"payable": false,
			"stateMutability": "view",
			"type": "function"
		},
		{
			"constant": true,
			"inputs": [
				{
					"internalType": "address",
					"name": "_instrument",
					"type": "address"
				}
			],
			"name": "getInstrumentDecimals",
			"outputs": [
				{
					"internalType": "uint256",
					"name": "",
					"type": "uint256"
				}
			],
			"payable": false,
			"stateMutability": "view",
			"type": "function"
		},
		{
			"constant": true,
			"inputs": [
				{
					"internalType": "address",
					"name": "_instrument",
					"type": "address"
				}
			],
			"name": "getInstrumentITokenAddress",
			"outputs": [
				{
					"internalType": "address",
					"name": "",
					"type": "address"
				}
			],
			"payable": false,
			"stateMutability": "view",
			"type": "function"
		},
		{
			"constant": true,
			"inputs": [
				{
					"internalType": "address",
					"name": "_instrument",
					"type": "address"
				}
			],
			"name": "getInstrumentInterestRateStrategyAddress",
			"outputs": [
				{
					"internalType": "address",
					"name": "interestRateStrategy",
					"type": "address"
				}
			],
			"payable": false,
			"stateMutability": "view",
			"type": "function"
		},
		{
			"constant": true,
			"inputs": [
				{
					"internalType": "address",
					"name": "_instrument",
					"type": "address"
				}
			],
			"name": "getInstrumentIsActive",
			"outputs": [
				{
					"internalType": "bool",
					"name": "",
					"type": "bool"
				}
			],
			"payable": false,
			"stateMutability": "view",
			"type": "function"
		},
		{
			"constant": true,
			"inputs": [
				{
					"internalType": "address",
					"name": "_instrument",
					"type": "address"
				}
			],
			"name": "getInstrumentIsFreezed",
			"outputs": [
				{
					"internalType": "bool",
					"name": "",
					"type": "bool"
				}
			],
			"payable": false,
			"stateMutability": "view",
			"type": "function"
		},
		{
			"constant": true,
			"inputs": [
				{
					"internalType": "address",
					"name": "_instrument",
					"type": "address"
				}
			],
			"name": "getInstrumentIsStableBorrowRateEnabled",
			"outputs": [
				{
					"internalType": "bool",
					"name": "",
					"type": "bool"
				}
			],
			"payable": false,
			"stateMutability": "view",
			"type": "function"
		},
		{
			"constant": true,
			"inputs": [
				{
					"internalType": "address",
					"name": "_instrument",
					"type": "address"
				}
			],
			"name": "getInstrumentLastUpdate",
			"outputs": [
				{
					"internalType": "uint40",
					"name": "timestamp",
					"type": "uint40"
				}
			],
			"payable": false,
			"stateMutability": "view",
			"type": "function"
		},
		{
			"constant": true,
			"inputs": [
				{
					"internalType": "address",
					"name": "_instrument",
					"type": "address"
				}
			],
			"name": "getInstrumentLiquidationBonus",
			"outputs": [
				{
					"internalType": "uint256",
					"name": "",
					"type": "uint256"
				}
			],
			"payable": false,
			"stateMutability": "view",
			"type": "function"
		},
		{
			"constant": true,
			"inputs": [
				{
					"internalType": "address",
					"name": "_instrument",
					"type": "address"
				}
			],
			"name": "getInstrumentLiquidationThreshold",
			"outputs": [
				{
					"internalType": "uint256",
					"name": "",
					"type": "uint256"
				}
			],
			"payable": false,
			"stateMutability": "view",
			"type": "function"
		},
		{
			"constant": true,
			"inputs": [
				{
					"internalType": "address",
					"name": "_instrument",
					"type": "address"
				}
			],
			"name": "getInstrumentLiquidityCumulativeIndex",
			"outputs": [
				{
					"internalType": "uint256",
					"name": "",
					"type": "uint256"
				}
			],
			"payable": false,
			"stateMutability": "view",
			"type": "function"
		},
		{
			"constant": true,
			"inputs": [
				{
					"internalType": "address",
					"name": "_instrument",
					"type": "address"
				}
			],
			"name": "getInstrumentNormalizedIncome",
			"outputs": [
				{
					"internalType": "uint256",
					"name": "",
					"type": "uint256"
				}
			],
			"payable": false,
			"stateMutability": "view",
			"type": "function"
		},
		{
			"constant": true,
			"inputs": [
				{
					"internalType": "address",
					"name": "_instrument",
					"type": "address"
				}
			],
			"name": "getInstrumentSIGHPayCumulativeIndex",
			"outputs": [
				{
					"internalType": "uint256",
					"name": "",
					"type": "uint256"
				}
			],
			"payable": false,
			"stateMutability": "view",
			"type": "function"
		},
		{
			"constant": true,
			"inputs": [
				{
					"internalType": "address",
					"name": "_instrument",
					"type": "address"
				}
			],
			"name": "getInstrumentSIGHPayPaidIndex",
			"outputs": [
				{
					"internalType": "uint256",
					"name": "",
					"type": "uint256"
				}
			],
			"payable": false,
			"stateMutability": "view",
			"type": "function"
		},
		{
			"constant": true,
			"inputs": [
				{
					"internalType": "address",
					"name": "_instrument",
					"type": "address"
				}
			],
			"name": "getInstrumentSIGHPayRate",
			"outputs": [
				{
					"internalType": "uint256",
					"name": "",
					"type": "uint256"
				}
			],
			"payable": false,
			"stateMutability": "view",
			"type": "function"
		},
		{
			"constant": true,
			"inputs": [
				{
					"internalType": "address",
					"name": "_instrument",
					"type": "address"
				}
			],
			"name": "getInstrumentTotalBorrows",
			"outputs": [
				{
					"internalType": "uint256",
					"name": "",
					"type": "uint256"
				}
			],
			"payable": false,
			"stateMutability": "view",
			"type": "function"
		},
		{
			"constant": true,
			"inputs": [
				{
					"internalType": "address",
					"name": "_instrument",
					"type": "address"
				}
			],
			"name": "getInstrumentTotalBorrowsStable",
			"outputs": [
				{
					"internalType": "uint256",
					"name": "",
					"type": "uint256"
				}
			],
			"payable": false,
			"stateMutability": "view",
			"type": "function"
		},
		{
			"constant": true,
			"inputs": [
				{
					"internalType": "address",
					"name": "_instrument",
					"type": "address"
				}
			],
			"name": "getInstrumentTotalBorrowsVariable",
			"outputs": [
				{
					"internalType": "uint256",
					"name": "",
					"type": "uint256"
				}
			],
			"payable": false,
			"stateMutability": "view",
			"type": "function"
		},
		{
			"constant": true,
			"inputs": [
				{
					"internalType": "address",
					"name": "_instrument",
					"type": "address"
				}
			],
			"name": "getInstrumentTotalLiquidity",
			"outputs": [
				{
					"internalType": "uint256",
					"name": "",
					"type": "uint256"
				}
			],
			"payable": false,
			"stateMutability": "view",
			"type": "function"
		},
		{
			"constant": true,
			"inputs": [
				{
					"internalType": "address",
					"name": "_instrument",
					"type": "address"
				}
			],
			"name": "getInstrumentUtilizationRate",
			"outputs": [
				{
					"internalType": "uint256",
					"name": "",
					"type": "uint256"
				}
			],
			"payable": false,
			"stateMutability": "view",
			"type": "function"
		},
		{
			"constant": true,
			"inputs": [
				{
					"internalType": "address",
					"name": "_instrument",
					"type": "address"
				}
			],
			"name": "getInstrumentVariableBorrowsCumulativeIndex",
			"outputs": [
				{
					"internalType": "uint256",
					"name": "",
					"type": "uint256"
				}
			],
			"payable": false,
			"stateMutability": "view",
			"type": "function"
		},
		{
			"constant": true,
			"inputs": [],
			"name": "getInstruments",
			"outputs": [
				{
					"internalType": "address[]",
					"name": "",
					"type": "address[]"
				}
			],
			"payable": false,
			"stateMutability": "view",
			"type": "function"
		},
		{
			"constant": true,
			"inputs": [
				{
					"internalType": "address",
					"name": "_instrument",
					"type": "address"
				},
				{
					"internalType": "address",
					"name": "_user",
					"type": "address"
				}
			],
			"name": "getUserBasicInstrumentData",
			"outputs": [
				{
					"internalType": "uint256",
					"name": "",
					"type": "uint256"
				},
				{
					"internalType": "uint256",
					"name": "",
					"type": "uint256"
				},
				{
					"internalType": "uint256",
					"name": "",
					"type": "uint256"
				},
				{
					"internalType": "bool",
					"name": "",
					"type": "bool"
				}
			],
			"payable": false,
			"stateMutability": "view",
			"type": "function"
		},
		{
			"constant": true,
			"inputs": [
				{
					"internalType": "address",
					"name": "_instrument",
					"type": "address"
				},
				{
					"internalType": "address",
					"name": "_user",
					"type": "address"
				}
			],
			"name": "getUserBorrowBalances",
			"outputs": [
				{
					"internalType": "uint256",
					"name": "",
					"type": "uint256"
				},
				{
					"internalType": "uint256",
					"name": "",
					"type": "uint256"
				},
				{
					"internalType": "uint256",
					"name": "",
					"type": "uint256"
				}
			],
			"payable": false,
			"stateMutability": "view",
			"type": "function"
		},
		{
			"constant": true,
			"inputs": [
				{
					"internalType": "address",
					"name": "_instrument",
					"type": "address"
				},
				{
					"internalType": "address",
					"name": "_user",
					"type": "address"
				}
			],
			"name": "getUserBorrowFee",
			"outputs": [
				{
					"internalType": "uint256",
					"name": "",
					"type": "uint256"
				}
			],
			"payable": false,
			"stateMutability": "view",
			"type": "function"
		},
		{
			"constant": true,
			"inputs": [
				{
					"internalType": "address",
					"name": "_instrument",
					"type": "address"
				},
				{
					"internalType": "address",
					"name": "_user",
					"type": "address"
				}
			],
			"name": "getUserCurrentBorrowRateMode",
			"outputs": [
				{
					"internalType": "enum CoreLibrary.InterestRateMode",
					"name": "",
					"type": "uint8"
				}
			],
			"payable": false,
			"stateMutability": "view",
			"type": "function"
		},
		{
			"constant": true,
			"inputs": [
				{
					"internalType": "address",
					"name": "_instrument",
					"type": "address"
				},
				{
					"internalType": "address",
					"name": "_user",
					"type": "address"
				}
			],
			"name": "getUserCurrentStableBorrowRate",
			"outputs": [
				{
					"internalType": "uint256",
					"name": "",
					"type": "uint256"
				}
			],
			"payable": false,
			"stateMutability": "view",
			"type": "function"
		},
		{
			"constant": true,
			"inputs": [
				{
					"internalType": "address",
					"name": "_instrument",
					"type": "address"
				},
				{
					"internalType": "address",
					"name": "_user",
					"type": "address"
				}
			],
			"name": "getUserLastUpdate",
			"outputs": [
				{
					"internalType": "uint256",
					"name": "timestamp",
					"type": "uint256"
				}
			],
			"payable": false,
			"stateMutability": "view",
			"type": "function"
		},
		{
			"constant": true,
			"inputs": [
				{
					"internalType": "address",
					"name": "_instrument",
					"type": "address"
				},
				{
					"internalType": "address",
					"name": "_user",
					"type": "address"
				}
			],
			"name": "getUserUnderlyingAssetBalance",
			"outputs": [
				{
					"internalType": "uint256",
					"name": "",
					"type": "uint256"
				}
			],
			"payable": false,
			"stateMutability": "view",
			"type": "function"
		},
		{
			"constant": true,
			"inputs": [
				{
					"internalType": "address",
					"name": "_instrument",
					"type": "address"
				},
				{
					"internalType": "address",
					"name": "_user",
					"type": "address"
				}
			],
			"name": "getUserVariableBorrowCumulativeIndex",
			"outputs": [
				{
					"internalType": "uint256",
					"name": "",
					"type": "uint256"
				}
			],
			"payable": false,
			"stateMutability": "view",
			"type": "function"
		},
		{
			"constant": false,
			"inputs": [
				{
					"internalType": "address",
					"name": "_instrument",
					"type": "address"
				},
				{
					"internalType": "address",
					"name": "_iTokenAddress",
					"type": "address"
				},
				{
					"internalType": "uint256",
					"name": "_decimals",
					"type": "uint256"
				},
				{
					"internalType": "address",
					"name": "_interestRateStrategyAddress",
					"type": "address"
				},
				{
					"internalType": "address",
					"name": "_sighStreamAddress",
					"type": "address"
				}
			],
			"name": "initInstrument",
			"outputs": [],
			"payable": false,
			"stateMutability": "nonpayable",
			"type": "function"
		},
		{
			"constant": false,
			"inputs": [
				{
					"internalType": "contract GlobalAddressesProvider",
					"name": "_addressesProvider",
					"type": "address"
				}
			],
			"name": "initialize",
			"outputs": [],
			"payable": false,
			"stateMutability": "nonpayable",
			"type": "function"
		},
		{
			"constant": false,
			"inputs": [
				{
					"internalType": "address",
					"name": "_instrument",
					"type": "address"
				},
				{
					"internalType": "bool",
					"name": "toBeActivated",
					"type": "bool"
				}
			],
			"name": "instrumentStableBorrowRateSwitch",
			"outputs": [],
			"payable": false,
			"stateMutability": "nonpayable",
			"type": "function"
		},
		{
			"constant": true,
			"inputs": [
				{
					"internalType": "uint256",
					"name": "",
					"type": "uint256"
				}
			],
			"name": "instrumentsList",
			"outputs": [
				{
					"internalType": "address",
					"name": "",
					"type": "address"
				}
			],
			"payable": false,
			"stateMutability": "view",
			"type": "function"
		},
		{
			"constant": true,
			"inputs": [
				{
					"internalType": "address",
					"name": "_instrument",
					"type": "address"
				}
			],
			"name": "isInstrumentBorrowingEnabled",
			"outputs": [
				{
					"internalType": "bool",
					"name": "",
					"type": "bool"
				}
			],
			"payable": false,
			"stateMutability": "view",
			"type": "function"
		},
		{
			"constant": true,
			"inputs": [
				{
					"internalType": "address",
					"name": "_instrument",
					"type": "address"
				}
			],
			"name": "isInstrumentUsageAsCollateralEnabled",
			"outputs": [
				{
					"internalType": "bool",
					"name": "",
					"type": "bool"
				}
			],
			"payable": false,
			"stateMutability": "view",
			"type": "function"
		},
		{
			"constant": true,
			"inputs": [
				{
					"internalType": "address",
					"name": "_instrument",
					"type": "address"
				},
				{
					"internalType": "address",
					"name": "_user",
					"type": "address"
				},
				{
					"internalType": "uint256",
					"name": "_amount",
					"type": "uint256"
				}
			],
			"name": "isUserAllowedToBorrowAtStable",
			"outputs": [
				{
					"internalType": "bool",
					"name": "",
					"type": "bool"
				}
			],
			"payable": false,
			"stateMutability": "view",
			"type": "function"
		},
		{
			"constant": true,
			"inputs": [
				{
					"internalType": "address",
					"name": "_instrument",
					"type": "address"
				},
				{
					"internalType": "address",
					"name": "_user",
					"type": "address"
				}
			],
			"name": "isUserUseInstrumentAsCollateralEnabled",
			"outputs": [
				{
					"internalType": "bool",
					"name": "",
					"type": "bool"
				}
			],
			"payable": false,
			"stateMutability": "view",
			"type": "function"
		},
		{
			"constant": true,
			"inputs": [],
			"name": "lendingPoolAddress",
			"outputs": [
				{
					"internalType": "address",
					"name": "",
					"type": "address"
				}
			],
			"payable": false,
			"stateMutability": "view",
			"type": "function"
		},
		{
			"constant": false,
			"inputs": [
				{
					"internalType": "address",
					"name": "_token",
					"type": "address"
				},
				{
					"internalType": "uint256",
					"name": "_amount",
					"type": "uint256"
				},
				{
					"internalType": "address",
					"name": "_destination",
					"type": "address"
				}
			],
			"name": "liquidateFee",
			"outputs": [],
			"payable": true,
			"stateMutability": "payable",
			"type": "function"
		},
		{
			"constant": false,
			"inputs": [],
			"name": "refreshConfiguration",
			"outputs": [],
			"payable": false,
			"stateMutability": "nonpayable",
			"type": "function"
		},
		{
			"constant": false,
			"inputs": [
				{
					"internalType": "address",
					"name": "_instrument",
					"type": "address"
				},
				{
					"internalType": "address",
					"name": "_rateStrategyAddress",
					"type": "address"
				}
			],
			"name": "setInstrumentInterestRateStrategyAddress",
			"outputs": [],
			"payable": false,
			"stateMutability": "nonpayable",
			"type": "function"
		},
		{
			"constant": false,
			"inputs": [
				{
					"internalType": "address",
					"name": "_instrument",
					"type": "address"
				},
				{
					"internalType": "address",
					"name": "_user",
					"type": "address"
				},
				{
					"internalType": "bool",
					"name": "_useAsCollateral",
					"type": "bool"
				}
			],
			"name": "setUserUseInstrumentAsCollateral",
			"outputs": [],
			"payable": false,
			"stateMutability": "nonpayable",
			"type": "function"
		},
		{
			"constant": true,
			"inputs": [],
			"name": "sighMechanism",
			"outputs": [
				{
					"internalType": "contract ISighDistributionHandler",
					"name": "",
					"type": "address"
				}
			],
			"payable": false,
			"stateMutability": "view",
			"type": "function"
		},
		{
			"constant": false,
			"inputs": [
				{
					"internalType": "address",
					"name": "instrumentAddress",
					"type": "address"
				}
			],
			"name": "transferSIGHPayToStakingContract",
			"outputs": [],
			"payable": false,
			"stateMutability": "nonpayable",
			"type": "function"
		},
		{
			"constant": false,
			"inputs": [
				{
					"internalType": "address",
					"name": "_token",
					"type": "address"
				},
				{
					"internalType": "address",
					"name": "_user",
					"type": "address"
				},
				{
					"internalType": "uint256",
					"name": "_amount",
					"type": "uint256"
				},
				{
					"internalType": "address",
					"name": "_destination",
					"type": "address"
				}
			],
			"name": "transferToFeeCollectionAddress",
			"outputs": [],
			"payable": true,
			"stateMutability": "payable",
			"type": "function"
		},
		{
			"constant": false,
			"inputs": [
				{
					"internalType": "address",
					"name": "_instrument",
					"type": "address"
				},
				{
					"internalType": "address payable",
					"name": "_user",
					"type": "address"
				},
				{
					"internalType": "uint256",
					"name": "_amount",
					"type": "uint256"
				}
			],
			"name": "transferToReserve",
			"outputs": [],
			"payable": true,
			"stateMutability": "payable",
			"type": "function"
		},
		{
			"constant": false,
			"inputs": [
				{
					"internalType": "address",
					"name": "_instrument",
					"type": "address"
				},
				{
					"internalType": "address payable",
					"name": "_user",
					"type": "address"
				},
				{
					"internalType": "uint256",
					"name": "_amount",
					"type": "uint256"
				}
			],
			"name": "transferToUser",
			"outputs": [],
			"payable": false,
			"stateMutability": "nonpayable",
			"type": "function"
		},
		{
			"constant": false,
			"inputs": [
				{
					"internalType": "address",
					"name": "_instrument",
					"type": "address"
				},
				{
					"internalType": "uint256",
					"name": "_ltv",
					"type": "uint256"
				},
				{
					"internalType": "uint256",
					"name": "_threshold",
					"type": "uint256"
				},
				{
					"internalType": "uint256",
					"name": "_bonus",
					"type": "uint256"
				}
			],
			"name": "updateInstrumentCollateralParameters",
			"outputs": [],
			"payable": false,
			"stateMutability": "nonpayable",
			"type": "function"
		},
		{
			"constant": false,
			"inputs": [
				{
					"internalType": "address",
					"name": "_instrument",
					"type": "address"
				},
				{
					"internalType": "address",
					"name": "_user",
					"type": "address"
				},
				{
					"internalType": "uint256",
					"name": "_amountBorrowed",
					"type": "uint256"
				},
				{
					"internalType": "uint256",
					"name": "_borrowFee",
					"type": "uint256"
				},
				{
					"internalType": "enum CoreLibrary.InterestRateMode",
					"name": "_rateMode",
					"type": "uint8"
				}
			],
			"name": "updateStateOnBorrow",
			"outputs": [
				{
					"internalType": "uint256",
					"name": "",
					"type": "uint256"
				},
				{
					"internalType": "uint256",
					"name": "",
					"type": "uint256"
				}
			],
			"payable": false,
			"stateMutability": "nonpayable",
			"type": "function"
		},
		{
			"constant": false,
			"inputs": [
				{
					"internalType": "address",
					"name": "_instrument",
					"type": "address"
				},
				{
					"internalType": "address",
					"name": "_user",
					"type": "address"
				},
				{
					"internalType": "uint256",
					"name": "_amount",
					"type": "uint256"
				},
				{
					"internalType": "bool",
					"name": "_isFirstDeposit",
					"type": "bool"
				}
			],
			"name": "updateStateOnDeposit",
			"outputs": [],
			"payable": false,
			"stateMutability": "nonpayable",
			"type": "function"
		},
		{
			"constant": false,
			"inputs": [
				{
					"internalType": "address",
					"name": "_instrument",
					"type": "address"
				},
				{
					"internalType": "uint256",
					"name": "_availableLiquidityBefore",
					"type": "uint256"
				},
				{
					"internalType": "uint256",
					"name": "_income",
					"type": "uint256"
				},
				{
					"internalType": "uint256",
					"name": "_protocolFee",
					"type": "uint256"
				}
			],
			"name": "updateStateOnFlashLoan",
			"outputs": [],
			"payable": false,
			"stateMutability": "nonpayable",
			"type": "function"
		},
		{
			"constant": false,
			"inputs": [
				{
					"internalType": "address",
					"name": "_principalInstrument",
					"type": "address"
				},
				{
					"internalType": "address",
					"name": "_collateralInstrument",
					"type": "address"
				},
				{
					"internalType": "address",
					"name": "_user",
					"type": "address"
				},
				{
					"internalType": "uint256",
					"name": "_amountToLiquidate",
					"type": "uint256"
				},
				{
					"internalType": "uint256",
					"name": "_collateralToLiquidate",
					"type": "uint256"
				},
				{
					"internalType": "uint256",
					"name": "_feeLiquidated",
					"type": "uint256"
				},
				{
					"internalType": "uint256",
					"name": "_liquidatedCollateralForFee",
					"type": "uint256"
				},
				{
					"internalType": "uint256",
					"name": "_balanceIncrease",
					"type": "uint256"
				},
				{
					"internalType": "bool",
					"name": "_liquidatorReceivesIToken",
					"type": "bool"
				}
			],
			"name": "updateStateOnLiquidation",
			"outputs": [],
			"payable": false,
			"stateMutability": "nonpayable",
			"type": "function"
		},
		{
			"constant": false,
			"inputs": [
				{
					"internalType": "address",
					"name": "_instrument",
					"type": "address"
				},
				{
					"internalType": "address",
					"name": "_user",
					"type": "address"
				},
				{
					"internalType": "uint256",
					"name": "_balanceIncrease",
					"type": "uint256"
				}
			],
			"name": "updateStateOnRebalance",
			"outputs": [
				{
					"internalType": "uint256",
					"name": "",
					"type": "uint256"
				}
			],
			"payable": false,
			"stateMutability": "nonpayable",
			"type": "function"
		},
		{
			"constant": false,
			"inputs": [
				{
					"internalType": "address",
					"name": "_instrument",
					"type": "address"
				},
				{
					"internalType": "address",
					"name": "_user",
					"type": "address"
				},
				{
					"internalType": "uint256",
					"name": "_amountRedeemed",
					"type": "uint256"
				},
				{
					"internalType": "bool",
					"name": "_userRedeemedEverything",
					"type": "bool"
				}
			],
			"name": "updateStateOnRedeem",
			"outputs": [],
			"payable": false,
			"stateMutability": "nonpayable",
			"type": "function"
		},
		{
			"constant": false,
			"inputs": [
				{
					"internalType": "address",
					"name": "_instrument",
					"type": "address"
				},
				{
					"internalType": "address",
					"name": "_user",
					"type": "address"
				},
				{
					"internalType": "uint256",
					"name": "_paybackAmountMinusFees",
					"type": "uint256"
				},
				{
					"internalType": "uint256",
					"name": "_borrowFeeRepaid",
					"type": "uint256"
				},
				{
					"internalType": "uint256",
					"name": "_balanceIncrease",
					"type": "uint256"
				},
				{
					"internalType": "bool",
					"name": "_repaidWholeLoan",
					"type": "bool"
				}
			],
			"name": "updateStateOnRepay",
			"outputs": [],
			"payable": false,
			"stateMutability": "nonpayable",
			"type": "function"
		},
		{
			"constant": false,
			"inputs": [
				{
					"internalType": "address",
					"name": "_instrument",
					"type": "address"
				},
				{
					"internalType": "address",
					"name": "_user",
					"type": "address"
				},
				{
					"internalType": "uint256",
					"name": "_principalBorrowBalance",
					"type": "uint256"
				},
				{
					"internalType": "uint256",
					"name": "_compoundedBorrowBalance",
					"type": "uint256"
				},
				{
					"internalType": "uint256",
					"name": "_balanceIncrease",
					"type": "uint256"
				},
				{
					"internalType": "enum CoreLibrary.InterestRateMode",
					"name": "_currentRateMode",
					"type": "uint8"
				}
			],
			"name": "updateStateOnSwapRate",
			"outputs": [
				{
					"internalType": "enum CoreLibrary.InterestRateMode",
					"name": "",
					"type": "uint8"
				},
				{
					"internalType": "uint256",
					"name": "",
					"type": "uint256"
				}
			],
			"payable": false,
			"stateMutability": "nonpayable",
			"type": "function"
		}
	]
}