{
	"data": {
		"bytecode": {
			"linkReferences": {
				"localhost/contracts/LendingProtocolContracts/libraries/CoreLibrary.sol": {
					"CoreLibrary": [
						{
							"length": 20,
							"start": 6514
						},
						{
							"length": 20,
							"start": 9273
						},
						{
							"length": 20,
							"start": 15026
						},
						{
							"length": 20,
							"start": 15339
						},
						{
							"length": 20,
							"start": 15645
						}
					]
				}
			},
			"object": "60806040526000805534801561001457600080fd5b50615d1680620000256000396000f3fe60806040526004361061041a5760003560e01c80639f15d5c61161021e578063d3ae26b311610123578063f11c4594116100ab578063fbab24051161007a578063fbab2405146113fa578063fcfe58c81461142d578063feab31ac14611468578063ff6ad9d3146114a3578063ffa388b0146114cd5761041a565b8063f11c4594146112c5578063f6148311146112f8578063f6ea8d761461137c578063fa93b2a5146113b75761041a565b8063e2174d86116100f2578063e2174d8614611186578063e6df474e146111c9578063ea84c1ba1461120e578063ecc9e37214611241578063ee9c22811461128a5761041a565b8063d3ae26b3146110b4578063da12d96f146110c9578063da90169014611120578063dc08d848146111535761041a565b8063c172350b116101a6578063c7d1423711610175578063c7d1423714610fc4578063cc9334b214611000578063d0c5554814611039578063d1c4c0fa1461106c578063d34651e71461109f5761041a565b8063c172350b14610eee578063c4d66de814610f21578063c619adac14610f54578063c72c4d1014610faf5761041a565b8063aea3b07e116101ed578063aea3b07e14610daf578063af825b0714610de2578063afcdbea314610e25578063bcd6ffa414610e70578063c0e1dff714610ebb5761041a565b80639f15d5c614610cbd5780639fb8afcd14610cf0578063a4637e7b14610d49578063aafa6de014610d7c5761041a565b80634375ddae1161032457806366d103f3116102ac57806375d87acc1161027b57806375d87acc14610bbb578063792a0feb14610bee5780638bb3a3c414610c215780638f385c2214610c54578063959fc3e514610c8a5761041a565b806366d103f314610aa7578063683775a214610ae257806368beb4d614610b155780636fffab0c14610b805761041a565b80635cfdd994116102f35780635cfdd994146109c0578063609cb289146109f35780636468108314610a265780636670b51914610a3b57806366a3f18b14610a6e5761041a565b80634375ddae146108da57806354e665621461091f5780635610992a1461095257806356df9ca21461098d5761041a565b806318a4dbca116103a75780632706e94e116103765780632706e94e1461079f57806328fcf4d3146107d25780632b0475e11461080857806337ac6fe41461083b5780633c035866146108a75761041a565b806318a4dbca1461069f5780631ca19f19146106da5780631f7dbbf614610739578063245720ec1461076c5761041a565b80630feb5d88116103ee5780630feb5d881461053857806310183a351461058757806311a92bd7146105ce5780631635717c14610607578063174ec5391461066c5761041a565b80624646f61461046057806307ce32a51461049957806309ac2953146104de5780630c7de4e914610523575b6104233361151a565b61045e5760405162461bcd60e51b8152600401808060200182810382526036815260200180615a786036913960400191505060405180910390fd5b005b34801561046c57600080fd5b5061045e6004803603604081101561048357600080fd5b506001600160a01b038135169060200135611524565b3480156104a557600080fd5b506104cc600480360360208110156104bc57600080fd5b50356001600160a01b03166115f8565b60408051918252519081900360200190f35b3480156104ea57600080fd5b5061045e6004803603608081101561050157600080fd5b506001600160a01b038135169060208101359060408101359060600135611616565b34801561052f57600080fd5b506104cc6116e4565b34801561054457600080fd5b5061056b6004803603602081101561055b57600080fd5b50356001600160a01b03166116e9565b604080516001600160a01b039092168252519081900360200190f35b34801561059357600080fd5b506105ba600480360360208110156105aa57600080fd5b50356001600160a01b031661170a565b604080519115158252519081900360200190f35b3480156105da57600080fd5b5061045e600480360360408110156105f157600080fd5b506001600160a01b038135169060200135611731565b34801561061357600080fd5b5061061c611805565b60408051602080825283518183015283519192839290830191858101910280838360005b83811015610658578181015183820152602001610640565b505050509050019250505060405180910390f35b34801561067857600080fd5b5061045e6004803603602081101561068f57600080fd5b50356001600160a01b0316611867565b3480156106ab57600080fd5b506104cc600480360360408110156106c257600080fd5b506001600160a01b0381358116916020013516611996565b3480156106e657600080fd5b50610715600480360360408110156106fd57600080fd5b506001600160a01b0381358116916020013516611a26565b6040518082600281111561072557fe5b60ff16815260200191505060405180910390f35b34801561074557600080fd5b5061045e6004803603602081101561075c57600080fd5b50356001600160a01b0316611a7e565b34801561077857600080fd5b506104cc6004803603602081101561078f57600080fd5b50356001600160a01b0316611b5c565b3480156107ab57600080fd5b506105ba600480360360208110156107c257600080fd5b50356001600160a01b0316611b7d565b61045e600480360360608110156107e857600080fd5b506001600160a01b03813581169160208101359091169060400135611b9e565b34801561081457600080fd5b506104cc6004803603602081101561082b57600080fd5b50356001600160a01b0316611d69565b34801561084757600080fd5b5061088e600480360360a081101561085e57600080fd5b5080356001600160a01b03908116916020810135909116906040810135906060810135906080013560ff16611d91565b6040805192835260208301919091528051918290030190f35b3480156108b357600080fd5b506104cc600480360360208110156108ca57600080fd5b50356001600160a01b0316611f24565b3480156108e657600080fd5b5061045e600480360360608110156108fd57600080fd5b506001600160a01b038135811691602081013590911690604001351515611f42565b34801561092b57600080fd5b506104cc6004803603602081101561094257600080fd5b50356001600160a01b0316611fc4565b34801561095e57600080fd5b5061045e6004803603604081101561097557600080fd5b506001600160a01b0381358116916020013516611fe2565b34801561099957600080fd5b5061045e600480360360208110156109b057600080fd5b50356001600160a01b03166120c8565b3480156109cc57600080fd5b506104cc600480360360208110156109e357600080fd5b50356001600160a01b03166121a1565b3480156109ff57600080fd5b506104cc60048036036020811015610a1657600080fd5b50356001600160a01b0316612251565b348015610a3257600080fd5b5061045e61226f565b348015610a4757600080fd5b5061045e60048036036020811015610a5e57600080fd5b50356001600160a01b031661232e565b348015610a7a57600080fd5b5061045e60048036036040811015610a9157600080fd5b506001600160a01b038135169060200135612449565b348015610ab357600080fd5b506104cc60048036036040811015610aca57600080fd5b506001600160a01b038135811691602001351661251d565b348015610aee57600080fd5b5061045e60048036036020811015610b0557600080fd5b50356001600160a01b0316612553565b348015610b2157600080fd5b5061045e6004803603610120811015610b3957600080fd5b506001600160a01b03813581169160208101358216916040820135169060608101359060808101359060a08101359060c08101359060e08101359061010001351515612630565b348015610b8c57600080fd5b506104cc60048036036040811015610ba357600080fd5b506001600160a01b0381358116916020013516612839565b348015610bc757600080fd5b506105ba60048036036020811015610bde57600080fd5b50356001600160a01b0316612868565b348015610bfa57600080fd5b506104cc60048036036020811015610c1157600080fd5b50356001600160a01b0316612891565b348015610c2d57600080fd5b506105ba60048036036020811015610c4457600080fd5b50356001600160a01b03166128ca565b61045e60048036036060811015610c6a57600080fd5b506001600160a01b038135811691602081013591604090910135166128f0565b348015610c9657600080fd5b506104cc60048036036020811015610cad57600080fd5b50356001600160a01b0316612a0c565b348015610cc957600080fd5b506104cc60048036036020811015610ce057600080fd5b50356001600160a01b0316612a2a565b348015610cfc57600080fd5b50610d2b60048036036040811015610d1357600080fd5b506001600160a01b0381358116916020013516612ace565b60408051938452602084019290925282820152519081900360600190f35b348015610d5557600080fd5b5061045e60048036036020811015610d6c57600080fd5b50356001600160a01b0316612b5f565b348015610d8857600080fd5b5061056b60048036036020811015610d9f57600080fd5b50356001600160a01b0316612c39565b348015610dbb57600080fd5b506104cc60048036036020811015610dd257600080fd5b50356001600160a01b0316612c57565b348015610dee57600080fd5b506104cc60048036036060811015610e0557600080fd5b506001600160a01b03813581169160208101359091169060400135612d7f565b348015610e3157600080fd5b5061045e60048036036080811015610e4857600080fd5b506001600160a01b038135811691602081013590911690604081013590606001351515612f0a565b348015610e7c57600080fd5b5061045e60048036036080811015610e9357600080fd5b506001600160a01b03813581169160208101359091169060408101359060600135151561300d565b348015610ec757600080fd5b5061045e60048036036020811015610ede57600080fd5b50356001600160a01b0316613110565b348015610efa57600080fd5b506104cc60048036036020811015610f1157600080fd5b50356001600160a01b03166131f4565b348015610f2d57600080fd5b5061045e60048036036020811015610f4457600080fd5b50356001600160a01b0316613212565b348015610f6057600080fd5b50610f8760048036036020811015610f7757600080fd5b50356001600160a01b03166132d1565b6040805194855260208501939093528383019190915215156060830152519081900360800190f35b348015610fbb57600080fd5b5061056b61330f565b61045e60048036036080811015610fda57600080fd5b506001600160a01b0381358116916020810135821691604082013591606001351661331e565b34801561100c57600080fd5b5061045e6004803603604081101561102357600080fd5b506001600160a01b0381351690602001356134d0565b34801561104557600080fd5b506105ba6004803603602081101561105c57600080fd5b50356001600160a01b03166135a4565b34801561107857600080fd5b506104cc6004803603602081101561108f57600080fd5b50356001600160a01b03166135cc565b3480156110ab57600080fd5b5061056b613636565b3480156110c057600080fd5b5061056b613645565b3480156110d557600080fd5b5061045e600480360360c08110156110ec57600080fd5b506001600160a01b03813581169160208101359091169060408101359060608101359060808101359060a001351515613654565b34801561112c57600080fd5b5061045e6004803603602081101561114357600080fd5b50356001600160a01b03166137b7565b34801561115f57600080fd5b506104cc6004803603602081101561117657600080fd5b50356001600160a01b03166138e7565b34801561119257600080fd5b506105ba600480360360608110156111a957600080fd5b506001600160a01b03813581169160208101359091169060400135613905565b3480156111d557600080fd5b5061045e600480360360808110156111ec57600080fd5b506001600160a01b038135169060208101359060408101359060600135613992565b34801561121a57600080fd5b5061045e6004803603602081101561123157600080fd5b50356001600160a01b0316613ae0565b34801561124d57600080fd5b5061045e6004803603608081101561126457600080fd5b506001600160a01b03813581169160208101358216916040820135916060013516613bfb565b34801561129657600080fd5b506105ba600480360360408110156112ad57600080fd5b506001600160a01b0381358116916020013516613e14565b3480156112d157600080fd5b506104cc600480360360208110156112e857600080fd5b50356001600160a01b0316613e43565b34801561130457600080fd5b50611351600480360360c081101561131b57600080fd5b5080356001600160a01b039081169160208101359091169060408101359060608101359060808101359060a0013560ff16613e61565b6040518083600281111561136157fe5b60ff1681526020018281526020019250505060405180910390f35b34801561138857600080fd5b506104cc6004803603604081101561139f57600080fd5b506001600160a01b0381358116916020013516613fdf565b3480156113c357600080fd5b5061045e600480360360608110156113da57600080fd5b506001600160a01b0381358116916020810135909116906040013561400e565b34801561140657600080fd5b506104cc6004803603602081101561141d57600080fd5b50356001600160a01b0316614135565b34801561143957600080fd5b50610f876004803603604081101561145057600080fd5b506001600160a01b0381358116916020013516614153565b34801561147457600080fd5b506104cc6004803603604081101561148b57600080fd5b506001600160a01b03813581169160200135166141ef565b3480156114af57600080fd5b5061056b600480360360208110156114c657600080fd5b503561421e565b3480156114d957600080fd5b50611500600480360360208110156114f057600080fd5b50356001600160a01b0316614245565b6040805164ffffffffff9092168252519081900360200190f35b803b15155b919050565b603454604080516385c858b160e01b8152905133926001600160a01b0316916385c858b1916004808301926020929190829003018186803b15801561156857600080fd5b505afa15801561157c573d6000803e3d6000fd5b505050506040513d602081101561159257600080fd5b50516001600160a01b0316146115d95760405162461bcd60e51b8152600401808060200182810382526038815260200180615caa6038913960400191505060405180910390fd5b6001600160a01b039091166000908152603860205260409020600c0155565b6001600160a01b03166000908152603860205260409020600a015490565b6035546001600160a01b0316331461165f5760405162461bcd60e51b815260040180806020018281038252602a815260200180615bd8602a913960400191505060405180910390fd5b611669848261426a565b6001600160a01b038416600090815260386020526040902061168a9061434d565b60006116a561169886611b5c565b859063ffffffff6143dd16565b6001600160a01b03861660009081526038602052604090209091506116d190828563ffffffff61443716565b6116dd8584600061449e565b5050505050565b600381565b6001600160a01b039081166000908152603860205260409020600101541690565b6001600160a01b031660009081526038602052604090206003015462010000900460ff1690565b603454604080516385c858b160e01b8152905133926001600160a01b0316916385c858b1916004808301926020929190829003018186803b15801561177557600080fd5b505afa158015611789573d6000803e3d6000fd5b505050506040513d602081101561179f57600080fd5b50516001600160a01b0316146117e65760405162461bcd60e51b8152600401808060200182810382526038815260200180615caa6038913960400191505060405180910390fd5b6001600160a01b039091166000908152603860205260409020600d0155565b6060603780548060200260200160405190810160405280929190818152602001828054801561185d57602002820191906000526020600020905b81546001600160a01b0316815260019091019060200180831161183f575b5050505050905090565b603454604080516385c858b160e01b8152905133926001600160a01b0316916385c858b1916004808301926020929190829003018186803b1580156118ab57600080fd5b505afa1580156118bf573d6000803e3d6000fd5b505050506040513d60208110156118d557600080fd5b50516001600160a01b03161461191c5760405162461bcd60e51b8152600401808060200182810382526038815260200180615caa6038913960400191505060405180910390fd5b6001600160a01b0381166000908152603860205260408082208151630ea746e560e41b81526004810191909152905173__$26aba8fee459e9e1a5346aa6cb9fef744f$__9263ea746e509260248082019391829003018186803b15801561198257600080fd5b505af41580156116dd573d6000803e3d6000fd5b6001600160a01b0380831660009081526038602090815260408083205481516370a0823160e01b8152868616600482015291519394169283926370a082319260248082019391829003018186803b1580156119f057600080fd5b505afa158015611a04573d6000803e3d6000fd5b505050506040513d6020811015611a1a57600080fd5b50519150505b92915050565b6001600160a01b03808216600090815260396020908152604080832093861683529290529081206001810154611a60576000915050611a20565b6000816002015411611a73576002611a76565b60015b949350505050565b603454604080516385c858b160e01b8152905133926001600160a01b0316916385c858b1916004808301926020929190829003018186803b158015611ac257600080fd5b505afa158015611ad6573d6000803e3d6000fd5b505050506040513d6020811015611aec57600080fd5b50516001600160a01b031614611b335760405162461bcd60e51b8152600401808060200182810382526038815260200180615caa6038913960400191505060405180910390fd5b6001600160a01b03166000908152603860205260409020600301805461ff001916610100179055565b6001600160a01b0381166000908152603860205260408120611a2090614631565b6001600160a01b031660009081526038602052604090206003015460ff1690565b6035546001600160a01b03163314611be75760405162461bcd60e51b815260040180806020018281038252602a815260200180615bd8602a913960400191505060405180910390fd5b611bef61464e565b6001600160a01b0316836001600160a01b031614611c64573415611c445760405162461bcd60e51b8152600401808060200182810382526032815260200180615ad16032913960400191505060405180910390fd5b611c5f6001600160a01b03841683308463ffffffff61466616565b611d64565b80341015611ca35760405162461bcd60e51b8152600401808060200182810382526035815260200180615a436035913960400191505060405180910390fd5b80341115611d64576000611cbd348363ffffffff6146c016565b6040519091506000906001600160a01b0385169061c35090849084818181858888f193505050503d8060008114611d10576040519150601f19603f3d011682016040523d82523d6000602084013e611d15565b606091505b50509050806116dd576040805162461bcd60e51b8152602060048201526016602482015275151c985b9cd9995c881bd9881155120819985a5b195960521b604482015290519081900360640190fd5b505050565b6001600160a01b0381166000908152603860205260408120611d8a81614702565b9392505050565b60355460009081906001600160a01b03163314611ddf5760405162461bcd60e51b815260040180806020018281038252602a815260200180615bd8602a913960400191505060405180910390fd5b60365460408051630f8a56cd60e31b81526001600160a01b038a8116600483015291519190921691637c52b6689160248083019260209291908290030181600087803b158015611e2e57600080fd5b505af1158015611e42573d6000803e3d6000fd5b505050506040513d6020811015611e5857600080fd5b506000905080611e688989612ace565b6001600160a01b03808d166000908152603860205260408082205481516369e61c0f60e11b81528f851660048201529151969850939650929091169384935063d3cc381e92602480820193929182900301818387803b158015611eca57600080fd5b505af1158015611ede573d6000803e3d6000fd5b50505050611ef08a8a85858c8b614737565b611efe8a8a8a858b8b614766565b611f0a8a60008a61449e565b611f148a8a614891565b9a91995090975050505050505050565b6001600160a01b031660009081526038602052604090206006015490565b6035546001600160a01b03163314611f8b5760405162461bcd60e51b815260040180806020018281038252602a815260200180615bd8602a913960400191505060405180910390fd5b6001600160a01b039182166000908152603960209081526040808320959094168252939093529120805460ff1916911515919091179055565b6001600160a01b031660009081526038602052604090206008015490565b603454604080516385c858b160e01b8152905133926001600160a01b0316916385c858b1916004808301926020929190829003018186803b15801561202657600080fd5b505afa15801561203a573d6000803e3d6000fd5b505050506040513d602081101561205057600080fd5b50516001600160a01b0316146120975760405162461bcd60e51b8152600401808060200182810382526038815260200180615caa6038913960400191505060405180910390fd5b6001600160a01b03918216600090815260386020526040902060010180546001600160a01b03191691909216179055565b603454604080516385c858b160e01b8152905133926001600160a01b0316916385c858b1916004808301926020929190829003018186803b15801561210c57600080fd5b505afa158015612120573d6000803e3d6000fd5b505050506040513d602081101561213657600080fd5b50516001600160a01b03161461217d5760405162461bcd60e51b8152600401808060200182810382526038815260200180615caa6038913960400191505060405180910390fd5b6001600160a01b03166000908152603860205260409020600301805460ff19169055565b6001600160a01b03811660009081526038602052604081206004810154612247578060010160009054906101000a90046001600160a01b03166001600160a01b03166334762ca56040518163ffffffff1660e01b815260040160206040518083038186803b15801561221257600080fd5b505afa158015612226573d6000803e3d6000fd5b505050506040513d602081101561223c57600080fd5b5051915061151f9050565b6004015492915050565b6001600160a01b03166000908152603860205260409020600d015490565b603454604080516385c858b160e01b8152905133926001600160a01b0316916385c858b1916004808301926020929190829003018186803b1580156122b357600080fd5b505afa1580156122c7573d6000803e3d6000fd5b505050506040513d60208110156122dd57600080fd5b50516001600160a01b0316146123245760405162461bcd60e51b8152600401808060200182810382526038815260200180615caa6038913960400191505060405180910390fd5b61232c614923565b565b603454604080516385c858b160e01b8152905133926001600160a01b0316916385c858b1916004808301926020929190829003018186803b15801561237257600080fd5b505afa158015612386573d6000803e3d6000fd5b505050506040513d602081101561239c57600080fd5b50516001600160a01b0316146123e35760405162461bcd60e51b8152600401808060200182810382526038815260200180615caa6038913960400191505060405180910390fd5b6001600160a01b038116600090815260386020526040808220815163db59153560e01b81526004810191909152905173__$26aba8fee459e9e1a5346aa6cb9fef744f$__9263db5915359260248082019391829003018186803b15801561198257600080fd5b603454604080516385c858b160e01b8152905133926001600160a01b0316916385c858b1916004808301926020929190829003018186803b15801561248d57600080fd5b505afa1580156124a1573d6000803e3d6000fd5b505050506040513d60208110156124b757600080fd5b50516001600160a01b0316146124fe5760405162461bcd60e51b8152600401808060200182810382526038815260200180615caa6038913960400191505060405180910390fd5b6001600160a01b039091166000908152603860205260409020600e0155565b6001600160a01b0390811660009081526039602090815260408083209490931682529290925290206005015464ffffffffff1690565b603454604080516385c858b160e01b8152905133926001600160a01b0316916385c858b1916004808301926020929190829003018186803b15801561259757600080fd5b505afa1580156125ab573d6000803e3d6000fd5b505050506040513d60208110156125c157600080fd5b50516001600160a01b0316146126085760405162461bcd60e51b8152600401808060200182810382526038815260200180615caa6038913960400191505060405180910390fd5b6001600160a01b03166000908152603860205260409020600301805464ff0000000019169055565b6035546001600160a01b031633146126795760405162461bcd60e51b815260040180806020018281038252602a815260200180615bd8602a913960400191505060405180910390fd5b60365460408051630f8a56cd60e31b81526001600160a01b038c8116600483015291519190921691637c52b6689160248083019260209291908290030181600087803b1580156126c857600080fd5b505af11580156126dc573d6000803e3d6000fd5b505050506040513d60208110156126f257600080fd5b505060365460408051634f425fbb60e01b81526001600160a01b038b8116600483015291519190921691634f425fbb9160248083019260209291908290030181600087803b15801561274357600080fd5b505af1158015612757573d6000803e3d6000fd5b505050506040513d602081101561276d57600080fd5b50506001600160a01b03808a166000908152603860205260408082205481516369e61c0f60e11b81528b851660048201529151931692839263d3cc381e926024808201939182900301818387803b1580156127c757600080fd5b505af11580156127db573d6000803e3d6000fd5b505050506127eb8a898986614a43565b6127f489614af3565b6128018a89898887614b17565b61280d8a88600061449e565b8161282d5761282d896000612828898863ffffffff6143dd16565b61449e565b50505050505050505050565b6001600160a01b0380821660009081526039602090815260408083209386168352929052206002015492915050565b6001600160a01b0316600090815260386020526040902060030154640100000000900460ff1690565b6001600160a01b0381166000908152603860205260408120611d8a6128b582614631565b6128be85612a2a565b9063ffffffff6143dd16565b6001600160a01b0316600090815260386020526040902060030154610100900460ff1690565b6035546001600160a01b031633146129395760405162461bcd60e51b815260040180806020018281038252602a815260200180615bd8602a913960400191505060405180910390fd5b8034156129775760405162461bcd60e51b81526004018080602001828103825260368152602001806159bd6036913960400191505060405180910390fd5b61297f61464e565b6001600160a01b0316846001600160a01b0316146129b6576129b16001600160a01b038516828563ffffffff614bcf16565b612a06565b6040516000906001600160a01b0383169061c35090869084818181858888f193505050503d8060008114611d10576040519150601f19603f3d011682016040523d82523d6000602084013e611d15565b50505050565b6001600160a01b03166000908152603860205260409020600b015490565b600080612a3561464e565b6001600160a01b0316836001600160a01b03161415612a55575047611a20565b604080516370a0823160e01b815230600482015290516001600160a01b038516916370a08231916024808301926020929190829003018186803b158015612a9b57600080fd5b505afa158015612aaf573d6000803e3d6000fd5b505050506040513d6020811015612ac557600080fd5b50519392505050565b6001600160a01b0380821660009081526039602090815260408083209386168352929052908120600181015482918291612b12575060009250829150819050612b58565b60018101546001600160a01b0387166000908152603860205260408120612b3a908490614c21565b90508181612b4e818363ffffffff6146c016565b9550955095505050505b9250925092565b603454604080516385c858b160e01b8152905133926001600160a01b0316916385c858b1916004808301926020929190829003018186803b158015612ba357600080fd5b505afa158015612bb7573d6000803e3d6000fd5b505050506040513d6020811015612bcd57600080fd5b50516001600160a01b031614612c145760405162461bcd60e51b8152600401808060200182810382526038815260200180615caa6038913960400191505060405180910390fd5b6001600160a01b03166000908152603860205260409020600301805461ff0019169055565b6001600160a01b039081166000908152603860205260409020541690565b6001600160a01b0380821660009081526038602090815260408083206034548251631b0c55dd60e11b815292519495919486949190921692633618abba9260048083019392829003018186803b158015612cb057600080fd5b505afa158015612cc4573d6000803e3d6000fd5b505050506040513d6020811015612cda57600080fd5b50516005830154909150612d7457806001600160a01b031663bb85c0bb856040518263ffffffff1660e01b815260040180826001600160a01b03166001600160a01b0316815260200191505060206040518083038186803b158015612d3e57600080fd5b505afa158015612d52573d6000803e3d6000fd5b505050506040513d6020811015612d6857600080fd5b5051925061151f915050565b506005015492915050565b6035546000906001600160a01b03163314612dcb5760405162461bcd60e51b815260040180806020018281038252602a815260200180615bd8602a913960400191505060405180910390fd5b60365460408051630f8a56cd60e31b81526001600160a01b03878116600483015291519190921691637c52b6689160248083019260209291908290030181600087803b158015612e1a57600080fd5b505af1158015612e2e573d6000803e3d6000fd5b505050506040513d6020811015612e4457600080fd5b50506001600160a01b038085166000908152603860205260408082205481516369e61c0f60e11b815287851660048201529151931692839263d3cc381e926024808201939182900301818387803b158015612e9e57600080fd5b505af1158015612eb2573d6000803e3d6000fd5b50505050612ec1858585614d11565b612ecc858585614d61565b612ed88560008061449e565b50506001600160a01b038083166000908152603960209081526040808320938716835292905220600201549392505050565b6035546001600160a01b03163314612f535760405162461bcd60e51b815260040180806020018281038252602a815260200180615bd8602a913960400191505060405180910390fd5b60365460408051634f425fbb60e01b81526001600160a01b03878116600483015291519190921691634f425fbb9160248083019260209291908290030181600087803b158015612fa257600080fd5b505af1158015612fb6573d6000803e3d6000fd5b505050506040513d6020811015612fcc57600080fd5b50506001600160a01b0384166000908152603860205260409020612fef9061434d565b612ffb8460008461449e565b8015612a0657612a0684846000611f42565b6035546001600160a01b031633146130565760405162461bcd60e51b815260040180806020018281038252602a815260200180615bd8602a913960400191505060405180910390fd5b60365460408051634f425fbb60e01b81526001600160a01b03878116600483015291519190921691634f425fbb9160248083019260209291908290030181600087803b1580156130a557600080fd5b505af11580156130b9573d6000803e3d6000fd5b505050506040513d60208110156130cf57600080fd5b50506001600160a01b03841660009081526038602052604090206130f29061434d565b6130fe8483600061449e565b8015612a0657612a0684846001611f42565b603454604080516385c858b160e01b8152905133926001600160a01b0316916385c858b1916004808301926020929190829003018186803b15801561315457600080fd5b505afa158015613168573d6000803e3d6000fd5b505050506040513d602081101561317e57600080fd5b50516001600160a01b0316146131c55760405162461bcd60e51b8152600401808060200182810382526038815260200180615caa6038913960400191505060405180910390fd5b6001600160a01b03166000908152603860205260409020600301805464ff000000001916640100000000179055565b6001600160a01b031660009081526038602052604090206007015490565b600061321c614dd0565b60015490915060ff16806132335750613233614dd5565b8061323f575060005481115b61327a5760405162461bcd60e51b815260040180806020018281038252602e815260200180615baa602e913960400191505060405180910390fd5b60015460ff16158015613299576001805460ff19168117905560008290555b603480546001600160a01b0319166001600160a01b0385161790556132bc614923565b8015611d64576001805460ff19169055505050565b6001600160a01b031660009081526038602052604090206002810154600c820154600d83015460039093015491939092916301000000900460ff1690565b6034546001600160a01b031681565b6035546001600160a01b031633146133675760405162461bcd60e51b815260040180806020018281038252602a815260200180615bd8602a913960400191505060405180910390fd5b8061337061464e565b6001600160a01b0316856001600160a01b0316146133e55734156133c55760405162461bcd60e51b815260040180806020018281038252605f815260200180615b2a605f913960600191505060405180910390fd5b6133e06001600160a01b03861685838663ffffffff61466616565b6116dd565b823410156134245760405162461bcd60e51b8152600401808060200182810382526035815260200180615a436035913960400191505060405180910390fd5b6040516000906001600160a01b0383169061c35090869084818181858888f193505050503d8060008114613474576040519150601f19603f3d011682016040523d82523d6000602084013e613479565b606091505b50509050806134c8576040805162461bcd60e51b8152602060048201526016602482015275151c985b9cd9995c881bd9881155120819985a5b195960521b604482015290519081900360640190fd5b505050505050565b603454604080516385c858b160e01b8152905133926001600160a01b0316916385c858b1916004808301926020929190829003018186803b15801561351457600080fd5b505afa158015613528573d6000803e3d6000fd5b505050506040513d602081101561353e57600080fd5b50516001600160a01b0316146135855760405162461bcd60e51b8152600401808060200182810382526038815260200180615caa6038913960400191505060405180910390fd5b6001600160a01b03909116600090815260386020526040902060020155565b6001600160a01b03166000908152603860205260409020600301546301000000900460ff1690565b6001600160a01b0381166000908152603860205260408120816135ee82614631565b9050806136005760009250505061151f565b600061360b85612a2a565b905061362d613620828463ffffffff6143dd16565b839063ffffffff614ddb16565b95945050505050565b6036546001600160a01b031681565b6035546001600160a01b031681565b6035546001600160a01b0316331461369d5760405162461bcd60e51b815260040180806020018281038252602a815260200180615bd8602a913960400191505060405180910390fd5b60365460408051630f8a56cd60e31b81526001600160a01b03898116600483015291519190921691637c52b6689160248083019260209291908290030181600087803b1580156136ec57600080fd5b505af1158015613700573d6000803e3d6000fd5b505050506040513d602081101561371657600080fd5b50506001600160a01b038087166000908152603860205260408082205481516369e61c0f60e11b815289851660048201529151931692839263d3cc381e926024808201939182900301818387803b15801561377057600080fd5b505af1158015613784573d6000803e3d6000fd5b5050505061379487878786614e17565b6137a2878787878787614e7b565b6137ae8786600061449e565b50505050505050565b603454604080516385c858b160e01b8152905133926001600160a01b0316916385c858b1916004808301926020929190829003018186803b1580156137fb57600080fd5b505afa15801561380f573d6000803e3d6000fd5b505050506040513d602081101561382557600080fd5b50516001600160a01b03161461386c5760405162461bcd60e51b8152600401808060200182810382526038815260200180615caa6038913960400191505060405180910390fd5b6001600160a01b0381166000908152603860205260409020600b8101541580159061389b5750600081600a0154115b6138d65760405162461bcd60e51b8152600401808060200182810382526027815260200180615b036027913960400191505060405180910390fd5b600301805460ff1916600117905550565b6001600160a01b031660009081526038602052604090206002015490565b6001600160a01b0383811660008181526038602090815260408083209487168352603982528083209383529290529081206003830154919291640100000000900460ff1661395857600092505050611d8a565b805460ff161580613975575060038201546301000000900460ff16155b8061398857506139858686611996565b84115b9695505050505050565b603454604080516385c858b160e01b8152905133926001600160a01b0316916385c858b1916004808301926020929190829003018186803b1580156139d657600080fd5b505afa1580156139ea573d6000803e3d6000fd5b505050506040513d6020811015613a0057600080fd5b50516001600160a01b031614613a475760405162461bcd60e51b8152600401808060200182810382526038815260200180615caa6038913960400191505060405180910390fd5b6001600160a01b038416600090815260386020526040808220815163897c124760e01b81526004810191909152602481018690526044810185905260648101849052905173__$26aba8fee459e9e1a5346aa6cb9fef744f$__9263897c12479260848082019391829003018186803b158015613ac257600080fd5b505af4158015613ad6573d6000803e3d6000fd5b5050505050505050565b603454604080516385c858b160e01b8152905133926001600160a01b0316916385c858b1916004808301926020929190829003018186803b158015613b2457600080fd5b505afa158015613b38573d6000803e3d6000fd5b505050506040513d6020811015613b4e57600080fd5b50516001600160a01b031614613b955760405162461bcd60e51b8152600401808060200182810382526038815260200180615caa6038913960400191505060405180910390fd5b6001600160a01b038116600090815260386020526040808220815163df5d411360e01b81526004810191909152905173__$26aba8fee459e9e1a5346aa6cb9fef744f$__9263df5d41139260248082019391829003018186803b15801561198257600080fd5b603454604080516385c858b160e01b8152905133926001600160a01b0316916385c858b1916004808301926020929190829003018186803b158015613c3f57600080fd5b505afa158015613c53573d6000803e3d6000fd5b505050506040513d6020811015613c6957600080fd5b50516001600160a01b031614613cb05760405162461bcd60e51b8152600401808060200182810382526038815260200180615caa6038913960400191505060405180910390fd5b6001600160a01b03808516600090815260386020526040808220815163710d44ed60e11b8152600481019190915286841660248201526044810186905292841660648401525173__$26aba8fee459e9e1a5346aa6cb9fef744f$__9263e21a89da926084808301939192829003018186803b158015613d2e57600080fd5b505af4158015613d42573d6000803e3d6000fd5b50505050613d4f84614efe565b60365460408051630a577ccb60e31b81526001600160a01b038781166004830152868116602483015260448201869052915191909216916352bbe6589160648083019260209291908290030181600087803b158015613dad57600080fd5b505af1158015613dc1573d6000803e3d6000fd5b505050506040513d6020811015613dd757600080fd5b5051612a065760405162461bcd60e51b815260040180806020018281038252605b815260200180615c02605b913960600191505060405180910390fd5b6001600160a01b0380821660009081526039602090815260408083209386168352929052205460ff1692915050565b6001600160a01b03166000908152603860205260409020600e015490565b60355460009081906001600160a01b03163314613eaf5760405162461bcd60e51b815260040180806020018281038252602a815260200180615bd8602a913960400191505060405180910390fd5b60365460408051630f8a56cd60e31b81526001600160a01b038b8116600483015291519190921691637c52b6689160248083019260209291908290030181600087803b158015613efe57600080fd5b505af1158015613f12573d6000803e3d6000fd5b505050506040513d6020811015613f2857600080fd5b50506001600160a01b038089166000908152603860205260408082205481516369e61c0f60e11b81528b851660048201529151931692839263d3cc381e926024808201939182900301818387803b158015613f8257600080fd5b505af1158015613f96573d6000803e3d6000fd5b50505050613fa78989898988614fa2565b6000613fb58a8a88886150a1565b9050613fc38a60008061449e565b80613fce8b8b614891565b935093505050965096945050505050565b6001600160a01b0380821660009081526039602090815260408083209386168352929052206003015492915050565b6035546001600160a01b031633146140575760405162461bcd60e51b815260040180806020018281038252602a815260200180615bd8602a913960400191505060405180910390fd5b61405f61464e565b6001600160a01b0316836001600160a01b03161461409157611c5f6001600160a01b038416838363ffffffff614bcf16565b6040516000906001600160a01b0384169061c35090849084818181858888f193505050503d80600081146140e1576040519150601f19603f3d011682016040523d82523d6000602084013e6140e6565b606091505b5050905080612a06576040805162461bcd60e51b8152602060048201526016602482015275151c985b9cd9995c881bd9881155120819985a5b195960521b604482015290519081900360640190fd5b6001600160a01b031660009081526038602052604090206009015490565b6001600160a01b0380831660008181526038602090815260408083209486168352603982528083209383529290529081209091829182918291826141978989611996565b90508160010154600014156141be5790549095506000945084935060ff1691506141e69050565b806141cf838563ffffffff614c2116565b6004840154935491985096509194505060ff169150505b92959194509250565b6001600160a01b0380821660009081526039602090815260408083209386168352929052206004015492915050565b6037818154811061422b57fe5b6000918252602090912001546001600160a01b0316905081565b6001600160a01b03166000908152603860205260409020600f015464ffffffffff1690565b60345460408051631db4f56960e01b815290516000926001600160a01b031691631db4f569916004808301926020929190829003018186803b1580156142af57600080fd5b505afa1580156142c3573d6000803e3d6000fd5b505050506040513d60208110156142d957600080fd5b505190506142e561464e565b6001600160a01b0316836001600160a01b03161461431757611c5f6001600160a01b038416828463ffffffff614bcf16565b6040516001600160a01b0382169083156108fc029084906000818181858888f19350505050158015612a06573d6000803e3d6000fd5b600061435882614631565b905080156143d9576006820154600f83015460009161437d9164ffffffffff166151a5565b905061439683600b0154826151f090919063ffffffff16565b600b8401556004830154600f8401546000916143b89164ffffffffff16615228565b90506143d184600a0154826151f090919063ffffffff16565b600a85015550505b5050565b600082820183811015611d8a576040805162461bcd60e51b815260206004820152601b60248201527f536166654d6174683a206164646974696f6e206f766572666c6f770000000000604482015290519081900360640190fd5b600061445a61444584615279565b61444e84615279565b9063ffffffff614ddb16565b9050600061447661446961528f565b839063ffffffff6143dd16565b905061448f85600b0154826151f090919063ffffffff16565b85600b01819055505050505050565b6001600160a01b0380841660009081526038602052604081206001810154909282918291166357e37af0886144e6886144da8b6128be85612a2a565b9063ffffffff6146c016565b8760070154886008015489600901546040518663ffffffff1660e01b815260040180866001600160a01b03166001600160a01b031681526020018581526020018481526020018381526020018281526020019550505050505060606040518083038186803b15801561455757600080fd5b505afa15801561456b573d6000803e3d6000fd5b505050506040513d606081101561458157600080fd5b508051602080830151604093840151600689018490556005890182905560048901819055600f8901805464ffffffffff421664ffffffffff19909116179055600b890154600a8a0154865186815294850184905284870183905260608501919091526080840152935192965094509192506001600160a01b038916917f0f05e03f4cc9c1680881783f4b8e7205df99a05cb3fd1523dc96c8c34d91e62f919081900360a00190a250505050505050565b6000611a20826008015483600701546143dd90919063ffffffff16565b73eeeeeeeeeeeeeeeeeeeeeeeeeeeeeeeeeeeeeeee90565b604080516001600160a01b0385811660248301528416604482015260648082018490528251808303909101815260849091019091526020810180516001600160e01b03166323b872dd60e01b179052612a0690859061529f565b6000611d8a83836040518060400160405280601e81526020017f536166654d6174683a207375627472616374696f6e206f766572666c6f770000815250615457565b600b8101546006820154600f8301546000928392611d8a9261472b919064ffffffffff166151a5565b9063ffffffff6151f016565b6001600160a01b03861660009081526038602052604090206147589061434d565b6134c88686868686866154ee565b6001600160a01b038087166000818152603860209081526040808320948a168352603982528083209383529290522060018360028111156147a357fe5b14156147bf576005820154600282015560006003820155614836565b60028360028111156147cd57fe5b14156147e95760006002820155600a8201546003820155614836565b6040805162461bcd60e51b815260206004820152601860248201527f496e76616c696420626f72726f772072617465206d6f64650000000000000000604482015290519081900360640190fd5b614851856128be8884600101546143dd90919063ffffffff16565b6001820155600481015461486b908563ffffffff6143dd16565b6004820155600501805464ffffffffff19164264ffffffffff1617905550505050505050565b60008061489e8484611a26565b905060008160028111156148ae57fe5b14156148be576000915050611a20565b60018160028111156148cc57fe5b146148f2576001600160a01b038416600090815260386020526040902060040154611a76565b50506001600160a01b0390811660009081526039602090815260408083209490931682529290925290206002015490565b603460009054906101000a90046001600160a01b03166001600160a01b0316630261bf8b6040518163ffffffff1660e01b815260040160206040518083038186803b15801561497157600080fd5b505afa158015614985573d6000803e3d6000fd5b505050506040513d602081101561499b57600080fd5b5051603580546001600160a01b0319166001600160a01b039283161790556034546040805163a0375c6d60e01b81529051919092169163a0375c6d916004808301926020929190829003018186803b1580156149f657600080fd5b505afa158015614a0a573d6000803e3d6000fd5b505050506040513d6020811015614a2057600080fd5b5051603680546001600160a01b0319166001600160a01b03909216919091179055565b6001600160a01b03808516600081815260386020908152604080832094881683526039825280832093835292905220614a7b8261434d565b6000614a878787611a26565b905060015b816002811115614a9857fe5b1415614ad3576002820154614ab6908490869063ffffffff61565516565b6002820154614ace908490879063ffffffff6156c516565b6137ae565b614ae3838563ffffffff6157d016565b6137ae838663ffffffff6157f116565b6001600160a01b0381166000908152603860205260409020614b149061434d565b50565b6001600160a01b038085166000908152603960209081526040808320938916835292815282822060389091529190206001820154614b619086906144da908663ffffffff6143dd16565b60018301556002614b728888611a26565b6002811115614b7d57fe5b1415614b8e57600a81015460038301555b8315614baf576004820154614ba9908563ffffffff6146c016565b60048301555b50600501805464ffffffffff19164264ffffffffff161790555050505050565b604080516001600160a01b038416602482015260448082018490528251808303909101815260649091019091526020810180516001600160e01b031663a9059cbb60e01b179052611d6490849061529f565b6000826001015460001415614c3857506000611a20565b6000614c478460010154615279565b6002850154909150600090819015614c7b5760028601546005870154614c74919064ffffffffff16615228565b9050614cb1565b614cae866003015461444e87600a015461472b89600401548a600f0160009054906101000a900464ffffffffff16615228565b90505b614cc9614cc4848363ffffffff6151f016565b615849565b91508560010154821415614d0857600586015464ffffffffff164214614d0857600186810154614cfe9163ffffffff6143dd16565b9350505050611a20565b50949350505050565b6001600160a01b03808416600081815260386020908152604080832094871683526039825280832093835292905220614d498261434d565b60028101546116dd908390859063ffffffff61565516565b6001600160a01b038083166000908152603960209081526040808320938716835292815282822060389091529190206001820154614da5908463ffffffff6143dd16565b6001830155600590810154600283015501805464ffffffffff19164264ffffffffff16179055505050565b600390565b303b1590565b600060028204611a7683614e0b614dfe876b033b2e3c9fd0803ce8000000615862565b849063ffffffff6143dd16565b9063ffffffff6158bb16565b6001600160a01b03808516600090815260386020908152604080832060398352818420948816845293909152812090614e508787611a26565b6001600160a01b0388166000908152603860205260409020909150614e749061434d565b6001614a8c565b6001600160a01b038087166000818152603860209081526040808320948a16835260398252808320938352929052206001810154614ec59087906144da908763ffffffff6143dd16565b6001820155600a82015460038201558215614ee95760006002820181905560038201555b600481015461486b908663ffffffff6146c016565b6000805b603754811015614f4b57826001600160a01b031660378281548110614f2357fe5b6000918252602090912001546001600160a01b03161415614f4357600191505b600101614f02565b50806143d957603780546001810182556000919091527f42a7b7dd785cd69714a189dffb3fd7d7174edc9ece837694ce50f7078f7c31ae0180546001600160a01b0384166001600160a01b03199091161790555050565b6001600160a01b03808616600081815260386020908152604080832094891683526039825280832093835292905220614fda8261434d565b6001836002811115614fe857fe5b141561501a57600281015461500483878363ffffffff6156c516565b615014838663ffffffff6157d016565b506137ae565b600283600281111561502857fe5b1415615054576005820154615043838763ffffffff6157f116565b61501483868363ffffffff61565516565b6040805162461bcd60e51b815260206004820152601a60248201527f496e76616c69642072617465206d6f6465207265636569766564000000000000604482015290519081900360640190fd5b6001600160a01b038084166000908152603960209081526040808320938816835292815282822060389091529181209091908260028560028111156150e257fe5b1415615101575060058101546002830155600060038301556001615167565b600185600281111561510f57fe5b141561513057506000600283810191909155600a8201546003840155615167565b60405162461bcd60e51b8152600401808060200182810382526023815260200180615c5d6023913960400191505060405180910390fd5b600183015461517c908763ffffffff6143dd16565b60018401556005909201805464ffffffffff19164264ffffffffff161790555095945050505050565b6000806151bf4264ffffffffff851663ffffffff6146c016565b905060006151d36144456301e13380615279565b905061362d6151e061528f565b6128be878463ffffffff6151f016565b6000611d8a6b033b2e3c9fd0803ce8000000614e0b615215868663ffffffff61586216565b6b019d971e4fe8401e74000000906143dd565b6000806152424264ffffffffff851663ffffffff6146c016565b9050600061525a856301e1338063ffffffff6158bb16565b905060006139888361526d61169861528f565b9063ffffffff6158fd16565b6000611a2082633b9aca0063ffffffff61586216565b6b033b2e3c9fd0803ce800000090565b6152b1826001600160a01b031661151a565b615302576040805162461bcd60e51b815260206004820152601f60248201527f5361666545524332303a2063616c6c20746f206e6f6e2d636f6e747261637400604482015290519081900360640190fd5b60006060836001600160a01b0316836040518082805190602001908083835b602083106153405780518252601f199092019160209182019101615321565b6001836020036101000a0380198251168184511680821785525050505050509050019150506000604051808303816000865af19150503d80600081146153a2576040519150601f19603f3d011682016040523d82523d6000602084013e6153a7565b606091505b5091509150816153fe576040805162461bcd60e51b815260206004820181905260248201527f5361666545524332303a206c6f772d6c6576656c2063616c6c206661696c6564604482015290519081900360640190fd5b805115612a065780806020019051602081101561541a57600080fd5b5051612a065760405162461bcd60e51b815260040180806020018281038252602a815260200180615c80602a913960400191505060405180910390fd5b600081848411156154e65760405162461bcd60e51b81526004018080602001828103825283818151815260200191508051906020019080838360005b838110156154ab578181015183820152602001615493565b50505050905090810190601f1680156154d85780820380516001836020036101000a031916815260200191505b509250505060405180910390fd5b505050900390565b60006154fa8787611a26565b6001600160a01b0388166000908152603860205260409020909150600182600281111561552357fe5b141561556c576001600160a01b038088166000908152603960209081526040808320938c168352929052206002810154615566908390899063ffffffff6156c516565b50615590565b600282600281111561557a57fe5b141561559057615590818763ffffffff6157f116565b60006155a6856128be898963ffffffff6143dd16565b905060018460028111156155b657fe5b14156155d95760058201546155d4908390839063ffffffff61565516565b61564a565b60028460028111156155e757fe5b14156155fd576155d4828263ffffffff6157d016565b6040805162461bcd60e51b815260206004820152601c60248201527f496e76616c6964206e657720626f72726f772072617465206d6f646500000000604482015290519081900360640190fd5b505050505050505050565b600783015461566a818463ffffffff6143dd16565b6007850155600061567e8361472b86615279565b90506000615693866009015461472b85615279565b90506156b56156a58760070154615279565b61444e848463ffffffff6143dd16565b8660090181905550505050505050565b818360070154101561571e576040805162461bcd60e51b815260206004820152601a60248201527f496e76616c696420616d6f756e7420746f206465637265617365000000000000604482015290519081900360640190fd5b6007830154615733818463ffffffff6146c016565b6007850181905561574b575060006009840155611d64565b600061575a8361472b86615279565b9050600061576f866009015461472b85615279565b9050818110156157b05760405162461bcd60e51b8152600401808060200182810382526023815260200180615aae6023913960400191505060405180910390fd5b6156b56157c08760070154615279565b61444e838563ffffffff6146c016565b60088201546157e5908263ffffffff6143dd16565b82600801819055505050565b80826008015410156158345760405162461bcd60e51b81526004018080602001828103825260508152602001806159f36050913960600191505060405180910390fd5b60088201546157e5908263ffffffff6146c016565b6000631dcd6500611d8a633b9aca00614e0b83866143dd565b60008261587157506000611a20565b8282028284828161587e57fe5b0414611d8a5760405162461bcd60e51b8152600401808060200182810382526021815260200180615b896021913960400191505060405180910390fd5b6000611d8a83836040518060400160405280601a81526020017f536166654d6174683a206469766973696f6e206279207a65726f000000000000815250615957565b600060028206615919576b033b2e3c9fd0803ce800000061591b565b825b90506002820491505b8115611a205761593483846151f0565b9250600282061561594c5761594981846151f0565b90505b600282049150615924565b600081836159a65760405162461bcd60e51b81526020600482018181528351602484015283519092839260449091019190850190808383600083156154ab578181015183820152602001615493565b5060008385816159b257fe5b049594505050505056fe466565206c69717569646174696f6e20646f6573206e6f74207265717569726520616e79207472616e73666572206f662076616c756554686520616d6f756e742074686174206973206265696e6720737562747261637465642066726f6d20746865207661726961626c6520746f74616c20626f72726f777320697320696e636f727265637454686520616d6f756e7420616e64207468652076616c75652073656e7420746f206465706f73697420646f206e6f74206d617463684f6e6c7920636f6e7472616374732063616e2073656e6420657468657220746f20746865204c656e64696e6720706f6f6c20636f726554686520616d6f756e747320746f20737562747261637420646f6e2774206d61746368557365722069732073656e64696e672045544820616c6f6e67207769746820746865204552433230207472616e736665722e496e737472756d656e7420686173206e6f74206265656e20696e697469616c697a656420796574557365722069732073656e64696e672045544820616c6f6e67207769746820746865204552433230207472616e736665722e20436865636b207468652076616c756520617474726962757465206f6620746865207472616e73616374696f6e536166654d6174683a206d756c7469706c69636174696f6e206f766572666c6f77436f6e747261637420696e7374616e63652068617320616c7265616479206265656e20696e697469616c697a65645468652063616c6c6572206d7573742062652061206c656e64696e6720706f6f6c20636f6e7472616374496e737472756d656e74206661696c656420746f2062652070726f7065726c7920616464656420746f20746865206c697374206f6620496e737472756d656e747320737570706f7274656420627920534947482046696e616e6365496e76616c696420696e7465726573742072617465206d6f64652072656365697665645361666545524332303a204552433230206f7065726174696f6e20646964206e6f7420737563636565645468652063616c6c6572206d75737420626520746865206c656e64696e6720706f6f6c20636f6e666967757261746f72206163636f756e74a265627a7a723158200eecfd00e3d8d12156cfb3feb64e5fa517870da3727153d312f4f22401a93bf664736f6c63430005110032",
			"opcodes": "PUSH1 0x80 PUSH1 0x40 MSTORE PUSH1 0x0 DUP1 SSTORE CALLVALUE DUP1 ISZERO PUSH2 0x14 JUMPI PUSH1 0x0 DUP1 REVERT JUMPDEST POP PUSH2 0x5D16 DUP1 PUSH3 0x25 PUSH1 0x0 CODECOPY PUSH1 0x0 RETURN INVALID PUSH1 0x80 PUSH1 0x40 MSTORE PUSH1 0x4 CALLDATASIZE LT PUSH2 0x41A JUMPI PUSH1 0x0 CALLDATALOAD PUSH1 0xE0 SHR DUP1 PUSH4 0x9F15D5C6 GT PUSH2 0x21E JUMPI DUP1 PUSH4 0xD3AE26B3 GT PUSH2 0x123 JUMPI DUP1 PUSH4 0xF11C4594 GT PUSH2 0xAB JUMPI DUP1 PUSH4 0xFBAB2405 GT PUSH2 0x7A JUMPI DUP1 PUSH4 0xFBAB2405 EQ PUSH2 0x13FA JUMPI DUP1 PUSH4 0xFCFE58C8 EQ PUSH2 0x142D JUMPI DUP1 PUSH4 0xFEAB31AC EQ PUSH2 0x1468 JUMPI DUP1 PUSH4 0xFF6AD9D3 EQ PUSH2 0x14A3 JUMPI DUP1 PUSH4 0xFFA388B0 EQ PUSH2 0x14CD JUMPI PUSH2 0x41A JUMP JUMPDEST DUP1 PUSH4 0xF11C4594 EQ PUSH2 0x12C5 JUMPI DUP1 PUSH4 0xF6148311 EQ PUSH2 0x12F8 JUMPI DUP1 PUSH4 0xF6EA8D76 EQ PUSH2 0x137C JUMPI DUP1 PUSH4 0xFA93B2A5 EQ PUSH2 0x13B7 JUMPI PUSH2 0x41A JUMP JUMPDEST DUP1 PUSH4 0xE2174D86 GT PUSH2 0xF2 JUMPI DUP1 PUSH4 0xE2174D86 EQ PUSH2 0x1186 JUMPI DUP1 PUSH4 0xE6DF474E EQ PUSH2 0x11C9 JUMPI DUP1 PUSH4 0xEA84C1BA EQ PUSH2 0x120E JUMPI DUP1 PUSH4 0xECC9E372 EQ PUSH2 0x1241 JUMPI DUP1 PUSH4 0xEE9C2281 EQ PUSH2 0x128A JUMPI PUSH2 0x41A JUMP JUMPDEST DUP1 PUSH4 0xD3AE26B3 EQ PUSH2 0x10B4 JUMPI DUP1 PUSH4 0xDA12D96F EQ PUSH2 0x10C9 JUMPI DUP1 PUSH4 0xDA901690 EQ PUSH2 0x1120 JUMPI DUP1 PUSH4 0xDC08D848 EQ PUSH2 0x1153 JUMPI PUSH2 0x41A JUMP JUMPDEST DUP1 PUSH4 0xC172350B GT PUSH2 0x1A6 JUMPI DUP1 PUSH4 0xC7D14237 GT PUSH2 0x175 JUMPI DUP1 PUSH4 0xC7D14237 EQ PUSH2 0xFC4 JUMPI DUP1 PUSH4 0xCC9334B2 EQ PUSH2 0x1000 JUMPI DUP1 PUSH4 0xD0C55548 EQ PUSH2 0x1039 JUMPI DUP1 PUSH4 0xD1C4C0FA EQ PUSH2 0x106C JUMPI DUP1 PUSH4 0xD34651E7 EQ PUSH2 0x109F JUMPI PUSH2 0x41A JUMP JUMPDEST DUP1 PUSH4 0xC172350B EQ PUSH2 0xEEE JUMPI DUP1 PUSH4 0xC4D66DE8 EQ PUSH2 0xF21 JUMPI DUP1 PUSH4 0xC619ADAC EQ PUSH2 0xF54 JUMPI DUP1 PUSH4 0xC72C4D10 EQ PUSH2 0xFAF JUMPI PUSH2 0x41A JUMP JUMPDEST DUP1 PUSH4 0xAEA3B07E GT PUSH2 0x1ED JUMPI DUP1 PUSH4 0xAEA3B07E EQ PUSH2 0xDAF JUMPI DUP1 PUSH4 0xAF825B07 EQ PUSH2 0xDE2 JUMPI DUP1 PUSH4 0xAFCDBEA3 EQ PUSH2 0xE25 JUMPI DUP1 PUSH4 0xBCD6FFA4 EQ PUSH2 0xE70 JUMPI DUP1 PUSH4 0xC0E1DFF7 EQ PUSH2 0xEBB JUMPI PUSH2 0x41A JUMP JUMPDEST DUP1 PUSH4 0x9F15D5C6 EQ PUSH2 0xCBD JUMPI DUP1 PUSH4 0x9FB8AFCD EQ PUSH2 0xCF0 JUMPI DUP1 PUSH4 0xA4637E7B EQ PUSH2 0xD49 JUMPI DUP1 PUSH4 0xAAFA6DE0 EQ PUSH2 0xD7C JUMPI PUSH2 0x41A JUMP JUMPDEST DUP1 PUSH4 0x4375DDAE GT PUSH2 0x324 JUMPI DUP1 PUSH4 0x66D103F3 GT PUSH2 0x2AC JUMPI DUP1 PUSH4 0x75D87ACC GT PUSH2 0x27B JUMPI DUP1 PUSH4 0x75D87ACC EQ PUSH2 0xBBB JUMPI DUP1 PUSH4 0x792A0FEB EQ PUSH2 0xBEE JUMPI DUP1 PUSH4 0x8BB3A3C4 EQ PUSH2 0xC21 JUMPI DUP1 PUSH4 0x8F385C22 EQ PUSH2 0xC54 JUMPI DUP1 PUSH4 0x959FC3E5 EQ PUSH2 0xC8A JUMPI PUSH2 0x41A JUMP JUMPDEST DUP1 PUSH4 0x66D103F3 EQ PUSH2 0xAA7 JUMPI DUP1 PUSH4 0x683775A2 EQ PUSH2 0xAE2 JUMPI DUP1 PUSH4 0x68BEB4D6 EQ PUSH2 0xB15 JUMPI DUP1 PUSH4 0x6FFFAB0C EQ PUSH2 0xB80 JUMPI PUSH2 0x41A JUMP JUMPDEST DUP1 PUSH4 0x5CFDD994 GT PUSH2 0x2F3 JUMPI DUP1 PUSH4 0x5CFDD994 EQ PUSH2 0x9C0 JUMPI DUP1 PUSH4 0x609CB289 EQ PUSH2 0x9F3 JUMPI DUP1 PUSH4 0x64681083 EQ PUSH2 0xA26 JUMPI DUP1 PUSH4 0x6670B519 EQ PUSH2 0xA3B JUMPI DUP1 PUSH4 0x66A3F18B EQ PUSH2 0xA6E JUMPI PUSH2 0x41A JUMP JUMPDEST DUP1 PUSH4 0x4375DDAE EQ PUSH2 0x8DA JUMPI DUP1 PUSH4 0x54E66562 EQ PUSH2 0x91F JUMPI DUP1 PUSH4 0x5610992A EQ PUSH2 0x952 JUMPI DUP1 PUSH4 0x56DF9CA2 EQ PUSH2 0x98D JUMPI PUSH2 0x41A JUMP JUMPDEST DUP1 PUSH4 0x18A4DBCA GT PUSH2 0x3A7 JUMPI DUP1 PUSH4 0x2706E94E GT PUSH2 0x376 JUMPI DUP1 PUSH4 0x2706E94E EQ PUSH2 0x79F JUMPI DUP1 PUSH4 0x28FCF4D3 EQ PUSH2 0x7D2 JUMPI DUP1 PUSH4 0x2B0475E1 EQ PUSH2 0x808 JUMPI DUP1 PUSH4 0x37AC6FE4 EQ PUSH2 0x83B JUMPI DUP1 PUSH4 0x3C035866 EQ PUSH2 0x8A7 JUMPI PUSH2 0x41A JUMP JUMPDEST DUP1 PUSH4 0x18A4DBCA EQ PUSH2 0x69F JUMPI DUP1 PUSH4 0x1CA19F19 EQ PUSH2 0x6DA JUMPI DUP1 PUSH4 0x1F7DBBF6 EQ PUSH2 0x739 JUMPI DUP1 PUSH4 0x245720EC EQ PUSH2 0x76C JUMPI PUSH2 0x41A JUMP JUMPDEST DUP1 PUSH4 0xFEB5D88 GT PUSH2 0x3EE JUMPI DUP1 PUSH4 0xFEB5D88 EQ PUSH2 0x538 JUMPI DUP1 PUSH4 0x10183A35 EQ PUSH2 0x587 JUMPI DUP1 PUSH4 0x11A92BD7 EQ PUSH2 0x5CE JUMPI DUP1 PUSH4 0x1635717C EQ PUSH2 0x607 JUMPI DUP1 PUSH4 0x174EC539 EQ PUSH2 0x66C JUMPI PUSH2 0x41A JUMP JUMPDEST DUP1 PUSH3 0x4646F6 EQ PUSH2 0x460 JUMPI DUP1 PUSH4 0x7CE32A5 EQ PUSH2 0x499 JUMPI DUP1 PUSH4 0x9AC2953 EQ PUSH2 0x4DE JUMPI DUP1 PUSH4 0xC7DE4E9 EQ PUSH2 0x523 JUMPI JUMPDEST PUSH2 0x423 CALLER PUSH2 0x151A JUMP JUMPDEST PUSH2 0x45E JUMPI PUSH1 0x40 MLOAD PUSH3 0x461BCD PUSH1 0xE5 SHL DUP2 MSTORE PUSH1 0x4 ADD DUP1 DUP1 PUSH1 0x20 ADD DUP3 DUP2 SUB DUP3 MSTORE PUSH1 0x36 DUP2 MSTORE PUSH1 0x20 ADD DUP1 PUSH2 0x5A78 PUSH1 0x36 SWAP2 CODECOPY PUSH1 0x40 ADD SWAP2 POP POP PUSH1 0x40 MLOAD DUP1 SWAP2 SUB SWAP1 REVERT JUMPDEST STOP JUMPDEST CALLVALUE DUP1 ISZERO PUSH2 0x46C JUMPI PUSH1 0x0 DUP1 REVERT JUMPDEST POP PUSH2 0x45E PUSH1 0x4 DUP1 CALLDATASIZE SUB PUSH1 0x40 DUP2 LT ISZERO PUSH2 0x483 JUMPI PUSH1 0x0 DUP1 REVERT JUMPDEST POP PUSH1 0x1 PUSH1 0x1 PUSH1 0xA0 SHL SUB DUP2 CALLDATALOAD AND SWAP1 PUSH1 0x20 ADD CALLDATALOAD PUSH2 0x1524 JUMP JUMPDEST CALLVALUE DUP1 ISZERO PUSH2 0x4A5 JUMPI PUSH1 0x0 DUP1 REVERT JUMPDEST POP PUSH2 0x4CC PUSH1 0x4 DUP1 CALLDATASIZE SUB PUSH1 0x20 DUP2 LT ISZERO PUSH2 0x4BC JUMPI PUSH1 0x0 DUP1 REVERT JUMPDEST POP CALLDATALOAD PUSH1 0x1 PUSH1 0x1 PUSH1 0xA0 SHL SUB AND PUSH2 0x15F8 JUMP JUMPDEST PUSH1 0x40 DUP1 MLOAD SWAP2 DUP3 MSTORE MLOAD SWAP1 DUP2 SWAP1 SUB PUSH1 0x20 ADD SWAP1 RETURN JUMPDEST CALLVALUE DUP1 ISZERO PUSH2 0x4EA JUMPI PUSH1 0x0 DUP1 REVERT JUMPDEST POP PUSH2 0x45E PUSH1 0x4 DUP1 CALLDATASIZE SUB PUSH1 0x80 DUP2 LT ISZERO PUSH2 0x501 JUMPI PUSH1 0x0 DUP1 REVERT JUMPDEST POP PUSH1 0x1 PUSH1 0x1 PUSH1 0xA0 SHL SUB DUP2 CALLDATALOAD AND SWAP1 PUSH1 0x20 DUP2 ADD CALLDATALOAD SWAP1 PUSH1 0x40 DUP2 ADD CALLDATALOAD SWAP1 PUSH1 0x60 ADD CALLDATALOAD PUSH2 0x1616 JUMP JUMPDEST CALLVALUE DUP1 ISZERO PUSH2 0x52F JUMPI PUSH1 0x0 DUP1 REVERT JUMPDEST POP PUSH2 0x4CC PUSH2 0x16E4 JUMP JUMPDEST CALLVALUE DUP1 ISZERO PUSH2 0x544 JUMPI PUSH1 0x0 DUP1 REVERT JUMPDEST POP PUSH2 0x56B PUSH1 0x4 DUP1 CALLDATASIZE SUB PUSH1 0x20 DUP2 LT ISZERO PUSH2 0x55B JUMPI PUSH1 0x0 DUP1 REVERT JUMPDEST POP CALLDATALOAD PUSH1 0x1 PUSH1 0x1 PUSH1 0xA0 SHL SUB AND PUSH2 0x16E9 JUMP JUMPDEST PUSH1 0x40 DUP1 MLOAD PUSH1 0x1 PUSH1 0x1 PUSH1 0xA0 SHL SUB SWAP1 SWAP3 AND DUP3 MSTORE MLOAD SWAP1 DUP2 SWAP1 SUB PUSH1 0x20 ADD SWAP1 RETURN JUMPDEST CALLVALUE DUP1 ISZERO PUSH2 0x593 JUMPI PUSH1 0x0 DUP1 REVERT JUMPDEST POP PUSH2 0x5BA PUSH1 0x4 DUP1 CALLDATASIZE SUB PUSH1 0x20 DUP2 LT ISZERO PUSH2 0x5AA JUMPI PUSH1 0x0 DUP1 REVERT JUMPDEST POP CALLDATALOAD PUSH1 0x1 PUSH1 0x1 PUSH1 0xA0 SHL SUB AND PUSH2 0x170A JUMP JUMPDEST PUSH1 0x40 DUP1 MLOAD SWAP2 ISZERO ISZERO DUP3 MSTORE MLOAD SWAP1 DUP2 SWAP1 SUB PUSH1 0x20 ADD SWAP1 RETURN JUMPDEST CALLVALUE DUP1 ISZERO PUSH2 0x5DA JUMPI PUSH1 0x0 DUP1 REVERT JUMPDEST POP PUSH2 0x45E PUSH1 0x4 DUP1 CALLDATASIZE SUB PUSH1 0x40 DUP2 LT ISZERO PUSH2 0x5F1 JUMPI PUSH1 0x0 DUP1 REVERT JUMPDEST POP PUSH1 0x1 PUSH1 0x1 PUSH1 0xA0 SHL SUB DUP2 CALLDATALOAD AND SWAP1 PUSH1 0x20 ADD CALLDATALOAD PUSH2 0x1731 JUMP JUMPDEST CALLVALUE DUP1 ISZERO PUSH2 0x613 JUMPI PUSH1 0x0 DUP1 REVERT JUMPDEST POP PUSH2 0x61C PUSH2 0x1805 JUMP JUMPDEST PUSH1 0x40 DUP1 MLOAD PUSH1 0x20 DUP1 DUP3 MSTORE DUP4 MLOAD DUP2 DUP4 ADD MSTORE DUP4 MLOAD SWAP2 SWAP3 DUP4 SWAP3 SWAP1 DUP4 ADD SWAP2 DUP6 DUP2 ADD SWAP2 MUL DUP1 DUP4 DUP4 PUSH1 0x0 JUMPDEST DUP4 DUP2 LT ISZERO PUSH2 0x658 JUMPI DUP2 DUP2 ADD MLOAD DUP4 DUP3 ADD MSTORE PUSH1 0x20 ADD PUSH2 0x640 JUMP JUMPDEST POP POP POP POP SWAP1 POP ADD SWAP3 POP POP POP PUSH1 0x40 MLOAD DUP1 SWAP2 SUB SWAP1 RETURN JUMPDEST CALLVALUE DUP1 ISZERO PUSH2 0x678 JUMPI PUSH1 0x0 DUP1 REVERT JUMPDEST POP PUSH2 0x45E PUSH1 0x4 DUP1 CALLDATASIZE SUB PUSH1 0x20 DUP2 LT ISZERO PUSH2 0x68F JUMPI PUSH1 0x0 DUP1 REVERT JUMPDEST POP CALLDATALOAD PUSH1 0x1 PUSH1 0x1 PUSH1 0xA0 SHL SUB AND PUSH2 0x1867 JUMP JUMPDEST CALLVALUE DUP1 ISZERO PUSH2 0x6AB JUMPI PUSH1 0x0 DUP1 REVERT JUMPDEST POP PUSH2 0x4CC PUSH1 0x4 DUP1 CALLDATASIZE SUB PUSH1 0x40 DUP2 LT ISZERO PUSH2 0x6C2 JUMPI PUSH1 0x0 DUP1 REVERT JUMPDEST POP PUSH1 0x1 PUSH1 0x1 PUSH1 0xA0 SHL SUB DUP2 CALLDATALOAD DUP2 AND SWAP2 PUSH1 0x20 ADD CALLDATALOAD AND PUSH2 0x1996 JUMP JUMPDEST CALLVALUE DUP1 ISZERO PUSH2 0x6E6 JUMPI PUSH1 0x0 DUP1 REVERT JUMPDEST POP PUSH2 0x715 PUSH1 0x4 DUP1 CALLDATASIZE SUB PUSH1 0x40 DUP2 LT ISZERO PUSH2 0x6FD JUMPI PUSH1 0x0 DUP1 REVERT JUMPDEST POP PUSH1 0x1 PUSH1 0x1 PUSH1 0xA0 SHL SUB DUP2 CALLDATALOAD DUP2 AND SWAP2 PUSH1 0x20 ADD CALLDATALOAD AND PUSH2 0x1A26 JUMP JUMPDEST PUSH1 0x40 MLOAD DUP1 DUP3 PUSH1 0x2 DUP2 GT ISZERO PUSH2 0x725 JUMPI INVALID JUMPDEST PUSH1 0xFF AND DUP2 MSTORE PUSH1 0x20 ADD SWAP2 POP POP PUSH1 0x40 MLOAD DUP1 SWAP2 SUB SWAP1 RETURN JUMPDEST CALLVALUE DUP1 ISZERO PUSH2 0x745 JUMPI PUSH1 0x0 DUP1 REVERT JUMPDEST POP PUSH2 0x45E PUSH1 0x4 DUP1 CALLDATASIZE SUB PUSH1 0x20 DUP2 LT ISZERO PUSH2 0x75C JUMPI PUSH1 0x0 DUP1 REVERT JUMPDEST POP CALLDATALOAD PUSH1 0x1 PUSH1 0x1 PUSH1 0xA0 SHL SUB AND PUSH2 0x1A7E JUMP JUMPDEST CALLVALUE DUP1 ISZERO PUSH2 0x778 JUMPI PUSH1 0x0 DUP1 REVERT JUMPDEST POP PUSH2 0x4CC PUSH1 0x4 DUP1 CALLDATASIZE SUB PUSH1 0x20 DUP2 LT ISZERO PUSH2 0x78F JUMPI PUSH1 0x0 DUP1 REVERT JUMPDEST POP CALLDATALOAD PUSH1 0x1 PUSH1 0x1 PUSH1 0xA0 SHL SUB AND PUSH2 0x1B5C JUMP JUMPDEST CALLVALUE DUP1 ISZERO PUSH2 0x7AB JUMPI PUSH1 0x0 DUP1 REVERT JUMPDEST POP PUSH2 0x5BA PUSH1 0x4 DUP1 CALLDATASIZE SUB PUSH1 0x20 DUP2 LT ISZERO PUSH2 0x7C2 JUMPI PUSH1 0x0 DUP1 REVERT JUMPDEST POP CALLDATALOAD PUSH1 0x1 PUSH1 0x1 PUSH1 0xA0 SHL SUB AND PUSH2 0x1B7D JUMP JUMPDEST PUSH2 0x45E PUSH1 0x4 DUP1 CALLDATASIZE SUB PUSH1 0x60 DUP2 LT ISZERO PUSH2 0x7E8 JUMPI PUSH1 0x0 DUP1 REVERT JUMPDEST POP PUSH1 0x1 PUSH1 0x1 PUSH1 0xA0 SHL SUB DUP2 CALLDATALOAD DUP2 AND SWAP2 PUSH1 0x20 DUP2 ADD CALLDATALOAD SWAP1 SWAP2 AND SWAP1 PUSH1 0x40 ADD CALLDATALOAD PUSH2 0x1B9E JUMP JUMPDEST CALLVALUE DUP1 ISZERO PUSH2 0x814 JUMPI PUSH1 0x0 DUP1 REVERT JUMPDEST POP PUSH2 0x4CC PUSH1 0x4 DUP1 CALLDATASIZE SUB PUSH1 0x20 DUP2 LT ISZERO PUSH2 0x82B JUMPI PUSH1 0x0 DUP1 REVERT JUMPDEST POP CALLDATALOAD PUSH1 0x1 PUSH1 0x1 PUSH1 0xA0 SHL SUB AND PUSH2 0x1D69 JUMP JUMPDEST CALLVALUE DUP1 ISZERO PUSH2 0x847 JUMPI PUSH1 0x0 DUP1 REVERT JUMPDEST POP PUSH2 0x88E PUSH1 0x4 DUP1 CALLDATASIZE SUB PUSH1 0xA0 DUP2 LT ISZERO PUSH2 0x85E JUMPI PUSH1 0x0 DUP1 REVERT JUMPDEST POP DUP1 CALLDATALOAD PUSH1 0x1 PUSH1 0x1 PUSH1 0xA0 SHL SUB SWAP1 DUP2 AND SWAP2 PUSH1 0x20 DUP2 ADD CALLDATALOAD SWAP1 SWAP2 AND SWAP1 PUSH1 0x40 DUP2 ADD CALLDATALOAD SWAP1 PUSH1 0x60 DUP2 ADD CALLDATALOAD SWAP1 PUSH1 0x80 ADD CALLDATALOAD PUSH1 0xFF AND PUSH2 0x1D91 JUMP JUMPDEST PUSH1 0x40 DUP1 MLOAD SWAP3 DUP4 MSTORE PUSH1 0x20 DUP4 ADD SWAP2 SWAP1 SWAP2 MSTORE DUP1 MLOAD SWAP2 DUP3 SWAP1 SUB ADD SWAP1 RETURN JUMPDEST CALLVALUE DUP1 ISZERO PUSH2 0x8B3 JUMPI PUSH1 0x0 DUP1 REVERT JUMPDEST POP PUSH2 0x4CC PUSH1 0x4 DUP1 CALLDATASIZE SUB PUSH1 0x20 DUP2 LT ISZERO PUSH2 0x8CA JUMPI PUSH1 0x0 DUP1 REVERT JUMPDEST POP CALLDATALOAD PUSH1 0x1 PUSH1 0x1 PUSH1 0xA0 SHL SUB AND PUSH2 0x1F24 JUMP JUMPDEST CALLVALUE DUP1 ISZERO PUSH2 0x8E6 JUMPI PUSH1 0x0 DUP1 REVERT JUMPDEST POP PUSH2 0x45E PUSH1 0x4 DUP1 CALLDATASIZE SUB PUSH1 0x60 DUP2 LT ISZERO PUSH2 0x8FD JUMPI PUSH1 0x0 DUP1 REVERT JUMPDEST POP PUSH1 0x1 PUSH1 0x1 PUSH1 0xA0 SHL SUB DUP2 CALLDATALOAD DUP2 AND SWAP2 PUSH1 0x20 DUP2 ADD CALLDATALOAD SWAP1 SWAP2 AND SWAP1 PUSH1 0x40 ADD CALLDATALOAD ISZERO ISZERO PUSH2 0x1F42 JUMP JUMPDEST CALLVALUE DUP1 ISZERO PUSH2 0x92B JUMPI PUSH1 0x0 DUP1 REVERT JUMPDEST POP PUSH2 0x4CC PUSH1 0x4 DUP1 CALLDATASIZE SUB PUSH1 0x20 DUP2 LT ISZERO PUSH2 0x942 JUMPI PUSH1 0x0 DUP1 REVERT JUMPDEST POP CALLDATALOAD PUSH1 0x1 PUSH1 0x1 PUSH1 0xA0 SHL SUB AND PUSH2 0x1FC4 JUMP JUMPDEST CALLVALUE DUP1 ISZERO PUSH2 0x95E JUMPI PUSH1 0x0 DUP1 REVERT JUMPDEST POP PUSH2 0x45E PUSH1 0x4 DUP1 CALLDATASIZE SUB PUSH1 0x40 DUP2 LT ISZERO PUSH2 0x975 JUMPI PUSH1 0x0 DUP1 REVERT JUMPDEST POP PUSH1 0x1 PUSH1 0x1 PUSH1 0xA0 SHL SUB DUP2 CALLDATALOAD DUP2 AND SWAP2 PUSH1 0x20 ADD CALLDATALOAD AND PUSH2 0x1FE2 JUMP JUMPDEST CALLVALUE DUP1 ISZERO PUSH2 0x999 JUMPI PUSH1 0x0 DUP1 REVERT JUMPDEST POP PUSH2 0x45E PUSH1 0x4 DUP1 CALLDATASIZE SUB PUSH1 0x20 DUP2 LT ISZERO PUSH2 0x9B0 JUMPI PUSH1 0x0 DUP1 REVERT JUMPDEST POP CALLDATALOAD PUSH1 0x1 PUSH1 0x1 PUSH1 0xA0 SHL SUB AND PUSH2 0x20C8 JUMP JUMPDEST CALLVALUE DUP1 ISZERO PUSH2 0x9CC JUMPI PUSH1 0x0 DUP1 REVERT JUMPDEST POP PUSH2 0x4CC PUSH1 0x4 DUP1 CALLDATASIZE SUB PUSH1 0x20 DUP2 LT ISZERO PUSH2 0x9E3 JUMPI PUSH1 0x0 DUP1 REVERT JUMPDEST POP CALLDATALOAD PUSH1 0x1 PUSH1 0x1 PUSH1 0xA0 SHL SUB AND PUSH2 0x21A1 JUMP JUMPDEST CALLVALUE DUP1 ISZERO PUSH2 0x9FF JUMPI PUSH1 0x0 DUP1 REVERT JUMPDEST POP PUSH2 0x4CC PUSH1 0x4 DUP1 CALLDATASIZE SUB PUSH1 0x20 DUP2 LT ISZERO PUSH2 0xA16 JUMPI PUSH1 0x0 DUP1 REVERT JUMPDEST POP CALLDATALOAD PUSH1 0x1 PUSH1 0x1 PUSH1 0xA0 SHL SUB AND PUSH2 0x2251 JUMP JUMPDEST CALLVALUE DUP1 ISZERO PUSH2 0xA32 JUMPI PUSH1 0x0 DUP1 REVERT JUMPDEST POP PUSH2 0x45E PUSH2 0x226F JUMP JUMPDEST CALLVALUE DUP1 ISZERO PUSH2 0xA47 JUMPI PUSH1 0x0 DUP1 REVERT JUMPDEST POP PUSH2 0x45E PUSH1 0x4 DUP1 CALLDATASIZE SUB PUSH1 0x20 DUP2 LT ISZERO PUSH2 0xA5E JUMPI PUSH1 0x0 DUP1 REVERT JUMPDEST POP CALLDATALOAD PUSH1 0x1 PUSH1 0x1 PUSH1 0xA0 SHL SUB AND PUSH2 0x232E JUMP JUMPDEST CALLVALUE DUP1 ISZERO PUSH2 0xA7A JUMPI PUSH1 0x0 DUP1 REVERT JUMPDEST POP PUSH2 0x45E PUSH1 0x4 DUP1 CALLDATASIZE SUB PUSH1 0x40 DUP2 LT ISZERO PUSH2 0xA91 JUMPI PUSH1 0x0 DUP1 REVERT JUMPDEST POP PUSH1 0x1 PUSH1 0x1 PUSH1 0xA0 SHL SUB DUP2 CALLDATALOAD AND SWAP1 PUSH1 0x20 ADD CALLDATALOAD PUSH2 0x2449 JUMP JUMPDEST CALLVALUE DUP1 ISZERO PUSH2 0xAB3 JUMPI PUSH1 0x0 DUP1 REVERT JUMPDEST POP PUSH2 0x4CC PUSH1 0x4 DUP1 CALLDATASIZE SUB PUSH1 0x40 DUP2 LT ISZERO PUSH2 0xACA JUMPI PUSH1 0x0 DUP1 REVERT JUMPDEST POP PUSH1 0x1 PUSH1 0x1 PUSH1 0xA0 SHL SUB DUP2 CALLDATALOAD DUP2 AND SWAP2 PUSH1 0x20 ADD CALLDATALOAD AND PUSH2 0x251D JUMP JUMPDEST CALLVALUE DUP1 ISZERO PUSH2 0xAEE JUMPI PUSH1 0x0 DUP1 REVERT JUMPDEST POP PUSH2 0x45E PUSH1 0x4 DUP1 CALLDATASIZE SUB PUSH1 0x20 DUP2 LT ISZERO PUSH2 0xB05 JUMPI PUSH1 0x0 DUP1 REVERT JUMPDEST POP CALLDATALOAD PUSH1 0x1 PUSH1 0x1 PUSH1 0xA0 SHL SUB AND PUSH2 0x2553 JUMP JUMPDEST CALLVALUE DUP1 ISZERO PUSH2 0xB21 JUMPI PUSH1 0x0 DUP1 REVERT JUMPDEST POP PUSH2 0x45E PUSH1 0x4 DUP1 CALLDATASIZE SUB PUSH2 0x120 DUP2 LT ISZERO PUSH2 0xB39 JUMPI PUSH1 0x0 DUP1 REVERT JUMPDEST POP PUSH1 0x1 PUSH1 0x1 PUSH1 0xA0 SHL SUB DUP2 CALLDATALOAD DUP2 AND SWAP2 PUSH1 0x20 DUP2 ADD CALLDATALOAD DUP3 AND SWAP2 PUSH1 0x40 DUP3 ADD CALLDATALOAD AND SWAP1 PUSH1 0x60 DUP2 ADD CALLDATALOAD SWAP1 PUSH1 0x80 DUP2 ADD CALLDATALOAD SWAP1 PUSH1 0xA0 DUP2 ADD CALLDATALOAD SWAP1 PUSH1 0xC0 DUP2 ADD CALLDATALOAD SWAP1 PUSH1 0xE0 DUP2 ADD CALLDATALOAD SWAP1 PUSH2 0x100 ADD CALLDATALOAD ISZERO ISZERO PUSH2 0x2630 JUMP JUMPDEST CALLVALUE DUP1 ISZERO PUSH2 0xB8C JUMPI PUSH1 0x0 DUP1 REVERT JUMPDEST POP PUSH2 0x4CC PUSH1 0x4 DUP1 CALLDATASIZE SUB PUSH1 0x40 DUP2 LT ISZERO PUSH2 0xBA3 JUMPI PUSH1 0x0 DUP1 REVERT JUMPDEST POP PUSH1 0x1 PUSH1 0x1 PUSH1 0xA0 SHL SUB DUP2 CALLDATALOAD DUP2 AND SWAP2 PUSH1 0x20 ADD CALLDATALOAD AND PUSH2 0x2839 JUMP JUMPDEST CALLVALUE DUP1 ISZERO PUSH2 0xBC7 JUMPI PUSH1 0x0 DUP1 REVERT JUMPDEST POP PUSH2 0x5BA PUSH1 0x4 DUP1 CALLDATASIZE SUB PUSH1 0x20 DUP2 LT ISZERO PUSH2 0xBDE JUMPI PUSH1 0x0 DUP1 REVERT JUMPDEST POP CALLDATALOAD PUSH1 0x1 PUSH1 0x1 PUSH1 0xA0 SHL SUB AND PUSH2 0x2868 JUMP JUMPDEST CALLVALUE DUP1 ISZERO PUSH2 0xBFA JUMPI PUSH1 0x0 DUP1 REVERT JUMPDEST POP PUSH2 0x4CC PUSH1 0x4 DUP1 CALLDATASIZE SUB PUSH1 0x20 DUP2 LT ISZERO PUSH2 0xC11 JUMPI PUSH1 0x0 DUP1 REVERT JUMPDEST POP CALLDATALOAD PUSH1 0x1 PUSH1 0x1 PUSH1 0xA0 SHL SUB AND PUSH2 0x2891 JUMP JUMPDEST CALLVALUE DUP1 ISZERO PUSH2 0xC2D JUMPI PUSH1 0x0 DUP1 REVERT JUMPDEST POP PUSH2 0x5BA PUSH1 0x4 DUP1 CALLDATASIZE SUB PUSH1 0x20 DUP2 LT ISZERO PUSH2 0xC44 JUMPI PUSH1 0x0 DUP1 REVERT JUMPDEST POP CALLDATALOAD PUSH1 0x1 PUSH1 0x1 PUSH1 0xA0 SHL SUB AND PUSH2 0x28CA JUMP JUMPDEST PUSH2 0x45E PUSH1 0x4 DUP1 CALLDATASIZE SUB PUSH1 0x60 DUP2 LT ISZERO PUSH2 0xC6A JUMPI PUSH1 0x0 DUP1 REVERT JUMPDEST POP PUSH1 0x1 PUSH1 0x1 PUSH1 0xA0 SHL SUB DUP2 CALLDATALOAD DUP2 AND SWAP2 PUSH1 0x20 DUP2 ADD CALLDATALOAD SWAP2 PUSH1 0x40 SWAP1 SWAP2 ADD CALLDATALOAD AND PUSH2 0x28F0 JUMP JUMPDEST CALLVALUE DUP1 ISZERO PUSH2 0xC96 JUMPI PUSH1 0x0 DUP1 REVERT JUMPDEST POP PUSH2 0x4CC PUSH1 0x4 DUP1 CALLDATASIZE SUB PUSH1 0x20 DUP2 LT ISZERO PUSH2 0xCAD JUMPI PUSH1 0x0 DUP1 REVERT JUMPDEST POP CALLDATALOAD PUSH1 0x1 PUSH1 0x1 PUSH1 0xA0 SHL SUB AND PUSH2 0x2A0C JUMP JUMPDEST CALLVALUE DUP1 ISZERO PUSH2 0xCC9 JUMPI PUSH1 0x0 DUP1 REVERT JUMPDEST POP PUSH2 0x4CC PUSH1 0x4 DUP1 CALLDATASIZE SUB PUSH1 0x20 DUP2 LT ISZERO PUSH2 0xCE0 JUMPI PUSH1 0x0 DUP1 REVERT JUMPDEST POP CALLDATALOAD PUSH1 0x1 PUSH1 0x1 PUSH1 0xA0 SHL SUB AND PUSH2 0x2A2A JUMP JUMPDEST CALLVALUE DUP1 ISZERO PUSH2 0xCFC JUMPI PUSH1 0x0 DUP1 REVERT JUMPDEST POP PUSH2 0xD2B PUSH1 0x4 DUP1 CALLDATASIZE SUB PUSH1 0x40 DUP2 LT ISZERO PUSH2 0xD13 JUMPI PUSH1 0x0 DUP1 REVERT JUMPDEST POP PUSH1 0x1 PUSH1 0x1 PUSH1 0xA0 SHL SUB DUP2 CALLDATALOAD DUP2 AND SWAP2 PUSH1 0x20 ADD CALLDATALOAD AND PUSH2 0x2ACE JUMP JUMPDEST PUSH1 0x40 DUP1 MLOAD SWAP4 DUP5 MSTORE PUSH1 0x20 DUP5 ADD SWAP3 SWAP1 SWAP3 MSTORE DUP3 DUP3 ADD MSTORE MLOAD SWAP1 DUP2 SWAP1 SUB PUSH1 0x60 ADD SWAP1 RETURN JUMPDEST CALLVALUE DUP1 ISZERO PUSH2 0xD55 JUMPI PUSH1 0x0 DUP1 REVERT JUMPDEST POP PUSH2 0x45E PUSH1 0x4 DUP1 CALLDATASIZE SUB PUSH1 0x20 DUP2 LT ISZERO PUSH2 0xD6C JUMPI PUSH1 0x0 DUP1 REVERT JUMPDEST POP CALLDATALOAD PUSH1 0x1 PUSH1 0x1 PUSH1 0xA0 SHL SUB AND PUSH2 0x2B5F JUMP JUMPDEST CALLVALUE DUP1 ISZERO PUSH2 0xD88 JUMPI PUSH1 0x0 DUP1 REVERT JUMPDEST POP PUSH2 0x56B PUSH1 0x4 DUP1 CALLDATASIZE SUB PUSH1 0x20 DUP2 LT ISZERO PUSH2 0xD9F JUMPI PUSH1 0x0 DUP1 REVERT JUMPDEST POP CALLDATALOAD PUSH1 0x1 PUSH1 0x1 PUSH1 0xA0 SHL SUB AND PUSH2 0x2C39 JUMP JUMPDEST CALLVALUE DUP1 ISZERO PUSH2 0xDBB JUMPI PUSH1 0x0 DUP1 REVERT JUMPDEST POP PUSH2 0x4CC PUSH1 0x4 DUP1 CALLDATASIZE SUB PUSH1 0x20 DUP2 LT ISZERO PUSH2 0xDD2 JUMPI PUSH1 0x0 DUP1 REVERT JUMPDEST POP CALLDATALOAD PUSH1 0x1 PUSH1 0x1 PUSH1 0xA0 SHL SUB AND PUSH2 0x2C57 JUMP JUMPDEST CALLVALUE DUP1 ISZERO PUSH2 0xDEE JUMPI PUSH1 0x0 DUP1 REVERT JUMPDEST POP PUSH2 0x4CC PUSH1 0x4 DUP1 CALLDATASIZE SUB PUSH1 0x60 DUP2 LT ISZERO PUSH2 0xE05 JUMPI PUSH1 0x0 DUP1 REVERT JUMPDEST POP PUSH1 0x1 PUSH1 0x1 PUSH1 0xA0 SHL SUB DUP2 CALLDATALOAD DUP2 AND SWAP2 PUSH1 0x20 DUP2 ADD CALLDATALOAD SWAP1 SWAP2 AND SWAP1 PUSH1 0x40 ADD CALLDATALOAD PUSH2 0x2D7F JUMP JUMPDEST CALLVALUE DUP1 ISZERO PUSH2 0xE31 JUMPI PUSH1 0x0 DUP1 REVERT JUMPDEST POP PUSH2 0x45E PUSH1 0x4 DUP1 CALLDATASIZE SUB PUSH1 0x80 DUP2 LT ISZERO PUSH2 0xE48 JUMPI PUSH1 0x0 DUP1 REVERT JUMPDEST POP PUSH1 0x1 PUSH1 0x1 PUSH1 0xA0 SHL SUB DUP2 CALLDATALOAD DUP2 AND SWAP2 PUSH1 0x20 DUP2 ADD CALLDATALOAD SWAP1 SWAP2 AND SWAP1 PUSH1 0x40 DUP2 ADD CALLDATALOAD SWAP1 PUSH1 0x60 ADD CALLDATALOAD ISZERO ISZERO PUSH2 0x2F0A JUMP JUMPDEST CALLVALUE DUP1 ISZERO PUSH2 0xE7C JUMPI PUSH1 0x0 DUP1 REVERT JUMPDEST POP PUSH2 0x45E PUSH1 0x4 DUP1 CALLDATASIZE SUB PUSH1 0x80 DUP2 LT ISZERO PUSH2 0xE93 JUMPI PUSH1 0x0 DUP1 REVERT JUMPDEST POP PUSH1 0x1 PUSH1 0x1 PUSH1 0xA0 SHL SUB DUP2 CALLDATALOAD DUP2 AND SWAP2 PUSH1 0x20 DUP2 ADD CALLDATALOAD SWAP1 SWAP2 AND SWAP1 PUSH1 0x40 DUP2 ADD CALLDATALOAD SWAP1 PUSH1 0x60 ADD CALLDATALOAD ISZERO ISZERO PUSH2 0x300D JUMP JUMPDEST CALLVALUE DUP1 ISZERO PUSH2 0xEC7 JUMPI PUSH1 0x0 DUP1 REVERT JUMPDEST POP PUSH2 0x45E PUSH1 0x4 DUP1 CALLDATASIZE SUB PUSH1 0x20 DUP2 LT ISZERO PUSH2 0xEDE JUMPI PUSH1 0x0 DUP1 REVERT JUMPDEST POP CALLDATALOAD PUSH1 0x1 PUSH1 0x1 PUSH1 0xA0 SHL SUB AND PUSH2 0x3110 JUMP JUMPDEST CALLVALUE DUP1 ISZERO PUSH2 0xEFA JUMPI PUSH1 0x0 DUP1 REVERT JUMPDEST POP PUSH2 0x4CC PUSH1 0x4 DUP1 CALLDATASIZE SUB PUSH1 0x20 DUP2 LT ISZERO PUSH2 0xF11 JUMPI PUSH1 0x0 DUP1 REVERT JUMPDEST POP CALLDATALOAD PUSH1 0x1 PUSH1 0x1 PUSH1 0xA0 SHL SUB AND PUSH2 0x31F4 JUMP JUMPDEST CALLVALUE DUP1 ISZERO PUSH2 0xF2D JUMPI PUSH1 0x0 DUP1 REVERT JUMPDEST POP PUSH2 0x45E PUSH1 0x4 DUP1 CALLDATASIZE SUB PUSH1 0x20 DUP2 LT ISZERO PUSH2 0xF44 JUMPI PUSH1 0x0 DUP1 REVERT JUMPDEST POP CALLDATALOAD PUSH1 0x1 PUSH1 0x1 PUSH1 0xA0 SHL SUB AND PUSH2 0x3212 JUMP JUMPDEST CALLVALUE DUP1 ISZERO PUSH2 0xF60 JUMPI PUSH1 0x0 DUP1 REVERT JUMPDEST POP PUSH2 0xF87 PUSH1 0x4 DUP1 CALLDATASIZE SUB PUSH1 0x20 DUP2 LT ISZERO PUSH2 0xF77 JUMPI PUSH1 0x0 DUP1 REVERT JUMPDEST POP CALLDATALOAD PUSH1 0x1 PUSH1 0x1 PUSH1 0xA0 SHL SUB AND PUSH2 0x32D1 JUMP JUMPDEST PUSH1 0x40 DUP1 MLOAD SWAP5 DUP6 MSTORE PUSH1 0x20 DUP6 ADD SWAP4 SWAP1 SWAP4 MSTORE DUP4 DUP4 ADD SWAP2 SWAP1 SWAP2 MSTORE ISZERO ISZERO PUSH1 0x60 DUP4 ADD MSTORE MLOAD SWAP1 DUP2 SWAP1 SUB PUSH1 0x80 ADD SWAP1 RETURN JUMPDEST CALLVALUE DUP1 ISZERO PUSH2 0xFBB JUMPI PUSH1 0x0 DUP1 REVERT JUMPDEST POP PUSH2 0x56B PUSH2 0x330F JUMP JUMPDEST PUSH2 0x45E PUSH1 0x4 DUP1 CALLDATASIZE SUB PUSH1 0x80 DUP2 LT ISZERO PUSH2 0xFDA JUMPI PUSH1 0x0 DUP1 REVERT JUMPDEST POP PUSH1 0x1 PUSH1 0x1 PUSH1 0xA0 SHL SUB DUP2 CALLDATALOAD DUP2 AND SWAP2 PUSH1 0x20 DUP2 ADD CALLDATALOAD DUP3 AND SWAP2 PUSH1 0x40 DUP3 ADD CALLDATALOAD SWAP2 PUSH1 0x60 ADD CALLDATALOAD AND PUSH2 0x331E JUMP JUMPDEST CALLVALUE DUP1 ISZERO PUSH2 0x100C JUMPI PUSH1 0x0 DUP1 REVERT JUMPDEST POP PUSH2 0x45E PUSH1 0x4 DUP1 CALLDATASIZE SUB PUSH1 0x40 DUP2 LT ISZERO PUSH2 0x1023 JUMPI PUSH1 0x0 DUP1 REVERT JUMPDEST POP PUSH1 0x1 PUSH1 0x1 PUSH1 0xA0 SHL SUB DUP2 CALLDATALOAD AND SWAP1 PUSH1 0x20 ADD CALLDATALOAD PUSH2 0x34D0 JUMP JUMPDEST CALLVALUE DUP1 ISZERO PUSH2 0x1045 JUMPI PUSH1 0x0 DUP1 REVERT JUMPDEST POP PUSH2 0x5BA PUSH1 0x4 DUP1 CALLDATASIZE SUB PUSH1 0x20 DUP2 LT ISZERO PUSH2 0x105C JUMPI PUSH1 0x0 DUP1 REVERT JUMPDEST POP CALLDATALOAD PUSH1 0x1 PUSH1 0x1 PUSH1 0xA0 SHL SUB AND PUSH2 0x35A4 JUMP JUMPDEST CALLVALUE DUP1 ISZERO PUSH2 0x1078 JUMPI PUSH1 0x0 DUP1 REVERT JUMPDEST POP PUSH2 0x4CC PUSH1 0x4 DUP1 CALLDATASIZE SUB PUSH1 0x20 DUP2 LT ISZERO PUSH2 0x108F JUMPI PUSH1 0x0 DUP1 REVERT JUMPDEST POP CALLDATALOAD PUSH1 0x1 PUSH1 0x1 PUSH1 0xA0 SHL SUB AND PUSH2 0x35CC JUMP JUMPDEST CALLVALUE DUP1 ISZERO PUSH2 0x10AB JUMPI PUSH1 0x0 DUP1 REVERT JUMPDEST POP PUSH2 0x56B PUSH2 0x3636 JUMP JUMPDEST CALLVALUE DUP1 ISZERO PUSH2 0x10C0 JUMPI PUSH1 0x0 DUP1 REVERT JUMPDEST POP PUSH2 0x56B PUSH2 0x3645 JUMP JUMPDEST CALLVALUE DUP1 ISZERO PUSH2 0x10D5 JUMPI PUSH1 0x0 DUP1 REVERT JUMPDEST POP PUSH2 0x45E PUSH1 0x4 DUP1 CALLDATASIZE SUB PUSH1 0xC0 DUP2 LT ISZERO PUSH2 0x10EC JUMPI PUSH1 0x0 DUP1 REVERT JUMPDEST POP PUSH1 0x1 PUSH1 0x1 PUSH1 0xA0 SHL SUB DUP2 CALLDATALOAD DUP2 AND SWAP2 PUSH1 0x20 DUP2 ADD CALLDATALOAD SWAP1 SWAP2 AND SWAP1 PUSH1 0x40 DUP2 ADD CALLDATALOAD SWAP1 PUSH1 0x60 DUP2 ADD CALLDATALOAD SWAP1 PUSH1 0x80 DUP2 ADD CALLDATALOAD SWAP1 PUSH1 0xA0 ADD CALLDATALOAD ISZERO ISZERO PUSH2 0x3654 JUMP JUMPDEST CALLVALUE DUP1 ISZERO PUSH2 0x112C JUMPI PUSH1 0x0 DUP1 REVERT JUMPDEST POP PUSH2 0x45E PUSH1 0x4 DUP1 CALLDATASIZE SUB PUSH1 0x20 DUP2 LT ISZERO PUSH2 0x1143 JUMPI PUSH1 0x0 DUP1 REVERT JUMPDEST POP CALLDATALOAD PUSH1 0x1 PUSH1 0x1 PUSH1 0xA0 SHL SUB AND PUSH2 0x37B7 JUMP JUMPDEST CALLVALUE DUP1 ISZERO PUSH2 0x115F JUMPI PUSH1 0x0 DUP1 REVERT JUMPDEST POP PUSH2 0x4CC PUSH1 0x4 DUP1 CALLDATASIZE SUB PUSH1 0x20 DUP2 LT ISZERO PUSH2 0x1176 JUMPI PUSH1 0x0 DUP1 REVERT JUMPDEST POP CALLDATALOAD PUSH1 0x1 PUSH1 0x1 PUSH1 0xA0 SHL SUB AND PUSH2 0x38E7 JUMP JUMPDEST CALLVALUE DUP1 ISZERO PUSH2 0x1192 JUMPI PUSH1 0x0 DUP1 REVERT JUMPDEST POP PUSH2 0x5BA PUSH1 0x4 DUP1 CALLDATASIZE SUB PUSH1 0x60 DUP2 LT ISZERO PUSH2 0x11A9 JUMPI PUSH1 0x0 DUP1 REVERT JUMPDEST POP PUSH1 0x1 PUSH1 0x1 PUSH1 0xA0 SHL SUB DUP2 CALLDATALOAD DUP2 AND SWAP2 PUSH1 0x20 DUP2 ADD CALLDATALOAD SWAP1 SWAP2 AND SWAP1 PUSH1 0x40 ADD CALLDATALOAD PUSH2 0x3905 JUMP JUMPDEST CALLVALUE DUP1 ISZERO PUSH2 0x11D5 JUMPI PUSH1 0x0 DUP1 REVERT JUMPDEST POP PUSH2 0x45E PUSH1 0x4 DUP1 CALLDATASIZE SUB PUSH1 0x80 DUP2 LT ISZERO PUSH2 0x11EC JUMPI PUSH1 0x0 DUP1 REVERT JUMPDEST POP PUSH1 0x1 PUSH1 0x1 PUSH1 0xA0 SHL SUB DUP2 CALLDATALOAD AND SWAP1 PUSH1 0x20 DUP2 ADD CALLDATALOAD SWAP1 PUSH1 0x40 DUP2 ADD CALLDATALOAD SWAP1 PUSH1 0x60 ADD CALLDATALOAD PUSH2 0x3992 JUMP JUMPDEST CALLVALUE DUP1 ISZERO PUSH2 0x121A JUMPI PUSH1 0x0 DUP1 REVERT JUMPDEST POP PUSH2 0x45E PUSH1 0x4 DUP1 CALLDATASIZE SUB PUSH1 0x20 DUP2 LT ISZERO PUSH2 0x1231 JUMPI PUSH1 0x0 DUP1 REVERT JUMPDEST POP CALLDATALOAD PUSH1 0x1 PUSH1 0x1 PUSH1 0xA0 SHL SUB AND PUSH2 0x3AE0 JUMP JUMPDEST CALLVALUE DUP1 ISZERO PUSH2 0x124D JUMPI PUSH1 0x0 DUP1 REVERT JUMPDEST POP PUSH2 0x45E PUSH1 0x4 DUP1 CALLDATASIZE SUB PUSH1 0x80 DUP2 LT ISZERO PUSH2 0x1264 JUMPI PUSH1 0x0 DUP1 REVERT JUMPDEST POP PUSH1 0x1 PUSH1 0x1 PUSH1 0xA0 SHL SUB DUP2 CALLDATALOAD DUP2 AND SWAP2 PUSH1 0x20 DUP2 ADD CALLDATALOAD DUP3 AND SWAP2 PUSH1 0x40 DUP3 ADD CALLDATALOAD SWAP2 PUSH1 0x60 ADD CALLDATALOAD AND PUSH2 0x3BFB JUMP JUMPDEST CALLVALUE DUP1 ISZERO PUSH2 0x1296 JUMPI PUSH1 0x0 DUP1 REVERT JUMPDEST POP PUSH2 0x5BA PUSH1 0x4 DUP1 CALLDATASIZE SUB PUSH1 0x40 DUP2 LT ISZERO PUSH2 0x12AD JUMPI PUSH1 0x0 DUP1 REVERT JUMPDEST POP PUSH1 0x1 PUSH1 0x1 PUSH1 0xA0 SHL SUB DUP2 CALLDATALOAD DUP2 AND SWAP2 PUSH1 0x20 ADD CALLDATALOAD AND PUSH2 0x3E14 JUMP JUMPDEST CALLVALUE DUP1 ISZERO PUSH2 0x12D1 JUMPI PUSH1 0x0 DUP1 REVERT JUMPDEST POP PUSH2 0x4CC PUSH1 0x4 DUP1 CALLDATASIZE SUB PUSH1 0x20 DUP2 LT ISZERO PUSH2 0x12E8 JUMPI PUSH1 0x0 DUP1 REVERT JUMPDEST POP CALLDATALOAD PUSH1 0x1 PUSH1 0x1 PUSH1 0xA0 SHL SUB AND PUSH2 0x3E43 JUMP JUMPDEST CALLVALUE DUP1 ISZERO PUSH2 0x1304 JUMPI PUSH1 0x0 DUP1 REVERT JUMPDEST POP PUSH2 0x1351 PUSH1 0x4 DUP1 CALLDATASIZE SUB PUSH1 0xC0 DUP2 LT ISZERO PUSH2 0x131B JUMPI PUSH1 0x0 DUP1 REVERT JUMPDEST POP DUP1 CALLDATALOAD PUSH1 0x1 PUSH1 0x1 PUSH1 0xA0 SHL SUB SWAP1 DUP2 AND SWAP2 PUSH1 0x20 DUP2 ADD CALLDATALOAD SWAP1 SWAP2 AND SWAP1 PUSH1 0x40 DUP2 ADD CALLDATALOAD SWAP1 PUSH1 0x60 DUP2 ADD CALLDATALOAD SWAP1 PUSH1 0x80 DUP2 ADD CALLDATALOAD SWAP1 PUSH1 0xA0 ADD CALLDATALOAD PUSH1 0xFF AND PUSH2 0x3E61 JUMP JUMPDEST PUSH1 0x40 MLOAD DUP1 DUP4 PUSH1 0x2 DUP2 GT ISZERO PUSH2 0x1361 JUMPI INVALID JUMPDEST PUSH1 0xFF AND DUP2 MSTORE PUSH1 0x20 ADD DUP3 DUP2 MSTORE PUSH1 0x20 ADD SWAP3 POP POP POP PUSH1 0x40 MLOAD DUP1 SWAP2 SUB SWAP1 RETURN JUMPDEST CALLVALUE DUP1 ISZERO PUSH2 0x1388 JUMPI PUSH1 0x0 DUP1 REVERT JUMPDEST POP PUSH2 0x4CC PUSH1 0x4 DUP1 CALLDATASIZE SUB PUSH1 0x40 DUP2 LT ISZERO PUSH2 0x139F JUMPI PUSH1 0x0 DUP1 REVERT JUMPDEST POP PUSH1 0x1 PUSH1 0x1 PUSH1 0xA0 SHL SUB DUP2 CALLDATALOAD DUP2 AND SWAP2 PUSH1 0x20 ADD CALLDATALOAD AND PUSH2 0x3FDF JUMP JUMPDEST CALLVALUE DUP1 ISZERO PUSH2 0x13C3 JUMPI PUSH1 0x0 DUP1 REVERT JUMPDEST POP PUSH2 0x45E PUSH1 0x4 DUP1 CALLDATASIZE SUB PUSH1 0x60 DUP2 LT ISZERO PUSH2 0x13DA JUMPI PUSH1 0x0 DUP1 REVERT JUMPDEST POP PUSH1 0x1 PUSH1 0x1 PUSH1 0xA0 SHL SUB DUP2 CALLDATALOAD DUP2 AND SWAP2 PUSH1 0x20 DUP2 ADD CALLDATALOAD SWAP1 SWAP2 AND SWAP1 PUSH1 0x40 ADD CALLDATALOAD PUSH2 0x400E JUMP JUMPDEST CALLVALUE DUP1 ISZERO PUSH2 0x1406 JUMPI PUSH1 0x0 DUP1 REVERT JUMPDEST POP PUSH2 0x4CC PUSH1 0x4 DUP1 CALLDATASIZE SUB PUSH1 0x20 DUP2 LT ISZERO PUSH2 0x141D JUMPI PUSH1 0x0 DUP1 REVERT JUMPDEST POP CALLDATALOAD PUSH1 0x1 PUSH1 0x1 PUSH1 0xA0 SHL SUB AND PUSH2 0x4135 JUMP JUMPDEST CALLVALUE DUP1 ISZERO PUSH2 0x1439 JUMPI PUSH1 0x0 DUP1 REVERT JUMPDEST POP PUSH2 0xF87 PUSH1 0x4 DUP1 CALLDATASIZE SUB PUSH1 0x40 DUP2 LT ISZERO PUSH2 0x1450 JUMPI PUSH1 0x0 DUP1 REVERT JUMPDEST POP PUSH1 0x1 PUSH1 0x1 PUSH1 0xA0 SHL SUB DUP2 CALLDATALOAD DUP2 AND SWAP2 PUSH1 0x20 ADD CALLDATALOAD AND PUSH2 0x4153 JUMP JUMPDEST CALLVALUE DUP1 ISZERO PUSH2 0x1474 JUMPI PUSH1 0x0 DUP1 REVERT JUMPDEST POP PUSH2 0x4CC PUSH1 0x4 DUP1 CALLDATASIZE SUB PUSH1 0x40 DUP2 LT ISZERO PUSH2 0x148B JUMPI PUSH1 0x0 DUP1 REVERT JUMPDEST POP PUSH1 0x1 PUSH1 0x1 PUSH1 0xA0 SHL SUB DUP2 CALLDATALOAD DUP2 AND SWAP2 PUSH1 0x20 ADD CALLDATALOAD AND PUSH2 0x41EF JUMP JUMPDEST CALLVALUE DUP1 ISZERO PUSH2 0x14AF JUMPI PUSH1 0x0 DUP1 REVERT JUMPDEST POP PUSH2 0x56B PUSH1 0x4 DUP1 CALLDATASIZE SUB PUSH1 0x20 DUP2 LT ISZERO PUSH2 0x14C6 JUMPI PUSH1 0x0 DUP1 REVERT JUMPDEST POP CALLDATALOAD PUSH2 0x421E JUMP JUMPDEST CALLVALUE DUP1 ISZERO PUSH2 0x14D9 JUMPI PUSH1 0x0 DUP1 REVERT JUMPDEST POP PUSH2 0x1500 PUSH1 0x4 DUP1 CALLDATASIZE SUB PUSH1 0x20 DUP2 LT ISZERO PUSH2 0x14F0 JUMPI PUSH1 0x0 DUP1 REVERT JUMPDEST POP CALLDATALOAD PUSH1 0x1 PUSH1 0x1 PUSH1 0xA0 SHL SUB AND PUSH2 0x4245 JUMP JUMPDEST PUSH1 0x40 DUP1 MLOAD PUSH5 0xFFFFFFFFFF SWAP1 SWAP3 AND DUP3 MSTORE MLOAD SWAP1 DUP2 SWAP1 SUB PUSH1 0x20 ADD SWAP1 RETURN JUMPDEST DUP1 EXTCODESIZE ISZERO ISZERO JUMPDEST SWAP2 SWAP1 POP JUMP JUMPDEST PUSH1 0x34 SLOAD PUSH1 0x40 DUP1 MLOAD PUSH4 0x85C858B1 PUSH1 0xE0 SHL DUP2 MSTORE SWAP1 MLOAD CALLER SWAP3 PUSH1 0x1 PUSH1 0x1 PUSH1 0xA0 SHL SUB AND SWAP2 PUSH4 0x85C858B1 SWAP2 PUSH1 0x4 DUP1 DUP4 ADD SWAP3 PUSH1 0x20 SWAP3 SWAP2 SWAP1 DUP3 SWAP1 SUB ADD DUP2 DUP7 DUP1 EXTCODESIZE ISZERO DUP1 ISZERO PUSH2 0x1568 JUMPI PUSH1 0x0 DUP1 REVERT JUMPDEST POP GAS STATICCALL ISZERO DUP1 ISZERO PUSH2 0x157C JUMPI RETURNDATASIZE PUSH1 0x0 DUP1 RETURNDATACOPY RETURNDATASIZE PUSH1 0x0 REVERT JUMPDEST POP POP POP POP PUSH1 0x40 MLOAD RETURNDATASIZE PUSH1 0x20 DUP2 LT ISZERO PUSH2 0x1592 JUMPI PUSH1 0x0 DUP1 REVERT JUMPDEST POP MLOAD PUSH1 0x1 PUSH1 0x1 PUSH1 0xA0 SHL SUB AND EQ PUSH2 0x15D9 JUMPI PUSH1 0x40 MLOAD PUSH3 0x461BCD PUSH1 0xE5 SHL DUP2 MSTORE PUSH1 0x4 ADD DUP1 DUP1 PUSH1 0x20 ADD DUP3 DUP2 SUB DUP3 MSTORE PUSH1 0x38 DUP2 MSTORE PUSH1 0x20 ADD DUP1 PUSH2 0x5CAA PUSH1 0x38 SWAP2 CODECOPY PUSH1 0x40 ADD SWAP2 POP POP PUSH1 0x40 MLOAD DUP1 SWAP2 SUB SWAP1 REVERT JUMPDEST PUSH1 0x1 PUSH1 0x1 PUSH1 0xA0 SHL SUB SWAP1 SWAP2 AND PUSH1 0x0 SWAP1 DUP2 MSTORE PUSH1 0x38 PUSH1 0x20 MSTORE PUSH1 0x40 SWAP1 KECCAK256 PUSH1 0xC ADD SSTORE JUMP JUMPDEST PUSH1 0x1 PUSH1 0x1 PUSH1 0xA0 SHL SUB AND PUSH1 0x0 SWAP1 DUP2 MSTORE PUSH1 0x38 PUSH1 0x20 MSTORE PUSH1 0x40 SWAP1 KECCAK256 PUSH1 0xA ADD SLOAD SWAP1 JUMP JUMPDEST PUSH1 0x35 SLOAD PUSH1 0x1 PUSH1 0x1 PUSH1 0xA0 SHL SUB AND CALLER EQ PUSH2 0x165F JUMPI PUSH1 0x40 MLOAD PUSH3 0x461BCD PUSH1 0xE5 SHL DUP2 MSTORE PUSH1 0x4 ADD DUP1 DUP1 PUSH1 0x20 ADD DUP3 DUP2 SUB DUP3 MSTORE PUSH1 0x2A DUP2 MSTORE PUSH1 0x20 ADD DUP1 PUSH2 0x5BD8 PUSH1 0x2A SWAP2 CODECOPY PUSH1 0x40 ADD SWAP2 POP POP PUSH1 0x40 MLOAD DUP1 SWAP2 SUB SWAP1 REVERT JUMPDEST PUSH2 0x1669 DUP5 DUP3 PUSH2 0x426A JUMP JUMPDEST PUSH1 0x1 PUSH1 0x1 PUSH1 0xA0 SHL SUB DUP5 AND PUSH1 0x0 SWAP1 DUP2 MSTORE PUSH1 0x38 PUSH1 0x20 MSTORE PUSH1 0x40 SWAP1 KECCAK256 PUSH2 0x168A SWAP1 PUSH2 0x434D JUMP JUMPDEST PUSH1 0x0 PUSH2 0x16A5 PUSH2 0x1698 DUP7 PUSH2 0x1B5C JUMP JUMPDEST DUP6 SWAP1 PUSH4 0xFFFFFFFF PUSH2 0x43DD AND JUMP JUMPDEST PUSH1 0x1 PUSH1 0x1 PUSH1 0xA0 SHL SUB DUP7 AND PUSH1 0x0 SWAP1 DUP2 MSTORE PUSH1 0x38 PUSH1 0x20 MSTORE PUSH1 0x40 SWAP1 KECCAK256 SWAP1 SWAP2 POP PUSH2 0x16D1 SWAP1 DUP3 DUP6 PUSH4 0xFFFFFFFF PUSH2 0x4437 AND JUMP JUMPDEST PUSH2 0x16DD DUP6 DUP5 PUSH1 0x0 PUSH2 0x449E JUMP JUMPDEST POP POP POP POP POP JUMP JUMPDEST PUSH1 0x3 DUP2 JUMP JUMPDEST PUSH1 0x1 PUSH1 0x1 PUSH1 0xA0 SHL SUB SWAP1 DUP2 AND PUSH1 0x0 SWAP1 DUP2 MSTORE PUSH1 0x38 PUSH1 0x20 MSTORE PUSH1 0x40 SWAP1 KECCAK256 PUSH1 0x1 ADD SLOAD AND SWAP1 JUMP JUMPDEST PUSH1 0x1 PUSH1 0x1 PUSH1 0xA0 SHL SUB AND PUSH1 0x0 SWAP1 DUP2 MSTORE PUSH1 0x38 PUSH1 0x20 MSTORE PUSH1 0x40 SWAP1 KECCAK256 PUSH1 0x3 ADD SLOAD PUSH3 0x10000 SWAP1 DIV PUSH1 0xFF AND SWAP1 JUMP JUMPDEST PUSH1 0x34 SLOAD PUSH1 0x40 DUP1 MLOAD PUSH4 0x85C858B1 PUSH1 0xE0 SHL DUP2 MSTORE SWAP1 MLOAD CALLER SWAP3 PUSH1 0x1 PUSH1 0x1 PUSH1 0xA0 SHL SUB AND SWAP2 PUSH4 0x85C858B1 SWAP2 PUSH1 0x4 DUP1 DUP4 ADD SWAP3 PUSH1 0x20 SWAP3 SWAP2 SWAP1 DUP3 SWAP1 SUB ADD DUP2 DUP7 DUP1 EXTCODESIZE ISZERO DUP1 ISZERO PUSH2 0x1775 JUMPI PUSH1 0x0 DUP1 REVERT JUMPDEST POP GAS STATICCALL ISZERO DUP1 ISZERO PUSH2 0x1789 JUMPI RETURNDATASIZE PUSH1 0x0 DUP1 RETURNDATACOPY RETURNDATASIZE PUSH1 0x0 REVERT JUMPDEST POP POP POP POP PUSH1 0x40 MLOAD RETURNDATASIZE PUSH1 0x20 DUP2 LT ISZERO PUSH2 0x179F JUMPI PUSH1 0x0 DUP1 REVERT JUMPDEST POP MLOAD PUSH1 0x1 PUSH1 0x1 PUSH1 0xA0 SHL SUB AND EQ PUSH2 0x17E6 JUMPI PUSH1 0x40 MLOAD PUSH3 0x461BCD PUSH1 0xE5 SHL DUP2 MSTORE PUSH1 0x4 ADD DUP1 DUP1 PUSH1 0x20 ADD DUP3 DUP2 SUB DUP3 MSTORE PUSH1 0x38 DUP2 MSTORE PUSH1 0x20 ADD DUP1 PUSH2 0x5CAA PUSH1 0x38 SWAP2 CODECOPY PUSH1 0x40 ADD SWAP2 POP POP PUSH1 0x40 MLOAD DUP1 SWAP2 SUB SWAP1 REVERT JUMPDEST PUSH1 0x1 PUSH1 0x1 PUSH1 0xA0 SHL SUB SWAP1 SWAP2 AND PUSH1 0x0 SWAP1 DUP2 MSTORE PUSH1 0x38 PUSH1 0x20 MSTORE PUSH1 0x40 SWAP1 KECCAK256 PUSH1 0xD ADD SSTORE JUMP JUMPDEST PUSH1 0x60 PUSH1 0x37 DUP1 SLOAD DUP1 PUSH1 0x20 MUL PUSH1 0x20 ADD PUSH1 0x40 MLOAD SWAP1 DUP2 ADD PUSH1 0x40 MSTORE DUP1 SWAP3 SWAP2 SWAP1 DUP2 DUP2 MSTORE PUSH1 0x20 ADD DUP3 DUP1 SLOAD DUP1 ISZERO PUSH2 0x185D JUMPI PUSH1 0x20 MUL DUP3 ADD SWAP2 SWAP1 PUSH1 0x0 MSTORE PUSH1 0x20 PUSH1 0x0 KECCAK256 SWAP1 JUMPDEST DUP2 SLOAD PUSH1 0x1 PUSH1 0x1 PUSH1 0xA0 SHL SUB AND DUP2 MSTORE PUSH1 0x1 SWAP1 SWAP2 ADD SWAP1 PUSH1 0x20 ADD DUP1 DUP4 GT PUSH2 0x183F JUMPI JUMPDEST POP POP POP POP POP SWAP1 POP SWAP1 JUMP JUMPDEST PUSH1 0x34 SLOAD PUSH1 0x40 DUP1 MLOAD PUSH4 0x85C858B1 PUSH1 0xE0 SHL DUP2 MSTORE SWAP1 MLOAD CALLER SWAP3 PUSH1 0x1 PUSH1 0x1 PUSH1 0xA0 SHL SUB AND SWAP2 PUSH4 0x85C858B1 SWAP2 PUSH1 0x4 DUP1 DUP4 ADD SWAP3 PUSH1 0x20 SWAP3 SWAP2 SWAP1 DUP3 SWAP1 SUB ADD DUP2 DUP7 DUP1 EXTCODESIZE ISZERO DUP1 ISZERO PUSH2 0x18AB JUMPI PUSH1 0x0 DUP1 REVERT JUMPDEST POP GAS STATICCALL ISZERO DUP1 ISZERO PUSH2 0x18BF JUMPI RETURNDATASIZE PUSH1 0x0 DUP1 RETURNDATACOPY RETURNDATASIZE PUSH1 0x0 REVERT JUMPDEST POP POP POP POP PUSH1 0x40 MLOAD RETURNDATASIZE PUSH1 0x20 DUP2 LT ISZERO PUSH2 0x18D5 JUMPI PUSH1 0x0 DUP1 REVERT JUMPDEST POP MLOAD PUSH1 0x1 PUSH1 0x1 PUSH1 0xA0 SHL SUB AND EQ PUSH2 0x191C JUMPI PUSH1 0x40 MLOAD PUSH3 0x461BCD PUSH1 0xE5 SHL DUP2 MSTORE PUSH1 0x4 ADD DUP1 DUP1 PUSH1 0x20 ADD DUP3 DUP2 SUB DUP3 MSTORE PUSH1 0x38 DUP2 MSTORE PUSH1 0x20 ADD DUP1 PUSH2 0x5CAA PUSH1 0x38 SWAP2 CODECOPY PUSH1 0x40 ADD SWAP2 POP POP PUSH1 0x40 MLOAD DUP1 SWAP2 SUB SWAP1 REVERT JUMPDEST PUSH1 0x1 PUSH1 0x1 PUSH1 0xA0 SHL SUB DUP2 AND PUSH1 0x0 SWAP1 DUP2 MSTORE PUSH1 0x38 PUSH1 0x20 MSTORE PUSH1 0x40 DUP1 DUP3 KECCAK256 DUP2 MLOAD PUSH4 0xEA746E5 PUSH1 0xE4 SHL DUP2 MSTORE PUSH1 0x4 DUP2 ADD SWAP2 SWAP1 SWAP2 MSTORE SWAP1 MLOAD PUSH20 0x0 SWAP3 PUSH4 0xEA746E50 SWAP3 PUSH1 0x24 DUP1 DUP3 ADD SWAP4 SWAP2 DUP3 SWAP1 SUB ADD DUP2 DUP7 DUP1 EXTCODESIZE ISZERO DUP1 ISZERO PUSH2 0x1982 JUMPI PUSH1 0x0 DUP1 REVERT JUMPDEST POP GAS DELEGATECALL ISZERO DUP1 ISZERO PUSH2 0x16DD JUMPI RETURNDATASIZE PUSH1 0x0 DUP1 RETURNDATACOPY RETURNDATASIZE PUSH1 0x0 REVERT JUMPDEST PUSH1 0x1 PUSH1 0x1 PUSH1 0xA0 SHL SUB DUP1 DUP4 AND PUSH1 0x0 SWAP1 DUP2 MSTORE PUSH1 0x38 PUSH1 0x20 SWAP1 DUP2 MSTORE PUSH1 0x40 DUP1 DUP4 KECCAK256 SLOAD DUP2 MLOAD PUSH4 0x70A08231 PUSH1 0xE0 SHL DUP2 MSTORE DUP7 DUP7 AND PUSH1 0x4 DUP3 ADD MSTORE SWAP2 MLOAD SWAP4 SWAP5 AND SWAP3 DUP4 SWAP3 PUSH4 0x70A08231 SWAP3 PUSH1 0x24 DUP1 DUP3 ADD SWAP4 SWAP2 DUP3 SWAP1 SUB ADD DUP2 DUP7 DUP1 EXTCODESIZE ISZERO DUP1 ISZERO PUSH2 0x19F0 JUMPI PUSH1 0x0 DUP1 REVERT JUMPDEST POP GAS STATICCALL ISZERO DUP1 ISZERO PUSH2 0x1A04 JUMPI RETURNDATASIZE PUSH1 0x0 DUP1 RETURNDATACOPY RETURNDATASIZE PUSH1 0x0 REVERT JUMPDEST POP POP POP POP PUSH1 0x40 MLOAD RETURNDATASIZE PUSH1 0x20 DUP2 LT ISZERO PUSH2 0x1A1A JUMPI PUSH1 0x0 DUP1 REVERT JUMPDEST POP MLOAD SWAP2 POP POP JUMPDEST SWAP3 SWAP2 POP POP JUMP JUMPDEST PUSH1 0x1 PUSH1 0x1 PUSH1 0xA0 SHL SUB DUP1 DUP3 AND PUSH1 0x0 SWAP1 DUP2 MSTORE PUSH1 0x39 PUSH1 0x20 SWAP1 DUP2 MSTORE PUSH1 0x40 DUP1 DUP4 KECCAK256 SWAP4 DUP7 AND DUP4 MSTORE SWAP3 SWAP1 MSTORE SWAP1 DUP2 KECCAK256 PUSH1 0x1 DUP2 ADD SLOAD PUSH2 0x1A60 JUMPI PUSH1 0x0 SWAP2 POP POP PUSH2 0x1A20 JUMP JUMPDEST PUSH1 0x0 DUP2 PUSH1 0x2 ADD SLOAD GT PUSH2 0x1A73 JUMPI PUSH1 0x2 PUSH2 0x1A76 JUMP JUMPDEST PUSH1 0x1 JUMPDEST SWAP5 SWAP4 POP POP POP POP JUMP JUMPDEST PUSH1 0x34 SLOAD PUSH1 0x40 DUP1 MLOAD PUSH4 0x85C858B1 PUSH1 0xE0 SHL DUP2 MSTORE SWAP1 MLOAD CALLER SWAP3 PUSH1 0x1 PUSH1 0x1 PUSH1 0xA0 SHL SUB AND SWAP2 PUSH4 0x85C858B1 SWAP2 PUSH1 0x4 DUP1 DUP4 ADD SWAP3 PUSH1 0x20 SWAP3 SWAP2 SWAP1 DUP3 SWAP1 SUB ADD DUP2 DUP7 DUP1 EXTCODESIZE ISZERO DUP1 ISZERO PUSH2 0x1AC2 JUMPI PUSH1 0x0 DUP1 REVERT JUMPDEST POP GAS STATICCALL ISZERO DUP1 ISZERO PUSH2 0x1AD6 JUMPI RETURNDATASIZE PUSH1 0x0 DUP1 RETURNDATACOPY RETURNDATASIZE PUSH1 0x0 REVERT JUMPDEST POP POP POP POP PUSH1 0x40 MLOAD RETURNDATASIZE PUSH1 0x20 DUP2 LT ISZERO PUSH2 0x1AEC JUMPI PUSH1 0x0 DUP1 REVERT JUMPDEST POP MLOAD PUSH1 0x1 PUSH1 0x1 PUSH1 0xA0 SHL SUB AND EQ PUSH2 0x1B33 JUMPI PUSH1 0x40 MLOAD PUSH3 0x461BCD PUSH1 0xE5 SHL DUP2 MSTORE PUSH1 0x4 ADD DUP1 DUP1 PUSH1 0x20 ADD DUP3 DUP2 SUB DUP3 MSTORE PUSH1 0x38 DUP2 MSTORE PUSH1 0x20 ADD DUP1 PUSH2 0x5CAA PUSH1 0x38 SWAP2 CODECOPY PUSH1 0x40 ADD SWAP2 POP POP PUSH1 0x40 MLOAD DUP1 SWAP2 SUB SWAP1 REVERT JUMPDEST PUSH1 0x1 PUSH1 0x1 PUSH1 0xA0 SHL SUB AND PUSH1 0x0 SWAP1 DUP2 MSTORE PUSH1 0x38 PUSH1 0x20 MSTORE PUSH1 0x40 SWAP1 KECCAK256 PUSH1 0x3 ADD DUP1 SLOAD PUSH2 0xFF00 NOT AND PUSH2 0x100 OR SWAP1 SSTORE JUMP JUMPDEST PUSH1 0x1 PUSH1 0x1 PUSH1 0xA0 SHL SUB DUP2 AND PUSH1 0x0 SWAP1 DUP2 MSTORE PUSH1 0x38 PUSH1 0x20 MSTORE PUSH1 0x40 DUP2 KECCAK256 PUSH2 0x1A20 SWAP1 PUSH2 0x4631 JUMP JUMPDEST PUSH1 0x1 PUSH1 0x1 PUSH1 0xA0 SHL SUB AND PUSH1 0x0 SWAP1 DUP2 MSTORE PUSH1 0x38 PUSH1 0x20 MSTORE PUSH1 0x40 SWAP1 KECCAK256 PUSH1 0x3 ADD SLOAD PUSH1 0xFF AND SWAP1 JUMP JUMPDEST PUSH1 0x35 SLOAD PUSH1 0x1 PUSH1 0x1 PUSH1 0xA0 SHL SUB AND CALLER EQ PUSH2 0x1BE7 JUMPI PUSH1 0x40 MLOAD PUSH3 0x461BCD PUSH1 0xE5 SHL DUP2 MSTORE PUSH1 0x4 ADD DUP1 DUP1 PUSH1 0x20 ADD DUP3 DUP2 SUB DUP3 MSTORE PUSH1 0x2A DUP2 MSTORE PUSH1 0x20 ADD DUP1 PUSH2 0x5BD8 PUSH1 0x2A SWAP2 CODECOPY PUSH1 0x40 ADD SWAP2 POP POP PUSH1 0x40 MLOAD DUP1 SWAP2 SUB SWAP1 REVERT JUMPDEST PUSH2 0x1BEF PUSH2 0x464E JUMP JUMPDEST PUSH1 0x1 PUSH1 0x1 PUSH1 0xA0 SHL SUB AND DUP4 PUSH1 0x1 PUSH1 0x1 PUSH1 0xA0 SHL SUB AND EQ PUSH2 0x1C64 JUMPI CALLVALUE ISZERO PUSH2 0x1C44 JUMPI PUSH1 0x40 MLOAD PUSH3 0x461BCD PUSH1 0xE5 SHL DUP2 MSTORE PUSH1 0x4 ADD DUP1 DUP1 PUSH1 0x20 ADD DUP3 DUP2 SUB DUP3 MSTORE PUSH1 0x32 DUP2 MSTORE PUSH1 0x20 ADD DUP1 PUSH2 0x5AD1 PUSH1 0x32 SWAP2 CODECOPY PUSH1 0x40 ADD SWAP2 POP POP PUSH1 0x40 MLOAD DUP1 SWAP2 SUB SWAP1 REVERT JUMPDEST PUSH2 0x1C5F PUSH1 0x1 PUSH1 0x1 PUSH1 0xA0 SHL SUB DUP5 AND DUP4 ADDRESS DUP5 PUSH4 0xFFFFFFFF PUSH2 0x4666 AND JUMP JUMPDEST PUSH2 0x1D64 JUMP JUMPDEST DUP1 CALLVALUE LT ISZERO PUSH2 0x1CA3 JUMPI PUSH1 0x40 MLOAD PUSH3 0x461BCD PUSH1 0xE5 SHL DUP2 MSTORE PUSH1 0x4 ADD DUP1 DUP1 PUSH1 0x20 ADD DUP3 DUP2 SUB DUP3 MSTORE PUSH1 0x35 DUP2 MSTORE PUSH1 0x20 ADD DUP1 PUSH2 0x5A43 PUSH1 0x35 SWAP2 CODECOPY PUSH1 0x40 ADD SWAP2 POP POP PUSH1 0x40 MLOAD DUP1 SWAP2 SUB SWAP1 REVERT JUMPDEST DUP1 CALLVALUE GT ISZERO PUSH2 0x1D64 JUMPI PUSH1 0x0 PUSH2 0x1CBD CALLVALUE DUP4 PUSH4 0xFFFFFFFF PUSH2 0x46C0 AND JUMP JUMPDEST PUSH1 0x40 MLOAD SWAP1 SWAP2 POP PUSH1 0x0 SWAP1 PUSH1 0x1 PUSH1 0x1 PUSH1 0xA0 SHL SUB DUP6 AND SWAP1 PUSH2 0xC350 SWAP1 DUP5 SWAP1 DUP5 DUP2 DUP2 DUP2 DUP6 DUP9 DUP9 CALL SWAP4 POP POP POP POP RETURNDATASIZE DUP1 PUSH1 0x0 DUP2 EQ PUSH2 0x1D10 JUMPI PUSH1 0x40 MLOAD SWAP2 POP PUSH1 0x1F NOT PUSH1 0x3F RETURNDATASIZE ADD AND DUP3 ADD PUSH1 0x40 MSTORE RETURNDATASIZE DUP3 MSTORE RETURNDATASIZE PUSH1 0x0 PUSH1 0x20 DUP5 ADD RETURNDATACOPY PUSH2 0x1D15 JUMP JUMPDEST PUSH1 0x60 SWAP2 POP JUMPDEST POP POP SWAP1 POP DUP1 PUSH2 0x16DD JUMPI PUSH1 0x40 DUP1 MLOAD PUSH3 0x461BCD PUSH1 0xE5 SHL DUP2 MSTORE PUSH1 0x20 PUSH1 0x4 DUP3 ADD MSTORE PUSH1 0x16 PUSH1 0x24 DUP3 ADD MSTORE PUSH22 0x151C985B9CD9995C881BD9881155120819985A5B1959 PUSH1 0x52 SHL PUSH1 0x44 DUP3 ADD MSTORE SWAP1 MLOAD SWAP1 DUP2 SWAP1 SUB PUSH1 0x64 ADD SWAP1 REVERT JUMPDEST POP POP POP JUMP JUMPDEST PUSH1 0x1 PUSH1 0x1 PUSH1 0xA0 SHL SUB DUP2 AND PUSH1 0x0 SWAP1 DUP2 MSTORE PUSH1 0x38 PUSH1 0x20 MSTORE PUSH1 0x40 DUP2 KECCAK256 PUSH2 0x1D8A DUP2 PUSH2 0x4702 JUMP JUMPDEST SWAP4 SWAP3 POP POP POP JUMP JUMPDEST PUSH1 0x35 SLOAD PUSH1 0x0 SWAP1 DUP2 SWAP1 PUSH1 0x1 PUSH1 0x1 PUSH1 0xA0 SHL SUB AND CALLER EQ PUSH2 0x1DDF JUMPI PUSH1 0x40 MLOAD PUSH3 0x461BCD PUSH1 0xE5 SHL DUP2 MSTORE PUSH1 0x4 ADD DUP1 DUP1 PUSH1 0x20 ADD DUP3 DUP2 SUB DUP3 MSTORE PUSH1 0x2A DUP2 MSTORE PUSH1 0x20 ADD DUP1 PUSH2 0x5BD8 PUSH1 0x2A SWAP2 CODECOPY PUSH1 0x40 ADD SWAP2 POP POP PUSH1 0x40 MLOAD DUP1 SWAP2 SUB SWAP1 REVERT JUMPDEST PUSH1 0x36 SLOAD PUSH1 0x40 DUP1 MLOAD PUSH4 0xF8A56CD PUSH1 0xE3 SHL DUP2 MSTORE PUSH1 0x1 PUSH1 0x1 PUSH1 0xA0 SHL SUB DUP11 DUP2 AND PUSH1 0x4 DUP4 ADD MSTORE SWAP2 MLOAD SWAP2 SWAP1 SWAP3 AND SWAP2 PUSH4 0x7C52B668 SWAP2 PUSH1 0x24 DUP1 DUP4 ADD SWAP3 PUSH1 0x20 SWAP3 SWAP2 SWAP1 DUP3 SWAP1 SUB ADD DUP2 PUSH1 0x0 DUP8 DUP1 EXTCODESIZE ISZERO DUP1 ISZERO PUSH2 0x1E2E JUMPI PUSH1 0x0 DUP1 REVERT JUMPDEST POP GAS CALL ISZERO DUP1 ISZERO PUSH2 0x1E42 JUMPI RETURNDATASIZE PUSH1 0x0 DUP1 RETURNDATACOPY RETURNDATASIZE PUSH1 0x0 REVERT JUMPDEST POP POP POP POP PUSH1 0x40 MLOAD RETURNDATASIZE PUSH1 0x20 DUP2 LT ISZERO PUSH2 0x1E58 JUMPI PUSH1 0x0 DUP1 REVERT JUMPDEST POP PUSH1 0x0 SWAP1 POP DUP1 PUSH2 0x1E68 DUP10 DUP10 PUSH2 0x2ACE JUMP JUMPDEST PUSH1 0x1 PUSH1 0x1 PUSH1 0xA0 SHL SUB DUP1 DUP14 AND PUSH1 0x0 SWAP1 DUP2 MSTORE PUSH1 0x38 PUSH1 0x20 MSTORE PUSH1 0x40 DUP1 DUP3 KECCAK256 SLOAD DUP2 MLOAD PUSH4 0x69E61C0F PUSH1 0xE1 SHL DUP2 MSTORE DUP16 DUP6 AND PUSH1 0x4 DUP3 ADD MSTORE SWAP2 MLOAD SWAP7 SWAP9 POP SWAP4 SWAP7 POP SWAP3 SWAP1 SWAP2 AND SWAP4 DUP5 SWAP4 POP PUSH4 0xD3CC381E SWAP3 PUSH1 0x24 DUP1 DUP3 ADD SWAP4 SWAP3 SWAP2 DUP3 SWAP1 SUB ADD DUP2 DUP4 DUP8 DUP1 EXTCODESIZE ISZERO DUP1 ISZERO PUSH2 0x1ECA JUMPI PUSH1 0x0 DUP1 REVERT JUMPDEST POP GAS CALL ISZERO DUP1 ISZERO PUSH2 0x1EDE JUMPI RETURNDATASIZE PUSH1 0x0 DUP1 RETURNDATACOPY RETURNDATASIZE PUSH1 0x0 REVERT JUMPDEST POP POP POP POP PUSH2 0x1EF0 DUP11 DUP11 DUP6 DUP6 DUP13 DUP12 PUSH2 0x4737 JUMP JUMPDEST PUSH2 0x1EFE DUP11 DUP11 DUP11 DUP6 DUP12 DUP12 PUSH2 0x4766 JUMP JUMPDEST PUSH2 0x1F0A DUP11 PUSH1 0x0 DUP11 PUSH2 0x449E JUMP JUMPDEST PUSH2 0x1F14 DUP11 DUP11 PUSH2 0x4891 JUMP JUMPDEST SWAP11 SWAP2 SWAP10 POP SWAP1 SWAP8 POP POP POP POP POP POP POP POP JUMP JUMPDEST PUSH1 0x1 PUSH1 0x1 PUSH1 0xA0 SHL SUB AND PUSH1 0x0 SWAP1 DUP2 MSTORE PUSH1 0x38 PUSH1 0x20 MSTORE PUSH1 0x40 SWAP1 KECCAK256 PUSH1 0x6 ADD SLOAD SWAP1 JUMP JUMPDEST PUSH1 0x35 SLOAD PUSH1 0x1 PUSH1 0x1 PUSH1 0xA0 SHL SUB AND CALLER EQ PUSH2 0x1F8B JUMPI PUSH1 0x40 MLOAD PUSH3 0x461BCD PUSH1 0xE5 SHL DUP2 MSTORE PUSH1 0x4 ADD DUP1 DUP1 PUSH1 0x20 ADD DUP3 DUP2 SUB DUP3 MSTORE PUSH1 0x2A DUP2 MSTORE PUSH1 0x20 ADD DUP1 PUSH2 0x5BD8 PUSH1 0x2A SWAP2 CODECOPY PUSH1 0x40 ADD SWAP2 POP POP PUSH1 0x40 MLOAD DUP1 SWAP2 SUB SWAP1 REVERT JUMPDEST PUSH1 0x1 PUSH1 0x1 PUSH1 0xA0 SHL SUB SWAP2 DUP3 AND PUSH1 0x0 SWAP1 DUP2 MSTORE PUSH1 0x39 PUSH1 0x20 SWAP1 DUP2 MSTORE PUSH1 0x40 DUP1 DUP4 KECCAK256 SWAP6 SWAP1 SWAP5 AND DUP3 MSTORE SWAP4 SWAP1 SWAP4 MSTORE SWAP2 KECCAK256 DUP1 SLOAD PUSH1 0xFF NOT AND SWAP2 ISZERO ISZERO SWAP2 SWAP1 SWAP2 OR SWAP1 SSTORE JUMP JUMPDEST PUSH1 0x1 PUSH1 0x1 PUSH1 0xA0 SHL SUB AND PUSH1 0x0 SWAP1 DUP2 MSTORE PUSH1 0x38 PUSH1 0x20 MSTORE PUSH1 0x40 SWAP1 KECCAK256 PUSH1 0x8 ADD SLOAD SWAP1 JUMP JUMPDEST PUSH1 0x34 SLOAD PUSH1 0x40 DUP1 MLOAD PUSH4 0x85C858B1 PUSH1 0xE0 SHL DUP2 MSTORE SWAP1 MLOAD CALLER SWAP3 PUSH1 0x1 PUSH1 0x1 PUSH1 0xA0 SHL SUB AND SWAP2 PUSH4 0x85C858B1 SWAP2 PUSH1 0x4 DUP1 DUP4 ADD SWAP3 PUSH1 0x20 SWAP3 SWAP2 SWAP1 DUP3 SWAP1 SUB ADD DUP2 DUP7 DUP1 EXTCODESIZE ISZERO DUP1 ISZERO PUSH2 0x2026 JUMPI PUSH1 0x0 DUP1 REVERT JUMPDEST POP GAS STATICCALL ISZERO DUP1 ISZERO PUSH2 0x203A JUMPI RETURNDATASIZE PUSH1 0x0 DUP1 RETURNDATACOPY RETURNDATASIZE PUSH1 0x0 REVERT JUMPDEST POP POP POP POP PUSH1 0x40 MLOAD RETURNDATASIZE PUSH1 0x20 DUP2 LT ISZERO PUSH2 0x2050 JUMPI PUSH1 0x0 DUP1 REVERT JUMPDEST POP MLOAD PUSH1 0x1 PUSH1 0x1 PUSH1 0xA0 SHL SUB AND EQ PUSH2 0x2097 JUMPI PUSH1 0x40 MLOAD PUSH3 0x461BCD PUSH1 0xE5 SHL DUP2 MSTORE PUSH1 0x4 ADD DUP1 DUP1 PUSH1 0x20 ADD DUP3 DUP2 SUB DUP3 MSTORE PUSH1 0x38 DUP2 MSTORE PUSH1 0x20 ADD DUP1 PUSH2 0x5CAA PUSH1 0x38 SWAP2 CODECOPY PUSH1 0x40 ADD SWAP2 POP POP PUSH1 0x40 MLOAD DUP1 SWAP2 SUB SWAP1 REVERT JUMPDEST PUSH1 0x1 PUSH1 0x1 PUSH1 0xA0 SHL SUB SWAP2 DUP3 AND PUSH1 0x0 SWAP1 DUP2 MSTORE PUSH1 0x38 PUSH1 0x20 MSTORE PUSH1 0x40 SWAP1 KECCAK256 PUSH1 0x1 ADD DUP1 SLOAD PUSH1 0x1 PUSH1 0x1 PUSH1 0xA0 SHL SUB NOT AND SWAP2 SWAP1 SWAP3 AND OR SWAP1 SSTORE JUMP JUMPDEST PUSH1 0x34 SLOAD PUSH1 0x40 DUP1 MLOAD PUSH4 0x85C858B1 PUSH1 0xE0 SHL DUP2 MSTORE SWAP1 MLOAD CALLER SWAP3 PUSH1 0x1 PUSH1 0x1 PUSH1 0xA0 SHL SUB AND SWAP2 PUSH4 0x85C858B1 SWAP2 PUSH1 0x4 DUP1 DUP4 ADD SWAP3 PUSH1 0x20 SWAP3 SWAP2 SWAP1 DUP3 SWAP1 SUB ADD DUP2 DUP7 DUP1 EXTCODESIZE ISZERO DUP1 ISZERO PUSH2 0x210C JUMPI PUSH1 0x0 DUP1 REVERT JUMPDEST POP GAS STATICCALL ISZERO DUP1 ISZERO PUSH2 0x2120 JUMPI RETURNDATASIZE PUSH1 0x0 DUP1 RETURNDATACOPY RETURNDATASIZE PUSH1 0x0 REVERT JUMPDEST POP POP POP POP PUSH1 0x40 MLOAD RETURNDATASIZE PUSH1 0x20 DUP2 LT ISZERO PUSH2 0x2136 JUMPI PUSH1 0x0 DUP1 REVERT JUMPDEST POP MLOAD PUSH1 0x1 PUSH1 0x1 PUSH1 0xA0 SHL SUB AND EQ PUSH2 0x217D JUMPI PUSH1 0x40 MLOAD PUSH3 0x461BCD PUSH1 0xE5 SHL DUP2 MSTORE PUSH1 0x4 ADD DUP1 DUP1 PUSH1 0x20 ADD DUP3 DUP2 SUB DUP3 MSTORE PUSH1 0x38 DUP2 MSTORE PUSH1 0x20 ADD DUP1 PUSH2 0x5CAA PUSH1 0x38 SWAP2 CODECOPY PUSH1 0x40 ADD SWAP2 POP POP PUSH1 0x40 MLOAD DUP1 SWAP2 SUB SWAP1 REVERT JUMPDEST PUSH1 0x1 PUSH1 0x1 PUSH1 0xA0 SHL SUB AND PUSH1 0x0 SWAP1 DUP2 MSTORE PUSH1 0x38 PUSH1 0x20 MSTORE PUSH1 0x40 SWAP1 KECCAK256 PUSH1 0x3 ADD DUP1 SLOAD PUSH1 0xFF NOT AND SWAP1 SSTORE JUMP JUMPDEST PUSH1 0x1 PUSH1 0x1 PUSH1 0xA0 SHL SUB DUP2 AND PUSH1 0x0 SWAP1 DUP2 MSTORE PUSH1 0x38 PUSH1 0x20 MSTORE PUSH1 0x40 DUP2 KECCAK256 PUSH1 0x4 DUP2 ADD SLOAD PUSH2 0x2247 JUMPI DUP1 PUSH1 0x1 ADD PUSH1 0x0 SWAP1 SLOAD SWAP1 PUSH2 0x100 EXP SWAP1 DIV PUSH1 0x1 PUSH1 0x1 PUSH1 0xA0 SHL SUB AND PUSH1 0x1 PUSH1 0x1 PUSH1 0xA0 SHL SUB AND PUSH4 0x34762CA5 PUSH1 0x40 MLOAD DUP2 PUSH4 0xFFFFFFFF AND PUSH1 0xE0 SHL DUP2 MSTORE PUSH1 0x4 ADD PUSH1 0x20 PUSH1 0x40 MLOAD DUP1 DUP4 SUB DUP2 DUP7 DUP1 EXTCODESIZE ISZERO DUP1 ISZERO PUSH2 0x2212 JUMPI PUSH1 0x0 DUP1 REVERT JUMPDEST POP GAS STATICCALL ISZERO DUP1 ISZERO PUSH2 0x2226 JUMPI RETURNDATASIZE PUSH1 0x0 DUP1 RETURNDATACOPY RETURNDATASIZE PUSH1 0x0 REVERT JUMPDEST POP POP POP POP PUSH1 0x40 MLOAD RETURNDATASIZE PUSH1 0x20 DUP2 LT ISZERO PUSH2 0x223C JUMPI PUSH1 0x0 DUP1 REVERT JUMPDEST POP MLOAD SWAP2 POP PUSH2 0x151F SWAP1 POP JUMP JUMPDEST PUSH1 0x4 ADD SLOAD SWAP3 SWAP2 POP POP JUMP JUMPDEST PUSH1 0x1 PUSH1 0x1 PUSH1 0xA0 SHL SUB AND PUSH1 0x0 SWAP1 DUP2 MSTORE PUSH1 0x38 PUSH1 0x20 MSTORE PUSH1 0x40 SWAP1 KECCAK256 PUSH1 0xD ADD SLOAD SWAP1 JUMP JUMPDEST PUSH1 0x34 SLOAD PUSH1 0x40 DUP1 MLOAD PUSH4 0x85C858B1 PUSH1 0xE0 SHL DUP2 MSTORE SWAP1 MLOAD CALLER SWAP3 PUSH1 0x1 PUSH1 0x1 PUSH1 0xA0 SHL SUB AND SWAP2 PUSH4 0x85C858B1 SWAP2 PUSH1 0x4 DUP1 DUP4 ADD SWAP3 PUSH1 0x20 SWAP3 SWAP2 SWAP1 DUP3 SWAP1 SUB ADD DUP2 DUP7 DUP1 EXTCODESIZE ISZERO DUP1 ISZERO PUSH2 0x22B3 JUMPI PUSH1 0x0 DUP1 REVERT JUMPDEST POP GAS STATICCALL ISZERO DUP1 ISZERO PUSH2 0x22C7 JUMPI RETURNDATASIZE PUSH1 0x0 DUP1 RETURNDATACOPY RETURNDATASIZE PUSH1 0x0 REVERT JUMPDEST POP POP POP POP PUSH1 0x40 MLOAD RETURNDATASIZE PUSH1 0x20 DUP2 LT ISZERO PUSH2 0x22DD JUMPI PUSH1 0x0 DUP1 REVERT JUMPDEST POP MLOAD PUSH1 0x1 PUSH1 0x1 PUSH1 0xA0 SHL SUB AND EQ PUSH2 0x2324 JUMPI PUSH1 0x40 MLOAD PUSH3 0x461BCD PUSH1 0xE5 SHL DUP2 MSTORE PUSH1 0x4 ADD DUP1 DUP1 PUSH1 0x20 ADD DUP3 DUP2 SUB DUP3 MSTORE PUSH1 0x38 DUP2 MSTORE PUSH1 0x20 ADD DUP1 PUSH2 0x5CAA PUSH1 0x38 SWAP2 CODECOPY PUSH1 0x40 ADD SWAP2 POP POP PUSH1 0x40 MLOAD DUP1 SWAP2 SUB SWAP1 REVERT JUMPDEST PUSH2 0x232C PUSH2 0x4923 JUMP JUMPDEST JUMP JUMPDEST PUSH1 0x34 SLOAD PUSH1 0x40 DUP1 MLOAD PUSH4 0x85C858B1 PUSH1 0xE0 SHL DUP2 MSTORE SWAP1 MLOAD CALLER SWAP3 PUSH1 0x1 PUSH1 0x1 PUSH1 0xA0 SHL SUB AND SWAP2 PUSH4 0x85C858B1 SWAP2 PUSH1 0x4 DUP1 DUP4 ADD SWAP3 PUSH1 0x20 SWAP3 SWAP2 SWAP1 DUP3 SWAP1 SUB ADD DUP2 DUP7 DUP1 EXTCODESIZE ISZERO DUP1 ISZERO PUSH2 0x2372 JUMPI PUSH1 0x0 DUP1 REVERT JUMPDEST POP GAS STATICCALL ISZERO DUP1 ISZERO PUSH2 0x2386 JUMPI RETURNDATASIZE PUSH1 0x0 DUP1 RETURNDATACOPY RETURNDATASIZE PUSH1 0x0 REVERT JUMPDEST POP POP POP POP PUSH1 0x40 MLOAD RETURNDATASIZE PUSH1 0x20 DUP2 LT ISZERO PUSH2 0x239C JUMPI PUSH1 0x0 DUP1 REVERT JUMPDEST POP MLOAD PUSH1 0x1 PUSH1 0x1 PUSH1 0xA0 SHL SUB AND EQ PUSH2 0x23E3 JUMPI PUSH1 0x40 MLOAD PUSH3 0x461BCD PUSH1 0xE5 SHL DUP2 MSTORE PUSH1 0x4 ADD DUP1 DUP1 PUSH1 0x20 ADD DUP3 DUP2 SUB DUP3 MSTORE PUSH1 0x38 DUP2 MSTORE PUSH1 0x20 ADD DUP1 PUSH2 0x5CAA PUSH1 0x38 SWAP2 CODECOPY PUSH1 0x40 ADD SWAP2 POP POP PUSH1 0x40 MLOAD DUP1 SWAP2 SUB SWAP1 REVERT JUMPDEST PUSH1 0x1 PUSH1 0x1 PUSH1 0xA0 SHL SUB DUP2 AND PUSH1 0x0 SWAP1 DUP2 MSTORE PUSH1 0x38 PUSH1 0x20 MSTORE PUSH1 0x40 DUP1 DUP3 KECCAK256 DUP2 MLOAD PUSH4 0xDB591535 PUSH1 0xE0 SHL DUP2 MSTORE PUSH1 0x4 DUP2 ADD SWAP2 SWAP1 SWAP2 MSTORE SWAP1 MLOAD PUSH20 0x0 SWAP3 PUSH4 0xDB591535 SWAP3 PUSH1 0x24 DUP1 DUP3 ADD SWAP4 SWAP2 DUP3 SWAP1 SUB ADD DUP2 DUP7 DUP1 EXTCODESIZE ISZERO DUP1 ISZERO PUSH2 0x1982 JUMPI PUSH1 0x0 DUP1 REVERT JUMPDEST PUSH1 0x34 SLOAD PUSH1 0x40 DUP1 MLOAD PUSH4 0x85C858B1 PUSH1 0xE0 SHL DUP2 MSTORE SWAP1 MLOAD CALLER SWAP3 PUSH1 0x1 PUSH1 0x1 PUSH1 0xA0 SHL SUB AND SWAP2 PUSH4 0x85C858B1 SWAP2 PUSH1 0x4 DUP1 DUP4 ADD SWAP3 PUSH1 0x20 SWAP3 SWAP2 SWAP1 DUP3 SWAP1 SUB ADD DUP2 DUP7 DUP1 EXTCODESIZE ISZERO DUP1 ISZERO PUSH2 0x248D JUMPI PUSH1 0x0 DUP1 REVERT JUMPDEST POP GAS STATICCALL ISZERO DUP1 ISZERO PUSH2 0x24A1 JUMPI RETURNDATASIZE PUSH1 0x0 DUP1 RETURNDATACOPY RETURNDATASIZE PUSH1 0x0 REVERT JUMPDEST POP POP POP POP PUSH1 0x40 MLOAD RETURNDATASIZE PUSH1 0x20 DUP2 LT ISZERO PUSH2 0x24B7 JUMPI PUSH1 0x0 DUP1 REVERT JUMPDEST POP MLOAD PUSH1 0x1 PUSH1 0x1 PUSH1 0xA0 SHL SUB AND EQ PUSH2 0x24FE JUMPI PUSH1 0x40 MLOAD PUSH3 0x461BCD PUSH1 0xE5 SHL DUP2 MSTORE PUSH1 0x4 ADD DUP1 DUP1 PUSH1 0x20 ADD DUP3 DUP2 SUB DUP3 MSTORE PUSH1 0x38 DUP2 MSTORE PUSH1 0x20 ADD DUP1 PUSH2 0x5CAA PUSH1 0x38 SWAP2 CODECOPY PUSH1 0x40 ADD SWAP2 POP POP PUSH1 0x40 MLOAD DUP1 SWAP2 SUB SWAP1 REVERT JUMPDEST PUSH1 0x1 PUSH1 0x1 PUSH1 0xA0 SHL SUB SWAP1 SWAP2 AND PUSH1 0x0 SWAP1 DUP2 MSTORE PUSH1 0x38 PUSH1 0x20 MSTORE PUSH1 0x40 SWAP1 KECCAK256 PUSH1 0xE ADD SSTORE JUMP JUMPDEST PUSH1 0x1 PUSH1 0x1 PUSH1 0xA0 SHL SUB SWAP1 DUP2 AND PUSH1 0x0 SWAP1 DUP2 MSTORE PUSH1 0x39 PUSH1 0x20 SWAP1 DUP2 MSTORE PUSH1 0x40 DUP1 DUP4 KECCAK256 SWAP5 SWAP1 SWAP4 AND DUP3 MSTORE SWAP3 SWAP1 SWAP3 MSTORE SWAP1 KECCAK256 PUSH1 0x5 ADD SLOAD PUSH5 0xFFFFFFFFFF AND SWAP1 JUMP JUMPDEST PUSH1 0x34 SLOAD PUSH1 0x40 DUP1 MLOAD PUSH4 0x85C858B1 PUSH1 0xE0 SHL DUP2 MSTORE SWAP1 MLOAD CALLER SWAP3 PUSH1 0x1 PUSH1 0x1 PUSH1 0xA0 SHL SUB AND SWAP2 PUSH4 0x85C858B1 SWAP2 PUSH1 0x4 DUP1 DUP4 ADD SWAP3 PUSH1 0x20 SWAP3 SWAP2 SWAP1 DUP3 SWAP1 SUB ADD DUP2 DUP7 DUP1 EXTCODESIZE ISZERO DUP1 ISZERO PUSH2 0x2597 JUMPI PUSH1 0x0 DUP1 REVERT JUMPDEST POP GAS STATICCALL ISZERO DUP1 ISZERO PUSH2 0x25AB JUMPI RETURNDATASIZE PUSH1 0x0 DUP1 RETURNDATACOPY RETURNDATASIZE PUSH1 0x0 REVERT JUMPDEST POP POP POP POP PUSH1 0x40 MLOAD RETURNDATASIZE PUSH1 0x20 DUP2 LT ISZERO PUSH2 0x25C1 JUMPI PUSH1 0x0 DUP1 REVERT JUMPDEST POP MLOAD PUSH1 0x1 PUSH1 0x1 PUSH1 0xA0 SHL SUB AND EQ PUSH2 0x2608 JUMPI PUSH1 0x40 MLOAD PUSH3 0x461BCD PUSH1 0xE5 SHL DUP2 MSTORE PUSH1 0x4 ADD DUP1 DUP1 PUSH1 0x20 ADD DUP3 DUP2 SUB DUP3 MSTORE PUSH1 0x38 DUP2 MSTORE PUSH1 0x20 ADD DUP1 PUSH2 0x5CAA PUSH1 0x38 SWAP2 CODECOPY PUSH1 0x40 ADD SWAP2 POP POP PUSH1 0x40 MLOAD DUP1 SWAP2 SUB SWAP1 REVERT JUMPDEST PUSH1 0x1 PUSH1 0x1 PUSH1 0xA0 SHL SUB AND PUSH1 0x0 SWAP1 DUP2 MSTORE PUSH1 0x38 PUSH1 0x20 MSTORE PUSH1 0x40 SWAP1 KECCAK256 PUSH1 0x3 ADD DUP1 SLOAD PUSH5 0xFF00000000 NOT AND SWAP1 SSTORE JUMP JUMPDEST PUSH1 0x35 SLOAD PUSH1 0x1 PUSH1 0x1 PUSH1 0xA0 SHL SUB AND CALLER EQ PUSH2 0x2679 JUMPI PUSH1 0x40 MLOAD PUSH3 0x461BCD PUSH1 0xE5 SHL DUP2 MSTORE PUSH1 0x4 ADD DUP1 DUP1 PUSH1 0x20 ADD DUP3 DUP2 SUB DUP3 MSTORE PUSH1 0x2A DUP2 MSTORE PUSH1 0x20 ADD DUP1 PUSH2 0x5BD8 PUSH1 0x2A SWAP2 CODECOPY PUSH1 0x40 ADD SWAP2 POP POP PUSH1 0x40 MLOAD DUP1 SWAP2 SUB SWAP1 REVERT JUMPDEST PUSH1 0x36 SLOAD PUSH1 0x40 DUP1 MLOAD PUSH4 0xF8A56CD PUSH1 0xE3 SHL DUP2 MSTORE PUSH1 0x1 PUSH1 0x1 PUSH1 0xA0 SHL SUB DUP13 DUP2 AND PUSH1 0x4 DUP4 ADD MSTORE SWAP2 MLOAD SWAP2 SWAP1 SWAP3 AND SWAP2 PUSH4 0x7C52B668 SWAP2 PUSH1 0x24 DUP1 DUP4 ADD SWAP3 PUSH1 0x20 SWAP3 SWAP2 SWAP1 DUP3 SWAP1 SUB ADD DUP2 PUSH1 0x0 DUP8 DUP1 EXTCODESIZE ISZERO DUP1 ISZERO PUSH2 0x26C8 JUMPI PUSH1 0x0 DUP1 REVERT JUMPDEST POP GAS CALL ISZERO DUP1 ISZERO PUSH2 0x26DC JUMPI RETURNDATASIZE PUSH1 0x0 DUP1 RETURNDATACOPY RETURNDATASIZE PUSH1 0x0 REVERT JUMPDEST POP POP POP POP PUSH1 0x40 MLOAD RETURNDATASIZE PUSH1 0x20 DUP2 LT ISZERO PUSH2 0x26F2 JUMPI PUSH1 0x0 DUP1 REVERT JUMPDEST POP POP PUSH1 0x36 SLOAD PUSH1 0x40 DUP1 MLOAD PUSH4 0x4F425FBB PUSH1 0xE0 SHL DUP2 MSTORE PUSH1 0x1 PUSH1 0x1 PUSH1 0xA0 SHL SUB DUP12 DUP2 AND PUSH1 0x4 DUP4 ADD MSTORE SWAP2 MLOAD SWAP2 SWAP1 SWAP3 AND SWAP2 PUSH4 0x4F425FBB SWAP2 PUSH1 0x24 DUP1 DUP4 ADD SWAP3 PUSH1 0x20 SWAP3 SWAP2 SWAP1 DUP3 SWAP1 SUB ADD DUP2 PUSH1 0x0 DUP8 DUP1 EXTCODESIZE ISZERO DUP1 ISZERO PUSH2 0x2743 JUMPI PUSH1 0x0 DUP1 REVERT JUMPDEST POP GAS CALL ISZERO DUP1 ISZERO PUSH2 0x2757 JUMPI RETURNDATASIZE PUSH1 0x0 DUP1 RETURNDATACOPY RETURNDATASIZE PUSH1 0x0 REVERT JUMPDEST POP POP POP POP PUSH1 0x40 MLOAD RETURNDATASIZE PUSH1 0x20 DUP2 LT ISZERO PUSH2 0x276D JUMPI PUSH1 0x0 DUP1 REVERT JUMPDEST POP POP PUSH1 0x1 PUSH1 0x1 PUSH1 0xA0 SHL SUB DUP1 DUP11 AND PUSH1 0x0 SWAP1 DUP2 MSTORE PUSH1 0x38 PUSH1 0x20 MSTORE PUSH1 0x40 DUP1 DUP3 KECCAK256 SLOAD DUP2 MLOAD PUSH4 0x69E61C0F PUSH1 0xE1 SHL DUP2 MSTORE DUP12 DUP6 AND PUSH1 0x4 DUP3 ADD MSTORE SWAP2 MLOAD SWAP4 AND SWAP3 DUP4 SWAP3 PUSH4 0xD3CC381E SWAP3 PUSH1 0x24 DUP1 DUP3 ADD SWAP4 SWAP2 DUP3 SWAP1 SUB ADD DUP2 DUP4 DUP8 DUP1 EXTCODESIZE ISZERO DUP1 ISZERO PUSH2 0x27C7 JUMPI PUSH1 0x0 DUP1 REVERT JUMPDEST POP GAS CALL ISZERO DUP1 ISZERO PUSH2 0x27DB JUMPI RETURNDATASIZE PUSH1 0x0 DUP1 RETURNDATACOPY RETURNDATASIZE PUSH1 0x0 REVERT JUMPDEST POP POP POP POP PUSH2 0x27EB DUP11 DUP10 DUP10 DUP7 PUSH2 0x4A43 JUMP JUMPDEST PUSH2 0x27F4 DUP10 PUSH2 0x4AF3 JUMP JUMPDEST PUSH2 0x2801 DUP11 DUP10 DUP10 DUP9 DUP8 PUSH2 0x4B17 JUMP JUMPDEST PUSH2 0x280D DUP11 DUP9 PUSH1 0x0 PUSH2 0x449E JUMP JUMPDEST DUP2 PUSH2 0x282D JUMPI PUSH2 0x282D DUP10 PUSH1 0x0 PUSH2 0x2828 DUP10 DUP9 PUSH4 0xFFFFFFFF PUSH2 0x43DD AND JUMP JUMPDEST PUSH2 0x449E JUMP JUMPDEST POP POP POP POP POP POP POP POP POP POP JUMP JUMPDEST PUSH1 0x1 PUSH1 0x1 PUSH1 0xA0 SHL SUB DUP1 DUP3 AND PUSH1 0x0 SWAP1 DUP2 MSTORE PUSH1 0x39 PUSH1 0x20 SWAP1 DUP2 MSTORE PUSH1 0x40 DUP1 DUP4 KECCAK256 SWAP4 DUP7 AND DUP4 MSTORE SWAP3 SWAP1 MSTORE KECCAK256 PUSH1 0x2 ADD SLOAD SWAP3 SWAP2 POP POP JUMP JUMPDEST PUSH1 0x1 PUSH1 0x1 PUSH1 0xA0 SHL SUB AND PUSH1 0x0 SWAP1 DUP2 MSTORE PUSH1 0x38 PUSH1 0x20 MSTORE PUSH1 0x40 SWAP1 KECCAK256 PUSH1 0x3 ADD SLOAD PUSH5 0x100000000 SWAP1 DIV PUSH1 0xFF AND SWAP1 JUMP JUMPDEST PUSH1 0x1 PUSH1 0x1 PUSH1 0xA0 SHL SUB DUP2 AND PUSH1 0x0 SWAP1 DUP2 MSTORE PUSH1 0x38 PUSH1 0x20 MSTORE PUSH1 0x40 DUP2 KECCAK256 PUSH2 0x1D8A PUSH2 0x28B5 DUP3 PUSH2 0x4631 JUMP JUMPDEST PUSH2 0x28BE DUP6 PUSH2 0x2A2A JUMP JUMPDEST SWAP1 PUSH4 0xFFFFFFFF PUSH2 0x43DD AND JUMP JUMPDEST PUSH1 0x1 PUSH1 0x1 PUSH1 0xA0 SHL SUB AND PUSH1 0x0 SWAP1 DUP2 MSTORE PUSH1 0x38 PUSH1 0x20 MSTORE PUSH1 0x40 SWAP1 KECCAK256 PUSH1 0x3 ADD SLOAD PUSH2 0x100 SWAP1 DIV PUSH1 0xFF AND SWAP1 JUMP JUMPDEST PUSH1 0x35 SLOAD PUSH1 0x1 PUSH1 0x1 PUSH1 0xA0 SHL SUB AND CALLER EQ PUSH2 0x2939 JUMPI PUSH1 0x40 MLOAD PUSH3 0x461BCD PUSH1 0xE5 SHL DUP2 MSTORE PUSH1 0x4 ADD DUP1 DUP1 PUSH1 0x20 ADD DUP3 DUP2 SUB DUP3 MSTORE PUSH1 0x2A DUP2 MSTORE PUSH1 0x20 ADD DUP1 PUSH2 0x5BD8 PUSH1 0x2A SWAP2 CODECOPY PUSH1 0x40 ADD SWAP2 POP POP PUSH1 0x40 MLOAD DUP1 SWAP2 SUB SWAP1 REVERT JUMPDEST DUP1 CALLVALUE ISZERO PUSH2 0x2977 JUMPI PUSH1 0x40 MLOAD PUSH3 0x461BCD PUSH1 0xE5 SHL DUP2 MSTORE PUSH1 0x4 ADD DUP1 DUP1 PUSH1 0x20 ADD DUP3 DUP2 SUB DUP3 MSTORE PUSH1 0x36 DUP2 MSTORE PUSH1 0x20 ADD DUP1 PUSH2 0x59BD PUSH1 0x36 SWAP2 CODECOPY PUSH1 0x40 ADD SWAP2 POP POP PUSH1 0x40 MLOAD DUP1 SWAP2 SUB SWAP1 REVERT JUMPDEST PUSH2 0x297F PUSH2 0x464E JUMP JUMPDEST PUSH1 0x1 PUSH1 0x1 PUSH1 0xA0 SHL SUB AND DUP5 PUSH1 0x1 PUSH1 0x1 PUSH1 0xA0 SHL SUB AND EQ PUSH2 0x29B6 JUMPI PUSH2 0x29B1 PUSH1 0x1 PUSH1 0x1 PUSH1 0xA0 SHL SUB DUP6 AND DUP3 DUP6 PUSH4 0xFFFFFFFF PUSH2 0x4BCF AND JUMP JUMPDEST PUSH2 0x2A06 JUMP JUMPDEST PUSH1 0x40 MLOAD PUSH1 0x0 SWAP1 PUSH1 0x1 PUSH1 0x1 PUSH1 0xA0 SHL SUB DUP4 AND SWAP1 PUSH2 0xC350 SWAP1 DUP7 SWAP1 DUP5 DUP2 DUP2 DUP2 DUP6 DUP9 DUP9 CALL SWAP4 POP POP POP POP RETURNDATASIZE DUP1 PUSH1 0x0 DUP2 EQ PUSH2 0x1D10 JUMPI PUSH1 0x40 MLOAD SWAP2 POP PUSH1 0x1F NOT PUSH1 0x3F RETURNDATASIZE ADD AND DUP3 ADD PUSH1 0x40 MSTORE RETURNDATASIZE DUP3 MSTORE RETURNDATASIZE PUSH1 0x0 PUSH1 0x20 DUP5 ADD RETURNDATACOPY PUSH2 0x1D15 JUMP JUMPDEST POP POP POP POP JUMP JUMPDEST PUSH1 0x1 PUSH1 0x1 PUSH1 0xA0 SHL SUB AND PUSH1 0x0 SWAP1 DUP2 MSTORE PUSH1 0x38 PUSH1 0x20 MSTORE PUSH1 0x40 SWAP1 KECCAK256 PUSH1 0xB ADD SLOAD SWAP1 JUMP JUMPDEST PUSH1 0x0 DUP1 PUSH2 0x2A35 PUSH2 0x464E JUMP JUMPDEST PUSH1 0x1 PUSH1 0x1 PUSH1 0xA0 SHL SUB AND DUP4 PUSH1 0x1 PUSH1 0x1 PUSH1 0xA0 SHL SUB AND EQ ISZERO PUSH2 0x2A55 JUMPI POP SELFBALANCE PUSH2 0x1A20 JUMP JUMPDEST PUSH1 0x40 DUP1 MLOAD PUSH4 0x70A08231 PUSH1 0xE0 SHL DUP2 MSTORE ADDRESS PUSH1 0x4 DUP3 ADD MSTORE SWAP1 MLOAD PUSH1 0x1 PUSH1 0x1 PUSH1 0xA0 SHL SUB DUP6 AND SWAP2 PUSH4 0x70A08231 SWAP2 PUSH1 0x24 DUP1 DUP4 ADD SWAP3 PUSH1 0x20 SWAP3 SWAP2 SWAP1 DUP3 SWAP1 SUB ADD DUP2 DUP7 DUP1 EXTCODESIZE ISZERO DUP1 ISZERO PUSH2 0x2A9B JUMPI PUSH1 0x0 DUP1 REVERT JUMPDEST POP GAS STATICCALL ISZERO DUP1 ISZERO PUSH2 0x2AAF JUMPI RETURNDATASIZE PUSH1 0x0 DUP1 RETURNDATACOPY RETURNDATASIZE PUSH1 0x0 REVERT JUMPDEST POP POP POP POP PUSH1 0x40 MLOAD RETURNDATASIZE PUSH1 0x20 DUP2 LT ISZERO PUSH2 0x2AC5 JUMPI PUSH1 0x0 DUP1 REVERT JUMPDEST POP MLOAD SWAP4 SWAP3 POP POP POP JUMP JUMPDEST PUSH1 0x1 PUSH1 0x1 PUSH1 0xA0 SHL SUB DUP1 DUP3 AND PUSH1 0x0 SWAP1 DUP2 MSTORE PUSH1 0x39 PUSH1 0x20 SWAP1 DUP2 MSTORE PUSH1 0x40 DUP1 DUP4 KECCAK256 SWAP4 DUP7 AND DUP4 MSTORE SWAP3 SWAP1 MSTORE SWAP1 DUP2 KECCAK256 PUSH1 0x1 DUP2 ADD SLOAD DUP3 SWAP2 DUP3 SWAP2 PUSH2 0x2B12 JUMPI POP PUSH1 0x0 SWAP3 POP DUP3 SWAP2 POP DUP2 SWAP1 POP PUSH2 0x2B58 JUMP JUMPDEST PUSH1 0x1 DUP2 ADD SLOAD PUSH1 0x1 PUSH1 0x1 PUSH1 0xA0 SHL SUB DUP8 AND PUSH1 0x0 SWAP1 DUP2 MSTORE PUSH1 0x38 PUSH1 0x20 MSTORE PUSH1 0x40 DUP2 KECCAK256 PUSH2 0x2B3A SWAP1 DUP5 SWAP1 PUSH2 0x4C21 JUMP JUMPDEST SWAP1 POP DUP2 DUP2 PUSH2 0x2B4E DUP2 DUP4 PUSH4 0xFFFFFFFF PUSH2 0x46C0 AND JUMP JUMPDEST SWAP6 POP SWAP6 POP SWAP6 POP POP POP POP JUMPDEST SWAP3 POP SWAP3 POP SWAP3 JUMP JUMPDEST PUSH1 0x34 SLOAD PUSH1 0x40 DUP1 MLOAD PUSH4 0x85C858B1 PUSH1 0xE0 SHL DUP2 MSTORE SWAP1 MLOAD CALLER SWAP3 PUSH1 0x1 PUSH1 0x1 PUSH1 0xA0 SHL SUB AND SWAP2 PUSH4 0x85C858B1 SWAP2 PUSH1 0x4 DUP1 DUP4 ADD SWAP3 PUSH1 0x20 SWAP3 SWAP2 SWAP1 DUP3 SWAP1 SUB ADD DUP2 DUP7 DUP1 EXTCODESIZE ISZERO DUP1 ISZERO PUSH2 0x2BA3 JUMPI PUSH1 0x0 DUP1 REVERT JUMPDEST POP GAS STATICCALL ISZERO DUP1 ISZERO PUSH2 0x2BB7 JUMPI RETURNDATASIZE PUSH1 0x0 DUP1 RETURNDATACOPY RETURNDATASIZE PUSH1 0x0 REVERT JUMPDEST POP POP POP POP PUSH1 0x40 MLOAD RETURNDATASIZE PUSH1 0x20 DUP2 LT ISZERO PUSH2 0x2BCD JUMPI PUSH1 0x0 DUP1 REVERT JUMPDEST POP MLOAD PUSH1 0x1 PUSH1 0x1 PUSH1 0xA0 SHL SUB AND EQ PUSH2 0x2C14 JUMPI PUSH1 0x40 MLOAD PUSH3 0x461BCD PUSH1 0xE5 SHL DUP2 MSTORE PUSH1 0x4 ADD DUP1 DUP1 PUSH1 0x20 ADD DUP3 DUP2 SUB DUP3 MSTORE PUSH1 0x38 DUP2 MSTORE PUSH1 0x20 ADD DUP1 PUSH2 0x5CAA PUSH1 0x38 SWAP2 CODECOPY PUSH1 0x40 ADD SWAP2 POP POP PUSH1 0x40 MLOAD DUP1 SWAP2 SUB SWAP1 REVERT JUMPDEST PUSH1 0x1 PUSH1 0x1 PUSH1 0xA0 SHL SUB AND PUSH1 0x0 SWAP1 DUP2 MSTORE PUSH1 0x38 PUSH1 0x20 MSTORE PUSH1 0x40 SWAP1 KECCAK256 PUSH1 0x3 ADD DUP1 SLOAD PUSH2 0xFF00 NOT AND SWAP1 SSTORE JUMP JUMPDEST PUSH1 0x1 PUSH1 0x1 PUSH1 0xA0 SHL SUB SWAP1 DUP2 AND PUSH1 0x0 SWAP1 DUP2 MSTORE PUSH1 0x38 PUSH1 0x20 MSTORE PUSH1 0x40 SWAP1 KECCAK256 SLOAD AND SWAP1 JUMP JUMPDEST PUSH1 0x1 PUSH1 0x1 PUSH1 0xA0 SHL SUB DUP1 DUP3 AND PUSH1 0x0 SWAP1 DUP2 MSTORE PUSH1 0x38 PUSH1 0x20 SWAP1 DUP2 MSTORE PUSH1 0x40 DUP1 DUP4 KECCAK256 PUSH1 0x34 SLOAD DUP3 MLOAD PUSH4 0x1B0C55DD PUSH1 0xE1 SHL DUP2 MSTORE SWAP3 MLOAD SWAP5 SWAP6 SWAP2 SWAP5 DUP7 SWAP5 SWAP2 SWAP1 SWAP3 AND SWAP3 PUSH4 0x3618ABBA SWAP3 PUSH1 0x4 DUP1 DUP4 ADD SWAP4 SWAP3 DUP3 SWAP1 SUB ADD DUP2 DUP7 DUP1 EXTCODESIZE ISZERO DUP1 ISZERO PUSH2 0x2CB0 JUMPI PUSH1 0x0 DUP1 REVERT JUMPDEST POP GAS STATICCALL ISZERO DUP1 ISZERO PUSH2 0x2CC4 JUMPI RETURNDATASIZE PUSH1 0x0 DUP1 RETURNDATACOPY RETURNDATASIZE PUSH1 0x0 REVERT JUMPDEST POP POP POP POP PUSH1 0x40 MLOAD RETURNDATASIZE PUSH1 0x20 DUP2 LT ISZERO PUSH2 0x2CDA JUMPI PUSH1 0x0 DUP1 REVERT JUMPDEST POP MLOAD PUSH1 0x5 DUP4 ADD SLOAD SWAP1 SWAP2 POP PUSH2 0x2D74 JUMPI DUP1 PUSH1 0x1 PUSH1 0x1 PUSH1 0xA0 SHL SUB AND PUSH4 0xBB85C0BB DUP6 PUSH1 0x40 MLOAD DUP3 PUSH4 0xFFFFFFFF AND PUSH1 0xE0 SHL DUP2 MSTORE PUSH1 0x4 ADD DUP1 DUP3 PUSH1 0x1 PUSH1 0x1 PUSH1 0xA0 SHL SUB AND PUSH1 0x1 PUSH1 0x1 PUSH1 0xA0 SHL SUB AND DUP2 MSTORE PUSH1 0x20 ADD SWAP2 POP POP PUSH1 0x20 PUSH1 0x40 MLOAD DUP1 DUP4 SUB DUP2 DUP7 DUP1 EXTCODESIZE ISZERO DUP1 ISZERO PUSH2 0x2D3E JUMPI PUSH1 0x0 DUP1 REVERT JUMPDEST POP GAS STATICCALL ISZERO DUP1 ISZERO PUSH2 0x2D52 JUMPI RETURNDATASIZE PUSH1 0x0 DUP1 RETURNDATACOPY RETURNDATASIZE PUSH1 0x0 REVERT JUMPDEST POP POP POP POP PUSH1 0x40 MLOAD RETURNDATASIZE PUSH1 0x20 DUP2 LT ISZERO PUSH2 0x2D68 JUMPI PUSH1 0x0 DUP1 REVERT JUMPDEST POP MLOAD SWAP3 POP PUSH2 0x151F SWAP2 POP POP JUMP JUMPDEST POP PUSH1 0x5 ADD SLOAD SWAP3 SWAP2 POP POP JUMP JUMPDEST PUSH1 0x35 SLOAD PUSH1 0x0 SWAP1 PUSH1 0x1 PUSH1 0x1 PUSH1 0xA0 SHL SUB AND CALLER EQ PUSH2 0x2DCB JUMPI PUSH1 0x40 MLOAD PUSH3 0x461BCD PUSH1 0xE5 SHL DUP2 MSTORE PUSH1 0x4 ADD DUP1 DUP1 PUSH1 0x20 ADD DUP3 DUP2 SUB DUP3 MSTORE PUSH1 0x2A DUP2 MSTORE PUSH1 0x20 ADD DUP1 PUSH2 0x5BD8 PUSH1 0x2A SWAP2 CODECOPY PUSH1 0x40 ADD SWAP2 POP POP PUSH1 0x40 MLOAD DUP1 SWAP2 SUB SWAP1 REVERT JUMPDEST PUSH1 0x36 SLOAD PUSH1 0x40 DUP1 MLOAD PUSH4 0xF8A56CD PUSH1 0xE3 SHL DUP2 MSTORE PUSH1 0x1 PUSH1 0x1 PUSH1 0xA0 SHL SUB DUP8 DUP2 AND PUSH1 0x4 DUP4 ADD MSTORE SWAP2 MLOAD SWAP2 SWAP1 SWAP3 AND SWAP2 PUSH4 0x7C52B668 SWAP2 PUSH1 0x24 DUP1 DUP4 ADD SWAP3 PUSH1 0x20 SWAP3 SWAP2 SWAP1 DUP3 SWAP1 SUB ADD DUP2 PUSH1 0x0 DUP8 DUP1 EXTCODESIZE ISZERO DUP1 ISZERO PUSH2 0x2E1A JUMPI PUSH1 0x0 DUP1 REVERT JUMPDEST POP GAS CALL ISZERO DUP1 ISZERO PUSH2 0x2E2E JUMPI RETURNDATASIZE PUSH1 0x0 DUP1 RETURNDATACOPY RETURNDATASIZE PUSH1 0x0 REVERT JUMPDEST POP POP POP POP PUSH1 0x40 MLOAD RETURNDATASIZE PUSH1 0x20 DUP2 LT ISZERO PUSH2 0x2E44 JUMPI PUSH1 0x0 DUP1 REVERT JUMPDEST POP POP PUSH1 0x1 PUSH1 0x1 PUSH1 0xA0 SHL SUB DUP1 DUP6 AND PUSH1 0x0 SWAP1 DUP2 MSTORE PUSH1 0x38 PUSH1 0x20 MSTORE PUSH1 0x40 DUP1 DUP3 KECCAK256 SLOAD DUP2 MLOAD PUSH4 0x69E61C0F PUSH1 0xE1 SHL DUP2 MSTORE DUP8 DUP6 AND PUSH1 0x4 DUP3 ADD MSTORE SWAP2 MLOAD SWAP4 AND SWAP3 DUP4 SWAP3 PUSH4 0xD3CC381E SWAP3 PUSH1 0x24 DUP1 DUP3 ADD SWAP4 SWAP2 DUP3 SWAP1 SUB ADD DUP2 DUP4 DUP8 DUP1 EXTCODESIZE ISZERO DUP1 ISZERO PUSH2 0x2E9E JUMPI PUSH1 0x0 DUP1 REVERT JUMPDEST POP GAS CALL ISZERO DUP1 ISZERO PUSH2 0x2EB2 JUMPI RETURNDATASIZE PUSH1 0x0 DUP1 RETURNDATACOPY RETURNDATASIZE PUSH1 0x0 REVERT JUMPDEST POP POP POP POP PUSH2 0x2EC1 DUP6 DUP6 DUP6 PUSH2 0x4D11 JUMP JUMPDEST PUSH2 0x2ECC DUP6 DUP6 DUP6 PUSH2 0x4D61 JUMP JUMPDEST PUSH2 0x2ED8 DUP6 PUSH1 0x0 DUP1 PUSH2 0x449E JUMP JUMPDEST POP POP PUSH1 0x1 PUSH1 0x1 PUSH1 0xA0 SHL SUB DUP1 DUP4 AND PUSH1 0x0 SWAP1 DUP2 MSTORE PUSH1 0x39 PUSH1 0x20 SWAP1 DUP2 MSTORE PUSH1 0x40 DUP1 DUP4 KECCAK256 SWAP4 DUP8 AND DUP4 MSTORE SWAP3 SWAP1 MSTORE KECCAK256 PUSH1 0x2 ADD SLOAD SWAP4 SWAP3 POP POP POP JUMP JUMPDEST PUSH1 0x35 SLOAD PUSH1 0x1 PUSH1 0x1 PUSH1 0xA0 SHL SUB AND CALLER EQ PUSH2 0x2F53 JUMPI PUSH1 0x40 MLOAD PUSH3 0x461BCD PUSH1 0xE5 SHL DUP2 MSTORE PUSH1 0x4 ADD DUP1 DUP1 PUSH1 0x20 ADD DUP3 DUP2 SUB DUP3 MSTORE PUSH1 0x2A DUP2 MSTORE PUSH1 0x20 ADD DUP1 PUSH2 0x5BD8 PUSH1 0x2A SWAP2 CODECOPY PUSH1 0x40 ADD SWAP2 POP POP PUSH1 0x40 MLOAD DUP1 SWAP2 SUB SWAP1 REVERT JUMPDEST PUSH1 0x36 SLOAD PUSH1 0x40 DUP1 MLOAD PUSH4 0x4F425FBB PUSH1 0xE0 SHL DUP2 MSTORE PUSH1 0x1 PUSH1 0x1 PUSH1 0xA0 SHL SUB DUP8 DUP2 AND PUSH1 0x4 DUP4 ADD MSTORE SWAP2 MLOAD SWAP2 SWAP1 SWAP3 AND SWAP2 PUSH4 0x4F425FBB SWAP2 PUSH1 0x24 DUP1 DUP4 ADD SWAP3 PUSH1 0x20 SWAP3 SWAP2 SWAP1 DUP3 SWAP1 SUB ADD DUP2 PUSH1 0x0 DUP8 DUP1 EXTCODESIZE ISZERO DUP1 ISZERO PUSH2 0x2FA2 JUMPI PUSH1 0x0 DUP1 REVERT JUMPDEST POP GAS CALL ISZERO DUP1 ISZERO PUSH2 0x2FB6 JUMPI RETURNDATASIZE PUSH1 0x0 DUP1 RETURNDATACOPY RETURNDATASIZE PUSH1 0x0 REVERT JUMPDEST POP POP POP POP PUSH1 0x40 MLOAD RETURNDATASIZE PUSH1 0x20 DUP2 LT ISZERO PUSH2 0x2FCC JUMPI PUSH1 0x0 DUP1 REVERT JUMPDEST POP POP PUSH1 0x1 PUSH1 0x1 PUSH1 0xA0 SHL SUB DUP5 AND PUSH1 0x0 SWAP1 DUP2 MSTORE PUSH1 0x38 PUSH1 0x20 MSTORE PUSH1 0x40 SWAP1 KECCAK256 PUSH2 0x2FEF SWAP1 PUSH2 0x434D JUMP JUMPDEST PUSH2 0x2FFB DUP5 PUSH1 0x0 DUP5 PUSH2 0x449E JUMP JUMPDEST DUP1 ISZERO PUSH2 0x2A06 JUMPI PUSH2 0x2A06 DUP5 DUP5 PUSH1 0x0 PUSH2 0x1F42 JUMP JUMPDEST PUSH1 0x35 SLOAD PUSH1 0x1 PUSH1 0x1 PUSH1 0xA0 SHL SUB AND CALLER EQ PUSH2 0x3056 JUMPI PUSH1 0x40 MLOAD PUSH3 0x461BCD PUSH1 0xE5 SHL DUP2 MSTORE PUSH1 0x4 ADD DUP1 DUP1 PUSH1 0x20 ADD DUP3 DUP2 SUB DUP3 MSTORE PUSH1 0x2A DUP2 MSTORE PUSH1 0x20 ADD DUP1 PUSH2 0x5BD8 PUSH1 0x2A SWAP2 CODECOPY PUSH1 0x40 ADD SWAP2 POP POP PUSH1 0x40 MLOAD DUP1 SWAP2 SUB SWAP1 REVERT JUMPDEST PUSH1 0x36 SLOAD PUSH1 0x40 DUP1 MLOAD PUSH4 0x4F425FBB PUSH1 0xE0 SHL DUP2 MSTORE PUSH1 0x1 PUSH1 0x1 PUSH1 0xA0 SHL SUB DUP8 DUP2 AND PUSH1 0x4 DUP4 ADD MSTORE SWAP2 MLOAD SWAP2 SWAP1 SWAP3 AND SWAP2 PUSH4 0x4F425FBB SWAP2 PUSH1 0x24 DUP1 DUP4 ADD SWAP3 PUSH1 0x20 SWAP3 SWAP2 SWAP1 DUP3 SWAP1 SUB ADD DUP2 PUSH1 0x0 DUP8 DUP1 EXTCODESIZE ISZERO DUP1 ISZERO PUSH2 0x30A5 JUMPI PUSH1 0x0 DUP1 REVERT JUMPDEST POP GAS CALL ISZERO DUP1 ISZERO PUSH2 0x30B9 JUMPI RETURNDATASIZE PUSH1 0x0 DUP1 RETURNDATACOPY RETURNDATASIZE PUSH1 0x0 REVERT JUMPDEST POP POP POP POP PUSH1 0x40 MLOAD RETURNDATASIZE PUSH1 0x20 DUP2 LT ISZERO PUSH2 0x30CF JUMPI PUSH1 0x0 DUP1 REVERT JUMPDEST POP POP PUSH1 0x1 PUSH1 0x1 PUSH1 0xA0 SHL SUB DUP5 AND PUSH1 0x0 SWAP1 DUP2 MSTORE PUSH1 0x38 PUSH1 0x20 MSTORE PUSH1 0x40 SWAP1 KECCAK256 PUSH2 0x30F2 SWAP1 PUSH2 0x434D JUMP JUMPDEST PUSH2 0x30FE DUP5 DUP4 PUSH1 0x0 PUSH2 0x449E JUMP JUMPDEST DUP1 ISZERO PUSH2 0x2A06 JUMPI PUSH2 0x2A06 DUP5 DUP5 PUSH1 0x1 PUSH2 0x1F42 JUMP JUMPDEST PUSH1 0x34 SLOAD PUSH1 0x40 DUP1 MLOAD PUSH4 0x85C858B1 PUSH1 0xE0 SHL DUP2 MSTORE SWAP1 MLOAD CALLER SWAP3 PUSH1 0x1 PUSH1 0x1 PUSH1 0xA0 SHL SUB AND SWAP2 PUSH4 0x85C858B1 SWAP2 PUSH1 0x4 DUP1 DUP4 ADD SWAP3 PUSH1 0x20 SWAP3 SWAP2 SWAP1 DUP3 SWAP1 SUB ADD DUP2 DUP7 DUP1 EXTCODESIZE ISZERO DUP1 ISZERO PUSH2 0x3154 JUMPI PUSH1 0x0 DUP1 REVERT JUMPDEST POP GAS STATICCALL ISZERO DUP1 ISZERO PUSH2 0x3168 JUMPI RETURNDATASIZE PUSH1 0x0 DUP1 RETURNDATACOPY RETURNDATASIZE PUSH1 0x0 REVERT JUMPDEST POP POP POP POP PUSH1 0x40 MLOAD RETURNDATASIZE PUSH1 0x20 DUP2 LT ISZERO PUSH2 0x317E JUMPI PUSH1 0x0 DUP1 REVERT JUMPDEST POP MLOAD PUSH1 0x1 PUSH1 0x1 PUSH1 0xA0 SHL SUB AND EQ PUSH2 0x31C5 JUMPI PUSH1 0x40 MLOAD PUSH3 0x461BCD PUSH1 0xE5 SHL DUP2 MSTORE PUSH1 0x4 ADD DUP1 DUP1 PUSH1 0x20 ADD DUP3 DUP2 SUB DUP3 MSTORE PUSH1 0x38 DUP2 MSTORE PUSH1 0x20 ADD DUP1 PUSH2 0x5CAA PUSH1 0x38 SWAP2 CODECOPY PUSH1 0x40 ADD SWAP2 POP POP PUSH1 0x40 MLOAD DUP1 SWAP2 SUB SWAP1 REVERT JUMPDEST PUSH1 0x1 PUSH1 0x1 PUSH1 0xA0 SHL SUB AND PUSH1 0x0 SWAP1 DUP2 MSTORE PUSH1 0x38 PUSH1 0x20 MSTORE PUSH1 0x40 SWAP1 KECCAK256 PUSH1 0x3 ADD DUP1 SLOAD PUSH5 0xFF00000000 NOT AND PUSH5 0x100000000 OR SWAP1 SSTORE JUMP JUMPDEST PUSH1 0x1 PUSH1 0x1 PUSH1 0xA0 SHL SUB AND PUSH1 0x0 SWAP1 DUP2 MSTORE PUSH1 0x38 PUSH1 0x20 MSTORE PUSH1 0x40 SWAP1 KECCAK256 PUSH1 0x7 ADD SLOAD SWAP1 JUMP JUMPDEST PUSH1 0x0 PUSH2 0x321C PUSH2 0x4DD0 JUMP JUMPDEST PUSH1 0x1 SLOAD SWAP1 SWAP2 POP PUSH1 0xFF AND DUP1 PUSH2 0x3233 JUMPI POP PUSH2 0x3233 PUSH2 0x4DD5 JUMP JUMPDEST DUP1 PUSH2 0x323F JUMPI POP PUSH1 0x0 SLOAD DUP2 GT JUMPDEST PUSH2 0x327A JUMPI PUSH1 0x40 MLOAD PUSH3 0x461BCD PUSH1 0xE5 SHL DUP2 MSTORE PUSH1 0x4 ADD DUP1 DUP1 PUSH1 0x20 ADD DUP3 DUP2 SUB DUP3 MSTORE PUSH1 0x2E DUP2 MSTORE PUSH1 0x20 ADD DUP1 PUSH2 0x5BAA PUSH1 0x2E SWAP2 CODECOPY PUSH1 0x40 ADD SWAP2 POP POP PUSH1 0x40 MLOAD DUP1 SWAP2 SUB SWAP1 REVERT JUMPDEST PUSH1 0x1 SLOAD PUSH1 0xFF AND ISZERO DUP1 ISZERO PUSH2 0x3299 JUMPI PUSH1 0x1 DUP1 SLOAD PUSH1 0xFF NOT AND DUP2 OR SWAP1 SSTORE PUSH1 0x0 DUP3 SWAP1 SSTORE JUMPDEST PUSH1 0x34 DUP1 SLOAD PUSH1 0x1 PUSH1 0x1 PUSH1 0xA0 SHL SUB NOT AND PUSH1 0x1 PUSH1 0x1 PUSH1 0xA0 SHL SUB DUP6 AND OR SWAP1 SSTORE PUSH2 0x32BC PUSH2 0x4923 JUMP JUMPDEST DUP1 ISZERO PUSH2 0x1D64 JUMPI PUSH1 0x1 DUP1 SLOAD PUSH1 0xFF NOT AND SWAP1 SSTORE POP POP POP JUMP JUMPDEST PUSH1 0x1 PUSH1 0x1 PUSH1 0xA0 SHL SUB AND PUSH1 0x0 SWAP1 DUP2 MSTORE PUSH1 0x38 PUSH1 0x20 MSTORE PUSH1 0x40 SWAP1 KECCAK256 PUSH1 0x2 DUP2 ADD SLOAD PUSH1 0xC DUP3 ADD SLOAD PUSH1 0xD DUP4 ADD SLOAD PUSH1 0x3 SWAP1 SWAP4 ADD SLOAD SWAP2 SWAP4 SWAP1 SWAP3 SWAP2 PUSH4 0x1000000 SWAP1 DIV PUSH1 0xFF AND SWAP1 JUMP JUMPDEST PUSH1 0x34 SLOAD PUSH1 0x1 PUSH1 0x1 PUSH1 0xA0 SHL SUB AND DUP2 JUMP JUMPDEST PUSH1 0x35 SLOAD PUSH1 0x1 PUSH1 0x1 PUSH1 0xA0 SHL SUB AND CALLER EQ PUSH2 0x3367 JUMPI PUSH1 0x40 MLOAD PUSH3 0x461BCD PUSH1 0xE5 SHL DUP2 MSTORE PUSH1 0x4 ADD DUP1 DUP1 PUSH1 0x20 ADD DUP3 DUP2 SUB DUP3 MSTORE PUSH1 0x2A DUP2 MSTORE PUSH1 0x20 ADD DUP1 PUSH2 0x5BD8 PUSH1 0x2A SWAP2 CODECOPY PUSH1 0x40 ADD SWAP2 POP POP PUSH1 0x40 MLOAD DUP1 SWAP2 SUB SWAP1 REVERT JUMPDEST DUP1 PUSH2 0x3370 PUSH2 0x464E JUMP JUMPDEST PUSH1 0x1 PUSH1 0x1 PUSH1 0xA0 SHL SUB AND DUP6 PUSH1 0x1 PUSH1 0x1 PUSH1 0xA0 SHL SUB AND EQ PUSH2 0x33E5 JUMPI CALLVALUE ISZERO PUSH2 0x33C5 JUMPI PUSH1 0x40 MLOAD PUSH3 0x461BCD PUSH1 0xE5 SHL DUP2 MSTORE PUSH1 0x4 ADD DUP1 DUP1 PUSH1 0x20 ADD DUP3 DUP2 SUB DUP3 MSTORE PUSH1 0x5F DUP2 MSTORE PUSH1 0x20 ADD DUP1 PUSH2 0x5B2A PUSH1 0x5F SWAP2 CODECOPY PUSH1 0x60 ADD SWAP2 POP POP PUSH1 0x40 MLOAD DUP1 SWAP2 SUB SWAP1 REVERT JUMPDEST PUSH2 0x33E0 PUSH1 0x1 PUSH1 0x1 PUSH1 0xA0 SHL SUB DUP7 AND DUP6 DUP4 DUP7 PUSH4 0xFFFFFFFF PUSH2 0x4666 AND JUMP JUMPDEST PUSH2 0x16DD JUMP JUMPDEST DUP3 CALLVALUE LT ISZERO PUSH2 0x3424 JUMPI PUSH1 0x40 MLOAD PUSH3 0x461BCD PUSH1 0xE5 SHL DUP2 MSTORE PUSH1 0x4 ADD DUP1 DUP1 PUSH1 0x20 ADD DUP3 DUP2 SUB DUP3 MSTORE PUSH1 0x35 DUP2 MSTORE PUSH1 0x20 ADD DUP1 PUSH2 0x5A43 PUSH1 0x35 SWAP2 CODECOPY PUSH1 0x40 ADD SWAP2 POP POP PUSH1 0x40 MLOAD DUP1 SWAP2 SUB SWAP1 REVERT JUMPDEST PUSH1 0x40 MLOAD PUSH1 0x0 SWAP1 PUSH1 0x1 PUSH1 0x1 PUSH1 0xA0 SHL SUB DUP4 AND SWAP1 PUSH2 0xC350 SWAP1 DUP7 SWAP1 DUP5 DUP2 DUP2 DUP2 DUP6 DUP9 DUP9 CALL SWAP4 POP POP POP POP RETURNDATASIZE DUP1 PUSH1 0x0 DUP2 EQ PUSH2 0x3474 JUMPI PUSH1 0x40 MLOAD SWAP2 POP PUSH1 0x1F NOT PUSH1 0x3F RETURNDATASIZE ADD AND DUP3 ADD PUSH1 0x40 MSTORE RETURNDATASIZE DUP3 MSTORE RETURNDATASIZE PUSH1 0x0 PUSH1 0x20 DUP5 ADD RETURNDATACOPY PUSH2 0x3479 JUMP JUMPDEST PUSH1 0x60 SWAP2 POP JUMPDEST POP POP SWAP1 POP DUP1 PUSH2 0x34C8 JUMPI PUSH1 0x40 DUP1 MLOAD PUSH3 0x461BCD PUSH1 0xE5 SHL DUP2 MSTORE PUSH1 0x20 PUSH1 0x4 DUP3 ADD MSTORE PUSH1 0x16 PUSH1 0x24 DUP3 ADD MSTORE PUSH22 0x151C985B9CD9995C881BD9881155120819985A5B1959 PUSH1 0x52 SHL PUSH1 0x44 DUP3 ADD MSTORE SWAP1 MLOAD SWAP1 DUP2 SWAP1 SUB PUSH1 0x64 ADD SWAP1 REVERT JUMPDEST POP POP POP POP POP POP JUMP JUMPDEST PUSH1 0x34 SLOAD PUSH1 0x40 DUP1 MLOAD PUSH4 0x85C858B1 PUSH1 0xE0 SHL DUP2 MSTORE SWAP1 MLOAD CALLER SWAP3 PUSH1 0x1 PUSH1 0x1 PUSH1 0xA0 SHL SUB AND SWAP2 PUSH4 0x85C858B1 SWAP2 PUSH1 0x4 DUP1 DUP4 ADD SWAP3 PUSH1 0x20 SWAP3 SWAP2 SWAP1 DUP3 SWAP1 SUB ADD DUP2 DUP7 DUP1 EXTCODESIZE ISZERO DUP1 ISZERO PUSH2 0x3514 JUMPI PUSH1 0x0 DUP1 REVERT JUMPDEST POP GAS STATICCALL ISZERO DUP1 ISZERO PUSH2 0x3528 JUMPI RETURNDATASIZE PUSH1 0x0 DUP1 RETURNDATACOPY RETURNDATASIZE PUSH1 0x0 REVERT JUMPDEST POP POP POP POP PUSH1 0x40 MLOAD RETURNDATASIZE PUSH1 0x20 DUP2 LT ISZERO PUSH2 0x353E JUMPI PUSH1 0x0 DUP1 REVERT JUMPDEST POP MLOAD PUSH1 0x1 PUSH1 0x1 PUSH1 0xA0 SHL SUB AND EQ PUSH2 0x3585 JUMPI PUSH1 0x40 MLOAD PUSH3 0x461BCD PUSH1 0xE5 SHL DUP2 MSTORE PUSH1 0x4 ADD DUP1 DUP1 PUSH1 0x20 ADD DUP3 DUP2 SUB DUP3 MSTORE PUSH1 0x38 DUP2 MSTORE PUSH1 0x20 ADD DUP1 PUSH2 0x5CAA PUSH1 0x38 SWAP2 CODECOPY PUSH1 0x40 ADD SWAP2 POP POP PUSH1 0x40 MLOAD DUP1 SWAP2 SUB SWAP1 REVERT JUMPDEST PUSH1 0x1 PUSH1 0x1 PUSH1 0xA0 SHL SUB SWAP1 SWAP2 AND PUSH1 0x0 SWAP1 DUP2 MSTORE PUSH1 0x38 PUSH1 0x20 MSTORE PUSH1 0x40 SWAP1 KECCAK256 PUSH1 0x2 ADD SSTORE JUMP JUMPDEST PUSH1 0x1 PUSH1 0x1 PUSH1 0xA0 SHL SUB AND PUSH1 0x0 SWAP1 DUP2 MSTORE PUSH1 0x38 PUSH1 0x20 MSTORE PUSH1 0x40 SWAP1 KECCAK256 PUSH1 0x3 ADD SLOAD PUSH4 0x1000000 SWAP1 DIV PUSH1 0xFF AND SWAP1 JUMP JUMPDEST PUSH1 0x1 PUSH1 0x1 PUSH1 0xA0 SHL SUB DUP2 AND PUSH1 0x0 SWAP1 DUP2 MSTORE PUSH1 0x38 PUSH1 0x20 MSTORE PUSH1 0x40 DUP2 KECCAK256 DUP2 PUSH2 0x35EE DUP3 PUSH2 0x4631 JUMP JUMPDEST SWAP1 POP DUP1 PUSH2 0x3600 JUMPI PUSH1 0x0 SWAP3 POP POP POP PUSH2 0x151F JUMP JUMPDEST PUSH1 0x0 PUSH2 0x360B DUP6 PUSH2 0x2A2A JUMP JUMPDEST SWAP1 POP PUSH2 0x362D PUSH2 0x3620 DUP3 DUP5 PUSH4 0xFFFFFFFF PUSH2 0x43DD AND JUMP JUMPDEST DUP4 SWAP1 PUSH4 0xFFFFFFFF PUSH2 0x4DDB AND JUMP JUMPDEST SWAP6 SWAP5 POP POP POP POP POP JUMP JUMPDEST PUSH1 0x36 SLOAD PUSH1 0x1 PUSH1 0x1 PUSH1 0xA0 SHL SUB AND DUP2 JUMP JUMPDEST PUSH1 0x35 SLOAD PUSH1 0x1 PUSH1 0x1 PUSH1 0xA0 SHL SUB AND DUP2 JUMP JUMPDEST PUSH1 0x35 SLOAD PUSH1 0x1 PUSH1 0x1 PUSH1 0xA0 SHL SUB AND CALLER EQ PUSH2 0x369D JUMPI PUSH1 0x40 MLOAD PUSH3 0x461BCD PUSH1 0xE5 SHL DUP2 MSTORE PUSH1 0x4 ADD DUP1 DUP1 PUSH1 0x20 ADD DUP3 DUP2 SUB DUP3 MSTORE PUSH1 0x2A DUP2 MSTORE PUSH1 0x20 ADD DUP1 PUSH2 0x5BD8 PUSH1 0x2A SWAP2 CODECOPY PUSH1 0x40 ADD SWAP2 POP POP PUSH1 0x40 MLOAD DUP1 SWAP2 SUB SWAP1 REVERT JUMPDEST PUSH1 0x36 SLOAD PUSH1 0x40 DUP1 MLOAD PUSH4 0xF8A56CD PUSH1 0xE3 SHL DUP2 MSTORE PUSH1 0x1 PUSH1 0x1 PUSH1 0xA0 SHL SUB DUP10 DUP2 AND PUSH1 0x4 DUP4 ADD MSTORE SWAP2 MLOAD SWAP2 SWAP1 SWAP3 AND SWAP2 PUSH4 0x7C52B668 SWAP2 PUSH1 0x24 DUP1 DUP4 ADD SWAP3 PUSH1 0x20 SWAP3 SWAP2 SWAP1 DUP3 SWAP1 SUB ADD DUP2 PUSH1 0x0 DUP8 DUP1 EXTCODESIZE ISZERO DUP1 ISZERO PUSH2 0x36EC JUMPI PUSH1 0x0 DUP1 REVERT JUMPDEST POP GAS CALL ISZERO DUP1 ISZERO PUSH2 0x3700 JUMPI RETURNDATASIZE PUSH1 0x0 DUP1 RETURNDATACOPY RETURNDATASIZE PUSH1 0x0 REVERT JUMPDEST POP POP POP POP PUSH1 0x40 MLOAD RETURNDATASIZE PUSH1 0x20 DUP2 LT ISZERO PUSH2 0x3716 JUMPI PUSH1 0x0 DUP1 REVERT JUMPDEST POP POP PUSH1 0x1 PUSH1 0x1 PUSH1 0xA0 SHL SUB DUP1 DUP8 AND PUSH1 0x0 SWAP1 DUP2 MSTORE PUSH1 0x38 PUSH1 0x20 MSTORE PUSH1 0x40 DUP1 DUP3 KECCAK256 SLOAD DUP2 MLOAD PUSH4 0x69E61C0F PUSH1 0xE1 SHL DUP2 MSTORE DUP10 DUP6 AND PUSH1 0x4 DUP3 ADD MSTORE SWAP2 MLOAD SWAP4 AND SWAP3 DUP4 SWAP3 PUSH4 0xD3CC381E SWAP3 PUSH1 0x24 DUP1 DUP3 ADD SWAP4 SWAP2 DUP3 SWAP1 SUB ADD DUP2 DUP4 DUP8 DUP1 EXTCODESIZE ISZERO DUP1 ISZERO PUSH2 0x3770 JUMPI PUSH1 0x0 DUP1 REVERT JUMPDEST POP GAS CALL ISZERO DUP1 ISZERO PUSH2 0x3784 JUMPI RETURNDATASIZE PUSH1 0x0 DUP1 RETURNDATACOPY RETURNDATASIZE PUSH1 0x0 REVERT JUMPDEST POP POP POP POP PUSH2 0x3794 DUP8 DUP8 DUP8 DUP7 PUSH2 0x4E17 JUMP JUMPDEST PUSH2 0x37A2 DUP8 DUP8 DUP8 DUP8 DUP8 DUP8 PUSH2 0x4E7B JUMP JUMPDEST PUSH2 0x37AE DUP8 DUP7 PUSH1 0x0 PUSH2 0x449E JUMP JUMPDEST POP POP POP POP POP POP POP JUMP JUMPDEST PUSH1 0x34 SLOAD PUSH1 0x40 DUP1 MLOAD PUSH4 0x85C858B1 PUSH1 0xE0 SHL DUP2 MSTORE SWAP1 MLOAD CALLER SWAP3 PUSH1 0x1 PUSH1 0x1 PUSH1 0xA0 SHL SUB AND SWAP2 PUSH4 0x85C858B1 SWAP2 PUSH1 0x4 DUP1 DUP4 ADD SWAP3 PUSH1 0x20 SWAP3 SWAP2 SWAP1 DUP3 SWAP1 SUB ADD DUP2 DUP7 DUP1 EXTCODESIZE ISZERO DUP1 ISZERO PUSH2 0x37FB JUMPI PUSH1 0x0 DUP1 REVERT JUMPDEST POP GAS STATICCALL ISZERO DUP1 ISZERO PUSH2 0x380F JUMPI RETURNDATASIZE PUSH1 0x0 DUP1 RETURNDATACOPY RETURNDATASIZE PUSH1 0x0 REVERT JUMPDEST POP POP POP POP PUSH1 0x40 MLOAD RETURNDATASIZE PUSH1 0x20 DUP2 LT ISZERO PUSH2 0x3825 JUMPI PUSH1 0x0 DUP1 REVERT JUMPDEST POP MLOAD PUSH1 0x1 PUSH1 0x1 PUSH1 0xA0 SHL SUB AND EQ PUSH2 0x386C JUMPI PUSH1 0x40 MLOAD PUSH3 0x461BCD PUSH1 0xE5 SHL DUP2 MSTORE PUSH1 0x4 ADD DUP1 DUP1 PUSH1 0x20 ADD DUP3 DUP2 SUB DUP3 MSTORE PUSH1 0x38 DUP2 MSTORE PUSH1 0x20 ADD DUP1 PUSH2 0x5CAA PUSH1 0x38 SWAP2 CODECOPY PUSH1 0x40 ADD SWAP2 POP POP PUSH1 0x40 MLOAD DUP1 SWAP2 SUB SWAP1 REVERT JUMPDEST PUSH1 0x1 PUSH1 0x1 PUSH1 0xA0 SHL SUB DUP2 AND PUSH1 0x0 SWAP1 DUP2 MSTORE PUSH1 0x38 PUSH1 0x20 MSTORE PUSH1 0x40 SWAP1 KECCAK256 PUSH1 0xB DUP2 ADD SLOAD ISZERO DUP1 ISZERO SWAP1 PUSH2 0x389B JUMPI POP PUSH1 0x0 DUP2 PUSH1 0xA ADD SLOAD GT JUMPDEST PUSH2 0x38D6 JUMPI PUSH1 0x40 MLOAD PUSH3 0x461BCD PUSH1 0xE5 SHL DUP2 MSTORE PUSH1 0x4 ADD DUP1 DUP1 PUSH1 0x20 ADD DUP3 DUP2 SUB DUP3 MSTORE PUSH1 0x27 DUP2 MSTORE PUSH1 0x20 ADD DUP1 PUSH2 0x5B03 PUSH1 0x27 SWAP2 CODECOPY PUSH1 0x40 ADD SWAP2 POP POP PUSH1 0x40 MLOAD DUP1 SWAP2 SUB SWAP1 REVERT JUMPDEST PUSH1 0x3 ADD DUP1 SLOAD PUSH1 0xFF NOT AND PUSH1 0x1 OR SWAP1 SSTORE POP JUMP JUMPDEST PUSH1 0x1 PUSH1 0x1 PUSH1 0xA0 SHL SUB AND PUSH1 0x0 SWAP1 DUP2 MSTORE PUSH1 0x38 PUSH1 0x20 MSTORE PUSH1 0x40 SWAP1 KECCAK256 PUSH1 0x2 ADD SLOAD SWAP1 JUMP JUMPDEST PUSH1 0x1 PUSH1 0x1 PUSH1 0xA0 SHL SUB DUP4 DUP2 AND PUSH1 0x0 DUP2 DUP2 MSTORE PUSH1 0x38 PUSH1 0x20 SWAP1 DUP2 MSTORE PUSH1 0x40 DUP1 DUP4 KECCAK256 SWAP5 DUP8 AND DUP4 MSTORE PUSH1 0x39 DUP3 MSTORE DUP1 DUP4 KECCAK256 SWAP4 DUP4 MSTORE SWAP3 SWAP1 MSTORE SWAP1 DUP2 KECCAK256 PUSH1 0x3 DUP4 ADD SLOAD SWAP2 SWAP3 SWAP2 PUSH5 0x100000000 SWAP1 DIV PUSH1 0xFF AND PUSH2 0x3958 JUMPI PUSH1 0x0 SWAP3 POP POP POP PUSH2 0x1D8A JUMP JUMPDEST DUP1 SLOAD PUSH1 0xFF AND ISZERO DUP1 PUSH2 0x3975 JUMPI POP PUSH1 0x3 DUP3 ADD SLOAD PUSH4 0x1000000 SWAP1 DIV PUSH1 0xFF AND ISZERO JUMPDEST DUP1 PUSH2 0x3988 JUMPI POP PUSH2 0x3985 DUP7 DUP7 PUSH2 0x1996 JUMP JUMPDEST DUP5 GT JUMPDEST SWAP7 SWAP6 POP POP POP POP POP POP JUMP JUMPDEST PUSH1 0x34 SLOAD PUSH1 0x40 DUP1 MLOAD PUSH4 0x85C858B1 PUSH1 0xE0 SHL DUP2 MSTORE SWAP1 MLOAD CALLER SWAP3 PUSH1 0x1 PUSH1 0x1 PUSH1 0xA0 SHL SUB AND SWAP2 PUSH4 0x85C858B1 SWAP2 PUSH1 0x4 DUP1 DUP4 ADD SWAP3 PUSH1 0x20 SWAP3 SWAP2 SWAP1 DUP3 SWAP1 SUB ADD DUP2 DUP7 DUP1 EXTCODESIZE ISZERO DUP1 ISZERO PUSH2 0x39D6 JUMPI PUSH1 0x0 DUP1 REVERT JUMPDEST POP GAS STATICCALL ISZERO DUP1 ISZERO PUSH2 0x39EA JUMPI RETURNDATASIZE PUSH1 0x0 DUP1 RETURNDATACOPY RETURNDATASIZE PUSH1 0x0 REVERT JUMPDEST POP POP POP POP PUSH1 0x40 MLOAD RETURNDATASIZE PUSH1 0x20 DUP2 LT ISZERO PUSH2 0x3A00 JUMPI PUSH1 0x0 DUP1 REVERT JUMPDEST POP MLOAD PUSH1 0x1 PUSH1 0x1 PUSH1 0xA0 SHL SUB AND EQ PUSH2 0x3A47 JUMPI PUSH1 0x40 MLOAD PUSH3 0x461BCD PUSH1 0xE5 SHL DUP2 MSTORE PUSH1 0x4 ADD DUP1 DUP1 PUSH1 0x20 ADD DUP3 DUP2 SUB DUP3 MSTORE PUSH1 0x38 DUP2 MSTORE PUSH1 0x20 ADD DUP1 PUSH2 0x5CAA PUSH1 0x38 SWAP2 CODECOPY PUSH1 0x40 ADD SWAP2 POP POP PUSH1 0x40 MLOAD DUP1 SWAP2 SUB SWAP1 REVERT JUMPDEST PUSH1 0x1 PUSH1 0x1 PUSH1 0xA0 SHL SUB DUP5 AND PUSH1 0x0 SWAP1 DUP2 MSTORE PUSH1 0x38 PUSH1 0x20 MSTORE PUSH1 0x40 DUP1 DUP3 KECCAK256 DUP2 MLOAD PUSH4 0x897C1247 PUSH1 0xE0 SHL DUP2 MSTORE PUSH1 0x4 DUP2 ADD SWAP2 SWAP1 SWAP2 MSTORE PUSH1 0x24 DUP2 ADD DUP7 SWAP1 MSTORE PUSH1 0x44 DUP2 ADD DUP6 SWAP1 MSTORE PUSH1 0x64 DUP2 ADD DUP5 SWAP1 MSTORE SWAP1 MLOAD PUSH20 0x0 SWAP3 PUSH4 0x897C1247 SWAP3 PUSH1 0x84 DUP1 DUP3 ADD SWAP4 SWAP2 DUP3 SWAP1 SUB ADD DUP2 DUP7 DUP1 EXTCODESIZE ISZERO DUP1 ISZERO PUSH2 0x3AC2 JUMPI PUSH1 0x0 DUP1 REVERT JUMPDEST POP GAS DELEGATECALL ISZERO DUP1 ISZERO PUSH2 0x3AD6 JUMPI RETURNDATASIZE PUSH1 0x0 DUP1 RETURNDATACOPY RETURNDATASIZE PUSH1 0x0 REVERT JUMPDEST POP POP POP POP POP POP POP POP JUMP JUMPDEST PUSH1 0x34 SLOAD PUSH1 0x40 DUP1 MLOAD PUSH4 0x85C858B1 PUSH1 0xE0 SHL DUP2 MSTORE SWAP1 MLOAD CALLER SWAP3 PUSH1 0x1 PUSH1 0x1 PUSH1 0xA0 SHL SUB AND SWAP2 PUSH4 0x85C858B1 SWAP2 PUSH1 0x4 DUP1 DUP4 ADD SWAP3 PUSH1 0x20 SWAP3 SWAP2 SWAP1 DUP3 SWAP1 SUB ADD DUP2 DUP7 DUP1 EXTCODESIZE ISZERO DUP1 ISZERO PUSH2 0x3B24 JUMPI PUSH1 0x0 DUP1 REVERT JUMPDEST POP GAS STATICCALL ISZERO DUP1 ISZERO PUSH2 0x3B38 JUMPI RETURNDATASIZE PUSH1 0x0 DUP1 RETURNDATACOPY RETURNDATASIZE PUSH1 0x0 REVERT JUMPDEST POP POP POP POP PUSH1 0x40 MLOAD RETURNDATASIZE PUSH1 0x20 DUP2 LT ISZERO PUSH2 0x3B4E JUMPI PUSH1 0x0 DUP1 REVERT JUMPDEST POP MLOAD PUSH1 0x1 PUSH1 0x1 PUSH1 0xA0 SHL SUB AND EQ PUSH2 0x3B95 JUMPI PUSH1 0x40 MLOAD PUSH3 0x461BCD PUSH1 0xE5 SHL DUP2 MSTORE PUSH1 0x4 ADD DUP1 DUP1 PUSH1 0x20 ADD DUP3 DUP2 SUB DUP3 MSTORE PUSH1 0x38 DUP2 MSTORE PUSH1 0x20 ADD DUP1 PUSH2 0x5CAA PUSH1 0x38 SWAP2 CODECOPY PUSH1 0x40 ADD SWAP2 POP POP PUSH1 0x40 MLOAD DUP1 SWAP2 SUB SWAP1 REVERT JUMPDEST PUSH1 0x1 PUSH1 0x1 PUSH1 0xA0 SHL SUB DUP2 AND PUSH1 0x0 SWAP1 DUP2 MSTORE PUSH1 0x38 PUSH1 0x20 MSTORE PUSH1 0x40 DUP1 DUP3 KECCAK256 DUP2 MLOAD PUSH4 0xDF5D4113 PUSH1 0xE0 SHL DUP2 MSTORE PUSH1 0x4 DUP2 ADD SWAP2 SWAP1 SWAP2 MSTORE SWAP1 MLOAD PUSH20 0x0 SWAP3 PUSH4 0xDF5D4113 SWAP3 PUSH1 0x24 DUP1 DUP3 ADD SWAP4 SWAP2 DUP3 SWAP1 SUB ADD DUP2 DUP7 DUP1 EXTCODESIZE ISZERO DUP1 ISZERO PUSH2 0x1982 JUMPI PUSH1 0x0 DUP1 REVERT JUMPDEST PUSH1 0x34 SLOAD PUSH1 0x40 DUP1 MLOAD PUSH4 0x85C858B1 PUSH1 0xE0 SHL DUP2 MSTORE SWAP1 MLOAD CALLER SWAP3 PUSH1 0x1 PUSH1 0x1 PUSH1 0xA0 SHL SUB AND SWAP2 PUSH4 0x85C858B1 SWAP2 PUSH1 0x4 DUP1 DUP4 ADD SWAP3 PUSH1 0x20 SWAP3 SWAP2 SWAP1 DUP3 SWAP1 SUB ADD DUP2 DUP7 DUP1 EXTCODESIZE ISZERO DUP1 ISZERO PUSH2 0x3C3F JUMPI PUSH1 0x0 DUP1 REVERT JUMPDEST POP GAS STATICCALL ISZERO DUP1 ISZERO PUSH2 0x3C53 JUMPI RETURNDATASIZE PUSH1 0x0 DUP1 RETURNDATACOPY RETURNDATASIZE PUSH1 0x0 REVERT JUMPDEST POP POP POP POP PUSH1 0x40 MLOAD RETURNDATASIZE PUSH1 0x20 DUP2 LT ISZERO PUSH2 0x3C69 JUMPI PUSH1 0x0 DUP1 REVERT JUMPDEST POP MLOAD PUSH1 0x1 PUSH1 0x1 PUSH1 0xA0 SHL SUB AND EQ PUSH2 0x3CB0 JUMPI PUSH1 0x40 MLOAD PUSH3 0x461BCD PUSH1 0xE5 SHL DUP2 MSTORE PUSH1 0x4 ADD DUP1 DUP1 PUSH1 0x20 ADD DUP3 DUP2 SUB DUP3 MSTORE PUSH1 0x38 DUP2 MSTORE PUSH1 0x20 ADD DUP1 PUSH2 0x5CAA PUSH1 0x38 SWAP2 CODECOPY PUSH1 0x40 ADD SWAP2 POP POP PUSH1 0x40 MLOAD DUP1 SWAP2 SUB SWAP1 REVERT JUMPDEST PUSH1 0x1 PUSH1 0x1 PUSH1 0xA0 SHL SUB DUP1 DUP6 AND PUSH1 0x0 SWAP1 DUP2 MSTORE PUSH1 0x38 PUSH1 0x20 MSTORE PUSH1 0x40 DUP1 DUP3 KECCAK256 DUP2 MLOAD PUSH4 0x710D44ED PUSH1 0xE1 SHL DUP2 MSTORE PUSH1 0x4 DUP2 ADD SWAP2 SWAP1 SWAP2 MSTORE DUP7 DUP5 AND PUSH1 0x24 DUP3 ADD MSTORE PUSH1 0x44 DUP2 ADD DUP7 SWAP1 MSTORE SWAP3 DUP5 AND PUSH1 0x64 DUP5 ADD MSTORE MLOAD PUSH20 0x0 SWAP3 PUSH4 0xE21A89DA SWAP3 PUSH1 0x84 DUP1 DUP4 ADD SWAP4 SWAP2 SWAP3 DUP3 SWAP1 SUB ADD DUP2 DUP7 DUP1 EXTCODESIZE ISZERO DUP1 ISZERO PUSH2 0x3D2E JUMPI PUSH1 0x0 DUP1 REVERT JUMPDEST POP GAS DELEGATECALL ISZERO DUP1 ISZERO PUSH2 0x3D42 JUMPI RETURNDATASIZE PUSH1 0x0 DUP1 RETURNDATACOPY RETURNDATASIZE PUSH1 0x0 REVERT JUMPDEST POP POP POP POP PUSH2 0x3D4F DUP5 PUSH2 0x4EFE JUMP JUMPDEST PUSH1 0x36 SLOAD PUSH1 0x40 DUP1 MLOAD PUSH4 0xA577CCB PUSH1 0xE3 SHL DUP2 MSTORE PUSH1 0x1 PUSH1 0x1 PUSH1 0xA0 SHL SUB DUP8 DUP2 AND PUSH1 0x4 DUP4 ADD MSTORE DUP7 DUP2 AND PUSH1 0x24 DUP4 ADD MSTORE PUSH1 0x44 DUP3 ADD DUP7 SWAP1 MSTORE SWAP2 MLOAD SWAP2 SWAP1 SWAP3 AND SWAP2 PUSH4 0x52BBE658 SWAP2 PUSH1 0x64 DUP1 DUP4 ADD SWAP3 PUSH1 0x20 SWAP3 SWAP2 SWAP1 DUP3 SWAP1 SUB ADD DUP2 PUSH1 0x0 DUP8 DUP1 EXTCODESIZE ISZERO DUP1 ISZERO PUSH2 0x3DAD JUMPI PUSH1 0x0 DUP1 REVERT JUMPDEST POP GAS CALL ISZERO DUP1 ISZERO PUSH2 0x3DC1 JUMPI RETURNDATASIZE PUSH1 0x0 DUP1 RETURNDATACOPY RETURNDATASIZE PUSH1 0x0 REVERT JUMPDEST POP POP POP POP PUSH1 0x40 MLOAD RETURNDATASIZE PUSH1 0x20 DUP2 LT ISZERO PUSH2 0x3DD7 JUMPI PUSH1 0x0 DUP1 REVERT JUMPDEST POP MLOAD PUSH2 0x2A06 JUMPI PUSH1 0x40 MLOAD PUSH3 0x461BCD PUSH1 0xE5 SHL DUP2 MSTORE PUSH1 0x4 ADD DUP1 DUP1 PUSH1 0x20 ADD DUP3 DUP2 SUB DUP3 MSTORE PUSH1 0x5B DUP2 MSTORE PUSH1 0x20 ADD DUP1 PUSH2 0x5C02 PUSH1 0x5B SWAP2 CODECOPY PUSH1 0x60 ADD SWAP2 POP POP PUSH1 0x40 MLOAD DUP1 SWAP2 SUB SWAP1 REVERT JUMPDEST PUSH1 0x1 PUSH1 0x1 PUSH1 0xA0 SHL SUB DUP1 DUP3 AND PUSH1 0x0 SWAP1 DUP2 MSTORE PUSH1 0x39 PUSH1 0x20 SWAP1 DUP2 MSTORE PUSH1 0x40 DUP1 DUP4 KECCAK256 SWAP4 DUP7 AND DUP4 MSTORE SWAP3 SWAP1 MSTORE KECCAK256 SLOAD PUSH1 0xFF AND SWAP3 SWAP2 POP POP JUMP JUMPDEST PUSH1 0x1 PUSH1 0x1 PUSH1 0xA0 SHL SUB AND PUSH1 0x0 SWAP1 DUP2 MSTORE PUSH1 0x38 PUSH1 0x20 MSTORE PUSH1 0x40 SWAP1 KECCAK256 PUSH1 0xE ADD SLOAD SWAP1 JUMP JUMPDEST PUSH1 0x35 SLOAD PUSH1 0x0 SWAP1 DUP2 SWAP1 PUSH1 0x1 PUSH1 0x1 PUSH1 0xA0 SHL SUB AND CALLER EQ PUSH2 0x3EAF JUMPI PUSH1 0x40 MLOAD PUSH3 0x461BCD PUSH1 0xE5 SHL DUP2 MSTORE PUSH1 0x4 ADD DUP1 DUP1 PUSH1 0x20 ADD DUP3 DUP2 SUB DUP3 MSTORE PUSH1 0x2A DUP2 MSTORE PUSH1 0x20 ADD DUP1 PUSH2 0x5BD8 PUSH1 0x2A SWAP2 CODECOPY PUSH1 0x40 ADD SWAP2 POP POP PUSH1 0x40 MLOAD DUP1 SWAP2 SUB SWAP1 REVERT JUMPDEST PUSH1 0x36 SLOAD PUSH1 0x40 DUP1 MLOAD PUSH4 0xF8A56CD PUSH1 0xE3 SHL DUP2 MSTORE PUSH1 0x1 PUSH1 0x1 PUSH1 0xA0 SHL SUB DUP12 DUP2 AND PUSH1 0x4 DUP4 ADD MSTORE SWAP2 MLOAD SWAP2 SWAP1 SWAP3 AND SWAP2 PUSH4 0x7C52B668 SWAP2 PUSH1 0x24 DUP1 DUP4 ADD SWAP3 PUSH1 0x20 SWAP3 SWAP2 SWAP1 DUP3 SWAP1 SUB ADD DUP2 PUSH1 0x0 DUP8 DUP1 EXTCODESIZE ISZERO DUP1 ISZERO PUSH2 0x3EFE JUMPI PUSH1 0x0 DUP1 REVERT JUMPDEST POP GAS CALL ISZERO DUP1 ISZERO PUSH2 0x3F12 JUMPI RETURNDATASIZE PUSH1 0x0 DUP1 RETURNDATACOPY RETURNDATASIZE PUSH1 0x0 REVERT JUMPDEST POP POP POP POP PUSH1 0x40 MLOAD RETURNDATASIZE PUSH1 0x20 DUP2 LT ISZERO PUSH2 0x3F28 JUMPI PUSH1 0x0 DUP1 REVERT JUMPDEST POP POP PUSH1 0x1 PUSH1 0x1 PUSH1 0xA0 SHL SUB DUP1 DUP10 AND PUSH1 0x0 SWAP1 DUP2 MSTORE PUSH1 0x38 PUSH1 0x20 MSTORE PUSH1 0x40 DUP1 DUP3 KECCAK256 SLOAD DUP2 MLOAD PUSH4 0x69E61C0F PUSH1 0xE1 SHL DUP2 MSTORE DUP12 DUP6 AND PUSH1 0x4 DUP3 ADD MSTORE SWAP2 MLOAD SWAP4 AND SWAP3 DUP4 SWAP3 PUSH4 0xD3CC381E SWAP3 PUSH1 0x24 DUP1 DUP3 ADD SWAP4 SWAP2 DUP3 SWAP1 SUB ADD DUP2 DUP4 DUP8 DUP1 EXTCODESIZE ISZERO DUP1 ISZERO PUSH2 0x3F82 JUMPI PUSH1 0x0 DUP1 REVERT JUMPDEST POP GAS CALL ISZERO DUP1 ISZERO PUSH2 0x3F96 JUMPI RETURNDATASIZE PUSH1 0x0 DUP1 RETURNDATACOPY RETURNDATASIZE PUSH1 0x0 REVERT JUMPDEST POP POP POP POP PUSH2 0x3FA7 DUP10 DUP10 DUP10 DUP10 DUP9 PUSH2 0x4FA2 JUMP JUMPDEST PUSH1 0x0 PUSH2 0x3FB5 DUP11 DUP11 DUP9 DUP9 PUSH2 0x50A1 JUMP JUMPDEST SWAP1 POP PUSH2 0x3FC3 DUP11 PUSH1 0x0 DUP1 PUSH2 0x449E JUMP JUMPDEST DUP1 PUSH2 0x3FCE DUP12 DUP12 PUSH2 0x4891 JUMP JUMPDEST SWAP4 POP SWAP4 POP POP POP SWAP7 POP SWAP7 SWAP5 POP POP POP POP POP JUMP JUMPDEST PUSH1 0x1 PUSH1 0x1 PUSH1 0xA0 SHL SUB DUP1 DUP3 AND PUSH1 0x0 SWAP1 DUP2 MSTORE PUSH1 0x39 PUSH1 0x20 SWAP1 DUP2 MSTORE PUSH1 0x40 DUP1 DUP4 KECCAK256 SWAP4 DUP7 AND DUP4 MSTORE SWAP3 SWAP1 MSTORE KECCAK256 PUSH1 0x3 ADD SLOAD SWAP3 SWAP2 POP POP JUMP JUMPDEST PUSH1 0x35 SLOAD PUSH1 0x1 PUSH1 0x1 PUSH1 0xA0 SHL SUB AND CALLER EQ PUSH2 0x4057 JUMPI PUSH1 0x40 MLOAD PUSH3 0x461BCD PUSH1 0xE5 SHL DUP2 MSTORE PUSH1 0x4 ADD DUP1 DUP1 PUSH1 0x20 ADD DUP3 DUP2 SUB DUP3 MSTORE PUSH1 0x2A DUP2 MSTORE PUSH1 0x20 ADD DUP1 PUSH2 0x5BD8 PUSH1 0x2A SWAP2 CODECOPY PUSH1 0x40 ADD SWAP2 POP POP PUSH1 0x40 MLOAD DUP1 SWAP2 SUB SWAP1 REVERT JUMPDEST PUSH2 0x405F PUSH2 0x464E JUMP JUMPDEST PUSH1 0x1 PUSH1 0x1 PUSH1 0xA0 SHL SUB AND DUP4 PUSH1 0x1 PUSH1 0x1 PUSH1 0xA0 SHL SUB AND EQ PUSH2 0x4091 JUMPI PUSH2 0x1C5F PUSH1 0x1 PUSH1 0x1 PUSH1 0xA0 SHL SUB DUP5 AND DUP4 DUP4 PUSH4 0xFFFFFFFF PUSH2 0x4BCF AND JUMP JUMPDEST PUSH1 0x40 MLOAD PUSH1 0x0 SWAP1 PUSH1 0x1 PUSH1 0x1 PUSH1 0xA0 SHL SUB DUP5 AND SWAP1 PUSH2 0xC350 SWAP1 DUP5 SWAP1 DUP5 DUP2 DUP2 DUP2 DUP6 DUP9 DUP9 CALL SWAP4 POP POP POP POP RETURNDATASIZE DUP1 PUSH1 0x0 DUP2 EQ PUSH2 0x40E1 JUMPI PUSH1 0x40 MLOAD SWAP2 POP PUSH1 0x1F NOT PUSH1 0x3F RETURNDATASIZE ADD AND DUP3 ADD PUSH1 0x40 MSTORE RETURNDATASIZE DUP3 MSTORE RETURNDATASIZE PUSH1 0x0 PUSH1 0x20 DUP5 ADD RETURNDATACOPY PUSH2 0x40E6 JUMP JUMPDEST PUSH1 0x60 SWAP2 POP JUMPDEST POP POP SWAP1 POP DUP1 PUSH2 0x2A06 JUMPI PUSH1 0x40 DUP1 MLOAD PUSH3 0x461BCD PUSH1 0xE5 SHL DUP2 MSTORE PUSH1 0x20 PUSH1 0x4 DUP3 ADD MSTORE PUSH1 0x16 PUSH1 0x24 DUP3 ADD MSTORE PUSH22 0x151C985B9CD9995C881BD9881155120819985A5B1959 PUSH1 0x52 SHL PUSH1 0x44 DUP3 ADD MSTORE SWAP1 MLOAD SWAP1 DUP2 SWAP1 SUB PUSH1 0x64 ADD SWAP1 REVERT JUMPDEST PUSH1 0x1 PUSH1 0x1 PUSH1 0xA0 SHL SUB AND PUSH1 0x0 SWAP1 DUP2 MSTORE PUSH1 0x38 PUSH1 0x20 MSTORE PUSH1 0x40 SWAP1 KECCAK256 PUSH1 0x9 ADD SLOAD SWAP1 JUMP JUMPDEST PUSH1 0x1 PUSH1 0x1 PUSH1 0xA0 SHL SUB DUP1 DUP4 AND PUSH1 0x0 DUP2 DUP2 MSTORE PUSH1 0x38 PUSH1 0x20 SWAP1 DUP2 MSTORE PUSH1 0x40 DUP1 DUP4 KECCAK256 SWAP5 DUP7 AND DUP4 MSTORE PUSH1 0x39 DUP3 MSTORE DUP1 DUP4 KECCAK256 SWAP4 DUP4 MSTORE SWAP3 SWAP1 MSTORE SWAP1 DUP2 KECCAK256 SWAP1 SWAP2 DUP3 SWAP2 DUP3 SWAP2 DUP3 SWAP2 DUP3 PUSH2 0x4197 DUP10 DUP10 PUSH2 0x1996 JUMP JUMPDEST SWAP1 POP DUP2 PUSH1 0x1 ADD SLOAD PUSH1 0x0 EQ ISZERO PUSH2 0x41BE JUMPI SWAP1 SLOAD SWAP1 SWAP6 POP PUSH1 0x0 SWAP5 POP DUP5 SWAP4 POP PUSH1 0xFF AND SWAP2 POP PUSH2 0x41E6 SWAP1 POP JUMP JUMPDEST DUP1 PUSH2 0x41CF DUP4 DUP6 PUSH4 0xFFFFFFFF PUSH2 0x4C21 AND JUMP JUMPDEST PUSH1 0x4 DUP5 ADD SLOAD SWAP4 SLOAD SWAP2 SWAP9 POP SWAP7 POP SWAP2 SWAP5 POP POP PUSH1 0xFF AND SWAP2 POP POP JUMPDEST SWAP3 SWAP6 SWAP2 SWAP5 POP SWAP3 POP JUMP JUMPDEST PUSH1 0x1 PUSH1 0x1 PUSH1 0xA0 SHL SUB DUP1 DUP3 AND PUSH1 0x0 SWAP1 DUP2 MSTORE PUSH1 0x39 PUSH1 0x20 SWAP1 DUP2 MSTORE PUSH1 0x40 DUP1 DUP4 KECCAK256 SWAP4 DUP7 AND DUP4 MSTORE SWAP3 SWAP1 MSTORE KECCAK256 PUSH1 0x4 ADD SLOAD SWAP3 SWAP2 POP POP JUMP JUMPDEST PUSH1 0x37 DUP2 DUP2 SLOAD DUP2 LT PUSH2 0x422B JUMPI INVALID JUMPDEST PUSH1 0x0 SWAP2 DUP3 MSTORE PUSH1 0x20 SWAP1 SWAP2 KECCAK256 ADD SLOAD PUSH1 0x1 PUSH1 0x1 PUSH1 0xA0 SHL SUB AND SWAP1 POP DUP2 JUMP JUMPDEST PUSH1 0x1 PUSH1 0x1 PUSH1 0xA0 SHL SUB AND PUSH1 0x0 SWAP1 DUP2 MSTORE PUSH1 0x38 PUSH1 0x20 MSTORE PUSH1 0x40 SWAP1 KECCAK256 PUSH1 0xF ADD SLOAD PUSH5 0xFFFFFFFFFF AND SWAP1 JUMP JUMPDEST PUSH1 0x34 SLOAD PUSH1 0x40 DUP1 MLOAD PUSH4 0x1DB4F569 PUSH1 0xE0 SHL DUP2 MSTORE SWAP1 MLOAD PUSH1 0x0 SWAP3 PUSH1 0x1 PUSH1 0x1 PUSH1 0xA0 SHL SUB AND SWAP2 PUSH4 0x1DB4F569 SWAP2 PUSH1 0x4 DUP1 DUP4 ADD SWAP3 PUSH1 0x20 SWAP3 SWAP2 SWAP1 DUP3 SWAP1 SUB ADD DUP2 DUP7 DUP1 EXTCODESIZE ISZERO DUP1 ISZERO PUSH2 0x42AF JUMPI PUSH1 0x0 DUP1 REVERT JUMPDEST POP GAS STATICCALL ISZERO DUP1 ISZERO PUSH2 0x42C3 JUMPI RETURNDATASIZE PUSH1 0x0 DUP1 RETURNDATACOPY RETURNDATASIZE PUSH1 0x0 REVERT JUMPDEST POP POP POP POP PUSH1 0x40 MLOAD RETURNDATASIZE PUSH1 0x20 DUP2 LT ISZERO PUSH2 0x42D9 JUMPI PUSH1 0x0 DUP1 REVERT JUMPDEST POP MLOAD SWAP1 POP PUSH2 0x42E5 PUSH2 0x464E JUMP JUMPDEST PUSH1 0x1 PUSH1 0x1 PUSH1 0xA0 SHL SUB AND DUP4 PUSH1 0x1 PUSH1 0x1 PUSH1 0xA0 SHL SUB AND EQ PUSH2 0x4317 JUMPI PUSH2 0x1C5F PUSH1 0x1 PUSH1 0x1 PUSH1 0xA0 SHL SUB DUP5 AND DUP3 DUP5 PUSH4 0xFFFFFFFF PUSH2 0x4BCF AND JUMP JUMPDEST PUSH1 0x40 MLOAD PUSH1 0x1 PUSH1 0x1 PUSH1 0xA0 SHL SUB DUP3 AND SWAP1 DUP4 ISZERO PUSH2 0x8FC MUL SWAP1 DUP5 SWAP1 PUSH1 0x0 DUP2 DUP2 DUP2 DUP6 DUP9 DUP9 CALL SWAP4 POP POP POP POP ISZERO DUP1 ISZERO PUSH2 0x2A06 JUMPI RETURNDATASIZE PUSH1 0x0 DUP1 RETURNDATACOPY RETURNDATASIZE PUSH1 0x0 REVERT JUMPDEST PUSH1 0x0 PUSH2 0x4358 DUP3 PUSH2 0x4631 JUMP JUMPDEST SWAP1 POP DUP1 ISZERO PUSH2 0x43D9 JUMPI PUSH1 0x6 DUP3 ADD SLOAD PUSH1 0xF DUP4 ADD SLOAD PUSH1 0x0 SWAP2 PUSH2 0x437D SWAP2 PUSH5 0xFFFFFFFFFF AND PUSH2 0x51A5 JUMP JUMPDEST SWAP1 POP PUSH2 0x4396 DUP4 PUSH1 0xB ADD SLOAD DUP3 PUSH2 0x51F0 SWAP1 SWAP2 SWAP1 PUSH4 0xFFFFFFFF AND JUMP JUMPDEST PUSH1 0xB DUP5 ADD SSTORE PUSH1 0x4 DUP4 ADD SLOAD PUSH1 0xF DUP5 ADD SLOAD PUSH1 0x0 SWAP2 PUSH2 0x43B8 SWAP2 PUSH5 0xFFFFFFFFFF AND PUSH2 0x5228 JUMP JUMPDEST SWAP1 POP PUSH2 0x43D1 DUP5 PUSH1 0xA ADD SLOAD DUP3 PUSH2 0x51F0 SWAP1 SWAP2 SWAP1 PUSH4 0xFFFFFFFF AND JUMP JUMPDEST PUSH1 0xA DUP6 ADD SSTORE POP POP JUMPDEST POP POP JUMP JUMPDEST PUSH1 0x0 DUP3 DUP3 ADD DUP4 DUP2 LT ISZERO PUSH2 0x1D8A JUMPI PUSH1 0x40 DUP1 MLOAD PUSH3 0x461BCD PUSH1 0xE5 SHL DUP2 MSTORE PUSH1 0x20 PUSH1 0x4 DUP3 ADD MSTORE PUSH1 0x1B PUSH1 0x24 DUP3 ADD MSTORE PUSH32 0x536166654D6174683A206164646974696F6E206F766572666C6F770000000000 PUSH1 0x44 DUP3 ADD MSTORE SWAP1 MLOAD SWAP1 DUP2 SWAP1 SUB PUSH1 0x64 ADD SWAP1 REVERT JUMPDEST PUSH1 0x0 PUSH2 0x445A PUSH2 0x4445 DUP5 PUSH2 0x5279 JUMP JUMPDEST PUSH2 0x444E DUP5 PUSH2 0x5279 JUMP JUMPDEST SWAP1 PUSH4 0xFFFFFFFF PUSH2 0x4DDB AND JUMP JUMPDEST SWAP1 POP PUSH1 0x0 PUSH2 0x4476 PUSH2 0x4469 PUSH2 0x528F JUMP JUMPDEST DUP4 SWAP1 PUSH4 0xFFFFFFFF PUSH2 0x43DD AND JUMP JUMPDEST SWAP1 POP PUSH2 0x448F DUP6 PUSH1 0xB ADD SLOAD DUP3 PUSH2 0x51F0 SWAP1 SWAP2 SWAP1 PUSH4 0xFFFFFFFF AND JUMP JUMPDEST DUP6 PUSH1 0xB ADD DUP2 SWAP1 SSTORE POP POP POP POP POP POP JUMP JUMPDEST PUSH1 0x1 PUSH1 0x1 PUSH1 0xA0 SHL SUB DUP1 DUP5 AND PUSH1 0x0 SWAP1 DUP2 MSTORE PUSH1 0x38 PUSH1 0x20 MSTORE PUSH1 0x40 DUP2 KECCAK256 PUSH1 0x1 DUP2 ADD SLOAD SWAP1 SWAP3 DUP3 SWAP2 DUP3 SWAP2 AND PUSH4 0x57E37AF0 DUP9 PUSH2 0x44E6 DUP9 PUSH2 0x44DA DUP12 PUSH2 0x28BE DUP6 PUSH2 0x2A2A JUMP JUMPDEST SWAP1 PUSH4 0xFFFFFFFF PUSH2 0x46C0 AND JUMP JUMPDEST DUP8 PUSH1 0x7 ADD SLOAD DUP9 PUSH1 0x8 ADD SLOAD DUP10 PUSH1 0x9 ADD SLOAD PUSH1 0x40 MLOAD DUP7 PUSH4 0xFFFFFFFF AND PUSH1 0xE0 SHL DUP2 MSTORE PUSH1 0x4 ADD DUP1 DUP7 PUSH1 0x1 PUSH1 0x1 PUSH1 0xA0 SHL SUB AND PUSH1 0x1 PUSH1 0x1 PUSH1 0xA0 SHL SUB AND DUP2 MSTORE PUSH1 0x20 ADD DUP6 DUP2 MSTORE PUSH1 0x20 ADD DUP5 DUP2 MSTORE PUSH1 0x20 ADD DUP4 DUP2 MSTORE PUSH1 0x20 ADD DUP3 DUP2 MSTORE PUSH1 0x20 ADD SWAP6 POP POP POP POP POP POP PUSH1 0x60 PUSH1 0x40 MLOAD DUP1 DUP4 SUB DUP2 DUP7 DUP1 EXTCODESIZE ISZERO DUP1 ISZERO PUSH2 0x4557 JUMPI PUSH1 0x0 DUP1 REVERT JUMPDEST POP GAS STATICCALL ISZERO DUP1 ISZERO PUSH2 0x456B JUMPI RETURNDATASIZE PUSH1 0x0 DUP1 RETURNDATACOPY RETURNDATASIZE PUSH1 0x0 REVERT JUMPDEST POP POP POP POP PUSH1 0x40 MLOAD RETURNDATASIZE PUSH1 0x60 DUP2 LT ISZERO PUSH2 0x4581 JUMPI PUSH1 0x0 DUP1 REVERT JUMPDEST POP DUP1 MLOAD PUSH1 0x20 DUP1 DUP4 ADD MLOAD PUSH1 0x40 SWAP4 DUP5 ADD MLOAD PUSH1 0x6 DUP10 ADD DUP5 SWAP1 SSTORE PUSH1 0x5 DUP10 ADD DUP3 SWAP1 SSTORE PUSH1 0x4 DUP10 ADD DUP2 SWAP1 SSTORE PUSH1 0xF DUP10 ADD DUP1 SLOAD PUSH5 0xFFFFFFFFFF TIMESTAMP AND PUSH5 0xFFFFFFFFFF NOT SWAP1 SWAP2 AND OR SWAP1 SSTORE PUSH1 0xB DUP10 ADD SLOAD PUSH1 0xA DUP11 ADD SLOAD DUP7 MLOAD DUP7 DUP2 MSTORE SWAP5 DUP6 ADD DUP5 SWAP1 MSTORE DUP5 DUP8 ADD DUP4 SWAP1 MSTORE PUSH1 0x60 DUP6 ADD SWAP2 SWAP1 SWAP2 MSTORE PUSH1 0x80 DUP5 ADD MSTORE SWAP4 MLOAD SWAP3 SWAP7 POP SWAP5 POP SWAP2 SWAP3 POP PUSH1 0x1 PUSH1 0x1 PUSH1 0xA0 SHL SUB DUP10 AND SWAP2 PUSH32 0xF05E03F4CC9C1680881783F4B8E7205DF99A05CB3FD1523DC96C8C34D91E62F SWAP2 SWAP1 DUP2 SWAP1 SUB PUSH1 0xA0 ADD SWAP1 LOG2 POP POP POP POP POP POP POP JUMP JUMPDEST PUSH1 0x0 PUSH2 0x1A20 DUP3 PUSH1 0x8 ADD SLOAD DUP4 PUSH1 0x7 ADD SLOAD PUSH2 0x43DD SWAP1 SWAP2 SWAP1 PUSH4 0xFFFFFFFF AND JUMP JUMPDEST PUSH20 0xEEEEEEEEEEEEEEEEEEEEEEEEEEEEEEEEEEEEEEEE SWAP1 JUMP JUMPDEST PUSH1 0x40 DUP1 MLOAD PUSH1 0x1 PUSH1 0x1 PUSH1 0xA0 SHL SUB DUP6 DUP2 AND PUSH1 0x24 DUP4 ADD MSTORE DUP5 AND PUSH1 0x44 DUP3 ADD MSTORE PUSH1 0x64 DUP1 DUP3 ADD DUP5 SWAP1 MSTORE DUP3 MLOAD DUP1 DUP4 SUB SWAP1 SWAP2 ADD DUP2 MSTORE PUSH1 0x84 SWAP1 SWAP2 ADD SWAP1 SWAP2 MSTORE PUSH1 0x20 DUP2 ADD DUP1 MLOAD PUSH1 0x1 PUSH1 0x1 PUSH1 0xE0 SHL SUB AND PUSH4 0x23B872DD PUSH1 0xE0 SHL OR SWAP1 MSTORE PUSH2 0x2A06 SWAP1 DUP6 SWAP1 PUSH2 0x529F JUMP JUMPDEST PUSH1 0x0 PUSH2 0x1D8A DUP4 DUP4 PUSH1 0x40 MLOAD DUP1 PUSH1 0x40 ADD PUSH1 0x40 MSTORE DUP1 PUSH1 0x1E DUP2 MSTORE PUSH1 0x20 ADD PUSH32 0x536166654D6174683A207375627472616374696F6E206F766572666C6F770000 DUP2 MSTORE POP PUSH2 0x5457 JUMP JUMPDEST PUSH1 0xB DUP2 ADD SLOAD PUSH1 0x6 DUP3 ADD SLOAD PUSH1 0xF DUP4 ADD SLOAD PUSH1 0x0 SWAP3 DUP4 SWAP3 PUSH2 0x1D8A SWAP3 PUSH2 0x472B SWAP2 SWAP1 PUSH5 0xFFFFFFFFFF AND PUSH2 0x51A5 JUMP JUMPDEST SWAP1 PUSH4 0xFFFFFFFF PUSH2 0x51F0 AND JUMP JUMPDEST PUSH1 0x1 PUSH1 0x1 PUSH1 0xA0 SHL SUB DUP7 AND PUSH1 0x0 SWAP1 DUP2 MSTORE PUSH1 0x38 PUSH1 0x20 MSTORE PUSH1 0x40 SWAP1 KECCAK256 PUSH2 0x4758 SWAP1 PUSH2 0x434D JUMP JUMPDEST PUSH2 0x34C8 DUP7 DUP7 DUP7 DUP7 DUP7 DUP7 PUSH2 0x54EE JUMP JUMPDEST PUSH1 0x1 PUSH1 0x1 PUSH1 0xA0 SHL SUB DUP1 DUP8 AND PUSH1 0x0 DUP2 DUP2 MSTORE PUSH1 0x38 PUSH1 0x20 SWAP1 DUP2 MSTORE PUSH1 0x40 DUP1 DUP4 KECCAK256 SWAP5 DUP11 AND DUP4 MSTORE PUSH1 0x39 DUP3 MSTORE DUP1 DUP4 KECCAK256 SWAP4 DUP4 MSTORE SWAP3 SWAP1 MSTORE KECCAK256 PUSH1 0x1 DUP4 PUSH1 0x2 DUP2 GT ISZERO PUSH2 0x47A3 JUMPI INVALID JUMPDEST EQ ISZERO PUSH2 0x47BF JUMPI PUSH1 0x5 DUP3 ADD SLOAD PUSH1 0x2 DUP3 ADD SSTORE PUSH1 0x0 PUSH1 0x3 DUP3 ADD SSTORE PUSH2 0x4836 JUMP JUMPDEST PUSH1 0x2 DUP4 PUSH1 0x2 DUP2 GT ISZERO PUSH2 0x47CD JUMPI INVALID JUMPDEST EQ ISZERO PUSH2 0x47E9 JUMPI PUSH1 0x0 PUSH1 0x2 DUP3 ADD SSTORE PUSH1 0xA DUP3 ADD SLOAD PUSH1 0x3 DUP3 ADD SSTORE PUSH2 0x4836 JUMP JUMPDEST PUSH1 0x40 DUP1 MLOAD PUSH3 0x461BCD PUSH1 0xE5 SHL DUP2 MSTORE PUSH1 0x20 PUSH1 0x4 DUP3 ADD MSTORE PUSH1 0x18 PUSH1 0x24 DUP3 ADD MSTORE PUSH32 0x496E76616C696420626F72726F772072617465206D6F64650000000000000000 PUSH1 0x44 DUP3 ADD MSTORE SWAP1 MLOAD SWAP1 DUP2 SWAP1 SUB PUSH1 0x64 ADD SWAP1 REVERT JUMPDEST PUSH2 0x4851 DUP6 PUSH2 0x28BE DUP9 DUP5 PUSH1 0x1 ADD SLOAD PUSH2 0x43DD SWAP1 SWAP2 SWAP1 PUSH4 0xFFFFFFFF AND JUMP JUMPDEST PUSH1 0x1 DUP3 ADD SSTORE PUSH1 0x4 DUP2 ADD SLOAD PUSH2 0x486B SWAP1 DUP6 PUSH4 0xFFFFFFFF PUSH2 0x43DD AND JUMP JUMPDEST PUSH1 0x4 DUP3 ADD SSTORE PUSH1 0x5 ADD DUP1 SLOAD PUSH5 0xFFFFFFFFFF NOT AND TIMESTAMP PUSH5 0xFFFFFFFFFF AND OR SWAP1 SSTORE POP POP POP POP POP POP POP JUMP JUMPDEST PUSH1 0x0 DUP1 PUSH2 0x489E DUP5 DUP5 PUSH2 0x1A26 JUMP JUMPDEST SWAP1 POP PUSH1 0x0 DUP2 PUSH1 0x2 DUP2 GT ISZERO PUSH2 0x48AE JUMPI INVALID JUMPDEST EQ ISZERO PUSH2 0x48BE JUMPI PUSH1 0x0 SWAP2 POP POP PUSH2 0x1A20 JUMP JUMPDEST PUSH1 0x1 DUP2 PUSH1 0x2 DUP2 GT ISZERO PUSH2 0x48CC JUMPI INVALID JUMPDEST EQ PUSH2 0x48F2 JUMPI PUSH1 0x1 PUSH1 0x1 PUSH1 0xA0 SHL SUB DUP5 AND PUSH1 0x0 SWAP1 DUP2 MSTORE PUSH1 0x38 PUSH1 0x20 MSTORE PUSH1 0x40 SWAP1 KECCAK256 PUSH1 0x4 ADD SLOAD PUSH2 0x1A76 JUMP JUMPDEST POP POP PUSH1 0x1 PUSH1 0x1 PUSH1 0xA0 SHL SUB SWAP1 DUP2 AND PUSH1 0x0 SWAP1 DUP2 MSTORE PUSH1 0x39 PUSH1 0x20 SWAP1 DUP2 MSTORE PUSH1 0x40 DUP1 DUP4 KECCAK256 SWAP5 SWAP1 SWAP4 AND DUP3 MSTORE SWAP3 SWAP1 SWAP3 MSTORE SWAP1 KECCAK256 PUSH1 0x2 ADD SLOAD SWAP1 JUMP JUMPDEST PUSH1 0x34 PUSH1 0x0 SWAP1 SLOAD SWAP1 PUSH2 0x100 EXP SWAP1 DIV PUSH1 0x1 PUSH1 0x1 PUSH1 0xA0 SHL SUB AND PUSH1 0x1 PUSH1 0x1 PUSH1 0xA0 SHL SUB AND PUSH4 0x261BF8B PUSH1 0x40 MLOAD DUP2 PUSH4 0xFFFFFFFF AND PUSH1 0xE0 SHL DUP2 MSTORE PUSH1 0x4 ADD PUSH1 0x20 PUSH1 0x40 MLOAD DUP1 DUP4 SUB DUP2 DUP7 DUP1 EXTCODESIZE ISZERO DUP1 ISZERO PUSH2 0x4971 JUMPI PUSH1 0x0 DUP1 REVERT JUMPDEST POP GAS STATICCALL ISZERO DUP1 ISZERO PUSH2 0x4985 JUMPI RETURNDATASIZE PUSH1 0x0 DUP1 RETURNDATACOPY RETURNDATASIZE PUSH1 0x0 REVERT JUMPDEST POP POP POP POP PUSH1 0x40 MLOAD RETURNDATASIZE PUSH1 0x20 DUP2 LT ISZERO PUSH2 0x499B JUMPI PUSH1 0x0 DUP1 REVERT JUMPDEST POP MLOAD PUSH1 0x35 DUP1 SLOAD PUSH1 0x1 PUSH1 0x1 PUSH1 0xA0 SHL SUB NOT AND PUSH1 0x1 PUSH1 0x1 PUSH1 0xA0 SHL SUB SWAP3 DUP4 AND OR SWAP1 SSTORE PUSH1 0x34 SLOAD PUSH1 0x40 DUP1 MLOAD PUSH4 0xA0375C6D PUSH1 0xE0 SHL DUP2 MSTORE SWAP1 MLOAD SWAP2 SWAP1 SWAP3 AND SWAP2 PUSH4 0xA0375C6D SWAP2 PUSH1 0x4 DUP1 DUP4 ADD SWAP3 PUSH1 0x20 SWAP3 SWAP2 SWAP1 DUP3 SWAP1 SUB ADD DUP2 DUP7 DUP1 EXTCODESIZE ISZERO DUP1 ISZERO PUSH2 0x49F6 JUMPI PUSH1 0x0 DUP1 REVERT JUMPDEST POP GAS STATICCALL ISZERO DUP1 ISZERO PUSH2 0x4A0A JUMPI RETURNDATASIZE PUSH1 0x0 DUP1 RETURNDATACOPY RETURNDATASIZE PUSH1 0x0 REVERT JUMPDEST POP POP POP POP PUSH1 0x40 MLOAD RETURNDATASIZE PUSH1 0x20 DUP2 LT ISZERO PUSH2 0x4A20 JUMPI PUSH1 0x0 DUP1 REVERT JUMPDEST POP MLOAD PUSH1 0x36 DUP1 SLOAD PUSH1 0x1 PUSH1 0x1 PUSH1 0xA0 SHL SUB NOT AND PUSH1 0x1 PUSH1 0x1 PUSH1 0xA0 SHL SUB SWAP1 SWAP3 AND SWAP2 SWAP1 SWAP2 OR SWAP1 SSTORE JUMP JUMPDEST PUSH1 0x1 PUSH1 0x1 PUSH1 0xA0 SHL SUB DUP1 DUP6 AND PUSH1 0x0 DUP2 DUP2 MSTORE PUSH1 0x38 PUSH1 0x20 SWAP1 DUP2 MSTORE PUSH1 0x40 DUP1 DUP4 KECCAK256 SWAP5 DUP9 AND DUP4 MSTORE PUSH1 0x39 DUP3 MSTORE DUP1 DUP4 KECCAK256 SWAP4 DUP4 MSTORE SWAP3 SWAP1 MSTORE KECCAK256 PUSH2 0x4A7B DUP3 PUSH2 0x434D JUMP JUMPDEST PUSH1 0x0 PUSH2 0x4A87 DUP8 DUP8 PUSH2 0x1A26 JUMP JUMPDEST SWAP1 POP PUSH1 0x1 JUMPDEST DUP2 PUSH1 0x2 DUP2 GT ISZERO PUSH2 0x4A98 JUMPI INVALID JUMPDEST EQ ISZERO PUSH2 0x4AD3 JUMPI PUSH1 0x2 DUP3 ADD SLOAD PUSH2 0x4AB6 SWAP1 DUP5 SWAP1 DUP7 SWAP1 PUSH4 0xFFFFFFFF PUSH2 0x5655 AND JUMP JUMPDEST PUSH1 0x2 DUP3 ADD SLOAD PUSH2 0x4ACE SWAP1 DUP5 SWAP1 DUP8 SWAP1 PUSH4 0xFFFFFFFF PUSH2 0x56C5 AND JUMP JUMPDEST PUSH2 0x37AE JUMP JUMPDEST PUSH2 0x4AE3 DUP4 DUP6 PUSH4 0xFFFFFFFF PUSH2 0x57D0 AND JUMP JUMPDEST PUSH2 0x37AE DUP4 DUP7 PUSH4 0xFFFFFFFF PUSH2 0x57F1 AND JUMP JUMPDEST PUSH1 0x1 PUSH1 0x1 PUSH1 0xA0 SHL SUB DUP2 AND PUSH1 0x0 SWAP1 DUP2 MSTORE PUSH1 0x38 PUSH1 0x20 MSTORE PUSH1 0x40 SWAP1 KECCAK256 PUSH2 0x4B14 SWAP1 PUSH2 0x434D JUMP JUMPDEST POP JUMP JUMPDEST PUSH1 0x1 PUSH1 0x1 PUSH1 0xA0 SHL SUB DUP1 DUP6 AND PUSH1 0x0 SWAP1 DUP2 MSTORE PUSH1 0x39 PUSH1 0x20 SWAP1 DUP2 MSTORE PUSH1 0x40 DUP1 DUP4 KECCAK256 SWAP4 DUP10 AND DUP4 MSTORE SWAP3 DUP2 MSTORE DUP3 DUP3 KECCAK256 PUSH1 0x38 SWAP1 SWAP2 MSTORE SWAP2 SWAP1 KECCAK256 PUSH1 0x1 DUP3 ADD SLOAD PUSH2 0x4B61 SWAP1 DUP7 SWAP1 PUSH2 0x44DA SWAP1 DUP7 PUSH4 0xFFFFFFFF PUSH2 0x43DD AND JUMP JUMPDEST PUSH1 0x1 DUP4 ADD SSTORE PUSH1 0x2 PUSH2 0x4B72 DUP9 DUP9 PUSH2 0x1A26 JUMP JUMPDEST PUSH1 0x2 DUP2 GT ISZERO PUSH2 0x4B7D JUMPI INVALID JUMPDEST EQ ISZERO PUSH2 0x4B8E JUMPI PUSH1 0xA DUP2 ADD SLOAD PUSH1 0x3 DUP4 ADD SSTORE JUMPDEST DUP4 ISZERO PUSH2 0x4BAF JUMPI PUSH1 0x4 DUP3 ADD SLOAD PUSH2 0x4BA9 SWAP1 DUP6 PUSH4 0xFFFFFFFF PUSH2 0x46C0 AND JUMP JUMPDEST PUSH1 0x4 DUP4 ADD SSTORE JUMPDEST POP PUSH1 0x5 ADD DUP1 SLOAD PUSH5 0xFFFFFFFFFF NOT AND TIMESTAMP PUSH5 0xFFFFFFFFFF AND OR SWAP1 SSTORE POP POP POP POP POP JUMP JUMPDEST PUSH1 0x40 DUP1 MLOAD PUSH1 0x1 PUSH1 0x1 PUSH1 0xA0 SHL SUB DUP5 AND PUSH1 0x24 DUP3 ADD MSTORE PUSH1 0x44 DUP1 DUP3 ADD DUP5 SWAP1 MSTORE DUP3 MLOAD DUP1 DUP4 SUB SWAP1 SWAP2 ADD DUP2 MSTORE PUSH1 0x64 SWAP1 SWAP2 ADD SWAP1 SWAP2 MSTORE PUSH1 0x20 DUP2 ADD DUP1 MLOAD PUSH1 0x1 PUSH1 0x1 PUSH1 0xE0 SHL SUB AND PUSH4 0xA9059CBB PUSH1 0xE0 SHL OR SWAP1 MSTORE PUSH2 0x1D64 SWAP1 DUP5 SWAP1 PUSH2 0x529F JUMP JUMPDEST PUSH1 0x0 DUP3 PUSH1 0x1 ADD SLOAD PUSH1 0x0 EQ ISZERO PUSH2 0x4C38 JUMPI POP PUSH1 0x0 PUSH2 0x1A20 JUMP JUMPDEST PUSH1 0x0 PUSH2 0x4C47 DUP5 PUSH1 0x1 ADD SLOAD PUSH2 0x5279 JUMP JUMPDEST PUSH1 0x2 DUP6 ADD SLOAD SWAP1 SWAP2 POP PUSH1 0x0 SWAP1 DUP2 SWAP1 ISZERO PUSH2 0x4C7B JUMPI PUSH1 0x2 DUP7 ADD SLOAD PUSH1 0x5 DUP8 ADD SLOAD PUSH2 0x4C74 SWAP2 SWAP1 PUSH5 0xFFFFFFFFFF AND PUSH2 0x5228 JUMP JUMPDEST SWAP1 POP PUSH2 0x4CB1 JUMP JUMPDEST PUSH2 0x4CAE DUP7 PUSH1 0x3 ADD SLOAD PUSH2 0x444E DUP8 PUSH1 0xA ADD SLOAD PUSH2 0x472B DUP10 PUSH1 0x4 ADD SLOAD DUP11 PUSH1 0xF ADD PUSH1 0x0 SWAP1 SLOAD SWAP1 PUSH2 0x100 EXP SWAP1 DIV PUSH5 0xFFFFFFFFFF AND PUSH2 0x5228 JUMP JUMPDEST SWAP1 POP JUMPDEST PUSH2 0x4CC9 PUSH2 0x4CC4 DUP5 DUP4 PUSH4 0xFFFFFFFF PUSH2 0x51F0 AND JUMP JUMPDEST PUSH2 0x5849 JUMP JUMPDEST SWAP2 POP DUP6 PUSH1 0x1 ADD SLOAD DUP3 EQ ISZERO PUSH2 0x4D08 JUMPI PUSH1 0x5 DUP7 ADD SLOAD PUSH5 0xFFFFFFFFFF AND TIMESTAMP EQ PUSH2 0x4D08 JUMPI PUSH1 0x1 DUP7 DUP2 ADD SLOAD PUSH2 0x4CFE SWAP2 PUSH4 0xFFFFFFFF PUSH2 0x43DD AND JUMP JUMPDEST SWAP4 POP POP POP POP PUSH2 0x1A20 JUMP JUMPDEST POP SWAP5 SWAP4 POP POP POP POP JUMP JUMPDEST PUSH1 0x1 PUSH1 0x1 PUSH1 0xA0 SHL SUB DUP1 DUP5 AND PUSH1 0x0 DUP2 DUP2 MSTORE PUSH1 0x38 PUSH1 0x20 SWAP1 DUP2 MSTORE PUSH1 0x40 DUP1 DUP4 KECCAK256 SWAP5 DUP8 AND DUP4 MSTORE PUSH1 0x39 DUP3 MSTORE DUP1 DUP4 KECCAK256 SWAP4 DUP4 MSTORE SWAP3 SWAP1 MSTORE KECCAK256 PUSH2 0x4D49 DUP3 PUSH2 0x434D JUMP JUMPDEST PUSH1 0x2 DUP2 ADD SLOAD PUSH2 0x16DD SWAP1 DUP4 SWAP1 DUP6 SWAP1 PUSH4 0xFFFFFFFF PUSH2 0x5655 AND JUMP JUMPDEST PUSH1 0x1 PUSH1 0x1 PUSH1 0xA0 SHL SUB DUP1 DUP4 AND PUSH1 0x0 SWAP1 DUP2 MSTORE PUSH1 0x39 PUSH1 0x20 SWAP1 DUP2 MSTORE PUSH1 0x40 DUP1 DUP4 KECCAK256 SWAP4 DUP8 AND DUP4 MSTORE SWAP3 DUP2 MSTORE DUP3 DUP3 KECCAK256 PUSH1 0x38 SWAP1 SWAP2 MSTORE SWAP2 SWAP1 KECCAK256 PUSH1 0x1 DUP3 ADD SLOAD PUSH2 0x4DA5 SWAP1 DUP5 PUSH4 0xFFFFFFFF PUSH2 0x43DD AND JUMP JUMPDEST PUSH1 0x1 DUP4 ADD SSTORE PUSH1 0x5 SWAP1 DUP2 ADD SLOAD PUSH1 0x2 DUP4 ADD SSTORE ADD DUP1 SLOAD PUSH5 0xFFFFFFFFFF NOT AND TIMESTAMP PUSH5 0xFFFFFFFFFF AND OR SWAP1 SSTORE POP POP POP JUMP JUMPDEST PUSH1 0x3 SWAP1 JUMP JUMPDEST ADDRESS EXTCODESIZE ISZERO SWAP1 JUMP JUMPDEST PUSH1 0x0 PUSH1 0x2 DUP3 DIV PUSH2 0x1A76 DUP4 PUSH2 0x4E0B PUSH2 0x4DFE DUP8 PUSH12 0x33B2E3C9FD0803CE8000000 PUSH2 0x5862 JUMP JUMPDEST DUP5 SWAP1 PUSH4 0xFFFFFFFF PUSH2 0x43DD AND JUMP JUMPDEST SWAP1 PUSH4 0xFFFFFFFF PUSH2 0x58BB AND JUMP JUMPDEST PUSH1 0x1 PUSH1 0x1 PUSH1 0xA0 SHL SUB DUP1 DUP6 AND PUSH1 0x0 SWAP1 DUP2 MSTORE PUSH1 0x38 PUSH1 0x20 SWAP1 DUP2 MSTORE PUSH1 0x40 DUP1 DUP4 KECCAK256 PUSH1 0x39 DUP4 MSTORE DUP2 DUP5 KECCAK256 SWAP5 DUP9 AND DUP5 MSTORE SWAP4 SWAP1 SWAP2 MSTORE DUP2 KECCAK256 SWAP1 PUSH2 0x4E50 DUP8 DUP8 PUSH2 0x1A26 JUMP JUMPDEST PUSH1 0x1 PUSH1 0x1 PUSH1 0xA0 SHL SUB DUP9 AND PUSH1 0x0 SWAP1 DUP2 MSTORE PUSH1 0x38 PUSH1 0x20 MSTORE PUSH1 0x40 SWAP1 KECCAK256 SWAP1 SWAP2 POP PUSH2 0x4E74 SWAP1 PUSH2 0x434D JUMP JUMPDEST PUSH1 0x1 PUSH2 0x4A8C JUMP JUMPDEST PUSH1 0x1 PUSH1 0x1 PUSH1 0xA0 SHL SUB DUP1 DUP8 AND PUSH1 0x0 DUP2 DUP2 MSTORE PUSH1 0x38 PUSH1 0x20 SWAP1 DUP2 MSTORE PUSH1 0x40 DUP1 DUP4 KECCAK256 SWAP5 DUP11 AND DUP4 MSTORE PUSH1 0x39 DUP3 MSTORE DUP1 DUP4 KECCAK256 SWAP4 DUP4 MSTORE SWAP3 SWAP1 MSTORE KECCAK256 PUSH1 0x1 DUP2 ADD SLOAD PUSH2 0x4EC5 SWAP1 DUP8 SWAP1 PUSH2 0x44DA SWAP1 DUP8 PUSH4 0xFFFFFFFF PUSH2 0x43DD AND JUMP JUMPDEST PUSH1 0x1 DUP3 ADD SSTORE PUSH1 0xA DUP3 ADD SLOAD PUSH1 0x3 DUP3 ADD SSTORE DUP3 ISZERO PUSH2 0x4EE9 JUMPI PUSH1 0x0 PUSH1 0x2 DUP3 ADD DUP2 SWAP1 SSTORE PUSH1 0x3 DUP3 ADD SSTORE JUMPDEST PUSH1 0x4 DUP2 ADD SLOAD PUSH2 0x486B SWAP1 DUP7 PUSH4 0xFFFFFFFF PUSH2 0x46C0 AND JUMP JUMPDEST PUSH1 0x0 DUP1 JUMPDEST PUSH1 0x37 SLOAD DUP2 LT ISZERO PUSH2 0x4F4B JUMPI DUP3 PUSH1 0x1 PUSH1 0x1 PUSH1 0xA0 SHL SUB AND PUSH1 0x37 DUP3 DUP2 SLOAD DUP2 LT PUSH2 0x4F23 JUMPI INVALID JUMPDEST PUSH1 0x0 SWAP2 DUP3 MSTORE PUSH1 0x20 SWAP1 SWAP2 KECCAK256 ADD SLOAD PUSH1 0x1 PUSH1 0x1 PUSH1 0xA0 SHL SUB AND EQ ISZERO PUSH2 0x4F43 JUMPI PUSH1 0x1 SWAP2 POP JUMPDEST PUSH1 0x1 ADD PUSH2 0x4F02 JUMP JUMPDEST POP DUP1 PUSH2 0x43D9 JUMPI PUSH1 0x37 DUP1 SLOAD PUSH1 0x1 DUP2 ADD DUP3 SSTORE PUSH1 0x0 SWAP2 SWAP1 SWAP2 MSTORE PUSH32 0x42A7B7DD785CD69714A189DFFB3FD7D7174EDC9ECE837694CE50F7078F7C31AE ADD DUP1 SLOAD PUSH1 0x1 PUSH1 0x1 PUSH1 0xA0 SHL SUB DUP5 AND PUSH1 0x1 PUSH1 0x1 PUSH1 0xA0 SHL SUB NOT SWAP1 SWAP2 AND OR SWAP1 SSTORE POP POP JUMP JUMPDEST PUSH1 0x1 PUSH1 0x1 PUSH1 0xA0 SHL SUB DUP1 DUP7 AND PUSH1 0x0 DUP2 DUP2 MSTORE PUSH1 0x38 PUSH1 0x20 SWAP1 DUP2 MSTORE PUSH1 0x40 DUP1 DUP4 KECCAK256 SWAP5 DUP10 AND DUP4 MSTORE PUSH1 0x39 DUP3 MSTORE DUP1 DUP4 KECCAK256 SWAP4 DUP4 MSTORE SWAP3 SWAP1 MSTORE KECCAK256 PUSH2 0x4FDA DUP3 PUSH2 0x434D JUMP JUMPDEST PUSH1 0x1 DUP4 PUSH1 0x2 DUP2 GT ISZERO PUSH2 0x4FE8 JUMPI INVALID JUMPDEST EQ ISZERO PUSH2 0x501A JUMPI PUSH1 0x2 DUP2 ADD SLOAD PUSH2 0x5004 DUP4 DUP8 DUP4 PUSH4 0xFFFFFFFF PUSH2 0x56C5 AND JUMP JUMPDEST PUSH2 0x5014 DUP4 DUP7 PUSH4 0xFFFFFFFF PUSH2 0x57D0 AND JUMP JUMPDEST POP PUSH2 0x37AE JUMP JUMPDEST PUSH1 0x2 DUP4 PUSH1 0x2 DUP2 GT ISZERO PUSH2 0x5028 JUMPI INVALID JUMPDEST EQ ISZERO PUSH2 0x5054 JUMPI PUSH1 0x5 DUP3 ADD SLOAD PUSH2 0x5043 DUP4 DUP8 PUSH4 0xFFFFFFFF PUSH2 0x57F1 AND JUMP JUMPDEST PUSH2 0x5014 DUP4 DUP7 DUP4 PUSH4 0xFFFFFFFF PUSH2 0x5655 AND JUMP JUMPDEST PUSH1 0x40 DUP1 MLOAD PUSH3 0x461BCD PUSH1 0xE5 SHL DUP2 MSTORE PUSH1 0x20 PUSH1 0x4 DUP3 ADD MSTORE PUSH1 0x1A PUSH1 0x24 DUP3 ADD MSTORE PUSH32 0x496E76616C69642072617465206D6F6465207265636569766564000000000000 PUSH1 0x44 DUP3 ADD MSTORE SWAP1 MLOAD SWAP1 DUP2 SWAP1 SUB PUSH1 0x64 ADD SWAP1 REVERT JUMPDEST PUSH1 0x1 PUSH1 0x1 PUSH1 0xA0 SHL SUB DUP1 DUP5 AND PUSH1 0x0 SWAP1 DUP2 MSTORE PUSH1 0x39 PUSH1 0x20 SWAP1 DUP2 MSTORE PUSH1 0x40 DUP1 DUP4 KECCAK256 SWAP4 DUP9 AND DUP4 MSTORE SWAP3 DUP2 MSTORE DUP3 DUP3 KECCAK256 PUSH1 0x38 SWAP1 SWAP2 MSTORE SWAP2 DUP2 KECCAK256 SWAP1 SWAP2 SWAP1 DUP3 PUSH1 0x2 DUP6 PUSH1 0x2 DUP2 GT ISZERO PUSH2 0x50E2 JUMPI INVALID JUMPDEST EQ ISZERO PUSH2 0x5101 JUMPI POP PUSH1 0x5 DUP2 ADD SLOAD PUSH1 0x2 DUP4 ADD SSTORE PUSH1 0x0 PUSH1 0x3 DUP4 ADD SSTORE PUSH1 0x1 PUSH2 0x5167 JUMP JUMPDEST PUSH1 0x1 DUP6 PUSH1 0x2 DUP2 GT ISZERO PUSH2 0x510F JUMPI INVALID JUMPDEST EQ ISZERO PUSH2 0x5130 JUMPI POP PUSH1 0x0 PUSH1 0x2 DUP4 DUP2 ADD SWAP2 SWAP1 SWAP2 SSTORE PUSH1 0xA DUP3 ADD SLOAD PUSH1 0x3 DUP5 ADD SSTORE PUSH2 0x5167 JUMP JUMPDEST PUSH1 0x40 MLOAD PUSH3 0x461BCD PUSH1 0xE5 SHL DUP2 MSTORE PUSH1 0x4 ADD DUP1 DUP1 PUSH1 0x20 ADD DUP3 DUP2 SUB DUP3 MSTORE PUSH1 0x23 DUP2 MSTORE PUSH1 0x20 ADD DUP1 PUSH2 0x5C5D PUSH1 0x23 SWAP2 CODECOPY PUSH1 0x40 ADD SWAP2 POP POP PUSH1 0x40 MLOAD DUP1 SWAP2 SUB SWAP1 REVERT JUMPDEST PUSH1 0x1 DUP4 ADD SLOAD PUSH2 0x517C SWAP1 DUP8 PUSH4 0xFFFFFFFF PUSH2 0x43DD AND JUMP JUMPDEST PUSH1 0x1 DUP5 ADD SSTORE PUSH1 0x5 SWAP1 SWAP3 ADD DUP1 SLOAD PUSH5 0xFFFFFFFFFF NOT AND TIMESTAMP PUSH5 0xFFFFFFFFFF AND OR SWAP1 SSTORE POP SWAP6 SWAP5 POP POP POP POP POP JUMP JUMPDEST PUSH1 0x0 DUP1 PUSH2 0x51BF TIMESTAMP PUSH5 0xFFFFFFFFFF DUP6 AND PUSH4 0xFFFFFFFF PUSH2 0x46C0 AND JUMP JUMPDEST SWAP1 POP PUSH1 0x0 PUSH2 0x51D3 PUSH2 0x4445 PUSH4 0x1E13380 PUSH2 0x5279 JUMP JUMPDEST SWAP1 POP PUSH2 0x362D PUSH2 0x51E0 PUSH2 0x528F JUMP JUMPDEST PUSH2 0x28BE DUP8 DUP5 PUSH4 0xFFFFFFFF PUSH2 0x51F0 AND JUMP JUMPDEST PUSH1 0x0 PUSH2 0x1D8A PUSH12 0x33B2E3C9FD0803CE8000000 PUSH2 0x4E0B PUSH2 0x5215 DUP7 DUP7 PUSH4 0xFFFFFFFF PUSH2 0x5862 AND JUMP JUMPDEST PUSH12 0x19D971E4FE8401E74000000 SWAP1 PUSH2 0x43DD JUMP JUMPDEST PUSH1 0x0 DUP1 PUSH2 0x5242 TIMESTAMP PUSH5 0xFFFFFFFFFF DUP6 AND PUSH4 0xFFFFFFFF PUSH2 0x46C0 AND JUMP JUMPDEST SWAP1 POP PUSH1 0x0 PUSH2 0x525A DUP6 PUSH4 0x1E13380 PUSH4 0xFFFFFFFF PUSH2 0x58BB AND JUMP JUMPDEST SWAP1 POP PUSH1 0x0 PUSH2 0x3988 DUP4 PUSH2 0x526D PUSH2 0x1698 PUSH2 0x528F JUMP JUMPDEST SWAP1 PUSH4 0xFFFFFFFF PUSH2 0x58FD AND JUMP JUMPDEST PUSH1 0x0 PUSH2 0x1A20 DUP3 PUSH4 0x3B9ACA00 PUSH4 0xFFFFFFFF PUSH2 0x5862 AND JUMP JUMPDEST PUSH12 0x33B2E3C9FD0803CE8000000 SWAP1 JUMP JUMPDEST PUSH2 0x52B1 DUP3 PUSH1 0x1 PUSH1 0x1 PUSH1 0xA0 SHL SUB AND PUSH2 0x151A JUMP JUMPDEST PUSH2 0x5302 JUMPI PUSH1 0x40 DUP1 MLOAD PUSH3 0x461BCD PUSH1 0xE5 SHL DUP2 MSTORE PUSH1 0x20 PUSH1 0x4 DUP3 ADD MSTORE PUSH1 0x1F PUSH1 0x24 DUP3 ADD MSTORE PUSH32 0x5361666545524332303A2063616C6C20746F206E6F6E2D636F6E747261637400 PUSH1 0x44 DUP3 ADD MSTORE SWAP1 MLOAD SWAP1 DUP2 SWAP1 SUB PUSH1 0x64 ADD SWAP1 REVERT JUMPDEST PUSH1 0x0 PUSH1 0x60 DUP4 PUSH1 0x1 PUSH1 0x1 PUSH1 0xA0 SHL SUB AND DUP4 PUSH1 0x40 MLOAD DUP1 DUP3 DUP1 MLOAD SWAP1 PUSH1 0x20 ADD SWAP1 DUP1 DUP4 DUP4 JUMPDEST PUSH1 0x20 DUP4 LT PUSH2 0x5340 JUMPI DUP1 MLOAD DUP3 MSTORE PUSH1 0x1F NOT SWAP1 SWAP3 ADD SWAP2 PUSH1 0x20 SWAP2 DUP3 ADD SWAP2 ADD PUSH2 0x5321 JUMP JUMPDEST PUSH1 0x1 DUP4 PUSH1 0x20 SUB PUSH2 0x100 EXP SUB DUP1 NOT DUP3 MLOAD AND DUP2 DUP5 MLOAD AND DUP1 DUP3 OR DUP6 MSTORE POP POP POP POP POP POP SWAP1 POP ADD SWAP2 POP POP PUSH1 0x0 PUSH1 0x40 MLOAD DUP1 DUP4 SUB DUP2 PUSH1 0x0 DUP7 GAS CALL SWAP2 POP POP RETURNDATASIZE DUP1 PUSH1 0x0 DUP2 EQ PUSH2 0x53A2 JUMPI PUSH1 0x40 MLOAD SWAP2 POP PUSH1 0x1F NOT PUSH1 0x3F RETURNDATASIZE ADD AND DUP3 ADD PUSH1 0x40 MSTORE RETURNDATASIZE DUP3 MSTORE RETURNDATASIZE PUSH1 0x0 PUSH1 0x20 DUP5 ADD RETURNDATACOPY PUSH2 0x53A7 JUMP JUMPDEST PUSH1 0x60 SWAP2 POP JUMPDEST POP SWAP2 POP SWAP2 POP DUP2 PUSH2 0x53FE JUMPI PUSH1 0x40 DUP1 MLOAD PUSH3 0x461BCD PUSH1 0xE5 SHL DUP2 MSTORE PUSH1 0x20 PUSH1 0x4 DUP3 ADD DUP2 SWAP1 MSTORE PUSH1 0x24 DUP3 ADD MSTORE PUSH32 0x5361666545524332303A206C6F772D6C6576656C2063616C6C206661696C6564 PUSH1 0x44 DUP3 ADD MSTORE SWAP1 MLOAD SWAP1 DUP2 SWAP1 SUB PUSH1 0x64 ADD SWAP1 REVERT JUMPDEST DUP1 MLOAD ISZERO PUSH2 0x2A06 JUMPI DUP1 DUP1 PUSH1 0x20 ADD SWAP1 MLOAD PUSH1 0x20 DUP2 LT ISZERO PUSH2 0x541A JUMPI PUSH1 0x0 DUP1 REVERT JUMPDEST POP MLOAD PUSH2 0x2A06 JUMPI PUSH1 0x40 MLOAD PUSH3 0x461BCD PUSH1 0xE5 SHL DUP2 MSTORE PUSH1 0x4 ADD DUP1 DUP1 PUSH1 0x20 ADD DUP3 DUP2 SUB DUP3 MSTORE PUSH1 0x2A DUP2 MSTORE PUSH1 0x20 ADD DUP1 PUSH2 0x5C80 PUSH1 0x2A SWAP2 CODECOPY PUSH1 0x40 ADD SWAP2 POP POP PUSH1 0x40 MLOAD DUP1 SWAP2 SUB SWAP1 REVERT JUMPDEST PUSH1 0x0 DUP2 DUP5 DUP5 GT ISZERO PUSH2 0x54E6 JUMPI PUSH1 0x40 MLOAD PUSH3 0x461BCD PUSH1 0xE5 SHL DUP2 MSTORE PUSH1 0x4 ADD DUP1 DUP1 PUSH1 0x20 ADD DUP3 DUP2 SUB DUP3 MSTORE DUP4 DUP2 DUP2 MLOAD DUP2 MSTORE PUSH1 0x20 ADD SWAP2 POP DUP1 MLOAD SWAP1 PUSH1 0x20 ADD SWAP1 DUP1 DUP4 DUP4 PUSH1 0x0 JUMPDEST DUP4 DUP2 LT ISZERO PUSH2 0x54AB JUMPI DUP2 DUP2 ADD MLOAD DUP4 DUP3 ADD MSTORE PUSH1 0x20 ADD PUSH2 0x5493 JUMP JUMPDEST POP POP POP POP SWAP1 POP SWAP1 DUP2 ADD SWAP1 PUSH1 0x1F AND DUP1 ISZERO PUSH2 0x54D8 JUMPI DUP1 DUP3 SUB DUP1 MLOAD PUSH1 0x1 DUP4 PUSH1 0x20 SUB PUSH2 0x100 EXP SUB NOT AND DUP2 MSTORE PUSH1 0x20 ADD SWAP2 POP JUMPDEST POP SWAP3 POP POP POP PUSH1 0x40 MLOAD DUP1 SWAP2 SUB SWAP1 REVERT JUMPDEST POP POP POP SWAP1 SUB SWAP1 JUMP JUMPDEST PUSH1 0x0 PUSH2 0x54FA DUP8 DUP8 PUSH2 0x1A26 JUMP JUMPDEST PUSH1 0x1 PUSH1 0x1 PUSH1 0xA0 SHL SUB DUP9 AND PUSH1 0x0 SWAP1 DUP2 MSTORE PUSH1 0x38 PUSH1 0x20 MSTORE PUSH1 0x40 SWAP1 KECCAK256 SWAP1 SWAP2 POP PUSH1 0x1 DUP3 PUSH1 0x2 DUP2 GT ISZERO PUSH2 0x5523 JUMPI INVALID JUMPDEST EQ ISZERO PUSH2 0x556C JUMPI PUSH1 0x1 PUSH1 0x1 PUSH1 0xA0 SHL SUB DUP1 DUP9 AND PUSH1 0x0 SWAP1 DUP2 MSTORE PUSH1 0x39 PUSH1 0x20 SWAP1 DUP2 MSTORE PUSH1 0x40 DUP1 DUP4 KECCAK256 SWAP4 DUP13 AND DUP4 MSTORE SWAP3 SWAP1 MSTORE KECCAK256 PUSH1 0x2 DUP2 ADD SLOAD PUSH2 0x5566 SWAP1 DUP4 SWAP1 DUP10 SWAP1 PUSH4 0xFFFFFFFF PUSH2 0x56C5 AND JUMP JUMPDEST POP PUSH2 0x5590 JUMP JUMPDEST PUSH1 0x2 DUP3 PUSH1 0x2 DUP2 GT ISZERO PUSH2 0x557A JUMPI INVALID JUMPDEST EQ ISZERO PUSH2 0x5590 JUMPI PUSH2 0x5590 DUP2 DUP8 PUSH4 0xFFFFFFFF PUSH2 0x57F1 AND JUMP JUMPDEST PUSH1 0x0 PUSH2 0x55A6 DUP6 PUSH2 0x28BE DUP10 DUP10 PUSH4 0xFFFFFFFF PUSH2 0x43DD AND JUMP JUMPDEST SWAP1 POP PUSH1 0x1 DUP5 PUSH1 0x2 DUP2 GT ISZERO PUSH2 0x55B6 JUMPI INVALID JUMPDEST EQ ISZERO PUSH2 0x55D9 JUMPI PUSH1 0x5 DUP3 ADD SLOAD PUSH2 0x55D4 SWAP1 DUP4 SWAP1 DUP4 SWAP1 PUSH4 0xFFFFFFFF PUSH2 0x5655 AND JUMP JUMPDEST PUSH2 0x564A JUMP JUMPDEST PUSH1 0x2 DUP5 PUSH1 0x2 DUP2 GT ISZERO PUSH2 0x55E7 JUMPI INVALID JUMPDEST EQ ISZERO PUSH2 0x55FD JUMPI PUSH2 0x55D4 DUP3 DUP3 PUSH4 0xFFFFFFFF PUSH2 0x57D0 AND JUMP JUMPDEST PUSH1 0x40 DUP1 MLOAD PUSH3 0x461BCD PUSH1 0xE5 SHL DUP2 MSTORE PUSH1 0x20 PUSH1 0x4 DUP3 ADD MSTORE PUSH1 0x1C PUSH1 0x24 DUP3 ADD MSTORE PUSH32 0x496E76616C6964206E657720626F72726F772072617465206D6F646500000000 PUSH1 0x44 DUP3 ADD MSTORE SWAP1 MLOAD SWAP1 DUP2 SWAP1 SUB PUSH1 0x64 ADD SWAP1 REVERT JUMPDEST POP POP POP POP POP POP POP POP POP JUMP JUMPDEST PUSH1 0x7 DUP4 ADD SLOAD PUSH2 0x566A DUP2 DUP5 PUSH4 0xFFFFFFFF PUSH2 0x43DD AND JUMP JUMPDEST PUSH1 0x7 DUP6 ADD SSTORE PUSH1 0x0 PUSH2 0x567E DUP4 PUSH2 0x472B DUP7 PUSH2 0x5279 JUMP JUMPDEST SWAP1 POP PUSH1 0x0 PUSH2 0x5693 DUP7 PUSH1 0x9 ADD SLOAD PUSH2 0x472B DUP6 PUSH2 0x5279 JUMP JUMPDEST SWAP1 POP PUSH2 0x56B5 PUSH2 0x56A5 DUP8 PUSH1 0x7 ADD SLOAD PUSH2 0x5279 JUMP JUMPDEST PUSH2 0x444E DUP5 DUP5 PUSH4 0xFFFFFFFF PUSH2 0x43DD AND JUMP JUMPDEST DUP7 PUSH1 0x9 ADD DUP2 SWAP1 SSTORE POP POP POP POP POP POP POP JUMP JUMPDEST DUP2 DUP4 PUSH1 0x7 ADD SLOAD LT ISZERO PUSH2 0x571E JUMPI PUSH1 0x40 DUP1 MLOAD PUSH3 0x461BCD PUSH1 0xE5 SHL DUP2 MSTORE PUSH1 0x20 PUSH1 0x4 DUP3 ADD MSTORE PUSH1 0x1A PUSH1 0x24 DUP3 ADD MSTORE PUSH32 0x496E76616C696420616D6F756E7420746F206465637265617365000000000000 PUSH1 0x44 DUP3 ADD MSTORE SWAP1 MLOAD SWAP1 DUP2 SWAP1 SUB PUSH1 0x64 ADD SWAP1 REVERT JUMPDEST PUSH1 0x7 DUP4 ADD SLOAD PUSH2 0x5733 DUP2 DUP5 PUSH4 0xFFFFFFFF PUSH2 0x46C0 AND JUMP JUMPDEST PUSH1 0x7 DUP6 ADD DUP2 SWAP1 SSTORE PUSH2 0x574B JUMPI POP PUSH1 0x0 PUSH1 0x9 DUP5 ADD SSTORE PUSH2 0x1D64 JUMP JUMPDEST PUSH1 0x0 PUSH2 0x575A DUP4 PUSH2 0x472B DUP7 PUSH2 0x5279 JUMP JUMPDEST SWAP1 POP PUSH1 0x0 PUSH2 0x576F DUP7 PUSH1 0x9 ADD SLOAD PUSH2 0x472B DUP6 PUSH2 0x5279 JUMP JUMPDEST SWAP1 POP DUP2 DUP2 LT ISZERO PUSH2 0x57B0 JUMPI PUSH1 0x40 MLOAD PUSH3 0x461BCD PUSH1 0xE5 SHL DUP2 MSTORE PUSH1 0x4 ADD DUP1 DUP1 PUSH1 0x20 ADD DUP3 DUP2 SUB DUP3 MSTORE PUSH1 0x23 DUP2 MSTORE PUSH1 0x20 ADD DUP1 PUSH2 0x5AAE PUSH1 0x23 SWAP2 CODECOPY PUSH1 0x40 ADD SWAP2 POP POP PUSH1 0x40 MLOAD DUP1 SWAP2 SUB SWAP1 REVERT JUMPDEST PUSH2 0x56B5 PUSH2 0x57C0 DUP8 PUSH1 0x7 ADD SLOAD PUSH2 0x5279 JUMP JUMPDEST PUSH2 0x444E DUP4 DUP6 PUSH4 0xFFFFFFFF PUSH2 0x46C0 AND JUMP JUMPDEST PUSH1 0x8 DUP3 ADD SLOAD PUSH2 0x57E5 SWAP1 DUP3 PUSH4 0xFFFFFFFF PUSH2 0x43DD AND JUMP JUMPDEST DUP3 PUSH1 0x8 ADD DUP2 SWAP1 SSTORE POP POP POP JUMP JUMPDEST DUP1 DUP3 PUSH1 0x8 ADD SLOAD LT ISZERO PUSH2 0x5834 JUMPI PUSH1 0x40 MLOAD PUSH3 0x461BCD PUSH1 0xE5 SHL DUP2 MSTORE PUSH1 0x4 ADD DUP1 DUP1 PUSH1 0x20 ADD DUP3 DUP2 SUB DUP3 MSTORE PUSH1 0x50 DUP2 MSTORE PUSH1 0x20 ADD DUP1 PUSH2 0x59F3 PUSH1 0x50 SWAP2 CODECOPY PUSH1 0x60 ADD SWAP2 POP POP PUSH1 0x40 MLOAD DUP1 SWAP2 SUB SWAP1 REVERT JUMPDEST PUSH1 0x8 DUP3 ADD SLOAD PUSH2 0x57E5 SWAP1 DUP3 PUSH4 0xFFFFFFFF PUSH2 0x46C0 AND JUMP JUMPDEST PUSH1 0x0 PUSH4 0x1DCD6500 PUSH2 0x1D8A PUSH4 0x3B9ACA00 PUSH2 0x4E0B DUP4 DUP7 PUSH2 0x43DD JUMP JUMPDEST PUSH1 0x0 DUP3 PUSH2 0x5871 JUMPI POP PUSH1 0x0 PUSH2 0x1A20 JUMP JUMPDEST DUP3 DUP3 MUL DUP3 DUP5 DUP3 DUP2 PUSH2 0x587E JUMPI INVALID JUMPDEST DIV EQ PUSH2 0x1D8A JUMPI PUSH1 0x40 MLOAD PUSH3 0x461BCD PUSH1 0xE5 SHL DUP2 MSTORE PUSH1 0x4 ADD DUP1 DUP1 PUSH1 0x20 ADD DUP3 DUP2 SUB DUP3 MSTORE PUSH1 0x21 DUP2 MSTORE PUSH1 0x20 ADD DUP1 PUSH2 0x5B89 PUSH1 0x21 SWAP2 CODECOPY PUSH1 0x40 ADD SWAP2 POP POP PUSH1 0x40 MLOAD DUP1 SWAP2 SUB SWAP1 REVERT JUMPDEST PUSH1 0x0 PUSH2 0x1D8A DUP4 DUP4 PUSH1 0x40 MLOAD DUP1 PUSH1 0x40 ADD PUSH1 0x40 MSTORE DUP1 PUSH1 0x1A DUP2 MSTORE PUSH1 0x20 ADD PUSH32 0x536166654D6174683A206469766973696F6E206279207A65726F000000000000 DUP2 MSTORE POP PUSH2 0x5957 JUMP JUMPDEST PUSH1 0x0 PUSH1 0x2 DUP3 MOD PUSH2 0x5919 JUMPI PUSH12 0x33B2E3C9FD0803CE8000000 PUSH2 0x591B JUMP JUMPDEST DUP3 JUMPDEST SWAP1 POP PUSH1 0x2 DUP3 DIV SWAP2 POP JUMPDEST DUP2 ISZERO PUSH2 0x1A20 JUMPI PUSH2 0x5934 DUP4 DUP5 PUSH2 0x51F0 JUMP JUMPDEST SWAP3 POP PUSH1 0x2 DUP3 MOD ISZERO PUSH2 0x594C JUMPI PUSH2 0x5949 DUP2 DUP5 PUSH2 0x51F0 JUMP JUMPDEST SWAP1 POP JUMPDEST PUSH1 0x2 DUP3 DIV SWAP2 POP PUSH2 0x5924 JUMP JUMPDEST PUSH1 0x0 DUP2 DUP4 PUSH2 0x59A6 JUMPI PUSH1 0x40 MLOAD PUSH3 0x461BCD PUSH1 0xE5 SHL DUP2 MSTORE PUSH1 0x20 PUSH1 0x4 DUP3 ADD DUP2 DUP2 MSTORE DUP4 MLOAD PUSH1 0x24 DUP5 ADD MSTORE DUP4 MLOAD SWAP1 SWAP3 DUP4 SWAP3 PUSH1 0x44 SWAP1 SWAP2 ADD SWAP2 SWAP1 DUP6 ADD SWAP1 DUP1 DUP4 DUP4 PUSH1 0x0 DUP4 ISZERO PUSH2 0x54AB JUMPI DUP2 DUP2 ADD MLOAD DUP4 DUP3 ADD MSTORE PUSH1 0x20 ADD PUSH2 0x5493 JUMP JUMPDEST POP PUSH1 0x0 DUP4 DUP6 DUP2 PUSH2 0x59B2 JUMPI INVALID JUMPDEST DIV SWAP6 SWAP5 POP POP POP POP POP JUMP INVALID CHAINID PUSH6 0x65206C697175 PUSH10 0x646174696F6E20646F65 PUSH20 0x206E6F74207265717569726520616E7920747261 PUSH15 0x73666572206F662076616C75655468 PUSH6 0x20616D6F756E PUSH21 0x2074686174206973206265696E6720737562747261 PUSH4 0x74656420 PUSH7 0x726F6D20746865 KECCAK256 PUSH23 0x61726961626C6520746F74616C20626F72726F77732069 PUSH20 0x20696E636F727265637454686520616D6F756E74 KECCAK256 PUSH2 0x6E64 KECCAK256 PUSH21 0x68652076616C75652073656E7420746F206465706F PUSH20 0x697420646F206E6F74206D617463684F6E6C7920 PUSH4 0x6F6E7472 PUSH2 0x6374 PUSH20 0x2063616E2073656E6420657468657220746F2074 PUSH9 0x65204C656E64696E67 KECCAK256 PUSH17 0x6F6F6C20636F726554686520616D6F756E PUSH21 0x7320746F20737562747261637420646F6E2774206D PUSH2 0x7463 PUSH9 0x557365722069732073 PUSH6 0x6E64696E6720 GASLIMIT SLOAD 0x48 KECCAK256 PUSH2 0x6C6F PUSH15 0x672077697468207468652045524332 ADDRESS KECCAK256 PUSH21 0x72616E736665722E496E737472756D656E74206861 PUSH20 0x206E6F74206265656E20696E697469616C697A65 PUSH5 0x2079657455 PUSH20 0x65722069732073656E64696E672045544820616C PUSH16 0x6E672077697468207468652045524332 ADDRESS KECCAK256 PUSH21 0x72616E736665722E20436865636B20746865207661 PUSH13 0x75652061747472696275746520 PUSH16 0x6620746865207472616E73616374696F PUSH15 0x536166654D6174683A206D756C7469 PUSH17 0x6C69636174696F6E206F766572666C6F77 NUMBER PUSH16 0x6E747261637420696E7374616E636520 PUSH9 0x617320616C72656164 PUSH26 0x206265656E20696E697469616C697A65645468652063616C6C65 PUSH19 0x206D7573742062652061206C656E64696E6720 PUSH17 0x6F6F6C20636F6E7472616374496E737472 PUSH22 0x6D656E74206661696C656420746F2062652070726F70 PUSH6 0x726C79206164 PUSH5 0x656420746F KECCAK256 PUSH21 0x6865206C697374206F6620496E737472756D656E74 PUSH20 0x20737570706F7274656420627920534947482046 PUSH10 0x6E616E6365496E76616C PUSH10 0x6420696E746572657374 KECCAK256 PUSH19 0x617465206D6F64652072656365697665645361 PUSH7 0x6545524332303A KECCAK256 GASLIMIT MSTORE NUMBER ORIGIN ADDRESS KECCAK256 PUSH16 0x7065726174696F6E20646964206E6F74 KECCAK256 PUSH20 0x7563636565645468652063616C6C6572206D7573 PUSH21 0x20626520746865206C656E64696E6720706F6F6C20 PUSH4 0x6F6E6669 PUSH8 0x757261746F722061 PUSH4 0x636F756E PUSH21 0xA265627A7A723158200EECFD00E3D8D12156CFB3FE 0xB6 0x4E 0x5F 0xA5 OR DUP8 0xD LOG3 PUSH19 0x7153D312F4F22401A93BF664736F6C63430005 GT STOP ORIGIN "
		},
		"gasEstimates": {
			"creation": {
				"codeDepositCost": "4766000",
				"executionCost": "10611",
				"totalCost": "4776611"
			},
			"external": {
				"": "infinite",
				"CORE_REVISION()": "334",
				"activateInstrument(address)": "infinite",
				"addressesProvider()": "1171",
				"deactivateInstrument(address)": "infinite",
				"disableBorrowingOnInstrument(address)": "infinite",
				"disableInstrumentAsCollateral(address)": "infinite",
				"disableInstrumentStableBorrowRate(address)": "infinite",
				"enableBorrowingOnInstrument(address)": "infinite",
				"enableInstrumentAsCollateral(address,uint256,uint256,uint256)": "infinite",
				"enableInstrumentStableBorrowRate(address)": "infinite",
				"freezeInstrument(address)": "infinite",
				"getInstrumentAvailableLiquidity(address)": "infinite",
				"getInstrumentConfiguration(address)": "3794",
				"getInstrumentCurrentAverageStableBorrowRate(address)": "1214",
				"getInstrumentCurrentLiquidityRate(address)": "1304",
				"getInstrumentCurrentStableBorrowRate(address)": "infinite",
				"getInstrumentCurrentVariableBorrowRate(address)": "infinite",
				"getInstrumentDecimals(address)": "1282",
				"getInstrumentITokenAddress(address)": "1307",
				"getInstrumentInterestRateStrategyAddress(address)": "1247",
				"getInstrumentIsActive(address)": "1228",
				"getInstrumentIsFreezed(address)": "1282",
				"getInstrumentIsStableBorrowRateEnabled(address)": "1238",
				"getInstrumentLastUpdate(address)": "1317",
				"getInstrumentLiquidationBonus(address)": "1215",
				"getInstrumentLiquidationThreshold(address)": "1238",
				"getInstrumentLiquidityCumulativeIndex(address)": "1303",
				"getInstrumentNormalizedIncome(address)": "infinite",
				"getInstrumentTotalBorrows(address)": "infinite",
				"getInstrumentTotalBorrowsStable(address)": "1216",
				"getInstrumentTotalBorrowsVariable(address)": "1239",
				"getInstrumentTotalLiquidity(address)": "infinite",
				"getInstrumentUtilizationRate(address)": "infinite",
				"getInstrumentVariableBorrowsCumulativeIndex(address)": "1240",
				"getInstruments()": "infinite",
				"getUserBasicInstrumentData(address,address)": "infinite",
				"getUserBorrowBalances(address,address)": "infinite",
				"getUserCurrentBorrowRateMode(address,address)": "2257",
				"getUserCurrentStableBorrowRate(address,address)": "1391",
				"getUserLastUpdate(address,address)": "1333",
				"getUserOriginationFee(address,address)": "1367",
				"getUserUnderlyingAssetBalance(address,address)": "infinite",
				"getUserVariableBorrowCumulativeIndex(address,address)": "1368",
				"initInstrument(address,address,uint256,address)": "infinite",
				"initialize(address)": "infinite",
				"instrumentsList(uint256)": "2102",
				"isInstrumentBorrowingEnabled(address)": "1262",
				"isInstrumentUsageAsCollateralEnabled(address)": "1282",
				"isUserAllowedToBorrowAtStable(address,address,uint256)": "infinite",
				"isUserUseInstrumentAsCollateralEnabled(address,address)": "1418",
				"lendingPoolAddress()": "1105",
				"liquidateFee(address,uint256,address)": "infinite",
				"refreshConfiguration()": "infinite",
				"setInstrumentBaseLTVasCollateral(address,uint256)": "infinite",
				"setInstrumentDecimals(address,uint256)": "infinite",
				"setInstrumentInterestRateStrategyAddress(address,address)": "infinite",
				"setInstrumentLiquidationBonus(address,uint256)": "infinite",
				"setInstrumentLiquidationThreshold(address,uint256)": "infinite",
				"setUserUseInstrumentAsCollateral(address,address,bool)": "infinite",
				"sighMechanism()": "1192",
				"transferToFeeCollectionAddress(address,address,uint256,address)": "infinite",
				"transferToReserve(address,address,uint256)": "infinite",
				"transferToUser(address,address,uint256)": "infinite",
				"unfreezeInstrument(address)": "infinite",
				"updateStateOnBorrow(address,address,uint256,uint256,uint8)": "infinite",
				"updateStateOnDeposit(address,address,uint256,bool)": "infinite",
				"updateStateOnFlashLoan(address,uint256,uint256,uint256)": "infinite",
				"updateStateOnLiquidation(address,address,address,uint256,uint256,uint256,uint256,uint256,bool)": "infinite",
				"updateStateOnRebalance(address,address,uint256)": "infinite",
				"updateStateOnRedeem(address,address,uint256,bool)": "infinite",
				"updateStateOnRepay(address,address,uint256,uint256,uint256,bool)": "infinite",
				"updateStateOnSwapRate(address,address,uint256,uint256,uint256,uint8)": "infinite"
			},
			"internal": {
				"addInstrumentToListInternal(address)": "infinite",
				"getRevision()": "15",
				"getUserCurrentBorrowRate(address,address)": "infinite",
				"refreshConfigInternal()": "infinite",
				"transferFlashLoanProtocolFeeInternal(address,uint256)": "infinite",
				"updateInstrumentInterestRatesAndTimestampInternal(address,uint256,uint256)": "infinite",
				"updateInstrumentStateOnBorrowInternal(address,address,uint256,uint256,uint256,enum CoreLibrary.InterestRateMode)": "infinite",
				"updateInstrumentStateOnRebalanceInternal(address,address,uint256)": "infinite",
				"updateInstrumentStateOnRepayInternal(address,address,uint256,uint256)": "infinite",
				"updateInstrumentStateOnSwapRateInternal(address,address,uint256,uint256,enum CoreLibrary.InterestRateMode)": "infinite",
				"updateInstrumentTotalBorrowsByRateModeInternal(address,address,uint256,uint256,uint256,enum CoreLibrary.InterestRateMode)": "infinite",
				"updatePrincipalInstrumentStateOnLiquidationInternal(address)": "infinite",
				"updatePrincipalInstrumentStateOnLiquidationInternal(address,address,uint256,uint256)": "infinite",
				"updateUserStateOnBorrowInternal(address,address,uint256,uint256,uint256,enum CoreLibrary.InterestRateMode)": "infinite",
				"updateUserStateOnLiquidationInternal(address,address,uint256,uint256,uint256)": "infinite",
				"updateUserStateOnRebalanceInternal(address,address,uint256)": "infinite",
				"updateUserStateOnRepayInternal(address,address,uint256,uint256,uint256,bool)": "infinite",
				"updateUserStateOnSwapRateInternal(address,address,uint256,enum CoreLibrary.InterestRateMode)": "infinite"
			}
		},
		"methodIdentifiers": {
			"CORE_REVISION()": "0c7de4e9",
			"activateInstrument(address)": "da901690",
			"addressesProvider()": "c72c4d10",
			"deactivateInstrument(address)": "56df9ca2",
			"disableBorrowingOnInstrument(address)": "174ec539",
			"disableInstrumentAsCollateral(address)": "ea84c1ba",
			"disableInstrumentStableBorrowRate(address)": "683775a2",
			"enableBorrowingOnInstrument(address)": "6670b519",
			"enableInstrumentAsCollateral(address,uint256,uint256,uint256)": "e6df474e",
			"enableInstrumentStableBorrowRate(address)": "c0e1dff7",
			"freezeInstrument(address)": "1f7dbbf6",
			"getInstrumentAvailableLiquidity(address)": "9f15d5c6",
			"getInstrumentConfiguration(address)": "c619adac",
			"getInstrumentCurrentAverageStableBorrowRate(address)": "fbab2405",
			"getInstrumentCurrentLiquidityRate(address)": "3c035866",
			"getInstrumentCurrentStableBorrowRate(address)": "aea3b07e",
			"getInstrumentCurrentVariableBorrowRate(address)": "5cfdd994",
			"getInstrumentDecimals(address)": "dc08d848",
			"getInstrumentITokenAddress(address)": "aafa6de0",
			"getInstrumentInterestRateStrategyAddress(address)": "0feb5d88",
			"getInstrumentIsActive(address)": "2706e94e",
			"getInstrumentIsFreezed(address)": "8bb3a3c4",
			"getInstrumentIsStableBorrowRateEnabled(address)": "75d87acc",
			"getInstrumentLastUpdate(address)": "ffa388b0",
			"getInstrumentLiquidationBonus(address)": "f11c4594",
			"getInstrumentLiquidationThreshold(address)": "609cb289",
			"getInstrumentLiquidityCumulativeIndex(address)": "959fc3e5",
			"getInstrumentNormalizedIncome(address)": "2b0475e1",
			"getInstrumentTotalBorrows(address)": "245720ec",
			"getInstrumentTotalBorrowsStable(address)": "c172350b",
			"getInstrumentTotalBorrowsVariable(address)": "54e66562",
			"getInstrumentTotalLiquidity(address)": "792a0feb",
			"getInstrumentUtilizationRate(address)": "d1c4c0fa",
			"getInstrumentVariableBorrowsCumulativeIndex(address)": "07ce32a5",
			"getInstruments()": "1635717c",
			"getUserBasicInstrumentData(address,address)": "fcfe58c8",
			"getUserBorrowBalances(address,address)": "9fb8afcd",
			"getUserCurrentBorrowRateMode(address,address)": "1ca19f19",
			"getUserCurrentStableBorrowRate(address,address)": "6fffab0c",
			"getUserLastUpdate(address,address)": "66d103f3",
			"getUserOriginationFee(address,address)": "feab31ac",
			"getUserUnderlyingAssetBalance(address,address)": "18a4dbca",
			"getUserVariableBorrowCumulativeIndex(address,address)": "f6ea8d76",
			"initInstrument(address,address,uint256,address)": "ecc9e372",
			"initialize(address)": "c4d66de8",
			"instrumentsList(uint256)": "ff6ad9d3",
			"isInstrumentBorrowingEnabled(address)": "10183a35",
			"isInstrumentUsageAsCollateralEnabled(address)": "d0c55548",
			"isUserAllowedToBorrowAtStable(address,address,uint256)": "e2174d86",
			"isUserUseInstrumentAsCollateralEnabled(address,address)": "ee9c2281",
			"lendingPoolAddress()": "d3ae26b3",
			"liquidateFee(address,uint256,address)": "8f385c22",
			"refreshConfiguration()": "64681083",
			"setInstrumentBaseLTVasCollateral(address,uint256)": "004646f6",
			"setInstrumentDecimals(address,uint256)": "cc9334b2",
			"setInstrumentInterestRateStrategyAddress(address,address)": "5610992a",
			"setInstrumentLiquidationBonus(address,uint256)": "66a3f18b",
			"setInstrumentLiquidationThreshold(address,uint256)": "11a92bd7",
			"setUserUseInstrumentAsCollateral(address,address,bool)": "4375ddae",
			"sighMechanism()": "d34651e7",
			"transferToFeeCollectionAddress(address,address,uint256,address)": "c7d14237",
			"transferToReserve(address,address,uint256)": "28fcf4d3",
			"transferToUser(address,address,uint256)": "fa93b2a5",
			"unfreezeInstrument(address)": "a4637e7b",
			"updateStateOnBorrow(address,address,uint256,uint256,uint8)": "37ac6fe4",
			"updateStateOnDeposit(address,address,uint256,bool)": "bcd6ffa4",
			"updateStateOnFlashLoan(address,uint256,uint256,uint256)": "09ac2953",
			"updateStateOnLiquidation(address,address,address,uint256,uint256,uint256,uint256,uint256,bool)": "68beb4d6",
			"updateStateOnRebalance(address,address,uint256)": "af825b07",
			"updateStateOnRedeem(address,address,uint256,bool)": "afcdbea3",
			"updateStateOnRepay(address,address,uint256,uint256,uint256,bool)": "da12d96f",
			"updateStateOnSwapRate(address,address,uint256,uint256,uint256,uint8)": "f6148311"
		}
	},
	"abi": [
		{
			"anonymous": false,
			"inputs": [
				{
					"indexed": true,
					"internalType": "address",
					"name": "instrument",
					"type": "address"
				},
				{
					"indexed": false,
					"internalType": "uint256",
					"name": "liquidityRate",
					"type": "uint256"
				},
				{
					"indexed": false,
					"internalType": "uint256",
					"name": "stableBorrowRate",
					"type": "uint256"
				},
				{
					"indexed": false,
					"internalType": "uint256",
					"name": "variableBorrowRate",
					"type": "uint256"
				},
				{
					"indexed": false,
					"internalType": "uint256",
					"name": "liquidityIndex",
					"type": "uint256"
				},
				{
					"indexed": false,
					"internalType": "uint256",
					"name": "variableBorrowIndex",
					"type": "uint256"
				}
			],
			"name": "InstrumentUpdated",
			"type": "event"
		},
		{
			"payable": true,
			"stateMutability": "payable",
			"type": "fallback"
		},
		{
			"constant": true,
			"inputs": [],
			"name": "CORE_REVISION",
			"outputs": [
				{
					"internalType": "uint256",
					"name": "",
					"type": "uint256"
				}
			],
			"payable": false,
			"stateMutability": "view",
			"type": "function"
		},
		{
			"constant": false,
			"inputs": [
				{
					"internalType": "address",
					"name": "_instrument",
					"type": "address"
				}
			],
			"name": "activateInstrument",
			"outputs": [],
			"payable": false,
			"stateMutability": "nonpayable",
			"type": "function"
		},
		{
			"constant": true,
			"inputs": [],
			"name": "addressesProvider",
			"outputs": [
				{
					"internalType": "contract GlobalAddressesProvider",
					"name": "",
					"type": "address"
				}
			],
			"payable": false,
			"stateMutability": "view",
			"type": "function"
		},
		{
			"constant": false,
			"inputs": [
				{
					"internalType": "address",
					"name": "_instrument",
					"type": "address"
				}
			],
			"name": "deactivateInstrument",
			"outputs": [],
			"payable": false,
			"stateMutability": "nonpayable",
			"type": "function"
		},
		{
			"constant": false,
			"inputs": [
				{
					"internalType": "address",
					"name": "_instrument",
					"type": "address"
				}
			],
			"name": "disableBorrowingOnInstrument",
			"outputs": [],
			"payable": false,
			"stateMutability": "nonpayable",
			"type": "function"
		},
		{
			"constant": false,
			"inputs": [
				{
					"internalType": "address",
					"name": "_instrument",
					"type": "address"
				}
			],
			"name": "disableInstrumentAsCollateral",
			"outputs": [],
			"payable": false,
			"stateMutability": "nonpayable",
			"type": "function"
		},
		{
			"constant": false,
			"inputs": [
				{
					"internalType": "address",
					"name": "_instrument",
					"type": "address"
				}
			],
			"name": "disableInstrumentStableBorrowRate",
			"outputs": [],
			"payable": false,
			"stateMutability": "nonpayable",
			"type": "function"
		},
		{
			"constant": false,
			"inputs": [
				{
					"internalType": "address",
					"name": "_instrument",
					"type": "address"
				}
			],
			"name": "enableBorrowingOnInstrument",
			"outputs": [],
			"payable": false,
			"stateMutability": "nonpayable",
			"type": "function"
		},
		{
			"constant": false,
			"inputs": [
				{
					"internalType": "address",
					"name": "_instrument",
					"type": "address"
				},
				{
					"internalType": "uint256",
					"name": "_baseLTVasCollateral",
					"type": "uint256"
				},
				{
					"internalType": "uint256",
					"name": "_liquidationThreshold",
					"type": "uint256"
				},
				{
					"internalType": "uint256",
					"name": "_liquidationBonus",
					"type": "uint256"
				}
			],
			"name": "enableInstrumentAsCollateral",
			"outputs": [],
			"payable": false,
			"stateMutability": "nonpayable",
			"type": "function"
		},
		{
			"constant": false,
			"inputs": [
				{
					"internalType": "address",
					"name": "_instrument",
					"type": "address"
				}
			],
			"name": "enableInstrumentStableBorrowRate",
			"outputs": [],
			"payable": false,
			"stateMutability": "nonpayable",
			"type": "function"
		},
		{
			"constant": false,
			"inputs": [
				{
					"internalType": "address",
					"name": "_instrument",
					"type": "address"
				}
			],
			"name": "freezeInstrument",
			"outputs": [],
			"payable": false,
			"stateMutability": "nonpayable",
			"type": "function"
		},
		{
			"constant": true,
			"inputs": [
				{
					"internalType": "address",
					"name": "_instrument",
					"type": "address"
				}
			],
			"name": "getInstrumentAvailableLiquidity",
			"outputs": [
				{
					"internalType": "uint256",
					"name": "",
					"type": "uint256"
				}
			],
			"payable": false,
			"stateMutability": "view",
			"type": "function"
		},
		{
			"constant": true,
			"inputs": [
				{
					"internalType": "address",
					"name": "_instrument",
					"type": "address"
				}
			],
			"name": "getInstrumentConfiguration",
			"outputs": [
				{
					"internalType": "uint256",
					"name": "",
					"type": "uint256"
				},
				{
					"internalType": "uint256",
					"name": "",
					"type": "uint256"
				},
				{
					"internalType": "uint256",
					"name": "",
					"type": "uint256"
				},
				{
					"internalType": "bool",
					"name": "",
					"type": "bool"
				}
			],
			"payable": false,
			"stateMutability": "view",
			"type": "function"
		},
		{
			"constant": true,
			"inputs": [
				{
					"internalType": "address",
					"name": "_instrument",
					"type": "address"
				}
			],
			"name": "getInstrumentCurrentAverageStableBorrowRate",
			"outputs": [
				{
					"internalType": "uint256",
					"name": "",
					"type": "uint256"
				}
			],
			"payable": false,
			"stateMutability": "view",
			"type": "function"
		},
		{
			"constant": true,
			"inputs": [
				{
					"internalType": "address",
					"name": "_instrument",
					"type": "address"
				}
			],
			"name": "getInstrumentCurrentLiquidityRate",
			"outputs": [
				{
					"internalType": "uint256",
					"name": "",
					"type": "uint256"
				}
			],
			"payable": false,
			"stateMutability": "view",
			"type": "function"
		},
		{
			"constant": true,
			"inputs": [
				{
					"internalType": "address",
					"name": "_instrument",
					"type": "address"
				}
			],
			"name": "getInstrumentCurrentStableBorrowRate",
			"outputs": [
				{
					"internalType": "uint256",
					"name": "",
					"type": "uint256"
				}
			],
			"payable": false,
			"stateMutability": "view",
			"type": "function"
		},
		{
			"constant": true,
			"inputs": [
				{
					"internalType": "address",
					"name": "_instrument",
					"type": "address"
				}
			],
			"name": "getInstrumentCurrentVariableBorrowRate",
			"outputs": [
				{
					"internalType": "uint256",
					"name": "",
					"type": "uint256"
				}
			],
			"payable": false,
			"stateMutability": "view",
			"type": "function"
		},
		{
			"constant": true,
			"inputs": [
				{
					"internalType": "address",
					"name": "_instrument",
					"type": "address"
				}
			],
			"name": "getInstrumentDecimals",
			"outputs": [
				{
					"internalType": "uint256",
					"name": "",
					"type": "uint256"
				}
			],
			"payable": false,
			"stateMutability": "view",
			"type": "function"
		},
		{
			"constant": true,
			"inputs": [
				{
					"internalType": "address",
					"name": "_instrument",
					"type": "address"
				}
			],
			"name": "getInstrumentITokenAddress",
			"outputs": [
				{
					"internalType": "address",
					"name": "",
					"type": "address"
				}
			],
			"payable": false,
			"stateMutability": "view",
			"type": "function"
		},
		{
			"constant": true,
			"inputs": [
				{
					"internalType": "address",
					"name": "_instrument",
					"type": "address"
				}
			],
			"name": "getInstrumentInterestRateStrategyAddress",
			"outputs": [
				{
					"internalType": "address",
					"name": "",
					"type": "address"
				}
			],
			"payable": false,
			"stateMutability": "view",
			"type": "function"
		},
		{
			"constant": true,
			"inputs": [
				{
					"internalType": "address",
					"name": "_instrument",
					"type": "address"
				}
			],
			"name": "getInstrumentIsActive",
			"outputs": [
				{
					"internalType": "bool",
					"name": "",
					"type": "bool"
				}
			],
			"payable": false,
			"stateMutability": "view",
			"type": "function"
		},
		{
			"constant": true,
			"inputs": [
				{
					"internalType": "address",
					"name": "_instrument",
					"type": "address"
				}
			],
			"name": "getInstrumentIsFreezed",
			"outputs": [
				{
					"internalType": "bool",
					"name": "",
					"type": "bool"
				}
			],
			"payable": false,
			"stateMutability": "view",
			"type": "function"
		},
		{
			"constant": true,
			"inputs": [
				{
					"internalType": "address",
					"name": "_instrument",
					"type": "address"
				}
			],
			"name": "getInstrumentIsStableBorrowRateEnabled",
			"outputs": [
				{
					"internalType": "bool",
					"name": "",
					"type": "bool"
				}
			],
			"payable": false,
			"stateMutability": "view",
			"type": "function"
		},
		{
			"constant": true,
			"inputs": [
				{
					"internalType": "address",
					"name": "_instrument",
					"type": "address"
				}
			],
			"name": "getInstrumentLastUpdate",
			"outputs": [
				{
					"internalType": "uint40",
					"name": "timestamp",
					"type": "uint40"
				}
			],
			"payable": false,
			"stateMutability": "view",
			"type": "function"
		},
		{
			"constant": true,
			"inputs": [
				{
					"internalType": "address",
					"name": "_instrument",
					"type": "address"
				}
			],
			"name": "getInstrumentLiquidationBonus",
			"outputs": [
				{
					"internalType": "uint256",
					"name": "",
					"type": "uint256"
				}
			],
			"payable": false,
			"stateMutability": "view",
			"type": "function"
		},
		{
			"constant": true,
			"inputs": [
				{
					"internalType": "address",
					"name": "_instrument",
					"type": "address"
				}
			],
			"name": "getInstrumentLiquidationThreshold",
			"outputs": [
				{
					"internalType": "uint256",
					"name": "",
					"type": "uint256"
				}
			],
			"payable": false,
			"stateMutability": "view",
			"type": "function"
		},
		{
			"constant": true,
			"inputs": [
				{
					"internalType": "address",
					"name": "_instrument",
					"type": "address"
				}
			],
			"name": "getInstrumentLiquidityCumulativeIndex",
			"outputs": [
				{
					"internalType": "uint256",
					"name": "",
					"type": "uint256"
				}
			],
			"payable": false,
			"stateMutability": "view",
			"type": "function"
		},
		{
			"constant": true,
			"inputs": [
				{
					"internalType": "address",
					"name": "_instrument",
					"type": "address"
				}
			],
			"name": "getInstrumentNormalizedIncome",
			"outputs": [
				{
					"internalType": "uint256",
					"name": "",
					"type": "uint256"
				}
			],
			"payable": false,
			"stateMutability": "view",
			"type": "function"
		},
		{
			"constant": true,
			"inputs": [
				{
					"internalType": "address",
					"name": "_instrument",
					"type": "address"
				}
			],
			"name": "getInstrumentTotalBorrows",
			"outputs": [
				{
					"internalType": "uint256",
					"name": "",
					"type": "uint256"
				}
			],
			"payable": false,
			"stateMutability": "view",
			"type": "function"
		},
		{
			"constant": true,
			"inputs": [
				{
					"internalType": "address",
					"name": "_instrument",
					"type": "address"
				}
			],
			"name": "getInstrumentTotalBorrowsStable",
			"outputs": [
				{
					"internalType": "uint256",
					"name": "",
					"type": "uint256"
				}
			],
			"payable": false,
			"stateMutability": "view",
			"type": "function"
		},
		{
			"constant": true,
			"inputs": [
				{
					"internalType": "address",
					"name": "_instrument",
					"type": "address"
				}
			],
			"name": "getInstrumentTotalBorrowsVariable",
			"outputs": [
				{
					"internalType": "uint256",
					"name": "",
					"type": "uint256"
				}
			],
			"payable": false,
			"stateMutability": "view",
			"type": "function"
		},
		{
			"constant": true,
			"inputs": [
				{
					"internalType": "address",
					"name": "_instrument",
					"type": "address"
				}
			],
			"name": "getInstrumentTotalLiquidity",
			"outputs": [
				{
					"internalType": "uint256",
					"name": "",
					"type": "uint256"
				}
			],
			"payable": false,
			"stateMutability": "view",
			"type": "function"
		},
		{
			"constant": true,
			"inputs": [
				{
					"internalType": "address",
					"name": "_instrument",
					"type": "address"
				}
			],
			"name": "getInstrumentUtilizationRate",
			"outputs": [
				{
					"internalType": "uint256",
					"name": "",
					"type": "uint256"
				}
			],
			"payable": false,
			"stateMutability": "view",
			"type": "function"
		},
		{
			"constant": true,
			"inputs": [
				{
					"internalType": "address",
					"name": "_instrument",
					"type": "address"
				}
			],
			"name": "getInstrumentVariableBorrowsCumulativeIndex",
			"outputs": [
				{
					"internalType": "uint256",
					"name": "",
					"type": "uint256"
				}
			],
			"payable": false,
			"stateMutability": "view",
			"type": "function"
		},
		{
			"constant": true,
			"inputs": [],
			"name": "getInstruments",
			"outputs": [
				{
					"internalType": "address[]",
					"name": "",
					"type": "address[]"
				}
			],
			"payable": false,
			"stateMutability": "view",
			"type": "function"
		},
		{
			"constant": true,
			"inputs": [
				{
					"internalType": "address",
					"name": "_instrument",
					"type": "address"
				},
				{
					"internalType": "address",
					"name": "_user",
					"type": "address"
				}
			],
			"name": "getUserBasicInstrumentData",
			"outputs": [
				{
					"internalType": "uint256",
					"name": "",
					"type": "uint256"
				},
				{
					"internalType": "uint256",
					"name": "",
					"type": "uint256"
				},
				{
					"internalType": "uint256",
					"name": "",
					"type": "uint256"
				},
				{
					"internalType": "bool",
					"name": "",
					"type": "bool"
				}
			],
			"payable": false,
			"stateMutability": "view",
			"type": "function"
		},
		{
			"constant": true,
			"inputs": [
				{
					"internalType": "address",
					"name": "_instrument",
					"type": "address"
				},
				{
					"internalType": "address",
					"name": "_user",
					"type": "address"
				}
			],
			"name": "getUserBorrowBalances",
			"outputs": [
				{
					"internalType": "uint256",
					"name": "",
					"type": "uint256"
				},
				{
					"internalType": "uint256",
					"name": "",
					"type": "uint256"
				},
				{
					"internalType": "uint256",
					"name": "",
					"type": "uint256"
				}
			],
			"payable": false,
			"stateMutability": "view",
			"type": "function"
		},
		{
			"constant": true,
			"inputs": [
				{
					"internalType": "address",
					"name": "_instrument",
					"type": "address"
				},
				{
					"internalType": "address",
					"name": "_user",
					"type": "address"
				}
			],
			"name": "getUserCurrentBorrowRateMode",
			"outputs": [
				{
					"internalType": "enum CoreLibrary.InterestRateMode",
					"name": "",
					"type": "uint8"
				}
			],
			"payable": false,
			"stateMutability": "view",
			"type": "function"
		},
		{
			"constant": true,
			"inputs": [
				{
					"internalType": "address",
					"name": "_instrument",
					"type": "address"
				},
				{
					"internalType": "address",
					"name": "_user",
					"type": "address"
				}
			],
			"name": "getUserCurrentStableBorrowRate",
			"outputs": [
				{
					"internalType": "uint256",
					"name": "",
					"type": "uint256"
				}
			],
			"payable": false,
			"stateMutability": "view",
			"type": "function"
		},
		{
			"constant": true,
			"inputs": [
				{
					"internalType": "address",
					"name": "_instrument",
					"type": "address"
				},
				{
					"internalType": "address",
					"name": "_user",
					"type": "address"
				}
			],
			"name": "getUserLastUpdate",
			"outputs": [
				{
					"internalType": "uint256",
					"name": "timestamp",
					"type": "uint256"
				}
			],
			"payable": false,
			"stateMutability": "view",
			"type": "function"
		},
		{
			"constant": true,
			"inputs": [
				{
					"internalType": "address",
					"name": "_instrument",
					"type": "address"
				},
				{
					"internalType": "address",
					"name": "_user",
					"type": "address"
				}
			],
			"name": "getUserOriginationFee",
			"outputs": [
				{
					"internalType": "uint256",
					"name": "",
					"type": "uint256"
				}
			],
			"payable": false,
			"stateMutability": "view",
			"type": "function"
		},
		{
			"constant": true,
			"inputs": [
				{
					"internalType": "address",
					"name": "_instrument",
					"type": "address"
				},
				{
					"internalType": "address",
					"name": "_user",
					"type": "address"
				}
			],
			"name": "getUserUnderlyingAssetBalance",
			"outputs": [
				{
					"internalType": "uint256",
					"name": "",
					"type": "uint256"
				}
			],
			"payable": false,
			"stateMutability": "view",
			"type": "function"
		},
		{
			"constant": true,
			"inputs": [
				{
					"internalType": "address",
					"name": "_instrument",
					"type": "address"
				},
				{
					"internalType": "address",
					"name": "_user",
					"type": "address"
				}
			],
			"name": "getUserVariableBorrowCumulativeIndex",
			"outputs": [
				{
					"internalType": "uint256",
					"name": "",
					"type": "uint256"
				}
			],
			"payable": false,
			"stateMutability": "view",
			"type": "function"
		},
		{
			"constant": false,
			"inputs": [
				{
					"internalType": "address",
					"name": "_instrument",
					"type": "address"
				},
				{
					"internalType": "address",
					"name": "_iTokenAddress",
					"type": "address"
				},
				{
					"internalType": "uint256",
					"name": "_decimals",
					"type": "uint256"
				},
				{
					"internalType": "address",
					"name": "_interestRateStrategyAddress",
					"type": "address"
				}
			],
			"name": "initInstrument",
			"outputs": [],
			"payable": false,
			"stateMutability": "nonpayable",
			"type": "function"
		},
		{
			"constant": false,
			"inputs": [
				{
					"internalType": "contract GlobalAddressesProvider",
					"name": "_addressesProvider",
					"type": "address"
				}
			],
			"name": "initialize",
			"outputs": [],
			"payable": false,
			"stateMutability": "nonpayable",
			"type": "function"
		},
		{
			"constant": true,
			"inputs": [
				{
					"internalType": "uint256",
					"name": "",
					"type": "uint256"
				}
			],
			"name": "instrumentsList",
			"outputs": [
				{
					"internalType": "address",
					"name": "",
					"type": "address"
				}
			],
			"payable": false,
			"stateMutability": "view",
			"type": "function"
		},
		{
			"constant": true,
			"inputs": [
				{
					"internalType": "address",
					"name": "_instrument",
					"type": "address"
				}
			],
			"name": "isInstrumentBorrowingEnabled",
			"outputs": [
				{
					"internalType": "bool",
					"name": "",
					"type": "bool"
				}
			],
			"payable": false,
			"stateMutability": "view",
			"type": "function"
		},
		{
			"constant": true,
			"inputs": [
				{
					"internalType": "address",
					"name": "_instrument",
					"type": "address"
				}
			],
			"name": "isInstrumentUsageAsCollateralEnabled",
			"outputs": [
				{
					"internalType": "bool",
					"name": "",
					"type": "bool"
				}
			],
			"payable": false,
			"stateMutability": "view",
			"type": "function"
		},
		{
			"constant": true,
			"inputs": [
				{
					"internalType": "address",
					"name": "_instrument",
					"type": "address"
				},
				{
					"internalType": "address",
					"name": "_user",
					"type": "address"
				},
				{
					"internalType": "uint256",
					"name": "_amount",
					"type": "uint256"
				}
			],
			"name": "isUserAllowedToBorrowAtStable",
			"outputs": [
				{
					"internalType": "bool",
					"name": "",
					"type": "bool"
				}
			],
			"payable": false,
			"stateMutability": "view",
			"type": "function"
		},
		{
			"constant": true,
			"inputs": [
				{
					"internalType": "address",
					"name": "_instrument",
					"type": "address"
				},
				{
					"internalType": "address",
					"name": "_user",
					"type": "address"
				}
			],
			"name": "isUserUseInstrumentAsCollateralEnabled",
			"outputs": [
				{
					"internalType": "bool",
					"name": "",
					"type": "bool"
				}
			],
			"payable": false,
			"stateMutability": "view",
			"type": "function"
		},
		{
			"constant": true,
			"inputs": [],
			"name": "lendingPoolAddress",
			"outputs": [
				{
					"internalType": "address",
					"name": "",
					"type": "address"
				}
			],
			"payable": false,
			"stateMutability": "view",
			"type": "function"
		},
		{
			"constant": false,
			"inputs": [
				{
					"internalType": "address",
					"name": "_token",
					"type": "address"
				},
				{
					"internalType": "uint256",
					"name": "_amount",
					"type": "uint256"
				},
				{
					"internalType": "address",
					"name": "_destination",
					"type": "address"
				}
			],
			"name": "liquidateFee",
			"outputs": [],
			"payable": true,
			"stateMutability": "payable",
			"type": "function"
		},
		{
			"constant": false,
			"inputs": [],
			"name": "refreshConfiguration",
			"outputs": [],
			"payable": false,
			"stateMutability": "nonpayable",
			"type": "function"
		},
		{
			"constant": false,
			"inputs": [
				{
					"internalType": "address",
					"name": "_instrument",
					"type": "address"
				},
				{
					"internalType": "uint256",
					"name": "_ltv",
					"type": "uint256"
				}
			],
			"name": "setInstrumentBaseLTVasCollateral",
			"outputs": [],
			"payable": false,
			"stateMutability": "nonpayable",
			"type": "function"
		},
		{
			"constant": false,
			"inputs": [
				{
					"internalType": "address",
					"name": "_instrument",
					"type": "address"
				},
				{
					"internalType": "uint256",
					"name": "_decimals",
					"type": "uint256"
				}
			],
			"name": "setInstrumentDecimals",
			"outputs": [],
			"payable": false,
			"stateMutability": "nonpayable",
			"type": "function"
		},
		{
			"constant": false,
			"inputs": [
				{
					"internalType": "address",
					"name": "_instrument",
					"type": "address"
				},
				{
					"internalType": "address",
					"name": "_rateStrategyAddress",
					"type": "address"
				}
			],
			"name": "setInstrumentInterestRateStrategyAddress",
			"outputs": [],
			"payable": false,
			"stateMutability": "nonpayable",
			"type": "function"
		},
		{
			"constant": false,
			"inputs": [
				{
					"internalType": "address",
					"name": "_instrument",
					"type": "address"
				},
				{
					"internalType": "uint256",
					"name": "_bonus",
					"type": "uint256"
				}
			],
			"name": "setInstrumentLiquidationBonus",
			"outputs": [],
			"payable": false,
			"stateMutability": "nonpayable",
			"type": "function"
		},
		{
			"constant": false,
			"inputs": [
				{
					"internalType": "address",
					"name": "_instrument",
					"type": "address"
				},
				{
					"internalType": "uint256",
					"name": "_threshold",
					"type": "uint256"
				}
			],
			"name": "setInstrumentLiquidationThreshold",
			"outputs": [],
			"payable": false,
			"stateMutability": "nonpayable",
			"type": "function"
		},
		{
			"constant": false,
			"inputs": [
				{
					"internalType": "address",
					"name": "_instrument",
					"type": "address"
				},
				{
					"internalType": "address",
					"name": "_user",
					"type": "address"
				},
				{
					"internalType": "bool",
					"name": "_useAsCollateral",
					"type": "bool"
				}
			],
			"name": "setUserUseInstrumentAsCollateral",
			"outputs": [],
			"payable": false,
			"stateMutability": "nonpayable",
			"type": "function"
		},
		{
			"constant": true,
			"inputs": [],
			"name": "sighMechanism",
			"outputs": [
				{
					"internalType": "contract ISighDistributionHandler",
					"name": "",
					"type": "address"
				}
			],
			"payable": false,
			"stateMutability": "view",
			"type": "function"
		},
		{
			"constant": false,
			"inputs": [
				{
					"internalType": "address",
					"name": "_token",
					"type": "address"
				},
				{
					"internalType": "address",
					"name": "_user",
					"type": "address"
				},
				{
					"internalType": "uint256",
					"name": "_amount",
					"type": "uint256"
				},
				{
					"internalType": "address",
					"name": "_destination",
					"type": "address"
				}
			],
			"name": "transferToFeeCollectionAddress",
			"outputs": [],
			"payable": true,
			"stateMutability": "payable",
			"type": "function"
		},
		{
			"constant": false,
			"inputs": [
				{
					"internalType": "address",
					"name": "_instrument",
					"type": "address"
				},
				{
					"internalType": "address payable",
					"name": "_user",
					"type": "address"
				},
				{
					"internalType": "uint256",
					"name": "_amount",
					"type": "uint256"
				}
			],
			"name": "transferToReserve",
			"outputs": [],
			"payable": true,
			"stateMutability": "payable",
			"type": "function"
		},
		{
			"constant": false,
			"inputs": [
				{
					"internalType": "address",
					"name": "_instrument",
					"type": "address"
				},
				{
					"internalType": "address payable",
					"name": "_user",
					"type": "address"
				},
				{
					"internalType": "uint256",
					"name": "_amount",
					"type": "uint256"
				}
			],
			"name": "transferToUser",
			"outputs": [],
			"payable": false,
			"stateMutability": "nonpayable",
			"type": "function"
		},
		{
			"constant": false,
			"inputs": [
				{
					"internalType": "address",
					"name": "_instrument",
					"type": "address"
				}
			],
			"name": "unfreezeInstrument",
			"outputs": [],
			"payable": false,
			"stateMutability": "nonpayable",
			"type": "function"
		},
		{
			"constant": false,
			"inputs": [
				{
					"internalType": "address",
					"name": "_instrument",
					"type": "address"
				},
				{
					"internalType": "address",
					"name": "_user",
					"type": "address"
				},
				{
					"internalType": "uint256",
					"name": "_amountBorrowed",
					"type": "uint256"
				},
				{
					"internalType": "uint256",
					"name": "_borrowFee",
					"type": "uint256"
				},
				{
					"internalType": "enum CoreLibrary.InterestRateMode",
					"name": "_rateMode",
					"type": "uint8"
				}
			],
			"name": "updateStateOnBorrow",
			"outputs": [
				{
					"internalType": "uint256",
					"name": "",
					"type": "uint256"
				},
				{
					"internalType": "uint256",
					"name": "",
					"type": "uint256"
				}
			],
			"payable": false,
			"stateMutability": "nonpayable",
			"type": "function"
		},
		{
			"constant": false,
			"inputs": [
				{
					"internalType": "address",
					"name": "_instrument",
					"type": "address"
				},
				{
					"internalType": "address",
					"name": "_user",
					"type": "address"
				},
				{
					"internalType": "uint256",
					"name": "_amount",
					"type": "uint256"
				},
				{
					"internalType": "bool",
					"name": "_isFirstDeposit",
					"type": "bool"
				}
			],
			"name": "updateStateOnDeposit",
			"outputs": [],
			"payable": false,
			"stateMutability": "nonpayable",
			"type": "function"
		},
		{
			"constant": false,
			"inputs": [
				{
					"internalType": "address",
					"name": "_instrument",
					"type": "address"
				},
				{
					"internalType": "uint256",
					"name": "_availableLiquidityBefore",
					"type": "uint256"
				},
				{
					"internalType": "uint256",
					"name": "_income",
					"type": "uint256"
				},
				{
					"internalType": "uint256",
					"name": "_protocolFee",
					"type": "uint256"
				}
			],
			"name": "updateStateOnFlashLoan",
			"outputs": [],
			"payable": false,
			"stateMutability": "nonpayable",
			"type": "function"
		},
		{
			"constant": false,
			"inputs": [
				{
					"internalType": "address",
					"name": "_principalInstrument",
					"type": "address"
				},
				{
					"internalType": "address",
					"name": "_collateralInstrument",
					"type": "address"
				},
				{
					"internalType": "address",
					"name": "_user",
					"type": "address"
				},
				{
					"internalType": "uint256",
					"name": "_amountToLiquidate",
					"type": "uint256"
				},
				{
					"internalType": "uint256",
					"name": "_collateralToLiquidate",
					"type": "uint256"
				},
				{
					"internalType": "uint256",
					"name": "_feeLiquidated",
					"type": "uint256"
				},
				{
					"internalType": "uint256",
					"name": "_liquidatedCollateralForFee",
					"type": "uint256"
				},
				{
					"internalType": "uint256",
					"name": "_balanceIncrease",
					"type": "uint256"
				},
				{
					"internalType": "bool",
					"name": "_liquidatorReceivesIToken",
					"type": "bool"
				}
			],
			"name": "updateStateOnLiquidation",
			"outputs": [],
			"payable": false,
			"stateMutability": "nonpayable",
			"type": "function"
		},
		{
			"constant": false,
			"inputs": [
				{
					"internalType": "address",
					"name": "_instrument",
					"type": "address"
				},
				{
					"internalType": "address",
					"name": "_user",
					"type": "address"
				},
				{
					"internalType": "uint256",
					"name": "_balanceIncrease",
					"type": "uint256"
				}
			],
			"name": "updateStateOnRebalance",
			"outputs": [
				{
					"internalType": "uint256",
					"name": "",
					"type": "uint256"
				}
			],
			"payable": false,
			"stateMutability": "nonpayable",
			"type": "function"
		},
		{
			"constant": false,
			"inputs": [
				{
					"internalType": "address",
					"name": "_instrument",
					"type": "address"
				},
				{
					"internalType": "address",
					"name": "_user",
					"type": "address"
				},
				{
					"internalType": "uint256",
					"name": "_amountRedeemed",
					"type": "uint256"
				},
				{
					"internalType": "bool",
					"name": "_userRedeemedEverything",
					"type": "bool"
				}
			],
			"name": "updateStateOnRedeem",
			"outputs": [],
			"payable": false,
			"stateMutability": "nonpayable",
			"type": "function"
		},
		{
			"constant": false,
			"inputs": [
				{
					"internalType": "address",
					"name": "_instrument",
					"type": "address"
				},
				{
					"internalType": "address",
					"name": "_user",
					"type": "address"
				},
				{
					"internalType": "uint256",
					"name": "_paybackAmountMinusFees",
					"type": "uint256"
				},
				{
					"internalType": "uint256",
					"name": "_originationFeeRepaid",
					"type": "uint256"
				},
				{
					"internalType": "uint256",
					"name": "_balanceIncrease",
					"type": "uint256"
				},
				{
					"internalType": "bool",
					"name": "_repaidWholeLoan",
					"type": "bool"
				}
			],
			"name": "updateStateOnRepay",
			"outputs": [],
			"payable": false,
			"stateMutability": "nonpayable",
			"type": "function"
		},
		{
			"constant": false,
			"inputs": [
				{
					"internalType": "address",
					"name": "_instrument",
					"type": "address"
				},
				{
					"internalType": "address",
					"name": "_user",
					"type": "address"
				},
				{
					"internalType": "uint256",
					"name": "_principalBorrowBalance",
					"type": "uint256"
				},
				{
					"internalType": "uint256",
					"name": "_compoundedBorrowBalance",
					"type": "uint256"
				},
				{
					"internalType": "uint256",
					"name": "_balanceIncrease",
					"type": "uint256"
				},
				{
					"internalType": "enum CoreLibrary.InterestRateMode",
					"name": "_currentRateMode",
					"type": "uint8"
				}
			],
			"name": "updateStateOnSwapRate",
			"outputs": [
				{
					"internalType": "enum CoreLibrary.InterestRateMode",
					"name": "",
					"type": "uint8"
				},
				{
					"internalType": "uint256",
					"name": "",
					"type": "uint256"
				}
			],
			"payable": false,
			"stateMutability": "nonpayable",
			"type": "function"
		}
	]
}