{
	"data": {
		"bytecode": {
			"linkReferences": {},
			"object": "608060405234801561001057600080fd5b50600080546001600160a01b03191633179055613cf2806100326000396000f3fe608060405234801561001057600080fd5b50600436106102315760003560e01c80637adbf97311610130578063b114dae3116100b8578063c0992bc61161007c578063c0992bc614610731578063c6a6bfb114610757578063caf73e0a1461075f578063d9f6513a14610767578063fe44bf061461078d57610231565b8063b114dae3146105fb578063b12e660b146106a7578063b8de65d1146106d5578063be08274f14610703578063bf1678f61461072957610231565b806389fb59b4116100ff57806389fb59b4146105535780638d9cf8641461055b5780639ad38f4c14610581578063a1d02a55146105af578063aa22265f146105d557610231565b80637adbf973146104f75780637b7309f31461051d5780637c52b668146105255780637dc0d1d01461054b57610231565b80634cdfb79f116101be57806352d84d1e1161018257806352d84d1e14610460578063593d19b31461047d5780635cb56745146104a357806375810e76146104c9578063770d61d1146104d157610231565b80634cdfb79f1461036c5780634df6bd2b146103ba5780634df859fd146103e05780634f425fbb1461040c578063522b02021461043457610231565b806321428a121161020557806321428a12146102e65780632782e8cc146102ee5780632c8eb0bb146102f65780632df0f9a91461031a57806342cbb15c1461034b57610231565b80624636721461023657806304f604d8146102765780630bf688311461029a578063171221ec146102c0575b600080fd5b6102646004803603604081101561024c57600080fd5b506001600160a01b0381358116916020013516610795565b60408051918252519081900360200190f35b61027e6107b2565b604080516001600160a01b039092168252519081900360200190f35b61027e600480360360208110156102b057600080fd5b50356001600160a01b03166107c1565b610264600480360360208110156102d657600080fd5b50356001600160a01b0316610844565b61027e610856565b610264610865565b6102fe61086b565b604080516001600160e01b039092168252519081900360200190f35b6103376004803603602081101561033057600080fd5b503561087a565b604080519115158252519081900360200190f35b610353610943565b6040805163ffffffff9092168252519081900360200190f35b6103926004803603602081101561038257600080fd5b50356001600160a01b0316610948565b604080516001600160e01b03909316835263ffffffff90911660208301528051918290030190f35b610264600480360360208110156103d057600080fd5b50356001600160a01b0316610972565b6102fe600480360360408110156103f657600080fd5b506001600160a01b038135169060200135610984565b6104326004803603602081101561042257600080fd5b50356001600160a01b03166109b9565b005b6103376004803603604081101561044a57600080fd5b506001600160a01b038135169060200135610e30565b61027e6004803603602081101561047657600080fd5b5035610f7c565b6103536004803603602081101561049357600080fd5b50356001600160a01b0316610fa3565b610337600480360360208110156104b957600080fd5b50356001600160a01b0316610fbe565b610264611485565b61027e600480360360208110156104e757600080fd5b50356001600160a01b0316611490565b6103376004803603602081101561050d57600080fd5b50356001600160a01b0316611513565b6102fe611598565b6104326004803603602081101561053b57600080fd5b50356001600160a01b031661159d565b61027e611a99565b610264611aa8565b6102fe6004803603602081101561057157600080fd5b50356001600160a01b0316611aae565b6104326004803603604081101561059757600080fd5b506001600160a01b0381358116916020013516611ad2565b610337600480360360208110156105c557600080fd5b50356001600160a01b0316611dd1565b610337600480360360208110156105eb57600080fd5b50356001600160a01b0316611e54565b6104326004803603606081101561061157600080fd5b81019060208101813564010000000081111561062c57600080fd5b82018360208201111561063e57600080fd5b8035906020019184602083028401116401000000008311171561066057600080fd5b919080806020026020016040519081016040528093929190818152602001838360200280828437600092019190915250929550505050803515159150602001351515611ffd565b610432600480360360408110156106bd57600080fd5b506001600160a01b0381358116916020013516612125565b610264600480360360408110156106eb57600080fd5b506001600160a01b0381358116916020013516612529565b6102646004803603602081101561071957600080fd5b50356001600160a01b0316612546565b610337612558565b6102646004803603602081101561074757600080fd5b50356001600160a01b03166125a7565b6102646125b9565b6102fe61263b565b6103926004803603602081101561077d57600080fd5b50356001600160a01b031661264d565b61027e612677565b601060209081526000928352604080842090915290825290205481565b6001546001600160a01b031681565b600080546001600160a01b03163314610821576040805162461bcd60e51b815260206004820152601f60248201527f6f6e6c792061646d696e2063616e2073657420536967685f4164647265737300604482015290519081900360640190fd5b50600480546001600160a01b0319166001600160a01b0392831617908190551690565b600a6020526000908152604090205481565b6003546001600160a01b031681565b60085481565b6009546001600160e01b031681565b6001546000906001600160a01b03163314806108a057506000546001600160a01b031633145b6108db5760405162461bcd60e51b815260040180806020018281038252602b815260200180613b3d602b913960400191505060405180910390fd5b60078054908390557fb35ae78d38c9ad12feab06bfa59b6d4364d33e312f0e00ffb1776f0c60e5ff7a818461090e610943565b60408051938452602084019290925263ffffffff1682820152519081900360600190a1610939612558565b5060019392505050565b435b90565b600e602052600090815260409020546001600160e01b03811690600160e01b900463ffffffff1682565b60126020526000908152604090205481565b6001600160a01b0382166000908152600f6020526040812082601881106109a757fe5b01546001600160e01b03169392505050565b6001546001600160a01b03163314806109dc57506000546001600160a01b031633145b610a175760405162461bcd60e51b8152600401808060200182810382526033815260200180613aa86033913960400191505060405180910390fd5b6001600160a01b0381166000908152600d60209081526040808320600b9092528220549091610a44610943565b83546040805160608101909152603380825263ffffffff93841694506001600160e01b03831693600093610a8e938793600160e01b9092049092169190613c8b6020830139612686565b8554604080516001600160a01b038a168152602081018890526001600160e01b0383168183015263ffffffff600160e01b9093049290921660608301526080820186905260a08201839052519192507f33c3c4fbbf284318eed04c3cf9daac06e5923d93fe4a2be263a7ef9ca04a61d1919081900360c00190a1600081118015610b185750600084115b15610d3c576000610b298286612722565b90506000876001600160a01b03166318160ddd6040518163ffffffff1660e01b815260040160206040518083038186803b158015610b6657600080fd5b505afa158015610b7a573d6000803e3d6000fd5b505050506040513d6020811015610b9057600080fd5b50519050610b9c613994565b60008211610bb95760405180602001604052806000815250610bc3565b610bc38383612764565b9050610bcd613994565b604080516020810190915289546001600160e01b03168152610bef90836127a1565b82518151604080516001600160a01b038f1681526020810188905280820189905260608101939093526080830191909152519192507fe95dd326fd60b246147ca887c909941be4959f1d69568fada2de48030966a6b6919081900360a00190a16040518060400160405280610c9d83600001516040518060400160405280601a81526020017f6e657720696e64657820657863656564732032323420626974730000000000008152506127c6565b6001600160e01b03168152602001610cd8896040518060400160405280601c8152602001600080516020613c6b833981519152815250612823565b63ffffffff9081169091526001600160a01b038c166000908152600d60209081526040909120835181549490920151909216600160e01b026001600160e01b039182166001600160e01b0319909416939093171691909117905550610d8f92505050565b8015610d8f57610d6f836040518060400160405280601c8152602001600080516020613c6b833981519152815250612823565b855463ffffffff91909116600160e01b026001600160e01b039091161785555b610d976139a7565b506001600160a01b0386166000818152600d60209081526040918290208251808401845290546001600160e01b03811680835263ffffffff600160e01b909204919091168284018190528451958652928501879052848401526060840191909152905190917ff3f7e0fdea8bdab4b48e0a46de330b1548a9741b9346db25843f0401fbb5d63b919081900360800190a150505050505050565b600080546001600160a01b03163314610e7a5760405162461bcd60e51b8152600401808060200182810382526044815260200180613bcb6044913960600191505060405180910390fd5b6706f05b59d3b200008211610ec05760405162461bcd60e51b8152600401808060200182810382526032815260200180613c0f6032913960400191505060405180910390fd5b670de0b6b3a7640000821115610f075760405162461bcd60e51b815260040180806020018281038252602d815260200180613a5a602d913960400191505060405180910390fd5b6001600160a01b0383166000818152600a60209081526040918290208054908690558251938452908301819052828201859052905190917fdade4f941992368dc087a600c8e7b5c61509cd6a99aba9615921929ece521da3919081900360600190a1610f71612558565b506001949350505050565b60058181548110610f8957fe5b6000918252602090912001546001600160a01b0316905081565b600f6020526000908152604090206018015463ffffffff1681565b6001546000906001600160a01b0316331480610fe457506000546001600160a01b031633145b61101f5760405162461bcd60e51b815260040180806020018281038252602a815260200180613c41602a913960400191505060405180910390fd5b6001600160a01b03821660009081526006602052604090205460ff161561108d576040805162461bcd60e51b815260206004820152601c60248201527f4d61726b657420616c726561647920737570706f727473205349474800000000604482015290519081900360640190fd5b61109682612879565b6001600160a01b0382166000908152600d60205260409020546001600160e01b03161580156110e857506001600160a01b0382166000908152600d6020526040902054600160e01b900463ffffffff16155b156112185760405180604001604052806111316a0c097ce7bc90715b34b9f160241b6001600160e01b0316604051806060016040528060218152602001613a87602191396127c6565b6001600160e01b0316815260200161117961114a610943565b63ffffffff166040518060400160405280601c8152602001600080516020613c6b833981519152815250612823565b63ffffffff9081169091526001600160a01b0384166000818152600d602090815260409182902085518154968301516001600160e01b03199097166001600160e01b03918216178116600160e01b978716880217918290558351948552811691840191909152939093049091168183015290517fea6ea9045fed8fdf09e1cd7b5c1a56a54a0269791d8e1474b141aa220917eaa9916060908290030190a15b6001600160a01b0382166000908152600e60205260409020546001600160e01b031615801561126a57506001600160a01b0382166000908152600e6020526040902054600160e01b900463ffffffff16155b1561136b5760405180604001604052806112b36a0c097ce7bc90715b34b9f160241b6001600160e01b0316604051806060016040528060218152602001613a87602191396127c6565b6001600160e01b031681526020016112cc61114a610943565b63ffffffff9081169091526001600160a01b0384166000818152600e602090815260409182902085518154968301516001600160e01b03199097166001600160e01b03918216178116600160e01b978716880217918290558351948552811691840191909152939093049091168183015290517fea6ea9045fed8fdf09e1cd7b5c1a56a54a0269791d8e1474b141aa220917eaa9916060908290030190a15b6001600160a01b0382166000908152600f602052604090206018015463ffffffff166113f8576113996139be565b604080518082018252828152600060208083018290526001600160a01b0387168252600f90529190912081516113d290829060186139dd565b50602091909101516018909101805463ffffffff191663ffffffff909216919091179055505b6001600160a01b0382166000908152600a60209081526040808320670de0b6b3a7640000905560069091529020805460ff19166001179055611438612558565b50604080516001600160a01b03841681526001602082015281517fd5f5b7732da53526b112e858cdf354b8d8ad54ab944ddca1dbe803e292f181d7929181900390910190a1506001919050565b66038d7ea4c6800081565b600080546001600160a01b031633146114f0576040805162461bcd60e51b815260206004820152601f60248201527f6f6e6c792061646d696e2063616e2073657420536967685f4164647265737300604482015290519081900360640190fd5b50600380546001600160a01b0319166001600160a01b0392831617908190551690565b600080546001600160a01b03163314611573576040805162461bcd60e51b815260206004820152601960248201527f6f6e6c792061646d696e2063616e20736574206f7261636c6500000000000000604482015290519081900360640190fd5b50600280546001600160a01b0383166001600160a01b03199091161790556001919050565b600181565b6001546001600160a01b03163314806115c057506000546001600160a01b031633145b6115fb5760405162461bcd60e51b8152600401808060200182810382526033815260200180613aa86033913960400191505060405180910390fd5b80611604613994565b6040518060200160405280836001600160a01b031663aa5af0fd6040518163ffffffff1660e01b815260040160206040518083038186803b15801561164857600080fd5b505afa15801561165c573d6000803e3d6000fd5b505050506040513d602081101561167257600080fd5b505190526001600160a01b0384166000908152600e60209081526040808320600c90925282205492935091906116a6610943565b835463ffffffff91821692506001600160e01b038116916000916116d3918591600160e01b900416612920565b8554604080516001600160a01b038c168152602081018890526001600160e01b0383168183015263ffffffff600160e01b9093049290921660608301526080820186905260a08201839052519192507fa058dfd6c04d9834195c4b80ae7ca35418d9d07d684cdeb45972eec16c1b336e919081900360c00190a160008111801561175d5750600084115b156119a357600061176e8286612722565b90506000896001600160a01b03166347bd37186040518163ffffffff1660e01b815260040160206040518083038186803b1580156117ab57600080fd5b505afa1580156117bf573d6000803e3d6000fd5b505050506040513d60208110156117d557600080fd5b5051905060006117e5828a61295a565b90506117ef613994565b6000821161180c5760405180602001604052806000815250611816565b6118168483612764565b9050611820613994565b60408051602081019091528a546001600160e01b0316815261184290836127a1565b90507f0be37f70e594e12d41728104a3b673f3291f124ea114f134a0880e6f5f84b16c8d84878560000151856000015160405180866001600160a01b03166001600160a01b031681526020018581526020018481526020018381526020018281526020019550505050505060405180910390a1604051806040016040528061190383600001516040518060400160405280601a81526020017f6e657720696e64657820657863656564732032323420626974730000000000008152506127c6565b6001600160e01b0316815260200161193e8a6040518060400160405280601c8152602001600080516020613c6b833981519152815250612823565b63ffffffff9081169091526001600160a01b038f166000908152600e60209081526040909120835181549490920151909216600160e01b026001600160e01b039182166001600160e01b03199094169390931716919091179055506119f69350505050565b80156119f6576119d6836040518060400160405280601c8152602001600080516020613c6b833981519152815250612823565b855463ffffffff91909116600160e01b026001600160e01b039091161785555b6119fe6139a7565b506001600160a01b0388166000818152600e60209081526040918290208251808401845290546001600160e01b03811680835263ffffffff600160e01b909204919091168284018190528451958652928501879052848401526060840191909152905190917f6e0d87063c8417fd7b8b3205d65ebdb7c8b9acdacd9a31ff3bbb870f6f40a459919081900360800190a1505050505050505050565b6002546001600160a01b031681565b60075481565b6001600160a01b03166000908152600f602052604090206018015463ffffffff1690565b6001546001600160a01b0316331480611af557506000546001600160a01b031633145b611b305760405162461bcd60e51b8152600401808060200182810382526033815260200180613aa86033913960400191505060405180910390fd5b6001600160a01b0382166000908152600d60205260409020611b50613994565b50604080516020810190915281546001600160e01b03168152611b71613994565b5060408051602080820183526001600160a01b03808816600090815260108352848120918816808252828452948120805485528651959091529152919091558051158015611bbf5750815115155b15611bd6576a0c097ce7bc90715b34b9f160241b81525b81518151604080516001600160a01b0389168152602081019390935282810191909152517f8570f42cdf4cb0f9d23a4554baaca6538401acf7d2793bae71863a7d1d4f05e19181900360600190a1611c2c613994565b611c368383612978565b90506000866001600160a01b03166370a08231876040518263ffffffff1660e01b815260040180826001600160a01b03166001600160a01b0316815260200191505060206040518083038186803b158015611c9057600080fd5b505afa158015611ca4573d6000803e3d6000fd5b505050506040513d6020811015611cba57600080fd5b505190506000611cca828461299d565b6001600160a01b03881660009081526012602052604081205491925090611cf190836129cb565b8451604080516001600160a01b038d16815260208101929092528181018690526060820185905260808201839052519192507f9c41d92aa5b3c16b706af3e6514ad0658b630cdedfa37bf17c5db60233eeb647919081900360a00190a1611d60888266038d7ea4c68000612a01565b6001600160a01b03808a166000818152601260209081526040918290208590558151938e16845283019190915281810185905260608201839052517ffd9832ad1c344f70068adf57f948d4065352298b1c3e625e244a3b5fd7637f249181900360800190a150505050505050505050565b600080546001600160a01b03163314611e31576040805162461bcd60e51b815260206004820152601e60248201527f6f6e6c792061646d696e2063616e20736574205349474854524f4c4c45520000604482015290519081900360640190fd5b50600180546001600160a01b0383166001600160a01b0319909116178155919050565b6001546000906001600160a01b0316331480611e7a57506000546001600160a01b031633145b611eb55760405162461bcd60e51b815260040180806020018281038252602b815260200180613ba0602b913960400191505060405180910390fd5b6001600160a01b03821660009081526006602052604090205460ff16611f22576040805162461bcd60e51b815260206004820152601c60248201527f4d61726b657420646f6573206e6f7420737570706f7274205349474800000000604482015290519081900360640190fd5b611f2a6139be565b604080518082018252828152600060208083018290526001600160a01b0387168252600f9052919091208151611f6390829060186139dd565b50602091820151601891909101805463ffffffff191663ffffffff9092169190911790556001600160a01b0384166000908152600690915260409020805460ff19169055611faf612558565b50604080516001600160a01b03851681526000602082015281517fd5f5b7732da53526b112e858cdf354b8d8ad54ab944ddca1dbe803e292f181d7929181900390910190a150600192915050565b60005b60055481101561211f5760006005828154811061201957fe5b6000918252602090912001546001600160a01b0316905083151560011415612077576120448161159d565b60005b85518110156120755761206d8287838151811061206057fe5b6020026020010151612125565b600101612047565b505b600183151514156120be5761208b816109b9565b60005b85518110156120bc576120b4828783815181106120a757fe5b6020026020010151611ad2565b60010161208e565b505b6121158583815181106120cd57fe5b6020026020010151601260008886815181106120e557fe5b60200260200101516001600160a01b03166001600160a01b03168152602001908152602001600020546000612a01565b5050600101612000565b50505050565b6001546001600160a01b031633148061214857506000546001600160a01b031633145b6121835760405162461bcd60e51b8152600401808060200182810382526033815260200180613aa86033913960400191505060405180910390fd5b6001600160a01b0382166000908152600e602052604090206121a3613994565b50604080516020810190915281546001600160e01b031681526121c4613994565b5060408051602080820183526001600160a01b038088166000908152601183528481209188168082528284529481208054855286519590915291529190915580511580156122125750815115155b15612229576a0c097ce7bc90715b34b9f160241b81525b84612232613994565b6040518060200160405280836001600160a01b031663aa5af0fd6040518163ffffffff1660e01b815260040160206040518083038186803b15801561227657600080fd5b505afa15801561228a573d6000803e3d6000fd5b505050506040513d60208110156122a057600080fd5b5051905284518451604080516001600160a01b038c168152602081019390935282810191909152519192507f1888bde808d21534089bdc68dcafd6b36033996be2f51d1dc37320a5dc85a1cd919081900360600190a182511561252057612305613994565b61230f8585612978565b90506000886001600160a01b03166395dd9193896040518263ffffffff1660e01b815260040180826001600160a01b03166001600160a01b0316815260200191505060206040518083038186803b15801561236957600080fd5b505afa15801561237d573d6000803e3d6000fd5b505050506040513d602081101561239357600080fd5b5051905060006123a3828561295a565b905060006123b1828561299d565b6001600160a01b038b16600090815260126020526040812054919250906123d890836129cb565b90507f42000b08c7b9f119837ca538ff135826a67dda3f8c21ba7cf49fe11af39cbcd28c866000015185858560405180866001600160a01b03166001600160a01b031681526020018581526020018481526020018381526020018281526020019550505050505060405180910390a16124598b8266038d7ea4c68000612a01565b601260008d6001600160a01b03166001600160a01b03168152602001908152602001600020819055506000601260008d6001600160a01b03166001600160a01b031681526020019081526020016000205490507f42000b08c7b9f119837ca538ff135826a67dda3f8c21ba7cf49fe11af39cbcd28d876000015186868560405180866001600160a01b03166001600160a01b031681526020018581526020018481526020018381526020018281526020019550505050505060405180910390a15050505050505b50505050505050565b601160209081526000928352604080842090915290825290205481565b600c6020526000908152604090205481565b60008061258042600854604051806060016040528060298152602001613adb60299139612686565b90506001811061259f57612592612b83565b5050426008556001610945565b600091505090565b600b6020526000908152604090205481565b600354604080516370a0823160e01b815230600482015290516000926001600160a01b031691839183916370a08231916024808301926020929190829003018186803b15801561260857600080fd5b505afa15801561261c573d6000803e3d6000fd5b505050506040513d602081101561263257600080fd5b50519250505090565b6a0c097ce7bc90715b34b9f160241b81565b600d602052600090815260409020546001600160e01b03811690600160e01b900463ffffffff1682565b6004546001600160a01b031681565b600081848411156127155760405162461bcd60e51b81526004018080602001828103825283818151815260200191508051906020019080838360005b838110156126da5781810151838201526020016126c2565b50505050905090810190601f1680156127075780820380516001836020036101000a031916815260200191505b509250505060405180910390fd5b50508183035b9392505050565b600061271b83836040518060400160405280601781526020017f6d756c7469706c69636174696f6e206f766572666c6f770000000000000000008152506135c2565b61276c613994565b6040518060200160405280612798612792866a0c097ce7bc90715b34b9f160241b612722565b85613641565b90529392505050565b6127a9613994565b6040518060200160405280612798856000015185600001516129cb565b600081600160e01b841061281b5760405162461bcd60e51b81526020600482018181528351602484015283519092839260449091019190850190808383600083156126da5781810151838201526020016126c2565b509192915050565b600081640100000000841061281b5760405162461bcd60e51b81526020600482018181528351602484015283519092839260449091019190850190808383600083156126da5781810151838201526020016126c2565b6000805b6005548110156128ca57826001600160a01b03166005828154811061289e57fe5b6000918252602090912001546001600160a01b031614156128c257600191506128ca565b60010161287d565b508061291c57600580546001810182556000919091527f036b6384b5eca791c62761152d0c79bb0604c104a5fb6f4eb0703f3154bb3db00180546001600160a01b0319166001600160a01b0384161790555b5050565b600061271b8383604051806040016040528060158152602001747375627472616374696f6e20756e646572666c6f7760581b815250612686565b600061271b61297184670de0b6b3a7640000612722565b8351613641565b612980613994565b604051806020016040528061279885600001518560000151612920565b60006a0c097ce7bc90715b34b9f160241b6129bc848460000151612722565b816129c357fe5b049392505050565b600061271b8383604051806040016040528060118152602001706164646974696f6e206f766572666c6f7760781b815250613674565b6000818310158015612a135750600083115b15612b7b57600354604080516370a0823160e01b815230600482015290516001600160a01b039092169160009183916370a0823191602480820192602092909190829003018186803b158015612a6857600080fd5b505afa158015612a7c573d6000803e3d6000fd5b505050506040513d6020811015612a9257600080fd5b50519050808511612b7857816001600160a01b031663a9059cbb87876040518363ffffffff1660e01b815260040180836001600160a01b03166001600160a01b0316815260200182815260200192505050602060405180830381600087803b158015612afd57600080fd5b505af1158015612b11573d6000803e3d6000fd5b505050506040513d6020811015612b2757600080fd5b5050604080516001600160a01b03881681526020810187905281517f3799b2f9b49a826c349848bd1305ef315f3b5391cc97432e0a0a84a04981bcd5929181900390910190a160009250505061271b565b50505b509092915050565b60606005805480602002602001604051908101604052809291908181526020018280548015612bdb57602002820191906000526020600020905b81546001600160a01b03168152600190910190602001808311612bbd575b50939450600093505050505b8151811015612c23576000828281518110612bfe57fe5b60200260200101519050612c11816109b9565b612c1a8161159d565b50600101612be7565b506009546001600160e01b03166017811415612c4e57600980546001600160e01b0319169055612cc2565b60095460408051808201909152601a81527f637572436c6f636b203a204164646974696f6e204661696c65640000000000006020820152600091612ca0916001600160e01b0390911690600190613674565b600980546001600160e01b0319166001600160e01b0392909216919091179055505b600954604080516001600160e01b03808516825290921660208301524282820152517f4568cea75ac2a1113de7ce3671fce6d3d054b492bf2c3cf3d1f40c0dabb089f29181900360600190a1612d16613994565b60405180602001604052806000815250905060608351604051908082528060200260200182016040528015612d6557816020015b612d52613994565b815260200190600190039081612d4a5790505b50905060005b845181101561332f576000858281518110612d8257fe5b60200260200101519050612d94613994565b60408051602080820183526001600160a01b0385166000908152600f909152919091206009548291906001600160e01b031660188110612dd057fe5b01546001600160e01b031690529050612de7613994565b6040805160208082018084526002546336f8c87d60e21b9091526001600160a01b03878116602485015293519293849391169163dbe321f49160448086019291908187030181600087803b158015612e3e57600080fd5b505af1158015612e52573d6000803e3d6000fd5b505050506040513d6020811015612e6857600080fd5b50519052604080516318160ddd60e01b815290519192506000916001600160a01b038616916318160ddd916004808301926020929190829003018186803b158015612eb257600080fd5b505afa158015612ec6573d6000803e3d6000fd5b505050506040513d6020811015612edc57600080fd5b50518251909150612f1e5760405162461bcd60e51b8152600401808060200182810382526039815260200180613b046039913960400191505060405180910390fd5b6001600160a01b03841660009081526006602052604090205460ff168015612f6757506001600160a01b0384166000908152600f6020526040902060189081015463ffffffff16145b8015612f785750612f7883836136c9565b15612fc1576000612f87613994565b612f9185856136d0565b91509150612f9f818461370c565b89518a908a908110612fad57fe5b602090810291909101015250612fe9915050565b60405180602001604052806000815250868681518110612fdd57fe5b60200260200101819052505b612ff1613994565b60405180602001604052808960000151815250905060006130258289898151811061301857fe5b6020026020010151613774565b809a508192505050600088888151811061303b57fe5b60209081029190910181015151875187518d51604080516001600160a01b038e1681529586019390935284830191909152606084018390526080840188905260a0840152519092507f592e814dceb24eb0be9a5d9c4d7efd6de997cedf5a56d608c43cb0a449815bf59181900360c00190a160006130de86600001516001600160e01b0316604051806060016040528060388152602001613b68603891396127c6565b6001600160a01b0389166000908152600f602052604090206009546001600160e01b03166018811061310c57fe5b0180546001600160e01b0319166001600160e01b03929092169190911790556001600160a01b0388166000908152600f6020526040902060189081015463ffffffff1610156131f357506001600160a01b0387166000908152600f6020908152604091829020601801548251808401909352601e83527f507269636520436f756e746572206164646974696f6e206661696c65642e00009183019190915263ffffffff16906131bf908290600190613674565b6001600160a01b0389166000908152600f60205260409020601801805463ffffffff191663ffffffff929092169190911790555b60006131fd610943565b88518851604080516001600160a01b038e16815260208101939093528281019190915263ffffffff8581166060840152929092166080820181905291519192507f0bfc7a5a85fe33928c2629cb8b5fec33a86b495cd335ae673d35b976c0a64bc1919081900360a00190a187516001600160a01b038a166000908152600f602052604090206009547fda6962a3940563173fa762ceffdb13fb05a3dc5d268cacd2aee059ffbf5bb6e0928c9290916001600160e01b0316601881106132be57fe5b01546001600160a01b03808e166000908152600f60209081526040918290206018015482519690931686528501939093526001600160e01b039091168383015263ffffffff16606083015260808201849052519081900360a00190a1505060019097019650612d6b95505050505050565b5060005b84518110156135bb5760006005828154811061334b57fe5b60009182526020808320909101546001600160a01b0316808352600b8252604080842054600c9093529092205491925090613384613994565b8651156133b45760006133aa87878151811061339c57fe5b602002602001015189613793565b92506133c5915050565b506040805160208101909152600081525b86516000906133d55760006133e1565b6133e1600754836137b6565b90506133eb613994565b5060408051602080820183526001600160a01b0388166000908152600a9091529182205481529061341c83836137b6565b9050600061346084836040518060400160405280601d81526020017f426f72726f776572204e65772053706565643a20556e646572666c6f77000000815250612686565b6001600160a01b0389166000908152600b60209081526040808320869055600c90915290208190558a519091507fde1ded2f4b125d7017f2e817a78f8e83f130c716a00e97c860aa96c1230a98dc9089908c908c9081106134bd57fe5b602090810291909101810151518e51604080516001600160a01b039095168552928401919091528282015260608201879052519081900360800190a16001600160a01b0388166000818152600b60209081526040918290205482519384529083018a905282820152517fd8be0957f69173e6c6d244e50cf376d6fc80092d0be1fd819e80b356ef7860159181900360600190a16001600160a01b0388166000818152600c602090815260409182902054825193845290830189905282820152517f443392d5d35a273b0fedfa142f0abac636428ce1c14bf3cd7f1c5dc9c94060d19181900360600190a1505060019096019550613333945050505050565b5050505050565b60008315806135cf575082155b156135dc5750600061271b565b838302838582816135e957fe5b041483906136385760405162461bcd60e51b81526020600482018181528351602484015283519092839260449091019190850190808383600083156126da5781810151838201526020016126c2565b50949350505050565b600061271b83836040518060400160405280600e81526020016d646976696465206279207a65726f60901b8152506137cf565b600083830182858210156136385760405162461bcd60e51b81526020600482018181528351602484015283519092839260449091019190850190808383600083156126da5781810151838201526020016126c2565b5190511190565b60006136da613994565b6000806136ef86600001518660000151613831565b6040805160208101909152908152909450925050505b9250929050565b6000613716613994565b600080613727866000015186613854565b9092509050600082600381111561373a57fe5b1461375957506040805160208101909152600081529092509050613705565b60408051602081019091529081526000969095509350505050565b600061377e613994565b6000806136ef86600001518660000151613893565b600061379d613994565b835183516137ab91906138b9565b915091509250929050565b6000670de0b6b3a76400006129bc848460000151612722565b6000818361381e5760405162461bcd60e51b81526020600482018181528351602484015283519092839260449091019190850190808383600083156126da5781810151838201526020016126c2565b5082848161382857fe5b04949350505050565b600080838311613848575060009050818303613705565b50600390506000613705565b6000808361386757506000905080613705565b8383028385828161387457fe5b041461388857506002915060009050613705565b600092509050613705565b6000808383018481106138ab57600092509050613705565b506002915060009050613705565b60006138c3613994565b6000806138d886670de0b6b3a7640000613854565b909250905060008260038111156138eb57fe5b1461390a57506040805160208101909152600081529092509050613705565b6000806139178388613969565b9092509050600082600381111561392a57fe5b1461394c57506040805160208101909152600081529094509250613705915050565b604080516020810190915290815260009890975095505050505050565b6000808261397d5750600190506000613705565b600083858161398857fe5b04915091509250929050565b6040518060200160405280600081525090565b604080518082019091526000808252602082015290565b6040518061030001604052806018906020820280388339509192915050565b8260188101928215613a25579160200282015b82811115613a2557825182546001600160e01b0319166001600160e01b039091161782556020909201916001909101906139f0565b50613a31929150613a35565b5090565b61094591905b80821115613a315780546001600160e01b0319168155600101613a3b56fe546865206e657720537570706c69657220526174696f206d757374206265206c657373207468616e203165313873696768496e697469616c496e64657820657863656564732032323420626974736f6e6c792061646d696e2f5369676874726f6c6c65722063616e20757064617465205349474820537570706c7920496e6465785265667265736853494748537065656473203a205375627472616374696f6e20756e646572666c6f777265667265736853494748537065656473496e7465726e616c203a204f7261636c652072657475726e656420496e76616c69642050726963656f6e6c792061646d696e2f5369676874726f6c6c65722063616e206368616e67652053494748207261746541737369676e696e672063757272656e74207072696365206661696c65642e205072696365206f766572666c6f77732075696e743232342e6f6e6c792061646d696e2f5369676874726f6c6c65722063616e2064726f702053494748206d61726b65744f6e6c792041646d696e2063616e206368616e676520746865205349474820537065656420446973747269627574696f6e20526174696f20666f722061204d61726b6574546865206e657720537570706c69657220526174696f206d7573742062652067726561746572207468616e20302e356531386f6e6c792061646d696e2f5369676874726f6c6c65722063616e206164642053494748206d61726b6574626c6f636b206e756d626572206578636565647320333220626974730000000075706461746553494748537570706c79496e646578203a20426c6f636b205375627472616374696f6e20556e646572666c6f77a265627a7a72315820d6a8753e135dd6459e2333f08712b044d6937b304689f86cae4ebcdb39d72ab064736f6c63430005110032",
			"opcodes": "PUSH1 0x80 PUSH1 0x40 MSTORE CALLVALUE DUP1 ISZERO PUSH2 0x10 JUMPI PUSH1 0x0 DUP1 REVERT JUMPDEST POP PUSH1 0x0 DUP1 SLOAD PUSH1 0x1 PUSH1 0x1 PUSH1 0xA0 SHL SUB NOT AND CALLER OR SWAP1 SSTORE PUSH2 0x3CF2 DUP1 PUSH2 0x32 PUSH1 0x0 CODECOPY PUSH1 0x0 RETURN INVALID PUSH1 0x80 PUSH1 0x40 MSTORE CALLVALUE DUP1 ISZERO PUSH2 0x10 JUMPI PUSH1 0x0 DUP1 REVERT JUMPDEST POP PUSH1 0x4 CALLDATASIZE LT PUSH2 0x231 JUMPI PUSH1 0x0 CALLDATALOAD PUSH1 0xE0 SHR DUP1 PUSH4 0x7ADBF973 GT PUSH2 0x130 JUMPI DUP1 PUSH4 0xB114DAE3 GT PUSH2 0xB8 JUMPI DUP1 PUSH4 0xC0992BC6 GT PUSH2 0x7C JUMPI DUP1 PUSH4 0xC0992BC6 EQ PUSH2 0x731 JUMPI DUP1 PUSH4 0xC6A6BFB1 EQ PUSH2 0x757 JUMPI DUP1 PUSH4 0xCAF73E0A EQ PUSH2 0x75F JUMPI DUP1 PUSH4 0xD9F6513A EQ PUSH2 0x767 JUMPI DUP1 PUSH4 0xFE44BF06 EQ PUSH2 0x78D JUMPI PUSH2 0x231 JUMP JUMPDEST DUP1 PUSH4 0xB114DAE3 EQ PUSH2 0x5FB JUMPI DUP1 PUSH4 0xB12E660B EQ PUSH2 0x6A7 JUMPI DUP1 PUSH4 0xB8DE65D1 EQ PUSH2 0x6D5 JUMPI DUP1 PUSH4 0xBE08274F EQ PUSH2 0x703 JUMPI DUP1 PUSH4 0xBF1678F6 EQ PUSH2 0x729 JUMPI PUSH2 0x231 JUMP JUMPDEST DUP1 PUSH4 0x89FB59B4 GT PUSH2 0xFF JUMPI DUP1 PUSH4 0x89FB59B4 EQ PUSH2 0x553 JUMPI DUP1 PUSH4 0x8D9CF864 EQ PUSH2 0x55B JUMPI DUP1 PUSH4 0x9AD38F4C EQ PUSH2 0x581 JUMPI DUP1 PUSH4 0xA1D02A55 EQ PUSH2 0x5AF JUMPI DUP1 PUSH4 0xAA22265F EQ PUSH2 0x5D5 JUMPI PUSH2 0x231 JUMP JUMPDEST DUP1 PUSH4 0x7ADBF973 EQ PUSH2 0x4F7 JUMPI DUP1 PUSH4 0x7B7309F3 EQ PUSH2 0x51D JUMPI DUP1 PUSH4 0x7C52B668 EQ PUSH2 0x525 JUMPI DUP1 PUSH4 0x7DC0D1D0 EQ PUSH2 0x54B JUMPI PUSH2 0x231 JUMP JUMPDEST DUP1 PUSH4 0x4CDFB79F GT PUSH2 0x1BE JUMPI DUP1 PUSH4 0x52D84D1E GT PUSH2 0x182 JUMPI DUP1 PUSH4 0x52D84D1E EQ PUSH2 0x460 JUMPI DUP1 PUSH4 0x593D19B3 EQ PUSH2 0x47D JUMPI DUP1 PUSH4 0x5CB56745 EQ PUSH2 0x4A3 JUMPI DUP1 PUSH4 0x75810E76 EQ PUSH2 0x4C9 JUMPI DUP1 PUSH4 0x770D61D1 EQ PUSH2 0x4D1 JUMPI PUSH2 0x231 JUMP JUMPDEST DUP1 PUSH4 0x4CDFB79F EQ PUSH2 0x36C JUMPI DUP1 PUSH4 0x4DF6BD2B EQ PUSH2 0x3BA JUMPI DUP1 PUSH4 0x4DF859FD EQ PUSH2 0x3E0 JUMPI DUP1 PUSH4 0x4F425FBB EQ PUSH2 0x40C JUMPI DUP1 PUSH4 0x522B0202 EQ PUSH2 0x434 JUMPI PUSH2 0x231 JUMP JUMPDEST DUP1 PUSH4 0x21428A12 GT PUSH2 0x205 JUMPI DUP1 PUSH4 0x21428A12 EQ PUSH2 0x2E6 JUMPI DUP1 PUSH4 0x2782E8CC EQ PUSH2 0x2EE JUMPI DUP1 PUSH4 0x2C8EB0BB EQ PUSH2 0x2F6 JUMPI DUP1 PUSH4 0x2DF0F9A9 EQ PUSH2 0x31A JUMPI DUP1 PUSH4 0x42CBB15C EQ PUSH2 0x34B JUMPI PUSH2 0x231 JUMP JUMPDEST DUP1 PUSH3 0x463672 EQ PUSH2 0x236 JUMPI DUP1 PUSH4 0x4F604D8 EQ PUSH2 0x276 JUMPI DUP1 PUSH4 0xBF68831 EQ PUSH2 0x29A JUMPI DUP1 PUSH4 0x171221EC EQ PUSH2 0x2C0 JUMPI JUMPDEST PUSH1 0x0 DUP1 REVERT JUMPDEST PUSH2 0x264 PUSH1 0x4 DUP1 CALLDATASIZE SUB PUSH1 0x40 DUP2 LT ISZERO PUSH2 0x24C JUMPI PUSH1 0x0 DUP1 REVERT JUMPDEST POP PUSH1 0x1 PUSH1 0x1 PUSH1 0xA0 SHL SUB DUP2 CALLDATALOAD DUP2 AND SWAP2 PUSH1 0x20 ADD CALLDATALOAD AND PUSH2 0x795 JUMP JUMPDEST PUSH1 0x40 DUP1 MLOAD SWAP2 DUP3 MSTORE MLOAD SWAP1 DUP2 SWAP1 SUB PUSH1 0x20 ADD SWAP1 RETURN JUMPDEST PUSH2 0x27E PUSH2 0x7B2 JUMP JUMPDEST PUSH1 0x40 DUP1 MLOAD PUSH1 0x1 PUSH1 0x1 PUSH1 0xA0 SHL SUB SWAP1 SWAP3 AND DUP3 MSTORE MLOAD SWAP1 DUP2 SWAP1 SUB PUSH1 0x20 ADD SWAP1 RETURN JUMPDEST PUSH2 0x27E PUSH1 0x4 DUP1 CALLDATASIZE SUB PUSH1 0x20 DUP2 LT ISZERO PUSH2 0x2B0 JUMPI PUSH1 0x0 DUP1 REVERT JUMPDEST POP CALLDATALOAD PUSH1 0x1 PUSH1 0x1 PUSH1 0xA0 SHL SUB AND PUSH2 0x7C1 JUMP JUMPDEST PUSH2 0x264 PUSH1 0x4 DUP1 CALLDATASIZE SUB PUSH1 0x20 DUP2 LT ISZERO PUSH2 0x2D6 JUMPI PUSH1 0x0 DUP1 REVERT JUMPDEST POP CALLDATALOAD PUSH1 0x1 PUSH1 0x1 PUSH1 0xA0 SHL SUB AND PUSH2 0x844 JUMP JUMPDEST PUSH2 0x27E PUSH2 0x856 JUMP JUMPDEST PUSH2 0x264 PUSH2 0x865 JUMP JUMPDEST PUSH2 0x2FE PUSH2 0x86B JUMP JUMPDEST PUSH1 0x40 DUP1 MLOAD PUSH1 0x1 PUSH1 0x1 PUSH1 0xE0 SHL SUB SWAP1 SWAP3 AND DUP3 MSTORE MLOAD SWAP1 DUP2 SWAP1 SUB PUSH1 0x20 ADD SWAP1 RETURN JUMPDEST PUSH2 0x337 PUSH1 0x4 DUP1 CALLDATASIZE SUB PUSH1 0x20 DUP2 LT ISZERO PUSH2 0x330 JUMPI PUSH1 0x0 DUP1 REVERT JUMPDEST POP CALLDATALOAD PUSH2 0x87A JUMP JUMPDEST PUSH1 0x40 DUP1 MLOAD SWAP2 ISZERO ISZERO DUP3 MSTORE MLOAD SWAP1 DUP2 SWAP1 SUB PUSH1 0x20 ADD SWAP1 RETURN JUMPDEST PUSH2 0x353 PUSH2 0x943 JUMP JUMPDEST PUSH1 0x40 DUP1 MLOAD PUSH4 0xFFFFFFFF SWAP1 SWAP3 AND DUP3 MSTORE MLOAD SWAP1 DUP2 SWAP1 SUB PUSH1 0x20 ADD SWAP1 RETURN JUMPDEST PUSH2 0x392 PUSH1 0x4 DUP1 CALLDATASIZE SUB PUSH1 0x20 DUP2 LT ISZERO PUSH2 0x382 JUMPI PUSH1 0x0 DUP1 REVERT JUMPDEST POP CALLDATALOAD PUSH1 0x1 PUSH1 0x1 PUSH1 0xA0 SHL SUB AND PUSH2 0x948 JUMP JUMPDEST PUSH1 0x40 DUP1 MLOAD PUSH1 0x1 PUSH1 0x1 PUSH1 0xE0 SHL SUB SWAP1 SWAP4 AND DUP4 MSTORE PUSH4 0xFFFFFFFF SWAP1 SWAP2 AND PUSH1 0x20 DUP4 ADD MSTORE DUP1 MLOAD SWAP2 DUP3 SWAP1 SUB ADD SWAP1 RETURN JUMPDEST PUSH2 0x264 PUSH1 0x4 DUP1 CALLDATASIZE SUB PUSH1 0x20 DUP2 LT ISZERO PUSH2 0x3D0 JUMPI PUSH1 0x0 DUP1 REVERT JUMPDEST POP CALLDATALOAD PUSH1 0x1 PUSH1 0x1 PUSH1 0xA0 SHL SUB AND PUSH2 0x972 JUMP JUMPDEST PUSH2 0x2FE PUSH1 0x4 DUP1 CALLDATASIZE SUB PUSH1 0x40 DUP2 LT ISZERO PUSH2 0x3F6 JUMPI PUSH1 0x0 DUP1 REVERT JUMPDEST POP PUSH1 0x1 PUSH1 0x1 PUSH1 0xA0 SHL SUB DUP2 CALLDATALOAD AND SWAP1 PUSH1 0x20 ADD CALLDATALOAD PUSH2 0x984 JUMP JUMPDEST PUSH2 0x432 PUSH1 0x4 DUP1 CALLDATASIZE SUB PUSH1 0x20 DUP2 LT ISZERO PUSH2 0x422 JUMPI PUSH1 0x0 DUP1 REVERT JUMPDEST POP CALLDATALOAD PUSH1 0x1 PUSH1 0x1 PUSH1 0xA0 SHL SUB AND PUSH2 0x9B9 JUMP JUMPDEST STOP JUMPDEST PUSH2 0x337 PUSH1 0x4 DUP1 CALLDATASIZE SUB PUSH1 0x40 DUP2 LT ISZERO PUSH2 0x44A JUMPI PUSH1 0x0 DUP1 REVERT JUMPDEST POP PUSH1 0x1 PUSH1 0x1 PUSH1 0xA0 SHL SUB DUP2 CALLDATALOAD AND SWAP1 PUSH1 0x20 ADD CALLDATALOAD PUSH2 0xE30 JUMP JUMPDEST PUSH2 0x27E PUSH1 0x4 DUP1 CALLDATASIZE SUB PUSH1 0x20 DUP2 LT ISZERO PUSH2 0x476 JUMPI PUSH1 0x0 DUP1 REVERT JUMPDEST POP CALLDATALOAD PUSH2 0xF7C JUMP JUMPDEST PUSH2 0x353 PUSH1 0x4 DUP1 CALLDATASIZE SUB PUSH1 0x20 DUP2 LT ISZERO PUSH2 0x493 JUMPI PUSH1 0x0 DUP1 REVERT JUMPDEST POP CALLDATALOAD PUSH1 0x1 PUSH1 0x1 PUSH1 0xA0 SHL SUB AND PUSH2 0xFA3 JUMP JUMPDEST PUSH2 0x337 PUSH1 0x4 DUP1 CALLDATASIZE SUB PUSH1 0x20 DUP2 LT ISZERO PUSH2 0x4B9 JUMPI PUSH1 0x0 DUP1 REVERT JUMPDEST POP CALLDATALOAD PUSH1 0x1 PUSH1 0x1 PUSH1 0xA0 SHL SUB AND PUSH2 0xFBE JUMP JUMPDEST PUSH2 0x264 PUSH2 0x1485 JUMP JUMPDEST PUSH2 0x27E PUSH1 0x4 DUP1 CALLDATASIZE SUB PUSH1 0x20 DUP2 LT ISZERO PUSH2 0x4E7 JUMPI PUSH1 0x0 DUP1 REVERT JUMPDEST POP CALLDATALOAD PUSH1 0x1 PUSH1 0x1 PUSH1 0xA0 SHL SUB AND PUSH2 0x1490 JUMP JUMPDEST PUSH2 0x337 PUSH1 0x4 DUP1 CALLDATASIZE SUB PUSH1 0x20 DUP2 LT ISZERO PUSH2 0x50D JUMPI PUSH1 0x0 DUP1 REVERT JUMPDEST POP CALLDATALOAD PUSH1 0x1 PUSH1 0x1 PUSH1 0xA0 SHL SUB AND PUSH2 0x1513 JUMP JUMPDEST PUSH2 0x2FE PUSH2 0x1598 JUMP JUMPDEST PUSH2 0x432 PUSH1 0x4 DUP1 CALLDATASIZE SUB PUSH1 0x20 DUP2 LT ISZERO PUSH2 0x53B JUMPI PUSH1 0x0 DUP1 REVERT JUMPDEST POP CALLDATALOAD PUSH1 0x1 PUSH1 0x1 PUSH1 0xA0 SHL SUB AND PUSH2 0x159D JUMP JUMPDEST PUSH2 0x27E PUSH2 0x1A99 JUMP JUMPDEST PUSH2 0x264 PUSH2 0x1AA8 JUMP JUMPDEST PUSH2 0x2FE PUSH1 0x4 DUP1 CALLDATASIZE SUB PUSH1 0x20 DUP2 LT ISZERO PUSH2 0x571 JUMPI PUSH1 0x0 DUP1 REVERT JUMPDEST POP CALLDATALOAD PUSH1 0x1 PUSH1 0x1 PUSH1 0xA0 SHL SUB AND PUSH2 0x1AAE JUMP JUMPDEST PUSH2 0x432 PUSH1 0x4 DUP1 CALLDATASIZE SUB PUSH1 0x40 DUP2 LT ISZERO PUSH2 0x597 JUMPI PUSH1 0x0 DUP1 REVERT JUMPDEST POP PUSH1 0x1 PUSH1 0x1 PUSH1 0xA0 SHL SUB DUP2 CALLDATALOAD DUP2 AND SWAP2 PUSH1 0x20 ADD CALLDATALOAD AND PUSH2 0x1AD2 JUMP JUMPDEST PUSH2 0x337 PUSH1 0x4 DUP1 CALLDATASIZE SUB PUSH1 0x20 DUP2 LT ISZERO PUSH2 0x5C5 JUMPI PUSH1 0x0 DUP1 REVERT JUMPDEST POP CALLDATALOAD PUSH1 0x1 PUSH1 0x1 PUSH1 0xA0 SHL SUB AND PUSH2 0x1DD1 JUMP JUMPDEST PUSH2 0x337 PUSH1 0x4 DUP1 CALLDATASIZE SUB PUSH1 0x20 DUP2 LT ISZERO PUSH2 0x5EB JUMPI PUSH1 0x0 DUP1 REVERT JUMPDEST POP CALLDATALOAD PUSH1 0x1 PUSH1 0x1 PUSH1 0xA0 SHL SUB AND PUSH2 0x1E54 JUMP JUMPDEST PUSH2 0x432 PUSH1 0x4 DUP1 CALLDATASIZE SUB PUSH1 0x60 DUP2 LT ISZERO PUSH2 0x611 JUMPI PUSH1 0x0 DUP1 REVERT JUMPDEST DUP2 ADD SWAP1 PUSH1 0x20 DUP2 ADD DUP2 CALLDATALOAD PUSH5 0x100000000 DUP2 GT ISZERO PUSH2 0x62C JUMPI PUSH1 0x0 DUP1 REVERT JUMPDEST DUP3 ADD DUP4 PUSH1 0x20 DUP3 ADD GT ISZERO PUSH2 0x63E JUMPI PUSH1 0x0 DUP1 REVERT JUMPDEST DUP1 CALLDATALOAD SWAP1 PUSH1 0x20 ADD SWAP2 DUP5 PUSH1 0x20 DUP4 MUL DUP5 ADD GT PUSH5 0x100000000 DUP4 GT OR ISZERO PUSH2 0x660 JUMPI PUSH1 0x0 DUP1 REVERT JUMPDEST SWAP2 SWAP1 DUP1 DUP1 PUSH1 0x20 MUL PUSH1 0x20 ADD PUSH1 0x40 MLOAD SWAP1 DUP2 ADD PUSH1 0x40 MSTORE DUP1 SWAP4 SWAP3 SWAP2 SWAP1 DUP2 DUP2 MSTORE PUSH1 0x20 ADD DUP4 DUP4 PUSH1 0x20 MUL DUP1 DUP3 DUP5 CALLDATACOPY PUSH1 0x0 SWAP3 ADD SWAP2 SWAP1 SWAP2 MSTORE POP SWAP3 SWAP6 POP POP POP POP DUP1 CALLDATALOAD ISZERO ISZERO SWAP2 POP PUSH1 0x20 ADD CALLDATALOAD ISZERO ISZERO PUSH2 0x1FFD JUMP JUMPDEST PUSH2 0x432 PUSH1 0x4 DUP1 CALLDATASIZE SUB PUSH1 0x40 DUP2 LT ISZERO PUSH2 0x6BD JUMPI PUSH1 0x0 DUP1 REVERT JUMPDEST POP PUSH1 0x1 PUSH1 0x1 PUSH1 0xA0 SHL SUB DUP2 CALLDATALOAD DUP2 AND SWAP2 PUSH1 0x20 ADD CALLDATALOAD AND PUSH2 0x2125 JUMP JUMPDEST PUSH2 0x264 PUSH1 0x4 DUP1 CALLDATASIZE SUB PUSH1 0x40 DUP2 LT ISZERO PUSH2 0x6EB JUMPI PUSH1 0x0 DUP1 REVERT JUMPDEST POP PUSH1 0x1 PUSH1 0x1 PUSH1 0xA0 SHL SUB DUP2 CALLDATALOAD DUP2 AND SWAP2 PUSH1 0x20 ADD CALLDATALOAD AND PUSH2 0x2529 JUMP JUMPDEST PUSH2 0x264 PUSH1 0x4 DUP1 CALLDATASIZE SUB PUSH1 0x20 DUP2 LT ISZERO PUSH2 0x719 JUMPI PUSH1 0x0 DUP1 REVERT JUMPDEST POP CALLDATALOAD PUSH1 0x1 PUSH1 0x1 PUSH1 0xA0 SHL SUB AND PUSH2 0x2546 JUMP JUMPDEST PUSH2 0x337 PUSH2 0x2558 JUMP JUMPDEST PUSH2 0x264 PUSH1 0x4 DUP1 CALLDATASIZE SUB PUSH1 0x20 DUP2 LT ISZERO PUSH2 0x747 JUMPI PUSH1 0x0 DUP1 REVERT JUMPDEST POP CALLDATALOAD PUSH1 0x1 PUSH1 0x1 PUSH1 0xA0 SHL SUB AND PUSH2 0x25A7 JUMP JUMPDEST PUSH2 0x264 PUSH2 0x25B9 JUMP JUMPDEST PUSH2 0x2FE PUSH2 0x263B JUMP JUMPDEST PUSH2 0x392 PUSH1 0x4 DUP1 CALLDATASIZE SUB PUSH1 0x20 DUP2 LT ISZERO PUSH2 0x77D JUMPI PUSH1 0x0 DUP1 REVERT JUMPDEST POP CALLDATALOAD PUSH1 0x1 PUSH1 0x1 PUSH1 0xA0 SHL SUB AND PUSH2 0x264D JUMP JUMPDEST PUSH2 0x27E PUSH2 0x2677 JUMP JUMPDEST PUSH1 0x10 PUSH1 0x20 SWAP1 DUP2 MSTORE PUSH1 0x0 SWAP3 DUP4 MSTORE PUSH1 0x40 DUP1 DUP5 KECCAK256 SWAP1 SWAP2 MSTORE SWAP1 DUP3 MSTORE SWAP1 KECCAK256 SLOAD DUP2 JUMP JUMPDEST PUSH1 0x1 SLOAD PUSH1 0x1 PUSH1 0x1 PUSH1 0xA0 SHL SUB AND DUP2 JUMP JUMPDEST PUSH1 0x0 DUP1 SLOAD PUSH1 0x1 PUSH1 0x1 PUSH1 0xA0 SHL SUB AND CALLER EQ PUSH2 0x821 JUMPI PUSH1 0x40 DUP1 MLOAD PUSH3 0x461BCD PUSH1 0xE5 SHL DUP2 MSTORE PUSH1 0x20 PUSH1 0x4 DUP3 ADD MSTORE PUSH1 0x1F PUSH1 0x24 DUP3 ADD MSTORE PUSH32 0x6F6E6C792061646D696E2063616E2073657420536967685F4164647265737300 PUSH1 0x44 DUP3 ADD MSTORE SWAP1 MLOAD SWAP1 DUP2 SWAP1 SUB PUSH1 0x64 ADD SWAP1 REVERT JUMPDEST POP PUSH1 0x4 DUP1 SLOAD PUSH1 0x1 PUSH1 0x1 PUSH1 0xA0 SHL SUB NOT AND PUSH1 0x1 PUSH1 0x1 PUSH1 0xA0 SHL SUB SWAP3 DUP4 AND OR SWAP1 DUP2 SWAP1 SSTORE AND SWAP1 JUMP JUMPDEST PUSH1 0xA PUSH1 0x20 MSTORE PUSH1 0x0 SWAP1 DUP2 MSTORE PUSH1 0x40 SWAP1 KECCAK256 SLOAD DUP2 JUMP JUMPDEST PUSH1 0x3 SLOAD PUSH1 0x1 PUSH1 0x1 PUSH1 0xA0 SHL SUB AND DUP2 JUMP JUMPDEST PUSH1 0x8 SLOAD DUP2 JUMP JUMPDEST PUSH1 0x9 SLOAD PUSH1 0x1 PUSH1 0x1 PUSH1 0xE0 SHL SUB AND DUP2 JUMP JUMPDEST PUSH1 0x1 SLOAD PUSH1 0x0 SWAP1 PUSH1 0x1 PUSH1 0x1 PUSH1 0xA0 SHL SUB AND CALLER EQ DUP1 PUSH2 0x8A0 JUMPI POP PUSH1 0x0 SLOAD PUSH1 0x1 PUSH1 0x1 PUSH1 0xA0 SHL SUB AND CALLER EQ JUMPDEST PUSH2 0x8DB JUMPI PUSH1 0x40 MLOAD PUSH3 0x461BCD PUSH1 0xE5 SHL DUP2 MSTORE PUSH1 0x4 ADD DUP1 DUP1 PUSH1 0x20 ADD DUP3 DUP2 SUB DUP3 MSTORE PUSH1 0x2B DUP2 MSTORE PUSH1 0x20 ADD DUP1 PUSH2 0x3B3D PUSH1 0x2B SWAP2 CODECOPY PUSH1 0x40 ADD SWAP2 POP POP PUSH1 0x40 MLOAD DUP1 SWAP2 SUB SWAP1 REVERT JUMPDEST PUSH1 0x7 DUP1 SLOAD SWAP1 DUP4 SWAP1 SSTORE PUSH32 0xB35AE78D38C9AD12FEAB06BFA59B6D4364D33E312F0E00FFB1776F0C60E5FF7A DUP2 DUP5 PUSH2 0x90E PUSH2 0x943 JUMP JUMPDEST PUSH1 0x40 DUP1 MLOAD SWAP4 DUP5 MSTORE PUSH1 0x20 DUP5 ADD SWAP3 SWAP1 SWAP3 MSTORE PUSH4 0xFFFFFFFF AND DUP3 DUP3 ADD MSTORE MLOAD SWAP1 DUP2 SWAP1 SUB PUSH1 0x60 ADD SWAP1 LOG1 PUSH2 0x939 PUSH2 0x2558 JUMP JUMPDEST POP PUSH1 0x1 SWAP4 SWAP3 POP POP POP JUMP JUMPDEST NUMBER JUMPDEST SWAP1 JUMP JUMPDEST PUSH1 0xE PUSH1 0x20 MSTORE PUSH1 0x0 SWAP1 DUP2 MSTORE PUSH1 0x40 SWAP1 KECCAK256 SLOAD PUSH1 0x1 PUSH1 0x1 PUSH1 0xE0 SHL SUB DUP2 AND SWAP1 PUSH1 0x1 PUSH1 0xE0 SHL SWAP1 DIV PUSH4 0xFFFFFFFF AND DUP3 JUMP JUMPDEST PUSH1 0x12 PUSH1 0x20 MSTORE PUSH1 0x0 SWAP1 DUP2 MSTORE PUSH1 0x40 SWAP1 KECCAK256 SLOAD DUP2 JUMP JUMPDEST PUSH1 0x1 PUSH1 0x1 PUSH1 0xA0 SHL SUB DUP3 AND PUSH1 0x0 SWAP1 DUP2 MSTORE PUSH1 0xF PUSH1 0x20 MSTORE PUSH1 0x40 DUP2 KECCAK256 DUP3 PUSH1 0x18 DUP2 LT PUSH2 0x9A7 JUMPI INVALID JUMPDEST ADD SLOAD PUSH1 0x1 PUSH1 0x1 PUSH1 0xE0 SHL SUB AND SWAP4 SWAP3 POP POP POP JUMP JUMPDEST PUSH1 0x1 SLOAD PUSH1 0x1 PUSH1 0x1 PUSH1 0xA0 SHL SUB AND CALLER EQ DUP1 PUSH2 0x9DC JUMPI POP PUSH1 0x0 SLOAD PUSH1 0x1 PUSH1 0x1 PUSH1 0xA0 SHL SUB AND CALLER EQ JUMPDEST PUSH2 0xA17 JUMPI PUSH1 0x40 MLOAD PUSH3 0x461BCD PUSH1 0xE5 SHL DUP2 MSTORE PUSH1 0x4 ADD DUP1 DUP1 PUSH1 0x20 ADD DUP3 DUP2 SUB DUP3 MSTORE PUSH1 0x33 DUP2 MSTORE PUSH1 0x20 ADD DUP1 PUSH2 0x3AA8 PUSH1 0x33 SWAP2 CODECOPY PUSH1 0x40 ADD SWAP2 POP POP PUSH1 0x40 MLOAD DUP1 SWAP2 SUB SWAP1 REVERT JUMPDEST PUSH1 0x1 PUSH1 0x1 PUSH1 0xA0 SHL SUB DUP2 AND PUSH1 0x0 SWAP1 DUP2 MSTORE PUSH1 0xD PUSH1 0x20 SWAP1 DUP2 MSTORE PUSH1 0x40 DUP1 DUP4 KECCAK256 PUSH1 0xB SWAP1 SWAP3 MSTORE DUP3 KECCAK256 SLOAD SWAP1 SWAP2 PUSH2 0xA44 PUSH2 0x943 JUMP JUMPDEST DUP4 SLOAD PUSH1 0x40 DUP1 MLOAD PUSH1 0x60 DUP2 ADD SWAP1 SWAP2 MSTORE PUSH1 0x33 DUP1 DUP3 MSTORE PUSH4 0xFFFFFFFF SWAP4 DUP5 AND SWAP5 POP PUSH1 0x1 PUSH1 0x1 PUSH1 0xE0 SHL SUB DUP4 AND SWAP4 PUSH1 0x0 SWAP4 PUSH2 0xA8E SWAP4 DUP8 SWAP4 PUSH1 0x1 PUSH1 0xE0 SHL SWAP1 SWAP3 DIV SWAP1 SWAP3 AND SWAP2 SWAP1 PUSH2 0x3C8B PUSH1 0x20 DUP4 ADD CODECOPY PUSH2 0x2686 JUMP JUMPDEST DUP6 SLOAD PUSH1 0x40 DUP1 MLOAD PUSH1 0x1 PUSH1 0x1 PUSH1 0xA0 SHL SUB DUP11 AND DUP2 MSTORE PUSH1 0x20 DUP2 ADD DUP9 SWAP1 MSTORE PUSH1 0x1 PUSH1 0x1 PUSH1 0xE0 SHL SUB DUP4 AND DUP2 DUP4 ADD MSTORE PUSH4 0xFFFFFFFF PUSH1 0x1 PUSH1 0xE0 SHL SWAP1 SWAP4 DIV SWAP3 SWAP1 SWAP3 AND PUSH1 0x60 DUP4 ADD MSTORE PUSH1 0x80 DUP3 ADD DUP7 SWAP1 MSTORE PUSH1 0xA0 DUP3 ADD DUP4 SWAP1 MSTORE MLOAD SWAP2 SWAP3 POP PUSH32 0x33C3C4FBBF284318EED04C3CF9DAAC06E5923D93FE4A2BE263A7EF9CA04A61D1 SWAP2 SWAP1 DUP2 SWAP1 SUB PUSH1 0xC0 ADD SWAP1 LOG1 PUSH1 0x0 DUP2 GT DUP1 ISZERO PUSH2 0xB18 JUMPI POP PUSH1 0x0 DUP5 GT JUMPDEST ISZERO PUSH2 0xD3C JUMPI PUSH1 0x0 PUSH2 0xB29 DUP3 DUP7 PUSH2 0x2722 JUMP JUMPDEST SWAP1 POP PUSH1 0x0 DUP8 PUSH1 0x1 PUSH1 0x1 PUSH1 0xA0 SHL SUB AND PUSH4 0x18160DDD PUSH1 0x40 MLOAD DUP2 PUSH4 0xFFFFFFFF AND PUSH1 0xE0 SHL DUP2 MSTORE PUSH1 0x4 ADD PUSH1 0x20 PUSH1 0x40 MLOAD DUP1 DUP4 SUB DUP2 DUP7 DUP1 EXTCODESIZE ISZERO DUP1 ISZERO PUSH2 0xB66 JUMPI PUSH1 0x0 DUP1 REVERT JUMPDEST POP GAS STATICCALL ISZERO DUP1 ISZERO PUSH2 0xB7A JUMPI RETURNDATASIZE PUSH1 0x0 DUP1 RETURNDATACOPY RETURNDATASIZE PUSH1 0x0 REVERT JUMPDEST POP POP POP POP PUSH1 0x40 MLOAD RETURNDATASIZE PUSH1 0x20 DUP2 LT ISZERO PUSH2 0xB90 JUMPI PUSH1 0x0 DUP1 REVERT JUMPDEST POP MLOAD SWAP1 POP PUSH2 0xB9C PUSH2 0x3994 JUMP JUMPDEST PUSH1 0x0 DUP3 GT PUSH2 0xBB9 JUMPI PUSH1 0x40 MLOAD DUP1 PUSH1 0x20 ADD PUSH1 0x40 MSTORE DUP1 PUSH1 0x0 DUP2 MSTORE POP PUSH2 0xBC3 JUMP JUMPDEST PUSH2 0xBC3 DUP4 DUP4 PUSH2 0x2764 JUMP JUMPDEST SWAP1 POP PUSH2 0xBCD PUSH2 0x3994 JUMP JUMPDEST PUSH1 0x40 DUP1 MLOAD PUSH1 0x20 DUP2 ADD SWAP1 SWAP2 MSTORE DUP10 SLOAD PUSH1 0x1 PUSH1 0x1 PUSH1 0xE0 SHL SUB AND DUP2 MSTORE PUSH2 0xBEF SWAP1 DUP4 PUSH2 0x27A1 JUMP JUMPDEST DUP3 MLOAD DUP2 MLOAD PUSH1 0x40 DUP1 MLOAD PUSH1 0x1 PUSH1 0x1 PUSH1 0xA0 SHL SUB DUP16 AND DUP2 MSTORE PUSH1 0x20 DUP2 ADD DUP9 SWAP1 MSTORE DUP1 DUP3 ADD DUP10 SWAP1 MSTORE PUSH1 0x60 DUP2 ADD SWAP4 SWAP1 SWAP4 MSTORE PUSH1 0x80 DUP4 ADD SWAP2 SWAP1 SWAP2 MSTORE MLOAD SWAP2 SWAP3 POP PUSH32 0xE95DD326FD60B246147CA887C909941BE4959F1D69568FADA2DE48030966A6B6 SWAP2 SWAP1 DUP2 SWAP1 SUB PUSH1 0xA0 ADD SWAP1 LOG1 PUSH1 0x40 MLOAD DUP1 PUSH1 0x40 ADD PUSH1 0x40 MSTORE DUP1 PUSH2 0xC9D DUP4 PUSH1 0x0 ADD MLOAD PUSH1 0x40 MLOAD DUP1 PUSH1 0x40 ADD PUSH1 0x40 MSTORE DUP1 PUSH1 0x1A DUP2 MSTORE PUSH1 0x20 ADD PUSH32 0x6E657720696E6465782065786365656473203232342062697473000000000000 DUP2 MSTORE POP PUSH2 0x27C6 JUMP JUMPDEST PUSH1 0x1 PUSH1 0x1 PUSH1 0xE0 SHL SUB AND DUP2 MSTORE PUSH1 0x20 ADD PUSH2 0xCD8 DUP10 PUSH1 0x40 MLOAD DUP1 PUSH1 0x40 ADD PUSH1 0x40 MSTORE DUP1 PUSH1 0x1C DUP2 MSTORE PUSH1 0x20 ADD PUSH1 0x0 DUP1 MLOAD PUSH1 0x20 PUSH2 0x3C6B DUP4 CODECOPY DUP2 MLOAD SWAP2 MSTORE DUP2 MSTORE POP PUSH2 0x2823 JUMP JUMPDEST PUSH4 0xFFFFFFFF SWAP1 DUP2 AND SWAP1 SWAP2 MSTORE PUSH1 0x1 PUSH1 0x1 PUSH1 0xA0 SHL SUB DUP13 AND PUSH1 0x0 SWAP1 DUP2 MSTORE PUSH1 0xD PUSH1 0x20 SWAP1 DUP2 MSTORE PUSH1 0x40 SWAP1 SWAP2 KECCAK256 DUP4 MLOAD DUP2 SLOAD SWAP5 SWAP1 SWAP3 ADD MLOAD SWAP1 SWAP3 AND PUSH1 0x1 PUSH1 0xE0 SHL MUL PUSH1 0x1 PUSH1 0x1 PUSH1 0xE0 SHL SUB SWAP2 DUP3 AND PUSH1 0x1 PUSH1 0x1 PUSH1 0xE0 SHL SUB NOT SWAP1 SWAP5 AND SWAP4 SWAP1 SWAP4 OR AND SWAP2 SWAP1 SWAP2 OR SWAP1 SSTORE POP PUSH2 0xD8F SWAP3 POP POP POP JUMP JUMPDEST DUP1 ISZERO PUSH2 0xD8F JUMPI PUSH2 0xD6F DUP4 PUSH1 0x40 MLOAD DUP1 PUSH1 0x40 ADD PUSH1 0x40 MSTORE DUP1 PUSH1 0x1C DUP2 MSTORE PUSH1 0x20 ADD PUSH1 0x0 DUP1 MLOAD PUSH1 0x20 PUSH2 0x3C6B DUP4 CODECOPY DUP2 MLOAD SWAP2 MSTORE DUP2 MSTORE POP PUSH2 0x2823 JUMP JUMPDEST DUP6 SLOAD PUSH4 0xFFFFFFFF SWAP2 SWAP1 SWAP2 AND PUSH1 0x1 PUSH1 0xE0 SHL MUL PUSH1 0x1 PUSH1 0x1 PUSH1 0xE0 SHL SUB SWAP1 SWAP2 AND OR DUP6 SSTORE JUMPDEST PUSH2 0xD97 PUSH2 0x39A7 JUMP JUMPDEST POP PUSH1 0x1 PUSH1 0x1 PUSH1 0xA0 SHL SUB DUP7 AND PUSH1 0x0 DUP2 DUP2 MSTORE PUSH1 0xD PUSH1 0x20 SWAP1 DUP2 MSTORE PUSH1 0x40 SWAP2 DUP3 SWAP1 KECCAK256 DUP3 MLOAD DUP1 DUP5 ADD DUP5 MSTORE SWAP1 SLOAD PUSH1 0x1 PUSH1 0x1 PUSH1 0xE0 SHL SUB DUP2 AND DUP1 DUP4 MSTORE PUSH4 0xFFFFFFFF PUSH1 0x1 PUSH1 0xE0 SHL SWAP1 SWAP3 DIV SWAP2 SWAP1 SWAP2 AND DUP3 DUP5 ADD DUP2 SWAP1 MSTORE DUP5 MLOAD SWAP6 DUP7 MSTORE SWAP3 DUP6 ADD DUP8 SWAP1 MSTORE DUP5 DUP5 ADD MSTORE PUSH1 0x60 DUP5 ADD SWAP2 SWAP1 SWAP2 MSTORE SWAP1 MLOAD SWAP1 SWAP2 PUSH32 0xF3F7E0FDEA8BDAB4B48E0A46DE330B1548A9741B9346DB25843F0401FBB5D63B SWAP2 SWAP1 DUP2 SWAP1 SUB PUSH1 0x80 ADD SWAP1 LOG1 POP POP POP POP POP POP POP JUMP JUMPDEST PUSH1 0x0 DUP1 SLOAD PUSH1 0x1 PUSH1 0x1 PUSH1 0xA0 SHL SUB AND CALLER EQ PUSH2 0xE7A JUMPI PUSH1 0x40 MLOAD PUSH3 0x461BCD PUSH1 0xE5 SHL DUP2 MSTORE PUSH1 0x4 ADD DUP1 DUP1 PUSH1 0x20 ADD DUP3 DUP2 SUB DUP3 MSTORE PUSH1 0x44 DUP2 MSTORE PUSH1 0x20 ADD DUP1 PUSH2 0x3BCB PUSH1 0x44 SWAP2 CODECOPY PUSH1 0x60 ADD SWAP2 POP POP PUSH1 0x40 MLOAD DUP1 SWAP2 SUB SWAP1 REVERT JUMPDEST PUSH8 0x6F05B59D3B20000 DUP3 GT PUSH2 0xEC0 JUMPI PUSH1 0x40 MLOAD PUSH3 0x461BCD PUSH1 0xE5 SHL DUP2 MSTORE PUSH1 0x4 ADD DUP1 DUP1 PUSH1 0x20 ADD DUP3 DUP2 SUB DUP3 MSTORE PUSH1 0x32 DUP2 MSTORE PUSH1 0x20 ADD DUP1 PUSH2 0x3C0F PUSH1 0x32 SWAP2 CODECOPY PUSH1 0x40 ADD SWAP2 POP POP PUSH1 0x40 MLOAD DUP1 SWAP2 SUB SWAP1 REVERT JUMPDEST PUSH8 0xDE0B6B3A7640000 DUP3 GT ISZERO PUSH2 0xF07 JUMPI PUSH1 0x40 MLOAD PUSH3 0x461BCD PUSH1 0xE5 SHL DUP2 MSTORE PUSH1 0x4 ADD DUP1 DUP1 PUSH1 0x20 ADD DUP3 DUP2 SUB DUP3 MSTORE PUSH1 0x2D DUP2 MSTORE PUSH1 0x20 ADD DUP1 PUSH2 0x3A5A PUSH1 0x2D SWAP2 CODECOPY PUSH1 0x40 ADD SWAP2 POP POP PUSH1 0x40 MLOAD DUP1 SWAP2 SUB SWAP1 REVERT JUMPDEST PUSH1 0x1 PUSH1 0x1 PUSH1 0xA0 SHL SUB DUP4 AND PUSH1 0x0 DUP2 DUP2 MSTORE PUSH1 0xA PUSH1 0x20 SWAP1 DUP2 MSTORE PUSH1 0x40 SWAP2 DUP3 SWAP1 KECCAK256 DUP1 SLOAD SWAP1 DUP7 SWAP1 SSTORE DUP3 MLOAD SWAP4 DUP5 MSTORE SWAP1 DUP4 ADD DUP2 SWAP1 MSTORE DUP3 DUP3 ADD DUP6 SWAP1 MSTORE SWAP1 MLOAD SWAP1 SWAP2 PUSH32 0xDADE4F941992368DC087A600C8E7B5C61509CD6A99ABA9615921929ECE521DA3 SWAP2 SWAP1 DUP2 SWAP1 SUB PUSH1 0x60 ADD SWAP1 LOG1 PUSH2 0xF71 PUSH2 0x2558 JUMP JUMPDEST POP PUSH1 0x1 SWAP5 SWAP4 POP POP POP POP JUMP JUMPDEST PUSH1 0x5 DUP2 DUP2 SLOAD DUP2 LT PUSH2 0xF89 JUMPI INVALID JUMPDEST PUSH1 0x0 SWAP2 DUP3 MSTORE PUSH1 0x20 SWAP1 SWAP2 KECCAK256 ADD SLOAD PUSH1 0x1 PUSH1 0x1 PUSH1 0xA0 SHL SUB AND SWAP1 POP DUP2 JUMP JUMPDEST PUSH1 0xF PUSH1 0x20 MSTORE PUSH1 0x0 SWAP1 DUP2 MSTORE PUSH1 0x40 SWAP1 KECCAK256 PUSH1 0x18 ADD SLOAD PUSH4 0xFFFFFFFF AND DUP2 JUMP JUMPDEST PUSH1 0x1 SLOAD PUSH1 0x0 SWAP1 PUSH1 0x1 PUSH1 0x1 PUSH1 0xA0 SHL SUB AND CALLER EQ DUP1 PUSH2 0xFE4 JUMPI POP PUSH1 0x0 SLOAD PUSH1 0x1 PUSH1 0x1 PUSH1 0xA0 SHL SUB AND CALLER EQ JUMPDEST PUSH2 0x101F JUMPI PUSH1 0x40 MLOAD PUSH3 0x461BCD PUSH1 0xE5 SHL DUP2 MSTORE PUSH1 0x4 ADD DUP1 DUP1 PUSH1 0x20 ADD DUP3 DUP2 SUB DUP3 MSTORE PUSH1 0x2A DUP2 MSTORE PUSH1 0x20 ADD DUP1 PUSH2 0x3C41 PUSH1 0x2A SWAP2 CODECOPY PUSH1 0x40 ADD SWAP2 POP POP PUSH1 0x40 MLOAD DUP1 SWAP2 SUB SWAP1 REVERT JUMPDEST PUSH1 0x1 PUSH1 0x1 PUSH1 0xA0 SHL SUB DUP3 AND PUSH1 0x0 SWAP1 DUP2 MSTORE PUSH1 0x6 PUSH1 0x20 MSTORE PUSH1 0x40 SWAP1 KECCAK256 SLOAD PUSH1 0xFF AND ISZERO PUSH2 0x108D JUMPI PUSH1 0x40 DUP1 MLOAD PUSH3 0x461BCD PUSH1 0xE5 SHL DUP2 MSTORE PUSH1 0x20 PUSH1 0x4 DUP3 ADD MSTORE PUSH1 0x1C PUSH1 0x24 DUP3 ADD MSTORE PUSH32 0x4D61726B657420616C726561647920737570706F727473205349474800000000 PUSH1 0x44 DUP3 ADD MSTORE SWAP1 MLOAD SWAP1 DUP2 SWAP1 SUB PUSH1 0x64 ADD SWAP1 REVERT JUMPDEST PUSH2 0x1096 DUP3 PUSH2 0x2879 JUMP JUMPDEST PUSH1 0x1 PUSH1 0x1 PUSH1 0xA0 SHL SUB DUP3 AND PUSH1 0x0 SWAP1 DUP2 MSTORE PUSH1 0xD PUSH1 0x20 MSTORE PUSH1 0x40 SWAP1 KECCAK256 SLOAD PUSH1 0x1 PUSH1 0x1 PUSH1 0xE0 SHL SUB AND ISZERO DUP1 ISZERO PUSH2 0x10E8 JUMPI POP PUSH1 0x1 PUSH1 0x1 PUSH1 0xA0 SHL SUB DUP3 AND PUSH1 0x0 SWAP1 DUP2 MSTORE PUSH1 0xD PUSH1 0x20 MSTORE PUSH1 0x40 SWAP1 KECCAK256 SLOAD PUSH1 0x1 PUSH1 0xE0 SHL SWAP1 DIV PUSH4 0xFFFFFFFF AND ISZERO JUMPDEST ISZERO PUSH2 0x1218 JUMPI PUSH1 0x40 MLOAD DUP1 PUSH1 0x40 ADD PUSH1 0x40 MSTORE DUP1 PUSH2 0x1131 PUSH11 0xC097CE7BC90715B34B9F1 PUSH1 0x24 SHL PUSH1 0x1 PUSH1 0x1 PUSH1 0xE0 SHL SUB AND PUSH1 0x40 MLOAD DUP1 PUSH1 0x60 ADD PUSH1 0x40 MSTORE DUP1 PUSH1 0x21 DUP2 MSTORE PUSH1 0x20 ADD PUSH2 0x3A87 PUSH1 0x21 SWAP2 CODECOPY PUSH2 0x27C6 JUMP JUMPDEST PUSH1 0x1 PUSH1 0x1 PUSH1 0xE0 SHL SUB AND DUP2 MSTORE PUSH1 0x20 ADD PUSH2 0x1179 PUSH2 0x114A PUSH2 0x943 JUMP JUMPDEST PUSH4 0xFFFFFFFF AND PUSH1 0x40 MLOAD DUP1 PUSH1 0x40 ADD PUSH1 0x40 MSTORE DUP1 PUSH1 0x1C DUP2 MSTORE PUSH1 0x20 ADD PUSH1 0x0 DUP1 MLOAD PUSH1 0x20 PUSH2 0x3C6B DUP4 CODECOPY DUP2 MLOAD SWAP2 MSTORE DUP2 MSTORE POP PUSH2 0x2823 JUMP JUMPDEST PUSH4 0xFFFFFFFF SWAP1 DUP2 AND SWAP1 SWAP2 MSTORE PUSH1 0x1 PUSH1 0x1 PUSH1 0xA0 SHL SUB DUP5 AND PUSH1 0x0 DUP2 DUP2 MSTORE PUSH1 0xD PUSH1 0x20 SWAP1 DUP2 MSTORE PUSH1 0x40 SWAP2 DUP3 SWAP1 KECCAK256 DUP6 MLOAD DUP2 SLOAD SWAP7 DUP4 ADD MLOAD PUSH1 0x1 PUSH1 0x1 PUSH1 0xE0 SHL SUB NOT SWAP1 SWAP8 AND PUSH1 0x1 PUSH1 0x1 PUSH1 0xE0 SHL SUB SWAP2 DUP3 AND OR DUP2 AND PUSH1 0x1 PUSH1 0xE0 SHL SWAP8 DUP8 AND DUP9 MUL OR SWAP2 DUP3 SWAP1 SSTORE DUP4 MLOAD SWAP5 DUP6 MSTORE DUP2 AND SWAP2 DUP5 ADD SWAP2 SWAP1 SWAP2 MSTORE SWAP4 SWAP1 SWAP4 DIV SWAP1 SWAP2 AND DUP2 DUP4 ADD MSTORE SWAP1 MLOAD PUSH32 0xEA6EA9045FED8FDF09E1CD7B5C1A56A54A0269791D8E1474B141AA220917EAA9 SWAP2 PUSH1 0x60 SWAP1 DUP3 SWAP1 SUB ADD SWAP1 LOG1 JUMPDEST PUSH1 0x1 PUSH1 0x1 PUSH1 0xA0 SHL SUB DUP3 AND PUSH1 0x0 SWAP1 DUP2 MSTORE PUSH1 0xE PUSH1 0x20 MSTORE PUSH1 0x40 SWAP1 KECCAK256 SLOAD PUSH1 0x1 PUSH1 0x1 PUSH1 0xE0 SHL SUB AND ISZERO DUP1 ISZERO PUSH2 0x126A JUMPI POP PUSH1 0x1 PUSH1 0x1 PUSH1 0xA0 SHL SUB DUP3 AND PUSH1 0x0 SWAP1 DUP2 MSTORE PUSH1 0xE PUSH1 0x20 MSTORE PUSH1 0x40 SWAP1 KECCAK256 SLOAD PUSH1 0x1 PUSH1 0xE0 SHL SWAP1 DIV PUSH4 0xFFFFFFFF AND ISZERO JUMPDEST ISZERO PUSH2 0x136B JUMPI PUSH1 0x40 MLOAD DUP1 PUSH1 0x40 ADD PUSH1 0x40 MSTORE DUP1 PUSH2 0x12B3 PUSH11 0xC097CE7BC90715B34B9F1 PUSH1 0x24 SHL PUSH1 0x1 PUSH1 0x1 PUSH1 0xE0 SHL SUB AND PUSH1 0x40 MLOAD DUP1 PUSH1 0x60 ADD PUSH1 0x40 MSTORE DUP1 PUSH1 0x21 DUP2 MSTORE PUSH1 0x20 ADD PUSH2 0x3A87 PUSH1 0x21 SWAP2 CODECOPY PUSH2 0x27C6 JUMP JUMPDEST PUSH1 0x1 PUSH1 0x1 PUSH1 0xE0 SHL SUB AND DUP2 MSTORE PUSH1 0x20 ADD PUSH2 0x12CC PUSH2 0x114A PUSH2 0x943 JUMP JUMPDEST PUSH4 0xFFFFFFFF SWAP1 DUP2 AND SWAP1 SWAP2 MSTORE PUSH1 0x1 PUSH1 0x1 PUSH1 0xA0 SHL SUB DUP5 AND PUSH1 0x0 DUP2 DUP2 MSTORE PUSH1 0xE PUSH1 0x20 SWAP1 DUP2 MSTORE PUSH1 0x40 SWAP2 DUP3 SWAP1 KECCAK256 DUP6 MLOAD DUP2 SLOAD SWAP7 DUP4 ADD MLOAD PUSH1 0x1 PUSH1 0x1 PUSH1 0xE0 SHL SUB NOT SWAP1 SWAP8 AND PUSH1 0x1 PUSH1 0x1 PUSH1 0xE0 SHL SUB SWAP2 DUP3 AND OR DUP2 AND PUSH1 0x1 PUSH1 0xE0 SHL SWAP8 DUP8 AND DUP9 MUL OR SWAP2 DUP3 SWAP1 SSTORE DUP4 MLOAD SWAP5 DUP6 MSTORE DUP2 AND SWAP2 DUP5 ADD SWAP2 SWAP1 SWAP2 MSTORE SWAP4 SWAP1 SWAP4 DIV SWAP1 SWAP2 AND DUP2 DUP4 ADD MSTORE SWAP1 MLOAD PUSH32 0xEA6EA9045FED8FDF09E1CD7B5C1A56A54A0269791D8E1474B141AA220917EAA9 SWAP2 PUSH1 0x60 SWAP1 DUP3 SWAP1 SUB ADD SWAP1 LOG1 JUMPDEST PUSH1 0x1 PUSH1 0x1 PUSH1 0xA0 SHL SUB DUP3 AND PUSH1 0x0 SWAP1 DUP2 MSTORE PUSH1 0xF PUSH1 0x20 MSTORE PUSH1 0x40 SWAP1 KECCAK256 PUSH1 0x18 ADD SLOAD PUSH4 0xFFFFFFFF AND PUSH2 0x13F8 JUMPI PUSH2 0x1399 PUSH2 0x39BE JUMP JUMPDEST PUSH1 0x40 DUP1 MLOAD DUP1 DUP3 ADD DUP3 MSTORE DUP3 DUP2 MSTORE PUSH1 0x0 PUSH1 0x20 DUP1 DUP4 ADD DUP3 SWAP1 MSTORE PUSH1 0x1 PUSH1 0x1 PUSH1 0xA0 SHL SUB DUP8 AND DUP3 MSTORE PUSH1 0xF SWAP1 MSTORE SWAP2 SWAP1 SWAP2 KECCAK256 DUP2 MLOAD PUSH2 0x13D2 SWAP1 DUP3 SWAP1 PUSH1 0x18 PUSH2 0x39DD JUMP JUMPDEST POP PUSH1 0x20 SWAP2 SWAP1 SWAP2 ADD MLOAD PUSH1 0x18 SWAP1 SWAP2 ADD DUP1 SLOAD PUSH4 0xFFFFFFFF NOT AND PUSH4 0xFFFFFFFF SWAP1 SWAP3 AND SWAP2 SWAP1 SWAP2 OR SWAP1 SSTORE POP JUMPDEST PUSH1 0x1 PUSH1 0x1 PUSH1 0xA0 SHL SUB DUP3 AND PUSH1 0x0 SWAP1 DUP2 MSTORE PUSH1 0xA PUSH1 0x20 SWAP1 DUP2 MSTORE PUSH1 0x40 DUP1 DUP4 KECCAK256 PUSH8 0xDE0B6B3A7640000 SWAP1 SSTORE PUSH1 0x6 SWAP1 SWAP2 MSTORE SWAP1 KECCAK256 DUP1 SLOAD PUSH1 0xFF NOT AND PUSH1 0x1 OR SWAP1 SSTORE PUSH2 0x1438 PUSH2 0x2558 JUMP JUMPDEST POP PUSH1 0x40 DUP1 MLOAD PUSH1 0x1 PUSH1 0x1 PUSH1 0xA0 SHL SUB DUP5 AND DUP2 MSTORE PUSH1 0x1 PUSH1 0x20 DUP3 ADD MSTORE DUP2 MLOAD PUSH32 0xD5F5B7732DA53526B112E858CDF354B8D8AD54AB944DDCA1DBE803E292F181D7 SWAP3 SWAP2 DUP2 SWAP1 SUB SWAP1 SWAP2 ADD SWAP1 LOG1 POP PUSH1 0x1 SWAP2 SWAP1 POP JUMP JUMPDEST PUSH7 0x38D7EA4C68000 DUP2 JUMP JUMPDEST PUSH1 0x0 DUP1 SLOAD PUSH1 0x1 PUSH1 0x1 PUSH1 0xA0 SHL SUB AND CALLER EQ PUSH2 0x14F0 JUMPI PUSH1 0x40 DUP1 MLOAD PUSH3 0x461BCD PUSH1 0xE5 SHL DUP2 MSTORE PUSH1 0x20 PUSH1 0x4 DUP3 ADD MSTORE PUSH1 0x1F PUSH1 0x24 DUP3 ADD MSTORE PUSH32 0x6F6E6C792061646D696E2063616E2073657420536967685F4164647265737300 PUSH1 0x44 DUP3 ADD MSTORE SWAP1 MLOAD SWAP1 DUP2 SWAP1 SUB PUSH1 0x64 ADD SWAP1 REVERT JUMPDEST POP PUSH1 0x3 DUP1 SLOAD PUSH1 0x1 PUSH1 0x1 PUSH1 0xA0 SHL SUB NOT AND PUSH1 0x1 PUSH1 0x1 PUSH1 0xA0 SHL SUB SWAP3 DUP4 AND OR SWAP1 DUP2 SWAP1 SSTORE AND SWAP1 JUMP JUMPDEST PUSH1 0x0 DUP1 SLOAD PUSH1 0x1 PUSH1 0x1 PUSH1 0xA0 SHL SUB AND CALLER EQ PUSH2 0x1573 JUMPI PUSH1 0x40 DUP1 MLOAD PUSH3 0x461BCD PUSH1 0xE5 SHL DUP2 MSTORE PUSH1 0x20 PUSH1 0x4 DUP3 ADD MSTORE PUSH1 0x19 PUSH1 0x24 DUP3 ADD MSTORE PUSH32 0x6F6E6C792061646D696E2063616E20736574206F7261636C6500000000000000 PUSH1 0x44 DUP3 ADD MSTORE SWAP1 MLOAD SWAP1 DUP2 SWAP1 SUB PUSH1 0x64 ADD SWAP1 REVERT JUMPDEST POP PUSH1 0x2 DUP1 SLOAD PUSH1 0x1 PUSH1 0x1 PUSH1 0xA0 SHL SUB DUP4 AND PUSH1 0x1 PUSH1 0x1 PUSH1 0xA0 SHL SUB NOT SWAP1 SWAP2 AND OR SWAP1 SSTORE PUSH1 0x1 SWAP2 SWAP1 POP JUMP JUMPDEST PUSH1 0x1 DUP2 JUMP JUMPDEST PUSH1 0x1 SLOAD PUSH1 0x1 PUSH1 0x1 PUSH1 0xA0 SHL SUB AND CALLER EQ DUP1 PUSH2 0x15C0 JUMPI POP PUSH1 0x0 SLOAD PUSH1 0x1 PUSH1 0x1 PUSH1 0xA0 SHL SUB AND CALLER EQ JUMPDEST PUSH2 0x15FB JUMPI PUSH1 0x40 MLOAD PUSH3 0x461BCD PUSH1 0xE5 SHL DUP2 MSTORE PUSH1 0x4 ADD DUP1 DUP1 PUSH1 0x20 ADD DUP3 DUP2 SUB DUP3 MSTORE PUSH1 0x33 DUP2 MSTORE PUSH1 0x20 ADD DUP1 PUSH2 0x3AA8 PUSH1 0x33 SWAP2 CODECOPY PUSH1 0x40 ADD SWAP2 POP POP PUSH1 0x40 MLOAD DUP1 SWAP2 SUB SWAP1 REVERT JUMPDEST DUP1 PUSH2 0x1604 PUSH2 0x3994 JUMP JUMPDEST PUSH1 0x40 MLOAD DUP1 PUSH1 0x20 ADD PUSH1 0x40 MSTORE DUP1 DUP4 PUSH1 0x1 PUSH1 0x1 PUSH1 0xA0 SHL SUB AND PUSH4 0xAA5AF0FD PUSH1 0x40 MLOAD DUP2 PUSH4 0xFFFFFFFF AND PUSH1 0xE0 SHL DUP2 MSTORE PUSH1 0x4 ADD PUSH1 0x20 PUSH1 0x40 MLOAD DUP1 DUP4 SUB DUP2 DUP7 DUP1 EXTCODESIZE ISZERO DUP1 ISZERO PUSH2 0x1648 JUMPI PUSH1 0x0 DUP1 REVERT JUMPDEST POP GAS STATICCALL ISZERO DUP1 ISZERO PUSH2 0x165C JUMPI RETURNDATASIZE PUSH1 0x0 DUP1 RETURNDATACOPY RETURNDATASIZE PUSH1 0x0 REVERT JUMPDEST POP POP POP POP PUSH1 0x40 MLOAD RETURNDATASIZE PUSH1 0x20 DUP2 LT ISZERO PUSH2 0x1672 JUMPI PUSH1 0x0 DUP1 REVERT JUMPDEST POP MLOAD SWAP1 MSTORE PUSH1 0x1 PUSH1 0x1 PUSH1 0xA0 SHL SUB DUP5 AND PUSH1 0x0 SWAP1 DUP2 MSTORE PUSH1 0xE PUSH1 0x20 SWAP1 DUP2 MSTORE PUSH1 0x40 DUP1 DUP4 KECCAK256 PUSH1 0xC SWAP1 SWAP3 MSTORE DUP3 KECCAK256 SLOAD SWAP3 SWAP4 POP SWAP2 SWAP1 PUSH2 0x16A6 PUSH2 0x943 JUMP JUMPDEST DUP4 SLOAD PUSH4 0xFFFFFFFF SWAP2 DUP3 AND SWAP3 POP PUSH1 0x1 PUSH1 0x1 PUSH1 0xE0 SHL SUB DUP2 AND SWAP2 PUSH1 0x0 SWAP2 PUSH2 0x16D3 SWAP2 DUP6 SWAP2 PUSH1 0x1 PUSH1 0xE0 SHL SWAP1 DIV AND PUSH2 0x2920 JUMP JUMPDEST DUP6 SLOAD PUSH1 0x40 DUP1 MLOAD PUSH1 0x1 PUSH1 0x1 PUSH1 0xA0 SHL SUB DUP13 AND DUP2 MSTORE PUSH1 0x20 DUP2 ADD DUP9 SWAP1 MSTORE PUSH1 0x1 PUSH1 0x1 PUSH1 0xE0 SHL SUB DUP4 AND DUP2 DUP4 ADD MSTORE PUSH4 0xFFFFFFFF PUSH1 0x1 PUSH1 0xE0 SHL SWAP1 SWAP4 DIV SWAP3 SWAP1 SWAP3 AND PUSH1 0x60 DUP4 ADD MSTORE PUSH1 0x80 DUP3 ADD DUP7 SWAP1 MSTORE PUSH1 0xA0 DUP3 ADD DUP4 SWAP1 MSTORE MLOAD SWAP2 SWAP3 POP PUSH32 0xA058DFD6C04D9834195C4B80AE7CA35418D9D07D684CDEB45972EEC16C1B336E SWAP2 SWAP1 DUP2 SWAP1 SUB PUSH1 0xC0 ADD SWAP1 LOG1 PUSH1 0x0 DUP2 GT DUP1 ISZERO PUSH2 0x175D JUMPI POP PUSH1 0x0 DUP5 GT JUMPDEST ISZERO PUSH2 0x19A3 JUMPI PUSH1 0x0 PUSH2 0x176E DUP3 DUP7 PUSH2 0x2722 JUMP JUMPDEST SWAP1 POP PUSH1 0x0 DUP10 PUSH1 0x1 PUSH1 0x1 PUSH1 0xA0 SHL SUB AND PUSH4 0x47BD3718 PUSH1 0x40 MLOAD DUP2 PUSH4 0xFFFFFFFF AND PUSH1 0xE0 SHL DUP2 MSTORE PUSH1 0x4 ADD PUSH1 0x20 PUSH1 0x40 MLOAD DUP1 DUP4 SUB DUP2 DUP7 DUP1 EXTCODESIZE ISZERO DUP1 ISZERO PUSH2 0x17AB JUMPI PUSH1 0x0 DUP1 REVERT JUMPDEST POP GAS STATICCALL ISZERO DUP1 ISZERO PUSH2 0x17BF JUMPI RETURNDATASIZE PUSH1 0x0 DUP1 RETURNDATACOPY RETURNDATASIZE PUSH1 0x0 REVERT JUMPDEST POP POP POP POP PUSH1 0x40 MLOAD RETURNDATASIZE PUSH1 0x20 DUP2 LT ISZERO PUSH2 0x17D5 JUMPI PUSH1 0x0 DUP1 REVERT JUMPDEST POP MLOAD SWAP1 POP PUSH1 0x0 PUSH2 0x17E5 DUP3 DUP11 PUSH2 0x295A JUMP JUMPDEST SWAP1 POP PUSH2 0x17EF PUSH2 0x3994 JUMP JUMPDEST PUSH1 0x0 DUP3 GT PUSH2 0x180C JUMPI PUSH1 0x40 MLOAD DUP1 PUSH1 0x20 ADD PUSH1 0x40 MSTORE DUP1 PUSH1 0x0 DUP2 MSTORE POP PUSH2 0x1816 JUMP JUMPDEST PUSH2 0x1816 DUP5 DUP4 PUSH2 0x2764 JUMP JUMPDEST SWAP1 POP PUSH2 0x1820 PUSH2 0x3994 JUMP JUMPDEST PUSH1 0x40 DUP1 MLOAD PUSH1 0x20 DUP2 ADD SWAP1 SWAP2 MSTORE DUP11 SLOAD PUSH1 0x1 PUSH1 0x1 PUSH1 0xE0 SHL SUB AND DUP2 MSTORE PUSH2 0x1842 SWAP1 DUP4 PUSH2 0x27A1 JUMP JUMPDEST SWAP1 POP PUSH32 0xBE37F70E594E12D41728104A3B673F3291F124EA114F134A0880E6F5F84B16C DUP14 DUP5 DUP8 DUP6 PUSH1 0x0 ADD MLOAD DUP6 PUSH1 0x0 ADD MLOAD PUSH1 0x40 MLOAD DUP1 DUP7 PUSH1 0x1 PUSH1 0x1 PUSH1 0xA0 SHL SUB AND PUSH1 0x1 PUSH1 0x1 PUSH1 0xA0 SHL SUB AND DUP2 MSTORE PUSH1 0x20 ADD DUP6 DUP2 MSTORE PUSH1 0x20 ADD DUP5 DUP2 MSTORE PUSH1 0x20 ADD DUP4 DUP2 MSTORE PUSH1 0x20 ADD DUP3 DUP2 MSTORE PUSH1 0x20 ADD SWAP6 POP POP POP POP POP POP PUSH1 0x40 MLOAD DUP1 SWAP2 SUB SWAP1 LOG1 PUSH1 0x40 MLOAD DUP1 PUSH1 0x40 ADD PUSH1 0x40 MSTORE DUP1 PUSH2 0x1903 DUP4 PUSH1 0x0 ADD MLOAD PUSH1 0x40 MLOAD DUP1 PUSH1 0x40 ADD PUSH1 0x40 MSTORE DUP1 PUSH1 0x1A DUP2 MSTORE PUSH1 0x20 ADD PUSH32 0x6E657720696E6465782065786365656473203232342062697473000000000000 DUP2 MSTORE POP PUSH2 0x27C6 JUMP JUMPDEST PUSH1 0x1 PUSH1 0x1 PUSH1 0xE0 SHL SUB AND DUP2 MSTORE PUSH1 0x20 ADD PUSH2 0x193E DUP11 PUSH1 0x40 MLOAD DUP1 PUSH1 0x40 ADD PUSH1 0x40 MSTORE DUP1 PUSH1 0x1C DUP2 MSTORE PUSH1 0x20 ADD PUSH1 0x0 DUP1 MLOAD PUSH1 0x20 PUSH2 0x3C6B DUP4 CODECOPY DUP2 MLOAD SWAP2 MSTORE DUP2 MSTORE POP PUSH2 0x2823 JUMP JUMPDEST PUSH4 0xFFFFFFFF SWAP1 DUP2 AND SWAP1 SWAP2 MSTORE PUSH1 0x1 PUSH1 0x1 PUSH1 0xA0 SHL SUB DUP16 AND PUSH1 0x0 SWAP1 DUP2 MSTORE PUSH1 0xE PUSH1 0x20 SWAP1 DUP2 MSTORE PUSH1 0x40 SWAP1 SWAP2 KECCAK256 DUP4 MLOAD DUP2 SLOAD SWAP5 SWAP1 SWAP3 ADD MLOAD SWAP1 SWAP3 AND PUSH1 0x1 PUSH1 0xE0 SHL MUL PUSH1 0x1 PUSH1 0x1 PUSH1 0xE0 SHL SUB SWAP2 DUP3 AND PUSH1 0x1 PUSH1 0x1 PUSH1 0xE0 SHL SUB NOT SWAP1 SWAP5 AND SWAP4 SWAP1 SWAP4 OR AND SWAP2 SWAP1 SWAP2 OR SWAP1 SSTORE POP PUSH2 0x19F6 SWAP4 POP POP POP POP JUMP JUMPDEST DUP1 ISZERO PUSH2 0x19F6 JUMPI PUSH2 0x19D6 DUP4 PUSH1 0x40 MLOAD DUP1 PUSH1 0x40 ADD PUSH1 0x40 MSTORE DUP1 PUSH1 0x1C DUP2 MSTORE PUSH1 0x20 ADD PUSH1 0x0 DUP1 MLOAD PUSH1 0x20 PUSH2 0x3C6B DUP4 CODECOPY DUP2 MLOAD SWAP2 MSTORE DUP2 MSTORE POP PUSH2 0x2823 JUMP JUMPDEST DUP6 SLOAD PUSH4 0xFFFFFFFF SWAP2 SWAP1 SWAP2 AND PUSH1 0x1 PUSH1 0xE0 SHL MUL PUSH1 0x1 PUSH1 0x1 PUSH1 0xE0 SHL SUB SWAP1 SWAP2 AND OR DUP6 SSTORE JUMPDEST PUSH2 0x19FE PUSH2 0x39A7 JUMP JUMPDEST POP PUSH1 0x1 PUSH1 0x1 PUSH1 0xA0 SHL SUB DUP9 AND PUSH1 0x0 DUP2 DUP2 MSTORE PUSH1 0xE PUSH1 0x20 SWAP1 DUP2 MSTORE PUSH1 0x40 SWAP2 DUP3 SWAP1 KECCAK256 DUP3 MLOAD DUP1 DUP5 ADD DUP5 MSTORE SWAP1 SLOAD PUSH1 0x1 PUSH1 0x1 PUSH1 0xE0 SHL SUB DUP2 AND DUP1 DUP4 MSTORE PUSH4 0xFFFFFFFF PUSH1 0x1 PUSH1 0xE0 SHL SWAP1 SWAP3 DIV SWAP2 SWAP1 SWAP2 AND DUP3 DUP5 ADD DUP2 SWAP1 MSTORE DUP5 MLOAD SWAP6 DUP7 MSTORE SWAP3 DUP6 ADD DUP8 SWAP1 MSTORE DUP5 DUP5 ADD MSTORE PUSH1 0x60 DUP5 ADD SWAP2 SWAP1 SWAP2 MSTORE SWAP1 MLOAD SWAP1 SWAP2 PUSH32 0x6E0D87063C8417FD7B8B3205D65EBDB7C8B9ACDACD9A31FF3BBB870F6F40A459 SWAP2 SWAP1 DUP2 SWAP1 SUB PUSH1 0x80 ADD SWAP1 LOG1 POP POP POP POP POP POP POP POP POP JUMP JUMPDEST PUSH1 0x2 SLOAD PUSH1 0x1 PUSH1 0x1 PUSH1 0xA0 SHL SUB AND DUP2 JUMP JUMPDEST PUSH1 0x7 SLOAD DUP2 JUMP JUMPDEST PUSH1 0x1 PUSH1 0x1 PUSH1 0xA0 SHL SUB AND PUSH1 0x0 SWAP1 DUP2 MSTORE PUSH1 0xF PUSH1 0x20 MSTORE PUSH1 0x40 SWAP1 KECCAK256 PUSH1 0x18 ADD SLOAD PUSH4 0xFFFFFFFF AND SWAP1 JUMP JUMPDEST PUSH1 0x1 SLOAD PUSH1 0x1 PUSH1 0x1 PUSH1 0xA0 SHL SUB AND CALLER EQ DUP1 PUSH2 0x1AF5 JUMPI POP PUSH1 0x0 SLOAD PUSH1 0x1 PUSH1 0x1 PUSH1 0xA0 SHL SUB AND CALLER EQ JUMPDEST PUSH2 0x1B30 JUMPI PUSH1 0x40 MLOAD PUSH3 0x461BCD PUSH1 0xE5 SHL DUP2 MSTORE PUSH1 0x4 ADD DUP1 DUP1 PUSH1 0x20 ADD DUP3 DUP2 SUB DUP3 MSTORE PUSH1 0x33 DUP2 MSTORE PUSH1 0x20 ADD DUP1 PUSH2 0x3AA8 PUSH1 0x33 SWAP2 CODECOPY PUSH1 0x40 ADD SWAP2 POP POP PUSH1 0x40 MLOAD DUP1 SWAP2 SUB SWAP1 REVERT JUMPDEST PUSH1 0x1 PUSH1 0x1 PUSH1 0xA0 SHL SUB DUP3 AND PUSH1 0x0 SWAP1 DUP2 MSTORE PUSH1 0xD PUSH1 0x20 MSTORE PUSH1 0x40 SWAP1 KECCAK256 PUSH2 0x1B50 PUSH2 0x3994 JUMP JUMPDEST POP PUSH1 0x40 DUP1 MLOAD PUSH1 0x20 DUP2 ADD SWAP1 SWAP2 MSTORE DUP2 SLOAD PUSH1 0x1 PUSH1 0x1 PUSH1 0xE0 SHL SUB AND DUP2 MSTORE PUSH2 0x1B71 PUSH2 0x3994 JUMP JUMPDEST POP PUSH1 0x40 DUP1 MLOAD PUSH1 0x20 DUP1 DUP3 ADD DUP4 MSTORE PUSH1 0x1 PUSH1 0x1 PUSH1 0xA0 SHL SUB DUP1 DUP9 AND PUSH1 0x0 SWAP1 DUP2 MSTORE PUSH1 0x10 DUP4 MSTORE DUP5 DUP2 KECCAK256 SWAP2 DUP9 AND DUP1 DUP3 MSTORE DUP3 DUP5 MSTORE SWAP5 DUP2 KECCAK256 DUP1 SLOAD DUP6 MSTORE DUP7 MLOAD SWAP6 SWAP1 SWAP2 MSTORE SWAP2 MSTORE SWAP2 SWAP1 SWAP2 SSTORE DUP1 MLOAD ISZERO DUP1 ISZERO PUSH2 0x1BBF JUMPI POP DUP2 MLOAD ISZERO ISZERO JUMPDEST ISZERO PUSH2 0x1BD6 JUMPI PUSH11 0xC097CE7BC90715B34B9F1 PUSH1 0x24 SHL DUP2 MSTORE JUMPDEST DUP2 MLOAD DUP2 MLOAD PUSH1 0x40 DUP1 MLOAD PUSH1 0x1 PUSH1 0x1 PUSH1 0xA0 SHL SUB DUP10 AND DUP2 MSTORE PUSH1 0x20 DUP2 ADD SWAP4 SWAP1 SWAP4 MSTORE DUP3 DUP2 ADD SWAP2 SWAP1 SWAP2 MSTORE MLOAD PUSH32 0x8570F42CDF4CB0F9D23A4554BAACA6538401ACF7D2793BAE71863A7D1D4F05E1 SWAP2 DUP2 SWAP1 SUB PUSH1 0x60 ADD SWAP1 LOG1 PUSH2 0x1C2C PUSH2 0x3994 JUMP JUMPDEST PUSH2 0x1C36 DUP4 DUP4 PUSH2 0x2978 JUMP JUMPDEST SWAP1 POP PUSH1 0x0 DUP7 PUSH1 0x1 PUSH1 0x1 PUSH1 0xA0 SHL SUB AND PUSH4 0x70A08231 DUP8 PUSH1 0x40 MLOAD DUP3 PUSH4 0xFFFFFFFF AND PUSH1 0xE0 SHL DUP2 MSTORE PUSH1 0x4 ADD DUP1 DUP3 PUSH1 0x1 PUSH1 0x1 PUSH1 0xA0 SHL SUB AND PUSH1 0x1 PUSH1 0x1 PUSH1 0xA0 SHL SUB AND DUP2 MSTORE PUSH1 0x20 ADD SWAP2 POP POP PUSH1 0x20 PUSH1 0x40 MLOAD DUP1 DUP4 SUB DUP2 DUP7 DUP1 EXTCODESIZE ISZERO DUP1 ISZERO PUSH2 0x1C90 JUMPI PUSH1 0x0 DUP1 REVERT JUMPDEST POP GAS STATICCALL ISZERO DUP1 ISZERO PUSH2 0x1CA4 JUMPI RETURNDATASIZE PUSH1 0x0 DUP1 RETURNDATACOPY RETURNDATASIZE PUSH1 0x0 REVERT JUMPDEST POP POP POP POP PUSH1 0x40 MLOAD RETURNDATASIZE PUSH1 0x20 DUP2 LT ISZERO PUSH2 0x1CBA JUMPI PUSH1 0x0 DUP1 REVERT JUMPDEST POP MLOAD SWAP1 POP PUSH1 0x0 PUSH2 0x1CCA DUP3 DUP5 PUSH2 0x299D JUMP JUMPDEST PUSH1 0x1 PUSH1 0x1 PUSH1 0xA0 SHL SUB DUP9 AND PUSH1 0x0 SWAP1 DUP2 MSTORE PUSH1 0x12 PUSH1 0x20 MSTORE PUSH1 0x40 DUP2 KECCAK256 SLOAD SWAP2 SWAP3 POP SWAP1 PUSH2 0x1CF1 SWAP1 DUP4 PUSH2 0x29CB JUMP JUMPDEST DUP5 MLOAD PUSH1 0x40 DUP1 MLOAD PUSH1 0x1 PUSH1 0x1 PUSH1 0xA0 SHL SUB DUP14 AND DUP2 MSTORE PUSH1 0x20 DUP2 ADD SWAP3 SWAP1 SWAP3 MSTORE DUP2 DUP2 ADD DUP7 SWAP1 MSTORE PUSH1 0x60 DUP3 ADD DUP6 SWAP1 MSTORE PUSH1 0x80 DUP3 ADD DUP4 SWAP1 MSTORE MLOAD SWAP2 SWAP3 POP PUSH32 0x9C41D92AA5B3C16B706AF3E6514AD0658B630CDEDFA37BF17C5DB60233EEB647 SWAP2 SWAP1 DUP2 SWAP1 SUB PUSH1 0xA0 ADD SWAP1 LOG1 PUSH2 0x1D60 DUP9 DUP3 PUSH7 0x38D7EA4C68000 PUSH2 0x2A01 JUMP JUMPDEST PUSH1 0x1 PUSH1 0x1 PUSH1 0xA0 SHL SUB DUP1 DUP11 AND PUSH1 0x0 DUP2 DUP2 MSTORE PUSH1 0x12 PUSH1 0x20 SWAP1 DUP2 MSTORE PUSH1 0x40 SWAP2 DUP3 SWAP1 KECCAK256 DUP6 SWAP1 SSTORE DUP2 MLOAD SWAP4 DUP15 AND DUP5 MSTORE DUP4 ADD SWAP2 SWAP1 SWAP2 MSTORE DUP2 DUP2 ADD DUP6 SWAP1 MSTORE PUSH1 0x60 DUP3 ADD DUP4 SWAP1 MSTORE MLOAD PUSH32 0xFD9832AD1C344F70068ADF57F948D4065352298B1C3E625E244A3B5FD7637F24 SWAP2 DUP2 SWAP1 SUB PUSH1 0x80 ADD SWAP1 LOG1 POP POP POP POP POP POP POP POP POP POP JUMP JUMPDEST PUSH1 0x0 DUP1 SLOAD PUSH1 0x1 PUSH1 0x1 PUSH1 0xA0 SHL SUB AND CALLER EQ PUSH2 0x1E31 JUMPI PUSH1 0x40 DUP1 MLOAD PUSH3 0x461BCD PUSH1 0xE5 SHL DUP2 MSTORE PUSH1 0x20 PUSH1 0x4 DUP3 ADD MSTORE PUSH1 0x1E PUSH1 0x24 DUP3 ADD MSTORE PUSH32 0x6F6E6C792061646D696E2063616E20736574205349474854524F4C4C45520000 PUSH1 0x44 DUP3 ADD MSTORE SWAP1 MLOAD SWAP1 DUP2 SWAP1 SUB PUSH1 0x64 ADD SWAP1 REVERT JUMPDEST POP PUSH1 0x1 DUP1 SLOAD PUSH1 0x1 PUSH1 0x1 PUSH1 0xA0 SHL SUB DUP4 AND PUSH1 0x1 PUSH1 0x1 PUSH1 0xA0 SHL SUB NOT SWAP1 SWAP2 AND OR DUP2 SSTORE SWAP2 SWAP1 POP JUMP JUMPDEST PUSH1 0x1 SLOAD PUSH1 0x0 SWAP1 PUSH1 0x1 PUSH1 0x1 PUSH1 0xA0 SHL SUB AND CALLER EQ DUP1 PUSH2 0x1E7A JUMPI POP PUSH1 0x0 SLOAD PUSH1 0x1 PUSH1 0x1 PUSH1 0xA0 SHL SUB AND CALLER EQ JUMPDEST PUSH2 0x1EB5 JUMPI PUSH1 0x40 MLOAD PUSH3 0x461BCD PUSH1 0xE5 SHL DUP2 MSTORE PUSH1 0x4 ADD DUP1 DUP1 PUSH1 0x20 ADD DUP3 DUP2 SUB DUP3 MSTORE PUSH1 0x2B DUP2 MSTORE PUSH1 0x20 ADD DUP1 PUSH2 0x3BA0 PUSH1 0x2B SWAP2 CODECOPY PUSH1 0x40 ADD SWAP2 POP POP PUSH1 0x40 MLOAD DUP1 SWAP2 SUB SWAP1 REVERT JUMPDEST PUSH1 0x1 PUSH1 0x1 PUSH1 0xA0 SHL SUB DUP3 AND PUSH1 0x0 SWAP1 DUP2 MSTORE PUSH1 0x6 PUSH1 0x20 MSTORE PUSH1 0x40 SWAP1 KECCAK256 SLOAD PUSH1 0xFF AND PUSH2 0x1F22 JUMPI PUSH1 0x40 DUP1 MLOAD PUSH3 0x461BCD PUSH1 0xE5 SHL DUP2 MSTORE PUSH1 0x20 PUSH1 0x4 DUP3 ADD MSTORE PUSH1 0x1C PUSH1 0x24 DUP3 ADD MSTORE PUSH32 0x4D61726B657420646F6573206E6F7420737570706F7274205349474800000000 PUSH1 0x44 DUP3 ADD MSTORE SWAP1 MLOAD SWAP1 DUP2 SWAP1 SUB PUSH1 0x64 ADD SWAP1 REVERT JUMPDEST PUSH2 0x1F2A PUSH2 0x39BE JUMP JUMPDEST PUSH1 0x40 DUP1 MLOAD DUP1 DUP3 ADD DUP3 MSTORE DUP3 DUP2 MSTORE PUSH1 0x0 PUSH1 0x20 DUP1 DUP4 ADD DUP3 SWAP1 MSTORE PUSH1 0x1 PUSH1 0x1 PUSH1 0xA0 SHL SUB DUP8 AND DUP3 MSTORE PUSH1 0xF SWAP1 MSTORE SWAP2 SWAP1 SWAP2 KECCAK256 DUP2 MLOAD PUSH2 0x1F63 SWAP1 DUP3 SWAP1 PUSH1 0x18 PUSH2 0x39DD JUMP JUMPDEST POP PUSH1 0x20 SWAP2 DUP3 ADD MLOAD PUSH1 0x18 SWAP2 SWAP1 SWAP2 ADD DUP1 SLOAD PUSH4 0xFFFFFFFF NOT AND PUSH4 0xFFFFFFFF SWAP1 SWAP3 AND SWAP2 SWAP1 SWAP2 OR SWAP1 SSTORE PUSH1 0x1 PUSH1 0x1 PUSH1 0xA0 SHL SUB DUP5 AND PUSH1 0x0 SWAP1 DUP2 MSTORE PUSH1 0x6 SWAP1 SWAP2 MSTORE PUSH1 0x40 SWAP1 KECCAK256 DUP1 SLOAD PUSH1 0xFF NOT AND SWAP1 SSTORE PUSH2 0x1FAF PUSH2 0x2558 JUMP JUMPDEST POP PUSH1 0x40 DUP1 MLOAD PUSH1 0x1 PUSH1 0x1 PUSH1 0xA0 SHL SUB DUP6 AND DUP2 MSTORE PUSH1 0x0 PUSH1 0x20 DUP3 ADD MSTORE DUP2 MLOAD PUSH32 0xD5F5B7732DA53526B112E858CDF354B8D8AD54AB944DDCA1DBE803E292F181D7 SWAP3 SWAP2 DUP2 SWAP1 SUB SWAP1 SWAP2 ADD SWAP1 LOG1 POP PUSH1 0x1 SWAP3 SWAP2 POP POP JUMP JUMPDEST PUSH1 0x0 JUMPDEST PUSH1 0x5 SLOAD DUP2 LT ISZERO PUSH2 0x211F JUMPI PUSH1 0x0 PUSH1 0x5 DUP3 DUP2 SLOAD DUP2 LT PUSH2 0x2019 JUMPI INVALID JUMPDEST PUSH1 0x0 SWAP2 DUP3 MSTORE PUSH1 0x20 SWAP1 SWAP2 KECCAK256 ADD SLOAD PUSH1 0x1 PUSH1 0x1 PUSH1 0xA0 SHL SUB AND SWAP1 POP DUP4 ISZERO ISZERO PUSH1 0x1 EQ ISZERO PUSH2 0x2077 JUMPI PUSH2 0x2044 DUP2 PUSH2 0x159D JUMP JUMPDEST PUSH1 0x0 JUMPDEST DUP6 MLOAD DUP2 LT ISZERO PUSH2 0x2075 JUMPI PUSH2 0x206D DUP3 DUP8 DUP4 DUP2 MLOAD DUP2 LT PUSH2 0x2060 JUMPI INVALID JUMPDEST PUSH1 0x20 MUL PUSH1 0x20 ADD ADD MLOAD PUSH2 0x2125 JUMP JUMPDEST PUSH1 0x1 ADD PUSH2 0x2047 JUMP JUMPDEST POP JUMPDEST PUSH1 0x1 DUP4 ISZERO ISZERO EQ ISZERO PUSH2 0x20BE JUMPI PUSH2 0x208B DUP2 PUSH2 0x9B9 JUMP JUMPDEST PUSH1 0x0 JUMPDEST DUP6 MLOAD DUP2 LT ISZERO PUSH2 0x20BC JUMPI PUSH2 0x20B4 DUP3 DUP8 DUP4 DUP2 MLOAD DUP2 LT PUSH2 0x20A7 JUMPI INVALID JUMPDEST PUSH1 0x20 MUL PUSH1 0x20 ADD ADD MLOAD PUSH2 0x1AD2 JUMP JUMPDEST PUSH1 0x1 ADD PUSH2 0x208E JUMP JUMPDEST POP JUMPDEST PUSH2 0x2115 DUP6 DUP4 DUP2 MLOAD DUP2 LT PUSH2 0x20CD JUMPI INVALID JUMPDEST PUSH1 0x20 MUL PUSH1 0x20 ADD ADD MLOAD PUSH1 0x12 PUSH1 0x0 DUP9 DUP7 DUP2 MLOAD DUP2 LT PUSH2 0x20E5 JUMPI INVALID JUMPDEST PUSH1 0x20 MUL PUSH1 0x20 ADD ADD MLOAD PUSH1 0x1 PUSH1 0x1 PUSH1 0xA0 SHL SUB AND PUSH1 0x1 PUSH1 0x1 PUSH1 0xA0 SHL SUB AND DUP2 MSTORE PUSH1 0x20 ADD SWAP1 DUP2 MSTORE PUSH1 0x20 ADD PUSH1 0x0 KECCAK256 SLOAD PUSH1 0x0 PUSH2 0x2A01 JUMP JUMPDEST POP POP PUSH1 0x1 ADD PUSH2 0x2000 JUMP JUMPDEST POP POP POP POP JUMP JUMPDEST PUSH1 0x1 SLOAD PUSH1 0x1 PUSH1 0x1 PUSH1 0xA0 SHL SUB AND CALLER EQ DUP1 PUSH2 0x2148 JUMPI POP PUSH1 0x0 SLOAD PUSH1 0x1 PUSH1 0x1 PUSH1 0xA0 SHL SUB AND CALLER EQ JUMPDEST PUSH2 0x2183 JUMPI PUSH1 0x40 MLOAD PUSH3 0x461BCD PUSH1 0xE5 SHL DUP2 MSTORE PUSH1 0x4 ADD DUP1 DUP1 PUSH1 0x20 ADD DUP3 DUP2 SUB DUP3 MSTORE PUSH1 0x33 DUP2 MSTORE PUSH1 0x20 ADD DUP1 PUSH2 0x3AA8 PUSH1 0x33 SWAP2 CODECOPY PUSH1 0x40 ADD SWAP2 POP POP PUSH1 0x40 MLOAD DUP1 SWAP2 SUB SWAP1 REVERT JUMPDEST PUSH1 0x1 PUSH1 0x1 PUSH1 0xA0 SHL SUB DUP3 AND PUSH1 0x0 SWAP1 DUP2 MSTORE PUSH1 0xE PUSH1 0x20 MSTORE PUSH1 0x40 SWAP1 KECCAK256 PUSH2 0x21A3 PUSH2 0x3994 JUMP JUMPDEST POP PUSH1 0x40 DUP1 MLOAD PUSH1 0x20 DUP2 ADD SWAP1 SWAP2 MSTORE DUP2 SLOAD PUSH1 0x1 PUSH1 0x1 PUSH1 0xE0 SHL SUB AND DUP2 MSTORE PUSH2 0x21C4 PUSH2 0x3994 JUMP JUMPDEST POP PUSH1 0x40 DUP1 MLOAD PUSH1 0x20 DUP1 DUP3 ADD DUP4 MSTORE PUSH1 0x1 PUSH1 0x1 PUSH1 0xA0 SHL SUB DUP1 DUP9 AND PUSH1 0x0 SWAP1 DUP2 MSTORE PUSH1 0x11 DUP4 MSTORE DUP5 DUP2 KECCAK256 SWAP2 DUP9 AND DUP1 DUP3 MSTORE DUP3 DUP5 MSTORE SWAP5 DUP2 KECCAK256 DUP1 SLOAD DUP6 MSTORE DUP7 MLOAD SWAP6 SWAP1 SWAP2 MSTORE SWAP2 MSTORE SWAP2 SWAP1 SWAP2 SSTORE DUP1 MLOAD ISZERO DUP1 ISZERO PUSH2 0x2212 JUMPI POP DUP2 MLOAD ISZERO ISZERO JUMPDEST ISZERO PUSH2 0x2229 JUMPI PUSH11 0xC097CE7BC90715B34B9F1 PUSH1 0x24 SHL DUP2 MSTORE JUMPDEST DUP5 PUSH2 0x2232 PUSH2 0x3994 JUMP JUMPDEST PUSH1 0x40 MLOAD DUP1 PUSH1 0x20 ADD PUSH1 0x40 MSTORE DUP1 DUP4 PUSH1 0x1 PUSH1 0x1 PUSH1 0xA0 SHL SUB AND PUSH4 0xAA5AF0FD PUSH1 0x40 MLOAD DUP2 PUSH4 0xFFFFFFFF AND PUSH1 0xE0 SHL DUP2 MSTORE PUSH1 0x4 ADD PUSH1 0x20 PUSH1 0x40 MLOAD DUP1 DUP4 SUB DUP2 DUP7 DUP1 EXTCODESIZE ISZERO DUP1 ISZERO PUSH2 0x2276 JUMPI PUSH1 0x0 DUP1 REVERT JUMPDEST POP GAS STATICCALL ISZERO DUP1 ISZERO PUSH2 0x228A JUMPI RETURNDATASIZE PUSH1 0x0 DUP1 RETURNDATACOPY RETURNDATASIZE PUSH1 0x0 REVERT JUMPDEST POP POP POP POP PUSH1 0x40 MLOAD RETURNDATASIZE PUSH1 0x20 DUP2 LT ISZERO PUSH2 0x22A0 JUMPI PUSH1 0x0 DUP1 REVERT JUMPDEST POP MLOAD SWAP1 MSTORE DUP5 MLOAD DUP5 MLOAD PUSH1 0x40 DUP1 MLOAD PUSH1 0x1 PUSH1 0x1 PUSH1 0xA0 SHL SUB DUP13 AND DUP2 MSTORE PUSH1 0x20 DUP2 ADD SWAP4 SWAP1 SWAP4 MSTORE DUP3 DUP2 ADD SWAP2 SWAP1 SWAP2 MSTORE MLOAD SWAP2 SWAP3 POP PUSH32 0x1888BDE808D21534089BDC68DCAFD6B36033996BE2F51D1DC37320A5DC85A1CD SWAP2 SWAP1 DUP2 SWAP1 SUB PUSH1 0x60 ADD SWAP1 LOG1 DUP3 MLOAD ISZERO PUSH2 0x2520 JUMPI PUSH2 0x2305 PUSH2 0x3994 JUMP JUMPDEST PUSH2 0x230F DUP6 DUP6 PUSH2 0x2978 JUMP JUMPDEST SWAP1 POP PUSH1 0x0 DUP9 PUSH1 0x1 PUSH1 0x1 PUSH1 0xA0 SHL SUB AND PUSH4 0x95DD9193 DUP10 PUSH1 0x40 MLOAD DUP3 PUSH4 0xFFFFFFFF AND PUSH1 0xE0 SHL DUP2 MSTORE PUSH1 0x4 ADD DUP1 DUP3 PUSH1 0x1 PUSH1 0x1 PUSH1 0xA0 SHL SUB AND PUSH1 0x1 PUSH1 0x1 PUSH1 0xA0 SHL SUB AND DUP2 MSTORE PUSH1 0x20 ADD SWAP2 POP POP PUSH1 0x20 PUSH1 0x40 MLOAD DUP1 DUP4 SUB DUP2 DUP7 DUP1 EXTCODESIZE ISZERO DUP1 ISZERO PUSH2 0x2369 JUMPI PUSH1 0x0 DUP1 REVERT JUMPDEST POP GAS STATICCALL ISZERO DUP1 ISZERO PUSH2 0x237D JUMPI RETURNDATASIZE PUSH1 0x0 DUP1 RETURNDATACOPY RETURNDATASIZE PUSH1 0x0 REVERT JUMPDEST POP POP POP POP PUSH1 0x40 MLOAD RETURNDATASIZE PUSH1 0x20 DUP2 LT ISZERO PUSH2 0x2393 JUMPI PUSH1 0x0 DUP1 REVERT JUMPDEST POP MLOAD SWAP1 POP PUSH1 0x0 PUSH2 0x23A3 DUP3 DUP6 PUSH2 0x295A JUMP JUMPDEST SWAP1 POP PUSH1 0x0 PUSH2 0x23B1 DUP3 DUP6 PUSH2 0x299D JUMP JUMPDEST PUSH1 0x1 PUSH1 0x1 PUSH1 0xA0 SHL SUB DUP12 AND PUSH1 0x0 SWAP1 DUP2 MSTORE PUSH1 0x12 PUSH1 0x20 MSTORE PUSH1 0x40 DUP2 KECCAK256 SLOAD SWAP2 SWAP3 POP SWAP1 PUSH2 0x23D8 SWAP1 DUP4 PUSH2 0x29CB JUMP JUMPDEST SWAP1 POP PUSH32 0x42000B08C7B9F119837CA538FF135826A67DDA3F8C21BA7CF49FE11AF39CBCD2 DUP13 DUP7 PUSH1 0x0 ADD MLOAD DUP6 DUP6 DUP6 PUSH1 0x40 MLOAD DUP1 DUP7 PUSH1 0x1 PUSH1 0x1 PUSH1 0xA0 SHL SUB AND PUSH1 0x1 PUSH1 0x1 PUSH1 0xA0 SHL SUB AND DUP2 MSTORE PUSH1 0x20 ADD DUP6 DUP2 MSTORE PUSH1 0x20 ADD DUP5 DUP2 MSTORE PUSH1 0x20 ADD DUP4 DUP2 MSTORE PUSH1 0x20 ADD DUP3 DUP2 MSTORE PUSH1 0x20 ADD SWAP6 POP POP POP POP POP POP PUSH1 0x40 MLOAD DUP1 SWAP2 SUB SWAP1 LOG1 PUSH2 0x2459 DUP12 DUP3 PUSH7 0x38D7EA4C68000 PUSH2 0x2A01 JUMP JUMPDEST PUSH1 0x12 PUSH1 0x0 DUP14 PUSH1 0x1 PUSH1 0x1 PUSH1 0xA0 SHL SUB AND PUSH1 0x1 PUSH1 0x1 PUSH1 0xA0 SHL SUB AND DUP2 MSTORE PUSH1 0x20 ADD SWAP1 DUP2 MSTORE PUSH1 0x20 ADD PUSH1 0x0 KECCAK256 DUP2 SWAP1 SSTORE POP PUSH1 0x0 PUSH1 0x12 PUSH1 0x0 DUP14 PUSH1 0x1 PUSH1 0x1 PUSH1 0xA0 SHL SUB AND PUSH1 0x1 PUSH1 0x1 PUSH1 0xA0 SHL SUB AND DUP2 MSTORE PUSH1 0x20 ADD SWAP1 DUP2 MSTORE PUSH1 0x20 ADD PUSH1 0x0 KECCAK256 SLOAD SWAP1 POP PUSH32 0x42000B08C7B9F119837CA538FF135826A67DDA3F8C21BA7CF49FE11AF39CBCD2 DUP14 DUP8 PUSH1 0x0 ADD MLOAD DUP7 DUP7 DUP6 PUSH1 0x40 MLOAD DUP1 DUP7 PUSH1 0x1 PUSH1 0x1 PUSH1 0xA0 SHL SUB AND PUSH1 0x1 PUSH1 0x1 PUSH1 0xA0 SHL SUB AND DUP2 MSTORE PUSH1 0x20 ADD DUP6 DUP2 MSTORE PUSH1 0x20 ADD DUP5 DUP2 MSTORE PUSH1 0x20 ADD DUP4 DUP2 MSTORE PUSH1 0x20 ADD DUP3 DUP2 MSTORE PUSH1 0x20 ADD SWAP6 POP POP POP POP POP POP PUSH1 0x40 MLOAD DUP1 SWAP2 SUB SWAP1 LOG1 POP POP POP POP POP POP JUMPDEST POP POP POP POP POP POP POP JUMP JUMPDEST PUSH1 0x11 PUSH1 0x20 SWAP1 DUP2 MSTORE PUSH1 0x0 SWAP3 DUP4 MSTORE PUSH1 0x40 DUP1 DUP5 KECCAK256 SWAP1 SWAP2 MSTORE SWAP1 DUP3 MSTORE SWAP1 KECCAK256 SLOAD DUP2 JUMP JUMPDEST PUSH1 0xC PUSH1 0x20 MSTORE PUSH1 0x0 SWAP1 DUP2 MSTORE PUSH1 0x40 SWAP1 KECCAK256 SLOAD DUP2 JUMP JUMPDEST PUSH1 0x0 DUP1 PUSH2 0x2580 TIMESTAMP PUSH1 0x8 SLOAD PUSH1 0x40 MLOAD DUP1 PUSH1 0x60 ADD PUSH1 0x40 MSTORE DUP1 PUSH1 0x29 DUP2 MSTORE PUSH1 0x20 ADD PUSH2 0x3ADB PUSH1 0x29 SWAP2 CODECOPY PUSH2 0x2686 JUMP JUMPDEST SWAP1 POP PUSH1 0x1 DUP2 LT PUSH2 0x259F JUMPI PUSH2 0x2592 PUSH2 0x2B83 JUMP JUMPDEST POP POP TIMESTAMP PUSH1 0x8 SSTORE PUSH1 0x1 PUSH2 0x945 JUMP JUMPDEST PUSH1 0x0 SWAP2 POP POP SWAP1 JUMP JUMPDEST PUSH1 0xB PUSH1 0x20 MSTORE PUSH1 0x0 SWAP1 DUP2 MSTORE PUSH1 0x40 SWAP1 KECCAK256 SLOAD DUP2 JUMP JUMPDEST PUSH1 0x3 SLOAD PUSH1 0x40 DUP1 MLOAD PUSH4 0x70A08231 PUSH1 0xE0 SHL DUP2 MSTORE ADDRESS PUSH1 0x4 DUP3 ADD MSTORE SWAP1 MLOAD PUSH1 0x0 SWAP3 PUSH1 0x1 PUSH1 0x1 PUSH1 0xA0 SHL SUB AND SWAP2 DUP4 SWAP2 DUP4 SWAP2 PUSH4 0x70A08231 SWAP2 PUSH1 0x24 DUP1 DUP4 ADD SWAP3 PUSH1 0x20 SWAP3 SWAP2 SWAP1 DUP3 SWAP1 SUB ADD DUP2 DUP7 DUP1 EXTCODESIZE ISZERO DUP1 ISZERO PUSH2 0x2608 JUMPI PUSH1 0x0 DUP1 REVERT JUMPDEST POP GAS STATICCALL ISZERO DUP1 ISZERO PUSH2 0x261C JUMPI RETURNDATASIZE PUSH1 0x0 DUP1 RETURNDATACOPY RETURNDATASIZE PUSH1 0x0 REVERT JUMPDEST POP POP POP POP PUSH1 0x40 MLOAD RETURNDATASIZE PUSH1 0x20 DUP2 LT ISZERO PUSH2 0x2632 JUMPI PUSH1 0x0 DUP1 REVERT JUMPDEST POP MLOAD SWAP3 POP POP POP SWAP1 JUMP JUMPDEST PUSH11 0xC097CE7BC90715B34B9F1 PUSH1 0x24 SHL DUP2 JUMP JUMPDEST PUSH1 0xD PUSH1 0x20 MSTORE PUSH1 0x0 SWAP1 DUP2 MSTORE PUSH1 0x40 SWAP1 KECCAK256 SLOAD PUSH1 0x1 PUSH1 0x1 PUSH1 0xE0 SHL SUB DUP2 AND SWAP1 PUSH1 0x1 PUSH1 0xE0 SHL SWAP1 DIV PUSH4 0xFFFFFFFF AND DUP3 JUMP JUMPDEST PUSH1 0x4 SLOAD PUSH1 0x1 PUSH1 0x1 PUSH1 0xA0 SHL SUB AND DUP2 JUMP JUMPDEST PUSH1 0x0 DUP2 DUP5 DUP5 GT ISZERO PUSH2 0x2715 JUMPI PUSH1 0x40 MLOAD PUSH3 0x461BCD PUSH1 0xE5 SHL DUP2 MSTORE PUSH1 0x4 ADD DUP1 DUP1 PUSH1 0x20 ADD DUP3 DUP2 SUB DUP3 MSTORE DUP4 DUP2 DUP2 MLOAD DUP2 MSTORE PUSH1 0x20 ADD SWAP2 POP DUP1 MLOAD SWAP1 PUSH1 0x20 ADD SWAP1 DUP1 DUP4 DUP4 PUSH1 0x0 JUMPDEST DUP4 DUP2 LT ISZERO PUSH2 0x26DA JUMPI DUP2 DUP2 ADD MLOAD DUP4 DUP3 ADD MSTORE PUSH1 0x20 ADD PUSH2 0x26C2 JUMP JUMPDEST POP POP POP POP SWAP1 POP SWAP1 DUP2 ADD SWAP1 PUSH1 0x1F AND DUP1 ISZERO PUSH2 0x2707 JUMPI DUP1 DUP3 SUB DUP1 MLOAD PUSH1 0x1 DUP4 PUSH1 0x20 SUB PUSH2 0x100 EXP SUB NOT AND DUP2 MSTORE PUSH1 0x20 ADD SWAP2 POP JUMPDEST POP SWAP3 POP POP POP PUSH1 0x40 MLOAD DUP1 SWAP2 SUB SWAP1 REVERT JUMPDEST POP POP DUP2 DUP4 SUB JUMPDEST SWAP4 SWAP3 POP POP POP JUMP JUMPDEST PUSH1 0x0 PUSH2 0x271B DUP4 DUP4 PUSH1 0x40 MLOAD DUP1 PUSH1 0x40 ADD PUSH1 0x40 MSTORE DUP1 PUSH1 0x17 DUP2 MSTORE PUSH1 0x20 ADD PUSH32 0x6D756C7469706C69636174696F6E206F766572666C6F77000000000000000000 DUP2 MSTORE POP PUSH2 0x35C2 JUMP JUMPDEST PUSH2 0x276C PUSH2 0x3994 JUMP JUMPDEST PUSH1 0x40 MLOAD DUP1 PUSH1 0x20 ADD PUSH1 0x40 MSTORE DUP1 PUSH2 0x2798 PUSH2 0x2792 DUP7 PUSH11 0xC097CE7BC90715B34B9F1 PUSH1 0x24 SHL PUSH2 0x2722 JUMP JUMPDEST DUP6 PUSH2 0x3641 JUMP JUMPDEST SWAP1 MSTORE SWAP4 SWAP3 POP POP POP JUMP JUMPDEST PUSH2 0x27A9 PUSH2 0x3994 JUMP JUMPDEST PUSH1 0x40 MLOAD DUP1 PUSH1 0x20 ADD PUSH1 0x40 MSTORE DUP1 PUSH2 0x2798 DUP6 PUSH1 0x0 ADD MLOAD DUP6 PUSH1 0x0 ADD MLOAD PUSH2 0x29CB JUMP JUMPDEST PUSH1 0x0 DUP2 PUSH1 0x1 PUSH1 0xE0 SHL DUP5 LT PUSH2 0x281B JUMPI PUSH1 0x40 MLOAD PUSH3 0x461BCD PUSH1 0xE5 SHL DUP2 MSTORE PUSH1 0x20 PUSH1 0x4 DUP3 ADD DUP2 DUP2 MSTORE DUP4 MLOAD PUSH1 0x24 DUP5 ADD MSTORE DUP4 MLOAD SWAP1 SWAP3 DUP4 SWAP3 PUSH1 0x44 SWAP1 SWAP2 ADD SWAP2 SWAP1 DUP6 ADD SWAP1 DUP1 DUP4 DUP4 PUSH1 0x0 DUP4 ISZERO PUSH2 0x26DA JUMPI DUP2 DUP2 ADD MLOAD DUP4 DUP3 ADD MSTORE PUSH1 0x20 ADD PUSH2 0x26C2 JUMP JUMPDEST POP SWAP2 SWAP3 SWAP2 POP POP JUMP JUMPDEST PUSH1 0x0 DUP2 PUSH5 0x100000000 DUP5 LT PUSH2 0x281B JUMPI PUSH1 0x40 MLOAD PUSH3 0x461BCD PUSH1 0xE5 SHL DUP2 MSTORE PUSH1 0x20 PUSH1 0x4 DUP3 ADD DUP2 DUP2 MSTORE DUP4 MLOAD PUSH1 0x24 DUP5 ADD MSTORE DUP4 MLOAD SWAP1 SWAP3 DUP4 SWAP3 PUSH1 0x44 SWAP1 SWAP2 ADD SWAP2 SWAP1 DUP6 ADD SWAP1 DUP1 DUP4 DUP4 PUSH1 0x0 DUP4 ISZERO PUSH2 0x26DA JUMPI DUP2 DUP2 ADD MLOAD DUP4 DUP3 ADD MSTORE PUSH1 0x20 ADD PUSH2 0x26C2 JUMP JUMPDEST PUSH1 0x0 DUP1 JUMPDEST PUSH1 0x5 SLOAD DUP2 LT ISZERO PUSH2 0x28CA JUMPI DUP3 PUSH1 0x1 PUSH1 0x1 PUSH1 0xA0 SHL SUB AND PUSH1 0x5 DUP3 DUP2 SLOAD DUP2 LT PUSH2 0x289E JUMPI INVALID JUMPDEST PUSH1 0x0 SWAP2 DUP3 MSTORE PUSH1 0x20 SWAP1 SWAP2 KECCAK256 ADD SLOAD PUSH1 0x1 PUSH1 0x1 PUSH1 0xA0 SHL SUB AND EQ ISZERO PUSH2 0x28C2 JUMPI PUSH1 0x1 SWAP2 POP PUSH2 0x28CA JUMP JUMPDEST PUSH1 0x1 ADD PUSH2 0x287D JUMP JUMPDEST POP DUP1 PUSH2 0x291C JUMPI PUSH1 0x5 DUP1 SLOAD PUSH1 0x1 DUP2 ADD DUP3 SSTORE PUSH1 0x0 SWAP2 SWAP1 SWAP2 MSTORE PUSH32 0x36B6384B5ECA791C62761152D0C79BB0604C104A5FB6F4EB0703F3154BB3DB0 ADD DUP1 SLOAD PUSH1 0x1 PUSH1 0x1 PUSH1 0xA0 SHL SUB NOT AND PUSH1 0x1 PUSH1 0x1 PUSH1 0xA0 SHL SUB DUP5 AND OR SWAP1 SSTORE JUMPDEST POP POP JUMP JUMPDEST PUSH1 0x0 PUSH2 0x271B DUP4 DUP4 PUSH1 0x40 MLOAD DUP1 PUSH1 0x40 ADD PUSH1 0x40 MSTORE DUP1 PUSH1 0x15 DUP2 MSTORE PUSH1 0x20 ADD PUSH21 0x7375627472616374696F6E20756E646572666C6F77 PUSH1 0x58 SHL DUP2 MSTORE POP PUSH2 0x2686 JUMP JUMPDEST PUSH1 0x0 PUSH2 0x271B PUSH2 0x2971 DUP5 PUSH8 0xDE0B6B3A7640000 PUSH2 0x2722 JUMP JUMPDEST DUP4 MLOAD PUSH2 0x3641 JUMP JUMPDEST PUSH2 0x2980 PUSH2 0x3994 JUMP JUMPDEST PUSH1 0x40 MLOAD DUP1 PUSH1 0x20 ADD PUSH1 0x40 MSTORE DUP1 PUSH2 0x2798 DUP6 PUSH1 0x0 ADD MLOAD DUP6 PUSH1 0x0 ADD MLOAD PUSH2 0x2920 JUMP JUMPDEST PUSH1 0x0 PUSH11 0xC097CE7BC90715B34B9F1 PUSH1 0x24 SHL PUSH2 0x29BC DUP5 DUP5 PUSH1 0x0 ADD MLOAD PUSH2 0x2722 JUMP JUMPDEST DUP2 PUSH2 0x29C3 JUMPI INVALID JUMPDEST DIV SWAP4 SWAP3 POP POP POP JUMP JUMPDEST PUSH1 0x0 PUSH2 0x271B DUP4 DUP4 PUSH1 0x40 MLOAD DUP1 PUSH1 0x40 ADD PUSH1 0x40 MSTORE DUP1 PUSH1 0x11 DUP2 MSTORE PUSH1 0x20 ADD PUSH17 0x6164646974696F6E206F766572666C6F77 PUSH1 0x78 SHL DUP2 MSTORE POP PUSH2 0x3674 JUMP JUMPDEST PUSH1 0x0 DUP2 DUP4 LT ISZERO DUP1 ISZERO PUSH2 0x2A13 JUMPI POP PUSH1 0x0 DUP4 GT JUMPDEST ISZERO PUSH2 0x2B7B JUMPI PUSH1 0x3 SLOAD PUSH1 0x40 DUP1 MLOAD PUSH4 0x70A08231 PUSH1 0xE0 SHL DUP2 MSTORE ADDRESS PUSH1 0x4 DUP3 ADD MSTORE SWAP1 MLOAD PUSH1 0x1 PUSH1 0x1 PUSH1 0xA0 SHL SUB SWAP1 SWAP3 AND SWAP2 PUSH1 0x0 SWAP2 DUP4 SWAP2 PUSH4 0x70A08231 SWAP2 PUSH1 0x24 DUP1 DUP3 ADD SWAP3 PUSH1 0x20 SWAP3 SWAP1 SWAP2 SWAP1 DUP3 SWAP1 SUB ADD DUP2 DUP7 DUP1 EXTCODESIZE ISZERO DUP1 ISZERO PUSH2 0x2A68 JUMPI PUSH1 0x0 DUP1 REVERT JUMPDEST POP GAS STATICCALL ISZERO DUP1 ISZERO PUSH2 0x2A7C JUMPI RETURNDATASIZE PUSH1 0x0 DUP1 RETURNDATACOPY RETURNDATASIZE PUSH1 0x0 REVERT JUMPDEST POP POP POP POP PUSH1 0x40 MLOAD RETURNDATASIZE PUSH1 0x20 DUP2 LT ISZERO PUSH2 0x2A92 JUMPI PUSH1 0x0 DUP1 REVERT JUMPDEST POP MLOAD SWAP1 POP DUP1 DUP6 GT PUSH2 0x2B78 JUMPI DUP2 PUSH1 0x1 PUSH1 0x1 PUSH1 0xA0 SHL SUB AND PUSH4 0xA9059CBB DUP8 DUP8 PUSH1 0x40 MLOAD DUP4 PUSH4 0xFFFFFFFF AND PUSH1 0xE0 SHL DUP2 MSTORE PUSH1 0x4 ADD DUP1 DUP4 PUSH1 0x1 PUSH1 0x1 PUSH1 0xA0 SHL SUB AND PUSH1 0x1 PUSH1 0x1 PUSH1 0xA0 SHL SUB AND DUP2 MSTORE PUSH1 0x20 ADD DUP3 DUP2 MSTORE PUSH1 0x20 ADD SWAP3 POP POP POP PUSH1 0x20 PUSH1 0x40 MLOAD DUP1 DUP4 SUB DUP2 PUSH1 0x0 DUP8 DUP1 EXTCODESIZE ISZERO DUP1 ISZERO PUSH2 0x2AFD JUMPI PUSH1 0x0 DUP1 REVERT JUMPDEST POP GAS CALL ISZERO DUP1 ISZERO PUSH2 0x2B11 JUMPI RETURNDATASIZE PUSH1 0x0 DUP1 RETURNDATACOPY RETURNDATASIZE PUSH1 0x0 REVERT JUMPDEST POP POP POP POP PUSH1 0x40 MLOAD RETURNDATASIZE PUSH1 0x20 DUP2 LT ISZERO PUSH2 0x2B27 JUMPI PUSH1 0x0 DUP1 REVERT JUMPDEST POP POP PUSH1 0x40 DUP1 MLOAD PUSH1 0x1 PUSH1 0x1 PUSH1 0xA0 SHL SUB DUP9 AND DUP2 MSTORE PUSH1 0x20 DUP2 ADD DUP8 SWAP1 MSTORE DUP2 MLOAD PUSH32 0x3799B2F9B49A826C349848BD1305EF315F3B5391CC97432E0A0A84A04981BCD5 SWAP3 SWAP2 DUP2 SWAP1 SUB SWAP1 SWAP2 ADD SWAP1 LOG1 PUSH1 0x0 SWAP3 POP POP POP PUSH2 0x271B JUMP JUMPDEST POP POP JUMPDEST POP SWAP1 SWAP3 SWAP2 POP POP JUMP JUMPDEST PUSH1 0x60 PUSH1 0x5 DUP1 SLOAD DUP1 PUSH1 0x20 MUL PUSH1 0x20 ADD PUSH1 0x40 MLOAD SWAP1 DUP2 ADD PUSH1 0x40 MSTORE DUP1 SWAP3 SWAP2 SWAP1 DUP2 DUP2 MSTORE PUSH1 0x20 ADD DUP3 DUP1 SLOAD DUP1 ISZERO PUSH2 0x2BDB JUMPI PUSH1 0x20 MUL DUP3 ADD SWAP2 SWAP1 PUSH1 0x0 MSTORE PUSH1 0x20 PUSH1 0x0 KECCAK256 SWAP1 JUMPDEST DUP2 SLOAD PUSH1 0x1 PUSH1 0x1 PUSH1 0xA0 SHL SUB AND DUP2 MSTORE PUSH1 0x1 SWAP1 SWAP2 ADD SWAP1 PUSH1 0x20 ADD DUP1 DUP4 GT PUSH2 0x2BBD JUMPI JUMPDEST POP SWAP4 SWAP5 POP PUSH1 0x0 SWAP4 POP POP POP POP JUMPDEST DUP2 MLOAD DUP2 LT ISZERO PUSH2 0x2C23 JUMPI PUSH1 0x0 DUP3 DUP3 DUP2 MLOAD DUP2 LT PUSH2 0x2BFE JUMPI INVALID JUMPDEST PUSH1 0x20 MUL PUSH1 0x20 ADD ADD MLOAD SWAP1 POP PUSH2 0x2C11 DUP2 PUSH2 0x9B9 JUMP JUMPDEST PUSH2 0x2C1A DUP2 PUSH2 0x159D JUMP JUMPDEST POP PUSH1 0x1 ADD PUSH2 0x2BE7 JUMP JUMPDEST POP PUSH1 0x9 SLOAD PUSH1 0x1 PUSH1 0x1 PUSH1 0xE0 SHL SUB AND PUSH1 0x17 DUP2 EQ ISZERO PUSH2 0x2C4E JUMPI PUSH1 0x9 DUP1 SLOAD PUSH1 0x1 PUSH1 0x1 PUSH1 0xE0 SHL SUB NOT AND SWAP1 SSTORE PUSH2 0x2CC2 JUMP JUMPDEST PUSH1 0x9 SLOAD PUSH1 0x40 DUP1 MLOAD DUP1 DUP3 ADD SWAP1 SWAP2 MSTORE PUSH1 0x1A DUP2 MSTORE PUSH32 0x637572436C6F636B203A204164646974696F6E204661696C6564000000000000 PUSH1 0x20 DUP3 ADD MSTORE PUSH1 0x0 SWAP2 PUSH2 0x2CA0 SWAP2 PUSH1 0x1 PUSH1 0x1 PUSH1 0xE0 SHL SUB SWAP1 SWAP2 AND SWAP1 PUSH1 0x1 SWAP1 PUSH2 0x3674 JUMP JUMPDEST PUSH1 0x9 DUP1 SLOAD PUSH1 0x1 PUSH1 0x1 PUSH1 0xE0 SHL SUB NOT AND PUSH1 0x1 PUSH1 0x1 PUSH1 0xE0 SHL SUB SWAP3 SWAP1 SWAP3 AND SWAP2 SWAP1 SWAP2 OR SWAP1 SSTORE POP JUMPDEST PUSH1 0x9 SLOAD PUSH1 0x40 DUP1 MLOAD PUSH1 0x1 PUSH1 0x1 PUSH1 0xE0 SHL SUB DUP1 DUP6 AND DUP3 MSTORE SWAP1 SWAP3 AND PUSH1 0x20 DUP4 ADD MSTORE TIMESTAMP DUP3 DUP3 ADD MSTORE MLOAD PUSH32 0x4568CEA75AC2A1113DE7CE3671FCE6D3D054B492BF2C3CF3D1F40C0DABB089F2 SWAP2 DUP2 SWAP1 SUB PUSH1 0x60 ADD SWAP1 LOG1 PUSH2 0x2D16 PUSH2 0x3994 JUMP JUMPDEST PUSH1 0x40 MLOAD DUP1 PUSH1 0x20 ADD PUSH1 0x40 MSTORE DUP1 PUSH1 0x0 DUP2 MSTORE POP SWAP1 POP PUSH1 0x60 DUP4 MLOAD PUSH1 0x40 MLOAD SWAP1 DUP1 DUP3 MSTORE DUP1 PUSH1 0x20 MUL PUSH1 0x20 ADD DUP3 ADD PUSH1 0x40 MSTORE DUP1 ISZERO PUSH2 0x2D65 JUMPI DUP2 PUSH1 0x20 ADD JUMPDEST PUSH2 0x2D52 PUSH2 0x3994 JUMP JUMPDEST DUP2 MSTORE PUSH1 0x20 ADD SWAP1 PUSH1 0x1 SWAP1 SUB SWAP1 DUP2 PUSH2 0x2D4A JUMPI SWAP1 POP JUMPDEST POP SWAP1 POP PUSH1 0x0 JUMPDEST DUP5 MLOAD DUP2 LT ISZERO PUSH2 0x332F JUMPI PUSH1 0x0 DUP6 DUP3 DUP2 MLOAD DUP2 LT PUSH2 0x2D82 JUMPI INVALID JUMPDEST PUSH1 0x20 MUL PUSH1 0x20 ADD ADD MLOAD SWAP1 POP PUSH2 0x2D94 PUSH2 0x3994 JUMP JUMPDEST PUSH1 0x40 DUP1 MLOAD PUSH1 0x20 DUP1 DUP3 ADD DUP4 MSTORE PUSH1 0x1 PUSH1 0x1 PUSH1 0xA0 SHL SUB DUP6 AND PUSH1 0x0 SWAP1 DUP2 MSTORE PUSH1 0xF SWAP1 SWAP2 MSTORE SWAP2 SWAP1 SWAP2 KECCAK256 PUSH1 0x9 SLOAD DUP3 SWAP2 SWAP1 PUSH1 0x1 PUSH1 0x1 PUSH1 0xE0 SHL SUB AND PUSH1 0x18 DUP2 LT PUSH2 0x2DD0 JUMPI INVALID JUMPDEST ADD SLOAD PUSH1 0x1 PUSH1 0x1 PUSH1 0xE0 SHL SUB AND SWAP1 MSTORE SWAP1 POP PUSH2 0x2DE7 PUSH2 0x3994 JUMP JUMPDEST PUSH1 0x40 DUP1 MLOAD PUSH1 0x20 DUP1 DUP3 ADD DUP1 DUP5 MSTORE PUSH1 0x2 SLOAD PUSH4 0x36F8C87D PUSH1 0xE2 SHL SWAP1 SWAP2 MSTORE PUSH1 0x1 PUSH1 0x1 PUSH1 0xA0 SHL SUB DUP8 DUP2 AND PUSH1 0x24 DUP6 ADD MSTORE SWAP4 MLOAD SWAP3 SWAP4 DUP5 SWAP4 SWAP2 AND SWAP2 PUSH4 0xDBE321F4 SWAP2 PUSH1 0x44 DUP1 DUP7 ADD SWAP3 SWAP2 SWAP1 DUP2 DUP8 SUB ADD DUP2 PUSH1 0x0 DUP8 DUP1 EXTCODESIZE ISZERO DUP1 ISZERO PUSH2 0x2E3E JUMPI PUSH1 0x0 DUP1 REVERT JUMPDEST POP GAS CALL ISZERO DUP1 ISZERO PUSH2 0x2E52 JUMPI RETURNDATASIZE PUSH1 0x0 DUP1 RETURNDATACOPY RETURNDATASIZE PUSH1 0x0 REVERT JUMPDEST POP POP POP POP PUSH1 0x40 MLOAD RETURNDATASIZE PUSH1 0x20 DUP2 LT ISZERO PUSH2 0x2E68 JUMPI PUSH1 0x0 DUP1 REVERT JUMPDEST POP MLOAD SWAP1 MSTORE PUSH1 0x40 DUP1 MLOAD PUSH4 0x18160DDD PUSH1 0xE0 SHL DUP2 MSTORE SWAP1 MLOAD SWAP2 SWAP3 POP PUSH1 0x0 SWAP2 PUSH1 0x1 PUSH1 0x1 PUSH1 0xA0 SHL SUB DUP7 AND SWAP2 PUSH4 0x18160DDD SWAP2 PUSH1 0x4 DUP1 DUP4 ADD SWAP3 PUSH1 0x20 SWAP3 SWAP2 SWAP1 DUP3 SWAP1 SUB ADD DUP2 DUP7 DUP1 EXTCODESIZE ISZERO DUP1 ISZERO PUSH2 0x2EB2 JUMPI PUSH1 0x0 DUP1 REVERT JUMPDEST POP GAS STATICCALL ISZERO DUP1 ISZERO PUSH2 0x2EC6 JUMPI RETURNDATASIZE PUSH1 0x0 DUP1 RETURNDATACOPY RETURNDATASIZE PUSH1 0x0 REVERT JUMPDEST POP POP POP POP PUSH1 0x40 MLOAD RETURNDATASIZE PUSH1 0x20 DUP2 LT ISZERO PUSH2 0x2EDC JUMPI PUSH1 0x0 DUP1 REVERT JUMPDEST POP MLOAD DUP3 MLOAD SWAP1 SWAP2 POP PUSH2 0x2F1E JUMPI PUSH1 0x40 MLOAD PUSH3 0x461BCD PUSH1 0xE5 SHL DUP2 MSTORE PUSH1 0x4 ADD DUP1 DUP1 PUSH1 0x20 ADD DUP3 DUP2 SUB DUP3 MSTORE PUSH1 0x39 DUP2 MSTORE PUSH1 0x20 ADD DUP1 PUSH2 0x3B04 PUSH1 0x39 SWAP2 CODECOPY PUSH1 0x40 ADD SWAP2 POP POP PUSH1 0x40 MLOAD DUP1 SWAP2 SUB SWAP1 REVERT JUMPDEST PUSH1 0x1 PUSH1 0x1 PUSH1 0xA0 SHL SUB DUP5 AND PUSH1 0x0 SWAP1 DUP2 MSTORE PUSH1 0x6 PUSH1 0x20 MSTORE PUSH1 0x40 SWAP1 KECCAK256 SLOAD PUSH1 0xFF AND DUP1 ISZERO PUSH2 0x2F67 JUMPI POP PUSH1 0x1 PUSH1 0x1 PUSH1 0xA0 SHL SUB DUP5 AND PUSH1 0x0 SWAP1 DUP2 MSTORE PUSH1 0xF PUSH1 0x20 MSTORE PUSH1 0x40 SWAP1 KECCAK256 PUSH1 0x18 SWAP1 DUP2 ADD SLOAD PUSH4 0xFFFFFFFF AND EQ JUMPDEST DUP1 ISZERO PUSH2 0x2F78 JUMPI POP PUSH2 0x2F78 DUP4 DUP4 PUSH2 0x36C9 JUMP JUMPDEST ISZERO PUSH2 0x2FC1 JUMPI PUSH1 0x0 PUSH2 0x2F87 PUSH2 0x3994 JUMP JUMPDEST PUSH2 0x2F91 DUP6 DUP6 PUSH2 0x36D0 JUMP JUMPDEST SWAP2 POP SWAP2 POP PUSH2 0x2F9F DUP2 DUP5 PUSH2 0x370C JUMP JUMPDEST DUP10 MLOAD DUP11 SWAP1 DUP11 SWAP1 DUP2 LT PUSH2 0x2FAD JUMPI INVALID JUMPDEST PUSH1 0x20 SWAP1 DUP2 MUL SWAP2 SWAP1 SWAP2 ADD ADD MSTORE POP PUSH2 0x2FE9 SWAP2 POP POP JUMP JUMPDEST PUSH1 0x40 MLOAD DUP1 PUSH1 0x20 ADD PUSH1 0x40 MSTORE DUP1 PUSH1 0x0 DUP2 MSTORE POP DUP7 DUP7 DUP2 MLOAD DUP2 LT PUSH2 0x2FDD JUMPI INVALID JUMPDEST PUSH1 0x20 MUL PUSH1 0x20 ADD ADD DUP2 SWAP1 MSTORE POP JUMPDEST PUSH2 0x2FF1 PUSH2 0x3994 JUMP JUMPDEST PUSH1 0x40 MLOAD DUP1 PUSH1 0x20 ADD PUSH1 0x40 MSTORE DUP1 DUP10 PUSH1 0x0 ADD MLOAD DUP2 MSTORE POP SWAP1 POP PUSH1 0x0 PUSH2 0x3025 DUP3 DUP10 DUP10 DUP2 MLOAD DUP2 LT PUSH2 0x3018 JUMPI INVALID JUMPDEST PUSH1 0x20 MUL PUSH1 0x20 ADD ADD MLOAD PUSH2 0x3774 JUMP JUMPDEST DUP1 SWAP11 POP DUP2 SWAP3 POP POP POP PUSH1 0x0 DUP9 DUP9 DUP2 MLOAD DUP2 LT PUSH2 0x303B JUMPI INVALID JUMPDEST PUSH1 0x20 SWAP1 DUP2 MUL SWAP2 SWAP1 SWAP2 ADD DUP2 ADD MLOAD MLOAD DUP8 MLOAD DUP8 MLOAD DUP14 MLOAD PUSH1 0x40 DUP1 MLOAD PUSH1 0x1 PUSH1 0x1 PUSH1 0xA0 SHL SUB DUP15 AND DUP2 MSTORE SWAP6 DUP7 ADD SWAP4 SWAP1 SWAP4 MSTORE DUP5 DUP4 ADD SWAP2 SWAP1 SWAP2 MSTORE PUSH1 0x60 DUP5 ADD DUP4 SWAP1 MSTORE PUSH1 0x80 DUP5 ADD DUP9 SWAP1 MSTORE PUSH1 0xA0 DUP5 ADD MSTORE MLOAD SWAP1 SWAP3 POP PUSH32 0x592E814DCEB24EB0BE9A5D9C4D7EFD6DE997CEDF5A56D608C43CB0A449815BF5 SWAP2 DUP2 SWAP1 SUB PUSH1 0xC0 ADD SWAP1 LOG1 PUSH1 0x0 PUSH2 0x30DE DUP7 PUSH1 0x0 ADD MLOAD PUSH1 0x1 PUSH1 0x1 PUSH1 0xE0 SHL SUB AND PUSH1 0x40 MLOAD DUP1 PUSH1 0x60 ADD PUSH1 0x40 MSTORE DUP1 PUSH1 0x38 DUP2 MSTORE PUSH1 0x20 ADD PUSH2 0x3B68 PUSH1 0x38 SWAP2 CODECOPY PUSH2 0x27C6 JUMP JUMPDEST PUSH1 0x1 PUSH1 0x1 PUSH1 0xA0 SHL SUB DUP10 AND PUSH1 0x0 SWAP1 DUP2 MSTORE PUSH1 0xF PUSH1 0x20 MSTORE PUSH1 0x40 SWAP1 KECCAK256 PUSH1 0x9 SLOAD PUSH1 0x1 PUSH1 0x1 PUSH1 0xE0 SHL SUB AND PUSH1 0x18 DUP2 LT PUSH2 0x310C JUMPI INVALID JUMPDEST ADD DUP1 SLOAD PUSH1 0x1 PUSH1 0x1 PUSH1 0xE0 SHL SUB NOT AND PUSH1 0x1 PUSH1 0x1 PUSH1 0xE0 SHL SUB SWAP3 SWAP1 SWAP3 AND SWAP2 SWAP1 SWAP2 OR SWAP1 SSTORE PUSH1 0x1 PUSH1 0x1 PUSH1 0xA0 SHL SUB DUP9 AND PUSH1 0x0 SWAP1 DUP2 MSTORE PUSH1 0xF PUSH1 0x20 MSTORE PUSH1 0x40 SWAP1 KECCAK256 PUSH1 0x18 SWAP1 DUP2 ADD SLOAD PUSH4 0xFFFFFFFF AND LT ISZERO PUSH2 0x31F3 JUMPI POP PUSH1 0x1 PUSH1 0x1 PUSH1 0xA0 SHL SUB DUP8 AND PUSH1 0x0 SWAP1 DUP2 MSTORE PUSH1 0xF PUSH1 0x20 SWAP1 DUP2 MSTORE PUSH1 0x40 SWAP2 DUP3 SWAP1 KECCAK256 PUSH1 0x18 ADD SLOAD DUP3 MLOAD DUP1 DUP5 ADD SWAP1 SWAP4 MSTORE PUSH1 0x1E DUP4 MSTORE PUSH32 0x507269636520436F756E746572206164646974696F6E206661696C65642E0000 SWAP2 DUP4 ADD SWAP2 SWAP1 SWAP2 MSTORE PUSH4 0xFFFFFFFF AND SWAP1 PUSH2 0x31BF SWAP1 DUP3 SWAP1 PUSH1 0x1 SWAP1 PUSH2 0x3674 JUMP JUMPDEST PUSH1 0x1 PUSH1 0x1 PUSH1 0xA0 SHL SUB DUP10 AND PUSH1 0x0 SWAP1 DUP2 MSTORE PUSH1 0xF PUSH1 0x20 MSTORE PUSH1 0x40 SWAP1 KECCAK256 PUSH1 0x18 ADD DUP1 SLOAD PUSH4 0xFFFFFFFF NOT AND PUSH4 0xFFFFFFFF SWAP3 SWAP1 SWAP3 AND SWAP2 SWAP1 SWAP2 OR SWAP1 SSTORE JUMPDEST PUSH1 0x0 PUSH2 0x31FD PUSH2 0x943 JUMP JUMPDEST DUP9 MLOAD DUP9 MLOAD PUSH1 0x40 DUP1 MLOAD PUSH1 0x1 PUSH1 0x1 PUSH1 0xA0 SHL SUB DUP15 AND DUP2 MSTORE PUSH1 0x20 DUP2 ADD SWAP4 SWAP1 SWAP4 MSTORE DUP3 DUP2 ADD SWAP2 SWAP1 SWAP2 MSTORE PUSH4 0xFFFFFFFF DUP6 DUP2 AND PUSH1 0x60 DUP5 ADD MSTORE SWAP3 SWAP1 SWAP3 AND PUSH1 0x80 DUP3 ADD DUP2 SWAP1 MSTORE SWAP2 MLOAD SWAP2 SWAP3 POP PUSH32 0xBFC7A5A85FE33928C2629CB8B5FEC33A86B495CD335AE673D35B976C0A64BC1 SWAP2 SWAP1 DUP2 SWAP1 SUB PUSH1 0xA0 ADD SWAP1 LOG1 DUP8 MLOAD PUSH1 0x1 PUSH1 0x1 PUSH1 0xA0 SHL SUB DUP11 AND PUSH1 0x0 SWAP1 DUP2 MSTORE PUSH1 0xF PUSH1 0x20 MSTORE PUSH1 0x40 SWAP1 KECCAK256 PUSH1 0x9 SLOAD PUSH32 0xDA6962A3940563173FA762CEFFDB13FB05A3DC5D268CACD2AEE059FFBF5BB6E0 SWAP3 DUP13 SWAP3 SWAP1 SWAP2 PUSH1 0x1 PUSH1 0x1 PUSH1 0xE0 SHL SUB AND PUSH1 0x18 DUP2 LT PUSH2 0x32BE JUMPI INVALID JUMPDEST ADD SLOAD PUSH1 0x1 PUSH1 0x1 PUSH1 0xA0 SHL SUB DUP1 DUP15 AND PUSH1 0x0 SWAP1 DUP2 MSTORE PUSH1 0xF PUSH1 0x20 SWAP1 DUP2 MSTORE PUSH1 0x40 SWAP2 DUP3 SWAP1 KECCAK256 PUSH1 0x18 ADD SLOAD DUP3 MLOAD SWAP7 SWAP1 SWAP4 AND DUP7 MSTORE DUP6 ADD SWAP4 SWAP1 SWAP4 MSTORE PUSH1 0x1 PUSH1 0x1 PUSH1 0xE0 SHL SUB SWAP1 SWAP2 AND DUP4 DUP4 ADD MSTORE PUSH4 0xFFFFFFFF AND PUSH1 0x60 DUP4 ADD MSTORE PUSH1 0x80 DUP3 ADD DUP5 SWAP1 MSTORE MLOAD SWAP1 DUP2 SWAP1 SUB PUSH1 0xA0 ADD SWAP1 LOG1 POP POP PUSH1 0x1 SWAP1 SWAP8 ADD SWAP7 POP PUSH2 0x2D6B SWAP6 POP POP POP POP POP POP JUMP JUMPDEST POP PUSH1 0x0 JUMPDEST DUP5 MLOAD DUP2 LT ISZERO PUSH2 0x35BB JUMPI PUSH1 0x0 PUSH1 0x5 DUP3 DUP2 SLOAD DUP2 LT PUSH2 0x334B JUMPI INVALID JUMPDEST PUSH1 0x0 SWAP2 DUP3 MSTORE PUSH1 0x20 DUP1 DUP4 KECCAK256 SWAP1 SWAP2 ADD SLOAD PUSH1 0x1 PUSH1 0x1 PUSH1 0xA0 SHL SUB AND DUP1 DUP4 MSTORE PUSH1 0xB DUP3 MSTORE PUSH1 0x40 DUP1 DUP5 KECCAK256 SLOAD PUSH1 0xC SWAP1 SWAP4 MSTORE SWAP1 SWAP3 KECCAK256 SLOAD SWAP2 SWAP3 POP SWAP1 PUSH2 0x3384 PUSH2 0x3994 JUMP JUMPDEST DUP7 MLOAD ISZERO PUSH2 0x33B4 JUMPI PUSH1 0x0 PUSH2 0x33AA DUP8 DUP8 DUP2 MLOAD DUP2 LT PUSH2 0x339C JUMPI INVALID JUMPDEST PUSH1 0x20 MUL PUSH1 0x20 ADD ADD MLOAD DUP10 PUSH2 0x3793 JUMP JUMPDEST SWAP3 POP PUSH2 0x33C5 SWAP2 POP POP JUMP JUMPDEST POP PUSH1 0x40 DUP1 MLOAD PUSH1 0x20 DUP2 ADD SWAP1 SWAP2 MSTORE PUSH1 0x0 DUP2 MSTORE JUMPDEST DUP7 MLOAD PUSH1 0x0 SWAP1 PUSH2 0x33D5 JUMPI PUSH1 0x0 PUSH2 0x33E1 JUMP JUMPDEST PUSH2 0x33E1 PUSH1 0x7 SLOAD DUP4 PUSH2 0x37B6 JUMP JUMPDEST SWAP1 POP PUSH2 0x33EB PUSH2 0x3994 JUMP JUMPDEST POP PUSH1 0x40 DUP1 MLOAD PUSH1 0x20 DUP1 DUP3 ADD DUP4 MSTORE PUSH1 0x1 PUSH1 0x1 PUSH1 0xA0 SHL SUB DUP9 AND PUSH1 0x0 SWAP1 DUP2 MSTORE PUSH1 0xA SWAP1 SWAP2 MSTORE SWAP2 DUP3 KECCAK256 SLOAD DUP2 MSTORE SWAP1 PUSH2 0x341C DUP4 DUP4 PUSH2 0x37B6 JUMP JUMPDEST SWAP1 POP PUSH1 0x0 PUSH2 0x3460 DUP5 DUP4 PUSH1 0x40 MLOAD DUP1 PUSH1 0x40 ADD PUSH1 0x40 MSTORE DUP1 PUSH1 0x1D DUP2 MSTORE PUSH1 0x20 ADD PUSH32 0x426F72726F776572204E65772053706565643A20556E646572666C6F77000000 DUP2 MSTORE POP PUSH2 0x2686 JUMP JUMPDEST PUSH1 0x1 PUSH1 0x1 PUSH1 0xA0 SHL SUB DUP10 AND PUSH1 0x0 SWAP1 DUP2 MSTORE PUSH1 0xB PUSH1 0x20 SWAP1 DUP2 MSTORE PUSH1 0x40 DUP1 DUP4 KECCAK256 DUP7 SWAP1 SSTORE PUSH1 0xC SWAP1 SWAP2 MSTORE SWAP1 KECCAK256 DUP2 SWAP1 SSTORE DUP11 MLOAD SWAP1 SWAP2 POP PUSH32 0xDE1DED2F4B125D7017F2E817A78F8E83F130C716A00E97C860AA96C1230A98DC SWAP1 DUP10 SWAP1 DUP13 SWAP1 DUP13 SWAP1 DUP2 LT PUSH2 0x34BD JUMPI INVALID JUMPDEST PUSH1 0x20 SWAP1 DUP2 MUL SWAP2 SWAP1 SWAP2 ADD DUP2 ADD MLOAD MLOAD DUP15 MLOAD PUSH1 0x40 DUP1 MLOAD PUSH1 0x1 PUSH1 0x1 PUSH1 0xA0 SHL SUB SWAP1 SWAP6 AND DUP6 MSTORE SWAP3 DUP5 ADD SWAP2 SWAP1 SWAP2 MSTORE DUP3 DUP3 ADD MSTORE PUSH1 0x60 DUP3 ADD DUP8 SWAP1 MSTORE MLOAD SWAP1 DUP2 SWAP1 SUB PUSH1 0x80 ADD SWAP1 LOG1 PUSH1 0x1 PUSH1 0x1 PUSH1 0xA0 SHL SUB DUP9 AND PUSH1 0x0 DUP2 DUP2 MSTORE PUSH1 0xB PUSH1 0x20 SWAP1 DUP2 MSTORE PUSH1 0x40 SWAP2 DUP3 SWAP1 KECCAK256 SLOAD DUP3 MLOAD SWAP4 DUP5 MSTORE SWAP1 DUP4 ADD DUP11 SWAP1 MSTORE DUP3 DUP3 ADD MSTORE MLOAD PUSH32 0xD8BE0957F69173E6C6D244E50CF376D6FC80092D0BE1FD819E80B356EF786015 SWAP2 DUP2 SWAP1 SUB PUSH1 0x60 ADD SWAP1 LOG1 PUSH1 0x1 PUSH1 0x1 PUSH1 0xA0 SHL SUB DUP9 AND PUSH1 0x0 DUP2 DUP2 MSTORE PUSH1 0xC PUSH1 0x20 SWAP1 DUP2 MSTORE PUSH1 0x40 SWAP2 DUP3 SWAP1 KECCAK256 SLOAD DUP3 MLOAD SWAP4 DUP5 MSTORE SWAP1 DUP4 ADD DUP10 SWAP1 MSTORE DUP3 DUP3 ADD MSTORE MLOAD PUSH32 0x443392D5D35A273B0FEDFA142F0ABAC636428CE1C14BF3CD7F1C5DC9C94060D1 SWAP2 DUP2 SWAP1 SUB PUSH1 0x60 ADD SWAP1 LOG1 POP POP PUSH1 0x1 SWAP1 SWAP7 ADD SWAP6 POP PUSH2 0x3333 SWAP5 POP POP POP POP POP JUMP JUMPDEST POP POP POP POP POP JUMP JUMPDEST PUSH1 0x0 DUP4 ISZERO DUP1 PUSH2 0x35CF JUMPI POP DUP3 ISZERO JUMPDEST ISZERO PUSH2 0x35DC JUMPI POP PUSH1 0x0 PUSH2 0x271B JUMP JUMPDEST DUP4 DUP4 MUL DUP4 DUP6 DUP3 DUP2 PUSH2 0x35E9 JUMPI INVALID JUMPDEST DIV EQ DUP4 SWAP1 PUSH2 0x3638 JUMPI PUSH1 0x40 MLOAD PUSH3 0x461BCD PUSH1 0xE5 SHL DUP2 MSTORE PUSH1 0x20 PUSH1 0x4 DUP3 ADD DUP2 DUP2 MSTORE DUP4 MLOAD PUSH1 0x24 DUP5 ADD MSTORE DUP4 MLOAD SWAP1 SWAP3 DUP4 SWAP3 PUSH1 0x44 SWAP1 SWAP2 ADD SWAP2 SWAP1 DUP6 ADD SWAP1 DUP1 DUP4 DUP4 PUSH1 0x0 DUP4 ISZERO PUSH2 0x26DA JUMPI DUP2 DUP2 ADD MLOAD DUP4 DUP3 ADD MSTORE PUSH1 0x20 ADD PUSH2 0x26C2 JUMP JUMPDEST POP SWAP5 SWAP4 POP POP POP POP JUMP JUMPDEST PUSH1 0x0 PUSH2 0x271B DUP4 DUP4 PUSH1 0x40 MLOAD DUP1 PUSH1 0x40 ADD PUSH1 0x40 MSTORE DUP1 PUSH1 0xE DUP2 MSTORE PUSH1 0x20 ADD PUSH14 0x646976696465206279207A65726F PUSH1 0x90 SHL DUP2 MSTORE POP PUSH2 0x37CF JUMP JUMPDEST PUSH1 0x0 DUP4 DUP4 ADD DUP3 DUP6 DUP3 LT ISZERO PUSH2 0x3638 JUMPI PUSH1 0x40 MLOAD PUSH3 0x461BCD PUSH1 0xE5 SHL DUP2 MSTORE PUSH1 0x20 PUSH1 0x4 DUP3 ADD DUP2 DUP2 MSTORE DUP4 MLOAD PUSH1 0x24 DUP5 ADD MSTORE DUP4 MLOAD SWAP1 SWAP3 DUP4 SWAP3 PUSH1 0x44 SWAP1 SWAP2 ADD SWAP2 SWAP1 DUP6 ADD SWAP1 DUP1 DUP4 DUP4 PUSH1 0x0 DUP4 ISZERO PUSH2 0x26DA JUMPI DUP2 DUP2 ADD MLOAD DUP4 DUP3 ADD MSTORE PUSH1 0x20 ADD PUSH2 0x26C2 JUMP JUMPDEST MLOAD SWAP1 MLOAD GT SWAP1 JUMP JUMPDEST PUSH1 0x0 PUSH2 0x36DA PUSH2 0x3994 JUMP JUMPDEST PUSH1 0x0 DUP1 PUSH2 0x36EF DUP7 PUSH1 0x0 ADD MLOAD DUP7 PUSH1 0x0 ADD MLOAD PUSH2 0x3831 JUMP JUMPDEST PUSH1 0x40 DUP1 MLOAD PUSH1 0x20 DUP2 ADD SWAP1 SWAP2 MSTORE SWAP1 DUP2 MSTORE SWAP1 SWAP5 POP SWAP3 POP POP POP JUMPDEST SWAP3 POP SWAP3 SWAP1 POP JUMP JUMPDEST PUSH1 0x0 PUSH2 0x3716 PUSH2 0x3994 JUMP JUMPDEST PUSH1 0x0 DUP1 PUSH2 0x3727 DUP7 PUSH1 0x0 ADD MLOAD DUP7 PUSH2 0x3854 JUMP JUMPDEST SWAP1 SWAP3 POP SWAP1 POP PUSH1 0x0 DUP3 PUSH1 0x3 DUP2 GT ISZERO PUSH2 0x373A JUMPI INVALID JUMPDEST EQ PUSH2 0x3759 JUMPI POP PUSH1 0x40 DUP1 MLOAD PUSH1 0x20 DUP2 ADD SWAP1 SWAP2 MSTORE PUSH1 0x0 DUP2 MSTORE SWAP1 SWAP3 POP SWAP1 POP PUSH2 0x3705 JUMP JUMPDEST PUSH1 0x40 DUP1 MLOAD PUSH1 0x20 DUP2 ADD SWAP1 SWAP2 MSTORE SWAP1 DUP2 MSTORE PUSH1 0x0 SWAP7 SWAP1 SWAP6 POP SWAP4 POP POP POP POP JUMP JUMPDEST PUSH1 0x0 PUSH2 0x377E PUSH2 0x3994 JUMP JUMPDEST PUSH1 0x0 DUP1 PUSH2 0x36EF DUP7 PUSH1 0x0 ADD MLOAD DUP7 PUSH1 0x0 ADD MLOAD PUSH2 0x3893 JUMP JUMPDEST PUSH1 0x0 PUSH2 0x379D PUSH2 0x3994 JUMP JUMPDEST DUP4 MLOAD DUP4 MLOAD PUSH2 0x37AB SWAP2 SWAP1 PUSH2 0x38B9 JUMP JUMPDEST SWAP2 POP SWAP2 POP SWAP3 POP SWAP3 SWAP1 POP JUMP JUMPDEST PUSH1 0x0 PUSH8 0xDE0B6B3A7640000 PUSH2 0x29BC DUP5 DUP5 PUSH1 0x0 ADD MLOAD PUSH2 0x2722 JUMP JUMPDEST PUSH1 0x0 DUP2 DUP4 PUSH2 0x381E JUMPI PUSH1 0x40 MLOAD PUSH3 0x461BCD PUSH1 0xE5 SHL DUP2 MSTORE PUSH1 0x20 PUSH1 0x4 DUP3 ADD DUP2 DUP2 MSTORE DUP4 MLOAD PUSH1 0x24 DUP5 ADD MSTORE DUP4 MLOAD SWAP1 SWAP3 DUP4 SWAP3 PUSH1 0x44 SWAP1 SWAP2 ADD SWAP2 SWAP1 DUP6 ADD SWAP1 DUP1 DUP4 DUP4 PUSH1 0x0 DUP4 ISZERO PUSH2 0x26DA JUMPI DUP2 DUP2 ADD MLOAD DUP4 DUP3 ADD MSTORE PUSH1 0x20 ADD PUSH2 0x26C2 JUMP JUMPDEST POP DUP3 DUP5 DUP2 PUSH2 0x3828 JUMPI INVALID JUMPDEST DIV SWAP5 SWAP4 POP POP POP POP JUMP JUMPDEST PUSH1 0x0 DUP1 DUP4 DUP4 GT PUSH2 0x3848 JUMPI POP PUSH1 0x0 SWAP1 POP DUP2 DUP4 SUB PUSH2 0x3705 JUMP JUMPDEST POP PUSH1 0x3 SWAP1 POP PUSH1 0x0 PUSH2 0x3705 JUMP JUMPDEST PUSH1 0x0 DUP1 DUP4 PUSH2 0x3867 JUMPI POP PUSH1 0x0 SWAP1 POP DUP1 PUSH2 0x3705 JUMP JUMPDEST DUP4 DUP4 MUL DUP4 DUP6 DUP3 DUP2 PUSH2 0x3874 JUMPI INVALID JUMPDEST DIV EQ PUSH2 0x3888 JUMPI POP PUSH1 0x2 SWAP2 POP PUSH1 0x0 SWAP1 POP PUSH2 0x3705 JUMP JUMPDEST PUSH1 0x0 SWAP3 POP SWAP1 POP PUSH2 0x3705 JUMP JUMPDEST PUSH1 0x0 DUP1 DUP4 DUP4 ADD DUP5 DUP2 LT PUSH2 0x38AB JUMPI PUSH1 0x0 SWAP3 POP SWAP1 POP PUSH2 0x3705 JUMP JUMPDEST POP PUSH1 0x2 SWAP2 POP PUSH1 0x0 SWAP1 POP PUSH2 0x3705 JUMP JUMPDEST PUSH1 0x0 PUSH2 0x38C3 PUSH2 0x3994 JUMP JUMPDEST PUSH1 0x0 DUP1 PUSH2 0x38D8 DUP7 PUSH8 0xDE0B6B3A7640000 PUSH2 0x3854 JUMP JUMPDEST SWAP1 SWAP3 POP SWAP1 POP PUSH1 0x0 DUP3 PUSH1 0x3 DUP2 GT ISZERO PUSH2 0x38EB JUMPI INVALID JUMPDEST EQ PUSH2 0x390A JUMPI POP PUSH1 0x40 DUP1 MLOAD PUSH1 0x20 DUP2 ADD SWAP1 SWAP2 MSTORE PUSH1 0x0 DUP2 MSTORE SWAP1 SWAP3 POP SWAP1 POP PUSH2 0x3705 JUMP JUMPDEST PUSH1 0x0 DUP1 PUSH2 0x3917 DUP4 DUP9 PUSH2 0x3969 JUMP JUMPDEST SWAP1 SWAP3 POP SWAP1 POP PUSH1 0x0 DUP3 PUSH1 0x3 DUP2 GT ISZERO PUSH2 0x392A JUMPI INVALID JUMPDEST EQ PUSH2 0x394C JUMPI POP PUSH1 0x40 DUP1 MLOAD PUSH1 0x20 DUP2 ADD SWAP1 SWAP2 MSTORE PUSH1 0x0 DUP2 MSTORE SWAP1 SWAP5 POP SWAP3 POP PUSH2 0x3705 SWAP2 POP POP JUMP JUMPDEST PUSH1 0x40 DUP1 MLOAD PUSH1 0x20 DUP2 ADD SWAP1 SWAP2 MSTORE SWAP1 DUP2 MSTORE PUSH1 0x0 SWAP9 SWAP1 SWAP8 POP SWAP6 POP POP POP POP POP POP JUMP JUMPDEST PUSH1 0x0 DUP1 DUP3 PUSH2 0x397D JUMPI POP PUSH1 0x1 SWAP1 POP PUSH1 0x0 PUSH2 0x3705 JUMP JUMPDEST PUSH1 0x0 DUP4 DUP6 DUP2 PUSH2 0x3988 JUMPI INVALID JUMPDEST DIV SWAP2 POP SWAP2 POP SWAP3 POP SWAP3 SWAP1 POP JUMP JUMPDEST PUSH1 0x40 MLOAD DUP1 PUSH1 0x20 ADD PUSH1 0x40 MSTORE DUP1 PUSH1 0x0 DUP2 MSTORE POP SWAP1 JUMP JUMPDEST PUSH1 0x40 DUP1 MLOAD DUP1 DUP3 ADD SWAP1 SWAP2 MSTORE PUSH1 0x0 DUP1 DUP3 MSTORE PUSH1 0x20 DUP3 ADD MSTORE SWAP1 JUMP JUMPDEST PUSH1 0x40 MLOAD DUP1 PUSH2 0x300 ADD PUSH1 0x40 MSTORE DUP1 PUSH1 0x18 SWAP1 PUSH1 0x20 DUP3 MUL DUP1 CODESIZE DUP4 CODECOPY POP SWAP2 SWAP3 SWAP2 POP POP JUMP JUMPDEST DUP3 PUSH1 0x18 DUP2 ADD SWAP3 DUP3 ISZERO PUSH2 0x3A25 JUMPI SWAP2 PUSH1 0x20 MUL DUP3 ADD JUMPDEST DUP3 DUP2 GT ISZERO PUSH2 0x3A25 JUMPI DUP3 MLOAD DUP3 SLOAD PUSH1 0x1 PUSH1 0x1 PUSH1 0xE0 SHL SUB NOT AND PUSH1 0x1 PUSH1 0x1 PUSH1 0xE0 SHL SUB SWAP1 SWAP2 AND OR DUP3 SSTORE PUSH1 0x20 SWAP1 SWAP3 ADD SWAP2 PUSH1 0x1 SWAP1 SWAP2 ADD SWAP1 PUSH2 0x39F0 JUMP JUMPDEST POP PUSH2 0x3A31 SWAP3 SWAP2 POP PUSH2 0x3A35 JUMP JUMPDEST POP SWAP1 JUMP JUMPDEST PUSH2 0x945 SWAP2 SWAP1 JUMPDEST DUP1 DUP3 GT ISZERO PUSH2 0x3A31 JUMPI DUP1 SLOAD PUSH1 0x1 PUSH1 0x1 PUSH1 0xE0 SHL SUB NOT AND DUP2 SSTORE PUSH1 0x1 ADD PUSH2 0x3A3B JUMP INVALID SLOAD PUSH9 0x65206E657720537570 PUSH17 0x6C69657220526174696F206D7573742062 PUSH6 0x206C65737320 PUSH21 0x68616E203165313873696768496E697469616C496E PUSH5 0x6578206578 PUSH4 0x65656473 KECCAK256 ORIGIN ORIGIN CALLVALUE KECCAK256 PUSH3 0x697473 PUSH16 0x6E6C792061646D696E2F536967687472 PUSH16 0x6C6C65722063616E2075706461746520 MSTORE8 0x49 SELFBALANCE 0x48 KECCAK256 MSTORE8 PUSH22 0x70706C7920496E646578526566726573685349474853 PUSH17 0x65656473203A205375627472616374696F PUSH15 0x20756E646572666C6F777265667265 PUSH20 0x6853494748537065656473496E7465726E616C20 GASPRICE KECCAK256 0x4F PUSH19 0x61636C652072657475726E656420496E76616C PUSH10 0x642050726963656F6E6C PUSH26 0x2061646D696E2F5369676874726F6C6C65722063616E20636861 PUSH15 0x676520534947482072617465417373 PUSH10 0x676E696E672063757272 PUSH6 0x6E7420707269 PUSH4 0x65206661 PUSH10 0x6C65642E205072696365 KECCAK256 PUSH16 0x766572666C6F77732075696E74323234 0x2E PUSH16 0x6E6C792061646D696E2F536967687472 PUSH16 0x6C6C65722063616E2064726F70205349 SELFBALANCE 0x48 KECCAK256 PUSH14 0x61726B65744F6E6C792041646D69 PUSH15 0x2063616E206368616E676520746865 KECCAK256 MSTORE8 0x49 SELFBALANCE 0x48 KECCAK256 MSTORE8 PUSH17 0x65656420446973747269627574696F6E20 MSTORE PUSH2 0x7469 PUSH16 0x20666F722061204D61726B6574546865 KECCAK256 PUSH15 0x657720537570706C69657220526174 PUSH10 0x6F206D75737420626520 PUSH8 0x7265617465722074 PUSH9 0x616E20302E35653138 PUSH16 0x6E6C792061646D696E2F536967687472 PUSH16 0x6C6C65722063616E2061646420534947 0x48 KECCAK256 PUSH14 0x61726B6574626C6F636B206E756D PUSH3 0x657220 PUSH6 0x786365656473 KECCAK256 CALLER ORIGIN KECCAK256 PUSH3 0x697473 STOP STOP STOP STOP PUSH22 0x706461746553494748537570706C79496E646578203A KECCAK256 TIMESTAMP PUSH13 0x6F636B20537562747261637469 PUSH16 0x6E20556E646572666C6F77A265627A7A PUSH19 0x315820D6A8753E135DD6459E2333F08712B044 0xD6 SWAP4 PUSH28 0x304689F86CAE4EBCDB39D72AB064736F6C6343000511003200000000 "
		},
		"gasEstimates": {
			"creation": {
				"codeDepositCost": "3120400",
				"executionCost": "24279",
				"totalCost": "3144679"
			},
			"external": {
				"SIGHBorrowerIndex(address,address)": "1306",
				"SIGHSpeed()": "1043",
				"SIGHSupplierIndex(address,address)": "1264",
				"SIGH_Accrued(address)": "1192",
				"SIGH_ClaimThreshold()": "309",
				"SIGH_Speeds_Borrowers(address)": "1235",
				"SIGH_Speeds_Supplier_Ratio_Mantissa(address)": "1237",
				"SIGH_Speeds_Suppliers(address)": "1168",
				"SighSpeedControllerAddress()": "1169",
				"Sigh_Address()": "1083",
				"addSIGHMarket(address)": "infinite",
				"allMarkets(uint256)": "2015",
				"checkPriceSnapshots(address,uint256)": "1327",
				"checkinitializationCounter(address)": "1242",
				"claimSIGH(address[],bool,bool)": "infinite",
				"curClock()": "1127",
				"deltaTimeforSpeed()": "287",
				"distributeBorrower_SIGH(address,address)": "infinite",
				"distributeSupplier_SIGH(address,address)": "infinite",
				"dropSIGHMarket(address)": "infinite",
				"getBlockNumber()": "341",
				"getSIGHBalance()": "infinite",
				"oracle()": "1149",
				"prevSpeedRefreshTime()": "1066",
				"refreshSIGHSpeeds()": "infinite",
				"setOracle(address)": "22020",
				"setSighAddress(address)": "22120",
				"setSighSpeedController(address)": "22078",
				"setSightrollerAddress(address)": "22082",
				"sighInitialIndex()": "313",
				"sighMarketBorrowState(address)": "1265",
				"sighMarketSupplyState(address)": "1329",
				"sighPriceCycles(address)": "1212",
				"sightrollerAddress()": "1106",
				"updateSIGHBorrowIndex(address)": "infinite",
				"updateSIGHSpeed(uint256)": "infinite",
				"updateSIGHSpeedRatioForAMarket(address,uint256)": "infinite",
				"updateSIGHSupplyIndex(address)": "infinite"
			},
			"internal": {
				"_addMarketInternal(address)": "infinite",
				"refreshSIGHSpeedsInternal()": "infinite",
				"transfer_Sigh(address,uint256,uint256)": "infinite"
			}
		},
		"methodIdentifiers": {
			"SIGHBorrowerIndex(address,address)": "b8de65d1",
			"SIGHSpeed()": "89fb59b4",
			"SIGHSupplierIndex(address,address)": "00463672",
			"SIGH_Accrued(address)": "4df6bd2b",
			"SIGH_ClaimThreshold()": "75810e76",
			"SIGH_Speeds_Borrowers(address)": "be08274f",
			"SIGH_Speeds_Supplier_Ratio_Mantissa(address)": "171221ec",
			"SIGH_Speeds_Suppliers(address)": "c0992bc6",
			"SighSpeedControllerAddress()": "fe44bf06",
			"Sigh_Address()": "21428a12",
			"addSIGHMarket(address)": "5cb56745",
			"allMarkets(uint256)": "52d84d1e",
			"checkPriceSnapshots(address,uint256)": "4df859fd",
			"checkinitializationCounter(address)": "8d9cf864",
			"claimSIGH(address[],bool,bool)": "b114dae3",
			"curClock()": "2c8eb0bb",
			"deltaTimeforSpeed()": "7b7309f3",
			"distributeBorrower_SIGH(address,address)": "b12e660b",
			"distributeSupplier_SIGH(address,address)": "9ad38f4c",
			"dropSIGHMarket(address)": "aa22265f",
			"getBlockNumber()": "42cbb15c",
			"getSIGHBalance()": "c6a6bfb1",
			"oracle()": "7dc0d1d0",
			"prevSpeedRefreshTime()": "2782e8cc",
			"refreshSIGHSpeeds()": "bf1678f6",
			"setOracle(address)": "7adbf973",
			"setSighAddress(address)": "770d61d1",
			"setSighSpeedController(address)": "0bf68831",
			"setSightrollerAddress(address)": "a1d02a55",
			"sighInitialIndex()": "caf73e0a",
			"sighMarketBorrowState(address)": "4cdfb79f",
			"sighMarketSupplyState(address)": "d9f6513a",
			"sighPriceCycles(address)": "593d19b3",
			"sightrollerAddress()": "04f604d8",
			"updateSIGHBorrowIndex(address)": "7c52b668",
			"updateSIGHSpeed(uint256)": "2df0f9a9",
			"updateSIGHSpeedRatioForAMarket(address,uint256)": "522b0202",
			"updateSIGHSupplyIndex(address)": "4f425fbb"
		}
	},
	"abi": [
		{
			"inputs": [],
			"payable": false,
			"stateMutability": "nonpayable",
			"type": "constructor"
		},
		{
			"anonymous": false,
			"inputs": [
				{
					"indexed": false,
					"internalType": "contract CToken",
					"name": "cToken",
					"type": "address"
				},
				{
					"indexed": false,
					"internalType": "uint256",
					"name": "prevSpeed",
					"type": "uint256"
				},
				{
					"indexed": false,
					"internalType": "uint256",
					"name": "newSpeed",
					"type": "uint256"
				}
			],
			"name": "BorrowersSIGHSpeedUpdated",
			"type": "event"
		},
		{
			"anonymous": false,
			"inputs": [
				{
					"indexed": false,
					"internalType": "uint224",
					"name": "prevClock",
					"type": "uint224"
				},
				{
					"indexed": false,
					"internalType": "uint224",
					"name": "curClock",
					"type": "uint224"
				},
				{
					"indexed": false,
					"internalType": "uint256",
					"name": "timestamp",
					"type": "uint256"
				}
			],
			"name": "ClockUpdated",
			"type": "event"
		},
		{
			"anonymous": false,
			"inputs": [
				{
					"indexed": false,
					"internalType": "contract CToken",
					"name": "cToken",
					"type": "address"
				},
				{
					"indexed": false,
					"internalType": "address",
					"name": "borrower",
					"type": "address"
				},
				{
					"indexed": false,
					"internalType": "uint256",
					"name": "sighDelta",
					"type": "uint256"
				},
				{
					"indexed": false,
					"internalType": "uint256",
					"name": "sighBorrowIndex",
					"type": "uint256"
				}
			],
			"name": "DistributedBorrower_SIGH",
			"type": "event"
		},
		{
			"anonymous": false,
			"inputs": [
				{
					"indexed": false,
					"internalType": "contract CToken",
					"name": "cToken",
					"type": "address"
				},
				{
					"indexed": false,
					"internalType": "address",
					"name": "supplier",
					"type": "address"
				},
				{
					"indexed": false,
					"internalType": "uint256",
					"name": "sighDelta",
					"type": "uint256"
				},
				{
					"indexed": false,
					"internalType": "uint256",
					"name": "sighSupplyIndex",
					"type": "uint256"
				}
			],
			"name": "DistributedSupplier_SIGH",
			"type": "event"
		},
		{
			"anonymous": false,
			"inputs": [
				{
					"indexed": false,
					"internalType": "address",
					"name": "marketAddress",
					"type": "address"
				},
				{
					"indexed": false,
					"internalType": "bool",
					"name": "isSIGHed",
					"type": "bool"
				}
			],
			"name": "MarketSIGHed",
			"type": "event"
		},
		{
			"anonymous": false,
			"inputs": [
				{
					"indexed": false,
					"internalType": "uint256",
					"name": "oldSIGHSpeed",
					"type": "uint256"
				},
				{
					"indexed": false,
					"internalType": "uint256",
					"name": "newSIGHSpeed",
					"type": "uint256"
				},
				{
					"indexed": false,
					"internalType": "uint256",
					"name": "blockNumber_",
					"type": "uint256"
				}
			],
			"name": "NewSIGHSpeed",
			"type": "event"
		},
		{
			"anonymous": false,
			"inputs": [
				{
					"indexed": false,
					"internalType": "address",
					"name": "cToken",
					"type": "address"
				},
				{
					"indexed": false,
					"internalType": "uint256",
					"name": "prevPrice",
					"type": "uint256"
				},
				{
					"indexed": false,
					"internalType": "uint256",
					"name": "currentPrice",
					"type": "uint256"
				},
				{
					"indexed": false,
					"internalType": "uint32",
					"name": "Prevcounter",
					"type": "uint32"
				},
				{
					"indexed": false,
					"internalType": "uint256",
					"name": "blockNumber",
					"type": "uint256"
				}
			],
			"name": "PriceSnapped",
			"type": "event"
		},
		{
			"anonymous": false,
			"inputs": [
				{
					"indexed": false,
					"internalType": "address",
					"name": "cToken",
					"type": "address"
				},
				{
					"indexed": false,
					"internalType": "uint256",
					"name": "prevPrice",
					"type": "uint256"
				},
				{
					"indexed": false,
					"internalType": "uint256",
					"name": "currentPrice",
					"type": "uint256"
				},
				{
					"indexed": false,
					"internalType": "uint32",
					"name": "currentCounter",
					"type": "uint32"
				},
				{
					"indexed": false,
					"internalType": "uint256",
					"name": "blockNumber",
					"type": "uint256"
				}
			],
			"name": "PriceSnappedCheck",
			"type": "event"
		},
		{
			"anonymous": false,
			"inputs": [
				{
					"indexed": false,
					"internalType": "address",
					"name": "cToken",
					"type": "address"
				},
				{
					"indexed": false,
					"internalType": "uint256",
					"name": "prevRatio",
					"type": "uint256"
				},
				{
					"indexed": false,
					"internalType": "uint256",
					"name": "newRatio",
					"type": "uint256"
				}
			],
			"name": "SIGH_Speeds_Supplier_Ratio_Mantissa_Updated",
			"type": "event"
		},
		{
			"anonymous": false,
			"inputs": [
				{
					"indexed": false,
					"internalType": "address",
					"name": "userAddress",
					"type": "address"
				},
				{
					"indexed": false,
					"internalType": "uint256",
					"name": "amountTransferred",
					"type": "uint256"
				}
			],
			"name": "SIGH_Transferred",
			"type": "event"
		},
		{
			"anonymous": false,
			"inputs": [
				{
					"indexed": false,
					"internalType": "contract CToken",
					"name": "cToken",
					"type": "address"
				},
				{
					"indexed": false,
					"internalType": "uint256",
					"name": "prevSpeed",
					"type": "uint256"
				},
				{
					"indexed": false,
					"internalType": "uint256",
					"name": "newSpeed",
					"type": "uint256"
				}
			],
			"name": "SuppliersSIGHSpeedUpdated",
			"type": "event"
		},
		{
			"anonymous": false,
			"inputs": [
				{
					"indexed": false,
					"internalType": "address",
					"name": "market",
					"type": "address"
				},
				{
					"indexed": false,
					"internalType": "uint224",
					"name": "index",
					"type": "uint224"
				},
				{
					"indexed": false,
					"internalType": "uint32",
					"name": "blockNumber",
					"type": "uint32"
				}
			],
			"name": "checkIndexes",
			"type": "event"
		},
		{
			"anonymous": false,
			"inputs": [
				{
					"indexed": false,
					"internalType": "address",
					"name": "market",
					"type": "address"
				},
				{
					"indexed": false,
					"internalType": "uint256",
					"name": "borrowIndex",
					"type": "uint256"
				},
				{
					"indexed": false,
					"internalType": "uint256",
					"name": "borrowerIndex",
					"type": "uint256"
				}
			],
			"name": "distributeBorrower_SIGH_test3",
			"type": "event"
		},
		{
			"anonymous": false,
			"inputs": [
				{
					"indexed": false,
					"internalType": "address",
					"name": "market",
					"type": "address"
				},
				{
					"indexed": false,
					"internalType": "uint256",
					"name": "deltaIndex",
					"type": "uint256"
				},
				{
					"indexed": false,
					"internalType": "uint256",
					"name": "borrowBalance",
					"type": "uint256"
				},
				{
					"indexed": false,
					"internalType": "uint256",
					"name": "borrowerDelta",
					"type": "uint256"
				},
				{
					"indexed": false,
					"internalType": "uint256",
					"name": "borrowerAccrued",
					"type": "uint256"
				}
			],
			"name": "distributeBorrower_SIGH_test4",
			"type": "event"
		},
		{
			"anonymous": false,
			"inputs": [
				{
					"indexed": false,
					"internalType": "address",
					"name": "market",
					"type": "address"
				},
				{
					"indexed": false,
					"internalType": "uint256",
					"name": "supplyIndex",
					"type": "uint256"
				},
				{
					"indexed": false,
					"internalType": "uint256",
					"name": "supplierIndex",
					"type": "uint256"
				}
			],
			"name": "distributeSupplier_SIGH_test3",
			"type": "event"
		},
		{
			"anonymous": false,
			"inputs": [
				{
					"indexed": false,
					"internalType": "address",
					"name": "market",
					"type": "address"
				},
				{
					"indexed": false,
					"internalType": "uint256",
					"name": "deltaIndex",
					"type": "uint256"
				},
				{
					"indexed": false,
					"internalType": "uint256",
					"name": "supplierTokens",
					"type": "uint256"
				},
				{
					"indexed": false,
					"internalType": "uint256",
					"name": "supplierDelta",
					"type": "uint256"
				},
				{
					"indexed": false,
					"internalType": "uint256",
					"name": "supplierAccrued",
					"type": "uint256"
				}
			],
			"name": "distributeSupplier_SIGH_test4",
			"type": "event"
		},
		{
			"anonymous": false,
			"inputs": [
				{
					"indexed": false,
					"internalType": "address",
					"name": "market",
					"type": "address"
				},
				{
					"indexed": false,
					"internalType": "uint256",
					"name": "previousPrice",
					"type": "uint256"
				},
				{
					"indexed": false,
					"internalType": "uint256",
					"name": "currentPrice",
					"type": "uint256"
				},
				{
					"indexed": false,
					"internalType": "uint256",
					"name": "marketLosses",
					"type": "uint256"
				},
				{
					"indexed": false,
					"internalType": "uint256",
					"name": "totalSupply",
					"type": "uint256"
				},
				{
					"indexed": false,
					"internalType": "uint256",
					"name": "totalLosses",
					"type": "uint256"
				}
			],
			"name": "refreshingSighSpeeds_1",
			"type": "event"
		},
		{
			"anonymous": false,
			"inputs": [
				{
					"indexed": false,
					"internalType": "address",
					"name": "market",
					"type": "address"
				},
				{
					"indexed": false,
					"internalType": "uint256",
					"name": "marketLosses",
					"type": "uint256"
				},
				{
					"indexed": false,
					"internalType": "uint256",
					"name": "totalLosses",
					"type": "uint256"
				},
				{
					"indexed": false,
					"internalType": "uint256",
					"name": "newSpeed",
					"type": "uint256"
				}
			],
			"name": "refreshingSighSpeeds_2",
			"type": "event"
		},
		{
			"anonymous": false,
			"inputs": [
				{
					"indexed": false,
					"internalType": "address",
					"name": "market",
					"type": "address"
				},
				{
					"indexed": false,
					"internalType": "uint256",
					"name": "speed",
					"type": "uint256"
				},
				{
					"indexed": false,
					"internalType": "uint256",
					"name": "currentIndex",
					"type": "uint256"
				},
				{
					"indexed": false,
					"internalType": "uint256",
					"name": "prevBlock",
					"type": "uint256"
				},
				{
					"indexed": false,
					"internalType": "uint256",
					"name": "curBlock",
					"type": "uint256"
				},
				{
					"indexed": false,
					"internalType": "uint256",
					"name": "deltaBlocks",
					"type": "uint256"
				}
			],
			"name": "updateSIGHBorrowIndex_test1",
			"type": "event"
		},
		{
			"anonymous": false,
			"inputs": [
				{
					"indexed": false,
					"internalType": "address",
					"name": "market",
					"type": "address"
				},
				{
					"indexed": false,
					"internalType": "uint256",
					"name": "borrowAmount",
					"type": "uint256"
				},
				{
					"indexed": false,
					"internalType": "uint256",
					"name": "sigh_Accrued",
					"type": "uint256"
				},
				{
					"indexed": false,
					"internalType": "uint256",
					"name": "ratio",
					"type": "uint256"
				},
				{
					"indexed": false,
					"internalType": "uint256",
					"name": "index",
					"type": "uint256"
				}
			],
			"name": "updateSIGHBorrowIndex_test2",
			"type": "event"
		},
		{
			"anonymous": false,
			"inputs": [
				{
					"indexed": false,
					"internalType": "address",
					"name": "market",
					"type": "address"
				},
				{
					"indexed": false,
					"internalType": "uint256",
					"name": "previndex",
					"type": "uint256"
				},
				{
					"indexed": false,
					"internalType": "uint256",
					"name": "newIndex",
					"type": "uint256"
				},
				{
					"indexed": false,
					"internalType": "uint256",
					"name": "blockNum",
					"type": "uint256"
				}
			],
			"name": "updateSIGHBorrowIndex_test3",
			"type": "event"
		},
		{
			"anonymous": false,
			"inputs": [
				{
					"indexed": false,
					"internalType": "address",
					"name": "market",
					"type": "address"
				},
				{
					"indexed": false,
					"internalType": "uint256",
					"name": "speed",
					"type": "uint256"
				},
				{
					"indexed": false,
					"internalType": "uint256",
					"name": "currentIndex",
					"type": "uint256"
				},
				{
					"indexed": false,
					"internalType": "uint256",
					"name": "prevBlock",
					"type": "uint256"
				},
				{
					"indexed": false,
					"internalType": "uint256",
					"name": "curBlock",
					"type": "uint256"
				},
				{
					"indexed": false,
					"internalType": "uint256",
					"name": "deltaBlocks",
					"type": "uint256"
				}
			],
			"name": "updateSIGHSupplyIndex_test1",
			"type": "event"
		},
		{
			"anonymous": false,
			"inputs": [
				{
					"indexed": false,
					"internalType": "address",
					"name": "market",
					"type": "address"
				},
				{
					"indexed": false,
					"internalType": "uint256",
					"name": "supplyTokens",
					"type": "uint256"
				},
				{
					"indexed": false,
					"internalType": "uint256",
					"name": "sigh_Accrued",
					"type": "uint256"
				},
				{
					"indexed": false,
					"internalType": "uint256",
					"name": "ratio",
					"type": "uint256"
				},
				{
					"indexed": false,
					"internalType": "uint256",
					"name": "index",
					"type": "uint256"
				}
			],
			"name": "updateSIGHSupplyIndex_test2",
			"type": "event"
		},
		{
			"anonymous": false,
			"inputs": [
				{
					"indexed": false,
					"internalType": "address",
					"name": "market",
					"type": "address"
				},
				{
					"indexed": false,
					"internalType": "uint256",
					"name": "previndex",
					"type": "uint256"
				},
				{
					"indexed": false,
					"internalType": "uint256",
					"name": "newIndex",
					"type": "uint256"
				},
				{
					"indexed": false,
					"internalType": "uint256",
					"name": "blockNum",
					"type": "uint256"
				}
			],
			"name": "updateSIGHSupplyIndex_test3",
			"type": "event"
		},
		{
			"constant": true,
			"inputs": [
				{
					"internalType": "address",
					"name": "",
					"type": "address"
				},
				{
					"internalType": "address",
					"name": "",
					"type": "address"
				}
			],
			"name": "SIGHBorrowerIndex",
			"outputs": [
				{
					"internalType": "uint256",
					"name": "",
					"type": "uint256"
				}
			],
			"payable": false,
			"stateMutability": "view",
			"type": "function"
		},
		{
			"constant": true,
			"inputs": [],
			"name": "SIGHSpeed",
			"outputs": [
				{
					"internalType": "uint256",
					"name": "",
					"type": "uint256"
				}
			],
			"payable": false,
			"stateMutability": "view",
			"type": "function"
		},
		{
			"constant": true,
			"inputs": [
				{
					"internalType": "address",
					"name": "",
					"type": "address"
				},
				{
					"internalType": "address",
					"name": "",
					"type": "address"
				}
			],
			"name": "SIGHSupplierIndex",
			"outputs": [
				{
					"internalType": "uint256",
					"name": "",
					"type": "uint256"
				}
			],
			"payable": false,
			"stateMutability": "view",
			"type": "function"
		},
		{
			"constant": true,
			"inputs": [
				{
					"internalType": "address",
					"name": "",
					"type": "address"
				}
			],
			"name": "SIGH_Accrued",
			"outputs": [
				{
					"internalType": "uint256",
					"name": "",
					"type": "uint256"
				}
			],
			"payable": false,
			"stateMutability": "view",
			"type": "function"
		},
		{
			"constant": true,
			"inputs": [],
			"name": "SIGH_ClaimThreshold",
			"outputs": [
				{
					"internalType": "uint256",
					"name": "",
					"type": "uint256"
				}
			],
			"payable": false,
			"stateMutability": "view",
			"type": "function"
		},
		{
			"constant": true,
			"inputs": [
				{
					"internalType": "address",
					"name": "",
					"type": "address"
				}
			],
			"name": "SIGH_Speeds_Borrowers",
			"outputs": [
				{
					"internalType": "uint256",
					"name": "",
					"type": "uint256"
				}
			],
			"payable": false,
			"stateMutability": "view",
			"type": "function"
		},
		{
			"constant": true,
			"inputs": [
				{
					"internalType": "address",
					"name": "",
					"type": "address"
				}
			],
			"name": "SIGH_Speeds_Supplier_Ratio_Mantissa",
			"outputs": [
				{
					"internalType": "uint256",
					"name": "",
					"type": "uint256"
				}
			],
			"payable": false,
			"stateMutability": "view",
			"type": "function"
		},
		{
			"constant": true,
			"inputs": [
				{
					"internalType": "address",
					"name": "",
					"type": "address"
				}
			],
			"name": "SIGH_Speeds_Suppliers",
			"outputs": [
				{
					"internalType": "uint256",
					"name": "",
					"type": "uint256"
				}
			],
			"payable": false,
			"stateMutability": "view",
			"type": "function"
		},
		{
			"constant": true,
			"inputs": [],
			"name": "SighSpeedControllerAddress",
			"outputs": [
				{
					"internalType": "address",
					"name": "",
					"type": "address"
				}
			],
			"payable": false,
			"stateMutability": "view",
			"type": "function"
		},
		{
			"constant": true,
			"inputs": [],
			"name": "Sigh_Address",
			"outputs": [
				{
					"internalType": "address",
					"name": "",
					"type": "address"
				}
			],
			"payable": false,
			"stateMutability": "view",
			"type": "function"
		},
		{
			"constant": false,
			"inputs": [
				{
					"internalType": "address",
					"name": "marketAddress_",
					"type": "address"
				}
			],
			"name": "addSIGHMarket",
			"outputs": [
				{
					"internalType": "bool",
					"name": "",
					"type": "bool"
				}
			],
			"payable": false,
			"stateMutability": "nonpayable",
			"type": "function"
		},
		{
			"constant": true,
			"inputs": [
				{
					"internalType": "uint256",
					"name": "",
					"type": "uint256"
				}
			],
			"name": "allMarkets",
			"outputs": [
				{
					"internalType": "contract CToken",
					"name": "",
					"type": "address"
				}
			],
			"payable": false,
			"stateMutability": "view",
			"type": "function"
		},
		{
			"constant": true,
			"inputs": [
				{
					"internalType": "address",
					"name": "market_",
					"type": "address"
				},
				{
					"internalType": "uint256",
					"name": "clock",
					"type": "uint256"
				}
			],
			"name": "checkPriceSnapshots",
			"outputs": [
				{
					"internalType": "uint224",
					"name": "",
					"type": "uint224"
				}
			],
			"payable": false,
			"stateMutability": "view",
			"type": "function"
		},
		{
			"constant": true,
			"inputs": [
				{
					"internalType": "address",
					"name": "market_",
					"type": "address"
				}
			],
			"name": "checkinitializationCounter",
			"outputs": [
				{
					"internalType": "uint224",
					"name": "",
					"type": "uint224"
				}
			],
			"payable": false,
			"stateMutability": "view",
			"type": "function"
		},
		{
			"constant": false,
			"inputs": [
				{
					"internalType": "address[]",
					"name": "holders",
					"type": "address[]"
				},
				{
					"internalType": "bool",
					"name": "borrowers",
					"type": "bool"
				},
				{
					"internalType": "bool",
					"name": "suppliers",
					"type": "bool"
				}
			],
			"name": "claimSIGH",
			"outputs": [],
			"payable": false,
			"stateMutability": "nonpayable",
			"type": "function"
		},
		{
			"constant": true,
			"inputs": [],
			"name": "curClock",
			"outputs": [
				{
					"internalType": "uint224",
					"name": "",
					"type": "uint224"
				}
			],
			"payable": false,
			"stateMutability": "view",
			"type": "function"
		},
		{
			"constant": true,
			"inputs": [],
			"name": "deltaTimeforSpeed",
			"outputs": [
				{
					"internalType": "uint224",
					"name": "",
					"type": "uint224"
				}
			],
			"payable": false,
			"stateMutability": "view",
			"type": "function"
		},
		{
			"constant": false,
			"inputs": [
				{
					"internalType": "address",
					"name": "currentMarket",
					"type": "address"
				},
				{
					"internalType": "address",
					"name": "borrower",
					"type": "address"
				}
			],
			"name": "distributeBorrower_SIGH",
			"outputs": [],
			"payable": false,
			"stateMutability": "nonpayable",
			"type": "function"
		},
		{
			"constant": false,
			"inputs": [
				{
					"internalType": "address",
					"name": "currentMarket",
					"type": "address"
				},
				{
					"internalType": "address",
					"name": "supplier",
					"type": "address"
				}
			],
			"name": "distributeSupplier_SIGH",
			"outputs": [],
			"payable": false,
			"stateMutability": "nonpayable",
			"type": "function"
		},
		{
			"constant": false,
			"inputs": [
				{
					"internalType": "address",
					"name": "marketAddress_",
					"type": "address"
				}
			],
			"name": "dropSIGHMarket",
			"outputs": [
				{
					"internalType": "bool",
					"name": "",
					"type": "bool"
				}
			],
			"payable": false,
			"stateMutability": "nonpayable",
			"type": "function"
		},
		{
			"constant": true,
			"inputs": [],
			"name": "getBlockNumber",
			"outputs": [
				{
					"internalType": "uint32",
					"name": "",
					"type": "uint32"
				}
			],
			"payable": false,
			"stateMutability": "view",
			"type": "function"
		},
		{
			"constant": true,
			"inputs": [],
			"name": "getSIGHBalance",
			"outputs": [
				{
					"internalType": "uint256",
					"name": "",
					"type": "uint256"
				}
			],
			"payable": false,
			"stateMutability": "view",
			"type": "function"
		},
		{
			"constant": true,
			"inputs": [],
			"name": "oracle",
			"outputs": [
				{
					"internalType": "contract PriceOracle",
					"name": "",
					"type": "address"
				}
			],
			"payable": false,
			"stateMutability": "view",
			"type": "function"
		},
		{
			"constant": true,
			"inputs": [],
			"name": "prevSpeedRefreshTime",
			"outputs": [
				{
					"internalType": "uint256",
					"name": "",
					"type": "uint256"
				}
			],
			"payable": false,
			"stateMutability": "view",
			"type": "function"
		},
		{
			"constant": false,
			"inputs": [],
			"name": "refreshSIGHSpeeds",
			"outputs": [
				{
					"internalType": "bool",
					"name": "",
					"type": "bool"
				}
			],
			"payable": false,
			"stateMutability": "nonpayable",
			"type": "function"
		},
		{
			"constant": false,
			"inputs": [
				{
					"internalType": "address",
					"name": "newOracle",
					"type": "address"
				}
			],
			"name": "setOracle",
			"outputs": [
				{
					"internalType": "bool",
					"name": "",
					"type": "bool"
				}
			],
			"payable": false,
			"stateMutability": "nonpayable",
			"type": "function"
		},
		{
			"constant": false,
			"inputs": [
				{
					"internalType": "address",
					"name": "Sigh_Address__",
					"type": "address"
				}
			],
			"name": "setSighAddress",
			"outputs": [
				{
					"internalType": "address",
					"name": "",
					"type": "address"
				}
			],
			"payable": false,
			"stateMutability": "nonpayable",
			"type": "function"
		},
		{
			"constant": false,
			"inputs": [
				{
					"internalType": "address",
					"name": "SighSpeedController__",
					"type": "address"
				}
			],
			"name": "setSighSpeedController",
			"outputs": [
				{
					"internalType": "address",
					"name": "",
					"type": "address"
				}
			],
			"payable": false,
			"stateMutability": "nonpayable",
			"type": "function"
		},
		{
			"constant": false,
			"inputs": [
				{
					"internalType": "address",
					"name": "newSightroller",
					"type": "address"
				}
			],
			"name": "setSightrollerAddress",
			"outputs": [
				{
					"internalType": "bool",
					"name": "",
					"type": "bool"
				}
			],
			"payable": false,
			"stateMutability": "nonpayable",
			"type": "function"
		},
		{
			"constant": true,
			"inputs": [],
			"name": "sighInitialIndex",
			"outputs": [
				{
					"internalType": "uint224",
					"name": "",
					"type": "uint224"
				}
			],
			"payable": false,
			"stateMutability": "view",
			"type": "function"
		},
		{
			"constant": true,
			"inputs": [
				{
					"internalType": "address",
					"name": "",
					"type": "address"
				}
			],
			"name": "sighMarketBorrowState",
			"outputs": [
				{
					"internalType": "uint224",
					"name": "index",
					"type": "uint224"
				},
				{
					"internalType": "uint32",
					"name": "block_",
					"type": "uint32"
				}
			],
			"payable": false,
			"stateMutability": "view",
			"type": "function"
		},
		{
			"constant": true,
			"inputs": [
				{
					"internalType": "address",
					"name": "",
					"type": "address"
				}
			],
			"name": "sighMarketSupplyState",
			"outputs": [
				{
					"internalType": "uint224",
					"name": "index",
					"type": "uint224"
				},
				{
					"internalType": "uint32",
					"name": "block_",
					"type": "uint32"
				}
			],
			"payable": false,
			"stateMutability": "view",
			"type": "function"
		},
		{
			"constant": true,
			"inputs": [
				{
					"internalType": "address",
					"name": "",
					"type": "address"
				}
			],
			"name": "sighPriceCycles",
			"outputs": [
				{
					"internalType": "uint32",
					"name": "initializationCounter",
					"type": "uint32"
				}
			],
			"payable": false,
			"stateMutability": "view",
			"type": "function"
		},
		{
			"constant": true,
			"inputs": [],
			"name": "sightrollerAddress",
			"outputs": [
				{
					"internalType": "address",
					"name": "",
					"type": "address"
				}
			],
			"payable": false,
			"stateMutability": "view",
			"type": "function"
		},
		{
			"constant": false,
			"inputs": [
				{
					"internalType": "address",
					"name": "currentMarket",
					"type": "address"
				}
			],
			"name": "updateSIGHBorrowIndex",
			"outputs": [],
			"payable": false,
			"stateMutability": "nonpayable",
			"type": "function"
		},
		{
			"constant": false,
			"inputs": [
				{
					"internalType": "uint256",
					"name": "SIGHSpeed_",
					"type": "uint256"
				}
			],
			"name": "updateSIGHSpeed",
			"outputs": [
				{
					"internalType": "bool",
					"name": "",
					"type": "bool"
				}
			],
			"payable": false,
			"stateMutability": "nonpayable",
			"type": "function"
		},
		{
			"constant": false,
			"inputs": [
				{
					"internalType": "address",
					"name": "marketAddress",
					"type": "address"
				},
				{
					"internalType": "uint256",
					"name": "supplierRatio",
					"type": "uint256"
				}
			],
			"name": "updateSIGHSpeedRatioForAMarket",
			"outputs": [
				{
					"internalType": "bool",
					"name": "",
					"type": "bool"
				}
			],
			"payable": false,
			"stateMutability": "nonpayable",
			"type": "function"
		},
		{
			"constant": false,
			"inputs": [
				{
					"internalType": "address",
					"name": "currentMarket",
					"type": "address"
				}
			],
			"name": "updateSIGHSupplyIndex",
			"outputs": [],
			"payable": false,
			"stateMutability": "nonpayable",
			"type": "function"
		}
	]
}