{
	"data": {
		"bytecode": {
			"linkReferences": {},
			"object": "608060405234801561001057600080fd5b506040516108663803806108668339818101604052604081101561003357600080fd5b508051602090910151600280546001600160a01b0319163317905561006182826001600160e01b0361006816565b50506101d6565b61008262201480836100e560201b6103b31790919060201c565b60015561009d81622014806100e5602090811b6103b317901c565b600081905560015460408051918252602082019290925281517ff35fa19c15e9ba782633a5df62a98b20217151addc68e3ff2cd623a48d37ec27929181900390910190a15050565b600061012d83836040518060400160405280601a81526020017f536166654d6174683a206469766973696f6e206279207a65726f00000000000081525061013460201b60201c565b9392505050565b600081836101c05760405162461bcd60e51b81526004018080602001828103825283818151815260200191508051906020019080838360005b8381101561018557818101518382015260200161016d565b50505050905090810190601f1680156101b25780820380516001836020036101000a031916815260200191505b509250505060405180910390fd5b5060008385816101cc57fe5b0495945050505050565b610681806101e56000396000f3fe608060405234801561001057600080fd5b50600436106100935760003560e01c80638726bb89116100665780638726bb891461013d578063a385fb9614610145578063b81688161461014d578063f14039de1461017c578063f851a4401461018457610093565b806315f24053146100985780632191f92a146100d35780636e71e2d8146100ef5780637bca9a7f14610118575b600080fd5b6100c1600480360360608110156100ae57600080fd5b50803590602081013590604001356101a8565b60408051918252519081900360200190f35b6100db610202565b604080519115158252519081900360200190f35b6100c16004803603606081101561010557600080fd5b5080359060208101359060400135610207565b61013b6004803603604081101561012e57600080fd5b5080359060200135610259565b005b6100c16102b0565b6100c16102b6565b6100c16004803603608081101561016357600080fd5b50803590602081013590604081013590606001356102bd565b6100c161033c565b61018c610342565b604080516001600160a01b039092168252519081900360200190f35b6000806101b6858585610207565b90506101f76001546101eb670de0b6b3a76400006101df6000548661035190919063ffffffff16565b9063ffffffff6103b316565b9063ffffffff6103f516565b9150505b9392505050565b600181565b600082610216575060006101fb565b6102516102398361022d878763ffffffff6103f516565b9063ffffffff61044f16565b6101df85670de0b6b3a764000063ffffffff61035116565b949350505050565b6002546001600160a01b031633146102a25760405162461bcd60e51b815260040180806020018281038252602d8152602001806105ff602d913960400191505060405180910390fd5b6102ac8282610491565b5050565b60005481565b6220148081565b6000806102d8670de0b6b3a76400008463ffffffff61044f16565b905060006102e78787876101a8565b90506000610307670de0b6b3a76400006101df848663ffffffff61035116565b9050610330670de0b6b3a76400006101df836103248c8c8c610207565b9063ffffffff61035116565b98975050505050505050565b60015481565b6002546001600160a01b031681565b600082610360575060006103ad565b8282028284828161036d57fe5b04146103aa5760405162461bcd60e51b815260040180806020018281038252602181526020018061062c6021913960400191505060405180910390fd5b90505b92915050565b60006103aa83836040518060400160405280601a81526020017f536166654d6174683a206469766973696f6e206279207a65726f000000000000815250610502565b6000828201838110156103aa576040805162461bcd60e51b815260206004820152601b60248201527f536166654d6174683a206164646974696f6e206f766572666c6f770000000000604482015290519081900360640190fd5b60006103aa83836040518060400160405280601f81526020017f536166654d6174683a207375627472616374696f6e20756e646572666c6f77008152506105a4565b6104a4826220148063ffffffff6103b316565b6001556104ba816220148063ffffffff6103b316565b600081905560015460408051918252602082019290925281517ff35fa19c15e9ba782633a5df62a98b20217151addc68e3ff2cd623a48d37ec27929181900390910190a15050565b6000818361058e5760405162461bcd60e51b81526004018080602001828103825283818151815260200191508051906020019080838360005b8381101561055357818101518382015260200161053b565b50505050905090810190601f1680156105805780820380516001836020036101000a031916815260200191505b509250505060405180910390fd5b50600083858161059a57fe5b0495945050505050565b600081848411156105f65760405162461bcd60e51b815260206004820181815283516024840152835190928392604490910191908501908083836000831561055357818101518382015260200161053b565b50505090039056fe546869732066756e6374696f6e2063616e206f6e6c792062652063616c6c6564206279207468652041646d696e536166654d6174683a206d756c7469706c69636174696f6e206f766572666c6f77a265627a7a72315820abbb4a672c9bd9da3279ba25fe3482b7dda6ef72441a70f5dd0273c42724329b64736f6c63430005110032",
			"opcodes": "PUSH1 0x80 PUSH1 0x40 MSTORE CALLVALUE DUP1 ISZERO PUSH2 0x10 JUMPI PUSH1 0x0 DUP1 REVERT JUMPDEST POP PUSH1 0x40 MLOAD PUSH2 0x866 CODESIZE SUB DUP1 PUSH2 0x866 DUP4 CODECOPY DUP2 DUP2 ADD PUSH1 0x40 MSTORE PUSH1 0x40 DUP2 LT ISZERO PUSH2 0x33 JUMPI PUSH1 0x0 DUP1 REVERT JUMPDEST POP DUP1 MLOAD PUSH1 0x20 SWAP1 SWAP2 ADD MLOAD PUSH1 0x2 DUP1 SLOAD PUSH1 0x1 PUSH1 0x1 PUSH1 0xA0 SHL SUB NOT AND CALLER OR SWAP1 SSTORE PUSH2 0x61 DUP3 DUP3 PUSH1 0x1 PUSH1 0x1 PUSH1 0xE0 SHL SUB PUSH2 0x68 AND JUMP JUMPDEST POP POP PUSH2 0x1D6 JUMP JUMPDEST PUSH2 0x82 PUSH3 0x201480 DUP4 PUSH2 0xE5 PUSH1 0x20 SHL PUSH2 0x3B3 OR SWAP1 SWAP2 SWAP1 PUSH1 0x20 SHR JUMP JUMPDEST PUSH1 0x1 SSTORE PUSH2 0x9D DUP2 PUSH3 0x201480 PUSH2 0xE5 PUSH1 0x20 SWAP1 DUP2 SHL PUSH2 0x3B3 OR SWAP1 SHR JUMP JUMPDEST PUSH1 0x0 DUP2 SWAP1 SSTORE PUSH1 0x1 SLOAD PUSH1 0x40 DUP1 MLOAD SWAP2 DUP3 MSTORE PUSH1 0x20 DUP3 ADD SWAP3 SWAP1 SWAP3 MSTORE DUP2 MLOAD PUSH32 0xF35FA19C15E9BA782633A5DF62A98B20217151ADDC68E3FF2CD623A48D37EC27 SWAP3 SWAP2 DUP2 SWAP1 SUB SWAP1 SWAP2 ADD SWAP1 LOG1 POP POP JUMP JUMPDEST PUSH1 0x0 PUSH2 0x12D DUP4 DUP4 PUSH1 0x40 MLOAD DUP1 PUSH1 0x40 ADD PUSH1 0x40 MSTORE DUP1 PUSH1 0x1A DUP2 MSTORE PUSH1 0x20 ADD PUSH32 0x536166654D6174683A206469766973696F6E206279207A65726F000000000000 DUP2 MSTORE POP PUSH2 0x134 PUSH1 0x20 SHL PUSH1 0x20 SHR JUMP JUMPDEST SWAP4 SWAP3 POP POP POP JUMP JUMPDEST PUSH1 0x0 DUP2 DUP4 PUSH2 0x1C0 JUMPI PUSH1 0x40 MLOAD PUSH3 0x461BCD PUSH1 0xE5 SHL DUP2 MSTORE PUSH1 0x4 ADD DUP1 DUP1 PUSH1 0x20 ADD DUP3 DUP2 SUB DUP3 MSTORE DUP4 DUP2 DUP2 MLOAD DUP2 MSTORE PUSH1 0x20 ADD SWAP2 POP DUP1 MLOAD SWAP1 PUSH1 0x20 ADD SWAP1 DUP1 DUP4 DUP4 PUSH1 0x0 JUMPDEST DUP4 DUP2 LT ISZERO PUSH2 0x185 JUMPI DUP2 DUP2 ADD MLOAD DUP4 DUP3 ADD MSTORE PUSH1 0x20 ADD PUSH2 0x16D JUMP JUMPDEST POP POP POP POP SWAP1 POP SWAP1 DUP2 ADD SWAP1 PUSH1 0x1F AND DUP1 ISZERO PUSH2 0x1B2 JUMPI DUP1 DUP3 SUB DUP1 MLOAD PUSH1 0x1 DUP4 PUSH1 0x20 SUB PUSH2 0x100 EXP SUB NOT AND DUP2 MSTORE PUSH1 0x20 ADD SWAP2 POP JUMPDEST POP SWAP3 POP POP POP PUSH1 0x40 MLOAD DUP1 SWAP2 SUB SWAP1 REVERT JUMPDEST POP PUSH1 0x0 DUP4 DUP6 DUP2 PUSH2 0x1CC JUMPI INVALID JUMPDEST DIV SWAP6 SWAP5 POP POP POP POP POP JUMP JUMPDEST PUSH2 0x681 DUP1 PUSH2 0x1E5 PUSH1 0x0 CODECOPY PUSH1 0x0 RETURN INVALID PUSH1 0x80 PUSH1 0x40 MSTORE CALLVALUE DUP1 ISZERO PUSH2 0x10 JUMPI PUSH1 0x0 DUP1 REVERT JUMPDEST POP PUSH1 0x4 CALLDATASIZE LT PUSH2 0x93 JUMPI PUSH1 0x0 CALLDATALOAD PUSH1 0xE0 SHR DUP1 PUSH4 0x8726BB89 GT PUSH2 0x66 JUMPI DUP1 PUSH4 0x8726BB89 EQ PUSH2 0x13D JUMPI DUP1 PUSH4 0xA385FB96 EQ PUSH2 0x145 JUMPI DUP1 PUSH4 0xB8168816 EQ PUSH2 0x14D JUMPI DUP1 PUSH4 0xF14039DE EQ PUSH2 0x17C JUMPI DUP1 PUSH4 0xF851A440 EQ PUSH2 0x184 JUMPI PUSH2 0x93 JUMP JUMPDEST DUP1 PUSH4 0x15F24053 EQ PUSH2 0x98 JUMPI DUP1 PUSH4 0x2191F92A EQ PUSH2 0xD3 JUMPI DUP1 PUSH4 0x6E71E2D8 EQ PUSH2 0xEF JUMPI DUP1 PUSH4 0x7BCA9A7F EQ PUSH2 0x118 JUMPI JUMPDEST PUSH1 0x0 DUP1 REVERT JUMPDEST PUSH2 0xC1 PUSH1 0x4 DUP1 CALLDATASIZE SUB PUSH1 0x60 DUP2 LT ISZERO PUSH2 0xAE JUMPI PUSH1 0x0 DUP1 REVERT JUMPDEST POP DUP1 CALLDATALOAD SWAP1 PUSH1 0x20 DUP2 ADD CALLDATALOAD SWAP1 PUSH1 0x40 ADD CALLDATALOAD PUSH2 0x1A8 JUMP JUMPDEST PUSH1 0x40 DUP1 MLOAD SWAP2 DUP3 MSTORE MLOAD SWAP1 DUP2 SWAP1 SUB PUSH1 0x20 ADD SWAP1 RETURN JUMPDEST PUSH2 0xDB PUSH2 0x202 JUMP JUMPDEST PUSH1 0x40 DUP1 MLOAD SWAP2 ISZERO ISZERO DUP3 MSTORE MLOAD SWAP1 DUP2 SWAP1 SUB PUSH1 0x20 ADD SWAP1 RETURN JUMPDEST PUSH2 0xC1 PUSH1 0x4 DUP1 CALLDATASIZE SUB PUSH1 0x60 DUP2 LT ISZERO PUSH2 0x105 JUMPI PUSH1 0x0 DUP1 REVERT JUMPDEST POP DUP1 CALLDATALOAD SWAP1 PUSH1 0x20 DUP2 ADD CALLDATALOAD SWAP1 PUSH1 0x40 ADD CALLDATALOAD PUSH2 0x207 JUMP JUMPDEST PUSH2 0x13B PUSH1 0x4 DUP1 CALLDATASIZE SUB PUSH1 0x40 DUP2 LT ISZERO PUSH2 0x12E JUMPI PUSH1 0x0 DUP1 REVERT JUMPDEST POP DUP1 CALLDATALOAD SWAP1 PUSH1 0x20 ADD CALLDATALOAD PUSH2 0x259 JUMP JUMPDEST STOP JUMPDEST PUSH2 0xC1 PUSH2 0x2B0 JUMP JUMPDEST PUSH2 0xC1 PUSH2 0x2B6 JUMP JUMPDEST PUSH2 0xC1 PUSH1 0x4 DUP1 CALLDATASIZE SUB PUSH1 0x80 DUP2 LT ISZERO PUSH2 0x163 JUMPI PUSH1 0x0 DUP1 REVERT JUMPDEST POP DUP1 CALLDATALOAD SWAP1 PUSH1 0x20 DUP2 ADD CALLDATALOAD SWAP1 PUSH1 0x40 DUP2 ADD CALLDATALOAD SWAP1 PUSH1 0x60 ADD CALLDATALOAD PUSH2 0x2BD JUMP JUMPDEST PUSH2 0xC1 PUSH2 0x33C JUMP JUMPDEST PUSH2 0x18C PUSH2 0x342 JUMP JUMPDEST PUSH1 0x40 DUP1 MLOAD PUSH1 0x1 PUSH1 0x1 PUSH1 0xA0 SHL SUB SWAP1 SWAP3 AND DUP3 MSTORE MLOAD SWAP1 DUP2 SWAP1 SUB PUSH1 0x20 ADD SWAP1 RETURN JUMPDEST PUSH1 0x0 DUP1 PUSH2 0x1B6 DUP6 DUP6 DUP6 PUSH2 0x207 JUMP JUMPDEST SWAP1 POP PUSH2 0x1F7 PUSH1 0x1 SLOAD PUSH2 0x1EB PUSH8 0xDE0B6B3A7640000 PUSH2 0x1DF PUSH1 0x0 SLOAD DUP7 PUSH2 0x351 SWAP1 SWAP2 SWAP1 PUSH4 0xFFFFFFFF AND JUMP JUMPDEST SWAP1 PUSH4 0xFFFFFFFF PUSH2 0x3B3 AND JUMP JUMPDEST SWAP1 PUSH4 0xFFFFFFFF PUSH2 0x3F5 AND JUMP JUMPDEST SWAP2 POP POP JUMPDEST SWAP4 SWAP3 POP POP POP JUMP JUMPDEST PUSH1 0x1 DUP2 JUMP JUMPDEST PUSH1 0x0 DUP3 PUSH2 0x216 JUMPI POP PUSH1 0x0 PUSH2 0x1FB JUMP JUMPDEST PUSH2 0x251 PUSH2 0x239 DUP4 PUSH2 0x22D DUP8 DUP8 PUSH4 0xFFFFFFFF PUSH2 0x3F5 AND JUMP JUMPDEST SWAP1 PUSH4 0xFFFFFFFF PUSH2 0x44F AND JUMP JUMPDEST PUSH2 0x1DF DUP6 PUSH8 0xDE0B6B3A7640000 PUSH4 0xFFFFFFFF PUSH2 0x351 AND JUMP JUMPDEST SWAP5 SWAP4 POP POP POP POP JUMP JUMPDEST PUSH1 0x2 SLOAD PUSH1 0x1 PUSH1 0x1 PUSH1 0xA0 SHL SUB AND CALLER EQ PUSH2 0x2A2 JUMPI PUSH1 0x40 MLOAD PUSH3 0x461BCD PUSH1 0xE5 SHL DUP2 MSTORE PUSH1 0x4 ADD DUP1 DUP1 PUSH1 0x20 ADD DUP3 DUP2 SUB DUP3 MSTORE PUSH1 0x2D DUP2 MSTORE PUSH1 0x20 ADD DUP1 PUSH2 0x5FF PUSH1 0x2D SWAP2 CODECOPY PUSH1 0x40 ADD SWAP2 POP POP PUSH1 0x40 MLOAD DUP1 SWAP2 SUB SWAP1 REVERT JUMPDEST PUSH2 0x2AC DUP3 DUP3 PUSH2 0x491 JUMP JUMPDEST POP POP JUMP JUMPDEST PUSH1 0x0 SLOAD DUP2 JUMP JUMPDEST PUSH3 0x201480 DUP2 JUMP JUMPDEST PUSH1 0x0 DUP1 PUSH2 0x2D8 PUSH8 0xDE0B6B3A7640000 DUP5 PUSH4 0xFFFFFFFF PUSH2 0x44F AND JUMP JUMPDEST SWAP1 POP PUSH1 0x0 PUSH2 0x2E7 DUP8 DUP8 DUP8 PUSH2 0x1A8 JUMP JUMPDEST SWAP1 POP PUSH1 0x0 PUSH2 0x307 PUSH8 0xDE0B6B3A7640000 PUSH2 0x1DF DUP5 DUP7 PUSH4 0xFFFFFFFF PUSH2 0x351 AND JUMP JUMPDEST SWAP1 POP PUSH2 0x330 PUSH8 0xDE0B6B3A7640000 PUSH2 0x1DF DUP4 PUSH2 0x324 DUP13 DUP13 DUP13 PUSH2 0x207 JUMP JUMPDEST SWAP1 PUSH4 0xFFFFFFFF PUSH2 0x351 AND JUMP JUMPDEST SWAP9 SWAP8 POP POP POP POP POP POP POP POP JUMP JUMPDEST PUSH1 0x1 SLOAD DUP2 JUMP JUMPDEST PUSH1 0x2 SLOAD PUSH1 0x1 PUSH1 0x1 PUSH1 0xA0 SHL SUB AND DUP2 JUMP JUMPDEST PUSH1 0x0 DUP3 PUSH2 0x360 JUMPI POP PUSH1 0x0 PUSH2 0x3AD JUMP JUMPDEST DUP3 DUP3 MUL DUP3 DUP5 DUP3 DUP2 PUSH2 0x36D JUMPI INVALID JUMPDEST DIV EQ PUSH2 0x3AA JUMPI PUSH1 0x40 MLOAD PUSH3 0x461BCD PUSH1 0xE5 SHL DUP2 MSTORE PUSH1 0x4 ADD DUP1 DUP1 PUSH1 0x20 ADD DUP3 DUP2 SUB DUP3 MSTORE PUSH1 0x21 DUP2 MSTORE PUSH1 0x20 ADD DUP1 PUSH2 0x62C PUSH1 0x21 SWAP2 CODECOPY PUSH1 0x40 ADD SWAP2 POP POP PUSH1 0x40 MLOAD DUP1 SWAP2 SUB SWAP1 REVERT JUMPDEST SWAP1 POP JUMPDEST SWAP3 SWAP2 POP POP JUMP JUMPDEST PUSH1 0x0 PUSH2 0x3AA DUP4 DUP4 PUSH1 0x40 MLOAD DUP1 PUSH1 0x40 ADD PUSH1 0x40 MSTORE DUP1 PUSH1 0x1A DUP2 MSTORE PUSH1 0x20 ADD PUSH32 0x536166654D6174683A206469766973696F6E206279207A65726F000000000000 DUP2 MSTORE POP PUSH2 0x502 JUMP JUMPDEST PUSH1 0x0 DUP3 DUP3 ADD DUP4 DUP2 LT ISZERO PUSH2 0x3AA JUMPI PUSH1 0x40 DUP1 MLOAD PUSH3 0x461BCD PUSH1 0xE5 SHL DUP2 MSTORE PUSH1 0x20 PUSH1 0x4 DUP3 ADD MSTORE PUSH1 0x1B PUSH1 0x24 DUP3 ADD MSTORE PUSH32 0x536166654D6174683A206164646974696F6E206F766572666C6F770000000000 PUSH1 0x44 DUP3 ADD MSTORE SWAP1 MLOAD SWAP1 DUP2 SWAP1 SUB PUSH1 0x64 ADD SWAP1 REVERT JUMPDEST PUSH1 0x0 PUSH2 0x3AA DUP4 DUP4 PUSH1 0x40 MLOAD DUP1 PUSH1 0x40 ADD PUSH1 0x40 MSTORE DUP1 PUSH1 0x1F DUP2 MSTORE PUSH1 0x20 ADD PUSH32 0x536166654D6174683A207375627472616374696F6E20756E646572666C6F7700 DUP2 MSTORE POP PUSH2 0x5A4 JUMP JUMPDEST PUSH2 0x4A4 DUP3 PUSH3 0x201480 PUSH4 0xFFFFFFFF PUSH2 0x3B3 AND JUMP JUMPDEST PUSH1 0x1 SSTORE PUSH2 0x4BA DUP2 PUSH3 0x201480 PUSH4 0xFFFFFFFF PUSH2 0x3B3 AND JUMP JUMPDEST PUSH1 0x0 DUP2 SWAP1 SSTORE PUSH1 0x1 SLOAD PUSH1 0x40 DUP1 MLOAD SWAP2 DUP3 MSTORE PUSH1 0x20 DUP3 ADD SWAP3 SWAP1 SWAP3 MSTORE DUP2 MLOAD PUSH32 0xF35FA19C15E9BA782633A5DF62A98B20217151ADDC68E3FF2CD623A48D37EC27 SWAP3 SWAP2 DUP2 SWAP1 SUB SWAP1 SWAP2 ADD SWAP1 LOG1 POP POP JUMP JUMPDEST PUSH1 0x0 DUP2 DUP4 PUSH2 0x58E JUMPI PUSH1 0x40 MLOAD PUSH3 0x461BCD PUSH1 0xE5 SHL DUP2 MSTORE PUSH1 0x4 ADD DUP1 DUP1 PUSH1 0x20 ADD DUP3 DUP2 SUB DUP3 MSTORE DUP4 DUP2 DUP2 MLOAD DUP2 MSTORE PUSH1 0x20 ADD SWAP2 POP DUP1 MLOAD SWAP1 PUSH1 0x20 ADD SWAP1 DUP1 DUP4 DUP4 PUSH1 0x0 JUMPDEST DUP4 DUP2 LT ISZERO PUSH2 0x553 JUMPI DUP2 DUP2 ADD MLOAD DUP4 DUP3 ADD MSTORE PUSH1 0x20 ADD PUSH2 0x53B JUMP JUMPDEST POP POP POP POP SWAP1 POP SWAP1 DUP2 ADD SWAP1 PUSH1 0x1F AND DUP1 ISZERO PUSH2 0x580 JUMPI DUP1 DUP3 SUB DUP1 MLOAD PUSH1 0x1 DUP4 PUSH1 0x20 SUB PUSH2 0x100 EXP SUB NOT AND DUP2 MSTORE PUSH1 0x20 ADD SWAP2 POP JUMPDEST POP SWAP3 POP POP POP PUSH1 0x40 MLOAD DUP1 SWAP2 SUB SWAP1 REVERT JUMPDEST POP PUSH1 0x0 DUP4 DUP6 DUP2 PUSH2 0x59A JUMPI INVALID JUMPDEST DIV SWAP6 SWAP5 POP POP POP POP POP JUMP JUMPDEST PUSH1 0x0 DUP2 DUP5 DUP5 GT ISZERO PUSH2 0x5F6 JUMPI PUSH1 0x40 MLOAD PUSH3 0x461BCD PUSH1 0xE5 SHL DUP2 MSTORE PUSH1 0x20 PUSH1 0x4 DUP3 ADD DUP2 DUP2 MSTORE DUP4 MLOAD PUSH1 0x24 DUP5 ADD MSTORE DUP4 MLOAD SWAP1 SWAP3 DUP4 SWAP3 PUSH1 0x44 SWAP1 SWAP2 ADD SWAP2 SWAP1 DUP6 ADD SWAP1 DUP1 DUP4 DUP4 PUSH1 0x0 DUP4 ISZERO PUSH2 0x553 JUMPI DUP2 DUP2 ADD MLOAD DUP4 DUP3 ADD MSTORE PUSH1 0x20 ADD PUSH2 0x53B JUMP JUMPDEST POP POP POP SWAP1 SUB SWAP1 JUMP INVALID SLOAD PUSH9 0x69732066756E637469 PUSH16 0x6E2063616E206F6E6C79206265206361 PUSH13 0x6C656420627920746865204164 PUSH14 0x696E536166654D6174683A206D75 PUSH13 0x7469706C69636174696F6E206F PUSH23 0x6572666C6F77A265627A7A72315820ABBB4A672C9BD9DA ORIGIN PUSH26 0xBA25FE3482B7DDA6EF72441A70F5DD0273C42724329B64736F6C PUSH4 0x43000511 STOP ORIGIN "
		},
		"gasEstimates": {
			"creation": {
				"codeDepositCost": "333000",
				"executionCost": "infinite",
				"totalCost": "infinite"
			},
			"external": {
				"admin()": "1125",
				"baseRatePerBlock()": "1064",
				"blocksPerYear()": "220",
				"getBorrowRate(uint256,uint256,uint256)": "infinite",
				"getSupplyRate(uint256,uint256,uint256,uint256)": "infinite",
				"isInterestRateModel()": "227",
				"multiplierPerBlock()": "998",
				"setBaseParameters(uint256,uint256)": "infinite",
				"utilizationRate(uint256,uint256,uint256)": "infinite"
			},
			"internal": {
				"setConstructorParametersInternal(uint256,uint256)": "infinite"
			}
		},
		"methodIdentifiers": {
			"admin()": "f851a440",
			"baseRatePerBlock()": "f14039de",
			"blocksPerYear()": "a385fb96",
			"getBorrowRate(uint256,uint256,uint256)": "15f24053",
			"getSupplyRate(uint256,uint256,uint256,uint256)": "b8168816",
			"isInterestRateModel()": "2191f92a",
			"multiplierPerBlock()": "8726bb89",
			"setBaseParameters(uint256,uint256)": "7bca9a7f",
			"utilizationRate(uint256,uint256,uint256)": "6e71e2d8"
		}
	},
	"abi": [
		{
			"inputs": [
				{
					"internalType": "uint256",
					"name": "baseRatePerYear",
					"type": "uint256"
				},
				{
					"internalType": "uint256",
					"name": "multiplierPerYear",
					"type": "uint256"
				}
			],
			"payable": false,
			"stateMutability": "nonpayable",
			"type": "constructor"
		},
		{
			"anonymous": false,
			"inputs": [
				{
					"indexed": false,
					"internalType": "uint256",
					"name": "baseRatePerBlock",
					"type": "uint256"
				},
				{
					"indexed": false,
					"internalType": "uint256",
					"name": "multiplierPerBlock",
					"type": "uint256"
				}
			],
			"name": "NewInterestParams",
			"type": "event"
		},
		{
			"constant": true,
			"inputs": [],
			"name": "admin",
			"outputs": [
				{
					"internalType": "address",
					"name": "",
					"type": "address"
				}
			],
			"payable": false,
			"stateMutability": "view",
			"type": "function"
		},
		{
			"constant": true,
			"inputs": [],
			"name": "baseRatePerBlock",
			"outputs": [
				{
					"internalType": "uint256",
					"name": "",
					"type": "uint256"
				}
			],
			"payable": false,
			"stateMutability": "view",
			"type": "function"
		},
		{
			"constant": true,
			"inputs": [],
			"name": "blocksPerYear",
			"outputs": [
				{
					"internalType": "uint256",
					"name": "",
					"type": "uint256"
				}
			],
			"payable": false,
			"stateMutability": "view",
			"type": "function"
		},
		{
			"constant": true,
			"inputs": [
				{
					"internalType": "uint256",
					"name": "cash",
					"type": "uint256"
				},
				{
					"internalType": "uint256",
					"name": "borrows",
					"type": "uint256"
				},
				{
					"internalType": "uint256",
					"name": "reserves",
					"type": "uint256"
				}
			],
			"name": "getBorrowRate",
			"outputs": [
				{
					"internalType": "uint256",
					"name": "",
					"type": "uint256"
				}
			],
			"payable": false,
			"stateMutability": "view",
			"type": "function"
		},
		{
			"constant": true,
			"inputs": [
				{
					"internalType": "uint256",
					"name": "cash",
					"type": "uint256"
				},
				{
					"internalType": "uint256",
					"name": "borrows",
					"type": "uint256"
				},
				{
					"internalType": "uint256",
					"name": "reserves",
					"type": "uint256"
				},
				{
					"internalType": "uint256",
					"name": "reserveFactorMantissa",
					"type": "uint256"
				}
			],
			"name": "getSupplyRate",
			"outputs": [
				{
					"internalType": "uint256",
					"name": "",
					"type": "uint256"
				}
			],
			"payable": false,
			"stateMutability": "view",
			"type": "function"
		},
		{
			"constant": true,
			"inputs": [],
			"name": "isInterestRateModel",
			"outputs": [
				{
					"internalType": "bool",
					"name": "",
					"type": "bool"
				}
			],
			"payable": false,
			"stateMutability": "view",
			"type": "function"
		},
		{
			"constant": true,
			"inputs": [],
			"name": "multiplierPerBlock",
			"outputs": [
				{
					"internalType": "uint256",
					"name": "",
					"type": "uint256"
				}
			],
			"payable": false,
			"stateMutability": "view",
			"type": "function"
		},
		{
			"constant": false,
			"inputs": [
				{
					"internalType": "uint256",
					"name": "baseRatePerYear",
					"type": "uint256"
				},
				{
					"internalType": "uint256",
					"name": "multiplierPerYear",
					"type": "uint256"
				}
			],
			"name": "setBaseParameters",
			"outputs": [],
			"payable": false,
			"stateMutability": "nonpayable",
			"type": "function"
		},
		{
			"constant": true,
			"inputs": [
				{
					"internalType": "uint256",
					"name": "cash",
					"type": "uint256"
				},
				{
					"internalType": "uint256",
					"name": "borrows",
					"type": "uint256"
				},
				{
					"internalType": "uint256",
					"name": "reserves",
					"type": "uint256"
				}
			],
			"name": "utilizationRate",
			"outputs": [
				{
					"internalType": "uint256",
					"name": "",
					"type": "uint256"
				}
			],
			"payable": false,
			"stateMutability": "pure",
			"type": "function"
		}
	]
}