{
  "contractName": "CErc20Delegate",
  "abi": [
    {
      "inputs": [],
      "payable": false,
      "stateMutability": "nonpayable",
      "type": "constructor"
    },
    {
      "anonymous": false,
      "inputs": [
        {
          "indexed": false,
          "internalType": "uint256",
          "name": "cashPrior",
          "type": "uint256"
        },
        {
          "indexed": false,
          "internalType": "uint256",
          "name": "interestAccumulated",
          "type": "uint256"
        },
        {
          "indexed": false,
          "internalType": "uint256",
          "name": "borrowIndex",
          "type": "uint256"
        },
        {
          "indexed": false,
          "internalType": "uint256",
          "name": "totalBorrows",
          "type": "uint256"
        }
      ],
      "name": "AccrueInterest",
      "type": "event"
    },
    {
      "anonymous": false,
      "inputs": [
        {
          "indexed": true,
          "internalType": "address",
          "name": "owner",
          "type": "address"
        },
        {
          "indexed": true,
          "internalType": "address",
          "name": "spender",
          "type": "address"
        },
        {
          "indexed": false,
          "internalType": "uint256",
          "name": "amount",
          "type": "uint256"
        }
      ],
      "name": "Approval",
      "type": "event"
    },
    {
      "anonymous": false,
      "inputs": [
        {
          "indexed": false,
          "internalType": "address",
          "name": "borrower",
          "type": "address"
        },
        {
          "indexed": false,
          "internalType": "uint256",
          "name": "borrowAmount",
          "type": "uint256"
        },
        {
          "indexed": false,
          "internalType": "uint256",
          "name": "accountBorrows",
          "type": "uint256"
        },
        {
          "indexed": false,
          "internalType": "uint256",
          "name": "totalBorrows",
          "type": "uint256"
        }
      ],
      "name": "Borrow",
      "type": "event"
    },
    {
      "anonymous": false,
      "inputs": [
        {
          "indexed": false,
          "internalType": "uint256",
          "name": "error",
          "type": "uint256"
        },
        {
          "indexed": false,
          "internalType": "uint256",
          "name": "info",
          "type": "uint256"
        },
        {
          "indexed": false,
          "internalType": "uint256",
          "name": "detail",
          "type": "uint256"
        }
      ],
      "name": "Failure",
      "type": "event"
    },
    {
      "anonymous": false,
      "inputs": [
        {
          "indexed": false,
          "internalType": "address",
          "name": "liquidator",
          "type": "address"
        },
        {
          "indexed": false,
          "internalType": "address",
          "name": "borrower",
          "type": "address"
        },
        {
          "indexed": false,
          "internalType": "uint256",
          "name": "repayAmount",
          "type": "uint256"
        },
        {
          "indexed": false,
          "internalType": "address",
          "name": "cTokenCollateral",
          "type": "address"
        },
        {
          "indexed": false,
          "internalType": "uint256",
          "name": "seizeTokens",
          "type": "uint256"
        }
      ],
      "name": "LiquidateBorrow",
      "type": "event"
    },
    {
      "anonymous": false,
      "inputs": [
        {
          "indexed": false,
          "internalType": "address",
          "name": "minter",
          "type": "address"
        },
        {
          "indexed": false,
          "internalType": "uint256",
          "name": "mintAmount",
          "type": "uint256"
        },
        {
          "indexed": false,
          "internalType": "uint256",
          "name": "mintTokens",
          "type": "uint256"
        }
      ],
      "name": "Mint",
      "type": "event"
    },
    {
      "anonymous": false,
      "inputs": [
        {
          "indexed": false,
          "internalType": "address",
          "name": "oldAdmin",
          "type": "address"
        },
        {
          "indexed": false,
          "internalType": "address",
          "name": "newAdmin",
          "type": "address"
        }
      ],
      "name": "NewAdmin",
      "type": "event"
    },
    {
      "anonymous": false,
      "inputs": [
        {
          "indexed": false,
          "internalType": "contract InterestRateModel",
          "name": "oldInterestRateModel",
          "type": "address"
        },
        {
          "indexed": false,
          "internalType": "contract InterestRateModel",
          "name": "newInterestRateModel",
          "type": "address"
        }
      ],
      "name": "NewMarketInterestRateModel",
      "type": "event"
    },
    {
      "anonymous": false,
      "inputs": [
        {
          "indexed": false,
          "internalType": "address",
          "name": "oldPendingAdmin",
          "type": "address"
        },
        {
          "indexed": false,
          "internalType": "address",
          "name": "newPendingAdmin",
          "type": "address"
        }
      ],
      "name": "NewPendingAdmin",
      "type": "event"
    },
    {
      "anonymous": false,
      "inputs": [
        {
          "indexed": false,
          "internalType": "uint256",
          "name": "oldReserveFactorMantissa",
          "type": "uint256"
        },
        {
          "indexed": false,
          "internalType": "uint256",
          "name": "newReserveFactorMantissa",
          "type": "uint256"
        }
      ],
      "name": "NewReserveFactor",
      "type": "event"
    },
    {
      "anonymous": false,
      "inputs": [
        {
          "indexed": false,
          "internalType": "contract SightrollerInterface",
          "name": "oldSightroller",
          "type": "address"
        },
        {
          "indexed": false,
          "internalType": "contract SightrollerInterface",
          "name": "newSightroller",
          "type": "address"
        }
      ],
      "name": "NewSightroller",
      "type": "event"
    },
    {
      "anonymous": false,
      "inputs": [
        {
          "indexed": false,
          "internalType": "address",
          "name": "redeemer",
          "type": "address"
        },
        {
          "indexed": false,
          "internalType": "uint256",
          "name": "redeemAmount",
          "type": "uint256"
        },
        {
          "indexed": false,
          "internalType": "uint256",
          "name": "redeemTokens",
          "type": "uint256"
        }
      ],
      "name": "Redeem",
      "type": "event"
    },
    {
      "anonymous": false,
      "inputs": [
        {
          "indexed": false,
          "internalType": "address",
          "name": "payer",
          "type": "address"
        },
        {
          "indexed": false,
          "internalType": "address",
          "name": "borrower",
          "type": "address"
        },
        {
          "indexed": false,
          "internalType": "uint256",
          "name": "repayAmount",
          "type": "uint256"
        },
        {
          "indexed": false,
          "internalType": "uint256",
          "name": "accountBorrows",
          "type": "uint256"
        },
        {
          "indexed": false,
          "internalType": "uint256",
          "name": "totalBorrows",
          "type": "uint256"
        }
      ],
      "name": "RepayBorrow",
      "type": "event"
    },
    {
      "anonymous": false,
      "inputs": [
        {
          "indexed": false,
          "internalType": "address",
          "name": "benefactor",
          "type": "address"
        },
        {
          "indexed": false,
          "internalType": "uint256",
          "name": "addAmount",
          "type": "uint256"
        },
        {
          "indexed": false,
          "internalType": "uint256",
          "name": "newTotalReserves",
          "type": "uint256"
        }
      ],
      "name": "ReservesAdded",
      "type": "event"
    },
    {
      "anonymous": false,
      "inputs": [
        {
          "indexed": false,
          "internalType": "address",
          "name": "admin",
          "type": "address"
        },
        {
          "indexed": false,
          "internalType": "uint256",
          "name": "reduceAmount",
          "type": "uint256"
        },
        {
          "indexed": false,
          "internalType": "uint256",
          "name": "newTotalReserves",
          "type": "uint256"
        }
      ],
      "name": "ReservesReduced",
      "type": "event"
    },
    {
      "anonymous": false,
      "inputs": [
        {
          "indexed": true,
          "internalType": "address",
          "name": "from",
          "type": "address"
        },
        {
          "indexed": true,
          "internalType": "address",
          "name": "to",
          "type": "address"
        },
        {
          "indexed": false,
          "internalType": "uint256",
          "name": "amount",
          "type": "uint256"
        }
      ],
      "name": "Transfer",
      "type": "event"
    },
    {
      "constant": false,
      "inputs": [],
      "name": "_acceptAdmin",
      "outputs": [
        {
          "internalType": "uint256",
          "name": "",
          "type": "uint256"
        }
      ],
      "payable": false,
      "stateMutability": "nonpayable",
      "type": "function"
    },
    {
      "constant": false,
      "inputs": [
        {
          "internalType": "uint256",
          "name": "addAmount",
          "type": "uint256"
        }
      ],
      "name": "_addReserves",
      "outputs": [
        {
          "internalType": "uint256",
          "name": "",
          "type": "uint256"
        }
      ],
      "payable": false,
      "stateMutability": "nonpayable",
      "type": "function"
    },
    {
      "constant": false,
      "inputs": [
        {
          "internalType": "uint256",
          "name": "reduceAmount",
          "type": "uint256"
        }
      ],
      "name": "_reduceReserves",
      "outputs": [
        {
          "internalType": "uint256",
          "name": "",
          "type": "uint256"
        }
      ],
      "payable": false,
      "stateMutability": "nonpayable",
      "type": "function"
    },
    {
      "constant": false,
      "inputs": [
        {
          "internalType": "contract InterestRateModel",
          "name": "newInterestRateModel",
          "type": "address"
        }
      ],
      "name": "_setInterestRateModel",
      "outputs": [
        {
          "internalType": "uint256",
          "name": "",
          "type": "uint256"
        }
      ],
      "payable": false,
      "stateMutability": "nonpayable",
      "type": "function"
    },
    {
      "constant": false,
      "inputs": [
        {
          "internalType": "address payable",
          "name": "newPendingAdmin",
          "type": "address"
        }
      ],
      "name": "_setPendingAdmin",
      "outputs": [
        {
          "internalType": "uint256",
          "name": "",
          "type": "uint256"
        }
      ],
      "payable": false,
      "stateMutability": "nonpayable",
      "type": "function"
    },
    {
      "constant": false,
      "inputs": [
        {
          "internalType": "uint256",
          "name": "newReserveFactorMantissa",
          "type": "uint256"
        }
      ],
      "name": "_setReserveFactor",
      "outputs": [
        {
          "internalType": "uint256",
          "name": "",
          "type": "uint256"
        }
      ],
      "payable": false,
      "stateMutability": "nonpayable",
      "type": "function"
    },
    {
      "constant": false,
      "inputs": [
        {
          "internalType": "contract SightrollerInterface",
          "name": "newSightroller",
          "type": "address"
        }
      ],
      "name": "_setSightroller",
      "outputs": [
        {
          "internalType": "uint256",
          "name": "",
          "type": "uint256"
        }
      ],
      "payable": false,
      "stateMutability": "nonpayable",
      "type": "function"
    },
    {
      "constant": true,
      "inputs": [],
      "name": "accrualBlockNumber",
      "outputs": [
        {
          "internalType": "uint256",
          "name": "",
          "type": "uint256"
        }
      ],
      "payable": false,
      "stateMutability": "view",
      "type": "function"
    },
    {
      "constant": false,
      "inputs": [],
      "name": "accrueInterest",
      "outputs": [
        {
          "internalType": "uint256",
          "name": "",
          "type": "uint256"
        }
      ],
      "payable": false,
      "stateMutability": "nonpayable",
      "type": "function"
    },
    {
      "constant": true,
      "inputs": [],
      "name": "admin",
      "outputs": [
        {
          "internalType": "address payable",
          "name": "",
          "type": "address"
        }
      ],
      "payable": false,
      "stateMutability": "view",
      "type": "function"
    },
    {
      "constant": true,
      "inputs": [
        {
          "internalType": "address",
          "name": "owner",
          "type": "address"
        },
        {
          "internalType": "address",
          "name": "spender",
          "type": "address"
        }
      ],
      "name": "allowance",
      "outputs": [
        {
          "internalType": "uint256",
          "name": "",
          "type": "uint256"
        }
      ],
      "payable": false,
      "stateMutability": "view",
      "type": "function"
    },
    {
      "constant": false,
      "inputs": [
        {
          "internalType": "address",
          "name": "spender",
          "type": "address"
        },
        {
          "internalType": "uint256",
          "name": "amount",
          "type": "uint256"
        }
      ],
      "name": "approve",
      "outputs": [
        {
          "internalType": "bool",
          "name": "",
          "type": "bool"
        }
      ],
      "payable": false,
      "stateMutability": "nonpayable",
      "type": "function"
    },
    {
      "constant": true,
      "inputs": [
        {
          "internalType": "address",
          "name": "owner",
          "type": "address"
        }
      ],
      "name": "balanceOf",
      "outputs": [
        {
          "internalType": "uint256",
          "name": "",
          "type": "uint256"
        }
      ],
      "payable": false,
      "stateMutability": "view",
      "type": "function"
    },
    {
      "constant": false,
      "inputs": [
        {
          "internalType": "address",
          "name": "owner",
          "type": "address"
        }
      ],
      "name": "balanceOfUnderlying",
      "outputs": [
        {
          "internalType": "uint256",
          "name": "",
          "type": "uint256"
        }
      ],
      "payable": false,
      "stateMutability": "nonpayable",
      "type": "function"
    },
    {
      "constant": false,
      "inputs": [
        {
          "internalType": "uint256",
          "name": "borrowAmount",
          "type": "uint256"
        }
      ],
      "name": "borrow",
      "outputs": [
        {
          "internalType": "uint256",
          "name": "",
          "type": "uint256"
        }
      ],
      "payable": false,
      "stateMutability": "nonpayable",
      "type": "function"
    },
    {
      "constant": false,
      "inputs": [
        {
          "internalType": "address",
          "name": "account",
          "type": "address"
        }
      ],
      "name": "borrowBalanceCurrent",
      "outputs": [
        {
          "internalType": "uint256",
          "name": "",
          "type": "uint256"
        }
      ],
      "payable": false,
      "stateMutability": "nonpayable",
      "type": "function"
    },
    {
      "constant": true,
      "inputs": [
        {
          "internalType": "address",
          "name": "account",
          "type": "address"
        }
      ],
      "name": "borrowBalanceStored",
      "outputs": [
        {
          "internalType": "uint256",
          "name": "",
          "type": "uint256"
        }
      ],
      "payable": false,
      "stateMutability": "view",
      "type": "function"
    },
    {
      "constant": true,
      "inputs": [],
      "name": "borrowIndex",
      "outputs": [
        {
          "internalType": "uint256",
          "name": "",
          "type": "uint256"
        }
      ],
      "payable": false,
      "stateMutability": "view",
      "type": "function"
    },
    {
      "constant": true,
      "inputs": [],
      "name": "borrowRatePerBlock",
      "outputs": [
        {
          "internalType": "uint256",
          "name": "",
          "type": "uint256"
        }
      ],
      "payable": false,
      "stateMutability": "view",
      "type": "function"
    },
    {
      "constant": true,
      "inputs": [],
      "name": "decimals",
      "outputs": [
        {
          "internalType": "uint8",
          "name": "",
          "type": "uint8"
        }
      ],
      "payable": false,
      "stateMutability": "view",
      "type": "function"
    },
    {
      "constant": false,
      "inputs": [],
      "name": "exchangeRateCurrent",
      "outputs": [
        {
          "internalType": "uint256",
          "name": "",
          "type": "uint256"
        }
      ],
      "payable": false,
      "stateMutability": "nonpayable",
      "type": "function"
    },
    {
      "constant": true,
      "inputs": [],
      "name": "exchangeRateStored",
      "outputs": [
        {
          "internalType": "uint256",
          "name": "",
          "type": "uint256"
        }
      ],
      "payable": false,
      "stateMutability": "view",
      "type": "function"
    },
    {
      "constant": true,
      "inputs": [
        {
          "internalType": "address",
          "name": "account",
          "type": "address"
        }
      ],
      "name": "getAccountSnapshot",
      "outputs": [
        {
          "internalType": "uint256",
          "name": "",
          "type": "uint256"
        },
        {
          "internalType": "uint256",
          "name": "",
          "type": "uint256"
        },
        {
          "internalType": "uint256",
          "name": "",
          "type": "uint256"
        },
        {
          "internalType": "uint256",
          "name": "",
          "type": "uint256"
        }
      ],
      "payable": false,
      "stateMutability": "view",
      "type": "function"
    },
    {
      "constant": true,
      "inputs": [],
      "name": "getCash",
      "outputs": [
        {
          "internalType": "uint256",
          "name": "",
          "type": "uint256"
        }
      ],
      "payable": false,
      "stateMutability": "view",
      "type": "function"
    },
    {
      "constant": true,
      "inputs": [],
      "name": "implementation",
      "outputs": [
        {
          "internalType": "address",
          "name": "",
          "type": "address"
        }
      ],
      "payable": false,
      "stateMutability": "view",
      "type": "function"
    },
    {
      "constant": false,
      "inputs": [
        {
          "internalType": "address",
          "name": "underlying_",
          "type": "address"
        },
        {
          "internalType": "contract SightrollerInterface",
          "name": "sightroller_",
          "type": "address"
        },
        {
          "internalType": "contract InterestRateModel",
          "name": "interestRateModel_",
          "type": "address"
        },
        {
          "internalType": "uint256",
          "name": "initialExchangeRateMantissa_",
          "type": "uint256"
        },
        {
          "internalType": "string",
          "name": "name_",
          "type": "string"
        },
        {
          "internalType": "string",
          "name": "symbol_",
          "type": "string"
        },
        {
          "internalType": "uint8",
          "name": "decimals_",
          "type": "uint8"
        }
      ],
      "name": "initialize",
      "outputs": [],
      "payable": false,
      "stateMutability": "nonpayable",
      "type": "function"
    },
    {
      "constant": false,
      "inputs": [
        {
          "internalType": "contract SightrollerInterface",
          "name": "sightroller_",
          "type": "address"
        },
        {
          "internalType": "contract InterestRateModel",
          "name": "interestRateModel_",
          "type": "address"
        },
        {
          "internalType": "uint256",
          "name": "initialExchangeRateMantissa_",
          "type": "uint256"
        },
        {
          "internalType": "string",
          "name": "name_",
          "type": "string"
        },
        {
          "internalType": "string",
          "name": "symbol_",
          "type": "string"
        },
        {
          "internalType": "uint8",
          "name": "decimals_",
          "type": "uint8"
        }
      ],
      "name": "initialize",
      "outputs": [],
      "payable": false,
      "stateMutability": "nonpayable",
      "type": "function"
    },
    {
      "constant": true,
      "inputs": [],
      "name": "interestRateModel",
      "outputs": [
        {
          "internalType": "contract InterestRateModel",
          "name": "",
          "type": "address"
        }
      ],
      "payable": false,
      "stateMutability": "view",
      "type": "function"
    },
    {
      "constant": true,
      "inputs": [],
      "name": "isCToken",
      "outputs": [
        {
          "internalType": "bool",
          "name": "",
          "type": "bool"
        }
      ],
      "payable": false,
      "stateMutability": "view",
      "type": "function"
    },
    {
      "constant": false,
      "inputs": [
        {
          "internalType": "address",
          "name": "borrower",
          "type": "address"
        },
        {
          "internalType": "uint256",
          "name": "repayAmount",
          "type": "uint256"
        },
        {
          "internalType": "contract CTokenInterface",
          "name": "cTokenCollateral",
          "type": "address"
        }
      ],
      "name": "liquidateBorrow",
      "outputs": [
        {
          "internalType": "uint256",
          "name": "",
          "type": "uint256"
        }
      ],
      "payable": false,
      "stateMutability": "nonpayable",
      "type": "function"
    },
    {
      "constant": false,
      "inputs": [
        {
          "internalType": "uint256",
          "name": "mintAmount",
          "type": "uint256"
        }
      ],
      "name": "mint",
      "outputs": [
        {
          "internalType": "uint256",
          "name": "",
          "type": "uint256"
        }
      ],
      "payable": false,
      "stateMutability": "nonpayable",
      "type": "function"
    },
    {
      "constant": true,
      "inputs": [],
      "name": "name",
      "outputs": [
        {
          "internalType": "string",
          "name": "",
          "type": "string"
        }
      ],
      "payable": false,
      "stateMutability": "view",
      "type": "function"
    },
    {
      "constant": true,
      "inputs": [],
      "name": "pendingAdmin",
      "outputs": [
        {
          "internalType": "address payable",
          "name": "",
          "type": "address"
        }
      ],
      "payable": false,
      "stateMutability": "view",
      "type": "function"
    },
    {
      "constant": false,
      "inputs": [
        {
          "internalType": "uint256",
          "name": "redeemTokens",
          "type": "uint256"
        }
      ],
      "name": "redeem",
      "outputs": [
        {
          "internalType": "uint256",
          "name": "",
          "type": "uint256"
        }
      ],
      "payable": false,
      "stateMutability": "nonpayable",
      "type": "function"
    },
    {
      "constant": false,
      "inputs": [
        {
          "internalType": "uint256",
          "name": "redeemAmount",
          "type": "uint256"
        }
      ],
      "name": "redeemUnderlying",
      "outputs": [
        {
          "internalType": "uint256",
          "name": "",
          "type": "uint256"
        }
      ],
      "payable": false,
      "stateMutability": "nonpayable",
      "type": "function"
    },
    {
      "constant": false,
      "inputs": [
        {
          "internalType": "uint256",
          "name": "repayAmount",
          "type": "uint256"
        }
      ],
      "name": "repayBorrow",
      "outputs": [
        {
          "internalType": "uint256",
          "name": "",
          "type": "uint256"
        }
      ],
      "payable": false,
      "stateMutability": "nonpayable",
      "type": "function"
    },
    {
      "constant": false,
      "inputs": [
        {
          "internalType": "address",
          "name": "borrower",
          "type": "address"
        },
        {
          "internalType": "uint256",
          "name": "repayAmount",
          "type": "uint256"
        }
      ],
      "name": "repayBorrowBehalf",
      "outputs": [
        {
          "internalType": "uint256",
          "name": "",
          "type": "uint256"
        }
      ],
      "payable": false,
      "stateMutability": "nonpayable",
      "type": "function"
    },
    {
      "constant": true,
      "inputs": [],
      "name": "reserveFactorMantissa",
      "outputs": [
        {
          "internalType": "uint256",
          "name": "",
          "type": "uint256"
        }
      ],
      "payable": false,
      "stateMutability": "view",
      "type": "function"
    },
    {
      "constant": false,
      "inputs": [
        {
          "internalType": "address",
          "name": "liquidator",
          "type": "address"
        },
        {
          "internalType": "address",
          "name": "borrower",
          "type": "address"
        },
        {
          "internalType": "uint256",
          "name": "seizeTokens",
          "type": "uint256"
        }
      ],
      "name": "seize",
      "outputs": [
        {
          "internalType": "uint256",
          "name": "",
          "type": "uint256"
        }
      ],
      "payable": false,
      "stateMutability": "nonpayable",
      "type": "function"
    },
    {
      "constant": true,
      "inputs": [],
      "name": "sightroller",
      "outputs": [
        {
          "internalType": "contract SightrollerInterface",
          "name": "",
          "type": "address"
        }
      ],
      "payable": false,
      "stateMutability": "view",
      "type": "function"
    },
    {
      "constant": true,
      "inputs": [],
      "name": "supplyRatePerBlock",
      "outputs": [
        {
          "internalType": "uint256",
          "name": "",
          "type": "uint256"
        }
      ],
      "payable": false,
      "stateMutability": "view",
      "type": "function"
    },
    {
      "constant": true,
      "inputs": [],
      "name": "symbol",
      "outputs": [
        {
          "internalType": "string",
          "name": "",
          "type": "string"
        }
      ],
      "payable": false,
      "stateMutability": "view",
      "type": "function"
    },
    {
      "constant": true,
      "inputs": [],
      "name": "totalBorrows",
      "outputs": [
        {
          "internalType": "uint256",
          "name": "",
          "type": "uint256"
        }
      ],
      "payable": false,
      "stateMutability": "view",
      "type": "function"
    },
    {
      "constant": false,
      "inputs": [],
      "name": "totalBorrowsCurrent",
      "outputs": [
        {
          "internalType": "uint256",
          "name": "",
          "type": "uint256"
        }
      ],
      "payable": false,
      "stateMutability": "nonpayable",
      "type": "function"
    },
    {
      "constant": true,
      "inputs": [],
      "name": "totalReserves",
      "outputs": [
        {
          "internalType": "uint256",
          "name": "",
          "type": "uint256"
        }
      ],
      "payable": false,
      "stateMutability": "view",
      "type": "function"
    },
    {
      "constant": true,
      "inputs": [],
      "name": "totalSupply",
      "outputs": [
        {
          "internalType": "uint256",
          "name": "",
          "type": "uint256"
        }
      ],
      "payable": false,
      "stateMutability": "view",
      "type": "function"
    },
    {
      "constant": false,
      "inputs": [
        {
          "internalType": "address",
          "name": "dst",
          "type": "address"
        },
        {
          "internalType": "uint256",
          "name": "amount",
          "type": "uint256"
        }
      ],
      "name": "transfer",
      "outputs": [
        {
          "internalType": "bool",
          "name": "",
          "type": "bool"
        }
      ],
      "payable": false,
      "stateMutability": "nonpayable",
      "type": "function"
    },
    {
      "constant": false,
      "inputs": [
        {
          "internalType": "address",
          "name": "src",
          "type": "address"
        },
        {
          "internalType": "address",
          "name": "dst",
          "type": "address"
        },
        {
          "internalType": "uint256",
          "name": "amount",
          "type": "uint256"
        }
      ],
      "name": "transferFrom",
      "outputs": [
        {
          "internalType": "bool",
          "name": "",
          "type": "bool"
        }
      ],
      "payable": false,
      "stateMutability": "nonpayable",
      "type": "function"
    },
    {
      "constant": true,
      "inputs": [],
      "name": "underlying",
      "outputs": [
        {
          "internalType": "address",
          "name": "",
          "type": "address"
        }
      ],
      "payable": false,
      "stateMutability": "view",
      "type": "function"
    },
    {
      "constant": false,
      "inputs": [],
      "name": "_becomeImplementation",
      "outputs": [],
      "payable": false,
      "stateMutability": "nonpayable",
      "type": "function"
    },
    {
      "constant": false,
      "inputs": [],
      "name": "_resignImplementation",
      "outputs": [],
      "payable": false,
      "stateMutability": "nonpayable",
      "type": "function"
    }
  ],
  "bytecode": "0x608060405234801561001057600080fd5b5060038054610100600160a81b03191633610100021790556150a7806100376000396000f3fe608060405234801561001057600080fd5b50600436106102f15760003560e01c806373acee981161019d578063bd6d894d116100e9578063f2b3abbd116100a2578063f851a4401161007c578063f851a44014610a96578063f8f9da2814610a9e578063fca7820b14610aa6578063fe9c44ae14610ac3576102f1565b8063f2b3abbd14610a32578063f3fdb15a14610a58578063f5e3c46214610a60576102f1565b8063bd6d894d1461096e578063c37f68e214610976578063c5ebeaec146109c2578063db006a75146109df578063dd62ed3e146109fc578063e9c714f214610a2a576102f1565b8063a0712d6811610156578063aa5af0fd11610130578063aa5af0fd14610902578063ae9d70b01461090a578063b2a02ff114610912578063b71d1a0c14610948576102f1565b8063a0712d68146108b1578063a6afed95146108ce578063a9059cbb146108d6576102f1565b806373acee9814610708578063852a12e3146107105780638f840ddd1461072d57806395d89b411461073557806395dd91931461073d57806399d8c1b414610763576102f1565b8063313ce5671161025c5780635c60da1b116102155780636779b6d9116101ef5780636779b6d9146106ac5780636c540baf146106d25780636f307dc3146106da57806370a08231146106e2576102f1565b80635c60da1b1461067f5780635d72de6214610687578063601a0bf11461068f576102f1565b8063313ce5671461060657806339335f1f146106245780633af9e6691461062c5780633b1d21a2146106525780633e9410101461065a57806347bd371814610677576102f1565b806318160ddd116102ae57806318160ddd1461041a578063182df0f5146104225780631a31d4651461042a57806323b872dd146105805780632608f818146105b657806326782247146105e2576102f1565b806306fdde03146102f6578063095ea7b3146103735780630e752702146103b3578063153ab505146103e2578063173b9904146103ec57806317bfdfbc146103f4575b600080fd5b6102fe610acb565b6040805160208082528351818301528351919283929083019185019080838360005b83811015610338578181015183820152602001610320565b50505050905090810190601f1680156103655780820380516001836020036101000a031916815260200191505b509250505060405180910390f35b61039f6004803603604081101561038957600080fd5b506001600160a01b038135169060200135610b58565b604080519115158252519081900360200190f35b6103d0600480360360208110156103c957600080fd5b5035610bc5565b60408051918252519081900360200190f35b6103ea610bdb565b005b6103d0610c2b565b6103d06004803603602081101561040a57600080fd5b50356001600160a01b0316610c31565b6103d0610cf1565b6103d0610cf7565b6103ea600480360360e081101561044057600080fd5b6001600160a01b03823581169260208101358216926040820135909216916060820135919081019060a081016080820135600160201b81111561048257600080fd5b82018360208201111561049457600080fd5b803590602001918460018302840111600160201b831117156104b557600080fd5b91908080601f0160208091040260200160405190810160405280939291908181526020018383808284376000920191909152509295949360208101935035915050600160201b81111561050757600080fd5b82018360208201111561051957600080fd5b803590602001918460018302840111600160201b8311171561053a57600080fd5b91908080601f0160208091040260200160405190810160405280939291908181526020018383808284376000920191909152509295505050903560ff169150610d5a9050565b61039f6004803603606081101561059657600080fd5b506001600160a01b03813581169160208101359091169060400135610df9565b6103d0600480360360408110156105cc57600080fd5b506001600160a01b038135169060200135610e6b565b6105ea610e81565b604080516001600160a01b039092168252519081900360200190f35b61060e610e90565b6040805160ff9092168252519081900360200190f35b6105ea610e99565b6103d06004803603602081101561064257600080fd5b50356001600160a01b0316610ea8565b6103d0610f5e565b6103d06004803603602081101561067057600080fd5b5035610f6d565b6103d0610f78565b6105ea610f7e565b6103ea610f8d565b6103d0600480360360208110156106a557600080fd5b5035610fdb565b6103d0600480360360208110156106c257600080fd5b50356001600160a01b0316611076565b6103d06111cd565b6105ea6111d3565b6103d0600480360360208110156106f857600080fd5b50356001600160a01b03166111e2565b6103d06111fd565b6103d06004803603602081101561072657600080fd5b50356112b3565b6103d06112be565b6102fe6112c4565b6103d06004803603602081101561075357600080fd5b50356001600160a01b031661131c565b6103ea600480360360c081101561077957600080fd5b6001600160a01b03823581169260208101359091169160408201359190810190608081016060820135600160201b8111156107b357600080fd5b8201836020820111156107c557600080fd5b803590602001918460018302840111600160201b831117156107e657600080fd5b91908080601f0160208091040260200160405190810160405280939291908181526020018383808284376000920191909152509295949360208101935035915050600160201b81111561083857600080fd5b82018360208201111561084a57600080fd5b803590602001918460018302840111600160201b8311171561086b57600080fd5b91908080601f0160208091040260200160405190810160405280939291908181526020018383808284376000920191909152509295505050903560ff1691506113799050565b6103d0600480360360208110156108c757600080fd5b5035611560565b6103d061156c565b61039f600480360360408110156108ec57600080fd5b506001600160a01b0381351690602001356118c4565b6103d0611935565b6103d061193b565b6103d06004803603606081101561092857600080fd5b506001600160a01b038135811691602081013590911690604001356119da565b6103d06004803603602081101561095e57600080fd5b50356001600160a01b0316611a4b565b6103d0611ad7565b61099c6004803603602081101561098c57600080fd5b50356001600160a01b0316611b93565b604080519485526020850193909352838301919091526060830152519081900360800190f35b6103d0600480360360208110156109d857600080fd5b5035611c28565b6103d0600480360360208110156109f557600080fd5b5035611c33565b6103d060048036036040811015610a1257600080fd5b506001600160a01b0381358116916020013516611c3e565b6103d0611c69565b6103d060048036036020811015610a4857600080fd5b50356001600160a01b0316611d6c565b6105ea611da6565b6103d060048036036060811015610a7657600080fd5b506001600160a01b03813581169160208101359160409091013516611db5565b6105ea611dcd565b6103d0611de1565b6103d060048036036020811015610abc57600080fd5b5035611e45565b61039f611ec3565b60018054604080516020600284861615610100026000190190941693909304601f81018490048402820184019092528181529291830182828015610b505780601f10610b2557610100808354040283529160200191610b50565b820191906000526020600020905b815481529060010190602001808311610b3357829003601f168201915b505050505081565b336000818152600f602090815260408083206001600160a01b03871680855290835281842086905581518681529151939493909284927f8c5be1e5ebec7d5bd14f71427d1e84f3dd0314c0f7b2291e5b200ac8c7c3b925929081900390910190a360019150505b92915050565b600080610bd183611ec8565b509150505b919050565b60035461010090046001600160a01b03163314610c295760405162461bcd60e51b815260040180806020018281038252602d815260200180614e44602d913960400191505060405180910390fd5b565b60085481565b6000805460ff16610c76576040805162461bcd60e51b815260206004820152600a6024820152691c994b595b9d195c995960b21b604482015290519081900360640190fd5b6000805460ff19168155610c8861156c565b14610cd3576040805162461bcd60e51b81526020600482015260166024820152751858d8dc9d59481a5b9d195c995cdd0819985a5b195960521b604482015290519081900360640190fd5b610cdc8261131c565b90505b6000805460ff19166001179055919050565b600d5481565b6000806000610d04611f71565b90925090506000826003811115610d1757fe5b14610d535760405162461bcd60e51b8152600401808060200182810382526035815260200180614f5e6035913960400191505060405180910390fd5b9150505b90565b610d68868686868686611379565b601180546001600160a01b0319166001600160a01b038981169190911791829055604080516318160ddd60e01b8152905192909116916318160ddd91600480820192602092909190829003018186803b158015610dc457600080fd5b505afa158015610dd8573d6000803e3d6000fd5b505050506040513d6020811015610dee57600080fd5b505050505050505050565b6000805460ff16610e3e576040805162461bcd60e51b815260206004820152600a6024820152691c994b595b9d195c995960b21b604482015290519081900360640190fd5b6000805460ff19168155610e5433868686612020565b1490506000805460ff191660011790559392505050565b600080610e78848461232e565b50949350505050565b6004546001600160a01b031681565b60035460ff1681565b6005546001600160a01b031681565b6000610eb2614c52565b6040518060200160405280610ec5611ad7565b90526001600160a01b0384166000908152600e6020526040812054919250908190610ef19084906123d9565b90925090506000826003811115610f0457fe5b14610f56576040805162461bcd60e51b815260206004820152601f60248201527f62616c616e636520636f756c64206e6f742062652063616c63756c6174656400604482015290519081900360640190fd5b949350505050565b6000610f6861242d565b905090565b6000610bbf826124ad565b600b5481565b6012546001600160a01b031681565b60035461010090046001600160a01b03163314610c295760405162461bcd60e51b815260040180806020018281038252602d815260200180615046602d913960400191505060405180910390fd5b6000805460ff16611020576040805162461bcd60e51b815260206004820152600a6024820152691c994b595b9d195c995960b21b604482015290519081900360640190fd5b6000805460ff1916815561103261156c565b905080156110585761105081601081111561104957fe5b6030612541565b915050610cdf565b611061836125a7565b9150506000805460ff19166001179055919050565b60035460009061010090046001600160a01b031633146110a35761109c6001603f612541565b9050610bd6565b600554604080516320916f8160e01b815290516001600160a01b03928316928516916320916f81916004808301926020929190829003018186803b1580156110ea57600080fd5b505afa1580156110fe573d6000803e3d6000fd5b505050506040513d602081101561111457600080fd5b5051611167576040805162461bcd60e51b815260206004820152601c60248201527f6d61726b6572206d6574686f642072657475726e65642066616c736500000000604482015290519081900360640190fd5b600580546001600160a01b0319166001600160a01b03858116918217909255604080519284168352602083019190915280517fe5c13e6b6a767381c79ee0c7a30af3224b66ae32c840aa0c1a1a97e713bbc1469281900390910190a160005b9392505050565b60095481565b6011546001600160a01b031681565b6001600160a01b03166000908152600e602052604090205490565b6000805460ff16611242576040805162461bcd60e51b815260206004820152600a6024820152691c994b595b9d195c995960b21b604482015290519081900360640190fd5b6000805460ff1916815561125461156c565b1461129f576040805162461bcd60e51b81526020600482015260166024820152751858d8dc9d59481a5b9d195c995cdd0819985a5b195960521b604482015290519081900360640190fd5b50600b546000805460ff1916600117905590565b6000610bbf826126da565b600c5481565b6002805460408051602060018416156101000260001901909316849004601f81018490048402820184019092528181529291830182828015610b505780601f10610b2557610100808354040283529160200191610b50565b600080600061132a8461275b565b9092509050600082600381111561133d57fe5b146111c65760405162461bcd60e51b8152600401808060200182810382526037815260200180614e9c6037913960400191505060405180910390fd5b60035461010090046001600160a01b031633146113c75760405162461bcd60e51b8152600401808060200182810382526024815260200180614dab6024913960400191505060405180910390fd5b6009541580156113d75750600a54155b6114125760405162461bcd60e51b8152600401808060200182810382526023815260200180614dcf6023913960400191505060405180910390fd5b6007849055836114535760405162461bcd60e51b8152600401808060200182810382526030815260200180614df26030913960400191505060405180910390fd5b600061145e87611076565b905080156114b3576040805162461bcd60e51b815260206004820152601a60248201527f73657474696e67207369676874726f6c6c6572206661696c6564000000000000604482015290519081900360640190fd5b6114bb61280f565b600955670de0b6b3a7640000600a556114d386612813565b905080156115125760405162461bcd60e51b8152600401808060200182810382526022815260200180614e226022913960400191505060405180910390fd5b8351611525906001906020870190614c65565b508251611539906002906020860190614c65565b50506003805460ff90921660ff199283161790556000805490911660011790555050505050565b600080610bd183612988565b60008061157761280f565b6009549091508082141561159057600092505050610d57565b600061159a61242d565b600b54600c54600a54600654604080516315f2405360e01b815260048101879052602481018690526044810185905290519596509394929391926000926001600160a01b03909216916315f24053916064808301926020929190829003018186803b15801561160857600080fd5b505afa15801561161c573d6000803e3d6000fd5b505050506040513d602081101561163257600080fd5b5051905065048c27395000811115611691576040805162461bcd60e51b815260206004820152601c60248201527f626f72726f772072617465206973206162737572646c79206869676800000000604482015290519081900360640190fd5b60008061169e8989612a09565b909250905060008260038111156116b157fe5b14611703576040805162461bcd60e51b815260206004820152601f60248201527f636f756c64206e6f742063616c63756c61746520626c6f636b2064656c746100604482015290519081900360640190fd5b61170b614c52565b60008060008061172960405180602001604052808a81525087612a2c565b9097509450600087600381111561173c57fe5b1461176e576117596009600689600381111561175457fe5b612a94565b9e505050505050505050505050505050610d57565b611778858c6123d9565b9097509350600087600381111561178b57fe5b146117a3576117596009600189600381111561175457fe5b6117ad848c612afa565b909750925060008760038111156117c057fe5b146117d8576117596009600489600381111561175457fe5b6117f36040518060200160405280600854815250858c612b20565b9097509150600087600381111561180657fe5b1461181e576117596009600589600381111561175457fe5b611829858a8b612b20565b9097509050600087600381111561183c57fe5b14611854576117596009600389600381111561175457fe5b60098e9055600a819055600b839055600c829055604080518d8152602081018690528082018390526060810185905290517f4dec04e750ca11537cabcd8a9eab06494de08da3735bc8871cd41250e190bc049181900360800190a160009e50505050505050505050505050505090565b6000805460ff16611909576040805162461bcd60e51b815260206004820152600a6024820152691c994b595b9d195c995960b21b604482015290519081900360640190fd5b6000805460ff1916815561191f33338686612020565b1490506000805460ff1916600117905592915050565b600a5481565b6006546000906001600160a01b031663b816881661195761242d565b600b54600c546008546040518563ffffffff1660e01b81526004018085815260200184815260200183815260200182815260200194505050505060206040518083038186803b1580156119a957600080fd5b505afa1580156119bd573d6000803e3d6000fd5b505050506040513d60208110156119d357600080fd5b5051905090565b6000805460ff16611a1f576040805162461bcd60e51b815260206004820152600a6024820152691c994b595b9d195c995960b21b604482015290519081900360640190fd5b6000805460ff19169055611a3533858585612b7c565b90506000805460ff191660011790559392505050565b60035460009061010090046001600160a01b03163314611a715761109c60016045612541565b600480546001600160a01b038481166001600160a01b0319831681179093556040805191909216808252602082019390935281517fca4f2f25d0898edd99413412fb94012f9e54ec8142f9b093e7720646a95b16a9929181900390910190a160006111c6565b6000805460ff16611b1c576040805162461bcd60e51b815260206004820152600a6024820152691c994b595b9d195c995960b21b604482015290519081900360640190fd5b6000805460ff19168155611b2e61156c565b14611b79576040805162461bcd60e51b81526020600482015260166024820152751858d8dc9d59481a5b9d195c995cdd0819985a5b195960521b604482015290519081900360640190fd5b611b81610cf7565b90506000805460ff1916600117905590565b6001600160a01b0381166000908152600e6020526040812054819081908190818080611bbe8961275b565b935090506000816003811115611bd057fe5b14611bee5760095b975060009650869550859450611c219350505050565b611bf6611f71565b925090506000816003811115611c0857fe5b14611c14576009611bd8565b5060009650919450925090505b9193509193565b6000610bbf82612de2565b6000610bbf82612e61565b6001600160a01b039182166000908152600f6020908152604080832093909416825291909152205490565b6004546000906001600160a01b031633141580611c84575033155b15611c9c57611c9560016000612541565b9050610d57565b60038054600480546001600160a01b03818116610100818102610100600160a81b0319871617968790556001600160a01b031990931690935560408051948390048216808652929095041660208401528351909391927ff9ffabca9c8276e99321725bcb43fb076a6c66a54b7f21c4e8146d8519b417dc92908290030190a1600454604080516001600160a01b038085168252909216602083015280517fca4f2f25d0898edd99413412fb94012f9e54ec8142f9b093e7720646a95b16a99281900390910190a160009250505090565b600080611d7761156c565b90508015611d9d57611d95816010811115611d8e57fe5b6040612541565b915050610bd6565b6111c683612813565b6006546001600160a01b031681565b600080611dc3858585612edb565b5095945050505050565b60035461010090046001600160a01b031681565b6006546000906001600160a01b03166315f24053611dfd61242d565b600b54600c546040518463ffffffff1660e01b815260040180848152602001838152602001828152602001935050505060206040518083038186803b1580156119a957600080fd5b6000805460ff16611e8a576040805162461bcd60e51b815260206004820152600a6024820152691c994b595b9d195c995960b21b604482015290519081900360640190fd5b6000805460ff19168155611e9c61156c565b90508015611eba57611050816010811115611eb357fe5b6046612541565b6110618361300d565b600181565b60008054819060ff16611f0f576040805162461bcd60e51b815260206004820152600a6024820152691c994b595b9d195c995960b21b604482015290519081900360640190fd5b6000805460ff19168155611f2161156c565b90508015611f4c57611f3f816010811115611f3857fe5b6036612541565b925060009150611f5d9050565b611f573333866130b5565b92509250505b6000805460ff191660011790559092909150565b600d54600090819080611f8c5750506007546000915061201c565b6000611f9661242d565b90506000611fa2614c52565b6000611fb384600b54600c5461349a565b935090506000816003811115611fc557fe5b14611fda5795506000945061201c9350505050565b611fe483866134d8565b925090506000816003811115611ff657fe5b1461200b5795506000945061201c9350505050565b505160009550935061201c92505050565b9091565b600554604080516317b9b84b60e31b81523060048201526001600160a01b03868116602483015285811660448301526064820185905291516000938493169163bdcdc25891608480830192602092919082900301818787803b15801561208557600080fd5b505af1158015612099573d6000803e3d6000fd5b505050506040513d60208110156120af57600080fd5b5051905080156120ce576120c66003604a83612a94565b915050610f56565b836001600160a01b0316856001600160a01b031614156120f4576120c66002604b612541565b60006001600160a01b038781169087161415612113575060001961213b565b506001600160a01b038086166000908152600f60209081526040808320938a16835292905220545b60008060008061214b8589612a09565b9094509250600084600381111561215e57fe5b1461217c5761216f6009604b612541565b9650505050505050610f56565b6001600160a01b038a166000908152600e602052604090205461219f9089612a09565b909450915060008460038111156121b257fe5b146121c35761216f6009604c612541565b6001600160a01b0389166000908152600e60205260409020546121e69089612afa565b909450905060008460038111156121f957fe5b1461220a5761216f6009604d612541565b6001600160a01b03808b166000908152600e6020526040808220859055918b168152208190556000198514612262576001600160a01b03808b166000908152600f60209081526040808320938f168352929052208390555b886001600160a01b03168a6001600160a01b0316600080516020614f0d8339815191528a6040518082815260200191505060405180910390a36005546040805163352b4a3f60e11b81523060048201526001600160a01b038d811660248301528c81166044830152606482018c905291519190921691636a56947e91608480830192600092919082900301818387803b1580156122fe57600080fd5b505af1158015612312573d6000803e3d6000fd5b506000925061231f915050565b9b9a5050505050505050505050565b60008054819060ff16612375576040805162461bcd60e51b815260206004820152600a6024820152691c994b595b9d195c995960b21b604482015290519081900360640190fd5b6000805460ff1916815561238761156c565b905080156123b2576123a581601081111561239e57fe5b6035612541565b9250600091506123c39050565b6123bd3386866130b5565b92509250505b6000805460ff1916600117905590939092509050565b60008060006123e6614c52565b6123f08686612a2c565b9092509050600082600381111561240357fe5b146124145750915060009050612426565b600061241f82613588565b9350935050505b9250929050565b601154604080516370a0823160e01b815230600482015290516000926001600160a01b03169182916370a0823191602480820192602092909190829003018186803b15801561247b57600080fd5b505afa15801561248f573d6000803e3d6000fd5b505050506040513d60208110156124a557600080fd5b505191505090565b6000805460ff166124f2576040805162461bcd60e51b815260206004820152600a6024820152691c994b595b9d195c995960b21b604482015290519081900360640190fd5b6000805460ff1916815561250461156c565b905080156125225761105081601081111561251b57fe5b604e612541565b61252b83613597565b509150506000805460ff19166001179055919050565b60007f45b96fe442630264581b197e84bbada861235052c5a1aadfff9ea4e40a969aa083601081111561257057fe5b83605081111561257c57fe5b604080519283526020830191909152600082820152519081900360600190a18260108111156111c657fe5b600354600090819061010090046001600160a01b031633146125cf57611d9560016031612541565b6125d761280f565b600954146125eb57611d95600a6033612541565b826125f461242d565b101561260657611d95600e6032612541565b600c5483111561261c57611d9560026034612541565b50600c54828103908111156126625760405162461bcd60e51b8152600401808060200182810382526024815260200180614fef6024913960400191505060405180910390fd5b600c8190556003546126829061010090046001600160a01b03168461367f565b600354604080516101009092046001600160a01b0316825260208201859052818101839052517f3bad0c59cf2f06e7314077049f48a93578cd16f5ef92329f1dab1420a99c177e916060908290030190a160006111c6565b6000805460ff1661271f576040805162461bcd60e51b815260206004820152600a6024820152691c994b595b9d195c995960b21b604482015290519081900360640190fd5b6000805460ff1916815561273161156c565b9050801561274f5761105081601081111561274857fe5b6027612541565b61106133600085613776565b6001600160a01b03811660009081526010602052604081208054829182918291829161279257506000945084935061280a92505050565b6127a28160000154600a54613c3d565b909450925060008460038111156127b557fe5b146127ca57509193506000925061280a915050565b6127d8838260010154613c7c565b909450915060008460038111156127eb57fe5b1461280057509193506000925061280a915050565b5060009450925050505b915091565b4390565b600354600090819061010090046001600160a01b0316331461283b57611d9560016042612541565b61284361280f565b6009541461285757611d95600a6041612541565b600660009054906101000a90046001600160a01b03169050826001600160a01b0316632191f92a6040518163ffffffff1660e01b815260040160206040518083038186803b1580156128a857600080fd5b505afa1580156128bc573d6000803e3d6000fd5b505050506040513d60208110156128d257600080fd5b5051612925576040805162461bcd60e51b815260206004820152601c60248201527f6d61726b6572206d6574686f642072657475726e65642066616c736500000000604482015290519081900360640190fd5b600680546001600160a01b0319166001600160a01b03858116918217909255604080519284168352602083019190915280517fedffc32e068c7c95dfd4bdfd5c4d939a084d6b11c4199eac8436ed234d72f9269281900390910190a160006111c6565b60008054819060ff166129cf576040805162461bcd60e51b815260206004820152600a6024820152691c994b595b9d195c995960b21b604482015290519081900360640190fd5b6000805460ff191681556129e161156c565b905080156129ff57611f3f8160108111156129f857fe5b601e612541565b611f573385613ca7565b600080838311612a20575060009050818303612426565b50600390506000612426565b6000612a36614c52565b600080612a47866000015186613c3d565b90925090506000826003811115612a5a57fe5b14612a7957506040805160208101909152600081529092509050612426565b60408051602081019091529081526000969095509350505050565b60007f45b96fe442630264581b197e84bbada861235052c5a1aadfff9ea4e40a969aa0846010811115612ac357fe5b846050811115612acf57fe5b604080519283526020830191909152818101859052519081900360600190a1836010811115610f5657fe5b600080838301848110612b1257600092509050612426565b506002915060009050612426565b6000806000612b2d614c52565b612b378787612a2c565b90925090506000826003811115612b4a57fe5b14612b5b5750915060009050612b74565b612b6d612b6782613588565b86612afa565b9350935050505b935093915050565b6005546040805163d02f735160e01b81523060048201526001600160a01b038781166024830152868116604483015285811660648301526084820185905291516000938493169163d02f73519160a480830192602092919082900301818787803b158015612be957600080fd5b505af1158015612bfd573d6000803e3d6000fd5b505050506040513d6020811015612c1357600080fd5b505190508015612c2a576120c66003601b83612a94565b846001600160a01b0316846001600160a01b03161415612c50576120c66006601c612541565b6001600160a01b0384166000908152600e602052604081205481908190612c779087612a09565b90935091506000836003811115612c8a57fe5b14612cad57612ca26009601a85600381111561175457fe5b945050505050610f56565b6001600160a01b0388166000908152600e6020526040902054612cd09087612afa565b90935090506000836003811115612ce357fe5b14612cfb57612ca26009601985600381111561175457fe5b6001600160a01b038088166000818152600e60209081526040808320879055938c168083529184902085905583518a815293519193600080516020614f0d833981519152929081900390910190a360055460408051636d35bf9160e01b81523060048201526001600160a01b038c811660248301528b811660448301528a81166064830152608482018a905291519190921691636d35bf919160a480830192600092919082900301818387803b158015612db457600080fd5b505af1158015612dc8573d6000803e3d6000fd5b5060009250612dd5915050565b9998505050505050505050565b6000805460ff16612e27576040805162461bcd60e51b815260206004820152600a6024820152691c994b595b9d195c995960b21b604482015290519081900360640190fd5b6000805460ff19168155612e3961156c565b90508015612e5757611050816010811115612e5057fe5b6008612541565b6110613384614106565b6000805460ff16612ea6576040805162461bcd60e51b815260206004820152600a6024820152691c994b595b9d195c995960b21b604482015290519081900360640190fd5b6000805460ff19168155612eb861156c565b90508015612ecf5761105081601081111561274857fe5b61106133846000613776565b60008054819060ff16612f22576040805162461bcd60e51b815260206004820152600a6024820152691c994b595b9d195c995960b21b604482015290519081900360640190fd5b6000805460ff19168155612f3461156c565b90508015612f5f57612f52816010811115612f4b57fe5b600f612541565b925060009150612ff69050565b836001600160a01b031663a6afed956040518163ffffffff1660e01b8152600401602060405180830381600087803b158015612f9a57600080fd5b505af1158015612fae573d6000803e3d6000fd5b505050506040513d6020811015612fc457600080fd5b505190508015612fe457612f52816010811115612fdd57fe5b6010612541565b612ff033878787614414565b92509250505b6000805460ff191660011790559094909350915050565b60035460009061010090046001600160a01b031633146130335761109c60016047612541565b61303b61280f565b6009541461304f5761109c600a6048612541565b670de0b6b3a764000082111561306b5761109c60026049612541565b6008805490839055604080518281526020810185905281517faaa68312e2ea9d50e16af5068410ab56e1a1fd06037b1a35664812c30f821460929181900390910190a160006111c6565b60055460408051631200453160e11b81523060048201526001600160a01b0386811660248301528581166044830152606482018590529151600093849384939116916324008a629160848082019260209290919082900301818787803b15801561311e57600080fd5b505af1158015613132573d6000803e3d6000fd5b505050506040513d602081101561314857600080fd5b50519050801561316c5761315f6003603883612a94565b925060009150612b749050565b61317461280f565b600954146131885761315f600a6039612541565b613190614ce3565b6001600160a01b03861660009081526010602052604090206001015460608201526131ba8661275b565b60808301819052602083018260038111156131d157fe5b60038111156131dc57fe5b90525060009050816020015160038111156131f357fe5b1461321d5761320f600960378360200151600381111561175457fe5b935060009250612b74915050565b600019851415613236576080810151604082015261323e565b604081018590525b61324c878260400151614997565b60e08201819052608082015161326191612a09565b60a083018190526020830182600381111561327857fe5b600381111561328357fe5b905250600090508160200151600381111561329a57fe5b146132d65760405162461bcd60e51b815260040180806020018281038252603a815260200180614ed3603a913960400191505060405180910390fd5b6132e6600b548260e00151612a09565b60c08301819052602083018260038111156132fd57fe5b600381111561330857fe5b905250600090508160200151600381111561331f57fe5b1461335b5760405162461bcd60e51b8152600401808060200182810382526031815260200180614f2d6031913960400191505060405180910390fd5b60a080820180516001600160a01b03808a16600081815260106020908152604091829020948555600a5460019095019490945560c0870151600b81905560e088015195518251948f16855294840192909252828101949094526060820192909252608081019190915290517f1a2a22cb034d26d1854bdc6666a5b91fe25efbbb5dcad3b0355478d6f5c362a1929181900390910190a160055460e0820151606083015160408051631ededc9160e01b81523060048201526001600160a01b038c811660248301528b8116604483015260648201949094526084810192909252519190921691631ededc919160a480830192600092919082900301818387803b15801561346657600080fd5b505af115801561347a573d6000803e3d6000fd5b5060009250613487915050565b8160e00151935093505050935093915050565b6000806000806134aa8787612afa565b909250905060008260038111156134bd57fe5b146134ce5750915060009050612b74565b612b6d8186612a09565b60006134e2614c52565b6000806134f786670de0b6b3a7640000613c3d565b9092509050600082600381111561350a57fe5b1461352957506040805160208101909152600081529092509050612426565b6000806135368388613c7c565b9092509050600082600381111561354957fe5b1461356b57506040805160208101909152600081529094509250612426915050565b604080516020810190915290815260009890975095505050505050565b51670de0b6b3a7640000900490565b6000806000806135a561280f565b600954146135c4576135b9600a604f612541565b9350915061280a9050565b6135ce3386614997565b905080600c54019150600c5482101561362e576040805162461bcd60e51b815260206004820181905260248201527f61646420726573657276657320756e6578706563746564206f766572666c6f77604482015290519081900360640190fd5b600c829055604080513381526020810183905280820184905290517fa91e67c5ea634cd43a12c5a482724b03de01e85ca68702a53d0c2f45cb7c1dc59181900360600190a160009350915050915091565b6011546040805163a9059cbb60e01b81526001600160a01b0385811660048301526024820185905291519190921691829163a9059cbb9160448082019260009290919082900301818387803b1580156136d757600080fd5b505af11580156136eb573d6000803e3d6000fd5b5050505060003d60008114613707576020811461371157600080fd5b600019915061371d565b60206000803e60005191505b5080613770576040805162461bcd60e51b815260206004820152601960248201527f544f4b454e5f5452414e534645525f4f55545f4641494c454400000000000000604482015290519081900360640190fd5b50505050565b6000821580613783575081155b6137be5760405162461bcd60e51b8152600401808060200182810382526034815260200180614fbb6034913960400191505060405180910390fd5b6137c6614d29565b6137ce611f71565b60408301819052602083018260038111156137e557fe5b60038111156137f057fe5b905250600090508160200151600381111561380757fe5b1461382b576138236009602b8360200151600381111561175457fe5b9150506111c6565b83156138ac57606081018490526040805160208101825290820151815261385290856123d9565b608083018190526020830182600381111561386957fe5b600381111561387457fe5b905250600090508160200151600381111561388b57fe5b146138a757613823600960298360200151600381111561175457fe5b613925565b6138c88360405180602001604052808460400151815250614be1565b60608301819052602083018260038111156138df57fe5b60038111156138ea57fe5b905250600090508160200151600381111561390157fe5b1461391d576138236009602a8360200151600381111561175457fe5b608081018390525b60055460608201516040805163eabe7d9160e01b81523060048201526001600160a01b03898116602483015260448201939093529051600093929092169163eabe7d919160648082019260209290919082900301818787803b15801561398a57600080fd5b505af115801561399e573d6000803e3d6000fd5b505050506040513d60208110156139b457600080fd5b5051905080156139d4576139cb6003602883612a94565b925050506111c6565b6139dc61280f565b600954146139f0576139cb600a602c612541565b613a00600d548360600151612a09565b60a0840181905260208401826003811115613a1757fe5b6003811115613a2257fe5b9052506000905082602001516003811115613a3957fe5b14613a55576139cb6009602e8460200151600381111561175457fe5b6001600160a01b0386166000908152600e60205260409020546060830151613a7d9190612a09565b60c0840181905260208401826003811115613a9457fe5b6003811115613a9f57fe5b9052506000905082602001516003811115613ab657fe5b14613ad2576139cb6009602d8460200151600381111561175457fe5b8160800151613adf61242d565b1015613af1576139cb600e602f612541565b613aff86836080015161367f565b60a0820151600d5560c08201516001600160a01b0387166000818152600e6020908152604091829020939093556060850151815190815290513093600080516020614f0d833981519152928290030190a36080820151606080840151604080516001600160a01b038b168152602081019490945283810191909152517fe5b754fb1abb7f01b499791d0b820ae3b6af3424ac1c59768edb53f4ec31a9299281900390910190a160055460808301516060840151604080516351dff98960e01b81523060048201526001600160a01b038b81166024830152604482019490945260648101929092525191909216916351dff98991608480830192600092919082900301818387803b158015613c1257600080fd5b505af1158015613c26573d6000803e3d6000fd5b5060009250613c33915050565b9695505050505050565b60008083613c5057506000905080612426565b83830283858281613c5d57fe5b0414613c7157506002915060009050612426565b600092509050612426565b60008082613c905750600190506000612426565b6000838581613c9b57fe5b04915091509250929050565b60055460408051634ef4c3e160e01b81523060048201526001600160a01b03858116602483015260448201859052915160009384938493911691634ef4c3e19160648082019260209290919082900301818787803b158015613d0857600080fd5b505af1158015613d1c573d6000803e3d6000fd5b505050506040513d6020811015613d3257600080fd5b505190508015613d5657613d496003601f83612a94565b9250600091506124269050565b613d5e61280f565b60095414613d7257613d49600a6022612541565b613d7a614d29565b613d82611f71565b6040830181905260208301826003811115613d9957fe5b6003811115613da457fe5b9052506000905081602001516003811115613dbb57fe5b14613de557613dd7600960218360200151600381111561175457fe5b935060009250612426915050565b613def8686614997565b60c0820181905260408051602081018252908301518152613e109190614be1565b6060830181905260208301826003811115613e2757fe5b6003811115613e3257fe5b9052506000905081602001516003811115613e4957fe5b14613e9b576040805162461bcd60e51b815260206004820181905260248201527f4d494e545f45584348414e47455f43414c43554c4154494f4e5f4641494c4544604482015290519081900360640190fd5b613eab600d548260600151612afa565b6080830181905260208301826003811115613ec257fe5b6003811115613ecd57fe5b9052506000905081602001516003811115613ee457fe5b14613f205760405162461bcd60e51b8152600401808060200182810382526028815260200180614f936028913960400191505060405180910390fd5b6001600160a01b0386166000908152600e60205260409020546060820151613f489190612afa565b60a0830181905260208301826003811115613f5f57fe5b6003811115613f6a57fe5b9052506000905081602001516003811115613f8157fe5b14613fbd5760405162461bcd60e51b815260040180806020018281038252602b815260200180614e71602b913960400191505060405180910390fd5b6080810151600d5560a08101516001600160a01b0387166000818152600e60209081526040918290209390935560c084015160608086015183519485529484019190915282820193909352517f4c209b5fc8ad50758f13e2e1088ba56a560dff690a1c6fef26394f4c03821c4f929181900390910190a1606081015160408051918252516001600160a01b038816913091600080516020614f0d8339815191529181900360200190a360055460c08201516060830151604080516341c728b960e01b81523060048201526001600160a01b038b81166024830152604482019490945260648101929092525191909216916341c728b991608480830192600092919082900301818387803b1580156140d357600080fd5b505af11580156140e7573d6000803e3d6000fd5b50600092506140f4915050565b8160c001519350935050509250929050565b6005546040805163368f515360e21b81523060048201526001600160a01b0385811660248301526044820185905291516000938493169163da3d454c91606480830192602092919082900301818787803b15801561416357600080fd5b505af1158015614177573d6000803e3d6000fd5b505050506040513d602081101561418d57600080fd5b5051905080156141ac576141a46003600e83612a94565b915050610bbf565b6141b461280f565b600954146141c7576141a4600a80612541565b826141d061242d565b10156141e2576141a4600e6009612541565b6141ea614d67565b6141f38561275b565b602083018190528282600381111561420757fe5b600381111561421257fe5b905250600090508151600381111561422657fe5b1461424b57614242600960078360000151600381111561175457fe5b92505050610bbf565b614259816020015185612afa565b604083018190528282600381111561426d57fe5b600381111561427857fe5b905250600090508151600381111561428c57fe5b146142a8576142426009600c8360000151600381111561175457fe5b6142b4600b5485612afa565b60608301819052828260038111156142c857fe5b60038111156142d357fe5b90525060009050815160038111156142e757fe5b14614303576142426009600b8360000151600381111561175457fe5b61430d858561367f565b604080820180516001600160a01b03881660008181526010602090815290859020928355600a54600190930192909255606080860151600b81905593518551928352928201899052818501929092529081019190915290517f13ed6866d4e1ee6da46f845c46d7e54120883d75c5ea9a2dacc1c4ca8984ab809181900360800190a160055460408051635c77860560e01b81523060048201526001600160a01b0388811660248301526044820188905291519190921691635c77860591606480830192600092919082900301818387803b1580156143ea57600080fd5b505af11580156143fe573d6000803e3d6000fd5b506000925061440b915050565b95945050505050565b60055460408051632fe3f38f60e11b81523060048201526001600160a01b0384811660248301528781166044830152868116606483015260848201869052915160009384938493911691635fc7e71e9160a48082019260209290919082900301818787803b15801561448557600080fd5b505af1158015614499573d6000803e3d6000fd5b505050506040513d60208110156144af57600080fd5b5051905080156144d3576144c66003601283612a94565b92506000915061498e9050565b6144db61280f565b600954146144ef576144c6600a6016612541565b6144f761280f565b846001600160a01b0316636c540baf6040518163ffffffff1660e01b815260040160206040518083038186803b15801561453057600080fd5b505afa158015614544573d6000803e3d6000fd5b505050506040513d602081101561455a57600080fd5b50511461456d576144c6600a6011612541565b866001600160a01b0316866001600160a01b03161415614593576144c660066017612541565b846145a4576144c660076015612541565b6000198514156145ba576144c660076014612541565b6000806145c88989896130b5565b909250905081156145f8576145e98260108111156145e257fe5b6018612541565b94506000935061498e92505050565b6005546040805163c488847b60e01b81523060048201526001600160a01b038981166024830152604482018590528251600094859492169263c488847b926064808301939192829003018186803b15801561465257600080fd5b505afa158015614666573d6000803e3d6000fd5b505050506040513d604081101561467c57600080fd5b508051602090910151909250905081156146c75760405162461bcd60e51b81526004018080602001828103825260338152602001806150136033913960400191505060405180910390fd5b80886001600160a01b03166370a082318c6040518263ffffffff1660e01b815260040180826001600160a01b03166001600160a01b0316815260200191505060206040518083038186803b15801561471e57600080fd5b505afa158015614732573d6000803e3d6000fd5b505050506040513d602081101561474857600080fd5b5051101561479d576040805162461bcd60e51b815260206004820152601860248201527f4c49515549444154455f5345495a455f544f4f5f4d5543480000000000000000604482015290519081900360640190fd5b60006001600160a01b0389163014156147c3576147bc308d8d85612b7c565b905061484d565b6040805163b2a02ff160e01b81526001600160a01b038e811660048301528d81166024830152604482018590529151918b169163b2a02ff1916064808201926020929091908290030181600087803b15801561481e57600080fd5b505af1158015614832573d6000803e3d6000fd5b505050506040513d602081101561484857600080fd5b505190505b8015614897576040805162461bcd60e51b81526020600482015260146024820152731d1bdad95b881cd95a5e9d5c994819985a5b195960621b604482015290519081900360640190fd5b604080516001600160a01b03808f168252808e1660208301528183018790528b1660608201526080810184905290517f298637f684da70674f26509b10f07ec2fbc77a335ab1e7d6215a4b2484d8bb529181900360a00190a1600554604080516347ef3b3b60e01b81523060048201526001600160a01b038c811660248301528f811660448301528e811660648301526084820188905260a48201869052915191909216916347ef3b3b9160c480830192600092919082900301818387803b15801561496257600080fd5b505af1158015614976573d6000803e3d6000fd5b5060009250614983915050565b975092955050505050505b94509492505050565b601154604080516370a0823160e01b815230600482015290516000926001600160a01b031691839183916370a08231916024808301926020929190829003018186803b1580156149e657600080fd5b505afa1580156149fa573d6000803e3d6000fd5b505050506040513d6020811015614a1057600080fd5b5051604080516323b872dd60e01b81526001600160a01b038881166004830152306024830152604482018890529151929350908416916323b872dd9160648082019260009290919082900301818387803b158015614a6d57600080fd5b505af1158015614a81573d6000803e3d6000fd5b5050505060003d60008114614a9d5760208114614aa757600080fd5b6000199150614ab3565b60206000803e60005191505b5080614b06576040805162461bcd60e51b815260206004820152601860248201527f544f4b454e5f5452414e534645525f494e5f4641494c45440000000000000000604482015290519081900360640190fd5b601154604080516370a0823160e01b815230600482015290516000926001600160a01b0316916370a08231916024808301926020929190829003018186803b158015614b5157600080fd5b505afa158015614b65573d6000803e3d6000fd5b505050506040513d6020811015614b7b57600080fd5b5051905082811015614bd4576040805162461bcd60e51b815260206004820152601a60248201527f544f4b454e5f5452414e534645525f494e5f4f564552464c4f57000000000000604482015290519081900360640190fd5b9190910395945050505050565b6000806000614bee614c52565b6123f086866000614bfd614c52565b600080614c12670de0b6b3a764000087613c3d565b90925090506000826003811115614c2557fe5b14614c4457506040805160208101909152600081529092509050612426565b61241f8186600001516134d8565b6040518060200160405280600081525090565b828054600181600116156101000203166002900490600052602060002090601f016020900481019282601f10614ca657805160ff1916838001178555614cd3565b82800160010185558215614cd3579182015b82811115614cd3578251825591602001919060010190614cb8565b50614cdf929150614d90565b5090565b6040805161010081019091528060008152602001600081526020016000815260200160008152602001600081526020016000815260200160008152602001600081525090565b6040805160e0810190915280600081526020016000815260200160008152602001600081526020016000815260200160008152602001600081525090565b604080516080810190915280600081526020016000815260200160008152602001600081525090565b610d5791905b80821115614cdf5760008155600101614d9656fe6f6e6c792061646d696e206d617920696e697469616c697a6520746865206d61726b65746d61726b6574206d6179206f6e6c7920626520696e697469616c697a6564206f6e6365696e697469616c2065786368616e67652072617465206d7573742062652067726561746572207468616e207a65726f2e73657474696e6720696e7465726573742072617465206d6f64656c206661696c65646f6e6c79207468652061646d696e206d61792063616c6c205f72657369676e496d706c656d656e746174696f6e4d494e545f4e45575f4143434f554e545f42414c414e43455f43414c43554c4154494f4e5f4641494c4544626f72726f7742616c616e636553746f7265643a20626f72726f7742616c616e636553746f726564496e7465726e616c206661696c656452455041595f424f52524f575f4e45575f4143434f554e545f424f52524f575f42414c414e43455f43414c43554c4154494f4e5f4641494c4544ddf252ad1be2c89b69c2b068fc378daa952ba7f163c4a11628f55a4df523b3ef52455041595f424f52524f575f4e45575f544f54414c5f42414c414e43455f43414c43554c4154494f4e5f4641494c454465786368616e67655261746553746f7265643a2065786368616e67655261746553746f726564496e7465726e616c206661696c65644d494e545f4e45575f544f54414c5f535550504c595f43414c43554c4154494f4e5f4641494c45446f6e65206f662072656465656d546f6b656e73496e206f722072656465656d416d6f756e74496e206d757374206265207a65726f72656475636520726573657276657320756e657870656374656420756e646572666c6f774c49515549444154455f5349474854524f4c4c45525f43414c43554c4154455f414d4f554e545f5345495a455f4641494c45446f6e6c79207468652061646d696e206d61792063616c6c205f6265636f6d65496d706c656d656e746174696f6ea265627a7a7231582052cd28868e24f28e8172ca0a3bbbb8601b5bfd0466d5953cde96684b83858b3064736f6c63430005100032",
  "source": "pragma solidity ^0.5.16;\n\nimport \"./CErc20.sol\";\n\n/**\n * @title SighFinance's CErc20Delegate Contract\n * @notice CTokens which wrap an EIP-20 underlying and are delegated to\n * @author SighFinance\n */\ncontract CErc20Delegate is CErc20, CDelegateInterface {\n    /**\n     * @notice Construct an empty delegate\n     */\n    constructor() public {}\n\n    /**\n     * @notice Called by the delegator on a delegate to initialize it for duty\n     */\n        //   * @param data The encoded bytes data for any initialization\n    function _becomeImplementation() public {    //   bytes memory data\n        // Shh -- currently unused\n        // data;\n\n        // Shh -- we don't ever want this hook to be marked pure\n        if (false) {\n            implementation = address(0);\n        }\n\n        require(msg.sender == admin, \"only the admin may call _becomeImplementation\");\n    }\n\n    /**\n     * @notice Called by the delegator on a delegate to forfeit its responsibility\n     */\n    function _resignImplementation() public {\n        // Shh -- we don't ever want this hook to be marked pure\n        if (false) {\n            implementation = address(0);\n        }\n\n        require(msg.sender == admin, \"only the admin may call _resignImplementation\");\n    }\n}\n",
  "sourcePath": "/Users/apple/Desktop/GITCOIN/Sigh_Finance/SighFinanceContracts/contracts/LegacyContracts/Tokens/CErc20Delegate.sol",
  "compiler": {
    "name": "solc",
    "version": "0.5.16+commit.9c3226ce.Emscripten.clang"
  },
  "schemaVersion": "3.2.4",
  "updatedAt": "2020-10-22T12:30:36.662Z",
  "devdoc": {
    "author": "SighFinance",
    "methods": {
      "_acceptAdmin()": {
        "details": "Admin function for pending admin to accept role and update admin",
        "return": "uint 0=success, otherwise a failure (see ErrorReporter.sol for details)"
      },
      "_addReserves(uint256)": {
        "params": {
          "addAmount": "The amount fo underlying token to add as reserves"
        },
        "return": "uint 0=success, otherwise a failure (see ErrorReporter.sol for details)"
      },
      "_reduceReserves(uint256)": {
        "params": {
          "reduceAmount": "Amount of reduction to reserves"
        },
        "return": "uint 0=success, otherwise a failure (see ErrorReporter.sol for details)"
      },
      "_setInterestRateModel(address)": {
        "details": "Admin function to accrue interest and update the interest rate model",
        "params": {
          "newInterestRateModel": "the new interest rate model to use"
        },
        "return": "uint 0=success, otherwise a failure (see ErrorReporter.sol for details)"
      },
      "_setPendingAdmin(address)": {
        "details": "Admin function to begin change of admin. The newPendingAdmin must call `_acceptAdmin` to finalize the transfer.",
        "params": {
          "newPendingAdmin": "New pending admin."
        },
        "return": "uint 0=success, otherwise a failure (see ErrorReporter.sol for details)"
      },
      "_setReserveFactor(uint256)": {
        "details": "Admin function to accrue interest and set a new reserve factor",
        "return": "uint 0=success, otherwise a failure (see ErrorReporter.sol for details)"
      },
      "_setSightroller(address)": {
        "details": "Admin function to set a new sightroller",
        "return": "uint 0=success, otherwise a failure (see ErrorReporter.sol for details)"
      },
      "accrueInterest()": {
        "details": "This calculates interest accrued from the last checkpointed block  up to the current block and writes new checkpoint to storage."
      },
      "allowance(address,address)": {
        "params": {
          "owner": "The address of the account which owns the tokens to be spent",
          "spender": "The address of the account which may transfer tokens"
        },
        "return": "The number of tokens allowed to be spent (-1 means infinite)"
      },
      "approve(address,uint256)": {
        "details": "This will overwrite the approval amount for `spender` and is subject to issues noted [here](https://eips.ethereum.org/EIPS/eip-20#approve)",
        "params": {
          "amount": "The number of tokens that are approved (-1 means infinite)",
          "spender": "The address of the account which may transfer tokens"
        },
        "return": "Whether or not the approval succeeded"
      },
      "balanceOf(address)": {
        "params": {
          "owner": "The address of the account to query"
        },
        "return": "The number of tokens owned by `owner`"
      },
      "balanceOfUnderlying(address)": {
        "details": "This also accrues interest in a transaction",
        "params": {
          "owner": "The address of the account to query"
        },
        "return": "The amount of underlying owned by `owner`"
      },
      "borrow(uint256)": {
        "params": {
          "borrowAmount": "The amount of the underlying asset to borrow"
        },
        "return": "uint 0=success, otherwise a failure (see ErrorReporter.sol for details)"
      },
      "borrowBalanceCurrent(address)": {
        "params": {
          "account": "The address whose balance should be calculated after updating borrowIndex"
        },
        "return": "The calculated balance"
      },
      "borrowBalanceStored(address)": {
        "params": {
          "account": "The address whose balance should be calculated"
        },
        "return": "The calculated balance"
      },
      "borrowRatePerBlock()": {
        "return": "The borrow interest rate per block, scaled by 1e18"
      },
      "exchangeRateCurrent()": {
        "return": "Calculated exchange rate scaled by 1e18"
      },
      "exchangeRateStored()": {
        "details": "This function does not accrue interest before calculating the exchange rate",
        "return": "Calculated exchange rate scaled by 1e18"
      },
      "getAccountSnapshot(address)": {
        "details": "This is used by sightroller to more efficiently perform liquidity checks.",
        "params": {
          "account": "Address of the account to snapshot"
        },
        "return": "(possible error, token balance, borrow balance, exchange rate mantissa)"
      },
      "getCash()": {
        "return": "The quantity of underlying asset owned by this contract"
      },
      "initialize(address,address,address,uint256,string,string,uint8)": {
        "params": {
          "decimals_": "ERC-20 decimal precision of this token",
          "initialExchangeRateMantissa_": "The initial exchange rate, scaled by 1e18",
          "interestRateModel_": "The address of the interest rate model",
          "name_": "ERC-20 name of this token",
          "sightroller_": "The address of the sightroller",
          "symbol_": "ERC-20 symbol of this token",
          "underlying_": "The address of the underlying asset"
        }
      },
      "initialize(address,address,uint256,string,string,uint8)": {
        "params": {
          "decimals_": "EIP-20 decimal precision of this token",
          "initialExchangeRateMantissa_": "The initial exchange rate, scaled by 1e18",
          "interestRateModel_": "The address of the interest rate model",
          "name_": "EIP-20 name of this token",
          "sightroller_": "The address of the sightroller",
          "symbol_": "EIP-20 symbol of this token"
        }
      },
      "liquidateBorrow(address,uint256,address)": {
        "params": {
          "borrower": "The borrower of this cToken to be liquidated",
          "cTokenCollateral": "The market in which to seize collateral from the borrower",
          "repayAmount": "The amount of the underlying borrowed asset to repay"
        },
        "return": "uint 0=success, otherwise a failure (see ErrorReporter.sol for details)"
      },
      "mint(uint256)": {
        "details": "Accrues interest whether or not the operation succeeds, unless reverted",
        "params": {
          "mintAmount": "The amount of the underlying asset to supply"
        },
        "return": "uint 0=success, otherwise a failure (see ErrorReporter.sol for details)"
      },
      "redeem(uint256)": {
        "details": "Accrues interest whether or not the operation succeeds, unless reverted",
        "params": {
          "redeemTokens": "The number of cTokens to redeem into underlying"
        },
        "return": "uint 0=success, otherwise a failure (see ErrorReporter.sol for details)"
      },
      "redeemUnderlying(uint256)": {
        "details": "Accrues interest whether or not the operation succeeds, unless reverted",
        "params": {
          "redeemAmount": "The amount of underlying to redeem"
        },
        "return": "uint 0=success, otherwise a failure (see ErrorReporter.sol for details)"
      },
      "repayBorrow(uint256)": {
        "params": {
          "repayAmount": "The amount to repay"
        },
        "return": "uint 0=success, otherwise a failure (see ErrorReporter.sol for details)"
      },
      "repayBorrowBehalf(address,uint256)": {
        "params": {
          "borrower": "the account with the debt being payed off",
          "repayAmount": "The amount to repay"
        },
        "return": "uint 0=success, otherwise a failure (see ErrorReporter.sol for details)"
      },
      "seize(address,address,uint256)": {
        "details": "Will fail unless called by another cToken during the process of liquidation. Its absolutely critical to use msg.sender as the borrowed cToken and not a parameter.",
        "params": {
          "borrower": "The account having collateral seized",
          "liquidator": "The account receiving seized collateral",
          "seizeTokens": "The number of cTokens to seize"
        },
        "return": "uint 0=success, otherwise a failure (see ErrorReporter.sol for details)"
      },
      "supplyRatePerBlock()": {
        "return": "The supply interest rate per block, scaled by 1e18"
      },
      "totalBorrowsCurrent()": {
        "return": "The total borrows with interest"
      },
      "transfer(address,uint256)": {
        "params": {
          "amount": "The number of tokens to transfer",
          "dst": "The address of the destination account"
        },
        "return": "Whether or not the transfer succeeded"
      },
      "transferFrom(address,address,uint256)": {
        "params": {
          "amount": "The number of tokens to transfer",
          "dst": "The address of the destination account",
          "src": "The address of the source account"
        },
        "return": "Whether or not the transfer succeeded"
      }
    },
    "title": "SighFinance's CErc20Delegate Contract"
  },
  "userdoc": {
    "methods": {
      "_acceptAdmin()": {
        "notice": "Accepts transfer of admin rights. msg.sender must be pendingAdmin"
      },
      "_addReserves(uint256)": {
        "notice": "The sender adds to reserves."
      },
      "_becomeImplementation()": {
        "notice": "Called by the delegator on a delegate to initialize it for duty"
      },
      "_reduceReserves(uint256)": {
        "notice": "Accrues interest and reduces reserves by transferring to admin"
      },
      "_resignImplementation()": {
        "notice": "Called by the delegator on a delegate to forfeit its responsibility"
      },
      "_setInterestRateModel(address)": {
        "notice": "accrues interest and updates the interest rate model using _setInterestRateModelFresh"
      },
      "_setPendingAdmin(address)": {
        "notice": "Begins transfer of admin rights. The newPendingAdmin must call `_acceptAdmin` to finalize the transfer."
      },
      "_setReserveFactor(uint256)": {
        "notice": "accrues interest and sets a new reserve factor for the protocol using _setReserveFactorFresh"
      },
      "_setSightroller(address)": {
        "notice": "Sets a new sightroller for the market"
      },
      "accrueInterest()": {
        "notice": "Applies accrued interest to total borrows and reserves"
      },
      "allowance(address,address)": {
        "notice": "Get the current allowance from `owner` for `spender`"
      },
      "approve(address,uint256)": {
        "notice": "Approve `spender` to transfer up to `amount` from `src`"
      },
      "balanceOf(address)": {
        "notice": "Get the token balance of the `owner`"
      },
      "balanceOfUnderlying(address)": {
        "notice": "Get the underlying balance of the `owner`"
      },
      "borrow(uint256)": {
        "notice": "Sender borrows assets from the protocol to their own address"
      },
      "borrowBalanceCurrent(address)": {
        "notice": "Accrue interest to updated borrowIndex and then calculate account's borrow balance using the updated borrowIndex"
      },
      "borrowBalanceStored(address)": {
        "notice": "Return the borrow balance of account based on stored data"
      },
      "borrowRatePerBlock()": {
        "notice": "Returns the current per-block borrow interest rate for this cToken"
      },
      "constructor": "Construct an empty delegate",
      "exchangeRateCurrent()": {
        "notice": "Accrue interest then return the up-to-date exchange rate"
      },
      "exchangeRateStored()": {
        "notice": "Calculates the exchange rate from the underlying to the CToken"
      },
      "getAccountSnapshot(address)": {
        "notice": "Get a snapshot of the account's balances, and the cached exchange rate"
      },
      "getCash()": {
        "notice": "Get cash balance of this cToken in the underlying asset"
      },
      "initialize(address,address,address,uint256,string,string,uint8)": {
        "notice": "Initialize the new money market"
      },
      "initialize(address,address,uint256,string,string,uint8)": {
        "notice": "Initialize the money market"
      },
      "liquidateBorrow(address,uint256,address)": {
        "notice": "The sender liquidates the borrowers collateral. The collateral seized is transferred to the liquidator."
      },
      "mint(uint256)": {
        "notice": "Sender supplies assets into the market and receives cTokens in exchange"
      },
      "redeem(uint256)": {
        "notice": "Sender redeems cTokens in exchange for the underlying asset"
      },
      "redeemUnderlying(uint256)": {
        "notice": "Sender redeems cTokens in exchange for a specified amount of underlying asset"
      },
      "repayBorrow(uint256)": {
        "notice": "Sender repays their own borrow"
      },
      "repayBorrowBehalf(address,uint256)": {
        "notice": "Sender repays a borrow belonging to borrower"
      },
      "seize(address,address,uint256)": {
        "notice": "Transfers collateral tokens (this market) to the liquidator."
      },
      "supplyRatePerBlock()": {
        "notice": "Returns the current per-block supply interest rate for this cToken"
      },
      "totalBorrowsCurrent()": {
        "notice": "Returns the current total borrows plus accrued interest"
      },
      "transfer(address,uint256)": {
        "notice": "Transfer `amount` tokens from `msg.sender` to `dst`"
      },
      "transferFrom(address,address,uint256)": {
        "notice": "Transfer `amount` tokens from `src` to `dst`"
      }
    },
    "notice": "CTokens which wrap an EIP-20 underlying and are delegated to"
  }
}