{
  "contractName": "CErc20Immutable",
  "abi": [
    {
      "inputs": [
        {
          "internalType": "address",
          "name": "underlying_",
          "type": "address"
        },
        {
          "internalType": "contract SightrollerInterface",
          "name": "sightroller_",
          "type": "address"
        },
        {
          "internalType": "contract InterestRateModel",
          "name": "interestRateModel_",
          "type": "address"
        },
        {
          "internalType": "uint256",
          "name": "initialExchangeRateMantissa_",
          "type": "uint256"
        },
        {
          "internalType": "string",
          "name": "name_",
          "type": "string"
        },
        {
          "internalType": "string",
          "name": "symbol_",
          "type": "string"
        },
        {
          "internalType": "uint8",
          "name": "decimals_",
          "type": "uint8"
        },
        {
          "internalType": "address payable",
          "name": "admin_",
          "type": "address"
        }
      ],
      "payable": false,
      "stateMutability": "nonpayable",
      "type": "constructor"
    },
    {
      "anonymous": false,
      "inputs": [
        {
          "indexed": false,
          "internalType": "uint256",
          "name": "cashPrior",
          "type": "uint256"
        },
        {
          "indexed": false,
          "internalType": "uint256",
          "name": "interestAccumulated",
          "type": "uint256"
        },
        {
          "indexed": false,
          "internalType": "uint256",
          "name": "borrowIndex",
          "type": "uint256"
        },
        {
          "indexed": false,
          "internalType": "uint256",
          "name": "totalBorrows",
          "type": "uint256"
        }
      ],
      "name": "AccrueInterest",
      "type": "event"
    },
    {
      "anonymous": false,
      "inputs": [
        {
          "indexed": true,
          "internalType": "address",
          "name": "owner",
          "type": "address"
        },
        {
          "indexed": true,
          "internalType": "address",
          "name": "spender",
          "type": "address"
        },
        {
          "indexed": false,
          "internalType": "uint256",
          "name": "amount",
          "type": "uint256"
        }
      ],
      "name": "Approval",
      "type": "event"
    },
    {
      "anonymous": false,
      "inputs": [
        {
          "indexed": false,
          "internalType": "address",
          "name": "borrower",
          "type": "address"
        },
        {
          "indexed": false,
          "internalType": "uint256",
          "name": "borrowAmount",
          "type": "uint256"
        },
        {
          "indexed": false,
          "internalType": "uint256",
          "name": "accountBorrows",
          "type": "uint256"
        },
        {
          "indexed": false,
          "internalType": "uint256",
          "name": "totalBorrows",
          "type": "uint256"
        }
      ],
      "name": "Borrow",
      "type": "event"
    },
    {
      "anonymous": false,
      "inputs": [
        {
          "indexed": false,
          "internalType": "uint256",
          "name": "error",
          "type": "uint256"
        },
        {
          "indexed": false,
          "internalType": "uint256",
          "name": "info",
          "type": "uint256"
        },
        {
          "indexed": false,
          "internalType": "uint256",
          "name": "detail",
          "type": "uint256"
        }
      ],
      "name": "Failure",
      "type": "event"
    },
    {
      "anonymous": false,
      "inputs": [
        {
          "indexed": false,
          "internalType": "address",
          "name": "liquidator",
          "type": "address"
        },
        {
          "indexed": false,
          "internalType": "address",
          "name": "borrower",
          "type": "address"
        },
        {
          "indexed": false,
          "internalType": "uint256",
          "name": "repayAmount",
          "type": "uint256"
        },
        {
          "indexed": false,
          "internalType": "address",
          "name": "cTokenCollateral",
          "type": "address"
        },
        {
          "indexed": false,
          "internalType": "uint256",
          "name": "seizeTokens",
          "type": "uint256"
        }
      ],
      "name": "LiquidateBorrow",
      "type": "event"
    },
    {
      "anonymous": false,
      "inputs": [
        {
          "indexed": false,
          "internalType": "address",
          "name": "minter",
          "type": "address"
        },
        {
          "indexed": false,
          "internalType": "uint256",
          "name": "mintAmount",
          "type": "uint256"
        },
        {
          "indexed": false,
          "internalType": "uint256",
          "name": "mintTokens",
          "type": "uint256"
        }
      ],
      "name": "Mint",
      "type": "event"
    },
    {
      "anonymous": false,
      "inputs": [
        {
          "indexed": false,
          "internalType": "address",
          "name": "oldAdmin",
          "type": "address"
        },
        {
          "indexed": false,
          "internalType": "address",
          "name": "newAdmin",
          "type": "address"
        }
      ],
      "name": "NewAdmin",
      "type": "event"
    },
    {
      "anonymous": false,
      "inputs": [
        {
          "indexed": false,
          "internalType": "contract InterestRateModel",
          "name": "oldInterestRateModel",
          "type": "address"
        },
        {
          "indexed": false,
          "internalType": "contract InterestRateModel",
          "name": "newInterestRateModel",
          "type": "address"
        }
      ],
      "name": "NewMarketInterestRateModel",
      "type": "event"
    },
    {
      "anonymous": false,
      "inputs": [
        {
          "indexed": false,
          "internalType": "address",
          "name": "oldPendingAdmin",
          "type": "address"
        },
        {
          "indexed": false,
          "internalType": "address",
          "name": "newPendingAdmin",
          "type": "address"
        }
      ],
      "name": "NewPendingAdmin",
      "type": "event"
    },
    {
      "anonymous": false,
      "inputs": [
        {
          "indexed": false,
          "internalType": "uint256",
          "name": "oldReserveFactorMantissa",
          "type": "uint256"
        },
        {
          "indexed": false,
          "internalType": "uint256",
          "name": "newReserveFactorMantissa",
          "type": "uint256"
        }
      ],
      "name": "NewReserveFactor",
      "type": "event"
    },
    {
      "anonymous": false,
      "inputs": [
        {
          "indexed": false,
          "internalType": "contract SightrollerInterface",
          "name": "oldSightroller",
          "type": "address"
        },
        {
          "indexed": false,
          "internalType": "contract SightrollerInterface",
          "name": "newSightroller",
          "type": "address"
        }
      ],
      "name": "NewSightroller",
      "type": "event"
    },
    {
      "anonymous": false,
      "inputs": [
        {
          "indexed": false,
          "internalType": "address",
          "name": "redeemer",
          "type": "address"
        },
        {
          "indexed": false,
          "internalType": "uint256",
          "name": "redeemAmount",
          "type": "uint256"
        },
        {
          "indexed": false,
          "internalType": "uint256",
          "name": "redeemTokens",
          "type": "uint256"
        }
      ],
      "name": "Redeem",
      "type": "event"
    },
    {
      "anonymous": false,
      "inputs": [
        {
          "indexed": false,
          "internalType": "address",
          "name": "payer",
          "type": "address"
        },
        {
          "indexed": false,
          "internalType": "address",
          "name": "borrower",
          "type": "address"
        },
        {
          "indexed": false,
          "internalType": "uint256",
          "name": "repayAmount",
          "type": "uint256"
        },
        {
          "indexed": false,
          "internalType": "uint256",
          "name": "accountBorrows",
          "type": "uint256"
        },
        {
          "indexed": false,
          "internalType": "uint256",
          "name": "totalBorrows",
          "type": "uint256"
        }
      ],
      "name": "RepayBorrow",
      "type": "event"
    },
    {
      "anonymous": false,
      "inputs": [
        {
          "indexed": false,
          "internalType": "address",
          "name": "benefactor",
          "type": "address"
        },
        {
          "indexed": false,
          "internalType": "uint256",
          "name": "addAmount",
          "type": "uint256"
        },
        {
          "indexed": false,
          "internalType": "uint256",
          "name": "newTotalReserves",
          "type": "uint256"
        }
      ],
      "name": "ReservesAdded",
      "type": "event"
    },
    {
      "anonymous": false,
      "inputs": [
        {
          "indexed": false,
          "internalType": "address",
          "name": "admin",
          "type": "address"
        },
        {
          "indexed": false,
          "internalType": "uint256",
          "name": "reduceAmount",
          "type": "uint256"
        },
        {
          "indexed": false,
          "internalType": "uint256",
          "name": "newTotalReserves",
          "type": "uint256"
        }
      ],
      "name": "ReservesReduced",
      "type": "event"
    },
    {
      "anonymous": false,
      "inputs": [
        {
          "indexed": true,
          "internalType": "address",
          "name": "from",
          "type": "address"
        },
        {
          "indexed": true,
          "internalType": "address",
          "name": "to",
          "type": "address"
        },
        {
          "indexed": false,
          "internalType": "uint256",
          "name": "amount",
          "type": "uint256"
        }
      ],
      "name": "Transfer",
      "type": "event"
    },
    {
      "constant": false,
      "inputs": [],
      "name": "_acceptAdmin",
      "outputs": [
        {
          "internalType": "uint256",
          "name": "",
          "type": "uint256"
        }
      ],
      "payable": false,
      "stateMutability": "nonpayable",
      "type": "function"
    },
    {
      "constant": false,
      "inputs": [
        {
          "internalType": "uint256",
          "name": "addAmount",
          "type": "uint256"
        }
      ],
      "name": "_addReserves",
      "outputs": [
        {
          "internalType": "uint256",
          "name": "",
          "type": "uint256"
        }
      ],
      "payable": false,
      "stateMutability": "nonpayable",
      "type": "function"
    },
    {
      "constant": false,
      "inputs": [
        {
          "internalType": "uint256",
          "name": "reduceAmount",
          "type": "uint256"
        }
      ],
      "name": "_reduceReserves",
      "outputs": [
        {
          "internalType": "uint256",
          "name": "",
          "type": "uint256"
        }
      ],
      "payable": false,
      "stateMutability": "nonpayable",
      "type": "function"
    },
    {
      "constant": false,
      "inputs": [
        {
          "internalType": "contract InterestRateModel",
          "name": "newInterestRateModel",
          "type": "address"
        }
      ],
      "name": "_setInterestRateModel",
      "outputs": [
        {
          "internalType": "uint256",
          "name": "",
          "type": "uint256"
        }
      ],
      "payable": false,
      "stateMutability": "nonpayable",
      "type": "function"
    },
    {
      "constant": false,
      "inputs": [
        {
          "internalType": "address payable",
          "name": "newPendingAdmin",
          "type": "address"
        }
      ],
      "name": "_setPendingAdmin",
      "outputs": [
        {
          "internalType": "uint256",
          "name": "",
          "type": "uint256"
        }
      ],
      "payable": false,
      "stateMutability": "nonpayable",
      "type": "function"
    },
    {
      "constant": false,
      "inputs": [
        {
          "internalType": "uint256",
          "name": "newReserveFactorMantissa",
          "type": "uint256"
        }
      ],
      "name": "_setReserveFactor",
      "outputs": [
        {
          "internalType": "uint256",
          "name": "",
          "type": "uint256"
        }
      ],
      "payable": false,
      "stateMutability": "nonpayable",
      "type": "function"
    },
    {
      "constant": false,
      "inputs": [
        {
          "internalType": "contract SightrollerInterface",
          "name": "newSightroller",
          "type": "address"
        }
      ],
      "name": "_setSightroller",
      "outputs": [
        {
          "internalType": "uint256",
          "name": "",
          "type": "uint256"
        }
      ],
      "payable": false,
      "stateMutability": "nonpayable",
      "type": "function"
    },
    {
      "constant": true,
      "inputs": [],
      "name": "accrualBlockNumber",
      "outputs": [
        {
          "internalType": "uint256",
          "name": "",
          "type": "uint256"
        }
      ],
      "payable": false,
      "stateMutability": "view",
      "type": "function"
    },
    {
      "constant": false,
      "inputs": [],
      "name": "accrueInterest",
      "outputs": [
        {
          "internalType": "uint256",
          "name": "",
          "type": "uint256"
        }
      ],
      "payable": false,
      "stateMutability": "nonpayable",
      "type": "function"
    },
    {
      "constant": true,
      "inputs": [],
      "name": "admin",
      "outputs": [
        {
          "internalType": "address payable",
          "name": "",
          "type": "address"
        }
      ],
      "payable": false,
      "stateMutability": "view",
      "type": "function"
    },
    {
      "constant": true,
      "inputs": [
        {
          "internalType": "address",
          "name": "owner",
          "type": "address"
        },
        {
          "internalType": "address",
          "name": "spender",
          "type": "address"
        }
      ],
      "name": "allowance",
      "outputs": [
        {
          "internalType": "uint256",
          "name": "",
          "type": "uint256"
        }
      ],
      "payable": false,
      "stateMutability": "view",
      "type": "function"
    },
    {
      "constant": false,
      "inputs": [
        {
          "internalType": "address",
          "name": "spender",
          "type": "address"
        },
        {
          "internalType": "uint256",
          "name": "amount",
          "type": "uint256"
        }
      ],
      "name": "approve",
      "outputs": [
        {
          "internalType": "bool",
          "name": "",
          "type": "bool"
        }
      ],
      "payable": false,
      "stateMutability": "nonpayable",
      "type": "function"
    },
    {
      "constant": true,
      "inputs": [
        {
          "internalType": "address",
          "name": "owner",
          "type": "address"
        }
      ],
      "name": "balanceOf",
      "outputs": [
        {
          "internalType": "uint256",
          "name": "",
          "type": "uint256"
        }
      ],
      "payable": false,
      "stateMutability": "view",
      "type": "function"
    },
    {
      "constant": false,
      "inputs": [
        {
          "internalType": "address",
          "name": "owner",
          "type": "address"
        }
      ],
      "name": "balanceOfUnderlying",
      "outputs": [
        {
          "internalType": "uint256",
          "name": "",
          "type": "uint256"
        }
      ],
      "payable": false,
      "stateMutability": "nonpayable",
      "type": "function"
    },
    {
      "constant": false,
      "inputs": [
        {
          "internalType": "uint256",
          "name": "borrowAmount",
          "type": "uint256"
        }
      ],
      "name": "borrow",
      "outputs": [
        {
          "internalType": "uint256",
          "name": "",
          "type": "uint256"
        }
      ],
      "payable": false,
      "stateMutability": "nonpayable",
      "type": "function"
    },
    {
      "constant": false,
      "inputs": [
        {
          "internalType": "address",
          "name": "account",
          "type": "address"
        }
      ],
      "name": "borrowBalanceCurrent",
      "outputs": [
        {
          "internalType": "uint256",
          "name": "",
          "type": "uint256"
        }
      ],
      "payable": false,
      "stateMutability": "nonpayable",
      "type": "function"
    },
    {
      "constant": true,
      "inputs": [
        {
          "internalType": "address",
          "name": "account",
          "type": "address"
        }
      ],
      "name": "borrowBalanceStored",
      "outputs": [
        {
          "internalType": "uint256",
          "name": "",
          "type": "uint256"
        }
      ],
      "payable": false,
      "stateMutability": "view",
      "type": "function"
    },
    {
      "constant": true,
      "inputs": [],
      "name": "borrowIndex",
      "outputs": [
        {
          "internalType": "uint256",
          "name": "",
          "type": "uint256"
        }
      ],
      "payable": false,
      "stateMutability": "view",
      "type": "function"
    },
    {
      "constant": true,
      "inputs": [],
      "name": "borrowRatePerBlock",
      "outputs": [
        {
          "internalType": "uint256",
          "name": "",
          "type": "uint256"
        }
      ],
      "payable": false,
      "stateMutability": "view",
      "type": "function"
    },
    {
      "constant": true,
      "inputs": [],
      "name": "decimals",
      "outputs": [
        {
          "internalType": "uint8",
          "name": "",
          "type": "uint8"
        }
      ],
      "payable": false,
      "stateMutability": "view",
      "type": "function"
    },
    {
      "constant": false,
      "inputs": [],
      "name": "exchangeRateCurrent",
      "outputs": [
        {
          "internalType": "uint256",
          "name": "",
          "type": "uint256"
        }
      ],
      "payable": false,
      "stateMutability": "nonpayable",
      "type": "function"
    },
    {
      "constant": true,
      "inputs": [],
      "name": "exchangeRateStored",
      "outputs": [
        {
          "internalType": "uint256",
          "name": "",
          "type": "uint256"
        }
      ],
      "payable": false,
      "stateMutability": "view",
      "type": "function"
    },
    {
      "constant": true,
      "inputs": [
        {
          "internalType": "address",
          "name": "account",
          "type": "address"
        }
      ],
      "name": "getAccountSnapshot",
      "outputs": [
        {
          "internalType": "uint256",
          "name": "",
          "type": "uint256"
        },
        {
          "internalType": "uint256",
          "name": "",
          "type": "uint256"
        },
        {
          "internalType": "uint256",
          "name": "",
          "type": "uint256"
        },
        {
          "internalType": "uint256",
          "name": "",
          "type": "uint256"
        }
      ],
      "payable": false,
      "stateMutability": "view",
      "type": "function"
    },
    {
      "constant": true,
      "inputs": [],
      "name": "getCash",
      "outputs": [
        {
          "internalType": "uint256",
          "name": "",
          "type": "uint256"
        }
      ],
      "payable": false,
      "stateMutability": "view",
      "type": "function"
    },
    {
      "constant": false,
      "inputs": [
        {
          "internalType": "address",
          "name": "underlying_",
          "type": "address"
        },
        {
          "internalType": "contract SightrollerInterface",
          "name": "sightroller_",
          "type": "address"
        },
        {
          "internalType": "contract InterestRateModel",
          "name": "interestRateModel_",
          "type": "address"
        },
        {
          "internalType": "uint256",
          "name": "initialExchangeRateMantissa_",
          "type": "uint256"
        },
        {
          "internalType": "string",
          "name": "name_",
          "type": "string"
        },
        {
          "internalType": "string",
          "name": "symbol_",
          "type": "string"
        },
        {
          "internalType": "uint8",
          "name": "decimals_",
          "type": "uint8"
        }
      ],
      "name": "initialize",
      "outputs": [],
      "payable": false,
      "stateMutability": "nonpayable",
      "type": "function"
    },
    {
      "constant": false,
      "inputs": [
        {
          "internalType": "contract SightrollerInterface",
          "name": "sightroller_",
          "type": "address"
        },
        {
          "internalType": "contract InterestRateModel",
          "name": "interestRateModel_",
          "type": "address"
        },
        {
          "internalType": "uint256",
          "name": "initialExchangeRateMantissa_",
          "type": "uint256"
        },
        {
          "internalType": "string",
          "name": "name_",
          "type": "string"
        },
        {
          "internalType": "string",
          "name": "symbol_",
          "type": "string"
        },
        {
          "internalType": "uint8",
          "name": "decimals_",
          "type": "uint8"
        }
      ],
      "name": "initialize",
      "outputs": [],
      "payable": false,
      "stateMutability": "nonpayable",
      "type": "function"
    },
    {
      "constant": true,
      "inputs": [],
      "name": "interestRateModel",
      "outputs": [
        {
          "internalType": "contract InterestRateModel",
          "name": "",
          "type": "address"
        }
      ],
      "payable": false,
      "stateMutability": "view",
      "type": "function"
    },
    {
      "constant": true,
      "inputs": [],
      "name": "isCToken",
      "outputs": [
        {
          "internalType": "bool",
          "name": "",
          "type": "bool"
        }
      ],
      "payable": false,
      "stateMutability": "view",
      "type": "function"
    },
    {
      "constant": false,
      "inputs": [
        {
          "internalType": "address",
          "name": "borrower",
          "type": "address"
        },
        {
          "internalType": "uint256",
          "name": "repayAmount",
          "type": "uint256"
        },
        {
          "internalType": "contract CTokenInterface",
          "name": "cTokenCollateral",
          "type": "address"
        }
      ],
      "name": "liquidateBorrow",
      "outputs": [
        {
          "internalType": "uint256",
          "name": "",
          "type": "uint256"
        }
      ],
      "payable": false,
      "stateMutability": "nonpayable",
      "type": "function"
    },
    {
      "constant": false,
      "inputs": [
        {
          "internalType": "uint256",
          "name": "mintAmount",
          "type": "uint256"
        }
      ],
      "name": "mint",
      "outputs": [
        {
          "internalType": "uint256",
          "name": "",
          "type": "uint256"
        }
      ],
      "payable": false,
      "stateMutability": "nonpayable",
      "type": "function"
    },
    {
      "constant": true,
      "inputs": [],
      "name": "name",
      "outputs": [
        {
          "internalType": "string",
          "name": "",
          "type": "string"
        }
      ],
      "payable": false,
      "stateMutability": "view",
      "type": "function"
    },
    {
      "constant": true,
      "inputs": [],
      "name": "pendingAdmin",
      "outputs": [
        {
          "internalType": "address payable",
          "name": "",
          "type": "address"
        }
      ],
      "payable": false,
      "stateMutability": "view",
      "type": "function"
    },
    {
      "constant": false,
      "inputs": [
        {
          "internalType": "uint256",
          "name": "redeemTokens",
          "type": "uint256"
        }
      ],
      "name": "redeem",
      "outputs": [
        {
          "internalType": "uint256",
          "name": "",
          "type": "uint256"
        }
      ],
      "payable": false,
      "stateMutability": "nonpayable",
      "type": "function"
    },
    {
      "constant": false,
      "inputs": [
        {
          "internalType": "uint256",
          "name": "redeemAmount",
          "type": "uint256"
        }
      ],
      "name": "redeemUnderlying",
      "outputs": [
        {
          "internalType": "uint256",
          "name": "",
          "type": "uint256"
        }
      ],
      "payable": false,
      "stateMutability": "nonpayable",
      "type": "function"
    },
    {
      "constant": false,
      "inputs": [
        {
          "internalType": "uint256",
          "name": "repayAmount",
          "type": "uint256"
        }
      ],
      "name": "repayBorrow",
      "outputs": [
        {
          "internalType": "uint256",
          "name": "",
          "type": "uint256"
        }
      ],
      "payable": false,
      "stateMutability": "nonpayable",
      "type": "function"
    },
    {
      "constant": false,
      "inputs": [
        {
          "internalType": "address",
          "name": "borrower",
          "type": "address"
        },
        {
          "internalType": "uint256",
          "name": "repayAmount",
          "type": "uint256"
        }
      ],
      "name": "repayBorrowBehalf",
      "outputs": [
        {
          "internalType": "uint256",
          "name": "",
          "type": "uint256"
        }
      ],
      "payable": false,
      "stateMutability": "nonpayable",
      "type": "function"
    },
    {
      "constant": true,
      "inputs": [],
      "name": "reserveFactorMantissa",
      "outputs": [
        {
          "internalType": "uint256",
          "name": "",
          "type": "uint256"
        }
      ],
      "payable": false,
      "stateMutability": "view",
      "type": "function"
    },
    {
      "constant": false,
      "inputs": [
        {
          "internalType": "address",
          "name": "liquidator",
          "type": "address"
        },
        {
          "internalType": "address",
          "name": "borrower",
          "type": "address"
        },
        {
          "internalType": "uint256",
          "name": "seizeTokens",
          "type": "uint256"
        }
      ],
      "name": "seize",
      "outputs": [
        {
          "internalType": "uint256",
          "name": "",
          "type": "uint256"
        }
      ],
      "payable": false,
      "stateMutability": "nonpayable",
      "type": "function"
    },
    {
      "constant": true,
      "inputs": [],
      "name": "sightroller",
      "outputs": [
        {
          "internalType": "contract SightrollerInterface",
          "name": "",
          "type": "address"
        }
      ],
      "payable": false,
      "stateMutability": "view",
      "type": "function"
    },
    {
      "constant": true,
      "inputs": [],
      "name": "supplyRatePerBlock",
      "outputs": [
        {
          "internalType": "uint256",
          "name": "",
          "type": "uint256"
        }
      ],
      "payable": false,
      "stateMutability": "view",
      "type": "function"
    },
    {
      "constant": true,
      "inputs": [],
      "name": "symbol",
      "outputs": [
        {
          "internalType": "string",
          "name": "",
          "type": "string"
        }
      ],
      "payable": false,
      "stateMutability": "view",
      "type": "function"
    },
    {
      "constant": true,
      "inputs": [],
      "name": "totalBorrows",
      "outputs": [
        {
          "internalType": "uint256",
          "name": "",
          "type": "uint256"
        }
      ],
      "payable": false,
      "stateMutability": "view",
      "type": "function"
    },
    {
      "constant": false,
      "inputs": [],
      "name": "totalBorrowsCurrent",
      "outputs": [
        {
          "internalType": "uint256",
          "name": "",
          "type": "uint256"
        }
      ],
      "payable": false,
      "stateMutability": "nonpayable",
      "type": "function"
    },
    {
      "constant": true,
      "inputs": [],
      "name": "totalReserves",
      "outputs": [
        {
          "internalType": "uint256",
          "name": "",
          "type": "uint256"
        }
      ],
      "payable": false,
      "stateMutability": "view",
      "type": "function"
    },
    {
      "constant": true,
      "inputs": [],
      "name": "totalSupply",
      "outputs": [
        {
          "internalType": "uint256",
          "name": "",
          "type": "uint256"
        }
      ],
      "payable": false,
      "stateMutability": "view",
      "type": "function"
    },
    {
      "constant": false,
      "inputs": [
        {
          "internalType": "address",
          "name": "dst",
          "type": "address"
        },
        {
          "internalType": "uint256",
          "name": "amount",
          "type": "uint256"
        }
      ],
      "name": "transfer",
      "outputs": [
        {
          "internalType": "bool",
          "name": "",
          "type": "bool"
        }
      ],
      "payable": false,
      "stateMutability": "nonpayable",
      "type": "function"
    },
    {
      "constant": false,
      "inputs": [
        {
          "internalType": "address",
          "name": "src",
          "type": "address"
        },
        {
          "internalType": "address",
          "name": "dst",
          "type": "address"
        },
        {
          "internalType": "uint256",
          "name": "amount",
          "type": "uint256"
        }
      ],
      "name": "transferFrom",
      "outputs": [
        {
          "internalType": "bool",
          "name": "",
          "type": "bool"
        }
      ],
      "payable": false,
      "stateMutability": "nonpayable",
      "type": "function"
    },
    {
      "constant": true,
      "inputs": [],
      "name": "underlying",
      "outputs": [
        {
          "internalType": "address",
          "name": "",
          "type": "address"
        }
      ],
      "payable": false,
      "stateMutability": "view",
      "type": "function"
    }
  ],
  "bytecode": "0x60806040523480156200001157600080fd5b50604051620058ef380380620058ef83398181016040526101008110156200003857600080fd5b81516020830151604080850151606086015160808701805193519597949692959194919392820192846401000000008211156200007457600080fd5b9083019060208201858111156200008a57600080fd5b8251640100000000811182820188101715620000a557600080fd5b82525081516020918201929091019080838360005b83811015620000d4578181015183820152602001620000ba565b50505050905090810190601f168015620001025780820380516001836020036101000a031916815260200191505b50604052602001805160405193929190846401000000008211156200012657600080fd5b9083019060208201858111156200013c57600080fd5b82516401000000008111828201881017156200015757600080fd5b82525081516020918201929091019080838360005b83811015620001865781810151838201526020016200016c565b50505050905090810190601f168015620001b45780820380516001836020036101000a031916815260200191505b506040908152602082015191015160038054610100600160a81b03191633610100021790559092509050620001ef8888888888888862000223565b600380546001600160a01b0390921661010002610100600160a81b0319909216919091179055506200090f95505050505050565b6200023e868686868686620002d260201b620012631760201c565b601180546001600160a01b0319166001600160a01b038981169190911791829055604080516318160ddd60e01b8152905192909116916318160ddd91600480820192602092909190829003018186803b1580156200029b57600080fd5b505afa158015620002b0573d6000803e3d6000fd5b505050506040513d6020811015620002c757600080fd5b505050505050505050565b60035461010090046001600160a01b03163314620003225760405162461bcd60e51b8152600401808060200182810382526024815260200180620058566024913960400191505060405180910390fd5b600954158015620003335750600a54155b620003705760405162461bcd60e51b81526004018080602001828103825260238152602001806200587a6023913960400191505060405180910390fd5b600784905583620003b35760405162461bcd60e51b81526004018080602001828103825260308152602001806200589d6030913960400191505060405180910390fd5b6000620003c9876001600160e01b03620004e816565b905080156200041f576040805162461bcd60e51b815260206004820152601a60248201527f73657474696e67207369676874726f6c6c6572206661696c6564000000000000604482015290519081900360640190fd5b620004326001600160e01b036200065216565b600955670de0b6b3a7640000600a5562000455866001600160e01b036200065716565b90508015620004965760405162461bcd60e51b8152600401808060200182810382526022815260200180620058cd6022913960400191505060405180910390fd5b8351620004ab9060019060208701906200086d565b508251620004c19060029060208601906200086d565b50506003805460ff90921660ff199283161790556000805490911660011790555050505050565b60035460009061010090046001600160a01b0316331462000522576200051a6001603f6001600160e01b03620007fd16565b90506200064d565b600554604080516320916f8160e01b815290516001600160a01b03928316928516916320916f81916004808301926020929190829003018186803b1580156200056a57600080fd5b505afa1580156200057f573d6000803e3d6000fd5b505050506040513d60208110156200059657600080fd5b5051620005ea576040805162461bcd60e51b815260206004820152601c60248201527f6d61726b6572206d6574686f642072657475726e65642066616c736500000000604482015290519081900360640190fd5b600580546001600160a01b0319166001600160a01b03858116918217909255604080519284168352602083019190915280517fe5c13e6b6a767381c79ee0c7a30af3224b66ae32c840aa0c1a1a97e713bbc1469281900390910190a160005b9150505b919050565b435b90565b600354600090819061010090046001600160a01b0316331462000694576200068b600160426001600160e01b03620007fd16565b9150506200064d565b620006a76001600160e01b036200065216565b60095414620006c7576200068b600a60416001600160e01b03620007fd16565b600660009054906101000a90046001600160a01b03169050826001600160a01b0316632191f92a6040518163ffffffff1660e01b815260040160206040518083038186803b1580156200071957600080fd5b505afa1580156200072e573d6000803e3d6000fd5b505050506040513d60208110156200074557600080fd5b505162000799576040805162461bcd60e51b815260206004820152601c60248201527f6d61726b6572206d6574686f642072657475726e65642066616c736500000000604482015290519081900360640190fd5b600680546001600160a01b0319166001600160a01b03858116918217909255604080519284168352602083019190915280517fedffc32e068c7c95dfd4bdfd5c4d939a084d6b11c4199eac8436ed234d72f9269281900390910190a1600062000649565b60007f45b96fe442630264581b197e84bbada861235052c5a1aadfff9ea4e40a969aa08360108111156200082d57fe5b8360508111156200083a57fe5b604080519283526020830191909152600082820152519081900360600190a18260108111156200086657fe5b9392505050565b828054600181600116156101000203166002900490600052602060002090601f016020900481019282601f10620008b057805160ff1916838001178555620008e0565b82800160010185558215620008e0579182015b82811115620008e0578251825591602001919060010190620008c3565b50620008ee929150620008f2565b5090565b6200065491905b80821115620008ee5760008155600101620008f9565b614f37806200091f6000396000f3fe608060405234801561001057600080fd5b50600436106102a05760003560e01c80638f840ddd11610167578063c37f68e2116100ce578063f3fdb15a11610087578063f3fdb15a146109ef578063f5e3c462146109f7578063f851a44014610a2d578063f8f9da2814610a35578063fca7820b14610a3d578063fe9c44ae14610a5a576102a0565b8063c37f68e21461090d578063c5ebeaec14610959578063db006a7514610976578063dd62ed3e14610993578063e9c714f2146109c1578063f2b3abbd146109c9576102a0565b8063a9059cbb11610120578063a9059cbb1461086d578063aa5af0fd14610899578063ae9d70b0146108a1578063b2a02ff1146108a9578063b71d1a0c146108df578063bd6d894d14610905576102a0565b80638f840ddd146106c457806395d89b41146106cc57806395dd9193146106d457806399d8c1b4146106fa578063a0712d6814610848578063a6afed9514610865576102a0565b806339335f1f1161020b5780636779b6d9116101c45780636779b6d9146106435780636c540baf146106695780636f307dc31461067157806370a082311461067957806373acee981461069f578063852a12e3146106a7576102a0565b806339335f1f146105cb5780633af9e669146105d35780633b1d21a2146105f95780633e9410101461060157806347bd37181461061e578063601a0bf114610626576102a0565b8063182df0f51161025d578063182df0f5146103c75780631a31d465146103cf57806323b872dd146105275780632608f8181461055d5780632678224714610589578063313ce567146105ad576102a0565b806306fdde03146102a5578063095ea7b3146103225780630e75270214610362578063173b99041461039157806317bfdfbc1461039957806318160ddd146103bf575b600080fd5b6102ad610a62565b6040805160208082528351818301528351919283929083019185019080838360005b838110156102e75781810151838201526020016102cf565b50505050905090810190601f1680156103145780820380516001836020036101000a031916815260200191505b509250505060405180910390f35b61034e6004803603604081101561033857600080fd5b506001600160a01b038135169060200135610aef565b604080519115158252519081900360200190f35b61037f6004803603602081101561037857600080fd5b5035610b5c565b60408051918252519081900360200190f35b61037f610b72565b61037f600480360360208110156103af57600080fd5b50356001600160a01b0316610b78565b61037f610c38565b61037f610c3e565b610525600480360360e08110156103e557600080fd5b6001600160a01b03823581169260208101358216926040820135909216916060820135919081019060a081016080820135600160201b81111561042757600080fd5b82018360208201111561043957600080fd5b803590602001918460018302840111600160201b8311171561045a57600080fd5b91908080601f0160208091040260200160405190810160405280939291908181526020018383808284376000920191909152509295949360208101935035915050600160201b8111156104ac57600080fd5b8201836020820111156104be57600080fd5b803590602001918460018302840111600160201b831117156104df57600080fd5b91908080601f0160208091040260200160405190810160405280939291908181526020018383808284376000920191909152509295505050903560ff169150610ca19050565b005b61034e6004803603606081101561053d57600080fd5b506001600160a01b03813581169160208101359091169060400135610d40565b61037f6004803603604081101561057357600080fd5b506001600160a01b038135169060200135610db2565b610591610dc8565b604080516001600160a01b039092168252519081900360200190f35b6105b5610dd7565b6040805160ff9092168252519081900360200190f35b610591610de0565b61037f600480360360208110156105e957600080fd5b50356001600160a01b0316610def565b61037f610ea5565b61037f6004803603602081101561061757600080fd5b5035610eb4565b61037f610ebf565b61037f6004803603602081101561063c57600080fd5b5035610ec5565b61037f6004803603602081101561065957600080fd5b50356001600160a01b0316610f60565b61037f6110b7565b6105916110bd565b61037f6004803603602081101561068f57600080fd5b50356001600160a01b03166110cc565b61037f6110e7565b61037f600480360360208110156106bd57600080fd5b503561119d565b61037f6111a8565b6102ad6111ae565b61037f600480360360208110156106ea57600080fd5b50356001600160a01b0316611206565b610525600480360360c081101561071057600080fd5b6001600160a01b03823581169260208101359091169160408201359190810190608081016060820135600160201b81111561074a57600080fd5b82018360208201111561075c57600080fd5b803590602001918460018302840111600160201b8311171561077d57600080fd5b91908080601f0160208091040260200160405190810160405280939291908181526020018383808284376000920191909152509295949360208101935035915050600160201b8111156107cf57600080fd5b8201836020820111156107e157600080fd5b803590602001918460018302840111600160201b8311171561080257600080fd5b91908080601f0160208091040260200160405190810160405280939291908181526020018383808284376000920191909152509295505050903560ff1691506112639050565b61037f6004803603602081101561085e57600080fd5b503561144a565b61037f611456565b61034e6004803603604081101561088357600080fd5b506001600160a01b0381351690602001356117ae565b61037f61181f565b61037f611825565b61037f600480360360608110156108bf57600080fd5b506001600160a01b038135811691602081013590911690604001356118c4565b61037f600480360360208110156108f557600080fd5b50356001600160a01b0316611935565b61037f6119c1565b6109336004803603602081101561092357600080fd5b50356001600160a01b0316611a7d565b604080519485526020850193909352838301919091526060830152519081900360800190f35b61037f6004803603602081101561096f57600080fd5b5035611b12565b61037f6004803603602081101561098c57600080fd5b5035611b1d565b61037f600480360360408110156109a957600080fd5b506001600160a01b0381358116916020013516611b28565b61037f611b53565b61037f600480360360208110156109df57600080fd5b50356001600160a01b0316611c56565b610591611c90565b61037f60048036036060811015610a0d57600080fd5b506001600160a01b03813581169160208101359160409091013516611c9f565b610591611cb7565b61037f611ccb565b61037f60048036036020811015610a5357600080fd5b5035611d2f565b61034e611dad565b60018054604080516020600284861615610100026000190190941693909304601f81018490048402820184019092528181529291830182828015610ae75780601f10610abc57610100808354040283529160200191610ae7565b820191906000526020600020905b815481529060010190602001808311610aca57829003601f168201915b505050505081565b336000818152600f602090815260408083206001600160a01b03871680855290835281842086905581518681529151939493909284927f8c5be1e5ebec7d5bd14f71427d1e84f3dd0314c0f7b2291e5b200ac8c7c3b925929081900390910190a360019150505b92915050565b600080610b6883611db2565b509150505b919050565b60085481565b6000805460ff16610bbd576040805162461bcd60e51b815260206004820152600a6024820152691c994b595b9d195c995960b21b604482015290519081900360640190fd5b6000805460ff19168155610bcf611456565b14610c1a576040805162461bcd60e51b81526020600482015260166024820152751858d8dc9d59481a5b9d195c995cdd0819985a5b195960521b604482015290519081900360640190fd5b610c2382611206565b90505b6000805460ff19166001179055919050565b600d5481565b6000806000610c4b611e5b565b90925090506000826003811115610c5e57fe5b14610c9a5760405162461bcd60e51b8152600401808060200182810382526035815260200180614e1b6035913960400191505060405180910390fd5b9150505b90565b610caf868686868686611263565b601180546001600160a01b0319166001600160a01b038981169190911791829055604080516318160ddd60e01b8152905192909116916318160ddd91600480820192602092909190829003018186803b158015610d0b57600080fd5b505afa158015610d1f573d6000803e3d6000fd5b505050506040513d6020811015610d3557600080fd5b505050505050505050565b6000805460ff16610d85576040805162461bcd60e51b815260206004820152600a6024820152691c994b595b9d195c995960b21b604482015290519081900360640190fd5b6000805460ff19168155610d9b33868686611f0a565b1490506000805460ff191660011790559392505050565b600080610dbf8484612218565b50949350505050565b6004546001600160a01b031681565b60035460ff1681565b6005546001600160a01b031681565b6000610df9614b3c565b6040518060200160405280610e0c6119c1565b90526001600160a01b0384166000908152600e6020526040812054919250908190610e389084906122c3565b90925090506000826003811115610e4b57fe5b14610e9d576040805162461bcd60e51b815260206004820152601f60248201527f62616c616e636520636f756c64206e6f742062652063616c63756c6174656400604482015290519081900360640190fd5b949350505050565b6000610eaf612317565b905090565b6000610b5682612397565b600b5481565b6000805460ff16610f0a576040805162461bcd60e51b815260206004820152600a6024820152691c994b595b9d195c995960b21b604482015290519081900360640190fd5b6000805460ff19168155610f1c611456565b90508015610f4257610f3a816010811115610f3357fe5b603061242b565b915050610c26565b610f4b83612491565b9150506000805460ff19166001179055919050565b60035460009061010090046001600160a01b03163314610f8d57610f866001603f61242b565b9050610b6d565b600554604080516320916f8160e01b815290516001600160a01b03928316928516916320916f81916004808301926020929190829003018186803b158015610fd457600080fd5b505afa158015610fe8573d6000803e3d6000fd5b505050506040513d6020811015610ffe57600080fd5b5051611051576040805162461bcd60e51b815260206004820152601c60248201527f6d61726b6572206d6574686f642072657475726e65642066616c736500000000604482015290519081900360640190fd5b600580546001600160a01b0319166001600160a01b03858116918217909255604080519284168352602083019190915280517fe5c13e6b6a767381c79ee0c7a30af3224b66ae32c840aa0c1a1a97e713bbc1469281900390910190a160005b9392505050565b60095481565b6011546001600160a01b031681565b6001600160a01b03166000908152600e602052604090205490565b6000805460ff1661112c576040805162461bcd60e51b815260206004820152600a6024820152691c994b595b9d195c995960b21b604482015290519081900360640190fd5b6000805460ff1916815561113e611456565b14611189576040805162461bcd60e51b81526020600482015260166024820152751858d8dc9d59481a5b9d195c995cdd0819985a5b195960521b604482015290519081900360640190fd5b50600b546000805460ff1916600117905590565b6000610b56826125c4565b600c5481565b6002805460408051602060018416156101000260001901909316849004601f81018490048402820184019092528181529291830182828015610ae75780601f10610abc57610100808354040283529160200191610ae7565b600080600061121484612645565b9092509050600082600381111561122757fe5b146110b05760405162461bcd60e51b8152600401808060200182810382526037815260200180614d596037913960400191505060405180910390fd5b60035461010090046001600160a01b031633146112b15760405162461bcd60e51b8152600401808060200182810382526024815260200180614c956024913960400191505060405180910390fd5b6009541580156112c15750600a54155b6112fc5760405162461bcd60e51b8152600401808060200182810382526023815260200180614cb96023913960400191505060405180910390fd5b60078490558361133d5760405162461bcd60e51b8152600401808060200182810382526030815260200180614cdc6030913960400191505060405180910390fd5b600061134887610f60565b9050801561139d576040805162461bcd60e51b815260206004820152601a60248201527f73657474696e67207369676874726f6c6c6572206661696c6564000000000000604482015290519081900360640190fd5b6113a56126f9565b600955670de0b6b3a7640000600a556113bd866126fd565b905080156113fc5760405162461bcd60e51b8152600401808060200182810382526022815260200180614d0c6022913960400191505060405180910390fd5b835161140f906001906020870190614b4f565b508251611423906002906020860190614b4f565b50506003805460ff90921660ff199283161790556000805490911660011790555050505050565b600080610b6883612872565b6000806114616126f9565b6009549091508082141561147a57600092505050610c9e565b6000611484612317565b600b54600c54600a54600654604080516315f2405360e01b815260048101879052602481018690526044810185905290519596509394929391926000926001600160a01b03909216916315f24053916064808301926020929190829003018186803b1580156114f257600080fd5b505afa158015611506573d6000803e3d6000fd5b505050506040513d602081101561151c57600080fd5b5051905065048c2739500081111561157b576040805162461bcd60e51b815260206004820152601c60248201527f626f72726f772072617465206973206162737572646c79206869676800000000604482015290519081900360640190fd5b60008061158889896128f3565b9092509050600082600381111561159b57fe5b146115ed576040805162461bcd60e51b815260206004820152601f60248201527f636f756c64206e6f742063616c63756c61746520626c6f636b2064656c746100604482015290519081900360640190fd5b6115f5614b3c565b60008060008061161360405180602001604052808a81525087612916565b9097509450600087600381111561162657fe5b14611658576116436009600689600381111561163e57fe5b61297e565b9e505050505050505050505050505050610c9e565b611662858c6122c3565b9097509350600087600381111561167557fe5b1461168d576116436009600189600381111561163e57fe5b611697848c6129e4565b909750925060008760038111156116aa57fe5b146116c2576116436009600489600381111561163e57fe5b6116dd6040518060200160405280600854815250858c612a0a565b909750915060008760038111156116f057fe5b14611708576116436009600589600381111561163e57fe5b611713858a8b612a0a565b9097509050600087600381111561172657fe5b1461173e576116436009600389600381111561163e57fe5b60098e9055600a819055600b839055600c829055604080518d8152602081018690528082018390526060810185905290517f4dec04e750ca11537cabcd8a9eab06494de08da3735bc8871cd41250e190bc049181900360800190a160009e50505050505050505050505050505090565b6000805460ff166117f3576040805162461bcd60e51b815260206004820152600a6024820152691c994b595b9d195c995960b21b604482015290519081900360640190fd5b6000805460ff1916815561180933338686611f0a565b1490506000805460ff1916600117905592915050565b600a5481565b6006546000906001600160a01b031663b8168816611841612317565b600b54600c546008546040518563ffffffff1660e01b81526004018085815260200184815260200183815260200182815260200194505050505060206040518083038186803b15801561189357600080fd5b505afa1580156118a7573d6000803e3d6000fd5b505050506040513d60208110156118bd57600080fd5b5051905090565b6000805460ff16611909576040805162461bcd60e51b815260206004820152600a6024820152691c994b595b9d195c995960b21b604482015290519081900360640190fd5b6000805460ff1916905561191f33858585612a66565b90506000805460ff191660011790559392505050565b60035460009061010090046001600160a01b0316331461195b57610f866001604561242b565b600480546001600160a01b038481166001600160a01b0319831681179093556040805191909216808252602082019390935281517fca4f2f25d0898edd99413412fb94012f9e54ec8142f9b093e7720646a95b16a9929181900390910190a160006110b0565b6000805460ff16611a06576040805162461bcd60e51b815260206004820152600a6024820152691c994b595b9d195c995960b21b604482015290519081900360640190fd5b6000805460ff19168155611a18611456565b14611a63576040805162461bcd60e51b81526020600482015260166024820152751858d8dc9d59481a5b9d195c995cdd0819985a5b195960521b604482015290519081900360640190fd5b611a6b610c3e565b90506000805460ff1916600117905590565b6001600160a01b0381166000908152600e6020526040812054819081908190818080611aa889612645565b935090506000816003811115611aba57fe5b14611ad85760095b975060009650869550859450611b0b9350505050565b611ae0611e5b565b925090506000816003811115611af257fe5b14611afe576009611ac2565b5060009650919450925090505b9193509193565b6000610b5682612ccc565b6000610b5682612d4b565b6001600160a01b039182166000908152600f6020908152604080832093909416825291909152205490565b6004546000906001600160a01b031633141580611b6e575033155b15611b8657611b7f6001600061242b565b9050610c9e565b60038054600480546001600160a01b03818116610100818102610100600160a81b0319871617968790556001600160a01b031990931690935560408051948390048216808652929095041660208401528351909391927ff9ffabca9c8276e99321725bcb43fb076a6c66a54b7f21c4e8146d8519b417dc92908290030190a1600454604080516001600160a01b038085168252909216602083015280517fca4f2f25d0898edd99413412fb94012f9e54ec8142f9b093e7720646a95b16a99281900390910190a160009250505090565b600080611c61611456565b90508015611c8757611c7f816010811115611c7857fe5b604061242b565b915050610b6d565b6110b0836126fd565b6006546001600160a01b031681565b600080611cad858585612dc5565b5095945050505050565b60035461010090046001600160a01b031681565b6006546000906001600160a01b03166315f24053611ce7612317565b600b54600c546040518463ffffffff1660e01b815260040180848152602001838152602001828152602001935050505060206040518083038186803b15801561189357600080fd5b6000805460ff16611d74576040805162461bcd60e51b815260206004820152600a6024820152691c994b595b9d195c995960b21b604482015290519081900360640190fd5b6000805460ff19168155611d86611456565b90508015611da457610f3a816010811115611d9d57fe5b604661242b565b610f4b83612ef7565b600181565b60008054819060ff16611df9576040805162461bcd60e51b815260206004820152600a6024820152691c994b595b9d195c995960b21b604482015290519081900360640190fd5b6000805460ff19168155611e0b611456565b90508015611e3657611e29816010811115611e2257fe5b603661242b565b925060009150611e479050565b611e41333386612f9f565b92509250505b6000805460ff191660011790559092909150565b600d54600090819080611e7657505060075460009150611f06565b6000611e80612317565b90506000611e8c614b3c565b6000611e9d84600b54600c54613384565b935090506000816003811115611eaf57fe5b14611ec457955060009450611f069350505050565b611ece83866133c2565b925090506000816003811115611ee057fe5b14611ef557955060009450611f069350505050565b5051600095509350611f0692505050565b9091565b600554604080516317b9b84b60e31b81523060048201526001600160a01b03868116602483015285811660448301526064820185905291516000938493169163bdcdc25891608480830192602092919082900301818787803b158015611f6f57600080fd5b505af1158015611f83573d6000803e3d6000fd5b505050506040513d6020811015611f9957600080fd5b505190508015611fb857611fb06003604a8361297e565b915050610e9d565b836001600160a01b0316856001600160a01b03161415611fde57611fb06002604b61242b565b60006001600160a01b038781169087161415611ffd5750600019612025565b506001600160a01b038086166000908152600f60209081526040808320938a16835292905220545b60008060008061203585896128f3565b9094509250600084600381111561204857fe5b14612066576120596009604b61242b565b9650505050505050610e9d565b6001600160a01b038a166000908152600e602052604090205461208990896128f3565b9094509150600084600381111561209c57fe5b146120ad576120596009604c61242b565b6001600160a01b0389166000908152600e60205260409020546120d090896129e4565b909450905060008460038111156120e357fe5b146120f4576120596009604d61242b565b6001600160a01b03808b166000908152600e6020526040808220859055918b16815220819055600019851461214c576001600160a01b03808b166000908152600f60209081526040808320938f168352929052208390555b886001600160a01b03168a6001600160a01b0316600080516020614dca8339815191528a6040518082815260200191505060405180910390a36005546040805163352b4a3f60e11b81523060048201526001600160a01b038d811660248301528c81166044830152606482018c905291519190921691636a56947e91608480830192600092919082900301818387803b1580156121e857600080fd5b505af11580156121fc573d6000803e3d6000fd5b5060009250612209915050565b9b9a5050505050505050505050565b60008054819060ff1661225f576040805162461bcd60e51b815260206004820152600a6024820152691c994b595b9d195c995960b21b604482015290519081900360640190fd5b6000805460ff19168155612271611456565b9050801561229c5761228f81601081111561228857fe5b603561242b565b9250600091506122ad9050565b6122a7338686612f9f565b92509250505b6000805460ff1916600117905590939092509050565b60008060006122d0614b3c565b6122da8686612916565b909250905060008260038111156122ed57fe5b146122fe5750915060009050612310565b600061230982613472565b9350935050505b9250929050565b601154604080516370a0823160e01b815230600482015290516000926001600160a01b03169182916370a0823191602480820192602092909190829003018186803b15801561236557600080fd5b505afa158015612379573d6000803e3d6000fd5b505050506040513d602081101561238f57600080fd5b505191505090565b6000805460ff166123dc576040805162461bcd60e51b815260206004820152600a6024820152691c994b595b9d195c995960b21b604482015290519081900360640190fd5b6000805460ff191681556123ee611456565b9050801561240c57610f3a81601081111561240557fe5b604e61242b565b61241583613481565b509150506000805460ff19166001179055919050565b60007f45b96fe442630264581b197e84bbada861235052c5a1aadfff9ea4e40a969aa083601081111561245a57fe5b83605081111561246657fe5b604080519283526020830191909152600082820152519081900360600190a18260108111156110b057fe5b600354600090819061010090046001600160a01b031633146124b957611c7f6001603161242b565b6124c16126f9565b600954146124d557611c7f600a603361242b565b826124de612317565b10156124f057611c7f600e603261242b565b600c5483111561250657611c7f6002603461242b565b50600c548281039081111561254c5760405162461bcd60e51b8152600401808060200182810382526024815260200180614eac6024913960400191505060405180910390fd5b600c81905560035461256c9061010090046001600160a01b031684613569565b600354604080516101009092046001600160a01b0316825260208201859052818101839052517f3bad0c59cf2f06e7314077049f48a93578cd16f5ef92329f1dab1420a99c177e916060908290030190a160006110b0565b6000805460ff16612609576040805162461bcd60e51b815260206004820152600a6024820152691c994b595b9d195c995960b21b604482015290519081900360640190fd5b6000805460ff1916815561261b611456565b9050801561263957610f3a81601081111561263257fe5b602761242b565b610f4b33600085613660565b6001600160a01b03811660009081526010602052604081208054829182918291829161267c5750600094508493506126f492505050565b61268c8160000154600a54613b27565b9094509250600084600381111561269f57fe5b146126b45750919350600092506126f4915050565b6126c2838260010154613b66565b909450915060008460038111156126d557fe5b146126ea5750919350600092506126f4915050565b5060009450925050505b915091565b4390565b600354600090819061010090046001600160a01b0316331461272557611c7f6001604261242b565b61272d6126f9565b6009541461274157611c7f600a604161242b565b600660009054906101000a90046001600160a01b03169050826001600160a01b0316632191f92a6040518163ffffffff1660e01b815260040160206040518083038186803b15801561279257600080fd5b505afa1580156127a6573d6000803e3d6000fd5b505050506040513d60208110156127bc57600080fd5b505161280f576040805162461bcd60e51b815260206004820152601c60248201527f6d61726b6572206d6574686f642072657475726e65642066616c736500000000604482015290519081900360640190fd5b600680546001600160a01b0319166001600160a01b03858116918217909255604080519284168352602083019190915280517fedffc32e068c7c95dfd4bdfd5c4d939a084d6b11c4199eac8436ed234d72f9269281900390910190a160006110b0565b60008054819060ff166128b9576040805162461bcd60e51b815260206004820152600a6024820152691c994b595b9d195c995960b21b604482015290519081900360640190fd5b6000805460ff191681556128cb611456565b905080156128e957611e298160108111156128e257fe5b601e61242b565b611e413385613b91565b60008083831161290a575060009050818303612310565b50600390506000612310565b6000612920614b3c565b600080612931866000015186613b27565b9092509050600082600381111561294457fe5b1461296357506040805160208101909152600081529092509050612310565b60408051602081019091529081526000969095509350505050565b60007f45b96fe442630264581b197e84bbada861235052c5a1aadfff9ea4e40a969aa08460108111156129ad57fe5b8460508111156129b957fe5b604080519283526020830191909152818101859052519081900360600190a1836010811115610e9d57fe5b6000808383018481106129fc57600092509050612310565b506002915060009050612310565b6000806000612a17614b3c565b612a218787612916565b90925090506000826003811115612a3457fe5b14612a455750915060009050612a5e565b612a57612a5182613472565b866129e4565b9350935050505b935093915050565b6005546040805163d02f735160e01b81523060048201526001600160a01b038781166024830152868116604483015285811660648301526084820185905291516000938493169163d02f73519160a480830192602092919082900301818787803b158015612ad357600080fd5b505af1158015612ae7573d6000803e3d6000fd5b505050506040513d6020811015612afd57600080fd5b505190508015612b1457611fb06003601b8361297e565b846001600160a01b0316846001600160a01b03161415612b3a57611fb06006601c61242b565b6001600160a01b0384166000908152600e602052604081205481908190612b6190876128f3565b90935091506000836003811115612b7457fe5b14612b9757612b8c6009601a85600381111561163e57fe5b945050505050610e9d565b6001600160a01b0388166000908152600e6020526040902054612bba90876129e4565b90935090506000836003811115612bcd57fe5b14612be557612b8c6009601985600381111561163e57fe5b6001600160a01b038088166000818152600e60209081526040808320879055938c168083529184902085905583518a815293519193600080516020614dca833981519152929081900390910190a360055460408051636d35bf9160e01b81523060048201526001600160a01b038c811660248301528b811660448301528a81166064830152608482018a905291519190921691636d35bf919160a480830192600092919082900301818387803b158015612c9e57600080fd5b505af1158015612cb2573d6000803e3d6000fd5b5060009250612cbf915050565b9998505050505050505050565b6000805460ff16612d11576040805162461bcd60e51b815260206004820152600a6024820152691c994b595b9d195c995960b21b604482015290519081900360640190fd5b6000805460ff19168155612d23611456565b90508015612d4157610f3a816010811115612d3a57fe5b600861242b565b610f4b3384613ff0565b6000805460ff16612d90576040805162461bcd60e51b815260206004820152600a6024820152691c994b595b9d195c995960b21b604482015290519081900360640190fd5b6000805460ff19168155612da2611456565b90508015612db957610f3a81601081111561263257fe5b610f4b33846000613660565b60008054819060ff16612e0c576040805162461bcd60e51b815260206004820152600a6024820152691c994b595b9d195c995960b21b604482015290519081900360640190fd5b6000805460ff19168155612e1e611456565b90508015612e4957612e3c816010811115612e3557fe5b600f61242b565b925060009150612ee09050565b836001600160a01b031663a6afed956040518163ffffffff1660e01b8152600401602060405180830381600087803b158015612e8457600080fd5b505af1158015612e98573d6000803e3d6000fd5b505050506040513d6020811015612eae57600080fd5b505190508015612ece57612e3c816010811115612ec757fe5b601061242b565b612eda338787876142fe565b92509250505b6000805460ff191660011790559094909350915050565b60035460009061010090046001600160a01b03163314612f1d57610f866001604761242b565b612f256126f9565b60095414612f3957610f86600a604861242b565b670de0b6b3a7640000821115612f5557610f866002604961242b565b6008805490839055604080518281526020810185905281517faaa68312e2ea9d50e16af5068410ab56e1a1fd06037b1a35664812c30f821460929181900390910190a160006110b0565b60055460408051631200453160e11b81523060048201526001600160a01b0386811660248301528581166044830152606482018590529151600093849384939116916324008a629160848082019260209290919082900301818787803b15801561300857600080fd5b505af115801561301c573d6000803e3d6000fd5b505050506040513d602081101561303257600080fd5b50519050801561305657613049600360388361297e565b925060009150612a5e9050565b61305e6126f9565b6009541461307257613049600a603961242b565b61307a614bcd565b6001600160a01b03861660009081526010602052604090206001015460608201526130a486612645565b60808301819052602083018260038111156130bb57fe5b60038111156130c657fe5b90525060009050816020015160038111156130dd57fe5b14613107576130f9600960378360200151600381111561163e57fe5b935060009250612a5e915050565b6000198514156131205760808101516040820152613128565b604081018590525b613136878260400151614881565b60e08201819052608082015161314b916128f3565b60a083018190526020830182600381111561316257fe5b600381111561316d57fe5b905250600090508160200151600381111561318457fe5b146131c05760405162461bcd60e51b815260040180806020018281038252603a815260200180614d90603a913960400191505060405180910390fd5b6131d0600b548260e001516128f3565b60c08301819052602083018260038111156131e757fe5b60038111156131f257fe5b905250600090508160200151600381111561320957fe5b146132455760405162461bcd60e51b8152600401808060200182810382526031815260200180614dea6031913960400191505060405180910390fd5b60a080820180516001600160a01b03808a16600081815260106020908152604091829020948555600a5460019095019490945560c0870151600b81905560e088015195518251948f16855294840192909252828101949094526060820192909252608081019190915290517f1a2a22cb034d26d1854bdc6666a5b91fe25efbbb5dcad3b0355478d6f5c362a1929181900390910190a160055460e0820151606083015160408051631ededc9160e01b81523060048201526001600160a01b038c811660248301528b8116604483015260648201949094526084810192909252519190921691631ededc919160a480830192600092919082900301818387803b15801561335057600080fd5b505af1158015613364573d6000803e3d6000fd5b5060009250613371915050565b8160e00151935093505050935093915050565b60008060008061339487876129e4565b909250905060008260038111156133a757fe5b146133b85750915060009050612a5e565b612a5781866128f3565b60006133cc614b3c565b6000806133e186670de0b6b3a7640000613b27565b909250905060008260038111156133f457fe5b1461341357506040805160208101909152600081529092509050612310565b6000806134208388613b66565b9092509050600082600381111561343357fe5b1461345557506040805160208101909152600081529094509250612310915050565b604080516020810190915290815260009890975095505050505050565b51670de0b6b3a7640000900490565b60008060008061348f6126f9565b600954146134ae576134a3600a604f61242b565b935091506126f49050565b6134b83386614881565b905080600c54019150600c54821015613518576040805162461bcd60e51b815260206004820181905260248201527f61646420726573657276657320756e6578706563746564206f766572666c6f77604482015290519081900360640190fd5b600c829055604080513381526020810183905280820184905290517fa91e67c5ea634cd43a12c5a482724b03de01e85ca68702a53d0c2f45cb7c1dc59181900360600190a160009350915050915091565b6011546040805163a9059cbb60e01b81526001600160a01b0385811660048301526024820185905291519190921691829163a9059cbb9160448082019260009290919082900301818387803b1580156135c157600080fd5b505af11580156135d5573d6000803e3d6000fd5b5050505060003d600081146135f157602081146135fb57600080fd5b6000199150613607565b60206000803e60005191505b508061365a576040805162461bcd60e51b815260206004820152601960248201527f544f4b454e5f5452414e534645525f4f55545f4641494c454400000000000000604482015290519081900360640190fd5b50505050565b600082158061366d575081155b6136a85760405162461bcd60e51b8152600401808060200182810382526034815260200180614e786034913960400191505060405180910390fd5b6136b0614c13565b6136b8611e5b565b60408301819052602083018260038111156136cf57fe5b60038111156136da57fe5b90525060009050816020015160038111156136f157fe5b146137155761370d6009602b8360200151600381111561163e57fe5b9150506110b0565b831561379657606081018490526040805160208101825290820151815261373c90856122c3565b608083018190526020830182600381111561375357fe5b600381111561375e57fe5b905250600090508160200151600381111561377557fe5b146137915761370d600960298360200151600381111561163e57fe5b61380f565b6137b28360405180602001604052808460400151815250614acb565b60608301819052602083018260038111156137c957fe5b60038111156137d457fe5b90525060009050816020015160038111156137eb57fe5b146138075761370d6009602a8360200151600381111561163e57fe5b608081018390525b60055460608201516040805163eabe7d9160e01b81523060048201526001600160a01b03898116602483015260448201939093529051600093929092169163eabe7d919160648082019260209290919082900301818787803b15801561387457600080fd5b505af1158015613888573d6000803e3d6000fd5b505050506040513d602081101561389e57600080fd5b5051905080156138be576138b5600360288361297e565b925050506110b0565b6138c66126f9565b600954146138da576138b5600a602c61242b565b6138ea600d5483606001516128f3565b60a084018190526020840182600381111561390157fe5b600381111561390c57fe5b905250600090508260200151600381111561392357fe5b1461393f576138b56009602e8460200151600381111561163e57fe5b6001600160a01b0386166000908152600e6020526040902054606083015161396791906128f3565b60c084018190526020840182600381111561397e57fe5b600381111561398957fe5b90525060009050826020015160038111156139a057fe5b146139bc576138b56009602d8460200151600381111561163e57fe5b81608001516139c9612317565b10156139db576138b5600e602f61242b565b6139e9868360800151613569565b60a0820151600d5560c08201516001600160a01b0387166000818152600e6020908152604091829020939093556060850151815190815290513093600080516020614dca833981519152928290030190a36080820151606080840151604080516001600160a01b038b168152602081019490945283810191909152517fe5b754fb1abb7f01b499791d0b820ae3b6af3424ac1c59768edb53f4ec31a9299281900390910190a160055460808301516060840151604080516351dff98960e01b81523060048201526001600160a01b038b81166024830152604482019490945260648101929092525191909216916351dff98991608480830192600092919082900301818387803b158015613afc57600080fd5b505af1158015613b10573d6000803e3d6000fd5b5060009250613b1d915050565b9695505050505050565b60008083613b3a57506000905080612310565b83830283858281613b4757fe5b0414613b5b57506002915060009050612310565b600092509050612310565b60008082613b7a5750600190506000612310565b6000838581613b8557fe5b04915091509250929050565b60055460408051634ef4c3e160e01b81523060048201526001600160a01b03858116602483015260448201859052915160009384938493911691634ef4c3e19160648082019260209290919082900301818787803b158015613bf257600080fd5b505af1158015613c06573d6000803e3d6000fd5b505050506040513d6020811015613c1c57600080fd5b505190508015613c4057613c336003601f8361297e565b9250600091506123109050565b613c486126f9565b60095414613c5c57613c33600a602261242b565b613c64614c13565b613c6c611e5b565b6040830181905260208301826003811115613c8357fe5b6003811115613c8e57fe5b9052506000905081602001516003811115613ca557fe5b14613ccf57613cc1600960218360200151600381111561163e57fe5b935060009250612310915050565b613cd98686614881565b60c0820181905260408051602081018252908301518152613cfa9190614acb565b6060830181905260208301826003811115613d1157fe5b6003811115613d1c57fe5b9052506000905081602001516003811115613d3357fe5b14613d85576040805162461bcd60e51b815260206004820181905260248201527f4d494e545f45584348414e47455f43414c43554c4154494f4e5f4641494c4544604482015290519081900360640190fd5b613d95600d5482606001516129e4565b6080830181905260208301826003811115613dac57fe5b6003811115613db757fe5b9052506000905081602001516003811115613dce57fe5b14613e0a5760405162461bcd60e51b8152600401808060200182810382526028815260200180614e506028913960400191505060405180910390fd5b6001600160a01b0386166000908152600e60205260409020546060820151613e3291906129e4565b60a0830181905260208301826003811115613e4957fe5b6003811115613e5457fe5b9052506000905081602001516003811115613e6b57fe5b14613ea75760405162461bcd60e51b815260040180806020018281038252602b815260200180614d2e602b913960400191505060405180910390fd5b6080810151600d5560a08101516001600160a01b0387166000818152600e60209081526040918290209390935560c084015160608086015183519485529484019190915282820193909352517f4c209b5fc8ad50758f13e2e1088ba56a560dff690a1c6fef26394f4c03821c4f929181900390910190a1606081015160408051918252516001600160a01b038816913091600080516020614dca8339815191529181900360200190a360055460c08201516060830151604080516341c728b960e01b81523060048201526001600160a01b038b81166024830152604482019490945260648101929092525191909216916341c728b991608480830192600092919082900301818387803b158015613fbd57600080fd5b505af1158015613fd1573d6000803e3d6000fd5b5060009250613fde915050565b8160c001519350935050509250929050565b6005546040805163368f515360e21b81523060048201526001600160a01b0385811660248301526044820185905291516000938493169163da3d454c91606480830192602092919082900301818787803b15801561404d57600080fd5b505af1158015614061573d6000803e3d6000fd5b505050506040513d602081101561407757600080fd5b5051905080156140965761408e6003600e8361297e565b915050610b56565b61409e6126f9565b600954146140b15761408e600a8061242b565b826140ba612317565b10156140cc5761408e600e600961242b565b6140d4614c51565b6140dd85612645565b60208301819052828260038111156140f157fe5b60038111156140fc57fe5b905250600090508151600381111561411057fe5b146141355761412c600960078360000151600381111561163e57fe5b92505050610b56565b6141438160200151856129e4565b604083018190528282600381111561415757fe5b600381111561416257fe5b905250600090508151600381111561417657fe5b146141925761412c6009600c8360000151600381111561163e57fe5b61419e600b54856129e4565b60608301819052828260038111156141b257fe5b60038111156141bd57fe5b90525060009050815160038111156141d157fe5b146141ed5761412c6009600b8360000151600381111561163e57fe5b6141f78585613569565b604080820180516001600160a01b03881660008181526010602090815290859020928355600a54600190930192909255606080860151600b81905593518551928352928201899052818501929092529081019190915290517f13ed6866d4e1ee6da46f845c46d7e54120883d75c5ea9a2dacc1c4ca8984ab809181900360800190a160055460408051635c77860560e01b81523060048201526001600160a01b0388811660248301526044820188905291519190921691635c77860591606480830192600092919082900301818387803b1580156142d457600080fd5b505af11580156142e8573d6000803e3d6000fd5b50600092506142f5915050565b95945050505050565b60055460408051632fe3f38f60e11b81523060048201526001600160a01b0384811660248301528781166044830152868116606483015260848201869052915160009384938493911691635fc7e71e9160a48082019260209290919082900301818787803b15801561436f57600080fd5b505af1158015614383573d6000803e3d6000fd5b505050506040513d602081101561439957600080fd5b5051905080156143bd576143b0600360128361297e565b9250600091506148789050565b6143c56126f9565b600954146143d9576143b0600a601661242b565b6143e16126f9565b846001600160a01b0316636c540baf6040518163ffffffff1660e01b815260040160206040518083038186803b15801561441a57600080fd5b505afa15801561442e573d6000803e3d6000fd5b505050506040513d602081101561444457600080fd5b505114614457576143b0600a601161242b565b866001600160a01b0316866001600160a01b0316141561447d576143b06006601761242b565b8461448e576143b06007601561242b565b6000198514156144a4576143b06007601461242b565b6000806144b2898989612f9f565b909250905081156144e2576144d38260108111156144cc57fe5b601861242b565b94506000935061487892505050565b6005546040805163c488847b60e01b81523060048201526001600160a01b038981166024830152604482018590528251600094859492169263c488847b926064808301939192829003018186803b15801561453c57600080fd5b505afa158015614550573d6000803e3d6000fd5b505050506040513d604081101561456657600080fd5b508051602090910151909250905081156145b15760405162461bcd60e51b8152600401808060200182810382526033815260200180614ed06033913960400191505060405180910390fd5b80886001600160a01b03166370a082318c6040518263ffffffff1660e01b815260040180826001600160a01b03166001600160a01b0316815260200191505060206040518083038186803b15801561460857600080fd5b505afa15801561461c573d6000803e3d6000fd5b505050506040513d602081101561463257600080fd5b50511015614687576040805162461bcd60e51b815260206004820152601860248201527f4c49515549444154455f5345495a455f544f4f5f4d5543480000000000000000604482015290519081900360640190fd5b60006001600160a01b0389163014156146ad576146a6308d8d85612a66565b9050614737565b6040805163b2a02ff160e01b81526001600160a01b038e811660048301528d81166024830152604482018590529151918b169163b2a02ff1916064808201926020929091908290030181600087803b15801561470857600080fd5b505af115801561471c573d6000803e3d6000fd5b505050506040513d602081101561473257600080fd5b505190505b8015614781576040805162461bcd60e51b81526020600482015260146024820152731d1bdad95b881cd95a5e9d5c994819985a5b195960621b604482015290519081900360640190fd5b604080516001600160a01b03808f168252808e1660208301528183018790528b1660608201526080810184905290517f298637f684da70674f26509b10f07ec2fbc77a335ab1e7d6215a4b2484d8bb529181900360a00190a1600554604080516347ef3b3b60e01b81523060048201526001600160a01b038c811660248301528f811660448301528e811660648301526084820188905260a48201869052915191909216916347ef3b3b9160c480830192600092919082900301818387803b15801561484c57600080fd5b505af1158015614860573d6000803e3d6000fd5b506000925061486d915050565b975092955050505050505b94509492505050565b601154604080516370a0823160e01b815230600482015290516000926001600160a01b031691839183916370a08231916024808301926020929190829003018186803b1580156148d057600080fd5b505afa1580156148e4573d6000803e3d6000fd5b505050506040513d60208110156148fa57600080fd5b5051604080516323b872dd60e01b81526001600160a01b038881166004830152306024830152604482018890529151929350908416916323b872dd9160648082019260009290919082900301818387803b15801561495757600080fd5b505af115801561496b573d6000803e3d6000fd5b5050505060003d60008114614987576020811461499157600080fd5b600019915061499d565b60206000803e60005191505b50806149f0576040805162461bcd60e51b815260206004820152601860248201527f544f4b454e5f5452414e534645525f494e5f4641494c45440000000000000000604482015290519081900360640190fd5b601154604080516370a0823160e01b815230600482015290516000926001600160a01b0316916370a08231916024808301926020929190829003018186803b158015614a3b57600080fd5b505afa158015614a4f573d6000803e3d6000fd5b505050506040513d6020811015614a6557600080fd5b5051905082811015614abe576040805162461bcd60e51b815260206004820152601a60248201527f544f4b454e5f5452414e534645525f494e5f4f564552464c4f57000000000000604482015290519081900360640190fd5b9190910395945050505050565b6000806000614ad8614b3c565b6122da86866000614ae7614b3c565b600080614afc670de0b6b3a764000087613b27565b90925090506000826003811115614b0f57fe5b14614b2e57506040805160208101909152600081529092509050612310565b6123098186600001516133c2565b6040518060200160405280600081525090565b828054600181600116156101000203166002900490600052602060002090601f016020900481019282601f10614b9057805160ff1916838001178555614bbd565b82800160010185558215614bbd579182015b82811115614bbd578251825591602001919060010190614ba2565b50614bc9929150614c7a565b5090565b6040805161010081019091528060008152602001600081526020016000815260200160008152602001600081526020016000815260200160008152602001600081525090565b6040805160e0810190915280600081526020016000815260200160008152602001600081526020016000815260200160008152602001600081525090565b604080516080810190915280600081526020016000815260200160008152602001600081525090565b610c9e91905b80821115614bc95760008155600101614c8056fe6f6e6c792061646d696e206d617920696e697469616c697a6520746865206d61726b65746d61726b6574206d6179206f6e6c7920626520696e697469616c697a6564206f6e6365696e697469616c2065786368616e67652072617465206d7573742062652067726561746572207468616e207a65726f2e73657474696e6720696e7465726573742072617465206d6f64656c206661696c65644d494e545f4e45575f4143434f554e545f42414c414e43455f43414c43554c4154494f4e5f4641494c4544626f72726f7742616c616e636553746f7265643a20626f72726f7742616c616e636553746f726564496e7465726e616c206661696c656452455041595f424f52524f575f4e45575f4143434f554e545f424f52524f575f42414c414e43455f43414c43554c4154494f4e5f4641494c4544ddf252ad1be2c89b69c2b068fc378daa952ba7f163c4a11628f55a4df523b3ef52455041595f424f52524f575f4e45575f544f54414c5f42414c414e43455f43414c43554c4154494f4e5f4641494c454465786368616e67655261746553746f7265643a2065786368616e67655261746553746f726564496e7465726e616c206661696c65644d494e545f4e45575f544f54414c5f535550504c595f43414c43554c4154494f4e5f4641494c45446f6e65206f662072656465656d546f6b656e73496e206f722072656465656d416d6f756e74496e206d757374206265207a65726f72656475636520726573657276657320756e657870656374656420756e646572666c6f774c49515549444154455f5349474854524f4c4c45525f43414c43554c4154455f414d4f554e545f5345495a455f4641494c4544a265627a7a723158207d973fe932ab1bb669c7c97f5fd9d1442e41c338b30ce7c51b1c4c633959a8ab64736f6c634300051000326f6e6c792061646d696e206d617920696e697469616c697a6520746865206d61726b65746d61726b6574206d6179206f6e6c7920626520696e697469616c697a6564206f6e6365696e697469616c2065786368616e67652072617465206d7573742062652067726561746572207468616e207a65726f2e73657474696e6720696e7465726573742072617465206d6f64656c206661696c6564",
  "source": "pragma solidity ^0.5.16;\n\nimport \"./CErc20.sol\";\n\n/**\n * @title SighFinance's CErc20Immutable Contract\n * @notice CTokens which wrap an EIP-20 underlying and are immutable\n * @author SighFinance\n */\ncontract CErc20Immutable is CErc20 {\n    /**\n     * @notice Construct a new money market\n     * @param underlying_ The address of the underlying asset\n     * @param sightroller_ The address of the sightroller\n     * @param interestRateModel_ The address of the interest rate model\n     * @param initialExchangeRateMantissa_ The initial exchange rate, scaled by 1e18\n     * @param name_ ERC-20 name of this token\n     * @param symbol_ ERC-20 symbol of this token\n     * @param decimals_ ERC-20 decimal precision of this token\n     * @param admin_ Address of the administrator of this token\n     */\n    constructor(address underlying_,\n                SightrollerInterface sightroller_,\n                InterestRateModel interestRateModel_,\n                uint initialExchangeRateMantissa_,\n                string memory name_,\n                string memory symbol_,\n                uint8 decimals_,\n                address payable admin_) public {\n        // Creator of the contract is admin during initialization\n        admin = msg.sender;\n\n        // Initialize the market\n        initialize(underlying_, sightroller_, interestRateModel_, initialExchangeRateMantissa_, name_, symbol_, decimals_);\n\n        // Set the proper admin now that initialization is done\n        admin = admin_;\n    }\n}\n",
  "sourcePath": "/Users/apple/Desktop/GITCOIN/Sigh_Finance/SighFinanceContracts/contracts/Tokens/CErc20Immutable.sol",
  "compiler": {
    "name": "solc",
    "version": "0.5.16+commit.9c3226ce.Emscripten.clang"
  },
  "schemaVersion": "3.2.4",
  "updatedAt": "2020-09-19T13:15:47.050Z",
  "networkType": "ethereum",
  "devdoc": {
    "author": "SighFinance",
    "methods": {
      "_acceptAdmin()": {
        "details": "Admin function for pending admin to accept role and update admin",
        "return": "uint 0=success, otherwise a failure (see ErrorReporter.sol for details)"
      },
      "_addReserves(uint256)": {
        "params": {
          "addAmount": "The amount fo underlying token to add as reserves"
        },
        "return": "uint 0=success, otherwise a failure (see ErrorReporter.sol for details)"
      },
      "_reduceReserves(uint256)": {
        "params": {
          "reduceAmount": "Amount of reduction to reserves"
        },
        "return": "uint 0=success, otherwise a failure (see ErrorReporter.sol for details)"
      },
      "_setInterestRateModel(address)": {
        "details": "Admin function to accrue interest and update the interest rate model",
        "params": {
          "newInterestRateModel": "the new interest rate model to use"
        },
        "return": "uint 0=success, otherwise a failure (see ErrorReporter.sol for details)"
      },
      "_setPendingAdmin(address)": {
        "details": "Admin function to begin change of admin. The newPendingAdmin must call `_acceptAdmin` to finalize the transfer.",
        "params": {
          "newPendingAdmin": "New pending admin."
        },
        "return": "uint 0=success, otherwise a failure (see ErrorReporter.sol for details)"
      },
      "_setReserveFactor(uint256)": {
        "details": "Admin function to accrue interest and set a new reserve factor",
        "return": "uint 0=success, otherwise a failure (see ErrorReporter.sol for details)"
      },
      "_setSightroller(address)": {
        "details": "Admin function to set a new sightroller",
        "return": "uint 0=success, otherwise a failure (see ErrorReporter.sol for details)"
      },
      "accrueInterest()": {
        "details": "This calculates interest accrued from the last checkpointed block  up to the current block and writes new checkpoint to storage."
      },
      "allowance(address,address)": {
        "params": {
          "owner": "The address of the account which owns the tokens to be spent",
          "spender": "The address of the account which may transfer tokens"
        },
        "return": "The number of tokens allowed to be spent (-1 means infinite)"
      },
      "approve(address,uint256)": {
        "details": "This will overwrite the approval amount for `spender` and is subject to issues noted [here](https://eips.ethereum.org/EIPS/eip-20#approve)",
        "params": {
          "amount": "The number of tokens that are approved (-1 means infinite)",
          "spender": "The address of the account which may transfer tokens"
        },
        "return": "Whether or not the approval succeeded"
      },
      "balanceOf(address)": {
        "params": {
          "owner": "The address of the account to query"
        },
        "return": "The number of tokens owned by `owner`"
      },
      "balanceOfUnderlying(address)": {
        "details": "This also accrues interest in a transaction",
        "params": {
          "owner": "The address of the account to query"
        },
        "return": "The amount of underlying owned by `owner`"
      },
      "borrow(uint256)": {
        "params": {
          "borrowAmount": "The amount of the underlying asset to borrow"
        },
        "return": "uint 0=success, otherwise a failure (see ErrorReporter.sol for details)"
      },
      "borrowBalanceCurrent(address)": {
        "params": {
          "account": "The address whose balance should be calculated after updating borrowIndex"
        },
        "return": "The calculated balance"
      },
      "borrowBalanceStored(address)": {
        "params": {
          "account": "The address whose balance should be calculated"
        },
        "return": "The calculated balance"
      },
      "borrowRatePerBlock()": {
        "return": "The borrow interest rate per block, scaled by 1e18"
      },
      "constructor": {
        "params": {
          "admin_": "Address of the administrator of this token",
          "decimals_": "ERC-20 decimal precision of this token",
          "initialExchangeRateMantissa_": "The initial exchange rate, scaled by 1e18",
          "interestRateModel_": "The address of the interest rate model",
          "name_": "ERC-20 name of this token",
          "sightroller_": "The address of the sightroller",
          "symbol_": "ERC-20 symbol of this token",
          "underlying_": "The address of the underlying asset"
        }
      },
      "exchangeRateCurrent()": {
        "return": "Calculated exchange rate scaled by 1e18"
      },
      "exchangeRateStored()": {
        "details": "This function does not accrue interest before calculating the exchange rate",
        "return": "Calculated exchange rate scaled by 1e18"
      },
      "getAccountSnapshot(address)": {
        "details": "This is used by sightroller to more efficiently perform liquidity checks.",
        "params": {
          "account": "Address of the account to snapshot"
        },
        "return": "(possible error, token balance, borrow balance, exchange rate mantissa)"
      },
      "getCash()": {
        "return": "The quantity of underlying asset owned by this contract"
      },
      "initialize(address,address,address,uint256,string,string,uint8)": {
        "params": {
          "decimals_": "ERC-20 decimal precision of this token",
          "initialExchangeRateMantissa_": "The initial exchange rate, scaled by 1e18",
          "interestRateModel_": "The address of the interest rate model",
          "name_": "ERC-20 name of this token",
          "sightroller_": "The address of the sightroller",
          "symbol_": "ERC-20 symbol of this token",
          "underlying_": "The address of the underlying asset"
        }
      },
      "initialize(address,address,uint256,string,string,uint8)": {
        "params": {
          "decimals_": "EIP-20 decimal precision of this token",
          "initialExchangeRateMantissa_": "The initial exchange rate, scaled by 1e18",
          "interestRateModel_": "The address of the interest rate model",
          "name_": "EIP-20 name of this token",
          "sightroller_": "The address of the sightroller",
          "symbol_": "EIP-20 symbol of this token"
        }
      },
      "liquidateBorrow(address,uint256,address)": {
        "params": {
          "borrower": "The borrower of this cToken to be liquidated",
          "cTokenCollateral": "The market in which to seize collateral from the borrower",
          "repayAmount": "The amount of the underlying borrowed asset to repay"
        },
        "return": "uint 0=success, otherwise a failure (see ErrorReporter.sol for details)"
      },
      "mint(uint256)": {
        "details": "Accrues interest whether or not the operation succeeds, unless reverted",
        "params": {
          "mintAmount": "The amount of the underlying asset to supply"
        },
        "return": "uint 0=success, otherwise a failure (see ErrorReporter.sol for details)"
      },
      "redeem(uint256)": {
        "details": "Accrues interest whether or not the operation succeeds, unless reverted",
        "params": {
          "redeemTokens": "The number of cTokens to redeem into underlying"
        },
        "return": "uint 0=success, otherwise a failure (see ErrorReporter.sol for details)"
      },
      "redeemUnderlying(uint256)": {
        "details": "Accrues interest whether or not the operation succeeds, unless reverted",
        "params": {
          "redeemAmount": "The amount of underlying to redeem"
        },
        "return": "uint 0=success, otherwise a failure (see ErrorReporter.sol for details)"
      },
      "repayBorrow(uint256)": {
        "params": {
          "repayAmount": "The amount to repay"
        },
        "return": "uint 0=success, otherwise a failure (see ErrorReporter.sol for details)"
      },
      "repayBorrowBehalf(address,uint256)": {
        "params": {
          "borrower": "the account with the debt being payed off",
          "repayAmount": "The amount to repay"
        },
        "return": "uint 0=success, otherwise a failure (see ErrorReporter.sol for details)"
      },
      "seize(address,address,uint256)": {
        "details": "Will fail unless called by another cToken during the process of liquidation. Its absolutely critical to use msg.sender as the borrowed cToken and not a parameter.",
        "params": {
          "borrower": "The account having collateral seized",
          "liquidator": "The account receiving seized collateral",
          "seizeTokens": "The number of cTokens to seize"
        },
        "return": "uint 0=success, otherwise a failure (see ErrorReporter.sol for details)"
      },
      "supplyRatePerBlock()": {
        "return": "The supply interest rate per block, scaled by 1e18"
      },
      "totalBorrowsCurrent()": {
        "return": "The total borrows with interest"
      },
      "transfer(address,uint256)": {
        "params": {
          "amount": "The number of tokens to transfer",
          "dst": "The address of the destination account"
        },
        "return": "Whether or not the transfer succeeded"
      },
      "transferFrom(address,address,uint256)": {
        "params": {
          "amount": "The number of tokens to transfer",
          "dst": "The address of the destination account",
          "src": "The address of the source account"
        },
        "return": "Whether or not the transfer succeeded"
      }
    },
    "title": "SighFinance's CErc20Immutable Contract"
  },
  "userdoc": {
    "methods": {
      "_acceptAdmin()": {
        "notice": "Accepts transfer of admin rights. msg.sender must be pendingAdmin"
      },
      "_addReserves(uint256)": {
        "notice": "The sender adds to reserves."
      },
      "_reduceReserves(uint256)": {
        "notice": "Accrues interest and reduces reserves by transferring to admin"
      },
      "_setInterestRateModel(address)": {
        "notice": "accrues interest and updates the interest rate model using _setInterestRateModelFresh"
      },
      "_setPendingAdmin(address)": {
        "notice": "Begins transfer of admin rights. The newPendingAdmin must call `_acceptAdmin` to finalize the transfer."
      },
      "_setReserveFactor(uint256)": {
        "notice": "accrues interest and sets a new reserve factor for the protocol using _setReserveFactorFresh"
      },
      "_setSightroller(address)": {
        "notice": "Sets a new sightroller for the market"
      },
      "accrueInterest()": {
        "notice": "Applies accrued interest to total borrows and reserves"
      },
      "allowance(address,address)": {
        "notice": "Get the current allowance from `owner` for `spender`"
      },
      "approve(address,uint256)": {
        "notice": "Approve `spender` to transfer up to `amount` from `src`"
      },
      "balanceOf(address)": {
        "notice": "Get the token balance of the `owner`"
      },
      "balanceOfUnderlying(address)": {
        "notice": "Get the underlying balance of the `owner`"
      },
      "borrow(uint256)": {
        "notice": "Sender borrows assets from the protocol to their own address"
      },
      "borrowBalanceCurrent(address)": {
        "notice": "Accrue interest to updated borrowIndex and then calculate account's borrow balance using the updated borrowIndex"
      },
      "borrowBalanceStored(address)": {
        "notice": "Return the borrow balance of account based on stored data"
      },
      "borrowRatePerBlock()": {
        "notice": "Returns the current per-block borrow interest rate for this cToken"
      },
      "constructor": "Construct a new money market",
      "exchangeRateCurrent()": {
        "notice": "Accrue interest then return the up-to-date exchange rate"
      },
      "exchangeRateStored()": {
        "notice": "Calculates the exchange rate from the underlying to the CToken"
      },
      "getAccountSnapshot(address)": {
        "notice": "Get a snapshot of the account's balances, and the cached exchange rate"
      },
      "getCash()": {
        "notice": "Get cash balance of this cToken in the underlying asset"
      },
      "initialize(address,address,address,uint256,string,string,uint8)": {
        "notice": "Initialize the new money market"
      },
      "initialize(address,address,uint256,string,string,uint8)": {
        "notice": "Initialize the money market"
      },
      "liquidateBorrow(address,uint256,address)": {
        "notice": "The sender liquidates the borrowers collateral. The collateral seized is transferred to the liquidator."
      },
      "mint(uint256)": {
        "notice": "Sender supplies assets into the market and receives cTokens in exchange"
      },
      "redeem(uint256)": {
        "notice": "Sender redeems cTokens in exchange for the underlying asset"
      },
      "redeemUnderlying(uint256)": {
        "notice": "Sender redeems cTokens in exchange for a specified amount of underlying asset"
      },
      "repayBorrow(uint256)": {
        "notice": "Sender repays their own borrow"
      },
      "repayBorrowBehalf(address,uint256)": {
        "notice": "Sender repays a borrow belonging to borrower"
      },
      "seize(address,address,uint256)": {
        "notice": "Transfers collateral tokens (this market) to the liquidator."
      },
      "supplyRatePerBlock()": {
        "notice": "Returns the current per-block supply interest rate for this cToken"
      },
      "totalBorrowsCurrent()": {
        "notice": "Returns the current total borrows plus accrued interest"
      },
      "transfer(address,uint256)": {
        "notice": "Transfer `amount` tokens from `msg.sender` to `dst`"
      },
      "transferFrom(address,address,uint256)": {
        "notice": "Transfer `amount` tokens from `src` to `dst`"
      }
    },
    "notice": "CTokens which wrap an EIP-20 underlying and are immutable"
  }
}