{
  "contractName": "ChainlinkProxyPriceProvider",
  "abi": [
    {
      "inputs": [
        {
          "internalType": "address",
          "name": "globalAddressesProvider_",
          "type": "address"
        }
      ],
      "payable": false,
      "stateMutability": "nonpayable",
      "type": "constructor"
    },
    {
      "anonymous": false,
      "inputs": [
        {
          "indexed": true,
          "internalType": "address",
          "name": "asset",
          "type": "address"
        },
        {
          "indexed": true,
          "internalType": "address",
          "name": "source",
          "type": "address"
        }
      ],
      "name": "AssetSourceUpdated",
      "type": "event"
    },
    {
      "anonymous": false,
      "inputs": [
        {
          "indexed": true,
          "internalType": "address",
          "name": "fallbackOracle",
          "type": "address"
        }
      ],
      "name": "FallbackOracleUpdated",
      "type": "event"
    },
    {
      "constant": true,
      "inputs": [],
      "name": "globalAddressesProvider",
      "outputs": [
        {
          "internalType": "contract IGlobalAddressesProvider",
          "name": "",
          "type": "address"
        }
      ],
      "payable": false,
      "stateMutability": "view",
      "type": "function"
    },
    {
      "constant": false,
      "inputs": [
        {
          "internalType": "address",
          "name": "asset_",
          "type": "address"
        },
        {
          "internalType": "address",
          "name": "source_",
          "type": "address"
        }
      ],
      "name": "supportNewAsset",
      "outputs": [],
      "payable": false,
      "stateMutability": "nonpayable",
      "type": "function"
    },
    {
      "constant": false,
      "inputs": [
        {
          "internalType": "address[]",
          "name": "_assets",
          "type": "address[]"
        },
        {
          "internalType": "address[]",
          "name": "_sources",
          "type": "address[]"
        }
      ],
      "name": "setAssetSources",
      "outputs": [],
      "payable": false,
      "stateMutability": "nonpayable",
      "type": "function"
    },
    {
      "constant": false,
      "inputs": [
        {
          "internalType": "address",
          "name": "_fallbackOracle",
          "type": "address"
        }
      ],
      "name": "setFallbackOracle",
      "outputs": [],
      "payable": false,
      "stateMutability": "nonpayable",
      "type": "function"
    },
    {
      "constant": true,
      "inputs": [
        {
          "internalType": "address",
          "name": "_asset",
          "type": "address"
        }
      ],
      "name": "getAssetPrice",
      "outputs": [
        {
          "internalType": "uint256",
          "name": "",
          "type": "uint256"
        }
      ],
      "payable": false,
      "stateMutability": "view",
      "type": "function"
    },
    {
      "constant": true,
      "inputs": [
        {
          "internalType": "address",
          "name": "_asset",
          "type": "address"
        }
      ],
      "name": "getAssetPriceDecimals",
      "outputs": [
        {
          "internalType": "uint8",
          "name": "",
          "type": "uint8"
        }
      ],
      "payable": false,
      "stateMutability": "view",
      "type": "function"
    },
    {
      "constant": true,
      "inputs": [
        {
          "internalType": "address[]",
          "name": "_assets",
          "type": "address[]"
        }
      ],
      "name": "getAssetsPrices",
      "outputs": [
        {
          "internalType": "uint256[]",
          "name": "",
          "type": "uint256[]"
        }
      ],
      "payable": false,
      "stateMutability": "view",
      "type": "function"
    },
    {
      "constant": true,
      "inputs": [
        {
          "internalType": "address",
          "name": "_asset",
          "type": "address"
        }
      ],
      "name": "getSourceOfAsset",
      "outputs": [
        {
          "internalType": "address",
          "name": "",
          "type": "address"
        }
      ],
      "payable": false,
      "stateMutability": "view",
      "type": "function"
    },
    {
      "constant": true,
      "inputs": [],
      "name": "getFallbackOracle",
      "outputs": [
        {
          "internalType": "address",
          "name": "",
          "type": "address"
        }
      ],
      "payable": false,
      "stateMutability": "view",
      "type": "function"
    }
  ],
  "bytecode": "0x608060405234801561001057600080fd5b50604051610c53380380610c538339818101604052602081101561003357600080fd5b5051600080546001600160a01b039092166001600160a01b0319909216919091179055610bee806100656000396000f3fe608060405234801561001057600080fd5b50600436106100935760003560e01c80639d23d9f2116100665780639d23d9f214610112578063a9ec70d1146101d2578063abfd53101461020e578063b3596f07146102d0578063c790f3fb1461030857610093565b80630219b9c514610098578063170aee73146100bc5780636210308c146100e457806392bf2be0146100ec575b600080fd5b6100a0610336565b604080516001600160a01b039092168252519081900360200190f35b6100e2600480360360208110156100d257600080fd5b50356001600160a01b0316610345565b005b6100a0610410565b6100a06004803603602081101561010257600080fd5b50356001600160a01b031661041f565b6101826004803603602081101561012857600080fd5b81019060208101813564010000000081111561014357600080fd5b82018360208201111561015557600080fd5b8035906020019184602083028401116401000000008311171561017757600080fd5b509092509050610440565b60408051602080825283518183015283519192839290830191858101910280838360005b838110156101be5781810151838201526020016101a6565b505050509050019250505060405180910390f35b6101f8600480360360208110156101e857600080fd5b50356001600160a01b03166104c9565b6040805160ff9092168252519081900360200190f35b6100e26004803603604081101561022457600080fd5b81019060208101813564010000000081111561023f57600080fd5b82018360208201111561025157600080fd5b8035906020019184602083028401116401000000008311171561027357600080fd5b91939092909160208101903564010000000081111561029157600080fd5b8201836020820111156102a357600080fd5b803590602001918460208302840111640100000000831117156102c557600080fd5b509092509050610551565b6102f6600480360360208110156102e657600080fd5b50356001600160a01b0316610683565b60408051918252519081900360200190f35b6100e26004803603604081101561031e57600080fd5b506001600160a01b0381358116916020013516610860565b6000546001600160a01b031681565b6000809054906101000a90046001600160a01b03166001600160a01b03166333128d596040518163ffffffff1660e01b815260040160206040518083038186803b15801561039257600080fd5b505afa1580156103a6573d6000803e3d6000fd5b505050506040513d60208110156103bc57600080fd5b50516001600160a01b031633146104045760405162461bcd60e51b8152600401808060200182810382526048815260200180610b726048913960600191505060405180910390fd5b61040d816109ca565b50565b6002546001600160a01b031690565b6001600160a01b03808216600090815260016020526040902054165b919050565b60608083839050604051908082528060200260200182016040528015610470578160200160208202803883390190505b50905060005b838110156104c1576104a285858381811061048d57fe5b905060200201356001600160a01b0316610683565b8282815181106104ae57fe5b6020908102919091010152600101610476565b509392505050565b6001600160a01b03808216600090815260016020908152604080832054815163313ce56760e01b81529151939416928492849263313ce5679260048083019392829003018186803b15801561051d57600080fd5b505afa158015610531573d6000803e3d6000fd5b505050506040513d602081101561054757600080fd5b5051949350505050565b6000809054906101000a90046001600160a01b03166001600160a01b03166333128d596040518163ffffffff1660e01b815260040160206040518083038186803b15801561059e57600080fd5b505afa1580156105b2573d6000803e3d6000fd5b505050506040513d60208110156105c857600080fd5b50516001600160a01b031633146106105760405162461bcd60e51b8152600401808060200182810382526048815260200180610b726048913960600191505060405180910390fd5b61067d84848080602002602001604051908101604052809392919081815260200183836020028082843760009201919091525050604080516020808802828101820190935287825290935087925086918291850190849080828437600092019190915250610a1492505050565b50505050565b6001600160a01b038082166000908152600160205260408120549091166106a8610b59565b6001600160a01b0316836001600160a01b031614156106d257670de0b6b3a764000091505061043b565b6001600160a01b038116610762576002546040805163b3596f0760e01b81526001600160a01b0386811660048301529151919092169163b3596f07916024808301926020929190829003018186803b15801561072d57600080fd5b505afa158015610741573d6000803e3d6000fd5b505050506040513d602081101561075757600080fd5b5051915061043b9050565b6000816001600160a01b03166350d25bcd6040518163ffffffff1660e01b815260040160206040518083038186803b15801561079d57600080fd5b505afa1580156107b1573d6000803e3d6000fd5b505050506040513d60208110156107c757600080fd5b5051905060008113156107dd57915061043b9050565b6002546040805163b3596f0760e01b81526001600160a01b0387811660048301529151919092169163b3596f07916024808301926020929190829003018186803b15801561082a57600080fd5b505afa15801561083e573d6000803e3d6000fd5b505050506040513d602081101561085457600080fd5b5051925061043b915050565b6000809054906101000a90046001600160a01b03166001600160a01b03166333128d596040518163ffffffff1660e01b815260040160206040518083038186803b1580156108ad57600080fd5b505afa1580156108c1573d6000803e3d6000fd5b505050506040513d60208110156108d757600080fd5b50516001600160a01b0316331461091f5760405162461bcd60e51b8152600401808060200182810382526048815260200180610b726048913960600191505060405180910390fd5b604080516001808252818301909252606091602080830190803883395050604080516001808252818301909252929350606092915060208083019080388339019050509050838260008151811061097257fe5b60200260200101906001600160a01b031690816001600160a01b03168152505082816000815181106109a057fe5b60200260200101906001600160a01b031690816001600160a01b03168152505061067d8282610a14565b600280546001600160a01b0319166001600160a01b0383169081179091556040517fce7a780d33665b1ea097af5f155e3821b809ecbaa839d3b33aa83ba28168cefb90600090a250565b8051825114610a6a576040805162461bcd60e51b815260206004820152601a60248201527f494e434f4e53495354454e545f504152414d535f4c454e475448000000000000604482015290519081900360640190fd5b60005b8251811015610b5457818181518110610a8257fe5b602002602001015160016000858481518110610a9a57fe5b60200260200101516001600160a01b03166001600160a01b0316815260200190815260200160002060006101000a8154816001600160a01b0302191690836001600160a01b03160217905550818181518110610af257fe5b60200260200101516001600160a01b0316838281518110610b0f57fe5b60200260200101516001600160a01b03167f22c5b7b2d8561d39f7f210b6b326a1aa69f15311163082308ac4877db6339dc160405160405180910390a3600101610a6d565b505050565b73eeeeeeeeeeeeeeeeeeeeeeeeeeeeeeeeeeeeeeee9056fe4e657720536f75726365202f2066616c6c6261636b206f7261636c652063616e206f6e6c792062652073657420627920746865204c656e64696e67506f6f6c204d616e616765722ea265627a7a72315820f878117dda4193f2924259138687ba7257516aaa6e91f309450de89ecee1f74964736f6c63430005100032",
  "source": "pragma solidity ^0.5.0;\n\nimport \"../../configuration/IGlobalAddressesProvider.sol\";\nimport \"../interfaces/IPriceOracleGetter.sol\";\nimport \"../interfaces/IAggregatorV2V3Interface.sol\";\nimport \"../libraries/EthAddressLib.sol\";\n\n/// @title ChainlinkProxyPriceProvider\n/// @author Aave, SIGH Finance\n/// @notice Proxy smart contract to get the price of an asset from a price source, with Chainlink Aggregator smart contracts as primary option\n/// - If the returned price by a Chainlink aggregator is <= 0, the call is forwarded to a fallbackOracle\n\ncontract ChainlinkProxyPriceProvider is IPriceOracleGetter {\n\n    IGlobalAddressesProvider public globalAddressesProvider;\n\n    mapping(address => IAggregatorV2V3Interface) private assetsSources;\n    IPriceOracleGetter private fallbackOracle;\n\n    event AssetSourceUpdated(address indexed asset, address indexed source);\n    event FallbackOracleUpdated(address indexed fallbackOracle);\n\n    modifier onlyLendingPoolManager {\n        require(msg.sender == globalAddressesProvider.getLendingPoolManager(),\"New Source / fallback oracle can only be set by the LendingPool Manager.\");\n        _;\n    }\n\n// #######################\n// ##### CONSTRUCTOR #####\n// #######################\n\n    constructor( address globalAddressesProvider_ ) public {\n        globalAddressesProvider = IGlobalAddressesProvider(globalAddressesProvider_);\n    }\n\n// ####################################\n// ##### SET THE PRICEFEED SOURCE #####\n// ####################################\n    \n    function supportNewAsset(address asset_, address source_) onlyLendingPoolManager public  {  // \n        address[] memory assets = new address[](1);\n        address[] memory sources = new address[](1) ;\n        assets[0] = asset_;\n        sources[0] = source_;\n        internalSetAssetsSources(assets,sources);\n    }\n\n    /// @notice External function called by the Aave governance to set or replace sources of assets\n    /// @param _assets The addresses of the assets\n    /// @param _sources The address of the source of each asset\n    function setAssetSources(address[] calldata _assets, address[] calldata _sources) external onlyLendingPoolManager {\n        internalSetAssetsSources(_assets, _sources);\n    }\n\n    /// @notice Sets the fallbackOracle\n    /// - Callable only by the Aave governance\n    /// @param _fallbackOracle The address of the fallbackOracle\n    function setFallbackOracle(address _fallbackOracle) onlyLendingPoolManager external  {  // \n        internalSetFallbackOracle(_fallbackOracle);\n    }\n\n// ##############################\n// ##### INTERNAL FUNCTIONS #####\n// ##############################\n\n    /// @notice Internal function to set the sources for each asset\n    /// @param _assets The addresses of the assets\n    /// @param _sources The address of the source of each asset\n    function internalSetAssetsSources(address[] memory _assets, address[] memory _sources) internal {\n        require(_assets.length == _sources.length, \"INCONSISTENT_PARAMS_LENGTH\");\n        for (uint256 i = 0; i < _assets.length; i++) {\n            assetsSources[_assets[i]] = IAggregatorV2V3Interface(_sources[i]);\n            emit AssetSourceUpdated(_assets[i], _sources[i]);\n        }\n    }\n\n    /// @notice Internal function to set the fallbackOracle\n    /// @param _fallbackOracle The address of the fallbackOracle\n    function internalSetFallbackOracle(address _fallbackOracle) internal {\n        fallbackOracle = IPriceOracleGetter(_fallbackOracle);\n        emit FallbackOracleUpdated(_fallbackOracle);\n    }\n\n// ##########################\n// ##### VIEW FUNCTIONS #####\n// ##########################\n\n    /// @notice Gets an asset price by address\n    /// @param _asset The asset address\n    function getAssetPrice(address _asset) public view returns(uint256) {\n        IAggregatorV2V3Interface source = assetsSources[_asset];\n        if (_asset == EthAddressLib.ethAddress()) {\n            return 1 ether;\n        } \n        else {\n            if (address(source) == address(0)) {                // If there is no registered source for the asset, call the fallbackOracle\n                return IPriceOracleGetter(fallbackOracle).getAssetPrice(_asset);\n            } \n            else {\n                int256 _price = IAggregatorV2V3Interface(source).latestAnswer();\n                if (_price > 0) {\n                    return uint256(_price);\n                } \n                else {\n                    return IPriceOracleGetter(fallbackOracle).getAssetPrice(_asset);\n                }\n            }\n        }\n    }\n    \n    function getAssetPriceDecimals (address _asset) external view returns(uint8) {\n        IAggregatorV2V3Interface source = assetsSources[_asset];\n        uint8 decimals = IAggregatorV2V3Interface(source).decimals();\n        return decimals;\n    }\n\n    /// @notice Gets a list of prices from a list of assets addresses\n    /// @param _assets The list of assets addresses\n    function getAssetsPrices(address[] calldata _assets) external view returns(uint256[] memory) {\n        uint256[] memory prices = new uint256[](_assets.length);\n        for (uint256 i = 0; i < _assets.length; i++) {\n            prices[i] = getAssetPrice(_assets[i]);\n        }\n        return prices;\n    }\n\n    /// @notice Gets the address of the source for an asset address\n    /// @param _asset The address of the asset\n    /// @return address The address of the source\n    function getSourceOfAsset(address _asset) external view returns(address) {\n        return address(assetsSources[_asset]);\n    }\n\n    /// @notice Gets the address of the fallback oracle\n    /// @return address The addres of the fallback oracle\n    function getFallbackOracle() external view returns(address) {\n        return address(fallbackOracle);\n    }\n}",
  "sourcePath": "/Users/apple/Desktop/GITCOIN/Sigh_Finance/SighFinanceContracts/contracts/LendingProtocolContracts/PriceOracle/ChainlinkProxyPriceProvider.sol",
  "compiler": {
    "name": "solc",
    "version": "0.5.16+commit.9c3226ce.Emscripten.clang"
  },
  "schemaVersion": "3.2.4",
  "updatedAt": "2020-11-16T00:51:24.260Z",
  "devdoc": {
    "author": "Aave, SIGH Finance",
    "methods": {
      "getAssetPrice(address)": {
        "params": {
          "_asset": "The asset address"
        }
      },
      "getAssetsPrices(address[])": {
        "params": {
          "_assets": "The list of assets addresses"
        }
      },
      "getFallbackOracle()": {
        "return": "address The addres of the fallback oracle"
      },
      "getSourceOfAsset(address)": {
        "params": {
          "_asset": "The address of the asset"
        },
        "return": "address The address of the source"
      },
      "setAssetSources(address[],address[])": {
        "params": {
          "_assets": "The addresses of the assets",
          "_sources": "The address of the source of each asset"
        }
      },
      "setFallbackOracle(address)": {
        "params": {
          "_fallbackOracle": "The address of the fallbackOracle"
        }
      }
    },
    "title": "ChainlinkProxyPriceProvider"
  },
  "userdoc": {
    "methods": {
      "getAssetPrice(address)": {
        "notice": "Gets an asset price by address"
      },
      "getAssetsPrices(address[])": {
        "notice": "Gets a list of prices from a list of assets addresses"
      },
      "getFallbackOracle()": {
        "notice": "Gets the address of the fallback oracle"
      },
      "getSourceOfAsset(address)": {
        "notice": "Gets the address of the source for an asset address"
      },
      "setAssetSources(address[],address[])": {
        "notice": "External function called by the Aave governance to set or replace sources of assets"
      },
      "setFallbackOracle(address)": {
        "notice": "Sets the fallbackOracle - Callable only by the Aave governance"
      }
    },
    "notice": "Proxy smart contract to get the price of an asset from a price source, with Chainlink Aggregator smart contracts as primary option - If the returned price by a Chainlink aggregator is <= 0, the call is forwarded to a fallbackOracle"
  }
}