{
  "contractName": "DefaultInstrumentInterestRateStrategy",
  "abi": [
    {
      "inputs": [
        {
          "internalType": "contract GlobalAddressesProvider",
          "name": "_provider",
          "type": "address"
        },
        {
          "internalType": "uint256",
          "name": "_baseVariableBorrowRate",
          "type": "uint256"
        },
        {
          "internalType": "uint256",
          "name": "_variableRateSlope1",
          "type": "uint256"
        },
        {
          "internalType": "uint256",
          "name": "_variableRateSlope2",
          "type": "uint256"
        },
        {
          "internalType": "uint256",
          "name": "_stableRateSlope1",
          "type": "uint256"
        },
        {
          "internalType": "uint256",
          "name": "_stableRateSlope2",
          "type": "uint256"
        }
      ],
      "payable": false,
      "stateMutability": "nonpayable",
      "type": "constructor"
    },
    {
      "constant": true,
      "inputs": [],
      "name": "EXCESS_UTILIZATION_RATE",
      "outputs": [
        {
          "internalType": "uint256",
          "name": "",
          "type": "uint256"
        }
      ],
      "payable": false,
      "stateMutability": "view",
      "type": "function"
    },
    {
      "constant": true,
      "inputs": [],
      "name": "OPTIMAL_UTILIZATION_RATE",
      "outputs": [
        {
          "internalType": "uint256",
          "name": "",
          "type": "uint256"
        }
      ],
      "payable": false,
      "stateMutability": "view",
      "type": "function"
    },
    {
      "constant": true,
      "inputs": [],
      "name": "addressesProvider",
      "outputs": [
        {
          "internalType": "contract GlobalAddressesProvider",
          "name": "",
          "type": "address"
        }
      ],
      "payable": false,
      "stateMutability": "view",
      "type": "function"
    },
    {
      "constant": true,
      "inputs": [],
      "name": "baseVariableBorrowRate",
      "outputs": [
        {
          "internalType": "uint256",
          "name": "",
          "type": "uint256"
        }
      ],
      "payable": false,
      "stateMutability": "view",
      "type": "function"
    },
    {
      "constant": true,
      "inputs": [],
      "name": "stableRateSlope1",
      "outputs": [
        {
          "internalType": "uint256",
          "name": "",
          "type": "uint256"
        }
      ],
      "payable": false,
      "stateMutability": "view",
      "type": "function"
    },
    {
      "constant": true,
      "inputs": [],
      "name": "stableRateSlope2",
      "outputs": [
        {
          "internalType": "uint256",
          "name": "",
          "type": "uint256"
        }
      ],
      "payable": false,
      "stateMutability": "view",
      "type": "function"
    },
    {
      "constant": true,
      "inputs": [],
      "name": "variableRateSlope1",
      "outputs": [
        {
          "internalType": "uint256",
          "name": "",
          "type": "uint256"
        }
      ],
      "payable": false,
      "stateMutability": "view",
      "type": "function"
    },
    {
      "constant": true,
      "inputs": [],
      "name": "variableRateSlope2",
      "outputs": [
        {
          "internalType": "uint256",
          "name": "",
          "type": "uint256"
        }
      ],
      "payable": false,
      "stateMutability": "view",
      "type": "function"
    },
    {
      "constant": true,
      "inputs": [],
      "name": "getBaseVariableBorrowRate",
      "outputs": [
        {
          "internalType": "uint256",
          "name": "",
          "type": "uint256"
        }
      ],
      "payable": false,
      "stateMutability": "view",
      "type": "function"
    },
    {
      "constant": false,
      "inputs": [
        {
          "internalType": "uint256",
          "name": "newBorrowRate",
          "type": "uint256"
        }
      ],
      "name": "setBaseVariableBorrowRate",
      "outputs": [],
      "payable": false,
      "stateMutability": "nonpayable",
      "type": "function"
    },
    {
      "constant": true,
      "inputs": [],
      "name": "getVariableRateSlope1",
      "outputs": [
        {
          "internalType": "uint256",
          "name": "",
          "type": "uint256"
        }
      ],
      "payable": false,
      "stateMutability": "view",
      "type": "function"
    },
    {
      "constant": false,
      "inputs": [
        {
          "internalType": "uint256",
          "name": "newVariableRateSlope1",
          "type": "uint256"
        }
      ],
      "name": "setVariableRateSlope1",
      "outputs": [],
      "payable": false,
      "stateMutability": "nonpayable",
      "type": "function"
    },
    {
      "constant": true,
      "inputs": [],
      "name": "getVariableRateSlope2",
      "outputs": [
        {
          "internalType": "uint256",
          "name": "",
          "type": "uint256"
        }
      ],
      "payable": false,
      "stateMutability": "view",
      "type": "function"
    },
    {
      "constant": false,
      "inputs": [
        {
          "internalType": "uint256",
          "name": "newVariableRateSlope2",
          "type": "uint256"
        }
      ],
      "name": "setVariableRateSlope2",
      "outputs": [],
      "payable": false,
      "stateMutability": "nonpayable",
      "type": "function"
    },
    {
      "constant": true,
      "inputs": [],
      "name": "getStableRateSlope1",
      "outputs": [
        {
          "internalType": "uint256",
          "name": "",
          "type": "uint256"
        }
      ],
      "payable": false,
      "stateMutability": "view",
      "type": "function"
    },
    {
      "constant": false,
      "inputs": [
        {
          "internalType": "uint256",
          "name": "newstableRateSlope1",
          "type": "uint256"
        }
      ],
      "name": "setStableRateSlope1",
      "outputs": [],
      "payable": false,
      "stateMutability": "nonpayable",
      "type": "function"
    },
    {
      "constant": true,
      "inputs": [],
      "name": "getStableRateSlope2",
      "outputs": [
        {
          "internalType": "uint256",
          "name": "",
          "type": "uint256"
        }
      ],
      "payable": false,
      "stateMutability": "view",
      "type": "function"
    },
    {
      "constant": false,
      "inputs": [
        {
          "internalType": "uint256",
          "name": "newstableRateSlope2",
          "type": "uint256"
        }
      ],
      "name": "setStableRateSlope2",
      "outputs": [],
      "payable": false,
      "stateMutability": "nonpayable",
      "type": "function"
    },
    {
      "constant": true,
      "inputs": [
        {
          "internalType": "address",
          "name": "_instrument",
          "type": "address"
        },
        {
          "internalType": "uint256",
          "name": "_availableLiquidity",
          "type": "uint256"
        },
        {
          "internalType": "uint256",
          "name": "_totalBorrowsStable",
          "type": "uint256"
        },
        {
          "internalType": "uint256",
          "name": "_totalBorrowsVariable",
          "type": "uint256"
        },
        {
          "internalType": "uint256",
          "name": "_averageStableBorrowRate",
          "type": "uint256"
        }
      ],
      "name": "calculateInterestRates",
      "outputs": [
        {
          "internalType": "uint256",
          "name": "currentLiquidityRate",
          "type": "uint256"
        },
        {
          "internalType": "uint256",
          "name": "currentStableBorrowRate",
          "type": "uint256"
        },
        {
          "internalType": "uint256",
          "name": "currentVariableBorrowRate",
          "type": "uint256"
        }
      ],
      "payable": false,
      "stateMutability": "view",
      "type": "function"
    }
  ],
  "bytecode": "0x608060405234801561001057600080fd5b50604051610dbd380380610dbd833981810160405260c081101561003357600080fd5b508051602082015160408301516060840151608085015160a090950151600080546001600160a01b039096166001600160a01b031990961695909517909455600192909255600255600355600491909155600555610d27806100966000396000f3fe608060405234801561001057600080fd5b50600436106101215760003560e01c8063925b3ef8116100ad578063bfa6daef11610071578063bfa6daef14610252578063c72c4d101461026f578063ccab01a314610293578063d5cd73911461029b578063f4202409146102a357610121565b8063925b3ef8146101eb5780639a207c2314610208578063a15f30ac14610225578063b0dfd97d1461022d578063b25895441461024a57610121565b8063280c95b3116100f4578063280c95b31461015857806334762ca51461017757806357e37af01461017f57806365614f81146101db5780637b832f58146101e357610121565b80630b3429a2146101265780630bdf953f1461014057806314e32da4146101485780631731987314610150575b600080fd5b61012e6102ab565b60408051918252519081900360200190f35b61012e6102b1565b61012e6102b7565b61012e6102bd565b6101756004803603602081101561016e57600080fd5b50356102cc565b005b61012e610386565b6101bd600480360360a081101561019557600080fd5b506001600160a01b03813516906020810135906040810135906060810135906080013561038c565b60408051938452602084019290925282820152519081900360600190f35b61012e61063c565b61012e610642565b6101756004803603602081101561020157600080fd5b5035610648565b6101756004803603602081101561021e57600080fd5b5035610702565b61012e6107bc565b6101756004803603602081101561024357600080fd5b50356107cc565b61012e610886565b6101756004803603602081101561026857600080fd5b503561088c565b610277610946565b604080516001600160a01b039092168252519081900360200190f35b61012e610955565b61012e61095b565b61012e610961565b60025490565b60045481565b60055490565b6aa56fa5b99019a5c800000081565b600054604080516333128d5960e01b8152905133926001600160a01b0316916333128d59916004808301926020929190829003018186803b15801561031057600080fd5b505afa158015610324573d6000803e3d6000fd5b505050506040513d602081101561033a57600080fd5b50516001600160a01b0316146103815760405162461bcd60e51b815260040180806020018281038252602b815260200180610cc8602b913960400191505060405180910390fd5b600155565b60015490565b60008080806103a1878763ffffffff61096716565b90506000811580156103b1575088155b6103da576103d56103c88a8463ffffffff61096716565b839063ffffffff6109ca16565b6103dd565b60005b90506000809054906101000a90046001600160a01b03166001600160a01b0316633618abba6040518163ffffffff1660e01b815260040160206040518083038186803b15801561042c57600080fd5b505afa158015610440573d6000803e3d6000fd5b505050506040513d602081101561045657600080fd5b50516040805163bb85c0bb60e01b81526001600160a01b038d811660048301529151919092169163bb85c0bb916024808301926020929190829003018186803b1580156104a257600080fd5b505afa1580156104b6573d6000803e3d6000fd5b505050506040513d60208110156104cc57600080fd5b505193506b0295be96e64066972000000081111561058e57600061051d6aa56fa5b99019a5c8000000610511846b0295be96e64066972000000063ffffffff610a0e16565b9063ffffffff6109ca16565b905061055761053782600554610a5090919063ffffffff16565b60045461054b90889063ffffffff61096716565b9063ffffffff61096716565b945061058661057182600354610a5090919063ffffffff16565b60025460015461054b9163ffffffff61096716565b935050610611565b6105cc6105bf6105b0836b0295be96e64066972000000063ffffffff6109ca16565b6004549063ffffffff610a5016565b859063ffffffff61096716565b935061060e6105ff6105f0836b0295be96e64066972000000063ffffffff6109ca16565b6002549063ffffffff610a5016565b6001549063ffffffff61096716565b92505b61062d816106218a8a878b610a88565b9063ffffffff610a5016565b94505050955095509592505050565b60035481565b60025481565b600054604080516333128d5960e01b8152905133926001600160a01b0316916333128d59916004808301926020929190829003018186803b15801561068c57600080fd5b505afa1580156106a0573d6000803e3d6000fd5b505050506040513d60208110156106b657600080fd5b50516001600160a01b0316146106fd5760405162461bcd60e51b815260040180806020018281038252602b815260200180610cc8602b913960400191505060405180910390fd5b600255565b600054604080516333128d5960e01b8152905133926001600160a01b0316916333128d59916004808301926020929190829003018186803b15801561074657600080fd5b505afa15801561075a573d6000803e3d6000fd5b505050506040513d602081101561077057600080fd5b50516001600160a01b0316146107b75760405162461bcd60e51b815260040180806020018281038252602b815260200180610cc8602b913960400191505060405180910390fd5b600355565b6b0295be96e64066972000000081565b600054604080516333128d5960e01b8152905133926001600160a01b0316916333128d59916004808301926020929190829003018186803b15801561081057600080fd5b505afa158015610824573d6000803e3d6000fd5b505050506040513d602081101561083a57600080fd5b50516001600160a01b0316146108815760405162461bcd60e51b815260040180806020018281038252602b815260200180610cc8602b913960400191505060405180910390fd5b600555565b60015481565b600054604080516333128d5960e01b8152905133926001600160a01b0316916333128d59916004808301926020929190829003018186803b1580156108d057600080fd5b505afa1580156108e4573d6000803e3d6000fd5b505050506040513d60208110156108fa57600080fd5b50516001600160a01b0316146109415760405162461bcd60e51b815260040180806020018281038252602b815260200180610cc8602b913960400191505060405180910390fd5b600455565b6000546001600160a01b031681565b60055481565b60045490565b60035490565b6000828201838110156109c1576040805162461bcd60e51b815260206004820152601b60248201527f536166654d6174683a206164646974696f6e206f766572666c6f770000000000604482015290519081900360640190fd5b90505b92915050565b600060028204610a06836109fa6109ed876b033b2e3c9fd0803ce8000000610af9565b849063ffffffff61096716565b9063ffffffff610b5216565b949350505050565b60006109c183836040518060400160405280601e81526020017f536166654d6174683a207375627472616374696f6e206f766572666c6f770000815250610b94565b60006109c16b033b2e3c9fd0803ce80000006109fa610a75868663ffffffff610af916565b6b019d971e4fe8401e7400000090610967565b600080610a9b868663ffffffff61096716565b905080610aac576000915050610a06565b6000610abb8561062188610c2b565b90506000610acc856106218a610c2b565b90506000610aec610adc85610c2b565b610511858563ffffffff61096716565b9998505050505050505050565b600082610b08575060006109c4565b82820282848281610b1557fe5b04146109c15760405162461bcd60e51b8152600401808060200182810382526021815260200180610ca76021913960400191505060405180910390fd5b60006109c183836040518060400160405280601a81526020017f536166654d6174683a206469766973696f6e206279207a65726f000000000000815250610c41565b60008184841115610c235760405162461bcd60e51b81526004018080602001828103825283818151815260200191508051906020019080838360005b83811015610be8578181015183820152602001610bd0565b50505050905090810190601f168015610c155780820380516001836020036101000a031916815260200191505b509250505060405180910390fd5b505050900390565b60006109c482633b9aca0063ffffffff610af916565b60008183610c905760405162461bcd60e51b8152602060048201818152835160248401528351909283926044909101919085019080838360008315610be8578181015183820152602001610bd0565b506000838581610c9c57fe5b049594505050505056fe536166654d6174683a206d756c7469706c69636174696f6e206f766572666c6f775468652063616c6c6572206d75737420626520746865206c656e64696e6720706f6f6c206d616e61676572a265627a7a72315820eb80e311af748db1bb636f652cd4196b1f1c22e4d4f1656f7c74f324beb46e9264736f6c63430005100032",
  "source": "pragma solidity ^0.5.0;\n\nimport \"openzeppelin-solidity/contracts/math/SafeMath.sol\";\nimport \"../libraries/WadRayMath.sol\";\n\nimport \"../../configuration/GlobalAddressesProvider.sol\";\nimport \"../interfaces/I_InstrumentInterestRateStrategy.sol\";\nimport \"../interfaces/ILendingRateOracle.sol\";\n\n\n\n/**\n* @title DefaultInstrumentInterestRateStrategy contract\n* @notice implements the calculation of the interest rates depending on the Instrument parameters.\n* @dev if there is need to update the calculation of the interest rates for a specific Instrument,\n* a new version of this contract will be deployed.\n* @author Aave, SIGH Finance\n**/\ncontract DefaultInstrumentInterestRateStrategy is I_InstrumentInterestRateStrategy {\n\n    using WadRayMath for uint256;\n    using SafeMath for uint256;\n\n    GlobalAddressesProvider public addressesProvider;\n\n    // this constant represents the utilization rate at which the pool aims to obtain most competitive borrow rates expressed in ray\n    uint256 public constant OPTIMAL_UTILIZATION_RATE = 0.8 * 1e27;\n\n    // this constant represents the excess utilization rate above the optimal. It's always equal to 1-optimal utilization rate. \n    // Added as a constant here for gas optimizations expressed in ray\n    uint256 public constant EXCESS_UTILIZATION_RATE = 0.2 * 1e27;\n\n    uint256 public baseVariableBorrowRate;          //base variable borrow rate when Utilization rate = 0. Expressed in ray\n    uint256 public variableRateSlope1;              //slope of the variable interest curve when utilization rate > 0 and <= OPTIMAL_UTILIZATION_RATE. Expressed in ray\n    uint256 public variableRateSlope2;              //slope of the variable interest curve when utilization rate > OPTIMAL_UTILIZATION_RATE. Expressed in ray\n    uint256 public stableRateSlope1;                //slope of the stable interest curve when utilization rate > 0 and <= OPTIMAL_UTILIZATION_RATE. Expressed in ray\n    uint256 public stableRateSlope2;                //slope of the stable interest curve when utilization rate > OPTIMAL_UTILIZATION_RATE. Expressed in ray\n    // address public instrument;\n\n    /**\n    * @dev only the lending pool manager can call functions affected by this modifier\n    **/\n    modifier onlyLendingPoolManager {\n        require( addressesProvider.getLendingPoolManager() == msg.sender, \"The caller must be the lending pool manager\" );\n        _;\n    }\n\n\n    constructor( GlobalAddressesProvider _provider, uint256 _baseVariableBorrowRate, uint256 _variableRateSlope1,uint256 _variableRateSlope2, uint256 _stableRateSlope1, uint256 _stableRateSlope2 ) public {\n        addressesProvider = _provider;\n        baseVariableBorrowRate = _baseVariableBorrowRate;\n        variableRateSlope1 = _variableRateSlope1;\n        variableRateSlope2 = _variableRateSlope2;\n        stableRateSlope1 = _stableRateSlope1;\n        stableRateSlope2 = _stableRateSlope2;\n        // instrument = _instrument;\n    }\n\n    // ######################################################\n    // ####### VIEW FUNCTIONS TO GET CONSTANTS   ############\n    // ################################################ #####\n\n    function getBaseVariableBorrowRate() external view returns (uint256) {\n        return baseVariableBorrowRate;\n    }\n    \n    function setBaseVariableBorrowRate(uint256 newBorrowRate) external onlyLendingPoolManager {\n        baseVariableBorrowRate = newBorrowRate;\n    }\n\n    function getVariableRateSlope1() external view returns (uint256) {\n        return variableRateSlope1;\n    }\n\n    function setVariableRateSlope1(uint256 newVariableRateSlope1) external onlyLendingPoolManager {\n        variableRateSlope1 = newVariableRateSlope1;\n    }\n\n    function getVariableRateSlope2() external view returns (uint256) {\n        return variableRateSlope2;\n    }\n    \n    function setVariableRateSlope2(uint256 newVariableRateSlope2) external onlyLendingPoolManager {\n        variableRateSlope2 = newVariableRateSlope2;\n    }\n\n    function getStableRateSlope1() external view returns (uint256) {\n        return stableRateSlope1;\n    }\n\n    function setStableRateSlope1(uint256 newstableRateSlope1) external onlyLendingPoolManager {\n        stableRateSlope1 = newstableRateSlope1;\n    }\n    \n    function getStableRateSlope2() external view returns (uint256) {\n        return stableRateSlope2;\n    }\n\n    function setStableRateSlope2(uint256 newstableRateSlope2) external onlyLendingPoolManager {\n        stableRateSlope2 = newstableRateSlope2;\n    }\n\n    // ##################################################################################################################\n    // ####### THE MAIN INTEREST RATE FUNCTIONS (VIEW)   ################################################################\n    // ####### 1. calculateInterestRates() : Returns LiquidityRate, StableBorrowRate, VariableBorrowRate   ##############\n    // ##################################################################################################################\n\n\n    /**\n    * @dev calculates the interest rates depending on the available liquidity and the total borrowed.\n    * @param _instrument the address of the instrument\n    * @param _availableLiquidity the liquidity available in the instrument\n    * @param _totalBorrowsStable the total borrowed from the instrument a stable rate\n    * @param _totalBorrowsVariable the total borrowed from the instrument at a variable rate\n    * @param _averageStableBorrowRate the weighted average of all the stable rate borrows\n    * @return the liquidity rate, stable borrow rate and variable borrow rate calculated from the input parameters\n    **/\n    function calculateInterestRates(  address _instrument,  uint256 _availableLiquidity,  uint256 _totalBorrowsStable,  uint256 _totalBorrowsVariable,  uint256 _averageStableBorrowRate ) external view\n        returns ( uint256 currentLiquidityRate, uint256 currentStableBorrowRate, uint256 currentVariableBorrowRate ) {\n        uint256 totalBorrows = _totalBorrowsStable.add(_totalBorrowsVariable); // TOTAL BORROWS = STABLE BORROWS + VARIABLE BORROWS\n        uint256 utilizationRate = (totalBorrows == 0 && _availableLiquidity == 0) ? 0 : totalBorrows.rayDiv(_availableLiquidity.add(totalBorrows));   // UTILIZATION RATE = TOTAL BORROWS / (AVAILABLE LIQUIDITY + TOTAL BORROWS)\n\n        currentStableBorrowRate = ILendingRateOracle( addressesProvider.getLendingRateOracle() ).getMarketBorrowRate(_instrument);\n\n        if (utilizationRate > OPTIMAL_UTILIZATION_RATE) {\n            uint256 excessUtilizationRateRatio = utilizationRate.sub(OPTIMAL_UTILIZATION_RATE).rayDiv(EXCESS_UTILIZATION_RATE);\n            currentStableBorrowRate = currentStableBorrowRate.add(stableRateSlope1).add( stableRateSlope2.rayMul(excessUtilizationRateRatio) );\n            currentVariableBorrowRate = baseVariableBorrowRate.add(variableRateSlope1).add( variableRateSlope2.rayMul(excessUtilizationRateRatio) );\n        } \n        else {\n            currentStableBorrowRate = currentStableBorrowRate.add( stableRateSlope1.rayMul( utilizationRate.rayDiv(OPTIMAL_UTILIZATION_RATE) ) );\n            currentVariableBorrowRate = baseVariableBorrowRate.add( variableRateSlope1.rayMul( utilizationRate.rayDiv(OPTIMAL_UTILIZATION_RATE) ) );\n        }\n\n        currentLiquidityRate = getOverallBorrowRateInternal( _totalBorrowsStable, _totalBorrowsVariable, currentVariableBorrowRate, _averageStableBorrowRate ).rayMul(utilizationRate);\n    }\n\n// ###################################\n// ####### INTERNAL FUNCTION #######\n// #################################\n    /**\n    * @dev calculates the overall borrow rate as the weighted average between the total variable borrows and total stable borrows.\n    * @param _totalBorrowsStable the total borrowed from the instrument a stable rate\n    * @param _totalBorrowsVariable the total borrowed from the instrument at a variable rate\n    * @param _currentVariableBorrowRate the current variable borrow rate\n    * @param _currentAverageStableBorrowRate the weighted average of all the stable rate borrows\n    * @return the weighted averaged borrow rate\n    **/\n    function getOverallBorrowRateInternal( uint256 _totalBorrowsStable, uint256 _totalBorrowsVariable, uint256 _currentVariableBorrowRate, uint256 _currentAverageStableBorrowRate ) internal pure returns (uint256) {\n        uint256 totalBorrows = _totalBorrowsStable.add(_totalBorrowsVariable);\n\n        if (totalBorrows == 0) \n            return 0;\n\n        uint256 weightedVariableRate = _totalBorrowsVariable.wadToRay().rayMul( _currentVariableBorrowRate );\n        uint256 weightedStableRate = _totalBorrowsStable.wadToRay().rayMul( _currentAverageStableBorrowRate );\n        uint256 overallBorrowRate = weightedVariableRate.add(weightedStableRate).rayDiv( totalBorrows.wadToRay() );\n\n        return overallBorrowRate;\n    }\n}\n",
  "sourcePath": "/Users/apple/Desktop/GITCOIN/Sigh_Finance/SighFinanceContracts/contracts/LendingProtocolContracts/lendingpool/DefaultInstrumentInterestRateStrategy.sol",
  "compiler": {
    "name": "solc",
    "version": "0.5.16+commit.9c3226ce.Emscripten.clang"
  },
  "schemaVersion": "3.2.4",
  "updatedAt": "2020-12-03T08:10:19.301Z",
  "devdoc": {
    "author": "Aave, SIGH Finance*",
    "details": "if there is need to update the calculation of the interest rates for a specific Instrument, a new version of this contract will be deployed.",
    "methods": {
      "calculateInterestRates(address,uint256,uint256,uint256,uint256)": {
        "details": "calculates the interest rates depending on the available liquidity and the total borrowed.",
        "params": {
          "_availableLiquidity": "the liquidity available in the instrument",
          "_averageStableBorrowRate": "the weighted average of all the stable rate borrows",
          "_instrument": "the address of the instrument",
          "_totalBorrowsStable": "the total borrowed from the instrument a stable rate",
          "_totalBorrowsVariable": "the total borrowed from the instrument at a variable rate"
        },
        "return": "the liquidity rate, stable borrow rate and variable borrow rate calculated from the input parameters*"
      }
    },
    "title": "DefaultInstrumentInterestRateStrategy contract"
  },
  "userdoc": {
    "methods": {},
    "notice": "implements the calculation of the interest rates depending on the Instrument parameters."
  }
}