{
  "contractName": "GlobalAddressesProvider",
  "abi": [
    {
      "inputs": [
        {
          "internalType": "address",
          "name": "SIGHFinanceManagerAddress",
          "type": "address"
        },
        {
          "internalType": "address",
          "name": "LendingPoolManagerAddress",
          "type": "address"
        }
      ],
      "payable": false,
      "stateMutability": "nonpayable",
      "type": "constructor"
    },
    {
      "anonymous": false,
      "inputs": [
        {
          "indexed": true,
          "internalType": "address",
          "name": "newAddress",
          "type": "address"
        }
      ],
      "name": "FeeProviderUpdated",
      "type": "event"
    },
    {
      "anonymous": false,
      "inputs": [
        {
          "indexed": true,
          "internalType": "address",
          "name": "newAddress",
          "type": "address"
        }
      ],
      "name": "LendingPoolConfiguratorUpdated",
      "type": "event"
    },
    {
      "anonymous": false,
      "inputs": [
        {
          "indexed": true,
          "internalType": "address",
          "name": "newAddress",
          "type": "address"
        }
      ],
      "name": "LendingPoolCoreUpdated",
      "type": "event"
    },
    {
      "anonymous": false,
      "inputs": [
        {
          "indexed": true,
          "internalType": "address",
          "name": "newAddress",
          "type": "address"
        }
      ],
      "name": "LendingPoolDataProviderUpdated",
      "type": "event"
    },
    {
      "anonymous": false,
      "inputs": [
        {
          "indexed": true,
          "internalType": "address",
          "name": "newAddress",
          "type": "address"
        }
      ],
      "name": "LendingPoolLiquidationManagerUpdated",
      "type": "event"
    },
    {
      "anonymous": false,
      "inputs": [
        {
          "indexed": false,
          "internalType": "address",
          "name": "_lendingPoolManager",
          "type": "address"
        }
      ],
      "name": "LendingPoolManagerUpdated",
      "type": "event"
    },
    {
      "anonymous": false,
      "inputs": [
        {
          "indexed": true,
          "internalType": "address",
          "name": "newAddress",
          "type": "address"
        }
      ],
      "name": "LendingPoolParametersProviderUpdated",
      "type": "event"
    },
    {
      "anonymous": false,
      "inputs": [
        {
          "indexed": true,
          "internalType": "address",
          "name": "newAddress",
          "type": "address"
        }
      ],
      "name": "LendingPoolUpdated",
      "type": "event"
    },
    {
      "anonymous": false,
      "inputs": [
        {
          "indexed": true,
          "internalType": "address",
          "name": "newAddress",
          "type": "address"
        }
      ],
      "name": "LendingRateOracleUpdated",
      "type": "event"
    },
    {
      "anonymous": false,
      "inputs": [
        {
          "indexed": false,
          "internalType": "address",
          "name": "_pendingLendingPoolManager",
          "type": "address"
        }
      ],
      "name": "PendingLendingPoolManagerUpdated",
      "type": "event"
    },
    {
      "anonymous": false,
      "inputs": [
        {
          "indexed": false,
          "internalType": "address",
          "name": "_pendingSighFinanceManager",
          "type": "address"
        }
      ],
      "name": "PendingSIGHFinanceManagerUpdated",
      "type": "event"
    },
    {
      "anonymous": false,
      "inputs": [
        {
          "indexed": true,
          "internalType": "address",
          "name": "newAddress",
          "type": "address"
        }
      ],
      "name": "PriceOracleUpdated",
      "type": "event"
    },
    {
      "anonymous": false,
      "inputs": [
        {
          "indexed": false,
          "internalType": "bytes32",
          "name": "id",
          "type": "bytes32"
        },
        {
          "indexed": true,
          "internalType": "address",
          "name": "newAddress",
          "type": "address"
        }
      ],
      "name": "ProxyCreated",
      "type": "event"
    },
    {
      "anonymous": false,
      "inputs": [
        {
          "indexed": true,
          "internalType": "address",
          "name": "sighAddress",
          "type": "address"
        }
      ],
      "name": "SIGHAddressUpdated",
      "type": "event"
    },
    {
      "anonymous": false,
      "inputs": [
        {
          "indexed": true,
          "internalType": "address",
          "name": "sighFinanceConfigAddress",
          "type": "address"
        }
      ],
      "name": "SIGHFinanceConfiguratorUpdated",
      "type": "event"
    },
    {
      "anonymous": false,
      "inputs": [
        {
          "indexed": true,
          "internalType": "address",
          "name": "newAddress",
          "type": "address"
        }
      ],
      "name": "SIGHFinanceFeeCollectorUpdated",
      "type": "event"
    },
    {
      "anonymous": false,
      "inputs": [
        {
          "indexed": false,
          "internalType": "address",
          "name": "_sighFinanceManager",
          "type": "address"
        }
      ],
      "name": "SIGHFinanceManagerUpdated",
      "type": "event"
    },
    {
      "anonymous": false,
      "inputs": [
        {
          "indexed": true,
          "internalType": "address",
          "name": "speedControllerAddress",
          "type": "address"
        }
      ],
      "name": "SIGHSpeedControllerUpdated",
      "type": "event"
    },
    {
      "anonymous": false,
      "inputs": [
        {
          "indexed": true,
          "internalType": "address",
          "name": "SIGHStakingAddress",
          "type": "address"
        }
      ],
      "name": "SIGHStakingImplUpdated",
      "type": "event"
    },
    {
      "anonymous": false,
      "inputs": [
        {
          "indexed": true,
          "internalType": "address",
          "name": "newAddress",
          "type": "address"
        }
      ],
      "name": "SIGHTreasuryImplUpdated",
      "type": "event"
    },
    {
      "anonymous": false,
      "inputs": [
        {
          "indexed": true,
          "internalType": "address",
          "name": "newAddress",
          "type": "address"
        }
      ],
      "name": "SIGHVolatilityHarvesterImplUpdated",
      "type": "event"
    },
    {
      "constant": true,
      "inputs": [
        {
          "internalType": "bytes32",
          "name": "_key",
          "type": "bytes32"
        }
      ],
      "name": "getAddress",
      "outputs": [
        {
          "internalType": "address",
          "name": "",
          "type": "address"
        }
      ],
      "payable": false,
      "stateMutability": "view",
      "type": "function"
    },
    {
      "constant": true,
      "inputs": [],
      "name": "getLendingPoolManager",
      "outputs": [
        {
          "internalType": "address",
          "name": "",
          "type": "address"
        }
      ],
      "payable": false,
      "stateMutability": "view",
      "type": "function"
    },
    {
      "constant": true,
      "inputs": [],
      "name": "getPendingLendingPoolManager",
      "outputs": [
        {
          "internalType": "address",
          "name": "",
          "type": "address"
        }
      ],
      "payable": false,
      "stateMutability": "view",
      "type": "function"
    },
    {
      "constant": false,
      "inputs": [
        {
          "internalType": "address",
          "name": "_pendinglendingPoolManager",
          "type": "address"
        }
      ],
      "name": "setPendingLendingPoolManager",
      "outputs": [],
      "payable": false,
      "stateMutability": "nonpayable",
      "type": "function"
    },
    {
      "constant": false,
      "inputs": [],
      "name": "acceptLendingPoolManager",
      "outputs": [],
      "payable": false,
      "stateMutability": "nonpayable",
      "type": "function"
    },
    {
      "constant": true,
      "inputs": [],
      "name": "getSIGHFinanceManager",
      "outputs": [
        {
          "internalType": "address",
          "name": "",
          "type": "address"
        }
      ],
      "payable": false,
      "stateMutability": "view",
      "type": "function"
    },
    {
      "constant": true,
      "inputs": [],
      "name": "getPendingSIGHFinanceManager",
      "outputs": [
        {
          "internalType": "address",
          "name": "",
          "type": "address"
        }
      ],
      "payable": false,
      "stateMutability": "view",
      "type": "function"
    },
    {
      "constant": false,
      "inputs": [
        {
          "internalType": "address",
          "name": "_PendingSIGHFinanceManager",
          "type": "address"
        }
      ],
      "name": "setPendingSIGHFinanceManager",
      "outputs": [],
      "payable": false,
      "stateMutability": "nonpayable",
      "type": "function"
    },
    {
      "constant": false,
      "inputs": [],
      "name": "acceptSIGHFinanceManager",
      "outputs": [],
      "payable": false,
      "stateMutability": "nonpayable",
      "type": "function"
    },
    {
      "constant": true,
      "inputs": [],
      "name": "getLendingPoolConfigurator",
      "outputs": [
        {
          "internalType": "address",
          "name": "",
          "type": "address"
        }
      ],
      "payable": false,
      "stateMutability": "view",
      "type": "function"
    },
    {
      "constant": false,
      "inputs": [
        {
          "internalType": "address",
          "name": "_configurator",
          "type": "address"
        }
      ],
      "name": "setLendingPoolConfiguratorImpl",
      "outputs": [],
      "payable": false,
      "stateMutability": "nonpayable",
      "type": "function"
    },
    {
      "constant": true,
      "inputs": [],
      "name": "getLendingPoolCore",
      "outputs": [
        {
          "internalType": "address payable",
          "name": "",
          "type": "address"
        }
      ],
      "payable": false,
      "stateMutability": "view",
      "type": "function"
    },
    {
      "constant": false,
      "inputs": [
        {
          "internalType": "address",
          "name": "_lendingPoolCore",
          "type": "address"
        }
      ],
      "name": "setLendingPoolCoreImpl",
      "outputs": [],
      "payable": false,
      "stateMutability": "nonpayable",
      "type": "function"
    },
    {
      "constant": true,
      "inputs": [],
      "name": "getLendingPool",
      "outputs": [
        {
          "internalType": "address",
          "name": "",
          "type": "address"
        }
      ],
      "payable": false,
      "stateMutability": "view",
      "type": "function"
    },
    {
      "constant": false,
      "inputs": [
        {
          "internalType": "address",
          "name": "_pool",
          "type": "address"
        }
      ],
      "name": "setLendingPoolImpl",
      "outputs": [],
      "payable": false,
      "stateMutability": "nonpayable",
      "type": "function"
    },
    {
      "constant": true,
      "inputs": [],
      "name": "getLendingPoolDataProvider",
      "outputs": [
        {
          "internalType": "address",
          "name": "",
          "type": "address"
        }
      ],
      "payable": false,
      "stateMutability": "view",
      "type": "function"
    },
    {
      "constant": false,
      "inputs": [
        {
          "internalType": "address",
          "name": "_provider",
          "type": "address"
        }
      ],
      "name": "setLendingPoolDataProviderImpl",
      "outputs": [],
      "payable": false,
      "stateMutability": "nonpayable",
      "type": "function"
    },
    {
      "constant": true,
      "inputs": [],
      "name": "getLendingPoolParametersProvider",
      "outputs": [
        {
          "internalType": "address",
          "name": "",
          "type": "address"
        }
      ],
      "payable": false,
      "stateMutability": "view",
      "type": "function"
    },
    {
      "constant": false,
      "inputs": [
        {
          "internalType": "address",
          "name": "_parametersProvider",
          "type": "address"
        }
      ],
      "name": "setLendingPoolParametersProviderImpl",
      "outputs": [],
      "payable": false,
      "stateMutability": "nonpayable",
      "type": "function"
    },
    {
      "constant": true,
      "inputs": [],
      "name": "getFeeProvider",
      "outputs": [
        {
          "internalType": "address",
          "name": "",
          "type": "address"
        }
      ],
      "payable": false,
      "stateMutability": "view",
      "type": "function"
    },
    {
      "constant": false,
      "inputs": [
        {
          "internalType": "address",
          "name": "_feeProvider",
          "type": "address"
        }
      ],
      "name": "setFeeProviderImpl",
      "outputs": [],
      "payable": false,
      "stateMutability": "nonpayable",
      "type": "function"
    },
    {
      "constant": true,
      "inputs": [],
      "name": "getLendingPoolLiquidationManager",
      "outputs": [
        {
          "internalType": "address",
          "name": "",
          "type": "address"
        }
      ],
      "payable": false,
      "stateMutability": "view",
      "type": "function"
    },
    {
      "constant": false,
      "inputs": [
        {
          "internalType": "address",
          "name": "_manager",
          "type": "address"
        }
      ],
      "name": "setLendingPoolLiquidationManager",
      "outputs": [],
      "payable": false,
      "stateMutability": "nonpayable",
      "type": "function"
    },
    {
      "constant": true,
      "inputs": [],
      "name": "getLendingRateOracle",
      "outputs": [
        {
          "internalType": "address",
          "name": "",
          "type": "address"
        }
      ],
      "payable": false,
      "stateMutability": "view",
      "type": "function"
    },
    {
      "constant": false,
      "inputs": [
        {
          "internalType": "address",
          "name": "_lendingRateOracle",
          "type": "address"
        }
      ],
      "name": "setLendingRateOracle",
      "outputs": [],
      "payable": false,
      "stateMutability": "nonpayable",
      "type": "function"
    },
    {
      "constant": true,
      "inputs": [],
      "name": "getSIGHAddress",
      "outputs": [
        {
          "internalType": "address",
          "name": "",
          "type": "address"
        }
      ],
      "payable": false,
      "stateMutability": "view",
      "type": "function"
    },
    {
      "constant": false,
      "inputs": [
        {
          "internalType": "address",
          "name": "sighAddress",
          "type": "address"
        }
      ],
      "name": "setSIGHAddress",
      "outputs": [],
      "payable": false,
      "stateMutability": "nonpayable",
      "type": "function"
    },
    {
      "constant": true,
      "inputs": [],
      "name": "getSIGHFinanceConfigurator",
      "outputs": [
        {
          "internalType": "address",
          "name": "",
          "type": "address"
        }
      ],
      "payable": false,
      "stateMutability": "view",
      "type": "function"
    },
    {
      "constant": false,
      "inputs": [
        {
          "internalType": "address",
          "name": "_configurator",
          "type": "address"
        }
      ],
      "name": "setSIGHFinanceConfiguratorImpl",
      "outputs": [],
      "payable": false,
      "stateMutability": "nonpayable",
      "type": "function"
    },
    {
      "constant": true,
      "inputs": [],
      "name": "getSIGHSpeedController",
      "outputs": [
        {
          "internalType": "address",
          "name": "",
          "type": "address"
        }
      ],
      "payable": false,
      "stateMutability": "view",
      "type": "function"
    },
    {
      "constant": false,
      "inputs": [
        {
          "internalType": "address",
          "name": "_SIGHSpeedController",
          "type": "address"
        }
      ],
      "name": "setSIGHSpeedController",
      "outputs": [],
      "payable": false,
      "stateMutability": "nonpayable",
      "type": "function"
    },
    {
      "constant": true,
      "inputs": [],
      "name": "getSIGHTreasury",
      "outputs": [
        {
          "internalType": "address",
          "name": "",
          "type": "address"
        }
      ],
      "payable": false,
      "stateMutability": "view",
      "type": "function"
    },
    {
      "constant": false,
      "inputs": [
        {
          "internalType": "address",
          "name": "_SIGHTreasury",
          "type": "address"
        }
      ],
      "name": "setSIGHTreasuryImpl",
      "outputs": [],
      "payable": false,
      "stateMutability": "nonpayable",
      "type": "function"
    },
    {
      "constant": true,
      "inputs": [],
      "name": "getSIGHVolatilityHarvester",
      "outputs": [
        {
          "internalType": "address",
          "name": "",
          "type": "address"
        }
      ],
      "payable": false,
      "stateMutability": "view",
      "type": "function"
    },
    {
      "constant": false,
      "inputs": [
        {
          "internalType": "address",
          "name": "_SIGHVolatilityHarvester",
          "type": "address"
        }
      ],
      "name": "setSIGHVolatilityHarvesterImpl",
      "outputs": [],
      "payable": false,
      "stateMutability": "nonpayable",
      "type": "function"
    },
    {
      "constant": true,
      "inputs": [],
      "name": "getSIGHStaking",
      "outputs": [
        {
          "internalType": "address",
          "name": "",
          "type": "address"
        }
      ],
      "payable": false,
      "stateMutability": "view",
      "type": "function"
    },
    {
      "constant": false,
      "inputs": [
        {
          "internalType": "address",
          "name": "_SIGHStaking",
          "type": "address"
        }
      ],
      "name": "setSIGHStaking",
      "outputs": [],
      "payable": false,
      "stateMutability": "nonpayable",
      "type": "function"
    },
    {
      "constant": true,
      "inputs": [],
      "name": "getPriceOracle",
      "outputs": [
        {
          "internalType": "address",
          "name": "",
          "type": "address"
        }
      ],
      "payable": false,
      "stateMutability": "view",
      "type": "function"
    },
    {
      "constant": false,
      "inputs": [
        {
          "internalType": "address",
          "name": "_priceOracle",
          "type": "address"
        }
      ],
      "name": "setPriceOracle",
      "outputs": [],
      "payable": false,
      "stateMutability": "nonpayable",
      "type": "function"
    },
    {
      "constant": true,
      "inputs": [],
      "name": "getSIGHFinanceFeeCollector",
      "outputs": [
        {
          "internalType": "address",
          "name": "",
          "type": "address"
        }
      ],
      "payable": false,
      "stateMutability": "view",
      "type": "function"
    },
    {
      "constant": false,
      "inputs": [
        {
          "internalType": "address",
          "name": "_feeCollector",
          "type": "address"
        }
      ],
      "name": "setSIGHFinanceFeeCollector",
      "outputs": [],
      "payable": false,
      "stateMutability": "nonpayable",
      "type": "function"
    }
  ],
  "bytecode": "0x60806040526001805461ffff191690553480156200001c57600080fd5b506040516200281b3803806200281b833981810160405260408110156200004257600080fd5b508051602090910151620000807f534947485f46494e414e43455f4d414e41474552000000000000000000000000836001600160e01b036200019d16565b620000b57f4c454e44494e475f504f4f4c5f4d414e41474552000000000000000000000000826001600160e01b036200019d16565b7f54a473ca1eac369f8e9bcfbedd5e7b6a025a683d5e1255f28b804658dfecfa5c6200010a7f534947485f46494e414e43455f4d414e414745520000000000000000000000006001600160e01b03620001cb16565b604080516001600160a01b039092168252519081900360200190a17fd5280c51185a38d36f7a0f5e56cac6248312bb70d0974782fa5a595127e0e08e6200017a7f4c454e44494e475f504f4f4c5f4d414e414745520000000000000000000000006001600160e01b03620001cb16565b604080516001600160a01b039092168252519081900360200190a15050620001e6565b60009182526020829052604090912080546001600160a01b0319166001600160a01b03909216919091179055565b6000908152602081905260409020546001600160a01b031690565b61262580620001f66000396000f3fe608060405234801561001057600080fd5b50600436106102535760003560e01c806359e6130c11610146578063ab3802cb116100c3578063d557d56d11610087578063d557d56d146105a1578063d72e2802146105c7578063db49224b146105cf578063ed6ff760146105d7578063fbeefc3c146105df578063fca513a8146105e757610253565b8063ab3802cb1461051f578063bfedc10314610527578063c12542df1461054d578063c145d05814610573578063c5b3f3371461057b57610253565b8063832b705a1161010a578063832b705a146104bb578063841aa40c146104e157806385c858b1146104e957806387854354146104f1578063a5eface2146104f957610253565b806359e6130c146104395780635aef021f14610441578063723130ac146104675780637725c7bf1461048d578063820d12741461049557610253565b80632f58b80d116101d457806339c06e281161019857806339c06e281461039957806342d419bf146103bf57806344ce375b146103e5578063530e784f1461040b5780635834eb9a1461043157610253565b80632f58b80d1461033557806333128d591461033d578063343c1596146103455780633618abba1461036b57806339ac577e1461037357610253565b80631db4f5691161021b5780631db4f569146102da57806321f8a721146102e25780632a62c636146102ff5780632e07f25d146103255780632e7bac461461032d57610253565b80630261bf8b1461025857806304061d8e1461027c5780630904ac7314610284578063145d02f0146102ac5780631c827204146102b4575b600080fd5b6102606105ef565b604080516001600160a01b039092168252519081900360200190f35b61026061060e565b6102aa6004803603602081101561029a57600080fd5b50356001600160a01b031661062f565b005b6102606106e9565b6102aa600480360360208110156102ca57600080fd5b50356001600160a01b0316610714565b6102606107cc565b610260600480360360208110156102f857600080fd5b50356107e2565b6102aa6004803603602081101561031557600080fd5b50356001600160a01b03166107fd565b6102aa6108b0565b6102606109ec565b610260610a05565b610260610a20565b6102aa6004803603602081101561035b57600080fd5b50356001600160a01b0316610a39565b610260610aec565b6102aa6004803603602081101561038957600080fd5b50356001600160a01b0316610b0d565b6102aa600480360360208110156103af57600080fd5b50356001600160a01b0316610bcd565b6102aa600480360360208110156103d557600080fd5b50356001600160a01b0316610c91565b6102aa600480360360208110156103fb57600080fd5b50356001600160a01b0316610d4b565b6102aa6004803603602081101561042157600080fd5b50356001600160a01b0316610e05565b610260610eb8565b610260610ed9565b6102aa6004803603602081101561045757600080fd5b50356001600160a01b0316610ef4565b6102aa6004803603602081101561047d57600080fd5b50356001600160a01b0316610fa7565b6102aa61105e565b6102aa600480360360208110156104ab57600080fd5b50356001600160a01b031661117c565b6102aa600480360360208110156104d157600080fd5b50356001600160a01b0316611236565b6102606112f6565b610260611308565b61026061132f565b6102aa6004803603602081101561050f57600080fd5b50356001600160a01b0316611348565b610260611402565b6102aa6004803603602081101561053d57600080fd5b50356001600160a01b0316611425565b6102aa6004803603602081101561056357600080fd5b50356001600160a01b03166114d9565b610260611599565b6102aa6004803603602081101561059157600080fd5b50356001600160a01b03166115b2565b6102aa600480360360208110156105b757600080fd5b50356001600160a01b0316611666565b610260611722565b610260611749565b610260611770565b610260611796565b6102606117b0565b60006106096b13115391125391d7d413d3d360a21b6107e2565b905090565b6000610609722820a920a6a2aa22a929afa82927ab24a222a960691b6107e2565b60006106486000805160206125d18339815191526107e2565b90506001600160a01b03811633146106915760405162461bcd60e51b815260040180806020018281038252602f8152602001806125a2602f913960400191505060405180910390fd5b6106a9600080516020612466833981519152836117ca565b604080516001600160a01b038416815290517fee02fbe602fd541026969f988b76e795cc611d62f5b0c23e7d4882c7ded4231e9181900360200190a15050565b60006106097f534947485f46696e616e63655f4665655f436f6c6c6563746f720000000000006107e2565b600061072d6000805160206125d18339815191526107e2565b90506001600160a01b03811633146107765760405162461bcd60e51b815260040180806020018281038252602f8152602001806125a2602f913960400191505060405180910390fd5b610794704c454e44494e475f504f4f4c5f434f524560781b836117f8565b6040516001600160a01b038316907f71c226bb2879778ca1298196bf7cc1256baee9d05b496c31ee627d35a471b5b790600090a25050565b60006106096b534947485f5354414b494e4760a01b5b6000908152602081905260409020546001600160a01b031690565b60006108166000805160206125d18339815191526107e2565b90506001600160a01b038116331461085f5760405162461bcd60e51b815260040180806020018281038252602f8152602001806125a2602f913960400191505060405180910390fd5b6108786b2322a2afa82927ab24a222a960a11b836117f8565b6040516001600160a01b038316907f18e1a55b8eff9c93921eecfa1462d6a8cbb80b3988db3eb14c039e43fdb2266190600090a25050565b60006108c96000805160206125828339815191526107e2565b9050336001600160a01b038216146109125760405162461bcd60e51b815260040180806020018281038252606e815260200180612486606e913960800191505060405180910390fd5b61092a600080516020612562833981519152826117ca565b61094360008051602061258283398151915260006117ca565b7f0a91fa516fe78c8763b8c5dc4a2b5b9a14f1ec037effb782eb387995a8140c4c61097b6000805160206125828339815191526107e2565b604080516001600160a01b039092168252519081900360200190a17f54a473ca1eac369f8e9bcfbedd5e7b6a025a683d5e1255f28b804658dfecfa5c6109ce6000805160206125628339815191526107e2565b604080516001600160a01b039092168252519081900360200190a150565b60006106096000805160206124668339815191526107e2565b60006106096c2220aa20afa82927ab24a222a960991b6107e2565b60006106096000805160206125d18339815191526107e2565b6000610a526000805160206125628339815191526107e2565b90506001600160a01b0381163314610a9b5760405162461bcd60e51b815260040180806020018281038252602b81526020018061243b602b913960400191505060405180910390fd5b610ab46b534947485f5354414b494e4760a01b836117ca565b6040516001600160a01b038316907f5f8861bb6e28928a4078090240da9377fe5dedaa4ac6fbdc29ab3a6a057f28d990600090a25050565b6000610609724c454e44494e475f524154455f4f5241434c4560681b6107e2565b6000610b266000805160206125628339815191526107e2565b90506001600160a01b0381163314610b6f5760405162461bcd60e51b815260040180806020018281038252602b81526020018061243b602b913960400191505060405180910390fd5b610b957829a4a3a42fab27a620aa24a624aa2cafa420a92b22a9aa22a960391b836117f8565b6040516001600160a01b038316907f91cef99c1fa0ac832709f2282ac310f01778ab480ec164ccf068eb4c3111686690600090a25050565b6000610be66000805160206125628339815191526107e2565b90506001600160a01b0381163314610c2f5760405162461bcd60e51b815260040180806020018281038252602b81526020018061243b602b913960400191505060405180910390fd5b610c597f534947485f46696e616e63655f4665655f436f6c6c6563746f72000000000000836117ca565b6040516001600160a01b038316907f39722a85365e94d1c12cb806b2d9e930373a8aee79c6691a20abebeb6554c5d790600090a25050565b6000610caa6000805160206125628339815191526107e2565b90506001600160a01b0381163314610cf35760405162461bcd60e51b815260040180806020018281038252602b81526020018061243b602b913960400191505060405180910390fd5b610d0b600080516020612582833981519152836117ca565b604080516001600160a01b038416815290517f0a91fa516fe78c8763b8c5dc4a2b5b9a14f1ec037effb782eb387995a8140c4c9181900360200190a15050565b6000610d646000805160206125d18339815191526107e2565b90506001600160a01b0381163314610dad5760405162461bcd60e51b815260040180806020018281038252602f8152602001806125a2602f913960400191505060405180910390fd5b610dcd722624a8aaa4a220aa24a7a72fa6a0a720a3a2a960691b836117ca565b6040516001600160a01b038316907f1a76cb769b814bc038223da86932b099b20aae03473683e6d98f5c3554e2606490600090a25050565b6000610e1e6000805160206125d18339815191526107e2565b90506001600160a01b0381163314610e675760405162461bcd60e51b815260040180806020018281038252602f8152602001806125a2602f913960400191505060405180910390fd5b610e806b50524943455f4f5241434c4560a01b836117ca565b6040516001600160a01b038316907fefe8ab924ca486283a79dc604baa67add51afb82af1db8ac386ebbba643cdffd90600090a25050565b6000610609722624a8aaa4a220aa24a7a72fa6a0a720a3a2a960691b6107e2565b60006106096c534947485f545245415355525960981b6107e2565b6000610f0d6000805160206125d18339815191526107e2565b90506001600160a01b0381163314610f565760405162461bcd60e51b815260040180806020018281038252602f8152602001806125a2602f913960400191505060405180910390fd5b610f6f6b13115391125391d7d413d3d360a21b836117f8565b6040516001600160a01b038316907fc4e6c6cdf28d0edbd8bcf071d724d33cc2e7a30be7d06443925656e9cb492aa490600090a25050565b6000610fc06000805160206125628339815191526107e2565b90506001600160a01b03811633146110095760405162461bcd60e51b815260040180806020018281038252602b81526020018061243b602b913960400191505060405180910390fd5b6001805460ff191681179055611026630a6928e960e31b836117ca565b6040516001600160a01b038316907f381506510c1e0c6490721a2b661b0150f544e59c97ff556d7668d894b414ec7d90600090a25050565b60006110776000805160206124668339815191526107e2565b9050336001600160a01b038216146110c05760405162461bcd60e51b815260040180806020018281038252606e8152602001806124f4606e913960800191505060405180910390fd5b6110d86000805160206125d1833981519152826117ca565b6110f160008051602061246683398151915260006117ca565b7fee02fbe602fd541026969f988b76e795cc611d62f5b0c23e7d4882c7ded4231e6111296000805160206124668339815191526107e2565b604080516001600160a01b039092168252519081900360200190a17fd5280c51185a38d36f7a0f5e56cac6248312bb70d0974782fa5a595127e0e08e6109ce6000805160206125d18339815191526107e2565b60006111956000805160206125d18339815191526107e2565b90506001600160a01b03811633146111de5760405162461bcd60e51b815260040180806020018281038252602f8152602001806125a2602f913960400191505060405180910390fd5b6111fe724c454e44494e475f524154455f4f5241434c4560681b836117ca565b6040516001600160a01b038316907f5c29179aba6942020a8a2d38f65de02fb6b7f784e7f049ed3a3cab97621859b590600090a25050565b600061124f6000805160206125628339815191526107e2565b90506001600160a01b03811633146112985760405162461bcd60e51b815260040180806020018281038252602b81526020018061243b602b913960400191505060405180910390fd5b6112be7829a4a3a42fa324a720a721a2afa1a7a72324a3aaa920aa27a960391b836117f8565b6040516001600160a01b038316907f51bda0bdf35cfc37e30f312b0624afc7806d46f71e133364bd9d09507724d83190600090a25050565b6000610609630a6928e960e31b6107e2565b6000610609782622a72224a723afa827a7a62fa1a7a72324a3aaa920aa27a960391b6107e2565b60006106096000805160206125628339815191526107e2565b60006113616000805160206125d18339815191526107e2565b90506001600160a01b03811633146113aa5760405162461bcd60e51b815260040180806020018281038252602f8152602001806125a2602f913960400191505060405180910390fd5b6113ca722820a920a6a2aa22a929afa82927ab24a222a960691b836117f8565b6040516001600160a01b038316907fce16ea9b2fd7cadddd0f7359971028f50b5ddba33dfae1a9bdea956fabb1e28090600090a25050565b60006106097429a4a3a42fa9a822a2a22fa1a7a72a2927a62622a960591b6107e2565b600061143e6000805160206125d18339815191526107e2565b90506001600160a01b03811633146114875760405162461bcd60e51b815260040180806020018281038252602f8152602001806125a2602f913960400191505060405180910390fd5b6114a16c2220aa20afa82927ab24a222a960991b836117f8565b6040516001600160a01b038316907f07890d7d10db37434d76ee4f2928fb2dc66227c3b3391206aced4f7bcb59cdb090600090a25050565b60006114f26000805160206125d18339815191526107e2565b90506001600160a01b038116331461153b5760405162461bcd60e51b815260040180806020018281038252602f8152602001806125a2602f913960400191505060405180910390fd5b611561782622a72224a723afa827a7a62fa1a7a72324a3aaa920aa27a960391b836117f8565b6040516001600160a01b038316907fdfabe479bad36782fb1e77fbfddd4e382671713527e4786cfc93a022ae76372990600090a25050565b60006106096000805160206125828339815191526107e2565b60006115cb6000805160206125628339815191526107e2565b90506001600160a01b03811633146116145760405162461bcd60e51b815260040180806020018281038252602b81526020018061243b602b913960400191505060405180910390fd5b61162e6c534947485f545245415355525960981b836117f8565b6040516001600160a01b038316907f4e594f07049c48e5e02719973ed5064139451dc41d5348d3d52b362ac628a69590600090a25050565b600061167f6000805160206125628339815191526107e2565b90506001600160a01b03811633146116c85760405162461bcd60e51b815260040180806020018281038252602b81526020018061243b602b913960400191505060405180910390fd5b6116ea7429a4a3a42fa9a822a2a22fa1a7a72a2927a62622a960591b836117f8565b6040516001600160a01b038316907f0579f9ffaa1ecb9bf9c8a40161500243b875b8a597c78ec222812e5336ef979390600090a25050565b60006106097829a4a3a42fab27a620aa24a624aa2cafa420a92b22a9aa22a960391b6107e2565b60006106097829a4a3a42fa324a720a721a2afa1a7a72324a3aaa920aa27a960391b6107e2565b600080611790704c454e44494e475f504f4f4c5f434f524560781b6107e2565b91505090565b60006106096b2322a2afa82927ab24a222a960a11b6107e2565b60006106096b50524943455f4f5241434c4560a01b6107e2565b60009182526020829052604090912080546001600160a01b0319166001600160a01b03909216919091179055565b6000611803836107e2565b60408051306024808301919091528251808303909101815260449091019091526020810180516001600160e01b031663189acdbd60e31b17905290915081906001600160a01b0382166119bd5760405161185c90611a91565b604051809103906000f080158015611878573d6000803e3d6000fd5b509150816001600160a01b031663cf7a1d778530846040518463ffffffff1660e01b815260040180846001600160a01b03166001600160a01b03168152602001836001600160a01b03166001600160a01b0316815260200180602001828103825283818151815260200191508051906020019080838360005b838110156119095781810151838201526020016118f1565b50505050905090810190601f1680156119365780820380516001836020036101000a031916815260200191505b50945050505050600060405180830381600087803b15801561195757600080fd5b505af115801561196b573d6000803e3d6000fd5b5050505061197985836117ca565b6040805186815290516001600160a01b038416917f1eb35cb4b5bbb23d152f3b4016a5a46c37a07ae930ed0956aba951e231142438919081900360200190a2611a8a565b6040805163278f794360e11b81526001600160a01b03868116600483019081526024830193845284516044840152845191861693634f1ef2869389938793929160640190602085019080838360005b83811015611a24578181015183820152602001611a0c565b50505050905090810190601f168015611a515780820380516001836020036101000a031916815260200191505b509350505050600060405180830381600087803b158015611a7157600080fd5b505af1158015611a85573d6000803e3d6000fd5b505050505b5050505050565b61099c80611a9f8339019056fe608060405234801561001057600080fd5b5061097c806100206000396000f3fe6080604052600436106100705760003560e01c80638f2839701161004e5780638f2839701461015e578063cf7a1d7714610191578063d1f5789414610250578063f851a4401461030657610070565b80633659cfe61461007a5780634f1ef286146100ad5780635c60da1b1461012d575b61007861031b565b005b34801561008657600080fd5b506100786004803603602081101561009d57600080fd5b50356001600160a01b0316610335565b610078600480360360408110156100c357600080fd5b6001600160a01b0382351691908101906040810160208201356401000000008111156100ee57600080fd5b82018360208201111561010057600080fd5b8035906020019184600183028401116401000000008311171561012257600080fd5b50909250905061036f565b34801561013957600080fd5b5061014261041c565b604080516001600160a01b039092168252519081900360200190f35b34801561016a57600080fd5b506100786004803603602081101561018157600080fd5b50356001600160a01b0316610459565b610078600480360360608110156101a757600080fd5b6001600160a01b0382358116926020810135909116918101906060810160408201356401000000008111156101db57600080fd5b8201836020820111156101ed57600080fd5b8035906020019184600183028401116401000000008311171561020f57600080fd5b91908080601f016020809104026020016040519081016040528093929190818152602001838380828437600092019190915250929550610513945050505050565b6100786004803603604081101561026657600080fd5b6001600160a01b03823516919081019060408101602082013564010000000081111561029157600080fd5b8201836020820111156102a357600080fd5b803590602001918460018302840111640100000000831117156102c557600080fd5b91908080601f016020809104026020016040519081016040528093929190818152602001838380828437600092019190915250929550610599945050505050565b34801561031257600080fd5b506101426106d9565b610323610704565b61033361032e610764565b610789565b565b61033d6107ad565b6001600160a01b0316336001600160a01b031614156103645761035f816107d2565b61036c565b61036c61031b565b50565b6103776107ad565b6001600160a01b0316336001600160a01b0316141561040f57610399836107d2565b6000836001600160a01b031683836040518083838082843760405192019450600093509091505080830381855af49150503d80600081146103f6576040519150601f19603f3d011682016040523d82523d6000602084013e6103fb565b606091505b505090508061040957600080fd5b50610417565b61041761031b565b505050565b60006104266107ad565b6001600160a01b0316336001600160a01b0316141561044e57610447610764565b9050610456565b61045661031b565b90565b6104616107ad565b6001600160a01b0316336001600160a01b03161415610364576001600160a01b0381166104bf5760405162461bcd60e51b81526004018080602001828103825260368152602001806108d76036913960400191505060405180910390fd5b7f7e644d79422f17c01e4894b5f4f588d331ebfa28653d42ae832dc59e38c9798f6104e86107ad565b604080516001600160a01b03928316815291841660208301528051918290030190a161035f81610812565b600061051d610764565b6001600160a01b03161461053057600080fd5b61053a8382610599565b604080517232b4b8189c9b1b97383937bc3c9730b236b4b760691b815290519081900360130190207fb53127684a568b3173ae13b9f8a6016e243e63b6e8ee1178d6a717850b5d61036000199091011461059057fe5b61041782610812565b60006105a3610764565b6001600160a01b0316146105b657600080fd5b604080517f656970313936372e70726f78792e696d706c656d656e746174696f6e000000008152905190819003601c0190207f360894a13ba1a3210667c828492db98dca3e2076cc3735a920a3ca505d382bbc6000199091011461061657fe5b61061f82610836565b8051156106d5576000826001600160a01b0316826040518082805190602001908083835b602083106106625780518252601f199092019160209182019101610643565b6001836020036101000a038019825116818451168082178552505050505050905001915050600060405180830381855af49150503d80600081146106c2576040519150601f19603f3d011682016040523d82523d6000602084013e6106c7565b606091505b505090508061041757600080fd5b5050565b60006106e36107ad565b6001600160a01b0316336001600160a01b0316141561044e576104476107ad565b61070c6107ad565b6001600160a01b0316336001600160a01b0316141561075c5760405162461bcd60e51b81526004018080602001828103825260328152602001806108a56032913960400191505060405180910390fd5b610333610333565b7f360894a13ba1a3210667c828492db98dca3e2076cc3735a920a3ca505d382bbc5490565b3660008037600080366000845af43d6000803e8080156107a8573d6000f35b3d6000fd5b7fb53127684a568b3173ae13b9f8a6016e243e63b6e8ee1178d6a717850b5d61035490565b6107db81610836565b6040516001600160a01b038216907fbc7cd75a20ee27fd9adebab32041f755214dbc6bffa90cc0225b39da2e5c2d3b90600090a250565b7fb53127684a568b3173ae13b9f8a6016e243e63b6e8ee1178d6a717850b5d610355565b61083f8161089e565b61087a5760405162461bcd60e51b815260040180806020018281038252603b81526020018061090d603b913960400191505060405180910390fd5b7f360894a13ba1a3210667c828492db98dca3e2076cc3735a920a3ca505d382bbc55565b3b15159056fe43616e6e6f742063616c6c2066616c6c6261636b2066756e6374696f6e2066726f6d207468652070726f78792061646d696e43616e6e6f74206368616e6765207468652061646d696e206f6620612070726f787920746f20746865207a65726f206164647265737343616e6e6f742073657420612070726f787920696d706c656d656e746174696f6e20746f2061206e6f6e2d636f6e74726163742061646472657373a265627a7a7231582035aa27aa36b5d80fc92ba0c8c4c4254b013fd1e4dcfed8037e5483c11df8b7f964736f6c634300051000325468652063616c6c6572206d7573742062652074686520534947482046494e414e4345204d616e6167657250454e44494e475f4c454e44494e475f504f4f4c5f4d414e41474552000000004f6e6c79207468652050656e64696e6720534947482046696e616e6365204d616e616765722063616e2063616c6c20746869732066756e6374696f6e20746f20626520616363657074656420746f206265636f6d652074686520534947482046696e616e6365204d616e616765724f6e6c79207468652050656e64696e67204c656e64696e6720506f6f6c204d616e616765722063616e2063616c6c20746869732066756e6374696f6e20746f20626520616363657074656420746f206265636f6d6520746865204c656e64696e6720506f6f6c204d616e61676572534947485f46494e414e43455f4d414e4147455200000000000000000000000050454e44494e475f534947485f46494e414e43455f4d414e41474552000000005468652063616c6c6572206d75737420626520746865204c656e64696e672050726f746f636f6c204d616e616765724c454e44494e475f504f4f4c5f4d414e41474552000000000000000000000000a265627a7a723158204f4f4da04df6ce18f7d5c1f3fdf58613c1dafebfbddff3172e57d9d8b49e26b664736f6c63430005100032",
  "source": "pragma solidity ^0.5.6;\n\nimport \"./IGlobalAddressesProvider.sol\";\nimport \"./AddressStorage.sol\";\nimport \"../openzeppelin-upgradeability/InitializableAdminUpgradeabilityProxy.sol\";\n\n/**\n* @title GlobalAddressesProvider contract (Taken from Aave, Modified by SIGH Finance)\n* @notice Is the main registry of the protocol. All the different components of the protocol are accessible\n* through the addresses provider.\n* @author Aave, SIGH Finance\n**/\n\n\ncontract GlobalAddressesProvider is IGlobalAddressesProvider, AddressStorage {\n\n    bool isSighInitialized = false;                             // ADDED BY SIGH FINANCE\n    bool isSighSpeedControllerInitialized = false;              // ADDED BY SIGH FINANCE\n    //events\n    event PendingSIGHFinanceManagerUpdated( address _pendingSighFinanceManager );           \n    event SIGHFinanceManagerUpdated( address _sighFinanceManager );    \n    event PendingLendingPoolManagerUpdated( address _pendingLendingPoolManager );\n    event LendingPoolManagerUpdated( address _lendingPoolManager );   \n\n    event LendingPoolConfiguratorUpdated(address indexed newAddress);\n    event LendingPoolUpdated(address indexed newAddress);\n    event LendingPoolCoreUpdated(address indexed newAddress);\n    event LendingPoolParametersProviderUpdated(address indexed newAddress);\n    event LendingPoolLiquidationManagerUpdated(address indexed newAddress);\n    event LendingPoolDataProviderUpdated(address indexed newAddress);\n    event LendingRateOracleUpdated(address indexed newAddress);\n    event FeeProviderUpdated(address indexed newAddress);\n\n    event SIGHFinanceConfiguratorUpdated(address indexed sighFinanceConfigAddress);       // ADDED BY SIGH FINANCE\n    event SIGHAddressUpdated(address indexed sighAddress);                               // ADDED BY SIGH FINANCE\n    event SIGHSpeedControllerUpdated(address indexed speedControllerAddress);\n    event SIGHVolatilityHarvesterImplUpdated(address indexed newAddress);                   // ADDED BY SIGH FINANCE\n    event SIGHTreasuryImplUpdated(address indexed newAddress);                           // ADDED BY SIGH FINANCE\n    event SIGHStakingImplUpdated(address indexed SIGHStakingAddress);                    // ADDED BY SIGH FINANCE\n\n    event PriceOracleUpdated(address indexed newAddress);\n    event SIGHFinanceFeeCollectorUpdated(address indexed newAddress);\n\n    event ProxyCreated(bytes32 id, address indexed newAddress);\n\n    bytes32 private constant LENDING_POOL_MANAGER = \"LENDING_POOL_MANAGER\";                         // MULTISIG ACCOUNT WHICH CONTROLS THE UPDATES TO THE LENDINGPOOL \n    bytes32 private constant PENDING_LENDING_POOL_MANAGER = \"PENDING_LENDING_POOL_MANAGER\";         // MULTISIG ACCOUNT WHICH CONTROLS THE UPDATES TO THE LENDINGPOOL (CHANGING MECHANISM)\n    bytes32 private constant SIGH_FINANCE_MANAGER = \"SIGH_FINANCE_MANAGER\";                         // MULTISIG ACCOUNT WHICH CONTROLS THE UPDATES TO THE SIGH FINANCE \n    bytes32 private constant PENDING_SIGH_FINANCE_MANAGER = \"PENDING_SIGH_FINANCE_MANAGER\";         // MULTISIG ACCOUNT WHICH CONTROLS THE UPDATES TO THE SIGH FINANCE (CHANGING MECHANISM)\n\n    bytes32 private constant LENDING_POOL_CONFIGURATOR = \"LENDING_POOL_CONFIGURATOR\";       // CONTROLLED BY LENDINGPOOL MANAGER. MAKES STATE CHANGES RELATED TO LENDING PROTOCOL\n    bytes32 private constant SIGH_FINANCE_CONFIGURATOR = \"SIGH_FINANCE_CONFIGURATOR\";       // CONTROLLED BY SIGHFINANCE MANAGER. MAKES STATE CHANGES RELATED TO SIGH FINANCE\n\n    bytes32 private constant LENDING_POOL_CORE = \"LENDING_POOL_CORE\";\n    bytes32 private constant LENDING_POOL = \"LENDING_POOL\";\n    bytes32 private constant LENDING_POOL_LIQUIDATION_MANAGER = \"LIQUIDATION_MANAGER\";\n    bytes32 private constant LENDING_POOL_PARAMETERS_PROVIDER = \"PARAMETERS_PROVIDER\";\n    bytes32 private constant DATA_PROVIDER = \"DATA_PROVIDER\";\n    bytes32 private constant LENDING_RATE_ORACLE = \"LENDING_RATE_ORACLE\";\n    bytes32 private constant FEE_PROVIDER = \"FEE_PROVIDER\";\n\n    bytes32 private constant SIGH = \"SIGH\";                                                     // ADDED BY SIGH FINANCE\n    bytes32 private constant SIGH_SPEED_CONTROLLER = \"SIGH_SPEED_CONTROLLER\";                   // ADDED BY SIGH FINANCE\n    bytes32 private constant SIGH_VOLATILITY_HARVESTER = \"SIGH_VOLATILITY_HARVESTER\";           // ADDED BY SIGH FINANCE\n    bytes32 private constant SIGH_TREASURY = \"SIGH_TREASURY\";                                   // ADDED BY SIGH FINANCE\n    bytes32 private constant SIGH_STAKING = \"SIGH_STAKING\";                                     // ADDED BY SIGH FINANCE\n\n    bytes32 private constant PRICE_ORACLE = \"PRICE_ORACLE\";\n\n    bytes32 private constant SIGH_Finance_Fee_Collector = \"SIGH_Finance_Fee_Collector\";\n\n// ################################                                                  \n// ######  CONSTRUCTOR ############                                                \n// ################################                                                     \n\n    constructor(address SIGHFinanceManagerAddress, address LendingPoolManagerAddress) public {\n        _setAddress(SIGH_FINANCE_MANAGER, SIGHFinanceManagerAddress);\n        _setAddress(LENDING_POOL_MANAGER, LendingPoolManagerAddress);\n\n        emit SIGHFinanceManagerUpdated( getAddress(SIGH_FINANCE_MANAGER) );\n        emit LendingPoolManagerUpdated( getAddress(LENDING_POOL_MANAGER) );\n    }\n\n// ################################                                                  \n// #########  MODIFIERS ###########                                              \n// ################################  \n\n    modifier onlySIGHFinanceManager {\n        address sighFinanceManager =  getAddress(SIGH_FINANCE_MANAGER);\n        require( sighFinanceManager == msg.sender, \"The caller must be the SIGH FINANCE Manager\" );\n        _;\n    }  \n\n    modifier onlyLendingPoolManager {\n        address LendingPoolManager =  getAddress(LENDING_POOL_MANAGER);\n        require( LendingPoolManager == msg.sender, \"The caller must be the Lending Protocol Manager\" );\n        _;\n    } \n\n// ########################################################################################                                                   \n// #########  PROTOCOL MANAGERS ( LendingPool Manager and SighFinance Manager ) ###########                                              \n// ########################################################################################\n\n    function getLendingPoolManager() external view returns (address) {                            // ADDED BY SIGH FINANCE\n        return getAddress(LENDING_POOL_MANAGER);\n    }\n\n    function getPendingLendingPoolManager() external view returns (address) {                     // ADDED BY SIGH FINANCE\n        return getAddress(PENDING_LENDING_POOL_MANAGER);\n    }\n\n    function setPendingLendingPoolManager(address _pendinglendingPoolManager) external onlyLendingPoolManager {                   // ADDED BY SIGH FINANCE\n        _setAddress(PENDING_LENDING_POOL_MANAGER, _pendinglendingPoolManager);\n        emit PendingLendingPoolManagerUpdated(_pendinglendingPoolManager);\n    }\n\n    function acceptLendingPoolManager() external {                                                                                 // ADDED BY SIGH FINANCE\n        address pendingLendingPoolManager = getAddress(PENDING_LENDING_POOL_MANAGER);\n        require(msg.sender == pendingLendingPoolManager, \"Only the Pending Lending Pool Manager can call this function to be accepted to become the Lending Pool Manager\");\n        _setAddress(LENDING_POOL_MANAGER, pendingLendingPoolManager);\n        _setAddress(PENDING_LENDING_POOL_MANAGER, address(0));\n        emit PendingLendingPoolManagerUpdated( getAddress(PENDING_LENDING_POOL_MANAGER) );\n        emit LendingPoolManagerUpdated( getAddress(LENDING_POOL_MANAGER) );\n    }\n\n    function getSIGHFinanceManager() external view returns (address) {                               // ADDED BY SIGH FINANCE\n        return getAddress(SIGH_FINANCE_MANAGER);\n    }\n\n    function getPendingSIGHFinanceManager() external view returns (address) {                        // ADDED BY SIGH FINANCE\n        return getAddress(PENDING_SIGH_FINANCE_MANAGER);\n    }\n\n    function setPendingSIGHFinanceManager(address _PendingSIGHFinanceManager) external onlySIGHFinanceManager {     // ADDED BY SIGH FINANCE\n        _setAddress(PENDING_SIGH_FINANCE_MANAGER, _PendingSIGHFinanceManager);\n        emit PendingSIGHFinanceManagerUpdated(_PendingSIGHFinanceManager);\n    }\n\n    function acceptSIGHFinanceManager() external {                                                                   // ADDED BY SIGH FINANCE\n        address _PendingSIGHFinanceManager = getAddress(PENDING_SIGH_FINANCE_MANAGER);\n        require(msg.sender == _PendingSIGHFinanceManager, \"Only the Pending SIGH Finance Manager can call this function to be accepted to become the SIGH Finance Manager\");\n        _setAddress(SIGH_FINANCE_MANAGER, _PendingSIGHFinanceManager);\n        _setAddress(PENDING_SIGH_FINANCE_MANAGER, address(0));\n        emit PendingSIGHFinanceManagerUpdated( getAddress(PENDING_SIGH_FINANCE_MANAGER) );\n        emit SIGHFinanceManagerUpdated( getAddress(SIGH_FINANCE_MANAGER) );\n    }\n\n\n// #########################################################################\n// ####___________ LENDING POOL PROTOCOL CONTRACTS _____________############\n// ########## 1. LendingPoolConfigurator (Upgradagble) #####################\n// ########## 2. LendingPoolCore (Upgradagble) #############################\n// ########## 3. LendingPool (Upgradagble) #################################\n// ########## 4. LendingPoolDataProvider (Upgradagble) #####################\n// ########## 5. LendingPoolParametersProvider (Upgradagble) ###############\n// ########## 6. FeeProvider (Upgradagble) #################################\n// ########## 7. LendingPoolLiquidationManager (Directly Changed) ##########\n// ########## 8. LendingRateOracle (Directly Changed) ######################\n// #########################################################################\n\n\n// ############################################\n// ######  LendingPoolConfigurator proxy ######\n// ############################################\n\n    /**\n    * @dev returns the address of the LendingPoolConfigurator proxy\n    * @return the lending pool configurator proxy address\n    **/\n    function getLendingPoolConfigurator() external view returns (address) {\n        return getAddress(LENDING_POOL_CONFIGURATOR);\n    }\n     \n    /**\n    * @dev updates the implementation of the lending pool configurator\n    * @param _configurator the new lending pool configurator implementation\n    **/\n    function setLendingPoolConfiguratorImpl(address _configurator) external onlyLendingPoolManager {\n        updateImplInternal(LENDING_POOL_CONFIGURATOR, _configurator);\n        emit LendingPoolConfiguratorUpdated(_configurator);\n    }\n\n// ####################################\n// ######  LendingPoolCore proxy ######\n// ####################################\n\n    /**\n    * @dev returns the address of the LendingPoolCore proxy\n    * @return the lending pool core proxy address\n     */\n    function getLendingPoolCore() external view returns (address payable) {\n        address payable core = address(uint160(getAddress(LENDING_POOL_CORE)));\n        return core;\n    }\n\n    /**\n    * @dev updates the implementation of the lending pool core\n    * @param _lendingPoolCore the new lending pool core implementation\n    **/\n    function setLendingPoolCoreImpl(address _lendingPoolCore) external onlyLendingPoolManager {\n        updateImplInternal(LENDING_POOL_CORE, _lendingPoolCore);\n        emit LendingPoolCoreUpdated(_lendingPoolCore);\n    }\n\n// ################################\n// ######  LendingPool proxy ######\n// ################################\n    /**\n    * @dev returns the address of the LendingPool proxy\n    * @return the lending pool proxy address\n    **/\n    function getLendingPool() external view returns (address) {\n        return getAddress(LENDING_POOL);\n    }\n\n\n    /**\n    * @dev updates the implementation of the lending pool\n    * @param _pool the new lending pool implementation\n    **/\n    function setLendingPoolImpl(address _pool) external onlyLendingPoolManager {\n        updateImplInternal(LENDING_POOL, _pool);\n        emit LendingPoolUpdated(_pool);\n    }\n\n\n// ############################################\n// ######  LendingPoolDataProvider proxy ######\n// ############################################\n\n    /**\n    * @dev returns the address of the LendingPoolDataProvider proxy\n    * @return the lending pool data provider proxy address\n     */\n    function getLendingPoolDataProvider() external view returns (address) {\n        return getAddress(DATA_PROVIDER);\n    }\n\n    /**\n    * @dev updates the implementation of the lending pool data provider\n    * @param _provider the new lending pool data provider implementation\n    **/\n    function setLendingPoolDataProviderImpl(address _provider) external onlyLendingPoolManager {\n        updateImplInternal(DATA_PROVIDER, _provider);\n        emit LendingPoolDataProviderUpdated(_provider);\n    }\n\n// ##################################################\n// ######  LendingPoolParametersProvider proxy ######\n// ##################################################\n    /**\n    * @dev returns the address of the LendingPoolParametersProvider proxy\n    * @return the address of the Lending pool parameters provider proxy\n    **/\n    function getLendingPoolParametersProvider() external view returns (address) {\n        return getAddress(LENDING_POOL_PARAMETERS_PROVIDER);\n    }\n\n    /**\n    * @dev updates the implementation of the lending pool parameters provider\n    * @param _parametersProvider the new lending pool parameters provider implementation\n    **/\n    function setLendingPoolParametersProviderImpl(address _parametersProvider) external onlyLendingPoolManager {\n        updateImplInternal(LENDING_POOL_PARAMETERS_PROVIDER, _parametersProvider);\n        emit LendingPoolParametersProviderUpdated(_parametersProvider);\n    }\n\n// ###################################\n// ######  getFeeProvider proxy ######\n// ###################################\n    /**\n    * @dev returns the address of the FeeProvider proxy\n    * @return the address of the Fee provider proxy\n    **/\n    function getFeeProvider() external view returns (address) {\n        return getAddress(FEE_PROVIDER);\n    }\n\n    /**\n    * @dev updates the implementation of the FeeProvider proxy\n    * @param _feeProvider the new lending pool fee provider implementation\n    **/\n    function setFeeProviderImpl(address _feeProvider) external onlyLendingPoolManager {\n        updateImplInternal(FEE_PROVIDER, _feeProvider);\n        emit FeeProviderUpdated(_feeProvider);\n    }\n\n// ##################################################\n// ######  LendingPoolLiquidationManager ######\n// ##################################################\n    /**\n    * @dev returns the address of the LendingPoolLiquidationManager. Since the manager is used\n    * through delegateCall within the LendingPool contract, the proxy contract pattern does not work properly hence\n    * the addresses are changed directly.\n    * @return the address of the Lending pool liquidation manager\n    **/\n\n    function getLendingPoolLiquidationManager() external view returns (address) {\n        return getAddress(LENDING_POOL_LIQUIDATION_MANAGER);\n    }\n\n    /**\n    * @dev updates the address of the Lending pool liquidation manager\n    * @param _manager the new lending pool liquidation manager address\n    **/\n    function setLendingPoolLiquidationManager(address _manager) external onlyLendingPoolManager {\n        _setAddress(LENDING_POOL_LIQUIDATION_MANAGER, _manager);\n        emit LendingPoolLiquidationManagerUpdated(_manager);\n    }\n\n// ##################################################\n// ######  LendingRateOracle ##################\n// ##################################################\n\n    function getLendingRateOracle() external view returns (address) {\n        return getAddress(LENDING_RATE_ORACLE);\n    }\n\n    function setLendingRateOracle(address _lendingRateOracle) external onlyLendingPoolManager {\n        _setAddress(LENDING_RATE_ORACLE, _lendingRateOracle);\n        emit LendingRateOracleUpdated(_lendingRateOracle);\n    }\n\n\n\n\n// ####################################################################################\n// ####___________ SIGH FINANCE RELATED CONTRACTS _____________########################\n// ########## 1. SIGH (Initialized only once) #########################################\n// ########## 2. SIGHFinanceConfigurator (Upgradagble) ################################\n// ########## 2. SIGH Speed Controller (Initialized only once) ######################## \n// ########## 3. SIGHTreasury (Upgradagble) ###########################################\n// ########## 4. SIGHMechanismHandler (Upgradagble) ###################################\n// ########## 5. SIGHStaking (Upgradagble) ###################################\n// ####################################################################################\n\n// ################################                                                     // ADDED BY SIGH FINANCE\n// ######  SIGH ADDRESS ###########                                                     // ADDED BY SIGH FINANCE\n// ################################                                                     // ADDED BY SIGH FINANCE\n\n    function getSIGHAddress() external view returns (address) {\n        return getAddress(SIGH);\n    }\n\n    function setSIGHAddress(address sighAddress) external onlySIGHFinanceManager {     // LATER CHANGE TO MAKE IT INITIALIZABLE ONLY ONCE\n        // require (!isSighInitialized, \"SIGH Instrument address can only be initialized once.\");\n        isSighInitialized  = true;\n        // updateImplInternal(SIGH, sighAddress);\n        _setAddress(SIGH, sighAddress);\n        emit SIGHAddressUpdated(sighAddress);\n    }\n\n// ############################################\n// ######  SIGHFinanceConfigurator proxy ######\n// ############################################\n\n    /**\n    * @dev returns the address of the SIGHFinanceConfigurator proxy\n    * @return the SIGH Finance configurator proxy address\n    **/\n    function getSIGHFinanceConfigurator() external view returns (address) {\n        return getAddress(SIGH_FINANCE_CONFIGURATOR);\n    }\n     \n    /**\n    * @dev updates the implementation of the lending pool configurator\n    * @param _configurator the new lending pool configurator implementation\n    **/\n    function setSIGHFinanceConfiguratorImpl(address _configurator) external onlySIGHFinanceManager {\n        updateImplInternal(SIGH_FINANCE_CONFIGURATOR, _configurator);\n        emit SIGHFinanceConfiguratorUpdated(_configurator);\n    }\n\n// ############################################\n// ######  SIGH Speed Controller ########\n// ############################################\n\n    /**\n    * @dev returns the address of the SIGH_SPEED_CONTROLLER proxy\n    * @return the SIGH Speed Controller address\n    **/\n    function getSIGHSpeedController() external view returns (address) {\n        return getAddress(SIGH_SPEED_CONTROLLER);\n    }\n     \n    /**\n    * @dev sets the address of the SIGH Speed Controller\n    * @param _SIGHSpeedController the SIGH Speed Controller implementation\n    **/\n    function setSIGHSpeedController(address _SIGHSpeedController) external onlySIGHFinanceManager {\n        // require (!isSighSpeedControllerInitialized, \"SIGH Speed Controller address can only be initialized once.\");\n        // isSighSpeedControllerInitialized  = true;\n        updateImplInternal(SIGH_SPEED_CONTROLLER, _SIGHSpeedController);\n        // _setAddress(SIGH_SPEED_CONTROLLER, _SIGHSpeedController);\n        emit SIGHSpeedControllerUpdated(_SIGHSpeedController);\n    }\n\n\n\n// #################################  ADDED BY SIGH FINANCE \n// ######  SIGHTreasury proxy ######  ADDED BY SIGH FINANCE\n// #################################  ADDED BY SIGH FINANCE \n\n    function getSIGHTreasury() external view returns (address) {\n        return getAddress(SIGH_TREASURY);\n    }\n\n    /**\n    * @dev updates the address of the SIGH Treasury Contract\n    * @param _SIGHTreasury the new SIGH Treasury Contract address\n    **/\n    function setSIGHTreasuryImpl(address _SIGHTreasury) external onlySIGHFinanceManager {   \n        updateImplInternal(SIGH_TREASURY, _SIGHTreasury);\n        emit SIGHTreasuryImplUpdated(_SIGHTreasury);\n    }\n\n// #############################################  ADDED BY SIGH FINANCE \n// ######  SIGHMechanismHandler proxy #######     ADDED BY SIGH FINANCE\n// #############################################  ADDED BY SIGH FINANCE \n\n    function getSIGHVolatilityHarvester() external view returns (address) {\n        return getAddress(SIGH_VOLATILITY_HARVESTER);\n    }\n\n    /**\n    * @dev updates the address of the SIGH Volatility Harvester Contract (Manages the SIGH Speeds)\n    * @param _SIGHVolatilityHarvester the new SIGH Volatility Harvester (Impl) Address\n    **/\n    function setSIGHVolatilityHarvesterImpl(address _SIGHVolatilityHarvester) external onlySIGHFinanceManager  {   \n        updateImplInternal(SIGH_VOLATILITY_HARVESTER, _SIGHVolatilityHarvester);\n        emit SIGHVolatilityHarvesterImplUpdated(_SIGHVolatilityHarvester);\n    }\n\n// #############################################  ADDED BY SIGH FINANCE \n// ######  SIGHStaking proxy ###################  ADDED BY SIGH FINANCE\n// #############################################  ADDED BY SIGH FINANCE \n\n    function getSIGHStaking() external view returns (address) {\n        return getAddress(SIGH_STAKING);\n    }\n\n    /**\n    * @dev updates the address of the SIGH Distribution Handler Contract (Manages the SIGH Speeds)\n    * @param _SIGHStaking the new lending pool liquidation manager address\n    **/\n    function setSIGHStaking(address _SIGHStaking) external onlySIGHFinanceManager  { \n        _setAddress(SIGH_STAKING, _SIGHStaking);\n        emit SIGHStakingImplUpdated(_SIGHStaking);\n    }\n\n// ###################################################################################   \n// ######  THESE CONTRACTS ARE NOT USING PROXY SO ADDRESS ARE DIRECTLY UPDATED #######  \n// ###################################################################################\n\n    /**\n    * @dev the functions below are storing specific addresses that are outside the context of the protocol\n    * hence the upgradable proxy pattern is not used\n    **/\n\n    function getPriceOracle() external view returns (address) {\n        return getAddress(PRICE_ORACLE);\n    }\n\n    function setPriceOracle(address _priceOracle) external onlyLendingPoolManager {\n        _setAddress(PRICE_ORACLE, _priceOracle);\n        emit PriceOracleUpdated(_priceOracle);\n    }\n    \n    // SIGH FINANCE FEE COLLECTOR - BORROWING / FLASH LOAN FEE TRANSERRED TO THIS ADDRESS\n    function getSIGHFinanceFeeCollector() external view returns (address) {\n        return getAddress(SIGH_Finance_Fee_Collector);\n    }\n\n    function setSIGHFinanceFeeCollector(address _feeCollector) external onlySIGHFinanceManager {\n        _setAddress(SIGH_Finance_Fee_Collector, _feeCollector);\n        emit SIGHFinanceFeeCollectorUpdated(_feeCollector);\n    }\n\n\n\n// ############################################# \n// ######  FUNCTION TO UPGRADE THE PROXY #######  \n// #############################################  \n\n    /**\n    * @dev internal function to update the implementation of a specific component of the protocol\n    * @param _id the id of the contract to be updated\n    * @param _newAddress the address of the new implementation\n    **/\n    function updateImplInternal(bytes32 _id, address _newAddress) internal {\n        address payable proxyAddress = address(uint160(getAddress(_id)));\n\n        InitializableAdminUpgradeabilityProxy proxy = InitializableAdminUpgradeabilityProxy(proxyAddress);\n        bytes memory params = abi.encodeWithSignature(\"initialize(address)\", address(this));            // initialize function is called in the new implementation contract\n\n        if (proxyAddress == address(0)) {\n            proxy = new InitializableAdminUpgradeabilityProxy();\n            proxy.initialize(_newAddress, address(this), params);\n            _setAddress(_id, address(proxy));\n            emit ProxyCreated(_id, address(proxy));\n        } else {\n            proxy.upgradeToAndCall(_newAddress, params);\n        }\n    }\n}\n",
  "sourcePath": "/Users/apple/Desktop/GITCOIN/Sigh_Finance/SighFinanceContracts/contracts/Configuration/GlobalAddressesProvider.sol",
  "compiler": {
    "name": "solc",
    "version": "0.5.16+commit.9c3226ce.Emscripten.clang"
  },
  "schemaVersion": "3.2.4",
  "updatedAt": "2021-01-05T05:29:52.028Z",
  "devdoc": {
    "author": "Aave, SIGH Finance*",
    "methods": {
      "getFeeProvider()": {
        "details": "returns the address of the FeeProvider proxy",
        "return": "the address of the Fee provider proxy*"
      },
      "getLendingPool()": {
        "details": "returns the address of the LendingPool proxy",
        "return": "the lending pool proxy address*"
      },
      "getLendingPoolConfigurator()": {
        "details": "returns the address of the LendingPoolConfigurator proxy",
        "return": "the lending pool configurator proxy address*"
      },
      "getLendingPoolCore()": {
        "details": "returns the address of the LendingPoolCore proxy",
        "return": "the lending pool core proxy address"
      },
      "getLendingPoolDataProvider()": {
        "details": "returns the address of the LendingPoolDataProvider proxy",
        "return": "the lending pool data provider proxy address"
      },
      "getLendingPoolLiquidationManager()": {
        "details": "returns the address of the LendingPoolLiquidationManager. Since the manager is used through delegateCall within the LendingPool contract, the proxy contract pattern does not work properly hence the addresses are changed directly.",
        "return": "the address of the Lending pool liquidation manager*"
      },
      "getLendingPoolParametersProvider()": {
        "details": "returns the address of the LendingPoolParametersProvider proxy",
        "return": "the address of the Lending pool parameters provider proxy*"
      },
      "getPriceOracle()": {
        "details": "the functions below are storing specific addresses that are outside the context of the protocol hence the upgradable proxy pattern is not used*"
      },
      "getSIGHFinanceConfigurator()": {
        "details": "returns the address of the SIGHFinanceConfigurator proxy",
        "return": "the SIGH Finance configurator proxy address*"
      },
      "getSIGHSpeedController()": {
        "details": "returns the address of the SIGH_SPEED_CONTROLLER proxy",
        "return": "the SIGH Speed Controller address*"
      },
      "setFeeProviderImpl(address)": {
        "details": "updates the implementation of the FeeProvider proxy",
        "params": {
          "_feeProvider": "the new lending pool fee provider implementation*"
        }
      },
      "setLendingPoolConfiguratorImpl(address)": {
        "details": "updates the implementation of the lending pool configurator",
        "params": {
          "_configurator": "the new lending pool configurator implementation*"
        }
      },
      "setLendingPoolCoreImpl(address)": {
        "details": "updates the implementation of the lending pool core",
        "params": {
          "_lendingPoolCore": "the new lending pool core implementation*"
        }
      },
      "setLendingPoolDataProviderImpl(address)": {
        "details": "updates the implementation of the lending pool data provider",
        "params": {
          "_provider": "the new lending pool data provider implementation*"
        }
      },
      "setLendingPoolImpl(address)": {
        "details": "updates the implementation of the lending pool",
        "params": {
          "_pool": "the new lending pool implementation*"
        }
      },
      "setLendingPoolLiquidationManager(address)": {
        "details": "updates the address of the Lending pool liquidation manager",
        "params": {
          "_manager": "the new lending pool liquidation manager address*"
        }
      },
      "setLendingPoolParametersProviderImpl(address)": {
        "details": "updates the implementation of the lending pool parameters provider",
        "params": {
          "_parametersProvider": "the new lending pool parameters provider implementation*"
        }
      },
      "setSIGHFinanceConfiguratorImpl(address)": {
        "details": "updates the implementation of the lending pool configurator",
        "params": {
          "_configurator": "the new lending pool configurator implementation*"
        }
      },
      "setSIGHSpeedController(address)": {
        "details": "sets the address of the SIGH Speed Controller",
        "params": {
          "_SIGHSpeedController": "the SIGH Speed Controller implementation*"
        }
      },
      "setSIGHStaking(address)": {
        "details": "updates the address of the SIGH Distribution Handler Contract (Manages the SIGH Speeds)",
        "params": {
          "_SIGHStaking": "the new lending pool liquidation manager address*"
        }
      },
      "setSIGHTreasuryImpl(address)": {
        "details": "updates the address of the SIGH Treasury Contract",
        "params": {
          "_SIGHTreasury": "the new SIGH Treasury Contract address*"
        }
      },
      "setSIGHVolatilityHarvesterImpl(address)": {
        "details": "updates the address of the SIGH Volatility Harvester Contract (Manages the SIGH Speeds)",
        "params": {
          "_SIGHVolatilityHarvester": "the new SIGH Volatility Harvester (Impl) Address*"
        }
      }
    },
    "title": "GlobalAddressesProvider contract (Taken from Aave, Modified by SIGH Finance)"
  },
  "userdoc": {
    "methods": {},
    "notice": "Is the main registry of the protocol. All the different components of the protocol are accessible through the addresses provider."
  }
}