{
  "contractName": "GovernorAlpha",
  "abi": [
    {
      "inputs": [
        {
          "internalType": "address",
          "name": "timelock_",
          "type": "address"
        },
        {
          "internalType": "address",
          "name": "gSigh_",
          "type": "address"
        },
        {
          "internalType": "address",
          "name": "guardian_",
          "type": "address"
        }
      ],
      "payable": false,
      "stateMutability": "nonpayable",
      "type": "constructor"
    },
    {
      "anonymous": false,
      "inputs": [
        {
          "indexed": false,
          "internalType": "uint256",
          "name": "id",
          "type": "uint256"
        }
      ],
      "name": "ProposalCanceled",
      "type": "event"
    },
    {
      "anonymous": false,
      "inputs": [
        {
          "indexed": false,
          "internalType": "uint256",
          "name": "id",
          "type": "uint256"
        },
        {
          "indexed": false,
          "internalType": "address",
          "name": "proposer",
          "type": "address"
        },
        {
          "indexed": false,
          "internalType": "address[]",
          "name": "targets",
          "type": "address[]"
        },
        {
          "indexed": false,
          "internalType": "uint256[]",
          "name": "values",
          "type": "uint256[]"
        },
        {
          "indexed": false,
          "internalType": "string[]",
          "name": "signatures",
          "type": "string[]"
        },
        {
          "indexed": false,
          "internalType": "bytes[]",
          "name": "calldatas",
          "type": "bytes[]"
        },
        {
          "indexed": false,
          "internalType": "uint256",
          "name": "startBlock",
          "type": "uint256"
        },
        {
          "indexed": false,
          "internalType": "uint256",
          "name": "endBlock",
          "type": "uint256"
        },
        {
          "indexed": false,
          "internalType": "string",
          "name": "description",
          "type": "string"
        }
      ],
      "name": "ProposalCreated",
      "type": "event"
    },
    {
      "anonymous": false,
      "inputs": [
        {
          "indexed": false,
          "internalType": "uint256",
          "name": "id",
          "type": "uint256"
        }
      ],
      "name": "ProposalExecuted",
      "type": "event"
    },
    {
      "anonymous": false,
      "inputs": [
        {
          "indexed": false,
          "internalType": "uint256",
          "name": "id",
          "type": "uint256"
        },
        {
          "indexed": false,
          "internalType": "uint256",
          "name": "eta",
          "type": "uint256"
        }
      ],
      "name": "ProposalQueued",
      "type": "event"
    },
    {
      "anonymous": false,
      "inputs": [
        {
          "indexed": false,
          "internalType": "address",
          "name": "voter",
          "type": "address"
        },
        {
          "indexed": false,
          "internalType": "uint256",
          "name": "proposalId",
          "type": "uint256"
        },
        {
          "indexed": false,
          "internalType": "bool",
          "name": "support",
          "type": "bool"
        },
        {
          "indexed": false,
          "internalType": "uint256",
          "name": "votes",
          "type": "uint256"
        }
      ],
      "name": "VoteCast",
      "type": "event"
    },
    {
      "constant": true,
      "inputs": [],
      "name": "BALLOT_TYPEHASH",
      "outputs": [
        {
          "internalType": "bytes32",
          "name": "",
          "type": "bytes32"
        }
      ],
      "payable": false,
      "stateMutability": "view",
      "type": "function"
    },
    {
      "constant": true,
      "inputs": [],
      "name": "DOMAIN_TYPEHASH",
      "outputs": [
        {
          "internalType": "bytes32",
          "name": "",
          "type": "bytes32"
        }
      ],
      "payable": false,
      "stateMutability": "view",
      "type": "function"
    },
    {
      "constant": true,
      "inputs": [],
      "name": "gsigh",
      "outputs": [
        {
          "internalType": "contract GSighInterface",
          "name": "",
          "type": "address"
        }
      ],
      "payable": false,
      "stateMutability": "view",
      "type": "function"
    },
    {
      "constant": true,
      "inputs": [],
      "name": "guardian",
      "outputs": [
        {
          "internalType": "address",
          "name": "",
          "type": "address"
        }
      ],
      "payable": false,
      "stateMutability": "view",
      "type": "function"
    },
    {
      "constant": true,
      "inputs": [
        {
          "internalType": "address",
          "name": "",
          "type": "address"
        }
      ],
      "name": "latestProposalIds",
      "outputs": [
        {
          "internalType": "uint256",
          "name": "",
          "type": "uint256"
        }
      ],
      "payable": false,
      "stateMutability": "view",
      "type": "function"
    },
    {
      "constant": true,
      "inputs": [],
      "name": "name",
      "outputs": [
        {
          "internalType": "string",
          "name": "",
          "type": "string"
        }
      ],
      "payable": false,
      "stateMutability": "view",
      "type": "function"
    },
    {
      "constant": true,
      "inputs": [],
      "name": "proposalCount",
      "outputs": [
        {
          "internalType": "uint256",
          "name": "",
          "type": "uint256"
        }
      ],
      "payable": false,
      "stateMutability": "view",
      "type": "function"
    },
    {
      "constant": true,
      "inputs": [
        {
          "internalType": "uint256",
          "name": "",
          "type": "uint256"
        }
      ],
      "name": "proposals",
      "outputs": [
        {
          "internalType": "uint256",
          "name": "id",
          "type": "uint256"
        },
        {
          "internalType": "address",
          "name": "proposer",
          "type": "address"
        },
        {
          "internalType": "uint256",
          "name": "eta",
          "type": "uint256"
        },
        {
          "internalType": "uint256",
          "name": "startBlock",
          "type": "uint256"
        },
        {
          "internalType": "uint256",
          "name": "endBlock",
          "type": "uint256"
        },
        {
          "internalType": "uint256",
          "name": "forVotes",
          "type": "uint256"
        },
        {
          "internalType": "uint256",
          "name": "againstVotes",
          "type": "uint256"
        },
        {
          "internalType": "bool",
          "name": "canceled",
          "type": "bool"
        },
        {
          "internalType": "bool",
          "name": "executed",
          "type": "bool"
        }
      ],
      "payable": false,
      "stateMutability": "view",
      "type": "function"
    },
    {
      "constant": true,
      "inputs": [],
      "name": "timelock",
      "outputs": [
        {
          "internalType": "contract TimelockInterface",
          "name": "",
          "type": "address"
        }
      ],
      "payable": false,
      "stateMutability": "view",
      "type": "function"
    },
    {
      "constant": true,
      "inputs": [],
      "name": "quorumVotes",
      "outputs": [
        {
          "internalType": "uint256",
          "name": "",
          "type": "uint256"
        }
      ],
      "payable": false,
      "stateMutability": "pure",
      "type": "function"
    },
    {
      "constant": true,
      "inputs": [],
      "name": "proposalThreshold",
      "outputs": [
        {
          "internalType": "uint256",
          "name": "",
          "type": "uint256"
        }
      ],
      "payable": false,
      "stateMutability": "pure",
      "type": "function"
    },
    {
      "constant": true,
      "inputs": [],
      "name": "proposalMaxOperations",
      "outputs": [
        {
          "internalType": "uint256",
          "name": "",
          "type": "uint256"
        }
      ],
      "payable": false,
      "stateMutability": "pure",
      "type": "function"
    },
    {
      "constant": true,
      "inputs": [],
      "name": "votingDelay",
      "outputs": [
        {
          "internalType": "uint256",
          "name": "",
          "type": "uint256"
        }
      ],
      "payable": false,
      "stateMutability": "pure",
      "type": "function"
    },
    {
      "constant": true,
      "inputs": [],
      "name": "votingPeriod",
      "outputs": [
        {
          "internalType": "uint256",
          "name": "",
          "type": "uint256"
        }
      ],
      "payable": false,
      "stateMutability": "pure",
      "type": "function"
    },
    {
      "constant": false,
      "inputs": [
        {
          "internalType": "address[]",
          "name": "targets",
          "type": "address[]"
        },
        {
          "internalType": "uint256[]",
          "name": "values",
          "type": "uint256[]"
        },
        {
          "internalType": "string[]",
          "name": "signatures",
          "type": "string[]"
        },
        {
          "internalType": "bytes[]",
          "name": "calldatas",
          "type": "bytes[]"
        },
        {
          "internalType": "string",
          "name": "description",
          "type": "string"
        }
      ],
      "name": "propose",
      "outputs": [
        {
          "internalType": "uint256",
          "name": "",
          "type": "uint256"
        }
      ],
      "payable": false,
      "stateMutability": "nonpayable",
      "type": "function"
    },
    {
      "constant": false,
      "inputs": [
        {
          "internalType": "uint256",
          "name": "proposalId",
          "type": "uint256"
        }
      ],
      "name": "queue",
      "outputs": [],
      "payable": false,
      "stateMutability": "nonpayable",
      "type": "function"
    },
    {
      "constant": false,
      "inputs": [
        {
          "internalType": "uint256",
          "name": "proposalId",
          "type": "uint256"
        }
      ],
      "name": "execute",
      "outputs": [],
      "payable": true,
      "stateMutability": "payable",
      "type": "function"
    },
    {
      "constant": false,
      "inputs": [
        {
          "internalType": "uint256",
          "name": "proposalId",
          "type": "uint256"
        }
      ],
      "name": "cancel",
      "outputs": [],
      "payable": false,
      "stateMutability": "nonpayable",
      "type": "function"
    },
    {
      "constant": true,
      "inputs": [
        {
          "internalType": "uint256",
          "name": "proposalId",
          "type": "uint256"
        }
      ],
      "name": "getActions",
      "outputs": [
        {
          "internalType": "address[]",
          "name": "targets",
          "type": "address[]"
        },
        {
          "internalType": "uint256[]",
          "name": "values",
          "type": "uint256[]"
        },
        {
          "internalType": "string[]",
          "name": "signatures",
          "type": "string[]"
        },
        {
          "internalType": "bytes[]",
          "name": "calldatas",
          "type": "bytes[]"
        }
      ],
      "payable": false,
      "stateMutability": "view",
      "type": "function"
    },
    {
      "constant": true,
      "inputs": [
        {
          "internalType": "uint256",
          "name": "proposalId",
          "type": "uint256"
        },
        {
          "internalType": "address",
          "name": "voter",
          "type": "address"
        }
      ],
      "name": "getReceipt",
      "outputs": [
        {
          "components": [
            {
              "internalType": "bool",
              "name": "hasVoted",
              "type": "bool"
            },
            {
              "internalType": "bool",
              "name": "support",
              "type": "bool"
            },
            {
              "internalType": "uint96",
              "name": "votes",
              "type": "uint96"
            }
          ],
          "internalType": "struct GovernorAlpha.Receipt",
          "name": "",
          "type": "tuple"
        }
      ],
      "payable": false,
      "stateMutability": "view",
      "type": "function"
    },
    {
      "constant": true,
      "inputs": [
        {
          "internalType": "uint256",
          "name": "proposalId",
          "type": "uint256"
        }
      ],
      "name": "state",
      "outputs": [
        {
          "internalType": "enum GovernorAlpha.ProposalState",
          "name": "",
          "type": "uint8"
        }
      ],
      "payable": false,
      "stateMutability": "view",
      "type": "function"
    },
    {
      "constant": false,
      "inputs": [
        {
          "internalType": "uint256",
          "name": "proposalId",
          "type": "uint256"
        },
        {
          "internalType": "bool",
          "name": "support",
          "type": "bool"
        }
      ],
      "name": "castVote",
      "outputs": [],
      "payable": false,
      "stateMutability": "nonpayable",
      "type": "function"
    },
    {
      "constant": false,
      "inputs": [
        {
          "internalType": "uint256",
          "name": "proposalId",
          "type": "uint256"
        },
        {
          "internalType": "bool",
          "name": "support",
          "type": "bool"
        },
        {
          "internalType": "uint8",
          "name": "v",
          "type": "uint8"
        },
        {
          "internalType": "bytes32",
          "name": "r",
          "type": "bytes32"
        },
        {
          "internalType": "bytes32",
          "name": "s",
          "type": "bytes32"
        }
      ],
      "name": "castVoteBySig",
      "outputs": [],
      "payable": false,
      "stateMutability": "nonpayable",
      "type": "function"
    },
    {
      "constant": false,
      "inputs": [],
      "name": "__acceptAdmin",
      "outputs": [],
      "payable": false,
      "stateMutability": "nonpayable",
      "type": "function"
    },
    {
      "constant": false,
      "inputs": [],
      "name": "__abdicate",
      "outputs": [],
      "payable": false,
      "stateMutability": "nonpayable",
      "type": "function"
    },
    {
      "constant": false,
      "inputs": [
        {
          "internalType": "address",
          "name": "newPendingAdmin",
          "type": "address"
        },
        {
          "internalType": "uint256",
          "name": "eta",
          "type": "uint256"
        }
      ],
      "name": "__queueSetTimelockPendingAdmin",
      "outputs": [],
      "payable": false,
      "stateMutability": "nonpayable",
      "type": "function"
    },
    {
      "constant": false,
      "inputs": [
        {
          "internalType": "address",
          "name": "newPendingAdmin",
          "type": "address"
        },
        {
          "internalType": "uint256",
          "name": "eta",
          "type": "uint256"
        }
      ],
      "name": "__executeSetTimelockPendingAdmin",
      "outputs": [],
      "payable": false,
      "stateMutability": "nonpayable",
      "type": "function"
    }
  ],
  "bytecode": "0x60806040523480156200001157600080fd5b506040516200391c3803806200391c83398101604081905262000034916200008a565b600080546001600160a01b039485166001600160a01b0319918216179091556001805493851693821693909317909255600280549190931691161790556200010a565b80516200008481620000f0565b92915050565b600080600060608486031215620000a057600080fd5b6000620000ae868662000077565b9350506020620000c18682870162000077565b9250506040620000d48682870162000077565b9150509250925092565b60006001600160a01b03821662000084565b620000fb81620000de565b81146200010757600080fd5b50565b613802806200011a6000396000f3fe60806040526004361061019c5760003560e01c80634634c61f116100ec578063d33219b41161008a578063ddf0b00911610064578063ddf0b00914610463578063deaaa7cc14610483578063e23a9a5214610498578063fe0d94c1146104c55761019c565b8063d33219b414610419578063da35c6641461042e578063da95691a146104435761019c565b806391500671116100c657806391500671146103ad578063a974d651146103cd578063b58131b0146103ef578063b9a61961146104045761019c565b80634634c61f14610363578063760fbc13146103835780637bdbe4d0146103985761019c565b806321f43e42116101595780633932abb1116101335780633932abb1146102df5780633e4f49e6146102f457806340e58ee514610321578063452a9320146103415761019c565b806321f43e421461027a57806324bc1a641461029a578063328dd982146102af5761019c565b8063013cf08b146101a157806302a251a3146101df57806306fdde031461020157806315373e3d1461022357806317977c611461024557806320606b7014610265575b600080fd5b3480156101ad57600080fd5b506101c16101bc366004612455565b6104d8565b6040516101d6999897969594939291906135ad565b60405180910390f35b3480156101eb57600080fd5b506101f4610531565b6040516101d691906132da565b34801561020d57600080fd5b50610216610538565b6040516101d69190613396565b34801561022f57600080fd5b5061024361023e3660046124a3565b610571565b005b34801561025157600080fd5b506101f4610260366004612298565b610580565b34801561027157600080fd5b506101f4610592565b34801561028657600080fd5b506102436102953660046122be565b6105a9565b3480156102a657600080fd5b506101f4610690565b3480156102bb57600080fd5b506102cf6102ca366004612455565b61069e565b6040516101d6949392919061328d565b3480156102eb57600080fd5b506101f461092d565b34801561030057600080fd5b5061031461030f366004612455565b610932565b6040516101d69190613388565b34801561032d57600080fd5b5061024361033c366004612455565b610ab4565b34801561034d57600080fd5b50610356610d1d565b6040516101d69190613137565b34801561036f57600080fd5b5061024361037e3660046124d3565b610d2c565b34801561038f57600080fd5b50610243610ec9565b3480156103a457600080fd5b506101f4610f05565b3480156103b957600080fd5b506102436103c83660046122be565b610f0a565b3480156103d957600080fd5b506103e2610fdf565b6040516101d6919061337a565b3480156103fb57600080fd5b506101f4610fee565b34801561041057600080fd5b50610243610ffc565b34801561042557600080fd5b506103e2611081565b34801561043a57600080fd5b506101f4611090565b34801561044f57600080fd5b506101f461045e3660046122f8565b611096565b34801561046f57600080fd5b5061024361047e366004612455565b6114b8565b34801561048f57600080fd5b506101f4611722565b3480156104a457600080fd5b506104b86104b3366004612473565b61172e565b6040516101d691906134f7565b6102436104d3366004612455565b61179d565b6004602052600090815260409020805460018201546002830154600784015460088501546009860154600a870154600b9097015495966001600160a01b0390951695939492939192909160ff8082169161010090041689565b6143805b90565b6040518060400160405280601b81526020017f536967682046696e616e636520476f7665726e6f7220416c706861000000000081525081565b61057c338383611962565b5050565b60056020526000908152604090205481565b60405161059e90613121565b604051809103902081565b6002546001600160a01b031633146105dc5760405162461bcd60e51b81526004016105d3906133d7565b60405180910390fd5b600080546040516001600160a01b0390911691630825f38f91839190610606908790602001613137565b604051602081830303815290604052856040518563ffffffff1660e01b81526004016106359493929190613160565b600060405180830381600087803b15801561064f57600080fd5b505af1158015610663573d6000803e3d6000fd5b505050506040513d6000823e601f3d908101601f1916820160405261068b9190810190612420565b505050565b6954b40b1f852bda00000090565b6060806060806000600460008781526020019081526020016000209050806003018160040182600501836006018380548060200260200160405190810160405280929190818152602001828054801561072057602002820191906000526020600020905b81546001600160a01b03168152600190910190602001808311610702575b505050505093508280548060200260200160405190810160405280929190818152602001828054801561077257602002820191906000526020600020905b81548152602001906001019080831161075e575b5050505050925081805480602002602001604051908101604052809291908181526020016000905b828210156108455760008481526020908190208301805460408051601f60026000196101006001871615020190941693909304928301859004850281018501909152818152928301828280156108315780601f1061080657610100808354040283529160200191610831565b820191906000526020600020905b81548152906001019060200180831161081457829003601f168201915b50505050508152602001906001019061079a565b50505050915080805480602002602001604051908101604052809291908181526020016000905b828210156109175760008481526020908190208301805460408051601f60026000196101006001871615020190941693909304928301859004850281018501909152818152928301828280156109035780601f106108d857610100808354040283529160200191610903565b820191906000526020600020905b8154815290600101906020018083116108e657829003601f168201915b50505050508152602001906001019061086c565b5050505090509450945094509450509193509193565b600190565b600081600354101580156109465750600082115b6109625760405162461bcd60e51b81526004016105d3906133e7565b6000828152600460205260409020600b81015460ff1615610987576002915050610aaf565b8060070154431161099c576000915050610aaf565b806008015443116109b1576001915050610aaf565b80600a015481600901541115806109d257506109cb610690565b8160090154105b156109e1576003915050610aaf565b60028101546109f4576004915050610aaf565b600b810154610100900460ff1615610a10576007915050610aaf565b6002810154600054604080516360d143f160e11b81529051610a9993926001600160a01b03169163c1a287e2916004808301926020929190829003018186803b158015610a5c57600080fd5b505afa158015610a70573d6000803e3d6000fd5b505050506040513d601f19601f82011682018060405250610a949190810190612402565b611b2b565b4210610aa9576006915050610aaf565b60059150505b919050565b6000610abf82610932565b90506007816007811115610acf57fe5b1415610aed5760405162461bcd60e51b81526004016105d3906134b7565b60008281526004602052604090206002546001600160a01b0316331480610bb85750610b17610fee565b60018054838201546001600160a01b039182169263782d6fe19290911690610b40904390611b57565b6040518363ffffffff1660e01b8152600401610b5d9291906131af565b60206040518083038186803b158015610b7557600080fd5b505afa158015610b89573d6000803e3d6000fd5b505050506040513d601f19601f82011682018060405250610bad919081019061253b565b6001600160601b0316105b610bd45760405162461bcd60e51b81526004016105d390613447565b600b8101805460ff1916600117905560005b6003820154811015610ce0576000546003830180546001600160a01b039092169163591fcdfe919084908110610c1857fe5b6000918252602090912001546004850180546001600160a01b039092169185908110610c4057fe5b9060005260206000200154856005018581548110610c5a57fe5b90600052602060002001866006018681548110610c7357fe5b9060005260206000200187600201546040518663ffffffff1660e01b8152600401610ca295949392919061324c565b600060405180830381600087803b158015610cbc57600080fd5b505af1158015610cd0573d6000803e3d6000fd5b505060019092019150610be69050565b507f789cf55be980739dad1d0699b93b58e806b51c9d96619bfa8fe0a28abaa7b30c83604051610d1091906132da565b60405180910390a1505050565b6002546001600160a01b031681565b6000604051610d3a90613121565b60408051918290038220828201909152601b82527f536967682046696e616e636520476f7665726e6f7220416c70686100000000006020909201919091527f1786ac90b7abac5f745260dd21b3d04ba1ce039abd2d08af821b9bc19cf84462610da1611b7f565b30604051602001610db594939291906132e8565b6040516020818303038152906040528051906020012090506000604051610ddb9061312c565b604051908190038120610df4918990899060200161331d565b60405160208183030381529060405280519060200120905060008282604051602001610e219291906130f0565b604051602081830303815290604052805190602001209050600060018288888860405160008152602001604052604051610e5e9493929190613345565b6020604051602081039080840390855afa158015610e80573d6000803e3d6000fd5b5050604051601f1901519150506001600160a01b038116610eb35760405162461bcd60e51b81526004016105d390613487565b610ebe818a8a611962565b505050505050505050565b6002546001600160a01b03163314610ef35760405162461bcd60e51b81526004016105d3906134e7565b600280546001600160a01b0319169055565b600a90565b6002546001600160a01b03163314610f345760405162461bcd60e51b81526004016105d390613417565b600080546040516001600160a01b0390911691633a66f90191839190610f5e908790602001613137565b604051602081830303815290604052856040518563ffffffff1660e01b8152600401610f8d9493929190613160565b602060405180830381600087803b158015610fa757600080fd5b505af1158015610fbb573d6000803e3d6000fd5b505050506040513d601f19601f8201168201806040525061068b9190810190612402565b6001546001600160a01b031681565b69152d02c7e14af680000090565b6002546001600160a01b031633146110265760405162461bcd60e51b81526004016105d3906133a7565b6000805460408051630e18b68160e01b815290516001600160a01b0390921692630e18b6819260048084019382900301818387803b15801561106757600080fd5b505af115801561107b573d6000803e3d6000fd5b50505050565b6000546001600160a01b031681565b60035481565b60006110a0610fee565b600180546001600160a01b03169063782d6fe19033906110c1904390611b57565b6040518363ffffffff1660e01b81526004016110de929190613145565b60206040518083038186803b1580156110f657600080fd5b505afa15801561110a573d6000803e3d6000fd5b505050506040513d601f19601f8201168201806040525061112e919081019061253b565b6001600160601b0316116111545760405162461bcd60e51b81526004016105d390613477565b84518651148015611166575083518651145b8015611173575082518651145b61118f5760405162461bcd60e51b81526004016105d390613497565b85516111ad5760405162461bcd60e51b81526004016105d390613467565b6111b5610f05565b865111156111d55760405162461bcd60e51b81526004016105d390613427565b3360009081526005602052604090205480156112525760006111f682610932565b9050600181600781111561120657fe5b14156112245760405162461bcd60e51b81526004016105d3906134a7565b600081600781111561123257fe5b14156112505760405162461bcd60e51b81526004016105d390613407565b505b600061126043610a9461092d565b9050600061127082610a94610531565b6003805460010190559050611283611ce2565b604051806101a001604052806003548152602001336001600160a01b03168152602001600081526020018b81526020018a815260200189815260200188815260200184815260200183815260200160008152602001600081526020016000151581526020016000151581525090508060046000836000015181526020019081526020016000206000820151816000015560208201518160010160006101000a8154816001600160a01b0302191690836001600160a01b03160217905550604082015181600201556060820151816003019080519060200190611366929190611d57565b5060808201518051611382916004840191602090910190611dbc565b5060a0820151805161139e916005840191602090910190611e03565b5060c082015180516113ba916006840191602090910190611e5c565b5060e082015181600701556101008201518160080155610120820151816009015561014082015181600a015561016082015181600b0160006101000a81548160ff02191690831515021790555061018082015181600b0160016101000a81548160ff02191690831515021790555090505080600001516005600083602001516001600160a01b03166001600160a01b03168152602001908152602001600020819055507f7d84a6263ae0d98d3329bd7b46bb4e8d6f98cd35a7adb45c274c8b7fd5ebd5e08160000151338c8c8c8c89898e6040516114a099989796959493929190613505565b60405180910390a15193505050505b95945050505050565b60046114c382610932565b60078111156114ce57fe5b146114eb5760405162461bcd60e51b81526004016105d3906133b7565b600081815260046020818152604080842084548251630d48571f60e31b815292519195946115409442946001600160a01b0390931693636a42b8f8938084019390829003018186803b158015610a5c57600080fd5b905060005b60038301548110156116e8576116e083600301828154811061156357fe5b6000918252602090912001546004850180546001600160a01b03909216918490811061158b57fe5b90600052602060002001548560050184815481106115a557fe5b600091825260209182902001805460408051601f60026000196101006001871615020190941693909304928301859004850281018501909152818152928301828280156116335780601f1061160857610100808354040283529160200191611633565b820191906000526020600020905b81548152906001019060200180831161161657829003601f168201915b505050505086600601858154811061164757fe5b600091825260209182902001805460408051601f60026000196101006001871615020190941693909304928301859004850281018501909152818152928301828280156116d55780601f106116aa576101008083540402835291602001916116d5565b820191906000526020600020905b8154815290600101906020018083116116b857829003601f168201915b505050505086611b83565b600101611545565b50600282018190556040517f9a2e42fd6722813d69113e7d0079d3d940171428df7373df9c7f7617cfda289290610d109085908490613633565b60405161059e9061312c565b611736611eb5565b5060008281526004602090815260408083206001600160a01b0385168452600c018252918290208251606081018452905460ff80821615158352610100820416151592820192909252620100009091046001600160601b0316918101919091525b92915050565b60056117a882610932565b60078111156117b357fe5b146117d05760405162461bcd60e51b81526004016105d3906133c7565b6000818152600460205260408120600b8101805461ff001916610100179055905b6003820154811015611926576000546004830180546001600160a01b0390921691630825f38f91908490811061182357fe5b906000526020600020015484600301848154811061183d57fe5b6000918252602090912001546004860180546001600160a01b03909216918690811061186557fe5b906000526020600020015486600501868154811061187f57fe5b9060005260206000200187600601878154811061189857fe5b9060005260206000200188600201546040518763ffffffff1660e01b81526004016118c795949392919061324c565b6000604051808303818588803b1580156118e057600080fd5b505af11580156118f4573d6000803e3d6000fd5b50505050506040513d6000823e601f3d908101601f1916820160405261191d9190810190612420565b506001016117f1565b507f712ae1383f79ac853f8d882153778e0260ef8f03b504e2866e0593e04d2b291f8260405161195691906132da565b60405180910390a15050565b600161196d83610932565b600781111561197857fe5b146119955760405162461bcd60e51b81526004016105d3906134c7565b60008281526004602090815260408083206001600160a01b0387168452600c8101909252909120805460ff16156119de5760405162461bcd60e51b81526004016105d3906133f7565b600154600783015460405163782d6fe160e01b81526000926001600160a01b03169163782d6fe191611a14918a916004016131af565b60206040518083038186803b158015611a2c57600080fd5b505afa158015611a40573d6000803e3d6000fd5b505050506040513d601f19601f82011682018060405250611a64919081019061253b565b90508315611a8d57611a838360090154826001600160601b0316611b2b565b6009840155611aaa565b611aa483600a0154826001600160601b0316611b2b565b600a8401555b8154600160ff199091161761ff00191661010085151502176dffffffffffffffffffffffff00001916620100006001600160601b038316021782556040517f877856338e13f63d0c36822ff0ef736b80934cd90574a3a5bc9262c39d217c4690611b1b9088908890889086906131bd565b60405180910390a1505050505050565b600082820183811015611b505760405162461bcd60e51b81526004016105d390613437565b9392505050565b600082821115611b795760405162461bcd60e51b81526004016105d3906134d7565b50900390565b4690565b6000546040516001600160a01b039091169063f2b0653790611bb190889088908890889088906020016131f2565b604051602081830303815290604052805190602001206040518263ffffffff1660e01b8152600401611be391906132da565b60206040518083038186803b158015611bfb57600080fd5b505afa158015611c0f573d6000803e3d6000fd5b505050506040513d601f19601f82011682018060405250611c3391908101906123e4565b15611c505760405162461bcd60e51b81526004016105d390613457565b600054604051633a66f90160e01b81526001600160a01b0390911690633a66f90190611c8890889088908890889088906004016131f2565b602060405180830381600087803b158015611ca257600080fd5b505af1158015611cb6573d6000803e3d6000fd5b505050506040513d601f19601f82011682018060405250611cda9190810190612402565b505050505050565b604051806101a001604052806000815260200160006001600160a01b031681526020016000815260200160608152602001606081526020016060815260200160608152602001600081526020016000815260200160008152602001600081526020016000151581526020016000151581525090565b828054828255906000526020600020908101928215611dac579160200282015b82811115611dac57825182546001600160a01b0319166001600160a01b03909116178255602090920191600190910190611d77565b50611db8929150611ed5565b5090565b828054828255906000526020600020908101928215611df7579160200282015b82811115611df7578251825591602001919060010190611ddc565b50611db8929150611ef9565b828054828255906000526020600020908101928215611e50579160200282015b82811115611e505782518051611e40918491602090910190611f13565b5091602001919060010190611e23565b50611db8929150611f80565b828054828255906000526020600020908101928215611ea9579160200282015b82811115611ea95782518051611e99918491602090910190611f13565b5091602001919060010190611e7c565b50611db8929150611fa3565b604080516060810182526000808252602082018190529181019190915290565b61053591905b80821115611db85780546001600160a01b0319168155600101611edb565b61053591905b80821115611db85760008155600101611eff565b828054600181600116156101000203166002900490600052602060002090601f016020900481019282601f10611f5457805160ff1916838001178555611df7565b82800160010185558215611df75791820182811115611df7578251825591602001919060010190611ddc565b61053591905b80821115611db8576000611f9a8282611fc6565b50600101611f86565b61053591905b80821115611db8576000611fbd8282611fc6565b50600101611fa9565b50805460018160011615610100020316600290046000825580601f10611fec575061200a565b601f01602090049060005260206000209081019061200a9190611ef9565b50565b803561179781613787565b600082601f83011261202957600080fd5b813561203c61203782613668565b613641565b9150818183526020840193506020810190508385602084028201111561206157600080fd5b60005b8381101561208d5781612077888261200d565b8452506020928301929190910190600101612064565b5050505092915050565b600082601f8301126120a857600080fd5b81356120b661203782613668565b81815260209384019390925082018360005b8381101561208d57813586016120de88826121ed565b84525060209283019291909101906001016120c8565b600082601f83011261210557600080fd5b813561211361203782613668565b81815260209384019390925082018360005b8381101561208d578135860161213b88826121ed565b8452506020928301929190910190600101612125565b600082601f83011261216257600080fd5b813561217061203782613668565b9150818183526020840193506020810190508385602084028201111561219557600080fd5b60005b8381101561208d57816121ab88826121d7565b8452506020928301929190910190600101612198565b80356117978161379b565b80516117978161379b565b8035611797816137a4565b8051611797816137a4565b600082601f8301126121fe57600080fd5b813561220c61203782613689565b9150808252602083016020830185838301111561222857600080fd5b61223383828461373b565b50505092915050565b600082601f83011261224d57600080fd5b815161225b61203782613689565b9150808252602083016020830185838301111561227757600080fd5b612233838284613747565b8035611797816137ad565b8051611797816137b6565b6000602082840312156122aa57600080fd5b60006122b6848461200d565b949350505050565b600080604083850312156122d157600080fd5b60006122dd858561200d565b92505060206122ee858286016121d7565b9150509250929050565b600080600080600060a0868803121561231057600080fd5b853567ffffffffffffffff81111561232757600080fd5b61233388828901612018565b955050602086013567ffffffffffffffff81111561235057600080fd5b61235c88828901612151565b945050604086013567ffffffffffffffff81111561237957600080fd5b612385888289016120f4565b935050606086013567ffffffffffffffff8111156123a257600080fd5b6123ae88828901612097565b925050608086013567ffffffffffffffff8111156123cb57600080fd5b6123d7888289016121ed565b9150509295509295909350565b6000602082840312156123f657600080fd5b60006122b684846121cc565b60006020828403121561241457600080fd5b60006122b684846121e2565b60006020828403121561243257600080fd5b815167ffffffffffffffff81111561244957600080fd5b6122b68482850161223c565b60006020828403121561246757600080fd5b60006122b684846121d7565b6000806040838503121561248657600080fd5b600061249285856121d7565b92505060206122ee8582860161200d565b600080604083850312156124b657600080fd5b60006124c285856121d7565b92505060206122ee858286016121c1565b600080600080600060a086880312156124eb57600080fd5b60006124f788886121d7565b9550506020612508888289016121c1565b945050604061251988828901612282565b935050606061252a888289016121d7565b92505060806123d7888289016121d7565b60006020828403121561254d57600080fd5b60006122b6848461228d565b60006125658383612594565b505060200190565b6000611b508383612736565b6000612565838361271c565b61258e81613708565b82525050565b61258e816136d0565b60006125a8826136c3565b6125b281856136c7565b93506125bd836136b1565b8060005b838110156125eb5781516125d58882612559565b97506125e0836136b1565b9250506001016125c1565b509495945050505050565b6000612601826136c3565b61260b81856136c7565b93508360208202850161261d856136b1565b8060005b85811015612657578484038952815161263a858261256d565b9450612645836136b1565b60209a909a0199925050600101612621565b5091979650505050505050565b600061266f826136c3565b61267981856136c7565b93508360208202850161268b856136b1565b8060005b8581101561265757848403895281516126a8858261256d565b94506126b3836136b1565b60209a909a019992505060010161268f565b60006126d0826136c3565b6126da81856136c7565b93506126e5836136b1565b8060005b838110156125eb5781516126fd8882612579565b9750612708836136b1565b9250506001016126e9565b61258e816136db565b61258e81610535565b61258e61273182610535565b610535565b6000612741826136c3565b61274b81856136c7565b935061275b818560208601613747565b61276481613773565b9093019392505050565b60008154600181166000811461278b57600181146127b1576127f0565b607f600283041661279c81876136c7565b60ff19841681529550506020850192506127f0565b600282046127bf81876136c7565b95506127ca856136b7565b60005b828110156127e9578154888201526001909101906020016127cd565b8701945050505b505092915050565b61258e8161370f565b61258e8161371a565b61258e81613725565b60006128206039836136c7565b7f476f7665726e6f72416c7068613a3a5f5f61636365707441646d696e3a20736581527f6e646572206d75737420626520676f7620677561726469616e00000000000000602082015260400192915050565b600061287f6044836136c7565b7f476f7665726e6f72416c7068613a3a71756575653a2070726f706f73616c206381527f616e206f6e6c79206265207175657565642069662069742069732073756363656020820152631959195960e21b604082015260600192915050565b60006128eb6045836136c7565b7f476f7665726e6f72416c7068613a3a657865637574653a2070726f706f73616c81527f2063616e206f6e6c7920626520657865637574656420696620697420697320716020820152641d595d595960da1b604082015260600192915050565b6000612958600283610aaf565b61190160f01b815260020192915050565b6000612976604c836136c7565b7f476f7665726e6f72416c7068613a3a5f5f6578656375746553657454696d656c81527f6f636b50656e64696e6741646d696e3a2073656e646572206d7573742062652060208201526b33b7bb1033bab0b93234b0b760a11b604082015260600192915050565b60006129ea6018836136c7565b7f73657450656e64696e6741646d696e2861646472657373290000000000000000815260200192915050565b6000612a236029836136c7565b7f476f7665726e6f72416c7068613a3a73746174653a20696e76616c69642070728152681bdc1bdcd85b081a5960ba1b602082015260400192915050565b6000612a6e602d836136c7565b7f476f7665726e6f72416c7068613a3a5f63617374566f74653a20766f7465722081526c185b1c9958591e481d9bdd1959609a1b602082015260400192915050565b6000612abd6059836136c7565b7f476f7665726e6f72416c7068613a3a70726f706f73653a206f6e65206c69766581527f2070726f706f73616c207065722070726f706f7365722c20666f756e6420616e60208201527f20616c72656164792070656e64696e672070726f706f73616c00000000000000604082015260600192915050565b6000612b42604a836136c7565b7f476f7665726e6f72416c7068613a3a5f5f717565756553657454696d656c6f6381527f6b50656e64696e6741646d696e3a2073656e646572206d75737420626520676f6020820152693b1033bab0b93234b0b760b11b604082015260600192915050565b6000612bb46028836136c7565b7f476f7665726e6f72416c7068613a3a70726f706f73653a20746f6f206d616e7981526720616374696f6e7360c01b602082015260400192915050565b6000612bfe6011836136c7565b706164646974696f6e206f766572666c6f7760781b815260200192915050565b6000612c2b604383610aaf565b7f454950373132446f6d61696e28737472696e67206e616d652c75696e7432353681527f20636861696e49642c6164647265737320766572696679696e67436f6e74726160208201526263742960e81b604082015260430192915050565b6000612c96602783610aaf565b7f42616c6c6f742875696e743235362070726f706f73616c49642c626f6f6c20738152667570706f72742960c81b602082015260270192915050565b6000612cdf602f836136c7565b7f476f7665726e6f72416c7068613a3a63616e63656c3a2070726f706f7365722081526e18589bdd99481d1a1c995cda1bdb19608a1b602082015260400192915050565b6000612d306044836136c7565b7f476f7665726e6f72416c7068613a3a5f71756575654f725265766572743a207081527f726f706f73616c20616374696f6e20616c7265616479207175657565642061746020820152632065746160e01b604082015260600192915050565b6000612d9c602c836136c7565b7f476f7665726e6f72416c7068613a3a70726f706f73653a206d7573742070726f81526b7669646520616374696f6e7360a01b602082015260400192915050565b6000612dea603f836136c7565b7f476f7665726e6f72416c7068613a3a70726f706f73653a2070726f706f73657281527f20766f7465732062656c6f772070726f706f73616c207468726573686f6c6400602082015260400192915050565b6000612e49602f836136c7565b7f476f7665726e6f72416c7068613a3a63617374566f746542795369673a20696e81526e76616c6964207369676e617475726560881b602082015260400192915050565b6000612e9a603e836136c7565b7f476f7665726e6f72416c7068613a3a70726f706f73653a2070726f706f73616c81527f2066756e6374696f6e20696e666f726d6174696f6e206d69736d617463680000602082015260400192915050565b6000612ef96058836136c7565b7f476f7665726e6f72416c7068613a3a70726f706f73653a206f6e65206c69766581527f2070726f706f73616c207065722070726f706f7365722c20666f756e6420616e60208201527f20616c7265616479206163746976652070726f706f73616c0000000000000000604082015260600192915050565b6000612f7e6036836136c7565b7f476f7665726e6f72416c7068613a3a63616e63656c3a2063616e6e6f742063618152751b98d95b08195e1958dd5d1959081c1c9bdc1bdcd85b60521b602082015260400192915050565b6000612fd6602a836136c7565b7f476f7665726e6f72416c7068613a3a5f63617374566f74653a20766f74696e67815269081a5cc818db1bdcd95960b21b602082015260400192915050565b60006130226015836136c7565b747375627472616374696f6e20756e646572666c6f7760581b815260200192915050565b60006130536036836136c7565b7f476f7665726e6f72416c7068613a3a5f5f61626469636174653a2073656e6465815275391036bab9ba1031329033b7bb1033bab0b93234b0b760511b602082015260400192915050565b805160608301906130af8482612713565b5060208201516130c26020850182612713565b50604082015161107b60408501826130e7565b61258e816136f6565b61258e81613730565b61258e816136fc565b60006130fb8261294b565b91506131078285612725565b6020820191506131178284612725565b5060200192915050565b600061179782612c1e565b600061179782612c89565b602081016117978284612594565b604081016131538285612585565b611b50602083018461271c565b60a0810161316e8287612594565b61317b602083018661280a565b818103604083015261318c816129dd565b905081810360608301526131a08185612736565b90506114af608083018461271c565b604081016131538285612594565b608081016131cb8287612594565b6131d8602083018661271c565b6131e56040830185612713565b6114af60608301846130de565b60a081016132008288612594565b61320d602083018761271c565b818103604083015261321f8186612736565b905081810360608301526132338185612736565b9050613242608083018461271c565b9695505050505050565b60a0810161325a8288612594565b613267602083018761271c565b8181036040830152613279818661276e565b90508181036060830152613233818561276e565b6080808252810161329e818761259d565b905081810360208301526132b281866126c5565b905081810360408301526132c68185612664565b9050818103606083015261324281846125f6565b60208101611797828461271c565b608081016132f6828761271c565b613303602083018661271c565b613310604083018561271c565b6114af6060830184612594565b6060810161332b828661271c565b613338602083018561271c565b6122b66040830184612713565b60808101613353828761271c565b61336060208301866130d5565b61336d604083018561271c565b6114af606083018461271c565b6020810161179782846127f8565b602081016117978284612801565b60208082528101611b508184612736565b6020808252810161179781612813565b6020808252810161179781612872565b60208082528101611797816128de565b6020808252810161179781612969565b6020808252810161179781612a16565b6020808252810161179781612a61565b6020808252810161179781612ab0565b6020808252810161179781612b35565b6020808252810161179781612ba7565b6020808252810161179781612bf1565b6020808252810161179781612cd2565b6020808252810161179781612d23565b6020808252810161179781612d8f565b6020808252810161179781612ddd565b6020808252810161179781612e3c565b6020808252810161179781612e8d565b6020808252810161179781612eec565b6020808252810161179781612f71565b6020808252810161179781612fc9565b6020808252810161179781613015565b6020808252810161179781613046565b60608101611797828461309e565b6101208101613514828c61271c565b613521602083018b612585565b8181036040830152613533818a61259d565b9050818103606083015261354781896126c5565b9050818103608083015261355b8188612664565b905081810360a083015261356f81876125f6565b905061357e60c083018661271c565b61358b60e083018561271c565b81810361010083015261359e8184612736565b9b9a5050505050505050505050565b61012081016135bc828c61271c565b6135c9602083018b612594565b6135d6604083018a61271c565b6135e3606083018961271c565b6135f0608083018861271c565b6135fd60a083018761271c565b61360a60c083018661271c565b61361760e0830185612713565b613625610100830184612713565b9a9950505050505050505050565b60408101613153828561271c565b60405181810167ffffffffffffffff8111828210171561366057600080fd5b604052919050565b600067ffffffffffffffff82111561367f57600080fd5b5060209081020190565b600067ffffffffffffffff8211156136a057600080fd5b506020601f91909101601f19160190565b60200190565b60009081526020902090565b5190565b90815260200190565b6000611797826136ea565b151590565b80610aaf8161377d565b6001600160a01b031690565b60ff1690565b6001600160601b031690565b6000611797825b6000611797826136d0565b6000611797826136e0565b600061179782610535565b6000611797826136fc565b82818337506000910152565b60005b8381101561376257818101518382015260200161374a565b8381111561107b5750506000910152565b601f01601f191690565b6008811061200a57fe5b613790816136d0565b811461200a57600080fd5b613790816136db565b61379081610535565b613790816136f6565b613790816136fc56fea365627a7a7231582092d05857e3b88d016d31cbe3f1086c56669536c505b475c788fabfb590ede3b06c6578706572696d656e74616cf564736f6c63430005100040",
  "source": "pragma solidity ^0.5.16;\npragma experimental ABIEncoderV2;\n\ninterface TimelockInterface {\n    function delay() external view returns (uint);\n    function GRACE_PERIOD() external view returns (uint);\n    function acceptAdmin() external;\n    function queuedTransactions(bytes32 hash) external view returns (bool);\n    function queueTransaction(address target, uint value, string calldata signature, bytes calldata data, uint eta) external returns (bytes32);\n    function cancelTransaction(address target, uint value, string calldata signature, bytes calldata data, uint eta) external;\n    function executeTransaction(address target, uint value, string calldata signature, bytes calldata data, uint eta) external payable returns (bytes memory);\n}\n\ninterface GSighInterface {\n    function getPriorVotes(address account, uint blockNumber) external view returns (uint96);\n}\n\n\ncontract GovernorAlpha {\n    /// @notice The name of this contract\n    string public constant name = \"Sigh Finance Governor Alpha\";\n\n    /// @notice The number of votes in support of a proposal required in order for a quorum to be reached and for a vote to succeed\n    function quorumVotes() public pure returns (uint) { return 400000e18; } // 400,000 = 4% of GSigh\n\n    /// @notice The number of votes required in order for a voter to become a proposer\n    function proposalThreshold() public pure returns (uint) { return 100000e18; } // 100,000 = 1% of GSigh\n\n    /// @notice The maximum number of actions that can be included in a proposal\n    function proposalMaxOperations() public pure returns (uint) { return 10; } // 10 actions\n\n    /// @notice The delay before voting on a proposal may take place, once proposed\n    function votingDelay() public pure returns (uint) { return 1; } // 1 block\n\n    /// @notice The duration of voting on a proposal, in blocks\n    function votingPeriod() public pure returns (uint) { return 17280; } // ~3 days in blocks (assuming 15s blocks)\n\n    /// @notice The address of the Sigh Finance Protocol Timelock\n    TimelockInterface public timelock;\n\n    /// @notice The address of the Sigh Finance governance token\n    GSighInterface public gsigh;\n\n    /// @notice The address of the Governor Guardian\n    address public guardian;\n\n    /// @notice The total number of proposals\n    uint public proposalCount;\n\n    struct Proposal {\n        /// @notice Unique id for looking up a proposal\n        uint id;\n\n        /// @notice Creator of the proposal\n        address proposer;\n\n        /// @notice The timestamp that the proposal will be available for execution, set once the vote succeeds\n        uint eta;\n\n        /// @notice the ordered list of target addresses for calls to be made\n        address[] targets;\n\n        /// @notice The ordered list of values (i.e. msg.value) to be passed to the calls to be made\n        uint[] values;\n\n        /// @notice The ordered list of function signatures to be called\n        string[] signatures;\n\n        /// @notice The ordered list of calldata to be passed to each call\n        bytes[] calldatas;\n\n        /// @notice The block at which voting begins: holders must delegate their votes prior to this block\n        uint startBlock;\n\n        /// @notice The block at which voting ends: votes must be cast prior to this block\n        uint endBlock;\n\n        /// @notice Current number of votes in favor of this proposal\n        uint forVotes;\n\n        /// @notice Current number of votes in opposition to this proposal\n        uint againstVotes;\n\n        /// @notice Flag marking whether the proposal has been canceled\n        bool canceled;\n\n        /// @notice Flag marking whether the proposal has been executed\n        bool executed;\n\n        /// @notice Receipts of ballots for the entire set of voters\n        mapping (address => Receipt) receipts;\n    }\n\n    /// @notice Ballot receipt record for a voter\n    struct Receipt {\n        /// @notice Whether or not a vote has been cast\n        bool hasVoted;\n\n        /// @notice Whether or not the voter supports the proposal\n        bool support;\n\n        /// @notice The number of votes the voter had, which were cast\n        uint96 votes;\n    }\n\n    /// @notice Possible states that a proposal may be in\n    enum ProposalState {\n        Pending,\n        Active,\n        Canceled,\n        Defeated,\n        Succeeded,\n        Queued,\n        Expired,\n        Executed\n    }\n\n    /// @notice The official record of all proposals ever proposed\n    mapping (uint => Proposal) public proposals;\n\n    /// @notice The latest proposal for each proposer\n    mapping (address => uint) public latestProposalIds;\n\n    /// @notice The EIP-712 typehash for the contract's domain\n    bytes32 public constant DOMAIN_TYPEHASH = keccak256(\"EIP712Domain(string name,uint256 chainId,address verifyingContract)\");\n\n    /// @notice The EIP-712 typehash for the ballot struct used by the contract\n    bytes32 public constant BALLOT_TYPEHASH = keccak256(\"Ballot(uint256 proposalId,bool support)\");\n\n    /// @notice An event emitted when a new proposal is created\n    event ProposalCreated(uint id, address proposer, address[] targets, uint[] values, string[] signatures, bytes[] calldatas, uint startBlock, uint endBlock, string description);\n\n    /// @notice An event emitted when a vote has been cast on a proposal\n    event VoteCast(address voter, uint proposalId, bool support, uint votes);\n\n    /// @notice An event emitted when a proposal has been canceled\n    event ProposalCanceled(uint id);\n\n    /// @notice An event emitted when a proposal has been queued in the Timelock\n    event ProposalQueued(uint id, uint eta);\n\n    /// @notice An event emitted when a proposal has been executed in the Timelock\n    event ProposalExecuted(uint id);\n\n    // CONSTRUCTOR - takes address of the timelock contract, gSigh (governance token) address and the guardian contract address\n    constructor(address timelock_, address gSigh_, address guardian_) public {\n        timelock = TimelockInterface(timelock_);\n        gsigh = GSighInterface(gSigh_);\n        guardian = guardian_;\n    }\n\n    // ** PROPOSAL RELATED FUNCTIONS **\n\n    // Propose a new proposal. Checks if the sender is a proposer and he is not having any pending/active proposals\n    function propose(address[] memory targets, uint[] memory values, string[] memory signatures, bytes[] memory calldatas, string memory description) public returns (uint) {\n        require(gsigh.getPriorVotes(msg.sender, sub256(block.number, 1)) > proposalThreshold(), \"GovernorAlpha::propose: proposer votes below proposal threshold\");\n        require(targets.length == values.length && targets.length == signatures.length && targets.length == calldatas.length, \"GovernorAlpha::propose: proposal function information mismatch\");\n        require(targets.length != 0, \"GovernorAlpha::propose: must provide actions\");\n        require(targets.length <= proposalMaxOperations(), \"GovernorAlpha::propose: too many actions\");\n\n        uint latestProposalId = latestProposalIds[msg.sender];\n        if (latestProposalId != 0) {\n          ProposalState proposersLatestProposalState = state(latestProposalId);\n          require(proposersLatestProposalState != ProposalState.Active, \"GovernorAlpha::propose: one live proposal per proposer, found an already active proposal\");\n          require(proposersLatestProposalState != ProposalState.Pending, \"GovernorAlpha::propose: one live proposal per proposer, found an already pending proposal\");\n        }\n\n        uint startBlock = add256(block.number, votingDelay());\n        uint endBlock = add256(startBlock, votingPeriod());\n\n        proposalCount++;\n        Proposal memory newProposal = Proposal({\n            id: proposalCount,\n            proposer: msg.sender,\n            eta: 0,\n            targets: targets,\n            values: values,\n            signatures: signatures,\n            calldatas: calldatas,\n            startBlock: startBlock,\n            endBlock: endBlock,\n            forVotes: 0,\n            againstVotes: 0,\n            canceled: false,\n            executed: false\n        });\n\n        proposals[newProposal.id] = newProposal;\n        latestProposalIds[newProposal.proposer] = newProposal.id;\n\n        emit ProposalCreated(newProposal.id, msg.sender, targets, values, signatures, calldatas, startBlock, endBlock, description);\n        return newProposal.id;\n    }\n\n    function queue(uint proposalId) public {\n        require(state(proposalId) == ProposalState.Succeeded, \"GovernorAlpha::queue: proposal can only be queued if it is succeeded\");\n        Proposal storage proposal = proposals[proposalId];\n        uint eta = add256(block.timestamp, timelock.delay());\n        for (uint i = 0; i < proposal.targets.length; i++) {\n            _queueOrRevert(proposal.targets[i], proposal.values[i], proposal.signatures[i], proposal.calldatas[i], eta);\n        }\n        proposal.eta = eta;\n        emit ProposalQueued(proposalId, eta);\n    }\n\n    function _queueOrRevert(address target, uint value, string memory signature, bytes memory data, uint eta) internal {\n        require(!timelock.queuedTransactions(keccak256(abi.encode(target, value, signature, data, eta))), \"GovernorAlpha::_queueOrRevert: proposal action already queued at eta\");\n        timelock.queueTransaction(target, value, signature, data, eta);\n    }\n\n    function execute(uint proposalId) public payable {\n        require(state(proposalId) == ProposalState.Queued, \"GovernorAlpha::execute: proposal can only be executed if it is queued\");\n        Proposal storage proposal = proposals[proposalId];\n        proposal.executed = true;\n        for (uint i = 0; i < proposal.targets.length; i++) {\n            timelock.executeTransaction.value(proposal.values[i])(proposal.targets[i], proposal.values[i], proposal.signatures[i], proposal.calldatas[i], proposal.eta);\n        }\n        emit ProposalExecuted(proposalId);\n    }\n\n    function cancel(uint proposalId) public {\n        ProposalState state = state(proposalId);\n        require(state != ProposalState.Executed, \"GovernorAlpha::cancel: cannot cancel executed proposal\");\n\n        Proposal storage proposal = proposals[proposalId];\n        require(msg.sender == guardian || gsigh.getPriorVotes(proposal.proposer, sub256(block.number, 1)) < proposalThreshold(), \"GovernorAlpha::cancel: proposer above threshold\");\n\n        proposal.canceled = true;\n        for (uint i = 0; i < proposal.targets.length; i++) {\n            timelock.cancelTransaction(proposal.targets[i], proposal.values[i], proposal.signatures[i], proposal.calldatas[i], proposal.eta);\n        }\n\n        emit ProposalCanceled(proposalId);\n    }\n\n    // ** GENERAL FUNCTIONS **\n\n    function getActions(uint proposalId) public view returns (address[] memory targets, uint[] memory values, string[] memory signatures, bytes[] memory calldatas) {\n        Proposal storage p = proposals[proposalId];\n        return (p.targets, p.values, p.signatures, p.calldatas);\n    }\n\n    function getReceipt(uint proposalId, address voter) public view returns (Receipt memory) {\n        return proposals[proposalId].receipts[voter];\n    }\n\n    function state(uint proposalId) public view returns (ProposalState) {\n        require(proposalCount >= proposalId && proposalId > 0, \"GovernorAlpha::state: invalid proposal id\");\n        Proposal storage proposal = proposals[proposalId];\n        if (proposal.canceled) {\n            return ProposalState.Canceled;\n        } else if (block.number <= proposal.startBlock) {\n            return ProposalState.Pending;\n        } else if (block.number <= proposal.endBlock) {\n            return ProposalState.Active;\n        } else if (proposal.forVotes <= proposal.againstVotes || proposal.forVotes < quorumVotes()) {\n            return ProposalState.Defeated;\n        } else if (proposal.eta == 0) {\n            return ProposalState.Succeeded;\n        } else if (proposal.executed) {\n            return ProposalState.Executed;\n        } else if (block.timestamp >= add256(proposal.eta, timelock.GRACE_PERIOD())) {\n            return ProposalState.Expired;\n        } else {\n            return ProposalState.Queued;\n        }\n    }\n\n    function castVote(uint proposalId, bool support) public {\n        return _castVote(msg.sender, proposalId, support);\n    }\n\n    function castVoteBySig(uint proposalId, bool support, uint8 v, bytes32 r, bytes32 s) public {\n        bytes32 domainSeparator = keccak256(abi.encode(DOMAIN_TYPEHASH, keccak256(bytes(name)), getChainId(), address(this)));\n        bytes32 structHash = keccak256(abi.encode(BALLOT_TYPEHASH, proposalId, support));\n        bytes32 digest = keccak256(abi.encodePacked(\"\\x19\\x01\", domainSeparator, structHash));\n        address signatory = ecrecover(digest, v, r, s);\n        require(signatory != address(0), \"GovernorAlpha::castVoteBySig: invalid signature\");\n        return _castVote(signatory, proposalId, support);\n    }\n\n    function _castVote(address voter, uint proposalId, bool support) internal {\n        require(state(proposalId) == ProposalState.Active, \"GovernorAlpha::_castVote: voting is closed\");\n        Proposal storage proposal = proposals[proposalId];\n        Receipt storage receipt = proposal.receipts[voter];\n        require(receipt.hasVoted == false, \"GovernorAlpha::_castVote: voter already voted\");\n        uint96 votes = gsigh.getPriorVotes(voter, proposal.startBlock);\n\n        if (support) {\n            proposal.forVotes = add256(proposal.forVotes, votes);\n        } else {\n            proposal.againstVotes = add256(proposal.againstVotes, votes);\n        }\n\n        receipt.hasVoted = true;\n        receipt.support = support;\n        receipt.votes = votes;\n\n        emit VoteCast(voter, proposalId, support, votes);\n    }\n\n    // ** ADMIN FUNCTIONS **\n\n    function __acceptAdmin() public {\n        require(msg.sender == guardian, \"GovernorAlpha::__acceptAdmin: sender must be gov guardian\");\n        timelock.acceptAdmin();\n    }\n\n    function __abdicate() public {\n        require(msg.sender == guardian, \"GovernorAlpha::__abdicate: sender must be gov guardian\");\n        guardian = address(0);\n    }\n\n    function __queueSetTimelockPendingAdmin(address newPendingAdmin, uint eta) public {\n        require(msg.sender == guardian, \"GovernorAlpha::__queueSetTimelockPendingAdmin: sender must be gov guardian\");\n        timelock.queueTransaction(address(timelock), 0, \"setPendingAdmin(address)\", abi.encode(newPendingAdmin), eta);\n    }\n\n    function __executeSetTimelockPendingAdmin(address newPendingAdmin, uint eta) public {\n        require(msg.sender == guardian, \"GovernorAlpha::__executeSetTimelockPendingAdmin: sender must be gov guardian\");\n        timelock.executeTransaction(address(timelock), 0, \"setPendingAdmin(address)\", abi.encode(newPendingAdmin), eta);\n    }\n\n    // **MATH FUNCTIONS**\n\n    function add256(uint256 a, uint256 b) internal pure returns (uint) {\n        uint c = a + b;\n        require(c >= a, \"addition overflow\");\n        return c;\n    }\n\n    function sub256(uint256 a, uint256 b) internal pure returns (uint) {\n        require(b <= a, \"subtraction underflow\");\n        return a - b;\n    }\n\n    function getChainId() internal pure returns (uint) {\n        uint chainId;\n        assembly { chainId := chainid() }\n        return chainId;\n    }\n}\n\n",
  "sourcePath": "/Users/apple/Desktop/GITCOIN/Sigh_Finance/SighFinanceContracts/contracts/Governance/GovernorAlpha.sol",
  "compiler": {
    "name": "solc",
    "version": "0.5.16+commit.9c3226ce.Emscripten.clang"
  },
  "schemaVersion": "3.2.4",
  "updatedAt": "2020-09-20T07:40:04.766Z",
  "networkType": "ethereum",
  "devdoc": {
    "methods": {}
  },
  "userdoc": {
    "methods": {
      "proposalMaxOperations()": {
        "notice": "The maximum number of actions that can be included in a proposal"
      },
      "proposalThreshold()": {
        "notice": "The number of votes required in order for a voter to become a proposer"
      },
      "quorumVotes()": {
        "notice": "The number of votes in support of a proposal required in order for a quorum to be reached and for a vote to succeed"
      },
      "votingDelay()": {
        "notice": "The delay before voting on a proposal may take place, once proposed"
      },
      "votingPeriod()": {
        "notice": "The duration of voting on a proposal, in blocks"
      }
    }
  }
}