{
  "contractName": "GSighReservoir",
  "abi": [
    {
      "inputs": [
        {
          "internalType": "contract EIP20Interface",
          "name": "token_",
          "type": "address"
        }
      ],
      "payable": false,
      "stateMutability": "nonpayable",
      "type": "constructor"
    },
    {
      "constant": true,
      "inputs": [],
      "name": "admin",
      "outputs": [
        {
          "internalType": "address",
          "name": "",
          "type": "address"
        }
      ],
      "payable": false,
      "stateMutability": "view",
      "type": "function"
    },
    {
      "constant": true,
      "inputs": [],
      "name": "dripRate",
      "outputs": [
        {
          "internalType": "uint256",
          "name": "",
          "type": "uint256"
        }
      ],
      "payable": false,
      "stateMutability": "view",
      "type": "function"
    },
    {
      "constant": true,
      "inputs": [],
      "name": "dripped",
      "outputs": [
        {
          "internalType": "uint256",
          "name": "",
          "type": "uint256"
        }
      ],
      "payable": false,
      "stateMutability": "view",
      "type": "function"
    },
    {
      "constant": true,
      "inputs": [],
      "name": "isDripAllowed",
      "outputs": [
        {
          "internalType": "bool",
          "name": "",
          "type": "bool"
        }
      ],
      "payable": false,
      "stateMutability": "view",
      "type": "function"
    },
    {
      "constant": true,
      "inputs": [],
      "name": "lastDripBlockNumber",
      "outputs": [
        {
          "internalType": "uint256",
          "name": "",
          "type": "uint256"
        }
      ],
      "payable": false,
      "stateMutability": "view",
      "type": "function"
    },
    {
      "constant": true,
      "inputs": [],
      "name": "recentlyDrippedAmount",
      "outputs": [
        {
          "internalType": "uint256",
          "name": "",
          "type": "uint256"
        }
      ],
      "payable": false,
      "stateMutability": "view",
      "type": "function"
    },
    {
      "constant": true,
      "inputs": [],
      "name": "target",
      "outputs": [
        {
          "internalType": "address",
          "name": "",
          "type": "address"
        }
      ],
      "payable": false,
      "stateMutability": "view",
      "type": "function"
    },
    {
      "constant": true,
      "inputs": [],
      "name": "token",
      "outputs": [
        {
          "internalType": "contract EIP20Interface",
          "name": "",
          "type": "address"
        }
      ],
      "payable": false,
      "stateMutability": "view",
      "type": "function"
    },
    {
      "constant": true,
      "inputs": [],
      "name": "totalDrippedAmount",
      "outputs": [
        {
          "internalType": "uint256",
          "name": "",
          "type": "uint256"
        }
      ],
      "payable": false,
      "stateMutability": "view",
      "type": "function"
    },
    {
      "constant": false,
      "inputs": [
        {
          "internalType": "uint256",
          "name": "dripRate_",
          "type": "uint256"
        },
        {
          "internalType": "address",
          "name": "target_",
          "type": "address"
        }
      ],
      "name": "beginDripping",
      "outputs": [
        {
          "internalType": "bool",
          "name": "",
          "type": "bool"
        }
      ],
      "payable": false,
      "stateMutability": "nonpayable",
      "type": "function"
    },
    {
      "constant": false,
      "inputs": [
        {
          "internalType": "uint256",
          "name": "dripRate_",
          "type": "uint256"
        }
      ],
      "name": "changeDripRate",
      "outputs": [
        {
          "internalType": "bool",
          "name": "",
          "type": "bool"
        }
      ],
      "payable": false,
      "stateMutability": "nonpayable",
      "type": "function"
    },
    {
      "constant": false,
      "inputs": [],
      "name": "drip",
      "outputs": [
        {
          "internalType": "uint256",
          "name": "",
          "type": "uint256"
        }
      ],
      "payable": false,
      "stateMutability": "nonpayable",
      "type": "function"
    },
    {
      "constant": true,
      "inputs": [],
      "name": "getGSighAddress",
      "outputs": [
        {
          "internalType": "address",
          "name": "",
          "type": "address"
        }
      ],
      "payable": false,
      "stateMutability": "view",
      "type": "function"
    },
    {
      "constant": true,
      "inputs": [],
      "name": "getTargetAddress",
      "outputs": [
        {
          "internalType": "address",
          "name": "",
          "type": "address"
        }
      ],
      "payable": false,
      "stateMutability": "view",
      "type": "function"
    }
  ],
  "bytecode": "0x60806040526007805460ff60a01b1916905534801561001d57600080fd5b506040516109973803806109978339818101604052602081101561004057600080fd5b5051600780546001600160a01b03199081163317909155600180546001600160a01b03909316929091169190911790556000600355610913806100846000396000f3fe608060405234801561001057600080fd5b50600436106100ea5760003560e01c8063d4b839921161008c578063f851a44011610066578063f851a440146101a5578063fc0c546a146101ad578063fc394c87146101b5578063fc9f213a146101bd576100ea565b8063d4b839921461018d578063e8f4445914610195578063f4bdffa71461019d576100ea565b806395f632b3116100c857806395f632b31461016d5780639f678cca14610175578063c55580da1461017d578063d326159214610185576100ea565b8063213d832a146100ef57806330dbdfc4146101095780636f338a2214610149575b600080fd5b6100f76101da565b60408051918252519081900360200190f35b6101356004803603604081101561011f57600080fd5b50803590602001356001600160a01b03166101e0565b604080519115158252519081900360200190f35b610151610337565b604080516001600160a01b039092168252519081900360200190f35b6100f7610346565b6100f761034c565b6101356103a7565b6100f76103b7565b6101516103bd565b6100f76103cc565b6100f76103d2565b6101516103d8565b6101516103e7565b6101516103f6565b610135600480360360208110156101d357600080fd5b5035610405565b60065481565b6007546000906001600160a01b0316331461022c5760405162461bcd60e51b815260040180806020018281038252602d8152602001806107d0602d913960400191505060405180910390fd5b600754600160a01b900460ff16156102755760405162461bcd60e51b81526004018080602001828103825260258152602001806108856025913960400191505060405180910390fd5b6007805460ff60a01b1916600160a01b179055600280546001600160a01b038085166001600160a01b031990921682179283905591909116146102e95760405162461bcd60e51b81526004018080602001828103825260308152602001806108556030913960400191505060405180910390fd5b6102f283610405565b61032d5760405162461bcd60e51b815260040180806020018281038252602b8152602001806107a5602b913960400191505060405180910390fd5b5060015b92915050565b6002546001600160a01b031690565b60035481565b600754600090600160a01b900460ff166103975760405162461bcd60e51b815260040180806020018281038252602e8152602001806107fd602e913960400191505060405180910390fd5b60006103a1610463565b91505090565b600754600160a01b900460ff1681565b60005481565b6002546001600160a01b031681565b60045481565b60055481565b6007546001600160a01b031681565b6001546001600160a01b031681565b6001546001600160a01b031690565b6007546000906001600160a01b031633146104515760405162461bcd60e51b815260040180806020018281038252602a81526020018061082b602a913960400191505060405180910390fd5b61045961034c565b5050600055600190565b600154604080516370a0823160e01b815230600482015290516000926001600160a01b031691839183916370a08231916024808301926020929190829003018186803b1580156104b257600080fd5b505afa1580156104c6573d6000803e3d6000fd5b505050506040513d60208110156104dc57600080fd5b50516000805460045460408051808201909152601281527164726970546f74616c206f766572666c6f7760701b602082015293945043936105209291850390610685565b9050600061052e8483610738565b90508361056c5760405162461bcd60e51b81526004018080602001828103825260358152602001806108aa6035913960400191505060405180910390fd5b6002546040805163a9059cbb60e01b81526001600160a01b0392831660048201526024810184905290519187169163a9059cbb916044808201926020929091908290030181600087803b1580156105c257600080fd5b505af11580156105d6573d6000803e3d6000fd5b505050506040513d60208110156105ec57600080fd5b505161063f576040805162461bcd60e51b815260206004820152601e60248201527f546865207472616e7366657220646964206e6f7420636f6d706c6574652e0000604482015290519081900360640190fd5b600483905560055460068290556040805180820190915260088152674f766572666c6f7760c01b6020820152610678908290849061074f565b6005555094505050505090565b60008361069457506000610731565b838302838582816106a157fe5b0414839061072d5760405162461bcd60e51b81526004018080602001828103825283818151815260200191508051906020019080838360005b838110156106f25781810151838201526020016106da565b50505050905090810190601f16801561071f5780820380516001836020036101000a031916815260200191505b509250505060405180910390fd5b5090505b9392505050565b6000818311610748575081610331565b5080610331565b6000838301828582101561072d5760405162461bcd60e51b81526020600482018181528351602484015283519092839260449091019190850190808383600083156106f25781810151838201526020016106da56fe44726970205261746520636f756c64206e6f7420626520696e697469616c697a65642070726f7065726c794472697070696e672063616e206f6e6c7920626520696e697469616c697a6564206279207468652041646d696e4472697070696e6720686173206e6f74206265656e20696e697469616c697a6564206279207468652041646d696e4472697020726174652063616e206f6e6c79206265206368616e676564206279207468652041646d696e546172676574206164647265737320636f756c64206e6f742062652070726f7065726c7920696e697469616c697a65644472697070696e672063616e206f6e6c7920626520696e697469616c697a6564206f6e6365546865207265736572766f69722063757272656e746c7920646f6573206e6f74206861766520616e79205349474820746f6b656e73a265627a7a72315820116ee7bfa7228c340bc95dd2427f46f62cf86d70d88009ae843e2d3e4dddf35964736f6c63430005100032",
  "source": "pragma solidity ^0.5.16;\n\n/**\n * @title GSigh Reservoir Contract\n * @notice Distributes a token to a different contract at a fixed rate.\n * @dev This contract must be poked via the `drip()` function every so often.\n * @author SighFinance\n */\ncontract GSighReservoir {\n\n  /// @notice The block number when the Reservoir started (immutable)\n  // uint public dripStart;\n\n  /// @notice Tokens per block that to drip to target (immutable)\n  uint public dripRate;\n\n  /// @notice Reference to token to drip (immutable)\n  EIP20Interface public token;\n\n  /// @notice Target to receive dripped tokens (immutable)\n  address public target;\n\n  /// @notice Amount that has already been dripped\n  uint public dripped;\n\n  uint public lastDripBlockNumber;    \n\n  uint public totalDrippedAmount; // Dripped Amount till now\n\n  uint public recentlyDrippedAmount;  // Amount recently Dripped\n\n  address public admin;\n\n  bool public isDripAllowed = false; \n\n  /**\n    * @notice Constructs a Reservoir\n    * @param token_ The token to drip\n    */\n  constructor(EIP20Interface token_) public {\n    admin = msg.sender;\n    token = token_;   \n    dripped = 0;\n  }\n\n  function beginDripping (uint dripRate_ , address target_ ) public returns (bool) {\n    require(admin == msg.sender,\"Dripping can only be initialized by the Admin\");\n    require(!isDripAllowed,\"Dripping can only be initialized once\");\n    isDripAllowed = true;\n    target = target_;\n    require(target == target_,\"Target address could not be properly initialized\");\n    require(changeDripRate(dripRate_),\"Drip Rate could not be initialized properly\");\n    return true;\n  }\n\n  function changeDripRate (uint dripRate_) public returns (bool) {\n    require(admin == msg.sender,\"Drip rate can only be changed by the Admin\");\n    drip();\n    dripRate = dripRate_;\n    return true;\n  }\n\n  /**\n    * @notice Drips the maximum amount of tokens to match the drip rate since inception\n    * @dev Note: this will only drip up to the amount of tokens available.\n    * @return The amount of tokens dripped in this call\n    */\n  function drip() public returns (uint) {\n    require(isDripAllowed,'Dripping has not been initialized by the Admin');\n    uint drippedAmount = dripInternal();\n    return drippedAmount;\n  }\n\n  function dripInternal() internal returns (uint) {\n    EIP20Interface token_ = token;\n    uint reservoirBalance_ = token_.balanceOf(address(this)); // TODO: Verify this is a static call\n    uint blockNumber_ = block.number;\n    uint deltaDrip_ = mul(dripRate, blockNumber_ - lastDripBlockNumber, \"dripTotal overflow\");\n    uint toDrip_ = min(reservoirBalance_, deltaDrip_);\n    require(reservoirBalance_ != 0, 'The reservoir currently does not have any SIGH tokens' );\n    require(token_.transfer(target, toDrip_), 'The transfer did not complete.' );\n    lastDripBlockNumber = blockNumber_; // setting the block number when the Drip is made\n    uint prevDrippedAmount = totalDrippedAmount;\n    recentlyDrippedAmount = toDrip_;\n    totalDrippedAmount = add(prevDrippedAmount,toDrip_,\"Overflow\");\n    return toDrip_;\n  } \n\n  function getGSighAddress() external view returns (address) {\n    return address(token);\n  }\n\n  function getTargetAddress() external view returns (address) {\n    return address(target);\n  }\n  \n\n  /* Internal helper functions for safe math */\n\n  function add(uint a, uint b, string memory errorMessage) internal pure returns (uint) {\n    uint c = a + b;\n    require(c >= a, errorMessage);\n    return c;\n  }\n\n  function sub(uint a, uint b, string memory errorMessage) internal pure returns (uint) {\n    require(b <= a, errorMessage);\n    uint c = a - b;\n    return c;\n  }\n\n  function mul(uint a, uint b, string memory errorMessage) internal pure returns (uint) {\n    if (a == 0) {\n      return 0;\n    }\n    uint c = a * b;\n    require(c / a == b, errorMessage);\n    return c;\n  }\n\n  function min(uint a, uint b) internal pure returns (uint) {\n    if (a <= b) {\n      return a;\n    } else {\n      return b;\n    }\n  }\n}\n\nimport \"../openzeppelin/EIP20Interface.sol\";\n",
  "sourcePath": "/Users/apple/Desktop/GITCOIN/Sigh_Finance/SighFinanceContracts/contracts/Reservoir/GSighReservoir.sol",
  "compiler": {
    "name": "solc",
    "version": "0.5.16+commit.9c3226ce.Emscripten.clang"
  },
  "schemaVersion": "3.2.4",
  "updatedAt": "2020-09-20T13:34:35.859Z",
  "networkType": "ethereum",
  "devdoc": {
    "author": "SighFinance",
    "details": "This contract must be poked via the `drip()` function every so often.",
    "methods": {
      "constructor": {
        "params": {
          "token_": "The token to drip"
        }
      },
      "drip()": {
        "details": "Note: this will only drip up to the amount of tokens available.",
        "return": "The amount of tokens dripped in this call"
      }
    },
    "title": "GSigh Reservoir Contract"
  },
  "userdoc": {
    "methods": {
      "constructor": "Constructs a Reservoir",
      "drip()": {
        "notice": "Drips the maximum amount of tokens to match the drip rate since inception"
      }
    },
    "notice": "Distributes a token to a different contract at a fixed rate."
  }
}