{
  "contractName": "IToken",
  "abi": [
    {
      "inputs": [
        {
          "internalType": "address",
          "name": "_addressesProvider",
          "type": "address"
        },
        {
          "internalType": "address",
          "name": "_underlyingAsset",
          "type": "address"
        },
        {
          "internalType": "uint8",
          "name": "_underlyingAssetDecimals",
          "type": "uint8"
        },
        {
          "internalType": "string",
          "name": "_name",
          "type": "string"
        },
        {
          "internalType": "string",
          "name": "_symbol",
          "type": "string"
        }
      ],
      "payable": false,
      "stateMutability": "nonpayable",
      "type": "constructor"
    },
    {
      "anonymous": false,
      "inputs": [
        {
          "indexed": true,
          "internalType": "address",
          "name": "owner",
          "type": "address"
        },
        {
          "indexed": true,
          "internalType": "address",
          "name": "spender",
          "type": "address"
        },
        {
          "indexed": false,
          "internalType": "uint256",
          "name": "value",
          "type": "uint256"
        }
      ],
      "name": "Approval",
      "type": "event"
    },
    {
      "anonymous": false,
      "inputs": [
        {
          "indexed": true,
          "internalType": "address",
          "name": "_from",
          "type": "address"
        },
        {
          "indexed": true,
          "internalType": "address",
          "name": "_to",
          "type": "address"
        },
        {
          "indexed": false,
          "internalType": "uint256",
          "name": "_value",
          "type": "uint256"
        },
        {
          "indexed": false,
          "internalType": "uint256",
          "name": "_fromBalanceIncrease",
          "type": "uint256"
        },
        {
          "indexed": false,
          "internalType": "uint256",
          "name": "_toBalanceIncrease",
          "type": "uint256"
        },
        {
          "indexed": false,
          "internalType": "uint256",
          "name": "_fromIndex",
          "type": "uint256"
        },
        {
          "indexed": false,
          "internalType": "uint256",
          "name": "_toIndex",
          "type": "uint256"
        }
      ],
      "name": "BalanceTransfer",
      "type": "event"
    },
    {
      "anonymous": false,
      "inputs": [
        {
          "indexed": true,
          "internalType": "address",
          "name": "_from",
          "type": "address"
        },
        {
          "indexed": false,
          "internalType": "uint256",
          "name": "_value",
          "type": "uint256"
        },
        {
          "indexed": false,
          "internalType": "uint256",
          "name": "_fromBalanceIncrease",
          "type": "uint256"
        },
        {
          "indexed": false,
          "internalType": "uint256",
          "name": "_fromIndex",
          "type": "uint256"
        }
      ],
      "name": "BurnOnLiquidation",
      "type": "event"
    },
    {
      "anonymous": false,
      "inputs": [
        {
          "indexed": false,
          "internalType": "address",
          "name": "interestRedirectionAddress",
          "type": "address"
        },
        {
          "indexed": false,
          "internalType": "uint256",
          "name": "balanceToAdd",
          "type": "uint256"
        },
        {
          "indexed": false,
          "internalType": "uint256",
          "name": "balanceToRemove",
          "type": "uint256"
        },
        {
          "indexed": false,
          "internalType": "uint256",
          "name": "totalRedirectedBalanceForInterest",
          "type": "uint256"
        }
      ],
      "name": "InterestRedirectedBalanceUpdated",
      "type": "event"
    },
    {
      "anonymous": false,
      "inputs": [
        {
          "indexed": true,
          "internalType": "address",
          "name": "_from",
          "type": "address"
        },
        {
          "indexed": true,
          "internalType": "address",
          "name": "_to",
          "type": "address"
        }
      ],
      "name": "InterestRedirectionAllowanceChanged",
      "type": "event"
    },
    {
      "anonymous": false,
      "inputs": [
        {
          "indexed": true,
          "internalType": "address",
          "name": "_from",
          "type": "address"
        },
        {
          "indexed": true,
          "internalType": "address",
          "name": "_to",
          "type": "address"
        },
        {
          "indexed": false,
          "internalType": "uint256",
          "name": "_redirectedBalance",
          "type": "uint256"
        },
        {
          "indexed": false,
          "internalType": "uint256",
          "name": "_fromBalanceIncrease",
          "type": "uint256"
        },
        {
          "indexed": false,
          "internalType": "uint256",
          "name": "_fromIndex",
          "type": "uint256"
        }
      ],
      "name": "InterestStreamRedirected",
      "type": "event"
    },
    {
      "anonymous": false,
      "inputs": [
        {
          "indexed": true,
          "internalType": "address",
          "name": "_from",
          "type": "address"
        },
        {
          "indexed": false,
          "internalType": "uint256",
          "name": "_value",
          "type": "uint256"
        },
        {
          "indexed": false,
          "internalType": "uint256",
          "name": "_fromBalanceIncrease",
          "type": "uint256"
        },
        {
          "indexed": false,
          "internalType": "uint256",
          "name": "_fromIndex",
          "type": "uint256"
        }
      ],
      "name": "MintOnDeposit",
      "type": "event"
    },
    {
      "anonymous": false,
      "inputs": [
        {
          "indexed": true,
          "internalType": "address",
          "name": "_from",
          "type": "address"
        },
        {
          "indexed": false,
          "internalType": "uint256",
          "name": "_value",
          "type": "uint256"
        },
        {
          "indexed": false,
          "internalType": "uint256",
          "name": "_fromBalanceIncrease",
          "type": "uint256"
        },
        {
          "indexed": false,
          "internalType": "uint256",
          "name": "_fromIndex",
          "type": "uint256"
        }
      ],
      "name": "Redeem",
      "type": "event"
    },
    {
      "anonymous": false,
      "inputs": [
        {
          "indexed": true,
          "internalType": "address",
          "name": "from",
          "type": "address"
        },
        {
          "indexed": true,
          "internalType": "address",
          "name": "to",
          "type": "address"
        },
        {
          "indexed": false,
          "internalType": "uint256",
          "name": "value",
          "type": "uint256"
        }
      ],
      "name": "Transfer",
      "type": "event"
    },
    {
      "constant": true,
      "inputs": [],
      "name": "UINT_MAX_VALUE",
      "outputs": [
        {
          "internalType": "uint256",
          "name": "",
          "type": "uint256"
        }
      ],
      "payable": false,
      "stateMutability": "view",
      "type": "function"
    },
    {
      "constant": true,
      "inputs": [
        {
          "internalType": "address",
          "name": "owner",
          "type": "address"
        },
        {
          "internalType": "address",
          "name": "spender",
          "type": "address"
        }
      ],
      "name": "allowance",
      "outputs": [
        {
          "internalType": "uint256",
          "name": "",
          "type": "uint256"
        }
      ],
      "payable": false,
      "stateMutability": "view",
      "type": "function"
    },
    {
      "constant": false,
      "inputs": [
        {
          "internalType": "address",
          "name": "spender",
          "type": "address"
        },
        {
          "internalType": "uint256",
          "name": "amount",
          "type": "uint256"
        }
      ],
      "name": "approve",
      "outputs": [
        {
          "internalType": "bool",
          "name": "",
          "type": "bool"
        }
      ],
      "payable": false,
      "stateMutability": "nonpayable",
      "type": "function"
    },
    {
      "constant": true,
      "inputs": [],
      "name": "decimals",
      "outputs": [
        {
          "internalType": "uint8",
          "name": "",
          "type": "uint8"
        }
      ],
      "payable": false,
      "stateMutability": "view",
      "type": "function"
    },
    {
      "constant": false,
      "inputs": [
        {
          "internalType": "address",
          "name": "spender",
          "type": "address"
        },
        {
          "internalType": "uint256",
          "name": "subtractedValue",
          "type": "uint256"
        }
      ],
      "name": "decreaseAllowance",
      "outputs": [
        {
          "internalType": "bool",
          "name": "",
          "type": "bool"
        }
      ],
      "payable": false,
      "stateMutability": "nonpayable",
      "type": "function"
    },
    {
      "constant": false,
      "inputs": [
        {
          "internalType": "address",
          "name": "spender",
          "type": "address"
        },
        {
          "internalType": "uint256",
          "name": "addedValue",
          "type": "uint256"
        }
      ],
      "name": "increaseAllowance",
      "outputs": [
        {
          "internalType": "bool",
          "name": "",
          "type": "bool"
        }
      ],
      "payable": false,
      "stateMutability": "nonpayable",
      "type": "function"
    },
    {
      "constant": true,
      "inputs": [
        {
          "internalType": "address",
          "name": "",
          "type": "address"
        }
      ],
      "name": "interestRedirectionAllowances",
      "outputs": [
        {
          "internalType": "address",
          "name": "",
          "type": "address"
        }
      ],
      "payable": false,
      "stateMutability": "view",
      "type": "function"
    },
    {
      "constant": true,
      "inputs": [],
      "name": "name",
      "outputs": [
        {
          "internalType": "string",
          "name": "",
          "type": "string"
        }
      ],
      "payable": false,
      "stateMutability": "view",
      "type": "function"
    },
    {
      "constant": true,
      "inputs": [],
      "name": "symbol",
      "outputs": [
        {
          "internalType": "string",
          "name": "",
          "type": "string"
        }
      ],
      "payable": false,
      "stateMutability": "view",
      "type": "function"
    },
    {
      "constant": false,
      "inputs": [
        {
          "internalType": "address",
          "name": "recipient",
          "type": "address"
        },
        {
          "internalType": "uint256",
          "name": "amount",
          "type": "uint256"
        }
      ],
      "name": "transfer",
      "outputs": [
        {
          "internalType": "bool",
          "name": "",
          "type": "bool"
        }
      ],
      "payable": false,
      "stateMutability": "nonpayable",
      "type": "function"
    },
    {
      "constant": false,
      "inputs": [
        {
          "internalType": "address",
          "name": "sender",
          "type": "address"
        },
        {
          "internalType": "address",
          "name": "recipient",
          "type": "address"
        },
        {
          "internalType": "uint256",
          "name": "amount",
          "type": "uint256"
        }
      ],
      "name": "transferFrom",
      "outputs": [
        {
          "internalType": "bool",
          "name": "",
          "type": "bool"
        }
      ],
      "payable": false,
      "stateMutability": "nonpayable",
      "type": "function"
    },
    {
      "constant": true,
      "inputs": [],
      "name": "underlyingInstrumentAddress",
      "outputs": [
        {
          "internalType": "address",
          "name": "",
          "type": "address"
        }
      ],
      "payable": false,
      "stateMutability": "view",
      "type": "function"
    },
    {
      "constant": true,
      "inputs": [
        {
          "internalType": "address",
          "name": "_user",
          "type": "address"
        },
        {
          "internalType": "uint256",
          "name": "_amount",
          "type": "uint256"
        }
      ],
      "name": "isTransferAllowed",
      "outputs": [
        {
          "internalType": "bool",
          "name": "",
          "type": "bool"
        }
      ],
      "payable": false,
      "stateMutability": "view",
      "type": "function"
    },
    {
      "constant": false,
      "inputs": [
        {
          "internalType": "address",
          "name": "_sighStreamAddress",
          "type": "address"
        }
      ],
      "name": "setSighStreamAddress",
      "outputs": [
        {
          "internalType": "bool",
          "name": "",
          "type": "bool"
        }
      ],
      "payable": false,
      "stateMutability": "nonpayable",
      "type": "function"
    },
    {
      "constant": false,
      "inputs": [
        {
          "internalType": "address",
          "name": "_account",
          "type": "address"
        },
        {
          "internalType": "uint256",
          "name": "_amount",
          "type": "uint256"
        }
      ],
      "name": "mintOnDeposit",
      "outputs": [],
      "payable": false,
      "stateMutability": "nonpayable",
      "type": "function"
    },
    {
      "constant": false,
      "inputs": [
        {
          "internalType": "uint256",
          "name": "_amount",
          "type": "uint256"
        }
      ],
      "name": "redeem",
      "outputs": [],
      "payable": false,
      "stateMutability": "nonpayable",
      "type": "function"
    },
    {
      "constant": false,
      "inputs": [
        {
          "internalType": "address",
          "name": "_account",
          "type": "address"
        },
        {
          "internalType": "uint256",
          "name": "_value",
          "type": "uint256"
        }
      ],
      "name": "burnOnLiquidation",
      "outputs": [],
      "payable": false,
      "stateMutability": "nonpayable",
      "type": "function"
    },
    {
      "constant": false,
      "inputs": [
        {
          "internalType": "address",
          "name": "_from",
          "type": "address"
        },
        {
          "internalType": "address",
          "name": "_to",
          "type": "address"
        },
        {
          "internalType": "uint256",
          "name": "_value",
          "type": "uint256"
        }
      ],
      "name": "transferOnLiquidation",
      "outputs": [],
      "payable": false,
      "stateMutability": "nonpayable",
      "type": "function"
    },
    {
      "constant": false,
      "inputs": [
        {
          "internalType": "address",
          "name": "_to",
          "type": "address"
        }
      ],
      "name": "redirectInterestStream",
      "outputs": [],
      "payable": false,
      "stateMutability": "nonpayable",
      "type": "function"
    },
    {
      "constant": false,
      "inputs": [
        {
          "internalType": "address",
          "name": "_to",
          "type": "address"
        }
      ],
      "name": "allowInterestRedirectionTo",
      "outputs": [],
      "payable": false,
      "stateMutability": "nonpayable",
      "type": "function"
    },
    {
      "constant": false,
      "inputs": [
        {
          "internalType": "address",
          "name": "_from",
          "type": "address"
        },
        {
          "internalType": "address",
          "name": "_to",
          "type": "address"
        }
      ],
      "name": "redirectInterestStreamOf",
      "outputs": [],
      "payable": false,
      "stateMutability": "nonpayable",
      "type": "function"
    },
    {
      "constant": false,
      "inputs": [
        {
          "internalType": "address",
          "name": "_user",
          "type": "address"
        }
      ],
      "name": "cumulateBalance",
      "outputs": [
        {
          "internalType": "uint256",
          "name": "",
          "type": "uint256"
        },
        {
          "internalType": "uint256",
          "name": "",
          "type": "uint256"
        },
        {
          "internalType": "uint256",
          "name": "",
          "type": "uint256"
        },
        {
          "internalType": "uint256",
          "name": "",
          "type": "uint256"
        }
      ],
      "payable": false,
      "stateMutability": "nonpayable",
      "type": "function"
    },
    {
      "constant": true,
      "inputs": [
        {
          "internalType": "address",
          "name": "_user",
          "type": "address"
        }
      ],
      "name": "balanceOf",
      "outputs": [
        {
          "internalType": "uint256",
          "name": "",
          "type": "uint256"
        }
      ],
      "payable": false,
      "stateMutability": "view",
      "type": "function"
    },
    {
      "constant": true,
      "inputs": [
        {
          "internalType": "address",
          "name": "_user",
          "type": "address"
        }
      ],
      "name": "principalBalanceOf",
      "outputs": [
        {
          "internalType": "uint256",
          "name": "",
          "type": "uint256"
        }
      ],
      "payable": false,
      "stateMutability": "view",
      "type": "function"
    },
    {
      "constant": true,
      "inputs": [],
      "name": "totalSupply",
      "outputs": [
        {
          "internalType": "uint256",
          "name": "",
          "type": "uint256"
        }
      ],
      "payable": false,
      "stateMutability": "view",
      "type": "function"
    },
    {
      "constant": true,
      "inputs": [
        {
          "internalType": "address",
          "name": "_user",
          "type": "address"
        }
      ],
      "name": "getUserIndex",
      "outputs": [
        {
          "internalType": "uint256",
          "name": "",
          "type": "uint256"
        }
      ],
      "payable": false,
      "stateMutability": "view",
      "type": "function"
    },
    {
      "constant": true,
      "inputs": [
        {
          "internalType": "address",
          "name": "_user",
          "type": "address"
        }
      ],
      "name": "getInterestRedirectionAddress",
      "outputs": [
        {
          "internalType": "address",
          "name": "",
          "type": "address"
        }
      ],
      "payable": false,
      "stateMutability": "view",
      "type": "function"
    },
    {
      "constant": true,
      "inputs": [
        {
          "internalType": "address",
          "name": "_user",
          "type": "address"
        }
      ],
      "name": "getRedirectedBalance",
      "outputs": [
        {
          "internalType": "uint256",
          "name": "",
          "type": "uint256"
        }
      ],
      "payable": false,
      "stateMutability": "view",
      "type": "function"
    },
    {
      "constant": false,
      "inputs": [
        {
          "internalType": "address",
          "name": "_to",
          "type": "address"
        }
      ],
      "name": "redirectLiquiditySIGHStream",
      "outputs": [],
      "payable": false,
      "stateMutability": "nonpayable",
      "type": "function"
    },
    {
      "constant": false,
      "inputs": [
        {
          "internalType": "address",
          "name": "_to",
          "type": "address"
        }
      ],
      "name": "allowLiquiditySIGHRedirectionTo",
      "outputs": [],
      "payable": false,
      "stateMutability": "nonpayable",
      "type": "function"
    },
    {
      "constant": false,
      "inputs": [
        {
          "internalType": "address",
          "name": "_from",
          "type": "address"
        },
        {
          "internalType": "address",
          "name": "_to",
          "type": "address"
        }
      ],
      "name": "redirectLiquiditySIGHStreamOf",
      "outputs": [],
      "payable": false,
      "stateMutability": "nonpayable",
      "type": "function"
    },
    {
      "constant": false,
      "inputs": [
        {
          "internalType": "address",
          "name": "_to",
          "type": "address"
        }
      ],
      "name": "redirectBorrowingSIGHStream",
      "outputs": [],
      "payable": false,
      "stateMutability": "nonpayable",
      "type": "function"
    },
    {
      "constant": false,
      "inputs": [
        {
          "internalType": "address",
          "name": "_to",
          "type": "address"
        }
      ],
      "name": "allowBorrowingSIGHRedirectionTo",
      "outputs": [],
      "payable": false,
      "stateMutability": "nonpayable",
      "type": "function"
    },
    {
      "constant": false,
      "inputs": [
        {
          "internalType": "address",
          "name": "_from",
          "type": "address"
        },
        {
          "internalType": "address",
          "name": "_to",
          "type": "address"
        }
      ],
      "name": "redirectBorrowingSIGHStreamOf",
      "outputs": [],
      "payable": false,
      "stateMutability": "nonpayable",
      "type": "function"
    },
    {
      "constant": false,
      "inputs": [
        {
          "internalType": "address",
          "name": "_user",
          "type": "address"
        },
        {
          "internalType": "uint256",
          "name": "_balanceToAdd",
          "type": "uint256"
        },
        {
          "internalType": "uint256",
          "name": "_balanceToRemove",
          "type": "uint256"
        }
      ],
      "name": "updateRedirectedBalanceOfBorrowingSIGHStreamRedirectionAddress",
      "outputs": [],
      "payable": false,
      "stateMutability": "nonpayable",
      "type": "function"
    },
    {
      "constant": false,
      "inputs": [
        {
          "internalType": "address",
          "name": "user",
          "type": "address"
        }
      ],
      "name": "accure_SIGH_For_BorrowingStream",
      "outputs": [],
      "payable": false,
      "stateMutability": "nonpayable",
      "type": "function"
    },
    {
      "constant": false,
      "inputs": [],
      "name": "claimMySIGH",
      "outputs": [],
      "payable": false,
      "stateMutability": "nonpayable",
      "type": "function"
    },
    {
      "constant": false,
      "inputs": [
        {
          "internalType": "address[]",
          "name": "holders",
          "type": "address[]"
        }
      ],
      "name": "claimSIGH",
      "outputs": [],
      "payable": false,
      "stateMutability": "nonpayable",
      "type": "function"
    },
    {
      "constant": true,
      "inputs": [
        {
          "internalType": "address",
          "name": "account",
          "type": "address"
        }
      ],
      "name": "getSighAccured",
      "outputs": [
        {
          "internalType": "uint256",
          "name": "",
          "type": "uint256"
        }
      ],
      "payable": false,
      "stateMutability": "view",
      "type": "function"
    },
    {
      "constant": true,
      "inputs": [
        {
          "internalType": "address",
          "name": "user",
          "type": "address"
        }
      ],
      "name": "getSIGHStreamsRedirectedTo",
      "outputs": [
        {
          "internalType": "address",
          "name": "liquiditySIGHStreamRedirectionAddress",
          "type": "address"
        },
        {
          "internalType": "address",
          "name": "BorrowingSIGHStreamRedirectionAddress",
          "type": "address"
        }
      ],
      "payable": false,
      "stateMutability": "view",
      "type": "function"
    },
    {
      "constant": true,
      "inputs": [
        {
          "internalType": "address",
          "name": "user",
          "type": "address"
        }
      ],
      "name": "getSIGHStreamsAllowances",
      "outputs": [
        {
          "internalType": "address",
          "name": "liquiditySIGHStreamRedirectionAllowance",
          "type": "address"
        },
        {
          "internalType": "address",
          "name": "BorrowingSIGHStreamRedirectionAllowance",
          "type": "address"
        }
      ],
      "payable": false,
      "stateMutability": "view",
      "type": "function"
    },
    {
      "constant": true,
      "inputs": [
        {
          "internalType": "address",
          "name": "user",
          "type": "address"
        }
      ],
      "name": "getSIGHStreamsIndexes",
      "outputs": [
        {
          "internalType": "uint256",
          "name": "liquiditySIGHStreamIndex",
          "type": "uint256"
        },
        {
          "internalType": "uint256",
          "name": "borrowingSIGHStreamIndex",
          "type": "uint256"
        }
      ],
      "payable": false,
      "stateMutability": "view",
      "type": "function"
    },
    {
      "constant": true,
      "inputs": [
        {
          "internalType": "address",
          "name": "user",
          "type": "address"
        }
      ],
      "name": "getSIGHStreamsRedirectedBalances",
      "outputs": [
        {
          "internalType": "uint256",
          "name": "liquiditySIGHStreamRedirectedBalance",
          "type": "uint256"
        },
        {
          "internalType": "uint256",
          "name": "borrowingSIGHStreamRedirectedBalance",
          "type": "uint256"
        }
      ],
      "payable": false,
      "stateMutability": "view",
      "type": "function"
    }
  ],
  "bytecode": "0x60806040523480156200001157600080fd5b506040516200378f3803806200378f833981810160405260a08110156200003757600080fd5b8151602083015160408085015160608601805192519496939591949391820192846401000000008211156200006b57600080fd5b9083019060208201858111156200008157600080fd5b82516401000000008111828201881017156200009c57600080fd5b82525081516020918201929091019080838360005b83811015620000cb578181015183820152602001620000b1565b50505050905090810190601f168015620000f95780820380516001836020036101000a031916815260200191505b50604052602001805160405193929190846401000000008211156200011d57600080fd5b9083019060208201858111156200013357600080fd5b82516401000000008111828201881017156200014e57600080fd5b82525081516020918201929091019080838360005b838110156200017d57818101518382015260200162000163565b50505050905090810190601f168015620001ab5780820380516001836020036101000a031916815260200191505b506040525050508181848260689080519060200190620001cd929190620003da565b508151620001e3906069906020850190620003da565b50606a805460ff191660ff929092169190911790555050606b80546001600160a01b0319166001600160a01b0387811691909117918290556040805163076b7fbb60e51b81529051929091169163ed6ff76091600480820192602092909190829003018186803b1580156200025757600080fd5b505afa1580156200026c573d6000803e3d6000fd5b505050506040513d60208110156200028357600080fd5b5051606c80546001600160a01b0319166001600160a01b03928316179055606b5460408051630261bf8b60e01b815290519190921691630261bf8b916004808301926020929190829003018186803b158015620002df57600080fd5b505afa158015620002f4573d6000803e3d6000fd5b505050506040513d60208110156200030b57600080fd5b5051606d80546001600160a01b0319166001600160a01b03928316179055606b5460408051632f58b80d60e01b815290519190921691632f58b80d916004808301926020929190829003018186803b1580156200036757600080fd5b505afa1580156200037c573d6000803e3d6000fd5b505050506040513d60208110156200039357600080fd5b5051606e80546001600160a01b0319166001600160a01b03928316179055606a8054610100600160a81b031916610100969092169590950217909355506200047f92505050565b828054600181600116156101000203166002900490600052602060002090601f016020900481019282601f106200041d57805160ff19168380011785556200044d565b828001600101855582156200044d579182015b828111156200044d57825182559160200191906001019062000430565b506200045b9291506200045f565b5090565b6200047c91905b808211156200045b576000815560010162000466565b90565b613300806200048f6000396000f3fe608060405234801561001057600080fd5b50600436106102695760003560e01c806380ab909b11610151578063c634dfaa116100c3578063dd62ed3e11610087578063dd62ed3e14610903578063dfc8d0fc14610931578063ee9907a414610957578063f1abdaf61461097d578063f258f25014610985578063f866c319146109b357610269565b8063c634dfaa1461086c578063d0fc81d214610892578063d819a3651461089a578063dafc3fe9146108c0578063db006a75146108e657610269565b8063950514b311610115578063950514b31461077457806395d89b411461079a578063a457c2d7146107a2578063a9059cbb146107ce578063bf7814cb146107fa578063c25c4e301461082057610269565b806380ab909b146106825780638432822a146106a857806384fba81a146106f45780638c6399091461071a57806394362e8b1461074857610269565b8063313ce567116101ea5780635eae177c116101ae5780635eae177c1461059157806365b5820b146105bd5780636722b4fa146105fc57806367e6aeed1461060457806370a082311461063657806374fd84df1461065c57610269565b8063313ce567146104ab578063325a9b13146104c957806339509351146104f75780633edb7cb814610523578063445e80101461054f57610269565b80631d51e7cf116102315780631d51e7cf146103935780631e77d68b146103b957806323b872dd146103df57806327ec16ed146104155780632eaae3c71461048557610269565b806306fdde031461026e578063095ea7b3146102eb5780630e49072d1461032b57806312c87c2d1461035357806318160ddd14610379575b600080fd5b6102766109e9565b6040805160208082528351818301528351919283929083019185019080838360005b838110156102b0578181015183820152602001610298565b50505050905090810190601f1680156102dd5780820380516001836020036101000a031916815260200191505b509250505060405180910390f35b6103176004803603604081101561030157600080fd5b506001600160a01b038135169060200135610a80565b604080519115158252519081900360200190f35b6103516004803603602081101561034157600080fd5b50356001600160a01b0316610a9e565b005b6103516004803603602081101561036957600080fd5b50356001600160a01b0316610aab565b610381610b4a565b60408051918252519081900360200190f35b610381600480360360208110156103a957600080fd5b50356001600160a01b0316610c0c565b610351600480360360208110156103cf57600080fd5b50356001600160a01b0316610c2b565b610317600480360360608110156103f557600080fd5b506001600160a01b03813581169160208101359091169060400135610cdd565b6103516004803603602081101561042b57600080fd5b81019060208101813564010000000081111561044657600080fd5b82018360208201111561045857600080fd5b8035906020019184602083028401116401000000008311171561047a57600080fd5b509092509050610d6a565b6103816004803603602081101561049b57600080fd5b50356001600160a01b0316610e13565b6104b3610e96565b6040805160ff9092168252519081900360200190f35b610351600480360360408110156104df57600080fd5b506001600160a01b0381358116916020013516610e9f565b6103176004803603604081101561050d57600080fd5b506001600160a01b038135169060200135610f05565b6103516004803603604081101561053957600080fd5b506001600160a01b038135169060200135610f59565b6105756004803603602081101561056557600080fd5b50356001600160a01b0316611136565b604080516001600160a01b039092168252519081900360200190f35b610317600480360360408110156105a757600080fd5b506001600160a01b038135169060200135611154565b6105e3600480360360208110156105d357600080fd5b50356001600160a01b03166111ef565b6040805192835260208301919091528051918290030190f35b610575611279565b6103516004803603606081101561061a57600080fd5b506001600160a01b03813516906020810135906040013561128d565b6103816004803603602081101561064c57600080fd5b50356001600160a01b031661134f565b6103516004803603602081101561067257600080fd5b50356001600160a01b0316611402565b6103516004803603602081101561069857600080fd5b50356001600160a01b0316611456565b6106ce600480360360208110156106be57600080fd5b50356001600160a01b03166114aa565b604080516001600160a01b03938416815291909216602082015281519081900390910190f35b6103176004803603602081101561070a57600080fd5b50356001600160a01b03166114f7565b6103516004803603604081101561073057600080fd5b506001600160a01b0381358116916020013516611568565b6103516004803603604081101561075e57600080fd5b506001600160a01b0381351690602001356115e0565b6105e36004803603602081101561078a57600080fd5b50356001600160a01b03166117bf565b61027661180c565b610317600480360360408110156107b857600080fd5b506001600160a01b03813516906020013561186d565b610317600480360360408110156107e457600080fd5b506001600160a01b0381351690602001356118db565b6106ce6004803603602081101561081057600080fd5b50356001600160a01b03166118ef565b6108466004803603602081101561083657600080fd5b50356001600160a01b031661193c565b604080519485526020850193909352838301919091526060830152519081900360800190f35b6103816004803603602081101561088257600080fd5b50356001600160a01b03166119a2565b6103816119ad565b610351600480360360208110156108b057600080fd5b50356001600160a01b03166119b3565b610351600480360360208110156108d657600080fd5b50356001600160a01b0316611a07565b610351600480360360208110156108fc57600080fd5b5035611a5b565b6103816004803603604081101561091957600080fd5b506001600160a01b0381358116916020013516611d70565b6105756004803603602081101561094757600080fd5b50356001600160a01b0316611d9b565b6103816004803603602081101561096d57600080fd5b50356001600160a01b0316611db6565b610351611dd1565b6103516004803603604081101561099b57600080fd5b506001600160a01b0381358116916020013516611e37565b610351600480360360608110156109c957600080fd5b506001600160a01b03813581169160208101359091169060400135611e93565b60688054604080516020601f6002600019610100600188161502019095169490940493840181900481028201810190925282815260609390929091830182828015610a755780601f10610a4a57610100808354040283529160200191610a75565b820191906000526020600020905b815481529060010190602001808311610a5857829003601f168201915b505050505090505b90565b6000610a94610a8d611ee7565b8484611eeb565b5060015b92915050565b610aa83382611fd7565b50565b6001600160a01b038116331415610af35760405162461bcd60e51b81526004018080602001828103825260258152602001806130936025913960400191505060405180910390fd5b3360008181526073602052604080822080546001600160a01b0319166001600160a01b03861690811790915590519092917fc2d6a42a9d5273283f73009a07aacfb043f2f91173a8d9d33b504afe898db08b91a350565b600080610b556121c6565b905080610b66576000915050610a7d565b606c54606a5460408051632b0475e160e01b81526001600160a01b03610100909304831660048201529051610c0693610c01931691632b0475e1916024808301926020929190829003018186803b158015610bc057600080fd5b505afa158015610bd4573d6000803e3d6000fd5b505050506040513d6020811015610bea57600080fd5b5051610bf5846121cc565b9063ffffffff6121e216565b61222d565b91505090565b6001600160a01b0381166000908152607260205260409020545b919050565b606c546001600160a01b03163314610c745760405162461bcd60e51b81526004018080602001828103825260398152602001806132346039913960400191505060405180910390fd5b606f5460408051631e77d68b60e01b81526001600160a01b03848116600483015291519190921691631e77d68b91602480830192600092919082900301818387803b158015610cc257600080fd5b505af1158015610cd6573d6000803e3d6000fd5b5050505050565b6000610cea848484612246565b610d6084610cf6611ee7565b610d5b856040518060600160405280602881526020016130d9602891396001600160a01b038a16600090815260346020526040812090610d34611ee7565b6001600160a01b03168152602081019190915260400160002054919063ffffffff6122ae16565b611eeb565b5060019392505050565b60005b81811015610e0e57606f546001600160a01b031663ad0f5fa9848484818110610d9257fe5b905060200201356001600160a01b03166040518263ffffffff1660e01b815260040180826001600160a01b03166001600160a01b03168152602001915050600060405180830381600087803b158015610dea57600080fd5b505af1158015610dfe573d6000803e3d6000fd5b505060019092019150610d6d9050565b505050565b606f5460408051632eaae3c760e01b81526001600160a01b03848116600483015291516000939290921691632eaae3c791602480820192602092909190829003018186803b158015610e6457600080fd5b505afa158015610e78573d6000803e3d6000fd5b505050506040513d6020811015610e8e57600080fd5b505192915050565b606a5460ff1690565b6001600160a01b03828116600090815260736020526040902054163314610ef75760405162461bcd60e51b815260040180806020018281038252603a815260200180613292603a913960400191505060405180910390fd5b610f018282611fd7565b5050565b6000610a94610f12611ee7565b84610d5b8560346000610f23611ee7565b6001600160a01b03908116825260208083019390935260409182016000908120918c16815292529020549063ffffffff61234516565b606d546001600160a01b03163314610fa25760405162461bcd60e51b8152600401808060200182810382526034815260200180612f636034913960400191505060405180910390fd5b6000806000610fb08561239f565b606f54604080516383d6599560e01b81526001600160a01b038c81166004830152602482018690526044820187905291519599509397509195501692506383d6599591606480830192600092919082900301818387803b15801561101357600080fd5b505af1158015611027573d6000803e3d6000fd5b50505050611036858386612496565b606f546040805163c1da31c760e01b81526001600160a01b03888116600483015260248201869052604482018890529151919092169163c1da31c791606480830192600092919082900301818387803b15801561109257600080fd5b505af11580156110a6573d6000803e3d6000fd5b505050506110b485856125d5565b60006110c6848663ffffffff6126d116565b6110d6576110d386612713565b90505b856001600160a01b03167f90e5d3d68ec162d9c7de393037a3ede04dd44f68e051bf2ace4a73c299dbc4db86858461110e5785611111565b60005b60408051938452602084019290925282820152519081900360600190a2505050505050565b6001600160a01b039081166000908152607160205260409020541690565b606e54606a54604080516376e9d61560e01b81526101009092046001600160a01b039081166004840152858116602484015260448301859052905160009391909116916376e9d615916064808301926020929190829003018186803b1580156111bc57600080fd5b505afa1580156111d0573d6000803e3d6000fd5b505050506040513d60208110156111e657600080fd5b50519392505050565b606f54604080516365b5820b60e01b81526001600160a01b038481166004830152825160009485949216926365b5820b926024808301939192829003018186803b15801561123c57600080fd5b505afa158015611250573d6000803e3d6000fd5b505050506040513d604081101561126657600080fd5b5080516020909101519094909350915050565b606a5461010090046001600160a01b031681565b606c546001600160a01b031633146112d65760405162461bcd60e51b81526004018080602001828103825260398152602001806132346039913960400191505060405180910390fd5b606f54604080516367e6aeed60e01b81526001600160a01b0386811660048301526024820186905260448201859052915191909216916367e6aeed91606480830192600092919082900301818387803b15801561133257600080fd5b505af1158015611346573d6000803e3d6000fd5b50505050505050565b60008061135b836127c5565b6001600160a01b03841660009081526072602052604090205490915081158015611383575080155b1561139357600092505050610c26565b6001600160a01b03848116600090815260716020526040902054166113e4576113db816113cf866113ca868463ffffffff61234516565b6127e0565b9063ffffffff6126d116565b92505050610c26565b6113db6113f5826113cf87856127e0565b839063ffffffff61234516565b606f54604080516333aa994f60e11b81523360048201526001600160a01b03848116602483015291519190921691636755329e91604480830192600092919082900301818387803b158015610cc257600080fd5b606f5460408051636e44ed0560e11b81523360048201526001600160a01b0384811660248301529151919092169163dc89da0a91604480830192600092919082900301818387803b158015610cc257600080fd5b606f5460408051634219411560e11b81526001600160a01b03848116600483015282516000948594921692638432822a926024808301939192829003018186803b15801561123c57600080fd5b606c546000906001600160a01b031633146115435760405162461bcd60e51b815260040180806020018281038252602d815260200180613207602d913960400191505060405180910390fd5b50606f80546001600160a01b0383166001600160a01b03199091161790556001919050565b606f546040805163bddf379560e01b81523360048201526001600160a01b03858116602483015284811660448301529151919092169163bddf379591606480830192600092919082900301818387803b1580156115c457600080fd5b505af11580156115d8573d6000803e3d6000fd5b505050505050565b606d546001600160a01b031633146116295760405162461bcd60e51b8152600401808060200182810382526034815260200180612f636034913960400191505060405180910390fd5b60008060006116378561239f565b606f54604080516383d6599560e01b81526001600160a01b038c81166004830152602482018690526044820187905291519599509397509195501692506383d6599591606480830192600092919082900301818387803b15801561169a57600080fd5b505af11580156116ae573d6000803e3d6000fd5b505050506116d0856116c9868561234590919063ffffffff16565b6000612496565b606f546001600160a01b031663c1da31c7866116f2858863ffffffff61234516565b60006040518463ffffffff1660e01b815260040180846001600160a01b03166001600160a01b031681526020018381526020018281526020019350505050600060405180830381600087803b15801561174a57600080fd5b505af115801561175e573d6000803e3d6000fd5b5050505061176c8585612895565b604080518581526020810184905280820183905290516001600160a01b038716917fbe7799898ca2d813ff902b487c1b434ab45b47edd8f38b77ad5e99aae8341b7a919081900360600190a25050505050565b606f546040805163950514b360e01b81526001600160a01b0384811660048301528251600094859492169263950514b3926024808301939192829003018186803b15801561123c57600080fd5b60698054604080516020601f6002600019610100600188161502019095169490940493840181900481028201810190925282815260609390929091830182828015610a755780601f10610a4a57610100808354040283529160200191610a75565b6000610a9461187a611ee7565b84610d5b8560405180606001604052806025815260200161326d60259139603460006118a4611ee7565b6001600160a01b03908116825260208083019390935260409182016000908120918d1681529252902054919063ffffffff6122ae16565b6000610a946118e8611ee7565b8484612246565b606f546040805163bf7814cb60e01b81526001600160a01b0384811660048301528251600094859492169263bf7814cb926024808301939192829003018186803b15801561123c57600080fd5b606f546000908190819081906001600160a01b0316331461198e5760405162461bcd60e51b815260040180806020018281038252603d815260200180613056603d913960400191505060405180910390fd5b6119978561239f565b505050509193509193565b6000610a98826127c5565b60001981565b606f54604080516305b8d6d960e51b81523360048201526001600160a01b0384811660248301529151919092169163b71adb2091604480830192600092919082900301818387803b158015610cc257600080fd5b606f5460408051630e810e1360e31b81523360048201526001600160a01b03848116602483015291519190921691637408709891604480830192600092919082900301818387803b158015610cc257600080fd5b60008111611ab0576040805162461bcd60e51b815260206004820181905260248201527f416d6f756e7420746f2072656465656d206e6565647320746f206265203e2030604482015290519081900360640190fd5b6000806000611abe3361239f565b91955093509150849050600019811415611ad55750825b83811115611b145760405162461bcd60e51b8152600401808060200182810382526032815260200180612fdc6032913960400191505060405180910390fd5b611b1e3382611154565b611b6f576040805162461bcd60e51b815260206004820152601b60248201527f5472616e736665722063616e6e6f7420626520616c6c6f7765642e0000000000604482015290519081900360640190fd5b606d54606a546001600160a01b0391821691639895e3d8916101009004163384611b9f898263ffffffff6126d116565b6040518563ffffffff1660e01b815260040180856001600160a01b03166001600160a01b03168152602001846001600160a01b03166001600160a01b03168152602001838152602001828152602001945050505050600060405180830381600087803b158015611c0e57600080fd5b505af1158015611c22573d6000803e3d6000fd5b5050606f54604080516383d6599560e01b8152336004820152602481018890526044810189905290516001600160a01b0390921693506383d65995925060648082019260009290919082900301818387803b158015611c8057600080fd5b505af1158015611c94573d6000803e3d6000fd5b50505050611ca3338483612496565b606f546040805163c1da31c760e01b8152336004820152602481018690526044810184905290516001600160a01b039092169163c1da31c79160648082019260009290919082900301818387803b158015611cfd57600080fd5b505af1158015611d11573d6000803e3d6000fd5b50505050611d1f33826125d5565b6000611d31858363ffffffff6126d116565b611d4157611d3e33612713565b90505b337fbd5034ffbd47e4e72a94baa2cdb74c6fad73cb3bcdc13036b72ec8306f5a764683868461110e5786611111565b6001600160a01b03918216600090815260346020908152604080832093909416825291909152205490565b6073602052600090815260409020546001600160a01b031681565b6001600160a01b031660009081526070602052604090205490565b606f546040805163ad0f5fa960e01b815233600482015290516001600160a01b039092169163ad0f5fa99160248082019260009290919082900301818387803b158015611e1d57600080fd5b505af1158015611e31573d6000803e3d6000fd5b50505050565b606f5460408051638c2de3c360e01b81523360048201526001600160a01b038581166024830152848116604483015291519190921691638c2de3c391606480830192600092919082900301818387803b1580156115c457600080fd5b606d546001600160a01b03163314611edc5760405162461bcd60e51b8152600401808060200182810382526034815260200180612f636034913960400191505060405180910390fd5b610e0e838383612987565b3390565b6001600160a01b038316611f305760405162461bcd60e51b81526004018080602001828103825260248152602001806131e36024913960400191505060405180910390fd5b6001600160a01b038216611f755760405162461bcd60e51b815260040180806020018281038252602281526020018061300e6022913960400191505060405180910390fd5b6001600160a01b03808416600081815260346020908152604080832094871680845294825291829020859055815185815291517f8c5be1e5ebec7d5bd14f71427d1e84f3dd0314c0f7b2291e5b200ac8c7c3b9259281900390910190a3505050565b6001600160a01b0380831660009081526071602052604090205481169082168114156120345760405162461bcd60e51b815260040180806020018281038252602a815260200180613101602a913960400191505060405180910390fd5b6000806000806120438761239f565b93509350935093506000831161208a5760405162461bcd60e51b815260040180806020018281038252604281526020018061312b6042913960600191505060405180910390fd5b6001600160a01b038516156120a5576120a587600086612496565b866001600160a01b0316866001600160a01b03161415612131576001600160a01b038716600081815260716020908152604080832080546001600160a01b03191690558051878152918201869052818101859052519192917f5e3cad45b1fe24159d1cb39788d82d0f69cc15770aa96fba1d3d1a73487355949181900360600190a35050505050610f01565b6001600160a01b03878116600090815260716020526040812080546001600160a01b0319169289169290921790915561216d9088908590612496565b604080518481526020810184905280820183905290516001600160a01b0380891692908a16917f5e3cad45b1fe24159d1cb39788d82d0f69cc15770aa96fba1d3d1a73487355949181900360600190a350505050505050565b60355490565b6000610a9882633b9aca0063ffffffff612ccc16565b60006122266b033b2e3c9fd0803ce800000061221a612207868663ffffffff612ccc16565b6b019d971e4fe8401e7400000090612345565b9063ffffffff612d2516565b9392505050565b6000631dcd6500612226633b9aca0061221a8386612345565b82816122528282611154565b6122a3576040805162461bcd60e51b815260206004820152601b60248201527f5472616e736665722063616e6e6f7420626520616c6c6f7765642e0000000000604482015290519081900360640190fd5b610cd6858585612987565b6000818484111561233d5760405162461bcd60e51b81526004018080602001828103825283818151815260200191508051906020019080838360005b838110156123025781810151838201526020016122ea565b50505050905090810190601f16801561232f5780820380516001836020036101000a031916815260200191505b509250505060405180910390fd5b505050900390565b600082820183811015612226576040805162461bcd60e51b815260206004820152601b60248201527f536166654d6174683a206164646974696f6e206f766572666c6f770000000000604482015290519081900360640190fd5b60008060008060006123b0866127c5565b905060006123c1826113cf8961134f565b905080156123d3576123d38782612895565b606c54606a5460408051632b0475e160e01b81526101009092046001600160a01b03908116600484015290516000939190911691632b0475e1916024808301926020929190829003018186803b15801561242c57600080fd5b505afa158015612440573d6000803e3d6000fd5b505050506040513d602081101561245657600080fd5b50516001600160a01b0389166000908152607060205260409020819055905082612486818463ffffffff61234516565b9099909850919650945092505050565b6001600160a01b0380841660009081526071602052604090205416806124bc5750610e0e565b60006124c78261239f565b506001600160a01b0385166000908152607260205260409020549093506124fc92508591506113cf908763ffffffff61234516565b6001600160a01b0380841660009081526072602090815260408083209490945560719052919091205416801561256f576001600160a01b038116600090815260726020526040902054612555908363ffffffff61234516565b6001600160a01b0382166000908152607260205260409020555b6001600160a01b0383166000818152607260209081526040918290205482519384529083018890528282018790526060830152517f7ea6e700f8671db5969a20e4e56bcffd20a52dfcd1a247de9a0fcb262002d2cf9181900360800190a1505050505050565b6001600160a01b03821661261a5760405162461bcd60e51b815260040180806020018281038252602181526020018061319d6021913960400191505060405180910390fd5b61265d81604051806060016040528060228152602001612fba602291396001600160a01b038516600090815260336020526040902054919063ffffffff6122ae16565b6001600160a01b038316600090815260336020526040902055603554612689908263ffffffff6126d116565b6035556040805182815290516000916001600160a01b038516917fddf252ad1be2c89b69c2b068fc378daa952ba7f163c4a11628f55a4df523b3ef9181900360200190a35050565b600061222683836040518060400160405280601e81526020017f536166654d6174683a207375627472616374696f6e206f766572666c6f7700008152506122ae565b6001600160a01b038116600081815260716020908152604080832080546001600160a01b03191690558051838152918201839052818101839052519192839290917f5e3cad45b1fe24159d1cb39788d82d0f69cc15770aa96fba1d3d1a7348735594919081900360600190a36001600160a01b0382166000908152607260205260409020546127bd57506001600160a01b0381166000908152607060205260408120556001610c26565b506000610c26565b6001600160a01b031660009081526033602052604090205490565b6001600160a01b03808316600090815260706020908152604080832054606c54606a548351632b0475e160e01b8152610100909104871660048201529251949561222695610c01959394612889949390921692632b0475e19260248082019391829003018186803b15801561285457600080fd5b505afa158015612868573d6000803e3d6000fd5b505050506040513d602081101561287e57600080fd5b5051610bf5876121cc565b9063ffffffff612d6716565b6001600160a01b0382166128f0576040805162461bcd60e51b815260206004820152601f60248201527f45524332303a206d696e7420746f20746865207a65726f206164647265737300604482015290519081900360640190fd5b603554612903908263ffffffff61234516565b6035556001600160a01b03821660009081526033602052604090205461292f908263ffffffff61234516565b6001600160a01b03831660008181526033602090815260408083209490945583518581529351929391927fddf252ad1be2c89b69c2b068fc378daa952ba7f163c4a11628f55a4df523b3ef9281900390910190a35050565b600081116129c65760405162461bcd60e51b815260040180806020018281038252603081526020018061316d6030913960400191505060405180910390fd5b60008060006129d48661239f565b9350935093505060008060006129e98861239f565b93509350935050606f60009054906101000a90046001600160a01b03166001600160a01b03166383d659958a87896040518463ffffffff1660e01b815260040180846001600160a01b03166001600160a01b031681526020018381526020018281526020019350505050600060405180830381600087803b158015612a6d57600080fd5b505af1158015612a81573d6000803e3d6000fd5b5050606f54604080516383d6599560e01b81526001600160a01b038d81166004830152602482018890526044820189905291519190921693506383d659959250606480830192600092919082900301818387803b158015612ae157600080fd5b505af1158015612af5573d6000803e3d6000fd5b50505050612b04898689612496565b606f546040805163c1da31c760e01b81526001600160a01b038c8116600483015260248201899052604482018b90529151919092169163c1da31c791606480830192600092919082900301818387803b158015612b6057600080fd5b505af1158015612b74573d6000803e3d6000fd5b50505050612b8f886116c9898561234590919063ffffffff16565b606f546001600160a01b031663c1da31c789612bb1858b63ffffffff61234516565b60006040518463ffffffff1660e01b815260040180846001600160a01b03166001600160a01b031681526020018381526020018281526020019350505050600060405180830381600087803b158015612c0957600080fd5b505af1158015612c1d573d6000803e3d6000fd5b50505050612c2c898989612d9f565b6000612c3e878963ffffffff6126d116565b612c4e57612c4b8a612713565b90505b886001600160a01b03168a6001600160a01b03167f89a178eaa27e0cd201bd795ca8ff716ac0df9618494510ca79771cfc66ffcde88a898786612c91578a612c94565b60005b60408051948552602085019390935283830191909152606083015260808201879052519081900360a00190a350505050505050505050565b600082612cdb57506000610a98565b82820282848281612ce857fe5b04146122265760405162461bcd60e51b81526004018080602001828103825260218152602001806130b86021913960400191505060405180910390fd5b600061222683836040518060400160405280601a81526020017f536166654d6174683a206469766973696f6e206279207a65726f000000000000815250612efd565b600060028204612d978361221a612d8a876b033b2e3c9fd0803ce8000000612ccc565b849063ffffffff61234516565b949350505050565b6001600160a01b038316612de45760405162461bcd60e51b81526004018080602001828103825260258152602001806131be6025913960400191505060405180910390fd5b6001600160a01b038216612e295760405162461bcd60e51b8152600401808060200182810382526023815260200180612f976023913960400191505060405180910390fd5b612e6c81604051806060016040528060268152602001613030602691396001600160a01b038616600090815260336020526040902054919063ffffffff6122ae16565b6001600160a01b038085166000908152603360205260408082209390935590841681522054612ea1908263ffffffff61234516565b6001600160a01b0380841660008181526033602090815260409182902094909455805185815290519193928716927fddf252ad1be2c89b69c2b068fc378daa952ba7f163c4a11628f55a4df523b3ef92918290030190a3505050565b60008183612f4c5760405162461bcd60e51b81526020600482018181528351602484015283519092839260449091019190850190808383600083156123025781810151838201526020016122ea565b506000838581612f5857fe5b049594505050505056fe5468652063616c6c6572206f6620746869732066756e6374696f6e206d75737420626520746865206c656e64696e6720706f6f6c45524332303a207472616e7366657220746f20746865207a65726f206164647265737345524332303a206275726e20616d6f756e7420657863656564732062616c616e6365557365722063616e6e6f742072656465656d206d6f7265207468616e2074686520617661696c61626c652062616c616e636545524332303a20617070726f766520746f20746865207a65726f206164647265737345524332303a207472616e7366657220616d6f756e7420657863656564732062616c616e63655468652063616c6c6572206f6620746869732066756e6374696f6e206d757374206265207468652024534947482053747265616d20436f6e7472616374557365722063616e6e6f74206769766520616c6c6f77616e636520746f2068696d73656c66536166654d6174683a206d756c7469706c69636174696f6e206f766572666c6f7745524332303a207472616e7366657220616d6f756e74206578636565647320616c6c6f77616e6365496e74657265737420697320616c7265616479207265646972656374656420746f207468652075736572496e7465726573742073747265616d2063616e206f6e6c79206265207265646972656374656420696620746865726520697320612076616c69642062616c616e63655472616e7366657272656420616d6f756e74206e6565647320746f2062652067726561746572207468616e207a65726f45524332303a206275726e2066726f6d20746865207a65726f206164647265737345524332303a207472616e736665722066726f6d20746865207a65726f206164647265737345524332303a20617070726f76652066726f6d20746865207a65726f20616464726573734f6e6c79204c656e64696e6720506f6f6c20436f72652063616e2063616c6c20746869732066756e6374696f6e5468652063616c6c6572206f6620746869732066756e6374696f6e206d75737420626520746865206c656e64696e6720706f6f6c20436f726545524332303a2064656372656173656420616c6c6f77616e63652062656c6f77207a65726f43616c6c6572206973206e6f7420616c6c6f77656420746f2072656469726563742074686520696e746572657374206f66207468652075736572a265627a7a723158203af9fe7b2681c1ec42ff99035d9d7d1a262cc46b544e0b32553c0fe2ee0757ff64736f6c63430005100032",
  "source": "pragma solidity ^0.5.0;\n\nimport \"openzeppelin-solidity/contracts/token/ERC20/ERC20.sol\";\nimport \"openzeppelin-solidity/contracts/token/ERC20/ERC20Detailed.sol\";\n\nimport \"../Configuration/IGlobalAddressesProvider.sol\";\nimport \"./interfaces/ILendingPool.sol\";\nimport \"./interfaces/ILendingPoolDataProvider.sol\";\nimport \"./interfaces/ILendingPoolCore.sol\";\nimport \"./interfaces/ISighStream.sol\";     \n\nimport \"./libraries/WadRayMath.sol\";\n\n/**\n * @title Aave ERC20 Itokens (modified by SIGH Finance)\n *\n * @dev Implementation of the interest bearing token for the protocol.\n * @author Aave, SIGH Finance (modified by SIGH Finance)\n */\ncontract IToken is ERC20, ERC20Detailed {\n\n    using WadRayMath for uint256;\n\n    uint256 public constant UINT_MAX_VALUE = uint256(-1);\n\n    address public underlyingInstrumentAddress;\n\n    IGlobalAddressesProvider private addressesProvider;     // Only used in Constructor()\n    ILendingPoolCore private core;                          // Fetches borrow balances\n    ILendingPool private pool;                              // calls redeem underlying\n    ILendingPoolDataProvider private dataProvider;          // checks if transfer is possible\n    ISighStream private sighStream;                         // SIGH STREAMING FUNCTIONALITY\n\n    mapping (address => uint256) private userIndexes;                       // index values. Taken from core lending pool contract\n    mapping (address => address) private interestRedirectionAddresses;      // Address to which the interest stream is being redirected\n    mapping (address => uint256) private redirectedBalances;\n    mapping (address => address) public interestRedirectionAllowances;     // Address allowed to perform interest redirection by the user\n    \n\n// ########################\n// ######  EVENTS #########\n// ########################\n\n    /**\n    * @dev emitted after the redeem action\n    * @param _from the address performing the redeem\n    * @param _value the amount to be redeemed\n    * @param _fromBalanceIncrease the cumulated balance since the last update of the user\n    * @param _fromIndex the last index of the user\n    **/\n    event Redeem(address indexed _from,uint256 _value, uint256 _fromBalanceIncrease, uint256 _fromIndex);\n\n    /**\n    * @dev emitted after the mint action\n    * @param _from the address performing the mint\n    * @param _value the amount to be minted\n    * @param _fromBalanceIncrease the cumulated balance since the last update of the user\n    * @param _fromIndex the last index of the user\n    **/\n    event MintOnDeposit(address indexed _from, uint256 _value, uint256 _fromBalanceIncrease, uint256 _fromIndex);\n\n    /**\n    * @dev emitted during the liquidation action, when the liquidator reclaims the underlying asset\n    * @param _from the address from which the tokens are being burned\n    * @param _value the amount to be burned\n    * @param _fromBalanceIncrease the cumulated balance since the last update of the user\n    * @param _fromIndex the last index of the user\n    **/\n    event BurnOnLiquidation(address indexed _from, uint256 _value, uint256 _fromBalanceIncrease, uint256 _fromIndex);\n\n    /**\n    * @dev emitted during the transfer action\n    * @param _from the address from which the tokens are being transferred\n    * @param _to the adress of the destination\n    * @param _value the amount to be minted\n    * @param _fromBalanceIncrease the cumulated balance since the last update of the user\n    * @param _toBalanceIncrease the cumulated balance since the last update of the destination\n    * @param _fromIndex the last index of the user\n    * @param _toIndex the last index of the liquidator\n    **/\n    event BalanceTransfer( address indexed _from, address indexed _to, uint256 _value, uint256 _fromBalanceIncrease, uint256 _toBalanceIncrease, uint256 _fromIndex, uint256 _toIndex );\n\n\n    // INTEREST STREAMS RELATED EVENTS\n\n    event InterestStreamRedirected( address indexed _from, address indexed _to, uint256 _redirectedBalance, uint256 _fromBalanceIncrease, uint256 _fromIndex);\n    event InterestRedirectionAllowanceChanged( address indexed _from, address indexed _to );\n    event InterestRedirectedBalanceUpdated( address interestRedirectionAddress, uint balanceToAdd, uint balanceToRemove, uint totalRedirectedBalanceForInterest );\n\n\n// ###########################\n// ######  MODIFIERS #########\n// ###########################\n\n    modifier onlyLendingPool {\n        require( msg.sender == address(pool), \"The caller of this function must be the lending pool\");\n        _;\n    }\n\n    modifier onlyLendingPoolCore {\n        require( msg.sender == address(core), \"The caller of this function must be the lending pool Core\");\n        _;\n    }\n\n    modifier whenTransferAllowed(address _from, uint256 _amount) {\n        require(isTransferAllowed(_from, _amount), \"Transfer cannot be allowed.\");\n        _;\n    }\n\n    modifier onlySighStream {\n        require( msg.sender == address(sighStream), \"The caller of this function must be the $SIGH Stream Contract\");\n        _;\n    }\n\n    /**\n     * @dev Used to validate transfers before actually executing them.\n     * @param _user address of the user to check\n     * @param _amount the amount to check\n     * @return true if the _user can transfer _amount, false otherwise\n     **/\n    function isTransferAllowed(address _user, uint256 _amount) public view returns (bool) {\n        return dataProvider.balanceDecreaseAllowed(underlyingInstrumentAddress, _user, _amount);\n    }\n\n// ################################################################################################################################################\n// ######  CONSTRUCTOR ############################################################################################################################\n// ######  1. Sets the underlyingInstrumentAddress, name, symbol, decimals.              ###############################################################\n// ######  2. The GlobalAddressesProvider's address is used to get the LendingPoolCore #######################################################\n// ######     contract address, LendingPool contract address, and the LendingPoolDataProvider contract address and set them.    ###################\n// ################################################################################################################################################\n\n   constructor( address _addressesProvider,  address _underlyingAsset, uint8 _underlyingAssetDecimals, string memory _name, string memory _symbol) public ERC20Detailed(_name, _symbol, _underlyingAssetDecimals) {\n        addressesProvider = IGlobalAddressesProvider(_addressesProvider);\n        core = ILendingPoolCore(addressesProvider.getLendingPoolCore());\n        pool = ILendingPool(addressesProvider.getLendingPool());\n        dataProvider = ILendingPoolDataProvider(addressesProvider.getLendingPoolDataProvider());\n        underlyingInstrumentAddress = _underlyingAsset;\n    }\n\n   function setSighStreamAddress( address _sighStreamAddress )  external returns (bool) {\n       require(msg.sender == address(core),\"Only Lending Pool Core can call this function\");\n        sighStream = ISighStream(_sighStreamAddress);\n        return true;\n   }\n\n// ###############################################################################################\n// ######  MINT NEW ITOKENS ON DEPOST ############################################################\n// ######  1. Can only be called by lendingPool Contract (called after amount is transferred) $$$$\n// ######  2. If interest is being redirected, it adds the amount which is #######################\n// ######     deposited to the increase in balance (through interest) and ########################\n// ######     updates the redirected balance. ####################################################\n// ######  3. It then mints new ITokens  #########################################################\n// ###############################################################################################\n\n    /**\n     * @dev mints token in the event of users depositing the underlying asset into the lending pool. Only lending pools can call this function\n     * @param _account the address receiving the minted tokens\n     * @param _amount the amount of tokens to mint\n     */\n    function mintOnDeposit(address _account, uint256 _amount) external onlyLendingPool {\n        (, uint256 currentCompoundedBalance, uint256 balanceIncrease, uint256 index) = cumulateBalanceInternal(_account);       //calculates new interest generated and mints the ITokens (based on interest)\n        sighStream.accureLiquiditySighStream(_account,balanceIncrease,currentCompoundedBalance);                                                          // ADDED BY SIGH FINANCE (ACCURS SIGH FOR DEPOSITOR)\n\n         //if the user is redirecting his interest / Liquidity $SIGH Stream towards someone else, we update the redirected balance \n         // of the redirection addresses by adding 1. Accrued interest, 2. Amount Deposited\n        updateRedirectedBalanceOfRedirectionAddressesInternal(_account, balanceIncrease.add(_amount), 0);\n        sighStream.updateRedirectedBalanceOfLiquiditySIGHStreamRedirectionAddress(_account,balanceIncrease.add(_amount),0);\n        _mint(_account, _amount);       //mint an equivalent amount of tokens to cover the new deposit\n\n        emit MintOnDeposit(_account, _amount, balanceIncrease, index);\n    }\n\n// ###########################################################################################################################\n// ######  REDEEM UNDERLYING TOKENS ##########################################################################################\n// ######  1. If interest is being redirected, it adds the increase in balance (through interest) and ########################\n// ######     subtracts the amount to be redeemed to the redirected balance. #################################################\n// ######  2. It then burns the ITokens equal to amount to be redeemed  ###################################################### \n// ######  3. It then calls redeemUnderlying function of lendingPool Contract to transfer the underlying amount  #############\n// #########################################################\n\n    /**\n    * @dev redeems Itoken for the underlying asset\n    * @param _amount the amount being redeemed\n    **/\n    function redeem(uint256 _amount) external {\n\n        require(_amount > 0, \"Amount to redeem needs to be > 0\");\n        \n        (, uint256 currentBalance, uint256 balanceIncrease, uint256 index) = cumulateBalanceInternal(msg.sender);   //cumulates the balance of the user\n        uint256 amountToRedeem = _amount;\n\n        //if amount is equal to uint(-1), the user wants to redeem everything\n        if(_amount == UINT_MAX_VALUE){\n            amountToRedeem = currentBalance;\n        }\n\n        require(amountToRedeem <= currentBalance, \"User cannot redeem more than the available balance\");\n        require(isTransferAllowed(msg.sender, amountToRedeem), \"Transfer cannot be allowed.\");       //check that the user is allowed to redeem the amount\n\n        pool.redeemUnderlying( underlyingInstrumentAddress, msg.sender, amountToRedeem, currentBalance.sub(amountToRedeem) );   // executes redeem of the underlying asset\n        sighStream.accureLiquiditySighStream(msg.sender,balanceIncrease,currentBalance );                                                          // ADDED BY SIGH FINANCE (ACCURS SIGH FOR REDEEMER)\n\n        //if the user is redirecting his interest towards someone else,\n        //we update the redirected balance of the redirection address by adding the accrued interest, and removing the amount to redeem\n        updateRedirectedBalanceOfRedirectionAddressesInternal(msg.sender, balanceIncrease, amountToRedeem);\n        sighStream.updateRedirectedBalanceOfLiquiditySIGHStreamRedirectionAddress(msg.sender, balanceIncrease, amountToRedeem);\n\n        _burn(msg.sender, amountToRedeem);      // burns tokens equivalent to the amount requested\n\n        bool userIndexReset = false;\n        \n        if(currentBalance.sub(amountToRedeem) == 0){        //reset the user data if the remaining balance is 0\n            userIndexReset = resetDataOnZeroBalanceInternal(msg.sender);\n        }\n\n        emit Redeem(msg.sender, amountToRedeem, balanceIncrease, userIndexReset ? 0 : index);\n    }\n\n// #########################################################################################################\n// ######  BURN ITOKENS WHEN LIQUIDATION OCCURS ############################################################\n// ######  1. Can only be called by lendingPool Contract  ##################################################\n// ######  1. If interest is being redirected, it adds the increase in balance (through interest) and  #####\n// ######     subtracts the amount to be burnt to the redirected balance. ##################################\n// ######  2. It then burns the ITokens equal to amount to be burnt   ######################################\n// #########################################################################################################\n\n    /**\n     * @dev burns token in the event of a borrow being liquidated, in case the liquidators reclaims the underlying asset\n     * Transfer of the liquidated asset is executed by the lending pool contract.\n     * only lending pools can call this function\n     * @param _account the address from which burn the Itokens\n     * @param _value the amount to burn\n     **/\n    function burnOnLiquidation(address _account, uint256 _value) external onlyLendingPool {\n        (,uint256 accountBalance,uint256 balanceIncrease,uint256 index) = cumulateBalanceInternal(_account);    //cumulates the balance of the user being liquidated\n        sighStream.accureLiquiditySighStream(_account,balanceIncrease,accountBalance);                                                          // ADDED BY SIGH FINANCE (ACCURS SIGH FOR REDEEMER)\n\n        //adds the accrued interest and substracts the burned amount to the redirected balance\n        updateRedirectedBalanceOfRedirectionAddressesInternal(_account, balanceIncrease, _value);\n        sighStream.updateRedirectedBalanceOfLiquiditySIGHStreamRedirectionAddress(_account, balanceIncrease, _value);\n        _burn(_account, _value);        //burns the requested amount of tokens\n\n        bool userIndexReset = false;\n        if(accountBalance.sub(_value) == 0){        //reset the user data if the remaining balance is 0\n            userIndexReset = resetDataOnZeroBalanceInternal(_account);\n        }\n\n        emit BurnOnLiquidation(_account, _value, balanceIncrease, userIndexReset ? 0 : index);\n    }\n\n// ##################################################################################################################################################################\n// ######  TRANSFER FUNCTIONALITY ###################################################################################################################################\n// ######  1. transferOnLiquidation() : Can only be called by lendingPool Contract. Called to transfer Collateral when liquidating  #################################\n// ######  2. _transfer() : Over-rides the internal _transfer() called by the ERC20's transfer() & transferFrom() ###################################################\n// ######  3. executeTransferInternal() --> It actually executes the transfer. Accures interest and updates redirected balances before executing transfer.  #########\n// ##################################################################################################################################################################\n\n    /**\n     * @dev transfers tokens in the event of a borrow being liquidated, in case the liquidators reclaims the Itoken  only lending pools can call this function\n     * @param _from the address from which transfer the Itokens\n     * @param _to the destination address\n     * @param _value the amount to transfer\n     **/\n    function transferOnLiquidation(address _from, address _to, uint256 _value) external onlyLendingPool {\n        executeTransferInternal(_from, _to, _value);\n    }\n\n    /**\n     * @notice ERC20 implementation internal function backing transfer() and transferFrom()\n     * @dev validates the transfer before allowing it. NOTE: This is not standard ERC20 behavior\n     **/\n    function _transfer(address _from, address _to, uint256 _amount) internal whenTransferAllowed(_from, _amount) {\n        executeTransferInternal(_from, _to, _amount);\n    }\n\n    /**\n    * @dev executes the transfer of Itokens, invoked by both _transfer() and transferOnLiquidation()\n    * @param _from the address from which transfer the Itokens\n    * @param _to the destination address\n    * @param _value the amount to transfer\n    **/\n    function executeTransferInternal( address _from, address _to,  uint256 _value) internal {\n        require(_value > 0, \"Transferred amount needs to be greater than zero\");\n        (, uint256 fromBalance, uint256 fromBalanceIncrease, uint256 fromIndex ) = cumulateBalanceInternal(_from);   //cumulate the balance of the sender\n        (, uint256 toBalance, uint256 toBalanceIncrease, uint256 toIndex ) = cumulateBalanceInternal(_to);       //cumulate the balance of the receiver\n\n        sighStream.accureLiquiditySighStream(_from, fromBalanceIncrease, fromBalance);                                                          // ADDED BY SIGH FINANCE (ACCURS SIGH FOR From Account)\n        sighStream.accureLiquiditySighStream(_to, toBalanceIncrease, toBalance);                                                            // ADDED BY SIGH FINANCE (ACCURS SIGH FOR To Account)\n        \n        //if the sender is redirecting his interest towards someone else, adds to the redirected balance the accrued interest and removes the amount being transferred\n        updateRedirectedBalanceOfRedirectionAddressesInternal(_from, fromBalanceIncrease, _value);\n        sighStream.updateRedirectedBalanceOfLiquiditySIGHStreamRedirectionAddress(_from, fromBalanceIncrease, _value);\n\n        //if the receiver is redirecting his $SIGH Liquidity Stream towards someone else, adds to the redirected balance the accrued interest and the amount being transferred\n        updateRedirectedBalanceOfRedirectionAddressesInternal(_to, toBalanceIncrease.add(_value), 0);\n        sighStream.updateRedirectedBalanceOfLiquiditySIGHStreamRedirectionAddress(_to, toBalanceIncrease.add(_value), 0);\n\n        super._transfer(_from, _to, _value);        //performs the transfer\n\n        bool fromIndexReset = false;\n        \n        if(fromBalance.sub(_value) == 0){           //reset the user data if the remaining balance is 0\n            fromIndexReset = resetDataOnZeroBalanceInternal(_from);\n        }\n\n        emit BalanceTransfer(  _from, _to, _value, fromBalanceIncrease, toBalanceIncrease, fromIndexReset ? 0 : fromIndex, toIndex);\n    }\n\n\n\n// ###########################################################################################################################################################\n// ###########################################################################################################################################################\n// ###########################################################################################################################################################\n// ###########################################################################################################################################################\n// ###########################################################################################################################################################\n// ###########################################################################################################################################################\n// ###########################################################################################################################################################\n// ###########################################################################################################################################################\n// ###########################################################################################################################################################\n// ###########################################################################################################################################################\n// ######  REDIRECTING INTEREST STREAMS: FUNCTIONALITY #######################################################################################################\n// ######  1. redirectInterestStream() : User himself redirects his interest stream.  ########################################################################\n// ######  2. allowInterestRedirectionTo() : User gives the permission of redirecting the interest stream to another account  ################################ \n// ######  2. redirectInterestStreamOf() : When account given the permission to redirect interest stream (by the user) redirects the stream.  ################\n// ######  3. redirectInterestStreamInternal() --> Executes the redirecting of the interest stream  ##########################################################\n// ###########################################################################################################################################################\n// ###########################################################################################################################################################\n// ###########################################################################################################################################################\n// ###########################################################################################################################################################\n// ###########################################################################################################################################################\n// ###########################################################################################################################################################\n// ###########################################################################################################################################################\n// ###########################################################################################################################################################\n// ###########################################################################################################################################################\n// ###########################################################################################################################################################\n\n    /**\n    * @dev redirects the interest generated to a target address. When the interest is redirected, the user balance is added to the recepient redirected balance.\n    * @param _to the address to which the interest will be redirected\n    **/\n    function redirectInterestStream(address _to) external {\n        redirectInterestStreamInternal(msg.sender, _to);\n    }\n\n    /**\n    * @dev gives allowance to an address to execute the interest redirection on behalf of the caller.\n    * @param _to the address to which the interest will be redirected. Pass address(0) to reset the allowance.\n    **/\n    function allowInterestRedirectionTo(address _to) external {\n        require(_to != msg.sender, \"User cannot give allowance to himself\");\n        interestRedirectionAllowances[msg.sender] = _to;\n        emit InterestRedirectionAllowanceChanged( msg.sender, _to);\n    }\n\n    /**\n    * @dev redirects the interest generated by _from to a target address.\n    * The caller needs to have allowance on the interest redirection to be able to execute the function.\n    * @param _from the address of the user whom interest is being redirected\n    * @param _to the address to which the interest will be redirected\n    **/\n    function redirectInterestStreamOf(address _from, address _to) external {\n        require( msg.sender == interestRedirectionAllowances[_from], \"Caller is not allowed to redirect the interest of the user\");\n        redirectInterestStreamInternal(_from,_to);\n    }\n\n\n    /**\n    * @dev executes the redirection of the interest from one address to another.\n    * immediately after redirection, the destination address will start to accrue interest.\n    * @param _from the address from which transfer the Itokens\n    * @param _to the destination address\n    **/\n    function redirectInterestStreamInternal( address _from, address _to) internal {\n\n        address currentRedirectionAddress = interestRedirectionAddresses[_from];\n        require(_to != currentRedirectionAddress, \"Interest is already redirected to the user\");\n\n        (uint256 previousPrincipalBalance, uint256 fromBalance, uint256 balanceIncrease, uint256 fromIndex) = cumulateBalanceInternal(_from);   //accumulates the accrued interest to the principal\n        require(fromBalance > 0, \"Interest stream can only be redirected if there is a valid balance\");\n\n        //if the user is already redirecting the interest to someone, before changing the redirection address we substract the redirected balance of the previous recipient\n        if(currentRedirectionAddress != address(0)){\n            updateRedirectedBalanceOfRedirectionAddressesInternal(_from,0, previousPrincipalBalance);\n        }\n\n        //if the user is redirecting the interest back to himself, we simply set to 0 the interest redirection address\n        if(_to == _from) {\n            interestRedirectionAddresses[_from] = address(0);\n            emit InterestStreamRedirected( _from, address(0), fromBalance, balanceIncrease,fromIndex);\n            return;\n        }\n        \n        interestRedirectionAddresses[_from] = _to;      // set the redirection address to the new recipient\n        updateRedirectedBalanceOfRedirectionAddressesInternal(_from,fromBalance,0);   //adds the user balance to the redirected balance of the destination\n\n        emit InterestStreamRedirected( _from, _to, fromBalance, balanceIncrease, fromIndex);\n    }\n\n// ##################################################################################################################################\n// ### cumulateBalanceInternal( user ) --> returns 4 values and mints the balanceIncrease amount  ###################################\n// ###  1. previousPrincipalBalance : IToken balance of the user  ###################################################################\n// ###  2. newPrincipalBalance : new balance after adding balanceIncrease  ##########################################################\n// ###  3. balanceIncrease : increase in balance based on interest from both principal and redirected interest streams  #############\n// ###  4. index : updated user Index (gets the value from the core lending pool contract)  #########################################\n// ##################################################################################################################################\n\n    function cumulateBalance(address _user) external onlySighStream returns(uint256, uint256, uint256, uint256) {\n     cumulateBalanceInternal(_user);\n    }\n\n    /**\n    * @dev accumulates the accrued interest of the user to the principal balance\n    * @param _user the address of the user for which the interest is being accumulated\n    * @return the previous principal balance, the new principal balance, the balance increase\n    * and the new user index\n    **/\n    function cumulateBalanceInternal(address _user) internal returns(uint256, uint256, uint256, uint256) {\n\n        uint256 previousPrincipalBalance = super.balanceOf(_user);                                         // Current IToken Balance\n        uint256 balanceIncrease = balanceOf(_user).sub(previousPrincipalBalance);                          //calculate the accrued interest since the last accumulation\n        if (balanceIncrease > 0) {\n            _mint(_user, balanceIncrease);                                                                     //mints an amount of tokens equivalent to the amount accumulated\n        }\n        uint256 index = userIndexes[_user] = core.getInstrumentNormalizedIncome(underlyingInstrumentAddress);      //updates the user index\n        return ( previousPrincipalBalance, previousPrincipalBalance.add(balanceIncrease), balanceIncrease, index);\n    }\n\n\n// #########################################################################################################\n// ### updateRedirectedBalanceOfRedirectionAddressesInternal( user ) --> updates the redirected balance of the user\n// #########################################################################################################\n\n    /**\n    * @dev Updates the Interest / Liquidity $SIGH Stream Redirected Balances of the user. If the user is not redirecting anything, nothing is executed.\n    * @param _user the address of the user for which the interest is being accumulated\n    * @param _balanceToAdd the amount to add to the redirected balance\n    * @param _balanceToRemove the amount to remove from the redirected balance\n    **/\n    function updateRedirectedBalanceOfRedirectionAddressesInternal( address _user, uint256 _balanceToAdd, uint256 _balanceToRemove ) internal {\n\n        address redirectionAddress = interestRedirectionAddresses[_user];\n        //if there isn't any redirection, nothing to be done\n        if(redirectionAddress == address(0)){\n            return;\n        }\n\n        //compound balances of the redirected address\n        (,,uint256 balanceIncrease, ) = cumulateBalanceInternal(redirectionAddress);\n\n        //updating the redirected balance\n        redirectedBalances[redirectionAddress] = redirectedBalances[redirectionAddress].add(_balanceToAdd).sub(_balanceToRemove);\n\n        //if the interest of redirectionAddress is also being redirected, we need to update\n        //the redirected balance of the redirection target by adding the balance increase\n        address targetOfRedirectionAddress = interestRedirectionAddresses[redirectionAddress];\n\n        if(targetOfRedirectionAddress != address(0)){\n            redirectedBalances[targetOfRedirectionAddress] = redirectedBalances[targetOfRedirectionAddress].add(balanceIncrease);\n        }\n        emit InterestRedirectedBalanceUpdated( redirectionAddress, _balanceToAdd, _balanceToRemove, redirectedBalances[redirectionAddress] );\n    }\n\n\n\n    /**\n    * @dev calculate the interest accrued by _user on a specific balance\n    * @param _user the address of the user for which the interest is being accumulated\n    * @param _balance the balance on which the interest is calculated\n    * @return the interest rate accrued\n    **/\n    function calculateCumulatedBalanceInternal( address _user,  uint256 _balance) internal view returns (uint256) {\n        return _balance.wadToRay().rayMul(core.getInstrumentNormalizedIncome(underlyingInstrumentAddress)).rayDiv(userIndexes[_user]).rayToWad();\n    }\n\n\n// #################################################\n// #### Called when the user balance becomes 0  ####\n// #################################################\n    /**\n    * @dev function to reset the interest stream redirection and the user index, if the user has no balance left.\n    * @param _user the address of the user\n    * @return true if the user index has also been reset, false otherwise. useful to emit the proper user index value\n    **/\n    function resetDataOnZeroBalanceInternal(address _user) internal returns(bool) {\n        \n        interestRedirectionAddresses[_user] = address(0);       //if the user has 0 principal balance, the interest stream redirection gets reset\n        emit InterestStreamRedirected(_user, address(0),0,0,0);     //emits a InterestStreamRedirected event to notify that the redirection has been reset\n\n        //if the redirected balance is also 0, we clear up the user index\n        if(redirectedBalances[_user] == 0){\n            userIndexes[_user] = 0;\n            return true;\n        }\n        else{\n            return false;\n        }\n    }\n\n// ############################################################\n// #### Getting the State of the Contract (View Functions) ####\n// ############################################################\n\n    /**\n    * @dev calculates the balance of the user, which is the principal balance + interest generated by the principal balance + interest generated by the redirected balance\n    * @param _user the user for which the balance is being calculated\n    * @return the total balance of the user\n    **/\n    function balanceOf(address _user) public view returns(uint256) {\n\n        uint256 currentPrincipalBalance = super.balanceOf(_user);       //current principal balance of the user\n        uint256 redirectedBalance = redirectedBalances[_user];          //balance redirected by other users to _user for interest rate accrual\n\n        if(currentPrincipalBalance == 0 && redirectedBalance == 0) {\n            return 0;\n        }\n\n        // current balance = prev balance + interest on (prev balance + redirected balance)\n        if(interestRedirectionAddresses[_user] == address(0)){\n            return calculateCumulatedBalanceInternal(_user, currentPrincipalBalance.add(redirectedBalance) ).sub(redirectedBalance);\n        }\n        // current balance = prev balance + interest on (redirected balance)\n        else { \n            return currentPrincipalBalance.add( calculateCumulatedBalanceInternal( _user, redirectedBalance ).sub(redirectedBalance) );\n        }\n    }\n\n    /**\n    * @dev returns the principal balance of the user. The principal balance is the last updated stored balance, which does not consider the perpetually accruing interest.\n    * @param _user the address of the user\n    * @return the principal balance of the user\n    **/\n    function principalBalanceOf(address _user) external view returns(uint256) {\n        return super.balanceOf(_user);\n    }\n    \n    /**\n    * @dev calculates the total supply of the specific Itoken. since the balance of every single user increases over time, the total supply does that too.\n    * @return the current total supply\n    **/\n    function totalSupply() public view returns(uint256) {\n        uint256 currentSupplyPrincipal = super.totalSupply();\n        if(currentSupplyPrincipal == 0){\n            return 0;\n        }\n        return currentSupplyPrincipal.wadToRay().rayMul( core.getInstrumentNormalizedIncome(underlyingInstrumentAddress) ).rayToWad();\n    }\n\n    /**\n    * @dev returns the last index of the user, used to calculate the balance of the user\n    * @param _user address of the user\n    * @return the last user index\n    **/\n    function getUserIndex(address _user) external view returns(uint256) {\n        return userIndexes[_user];\n    }\n\n    /**\n    * @dev returns the address to which the interest is redirected\n    * @param _user address of the user\n    * @return 0 if there is no redirection, an address otherwise\n    **/\n    function getInterestRedirectionAddress(address _user) external view returns(address) {\n        return interestRedirectionAddresses[_user];\n    }\n\n    /**\n    * @dev returns the redirected balance of the user. The redirected balance is the balance redirected by other accounts to the user, that is accrueing interest for him.\n    * @param _user address of the user\n    * @return the total redirected balance\n    **/\n    function getRedirectedBalance(address _user) external view returns(uint256) {\n        return redirectedBalances[_user];\n    }\n\n\n// ###########################################################################################################################################################\n// ###########################################################################################################################################################\n// ###########################################################################################################################################################\n// ######  ____ REDIRECTING Liquidity $SIGH STREAMS : FUNCTIONALITY ____     ##############################################################################################################\n// ######  1. redirectLiquiditySIGHStream() [EXTERNAL] : User himself redirects his Liquidity SIGH stream.      #################################################################\n// ######  2. allowLiquiditySIGHRedirectionTo() [EXTERNAL] : User gives the permission of redirecting the Liquidity SIGH stream to another account     ##########################\n// ######  2. redirectLiquiditySIGHStreamOf() [EXTERNAL] : When account given the permission to redirect Liquidity SIGH stream (by the user) redirects the stream.    ###########\n// ######  3. redirectLiquiditySIGHStreamInternal() [INTERNAL] --> Executes the redirecting of the Liquidity SIGH stream    #####################################################\n// ###########################################################################################################################################################\n// ###########################################################################################################################################################\n// ###########################################################################################################################################################\n\n\n    function redirectLiquiditySIGHStream(address _to) external {\n        sighStream.redirectLiquiditySIGHStream(msg.sender, _to);\n    }\n\n    function allowLiquiditySIGHRedirectionTo(address _to) external {\n        sighStream.allowLiquiditySIGHRedirectionTo(msg.sender,_to);\n    }\n\n    function redirectLiquiditySIGHStreamOf(address _from, address _to) external {\n        sighStream.redirectLiquiditySIGHStreamOf(msg.sender, _from, _to );\n    }\n\n\n// ###########################################################################################################################################################\n// ###########################################################################################################################################################\n// ###########################################################################################################################################################\n// ######  ____ REDIRECTING Borrowing $SIGH STREAMS : FUNCTIONALITY ____     ##############################################################################################################\n// ######  1. redirectBorrowingSIGHStream() [EXTERNAL] : User himself redirects his Borrowing SIGH Stream.      #################################################################\n// ######  2. allowBorrowingSIGHRedirectionTo() [EXTERNAL] : User gives the permission of redirecting the Borrowing SIGH Stream to another account     ##########################\n// ######  2. redirectBorrowingSIGHStreamOf() [EXTERNAL] : When account given the permission to redirect Borrowing SIGH Stream (by the user) redirects the stream.    ###########\n// ######  3. redirectBorrowingSIGHStreamInternal() [INTERNAL] --> Executes the redirecting of the Borrowing SIGH Stream    #####################################################\n// ###########################################################################################################################################################\n// ###########################################################################################################################################################\n// ###########################################################################################################################################################\n\n\n    function redirectBorrowingSIGHStream(address _to) external {\n        sighStream.redirectBorrowingSIGHStream(msg.sender, _to);\n    }\n\n    function allowBorrowingSIGHRedirectionTo(address _to) external {\n        sighStream.allowBorrowingSIGHRedirectionTo(msg.sender, _to);\n    }\n\n    function redirectBorrowingSIGHStreamOf(address _from, address _to) external {\n        sighStream.redirectBorrowingSIGHStreamOf(msg.sender, _from, _to);\n    }\n\n\n// ###########################################################################################################################################################\n// ######  ____  Borrowing $SIGH StreamS : FUNCTIONALITY ____     ##############################################################################################################\n// ######  1. updateRedirectedBalanceOfBorrowingSIGHStreamRedirectionAddress() : Addition / Subtraction from the redirected balance of the address to which the user's Borrowing $SIGH Stream is redirected      #################################################################\n// ######  2. accure_SIGH_For_BorrowingStream() : Accure SIGH from the Borrowing $SIGH Streams     ##########################\n// ###########################################################################################################################################################\n\n\n    function updateRedirectedBalanceOfBorrowingSIGHStreamRedirectionAddress( address _user, uint256 _balanceToAdd, uint256 _balanceToRemove ) onlyLendingPoolCore external {\n        sighStream.updateRedirectedBalanceOfBorrowingSIGHStreamRedirectionAddress(_user,_balanceToAdd,_balanceToRemove);\n    }\n\n    function accure_SIGH_For_BorrowingStream( address user) external onlyLendingPoolCore {\n        sighStream.accure_SIGH_For_BorrowingStream(user);\n    }\n\n\n// ###############################################################################################################\n// ###############################################################################################################\n// ############ ______SIGH ACCURING AND STREAMING FUNCTIONS______ ################################################\n// ############ 2. claimMySIGH() [EXTERNAL] : All accured SIGH is transferred to the transacting account.\n// ############ 3. claimSIGH() [EXTERNAL]  : Accepts an array of users. Same as 1 but for array of users.\n// ###############################################################################################################\n// ###############################################################################################################\n\n\n    function claimMySIGH() external {\n        sighStream.claimMySIGH(msg.sender);\n    }\n\n    function claimSIGH(address[] calldata holders ) external {        \n        for (uint i = 0; i < holders.length; i++) {\n            sighStream.claimMySIGH(holders[i]);\n        }\n    }\n\n\n// ###########################################################################\n// ###########################################################################\n// #############  VIEW FUNCTIONS ($SIGH STREAMS RELATED)    ################## \n// ###########################################################################\n// ###########################################################################\n\n\n    function getSighAccured(address account) external view returns (uint) {\n        return sighStream.getSighAccured(account);\n    }\n\n    function getSIGHStreamsRedirectedTo(address user) external view returns (address liquiditySIGHStreamRedirectionAddress,address BorrowingSIGHStreamRedirectionAddress ) {\n        (liquiditySIGHStreamRedirectionAddress, BorrowingSIGHStreamRedirectionAddress) = sighStream.getSIGHStreamsRedirectedTo(user);\n    }\n\n    function getSIGHStreamsAllowances(address user) external view returns (address liquiditySIGHStreamRedirectionAllowance,address BorrowingSIGHStreamRedirectionAllowance ) {\n        (liquiditySIGHStreamRedirectionAllowance, BorrowingSIGHStreamRedirectionAllowance) = sighStream.getSIGHStreamsAllowances(user);\n    }    \n\n    function getSIGHStreamsIndexes(address user) external view returns (uint liquiditySIGHStreamIndex, uint borrowingSIGHStreamIndex) {\n        (liquiditySIGHStreamIndex, borrowingSIGHStreamIndex) = sighStream.getSIGHStreamsIndexes(user);\n    }    \n\n    function getSIGHStreamsRedirectedBalances(address user) external view returns (uint liquiditySIGHStreamRedirectedBalance, uint borrowingSIGHStreamRedirectedBalance ) {\n        (liquiditySIGHStreamRedirectedBalance, borrowingSIGHStreamRedirectedBalance) = sighStream.getSIGHStreamsRedirectedBalances(user);\n    }    \n\n}\n",
  "sourcePath": "/Users/apple/Desktop/GITCOIN/Sigh_Finance/SighFinanceContracts/contracts/LendingProtocolContracts/IToken.sol",
  "compiler": {
    "name": "solc",
    "version": "0.5.16+commit.9c3226ce.Emscripten.clang"
  },
  "schemaVersion": "3.2.4",
  "updatedAt": "2020-12-08T09:42:15.795Z",
  "devdoc": {
    "author": "Aave, SIGH Finance (modified by SIGH Finance)",
    "details": "Implementation of the interest bearing token for the protocol.",
    "methods": {
      "allowInterestRedirectionTo(address)": {
        "details": "gives allowance to an address to execute the interest redirection on behalf of the caller.",
        "params": {
          "_to": "the address to which the interest will be redirected. Pass address(0) to reset the allowance.*"
        }
      },
      "allowance(address,address)": {
        "details": "See {IERC20-allowance}."
      },
      "approve(address,uint256)": {
        "details": "See {IERC20-approve}.     * Requirements:     * - `spender` cannot be the zero address."
      },
      "balanceOf(address)": {
        "details": "calculates the balance of the user, which is the principal balance + interest generated by the principal balance + interest generated by the redirected balance",
        "params": {
          "_user": "the user for which the balance is being calculated"
        },
        "return": "the total balance of the user*"
      },
      "burnOnLiquidation(address,uint256)": {
        "details": "burns token in the event of a borrow being liquidated, in case the liquidators reclaims the underlying asset Transfer of the liquidated asset is executed by the lending pool contract. only lending pools can call this function",
        "params": {
          "_account": "the address from which burn the Itokens",
          "_value": "the amount to burn*"
        }
      },
      "decimals()": {
        "details": "Returns the number of decimals used to get its user representation. For example, if `decimals` equals `2`, a balance of `505` tokens should be displayed to a user as `5,05` (`505 / 10 ** 2`).     * Tokens usually opt for a value of 18, imitating the relationship between Ether and Wei.     * NOTE: This information is only used for _display_ purposes: it in no way affects any of the arithmetic of the contract, including {IERC20-balanceOf} and {IERC20-transfer}."
      },
      "decreaseAllowance(address,uint256)": {
        "details": "Atomically decreases the allowance granted to `spender` by the caller.     * This is an alternative to {approve} that can be used as a mitigation for problems described in {IERC20-approve}.     * Emits an {Approval} event indicating the updated allowance.     * Requirements:     * - `spender` cannot be the zero address. - `spender` must have allowance for the caller of at least `subtractedValue`."
      },
      "getInterestRedirectionAddress(address)": {
        "details": "returns the address to which the interest is redirected",
        "params": {
          "_user": "address of the user"
        },
        "return": "0 if there is no redirection, an address otherwise*"
      },
      "getRedirectedBalance(address)": {
        "details": "returns the redirected balance of the user. The redirected balance is the balance redirected by other accounts to the user, that is accrueing interest for him.",
        "params": {
          "_user": "address of the user"
        },
        "return": "the total redirected balance*"
      },
      "getUserIndex(address)": {
        "details": "returns the last index of the user, used to calculate the balance of the user",
        "params": {
          "_user": "address of the user"
        },
        "return": "the last user index*"
      },
      "increaseAllowance(address,uint256)": {
        "details": "Atomically increases the allowance granted to `spender` by the caller.     * This is an alternative to {approve} that can be used as a mitigation for problems described in {IERC20-approve}.     * Emits an {Approval} event indicating the updated allowance.     * Requirements:     * - `spender` cannot be the zero address."
      },
      "isTransferAllowed(address,uint256)": {
        "details": "Used to validate transfers before actually executing them.",
        "params": {
          "_amount": "the amount to check",
          "_user": "address of the user to check"
        },
        "return": "true if the _user can transfer _amount, false otherwise*"
      },
      "mintOnDeposit(address,uint256)": {
        "details": "mints token in the event of users depositing the underlying asset into the lending pool. Only lending pools can call this function",
        "params": {
          "_account": "the address receiving the minted tokens",
          "_amount": "the amount of tokens to mint"
        }
      },
      "name()": {
        "details": "Returns the name of the token."
      },
      "principalBalanceOf(address)": {
        "details": "returns the principal balance of the user. The principal balance is the last updated stored balance, which does not consider the perpetually accruing interest.",
        "params": {
          "_user": "the address of the user"
        },
        "return": "the principal balance of the user*"
      },
      "redeem(uint256)": {
        "details": "redeems Itoken for the underlying asset",
        "params": {
          "_amount": "the amount being redeemed*"
        }
      },
      "redirectInterestStream(address)": {
        "details": "redirects the interest generated to a target address. When the interest is redirected, the user balance is added to the recepient redirected balance.",
        "params": {
          "_to": "the address to which the interest will be redirected*"
        }
      },
      "redirectInterestStreamOf(address,address)": {
        "details": "redirects the interest generated by _from to a target address. The caller needs to have allowance on the interest redirection to be able to execute the function.",
        "params": {
          "_from": "the address of the user whom interest is being redirected",
          "_to": "the address to which the interest will be redirected*"
        }
      },
      "symbol()": {
        "details": "Returns the symbol of the token, usually a shorter version of the name."
      },
      "totalSupply()": {
        "details": "calculates the total supply of the specific Itoken. since the balance of every single user increases over time, the total supply does that too.",
        "return": "the current total supply*"
      },
      "transfer(address,uint256)": {
        "details": "See {IERC20-transfer}.     * Requirements:     * - `recipient` cannot be the zero address. - the caller must have a balance of at least `amount`."
      },
      "transferFrom(address,address,uint256)": {
        "details": "See {IERC20-transferFrom}.     * Emits an {Approval} event indicating the updated allowance. This is not required by the EIP. See the note at the beginning of {ERC20};     * Requirements: - `sender` and `recipient` cannot be the zero address. - `sender` must have a balance of at least `amount`. - the caller must have allowance for `sender`'s tokens of at least `amount`."
      },
      "transferOnLiquidation(address,address,uint256)": {
        "details": "transfers tokens in the event of a borrow being liquidated, in case the liquidators reclaims the Itoken  only lending pools can call this function",
        "params": {
          "_from": "the address from which transfer the Itokens",
          "_to": "the destination address",
          "_value": "the amount to transfer*"
        }
      }
    },
    "title": "Aave ERC20 Itokens (modified by SIGH Finance)"
  },
  "userdoc": {
    "methods": {}
  }
}