{
  "contractName": "IToken",
  "abi": [
    {
      "inputs": [
        {
          "internalType": "address",
          "name": "_addressesProvider",
          "type": "address"
        },
        {
          "internalType": "address",
          "name": "_underlyingAsset",
          "type": "address"
        },
        {
          "internalType": "uint8",
          "name": "_underlyingAssetDecimals",
          "type": "uint8"
        },
        {
          "internalType": "string",
          "name": "_name",
          "type": "string"
        },
        {
          "internalType": "string",
          "name": "_symbol",
          "type": "string"
        }
      ],
      "payable": false,
      "stateMutability": "nonpayable",
      "type": "constructor"
    },
    {
      "anonymous": false,
      "inputs": [
        {
          "indexed": true,
          "internalType": "address",
          "name": "owner",
          "type": "address"
        },
        {
          "indexed": true,
          "internalType": "address",
          "name": "spender",
          "type": "address"
        },
        {
          "indexed": false,
          "internalType": "uint256",
          "name": "value",
          "type": "uint256"
        }
      ],
      "name": "Approval",
      "type": "event"
    },
    {
      "anonymous": false,
      "inputs": [
        {
          "indexed": true,
          "internalType": "address",
          "name": "_from",
          "type": "address"
        },
        {
          "indexed": true,
          "internalType": "address",
          "name": "_to",
          "type": "address"
        },
        {
          "indexed": false,
          "internalType": "uint256",
          "name": "_value",
          "type": "uint256"
        },
        {
          "indexed": false,
          "internalType": "uint256",
          "name": "_fromBalanceIncrease",
          "type": "uint256"
        },
        {
          "indexed": false,
          "internalType": "uint256",
          "name": "_toBalanceIncrease",
          "type": "uint256"
        },
        {
          "indexed": false,
          "internalType": "uint256",
          "name": "_fromIndex",
          "type": "uint256"
        },
        {
          "indexed": false,
          "internalType": "uint256",
          "name": "_toIndex",
          "type": "uint256"
        }
      ],
      "name": "BalanceTransfer",
      "type": "event"
    },
    {
      "anonymous": false,
      "inputs": [
        {
          "indexed": true,
          "internalType": "address",
          "name": "_from",
          "type": "address"
        },
        {
          "indexed": false,
          "internalType": "uint256",
          "name": "_value",
          "type": "uint256"
        },
        {
          "indexed": false,
          "internalType": "uint256",
          "name": "_fromBalanceIncrease",
          "type": "uint256"
        },
        {
          "indexed": false,
          "internalType": "uint256",
          "name": "_fromIndex",
          "type": "uint256"
        }
      ],
      "name": "BurnOnLiquidation",
      "type": "event"
    },
    {
      "anonymous": false,
      "inputs": [
        {
          "indexed": true,
          "internalType": "address",
          "name": "_from",
          "type": "address"
        },
        {
          "indexed": true,
          "internalType": "address",
          "name": "_to",
          "type": "address"
        }
      ],
      "name": "InterestRedirectionAllowanceChanged",
      "type": "event"
    },
    {
      "anonymous": false,
      "inputs": [
        {
          "indexed": true,
          "internalType": "address",
          "name": "_from",
          "type": "address"
        },
        {
          "indexed": true,
          "internalType": "address",
          "name": "_to",
          "type": "address"
        },
        {
          "indexed": false,
          "internalType": "uint256",
          "name": "_redirectedBalance",
          "type": "uint256"
        },
        {
          "indexed": false,
          "internalType": "uint256",
          "name": "_fromBalanceIncrease",
          "type": "uint256"
        },
        {
          "indexed": false,
          "internalType": "uint256",
          "name": "_fromIndex",
          "type": "uint256"
        }
      ],
      "name": "InterestStreamRedirected",
      "type": "event"
    },
    {
      "anonymous": false,
      "inputs": [
        {
          "indexed": true,
          "internalType": "address",
          "name": "_from",
          "type": "address"
        },
        {
          "indexed": false,
          "internalType": "uint256",
          "name": "_value",
          "type": "uint256"
        },
        {
          "indexed": false,
          "internalType": "uint256",
          "name": "_fromBalanceIncrease",
          "type": "uint256"
        },
        {
          "indexed": false,
          "internalType": "uint256",
          "name": "_fromIndex",
          "type": "uint256"
        }
      ],
      "name": "MintOnDeposit",
      "type": "event"
    },
    {
      "anonymous": false,
      "inputs": [
        {
          "indexed": true,
          "internalType": "address",
          "name": "_from",
          "type": "address"
        },
        {
          "indexed": false,
          "internalType": "uint256",
          "name": "_value",
          "type": "uint256"
        },
        {
          "indexed": false,
          "internalType": "uint256",
          "name": "_fromBalanceIncrease",
          "type": "uint256"
        },
        {
          "indexed": false,
          "internalType": "uint256",
          "name": "_fromIndex",
          "type": "uint256"
        }
      ],
      "name": "Redeem",
      "type": "event"
    },
    {
      "anonymous": false,
      "inputs": [
        {
          "indexed": true,
          "internalType": "address",
          "name": "_targetAddress",
          "type": "address"
        },
        {
          "indexed": false,
          "internalType": "uint256",
          "name": "_targetBalanceIncrease",
          "type": "uint256"
        },
        {
          "indexed": false,
          "internalType": "uint256",
          "name": "_targetIndex",
          "type": "uint256"
        },
        {
          "indexed": false,
          "internalType": "uint256",
          "name": "_redirectedBalanceAdded",
          "type": "uint256"
        },
        {
          "indexed": false,
          "internalType": "uint256",
          "name": "_redirectedBalanceRemoved",
          "type": "uint256"
        }
      ],
      "name": "RedirectedBalanceUpdated",
      "type": "event"
    },
    {
      "anonymous": false,
      "inputs": [
        {
          "indexed": false,
          "internalType": "address",
          "name": "user",
          "type": "address"
        },
        {
          "indexed": false,
          "internalType": "address",
          "name": "sighAccuredTo",
          "type": "address"
        },
        {
          "indexed": false,
          "internalType": "uint256",
          "name": "AccuredSighBalance",
          "type": "uint256"
        }
      ],
      "name": "SighAccured",
      "type": "event"
    },
    {
      "anonymous": false,
      "inputs": [
        {
          "indexed": false,
          "internalType": "address",
          "name": "user",
          "type": "address"
        },
        {
          "indexed": false,
          "internalType": "address",
          "name": "sighAccuredTo",
          "type": "address"
        },
        {
          "indexed": false,
          "internalType": "uint256",
          "name": "AccuredSighBalance",
          "type": "uint256"
        }
      ],
      "name": "SighAccured_",
      "type": "event"
    },
    {
      "anonymous": false,
      "inputs": [
        {
          "indexed": false,
          "internalType": "address",
          "name": "user",
          "type": "address"
        },
        {
          "indexed": false,
          "internalType": "address",
          "name": "allowedAccount",
          "type": "address"
        }
      ],
      "name": "SighRedirectionAllowanceChanged",
      "type": "event"
    },
    {
      "anonymous": false,
      "inputs": [
        {
          "indexed": false,
          "internalType": "address",
          "name": "fromAccount",
          "type": "address"
        },
        {
          "indexed": false,
          "internalType": "address",
          "name": "toAccount",
          "type": "address"
        },
        {
          "indexed": false,
          "internalType": "uint256",
          "name": "blockNumber",
          "type": "uint256"
        }
      ],
      "name": "SighStreamRedirected",
      "type": "event"
    },
    {
      "anonymous": false,
      "inputs": [
        {
          "indexed": true,
          "internalType": "address",
          "name": "from",
          "type": "address"
        },
        {
          "indexed": true,
          "internalType": "address",
          "name": "to",
          "type": "address"
        },
        {
          "indexed": false,
          "internalType": "uint256",
          "name": "value",
          "type": "uint256"
        }
      ],
      "name": "Transfer",
      "type": "event"
    },
    {
      "anonymous": false,
      "inputs": [
        {
          "indexed": false,
          "internalType": "address",
          "name": "borrower",
          "type": "address"
        },
        {
          "indexed": false,
          "internalType": "uint256",
          "name": "borrowIndex_mantissa",
          "type": "uint256"
        },
        {
          "indexed": false,
          "internalType": "uint256",
          "name": "borrowerIndex_mantissa",
          "type": "uint256"
        }
      ],
      "name": "distributeBorrower_SIGH_test3",
      "type": "event"
    },
    {
      "anonymous": false,
      "inputs": [
        {
          "indexed": false,
          "internalType": "uint256",
          "name": "BorrowerIndexes",
          "type": "uint256"
        },
        {
          "indexed": false,
          "internalType": "uint256",
          "name": "deltaIndex",
          "type": "uint256"
        },
        {
          "indexed": false,
          "internalType": "uint256",
          "name": "marketBorrowIndex",
          "type": "uint256"
        },
        {
          "indexed": false,
          "internalType": "uint256",
          "name": "borrowBalance",
          "type": "uint256"
        },
        {
          "indexed": false,
          "internalType": "uint256",
          "name": "borrowerAmount",
          "type": "uint256"
        },
        {
          "indexed": false,
          "internalType": "uint256",
          "name": "borrowerSIGHDelta",
          "type": "uint256"
        }
      ],
      "name": "distributeBorrower_SIGH_test4",
      "type": "event"
    },
    {
      "anonymous": false,
      "inputs": [
        {
          "indexed": false,
          "internalType": "address",
          "name": "supplier",
          "type": "address"
        },
        {
          "indexed": false,
          "internalType": "uint256",
          "name": "supplyIndex_mantissa",
          "type": "uint256"
        },
        {
          "indexed": false,
          "internalType": "uint256",
          "name": "supplierIndex_mantissa",
          "type": "uint256"
        }
      ],
      "name": "distributeSupplier_SIGH_test3",
      "type": "event"
    },
    {
      "anonymous": false,
      "inputs": [
        {
          "indexed": false,
          "internalType": "uint256",
          "name": "SupplierIndexes_",
          "type": "uint256"
        },
        {
          "indexed": false,
          "internalType": "uint256",
          "name": "supplierTokens",
          "type": "uint256"
        },
        {
          "indexed": false,
          "internalType": "uint256",
          "name": "deltaIndex_mantissa",
          "type": "uint256"
        },
        {
          "indexed": false,
          "internalType": "uint256",
          "name": "supplierSighDelta",
          "type": "uint256"
        }
      ],
      "name": "distributeSupplier_SIGH_test4",
      "type": "event"
    },
    {
      "constant": true,
      "inputs": [],
      "name": "UINT_MAX_VALUE",
      "outputs": [
        {
          "internalType": "uint256",
          "name": "",
          "type": "uint256"
        }
      ],
      "payable": false,
      "stateMutability": "view",
      "type": "function"
    },
    {
      "constant": true,
      "inputs": [
        {
          "internalType": "address",
          "name": "owner",
          "type": "address"
        },
        {
          "internalType": "address",
          "name": "spender",
          "type": "address"
        }
      ],
      "name": "allowance",
      "outputs": [
        {
          "internalType": "uint256",
          "name": "",
          "type": "uint256"
        }
      ],
      "payable": false,
      "stateMutability": "view",
      "type": "function"
    },
    {
      "constant": false,
      "inputs": [
        {
          "internalType": "address",
          "name": "spender",
          "type": "address"
        },
        {
          "internalType": "uint256",
          "name": "amount",
          "type": "uint256"
        }
      ],
      "name": "approve",
      "outputs": [
        {
          "internalType": "bool",
          "name": "",
          "type": "bool"
        }
      ],
      "payable": false,
      "stateMutability": "nonpayable",
      "type": "function"
    },
    {
      "constant": true,
      "inputs": [],
      "name": "decimals",
      "outputs": [
        {
          "internalType": "uint8",
          "name": "",
          "type": "uint8"
        }
      ],
      "payable": false,
      "stateMutability": "view",
      "type": "function"
    },
    {
      "constant": false,
      "inputs": [
        {
          "internalType": "address",
          "name": "spender",
          "type": "address"
        },
        {
          "internalType": "uint256",
          "name": "subtractedValue",
          "type": "uint256"
        }
      ],
      "name": "decreaseAllowance",
      "outputs": [
        {
          "internalType": "bool",
          "name": "",
          "type": "bool"
        }
      ],
      "payable": false,
      "stateMutability": "nonpayable",
      "type": "function"
    },
    {
      "constant": false,
      "inputs": [
        {
          "internalType": "address",
          "name": "spender",
          "type": "address"
        },
        {
          "internalType": "uint256",
          "name": "addedValue",
          "type": "uint256"
        }
      ],
      "name": "increaseAllowance",
      "outputs": [
        {
          "internalType": "bool",
          "name": "",
          "type": "bool"
        }
      ],
      "payable": false,
      "stateMutability": "nonpayable",
      "type": "function"
    },
    {
      "constant": true,
      "inputs": [
        {
          "internalType": "address",
          "name": "",
          "type": "address"
        }
      ],
      "name": "interestRedirectionAllowances",
      "outputs": [
        {
          "internalType": "address",
          "name": "",
          "type": "address"
        }
      ],
      "payable": false,
      "stateMutability": "view",
      "type": "function"
    },
    {
      "constant": true,
      "inputs": [],
      "name": "name",
      "outputs": [
        {
          "internalType": "string",
          "name": "",
          "type": "string"
        }
      ],
      "payable": false,
      "stateMutability": "view",
      "type": "function"
    },
    {
      "constant": true,
      "inputs": [],
      "name": "sighDistributionHandlerContract",
      "outputs": [
        {
          "internalType": "contract ISighDistributionHandler",
          "name": "",
          "type": "address"
        }
      ],
      "payable": false,
      "stateMutability": "view",
      "type": "function"
    },
    {
      "constant": true,
      "inputs": [],
      "name": "sigh_Transfer_Threshold",
      "outputs": [
        {
          "internalType": "uint256",
          "name": "",
          "type": "uint256"
        }
      ],
      "payable": false,
      "stateMutability": "view",
      "type": "function"
    },
    {
      "constant": true,
      "inputs": [],
      "name": "symbol",
      "outputs": [
        {
          "internalType": "string",
          "name": "",
          "type": "string"
        }
      ],
      "payable": false,
      "stateMutability": "view",
      "type": "function"
    },
    {
      "constant": false,
      "inputs": [
        {
          "internalType": "address",
          "name": "recipient",
          "type": "address"
        },
        {
          "internalType": "uint256",
          "name": "amount",
          "type": "uint256"
        }
      ],
      "name": "transfer",
      "outputs": [
        {
          "internalType": "bool",
          "name": "",
          "type": "bool"
        }
      ],
      "payable": false,
      "stateMutability": "nonpayable",
      "type": "function"
    },
    {
      "constant": false,
      "inputs": [
        {
          "internalType": "address",
          "name": "sender",
          "type": "address"
        },
        {
          "internalType": "address",
          "name": "recipient",
          "type": "address"
        },
        {
          "internalType": "uint256",
          "name": "amount",
          "type": "uint256"
        }
      ],
      "name": "transferFrom",
      "outputs": [
        {
          "internalType": "bool",
          "name": "",
          "type": "bool"
        }
      ],
      "payable": false,
      "stateMutability": "nonpayable",
      "type": "function"
    },
    {
      "constant": true,
      "inputs": [],
      "name": "underlyingInstrumentAddress",
      "outputs": [
        {
          "internalType": "address",
          "name": "",
          "type": "address"
        }
      ],
      "payable": false,
      "stateMutability": "view",
      "type": "function"
    },
    {
      "constant": true,
      "inputs": [
        {
          "internalType": "address",
          "name": "_user",
          "type": "address"
        },
        {
          "internalType": "uint256",
          "name": "_amount",
          "type": "uint256"
        }
      ],
      "name": "isTransferAllowed",
      "outputs": [
        {
          "internalType": "bool",
          "name": "",
          "type": "bool"
        }
      ],
      "payable": false,
      "stateMutability": "view",
      "type": "function"
    },
    {
      "constant": false,
      "inputs": [
        {
          "internalType": "address",
          "name": "_account",
          "type": "address"
        },
        {
          "internalType": "uint256",
          "name": "_amount",
          "type": "uint256"
        }
      ],
      "name": "mintOnDeposit",
      "outputs": [],
      "payable": false,
      "stateMutability": "nonpayable",
      "type": "function"
    },
    {
      "constant": false,
      "inputs": [
        {
          "internalType": "uint256",
          "name": "_amount",
          "type": "uint256"
        }
      ],
      "name": "redeem",
      "outputs": [],
      "payable": false,
      "stateMutability": "nonpayable",
      "type": "function"
    },
    {
      "constant": false,
      "inputs": [
        {
          "internalType": "address",
          "name": "_account",
          "type": "address"
        },
        {
          "internalType": "uint256",
          "name": "_value",
          "type": "uint256"
        }
      ],
      "name": "burnOnLiquidation",
      "outputs": [],
      "payable": false,
      "stateMutability": "nonpayable",
      "type": "function"
    },
    {
      "constant": false,
      "inputs": [
        {
          "internalType": "address",
          "name": "_from",
          "type": "address"
        },
        {
          "internalType": "address",
          "name": "_to",
          "type": "address"
        },
        {
          "internalType": "uint256",
          "name": "_value",
          "type": "uint256"
        }
      ],
      "name": "transferOnLiquidation",
      "outputs": [],
      "payable": false,
      "stateMutability": "nonpayable",
      "type": "function"
    },
    {
      "constant": false,
      "inputs": [
        {
          "internalType": "address",
          "name": "_to",
          "type": "address"
        }
      ],
      "name": "redirectInterestStream",
      "outputs": [],
      "payable": false,
      "stateMutability": "nonpayable",
      "type": "function"
    },
    {
      "constant": false,
      "inputs": [
        {
          "internalType": "address",
          "name": "_to",
          "type": "address"
        }
      ],
      "name": "allowInterestRedirectionTo",
      "outputs": [],
      "payable": false,
      "stateMutability": "nonpayable",
      "type": "function"
    },
    {
      "constant": false,
      "inputs": [
        {
          "internalType": "address",
          "name": "_from",
          "type": "address"
        },
        {
          "internalType": "address",
          "name": "_to",
          "type": "address"
        }
      ],
      "name": "redirectInterestStreamOf",
      "outputs": [],
      "payable": false,
      "stateMutability": "nonpayable",
      "type": "function"
    },
    {
      "constant": true,
      "inputs": [
        {
          "internalType": "address",
          "name": "_user",
          "type": "address"
        }
      ],
      "name": "balanceOf",
      "outputs": [
        {
          "internalType": "uint256",
          "name": "",
          "type": "uint256"
        }
      ],
      "payable": false,
      "stateMutability": "view",
      "type": "function"
    },
    {
      "constant": true,
      "inputs": [
        {
          "internalType": "address",
          "name": "_user",
          "type": "address"
        }
      ],
      "name": "principalBalanceOf",
      "outputs": [
        {
          "internalType": "uint256",
          "name": "",
          "type": "uint256"
        }
      ],
      "payable": false,
      "stateMutability": "view",
      "type": "function"
    },
    {
      "constant": true,
      "inputs": [],
      "name": "totalSupply",
      "outputs": [
        {
          "internalType": "uint256",
          "name": "",
          "type": "uint256"
        }
      ],
      "payable": false,
      "stateMutability": "view",
      "type": "function"
    },
    {
      "constant": true,
      "inputs": [
        {
          "internalType": "address",
          "name": "_user",
          "type": "address"
        }
      ],
      "name": "getUserIndex",
      "outputs": [
        {
          "internalType": "uint256",
          "name": "",
          "type": "uint256"
        }
      ],
      "payable": false,
      "stateMutability": "view",
      "type": "function"
    },
    {
      "constant": true,
      "inputs": [
        {
          "internalType": "address",
          "name": "_user",
          "type": "address"
        }
      ],
      "name": "getInterestRedirectionAddress",
      "outputs": [
        {
          "internalType": "address",
          "name": "",
          "type": "address"
        }
      ],
      "payable": false,
      "stateMutability": "view",
      "type": "function"
    },
    {
      "constant": true,
      "inputs": [
        {
          "internalType": "address",
          "name": "_user",
          "type": "address"
        }
      ],
      "name": "getRedirectedBalance",
      "outputs": [
        {
          "internalType": "uint256",
          "name": "",
          "type": "uint256"
        }
      ],
      "payable": false,
      "stateMutability": "view",
      "type": "function"
    },
    {
      "constant": false,
      "inputs": [],
      "name": "claimMySIGH",
      "outputs": [],
      "payable": false,
      "stateMutability": "nonpayable",
      "type": "function"
    },
    {
      "constant": false,
      "inputs": [
        {
          "internalType": "address[]",
          "name": "holders",
          "type": "address[]"
        }
      ],
      "name": "claimSIGH",
      "outputs": [],
      "payable": false,
      "stateMutability": "nonpayable",
      "type": "function"
    },
    {
      "constant": false,
      "inputs": [
        {
          "internalType": "address",
          "name": "borrower",
          "type": "address"
        }
      ],
      "name": "accure_Borrower_SIGH",
      "outputs": [],
      "payable": false,
      "stateMutability": "nonpayable",
      "type": "function"
    },
    {
      "constant": false,
      "inputs": [
        {
          "internalType": "address",
          "name": "_to",
          "type": "address"
        }
      ],
      "name": "redirectSighStream",
      "outputs": [],
      "payable": false,
      "stateMutability": "nonpayable",
      "type": "function"
    },
    {
      "constant": false,
      "inputs": [
        {
          "internalType": "address",
          "name": "_to",
          "type": "address"
        }
      ],
      "name": "allowSighRedirectionTo",
      "outputs": [],
      "payable": false,
      "stateMutability": "nonpayable",
      "type": "function"
    },
    {
      "constant": false,
      "inputs": [
        {
          "internalType": "address",
          "name": "_from",
          "type": "address"
        },
        {
          "internalType": "address",
          "name": "_to",
          "type": "address"
        }
      ],
      "name": "redirectSighStreamOf",
      "outputs": [],
      "payable": false,
      "stateMutability": "nonpayable",
      "type": "function"
    },
    {
      "constant": true,
      "inputs": [
        {
          "internalType": "address",
          "name": "account",
          "type": "address"
        }
      ],
      "name": "getSighAccured",
      "outputs": [
        {
          "internalType": "uint256",
          "name": "",
          "type": "uint256"
        }
      ],
      "payable": false,
      "stateMutability": "view",
      "type": "function"
    },
    {
      "constant": true,
      "inputs": [
        {
          "internalType": "address",
          "name": "account",
          "type": "address"
        }
      ],
      "name": "getSighStreamRedirectedTo",
      "outputs": [
        {
          "internalType": "address",
          "name": "",
          "type": "address"
        }
      ],
      "payable": false,
      "stateMutability": "view",
      "type": "function"
    },
    {
      "constant": true,
      "inputs": [
        {
          "internalType": "address",
          "name": "account",
          "type": "address"
        }
      ],
      "name": "getSighStreamAllowances",
      "outputs": [
        {
          "internalType": "address",
          "name": "",
          "type": "address"
        }
      ],
      "payable": false,
      "stateMutability": "view",
      "type": "function"
    },
    {
      "constant": true,
      "inputs": [
        {
          "internalType": "address",
          "name": "account",
          "type": "address"
        }
      ],
      "name": "getSupplierIndexes",
      "outputs": [
        {
          "internalType": "uint256",
          "name": "",
          "type": "uint256"
        }
      ],
      "payable": false,
      "stateMutability": "view",
      "type": "function"
    },
    {
      "constant": true,
      "inputs": [
        {
          "internalType": "address",
          "name": "account",
          "type": "address"
        }
      ],
      "name": "getBorrowerIndexes",
      "outputs": [
        {
          "internalType": "uint256",
          "name": "",
          "type": "uint256"
        }
      ],
      "payable": false,
      "stateMutability": "view",
      "type": "function"
    }
  ],
  "bytecode": "0x60806040526ec097ce7bc90715b34b9f1000000000606b55670de0b6b3a76400006076553480156200003057600080fd5b5060405162003a2c38038062003a2c833981810160405260a08110156200005657600080fd5b8151602083015160408085015160608601805192519496939591949391820192846401000000008211156200008a57600080fd5b908301906020820185811115620000a057600080fd5b8251640100000000811182820188101715620000bb57600080fd5b82525081516020918201929091019080838360005b83811015620000ea578181015183820152602001620000d0565b50505050905090810190601f168015620001185780820380516001836020036101000a031916815260200191505b50604052602001805160405193929190846401000000008211156200013c57600080fd5b9083019060208201858111156200015257600080fd5b82516401000000008111828201881017156200016d57600080fd5b82525081516020918201929091019080838360005b838110156200019c57818101518382015260200162000182565b50505050905090810190601f168015620001ca5780820380516001836020036101000a031916815260200191505b506040525050508181848260689080519060200190620001ec92919062000477565b5081516200020290606990602085019062000477565b50606a805460ff191660ff929092169190911790555050606d80546001600160a01b0319166001600160a01b0387811691909117918290556040805163076b7fbb60e51b81529051929091169163ed6ff76091600480820192602092909190829003018186803b1580156200027657600080fd5b505afa1580156200028b573d6000803e3d6000fd5b505050506040513d6020811015620002a257600080fd5b5051606e80546001600160a01b0319166001600160a01b03928316179055606d5460408051630261bf8b60e01b815290519190921691630261bf8b916004808301926020929190829003018186803b158015620002fe57600080fd5b505afa15801562000313573d6000803e3d6000fd5b505050506040513d60208110156200032a57600080fd5b5051606f80546001600160a01b0319166001600160a01b03928316179055606d5460408051632f58b80d60e01b815290519190921691632f58b80d916004808301926020929190829003018186803b1580156200038657600080fd5b505afa1580156200039b573d6000803e3d6000fd5b505050506040513d6020811015620003b257600080fd5b5051607080546001600160a01b0319166001600160a01b03928316179055606d546040805163a0375c6d60e01b81529051919092169163a0375c6d916004808301926020929190829003018186803b1580156200040e57600080fd5b505afa15801562000423573d6000803e3d6000fd5b505050506040513d60208110156200043a57600080fd5b5051607180546001600160a01b039283166001600160a01b031991821617909155606c805496909216951694909417909355506200051c92505050565b828054600181600116156101000203166002900490600052602060002090601f016020900481019282601f10620004ba57805160ff1916838001178555620004ea565b82800160010185558215620004ea579182015b82811115620004ea578251825591602001919060010190620004cd565b50620004f8929150620004fc565b5090565b6200051991905b80821115620004f8576000815560010162000503565b90565b613500806200052c6000396000f3fe608060405234801561001057600080fd5b506004361061023d5760003560e01c80636722b4fa1161013b578063d0fc81d2116100b8578063dfc8d0fc1161007c578063dfc8d0fc146107de578063e2bd79a314610804578063ee9907a41461080c578063f1abdaf614610832578063f866c3191461083a5761023d565b8063d0fc81d21461075d578063d3cc381e14610765578063d821eb971461078b578063db006a7514610793578063dd62ed3e146107b05761023d565b806394362e8b116100ff57806394362e8b146106ab57806395d89b41146106d7578063a457c2d7146106df578063a9059cbb1461070b578063c634dfaa146107375761023d565b80636722b4fa1461060357806370a082311461060b5780638596d5ed146106315780638a090cd4146106575780638af43fad1461067d5761023d565b806327ec16ed116101c9578063395093511161018d57806339509351146105335780633edb7cb81461055f578063445e80101461058b5780634dbac9ba146105b15780635eae177c146105d75761023d565b806327ec16ed1461042b5780632ccf00f91461049b5780632eaae3c7146104c1578063313ce567146104e7578063325a9b13146105055761023d565b8063146e5ec011610210578063146e5ec01461034d578063180cb0c01461037357806318160ddd146103b55780631d51e7cf146103cf57806323b872dd146103f55761023d565b806306fdde0314610242578063095ea7b3146102bf5780630e49072d146102ff57806312c87c2d14610327575b600080fd5b61024a610870565b6040805160208082528351818301528351919283929083019185019080838360005b8381101561028457818101518382015260200161026c565b50505050905090810190601f1680156102b15780820380516001836020036101000a031916815260200191505b509250505060405180910390f35b6102eb600480360360408110156102d557600080fd5b506001600160a01b038135169060200135610907565b604080519115158252519081900360200190f35b6103256004803603602081101561031557600080fd5b50356001600160a01b0316610925565b005b6103256004803603602081101561033d57600080fd5b50356001600160a01b0316610932565b6103256004803603602081101561036357600080fd5b50356001600160a01b03166109d1565b6103996004803603602081101561038957600080fd5b50356001600160a01b03166109db565b604080516001600160a01b039092168252519081900360200190f35b6103bd6109fc565b60408051918252519081900360200190f35b6103bd600480360360208110156103e557600080fd5b50356001600160a01b0316610ab9565b6102eb6004803603606081101561040b57600080fd5b506001600160a01b03813581169160208101359091169060400135610ad4565b6103256004803603602081101561044157600080fd5b81019060208101813564010000000081111561045c57600080fd5b82018360208201111561046e57600080fd5b8035906020019184602083028401116401000000008311171561049057600080fd5b509092509050610b62565b6103bd600480360360208110156104b157600080fd5b50356001600160a01b0316610b9e565b6103bd600480360360208110156104d757600080fd5b50356001600160a01b0316610bb9565b6104ef610bd4565b6040805160ff9092168252519081900360200190f35b6103256004803603604081101561051b57600080fd5b506001600160a01b0381358116916020013516610bdd565b6102eb6004803603604081101561054957600080fd5b506001600160a01b038135169060200135610c43565b6103256004803603604081101561057557600080fd5b506001600160a01b038135169060200135610c97565b610399600480360360208110156105a157600080fd5b50356001600160a01b0316610d95565b610399600480360360208110156105c757600080fd5b50356001600160a01b0316610db3565b6102eb600480360360408110156105ed57600080fd5b506001600160a01b038135169060200135610dd1565b610399610e67565b6103bd6004803603602081101561062157600080fd5b50356001600160a01b0316610e76565b6103256004803603602081101561064757600080fd5b50356001600160a01b0316610f29565b6103bd6004803603602081101561066d57600080fd5b50356001600160a01b0316610fd8565b6103256004803603604081101561069357600080fd5b506001600160a01b0381358116916020013516610ff3565b610325600480360360408110156106c157600080fd5b506001600160a01b038135169060200135611055565b61024a611133565b6102eb600480360360408110156106f557600080fd5b506001600160a01b038135169060200135611194565b6102eb6004803603604081101561072157600080fd5b506001600160a01b038135169060200135611202565b6103bd6004803603602081101561074d57600080fd5b50356001600160a01b0316611216565b6103bd611221565b6103256004803603602081101561077b57600080fd5b50356001600160a01b0316611227565b610399611279565b610325600480360360208110156107a957600080fd5b5035611288565b6103bd600480360360408110156107c657600080fd5b506001600160a01b03813581169160200135166114bd565b610399600480360360208110156107f457600080fd5b50356001600160a01b03166114e8565b6103bd611503565b6103bd6004803603602081101561082257600080fd5b50356001600160a01b0316611509565b610325611524565b6103256004803603606081101561085057600080fd5b506001600160a01b0381358116916020810135909116906040013561152f565b60688054604080516020601f60026000196101006001881615020190951694909404938401819004810282018101909252828152606093909290918301828280156108fc5780601f106108d1576101008083540402835291602001916108fc565b820191906000526020600020905b8154815290600101906020018083116108df57829003601f168201915b505050505090505b90565b600061091b610914611583565b8484611587565b5060015b92915050565b61092f3382611673565b50565b6001600160a01b03811633141561097a5760405162461bcd60e51b81526004018080602001828103825260258152602001806131f16025913960400191505060405180910390fd5b3360008181526075602052604080822080546001600160a01b0319166001600160a01b03861690811790915590519092917fc2d6a42a9d5273283f73009a07aacfb043f2f91173a8d9d33b504afe898db08b91a350565b61092f3382611862565b6001600160a01b038082166000908152607b6020526040902054165b919050565b600080610a07611abf565b905080610a18576000915050610904565b606e54606c5460408051632b0475e160e01b81526001600160a01b0392831660048201529051610ab393610aae931691632b0475e1916024808301926020929190829003018186803b158015610a6d57600080fd5b505afa158015610a81573d6000803e3d6000fd5b505050506040513d6020811015610a9757600080fd5b5051610aa284611ac5565b9063ffffffff611adb16565b611b1f565b91505090565b6001600160a01b031660009081526074602052604090205490565b6000610ae1848484611b38565b610b5784610aed611583565b610b5285604051806060016040528060288152602001613237602891396001600160a01b038a16600090815260346020526040812090610b2b611583565b6001600160a01b03168152602081019190915260400160002054919063ffffffff611ba716565b611587565b5060015b9392505050565b60005b81811015610b9957610b91838383818110610b7c57fe5b905060200201356001600160a01b0316611c3e565b600101610b65565b505050565b6001600160a01b031660009081526079602052604090205490565b6001600160a01b031660009081526077602052604090205490565b606a5460ff1690565b6001600160a01b03828116600090815260756020526040902054163314610c355760405162461bcd60e51b815260040180806020018281038252603a815260200180613492603a913960400191505060405180910390fd5b610c3f8282611673565b5050565b600061091b610c50611583565b84610b528560346000610c61611583565b6001600160a01b03908116825260208083019390935260409182016000908120918c16815292529020549063ffffffff611c7816565b606f546001600160a01b03163314610ce05760405162461bcd60e51b81526004018080602001828103825260348152602001806130826034913960400191505060405180910390fd5b610ce982611cd2565b6000806000610cf785611f11565b93509350935050610d09858386611ffd565b610d138585612134565b6000610d25848663ffffffff61223016565b610d3557610d3286612272565b90505b856001600160a01b03167f90e5d3d68ec162d9c7de393037a3ede04dd44f68e051bf2ace4a73c299dbc4db868584610d6d5785610d70565b60005b60408051938452602084019290925282820152519081900360600190a2505050505050565b6001600160a01b039081166000908152607360205260409020541690565b6001600160a01b039081166000908152607a60205260409020541690565b607054606c54604080516376e9d61560e01b81526001600160a01b039283166004820152858316602482015260448101859052905160009392909216916376e9d61591606480820192602092909190829003018186803b158015610e3457600080fd5b505afa158015610e48573d6000803e3d6000fd5b505050506040513d6020811015610e5e57600080fd5b50519392505050565b606c546001600160a01b031681565b600080610e8283612324565b6001600160a01b03841660009081526074602052604090205490915081158015610eaa575080155b15610eba576000925050506109f7565b6001600160a01b0384811660009081526073602052604090205416610f0b57610f0281610ef686610ef1868463ffffffff611c7816565b61233f565b9063ffffffff61223016565b925050506109f7565b610f02610f1c82610ef6878561233f565b839063ffffffff611c7816565b6001600160a01b038116331415610f715760405162461bcd60e51b81526004018080602001828103825260258152602001806131f16025913960400191505060405180910390fd5b336000818152607b602090815260409182902080546001600160a01b0319166001600160a01b03861690811790915582519384529083015280517f22777824b7e0642b0e894ce2fe6e34746e13d8ff80f7cbd334ca384eaf3115069281900390910190a150565b6001600160a01b031660009081526078602052604090205490565b6001600160a01b038281166000908152607b602052604090205416331461104b5760405162461bcd60e51b81526004018080602001828103825260368152602001806134376036913960400191505060405180910390fd5b610c3f8282611862565b606f546001600160a01b0316331461109e5760405162461bcd60e51b81526004018080602001828103825260348152602001806130826034913960400191505060405180910390fd5b6110a782611cd2565b6000806110b384611f11565b9350935050506110d7846110d08585611c7890919063ffffffff16565b6000611ffd565b6110e184846123ef565b604080518481526020810184905280820183905290516001600160a01b038616917fbe7799898ca2d813ff902b487c1b434ab45b47edd8f38b77ad5e99aae8341b7a919081900360600190a250505050565b60698054604080516020601f60026000196101006001881615020190951694909404938401819004810282018101909252828152606093909290918301828280156108fc5780601f106108d1576101008083540402835291602001916108fc565b600061091b6111a1611583565b84610b528560405180606001604052806025815260200161346d60259139603460006111cb611583565b6001600160a01b03908116825260208083019390935260409182016000908120918d1681529252902054919063ffffffff611ba716565b600061091b61120f611583565b8484611b38565b600061091f82612324565b60001981565b606e546001600160a01b031633146112705760405162461bcd60e51b81526004018080602001828103825260398152602001806133af6039913960400191505060405180910390fd5b61092f816124e1565b6071546001600160a01b031681565b600081116112dd576040805162461bcd60e51b815260206004820181905260248201527f416d6f756e7420746f2072656465656d206e6565647320746f206265203e2030604482015290519081900360640190fd5b60008060006112eb33611f11565b919550935091508490506000198114156113025750825b838111156113415760405162461bcd60e51b81526004018080602001828103825260328152602001806130fb6032913960400191505060405180910390fd5b61134b3382610dd1565b61139c576040805162461bcd60e51b815260206004820152601b60248201527f5472616e736665722063616e6e6f7420626520616c6c6f7765642e0000000000604482015290519081900360640190fd5b606f54606c546001600160a01b0391821691639895e3d8911633846113c7898263ffffffff61223016565b6040518563ffffffff1660e01b815260040180856001600160a01b03166001600160a01b03168152602001846001600160a01b03166001600160a01b03168152602001838152602001828152602001945050505050600060405180830381600087803b15801561143657600080fd5b505af115801561144a573d6000803e3d6000fd5b5050505061145733611cd2565b611462338483611ffd565b61146c3382612134565b600061147e858363ffffffff61223016565b61148e5761148b33612272565b90505b337fbd5034ffbd47e4e72a94baa2cdb74c6fad73cb3bcdc13036b72ec8306f5a7646838684610d6d5786610d70565b6001600160a01b03918216600090815260346020908152604080832093909416825291909152205490565b6075602052600090815260409020546001600160a01b031681565b60765481565b6001600160a01b031660009081526072602052604090205490565b61152d33611c3e565b565b606f546001600160a01b031633146115785760405162461bcd60e51b81526004018080602001828103825260348152602001806130826034913960400191505060405180910390fd5b610b9983838361282f565b3390565b6001600160a01b0383166115cc5760405162461bcd60e51b815260040180806020018281038252602481526020018061338b6024913960400191505060405180910390fd5b6001600160a01b0382166116115760405162461bcd60e51b815260040180806020018281038252602281526020018061312d6022913960400191505060405180910390fd5b6001600160a01b03808416600081815260346020908152604080832094871680845294825291829020859055815185815291517f8c5be1e5ebec7d5bd14f71427d1e84f3dd0314c0f7b2291e5b200ac8c7c3b9259281900390910190a3505050565b6001600160a01b0380831660009081526073602052604090205481169082168114156116d05760405162461bcd60e51b815260040180806020018281038252602a81526020018061325f602a913960400191505060405180910390fd5b6000806000806116df87611f11565b9350935093509350600083116117265760405162461bcd60e51b81526004018080602001828103825260428152602001806132896042913960600191505060405180910390fd5b6001600160a01b038516156117415761174187600086611ffd565b866001600160a01b0316866001600160a01b031614156117cd576001600160a01b038716600081815260736020908152604080832080546001600160a01b03191690558051878152918201869052818101859052519192917f5e3cad45b1fe24159d1cb39788d82d0f69cc15770aa96fba1d3d1a73487355949181900360600190a35050505050610c3f565b6001600160a01b03878116600090815260736020526040812080546001600160a01b031916928916929092179091556118099088908590611ffd565b604080518481526020810184905280820183905290516001600160a01b0380891692908a16917f5e3cad45b1fe24159d1cb39788d82d0f69cc15770aa96fba1d3d1a73487355949181900360600190a350505050505050565b6001600160a01b038083166000908152607a602052604090205481169082168114156118bf5760405162461bcd60e51b815260040180806020018281038252603281526020018061314f6032913960400191505060405180910390fd5b60006118ca84612324565b606e54606c5460408051631f9fcb1960e31b81526001600160a01b03928316600482015288831660248201529051939450600093919092169163fcfe58c8916044808301926080929190829003018186803b15801561192857600080fd5b505afa15801561193c573d6000803e3d6000fd5b505050506040513d608081101561195257600080fd5b50602001519050811515806119675750600081115b6119a25760405162461bcd60e51b815260040180806020018281038252604f8152602001806133e8604f913960600191505060405180910390fd5b846001600160a01b0316846001600160a01b03161415611a29576001600160a01b0385166000818152607a6020908152604080832080546001600160a01b03191690558051938452908301919091524382820152517fd1e0fc94dcf310043ccc112fd3b7a2081da0a04a5369638b5ab25c4d2b46e2909181900360600190a1505050610c3f565b6001600160a01b03831615611a4a57611a4185611cd2565b611a4a856124e1565b6001600160a01b038086166000818152607a602090815260409182902080549489166001600160a01b0319909516851790558151928352820192909252438183015290517fd1e0fc94dcf310043ccc112fd3b7a2081da0a04a5369638b5ab25c4d2b46e2909181900360600190a15050505050565b60355490565b600061091f82633b9aca0063ffffffff61297016565b6000610b5b6b033b2e3c9fd0803ce8000000611b13611b00868663ffffffff61297016565b6b019d971e4fe8401e7400000090611c78565b9063ffffffff6129c916565b6000631dcd6500610b5b633b9aca00611b138386611c78565b8281611b448282610dd1565b611b95576040805162461bcd60e51b815260206004820152601b60248201527f5472616e736665722063616e6e6f7420626520616c6c6f7765642e0000000000604482015290519081900360640190fd5b611ba085858561282f565b5050505050565b60008184841115611c365760405162461bcd60e51b81526004018080602001828103825283818151815260200191508051906020019080838360005b83811015611bfb578181015183820152602001611be3565b50505050905090810190601f168015611c285780820380516001836020036101000a031916815260200191505b509250505060405180910390fd5b505050900390565b611c4781611cd2565b611c50816124e1565b6001600160a01b0381166000908152607760205260409020541561092f5761092f8182612a0b565b600082820183811015610b5b576040805162461bcd60e51b815260206004820152601b60248201527f536166654d6174683a206164646974696f6e206f766572666c6f770000000000604482015290519081900360640190fd5b607154606c546040805163269c5ec960e21b81526001600160a01b03928316600482015290516000939290921691639a717b2491602480820192602092909190829003018186803b158015611d2657600080fd5b505afa158015611d3a573d6000803e3d6000fd5b505050506040513d6020811015611d5057600080fd5b5051905080611d905760405162461bcd60e51b815260040180806020018281038252604a81526020018061331c604a913960600191505060405180910390fd5b611d9861306e565b5060408051602080820183526001600160a01b0385166000908152607890915291909120548152611dc761306e565b5060408051602080820183528482526001600160a01b03861660009081526078909152919091208390558151158015611e005750805115155b15611e0a57805182525b80518251604080516001600160a01b0388168152602081019390935282810191909152517f8570f42cdf4cb0f9d23a4554baaca6538401acf7d2793bae71863a7d1d4f05e19181900360600190a16000611e6385612324565b9050611e6d61306e565b611e778385612ad3565b6001600160a01b03871660009081526078602052604090205481519192507fdbada74b32ebae0109ffc264c663815d6970d2039f0778546db1d99083f11176918490611ec38286612b01565b604080519485526020850193909352838301919091526060830152519081900360800190a1805115611f09576000611efb8383612b01565b9050611f078782612b35565b505b505050505050565b6000806000806000611f2286612324565b90506000611f3382610ef689610e76565b9050611f3f87826123ef565b606e54606c5460408051632b0475e160e01b81526001600160a01b03928316600482015290516000939290921691632b0475e191602480820192602092909190829003018186803b158015611f9357600080fd5b505afa158015611fa7573d6000803e3d6000fd5b505050506040513d6020811015611fbd57600080fd5b50516001600160a01b0389166000908152607260205260409020819055905082611fed818463ffffffff611c7816565b9099909850919650945092505050565b6001600160a01b0380841660009081526073602052604090205416806120235750610b99565b60008061202f83611f11565b6001600160a01b03871660009081526074602052604090205491955093506120659250869150610ef6908863ffffffff611c7816565b6001600160a01b038085166000908152607460209081526040808320949094556073905291909120541680156120d8576001600160a01b0381166000908152607460205260409020546120be908463ffffffff611c7816565b6001600160a01b0382166000908152607460205260409020555b60408051848152602081018490528082018890526060810187905290516001600160a01b038616917f70ff8cf632603e2bfd1afb7e4061acce53d95356b1be9726b99fa22ba733b01f919081900360800190a250505050505050565b6001600160a01b0382166121795760405162461bcd60e51b81526004018080602001828103825260218152602001806132fb6021913960400191505060405180910390fd5b6121bc816040518060600160405280602281526020016130d9602291396001600160a01b038516600090815260336020526040902054919063ffffffff611ba716565b6001600160a01b0383166000908152603360205260409020556035546121e8908263ffffffff61223016565b6035556040805182815290516000916001600160a01b038516917fddf252ad1be2c89b69c2b068fc378daa952ba7f163c4a11628f55a4df523b3ef9181900360200190a35050565b6000610b5b83836040518060400160405280601e81526020017f536166654d6174683a207375627472616374696f6e206f766572666c6f770000815250611ba7565b6001600160a01b038116600081815260736020908152604080832080546001600160a01b03191690558051838152918201839052818101839052519192839290917f5e3cad45b1fe24159d1cb39788d82d0f69cc15770aa96fba1d3d1a7348735594919081900360600190a36001600160a01b03821660009081526074602052604090205461231c57506001600160a01b03811660009081526072602052604081205560016109f7565b5060006109f7565b6001600160a01b031660009081526033602052604090205490565b6001600160a01b03808316600090815260726020908152604080832054606e54606c548351632b0475e160e01b8152908716600482015292519495610b5b95610aae9593946123e3949390921692632b0475e19260248082019391829003018186803b1580156123ae57600080fd5b505afa1580156123c2573d6000803e3d6000fd5b505050506040513d60208110156123d857600080fd5b5051610aa287611ac5565b9063ffffffff612ccd16565b6001600160a01b03821661244a576040805162461bcd60e51b815260206004820152601f60248201527f45524332303a206d696e7420746f20746865207a65726f206164647265737300604482015290519081900360640190fd5b60355461245d908263ffffffff611c7816565b6035556001600160a01b038216600090815260336020526040902054612489908263ffffffff611c7816565b6001600160a01b03831660008181526033602090815260408083209490945583518581529351929391927fddf252ad1be2c89b69c2b068fc378daa952ba7f163c4a11628f55a4df523b3ef9281900390910190a35050565b607154606c546040805163087d30f360e11b81526001600160a01b039283166004820152905160009392909216916310fa61e691602480820192602092909190829003018186803b15801561253557600080fd5b505afa158015612549573d6000803e3d6000fd5b505050506040513d602081101561255f57600080fd5b505190508061259f5760405162461bcd60e51b815260040180806020018281038252604a8152602001806131a7604a913960600191505060405180910390fd5b6125a761306e565b5060408051602081019091528181526125be61306e565b5060408051602080820183526001600160a01b03861660008181526079808452948120805485528651929091529390915290915580511580156126015750815115155b1561260b57815181525b81518151604080516001600160a01b0388168152602081019390935282810191909152517f1888bde808d21534089bdc68dcafd6b36033996be2f51d1dc37320a5dc85a1cd9181900360600190a161266161306e565b61266b8383612ad3565b905061267561306e565b604080516020808201808452606e54606c546307ce32a560e01b9092526001600160a01b0391821660248501529351929384939116916307ce32a5916044808601929190818703018186803b1580156126cd57600080fd5b505afa1580156126e1573d6000803e3d6000fd5b505050506040513d60208110156126f757600080fd5b50519052606e54606c5460408051631f9fcb1960e31b81526001600160a01b0392831660048201528a831660248201529051939450600093919092169163fcfe58c8916044808301926080929190829003018186803b15801561275957600080fd5b505afa15801561276d573d6000803e3d6000fd5b505050506040513d608081101561278357600080fd5b5060200151905060006127968284612d05565b905060006127a48286612b01565b6001600160a01b038a16600090815260796020908152604091829020548851885184519283529282015280830191909152606081018690526080810185905260a0810183905290519192507fb508c78aa93018f1a65076214d568bce68ba66bd3f589300d704c855adbb3088919081900360c00190a16128248982612b35565b505050505050505050565b6000811161286e5760405162461bcd60e51b81526004018080602001828103825260308152602001806132cb6030913960400191505060405180910390fd5b61287783611cd2565b61288082611cd2565b600080600061288e86611f11565b935093509350506000806128a187611f11565b9350935050506128b2888588611ffd565b6128c6876110d0848963ffffffff611c7816565b6128d1888888612d24565b60006128e3868863ffffffff61223016565b6128f3576128f089612272565b90505b876001600160a01b0316896001600160a01b03167f89a178eaa27e0cd201bd795ca8ff716ac0df9618494510ca79771cfc66ffcde8898887866129365789612939565b60005b60408051948552602085019390935283830191909152606083015260808201879052519081900360a00190a3505050505050505050565b60008261297f5750600061091f565b8282028284828161298c57fe5b0414610b5b5760405162461bcd60e51b81526004018080602001828103825260218152602001806132166021913960400191505060405180910390fd5b6000610b5b83836040518060400160405280601a81526020017f536166654d6174683a206469766973696f6e206279207a65726f000000000000815250612e82565b6001600160a01b03808216600081815260776020908152604080832054607154606c5483516311c4df8760e31b815290881660048201528988166024820152604481019690965260648601829052915190959190911693638e26fc389360848083019493928390030190829087803b158015612a8657600080fd5b505af1158015612a9a573d6000803e3d6000fd5b505050506040513d6020811015612ab057600080fd5b50516001600160a01b039092166000908152607760205260409020919091555050565b612adb61306e565b6040518060200160405280612af885600001518560000151612ee7565b90529392505050565b6000806ec097ce7bc90715b34b9f1000000000905080612b25858560000151612f21565b81612b2c57fe5b04949350505050565b6001600160a01b038083166000908152607a6020526040902054839116612b9d576001600160a01b038116600090815260776020526040902054612b7f908363ffffffff611c7816565b6001600160a01b038216600090815260776020526040902055612bf4565b506001600160a01b038083166000908152607a6020908152604080832054909316808352607790915291902054612bda908363ffffffff611c7816565b6001600160a01b0382166000908152607760205260409020555b604080516001600160a01b0380861682528316602082015280820184905290517f399b15a574bab567174ad82c926fe3695a12f8450437e850b3ea8f212114123d9181900360600190a16076546001600160a01b0382166000908152607760205260409020541115612c6a57612c6a8382612a0b565b6001600160a01b0380821660008181526077602090815260409182902054825194881685529084019290925282810191909152517f7e7103d2feb8c3d30575f6d4b4b00d4376a928a2d69bbca7f9864a23bd3175769181900360600190a1505050565b600060028204612cfd83611b13612cf0876b033b2e3c9fd0803ce8000000612970565b849063ffffffff611c7816565b949350505050565b6000670de0b6b3a7640000612cfd612d1d8583612f21565b8451612f63565b6001600160a01b038316612d695760405162461bcd60e51b81526004018080602001828103825260258152602001806133666025913960400191505060405180910390fd5b6001600160a01b038216612dae5760405162461bcd60e51b81526004018080602001828103825260238152602001806130b66023913960400191505060405180910390fd5b612df181604051806060016040528060268152602001613181602691396001600160a01b038616600090815260336020526040902054919063ffffffff611ba716565b6001600160a01b038085166000908152603360205260408082209390935590841681522054612e26908263ffffffff611c7816565b6001600160a01b0380841660008181526033602090815260409182902094909455805185815290519193928716927fddf252ad1be2c89b69c2b068fc378daa952ba7f163c4a11628f55a4df523b3ef92918290030190a3505050565b60008183612ed15760405162461bcd60e51b8152602060048201818152835160248401528351909283926044909101919085019080838360008315611bfb578181015183820152602001611be3565b506000838581612edd57fe5b0495945050505050565b6000610b5b8383604051806040016040528060158152602001747375627472616374696f6e20756e646572666c6f7760581b815250611ba7565b6000610b5b83836040518060400160405280601781526020017f6d756c7469706c69636174696f6e206f766572666c6f77000000000000000000815250612f96565b6000610b5b83836040518060400160405280600e81526020016d646976696465206279207a65726f60901b815250613015565b6000831580612fa3575082155b15612fb057506000610b5b565b83830283858281612fbd57fe5b0414839061300c5760405162461bcd60e51b8152602060048201818152835160248401528351909283926044909101919085019080838360008315611bfb578181015183820152602001611be3565b50949350505050565b600081836130645760405162461bcd60e51b8152602060048201818152835160248401528351909283926044909101919085019080838360008315611bfb578181015183820152602001611be3565b50828481612b2c57fe5b604051806020016040528060008152509056fe5468652063616c6c6572206f6620746869732066756e6374696f6e206d75737420626520746865206c656e64696e6720706f6f6c45524332303a207472616e7366657220746f20746865207a65726f206164647265737345524332303a206275726e20616d6f756e7420657863656564732062616c616e6365557365722063616e6e6f742072656465656d206d6f7265207468616e2074686520617661696c61626c652062616c616e636545524332303a20617070726f766520746f20746865207a65726f20616464726573735369676820697320616c7265616479207265646972656374656420746f207468652070726f7669646564206163636f756e7445524332303a207472616e7366657220616d6f756e7420657863656564732062616c616e63655349474820446973747269627574696f6e2048616e646c65722072657475726e656420696e76616c696420626f72726f7720496e64657820666f722074686520696e737472756d656e74557365722063616e6e6f74206769766520616c6c6f77616e636520746f2068696d73656c66536166654d6174683a206d756c7469706c69636174696f6e206f766572666c6f7745524332303a207472616e7366657220616d6f756e74206578636565647320616c6c6f77616e6365496e74657265737420697320616c7265616479207265646972656374656420746f207468652075736572496e7465726573742073747265616d2063616e206f6e6c79206265207265646972656374656420696620746865726520697320612076616c69642062616c616e63655472616e7366657272656420616d6f756e74206e6565647320746f2062652067726561746572207468616e207a65726f45524332303a206275726e2066726f6d20746865207a65726f20616464726573735349474820446973747269627574696f6e2048616e646c65722072657475726e656420696e76616c696420737570706c7920496e64657820666f722074686520696e737472756d656e7445524332303a207472616e736665722066726f6d20746865207a65726f206164647265737345524332303a20617070726f76652066726f6d20746865207a65726f20616464726573735468652063616c6c6572206f6620746869732066756e6374696f6e206d75737420626520746865206c656e64696e6720706f6f6c20436f7265536967682073747265616d2063616e206f6e6c79206265207265646972656374656420696620746865726520697320612076616c696420537570706c79206f7220426f72726f772062616c616e636543616c6c6572206973206e6f7420616c6c6f77656420746f207265646972656374207468652053696768206f6620746865207573657245524332303a2064656372656173656420616c6c6f77616e63652062656c6f77207a65726f43616c6c6572206973206e6f7420616c6c6f77656420746f2072656469726563742074686520696e746572657374206f66207468652075736572a265627a7a723158207880cd3ef0ff6b5e34ac06354444692e4fbbfc0d594b51932e2c76d6b29a4a1864736f6c63430005100032",
  "source": "pragma solidity ^0.5.0;\n\nimport \"openzeppelin-solidity/contracts/token/ERC20/ERC20.sol\";\nimport \"openzeppelin-solidity/contracts/token/ERC20/ERC20Detailed.sol\";\n\nimport \"../Configuration/IGlobalAddressesProvider.sol\";\nimport \"./interfaces/ILendingPool.sol\";\nimport \"./interfaces/ILendingPoolDataProvider.sol\";\nimport \"./interfaces/ILendingPoolCore.sol\";\nimport \"../SIGHFinanceContracts/Interfaces/ISighDistributionHandler.sol\";\n\nimport \"./libraries/WadRayMath.sol\";\n\n/**\n * @title Aave ERC20 Itokens (modified by SIGH Finance)\n *\n * @dev Implementation of the interest bearing token for the protocol.\n * @author Aave, SIGH Finance (modified by SIGH Finance)\n */\ncontract IToken is ERC20, ERC20Detailed {\n\n    using WadRayMath for uint256;\n    uint private sighInitialIndex = 1e36;        // INDEX (SIGH RELATED)\n\n    struct Double {\n        uint mantissa;\n    }\n\n    struct Exp {\n        uint mantissa;\n    }\n\n    uint256 public constant UINT_MAX_VALUE = uint256(-1);\n\n    address public underlyingInstrumentAddress;\n\n    IGlobalAddressesProvider private addressesProvider;     // Only used in Constructor()\n    ILendingPoolCore private core;\n    ILendingPool private pool;\n    ILendingPoolDataProvider private dataProvider;\n    ISighDistributionHandler public sighDistributionHandlerContract; // SIGH DISTRIBUTION HANDLER - ADDED BY SIGH FINANCE\n    \n    mapping (address => uint256) private userIndexes;                       // index values. Taken from core lending pool contract\n    mapping (address => address) private interestRedirectionAddresses;      // Address to which the interest stream is being redirected\n    mapping (address => uint256) private redirectedBalances;\n    mapping (address => address) public interestRedirectionAllowances;     // Address allowed to perform interest redirection by the user\n\n    uint public sigh_Transfer_Threshold = 1e18;                         // SIGH Transferred when accured >= 1 SIGH (in ETH)\n    mapping (address => uint256) private AccuredSighBalances;           // SIGH Collected - ADDED BY SIGH FINANCE\n    mapping (address => uint256) private SupplierIndexes;               // SupplierIndex - ADDED BY SIGH FINANCE\n    mapping (address => uint256) private BorrowerIndexes;               // BorrowerIndex - ADDED BY SIGH FINANCE\n    mapping (address => address) private sighRedirectionAddresses;      // Redirection Address - ADDED BY SIGH FINANCE\n    mapping (address => address) private sighRedirectionAllowances;    // Allowance - ADDED BY SIGH FINANCE\n\n\n// ########################\n// ######  EVENTS #########\n// ########################\n\n    /**\n    * @dev emitted after the redeem action\n    * @param _from the address performing the redeem\n    * @param _value the amount to be redeemed\n    * @param _fromBalanceIncrease the cumulated balance since the last update of the user\n    * @param _fromIndex the last index of the user\n    **/\n    event Redeem( address indexed _from,uint256 _value, uint256 _fromBalanceIncrease, uint256 _fromIndex);\n\n    /**\n    * @dev emitted after the mint action\n    * @param _from the address performing the mint\n    * @param _value the amount to be minted\n    * @param _fromBalanceIncrease the cumulated balance since the last update of the user\n    * @param _fromIndex the last index of the user\n    **/\n    event MintOnDeposit( address indexed _from, uint256 _value, uint256 _fromBalanceIncrease, uint256 _fromIndex);\n\n    /**\n    * @dev emitted during the liquidation action, when the liquidator reclaims the underlying asset\n    * @param _from the address from which the tokens are being burned\n    * @param _value the amount to be burned\n    * @param _fromBalanceIncrease the cumulated balance since the last update of the user\n    * @param _fromIndex the last index of the user\n    **/\n    event BurnOnLiquidation(address indexed _from, uint256 _value, uint256 _fromBalanceIncrease, uint256 _fromIndex);\n\n    /**\n    * @dev emitted during the transfer action\n    * @param _from the address from which the tokens are being transferred\n    * @param _to the adress of the destination\n    * @param _value the amount to be minted\n    * @param _fromBalanceIncrease the cumulated balance since the last update of the user\n    * @param _toBalanceIncrease the cumulated balance since the last update of the destination\n    * @param _fromIndex the last index of the user\n    * @param _toIndex the last index of the liquidator\n    **/\n    event BalanceTransfer( address indexed _from, address indexed _to, uint256 _value, uint256 _fromBalanceIncrease, uint256 _toBalanceIncrease, uint256 _fromIndex, uint256 _toIndex );\n\n    /**\n    * @dev emitted when the accumulation of the interest\n    * by an user is redirected to another user\n    * @param _from the address from which the interest is being redirected\n    * @param _to the adress of the destination\n    * @param _fromBalanceIncrease the cumulated balance since the last update of the user\n    * @param _fromIndex the last index of the user\n    **/\n    event InterestStreamRedirected( address indexed _from, address indexed _to, uint256 _redirectedBalance, uint256 _fromBalanceIncrease, uint256 _fromIndex);\n\n    /**\n    * @dev emitted when the redirected balance of an user is being updated\n    * @param _targetAddress the address of which the balance is being updated\n    * @param _targetBalanceIncrease the cumulated balance since the last update of the target\n    * @param _targetIndex the last index of the user\n    * @param _redirectedBalanceAdded the redirected balance being added\n    * @param _redirectedBalanceRemoved the redirected balance being removed\n    **/\n    event RedirectedBalanceUpdated( address indexed _targetAddress, uint256 _targetBalanceIncrease, uint256 _targetIndex, uint256 _redirectedBalanceAdded, uint256 _redirectedBalanceRemoved);\n\n    event InterestRedirectionAllowanceChanged( address indexed _from, address indexed _to );\n\n// ###########################\n// ######  MODIFIERS #########\n// ###########################\n\n    modifier onlyLendingPool {\n        require( msg.sender == address(pool), \"The caller of this function must be the lending pool\");\n        _;\n    }\n\n    modifier onlyLendingPoolCore {\n        require( msg.sender == address(core), \"The caller of this function must be the lending pool Core\");\n        _;\n    }\n\n    modifier whenTransferAllowed(address _from, uint256 _amount) {\n        require(isTransferAllowed(_from, _amount), \"Transfer cannot be allowed.\");\n        _;\n    }\n\n    /**\n     * @dev Used to validate transfers before actually executing them.\n     * @param _user address of the user to check\n     * @param _amount the amount to check\n     * @return true if the _user can transfer _amount, false otherwise\n     **/\n    function isTransferAllowed(address _user, uint256 _amount) public view returns (bool) {\n        return dataProvider.balanceDecreaseAllowed(underlyingInstrumentAddress, _user, _amount);\n    }\n\n// ################################################################################################################################################\n// ######  CONSTRUCTOR ############################################################################################################################\n// ######  1. Sets the underlyingInstrumentAddress, name, symbol, decimals.              ###############################################################\n// ######  2. The GlobalAddressesProvider's address is used to get the LendingPoolCore #######################################################\n// ######     contract address, LendingPool contract address, and the LendingPoolDataProvider contract address and set them.    ###################\n// ################################################################################################################################################\n\n   constructor( address _addressesProvider,    address _underlyingAsset, uint8 _underlyingAssetDecimals, string memory _name, string memory _symbol) public ERC20Detailed(_name, _symbol, _underlyingAssetDecimals) {\n\n        addressesProvider = IGlobalAddressesProvider(_addressesProvider);\n        core = ILendingPoolCore(addressesProvider.getLendingPoolCore());\n        pool = ILendingPool(addressesProvider.getLendingPool());\n        dataProvider = ILendingPoolDataProvider(addressesProvider.getLendingPoolDataProvider());\n        sighDistributionHandlerContract = ISighDistributionHandler(addressesProvider.getSIGHMechanismHandler());\n        underlyingInstrumentAddress = _underlyingAsset;\n    }\n\n// ###############################################################################################\n// ######  MINT NEW ITOKENS ON DEPOST ############################################################\n// ######  1. Can only be called by lendingPool Contract (called after amount is transferred) $$$$\n// ######  2. If interest is being redirected, it adds the amount which is #######################\n// ######     deposited to the increase in balance (through interest) and ########################\n// ######     updates the redirected balance. ####################################################\n// ######  3. It then mints new ITokens  #########################################################\n// ###############################################################################################\n\n    /**\n     * @dev mints token in the event of users depositing the underlying asset into the lending pool. Only lending pools can call this function\n     * @param _account the address receiving the minted tokens\n     * @param _amount the amount of tokens to mint\n     */\n    function mintOnDeposit(address _account, uint256 _amount) external onlyLendingPool {\n        accure_Supplier_SIGH(_account);                                                          // ADDED BY SIGH FINANCE (ACCURS SIGH FOR DEPOSITOR)\n        (, , uint256 balanceIncrease, uint256 index) = cumulateBalanceInternal(_account);       //calculates new interest generated and mints the ITokens (based on interest)\n\n         //if the user is redirecting his interest towards someone else, we update the redirected balance of the redirection address by adding the accrued interest and the amount deposited\n        updateRedirectedBalanceOfRedirectionAddressInternal(_account, balanceIncrease.add(_amount), 0);\n        _mint(_account, _amount);       //mint an equivalent amount of tokens to cover the new deposit\n\n        emit MintOnDeposit(_account, _amount, balanceIncrease, index);\n    }\n\n// ###########################################################################################################################\n// ######  REDEEM UNDERLYING TOKENS ##########################################################################################\n// ######  1. If interest is being redirected, it adds the increase in balance (through interest) and ########################\n// ######     subtracts the amount to be redeemed to the redirected balance. #################################################\n// ######  2. It then burns the ITokens equal to amount to be redeemed  ###################################################### \n// ######  3. It then calls redeemUnderlying function of lendingPool Contract to transfer the underlying amount  #############\n// ###########################################################################################################################\n\n    /**\n    * @dev redeems Itoken for the underlying asset\n    * @param _amount the amount being redeemed\n    **/\n    function redeem(uint256 _amount) external {\n\n        require(_amount > 0, \"Amount to redeem needs to be > 0\");\n        \n        (, uint256 currentBalance, uint256 balanceIncrease, uint256 index) = cumulateBalanceInternal(msg.sender);   //cumulates the balance of the user\n        uint256 amountToRedeem = _amount;\n\n        //if amount is equal to uint(-1), the user wants to redeem everything\n        if(_amount == UINT_MAX_VALUE){\n            amountToRedeem = currentBalance;\n        }\n\n        require(amountToRedeem <= currentBalance, \"User cannot redeem more than the available balance\");\n        require(isTransferAllowed(msg.sender, amountToRedeem), \"Transfer cannot be allowed.\");       //check that the user is allowed to redeem the amount\n\n        pool.redeemUnderlying( underlyingInstrumentAddress, msg.sender, amountToRedeem, currentBalance.sub(amountToRedeem) );   // executes redeem of the underlying asset\n        accure_Supplier_SIGH(msg.sender);                                                          // ADDED BY SIGH FINANCE (ACCURS SIGH FOR REDEEMER)\n\n        //if the user is redirecting his interest towards someone else,\n        //we update the redirected balance of the redirection address by adding the accrued interest, and removing the amount to redeem\n        updateRedirectedBalanceOfRedirectionAddressInternal(msg.sender, balanceIncrease, amountToRedeem);\n\n        _burn(msg.sender, amountToRedeem);      // burns tokens equivalent to the amount requested\n\n        bool userIndexReset = false;\n        \n        if(currentBalance.sub(amountToRedeem) == 0){        //reset the user data if the remaining balance is 0\n            userIndexReset = resetDataOnZeroBalanceInternal(msg.sender);\n        }\n\n        emit Redeem(msg.sender, amountToRedeem, balanceIncrease, userIndexReset ? 0 : index);\n    }\n\n// #########################################################################################################\n// ######  BURN ITOKENS WHEN LIQUIDATION OCCURS ############################################################\n// ######  1. Can only be called by lendingPool Contract  ##################################################\n// ######  1. If interest is being redirected, it adds the increase in balance (through interest) and  #####\n// ######     subtracts the amount to be burnt to the redirected balance. ##################################\n// ######  2. It then burns the ITokens equal to amount to be burnt   ######################################\n// #########################################################################################################\n\n    /**\n     * @dev burns token in the event of a borrow being liquidated, in case the liquidators reclaims the underlying asset\n     * Transfer of the liquidated asset is executed by the lending pool contract.\n     * only lending pools can call this function\n     * @param _account the address from which burn the Itokens\n     * @param _value the amount to burn\n     **/\n    function burnOnLiquidation(address _account, uint256 _value) external onlyLendingPool {\n        accure_Supplier_SIGH(_account);                                                          // ADDED BY SIGH FINANCE (ACCURS SIGH FOR REDEEMER)\n        (,uint256 accountBalance,uint256 balanceIncrease,uint256 index) = cumulateBalanceInternal(_account);    //cumulates the balance of the user being liquidated\n\n        //adds the accrued interest and substracts the burned amount to the redirected balance\n        updateRedirectedBalanceOfRedirectionAddressInternal(_account, balanceIncrease, _value);\n        _burn(_account, _value);        //burns the requested amount of tokens\n\n        bool userIndexReset = false;\n        if(accountBalance.sub(_value) == 0){        //reset the user data if the remaining balance is 0\n            userIndexReset = resetDataOnZeroBalanceInternal(_account);\n        }\n\n        emit BurnOnLiquidation(_account, _value, balanceIncrease, userIndexReset ? 0 : index);\n    }\n\n// ##################################################################################################################################################################\n// ######  TRANSFER FUNCTIONALITY ###################################################################################################################################\n// ######  1. transferOnLiquidation() : Can only be called by lendingPool Contract. Called to transfer Collateral when liquidating  #################################\n// ######  2. _transfer() : Over-rides the internal _transfer() called by the ERC20's transfer() & transferFrom() ###################################################\n// ######  3. executeTransferInternal() --> It actually executes the transfer. Accures interest and updates redirected balances before executing transfer.  #########\n// ##################################################################################################################################################################\n\n    /**\n     * @dev transfers tokens in the event of a borrow being liquidated, in case the liquidators reclaims the Itoken  only lending pools can call this function\n     * @param _from the address from which transfer the Itokens\n     * @param _to the destination address\n     * @param _value the amount to transfer\n     **/\n    function transferOnLiquidation(address _from, address _to, uint256 _value) external onlyLendingPool {\n        executeTransferInternal(_from, _to, _value);\n    }\n\n    /**\n     * @notice ERC20 implementation internal function backing transfer() and transferFrom()\n     * @dev validates the transfer before allowing it. NOTE: This is not standard ERC20 behavior\n     **/\n    function _transfer(address _from, address _to, uint256 _amount) internal whenTransferAllowed(_from, _amount) {\n        executeTransferInternal(_from, _to, _amount);\n    }\n\n    /**\n    * @dev executes the transfer of Itokens, invoked by both _transfer() and transferOnLiquidation()\n    * @param _from the address from which transfer the Itokens\n    * @param _to the destination address\n    * @param _value the amount to transfer\n    **/\n    function executeTransferInternal( address _from, address _to,  uint256 _value) internal {\n        require(_value > 0, \"Transferred amount needs to be greater than zero\");\n        accure_Supplier_SIGH(_from);                                                          // ADDED BY SIGH FINANCE (ACCURS SIGH FOR From Account)\n        accure_Supplier_SIGH(_to);                                                            // ADDED BY SIGH FINANCE (ACCURS SIGH FOR To Account)\n        \n        (, uint256 fromBalance, uint256 fromBalanceIncrease, uint256 fromIndex ) = cumulateBalanceInternal(_from);   //cumulate the balance of the sender\n        (, , uint256 toBalanceIncrease, uint256 toIndex ) = cumulateBalanceInternal(_to);       //cumulate the balance of the receiver\n\n        //if the sender is redirecting his interest towards someone else, adds to the redirected balance the accrued interest and removes the amount being transferred\n        updateRedirectedBalanceOfRedirectionAddressInternal(_from, fromBalanceIncrease, _value);\n        //if the receiver is redirecting his interest towards someone else, adds to the redirected balance the accrued interest and the amount being transferred\n        updateRedirectedBalanceOfRedirectionAddressInternal(_to, toBalanceIncrease.add(_value), 0);\n\n        super._transfer(_from, _to, _value);        //performs the transfer\n\n        bool fromIndexReset = false;\n        \n        if(fromBalance.sub(_value) == 0){           //reset the user data if the remaining balance is 0\n            fromIndexReset = resetDataOnZeroBalanceInternal(_from);\n        }\n\n        emit BalanceTransfer(  _from, _to, _value, fromBalanceIncrease, toBalanceIncrease, fromIndexReset ? 0 : fromIndex, toIndex);\n    }\n\n// ###########################################################################################################################################################\n// ######  REDIRECTING INTEREST STREAMS: FUNCTIONALITY #######################################################################################################\n// ######  1. redirectInterestStream() : User himself redirects his interest stream.  ########################################################################\n// ######  2. allowInterestRedirectionTo() : User gives the permission of redirecting the interest stream to another account  ################################ \n// ######  2. redirectInterestStreamOf() : When account given the permission to redirect interest stream (by the user) redirects the stream.  ################\n// ######  3. redirectInterestStreamInternal() --> Executes the redirecting of the interest stream  ##########################################################\n// ###########################################################################################################################################################\n\n    /**\n    * @dev redirects the interest generated to a target address. When the interest is redirected, the user balance is added to the recepient redirected balance.\n    * @param _to the address to which the interest will be redirected\n    **/\n    function redirectInterestStream(address _to) external {\n        redirectInterestStreamInternal(msg.sender, _to);\n    }\n\n    /**\n    * @dev gives allowance to an address to execute the interest redirection on behalf of the caller.\n    * @param _to the address to which the interest will be redirected. Pass address(0) to reset the allowance.\n    **/\n    function allowInterestRedirectionTo(address _to) external {\n        require(_to != msg.sender, \"User cannot give allowance to himself\");\n        interestRedirectionAllowances[msg.sender] = _to;\n        emit InterestRedirectionAllowanceChanged( msg.sender, _to);\n    }\n\n    /**\n    * @dev redirects the interest generated by _from to a target address.\n    * The caller needs to have allowance on the interest redirection to be able to execute the function.\n    * @param _from the address of the user whom interest is being redirected\n    * @param _to the address to which the interest will be redirected\n    **/\n    function redirectInterestStreamOf(address _from, address _to) external {\n        require( msg.sender == interestRedirectionAllowances[_from], \"Caller is not allowed to redirect the interest of the user\");\n        redirectInterestStreamInternal(_from,_to);\n    }\n\n\n    /**\n    * @dev executes the redirection of the interest from one address to another.\n    * immediately after redirection, the destination address will start to accrue interest.\n    * @param _from the address from which transfer the Itokens\n    * @param _to the destination address\n    **/\n    function redirectInterestStreamInternal( address _from, address _to) internal {\n\n        address currentRedirectionAddress = interestRedirectionAddresses[_from];\n        require(_to != currentRedirectionAddress, \"Interest is already redirected to the user\");\n\n        (uint256 previousPrincipalBalance, uint256 fromBalance, uint256 balanceIncrease, uint256 fromIndex) = cumulateBalanceInternal(_from);   //accumulates the accrued interest to the principal\n        require(fromBalance > 0, \"Interest stream can only be redirected if there is a valid balance\");\n\n        //if the user is already redirecting the interest to someone, before changing the redirection address we substract the redirected balance of the previous recipient\n        if(currentRedirectionAddress != address(0)){\n            updateRedirectedBalanceOfRedirectionAddressInternal(_from,0, previousPrincipalBalance);\n        }\n\n        //if the user is redirecting the interest back to himself, we simply set to 0 the interest redirection address\n        if(_to == _from) {\n            interestRedirectionAddresses[_from] = address(0);\n            emit InterestStreamRedirected( _from, address(0), fromBalance, balanceIncrease,fromIndex);\n            return;\n        }\n        \n        interestRedirectionAddresses[_from] = _to;      // set the redirection address to the new recipient\n        updateRedirectedBalanceOfRedirectionAddressInternal(_from,fromBalance,0);   //adds the user balance to the redirected balance of the destination\n\n        emit InterestStreamRedirected( _from, _to, fromBalance, balanceIncrease, fromIndex);\n    }\n\n// ##################################################################################################################################\n// ### cumulateBalanceInternal( user ) --> returns 4 values and mints the balanceIncrease amount  ###################################\n// ###  1. previousPrincipalBalance : IToken balance of the user  ###################################################################\n// ###  2. newPrincipalBalance : new balance after adding balanceIncrease  ##########################################################\n// ###  3. balanceIncrease : increase in balance based on interest from both principal and redirected interest streams  #############\n// ###  4. index : updated user Index (gets the value from the core lending pool contract)  #########################################\n// ##################################################################################################################################\n\n    /**\n    * @dev accumulates the accrued interest of the user to the principal balance\n    * @param _user the address of the user for which the interest is being accumulated\n    * @return the previous principal balance, the new principal balance, the balance increase\n    * and the new user index\n    **/\n    function cumulateBalanceInternal(address _user) internal returns(uint256, uint256, uint256, uint256) {\n\n        uint256 previousPrincipalBalance = super.balanceOf(_user);                                         // Current IToken Balance\n        uint256 balanceIncrease = balanceOf(_user).sub(previousPrincipalBalance);                          //calculate the accrued interest since the last accumulation\n        _mint(_user, balanceIncrease);                                                                     //mints an amount of tokens equivalent to the amount accumulated\n        uint256 index = userIndexes[_user] = core.getInstrumentNormalizedIncome(underlyingInstrumentAddress);      //updates the user index\n        return ( previousPrincipalBalance, previousPrincipalBalance.add(balanceIncrease), balanceIncrease, index);\n    }\n\n\n// #########################################################################################################\n// ### updateRedirectedBalanceOfRedirectionAddressInternal( user ) --> updates the redirected balance of the user\n// #########################################################################################################\n\n    /**\n    * @dev updates the redirected balance of the user. If the user is not redirecting his interest, nothing is executed.\n    * @param _user the address of the user for which the interest is being accumulated\n    * @param _balanceToAdd the amount to add to the redirected balance\n    * @param _balanceToRemove the amount to remove from the redirected balance\n    **/\n    function updateRedirectedBalanceOfRedirectionAddressInternal( address _user, uint256 _balanceToAdd, uint256 _balanceToRemove ) internal {\n\n        address redirectionAddress = interestRedirectionAddresses[_user];\n        if(redirectionAddress == address(0)){               //if there isn't any redirection, nothing to be done\n            return;\n        }\n\n        (,,uint256 balanceIncrease, uint256 index) = cumulateBalanceInternal(redirectionAddress);       //compound balances of the redirected address\n        redirectedBalances[redirectionAddress] = redirectedBalances[redirectionAddress].add(_balanceToAdd).sub(_balanceToRemove);   //updating the redirected balance\n\n        //if the interest of redirectionAddress is also being redirected, we need to update the redirected balance of the redirection target by adding the balance increase\n        address targetOfRedirectionAddress = interestRedirectionAddresses[redirectionAddress];\n\n        if(targetOfRedirectionAddress != address(0)){\n            redirectedBalances[targetOfRedirectionAddress] = redirectedBalances[targetOfRedirectionAddress].add(balanceIncrease);\n        }\n\n        emit RedirectedBalanceUpdated( redirectionAddress, balanceIncrease, index, _balanceToAdd, _balanceToRemove );\n    }\n\n    /**\n    * @dev calculate the interest accrued by _user on a specific balance\n    * @param _user the address of the user for which the interest is being accumulated\n    * @param _balance the balance on which the interest is calculated\n    * @return the interest rate accrued\n    **/\n    function calculateCumulatedBalanceInternal( address _user,  uint256 _balance) internal view returns (uint256) {\n        return _balance.wadToRay().rayMul(core.getInstrumentNormalizedIncome(underlyingInstrumentAddress)).rayDiv(userIndexes[_user]).rayToWad();\n    }\n\n\n// #################################################\n// #### Called when the user balance becomes 0  ####\n// #################################################\n    /**\n    * @dev function to reset the interest stream redirection and the user index, if the user has no balance left.\n    * @param _user the address of the user\n    * @return true if the user index has also been reset, false otherwise. useful to emit the proper user index value\n    **/\n    function resetDataOnZeroBalanceInternal(address _user) internal returns(bool) {\n        \n        interestRedirectionAddresses[_user] = address(0);       //if the user has 0 principal balance, the interest stream redirection gets reset\n        emit InterestStreamRedirected(_user, address(0),0,0,0);     //emits a InterestStreamRedirected event to notify that the redirection has been reset\n\n        //if the redirected balance is also 0, we clear up the user index\n        if(redirectedBalances[_user] == 0){\n            userIndexes[_user] = 0;\n            return true;\n        }\n        else{\n            return false;\n        }\n    }\n\n// ############################################################\n// #### Getting the State of the Contract (View Functions) ####\n// ############################################################\n\n    /**\n    * @dev calculates the balance of the user, which is the principal balance + interest generated by the principal balance + interest generated by the redirected balance\n    * @param _user the user for which the balance is being calculated\n    * @return the total balance of the user\n    **/\n    function balanceOf(address _user) public view returns(uint256) {\n\n        uint256 currentPrincipalBalance = super.balanceOf(_user);       //current principal balance of the user\n        uint256 redirectedBalance = redirectedBalances[_user];          //balance redirected by other users to _user for interest rate accrual\n\n        if(currentPrincipalBalance == 0 && redirectedBalance == 0) {\n            return 0;\n        }\n\n        //if the _user is not redirecting the interest to anybody, accrues the interest for himself\n        if(interestRedirectionAddresses[_user] == address(0)){\n            //accruing for himself means that both the principal balance and the redirected balance partecipate in the interest\n            return calculateCumulatedBalanceInternal(   _user, currentPrincipalBalance.add(redirectedBalance)   ).sub(redirectedBalance);\n        }\n        else { //if the user redirected the interest, then only the redirected balance generates interest. In that case, the interest generated\n            //by the redirected balance is added to the current principal balance.\n            return currentPrincipalBalance.add( calculateCumulatedBalanceInternal( _user, redirectedBalance ).sub(redirectedBalance) );\n        }\n    }\n\n    /**\n    * @dev returns the principal balance of the user. The principal balance is the last updated stored balance, which does not consider the perpetually accruing interest.\n    * @param _user the address of the user\n    * @return the principal balance of the user\n    **/\n    function principalBalanceOf(address _user) external view returns(uint256) {\n        return super.balanceOf(_user);\n    }\n    \n    /**\n    * @dev calculates the total supply of the specific Itoken. since the balance of every single user increases over time, the total supply does that too.\n    * @return the current total supply\n    **/\n    function totalSupply() public view returns(uint256) {\n        uint256 currentSupplyPrincipal = super.totalSupply();\n        if(currentSupplyPrincipal == 0){\n            return 0;\n        }\n        return currentSupplyPrincipal.wadToRay().rayMul( core.getInstrumentNormalizedIncome(underlyingInstrumentAddress) ) .rayToWad();\n    }\n\n    /**\n    * @dev returns the last index of the user, used to calculate the balance of the user\n    * @param _user address of the user\n    * @return the last user index\n    **/\n    function getUserIndex(address _user) external view returns(uint256) {\n        return userIndexes[_user];\n    }\n\n    /**\n    * @dev returns the address to which the interest is redirected\n    * @param _user address of the user\n    * @return 0 if there is no redirection, an address otherwise\n    **/\n    function getInterestRedirectionAddress(address _user) external view returns(address) {\n        return interestRedirectionAddresses[_user];\n    }\n\n    /**\n    * @dev returns the redirected balance of the user. The redirected balance is the balance redirected by other accounts to the user, that is accrueing interest for him.\n    * @param _user address of the user\n    * @return the total redirected balance\n    **/\n    function getRedirectedBalance(address _user) external view returns(uint256) {\n        return redirectedBalances[_user];\n    }\n\n\n\n// ###########################################################################\n// ############ ______SIGH ACCURING AND STREAMING FUNCTIONS______ ############\n// ############ 1. claimMySIGH() [EXTERNAL] : All accured SIGH is transferred to the transacting account.\n// ############ 2. claimSIGH() [EXTERNAL]  : Accepts an array of users. Same as 1 but for array of users.\n// ############ 3. claimSighInternal() [INTERNAL] : CAlled from 1. and 2.\n// ############ 1. accure_Supplier_SIGH() [INTERNAL] :\n// ############ 2. accure_Borrower_SIGH() [EXTERNAL] : Calls accure_Borrower_SIGH_Internal.\n// ############ 3. accureSigh() [INTERNAL] : \n// ############ 4. transferSigh() [INTERNAL] :  \n\n\n    function claimMySIGH() external {\n        claimSighInternal(msg.sender);\n    }\n\n    function claimSIGH(address[] calldata holders ) external {        \n        for (uint i = 0; i < holders.length; i++) {\n            claimSighInternal(holders[i]);\n        }\n    }\n\n    function claimSighInternal(address user) internal {\n        accure_Supplier_SIGH(user);\n        accure_Borrower_SIGH_Internal(user);\n        if (AccuredSighBalances[user] > 0) {\n            transferSigh(user, user);\n        }\n    } \n\n    event distributeSupplier_SIGH_test3(address supplier, uint supplyIndex_mantissa, uint supplierIndex_mantissa );\n    event distributeSupplier_SIGH_test4(uint SupplierIndexes_,uint supplierTokens,uint deltaIndex_mantissa,uint supplierSighDelta );\n\n    // Supply Index tracks the SIGH Accured per Instrument. Supplier Index tracks the Sigh Accured by the Supplier per Instrument\n    // Delta Index = Supply Index - Supplier Index\n    // SIGH Accured by Supplier = Supplier's Instrument Balance * Delta Index\n    function accure_Supplier_SIGH( address supplier ) internal {\n        uint supplyIndex = sighDistributionHandlerContract.getInstrumentSupplyIndex( underlyingInstrumentAddress );      // Instrument index retreived from the SIGHDistributionHandler Contract\n        require(supplyIndex > 0, \"SIGH Distribution Handler returned invalid supply Index for the instrument\");\n\n        Double memory supplierIndex = Double({mantissa: SupplierIndexes[supplier]}) ;      // Stored Supplier Index\n        Double memory supplyIndex_ = Double({mantissa: supplyIndex});                        // Instrument Index\n        SupplierIndexes[supplier] = supplyIndex_.mantissa;                                   // Supplier Index is UPDATED\n\n        if (supplierIndex.mantissa == 0 && supplyIndex_.mantissa > 0) {\n            supplierIndex.mantissa = supplyIndex_.mantissa; // sighInitialIndex;\n        }\n\n        emit distributeSupplier_SIGH_test3(supplier, supplyIndex_.mantissa, supplierIndex.mantissa );\n\n        uint supplierTokens = super.balanceOf(supplier);                                                // Current Supplier IToken (1:1 mapping with instrument) Balance\n        Double memory deltaIndex = sub_(supplyIndex_, supplierIndex);                                // , 'Distribute Supplier SIGH : supplyIndex Subtraction Underflow'\n\n        emit distributeSupplier_SIGH_test4(SupplierIndexes[supplier], supplierTokens, deltaIndex.mantissa, mul_(supplierTokens, deltaIndex) );\n\n        if (deltaIndex.mantissa > 0) {\n            uint supplierSighDelta = mul_(supplierTokens, deltaIndex);                                      // Supplier Delta = Balance * Double(DeltaIndex)/DoubleScale\n            accureSigh(supplier, supplierSighDelta );        // ACCURED SIGH AMOUNT IS ADDED TO THE ACCUREDSIGHBALANCES of the Supplier or the address to which SIGH is being redirected to \n        }\n    }\n\n    /**\n     * @notice Calculate SIGH accrued by a borrower and possibly transfer it to them\n     * @dev Borrowers will not begin to accrue until after the first interaction with the protocol.\n     * @param borrower The address of the borrower to distribute Gsigh to\n     */\n    function accure_Borrower_SIGH(address borrower) external onlyLendingPoolCore {\n        accure_Borrower_SIGH_Internal(borrower);\n    }\n\n    event distributeBorrower_SIGH_test3(address borrower, uint borrowIndex_mantissa, uint borrowerIndex_mantissa );\n    event distributeBorrower_SIGH_test4(uint BorrowerIndexes, uint deltaIndex,uint marketBorrowIndex, uint borrowBalance,uint borrowerAmount, uint borrowerSIGHDelta );\n\n    function accure_Borrower_SIGH_Internal(address borrower) internal {\n        uint borrowIndex = sighDistributionHandlerContract.getInstrumentBorrowIndex( underlyingInstrumentAddress );      // Instrument index retreived from the SIGHDistributionHandler Contract\n        require(borrowIndex > 0, \"SIGH Distribution Handler returned invalid borrow Index for the instrument\");\n        \n        Double memory borrowIndex_ = Double({mantissa: borrowIndex});                        // Instrument Index\n        Double memory borrowerIndex = Double({mantissa: BorrowerIndexes[borrower]}) ;      // Stored Borrower Index\n        BorrowerIndexes[borrower] = borrowIndex_.mantissa;                                   // Borrower Index is UPDATED\n\n        if (borrowerIndex.mantissa == 0 && borrowIndex_.mantissa > 0) {\n            borrowerIndex.mantissa = borrowIndex_.mantissa; //sighInitialIndex;\n        }\n\n        emit distributeBorrower_SIGH_test3(borrower, borrowIndex_.mantissa, borrowerIndex.mantissa );\n\n        Double memory deltaIndex = sub_(borrowIndex_, borrowerIndex);                                                         // Sigh accured per instrument\n\n\n        // if (deltaIndex.mantissa > 0) {\n            Exp memory marketBorrowIndex = Exp({mantissa: core.getInstrumentVariableBorrowsCumulativeIndex( underlyingInstrumentAddress )});  // Getting index from LendingPool Core\n            uint borrowBalance;\n            ( , borrowBalance , , ) = core.getUserBasicInstrumentData(underlyingInstrumentAddress, borrower);                                 // Getting Borrow Balance of the User from LendingPool Core \n            uint borrowerAmount = div_(borrowBalance, marketBorrowIndex);\n            uint borrowerSIGHDelta = mul_(borrowerAmount, deltaIndex);        // Additional Sigh Accured by the Borrower\n\n            emit distributeBorrower_SIGH_test4(BorrowerIndexes[borrower], deltaIndex.mantissa, marketBorrowIndex.mantissa , borrowBalance, borrowerAmount, borrowerSIGHDelta );\n\n            accureSigh( borrower,borrowerSIGHDelta );            // ACCURED SIGH AMOUNT IS ADDED TO THE ACCUREDSIGHBALANCES of the BORROWER or the address to which SIGH is being redirected to \n        // }\n    }\n\n    event SighAccured_(address user, address sighAccuredTo, uint AccuredSighBalance );\n    event SighAccured(address user, address sighAccuredTo, uint AccuredSighBalance );\n\n    /**\n     * @notice Accured SIGH amount is added to the ACCURED_SIGH_BALANCES of the Supplier/Borrower or the address to which SIGH is being redirected to.\n     * @param user The user for which SIGH is being accured\n     * @param accuredSighAmount The amount of SIGH accured\n     */\n    function accureSigh( address user, uint accuredSighAmount ) internal {\n        address sighAccuredTo = user;\n\n        if ( sighRedirectionAddresses[sighAccuredTo] == address(0) ) {\n            AccuredSighBalances[sighAccuredTo] = AccuredSighBalances[sighAccuredTo].add(accuredSighAmount);   // Accured SIGH added to the user's sigh balance\n        }\n        else {\n            sighAccuredTo = sighRedirectionAddresses[user];\n            AccuredSighBalances[sighAccuredTo] = AccuredSighBalances[sighAccuredTo].add(accuredSighAmount);   // Accured SIGH added to the redirected user's sigh balance            \n        }\n        emit SighAccured_( user , sighAccuredTo, accuredSighAmount );\n\n        if ( AccuredSighBalances[sighAccuredTo] > sigh_Transfer_Threshold ) {   // SIGH is Transferred is SIGH_ACCURED_BALANCE > 1e18 SIGH\n            transferSigh( user, sighAccuredTo );\n        }\n        emit SighAccured( user, sighAccuredTo, AccuredSighBalances[sighAccuredTo] );\n    }\n\n    /**\n     * @notice Transfers all accured SIGH to the user\n     * @dev Calls the transferSighTotheUser() of the sighDistributionHandlerContract which transfers SIGH to the user\n     * @param user The user to which the accured SIGH is transferred\n     */\n    function transferSigh( address user,  address sighAccuredTo ) internal {\n        uint amountToBeTransferred = AccuredSighBalances[sighAccuredTo];\n        AccuredSighBalances[sighAccuredTo] = sighDistributionHandlerContract.transferSighTotheUser( underlyingInstrumentAddress, user, sighAccuredTo, amountToBeTransferred ); // Pending Amount Not Transferred is returned\n    }\n\n// ###########################################################################################################################################################\n// ######  ____REDIRECTING Sigh STREAMS____     ##############################################################################################################\n// ######  1. redirectSighStream() [EXTERNAL] : User himself redirects his Sigh stream.      #################################################################\n// ######  2. allowSighRedirectionTo() [EXTERNAL] : User gives the permission of redirecting the Sigh stream to another account     ##########################\n// ######  2. redirectSighStreamOf() [EXTERNAL] : When account given the permission to redirect Sigh stream (by the user) redirects the stream.    ###########\n// ######  3. redirectSighStreamInternal() [INTERNAL] --> Executes the redirecting of the Sigh stream    #####################################################\n// ###########################################################################################################################################################\n    event SighRedirectionAllowanceChanged( address user, address allowedAccount );\n    event SighStreamRedirected( address fromAccount, address toAccount, uint blockNumber );\n\n    /**\n    * @dev redirects the Sigh being generated to a target address. \n    * @param _to the address to which the Sigh will be redirected\n    **/\n    function redirectSighStream(address _to) external {\n        redirectSighStreamInternal(msg.sender, _to);\n    }\n\n    /**\n    * @dev gives allowance to an address to execute the Sigh redirection on behalf of the caller.\n    * @param _to the address to which the Sigh redirection permission is given. Pass address(0) to reset the allowance.\n    **/\n    function allowSighRedirectionTo(address _to) external {\n        require(_to != msg.sender, \"User cannot give allowance to himself\");\n        sighRedirectionAllowances[msg.sender] = _to;\n        emit SighRedirectionAllowanceChanged( msg.sender, _to);\n    }\n\n    /**\n    * @dev redirects the Sigh generated by _from to a target address.\n    * The caller needs to have allowance on the Sigh redirection to be able to execute the function.\n    * @param _from the address of the user whom Sigh is being redirected\n    * @param _to the address to which the Sigh will be redirected\n    **/\n    function redirectSighStreamOf(address _from, address _to) external {\n        require( msg.sender == sighRedirectionAllowances[_from], \"Caller is not allowed to redirect the Sigh of the user\");\n        redirectSighStreamInternal(_from,_to);\n    }\n\n    /**\n    * @dev executes the redirection of the Sigh from one address to another.\n    * immediately after redirection, the destination address will start to accrue Sigh.\n    * @param _from the source address\n    * @param _to the destination address\n    **/\n    function redirectSighStreamInternal( address _from, address _to) internal {\n\n        address currentRedirectionAddress = sighRedirectionAddresses[_from];\n        require(_to != currentRedirectionAddress, \"Sigh is already redirected to the provided account\");\n        \n        uint userSupplyBalance = super.balanceOf(_from);                                                        // SUPPLIED BALANCE\n        uint borrowBalance;\n        ( , borrowBalance , , ) = core.getUserBasicInstrumentData(underlyingInstrumentAddress, _from);          // DEPOSITED BALANCE\n        require(userSupplyBalance > 0 || borrowBalance > 0 , \"Sigh stream can only be redirected if there is a valid Supply or Borrow balance\");\n\n        if(_to == _from) {               //   if the user is redirecting the Sigh back to himself, we simply set to 0 the Sigh redirection address\n            sighRedirectionAddresses[_from] = address(0);\n            emit SighStreamRedirected( _from, address(0), block.number);\n            return;\n        }\n\n        if (currentRedirectionAddress != address(0)) {      // If the SIGH stream is currently redirected, we transfer the amount to that address before changing it\n            accure_Supplier_SIGH(_from);\n            accure_Borrower_SIGH_Internal(_from);\n        }\n        \n        sighRedirectionAddresses[_from] = _to;                                      // set the redirection address to the new recipient\n        emit SighStreamRedirected( _from, _to, block.number);\n    }\n\n// ########################################################### \n// ######  VIEW FUNCTIONS (SIGH RELATED)    ################## \n\n    function getSighAccured(address account) external view returns (uint) {\n        return AccuredSighBalances[account];\n    }\n\n    function getSighStreamRedirectedTo(address account) external view returns (address) {\n        return sighRedirectionAddresses[account];\n    }\n\n    function getSighStreamAllowances(address account) external view returns (address) {\n        return sighRedirectionAllowances[account];\n    }    \n\n    function getSupplierIndexes(address account) external view returns (uint) {\n        return SupplierIndexes[account];\n    }    \n\n    function getBorrowerIndexes(address account) external view returns (uint) {\n        return BorrowerIndexes[account];\n    }    \n\n// \n// ###### SAFE MATH ######\n// \n\n\n    function sub_(Double memory a, Double memory b) pure internal returns (Double memory) {\n        return Double({mantissa: sub_(a.mantissa, b.mantissa)});\n    }\n\n    function sub_(uint a, uint b) pure internal returns (uint) {\n        return sub_(a, b, \"subtraction underflow\");\n    }\n\n    function sub_(uint a, uint b, string memory errorMessage) pure internal returns (uint) {\n        require(b <= a, errorMessage);\n        return a - b;\n    }\n\n    function mul_(uint a, Double memory b) pure internal returns (uint) {\n        uint doubleScale = 1e36;\n        return mul_(a, b.mantissa) / doubleScale;\n    }\n\n    function mul_(uint a, uint b) pure internal returns (uint) {\n        return mul_(a, b, \"multiplication overflow\");\n    }\n\n    function mul_(uint a, uint b, string memory errorMessage) pure internal returns (uint) {\n        if (a == 0 || b == 0) {\n            return 0;\n        }\n        uint c = a * b;\n        require(c / a == b, errorMessage);\n        return c;\n    }\n\n    function div_(uint a, Exp memory b) pure internal returns (uint) {\n        uint expScale = 1e18;\n        return div_(mul_(a, expScale), b.mantissa);\n    }\n\n    function div_(uint a, uint b) pure internal returns (uint) {\n        return div_(a, b, \"divide by zero\");\n    }\n\n    function div_(uint a, uint b, string memory errorMessage) pure internal returns (uint) {\n        require(b > 0, errorMessage);\n        return a / b;\n    }\n\n}\n",
  "sourcePath": "/Users/apple/Desktop/GITCOIN/Sigh_Finance/SighFinanceContracts/contracts/LendingProtocolContracts/IToken.sol",
  "compiler": {
    "name": "solc",
    "version": "0.5.16+commit.9c3226ce.Emscripten.clang"
  },
  "schemaVersion": "3.2.4",
  "updatedAt": "2020-11-14T07:26:42.744Z",
  "devdoc": {
    "author": "Aave, SIGH Finance (modified by SIGH Finance)",
    "details": "Implementation of the interest bearing token for the protocol.",
    "methods": {
      "accure_Borrower_SIGH(address)": {
        "details": "Borrowers will not begin to accrue until after the first interaction with the protocol.",
        "params": {
          "borrower": "The address of the borrower to distribute Gsigh to"
        }
      },
      "allowInterestRedirectionTo(address)": {
        "details": "gives allowance to an address to execute the interest redirection on behalf of the caller.",
        "params": {
          "_to": "the address to which the interest will be redirected. Pass address(0) to reset the allowance.*"
        }
      },
      "allowSighRedirectionTo(address)": {
        "details": "gives allowance to an address to execute the Sigh redirection on behalf of the caller.",
        "params": {
          "_to": "the address to which the Sigh redirection permission is given. Pass address(0) to reset the allowance.*"
        }
      },
      "allowance(address,address)": {
        "details": "See {IERC20-allowance}."
      },
      "approve(address,uint256)": {
        "details": "See {IERC20-approve}.     * Requirements:     * - `spender` cannot be the zero address."
      },
      "balanceOf(address)": {
        "details": "calculates the balance of the user, which is the principal balance + interest generated by the principal balance + interest generated by the redirected balance",
        "params": {
          "_user": "the user for which the balance is being calculated"
        },
        "return": "the total balance of the user*"
      },
      "burnOnLiquidation(address,uint256)": {
        "details": "burns token in the event of a borrow being liquidated, in case the liquidators reclaims the underlying asset Transfer of the liquidated asset is executed by the lending pool contract. only lending pools can call this function",
        "params": {
          "_account": "the address from which burn the Itokens",
          "_value": "the amount to burn*"
        }
      },
      "decimals()": {
        "details": "Returns the number of decimals used to get its user representation. For example, if `decimals` equals `2`, a balance of `505` tokens should be displayed to a user as `5,05` (`505 / 10 ** 2`).     * Tokens usually opt for a value of 18, imitating the relationship between Ether and Wei.     * NOTE: This information is only used for _display_ purposes: it in no way affects any of the arithmetic of the contract, including {IERC20-balanceOf} and {IERC20-transfer}."
      },
      "decreaseAllowance(address,uint256)": {
        "details": "Atomically decreases the allowance granted to `spender` by the caller.     * This is an alternative to {approve} that can be used as a mitigation for problems described in {IERC20-approve}.     * Emits an {Approval} event indicating the updated allowance.     * Requirements:     * - `spender` cannot be the zero address. - `spender` must have allowance for the caller of at least `subtractedValue`."
      },
      "getInterestRedirectionAddress(address)": {
        "details": "returns the address to which the interest is redirected",
        "params": {
          "_user": "address of the user"
        },
        "return": "0 if there is no redirection, an address otherwise*"
      },
      "getRedirectedBalance(address)": {
        "details": "returns the redirected balance of the user. The redirected balance is the balance redirected by other accounts to the user, that is accrueing interest for him.",
        "params": {
          "_user": "address of the user"
        },
        "return": "the total redirected balance*"
      },
      "getUserIndex(address)": {
        "details": "returns the last index of the user, used to calculate the balance of the user",
        "params": {
          "_user": "address of the user"
        },
        "return": "the last user index*"
      },
      "increaseAllowance(address,uint256)": {
        "details": "Atomically increases the allowance granted to `spender` by the caller.     * This is an alternative to {approve} that can be used as a mitigation for problems described in {IERC20-approve}.     * Emits an {Approval} event indicating the updated allowance.     * Requirements:     * - `spender` cannot be the zero address."
      },
      "isTransferAllowed(address,uint256)": {
        "details": "Used to validate transfers before actually executing them.",
        "params": {
          "_amount": "the amount to check",
          "_user": "address of the user to check"
        },
        "return": "true if the _user can transfer _amount, false otherwise*"
      },
      "mintOnDeposit(address,uint256)": {
        "details": "mints token in the event of users depositing the underlying asset into the lending pool. Only lending pools can call this function",
        "params": {
          "_account": "the address receiving the minted tokens",
          "_amount": "the amount of tokens to mint"
        }
      },
      "name()": {
        "details": "Returns the name of the token."
      },
      "principalBalanceOf(address)": {
        "details": "returns the principal balance of the user. The principal balance is the last updated stored balance, which does not consider the perpetually accruing interest.",
        "params": {
          "_user": "the address of the user"
        },
        "return": "the principal balance of the user*"
      },
      "redeem(uint256)": {
        "details": "redeems Itoken for the underlying asset",
        "params": {
          "_amount": "the amount being redeemed*"
        }
      },
      "redirectInterestStream(address)": {
        "details": "redirects the interest generated to a target address. When the interest is redirected, the user balance is added to the recepient redirected balance.",
        "params": {
          "_to": "the address to which the interest will be redirected*"
        }
      },
      "redirectInterestStreamOf(address,address)": {
        "details": "redirects the interest generated by _from to a target address. The caller needs to have allowance on the interest redirection to be able to execute the function.",
        "params": {
          "_from": "the address of the user whom interest is being redirected",
          "_to": "the address to which the interest will be redirected*"
        }
      },
      "redirectSighStream(address)": {
        "details": "redirects the Sigh being generated to a target address. ",
        "params": {
          "_to": "the address to which the Sigh will be redirected*"
        }
      },
      "redirectSighStreamOf(address,address)": {
        "details": "redirects the Sigh generated by _from to a target address. The caller needs to have allowance on the Sigh redirection to be able to execute the function.",
        "params": {
          "_from": "the address of the user whom Sigh is being redirected",
          "_to": "the address to which the Sigh will be redirected*"
        }
      },
      "symbol()": {
        "details": "Returns the symbol of the token, usually a shorter version of the name."
      },
      "totalSupply()": {
        "details": "calculates the total supply of the specific Itoken. since the balance of every single user increases over time, the total supply does that too.",
        "return": "the current total supply*"
      },
      "transfer(address,uint256)": {
        "details": "See {IERC20-transfer}.     * Requirements:     * - `recipient` cannot be the zero address. - the caller must have a balance of at least `amount`."
      },
      "transferFrom(address,address,uint256)": {
        "details": "See {IERC20-transferFrom}.     * Emits an {Approval} event indicating the updated allowance. This is not required by the EIP. See the note at the beginning of {ERC20};     * Requirements: - `sender` and `recipient` cannot be the zero address. - `sender` must have a balance of at least `amount`. - the caller must have allowance for `sender`'s tokens of at least `amount`."
      },
      "transferOnLiquidation(address,address,uint256)": {
        "details": "transfers tokens in the event of a borrow being liquidated, in case the liquidators reclaims the Itoken  only lending pools can call this function",
        "params": {
          "_from": "the address from which transfer the Itokens",
          "_to": "the destination address",
          "_value": "the amount to transfer*"
        }
      }
    },
    "title": "Aave ERC20 Itokens (modified by SIGH Finance)"
  },
  "userdoc": {
    "methods": {
      "accure_Borrower_SIGH(address)": {
        "notice": "Calculate SIGH accrued by a borrower and possibly transfer it to them"
      }
    }
  }
}