{
  "contractName": "LendingPoolCore",
  "abi": [
    {
      "anonymous": false,
      "inputs": [
        {
          "indexed": true,
          "internalType": "address",
          "name": "instrument",
          "type": "address"
        },
        {
          "indexed": false,
          "internalType": "uint256",
          "name": "liquidityRate",
          "type": "uint256"
        },
        {
          "indexed": false,
          "internalType": "uint256",
          "name": "stableBorrowRate",
          "type": "uint256"
        },
        {
          "indexed": false,
          "internalType": "uint256",
          "name": "variableBorrowRate",
          "type": "uint256"
        },
        {
          "indexed": false,
          "internalType": "uint256",
          "name": "liquidityIndex",
          "type": "uint256"
        },
        {
          "indexed": false,
          "internalType": "uint256",
          "name": "variableBorrowIndex",
          "type": "uint256"
        }
      ],
      "name": "InstrumentUpdated",
      "type": "event"
    },
    {
      "payable": true,
      "stateMutability": "payable",
      "type": "fallback"
    },
    {
      "constant": true,
      "inputs": [],
      "name": "CORE_REVISION",
      "outputs": [
        {
          "internalType": "uint256",
          "name": "",
          "type": "uint256"
        }
      ],
      "payable": false,
      "stateMutability": "view",
      "type": "function"
    },
    {
      "constant": true,
      "inputs": [],
      "name": "addressesProvider",
      "outputs": [
        {
          "internalType": "contract GlobalAddressesProvider",
          "name": "",
          "type": "address"
        }
      ],
      "payable": false,
      "stateMutability": "view",
      "type": "function"
    },
    {
      "constant": true,
      "inputs": [
        {
          "internalType": "uint256",
          "name": "",
          "type": "uint256"
        }
      ],
      "name": "instrumentsList",
      "outputs": [
        {
          "internalType": "address",
          "name": "",
          "type": "address"
        }
      ],
      "payable": false,
      "stateMutability": "view",
      "type": "function"
    },
    {
      "constant": true,
      "inputs": [],
      "name": "lendingPoolAddress",
      "outputs": [
        {
          "internalType": "address",
          "name": "",
          "type": "address"
        }
      ],
      "payable": false,
      "stateMutability": "view",
      "type": "function"
    },
    {
      "constant": true,
      "inputs": [],
      "name": "sighMechanism",
      "outputs": [
        {
          "internalType": "contract ISighDistributionHandler",
          "name": "",
          "type": "address"
        }
      ],
      "payable": false,
      "stateMutability": "view",
      "type": "function"
    },
    {
      "constant": false,
      "inputs": [
        {
          "internalType": "contract GlobalAddressesProvider",
          "name": "_addressesProvider",
          "type": "address"
        }
      ],
      "name": "initialize",
      "outputs": [],
      "payable": false,
      "stateMutability": "nonpayable",
      "type": "function"
    },
    {
      "constant": false,
      "inputs": [
        {
          "internalType": "address",
          "name": "_instrument",
          "type": "address"
        },
        {
          "internalType": "address",
          "name": "_user",
          "type": "address"
        },
        {
          "internalType": "uint256",
          "name": "_amount",
          "type": "uint256"
        },
        {
          "internalType": "bool",
          "name": "_isFirstDeposit",
          "type": "bool"
        }
      ],
      "name": "updateStateOnDeposit",
      "outputs": [],
      "payable": false,
      "stateMutability": "nonpayable",
      "type": "function"
    },
    {
      "constant": false,
      "inputs": [
        {
          "internalType": "address",
          "name": "_instrument",
          "type": "address"
        },
        {
          "internalType": "address payable",
          "name": "_user",
          "type": "address"
        },
        {
          "internalType": "uint256",
          "name": "_amount",
          "type": "uint256"
        }
      ],
      "name": "transferToReserve",
      "outputs": [],
      "payable": true,
      "stateMutability": "payable",
      "type": "function"
    },
    {
      "constant": false,
      "inputs": [
        {
          "internalType": "address",
          "name": "_instrument",
          "type": "address"
        },
        {
          "internalType": "address",
          "name": "_user",
          "type": "address"
        },
        {
          "internalType": "uint256",
          "name": "_amountRedeemed",
          "type": "uint256"
        },
        {
          "internalType": "bool",
          "name": "_userRedeemedEverything",
          "type": "bool"
        }
      ],
      "name": "updateStateOnRedeem",
      "outputs": [],
      "payable": false,
      "stateMutability": "nonpayable",
      "type": "function"
    },
    {
      "constant": false,
      "inputs": [
        {
          "internalType": "address",
          "name": "_instrument",
          "type": "address"
        },
        {
          "internalType": "address payable",
          "name": "_user",
          "type": "address"
        },
        {
          "internalType": "uint256",
          "name": "_amount",
          "type": "uint256"
        }
      ],
      "name": "transferToUser",
      "outputs": [],
      "payable": false,
      "stateMutability": "nonpayable",
      "type": "function"
    },
    {
      "constant": false,
      "inputs": [
        {
          "internalType": "address",
          "name": "_instrument",
          "type": "address"
        },
        {
          "internalType": "address",
          "name": "_user",
          "type": "address"
        },
        {
          "internalType": "uint256",
          "name": "_amountBorrowed",
          "type": "uint256"
        },
        {
          "internalType": "uint256",
          "name": "_borrowFee",
          "type": "uint256"
        },
        {
          "internalType": "enum CoreLibrary.InterestRateMode",
          "name": "_rateMode",
          "type": "uint8"
        }
      ],
      "name": "updateStateOnBorrow",
      "outputs": [
        {
          "internalType": "uint256",
          "name": "",
          "type": "uint256"
        },
        {
          "internalType": "uint256",
          "name": "",
          "type": "uint256"
        }
      ],
      "payable": false,
      "stateMutability": "nonpayable",
      "type": "function"
    },
    {
      "constant": false,
      "inputs": [
        {
          "internalType": "address",
          "name": "_instrument",
          "type": "address"
        },
        {
          "internalType": "address",
          "name": "_user",
          "type": "address"
        },
        {
          "internalType": "uint256",
          "name": "_paybackAmountMinusFees",
          "type": "uint256"
        },
        {
          "internalType": "uint256",
          "name": "_originationFeeRepaid",
          "type": "uint256"
        },
        {
          "internalType": "uint256",
          "name": "_balanceIncrease",
          "type": "uint256"
        },
        {
          "internalType": "bool",
          "name": "_repaidWholeLoan",
          "type": "bool"
        }
      ],
      "name": "updateStateOnRepay",
      "outputs": [],
      "payable": false,
      "stateMutability": "nonpayable",
      "type": "function"
    },
    {
      "constant": false,
      "inputs": [
        {
          "internalType": "address",
          "name": "_instrument",
          "type": "address"
        },
        {
          "internalType": "address",
          "name": "_user",
          "type": "address"
        },
        {
          "internalType": "uint256",
          "name": "_principalBorrowBalance",
          "type": "uint256"
        },
        {
          "internalType": "uint256",
          "name": "_compoundedBorrowBalance",
          "type": "uint256"
        },
        {
          "internalType": "uint256",
          "name": "_balanceIncrease",
          "type": "uint256"
        },
        {
          "internalType": "enum CoreLibrary.InterestRateMode",
          "name": "_currentRateMode",
          "type": "uint8"
        }
      ],
      "name": "updateStateOnSwapRate",
      "outputs": [
        {
          "internalType": "enum CoreLibrary.InterestRateMode",
          "name": "",
          "type": "uint8"
        },
        {
          "internalType": "uint256",
          "name": "",
          "type": "uint256"
        }
      ],
      "payable": false,
      "stateMutability": "nonpayable",
      "type": "function"
    },
    {
      "constant": false,
      "inputs": [
        {
          "internalType": "address",
          "name": "_instrument",
          "type": "address"
        },
        {
          "internalType": "address",
          "name": "_user",
          "type": "address"
        },
        {
          "internalType": "uint256",
          "name": "_balanceIncrease",
          "type": "uint256"
        }
      ],
      "name": "updateStateOnRebalance",
      "outputs": [
        {
          "internalType": "uint256",
          "name": "",
          "type": "uint256"
        }
      ],
      "payable": false,
      "stateMutability": "nonpayable",
      "type": "function"
    },
    {
      "constant": false,
      "inputs": [
        {
          "internalType": "address",
          "name": "_instrument",
          "type": "address"
        },
        {
          "internalType": "address",
          "name": "_user",
          "type": "address"
        },
        {
          "internalType": "bool",
          "name": "_useAsCollateral",
          "type": "bool"
        }
      ],
      "name": "setUserUseInstrumentAsCollateral",
      "outputs": [],
      "payable": false,
      "stateMutability": "nonpayable",
      "type": "function"
    },
    {
      "constant": false,
      "inputs": [
        {
          "internalType": "address",
          "name": "_instrument",
          "type": "address"
        },
        {
          "internalType": "uint256",
          "name": "_availableLiquidityBefore",
          "type": "uint256"
        },
        {
          "internalType": "uint256",
          "name": "_income",
          "type": "uint256"
        },
        {
          "internalType": "uint256",
          "name": "_protocolFee",
          "type": "uint256"
        }
      ],
      "name": "updateStateOnFlashLoan",
      "outputs": [],
      "payable": false,
      "stateMutability": "nonpayable",
      "type": "function"
    },
    {
      "constant": false,
      "inputs": [
        {
          "internalType": "address",
          "name": "_principalInstrument",
          "type": "address"
        },
        {
          "internalType": "address",
          "name": "_collateralInstrument",
          "type": "address"
        },
        {
          "internalType": "address",
          "name": "_user",
          "type": "address"
        },
        {
          "internalType": "uint256",
          "name": "_amountToLiquidate",
          "type": "uint256"
        },
        {
          "internalType": "uint256",
          "name": "_collateralToLiquidate",
          "type": "uint256"
        },
        {
          "internalType": "uint256",
          "name": "_feeLiquidated",
          "type": "uint256"
        },
        {
          "internalType": "uint256",
          "name": "_liquidatedCollateralForFee",
          "type": "uint256"
        },
        {
          "internalType": "uint256",
          "name": "_balanceIncrease",
          "type": "uint256"
        },
        {
          "internalType": "bool",
          "name": "_liquidatorReceivesIToken",
          "type": "bool"
        }
      ],
      "name": "updateStateOnLiquidation",
      "outputs": [],
      "payable": false,
      "stateMutability": "nonpayable",
      "type": "function"
    },
    {
      "constant": false,
      "inputs": [
        {
          "internalType": "address",
          "name": "_token",
          "type": "address"
        },
        {
          "internalType": "uint256",
          "name": "_amount",
          "type": "uint256"
        },
        {
          "internalType": "address",
          "name": "_destination",
          "type": "address"
        }
      ],
      "name": "liquidateFee",
      "outputs": [],
      "payable": true,
      "stateMutability": "payable",
      "type": "function"
    },
    {
      "constant": false,
      "inputs": [
        {
          "internalType": "address",
          "name": "_token",
          "type": "address"
        },
        {
          "internalType": "address",
          "name": "_user",
          "type": "address"
        },
        {
          "internalType": "uint256",
          "name": "_amount",
          "type": "uint256"
        },
        {
          "internalType": "address",
          "name": "_destination",
          "type": "address"
        }
      ],
      "name": "transferToFeeCollectionAddress",
      "outputs": [],
      "payable": true,
      "stateMutability": "payable",
      "type": "function"
    },
    {
      "constant": true,
      "inputs": [
        {
          "internalType": "address",
          "name": "_instrument",
          "type": "address"
        },
        {
          "internalType": "address",
          "name": "_user",
          "type": "address"
        }
      ],
      "name": "getUserUnderlyingAssetBalance",
      "outputs": [
        {
          "internalType": "uint256",
          "name": "",
          "type": "uint256"
        }
      ],
      "payable": false,
      "stateMutability": "view",
      "type": "function"
    },
    {
      "constant": true,
      "inputs": [
        {
          "internalType": "address",
          "name": "_instrument",
          "type": "address"
        }
      ],
      "name": "getInstrumentInterestRateStrategyAddress",
      "outputs": [
        {
          "internalType": "address",
          "name": "",
          "type": "address"
        }
      ],
      "payable": false,
      "stateMutability": "view",
      "type": "function"
    },
    {
      "constant": true,
      "inputs": [
        {
          "internalType": "address",
          "name": "_instrument",
          "type": "address"
        }
      ],
      "name": "getInstrumentITokenAddress",
      "outputs": [
        {
          "internalType": "address",
          "name": "",
          "type": "address"
        }
      ],
      "payable": false,
      "stateMutability": "view",
      "type": "function"
    },
    {
      "constant": true,
      "inputs": [
        {
          "internalType": "address",
          "name": "_instrument",
          "type": "address"
        }
      ],
      "name": "getInstrumentAvailableLiquidity",
      "outputs": [
        {
          "internalType": "uint256",
          "name": "",
          "type": "uint256"
        }
      ],
      "payable": false,
      "stateMutability": "view",
      "type": "function"
    },
    {
      "constant": true,
      "inputs": [
        {
          "internalType": "address",
          "name": "_instrument",
          "type": "address"
        }
      ],
      "name": "getInstrumentTotalLiquidity",
      "outputs": [
        {
          "internalType": "uint256",
          "name": "",
          "type": "uint256"
        }
      ],
      "payable": false,
      "stateMutability": "view",
      "type": "function"
    },
    {
      "constant": true,
      "inputs": [
        {
          "internalType": "address",
          "name": "_instrument",
          "type": "address"
        }
      ],
      "name": "getInstrumentTotalBorrows",
      "outputs": [
        {
          "internalType": "uint256",
          "name": "",
          "type": "uint256"
        }
      ],
      "payable": false,
      "stateMutability": "view",
      "type": "function"
    },
    {
      "constant": true,
      "inputs": [
        {
          "internalType": "address",
          "name": "_instrument",
          "type": "address"
        }
      ],
      "name": "getInstrumentCurrentStableBorrowRate",
      "outputs": [
        {
          "internalType": "uint256",
          "name": "",
          "type": "uint256"
        }
      ],
      "payable": false,
      "stateMutability": "view",
      "type": "function"
    },
    {
      "constant": true,
      "inputs": [
        {
          "internalType": "address",
          "name": "_instrument",
          "type": "address"
        }
      ],
      "name": "getInstrumentUtilizationRate",
      "outputs": [
        {
          "internalType": "uint256",
          "name": "",
          "type": "uint256"
        }
      ],
      "payable": false,
      "stateMutability": "view",
      "type": "function"
    },
    {
      "constant": true,
      "inputs": [
        {
          "internalType": "address",
          "name": "_instrument",
          "type": "address"
        },
        {
          "internalType": "address",
          "name": "_user",
          "type": "address"
        }
      ],
      "name": "getUserCurrentBorrowRateMode",
      "outputs": [
        {
          "internalType": "enum CoreLibrary.InterestRateMode",
          "name": "",
          "type": "uint8"
        }
      ],
      "payable": false,
      "stateMutability": "view",
      "type": "function"
    },
    {
      "constant": true,
      "inputs": [
        {
          "internalType": "address",
          "name": "_instrument",
          "type": "address"
        },
        {
          "internalType": "address",
          "name": "_user",
          "type": "address"
        }
      ],
      "name": "getUserBorrowBalances",
      "outputs": [
        {
          "internalType": "uint256",
          "name": "",
          "type": "uint256"
        },
        {
          "internalType": "uint256",
          "name": "",
          "type": "uint256"
        },
        {
          "internalType": "uint256",
          "name": "",
          "type": "uint256"
        }
      ],
      "payable": false,
      "stateMutability": "view",
      "type": "function"
    },
    {
      "constant": true,
      "inputs": [
        {
          "internalType": "address",
          "name": "_instrument",
          "type": "address"
        },
        {
          "internalType": "address",
          "name": "_user",
          "type": "address"
        }
      ],
      "name": "getUserBasicInstrumentData",
      "outputs": [
        {
          "internalType": "uint256",
          "name": "",
          "type": "uint256"
        },
        {
          "internalType": "uint256",
          "name": "",
          "type": "uint256"
        },
        {
          "internalType": "uint256",
          "name": "",
          "type": "uint256"
        },
        {
          "internalType": "bool",
          "name": "",
          "type": "bool"
        }
      ],
      "payable": false,
      "stateMutability": "view",
      "type": "function"
    },
    {
      "constant": true,
      "inputs": [
        {
          "internalType": "address",
          "name": "_instrument",
          "type": "address"
        },
        {
          "internalType": "address",
          "name": "_user",
          "type": "address"
        },
        {
          "internalType": "uint256",
          "name": "_amount",
          "type": "uint256"
        }
      ],
      "name": "isUserAllowedToBorrowAtStable",
      "outputs": [
        {
          "internalType": "bool",
          "name": "",
          "type": "bool"
        }
      ],
      "payable": false,
      "stateMutability": "view",
      "type": "function"
    },
    {
      "constant": true,
      "inputs": [
        {
          "internalType": "address",
          "name": "_instrument",
          "type": "address"
        }
      ],
      "name": "getInstrumentNormalizedIncome",
      "outputs": [
        {
          "internalType": "uint256",
          "name": "",
          "type": "uint256"
        }
      ],
      "payable": false,
      "stateMutability": "view",
      "type": "function"
    },
    {
      "constant": true,
      "inputs": [
        {
          "internalType": "address",
          "name": "_instrument",
          "type": "address"
        }
      ],
      "name": "getInstrumentTotalBorrowsStable",
      "outputs": [
        {
          "internalType": "uint256",
          "name": "",
          "type": "uint256"
        }
      ],
      "payable": false,
      "stateMutability": "view",
      "type": "function"
    },
    {
      "constant": true,
      "inputs": [
        {
          "internalType": "address",
          "name": "_instrument",
          "type": "address"
        }
      ],
      "name": "getInstrumentTotalBorrowsVariable",
      "outputs": [
        {
          "internalType": "uint256",
          "name": "",
          "type": "uint256"
        }
      ],
      "payable": false,
      "stateMutability": "view",
      "type": "function"
    },
    {
      "constant": true,
      "inputs": [
        {
          "internalType": "address",
          "name": "_instrument",
          "type": "address"
        }
      ],
      "name": "getInstrumentLiquidationThreshold",
      "outputs": [
        {
          "internalType": "uint256",
          "name": "",
          "type": "uint256"
        }
      ],
      "payable": false,
      "stateMutability": "view",
      "type": "function"
    },
    {
      "constant": true,
      "inputs": [
        {
          "internalType": "address",
          "name": "_instrument",
          "type": "address"
        }
      ],
      "name": "getInstrumentLiquidationBonus",
      "outputs": [
        {
          "internalType": "uint256",
          "name": "",
          "type": "uint256"
        }
      ],
      "payable": false,
      "stateMutability": "view",
      "type": "function"
    },
    {
      "constant": true,
      "inputs": [
        {
          "internalType": "address",
          "name": "_instrument",
          "type": "address"
        }
      ],
      "name": "getInstrumentCurrentVariableBorrowRate",
      "outputs": [
        {
          "internalType": "uint256",
          "name": "",
          "type": "uint256"
        }
      ],
      "payable": false,
      "stateMutability": "view",
      "type": "function"
    },
    {
      "constant": true,
      "inputs": [
        {
          "internalType": "address",
          "name": "_instrument",
          "type": "address"
        }
      ],
      "name": "getInstrumentCurrentAverageStableBorrowRate",
      "outputs": [
        {
          "internalType": "uint256",
          "name": "",
          "type": "uint256"
        }
      ],
      "payable": false,
      "stateMutability": "view",
      "type": "function"
    },
    {
      "constant": true,
      "inputs": [
        {
          "internalType": "address",
          "name": "_instrument",
          "type": "address"
        }
      ],
      "name": "getInstrumentCurrentLiquidityRate",
      "outputs": [
        {
          "internalType": "uint256",
          "name": "",
          "type": "uint256"
        }
      ],
      "payable": false,
      "stateMutability": "view",
      "type": "function"
    },
    {
      "constant": true,
      "inputs": [
        {
          "internalType": "address",
          "name": "_instrument",
          "type": "address"
        }
      ],
      "name": "getInstrumentLiquidityCumulativeIndex",
      "outputs": [
        {
          "internalType": "uint256",
          "name": "",
          "type": "uint256"
        }
      ],
      "payable": false,
      "stateMutability": "view",
      "type": "function"
    },
    {
      "constant": true,
      "inputs": [
        {
          "internalType": "address",
          "name": "_instrument",
          "type": "address"
        }
      ],
      "name": "getInstrumentVariableBorrowsCumulativeIndex",
      "outputs": [
        {
          "internalType": "uint256",
          "name": "",
          "type": "uint256"
        }
      ],
      "payable": false,
      "stateMutability": "view",
      "type": "function"
    },
    {
      "constant": true,
      "inputs": [
        {
          "internalType": "address",
          "name": "_instrument",
          "type": "address"
        }
      ],
      "name": "getInstrumentConfiguration",
      "outputs": [
        {
          "internalType": "uint256",
          "name": "",
          "type": "uint256"
        },
        {
          "internalType": "uint256",
          "name": "",
          "type": "uint256"
        },
        {
          "internalType": "uint256",
          "name": "",
          "type": "uint256"
        },
        {
          "internalType": "bool",
          "name": "",
          "type": "bool"
        }
      ],
      "payable": false,
      "stateMutability": "view",
      "type": "function"
    },
    {
      "constant": true,
      "inputs": [
        {
          "internalType": "address",
          "name": "_instrument",
          "type": "address"
        }
      ],
      "name": "getInstrumentDecimals",
      "outputs": [
        {
          "internalType": "uint256",
          "name": "",
          "type": "uint256"
        }
      ],
      "payable": false,
      "stateMutability": "view",
      "type": "function"
    },
    {
      "constant": true,
      "inputs": [
        {
          "internalType": "address",
          "name": "_instrument",
          "type": "address"
        }
      ],
      "name": "isInstrumentBorrowingEnabled",
      "outputs": [
        {
          "internalType": "bool",
          "name": "",
          "type": "bool"
        }
      ],
      "payable": false,
      "stateMutability": "view",
      "type": "function"
    },
    {
      "constant": true,
      "inputs": [
        {
          "internalType": "address",
          "name": "_instrument",
          "type": "address"
        }
      ],
      "name": "isInstrumentUsageAsCollateralEnabled",
      "outputs": [
        {
          "internalType": "bool",
          "name": "",
          "type": "bool"
        }
      ],
      "payable": false,
      "stateMutability": "view",
      "type": "function"
    },
    {
      "constant": true,
      "inputs": [
        {
          "internalType": "address",
          "name": "_instrument",
          "type": "address"
        }
      ],
      "name": "getInstrumentIsStableBorrowRateEnabled",
      "outputs": [
        {
          "internalType": "bool",
          "name": "",
          "type": "bool"
        }
      ],
      "payable": false,
      "stateMutability": "view",
      "type": "function"
    },
    {
      "constant": true,
      "inputs": [
        {
          "internalType": "address",
          "name": "_instrument",
          "type": "address"
        }
      ],
      "name": "getInstrumentIsActive",
      "outputs": [
        {
          "internalType": "bool",
          "name": "",
          "type": "bool"
        }
      ],
      "payable": false,
      "stateMutability": "view",
      "type": "function"
    },
    {
      "constant": true,
      "inputs": [
        {
          "internalType": "address",
          "name": "_instrument",
          "type": "address"
        }
      ],
      "name": "getInstrumentIsFreezed",
      "outputs": [
        {
          "internalType": "bool",
          "name": "",
          "type": "bool"
        }
      ],
      "payable": false,
      "stateMutability": "view",
      "type": "function"
    },
    {
      "constant": true,
      "inputs": [
        {
          "internalType": "address",
          "name": "_instrument",
          "type": "address"
        }
      ],
      "name": "getInstrumentLastUpdate",
      "outputs": [
        {
          "internalType": "uint40",
          "name": "timestamp",
          "type": "uint40"
        }
      ],
      "payable": false,
      "stateMutability": "view",
      "type": "function"
    },
    {
      "constant": true,
      "inputs": [],
      "name": "getInstruments",
      "outputs": [
        {
          "internalType": "address[]",
          "name": "",
          "type": "address[]"
        }
      ],
      "payable": false,
      "stateMutability": "view",
      "type": "function"
    },
    {
      "constant": true,
      "inputs": [
        {
          "internalType": "address",
          "name": "_instrument",
          "type": "address"
        },
        {
          "internalType": "address",
          "name": "_user",
          "type": "address"
        }
      ],
      "name": "isUserUseInstrumentAsCollateralEnabled",
      "outputs": [
        {
          "internalType": "bool",
          "name": "",
          "type": "bool"
        }
      ],
      "payable": false,
      "stateMutability": "view",
      "type": "function"
    },
    {
      "constant": true,
      "inputs": [
        {
          "internalType": "address",
          "name": "_instrument",
          "type": "address"
        },
        {
          "internalType": "address",
          "name": "_user",
          "type": "address"
        }
      ],
      "name": "getUserOriginationFee",
      "outputs": [
        {
          "internalType": "uint256",
          "name": "",
          "type": "uint256"
        }
      ],
      "payable": false,
      "stateMutability": "view",
      "type": "function"
    },
    {
      "constant": true,
      "inputs": [
        {
          "internalType": "address",
          "name": "_instrument",
          "type": "address"
        },
        {
          "internalType": "address",
          "name": "_user",
          "type": "address"
        }
      ],
      "name": "getUserCurrentStableBorrowRate",
      "outputs": [
        {
          "internalType": "uint256",
          "name": "",
          "type": "uint256"
        }
      ],
      "payable": false,
      "stateMutability": "view",
      "type": "function"
    },
    {
      "constant": true,
      "inputs": [
        {
          "internalType": "address",
          "name": "_instrument",
          "type": "address"
        },
        {
          "internalType": "address",
          "name": "_user",
          "type": "address"
        }
      ],
      "name": "getUserVariableBorrowCumulativeIndex",
      "outputs": [
        {
          "internalType": "uint256",
          "name": "",
          "type": "uint256"
        }
      ],
      "payable": false,
      "stateMutability": "view",
      "type": "function"
    },
    {
      "constant": false,
      "inputs": [],
      "name": "refreshConfiguration",
      "outputs": [],
      "payable": false,
      "stateMutability": "nonpayable",
      "type": "function"
    },
    {
      "constant": false,
      "inputs": [
        {
          "internalType": "address",
          "name": "_instrument",
          "type": "address"
        },
        {
          "internalType": "address",
          "name": "_iTokenAddress",
          "type": "address"
        },
        {
          "internalType": "uint256",
          "name": "_decimals",
          "type": "uint256"
        },
        {
          "internalType": "address",
          "name": "_interestRateStrategyAddress",
          "type": "address"
        }
      ],
      "name": "initInstrument",
      "outputs": [],
      "payable": false,
      "stateMutability": "nonpayable",
      "type": "function"
    },
    {
      "constant": false,
      "inputs": [
        {
          "internalType": "address",
          "name": "_instrumentToRemove",
          "type": "address"
        }
      ],
      "name": "removeLastAddedInstrument",
      "outputs": [],
      "payable": false,
      "stateMutability": "nonpayable",
      "type": "function"
    },
    {
      "constant": false,
      "inputs": [
        {
          "internalType": "address",
          "name": "_instrument",
          "type": "address"
        },
        {
          "internalType": "address",
          "name": "_rateStrategyAddress",
          "type": "address"
        }
      ],
      "name": "setInstrumentInterestRateStrategyAddress",
      "outputs": [],
      "payable": false,
      "stateMutability": "nonpayable",
      "type": "function"
    },
    {
      "constant": false,
      "inputs": [
        {
          "internalType": "address",
          "name": "_instrument",
          "type": "address"
        },
        {
          "internalType": "bool",
          "name": "_stableBorrowRateEnabled",
          "type": "bool"
        }
      ],
      "name": "enableBorrowingOnInstrument",
      "outputs": [],
      "payable": false,
      "stateMutability": "nonpayable",
      "type": "function"
    },
    {
      "constant": false,
      "inputs": [
        {
          "internalType": "address",
          "name": "_instrument",
          "type": "address"
        }
      ],
      "name": "disableBorrowingOnInstrument",
      "outputs": [],
      "payable": false,
      "stateMutability": "nonpayable",
      "type": "function"
    },
    {
      "constant": false,
      "inputs": [
        {
          "internalType": "address",
          "name": "_instrument",
          "type": "address"
        },
        {
          "internalType": "uint256",
          "name": "_baseLTVasCollateral",
          "type": "uint256"
        },
        {
          "internalType": "uint256",
          "name": "_liquidationThreshold",
          "type": "uint256"
        },
        {
          "internalType": "uint256",
          "name": "_liquidationBonus",
          "type": "uint256"
        }
      ],
      "name": "enableInstrumentAsCollateral",
      "outputs": [],
      "payable": false,
      "stateMutability": "nonpayable",
      "type": "function"
    },
    {
      "constant": false,
      "inputs": [
        {
          "internalType": "address",
          "name": "_instrument",
          "type": "address"
        }
      ],
      "name": "disableInstrumentAsCollateral",
      "outputs": [],
      "payable": false,
      "stateMutability": "nonpayable",
      "type": "function"
    },
    {
      "constant": false,
      "inputs": [
        {
          "internalType": "address",
          "name": "_instrument",
          "type": "address"
        }
      ],
      "name": "enableInstrumentStableBorrowRate",
      "outputs": [],
      "payable": false,
      "stateMutability": "nonpayable",
      "type": "function"
    },
    {
      "constant": false,
      "inputs": [
        {
          "internalType": "address",
          "name": "_instrument",
          "type": "address"
        }
      ],
      "name": "disableInstrumentStableBorrowRate",
      "outputs": [],
      "payable": false,
      "stateMutability": "nonpayable",
      "type": "function"
    },
    {
      "constant": false,
      "inputs": [
        {
          "internalType": "address",
          "name": "_instrument",
          "type": "address"
        }
      ],
      "name": "activateInstrument",
      "outputs": [],
      "payable": false,
      "stateMutability": "nonpayable",
      "type": "function"
    },
    {
      "constant": false,
      "inputs": [
        {
          "internalType": "address",
          "name": "_instrument",
          "type": "address"
        }
      ],
      "name": "deactivateInstrument",
      "outputs": [],
      "payable": false,
      "stateMutability": "nonpayable",
      "type": "function"
    },
    {
      "constant": false,
      "inputs": [
        {
          "internalType": "address",
          "name": "_instrument",
          "type": "address"
        }
      ],
      "name": "freezeInstrument",
      "outputs": [],
      "payable": false,
      "stateMutability": "nonpayable",
      "type": "function"
    },
    {
      "constant": false,
      "inputs": [
        {
          "internalType": "address",
          "name": "_instrument",
          "type": "address"
        }
      ],
      "name": "unfreezeInstrument",
      "outputs": [],
      "payable": false,
      "stateMutability": "nonpayable",
      "type": "function"
    },
    {
      "constant": false,
      "inputs": [
        {
          "internalType": "address",
          "name": "_instrument",
          "type": "address"
        },
        {
          "internalType": "uint256",
          "name": "_ltv",
          "type": "uint256"
        }
      ],
      "name": "setInstrumentBaseLTVasCollateral",
      "outputs": [],
      "payable": false,
      "stateMutability": "nonpayable",
      "type": "function"
    },
    {
      "constant": false,
      "inputs": [
        {
          "internalType": "address",
          "name": "_instrument",
          "type": "address"
        },
        {
          "internalType": "uint256",
          "name": "_threshold",
          "type": "uint256"
        }
      ],
      "name": "setInstrumentLiquidationThreshold",
      "outputs": [],
      "payable": false,
      "stateMutability": "nonpayable",
      "type": "function"
    },
    {
      "constant": false,
      "inputs": [
        {
          "internalType": "address",
          "name": "_instrument",
          "type": "address"
        },
        {
          "internalType": "uint256",
          "name": "_bonus",
          "type": "uint256"
        }
      ],
      "name": "setInstrumentLiquidationBonus",
      "outputs": [],
      "payable": false,
      "stateMutability": "nonpayable",
      "type": "function"
    },
    {
      "constant": false,
      "inputs": [
        {
          "internalType": "address",
          "name": "_instrument",
          "type": "address"
        },
        {
          "internalType": "uint256",
          "name": "_decimals",
          "type": "uint256"
        }
      ],
      "name": "setInstrumentDecimals",
      "outputs": [],
      "payable": false,
      "stateMutability": "nonpayable",
      "type": "function"
    }
  ],
  "bytecode": "0x60806040526000805534801561001457600080fd5b50615f7b80620000256000396000f3fe60806040526004361061041a5760003560e01c80639f15d5c61161021e578063d3ae26b311610123578063f11c4594116100ab578063fbab24051161007a578063fbab2405146113fa578063fcfe58c81461142d578063feab31ac14611468578063ff6ad9d3146114a3578063ffa388b0146114cd5761041a565b8063f11c4594146112c5578063f6148311146112f8578063f6ea8d761461137c578063fa93b2a5146113b75761041a565b8063e2174d86116100f2578063e2174d8614611186578063e6df474e146111c9578063ea84c1ba1461120e578063ecc9e37214611241578063ee9c22811461128a5761041a565b8063d3ae26b3146110b4578063da12d96f146110c9578063da90169014611120578063dc08d848146111535761041a565b8063c172350b116101a6578063c7d1423711610175578063c7d1423714610fc4578063cc9334b214611000578063d0c5554814611039578063d1c4c0fa1461106c578063d34651e71461109f5761041a565b8063c172350b14610eee578063c4d66de814610f21578063c619adac14610f54578063c72c4d1014610faf5761041a565b8063aea3b07e116101ed578063aea3b07e14610daf578063af825b0714610de2578063afcdbea314610e25578063bcd6ffa414610e70578063c0e1dff714610ebb5761041a565b80639f15d5c614610cbd5780639fb8afcd14610cf0578063a4637e7b14610d49578063aafa6de014610d7c5761041a565b80633a80e0471161032457806366a3f18b116102ac57806375d87acc1161027b57806375d87acc14610bbb578063792a0feb14610bee5780638bb3a3c414610c215780638f385c2214610c54578063959fc3e514610c8a5761041a565b806366a3f18b14610aa9578063683775a214610ae257806368beb4d614610b155780636fffab0c14610b805761041a565b80635610992a116102f35780635610992a146109c057806356df9ca2146109fb5780635cfdd99414610a2e578063609cb28914610a615780636468108314610a945761041a565b80633a80e047146108da5780633c035866146109155780634375ddae1461094857806354e665621461098d5761041a565b806318a4dbca116103a75780632706e94e116103765780632706e94e1461079f57806328fcf4d3146107d25780632b0475e1146108085780632b169ae31461083b57806337ac6fe41461086e5761041a565b806318a4dbca1461069f5780631ca19f19146106da5780631f7dbbf614610739578063245720ec1461076c5761041a565b80630feb5d88116103ee5780630feb5d881461053857806310183a351461058757806311a92bd7146105ce5780631635717c14610607578063174ec5391461066c5761041a565b80624646f61461046057806307ce32a51461049957806309ac2953146104de5780630c7de4e914610523575b6104233361151a565b61045e5760405162461bcd60e51b8152600401808060200182810382526036815260200180615c9a6036913960400191505060405180910390fd5b005b34801561046c57600080fd5b5061045e6004803603604081101561048357600080fd5b506001600160a01b038135169060200135611524565b3480156104a557600080fd5b506104cc600480360360208110156104bc57600080fd5b50356001600160a01b03166115f8565b60408051918252519081900360200190f35b3480156104ea57600080fd5b5061045e6004803603608081101561050157600080fd5b506001600160a01b038135169060208101359060408101359060600135611616565b34801561052f57600080fd5b506104cc6116e4565b34801561054457600080fd5b5061056b6004803603602081101561055b57600080fd5b50356001600160a01b03166116e9565b604080516001600160a01b039092168252519081900360200190f35b34801561059357600080fd5b506105ba600480360360208110156105aa57600080fd5b50356001600160a01b031661170a565b604080519115158252519081900360200190f35b3480156105da57600080fd5b5061045e600480360360408110156105f157600080fd5b506001600160a01b038135169060200135611731565b34801561061357600080fd5b5061061c611805565b60408051602080825283518183015283519192839290830191858101910280838360005b83811015610658578181015183820152602001610640565b505050509050019250505060405180910390f35b34801561067857600080fd5b5061045e6004803603602081101561068f57600080fd5b50356001600160a01b0316611867565b3480156106ab57600080fd5b506104cc600480360360408110156106c257600080fd5b506001600160a01b0381358116916020013516611996565b3480156106e657600080fd5b50610715600480360360408110156106fd57600080fd5b506001600160a01b0381358116916020013516611a26565b6040518082600281111561072557fe5b60ff16815260200191505060405180910390f35b34801561074557600080fd5b5061045e6004803603602081101561075c57600080fd5b50356001600160a01b0316611a7e565b34801561077857600080fd5b506104cc6004803603602081101561078f57600080fd5b50356001600160a01b0316611b5c565b3480156107ab57600080fd5b506105ba600480360360208110156107c257600080fd5b50356001600160a01b0316611b7d565b61045e600480360360608110156107e857600080fd5b506001600160a01b03813581169160208101359091169060400135611b9e565b34801561081457600080fd5b506104cc6004803603602081101561082b57600080fd5b50356001600160a01b0316611d69565b34801561084757600080fd5b5061045e6004803603602081101561085e57600080fd5b50356001600160a01b0316611d91565b34801561087a57600080fd5b506108c1600480360360a081101561089157600080fd5b5080356001600160a01b03908116916020810135909116906040810135906060810135906080013560ff16611f99565b6040805192835260208301919091528051918290030190f35b3480156108e657600080fd5b5061045e600480360360408110156108fd57600080fd5b506001600160a01b038135169060200135151561212c565b34801561092157600080fd5b506104cc6004803603602081101561093857600080fd5b50356001600160a01b031661226b565b34801561095457600080fd5b5061045e6004803603606081101561096b57600080fd5b506001600160a01b038135811691602081013590911690604001351515612289565b34801561099957600080fd5b506104cc600480360360208110156109b057600080fd5b50356001600160a01b031661230b565b3480156109cc57600080fd5b5061045e600480360360408110156109e357600080fd5b506001600160a01b0381358116916020013516612329565b348015610a0757600080fd5b5061045e60048036036020811015610a1e57600080fd5b50356001600160a01b031661240f565b348015610a3a57600080fd5b506104cc60048036036020811015610a5157600080fd5b50356001600160a01b03166124e8565b348015610a6d57600080fd5b506104cc60048036036020811015610a8457600080fd5b50356001600160a01b0316612598565b348015610aa057600080fd5b5061045e6125b6565b348015610ab557600080fd5b5061045e60048036036040811015610acc57600080fd5b506001600160a01b038135169060200135612675565b348015610aee57600080fd5b5061045e60048036036020811015610b0557600080fd5b50356001600160a01b0316612749565b348015610b2157600080fd5b5061045e6004803603610120811015610b3957600080fd5b506001600160a01b03813581169160208101358216916040820135169060608101359060808101359060a08101359060c08101359060e08101359061010001351515612826565b348015610b8c57600080fd5b506104cc60048036036040811015610ba357600080fd5b506001600160a01b0381358116916020013516612a2f565b348015610bc757600080fd5b506105ba60048036036020811015610bde57600080fd5b50356001600160a01b0316612a5e565b348015610bfa57600080fd5b506104cc60048036036020811015610c1157600080fd5b50356001600160a01b0316612a87565b348015610c2d57600080fd5b506105ba60048036036020811015610c4457600080fd5b50356001600160a01b0316612ac0565b61045e60048036036060811015610c6a57600080fd5b506001600160a01b03813581169160208101359160409091013516612ae6565b348015610c9657600080fd5b506104cc60048036036020811015610cad57600080fd5b50356001600160a01b0316612c02565b348015610cc957600080fd5b506104cc60048036036020811015610ce057600080fd5b50356001600160a01b0316612c20565b348015610cfc57600080fd5b50610d2b60048036036040811015610d1357600080fd5b506001600160a01b0381358116916020013516612cc4565b60408051938452602084019290925282820152519081900360600190f35b348015610d5557600080fd5b5061045e60048036036020811015610d6c57600080fd5b50356001600160a01b0316612d55565b348015610d8857600080fd5b5061056b60048036036020811015610d9f57600080fd5b50356001600160a01b0316612e2f565b348015610dbb57600080fd5b506104cc60048036036020811015610dd257600080fd5b50356001600160a01b0316612e4d565b348015610dee57600080fd5b506104cc60048036036060811015610e0557600080fd5b506001600160a01b03813581169160208101359091169060400135612f75565b348015610e3157600080fd5b5061045e60048036036080811015610e4857600080fd5b506001600160a01b038135811691602081013590911690604081013590606001351515613100565b348015610e7c57600080fd5b5061045e60048036036080811015610e9357600080fd5b506001600160a01b038135811691602081013590911690604081013590606001351515613203565b348015610ec757600080fd5b5061045e60048036036020811015610ede57600080fd5b50356001600160a01b0316613306565b348015610efa57600080fd5b506104cc60048036036020811015610f1157600080fd5b50356001600160a01b03166133ea565b348015610f2d57600080fd5b5061045e60048036036020811015610f4457600080fd5b50356001600160a01b0316613408565b348015610f6057600080fd5b50610f8760048036036020811015610f7757600080fd5b50356001600160a01b03166134c7565b6040805194855260208501939093528383019190915215156060830152519081900360800190f35b348015610fbb57600080fd5b5061056b613505565b61045e60048036036080811015610fda57600080fd5b506001600160a01b03813581169160208101358216916040820135916060013516613514565b34801561100c57600080fd5b5061045e6004803603604081101561102357600080fd5b506001600160a01b0381351690602001356136be565b34801561104557600080fd5b506105ba6004803603602081101561105c57600080fd5b50356001600160a01b0316613792565b34801561107857600080fd5b506104cc6004803603602081101561108f57600080fd5b50356001600160a01b03166137ba565b3480156110ab57600080fd5b5061056b613824565b3480156110c057600080fd5b5061056b613833565b3480156110d557600080fd5b5061045e600480360360c08110156110ec57600080fd5b506001600160a01b03813581169160208101359091169060408101359060608101359060808101359060a001351515613842565b34801561112c57600080fd5b5061045e6004803603602081101561114357600080fd5b50356001600160a01b03166139a5565b34801561115f57600080fd5b506104cc6004803603602081101561117657600080fd5b50356001600160a01b0316613ad5565b34801561119257600080fd5b506105ba600480360360608110156111a957600080fd5b506001600160a01b03813581169160208101359091169060400135613af3565b3480156111d557600080fd5b5061045e600480360360808110156111ec57600080fd5b506001600160a01b038135169060208101359060408101359060600135613b80565b34801561121a57600080fd5b5061045e6004803603602081101561123157600080fd5b50356001600160a01b0316613cce565b34801561124d57600080fd5b5061045e6004803603608081101561126457600080fd5b506001600160a01b03813581169160208101358216916040820135916060013516613de9565b34801561129657600080fd5b506105ba600480360360408110156112ad57600080fd5b506001600160a01b0381358116916020013516614002565b3480156112d157600080fd5b506104cc600480360360208110156112e857600080fd5b50356001600160a01b0316614031565b34801561130457600080fd5b50611351600480360360c081101561131b57600080fd5b5080356001600160a01b039081169160208101359091169060408101359060608101359060808101359060a0013560ff1661404f565b6040518083600281111561136157fe5b60ff1681526020018281526020019250505060405180910390f35b34801561138857600080fd5b506104cc6004803603604081101561139f57600080fd5b506001600160a01b03813581169160200135166141cd565b3480156113c357600080fd5b5061045e600480360360608110156113da57600080fd5b506001600160a01b038135811691602081013590911690604001356141fc565b34801561140657600080fd5b506104cc6004803603602081101561141d57600080fd5b50356001600160a01b0316614323565b34801561143957600080fd5b50610f876004803603604081101561145057600080fd5b506001600160a01b0381358116916020013516614341565b34801561147457600080fd5b506104cc6004803603604081101561148b57600080fd5b506001600160a01b03813581169160200135166143dd565b3480156114af57600080fd5b5061056b600480360360208110156114c657600080fd5b503561440c565b3480156114d957600080fd5b50611500600480360360208110156114f057600080fd5b50356001600160a01b0316614433565b6040805164ffffffffff9092168252519081900360200190f35b803b15155b919050565b603454604080516385c858b160e01b8152905133926001600160a01b0316916385c858b1916004808301926020929190829003018186803b15801561156857600080fd5b505afa15801561157c573d6000803e3d6000fd5b505050506040513d602081101561159257600080fd5b50516001600160a01b0316146115d95760405162461bcd60e51b8152600401808060200182810382526038815260200180615f0f6038913960400191505060405180910390fd5b6001600160a01b039091166000908152603860205260409020600c0155565b6001600160a01b03166000908152603860205260409020600a015490565b6035546001600160a01b0316331461165f5760405162461bcd60e51b815260040180806020018281038252602a815260200180615dfa602a913960400191505060405180910390fd5b6116698482614458565b6001600160a01b038416600090815260386020526040902061168a9061453b565b60006116a561169886611b5c565b859063ffffffff6145cb16565b6001600160a01b03861660009081526038602052604090209091506116d190828563ffffffff61462516565b6116dd8584600061468c565b5050505050565b600181565b6001600160a01b039081166000908152603860205260409020600101541690565b6001600160a01b031660009081526038602052604090206003015462010000900460ff1690565b603454604080516385c858b160e01b8152905133926001600160a01b0316916385c858b1916004808301926020929190829003018186803b15801561177557600080fd5b505afa158015611789573d6000803e3d6000fd5b505050506040513d602081101561179f57600080fd5b50516001600160a01b0316146117e65760405162461bcd60e51b8152600401808060200182810382526038815260200180615f0f6038913960400191505060405180910390fd5b6001600160a01b039091166000908152603860205260409020600d0155565b6060603780548060200260200160405190810160405280929190818152602001828054801561185d57602002820191906000526020600020905b81546001600160a01b0316815260019091019060200180831161183f575b5050505050905090565b603454604080516385c858b160e01b8152905133926001600160a01b0316916385c858b1916004808301926020929190829003018186803b1580156118ab57600080fd5b505afa1580156118bf573d6000803e3d6000fd5b505050506040513d60208110156118d557600080fd5b50516001600160a01b03161461191c5760405162461bcd60e51b8152600401808060200182810382526038815260200180615f0f6038913960400191505060405180910390fd5b6001600160a01b0381166000908152603860205260408082208151630ea746e560e41b81526004810191909152905173__CoreLibrary___________________________9263ea746e509260248082019391829003018186803b15801561198257600080fd5b505af41580156116dd573d6000803e3d6000fd5b6001600160a01b0380831660009081526038602090815260408083205481516370a0823160e01b8152868616600482015291519394169283926370a082319260248082019391829003018186803b1580156119f057600080fd5b505afa158015611a04573d6000803e3d6000fd5b505050506040513d6020811015611a1a57600080fd5b50519150505b92915050565b6001600160a01b03808216600090815260396020908152604080832093861683529290529081206001810154611a60576000915050611a20565b6000816002015411611a73576002611a76565b60015b949350505050565b603454604080516385c858b160e01b8152905133926001600160a01b0316916385c858b1916004808301926020929190829003018186803b158015611ac257600080fd5b505afa158015611ad6573d6000803e3d6000fd5b505050506040513d6020811015611aec57600080fd5b50516001600160a01b031614611b335760405162461bcd60e51b8152600401808060200182810382526038815260200180615f0f6038913960400191505060405180910390fd5b6001600160a01b03166000908152603860205260409020600301805461ff001916610100179055565b6001600160a01b0381166000908152603860205260408120611a209061481f565b6001600160a01b031660009081526038602052604090206003015460ff1690565b6035546001600160a01b03163314611be75760405162461bcd60e51b815260040180806020018281038252602a815260200180615dfa602a913960400191505060405180910390fd5b611bef61483c565b6001600160a01b0316836001600160a01b031614611c64573415611c445760405162461bcd60e51b8152600401808060200182810382526032815260200180615cf36032913960400191505060405180910390fd5b611c5f6001600160a01b03841683308463ffffffff61485416565b611d64565b80341015611ca35760405162461bcd60e51b8152600401808060200182810382526035815260200180615c656035913960400191505060405180910390fd5b80341115611d64576000611cbd348363ffffffff6148ae16565b6040519091506000906001600160a01b0385169061c35090849084818181858888f193505050503d8060008114611d10576040519150601f19603f3d011682016040523d82523d6000602084013e611d15565b606091505b50509050806116dd576040805162461bcd60e51b8152602060048201526016602482015275151c985b9cd9995c881bd9881155120819985a5b195960521b604482015290519081900360640190fd5b505050565b6001600160a01b0381166000908152603860205260408120611d8a816148f0565b9392505050565b603454604080516385c858b160e01b8152905133926001600160a01b0316916385c858b1916004808301926020929190829003018186803b158015611dd557600080fd5b505afa158015611de9573d6000803e3d6000fd5b505050506040513d6020811015611dff57600080fd5b50516001600160a01b031614611e465760405162461bcd60e51b8152600401808060200182810382526038815260200180615f0f6038913960400191505060405180910390fd5b60378054600091906000198101908110611e5c57fe5b6000918252602090912001546001600160a01b03908116915082168114611eb45760405162461bcd60e51b8152600401808060200182810382526043815260200180615ecc6043913960600191505060405180910390fd5b611ebd81611b5c565b15611ef95760405162461bcd60e51b8152600401808060200182810382526034815260200180615c316034913960400191505060405180910390fd5b6001600160a01b038116600090815260386020526040812060038101805482546001600160a01b0319908116845560028401859055600b8401859055600a840185905563ffff00ff19909116909155600c8201839055600d8201839055600e820192909255600101805490911690556037805480611f7357fe5b600082815260209020810160001990810180546001600160a01b03191690550190555050565b60355460009081906001600160a01b03163314611fe75760405162461bcd60e51b815260040180806020018281038252602a815260200180615dfa602a913960400191505060405180910390fd5b60365460408051630f8a56cd60e31b81526001600160a01b038a8116600483015291519190921691637c52b6689160248083019260209291908290030181600087803b15801561203657600080fd5b505af115801561204a573d6000803e3d6000fd5b505050506040513d602081101561206057600080fd5b5060009050806120708989612cc4565b6001600160a01b03808d166000908152603860205260408082205481516369e61c0f60e11b81528f851660048201529151969850939650929091169384935063d3cc381e92602480820193929182900301818387803b1580156120d257600080fd5b505af11580156120e6573d6000803e3d6000fd5b505050506120f88a8a85858c8b614925565b6121068a8a8a858b8b614954565b6121128a60008a61468c565b61211c8a8a614a7f565b9a91995090975050505050505050565b603454604080516385c858b160e01b8152905133926001600160a01b0316916385c858b1916004808301926020929190829003018186803b15801561217057600080fd5b505afa158015612184573d6000803e3d6000fd5b505050506040513d602081101561219a57600080fd5b50516001600160a01b0316146121e15760405162461bcd60e51b8152600401808060200182810382526038815260200180615f0f6038913960400191505060405180910390fd5b6001600160a01b0382166000908152603860205260408082208151633994c3f760e11b815260048101919091528315156024820152905173__CoreLibrary___________________________9263732987ee9260448082019391829003018186803b15801561224f57600080fd5b505af4158015612263573d6000803e3d6000fd5b505050505050565b6001600160a01b031660009081526038602052604090206006015490565b6035546001600160a01b031633146122d25760405162461bcd60e51b815260040180806020018281038252602a815260200180615dfa602a913960400191505060405180910390fd5b6001600160a01b039182166000908152603960209081526040808320959094168252939093529120805460ff1916911515919091179055565b6001600160a01b031660009081526038602052604090206008015490565b603454604080516385c858b160e01b8152905133926001600160a01b0316916385c858b1916004808301926020929190829003018186803b15801561236d57600080fd5b505afa158015612381573d6000803e3d6000fd5b505050506040513d602081101561239757600080fd5b50516001600160a01b0316146123de5760405162461bcd60e51b8152600401808060200182810382526038815260200180615f0f6038913960400191505060405180910390fd5b6001600160a01b03918216600090815260386020526040902060010180546001600160a01b03191691909216179055565b603454604080516385c858b160e01b8152905133926001600160a01b0316916385c858b1916004808301926020929190829003018186803b15801561245357600080fd5b505afa158015612467573d6000803e3d6000fd5b505050506040513d602081101561247d57600080fd5b50516001600160a01b0316146124c45760405162461bcd60e51b8152600401808060200182810382526038815260200180615f0f6038913960400191505060405180910390fd5b6001600160a01b03166000908152603860205260409020600301805460ff19169055565b6001600160a01b0381166000908152603860205260408120600481015461258e578060010160009054906101000a90046001600160a01b03166001600160a01b03166334762ca56040518163ffffffff1660e01b815260040160206040518083038186803b15801561255957600080fd5b505afa15801561256d573d6000803e3d6000fd5b505050506040513d602081101561258357600080fd5b5051915061151f9050565b6004015492915050565b6001600160a01b03166000908152603860205260409020600d015490565b603454604080516385c858b160e01b8152905133926001600160a01b0316916385c858b1916004808301926020929190829003018186803b1580156125fa57600080fd5b505afa15801561260e573d6000803e3d6000fd5b505050506040513d602081101561262457600080fd5b50516001600160a01b03161461266b5760405162461bcd60e51b8152600401808060200182810382526038815260200180615f0f6038913960400191505060405180910390fd5b612673614b11565b565b603454604080516385c858b160e01b8152905133926001600160a01b0316916385c858b1916004808301926020929190829003018186803b1580156126b957600080fd5b505afa1580156126cd573d6000803e3d6000fd5b505050506040513d60208110156126e357600080fd5b50516001600160a01b03161461272a5760405162461bcd60e51b8152600401808060200182810382526038815260200180615f0f6038913960400191505060405180910390fd5b6001600160a01b039091166000908152603860205260409020600e0155565b603454604080516385c858b160e01b8152905133926001600160a01b0316916385c858b1916004808301926020929190829003018186803b15801561278d57600080fd5b505afa1580156127a1573d6000803e3d6000fd5b505050506040513d60208110156127b757600080fd5b50516001600160a01b0316146127fe5760405162461bcd60e51b8152600401808060200182810382526038815260200180615f0f6038913960400191505060405180910390fd5b6001600160a01b03166000908152603860205260409020600301805464ff0000000019169055565b6035546001600160a01b0316331461286f5760405162461bcd60e51b815260040180806020018281038252602a815260200180615dfa602a913960400191505060405180910390fd5b60365460408051630f8a56cd60e31b81526001600160a01b038c8116600483015291519190921691637c52b6689160248083019260209291908290030181600087803b1580156128be57600080fd5b505af11580156128d2573d6000803e3d6000fd5b505050506040513d60208110156128e857600080fd5b505060365460408051634f425fbb60e01b81526001600160a01b038b8116600483015291519190921691634f425fbb9160248083019260209291908290030181600087803b15801561293957600080fd5b505af115801561294d573d6000803e3d6000fd5b505050506040513d602081101561296357600080fd5b50506001600160a01b03808a166000908152603860205260408082205481516369e61c0f60e11b81528b851660048201529151931692839263d3cc381e926024808201939182900301818387803b1580156129bd57600080fd5b505af11580156129d1573d6000803e3d6000fd5b505050506129e18a898986614c31565b6129ea89614ce1565b6129f78a89898887614d05565b612a038a88600061468c565b81612a2357612a23896000612a1e898863ffffffff6145cb16565b61468c565b50505050505050505050565b6001600160a01b0380821660009081526039602090815260408083209386168352929052206002015492915050565b6001600160a01b0316600090815260386020526040902060030154640100000000900460ff1690565b6001600160a01b0381166000908152603860205260408120611d8a612aab8261481f565b612ab485612c20565b9063ffffffff6145cb16565b6001600160a01b0316600090815260386020526040902060030154610100900460ff1690565b6035546001600160a01b03163314612b2f5760405162461bcd60e51b815260040180806020018281038252602a815260200180615dfa602a913960400191505060405180910390fd5b803415612b6d5760405162461bcd60e51b8152600401808060200182810382526036815260200180615bab6036913960400191505060405180910390fd5b612b7561483c565b6001600160a01b0316846001600160a01b031614612bac57612ba76001600160a01b038516828563ffffffff614dbd16565b612bfc565b6040516000906001600160a01b0383169061c35090869084818181858888f193505050503d8060008114611d10576040519150601f19603f3d011682016040523d82523d6000602084013e611d15565b50505050565b6001600160a01b03166000908152603860205260409020600b015490565b600080612c2b61483c565b6001600160a01b0316836001600160a01b03161415612c4b575047611a20565b604080516370a0823160e01b815230600482015290516001600160a01b038516916370a08231916024808301926020929190829003018186803b158015612c9157600080fd5b505afa158015612ca5573d6000803e3d6000fd5b505050506040513d6020811015612cbb57600080fd5b50519392505050565b6001600160a01b0380821660009081526039602090815260408083209386168352929052908120600181015482918291612d08575060009250829150819050612d4e565b60018101546001600160a01b0387166000908152603860205260408120612d30908490614e0f565b90508181612d44818363ffffffff6148ae16565b9550955095505050505b9250925092565b603454604080516385c858b160e01b8152905133926001600160a01b0316916385c858b1916004808301926020929190829003018186803b158015612d9957600080fd5b505afa158015612dad573d6000803e3d6000fd5b505050506040513d6020811015612dc357600080fd5b50516001600160a01b031614612e0a5760405162461bcd60e51b8152600401808060200182810382526038815260200180615f0f6038913960400191505060405180910390fd5b6001600160a01b03166000908152603860205260409020600301805461ff0019169055565b6001600160a01b039081166000908152603860205260409020541690565b6001600160a01b0380821660009081526038602090815260408083206034548251631b0c55dd60e11b815292519495919486949190921692633618abba9260048083019392829003018186803b158015612ea657600080fd5b505afa158015612eba573d6000803e3d6000fd5b505050506040513d6020811015612ed057600080fd5b50516005830154909150612f6a57806001600160a01b031663bb85c0bb856040518263ffffffff1660e01b815260040180826001600160a01b03166001600160a01b0316815260200191505060206040518083038186803b158015612f3457600080fd5b505afa158015612f48573d6000803e3d6000fd5b505050506040513d6020811015612f5e57600080fd5b5051925061151f915050565b506005015492915050565b6035546000906001600160a01b03163314612fc15760405162461bcd60e51b815260040180806020018281038252602a815260200180615dfa602a913960400191505060405180910390fd5b60365460408051630f8a56cd60e31b81526001600160a01b03878116600483015291519190921691637c52b6689160248083019260209291908290030181600087803b15801561301057600080fd5b505af1158015613024573d6000803e3d6000fd5b505050506040513d602081101561303a57600080fd5b50506001600160a01b038085166000908152603860205260408082205481516369e61c0f60e11b815287851660048201529151931692839263d3cc381e926024808201939182900301818387803b15801561309457600080fd5b505af11580156130a8573d6000803e3d6000fd5b505050506130b7858585614eff565b6130c2858585614f4f565b6130ce8560008061468c565b50506001600160a01b038083166000908152603960209081526040808320938716835292905220600201549392505050565b6035546001600160a01b031633146131495760405162461bcd60e51b815260040180806020018281038252602a815260200180615dfa602a913960400191505060405180910390fd5b60365460408051634f425fbb60e01b81526001600160a01b03878116600483015291519190921691634f425fbb9160248083019260209291908290030181600087803b15801561319857600080fd5b505af11580156131ac573d6000803e3d6000fd5b505050506040513d60208110156131c257600080fd5b50506001600160a01b03841660009081526038602052604090206131e59061453b565b6131f18460008461468c565b8015612bfc57612bfc84846000612289565b6035546001600160a01b0316331461324c5760405162461bcd60e51b815260040180806020018281038252602a815260200180615dfa602a913960400191505060405180910390fd5b60365460408051634f425fbb60e01b81526001600160a01b03878116600483015291519190921691634f425fbb9160248083019260209291908290030181600087803b15801561329b57600080fd5b505af11580156132af573d6000803e3d6000fd5b505050506040513d60208110156132c557600080fd5b50506001600160a01b03841660009081526038602052604090206132e89061453b565b6132f48483600061468c565b8015612bfc57612bfc84846001612289565b603454604080516385c858b160e01b8152905133926001600160a01b0316916385c858b1916004808301926020929190829003018186803b15801561334a57600080fd5b505afa15801561335e573d6000803e3d6000fd5b505050506040513d602081101561337457600080fd5b50516001600160a01b0316146133bb5760405162461bcd60e51b8152600401808060200182810382526038815260200180615f0f6038913960400191505060405180910390fd5b6001600160a01b03166000908152603860205260409020600301805464ff000000001916640100000000179055565b6001600160a01b031660009081526038602052604090206007015490565b6000613412614fbe565b60015490915060ff16806134295750613429614fc3565b80613435575060005481115b6134705760405162461bcd60e51b815260040180806020018281038252602e815260200180615dcc602e913960400191505060405180910390fd5b60015460ff1615801561348f576001805460ff19168117905560008290555b603480546001600160a01b0319166001600160a01b0385161790556134b2614b11565b8015611d64576001805460ff19169055505050565b6001600160a01b031660009081526038602052604090206002810154600c820154600d83015460039093015491939092916301000000900460ff1690565b6034546001600160a01b031681565b6035546001600160a01b0316331461355d5760405162461bcd60e51b815260040180806020018281038252602a815260200180615dfa602a913960400191505060405180910390fd5b8061356661483c565b6001600160a01b0316856001600160a01b0316146135db5734156135bb5760405162461bcd60e51b815260040180806020018281038252605f815260200180615d4c605f913960600191505060405180910390fd5b6135d66001600160a01b03861685838663ffffffff61485416565b6116dd565b8234101561361a5760405162461bcd60e51b8152600401808060200182810382526035815260200180615c656035913960400191505060405180910390fd5b6040516000906001600160a01b0383169061c35090869084818181858888f193505050503d806000811461366a576040519150601f19603f3d011682016040523d82523d6000602084013e61366f565b606091505b5050905080612263576040805162461bcd60e51b8152602060048201526016602482015275151c985b9cd9995c881bd9881155120819985a5b195960521b604482015290519081900360640190fd5b603454604080516385c858b160e01b8152905133926001600160a01b0316916385c858b1916004808301926020929190829003018186803b15801561370257600080fd5b505afa158015613716573d6000803e3d6000fd5b505050506040513d602081101561372c57600080fd5b50516001600160a01b0316146137735760405162461bcd60e51b8152600401808060200182810382526038815260200180615f0f6038913960400191505060405180910390fd5b6001600160a01b03909116600090815260386020526040902060020155565b6001600160a01b03166000908152603860205260409020600301546301000000900460ff1690565b6001600160a01b0381166000908152603860205260408120816137dc8261481f565b9050806137ee5760009250505061151f565b60006137f985612c20565b905061381b61380e828463ffffffff6145cb16565b839063ffffffff614fc916565b95945050505050565b6036546001600160a01b031681565b6035546001600160a01b031681565b6035546001600160a01b0316331461388b5760405162461bcd60e51b815260040180806020018281038252602a815260200180615dfa602a913960400191505060405180910390fd5b60365460408051630f8a56cd60e31b81526001600160a01b03898116600483015291519190921691637c52b6689160248083019260209291908290030181600087803b1580156138da57600080fd5b505af11580156138ee573d6000803e3d6000fd5b505050506040513d602081101561390457600080fd5b50506001600160a01b038087166000908152603860205260408082205481516369e61c0f60e11b815289851660048201529151931692839263d3cc381e926024808201939182900301818387803b15801561395e57600080fd5b505af1158015613972573d6000803e3d6000fd5b5050505061398287878786615005565b613990878787878787615069565b61399c8786600061468c565b50505050505050565b603454604080516385c858b160e01b8152905133926001600160a01b0316916385c858b1916004808301926020929190829003018186803b1580156139e957600080fd5b505afa1580156139fd573d6000803e3d6000fd5b505050506040513d6020811015613a1357600080fd5b50516001600160a01b031614613a5a5760405162461bcd60e51b8152600401808060200182810382526038815260200180615f0f6038913960400191505060405180910390fd5b6001600160a01b0381166000908152603860205260409020600b81015415801590613a895750600081600a0154115b613ac45760405162461bcd60e51b8152600401808060200182810382526027815260200180615d256027913960400191505060405180910390fd5b600301805460ff1916600117905550565b6001600160a01b031660009081526038602052604090206002015490565b6001600160a01b0383811660008181526038602090815260408083209487168352603982528083209383529290529081206003830154919291640100000000900460ff16613b4657600092505050611d8a565b805460ff161580613b63575060038201546301000000900460ff16155b80613b765750613b738686611996565b84115b9695505050505050565b603454604080516385c858b160e01b8152905133926001600160a01b0316916385c858b1916004808301926020929190829003018186803b158015613bc457600080fd5b505afa158015613bd8573d6000803e3d6000fd5b505050506040513d6020811015613bee57600080fd5b50516001600160a01b031614613c355760405162461bcd60e51b8152600401808060200182810382526038815260200180615f0f6038913960400191505060405180910390fd5b6001600160a01b038416600090815260386020526040808220815163897c124760e01b81526004810191909152602481018690526044810185905260648101849052905173__CoreLibrary___________________________9263897c12479260848082019391829003018186803b158015613cb057600080fd5b505af4158015613cc4573d6000803e3d6000fd5b5050505050505050565b603454604080516385c858b160e01b8152905133926001600160a01b0316916385c858b1916004808301926020929190829003018186803b158015613d1257600080fd5b505afa158015613d26573d6000803e3d6000fd5b505050506040513d6020811015613d3c57600080fd5b50516001600160a01b031614613d835760405162461bcd60e51b8152600401808060200182810382526038815260200180615f0f6038913960400191505060405180910390fd5b6001600160a01b038116600090815260386020526040808220815163df5d411360e01b81526004810191909152905173__CoreLibrary___________________________9263df5d41139260248082019391829003018186803b15801561198257600080fd5b603454604080516385c858b160e01b8152905133926001600160a01b0316916385c858b1916004808301926020929190829003018186803b158015613e2d57600080fd5b505afa158015613e41573d6000803e3d6000fd5b505050506040513d6020811015613e5757600080fd5b50516001600160a01b031614613e9e5760405162461bcd60e51b8152600401808060200182810382526038815260200180615f0f6038913960400191505060405180910390fd5b6001600160a01b03808516600090815260386020526040808220815163710d44ed60e11b8152600481019190915286841660248201526044810186905292841660648401525173__CoreLibrary___________________________9263e21a89da926084808301939192829003018186803b158015613f1c57600080fd5b505af4158015613f30573d6000803e3d6000fd5b50505050613f3d846150ec565b60365460408051630a577ccb60e31b81526001600160a01b038781166004830152868116602483015260448201869052915191909216916352bbe6589160648083019260209291908290030181600087803b158015613f9b57600080fd5b505af1158015613faf573d6000803e3d6000fd5b505050506040513d6020811015613fc557600080fd5b5051612bfc5760405162461bcd60e51b815260040180806020018281038252605b815260200180615e24605b913960600191505060405180910390fd5b6001600160a01b0380821660009081526039602090815260408083209386168352929052205460ff1692915050565b6001600160a01b03166000908152603860205260409020600e015490565b60355460009081906001600160a01b0316331461409d5760405162461bcd60e51b815260040180806020018281038252602a815260200180615dfa602a913960400191505060405180910390fd5b60365460408051630f8a56cd60e31b81526001600160a01b038b8116600483015291519190921691637c52b6689160248083019260209291908290030181600087803b1580156140ec57600080fd5b505af1158015614100573d6000803e3d6000fd5b505050506040513d602081101561411657600080fd5b50506001600160a01b038089166000908152603860205260408082205481516369e61c0f60e11b81528b851660048201529151931692839263d3cc381e926024808201939182900301818387803b15801561417057600080fd5b505af1158015614184573d6000803e3d6000fd5b505050506141958989898988615190565b60006141a38a8a888861528f565b90506141b18a60008061468c565b806141bc8b8b614a7f565b935093505050965096945050505050565b6001600160a01b0380821660009081526039602090815260408083209386168352929052206003015492915050565b6035546001600160a01b031633146142455760405162461bcd60e51b815260040180806020018281038252602a815260200180615dfa602a913960400191505060405180910390fd5b61424d61483c565b6001600160a01b0316836001600160a01b03161461427f57611c5f6001600160a01b038416838363ffffffff614dbd16565b6040516000906001600160a01b0384169061c35090849084818181858888f193505050503d80600081146142cf576040519150601f19603f3d011682016040523d82523d6000602084013e6142d4565b606091505b5050905080612bfc576040805162461bcd60e51b8152602060048201526016602482015275151c985b9cd9995c881bd9881155120819985a5b195960521b604482015290519081900360640190fd5b6001600160a01b031660009081526038602052604090206009015490565b6001600160a01b0380831660008181526038602090815260408083209486168352603982528083209383529290529081209091829182918291826143858989611996565b90508160010154600014156143ac5790549095506000945084935060ff1691506143d49050565b806143bd838563ffffffff614e0f16565b6004840154935491985096509194505060ff169150505b92959194509250565b6001600160a01b0380821660009081526039602090815260408083209386168352929052206004015492915050565b6037818154811061441957fe5b6000918252602090912001546001600160a01b0316905081565b6001600160a01b03166000908152603860205260409020600f015464ffffffffff1690565b60345460408051631db4f56960e01b815290516000926001600160a01b031691631db4f569916004808301926020929190829003018186803b15801561449d57600080fd5b505afa1580156144b1573d6000803e3d6000fd5b505050506040513d60208110156144c757600080fd5b505190506144d361483c565b6001600160a01b0316836001600160a01b03161461450557611c5f6001600160a01b038416828463ffffffff614dbd16565b6040516001600160a01b0382169083156108fc029084906000818181858888f19350505050158015612bfc573d6000803e3d6000fd5b60006145468261481f565b905080156145c7576006820154600f83015460009161456b9164ffffffffff16615393565b905061458483600b0154826153de90919063ffffffff16565b600b8401556004830154600f8401546000916145a69164ffffffffff16615416565b90506145bf84600a0154826153de90919063ffffffff16565b600a85015550505b5050565b600082820183811015611d8a576040805162461bcd60e51b815260206004820152601b60248201527f536166654d6174683a206164646974696f6e206f766572666c6f770000000000604482015290519081900360640190fd5b600061464861463384615467565b61463c84615467565b9063ffffffff614fc916565b9050600061466461465761547d565b839063ffffffff6145cb16565b905061467d85600b0154826153de90919063ffffffff16565b85600b01819055505050505050565b6001600160a01b0380841660009081526038602052604081206001810154909282918291166357e37af0886146d4886146c88b612ab485612c20565b9063ffffffff6148ae16565b8760070154886008015489600901546040518663ffffffff1660e01b815260040180866001600160a01b03166001600160a01b031681526020018581526020018481526020018381526020018281526020019550505050505060606040518083038186803b15801561474557600080fd5b505afa158015614759573d6000803e3d6000fd5b505050506040513d606081101561476f57600080fd5b508051602080830151604093840151600689018490556005890182905560048901819055600f8901805464ffffffffff421664ffffffffff19909116179055600b890154600a8a0154865186815294850184905284870183905260608501919091526080840152935192965094509192506001600160a01b038916917f0f05e03f4cc9c1680881783f4b8e7205df99a05cb3fd1523dc96c8c34d91e62f919081900360a00190a250505050505050565b6000611a20826008015483600701546145cb90919063ffffffff16565b73eeeeeeeeeeeeeeeeeeeeeeeeeeeeeeeeeeeeeeee90565b604080516001600160a01b0385811660248301528416604482015260648082018490528251808303909101815260849091019091526020810180516001600160e01b03166323b872dd60e01b179052612bfc90859061548d565b6000611d8a83836040518060400160405280601e81526020017f536166654d6174683a207375627472616374696f6e206f766572666c6f770000815250615645565b600b8101546006820154600f8301546000928392611d8a92614919919064ffffffffff16615393565b9063ffffffff6153de16565b6001600160a01b03861660009081526038602052604090206149469061453b565b6122638686868686866156dc565b6001600160a01b038087166000818152603860209081526040808320948a1683526039825280832093835292905220600183600281111561499157fe5b14156149ad576005820154600282015560006003820155614a24565b60028360028111156149bb57fe5b14156149d75760006002820155600a8201546003820155614a24565b6040805162461bcd60e51b815260206004820152601860248201527f496e76616c696420626f72726f772072617465206d6f64650000000000000000604482015290519081900360640190fd5b614a3f85612ab48884600101546145cb90919063ffffffff16565b60018201556004810154614a59908563ffffffff6145cb16565b6004820155600501805464ffffffffff19164264ffffffffff1617905550505050505050565b600080614a8c8484611a26565b90506000816002811115614a9c57fe5b1415614aac576000915050611a20565b6001816002811115614aba57fe5b14614ae0576001600160a01b038416600090815260386020526040902060040154611a76565b50506001600160a01b0390811660009081526039602090815260408083209490931682529290925290206002015490565b603460009054906101000a90046001600160a01b03166001600160a01b0316630261bf8b6040518163ffffffff1660e01b815260040160206040518083038186803b158015614b5f57600080fd5b505afa158015614b73573d6000803e3d6000fd5b505050506040513d6020811015614b8957600080fd5b5051603580546001600160a01b0319166001600160a01b039283161790556034546040805163a0375c6d60e01b81529051919092169163a0375c6d916004808301926020929190829003018186803b158015614be457600080fd5b505afa158015614bf8573d6000803e3d6000fd5b505050506040513d6020811015614c0e57600080fd5b5051603680546001600160a01b0319166001600160a01b03909216919091179055565b6001600160a01b03808516600081815260386020908152604080832094881683526039825280832093835292905220614c698261453b565b6000614c758787611a26565b905060015b816002811115614c8657fe5b1415614cc1576002820154614ca4908490869063ffffffff61584316565b6002820154614cbc908490879063ffffffff6158b316565b61399c565b614cd1838563ffffffff6159be16565b61399c838663ffffffff6159df16565b6001600160a01b0381166000908152603860205260409020614d029061453b565b50565b6001600160a01b038085166000908152603960209081526040808320938916835292815282822060389091529190206001820154614d4f9086906146c8908663ffffffff6145cb16565b60018301556002614d608888611a26565b6002811115614d6b57fe5b1415614d7c57600a81015460038301555b8315614d9d576004820154614d97908563ffffffff6148ae16565b60048301555b50600501805464ffffffffff19164264ffffffffff161790555050505050565b604080516001600160a01b038416602482015260448082018490528251808303909101815260649091019091526020810180516001600160e01b031663a9059cbb60e01b179052611d6490849061548d565b6000826001015460001415614e2657506000611a20565b6000614e358460010154615467565b6002850154909150600090819015614e695760028601546005870154614e62919064ffffffffff16615416565b9050614e9f565b614e9c866003015461463c87600a015461491989600401548a600f0160009054906101000a900464ffffffffff16615416565b90505b614eb7614eb2848363ffffffff6153de16565b615a37565b91508560010154821415614ef657600586015464ffffffffff164214614ef657600186810154614eec9163ffffffff6145cb16565b9350505050611a20565b50949350505050565b6001600160a01b03808416600081815260386020908152604080832094871683526039825280832093835292905220614f378261453b565b60028101546116dd908390859063ffffffff61584316565b6001600160a01b038083166000908152603960209081526040808320938716835292815282822060389091529190206001820154614f93908463ffffffff6145cb16565b6001830155600590810154600283015501805464ffffffffff19164264ffffffffff16179055505050565b600190565b303b1590565b600060028204611a7683614ff9614fec876b033b2e3c9fd0803ce8000000615a50565b849063ffffffff6145cb16565b9063ffffffff615aa916565b6001600160a01b0380851660009081526038602090815260408083206039835281842094881684529390915281209061503e8787611a26565b6001600160a01b03881660009081526038602052604090209091506150629061453b565b6001614c7a565b6001600160a01b038087166000818152603860209081526040808320948a168352603982528083209383529290522060018101546150b39087906146c8908763ffffffff6145cb16565b6001820155600a820154600382015582156150d75760006002820181905560038201555b6004810154614a59908663ffffffff6148ae16565b6000805b60375481101561513957826001600160a01b03166037828154811061511157fe5b6000918252602090912001546001600160a01b0316141561513157600191505b6001016150f0565b50806145c757603780546001810182556000919091527f42a7b7dd785cd69714a189dffb3fd7d7174edc9ece837694ce50f7078f7c31ae0180546001600160a01b0384166001600160a01b03199091161790555050565b6001600160a01b038086166000818152603860209081526040808320948916835260398252808320938352929052206151c88261453b565b60018360028111156151d657fe5b14156152085760028101546151f283878363ffffffff6158b316565b615202838663ffffffff6159be16565b5061399c565b600283600281111561521657fe5b1415615242576005820154615231838763ffffffff6159df16565b61520283868363ffffffff61584316565b6040805162461bcd60e51b815260206004820152601a60248201527f496e76616c69642072617465206d6f6465207265636569766564000000000000604482015290519081900360640190fd5b6001600160a01b038084166000908152603960209081526040808320938816835292815282822060389091529181209091908260028560028111156152d057fe5b14156152ef575060058101546002830155600060038301556001615355565b60018560028111156152fd57fe5b141561531e57506000600283810191909155600a8201546003840155615355565b60405162461bcd60e51b8152600401808060200182810382526023815260200180615e7f6023913960400191505060405180910390fd5b600183015461536a908763ffffffff6145cb16565b60018401556005909201805464ffffffffff19164264ffffffffff161790555095945050505050565b6000806153ad4264ffffffffff851663ffffffff6148ae16565b905060006153c16146336301e13380615467565b905061381b6153ce61547d565b612ab4878463ffffffff6153de16565b6000611d8a6b033b2e3c9fd0803ce8000000614ff9615403868663ffffffff615a5016565b6b019d971e4fe8401e74000000906145cb565b6000806154304264ffffffffff851663ffffffff6148ae16565b90506000615448856301e1338063ffffffff615aa916565b90506000613b768361545b61169861547d565b9063ffffffff615aeb16565b6000611a2082633b9aca0063ffffffff615a5016565b6b033b2e3c9fd0803ce800000090565b61549f826001600160a01b031661151a565b6154f0576040805162461bcd60e51b815260206004820152601f60248201527f5361666545524332303a2063616c6c20746f206e6f6e2d636f6e747261637400604482015290519081900360640190fd5b60006060836001600160a01b0316836040518082805190602001908083835b6020831061552e5780518252601f19909201916020918201910161550f565b6001836020036101000a0380198251168184511680821785525050505050509050019150506000604051808303816000865af19150503d8060008114615590576040519150601f19603f3d011682016040523d82523d6000602084013e615595565b606091505b5091509150816155ec576040805162461bcd60e51b815260206004820181905260248201527f5361666545524332303a206c6f772d6c6576656c2063616c6c206661696c6564604482015290519081900360640190fd5b805115612bfc5780806020019051602081101561560857600080fd5b5051612bfc5760405162461bcd60e51b815260040180806020018281038252602a815260200180615ea2602a913960400191505060405180910390fd5b600081848411156156d45760405162461bcd60e51b81526004018080602001828103825283818151815260200191508051906020019080838360005b83811015615699578181015183820152602001615681565b50505050905090810190601f1680156156c65780820380516001836020036101000a031916815260200191505b509250505060405180910390fd5b505050900390565b60006156e88787611a26565b6001600160a01b0388166000908152603860205260409020909150600182600281111561571157fe5b141561575a576001600160a01b038088166000908152603960209081526040808320938c168352929052206002810154615754908390899063ffffffff6158b316565b5061577e565b600282600281111561576857fe5b141561577e5761577e818763ffffffff6159df16565b600061579485612ab4898963ffffffff6145cb16565b905060018460028111156157a457fe5b14156157c75760058201546157c2908390839063ffffffff61584316565b615838565b60028460028111156157d557fe5b14156157eb576157c2828263ffffffff6159be16565b6040805162461bcd60e51b815260206004820152601c60248201527f496e76616c6964206e657720626f72726f772072617465206d6f646500000000604482015290519081900360640190fd5b505050505050505050565b6007830154615858818463ffffffff6145cb16565b6007850155600061586c8361491986615467565b90506000615881866009015461491985615467565b90506158a36158938760070154615467565b61463c848463ffffffff6145cb16565b8660090181905550505050505050565b818360070154101561590c576040805162461bcd60e51b815260206004820152601a60248201527f496e76616c696420616d6f756e7420746f206465637265617365000000000000604482015290519081900360640190fd5b6007830154615921818463ffffffff6148ae16565b60078501819055615939575060006009840155611d64565b60006159488361491986615467565b9050600061595d866009015461491985615467565b90508181101561599e5760405162461bcd60e51b8152600401808060200182810382526023815260200180615cd06023913960400191505060405180910390fd5b6158a36159ae8760070154615467565b61463c838563ffffffff6148ae16565b60088201546159d3908263ffffffff6145cb16565b82600801819055505050565b8082600801541015615a225760405162461bcd60e51b8152600401808060200182810382526050815260200180615be16050913960600191505060405180910390fd5b60088201546159d3908263ffffffff6148ae16565b6000631dcd6500611d8a633b9aca00614ff983866145cb565b600082615a5f57506000611a20565b82820282848281615a6c57fe5b0414611d8a5760405162461bcd60e51b8152600401808060200182810382526021815260200180615dab6021913960400191505060405180910390fd5b6000611d8a83836040518060400160405280601a81526020017f536166654d6174683a206469766973696f6e206279207a65726f000000000000815250615b45565b600060028206615b07576b033b2e3c9fd0803ce8000000615b09565b825b90506002820491505b8115611a2057615b2283846153de565b92506002820615615b3a57615b3781846153de565b90505b600282049150615b12565b60008183615b945760405162461bcd60e51b8152602060048201818152835160248401528351909283926044909101919085019080838360008315615699578181015183820152602001615681565b506000838581615ba057fe5b049594505050505056fe466565206c69717569646174696f6e20646f6573206e6f74207265717569726520616e79207472616e73666572206f662076616c756554686520616d6f756e742074686174206973206265696e6720737562747261637465642066726f6d20746865207661726961626c6520746f74616c20626f72726f777320697320696e636f727265637443616e6e6f742072656d6f766520616e20496e737472756d656e742077697468206c6971756964697479206465706f736974656454686520616d6f756e7420616e64207468652076616c75652073656e7420746f206465706f73697420646f206e6f74206d617463684f6e6c7920636f6e7472616374732063616e2073656e6420657468657220746f20746865204c656e64696e6720706f6f6c20636f726554686520616d6f756e747320746f20737562747261637420646f6e2774206d61746368557365722069732073656e64696e672045544820616c6f6e67207769746820746865204552433230207472616e736665722e496e737472756d656e7420686173206e6f74206265656e20696e697469616c697a656420796574557365722069732073656e64696e672045544820616c6f6e67207769746820746865204552433230207472616e736665722e20436865636b207468652076616c756520617474726962757465206f6620746865207472616e73616374696f6e536166654d6174683a206d756c7469706c69636174696f6e206f766572666c6f77436f6e747261637420696e7374616e63652068617320616c7265616479206265656e20696e697469616c697a65645468652063616c6c6572206d7573742062652061206c656e64696e6720706f6f6c20636f6e7472616374496e737472756d656e74206661696c656420746f2062652070726f7065726c7920616464656420746f20746865206c697374206f6620496e737472756d656e747320737570706f7274656420627920534947482046696e616e6365496e76616c696420696e7465726573742072617465206d6f64652072656365697665645361666545524332303a204552433230206f7065726174696f6e20646964206e6f742073756363656564496e737472756d656e74206265696e672072656d6f76656420697320646966666572656e74207468616e2074686520496e737472756d656e74207265717565737465645468652063616c6c6572206d75737420626520746865206c656e64696e6720706f6f6c20636f6e666967757261746f72206163636f756e74a265627a7a7231582046012f57372498e01c8c58f71cf4ce50488cfd6e4d222fa4b91f0f2f4a134b2b64736f6c63430005100032",
  "source": "pragma solidity ^0.5.0;\n\nimport \"openzeppelin-solidity/contracts/math/SafeMath.sol\";\nimport \"openzeppelin-solidity/contracts/token/ERC20/SafeERC20.sol\";\nimport \"openzeppelin-solidity/contracts/token/ERC20/ERC20.sol\";\nimport \"openzeppelin-solidity/contracts/utils/Address.sol\";\nimport \"../../openzeppelin-upgradeability/VersionedInitializable.sol\";\n\nimport \"../libraries/WadRayMath.sol\";\nimport \"../libraries/EthAddressLib.sol\";\n\nimport \"../libraries/CoreLibrary.sol\";\nimport \"../../configuration/GlobalAddressesProvider.sol\";\nimport \"../interfaces/ILendingRateOracle.sol\";\nimport \"../interfaces/I_InstrumentInterestRateStrategy.sol\";\nimport \"../interfaces/ITokenInterface.sol\";\n\nimport \"../../SIGHFinanceContracts/Interfaces/ISighDistributionHandler.sol\";\n\n/**\n* @title LendingPoolCore contract\n* @author Aave, SIGH Finance\n* @notice Holds the state of the lending pool and all the funds deposited\n* @dev NOTE: The core does not enforce security checks on the update of the state\n* (eg, updateStateOnBorrow() does not enforce that borrowed is enabled on the Instrument).\n* The check that an action can be performed is a duty of the overlying LendingPool contract.\n**/\n\ncontract LendingPoolCore is VersionedInitializable {\n\n    using SafeMath for uint256;\n    using WadRayMath for uint256;\n    using CoreLibrary for CoreLibrary.InstrumentData;\n    using CoreLibrary for CoreLibrary.UserInstrumentData;\n    using SafeERC20 for ERC20;\n    using Address for address payable;\n\n    GlobalAddressesProvider public addressesProvider;\n    address public lendingPoolAddress;\n    ISighDistributionHandler public sighMechanism;          // ADDED BY SIGH FINANCE\n\n    address[] public instrumentsList;\n    mapping(address => CoreLibrary.InstrumentData) internal reserves;\n    mapping(address => mapping(address => CoreLibrary.UserInstrumentData)) internal usersInstrumentData;\n\n    uint256 public constant CORE_REVISION = 0x1;          // NEEDED AS PART OF UPGRADABLE CONTRACTS FUNCTIONALITY ( VersionedInitializable )\n\n    /**\n    * @dev Emitted when the state of a instrument is updated\n    * @param instrument the address of the instrument\n    * @param liquidityRate the new liquidity rate\n    * @param stableBorrowRate the new stable borrow rate\n    * @param variableBorrowRate the new variable borrow rate\n    * @param liquidityIndex the new liquidity index\n    * @param variableBorrowIndex the new variable borrow index\n    **/\n    event InstrumentUpdated(  address indexed instrument,  uint256 liquidityRate,  uint256 stableBorrowRate,  uint256 variableBorrowRate, uint256 liquidityIndex, uint256 variableBorrowIndex );\n\n// #######################\n// ###### MODIFIERS ######\n// #######################\n\n    /**\n    * @dev only lending pools can use functions affected by this modifier\n    **/\n    modifier onlyLendingPool {\n        require(lendingPoolAddress == msg.sender, \"The caller must be a lending pool contract\");\n        _;\n    }\n\n    /**\n    * @dev only lending pools configurator can use functions affected by this modifier\n    **/\n    modifier onlyLendingPoolConfigurator {\n        require( addressesProvider.getLendingPoolConfigurator() == msg.sender,  \"The caller must be the lending pool configurator account\" );\n        _;\n    }\n\n// #####################################################\n// ###### UPGRADABILITY (PROXY) RELATED FUNCTIONS ######\n// #####################################################\n\n    /**\n    * @dev returns the revision number of the contract\n    **/\n    function getRevision() internal pure returns (uint256) {         // NEEDED AS PART OF UPGRADABLE CONTRACTS FUNCTIONALITY ( VersionedInitializable )\n        return CORE_REVISION;\n    }\n\n    /**\n    * @dev initializes the Core contract, invoked upon registration on the AddressesProvider\n    * @param _addressesProvider the addressesProvider contract\n    **/\n\n    function initialize(GlobalAddressesProvider _addressesProvider) public initializer {\n        addressesProvider = _addressesProvider;\n        refreshConfigInternal();\n    }\n\n// ###########################################################\n// ###### CALLED BY DEPOSIT() FROM LENDINGPOOL CONTRACT ######\n// ###########################################################\n\n    /**\n    * @dev updates the state of the core as a result of a deposit action\n    * @param _instrument the address of the instrument in which the deposit is happening\n    * @param _user the address of the the user depositing\n    * @param _amount the amount being deposited\n    * @param _isFirstDeposit true if the user is depositing for the first time\n    **/\n    function updateStateOnDeposit( address _instrument, address _user, uint256 _amount, bool _isFirstDeposit) external onlyLendingPool {\n        sighMechanism.updateSIGHSupplyIndex(_instrument);                                 // ADDED BY SIGH FINANCE (Instrument Index is updated)\n        reserves[_instrument].updateCumulativeIndexes();\n        updateInstrumentInterestRatesAndTimestampInternal(_instrument, _amount, 0);\n\n        if (_isFirstDeposit) {           //if this is the first deposit of the user, we configure the deposit as enabled to be used as collateral\n            setUserUseInstrumentAsCollateral(_instrument, _user, true);\n        }\n    }\n\n    /**\n    * @dev transfers an amount from a user to the destination instrument\n    * @param _instrument the address of the instrument where the amount is being transferred\n    * @param _user the address of the user from where the transfer is happening\n    * @param _amount the amount being transferred\n    **/\n    function transferToReserve(address _instrument, address payable _user, uint256 _amount) external  payable onlyLendingPool {\n        if (_instrument != EthAddressLib.ethAddress()) {\n            require(msg.value == 0, \"User is sending ETH along with the ERC20 transfer.\");\n            ERC20(_instrument).safeTransferFrom(_user, address(this), _amount);\n        } \n        else {\n            require(msg.value >= _amount, \"The amount and the value sent to deposit do not match\");\n            if (msg.value > _amount) {      //send back excess ETH\n                uint256 excessAmount = msg.value.sub(_amount);\n                (bool result, ) = _user.call.value(excessAmount).gas(50000)(\"\");\n                require(result, \"Transfer of ETH failed\");\n            }\n        }\n    }\n\n// ####################################################################\n// ###### CALLED BY REDEEMUNDERLYING() FROM LENDINGPOOL CONTRACT ######\n// ####################################################################\n\n    /**\n    * @dev updates the state of the core as a result of a redeem action\n    * @param _instrument the address of the instrument (underlying address) in which the redeem is happening\n    * @param _user the address of the the user redeeming\n    * @param _amountRedeemed the amount being redeemed\n    * @param _userRedeemedEverything true if the user is redeeming everything\n    **/\n    function updateStateOnRedeem( address _instrument, address _user, uint256 _amountRedeemed,  bool _userRedeemedEverything) external onlyLendingPool {\n        sighMechanism.updateSIGHSupplyIndex(_instrument);              // ADDED BY SIGH FINANCE (Instrument Index is updated)\n        reserves[_instrument].updateCumulativeIndexes();               //compound liquidity and variable borrow interests\n        updateInstrumentInterestRatesAndTimestampInternal(_instrument, 0, _amountRedeemed);\n\n        if (_userRedeemedEverything) {          //if user redeemed everything the useInstrumentAsCollateral flag is reset\n            setUserUseInstrumentAsCollateral(_instrument, _user, false);\n        }\n    }\n\n    /**\n    * @dev transfers to the user a specific amount from the reserve. (used during REDEEMUNDERLYING(), BORROW() & FLASHLOAN() in LendingPool Contract)\n    * @param _instrument the address of the instrument (underlying address) where the transfer is happening\n    * @param _user the address of the user receiving the transfer\n    * @param _amount the amount being transferred\n    **/\n    function transferToUser(address _instrument, address payable _user, uint256 _amount) external  onlyLendingPool {    \n        if (_instrument != EthAddressLib.ethAddress()) {\n            ERC20(_instrument).safeTransfer(_user, _amount);\n        } \n        else {\n            (bool result, ) = _user.call.value(_amount).gas(50000)(\"\");\n            require(result, \"Transfer of ETH failed\");\n        }\n    }    \n\n// #########################################################################################################################\n// ###### CALLED BY BORROW() FROM LENDINGPOOL CONTRACT - alongwith the internal functions that only this function uses #####\n// #########################################################################################################################\n\n    /**\n    * @dev updates the state of the core as a consequence of a borrow action.\n    * @param _instrument the address of the instrument which the user is borrowing\n    * @param _user the address of the borrower\n    * @param _amountBorrowed the new amount borrowed\n    * @param _borrowFee the fee on the amount borrowed\n    * @param _rateMode the borrow rate mode (stable, variable)\n    * @return the new borrow rate for the user\n    **/\n    function updateStateOnBorrow( address _instrument, address _user, uint256 _amountBorrowed, uint256 _borrowFee,  CoreLibrary.InterestRateMode _rateMode ) external onlyLendingPool returns (uint256, uint256) {\n        sighMechanism.updateSIGHBorrowIndex(_instrument);              // ADDED BY SIGH FINANCE (Instrument Index is updated)        \n        (uint256 principalBorrowBalance, , uint256 balanceIncrease) = getUserBorrowBalances( _instrument, _user );     // getting the previous borrow data of the user\n    \n        ITokenInterface iToken = ITokenInterface( reserves[_instrument].iTokenAddress );  // ITOKEN ADDRESS\n        iToken.accure_Borrower_SIGH(_user);                        // SIGH ACCURED FOR THE USER BEFORE BORROW BALANCE IS UPDATED ( ADDED BY SIGH FINANCE )\n\n        updateInstrumentStateOnBorrowInternal( _instrument, _user, principalBorrowBalance, balanceIncrease, _amountBorrowed, _rateMode );\n        updateUserStateOnBorrowInternal( _instrument, _user, _amountBorrowed, balanceIncrease, _borrowFee, _rateMode );\n        updateInstrumentInterestRatesAndTimestampInternal(_instrument, 0, _amountBorrowed);\n\n        return (getUserCurrentBorrowRate(_instrument, _user), balanceIncrease);\n    }\n\n    /**\n    * @dev updates the state of a instrument as a consequence of a borrow action.\n    * @param _instrument the address of the instrument on which the user is borrowing\n    * @param _user the address of the borrower\n    * @param _principalBorrowBalance the previous borrow balance of the borrower before the action\n    * @param _balanceIncrease the accrued interest of the user on the previous borrowed amount\n    * @param _amountBorrowed the new amount borrowed\n    * @param _rateMode the borrow rate mode (stable, variable)\n    **/\n    function updateInstrumentStateOnBorrowInternal( address _instrument, address _user, uint256 _principalBorrowBalance, uint256 _balanceIncrease, uint256 _amountBorrowed, CoreLibrary.InterestRateMode _rateMode ) internal {\n        reserves[_instrument].updateCumulativeIndexes();\n\n        //increasing Instrument total borrows to account for the new borrow balance of the user. NOTE: Depending on the previous borrow mode, the borrows might need to be switched from variable to stable or vice versa\n        updateInstrumentTotalBorrowsByRateModeInternal( _instrument, _user, _principalBorrowBalance,  _balanceIncrease, _amountBorrowed, _rateMode );\n    }\n\n    /**\n    * @dev updates the state of a user as a consequence of a borrow action.\n    * @param _instrument the address of the instrument on which the user is borrowing\n    * @param _user the address of the borrower\n    * @param _amountBorrowed the amount borrowed\n    * @param _balanceIncrease the accrued interest of the user on the previous borrowed amount\n    * @param _rateMode the borrow rate mode (stable, variable)\n    * @return the final borrow rate for the user. Emitted by the borrow() event\n    **/\n    function updateUserStateOnBorrowInternal( address _instrument, address _user, uint256 _amountBorrowed, uint256 _balanceIncrease, uint256 _fee, CoreLibrary.InterestRateMode _rateMode  ) internal {\n        CoreLibrary.InstrumentData storage instrument = reserves[_instrument];\n        CoreLibrary.UserInstrumentData storage user = usersInstrumentData[_user][_instrument];\n\n        if (_rateMode == CoreLibrary.InterestRateMode.STABLE) {      //stable. reset the user variable index, and update the stable rate\n            user.stableBorrowRate = instrument.currentStableBorrowRate;\n            user.lastVariableBorrowCumulativeIndex = 0;\n        } \n        else if (_rateMode == CoreLibrary.InterestRateMode.VARIABLE) {  //variable. reset the user stable rate, and store the new borrow index            \n            user.stableBorrowRate = 0;\n            user.lastVariableBorrowCumulativeIndex = instrument.lastVariableBorrowCumulativeIndex;\n        } \n        else {\n            revert(\"Invalid borrow rate mode\");\n        }\n\n        //increase the principal borrows and the origination fee\n        user.principalBorrowBalance = user.principalBorrowBalance.add(_amountBorrowed).add( _balanceIncrease );\n        user.originationFee = user.originationFee.add(_fee);\n        user.lastUpdateTimestamp = uint40(block.timestamp);\n    }\n\n    /**\n    * @dev updates the state of the user as a consequence of a stable rate rebalance\n    * @param _instrument the address of the principal instrument where the user borrowed\n    * @param _user the address of the borrower\n    * @param _balanceIncrease the accrued interest on the borrowed amount\n    * @param _amountBorrowed the accrued interest on the borrowed amount\n    **/\n    function updateInstrumentTotalBorrowsByRateModeInternal( address _instrument,  address _user,  uint256 _principalBalance,  uint256 _balanceIncrease, uint256 _amountBorrowed, CoreLibrary.InterestRateMode _newBorrowRateMode ) internal {\n        CoreLibrary.InterestRateMode previousRateMode = getUserCurrentBorrowRateMode( _instrument,  _user);\n        CoreLibrary.InstrumentData storage instrument = reserves[_instrument];\n\n        if (previousRateMode == CoreLibrary.InterestRateMode.STABLE) {\n            CoreLibrary.UserInstrumentData storage user = usersInstrumentData[_user][_instrument];\n            instrument.decreaseTotalBorrowsStableAndUpdateAverageRate( _principalBalance,  user.stableBorrowRate );\n        } \n        else if (previousRateMode == CoreLibrary.InterestRateMode.VARIABLE) {\n            instrument.decreaseTotalBorrowsVariable(_principalBalance);\n        }\n\n        uint256 newPrincipalAmount = _principalBalance.add(_balanceIncrease).add(_amountBorrowed);\n\n        if (_newBorrowRateMode == CoreLibrary.InterestRateMode.STABLE) {\n            instrument.increaseTotalBorrowsStableAndUpdateAverageRate( newPrincipalAmount, instrument.currentStableBorrowRate );\n        } \n        else if (_newBorrowRateMode == CoreLibrary.InterestRateMode.VARIABLE) {\n            instrument.increaseTotalBorrowsVariable(newPrincipalAmount);\n        } \n        else {\n            revert(\"Invalid new borrow rate mode\");\n        }\n    }\n\n\n// ########################################################################################################################\n// ###### CALLED BY REPAY() FROM LENDINGPOOL CONTRACT - alongwith the internal functions that only this function uses #####\n// ########################################################################################################################\n\n\n\n    /**\n    * @dev updates the state of the core as a consequence of a repay action.\n    * @param _instrument the address of the instrument on which the user is repaying\n    * @param _user the address of the borrower\n    * @param _paybackAmountMinusFees the amount being paid back minus fees\n    * @param _originationFeeRepaid the fee on the amount that is being repaid\n    * @param _balanceIncrease the accrued interest on the borrowed amount\n    * @param _repaidWholeLoan true if the user is repaying the whole loan\n    **/\n    function updateStateOnRepay(  address _instrument,  address _user, uint256 _paybackAmountMinusFees,  uint256 _originationFeeRepaid,  uint256 _balanceIncrease,  bool _repaidWholeLoan ) external onlyLendingPool {\n        sighMechanism.updateSIGHBorrowIndex(_instrument);              // ADDED BY SIGH FINANCE (Instrument Index is updated)        \n\n        ITokenInterface iToken = ITokenInterface( reserves[_instrument].iTokenAddress );  // ITOKEN ADDRESS\n        iToken.accure_Borrower_SIGH(_user);                        // SIGH ACCURED FOR THE USER BEFORE BORROW BALANCE IS UPDATED ( ADDED BY SIGH FINANCE )\n\n        updateInstrumentStateOnRepayInternal(  _instrument, _user, _paybackAmountMinusFees,  _balanceIncrease );\n        updateUserStateOnRepayInternal(  _instrument, _user, _paybackAmountMinusFees,  _originationFeeRepaid, _balanceIncrease, _repaidWholeLoan  );\n        updateInstrumentInterestRatesAndTimestampInternal(_instrument, _paybackAmountMinusFees, 0);\n    }\n\n    /**\n    * @dev updates the state of the instrument as a consequence of a repay action.\n    * @param _instrument the address of the instrument on which the user is repaying\n    * @param _user the address of the borrower\n    * @param _paybackAmountMinusFees the amount being paid back minus fees\n    * @param _balanceIncrease the accrued interest on the borrowed amount\n    **/\n    function updateInstrumentStateOnRepayInternal(  address _instrument, address _user, uint256 _paybackAmountMinusFees, uint256 _balanceIncrease ) internal {\n        CoreLibrary.InstrumentData storage instrument = reserves[_instrument];\n        CoreLibrary.UserInstrumentData storage user = usersInstrumentData[_instrument][_user];\n        CoreLibrary.InterestRateMode borrowRateMode = getUserCurrentBorrowRateMode(_instrument, _user);\n\n        reserves[_instrument].updateCumulativeIndexes();           //update the indexes\n\n        //compound the cumulated interest to the borrow balance and then subtracting the payback amount\n        if (borrowRateMode == CoreLibrary.InterestRateMode.STABLE) {\n            instrument.increaseTotalBorrowsStableAndUpdateAverageRate( _balanceIncrease, user.stableBorrowRate );\n            instrument.decreaseTotalBorrowsStableAndUpdateAverageRate(  _paybackAmountMinusFees, user.stableBorrowRate );\n        } \n        else {\n            instrument.increaseTotalBorrowsVariable(_balanceIncrease);\n            instrument.decreaseTotalBorrowsVariable(_paybackAmountMinusFees);\n        }\n    }\n\n    /**\n    * @dev updates the state of the user as a consequence of a repay action.\n    * @param _instrument the address of the instrument on which the user is repaying\n    * @param _user the address of the borrower\n    * @param _paybackAmountMinusFees the amount being paid back minus fees\n    * @param _originationFeeRepaid the fee on the amount that is being repaid\n    * @param _balanceIncrease the accrued interest on the borrowed amount\n    * @param _repaidWholeLoan true if the user is repaying the whole loan\n    **/\n    function updateUserStateOnRepayInternal( address _instrument, address _user, uint256 _paybackAmountMinusFees, uint256 _originationFeeRepaid, uint256 _balanceIncrease, bool _repaidWholeLoan ) internal {\n        CoreLibrary.InstrumentData storage instrument = reserves[_instrument];\n        CoreLibrary.UserInstrumentData storage user = usersInstrumentData[_user][_instrument];\n\n        //update the user principal borrow balance, adding the cumulated interest and then subtracting the payback amount\n        user.principalBorrowBalance = user.principalBorrowBalance.add(_balanceIncrease).sub( _paybackAmountMinusFees);\n        user.lastVariableBorrowCumulativeIndex = instrument.lastVariableBorrowCumulativeIndex;\n\n        //if the balance decrease is equal to the previous principal (user is repaying the whole loan) and the rate mode is stable, we reset the interest rate mode of the user\n        if (_repaidWholeLoan) {\n            user.stableBorrowRate = 0;\n            user.lastVariableBorrowCumulativeIndex = 0;\n        }\n        user.originationFee = user.originationFee.sub(_originationFeeRepaid);\n        user.lastUpdateTimestamp = uint40(block.timestamp);\n    }\n\n\n\n// #####################################################################################################################################\n// ###### CALLED BY SWAPBORROWRATEMODE() FROM LENDINGPOOL CONTRACT - alongwith the internal functions that only this function uses #####\n// #####################################################################################################################################\n\n\n    /**\n    * @dev updates the state of the core as a consequence of a swap rate action.\n    * @param _instrument the address of the _instrument on which the user is repaying\n    * @param _user the address of the borrower\n    * @param _principalBorrowBalance the amount borrowed by the user\n    * @param _compoundedBorrowBalance the amount borrowed plus accrued interest\n    * @param _balanceIncrease the accrued interest on the borrowed amount\n    * @param _currentRateMode the current interest rate mode for the user\n    **/\n    function updateStateOnSwapRate(  address _instrument, address _user, uint256 _principalBorrowBalance, uint256 _compoundedBorrowBalance, uint256 _balanceIncrease, CoreLibrary.InterestRateMode _currentRateMode ) external onlyLendingPool returns (CoreLibrary.InterestRateMode, uint256) {\n        sighMechanism.updateSIGHBorrowIndex(_instrument);              // ADDED BY SIGH FINANCE (Instrument Index is updated)        \n\n        ITokenInterface iToken = ITokenInterface( reserves[_instrument].iTokenAddress );  // ITOKEN ADDRESS\n        iToken.accure_Borrower_SIGH(_user);                        // SIGH ACCURED FOR THE USER BEFORE BORROW BALANCE IS UPDATED ( ADDED BY SIGH FINANCE )\n\n        updateInstrumentStateOnSwapRateInternal( _instrument, _user,_principalBorrowBalance,  _compoundedBorrowBalance, _currentRateMode );\n        CoreLibrary.InterestRateMode newRateMode = updateUserStateOnSwapRateInternal( _instrument, _user, _balanceIncrease, _currentRateMode );\n        updateInstrumentInterestRatesAndTimestampInternal(_instrument, 0, 0);\n        return (newRateMode, getUserCurrentBorrowRate(_instrument, _user));\n    }\n\n    /**\n    * @dev updates the state of the user as a consequence of a swap rate action.\n    * @param _instrument the address of the instrument on which the user is performing the rate swap\n    * @param _user the address of the borrower\n    * @param _principalBorrowBalance the the principal amount borrowed by the user\n    * @param _compoundedBorrowBalance the principal amount plus the accrued interest\n    * @param _currentRateMode the rate mode at which the user borrowed\n    **/\n    function updateInstrumentStateOnSwapRateInternal( address _instrument, address _user, uint256 _principalBorrowBalance, uint256 _compoundedBorrowBalance, CoreLibrary.InterestRateMode _currentRateMode ) internal {\n        CoreLibrary.InstrumentData storage instrument = reserves[_instrument];\n        CoreLibrary.UserInstrumentData storage user = usersInstrumentData[_user][_instrument];\n\n        instrument.updateCumulativeIndexes();      //compounding instrument indexes\n\n        if (_currentRateMode == CoreLibrary.InterestRateMode.STABLE) {\n            uint256 userCurrentStableRate = user.stableBorrowRate;\n            //swap to variable\n            instrument.decreaseTotalBorrowsStableAndUpdateAverageRate( _principalBorrowBalance, userCurrentStableRate ); //decreasing stable from old principal balance\n            instrument.increaseTotalBorrowsVariable(_compoundedBorrowBalance); //increase variable borrows\n        } \n        else if (_currentRateMode == CoreLibrary.InterestRateMode.VARIABLE) {\n            //swap to stable\n            uint256 currentStableRate = instrument.currentStableBorrowRate;\n            instrument.decreaseTotalBorrowsVariable(_principalBorrowBalance);\n            instrument.increaseTotalBorrowsStableAndUpdateAverageRate( _compoundedBorrowBalance,currentStableRate );\n        } \n        else {\n            revert(\"Invalid rate mode received\");\n        }\n    }\n\n    /**\n    * @dev updates the state of the user as a consequence of a swap rate action.\n    * @param _instrument the address of the instrument on which the user is performing the swap\n    * @param _user the address of the borrower\n    * @param _balanceIncrease the accrued interest on the borrowed amount\n    * @param _currentRateMode the current rate mode of the user\n    **/\n    function updateUserStateOnSwapRateInternal(  address _instrument, address _user, uint256 _balanceIncrease, CoreLibrary.InterestRateMode _currentRateMode) internal returns (CoreLibrary.InterestRateMode) {\n        CoreLibrary.UserInstrumentData storage user = usersInstrumentData[_user][_instrument];\n        CoreLibrary.InstrumentData storage instrument = reserves[_instrument];\n        CoreLibrary.InterestRateMode newMode = CoreLibrary.InterestRateMode.NONE;\n\n        if (_currentRateMode == CoreLibrary.InterestRateMode.VARIABLE) {                    //switch to stable            \n            newMode = CoreLibrary.InterestRateMode.STABLE;\n            user.stableBorrowRate = instrument.currentStableBorrowRate;\n            user.lastVariableBorrowCumulativeIndex = 0;\n        } \n        else if (_currentRateMode == CoreLibrary.InterestRateMode.STABLE) {\n            newMode = CoreLibrary.InterestRateMode.VARIABLE;\n            user.stableBorrowRate = 0;\n            user.lastVariableBorrowCumulativeIndex = instrument.lastVariableBorrowCumulativeIndex;\n        } \n        else {\n            revert(\"Invalid interest rate mode received\");\n        }\n        \n        user.principalBorrowBalance = user.principalBorrowBalance.add(_balanceIncrease);        //compounding cumulated interest\n        user.lastUpdateTimestamp = uint40(block.timestamp);\n        return newMode;\n    }\n\n\n// #########################################################################################################################################\n// ###### CALLED BY UPDATESTATEONREBALANCE() FROM LENDINGPOOL CONTRACT - alongwith the internal functions that only this function uses #####\n// #########################################################################################################################################\n\n    /**\n    * @dev updates the state of the core as a consequence of a stable rate rebalance\n    * @param _instrument the address of the principal instrument where the user borrowed\n    * @param _user the address of the borrower\n    * @param _balanceIncrease the accrued interest on the borrowed amount\n    * @return the new stable rate for the user\n    **/\n    function updateStateOnRebalance(address _instrument, address _user, uint256 _balanceIncrease) external onlyLendingPool returns (uint256) {\n        sighMechanism.updateSIGHBorrowIndex(_instrument);              // ADDED BY SIGH FINANCE (Instrument Index is updated)        \n        ITokenInterface iToken = ITokenInterface( reserves[_instrument].iTokenAddress );  // ITOKEN ADDRESS\n        iToken.accure_Borrower_SIGH(_user);                        // SIGH ACCURED FOR THE USER BEFORE BORROW BALANCE IS UPDATED ( ADDED BY SIGH FINANCE )\n\n        updateInstrumentStateOnRebalanceInternal(_instrument, _user, _balanceIncrease);\n        updateUserStateOnRebalanceInternal(_instrument, _user, _balanceIncrease);      //update user data and rebalance the rate\n        updateInstrumentInterestRatesAndTimestampInternal(_instrument, 0, 0);\n        return usersInstrumentData[_user][_instrument].stableBorrowRate;\n    }\n\n    /**\n    * @dev updates the state of the instrument as a consequence of a stable rate rebalance\n    * @param _instrument the address of the principal instrument where the user borrowed\n    * @param _user the address of the borrower\n    * @param _balanceIncrease the accrued interest on the borrowed amount\n    **/\n    function updateInstrumentStateOnRebalanceInternal( address _instrument, address _user, uint256 _balanceIncrease ) internal {\n        CoreLibrary.InstrumentData storage instrument = reserves[_instrument];\n        CoreLibrary.UserInstrumentData storage user = usersInstrumentData[_user][_instrument];\n\n        instrument.updateCumulativeIndexes();\n        instrument.increaseTotalBorrowsStableAndUpdateAverageRate( _balanceIncrease, user.stableBorrowRate );\n    }\n\n    /**\n    * @dev updates the state of the user as a consequence of a stable rate rebalance\n    * @param _instrument the address of the principal instrument where the user borrowed\n    * @param _user the address of the borrower\n    * @param _balanceIncrease the accrued interest on the borrowed amount\n    **/\n    function updateUserStateOnRebalanceInternal( address _instrument, address _user, uint256 _balanceIncrease ) internal {\n        CoreLibrary.UserInstrumentData storage user = usersInstrumentData[_user][_instrument];\n        CoreLibrary.InstrumentData storage instrument = reserves[_instrument];\n\n        user.principalBorrowBalance = user.principalBorrowBalance.add(_balanceIncrease);\n        user.stableBorrowRate = instrument.currentStableBorrowRate;\n        user.lastUpdateTimestamp = uint40(block.timestamp);\n    }\n\n\n\n// #########################################################################################################################################\n// ###### CALLED BY SETUSERUSEINSTRUMENTASCOLLATERAL() FROM LENDINGPOOL CONTRACT (also some internal calls from this contract )        #####\n// #########################################################################################################################################\n\n    /**\n    * @dev enables or disables a instrument as collateral\n    * @param _instrument the address of the principal instrument where the user deposited\n    * @param _user the address of the depositor\n    * @param _useAsCollateral true if the depositor wants to use the instrument as collateral\n    **/\n    function setUserUseInstrumentAsCollateral(address _instrument, address _user, bool _useAsCollateral) public onlyLendingPool {\n        CoreLibrary.UserInstrumentData storage user = usersInstrumentData[_user][_instrument];\n        user.useAsCollateral = _useAsCollateral;\n    }\n\n// ################################################################### \n// ###### CALLED BY FLASHLOAN() FROM LENDINGPOOL CONTRACT        #####\n// ################################################################### \n\n    /**\n    * @dev updates the state of the core as a result of a flashloan action\n    * @param _instrument the address of the instrument in which the flashloan is happening\n    * @param _income the income of the protocol as a result of the action\n    * @param _protocolFee the protocol fee charged\n    **/\n    function updateStateOnFlashLoan( address _instrument, uint256 _availableLiquidityBefore, uint256 _income,  uint256 _protocolFee ) external onlyLendingPool {\n        transferFlashLoanProtocolFeeInternal(_instrument, _protocolFee);\n\n        reserves[_instrument].updateCumulativeIndexes();                                   //compounding the cumulated interest\n        uint256 totalLiquidityBefore = _availableLiquidityBefore.add( getInstrumentTotalBorrows(_instrument) );\n        reserves[_instrument].cumulateToLiquidityIndex(totalLiquidityBefore, _income);     //compounding the received fee into the reserve\n\n        updateInstrumentInterestRatesAndTimestampInternal(_instrument, _income, 0);           //refresh interest rates\n    }\n\n// ############################################################################################################################################################################ \n// ###### CALLED BY LIQUIDATIONCALL() FROM LENDINGPOOL CONTRACT  (call is delegated to LendingPoolLiquidationManager.sol where the actual implementation is present)      #####\n// ############################################################################################################################################################################\n\n    /**\n    * @dev updates the state of the core as a consequence of a liquidation action.\n    * @param _principalInstrument the address of the principal instrument that is being repaid\n    * @param _collateralInstrument the address of the collateral instrument that is being liquidated\n    * @param _user the address of the borrower\n    * @param _amountToLiquidate the amount being repaid by the liquidator\n    * @param _collateralToLiquidate the amount of collateral being liquidated\n    * @param _feeLiquidated the amount of origination fee being liquidated\n    * @param _liquidatedCollateralForFee the amount of collateral equivalent to the origination fee + bonus\n    * @param _balanceIncrease the accrued interest on the borrowed amount\n    * @param _liquidatorReceivesIToken true if the liquidator will receive iTokens, false otherwise\n    **/\n    function updateStateOnLiquidation( address _principalInstrument, address _collateralInstrument, address _user, uint256 _amountToLiquidate, uint256 _collateralToLiquidate, uint256 _feeLiquidated, uint256 _liquidatedCollateralForFee, uint256 _balanceIncrease, bool _liquidatorReceivesIToken ) external onlyLendingPool {\n        sighMechanism.updateSIGHBorrowIndex(_principalInstrument);               // ADDED BY SIGH FINANCE (Instrument Index is updated)        \n        sighMechanism.updateSIGHSupplyIndex(_collateralInstrument);              // ADDED BY SIGH FINANCE (Instrument Index is updated)        \n\n        ITokenInterface iToken = ITokenInterface( reserves[_principalInstrument].iTokenAddress );  // ITOKEN ADDRESS\n        iToken.accure_Borrower_SIGH(_user);                        // SIGH ACCURED FOR THE USER BEFORE BORROW BALANCE IS UPDATED ( ADDED BY SIGH FINANCE )\n\n        updatePrincipalInstrumentStateOnLiquidationInternal( _principalInstrument, _user, _amountToLiquidate, _balanceIncrease );\n        updatePrincipalInstrumentStateOnLiquidationInternal(  _collateralInstrument );\n        updateUserStateOnLiquidationInternal(  _principalInstrument,  _user,  _amountToLiquidate,  _feeLiquidated,  _balanceIncrease );\n        updateInstrumentInterestRatesAndTimestampInternal(_principalInstrument, _amountToLiquidate, 0);\n\n        if (!_liquidatorReceivesIToken) {\n            updateInstrumentInterestRatesAndTimestampInternal(  _collateralInstrument,  0, _collateralToLiquidate.add(_liquidatedCollateralForFee) );\n        }\n\n    }\n\n    /**\n    * @dev updates the state of the principal instrument as a consequence of a liquidation action.\n    * @param _principalInstrument the address of the principal instrument that is being repaid\n    * @param _user the address of the borrower\n    * @param _amountToLiquidate the amount being repaid by the liquidator\n    * @param _balanceIncrease the accrued interest on the borrowed amount\n    **/\n    function updatePrincipalInstrumentStateOnLiquidationInternal( address _principalInstrument, address _user, uint256 _amountToLiquidate, uint256 _balanceIncrease ) internal {\n        CoreLibrary.InstrumentData storage instrument = reserves[_principalInstrument];\n        CoreLibrary.UserInstrumentData storage user = usersInstrumentData[_user][_principalInstrument];\n\n        instrument.updateCumulativeIndexes();      //update principal instrument data\n        CoreLibrary.InterestRateMode borrowRateMode = getUserCurrentBorrowRateMode( _principalInstrument, _user);\n\n        if (borrowRateMode == CoreLibrary.InterestRateMode.STABLE) {\n            instrument.increaseTotalBorrowsStableAndUpdateAverageRate(   _balanceIncrease, user.stableBorrowRate );        //increase the total borrows by the compounded interest\n            instrument.decreaseTotalBorrowsStableAndUpdateAverageRate(  _amountToLiquidate,  user.stableBorrowRate );      //decrease by the actual amount to liquidate\n        } \n        else {\n            instrument.increaseTotalBorrowsVariable(_balanceIncrease);     //increase the total borrows by the compounded interest\n            instrument.decreaseTotalBorrowsVariable(_amountToLiquidate);       //decrease by the actual amount to liquidate\n        }\n    }\n\n\n    /**\n    * @dev updates the state of the collateral instrument as a consequence of a liquidation action.\n    * @param _collateralInstrument the address of the collateral instrument that is being liquidated\n    **/\n    function updatePrincipalInstrumentStateOnLiquidationInternal( address _collateralInstrument ) internal {\n        reserves[_collateralInstrument].updateCumulativeIndexes();     //update collateral instrument\n    }\n\n\n    /**\n    * @dev updates the state of the user being liquidated as a consequence of a liquidation action.\n    * @param _instrument the address of the principal instrument that is being repaid\n    * @param _user the address of the borrower\n    * @param _amountToLiquidate the amount being repaid by the liquidator\n    * @param _feeLiquidated the amount of origination fee being liquidated\n    * @param _balanceIncrease the accrued interest on the borrowed amount\n    **/\n    function updateUserStateOnLiquidationInternal( address _instrument, address _user, uint256 _amountToLiquidate, uint256 _feeLiquidated, uint256 _balanceIncrease ) internal {\n        CoreLibrary.UserInstrumentData storage user = usersInstrumentData[_user][_instrument];\n        CoreLibrary.InstrumentData storage instrument = reserves[_instrument];\n        \n        user.principalBorrowBalance = user.principalBorrowBalance.add(_balanceIncrease).sub( _amountToLiquidate );  //first increase by the compounded interest, then decrease by the liquidated amount\n\n        if (  getUserCurrentBorrowRateMode(_instrument, _user) == CoreLibrary.InterestRateMode.VARIABLE ) {\n            user.lastVariableBorrowCumulativeIndex = instrument.lastVariableBorrowCumulativeIndex;\n        }\n        if(_feeLiquidated > 0){\n            user.originationFee = user.originationFee.sub(_feeLiquidated);\n        }\n        user.lastUpdateTimestamp = uint40(block.timestamp);\n    }\n\n\n\n// ################################################################################################### \n// ###### function enforces that the caller is a contract, to support flashloan transfers ############\n// ################################################################### ###############################\n\n    /**\n    * @dev fallback function enforces that the caller is a contract, to support flashloan transfers\n    **/\n    function() external payable {       //only contracts can send ETH to the core        \n        require(msg.sender.isContract(), \"Only contracts can send ether to the Lending pool core\");\n\n    }\n\n\n// #################################################################################################################################### \n// ###### CALLED BY LIQUIDATIONCALL() IN LENDINGPOOL CONTRACT (delegated to LendingPoolLiquidationManager.sol which calls) ############\n// ################################################################### ################################################################\n\n    /**\n    * @dev transfers the fees to the fees collection address in the case of liquidation\n    * @param _token the address of the token being transferred\n    * @param _amount the amount being transferred\n    * @param _destination the fee receiver address\n    **/\n    function liquidateFee( address _token, uint256 _amount, address _destination ) external payable onlyLendingPool {\n        address payable feeAddress = address(uint160(_destination)); //cast the address to payable\n        require( msg.value == 0, \"Fee liquidation does not require any transfer of value\" );\n\n        if (_token != EthAddressLib.ethAddress()) {\n            ERC20(_token).safeTransfer(feeAddress, _amount);\n        } \n        else {\n            (bool result, ) = feeAddress.call.value(_amount).gas(50000)(\"\");\n            require(result, \"Transfer of ETH failed\");\n        }\n    }\n\n// ############################################################################################################## \n// ###### CALLED BY REPAY() IN LENDINGPOOL CONTRACT : transfers the fee to SIGH Staking Contract ############\n// ################################################################### ########################################## \n\n    /**\n    * @dev transfers the protocol fees to the fees collection address\n    * @param _token the address of the token (instrument) being transferred\n    * @param _user the address of the user from where the transfer is happening\n    * @param _amount the amount being transferred\n    * @param _destination the fee receiver address\n    **/\n    function transferToFeeCollectionAddress( address _token, address _user, uint256 _amount, address _destination ) external payable onlyLendingPool {\n        address payable feeAddress = address(uint160(_destination)); //cast the address to payable\n\n        if (_token != EthAddressLib.ethAddress()) {\n            require( msg.value == 0, \"User is sending ETH along with the ERC20 transfer. Check the value attribute of the transaction\" );\n            ERC20(_token).safeTransferFrom(_user, feeAddress, _amount);\n        } \n        else {\n            require(msg.value >= _amount, \"The amount and the value sent to deposit do not match\");\n            (bool result, ) = feeAddress.call.value(_amount).gas(50000)(\"\");\n            require(result, \"Transfer of ETH failed\");\n        }\n    }\n\n\n// #################################################################\n// ################     PUBLIC VIEW FUNCTIONS       ################\n// #################################################################\n\n    /**\n    * @dev gets the underlying asset balance of a user based on the corresponding iToken balance.\n    * @param _instrument the instrument address\n    * @param _user the user address\n    * @return the underlying deposit balance of the user\n    **/\n    function getUserUnderlyingAssetBalance(address _instrument, address _user) public view returns (uint256) {\n        ITokenInterface iToken = ITokenInterface(reserves[_instrument].iTokenAddress);\n        return iToken.balanceOf(_user);\n    }\n\n    /**\n    * @dev gets the interest rate strategy contract address for the instrument\n    * @param _instrument the instrument address\n    * @return the address of the interest rate strategy contract\n    **/\n    function getInstrumentInterestRateStrategyAddress(address _instrument) public view returns (address) {\n        CoreLibrary.InstrumentData storage instrument = reserves[_instrument];\n        return instrument.interestRateStrategyAddress;\n    }\n\n    /**\n    * @dev gets the iToken contract address for the instrument\n    * @param _instrument the instrument address\n    * @return the address of the iToken contract\n    **/\n    function getInstrumentITokenAddress(address _instrument) public view returns (address) {\n        CoreLibrary.InstrumentData storage instrument = reserves[_instrument];\n        return instrument.iTokenAddress;\n    }\n\n    /**\n    * @dev gets the available liquidity in the instrument. The available liquidity is the balance of the core contract\n    * @param _instrument the Instrument address (underlying instrument address)\n    * @return the available liquidity\n    **/\n    function getInstrumentAvailableLiquidity(address _instrument) public view returns (uint256) {\n        uint256 balance = 0;\n\n        if (_instrument == EthAddressLib.ethAddress()) {\n            balance = address(this).balance;\n        } \n        else {\n            balance = IERC20(_instrument).balanceOf(address(this));\n        }\n        return balance;\n    }\n\n    /**\n    * @dev gets the total liquidity in the instrument. The total liquidity is the balance of the core contract + total borrows\n    * @param _instrument the instrument address\n    * @return the total liquidity\n    **/\n    function getInstrumentTotalLiquidity(address _instrument) public view returns (uint256) {\n        CoreLibrary.InstrumentData storage instrument = reserves[_instrument];\n        return getInstrumentAvailableLiquidity(_instrument).add(instrument.getTotalBorrows());\n    }\n\n    /**\n    * @dev gets the instrument total borrows\n    * @param _instrument the _instrument address\n    * @return the total borrows (stable + variable)\n    **/\n    function getInstrumentTotalBorrows(address _instrument) public view returns (uint256) {\n        return reserves[_instrument].getTotalBorrows();\n    }\n\n    /**\n    * @dev gets the instrument current stable borrow rate. Is the market rate if the instrument is empty\n    * @param _instrument the instrument address\n    * @return the instrument current stable borrow rate\n    **/\n    function getInstrumentCurrentStableBorrowRate(address _instrument) public view returns (uint256) {\n        CoreLibrary.InstrumentData storage instrument = reserves[_instrument];\n        ILendingRateOracle oracle = ILendingRateOracle(addressesProvider.getLendingRateOracle());\n\n        if (instrument.currentStableBorrowRate == 0) {     //no stable rate borrows yet\n            return oracle.getMarketBorrowRate(_instrument);\n        }\n\n        return instrument.currentStableBorrowRate;\n    }\n\n    /**\n    * @dev returns the utilization rate U of a specific instrument\n    * @param _instrument the instrument for which the information is needed\n    * @return the utilization rate in ray\n    **/\n    function getInstrumentUtilizationRate(address _instrument) public view returns (uint256) {\n        CoreLibrary.InstrumentData storage instrument = reserves[_instrument];\n        uint256 totalBorrows = instrument.getTotalBorrows();\n\n        if (totalBorrows == 0) {\n            return 0;\n        }\n\n        uint256 availableLiquidity = getInstrumentAvailableLiquidity(_instrument);\n        return totalBorrows.rayDiv(availableLiquidity.add(totalBorrows));\n    }\n\n    /**\n    * @dev users with no loans in progress have NONE as borrow rate mode\n    * @param _instrument the address of the _instrument for which the information is needed\n    * @param _user the address of the user for which the information is needed\n    * @return the borrow rate mode for the user,\n    **/\n    function getUserCurrentBorrowRateMode(address _instrument, address _user) public view returns (CoreLibrary.InterestRateMode) {\n        CoreLibrary.UserInstrumentData storage user = usersInstrumentData[_user][_instrument];\n\n        if (user.principalBorrowBalance == 0) {\n            return CoreLibrary.InterestRateMode.NONE;\n        }\n\n        return user.stableBorrowRate > 0  ? CoreLibrary.InterestRateMode.STABLE : CoreLibrary.InterestRateMode.VARIABLE;\n    }\n\n    /**\n    * @dev calculates and returns the borrow balances of the user\n    * @param _instrument the address of the instrument\n    * @param _user the address of the user\n    * @return the principal borrow balance, the compounded balance and the balance increase since the last borrow/repay/swap/rebalance\n    **/\n    function getUserBorrowBalances(address _instrument, address _user) public view returns (uint256, uint256, uint256) {\n        CoreLibrary.UserInstrumentData storage user = usersInstrumentData[_user][_instrument];\n        if (user.principalBorrowBalance == 0) {\n            return (0, 0, 0);\n        }\n        uint256 principal = user.principalBorrowBalance;\n        uint256 compoundedBalance = CoreLibrary.getCompoundedBorrowBalance( user,  reserves[_instrument] );\n        return (principal, compoundedBalance, compoundedBalance.sub(principal));\n    }\n\n// ###################################################################\n// ################     EXTERNAL VIEW FUNCTIONS       ################\n// ###################################################################\n\n    /**\n    * @dev returns the basic data (balances, fee accrued, instrument enabled/disabled as collateral)\n    * needed to calculate the global account data in the LendingPoolDataProvider\n    * @param _instrument the address of the instrument\n    * @param _user the address of the user\n    * @return User's Deposited Balance                         // returns IToken Balance\n    * @return User's Principal Borrow Balance                 // calculated by compound interest (stable / variable interests have different caculations)\n    * @return User's Origination Fee                         // stored value is returmed\n    * @return Instrument is enabled as collateral or not    // returns a stored boolean\n    the principal borrow balance, the fee, and if the instrument is enabled as collateral or not\n    **/\n    function getUserBasicInstrumentData(address _instrument, address _user) external view returns (uint256, uint256, uint256, bool) {\n        CoreLibrary.InstrumentData storage instrument = reserves[_instrument];\n        CoreLibrary.UserInstrumentData storage user = usersInstrumentData[_user][_instrument];\n\n        uint256 underlyingBalance = getUserUnderlyingAssetBalance(_instrument, _user);\n\n        if (user.principalBorrowBalance == 0) {\n            return (underlyingBalance, 0, 0, user.useAsCollateral);\n        }\n\n        return ( underlyingBalance, user.getCompoundedBorrowBalance(instrument), user.originationFee, user.useAsCollateral );\n    }\n\n    /**\n    * @dev checks if a user is allowed to borrow at a stable rate\n    * @param _instrument the instrument address (underlying)\n    * @param _user the user\n    * @param _amount the amount the the user wants to borrow\n    * @return true if the user is allowed to borrow at a stable rate, false otherwise\n    **/\n    function isUserAllowedToBorrowAtStable(address _instrument, address _user, uint256 _amount) external view returns (bool) {\n        CoreLibrary.InstrumentData storage instrument = reserves[_instrument];\n        CoreLibrary.UserInstrumentData storage user = usersInstrumentData[_user][_instrument];\n\n        if (!instrument.isStableBorrowRateEnabled) \n            return false;\n\n        return !user.useAsCollateral || !instrument.usageAsCollateralEnabled || _amount > getUserUnderlyingAssetBalance(_instrument, _user) ;\n    }\n\n    /**\n    * @dev gets the normalized income of the instrument. a value of 1e27 means there is no income. A value of 2e27 means there\n    * there has been 100% income.\n    * @param _instrument the instrument address (the underlying address)\n    * @return the instrument normalized income\n    **/\n    function getInstrumentNormalizedIncome(address _instrument) external view returns (uint256) {\n        CoreLibrary.InstrumentData storage instrument = reserves[_instrument];\n        return instrument.getNormalizedIncome();\n    }\n\n    /**\n    * @dev gets the instrument total borrows stable\n    * @param _instrument the instrument address\n    * @return the total borrows stable\n    **/\n    function getInstrumentTotalBorrowsStable(address _instrument) external view returns (uint256) {\n        CoreLibrary.InstrumentData storage instrument = reserves[_instrument];\n        return instrument.totalBorrowsStable;\n    }\n\n    /**\n    * @dev gets the instrument total borrows variable\n    * @param _instrument the instrument address\n    * @return the total borrows variable\n    **/\n    function getInstrumentTotalBorrowsVariable(address _instrument) external view returns (uint256) {\n        CoreLibrary.InstrumentData storage instrument = reserves[_instrument];\n        return instrument.totalBorrowsVariable;\n    }\n\n    /**\n    * @dev gets the instrument liquidation threshold\n    * @param _instrument the instrument address\n    * @return the instrument liquidation threshold\n    **/\n    function getInstrumentLiquidationThreshold(address _instrument) external view returns (uint256) {\n        CoreLibrary.InstrumentData storage instrument = reserves[_instrument];\n        return instrument.liquidationThreshold;\n    }\n\n    /**\n    * @dev gets the instrument liquidation bonus\n    * @param _instrument the instrument address\n    * @return the instrument liquidation bonus\n    **/\n    function getInstrumentLiquidationBonus(address _instrument) external view returns (uint256) {\n        CoreLibrary.InstrumentData storage instrument = reserves[_instrument];\n        return instrument.liquidationBonus;\n    }\n\n    /**\n    * @dev gets the instrument's current variable borrow rate. Is the base variable borrow rate if the reserve is empty\n    * @param _instrument the instrument address\n    * @return the instrument current variable borrow rate\n    **/\n    function getInstrumentCurrentVariableBorrowRate(address _instrument) external view returns (uint256) {\n        CoreLibrary.InstrumentData storage instrument = reserves[_instrument];\n\n        if (instrument.currentVariableBorrowRate == 0) {\n            return I_InstrumentInterestRateStrategy(instrument.interestRateStrategyAddress).getBaseVariableBorrowRate();\n        }\n        return instrument.currentVariableBorrowRate;\n    }\n\n    /**\n    * @dev gets the _instrument average stable borrow rate. The average stable rate is the weighted average\n    * of all the loans taken at stable rate.\n    * @param _instrument the _instrument address\n    * @return the _instrument current average borrow rate\n    **/\n    function getInstrumentCurrentAverageStableBorrowRate(address _instrument) external view returns (uint256) {\n        CoreLibrary.InstrumentData storage instrument = reserves[_instrument];\n        return instrument.currentAverageStableBorrowRate;\n    }\n\n    /**\n    * @dev gets the _instrument liquidity rate\n    * @param _instrument the _instrument address\n    * @return the _instrument liquidity rate\n    **/\n    function getInstrumentCurrentLiquidityRate(address _instrument) external view returns (uint256) {\n        CoreLibrary.InstrumentData storage instrument = reserves[_instrument];\n        return instrument.currentLiquidityRate;\n    }\n\n    /**\n    * @dev gets the _instrument liquidity cumulative index\n    * @param _instrument the _instrument address\n    * @return the _instrument liquidity cumulative index\n    **/\n    function getInstrumentLiquidityCumulativeIndex(address _instrument) external view returns (uint256) {\n        CoreLibrary.InstrumentData storage instrument = reserves[_instrument];\n        return instrument.lastLiquidityCumulativeIndex;\n    }\n\n    /**\n    * @dev gets the _instrument variable borrow index\n    * @param _instrument the _instrument address\n    * @return the _instrument variable borrow index\n    **/\n    function getInstrumentVariableBorrowsCumulativeIndex(address _instrument) external view returns (uint256) {\n        CoreLibrary.InstrumentData storage instrument = reserves[_instrument];\n        return instrument.lastVariableBorrowCumulativeIndex;\n    }\n\n    /**\n    * @dev this function aggregates the configuration parameters of the instrument. It's used in the LendingPoolDataProvider specifically to save gas, and avoid multiple external contract calls to fetch the same data.\n    * @param _instrument the _instrument address\n    * @return Instrument's Decimals\n    * @return Base LTV (Loan To Volume) as Collateral\n    * @return Liquidation Threshold\n    * @return Instrument Used as Collateral or not\n    **/\n    function getInstrumentConfiguration(address _instrument) external  view returns (uint256, uint256, uint256, bool) {\n        uint256 decimals;\n        uint256 baseLTVasCollateral;\n        uint256 liquidationThreshold;\n        bool usageAsCollateralEnabled;\n\n        CoreLibrary.InstrumentData storage instrument = reserves[_instrument];\n        decimals = instrument.decimals;\n        baseLTVasCollateral = instrument.baseLTVasCollateral;\n        liquidationThreshold = instrument.liquidationThreshold;\n        usageAsCollateralEnabled = instrument.usageAsCollateralEnabled;\n\n        return (decimals, baseLTVasCollateral, liquidationThreshold, usageAsCollateralEnabled);\n    }\n\n    /**\n    * @dev returns the decimals of the _instrument\n    * @param _instrument the _instrument address\n    * @return the _instrument decimals\n    **/\n    function getInstrumentDecimals(address _instrument) external view returns (uint256) {\n        return reserves[_instrument].decimals;\n    }\n\n    /**\n    * @dev returns true if the instrument is enabled for borrowing\n    * @param _instrument the instrument address\n    * @return true if the instrument is enabled for borrowing, false otherwise\n    **/\n\n    function isInstrumentBorrowingEnabled(address _instrument) external view returns (bool) {\n        CoreLibrary.InstrumentData storage instrument = reserves[_instrument];\n        return instrument.borrowingEnabled;\n    }\n\n    /**\n    * @dev returns true if the _instrument is enabled as collateral\n    * @param _instrument the _instrument address\n    * @return true if the _instrument is enabled as collateral, false otherwise\n    **/\n\n    function isInstrumentUsageAsCollateralEnabled(address _instrument) external view returns (bool) {\n        CoreLibrary.InstrumentData storage instrument = reserves[_instrument];\n        return instrument.usageAsCollateralEnabled;\n    }\n\n    /**\n    * @dev returns true if the stable rate is enabled on _instrument\n    * @param _instrument the _instrument address\n    * @return true if the stable rate is enabled on _instrument, false otherwise\n    **/\n    function getInstrumentIsStableBorrowRateEnabled(address _instrument) external view returns (bool) {\n        CoreLibrary.InstrumentData storage instrument = reserves[_instrument];\n        return instrument.isStableBorrowRateEnabled;\n    }\n\n    /**\n    * @dev returns true if the _instrument is active\n    * @param _instrument the _instrument address\n    * @return true if the _instrument is active, false otherwise\n    **/\n    function getInstrumentIsActive(address _instrument) external view returns (bool) {\n        CoreLibrary.InstrumentData storage instrument = reserves[_instrument];\n        return instrument.isActive;\n    }\n\n    /**\n    * @notice returns if a _instrument is freezed\n    * @param _instrument the _instrument for which the information is needed\n    * @return true if the _instrument is freezed, false otherwise\n    **/\n    function getInstrumentIsFreezed(address _instrument) external view returns (bool) {\n        CoreLibrary.InstrumentData storage instrument = reserves[_instrument];\n        return instrument.isFreezed;\n    }\n\n    /**\n    * @notice returns the timestamp of the last action on the _instrument\n    * @param _instrument the _instrument for which the information is needed\n    * @return the last updated timestamp of the _instrument\n    **/\n    function getInstrumentLastUpdate(address _instrument) external view returns (uint40 timestamp) {\n        CoreLibrary.InstrumentData storage instrument = reserves[_instrument];\n        timestamp = instrument.lastUpdateTimestamp;\n    }\n\n    /**\n    * @return the array of instruments configured on the core\n    **/\n    function getInstruments() external view returns (address[] memory) {\n        return instrumentsList;\n    }\n\n    /**\n    * @param _instrument the address of the _instrument for which the information is needed\n    * @param _user the address of the user for which the information is needed\n    * @return true if the user has chosen to use the _instrument as collateral, false otherwise\n    **/\n    function isUserUseInstrumentAsCollateralEnabled(address _instrument, address _user) external view returns (bool) {\n        CoreLibrary.UserInstrumentData storage user = usersInstrumentData[_user][_instrument];\n        return user.useAsCollateral;\n    }\n\n    /**\n    * @param _instrument the address of the instrument for which the information is needed\n    * @param _user the address of the user for which the information is needed\n    * @return the origination fee for the user\n    **/\n    function getUserOriginationFee(address _instrument, address _user) external view returns (uint256) {\n        CoreLibrary.UserInstrumentData storage user = usersInstrumentData[_user][_instrument];\n        return user.originationFee;\n    }\n\n    /**\n    * @dev the stable rate returned is 0 if the user is borrowing at variable or not borrowing at all\n    * @param _instrument the address of the _instrument for which the information is needed\n    * @param _user the address of the user for which the information is needed\n    * @return the user stable rate\n    **/\n    function getUserCurrentStableBorrowRate(address _instrument, address _user) external  view returns (uint256) {\n        CoreLibrary.UserInstrumentData storage user = usersInstrumentData[_user][_instrument];\n        return user.stableBorrowRate;\n    }\n\n    /**\n    * @dev the variable borrow index of the user is 0 if the user is not borrowing or borrowing at stable\n    * @param _instrument the address of the _instrument for which the information is needed\n    * @param _user the address of the user for which the information is needed\n    * @return the variable borrow index for the user\n    **/\n    function getUserVariableBorrowCumulativeIndex(address _instrument, address _user)  external view returns (uint256) {\n        CoreLibrary.UserInstrumentData storage user = usersInstrumentData[_user][_instrument];\n        return user.lastVariableBorrowCumulativeIndex;\n    }\n\n    // /**\n    // * @dev the variable borrow index of the user is 0 if the user is not borrowing or borrowing at stable\n    // * @param _instrument the address of the _instrument for which the information is needed\n    // * @param _user the address of the user for which the information is needed\n    // * @return the variable borrow index for the user\n    // **/\n    // function getUserLastUpdate(address _instrument, address _user) external view returns (uint256 timestamp) {\n    //     CoreLibrary.UserInstrumentData storage user = usersInstrumentData[_user][_instrument];\n    //     timestamp = user.lastUpdateTimestamp;\n    // }\n\n// ###################################################################\n// ################     INTERNAL VIEW FUNCTIONS       ################\n// ###################################################################\n\n    /**\n    * @dev gets the current borrow rate of the user\n    * @param _instrument the address of the _instrument for which the information is needed\n    * @param _user the address of the user for which the information is needed\n    * @return the borrow rate for the user,\n    **/\n    function getUserCurrentBorrowRate(address _instrument, address _user) internal view returns (uint256) {\n        CoreLibrary.InterestRateMode rateMode = getUserCurrentBorrowRateMode(_instrument, _user);\n\n        if (rateMode == CoreLibrary.InterestRateMode.NONE) {\n            return 0;\n        }\n\n        return rateMode == CoreLibrary.InterestRateMode.STABLE ? usersInstrumentData[_user][_instrument].stableBorrowRate: reserves[_instrument].currentVariableBorrowRate;\n    }\n\n\n// ##############################################################################################\n// ################     FUNCTION CALLS BY LENDINGPOOLCONFIGURATOR CONTRACT       ################\n// ##############################################################################################\n\n\n    /**\n    * @dev updates the lending pool core configuration\n    **/\n    function refreshConfiguration() external onlyLendingPoolConfigurator {\n        refreshConfigInternal();\n    }\n\n    // updates the internal configuration of the core (lendingPool Address and SIGH Mechanism Address)\n    function refreshConfigInternal() internal {\n        lendingPoolAddress = addressesProvider.getLendingPool();\n        sighMechanism = ISighDistributionHandler( addressesProvider.getSIGHMechanismHandler()  );        // ADDED BY SIGH FINANCE\n    }    \n\n    // ###########      ADDING & INITITALIZING A NEW INSTRUMENT      ###########\n\n    /**\n    * @dev initializes a instrument\n    * @param _instrument the address of the instrument\n    * @param _iTokenAddress the address of the overlying iToken contract\n    * @param _decimals the decimals of the instrument currency\n    * @param _interestRateStrategyAddress the address of the interest rate strategy contract\n    **/\n    function initInstrument( address _instrument, address _iTokenAddress,  uint256 _decimals, address _interestRateStrategyAddress ) external onlyLendingPoolConfigurator {\n        reserves[_instrument].init(_iTokenAddress, _decimals, _interestRateStrategyAddress);\n        addInstrumentToListInternal(_instrument);\n        // ADDED BY SIGH FINANCE\n        require ( sighMechanism.addInstrument( _instrument, _iTokenAddress, _decimals ), \"Instrument failed to be properly added to the list of Instruments supported by SIGH Finance\" ); // ADDED BY SIGH FINANCE\n    }\n\n    // adds a instrument to the array of the instruments address\n    function addInstrumentToListInternal(address _instrument) internal {\n        bool _instrumentAlreadyAdded = false;\n        for (uint256 i = 0; i < instrumentsList.length; i++)\n            if (instrumentsList[i] == _instrument) {\n                _instrumentAlreadyAdded = true;\n            }\n        if (!_instrumentAlreadyAdded) \n            instrumentsList.push(_instrument);\n    }\n\n    /**\n    * @dev removes the last added instrument in the instrumentsList array\n    * @param _instrumentToRemove the address of the instrument\n    **/\n    function removeLastAddedInstrument(address _instrumentToRemove) external onlyLendingPoolConfigurator {\n\n        address lastInstrument = instrumentsList[instrumentsList.length-1];\n        require(lastInstrument == _instrumentToRemove, \"Instrument being removed is different than the Instrument requested\");\n        //as we can't check if totalLiquidity is 0 (since the instrument added might not be an ERC20) we at least check that there is nothing borrowed\n        require(getInstrumentTotalBorrows(lastInstrument) == 0, \"Cannot remove an Instrument with liquidity deposited\");\n\n        reserves[lastInstrument].isActive = false;\n        reserves[lastInstrument].iTokenAddress = address(0);\n        reserves[lastInstrument].decimals = 0;\n        reserves[lastInstrument].lastLiquidityCumulativeIndex = 0;\n        reserves[lastInstrument].lastVariableBorrowCumulativeIndex = 0;\n        reserves[lastInstrument].borrowingEnabled = false;\n        reserves[lastInstrument].usageAsCollateralEnabled = false;\n        reserves[lastInstrument].baseLTVasCollateral = 0;\n        reserves[lastInstrument].liquidationThreshold = 0;\n        reserves[lastInstrument].liquidationBonus = 0;\n        reserves[lastInstrument].interestRateStrategyAddress = address(0);\n\n        instrumentsList.pop();\n    }\n\n    /**\n    * @dev updates the address of the interest rate strategy contract\n    * @param _instrument the address of the Instrument\n    * @param _rateStrategyAddress the address of the interest rate strategy contract\n    **/\n    function setInstrumentInterestRateStrategyAddress(address _instrument, address _rateStrategyAddress) external onlyLendingPoolConfigurator {\n        reserves[_instrument].interestRateStrategyAddress = _rateStrategyAddress;\n    }\n\n    /**\n    * @dev enables borrowing on a instrument. Also sets the stable rate borrowing\n    * @param _instrument the address of the instrument\n    * @param _stableBorrowRateEnabled true if the stable rate needs to be enabled, false otherwise\n    **/\n    function enableBorrowingOnInstrument(address _instrument, bool _stableBorrowRateEnabled)  external onlyLendingPoolConfigurator {\n        reserves[_instrument].enableBorrowing(_stableBorrowRateEnabled);\n    }\n\n    /**\n    * @dev disables borrowing on a instrument\n    * @param _instrument the address of the instrument\n    **/\n    function disableBorrowingOnInstrument(address _instrument) external onlyLendingPoolConfigurator {\n        reserves[_instrument].disableBorrowing();\n    }\n\n    /**\n    * @dev enables a instrument to be used as collateral\n    * @param _instrument the address of the instrument\n    **/\n    function enableInstrumentAsCollateral( address _instrument, uint256 _baseLTVasCollateral, uint256 _liquidationThreshold, uint256 _liquidationBonus ) external onlyLendingPoolConfigurator {\n        reserves[_instrument].enableAsCollateral( _baseLTVasCollateral, _liquidationThreshold, _liquidationBonus);\n    }\n\n    /**\n    * @dev disables a instrument to be used as collateral\n    * @param _instrument the address of the instrument\n    **/\n    function disableInstrumentAsCollateral(address _instrument) external onlyLendingPoolConfigurator {\n        reserves[_instrument].disableAsCollateral();\n    }\n\n    /**\n    * @dev enable the stable borrow rate mode on a instrument\n    * @param _instrument the address of the instrument\n    **/\n    function enableInstrumentStableBorrowRate(address _instrument) external onlyLendingPoolConfigurator {\n        CoreLibrary.InstrumentData storage instrument = reserves[_instrument];\n        instrument.isStableBorrowRateEnabled = true;\n    }\n\n    /**\n    * @dev disable the stable borrow rate mode on a instrument\n    * @param _instrument the address of the instrument\n    **/\n    function disableInstrumentStableBorrowRate(address _instrument) external onlyLendingPoolConfigurator {\n        CoreLibrary.InstrumentData storage instrument = reserves[_instrument];\n        instrument.isStableBorrowRateEnabled = false;\n    }\n\n    /**\n    * @dev activates an instrument\n    * @param _instrument the address of the instrument\n    **/\n    function activateInstrument(address _instrument) external onlyLendingPoolConfigurator {\n        CoreLibrary.InstrumentData storage instrument = reserves[_instrument];\n        require(  instrument.lastLiquidityCumulativeIndex > 0 &&  instrument.lastVariableBorrowCumulativeIndex > 0, \"Instrument has not been initialized yet\");\n        instrument.isActive = true;\n    }\n\n    /**\n    * @dev deactivates a instrument\n    * @param _instrument the address of the instrument\n    **/\n    function deactivateInstrument(address _instrument) external onlyLendingPoolConfigurator {\n        CoreLibrary.InstrumentData storage instrument = reserves[_instrument];\n        instrument.isActive = false;\n    }\n\n    /**\n    * @notice allows the configurator to freeze the instrument.\n    * A freezed instrument does not allow any action apart from repay, redeem, liquidationCall, rebalance.\n    * @param _instrument the address of the instrument\n    **/\n    function freezeInstrument(address _instrument) external onlyLendingPoolConfigurator {\n        CoreLibrary.InstrumentData storage instrument = reserves[_instrument];\n        instrument.isFreezed = true;\n    }\n\n    /**\n    * @notice allows the configurator to unfreeze the instrument. A unfreezed Instrument allows any action to be executed.\n    * @param _instrument the address of the instrument\n    **/\n    function unfreezeInstrument(address _instrument) external onlyLendingPoolConfigurator {\n        CoreLibrary.InstrumentData storage instrument = reserves[_instrument];\n        instrument.isFreezed = false;\n    }\n\n    /**\n    * @notice allows the configurator to update the loan to value of a instrument\n    * @param _instrument the address of the instrument\n    * @param _ltv the new loan to value\n    **/\n    function setInstrumentBaseLTVasCollateral(address _instrument, uint256 _ltv) external onlyLendingPoolConfigurator {\n        CoreLibrary.InstrumentData storage instrument = reserves[_instrument];\n        instrument.baseLTVasCollateral = _ltv;\n    }\n\n    /**\n    * @notice allows the configurator to update the liquidation threshold of a instrument\n    * @param _instrument the address of the instrument\n    * @param _threshold the new liquidation threshold\n    **/\n    function setInstrumentLiquidationThreshold(address _instrument, uint256 _threshold) external onlyLendingPoolConfigurator {\n        CoreLibrary.InstrumentData storage instrument = reserves[_instrument];\n        instrument.liquidationThreshold = _threshold;\n    }\n\n    /**\n    * @notice allows the configurator to update the liquidation bonus of a instrument\n    * @param _instrument the address of the instrument\n    * @param _bonus the new liquidation bonus\n    **/\n    function setInstrumentLiquidationBonus(address _instrument, uint256 _bonus) external  onlyLendingPoolConfigurator {\n        CoreLibrary.InstrumentData storage instrument = reserves[_instrument];\n        instrument.liquidationBonus = _bonus;\n    }\n\n    /**\n    * @notice allows the configurator to update the instrument decimals\n    * @param _instrument the address of the instrument\n    * @param _decimals the decimals of the instrument\n    **/\n    function setInstrumentDecimals(address _instrument, uint256 _decimals) external onlyLendingPoolConfigurator {\n        CoreLibrary.InstrumentData storage instrument = reserves[_instrument];\n        instrument.decimals = _decimals;\n    }\n\n// ##########################################################################\n// ################    FREQUENTLY USED INTERNAL FUNCTIONS    ################\n// ##########################################################################\n\n    /**\n    * @dev Updates the instrument's current stable borrow rate Rf, the current variable borrow rate Rv and the current liquidity rate Rl.\n    * Also updates the lastUpdateTimestamp value. Please refer to the whitepaper for further information.\n    * @param _instrument the address of the instrument to be updated\n    * @param _liquidityAdded the amount of liquidity added to the protocol (deposit or repay) in the previous action\n    * @param _liquidityTaken the amount of liquidity taken from the protocol (redeem or borrow)\n    **/\n    function updateInstrumentInterestRatesAndTimestampInternal( address _instrument, uint256 _liquidityAdded, uint256 _liquidityTaken ) internal {\n        CoreLibrary.InstrumentData storage instrument = reserves[_instrument];\n        (uint256 newLiquidityRate, uint256 newStableRate, uint256 newVariableRate) = I_InstrumentInterestRateStrategy(instrument.interestRateStrategyAddress).calculateInterestRates( _instrument, getInstrumentAvailableLiquidity(_instrument).add(_liquidityAdded).sub(_liquidityTaken),    instrument.totalBorrowsStable, instrument.totalBorrowsVariable, instrument.currentAverageStableBorrowRate   );\n\n        instrument.currentLiquidityRate = newLiquidityRate;\n        instrument.currentStableBorrowRate = newStableRate;\n        instrument.currentVariableBorrowRate = newVariableRate;\n        instrument.lastUpdateTimestamp = uint40(block.timestamp);\n\n        emit InstrumentUpdated(  _instrument,  newLiquidityRate,  newStableRate,  newVariableRate,  instrument.lastLiquidityCumulativeIndex,  instrument.lastVariableBorrowCumulativeIndex );\n    }\n\n    /**\n    * @dev transfers to the protocol fees of a flashloan to the fees collection address\n    * @param _token the address of the token being transferred\n    * @param _amount the amount being transferred\n    **/\n    function transferFlashLoanProtocolFeeInternal(address _token, uint256 _amount) internal {\n        address payable receiver = address(uint160(addressesProvider.getSIGHStaking()));\n\n        if (_token != EthAddressLib.ethAddress()) {\n            ERC20(_token).safeTransfer(receiver, _amount);\n        } else {\n            receiver.transfer(_amount);\n        }\n    }\n}\n",
  "sourcePath": "/Users/apple/Desktop/GITCOIN/Sigh_Finance/SighFinanceContracts/contracts/LendingProtocolContracts/lendingpool/LendingPoolCore.sol",
  "compiler": {
    "name": "solc",
    "version": "0.5.16+commit.9c3226ce.Emscripten.clang"
  },
  "schemaVersion": "3.2.4",
  "updatedAt": "2020-11-14T07:26:43.180Z",
  "devdoc": {
    "author": "Aave, SIGH Finance",
    "details": "NOTE: The core does not enforce security checks on the update of the state (eg, updateStateOnBorrow() does not enforce that borrowed is enabled on the Instrument). The check that an action can be performed is a duty of the overlying LendingPool contract.*",
    "methods": {
      "activateInstrument(address)": {
        "details": "activates an instrument",
        "params": {
          "_instrument": "the address of the instrument*"
        }
      },
      "deactivateInstrument(address)": {
        "details": "deactivates a instrument",
        "params": {
          "_instrument": "the address of the instrument*"
        }
      },
      "disableBorrowingOnInstrument(address)": {
        "details": "disables borrowing on a instrument",
        "params": {
          "_instrument": "the address of the instrument*"
        }
      },
      "disableInstrumentAsCollateral(address)": {
        "details": "disables a instrument to be used as collateral",
        "params": {
          "_instrument": "the address of the instrument*"
        }
      },
      "disableInstrumentStableBorrowRate(address)": {
        "details": "disable the stable borrow rate mode on a instrument",
        "params": {
          "_instrument": "the address of the instrument*"
        }
      },
      "enableBorrowingOnInstrument(address,bool)": {
        "details": "enables borrowing on a instrument. Also sets the stable rate borrowing",
        "params": {
          "_instrument": "the address of the instrument",
          "_stableBorrowRateEnabled": "true if the stable rate needs to be enabled, false otherwise*"
        }
      },
      "enableInstrumentAsCollateral(address,uint256,uint256,uint256)": {
        "details": "enables a instrument to be used as collateral",
        "params": {
          "_instrument": "the address of the instrument*"
        }
      },
      "enableInstrumentStableBorrowRate(address)": {
        "details": "enable the stable borrow rate mode on a instrument",
        "params": {
          "_instrument": "the address of the instrument*"
        }
      },
      "freezeInstrument(address)": {
        "params": {
          "_instrument": "the address of the instrument*"
        }
      },
      "getInstrumentAvailableLiquidity(address)": {
        "details": "gets the available liquidity in the instrument. The available liquidity is the balance of the core contract",
        "params": {
          "_instrument": "the Instrument address (underlying instrument address)"
        },
        "return": "the available liquidity*"
      },
      "getInstrumentConfiguration(address)": {
        "details": "this function aggregates the configuration parameters of the instrument. It's used in the LendingPoolDataProvider specifically to save gas, and avoid multiple external contract calls to fetch the same data.",
        "params": {
          "_instrument": "the _instrument address"
        },
        "return": "Instrument's DecimalsBase LTV (Loan To Volume) as CollateralLiquidation ThresholdInstrument Used as Collateral or not*"
      },
      "getInstrumentCurrentAverageStableBorrowRate(address)": {
        "details": "gets the _instrument average stable borrow rate. The average stable rate is the weighted average of all the loans taken at stable rate.",
        "params": {
          "_instrument": "the _instrument address"
        },
        "return": "the _instrument current average borrow rate*"
      },
      "getInstrumentCurrentLiquidityRate(address)": {
        "details": "gets the _instrument liquidity rate",
        "params": {
          "_instrument": "the _instrument address"
        },
        "return": "the _instrument liquidity rate*"
      },
      "getInstrumentCurrentStableBorrowRate(address)": {
        "details": "gets the instrument current stable borrow rate. Is the market rate if the instrument is empty",
        "params": {
          "_instrument": "the instrument address"
        },
        "return": "the instrument current stable borrow rate*"
      },
      "getInstrumentCurrentVariableBorrowRate(address)": {
        "details": "gets the instrument's current variable borrow rate. Is the base variable borrow rate if the reserve is empty",
        "params": {
          "_instrument": "the instrument address"
        },
        "return": "the instrument current variable borrow rate*"
      },
      "getInstrumentDecimals(address)": {
        "details": "returns the decimals of the _instrument",
        "params": {
          "_instrument": "the _instrument address"
        },
        "return": "the _instrument decimals*"
      },
      "getInstrumentITokenAddress(address)": {
        "details": "gets the iToken contract address for the instrument",
        "params": {
          "_instrument": "the instrument address"
        },
        "return": "the address of the iToken contract*"
      },
      "getInstrumentInterestRateStrategyAddress(address)": {
        "details": "gets the interest rate strategy contract address for the instrument",
        "params": {
          "_instrument": "the instrument address"
        },
        "return": "the address of the interest rate strategy contract*"
      },
      "getInstrumentIsActive(address)": {
        "details": "returns true if the _instrument is active",
        "params": {
          "_instrument": "the _instrument address"
        },
        "return": "true if the _instrument is active, false otherwise*"
      },
      "getInstrumentIsFreezed(address)": {
        "params": {
          "_instrument": "the _instrument for which the information is needed"
        },
        "return": "true if the _instrument is freezed, false otherwise*"
      },
      "getInstrumentIsStableBorrowRateEnabled(address)": {
        "details": "returns true if the stable rate is enabled on _instrument",
        "params": {
          "_instrument": "the _instrument address"
        },
        "return": "true if the stable rate is enabled on _instrument, false otherwise*"
      },
      "getInstrumentLastUpdate(address)": {
        "params": {
          "_instrument": "the _instrument for which the information is needed"
        },
        "return": "the last updated timestamp of the _instrument*"
      },
      "getInstrumentLiquidationBonus(address)": {
        "details": "gets the instrument liquidation bonus",
        "params": {
          "_instrument": "the instrument address"
        },
        "return": "the instrument liquidation bonus*"
      },
      "getInstrumentLiquidationThreshold(address)": {
        "details": "gets the instrument liquidation threshold",
        "params": {
          "_instrument": "the instrument address"
        },
        "return": "the instrument liquidation threshold*"
      },
      "getInstrumentLiquidityCumulativeIndex(address)": {
        "details": "gets the _instrument liquidity cumulative index",
        "params": {
          "_instrument": "the _instrument address"
        },
        "return": "the _instrument liquidity cumulative index*"
      },
      "getInstrumentNormalizedIncome(address)": {
        "details": "gets the normalized income of the instrument. a value of 1e27 means there is no income. A value of 2e27 means there there has been 100% income.",
        "params": {
          "_instrument": "the instrument address (the underlying address)"
        },
        "return": "the instrument normalized income*"
      },
      "getInstrumentTotalBorrows(address)": {
        "details": "gets the instrument total borrows",
        "params": {
          "_instrument": "the _instrument address"
        },
        "return": "the total borrows (stable + variable)*"
      },
      "getInstrumentTotalBorrowsStable(address)": {
        "details": "gets the instrument total borrows stable",
        "params": {
          "_instrument": "the instrument address"
        },
        "return": "the total borrows stable*"
      },
      "getInstrumentTotalBorrowsVariable(address)": {
        "details": "gets the instrument total borrows variable",
        "params": {
          "_instrument": "the instrument address"
        },
        "return": "the total borrows variable*"
      },
      "getInstrumentTotalLiquidity(address)": {
        "details": "gets the total liquidity in the instrument. The total liquidity is the balance of the core contract + total borrows",
        "params": {
          "_instrument": "the instrument address"
        },
        "return": "the total liquidity*"
      },
      "getInstrumentUtilizationRate(address)": {
        "details": "returns the utilization rate U of a specific instrument",
        "params": {
          "_instrument": "the instrument for which the information is needed"
        },
        "return": "the utilization rate in ray*"
      },
      "getInstrumentVariableBorrowsCumulativeIndex(address)": {
        "details": "gets the _instrument variable borrow index",
        "params": {
          "_instrument": "the _instrument address"
        },
        "return": "the _instrument variable borrow index*"
      },
      "getInstruments()": {
        "return": "the array of instruments configured on the core*"
      },
      "getUserBasicInstrumentData(address,address)": {
        "details": "returns the basic data (balances, fee accrued, instrument enabled/disabled as collateral) needed to calculate the global account data in the LendingPoolDataProvider",
        "params": {
          "_instrument": "the address of the instrument",
          "_user": "the address of the user"
        },
        "return": "User's Deposited Balance                         // returns IToken BalanceUser's Principal Borrow Balance                 // calculated by compound interest (stable / variable interests have different caculations)User's Origination Fee                         // stored value is returmedInstrument is enabled as collateral or not    // returns a stored boolean the principal borrow balance, the fee, and if the instrument is enabled as collateral or not*"
      },
      "getUserBorrowBalances(address,address)": {
        "details": "calculates and returns the borrow balances of the user",
        "params": {
          "_instrument": "the address of the instrument",
          "_user": "the address of the user"
        },
        "return": "the principal borrow balance, the compounded balance and the balance increase since the last borrow/repay/swap/rebalance*"
      },
      "getUserCurrentBorrowRateMode(address,address)": {
        "details": "users with no loans in progress have NONE as borrow rate mode",
        "params": {
          "_instrument": "the address of the _instrument for which the information is needed",
          "_user": "the address of the user for which the information is needed"
        },
        "return": "the borrow rate mode for the user,*"
      },
      "getUserCurrentStableBorrowRate(address,address)": {
        "details": "the stable rate returned is 0 if the user is borrowing at variable or not borrowing at all",
        "params": {
          "_instrument": "the address of the _instrument for which the information is needed",
          "_user": "the address of the user for which the information is needed"
        },
        "return": "the user stable rate*"
      },
      "getUserOriginationFee(address,address)": {
        "params": {
          "_instrument": "the address of the instrument for which the information is needed",
          "_user": "the address of the user for which the information is needed"
        },
        "return": "the origination fee for the user*"
      },
      "getUserUnderlyingAssetBalance(address,address)": {
        "details": "gets the underlying asset balance of a user based on the corresponding iToken balance.",
        "params": {
          "_instrument": "the instrument address",
          "_user": "the user address"
        },
        "return": "the underlying deposit balance of the user*"
      },
      "getUserVariableBorrowCumulativeIndex(address,address)": {
        "details": "the variable borrow index of the user is 0 if the user is not borrowing or borrowing at stable",
        "params": {
          "_instrument": "the address of the _instrument for which the information is needed",
          "_user": "the address of the user for which the information is needed"
        },
        "return": "the variable borrow index for the user*"
      },
      "initInstrument(address,address,uint256,address)": {
        "details": "initializes a instrument",
        "params": {
          "_decimals": "the decimals of the instrument currency",
          "_iTokenAddress": "the address of the overlying iToken contract",
          "_instrument": "the address of the instrument",
          "_interestRateStrategyAddress": "the address of the interest rate strategy contract*"
        }
      },
      "initialize(address)": {
        "details": "initializes the Core contract, invoked upon registration on the AddressesProvider",
        "params": {
          "_addressesProvider": "the addressesProvider contract*"
        }
      },
      "isInstrumentBorrowingEnabled(address)": {
        "details": "returns true if the instrument is enabled for borrowing",
        "params": {
          "_instrument": "the instrument address"
        },
        "return": "true if the instrument is enabled for borrowing, false otherwise*"
      },
      "isInstrumentUsageAsCollateralEnabled(address)": {
        "details": "returns true if the _instrument is enabled as collateral",
        "params": {
          "_instrument": "the _instrument address"
        },
        "return": "true if the _instrument is enabled as collateral, false otherwise*"
      },
      "isUserAllowedToBorrowAtStable(address,address,uint256)": {
        "details": "checks if a user is allowed to borrow at a stable rate",
        "params": {
          "_amount": "the amount the the user wants to borrow",
          "_instrument": "the instrument address (underlying)",
          "_user": "the user"
        },
        "return": "true if the user is allowed to borrow at a stable rate, false otherwise*"
      },
      "isUserUseInstrumentAsCollateralEnabled(address,address)": {
        "params": {
          "_instrument": "the address of the _instrument for which the information is needed",
          "_user": "the address of the user for which the information is needed"
        },
        "return": "true if the user has chosen to use the _instrument as collateral, false otherwise*"
      },
      "liquidateFee(address,uint256,address)": {
        "details": "transfers the fees to the fees collection address in the case of liquidation",
        "params": {
          "_amount": "the amount being transferred",
          "_destination": "the fee receiver address*",
          "_token": "the address of the token being transferred"
        }
      },
      "refreshConfiguration()": {
        "details": "updates the lending pool core configuration*"
      },
      "removeLastAddedInstrument(address)": {
        "details": "removes the last added instrument in the instrumentsList array",
        "params": {
          "_instrumentToRemove": "the address of the instrument*"
        }
      },
      "setInstrumentBaseLTVasCollateral(address,uint256)": {
        "params": {
          "_instrument": "the address of the instrument",
          "_ltv": "the new loan to value*"
        }
      },
      "setInstrumentDecimals(address,uint256)": {
        "params": {
          "_decimals": "the decimals of the instrument*",
          "_instrument": "the address of the instrument"
        }
      },
      "setInstrumentInterestRateStrategyAddress(address,address)": {
        "details": "updates the address of the interest rate strategy contract",
        "params": {
          "_instrument": "the address of the Instrument",
          "_rateStrategyAddress": "the address of the interest rate strategy contract*"
        }
      },
      "setInstrumentLiquidationBonus(address,uint256)": {
        "params": {
          "_bonus": "the new liquidation bonus*",
          "_instrument": "the address of the instrument"
        }
      },
      "setInstrumentLiquidationThreshold(address,uint256)": {
        "params": {
          "_instrument": "the address of the instrument",
          "_threshold": "the new liquidation threshold*"
        }
      },
      "setUserUseInstrumentAsCollateral(address,address,bool)": {
        "details": "enables or disables a instrument as collateral",
        "params": {
          "_instrument": "the address of the principal instrument where the user deposited",
          "_useAsCollateral": "true if the depositor wants to use the instrument as collateral*",
          "_user": "the address of the depositor"
        }
      },
      "transferToFeeCollectionAddress(address,address,uint256,address)": {
        "details": "transfers the protocol fees to the fees collection address",
        "params": {
          "_amount": "the amount being transferred",
          "_destination": "the fee receiver address*",
          "_token": "the address of the token (instrument) being transferred",
          "_user": "the address of the user from where the transfer is happening"
        }
      },
      "transferToReserve(address,address,uint256)": {
        "details": "transfers an amount from a user to the destination instrument",
        "params": {
          "_amount": "the amount being transferred*",
          "_instrument": "the address of the instrument where the amount is being transferred",
          "_user": "the address of the user from where the transfer is happening"
        }
      },
      "transferToUser(address,address,uint256)": {
        "details": "transfers to the user a specific amount from the reserve. (used during REDEEMUNDERLYING(), BORROW() & FLASHLOAN() in LendingPool Contract)",
        "params": {
          "_amount": "the amount being transferred*",
          "_instrument": "the address of the instrument (underlying address) where the transfer is happening",
          "_user": "the address of the user receiving the transfer"
        }
      },
      "unfreezeInstrument(address)": {
        "params": {
          "_instrument": "the address of the instrument*"
        }
      },
      "updateStateOnBorrow(address,address,uint256,uint256,uint8)": {
        "details": "updates the state of the core as a consequence of a borrow action.",
        "params": {
          "_amountBorrowed": "the new amount borrowed",
          "_borrowFee": "the fee on the amount borrowed",
          "_instrument": "the address of the instrument which the user is borrowing",
          "_rateMode": "the borrow rate mode (stable, variable)",
          "_user": "the address of the borrower"
        },
        "return": "the new borrow rate for the user*"
      },
      "updateStateOnDeposit(address,address,uint256,bool)": {
        "details": "updates the state of the core as a result of a deposit action",
        "params": {
          "_amount": "the amount being deposited",
          "_instrument": "the address of the instrument in which the deposit is happening",
          "_isFirstDeposit": "true if the user is depositing for the first time*",
          "_user": "the address of the the user depositing"
        }
      },
      "updateStateOnFlashLoan(address,uint256,uint256,uint256)": {
        "details": "updates the state of the core as a result of a flashloan action",
        "params": {
          "_income": "the income of the protocol as a result of the action",
          "_instrument": "the address of the instrument in which the flashloan is happening",
          "_protocolFee": "the protocol fee charged*"
        }
      },
      "updateStateOnLiquidation(address,address,address,uint256,uint256,uint256,uint256,uint256,bool)": {
        "details": "updates the state of the core as a consequence of a liquidation action.",
        "params": {
          "_amountToLiquidate": "the amount being repaid by the liquidator",
          "_balanceIncrease": "the accrued interest on the borrowed amount",
          "_collateralInstrument": "the address of the collateral instrument that is being liquidated",
          "_collateralToLiquidate": "the amount of collateral being liquidated",
          "_feeLiquidated": "the amount of origination fee being liquidated",
          "_liquidatedCollateralForFee": "the amount of collateral equivalent to the origination fee + bonus",
          "_liquidatorReceivesIToken": "true if the liquidator will receive iTokens, false otherwise*",
          "_principalInstrument": "the address of the principal instrument that is being repaid",
          "_user": "the address of the borrower"
        }
      },
      "updateStateOnRebalance(address,address,uint256)": {
        "details": "updates the state of the core as a consequence of a stable rate rebalance",
        "params": {
          "_balanceIncrease": "the accrued interest on the borrowed amount",
          "_instrument": "the address of the principal instrument where the user borrowed",
          "_user": "the address of the borrower"
        },
        "return": "the new stable rate for the user*"
      },
      "updateStateOnRedeem(address,address,uint256,bool)": {
        "details": "updates the state of the core as a result of a redeem action",
        "params": {
          "_amountRedeemed": "the amount being redeemed",
          "_instrument": "the address of the instrument (underlying address) in which the redeem is happening",
          "_user": "the address of the the user redeeming",
          "_userRedeemedEverything": "true if the user is redeeming everything*"
        }
      },
      "updateStateOnRepay(address,address,uint256,uint256,uint256,bool)": {
        "details": "updates the state of the core as a consequence of a repay action.",
        "params": {
          "_balanceIncrease": "the accrued interest on the borrowed amount",
          "_instrument": "the address of the instrument on which the user is repaying",
          "_originationFeeRepaid": "the fee on the amount that is being repaid",
          "_paybackAmountMinusFees": "the amount being paid back minus fees",
          "_repaidWholeLoan": "true if the user is repaying the whole loan*",
          "_user": "the address of the borrower"
        }
      },
      "updateStateOnSwapRate(address,address,uint256,uint256,uint256,uint8)": {
        "details": "updates the state of the core as a consequence of a swap rate action.",
        "params": {
          "_balanceIncrease": "the accrued interest on the borrowed amount",
          "_compoundedBorrowBalance": "the amount borrowed plus accrued interest",
          "_currentRateMode": "the current interest rate mode for the user*",
          "_instrument": "the address of the _instrument on which the user is repaying",
          "_principalBorrowBalance": "the amount borrowed by the user",
          "_user": "the address of the borrower"
        }
      }
    },
    "title": "LendingPoolCore contract"
  },
  "userdoc": {
    "methods": {
      "freezeInstrument(address)": {
        "notice": "allows the configurator to freeze the instrument. A freezed instrument does not allow any action apart from repay, redeem, liquidationCall, rebalance."
      },
      "getInstrumentIsFreezed(address)": {
        "notice": "returns if a _instrument is freezed"
      },
      "getInstrumentLastUpdate(address)": {
        "notice": "returns the timestamp of the last action on the _instrument"
      },
      "setInstrumentBaseLTVasCollateral(address,uint256)": {
        "notice": "allows the configurator to update the loan to value of a instrument"
      },
      "setInstrumentDecimals(address,uint256)": {
        "notice": "allows the configurator to update the instrument decimals"
      },
      "setInstrumentLiquidationBonus(address,uint256)": {
        "notice": "allows the configurator to update the liquidation bonus of a instrument"
      },
      "setInstrumentLiquidationThreshold(address,uint256)": {
        "notice": "allows the configurator to update the liquidation threshold of a instrument"
      },
      "unfreezeInstrument(address)": {
        "notice": "allows the configurator to unfreeze the instrument. A unfreezed Instrument allows any action to be executed."
      }
    },
    "notice": "Holds the state of the lending pool and all the funds deposited"
  }
}