{
  "contractName": "LendingPoolLiquidationManager",
  "abi": [
    {
      "anonymous": false,
      "inputs": [
        {
          "indexed": true,
          "internalType": "address",
          "name": "_collateral",
          "type": "address"
        },
        {
          "indexed": true,
          "internalType": "address",
          "name": "_instrument",
          "type": "address"
        },
        {
          "indexed": true,
          "internalType": "address",
          "name": "_user",
          "type": "address"
        },
        {
          "indexed": false,
          "internalType": "uint256",
          "name": "_purchaseAmount",
          "type": "uint256"
        },
        {
          "indexed": false,
          "internalType": "uint256",
          "name": "_liquidatedCollateralAmount",
          "type": "uint256"
        },
        {
          "indexed": false,
          "internalType": "uint256",
          "name": "_accruedBorrowInterest",
          "type": "uint256"
        },
        {
          "indexed": false,
          "internalType": "address",
          "name": "_liquidator",
          "type": "address"
        },
        {
          "indexed": false,
          "internalType": "bool",
          "name": "_receiveIToken",
          "type": "bool"
        },
        {
          "indexed": false,
          "internalType": "uint256",
          "name": "_timestamp",
          "type": "uint256"
        }
      ],
      "name": "LiquidationCall",
      "type": "event"
    },
    {
      "anonymous": false,
      "inputs": [
        {
          "indexed": true,
          "internalType": "address",
          "name": "_collateral",
          "type": "address"
        },
        {
          "indexed": true,
          "internalType": "address",
          "name": "_instrument",
          "type": "address"
        },
        {
          "indexed": true,
          "internalType": "address",
          "name": "_user",
          "type": "address"
        },
        {
          "indexed": false,
          "internalType": "uint256",
          "name": "_feeLiquidated",
          "type": "uint256"
        },
        {
          "indexed": false,
          "internalType": "uint256",
          "name": "_liquidatedCollateralForFee",
          "type": "uint256"
        },
        {
          "indexed": false,
          "internalType": "uint256",
          "name": "_timestamp",
          "type": "uint256"
        }
      ],
      "name": "OriginationFeeLiquidated",
      "type": "event"
    },
    {
      "constant": true,
      "inputs": [],
      "name": "LIQUIDATIONMANAGERL_REVISION",
      "outputs": [
        {
          "internalType": "uint256",
          "name": "",
          "type": "uint256"
        }
      ],
      "payable": false,
      "stateMutability": "view",
      "type": "function"
    },
    {
      "constant": true,
      "inputs": [],
      "name": "addressesProvider",
      "outputs": [
        {
          "internalType": "contract GlobalAddressesProvider",
          "name": "",
          "type": "address"
        }
      ],
      "payable": false,
      "stateMutability": "view",
      "type": "function"
    },
    {
      "constant": false,
      "inputs": [
        {
          "internalType": "address",
          "name": "_collateral",
          "type": "address"
        },
        {
          "internalType": "address",
          "name": "_instrument",
          "type": "address"
        },
        {
          "internalType": "address",
          "name": "_user",
          "type": "address"
        },
        {
          "internalType": "uint256",
          "name": "_purchaseAmount",
          "type": "uint256"
        },
        {
          "internalType": "bool",
          "name": "_receiveIToken",
          "type": "bool"
        }
      ],
      "name": "liquidationCall",
      "outputs": [
        {
          "internalType": "uint256",
          "name": "",
          "type": "uint256"
        },
        {
          "internalType": "string",
          "name": "",
          "type": "string"
        }
      ],
      "payable": true,
      "stateMutability": "payable",
      "type": "function"
    }
  ],
  "bytecode": "0x608060405260006001818155905561134e8061001c6000396000f3fe6080604052600436106100335760003560e01c8062a718a9146100385780637c31dd58146100fb578063c72c4d1014610122575b600080fd5b61007c600480360360a081101561004e57600080fd5b506001600160a01b038135811691602081013582169160408201351690606081013590608001351515610153565b6040518083815260200180602001828103825283818151815260200191508051906020019080838360005b838110156100bf5781810151838201526020016100a7565b50505050905090810190601f1680156100ec5780820380516001836020036101000a031916815260200191505b50935050505060405180910390f35b34801561010757600080fd5b50610110610d08565b60408051918252519081900360200190f35b34801561012e57600080fd5b50610137610d0d565b604080516001600160a01b039092168252519081900360200190f35b6000606061015f611192565b60375460408051632c6d0e9b60e01b81526001600160a01b03898116600483015291519190921691632c6d0e9b91602480830192610100929190829003018186803b1580156101ad57600080fd5b505afa1580156101c1573d6000803e3d6000fd5b505050506040513d6101008110156101d857600080fd5b5060e0015115156101e082018190526102105760046040518060600160405280602881526020016112c8602891399250925050610cfe565b60365460408051630c526de560e11b81526001600160a01b038b811660048301528981166024830152915191909216916318a4dbca916044808301926020929190829003018186803b15801561026557600080fd5b505afa158015610279573d6000803e3d6000fd5b505050506040513d602081101561028f57600080fd5b50518082526102d757505060408051808201909152601f81527f496e76616c696420636f6c6c61746572616c20746f206c697175696461746500602082015260019150610cfe565b60365460408051631a18aaa960e31b81526001600160a01b038b811660048301529151919092169163d0c55548916024808301926020929190829003018186803b15801561032457600080fd5b505afa158015610338573d6000803e3d6000fd5b505050506040513d602081101561034e57600080fd5b505180156103d957506036546040805163ee9c228160e01b81526001600160a01b038b8116600483015289811660248301529151919092169163ee9c2281916044808301926020929190829003018186803b1580156103ac57600080fd5b505afa1580156103c0573d6000803e3d6000fd5b505050506040513d60208110156103d657600080fd5b50515b15156101c0820181905261040c5760026040518060600160405280602a815260200161129e602a91399250925050610cfe565b60365460408051639fb8afcd60e01b81526001600160a01b038a81166004830152898116602483015291519190921691639fb8afcd916044808301926060929190829003018186803b15801561046157600080fd5b505afa158015610475573d6000803e3d6000fd5b505050506040513d606081101561048b57600080fd5b506020808201516040928301519284019290925282018190526104cd5760036040518060600160405280602a81526020016112f0602a91399250925050610cfe565b6104f660646104ea60328460200151610d1c90919063ffffffff16565b9063ffffffff610d7e16565b606082018190528511610509578461050f565b80606001515b608082018190528151600091829161052b918c918c9190610dc0565b60365460408051633faacc6b60e21b81526001600160a01b038e811660048301528d811660248301529151949650929450169163feab31ac91604480820192602092909190829003018186803b15801561058457600080fd5b505afa158015610598573d6000803e3d6000fd5b505050506040513d60208110156105ae57600080fd5b50516101208401819052156105f1576105e48a8a8561012001516105df86886000015161105490919063ffffffff16565b610dc0565b6101408501526101608401525b826080015181101561060557608083018190525b856106bb5760365460408051634f8aeae360e11b81526001600160a01b038d8116600483015291516000939290921691639f15d5c691602480820192602092909190829003018186803b15801561065b57600080fd5b505afa15801561066f573d6000803e3d6000fd5b505050506040513d602081101561068557600080fd5b50519050828110156106b957600560405180606001604052806033815260200161126b603391399550955050505050610cfe565b505b603660009054906101000a90046001600160a01b03166001600160a01b03166368beb4d68a8c8b8760800151878961014001518a61016001518b604001518f6040518a63ffffffff1660e01b8152600401808a6001600160a01b03166001600160a01b03168152602001896001600160a01b03166001600160a01b03168152602001886001600160a01b03166001600160a01b03168152602001878152602001868152602001858152602001848152602001838152602001821515151581526020019950505050505050505050600060405180830381600087803b1580156107a257600080fd5b505af11580156107b6573d6000803e3d6000fd5b505060365460408051630557d36f60e51b81526001600160a01b038f8116600483015291516000955091909216925063aafa6de091602480820192602092909190829003018186803b15801561080b57600080fd5b505afa15801561081f573d6000803e3d6000fd5b505050506040513d602081101561083557600080fd5b5051905086156108b4576040805163f866c31960e01b81526001600160a01b038b811660048301523360248301526044820186905291519183169163f866c3199160648082019260009290919082900301818387803b15801561089757600080fd5b505af11580156108ab573d6000803e3d6000fd5b505050506109d4565b806001600160a01b0316633edb7cb88a856040518363ffffffff1660e01b815260040180836001600160a01b03166001600160a01b0316815260200182815260200192505050600060405180830381600087803b15801561091457600080fd5b505af1158015610928573d6000803e3d6000fd5b50505050603660009054906101000a90046001600160a01b03166001600160a01b031663fa93b2a58c33866040518463ffffffff1660e01b815260040180846001600160a01b03166001600160a01b03168152602001836001600160a01b03166001600160a01b031681526020018281526020019350505050600060405180830381600087803b1580156109bb57600080fd5b505af11580156109cf573d6000803e3d6000fd5b505050505b6036546080850151604080516328fcf4d360e01b81526001600160a01b038e811660048301523360248301526044820193909352905191909216916328fcf4d391349160648082019260009290919082900301818588803b158015610a3857600080fd5b505af1158015610a4c573d6000803e3d6000fd5b505050505060008461014001511115610c5f57806001600160a01b0316633edb7cb88a8661016001516040518363ffffffff1660e01b815260040180836001600160a01b03166001600160a01b0316815260200182815260200192505050600060405180830381600087803b158015610ac457600080fd5b505af1158015610ad8573d6000803e3d6000fd5b50505050603660009054906101000a90046001600160a01b03166001600160a01b0316638f385c228c866101600151603560009054906101000a90046001600160a01b03166001600160a01b0316631db4f5696040518163ffffffff1660e01b815260040160206040518083038186803b158015610b5557600080fd5b505afa158015610b69573d6000803e3d6000fd5b505050506040513d6020811015610b7f57600080fd5b5051604080516001600160e01b031960e087901b1681526001600160a01b0394851660048201526024810193909352921660448201529051606480830192600092919082900301818387803b158015610bd757600080fd5b505af1158015610beb573d6000803e3d6000fd5b50505050886001600160a01b03168a6001600160a01b03168c6001600160a01b03167f36ca8b16d61dc13b1062adff83e3778ab92d14f9e35bfe9fd1283e02b13fb0a18761014001518861016001514260405180848152602001838152602001828152602001935050505060405180910390a45b60808085015160408087015181519283526020830187905282820152336060830152891515928201929092524260a082015290516001600160a01b03808c16928d821692918f16917f56864757fd5b1fc9f38f5f3a981cd8ae512ce41b902cf73fc506ee369c6bc2379181900360c00190a46000604051806040016040528060098152602001684e6f206572726f727360b81b81525095509550505050505b9550959350505050565b600181565b6035546001600160a01b031681565b600082610d2b57506000610d78565b82820282848281610d3857fe5b0414610d755760405162461bcd60e51b815260040180806020018281038252602181526020018061124a6021913960400191505060405180910390fd5b90505b92915050565b6000610d7583836040518060400160405280601a81526020017f536166654d6174683a206469766973696f6e206279207a65726f000000000000815250611096565b60355460408051631f94a27560e31b81529051600092839283926001600160a01b039092169163fca513a891600480820192602092909190829003018186803b158015610e0c57600080fd5b505afa158015610e20573d6000803e3d6000fd5b505050506040513d6020811015610e3657600080fd5b50519050610e4261121a565b816001600160a01b031663b3596f07896040518263ffffffff1660e01b815260040180826001600160a01b03166001600160a01b0316815260200191505060206040518083038186803b158015610e9857600080fd5b505afa158015610eac573d6000803e3d6000fd5b505050506040513d6020811015610ec257600080fd5b5051604080830191909152805163b3596f0760e01b81526001600160a01b03898116600483015291519184169163b3596f0791602480820192602092909190829003018186803b158015610f1557600080fd5b505afa158015610f29573d6000803e3d6000fd5b505050506040513d6020811015610f3f57600080fd5b5051606082015260365460408051633c47116560e21b81526001600160a01b038b811660048301529151919092169163f11c4594916024808301926020929190829003018186803b158015610f9357600080fd5b505afa158015610fa7573d6000803e3d6000fd5b505050506040513d6020811015610fbd57600080fd5b50516020820181905260408201516060830151610ffa926064926104ea92610fee919084908d63ffffffff610d1c16565b9063ffffffff610d1c16565b6080820181905285101561103e5784935061103781602001516104ea6064610fee85606001516104ea8a8860400151610d1c90919063ffffffff16565b9250611049565b806080015193508592505b505094509492505050565b6000610d7583836040518060400160405280601e81526020017f536166654d6174683a207375627472616374696f6e206f766572666c6f770000815250611138565b600081836111225760405162461bcd60e51b81526004018080602001828103825283818151815260200191508051906020019080838360005b838110156110e75781810151838201526020016110cf565b50505050905090810190601f1680156111145780820380516001836020036101000a031916815260200191505b509250505060405180910390fd5b50600083858161112e57fe5b0495945050505050565b6000818484111561118a5760405162461bcd60e51b81526020600482018181528351602484015283519092839260449091019190850190808383600083156110e75781810151838201526020016110cf565b505050900390565b604051806102000160405280600081526020016000815260200160008152602001600081526020016000815260200160008152602001600081526020016000815260200160008152602001600081526020016000815260200160008152602001600060028111156111ff57fe5b81526000602082018190526040820181905260609091015290565b6040518060a001604052806000815260200160008152602001600081526020016000815260200160008152509056fe536166654d6174683a206d756c7469706c69636174696f6e206f766572666c6f7754686572652069736e277420656e6f756768206c697175696469747920617661696c61626c6520746f206c697175696461746554686520636f6c6c61746572616c2063686f73656e2063616e6e6f74206265206c6971756964617465644865616c746820666163746f72206973206e6f742062656c6f7720746865207468726573686f6c645573657220646964206e6f7420626f72726f7720746865207370656369666965642063757272656e6379a265627a7a72315820af70985b980d6cb4f28c3e2c5c300cb9877a1999464d4fa06f46d1e359b3c3c564736f6c63430005100032",
  "source": "pragma solidity ^0.5.0;\n\nimport \"openzeppelin-solidity/contracts/math/SafeMath.sol\";\nimport \"openzeppelin-solidity/contracts/utils/ReentrancyGuard.sol\";\nimport \"openzeppelin-solidity/contracts/utils/Address.sol\";\nimport \"openzeppelin-solidity/contracts/utils/ReentrancyGuard.sol\";\nimport \"../../openzeppelin-upgradeability/VersionedInitializable.sol\";\nimport \"../libraries/CoreLibrary.sol\";\nimport \"../libraries/WadRayMath.sol\";\n\nimport \"../../configuration/GlobalAddressesProvider.sol\";\n\nimport \"../interfaces/ILendingPoolParametersProvider.sol\";\nimport \"../interfaces/ITokenInterface.sol\";\nimport \"../interfaces/ILendingPoolCore.sol\";\nimport \"../interfaces/ILendingPoolDataProvider.sol\";\nimport \"../interfaces/IPriceOracleGetter.sol\";\n\n/**\n* @title LendingPoolLiquidationManager contract\n* @author Aave, SIGH Finance\n* @notice Implements the liquidation function.\n**/\ncontract LendingPoolLiquidationManager is ReentrancyGuard, VersionedInitializable {\n\n    using SafeMath for uint256;\n    using WadRayMath for uint256;\n    using Address for address;\n\n    GlobalAddressesProvider public addressesProvider;\n    ILendingPoolCore core;\n    ILendingPoolDataProvider dataProvider;\n\n    uint256 constant LIQUIDATION_CLOSE_FACTOR_PERCENT = 50;\n\n    enum LiquidationErrors {\n        NO_ERROR,\n        NO_COLLATERAL_AVAILABLE,\n        COLLATERAL_CANNOT_BE_LIQUIDATED,\n        INSTRUMENT_NOT_BORROWED,\n        HEALTH_FACTOR_ABOVE_THRESHOLD,\n        NOT_ENOUGH_LIQUIDITY\n    }\n\n    struct LiquidationCallLocalVars {\n        uint256 userCollateralBalance;\n        uint256 userCompoundedBorrowBalance;\n        uint256 borrowBalanceIncrease;\n        uint256 maxPrincipalAmountToLiquidate;\n        uint256 actualAmountToLiquidate;\n        uint256 liquidationRatio;\n        uint256 collateralPrice;\n        uint256 principalCurrencyPrice;\n        uint256 maxAmountCollateralToLiquidate;\n        uint256 originationFee;\n        uint256 feeLiquidated;\n        uint256 liquidatedCollateralForFee;\n        CoreLibrary.InterestRateMode borrowRateMode;\n        uint256 userStableRate;\n        bool isCollateralEnabled;\n        bool healthFactorBelowThreshold;\n    }\n\n// #####################\n// ######  EVENTS ######\n// #####################\n\n    /**\n    * @dev emitted when a borrow fee is liquidated\n    * @param _collateral the address of the collateral being liquidated\n    * @param _instrument the address of the instrument\n    * @param _user the address of the user being liquidated\n    * @param _feeLiquidated the total fee liquidated\n    * @param _liquidatedCollateralForFee the amount of collateral received by the protocol in exchange for the fee\n    * @param _timestamp the timestamp of the action\n    **/\n    event OriginationFeeLiquidated( address indexed _collateral, address indexed _instrument, address indexed _user,  uint256 _feeLiquidated,  uint256 _liquidatedCollateralForFee,  uint256 _timestamp );\n\n    /**\n    * @dev emitted when a borrower is liquidated\n    * @param _collateral the address of the collateral being liquidated\n    * @param _instrument the address of the instrument\n    * @param _user the address of the user being liquidated\n    * @param _purchaseAmount the total amount liquidated\n    * @param _liquidatedCollateralAmount the amount of collateral being liquidated\n    * @param _accruedBorrowInterest the amount of interest accrued by the borrower since the last action\n    * @param _liquidator the address of the liquidator\n    * @param _receiveIToken true if the liquidator wants to receive iTokens, false otherwise\n    * @param _timestamp the timestamp of the action\n    **/\n    event LiquidationCall( address indexed _collateral, address indexed _instrument, address indexed _user, uint256 _purchaseAmount, uint256 _liquidatedCollateralAmount, uint256 _accruedBorrowInterest, address _liquidator, bool _receiveIToken, uint256 _timestamp );\n    \n    uint256 public constant LIQUIDATIONMANAGERL_REVISION = 0x1;             // NEEDED AS PART OF UPGRADABLE CONTRACTS FUNCTIONALITY ( VersionedInitializable )\n\n\n    // as the contract extends the VersionedInitializable contract to match the state of the LendingPool contract, the getRevision() function is needed.\n    function getRevision() internal pure returns (uint256) {\n        return LIQUIDATIONMANAGERL_REVISION;\n    }\n\n// #############################################################################################################################################\n// ######  LIQUIDATION FUNCTION --> Anyone can call this function to liquidate the position of the user whose position can be liquidated  ######\n// #############################################################################################################################################\n\n    /**\n    * @dev users can invoke this function to liquidate an undercollateralized position. (Also defined in the LendingPool Contract, which delegates the Call here)\n    * @param _collateral the address of the collateral to liquidated\n    * @param _instrument the address of the principal instrument\n    * @param _user the address of the borrower\n    * @param _purchaseAmount the amount of principal that the liquidator wants to repay\n    * @param _receiveIToken true if the liquidators wants to receive the iTokens, false if he wants to receive the underlying asset directly\n    **/\n    function liquidationCall( address _collateral, address _instrument, address _user, uint256 _purchaseAmount, bool _receiveIToken ) external payable returns (uint256, string memory) {\n       \n        LiquidationCallLocalVars memory vars;        // Usage of a memory struct of vars to avoid \"Stack too deep\" errors due to local variables\n\n        (, , , , , , , vars.healthFactorBelowThreshold) = dataProvider.calculateUserGlobalData(  _user );\n\n        //  ############     Health factor needs to be below threshold for liquidation to take place     ############\n        if (!vars.healthFactorBelowThreshold) {\n            return ( uint256(LiquidationErrors.HEALTH_FACTOR_ABOVE_THRESHOLD), \"Health factor is not below the threshold\" );\n        }\n\n        //  ############     if _user hasn't deposited this specific collateral, nothing can be liquidated      ############\n        vars.userCollateralBalance = core.getUserUnderlyingAssetBalance(_collateral, _user);        \n        if (vars.userCollateralBalance == 0) {\n            return ( uint256(LiquidationErrors.NO_COLLATERAL_AVAILABLE), \"Invalid collateral to liquidate\" );\n        }\n\n        // ############      if _collateral isn't enabled as collateral by _user, it cannot be liquidated       ############\n        vars.isCollateralEnabled = core.isInstrumentUsageAsCollateralEnabled(_collateral) && core.isUserUseInstrumentAsCollateralEnabled(_collateral, _user);\n        if (!vars.isCollateralEnabled) {\n            return ( uint256(LiquidationErrors.COLLATERAL_CANNOT_BE_LIQUIDATED), \"The collateral chosen cannot be liquidated\" );\n        }\n\n        // ############       if the user hasn't borrowed the specific currency defined by _instrument, it cannot be liquidated     ############\n        (, vars.userCompoundedBorrowBalance, vars.borrowBalanceIncrease) = core.getUserBorrowBalances(_instrument, _user);\n        if (vars.userCompoundedBorrowBalance == 0) {\n            return ( uint256(LiquidationErrors.INSTRUMENT_NOT_BORROWED), \"User did not borrow the specified currency\");\n        }\n\n        //  ############       all clear - calculate the max principal amount that can be liquidated          ############\n        vars.maxPrincipalAmountToLiquidate = vars.userCompoundedBorrowBalance.mul(LIQUIDATION_CLOSE_FACTOR_PERCENT).div(100);\n        vars.actualAmountToLiquidate = _purchaseAmount > vars.maxPrincipalAmountToLiquidate ? vars.maxPrincipalAmountToLiquidate : _purchaseAmount;\n\n        (uint256 maxCollateralToLiquidate, uint256 principalAmountNeeded) = calculateAvailableCollateralToLiquidate( _collateral, _instrument, vars.actualAmountToLiquidate, vars.userCollateralBalance );\n\n        vars.originationFee = core.getUserOriginationFee(_instrument, _user);\n\n        //  ############         if there is a fee to liquidate, calculate the maximum amount of fee that can be liquidated       ############\n        if (vars.originationFee > 0) {\n            ( vars.liquidatedCollateralForFee, vars.feeLiquidated ) = calculateAvailableCollateralToLiquidate( _collateral, _instrument, vars.originationFee, vars.userCollateralBalance.sub(maxCollateralToLiquidate) );\n        }\n\n        //if principalAmountNeeded < vars.ActualAmountToLiquidate, there isn't enough of _collateral to cover the actual amount that is being liquidated, hence we liquidate a smaller amount\n        if (principalAmountNeeded < vars.actualAmountToLiquidate) {\n            vars.actualAmountToLiquidate = principalAmountNeeded;\n        }\n\n        //if liquidator reclaims the underlying asset, we make sure there is enough available collateral in the instrument\n        if (!_receiveIToken) {\n            uint256 currentAvailableCollateral = core.getInstrumentAvailableLiquidity(_collateral);\n            if (currentAvailableCollateral < maxCollateralToLiquidate) {\n                return ( uint256(LiquidationErrors.NOT_ENOUGH_LIQUIDITY), \"There isn't enough liquidity available to liquidate\" );\n            }\n        }\n\n        core.updateStateOnLiquidation( _instrument, _collateral, _user, vars.actualAmountToLiquidate, maxCollateralToLiquidate, vars.feeLiquidated, vars.liquidatedCollateralForFee, vars.borrowBalanceIncrease, _receiveIToken );\n        ITokenInterface collateralIToken = ITokenInterface(core.getInstrumentITokenAddress(_collateral));\n        \n        if (_receiveIToken) {               //if liquidator reclaims the iToken, he receives the equivalent iToken amount\n            collateralIToken.transferOnLiquidation(_user, msg.sender, maxCollateralToLiquidate);\n        } \n        else {                           //otherwise receives the underlying asset burn the equivalent amount of iToken    \n            collateralIToken.burnOnLiquidation(_user, maxCollateralToLiquidate);\n            core.transferToUser(_collateral, msg.sender, maxCollateralToLiquidate);\n        }\n\n        core.transferToReserve.value(msg.value)(_instrument, msg.sender, vars.actualAmountToLiquidate);        //transfers the principal currency to the pool\n\n        if (vars.feeLiquidated > 0) {           //if there is enough collateral to liquidate the fee, first transfer burn an equivalent amount of iTokens of the user            \n            collateralIToken.burnOnLiquidation(_user, vars.liquidatedCollateralForFee);\n            core.liquidateFee( _collateral, vars.liquidatedCollateralForFee, addressesProvider.getSIGHStaking() );     //then liquidate the fee by transferring it to the fee collection address\n            emit OriginationFeeLiquidated( _collateral, _instrument, _user, vars.feeLiquidated, vars.liquidatedCollateralForFee,  block.timestamp );\n        }\n        emit LiquidationCall(  _collateral,  _instrument,  _user,  vars.actualAmountToLiquidate,  maxCollateralToLiquidate,  vars.borrowBalanceIncrease,  msg.sender,  _receiveIToken, block.timestamp  );\n\n        return (uint256(LiquidationErrors.NO_ERROR), \"No errors\");\n    }\n\n    struct AvailableCollateralToLiquidateLocalVars {\n        uint256 userCompoundedBorrowBalance;\n        uint256 liquidationBonus;\n        uint256 collateralPrice;\n        uint256 principalCurrencyPrice;\n        uint256 maxAmountCollateralToLiquidate;\n    }\n\n    /**\n    * @dev calculates how much of a specific collateral can be liquidated, given\n    * a certain amount of principal currency. This function needs to be called after\n    * all the checks to validate the liquidation have been performed, otherwise it might fail.\n    * @param _collateral the collateral to be liquidated\n    * @param _principal the principal currency to be liquidated\n    * @param _purchaseAmount the amount of principal being liquidated\n    * @param _userCollateralBalance the collatera balance for the specific _collateral asset of the user being liquidated\n    * @return the maximum amount that is possible to liquidated given all the liquidation constraints (user balance, close factor) and\n    * the purchase amount\n    **/\n    function calculateAvailableCollateralToLiquidate( address _collateral, address _principal, uint256 _purchaseAmount, uint256 _userCollateralBalance ) internal view returns (uint256 collateralAmount, uint256 principalAmountNeeded) {\n        collateralAmount = 0;\n        principalAmountNeeded = 0;\n        IPriceOracleGetter oracle = IPriceOracleGetter(addressesProvider.getPriceOracle());\n        AvailableCollateralToLiquidateLocalVars memory vars;                     // Usage of a memory struct of vars to avoid \"Stack too deep\" errors due to local variables\n        vars.collateralPrice = oracle.getAssetPrice(_collateral);\n        vars.principalCurrencyPrice = oracle.getAssetPrice(_principal);\n        vars.liquidationBonus = core.getInstrumentLiquidationBonus(_collateral);\n\n        //this is the maximum possible amount of the selected collateral that can be liquidated, given the max amount of principal currency that is available for liquidation.\n        vars.maxAmountCollateralToLiquidate = vars.principalCurrencyPrice.mul(_purchaseAmount).div(vars.collateralPrice).mul(vars.liquidationBonus).div(100);\n\n        if (vars.maxAmountCollateralToLiquidate > _userCollateralBalance) {\n            collateralAmount = _userCollateralBalance;\n            principalAmountNeeded = vars.collateralPrice.mul(collateralAmount).div(vars.principalCurrencyPrice).mul(100).div(vars.liquidationBonus);\n        } else {\n            collateralAmount = vars.maxAmountCollateralToLiquidate;\n            principalAmountNeeded = _purchaseAmount;\n        }\n\n        return (collateralAmount, principalAmountNeeded);\n    }\n}\n",
  "sourcePath": "/Users/apple/Desktop/GITCOIN/Sigh_Finance/SighFinanceContracts/contracts/LendingProtocolContracts/lendingpool/LendingPoolLiquidationManager.sol",
  "compiler": {
    "name": "solc",
    "version": "0.5.16+commit.9c3226ce.Emscripten.clang"
  },
  "schemaVersion": "3.2.4",
  "updatedAt": "2020-12-08T09:42:16.561Z",
  "devdoc": {
    "author": "Aave, SIGH Finance",
    "methods": {
      "liquidationCall(address,address,address,uint256,bool)": {
        "details": "users can invoke this function to liquidate an undercollateralized position. (Also defined in the LendingPool Contract, which delegates the Call here)",
        "params": {
          "_collateral": "the address of the collateral to liquidated",
          "_instrument": "the address of the principal instrument",
          "_purchaseAmount": "the amount of principal that the liquidator wants to repay",
          "_receiveIToken": "true if the liquidators wants to receive the iTokens, false if he wants to receive the underlying asset directly*",
          "_user": "the address of the borrower"
        }
      }
    },
    "title": "LendingPoolLiquidationManager contract"
  },
  "userdoc": {
    "methods": {},
    "notice": "Implements the liquidation function.*"
  }
}