{
  "contractName": "LendingPoolConfigurator",
  "abi": [
    {
      "anonymous": false,
      "inputs": [
        {
          "indexed": true,
          "internalType": "address",
          "name": "_instrument",
          "type": "address"
        },
        {
          "indexed": false,
          "internalType": "bool",
          "name": "switch_",
          "type": "bool"
        }
      ],
      "name": "BorrowingOnInstrumentSwitched",
      "type": "event"
    },
    {
      "anonymous": false,
      "inputs": [
        {
          "indexed": true,
          "internalType": "address",
          "name": "_instrument",
          "type": "address"
        },
        {
          "indexed": false,
          "internalType": "bool",
          "name": "switch_",
          "type": "bool"
        }
      ],
      "name": "InstrumentActivationSwitched",
      "type": "event"
    },
    {
      "anonymous": false,
      "inputs": [
        {
          "indexed": false,
          "internalType": "address",
          "name": "_instrument",
          "type": "address"
        },
        {
          "indexed": false,
          "internalType": "uint256",
          "name": "_ltv",
          "type": "uint256"
        },
        {
          "indexed": false,
          "internalType": "uint256",
          "name": "_liquidationThreshold",
          "type": "uint256"
        },
        {
          "indexed": false,
          "internalType": "uint256",
          "name": "_liquidationBonus",
          "type": "uint256"
        }
      ],
      "name": "InstrumentCollateralParametersUpdated",
      "type": "event"
    },
    {
      "anonymous": false,
      "inputs": [
        {
          "indexed": false,
          "internalType": "address",
          "name": "_instrument",
          "type": "address"
        },
        {
          "indexed": false,
          "internalType": "uint256",
          "name": "decimals",
          "type": "uint256"
        }
      ],
      "name": "InstrumentDecimalsUpdated",
      "type": "event"
    },
    {
      "anonymous": false,
      "inputs": [
        {
          "indexed": true,
          "internalType": "address",
          "name": "_instrument",
          "type": "address"
        }
      ],
      "name": "InstrumentDisabledAsCollateral",
      "type": "event"
    },
    {
      "anonymous": false,
      "inputs": [
        {
          "indexed": true,
          "internalType": "address",
          "name": "_instrument",
          "type": "address"
        },
        {
          "indexed": false,
          "internalType": "uint256",
          "name": "_ltv",
          "type": "uint256"
        },
        {
          "indexed": false,
          "internalType": "uint256",
          "name": "_liquidationThreshold",
          "type": "uint256"
        },
        {
          "indexed": false,
          "internalType": "uint256",
          "name": "_liquidationBonus",
          "type": "uint256"
        }
      ],
      "name": "InstrumentEnabledAsCollateral",
      "type": "event"
    },
    {
      "anonymous": false,
      "inputs": [
        {
          "indexed": true,
          "internalType": "address",
          "name": "_instrument",
          "type": "address"
        },
        {
          "indexed": false,
          "internalType": "bool",
          "name": "isFreezed",
          "type": "bool"
        }
      ],
      "name": "InstrumentFreezeSwitched",
      "type": "event"
    },
    {
      "anonymous": false,
      "inputs": [
        {
          "indexed": true,
          "internalType": "address",
          "name": "_instrument",
          "type": "address"
        },
        {
          "indexed": true,
          "internalType": "address",
          "name": "_iToken",
          "type": "address"
        },
        {
          "indexed": false,
          "internalType": "address",
          "name": "_interestRateStrategyAddress",
          "type": "address"
        },
        {
          "indexed": false,
          "internalType": "address",
          "name": "sighStreamAddress",
          "type": "address"
        },
        {
          "indexed": false,
          "internalType": "address",
          "name": "sighStreamImplAddress",
          "type": "address"
        }
      ],
      "name": "InstrumentInitialized",
      "type": "event"
    },
    {
      "anonymous": false,
      "inputs": [
        {
          "indexed": false,
          "internalType": "address",
          "name": "_instrument",
          "type": "address"
        },
        {
          "indexed": false,
          "internalType": "address",
          "name": "_strategy",
          "type": "address"
        }
      ],
      "name": "InstrumentInterestRateStrategyChanged",
      "type": "event"
    },
    {
      "anonymous": false,
      "inputs": [
        {
          "indexed": true,
          "internalType": "address",
          "name": "_instrument",
          "type": "address"
        }
      ],
      "name": "InstrumentRemoved",
      "type": "event"
    },
    {
      "anonymous": false,
      "inputs": [
        {
          "indexed": false,
          "internalType": "address",
          "name": "instrument",
          "type": "address"
        },
        {
          "indexed": false,
          "internalType": "address",
          "name": "sighStreamProxyAddress",
          "type": "address"
        }
      ],
      "name": "ProxyCreated",
      "type": "event"
    },
    {
      "anonymous": false,
      "inputs": [
        {
          "indexed": true,
          "internalType": "address",
          "name": "_instrument",
          "type": "address"
        },
        {
          "indexed": false,
          "internalType": "bool",
          "name": "isEnabled",
          "type": "bool"
        }
      ],
      "name": "StableRateOnInstrumentSwitched",
      "type": "event"
    },
    {
      "anonymous": false,
      "inputs": [
        {
          "indexed": false,
          "internalType": "address",
          "name": "instrumentAddress",
          "type": "address"
        },
        {
          "indexed": false,
          "internalType": "address",
          "name": "newSighStreamImpl",
          "type": "address"
        }
      ],
      "name": "sighStreamImplUpdated",
      "type": "event"
    },
    {
      "constant": true,
      "inputs": [],
      "name": "CONFIGURATOR_REVISION",
      "outputs": [
        {
          "internalType": "uint256",
          "name": "",
          "type": "uint256"
        }
      ],
      "payable": false,
      "stateMutability": "view",
      "type": "function"
    },
    {
      "constant": true,
      "inputs": [],
      "name": "globalAddressesProvider",
      "outputs": [
        {
          "internalType": "contract IGlobalAddressesProvider",
          "name": "",
          "type": "address"
        }
      ],
      "payable": false,
      "stateMutability": "view",
      "type": "function"
    },
    {
      "constant": false,
      "inputs": [
        {
          "internalType": "contract IGlobalAddressesProvider",
          "name": "_globalAddressesProvider",
          "type": "address"
        }
      ],
      "name": "initialize",
      "outputs": [],
      "payable": false,
      "stateMutability": "nonpayable",
      "type": "function"
    },
    {
      "constant": false,
      "inputs": [
        {
          "internalType": "address",
          "name": "_instrument",
          "type": "address"
        },
        {
          "internalType": "address",
          "name": "iTokenInstance",
          "type": "address"
        },
        {
          "internalType": "address",
          "name": "_interestRateStrategyAddress",
          "type": "address"
        },
        {
          "internalType": "address",
          "name": "sighStreamImplAddress",
          "type": "address"
        }
      ],
      "name": "initInstrument",
      "outputs": [],
      "payable": false,
      "stateMutability": "nonpayable",
      "type": "function"
    },
    {
      "constant": false,
      "inputs": [
        {
          "internalType": "address",
          "name": "_instrument",
          "type": "address"
        },
        {
          "internalType": "bool",
          "name": "switch_",
          "type": "bool"
        }
      ],
      "name": "instrumentActivationSwitch",
      "outputs": [],
      "payable": false,
      "stateMutability": "nonpayable",
      "type": "function"
    },
    {
      "constant": false,
      "inputs": [
        {
          "internalType": "address",
          "name": "_instrument",
          "type": "address"
        },
        {
          "internalType": "bool",
          "name": "borrowRateSwitch",
          "type": "bool"
        }
      ],
      "name": "instrumentBorrowingSwitch",
      "outputs": [],
      "payable": false,
      "stateMutability": "nonpayable",
      "type": "function"
    },
    {
      "constant": false,
      "inputs": [
        {
          "internalType": "address",
          "name": "_instrument",
          "type": "address"
        },
        {
          "internalType": "bool",
          "name": "switchStableBorrowRate",
          "type": "bool"
        }
      ],
      "name": "instrumentStableBorrowRateSwitch",
      "outputs": [],
      "payable": false,
      "stateMutability": "nonpayable",
      "type": "function"
    },
    {
      "constant": false,
      "inputs": [
        {
          "internalType": "address",
          "name": "_instrument",
          "type": "address"
        },
        {
          "internalType": "uint256",
          "name": "_baseLTVasCollateral",
          "type": "uint256"
        },
        {
          "internalType": "uint256",
          "name": "_liquidationThreshold",
          "type": "uint256"
        },
        {
          "internalType": "uint256",
          "name": "_liquidationBonus",
          "type": "uint256"
        }
      ],
      "name": "enableInstrumentAsCollateral",
      "outputs": [],
      "payable": false,
      "stateMutability": "nonpayable",
      "type": "function"
    },
    {
      "constant": false,
      "inputs": [
        {
          "internalType": "address",
          "name": "_instrument",
          "type": "address"
        }
      ],
      "name": "disableInstrumentAsCollateral",
      "outputs": [],
      "payable": false,
      "stateMutability": "nonpayable",
      "type": "function"
    },
    {
      "constant": false,
      "inputs": [
        {
          "internalType": "address",
          "name": "_instrument",
          "type": "address"
        },
        {
          "internalType": "bool",
          "name": "switch_",
          "type": "bool"
        }
      ],
      "name": "instrumentFreezeSwitch",
      "outputs": [],
      "payable": false,
      "stateMutability": "nonpayable",
      "type": "function"
    },
    {
      "constant": false,
      "inputs": [
        {
          "internalType": "address",
          "name": "_instrument",
          "type": "address"
        },
        {
          "internalType": "uint256",
          "name": "_ltv",
          "type": "uint256"
        },
        {
          "internalType": "uint256",
          "name": "_threshold",
          "type": "uint256"
        },
        {
          "internalType": "uint256",
          "name": "_bonus",
          "type": "uint256"
        }
      ],
      "name": "setInstrumentCollateralParameters",
      "outputs": [],
      "payable": false,
      "stateMutability": "nonpayable",
      "type": "function"
    },
    {
      "constant": false,
      "inputs": [
        {
          "internalType": "address",
          "name": "_instrument",
          "type": "address"
        },
        {
          "internalType": "address",
          "name": "_rateStrategyAddress",
          "type": "address"
        }
      ],
      "name": "setInstrumentInterestRateStrategyAddress",
      "outputs": [],
      "payable": false,
      "stateMutability": "nonpayable",
      "type": "function"
    },
    {
      "constant": false,
      "inputs": [
        {
          "internalType": "address",
          "name": "_instrument",
          "type": "address"
        },
        {
          "internalType": "uint256",
          "name": "decimals",
          "type": "uint256"
        }
      ],
      "name": "setInstrumentDecimals",
      "outputs": [],
      "payable": false,
      "stateMutability": "nonpayable",
      "type": "function"
    },
    {
      "constant": false,
      "inputs": [],
      "name": "refreshLendingPoolCoreConfiguration",
      "outputs": [],
      "payable": false,
      "stateMutability": "nonpayable",
      "type": "function"
    },
    {
      "constant": false,
      "inputs": [],
      "name": "refreshLendingPoolConfiguration",
      "outputs": [],
      "payable": false,
      "stateMutability": "nonpayable",
      "type": "function"
    },
    {
      "constant": false,
      "inputs": [
        {
          "internalType": "address",
          "name": "newSighStreamImpl",
          "type": "address"
        },
        {
          "internalType": "address",
          "name": "instrumentAddress",
          "type": "address"
        },
        {
          "internalType": "address",
          "name": "iTokenAddress",
          "type": "address"
        }
      ],
      "name": "updateSIGHStreamForInstrument",
      "outputs": [],
      "payable": false,
      "stateMutability": "nonpayable",
      "type": "function"
    },
    {
      "constant": true,
      "inputs": [
        {
          "internalType": "address",
          "name": "instrumentAddress",
          "type": "address"
        }
      ],
      "name": "getSighStreamAddress",
      "outputs": [
        {
          "internalType": "address",
          "name": "sighStreamProxyAddress",
          "type": "address"
        }
      ],
      "payable": false,
      "stateMutability": "view",
      "type": "function"
    }
  ],
  "bytecode": "0x60806040526000805534801561001457600080fd5b50612adb806100246000396000f3fe608060405234801561001057600080fd5b506004361061010b5760003560e01c8063d02106af116100a2578063e6df474e11610071578063e6df474e146102da578063ea84c1ba14610312578063ece9491814610338578063edf7906a14610376578063fc7417761461039c5761010b565b8063d02106af14610264578063db82201e14610292578063dfc75726146102ca578063e12dcc6c146102d25761010b565b80637af635a6116100de5780637af635a6146101ca57806380356143146101e4578063c4d66de814610212578063cc9334b2146102385761010b565b80630219b9c5146101105780632cc0c997146101345780635610992a1461016e57806372e8d22a1461019c575b600080fd5b6101186103ca565b604080516001600160a01b039092168252519081900360200190f35b61016c6004803603606081101561014a57600080fd5b506001600160a01b0381358116916020810135821691604090910135166103d9565b005b61016c6004803603604081101561018457600080fd5b506001600160a01b0381358116916020013516610617565b61016c600480360360408110156101b257600080fd5b506001600160a01b03813516906020013515156107f5565b6101d26109cf565b60408051918252519081900360200190f35b61016c600480360360408110156101fa57600080fd5b506001600160a01b03813516906020013515156109d4565b61016c6004803603602081101561022857600080fd5b50356001600160a01b0316610bae565b61016c6004803603604081101561024e57600080fd5b506001600160a01b038135169060200135610c66565b61016c6004803603604081101561027a57600080fd5b506001600160a01b0381351690602001351515610e42565b61016c600480360360808110156102a857600080fd5b506001600160a01b03813516906020810135906040810135906060013561101c565b61016c611215565b61016c61139b565b61016c600480360360808110156102f057600080fd5b506001600160a01b038135169060208101359060408101359060600135611506565b61016c6004803603602081101561032857600080fd5b50356001600160a01b03166116fa565b61016c6004803603608081101561034e57600080fd5b506001600160a01b0381358116916020810135821691604082013581169160600135166118be565b6101186004803603602081101561038c57600080fd5b50356001600160a01b0316611b53565b61016c600480360360408110156103b257600080fd5b506001600160a01b0381351690602001351515611b71565b6034546001600160a01b031681565b603454604080516333128d5960e01b8152905133926001600160a01b0316916333128d59916004808301926020929190829003018186803b15801561041d57600080fd5b505afa158015610431573d6000803e3d6000fd5b505050506040513d602081101561044757600080fd5b50516001600160a01b03161461048e5760405162461bcd60e51b8152600401808060200182810382526029815260200180612a246029913960400191505060405180910390fd5b6034546040805163076b7fbb60e51b815290516000926001600160a01b03169163ed6ff760916004808301926020929190829003018186803b1580156104d357600080fd5b505afa1580156104e7573d6000803e3d6000fd5b505050506040513d60208110156104fd57600080fd5b505160408051630557d36f60e51b81526001600160a01b0386811660048301529151929350818516929184169163aafa6de091602480820192602092909190829003018186803b15801561055057600080fd5b505afa158015610564573d6000803e3d6000fd5b505050506040513d602081101561057a57600080fd5b50516001600160a01b0316146105c15760405162461bcd60e51b815260040180806020018281038252602c815260200180612a7b602c913960400191505060405180910390fd5b6105cc848484611d4b565b604080516001600160a01b0380861682528616602082015281517f5dd5c333e38d2fae0329914d27ea0c4e8b7cdf1fa564ddcd709371c6032c3301929181900390910190a150505050565b603454604080516333128d5960e01b8152905133926001600160a01b0316916333128d59916004808301926020929190829003018186803b15801561065b57600080fd5b505afa15801561066f573d6000803e3d6000fd5b505050506040513d602081101561068557600080fd5b50516001600160a01b0316146106cc5760405162461bcd60e51b8152600401808060200182810382526029815260200180612a246029913960400191505060405180910390fd5b6034546040805163076b7fbb60e51b815290516000926001600160a01b03169163ed6ff760916004808301926020929190829003018186803b15801561071157600080fd5b505afa158015610725573d6000803e3d6000fd5b505050506040513d602081101561073b57600080fd5b505160408051632b084c9560e11b81526001600160a01b0386811660048301528581166024830152915192935090831691635610992a9160448082019260009290919082900301818387803b15801561079357600080fd5b505af11580156107a7573d6000803e3d6000fd5b5050604080516001600160a01b0380881682528616602082015281517f7ddf594bd91d57b513304df0960abe8f0784f961c752fba776680e2fad15d5919450908190039091019150a1505050565b603454604080516333128d5960e01b8152905133926001600160a01b0316916333128d59916004808301926020929190829003018186803b15801561083957600080fd5b505afa15801561084d573d6000803e3d6000fd5b505050506040513d602081101561086357600080fd5b50516001600160a01b0316146108aa5760405162461bcd60e51b8152600401808060200182810382526029815260200180612a246029913960400191505060405180910390fd5b6034546040805163076b7fbb60e51b815290516000926001600160a01b03169163ed6ff760916004808301926020929190829003018186803b1580156108ef57600080fd5b505afa158015610903573d6000803e3d6000fd5b505050506040513d602081101561091957600080fd5b505160408051633974691560e11b81526001600160a01b03868116600483015285151560248301529151929350908316916372e8d22a9160448082019260009290919082900301818387803b15801561097157600080fd5b505af1158015610985573d6000803e3d6000fd5b505060408051851515815290516001600160a01b03871693507f974c320af43f49927fec74aa6de3d09c5e5cc092f750b63f3cc758279912c6a092509081900360200190a2505050565b600281565b603454604080516333128d5960e01b8152905133926001600160a01b0316916333128d59916004808301926020929190829003018186803b158015610a1857600080fd5b505afa158015610a2c573d6000803e3d6000fd5b505050506040513d6020811015610a4257600080fd5b50516001600160a01b031614610a895760405162461bcd60e51b8152600401808060200182810382526029815260200180612a246029913960400191505060405180910390fd5b6034546040805163076b7fbb60e51b815290516000926001600160a01b03169163ed6ff760916004808301926020929190829003018186803b158015610ace57600080fd5b505afa158015610ae2573d6000803e3d6000fd5b505050506040513d6020811015610af857600080fd5b50516040805163b94cc1a960e01b81526001600160a01b038681166004830152851515602483015291519293509083169163b94cc1a99160448082019260009290919082900301818387803b158015610b5057600080fd5b505af1158015610b64573d6000803e3d6000fd5b505060408051851515815290516001600160a01b03871693507f1fa8b035f4f8d885ac48ebd7183b553c18c380b4c5e7a306644c8c639a53987f92509081900360200190a2505050565b6000610bb8611e89565b60015490915060ff1680610bcf5750610bcf611e8e565b80610bdb575060005481115b610c165760405162461bcd60e51b815260040180806020018281038252602e815260200180612a4d602e913960400191505060405180910390fd5b60015460ff16158015610c35576001805460ff19168117905560008290555b603480546001600160a01b0319166001600160a01b0385161790558015610c61576001805460ff191690555b505050565b603454604080516333128d5960e01b8152905133926001600160a01b0316916333128d59916004808301926020929190829003018186803b158015610caa57600080fd5b505afa158015610cbe573d6000803e3d6000fd5b505050506040513d6020811015610cd457600080fd5b50516001600160a01b031614610d1b5760405162461bcd60e51b8152600401808060200182810382526029815260200180612a246029913960400191505060405180910390fd5b6034546040805163076b7fbb60e51b815290516000926001600160a01b03169163ed6ff760916004808301926020929190829003018186803b158015610d6057600080fd5b505afa158015610d74573d6000803e3d6000fd5b505050506040513d6020811015610d8a57600080fd5b5051604080516366499a5960e11b81526001600160a01b0386811660048301526024820186905291519293509083169163cc9334b29160448082019260009290919082900301818387803b158015610de157600080fd5b505af1158015610df5573d6000803e3d6000fd5b5050604080516001600160a01b03871681526020810186905281517f73074458b03427a5a116d577679dfc472f2d0eec07874e0a43ef07502166eaf29450908190039091019150a1505050565b603454604080516333128d5960e01b8152905133926001600160a01b0316916333128d59916004808301926020929190829003018186803b158015610e8657600080fd5b505afa158015610e9a573d6000803e3d6000fd5b505050506040513d6020811015610eb057600080fd5b50516001600160a01b031614610ef75760405162461bcd60e51b8152600401808060200182810382526029815260200180612a246029913960400191505060405180910390fd5b6034546040805163076b7fbb60e51b815290516000926001600160a01b03169163ed6ff760916004808301926020929190829003018186803b158015610f3c57600080fd5b505afa158015610f50573d6000803e3d6000fd5b505050506040513d6020811015610f6657600080fd5b50516040805163480222eb60e01b81526001600160a01b038681166004830152851515602483015291519293509083169163480222eb9160448082019260009290919082900301818387803b158015610fbe57600080fd5b505af1158015610fd2573d6000803e3d6000fd5b505060408051851515815290516001600160a01b03871693507f856f3d496e29b3a6b19b231f6fa648aabeb63fff6c88f7c674feeec72bc3eceb92509081900360200190a2505050565b603454604080516333128d5960e01b8152905133926001600160a01b0316916333128d59916004808301926020929190829003018186803b15801561106057600080fd5b505afa158015611074573d6000803e3d6000fd5b505050506040513d602081101561108a57600080fd5b50516001600160a01b0316146110d15760405162461bcd60e51b8152600401808060200182810382526029815260200180612a246029913960400191505060405180910390fd5b6034546040805163076b7fbb60e51b815290516000926001600160a01b03169163ed6ff760916004808301926020929190829003018186803b15801561111657600080fd5b505afa15801561112a573d6000803e3d6000fd5b505050506040513d602081101561114057600080fd5b50516040805163113429ef60e21b81526001600160a01b0388811660048301526024820188905260448201879052606482018690529151929350908316916344d0a7bc9160848082019260009290919082900301818387803b1580156111a557600080fd5b505af11580156111b9573d6000803e3d6000fd5b5050604080516001600160a01b0389168152602081018890528082018790526060810186905290517f7a945ded648e39bd21ad7d71e7873500e27b67d0b6a19c78b16fc54d9a5526d29350908190036080019150a15050505050565b603454604080516333128d5960e01b8152905133926001600160a01b0316916333128d59916004808301926020929190829003018186803b15801561125957600080fd5b505afa15801561126d573d6000803e3d6000fd5b505050506040513d602081101561128357600080fd5b50516001600160a01b0316146112ca5760405162461bcd60e51b8152600401808060200182810382526029815260200180612a246029913960400191505060405180910390fd5b60345460408051630261bf8b60e01b815290516000926001600160a01b031691630261bf8b916004808301926020929190829003018186803b15801561130f57600080fd5b505afa158015611323573d6000803e3d6000fd5b505050506040513d602081101561133957600080fd5b505160408051637c55ccb360e01b815290519192506001600160a01b03831691637c55ccb39160048082019260009290919082900301818387803b15801561138057600080fd5b505af1158015611394573d6000803e3d6000fd5b5050505050565b603454604080516333128d5960e01b8152905133926001600160a01b0316916333128d59916004808301926020929190829003018186803b1580156113df57600080fd5b505afa1580156113f3573d6000803e3d6000fd5b505050506040513d602081101561140957600080fd5b50516001600160a01b0316146114505760405162461bcd60e51b8152600401808060200182810382526029815260200180612a246029913960400191505060405180910390fd5b6034546040805163076b7fbb60e51b815290516000926001600160a01b03169163ed6ff760916004808301926020929190829003018186803b15801561149557600080fd5b505afa1580156114a9573d6000803e3d6000fd5b505050506040513d60208110156114bf57600080fd5b505160408051636468108360e01b815290519192506001600160a01b0383169163646810839160048082019260009290919082900301818387803b15801561138057600080fd5b603454604080516333128d5960e01b8152905133926001600160a01b0316916333128d59916004808301926020929190829003018186803b15801561154a57600080fd5b505afa15801561155e573d6000803e3d6000fd5b505050506040513d602081101561157457600080fd5b50516001600160a01b0316146115bb5760405162461bcd60e51b8152600401808060200182810382526029815260200180612a246029913960400191505060405180910390fd5b6034546040805163076b7fbb60e51b815290516000926001600160a01b03169163ed6ff760916004808301926020929190829003018186803b15801561160057600080fd5b505afa158015611614573d6000803e3d6000fd5b505050506040513d602081101561162a57600080fd5b50516040805163736fa3a760e11b81526001600160a01b03888116600483015260248201889052604482018790526064820186905291519293509083169163e6df474e9160848082019260009290919082900301818387803b15801561168f57600080fd5b505af11580156116a3573d6000803e3d6000fd5b5050604080518781526020810187905280820186905290516001600160a01b03891693507f10e5d9a0efcc9bede103d0c012f529b50e270e64ce13f55992b5b84a3478705792509081900360600190a25050505050565b603454604080516333128d5960e01b8152905133926001600160a01b0316916333128d59916004808301926020929190829003018186803b15801561173e57600080fd5b505afa158015611752573d6000803e3d6000fd5b505050506040513d602081101561176857600080fd5b50516001600160a01b0316146117af5760405162461bcd60e51b8152600401808060200182810382526029815260200180612a246029913960400191505060405180910390fd5b6034546040805163076b7fbb60e51b815290516000926001600160a01b03169163ed6ff760916004808301926020929190829003018186803b1580156117f457600080fd5b505afa158015611808573d6000803e3d6000fd5b505050506040513d602081101561181e57600080fd5b50516040805163754260dd60e11b81526001600160a01b03858116600483015291519293509083169163ea84c1ba9160248082019260009290919082900301818387803b15801561186e57600080fd5b505af1158015611882573d6000803e3d6000fd5b50506040516001600160a01b03851692507f7a96c2cfd8773b6e9c0a63317e5ddd8ce5949e0c4bd20d25a47e71aee74500d79150600090a25050565b603454604080516333128d5960e01b8152905133926001600160a01b0316916333128d59916004808301926020929190829003018186803b15801561190257600080fd5b505afa158015611916573d6000803e3d6000fd5b505050506040513d602081101561192c57600080fd5b50516001600160a01b0316146119735760405162461bcd60e51b8152600401808060200182810382526029815260200180612a246029913960400191505060405180910390fd5b60008490506000816001600160a01b031663313ce5676040518163ffffffff1660e01b815260040160206040518083038186803b1580156119b357600080fd5b505afa1580156119c7573d6000803e3d6000fd5b505050506040513d60208110156119dd57600080fd5b505190506119ec838787611e94565b6001600160a01b03808716600090815260356020908152604080832054603454825163076b7fbb60e51b8152925191861695169263ed6ff7609260048082019391829003018186803b158015611a4157600080fd5b505afa158015611a55573d6000803e3d6000fd5b505050506040513d6020811015611a6b57600080fd5b505160408051630c7cba4d60e11b81526001600160a01b038b811660048301528a8116602483015260ff87166044830152898116606483015285811660848301529151929350908316916318f9749a9160a48082019260009290919082900301818387803b158015611adc57600080fd5b505af1158015611af0573d6000803e3d6000fd5b5050604080516001600160a01b038a811682528681166020830152898116828401529151828c169450918c1692507f176e8ae328730f0f9f6a81c0ca06ceb2cf453a68738621ab70acdd919ec43867919081900360600190a35050505050505050565b6001600160a01b039081166000908152603560205260409020541690565b603454604080516333128d5960e01b8152905133926001600160a01b0316916333128d59916004808301926020929190829003018186803b158015611bb557600080fd5b505afa158015611bc9573d6000803e3d6000fd5b505050506040513d6020811015611bdf57600080fd5b50516001600160a01b031614611c265760405162461bcd60e51b8152600401808060200182810382526029815260200180612a246029913960400191505060405180910390fd5b6034546040805163076b7fbb60e51b815290516000926001600160a01b03169163ed6ff760916004808301926020929190829003018186803b158015611c6b57600080fd5b505afa158015611c7f573d6000803e3d6000fd5b505050506040513d6020811015611c9557600080fd5b50516040805163fa2968c360e01b81526001600160a01b038681166004830152851515602483015291519293509083169163fa2968c39160448082019260009290919082900301818387803b158015611ced57600080fd5b505af1158015611d01573d6000803e3d6000fd5b505060408051851515815290516001600160a01b03871693507fd97b6a06f16a156d335aa5ac72849fc16312aa03e4a0223da7a933308cdd340892509081900360200190a2505050565b6001600160a01b0380831660008181526035602090815260408083205460345482519087166024808301919091526044808301979097528888166064808401919091528451808403820181526084909301855294820180516001600160e01b031663c0c53b8b60e01b178152845163278f794360e11b81528c8a166004820190815292810195865283519881019890985282519390981697889792968896634f1ef286968e968a96919491909201929091908190849084905b83811015611e1c578181015183820152602001611e04565b50505050905090810190601f168015611e495780820380516001836020036101000a031916815260200191505b509350505050600060405180830381600087803b158015611e6957600080fd5b505af1158015611e7d573d6000803e3d6000fd5b50505050505050505050565b600290565b303b1590565b603454604080516001600160a01b039283166024820152848316604482015291831660648084019190915281518084039091018152608490920181526020820180516001600160e01b031663c0c53b8b60e01b17905251600090611ef79061207a565b604051809103906000f080158015611f13573d6000803e3d6000fd5b509050806001600160a01b031663cf7a1d778630856040518463ffffffff1660e01b815260040180846001600160a01b03166001600160a01b03168152602001836001600160a01b03166001600160a01b0316815260200180602001828103825283818151815260200191508051906020019080838360005b83811015611fa4578181015183820152602001611f8c565b50505050905090810190601f168015611fd15780820380516001836020036101000a031916815260200191505b50945050505050600060405180830381600087803b158015611ff257600080fd5b505af1158015612006573d6000803e3d6000fd5b505050506001600160a01b0384811660008181526035602090815260409182902080546001600160a01b0319169486169485179055815192835282019290925281517f9678a1e87ca9f1a37dc659a97b39d812d98cd236947e1b53b3d0d6fd346acb6e929181900390910190a15050505050565b61099c806120888339019056fe608060405234801561001057600080fd5b5061097c806100206000396000f3fe6080604052600436106100705760003560e01c80638f2839701161004e5780638f2839701461015e578063cf7a1d7714610191578063d1f5789414610250578063f851a4401461030657610070565b80633659cfe61461007a5780634f1ef286146100ad5780635c60da1b1461012d575b61007861031b565b005b34801561008657600080fd5b506100786004803603602081101561009d57600080fd5b50356001600160a01b0316610335565b610078600480360360408110156100c357600080fd5b6001600160a01b0382351691908101906040810160208201356401000000008111156100ee57600080fd5b82018360208201111561010057600080fd5b8035906020019184600183028401116401000000008311171561012257600080fd5b50909250905061036f565b34801561013957600080fd5b5061014261041c565b604080516001600160a01b039092168252519081900360200190f35b34801561016a57600080fd5b506100786004803603602081101561018157600080fd5b50356001600160a01b0316610459565b610078600480360360608110156101a757600080fd5b6001600160a01b0382358116926020810135909116918101906060810160408201356401000000008111156101db57600080fd5b8201836020820111156101ed57600080fd5b8035906020019184600183028401116401000000008311171561020f57600080fd5b91908080601f016020809104026020016040519081016040528093929190818152602001838380828437600092019190915250929550610513945050505050565b6100786004803603604081101561026657600080fd5b6001600160a01b03823516919081019060408101602082013564010000000081111561029157600080fd5b8201836020820111156102a357600080fd5b803590602001918460018302840111640100000000831117156102c557600080fd5b91908080601f016020809104026020016040519081016040528093929190818152602001838380828437600092019190915250929550610599945050505050565b34801561031257600080fd5b506101426106d9565b610323610704565b61033361032e610764565b610789565b565b61033d6107ad565b6001600160a01b0316336001600160a01b031614156103645761035f816107d2565b61036c565b61036c61031b565b50565b6103776107ad565b6001600160a01b0316336001600160a01b0316141561040f57610399836107d2565b6000836001600160a01b031683836040518083838082843760405192019450600093509091505080830381855af49150503d80600081146103f6576040519150601f19603f3d011682016040523d82523d6000602084013e6103fb565b606091505b505090508061040957600080fd5b50610417565b61041761031b565b505050565b60006104266107ad565b6001600160a01b0316336001600160a01b0316141561044e57610447610764565b9050610456565b61045661031b565b90565b6104616107ad565b6001600160a01b0316336001600160a01b03161415610364576001600160a01b0381166104bf5760405162461bcd60e51b81526004018080602001828103825260368152602001806108d76036913960400191505060405180910390fd5b7f7e644d79422f17c01e4894b5f4f588d331ebfa28653d42ae832dc59e38c9798f6104e86107ad565b604080516001600160a01b03928316815291841660208301528051918290030190a161035f81610812565b600061051d610764565b6001600160a01b03161461053057600080fd5b61053a8382610599565b604080517232b4b8189c9b1b97383937bc3c9730b236b4b760691b815290519081900360130190207fb53127684a568b3173ae13b9f8a6016e243e63b6e8ee1178d6a717850b5d61036000199091011461059057fe5b61041782610812565b60006105a3610764565b6001600160a01b0316146105b657600080fd5b604080517f656970313936372e70726f78792e696d706c656d656e746174696f6e000000008152905190819003601c0190207f360894a13ba1a3210667c828492db98dca3e2076cc3735a920a3ca505d382bbc6000199091011461061657fe5b61061f82610836565b8051156106d5576000826001600160a01b0316826040518082805190602001908083835b602083106106625780518252601f199092019160209182019101610643565b6001836020036101000a038019825116818451168082178552505050505050905001915050600060405180830381855af49150503d80600081146106c2576040519150601f19603f3d011682016040523d82523d6000602084013e6106c7565b606091505b505090508061041757600080fd5b5050565b60006106e36107ad565b6001600160a01b0316336001600160a01b0316141561044e576104476107ad565b61070c6107ad565b6001600160a01b0316336001600160a01b0316141561075c5760405162461bcd60e51b81526004018080602001828103825260328152602001806108a56032913960400191505060405180910390fd5b610333610333565b7f360894a13ba1a3210667c828492db98dca3e2076cc3735a920a3ca505d382bbc5490565b3660008037600080366000845af43d6000803e8080156107a8573d6000f35b3d6000fd5b7fb53127684a568b3173ae13b9f8a6016e243e63b6e8ee1178d6a717850b5d61035490565b6107db81610836565b6040516001600160a01b038216907fbc7cd75a20ee27fd9adebab32041f755214dbc6bffa90cc0225b39da2e5c2d3b90600090a250565b7fb53127684a568b3173ae13b9f8a6016e243e63b6e8ee1178d6a717850b5d610355565b61083f8161089e565b61087a5760405162461bcd60e51b815260040180806020018281038252603b81526020018061090d603b913960400191505060405180910390fd5b7f360894a13ba1a3210667c828492db98dca3e2076cc3735a920a3ca505d382bbc55565b3b15159056fe43616e6e6f742063616c6c2066616c6c6261636b2066756e6374696f6e2066726f6d207468652070726f78792061646d696e43616e6e6f74206368616e6765207468652061646d696e206f6620612070726f787920746f20746865207a65726f206164647265737343616e6e6f742073657420612070726f787920696d706c656d656e746174696f6e20746f2061206e6f6e2d636f6e74726163742061646472657373a265627a7a7231582035aa27aa36b5d80fc92ba0c8c4c4254b013fd1e4dcfed8037e5483c11df8b7f964736f6c634300051000325468652063616c6c6572206d7573742062652061206c656e64696e6720706f6f6c206d616e61676572436f6e747261637420696e7374616e63652068617320616c7265616479206265656e20696e697469616c697a656457726f6e6720696e737472756d656e74202d2049546f6b656e206164647265737365732070726f7669646564a265627a7a72315820c61160527ec1aa2816553a50dc34fa9f16d5dad41c19578f0804fc5919765a8c64736f6c63430005100032",
  "source": "pragma solidity ^0.5.0;\n\n// import \"openzeppelin-solidity/contracts/math/SafeMath.sol\";\nimport \"../../openzeppelin-upgradeability/VersionedInitializable.sol\";\nimport \"../../openzeppelin-upgradeability/InitializableAdminUpgradeabilityProxy.sol\";\nimport \"../../configuration/GlobalAddressesProvider.sol\";\n// import \"../IToken.sol\";\n// import \"../SighStream.sol\";\nimport \"openzeppelin-solidity/contracts/token/ERC20/ERC20Detailed.sol\";\nimport \"../interfaces/ILendingPoolCore.sol\";\nimport \"../interfaces/ILendingPool.sol\";\n\n\n/**\n* @title LendingPoolConfigurator contract\n* @author Aave, SIGH Finance (modified by SIGH FINANCE)\n* @notice Executes configuration methods on the LendingPoolCore contract. Allows to enable/disable instruments,\n* and set different protocol parameters.\n**/\n\ncontract LendingPoolConfigurator is VersionedInitializable  {\n\n    // using SafeMath for uint256;\n    IGlobalAddressesProvider public globalAddressesProvider;\n    \n    mapping (address => address) private sighStreamProxies;\n// ######################\n// ####### EVENTS #######\n// ######################\n\n    /**\n    * @dev emitted when a instrument is initialized.\n    * @param _instrument the address of the instrument\n    * @param _iToken the address of the overlying iToken contract\n    * @param _interestRateStrategyAddress the address of the interest rate strategy for the instrument\n    **/\n    event InstrumentInitialized( address indexed _instrument, address indexed _iToken, address _interestRateStrategyAddress, address sighStreamAddress, address sighStreamImplAddress );\n    event InstrumentRemoved( address indexed _instrument);      // emitted when a instrument is removed.\n\n    event BorrowingOnInstrumentSwitched(address indexed _instrument, bool switch_ );     \n    event StableRateOnInstrumentSwitched(address indexed _instrument, bool isEnabled);          // emitted when stable rate borrowing is switched on a instrument\n    event InstrumentActivationSwitched(address indexed _instrument, bool switch_ );           \n    event InstrumentFreezeSwitched(address indexed _instrument, bool isFreezed);                      // emitted when a instrument is freezed    \n\n    /**\n    * @dev emitted when a instrument is enabled as collateral.\n    * @param _instrument the address of the instrument\n    * @param _ltv the loan to value of the asset when used as collateral\n    * @param _liquidationThreshold the threshold at which loans using this asset as collateral will be considered undercollateralized\n    * @param _liquidationBonus the bonus liquidators receive to liquidate this asset\n    **/\n    event InstrumentEnabledAsCollateral(  address indexed _instrument,  uint256 _ltv,  uint256 _liquidationThreshold,  uint256 _liquidationBonus );    \n    event InstrumentDisabledAsCollateral(address indexed _instrument);         // emitted when a instrument is disabled as collateral\n\n\n    event InstrumentCollateralParametersUpdated(address _instrument,uint256 _ltv,  uint256 _liquidationThreshold,  uint256 _liquidationBonus );     \n    event InstrumentInterestRateStrategyChanged(address _instrument, address _strategy);      // emitted when a _instrument interest strategy contract is updated\n    event InstrumentDecimalsUpdated(address _instrument,uint256 decimals);\n\n    event sighStreamImplUpdated(address instrumentAddress,address newSighStreamImpl );\n    event ProxyCreated(address instrument, address  sighStreamProxyAddress);\n    \n// #############################\n// ####### PROXY RELATED #######\n// #############################\n\n    uint256 public constant CONFIGURATOR_REVISION = 0x2;\n\n    function getRevision() internal pure returns (uint256) {\n        return CONFIGURATOR_REVISION;\n    }\n\n    function initialize(IGlobalAddressesProvider _globalAddressesProvider) public initializer {\n        globalAddressesProvider = _globalAddressesProvider;\n    }\n\n// ########################\n// ####### MODIFIER #######\n// ########################\n    /**\n    * @dev only the lending pool manager can call functions affected by this modifier\n    **/\n    modifier onlyLendingPoolManager {\n        require( globalAddressesProvider.getLendingPoolManager() == msg.sender, \"The caller must be a lending pool manager\" );\n        _;\n    }\n\n// ################################################################################################\n// ####### INITIALIZE A NEW INSTRUMENT (Deploys a new IToken Contract for the INSTRUMENT) #########\n// ################################################################################################\n\n    /**\n    * @dev initializes an instrument\n    * @param _instrument the address of the instrument to be initialized\n    * @param _interestRateStrategyAddress the address of the interest rate strategy contract for this instrument\n    **/\n    function initInstrument( address _instrument, address iTokenInstance,  address _interestRateStrategyAddress, address sighStreamImplAddress) external onlyLendingPoolManager {\n        ERC20Detailed asset = ERC20Detailed(_instrument);\n\n        // string memory iTokenName = string(abi.encodePacked(\" Yield Farming Instrument - \", asset.name()));\n        // string memory iTokenSymbol = string(abi.encodePacked(\"I-\", asset.symbol()));\n        uint8 decimals = uint8(asset.decimals());\n\n        // Deploying IToken And Sigh Stream Contracts\n        // IToken iTokenInstance = new IToken( address(globalAddressesProvider), _instrument, decimals, iTokenName, iTokenSymbol ); // DEPLOYS A NEW ITOKEN CONTRACT\n        // SighStream sighStreamInstance = new SighStream();\n\n        // creates a Proxy for the SIGH Stream Contract\n        setSighStreamImplInternal(sighStreamImplAddress, _instrument, iTokenInstance );\n\n        address sighStreamProxy = sighStreamProxies[_instrument];\n\n        ILendingPoolCore core = ILendingPoolCore(globalAddressesProvider.getLendingPoolCore());\n        core.initInstrument( _instrument, iTokenInstance, decimals, _interestRateStrategyAddress, sighStreamProxy );\n\n        emit InstrumentInitialized( _instrument, iTokenInstance, _interestRateStrategyAddress,  sighStreamProxy, sighStreamImplAddress  );\n    }\n\n// ###################################################################################################\n// ####### FUNCTIONS WHICH INTERACT WITH LENDINGPOOLCORE CONTRACT ####################################\n// ####### --> removeInstrument() : REMOVE INSTRUMENT    #####################################\n// ####### --> instrumentActivationSwitch()      :      INSTRUMENT ACTIVATION SWITCH ################################\n// ####### --> instrumentBorrowingSwitch()   :   BORROWING SWITCH  #################################\n// ####### --> instrumentStableBorrowRateSwitch()    :     STABLE BORROW RATE SWITCH  ################\n// ####### --> enableInstrumentAsCollateral()    :   COLLATERAL RELATED  ##############################\n// ####### --> disableInstrumentAsCollateral()   :   COLLATERAL RELATED  ##############################\n// ####### --> instrumentFreezeSwitch()     :      FREEZE INSTRUMENT SWITCH #######################################\n// ####### --> setInstrumentCollateralParameters()    :   SETTING COLLATERAL VARIABLES : [LTV, Liquidation Threshold, Liquidation Bonus]  ###########################\n// ####### --> setInstrumentDecimals()               :   SETTING VARIABLES  ###########################\n// ####### --> setInstrumentInterestRateStrategyAddress()     : SETTING INTEREST RATE STRATEGY  #######\n// ####### --> refreshLendingPoolCoreConfiguration()   :   REFRESH THE ADDRESS OF CORE  ###############\n// ###################################################################################################\n\n    // function removeInstrument( address _instrument ) external onlyLendingPoolManager {\n    //     ILendingPoolCore core = ILendingPoolCore(globalAddressesProvider.getLendingPoolCore());\n    //     require(core.removeInstrument( _instrument ),\"Failed to remove instrument\" );\n    //     emit InstrumentRemoved( _instrument );\n    // }\n\n    /**\n    * @dev activates/deactivates a _instrument\n    * @param _instrument the address of the _instrument\n    * @param switch_  true / false to activate / deactivate\n    **/\n    function instrumentActivationSwitch(address _instrument, bool switch_) external onlyLendingPoolManager {\n        ILendingPoolCore core = ILendingPoolCore(globalAddressesProvider.getLendingPoolCore());\n        core.InstrumentActivationSwitch(_instrument, switch_);\n        emit InstrumentActivationSwitched(_instrument, switch_);\n    }\n\n    /**\n    * @dev enables borrowing on a instrument\n    * @param _instrument the address of the instrument\n    * @param borrowRateSwitch true if stable borrow rate needs to be enabled & false if it needs to be disabled\n    **/\n    function instrumentBorrowingSwitch(address _instrument, bool borrowRateSwitch) external onlyLendingPoolManager {\n        ILendingPoolCore core = ILendingPoolCore(globalAddressesProvider.getLendingPoolCore());\n            core.borrowingOnInstrumentSwitch(_instrument, borrowRateSwitch );\n            emit BorrowingOnInstrumentSwitched(_instrument, borrowRateSwitch);\n    }\n\n    /**\n    * @dev switch stable rate borrowing on a instrument\n    * @param _instrument the address of the instrument\n    * @param switchStableBorrowRate true / false to enable / disable\n    **/\n    function instrumentStableBorrowRateSwitch(address _instrument,bool switchStableBorrowRate) external onlyLendingPoolManager {\n        ILendingPoolCore core = ILendingPoolCore(globalAddressesProvider.getLendingPoolCore());\n        core.instrumentStableBorrowRateSwitch(_instrument, switchStableBorrowRate);\n        emit StableRateOnInstrumentSwitched(_instrument, switchStableBorrowRate);        \n    }\n\n    /**\n    * @dev enables a instrument to be used as collateral\n    * @param _instrument the address of the instrument\n    * @param _baseLTVasCollateral the loan to value of the asset when used as collateral\n    * @param _liquidationThreshold the threshold at which loans using this asset as collateral will be considered undercollateralized\n    * @param _liquidationBonus the bonus liquidators receive to liquidate this asset\n    **/\n    function enableInstrumentAsCollateral( address _instrument, uint256 _baseLTVasCollateral, uint256 _liquidationThreshold, uint256 _liquidationBonus ) external onlyLendingPoolManager {\n        ILendingPoolCore core = ILendingPoolCore(globalAddressesProvider.getLendingPoolCore());\n        core.enableInstrumentAsCollateral( _instrument, _baseLTVasCollateral, _liquidationThreshold, _liquidationBonus );\n        emit InstrumentEnabledAsCollateral( _instrument, _baseLTVasCollateral, _liquidationThreshold, _liquidationBonus );\n    }\n\n    /**\n    * @dev disables a instrument as collateral\n    * @param _instrument the address of the instrument\n    **/\n    function disableInstrumentAsCollateral(address _instrument) external onlyLendingPoolManager {\n        ILendingPoolCore core = ILendingPoolCore(globalAddressesProvider.getLendingPoolCore());\n        core.disableInstrumentAsCollateral(_instrument);\n        emit InstrumentDisabledAsCollateral(_instrument);\n    }\n\n    /**\n    * @dev freezes an _instrument. A freezed _instrument doesn't accept any new deposit, borrow or rate swap, but can accept repayments, liquidations, rate rebalances and redeems\n    * @param _instrument the address of the _instrument\n    **/\n    function instrumentFreezeSwitch(address _instrument, bool switch_) external onlyLendingPoolManager {\n        ILendingPoolCore core = ILendingPoolCore(globalAddressesProvider.getLendingPoolCore());\n        core.InstrumentFreezeSwitch(_instrument, switch_);\n        emit InstrumentFreezeSwitched(_instrument,switch_);\n    }\n\n\n    /**\n    * @dev emitted when a _instrument loan to value is updated\n    * @param _instrument the address of the _instrument\n    * @param _ltv the new value for the loan to value\n    **/\n    function setInstrumentCollateralParameters(address _instrument, uint256 _ltv, uint256 _threshold, uint256 _bonus) external onlyLendingPoolManager {\n        ILendingPoolCore core = ILendingPoolCore(globalAddressesProvider.getLendingPoolCore());\n        core.updateInstrumentCollateralParameters(_instrument, _ltv, _threshold, _bonus);\n        emit InstrumentCollateralParametersUpdated(_instrument, _ltv, _threshold, _bonus);\n    }\n\n\n    /**\n    * @dev sets the interest rate strategy of a _instrument\n    * @param _instrument the address of the _instrument\n    * @param _rateStrategyAddress the new address of the interest strategy contract\n    **/\n    function setInstrumentInterestRateStrategyAddress(address _instrument, address _rateStrategyAddress) external onlyLendingPoolManager {\n        ILendingPoolCore core = ILendingPoolCore(globalAddressesProvider.getLendingPoolCore());\n        core.setInstrumentInterestRateStrategyAddress(_instrument, _rateStrategyAddress);\n        emit InstrumentInterestRateStrategyChanged(_instrument, _rateStrategyAddress);\n    }\n    \n    function setInstrumentDecimals(address _instrument, uint decimals) external onlyLendingPoolManager {\n        ILendingPoolCore core = ILendingPoolCore(globalAddressesProvider.getLendingPoolCore());\n        core.setInstrumentDecimals(_instrument, decimals);\n        emit InstrumentDecimalsUpdated(_instrument, decimals);\n    }\n    \n\n    // refreshes the lending pool core configuration to update the cached address\n    function refreshLendingPoolCoreConfiguration() external onlyLendingPoolManager {\n        ILendingPoolCore core = ILendingPoolCore(globalAddressesProvider.getLendingPoolCore());\n        core.refreshConfiguration();\n    }\n\n//   // refreshes the lending pool configuration to update the cached address\n    function refreshLendingPoolConfiguration() external onlyLendingPoolManager {\n        ILendingPool lendingPool = ILendingPool(globalAddressesProvider.getLendingPool());\n        lendingPool.refreshConfig();\n    }\n\n//   // Changes SIGH Stream Contract For an Instrument\n    function updateSIGHStreamForInstrument(  address newSighStreamImpl, address instrumentAddress, address iTokenAddress) external onlyLendingPoolManager {\n        ILendingPoolCore core = ILendingPoolCore(globalAddressesProvider.getLendingPoolCore());\n        require(core.getInstrumentITokenAddress(instrumentAddress) == iTokenAddress,\"Wrong instrument - IToken addresses provided\");\n        updateSighStreamImplInternal(newSighStreamImpl,instrumentAddress,iTokenAddress);\n        emit sighStreamImplUpdated(instrumentAddress,newSighStreamImpl );\n    }\n\n    function getSighStreamAddress(address instrumentAddress) external view returns (address sighStreamProxyAddress) {\n        return sighStreamProxies[instrumentAddress];\n    }\n\n// ############################################# \n// ######  FUNCTION TO UPGRADE THE PROXY #######  \n// #############################################  \n\n    function setSighStreamImplInternal( address _sighStreamAddress, address instrumentAddress, address iTokenAddress ) internal {\n\n        bytes memory params = abi.encodeWithSignature(\"initialize(address,address,address)\", address(globalAddressesProvider),instrumentAddress,iTokenAddress );            // initialize function is called in the new implementation contract\n        InitializableAdminUpgradeabilityProxy proxy = new InitializableAdminUpgradeabilityProxy();\n        proxy.initialize(_sighStreamAddress, address(this), params); \n        sighStreamProxies[instrumentAddress] = address(proxy);\n        emit ProxyCreated(instrumentAddress, address(proxy));\n    }    \n\n    function updateSighStreamImplInternal(address _sighStreamAddress, address instrumentAddress, address iTokenAddress ) internal {\n        // Proxy Contract Address\n        address payable proxyAddress = address(uint160(sighStreamProxies[instrumentAddress] ));\n        InitializableAdminUpgradeabilityProxy proxy = InitializableAdminUpgradeabilityProxy(proxyAddress);\n        bytes memory params = abi.encodeWithSignature(\"initialize(address,address,address)\", address(globalAddressesProvider),instrumentAddress,iTokenAddress );            // initialize function is called in the new implementation contract\n        proxy.upgradeToAndCall(_sighStreamAddress, params);\n    }    \n\n\n}\n",
  "sourcePath": "/Users/apple/Desktop/GITCOIN/Sigh_Finance/SighFinanceContracts/contracts/LendingProtocolContracts/lendingpool/LendingPoolConfigurator.sol",
  "compiler": {
    "name": "solc",
    "version": "0.5.16+commit.9c3226ce.Emscripten.clang"
  },
  "schemaVersion": "3.2.4",
  "updatedAt": "2020-12-08T09:42:16.119Z",
  "devdoc": {
    "author": "Aave, SIGH Finance (modified by SIGH FINANCE)",
    "methods": {
      "disableInstrumentAsCollateral(address)": {
        "details": "disables a instrument as collateral",
        "params": {
          "_instrument": "the address of the instrument*"
        }
      },
      "enableInstrumentAsCollateral(address,uint256,uint256,uint256)": {
        "details": "enables a instrument to be used as collateral",
        "params": {
          "_baseLTVasCollateral": "the loan to value of the asset when used as collateral",
          "_instrument": "the address of the instrument",
          "_liquidationBonus": "the bonus liquidators receive to liquidate this asset*",
          "_liquidationThreshold": "the threshold at which loans using this asset as collateral will be considered undercollateralized"
        }
      },
      "initInstrument(address,address,address,address)": {
        "details": "initializes an instrument",
        "params": {
          "_instrument": "the address of the instrument to be initialized",
          "_interestRateStrategyAddress": "the address of the interest rate strategy contract for this instrument*"
        }
      },
      "instrumentActivationSwitch(address,bool)": {
        "details": "activates/deactivates a _instrument",
        "params": {
          "_instrument": "the address of the _instrument",
          "switch_": "true / false to activate / deactivate*"
        }
      },
      "instrumentBorrowingSwitch(address,bool)": {
        "details": "enables borrowing on a instrument",
        "params": {
          "_instrument": "the address of the instrument",
          "borrowRateSwitch": "true if stable borrow rate needs to be enabled & false if it needs to be disabled*"
        }
      },
      "instrumentFreezeSwitch(address,bool)": {
        "details": "freezes an _instrument. A freezed _instrument doesn't accept any new deposit, borrow or rate swap, but can accept repayments, liquidations, rate rebalances and redeems",
        "params": {
          "_instrument": "the address of the _instrument*"
        }
      },
      "instrumentStableBorrowRateSwitch(address,bool)": {
        "details": "switch stable rate borrowing on a instrument",
        "params": {
          "_instrument": "the address of the instrument",
          "switchStableBorrowRate": "true / false to enable / disable*"
        }
      },
      "setInstrumentCollateralParameters(address,uint256,uint256,uint256)": {
        "details": "emitted when a _instrument loan to value is updated",
        "params": {
          "_instrument": "the address of the _instrument",
          "_ltv": "the new value for the loan to value*"
        }
      },
      "setInstrumentInterestRateStrategyAddress(address,address)": {
        "details": "sets the interest rate strategy of a _instrument",
        "params": {
          "_instrument": "the address of the _instrument",
          "_rateStrategyAddress": "the new address of the interest strategy contract*"
        }
      }
    },
    "title": "LendingPoolConfigurator contract"
  },
  "userdoc": {
    "methods": {},
    "notice": "Executes configuration methods on the LendingPoolCore contract. Allows to enable/disable instruments, and set different protocol parameters.*"
  }
}