{
  "contractName": "LendingPoolConfigurator",
  "abi": [
    {
      "anonymous": false,
      "inputs": [
        {
          "indexed": true,
          "internalType": "address",
          "name": "_instrument",
          "type": "address"
        }
      ],
      "name": "BorrowingDisabledOnInstrument",
      "type": "event"
    },
    {
      "anonymous": false,
      "inputs": [
        {
          "indexed": false,
          "internalType": "address",
          "name": "_instrument",
          "type": "address"
        },
        {
          "indexed": false,
          "internalType": "bool",
          "name": "_stableRateEnabled",
          "type": "bool"
        }
      ],
      "name": "BorrowingEnabledOnInstrument",
      "type": "event"
    },
    {
      "anonymous": false,
      "inputs": [
        {
          "indexed": true,
          "internalType": "address",
          "name": "_instrument",
          "type": "address"
        }
      ],
      "name": "InstrumentActivated",
      "type": "event"
    },
    {
      "anonymous": false,
      "inputs": [
        {
          "indexed": false,
          "internalType": "address",
          "name": "_instrument",
          "type": "address"
        },
        {
          "indexed": false,
          "internalType": "uint256",
          "name": "_ltv",
          "type": "uint256"
        }
      ],
      "name": "InstrumentBaseLtvChanged",
      "type": "event"
    },
    {
      "anonymous": false,
      "inputs": [
        {
          "indexed": true,
          "internalType": "address",
          "name": "_instrument",
          "type": "address"
        }
      ],
      "name": "InstrumentDeactivated",
      "type": "event"
    },
    {
      "anonymous": false,
      "inputs": [
        {
          "indexed": true,
          "internalType": "address",
          "name": "_instrument",
          "type": "address"
        }
      ],
      "name": "InstrumentDisabledAsCollateral",
      "type": "event"
    },
    {
      "anonymous": false,
      "inputs": [
        {
          "indexed": true,
          "internalType": "address",
          "name": "_instrument",
          "type": "address"
        },
        {
          "indexed": false,
          "internalType": "uint256",
          "name": "_ltv",
          "type": "uint256"
        },
        {
          "indexed": false,
          "internalType": "uint256",
          "name": "_liquidationThreshold",
          "type": "uint256"
        },
        {
          "indexed": false,
          "internalType": "uint256",
          "name": "_liquidationBonus",
          "type": "uint256"
        }
      ],
      "name": "InstrumentEnabledAsCollateral",
      "type": "event"
    },
    {
      "anonymous": false,
      "inputs": [
        {
          "indexed": true,
          "internalType": "address",
          "name": "_instrument",
          "type": "address"
        },
        {
          "indexed": false,
          "internalType": "bool",
          "name": "isFreezed",
          "type": "bool"
        }
      ],
      "name": "InstrumentFreezeSwitched",
      "type": "event"
    },
    {
      "anonymous": false,
      "inputs": [
        {
          "indexed": true,
          "internalType": "address",
          "name": "_instrument",
          "type": "address"
        },
        {
          "indexed": true,
          "internalType": "address",
          "name": "_iToken",
          "type": "address"
        },
        {
          "indexed": false,
          "internalType": "address",
          "name": "_interestRateStrategyAddress",
          "type": "address"
        }
      ],
      "name": "InstrumentInitialized",
      "type": "event"
    },
    {
      "anonymous": false,
      "inputs": [
        {
          "indexed": false,
          "internalType": "address",
          "name": "_instrument",
          "type": "address"
        },
        {
          "indexed": false,
          "internalType": "address",
          "name": "_strategy",
          "type": "address"
        }
      ],
      "name": "InstrumentInterestRateStrategyChanged",
      "type": "event"
    },
    {
      "anonymous": false,
      "inputs": [
        {
          "indexed": false,
          "internalType": "address",
          "name": "_instrument",
          "type": "address"
        },
        {
          "indexed": false,
          "internalType": "uint256",
          "name": "_bonus",
          "type": "uint256"
        }
      ],
      "name": "InstrumentLiquidationBonusChanged",
      "type": "event"
    },
    {
      "anonymous": false,
      "inputs": [
        {
          "indexed": false,
          "internalType": "address",
          "name": "_instrument",
          "type": "address"
        },
        {
          "indexed": false,
          "internalType": "uint256",
          "name": "_threshold",
          "type": "uint256"
        }
      ],
      "name": "InstrumentLiquidationThresholdChanged",
      "type": "event"
    },
    {
      "anonymous": false,
      "inputs": [
        {
          "indexed": true,
          "internalType": "address",
          "name": "_instrument",
          "type": "address"
        }
      ],
      "name": "InstrumentRemoved",
      "type": "event"
    },
    {
      "anonymous": false,
      "inputs": [
        {
          "indexed": true,
          "internalType": "address",
          "name": "_instrument",
          "type": "address"
        },
        {
          "indexed": false,
          "internalType": "bool",
          "name": "isEnabled",
          "type": "bool"
        }
      ],
      "name": "StableRateOnInstrumentSwitched",
      "type": "event"
    },
    {
      "constant": true,
      "inputs": [],
      "name": "CONFIGURATOR_REVISION",
      "outputs": [
        {
          "internalType": "uint256",
          "name": "",
          "type": "uint256"
        }
      ],
      "payable": false,
      "stateMutability": "view",
      "type": "function"
    },
    {
      "constant": true,
      "inputs": [],
      "name": "globalAddressesProvider",
      "outputs": [
        {
          "internalType": "contract IGlobalAddressesProvider",
          "name": "",
          "type": "address"
        }
      ],
      "payable": false,
      "stateMutability": "view",
      "type": "function"
    },
    {
      "constant": false,
      "inputs": [
        {
          "internalType": "contract IGlobalAddressesProvider",
          "name": "_globalAddressesProvider",
          "type": "address"
        }
      ],
      "name": "initialize",
      "outputs": [],
      "payable": false,
      "stateMutability": "nonpayable",
      "type": "function"
    },
    {
      "constant": false,
      "inputs": [
        {
          "internalType": "address",
          "name": "_instrument",
          "type": "address"
        },
        {
          "internalType": "address",
          "name": "_interestRateStrategyAddress",
          "type": "address"
        }
      ],
      "name": "initInstrument",
      "outputs": [],
      "payable": false,
      "stateMutability": "nonpayable",
      "type": "function"
    },
    {
      "constant": false,
      "inputs": [
        {
          "internalType": "address",
          "name": "_instrument",
          "type": "address"
        },
        {
          "internalType": "bool",
          "name": "switch_",
          "type": "bool"
        }
      ],
      "name": "instrumentActivationSwitch",
      "outputs": [],
      "payable": false,
      "stateMutability": "nonpayable",
      "type": "function"
    },
    {
      "constant": false,
      "inputs": [
        {
          "internalType": "address",
          "name": "_instrument",
          "type": "address"
        },
        {
          "internalType": "bool",
          "name": "borrowRateSwitch",
          "type": "bool"
        }
      ],
      "name": "instrumentBorrowingSwitch",
      "outputs": [],
      "payable": false,
      "stateMutability": "nonpayable",
      "type": "function"
    },
    {
      "constant": false,
      "inputs": [
        {
          "internalType": "address",
          "name": "_instrument",
          "type": "address"
        },
        {
          "internalType": "bool",
          "name": "switchStableBorrowRate",
          "type": "bool"
        }
      ],
      "name": "instrumentStableBorrowRateSwitch",
      "outputs": [],
      "payable": false,
      "stateMutability": "nonpayable",
      "type": "function"
    },
    {
      "constant": false,
      "inputs": [
        {
          "internalType": "address",
          "name": "_instrument",
          "type": "address"
        },
        {
          "internalType": "uint256",
          "name": "_baseLTVasCollateral",
          "type": "uint256"
        },
        {
          "internalType": "uint256",
          "name": "_liquidationThreshold",
          "type": "uint256"
        },
        {
          "internalType": "uint256",
          "name": "_liquidationBonus",
          "type": "uint256"
        }
      ],
      "name": "enableInstrumentAsCollateral",
      "outputs": [],
      "payable": false,
      "stateMutability": "nonpayable",
      "type": "function"
    },
    {
      "constant": false,
      "inputs": [
        {
          "internalType": "address",
          "name": "_instrument",
          "type": "address"
        }
      ],
      "name": "disableInstrumentAsCollateral",
      "outputs": [],
      "payable": false,
      "stateMutability": "nonpayable",
      "type": "function"
    },
    {
      "constant": false,
      "inputs": [
        {
          "internalType": "address",
          "name": "_instrument",
          "type": "address"
        },
        {
          "internalType": "bool",
          "name": "switch_",
          "type": "bool"
        }
      ],
      "name": "instrumentFreezeSwitch",
      "outputs": [],
      "payable": false,
      "stateMutability": "nonpayable",
      "type": "function"
    },
    {
      "constant": false,
      "inputs": [
        {
          "internalType": "address",
          "name": "_instrument",
          "type": "address"
        },
        {
          "internalType": "uint256",
          "name": "_ltv",
          "type": "uint256"
        }
      ],
      "name": "setInstrumentBaseLTVasCollateral",
      "outputs": [],
      "payable": false,
      "stateMutability": "nonpayable",
      "type": "function"
    },
    {
      "constant": false,
      "inputs": [
        {
          "internalType": "address",
          "name": "_instrument",
          "type": "address"
        },
        {
          "internalType": "uint256",
          "name": "_threshold",
          "type": "uint256"
        }
      ],
      "name": "setInstrumentLiquidationThreshold",
      "outputs": [],
      "payable": false,
      "stateMutability": "nonpayable",
      "type": "function"
    },
    {
      "constant": false,
      "inputs": [
        {
          "internalType": "address",
          "name": "_instrument",
          "type": "address"
        },
        {
          "internalType": "uint256",
          "name": "_bonus",
          "type": "uint256"
        }
      ],
      "name": "setInstrumentLiquidationBonus",
      "outputs": [],
      "payable": false,
      "stateMutability": "nonpayable",
      "type": "function"
    },
    {
      "constant": false,
      "inputs": [
        {
          "internalType": "address",
          "name": "_instrument",
          "type": "address"
        },
        {
          "internalType": "address",
          "name": "_rateStrategyAddress",
          "type": "address"
        }
      ],
      "name": "setInstrumentInterestRateStrategyAddress",
      "outputs": [],
      "payable": false,
      "stateMutability": "nonpayable",
      "type": "function"
    },
    {
      "constant": false,
      "inputs": [],
      "name": "refreshLendingPoolCoreConfiguration",
      "outputs": [],
      "payable": false,
      "stateMutability": "nonpayable",
      "type": "function"
    },
    {
      "constant": false,
      "inputs": [],
      "name": "refreshLendingPoolConfiguration",
      "outputs": [],
      "payable": false,
      "stateMutability": "nonpayable",
      "type": "function"
    }
  ],
  "bytecode": "0x60806040526000805534801561001457600080fd5b50615ee1806100246000396000f3fe60806040523480156200001157600080fd5b5060043610620001175760003560e01c806385ea72ac11620000a5578063e12dcc6c116200006f578063e12dcc6c1462000315578063e6df474e146200031f578063ea84c1ba146200035a578063fc74177614620003835762000117565b806385ea72ac1462000280578063c4d66de814620002b1578063d02106af14620002da578063dfc75726146200030b5762000117565b806366a3f18b11620000e757806366a3f18b14620001d357806372e8d22a14620002025780637af635a6146200023357806380356143146200024f5762000117565b80624646f6146200011c5780630219b9c5146200014d57806311a92bd714620001735780635610992a14620001a2575b600080fd5b6200014b600480360360408110156200013457600080fd5b506001600160a01b038135169060200135620003b4565b005b6200015762000598565b604080516001600160a01b039092168252519081900360200190f35b6200014b600480360360408110156200018b57600080fd5b506001600160a01b038135169060200135620005a7565b6200014b60048036036040811015620001ba57600080fd5b506001600160a01b03813581169160200135166200078d565b6200014b60048036036040811015620001eb57600080fd5b506001600160a01b03813516906020013562000975565b6200014b600480360360408110156200021a57600080fd5b506001600160a01b038135169060200135151562000b5b565b6200023d62000dc3565b60408051918252519081900360200190f35b6200014b600480360360408110156200026757600080fd5b506001600160a01b038135169060200135151562000dc8565b6200014b600480360360408110156200029857600080fd5b506001600160a01b038135811691602001351662001063565b6200014b60048036036020811015620002c957600080fd5b50356001600160a01b031662001789565b6200014b60048036036040811015620002f257600080fd5b506001600160a01b03813516906020013515156200184a565b6200014b62001ad8565b6200014b62001c68565b6200014b600480360360808110156200033757600080fd5b506001600160a01b03813516906020810135906040810135906060013562001ddc565b6200014b600480360360208110156200037257600080fd5b50356001600160a01b031662001fda565b6200014b600480360360408110156200039b57600080fd5b506001600160a01b0381351690602001351515620021a8565b603454604080516333128d5960e01b8152905133926001600160a01b0316916333128d59916004808301926020929190829003018186803b158015620003f957600080fd5b505afa1580156200040e573d6000803e3d6000fd5b505050506040513d60208110156200042557600080fd5b50516001600160a01b0316146200046e5760405162461bcd60e51b815260040180806020018281038252602981526020018062005e566029913960400191505060405180910390fd5b6034546040805163076b7fbb60e51b815290516000926001600160a01b03169163ed6ff760916004808301926020929190829003018186803b158015620004b457600080fd5b505afa158015620004c9573d6000803e3d6000fd5b505050506040513d6020811015620004e057600080fd5b5051604080516223237b60e11b81526001600160a01b03868116600483015260248201869052915192935090831691624646f69160448082019260009290919082900301818387803b1580156200053657600080fd5b505af11580156200054b573d6000803e3d6000fd5b5050604080516001600160a01b03871681526020810186905281517f54deb0f7c3d6766b3c8b683c1e345635f0884feb56f4989f315ed298534b2b399450908190039091019150a1505050565b6034546001600160a01b031681565b603454604080516333128d5960e01b8152905133926001600160a01b0316916333128d59916004808301926020929190829003018186803b158015620005ec57600080fd5b505afa15801562000601573d6000803e3d6000fd5b505050506040513d60208110156200061857600080fd5b50516001600160a01b031614620006615760405162461bcd60e51b815260040180806020018281038252602981526020018062005e566029913960400191505060405180910390fd5b6034546040805163076b7fbb60e51b815290516000926001600160a01b03169163ed6ff760916004808301926020929190829003018186803b158015620006a757600080fd5b505afa158015620006bc573d6000803e3d6000fd5b505050506040513d6020811015620006d357600080fd5b5051604080516311a92bd760e01b81526001600160a01b038681166004830152602482018690529151929350908316916311a92bd79160448082019260009290919082900301818387803b1580156200072b57600080fd5b505af115801562000740573d6000803e3d6000fd5b5050604080516001600160a01b03871681526020810186905281517f04e117d3cf8d0510a30bff65e2265c0498ef9a528788cb01bd72b0f271e30cf59450908190039091019150a1505050565b603454604080516333128d5960e01b8152905133926001600160a01b0316916333128d59916004808301926020929190829003018186803b158015620007d257600080fd5b505afa158015620007e7573d6000803e3d6000fd5b505050506040513d6020811015620007fe57600080fd5b50516001600160a01b031614620008475760405162461bcd60e51b815260040180806020018281038252602981526020018062005e566029913960400191505060405180910390fd5b6034546040805163076b7fbb60e51b815290516000926001600160a01b03169163ed6ff760916004808301926020929190829003018186803b1580156200088d57600080fd5b505afa158015620008a2573d6000803e3d6000fd5b505050506040513d6020811015620008b957600080fd5b505160408051632b084c9560e11b81526001600160a01b0386811660048301528581166024830152915192935090831691635610992a9160448082019260009290919082900301818387803b1580156200091257600080fd5b505af115801562000927573d6000803e3d6000fd5b5050604080516001600160a01b0380881682528616602082015281517f7ddf594bd91d57b513304df0960abe8f0784f961c752fba776680e2fad15d5919450908190039091019150a1505050565b603454604080516333128d5960e01b8152905133926001600160a01b0316916333128d59916004808301926020929190829003018186803b158015620009ba57600080fd5b505afa158015620009cf573d6000803e3d6000fd5b505050506040513d6020811015620009e657600080fd5b50516001600160a01b03161462000a2f5760405162461bcd60e51b815260040180806020018281038252602981526020018062005e566029913960400191505060405180910390fd5b6034546040805163076b7fbb60e51b815290516000926001600160a01b03169163ed6ff760916004808301926020929190829003018186803b15801562000a7557600080fd5b505afa15801562000a8a573d6000803e3d6000fd5b505050506040513d602081101562000aa157600080fd5b5051604080516366a3f18b60e01b81526001600160a01b038681166004830152602482018690529151929350908316916366a3f18b9160448082019260009290919082900301818387803b15801562000af957600080fd5b505af115801562000b0e573d6000803e3d6000fd5b5050604080516001600160a01b03871681526020810186905281517faa4308b32c83f8054086d0345a443466856c25014f3f2c5d571abf90305a8d8e9450908190039091019150a1505050565b603454604080516333128d5960e01b8152905133926001600160a01b0316916333128d59916004808301926020929190829003018186803b15801562000ba057600080fd5b505afa15801562000bb5573d6000803e3d6000fd5b505050506040513d602081101562000bcc57600080fd5b50516001600160a01b03161462000c155760405162461bcd60e51b815260040180806020018281038252602981526020018062005e566029913960400191505060405180910390fd5b6034546040805163076b7fbb60e51b815290516000926001600160a01b03169163ed6ff760916004808301926020929190829003018186803b15801562000c5b57600080fd5b505afa15801562000c70573d6000803e3d6000fd5b505050506040513d602081101562000c8757600080fd5b50519050811562000d0a57806001600160a01b031663c0e1dff7846040518263ffffffff1660e01b815260040180826001600160a01b03166001600160a01b03168152602001915050600060405180830381600087803b15801562000ceb57600080fd5b505af115801562000d00573d6000803e3d6000fd5b5050505062000d7d565b806001600160a01b031663683775a2846040518263ffffffff1660e01b815260040180826001600160a01b03166001600160a01b03168152602001915050600060405180830381600087803b15801562000d6357600080fd5b505af115801562000d78573d6000803e3d6000fd5b505050505b60408051831515815290516001600160a01b038516917f974c320af43f49927fec74aa6de3d09c5e5cc092f750b63f3cc758279912c6a0919081900360200190a2505050565b600181565b603454604080516333128d5960e01b8152905133926001600160a01b0316916333128d59916004808301926020929190829003018186803b15801562000e0d57600080fd5b505afa15801562000e22573d6000803e3d6000fd5b505050506040513d602081101562000e3957600080fd5b50516001600160a01b03161462000e825760405162461bcd60e51b815260040180806020018281038252602981526020018062005e566029913960400191505060405180910390fd5b6034546040805163076b7fbb60e51b815290516000926001600160a01b03169163ed6ff760916004808301926020929190829003018186803b15801562000ec857600080fd5b505afa15801562000edd573d6000803e3d6000fd5b505050506040513d602081101562000ef457600080fd5b50519050811562000fb75760408051633a80e04760e01b81526001600160a01b0385811660048301528415156024830152915191831691633a80e0479160448082019260009290919082900301818387803b15801562000f5357600080fd5b505af115801562000f68573d6000803e3d6000fd5b5050604080516001600160a01b0387168152851515602082015281517f77f9c92f667f87c2628b1c6c4a5d959d0c4896c3114991a180a0c1b9d19e5f4b9450908190039091019150a16200105e565b806001600160a01b031663174ec539846040518263ffffffff1660e01b815260040180826001600160a01b03166001600160a01b03168152602001915050600060405180830381600087803b1580156200101057600080fd5b505af115801562001025573d6000803e3d6000fd5b50506040516001600160a01b03861692507f4fafbabc9112614fff22cd387ad92c981e2e3b400395e5e23efcb942a9b370069150600090a25b505050565b603454604080516333128d5960e01b8152905133926001600160a01b0316916333128d59916004808301926020929190829003018186803b158015620010a857600080fd5b505afa158015620010bd573d6000803e3d6000fd5b505050506040513d6020811015620010d457600080fd5b50516001600160a01b0316146200111d5760405162461bcd60e51b815260040180806020018281038252602981526020018062005e566029913960400191505060405180910390fd5b60008290506060816001600160a01b03166306fdde036040518163ffffffff1660e01b815260040160006040518083038186803b1580156200115e57600080fd5b505afa15801562001173573d6000803e3d6000fd5b505050506040513d6000823e601f3d908101601f1916820160405260208110156200119d57600080fd5b8101908080516040519392919084640100000000821115620011be57600080fd5b908301906020820185811115620011d457600080fd5b8251640100000000811182820188101715620011ef57600080fd5b82525081516020918201929091019080838360005b838110156200121e57818101518382015260200162001204565b50505050905090810190601f1680156200124c5780820380516001836020036101000a031916815260200191505b5060405250505060405160200180807f53494748277320737570706f7274656420496e737472756d656e74202d200000815250601e0182805190602001908083835b60208310620012af5780518252601f1990920191602091820191016200128e565b6001836020036101000a03801982511681845116808217855250505050505090500191505060405160208183030381529060405290506060826001600160a01b03166395d89b416040518163ffffffff1660e01b815260040160006040518083038186803b1580156200132157600080fd5b505afa15801562001336573d6000803e3d6000fd5b505050506040513d6000823e601f3d908101601f1916820160405260208110156200136057600080fd5b81019080805160405193929190846401000000008211156200138157600080fd5b9083019060208201858111156200139757600080fd5b8251640100000000811182820188101715620013b257600080fd5b82525081516020918201929091019080838360005b83811015620013e1578181015183820152602001620013c7565b50505050905090810190601f1680156200140f5780820380516001836020036101000a031916815260200191505b506040525050506040516020018080606960f81b81525060010182805190602001908083835b60208310620014565780518252601f19909201916020918201910162001435565b6001836020036101000a03801982511681845116808217855250505050505090500191505060405160208183030381529060405290506000836001600160a01b031663313ce5676040518163ffffffff1660e01b815260040160206040518083038186803b158015620014c857600080fd5b505afa158015620014dd573d6000803e3d6000fd5b505050506040513d6020811015620014f457600080fd5b50516034546040805163076b7fbb60e51b815290519293506000926001600160a01b039092169163ed6ff76091600480820192602092909190829003018186803b1580156200154257600080fd5b505afa15801562001557573d6000803e3d6000fd5b505050506040513d60208110156200156e57600080fd5b50516034546040519192506000916001600160a01b039091169089908590889088906200159b906200241b565b6001600160a01b038087168252851660208083019190915260ff8516604083015260a06060830181815285519184019190915284519091608084019160c085019187019080838360005b83811015620015ff578181015183820152602001620015e5565b50505050905090810190601f1680156200162d5780820380516001836020036101000a031916815260200191505b50838103825284518152845160209182019186019080838360005b838110156200166257818101518382015260200162001648565b50505050905090810190601f168015620016905780820380516001836020036101000a031916815260200191505b50975050505050505050604051809103906000f080158015620016b7573d6000803e3d6000fd5b5060408051637664f1b960e11b81526001600160a01b038b81166004830152808416602483015260ff871660448301528a8116606483015291519293509084169163ecc9e3729160848082019260009290919082900301818387803b1580156200172057600080fd5b505af115801562001735573d6000803e3d6000fd5b5050604080516001600160a01b038b8116825291518286169450918c1692507f67f0c68454ccb9748aa4c51b170e911c450060188c0fbe7b9679fc8f89f6a9c0919081900360200190a35050505050505050565b60006200179562002410565b60015490915060ff1680620017af5750620017af62002415565b80620017bc575060005481115b620017f95760405162461bcd60e51b815260040180806020018281038252602e81526020018062005e7f602e913960400191505060405180910390fd5b60015460ff1615801562001819576001805460ff19168117905560008290555b603480546001600160a01b0319166001600160a01b03851617905580156200105e576001805460ff19169055505050565b603454604080516333128d5960e01b8152905133926001600160a01b0316916333128d59916004808301926020929190829003018186803b1580156200188f57600080fd5b505afa158015620018a4573d6000803e3d6000fd5b505050506040513d6020811015620018bb57600080fd5b50516001600160a01b031614620019045760405162461bcd60e51b815260040180806020018281038252602981526020018062005e566029913960400191505060405180910390fd5b6034546040805163076b7fbb60e51b815290516000926001600160a01b03169163ed6ff760916004808301926020929190829003018186803b1580156200194a57600080fd5b505afa1580156200195f573d6000803e3d6000fd5b505050506040513d60208110156200197657600080fd5b50519050811562001a2d57806001600160a01b031663da901690846040518263ffffffff1660e01b815260040180826001600160a01b03166001600160a01b03168152602001915050600060405180830381600087803b158015620019da57600080fd5b505af1158015620019ef573d6000803e3d6000fd5b50506040516001600160a01b03861692507f80e3908ee967e29916ae910d2d2582a674d39272d867826328e7074961c30d2b9150600090a26200105e565b806001600160a01b03166356df9ca2846040518263ffffffff1660e01b815260040180826001600160a01b03166001600160a01b03168152602001915050600060405180830381600087803b15801562001a8657600080fd5b505af115801562001a9b573d6000803e3d6000fd5b50506040516001600160a01b03861692507f249ff8e7dbd4321ecfac840daf15dfd7270a422929210f238ff1e05a617f97819150600090a2505050565b603454604080516333128d5960e01b8152905133926001600160a01b0316916333128d59916004808301926020929190829003018186803b15801562001b1d57600080fd5b505afa15801562001b32573d6000803e3d6000fd5b505050506040513d602081101562001b4957600080fd5b50516001600160a01b03161462001b925760405162461bcd60e51b815260040180806020018281038252602981526020018062005e566029913960400191505060405180910390fd5b60345460408051630261bf8b60e01b815290516000926001600160a01b031691630261bf8b916004808301926020929190829003018186803b15801562001bd857600080fd5b505afa15801562001bed573d6000803e3d6000fd5b505050506040513d602081101562001c0457600080fd5b505160408051637c55ccb360e01b815290519192506001600160a01b03831691637c55ccb39160048082019260009290919082900301818387803b15801562001c4c57600080fd5b505af115801562001c61573d6000803e3d6000fd5b5050505050565b603454604080516333128d5960e01b8152905133926001600160a01b0316916333128d59916004808301926020929190829003018186803b15801562001cad57600080fd5b505afa15801562001cc2573d6000803e3d6000fd5b505050506040513d602081101562001cd957600080fd5b50516001600160a01b03161462001d225760405162461bcd60e51b815260040180806020018281038252602981526020018062005e566029913960400191505060405180910390fd5b6034546040805163076b7fbb60e51b815290516000926001600160a01b03169163ed6ff760916004808301926020929190829003018186803b15801562001d6857600080fd5b505afa15801562001d7d573d6000803e3d6000fd5b505050506040513d602081101562001d9457600080fd5b505160408051636468108360e01b815290519192506001600160a01b0383169163646810839160048082019260009290919082900301818387803b15801562001c4c57600080fd5b603454604080516333128d5960e01b8152905133926001600160a01b0316916333128d59916004808301926020929190829003018186803b15801562001e2157600080fd5b505afa15801562001e36573d6000803e3d6000fd5b505050506040513d602081101562001e4d57600080fd5b50516001600160a01b03161462001e965760405162461bcd60e51b815260040180806020018281038252602981526020018062005e566029913960400191505060405180910390fd5b6034546040805163076b7fbb60e51b815290516000926001600160a01b03169163ed6ff760916004808301926020929190829003018186803b15801562001edc57600080fd5b505afa15801562001ef1573d6000803e3d6000fd5b505050506040513d602081101562001f0857600080fd5b50516040805163736fa3a760e11b81526001600160a01b03888116600483015260248201889052604482018790526064820186905291519293509083169163e6df474e9160848082019260009290919082900301818387803b15801562001f6e57600080fd5b505af115801562001f83573d6000803e3d6000fd5b5050604080518781526020810187905280820186905290516001600160a01b03891693507f10e5d9a0efcc9bede103d0c012f529b50e270e64ce13f55992b5b84a3478705792509081900360600190a25050505050565b603454604080516333128d5960e01b8152905133926001600160a01b0316916333128d59916004808301926020929190829003018186803b1580156200201f57600080fd5b505afa15801562002034573d6000803e3d6000fd5b505050506040513d60208110156200204b57600080fd5b50516001600160a01b031614620020945760405162461bcd60e51b815260040180806020018281038252602981526020018062005e566029913960400191505060405180910390fd5b6034546040805163076b7fbb60e51b815290516000926001600160a01b03169163ed6ff760916004808301926020929190829003018186803b158015620020da57600080fd5b505afa158015620020ef573d6000803e3d6000fd5b505050506040513d60208110156200210657600080fd5b50516040805163754260dd60e11b81526001600160a01b03858116600483015291519293509083169163ea84c1ba9160248082019260009290919082900301818387803b1580156200215757600080fd5b505af11580156200216c573d6000803e3d6000fd5b50506040516001600160a01b03851692507f7a96c2cfd8773b6e9c0a63317e5ddd8ce5949e0c4bd20d25a47e71aee74500d79150600090a25050565b603454604080516333128d5960e01b8152905133926001600160a01b0316916333128d59916004808301926020929190829003018186803b158015620021ed57600080fd5b505afa15801562002202573d6000803e3d6000fd5b505050506040513d60208110156200221957600080fd5b50516001600160a01b031614620022625760405162461bcd60e51b815260040180806020018281038252602981526020018062005e566029913960400191505060405180910390fd5b6034546040805163076b7fbb60e51b815290516000926001600160a01b03169163ed6ff760916004808301926020929190829003018186803b158015620022a857600080fd5b505afa158015620022bd573d6000803e3d6000fd5b505050506040513d6020811015620022d457600080fd5b5051905081156200235757806001600160a01b0316631f7dbbf6846040518263ffffffff1660e01b815260040180826001600160a01b03166001600160a01b03168152602001915050600060405180830381600087803b1580156200233857600080fd5b505af11580156200234d573d6000803e3d6000fd5b50505050620023ca565b806001600160a01b031663a4637e7b846040518263ffffffff1660e01b815260040180826001600160a01b03166001600160a01b03168152602001915050600060405180830381600087803b158015620023b057600080fd5b505af1158015620023c5573d6000803e3d6000fd5b505050505b60408051831515815290516001600160a01b038516917fd97b6a06f16a156d335aa5ac72849fc16312aa03e4a0223da7a933308cdd3408919081900360200190a2505050565b600190565b303b1590565b613a2c806200242a8339019056fe60806040526ec097ce7bc90715b34b9f1000000000606b55670de0b6b3a76400006076553480156200003057600080fd5b5060405162003a2c38038062003a2c833981810160405260a08110156200005657600080fd5b8151602083015160408085015160608601805192519496939591949391820192846401000000008211156200008a57600080fd5b908301906020820185811115620000a057600080fd5b8251640100000000811182820188101715620000bb57600080fd5b82525081516020918201929091019080838360005b83811015620000ea578181015183820152602001620000d0565b50505050905090810190601f168015620001185780820380516001836020036101000a031916815260200191505b50604052602001805160405193929190846401000000008211156200013c57600080fd5b9083019060208201858111156200015257600080fd5b82516401000000008111828201881017156200016d57600080fd5b82525081516020918201929091019080838360005b838110156200019c57818101518382015260200162000182565b50505050905090810190601f168015620001ca5780820380516001836020036101000a031916815260200191505b506040525050508181848260689080519060200190620001ec92919062000477565b5081516200020290606990602085019062000477565b50606a805460ff191660ff929092169190911790555050606d80546001600160a01b0319166001600160a01b0387811691909117918290556040805163076b7fbb60e51b81529051929091169163ed6ff76091600480820192602092909190829003018186803b1580156200027657600080fd5b505afa1580156200028b573d6000803e3d6000fd5b505050506040513d6020811015620002a257600080fd5b5051606e80546001600160a01b0319166001600160a01b03928316179055606d5460408051630261bf8b60e01b815290519190921691630261bf8b916004808301926020929190829003018186803b158015620002fe57600080fd5b505afa15801562000313573d6000803e3d6000fd5b505050506040513d60208110156200032a57600080fd5b5051606f80546001600160a01b0319166001600160a01b03928316179055606d5460408051632f58b80d60e01b815290519190921691632f58b80d916004808301926020929190829003018186803b1580156200038657600080fd5b505afa1580156200039b573d6000803e3d6000fd5b505050506040513d6020811015620003b257600080fd5b5051607080546001600160a01b0319166001600160a01b03928316179055606d546040805163a0375c6d60e01b81529051919092169163a0375c6d916004808301926020929190829003018186803b1580156200040e57600080fd5b505afa15801562000423573d6000803e3d6000fd5b505050506040513d60208110156200043a57600080fd5b5051607180546001600160a01b039283166001600160a01b031991821617909155606c805496909216951694909417909355506200051c92505050565b828054600181600116156101000203166002900490600052602060002090601f016020900481019282601f10620004ba57805160ff1916838001178555620004ea565b82800160010185558215620004ea579182015b82811115620004ea578251825591602001919060010190620004cd565b50620004f8929150620004fc565b5090565b6200051991905b80821115620004f8576000815560010162000503565b90565b613500806200052c6000396000f3fe608060405234801561001057600080fd5b506004361061023d5760003560e01c80636722b4fa1161013b578063d0fc81d2116100b8578063dfc8d0fc1161007c578063dfc8d0fc146107de578063e2bd79a314610804578063ee9907a41461080c578063f1abdaf614610832578063f866c3191461083a5761023d565b8063d0fc81d21461075d578063d3cc381e14610765578063d821eb971461078b578063db006a7514610793578063dd62ed3e146107b05761023d565b806394362e8b116100ff57806394362e8b146106ab57806395d89b41146106d7578063a457c2d7146106df578063a9059cbb1461070b578063c634dfaa146107375761023d565b80636722b4fa1461060357806370a082311461060b5780638596d5ed146106315780638a090cd4146106575780638af43fad1461067d5761023d565b806327ec16ed116101c9578063395093511161018d57806339509351146105335780633edb7cb81461055f578063445e80101461058b5780634dbac9ba146105b15780635eae177c146105d75761023d565b806327ec16ed1461042b5780632ccf00f91461049b5780632eaae3c7146104c1578063313ce567146104e7578063325a9b13146105055761023d565b8063146e5ec011610210578063146e5ec01461034d578063180cb0c01461037357806318160ddd146103b55780631d51e7cf146103cf57806323b872dd146103f55761023d565b806306fdde0314610242578063095ea7b3146102bf5780630e49072d146102ff57806312c87c2d14610327575b600080fd5b61024a610870565b6040805160208082528351818301528351919283929083019185019080838360005b8381101561028457818101518382015260200161026c565b50505050905090810190601f1680156102b15780820380516001836020036101000a031916815260200191505b509250505060405180910390f35b6102eb600480360360408110156102d557600080fd5b506001600160a01b038135169060200135610907565b604080519115158252519081900360200190f35b6103256004803603602081101561031557600080fd5b50356001600160a01b0316610925565b005b6103256004803603602081101561033d57600080fd5b50356001600160a01b0316610932565b6103256004803603602081101561036357600080fd5b50356001600160a01b03166109d1565b6103996004803603602081101561038957600080fd5b50356001600160a01b03166109db565b604080516001600160a01b039092168252519081900360200190f35b6103bd6109fc565b60408051918252519081900360200190f35b6103bd600480360360208110156103e557600080fd5b50356001600160a01b0316610ab9565b6102eb6004803603606081101561040b57600080fd5b506001600160a01b03813581169160208101359091169060400135610ad4565b6103256004803603602081101561044157600080fd5b81019060208101813564010000000081111561045c57600080fd5b82018360208201111561046e57600080fd5b8035906020019184602083028401116401000000008311171561049057600080fd5b509092509050610b62565b6103bd600480360360208110156104b157600080fd5b50356001600160a01b0316610b9e565b6103bd600480360360208110156104d757600080fd5b50356001600160a01b0316610bb9565b6104ef610bd4565b6040805160ff9092168252519081900360200190f35b6103256004803603604081101561051b57600080fd5b506001600160a01b0381358116916020013516610bdd565b6102eb6004803603604081101561054957600080fd5b506001600160a01b038135169060200135610c43565b6103256004803603604081101561057557600080fd5b506001600160a01b038135169060200135610c97565b610399600480360360208110156105a157600080fd5b50356001600160a01b0316610d95565b610399600480360360208110156105c757600080fd5b50356001600160a01b0316610db3565b6102eb600480360360408110156105ed57600080fd5b506001600160a01b038135169060200135610dd1565b610399610e67565b6103bd6004803603602081101561062157600080fd5b50356001600160a01b0316610e76565b6103256004803603602081101561064757600080fd5b50356001600160a01b0316610f29565b6103bd6004803603602081101561066d57600080fd5b50356001600160a01b0316610fd8565b6103256004803603604081101561069357600080fd5b506001600160a01b0381358116916020013516610ff3565b610325600480360360408110156106c157600080fd5b506001600160a01b038135169060200135611055565b61024a611133565b6102eb600480360360408110156106f557600080fd5b506001600160a01b038135169060200135611194565b6102eb6004803603604081101561072157600080fd5b506001600160a01b038135169060200135611202565b6103bd6004803603602081101561074d57600080fd5b50356001600160a01b0316611216565b6103bd611221565b6103256004803603602081101561077b57600080fd5b50356001600160a01b0316611227565b610399611279565b610325600480360360208110156107a957600080fd5b5035611288565b6103bd600480360360408110156107c657600080fd5b506001600160a01b03813581169160200135166114bd565b610399600480360360208110156107f457600080fd5b50356001600160a01b03166114e8565b6103bd611503565b6103bd6004803603602081101561082257600080fd5b50356001600160a01b0316611509565b610325611524565b6103256004803603606081101561085057600080fd5b506001600160a01b0381358116916020810135909116906040013561152f565b60688054604080516020601f60026000196101006001881615020190951694909404938401819004810282018101909252828152606093909290918301828280156108fc5780601f106108d1576101008083540402835291602001916108fc565b820191906000526020600020905b8154815290600101906020018083116108df57829003601f168201915b505050505090505b90565b600061091b610914611583565b8484611587565b5060015b92915050565b61092f3382611673565b50565b6001600160a01b03811633141561097a5760405162461bcd60e51b81526004018080602001828103825260258152602001806131f16025913960400191505060405180910390fd5b3360008181526075602052604080822080546001600160a01b0319166001600160a01b03861690811790915590519092917fc2d6a42a9d5273283f73009a07aacfb043f2f91173a8d9d33b504afe898db08b91a350565b61092f3382611862565b6001600160a01b038082166000908152607b6020526040902054165b919050565b600080610a07611abf565b905080610a18576000915050610904565b606e54606c5460408051632b0475e160e01b81526001600160a01b0392831660048201529051610ab393610aae931691632b0475e1916024808301926020929190829003018186803b158015610a6d57600080fd5b505afa158015610a81573d6000803e3d6000fd5b505050506040513d6020811015610a9757600080fd5b5051610aa284611ac5565b9063ffffffff611adb16565b611b1f565b91505090565b6001600160a01b031660009081526074602052604090205490565b6000610ae1848484611b38565b610b5784610aed611583565b610b5285604051806060016040528060288152602001613237602891396001600160a01b038a16600090815260346020526040812090610b2b611583565b6001600160a01b03168152602081019190915260400160002054919063ffffffff611ba716565b611587565b5060015b9392505050565b60005b81811015610b9957610b91838383818110610b7c57fe5b905060200201356001600160a01b0316611c3e565b600101610b65565b505050565b6001600160a01b031660009081526079602052604090205490565b6001600160a01b031660009081526077602052604090205490565b606a5460ff1690565b6001600160a01b03828116600090815260756020526040902054163314610c355760405162461bcd60e51b815260040180806020018281038252603a815260200180613492603a913960400191505060405180910390fd5b610c3f8282611673565b5050565b600061091b610c50611583565b84610b528560346000610c61611583565b6001600160a01b03908116825260208083019390935260409182016000908120918c16815292529020549063ffffffff611c7816565b606f546001600160a01b03163314610ce05760405162461bcd60e51b81526004018080602001828103825260348152602001806130826034913960400191505060405180910390fd5b610ce982611cd2565b6000806000610cf785611f11565b93509350935050610d09858386611ffd565b610d138585612134565b6000610d25848663ffffffff61223016565b610d3557610d3286612272565b90505b856001600160a01b03167f90e5d3d68ec162d9c7de393037a3ede04dd44f68e051bf2ace4a73c299dbc4db868584610d6d5785610d70565b60005b60408051938452602084019290925282820152519081900360600190a2505050505050565b6001600160a01b039081166000908152607360205260409020541690565b6001600160a01b039081166000908152607a60205260409020541690565b607054606c54604080516376e9d61560e01b81526001600160a01b039283166004820152858316602482015260448101859052905160009392909216916376e9d61591606480820192602092909190829003018186803b158015610e3457600080fd5b505afa158015610e48573d6000803e3d6000fd5b505050506040513d6020811015610e5e57600080fd5b50519392505050565b606c546001600160a01b031681565b600080610e8283612324565b6001600160a01b03841660009081526074602052604090205490915081158015610eaa575080155b15610eba576000925050506109f7565b6001600160a01b0384811660009081526073602052604090205416610f0b57610f0281610ef686610ef1868463ffffffff611c7816565b61233f565b9063ffffffff61223016565b925050506109f7565b610f02610f1c82610ef6878561233f565b839063ffffffff611c7816565b6001600160a01b038116331415610f715760405162461bcd60e51b81526004018080602001828103825260258152602001806131f16025913960400191505060405180910390fd5b336000818152607b602090815260409182902080546001600160a01b0319166001600160a01b03861690811790915582519384529083015280517f22777824b7e0642b0e894ce2fe6e34746e13d8ff80f7cbd334ca384eaf3115069281900390910190a150565b6001600160a01b031660009081526078602052604090205490565b6001600160a01b038281166000908152607b602052604090205416331461104b5760405162461bcd60e51b81526004018080602001828103825260368152602001806134376036913960400191505060405180910390fd5b610c3f8282611862565b606f546001600160a01b0316331461109e5760405162461bcd60e51b81526004018080602001828103825260348152602001806130826034913960400191505060405180910390fd5b6110a782611cd2565b6000806110b384611f11565b9350935050506110d7846110d08585611c7890919063ffffffff16565b6000611ffd565b6110e184846123ef565b604080518481526020810184905280820183905290516001600160a01b038616917fbe7799898ca2d813ff902b487c1b434ab45b47edd8f38b77ad5e99aae8341b7a919081900360600190a250505050565b60698054604080516020601f60026000196101006001881615020190951694909404938401819004810282018101909252828152606093909290918301828280156108fc5780601f106108d1576101008083540402835291602001916108fc565b600061091b6111a1611583565b84610b528560405180606001604052806025815260200161346d60259139603460006111cb611583565b6001600160a01b03908116825260208083019390935260409182016000908120918d1681529252902054919063ffffffff611ba716565b600061091b61120f611583565b8484611b38565b600061091f82612324565b60001981565b606e546001600160a01b031633146112705760405162461bcd60e51b81526004018080602001828103825260398152602001806133af6039913960400191505060405180910390fd5b61092f816124e1565b6071546001600160a01b031681565b600081116112dd576040805162461bcd60e51b815260206004820181905260248201527f416d6f756e7420746f2072656465656d206e6565647320746f206265203e2030604482015290519081900360640190fd5b60008060006112eb33611f11565b919550935091508490506000198114156113025750825b838111156113415760405162461bcd60e51b81526004018080602001828103825260328152602001806130fb6032913960400191505060405180910390fd5b61134b3382610dd1565b61139c576040805162461bcd60e51b815260206004820152601b60248201527f5472616e736665722063616e6e6f7420626520616c6c6f7765642e0000000000604482015290519081900360640190fd5b606f54606c546001600160a01b0391821691639895e3d8911633846113c7898263ffffffff61223016565b6040518563ffffffff1660e01b815260040180856001600160a01b03166001600160a01b03168152602001846001600160a01b03166001600160a01b03168152602001838152602001828152602001945050505050600060405180830381600087803b15801561143657600080fd5b505af115801561144a573d6000803e3d6000fd5b5050505061145733611cd2565b611462338483611ffd565b61146c3382612134565b600061147e858363ffffffff61223016565b61148e5761148b33612272565b90505b337fbd5034ffbd47e4e72a94baa2cdb74c6fad73cb3bcdc13036b72ec8306f5a7646838684610d6d5786610d70565b6001600160a01b03918216600090815260346020908152604080832093909416825291909152205490565b6075602052600090815260409020546001600160a01b031681565b60765481565b6001600160a01b031660009081526072602052604090205490565b61152d33611c3e565b565b606f546001600160a01b031633146115785760405162461bcd60e51b81526004018080602001828103825260348152602001806130826034913960400191505060405180910390fd5b610b9983838361282f565b3390565b6001600160a01b0383166115cc5760405162461bcd60e51b815260040180806020018281038252602481526020018061338b6024913960400191505060405180910390fd5b6001600160a01b0382166116115760405162461bcd60e51b815260040180806020018281038252602281526020018061312d6022913960400191505060405180910390fd5b6001600160a01b03808416600081815260346020908152604080832094871680845294825291829020859055815185815291517f8c5be1e5ebec7d5bd14f71427d1e84f3dd0314c0f7b2291e5b200ac8c7c3b9259281900390910190a3505050565b6001600160a01b0380831660009081526073602052604090205481169082168114156116d05760405162461bcd60e51b815260040180806020018281038252602a81526020018061325f602a913960400191505060405180910390fd5b6000806000806116df87611f11565b9350935093509350600083116117265760405162461bcd60e51b81526004018080602001828103825260428152602001806132896042913960600191505060405180910390fd5b6001600160a01b038516156117415761174187600086611ffd565b866001600160a01b0316866001600160a01b031614156117cd576001600160a01b038716600081815260736020908152604080832080546001600160a01b03191690558051878152918201869052818101859052519192917f5e3cad45b1fe24159d1cb39788d82d0f69cc15770aa96fba1d3d1a73487355949181900360600190a35050505050610c3f565b6001600160a01b03878116600090815260736020526040812080546001600160a01b031916928916929092179091556118099088908590611ffd565b604080518481526020810184905280820183905290516001600160a01b0380891692908a16917f5e3cad45b1fe24159d1cb39788d82d0f69cc15770aa96fba1d3d1a73487355949181900360600190a350505050505050565b6001600160a01b038083166000908152607a602052604090205481169082168114156118bf5760405162461bcd60e51b815260040180806020018281038252603281526020018061314f6032913960400191505060405180910390fd5b60006118ca84612324565b606e54606c5460408051631f9fcb1960e31b81526001600160a01b03928316600482015288831660248201529051939450600093919092169163fcfe58c8916044808301926080929190829003018186803b15801561192857600080fd5b505afa15801561193c573d6000803e3d6000fd5b505050506040513d608081101561195257600080fd5b50602001519050811515806119675750600081115b6119a25760405162461bcd60e51b815260040180806020018281038252604f8152602001806133e8604f913960600191505060405180910390fd5b846001600160a01b0316846001600160a01b03161415611a29576001600160a01b0385166000818152607a6020908152604080832080546001600160a01b03191690558051938452908301919091524382820152517fd1e0fc94dcf310043ccc112fd3b7a2081da0a04a5369638b5ab25c4d2b46e2909181900360600190a1505050610c3f565b6001600160a01b03831615611a4a57611a4185611cd2565b611a4a856124e1565b6001600160a01b038086166000818152607a602090815260409182902080549489166001600160a01b0319909516851790558151928352820192909252438183015290517fd1e0fc94dcf310043ccc112fd3b7a2081da0a04a5369638b5ab25c4d2b46e2909181900360600190a15050505050565b60355490565b600061091f82633b9aca0063ffffffff61297016565b6000610b5b6b033b2e3c9fd0803ce8000000611b13611b00868663ffffffff61297016565b6b019d971e4fe8401e7400000090611c78565b9063ffffffff6129c916565b6000631dcd6500610b5b633b9aca00611b138386611c78565b8281611b448282610dd1565b611b95576040805162461bcd60e51b815260206004820152601b60248201527f5472616e736665722063616e6e6f7420626520616c6c6f7765642e0000000000604482015290519081900360640190fd5b611ba085858561282f565b5050505050565b60008184841115611c365760405162461bcd60e51b81526004018080602001828103825283818151815260200191508051906020019080838360005b83811015611bfb578181015183820152602001611be3565b50505050905090810190601f168015611c285780820380516001836020036101000a031916815260200191505b509250505060405180910390fd5b505050900390565b611c4781611cd2565b611c50816124e1565b6001600160a01b0381166000908152607760205260409020541561092f5761092f8182612a0b565b600082820183811015610b5b576040805162461bcd60e51b815260206004820152601b60248201527f536166654d6174683a206164646974696f6e206f766572666c6f770000000000604482015290519081900360640190fd5b607154606c546040805163269c5ec960e21b81526001600160a01b03928316600482015290516000939290921691639a717b2491602480820192602092909190829003018186803b158015611d2657600080fd5b505afa158015611d3a573d6000803e3d6000fd5b505050506040513d6020811015611d5057600080fd5b5051905080611d905760405162461bcd60e51b815260040180806020018281038252604a81526020018061331c604a913960600191505060405180910390fd5b611d9861306e565b5060408051602080820183526001600160a01b0385166000908152607890915291909120548152611dc761306e565b5060408051602080820183528482526001600160a01b03861660009081526078909152919091208390558151158015611e005750805115155b15611e0a57805182525b80518251604080516001600160a01b0388168152602081019390935282810191909152517f8570f42cdf4cb0f9d23a4554baaca6538401acf7d2793bae71863a7d1d4f05e19181900360600190a16000611e6385612324565b9050611e6d61306e565b611e778385612ad3565b6001600160a01b03871660009081526078602052604090205481519192507fdbada74b32ebae0109ffc264c663815d6970d2039f0778546db1d99083f11176918490611ec38286612b01565b604080519485526020850193909352838301919091526060830152519081900360800190a1805115611f09576000611efb8383612b01565b9050611f078782612b35565b505b505050505050565b6000806000806000611f2286612324565b90506000611f3382610ef689610e76565b9050611f3f87826123ef565b606e54606c5460408051632b0475e160e01b81526001600160a01b03928316600482015290516000939290921691632b0475e191602480820192602092909190829003018186803b158015611f9357600080fd5b505afa158015611fa7573d6000803e3d6000fd5b505050506040513d6020811015611fbd57600080fd5b50516001600160a01b0389166000908152607260205260409020819055905082611fed818463ffffffff611c7816565b9099909850919650945092505050565b6001600160a01b0380841660009081526073602052604090205416806120235750610b99565b60008061202f83611f11565b6001600160a01b03871660009081526074602052604090205491955093506120659250869150610ef6908863ffffffff611c7816565b6001600160a01b038085166000908152607460209081526040808320949094556073905291909120541680156120d8576001600160a01b0381166000908152607460205260409020546120be908463ffffffff611c7816565b6001600160a01b0382166000908152607460205260409020555b60408051848152602081018490528082018890526060810187905290516001600160a01b038616917f70ff8cf632603e2bfd1afb7e4061acce53d95356b1be9726b99fa22ba733b01f919081900360800190a250505050505050565b6001600160a01b0382166121795760405162461bcd60e51b81526004018080602001828103825260218152602001806132fb6021913960400191505060405180910390fd5b6121bc816040518060600160405280602281526020016130d9602291396001600160a01b038516600090815260336020526040902054919063ffffffff611ba716565b6001600160a01b0383166000908152603360205260409020556035546121e8908263ffffffff61223016565b6035556040805182815290516000916001600160a01b038516917fddf252ad1be2c89b69c2b068fc378daa952ba7f163c4a11628f55a4df523b3ef9181900360200190a35050565b6000610b5b83836040518060400160405280601e81526020017f536166654d6174683a207375627472616374696f6e206f766572666c6f770000815250611ba7565b6001600160a01b038116600081815260736020908152604080832080546001600160a01b03191690558051838152918201839052818101839052519192839290917f5e3cad45b1fe24159d1cb39788d82d0f69cc15770aa96fba1d3d1a7348735594919081900360600190a36001600160a01b03821660009081526074602052604090205461231c57506001600160a01b03811660009081526072602052604081205560016109f7565b5060006109f7565b6001600160a01b031660009081526033602052604090205490565b6001600160a01b03808316600090815260726020908152604080832054606e54606c548351632b0475e160e01b8152908716600482015292519495610b5b95610aae9593946123e3949390921692632b0475e19260248082019391829003018186803b1580156123ae57600080fd5b505afa1580156123c2573d6000803e3d6000fd5b505050506040513d60208110156123d857600080fd5b5051610aa287611ac5565b9063ffffffff612ccd16565b6001600160a01b03821661244a576040805162461bcd60e51b815260206004820152601f60248201527f45524332303a206d696e7420746f20746865207a65726f206164647265737300604482015290519081900360640190fd5b60355461245d908263ffffffff611c7816565b6035556001600160a01b038216600090815260336020526040902054612489908263ffffffff611c7816565b6001600160a01b03831660008181526033602090815260408083209490945583518581529351929391927fddf252ad1be2c89b69c2b068fc378daa952ba7f163c4a11628f55a4df523b3ef9281900390910190a35050565b607154606c546040805163087d30f360e11b81526001600160a01b039283166004820152905160009392909216916310fa61e691602480820192602092909190829003018186803b15801561253557600080fd5b505afa158015612549573d6000803e3d6000fd5b505050506040513d602081101561255f57600080fd5b505190508061259f5760405162461bcd60e51b815260040180806020018281038252604a8152602001806131a7604a913960600191505060405180910390fd5b6125a761306e565b5060408051602081019091528181526125be61306e565b5060408051602080820183526001600160a01b03861660008181526079808452948120805485528651929091529390915290915580511580156126015750815115155b1561260b57815181525b81518151604080516001600160a01b0388168152602081019390935282810191909152517f1888bde808d21534089bdc68dcafd6b36033996be2f51d1dc37320a5dc85a1cd9181900360600190a161266161306e565b61266b8383612ad3565b905061267561306e565b604080516020808201808452606e54606c546307ce32a560e01b9092526001600160a01b0391821660248501529351929384939116916307ce32a5916044808601929190818703018186803b1580156126cd57600080fd5b505afa1580156126e1573d6000803e3d6000fd5b505050506040513d60208110156126f757600080fd5b50519052606e54606c5460408051631f9fcb1960e31b81526001600160a01b0392831660048201528a831660248201529051939450600093919092169163fcfe58c8916044808301926080929190829003018186803b15801561275957600080fd5b505afa15801561276d573d6000803e3d6000fd5b505050506040513d608081101561278357600080fd5b5060200151905060006127968284612d05565b905060006127a48286612b01565b6001600160a01b038a16600090815260796020908152604091829020548851885184519283529282015280830191909152606081018690526080810185905260a0810183905290519192507fb508c78aa93018f1a65076214d568bce68ba66bd3f589300d704c855adbb3088919081900360c00190a16128248982612b35565b505050505050505050565b6000811161286e5760405162461bcd60e51b81526004018080602001828103825260308152602001806132cb6030913960400191505060405180910390fd5b61287783611cd2565b61288082611cd2565b600080600061288e86611f11565b935093509350506000806128a187611f11565b9350935050506128b2888588611ffd565b6128c6876110d0848963ffffffff611c7816565b6128d1888888612d24565b60006128e3868863ffffffff61223016565b6128f3576128f089612272565b90505b876001600160a01b0316896001600160a01b03167f89a178eaa27e0cd201bd795ca8ff716ac0df9618494510ca79771cfc66ffcde8898887866129365789612939565b60005b60408051948552602085019390935283830191909152606083015260808201879052519081900360a00190a3505050505050505050565b60008261297f5750600061091f565b8282028284828161298c57fe5b0414610b5b5760405162461bcd60e51b81526004018080602001828103825260218152602001806132166021913960400191505060405180910390fd5b6000610b5b83836040518060400160405280601a81526020017f536166654d6174683a206469766973696f6e206279207a65726f000000000000815250612e82565b6001600160a01b03808216600081815260776020908152604080832054607154606c5483516311c4df8760e31b815290881660048201528988166024820152604481019690965260648601829052915190959190911693638e26fc389360848083019493928390030190829087803b158015612a8657600080fd5b505af1158015612a9a573d6000803e3d6000fd5b505050506040513d6020811015612ab057600080fd5b50516001600160a01b039092166000908152607760205260409020919091555050565b612adb61306e565b6040518060200160405280612af885600001518560000151612ee7565b90529392505050565b6000806ec097ce7bc90715b34b9f1000000000905080612b25858560000151612f21565b81612b2c57fe5b04949350505050565b6001600160a01b038083166000908152607a6020526040902054839116612b9d576001600160a01b038116600090815260776020526040902054612b7f908363ffffffff611c7816565b6001600160a01b038216600090815260776020526040902055612bf4565b506001600160a01b038083166000908152607a6020908152604080832054909316808352607790915291902054612bda908363ffffffff611c7816565b6001600160a01b0382166000908152607760205260409020555b604080516001600160a01b0380861682528316602082015280820184905290517f399b15a574bab567174ad82c926fe3695a12f8450437e850b3ea8f212114123d9181900360600190a16076546001600160a01b0382166000908152607760205260409020541115612c6a57612c6a8382612a0b565b6001600160a01b0380821660008181526077602090815260409182902054825194881685529084019290925282810191909152517f7e7103d2feb8c3d30575f6d4b4b00d4376a928a2d69bbca7f9864a23bd3175769181900360600190a1505050565b600060028204612cfd83611b13612cf0876b033b2e3c9fd0803ce8000000612970565b849063ffffffff611c7816565b949350505050565b6000670de0b6b3a7640000612cfd612d1d8583612f21565b8451612f63565b6001600160a01b038316612d695760405162461bcd60e51b81526004018080602001828103825260258152602001806133666025913960400191505060405180910390fd5b6001600160a01b038216612dae5760405162461bcd60e51b81526004018080602001828103825260238152602001806130b66023913960400191505060405180910390fd5b612df181604051806060016040528060268152602001613181602691396001600160a01b038616600090815260336020526040902054919063ffffffff611ba716565b6001600160a01b038085166000908152603360205260408082209390935590841681522054612e26908263ffffffff611c7816565b6001600160a01b0380841660008181526033602090815260409182902094909455805185815290519193928716927fddf252ad1be2c89b69c2b068fc378daa952ba7f163c4a11628f55a4df523b3ef92918290030190a3505050565b60008183612ed15760405162461bcd60e51b8152602060048201818152835160248401528351909283926044909101919085019080838360008315611bfb578181015183820152602001611be3565b506000838581612edd57fe5b0495945050505050565b6000610b5b8383604051806040016040528060158152602001747375627472616374696f6e20756e646572666c6f7760581b815250611ba7565b6000610b5b83836040518060400160405280601781526020017f6d756c7469706c69636174696f6e206f766572666c6f77000000000000000000815250612f96565b6000610b5b83836040518060400160405280600e81526020016d646976696465206279207a65726f60901b815250613015565b6000831580612fa3575082155b15612fb057506000610b5b565b83830283858281612fbd57fe5b0414839061300c5760405162461bcd60e51b8152602060048201818152835160248401528351909283926044909101919085019080838360008315611bfb578181015183820152602001611be3565b50949350505050565b600081836130645760405162461bcd60e51b8152602060048201818152835160248401528351909283926044909101919085019080838360008315611bfb578181015183820152602001611be3565b50828481612b2c57fe5b604051806020016040528060008152509056fe5468652063616c6c6572206f6620746869732066756e6374696f6e206d75737420626520746865206c656e64696e6720706f6f6c45524332303a207472616e7366657220746f20746865207a65726f206164647265737345524332303a206275726e20616d6f756e7420657863656564732062616c616e6365557365722063616e6e6f742072656465656d206d6f7265207468616e2074686520617661696c61626c652062616c616e636545524332303a20617070726f766520746f20746865207a65726f20616464726573735369676820697320616c7265616479207265646972656374656420746f207468652070726f7669646564206163636f756e7445524332303a207472616e7366657220616d6f756e7420657863656564732062616c616e63655349474820446973747269627574696f6e2048616e646c65722072657475726e656420696e76616c696420626f72726f7720496e64657820666f722074686520696e737472756d656e74557365722063616e6e6f74206769766520616c6c6f77616e636520746f2068696d73656c66536166654d6174683a206d756c7469706c69636174696f6e206f766572666c6f7745524332303a207472616e7366657220616d6f756e74206578636565647320616c6c6f77616e6365496e74657265737420697320616c7265616479207265646972656374656420746f207468652075736572496e7465726573742073747265616d2063616e206f6e6c79206265207265646972656374656420696620746865726520697320612076616c69642062616c616e63655472616e7366657272656420616d6f756e74206e6565647320746f2062652067726561746572207468616e207a65726f45524332303a206275726e2066726f6d20746865207a65726f20616464726573735349474820446973747269627574696f6e2048616e646c65722072657475726e656420696e76616c696420737570706c7920496e64657820666f722074686520696e737472756d656e7445524332303a207472616e736665722066726f6d20746865207a65726f206164647265737345524332303a20617070726f76652066726f6d20746865207a65726f20616464726573735468652063616c6c6572206f6620746869732066756e6374696f6e206d75737420626520746865206c656e64696e6720706f6f6c20436f7265536967682073747265616d2063616e206f6e6c79206265207265646972656374656420696620746865726520697320612076616c696420537570706c79206f7220426f72726f772062616c616e636543616c6c6572206973206e6f7420616c6c6f77656420746f207265646972656374207468652053696768206f6620746865207573657245524332303a2064656372656173656420616c6c6f77616e63652062656c6f77207a65726f43616c6c6572206973206e6f7420616c6c6f77656420746f2072656469726563742074686520696e746572657374206f66207468652075736572a265627a7a72315820a6033461aac655084c1ffd80962b4cb4354389b264d443d5485143cb2e44297764736f6c634300051000325468652063616c6c6572206d7573742062652061206c656e64696e6720706f6f6c206d616e61676572436f6e747261637420696e7374616e63652068617320616c7265616479206265656e20696e697469616c697a6564a265627a7a72315820408097f682c1c87f7f764bd361ededf7d77b2f28b7c3cc9e406cd4467b9cb86164736f6c63430005100032",
  "source": "pragma solidity ^0.5.0;\n\nimport \"openzeppelin-solidity/contracts/math/SafeMath.sol\";\nimport \"../../openzeppelin-upgradeability/VersionedInitializable.sol\";\n\nimport \"../IToken.sol\";\n\n/**\n* @title LendingPoolConfigurator contract\n* @author Aave, SIGH Finance (modified by SIGH FINANCE)\n* @notice Executes configuration methods on the LendingPoolCore contract. Allows to enable/disable instruments,\n* and set different protocol parameters.\n**/\n\ncontract LendingPoolConfigurator is VersionedInitializable {\n\n    using SafeMath for uint256;\n    IGlobalAddressesProvider public globalAddressesProvider;\n\n// ######################\n// ####### EVENTS #######\n// ######################\n\n    /**\n    * @dev emitted when a instrument is initialized.\n    * @param _instrument the address of the instrument\n    * @param _iToken the address of the overlying iToken contract\n    * @param _interestRateStrategyAddress the address of the interest rate strategy for the instrument\n    **/\n    event InstrumentInitialized( address indexed _instrument, address indexed _iToken, address _interestRateStrategyAddress );\n    event InstrumentRemoved( address indexed _instrument);      // emitted when a instrument is removed.\n\n    /**\n    * @dev emitted when borrowing is enabled on a instrument\n    * @param _instrument the address of the instrument\n    * @param _stableRateEnabled true if stable rate borrowing is enabled, false otherwise\n    **/\n    event BorrowingEnabledOnInstrument(address _instrument, bool _stableRateEnabled);\n    event BorrowingDisabledOnInstrument(address indexed _instrument);      // emitted when borrowing is disabled on a instrument\n\n    /**\n    * @dev emitted when a instrument is enabled as collateral.\n    * @param _instrument the address of the instrument\n    * @param _ltv the loan to value of the asset when used as collateral\n    * @param _liquidationThreshold the threshold at which loans using this asset as collateral will be considered undercollateralized\n    * @param _liquidationBonus the bonus liquidators receive to liquidate this asset\n    **/\n    event InstrumentEnabledAsCollateral(  address indexed _instrument,  uint256 _ltv,  uint256 _liquidationThreshold,  uint256 _liquidationBonus );    \n    event InstrumentDisabledAsCollateral(address indexed _instrument);         // emitted when a instrument is disabled as collateral\n\n    event StableRateOnInstrumentSwitched(address indexed _instrument, bool isEnabled);          // emitted when stable rate borrowing is switched on a instrument\n\n    event InstrumentActivated(address indexed _instrument);                    // emitted when a instrument is activated\n    event InstrumentDeactivated(address indexed _instrument);                  // emitted when a instrument is deactivated\n\n    event InstrumentFreezeSwitched(address indexed _instrument, bool isFreezed);                      // emitted when a instrument is freezed    \n\n    event InstrumentLiquidationThresholdChanged(address _instrument, uint256 _threshold);     // emitted when a _instrument liquidation threshold is updated\n    event InstrumentLiquidationBonusChanged(address _instrument, uint256 _bonus);             // emitted when a _instrument liquidation bonus is updated\n    \n    event InstrumentInterestRateStrategyChanged(address _instrument, address _strategy);      // emitted when a _instrument interest strategy contract is updated\n    event InstrumentBaseLtvChanged(address _instrument, uint256 _ltv);            // emitted when a _instrument loan to value (ltv) is updated\n\n\n// #############################\n// ####### PROXY RELATED #######\n// #############################\n\n    uint256 public constant CONFIGURATOR_REVISION = 0x1;\n\n    function getRevision() internal pure returns (uint256) {\n        return CONFIGURATOR_REVISION;\n    }\n\n    function initialize(IGlobalAddressesProvider _globalAddressesProvider) public initializer {\n        globalAddressesProvider = _globalAddressesProvider;\n    }\n\n// ########################\n// ####### MODIFIER #######\n// ########################\n    /**\n    * @dev only the lending pool manager can call functions affected by this modifier\n    **/\n    modifier onlyLendingPoolManager {\n        require( globalAddressesProvider.getLendingPoolManager() == msg.sender, \"The caller must be a lending pool manager\" );\n        _;\n    }\n\n// ################################################################################################\n// ####### INITIALIZE A NEW INSTRUMENT (Deploys a new IToken Contract for the INSTRUMENT) #########\n// ################################################################################################\n\n    /**\n    * @dev initializes an instrument\n    * @param _instrument the address of the instrument to be initialized\n    * @param _interestRateStrategyAddress the address of the interest rate strategy contract for this instrument\n    **/\n    function initInstrument( address _instrument, address _interestRateStrategyAddress ) external onlyLendingPoolManager {\n        ERC20Detailed asset = ERC20Detailed(_instrument);\n\n        string memory iTokenName = string(abi.encodePacked(\"SIGH's supported Instrument - \", asset.name()));\n        string memory iTokenSymbol = string(abi.encodePacked(\"i\", asset.symbol()));\n        uint8 decimals = uint8(asset.decimals());\n\n        ILendingPoolCore core = ILendingPoolCore(globalAddressesProvider.getLendingPoolCore());\n\n        IToken iTokenInstance = new IToken( address(globalAddressesProvider), _instrument, decimals, iTokenName, iTokenSymbol ); // DEPLOYS A NEW ITOKEN CONTRACT\n        core.initInstrument( _instrument, address(iTokenInstance), decimals, _interestRateStrategyAddress );\n        emit InstrumentInitialized( _instrument, address(iTokenInstance), _interestRateStrategyAddress );\n    }\n\n// ###################################################################################################\n// ####### FUNCTIONS WHICH INTERACT WITH LENDINGPOOLCORE CONTRACT ####################################\n// ####### --> removeLastAddedInstrument() : REMOVE INSTRUMENT    #####################################\n// ####### --> enableBorrowingOnInstrument()   :   BORROWING RELATED  #################################\n// ####### --> disableBorrowingOnInstrument()  :   BORROWING RELATED  #################################\n// ####### --> enableInstrumentAsCollateral()    :   COLLATERAL RELATED  ##############################\n// ####### --> disableInstrumentAsCollateral()   :   COLLATERAL RELATED  ##############################\n// ####### --> enableInstrumentStableBorrowRate()    :     STABLE BORROW RATE RELATED  ################\n// ####### --> disableInstrumentStableBorrowRate()   :     STABLE BORROW RATE RELATED  ################\n// ####### --> activateInstrument()      :      INSTRUMENT ACTIVATION  ################################\n// ####### --> deactivateInstrument()    :      INSTRUMENT DE-ACTIVATION  #############################\n// ####### --> freezeInstrument()     :      FREEZE INSTRUMENT  #######################################\n// ####### --> unfreezeInstrument()   :      UNFREEZE INSTRUMENT  #####################################\n// ####### --> setInstrumentBaseLTVasCollateral()    :   SETTING VARIABLES  ###########################\n// ####### --> setInstrumentLiquidationThreshold()   :   SETTING VARIABLES  ###########################\n// ####### --> setInstrumentLiquidationBonus()       :   SETTING VARIABLES  ###########################\n// ####### --> setInstrumentDecimals()               :   SETTING VARIABLES  ###########################\n// ####### --> setInstrumentInterestRateStrategyAddress()     : SETTING INTEREST RATE STRATEGY  #######\n// ####### --> refreshLendingPoolCoreConfiguration()   :   REFRESH THE ADDRESS OF CORE  ###############\n// ###################################################################################################\n\n    // /**\n    // * @dev removes the last added instrument in the list of the instruments\n    // * @param _instrumentToRemove the address of the instrument\n    // **/\n    // function removeLastAddedInstrument( address _instrumentToRemove) external onlyLendingPoolManager {\n    //     ILendingPoolCore core = ILendingPoolCore(globalAddressesProvider.getLendingPoolCore());\n    //     core.removeLastAddedInstrument(_instrumentToRemove);\n    //     emit InstrumentRemoved(_instrumentToRemove);\n    // }\n\n    /**\n    * @dev activates/deactivates a _instrument\n    * @param _instrument the address of the _instrument\n    * @param switch_  true / false to activate / deactivate\n    **/\n    function instrumentActivationSwitch(address _instrument, bool switch_) external onlyLendingPoolManager {\n        ILendingPoolCore core = ILendingPoolCore(globalAddressesProvider.getLendingPoolCore());\n        if (switch_) {\n            core.activateInstrument(_instrument);\n            emit InstrumentActivated(_instrument);\n        }\n        else {\n            core.deactivateInstrument(_instrument);\n            emit InstrumentDeactivated(_instrument);\n        }\n    }\n\n    /**\n    * @dev enables borrowing on a instrument\n    * @param _instrument the address of the instrument\n    * @param borrowRateSwitch true if stable borrow rate needs to be enabled & false if it needs to be disabled\n    **/\n    function instrumentBorrowingSwitch(address _instrument, bool borrowRateSwitch) external onlyLendingPoolManager {\n        ILendingPoolCore core = ILendingPoolCore(globalAddressesProvider.getLendingPoolCore());\n        if (borrowRateSwitch) {\n            core.enableBorrowingOnInstrument(_instrument, borrowRateSwitch);\n            emit BorrowingEnabledOnInstrument(_instrument, borrowRateSwitch);\n        }\n        else {\n            core.disableBorrowingOnInstrument(_instrument);\n            emit BorrowingDisabledOnInstrument(_instrument);\n        }\n    }\n\n    /**\n    * @dev switch stable rate borrowing on a instrument\n    * @param _instrument the address of the instrument\n    * @param switchStableBorrowRate true / false to enable / disable\n    **/\n    function instrumentStableBorrowRateSwitch(address _instrument,bool switchStableBorrowRate) external onlyLendingPoolManager {\n        ILendingPoolCore core = ILendingPoolCore(globalAddressesProvider.getLendingPoolCore());\n        if (switchStableBorrowRate) {\n            core.enableInstrumentStableBorrowRate(_instrument);\n        }\n        else {\n            core.disableInstrumentStableBorrowRate(_instrument);\n        }\n        emit StableRateOnInstrumentSwitched(_instrument, switchStableBorrowRate);        \n    }\n\n    /**\n    * @dev enables a instrument to be used as collateral\n    * @param _instrument the address of the instrument\n    * @param _baseLTVasCollateral the loan to value of the asset when used as collateral\n    * @param _liquidationThreshold the threshold at which loans using this asset as collateral will be considered undercollateralized\n    * @param _liquidationBonus the bonus liquidators receive to liquidate this asset\n    **/\n    function enableInstrumentAsCollateral( address _instrument, uint256 _baseLTVasCollateral, uint256 _liquidationThreshold, uint256 _liquidationBonus ) external onlyLendingPoolManager {\n        ILendingPoolCore core = ILendingPoolCore(globalAddressesProvider.getLendingPoolCore());\n        core.enableInstrumentAsCollateral( _instrument, _baseLTVasCollateral, _liquidationThreshold, _liquidationBonus );\n        emit InstrumentEnabledAsCollateral( _instrument, _baseLTVasCollateral, _liquidationThreshold, _liquidationBonus );\n    }\n\n    /**\n    * @dev disables a instrument as collateral\n    * @param _instrument the address of the instrument\n    **/\n    function disableInstrumentAsCollateral(address _instrument) external onlyLendingPoolManager {\n        ILendingPoolCore core = ILendingPoolCore(globalAddressesProvider.getLendingPoolCore());\n        core.disableInstrumentAsCollateral(_instrument);\n        emit InstrumentDisabledAsCollateral(_instrument);\n    }\n\n    /**\n    * @dev freezes an _instrument. A freezed _instrument doesn't accept any new deposit, borrow or rate swap, but can accept repayments, liquidations, rate rebalances and redeems\n    * @param _instrument the address of the _instrument\n    **/\n    function instrumentFreezeSwitch(address _instrument, bool switch_) external onlyLendingPoolManager {\n        ILendingPoolCore core = ILendingPoolCore(globalAddressesProvider.getLendingPoolCore());\n        if (switch_) {\n            core.freezeInstrument(_instrument);\n        }\n        else {\n            core.unfreezeInstrument(_instrument);\n        }\n        emit InstrumentFreezeSwitched(_instrument,switch_);\n    }\n\n\n    /**\n    * @dev emitted when a _instrument loan to value is updated\n    * @param _instrument the address of the _instrument\n    * @param _ltv the new value for the loan to value\n    **/\n    function setInstrumentBaseLTVasCollateral(address _instrument, uint256 _ltv) external onlyLendingPoolManager {\n        ILendingPoolCore core = ILendingPoolCore(globalAddressesProvider.getLendingPoolCore());\n        core.setInstrumentBaseLTVasCollateral(_instrument, _ltv);\n        emit InstrumentBaseLtvChanged(_instrument, _ltv);\n    }\n\n    /**\n    * @dev updates the liquidation threshold of a _instrument.\n    * @param _instrument the address of the _instrument\n    * @param _threshold the new value for the liquidation threshold\n    **/\n    function setInstrumentLiquidationThreshold(address _instrument, uint256 _threshold) external onlyLendingPoolManager {\n        ILendingPoolCore core = ILendingPoolCore(globalAddressesProvider.getLendingPoolCore());\n        core.setInstrumentLiquidationThreshold(_instrument, _threshold);\n        emit InstrumentLiquidationThresholdChanged(_instrument, _threshold);\n    }\n\n    /**\n    * @dev updates the liquidation bonus of a _instrument\n    * @param _instrument the address of the _instrument\n    * @param _bonus the new value for the liquidation bonus\n    **/\n    function setInstrumentLiquidationBonus(address _instrument, uint256 _bonus) external onlyLendingPoolManager {\n        ILendingPoolCore core = ILendingPoolCore(globalAddressesProvider.getLendingPoolCore());\n        core.setInstrumentLiquidationBonus(_instrument, _bonus);\n        emit InstrumentLiquidationBonusChanged(_instrument, _bonus);\n    }\n\n    /**\n    * @dev sets the interest rate strategy of a _instrument\n    * @param _instrument the address of the _instrument\n    * @param _rateStrategyAddress the new address of the interest strategy contract\n    **/\n    function setInstrumentInterestRateStrategyAddress(address _instrument, address _rateStrategyAddress) external onlyLendingPoolManager {\n        ILendingPoolCore core = ILendingPoolCore(globalAddressesProvider.getLendingPoolCore());\n        core.setInstrumentInterestRateStrategyAddress(_instrument, _rateStrategyAddress);\n        emit InstrumentInterestRateStrategyChanged(_instrument, _rateStrategyAddress);\n    }\n\n    // refreshes the lending pool core configuration to update the cached address\n    function refreshLendingPoolCoreConfiguration() external onlyLendingPoolManager {\n        ILendingPoolCore core = ILendingPoolCore(globalAddressesProvider.getLendingPoolCore());\n        core.refreshConfiguration();\n    }\n\n//   // refreshes the lending pool configuration to update the cached address\n    function refreshLendingPoolConfiguration() external onlyLendingPoolManager {\n        ILendingPool lendingPool = ILendingPool(globalAddressesProvider.getLendingPool());\n        lendingPool.refreshConfig();\n    }\n\n}\n",
  "sourcePath": "/Users/apple/Desktop/GITCOIN/Sigh_Finance/SighFinanceContracts/contracts/LendingProtocolContracts/lendingpool/LendingPoolConfigurator.sol",
  "compiler": {
    "name": "solc",
    "version": "0.5.16+commit.9c3226ce.Emscripten.clang"
  },
  "schemaVersion": "3.2.4",
  "updatedAt": "2020-11-26T08:09:10.751Z",
  "devdoc": {
    "author": "Aave, SIGH Finance (modified by SIGH FINANCE)",
    "methods": {
      "disableInstrumentAsCollateral(address)": {
        "details": "disables a instrument as collateral",
        "params": {
          "_instrument": "the address of the instrument*"
        }
      },
      "enableInstrumentAsCollateral(address,uint256,uint256,uint256)": {
        "details": "enables a instrument to be used as collateral",
        "params": {
          "_baseLTVasCollateral": "the loan to value of the asset when used as collateral",
          "_instrument": "the address of the instrument",
          "_liquidationBonus": "the bonus liquidators receive to liquidate this asset*",
          "_liquidationThreshold": "the threshold at which loans using this asset as collateral will be considered undercollateralized"
        }
      },
      "initInstrument(address,address)": {
        "details": "initializes an instrument",
        "params": {
          "_instrument": "the address of the instrument to be initialized",
          "_interestRateStrategyAddress": "the address of the interest rate strategy contract for this instrument*"
        }
      },
      "instrumentActivationSwitch(address,bool)": {
        "details": "activates/deactivates a _instrument",
        "params": {
          "_instrument": "the address of the _instrument",
          "switch_": "true / false to activate / deactivate*"
        }
      },
      "instrumentBorrowingSwitch(address,bool)": {
        "details": "enables borrowing on a instrument",
        "params": {
          "_instrument": "the address of the instrument",
          "borrowRateSwitch": "true if stable borrow rate needs to be enabled & false if it needs to be disabled*"
        }
      },
      "instrumentFreezeSwitch(address,bool)": {
        "details": "freezes an _instrument. A freezed _instrument doesn't accept any new deposit, borrow or rate swap, but can accept repayments, liquidations, rate rebalances and redeems",
        "params": {
          "_instrument": "the address of the _instrument*"
        }
      },
      "instrumentStableBorrowRateSwitch(address,bool)": {
        "details": "switch stable rate borrowing on a instrument",
        "params": {
          "_instrument": "the address of the instrument",
          "switchStableBorrowRate": "true / false to enable / disable*"
        }
      },
      "setInstrumentBaseLTVasCollateral(address,uint256)": {
        "details": "emitted when a _instrument loan to value is updated",
        "params": {
          "_instrument": "the address of the _instrument",
          "_ltv": "the new value for the loan to value*"
        }
      },
      "setInstrumentInterestRateStrategyAddress(address,address)": {
        "details": "sets the interest rate strategy of a _instrument",
        "params": {
          "_instrument": "the address of the _instrument",
          "_rateStrategyAddress": "the new address of the interest strategy contract*"
        }
      },
      "setInstrumentLiquidationBonus(address,uint256)": {
        "details": "updates the liquidation bonus of a _instrument",
        "params": {
          "_bonus": "the new value for the liquidation bonus*",
          "_instrument": "the address of the _instrument"
        }
      },
      "setInstrumentLiquidationThreshold(address,uint256)": {
        "details": "updates the liquidation threshold of a _instrument.",
        "params": {
          "_instrument": "the address of the _instrument",
          "_threshold": "the new value for the liquidation threshold*"
        }
      }
    },
    "title": "LendingPoolConfigurator contract"
  },
  "userdoc": {
    "methods": {},
    "notice": "Executes configuration methods on the LendingPoolCore contract. Allows to enable/disable instruments, and set different protocol parameters.*"
  }
}