{
  "contractName": "LendingPool",
  "abi": [
    {
      "anonymous": false,
      "inputs": [
        {
          "indexed": true,
          "internalType": "address",
          "name": "_instrument",
          "type": "address"
        },
        {
          "indexed": true,
          "internalType": "address",
          "name": "_user",
          "type": "address"
        },
        {
          "indexed": false,
          "internalType": "uint256",
          "name": "_amount",
          "type": "uint256"
        },
        {
          "indexed": false,
          "internalType": "uint256",
          "name": "_borrowRateMode",
          "type": "uint256"
        },
        {
          "indexed": false,
          "internalType": "uint256",
          "name": "_borrowRate",
          "type": "uint256"
        },
        {
          "indexed": false,
          "internalType": "uint256",
          "name": "_borrowFee",
          "type": "uint256"
        },
        {
          "indexed": false,
          "internalType": "uint256",
          "name": "_borrowBalanceIncrease",
          "type": "uint256"
        },
        {
          "indexed": false,
          "internalType": "uint16",
          "name": "_referral",
          "type": "uint16"
        },
        {
          "indexed": false,
          "internalType": "uint256",
          "name": "_timestamp",
          "type": "uint256"
        }
      ],
      "name": "Borrow",
      "type": "event"
    },
    {
      "anonymous": false,
      "inputs": [
        {
          "indexed": true,
          "internalType": "address",
          "name": "_instrument",
          "type": "address"
        },
        {
          "indexed": true,
          "internalType": "address",
          "name": "_user",
          "type": "address"
        },
        {
          "indexed": false,
          "internalType": "uint256",
          "name": "_amount",
          "type": "uint256"
        },
        {
          "indexed": false,
          "internalType": "uint256",
          "name": "depositFee",
          "type": "uint256"
        },
        {
          "indexed": false,
          "internalType": "uint16",
          "name": "_referral",
          "type": "uint16"
        },
        {
          "indexed": false,
          "internalType": "uint256",
          "name": "_timestamp",
          "type": "uint256"
        }
      ],
      "name": "Deposit",
      "type": "event"
    },
    {
      "anonymous": false,
      "inputs": [
        {
          "indexed": true,
          "internalType": "address",
          "name": "_target",
          "type": "address"
        },
        {
          "indexed": true,
          "internalType": "address",
          "name": "_instrument",
          "type": "address"
        },
        {
          "indexed": false,
          "internalType": "uint256",
          "name": "_amount",
          "type": "uint256"
        },
        {
          "indexed": false,
          "internalType": "uint256",
          "name": "_totalFee",
          "type": "uint256"
        },
        {
          "indexed": false,
          "internalType": "uint256",
          "name": "_protocolFee",
          "type": "uint256"
        },
        {
          "indexed": false,
          "internalType": "uint256",
          "name": "_timestamp",
          "type": "uint256"
        }
      ],
      "name": "FlashLoan",
      "type": "event"
    },
    {
      "anonymous": false,
      "inputs": [
        {
          "indexed": true,
          "internalType": "address",
          "name": "_instrument",
          "type": "address"
        },
        {
          "indexed": true,
          "internalType": "address",
          "name": "_user",
          "type": "address"
        }
      ],
      "name": "InstrumentUsedAsCollateralDisabled",
      "type": "event"
    },
    {
      "anonymous": false,
      "inputs": [
        {
          "indexed": true,
          "internalType": "address",
          "name": "_instrument",
          "type": "address"
        },
        {
          "indexed": true,
          "internalType": "address",
          "name": "_user",
          "type": "address"
        }
      ],
      "name": "InstrumentUsedAsCollateralEnabled",
      "type": "event"
    },
    {
      "anonymous": false,
      "inputs": [
        {
          "indexed": true,
          "internalType": "address",
          "name": "_collateral",
          "type": "address"
        },
        {
          "indexed": true,
          "internalType": "address",
          "name": "_instrument",
          "type": "address"
        },
        {
          "indexed": true,
          "internalType": "address",
          "name": "_user",
          "type": "address"
        },
        {
          "indexed": false,
          "internalType": "uint256",
          "name": "_purchaseAmount",
          "type": "uint256"
        },
        {
          "indexed": false,
          "internalType": "uint256",
          "name": "_liquidatedCollateralAmount",
          "type": "uint256"
        },
        {
          "indexed": false,
          "internalType": "uint256",
          "name": "_accruedBorrowInterest",
          "type": "uint256"
        },
        {
          "indexed": false,
          "internalType": "address",
          "name": "_liquidator",
          "type": "address"
        },
        {
          "indexed": false,
          "internalType": "bool",
          "name": "_receiveIToken",
          "type": "bool"
        },
        {
          "indexed": false,
          "internalType": "uint256",
          "name": "_timestamp",
          "type": "uint256"
        }
      ],
      "name": "LiquidationCall",
      "type": "event"
    },
    {
      "anonymous": false,
      "inputs": [
        {
          "indexed": true,
          "internalType": "address",
          "name": "_collateral",
          "type": "address"
        },
        {
          "indexed": true,
          "internalType": "address",
          "name": "_instrument",
          "type": "address"
        },
        {
          "indexed": true,
          "internalType": "address",
          "name": "_user",
          "type": "address"
        },
        {
          "indexed": false,
          "internalType": "uint256",
          "name": "_feeLiquidated",
          "type": "uint256"
        },
        {
          "indexed": false,
          "internalType": "uint256",
          "name": "_liquidatedCollateralForFee",
          "type": "uint256"
        },
        {
          "indexed": false,
          "internalType": "uint256",
          "name": "_timestamp",
          "type": "uint256"
        }
      ],
      "name": "OriginationFeeLiquidated",
      "type": "event"
    },
    {
      "anonymous": false,
      "inputs": [
        {
          "indexed": true,
          "internalType": "address",
          "name": "_instrument",
          "type": "address"
        },
        {
          "indexed": true,
          "internalType": "address",
          "name": "_user",
          "type": "address"
        },
        {
          "indexed": false,
          "internalType": "uint256",
          "name": "_newStableRate",
          "type": "uint256"
        },
        {
          "indexed": false,
          "internalType": "uint256",
          "name": "_borrowBalanceIncrease",
          "type": "uint256"
        },
        {
          "indexed": false,
          "internalType": "uint256",
          "name": "_timestamp",
          "type": "uint256"
        }
      ],
      "name": "RebalanceStableBorrowRate",
      "type": "event"
    },
    {
      "anonymous": false,
      "inputs": [
        {
          "indexed": true,
          "internalType": "address",
          "name": "_instrument",
          "type": "address"
        },
        {
          "indexed": true,
          "internalType": "address",
          "name": "_user",
          "type": "address"
        },
        {
          "indexed": false,
          "internalType": "uint256",
          "name": "_amount",
          "type": "uint256"
        },
        {
          "indexed": false,
          "internalType": "uint256",
          "name": "_timestamp",
          "type": "uint256"
        }
      ],
      "name": "RedeemUnderlying",
      "type": "event"
    },
    {
      "anonymous": false,
      "inputs": [
        {
          "indexed": true,
          "internalType": "address",
          "name": "_instrument",
          "type": "address"
        },
        {
          "indexed": true,
          "internalType": "address",
          "name": "_user",
          "type": "address"
        },
        {
          "indexed": true,
          "internalType": "address",
          "name": "_repayer",
          "type": "address"
        },
        {
          "indexed": false,
          "internalType": "uint256",
          "name": "_amountMinusFees",
          "type": "uint256"
        },
        {
          "indexed": false,
          "internalType": "uint256",
          "name": "_fees",
          "type": "uint256"
        },
        {
          "indexed": false,
          "internalType": "uint256",
          "name": "_borrowBalanceIncrease",
          "type": "uint256"
        },
        {
          "indexed": false,
          "internalType": "uint256",
          "name": "_timestamp",
          "type": "uint256"
        }
      ],
      "name": "Repay",
      "type": "event"
    },
    {
      "anonymous": false,
      "inputs": [
        {
          "indexed": true,
          "internalType": "address",
          "name": "_instrument",
          "type": "address"
        },
        {
          "indexed": true,
          "internalType": "address",
          "name": "_user",
          "type": "address"
        },
        {
          "indexed": false,
          "internalType": "uint256",
          "name": "_newRateMode",
          "type": "uint256"
        },
        {
          "indexed": false,
          "internalType": "uint256",
          "name": "_newRate",
          "type": "uint256"
        },
        {
          "indexed": false,
          "internalType": "uint256",
          "name": "_borrowBalanceIncrease",
          "type": "uint256"
        },
        {
          "indexed": false,
          "internalType": "uint256",
          "name": "_timestamp",
          "type": "uint256"
        }
      ],
      "name": "Swap",
      "type": "event"
    },
    {
      "constant": true,
      "inputs": [],
      "name": "LENDINGPOOL_REVISION",
      "outputs": [
        {
          "internalType": "uint256",
          "name": "",
          "type": "uint256"
        }
      ],
      "payable": false,
      "stateMutability": "view",
      "type": "function"
    },
    {
      "constant": true,
      "inputs": [],
      "name": "UINT_MAX_VALUE",
      "outputs": [
        {
          "internalType": "uint256",
          "name": "",
          "type": "uint256"
        }
      ],
      "payable": false,
      "stateMutability": "view",
      "type": "function"
    },
    {
      "constant": true,
      "inputs": [],
      "name": "addressesProvider",
      "outputs": [
        {
          "internalType": "contract GlobalAddressesProvider",
          "name": "",
          "type": "address"
        }
      ],
      "payable": false,
      "stateMutability": "view",
      "type": "function"
    },
    {
      "constant": true,
      "inputs": [],
      "name": "core",
      "outputs": [
        {
          "internalType": "contract ILendingPoolCore",
          "name": "",
          "type": "address"
        }
      ],
      "payable": false,
      "stateMutability": "view",
      "type": "function"
    },
    {
      "constant": true,
      "inputs": [],
      "name": "dataProvider",
      "outputs": [
        {
          "internalType": "contract ILendingPoolDataProvider",
          "name": "",
          "type": "address"
        }
      ],
      "payable": false,
      "stateMutability": "view",
      "type": "function"
    },
    {
      "constant": true,
      "inputs": [],
      "name": "feeProvider",
      "outputs": [
        {
          "internalType": "contract IFeeProvider",
          "name": "",
          "type": "address"
        }
      ],
      "payable": false,
      "stateMutability": "view",
      "type": "function"
    },
    {
      "constant": true,
      "inputs": [],
      "name": "parametersProvider",
      "outputs": [
        {
          "internalType": "contract ILendingPoolParametersProvider",
          "name": "",
          "type": "address"
        }
      ],
      "payable": false,
      "stateMutability": "view",
      "type": "function"
    },
    {
      "constant": false,
      "inputs": [
        {
          "internalType": "contract GlobalAddressesProvider",
          "name": "_addressesProvider",
          "type": "address"
        }
      ],
      "name": "initialize",
      "outputs": [],
      "payable": false,
      "stateMutability": "nonpayable",
      "type": "function"
    },
    {
      "constant": false,
      "inputs": [],
      "name": "refreshConfig",
      "outputs": [],
      "payable": false,
      "stateMutability": "nonpayable",
      "type": "function"
    },
    {
      "constant": false,
      "inputs": [
        {
          "internalType": "address",
          "name": "_instrument",
          "type": "address"
        },
        {
          "internalType": "uint256",
          "name": "_amount",
          "type": "uint256"
        },
        {
          "internalType": "uint16",
          "name": "_referralCode",
          "type": "uint16"
        }
      ],
      "name": "deposit",
      "outputs": [],
      "payable": true,
      "stateMutability": "payable",
      "type": "function"
    },
    {
      "constant": false,
      "inputs": [
        {
          "internalType": "address",
          "name": "_instrument",
          "type": "address"
        },
        {
          "internalType": "address payable",
          "name": "_user",
          "type": "address"
        },
        {
          "internalType": "uint256",
          "name": "_amount",
          "type": "uint256"
        },
        {
          "internalType": "uint256",
          "name": "_ITokenBalanceAfterRedeem",
          "type": "uint256"
        }
      ],
      "name": "redeemUnderlying",
      "outputs": [],
      "payable": false,
      "stateMutability": "nonpayable",
      "type": "function"
    },
    {
      "constant": false,
      "inputs": [
        {
          "internalType": "address",
          "name": "_instrument",
          "type": "address"
        },
        {
          "internalType": "uint256",
          "name": "_amount",
          "type": "uint256"
        },
        {
          "internalType": "uint256",
          "name": "_interestRateMode",
          "type": "uint256"
        },
        {
          "internalType": "uint16",
          "name": "_referralCode",
          "type": "uint16"
        }
      ],
      "name": "borrow",
      "outputs": [],
      "payable": false,
      "stateMutability": "nonpayable",
      "type": "function"
    },
    {
      "constant": false,
      "inputs": [
        {
          "internalType": "address",
          "name": "_instrument",
          "type": "address"
        },
        {
          "internalType": "uint256",
          "name": "_amount",
          "type": "uint256"
        },
        {
          "internalType": "address payable",
          "name": "_onBehalfOf",
          "type": "address"
        }
      ],
      "name": "repay",
      "outputs": [],
      "payable": true,
      "stateMutability": "payable",
      "type": "function"
    },
    {
      "constant": false,
      "inputs": [
        {
          "internalType": "address",
          "name": "_instrument",
          "type": "address"
        }
      ],
      "name": "swapBorrowRateMode",
      "outputs": [],
      "payable": false,
      "stateMutability": "nonpayable",
      "type": "function"
    },
    {
      "constant": false,
      "inputs": [
        {
          "internalType": "address",
          "name": "_instrument",
          "type": "address"
        },
        {
          "internalType": "address",
          "name": "_user",
          "type": "address"
        }
      ],
      "name": "rebalanceStableBorrowRate",
      "outputs": [],
      "payable": false,
      "stateMutability": "nonpayable",
      "type": "function"
    },
    {
      "constant": false,
      "inputs": [
        {
          "internalType": "address",
          "name": "_instrument",
          "type": "address"
        },
        {
          "internalType": "bool",
          "name": "_useAsCollateral",
          "type": "bool"
        }
      ],
      "name": "setUserUseInstrumentAsCollateral",
      "outputs": [],
      "payable": false,
      "stateMutability": "nonpayable",
      "type": "function"
    },
    {
      "constant": false,
      "inputs": [
        {
          "internalType": "address",
          "name": "_collateral",
          "type": "address"
        },
        {
          "internalType": "address",
          "name": "_instrument",
          "type": "address"
        },
        {
          "internalType": "address",
          "name": "_user",
          "type": "address"
        },
        {
          "internalType": "uint256",
          "name": "_purchaseAmount",
          "type": "uint256"
        },
        {
          "internalType": "bool",
          "name": "_receiveIToken",
          "type": "bool"
        }
      ],
      "name": "liquidationCall",
      "outputs": [],
      "payable": true,
      "stateMutability": "payable",
      "type": "function"
    },
    {
      "constant": false,
      "inputs": [
        {
          "internalType": "address",
          "name": "_receiver",
          "type": "address"
        },
        {
          "internalType": "address",
          "name": "_instrument",
          "type": "address"
        },
        {
          "internalType": "uint256",
          "name": "_amount",
          "type": "uint256"
        },
        {
          "internalType": "bytes",
          "name": "_params",
          "type": "bytes"
        }
      ],
      "name": "flashLoan",
      "outputs": [],
      "payable": false,
      "stateMutability": "nonpayable",
      "type": "function"
    },
    {
      "constant": false,
      "inputs": [
        {
          "internalType": "address",
          "name": "_instrument",
          "type": "address"
        }
      ],
      "name": "transferSIGHPayToStakingContract",
      "outputs": [],
      "payable": false,
      "stateMutability": "nonpayable",
      "type": "function"
    },
    {
      "constant": true,
      "inputs": [
        {
          "internalType": "address",
          "name": "_instrument",
          "type": "address"
        }
      ],
      "name": "getInstrumentConfigurationData",
      "outputs": [
        {
          "internalType": "uint256",
          "name": "ltv",
          "type": "uint256"
        },
        {
          "internalType": "uint256",
          "name": "liquidationThreshold",
          "type": "uint256"
        },
        {
          "internalType": "uint256",
          "name": "liquidationBonus",
          "type": "uint256"
        },
        {
          "internalType": "address",
          "name": "interestRateStrategyAddress",
          "type": "address"
        },
        {
          "internalType": "bool",
          "name": "usageAsCollateralEnabled",
          "type": "bool"
        },
        {
          "internalType": "bool",
          "name": "borrowingEnabled",
          "type": "bool"
        },
        {
          "internalType": "bool",
          "name": "stableBorrowRateEnabled",
          "type": "bool"
        },
        {
          "internalType": "bool",
          "name": "isActive",
          "type": "bool"
        }
      ],
      "payable": false,
      "stateMutability": "view",
      "type": "function"
    },
    {
      "constant": true,
      "inputs": [
        {
          "internalType": "address",
          "name": "_instrument",
          "type": "address"
        }
      ],
      "name": "getInstrumentData",
      "outputs": [
        {
          "internalType": "uint256",
          "name": "totalLiquidity",
          "type": "uint256"
        },
        {
          "internalType": "uint256",
          "name": "availableLiquidity",
          "type": "uint256"
        },
        {
          "internalType": "uint256",
          "name": "totalBorrowsStable",
          "type": "uint256"
        },
        {
          "internalType": "uint256",
          "name": "totalBorrowsVariable",
          "type": "uint256"
        },
        {
          "internalType": "uint256",
          "name": "liquidityRate",
          "type": "uint256"
        },
        {
          "internalType": "uint256",
          "name": "variableBorrowRate",
          "type": "uint256"
        },
        {
          "internalType": "uint256",
          "name": "stableBorrowRate",
          "type": "uint256"
        },
        {
          "internalType": "uint256",
          "name": "averageStableBorrowRate",
          "type": "uint256"
        },
        {
          "internalType": "uint256",
          "name": "utilizationRate",
          "type": "uint256"
        },
        {
          "internalType": "uint256",
          "name": "liquidityIndex",
          "type": "uint256"
        },
        {
          "internalType": "uint256",
          "name": "variableBorrowIndex",
          "type": "uint256"
        },
        {
          "internalType": "address",
          "name": "iTokenAddress",
          "type": "address"
        },
        {
          "internalType": "uint40",
          "name": "lastUpdateTimestamp",
          "type": "uint40"
        }
      ],
      "payable": false,
      "stateMutability": "view",
      "type": "function"
    },
    {
      "constant": true,
      "inputs": [
        {
          "internalType": "address",
          "name": "_user",
          "type": "address"
        }
      ],
      "name": "getUserAccountData",
      "outputs": [
        {
          "internalType": "uint256",
          "name": "totalLiquidityETH",
          "type": "uint256"
        },
        {
          "internalType": "uint256",
          "name": "totalCollateralETH",
          "type": "uint256"
        },
        {
          "internalType": "uint256",
          "name": "totalBorrowsETH",
          "type": "uint256"
        },
        {
          "internalType": "uint256",
          "name": "totalFeesETH",
          "type": "uint256"
        },
        {
          "internalType": "uint256",
          "name": "availableBorrowsETH",
          "type": "uint256"
        },
        {
          "internalType": "uint256",
          "name": "currentLiquidationThreshold",
          "type": "uint256"
        },
        {
          "internalType": "uint256",
          "name": "ltv",
          "type": "uint256"
        },
        {
          "internalType": "uint256",
          "name": "healthFactor",
          "type": "uint256"
        }
      ],
      "payable": false,
      "stateMutability": "view",
      "type": "function"
    },
    {
      "constant": true,
      "inputs": [
        {
          "internalType": "address",
          "name": "_instrument",
          "type": "address"
        },
        {
          "internalType": "address",
          "name": "_user",
          "type": "address"
        }
      ],
      "name": "getUserInstrumentData",
      "outputs": [
        {
          "internalType": "uint256",
          "name": "currentITokenBalance",
          "type": "uint256"
        },
        {
          "internalType": "uint256",
          "name": "currentBorrowBalance",
          "type": "uint256"
        },
        {
          "internalType": "uint256",
          "name": "principalBorrowBalance",
          "type": "uint256"
        },
        {
          "internalType": "uint256",
          "name": "borrowRateMode",
          "type": "uint256"
        },
        {
          "internalType": "uint256",
          "name": "borrowRate",
          "type": "uint256"
        },
        {
          "internalType": "uint256",
          "name": "liquidityRate",
          "type": "uint256"
        },
        {
          "internalType": "uint256",
          "name": "borrowFee",
          "type": "uint256"
        },
        {
          "internalType": "uint256",
          "name": "variableBorrowIndex",
          "type": "uint256"
        },
        {
          "internalType": "uint256",
          "name": "lastUpdateTimestamp",
          "type": "uint256"
        },
        {
          "internalType": "bool",
          "name": "usageAsCollateralEnabled",
          "type": "bool"
        }
      ],
      "payable": false,
      "stateMutability": "view",
      "type": "function"
    },
    {
      "constant": true,
      "inputs": [],
      "name": "getInstruments",
      "outputs": [
        {
          "internalType": "address[]",
          "name": "",
          "type": "address[]"
        }
      ],
      "payable": false,
      "stateMutability": "view",
      "type": "function"
    }
  ],
  "bytecode": "0x6080604052600060018181559055614bee8061001c6000396000f3fe60806040526004361061014a5760003560e01c80638afaff02116100b6578063c72c4d101161006f578063c72c4d10146106e2578063c858f5f9146106f7578063cd11238214610740578063d0fc81d21461077b578063d2d0e06614610790578063f2f4eb26146107c65761014a565b80638afaff021461053457806390ccd4b71461055b5780639895e3d8146105dd578063b334ed8614610626578063bf92857c1461063b578063c4d66de8146106af5761014a565b80634dc54a38116101085780634dc54a381461032657806358707e06146103ce5780635ceae9c4146103e35780635cffe9de146104195780636f7dafcb146104ec5780637c55ccb31461051f5761014a565b8062a718a91461014f5780630c363982146101955780631635717c146101d057806322495627146102355780634066fdea146102c257806348ca1300146102f3575b600080fd5b610193600480360360a081101561016557600080fd5b506001600160a01b0381358116916020810135821691604082013516906060810135906080013515156107db565b005b3480156101a157600080fd5b50610193600480360360408110156101b857600080fd5b506001600160a01b0381351690602001351515610bf0565b3480156101dc57600080fd5b506101e5610ec9565b60408051602080825283518183015283519192839290830191858101910280838360005b83811015610221578181015183820152602001610209565b505050509050019250505060405180910390f35b34801561024157600080fd5b506102706004803603604081101561025857600080fd5b506001600160a01b0381358116916020013516610fdc565b604080519a8b5260208b0199909952898901979097526060890195909552608088019390935260a087019190915260c086015260e0850152610100840152151561012083015251908190036101400190f35b3480156102ce57600080fd5b506102d76110fd565b604080516001600160a01b039092168252519081900360200190f35b3480156102ff57600080fd5b506101936004803603602081101561031657600080fd5b50356001600160a01b031661110c565b34801561033257600080fd5b506103596004803603602081101561034957600080fd5b50356001600160a01b03166114ce565b604080519d8e5260208e019c909c528c8c019a909a5260608c019890985260808b019690965260a08a019490945260c089019290925260e08801526101008701526101208601526101408501526001600160a01b031661016084015264ffffffffff1661018083015251908190036101a00190f35b3480156103da57600080fd5b506102d761162d565b610193600480360360608110156103f957600080fd5b506001600160a01b0381358116916020810135916040909101351661163c565b34801561042557600080fd5b506101936004803603608081101561043c57600080fd5b6001600160a01b0382358116926020810135909116916040820135919081019060808101606082013564010000000081111561047757600080fd5b82018360208201111561048957600080fd5b803590602001918460018302840111640100000000831117156104ab57600080fd5b91908080601f016020809104026020016040519081016040528093929190818152602001838380828437600092019190915250929550611e36945050505050565b3480156104f857600080fd5b506101936004803603602081101561050f57600080fd5b50356001600160a01b03166123fa565b34801561052b57600080fd5b506101936124be565b34801561054057600080fd5b50610549612588565b60408051918252519081900360200190f35b34801561056757600080fd5b5061058e6004803603602081101561057e57600080fd5b50356001600160a01b031661258d565b604080519889526020890197909752878701959095526001600160a01b0390931660608701529015156080860152151560a0850152151560c0840152151560e083015251908190036101000190f35b3480156105e957600080fd5b506101936004803603608081101561060057600080fd5b506001600160a01b03813581169160208101359091169060408101359060600135612676565b34801561063257600080fd5b506102d761299e565b34801561064757600080fd5b5061066e6004803603602081101561065e57600080fd5b50356001600160a01b03166129ad565b604080519889526020890197909752878701959095526060870193909352608086019190915260a085015260c084015260e083015251908190036101000190f35b3480156106bb57600080fd5b50610193600480360360208110156106d257600080fd5b50356001600160a01b0316612a25565b3480156106ee57600080fd5b506102d7612adf565b34801561070357600080fd5b506101936004803603608081101561071a57600080fd5b5080356001600160a01b0316906020810135906040810135906060013561ffff16612aee565b34801561074c57600080fd5b506101936004803603604081101561076357600080fd5b506001600160a01b03813581169160200135166133f5565b34801561078757600080fd5b50610549613946565b610193600480360360608110156107a657600080fd5b5080356001600160a01b0316906020810135906040013561ffff1661394c565b3480156107d257600080fd5b506102d7613ed7565b60026000541415610821576040805162461bcd60e51b815260206004820152601f602482015260008051602061464a833981519152604482015290519081900360640190fd5b60026000558361083081613ee6565b8561083a81613ee6565b60355460408051632c1a75cd60e11b815290516000926001600160a01b031691635834eb9a916004808301926020929190829003018186803b15801561087f57600080fd5b505afa158015610893573d6000803e3d6000fd5b505050506040513d60208110156108a957600080fd5b5051604080516001600160a01b038b811660248301528a8116604483015289811660648301526084820189905287151560a4808401919091528351808403909101815260c490920183526020820180516001600160e01b031662a718a960e01b17815292518251949550600094606094928716939282918083835b602083106109435780518252601f199092019160209182019101610924565b6001836020036101000a038019825116818451168082178552505050505050905001915050600060405180830381855af49150503d80600081146109a3576040519150601f19603f3d011682016040523d82523d6000602084013e6109a8565b606091505b5091509150816109ff576040805162461bcd60e51b815260206004820152601760248201527f4c69717569646174696f6e2063616c6c206661696c6564000000000000000000604482015290519081900360640190fd5b60006060828060200190516040811015610a1857600080fd5b815160208301805160405192949293830192919084640100000000821115610a3f57600080fd5b908301906020820185811115610a5457600080fd5b8251640100000000811182820188101715610a6e57600080fd5b82525081516020918201929091019080838360005b83811015610a9b578181015183820152602001610a83565b50505050905090810190601f168015610ac85780820380516001836020036101000a031916815260200191505b506040525050509150915081600014610bdd578060405160200180807302634b8bab4b230ba34b7b7103330b4b632b21d160651b81525060140182805190602001908083835b60208310610b2d5780518252601f199092019160209182019101610b0e565b51815160209384036101000a60001901801990921691161790526040805192909401828103601f190183529384905262461bcd60e51b84526004840181815282516024860152825192965094508493604401925085019080838360005b83811015610ba2578181015183820152602001610b8a565b50505050905090810190601f168015610bcf5780820380516001836020036101000a031916815260200191505b509250505060405180910390fd5b5050600160005550505050505050505050565b60026000541415610c36576040805162461bcd60e51b815260206004820152601f602482015260008051602061464a833981519152604482015290519081900360640190fd5b600260005581610c4581613ee6565b82610c4f81613f9d565b60365460408051630c526de560e11b81526001600160a01b038781166004830152336024830152915160009392909216916318a4dbca91604480820192602092909190829003018186803b158015610ca657600080fd5b505afa158015610cba573d6000803e3d6000fd5b505050506040513d6020811015610cd057600080fd5b5051905080610d105760405162461bcd60e51b815260040180806020018281038252602a815260200180614975602a913960400191505060405180910390fd5b603754604080516376e9d61560e01b81526001600160a01b03888116600483015233602483015260448201859052915191909216916376e9d615916064808301926020929190829003018186803b158015610d6a57600080fd5b505afa158015610d7e573d6000803e3d6000fd5b505050506040513d6020811015610d9457600080fd5b5051610dd15760405162461bcd60e51b81526004018080602001828103825260308152602001806146df6030913960400191505060405180910390fd5b603654604080516321baeed760e11b81526001600160a01b038881166004830152336024830152871515604483015291519190921691634375ddae91606480830192600092919082900301818387803b158015610e2d57600080fd5b505af1158015610e41573d6000803e3d6000fd5b505050508315610e865760405133906001600160a01b038716907f0fa277da50ddc7ccdfa45b85b1f26c78fe2d562ffe054abc05a44d7e08cd0dda90600090a3610ebd565b60405133906001600160a01b038716907f5f0dbed5d3dac715152b6b58c69a80d2ed41075ed413e35b7379025a642ef0d690600090a35b50506001600055505050565b6036546040805163058d5c5f60e21b815290516060926001600160a01b031691631635717c916004808301926000929190829003018186803b158015610f0e57600080fd5b505afa158015610f22573d6000803e3d6000fd5b505050506040513d6000823e601f3d908101601f191682016040526020811015610f4b57600080fd5b8101908080516040519392919084640100000000821115610f6b57600080fd5b908301906020820185811115610f8057600080fd5b8251866020820283011164010000000082111715610f9d57600080fd5b82525081516020918201928201910280838360005b83811015610fca578181015183820152602001610fb2565b50505050905001604052505050905090565b60375460408051632249562760e01b81526001600160a01b038581166004830152848116602483015291516000938493849384938493849384938493849384931691632249562791604480830192610140929190829003018186803b15801561104457600080fd5b505afa158015611058573d6000803e3d6000fd5b505050506040513d61014081101561106f57600080fd5b810190808051906020019092919080519060200190929190805190602001909291908051906020019092919080519060200190929190805190602001909291908051906020019092919080519060200190929190805190602001909291908051906020019092919050505099509950995099509950995099509950995099509295989b9194979a5092959850565b6039546001600160a01b031681565b60026000541415611152576040805162461bcd60e51b815260206004820152601f602482015260008051602061464a833981519152604482015290519081900360640190fd5b60026000558061116181613ee6565b8161116b81613f9d565b60365460408051639fb8afcd60e01b81526001600160a01b038681166004830152336024830152915160009384938493911691639fb8afcd91604480820192606092909190829003018186803b1580156111c457600080fd5b505afa1580156111d8573d6000803e3d6000fd5b505050506040513d60608110156111ee57600080fd5b50805160208201516040909201519094509092509050816112405760405162461bcd60e51b815260040180806020018281038252603a8152602001806149fd603a913960400191505060405180910390fd5b60365460408051631ca19f1960e01b81526001600160a01b03898116600483015233602483015291516000939290921691631ca19f1991604480820192602092909190829003018186803b15801561129757600080fd5b505afa1580156112ab573d6000803e3d6000fd5b505050506040513d60208110156112c157600080fd5b5051905060028160028111156112d357fe5b141561139a576036546040805163710ba6c360e11b81526001600160a01b038a81166004830152336024830152604482018790529151919092169163e2174d86916064808301926020929190829003018186803b15801561133357600080fd5b505afa158015611347573d6000803e3d6000fd5b505050506040513d602081101561135d57600080fd5b505161139a5760405162461bcd60e51b8152600401808060200182810382526030815260200180614b226030913960400191505060405180910390fd5b60365460405163f614831160e01b81526001600160a01b03898116600483019081523360248401819052604484018990526064840188905260848401879052600094859493169263f6148311928d92918b918b918b918b9160a40182600281111561140157fe5b60ff16815260200196505050505050506040805180830381600087803b15801561142a57600080fd5b505af115801561143e573d6000803e3d6000fd5b505050506040513d604081101561145457600080fd5b5080516020909101519092509050336001600160a01b038a167fb3e2773606abfd36b5bd91394b3a54d1398336c65005baf7bf7a05efeffaf75b84600281111561149a57fe5b6040805191825260208201869052818101899052426060830152519081900360800190a35050600160005550505050505050565b6000806000806000806000806000806000806000603760009054906101000a90046001600160a01b03166001600160a01b0316634dc54a388f6040518263ffffffff1660e01b815260040180826001600160a01b03166001600160a01b031681526020019150506101a06040518083038186803b15801561154e57600080fd5b505afa158015611562573d6000803e3d6000fd5b505050506040513d6101a081101561157957600080fd5b81019080805190602001909291908051906020019092919080519060200190929190805190602001909291908051906020019092919080519060200190929190805190602001909291908051906020019092919080519060200190929190805190602001909291908051906020019092919080519060200190929190805190602001909291905050509c509c509c509c509c509c509c509c509c509c509c509c509c5091939597999b9d90929496989a9c50565b6038546001600160a01b031681565b60026000541415611682576040805162461bcd60e51b815260206004820152601f602482015260008051602061464a833981519152604482015290519081900360640190fd5b60026000558261169181613ee6565b8261169b81614052565b6116a361453b565b60365460408051639fb8afcd60e01b81526001600160a01b038981166004830152878116602483015291519190921691639fb8afcd916044808301926060929190829003018186803b1580156116f857600080fd5b505afa15801561170c573d6000803e3d6000fd5b505050506040513d606081101561172257600080fd5b50805160208083015160409384015185850152848201529083526036548251636f0d264b60e01b81526001600160a01b038a81166004830152888116602483015293519390911692636f0d264b92604480840193919291829003018186803b15801561178d57600080fd5b505afa1580156117a1573d6000803e3d6000fd5b505050506040513d60208110156117b757600080fd5b505160e08201526001600160a01b0386166117d06140a7565b6001600160a01b0316146060820152602081015161181f5760405162461bcd60e51b8152600401808060200182810382526029815260200180614a686029913960400191505060405180910390fd5b600019851415806118385750336001600160a01b038516145b6118735760405162461bcd60e51b8152600401808060200182810382526044815260200180614b526044913960600191505060405180910390fd5b60e0810151602082015161188c9163ffffffff6140bf16565b608082015260001985148015906118a65750806080015185105b156118b357608081018590525b806060015115806118c8575080608001513410155b6119035760405162461bcd60e51b81526004018080602001828103825260288152602001806147fe6028913960400191505060405180910390fd5b8060e00151816080015111611b2e576036546080820151604080840151815163da12d96f60e01b81526001600160a01b038b8116600483015289811660248301526000604483018190526064830195909552608482019290925260a48101849052915193169263da12d96f9260c48084019391929182900301818387803b15801561198d57600080fd5b505af11580156119a1573d6000803e3d6000fd5b505060365460608401516001600160a01b03909116925063c7d1423791506119ca5760006119d0565b82608001515b88878560800151603560009054906101000a90046001600160a01b03166001600160a01b031663145d02f06040518163ffffffff1660e01b815260040160206040518083038186803b158015611a2557600080fd5b505afa158015611a39573d6000803e3d6000fd5b505050506040513d6020811015611a4f57600080fd5b5051604080516001600160e01b031960e089901b1681526001600160a01b039586166004820152938516602485015260448401929092529290921660648201529051608480830192600092919082900301818588803b158015611ab157600080fd5b505af1158015611ac5573d6000803e3d6000fd5b505050608080840151604080860151815160008152602081019390935282820152426060830152513394506001600160a01b0389811694508b16927fb718f0b14f03d8c3adf35b15e3da52421b042ac879e5a689011a8b1e0036773d928290030190a450610ebd565b60e08101516080820151611b479163ffffffff61412216565b60a0820181905260365460e08301516040808501516020860151825163da12d96f60e01b81526001600160a01b038d811660048301528b81166024830152604482018890526064820195909552608481019290925290941460a48501525191169163da12d96f9160c480830192600092919082900301818387803b158015611bce57600080fd5b505af1158015611be2573d6000803e3d6000fd5b5050505060e081015115611d165760365460608201516001600160a01b039091169063c7d1423790611c15576000611c1b565b8260e001515b88878560e00151603560009054906101000a90046001600160a01b03166001600160a01b031663145d02f06040518163ffffffff1660e01b815260040160206040518083038186803b158015611c7057600080fd5b505afa158015611c84573d6000803e3d6000fd5b505050506040513d6020811015611c9a57600080fd5b5051604080516001600160e01b031960e089901b1681526001600160a01b039586166004820152938516602485015260448401929092529290921660648201529051608480830192600092919082900301818588803b158015611cfc57600080fd5b505af1158015611d10573d6000803e3d6000fd5b50505050505b60365460608201516001600160a01b03909116906328fcf4d390611d3b576000611d51565b60e0830151611d5190349063ffffffff61412216565b60a0840151604080516001600160e01b031960e086901b1681526001600160a01b038c166004820152336024820152604481019290925251606480830192600092919082900301818588803b158015611da957600080fd5b505af1158015611dbd573d6000803e3d6000fd5b50505060a083015160e08401516040808601518151938452602084019290925282810191909152426060830152513393506001600160a01b0388811693508a16917fb718f0b14f03d8c3adf35b15e3da52421b042ac879e5a689011a8b1e0036773d919081900360800190a45050506001600055505050565b60026000541415611e7c576040805162461bcd60e51b815260206004820152601f602482015260008051602061464a833981519152604482015290519081900360640190fd5b600260005582611e8b81613ee6565b82611e9581614052565b6000611e9f6140a7565b6001600160a01b0316866001600160a01b031614611f3557603654604080516370a0823160e01b81526001600160a01b0392831660048201529051918816916370a0823191602480820192602092909190829003018186803b158015611f0457600080fd5b505afa158015611f18573d6000803e3d6000fd5b505050506040513d6020811015611f2e57600080fd5b5051611f43565b6036546001600160a01b0316315b905084811015611f845760405162461bcd60e51b815260040180806020018281038252603181526020018061466a6031913960400191505060405180910390fd5b60385460408051630161bfad60e61b8152815160009384936001600160a01b039091169263586feb409260048083019392829003018186803b158015611fc957600080fd5b505afa158015611fdd573d6000803e3d6000fd5b505050506040513d6040811015611ff357600080fd5b508051602090910151909250905060006120256127106120198a8663ffffffff61416416565b9063ffffffff6141bd16565b9050600061203f612710612019848663ffffffff61416416565b90506000821180156120515750600081115b61208c5760405162461bcd60e51b81526004018080602001828103825260328152602001806148dc6032913960400191505060405180910390fd5b6036546040805163fa93b2a560e01b81526001600160a01b038d81166004830152808f166024830152604482018d905291518e938493169163fa93b2a591606480830192600092919082900301818387803b1580156120ea57600080fd5b505af11580156120fe573d6000803e3d6000fd5b50505050816001600160a01b031663ee8725588d8d878e6040518563ffffffff1660e01b815260040180856001600160a01b03166001600160a01b0316815260200184815260200183815260200180602001828103825283818151815260200191508051906020019080838360005b8381101561218557818101518382015260200161216d565b50505050905090810190601f1680156121b25780820380516001836020036101000a031916815260200191505b5095505050505050600060405180830381600087803b1580156121d457600080fd5b505af11580156121e8573d6000803e3d6000fd5b5050505060006121f66140a7565b6001600160a01b03168d6001600160a01b03161461228c57603654604080516370a0823160e01b81526001600160a01b0392831660048201529051918f16916370a0823191602480820192602092909190829003018186803b15801561225b57600080fd5b505afa15801561226f573d6000803e3d6000fd5b505050506040513d602081101561228557600080fd5b505161229a565b6036546001600160a01b0316315b90506122ac888663ffffffff6140bf16565b81146122e95760405162461bcd60e51b81526004018080602001828103825260328152602001806148556032913960400191505060405180910390fd5b6036546001600160a01b03166309ac29538e8a61230c898963ffffffff61412216565b886040518563ffffffff1660e01b815260040180856001600160a01b03166001600160a01b03168152602001848152602001838152602001828152602001945050505050600060405180830381600087803b15801561236a57600080fd5b505af115801561237e573d6000803e3d6000fd5b505050508c6001600160a01b03168e6001600160a01b03167f5b8f46461c1dd69fb968f1a003acee221ea3e19540e350233b612ddb43433b558e8888426040518085815260200184815260200183815260200182815260200194505050505060405180910390a350506001600055505050505050505050505050565b60026000541415612440576040805162461bcd60e51b815260206004820152601f602482015260008051602061464a833981519152604482015290519081900360640190fd5b60026000558061244f81613ee6565b60365460408051636f7dafcb60e01b81526001600160a01b03858116600483015291519190921691636f7dafcb91602480830192600092919082900301818387803b15801561249d57600080fd5b505af11580156124b1573d6000803e3d6000fd5b5050600160005550505050565b603560009054906101000a90046001600160a01b03166001600160a01b03166385c858b16040518163ffffffff1660e01b815260040160206040518083038186803b15801561250c57600080fd5b505afa158015612520573d6000803e3d6000fd5b505050506040513d602081101561253657600080fd5b50516001600160a01b0316331461257e5760405162461bcd60e51b815260040180806020018281038252603c815260200180614767603c913960400191505060405180910390fd5b6125866141ff565b565b600181565b600080600080600080600080603760009054906101000a90046001600160a01b03166001600160a01b03166390ccd4b78a6040518263ffffffff1660e01b815260040180826001600160a01b03166001600160a01b031681526020019150506101006040518083038186803b15801561260557600080fd5b505afa158015612619573d6000803e3d6000fd5b505050506040513d61010081101561263057600080fd5b508051602082015160408301516060840151608085015160a086015160c087015160e090970151959e50939c50919a509850965094509092509050919395975091939597565b600260005414156126bc576040805162461bcd60e51b815260206004820152601f602482015260008051602061464a833981519152604482015290519081900360640190fd5b600260005560365460408051630557d36f60e51b81526001600160a01b03808816600483015291518793929092169163aafa6de091602480820192602092909190829003018186803b15801561271157600080fd5b505afa158015612725573d6000803e3d6000fd5b505050506040513d602081101561273b57600080fd5b50516001600160a01b031633146127835760405162461bcd60e51b815260040180806020018281038252604e815260200180614ad4604e913960600191505060405180910390fd5b8461278d81613ee6565b8361279781614052565b60365460408051634f8aeae360e11b81526001600160a01b038a8116600483015291516000939290921691639f15d5c691602480820192602092909190829003018186803b1580156127e857600080fd5b505afa1580156127fc573d6000803e3d6000fd5b505050506040513d602081101561281257600080fd5b50519050858110156128555760405162461bcd60e51b81526004018080602001828103825260318152602001806147366031913960400191505060405180910390fd5b6036546040805163afcdbea360e01b81526001600160a01b038b811660048301528a81166024830152604482018a9052881560648301529151919092169163afcdbea391608480830192600092919082900301818387803b1580156128b957600080fd5b505af11580156128cd573d6000803e3d6000fd5b50506036546040805163fa93b2a560e01b81526001600160a01b038d811660048301528c81166024830152604482018c9052915191909216935063fa93b2a59250606480830192600092919082900301818387803b15801561292e57600080fd5b505af1158015612942573d6000803e3d6000fd5b50506040805189815242602082015281516001600160a01b03808d1695508d1693507f9c4ed599cd8555b9c1e8cd7643240d7d71eb76b792948c49fcb4d411f7b6b3c6929181900390910190a350506001600055505050505050565b6037546001600160a01b031681565b600080600080600080600080603760009054906101000a90046001600160a01b03166001600160a01b031663bf92857c8a6040518263ffffffff1660e01b815260040180826001600160a01b03166001600160a01b031681526020019150506101006040518083038186803b15801561260557600080fd5b6000612a2f614429565b60025490915060ff1680612a465750612a4661442e565b80612a52575060015481115b612a8d5760405162461bcd60e51b815260040180806020018281038252602e81526020018061490e602e913960400191505060405180910390fd5b60025460ff16158015612aae576002805460ff191660019081179091558290555b603580546001600160a01b0319166001600160a01b0385161790558015612ada576002805460ff191690555b505050565b6035546001600160a01b031681565b60026000541415612b34576040805162461bcd60e51b815260206004820152601f602482015260008051602061464a833981519152604482015290519081900360640190fd5b600260005583612b4381613ee6565b84612b4d81613f9d565b84612b5781614052565b612b5f614582565b603654604080516310183a3560e01b81526001600160a01b038b81166004830152915191909216916310183a35916024808301926020929190829003018186803b158015612bac57600080fd5b505afa158015612bc0573d6000803e3d6000fd5b505050506040513d6020811015612bd657600080fd5b5051612c135760405162461bcd60e51b81526004018080602001828103825260278152602001806147a36027913960400191505060405180910390fd5b8560021480612c225750856001145b612c5d5760405162461bcd60e51b815260040180806020018281038252602381526020018061469b6023913960400191505060405180910390fd5b856002811115612c6957fe5b816101c001906002811115612c7a57fe5b90816002811115612c8757fe5b90525060365460408051634f8aeae360e11b81526001600160a01b038b8116600483015291519190921691639f15d5c6916024808301926020929190829003018186803b158015612cd757600080fd5b505afa158015612ceb573d6000803e3d6000fd5b505050506040513d6020811015612d0157600080fd5b50516101608201819052871115612d495760405162461bcd60e51b8152600401808060200182810382526043815260200180614a916043913960600191505060405180910390fd5b60375460408051632c6d0e9b60e01b815233600482015290516001600160a01b0390921691632c6d0e9b9160248082019261010092909190829003018186803b158015612d9557600080fd5b505afa158015612da9573d6000803e3d6000fd5b505050506040513d610100811015612dc057600080fd5b506020808201516040808401516060850151608086015160a087015160e09788015115156101e08a015293880193909352938601919091526101008501929092529183015260c08201819052612e5d576040805162461bcd60e51b815260206004820152601b60248201527f54686520636f6c6c61746572616c2062616c616e636520697320300000000000604482015290519081900360640190fd5b806101e0015115612e9f5760405162461bcd60e51b815260040180806020018281038252603f81526020018061460b603f913960400191505060405180910390fd5b60395460408051630e563a7d60e41b8152336004820152602481018a905290516001600160a01b039092169163e563a7d091604480820192602092909190829003018186803b158015612ef157600080fd5b505afa158015612f05573d6000803e3d6000fd5b505050506040513d6020811015612f1b57600080fd5b505160608201819052612f5f5760405162461bcd60e51b81526004018080602001828103825260218152602001806146be6021913960400191505060405180910390fd5b603760009054906101000a90046001600160a01b03166001600160a01b03166312737c33898984606001518560e0015186610100015187602001516040518763ffffffff1660e01b815260040180876001600160a01b03166001600160a01b03168152602001868152602001858152602001848152602001838152602001828152602001965050505050505060206040518083038186803b15801561300357600080fd5b505afa158015613017573d6000803e3d6000fd5b505050506040513d602081101561302d57600080fd5b505160a0820181905260c082015110156130785760405162461bcd60e51b81526004018080602001828103825260348152602001806148876034913960400191505060405180910390fd5b6001816101c00151600281111561308b57fe5b141561322a576036546040805163710ba6c360e11b81526001600160a01b038b81166004830152336024830152604482018b90529151919092169163e2174d86916064808301926020929190829003018186803b1580156130eb57600080fd5b505afa1580156130ff573d6000803e3d6000fd5b505050506040513d602081101561311557600080fd5b50516131525760405162461bcd60e51b815260040180806020018281038252603981526020018061493c6039913960400191505060405180910390fd5b603854604080516335adc96b60e21b815290516000926001600160a01b03169163d6b725ac916004808301926020929190829003018186803b15801561319757600080fd5b505afa1580156131ab573d6000803e3d6000fd5b505050506040513d60208110156131c157600080fd5b50516101608301519091506000906131e690606490612019908563ffffffff61416416565b9050808911156132275760405162461bcd60e51b815260040180806020018281038252603c81526020018061499f603c913960400191505060405180910390fd5b50505b60365460608201516101c0830151604051630deb1bf960e21b81526001600160a01b038c8116600483019081523360248401819052604484018e90526064840186905291909516946337ac6fe4948e9492938e9391929060840182600281111561329057fe5b60ff168152602001955050505050506040805180830381600087803b1580156132b857600080fd5b505af11580156132cc573d6000803e3d6000fd5b505050506040513d60408110156132e257600080fd5b5080516020909101516101208301526101a08201526036546040805163fa93b2a560e01b81526001600160a01b038b81166004830152336024830152604482018b90529151919092169163fa93b2a591606480830192600092919082900301818387803b15801561335257600080fd5b505af1158015613366573d6000803e3d6000fd5b5050506101a0820151606080840151610120850151604080518d8152602081018d90528082019590955292840191909152608083015261ffff881660a08301524260c0830152513392506001600160a01b038b16917f1e77446728e5558aa1b7e81e0cdab9cc1b075ba893b740600c76a315c2caa553919081900360e00190a350506001600055505050505050565b6002600054141561343b576040805162461bcd60e51b815260206004820152601f602482015260008051602061464a833981519152604482015290519081900360640190fd5b60026000558161344a81613ee6565b60365460408051639fb8afcd60e01b81526001600160a01b0386811660048301528581166024830152915160009384931691639fb8afcd916044808301926060929190829003018186803b1580156134a157600080fd5b505afa1580156134b5573d6000803e3d6000fd5b505050506040513d60608110156134cb57600080fd5b5060208101516040909101519092509050816135185760405162461bcd60e51b8152600401808060200182810382526031815260200180614a376031913960400191505060405180910390fd5b600160365460408051631ca19f1960e01b81526001600160a01b038981166004830152888116602483015291519190921691631ca19f19916044808301926020929190829003018186803b15801561356f57600080fd5b505afa158015613583573d6000803e3d6000fd5b505050506040513d602081101561359957600080fd5b505160028111156135a657fe5b146135e25760405162461bcd60e51b81526004018080602001828103825260348152602001806147ca6034913960400191505060405180910390fd5b60365460408051631bffeac360e21b81526001600160a01b038881166004830152878116602483015291516000939290921691636fffab0c91604480820192602092909190829003018186803b15801561363b57600080fd5b505afa15801561364f573d6000803e3d6000fd5b505050506040513d602081101561366557600080fd5b505160365460408051631e01ac3360e11b81526001600160a01b038a8116600483015291519394506000939190921691633c035866916024808301926020929190829003018186803b1580156136ba57600080fd5b505afa1580156136ce573d6000803e3d6000fd5b505050506040513d60208110156136e457600080fd5b505160365460408051635751d83f60e11b81526001600160a01b038b811660048301529151939450600093919092169163aea3b07e916024808301926020929190829003018186803b15801561373957600080fd5b505afa15801561374d573d6000803e3d6000fd5b505050506040513d602081101561376357600080fd5b5051603854604080516346f4f8d160e01b81529051929350600092613805926137f8926001600160a01b03909116916346f4f8d191600480820192602092909190829003018186803b1580156137b857600080fd5b505afa1580156137cc573d6000803e3d6000fd5b505050506040513d60208110156137e257600080fd5b50516137ec614434565b9063ffffffff6140bf16565b839063ffffffff61444416565b90508284108061381457508084115b15613905576036546040805163af825b0760e01b81526001600160a01b038c811660048301528b81166024830152604482018990529151600093929092169163af825b079160648082019260209290919082900301818787803b15801561387a57600080fd5b505af115801561388e573d6000803e3d6000fd5b505050506040513d60208110156138a457600080fd5b50516040805182815260208101899052428183015290519192506001600160a01b03808c1692908d16917f5050ad184862424ee0852d1838d355ad65bed1e5e6da67ac9a2dac1922677f60919081900360600190a35050505050505061393c565b60405162461bcd60e51b815260040180806020018281038252602f815260200180614826602f913960400191505060405180910390fd5b5050600160005550565b60001981565b60026000541415613992576040805162461bcd60e51b815260206004820152601f602482015260008051602061464a833981519152604482015290519081900360640190fd5b6002600055826139a181613ee6565b836139ab81613f9d565b836139b581614052565b60365460408051630557d36f60e51b81526001600160a01b0389811660048301529151600093929092169163aafa6de091602480820192602092909190829003018186803b158015613a0657600080fd5b505afa158015613a1a573d6000803e3d6000fd5b505050506040513d6020811015613a3057600080fd5b5051604080516370a0823160e01b815233600482015290519192506000916001600160a01b038416916370a08231916024808301926020929190829003018186803b158015613a7e57600080fd5b505afa158015613a92573d6000803e3d6000fd5b505050506040513d6020811015613aa857600080fd5b505115905060006001600160a01b038916613ac16140a7565b60395460408051638d8a49ad60e01b8152336004820152602481018d905290516001600160a01b039384169490941494506000939190921691638d8a49ad916044808301926020929190829003018186803b158015613b1f57600080fd5b505afa158015613b33573d6000803e3d6000fd5b505050506040513d6020811015613b4957600080fd5b5051905080613b895760405162461bcd60e51b81526004018080602001828103825260228152602001806149db6022913960400191505060405180910390fd5b6036546001600160a01b031663c7d1423783613ba6576000613ba8565b825b8c3385603560009054906101000a90046001600160a01b03166001600160a01b031663145d02f06040518163ffffffff1660e01b815260040160206040518083038186803b158015613bf957600080fd5b505afa158015613c0d573d6000803e3d6000fd5b505050506040513d6020811015613c2357600080fd5b5051604080516001600160e01b031960e089901b1681526001600160a01b039586166004820152938516602485015260448401929092529290921660648201529051608480830192600092919082900301818588803b158015613c8557600080fd5b505af1158015613c99573d6000803e3d6000fd5b50506036546001600160a01b0316925063bcd6ffa491508c905033613cc48d8663ffffffff61412216565b604080516001600160e01b031960e087901b1681526001600160a01b039485166004820152929093166024830152604482015286151560648201529051608480830192600092919082900301818387803b158015613d2157600080fd5b505af1158015613d35573d6000803e3d6000fd5b5050506001600160a01b03851690506394362e8b33613d548c85614122565b6040518363ffffffff1660e01b815260040180836001600160a01b03166001600160a01b0316815260200182815260200192505050600060405180830381600087803b158015613da357600080fd5b505af1158015613db7573d6000803e3d6000fd5b50506036546001600160a01b031691506328fcf4d39050348c33613de18e8763ffffffff61412216565b6040518563ffffffff1660e01b815260040180846001600160a01b03166001600160a01b03168152602001836001600160a01b03166001600160a01b0316815260200182815260200193505050506000604051808303818588803b158015613e4857600080fd5b505af1158015613e5c573d6000803e3d6000fd5b5033935050506001600160a01b038c1690507f09402b532dc7b55c0756ac7964a2376b45d3d1327aa5f98a2ba9e08a02ce136e613e9f8c8563ffffffff61412216565b604080519182526020820186905261ffff8d1682820152426060830152519081900360800190a3505060016000555050505050505050565b6036546001600160a01b031681565b6036546040805163138374a760e11b81526001600160a01b03848116600483015291519190921691632706e94e916024808301926020929190829003018186803b158015613f3357600080fd5b505afa158015613f47573d6000803e3d6000fd5b505050506040513d6020811015613f5d57600080fd5b5051613f9a5760405162461bcd60e51b8152600401808060200182810382526024815260200180614b966024913960400191505060405180910390fd5b50565b603654604080516322ece8f160e21b81526001600160a01b03848116600483015291519190921691638bb3a3c4916024808301926020929190829003018186803b158015613fea57600080fd5b505afa158015613ffe573d6000803e3d6000fd5b505050506040513d602081101561401457600080fd5b505115613f9a5760405162461bcd60e51b815260040180806020018281038252602781526020018061470f6027913960400191505060405180910390fd5b60008111613f9a576040805162461bcd60e51b815260206004820152601d60248201527f416d6f756e74206d7573742062652067726561746572207468616e2030000000604482015290519081900360640190fd5b73eeeeeeeeeeeeeeeeeeeeeeeeeeeeeeeeeeeeeeee90565b600082820183811015614119576040805162461bcd60e51b815260206004820152601b60248201527f536166654d6174683a206164646974696f6e206f766572666c6f770000000000604482015290519081900360640190fd5b90505b92915050565b600061411983836040518060400160405280601e81526020017f536166654d6174683a207375627472616374696f6e206f766572666c6f77000081525061447c565b6000826141735750600061411c565b8282028284828161418057fe5b04146141195760405162461bcd60e51b81526004018080602001828103825260218152602001806148bb6021913960400191505060405180910390fd5b600061411983836040518060400160405280601a81526020017f536166654d6174683a206469766973696f6e206279207a65726f0000000000008152506144d6565b603560009054906101000a90046001600160a01b03166001600160a01b031663ed6ff7606040518163ffffffff1660e01b815260040160206040518083038186803b15801561424d57600080fd5b505afa158015614261573d6000803e3d6000fd5b505050506040513d602081101561427757600080fd5b5051603680546001600160a01b0319166001600160a01b0392831617905560355460408051632f58b80d60e01b815290519190921691632f58b80d916004808301926020929190829003018186803b1580156142d257600080fd5b505afa1580156142e6573d6000803e3d6000fd5b505050506040513d60208110156142fc57600080fd5b5051603780546001600160a01b0319166001600160a01b03928316179055603554604080516302030ec760e11b8152905191909216916304061d8e916004808301926020929190829003018186803b15801561435757600080fd5b505afa15801561436b573d6000803e3d6000fd5b505050506040513d602081101561438157600080fd5b5051603880546001600160a01b0319166001600160a01b0392831617905560355460408051633efbbf0f60e21b81529051919092169163fbeefc3c916004808301926020929190829003018186803b1580156143dc57600080fd5b505afa1580156143f0573d6000803e3d6000fd5b505050506040513d602081101561440657600080fd5b5051603980546001600160a01b0319166001600160a01b03909216919091179055565b600190565b303b1590565b6b033b2e3c9fd0803ce800000090565b60006141196b033b2e3c9fd0803ce8000000612019614469868663ffffffff61416416565b6b019d971e4fe8401e74000000906140bf565b600081848411156144ce5760405162461bcd60e51b8152602060048201818152835160248401528351909283926044909101919085019080838360008315610ba2578181015183820152602001610b8a565b505050900390565b600081836145255760405162461bcd60e51b8152602060048201818152835160248401528351909283926044909101919085019080838360008315610ba2578181015183820152602001610b8a565b50600083858161453157fe5b0495945050505050565b604051806101000160405280600081526020016000815260200160008152602001600015158152602001600081526020016000815260200160008152602001600081525090565b6040518061020001604052806000815260200160008152602001600081526020016000815260200160008152602001600081526020016000815260200160008152602001600081526020016000815260200160008152602001600081526020016000815260200160008152602001600060028111156145fd57fe5b815260006020909101529056fe54686520626f72726f7765722063616e20616c7265616479206265206c69717569646174656420736f2068652063616e6e6f7420626f72726f77206d6f72655265656e7472616e637947756172643a207265656e7472616e742063616c6c005468657265206973206e6f7420656e6f756768206c697175696469747920617661696c61626c6520746f20626f72726f77496e76616c696420696e7465726573742072617465206d6f64652073656c656374656454686520616d6f756e7420746f20626f72726f7720697320746f6f20736d616c6c55736572206465706f73697420697320616c7265616479206265696e67207573656420617320636f6c6c61746572616c416374696f6e20726571756972657320616e20756e667265657a656420696e737472756d656e745468657265206973206e6f7420656e6f756768206c697175696469747920617661696c61626c6520746f2072656465656d4f6e6c79204c656e64696e6720506f6f6c20436f6e666967757261746f722063616e20726566726573682074686520636f6e66696775726174696f6e496e737472756d656e74206973206e6f7420656e61626c656420666f7220626f72726f77696e67546865207573657220626f72726f77206973207661726961626c6520616e642063616e6e6f7420626520726562616c616e636564496e76616c6964206d73672e76616c75652073656e7420666f72207468652072657061796d656e74496e746572657374207261746520726562616c616e636520636f6e646974696f6e732077657265206e6f74206d65745468652061637475616c2062616c616e6365206f66207468652070726f746f636f6c20697320696e636f6e73697374656e745468657265206973206e6f7420656e6f75676820636f6c6c61746572616c20746f20636f7665722061206e657720626f72726f77536166654d6174683a206d756c7469706c69636174696f6e206f766572666c6f775468652072657175657374656420616d6f756e7420697320746f6f20736d616c6c20666f72206120666c6173684c6f616e2e436f6e747261637420696e7374616e63652068617320616c7265616479206265656e20696e697469616c697a6564557365722063616e6e6f7420626f72726f77207468652073656c656374656420616d6f756e742077697468206120737461626c6520726174655573657220646f6573206e6f74206861766520616e79206c6971756964697479206465706f73697465645573657220697320747279696e6720746f20626f72726f7720746f6f206d756368206c6971756964697479206174206120737461626c65207261746554686520616d6f756e7420746f206465706f73697420697320746f6f20736d616c6c5573657220646f6573206e6f742068617665206120626f72726f7720696e2070726f6772657373206f6e207468697320696e737472756d656e745573657220646f6573206e6f74206861766520616e7920626f72726f7720666f72207468697320696e737472756d656e74546865207573657220646f6573206e6f74206861766520616e7920626f72726f772070656e64696e675468657265206973206e6f7420656e6f756768206c697175696469747920617661696c61626c6520696e2074686520496e737472756d656e74277320726573657276655468652063616c6c6572206f6620746869732066756e6374696f6e2063616e206f6e6c79206265207468652049546f6b656e20636f6e7472616374206f66207468697320696e737472756d656e74557365722063616e6e6f7420626f72726f77207468652073656c656374656420616d6f756e7420617420737461626c65546f207265706179206f6e20626568616c66206f6620616e207573657220616e206578706c6963697420616d6f756e7420746f207265706179206973206e65656465642e416374696f6e20726571756972657320616e2061637469766520696e737472756d656e74a265627a7a72315820f9d4695301122ca8878d683ad32f2d0b242d3820ea64155a4842ede8d3bbe63264736f6c63430005100032",
  "source": "pragma solidity ^0.5.0;\n\nimport \"openzeppelin-solidity/contracts/math/SafeMath.sol\";\nimport \"openzeppelin-solidity/contracts/utils/ReentrancyGuard.sol\";\nimport \"openzeppelin-solidity/contracts/utils/Address.sol\";\nimport \"openzeppelin-solidity/contracts/token/ERC20/IERC20.sol\";\n\nimport \"../../openzeppelin-upgradeability/VersionedInitializable.sol\";\nimport \"../libraries/CoreLibrary.sol\";\nimport \"../libraries/WadRayMath.sol\";\nimport \"../libraries/EthAddressLib.sol\";\n\nimport \"../../configuration/GlobalAddressesProvider.sol\";\nimport \"../interfaces/ILendingPoolParametersProvider.sol\";\nimport \"../interfaces/ITokenInterface.sol\";\nimport \"../interfaces/IFeeProvider.sol\";\nimport \"../interfaces/ILendingPoolCore.sol\";\nimport \"../interfaces/ILendingPoolDataProvider.sol\";\nimport \"../interfaces/ILendingPool.sol\";\n\nimport \"../flashloan/interfaces/IFlashLoanReceiver.sol\";\n\nimport \"./LendingPoolLiquidationManager.sol\";\n\n\n/**\n* @title LendingPool contract (Created by Aave, modified by SIGH Finance)\n* @notice Implements the actions of the LendingPool, and exposes accessory methods to fetch the users and financial instruments data\n* @author Aave, SIGH Finance\n **/\n\ncontract LendingPool is ILendingPool, ReentrancyGuard, VersionedInitializable {\n\n    using SafeMath for uint256;\n    using WadRayMath for uint256;\n    using Address for address;\n\n    GlobalAddressesProvider public addressesProvider;\n    ILendingPoolCore public core;\n    ILendingPoolDataProvider public dataProvider;\n    ILendingPoolParametersProvider public parametersProvider;\n    IFeeProvider public feeProvider;\n\n// #####################\n// ######  EVENTS ######\n// #####################\n\n    /**\n    * @dev emitted on deposit\n    * @param _instrument the address of the instrument\n    * @param _user the address of the user\n    * @param _amount the amount to be deposited\n    * @param _referral the referral number of the action\n    * @param _timestamp the timestamp of the action\n    **/\n    event Deposit( address indexed _instrument, address indexed _user, uint256 _amount, uint256 depositFee, uint16 _referral, uint256 _timestamp);\n\n    /**\n    * @dev emitted during a redeem action.\n    * @param _instrument the address of the instrument\n    * @param _user the address of the user\n    * @param _amount the amount to be deposited\n    * @param _timestamp the timestamp of the action\n    **/\n    event RedeemUnderlying(address indexed _instrument, address indexed _user, uint256 _amount, uint256 _timestamp);\n\n    /**\n    * @dev emitted on borrow\n    * @param _instrument the address of the instrument\n    * @param _user the address of the user\n    * @param _amount the amount to be deposited\n    * @param _borrowRateMode the rate mode, can be either 1-stable or 2-variable\n    * @param _borrowRate the rate at which the user has borrowed\n    * @param _borrowFee the origination fee to be paid by the user\n    * @param _borrowBalanceIncrease the balance increase since the last borrow, 0 if it's the first time borrowing\n    * @param _referral the referral number of the action\n    * @param _timestamp the timestamp of the action\n    **/\n    event Borrow( address indexed _instrument, address indexed _user, uint256 _amount, uint256 _borrowRateMode, uint256 _borrowRate, uint256 _borrowFee, uint256 _borrowBalanceIncrease, uint16 _referral, uint256 _timestamp);\n\n    /**\n    * @dev emitted on repay\n    * @param _instrument the address of the instrument\n    * @param _user the address of the user for which the repay has been executed\n    * @param _repayer the address of the user that has performed the repay action\n    * @param _amountMinusFees the amount repaid minus fees\n    * @param _fees the fees repaid\n    * @param _borrowBalanceIncrease the balance increase since the last action\n    * @param _timestamp the timestamp of the action\n    **/\n    event Repay( address indexed _instrument, address indexed _user, address indexed _repayer, uint256 _amountMinusFees, uint256 _fees, uint256 _borrowBalanceIncrease, uint256 _timestamp);\n\n    /**\n    * @dev emitted when a user performs a rate swap\n    * @param _instrument the address of the instrument\n    * @param _user the address of the user executing the swap\n    * @param _newRateMode the new interest rate mode\n    * @param _newRate the new borrow rate\n    * @param _borrowBalanceIncrease the balance increase since the last action\n    * @param _timestamp the timestamp of the action\n    **/\n    event Swap( address indexed _instrument, address indexed _user, uint256 _newRateMode, uint256 _newRate, uint256 _borrowBalanceIncrease, uint256 _timestamp);\n\n    /**\n    * @dev emitted when a user enables a instrument as collateral\n    * @param _instrument the address of the instrument\n    * @param _user the address of the user\n    **/\n    event InstrumentUsedAsCollateralEnabled(address indexed _instrument, address indexed _user);\n\n    /**\n    * @dev emitted when a user disables a instrument as collateral\n    * @param _instrument the address of the instrument\n    * @param _user the address of the user\n    **/\n    event InstrumentUsedAsCollateralDisabled(address indexed _instrument, address indexed _user);\n\n    /**\n    * @dev emitted when the stable rate of a user gets rebalanced\n    * @param _instrument the address of the instrument\n    * @param _user the address of the user for which the rebalance has been executed\n    * @param _newStableRate the new stable borrow rate after the rebalance\n    * @param _borrowBalanceIncrease the balance increase since the last action\n    * @param _timestamp the timestamp of the action\n    **/\n    event RebalanceStableBorrowRate( address indexed _instrument, address indexed _user, uint256 _newStableRate, uint256 _borrowBalanceIncrease, uint256 _timestamp);\n\n    /**\n    * @dev emitted when a flashloan is executed\n    * @param _target the address of the flashLoanReceiver\n    * @param _instrument the address of the instrument\n    * @param _amount the amount requested\n    * @param _totalFee the total fee on the amount\n    * @param _protocolFee the part of the fee for the protocol\n    * @param _timestamp the timestamp of the action\n    **/\n    event FlashLoan( address indexed _target, address indexed _instrument, uint256 _amount, uint256 _totalFee, uint256 _protocolFee, uint256 _timestamp );\n\n    /**\n    * @dev these events are not emitted directly by the LendingPool\n    * but they are declared here as the LendingPoolLiquidationManager\n    * is executed using a delegateCall().\n    * This allows to have the events in the generated ABI for LendingPool.\n    **/\n\n    /**\n    * @dev emitted when a borrow fee is liquidated\n    * @param _collateral the address of the collateral being liquidated\n    * @param _instrument the address of the instrument\n    * @param _user the address of the user being liquidated\n    * @param _feeLiquidated the total fee liquidated\n    * @param _liquidatedCollateralForFee the amount of collateral received by the protocol in exchange for the fee\n    * @param _timestamp the timestamp of the action\n    **/\n    event OriginationFeeLiquidated( address indexed _collateral, address indexed _instrument, address indexed _user, uint256 _feeLiquidated, uint256 _liquidatedCollateralForFee, uint256 _timestamp);\n\n    /**\n    * @dev emitted when a borrower is liquidated\n    * @param _collateral the address of the collateral being liquidated\n    * @param _instrument the address of the instrument\n    * @param _user the address of the user being liquidated\n    * @param _purchaseAmount the total amount liquidated\n    * @param _liquidatedCollateralAmount the amount of collateral being liquidated\n    * @param _accruedBorrowInterest the amount of interest accrued by the borrower since the last action\n    * @param _liquidator the address of the liquidator\n    * @param _receiveIToken true if the liquidator wants to receive ITokens, false otherwise\n    * @param _timestamp the timestamp of the action\n    **/\n    event LiquidationCall( address indexed _collateral, address indexed _instrument, address indexed _user, uint256 _purchaseAmount, uint256 _liquidatedCollateralAmount, uint256 _accruedBorrowInterest, address _liquidator, bool _receiveIToken, uint256 _timestamp);\n\n// ########################\n// ######  MODIFIERS ######\n// ########################\n\n    /**\n    * @dev functions affected by this modifier can only be invoked by the IToken.sol contract\n    * @param _instrument the address of the instrument\n    **/\n    modifier onlyOverlyingIToken(address _instrument) {\n        require( msg.sender == core.getInstrumentITokenAddress(_instrument), \"The caller of this function can only be the IToken contract of this instrument\" );\n        _;\n    }\n\n    /**\n    * @dev functions affected by this modifier can only be invoked if the instrument is active\n    * @param _instrument the address of the instrument\n    **/\n    modifier onlyActiveInstrument(address _instrument) {\n        requireInstrumentActiveInternal(_instrument);\n        _;\n    }\n\n    /**\n    * @dev functions affected by this modifier can only be invoked if the instrument is not freezed.\n    * A freezed instrument only allows redeems, repays, rebalances and liquidations.\n    * @param _instrument the address of the instrument\n    **/\n    modifier onlyUnfreezedInstrument(address _instrument) {\n        requireInstrumentNotFreezedInternal(_instrument);\n        _;\n    }\n\n    /**\n    * @dev functions affected by this modifier can only be invoked if the provided _amount input parameter is not zero.\n    * @param _amount the amount provided\n    **/\n    modifier onlyAmountGreaterThanZero(uint256 _amount) {\n        requireAmountGreaterThanZeroInternal(_amount);\n        _;\n    }\n\n    modifier onlyLendingPoolConfigurator() {\n        require( msg.sender == addressesProvider.getLendingPoolConfigurator(), \"Only Lending Pool Configurator can refresh the configuration\" );\n        _;\n    }    \n\n    uint256 public constant UINT_MAX_VALUE = uint256(-1);\n\n// ############################################################################################################\n// ######  initialize() function called by proxy contract when LendingPool is added to AddressesProvider ######\n// ############################################################################################################\n\n    uint256 public constant LENDINGPOOL_REVISION = 0x1;             // NEEDED AS PART OF UPGRADABLE CONTRACTS FUNCTIONALITY ( VersionedInitializable )\n\n    function getRevision() internal pure returns (uint256) {        // NEEDED AS PART OF UPGRADABLE CONTRACTS FUNCTIONALITY ( VersionedInitializable )\n        return LENDINGPOOL_REVISION;\n    }\n\n    /**\n    * @dev this function is invoked by the proxy contract when the LendingPool contract is added to the AddressesProvider.\n    * @param _addressesProvider the address of the GlobalAddressesProvider registry\n    **/\n    function initialize(GlobalAddressesProvider _addressesProvider) public initializer {\n        addressesProvider = _addressesProvider;\n    }\n    \n    function refreshConfig() external onlyLendingPoolConfigurator {     \n        refreshConfigInternal();\n    }\n\n    function refreshConfigInternal() internal {\n        core = ILendingPoolCore(addressesProvider.getLendingPoolCore());\n        dataProvider = ILendingPoolDataProvider(addressesProvider.getLendingPoolDataProvider());\n        parametersProvider = ILendingPoolParametersProvider(addressesProvider.getLendingPoolParametersProvider());\n        feeProvider = IFeeProvider(addressesProvider.getFeeProvider());\n    }\n\n// ###########################################\n// ######  DEPOSIT and REDEEM FUNCTIONS ######\n// ###########################################\n\n    /**\n    * @dev deposits The underlying asset into the instrument. A corresponding amount of the overlying asset (ITokens) is minted.\n    * @param _instrument the address of the underlying instrument (to be deposited)\n    * @param _amount the amount to be deposited\n    * @param _referralCode integrators are assigned a referral code and can potentially receive rewards.\n    **/\n    function deposit(address _instrument, uint256 _amount, uint16 _referralCode) external payable nonReentrant\n        onlyActiveInstrument(_instrument)\n        onlyUnfreezedInstrument(_instrument)\n        onlyAmountGreaterThanZero(_amount)\n    {\n        ITokenInterface iToken = ITokenInterface(core.getInstrumentITokenAddress(_instrument));\n        bool isFirstDeposit = iToken.balanceOf(msg.sender) == 0;\n        bool isETH = EthAddressLib.ethAddress() == _instrument;\n\n        uint256 depositFee = feeProvider.calculateDepositFee(msg.sender, _amount);\n        require(depositFee > 0, \"The amount to deposit is too small\");\n        core.transferToFeeCollectionAddress.value( isETH ? depositFee : 0)( _instrument, msg.sender, depositFee,  addressesProvider.getSIGHFinanceFeeCollector() );\n\n        core.updateStateOnDeposit(_instrument, msg.sender, _amount.sub(depositFee), isFirstDeposit);\n        iToken.mintOnDeposit(msg.sender, _amount.sub(depositFee));                                          //minting IToken to user 1:1 with the specific exchange rate\n        core.transferToReserve.value(msg.value)(_instrument, msg.sender, _amount.sub(depositFee));          //transfer to the core contract\n\n        emit Deposit(_instrument, msg.sender, _amount.sub(depositFee), depositFee , _referralCode, block.timestamp);\n\n    }\n\n    /**\n    * @dev Redeems the underlying amount of assets requested by _user.\n    * This function is executed by the overlying IToken contract in response to a redeem action.\n    * @param _instrument the address of the instrument (underlying instrument address)\n    * @param _user the address of the user performing the action\n    * @param _amount the underlying amount to be redeemed\n    **/\n    function redeemUnderlying( address _instrument,address payable _user,uint256 _amount, uint256 _ITokenBalanceAfterRedeem) external nonReentrant\n        onlyOverlyingIToken(_instrument)\n        onlyActiveInstrument(_instrument)\n        onlyAmountGreaterThanZero(_amount)\n    {\n        uint256 currentAvailableLiquidity = core.getInstrumentAvailableLiquidity(_instrument);\n        require( currentAvailableLiquidity >= _amount, \"There is not enough liquidity available to redeem\" );\n\n        core.updateStateOnRedeem(_instrument, _user, _amount, _ITokenBalanceAfterRedeem == 0);\n        core.transferToUser(_instrument, _user, _amount);\n\n        emit RedeemUnderlying(_instrument, _user, _amount, block.timestamp);\n    }\n\n// #########################################\n// ######  BORROW and REPAY FUNCTIONS ######\n// #########################################\n\n    /**\n    * @dev data structures for local computations in the borrow() method.\n    */\n\n    struct BorrowLocalVars {\n        uint256 principalBorrowBalance;\n        uint256 currentLtv;\n        uint256 currentLiquidationThreshold;\n        uint256 borrowFee;\n        uint256 requestedBorrowAmountETH;\n        uint256 amountOfCollateralNeededETH;\n        uint256 userCollateralBalanceETH;\n        uint256 userBorrowBalanceETH;\n        uint256 userTotalFeesETH;\n        uint256 borrowBalanceIncrease;\n        uint256 currentInstrumentStableRate;\n        uint256 availableLiquidity;\n        uint256 instrumentDecimals;\n        uint256 finalUserBorrowRate;\n        CoreLibrary.InterestRateMode rateMode;\n        bool healthFactorBelowThreshold;\n    }\n\n    /**\n    * @dev Allows users to borrow a specific amount of the instrument currency, provided that the borrower already deposited enough collateral.\n    * @param _instrument the address of the instrument\n    * @param _amount the amount to be borrowed\n    * @param _interestRateMode the interest rate mode at which the user wants to borrow. Can be 0 (STABLE) or 1 (VARIABLE)\n    **/\n    function borrow(address _instrument,uint256 _amount,uint256 _interestRateMode,uint16 _referralCode) external nonReentrant \n        onlyActiveInstrument(_instrument)\n        onlyUnfreezedInstrument(_instrument)\n        onlyAmountGreaterThanZero(_amount)\n    {\n        \n        BorrowLocalVars memory vars;            // Usage of a memory struct of vars to avoid \"Stack too deep\" errors due to local variables\n        require(core.isInstrumentBorrowingEnabled(_instrument), \"Instrument is not enabled for borrowing\");     //check that the instrument is enabled for borrowing\n\n        //validate interest rate mode\n        require( uint256(CoreLibrary.InterestRateMode.VARIABLE) == _interestRateMode || uint256(CoreLibrary.InterestRateMode.STABLE) == _interestRateMode, \"Invalid interest rate mode selected\");\n        vars.rateMode = CoreLibrary.InterestRateMode(_interestRateMode);                //cast the rateMode to coreLibrary.interestRateMode\n\n        vars.availableLiquidity = core.getInstrumentAvailableLiquidity(_instrument);    //check that the amount is available in the core contract\n        require( vars.availableLiquidity >= _amount,\"There is not enough liquidity available in the Instrument's reserve\");\n\n        ( , vars.userCollateralBalanceETH,  vars.userBorrowBalanceETH,  vars.userTotalFeesETH,  vars.currentLtv, vars.currentLiquidationThreshold,  , vars.healthFactorBelowThreshold  ) = dataProvider.calculateUserGlobalData(msg.sender);\n\n        require(vars.userCollateralBalanceETH > 0, \"The collateral balance is 0\");\n        require( !vars.healthFactorBelowThreshold, \"The borrower can already be liquidated so he cannot borrow more\");\n\n        vars.borrowFee = feeProvider.calculateLoanOriginationFee(msg.sender, _amount);          //calculating fees\n        require(vars.borrowFee > 0, \"The amount to borrow is too small\");\n\n        vars.amountOfCollateralNeededETH = dataProvider.calculateCollateralNeededInETH( _instrument,  _amount, vars.borrowFee, vars.userBorrowBalanceETH, vars.userTotalFeesETH, vars.currentLtv);\n        require(vars.amountOfCollateralNeededETH <= vars.userCollateralBalanceETH, \"There is not enough collateral to cover a new borrow\");\n\n        /**\n        * Following conditions need to be met if the user is borrowing at a stable rate:\n        * 1. Financial Instrument must be enabled for stable rate borrowing\n        * 2. Users cannot borrow from the instrument's reserve if their collateral is (mostly) the same instrument they are borrowing, to prevent abuses.\n        * 3. Users will be able to borrow only a relatively small, configurable amount of the total liquidity\n        **/\n\n        if (vars.rateMode == CoreLibrary.InterestRateMode.STABLE) {         //check if the borrow mode is stable and if stable rate borrowing is enabled on this instrument\n            require( core.isUserAllowedToBorrowAtStable(_instrument, msg.sender, _amount), \"User cannot borrow the selected amount with a stable rate\" );\n\n            //calculate the max available loan size in stable rate mode as a percentage of the available liquidity\n            uint256 maxLoanPercent = parametersProvider.getMaxStableRateBorrowSizePercent();        \n            uint256 maxLoanSizeStable = vars.availableLiquidity.mul(maxLoanPercent).div(100);\n            require(  _amount <= maxLoanSizeStable, \"User is trying to borrow too much liquidity at a stable rate\");\n        }\n\n        //all conditions passed - borrow is accepted\n        (vars.finalUserBorrowRate, vars.borrowBalanceIncrease) = core.updateStateOnBorrow( _instrument, msg.sender, _amount, vars.borrowFee, vars.rateMode);\n        core.transferToUser(_instrument, msg.sender, _amount);      //if we reached this point, we can transfer\n\n        emit Borrow( _instrument, msg.sender, _amount, _interestRateMode, vars.finalUserBorrowRate, vars.borrowFee, vars.borrowBalanceIncrease, _referralCode, block.timestamp);\n    }\n\n    /**\n    * @notice repays a borrow on the specific instrument, for the specified amount (or for the whole amount, if uint256(-1) is specified).\n    * @dev the target user is defined by _onBehalfOf. If there is no repayment on behalf of another account,\n    * _onBehalfOf must be equal to msg.sender.\n    * @param _instrument the address of the instrument on which the user borrowed\n    * @param _amount the amount to repay, or uint256(-1) if the user wants to repay everything\n    * @param _onBehalfOf the address for which msg.sender is repaying.\n    **/\n\n    struct RepayLocalVars {\n        uint256 principalBorrowBalance;\n        uint256 compoundedBorrowBalance;\n        uint256 borrowBalanceIncrease;\n        bool isETH;\n        uint256 paybackAmount;\n        uint256 paybackAmountMinusFees;\n        uint256 currentStableRate;\n        uint256 borrowFee;\n    }\n\n    function repay(address _instrument, uint256 _amount, address payable _onBehalfOf) external payable nonReentrant \n    onlyActiveInstrument(_instrument) \n    onlyAmountGreaterThanZero(_amount) {\n        \n        RepayLocalVars memory vars;     // Usage of a memory struct of vars to avoid \"Stack too deep\" errors due to local variables\n        ( vars.principalBorrowBalance, vars.compoundedBorrowBalance, vars.borrowBalanceIncrease ) = core.getUserBorrowBalances(_instrument, _onBehalfOf);\n\n        vars.borrowFee = core.getUserBorrowFee(_instrument, _onBehalfOf);\n        vars.isETH = EthAddressLib.ethAddress() == _instrument;\n\n        require(vars.compoundedBorrowBalance > 0, \"The user does not have any borrow pending\");\n        require( _amount != UINT_MAX_VALUE || msg.sender == _onBehalfOf, \"To repay on behalf of an user an explicit amount to repay is needed.\");\n\n        vars.paybackAmount = vars.compoundedBorrowBalance.add(vars.borrowFee);     //default to max amount\n\n        if (_amount != UINT_MAX_VALUE && _amount < vars.paybackAmount) {\n            vars.paybackAmount = _amount;\n        }\n\n        require( !vars.isETH || msg.value >= vars.paybackAmount, \"Invalid msg.value sent for the repayment\");\n\n        //if the amount is smaller than the origination fee, just transfer the amount to the fee destination address\n        if (vars.paybackAmount <= vars.borrowFee) {\n            core.updateStateOnRepay( _instrument, _onBehalfOf, 0, vars.paybackAmount, vars.borrowBalanceIncrease, false);\n            core.transferToFeeCollectionAddress.value( vars.isETH ? vars.paybackAmount : 0)( _instrument, _onBehalfOf, vars.paybackAmount,  addressesProvider.getSIGHFinanceFeeCollector() );\n\n            emit Repay(_instrument, _onBehalfOf, msg.sender, 0, vars.paybackAmount, vars.borrowBalanceIncrease, block.timestamp );\n            return;\n        }\n\n        vars.paybackAmountMinusFees = vars.paybackAmount.sub(vars.borrowFee);\n        core.updateStateOnRepay( _instrument, _onBehalfOf, vars.paybackAmountMinusFees, vars.borrowFee, vars.borrowBalanceIncrease, vars.compoundedBorrowBalance == vars.paybackAmountMinusFees);\n\n        //if the user didn't repay the origination fee, transfer the fee to the fee collection address\n        if(vars.borrowFee > 0) {\n            core.transferToFeeCollectionAddress.value(vars.isETH ? vars.borrowFee : 0)( _instrument, _onBehalfOf, vars.borrowFee, addressesProvider.getSIGHFinanceFeeCollector() );\n        }\n\n        //sending the total msg.value if the transfer is ETH.\n        //the transferToReserve() function will take care of sending the excess ETH back to the caller\n        core.transferToReserve.value(vars.isETH ? msg.value.sub(vars.borrowFee) : 0)( _instrument, msg.sender, vars.paybackAmountMinusFees );\n        emit Repay( _instrument, _onBehalfOf, msg.sender, vars.paybackAmountMinusFees, vars.borrowFee, vars.borrowBalanceIncrease, block.timestamp);\n    }\n\n\n// ####################################################################\n// ######  1. SWAP BETWEEN STABLE AND VARIABLE BORROW RATE MODES ######\n// ######  2. REBALANCES THE STABLE INTEREST RATE OF A USER      ######\n// ####################################################################\n\n    /**\n    * @dev borrowers can user this function to swap between stable and variable borrow rate modes.\n    * @param _instrument the address of the instrument on which the user borrowed\n    **/\n    function swapBorrowRateMode(address _instrument) external nonReentrant \n    onlyActiveInstrument(_instrument) \n    onlyUnfreezedInstrument(_instrument) {\n        (uint256 principalBorrowBalance, uint256 compoundedBorrowBalance, uint256 borrowBalanceIncrease) = core.getUserBorrowBalances(_instrument, msg.sender);\n\n        require( compoundedBorrowBalance > 0,\"User does not have a borrow in progress on this instrument\");\n        CoreLibrary.InterestRateMode currentRateMode = core.getUserCurrentBorrowRateMode(_instrument, msg.sender);\n\n        if (currentRateMode == CoreLibrary.InterestRateMode.VARIABLE) {\n            /**\n            * user wants to swap to stable, before swapping we need to ensure that\n            * 1. stable borrow rate is enabled on the instrument\n            * 2. user is not trying to abuse the instrument by depositing\n            * more collateral than he is borrowing, artificially lowering\n            * the interest rate, borrowing at variable, and switching to stable\n            **/\n            require(core.isUserAllowedToBorrowAtStable(_instrument, msg.sender, compoundedBorrowBalance), \"User cannot borrow the selected amount at stable\");\n        }\n\n        (CoreLibrary.InterestRateMode newRateMode, uint256 newBorrowRate) = core.updateStateOnSwapRate(_instrument, msg.sender, principalBorrowBalance, compoundedBorrowBalance, borrowBalanceIncrease, currentRateMode );\n        emit Swap( _instrument, msg.sender, uint256(newRateMode), newBorrowRate, borrowBalanceIncrease, block.timestamp);\n    }\n\n    /**\n    * @dev rebalances the stable interest rate of a user if current liquidity rate > user stable rate.\n    * this is regulated by Aave to ensure that the protocol is not abused, and the user is paying a fair\n    * rate. Anyone can call this function though.\n    * @param _instrument the address of the instrument\n    * @param _user the address of the user to be rebalanced\n    **/\n    function rebalanceStableBorrowRate(address _instrument, address _user) external nonReentrant \n    onlyActiveInstrument(_instrument) {\n        (, uint256 compoundedBalance, uint256 borrowBalanceIncrease) = core.getUserBorrowBalances(_instrument, _user);\n\n        //step 1: user must be borrowing on _instrument at a stable rate\n        require(compoundedBalance > 0, \"User does not have any borrow for this instrument\");\n        require( core.getUserCurrentBorrowRateMode(_instrument, _user) == CoreLibrary.InterestRateMode.STABLE,\"The user borrow is variable and cannot be rebalanced\" );\n\n        uint256 userCurrentStableRate = core.getUserCurrentStableBorrowRate(_instrument, _user);\n        uint256 liquidityRate = core.getInstrumentCurrentLiquidityRate(_instrument);\n        uint256 instrumentCurrentStableRate = core.getInstrumentCurrentStableBorrowRate(_instrument);\n        uint256 rebalanceDownRateThreshold = instrumentCurrentStableRate.rayMul( WadRayMath.ray().add( parametersProvider.getRebalanceDownRateDelta() ) );\n\n        //step 2: we have two possible situations to rebalance:\n\n        //1. user stable borrow rate is below the current liquidity rate. The loan needs to be rebalanced,\n        //as this situation can be abused (user putting back the borrowed liquidity in the same instrument to earn on it)\n        //2. user stable rate is above the market avg borrow rate of a certain delta, and utilization rate is low.\n        //In this case, the user is paying an interest that is too high, and needs to be rescaled down.\n        if ( userCurrentStableRate < liquidityRate || userCurrentStableRate > rebalanceDownRateThreshold) {\n            uint256 newStableRate = core.updateStateOnRebalance( _instrument, _user, borrowBalanceIncrease );\n\n            emit RebalanceStableBorrowRate( _instrument, _user, newStableRate, borrowBalanceIncrease, block.timestamp );\n            return;\n        }\n\n        revert(\"Interest rate rebalance conditions were not met\");\n    }\n\n// #####################################################################################################\n// ######  1. DEPOSITORS CAN ENABLE DISABLE SPECIFIC DEPOSIT AS COLLATERAL                  ############\n// ######  2. FUNCTION WHICH CAN BE INVOKED TO LIQUIDATE AN UNDERCOLLATERALIZED POSITION    ############\n// #####################################################################################################\n\n    /**\n    * @dev allows depositors to enable or disable a specific deposit as collateral.\n    * @param _instrument the address of the instrument\n    * @param _useAsCollateral true if the user wants to user the deposit as collateral, false otherwise.\n    **/\n    function setUserUseInstrumentAsCollateral(address _instrument, bool _useAsCollateral) external nonReentrant \n    onlyActiveInstrument(_instrument)  onlyUnfreezedInstrument(_instrument) {\n       \n        uint256 underlyingBalance = core.getUserUnderlyingAssetBalance(_instrument, msg.sender);\n\n        require(underlyingBalance > 0, \"User does not have any liquidity deposited\");\n        require( dataProvider.balanceDecreaseAllowed(_instrument, msg.sender, underlyingBalance), \"User deposit is already being used as collateral\");\n\n        core.setUserUseInstrumentAsCollateral(_instrument, msg.sender, _useAsCollateral);\n\n        if (_useAsCollateral) {\n            emit InstrumentUsedAsCollateralEnabled(_instrument, msg.sender);\n        } \n        else {\n            emit InstrumentUsedAsCollateralDisabled(_instrument, msg.sender);\n        }\n    }\n\n    /**\n    * @dev users can invoke this function to liquidate an undercollateralized position.\n    * @param _collateral the address of the collateral to liquidated\n    * @param _instrument the address of the principal instrument\n    * @param _user the address of the borrower\n    * @param _purchaseAmount the amount of principal that the liquidator wants to repay\n    * @param _receiveIToken true if the liquidators wants to receive the ITokens, false if\n    * he wants to receive the underlying asset directly\n    **/\n    function liquidationCall( address _collateral, address _instrument, address _user, uint256 _purchaseAmount, bool _receiveIToken ) external payable nonReentrant \n        onlyActiveInstrument(_instrument) \n        onlyActiveInstrument(_collateral) {\n\n        address liquidationManager = addressesProvider.getLendingPoolLiquidationManager();\n        (bool success, bytes memory result) = liquidationManager.delegatecall( abi.encodeWithSignature(\"liquidationCall(address,address,address,uint256,bool)\",  _collateral, _instrument, _user, _purchaseAmount, _receiveIToken ) );\n        require(success, \"Liquidation call failed\");\n\n        (uint256 returnCode, string memory returnMessage) = abi.decode(result, (uint256, string));\n\n        if (returnCode != 0) {      //error found\n            revert(string(abi.encodePacked(\"Liquidation failed: \", returnMessage)));\n        }\n    }\n\n// ################################################################################################################\n// ######  1. FLASH LOAN (total fee = protocol fee + fee distributed among depositors)                 ############\n// ################################################################################################################\n    /**\n    * @dev allows smartcontracts to access the liquidity of the pool within one transaction,\n    * as long as the amount taken plus a fee is returned. NOTE There are security concerns for developers of flashloan receiver contracts\n    * that must be kept into consideration. For further details please visit https://developers.aave.com\n    * @param _receiver The address of the contract receiving the funds. The receiver should implement the IFlashLoanReceiver interface.\n    * @param _instrument the address of the principal instrument\n    * @param _amount the amount requested for this flashloan\n    **/\n    function flashLoan(address _receiver, address _instrument, uint256 _amount, bytes memory _params)  public nonReentrant\n        onlyActiveInstrument(_instrument)\n        onlyAmountGreaterThanZero(_amount)\n    {\n        //check that the instrument has enough available liquidity\n        //we avoid using the getAvailableLiquidity() function in LendingPoolCore to save gas\n        uint256 availableLiquidityBefore = _instrument == EthAddressLib.ethAddress() ? address(core).balance : IERC20(_instrument).balanceOf(address(core));\n\n        require( availableLiquidityBefore >= _amount, \"There is not enough liquidity available to borrow\");\n\n        (uint256 totalFeeBips, uint256 protocolFeeBips) = parametersProvider.getFlashLoanFeesInBips();\n        uint256 amountFee = _amount.mul(totalFeeBips).div(10000);           //calculate amount fee (0.5%)\n        uint256 protocolFee = amountFee.mul(protocolFeeBips).div(10000);    //protocol fee is the 50% of the amountFee, i.e 0.25%\n        require( amountFee > 0 && protocolFee > 0, \"The requested amount is too small for a flashLoan.\" );\n\n        //get the FlashLoanReceiver instance\n        IFlashLoanReceiver receiver = IFlashLoanReceiver(_receiver);\n        address payable userPayable = address(uint160(_receiver));\n\n        //transfer funds to the receiver\n        core.transferToUser(_instrument, userPayable, _amount);\n\n        //execute action of the receiver\n        receiver.executeOperation(_instrument, _amount, amountFee, _params);\n\n        //check that the actual balance of the core contract includes the returned amount\n        uint256 availableLiquidityAfter = _instrument == EthAddressLib.ethAddress() ? address(core).balance : IERC20(_instrument).balanceOf(address(core));\n        require( availableLiquidityAfter == availableLiquidityBefore.add(amountFee), \"The actual balance of the protocol is inconsistent\");\n\n        core.updateStateOnFlashLoan( _instrument, availableLiquidityBefore, amountFee.sub(protocolFee), protocolFee );\n        emit FlashLoan(_receiver, _instrument, _amount, amountFee, protocolFee, block.timestamp);\n    }\n\n    function transferSIGHPayToStakingContract(address _instrument)  public nonReentrant onlyActiveInstrument(_instrument) {\n            core.transferSIGHPayToStakingContract(_instrument);\n    }\n\n\n\n// ####################################################################\n// ######  FUNCTIONS TO FETCH DATA FROM THE CORE CONTRACT  ############\n// ######  1. getInstrumentConfigurationData()  ############\n// ######  2. getInstrumentData()  ############\n// ######  3. getUserAccountData()  ############\n// ######  4. getUserInstrumentData()  ############\n// ######  5. getUserInstrumentData()  ############\n// ####################################################################\n    /**\n    * @dev accessory functions to fetch data from the core contract\n    **/\n\n    function getInstrumentConfigurationData(address _instrument) external view returns (\n            uint256 ltv,\n            uint256 liquidationThreshold,\n            uint256 liquidationBonus,\n            address interestRateStrategyAddress,\n            bool usageAsCollateralEnabled,\n            bool borrowingEnabled,\n            bool stableBorrowRateEnabled,\n            bool isActive\n        )\n    {\n        return dataProvider.getInstrumentConfigurationData(_instrument);\n    }\n\n    function getInstrumentData(address _instrument) external view returns (\n            uint256 totalLiquidity,\n            uint256 availableLiquidity,\n            uint256 totalBorrowsStable,\n            uint256 totalBorrowsVariable,\n            uint256 liquidityRate,\n            uint256 variableBorrowRate,\n            uint256 stableBorrowRate,\n            uint256 averageStableBorrowRate,\n            uint256 utilizationRate,\n            uint256 liquidityIndex,\n            uint256 variableBorrowIndex,\n            address iTokenAddress,\n            uint40 lastUpdateTimestamp\n        )\n    {\n        return dataProvider.getInstrumentData(_instrument);\n    }\n\n    function getUserAccountData(address _user) external view returns (\n            uint256 totalLiquidityETH,\n            uint256 totalCollateralETH,\n            uint256 totalBorrowsETH,\n            uint256 totalFeesETH,\n            uint256 availableBorrowsETH,\n            uint256 currentLiquidationThreshold,\n            uint256 ltv,\n            uint256 healthFactor\n        )\n    {\n        return dataProvider.getUserAccountData(_user);\n    }\n\n    function getUserInstrumentData(address _instrument, address _user) external view returns (\n            uint256 currentITokenBalance,\n            uint256 currentBorrowBalance,\n            uint256 principalBorrowBalance,\n            uint256 borrowRateMode,\n            uint256 borrowRate,\n            uint256 liquidityRate,\n            uint256 borrowFee,\n            uint256 variableBorrowIndex,\n            uint256 lastUpdateTimestamp,\n            bool usageAsCollateralEnabled\n        )\n    {\n        return dataProvider.getUserInstrumentData(_instrument, _user);\n    }\n\n    function getInstruments() external view returns (address[] memory) {\n        return core.getInstruments();\n    }\n\n// ########################################\n// ######  INTERNAL FUNCTIONS  ############\n// ########################################\n    /**\n    * @dev internal function to save on code size for the onlyActiveInstrument modifier\n    **/\n    function requireInstrumentActiveInternal(address _instrument) internal view {\n        require(core.getInstrumentIsActive(_instrument), \"Action requires an active instrument\");\n    }\n\n    /**\n    * @notice internal function to save on code size for the onlyUnfreezedInstrument modifier\n    **/\n    function requireInstrumentNotFreezedInternal(address _instrument) internal view {\n        require(!core.getInstrumentIsFreezed(_instrument), \"Action requires an unfreezed instrument\");\n    }\n\n    /**\n    * @notice internal function to save on code size for the onlyAmountGreaterThanZero modifier\n    **/\n    function requireAmountGreaterThanZeroInternal(uint256 _amount) internal pure {\n        require(_amount > 0, \"Amount must be greater than 0\");\n    }\n}\n",
  "sourcePath": "/Users/apple/Desktop/GITCOIN/Sigh_Finance/SighFinanceContracts/contracts/LendingProtocolContracts/lendingpool/LendingPool.sol",
  "compiler": {
    "name": "solc",
    "version": "0.5.16+commit.9c3226ce.Emscripten.clang"
  },
  "schemaVersion": "3.2.4",
  "updatedAt": "2021-01-05T05:29:52.265Z",
  "devdoc": {
    "author": "Aave, SIGH Finance*",
    "methods": {
      "borrow(address,uint256,uint256,uint16)": {
        "details": "Allows users to borrow a specific amount of the instrument currency, provided that the borrower already deposited enough collateral.",
        "params": {
          "_amount": "the amount to be borrowed",
          "_instrument": "the address of the instrument",
          "_interestRateMode": "the interest rate mode at which the user wants to borrow. Can be 0 (STABLE) or 1 (VARIABLE)*"
        }
      },
      "deposit(address,uint256,uint16)": {
        "details": "deposits The underlying asset into the instrument. A corresponding amount of the overlying asset (ITokens) is minted.",
        "params": {
          "_amount": "the amount to be deposited",
          "_instrument": "the address of the underlying instrument (to be deposited)",
          "_referralCode": "integrators are assigned a referral code and can potentially receive rewards.*"
        }
      },
      "flashLoan(address,address,uint256,bytes)": {
        "details": "allows smartcontracts to access the liquidity of the pool within one transaction, as long as the amount taken plus a fee is returned. NOTE There are security concerns for developers of flashloan receiver contracts that must be kept into consideration. For further details please visit https://developers.aave.com",
        "params": {
          "_amount": "the amount requested for this flashloan*",
          "_instrument": "the address of the principal instrument",
          "_receiver": "The address of the contract receiving the funds. The receiver should implement the IFlashLoanReceiver interface."
        }
      },
      "getInstrumentConfigurationData(address)": {
        "details": "accessory functions to fetch data from the core contract*"
      },
      "initialize(address)": {
        "details": "this function is invoked by the proxy contract when the LendingPool contract is added to the AddressesProvider.",
        "params": {
          "_addressesProvider": "the address of the GlobalAddressesProvider registry*"
        }
      },
      "liquidationCall(address,address,address,uint256,bool)": {
        "details": "users can invoke this function to liquidate an undercollateralized position.",
        "params": {
          "_collateral": "the address of the collateral to liquidated",
          "_instrument": "the address of the principal instrument",
          "_purchaseAmount": "the amount of principal that the liquidator wants to repay",
          "_receiveIToken": "true if the liquidators wants to receive the ITokens, false if he wants to receive the underlying asset directly*",
          "_user": "the address of the borrower"
        }
      },
      "rebalanceStableBorrowRate(address,address)": {
        "details": "rebalances the stable interest rate of a user if current liquidity rate > user stable rate. this is regulated by Aave to ensure that the protocol is not abused, and the user is paying a fair rate. Anyone can call this function though.",
        "params": {
          "_instrument": "the address of the instrument",
          "_user": "the address of the user to be rebalanced*"
        }
      },
      "redeemUnderlying(address,address,uint256,uint256)": {
        "details": "Redeems the underlying amount of assets requested by _user. This function is executed by the overlying IToken contract in response to a redeem action.",
        "params": {
          "_amount": "the underlying amount to be redeemed*",
          "_instrument": "the address of the instrument (underlying instrument address)",
          "_user": "the address of the user performing the action"
        }
      },
      "setUserUseInstrumentAsCollateral(address,bool)": {
        "details": "allows depositors to enable or disable a specific deposit as collateral.",
        "params": {
          "_instrument": "the address of the instrument",
          "_useAsCollateral": "true if the user wants to user the deposit as collateral, false otherwise.*"
        }
      },
      "swapBorrowRateMode(address)": {
        "details": "borrowers can user this function to swap between stable and variable borrow rate modes.",
        "params": {
          "_instrument": "the address of the instrument on which the user borrowed*"
        }
      }
    },
    "title": "LendingPool contract (Created by Aave, modified by SIGH Finance)"
  },
  "userdoc": {
    "methods": {},
    "notice": "Implements the actions of the LendingPool, and exposes accessory methods to fetch the users and financial instruments data"
  }
}