{
  "contractName": "LendingRateOracle",
  "abi": [
    {
      "constant": true,
      "inputs": [
        {
          "internalType": "address",
          "name": "_asset",
          "type": "address"
        }
      ],
      "name": "getMarketBorrowRate",
      "outputs": [
        {
          "internalType": "uint256",
          "name": "",
          "type": "uint256"
        }
      ],
      "payable": false,
      "stateMutability": "view",
      "type": "function"
    },
    {
      "constant": false,
      "inputs": [
        {
          "internalType": "address",
          "name": "_asset",
          "type": "address"
        },
        {
          "internalType": "uint256",
          "name": "_rate",
          "type": "uint256"
        }
      ],
      "name": "setMarketBorrowRate",
      "outputs": [],
      "payable": false,
      "stateMutability": "nonpayable",
      "type": "function"
    },
    {
      "constant": true,
      "inputs": [
        {
          "internalType": "address",
          "name": "_asset",
          "type": "address"
        }
      ],
      "name": "getMarketLiquidityRate",
      "outputs": [
        {
          "internalType": "uint256",
          "name": "",
          "type": "uint256"
        }
      ],
      "payable": false,
      "stateMutability": "view",
      "type": "function"
    },
    {
      "constant": false,
      "inputs": [
        {
          "internalType": "address",
          "name": "_asset",
          "type": "address"
        },
        {
          "internalType": "uint256",
          "name": "_rate",
          "type": "uint256"
        }
      ],
      "name": "setMarketLiquidityRate",
      "outputs": [],
      "payable": false,
      "stateMutability": "nonpayable",
      "type": "function"
    }
  ],
  "bytecode": "0x608060405234801561001057600080fd5b506101ac806100206000396000f3fe608060405234801561001057600080fd5b506004361061004c5760003560e01c806372eb293d146100515780639f86a0ee1461007f578063bb85c0bb146100ab578063fbe5ba1e146100e3575b600080fd5b61007d6004803603604081101561006757600080fd5b506001600160a01b038135169060200135610109565b005b61007d6004803603604081101561009557600080fd5b506001600160a01b038135169060200135610125565b6100d1600480360360208110156100c157600080fd5b50356001600160a01b0316610141565b60408051918252519081900360200190f35b6100d1600480360360208110156100f957600080fd5b50356001600160a01b031661015c565b6001600160a01b03909116600090815260208190526040902055565b6001600160a01b03909116600090815260016020526040902055565b6001600160a01b031660009081526020819052604090205490565b6001600160a01b03166000908152600160205260409020549056fea265627a7a72315820fa23171f7edbb591b924861a316f57749c6375c93331fa94b3c2649cf46b72dc64736f6c63430005100032",
  "source": "pragma solidity ^0.5.0;\n\nimport \"../../interfaces/ILendingRateOracle.sol\";\n\n\ncontract LendingRateOracle is ILendingRateOracle {\n\n    mapping(address => uint256) borrowRates;\n    mapping(address => uint256) liquidityRates;\n\n\n    function getMarketBorrowRate(address _asset) external view returns(uint256) {\n        return borrowRates[_asset];\n    }\n\n    function setMarketBorrowRate(address _asset, uint256 _rate) external {\n        borrowRates[_asset] = _rate;\n    }\n\n    function getMarketLiquidityRate(address _asset) external view returns(uint256) {\n        return liquidityRates[_asset];\n    }\n\n    function setMarketLiquidityRate(address _asset, uint256 _rate) external {\n        liquidityRates[_asset] = _rate;\n    }\n}",
  "sourcePath": "/Users/apple/Desktop/GITCOIN/Sigh_Finance/SighFinanceContracts/contracts/LendingProtocolContracts/mocks/oracle/LendingRateOracle.sol",
  "compiler": {
    "name": "solc",
    "version": "0.5.16+commit.9c3226ce.Emscripten.clang"
  },
  "schemaVersion": "3.2.4",
  "updatedAt": "2020-11-27T07:56:44.953Z",
  "devdoc": {
    "methods": {}
  },
  "userdoc": {
    "methods": {}
  }
}