{
  "contractName": "LendingRateOracle",
  "abi": [
    {
      "inputs": [
        {
          "internalType": "address",
          "name": "_globalAddressesProvider",
          "type": "address"
        }
      ],
      "payable": false,
      "stateMutability": "nonpayable",
      "type": "constructor"
    },
    {
      "constant": true,
      "inputs": [
        {
          "internalType": "address",
          "name": "_asset",
          "type": "address"
        }
      ],
      "name": "getMarketBorrowRate",
      "outputs": [
        {
          "internalType": "uint256",
          "name": "",
          "type": "uint256"
        }
      ],
      "payable": false,
      "stateMutability": "view",
      "type": "function"
    },
    {
      "constant": false,
      "inputs": [
        {
          "internalType": "address",
          "name": "_asset",
          "type": "address"
        },
        {
          "internalType": "uint256",
          "name": "_rate",
          "type": "uint256"
        }
      ],
      "name": "setMarketBorrowRate",
      "outputs": [],
      "payable": false,
      "stateMutability": "nonpayable",
      "type": "function"
    },
    {
      "constant": true,
      "inputs": [
        {
          "internalType": "address",
          "name": "_asset",
          "type": "address"
        }
      ],
      "name": "getMarketLiquidityRate",
      "outputs": [
        {
          "internalType": "uint256",
          "name": "",
          "type": "uint256"
        }
      ],
      "payable": false,
      "stateMutability": "view",
      "type": "function"
    },
    {
      "constant": false,
      "inputs": [
        {
          "internalType": "address",
          "name": "_asset",
          "type": "address"
        },
        {
          "internalType": "uint256",
          "name": "_rate",
          "type": "uint256"
        }
      ],
      "name": "setMarketLiquidityRate",
      "outputs": [],
      "payable": false,
      "stateMutability": "nonpayable",
      "type": "function"
    }
  ],
  "bytecode": "0x608060405234801561001057600080fd5b506040516103bf3803806103bf8339818101604052602081101561003357600080fd5b5051600080546001600160a01b039092166001600160a01b031990921691909117905561035a806100656000396000f3fe608060405234801561001057600080fd5b506004361061004c5760003560e01c806372eb293d146100515780639f86a0ee1461007f578063bb85c0bb146100ab578063fbe5ba1e146100e3575b600080fd5b61007d6004803603604081101561006757600080fd5b506001600160a01b038135169060200135610109565b005b61007d6004803603604081101561009557600080fd5b506001600160a01b0381351690602001356101e4565b6100d1600480360360208110156100c157600080fd5b50356001600160a01b03166102bf565b60408051918252519081900360200190f35b6100d1600480360360208110156100f957600080fd5b50356001600160a01b03166102da565b6000809054906101000a90046001600160a01b03166001600160a01b03166333128d596040518163ffffffff1660e01b815260040160206040518083038186803b15801561015657600080fd5b505afa15801561016a573d6000803e3d6000fd5b505050506040513d602081101561018057600080fd5b50516001600160a01b031633146101c85760405162461bcd60e51b81526004018080602001828103825260308152602001806102f66030913960400191505060405180910390fd5b6001600160a01b03909116600090815260016020526040902055565b6000809054906101000a90046001600160a01b03166001600160a01b03166333128d596040518163ffffffff1660e01b815260040160206040518083038186803b15801561023157600080fd5b505afa158015610245573d6000803e3d6000fd5b505050506040513d602081101561025b57600080fd5b50516001600160a01b031633146102a35760405162461bcd60e51b81526004018080602001828103825260308152602001806102f66030913960400191505060405180910390fd5b6001600160a01b03909116600090815260026020526040902055565b6001600160a01b031660009081526001602052604090205490565b6001600160a01b03166000908152600260205260409020549056fe4f6e6c79204c656e64696e6720506f6f6c204d616e616765722063616e2063616c6c20746869732066756e6374696f6ea265627a7a72315820848ef1fba694270587c40a6cfb81803a7758a40865a1dc67a7cfcf9bec587d9064736f6c63430005100032",
  "source": "pragma solidity ^0.5.0;\n\nimport \"./interfaces/ILendingRateOracle.sol\";\nimport \"../Configuration/IGlobalAddressesProvider.sol\";\n\n\ncontract LendingRateOracle is ILendingRateOracle {\n    \n    IGlobalAddressesProvider private globalAddressesProvider;\n    mapping(address => uint256) borrowRates;\n    mapping(address => uint256) liquidityRates;\n    \n    modifier onlyLendingPoolManager {\n        require(msg.sender == globalAddressesProvider.getLendingPoolManager(),\"Only Lending Pool Manager can call this function\"); \n        _;\n    }\n        \n    constructor(address _globalAddressesProvider) public {\n        globalAddressesProvider = IGlobalAddressesProvider(_globalAddressesProvider);\n    }\n\n    function getMarketBorrowRate(address _asset) external view returns(uint256) {\n        return borrowRates[_asset];\n    }\n\n    function setMarketBorrowRate(address _asset, uint256 _rate) onlyLendingPoolManager external {\n        borrowRates[_asset] = _rate;\n    }\n\n    function getMarketLiquidityRate(address _asset) external view returns(uint256) {\n        return liquidityRates[_asset];\n    }\n\n    function setMarketLiquidityRate(address _asset, uint256 _rate) onlyLendingPoolManager external {\n        liquidityRates[_asset] = _rate;\n    }\n}",
  "sourcePath": "/Users/apple/Desktop/GITCOIN/Sigh_Finance/SighFinanceContracts/contracts/LendingProtocolContracts/LendingRateOracle.sol",
  "compiler": {
    "name": "solc",
    "version": "0.5.16+commit.9c3226ce.Emscripten.clang"
  },
  "schemaVersion": "3.2.4",
  "updatedAt": "2021-01-05T05:29:52.148Z",
  "devdoc": {
    "methods": {}
  },
  "userdoc": {
    "methods": {}
  }
}