{
  "contractName": "LendingPoolDataProvider",
  "abi": [
    {
      "constant": true,
      "inputs": [],
      "name": "DATA_PROVIDER_REVISION",
      "outputs": [
        {
          "internalType": "uint256",
          "name": "",
          "type": "uint256"
        }
      ],
      "payable": false,
      "stateMutability": "view",
      "type": "function"
    },
    {
      "constant": true,
      "inputs": [],
      "name": "HEALTH_FACTOR_LIQUIDATION_THRESHOLD",
      "outputs": [
        {
          "internalType": "uint256",
          "name": "",
          "type": "uint256"
        }
      ],
      "payable": false,
      "stateMutability": "view",
      "type": "function"
    },
    {
      "constant": true,
      "inputs": [],
      "name": "addressesProvider",
      "outputs": [
        {
          "internalType": "contract GlobalAddressesProvider",
          "name": "",
          "type": "address"
        }
      ],
      "payable": false,
      "stateMutability": "view",
      "type": "function"
    },
    {
      "constant": true,
      "inputs": [],
      "name": "core",
      "outputs": [
        {
          "internalType": "contract ILendingPoolCore",
          "name": "",
          "type": "address"
        }
      ],
      "payable": false,
      "stateMutability": "view",
      "type": "function"
    },
    {
      "constant": false,
      "inputs": [
        {
          "internalType": "contract GlobalAddressesProvider",
          "name": "_addressesProvider",
          "type": "address"
        }
      ],
      "name": "initialize",
      "outputs": [],
      "payable": false,
      "stateMutability": "nonpayable",
      "type": "function"
    },
    {
      "constant": true,
      "inputs": [
        {
          "internalType": "address",
          "name": "_user",
          "type": "address"
        }
      ],
      "name": "calculateUserGlobalData",
      "outputs": [
        {
          "internalType": "uint256",
          "name": "totalLiquidityBalanceETH",
          "type": "uint256"
        },
        {
          "internalType": "uint256",
          "name": "totalCollateralBalanceETH",
          "type": "uint256"
        },
        {
          "internalType": "uint256",
          "name": "totalBorrowBalanceETH",
          "type": "uint256"
        },
        {
          "internalType": "uint256",
          "name": "totalFeesETH",
          "type": "uint256"
        },
        {
          "internalType": "uint256",
          "name": "currentLtv",
          "type": "uint256"
        },
        {
          "internalType": "uint256",
          "name": "currentLiquidationThreshold",
          "type": "uint256"
        },
        {
          "internalType": "uint256",
          "name": "healthFactor",
          "type": "uint256"
        },
        {
          "internalType": "bool",
          "name": "healthFactorBelowThreshold",
          "type": "bool"
        }
      ],
      "payable": false,
      "stateMutability": "view",
      "type": "function"
    },
    {
      "constant": true,
      "inputs": [
        {
          "internalType": "address",
          "name": "_instrument",
          "type": "address"
        },
        {
          "internalType": "address",
          "name": "_user",
          "type": "address"
        },
        {
          "internalType": "uint256",
          "name": "_amount",
          "type": "uint256"
        }
      ],
      "name": "balanceDecreaseAllowed",
      "outputs": [
        {
          "internalType": "bool",
          "name": "",
          "type": "bool"
        }
      ],
      "payable": false,
      "stateMutability": "view",
      "type": "function"
    },
    {
      "constant": true,
      "inputs": [
        {
          "internalType": "address",
          "name": "_instrument",
          "type": "address"
        },
        {
          "internalType": "uint256",
          "name": "_amount",
          "type": "uint256"
        },
        {
          "internalType": "uint256",
          "name": "_fee",
          "type": "uint256"
        },
        {
          "internalType": "uint256",
          "name": "_userCurrentBorrowBalanceTH",
          "type": "uint256"
        },
        {
          "internalType": "uint256",
          "name": "_userCurrentFeesETH",
          "type": "uint256"
        },
        {
          "internalType": "uint256",
          "name": "_userCurrentLtv",
          "type": "uint256"
        }
      ],
      "name": "calculateCollateralNeededInETH",
      "outputs": [
        {
          "internalType": "uint256",
          "name": "",
          "type": "uint256"
        }
      ],
      "payable": false,
      "stateMutability": "view",
      "type": "function"
    },
    {
      "constant": true,
      "inputs": [
        {
          "internalType": "address",
          "name": "_instrument",
          "type": "address"
        }
      ],
      "name": "getInstrumentConfigurationData",
      "outputs": [
        {
          "internalType": "uint256",
          "name": "ltv",
          "type": "uint256"
        },
        {
          "internalType": "uint256",
          "name": "liquidationThreshold",
          "type": "uint256"
        },
        {
          "internalType": "uint256",
          "name": "liquidationBonus",
          "type": "uint256"
        },
        {
          "internalType": "address",
          "name": "rateStrategyAddress",
          "type": "address"
        },
        {
          "internalType": "bool",
          "name": "usageAsCollateralEnabled",
          "type": "bool"
        },
        {
          "internalType": "bool",
          "name": "borrowingEnabled",
          "type": "bool"
        },
        {
          "internalType": "bool",
          "name": "stableBorrowRateEnabled",
          "type": "bool"
        },
        {
          "internalType": "bool",
          "name": "isActive",
          "type": "bool"
        }
      ],
      "payable": false,
      "stateMutability": "view",
      "type": "function"
    },
    {
      "constant": true,
      "inputs": [
        {
          "internalType": "address",
          "name": "_instrument",
          "type": "address"
        }
      ],
      "name": "getInstrumentData",
      "outputs": [
        {
          "internalType": "uint256",
          "name": "totalLiquidity",
          "type": "uint256"
        },
        {
          "internalType": "uint256",
          "name": "availableLiquidity",
          "type": "uint256"
        },
        {
          "internalType": "uint256",
          "name": "totalBorrowsStable",
          "type": "uint256"
        },
        {
          "internalType": "uint256",
          "name": "totalBorrowsVariable",
          "type": "uint256"
        },
        {
          "internalType": "uint256",
          "name": "liquidityRate",
          "type": "uint256"
        },
        {
          "internalType": "uint256",
          "name": "variableBorrowRate",
          "type": "uint256"
        },
        {
          "internalType": "uint256",
          "name": "stableBorrowRate",
          "type": "uint256"
        },
        {
          "internalType": "uint256",
          "name": "averageStableBorrowRate",
          "type": "uint256"
        },
        {
          "internalType": "uint256",
          "name": "utilizationRate",
          "type": "uint256"
        },
        {
          "internalType": "uint256",
          "name": "liquidityIndex",
          "type": "uint256"
        },
        {
          "internalType": "uint256",
          "name": "variableBorrowIndex",
          "type": "uint256"
        },
        {
          "internalType": "address",
          "name": "iTokenAddress",
          "type": "address"
        },
        {
          "internalType": "uint40",
          "name": "lastUpdateTimestamp",
          "type": "uint40"
        }
      ],
      "payable": false,
      "stateMutability": "view",
      "type": "function"
    },
    {
      "constant": true,
      "inputs": [
        {
          "internalType": "address",
          "name": "_instrument",
          "type": "address"
        },
        {
          "internalType": "address",
          "name": "_user",
          "type": "address"
        }
      ],
      "name": "getUserInstrumentData",
      "outputs": [
        {
          "internalType": "uint256",
          "name": "currentITokenBalance",
          "type": "uint256"
        },
        {
          "internalType": "uint256",
          "name": "currentBorrowBalance",
          "type": "uint256"
        },
        {
          "internalType": "uint256",
          "name": "principalBorrowBalance",
          "type": "uint256"
        },
        {
          "internalType": "uint256",
          "name": "borrowRateMode",
          "type": "uint256"
        },
        {
          "internalType": "uint256",
          "name": "borrowRate",
          "type": "uint256"
        },
        {
          "internalType": "uint256",
          "name": "liquidityRate",
          "type": "uint256"
        },
        {
          "internalType": "uint256",
          "name": "originationFee",
          "type": "uint256"
        },
        {
          "internalType": "uint256",
          "name": "variableBorrowIndex",
          "type": "uint256"
        },
        {
          "internalType": "uint256",
          "name": "lastUpdateTimestamp",
          "type": "uint256"
        },
        {
          "internalType": "bool",
          "name": "usageAsCollateralEnabled",
          "type": "bool"
        }
      ],
      "payable": false,
      "stateMutability": "view",
      "type": "function"
    },
    {
      "constant": true,
      "inputs": [],
      "name": "getHealthFactorLiquidationThreshold",
      "outputs": [
        {
          "internalType": "uint256",
          "name": "",
          "type": "uint256"
        }
      ],
      "payable": false,
      "stateMutability": "pure",
      "type": "function"
    },
    {
      "constant": true,
      "inputs": [
        {
          "internalType": "address",
          "name": "_user",
          "type": "address"
        }
      ],
      "name": "getUserAccountData",
      "outputs": [
        {
          "internalType": "uint256",
          "name": "totalLiquidityETH",
          "type": "uint256"
        },
        {
          "internalType": "uint256",
          "name": "totalCollateralETH",
          "type": "uint256"
        },
        {
          "internalType": "uint256",
          "name": "totalBorrowsETH",
          "type": "uint256"
        },
        {
          "internalType": "uint256",
          "name": "totalFeesETH",
          "type": "uint256"
        },
        {
          "internalType": "uint256",
          "name": "availableBorrowsETH",
          "type": "uint256"
        },
        {
          "internalType": "uint256",
          "name": "currentLiquidationThreshold",
          "type": "uint256"
        },
        {
          "internalType": "uint256",
          "name": "ltv",
          "type": "uint256"
        },
        {
          "internalType": "uint256",
          "name": "healthFactor",
          "type": "uint256"
        }
      ],
      "payable": false,
      "stateMutability": "view",
      "type": "function"
    }
  ],
  "bytecode": "0x60806040526000805534801561001457600080fd5b506129fb806100246000396000f3fe608060405234801561001057600080fd5b50600436106100cf5760003560e01c80638daf609f1161008c578063c3525c2811610066578063c3525c28146103e4578063c4d66de8146103ec578063c72c4d1014610414578063f2f4eb2614610438576100cf565b80638daf609f1461030057806390ccd4b714610308578063bf92857c1461037d576100cf565b806312737c33146100d4578063224956271461012a5780632c6d0e9b146101aa5780633e44bee8146102135780634dc54a381461021b57806376e9d615146102b6575b600080fd5b610118600480360360c08110156100ea57600080fd5b506001600160a01b038135169060208101359060408101359060608101359060808101359060a00135610440565b60408051918252519081900360200190f35b6101586004803603604081101561014057600080fd5b506001600160a01b0381358116916020013516610633565b604080519a8b5260208b0199909952898901979097526060890195909552608088019390935260a087019190915260c086015260e0850152610100840152151561012083015251908190036101400190f35b6101d0600480360360208110156101c057600080fd5b50356001600160a01b0316610e1e565b604080519889526020890197909752878701959095526060870193909352608086019190915260a085015260c0840152151560e083015251908190036101000190f35b6101186113c3565b6102416004803603602081101561023157600080fd5b50356001600160a01b03166113cf565b604080519d8e5260208e019c909c528c8c019a909a5260608c019890985260808b019690965260a08a019490945260c089019290925260e08801526101008701526101208601526101408501526001600160a01b031661016084015264ffffffffff1661018083015251908190036101a00190f35b6102ec600480360360608110156102cc57600080fd5b506001600160a01b03813581169160208101359091169060400135611c76565b604080519115158252519081900360200190f35b610118611f71565b61032e6004803603602081101561031e57600080fd5b50356001600160a01b0316611f76565b604080519889526020890197909752878701959095526001600160a01b0390931660608701529015156080860152151560a0850152151560c0840152151560e083015251908190036101000190f35b6103a36004803603602081101561039357600080fd5b50356001600160a01b03166122e9565b604080519889526020890197909752878701959095526060870193909352608086019190915260a085015260c084015260e083015251908190036101000190f35b61011861232a565b6104126004803603602081101561040257600080fd5b50356001600160a01b0316612336565b005b61041c612472565b604080516001600160a01b039092168252519081900360200190f35b61041c612481565b60345460408051631b811b0960e31b81526001600160a01b03898116600483015291516000938493169163dc08d848916024808301926020929190829003018186803b15801561048f57600080fd5b505afa1580156104a3573d6000803e3d6000fd5b505050506040513d60208110156104b957600080fd5b505160355460408051631f94a27560e31b815290519293506000926001600160a01b039092169163fca513a891600480820192602092909190829003018186803b15801561050657600080fd5b505afa15801561051a573d6000803e3d6000fd5b505050506040513d602081101561053057600080fd5b5051905060006105eb600a84900a6105df6105518c8c63ffffffff61249016565b856001600160a01b031663b3596f078f6040518263ffffffff1660e01b815260040180826001600160a01b03166001600160a01b0316815260200191505060206040518083038186803b1580156105a757600080fd5b505afa1580156105bb573d6000803e3d6000fd5b505050506040513d60208110156105d157600080fd5b50519063ffffffff6124f316565b9063ffffffff61254c16565b90506000610624866105df60646106188661060c8e8e63ffffffff61249016565b9063ffffffff61249016565b9063ffffffff6124f316565b9b9a5050505050505050505050565b600080600080600080600080600080603460009054906101000a90046001600160a01b03166001600160a01b031663aafa6de08d6040518263ffffffff1660e01b815260040180826001600160a01b03166001600160a01b0316815260200191505060206040518083038186803b1580156106ad57600080fd5b505afa1580156106c1573d6000803e3d6000fd5b505050506040513d60208110156106d757600080fd5b5051604080516370a0823160e01b81526001600160a01b038e81166004830152915191909216916370a08231916024808301926020929190829003018186803b15801561072357600080fd5b505afa158015610737573d6000803e3d6000fd5b505050506040513d602081101561074d57600080fd5b810190808051906020019092919050505099506000603460009054906101000a90046001600160a01b03166001600160a01b0316631ca19f198e8e6040518363ffffffff1660e01b815260040180836001600160a01b03166001600160a01b03168152602001826001600160a01b03166001600160a01b031681526020019250505060206040518083038186803b1580156107e757600080fd5b505afa1580156107fb573d6000803e3d6000fd5b505050506040513d602081101561081157600080fd5b81019080805190602001909291905050509050603460009054906101000a90046001600160a01b03166001600160a01b0316639fb8afcd8e8e6040518363ffffffff1660e01b815260040180836001600160a01b03166001600160a01b03168152602001826001600160a01b03166001600160a01b031681526020019250505060606040518083038186803b1580156108a957600080fd5b505afa1580156108bd573d6000803e3d6000fd5b505050506040513d60608110156108d357600080fd5b5080516020909101519a50985060018160028111156108ee57fe5b14156109ac57603460009054906101000a90046001600160a01b03166001600160a01b0316636fffab0c8e8e6040518363ffffffff1660e01b815260040180836001600160a01b03166001600160a01b03168152602001826001600160a01b03166001600160a01b031681526020019250505060206040518083038186803b15801561097957600080fd5b505afa15801561098d573d6000803e3d6000fd5b505050506040513d60208110156109a357600080fd5b50519650610a5a565b60028160028111156109ba57fe5b1415610a5a57603460009054906101000a90046001600160a01b03166001600160a01b0316635cfdd9948e6040518263ffffffff1660e01b815260040180826001600160a01b03166001600160a01b0316815260200191505060206040518083038186803b158015610a2b57600080fd5b505afa158015610a3f573d6000803e3d6000fd5b505050506040513d6020811015610a5557600080fd5b505196505b806002811115610a6657fe5b9750603460009054906101000a90046001600160a01b03166001600160a01b0316633c0358668e6040518263ffffffff1660e01b815260040180826001600160a01b03166001600160a01b0316815260200191505060206040518083038186803b158015610ad357600080fd5b505afa158015610ae7573d6000803e3d6000fd5b505050506040513d6020811015610afd57600080fd5b81019080805190602001909291905050509550603460009054906101000a90046001600160a01b03166001600160a01b031663feab31ac8e8e6040518363ffffffff1660e01b815260040180836001600160a01b03166001600160a01b03168152602001826001600160a01b03166001600160a01b031681526020019250505060206040518083038186803b158015610b9557600080fd5b505afa158015610ba9573d6000803e3d6000fd5b505050506040513d6020811015610bbf57600080fd5b81019080805190602001909291905050509450603460009054906101000a90046001600160a01b03166001600160a01b031663f6ea8d768e8e6040518363ffffffff1660e01b815260040180836001600160a01b03166001600160a01b03168152602001826001600160a01b03166001600160a01b031681526020019250505060206040518083038186803b158015610c5757600080fd5b505afa158015610c6b573d6000803e3d6000fd5b505050506040513d6020811015610c8157600080fd5b81019080805190602001909291905050509350603460009054906101000a90046001600160a01b03166001600160a01b03166366d103f38e8e6040518363ffffffff1660e01b815260040180836001600160a01b03166001600160a01b03168152602001826001600160a01b03166001600160a01b031681526020019250505060206040518083038186803b158015610d1957600080fd5b505afa158015610d2d573d6000803e3d6000fd5b505050506040513d6020811015610d4357600080fd5b81019080805190602001909291905050509250603460009054906101000a90046001600160a01b03166001600160a01b031663ee9c22818e8e6040518363ffffffff1660e01b815260040180836001600160a01b03166001600160a01b03168152602001826001600160a01b03166001600160a01b031681526020019250505060206040518083038186803b158015610ddb57600080fd5b505afa158015610def573d6000803e3d6000fd5b505050506040513d6020811015610e0557600080fd5b50519a9d999c50979a5095989497939650919450929091565b6000806000806000806000806000603560009054906101000a90046001600160a01b03166001600160a01b031663fca513a86040518163ffffffff1660e01b815260040160206040518083038186803b158015610e7a57600080fd5b505afa158015610e8e573d6000803e3d6000fd5b505050506040513d6020811015610ea457600080fd5b50519050610eb06128b4565b6034546040805163058d5c5f60e21b815290516060926001600160a01b031691631635717c916004808301926000929190829003018186803b158015610ef557600080fd5b505afa158015610f09573d6000803e3d6000fd5b505050506040513d6000823e601f3d908101601f191682016040526020811015610f3257600080fd5b8101908080516040519392919084640100000000821115610f5257600080fd5b908301906020820185811115610f6757600080fd5b8251866020820283011164010000000082111715610f8457600080fd5b82525081516020918201928201910280838360005b83811015610fb1578181015183820152602001610f99565b50505050905001604052505050905060008090505b815181101561135757818181518110610fdb57fe5b602002602001015183600001906001600160a01b031690816001600160a01b031681525050603460009054906101000a90046001600160a01b03166001600160a01b031663fcfe58c884600001518f6040518363ffffffff1660e01b815260040180836001600160a01b03166001600160a01b03168152602001826001600160a01b03166001600160a01b031681526020019250505060806040518083038186803b15801561108957600080fd5b505afa15801561109d573d6000803e3d6000fd5b505050506040513d60808110156110b357600080fd5b50805160208201516040830151606093840151151561014088015261010087015260808601529084018190521580156110ee57506080830151155b156110f85761134f565b6034548351604080516331866b6b60e21b81526001600160a01b0392831660048201529051919092169163c619adac916024808301926080929190829003018186803b15801561114757600080fd5b505afa15801561115b573d6000803e3d6000fd5b505050506040513d608081101561117157600080fd5b508051602080830151604080850151606090950151151561012089015260e088019490945260c087015260a08601829052600a9190910a858301528451825163b3596f0760e01b81526001600160a01b03918216600482015292519087169263b3596f07926024808301939192829003018186803b1580156111f257600080fd5b505afa158015611206573d6000803e3d6000fd5b505050506040513d602081101561121c57600080fd5b505160208401526060830151156112e657600061125284604001516105df866060015187602001516124f390919063ffffffff16565b90506112648d8263ffffffff61249016565b9c50836101200151801561127a57508361014001515b156112e45761128f8c8263ffffffff61249016565b9b506112b86112ab8560c00151836124f390919063ffffffff16565b8a9063ffffffff61249016565b98506112e16112d48560e00151836124f390919063ffffffff16565b899063ffffffff61249016565b97505b505b60808301511561134f5761132361131684604001516105df866080015187602001516124f390919063ffffffff16565b8b9063ffffffff61249016565b995061134c6112ab84604001516105df86602001518761010001516124f390919063ffffffff16565b98505b600101610fc6565b5060008a11611367576000611377565b611377878b63ffffffff61254c16565b965060008a11611388576000611398565b611398868b63ffffffff61254c16565b95506113a68a8a8a8961258e565b9450670de0b6b3a764000085109350505050919395975091939597565b670de0b6b3a764000090565b6000806000806000806000806000806000806000603460009054906101000a90046001600160a01b03166001600160a01b031663792a0feb8f6040518263ffffffff1660e01b815260040180826001600160a01b03166001600160a01b0316815260200191505060206040518083038186803b15801561144e57600080fd5b505afa158015611462573d6000803e3d6000fd5b505050506040513d602081101561147857600080fd5b81019080805190602001909291905050509c50603460009054906101000a90046001600160a01b03166001600160a01b0316639f15d5c68f6040518263ffffffff1660e01b815260040180826001600160a01b03166001600160a01b0316815260200191505060206040518083038186803b1580156114f657600080fd5b505afa15801561150a573d6000803e3d6000fd5b505050506040513d602081101561152057600080fd5b81019080805190602001909291905050509b50603460009054906101000a90046001600160a01b03166001600160a01b031663c172350b8f6040518263ffffffff1660e01b815260040180826001600160a01b03166001600160a01b0316815260200191505060206040518083038186803b15801561159e57600080fd5b505afa1580156115b2573d6000803e3d6000fd5b505050506040513d60208110156115c857600080fd5b81019080805190602001909291905050509a50603460009054906101000a90046001600160a01b03166001600160a01b03166354e665628f6040518263ffffffff1660e01b815260040180826001600160a01b03166001600160a01b0316815260200191505060206040518083038186803b15801561164657600080fd5b505afa15801561165a573d6000803e3d6000fd5b505050506040513d602081101561167057600080fd5b81019080805190602001909291905050509950603460009054906101000a90046001600160a01b03166001600160a01b0316633c0358668f6040518263ffffffff1660e01b815260040180826001600160a01b03166001600160a01b0316815260200191505060206040518083038186803b1580156116ee57600080fd5b505afa158015611702573d6000803e3d6000fd5b505050506040513d602081101561171857600080fd5b81019080805190602001909291905050509850603460009054906101000a90046001600160a01b03166001600160a01b0316635cfdd9948f6040518263ffffffff1660e01b815260040180826001600160a01b03166001600160a01b0316815260200191505060206040518083038186803b15801561179657600080fd5b505afa1580156117aa573d6000803e3d6000fd5b505050506040513d60208110156117c057600080fd5b81019080805190602001909291905050509750603460009054906101000a90046001600160a01b03166001600160a01b031663aea3b07e8f6040518263ffffffff1660e01b815260040180826001600160a01b03166001600160a01b0316815260200191505060206040518083038186803b15801561183e57600080fd5b505afa158015611852573d6000803e3d6000fd5b505050506040513d602081101561186857600080fd5b81019080805190602001909291905050509650603460009054906101000a90046001600160a01b03166001600160a01b031663fbab24058f6040518263ffffffff1660e01b815260040180826001600160a01b03166001600160a01b0316815260200191505060206040518083038186803b1580156118e657600080fd5b505afa1580156118fa573d6000803e3d6000fd5b505050506040513d602081101561191057600080fd5b81019080805190602001909291905050509550603460009054906101000a90046001600160a01b03166001600160a01b031663d1c4c0fa8f6040518263ffffffff1660e01b815260040180826001600160a01b03166001600160a01b0316815260200191505060206040518083038186803b15801561198e57600080fd5b505afa1580156119a2573d6000803e3d6000fd5b505050506040513d60208110156119b857600080fd5b81019080805190602001909291905050509450603460009054906101000a90046001600160a01b03166001600160a01b031663959fc3e58f6040518263ffffffff1660e01b815260040180826001600160a01b03166001600160a01b0316815260200191505060206040518083038186803b158015611a3657600080fd5b505afa158015611a4a573d6000803e3d6000fd5b505050506040513d6020811015611a6057600080fd5b81019080805190602001909291905050509350603460009054906101000a90046001600160a01b03166001600160a01b03166307ce32a58f6040518263ffffffff1660e01b815260040180826001600160a01b03166001600160a01b0316815260200191505060206040518083038186803b158015611ade57600080fd5b505afa158015611af2573d6000803e3d6000fd5b505050506040513d6020811015611b0857600080fd5b81019080805190602001909291905050509250603460009054906101000a90046001600160a01b03166001600160a01b031663aafa6de08f6040518263ffffffff1660e01b815260040180826001600160a01b03166001600160a01b0316815260200191505060206040518083038186803b158015611b8657600080fd5b505afa158015611b9a573d6000803e3d6000fd5b505050506040513d6020811015611bb057600080fd5b81019080805190602001909291905050509150603460009054906101000a90046001600160a01b03166001600160a01b031663ffa388b08f6040518263ffffffff1660e01b815260040180826001600160a01b03166001600160a01b0316815260200191505060206040518083038186803b158015611c2e57600080fd5b505afa158015611c42573d6000803e3d6000fd5b505050506040513d6020811015611c5857600080fd5b50519c9e9b9d50999b989a9799509597949693959294919390929190565b6000611c8061291b565b603454604080516331866b6b60e21b81526001600160a01b0388811660048301529151919092169163c619adac916024808301926080929190829003018186803b158015611ccd57600080fd5b505afa158015611ce1573d6000803e3d6000fd5b505050506040513d6080811015611cf757600080fd5b508051604082015160609092015115801561014085015260a0840192909252825280611da157506034546040805163ee9c228160e01b81526001600160a01b03888116600483015287811660248301529151919092169163ee9c2281916044808301926020929190829003018186803b158015611d7357600080fd5b505afa158015611d87573d6000803e3d6000fd5b505050506040513d6020811015611d9d57600080fd5b5051155b15611db0576001915050611f6a565b611db984610e1e565b5050608087015250606085015260408401819052602084019190915215159050611de7576001915050611f6a565b60355460408051631f94a27560e31b815290516000926001600160a01b03169163fca513a8916004808301926020929190829003018186803b158015611e2c57600080fd5b505afa158015611e40573d6000803e3d6000fd5b505050506040513d6020811015611e5657600080fd5b505182516040805163b3596f0760e01b81526001600160a01b038a811660048301529151939450611eb893600a9390930a926105df9289929087169163b3596f0791602480820192602092909190829003018186803b1580156105a757600080fd5b60c083018190526020830151611ed39163ffffffff6125dd16565b60e08301819052611ee957600092505050611f6a565b611f348260e001516105df611f0f8560a001518660c001516124f390919063ffffffff16565b60808601516020870151611f289163ffffffff6124f316565b9063ffffffff6125dd16565b610100830181905260e083015160408401516060850151600093611f5a9392919061258e565b670de0b6b3a76400001093505050505b9392505050565b600181565b600080600080600080600080603460009054906101000a90046001600160a01b03166001600160a01b031663c619adac8a6040518263ffffffff1660e01b815260040180826001600160a01b03166001600160a01b0316815260200191505060806040518083038186803b158015611fed57600080fd5b505afa158015612001573d6000803e3d6000fd5b505050506040513d608081101561201757600080fd5b810190808051906020019092919080519060200190929190805190602001909291908051906020019092919050505090919250809650819950829a50505050603460009054906101000a90046001600160a01b03166001600160a01b03166375d87acc8a6040518263ffffffff1660e01b815260040180826001600160a01b03166001600160a01b0316815260200191505060206040518083038186803b1580156120c157600080fd5b505afa1580156120d5573d6000803e3d6000fd5b505050506040513d60208110156120eb57600080fd5b5051603454604080516310183a3560e01b81526001600160a01b038d8116600483015291519395509116916310183a3591602480820192602092909190829003018186803b15801561213c57600080fd5b505afa158015612150573d6000803e3d6000fd5b505050506040513d602081101561216657600080fd5b50516034546040805163138374a760e11b81526001600160a01b038d811660048301529151939650911691632706e94e91602480820192602092909190829003018186803b1580156121b757600080fd5b505afa1580156121cb573d6000803e3d6000fd5b505050506040513d60208110156121e157600080fd5b505160345460408051633c47116560e21b81526001600160a01b038d81166004830152915193945091169163f11c459491602480820192602092909190829003018186803b15801561223257600080fd5b505afa158015612246573d6000803e3d6000fd5b505050506040513d602081101561225c57600080fd5b5051603454604080516301fd6bb160e31b81526001600160a01b038d811660048301529151939950911691630feb5d8891602480820192602092909190829003018186803b1580156122ad57600080fd5b505afa1580156122c1573d6000803e3d6000fd5b505050506040513d60208110156122d757600080fd5b50519799969850949695929491935091565b6000806000806000806000806122fe89610e1e565b50959d50939b5091995097509094509250905061231d8787878561261f565b9350919395975091939597565b670de0b6b3a764000081565b6000612340612781565b60015490915060ff16806123575750612357612786565b80612363575060005481115b61239e5760405162461bcd60e51b815260040180806020018281038252602e815260200180612999602e913960400191505060405180910390fd5b60015460ff161580156123bd576001805460ff19168117905560008290555b603580546001600160a01b0319166001600160a01b0385169081179091556040805163076b7fbb60e51b8152905163ed6ff76091600480820192602092909190829003018186803b15801561241157600080fd5b505afa158015612425573d6000803e3d6000fd5b505050506040513d602081101561243b57600080fd5b5051603480546001600160a01b0319166001600160a01b03909216919091179055801561246d576001805460ff191690555b505050565b6035546001600160a01b031681565b6034546001600160a01b031681565b6000828201838110156124ea576040805162461bcd60e51b815260206004820152601b60248201527f536166654d6174683a206164646974696f6e206f766572666c6f770000000000604482015290519081900360640190fd5b90505b92915050565b600082612502575060006124ed565b8282028284828161250f57fe5b04146124ea5760405162461bcd60e51b81526004018080602001828103825260218152602001806129786021913960400191505060405180910390fd5b60006124ea83836040518060400160405280601a81526020017f536166654d6174683a206469766973696f6e206279207a65726f00000000000081525061278c565b60008361259e57506000196125d5565b6125d26125b1858563ffffffff61249016565b6125c660646105df898763ffffffff6124f316565b9063ffffffff61282e16565b90505b949350505050565b60006124ea83836040518060400160405280601e81526020017f536166654d6174683a207375627472616374696f6e206f766572666c6f77000081525061285a565b60008061263760646105df888663ffffffff6124f316565b90508481101561264b5760009150506125d5565b61266b61265e868663ffffffff61249016565b829063ffffffff6125dd16565b90506000603560009054906101000a90046001600160a01b03166001600160a01b031663fbeefc3c6040518163ffffffff1660e01b815260040160206040518083038186803b1580156126bd57600080fd5b505afa1580156126d1573d6000803e3d6000fd5b505050506040513d60208110156126e757600080fd5b505160408051630e563a7d60e41b81523360048201526024810185905290516001600160a01b039092169163e563a7d091604480820192602092909190829003018186803b15801561273857600080fd5b505afa15801561274c573d6000803e3d6000fd5b505050506040513d602081101561276257600080fd5b50519050612776828263ffffffff6125dd16565b979650505050505050565b600190565b303b1590565b600081836128185760405162461bcd60e51b81526004018080602001828103825283818151815260200191508051906020019080838360005b838110156127dd5781810151838201526020016127c5565b50505050905090810190601f16801561280a5780820380516001836020036101000a031916815260200191505b509250505060405180910390fd5b50600083858161282457fe5b0495945050505050565b6000600282046125d5836105df61284d87670de0b6b3a76400006124f3565b849063ffffffff61249016565b600081848411156128ac5760405162461bcd60e51b81526020600482018181528351602484015283519092839260449091019190850190808383600083156127dd5781810151838201526020016127c5565b505050900390565b60405180610160016040528060006001600160a01b0316815260200160008152602001600081526020016000815260200160008152602001600081526020016000815260200160008152602001600081526020016000151581526020016000151581525090565b60405180610160016040528060008152602001600081526020016000815260200160008152602001600081526020016000815260200160008152602001600081526020016000815260200160008152602001600015158152509056fe536166654d6174683a206d756c7469706c69636174696f6e206f766572666c6f77436f6e747261637420696e7374616e63652068617320616c7265616479206265656e20696e697469616c697a6564a265627a7a7231582068d33f782ea9d486b7197bdf802811dd274ea7504a12ffb0ac0e74c1968c548c64736f6c63430005100032",
  "source": "pragma solidity ^0.5.0;\n\nimport \"openzeppelin-solidity/contracts/math/SafeMath.sol\";\nimport \"../../openzeppelin-upgradeability/VersionedInitializable.sol\";\n\nimport \"../libraries/CoreLibrary.sol\";\nimport \"../libraries/WadRayMath.sol\";\n\nimport \"../../configuration/GlobalAddressesProvider.sol\";\nimport \"../interfaces/IPriceOracleGetter.sol\";\nimport \"../interfaces/IFeeProvider.sol\";\nimport \"../interfaces/ITokenInterface.sol\";\nimport \"../interfaces/ILendingPoolCore.sol\";\n\n/**\n* @title LendingPoolDataProvider contract \n* @author Aave, SIGH Finance \n* @notice Implements functions to fetch data from the core, and aggregate them in order to allow computation on the compounded balances and the account balances in ETH\n**/\ncontract LendingPoolDataProvider is VersionedInitializable {\n    using SafeMath for uint256;\n    using WadRayMath for uint256;\n\n    ILendingPoolCore public core;\n    GlobalAddressesProvider public addressesProvider;\n\n    //specifies the health factor threshold at which the user position is liquidated. 1e18 by default, if the health factor drops below 1e18, the loan can be liquidated.\n    uint256 public constant HEALTH_FACTOR_LIQUIDATION_THRESHOLD = 1e18;\n    uint256 public constant DATA_PROVIDER_REVISION = 0x1;           // NEEDED AS PART OF UPGRADABLE CONTRACTS FUNCTIONALITY ( VersionedInitializable )\n\n    function getRevision() internal pure returns (uint256) {\n        return DATA_PROVIDER_REVISION;\n    }\n\n    function initialize(GlobalAddressesProvider _addressesProvider) public initializer {       // NEEDED AS PART OF UPGRADABLE CONTRACTS FUNCTIONALITY ( VersionedInitializable )\n        addressesProvider = _addressesProvider;\n        core = ILendingPoolCore(_addressesProvider.getLendingPoolCore());\n    }\n\n// #############################################################################################################################\n// ############ PUBLIC VIEW FUNCTION (also called within this contract) TO CALCULATE USER DATA ACROSS THE PROTOCOL  ############\n// #############################################################################################################################\n\n    /**\n    * @dev struct to hold calculateUserGlobalData() local computations\n    **/\n    struct UserGlobalDataLocalVars {\n        address currentInstrument;        \n        uint256 instrumentUnitPrice;\n        uint256 tokenUnit;\n        uint256 compoundedLiquidityBalance;\n        uint256 compoundedBorrowBalance;\n        uint256 instrumentDecimals;\n        uint256 baseLtv;\n        uint256 liquidationThreshold;\n        uint256 originationFee;\n        bool usageAsCollateralEnabled;\n        bool userUsesInstrumentAsCollateral;\n\n    }\n\n    /**\n    * @dev calculates the user data across the instruments.\n    * this includes the total liquidity/collateral/borrow balances in ETH,\n    * the average Loan To Value, the average Liquidation Ratio, and the Health factor.\n    * @param _user the address of the user\n    * @return the total liquidity, total collateral, total borrow balances of the user in ETH.\n    * also the average Ltv, liquidation threshold, and the health factor\n    **/\n    function calculateUserGlobalData(address _user) public view returns (\n            uint256 totalLiquidityBalanceETH,           // Total amount deposited by user in SIGH Finance\n            uint256 totalCollateralBalanceETH,          // User's Total Collateral Balance \n            uint256 totalBorrowBalanceETH,              // User's Total Borrow Balance\n            uint256 totalFeesETH,                       // Total Fee\n            uint256 currentLtv,                         // Total LTV = Sum( deposited Balance Value * baseLTV ) / (User's Total Collateral Balance )\n            uint256 currentLiquidationThreshold,        // Liquidation Threshold = Sum( deposited Balance Value * instrument's_liquidationThreshold ) / (User's Total Collateral Balance )\n            uint256 healthFactor,                       // ( User's Total Collateral Balance ) * (Liquidation Threshold/ 100 ) / (User's Total Borrow Balance + Total Fee)\n            bool healthFactorBelowThreshold\n        )\n    {\n        IPriceOracleGetter oracle = IPriceOracleGetter(addressesProvider.getPriceOracle());\n        UserGlobalDataLocalVars memory vars;        // Usage of a memory struct of vars to avoid \"Stack too deep\" errors due to local variables\n\n        address[] memory instruments = core.getInstruments();\n\n        for (uint256 i = 0; i < instruments.length; i++) {\n\n            // fetch user's data for the current instrument\n            vars.currentInstrument = instruments[i];\n            ( vars.compoundedLiquidityBalance, vars.compoundedBorrowBalance, vars.originationFee, vars.userUsesInstrumentAsCollateral ) = core.getUserBasicInstrumentData(vars.currentInstrument, _user);\n            if (vars.compoundedLiquidityBalance == 0 && vars.compoundedBorrowBalance == 0) {\n                continue;\n            }\n\n            //fetch instrument's gobal configuration data data\n            ( vars.instrumentDecimals, vars.baseLtv, vars.liquidationThreshold, vars.usageAsCollateralEnabled ) = core.getInstrumentConfiguration(vars.currentInstrument);\n            vars.tokenUnit = 10 ** vars.instrumentDecimals;\n            vars.instrumentUnitPrice = oracle.getAssetPrice(vars.currentInstrument);\n\n            //liquidity and collateral balance\n            if (vars.compoundedLiquidityBalance > 0) {\n                uint256 liquidityBalanceETH = vars.instrumentUnitPrice.mul(vars.compoundedLiquidityBalance).div(vars.tokenUnit);\n                totalLiquidityBalanceETH = totalLiquidityBalanceETH.add(liquidityBalanceETH);\n\n                if (vars.usageAsCollateralEnabled && vars.userUsesInstrumentAsCollateral) {\n                    totalCollateralBalanceETH = totalCollateralBalanceETH.add(liquidityBalanceETH);\n                    currentLtv = currentLtv.add( liquidityBalanceETH.mul(vars.baseLtv) );\n                    currentLiquidationThreshold = currentLiquidationThreshold.add( liquidityBalanceETH.mul(vars.liquidationThreshold) );\n                }\n            }\n\n            if (vars.compoundedBorrowBalance > 0) {\n                totalBorrowBalanceETH = totalBorrowBalanceETH.add( vars.instrumentUnitPrice.mul(vars.compoundedBorrowBalance).div(vars.tokenUnit) );\n                totalFeesETH = totalFeesETH.add( vars.originationFee.mul(vars.instrumentUnitPrice).div(vars.tokenUnit) );\n            }\n        }\n\n        currentLtv = totalCollateralBalanceETH > 0 ? currentLtv.div(totalCollateralBalanceETH) : 0;\n        currentLiquidationThreshold = totalCollateralBalanceETH > 0 ? currentLiquidationThreshold.div(totalCollateralBalanceETH) : 0;\n\n        healthFactor = calculateHealthFactorFromBalancesInternal( totalCollateralBalanceETH, totalBorrowBalanceETH, totalFeesETH, currentLiquidationThreshold );\n        healthFactorBelowThreshold = healthFactor < HEALTH_FACTOR_LIQUIDATION_THRESHOLD;\n    }\n\n// ############################################################################################################################################################\n// ############ EXTERNAL VIEW FUNCTION (called within LendingPool's setUserUseInstrumentAsCollateral() FUNCTION)    ###########################################\n// ############ balanceDecreaseAllowedLocalVars() --> check if a specific balance decrease doesn't bring the user borrow position health factor    ############\n// ############################################################################################################################################################\n\n    struct balanceDecreaseAllowedLocalVars {\n        uint256 decimals;\n        uint256 collateralBalanceETH;\n        uint256 borrowBalanceETH;\n        uint256 totalFeesETH;\n        uint256 currentLiquidationThreshold;\n        uint256 instrumentLiquidationThreshold;\n        uint256 amountToDecreaseETH;\n        uint256 collateralBalancefterDecreaseETH;\n        uint256 liquidationThresholdAfterDecrease;\n        uint256 healthFactorAfterDecrease;\n        bool instrumentUsageAsCollateralEnabled;\n    }\n\n    /**\n    * @dev check if a specific balance decrease is allowed (i.e. doesn't bring the user borrow position health factor under 1e18)\n    * @param _instrument the address of the instrument\n    * @param _user the address of the user\n    * @param _amount the amount to decrease\n    * @return true if the decrease of the balance is allowed\n    **/\n    function balanceDecreaseAllowed(address _instrument, address _user, uint256 _amount)  external view returns (bool) {\n        \n        balanceDecreaseAllowedLocalVars memory vars;    // Usage of a memory struct of vars to avoid \"Stack too deep\" errors due to local variables\n        ( vars.decimals, ,  vars.instrumentLiquidationThreshold, vars.instrumentUsageAsCollateralEnabled ) = core.getInstrumentConfiguration(_instrument);\n\n        if ( !vars.instrumentUsageAsCollateralEnabled || !core.isUserUseInstrumentAsCollateralEnabled(_instrument, _user) ) {\n            return true;                                             // if instrument is not used as collateral, no reasons to block the transfer\n        }\n\n        (  , vars.collateralBalanceETH, vars.borrowBalanceETH, vars.totalFeesETH, , vars.currentLiquidationThreshold, , ) = calculateUserGlobalData(_user);\n\n        if (vars.borrowBalanceETH == 0) {\n            return true;                                            //  no borrows - no reasons to block the transfer\n        }\n\n        IPriceOracleGetter oracle = IPriceOracleGetter(addressesProvider.getPriceOracle());\n        vars.amountToDecreaseETH = oracle.getAssetPrice(_instrument).mul(_amount).div( 10 ** vars.decimals );\n        vars.collateralBalancefterDecreaseETH = vars.collateralBalanceETH.sub(  vars.amountToDecreaseETH );\n\n        \n        if (vars.collateralBalancefterDecreaseETH == 0) {      //if there is a borrow, there can't be 0 collateral\n            return false;\n        }\n\n        vars.liquidationThresholdAfterDecrease = vars.collateralBalanceETH.mul(vars.currentLiquidationThreshold).sub(vars.amountToDecreaseETH.mul(vars.instrumentLiquidationThreshold)).div(vars.collateralBalancefterDecreaseETH);\n        uint256 healthFactorAfterDecrease = calculateHealthFactorFromBalancesInternal( vars.collateralBalancefterDecreaseETH, vars.borrowBalanceETH, vars.totalFeesETH, vars.liquidationThresholdAfterDecrease );\n\n        return healthFactorAfterDecrease > HEALTH_FACTOR_LIQUIDATION_THRESHOLD;\n    }\n\n// ##########################################################################################################################################\n// ############ EXTERNAL VIEW FUNCTION (called within LendingPool's borrow() FUNCTION)    ###################################################\n// ############ calculateCollateralNeededInETH() --> calculates the amount of collateral needed in ETH to cover a new borrow     ############\n// ##########################################################################################################################################\n\n\n    /**\n   * @notice calculates the amount of collateral needed in ETH to cover a new borrow.\n   * @param _instrument the instrument from which the user wants to borrow\n   * @param _amount the amount the user wants to borrow\n   * @param _fee the fee for the amount that the user needs to cover\n   * @param _userCurrentBorrowBalanceTH the current global borrow balance of the user (before the borrow)\n   * @param _userCurrentLtv the average ltv of the user given his current collateral (before the borrow)\n   * @return the total amount of collateral in ETH to cover the current borrow balance + the new amount + fee\n   **/\n    function calculateCollateralNeededInETH( address _instrument, uint256 _amount, uint256 _fee, uint256 _userCurrentBorrowBalanceTH, uint256 _userCurrentFeesETH, uint256 _userCurrentLtv ) external view returns (uint256) {\n\n        uint256 instrumentDecimals = core.getInstrumentDecimals(_instrument);\n        IPriceOracleGetter oracle = IPriceOracleGetter(addressesProvider.getPriceOracle());\n        uint256 requestedBorrowAmountETH = oracle.getAssetPrice(_instrument).mul(_amount.add(_fee)).div(10 ** instrumentDecimals); //price is in ether\n\n        //add the current already borrowed amount to the amount requested to calculate the total collateral needed.\n        uint256 collateralNeededInETH = _userCurrentBorrowBalanceTH.add(_userCurrentFeesETH).add(requestedBorrowAmountETH).mul(100).div(_userCurrentLtv); //LTV is calculated in percentage\n\n        return collateralNeededInETH;\n\n    }\n\n\n// ##########################################################################################################################################\n// ############ EXTERNAL VIEW FUNCTIONS WHICH SIMPLY GET DATA FROM CORE CONTRACT  ###########################################################\n// ############ 1. getInstrumentConfigurationData() --> Returns the configuration paramters related to an instrument     #######################\n// ############ 2. getInstrumentData() --> Returns the performance metrics  related to an instrument    ########################################\n// ############ 3. getUserInstrumentData() --> Returns the details of the user balance in an instrument   ######################################\n// ##########################################################################################################################################\n\n    /**\n    * @dev accessory functions to fetch data from the lendingPoolCore\n    **/\n    function getInstrumentConfigurationData(address _instrument) external view returns ( uint256 ltv,  uint256 liquidationThreshold, uint256 liquidationBonus,  address rateStrategyAddress, bool usageAsCollateralEnabled, bool borrowingEnabled, bool stableBorrowRateEnabled,  bool isActive ) {\n        (, ltv, liquidationThreshold, usageAsCollateralEnabled) = core.getInstrumentConfiguration( _instrument );\n        stableBorrowRateEnabled = core.getInstrumentIsStableBorrowRateEnabled(_instrument);\n        borrowingEnabled = core.isInstrumentBorrowingEnabled(_instrument);\n        isActive = core.getInstrumentIsActive(_instrument);\n        liquidationBonus = core.getInstrumentLiquidationBonus(_instrument);\n        rateStrategyAddress = core.getInstrumentInterestRateStrategyAddress(_instrument);\n    }\n\n    function getInstrumentData(address _instrument) external view returns (\n            uint256 totalLiquidity,\n            uint256 availableLiquidity,\n            uint256 totalBorrowsStable,\n            uint256 totalBorrowsVariable,\n            uint256 liquidityRate,\n            uint256 variableBorrowRate,\n            uint256 stableBorrowRate,\n            uint256 averageStableBorrowRate,\n            uint256 utilizationRate,\n            uint256 liquidityIndex,\n            uint256 variableBorrowIndex,\n            address iTokenAddress,\n            uint40 lastUpdateTimestamp\n        )\n    {\n        totalLiquidity = core.getInstrumentTotalLiquidity(_instrument);\n        availableLiquidity = core.getInstrumentAvailableLiquidity(_instrument);\n        totalBorrowsStable = core.getInstrumentTotalBorrowsStable(_instrument);\n        totalBorrowsVariable = core.getInstrumentTotalBorrowsVariable(_instrument);\n        liquidityRate = core.getInstrumentCurrentLiquidityRate(_instrument);\n        variableBorrowRate = core.getInstrumentCurrentVariableBorrowRate(_instrument);\n        stableBorrowRate = core.getInstrumentCurrentStableBorrowRate(_instrument);\n        averageStableBorrowRate = core.getInstrumentCurrentAverageStableBorrowRate(_instrument);\n        utilizationRate = core.getInstrumentUtilizationRate(_instrument);\n        liquidityIndex = core.getInstrumentLiquidityCumulativeIndex(_instrument);\n        variableBorrowIndex = core.getInstrumentVariableBorrowsCumulativeIndex(_instrument);\n        iTokenAddress = core.getInstrumentITokenAddress(_instrument);\n        lastUpdateTimestamp = core.getInstrumentLastUpdate(_instrument);\n    }\n\n    function getUserInstrumentData(address _instrument, address _user) external view returns (\n            uint256 currentITokenBalance,\n            uint256 currentBorrowBalance,\n            uint256 principalBorrowBalance,\n            uint256 borrowRateMode,\n            uint256 borrowRate,\n            uint256 liquidityRate,\n            uint256 originationFee,\n            uint256 variableBorrowIndex,\n            uint256 lastUpdateTimestamp,\n            bool usageAsCollateralEnabled\n        )\n    {\n        currentITokenBalance = ITokenInterface(core.getInstrumentITokenAddress(_instrument)).balanceOf(_user);\n        CoreLibrary.InterestRateMode mode = core.getUserCurrentBorrowRateMode(_instrument, _user);\n        (principalBorrowBalance, currentBorrowBalance, ) = core.getUserBorrowBalances(  _instrument, _user  );\n\n        //default is 0, if mode == CoreLibrary.InterestRateMode.NONE\n        if (mode == CoreLibrary.InterestRateMode.STABLE) {\n            borrowRate = core.getUserCurrentStableBorrowRate(_instrument, _user);\n        } \n        else if (mode == CoreLibrary.InterestRateMode.VARIABLE) {\n            borrowRate = core.getInstrumentCurrentVariableBorrowRate(_instrument);\n        }\n\n        borrowRateMode = uint256(mode);\n        liquidityRate = core.getInstrumentCurrentLiquidityRate(_instrument);\n        originationFee = core.getUserOriginationFee(_instrument, _user);\n        variableBorrowIndex = core.getUserVariableBorrowCumulativeIndex(_instrument, _user);\n        lastUpdateTimestamp = core.getUserLastUpdate(_instrument, _user);\n        usageAsCollateralEnabled = core.isUserUseInstrumentAsCollateralEnabled(_instrument, _user);\n    }\n\n// #####################################################################################\n// ############ returns the health factor liquidation threshold  #######################\n// #####################################################################################\n\n    function getHealthFactorLiquidationThreshold() external pure returns (uint256) {\n        return HEALTH_FACTOR_LIQUIDATION_THRESHOLD;\n    }\n\n\n// ################################################################################################\n// ############ EXTERNAL VIEW FUNCTION  ###########################################################\n// ############ 1. getUserAccountData() --> Returns the global account data for a user     ########\n// ################################################################################################\n\n    function getUserAccountData(address _user) external view returns (\n            uint256 totalLiquidityETH,\n            uint256 totalCollateralETH,\n            uint256 totalBorrowsETH,\n            uint256 totalFeesETH,\n            uint256 availableBorrowsETH,\n            uint256 currentLiquidationThreshold,\n            uint256 ltv,\n            uint256 healthFactor\n        )\n    {\n        ( totalLiquidityETH, totalCollateralETH, totalBorrowsETH, totalFeesETH, ltv,  currentLiquidationThreshold, healthFactor, ) = calculateUserGlobalData(_user);\n        availableBorrowsETH = calculateAvailableBorrowsETHInternal(  totalCollateralETH, totalBorrowsETH, totalFeesETH, ltv );\n    }\n\n// ######################################################################################################################################\n// ############ INTERNAL FUNCTIONS  #####################################################################################################\n// ############ 1. calculateAvailableBorrowsETHInternal() --> calculates the equivalent amount in ETH that a user can borrow     ########\n// ############ 1. calculateHealthFactorFromBalancesInternal() --> calculates the health factor from the corresponding balances  ########\n// ######################################################################################################################################\n\n\n    /**\n    * @dev calculates the equivalent amount in ETH that a user can borrow, depending on the available collateral and the average Loan To Value.\n    * @param collateralBalanceETH the total collateral balance\n    * @param borrowBalanceETH the total borrow balance\n    * @param totalFeesETH the total fees\n    * @param ltv the average loan to value\n    * @return the amount available to borrow in ETH for the user\n    **/\n    function calculateAvailableBorrowsETHInternal( uint256 collateralBalanceETH,uint256 borrowBalanceETH, uint256 totalFeesETH, uint256 ltv ) internal view returns (uint256) {\n        uint256 availableBorrowsETH = collateralBalanceETH.mul(ltv).div(100); //ltv is in percentage\n        if (availableBorrowsETH < borrowBalanceETH) {\n            return 0;\n        }\n        availableBorrowsETH = availableBorrowsETH.sub(borrowBalanceETH.add(totalFeesETH));       \n        uint256 borrowFee = IFeeProvider(addressesProvider.getFeeProvider()).calculateLoanOriginationFee(msg.sender, availableBorrowsETH);       //calculate fee\n        return availableBorrowsETH.sub(borrowFee);\n    }\n\n\n    /**\n    * @dev calculates the health factor from the corresponding balances\n    * @param collateralBalanceETH the total collateral balance in ETH\n    * @param borrowBalanceETH the total borrow balance in ETH\n    * @param totalFeesETH the total fees in ETH\n    * @param liquidationThreshold the avg liquidation threshold\n    **/\n    function calculateHealthFactorFromBalancesInternal( uint256 collateralBalanceETH, uint256 borrowBalanceETH, uint256 totalFeesETH, uint256 liquidationThreshold ) internal pure returns (uint256) {\n        if (borrowBalanceETH == 0) \n            return uint256(-1);\n\n        return (collateralBalanceETH.mul(liquidationThreshold).div(100)).wadDiv( borrowBalanceETH.add(totalFeesETH) );\n    }\n\n}\n",
  "sourcePath": "/Users/apple/Desktop/GITCOIN/Sigh_Finance/SighFinanceContracts/contracts/LendingProtocolContracts/lendingpool/LendingPoolDataProvider.sol",
  "compiler": {
    "name": "solc",
    "version": "0.5.16+commit.9c3226ce.Emscripten.clang"
  },
  "schemaVersion": "3.2.4",
  "updatedAt": "2020-12-03T08:10:19.494Z",
  "devdoc": {
    "author": "Aave, SIGH Finance ",
    "methods": {
      "balanceDecreaseAllowed(address,address,uint256)": {
        "details": "check if a specific balance decrease is allowed (i.e. doesn't bring the user borrow position health factor under 1e18)",
        "params": {
          "_amount": "the amount to decrease",
          "_instrument": "the address of the instrument",
          "_user": "the address of the user"
        },
        "return": "true if the decrease of the balance is allowed*"
      },
      "calculateCollateralNeededInETH(address,uint256,uint256,uint256,uint256,uint256)": {
        "params": {
          "_amount": "the amount the user wants to borrow",
          "_fee": "the fee for the amount that the user needs to cover",
          "_instrument": "the instrument from which the user wants to borrow",
          "_userCurrentBorrowBalanceTH": "the current global borrow balance of the user (before the borrow)",
          "_userCurrentLtv": "the average ltv of the user given his current collateral (before the borrow)"
        },
        "return": "the total amount of collateral in ETH to cover the current borrow balance + the new amount + fee*"
      },
      "calculateUserGlobalData(address)": {
        "details": "calculates the user data across the instruments. this includes the total liquidity/collateral/borrow balances in ETH, the average Loan To Value, the average Liquidation Ratio, and the Health factor.",
        "params": {
          "_user": "the address of the user"
        },
        "return": "the total liquidity, total collateral, total borrow balances of the user in ETH. also the average Ltv, liquidation threshold, and the health factor*"
      },
      "getInstrumentConfigurationData(address)": {
        "details": "accessory functions to fetch data from the lendingPoolCore*"
      }
    },
    "title": "LendingPoolDataProvider contract "
  },
  "userdoc": {
    "methods": {
      "calculateCollateralNeededInETH(address,uint256,uint256,uint256,uint256,uint256)": {
        "notice": "calculates the amount of collateral needed in ETH to cover a new borrow."
      }
    },
    "notice": "Implements functions to fetch data from the core, and aggregate them in order to allow computation on the compounded balances and the account balances in ETH*"
  }
}