{
  "contractName": "MockAggregatorBase",
  "abi": [
    {
      "inputs": [
        {
          "internalType": "int256",
          "name": "_initialAnswer",
          "type": "int256"
        }
      ],
      "payable": false,
      "stateMutability": "nonpayable",
      "type": "constructor"
    },
    {
      "anonymous": false,
      "inputs": [
        {
          "indexed": true,
          "internalType": "int256",
          "name": "current",
          "type": "int256"
        },
        {
          "indexed": true,
          "internalType": "uint256",
          "name": "roundId",
          "type": "uint256"
        },
        {
          "indexed": false,
          "internalType": "uint256",
          "name": "timestamp",
          "type": "uint256"
        }
      ],
      "name": "AnswerUpdated",
      "type": "event"
    },
    {
      "constant": true,
      "inputs": [],
      "name": "latestAnswer",
      "outputs": [
        {
          "internalType": "int256",
          "name": "",
          "type": "int256"
        }
      ],
      "payable": false,
      "stateMutability": "view",
      "type": "function"
    }
  ],
  "bytecode": "0x608060405234801561001057600080fd5b506040516100ff3803806100ff8339818101604052602081101561003357600080fd5b5051600081815560408051428152905183917f0559884fd3a460db3073b7fc896cc77986f16e378210ded43186175bf646fc5f919081900360200190a35060808061007f6000396000f3fe6080604052348015600f57600080fd5b506004361060285760003560e01c806350d25bcd14602d575b600080fd5b60336045565b60408051918252519081900360200190f35b6000549056fea265627a7a72315820a1a260a1cac7af1c12e58d5afb8aaa60f7ce790959f8571eb84664b4b986c35a64736f6c63430005100032",
  "source": "pragma solidity ^0.5.0;\n\ncontract MockAggregatorBase  {\n    int256 private _latestAnswer;\n\n    event AnswerUpdated(int256 indexed current, uint256 indexed roundId, uint256 timestamp);\n\n    constructor (int256 _initialAnswer) public {\n        _latestAnswer = _initialAnswer;\n        emit AnswerUpdated(_initialAnswer, 0, now);\n    }\n\n    function latestAnswer() external view returns (int256) {\n        return _latestAnswer;\n    }\n}",
  "sourcePath": "/Users/apple/Desktop/GITCOIN/Sigh_Finance/SighFinanceContracts/contracts/LendingProtocolContracts/mocks/oracle/CLAggregators/MockAggregatorBase.sol",
  "compiler": {
    "name": "solc",
    "version": "0.5.16+commit.9c3226ce.Emscripten.clang"
  },
  "schemaVersion": "3.2.4",
  "updatedAt": "2020-11-05T05:43:32.057Z",
  "devdoc": {
    "methods": {}
  },
  "userdoc": {
    "methods": {}
  }
}