{
  "contractName": "MockLendingPoolCore",
  "abi": [
    {
      "anonymous": false,
      "inputs": [
        {
          "indexed": true,
          "internalType": "address",
          "name": "instrument",
          "type": "address"
        },
        {
          "indexed": false,
          "internalType": "uint256",
          "name": "liquidityRate",
          "type": "uint256"
        },
        {
          "indexed": false,
          "internalType": "uint256",
          "name": "stableBorrowRate",
          "type": "uint256"
        },
        {
          "indexed": false,
          "internalType": "uint256",
          "name": "variableBorrowRate",
          "type": "uint256"
        },
        {
          "indexed": false,
          "internalType": "uint256",
          "name": "liquidityIndex",
          "type": "uint256"
        },
        {
          "indexed": false,
          "internalType": "uint256",
          "name": "variableBorrowIndex",
          "type": "uint256"
        }
      ],
      "name": "InstrumentUpdated",
      "type": "event"
    },
    {
      "anonymous": false,
      "inputs": [
        {
          "indexed": true,
          "internalType": "uint256",
          "name": "revision",
          "type": "uint256"
        }
      ],
      "name": "ReserveUpdatedFromMock",
      "type": "event"
    },
    {
      "payable": true,
      "stateMutability": "payable",
      "type": "fallback"
    },
    {
      "constant": true,
      "inputs": [],
      "name": "CORE_REVISION",
      "outputs": [
        {
          "internalType": "uint256",
          "name": "",
          "type": "uint256"
        }
      ],
      "payable": false,
      "stateMutability": "view",
      "type": "function"
    },
    {
      "constant": false,
      "inputs": [
        {
          "internalType": "address",
          "name": "_instrument",
          "type": "address"
        }
      ],
      "name": "activateInstrument",
      "outputs": [],
      "payable": false,
      "stateMutability": "nonpayable",
      "type": "function"
    },
    {
      "constant": true,
      "inputs": [],
      "name": "addressesProvider",
      "outputs": [
        {
          "internalType": "contract LendingPoolAddressesProvider",
          "name": "",
          "type": "address"
        }
      ],
      "payable": false,
      "stateMutability": "view",
      "type": "function"
    },
    {
      "constant": false,
      "inputs": [
        {
          "internalType": "address",
          "name": "_instrument",
          "type": "address"
        }
      ],
      "name": "deactivateInstrument",
      "outputs": [],
      "payable": false,
      "stateMutability": "nonpayable",
      "type": "function"
    },
    {
      "constant": false,
      "inputs": [
        {
          "internalType": "address",
          "name": "_instrument",
          "type": "address"
        }
      ],
      "name": "disableBorrowingOnInstrument",
      "outputs": [],
      "payable": false,
      "stateMutability": "nonpayable",
      "type": "function"
    },
    {
      "constant": false,
      "inputs": [
        {
          "internalType": "address",
          "name": "_instrument",
          "type": "address"
        }
      ],
      "name": "disableInstrumentAsCollateral",
      "outputs": [],
      "payable": false,
      "stateMutability": "nonpayable",
      "type": "function"
    },
    {
      "constant": false,
      "inputs": [
        {
          "internalType": "address",
          "name": "_instrument",
          "type": "address"
        }
      ],
      "name": "disableInstrumentStableBorrowRate",
      "outputs": [],
      "payable": false,
      "stateMutability": "nonpayable",
      "type": "function"
    },
    {
      "constant": false,
      "inputs": [
        {
          "internalType": "address",
          "name": "_instrument",
          "type": "address"
        },
        {
          "internalType": "bool",
          "name": "_stableBorrowRateEnabled",
          "type": "bool"
        }
      ],
      "name": "enableBorrowingOnInstrument",
      "outputs": [],
      "payable": false,
      "stateMutability": "nonpayable",
      "type": "function"
    },
    {
      "constant": false,
      "inputs": [
        {
          "internalType": "address",
          "name": "_instrument",
          "type": "address"
        },
        {
          "internalType": "uint256",
          "name": "_baseLTVasCollateral",
          "type": "uint256"
        },
        {
          "internalType": "uint256",
          "name": "_liquidationThreshold",
          "type": "uint256"
        },
        {
          "internalType": "uint256",
          "name": "_liquidationBonus",
          "type": "uint256"
        }
      ],
      "name": "enableInstrumentAsCollateral",
      "outputs": [],
      "payable": false,
      "stateMutability": "nonpayable",
      "type": "function"
    },
    {
      "constant": false,
      "inputs": [
        {
          "internalType": "address",
          "name": "_instrument",
          "type": "address"
        }
      ],
      "name": "enableInstrumentStableBorrowRate",
      "outputs": [],
      "payable": false,
      "stateMutability": "nonpayable",
      "type": "function"
    },
    {
      "constant": false,
      "inputs": [
        {
          "internalType": "address",
          "name": "_instrument",
          "type": "address"
        }
      ],
      "name": "freezeInstrument",
      "outputs": [],
      "payable": false,
      "stateMutability": "nonpayable",
      "type": "function"
    },
    {
      "constant": true,
      "inputs": [
        {
          "internalType": "address",
          "name": "_instrument",
          "type": "address"
        }
      ],
      "name": "getInstrumentAvailableLiquidity",
      "outputs": [
        {
          "internalType": "uint256",
          "name": "",
          "type": "uint256"
        }
      ],
      "payable": false,
      "stateMutability": "view",
      "type": "function"
    },
    {
      "constant": true,
      "inputs": [
        {
          "internalType": "address",
          "name": "_instrument",
          "type": "address"
        }
      ],
      "name": "getInstrumentConfiguration",
      "outputs": [
        {
          "internalType": "uint256",
          "name": "",
          "type": "uint256"
        },
        {
          "internalType": "uint256",
          "name": "",
          "type": "uint256"
        },
        {
          "internalType": "uint256",
          "name": "",
          "type": "uint256"
        },
        {
          "internalType": "bool",
          "name": "",
          "type": "bool"
        }
      ],
      "payable": false,
      "stateMutability": "view",
      "type": "function"
    },
    {
      "constant": true,
      "inputs": [
        {
          "internalType": "address",
          "name": "_instrument",
          "type": "address"
        }
      ],
      "name": "getInstrumentCurrentAverageStableBorrowRate",
      "outputs": [
        {
          "internalType": "uint256",
          "name": "",
          "type": "uint256"
        }
      ],
      "payable": false,
      "stateMutability": "view",
      "type": "function"
    },
    {
      "constant": true,
      "inputs": [
        {
          "internalType": "address",
          "name": "_instrument",
          "type": "address"
        }
      ],
      "name": "getInstrumentCurrentLiquidityRate",
      "outputs": [
        {
          "internalType": "uint256",
          "name": "",
          "type": "uint256"
        }
      ],
      "payable": false,
      "stateMutability": "view",
      "type": "function"
    },
    {
      "constant": true,
      "inputs": [
        {
          "internalType": "address",
          "name": "_instrument",
          "type": "address"
        }
      ],
      "name": "getInstrumentCurrentStableBorrowRate",
      "outputs": [
        {
          "internalType": "uint256",
          "name": "",
          "type": "uint256"
        }
      ],
      "payable": false,
      "stateMutability": "view",
      "type": "function"
    },
    {
      "constant": true,
      "inputs": [
        {
          "internalType": "address",
          "name": "_instrument",
          "type": "address"
        }
      ],
      "name": "getInstrumentCurrentVariableBorrowRate",
      "outputs": [
        {
          "internalType": "uint256",
          "name": "",
          "type": "uint256"
        }
      ],
      "payable": false,
      "stateMutability": "view",
      "type": "function"
    },
    {
      "constant": true,
      "inputs": [
        {
          "internalType": "address",
          "name": "_instrument",
          "type": "address"
        }
      ],
      "name": "getInstrumentDecimals",
      "outputs": [
        {
          "internalType": "uint256",
          "name": "",
          "type": "uint256"
        }
      ],
      "payable": false,
      "stateMutability": "view",
      "type": "function"
    },
    {
      "constant": true,
      "inputs": [
        {
          "internalType": "address",
          "name": "_instrument",
          "type": "address"
        }
      ],
      "name": "getInstrumentITokenAddress",
      "outputs": [
        {
          "internalType": "address",
          "name": "",
          "type": "address"
        }
      ],
      "payable": false,
      "stateMutability": "view",
      "type": "function"
    },
    {
      "constant": true,
      "inputs": [
        {
          "internalType": "address",
          "name": "_instrument",
          "type": "address"
        }
      ],
      "name": "getInstrumentInterestRateStrategyAddress",
      "outputs": [
        {
          "internalType": "address",
          "name": "",
          "type": "address"
        }
      ],
      "payable": false,
      "stateMutability": "view",
      "type": "function"
    },
    {
      "constant": true,
      "inputs": [
        {
          "internalType": "address",
          "name": "_instrument",
          "type": "address"
        }
      ],
      "name": "getInstrumentIsActive",
      "outputs": [
        {
          "internalType": "bool",
          "name": "",
          "type": "bool"
        }
      ],
      "payable": false,
      "stateMutability": "view",
      "type": "function"
    },
    {
      "constant": true,
      "inputs": [
        {
          "internalType": "address",
          "name": "_instrument",
          "type": "address"
        }
      ],
      "name": "getInstrumentIsFreezed",
      "outputs": [
        {
          "internalType": "bool",
          "name": "",
          "type": "bool"
        }
      ],
      "payable": false,
      "stateMutability": "view",
      "type": "function"
    },
    {
      "constant": true,
      "inputs": [
        {
          "internalType": "address",
          "name": "_instrument",
          "type": "address"
        }
      ],
      "name": "getInstrumentIsStableBorrowRateEnabled",
      "outputs": [
        {
          "internalType": "bool",
          "name": "",
          "type": "bool"
        }
      ],
      "payable": false,
      "stateMutability": "view",
      "type": "function"
    },
    {
      "constant": true,
      "inputs": [
        {
          "internalType": "address",
          "name": "_instrument",
          "type": "address"
        }
      ],
      "name": "getInstrumentLastUpdate",
      "outputs": [
        {
          "internalType": "uint40",
          "name": "timestamp",
          "type": "uint40"
        }
      ],
      "payable": false,
      "stateMutability": "view",
      "type": "function"
    },
    {
      "constant": true,
      "inputs": [
        {
          "internalType": "address",
          "name": "_instrument",
          "type": "address"
        }
      ],
      "name": "getInstrumentLiquidationBonus",
      "outputs": [
        {
          "internalType": "uint256",
          "name": "",
          "type": "uint256"
        }
      ],
      "payable": false,
      "stateMutability": "view",
      "type": "function"
    },
    {
      "constant": true,
      "inputs": [
        {
          "internalType": "address",
          "name": "_instrument",
          "type": "address"
        }
      ],
      "name": "getInstrumentLiquidationThreshold",
      "outputs": [
        {
          "internalType": "uint256",
          "name": "",
          "type": "uint256"
        }
      ],
      "payable": false,
      "stateMutability": "view",
      "type": "function"
    },
    {
      "constant": true,
      "inputs": [
        {
          "internalType": "address",
          "name": "_instrument",
          "type": "address"
        }
      ],
      "name": "getInstrumentLiquidityCumulativeIndex",
      "outputs": [
        {
          "internalType": "uint256",
          "name": "",
          "type": "uint256"
        }
      ],
      "payable": false,
      "stateMutability": "view",
      "type": "function"
    },
    {
      "constant": true,
      "inputs": [
        {
          "internalType": "address",
          "name": "_instrument",
          "type": "address"
        }
      ],
      "name": "getInstrumentNormalizedIncome",
      "outputs": [
        {
          "internalType": "uint256",
          "name": "",
          "type": "uint256"
        }
      ],
      "payable": false,
      "stateMutability": "view",
      "type": "function"
    },
    {
      "constant": true,
      "inputs": [
        {
          "internalType": "address",
          "name": "_instrument",
          "type": "address"
        }
      ],
      "name": "getInstrumentTotalBorrows",
      "outputs": [
        {
          "internalType": "uint256",
          "name": "",
          "type": "uint256"
        }
      ],
      "payable": false,
      "stateMutability": "view",
      "type": "function"
    },
    {
      "constant": true,
      "inputs": [
        {
          "internalType": "address",
          "name": "_instrument",
          "type": "address"
        }
      ],
      "name": "getInstrumentTotalBorrowsStable",
      "outputs": [
        {
          "internalType": "uint256",
          "name": "",
          "type": "uint256"
        }
      ],
      "payable": false,
      "stateMutability": "view",
      "type": "function"
    },
    {
      "constant": true,
      "inputs": [
        {
          "internalType": "address",
          "name": "_instrument",
          "type": "address"
        }
      ],
      "name": "getInstrumentTotalBorrowsVariable",
      "outputs": [
        {
          "internalType": "uint256",
          "name": "",
          "type": "uint256"
        }
      ],
      "payable": false,
      "stateMutability": "view",
      "type": "function"
    },
    {
      "constant": true,
      "inputs": [
        {
          "internalType": "address",
          "name": "_instrument",
          "type": "address"
        }
      ],
      "name": "getInstrumentTotalLiquidity",
      "outputs": [
        {
          "internalType": "uint256",
          "name": "",
          "type": "uint256"
        }
      ],
      "payable": false,
      "stateMutability": "view",
      "type": "function"
    },
    {
      "constant": true,
      "inputs": [
        {
          "internalType": "address",
          "name": "_instrument",
          "type": "address"
        }
      ],
      "name": "getInstrumentUtilizationRate",
      "outputs": [
        {
          "internalType": "uint256",
          "name": "",
          "type": "uint256"
        }
      ],
      "payable": false,
      "stateMutability": "view",
      "type": "function"
    },
    {
      "constant": true,
      "inputs": [
        {
          "internalType": "address",
          "name": "_instrument",
          "type": "address"
        }
      ],
      "name": "getInstrumentVariableBorrowsCumulativeIndex",
      "outputs": [
        {
          "internalType": "uint256",
          "name": "",
          "type": "uint256"
        }
      ],
      "payable": false,
      "stateMutability": "view",
      "type": "function"
    },
    {
      "constant": true,
      "inputs": [],
      "name": "getInstruments",
      "outputs": [
        {
          "internalType": "address[]",
          "name": "",
          "type": "address[]"
        }
      ],
      "payable": false,
      "stateMutability": "view",
      "type": "function"
    },
    {
      "constant": true,
      "inputs": [
        {
          "internalType": "address",
          "name": "_instrument",
          "type": "address"
        },
        {
          "internalType": "address",
          "name": "_user",
          "type": "address"
        }
      ],
      "name": "getUserBasicInstrumentData",
      "outputs": [
        {
          "internalType": "uint256",
          "name": "",
          "type": "uint256"
        },
        {
          "internalType": "uint256",
          "name": "",
          "type": "uint256"
        },
        {
          "internalType": "uint256",
          "name": "",
          "type": "uint256"
        },
        {
          "internalType": "bool",
          "name": "",
          "type": "bool"
        }
      ],
      "payable": false,
      "stateMutability": "view",
      "type": "function"
    },
    {
      "constant": true,
      "inputs": [
        {
          "internalType": "address",
          "name": "_instrument",
          "type": "address"
        },
        {
          "internalType": "address",
          "name": "_user",
          "type": "address"
        }
      ],
      "name": "getUserBorrowBalances",
      "outputs": [
        {
          "internalType": "uint256",
          "name": "",
          "type": "uint256"
        },
        {
          "internalType": "uint256",
          "name": "",
          "type": "uint256"
        },
        {
          "internalType": "uint256",
          "name": "",
          "type": "uint256"
        }
      ],
      "payable": false,
      "stateMutability": "view",
      "type": "function"
    },
    {
      "constant": true,
      "inputs": [
        {
          "internalType": "address",
          "name": "_instrument",
          "type": "address"
        },
        {
          "internalType": "address",
          "name": "_user",
          "type": "address"
        }
      ],
      "name": "getUserCurrentBorrowRateMode",
      "outputs": [
        {
          "internalType": "enum CoreLibrary.InterestRateMode",
          "name": "",
          "type": "uint8"
        }
      ],
      "payable": false,
      "stateMutability": "view",
      "type": "function"
    },
    {
      "constant": true,
      "inputs": [
        {
          "internalType": "address",
          "name": "_instrument",
          "type": "address"
        },
        {
          "internalType": "address",
          "name": "_user",
          "type": "address"
        }
      ],
      "name": "getUserCurrentStableBorrowRate",
      "outputs": [
        {
          "internalType": "uint256",
          "name": "",
          "type": "uint256"
        }
      ],
      "payable": false,
      "stateMutability": "view",
      "type": "function"
    },
    {
      "constant": true,
      "inputs": [
        {
          "internalType": "address",
          "name": "_instrument",
          "type": "address"
        },
        {
          "internalType": "address",
          "name": "_user",
          "type": "address"
        }
      ],
      "name": "getUserLastUpdate",
      "outputs": [
        {
          "internalType": "uint256",
          "name": "timestamp",
          "type": "uint256"
        }
      ],
      "payable": false,
      "stateMutability": "view",
      "type": "function"
    },
    {
      "constant": true,
      "inputs": [
        {
          "internalType": "address",
          "name": "_instrument",
          "type": "address"
        },
        {
          "internalType": "address",
          "name": "_user",
          "type": "address"
        }
      ],
      "name": "getUserOriginationFee",
      "outputs": [
        {
          "internalType": "uint256",
          "name": "",
          "type": "uint256"
        }
      ],
      "payable": false,
      "stateMutability": "view",
      "type": "function"
    },
    {
      "constant": true,
      "inputs": [
        {
          "internalType": "address",
          "name": "_instrument",
          "type": "address"
        },
        {
          "internalType": "address",
          "name": "_user",
          "type": "address"
        }
      ],
      "name": "getUserUnderlyingAssetBalance",
      "outputs": [
        {
          "internalType": "uint256",
          "name": "",
          "type": "uint256"
        }
      ],
      "payable": false,
      "stateMutability": "view",
      "type": "function"
    },
    {
      "constant": true,
      "inputs": [
        {
          "internalType": "address",
          "name": "_instrument",
          "type": "address"
        },
        {
          "internalType": "address",
          "name": "_user",
          "type": "address"
        }
      ],
      "name": "getUserVariableBorrowCumulativeIndex",
      "outputs": [
        {
          "internalType": "uint256",
          "name": "",
          "type": "uint256"
        }
      ],
      "payable": false,
      "stateMutability": "view",
      "type": "function"
    },
    {
      "constant": false,
      "inputs": [
        {
          "internalType": "address",
          "name": "_instrument",
          "type": "address"
        },
        {
          "internalType": "address",
          "name": "_iTokenAddress",
          "type": "address"
        },
        {
          "internalType": "uint256",
          "name": "_decimals",
          "type": "uint256"
        },
        {
          "internalType": "address",
          "name": "_interestRateStrategyAddress",
          "type": "address"
        }
      ],
      "name": "initInstrument",
      "outputs": [],
      "payable": false,
      "stateMutability": "nonpayable",
      "type": "function"
    },
    {
      "constant": true,
      "inputs": [
        {
          "internalType": "uint256",
          "name": "",
          "type": "uint256"
        }
      ],
      "name": "instrumentsList",
      "outputs": [
        {
          "internalType": "address",
          "name": "",
          "type": "address"
        }
      ],
      "payable": false,
      "stateMutability": "view",
      "type": "function"
    },
    {
      "constant": true,
      "inputs": [
        {
          "internalType": "address",
          "name": "_instrument",
          "type": "address"
        }
      ],
      "name": "isInstrumentBorrowingEnabled",
      "outputs": [
        {
          "internalType": "bool",
          "name": "",
          "type": "bool"
        }
      ],
      "payable": false,
      "stateMutability": "view",
      "type": "function"
    },
    {
      "constant": true,
      "inputs": [
        {
          "internalType": "address",
          "name": "_instrument",
          "type": "address"
        }
      ],
      "name": "isInstrumentUsageAsCollateralEnabled",
      "outputs": [
        {
          "internalType": "bool",
          "name": "",
          "type": "bool"
        }
      ],
      "payable": false,
      "stateMutability": "view",
      "type": "function"
    },
    {
      "constant": true,
      "inputs": [
        {
          "internalType": "address",
          "name": "_instrument",
          "type": "address"
        },
        {
          "internalType": "address",
          "name": "_user",
          "type": "address"
        },
        {
          "internalType": "uint256",
          "name": "_amount",
          "type": "uint256"
        }
      ],
      "name": "isUserAllowedToBorrowAtStable",
      "outputs": [
        {
          "internalType": "bool",
          "name": "",
          "type": "bool"
        }
      ],
      "payable": false,
      "stateMutability": "view",
      "type": "function"
    },
    {
      "constant": true,
      "inputs": [
        {
          "internalType": "address",
          "name": "_instrument",
          "type": "address"
        },
        {
          "internalType": "address",
          "name": "_user",
          "type": "address"
        }
      ],
      "name": "isUserUseInstrumentAsCollateralEnabled",
      "outputs": [
        {
          "internalType": "bool",
          "name": "",
          "type": "bool"
        }
      ],
      "payable": false,
      "stateMutability": "view",
      "type": "function"
    },
    {
      "constant": true,
      "inputs": [],
      "name": "lendingPoolAddress",
      "outputs": [
        {
          "internalType": "address",
          "name": "",
          "type": "address"
        }
      ],
      "payable": false,
      "stateMutability": "view",
      "type": "function"
    },
    {
      "constant": false,
      "inputs": [
        {
          "internalType": "address",
          "name": "_token",
          "type": "address"
        },
        {
          "internalType": "uint256",
          "name": "_amount",
          "type": "uint256"
        },
        {
          "internalType": "address",
          "name": "_destination",
          "type": "address"
        }
      ],
      "name": "liquidateFee",
      "outputs": [],
      "payable": true,
      "stateMutability": "payable",
      "type": "function"
    },
    {
      "constant": false,
      "inputs": [],
      "name": "refreshConfiguration",
      "outputs": [],
      "payable": false,
      "stateMutability": "nonpayable",
      "type": "function"
    },
    {
      "constant": false,
      "inputs": [
        {
          "internalType": "address",
          "name": "_instrumentToRemove",
          "type": "address"
        }
      ],
      "name": "removeLastAddedInstrument",
      "outputs": [],
      "payable": false,
      "stateMutability": "nonpayable",
      "type": "function"
    },
    {
      "constant": false,
      "inputs": [
        {
          "internalType": "address",
          "name": "_instrument",
          "type": "address"
        },
        {
          "internalType": "uint256",
          "name": "_ltv",
          "type": "uint256"
        }
      ],
      "name": "setInstrumentBaseLTVasCollateral",
      "outputs": [],
      "payable": false,
      "stateMutability": "nonpayable",
      "type": "function"
    },
    {
      "constant": false,
      "inputs": [
        {
          "internalType": "address",
          "name": "_instrument",
          "type": "address"
        },
        {
          "internalType": "uint256",
          "name": "_decimals",
          "type": "uint256"
        }
      ],
      "name": "setInstrumentDecimals",
      "outputs": [],
      "payable": false,
      "stateMutability": "nonpayable",
      "type": "function"
    },
    {
      "constant": false,
      "inputs": [
        {
          "internalType": "address",
          "name": "_instrument",
          "type": "address"
        },
        {
          "internalType": "address",
          "name": "_rateStrategyAddress",
          "type": "address"
        }
      ],
      "name": "setInstrumentInterestRateStrategyAddress",
      "outputs": [],
      "payable": false,
      "stateMutability": "nonpayable",
      "type": "function"
    },
    {
      "constant": false,
      "inputs": [
        {
          "internalType": "address",
          "name": "_instrument",
          "type": "address"
        },
        {
          "internalType": "uint256",
          "name": "_bonus",
          "type": "uint256"
        }
      ],
      "name": "setInstrumentLiquidationBonus",
      "outputs": [],
      "payable": false,
      "stateMutability": "nonpayable",
      "type": "function"
    },
    {
      "constant": false,
      "inputs": [
        {
          "internalType": "address",
          "name": "_instrument",
          "type": "address"
        },
        {
          "internalType": "uint256",
          "name": "_threshold",
          "type": "uint256"
        }
      ],
      "name": "setInstrumentLiquidationThreshold",
      "outputs": [],
      "payable": false,
      "stateMutability": "nonpayable",
      "type": "function"
    },
    {
      "constant": false,
      "inputs": [
        {
          "internalType": "address",
          "name": "_instrument",
          "type": "address"
        },
        {
          "internalType": "address",
          "name": "_user",
          "type": "address"
        },
        {
          "internalType": "bool",
          "name": "_useAsCollateral",
          "type": "bool"
        }
      ],
      "name": "setUserUseInstrumentAsCollateral",
      "outputs": [],
      "payable": false,
      "stateMutability": "nonpayable",
      "type": "function"
    },
    {
      "constant": false,
      "inputs": [
        {
          "internalType": "address",
          "name": "_token",
          "type": "address"
        },
        {
          "internalType": "address",
          "name": "_user",
          "type": "address"
        },
        {
          "internalType": "uint256",
          "name": "_amount",
          "type": "uint256"
        },
        {
          "internalType": "address",
          "name": "_destination",
          "type": "address"
        }
      ],
      "name": "transferToFeeCollectionAddress",
      "outputs": [],
      "payable": true,
      "stateMutability": "payable",
      "type": "function"
    },
    {
      "constant": false,
      "inputs": [
        {
          "internalType": "address",
          "name": "_instrument",
          "type": "address"
        },
        {
          "internalType": "address payable",
          "name": "_user",
          "type": "address"
        },
        {
          "internalType": "uint256",
          "name": "_amount",
          "type": "uint256"
        }
      ],
      "name": "transferToReserve",
      "outputs": [],
      "payable": true,
      "stateMutability": "payable",
      "type": "function"
    },
    {
      "constant": false,
      "inputs": [
        {
          "internalType": "address",
          "name": "_instrument",
          "type": "address"
        },
        {
          "internalType": "address payable",
          "name": "_user",
          "type": "address"
        },
        {
          "internalType": "uint256",
          "name": "_amount",
          "type": "uint256"
        }
      ],
      "name": "transferToUser",
      "outputs": [],
      "payable": false,
      "stateMutability": "nonpayable",
      "type": "function"
    },
    {
      "constant": false,
      "inputs": [
        {
          "internalType": "address",
          "name": "_instrument",
          "type": "address"
        }
      ],
      "name": "unfreezeInstrument",
      "outputs": [],
      "payable": false,
      "stateMutability": "nonpayable",
      "type": "function"
    },
    {
      "constant": false,
      "inputs": [
        {
          "internalType": "address",
          "name": "_instrument",
          "type": "address"
        },
        {
          "internalType": "address",
          "name": "_user",
          "type": "address"
        },
        {
          "internalType": "uint256",
          "name": "_amountBorrowed",
          "type": "uint256"
        },
        {
          "internalType": "uint256",
          "name": "_borrowFee",
          "type": "uint256"
        },
        {
          "internalType": "enum CoreLibrary.InterestRateMode",
          "name": "_rateMode",
          "type": "uint8"
        }
      ],
      "name": "updateStateOnBorrow",
      "outputs": [
        {
          "internalType": "uint256",
          "name": "",
          "type": "uint256"
        },
        {
          "internalType": "uint256",
          "name": "",
          "type": "uint256"
        }
      ],
      "payable": false,
      "stateMutability": "nonpayable",
      "type": "function"
    },
    {
      "constant": false,
      "inputs": [
        {
          "internalType": "address",
          "name": "_instrument",
          "type": "address"
        },
        {
          "internalType": "address",
          "name": "_user",
          "type": "address"
        },
        {
          "internalType": "uint256",
          "name": "_amount",
          "type": "uint256"
        },
        {
          "internalType": "bool",
          "name": "_isFirstDeposit",
          "type": "bool"
        }
      ],
      "name": "updateStateOnDeposit",
      "outputs": [],
      "payable": false,
      "stateMutability": "nonpayable",
      "type": "function"
    },
    {
      "constant": false,
      "inputs": [
        {
          "internalType": "address",
          "name": "_instrument",
          "type": "address"
        },
        {
          "internalType": "uint256",
          "name": "_availableLiquidityBefore",
          "type": "uint256"
        },
        {
          "internalType": "uint256",
          "name": "_income",
          "type": "uint256"
        },
        {
          "internalType": "uint256",
          "name": "_protocolFee",
          "type": "uint256"
        }
      ],
      "name": "updateStateOnFlashLoan",
      "outputs": [],
      "payable": false,
      "stateMutability": "nonpayable",
      "type": "function"
    },
    {
      "constant": false,
      "inputs": [
        {
          "internalType": "address",
          "name": "_principalInstrument",
          "type": "address"
        },
        {
          "internalType": "address",
          "name": "_collateralInstrument",
          "type": "address"
        },
        {
          "internalType": "address",
          "name": "_user",
          "type": "address"
        },
        {
          "internalType": "uint256",
          "name": "_amountToLiquidate",
          "type": "uint256"
        },
        {
          "internalType": "uint256",
          "name": "_collateralToLiquidate",
          "type": "uint256"
        },
        {
          "internalType": "uint256",
          "name": "_feeLiquidated",
          "type": "uint256"
        },
        {
          "internalType": "uint256",
          "name": "_liquidatedCollateralForFee",
          "type": "uint256"
        },
        {
          "internalType": "uint256",
          "name": "_balanceIncrease",
          "type": "uint256"
        },
        {
          "internalType": "bool",
          "name": "_liquidatorReceivesIToken",
          "type": "bool"
        }
      ],
      "name": "updateStateOnLiquidation",
      "outputs": [],
      "payable": false,
      "stateMutability": "nonpayable",
      "type": "function"
    },
    {
      "constant": false,
      "inputs": [
        {
          "internalType": "address",
          "name": "_instrument",
          "type": "address"
        },
        {
          "internalType": "address",
          "name": "_user",
          "type": "address"
        },
        {
          "internalType": "uint256",
          "name": "_balanceIncrease",
          "type": "uint256"
        }
      ],
      "name": "updateStateOnRebalance",
      "outputs": [
        {
          "internalType": "uint256",
          "name": "",
          "type": "uint256"
        }
      ],
      "payable": false,
      "stateMutability": "nonpayable",
      "type": "function"
    },
    {
      "constant": false,
      "inputs": [
        {
          "internalType": "address",
          "name": "_instrument",
          "type": "address"
        },
        {
          "internalType": "address",
          "name": "_user",
          "type": "address"
        },
        {
          "internalType": "uint256",
          "name": "_amountRedeemed",
          "type": "uint256"
        },
        {
          "internalType": "bool",
          "name": "_userRedeemedEverything",
          "type": "bool"
        }
      ],
      "name": "updateStateOnRedeem",
      "outputs": [],
      "payable": false,
      "stateMutability": "nonpayable",
      "type": "function"
    },
    {
      "constant": false,
      "inputs": [
        {
          "internalType": "address",
          "name": "_instrument",
          "type": "address"
        },
        {
          "internalType": "address",
          "name": "_user",
          "type": "address"
        },
        {
          "internalType": "uint256",
          "name": "_paybackAmountMinusFees",
          "type": "uint256"
        },
        {
          "internalType": "uint256",
          "name": "_originationFeeRepaid",
          "type": "uint256"
        },
        {
          "internalType": "uint256",
          "name": "_balanceIncrease",
          "type": "uint256"
        },
        {
          "internalType": "bool",
          "name": "_repaidWholeLoan",
          "type": "bool"
        }
      ],
      "name": "updateStateOnRepay",
      "outputs": [],
      "payable": false,
      "stateMutability": "nonpayable",
      "type": "function"
    },
    {
      "constant": false,
      "inputs": [
        {
          "internalType": "address",
          "name": "_instrument",
          "type": "address"
        },
        {
          "internalType": "address",
          "name": "_user",
          "type": "address"
        },
        {
          "internalType": "uint256",
          "name": "_principalBorrowBalance",
          "type": "uint256"
        },
        {
          "internalType": "uint256",
          "name": "_compoundedBorrowBalance",
          "type": "uint256"
        },
        {
          "internalType": "uint256",
          "name": "_balanceIncrease",
          "type": "uint256"
        },
        {
          "internalType": "enum CoreLibrary.InterestRateMode",
          "name": "_currentRateMode",
          "type": "uint8"
        }
      ],
      "name": "updateStateOnSwapRate",
      "outputs": [
        {
          "internalType": "enum CoreLibrary.InterestRateMode",
          "name": "",
          "type": "uint8"
        },
        {
          "internalType": "uint256",
          "name": "",
          "type": "uint256"
        }
      ],
      "payable": false,
      "stateMutability": "nonpayable",
      "type": "function"
    },
    {
      "constant": false,
      "inputs": [
        {
          "internalType": "contract LendingPoolAddressesProvider",
          "name": "_addressesProvider",
          "type": "address"
        }
      ],
      "name": "initialize",
      "outputs": [],
      "payable": false,
      "stateMutability": "nonpayable",
      "type": "function"
    }
  ],
  "bytecode": "0x60806040526000805534801561001457600080fd5b5061586980620000256000396000f3fe60806040526004361061041a5760003560e01c8063959fc3e51161021e578063d3ae26b311610123578063f11c4594116100ab578063fbab24051161007a578063fbab240514611420578063fcfe58c814611453578063feab31ac1461148e578063ff6ad9d3146114c9578063ffa388b0146114f35761041a565b8063f11c4594146112eb578063f61483111461131e578063f6ea8d76146113a2578063fa93b2a5146113dd5761041a565b8063e2174d86116100f2578063e2174d86146111ac578063e6df474e146111ef578063ea84c1ba14611234578063ecc9e37214611267578063ee9c2281146112b05761041a565b8063d3ae26b3146110da578063da12d96f146110ef578063da90169014611146578063dc08d848146111795761041a565b8063c0e1dff7116101a6578063c72c4d1011610175578063c72c4d1014610fea578063c7d1423714610fff578063cc9334b21461103b578063d0c5554814611074578063d1c4c0fa146110a75761041a565b8063c0e1dff714610ef6578063c172350b14610f29578063c4d66de814610f5c578063c619adac14610f8f5761041a565b8063aafa6de0116101ed578063aafa6de014610db7578063aea3b07e14610dea578063af825b0714610e1d578063afcdbea314610e60578063bcd6ffa414610eab5761041a565b8063959fc3e514610cc55780639f15d5c614610cf85780639fb8afcd14610d2b578063a4637e7b14610d845761041a565b80633a80e0471161032457806366a3f18b116102ac5780636fffab0c1161027b5780636fffab0c14610bbb57806375d87acc14610bf6578063792a0feb14610c295780638bb3a3c414610c5c5780638f385c2214610c8f5761041a565b806366a3f18b14610aa957806366d103f314610ae2578063683775a214610b1d57806368beb4d614610b505761041a565b80635610992a116102f35780635610992a146109c057806356df9ca2146109fb5780635cfdd99414610a2e578063609cb28914610a615780636468108314610a945761041a565b80633a80e047146108da5780633c035866146109155780634375ddae1461094857806354e665621461098d5761041a565b806318a4dbca116103a75780632706e94e116103765780632706e94e1461079f57806328fcf4d3146107d25780632b0475e1146108085780632b169ae31461083b57806337ac6fe41461086e5761041a565b806318a4dbca1461069f5780631ca19f19146106da5780631f7dbbf614610739578063245720ec1461076c5761041a565b80630feb5d88116103ee5780630feb5d881461053857806310183a351461058757806311a92bd7146105ce5780631635717c14610607578063174ec5391461066c5761041a565b80624646f61461046057806307ce32a51461049957806309ac2953146104de5780630c7de4e914610523575b61042333611540565b61045e5760405162461bcd60e51b81526004018080602001828103825260368152602001806155e46036913960400191505060405180910390fd5b005b34801561046c57600080fd5b5061045e6004803603604081101561048357600080fd5b506001600160a01b03813516906020013561154a565b3480156104a557600080fd5b506104cc600480360360208110156104bc57600080fd5b50356001600160a01b031661161e565b60408051918252519081900360200190f35b3480156104ea57600080fd5b5061045e6004803603608081101561050157600080fd5b506001600160a01b03813516906020810135906040810135906060013561163c565b34801561052f57600080fd5b506104cc61170a565b34801561054457600080fd5b5061056b6004803603602081101561055b57600080fd5b50356001600160a01b031661170f565b604080516001600160a01b039092168252519081900360200190f35b34801561059357600080fd5b506105ba600480360360208110156105aa57600080fd5b50356001600160a01b0316611730565b604080519115158252519081900360200190f35b3480156105da57600080fd5b5061045e600480360360408110156105f157600080fd5b506001600160a01b038135169060200135611758565b34801561061357600080fd5b5061061c61182c565b60408051602080825283518183015283519192839290830191858101910280838360005b83811015610658578181015183820152602001610640565b505050509050019250505060405180910390f35b34801561067857600080fd5b5061045e6004803603602081101561068f57600080fd5b50356001600160a01b031661188e565b3480156106ab57600080fd5b506104cc600480360360408110156106c257600080fd5b506001600160a01b03813581169160200135166119bd565b3480156106e657600080fd5b50610715600480360360408110156106fd57600080fd5b506001600160a01b0381358116916020013516611a50565b6040518082600281111561072557fe5b60ff16815260200191505060405180910390f35b34801561074557600080fd5b5061045e6004803603602081101561075c57600080fd5b50356001600160a01b0316611aa5565b34801561077857600080fd5b506104cc6004803603602081101561078f57600080fd5b50356001600160a01b0316611b87565b3480156107ab57600080fd5b506105ba600480360360208110156107c257600080fd5b50356001600160a01b0316611ba8565b61045e600480360360608110156107e857600080fd5b506001600160a01b03813581169160208101359091169060400135611bd0565b34801561081457600080fd5b506104cc6004803603602081101561082b57600080fd5b50356001600160a01b0316611d9b565b34801561084757600080fd5b5061045e6004803603602081101561085e57600080fd5b50356001600160a01b0316611dc3565b34801561087a57600080fd5b506108c1600480360360a081101561089157600080fd5b5080356001600160a01b03908116916020810135909116906040810135906060810135906080013560ff16611fc8565b6040805192835260208301919091528051918290030190f35b3480156108e657600080fd5b5061045e600480360360408110156108fd57600080fd5b506001600160a01b0381351690602001351515612068565b34801561092157600080fd5b506104cc6004803603602081101561093857600080fd5b50356001600160a01b03166121a7565b34801561095457600080fd5b5061045e6004803603606081101561096b57600080fd5b506001600160a01b0381358116916020810135909116906040013515156121c5565b34801561099957600080fd5b506104cc600480360360208110156109b057600080fd5b50356001600160a01b0316612257565b3480156109cc57600080fd5b5061045e600480360360408110156109e357600080fd5b506001600160a01b0381358116916020013516612275565b348015610a0757600080fd5b5061045e60048036036020811015610a1e57600080fd5b50356001600160a01b031661235b565b348015610a3a57600080fd5b506104cc60048036036020811015610a5157600080fd5b50356001600160a01b0316612437565b348015610a6d57600080fd5b506104cc60048036036020811015610a8457600080fd5b50356001600160a01b03166124e7565b348015610aa057600080fd5b5061045e612505565b348015610ab557600080fd5b5061045e60048036036040811015610acc57600080fd5b506001600160a01b0381351690602001356125c4565b348015610aee57600080fd5b506104cc60048036036040811015610b0557600080fd5b506001600160a01b0381358116916020013516612698565b348015610b2957600080fd5b5061045e60048036036020811015610b4057600080fd5b50356001600160a01b03166126ce565b348015610b5c57600080fd5b5061045e6004803603610120811015610b7457600080fd5b506001600160a01b03813581169160208101358216916040820135169060608101359060808101359060a08101359060c08101359060e081013590610100013515156127aa565b348015610bc757600080fd5b506104cc60048036036040811015610bde57600080fd5b506001600160a01b038135811691602001351661284c565b348015610c0257600080fd5b506105ba60048036036020811015610c1957600080fd5b50356001600160a01b031661287b565b348015610c3557600080fd5b506104cc60048036036020811015610c4c57600080fd5b50356001600160a01b03166128a3565b348015610c6857600080fd5b506105ba60048036036020811015610c7f57600080fd5b50356001600160a01b03166128dc565b61045e60048036036060811015610ca557600080fd5b506001600160a01b03813581169160208101359160409091013516612904565b348015610cd157600080fd5b506104cc60048036036020811015610ce857600080fd5b50356001600160a01b0316612a20565b348015610d0457600080fd5b506104cc60048036036020811015610d1b57600080fd5b50356001600160a01b0316612a3b565b348015610d3757600080fd5b50610d6660048036036040811015610d4e57600080fd5b506001600160a01b0381358116916020013516612adf565b60408051938452602084019290925282820152519081900360600190f35b348015610d9057600080fd5b5061045e60048036036020811015610da757600080fd5b50356001600160a01b0316612b6a565b348015610dc357600080fd5b5061056b60048036036020811015610dda57600080fd5b50356001600160a01b0316612c46565b348015610df657600080fd5b506104cc60048036036020811015610e0d57600080fd5b50356001600160a01b0316612c67565b348015610e2957600080fd5b506104cc60048036036060811015610e4057600080fd5b506001600160a01b03813581169160208101359091169060400135612d8f565b348015610e6c57600080fd5b5061045e60048036036080811015610e8357600080fd5b506001600160a01b038135811691602081013590911690604081013590606001351515612e2e565b348015610eb757600080fd5b5061045e60048036036080811015610ece57600080fd5b506001600160a01b038135811691602081013590911690604081013590606001351515612eb6565b348015610f0257600080fd5b5061045e60048036036020811015610f1957600080fd5b50356001600160a01b0316612f3e565b348015610f3557600080fd5b506104cc60048036036020811015610f4c57600080fd5b50356001600160a01b0316613020565b348015610f6857600080fd5b5061045e60048036036020811015610f7f57600080fd5b50356001600160a01b031661303e565b348015610f9b57600080fd5b50610fc260048036036020811015610fb257600080fd5b50356001600160a01b03166130fd565b6040805194855260208501939093528383019190915215156060830152519081900360800190f35b348015610ff657600080fd5b5061056b61313b565b61045e6004803603608081101561101557600080fd5b506001600160a01b0381358116916020810135821691604082013591606001351661314a565b34801561104757600080fd5b5061045e6004803603604081101561105e57600080fd5b506001600160a01b0381351690602001356132f4565b34801561108057600080fd5b506105ba6004803603602081101561109757600080fd5b50356001600160a01b03166133c8565b3480156110b357600080fd5b506104cc600480360360208110156110ca57600080fd5b50356001600160a01b03166133f0565b3480156110e657600080fd5b5061056b61345a565b3480156110fb57600080fd5b5061045e600480360360c081101561111257600080fd5b506001600160a01b03813581169160208101359091169060408101359060608101359060808101359060a001351515613469565b34801561115257600080fd5b5061045e6004803603602081101561116957600080fd5b50356001600160a01b03166134d8565b34801561118557600080fd5b506104cc6004803603602081101561119c57600080fd5b50356001600160a01b031661360b565b3480156111b857600080fd5b506105ba600480360360608110156111cf57600080fd5b506001600160a01b03813581169160208101359091169060400135613629565b3480156111fb57600080fd5b5061045e6004803603608081101561121257600080fd5b506001600160a01b0381351690602081013590604081013590606001356136bf565b34801561124057600080fd5b5061045e6004803603602081101561125757600080fd5b50356001600160a01b031661380d565b34801561127357600080fd5b5061045e6004803603608081101561128a57600080fd5b506001600160a01b03813581169160208101358216916040820135916060013516613928565b3480156112bc57600080fd5b506105ba600480360360408110156112d357600080fd5b506001600160a01b0381358116916020013516613a7c565b3480156112f757600080fd5b506104cc6004803603602081101561130e57600080fd5b50356001600160a01b0316613ab5565b34801561132a57600080fd5b50611377600480360360c081101561134157600080fd5b5080356001600160a01b039081169160208101359091169060408101359060608101359060808101359060a0013560ff16613ad3565b6040518083600281111561138757fe5b60ff1681526020018281526020019250505060405180910390f35b3480156113ae57600080fd5b506104cc600480360360408110156113c557600080fd5b506001600160a01b0381358116916020013516613b65565b3480156113e957600080fd5b5061045e6004803603606081101561140057600080fd5b506001600160a01b03813581169160208101359091169060400135613b94565b34801561142c57600080fd5b506104cc6004803603602081101561144357600080fd5b50356001600160a01b0316613cbb565b34801561145f57600080fd5b50610fc26004803603604081101561147657600080fd5b506001600160a01b0381358116916020013516613cd9565b34801561149a57600080fd5b506104cc600480360360408110156114b157600080fd5b506001600160a01b0381358116916020013516613d86565b3480156114d557600080fd5b5061056b600480360360208110156114ec57600080fd5b5035613db5565b3480156114ff57600080fd5b506115266004803603602081101561151657600080fd5b50356001600160a01b0316613ddc565b6040805164ffffffffff9092168252519081900360200190f35b803b15155b919050565b603454604080516385c858b160e01b8152905133926001600160a01b0316916385c858b1916004808301926020929190829003018186803b15801561158e57600080fd5b505afa1580156115a2573d6000803e3d6000fd5b505050506040513d60208110156115b857600080fd5b50516001600160a01b0316146115ff5760405162461bcd60e51b81526004018080602001828103825260378152602001806156f56037913960400191505060405180910390fd5b6001600160a01b03909116600090815260376020526040902060080155565b6001600160a01b031660009081526037602052604090206007015490565b6035546001600160a01b031633146116855760405162461bcd60e51b815260040180806020018281038252602a81526020018061577b602a913960400191505060405180910390fd5b61168f8482613e08565b6001600160a01b03841660009081526037602052604090206116b090613eeb565b60006116cb6116be86611b87565b859063ffffffff613f8316565b6001600160a01b03861660009081526037602052604090209091506116f790828563ffffffff613fdd16565b6117038584600061403b565b5050505050565b600481565b6001600160a01b039081166000908152603760205260409020600d01541690565b6001600160a01b03166000908152603760205260409020600d0154600160c81b900460ff1690565b603454604080516385c858b160e01b8152905133926001600160a01b0316916385c858b1916004808301926020929190829003018186803b15801561179c57600080fd5b505afa1580156117b0573d6000803e3d6000fd5b505050506040513d60208110156117c657600080fd5b50516001600160a01b03161461180d5760405162461bcd60e51b81526004018080602001828103825260378152602001806156f56037913960400191505060405180910390fd5b6001600160a01b03909116600090815260376020526040902060090155565b6060603680548060200260200160405190810160405280929190818152602001828054801561188457602002820191906000526020600020905b81546001600160a01b03168152600190910190602001808311611866575b5050505050905090565b603454604080516385c858b160e01b8152905133926001600160a01b0316916385c858b1916004808301926020929190829003018186803b1580156118d257600080fd5b505afa1580156118e6573d6000803e3d6000fd5b505050506040513d60208110156118fc57600080fd5b50516001600160a01b0316146119435760405162461bcd60e51b81526004018080602001828103825260378152602001806156f56037913960400191505060405180910390fd5b6001600160a01b0381166000908152603760205260408082208151630ea746e560e41b81526004810191909152905173__CoreLibrary___________________________9263ea746e509260248082019391829003018186803b1580156119a957600080fd5b505af4158015611703573d6000803e3d6000fd5b6001600160a01b038083166000908152603760209081526040808320600c015481516370a0823160e01b8152868616600482015291519394169283926370a082319260248082019391829003018186803b158015611a1a57600080fd5b505afa158015611a2e573d6000803e3d6000fd5b505050506040513d6020811015611a4457600080fd5b50519150505b92915050565b6001600160a01b03808216600090815260386020908152604080832093861683529290529081208054611a87576000915050611a4a565b6000816003015411611a9a576002611a9d565b60015b949350505050565b603454604080516385c858b160e01b8152905133926001600160a01b0316916385c858b1916004808301926020929190829003018186803b158015611ae957600080fd5b505afa158015611afd573d6000803e3d6000fd5b505050506040513d6020811015611b1357600080fd5b50516001600160a01b031614611b5a5760405162461bcd60e51b81526004018080602001828103825260378152602001806156f56037913960400191505060405180910390fd5b6001600160a01b03166000908152603760205260409020600d01805460ff60e81b1916600160e81b179055565b6001600160a01b0381166000908152603760205260408120611a4a9061407c565b6001600160a01b03166000908152603760205260409020600d0154600160e01b900460ff1690565b6035546001600160a01b03163314611c195760405162461bcd60e51b815260040180806020018281038252602a81526020018061577b602a913960400191505060405180910390fd5b611c21614099565b6001600160a01b0316836001600160a01b031614611c96573415611c765760405162461bcd60e51b815260040180806020018281038252603281526020018061563d6032913960400191505060405180910390fd5b611c916001600160a01b03841683308463ffffffff6140b116565b611d96565b80341015611cd55760405162461bcd60e51b81526004018080602001828103825260358152602001806155af6035913960400191505060405180910390fd5b80341115611d96576000611cef348363ffffffff61410b16565b6040519091506000906001600160a01b0385169061c35090849084818181858888f193505050503d8060008114611d42576040519150601f19603f3d011682016040523d82523d6000602084013e611d47565b606091505b5050905080611703576040805162461bcd60e51b8152602060048201526016602482015275151c985b9cd9995c881bd9881155120819985a5b195960521b604482015290519081900360640190fd5b505050565b6001600160a01b0381166000908152603760205260408120611dbc8161414d565b9392505050565b603454604080516385c858b160e01b8152905133926001600160a01b0316916385c858b1916004808301926020929190829003018186803b158015611e0757600080fd5b505afa158015611e1b573d6000803e3d6000fd5b505050506040513d6020811015611e3157600080fd5b50516001600160a01b031614611e785760405162461bcd60e51b81526004018080602001828103825260378152602001806156f56037913960400191505060405180910390fd5b60368054600091906000198101908110611e8e57fe5b6000918252602090912001546001600160a01b03908116915082168114611ee65760405162461bcd60e51b81526004018080602001828103825260438152602001806157f26043913960600191505060405180910390fd5b611eef81611b87565b15611f2b5760405162461bcd60e51b815260040180806020018281038252603481526020018061557b6034913960400191505060405180910390fd5b6001600160a01b0381166000908152603760205260408120600d81018054600c830180546001600160a01b0319169055600b8301849055838355600783018490556008830184905560098301849055600a90920192909255600168ff00ffff000000000160a01b03191690556036805480611fa257fe5b600082815260209020810160001990810180546001600160a01b03191690550190555050565b60355460009081906001600160a01b031633146120165760405162461bcd60e51b815260040180806020018281038252602a81526020018061577b602a913960400191505060405180910390fd5b6000806120238989612adf565b9250509150612036898984848b8a614187565b612044898989848a8a6141b6565b6120508960008961403b565b61205a89896142db565b999098509650505050505050565b603454604080516385c858b160e01b8152905133926001600160a01b0316916385c858b1916004808301926020929190829003018186803b1580156120ac57600080fd5b505afa1580156120c0573d6000803e3d6000fd5b505050506040513d60208110156120d657600080fd5b50516001600160a01b03161461211d5760405162461bcd60e51b81526004018080602001828103825260378152602001806156f56037913960400191505060405180910390fd5b6001600160a01b0382166000908152603760205260408082208151633994c3f760e11b815260048101919091528315156024820152905173__CoreLibrary___________________________9263732987ee9260448082019391829003018186803b15801561218b57600080fd5b505af415801561219f573d6000803e3d6000fd5b505050505050565b6001600160a01b031660009081526037602052604090206001015490565b6035546001600160a01b0316331461220e5760405162461bcd60e51b815260040180806020018281038252602a81526020018061577b602a913960400191505060405180910390fd5b6001600160a01b0391821660009081526038602090815260408083209590941682529390935291206004018054911515600160281b0265ff000000000019909216919091179055565b6001600160a01b031660009081526037602052604090206003015490565b603454604080516385c858b160e01b8152905133926001600160a01b0316916385c858b1916004808301926020929190829003018186803b1580156122b957600080fd5b505afa1580156122cd573d6000803e3d6000fd5b505050506040513d60208110156122e357600080fd5b50516001600160a01b03161461232a5760405162461bcd60e51b81526004018080602001828103825260378152602001806156f56037913960400191505060405180910390fd5b6001600160a01b039182166000908152603760205260409020600d0180546001600160a01b03191691909216179055565b603454604080516385c858b160e01b8152905133926001600160a01b0316916385c858b1916004808301926020929190829003018186803b15801561239f57600080fd5b505afa1580156123b3573d6000803e3d6000fd5b505050506040513d60208110156123c957600080fd5b50516001600160a01b0316146124105760405162461bcd60e51b81526004018080602001828103825260378152602001806156f56037913960400191505060405180910390fd5b6001600160a01b03166000908152603760205260409020600d01805460ff60e01b19169055565b6001600160a01b038116600090815260376020526040812060048101546124dd5780600d0160009054906101000a90046001600160a01b03166001600160a01b03166334762ca56040518163ffffffff1660e01b815260040160206040518083038186803b1580156124a857600080fd5b505afa1580156124bc573d6000803e3d6000fd5b505050506040513d60208110156124d257600080fd5b505191506115459050565b6004015492915050565b6001600160a01b031660009081526037602052604090206009015490565b603454604080516385c858b160e01b8152905133926001600160a01b0316916385c858b1916004808301926020929190829003018186803b15801561254957600080fd5b505afa15801561255d573d6000803e3d6000fd5b505050506040513d602081101561257357600080fd5b50516001600160a01b0316146125ba5760405162461bcd60e51b81526004018080602001828103825260378152602001806156f56037913960400191505060405180910390fd5b6125c261436d565b565b603454604080516385c858b160e01b8152905133926001600160a01b0316916385c858b1916004808301926020929190829003018186803b15801561260857600080fd5b505afa15801561261c573d6000803e3d6000fd5b505050506040513d602081101561263257600080fd5b50516001600160a01b0316146126795760405162461bcd60e51b81526004018080602001828103825260378152602001806156f56037913960400191505060405180910390fd5b6001600160a01b039091166000908152603760205260409020600a0155565b6001600160a01b0390811660009081526038602090815260408083209490931682529290925290206004015464ffffffffff1690565b603454604080516385c858b160e01b8152905133926001600160a01b0316916385c858b1916004808301926020929190829003018186803b15801561271257600080fd5b505afa158015612726573d6000803e3d6000fd5b505050506040513d602081101561273c57600080fd5b50516001600160a01b0316146127835760405162461bcd60e51b81526004018080602001828103825260378152602001806156f56037913960400191505060405180910390fd5b6001600160a01b03166000908152603760205260409020600d01805460ff60d81b19169055565b6035546001600160a01b031633146127f35760405162461bcd60e51b815260040180806020018281038252602a81526020018061577b602a913960400191505060405180910390fd5b6127ff89888885614408565b612808886144c1565b61281589888887866144e5565b6128218987600061403b565b806128415761284188600061283c888763ffffffff613f8316565b61403b565b505050505050505050565b6001600160a01b0380821660009081526038602090815260408083209386168352929052206003015492915050565b6001600160a01b03166000908152603760205260409020600d0154600160d81b900460ff1690565b6001600160a01b0381166000908152603760205260408120611dbc6128c78261407c565b6128d085612a3b565b9063ffffffff613f8316565b6001600160a01b03166000908152603760205260409020600d0154600160e81b900460ff1690565b6035546001600160a01b0316331461294d5760405162461bcd60e51b815260040180806020018281038252602a81526020018061577b602a913960400191505060405180910390fd5b80341561298b5760405162461bcd60e51b81526004018080602001828103825260368152602001806154f56036913960400191505060405180910390fd5b612993614099565b6001600160a01b0316846001600160a01b0316146129ca576129c56001600160a01b038516828563ffffffff6145a316565b612a1a565b6040516000906001600160a01b0383169061c35090869084818181858888f193505050503d8060008114611d42576040519150601f19603f3d011682016040523d82523d6000602084013e611d47565b50505050565b6001600160a01b031660009081526037602052604090205490565b600080612a46614099565b6001600160a01b0316836001600160a01b03161415612a66575047611a4a565b604080516370a0823160e01b815230600482015290516001600160a01b038516916370a08231916024808301926020929190829003018186803b158015612aac57600080fd5b505afa158015612ac0573d6000803e3d6000fd5b505050506040513d6020811015612ad657600080fd5b50519392505050565b6001600160a01b0380821660009081526038602090815260408083209386168352929052908120805482918291612b20575060009250829150819050612b63565b80546001600160a01b0387166000908152603760205260408120612b459084906145f5565b90508181612b59818363ffffffff61410b16565b9550955095505050505b9250925092565b603454604080516385c858b160e01b8152905133926001600160a01b0316916385c858b1916004808301926020929190829003018186803b158015612bae57600080fd5b505afa158015612bc2573d6000803e3d6000fd5b505050506040513d6020811015612bd857600080fd5b50516001600160a01b031614612c1f5760405162461bcd60e51b81526004018080602001828103825260378152602001806156f56037913960400191505060405180910390fd5b6001600160a01b03166000908152603760205260409020600d01805460ff60e81b19169055565b6001600160a01b039081166000908152603760205260409020600c01541690565b6001600160a01b0380821660009081526037602090815260408083206034548251631b0c55dd60e11b815292519495919486949190921692633618abba9260048083019392829003018186803b158015612cc057600080fd5b505afa158015612cd4573d6000803e3d6000fd5b505050506040513d6020811015612cea57600080fd5b50516005830154909150612d8457806001600160a01b031663bb85c0bb856040518263ffffffff1660e01b815260040180826001600160a01b03166001600160a01b0316815260200191505060206040518083038186803b158015612d4e57600080fd5b505afa158015612d62573d6000803e3d6000fd5b505050506040513d6020811015612d7857600080fd5b50519250611545915050565b506005015492915050565b6035546000906001600160a01b03163314612ddb5760405162461bcd60e51b815260040180806020018281038252602a81526020018061577b602a913960400191505060405180910390fd5b612de68484846146db565b612df184848461472b565b612dfd8460008061403b565b506001600160a01b038083166000908152603860209081526040808320938716835292905220600301549392505050565b6035546001600160a01b03163314612e775760405162461bcd60e51b815260040180806020018281038252602a81526020018061577b602a913960400191505060405180910390fd5b6001600160a01b0384166000908152603760205260409020612e9890613eeb565b612ea48460008461403b565b8015612a1a57612a1a848460006121c5565b6035546001600160a01b03163314612eff5760405162461bcd60e51b815260040180806020018281038252602a81526020018061577b602a913960400191505060405180910390fd5b6001600160a01b0384166000908152603760205260409020612f2090613eeb565b612f2c8483600061403b565b8015612a1a57612a1a848460016121c5565b603454604080516385c858b160e01b8152905133926001600160a01b0316916385c858b1916004808301926020929190829003018186803b158015612f8257600080fd5b505afa158015612f96573d6000803e3d6000fd5b505050506040513d6020811015612fac57600080fd5b50516001600160a01b031614612ff35760405162461bcd60e51b81526004018080602001828103825260378152602001806156f56037913960400191505060405180910390fd5b6001600160a01b03166000908152603760205260409020600d01805460ff60d81b1916600160d81b179055565b6001600160a01b031660009081526037602052604090206002015490565b6000613048614794565b60015490915060ff168061305f575061305f614799565b8061306b575060005481115b6130a65760405162461bcd60e51b815260040180806020018281038252602e81526020018061574d602e913960400191505060405180910390fd5b60015460ff161580156130c5576001805460ff19168117905560008290555b603480546001600160a01b0319166001600160a01b0385161790556130e861436d565b8015611d96576001805460ff19169055505050565b6001600160a01b03166000908152603760205260409020600b81015460088201546009830154600d909301549193909291600160d01b900460ff1690565b6034546001600160a01b031681565b6035546001600160a01b031633146131935760405162461bcd60e51b815260040180806020018281038252602a81526020018061577b602a913960400191505060405180910390fd5b8061319c614099565b6001600160a01b0316856001600160a01b0316146132115734156131f15760405162461bcd60e51b815260040180806020018281038252605f815260200180615696605f913960600191505060405180910390fd5b61320c6001600160a01b03861685838663ffffffff6140b116565b611703565b823410156132505760405162461bcd60e51b81526004018080602001828103825260358152602001806155af6035913960400191505060405180910390fd5b6040516000906001600160a01b0383169061c35090869084818181858888f193505050503d80600081146132a0576040519150601f19603f3d011682016040523d82523d6000602084013e6132a5565b606091505b505090508061219f576040805162461bcd60e51b8152602060048201526016602482015275151c985b9cd9995c881bd9881155120819985a5b195960521b604482015290519081900360640190fd5b603454604080516385c858b160e01b8152905133926001600160a01b0316916385c858b1916004808301926020929190829003018186803b15801561333857600080fd5b505afa15801561334c573d6000803e3d6000fd5b505050506040513d602081101561336257600080fd5b50516001600160a01b0316146133a95760405162461bcd60e51b81526004018080602001828103825260378152602001806156f56037913960400191505060405180910390fd5b6001600160a01b039091166000908152603760205260409020600b0155565b6001600160a01b03166000908152603760205260409020600d0154600160d01b900460ff1690565b6001600160a01b0381166000908152603760205260408120816134128261407c565b90508061342457600092505050611545565b600061342f85612a3b565b9050613451613444828463ffffffff613f8316565b839063ffffffff61479f16565b95945050505050565b6035546001600160a01b031681565b6035546001600160a01b031633146134b25760405162461bcd60e51b815260040180806020018281038252602a81526020018061577b602a913960400191505060405180910390fd5b6134be868686856147db565b6134cc86868686868661483f565b61219f8685600061403b565b603454604080516385c858b160e01b8152905133926001600160a01b0316916385c858b1916004808301926020929190829003018186803b15801561351c57600080fd5b505afa158015613530573d6000803e3d6000fd5b505050506040513d602081101561354657600080fd5b50516001600160a01b03161461358d5760405162461bcd60e51b81526004018080602001828103825260378152602001806156f56037913960400191505060405180910390fd5b6001600160a01b03811660009081526037602052604090208054158015906135b9575060008160070154115b6135f45760405162461bcd60e51b815260040180806020018281038252602781526020018061566f6027913960400191505060405180910390fd5b600d01805460ff60e01b1916600160e01b17905550565b6001600160a01b03166000908152603760205260409020600b015490565b6001600160a01b038381166000818152603760209081526040808320948716835260388252808320938352929052908120600d830154919291600160d81b900460ff1661367b57600092505050611dbc565b6004810154600160281b900460ff1615806136a25750600d820154600160d01b900460ff16155b806136b557506136b286866119bd565b84115b9695505050505050565b603454604080516385c858b160e01b8152905133926001600160a01b0316916385c858b1916004808301926020929190829003018186803b15801561370357600080fd5b505afa158015613717573d6000803e3d6000fd5b505050506040513d602081101561372d57600080fd5b50516001600160a01b0316146137745760405162461bcd60e51b81526004018080602001828103825260378152602001806156f56037913960400191505060405180910390fd5b6001600160a01b038416600090815260376020526040808220815163897c124760e01b81526004810191909152602481018690526044810185905260648101849052905173__CoreLibrary___________________________9263897c12479260848082019391829003018186803b1580156137ef57600080fd5b505af4158015613803573d6000803e3d6000fd5b5050505050505050565b603454604080516385c858b160e01b8152905133926001600160a01b0316916385c858b1916004808301926020929190829003018186803b15801561385157600080fd5b505afa158015613865573d6000803e3d6000fd5b505050506040513d602081101561387b57600080fd5b50516001600160a01b0316146138c25760405162461bcd60e51b81526004018080602001828103825260378152602001806156f56037913960400191505060405180910390fd5b6001600160a01b038116600090815260376020526040808220815163df5d411360e01b81526004810191909152905173__CoreLibrary___________________________9263df5d41139260248082019391829003018186803b1580156119a957600080fd5b603454604080516385c858b160e01b8152905133926001600160a01b0316916385c858b1916004808301926020929190829003018186803b15801561396c57600080fd5b505afa158015613980573d6000803e3d6000fd5b505050506040513d602081101561399657600080fd5b50516001600160a01b0316146139dd5760405162461bcd60e51b81526004018080602001828103825260378152602001806156f56037913960400191505060405180910390fd5b6001600160a01b03808516600090815260376020526040808220815163710d44ed60e11b8152600481019190915286841660248201526044810186905292841660648401525173__CoreLibrary___________________________9263e21a89da926084808301939192829003018186803b158015613a5b57600080fd5b505af4158015613a6f573d6000803e3d6000fd5b50505050612a1a846148bc565b6001600160a01b03908116600090815260386020908152604080832094909316825292909252902060040154600160281b900460ff1690565b6001600160a01b03166000908152603760205260409020600a015490565b60355460009081906001600160a01b03163314613b215760405162461bcd60e51b815260040180806020018281038252602a81526020018061577b602a913960400191505060405180910390fd5b613b2e8888888887614960565b6000613b3c89898787614a5f565b9050613b4a8960008061403b565b80613b558a8a6142db565b9250925050965096945050505050565b6001600160a01b0380821660009081526038602090815260408083209386168352929052206001015492915050565b6035546001600160a01b03163314613bdd5760405162461bcd60e51b815260040180806020018281038252602a81526020018061577b602a913960400191505060405180910390fd5b613be5614099565b6001600160a01b0316836001600160a01b031614613c1757611c916001600160a01b038416838363ffffffff6145a316565b6040516000906001600160a01b0384169061c35090849084818181858888f193505050503d8060008114613c67576040519150601f19603f3d011682016040523d82523d6000602084013e613c6c565b606091505b5050905080612a1a576040805162461bcd60e51b8152602060048201526016602482015275151c985b9cd9995c881bd9881155120819985a5b195960521b604482015290519081900360640190fd5b6001600160a01b031660009081526037602052604090206006015490565b6001600160a01b038083166000818152603760209081526040808320948616835260388252808320938352929052908120909182918291829182613d1d89896119bd565b8254909150613d4a576004909101549095506000945084935060ff600160281b909104169150613d7d9050565b80613d5b838563ffffffff6145f516565b6002840154600490940154919850965091945050600160281b900460ff169150505b92959194509250565b6001600160a01b0380821660009081526038602090815260408083209386168352929052206002015492915050565b60368181548110613dc257fe5b6000918252602090912001546001600160a01b0316905081565b6001600160a01b03166000908152603760205260409020600d0154600160a01b900464ffffffffff1690565b60345460408051637744894b60e11b815290516000926001600160a01b03169163ee891296916004808301926020929190829003018186803b158015613e4d57600080fd5b505afa158015613e61573d6000803e3d6000fd5b505050506040513d6020811015613e7757600080fd5b50519050613e83614099565b6001600160a01b0316836001600160a01b031614613eb557611c916001600160a01b038416828463ffffffff6145a316565b6040516001600160a01b0382169083156108fc029084906000818181858888f19350505050158015612a1a573d6000803e3d6000fd5b6000613ef68261407c565b90508015613f7f576001820154600d830154600091613f2291600160a01b900464ffffffffff16614b5d565b8354909150613f3890829063ffffffff614ba816565b83556004830154600d840154600091613f5e91600160a01b900464ffffffffff16614be0565b9050613f77846007015482614ba890919063ffffffff16565b600785015550505b5050565b600082820183811015611dbc576040805162461bcd60e51b815260206004820152601b60248201527f536166654d6174683a206164646974696f6e206f766572666c6f770000000000604482015290519081900360640190fd5b6000614000613feb84614c2f565b613ff484614c2f565b9063ffffffff61479f16565b9050600061401c61400f614c45565b839063ffffffff613f8316565b855490915061403290829063ffffffff614ba816565b90945550505050565b614046838383614c55565b61404e614794565b6040517fb362f715591e6551ba78917a287fa286eed1ded21d619b267911b67f595af1c990600090a2505050565b6000611a4a82600301548360020154613f8390919063ffffffff16565b73eeeeeeeeeeeeeeeeeeeeeeeeeeeeeeeeeeeeeeee90565b604080516001600160a01b0385811660248301528416604482015260648082018490528251808303909101815260849091019091526020810180516001600160e01b03166323b872dd60e01b179052612a1a908590614de2565b6000611dbc83836040518060400160405280601e81526020017f536166654d6174683a207375627472616374696f6e206f766572666c6f770000815250614f9a565b600080611dbc836000015461417b856001015486600d0160149054906101000a900464ffffffffff16614b5d565b9063ffffffff614ba816565b6001600160a01b03861660009081526037602052604090206141a890613eeb565b61219f868686868686615031565b6001600160a01b038087166000818152603760209081526040808320948a168352603882528083209383529290522060018360028111156141f357fe5b141561420f576005820154600382015560006001820155614286565b600283600281111561421d57fe5b1415614239576000600382015560078201546001820155614286565b6040805162461bcd60e51b815260206004820152601860248201527f496e76616c696420626f72726f772072617465206d6f64650000000000000000604482015290519081900360640190fd5b805461429e9086906128d0908963ffffffff613f8316565b815560028101546142b5908563ffffffff613f8316565b6002820155600401805464ffffffffff19164264ffffffffff1617905550505050505050565b6000806142e88484611a50565b905060008160028111156142f857fe5b1415614308576000915050611a4a565b600181600281111561431657fe5b1461433c576001600160a01b038416600090815260376020526040902060040154611a9d565b50506001600160a01b0390811660009081526038602090815260408083209490931682529290925290206003015490565b603460009054906101000a90046001600160a01b03166001600160a01b0316630261bf8b6040518163ffffffff1660e01b815260040160206040518083038186803b1580156143bb57600080fd5b505afa1580156143cf573d6000803e3d6000fd5b505050506040513d60208110156143e557600080fd5b5051603580546001600160a01b0319166001600160a01b03909216919091179055565b6001600160a01b0380851660008181526037602090815260408083209488168352603882528083209383529290522061444082613eeb565b600061444c8787611a50565b905060015b81600281111561445d57fe5b141561449857600382015461447b908490869063ffffffff61518d16565b6003820154614493908490879063ffffffff6151fd16565b6144b8565b6144a8838563ffffffff61530816565b6144b8838663ffffffff61532916565b50505050505050565b6001600160a01b03811660009081526037602052604090206144e290613eeb565b50565b6001600160a01b03808516600090815260386020908152604080832093891683529281528282206037909152919020815461453890869061452c908663ffffffff613f8316565b9063ffffffff61410b16565b825560026145468888611a50565b600281111561455157fe5b141561456257600781015460018301555b831561458357600282015461457d908563ffffffff61410b16565b60028301555b50600401805464ffffffffff19164264ffffffffff161790555050505050565b604080516001600160a01b038416602482015260448082018490528251808303909101815260649091019091526020810180516001600160e01b031663a9059cbb60e01b179052611d96908490614de2565b815460009061460657506000611a4a565b60006146158460000154614c2f565b60038501549091506000908190156146495760038601546004870154614642919064ffffffffff16614be0565b905061467f565b61467c8660010154613ff4876007015461417b89600401548a600d0160149054906101000a900464ffffffffff16614be0565b90505b614697614692848363ffffffff614ba816565b615381565b86549092508214156146d257600486015464ffffffffff1642146146d25785546146c890600163ffffffff613f8316565b9350505050611a4a565b50949350505050565b6001600160a01b0380841660008181526037602090815260408083209487168352603882528083209383529290522061471382613eeb565b6003810154611703908390859063ffffffff61518d16565b6001600160a01b03808316600090815260386020908152604080832093871683529281528282206037909152919020815461476c908463ffffffff613f8316565b8255600501546003820155600401805464ffffffffff19164264ffffffffff16179055505050565b600590565b303b1590565b600060028204611a9d836147cf6147c2876b033b2e3c9fd0803ce800000061539a565b849063ffffffff613f8316565b9063ffffffff6153f316565b6001600160a01b038085166000908152603760209081526040808320603883528184209488168452939091528120906148148787611a50565b6001600160a01b038816600090815260376020526040902090915061483890613eeb565b6001614451565b6001600160a01b038087166000818152603760209081526040808320948a1683526038825280832093835292905220805461488690879061452c908763ffffffff613f8316565b81556007820154600182015582156148a75760006003820181905560018201555b60028101546142b5908663ffffffff61410b16565b6000805b60365481101561490957826001600160a01b0316603682815481106148e157fe5b6000918252602090912001546001600160a01b0316141561490157600191505b6001016148c0565b5080613f7f57603680546001810182556000919091527f4a11f94e20a93c79f6ec743a1954ec4fc2c08429ae2122118bf234b2185c81b80180546001600160a01b0384166001600160a01b03199091161790555050565b6001600160a01b0380861660008181526037602090815260408083209489168352603882528083209383529290522061499882613eeb565b60018360028111156149a657fe5b14156149d85760038101546149c283878363ffffffff6151fd16565b6149d2838663ffffffff61530816565b506144b8565b60028360028111156149e657fe5b1415614a12576005820154614a01838763ffffffff61532916565b6149d283868363ffffffff61518d16565b6040805162461bcd60e51b815260206004820152601a60248201527f496e76616c69642072617465206d6f6465207265636569766564000000000000604482015290519081900360640190fd5b6001600160a01b03808416600090815260386020908152604080832093881683529281528282206037909152918120909190826002856002811115614aa057fe5b1415614ac15750600581015460038301556000600183810191909155614b25565b6001856002811115614acf57fe5b1415614aee575060006003830155600781015460018301556002614b25565b60405162461bcd60e51b81526004018080602001828103825260238152602001806157a56023913960400191505060405180910390fd5b8254614b37908763ffffffff613f8316565b83556004909201805464ffffffffff19164264ffffffffff161790555095945050505050565b600080614b774264ffffffffff851663ffffffff61410b16565b90506000614b8b613feb6301e13380614c2f565b9050613451614b98614c45565b6128d0878463ffffffff614ba816565b6000611dbc6b033b2e3c9fd0803ce80000006147cf614bcd868663ffffffff61539a16565b6b019d971e4fe8401e7400000090613f83565b600080614bfa4264ffffffffff851663ffffffff61410b16565b90506000614c12856301e1338063ffffffff6153f316565b905061345182614c236147c2614c45565b9063ffffffff61543516565b6000611a4a82633b9aca0063ffffffff61539a16565b6b033b2e3c9fd0803ce800000090565b6001600160a01b038084166000908152603760205260408120600d810154909282918291166357e37af088614c918861452c8b6128d085612a3b565b8760020154886003015489600601546040518663ffffffff1660e01b815260040180866001600160a01b03166001600160a01b031681526020018581526020018481526020018381526020018281526020019550505050505060606040518083038186803b158015614d0257600080fd5b505afa158015614d16573d6000803e3d6000fd5b505050506040513d6060811015614d2c57600080fd5b508051602080830151604093840151600189018490556005890182905560048901819055600d8901805464ffffffffff4216600160a01b0264ffffffffff60a01b19909116179055885460078a0154865186815294850184905284870183905260608501919091526080840152935192965094509192506001600160a01b038916917f0f05e03f4cc9c1680881783f4b8e7205df99a05cb3fd1523dc96c8c34d91e62f919081900360a00190a250505050505050565b614df4826001600160a01b0316611540565b614e45576040805162461bcd60e51b815260206004820152601f60248201527f5361666545524332303a2063616c6c20746f206e6f6e2d636f6e747261637400604482015290519081900360640190fd5b60006060836001600160a01b0316836040518082805190602001908083835b60208310614e835780518252601f199092019160209182019101614e64565b6001836020036101000a0380198251168184511680821785525050505050509050019150506000604051808303816000865af19150503d8060008114614ee5576040519150601f19603f3d011682016040523d82523d6000602084013e614eea565b606091505b509150915081614f41576040805162461bcd60e51b815260206004820181905260248201527f5361666545524332303a206c6f772d6c6576656c2063616c6c206661696c6564604482015290519081900360640190fd5b805115612a1a57808060200190516020811015614f5d57600080fd5b5051612a1a5760405162461bcd60e51b815260040180806020018281038252602a8152602001806157c8602a913960400191505060405180910390fd5b600081848411156150295760405162461bcd60e51b81526004018080602001828103825283818151815260200191508051906020019080838360005b83811015614fee578181015183820152602001614fd6565b50505050905090810190601f16801561501b5780820380516001836020036101000a031916815260200191505b509250505060405180910390fd5b505050900390565b600061503d8787611a50565b6001600160a01b0388166000908152603760205260409020909150600182600281111561506657fe5b14156150af576001600160a01b038088166000908152603860209081526040808320938c1683529290522060038101546150a9908390899063ffffffff6151fd16565b506150d3565b60028260028111156150bd57fe5b14156150d3576150d3818763ffffffff61532916565b60006150e9856128d0898963ffffffff613f8316565b905060018460028111156150f957fe5b141561511c576005820154615117908390839063ffffffff61518d16565b612841565b600284600281111561512a57fe5b141561514057615117828263ffffffff61530816565b6040805162461bcd60e51b815260206004820152601c60248201527f496e76616c6964206e657720626f72726f772072617465206d6f646500000000604482015290519081900360640190fd5b60028301546151a2818463ffffffff613f8316565b600285015560006151b68361417b86614c2f565b905060006151cb866006015461417b85614c2f565b90506151ed6151dd8760020154614c2f565b613ff4848463ffffffff613f8316565b8660060181905550505050505050565b8183600201541015615256576040805162461bcd60e51b815260206004820152601a60248201527f496e76616c696420616d6f756e7420746f206465637265617365000000000000604482015290519081900360640190fd5b600283015461526b818463ffffffff61410b16565b60028501819055615283575060006006840155611d96565b60006152928361417b86614c2f565b905060006152a7866006015461417b85614c2f565b9050818110156152e85760405162461bcd60e51b815260040180806020018281038252602381526020018061561a6023913960400191505060405180910390fd5b6151ed6152f88760020154614c2f565b613ff4838563ffffffff61410b16565b600382015461531d908263ffffffff613f8316565b82600301819055505050565b808260030154101561536c5760405162461bcd60e51b815260040180806020018281038252605081526020018061552b6050913960600191505060405180910390fd5b600382015461531d908263ffffffff61410b16565b6000631dcd6500611dbc633b9aca006147cf8386613f83565b6000826153a957506000611a4a565b828202828482816153b657fe5b0414611dbc5760405162461bcd60e51b815260040180806020018281038252602181526020018061572c6021913960400191505060405180910390fd5b6000611dbc83836040518060400160405280601a81526020017f536166654d6174683a206469766973696f6e206279207a65726f00000000000081525061548f565b600060028206615451576b033b2e3c9fd0803ce8000000615453565b825b90506002820491505b8115611a4a5761546c8384614ba8565b92506002820615615484576154818184614ba8565b90505b60028204915061545c565b600081836154de5760405162461bcd60e51b8152602060048201818152835160248401528351909283926044909101919085019080838360008315614fee578181015183820152602001614fd6565b5060008385816154ea57fe5b049594505050505056fe466565206c69717569646174696f6e20646f6573206e6f74207265717569726520616e79207472616e73666572206f662076616c756554686520616d6f756e742074686174206973206265696e6720737562747261637465642066726f6d20746865207661726961626c6520746f74616c20626f72726f777320697320696e636f727265637443616e6e6f742072656d6f766520616e20496e737472756d656e742077697468206c6971756964697479206465706f736974656454686520616d6f756e7420616e64207468652076616c75652073656e7420746f206465706f73697420646f206e6f74206d617463684f6e6c7920636f6e7472616374732063616e2073656e6420657468657220746f20746865204c656e64696e6720706f6f6c20636f726554686520616d6f756e747320746f20737562747261637420646f6e2774206d61746368557365722069732073656e64696e672045544820616c6f6e67207769746820746865204552433230207472616e736665722e496e737472756d656e7420686173206e6f74206265656e20696e697469616c697a656420796574557365722069732073656e64696e672045544820616c6f6e67207769746820746865204552433230207472616e736665722e20436865636b207468652076616c756520617474726962757465206f6620746865207472616e73616374696f6e5468652063616c6c6572206d7573742062652061206c656e64696e6720706f6f6c20636f6e666967757261746f7220636f6e7472616374536166654d6174683a206d756c7469706c69636174696f6e206f766572666c6f77436f6e747261637420696e7374616e63652068617320616c7265616479206265656e20696e697469616c697a65645468652063616c6c6572206d7573742062652061206c656e64696e6720706f6f6c20636f6e7472616374496e76616c696420696e7465726573742072617465206d6f64652072656365697665645361666545524332303a204552433230206f7065726174696f6e20646964206e6f742073756363656564496e737472756d656e74206265696e672072656d6f76656420697320646966666572656e74207468616e2074686520496e737472756d656e7420726571756573746564a265627a7a723158204d8179b0a59009b95bb555ef55bd4b0262a42cf46da8d4e141020ccbd50b773864736f6c63430005100032",
  "source": "pragma solidity ^0.5.0;\n\nimport \"openzeppelin-solidity/contracts/math/SafeMath.sol\";\nimport \"openzeppelin-solidity/contracts/token/ERC20/SafeERC20.sol\";\nimport \"openzeppelin-solidity/contracts/token/ERC20/ERC20.sol\";\nimport \"openzeppelin-solidity/contracts/utils/Address.sol\";\nimport \"../../../openzeppelin-upgradeability/VersionedInitializable.sol\";\n\nimport \"../../libraries/CoreLibrary.sol\";\nimport \"../../configuration/LendingPoolAddressesProvider.sol\";\nimport \"../../interfaces/ILendingRateOracle.sol\";\nimport \"../../interfaces/I_InstrumentInterestRateStrategy.sol\";\nimport \"../../libraries/WadRayMath.sol\";\n\nimport \"../../lendingpool/LendingPoolCore.sol\";\n\n/*************************************************************************************\n* @title MockLendingPoolCore contract\n* @author Aave, SIGH Finance\n* @notice This is a mock contract to test upgradeability of the AddressProvider\n *************************************************************************************/\n\ncontract MockLendingPoolCore is LendingPoolCore {\n\n    event ReserveUpdatedFromMock(uint256 indexed revision);\n\n    uint256 constant private CORE_REVISION = 0x5;\n\n    function getRevision() internal pure returns(uint256) {\n        return CORE_REVISION;\n    }\n\n    function initialize(LendingPoolAddressesProvider _addressesProvider) public initializer {\n        addressesProvider = _addressesProvider;\n        refreshConfigInternal();\n    }\n\n    function updateInstrumentInterestRatesAndTimestampInternal(address _reserve, uint256 _liquidityAdded, uint256 _liquidityTaken)\n        internal\n    {\n        super.updateInstrumentInterestRatesAndTimestampInternal(_reserve, _liquidityAdded, _liquidityTaken);\n\n        emit ReserveUpdatedFromMock(getRevision());\n\n    }\n}\n",
  "sourcePath": "/Users/apple/Desktop/GITCOIN/Sigh_Finance/SighFinanceContracts/contracts/ProtocolContracts/mocks/upgradeability/MockLendingPoolCore.sol",
  "compiler": {
    "name": "solc",
    "version": "0.5.16+commit.9c3226ce.Emscripten.clang"
  },
  "schemaVersion": "3.2.4",
  "updatedAt": "2020-10-22T12:30:37.547Z",
  "devdoc": {
    "author": "Aave, SIGH Finance",
    "methods": {
      "activateInstrument(address)": {
        "details": "activates an instrument",
        "params": {
          "_instrument": "the address of the instrument*"
        }
      },
      "deactivateInstrument(address)": {
        "details": "deactivates a instrument",
        "params": {
          "_instrument": "the address of the instrument*"
        }
      },
      "disableBorrowingOnInstrument(address)": {
        "details": "disables borrowing on a instrument",
        "params": {
          "_instrument": "the address of the instrument*"
        }
      },
      "disableInstrumentAsCollateral(address)": {
        "details": "disables a instrument to be used as collateral",
        "params": {
          "_instrument": "the address of the instrument*"
        }
      },
      "disableInstrumentStableBorrowRate(address)": {
        "details": "disable the stable borrow rate mode on a instrument",
        "params": {
          "_instrument": "the address of the instrument*"
        }
      },
      "enableBorrowingOnInstrument(address,bool)": {
        "details": "enables borrowing on a instrument. Also sets the stable rate borrowing",
        "params": {
          "_instrument": "the address of the instrument",
          "_stableBorrowRateEnabled": "true if the stable rate needs to be enabled, false otherwise*"
        }
      },
      "enableInstrumentAsCollateral(address,uint256,uint256,uint256)": {
        "details": "enables a instrument to be used as collateral",
        "params": {
          "_instrument": "the address of the instrument*"
        }
      },
      "enableInstrumentStableBorrowRate(address)": {
        "details": "enable the stable borrow rate mode on a instrument",
        "params": {
          "_instrument": "the address of the instrument*"
        }
      },
      "freezeInstrument(address)": {
        "params": {
          "_instrument": "the address of the instrument*"
        }
      },
      "getInstrumentAvailableLiquidity(address)": {
        "details": "gets the available liquidity in the instrument. The available liquidity is the balance of the core contract",
        "params": {
          "_instrument": "the Instrument address (underlying instrument address)"
        },
        "return": "the available liquidity*"
      },
      "getInstrumentConfiguration(address)": {
        "details": "this function aggregates the configuration parameters of the instrument. It's used in the LendingPoolDataProvider specifically to save gas, and avoid multiple external contract calls to fetch the same data.",
        "params": {
          "_instrument": "the _instrument address"
        },
        "return": "the instrument decimalsthe base ltv as collateralthe liquidation thresholdif the instrument is used as collateral or not*"
      },
      "getInstrumentCurrentAverageStableBorrowRate(address)": {
        "details": "gets the _instrument average stable borrow rate. The average stable rate is the weighted average of all the loans taken at stable rate.",
        "params": {
          "_instrument": "the _instrument address"
        },
        "return": "the _instrument current average borrow rate*"
      },
      "getInstrumentCurrentLiquidityRate(address)": {
        "details": "gets the _instrument liquidity rate",
        "params": {
          "_instrument": "the _instrument address"
        },
        "return": "the _instrument liquidity rate*"
      },
      "getInstrumentCurrentStableBorrowRate(address)": {
        "details": "gets the instrument current stable borrow rate. Is the market rate if the instrument is empty",
        "params": {
          "_instrument": "the instrument address"
        },
        "return": "the instrument current stable borrow rate*"
      },
      "getInstrumentCurrentVariableBorrowRate(address)": {
        "details": "gets the instrument's current variable borrow rate. Is the base variable borrow rate if the reserve is empty",
        "params": {
          "_instrument": "the instrument address"
        },
        "return": "the instrument current variable borrow rate*"
      },
      "getInstrumentDecimals(address)": {
        "details": "returns the decimals of the _instrument",
        "params": {
          "_instrument": "the _instrument address"
        },
        "return": "the _instrument decimals*"
      },
      "getInstrumentITokenAddress(address)": {
        "details": "gets the iToken contract address for the instrument",
        "params": {
          "_instrument": "the instrument address"
        },
        "return": "the address of the iToken contract*"
      },
      "getInstrumentInterestRateStrategyAddress(address)": {
        "details": "gets the interest rate strategy contract address for the instrument",
        "params": {
          "_instrument": "the instrument address"
        },
        "return": "the address of the interest rate strategy contract*"
      },
      "getInstrumentIsActive(address)": {
        "details": "returns true if the _instrument is active",
        "params": {
          "_instrument": "the _instrument address"
        },
        "return": "true if the _instrument is active, false otherwise*"
      },
      "getInstrumentIsFreezed(address)": {
        "params": {
          "_instrument": "the _instrument for which the information is needed"
        },
        "return": "true if the _instrument is freezed, false otherwise*"
      },
      "getInstrumentIsStableBorrowRateEnabled(address)": {
        "details": "returns true if the stable rate is enabled on _instrument",
        "params": {
          "_instrument": "the _instrument address"
        },
        "return": "true if the stable rate is enabled on _instrument, false otherwise*"
      },
      "getInstrumentLastUpdate(address)": {
        "params": {
          "_instrument": "the _instrument for which the information is needed"
        },
        "return": "the last updated timestamp of the _instrument*"
      },
      "getInstrumentLiquidationBonus(address)": {
        "details": "gets the instrument liquidation bonus",
        "params": {
          "_instrument": "the instrument address"
        },
        "return": "the instrument liquidation bonus*"
      },
      "getInstrumentLiquidationThreshold(address)": {
        "details": "gets the instrument liquidation threshold",
        "params": {
          "_instrument": "the instrument address"
        },
        "return": "the instrument liquidation threshold*"
      },
      "getInstrumentLiquidityCumulativeIndex(address)": {
        "details": "gets the _instrument liquidity cumulative index",
        "params": {
          "_instrument": "the _instrument address"
        },
        "return": "the _instrument liquidity cumulative index*"
      },
      "getInstrumentNormalizedIncome(address)": {
        "details": "gets the normalized income of the instrument. a value of 1e27 means there is no income. A value of 2e27 means there there has been 100% income.",
        "params": {
          "_instrument": "the instrument address (the underlying address)"
        },
        "return": "the instrument normalized income*"
      },
      "getInstrumentTotalBorrows(address)": {
        "details": "gets the instrument total borrows",
        "params": {
          "_instrument": "the _instrument address"
        },
        "return": "the total borrows (stable + variable)*"
      },
      "getInstrumentTotalBorrowsStable(address)": {
        "details": "gets the instrument total borrows stable",
        "params": {
          "_instrument": "the instrument address"
        },
        "return": "the total borrows stable*"
      },
      "getInstrumentTotalBorrowsVariable(address)": {
        "details": "gets the instrument total borrows variable",
        "params": {
          "_instrument": "the instrument address"
        },
        "return": "the total borrows variable*"
      },
      "getInstrumentTotalLiquidity(address)": {
        "details": "gets the total liquidity in the instrument. The total liquidity is the balance of the core contract + total borrows",
        "params": {
          "_instrument": "the instrument address"
        },
        "return": "the total liquidity*"
      },
      "getInstrumentUtilizationRate(address)": {
        "details": "returns the utilization rate U of a specific instrument",
        "params": {
          "_instrument": "the instrument for which the information is needed"
        },
        "return": "the utilization rate in ray*"
      },
      "getInstrumentVariableBorrowsCumulativeIndex(address)": {
        "details": "gets the _instrument variable borrow index",
        "params": {
          "_instrument": "the _instrument address"
        },
        "return": "the _instrument variable borrow index*"
      },
      "getInstruments()": {
        "return": "the array of instruments configured on the core*"
      },
      "getUserBasicInstrumentData(address,address)": {
        "details": "returns the basic data (balances, fee accrued, instrument enabled/disabled as collateral) needed to calculate the global account data in the LendingPoolDataProvider",
        "params": {
          "_instrument": "the address of the instrument",
          "_user": "the address of the user"
        },
        "return": "the user deposited balance, the principal borrow balance, the fee, and if the instrument is enabled as collateral or not*"
      },
      "getUserBorrowBalances(address,address)": {
        "details": "calculates and returns the borrow balances of the user",
        "params": {
          "_instrument": "the address of the instrument",
          "_user": "the address of the user"
        },
        "return": "the principal borrow balance, the compounded balance and the balance increase since the last borrow/repay/swap/rebalance*"
      },
      "getUserCurrentBorrowRateMode(address,address)": {
        "details": "users with no loans in progress have NONE as borrow rate mode",
        "params": {
          "_instrument": "the address of the _instrument for which the information is needed",
          "_user": "the address of the user for which the information is needed"
        },
        "return": "the borrow rate mode for the user,*"
      },
      "getUserCurrentStableBorrowRate(address,address)": {
        "details": "the stable rate returned is 0 if the user is borrowing at variable or not borrowing at all",
        "params": {
          "_instrument": "the address of the _instrument for which the information is needed",
          "_user": "the address of the user for which the information is needed"
        },
        "return": "the user stable rate*"
      },
      "getUserLastUpdate(address,address)": {
        "details": "the variable borrow index of the user is 0 if the user is not borrowing or borrowing at stable",
        "params": {
          "_instrument": "the address of the _instrument for which the information is needed",
          "_user": "the address of the user for which the information is needed"
        },
        "return": "the variable borrow index for the user*"
      },
      "getUserOriginationFee(address,address)": {
        "params": {
          "_instrument": "the address of the instrument for which the information is needed",
          "_user": "the address of the user for which the information is needed"
        },
        "return": "the origination fee for the user*"
      },
      "getUserUnderlyingAssetBalance(address,address)": {
        "details": "gets the underlying asset balance of a user based on the corresponding iToken balance.",
        "params": {
          "_instrument": "the instrument address",
          "_user": "the user address"
        },
        "return": "the underlying deposit balance of the user*"
      },
      "getUserVariableBorrowCumulativeIndex(address,address)": {
        "details": "the variable borrow index of the user is 0 if the user is not borrowing or borrowing at stable",
        "params": {
          "_instrument": "the address of the _instrument for which the information is needed",
          "_user": "the address of the user for which the information is needed"
        },
        "return": "the variable borrow index for the user*"
      },
      "initInstrument(address,address,uint256,address)": {
        "details": "initializes a instrument",
        "params": {
          "_decimals": "the decimals of the instrument currency",
          "_iTokenAddress": "the address of the overlying iToken contract",
          "_instrument": "the address of the instrument",
          "_interestRateStrategyAddress": "the address of the interest rate strategy contract*"
        }
      },
      "isInstrumentBorrowingEnabled(address)": {
        "details": "returns true if the instrument is enabled for borrowing",
        "params": {
          "_instrument": "the instrument address"
        },
        "return": "true if the instrument is enabled for borrowing, false otherwise*"
      },
      "isInstrumentUsageAsCollateralEnabled(address)": {
        "details": "returns true if the _instrument is enabled as collateral",
        "params": {
          "_instrument": "the _instrument address"
        },
        "return": "true if the _instrument is enabled as collateral, false otherwise*"
      },
      "isUserAllowedToBorrowAtStable(address,address,uint256)": {
        "details": "checks if a user is allowed to borrow at a stable rate",
        "params": {
          "_amount": "the amount the the user wants to borrow",
          "_instrument": "the instrument address (underlying)",
          "_user": "the user"
        },
        "return": "true if the user is allowed to borrow at a stable rate, false otherwise*"
      },
      "isUserUseInstrumentAsCollateralEnabled(address,address)": {
        "params": {
          "_instrument": "the address of the _instrument for which the information is needed",
          "_user": "the address of the user for which the information is needed"
        },
        "return": "true if the user has chosen to use the _instrument as collateral, false otherwise*"
      },
      "liquidateFee(address,uint256,address)": {
        "details": "transfers the fees to the fees collection address in the case of liquidation",
        "params": {
          "_amount": "the amount being transferred",
          "_destination": "the fee receiver address*",
          "_token": "the address of the token being transferred"
        }
      },
      "refreshConfiguration()": {
        "details": "updates the lending pool core configuration*"
      },
      "removeLastAddedInstrument(address)": {
        "details": "removes the last added instrument in the instrumentsList array",
        "params": {
          "_instrumentToRemove": "the address of the instrument*"
        }
      },
      "setInstrumentBaseLTVasCollateral(address,uint256)": {
        "params": {
          "_instrument": "the address of the instrument",
          "_ltv": "the new loan to value*"
        }
      },
      "setInstrumentDecimals(address,uint256)": {
        "params": {
          "_decimals": "the decimals of the instrument*",
          "_instrument": "the address of the instrument"
        }
      },
      "setInstrumentInterestRateStrategyAddress(address,address)": {
        "details": "updates the address of the interest rate strategy contract",
        "params": {
          "_instrument": "the address of the Instrument",
          "_rateStrategyAddress": "the address of the interest rate strategy contract*"
        }
      },
      "setInstrumentLiquidationBonus(address,uint256)": {
        "params": {
          "_bonus": "the new liquidation bonus*",
          "_instrument": "the address of the instrument"
        }
      },
      "setInstrumentLiquidationThreshold(address,uint256)": {
        "params": {
          "_instrument": "the address of the instrument",
          "_threshold": "the new liquidation threshold*"
        }
      },
      "setUserUseInstrumentAsCollateral(address,address,bool)": {
        "details": "enables or disables a instrument as collateral",
        "params": {
          "_instrument": "the address of the principal instrument where the user deposited",
          "_useAsCollateral": "true if the depositor wants to use the instrument as collateral*",
          "_user": "the address of the depositor"
        }
      },
      "transferToFeeCollectionAddress(address,address,uint256,address)": {
        "details": "transfers the protocol fees to the fees collection address",
        "params": {
          "_amount": "the amount being transferred",
          "_destination": "the fee receiver address*",
          "_token": "the address of the token (instrument) being transferred",
          "_user": "the address of the user from where the transfer is happening"
        }
      },
      "transferToReserve(address,address,uint256)": {
        "details": "transfers an amount from a user to the destination instrument",
        "params": {
          "_amount": "the amount being transferred*",
          "_instrument": "the address of the instrument where the amount is being transferred",
          "_user": "the address of the user from where the transfer is happening"
        }
      },
      "transferToUser(address,address,uint256)": {
        "details": "transfers to the user a specific amount from the reserve. (used during REDEEMUNDERLYING(), BORROW() & FLASHLOAN() in LendingPool Contract)",
        "params": {
          "_amount": "the amount being transferred*",
          "_instrument": "the address of the instrument (underlying address) where the transfer is happening",
          "_user": "the address of the user receiving the transfer"
        }
      },
      "unfreezeInstrument(address)": {
        "params": {
          "_instrument": "the address of the instrument*"
        }
      },
      "updateStateOnBorrow(address,address,uint256,uint256,uint8)": {
        "details": "updates the state of the core as a consequence of a borrow action.",
        "params": {
          "_amountBorrowed": "the new amount borrowed",
          "_borrowFee": "the fee on the amount borrowed",
          "_instrument": "the address of the instrument which the user is borrowing",
          "_rateMode": "the borrow rate mode (stable, variable)",
          "_user": "the address of the borrower"
        },
        "return": "the new borrow rate for the user*"
      },
      "updateStateOnDeposit(address,address,uint256,bool)": {
        "details": "updates the state of the core as a result of a deposit action",
        "params": {
          "_amount": "the amount being deposited",
          "_instrument": "the address of the instrument in which the deposit is happening",
          "_isFirstDeposit": "true if the user is depositing for the first time*",
          "_user": "the address of the the user depositing"
        }
      },
      "updateStateOnFlashLoan(address,uint256,uint256,uint256)": {
        "details": "updates the state of the core as a result of a flashloan action",
        "params": {
          "_income": "the income of the protocol as a result of the action",
          "_instrument": "the address of the instrument in which the flashloan is happening",
          "_protocolFee": "the protocol fee charged*"
        }
      },
      "updateStateOnLiquidation(address,address,address,uint256,uint256,uint256,uint256,uint256,bool)": {
        "details": "updates the state of the core as a consequence of a liquidation action.",
        "params": {
          "_amountToLiquidate": "the amount being repaid by the liquidator",
          "_balanceIncrease": "the accrued interest on the borrowed amount",
          "_collateralInstrument": "the address of the collateral instrument that is being liquidated",
          "_collateralToLiquidate": "the amount of collateral being liquidated",
          "_feeLiquidated": "the amount of origination fee being liquidated",
          "_liquidatedCollateralForFee": "the amount of collateral equivalent to the origination fee + bonus",
          "_liquidatorReceivesIToken": "true if the liquidator will receive iTokens, false otherwise*",
          "_principalInstrument": "the address of the principal instrument that is being repaid",
          "_user": "the address of the borrower"
        }
      },
      "updateStateOnRebalance(address,address,uint256)": {
        "details": "updates the state of the core as a consequence of a stable rate rebalance",
        "params": {
          "_balanceIncrease": "the accrued interest on the borrowed amount",
          "_instrument": "the address of the principal instrument where the user borrowed",
          "_user": "the address of the borrower"
        },
        "return": "the new stable rate for the user*"
      },
      "updateStateOnRedeem(address,address,uint256,bool)": {
        "details": "updates the state of the core as a result of a redeem action",
        "params": {
          "_amountRedeemed": "the amount being redeemed",
          "_instrument": "the address of the instrument (underlying address) in which the redeem is happening",
          "_user": "the address of the the user redeeming",
          "_userRedeemedEverything": "true if the user is redeeming everything*"
        }
      },
      "updateStateOnRepay(address,address,uint256,uint256,uint256,bool)": {
        "details": "updates the state of the core as a consequence of a repay action.",
        "params": {
          "_balanceIncrease": "the accrued interest on the borrowed amount",
          "_instrument": "the address of the instrument on which the user is repaying",
          "_originationFeeRepaid": "the fee on the amount that is being repaid",
          "_paybackAmountMinusFees": "the amount being paid back minus fees",
          "_repaidWholeLoan": "true if the user is repaying the whole loan*",
          "_user": "the address of the borrower"
        }
      },
      "updateStateOnSwapRate(address,address,uint256,uint256,uint256,uint8)": {
        "details": "updates the state of the core as a consequence of a swap rate action.",
        "params": {
          "_balanceIncrease": "the accrued interest on the borrowed amount",
          "_compoundedBorrowBalance": "the amount borrowed plus accrued interest",
          "_currentRateMode": "the current interest rate mode for the user*",
          "_instrument": "the address of the _instrument on which the user is repaying",
          "_principalBorrowBalance": "the amount borrowed by the user",
          "_user": "the address of the borrower"
        }
      }
    },
    "title": "MockLendingPoolCore contract"
  },
  "userdoc": {
    "methods": {
      "freezeInstrument(address)": {
        "notice": "allows the configurator to freeze the instrument. A freezed instrument does not allow any action apart from repay, redeem, liquidationCall, rebalance."
      },
      "getInstrumentIsFreezed(address)": {
        "notice": "returns if a _instrument is freezed"
      },
      "getInstrumentLastUpdate(address)": {
        "notice": "returns the timestamp of the last action on the _instrument"
      },
      "setInstrumentBaseLTVasCollateral(address,uint256)": {
        "notice": "allows the configurator to update the loan to value of a instrument"
      },
      "setInstrumentDecimals(address,uint256)": {
        "notice": "allows the configurator to update the instrument decimals"
      },
      "setInstrumentLiquidationBonus(address,uint256)": {
        "notice": "allows the configurator to update the liquidation bonus of a instrument"
      },
      "setInstrumentLiquidationThreshold(address,uint256)": {
        "notice": "allows the configurator to update the liquidation threshold of a instrument"
      },
      "unfreezeInstrument(address)": {
        "notice": "allows the configurator to unfreeze the instrument. A unfreezed Instrument allows any action to be executed."
      }
    },
    "notice": "***********************************************************************************This is a mock contract to test upgradeability of the AddressProvider************************************************************************************"
  }
}