{
  "contractName": "MockLendingPoolCore",
  "abi": [
    {
      "anonymous": false,
      "inputs": [
        {
          "indexed": true,
          "internalType": "address",
          "name": "instrument",
          "type": "address"
        },
        {
          "indexed": false,
          "internalType": "uint256",
          "name": "liquidityRate",
          "type": "uint256"
        },
        {
          "indexed": false,
          "internalType": "uint256",
          "name": "stableBorrowRate",
          "type": "uint256"
        },
        {
          "indexed": false,
          "internalType": "uint256",
          "name": "variableBorrowRate",
          "type": "uint256"
        },
        {
          "indexed": false,
          "internalType": "uint256",
          "name": "liquidityIndex",
          "type": "uint256"
        },
        {
          "indexed": false,
          "internalType": "uint256",
          "name": "variableBorrowIndex",
          "type": "uint256"
        }
      ],
      "name": "InstrumentUpdated",
      "type": "event"
    },
    {
      "anonymous": false,
      "inputs": [
        {
          "indexed": true,
          "internalType": "uint256",
          "name": "revision",
          "type": "uint256"
        }
      ],
      "name": "ReserveUpdatedFromMock",
      "type": "event"
    },
    {
      "payable": true,
      "stateMutability": "payable",
      "type": "fallback"
    },
    {
      "constant": true,
      "inputs": [],
      "name": "CORE_REVISION",
      "outputs": [
        {
          "internalType": "uint256",
          "name": "",
          "type": "uint256"
        }
      ],
      "payable": false,
      "stateMutability": "view",
      "type": "function"
    },
    {
      "constant": false,
      "inputs": [
        {
          "internalType": "address",
          "name": "_instrument",
          "type": "address"
        }
      ],
      "name": "activateInstrument",
      "outputs": [],
      "payable": false,
      "stateMutability": "nonpayable",
      "type": "function"
    },
    {
      "constant": true,
      "inputs": [],
      "name": "addressesProvider",
      "outputs": [
        {
          "internalType": "contract GlobalAddressesProvider",
          "name": "",
          "type": "address"
        }
      ],
      "payable": false,
      "stateMutability": "view",
      "type": "function"
    },
    {
      "constant": false,
      "inputs": [
        {
          "internalType": "address",
          "name": "_instrument",
          "type": "address"
        }
      ],
      "name": "deactivateInstrument",
      "outputs": [],
      "payable": false,
      "stateMutability": "nonpayable",
      "type": "function"
    },
    {
      "constant": false,
      "inputs": [
        {
          "internalType": "address",
          "name": "_instrument",
          "type": "address"
        }
      ],
      "name": "disableBorrowingOnInstrument",
      "outputs": [],
      "payable": false,
      "stateMutability": "nonpayable",
      "type": "function"
    },
    {
      "constant": false,
      "inputs": [
        {
          "internalType": "address",
          "name": "_instrument",
          "type": "address"
        }
      ],
      "name": "disableInstrumentAsCollateral",
      "outputs": [],
      "payable": false,
      "stateMutability": "nonpayable",
      "type": "function"
    },
    {
      "constant": false,
      "inputs": [
        {
          "internalType": "address",
          "name": "_instrument",
          "type": "address"
        }
      ],
      "name": "disableInstrumentStableBorrowRate",
      "outputs": [],
      "payable": false,
      "stateMutability": "nonpayable",
      "type": "function"
    },
    {
      "constant": false,
      "inputs": [
        {
          "internalType": "address",
          "name": "_instrument",
          "type": "address"
        },
        {
          "internalType": "bool",
          "name": "_stableBorrowRateEnabled",
          "type": "bool"
        }
      ],
      "name": "enableBorrowingOnInstrument",
      "outputs": [],
      "payable": false,
      "stateMutability": "nonpayable",
      "type": "function"
    },
    {
      "constant": false,
      "inputs": [
        {
          "internalType": "address",
          "name": "_instrument",
          "type": "address"
        },
        {
          "internalType": "uint256",
          "name": "_baseLTVasCollateral",
          "type": "uint256"
        },
        {
          "internalType": "uint256",
          "name": "_liquidationThreshold",
          "type": "uint256"
        },
        {
          "internalType": "uint256",
          "name": "_liquidationBonus",
          "type": "uint256"
        }
      ],
      "name": "enableInstrumentAsCollateral",
      "outputs": [],
      "payable": false,
      "stateMutability": "nonpayable",
      "type": "function"
    },
    {
      "constant": false,
      "inputs": [
        {
          "internalType": "address",
          "name": "_instrument",
          "type": "address"
        }
      ],
      "name": "enableInstrumentStableBorrowRate",
      "outputs": [],
      "payable": false,
      "stateMutability": "nonpayable",
      "type": "function"
    },
    {
      "constant": false,
      "inputs": [
        {
          "internalType": "address",
          "name": "_instrument",
          "type": "address"
        }
      ],
      "name": "freezeInstrument",
      "outputs": [],
      "payable": false,
      "stateMutability": "nonpayable",
      "type": "function"
    },
    {
      "constant": true,
      "inputs": [
        {
          "internalType": "address",
          "name": "_instrument",
          "type": "address"
        }
      ],
      "name": "getInstrumentAvailableLiquidity",
      "outputs": [
        {
          "internalType": "uint256",
          "name": "",
          "type": "uint256"
        }
      ],
      "payable": false,
      "stateMutability": "view",
      "type": "function"
    },
    {
      "constant": true,
      "inputs": [
        {
          "internalType": "address",
          "name": "_instrument",
          "type": "address"
        }
      ],
      "name": "getInstrumentConfiguration",
      "outputs": [
        {
          "internalType": "uint256",
          "name": "",
          "type": "uint256"
        },
        {
          "internalType": "uint256",
          "name": "",
          "type": "uint256"
        },
        {
          "internalType": "uint256",
          "name": "",
          "type": "uint256"
        },
        {
          "internalType": "bool",
          "name": "",
          "type": "bool"
        }
      ],
      "payable": false,
      "stateMutability": "view",
      "type": "function"
    },
    {
      "constant": true,
      "inputs": [
        {
          "internalType": "address",
          "name": "_instrument",
          "type": "address"
        }
      ],
      "name": "getInstrumentCurrentAverageStableBorrowRate",
      "outputs": [
        {
          "internalType": "uint256",
          "name": "",
          "type": "uint256"
        }
      ],
      "payable": false,
      "stateMutability": "view",
      "type": "function"
    },
    {
      "constant": true,
      "inputs": [
        {
          "internalType": "address",
          "name": "_instrument",
          "type": "address"
        }
      ],
      "name": "getInstrumentCurrentLiquidityRate",
      "outputs": [
        {
          "internalType": "uint256",
          "name": "",
          "type": "uint256"
        }
      ],
      "payable": false,
      "stateMutability": "view",
      "type": "function"
    },
    {
      "constant": true,
      "inputs": [
        {
          "internalType": "address",
          "name": "_instrument",
          "type": "address"
        }
      ],
      "name": "getInstrumentCurrentStableBorrowRate",
      "outputs": [
        {
          "internalType": "uint256",
          "name": "",
          "type": "uint256"
        }
      ],
      "payable": false,
      "stateMutability": "view",
      "type": "function"
    },
    {
      "constant": true,
      "inputs": [
        {
          "internalType": "address",
          "name": "_instrument",
          "type": "address"
        }
      ],
      "name": "getInstrumentCurrentVariableBorrowRate",
      "outputs": [
        {
          "internalType": "uint256",
          "name": "",
          "type": "uint256"
        }
      ],
      "payable": false,
      "stateMutability": "view",
      "type": "function"
    },
    {
      "constant": true,
      "inputs": [
        {
          "internalType": "address",
          "name": "_instrument",
          "type": "address"
        }
      ],
      "name": "getInstrumentDecimals",
      "outputs": [
        {
          "internalType": "uint256",
          "name": "",
          "type": "uint256"
        }
      ],
      "payable": false,
      "stateMutability": "view",
      "type": "function"
    },
    {
      "constant": true,
      "inputs": [
        {
          "internalType": "address",
          "name": "_instrument",
          "type": "address"
        }
      ],
      "name": "getInstrumentITokenAddress",
      "outputs": [
        {
          "internalType": "address",
          "name": "",
          "type": "address"
        }
      ],
      "payable": false,
      "stateMutability": "view",
      "type": "function"
    },
    {
      "constant": true,
      "inputs": [
        {
          "internalType": "address",
          "name": "_instrument",
          "type": "address"
        }
      ],
      "name": "getInstrumentInterestRateStrategyAddress",
      "outputs": [
        {
          "internalType": "address",
          "name": "",
          "type": "address"
        }
      ],
      "payable": false,
      "stateMutability": "view",
      "type": "function"
    },
    {
      "constant": true,
      "inputs": [
        {
          "internalType": "address",
          "name": "_instrument",
          "type": "address"
        }
      ],
      "name": "getInstrumentIsActive",
      "outputs": [
        {
          "internalType": "bool",
          "name": "",
          "type": "bool"
        }
      ],
      "payable": false,
      "stateMutability": "view",
      "type": "function"
    },
    {
      "constant": true,
      "inputs": [
        {
          "internalType": "address",
          "name": "_instrument",
          "type": "address"
        }
      ],
      "name": "getInstrumentIsFreezed",
      "outputs": [
        {
          "internalType": "bool",
          "name": "",
          "type": "bool"
        }
      ],
      "payable": false,
      "stateMutability": "view",
      "type": "function"
    },
    {
      "constant": true,
      "inputs": [
        {
          "internalType": "address",
          "name": "_instrument",
          "type": "address"
        }
      ],
      "name": "getInstrumentIsStableBorrowRateEnabled",
      "outputs": [
        {
          "internalType": "bool",
          "name": "",
          "type": "bool"
        }
      ],
      "payable": false,
      "stateMutability": "view",
      "type": "function"
    },
    {
      "constant": true,
      "inputs": [
        {
          "internalType": "address",
          "name": "_instrument",
          "type": "address"
        }
      ],
      "name": "getInstrumentLastUpdate",
      "outputs": [
        {
          "internalType": "uint40",
          "name": "timestamp",
          "type": "uint40"
        }
      ],
      "payable": false,
      "stateMutability": "view",
      "type": "function"
    },
    {
      "constant": true,
      "inputs": [
        {
          "internalType": "address",
          "name": "_instrument",
          "type": "address"
        }
      ],
      "name": "getInstrumentLiquidationBonus",
      "outputs": [
        {
          "internalType": "uint256",
          "name": "",
          "type": "uint256"
        }
      ],
      "payable": false,
      "stateMutability": "view",
      "type": "function"
    },
    {
      "constant": true,
      "inputs": [
        {
          "internalType": "address",
          "name": "_instrument",
          "type": "address"
        }
      ],
      "name": "getInstrumentLiquidationThreshold",
      "outputs": [
        {
          "internalType": "uint256",
          "name": "",
          "type": "uint256"
        }
      ],
      "payable": false,
      "stateMutability": "view",
      "type": "function"
    },
    {
      "constant": true,
      "inputs": [
        {
          "internalType": "address",
          "name": "_instrument",
          "type": "address"
        }
      ],
      "name": "getInstrumentLiquidityCumulativeIndex",
      "outputs": [
        {
          "internalType": "uint256",
          "name": "",
          "type": "uint256"
        }
      ],
      "payable": false,
      "stateMutability": "view",
      "type": "function"
    },
    {
      "constant": true,
      "inputs": [
        {
          "internalType": "address",
          "name": "_instrument",
          "type": "address"
        }
      ],
      "name": "getInstrumentNormalizedIncome",
      "outputs": [
        {
          "internalType": "uint256",
          "name": "",
          "type": "uint256"
        }
      ],
      "payable": false,
      "stateMutability": "view",
      "type": "function"
    },
    {
      "constant": true,
      "inputs": [
        {
          "internalType": "address",
          "name": "_instrument",
          "type": "address"
        }
      ],
      "name": "getInstrumentTotalBorrows",
      "outputs": [
        {
          "internalType": "uint256",
          "name": "",
          "type": "uint256"
        }
      ],
      "payable": false,
      "stateMutability": "view",
      "type": "function"
    },
    {
      "constant": true,
      "inputs": [
        {
          "internalType": "address",
          "name": "_instrument",
          "type": "address"
        }
      ],
      "name": "getInstrumentTotalBorrowsStable",
      "outputs": [
        {
          "internalType": "uint256",
          "name": "",
          "type": "uint256"
        }
      ],
      "payable": false,
      "stateMutability": "view",
      "type": "function"
    },
    {
      "constant": true,
      "inputs": [
        {
          "internalType": "address",
          "name": "_instrument",
          "type": "address"
        }
      ],
      "name": "getInstrumentTotalBorrowsVariable",
      "outputs": [
        {
          "internalType": "uint256",
          "name": "",
          "type": "uint256"
        }
      ],
      "payable": false,
      "stateMutability": "view",
      "type": "function"
    },
    {
      "constant": true,
      "inputs": [
        {
          "internalType": "address",
          "name": "_instrument",
          "type": "address"
        }
      ],
      "name": "getInstrumentTotalLiquidity",
      "outputs": [
        {
          "internalType": "uint256",
          "name": "",
          "type": "uint256"
        }
      ],
      "payable": false,
      "stateMutability": "view",
      "type": "function"
    },
    {
      "constant": true,
      "inputs": [
        {
          "internalType": "address",
          "name": "_instrument",
          "type": "address"
        }
      ],
      "name": "getInstrumentUtilizationRate",
      "outputs": [
        {
          "internalType": "uint256",
          "name": "",
          "type": "uint256"
        }
      ],
      "payable": false,
      "stateMutability": "view",
      "type": "function"
    },
    {
      "constant": true,
      "inputs": [
        {
          "internalType": "address",
          "name": "_instrument",
          "type": "address"
        }
      ],
      "name": "getInstrumentVariableBorrowsCumulativeIndex",
      "outputs": [
        {
          "internalType": "uint256",
          "name": "",
          "type": "uint256"
        }
      ],
      "payable": false,
      "stateMutability": "view",
      "type": "function"
    },
    {
      "constant": true,
      "inputs": [],
      "name": "getInstruments",
      "outputs": [
        {
          "internalType": "address[]",
          "name": "",
          "type": "address[]"
        }
      ],
      "payable": false,
      "stateMutability": "view",
      "type": "function"
    },
    {
      "constant": true,
      "inputs": [
        {
          "internalType": "address",
          "name": "_instrument",
          "type": "address"
        },
        {
          "internalType": "address",
          "name": "_user",
          "type": "address"
        }
      ],
      "name": "getUserBasicInstrumentData",
      "outputs": [
        {
          "internalType": "uint256",
          "name": "",
          "type": "uint256"
        },
        {
          "internalType": "uint256",
          "name": "",
          "type": "uint256"
        },
        {
          "internalType": "uint256",
          "name": "",
          "type": "uint256"
        },
        {
          "internalType": "bool",
          "name": "",
          "type": "bool"
        }
      ],
      "payable": false,
      "stateMutability": "view",
      "type": "function"
    },
    {
      "constant": true,
      "inputs": [
        {
          "internalType": "address",
          "name": "_instrument",
          "type": "address"
        },
        {
          "internalType": "address",
          "name": "_user",
          "type": "address"
        }
      ],
      "name": "getUserBorrowBalances",
      "outputs": [
        {
          "internalType": "uint256",
          "name": "",
          "type": "uint256"
        },
        {
          "internalType": "uint256",
          "name": "",
          "type": "uint256"
        },
        {
          "internalType": "uint256",
          "name": "",
          "type": "uint256"
        }
      ],
      "payable": false,
      "stateMutability": "view",
      "type": "function"
    },
    {
      "constant": true,
      "inputs": [
        {
          "internalType": "address",
          "name": "_instrument",
          "type": "address"
        },
        {
          "internalType": "address",
          "name": "_user",
          "type": "address"
        }
      ],
      "name": "getUserCurrentBorrowRateMode",
      "outputs": [
        {
          "internalType": "enum CoreLibrary.InterestRateMode",
          "name": "",
          "type": "uint8"
        }
      ],
      "payable": false,
      "stateMutability": "view",
      "type": "function"
    },
    {
      "constant": true,
      "inputs": [
        {
          "internalType": "address",
          "name": "_instrument",
          "type": "address"
        },
        {
          "internalType": "address",
          "name": "_user",
          "type": "address"
        }
      ],
      "name": "getUserCurrentStableBorrowRate",
      "outputs": [
        {
          "internalType": "uint256",
          "name": "",
          "type": "uint256"
        }
      ],
      "payable": false,
      "stateMutability": "view",
      "type": "function"
    },
    {
      "constant": true,
      "inputs": [
        {
          "internalType": "address",
          "name": "_instrument",
          "type": "address"
        },
        {
          "internalType": "address",
          "name": "_user",
          "type": "address"
        }
      ],
      "name": "getUserOriginationFee",
      "outputs": [
        {
          "internalType": "uint256",
          "name": "",
          "type": "uint256"
        }
      ],
      "payable": false,
      "stateMutability": "view",
      "type": "function"
    },
    {
      "constant": true,
      "inputs": [
        {
          "internalType": "address",
          "name": "_instrument",
          "type": "address"
        },
        {
          "internalType": "address",
          "name": "_user",
          "type": "address"
        }
      ],
      "name": "getUserUnderlyingAssetBalance",
      "outputs": [
        {
          "internalType": "uint256",
          "name": "",
          "type": "uint256"
        }
      ],
      "payable": false,
      "stateMutability": "view",
      "type": "function"
    },
    {
      "constant": true,
      "inputs": [
        {
          "internalType": "address",
          "name": "_instrument",
          "type": "address"
        },
        {
          "internalType": "address",
          "name": "_user",
          "type": "address"
        }
      ],
      "name": "getUserVariableBorrowCumulativeIndex",
      "outputs": [
        {
          "internalType": "uint256",
          "name": "",
          "type": "uint256"
        }
      ],
      "payable": false,
      "stateMutability": "view",
      "type": "function"
    },
    {
      "constant": false,
      "inputs": [
        {
          "internalType": "address",
          "name": "_instrument",
          "type": "address"
        },
        {
          "internalType": "address",
          "name": "_iTokenAddress",
          "type": "address"
        },
        {
          "internalType": "uint256",
          "name": "_decimals",
          "type": "uint256"
        },
        {
          "internalType": "address",
          "name": "_interestRateStrategyAddress",
          "type": "address"
        }
      ],
      "name": "initInstrument",
      "outputs": [],
      "payable": false,
      "stateMutability": "nonpayable",
      "type": "function"
    },
    {
      "constant": true,
      "inputs": [
        {
          "internalType": "uint256",
          "name": "",
          "type": "uint256"
        }
      ],
      "name": "instrumentsList",
      "outputs": [
        {
          "internalType": "address",
          "name": "",
          "type": "address"
        }
      ],
      "payable": false,
      "stateMutability": "view",
      "type": "function"
    },
    {
      "constant": true,
      "inputs": [
        {
          "internalType": "address",
          "name": "_instrument",
          "type": "address"
        }
      ],
      "name": "isInstrumentBorrowingEnabled",
      "outputs": [
        {
          "internalType": "bool",
          "name": "",
          "type": "bool"
        }
      ],
      "payable": false,
      "stateMutability": "view",
      "type": "function"
    },
    {
      "constant": true,
      "inputs": [
        {
          "internalType": "address",
          "name": "_instrument",
          "type": "address"
        }
      ],
      "name": "isInstrumentUsageAsCollateralEnabled",
      "outputs": [
        {
          "internalType": "bool",
          "name": "",
          "type": "bool"
        }
      ],
      "payable": false,
      "stateMutability": "view",
      "type": "function"
    },
    {
      "constant": true,
      "inputs": [
        {
          "internalType": "address",
          "name": "_instrument",
          "type": "address"
        },
        {
          "internalType": "address",
          "name": "_user",
          "type": "address"
        },
        {
          "internalType": "uint256",
          "name": "_amount",
          "type": "uint256"
        }
      ],
      "name": "isUserAllowedToBorrowAtStable",
      "outputs": [
        {
          "internalType": "bool",
          "name": "",
          "type": "bool"
        }
      ],
      "payable": false,
      "stateMutability": "view",
      "type": "function"
    },
    {
      "constant": true,
      "inputs": [
        {
          "internalType": "address",
          "name": "_instrument",
          "type": "address"
        },
        {
          "internalType": "address",
          "name": "_user",
          "type": "address"
        }
      ],
      "name": "isUserUseInstrumentAsCollateralEnabled",
      "outputs": [
        {
          "internalType": "bool",
          "name": "",
          "type": "bool"
        }
      ],
      "payable": false,
      "stateMutability": "view",
      "type": "function"
    },
    {
      "constant": true,
      "inputs": [],
      "name": "lendingPoolAddress",
      "outputs": [
        {
          "internalType": "address",
          "name": "",
          "type": "address"
        }
      ],
      "payable": false,
      "stateMutability": "view",
      "type": "function"
    },
    {
      "constant": false,
      "inputs": [
        {
          "internalType": "address",
          "name": "_token",
          "type": "address"
        },
        {
          "internalType": "uint256",
          "name": "_amount",
          "type": "uint256"
        },
        {
          "internalType": "address",
          "name": "_destination",
          "type": "address"
        }
      ],
      "name": "liquidateFee",
      "outputs": [],
      "payable": true,
      "stateMutability": "payable",
      "type": "function"
    },
    {
      "constant": false,
      "inputs": [],
      "name": "refreshConfiguration",
      "outputs": [],
      "payable": false,
      "stateMutability": "nonpayable",
      "type": "function"
    },
    {
      "constant": false,
      "inputs": [
        {
          "internalType": "address",
          "name": "_instrumentToRemove",
          "type": "address"
        }
      ],
      "name": "removeLastAddedInstrument",
      "outputs": [],
      "payable": false,
      "stateMutability": "nonpayable",
      "type": "function"
    },
    {
      "constant": false,
      "inputs": [
        {
          "internalType": "address",
          "name": "_instrument",
          "type": "address"
        },
        {
          "internalType": "uint256",
          "name": "_ltv",
          "type": "uint256"
        }
      ],
      "name": "setInstrumentBaseLTVasCollateral",
      "outputs": [],
      "payable": false,
      "stateMutability": "nonpayable",
      "type": "function"
    },
    {
      "constant": false,
      "inputs": [
        {
          "internalType": "address",
          "name": "_instrument",
          "type": "address"
        },
        {
          "internalType": "uint256",
          "name": "_decimals",
          "type": "uint256"
        }
      ],
      "name": "setInstrumentDecimals",
      "outputs": [],
      "payable": false,
      "stateMutability": "nonpayable",
      "type": "function"
    },
    {
      "constant": false,
      "inputs": [
        {
          "internalType": "address",
          "name": "_instrument",
          "type": "address"
        },
        {
          "internalType": "address",
          "name": "_rateStrategyAddress",
          "type": "address"
        }
      ],
      "name": "setInstrumentInterestRateStrategyAddress",
      "outputs": [],
      "payable": false,
      "stateMutability": "nonpayable",
      "type": "function"
    },
    {
      "constant": false,
      "inputs": [
        {
          "internalType": "address",
          "name": "_instrument",
          "type": "address"
        },
        {
          "internalType": "uint256",
          "name": "_bonus",
          "type": "uint256"
        }
      ],
      "name": "setInstrumentLiquidationBonus",
      "outputs": [],
      "payable": false,
      "stateMutability": "nonpayable",
      "type": "function"
    },
    {
      "constant": false,
      "inputs": [
        {
          "internalType": "address",
          "name": "_instrument",
          "type": "address"
        },
        {
          "internalType": "uint256",
          "name": "_threshold",
          "type": "uint256"
        }
      ],
      "name": "setInstrumentLiquidationThreshold",
      "outputs": [],
      "payable": false,
      "stateMutability": "nonpayable",
      "type": "function"
    },
    {
      "constant": false,
      "inputs": [
        {
          "internalType": "address",
          "name": "_instrument",
          "type": "address"
        },
        {
          "internalType": "address",
          "name": "_user",
          "type": "address"
        },
        {
          "internalType": "bool",
          "name": "_useAsCollateral",
          "type": "bool"
        }
      ],
      "name": "setUserUseInstrumentAsCollateral",
      "outputs": [],
      "payable": false,
      "stateMutability": "nonpayable",
      "type": "function"
    },
    {
      "constant": true,
      "inputs": [],
      "name": "sighMechanism",
      "outputs": [
        {
          "internalType": "contract ISighDistributionHandler",
          "name": "",
          "type": "address"
        }
      ],
      "payable": false,
      "stateMutability": "view",
      "type": "function"
    },
    {
      "constant": false,
      "inputs": [
        {
          "internalType": "address",
          "name": "_token",
          "type": "address"
        },
        {
          "internalType": "address",
          "name": "_user",
          "type": "address"
        },
        {
          "internalType": "uint256",
          "name": "_amount",
          "type": "uint256"
        },
        {
          "internalType": "address",
          "name": "_destination",
          "type": "address"
        }
      ],
      "name": "transferToFeeCollectionAddress",
      "outputs": [],
      "payable": true,
      "stateMutability": "payable",
      "type": "function"
    },
    {
      "constant": false,
      "inputs": [
        {
          "internalType": "address",
          "name": "_instrument",
          "type": "address"
        },
        {
          "internalType": "address payable",
          "name": "_user",
          "type": "address"
        },
        {
          "internalType": "uint256",
          "name": "_amount",
          "type": "uint256"
        }
      ],
      "name": "transferToReserve",
      "outputs": [],
      "payable": true,
      "stateMutability": "payable",
      "type": "function"
    },
    {
      "constant": false,
      "inputs": [
        {
          "internalType": "address",
          "name": "_instrument",
          "type": "address"
        },
        {
          "internalType": "address payable",
          "name": "_user",
          "type": "address"
        },
        {
          "internalType": "uint256",
          "name": "_amount",
          "type": "uint256"
        }
      ],
      "name": "transferToUser",
      "outputs": [],
      "payable": false,
      "stateMutability": "nonpayable",
      "type": "function"
    },
    {
      "constant": false,
      "inputs": [
        {
          "internalType": "address",
          "name": "_instrument",
          "type": "address"
        }
      ],
      "name": "unfreezeInstrument",
      "outputs": [],
      "payable": false,
      "stateMutability": "nonpayable",
      "type": "function"
    },
    {
      "constant": false,
      "inputs": [
        {
          "internalType": "address",
          "name": "_instrument",
          "type": "address"
        },
        {
          "internalType": "address",
          "name": "_user",
          "type": "address"
        },
        {
          "internalType": "uint256",
          "name": "_amountBorrowed",
          "type": "uint256"
        },
        {
          "internalType": "uint256",
          "name": "_borrowFee",
          "type": "uint256"
        },
        {
          "internalType": "enum CoreLibrary.InterestRateMode",
          "name": "_rateMode",
          "type": "uint8"
        }
      ],
      "name": "updateStateOnBorrow",
      "outputs": [
        {
          "internalType": "uint256",
          "name": "",
          "type": "uint256"
        },
        {
          "internalType": "uint256",
          "name": "",
          "type": "uint256"
        }
      ],
      "payable": false,
      "stateMutability": "nonpayable",
      "type": "function"
    },
    {
      "constant": false,
      "inputs": [
        {
          "internalType": "address",
          "name": "_instrument",
          "type": "address"
        },
        {
          "internalType": "address",
          "name": "_user",
          "type": "address"
        },
        {
          "internalType": "uint256",
          "name": "_amount",
          "type": "uint256"
        },
        {
          "internalType": "bool",
          "name": "_isFirstDeposit",
          "type": "bool"
        }
      ],
      "name": "updateStateOnDeposit",
      "outputs": [],
      "payable": false,
      "stateMutability": "nonpayable",
      "type": "function"
    },
    {
      "constant": false,
      "inputs": [
        {
          "internalType": "address",
          "name": "_instrument",
          "type": "address"
        },
        {
          "internalType": "uint256",
          "name": "_availableLiquidityBefore",
          "type": "uint256"
        },
        {
          "internalType": "uint256",
          "name": "_income",
          "type": "uint256"
        },
        {
          "internalType": "uint256",
          "name": "_protocolFee",
          "type": "uint256"
        }
      ],
      "name": "updateStateOnFlashLoan",
      "outputs": [],
      "payable": false,
      "stateMutability": "nonpayable",
      "type": "function"
    },
    {
      "constant": false,
      "inputs": [
        {
          "internalType": "address",
          "name": "_principalInstrument",
          "type": "address"
        },
        {
          "internalType": "address",
          "name": "_collateralInstrument",
          "type": "address"
        },
        {
          "internalType": "address",
          "name": "_user",
          "type": "address"
        },
        {
          "internalType": "uint256",
          "name": "_amountToLiquidate",
          "type": "uint256"
        },
        {
          "internalType": "uint256",
          "name": "_collateralToLiquidate",
          "type": "uint256"
        },
        {
          "internalType": "uint256",
          "name": "_feeLiquidated",
          "type": "uint256"
        },
        {
          "internalType": "uint256",
          "name": "_liquidatedCollateralForFee",
          "type": "uint256"
        },
        {
          "internalType": "uint256",
          "name": "_balanceIncrease",
          "type": "uint256"
        },
        {
          "internalType": "bool",
          "name": "_liquidatorReceivesIToken",
          "type": "bool"
        }
      ],
      "name": "updateStateOnLiquidation",
      "outputs": [],
      "payable": false,
      "stateMutability": "nonpayable",
      "type": "function"
    },
    {
      "constant": false,
      "inputs": [
        {
          "internalType": "address",
          "name": "_instrument",
          "type": "address"
        },
        {
          "internalType": "address",
          "name": "_user",
          "type": "address"
        },
        {
          "internalType": "uint256",
          "name": "_balanceIncrease",
          "type": "uint256"
        }
      ],
      "name": "updateStateOnRebalance",
      "outputs": [
        {
          "internalType": "uint256",
          "name": "",
          "type": "uint256"
        }
      ],
      "payable": false,
      "stateMutability": "nonpayable",
      "type": "function"
    },
    {
      "constant": false,
      "inputs": [
        {
          "internalType": "address",
          "name": "_instrument",
          "type": "address"
        },
        {
          "internalType": "address",
          "name": "_user",
          "type": "address"
        },
        {
          "internalType": "uint256",
          "name": "_amountRedeemed",
          "type": "uint256"
        },
        {
          "internalType": "bool",
          "name": "_userRedeemedEverything",
          "type": "bool"
        }
      ],
      "name": "updateStateOnRedeem",
      "outputs": [],
      "payable": false,
      "stateMutability": "nonpayable",
      "type": "function"
    },
    {
      "constant": false,
      "inputs": [
        {
          "internalType": "address",
          "name": "_instrument",
          "type": "address"
        },
        {
          "internalType": "address",
          "name": "_user",
          "type": "address"
        },
        {
          "internalType": "uint256",
          "name": "_paybackAmountMinusFees",
          "type": "uint256"
        },
        {
          "internalType": "uint256",
          "name": "_originationFeeRepaid",
          "type": "uint256"
        },
        {
          "internalType": "uint256",
          "name": "_balanceIncrease",
          "type": "uint256"
        },
        {
          "internalType": "bool",
          "name": "_repaidWholeLoan",
          "type": "bool"
        }
      ],
      "name": "updateStateOnRepay",
      "outputs": [],
      "payable": false,
      "stateMutability": "nonpayable",
      "type": "function"
    },
    {
      "constant": false,
      "inputs": [
        {
          "internalType": "address",
          "name": "_instrument",
          "type": "address"
        },
        {
          "internalType": "address",
          "name": "_user",
          "type": "address"
        },
        {
          "internalType": "uint256",
          "name": "_principalBorrowBalance",
          "type": "uint256"
        },
        {
          "internalType": "uint256",
          "name": "_compoundedBorrowBalance",
          "type": "uint256"
        },
        {
          "internalType": "uint256",
          "name": "_balanceIncrease",
          "type": "uint256"
        },
        {
          "internalType": "enum CoreLibrary.InterestRateMode",
          "name": "_currentRateMode",
          "type": "uint8"
        }
      ],
      "name": "updateStateOnSwapRate",
      "outputs": [
        {
          "internalType": "enum CoreLibrary.InterestRateMode",
          "name": "",
          "type": "uint8"
        },
        {
          "internalType": "uint256",
          "name": "",
          "type": "uint256"
        }
      ],
      "payable": false,
      "stateMutability": "nonpayable",
      "type": "function"
    },
    {
      "constant": false,
      "inputs": [
        {
          "internalType": "contract GlobalAddressesProvider",
          "name": "_addressesProvider",
          "type": "address"
        }
      ],
      "name": "initialize",
      "outputs": [],
      "payable": false,
      "stateMutability": "nonpayable",
      "type": "function"
    }
  ],
  "bytecode": "0x60806040526000805534801561001457600080fd5b50615fef80620000256000396000f3fe60806040526004361061041a5760003560e01c80639f15d5c61161021e578063d3ae26b311610123578063f11c4594116100ab578063fbab24051161007a578063fbab2405146113fa578063fcfe58c81461142d578063feab31ac14611468578063ff6ad9d3146114a3578063ffa388b0146114cd5761041a565b8063f11c4594146112c5578063f6148311146112f8578063f6ea8d761461137c578063fa93b2a5146113b75761041a565b8063e2174d86116100f2578063e2174d8614611186578063e6df474e146111c9578063ea84c1ba1461120e578063ecc9e37214611241578063ee9c22811461128a5761041a565b8063d3ae26b3146110b4578063da12d96f146110c9578063da90169014611120578063dc08d848146111535761041a565b8063c172350b116101a6578063c7d1423711610175578063c7d1423714610fc4578063cc9334b214611000578063d0c5554814611039578063d1c4c0fa1461106c578063d34651e71461109f5761041a565b8063c172350b14610eee578063c4d66de814610f21578063c619adac14610f54578063c72c4d1014610faf5761041a565b8063aea3b07e116101ed578063aea3b07e14610daf578063af825b0714610de2578063afcdbea314610e25578063bcd6ffa414610e70578063c0e1dff714610ebb5761041a565b80639f15d5c614610cbd5780639fb8afcd14610cf0578063a4637e7b14610d49578063aafa6de014610d7c5761041a565b80633a80e0471161032457806366a3f18b116102ac57806375d87acc1161027b57806375d87acc14610bbb578063792a0feb14610bee5780638bb3a3c414610c215780638f385c2214610c54578063959fc3e514610c8a5761041a565b806366a3f18b14610aa9578063683775a214610ae257806368beb4d614610b155780636fffab0c14610b805761041a565b80635610992a116102f35780635610992a146109c057806356df9ca2146109fb5780635cfdd99414610a2e578063609cb28914610a615780636468108314610a945761041a565b80633a80e047146108da5780633c035866146109155780634375ddae1461094857806354e665621461098d5761041a565b806318a4dbca116103a75780632706e94e116103765780632706e94e1461079f57806328fcf4d3146107d25780632b0475e1146108085780632b169ae31461083b57806337ac6fe41461086e5761041a565b806318a4dbca1461069f5780631ca19f19146106da5780631f7dbbf614610739578063245720ec1461076c5761041a565b80630feb5d88116103ee5780630feb5d881461053857806310183a351461058757806311a92bd7146105ce5780631635717c14610607578063174ec5391461066c5761041a565b80624646f61461046057806307ce32a51461049957806309ac2953146104de5780630c7de4e914610523575b6104233361151a565b61045e5760405162461bcd60e51b8152600401808060200182810382526036815260200180615d0e6036913960400191505060405180910390fd5b005b34801561046c57600080fd5b5061045e6004803603604081101561048357600080fd5b506001600160a01b038135169060200135611524565b3480156104a557600080fd5b506104cc600480360360208110156104bc57600080fd5b50356001600160a01b03166115f8565b60408051918252519081900360200190f35b3480156104ea57600080fd5b5061045e6004803603608081101561050157600080fd5b506001600160a01b038135169060208101359060408101359060600135611616565b34801561052f57600080fd5b506104cc6116e4565b34801561054457600080fd5b5061056b6004803603602081101561055b57600080fd5b50356001600160a01b03166116e9565b604080516001600160a01b039092168252519081900360200190f35b34801561059357600080fd5b506105ba600480360360208110156105aa57600080fd5b50356001600160a01b031661170a565b604080519115158252519081900360200190f35b3480156105da57600080fd5b5061045e600480360360408110156105f157600080fd5b506001600160a01b038135169060200135611732565b34801561061357600080fd5b5061061c611806565b60408051602080825283518183015283519192839290830191858101910280838360005b83811015610658578181015183820152602001610640565b505050509050019250505060405180910390f35b34801561067857600080fd5b5061045e6004803603602081101561068f57600080fd5b50356001600160a01b0316611868565b3480156106ab57600080fd5b506104cc600480360360408110156106c257600080fd5b506001600160a01b0381358116916020013516611997565b3480156106e657600080fd5b50610715600480360360408110156106fd57600080fd5b506001600160a01b0381358116916020013516611a2a565b6040518082600281111561072557fe5b60ff16815260200191505060405180910390f35b34801561074557600080fd5b5061045e6004803603602081101561075c57600080fd5b50356001600160a01b0316611a7f565b34801561077857600080fd5b506104cc6004803603602081101561078f57600080fd5b50356001600160a01b0316611b61565b3480156107ab57600080fd5b506105ba600480360360208110156107c257600080fd5b50356001600160a01b0316611b82565b61045e600480360360608110156107e857600080fd5b506001600160a01b03813581169160208101359091169060400135611baa565b34801561081457600080fd5b506104cc6004803603602081101561082b57600080fd5b50356001600160a01b0316611d75565b34801561084757600080fd5b5061045e6004803603602081101561085e57600080fd5b50356001600160a01b0316611d9d565b34801561087a57600080fd5b506108c1600480360360a081101561089157600080fd5b5080356001600160a01b03908116916020810135909116906040810135906060810135906080013560ff16611fa2565b6040805192835260208301919091528051918290030190f35b3480156108e657600080fd5b5061045e600480360360408110156108fd57600080fd5b506001600160a01b0381351690602001351515612138565b34801561092157600080fd5b506104cc6004803603602081101561093857600080fd5b50356001600160a01b0316612277565b34801561095457600080fd5b5061045e6004803603606081101561096b57600080fd5b506001600160a01b038135811691602081013590911690604001351515612295565b34801561099957600080fd5b506104cc600480360360208110156109b057600080fd5b50356001600160a01b0316612327565b3480156109cc57600080fd5b5061045e600480360360408110156109e357600080fd5b506001600160a01b0381358116916020013516612345565b348015610a0757600080fd5b5061045e60048036036020811015610a1e57600080fd5b50356001600160a01b031661242b565b348015610a3a57600080fd5b506104cc60048036036020811015610a5157600080fd5b50356001600160a01b0316612507565b348015610a6d57600080fd5b506104cc60048036036020811015610a8457600080fd5b50356001600160a01b03166125b7565b348015610aa057600080fd5b5061045e6125d5565b348015610ab557600080fd5b5061045e60048036036040811015610acc57600080fd5b506001600160a01b038135169060200135612694565b348015610aee57600080fd5b5061045e60048036036020811015610b0557600080fd5b50356001600160a01b0316612768565b348015610b2157600080fd5b5061045e6004803603610120811015610b3957600080fd5b506001600160a01b03813581169160208101358216916040820135169060608101359060808101359060a08101359060c08101359060e08101359061010001351515612844565b348015610b8c57600080fd5b506104cc60048036036040811015610ba357600080fd5b506001600160a01b0381358116916020013516612a50565b348015610bc757600080fd5b506105ba60048036036020811015610bde57600080fd5b50356001600160a01b0316612a7f565b348015610bfa57600080fd5b506104cc60048036036020811015610c1157600080fd5b50356001600160a01b0316612aa7565b348015610c2d57600080fd5b506105ba60048036036020811015610c4457600080fd5b50356001600160a01b0316612ae0565b61045e60048036036060811015610c6a57600080fd5b506001600160a01b03813581169160208101359160409091013516612b08565b348015610c9657600080fd5b506104cc60048036036020811015610cad57600080fd5b50356001600160a01b0316612c24565b348015610cc957600080fd5b506104cc60048036036020811015610ce057600080fd5b50356001600160a01b0316612c3f565b348015610cfc57600080fd5b50610d2b60048036036040811015610d1357600080fd5b506001600160a01b0381358116916020013516612ce3565b60408051938452602084019290925282820152519081900360600190f35b348015610d5557600080fd5b5061045e60048036036020811015610d6c57600080fd5b50356001600160a01b0316612d6e565b348015610d8857600080fd5b5061056b60048036036020811015610d9f57600080fd5b50356001600160a01b0316612e4a565b348015610dbb57600080fd5b506104cc60048036036020811015610dd257600080fd5b50356001600160a01b0316612e6b565b348015610dee57600080fd5b506104cc60048036036060811015610e0557600080fd5b506001600160a01b03813581169160208101359091169060400135612f93565b348015610e3157600080fd5b5061045e60048036036080811015610e4857600080fd5b506001600160a01b038135811691602081013590911690604081013590606001351515613121565b348015610e7c57600080fd5b5061045e60048036036080811015610e9357600080fd5b506001600160a01b038135811691602081013590911690604081013590606001351515613224565b348015610ec757600080fd5b5061045e60048036036020811015610ede57600080fd5b50356001600160a01b0316613327565b348015610efa57600080fd5b506104cc60048036036020811015610f1157600080fd5b50356001600160a01b0316613409565b348015610f2d57600080fd5b5061045e60048036036020811015610f4457600080fd5b50356001600160a01b0316613427565b348015610f6057600080fd5b50610f8760048036036020811015610f7757600080fd5b50356001600160a01b03166134e6565b6040805194855260208501939093528383019190915215156060830152519081900360800190f35b348015610fbb57600080fd5b5061056b613524565b61045e60048036036080811015610fda57600080fd5b506001600160a01b03813581169160208101358216916040820135916060013516613533565b34801561100c57600080fd5b5061045e6004803603604081101561102357600080fd5b506001600160a01b0381351690602001356136dd565b34801561104557600080fd5b506105ba6004803603602081101561105c57600080fd5b50356001600160a01b03166137b1565b34801561107857600080fd5b506104cc6004803603602081101561108f57600080fd5b50356001600160a01b03166137d9565b3480156110ab57600080fd5b5061056b613843565b3480156110c057600080fd5b5061056b613852565b3480156110d557600080fd5b5061045e600480360360c08110156110ec57600080fd5b506001600160a01b03813581169160208101359091169060408101359060608101359060808101359060a001351515613861565b34801561112c57600080fd5b5061045e6004803603602081101561114357600080fd5b50356001600160a01b03166139c7565b34801561115f57600080fd5b506104cc6004803603602081101561117657600080fd5b50356001600160a01b0316613afa565b34801561119257600080fd5b506105ba600480360360608110156111a957600080fd5b506001600160a01b03813581169160208101359091169060400135613b18565b3480156111d557600080fd5b5061045e600480360360808110156111ec57600080fd5b506001600160a01b038135169060208101359060408101359060600135613bae565b34801561121a57600080fd5b5061045e6004803603602081101561123157600080fd5b50356001600160a01b0316613cfc565b34801561124d57600080fd5b5061045e6004803603608081101561126457600080fd5b506001600160a01b03813581169160208101358216916040820135916060013516613e17565b34801561129657600080fd5b506105ba600480360360408110156112ad57600080fd5b506001600160a01b0381358116916020013516614030565b3480156112d157600080fd5b506104cc600480360360208110156112e857600080fd5b50356001600160a01b0316614069565b34801561130457600080fd5b50611351600480360360c081101561131b57600080fd5b5080356001600160a01b039081169160208101359091169060408101359060608101359060808101359060a0013560ff16614087565b6040518083600281111561136157fe5b60ff1681526020018281526020019250505060405180910390f35b34801561138857600080fd5b506104cc6004803603604081101561139f57600080fd5b506001600160a01b0381358116916020013516614208565b3480156113c357600080fd5b5061045e600480360360608110156113da57600080fd5b506001600160a01b03813581169160208101359091169060400135614237565b34801561140657600080fd5b506104cc6004803603602081101561141d57600080fd5b50356001600160a01b031661435e565b34801561143957600080fd5b50610f876004803603604081101561145057600080fd5b506001600160a01b038135811691602001351661437c565b34801561147457600080fd5b506104cc6004803603604081101561148b57600080fd5b506001600160a01b0381358116916020013516614429565b3480156114af57600080fd5b5061056b600480360360208110156114c657600080fd5b5035614458565b3480156114d957600080fd5b50611500600480360360208110156114f057600080fd5b50356001600160a01b031661447f565b6040805164ffffffffff9092168252519081900360200190f35b803b15155b919050565b603454604080516385c858b160e01b8152905133926001600160a01b0316916385c858b1916004808301926020929190829003018186803b15801561156857600080fd5b505afa15801561157c573d6000803e3d6000fd5b505050506040513d602081101561159257600080fd5b50516001600160a01b0316146115d95760405162461bcd60e51b8152600401808060200182810382526038815260200180615f836038913960400191505060405180910390fd5b6001600160a01b03909116600090815260386020526040902060080155565b6001600160a01b031660009081526038602052604090206007015490565b6035546001600160a01b0316331461165f5760405162461bcd60e51b815260040180806020018281038252602a815260200180615e6e602a913960400191505060405180910390fd5b61166984826144ab565b6001600160a01b038416600090815260386020526040902061168a9061458e565b60006116a561169886611b61565b859063ffffffff61462616565b6001600160a01b03861660009081526038602052604090209091506116d190828563ffffffff61468016565b6116dd858460006146de565b5050505050565b600181565b6001600160a01b039081166000908152603860205260409020600d01541690565b6001600160a01b03166000908152603860205260409020600d0154600160c81b900460ff1690565b603454604080516385c858b160e01b8152905133926001600160a01b0316916385c858b1916004808301926020929190829003018186803b15801561177657600080fd5b505afa15801561178a573d6000803e3d6000fd5b505050506040513d60208110156117a057600080fd5b50516001600160a01b0316146117e75760405162461bcd60e51b8152600401808060200182810382526038815260200180615f836038913960400191505060405180910390fd5b6001600160a01b03909116600090815260386020526040902060090155565b6060603780548060200260200160405190810160405280929190818152602001828054801561185e57602002820191906000526020600020905b81546001600160a01b03168152600190910190602001808311611840575b5050505050905090565b603454604080516385c858b160e01b8152905133926001600160a01b0316916385c858b1916004808301926020929190829003018186803b1580156118ac57600080fd5b505afa1580156118c0573d6000803e3d6000fd5b505050506040513d60208110156118d657600080fd5b50516001600160a01b03161461191d5760405162461bcd60e51b8152600401808060200182810382526038815260200180615f836038913960400191505060405180910390fd5b6001600160a01b0381166000908152603860205260408082208151630ea746e560e41b81526004810191909152905173__CoreLibrary___________________________9263ea746e509260248082019391829003018186803b15801561198357600080fd5b505af41580156116dd573d6000803e3d6000fd5b6001600160a01b038083166000908152603860209081526040808320600c015481516370a0823160e01b8152868616600482015291519394169283926370a082319260248082019391829003018186803b1580156119f457600080fd5b505afa158015611a08573d6000803e3d6000fd5b505050506040513d6020811015611a1e57600080fd5b50519150505b92915050565b6001600160a01b03808216600090815260396020908152604080832093861683529290529081208054611a61576000915050611a24565b6000816003015411611a74576002611a77565b60015b949350505050565b603454604080516385c858b160e01b8152905133926001600160a01b0316916385c858b1916004808301926020929190829003018186803b158015611ac357600080fd5b505afa158015611ad7573d6000803e3d6000fd5b505050506040513d6020811015611aed57600080fd5b50516001600160a01b031614611b345760405162461bcd60e51b8152600401808060200182810382526038815260200180615f836038913960400191505060405180910390fd5b6001600160a01b03166000908152603860205260409020600d01805460ff60e81b1916600160e81b179055565b6001600160a01b0381166000908152603860205260408120611a249061471f565b6001600160a01b03166000908152603860205260409020600d0154600160e01b900460ff1690565b6035546001600160a01b03163314611bf35760405162461bcd60e51b815260040180806020018281038252602a815260200180615e6e602a913960400191505060405180910390fd5b611bfb61473c565b6001600160a01b0316836001600160a01b031614611c70573415611c505760405162461bcd60e51b8152600401808060200182810382526032815260200180615d676032913960400191505060405180910390fd5b611c6b6001600160a01b03841683308463ffffffff61475416565b611d70565b80341015611caf5760405162461bcd60e51b8152600401808060200182810382526035815260200180615cd96035913960400191505060405180910390fd5b80341115611d70576000611cc9348363ffffffff6147ae16565b6040519091506000906001600160a01b0385169061c35090849084818181858888f193505050503d8060008114611d1c576040519150601f19603f3d011682016040523d82523d6000602084013e611d21565b606091505b50509050806116dd576040805162461bcd60e51b8152602060048201526016602482015275151c985b9cd9995c881bd9881155120819985a5b195960521b604482015290519081900360640190fd5b505050565b6001600160a01b0381166000908152603860205260408120611d96816147f0565b9392505050565b603454604080516385c858b160e01b8152905133926001600160a01b0316916385c858b1916004808301926020929190829003018186803b158015611de157600080fd5b505afa158015611df5573d6000803e3d6000fd5b505050506040513d6020811015611e0b57600080fd5b50516001600160a01b031614611e525760405162461bcd60e51b8152600401808060200182810382526038815260200180615f836038913960400191505060405180910390fd5b60378054600091906000198101908110611e6857fe5b6000918252602090912001546001600160a01b03908116915082168114611ec05760405162461bcd60e51b8152600401808060200182810382526043815260200180615f406043913960600191505060405180910390fd5b611ec981611b61565b15611f055760405162461bcd60e51b8152600401808060200182810382526034815260200180615ca56034913960400191505060405180910390fd5b6001600160a01b0381166000908152603860205260408120600d81018054600c830180546001600160a01b0319169055600b8301849055838355600783018490556008830184905560098301849055600a90920192909255600168ff00ffff000000000160a01b03191690556037805480611f7c57fe5b600082815260209020810160001990810180546001600160a01b03191690550190555050565b60355460009081906001600160a01b03163314611ff05760405162461bcd60e51b815260040180806020018281038252602a815260200180615e6e602a913960400191505060405180910390fd5b60365460408051630f8a56cd60e31b81526001600160a01b038a8116600483015291519190921691637c52b6689160248083019260209291908290030181600087803b15801561203f57600080fd5b505af1158015612053573d6000803e3d6000fd5b505050506040513d602081101561206957600080fd5b5060009050806120798989612ce3565b6001600160a01b03808d16600090815260386020526040808220600c015481516369e61c0f60e11b81528f851660048201529151969850939650929091169384935063d3cc381e92602480820193929182900301818387803b1580156120de57600080fd5b505af11580156120f2573d6000803e3d6000fd5b505050506121048a8a85858c8b61482a565b6121128a8a8a858b8b614859565b61211e8a60008a6146de565b6121288a8a61497e565b9a91995090975050505050505050565b603454604080516385c858b160e01b8152905133926001600160a01b0316916385c858b1916004808301926020929190829003018186803b15801561217c57600080fd5b505afa158015612190573d6000803e3d6000fd5b505050506040513d60208110156121a657600080fd5b50516001600160a01b0316146121ed5760405162461bcd60e51b8152600401808060200182810382526038815260200180615f836038913960400191505060405180910390fd5b6001600160a01b0382166000908152603860205260408082208151633994c3f760e11b815260048101919091528315156024820152905173__CoreLibrary___________________________9263732987ee9260448082019391829003018186803b15801561225b57600080fd5b505af415801561226f573d6000803e3d6000fd5b505050505050565b6001600160a01b031660009081526038602052604090206001015490565b6035546001600160a01b031633146122de5760405162461bcd60e51b815260040180806020018281038252602a815260200180615e6e602a913960400191505060405180910390fd5b6001600160a01b0391821660009081526039602090815260408083209590941682529390935291206004018054911515600160281b0265ff000000000019909216919091179055565b6001600160a01b031660009081526038602052604090206003015490565b603454604080516385c858b160e01b8152905133926001600160a01b0316916385c858b1916004808301926020929190829003018186803b15801561238957600080fd5b505afa15801561239d573d6000803e3d6000fd5b505050506040513d60208110156123b357600080fd5b50516001600160a01b0316146123fa5760405162461bcd60e51b8152600401808060200182810382526038815260200180615f836038913960400191505060405180910390fd5b6001600160a01b039182166000908152603860205260409020600d0180546001600160a01b03191691909216179055565b603454604080516385c858b160e01b8152905133926001600160a01b0316916385c858b1916004808301926020929190829003018186803b15801561246f57600080fd5b505afa158015612483573d6000803e3d6000fd5b505050506040513d602081101561249957600080fd5b50516001600160a01b0316146124e05760405162461bcd60e51b8152600401808060200182810382526038815260200180615f836038913960400191505060405180910390fd5b6001600160a01b03166000908152603860205260409020600d01805460ff60e01b19169055565b6001600160a01b038116600090815260386020526040812060048101546125ad5780600d0160009054906101000a90046001600160a01b03166001600160a01b03166334762ca56040518163ffffffff1660e01b815260040160206040518083038186803b15801561257857600080fd5b505afa15801561258c573d6000803e3d6000fd5b505050506040513d60208110156125a257600080fd5b5051915061151f9050565b6004015492915050565b6001600160a01b031660009081526038602052604090206009015490565b603454604080516385c858b160e01b8152905133926001600160a01b0316916385c858b1916004808301926020929190829003018186803b15801561261957600080fd5b505afa15801561262d573d6000803e3d6000fd5b505050506040513d602081101561264357600080fd5b50516001600160a01b03161461268a5760405162461bcd60e51b8152600401808060200182810382526038815260200180615f836038913960400191505060405180910390fd5b612692614a10565b565b603454604080516385c858b160e01b8152905133926001600160a01b0316916385c858b1916004808301926020929190829003018186803b1580156126d857600080fd5b505afa1580156126ec573d6000803e3d6000fd5b505050506040513d602081101561270257600080fd5b50516001600160a01b0316146127495760405162461bcd60e51b8152600401808060200182810382526038815260200180615f836038913960400191505060405180910390fd5b6001600160a01b039091166000908152603860205260409020600a0155565b603454604080516385c858b160e01b8152905133926001600160a01b0316916385c858b1916004808301926020929190829003018186803b1580156127ac57600080fd5b505afa1580156127c0573d6000803e3d6000fd5b505050506040513d60208110156127d657600080fd5b50516001600160a01b03161461281d5760405162461bcd60e51b8152600401808060200182810382526038815260200180615f836038913960400191505060405180910390fd5b6001600160a01b03166000908152603860205260409020600d01805460ff60d81b19169055565b6035546001600160a01b0316331461288d5760405162461bcd60e51b815260040180806020018281038252602a815260200180615e6e602a913960400191505060405180910390fd5b60365460408051630f8a56cd60e31b81526001600160a01b038c8116600483015291519190921691637c52b6689160248083019260209291908290030181600087803b1580156128dc57600080fd5b505af11580156128f0573d6000803e3d6000fd5b505050506040513d602081101561290657600080fd5b505060365460408051634f425fbb60e01b81526001600160a01b038b8116600483015291519190921691634f425fbb9160248083019260209291908290030181600087803b15801561295757600080fd5b505af115801561296b573d6000803e3d6000fd5b505050506040513d602081101561298157600080fd5b50506001600160a01b03808a16600090815260386020526040808220600c015481516369e61c0f60e11b81528b851660048201529151931692839263d3cc381e926024808201939182900301818387803b1580156129de57600080fd5b505af11580156129f2573d6000803e3d6000fd5b50505050612a028a898986614b30565b612a0b89614be0565b612a188a89898887614c04565b612a248a8860006146de565b81612a4457612a44896000612a3f898863ffffffff61462616565b6146de565b50505050505050505050565b6001600160a01b0380821660009081526039602090815260408083209386168352929052206003015492915050565b6001600160a01b03166000908152603860205260409020600d0154600160d81b900460ff1690565b6001600160a01b0381166000908152603860205260408120611d96612acb8261471f565b612ad485612c3f565b9063ffffffff61462616565b6001600160a01b03166000908152603860205260409020600d0154600160e81b900460ff1690565b6035546001600160a01b03163314612b515760405162461bcd60e51b815260040180806020018281038252602a815260200180615e6e602a913960400191505060405180910390fd5b803415612b8f5760405162461bcd60e51b8152600401808060200182810382526036815260200180615c1f6036913960400191505060405180910390fd5b612b9761473c565b6001600160a01b0316846001600160a01b031614612bce57612bc96001600160a01b038516828563ffffffff614cc216565b612c1e565b6040516000906001600160a01b0383169061c35090869084818181858888f193505050503d8060008114611d1c576040519150601f19603f3d011682016040523d82523d6000602084013e611d21565b50505050565b6001600160a01b031660009081526038602052604090205490565b600080612c4a61473c565b6001600160a01b0316836001600160a01b03161415612c6a575047611a24565b604080516370a0823160e01b815230600482015290516001600160a01b038516916370a08231916024808301926020929190829003018186803b158015612cb057600080fd5b505afa158015612cc4573d6000803e3d6000fd5b505050506040513d6020811015612cda57600080fd5b50519392505050565b6001600160a01b0380821660009081526039602090815260408083209386168352929052908120805482918291612d24575060009250829150819050612d67565b80546001600160a01b0387166000908152603860205260408120612d49908490614d14565b90508181612d5d818363ffffffff6147ae16565b9550955095505050505b9250925092565b603454604080516385c858b160e01b8152905133926001600160a01b0316916385c858b1916004808301926020929190829003018186803b158015612db257600080fd5b505afa158015612dc6573d6000803e3d6000fd5b505050506040513d6020811015612ddc57600080fd5b50516001600160a01b031614612e235760405162461bcd60e51b8152600401808060200182810382526038815260200180615f836038913960400191505060405180910390fd5b6001600160a01b03166000908152603860205260409020600d01805460ff60e81b19169055565b6001600160a01b039081166000908152603860205260409020600c01541690565b6001600160a01b0380821660009081526038602090815260408083206034548251631b0c55dd60e11b815292519495919486949190921692633618abba9260048083019392829003018186803b158015612ec457600080fd5b505afa158015612ed8573d6000803e3d6000fd5b505050506040513d6020811015612eee57600080fd5b50516005830154909150612f8857806001600160a01b031663bb85c0bb856040518263ffffffff1660e01b815260040180826001600160a01b03166001600160a01b0316815260200191505060206040518083038186803b158015612f5257600080fd5b505afa158015612f66573d6000803e3d6000fd5b505050506040513d6020811015612f7c57600080fd5b5051925061151f915050565b506005015492915050565b6035546000906001600160a01b03163314612fdf5760405162461bcd60e51b815260040180806020018281038252602a815260200180615e6e602a913960400191505060405180910390fd5b60365460408051630f8a56cd60e31b81526001600160a01b03878116600483015291519190921691637c52b6689160248083019260209291908290030181600087803b15801561302e57600080fd5b505af1158015613042573d6000803e3d6000fd5b505050506040513d602081101561305857600080fd5b50506001600160a01b03808516600090815260386020526040808220600c015481516369e61c0f60e11b815287851660048201529151931692839263d3cc381e926024808201939182900301818387803b1580156130b557600080fd5b505af11580156130c9573d6000803e3d6000fd5b505050506130d8858585614dfa565b6130e3858585614e4a565b6130ef856000806146de565b50506001600160a01b038083166000908152603960209081526040808320938716835292905220600301549392505050565b6035546001600160a01b0316331461316a5760405162461bcd60e51b815260040180806020018281038252602a815260200180615e6e602a913960400191505060405180910390fd5b60365460408051634f425fbb60e01b81526001600160a01b03878116600483015291519190921691634f425fbb9160248083019260209291908290030181600087803b1580156131b957600080fd5b505af11580156131cd573d6000803e3d6000fd5b505050506040513d60208110156131e357600080fd5b50506001600160a01b03841660009081526038602052604090206132069061458e565b613212846000846146de565b8015612c1e57612c1e84846000612295565b6035546001600160a01b0316331461326d5760405162461bcd60e51b815260040180806020018281038252602a815260200180615e6e602a913960400191505060405180910390fd5b60365460408051634f425fbb60e01b81526001600160a01b03878116600483015291519190921691634f425fbb9160248083019260209291908290030181600087803b1580156132bc57600080fd5b505af11580156132d0573d6000803e3d6000fd5b505050506040513d60208110156132e657600080fd5b50506001600160a01b03841660009081526038602052604090206133099061458e565b613315848360006146de565b8015612c1e57612c1e84846001612295565b603454604080516385c858b160e01b8152905133926001600160a01b0316916385c858b1916004808301926020929190829003018186803b15801561336b57600080fd5b505afa15801561337f573d6000803e3d6000fd5b505050506040513d602081101561339557600080fd5b50516001600160a01b0316146133dc5760405162461bcd60e51b8152600401808060200182810382526038815260200180615f836038913960400191505060405180910390fd5b6001600160a01b03166000908152603860205260409020600d01805460ff60d81b1916600160d81b179055565b6001600160a01b031660009081526038602052604090206002015490565b6000613431614eb3565b60015490915060ff16806134485750613448614eb8565b80613454575060005481115b61348f5760405162461bcd60e51b815260040180806020018281038252602e815260200180615e40602e913960400191505060405180910390fd5b60015460ff161580156134ae576001805460ff19168117905560008290555b603480546001600160a01b0319166001600160a01b0385161790556134d1614a10565b8015611d70576001805460ff19169055505050565b6001600160a01b03166000908152603860205260409020600b81015460088201546009830154600d909301549193909291600160d01b900460ff1690565b6034546001600160a01b031681565b6035546001600160a01b0316331461357c5760405162461bcd60e51b815260040180806020018281038252602a815260200180615e6e602a913960400191505060405180910390fd5b8061358561473c565b6001600160a01b0316856001600160a01b0316146135fa5734156135da5760405162461bcd60e51b815260040180806020018281038252605f815260200180615dc0605f913960600191505060405180910390fd5b6135f56001600160a01b03861685838663ffffffff61475416565b6116dd565b823410156136395760405162461bcd60e51b8152600401808060200182810382526035815260200180615cd96035913960400191505060405180910390fd5b6040516000906001600160a01b0383169061c35090869084818181858888f193505050503d8060008114613689576040519150601f19603f3d011682016040523d82523d6000602084013e61368e565b606091505b505090508061226f576040805162461bcd60e51b8152602060048201526016602482015275151c985b9cd9995c881bd9881155120819985a5b195960521b604482015290519081900360640190fd5b603454604080516385c858b160e01b8152905133926001600160a01b0316916385c858b1916004808301926020929190829003018186803b15801561372157600080fd5b505afa158015613735573d6000803e3d6000fd5b505050506040513d602081101561374b57600080fd5b50516001600160a01b0316146137925760405162461bcd60e51b8152600401808060200182810382526038815260200180615f836038913960400191505060405180910390fd5b6001600160a01b039091166000908152603860205260409020600b0155565b6001600160a01b03166000908152603860205260409020600d0154600160d01b900460ff1690565b6001600160a01b0381166000908152603860205260408120816137fb8261471f565b90508061380d5760009250505061151f565b600061381885612c3f565b905061383a61382d828463ffffffff61462616565b839063ffffffff614ebe16565b95945050505050565b6036546001600160a01b031681565b6035546001600160a01b031681565b6035546001600160a01b031633146138aa5760405162461bcd60e51b815260040180806020018281038252602a815260200180615e6e602a913960400191505060405180910390fd5b60365460408051630f8a56cd60e31b81526001600160a01b03898116600483015291519190921691637c52b6689160248083019260209291908290030181600087803b1580156138f957600080fd5b505af115801561390d573d6000803e3d6000fd5b505050506040513d602081101561392357600080fd5b50506001600160a01b03808716600090815260386020526040808220600c015481516369e61c0f60e11b815289851660048201529151931692839263d3cc381e926024808201939182900301818387803b15801561398057600080fd5b505af1158015613994573d6000803e3d6000fd5b505050506139a487878786614efa565b6139b2878787878787614f5e565b6139be878660006146de565b50505050505050565b603454604080516385c858b160e01b8152905133926001600160a01b0316916385c858b1916004808301926020929190829003018186803b158015613a0b57600080fd5b505afa158015613a1f573d6000803e3d6000fd5b505050506040513d6020811015613a3557600080fd5b50516001600160a01b031614613a7c5760405162461bcd60e51b8152600401808060200182810382526038815260200180615f836038913960400191505060405180910390fd5b6001600160a01b0381166000908152603860205260409020805415801590613aa8575060008160070154115b613ae35760405162461bcd60e51b8152600401808060200182810382526027815260200180615d996027913960400191505060405180910390fd5b600d01805460ff60e01b1916600160e01b17905550565b6001600160a01b03166000908152603860205260409020600b015490565b6001600160a01b038381166000818152603860209081526040808320948716835260398252808320938352929052908120600d830154919291600160d81b900460ff16613b6a57600092505050611d96565b6004810154600160281b900460ff161580613b915750600d820154600160d01b900460ff16155b80613ba45750613ba18686611997565b84115b9695505050505050565b603454604080516385c858b160e01b8152905133926001600160a01b0316916385c858b1916004808301926020929190829003018186803b158015613bf257600080fd5b505afa158015613c06573d6000803e3d6000fd5b505050506040513d6020811015613c1c57600080fd5b50516001600160a01b031614613c635760405162461bcd60e51b8152600401808060200182810382526038815260200180615f836038913960400191505060405180910390fd5b6001600160a01b038416600090815260386020526040808220815163897c124760e01b81526004810191909152602481018690526044810185905260648101849052905173__CoreLibrary___________________________9263897c12479260848082019391829003018186803b158015613cde57600080fd5b505af4158015613cf2573d6000803e3d6000fd5b5050505050505050565b603454604080516385c858b160e01b8152905133926001600160a01b0316916385c858b1916004808301926020929190829003018186803b158015613d4057600080fd5b505afa158015613d54573d6000803e3d6000fd5b505050506040513d6020811015613d6a57600080fd5b50516001600160a01b031614613db15760405162461bcd60e51b8152600401808060200182810382526038815260200180615f836038913960400191505060405180910390fd5b6001600160a01b038116600090815260386020526040808220815163df5d411360e01b81526004810191909152905173__CoreLibrary___________________________9263df5d41139260248082019391829003018186803b15801561198357600080fd5b603454604080516385c858b160e01b8152905133926001600160a01b0316916385c858b1916004808301926020929190829003018186803b158015613e5b57600080fd5b505afa158015613e6f573d6000803e3d6000fd5b505050506040513d6020811015613e8557600080fd5b50516001600160a01b031614613ecc5760405162461bcd60e51b8152600401808060200182810382526038815260200180615f836038913960400191505060405180910390fd5b6001600160a01b03808516600090815260386020526040808220815163710d44ed60e11b8152600481019190915286841660248201526044810186905292841660648401525173__CoreLibrary___________________________9263e21a89da926084808301939192829003018186803b158015613f4a57600080fd5b505af4158015613f5e573d6000803e3d6000fd5b50505050613f6b84614fdb565b60365460408051630a577ccb60e31b81526001600160a01b038781166004830152868116602483015260448201869052915191909216916352bbe6589160648083019260209291908290030181600087803b158015613fc957600080fd5b505af1158015613fdd573d6000803e3d6000fd5b505050506040513d6020811015613ff357600080fd5b5051612c1e5760405162461bcd60e51b815260040180806020018281038252605b815260200180615e98605b913960600191505060405180910390fd5b6001600160a01b03908116600090815260396020908152604080832094909316825292909252902060040154600160281b900460ff1690565b6001600160a01b03166000908152603860205260409020600a015490565b60355460009081906001600160a01b031633146140d55760405162461bcd60e51b815260040180806020018281038252602a815260200180615e6e602a913960400191505060405180910390fd5b60365460408051630f8a56cd60e31b81526001600160a01b038b8116600483015291519190921691637c52b6689160248083019260209291908290030181600087803b15801561412457600080fd5b505af1158015614138573d6000803e3d6000fd5b505050506040513d602081101561414e57600080fd5b50506001600160a01b03808916600090815260386020526040808220600c015481516369e61c0f60e11b81528b851660048201529151931692839263d3cc381e926024808201939182900301818387803b1580156141ab57600080fd5b505af11580156141bf573d6000803e3d6000fd5b505050506141d0898989898861507f565b60006141de8a8a888861517e565b90506141ec8a6000806146de565b806141f78b8b61497e565b935093505050965096945050505050565b6001600160a01b0380821660009081526039602090815260408083209386168352929052206001015492915050565b6035546001600160a01b031633146142805760405162461bcd60e51b815260040180806020018281038252602a815260200180615e6e602a913960400191505060405180910390fd5b61428861473c565b6001600160a01b0316836001600160a01b0316146142ba57611c6b6001600160a01b038416838363ffffffff614cc216565b6040516000906001600160a01b0384169061c35090849084818181858888f193505050503d806000811461430a576040519150601f19603f3d011682016040523d82523d6000602084013e61430f565b606091505b5050905080612c1e576040805162461bcd60e51b8152602060048201526016602482015275151c985b9cd9995c881bd9881155120819985a5b195960521b604482015290519081900360640190fd5b6001600160a01b031660009081526038602052604090206006015490565b6001600160a01b0380831660008181526038602090815260408083209486168352603982528083209383529290529081209091829182918291826143c08989611997565b82549091506143ed576004909101549095506000945084935060ff600160281b9091041691506144209050565b806143fe838563ffffffff614d1416565b6002840154600490940154919850965091945050600160281b900460ff169150505b92959194509250565b6001600160a01b0380821660009081526039602090815260408083209386168352929052206002015492915050565b6037818154811061446557fe5b6000918252602090912001546001600160a01b0316905081565b6001600160a01b03166000908152603860205260409020600d0154600160a01b900464ffffffffff1690565b60345460408051631db4f56960e01b815290516000926001600160a01b031691631db4f569916004808301926020929190829003018186803b1580156144f057600080fd5b505afa158015614504573d6000803e3d6000fd5b505050506040513d602081101561451a57600080fd5b5051905061452661473c565b6001600160a01b0316836001600160a01b03161461455857611c6b6001600160a01b038416828463ffffffff614cc216565b6040516001600160a01b0382169083156108fc029084906000818181858888f19350505050158015612c1e573d6000803e3d6000fd5b60006145998261471f565b90508015614622576001820154600d8301546000916145c591600160a01b900464ffffffffff1661527c565b83549091506145db90829063ffffffff6152c716565b83556004830154600d84015460009161460191600160a01b900464ffffffffff166152ff565b905061461a8460070154826152c790919063ffffffff16565b600785015550505b5050565b600082820183811015611d96576040805162461bcd60e51b815260206004820152601b60248201527f536166654d6174683a206164646974696f6e206f766572666c6f770000000000604482015290519081900360640190fd5b60006146a361468e8461534e565b6146978461534e565b9063ffffffff614ebe16565b905060006146bf6146b2615364565b839063ffffffff61462616565b85549091506146d590829063ffffffff6152c716565b90945550505050565b6146e9838383615374565b6146f1614eb3565b6040517fb362f715591e6551ba78917a287fa286eed1ded21d619b267911b67f595af1c990600090a2505050565b6000611a248260030154836002015461462690919063ffffffff16565b73eeeeeeeeeeeeeeeeeeeeeeeeeeeeeeeeeeeeeeee90565b604080516001600160a01b0385811660248301528416604482015260648082018490528251808303909101815260849091019091526020810180516001600160e01b03166323b872dd60e01b179052612c1e908590615501565b6000611d9683836040518060400160405280601e81526020017f536166654d6174683a207375627472616374696f6e206f766572666c6f7700008152506156b9565b600080611d96836000015461481e856001015486600d0160149054906101000a900464ffffffffff1661527c565b9063ffffffff6152c716565b6001600160a01b038616600090815260386020526040902061484b9061458e565b61226f868686868686615750565b6001600160a01b038087166000818152603860209081526040808320948a1683526039825280832093835292905220600183600281111561489657fe5b14156148b2576005820154600382015560006001820155614929565b60028360028111156148c057fe5b14156148dc576000600382015560078201546001820155614929565b6040805162461bcd60e51b815260206004820152601860248201527f496e76616c696420626f72726f772072617465206d6f64650000000000000000604482015290519081900360640190fd5b8054614941908690612ad4908963ffffffff61462616565b81556002810154614958908563ffffffff61462616565b6002820155600401805464ffffffffff19164264ffffffffff1617905550505050505050565b60008061498b8484611a2a565b9050600081600281111561499b57fe5b14156149ab576000915050611a24565b60018160028111156149b957fe5b146149df576001600160a01b038416600090815260386020526040902060040154611a77565b50506001600160a01b0390811660009081526039602090815260408083209490931682529290925290206003015490565b603460009054906101000a90046001600160a01b03166001600160a01b0316630261bf8b6040518163ffffffff1660e01b815260040160206040518083038186803b158015614a5e57600080fd5b505afa158015614a72573d6000803e3d6000fd5b505050506040513d6020811015614a8857600080fd5b5051603580546001600160a01b0319166001600160a01b039283161790556034546040805163a0375c6d60e01b81529051919092169163a0375c6d916004808301926020929190829003018186803b158015614ae357600080fd5b505afa158015614af7573d6000803e3d6000fd5b505050506040513d6020811015614b0d57600080fd5b5051603680546001600160a01b0319166001600160a01b03909216919091179055565b6001600160a01b03808516600081815260386020908152604080832094881683526039825280832093835292905220614b688261458e565b6000614b748787611a2a565b905060015b816002811115614b8557fe5b1415614bc0576003820154614ba3908490869063ffffffff6158b716565b6003820154614bbb908490879063ffffffff61592716565b6139be565b614bd0838563ffffffff615a3216565b6139be838663ffffffff615a5316565b6001600160a01b0381166000908152603860205260409020614c019061458e565b50565b6001600160a01b038085166000908152603960209081526040808320938916835292815282822060389091529190208154614c57908690614c4b908663ffffffff61462616565b9063ffffffff6147ae16565b82556002614c658888611a2a565b6002811115614c7057fe5b1415614c8157600781015460018301555b8315614ca2576002820154614c9c908563ffffffff6147ae16565b60028301555b50600401805464ffffffffff19164264ffffffffff161790555050505050565b604080516001600160a01b038416602482015260448082018490528251808303909101815260649091019091526020810180516001600160e01b031663a9059cbb60e01b179052611d70908490615501565b8154600090614d2557506000611a24565b6000614d34846000015461534e565b6003850154909150600090819015614d685760038601546004870154614d61919064ffffffffff166152ff565b9050614d9e565b614d9b8660010154614697876007015461481e89600401548a600d0160149054906101000a900464ffffffffff166152ff565b90505b614db6614db1848363ffffffff6152c716565b615aab565b8654909250821415614df157600486015464ffffffffff164214614df1578554614de790600163ffffffff61462616565b9350505050611a24565b50949350505050565b6001600160a01b03808416600081815260386020908152604080832094871683526039825280832093835292905220614e328261458e565b60038101546116dd908390859063ffffffff6158b716565b6001600160a01b038083166000908152603960209081526040808320938716835292815282822060389091529190208154614e8b908463ffffffff61462616565b8255600501546003820155600401805464ffffffffff19164264ffffffffff16179055505050565b600590565b303b1590565b600060028204611a7783614eee614ee1876b033b2e3c9fd0803ce8000000615ac4565b849063ffffffff61462616565b9063ffffffff615b1d16565b6001600160a01b03808516600090815260386020908152604080832060398352818420948816845293909152812090614f338787611a2a565b6001600160a01b0388166000908152603860205260409020909150614f579061458e565b6001614b79565b6001600160a01b038087166000818152603860209081526040808320948a16835260398252808320938352929052208054614fa5908790614c4b908763ffffffff61462616565b8155600782015460018201558215614fc65760006003820181905560018201555b6002810154614958908663ffffffff6147ae16565b6000805b60375481101561502857826001600160a01b03166037828154811061500057fe5b6000918252602090912001546001600160a01b0316141561502057600191505b600101614fdf565b508061462257603780546001810182556000919091527f42a7b7dd785cd69714a189dffb3fd7d7174edc9ece837694ce50f7078f7c31ae0180546001600160a01b0384166001600160a01b03199091161790555050565b6001600160a01b038086166000818152603860209081526040808320948916835260398252808320938352929052206150b78261458e565b60018360028111156150c557fe5b14156150f75760038101546150e183878363ffffffff61592716565b6150f1838663ffffffff615a3216565b506139be565b600283600281111561510557fe5b1415615131576005820154615120838763ffffffff615a5316565b6150f183868363ffffffff6158b716565b6040805162461bcd60e51b815260206004820152601a60248201527f496e76616c69642072617465206d6f6465207265636569766564000000000000604482015290519081900360640190fd5b6001600160a01b038084166000908152603960209081526040808320938816835292815282822060389091529181209091908260028560028111156151bf57fe5b14156151e05750600581015460038301556000600183810191909155615244565b60018560028111156151ee57fe5b141561520d575060006003830155600781015460018301556002615244565b60405162461bcd60e51b8152600401808060200182810382526023815260200180615ef36023913960400191505060405180910390fd5b8254615256908763ffffffff61462616565b83556004909201805464ffffffffff19164264ffffffffff161790555095945050505050565b6000806152964264ffffffffff851663ffffffff6147ae16565b905060006152aa61468e6301e1338061534e565b905061383a6152b7615364565b612ad4878463ffffffff6152c716565b6000611d966b033b2e3c9fd0803ce8000000614eee6152ec868663ffffffff615ac416565b6b019d971e4fe8401e7400000090614626565b6000806153194264ffffffffff851663ffffffff6147ae16565b90506000615331856301e1338063ffffffff615b1d16565b905061383a82615342614ee1615364565b9063ffffffff615b5f16565b6000611a2482633b9aca0063ffffffff615ac416565b6b033b2e3c9fd0803ce800000090565b6001600160a01b038084166000908152603860205260408120600d810154909282918291166357e37af0886153b088614c4b8b612ad485612c3f565b8760020154886003015489600601546040518663ffffffff1660e01b815260040180866001600160a01b03166001600160a01b031681526020018581526020018481526020018381526020018281526020019550505050505060606040518083038186803b15801561542157600080fd5b505afa158015615435573d6000803e3d6000fd5b505050506040513d606081101561544b57600080fd5b508051602080830151604093840151600189018490556005890182905560048901819055600d8901805464ffffffffff4216600160a01b0264ffffffffff60a01b19909116179055885460078a0154865186815294850184905284870183905260608501919091526080840152935192965094509192506001600160a01b038916917f0f05e03f4cc9c1680881783f4b8e7205df99a05cb3fd1523dc96c8c34d91e62f919081900360a00190a250505050505050565b615513826001600160a01b031661151a565b615564576040805162461bcd60e51b815260206004820152601f60248201527f5361666545524332303a2063616c6c20746f206e6f6e2d636f6e747261637400604482015290519081900360640190fd5b60006060836001600160a01b0316836040518082805190602001908083835b602083106155a25780518252601f199092019160209182019101615583565b6001836020036101000a0380198251168184511680821785525050505050509050019150506000604051808303816000865af19150503d8060008114615604576040519150601f19603f3d011682016040523d82523d6000602084013e615609565b606091505b509150915081615660576040805162461bcd60e51b815260206004820181905260248201527f5361666545524332303a206c6f772d6c6576656c2063616c6c206661696c6564604482015290519081900360640190fd5b805115612c1e5780806020019051602081101561567c57600080fd5b5051612c1e5760405162461bcd60e51b815260040180806020018281038252602a815260200180615f16602a913960400191505060405180910390fd5b600081848411156157485760405162461bcd60e51b81526004018080602001828103825283818151815260200191508051906020019080838360005b8381101561570d5781810151838201526020016156f5565b50505050905090810190601f16801561573a5780820380516001836020036101000a031916815260200191505b509250505060405180910390fd5b505050900390565b600061575c8787611a2a565b6001600160a01b0388166000908152603860205260409020909150600182600281111561578557fe5b14156157ce576001600160a01b038088166000908152603960209081526040808320938c1683529290522060038101546157c8908390899063ffffffff61592716565b506157f2565b60028260028111156157dc57fe5b14156157f2576157f2818763ffffffff615a5316565b600061580885612ad4898963ffffffff61462616565b9050600184600281111561581857fe5b141561583b576005820154615836908390839063ffffffff6158b716565b6158ac565b600284600281111561584957fe5b141561585f57615836828263ffffffff615a3216565b6040805162461bcd60e51b815260206004820152601c60248201527f496e76616c6964206e657720626f72726f772072617465206d6f646500000000604482015290519081900360640190fd5b505050505050505050565b60028301546158cc818463ffffffff61462616565b600285015560006158e08361481e8661534e565b905060006158f5866006015461481e8561534e565b9050615917615907876002015461534e565b614697848463ffffffff61462616565b8660060181905550505050505050565b8183600201541015615980576040805162461bcd60e51b815260206004820152601a60248201527f496e76616c696420616d6f756e7420746f206465637265617365000000000000604482015290519081900360640190fd5b6002830154615995818463ffffffff6147ae16565b600285018190556159ad575060006006840155611d70565b60006159bc8361481e8661534e565b905060006159d1866006015461481e8561534e565b905081811015615a125760405162461bcd60e51b8152600401808060200182810382526023815260200180615d446023913960400191505060405180910390fd5b615917615a22876002015461534e565b614697838563ffffffff6147ae16565b6003820154615a47908263ffffffff61462616565b82600301819055505050565b8082600301541015615a965760405162461bcd60e51b8152600401808060200182810382526050815260200180615c556050913960600191505060405180910390fd5b6003820154615a47908263ffffffff6147ae16565b6000631dcd6500611d96633b9aca00614eee8386614626565b600082615ad357506000611a24565b82820282848281615ae057fe5b0414611d965760405162461bcd60e51b8152600401808060200182810382526021815260200180615e1f6021913960400191505060405180910390fd5b6000611d9683836040518060400160405280601a81526020017f536166654d6174683a206469766973696f6e206279207a65726f000000000000815250615bb9565b600060028206615b7b576b033b2e3c9fd0803ce8000000615b7d565b825b90506002820491505b8115611a2457615b9683846152c7565b92506002820615615bae57615bab81846152c7565b90505b600282049150615b86565b60008183615c085760405162461bcd60e51b815260206004820181815283516024840152835190928392604490910191908501908083836000831561570d5781810151838201526020016156f5565b506000838581615c1457fe5b049594505050505056fe466565206c69717569646174696f6e20646f6573206e6f74207265717569726520616e79207472616e73666572206f662076616c756554686520616d6f756e742074686174206973206265696e6720737562747261637465642066726f6d20746865207661726961626c6520746f74616c20626f72726f777320697320696e636f727265637443616e6e6f742072656d6f766520616e20496e737472756d656e742077697468206c6971756964697479206465706f736974656454686520616d6f756e7420616e64207468652076616c75652073656e7420746f206465706f73697420646f206e6f74206d617463684f6e6c7920636f6e7472616374732063616e2073656e6420657468657220746f20746865204c656e64696e6720706f6f6c20636f726554686520616d6f756e747320746f20737562747261637420646f6e2774206d61746368557365722069732073656e64696e672045544820616c6f6e67207769746820746865204552433230207472616e736665722e496e737472756d656e7420686173206e6f74206265656e20696e697469616c697a656420796574557365722069732073656e64696e672045544820616c6f6e67207769746820746865204552433230207472616e736665722e20436865636b207468652076616c756520617474726962757465206f6620746865207472616e73616374696f6e536166654d6174683a206d756c7469706c69636174696f6e206f766572666c6f77436f6e747261637420696e7374616e63652068617320616c7265616479206265656e20696e697469616c697a65645468652063616c6c6572206d7573742062652061206c656e64696e6720706f6f6c20636f6e7472616374496e737472756d656e74206661696c656420746f2062652070726f7065726c7920616464656420746f20746865206c697374206f6620496e737472756d656e747320737570706f7274656420627920534947482046696e616e6365496e76616c696420696e7465726573742072617465206d6f64652072656365697665645361666545524332303a204552433230206f7065726174696f6e20646964206e6f742073756363656564496e737472756d656e74206265696e672072656d6f76656420697320646966666572656e74207468616e2074686520496e737472756d656e74207265717565737465645468652063616c6c6572206d75737420626520746865206c656e64696e6720706f6f6c20636f6e666967757261746f72206163636f756e74a265627a7a72315820100afd709fe2e2c4e951ef1c1709c51e55c7d92b7550a348ae78a0a5a99f638564736f6c63430005100032",
  "source": "pragma solidity ^0.5.0;\n\nimport \"openzeppelin-solidity/contracts/math/SafeMath.sol\";\nimport \"openzeppelin-solidity/contracts/token/ERC20/SafeERC20.sol\";\nimport \"openzeppelin-solidity/contracts/token/ERC20/ERC20.sol\";\nimport \"openzeppelin-solidity/contracts/utils/Address.sol\";\nimport \"../../../openzeppelin-upgradeability/VersionedInitializable.sol\";\n\nimport \"../../libraries/CoreLibrary.sol\";\nimport \"../../../configuration/GlobalAddressesProvider.sol\";\nimport \"../../interfaces/ILendingRateOracle.sol\";\nimport \"../../interfaces/I_InstrumentInterestRateStrategy.sol\";\nimport \"../../libraries/WadRayMath.sol\";\n\nimport \"../../lendingpool/LendingPoolCore.sol\";\n\n/*************************************************************************************\n* @title MockLendingPoolCore contract\n* @author Aave, SIGH Finance\n* @notice This is a mock contract to test upgradeability of the AddressProvider\n *************************************************************************************/\n\ncontract MockLendingPoolCore is LendingPoolCore {\n\n    event ReserveUpdatedFromMock(uint256 indexed revision);\n\n    uint256 constant private CORE_REVISION = 0x5;\n\n    function getRevision() internal pure returns(uint256) {\n        return CORE_REVISION;\n    }\n\n    function initialize(GlobalAddressesProvider _addressesProvider) public initializer {\n        addressesProvider = _addressesProvider;\n        refreshConfigInternal();\n    }\n\n    function updateInstrumentInterestRatesAndTimestampInternal(address _reserve, uint256 _liquidityAdded, uint256 _liquidityTaken)\n        internal\n    {\n        super.updateInstrumentInterestRatesAndTimestampInternal(_reserve, _liquidityAdded, _liquidityTaken);\n\n        emit ReserveUpdatedFromMock(getRevision());\n\n    }\n}\n",
  "sourcePath": "/Users/apple/Desktop/GITCOIN/Sigh_Finance/SighFinanceContracts/contracts/LendingProtocolContracts/mocks/upgradeability/MockLendingPoolCore.sol",
  "compiler": {
    "name": "solc",
    "version": "0.5.16+commit.9c3226ce.Emscripten.clang"
  },
  "schemaVersion": "3.2.4",
  "updatedAt": "2020-11-12T07:48:38.779Z",
  "devdoc": {
    "author": "Aave, SIGH Finance",
    "methods": {
      "activateInstrument(address)": {
        "details": "activates an instrument",
        "params": {
          "_instrument": "the address of the instrument*"
        }
      },
      "deactivateInstrument(address)": {
        "details": "deactivates a instrument",
        "params": {
          "_instrument": "the address of the instrument*"
        }
      },
      "disableBorrowingOnInstrument(address)": {
        "details": "disables borrowing on a instrument",
        "params": {
          "_instrument": "the address of the instrument*"
        }
      },
      "disableInstrumentAsCollateral(address)": {
        "details": "disables a instrument to be used as collateral",
        "params": {
          "_instrument": "the address of the instrument*"
        }
      },
      "disableInstrumentStableBorrowRate(address)": {
        "details": "disable the stable borrow rate mode on a instrument",
        "params": {
          "_instrument": "the address of the instrument*"
        }
      },
      "enableBorrowingOnInstrument(address,bool)": {
        "details": "enables borrowing on a instrument. Also sets the stable rate borrowing",
        "params": {
          "_instrument": "the address of the instrument",
          "_stableBorrowRateEnabled": "true if the stable rate needs to be enabled, false otherwise*"
        }
      },
      "enableInstrumentAsCollateral(address,uint256,uint256,uint256)": {
        "details": "enables a instrument to be used as collateral",
        "params": {
          "_instrument": "the address of the instrument*"
        }
      },
      "enableInstrumentStableBorrowRate(address)": {
        "details": "enable the stable borrow rate mode on a instrument",
        "params": {
          "_instrument": "the address of the instrument*"
        }
      },
      "freezeInstrument(address)": {
        "params": {
          "_instrument": "the address of the instrument*"
        }
      },
      "getInstrumentAvailableLiquidity(address)": {
        "details": "gets the available liquidity in the instrument. The available liquidity is the balance of the core contract",
        "params": {
          "_instrument": "the Instrument address (underlying instrument address)"
        },
        "return": "the available liquidity*"
      },
      "getInstrumentConfiguration(address)": {
        "details": "this function aggregates the configuration parameters of the instrument. It's used in the LendingPoolDataProvider specifically to save gas, and avoid multiple external contract calls to fetch the same data.",
        "params": {
          "_instrument": "the _instrument address"
        },
        "return": "the instrument decimalsthe base ltv as collateralthe liquidation thresholdif the instrument is used as collateral or not*"
      },
      "getInstrumentCurrentAverageStableBorrowRate(address)": {
        "details": "gets the _instrument average stable borrow rate. The average stable rate is the weighted average of all the loans taken at stable rate.",
        "params": {
          "_instrument": "the _instrument address"
        },
        "return": "the _instrument current average borrow rate*"
      },
      "getInstrumentCurrentLiquidityRate(address)": {
        "details": "gets the _instrument liquidity rate",
        "params": {
          "_instrument": "the _instrument address"
        },
        "return": "the _instrument liquidity rate*"
      },
      "getInstrumentCurrentStableBorrowRate(address)": {
        "details": "gets the instrument current stable borrow rate. Is the market rate if the instrument is empty",
        "params": {
          "_instrument": "the instrument address"
        },
        "return": "the instrument current stable borrow rate*"
      },
      "getInstrumentCurrentVariableBorrowRate(address)": {
        "details": "gets the instrument's current variable borrow rate. Is the base variable borrow rate if the reserve is empty",
        "params": {
          "_instrument": "the instrument address"
        },
        "return": "the instrument current variable borrow rate*"
      },
      "getInstrumentDecimals(address)": {
        "details": "returns the decimals of the _instrument",
        "params": {
          "_instrument": "the _instrument address"
        },
        "return": "the _instrument decimals*"
      },
      "getInstrumentITokenAddress(address)": {
        "details": "gets the iToken contract address for the instrument",
        "params": {
          "_instrument": "the instrument address"
        },
        "return": "the address of the iToken contract*"
      },
      "getInstrumentInterestRateStrategyAddress(address)": {
        "details": "gets the interest rate strategy contract address for the instrument",
        "params": {
          "_instrument": "the instrument address"
        },
        "return": "the address of the interest rate strategy contract*"
      },
      "getInstrumentIsActive(address)": {
        "details": "returns true if the _instrument is active",
        "params": {
          "_instrument": "the _instrument address"
        },
        "return": "true if the _instrument is active, false otherwise*"
      },
      "getInstrumentIsFreezed(address)": {
        "params": {
          "_instrument": "the _instrument for which the information is needed"
        },
        "return": "true if the _instrument is freezed, false otherwise*"
      },
      "getInstrumentIsStableBorrowRateEnabled(address)": {
        "details": "returns true if the stable rate is enabled on _instrument",
        "params": {
          "_instrument": "the _instrument address"
        },
        "return": "true if the stable rate is enabled on _instrument, false otherwise*"
      },
      "getInstrumentLastUpdate(address)": {
        "params": {
          "_instrument": "the _instrument for which the information is needed"
        },
        "return": "the last updated timestamp of the _instrument*"
      },
      "getInstrumentLiquidationBonus(address)": {
        "details": "gets the instrument liquidation bonus",
        "params": {
          "_instrument": "the instrument address"
        },
        "return": "the instrument liquidation bonus*"
      },
      "getInstrumentLiquidationThreshold(address)": {
        "details": "gets the instrument liquidation threshold",
        "params": {
          "_instrument": "the instrument address"
        },
        "return": "the instrument liquidation threshold*"
      },
      "getInstrumentLiquidityCumulativeIndex(address)": {
        "details": "gets the _instrument liquidity cumulative index",
        "params": {
          "_instrument": "the _instrument address"
        },
        "return": "the _instrument liquidity cumulative index*"
      },
      "getInstrumentNormalizedIncome(address)": {
        "details": "gets the normalized income of the instrument. a value of 1e27 means there is no income. A value of 2e27 means there there has been 100% income.",
        "params": {
          "_instrument": "the instrument address (the underlying address)"
        },
        "return": "the instrument normalized income*"
      },
      "getInstrumentTotalBorrows(address)": {
        "details": "gets the instrument total borrows",
        "params": {
          "_instrument": "the _instrument address"
        },
        "return": "the total borrows (stable + variable)*"
      },
      "getInstrumentTotalBorrowsStable(address)": {
        "details": "gets the instrument total borrows stable",
        "params": {
          "_instrument": "the instrument address"
        },
        "return": "the total borrows stable*"
      },
      "getInstrumentTotalBorrowsVariable(address)": {
        "details": "gets the instrument total borrows variable",
        "params": {
          "_instrument": "the instrument address"
        },
        "return": "the total borrows variable*"
      },
      "getInstrumentTotalLiquidity(address)": {
        "details": "gets the total liquidity in the instrument. The total liquidity is the balance of the core contract + total borrows",
        "params": {
          "_instrument": "the instrument address"
        },
        "return": "the total liquidity*"
      },
      "getInstrumentUtilizationRate(address)": {
        "details": "returns the utilization rate U of a specific instrument",
        "params": {
          "_instrument": "the instrument for which the information is needed"
        },
        "return": "the utilization rate in ray*"
      },
      "getInstrumentVariableBorrowsCumulativeIndex(address)": {
        "details": "gets the _instrument variable borrow index",
        "params": {
          "_instrument": "the _instrument address"
        },
        "return": "the _instrument variable borrow index*"
      },
      "getInstruments()": {
        "return": "the array of instruments configured on the core*"
      },
      "getUserBasicInstrumentData(address,address)": {
        "details": "returns the basic data (balances, fee accrued, instrument enabled/disabled as collateral) needed to calculate the global account data in the LendingPoolDataProvider",
        "params": {
          "_instrument": "the address of the instrument",
          "_user": "the address of the user"
        },
        "return": "the user deposited balance, the principal borrow balance, the fee, and if the instrument is enabled as collateral or not*"
      },
      "getUserBorrowBalances(address,address)": {
        "details": "calculates and returns the borrow balances of the user",
        "params": {
          "_instrument": "the address of the instrument",
          "_user": "the address of the user"
        },
        "return": "the principal borrow balance, the compounded balance and the balance increase since the last borrow/repay/swap/rebalance*"
      },
      "getUserCurrentBorrowRateMode(address,address)": {
        "details": "users with no loans in progress have NONE as borrow rate mode",
        "params": {
          "_instrument": "the address of the _instrument for which the information is needed",
          "_user": "the address of the user for which the information is needed"
        },
        "return": "the borrow rate mode for the user,*"
      },
      "getUserCurrentStableBorrowRate(address,address)": {
        "details": "the stable rate returned is 0 if the user is borrowing at variable or not borrowing at all",
        "params": {
          "_instrument": "the address of the _instrument for which the information is needed",
          "_user": "the address of the user for which the information is needed"
        },
        "return": "the user stable rate*"
      },
      "getUserOriginationFee(address,address)": {
        "params": {
          "_instrument": "the address of the instrument for which the information is needed",
          "_user": "the address of the user for which the information is needed"
        },
        "return": "the origination fee for the user*"
      },
      "getUserUnderlyingAssetBalance(address,address)": {
        "details": "gets the underlying asset balance of a user based on the corresponding iToken balance.",
        "params": {
          "_instrument": "the instrument address",
          "_user": "the user address"
        },
        "return": "the underlying deposit balance of the user*"
      },
      "getUserVariableBorrowCumulativeIndex(address,address)": {
        "details": "the variable borrow index of the user is 0 if the user is not borrowing or borrowing at stable",
        "params": {
          "_instrument": "the address of the _instrument for which the information is needed",
          "_user": "the address of the user for which the information is needed"
        },
        "return": "the variable borrow index for the user*"
      },
      "initInstrument(address,address,uint256,address)": {
        "details": "initializes a instrument",
        "params": {
          "_decimals": "the decimals of the instrument currency",
          "_iTokenAddress": "the address of the overlying iToken contract",
          "_instrument": "the address of the instrument",
          "_interestRateStrategyAddress": "the address of the interest rate strategy contract*"
        }
      },
      "isInstrumentBorrowingEnabled(address)": {
        "details": "returns true if the instrument is enabled for borrowing",
        "params": {
          "_instrument": "the instrument address"
        },
        "return": "true if the instrument is enabled for borrowing, false otherwise*"
      },
      "isInstrumentUsageAsCollateralEnabled(address)": {
        "details": "returns true if the _instrument is enabled as collateral",
        "params": {
          "_instrument": "the _instrument address"
        },
        "return": "true if the _instrument is enabled as collateral, false otherwise*"
      },
      "isUserAllowedToBorrowAtStable(address,address,uint256)": {
        "details": "checks if a user is allowed to borrow at a stable rate",
        "params": {
          "_amount": "the amount the the user wants to borrow",
          "_instrument": "the instrument address (underlying)",
          "_user": "the user"
        },
        "return": "true if the user is allowed to borrow at a stable rate, false otherwise*"
      },
      "isUserUseInstrumentAsCollateralEnabled(address,address)": {
        "params": {
          "_instrument": "the address of the _instrument for which the information is needed",
          "_user": "the address of the user for which the information is needed"
        },
        "return": "true if the user has chosen to use the _instrument as collateral, false otherwise*"
      },
      "liquidateFee(address,uint256,address)": {
        "details": "transfers the fees to the fees collection address in the case of liquidation",
        "params": {
          "_amount": "the amount being transferred",
          "_destination": "the fee receiver address*",
          "_token": "the address of the token being transferred"
        }
      },
      "refreshConfiguration()": {
        "details": "updates the lending pool core configuration*"
      },
      "removeLastAddedInstrument(address)": {
        "details": "removes the last added instrument in the instrumentsList array",
        "params": {
          "_instrumentToRemove": "the address of the instrument*"
        }
      },
      "setInstrumentBaseLTVasCollateral(address,uint256)": {
        "params": {
          "_instrument": "the address of the instrument",
          "_ltv": "the new loan to value*"
        }
      },
      "setInstrumentDecimals(address,uint256)": {
        "params": {
          "_decimals": "the decimals of the instrument*",
          "_instrument": "the address of the instrument"
        }
      },
      "setInstrumentInterestRateStrategyAddress(address,address)": {
        "details": "updates the address of the interest rate strategy contract",
        "params": {
          "_instrument": "the address of the Instrument",
          "_rateStrategyAddress": "the address of the interest rate strategy contract*"
        }
      },
      "setInstrumentLiquidationBonus(address,uint256)": {
        "params": {
          "_bonus": "the new liquidation bonus*",
          "_instrument": "the address of the instrument"
        }
      },
      "setInstrumentLiquidationThreshold(address,uint256)": {
        "params": {
          "_instrument": "the address of the instrument",
          "_threshold": "the new liquidation threshold*"
        }
      },
      "setUserUseInstrumentAsCollateral(address,address,bool)": {
        "details": "enables or disables a instrument as collateral",
        "params": {
          "_instrument": "the address of the principal instrument where the user deposited",
          "_useAsCollateral": "true if the depositor wants to use the instrument as collateral*",
          "_user": "the address of the depositor"
        }
      },
      "transferToFeeCollectionAddress(address,address,uint256,address)": {
        "details": "transfers the protocol fees to the fees collection address",
        "params": {
          "_amount": "the amount being transferred",
          "_destination": "the fee receiver address*",
          "_token": "the address of the token (instrument) being transferred",
          "_user": "the address of the user from where the transfer is happening"
        }
      },
      "transferToReserve(address,address,uint256)": {
        "details": "transfers an amount from a user to the destination instrument",
        "params": {
          "_amount": "the amount being transferred*",
          "_instrument": "the address of the instrument where the amount is being transferred",
          "_user": "the address of the user from where the transfer is happening"
        }
      },
      "transferToUser(address,address,uint256)": {
        "details": "transfers to the user a specific amount from the reserve. (used during REDEEMUNDERLYING(), BORROW() & FLASHLOAN() in LendingPool Contract)",
        "params": {
          "_amount": "the amount being transferred*",
          "_instrument": "the address of the instrument (underlying address) where the transfer is happening",
          "_user": "the address of the user receiving the transfer"
        }
      },
      "unfreezeInstrument(address)": {
        "params": {
          "_instrument": "the address of the instrument*"
        }
      },
      "updateStateOnBorrow(address,address,uint256,uint256,uint8)": {
        "details": "updates the state of the core as a consequence of a borrow action.",
        "params": {
          "_amountBorrowed": "the new amount borrowed",
          "_borrowFee": "the fee on the amount borrowed",
          "_instrument": "the address of the instrument which the user is borrowing",
          "_rateMode": "the borrow rate mode (stable, variable)",
          "_user": "the address of the borrower"
        },
        "return": "the new borrow rate for the user*"
      },
      "updateStateOnDeposit(address,address,uint256,bool)": {
        "details": "updates the state of the core as a result of a deposit action",
        "params": {
          "_amount": "the amount being deposited",
          "_instrument": "the address of the instrument in which the deposit is happening",
          "_isFirstDeposit": "true if the user is depositing for the first time*",
          "_user": "the address of the the user depositing"
        }
      },
      "updateStateOnFlashLoan(address,uint256,uint256,uint256)": {
        "details": "updates the state of the core as a result of a flashloan action",
        "params": {
          "_income": "the income of the protocol as a result of the action",
          "_instrument": "the address of the instrument in which the flashloan is happening",
          "_protocolFee": "the protocol fee charged*"
        }
      },
      "updateStateOnLiquidation(address,address,address,uint256,uint256,uint256,uint256,uint256,bool)": {
        "details": "updates the state of the core as a consequence of a liquidation action.",
        "params": {
          "_amountToLiquidate": "the amount being repaid by the liquidator",
          "_balanceIncrease": "the accrued interest on the borrowed amount",
          "_collateralInstrument": "the address of the collateral instrument that is being liquidated",
          "_collateralToLiquidate": "the amount of collateral being liquidated",
          "_feeLiquidated": "the amount of origination fee being liquidated",
          "_liquidatedCollateralForFee": "the amount of collateral equivalent to the origination fee + bonus",
          "_liquidatorReceivesIToken": "true if the liquidator will receive iTokens, false otherwise*",
          "_principalInstrument": "the address of the principal instrument that is being repaid",
          "_user": "the address of the borrower"
        }
      },
      "updateStateOnRebalance(address,address,uint256)": {
        "details": "updates the state of the core as a consequence of a stable rate rebalance",
        "params": {
          "_balanceIncrease": "the accrued interest on the borrowed amount",
          "_instrument": "the address of the principal instrument where the user borrowed",
          "_user": "the address of the borrower"
        },
        "return": "the new stable rate for the user*"
      },
      "updateStateOnRedeem(address,address,uint256,bool)": {
        "details": "updates the state of the core as a result of a redeem action",
        "params": {
          "_amountRedeemed": "the amount being redeemed",
          "_instrument": "the address of the instrument (underlying address) in which the redeem is happening",
          "_user": "the address of the the user redeeming",
          "_userRedeemedEverything": "true if the user is redeeming everything*"
        }
      },
      "updateStateOnRepay(address,address,uint256,uint256,uint256,bool)": {
        "details": "updates the state of the core as a consequence of a repay action.",
        "params": {
          "_balanceIncrease": "the accrued interest on the borrowed amount",
          "_instrument": "the address of the instrument on which the user is repaying",
          "_originationFeeRepaid": "the fee on the amount that is being repaid",
          "_paybackAmountMinusFees": "the amount being paid back minus fees",
          "_repaidWholeLoan": "true if the user is repaying the whole loan*",
          "_user": "the address of the borrower"
        }
      },
      "updateStateOnSwapRate(address,address,uint256,uint256,uint256,uint8)": {
        "details": "updates the state of the core as a consequence of a swap rate action.",
        "params": {
          "_balanceIncrease": "the accrued interest on the borrowed amount",
          "_compoundedBorrowBalance": "the amount borrowed plus accrued interest",
          "_currentRateMode": "the current interest rate mode for the user*",
          "_instrument": "the address of the _instrument on which the user is repaying",
          "_principalBorrowBalance": "the amount borrowed by the user",
          "_user": "the address of the borrower"
        }
      }
    },
    "title": "MockLendingPoolCore contract"
  },
  "userdoc": {
    "methods": {
      "freezeInstrument(address)": {
        "notice": "allows the configurator to freeze the instrument. A freezed instrument does not allow any action apart from repay, redeem, liquidationCall, rebalance."
      },
      "getInstrumentIsFreezed(address)": {
        "notice": "returns if a _instrument is freezed"
      },
      "getInstrumentLastUpdate(address)": {
        "notice": "returns the timestamp of the last action on the _instrument"
      },
      "setInstrumentBaseLTVasCollateral(address,uint256)": {
        "notice": "allows the configurator to update the loan to value of a instrument"
      },
      "setInstrumentDecimals(address,uint256)": {
        "notice": "allows the configurator to update the instrument decimals"
      },
      "setInstrumentLiquidationBonus(address,uint256)": {
        "notice": "allows the configurator to update the liquidation bonus of a instrument"
      },
      "setInstrumentLiquidationThreshold(address,uint256)": {
        "notice": "allows the configurator to update the liquidation threshold of a instrument"
      },
      "unfreezeInstrument(address)": {
        "notice": "allows the configurator to unfreeze the instrument. A unfreezed Instrument allows any action to be executed."
      }
    },
    "notice": "***********************************************************************************This is a mock contract to test upgradeability of the AddressProvider************************************************************************************"
  }
}