{
  "contractName": "SIGHDistributionHandler",
  "abi": [
    {
      "anonymous": false,
      "inputs": [
        {
          "indexed": false,
          "internalType": "address",
          "name": "instrument",
          "type": "address"
        },
        {
          "indexed": false,
          "internalType": "address",
          "name": "user",
          "type": "address"
        },
        {
          "indexed": false,
          "internalType": "uint256",
          "name": "sigh_Amount",
          "type": "uint256"
        }
      ],
      "name": "AccuredSIGHTransferredToTheUser",
      "type": "event"
    },
    {
      "anonymous": false,
      "inputs": [
        {
          "indexed": false,
          "internalType": "address",
          "name": "instrument",
          "type": "address"
        },
        {
          "indexed": false,
          "internalType": "uint256",
          "name": "prevSpeed",
          "type": "uint256"
        },
        {
          "indexed": false,
          "internalType": "uint256",
          "name": "newSpeed",
          "type": "uint256"
        },
        {
          "indexed": false,
          "internalType": "uint256",
          "name": "blockNumber",
          "type": "uint256"
        }
      ],
      "name": "BorrowersSIGHSpeedUpdated",
      "type": "event"
    },
    {
      "anonymous": false,
      "inputs": [
        {
          "indexed": false,
          "internalType": "uint224",
          "name": "curClock",
          "type": "uint224"
        },
        {
          "indexed": false,
          "internalType": "uint256",
          "name": "blockNumber",
          "type": "uint256"
        }
      ],
      "name": "ClockUpdated",
      "type": "event"
    },
    {
      "anonymous": false,
      "inputs": [
        {
          "indexed": false,
          "internalType": "address",
          "name": "instrumentAddress_",
          "type": "address"
        },
        {
          "indexed": false,
          "internalType": "string",
          "name": "name",
          "type": "string"
        },
        {
          "indexed": false,
          "internalType": "uint256",
          "name": "decimals",
          "type": "uint256"
        },
        {
          "indexed": false,
          "internalType": "address",
          "name": "iTokenAddress",
          "type": "address"
        },
        {
          "indexed": false,
          "internalType": "uint256",
          "name": "blockNumber",
          "type": "uint256"
        }
      ],
      "name": "InstrumentAdded",
      "type": "event"
    },
    {
      "anonymous": false,
      "inputs": [
        {
          "indexed": false,
          "internalType": "address",
          "name": "_instrument",
          "type": "address"
        },
        {
          "indexed": false,
          "internalType": "address",
          "name": "_iTokenAddress",
          "type": "address"
        },
        {
          "indexed": false,
          "internalType": "string",
          "name": "name",
          "type": "string"
        },
        {
          "indexed": false,
          "internalType": "uint256",
          "name": "blockNumber",
          "type": "uint256"
        }
      ],
      "name": "InstrumentRemoved",
      "type": "event"
    },
    {
      "anonymous": false,
      "inputs": [
        {
          "indexed": false,
          "internalType": "address",
          "name": "instrumentAddress_",
          "type": "address"
        },
        {
          "indexed": false,
          "internalType": "string",
          "name": "name",
          "type": "string"
        },
        {
          "indexed": false,
          "internalType": "bool",
          "name": "isSighed",
          "type": "bool"
        },
        {
          "indexed": false,
          "internalType": "uint256",
          "name": "blockNumber",
          "type": "uint256"
        }
      ],
      "name": "InstrumentSIGHed",
      "type": "event"
    },
    {
      "anonymous": false,
      "inputs": [
        {
          "indexed": false,
          "internalType": "uint256",
          "name": "_SIGHSpeed",
          "type": "uint256"
        },
        {
          "indexed": false,
          "internalType": "uint256",
          "name": "current_Sigh_Price",
          "type": "uint256"
        },
        {
          "indexed": false,
          "internalType": "uint256",
          "name": "totalVolatilityPerBlockAverage",
          "type": "uint256"
        },
        {
          "indexed": false,
          "internalType": "uint256",
          "name": "deltaBlocks",
          "type": "uint256"
        },
        {
          "indexed": false,
          "internalType": "uint256",
          "name": "maxVolatilityToAddress",
          "type": "uint256"
        },
        {
          "indexed": false,
          "internalType": "uint256",
          "name": "max_valueDistributionLimitDecimalsAdjusted",
          "type": "uint256"
        },
        {
          "indexed": false,
          "internalType": "uint256",
          "name": "sigh_speed_used",
          "type": "uint256"
        }
      ],
      "name": "MaxSIGHSpeedCalculated",
      "type": "event"
    },
    {
      "anonymous": false,
      "inputs": [
        {
          "indexed": false,
          "internalType": "uint256",
          "name": "oldSIGHSpeed",
          "type": "uint256"
        },
        {
          "indexed": false,
          "internalType": "uint256",
          "name": "newSIGHSpeed",
          "type": "uint256"
        },
        {
          "indexed": false,
          "internalType": "uint256",
          "name": "blockNumber_",
          "type": "uint256"
        }
      ],
      "name": "NewSIGHSpeed",
      "type": "event"
    },
    {
      "anonymous": false,
      "inputs": [
        {
          "indexed": false,
          "internalType": "address",
          "name": "instrument",
          "type": "address"
        },
        {
          "indexed": false,
          "internalType": "uint256",
          "name": "prevPrice",
          "type": "uint256"
        },
        {
          "indexed": false,
          "internalType": "uint256",
          "name": "currentPrice",
          "type": "uint256"
        },
        {
          "indexed": false,
          "internalType": "uint256",
          "name": "currentClock",
          "type": "uint256"
        }
      ],
      "name": "PriceSnapped",
      "type": "event"
    },
    {
      "anonymous": false,
      "inputs": [
        {
          "indexed": false,
          "internalType": "address",
          "name": "iToken",
          "type": "address"
        },
        {
          "indexed": false,
          "internalType": "uint256",
          "name": "prevPrice",
          "type": "uint256"
        },
        {
          "indexed": false,
          "internalType": "uint256",
          "name": "currentPrice",
          "type": "uint256"
        },
        {
          "indexed": false,
          "internalType": "uint32",
          "name": "currentCounter",
          "type": "uint32"
        }
      ],
      "name": "PriceSnappedCheck",
      "type": "event"
    },
    {
      "anonymous": false,
      "inputs": [
        {
          "indexed": false,
          "internalType": "address",
          "name": "instrument",
          "type": "address"
        },
        {
          "indexed": false,
          "internalType": "uint256",
          "name": "sighAccured",
          "type": "uint256"
        },
        {
          "indexed": false,
          "internalType": "uint256",
          "name": "ratioMantissa",
          "type": "uint256"
        },
        {
          "indexed": false,
          "internalType": "uint256",
          "name": "newIndexMantissa",
          "type": "uint256"
        },
        {
          "indexed": false,
          "internalType": "uint256",
          "name": "blockNum",
          "type": "uint256"
        }
      ],
      "name": "SIGHBorrowIndexUpdated",
      "type": "event"
    },
    {
      "anonymous": false,
      "inputs": [
        {
          "indexed": false,
          "internalType": "address",
          "name": "addressesProvider",
          "type": "address"
        },
        {
          "indexed": false,
          "internalType": "address",
          "name": "Sigh_Address",
          "type": "address"
        },
        {
          "indexed": false,
          "internalType": "address",
          "name": "priceOracle",
          "type": "address"
        },
        {
          "indexed": false,
          "internalType": "address",
          "name": "lendingPoolCore",
          "type": "address"
        }
      ],
      "name": "SIGHDistributionHandlerInitialized",
      "type": "event"
    },
    {
      "anonymous": false,
      "inputs": [
        {
          "indexed": false,
          "internalType": "address",
          "name": "instrument",
          "type": "address"
        },
        {
          "indexed": false,
          "internalType": "uint256",
          "name": "sighAccured",
          "type": "uint256"
        },
        {
          "indexed": false,
          "internalType": "uint256",
          "name": "ratioMantissa",
          "type": "uint256"
        },
        {
          "indexed": false,
          "internalType": "uint256",
          "name": "newIndexMantissa",
          "type": "uint256"
        },
        {
          "indexed": false,
          "internalType": "uint256",
          "name": "blockNum",
          "type": "uint256"
        }
      ],
      "name": "SIGHSupplyIndexUpdated",
      "type": "event"
    },
    {
      "anonymous": false,
      "inputs": [
        {
          "indexed": false,
          "internalType": "bool",
          "name": "previsSpeedUpperCheckAllowed",
          "type": "bool"
        },
        {
          "indexed": false,
          "internalType": "uint256",
          "name": "upperCheckProfitPercentage",
          "type": "uint256"
        },
        {
          "indexed": false,
          "internalType": "uint256",
          "name": "blockNumber",
          "type": "uint256"
        }
      ],
      "name": "SpeedUpperCheckSwitched",
      "type": "event"
    },
    {
      "anonymous": false,
      "inputs": [
        {
          "indexed": false,
          "internalType": "address",
          "name": "instrumentAddress_",
          "type": "address"
        },
        {
          "indexed": false,
          "internalType": "uint256",
          "name": "prevStakingSpeed",
          "type": "uint256"
        },
        {
          "indexed": false,
          "internalType": "uint256",
          "name": "new_staking_Speed",
          "type": "uint256"
        },
        {
          "indexed": false,
          "internalType": "uint256",
          "name": "blockNumber",
          "type": "uint256"
        }
      ],
      "name": "StakingSpeedUpdated",
      "type": "event"
    },
    {
      "anonymous": false,
      "inputs": [
        {
          "indexed": false,
          "internalType": "address",
          "name": "instrument",
          "type": "address"
        },
        {
          "indexed": false,
          "internalType": "uint256",
          "name": "prevSpeed",
          "type": "uint256"
        },
        {
          "indexed": false,
          "internalType": "uint256",
          "name": "newSpeed",
          "type": "uint256"
        },
        {
          "indexed": false,
          "internalType": "uint256",
          "name": "blockNumber",
          "type": "uint256"
        }
      ],
      "name": "SuppliersSIGHSpeedUpdated",
      "type": "event"
    },
    {
      "anonymous": false,
      "inputs": [
        {
          "indexed": false,
          "internalType": "uint224",
          "name": "curClock",
          "type": "uint224"
        },
        {
          "indexed": false,
          "internalType": "uint256",
          "name": "deltaBlocks_",
          "type": "uint256"
        },
        {
          "indexed": false,
          "internalType": "uint256",
          "name": "blockNumberForPriceSnapshots",
          "type": "uint256"
        },
        {
          "indexed": false,
          "internalType": "uint256",
          "name": "blocknumber",
          "type": "uint256"
        }
      ],
      "name": "blockNumberForSnapshotUpdated",
      "type": "event"
    },
    {
      "anonymous": false,
      "inputs": [
        {
          "indexed": false,
          "internalType": "address",
          "name": "_Instrument",
          "type": "address"
        },
        {
          "indexed": false,
          "internalType": "string",
          "name": "side",
          "type": "string"
        },
        {
          "indexed": false,
          "internalType": "uint256",
          "name": "_24HrVolatility",
          "type": "uint256"
        },
        {
          "indexed": false,
          "internalType": "uint256",
          "name": "totalLosses",
          "type": "uint256"
        }
      ],
      "name": "calculatingInstrumentVolatility",
      "type": "event"
    },
    {
      "anonymous": false,
      "inputs": [
        {
          "indexed": false,
          "internalType": "uint256",
          "name": "lossAmount",
          "type": "uint256"
        },
        {
          "indexed": false,
          "internalType": "uint256",
          "name": "instrumentDecimals",
          "type": "uint256"
        },
        {
          "indexed": false,
          "internalType": "uint256",
          "name": "priceDecimals",
          "type": "uint256"
        },
        {
          "indexed": false,
          "internalType": "uint256",
          "name": "correctedLossAmount",
          "type": "uint256"
        }
      ],
      "name": "decimalsAdjustment",
      "type": "event"
    },
    {
      "anonymous": false,
      "inputs": [
        {
          "indexed": false,
          "internalType": "uint256",
          "name": "SIGH",
          "type": "uint256"
        }
      ],
      "name": "maxSpeedCheck",
      "type": "event"
    },
    {
      "anonymous": false,
      "inputs": [
        {
          "indexed": false,
          "internalType": "uint256",
          "name": "prevDeltaBlocksForSpeed",
          "type": "uint256"
        },
        {
          "indexed": false,
          "internalType": "uint256",
          "name": "newDeltaBlocksForSpeed",
          "type": "uint256"
        },
        {
          "indexed": false,
          "internalType": "uint256",
          "name": "blockNumber",
          "type": "uint256"
        }
      ],
      "name": "minimumBlocksForSpeedRefreshUpdated",
      "type": "event"
    },
    {
      "anonymous": false,
      "inputs": [
        {
          "indexed": false,
          "internalType": "address",
          "name": "_Instrument",
          "type": "address"
        },
        {
          "indexed": false,
          "internalType": "uint256",
          "name": "maxSpeed",
          "type": "uint256"
        },
        {
          "indexed": false,
          "internalType": "uint256",
          "name": "supplierSpeed",
          "type": "uint256"
        },
        {
          "indexed": false,
          "internalType": "uint256",
          "name": "borrowerSpeed",
          "type": "uint256"
        },
        {
          "indexed": false,
          "internalType": "uint256",
          "name": "percentTotalVolatility",
          "type": "uint256"
        }
      ],
      "name": "refreshingSighSpeeds",
      "type": "event"
    },
    {
      "constant": true,
      "inputs": [],
      "name": "Sigh_Address",
      "outputs": [
        {
          "internalType": "contract IERC20",
          "name": "",
          "type": "address"
        }
      ],
      "payable": false,
      "stateMutability": "view",
      "type": "function"
    },
    {
      "constant": true,
      "inputs": [],
      "name": "addressesProvider",
      "outputs": [
        {
          "internalType": "contract GlobalAddressesProvider",
          "name": "",
          "type": "address"
        }
      ],
      "payable": false,
      "stateMutability": "view",
      "type": "function"
    },
    {
      "constant": true,
      "inputs": [],
      "name": "lendingPoolCore",
      "outputs": [
        {
          "internalType": "contract ILendingPoolCore",
          "name": "",
          "type": "address"
        }
      ],
      "payable": false,
      "stateMutability": "view",
      "type": "function"
    },
    {
      "constant": true,
      "inputs": [],
      "name": "oracle",
      "outputs": [
        {
          "internalType": "contract IPriceOracleGetter",
          "name": "",
          "type": "address"
        }
      ],
      "payable": false,
      "stateMutability": "view",
      "type": "function"
    },
    {
      "constant": false,
      "inputs": [
        {
          "internalType": "contract GlobalAddressesProvider",
          "name": "addressesProvider_",
          "type": "address"
        }
      ],
      "name": "initialize",
      "outputs": [],
      "payable": false,
      "stateMutability": "nonpayable",
      "type": "function"
    },
    {
      "constant": false,
      "inputs": [],
      "name": "refreshConfig",
      "outputs": [],
      "payable": false,
      "stateMutability": "nonpayable",
      "type": "function"
    },
    {
      "constant": false,
      "inputs": [
        {
          "internalType": "address",
          "name": "_instrument",
          "type": "address"
        },
        {
          "internalType": "address",
          "name": "_iTokenAddress",
          "type": "address"
        },
        {
          "internalType": "uint256",
          "name": "_decimals",
          "type": "uint256"
        }
      ],
      "name": "addInstrument",
      "outputs": [
        {
          "internalType": "bool",
          "name": "",
          "type": "bool"
        }
      ],
      "payable": false,
      "stateMutability": "nonpayable",
      "type": "function"
    },
    {
      "constant": false,
      "inputs": [
        {
          "internalType": "address",
          "name": "_instrument",
          "type": "address"
        },
        {
          "internalType": "address",
          "name": "_iTokenAddress",
          "type": "address"
        }
      ],
      "name": "removeInstrument",
      "outputs": [
        {
          "internalType": "bool",
          "name": "",
          "type": "bool"
        }
      ],
      "payable": false,
      "stateMutability": "nonpayable",
      "type": "function"
    },
    {
      "constant": false,
      "inputs": [
        {
          "internalType": "address",
          "name": "instrument_",
          "type": "address"
        }
      ],
      "name": "Instrument_SIGHed",
      "outputs": [
        {
          "internalType": "bool",
          "name": "",
          "type": "bool"
        }
      ],
      "payable": false,
      "stateMutability": "nonpayable",
      "type": "function"
    },
    {
      "constant": false,
      "inputs": [
        {
          "internalType": "address",
          "name": "instrument_",
          "type": "address"
        }
      ],
      "name": "Instrument_UNSIGHed",
      "outputs": [
        {
          "internalType": "bool",
          "name": "",
          "type": "bool"
        }
      ],
      "payable": false,
      "stateMutability": "nonpayable",
      "type": "function"
    },
    {
      "constant": false,
      "inputs": [
        {
          "internalType": "uint256",
          "name": "SIGHSpeed_",
          "type": "uint256"
        }
      ],
      "name": "updateSIGHSpeed",
      "outputs": [
        {
          "internalType": "bool",
          "name": "",
          "type": "bool"
        }
      ],
      "payable": false,
      "stateMutability": "nonpayable",
      "type": "function"
    },
    {
      "constant": false,
      "inputs": [
        {
          "internalType": "address",
          "name": "instrument_",
          "type": "address"
        },
        {
          "internalType": "uint256",
          "name": "newStakingSpeed",
          "type": "uint256"
        }
      ],
      "name": "updateStakingSpeedForAnInstrument",
      "outputs": [
        {
          "internalType": "bool",
          "name": "",
          "type": "bool"
        }
      ],
      "payable": false,
      "stateMutability": "nonpayable",
      "type": "function"
    },
    {
      "constant": false,
      "inputs": [
        {
          "internalType": "bool",
          "name": "isActivated",
          "type": "bool"
        },
        {
          "internalType": "uint256",
          "name": "profitPercentage",
          "type": "uint256"
        }
      ],
      "name": "SpeedUpperCheckSwitch",
      "outputs": [
        {
          "internalType": "bool",
          "name": "",
          "type": "bool"
        }
      ],
      "payable": false,
      "stateMutability": "nonpayable",
      "type": "function"
    },
    {
      "constant": false,
      "inputs": [
        {
          "internalType": "uint256",
          "name": "deltaBlocksLimit",
          "type": "uint256"
        }
      ],
      "name": "updateDeltaBlocksForSpeedRefresh",
      "outputs": [
        {
          "internalType": "bool",
          "name": "",
          "type": "bool"
        }
      ],
      "payable": false,
      "stateMutability": "nonpayable",
      "type": "function"
    },
    {
      "constant": false,
      "inputs": [],
      "name": "refreshSIGHSpeeds",
      "outputs": [
        {
          "internalType": "bool",
          "name": "",
          "type": "bool"
        }
      ],
      "payable": false,
      "stateMutability": "nonpayable",
      "type": "function"
    },
    {
      "constant": false,
      "inputs": [
        {
          "internalType": "address",
          "name": "currentInstrument",
          "type": "address"
        }
      ],
      "name": "updateSIGHSupplyIndex",
      "outputs": [
        {
          "internalType": "bool",
          "name": "",
          "type": "bool"
        }
      ],
      "payable": false,
      "stateMutability": "nonpayable",
      "type": "function"
    },
    {
      "constant": false,
      "inputs": [
        {
          "internalType": "address",
          "name": "currentInstrument",
          "type": "address"
        }
      ],
      "name": "updateSIGHBorrowIndex",
      "outputs": [
        {
          "internalType": "bool",
          "name": "",
          "type": "bool"
        }
      ],
      "payable": false,
      "stateMutability": "nonpayable",
      "type": "function"
    },
    {
      "constant": false,
      "inputs": [
        {
          "internalType": "address",
          "name": "instrument",
          "type": "address"
        },
        {
          "internalType": "address",
          "name": "user",
          "type": "address"
        },
        {
          "internalType": "address",
          "name": "sighAccuredTo",
          "type": "address"
        },
        {
          "internalType": "uint256",
          "name": "sigh_Amount",
          "type": "uint256"
        }
      ],
      "name": "transferSighTotheUser",
      "outputs": [
        {
          "internalType": "uint256",
          "name": "",
          "type": "uint256"
        }
      ],
      "payable": false,
      "stateMutability": "nonpayable",
      "type": "function"
    },
    {
      "constant": true,
      "inputs": [],
      "name": "getSIGHBalance",
      "outputs": [
        {
          "internalType": "uint256",
          "name": "",
          "type": "uint256"
        }
      ],
      "payable": false,
      "stateMutability": "view",
      "type": "function"
    },
    {
      "constant": true,
      "inputs": [],
      "name": "getAllInstrumentsSupported",
      "outputs": [
        {
          "internalType": "address[]",
          "name": "",
          "type": "address[]"
        }
      ],
      "payable": false,
      "stateMutability": "view",
      "type": "function"
    },
    {
      "constant": true,
      "inputs": [
        {
          "internalType": "address",
          "name": "instrument_",
          "type": "address"
        }
      ],
      "name": "getInstrumentData",
      "outputs": [
        {
          "internalType": "string",
          "name": "name",
          "type": "string"
        },
        {
          "internalType": "address",
          "name": "iTokenAddress",
          "type": "address"
        },
        {
          "internalType": "uint256",
          "name": "decimals",
          "type": "uint256"
        },
        {
          "internalType": "bool",
          "name": "isSIGHMechanismActivated",
          "type": "bool"
        },
        {
          "internalType": "uint256",
          "name": "supplyindex",
          "type": "uint256"
        },
        {
          "internalType": "uint256",
          "name": "borrowindex",
          "type": "uint256"
        }
      ],
      "payable": false,
      "stateMutability": "view",
      "type": "function"
    },
    {
      "constant": true,
      "inputs": [
        {
          "internalType": "address",
          "name": "instrument",
          "type": "address"
        }
      ],
      "name": "getInstrumentSighMechansimStates",
      "outputs": [
        {
          "internalType": "uint256",
          "name": "suppliers_speed",
          "type": "uint256"
        },
        {
          "internalType": "uint256",
          "name": "borrowers_speed",
          "type": "uint256"
        },
        {
          "internalType": "uint256",
          "name": "staking_speed",
          "type": "uint256"
        },
        {
          "internalType": "uint256",
          "name": "_24HrVolatility",
          "type": "uint256"
        },
        {
          "internalType": "string",
          "name": "side",
          "type": "string"
        },
        {
          "internalType": "uint256",
          "name": "percentTotalVolatility",
          "type": "uint256"
        }
      ],
      "payable": false,
      "stateMutability": "view",
      "type": "function"
    },
    {
      "constant": true,
      "inputs": [
        {
          "internalType": "address",
          "name": "instrument_",
          "type": "address"
        }
      ],
      "name": "getAllPriceSnapshots",
      "outputs": [
        {
          "internalType": "uint256[24]",
          "name": "",
          "type": "uint256[24]"
        }
      ],
      "payable": false,
      "stateMutability": "view",
      "type": "function"
    },
    {
      "constant": true,
      "inputs": [],
      "name": "getBlockNumbersForPriceSnapshots",
      "outputs": [
        {
          "internalType": "uint256[24]",
          "name": "",
          "type": "uint256[24]"
        }
      ],
      "payable": false,
      "stateMutability": "view",
      "type": "function"
    },
    {
      "constant": true,
      "inputs": [],
      "name": "getSIGHSpeed",
      "outputs": [
        {
          "internalType": "uint256",
          "name": "",
          "type": "uint256"
        }
      ],
      "payable": false,
      "stateMutability": "view",
      "type": "function"
    },
    {
      "constant": true,
      "inputs": [
        {
          "internalType": "address",
          "name": "instrument_",
          "type": "address"
        }
      ],
      "name": "isInstrumentSupported",
      "outputs": [
        {
          "internalType": "bool",
          "name": "",
          "type": "bool"
        }
      ],
      "payable": false,
      "stateMutability": "view",
      "type": "function"
    },
    {
      "constant": true,
      "inputs": [],
      "name": "totalInstrumentsSupported",
      "outputs": [
        {
          "internalType": "uint256",
          "name": "",
          "type": "uint256"
        }
      ],
      "payable": false,
      "stateMutability": "view",
      "type": "function"
    },
    {
      "constant": true,
      "inputs": [
        {
          "internalType": "address",
          "name": "instrument_",
          "type": "address"
        }
      ],
      "name": "getInstrumentSupplyIndex",
      "outputs": [
        {
          "internalType": "uint256",
          "name": "",
          "type": "uint256"
        }
      ],
      "payable": false,
      "stateMutability": "view",
      "type": "function"
    },
    {
      "constant": true,
      "inputs": [
        {
          "internalType": "address",
          "name": "instrument_",
          "type": "address"
        }
      ],
      "name": "getInstrumentBorrowIndex",
      "outputs": [
        {
          "internalType": "uint256",
          "name": "",
          "type": "uint256"
        }
      ],
      "payable": false,
      "stateMutability": "view",
      "type": "function"
    },
    {
      "constant": true,
      "inputs": [],
      "name": "getupperCheckProfitPercentage",
      "outputs": [
        {
          "internalType": "uint256",
          "name": "",
          "type": "uint256"
        }
      ],
      "payable": false,
      "stateMutability": "view",
      "type": "function"
    },
    {
      "constant": true,
      "inputs": [
        {
          "internalType": "address",
          "name": "instrument_",
          "type": "address"
        },
        {
          "internalType": "uint256",
          "name": "clock",
          "type": "uint256"
        }
      ],
      "name": "checkPriceSnapshots",
      "outputs": [
        {
          "internalType": "uint256",
          "name": "",
          "type": "uint256"
        }
      ],
      "payable": false,
      "stateMutability": "view",
      "type": "function"
    },
    {
      "constant": true,
      "inputs": [
        {
          "internalType": "address",
          "name": "instrument_",
          "type": "address"
        }
      ],
      "name": "checkinitializationCounter",
      "outputs": [
        {
          "internalType": "uint32",
          "name": "",
          "type": "uint32"
        }
      ],
      "payable": false,
      "stateMutability": "view",
      "type": "function"
    },
    {
      "constant": true,
      "inputs": [],
      "name": "getDeltaBlocksForSpeed",
      "outputs": [
        {
          "internalType": "uint256",
          "name": "",
          "type": "uint256"
        }
      ],
      "payable": false,
      "stateMutability": "view",
      "type": "function"
    },
    {
      "constant": true,
      "inputs": [],
      "name": "getPrevSpeedRefreshBlock",
      "outputs": [
        {
          "internalType": "uint256",
          "name": "",
          "type": "uint256"
        }
      ],
      "payable": false,
      "stateMutability": "view",
      "type": "function"
    },
    {
      "constant": true,
      "inputs": [],
      "name": "getBlocksRemainingToNextSpeedRefresh",
      "outputs": [
        {
          "internalType": "uint256",
          "name": "",
          "type": "uint256"
        }
      ],
      "payable": false,
      "stateMutability": "view",
      "type": "function"
    },
    {
      "constant": true,
      "inputs": [],
      "name": "getBlockNumber",
      "outputs": [
        {
          "internalType": "uint32",
          "name": "",
          "type": "uint32"
        }
      ],
      "payable": false,
      "stateMutability": "view",
      "type": "function"
    }
  ],
  "bytecode": "0x60008080556037805460ff60a01b1916905560a06040526080819052603855600160575534801561002f57600080fd5b50614e438061003f6000396000f3fe608060405234801561001057600080fd5b506004361061021c5760003560e01c80637c52b66811610125578063bf1678f6116100ad578063c72c4d101161007c578063c72c4d1014610727578063d63570631461072f578063eeabe79f14610755578063f9665d441461075d578063ffffd7fb1461078b5761021c565b8063bf1678f6146106cb578063c3d1b72d146106d3578063c4d66de8146106f9578063c6a6bfb11461071f5761021c565b8063832c6c90116100f4578063832c6c90146106165780638d9cf8641461063b5780638e26fc38146106615780639a717b241461069d578063be36810a146106c35761021c565b80637c52b668146105865780637c55ccb3146105ac5780637dc0d1d0146105b6578063831449de146105be5761021c565b80634dc54a38116101a857806352bbe6581161017757806352bbe6581461047f578063570b39d0146104b5578063659f73c5146104bd578063663e34c2146104fe5780636f610c501461057e5761021c565b80634dc54a38146103305780634df859fd146104075780634f425fbb146104335780634f78deef146104595761021c565b80631e7faed9116101ef5780631e7faed9146102c557806321428a12146102e25780632df0f9a9146102ea5780633e9552651461030757806342cbb15c1461030f5761021c565b806304c66321146102215780630d7ff887146102615780630ef9e9d71461028557806310fa61e61461029f575b600080fd5b61024d6004803603604081101561023757600080fd5b506001600160a01b0381351690602001356107b1565b604080519115158252519081900360200190f35b610269610963565b604080516001600160a01b039092168252519081900360200190f35b61028d610972565b60408051918252519081900360200190f35b61028d600480360360208110156102b557600080fd5b50356001600160a01b0316610979565b61024d600480360360208110156102db57600080fd5b50356109c5565b610269610af8565b61024d6004803603602081101561030057600080fd5b5035610b07565b61028d610c0e565b610317610c14565b6040805163ffffffff9092168252519081900360200190f35b6103566004803603602081101561034657600080fd5b50356001600160a01b0316610c18565b6040518080602001876001600160a01b03166001600160a01b0316815260200186815260200185151515158152602001848152602001838152602001828103825288818151815260200191508051906020019080838360005b838110156103c75781810151838201526020016103af565b50505050905090810190601f1680156103f45780820380516001836020036101000a031916815260200191505b5097505050505050505060405180910390f35b61028d6004803603604081101561041d57600080fd5b506001600160a01b038135169060200135610d06565b61024d6004803603602081101561044957600080fd5b50356001600160a01b0316610d32565b61024d6004803603602081101561046f57600080fd5b50356001600160a01b0316610e25565b61024d6004803603606081101561049557600080fd5b506001600160a01b03813581169160208101359091169060400135611100565b61028d61167a565b6104c5611680565b604051808261030080838360005b838110156104eb5781810151838201526020016104d3565b5050505090500191505060405180910390f35b6105246004803603602081101561051457600080fd5b50356001600160a01b03166116bd565b604051808781526020018681526020018581526020018481526020018060200183815260200182810382528481815181526020019150805190602001908083836000838110156103c75781810151838201526020016103af565b61028d6117a0565b61024d6004803603602081101561059c57600080fd5b50356001600160a01b03166117d7565b6105b46118c2565b005b610269611981565b6105c6611990565b60408051602080825283518183015283519192839290830191858101910280838360005b838110156106025781810151838201526020016105ea565b505050509050019250505060405180910390f35b61024d6004803603604081101561062c57600080fd5b508035151590602001356119f1565b6103176004803603602081101561065157600080fd5b50356001600160a01b0316611c0c565b61028d6004803603608081101561067757600080fd5b506001600160a01b03813581169160208101358216916040820135169060600135611c30565b61028d600480360360208110156106b357600080fd5b50356001600160a01b0316611f9f565b61028d611fe2565b61024d611fe8565b61024d600480360360208110156106e957600080fd5b50356001600160a01b031661203d565b6105b46004803603602081101561070f57600080fd5b50356001600160a01b031661205b565b61028d61217b565b6102696121fd565b6104c56004803603602081101561074557600080fd5b50356001600160a01b031661220c565b61028d61225f565b61024d6004803603604081101561077357600080fd5b506001600160a01b0381358116916020013516612265565b61024d600480360360208110156107a157600080fd5b50356001600160a01b0316612679565b6000336001600160a01b0316603460009054906101000a90046001600160a01b03166001600160a01b031663db49224b6040518163ffffffff1660e01b815260040160206040518083038186803b15801561080b57600080fd5b505afa15801561081f573d6000803e3d6000fd5b505050506040513d602081101561083557600080fd5b50516001600160a01b03161461087c5760405162461bcd60e51b815260040180806020018281038252603a815260200180614ab4603a913960400191505060405180910390fd5b6001600160a01b0383166000908152603a602052604090205460ff166108d7576040805162461bcd60e51b81526020600482015260196024820152600080516020614def833981519152604482015290519081900360640190fd5b6001600160a01b03831660009081526056602052604090206002018054908390557f60ab6bb8f64f97a68e803dc67f55f0a08732fe0db1e669b39f3b45dd35d9580d848285610924610c14565b604080516001600160a01b03909516855260208501939093528383019190915263ffffffff166060830152519081900360800190a15060019392505050565b6037546001600160a01b031681565b6038545b90565b6001600160a01b0381166000908152603a602052604081205460ff16156109bc57506001600160a01b0381166000908152603a60205260409020600701546109c0565b5060005b919050565b6000336001600160a01b0316603460009054906101000a90046001600160a01b03166001600160a01b031663db49224b6040518163ffffffff1660e01b815260040160206040518083038186803b158015610a1f57600080fd5b505afa158015610a33573d6000803e3d6000fd5b505050506040513d6020811015610a4957600080fd5b50516001600160a01b031614610a905760405162461bcd60e51b815260040180806020018281038252603a815260200180614ab4603a913960400191505060405180910390fd5b610a98611fe8565b5060578054908390557f8574a512a3537f7f97e2c60304507aa6816866c2d1fed5ffa1815cb01d2b1e448184610acc610c14565b60408051938452602084019290925263ffffffff1682820152519081900360600190a150600192915050565b6035546001600160a01b031681565b6000336001600160a01b0316603460009054906101000a90046001600160a01b03166001600160a01b031663db49224b6040518163ffffffff1660e01b815260040160206040518083038186803b158015610b6157600080fd5b505afa158015610b75573d6000803e3d6000fd5b505050506040513d6020811015610b8b57600080fd5b50516001600160a01b031614610bd25760405162461bcd60e51b815260040180806020018281038252603a815260200180614ab4603a913960400191505060405180910390fd5b610bda611fe8565b5060558054908390557fb35ae78d38c9ad12feab06bfa59b6d4364d33e312f0e00ffb1776f0c60e5ff7a8184610acc610c14565b60585490565b4390565b6001600160a01b038181166000908152603a6020908152604080832060028082015460038301546004840154600585015460078601546001968701805489516101009982161599909902600019011696909604601f81018a90048a0288018a0190985287875260609a8a998a998a998a9998909316969560ff1694939291889190830182828015610cea5780601f10610cbf57610100808354040283529160200191610cea565b820191906000526020600020905b815481529060010190602001808311610ccd57829003601f168201915b5050505050955095509550955095509550955091939550919395565b6001600160a01b0382166000908152603b602052604081208260188110610d2957fe5b01549392505050565b6037546000906001600160a01b03163314610d7e5760405162461bcd60e51b8152600401808060200182810382526031815260200180614a406031913960400191505060405180910390fd5b6001600160a01b0382166000908152603a602052604090205460ff16610dd9576040805162461bcd60e51b81526020600482015260196024820152600080516020614def833981519152604482015290519081900360640190fd5b610de282612918565b610e1d5760405162461bcd60e51b815260040180806020018281038252602d815260200180614be1602d913960400191505060405180910390fd5b506001919050565b6000336001600160a01b0316603460009054906101000a90046001600160a01b03166001600160a01b031663db49224b6040518163ffffffff1660e01b815260040160206040518083038186803b158015610e7f57600080fd5b505afa158015610e93573d6000803e3d6000fd5b505050506040513d6020811015610ea957600080fd5b50516001600160a01b031614610ef05760405162461bcd60e51b815260040180806020018281038252603a815260200180614ab4603a913960400191505060405180910390fd5b6001600160a01b0382166000908152603a602052604090205460ff16610f4b576040805162461bcd60e51b81526020600482015260196024820152600080516020614def833981519152604482015290519081900360640190fd5b6001600160a01b0382166000908152603a602052604090206004015460ff16610fa55760405162461bcd60e51b8152600401808060200182810382526043815260200180614a716043913960600191505060405180910390fd5b610fad611fe8565b50610fb661477f565b6001600160a01b0383166000908152603b60205260409020610fda9082601861479e565b506001600160a01b0383166000908152603b60209081526040808320601801805463ffffffff19169055603a909152812060048101805460ff191690557f95eb8164ada5bbd9b16bb9918bcf97960c1d006f76427f3faf2bfb2ebc963e4291859160010190611047610c14565b604080516001600160a01b03861681528315159181019190915263ffffffff821660608201526080602082018181528554600260001961010060018416150201909116049183018290529060a0830190869080156110e65780601f106110bb576101008083540402835291602001916110e6565b820191906000526020600020905b8154815290600101906020018083116110c957829003601f168201915b50509550505050505060405180910390a150600192915050565b6001600160a01b0383166000908152603a602052604081205460ff161561116e576040805162461bcd60e51b815260206004820152601d60248201527f496e737472756d656e7420616c726561647920737570706f727465642e000000604482015290519081900360640190fd5b603980546001808201835560009283527fdc16fef70f8d5ddbc01ee3d903d1e69c18a3c7be080eb86a81e0578814ee58d390910180546001600160a01b0319166001600160a01b0388811691909117909155604080516101208101825292835280516306fdde0360e01b81529051879460208501938616926306fdde039260048083019392829003018186803b15801561120757600080fd5b505afa15801561121b573d6000803e3d6000fd5b505050506040513d6000823e601f3d908101601f19168201604052602081101561124457600080fd5b810190808051604051939291908464010000000082111561126457600080fd5b90830190602082018581111561127957600080fd5b825164010000000081118282018810171561129357600080fd5b82525081516020918201929091019080838360005b838110156112c05781810151838201526020016112a8565b50505050905090810190601f1680156112ed5780820380516001836020036101000a031916815260200191505b506040525050508152602001856001600160a01b031681526020018481526020016000151581526020016ec097ce7bc90715b34b9f10000000008152602001611334610c14565b63ffffffff1681526020016ec097ce7bc90715b34b9f1000000000815260200161135c610c14565b63ffffffff1690526001600160a01b0386166000908152603a602090815260409091208251815460ff191690151517815582820151805191926113a7926001850192909101906147dc565b5060408201518160020160006101000a8154816001600160a01b0302191690836001600160a01b031602179055506060820151816003015560808201518160040160006101000a81548160ff02191690831515021790555060a0820151816005015560c0820151816006015560e0820151816007015561010082015181600801559050506040518060c0016040528060008152602001600081526020016000815260200160008152602001604051806040016040528060048152602001631b9d5b1b60e21b8152508152602001600081525060566000876001600160a01b03166001600160a01b031681526020019081526020016000206000820151816000015560208201518160010155604082015181600201556060820151816003015560808201518160040190805190602001906114e29291906147dc565b5060a091909101516005909101556001600160a01b0385166000908152603b602052604090206018015463ffffffff1661157d5761151e61477f565b604080518082018252828152600060208083018290526001600160a01b038a168252603b9052919091208151611557908290601861479e565b50602091909101516018909101805463ffffffff191663ffffffff909216919091179055505b6001600160a01b038581166000818152603a602090815260409182902082519384529183018790529287166060830152436080830181905260a093830184815260019283018054600294811615610100026000190116939093049484018590527f147287eb47162017688bf4e80590ac2faa6656751fd480b76fa8f7612910141a948a9489938b93909260c08301908790801561165b5780601f106116305761010080835404028352916020019161165b565b820191906000526020600020905b81548152906001019060200180831161163e57829003601f168201915b5050965050505050505060405180910390a160019150505b9392505050565b60555490565b61168861477f565b6040805161030081019182905290603c9060189082845b81548152602001906001019080831161169f575b5050505050905090565b6001600160a01b03811660009081526056602090815260408083208054600180830154600280850154600386015460058701546004909701805489519681161561010002600019011693909304601f81018a90048a0286018a019098528785528998899889986060988a9890979693919290918491908301828280156117845780601f1061175957610100808354040283529160200191611784565b820191906000526020600020905b81548152906001019060200180831161176757829003601f168201915b5050505050915095509550955095509550955091939550919395565b6000806117af43605854612b5a565b90508060575411156117cf576117c760575482612b5a565b915050610976565b600091505090565b6037546000906001600160a01b031633146118235760405162461bcd60e51b8152600401808060200182810382526031815260200180614a406031913960400191505060405180910390fd5b6001600160a01b0382166000908152603a602052604090205460ff1661187e576040805162461bcd60e51b81526020600482015260196024820152600080516020614def833981519152604482015290519081900360640190fd5b61188782612b94565b610e1d5760405162461bcd60e51b815260040180806020018281038252602d815260200180614d06602d913960400191505060405180910390fd5b6034546040805163db49224b60e01b8152905133926001600160a01b03169163db49224b916004808301926020929190829003018186803b15801561190657600080fd5b505afa15801561191a573d6000803e3d6000fd5b505050506040513d602081101561193057600080fd5b50516001600160a01b0316146119775760405162461bcd60e51b815260040180806020018281038252603a815260200180614ab4603a913960400191505060405180910390fd5b61197f612dd9565b565b6036546001600160a01b031681565b606060398054806020026020016040519081016040528092919081815260200182805480156116b357602002820191906000526020600020905b81546001600160a01b031681526001909101906020018083116119ca575050505050905090565b6000336001600160a01b0316603460009054906101000a90046001600160a01b03166001600160a01b031663db49224b6040518163ffffffff1660e01b815260040160206040518083038186803b158015611a4b57600080fd5b505afa158015611a5f573d6000803e3d6000fd5b505050506040513d6020811015611a7557600080fd5b50516001600160a01b031614611abc5760405162461bcd60e51b815260040180806020018281038252603a815260200180614ab4603a913960400191505060405180910390fd5b662386f26fc100008211611b015760405162461bcd60e51b815260040180806020018281038252603c8152602001806148f1603c913960400191505060405180910390fd5b678ac7230489e80000821115611b485760405162461bcd60e51b8152600401808060200182810382526034815260200180614bad6034913960400191505060405180910390fd5b611b50611fe8565b5082611b7c576037805460ff60a01b191690556040805160208101909152600090819052603855611ba3565b6037805460ff60a01b1916600160a01b179055604080516020810190915282905260388290555b6037546038547ff27fc072c7772962292b4f5221d157312241ae2757928921516bb837b3d1e7bc91600160a01b900460ff1690611bde610c14565b604080519315158452602084019290925263ffffffff1682820152519081900360600190a150600192915050565b6001600160a01b03166000908152603b602052604090206018015463ffffffff1690565b603554604080516370a0823160e01b81523060048201529051600092839285926001600160a01b03909216916370a0823191602480820192602092909190829003018186803b158015611c8257600080fd5b505afa158015611c96573d6000803e3d6000fd5b505050506040513d6020811015611cac57600080fd5b50511115611f93576035546040805163a9059cbb60e01b81526001600160a01b038781166004830152602482018790529151919092169163a9059cbb9160448083019260209291908290030181600087803b158015611d0a57600080fd5b505af1158015611d1e573d6000803e3d6000fd5b505050506040513d6020811015611d3457600080fd5b5051611d715760405162461bcd60e51b815260040180806020018281038252602c815260200180614c91602c913960400191505060405180910390fd5b603460009054906101000a90046001600160a01b03166001600160a01b0316631db4f5696040518163ffffffff1660e01b815260040160206040518083038186803b158015611dbf57600080fd5b505afa158015611dd3573d6000803e3d6000fd5b505050506040513d6020811015611de957600080fd5b50516001600160a01b0385811691161415611f445760345460408051631db4f56960e01b815290516000926001600160a01b031691631db4f569916004808301926020929190829003018186803b158015611e4357600080fd5b505afa158015611e57573d6000803e3d6000fd5b505050506040513d6020811015611e6d57600080fd5b50516040805163660ecbc960e01b81526001600160a01b0389811660048301526024820188905291519293509083169163660ecbc9916044808201926020929091908290030181600087803b158015611ec557600080fd5b505af1158015611ed9573d6000803e3d6000fd5b505050506040513d6020811015611eef57600080fd5b5051611f42576040805162461bcd60e51b815260206004820152601f60248201527f4661696c656420746f20757064617465205374616b65642062616c616e636500604482015290519081900360640190fd5b505b604080516001600160a01b0380891682528716602082015280820185905290517f922c86da5ba82864ddc6d719ccdd80a788323e2a4dc17cfe258d00ba885b2bec9181900360600190a1611f96565b50815b95945050505050565b6001600160a01b0381166000908152603a602052604081205460ff16156109bc57506001600160a01b0381166000908152603a60205260409020600501546109c0565b60575490565b60008043905060006120158260585460405180606001604052806036815260200161497360369139612f7e565b9050605754811061203457612028613015565b50605855506001610976565b60009250505090565b6001600160a01b03166000908152603a602052604090205460ff1690565b6000612065613d58565b60015490915060ff168061207c575061207c613d5d565b80612088575060005481115b6120c35760405162461bcd60e51b815260040180806020018281038252602e815260200180614c63602e913960400191505060405180910390fd5b60015460ff161580156120e2576001805460ff19168117905560008290555b603480546001600160a01b0319166001600160a01b038516179055612105612dd9565b603454603554603654603754604080516001600160a01b039586168152938516602085015291841683830152909216606082015290517f0c1ebb533f3d7d1a5b07028f3f2b3cd0d8b9912e1e524eea0afa6873c6fff6499181900360800190a18015612176576001805460ff191690555b505050565b603554604080516370a0823160e01b8152306004820152905160009283926001600160a01b03909116916370a0823191602480820192602092909190829003018186803b1580156121cb57600080fd5b505afa1580156121df573d6000803e3d6000fd5b505050506040513d60208110156121f557600080fd5b505191505090565b6034546001600160a01b031681565b61221461477f565b6001600160a01b0382166000908152603b60205260409081902081516103008101928390529160189082845b8154815260200190600101908083116122405750505050509050919050565b60395490565b6001600160a01b0382166000908152603a602052604081205460ff166122d2576040805162461bcd60e51b815260206004820152601d60248201527f496e737472756d656e7420616c726561647920737570706f727465642e000000604482015290519081900360640190fd5b603954600090815b8181101561232457856001600160a01b0316603982815481106122f957fe5b6000918252602090912001546001600160a01b0316141561231c57809250612324565b6001016122da565b506039600182038154811061233557fe5b600091825260209091200154603980546001600160a01b03909216918490811061235b57fe5b600091825260209091200180546001600160a01b0319166001600160a01b03929092169190911790556039805490612397906000198301614849565b5060395460001982019081146123de5760405162461bcd60e51b815260040180806020018281038252604681526020018061492d6046913960600191505060405180910390fd5b6060603a6000886001600160a01b03166001600160a01b031681526020019081526020016000206001018054600181600116156101000203166002900480601f01602080910402602001604051908101604052809291908181526020018280546001816001161561010002031660029004801561249c5780601f106124715761010080835404028352916020019161249c565b820191906000526020600020905b81548152906001019060200180831161247f57829003601f168201915b505050506001600160a01b0389166000908152603a60205260408120805460ff1916815592935090506124d2600183018261486d565b50600281810180546001600160a01b0319169055600060038084018290556004808501805460ff1916905560058501839055600685018390556007850183905560089094018290556001600160a01b038b16825260566020526040822082815560018101839055928301829055820181905590916125529083018261486d565b5060006005919091018190556001600160a01b0388168152603b602052604081209061257e82826148b4565b6018820160006101000a81549063ffffffff021916905550507f65f75a1dd08cc1db84fba8e6f47ee955c0a2d816b86a642be1f1f7867bf38ee58787834360405180856001600160a01b03166001600160a01b03168152602001846001600160a01b03166001600160a01b0316815260200180602001838152602001828103825284818151815260200191508051906020019080838360005b8381101561262f578181015183820152602001612617565b50505050905090810190601f16801561265c5780820380516001836020036101000a031916815260200191505b509550505050505060405180910390a15060019695505050505050565b6000336001600160a01b0316603460009054906101000a90046001600160a01b03166001600160a01b031663db49224b6040518163ffffffff1660e01b815260040160206040518083038186803b1580156126d357600080fd5b505afa1580156126e7573d6000803e3d6000fd5b505050506040513d60208110156126fd57600080fd5b50516001600160a01b0316146127445760405162461bcd60e51b815260040180806020018281038252603a815260200180614ab4603a913960400191505060405180910390fd5b6001600160a01b0382166000908152603a602052604090205460ff1661279f576040805162461bcd60e51b81526020600482015260196024820152600080516020614def833981519152604482015290519081900360640190fd5b6001600160a01b0382166000908152603a602052604090206004015460ff16156127fa5760405162461bcd60e51b815260040180806020018281038252603c8152602001806149a9603c913960400191505060405180910390fd5b612802611fe8565b506001600160a01b0382166000908152603a6020526040902060048101805460ff19166001908117918290557f95eb8164ada5bbd9b16bb9918bcf97960c1d006f76427f3faf2bfb2ebc963e4292859291019060ff16612860610c14565b604080516001600160a01b03861681528315159181019190915263ffffffff821660608201526080602082018181528554600260001961010060018416150201909116049183018290529060a0830190869080156128ff5780601f106128d4576101008083540402835291602001916128ff565b820191906000526020600020905b8154815290600101906020018083116128e257829003601f168201915b50509550505050505060405180910390a1506001919050565b6000612922610c14565b6001600160a01b0383166000908152603a602052604090206006015463ffffffff919091161415612955575060016109c0565b6001600160a01b0382166000908152603a6020908152604080832060568352818420805460029091015483516060810190945260338085529295946129a6949293919291906149e590830139613d63565b905060006129b2610c14565b63ffffffff16905060006129e3828560060154604051806060016040528060338152602001614dbc60339139612f7e565b90506000811180156129f55750600083115b15612b46576000612a068285613dc1565b6037546040805163792a0feb60e01b81526001600160a01b038b811660048301529151939450600093919092169163792a0feb916024808301926020929190829003018186803b158015612a5957600080fd5b505afa158015612a6d573d6000803e3d6000fd5b505050506040513d6020811015612a8357600080fd5b50519050612a8f6148c3565b60008211612aac5760405180602001604052806000815250612ab6565b612ab68383613e03565b9050612ac06148c3565b612adc60405180602001604052808a6005015481525083613e41565b82518151604080516001600160a01b038f1681526020810189905280820193909352606083019190915260808201899052519192507fb867b8b8d737258b7b2a8f2a73127133cae096a336db6b64516ce59e8e733f5b919081900360a00190a15160058801555050505b506006909201919091555060019050919050565b60006116738383604051806040016040528060158152602001747375627472616374696f6e20756e646572666c6f7760581b815250612f7e565b6000612b9e610c14565b6001600160a01b0383166000908152603a602052604090206008015463ffffffff919091161415612bd1575060016109c0565b6001600160a01b0382166000908152603a602090815260408083206056835281842060018101546002909101548351606081019094526033808552929594612c25949293919291906149e590830139613d63565b90506000612c31610c14565b63ffffffff1690506000612c62828560080154604051806060016040528060338152602001614c0e60339139612f7e565b9050600081118015612c745750600083115b15612dc5576000612c858285613dc1565b60375460408051630915c83b60e21b81526001600160a01b038b811660048301529151939450600093919092169163245720ec916024808301926020929190829003018186803b158015612cd857600080fd5b505afa158015612cec573d6000803e3d6000fd5b505050506040513d6020811015612d0257600080fd5b50519050612d0e6148c3565b60008211612d2b5760405180602001604052806000815250612d35565b612d358383613e03565b9050612d3f6148c3565b612d5b60405180602001604052808a6007015481525083613e41565b82518151604080516001600160a01b038f1681526020810189905280820193909352606083019190915260808201899052519192507f30f0a079ceae43619c1d76b029ef6084b05b2234181e81720fea3b9624177601919081900360a00190a15160078801555050505b506008909201919091555060019050919050565b603460009054906101000a90046001600160a01b03166001600160a01b031663841aa40c6040518163ffffffff1660e01b815260040160206040518083038186803b158015612e2757600080fd5b505afa158015612e3b573d6000803e3d6000fd5b505050506040513d6020811015612e5157600080fd5b5051603580546001600160a01b0319166001600160a01b0392831617905560345460408051631f94a27560e31b81529051919092169163fca513a8916004808301926020929190829003018186803b158015612eac57600080fd5b505afa158015612ec0573d6000803e3d6000fd5b505050506040513d6020811015612ed657600080fd5b5051603680546001600160a01b0319166001600160a01b039283161790556034546040805163076b7fbb60e51b81529051919092169163ed6ff760916004808301926020929190829003018186803b158015612f3157600080fd5b505afa158015612f45573d6000803e3d6000fd5b505050506040513d6020811015612f5b57600080fd5b5051603780546001600160a01b0319166001600160a01b03909216919091179055565b6000818484111561300d5760405162461bcd60e51b81526004018080602001828103825283818151815260200191508051906020019080838360005b83811015612fd2578181015183820152602001612fba565b50505050905090810190601f168015612fff5780820380516001836020036101000a031916815260200191505b509250505060405180910390fd5b505050900390565b6060603980548060200260200160405190810160405280929190818152602001828054801561306d57602002820191906000526020600020905b81546001600160a01b0316815260019091019060200180831161304f575b50506054549394506000936130b79350439250603c91506001600160e01b03166018811061309757fe5b0154604051806060016040528060218152602001614b8c60219139612f7e565b6054549091507fd54b3c8dde4fe116ee9cf6976b328b65c622d171e8a73017473b4257bd5bf6f8906001600160e01b031682603c82601881106130f657fe5b0154604080516001600160e01b039094168452602084019290925282820152436060830152519081900360800190a16054544390603c906001600160e01b03166018811061314057fe5b015561314a613e66565b6131855760405162461bcd60e51b8152600401808060200182810382526022815260200180614c416022913960400191505060405180910390fd5b606082516040519080825280602002602001820160405280156131c257816020015b6131af6148c3565b8152602001906001900390816131a75790505b5090506060835160405190808252806020026020018201604052801561320257816020015b6131ef6148c3565b8152602001906001900390816131e75790505b50905061320d6148c3565b50604080516020810190915260008082525b8551811015613afa57600086828151811061323657fe5b602002602001015190506132486148c3565b60408051602080820183526001600160a01b0385166000908152603b909152919091206054548291906001600160e01b03166018811061328457fe5b0154905290506132926148c3565b60408051602080820180845260365463b3596f0760e01b9091526001600160a01b03878116602485015293519293849391169163b3596f07916044808601929190818703018186803b1580156132e757600080fd5b505afa1580156132fb573d6000803e3d6000fd5b505050506040513d602081101561331157600080fd5b5051905280519091506133555760405162461bcd60e51b8152600401808060200182810382526039815260200180614aee6039913960400191505060405180910390fd5b80516001600160a01b0384166000908152603b602052604090206054546001600160e01b03166018811061338557fe5b015581516001600160a01b0384166000908152603b602052604090206054547f4c4cb8d799ad60c5e77071f11a367ff22e59c2de36f996f1daf8a2f99b1826a592869290916001600160e01b0316601881106133dd57fe5b0154605454604080516001600160a01b0390951685526020850193909352838301919091526001600160e01b03166060830152519081900360800190a16001600160a01b0383166000908152603a602052604090206004015460ff16158061346757506001600160a01b0383166000908152603b6020526040902060189081015463ffffffff1614155b156135d2576040518060200160405280600081525087858151811061348857fe5b6020026020010181905250604051806020016040528060008152508685815181106134af57fe5b6020908102919091018101919091526040805180820182526008815267696e61637469766560c01b8184019081526001600160a01b038716600090815260569094529190922091516135059260040191906147dc565b506001600160a01b0383166000908152603b6020526040902060189081015463ffffffff1610156135cd576001600160a01b0383166000908152603b6020908152604091829020601801548251808401909352601e83527f507269636520436f756e746572206164646974696f6e206661696c65642e0000918301919091526135999163ffffffff90911690600190613d63565b6001600160a01b0384166000908152603b60205260409020601801805463ffffffff191663ffffffff929092169190911790555b613a00565b6135dc8282613ebf565b15613813576037546040805163792a0feb60e01b81526001600160a01b0386811660048301529151600093929092169163792a0feb91602480820192602092909190829003018186803b15801561363257600080fd5b505afa158015613646573d6000803e3d6000fd5b505050506040513d602081101561365c57600080fd5b50519050600061366a6148c3565b6136748585613ec6565b9150915060006136826148c3565b61368c8386613f02565b80516001600160a01b03808c166000818152603a602090815260409182902060030154603654835163a9ec70d160e01b81526004810195909552925197995095975061372f96949594919093169263a9ec70d19260248082019391829003018186803b1580156136fb57600080fd5b505afa15801561370f573d6000803e3d6000fd5b505050506040513d602081101561372557600080fd5b505160ff16613f6a565b8c8a8151811061373b57fe5b60200260200101516000018181525050604051806020016040528060008152508b8a8151811061376757fe5b602002602001018190525061378f8a8d8b8151811061378257fe5b60200260200101516140bf565b809b5081955050508b89815181106137a357fe5b602090810291909101810151516001600160a01b038a1660008181526056808552604080832060038101959095558051808201909152600881526729bab8383634b2b960c11b81870190815293909252909352915161380892600490920191906147dc565b505050505050613a00565b60375460408051630915c83b60e21b81526001600160a01b0386811660048301529151600093929092169163245720ec91602480820192602092909190829003018186803b15801561386457600080fd5b505afa158015613878573d6000803e3d6000fd5b505050506040513d602081101561388e57600080fd5b50519050600061389c6148c3565b6138a68486613ec6565b9150915060006138b46148c3565b6138be8386613f02565b80516001600160a01b03808c166000818152603a602090815260409182902060030154603654835163a9ec70d160e01b81526004810195909552925197995095975061392d96949594919093169263a9ec70d19260248082019391829003018186803b1580156136fb57600080fd5b8b8a8151811061393957fe5b60200260200101516000018181525050604051806020016040528060008152508c8a8151811061396557fe5b60200260200101819052506139808a8c8b8151811061378257fe5b809b5081955050508a898151811061399457fe5b602090810291909101810151516001600160a01b038a166000818152605680855260408083206003810195909555805180820190915260088152672137b93937bbb2b960c11b8187019081529390925290935291516139f992600490920191906147dc565b5050505050505b6001600160a01b03831660008181526056602090815260409182902060038101548951845195865293850181905260608501849052608092850183815260049092018054600260001961010060018416150201909116049386018490527f0df8e3d371510d3b7d621f474e199bcea211830c364f434ad20ca33f5a0bc9d495899591949293919290919060a083019086908015613ade5780601f10613ab357610100808354040283529160200191613ade565b820191906000526020600020905b815481529060010190602001808311613ac157829003601f168201915b50509550505050505060405180910390a150505060010161321f565b50605554603754600160a01b900460ff1615613b3b576000613b1a6148c3565b613b2484886140de565b91509150613b368160000151886140f9565b925050505b60005b8651811015613cfe576000878281518110613b5557fe5b6020908102919091018101516001600160a01b038116600090815260569092526040909120805460019091015491925090613b8e6148c3565b865160009015613c4e5760008a8781518110613ba657fe5b6020026020010151600001511115613c0957613bd58a8781518110613bc757fe5b6020026020010151896143ff565b92509050613be38783614422565b6001600160a01b0386166000908152605660205260408120918255600190910155613c49565b613c18898781518110613bc757fe5b92509050613c268783614422565b6001600160a01b0386166000908152605660205260408120600181019290925590555b613c6f565b6001600160a01b038516600090815260566020526040812060018101829055555b613c7a606483614422565b6001600160a01b03861660008181526056602090815260409182902060058101859055805460019091015483519485529184018c9052838301526060830152608082019290925290517fd64ef6d519dc914efe554091a4d9cf435b9756c3eedce9446860554062de19c39181900360a00190a1505060019093019250613b3e915050565b50613d0761444a565b613d50576040805162461bcd60e51b8152602060048201526015602482015274155c19185d1a5b99c810d31bd8dac811985a5b1959605a1b604482015290519081900360640190fd5b505050505050565b600990565b303b1590565b60008383018285821015613db85760405162461bcd60e51b8152602060048201818152835160248401528351909283926044909101919085019080838360008315612fd2578181015183820152602001612fba565b50949350505050565b600061167383836040518060400160405280601781526020017f6d756c7469706c69636174696f6e206f766572666c6f770000000000000000008152506144db565b613e0b6148c3565b6040518060200160405280613e38613e32866ec097ce7bc90715b34b9f1000000000613dc1565b85614551565b90529392505050565b613e496148c3565b6040518060200160405280613e3885600001518560000151614584565b6000805b603954811015613eb757600060398281548110613e8357fe5b6000918252602090912001546001600160a01b03169050613ea381612918565b50613ead81612b94565b5050600101613e6a565b506001905090565b5190511190565b6000613ed06148c3565b600080613ee5866000015186600001516145ba565b6040805160208101909152908152909450925050505b9250929050565b6000613f0c6148c3565b600080613f1d8660000151866145dd565b90925090506000826003811115613f3057fe5b14613f4f57506040805160208101909152600081529092509050613efb565b60408051602081019091529081526000969095509350505050565b6000808311613faa5760405162461bcd60e51b8152600401808060200182810382526022815260200180614d9a6022913960400191505060405180910390fd5b60008211613fe95760405162461bcd60e51b8152600401808060200182810382526026815260200180614cbd6026913960400191505060405180910390fd5b600061401685670de0b6b3a76400006040518060600160405280602e8152602001614d6c602e91396144db565b905060006140408286600a0a604051806060016040528060288152602001614a186028913961461c565b9050600061406a8286600a0a604051806060016040528060238152602001614ce36023913961461c565b60408051898152602081018990528082018890526060810183905290519192507ffe9d10d13b2ee3396d1e4efc88cb4dbf5174580f2599868a20372cd286b4566f919081900360800190a19695505050505050565b60006140c96148c3565b600080613ee58660000151866000015161467e565b60006140e86148c3565b600080613f1d8660000151866146a4565b6055546036546035546040805163b3596f0760e01b81526001600160a01b0392831660048201529051600094938593169163b3596f07916024808301926020929190829003018186803b15801561414f57600080fd5b505afa158015614163573d6000803e3d6000fd5b505050506040513d602081101561417957600080fd5b50516035546036546040805163a9ec70d160e01b81526001600160a01b0393841660048201819052915194955090936000939092169163a9ec70d191602480820192602092909190829003018186803b1580156141d557600080fd5b505afa1580156141e9573d6000803e3d6000fd5b505050506040513d60208110156141ff57600080fd5b50516040805163313ce56760e01b8152905160ff90921692506000916001600160a01b0385169163313ce567916004808301926020929190829003018186803b15801561424b57600080fd5b505afa15801561425f573d6000803e3d6000fd5b505050506040513d602081101561427557600080fd5b505160555460ff909116915060009061428f908690613dc1565b9050600061429e828486613f6a565b604080516020810190915260385481529091506000906142bf908c90614422565b9050808211156143925760006142f18286600a0a604051806060016040528060388152602001614b27603891396144db565b9050600061431b8288600a0a604051806060016040528060398152602001614d33603991396144db565b9050600061434a82670de0b6b3a76400006040518060600160405280602d8152602001614b5f602d913961461c565b905061438c818b6040518060400160405280601d81526020017f4d6178205370656564206469766973696f6e2067617665206572726f7200000081525061461c565b9a505050505b60555460408051918252602082018990528181018d9052606082018c90526080820183905260a0820184905260c082018a9052517fa4dc08eb8e90f2fb1c44ca5d6b4b7fc9894bfb25fa369fa001241c8ec8d7895f9181900360e00190a150959998505050505050505050565b60006144096148c3565b8351835161441791906146cf565b915091509250929050565b6000670de0b6b3a764000061443b848460000151613dc1565b8161444257fe5b049392505050565b6054546000906001600160e01b03166017146144b25760545460408051808201909152601a81527f637572436c6f636b203a204164646974696f6e204661696c656400000000000060208201526144ad916001600160e01b031690600190613d63565b6144b5565b60005b605480546001600160e01b0319166001600160e01b039290921691909117905550600190565b60008315806144e8575082155b156144f557506000611673565b8383028385828161450257fe5b04148390613db85760405162461bcd60e51b8152602060048201818152835160248401528351909283926044909101919085019080838360008315612fd2578181015183820152602001612fba565b600061167383836040518060400160405280600e81526020016d646976696465206279207a65726f60901b81525061461c565b60006116738383604051806040016040528060118152602001706164646974696f6e206f766572666c6f7760781b815250613d63565b6000808383116145d1575060009050818303613efb565b50600390506000613efb565b600080836145f057506000905080613efb565b838302838582816145fd57fe5b041461461157506002915060009050613efb565b600092509050613efb565b6000818361466b5760405162461bcd60e51b8152602060048201818152835160248401528351909283926044909101919085019080838360008315612fd2578181015183820152602001612fba565b5082848161467557fe5b04949350505050565b60008083830184811061469657600092509050613efb565b506002915060009050613efb565b600080826146b85750600190506000613efb565b60008385816146c357fe5b04915091509250929050565b60006146d96148c3565b6000806146ee86670de0b6b3a76400006145dd565b9092509050600082600381111561470157fe5b1461472057506040805160208101909152600081529092509050613efb565b60008061472d83886146a4565b9092509050600082600381111561474057fe5b1461476257506040805160208101909152600081529094509250613efb915050565b604080516020810190915290815260009890975095505050505050565b6040518061030001604052806018906020820280388339509192915050565b82601881019282156147cc579160200282015b828111156147cc5782518255916020019190600101906147b1565b506147d89291506148d6565b5090565b828054600181600116156101000203166002900490600052602060002090601f016020900481019282601f1061481d57805160ff19168380011785556147cc565b828001600101855582156147cc57918201828111156147cc5782518255916020019190600101906147b1565b815481835581811115612176576000838152602090206121769181019083016148d6565b50805460018160011615610100020316600290046000825580601f1061489357506148b1565b601f0160209004906000526020600020908101906148b191906148d6565b50565b506148b19060188101906148d6565b6040518060200160405280600081525090565b61097691905b808211156147d857600081556001016148dc56fe546865206e65772050726f6669742050657263656e74616765206d7573742062652067726561746572207468616e20302e3031653138202831252920496e737472756d656e74206e6f742070726f7065726c792072656d6f7665642066726f6d20746865206c697374206f6620696e737472756d656e747320737570706f7274656452656672657368205349474820537065656473203a205375627472616374696f6e20756e646572666c6f7720666f7220626c6f636b73496e737472756d656e7420616c726561647920636f766572656420756e646572205349474820446973747269627574696f6e204d656368616e69736d537570706c696572207370656564206164646974696f6e2077697468207374616b696e67207370656564206f766572666c6f77496e737472756d656e7420446563696d616c7320636f7272656374696f6e20756e646572666c6f775468652063616c6c6572206d75737420626520746865204c656e64696e6720706f6f6c20436f726520636f6e7472616374496e737472756d656e7420616c7265616479206e6f7420737570706f7274656420627920746865205349474820446973747269627574696f6e204d656368616e69736d5468652063616c6c6572206d7573742062652074686520534947482046696e616e61636520436f6e666967757261746f7220436f6e74726163747265667265736853494748537065656473496e7465726e616c203a204f7261636c652072657475726e656420496e76616c69642050726963654d617820566f6c6174696c697479203a205349474820446563696d616c73206d756c7469706c69636174696f6e2067617665206572726f724d617820566f6c6174696c697479203a20446563696d616c73206469766973696f6e2067617665206572726f7244656c7461426c6f636b7320726573756c74656420696e20556e646572666c6f77546865206e657720537570706c69657220526174696f206d757374206265206c657373207468616e2031306531382028313078295570646174696e67205369676820537570706c7920496e6465786573206f7065726174696f6e206661696c656475706461746553494748426f72726f77496e646578203a20426c6f636b205375627472616374696f6e20556e646572666c6f775570646174696e6720496e737472756d656e7420496e6465786573204661696c6564436f6e747261637420696e7374616e63652068617320616c7265616479206265656e20696e697469616c697a65644661696c656420746f207472616e736665722061636375726564205349474820746f2074686520757365722e4f7261636c652072657475726e656420696e76616c696420707269636520446563696d616c73507269636520446563696d616c7320636f7272656374696f6e20756e646572666c6f775570646174696e67205369676820426f72726f7720496e6465786573206f7065726174696f6e206661696c65644d617820566f6c6174696c697479203a20507269636520446563696d616c73206d756c7469706c69636174696f6e2067617665206572726f724c6f737320416d6f756e74206d756c7469706c69636174696f6e2041646a7573746d656e74206f766572666c6f77496e737472756d656e7420446563696d616c732063616e6e6f74206265205a65726f75706461746553494748537570706c79496e646578203a20426c6f636b205375627472616374696f6e20556e646572666c6f77496e737472756d656e74206e6f7420737570706f727465642e00000000000000a265627a7a723158200a292b379352844fca8b8d0bd5f5b7b4018761d26b430eb931d332e082d5efe864736f6c63430005100032",
  "source": "pragma solidity ^0.5.16;\n\n/**\n * @title Sigh Distribution Handler Contract\n * @notice Handles the SIGH Loss Minimizing Mechanism for the Lending Protocol\n * @dev Accures SIGH for the supported markets based on losses made every 24 hours, along with Staking speeds. This accuring speed is updated every hour\n * @author SIGH Finance\n */\n \nimport \"openzeppelin-solidity/contracts/token/ERC20/IERC20.sol\"; \nimport \"openzeppelin-solidity/contracts/token/ERC20/ERC20Detailed.sol\"; \nimport \"../Math/Exponential.sol\";\nimport \"../../openzeppelin-upgradeability/VersionedInitializable.sol\";\n\nimport \"../../Configuration/GlobalAddressesProvider.sol\";\nimport \"../../LendingProtocolContracts/interfaces/IPriceOracleGetter.sol\";            \n\nimport \"../../LendingProtocolContracts/interfaces/ILendingPoolCore.sol\";     \nimport \"../Interfaces/ISighStaking.sol\";       \n\n\ncontract SIGHDistributionHandler is Exponential, VersionedInitializable {       // \n    \n// ######## CONTRACT ADDRESSES ########\n    GlobalAddressesProvider public addressesProvider;\n    IERC20 public Sigh_Address;\n    IPriceOracleGetter public oracle;\n    ILendingPoolCore public lendingPoolCore;\n\n// ######## PARAMETERS ########\n    uint constant SIGH_ClaimThreshold = 1e18;        ///  The threshold above which the flywheel transfers SIGH, in wei\n    uint constant sighInitialIndex = 1e36;            ///  The initial SIGH index for a market\n\n    bool private isSpeedUpperCheckAllowed = false;\n    Exp private upperCheckProfitPercentage = Exp({ mantissa : 0 });  \n\n    address[] private all_Instruments;    // LIST OF INSTRUMENTS \n\n// ######## INDIVIDUAL INSTRUMENT STATE ########\n\n    struct SIGHInstrument {\n        bool isListed;\n        string name;\n        address iTokenAddress;\n        uint256 decimals;\n        bool isSIGHMechanismActivated;\n        uint supplyindex;\n        uint256 supplylastupdatedblock;\n        uint borrowindex;\n        uint256 borrowlastupdatedblock;\n    }\n\n    mapping (address => SIGHInstrument) private financial_instruments;    // FINANCIAL INSTRUMENTS\n    \n// ######## 24 HOUR PRICE HISTORY FOR EACH INSTRUMENT AND THE BLOCK NUMBER WHEN THEY WERE TAKEN ########\n\n    struct InstrumentPriceCycle {\n        uint256[24] recordedPriceSnapshot;\n        uint32 initializationCounter;\n    }\n\n    mapping(address => InstrumentPriceCycle) private instrumentPriceCycles;    \n    uint256[24] private blockNumbersForPriceSnapshots_;\n    uint224 private curClock;\n\n// ######## SIGH DISTRIBUTION SPEED FOR EACH INSTRUMENT ########\n\n    uint private SIGHSpeed;\n\n    struct Instrument_Sigh_Mechansim_State {\n        uint256 suppliers_Speed;\n        uint256 borrowers_Speed;\n        uint256 staking_Speed;\n        uint256 _24HrVolatility;\n        string side;\n        uint256 percentTotalVolatility;\n    }\n\n    mapping(address => Instrument_Sigh_Mechansim_State) private Instrument_Sigh_Mechansim_States;\n    uint256 private deltaBlocksForSpeed = 1; // 60 * 60 \n    uint256 private prevSpeedRefreshBlock;\n\n\n    // ####################################\n    // ############## EVENTS ##############\n    // ####################################\n\n    event InstrumentAdded (address instrumentAddress_, string name, uint decimals , address iTokenAddress, uint blockNumber); \n    event InstrumentRemoved(address _instrument, address _iTokenAddress, string name, uint blockNumber); \n\n    event InstrumentSIGHed(address instrumentAddress_, string name, bool isSighed, uint blockNumber);    /// Emitted when market isSIGHMechanismActivated status is changed\n\n    event NewSIGHSpeed(uint oldSIGHSpeed, uint newSIGHSpeed, uint blockNumber_);     /// Emitted when SIGH speed is changed\n    event StakingSpeedUpdated(address instrumentAddress_ , uint prevStakingSpeed, uint new_staking_Speed, uint blockNumber );\n    event SuppliersSIGHSpeedUpdated(address instrument, uint prevSpeed, uint newSpeed, uint blockNumber);  /// @notice Emitted when a new SIGH speed is calculated for an Instrument\n    event BorrowersSIGHSpeedUpdated(address instrument, uint prevSpeed, uint newSpeed, uint blockNumber);  /// @notice Emitted when a new SIGH speed is calculated for an Instrument\n    event SpeedUpperCheckSwitched(bool previsSpeedUpperCheckAllowed, uint upperCheckProfitPercentage, uint blockNumber );\n\n    event ClockUpdated( uint224 curClock, uint blockNumber );\n    event PriceSnapped(address instrument, uint prevPrice, uint currentPrice, uint currentClock);   /// @notice Emitted when Price snapshot is taken\n\n    event PriceSnappedCheck(address iToken, uint prevPrice, uint currentPrice,uint32 currentCounter);\n\n    event minimumBlocksForSpeedRefreshUpdated( uint prevDeltaBlocksForSpeed,uint newDeltaBlocksForSpeed, uint blockNumber );\n    event AccuredSIGHTransferredToTheUser(address instrument, address user, uint sigh_Amount );\n\n// #######################################################\n// ##############        MODIFIERS          ##############\n// #######################################################\n        \n    //only LendingPoolCore can use functions affected by this modifier\n    modifier onlyLendingPoolCore {\n        require(address(lendingPoolCore) == msg.sender, \"The caller must be the Lending pool Core contract\");\n        _;\n    }   \n    \n    //only SIGH Distribution Manager can use functions affected by this modifier\n    modifier onlySighFinanceConfigurator {\n        require(addressesProvider.getSIGHFinanceConfigurator() == msg.sender, \"The caller must be the SIGH Finanace Configurator Contract\");\n        _;\n    }\n\n    // This function can only be called by the Instrument's IToken Contract\n    modifier onlyITokenContract(address instrument) {\n           SIGHInstrument memory currentInstrument = financial_instruments[instrument];\n           require( currentInstrument.isListed, \"This instrument is not supported by SIGH Distribution Handler\");\n           require( msg.sender == currentInstrument.iTokenAddress, \"This function can only be called by the Instrument's IToken Contract\");\n        _;\n    }\n        \n// ######################################################################################\n// ##############        PROXY RELATED  & ADDRESSES INITIALIZATION        ###############\n// ######################################################################################\n\n    event SIGHDistributionHandlerInitialized(address addressesProvider, address Sigh_Address, address priceOracle, address lendingPoolCore);\n\n    uint256 constant private SIGH_DISTRIBUTION_REVISION = 0x9;\n\n    function getRevision() internal pure returns(uint256) {\n        return SIGH_DISTRIBUTION_REVISION;\n    }\n    \n    function initialize( GlobalAddressesProvider addressesProvider_) public initializer {   // \n        addressesProvider = addressesProvider_;\n        refreshConfigInternal(); \n        emit SIGHDistributionHandlerInitialized( address(addressesProvider), address(Sigh_Address), address(oracle), address(lendingPoolCore) );\n    }\n\n    function refreshConfig() external onlySighFinanceConfigurator {        // ()\n        refreshConfigInternal(); \n    }\n\n    function refreshConfigInternal() internal {\n        Sigh_Address = IERC20(addressesProvider.getSIGHAddress());\n        oracle = IPriceOracleGetter( addressesProvider.getPriceOracle() );\n        lendingPoolCore = ILendingPoolCore(addressesProvider.getLendingPoolCore());\n    }\n    \n    \n// #####################################################################################################################################################\n// ##############        ADDING INSTRUMENTS AND ENABLING / DISABLING SIGH's LOSS MINIMIZING DISTRIBUTION MECHANISM       ###############################\n// ##############        1. addInstrument() : Adds an instrument. Called by LendingPoolCore       ######################################################\n// ##############        2. Instrument_SIGHed() : Instrument supported by Sigh Distribution. Called by Sigh Finance Configurator   #####################\n// ##############        3. Instrument_UNSIGHed() : Instrument to be removed from Sigh Distribution. Called by Sigh Finance Configurator ###############\n// #####################################################################################################################################################\n\n    /**\n    * @dev adds an instrument - Called by LendingPool Core when an instrument is added to the Lending Protocol\n    * @param _instrument the instrument object\n    * @param _iTokenAddress the address of the overlying iToken contract\n    * @param _decimals the number of decimals of the underlying asset\n    **/\n    function addInstrument( address _instrument, address _iTokenAddress, uint256 _decimals ) external returns (bool) { // onlyLendingPoolCore\n        require(!financial_instruments[_instrument].isListed ,\"Instrument already supported.\");\n\n        all_Instruments.push(_instrument); // ADD THE MARKET TO THE LIST OF SUPPORTED MARKETS\n        ERC20Detailed instrumentContract = ERC20Detailed(_iTokenAddress);\n\n        // STATE UPDATED : INITIALIZE INNSTRUMENT DATA\n        financial_instruments[_instrument] = SIGHInstrument( {  isListed: true, \n                                                                name: instrumentContract.name(),\n                                                                iTokenAddress: _iTokenAddress,\n                                                                decimals: _decimals, \n                                                                isSIGHMechanismActivated: false, \n                                                                supplyindex: sighInitialIndex, // ,\"sighInitialIndex exceeds 224 bits\"), \n                                                                supplylastupdatedblock: getBlockNumber(), \n                                                                borrowindex : sighInitialIndex, //,\"sighInitialIndex exceeds 224 bits\"), \n                                                                borrowlastupdatedblock : getBlockNumber()\n                                                                } );\n        // STATE UPDATED : INITITALIZE INSTRUMENT SPEEDS\n        Instrument_Sigh_Mechansim_States[_instrument] = Instrument_Sigh_Mechansim_State({ suppliers_Speed: uint(0),\n                                                                       borrowers_Speed: uint(0),\n                                                                       staking_Speed: uint(0),\n                                                                       _24HrVolatility: uint(0),\n                                                                       side: 'null' ,\n                                                                       percentTotalVolatility: uint(0)\n                                                                    } );\n\n        // STATE UPDATED : INITIALIZE PRICECYCLES\n        if ( instrumentPriceCycles[_instrument].initializationCounter == 0 ) {\n            uint256[24] memory emptyPrices;\n            instrumentPriceCycles[_instrument] = InstrumentPriceCycle({ recordedPriceSnapshot : emptyPrices, initializationCounter: uint32(0) }) ;\n        }   \n\n        emit InstrumentAdded(_instrument, financial_instruments[_instrument].name,  _decimals,  _iTokenAddress, block.number); \n        return true;\n    }\n\n    /**\n    * @dev removes an instrument - Called by LendingPool Core when an instrument is removed from the Lending Protocol\n    * @param _instrument the instrument object\n    * @param _iTokenAddress the address of the overlying iToken contract\n    **/\n    function removeInstrument( address _instrument, address _iTokenAddress ) external  returns (bool) {   // onlyLendingPoolCore\n        require(financial_instruments[_instrument].isListed ,\"Instrument already supported.\");\n\n        uint index = 0;\n        uint length_ = all_Instruments.length;\n        for (uint i = 0 ; i < length_ ; i++) {\n            if (all_Instruments[i] == _instrument) {\n                index = i;\n                break;\n            }\n        }\n        all_Instruments[index] = all_Instruments[length_ - 1];\n        all_Instruments.length--;\n        uint newLen = length_ - 1;\n        require(all_Instruments.length == newLen,\"Instrument not properly removed from the list of instruments supported\");\n        \n        string memory name = financial_instruments[_instrument].name;\n        delete financial_instruments[_instrument];\n        delete Instrument_Sigh_Mechansim_States[_instrument];\n        delete instrumentPriceCycles[_instrument];\n\n        emit InstrumentRemoved(_instrument, _iTokenAddress, name, block.number); \n        return true;\n    }\n\n\n\n    /**\n    * @dev Instrument to be convered under the SIGH DIstribution Mechanism - Decided by the SIGH Finance Manager who \n    * can call this function through the Sigh Finance Configurator\n    * @param instrument_ the instrument object\n    **/\n    function Instrument_SIGHed(address instrument_) external onlySighFinanceConfigurator returns (bool) {                   // \n        require(financial_instruments[instrument_].isListed ,\"Instrument not supported.\");\n        require(!financial_instruments[instrument_].isSIGHMechanismActivated, \"Instrument already covered under SIGH Distribution Mechanism\");\n        refreshSIGHSpeeds(); \n        \n        financial_instruments[instrument_].isSIGHMechanismActivated = true;     // STATE UPDATED\n        emit InstrumentSIGHed( instrument_, financial_instruments[instrument_].name, financial_instruments[instrument_].isSIGHMechanismActivated, getBlockNumber());\n        return true;\n    }\n\n    /**\n    * @dev Instrument to be removed from SIGH DIstribution Mechanism - Decided by the SIGH Finance Manager who \n    * can call this function through the Sigh Finance Configurator\n    * @param instrument_ the instrument object\n    **/\n    function Instrument_UNSIGHed(address instrument_) external onlySighFinanceConfigurator returns (bool) {         // \n        require(financial_instruments[instrument_].isListed ,\"Instrument not supported.\");\n        require(financial_instruments[instrument_].isSIGHMechanismActivated, \"Instrument already not supported by the SIGH Distribution Mechanism\");\n        refreshSIGHSpeeds();\n\n        // Recorded Price snapshots initialized to 0. \n        uint256[24] memory emptyPrices;\n        instrumentPriceCycles[instrument_].recordedPriceSnapshot = emptyPrices; //InstrumentPriceCycle({ recordedPriceSnapshot : emptyPrices, initializationCounter: 0 }) ;   // STATE UPDATED\n        instrumentPriceCycles[instrument_].initializationCounter = uint32(0); //InstrumentPriceCycle({ recordedPriceSnapshot : emptyPrices, initializationCounter: 0 }) ;     // STATE UPDATED\n\n        financial_instruments[instrument_].isSIGHMechanismActivated = false;              // STATE UPDATED\n        emit InstrumentSIGHed( instrument_, financial_instruments[instrument_].name, financial_instruments[instrument_].isSIGHMechanismActivated, getBlockNumber());\n        return true;\n    }\n    \n\n// ###########################################################################################################################\n// ##############        GLOBAL SIGH SPEED AND SIGH SPEED RATIO FOR A MARKET          ########################################\n// ##############        1. updateSIGHSpeed() : Governed by Sigh Finance Manager          ####################################\n// ##############        2. updateSIGHSpeedRatioForAnInstrument(): Decided by the LendingPool Manager          ###############\n// ##############        3. updateStakingSpeedForAnInstrument():  Decided by the SIGH Finance Manager          ###############\n// ##############        4. SpeedUpperCheckSwitch():  Decided by the SIGH Finance Manager   ##################################\n// ##############        5. updateDeltaBlocksForSpeedRefresh() : Decided by the SIGH Finance Manager           ###############\n// ###########################################################################################################################\n\n    /**\n     * @notice Sets the amount of Global SIGH distributed per block - - Decided by the SIGH Finance Manager who \n     * can call this function through the Sigh Finance Configurator\n     * @param SIGHSpeed_ The amount of SIGH wei per block to distribute\n     */\n    function updateSIGHSpeed(uint SIGHSpeed_) external onlySighFinanceConfigurator returns (bool) {             //\n        refreshSIGHSpeeds();\n        uint oldSpeed = SIGHSpeed;\n        SIGHSpeed = SIGHSpeed_;                                 // STATE UPDATED\n        emit NewSIGHSpeed(oldSpeed, SIGHSpeed, getBlockNumber());         \n        return true;\n    }\n    \n    /**\n     * @notice Sets the staking speed for an Instrument - Decided by the SIGH Finance Manager who \n     * can call this function through the Sigh Finance Configurator\n     * @param instrument_ The instrument\n     * @param newStakingSpeed The additional SIGH staking speed assigned to the Instrument\n     */\n    function updateStakingSpeedForAnInstrument(address instrument_, uint newStakingSpeed) external onlySighFinanceConfigurator returns (bool) {     // \n        require(financial_instruments[instrument_].isListed ,\"Instrument not supported.\");\n        \n        uint prevStakingSpeed = Instrument_Sigh_Mechansim_States[instrument_].staking_Speed;\n        Instrument_Sigh_Mechansim_States[instrument_].staking_Speed = newStakingSpeed;                    // STATE UPDATED\n\n        emit StakingSpeedUpdated(instrument_, prevStakingSpeed, Instrument_Sigh_Mechansim_States[instrument_].staking_Speed, getBlockNumber() );\n        return true;\n        \n    }\n\n    /**\n     * @notice Activates / Deactivates the upper check and sets the profit percentage for an Instrument - Decided by the SIGH Finance Manager who \n     * can call this function through the Sigh Finance Configurator\n     * @param isActivated Boolean deciding if the upper check on SIGH speed (loss driven) activated or not\n     * @param profitPercentage The additional profit based SIGH distribution over and above the covered losses\n     */    \n    function SpeedUpperCheckSwitch( bool isActivated, uint profitPercentage ) external onlySighFinanceConfigurator returns (bool) {     // \n        require( profitPercentage > 0.01e18, 'The new Profit Percentage must be greater than 0.01e18 (1%) ');\n        require( profitPercentage <= 10e18, 'The new Supplier Ratio must be less than 10e18 (10x)');\n        refreshSIGHSpeeds();\n    \n        \n        if (!isActivated) {\n            isSpeedUpperCheckAllowed = false;                                           // STATE UPDATED\n            upperCheckProfitPercentage = Exp({ mantissa : 0 });              // STATE UPDATED\n        }\n        else {\n            isSpeedUpperCheckAllowed = true;                                                // STATE UPDATED\n            upperCheckProfitPercentage = Exp({ mantissa : profitPercentage });              // STATE UPDATED\n        }\n\n        emit SpeedUpperCheckSwitched(isSpeedUpperCheckAllowed, upperCheckProfitPercentage.mantissa, getBlockNumber() );\n        return true;\n    }\n\n    /**\n     * @notice Updates the minimum blocks to be mined before speed can be refreshed again  - Decided by the SIGH Finance Manager who \n     * can call this function through the Sigh Finance Configurator\n     * @param deltaBlocksLimit The new Minimum blocks limit\n     */   \n    function updateDeltaBlocksForSpeedRefresh(uint deltaBlocksLimit) external onlySighFinanceConfigurator returns (bool) {      // \n        refreshSIGHSpeeds();\n        uint prevdeltaBlocksForSpeed = deltaBlocksForSpeed;\n        deltaBlocksForSpeed = deltaBlocksLimit;                                         // STATE UPDATED\n        emit minimumBlocksForSpeedRefreshUpdated( prevdeltaBlocksForSpeed,deltaBlocksForSpeed, getBlockNumber()  );\n        return true;\n    }\n\n\n    // #########################################################################################################\n    // ################ REFRESH SIGH DISTRIBUTION SPEEDS FOR INSTRUMENTS (INITIALLY EVERY HOUR) ################\n    // #########################################################################################################\n\n    /**\n     * @notice Recalculate and update SIGH speeds for all Supported SIGH markets\n     */\n    function refreshSIGHSpeeds() public returns (bool) {\n        uint blockNumber = block.number;\n        uint256 blocksElapsedSinceLastRefresh = sub_(blockNumber , prevSpeedRefreshBlock, \"Refresh SIGH Speeds : Subtraction underflow for blocks\"); \n\n        if ( blocksElapsedSinceLastRefresh >= deltaBlocksForSpeed) {\n            refreshSIGHSpeedsInternal();\n            prevSpeedRefreshBlock = blockNumber;                                        // STATE UPDATED\n            return true;\n        }\n        return false;\n    }\n\n    event calculatingInstrumentVolatility( address _Instrument, string side , uint _24HrVolatility , uint totalLosses   );\n    event refreshingSighSpeeds( address _Instrument, uint maxSpeed, uint supplierSpeed, uint borrowerSpeed, uint percentTotalVolatility );\n\n    event maxSpeedCheck(uint SIGH);\n    event blockNumberForSnapshotUpdated(uint224 curClock, uint deltaBlocks_, uint blockNumberForPriceSnapshots, uint blocknumber );    \n    event MaxSIGHSpeedCalculated(uint _SIGHSpeed, uint current_Sigh_Price, uint totalVolatilityPerBlockAverage, uint deltaBlocks, uint maxVolatilityToAddress, uint max_valueDistributionLimitDecimalsAdjusted, uint sigh_speed_used );\n    /**\n     * @notice Recalculate and update SIGH speeds for all Supported SIGH markets\n     * 1. Instrument indexes for all instruments updated\n     * 2. Delta blocks (past 24 hours) calculated and current block number (for price snapshot) updated\n     * 3. 1st loop over all instruments --> Average loss (per block) for each of the supported instruments\n     *    along with the total lending protocol's loss (per block) calculated and stored price snapshot is updated\n     * 4. The Sigh speed that will be used for speed refersh calculated (provided if is needed to be done) \n     * 5. 1st loop over all instruments -->  Sigh Distribution speed (Loss driven speed + staking speed) calculated for \n     *    each instrument\n     * 5.1 Current Clock updated\n     */    \n    function refreshSIGHSpeedsInternal() internal {\n        address[] memory all_Instruments_ = all_Instruments;\n        uint deltaBlocks_ = sub_(block.number , blockNumbersForPriceSnapshots_[curClock], \"DeltaBlocks resulted in Underflow\");       // Delta Blocks over past 24 hours\n        emit blockNumberForSnapshotUpdated(curClock , deltaBlocks_,  blockNumbersForPriceSnapshots_[curClock], block.number );\n        blockNumbersForPriceSnapshots_[curClock] = block.number;                                                                    // STATE UPDATE : Block Number for the priceSnapshot Updated\n\n        require(updatedInstrumentIndexesInternal(), \"Updating Instrument Indexes Failed\");       //  accure the indexes \n\n        Exp[] memory supplierLosses = new Exp[](all_Instruments_.length);     // LOSSES MADE BY EACH INSTRUMENT SUPPLIERS\n        Exp[] memory borrowerLosses = new Exp[](all_Instruments_.length);     // LOSSES MADE BY EACH INSTRUMENT BORROWERS\n        Exp memory totalLosses = Exp({mantissa: 0});                            // TOTAL LOSSES (Over past 24 hours)\n        \n\n        // DELTA BLOCKS = CURRENT BLOCK - 24HRS_OLD_STORED_BLOCK_NUMBER\n        // TOTAL LIQUIDITY FOR AN INSTRUMENT = CURRENT BALANCE OF LENDINGPOOLCORE + TOTALBORROWS (taken from lendingPoolCore)\n        // LOSS PER INSTRUMENT = PREVIOUS PRICE (STORED) - CURRENT PRICE (TAKEN FROM ORACLE)\n        // TOTAL LOSSES OF AN INSTRUMENT = LOSS PER INSTRUMENT * TOTAL LIQUIDITY\n        // INSTRUMENT LOSSES (PER BLOCK AVERAGE) = TOTAL LOSSES OF AN INSTRUMENT / DELTA BLOCKS \n        // TOTAL LOSSES (PER BLOCK AVERAGE) = TOTAL LOSSES + INSTRUMENT LOSSES (PER BLOCK AVERAGE) \n        // Price Snapshot for current clock replaces the pervious price snapshot\n        for (uint i = 0; i < all_Instruments_.length; i++) {\n\n            address _currentInstrument = all_Instruments_[i];       // Current Instrument\n            \n            Exp memory previousPrice = Exp({ mantissa: instrumentPriceCycles[_currentInstrument].recordedPriceSnapshot[curClock] });            // 24hr old price snapshot\n            Exp memory currentPrice = Exp({ mantissa: oracle.getAssetPrice( _currentInstrument ) });                                            // current price from the oracle\n            require ( currentPrice.mantissa > 0, \"refreshSIGHSpeedsInternal : Oracle returned Invalid Price\" );\n            instrumentPriceCycles[_currentInstrument].recordedPriceSnapshot[curClock] =  uint256(currentPrice.mantissa); //  STATE UPDATED : PRICE SNAPSHOT TAKEN        \n            emit PriceSnapped(_currentInstrument, previousPrice.mantissa, instrumentPriceCycles[_currentInstrument].recordedPriceSnapshot[curClock], curClock );\n\n            if ( !financial_instruments[_currentInstrument].isSIGHMechanismActivated || instrumentPriceCycles[_currentInstrument].initializationCounter != uint32(24) ) {     // if LOSS MINIMIZNG MECHANISM IS NOT ACTIVATED FOR THIS INSTRUMENT\n                supplierLosses[i] = Exp({mantissa: 0});\n                borrowerLosses[i] = Exp({mantissa: 0});\n                Instrument_Sigh_Mechansim_States[_currentInstrument].side = 'inactive';\n                //    Newly Sighed Instrument needs to reach 24 (priceSnapshots need to be taken) before it can be assigned a Sigh Speed based on LOSSES   \n                if (instrumentPriceCycles[_currentInstrument].initializationCounter < uint32(24) ) {\n                    instrumentPriceCycles[_currentInstrument].initializationCounter = uint32(add_(instrumentPriceCycles[_currentInstrument].initializationCounter , uint32(1) , 'Price Counter addition failed.'));  // STATE UPDATE : INITIALIZATION COUNTER UPDATED\n                }\n            }\n            else {\n                if ( greaterThanExp(previousPrice , currentPrice) ) {   // i.e the price has decreased so we calculate Losses accured by Suppliers of the Instrument\n                    uint totalUnderlyingLiquidity = lendingPoolCore.getInstrumentTotalLiquidity( _currentInstrument ); // Total amount supplied \n                    (MathError error, Exp memory lossPerInstrument) = subExp( previousPrice , currentPrice );       \n                    ( MathError error2, Exp memory supplierLoss ) = mulScalar( lossPerInstrument, totalUnderlyingLiquidity );\n                    supplierLosses[i].mantissa = adjustForDecimalsInternal(supplierLoss.mantissa, financial_instruments[_currentInstrument].decimals , oracle.getAssetPriceDecimals(_currentInstrument) );\n                    borrowerLosses[i] = Exp({mantissa: 0});\n                    ( error, totalLosses) = addExp(totalLosses, supplierLosses[i]);            //  Total loss  += supplier loss\n                    Instrument_Sigh_Mechansim_States[_currentInstrument]._24HrVolatility =  supplierLosses[i].mantissa;\n                    Instrument_Sigh_Mechansim_States[_currentInstrument].side = 'Supplier';\n                }\n                else {                                              // i.e the price has increased so we calculate Losses accured by Borrowers of the Instrument\n                    uint totalBorrows = lendingPoolCore.getInstrumentTotalBorrows( _currentInstrument ); // Total amount supplied \n                    (MathError error, Exp memory lossPerInstrument) = subExp( currentPrice, previousPrice );       \n                    ( MathError error2, Exp memory borrowerLoss ) = mulScalar( lossPerInstrument, totalBorrows );\n                    borrowerLosses[i].mantissa = adjustForDecimalsInternal(borrowerLoss.mantissa , financial_instruments[_currentInstrument].decimals , oracle.getAssetPriceDecimals(_currentInstrument) );\n                    supplierLosses[i] = Exp({mantissa: 0});\n                    ( error, totalLosses) = addExp(totalLosses, borrowerLosses[i]);            //  Total loss  += borrower loss\n                    Instrument_Sigh_Mechansim_States[_currentInstrument]._24HrVolatility =  borrowerLosses[i].mantissa;\n                    Instrument_Sigh_Mechansim_States[_currentInstrument].side = 'Borrower';\n                }\n            }\n            emit calculatingInstrumentVolatility( _currentInstrument, Instrument_Sigh_Mechansim_States[_currentInstrument].side , Instrument_Sigh_Mechansim_States[_currentInstrument]._24HrVolatility, totalLosses.mantissa );\n        }\n        \n        uint maxSpeed = SIGHSpeed;\n        if (isSpeedUpperCheckAllowed) {                     // SIGH SPEED BASED ON UPPER CHECK AND ADDITIONAL PROFIT POTENTIAL\n            (MathError error, Exp memory totalLossPerBlock) = divScalar(totalLosses,deltaBlocks_);   // Total Loss per Block\n            maxSpeed = calculateMaxSighSpeedInternal( totalLossPerBlock.mantissa, deltaBlocks_ ); \n        }\n\n        // ###### Updates the Speed (loss driven) for the Supported Markets ######\n        for (uint i=0 ; i < all_Instruments_.length ; i++) {\n\n            address _currentInstrument = all_Instruments_[i];       // Current Instrument\n            uint prevSpeedSupplier =  Instrument_Sigh_Mechansim_States[_currentInstrument].suppliers_Speed ;\n            uint prevSpeedBorrower =  Instrument_Sigh_Mechansim_States[_currentInstrument].borrowers_Speed ;\n\n            Exp memory lossRatio;\n            MathError error;\n            if (totalLosses.mantissa > 0) {\n                if (supplierLosses[i].mantissa > 0 ) {\n                    ( error, lossRatio) = divExp(supplierLosses[i], totalLosses);\n                    Instrument_Sigh_Mechansim_States[_currentInstrument].suppliers_Speed = mul_(maxSpeed, lossRatio);                                         // STATE UPDATE\n                    Instrument_Sigh_Mechansim_States[_currentInstrument].borrowers_Speed = uint(0);                                                           // STATE UPDATE\n                } \n                else {\n                    ( error, lossRatio) = divExp(borrowerLosses[i], totalLosses);\n                    Instrument_Sigh_Mechansim_States[_currentInstrument].borrowers_Speed = mul_(maxSpeed, lossRatio);                                         // STATE UPDATE\n                    Instrument_Sigh_Mechansim_States[_currentInstrument].suppliers_Speed = uint(0);                                                           // STATE UPDATE\n                }\n            } \n            else {\n                Instrument_Sigh_Mechansim_States[_currentInstrument].borrowers_Speed = uint(0);                                                               // STATE UPDATE\n                Instrument_Sigh_Mechansim_States[_currentInstrument].suppliers_Speed = uint(0);                                                               // STATE UPDATE\n            }\n            Instrument_Sigh_Mechansim_States[_currentInstrument].percentTotalVolatility = mul_(100, lossRatio);                                              // STATE UPDATE\n\n            emit refreshingSighSpeeds( _currentInstrument ,maxSpeed, Instrument_Sigh_Mechansim_States[_currentInstrument].suppliers_Speed, Instrument_Sigh_Mechansim_States[_currentInstrument].borrowers_Speed, Instrument_Sigh_Mechansim_States[_currentInstrument].percentTotalVolatility  );\n        }\n\n        require(updateCurrentClockInternal(), \"Updating CLock Failed\");                         // Updates the Clock    \n    }\n\n\n\n    //  Updates the Supply & Borrow Indexes for all the Supported Instruments\n    function updatedInstrumentIndexesInternal() internal returns (bool) {\n        for (uint i = 0; i < all_Instruments.length; i++) {\n            address currentInstrument = all_Instruments[i];\n            updateSIGHSupplyIndexInternal(currentInstrument);\n            updateSIGHBorrowIndexInternal(currentInstrument);\n        }\n        return true;\n    }\n\n    // returns the currently maximum possible SIGH Distribution speed. Called only when upper check is activated\n    function calculateMaxSighSpeedInternal( uint totalLossesPerBlockAverage, uint deltaBlocks ) internal returns (uint) {\n        uint sigh_speed_used = SIGHSpeed;\n        uint current_Sigh_Price = oracle.getAssetPrice( address(Sigh_Address) );   \n        ERC20Detailed sighContract = ERC20Detailed(address(Sigh_Address));\n        uint priceDecimals = oracle.getAssetPriceDecimals(address(Sigh_Address));\n        uint sighDecimals =  sighContract.decimals();\n\n        // MAX Value that can be distributed per block through SIGH Distribution\n        uint max_valueDistributionLimit = mul_( current_Sigh_Price, SIGHSpeed );   \n        uint max_valueDistributionLimitDecimalsAdjusted = adjustForDecimalsInternal( max_valueDistributionLimit,sighDecimals , priceDecimals  );\n\n        // MAX Volatility that is allowed to be covered through SIGH Distribution\n        uint maxVolatilityToAddress = mul_(totalLossesPerBlockAverage, upperCheckProfitPercentage ); // (a * b)/1e18 [b is in Exp Scale]\n\n        if ( max_valueDistributionLimitDecimalsAdjusted >  maxVolatilityToAddress ) {\n            uint maxVolatilityToAddress_SIGHdecimalsMul = mul_( maxVolatilityToAddress, uint(10**(sighDecimals)), \"Max Volatility : SIGH Decimals multiplication gave error\" );\n            uint maxVolatilityToAddress_PricedecimalsMul = mul_( maxVolatilityToAddress_SIGHdecimalsMul, uint(10**(priceDecimals)), \"Max Volatility : Price Decimals multiplication gave error\" );\n            uint maxVolatilityToAddress_DecimalsDiv = div_( maxVolatilityToAddress_PricedecimalsMul, uint(10**18), \"Max Volatility : Decimals division gave error\" );\n            sigh_speed_used = div_( maxVolatilityToAddress_DecimalsDiv, current_Sigh_Price, \"Max Speed division gave error\" );\n        }\n        emit MaxSIGHSpeedCalculated(SIGHSpeed, current_Sigh_Price, totalLossesPerBlockAverage, deltaBlocks, maxVolatilityToAddress, max_valueDistributionLimitDecimalsAdjusted, sigh_speed_used  );\n        return sigh_speed_used;\n    }\n\n    // Updates the Current CLock (global variable tracking the current hour )\n    function updateCurrentClockInternal() internal returns (bool) {\n        curClock = curClock == 23 ? 0 : uint224(add_(curClock,1,\"curClock : Addition Failed\"));\n        return true;\n    }\n    \n    event decimalsAdjustment(uint lossAmount,uint instrumentDecimals,uint priceDecimals, uint correctedLossAmount );\n\n    function adjustForDecimalsInternal(uint _amount, uint instrumentDecimals, uint priceDecimals) internal returns (uint) {\n        require(instrumentDecimals > 0, \"Instrument Decimals cannot be Zero\");\n        require(priceDecimals > 0, \"Oracle returned invalid price Decimals\");\n        uint adjused_Amount = mul_(_amount,uint(10**18),'Loss Amount multiplication Adjustment overflow');\n        uint instrumentDecimalsCorrected = div_( adjused_Amount,uint(10**instrumentDecimals),'Instrument Decimals correction underflow');\n        uint priceDecimalsCorrected = div_( instrumentDecimalsCorrected,uint(10**priceDecimals),'Price Decimals correction underflow');\n        emit decimalsAdjustment( _amount,instrumentDecimals,priceDecimals,priceDecimalsCorrected );\n        return priceDecimalsCorrected;\n    }\n\n\n    // #####################################################################################################################################\n    // ################ UPDATE SIGH DISTRIBUTION INDEXES (Called from LendingPoolCore) #####################################################\n    // ################ 1. updateSIGHSupplyIndex() : Called by LendingPoolCore              ################################################\n    // ################ --> updateSIGHSupplyIndexInternal() Internal function with actual implementation  ################################## \n    // ################ 2. updateSIGHBorrowIndex() : Called by LendingPoolCore ############################################################# \n    // ################ --> updateSIGHBorrowIndexInternal() : Internal function with actual implementation #################################\n    // #####################################################################################################################################\n\n    event SIGHSupplyIndexUpdated(address instrument, uint sighAccured, uint ratioMantissa, uint newIndexMantissa,  uint blockNum );\n\n    /**\n     * @notice Accrue SIGH to the Instrument by updating the supply index\n     * @param currentInstrument The Instrument whose supply index to update\n     */\n    function updateSIGHSupplyIndex(address currentInstrument) external onlyLendingPoolCore returns (bool) { //     // Called on each Deposit, Redeem and Liquidation (collateral)\n        require(financial_instruments[currentInstrument].isListed ,\"Instrument not supported.\");\n        require(updateSIGHSupplyIndexInternal( currentInstrument ), \"Updating Sigh Supply Indexes operation failed\" );\n        return true;\n    }\n\n    function updateSIGHSupplyIndexInternal(address currentInstrument) internal returns (bool) {\n\n        if ( financial_instruments[currentInstrument].supplylastupdatedblock == getBlockNumber() ) {    // NO NEED TO ACCUR AGAIN\n            return true;\n        }\n\n        SIGHInstrument storage instrumentState = financial_instruments[currentInstrument];\n        uint supplySpeed = add_(Instrument_Sigh_Mechansim_States[currentInstrument].suppliers_Speed, Instrument_Sigh_Mechansim_States[currentInstrument].staking_Speed,\"Supplier speed addition with staking speed overflow\" );\n        uint blockNumber = getBlockNumber();\n        uint deltaBlocks = sub_(blockNumber, uint( instrumentState.supplylastupdatedblock ), 'updateSIGHSupplyIndex : Block Subtraction Underflow');    // Delta Blocks \n        \n        if (deltaBlocks > 0 && supplySpeed > 0) {       // In case SIGH would have accured\n            uint sigh_Accrued = mul_(deltaBlocks, supplySpeed);                                                                         // SIGH Accured\n            uint totalUnderlyingLiquidity = lendingPoolCore.getInstrumentTotalLiquidity( currentInstrument );                           // Total amount supplied \n            Double memory ratio = totalUnderlyingLiquidity > 0 ? fraction(sigh_Accrued, totalUnderlyingLiquidity) : Double({mantissa: 0});    // SIGH Accured per Supplied Instrument Token\n            Double memory newIndex = add_(Double({mantissa: instrumentState.supplyindex}), ratio);                                      // Updated Index\n            emit SIGHSupplyIndexUpdated( currentInstrument, sigh_Accrued, ratio.mantissa , newIndex.mantissa, blockNumber );  \n\n            instrumentState.supplyindex = newIndex.mantissa;       // STATE UPDATE: New Index Committed to Storage \n        } \n        \n        instrumentState.supplylastupdatedblock = blockNumber ;     // STATE UPDATE: Block number updated        \n        return true;\n    }\n\n\n    event SIGHBorrowIndexUpdated(address instrument, uint sighAccured, uint ratioMantissa, uint newIndexMantissa,  uint blockNum );\n\n    /**\n     * @notice Accrue SIGH to the market by updating the borrow index\n     * @param currentInstrument The market whose borrow index to update\n     */\n    function updateSIGHBorrowIndex(address currentInstrument) external  onlyLendingPoolCore returns (bool) {  //     // Called during Borrow, repay, SwapRate, Rebalance, Liquidation\n        require(financial_instruments[currentInstrument].isListed ,\"Instrument not supported.\");\n        require( updateSIGHBorrowIndexInternal(currentInstrument), \"Updating Sigh Borrow Indexes operation failed\" ) ;\n        return true;\n    }\n\n    function updateSIGHBorrowIndexInternal(address currentInstrument) internal returns(bool) {\n\n        if ( financial_instruments[currentInstrument].borrowlastupdatedblock == getBlockNumber() ) {    // NO NEED TO ACCUR AGAIN\n            return true;\n        }\n\n        SIGHInstrument storage instrumentState = financial_instruments[currentInstrument];\n        uint borrowSpeed = add_(Instrument_Sigh_Mechansim_States[currentInstrument].borrowers_Speed, Instrument_Sigh_Mechansim_States[currentInstrument].staking_Speed, \"Supplier speed addition with staking speed overflow\" );\n        uint blockNumber = getBlockNumber();\n        uint deltaBlocks = sub_(blockNumber, uint(instrumentState.borrowlastupdatedblock), 'updateSIGHBorrowIndex : Block Subtraction Underflow');         // DELTA BLOCKS\n        \n        if (deltaBlocks > 0 && borrowSpeed > 0) {       // In case SIGH would have accured\n            uint sigh_Accrued = mul_(deltaBlocks, borrowSpeed);                             // SIGH ACCURED = DELTA BLOCKS x SIGH SPEED (BORROWERS)\n            // TO BE VALIDATED\n            uint totalBorrows =  lendingPoolCore.getInstrumentTotalBorrows(currentInstrument);\n            Double memory ratio = totalBorrows > 0 ? fraction(sigh_Accrued, totalBorrows) : Double({mantissa: 0});      // SIGH Accured per Borrowed Instrument Token\n            Double memory newIndex = add_(Double({mantissa: instrumentState.borrowindex}), ratio);                      // New Index\n            emit SIGHBorrowIndexUpdated( currentInstrument, sigh_Accrued, ratio.mantissa , newIndex.mantissa, blockNumber );\n\n            instrumentState.borrowindex = newIndex.mantissa ;  // STATE UPDATE: New Index Committed to Storage \n        } \n\n        instrumentState.borrowlastupdatedblock = blockNumber;   // STATE UPDATE: Block number updated        \n        return true;\n    }\n\n    // #########################################################################################\n    // ################### TRANSFERS THE SIGH TO THE MARKET PARTICIPANT  ###################\n    // #########################################################################################\n\n    /**\n     * @notice Transfer SIGH to the user. Called by the corresponding IToken Contract of the instrument\n     * @dev Note: If there is not enough SIGH, we do not perform the transfer call.\n     * @param instrument The instrument for which the SIGH has been accured\n     * @param user The address of the user to transfer SIGH to\n     * @param sigh_Amount The amount of SIGH to (possibly) transfer\n     * @return The amount of SIGH which was NOT transferred to the user\n     */\n    function transferSighTotheUser(address instrument, address user, address sighAccuredTo, uint sigh_Amount) external  returns (uint) {   // onlyITokenContract(instrument)\n        uint sigh_not_transferred = 0;\n        if ( Sigh_Address.balanceOf(address(this)) > sigh_Amount ) {   // NO SIGH TRANSFERRED IF CONTRACT LACKS REQUIRED SIGH AMOUNT\n            require(Sigh_Address.transfer( sighAccuredTo, sigh_Amount ), \"Failed to transfer accured SIGH to the user.\" );\n            if (sighAccuredTo == addressesProvider.getSIGHStaking() ) {                          // When SIGH is directly being streamed to the Staking Contract\n                ISighStaking stakingContract = ISighStaking(addressesProvider.getSIGHStaking());\n                require(stakingContract.updateStakedBalanceForStreaming(user,sigh_Amount ),\"Failed to update Staked balance\");       // UPDATES STAKED BALANCE (STREAMING SIGH FUNCTIONALITY) \n            }\n            emit AccuredSIGHTransferredToTheUser( instrument, user, sigh_Amount );\n        }\n        else {\n            sigh_not_transferred = sigh_Amount;\n        }\n        return sigh_not_transferred;\n    }\n\n    // #########################################################\n    // ################### GENERAL PARAMETER FUNCTIONS ###################\n    // #########################################################\n\n    function getSIGHBalance() public view returns (uint) {\n        uint sigh_Remaining = Sigh_Address.balanceOf(address(this));\n        return sigh_Remaining;\n    }\n\n    function getAllInstrumentsSupported() external view returns (address[] memory ) {\n        return all_Instruments; \n    }\n    \n    function getInstrumentData (address instrument_) external view returns (string memory name, address iTokenAddress, uint decimals, bool isSIGHMechanismActivated,uint256 supplyindex, uint256 borrowindex  ) {\n        return ( financial_instruments[instrument_].name,\n                 financial_instruments[instrument_].iTokenAddress,    \n                 financial_instruments[instrument_].decimals,    \n                 financial_instruments[instrument_].isSIGHMechanismActivated,\n                 financial_instruments[instrument_].supplyindex,\n                 financial_instruments[instrument_].borrowindex\n                ); \n    }\n\n    function getInstrumentSighMechansimStates(address instrument) external view returns (uint suppliers_speed, uint borrowers_speed, uint staking_speed, uint _24HrVolatility, string memory side, uint percentTotalVolatility ) {\n        return (Instrument_Sigh_Mechansim_States[instrument].suppliers_Speed, \n                Instrument_Sigh_Mechansim_States[instrument].borrowers_Speed , \n                Instrument_Sigh_Mechansim_States[instrument].staking_Speed,\n                Instrument_Sigh_Mechansim_States[instrument]._24HrVolatility,\n                Instrument_Sigh_Mechansim_States[instrument].side,\n                Instrument_Sigh_Mechansim_States[instrument].percentTotalVolatility\n                );\n    }\n\n    function getAllPriceSnapshots(address instrument_ ) external view returns (uint256[24] memory) {\n        return instrumentPriceCycles[instrument_].recordedPriceSnapshot;\n    }\n    \n    function getBlockNumbersForPriceSnapshots() external view returns (uint256[24] memory) {\n        return blockNumbersForPriceSnapshots_;\n    }\n\n    function getSIGHSpeed() external view returns (uint) {\n        return SIGHSpeed;\n    }\n\n    function isInstrumentSupported (address instrument_) external view returns (bool) {\n        return financial_instruments[instrument_].isListed;\n    } \n\n    function totalInstrumentsSupported() external view returns (uint) {\n        return uint(all_Instruments.length); \n    }    \n\n    function getInstrumentSupplyIndex(address instrument_) external view returns (uint) {\n        if (financial_instruments[instrument_].isListed) { //\"The provided instrument address is not supported\");\n            return financial_instruments[instrument_].supplyindex;\n        }\n        return uint(0);\n    }\n\n    function getInstrumentBorrowIndex(address instrument_) external view returns (uint) {\n        if (financial_instruments[instrument_].isListed) { //,\"The provided instrument address is not supported\");\n            return financial_instruments[instrument_].borrowindex;\n        }\n        return uint(0);\n    }\n\n\n    function getupperCheckProfitPercentage () external view returns (uint) {\n        return upperCheckProfitPercentage.mantissa;\n    } \n\n    function checkPriceSnapshots(address instrument_, uint clock) external view returns (uint256) {\n        return instrumentPriceCycles[instrument_].recordedPriceSnapshot[clock];\n    }\n    \n    function checkinitializationCounter(address instrument_) external view returns (uint32) {\n        return instrumentPriceCycles[instrument_].initializationCounter;\n    }\n\n    function getDeltaBlocksForSpeed() external view returns (uint) {\n        return deltaBlocksForSpeed;\n    }  \n\n    function getPrevSpeedRefreshBlock() external view returns (uint) {\n        return prevSpeedRefreshBlock;\n    }  \n\n    function getBlocksRemainingToNextSpeedRefresh() external view returns (uint) {\n        uint blocksElapsed = sub_(block.number,prevSpeedRefreshBlock); \n        if ( deltaBlocksForSpeed > blocksElapsed) {\n            return sub_(deltaBlocksForSpeed,blocksElapsed);\n        }\n        return uint(0);\n    }\n    \n    function getBlockNumber() public view returns (uint32) {\n        return uint32(block.number);\n    }\n    \n    \n\n}\n",
  "sourcePath": "/Users/apple/Desktop/GITCOIN/Sigh_Finance/SighFinanceContracts/contracts/SIGHFinanceContracts/SighDistributionHandler/SighDistributionHandler.sol",
  "compiler": {
    "name": "solc",
    "version": "0.5.16+commit.9c3226ce.Emscripten.clang"
  },
  "schemaVersion": "3.2.4",
  "updatedAt": "2020-11-26T08:09:11.067Z",
  "devdoc": {
    "methods": {
      "Instrument_SIGHed(address)": {
        "details": "Instrument to be convered under the SIGH DIstribution Mechanism - Decided by the SIGH Finance Manager who  can call this function through the Sigh Finance Configurator",
        "params": {
          "instrument_": "the instrument object*"
        }
      },
      "Instrument_UNSIGHed(address)": {
        "details": "Instrument to be removed from SIGH DIstribution Mechanism - Decided by the SIGH Finance Manager who  can call this function through the Sigh Finance Configurator",
        "params": {
          "instrument_": "the instrument object*"
        }
      },
      "SpeedUpperCheckSwitch(bool,uint256)": {
        "params": {
          "isActivated": "Boolean deciding if the upper check on SIGH speed (loss driven) activated or not",
          "profitPercentage": "The additional profit based SIGH distribution over and above the covered losses"
        }
      },
      "addInstrument(address,address,uint256)": {
        "details": "adds an instrument - Called by LendingPool Core when an instrument is added to the Lending Protocol",
        "params": {
          "_decimals": "the number of decimals of the underlying asset*",
          "_iTokenAddress": "the address of the overlying iToken contract",
          "_instrument": "the instrument object"
        }
      },
      "removeInstrument(address,address)": {
        "details": "removes an instrument - Called by LendingPool Core when an instrument is removed from the Lending Protocol",
        "params": {
          "_iTokenAddress": "the address of the overlying iToken contract*",
          "_instrument": "the instrument object"
        }
      },
      "transferSighTotheUser(address,address,address,uint256)": {
        "details": "Note: If there is not enough SIGH, we do not perform the transfer call.",
        "params": {
          "instrument": "The instrument for which the SIGH has been accured",
          "sigh_Amount": "The amount of SIGH to (possibly) transfer",
          "user": "The address of the user to transfer SIGH to"
        },
        "return": "The amount of SIGH which was NOT transferred to the user"
      },
      "updateDeltaBlocksForSpeedRefresh(uint256)": {
        "params": {
          "deltaBlocksLimit": "The new Minimum blocks limit"
        }
      },
      "updateSIGHBorrowIndex(address)": {
        "params": {
          "currentInstrument": "The market whose borrow index to update"
        }
      },
      "updateSIGHSpeed(uint256)": {
        "params": {
          "SIGHSpeed_": "The amount of SIGH wei per block to distribute"
        }
      },
      "updateSIGHSupplyIndex(address)": {
        "params": {
          "currentInstrument": "The Instrument whose supply index to update"
        }
      },
      "updateStakingSpeedForAnInstrument(address,uint256)": {
        "params": {
          "instrument_": "The instrument",
          "newStakingSpeed": "The additional SIGH staking speed assigned to the Instrument"
        }
      }
    }
  },
  "userdoc": {
    "methods": {
      "SpeedUpperCheckSwitch(bool,uint256)": {
        "notice": "Activates / Deactivates the upper check and sets the profit percentage for an Instrument - Decided by the SIGH Finance Manager who  can call this function through the Sigh Finance Configurator"
      },
      "refreshSIGHSpeeds()": {
        "notice": "Recalculate and update SIGH speeds for all Supported SIGH markets"
      },
      "transferSighTotheUser(address,address,address,uint256)": {
        "notice": "Transfer SIGH to the user. Called by the corresponding IToken Contract of the instrument"
      },
      "updateDeltaBlocksForSpeedRefresh(uint256)": {
        "notice": "Updates the minimum blocks to be mined before speed can be refreshed again  - Decided by the SIGH Finance Manager who  can call this function through the Sigh Finance Configurator"
      },
      "updateSIGHBorrowIndex(address)": {
        "notice": "Accrue SIGH to the market by updating the borrow index"
      },
      "updateSIGHSpeed(uint256)": {
        "notice": "Sets the amount of Global SIGH distributed per block - - Decided by the SIGH Finance Manager who  can call this function through the Sigh Finance Configurator"
      },
      "updateSIGHSupplyIndex(address)": {
        "notice": "Accrue SIGH to the Instrument by updating the supply index"
      },
      "updateStakingSpeedForAnInstrument(address,uint256)": {
        "notice": "Sets the staking speed for an Instrument - Decided by the SIGH Finance Manager who  can call this function through the Sigh Finance Configurator"
      }
    }
  }
}