{
  "contractName": "SighStaking",
  "abi": [
    {
      "anonymous": false,
      "inputs": [
        {
          "indexed": false,
          "internalType": "address",
          "name": "instrumentAddress",
          "type": "address"
        },
        {
          "indexed": false,
          "internalType": "string",
          "name": "instrument_name",
          "type": "string"
        },
        {
          "indexed": false,
          "internalType": "uint256",
          "name": "prevSpeed",
          "type": "uint256"
        },
        {
          "indexed": false,
          "internalType": "uint256",
          "name": "instrument_DistributionSpeed",
          "type": "uint256"
        },
        {
          "indexed": false,
          "internalType": "uint256",
          "name": "block_number",
          "type": "uint256"
        }
      ],
      "name": "DistributionSpeedUpdated",
      "type": "event"
    },
    {
      "anonymous": false,
      "inputs": [
        {
          "indexed": false,
          "internalType": "address",
          "name": "newInstrument",
          "type": "address"
        },
        {
          "indexed": false,
          "internalType": "string",
          "name": "instrument_name",
          "type": "string"
        },
        {
          "indexed": false,
          "internalType": "uint256",
          "name": "instrument_index",
          "type": "uint256"
        },
        {
          "indexed": false,
          "internalType": "uint256",
          "name": "instrument_DistributionSpeed",
          "type": "uint256"
        },
        {
          "indexed": false,
          "internalType": "uint256",
          "name": "instrument_totalAmountRewarded",
          "type": "uint256"
        },
        {
          "indexed": false,
          "internalType": "uint256",
          "name": "instrument_balance",
          "type": "uint256"
        },
        {
          "indexed": false,
          "internalType": "uint256",
          "name": "instrument_lastUpdatedBlock",
          "type": "uint256"
        }
      ],
      "name": "NewInstrumentForDistributionAdded",
      "type": "event"
    },
    {
      "anonymous": false,
      "inputs": [
        {
          "indexed": false,
          "internalType": "address",
          "name": "staker",
          "type": "address"
        },
        {
          "indexed": false,
          "internalType": "uint256",
          "name": "amount",
          "type": "uint256"
        },
        {
          "indexed": false,
          "internalType": "uint256",
          "name": "prevStakedBalance",
          "type": "uint256"
        },
        {
          "indexed": false,
          "internalType": "uint256",
          "name": "staker_stakedBalance",
          "type": "uint256"
        },
        {
          "indexed": false,
          "internalType": "uint256",
          "name": "prevTotalStakedBalance",
          "type": "uint256"
        },
        {
          "indexed": false,
          "internalType": "uint256",
          "name": "totalStakedSigh",
          "type": "uint256"
        },
        {
          "indexed": false,
          "internalType": "uint256",
          "name": "numberOfStakers",
          "type": "uint256"
        },
        {
          "indexed": false,
          "internalType": "uint256",
          "name": "blocknumber",
          "type": "uint256"
        }
      ],
      "name": "SighStaked",
      "type": "event"
    },
    {
      "anonymous": false,
      "inputs": [
        {
          "indexed": false,
          "internalType": "address",
          "name": "staker",
          "type": "address"
        },
        {
          "indexed": false,
          "internalType": "uint256",
          "name": "amount",
          "type": "uint256"
        },
        {
          "indexed": false,
          "internalType": "uint256",
          "name": "prevStakedBalance",
          "type": "uint256"
        },
        {
          "indexed": false,
          "internalType": "uint256",
          "name": "staker_stakedBalance",
          "type": "uint256"
        },
        {
          "indexed": false,
          "internalType": "uint256",
          "name": "prevTotalStakedBalance",
          "type": "uint256"
        },
        {
          "indexed": false,
          "internalType": "uint256",
          "name": "totalStakedSigh",
          "type": "uint256"
        },
        {
          "indexed": false,
          "internalType": "uint256",
          "name": "numberOfStakers",
          "type": "uint256"
        },
        {
          "indexed": false,
          "internalType": "uint256",
          "name": "blocknumber",
          "type": "uint256"
        }
      ],
      "name": "SighUnstaked",
      "type": "event"
    },
    {
      "anonymous": false,
      "inputs": [
        {
          "indexed": false,
          "internalType": "address",
          "name": "staker",
          "type": "address"
        },
        {
          "indexed": false,
          "internalType": "uint256",
          "name": "amount",
          "type": "uint256"
        },
        {
          "indexed": false,
          "internalType": "uint256",
          "name": "prevBalance",
          "type": "uint256"
        },
        {
          "indexed": false,
          "internalType": "uint256",
          "name": "staker_stakedBalance",
          "type": "uint256"
        },
        {
          "indexed": false,
          "internalType": "uint256",
          "name": "totalStakedSigh",
          "type": "uint256"
        },
        {
          "indexed": false,
          "internalType": "uint256",
          "name": "block_number",
          "type": "uint256"
        }
      ],
      "name": "StreamingSighStaked",
      "type": "event"
    },
    {
      "anonymous": false,
      "inputs": [
        {
          "indexed": false,
          "internalType": "bytes",
          "name": "_data",
          "type": "bytes"
        }
      ],
      "name": "TokenSwapTransactionData",
      "type": "event"
    },
    {
      "anonymous": false,
      "inputs": [
        {
          "indexed": false,
          "internalType": "address",
          "name": "token_bought",
          "type": "address"
        },
        {
          "indexed": false,
          "internalType": "uint256",
          "name": "prev_bought_token_amount",
          "type": "uint256"
        },
        {
          "indexed": false,
          "internalType": "uint256",
          "name": "tokenBoughtAmount",
          "type": "uint256"
        },
        {
          "indexed": false,
          "internalType": "uint256",
          "name": "new_bought_token_amount",
          "type": "uint256"
        }
      ],
      "name": "TokensBought",
      "type": "event"
    },
    {
      "anonymous": false,
      "inputs": [
        {
          "indexed": false,
          "internalType": "address",
          "name": "token_sold",
          "type": "address"
        },
        {
          "indexed": false,
          "internalType": "uint256",
          "name": "prev_sold_token_amount",
          "type": "uint256"
        },
        {
          "indexed": false,
          "internalType": "uint256",
          "name": "tokenSoldAmount",
          "type": "uint256"
        },
        {
          "indexed": false,
          "internalType": "uint256",
          "name": "new_sold_token_amount",
          "type": "uint256"
        }
      ],
      "name": "TokensSold",
      "type": "event"
    },
    {
      "anonymous": false,
      "inputs": [
        {
          "indexed": false,
          "internalType": "address",
          "name": "staker",
          "type": "address"
        },
        {
          "indexed": false,
          "internalType": "address",
          "name": "instrumentToBeClaimed",
          "type": "address"
        },
        {
          "indexed": false,
          "internalType": "string",
          "name": "instrument_name",
          "type": "string"
        },
        {
          "indexed": false,
          "internalType": "uint256",
          "name": "amountToBeTransferred",
          "type": "uint256"
        },
        {
          "indexed": false,
          "internalType": "uint256",
          "name": "block_number",
          "type": "uint256"
        }
      ],
      "name": "instrumentTransferred",
      "type": "event"
    },
    {
      "anonymous": false,
      "inputs": [
        {
          "indexed": false,
          "internalType": "uint256",
          "name": "prevLimit",
          "type": "uint256"
        },
        {
          "indexed": false,
          "internalType": "uint256",
          "name": "maxSighThatCanBeStaked",
          "type": "uint256"
        },
        {
          "indexed": false,
          "internalType": "uint256",
          "name": "block_number",
          "type": "uint256"
        }
      ],
      "name": "maxSighThatCanBeStakedUpdated",
      "type": "event"
    },
    {
      "anonymous": false,
      "inputs": [
        {
          "indexed": false,
          "internalType": "address",
          "name": "staker",
          "type": "address"
        },
        {
          "indexed": false,
          "internalType": "uint256",
          "name": "instrumentIndex",
          "type": "uint256"
        },
        {
          "indexed": false,
          "internalType": "uint256",
          "name": "stakerIndex",
          "type": "uint256"
        },
        {
          "indexed": false,
          "internalType": "uint256",
          "name": "deltaIndexes",
          "type": "uint256"
        },
        {
          "indexed": false,
          "internalType": "uint256",
          "name": "newInstrumentAccumulated",
          "type": "uint256"
        },
        {
          "indexed": false,
          "internalType": "uint256",
          "name": "staker_instrumentIndex_instrumentRewarded",
          "type": "uint256"
        },
        {
          "indexed": false,
          "internalType": "uint256",
          "name": "staker_instrumentAccumulated_instrumentBeingRewarded",
          "type": "uint256"
        },
        {
          "indexed": false,
          "internalType": "uint256",
          "name": "block_number",
          "type": "uint256"
        }
      ],
      "name": "updateStakerIndexUpdated",
      "type": "event"
    },
    {
      "anonymous": false,
      "inputs": [
        {
          "indexed": false,
          "internalType": "address",
          "name": "instrument_Rewarded",
          "type": "address"
        },
        {
          "indexed": false,
          "internalType": "string",
          "name": "instrument_name",
          "type": "string"
        },
        {
          "indexed": false,
          "internalType": "uint256",
          "name": "instrument_DistributionSpeed",
          "type": "uint256"
        },
        {
          "indexed": false,
          "internalType": "uint256",
          "name": "instrument_index",
          "type": "uint256"
        },
        {
          "indexed": false,
          "internalType": "uint256",
          "name": "instrument_totalAmountRewarded",
          "type": "uint256"
        },
        {
          "indexed": false,
          "internalType": "uint256",
          "name": "instrument_lastUpdatedBlock",
          "type": "uint256"
        }
      ],
      "name": "updatedInstrumnetBeingDistributedIndex",
      "type": "event"
    },
    {
      "constant": true,
      "inputs": [],
      "name": "IMPLEMENTATION_REVISION",
      "outputs": [
        {
          "internalType": "uint256",
          "name": "",
          "type": "uint256"
        }
      ],
      "payable": false,
      "stateMutability": "view",
      "type": "function"
    },
    {
      "constant": true,
      "inputs": [],
      "name": "addressesProvider",
      "outputs": [
        {
          "internalType": "contract GlobalAddressesProvider",
          "name": "",
          "type": "address"
        }
      ],
      "payable": false,
      "stateMutability": "view",
      "type": "function"
    },
    {
      "constant": true,
      "inputs": [
        {
          "internalType": "address",
          "name": "",
          "type": "address"
        }
      ],
      "name": "stakingBalances",
      "outputs": [
        {
          "internalType": "bool",
          "name": "alreadyAStaker",
          "type": "bool"
        },
        {
          "internalType": "uint256",
          "name": "stakedBalance",
          "type": "uint256"
        }
      ],
      "payable": false,
      "stateMutability": "view",
      "type": "function"
    },
    {
      "constant": false,
      "inputs": [
        {
          "internalType": "address",
          "name": "addressesProvider_",
          "type": "address"
        }
      ],
      "name": "initialize",
      "outputs": [],
      "payable": false,
      "stateMutability": "nonpayable",
      "type": "function"
    },
    {
      "constant": false,
      "inputs": [
        {
          "internalType": "uint256",
          "name": "amount",
          "type": "uint256"
        }
      ],
      "name": "stake_SIGH",
      "outputs": [
        {
          "internalType": "bool",
          "name": "",
          "type": "bool"
        }
      ],
      "payable": false,
      "stateMutability": "nonpayable",
      "type": "function"
    },
    {
      "constant": false,
      "inputs": [
        {
          "internalType": "address",
          "name": "staker",
          "type": "address"
        },
        {
          "internalType": "uint256",
          "name": "amount",
          "type": "uint256"
        }
      ],
      "name": "updateStakedBalanceForStreaming",
      "outputs": [
        {
          "internalType": "bool",
          "name": "",
          "type": "bool"
        }
      ],
      "payable": false,
      "stateMutability": "nonpayable",
      "type": "function"
    },
    {
      "constant": false,
      "inputs": [
        {
          "internalType": "uint256",
          "name": "amount",
          "type": "uint256"
        }
      ],
      "name": "unstake_SIGH",
      "outputs": [
        {
          "internalType": "bool",
          "name": "",
          "type": "bool"
        }
      ],
      "payable": false,
      "stateMutability": "nonpayable",
      "type": "function"
    },
    {
      "constant": false,
      "inputs": [
        {
          "internalType": "address[]",
          "name": "stakingAddresses",
          "type": "address[]"
        }
      ],
      "name": "claimAllAccumulatedInstrumentsForUsers",
      "outputs": [],
      "payable": false,
      "stateMutability": "nonpayable",
      "type": "function"
    },
    {
      "constant": false,
      "inputs": [],
      "name": "claimAllAccumulatedInstruments",
      "outputs": [],
      "payable": false,
      "stateMutability": "nonpayable",
      "type": "function"
    },
    {
      "constant": false,
      "inputs": [
        {
          "internalType": "address",
          "name": "instrumentToBeClaimed",
          "type": "address"
        }
      ],
      "name": "claimAccumulatedInstrument",
      "outputs": [],
      "payable": false,
      "stateMutability": "nonpayable",
      "type": "function"
    },
    {
      "constant": false,
      "inputs": [
        {
          "internalType": "address",
          "name": "allowanceTarget",
          "type": "address"
        },
        {
          "internalType": "address payable",
          "name": "to",
          "type": "address"
        },
        {
          "internalType": "bytes",
          "name": "callDataHex",
          "type": "bytes"
        },
        {
          "internalType": "address",
          "name": "token_bought",
          "type": "address"
        },
        {
          "internalType": "address",
          "name": "token_sold",
          "type": "address"
        },
        {
          "internalType": "uint256",
          "name": "sellAmount",
          "type": "uint256"
        }
      ],
      "name": "swapTokensUsingOxAPI",
      "outputs": [
        {
          "internalType": "bool",
          "name": "",
          "type": "bool"
        }
      ],
      "payable": true,
      "stateMutability": "payable",
      "type": "function"
    },
    {
      "constant": false,
      "inputs": [
        {
          "internalType": "address",
          "name": "newInstrument",
          "type": "address"
        },
        {
          "internalType": "uint256",
          "name": "speed",
          "type": "uint256"
        }
      ],
      "name": "supportNewInstrumentForDistribution",
      "outputs": [
        {
          "internalType": "bool",
          "name": "",
          "type": "bool"
        }
      ],
      "payable": false,
      "stateMutability": "nonpayable",
      "type": "function"
    },
    {
      "constant": false,
      "inputs": [
        {
          "internalType": "address",
          "name": "instrumentAddress",
          "type": "address"
        },
        {
          "internalType": "uint256",
          "name": "newSpeed",
          "type": "uint256"
        }
      ],
      "name": "setDistributionSpeed",
      "outputs": [
        {
          "internalType": "bool",
          "name": "",
          "type": "bool"
        }
      ],
      "payable": false,
      "stateMutability": "nonpayable",
      "type": "function"
    },
    {
      "constant": false,
      "inputs": [
        {
          "internalType": "uint256",
          "name": "amount",
          "type": "uint256"
        }
      ],
      "name": "updateMaxSighThatCanBeStaked",
      "outputs": [
        {
          "internalType": "bool",
          "name": "",
          "type": "bool"
        }
      ],
      "payable": false,
      "stateMutability": "nonpayable",
      "type": "function"
    },
    {
      "constant": false,
      "inputs": [
        {
          "internalType": "address",
          "name": "instrument",
          "type": "address"
        }
      ],
      "name": "updateBalance",
      "outputs": [
        {
          "internalType": "uint256",
          "name": "",
          "type": "uint256"
        }
      ],
      "payable": false,
      "stateMutability": "nonpayable",
      "type": "function"
    },
    {
      "constant": true,
      "inputs": [],
      "name": "getInstrumentsSupported",
      "outputs": [
        {
          "internalType": "address[]",
          "name": "",
          "type": "address[]"
        }
      ],
      "payable": false,
      "stateMutability": "view",
      "type": "function"
    },
    {
      "constant": true,
      "inputs": [
        {
          "internalType": "address",
          "name": "instrument",
          "type": "address"
        }
      ],
      "name": "isInstrumentSupported",
      "outputs": [
        {
          "internalType": "bool",
          "name": "",
          "type": "bool"
        }
      ],
      "payable": false,
      "stateMutability": "view",
      "type": "function"
    },
    {
      "constant": true,
      "inputs": [
        {
          "internalType": "address",
          "name": "instrument",
          "type": "address"
        }
      ],
      "name": "getDistributionSpeed",
      "outputs": [
        {
          "internalType": "uint256",
          "name": "",
          "type": "uint256"
        }
      ],
      "payable": false,
      "stateMutability": "view",
      "type": "function"
    },
    {
      "constant": true,
      "inputs": [
        {
          "internalType": "address",
          "name": "instrumentAddress",
          "type": "address"
        }
      ],
      "name": "getInstrumentState",
      "outputs": [
        {
          "internalType": "string",
          "name": "name",
          "type": "string"
        },
        {
          "internalType": "uint256",
          "name": "index",
          "type": "uint256"
        },
        {
          "internalType": "uint256",
          "name": "rewardDistributionSpeed",
          "type": "uint256"
        },
        {
          "internalType": "uint256",
          "name": "totalAmountRewarded",
          "type": "uint256"
        },
        {
          "internalType": "uint256",
          "name": "balance",
          "type": "uint256"
        },
        {
          "internalType": "uint256",
          "name": "lastUpdatedBlock",
          "type": "uint256"
        }
      ],
      "payable": false,
      "stateMutability": "view",
      "type": "function"
    },
    {
      "constant": true,
      "inputs": [
        {
          "internalType": "address",
          "name": "account",
          "type": "address"
        }
      ],
      "name": "getStakedBalanceForStaker",
      "outputs": [
        {
          "internalType": "uint256",
          "name": "",
          "type": "uint256"
        }
      ],
      "payable": false,
      "stateMutability": "view",
      "type": "function"
    },
    {
      "constant": true,
      "inputs": [
        {
          "internalType": "address",
          "name": "account",
          "type": "address"
        },
        {
          "internalType": "address",
          "name": "instrument",
          "type": "address"
        }
      ],
      "name": "getStakersAccumulatedInstrumentAmount",
      "outputs": [
        {
          "internalType": "uint256",
          "name": "",
          "type": "uint256"
        }
      ],
      "payable": false,
      "stateMutability": "view",
      "type": "function"
    },
    {
      "constant": true,
      "inputs": [],
      "name": "getTotalStakedSIGH",
      "outputs": [
        {
          "internalType": "uint256",
          "name": "",
          "type": "uint256"
        }
      ],
      "payable": false,
      "stateMutability": "view",
      "type": "function"
    },
    {
      "constant": true,
      "inputs": [],
      "name": "getTotalStakers",
      "outputs": [
        {
          "internalType": "uint256",
          "name": "",
          "type": "uint256"
        }
      ],
      "payable": false,
      "stateMutability": "view",
      "type": "function"
    },
    {
      "constant": true,
      "inputs": [],
      "name": "getmaxSighThatCanBeStaked",
      "outputs": [
        {
          "internalType": "uint256",
          "name": "",
          "type": "uint256"
        }
      ],
      "payable": false,
      "stateMutability": "view",
      "type": "function"
    }
  ],
  "bytecode": "0x6080604052600080556ec097ce7bc90715b34b9f10000000006038556ec097ce7bc90715b34b9f1000000000603c5534801561003a57600080fd5b506137838061004a6000396000f3fe60806040526004361061014b5760003560e01c8063660ecbc9116100b6578063c4d66de81161006f578063c4d66de814610595578063c4f39941146105c8578063c72c4d10146105dd578063dd9125ec1461060e578063df28b7f114610641578063f6270ba4146106e35761014b565b8063660ecbc9146104525780636a5d6bee1461048b5780637e54c794146104c45780639e0c20d8146104ee578063a84d789814610529578063c3d1b72d146105625761014b565b80633896eb8c116101085780633896eb8c146103215780633e88048c146103545780633eb9bab71461039257806340b8405a146103a757806359a8f018146103da57806361b8b5dc146104045761014b565b80630a6e4916146101505780630cd68968146101955780631f6c0873146101aa57806323879bb1146102785780632a0eb4511461028d57806331ed0db41461030c575b600080fd5b34801561015c57600080fd5b506101836004803603602081101561017357600080fd5b50356001600160a01b0316610748565b60408051918252519081900360200190f35b3480156101a157600080fd5b50610183610794565b3480156101b657600080fd5b506101dd600480360360208110156101cd57600080fd5b50356001600160a01b031661079b565b6040518080602001878152602001868152602001858152602001848152602001838152602001828103825288818151815260200191508051906020019080838360005b83811015610238578181015183820152602001610220565b50505050905090810190601f1680156102655780820380516001836020036101000a031916815260200191505b5097505050505050505060405180910390f35b34801561028457600080fd5b50610183610880565b34801561029957600080fd5b5061030a600480360360208110156102b057600080fd5b8101906020810181356401000000008111156102cb57600080fd5b8201836020820111156102dd57600080fd5b803590602001918460208302840111640100000000831117156102ff57600080fd5b509092509050610885565b005b34801561031857600080fd5b506101836108a6565b34801561032d57600080fd5b5061030a6004803603602081101561034457600080fd5b50356001600160a01b03166108ac565b34801561036057600080fd5b5061037e6004803603602081101561037757600080fd5b50356108b9565b604080519115158252519081900360200190f35b34801561039e57600080fd5b5061030a610c76565b3480156103b357600080fd5b50610183600480360360208110156103ca57600080fd5b50356001600160a01b0316610c81565b3480156103e657600080fd5b5061037e600480360360208110156103fd57600080fd5b5035610d45565b34801561041057600080fd5b506104376004803603602081101561042757600080fd5b50356001600160a01b0316610e5d565b60408051921515835260208301919091528051918290030190f35b34801561045e57600080fd5b5061037e6004803603604081101561047557600080fd5b506001600160a01b038135169060200135610e7c565b34801561049757600080fd5b5061037e600480360360408110156104ae57600080fd5b506001600160a01b03813516906020013561108c565b3480156104d057600080fd5b5061037e600480360360208110156104e757600080fd5b50356112d5565b3480156104fa57600080fd5b506101836004803603604081101561051157600080fd5b506001600160a01b038135811691602001351661171a565b34801561053557600080fd5b5061037e6004803603604081101561054c57600080fd5b506001600160a01b038135169060200135611749565b34801561056e57600080fd5b5061037e6004803603602081101561058557600080fd5b50356001600160a01b0316611c20565b3480156105a157600080fd5b5061030a600480360360208110156105b857600080fd5b50356001600160a01b0316611c49565b3480156105d457600080fd5b50610183611d00565b3480156105e957600080fd5b506105f2611d06565b604080516001600160a01b039092168252519081900360200190f35b34801561061a57600080fd5b506101836004803603602081101561063157600080fd5b50356001600160a01b0316611d15565b61037e600480360360c081101561065757600080fd5b6001600160a01b03823581169260208101359091169181019060608101604082013564010000000081111561068b57600080fd5b82018360208201111561069d57600080fd5b803590602001918460018302840111640100000000831117156106bf57600080fd5b91935091506001600160a01b03813581169160208101359091169060400135611d33565b3480156106ef57600080fd5b506106f8612373565b60408051602080825283518183015283519192839290830191858101910280838360005b8381101561073457818101518382015260200161071c565b505050509050019250505060405180910390f35b6001600160a01b0381166000908152603660205260408120600101541561078b57506001600160a01b03811660009081526036602052604090206002015461078f565b5060005b919050565b603a545b90565b6001600160a01b0381166000908152603660209081526040808320600180820154600280840154600385015460058601546004870154875489519781161561010002600019011694909404601f81018a90048a0287018a0190985287865260609998899889988998899891979196959493919290918891908301828280156108645780601f1061083957610100808354040283529160200191610864565b820191906000526020600020905b81548152906001019060200180831161084757829003601f168201915b5050505050955095509550955095509550955091939550919395565b600181565b60005b818110156108a157610899336123d5565b600101610888565b505050565b603b5490565b6108b63382612419565b50565b60008082116108f95760405162461bcd60e51b81526004018080602001828103825260218152602001806134c66021913960400191505060405180910390fd5b610901612732565b3360009081526039602052604090205460ff16156109225761092233612ae6565b603454604080516370a0823160e01b815230600482015290516000926001600160a01b0316916370a08231916024808301926020929190829003018186803b15801561096d57600080fd5b505afa158015610981573d6000803e3d6000fd5b505050506040513d602081101561099757600080fd5b5051603454604080516323b872dd60e01b81523360048201523060248201526044810187905290519293506001600160a01b03909116916323b872dd916064808201926020929091908290030181600087803b1580156109f657600080fd5b505af1158015610a0a573d6000803e3d6000fd5b505050506040513d6020811015610a2057600080fd5b5051610a5d5760405162461bcd60e51b815260040180806020018281038252603581526020018061363e6035913960400191505060405180910390fd5b603454604080516370a0823160e01b815230600482015290516000926001600160a01b0316916370a08231916024808301926020929190829003018186803b158015610aa857600080fd5b505afa158015610abc573d6000803e3d6000fd5b505050506040513d6020811015610ad257600080fd5b505160408051606081019091526033808252919250600091610b009184918691906132e26020830139612e2e565b9050848114610b405760405162461bcd60e51b815260040180806020018281038252603b815260200180613340603b913960400191505060405180910390fd5b600060396000336001600160a01b03166001600160a01b03168152602001908152602001600020600101549050610bad81876040518060400160405280601c81526020017f4e6577205374616b696e672062616c616e6365206f766572666c6f7700000000815250612ec5565b33600090815260396020526040902060010155603a54610bcd8188612f23565b603a553360009081526039602052604090205460ff16610bf057610bf033612f59565b3360008181526039602090815260409182902060010154603a54603b5484519586529285018c905284840187905260608501919091526080840185905260a084015260c08301524360e0830152517fb3ae8fb5d850366b1bd0cc2314db6430d9a05a6ff37dbc86b79a074284f9ab67918190036101000190a15060019695505050505050565b610c7f336123d5565b565b604080516370a0823160e01b81523060048201529051600091839183916001600160a01b038416916370a0823191602480820192602092909190829003018186803b158015610ccf57600080fd5b505afa158015610ce3573d6000803e3d6000fd5b505050506040513d6020811015610cf957600080fd5b50516001600160a01b03851660009081526036602052604090206001015490915015610d3e576001600160a01b03841660009081526036602052604090206005018190555b9392505050565b6000336001600160a01b0316603560009054906101000a90046001600160a01b03166001600160a01b031663db49224b6040518163ffffffff1660e01b815260040160206040518083038186803b158015610d9f57600080fd5b505afa158015610db3573d6000803e3d6000fd5b505050506040513d6020811015610dc957600080fd5b50516001600160a01b031614610e105760405162461bcd60e51b815260040180806020018281038252603a8152602001806133c3603a913960400191505060405180910390fd5b603c8054908390556040805182815260208101859052438183015290517f0974c59f9ef36dd477ddc1a24df11ea7fd6039a59447a1559ee013cc132da43b9181900360600190a150919050565b6039602052600090815260409020805460019091015460ff9091169082565b6000336001600160a01b0316603560009054906101000a90046001600160a01b03166001600160a01b031663a0375c6d6040518163ffffffff1660e01b815260040160206040518083038186803b158015610ed657600080fd5b505afa158015610eea573d6000803e3d6000fd5b505050506040513d6020811015610f0057600080fd5b50516001600160a01b031614610f475760405162461bcd60e51b815260040180806020018281038252603981526020018061348d6039913960400191505060405180910390fd5b610f4f612732565b3360009081526039602052604090205460ff1615610f7057610f7083612ae6565b600060396000856001600160a01b03166001600160a01b03168152602001908152602001600020600101549050610fc0818460405180606001604052806021815260200161359c60219139612ec5565b6001600160a01b038516600090815260396020526040902060010155603a54610fe98185612f23565b603a556001600160a01b03851660009081526039602052604090205460ff166110155761101585612f59565b6001600160a01b03851660008181526039602090815260409182902060010154603a548351948552918401889052838301869052606084015260808301524360a0830152517f59aeace73fd680d515a397b14d7912b8109c97c4ba2a7023e3023658c77e349c9181900360c00190a1505092915050565b6000336001600160a01b0316603560009054906101000a90046001600160a01b03166001600160a01b031663db49224b6040518163ffffffff1660e01b815260040160206040518083038186803b1580156110e657600080fd5b505afa1580156110fa573d6000803e3d6000fd5b505050506040513d602081101561111057600080fd5b50516001600160a01b0316146111575760405162461bcd60e51b815260040180806020018281038252603a8152602001806133c3603a913960400191505060405180910390fd5b6001600160a01b0383166000908152603660205260409020600101546111ae5760405162461bcd60e51b81526004018080602001828103825260558152602001806133fd6055913960600191505060405180910390fd5b6001600160a01b038316600090815260366020526040902060020154156111d7576111d7612732565b6001600160a01b0383166000818152603660209081526040918290206002808201879055835194855292840186905260608401869052436080850181905260a0928501838152825460001961010060018316150201169490940492850183905286947faef42020169c61ae9c024eb50ccecf6eb3387a62718dd27c7234d585382cc2af948994879384939092909160c0830190879080156112b95780601f1061128e576101008083540402835291602001916112b9565b820191906000526020600020905b81548152906001019060200180831161129c57829003601f168201915b5050965050505050505060405180910390a15060019392505050565b60008082116113155760405162461bcd60e51b81526004018080602001828103825260248152602001806136d26024913960400191505060405180910390fd5b3360009081526039602052604090205460ff166113635760405162461bcd60e51b81526004018080602001828103825260238152602001806135796023913960400191505060405180910390fd5b61136b612732565b61137433612ae6565b336000908152603960205260409020600101548211156113a4573360009081526039602052604090206001015491505b603454604080516370a0823160e01b815230600482015290516000926001600160a01b0316916370a08231916024808301926020929190829003018186803b1580156113ef57600080fd5b505afa158015611403573d6000803e3d6000fd5b505050506040513d602081101561141957600080fd5b50516034546040805163a9059cbb60e01b81523360048201526024810187905290519293506001600160a01b039091169163a9059cbb916044808201926020929091908290030181600087803b15801561147257600080fd5b505af1158015611486573d6000803e3d6000fd5b505050506040513d602081101561149c57600080fd5b50516114d95760405162461bcd60e51b81526004018080602001828103825260298152602001806136a96029913960400191505060405180910390fd5b603454604080516370a0823160e01b815230600482015290516000926001600160a01b0316916370a08231916024808301926020929190829003018186803b15801561152457600080fd5b505afa158015611538573d6000803e3d6000fd5b505050506040513d602081101561154e57600080fd5b50516040805160608101909152603680825291925060009161157c9185918591906136736020830139612e2e565b90508481146115bc5760405162461bcd60e51b815260040180806020018281038252603e81526020018061353b603e913960400191505060405180910390fd5b600060396000336001600160a01b03166001600160a01b0316815260200190815260200160002060010154905061162981876040518060400160405280601d81526020017f4e6577205374616b696e672062616c616e636520756e646572666c6f77000000815250612e2e565b33600090815260396020526040902060010155603a546116498188613017565b603a553360009081526039602052604090206001015461169457336000818152603960205260409020805460ff19169055611683906123d5565b611690603b546001613017565b603b555b3360008181526039602090815260409182902060010154603a54603b5484519586529285018c905284840187905260608501919091526080840185905260a084015260c08301524360e0830152517ff567e4884a2161c0ea70466ee0ded220fe25f0d63a05549e31ae54c71c571de7918190036101000190a15060019695505050505050565b6001600160a01b0391821660009081526039602090815260408083209390941682526003909201909152205490565b6000336001600160a01b0316603560009054906101000a90046001600160a01b03166001600160a01b031663db49224b6040518163ffffffff1660e01b815260040160206040518083038186803b1580156117a357600080fd5b505afa1580156117b7573d6000803e3d6000fd5b505050506040513d60208110156117cd57600080fd5b50516001600160a01b0316146118145760405162461bcd60e51b815260040180806020018281038252603a8152602001806133c3603a913960400191505060405180910390fd5b6001600160a01b0383166000908152603660205260409020600101541561186c5760405162461bcd60e51b81526004018080602001828103825260598152602001806136f66059913960600191505060405180910390fd5b611874612732565b6037805460018101825560009182527f42a7b7dd785cd69714a189dffb3fd7d7174edc9ece837694ce50f7078f7c31ae0180546001600160a01b0319166001600160a01b0386169081179091556040805160c081018083526306fdde0360e01b9052905186938493839290916306fdde039160c4808601929190818703018186803b15801561190257600080fd5b505afa158015611916573d6000803e3d6000fd5b505050506040513d6000823e601f3d908101601f19168201604052602081101561193f57600080fd5b810190808051604051939291908464010000000082111561195f57600080fd5b90830190602082018581111561197457600080fd5b825164010000000081118282018810171561198e57600080fd5b82525081516020918201929091019080838360005b838110156119bb5781810151838201526020016119a3565b50505050905090810190601f1680156119e85780820380516001836020036101000a031916815260200191505b506040525050508152602001603854815260200185815260200160008152602001438152602001836001600160a01b03166370a08231306040518263ffffffff1660e01b815260040180826001600160a01b03166001600160a01b0316815260200191505060206040518083038186803b158015611a6557600080fd5b505afa158015611a79573d6000803e3d6000fd5b505050506040513d6020811015611a8f57600080fd5b505190526001600160a01b0386166000908152603660209081526040909120825180519192611ac392849290910190613207565b506020828101516001808401919091556040808501516002808601919091556060808701516003808801919091556080808901516004808a019190915560a0998a01516005998a01556001600160a01b038f16600081815260368a528790208089015481880154958201549b8201549382015489519384529883018190529582018590529281018a9052998a0181905260c08a0186905260e0978a018881528254610100988116158902600019011695909504978a018890527f4c0426ff24ccb12fd9f9c24e771a1040d4180057bc4009761ab073f402ea8057998f9992989497939692959194929390929083019089908015611c015780601f10611bd657610100808354040283529160200191611c01565b820191906000526020600020905b815481529060010190602001808311611be457829003601f168201915b50509850505050505050505060405180910390a1506001949350505050565b6001600160a01b0381166000908152603660205260408120600101541561078b5750600161078f565b6000611c53613051565b60015490915060ff1680611c6a5750611c6a613056565b80611c76575060005481115b611cb15760405162461bcd60e51b815260040180806020018281038252602e8152602001806135bd602e913960400191505060405180910390fd5b60015460ff16158015611cd0576001805460ff19168117905560008290555b603580546001600160a01b0319166001600160a01b03851617905580156108a1576001805460ff19169055505050565b603c5490565b6035546001600160a01b031681565b6001600160a01b031660009081526039602052604090206001015490565b6000336001600160a01b0316603560009054906101000a90046001600160a01b03166001600160a01b031663878543546040518163ffffffff1660e01b815260040160206040518083038186803b158015611d8d57600080fd5b505afa158015611da1573d6000803e3d6000fd5b505050506040513d6020811015611db757600080fd5b50516001600160a01b031614611dfe5760405162461bcd60e51b815260040180806020018281038252602b815260200180613315602b913960400191505060405180910390fd5b604080516370a0823160e01b81523060048201529051859185916000916001600160a01b038516916370a0823191602480820192602092909190829003018186803b158015611e4c57600080fd5b505afa158015611e60573d6000803e3d6000fd5b505050506040513d6020811015611e7657600080fd5b5051604080516370a0823160e01b815230600482015290519192506000916001600160a01b038516916370a08231916024808301926020929190829003018186803b158015611ec457600080fd5b505afa158015611ed8573d6000803e3d6000fd5b505050506040513d6020811015611eee57600080fd5b50516040805163095ea7b360e01b81526001600160a01b038f81166004830152602482018a905291519293509085169163095ea7b3916044808201926020929091908290030181600087803b158015611f4657600080fd5b505af1158015611f5a573d6000803e3d6000fd5b505050506040513d6020811015611f7057600080fd5b5051611f7b57600080fd5b600060608c6001600160a01b0316348d8d604051808383808284376040519201945060009350909150508083038185875af1925050503d8060008114611fdd576040519150601f19603f3d011682016040523d82523d6000602084013e611fe2565b606091505b50915091508161202d576040805162461bcd60e51b81526020600482015260116024820152701513d2d1538814d5d05408119052531151607a1b604482015290519081900360640190fd5b811561235d57604080516370a0823160e01b815230600482015290516000916001600160a01b038916916370a0823191602480820192602092909190829003018186803b15801561207d57600080fd5b505afa158015612091573d6000803e3d6000fd5b505050506040513d60208110156120a757600080fd5b5051604080516370a0823160e01b815230600482015290519192506000916001600160a01b038916916370a08231916024808301926020929190829003018186803b1580156120f557600080fd5b505afa158015612109573d6000803e3d6000fd5b505050506040513d602081101561211f57600080fd5b5051604080518082019091526015815274416d6f756e7420536f6c6420756e646572666c6f7760581b60208201529091506000906121609087908490612e2e565b90508a81146121a05760405162461bcd60e51b815260040180806020018281038252604881526020018061337b6048913960600191505060405180910390fd5b60006121c584896040518060800160405280605481526020016134e760549139612e2e565b905060006121ec88856040518060800160405280605381526020016135eb60539139612e2e565b90507f22f6af6e13430e3e7b6418d01e6a48c1fbce5e8cb1698901fc95134b4b1c58ad8f8a848860405180856001600160a01b03166001600160a01b0316815260200184815260200183815260200182815260200194505050505060405180910390a17f6db63bebf1e6540277744df32846ebdb98385b1a73f2d5de49b28348add63f508e89838760405180856001600160a01b03166001600160a01b0316815260200184815260200183815260200182815260200194505050505060405180910390a17fdcfa816c675129132906d878736fcdb3261d869fd69cdeae5db3bef320f09e57866040518080602001828103825283818151815260200191508051906020019080838360005b8381101561230f5781810151838201526020016122f7565b50505050905090810190601f16801561233c5780820380516001836020036101000a031916815260200191505b509250505060405180910390a160019b505050505050505050505050612368565b600096505050505050505b979650505050505050565b606060378054806020026020016040519081016040528092919081815260200182805480156123cb57602002820191906000526020600020905b81546001600160a01b031681526001909101906020018083116123ad575b5050505050905090565b60005b6037548110156124155761240d82603783815481106123f357fe5b6000918252602090912001546001600160a01b0316612419565b6001016123d8565b5050565b3360009081526039602090815260408083206001600160a01b0385168452600301909152902054819080158015906124c35750604080516370a0823160e01b8152306004820152905182916001600160a01b038516916370a0823191602480820192602092909190829003018186803b15801561249557600080fd5b505afa1580156124a9573d6000803e3d6000fd5b505050506040513d60208110156124bf57600080fd5b5051115b1561272c573360009081526039602090815260408083206001600160a01b0387811685526003909101835281842054825163a9059cbb60e01b81528983166004820152602481019190915291519086169363a9059cbb93604480850194919392918390030190829087803b15801561253a57600080fd5b505af115801561254e573d6000803e3d6000fd5b505050506040513d602081101561256457600080fd5b50516125a15760405162461bcd60e51b815260040180806020018281038252603b815260200180613452603b913960400191505060405180910390fd5b3360009081526039602090815260408083206001600160a01b038781168552600390910183528184209390935580516370a0823160e01b81523060048201529051928516926370a0823192602480840193919291829003018186803b15801561260957600080fd5b505afa15801561261d573d6000803e3d6000fd5b505050506040513d602081101561263357600080fd5b50516001600160a01b0380851660008181526036602090815260409182902060058101959095558151938916845283019190915260608201849052436080830181905260a09183018281528454600260001961010060018416150201909116049284018390527f2f8173c14da9925b33432de9ccfa5ef6ccdc2c0dbec64cef1f26936e3f9016ca948994899491938893909260c0830190869080156127195780601f106126ee57610100808354040283529160200191612719565b820191906000526020600020905b8154815290600101906020018083116126fc57829003601f168201915b5050965050505050505060405180910390a15b50505050565b4360005b603754811015612415576000603660006037848154811061275357fe5b9060005260206000200160009054906101000a90046001600160a01b03166001600160a01b03166001600160a01b03168152602001908152602001600020905060006127bc8483600401546040518060600160405280602f81526020016132b3602f9139612e2e565b90506000811180156127d2575060008260020154115b80156127e057506000603a54115b156128605760006127f582846002015461305c565b90506127ff613285565b61280b82603a5461309e565b9050612815613285565b61283160405180602001604052808760010154815250836130dc565b805160018701556004860188905560038601549091506128518185612f23565b60038701555061286e92505050565b801561286e57600482018490555b7f968227c939d8d3dce44b253e01e78f74215402732c67b6fe4d1e2055c69d928e6037848154811061289c57fe5b9060005260206000200160009054906101000a90046001600160a01b031660366000603787815481106128cb57fe5b60009182526020808320909101546001600160a01b0316835282019290925260400181206037805491926036929091908990811061290557fe5b9060005260206000200160009054906101000a90046001600160a01b03166001600160a01b03166001600160a01b0316815260200190815260200160002060020154603660006037898154811061295857fe5b9060005260206000200160009054906101000a90046001600160a01b03166001600160a01b03166001600160a01b03168152602001908152602001600020600101546036600060378a815481106129ab57fe5b9060005260206000200160009054906101000a90046001600160a01b03166001600160a01b03166001600160a01b03168152602001908152602001600020600301546036600060378b815481106129fe57fe5b60009182526020808320909101546001600160a01b0390811684528382019490945260409283019091206004015482519389168452918301869052606083018590526080830184905260a0830182905260c09083018181528754600260001960018316156101000201909116049184018290529192919060e083019088908015612ac95780601f10612a9e57610100808354040283529160200191612ac9565b820191906000526020600020905b815481529060010190602001808311612aac57829003601f168201915b505097505050505050505060405180910390a15050600101612736565b60005b6037548110156124155760006036600060378481548110612b0657fe5b60009182526020808320909101546001600160a01b039081168452838201949094526040928301822060010154938716825260399052908120603780549394509192600290910191839186908110612b5a57fe5b60009182526020808320909101546001600160a01b0390811684528382019490945260409283018220549388168252603990529081206037805493945085936002909201929187908110612baa57fe5b60009182526020808320909101546001600160a01b03168352820192909252604001812091909155612bdc8383613017565b6001600160a01b03861660009081526039602052604081206001015491925090612c0790839061305c565b9050600060396000886001600160a01b03166001600160a01b03168152602001908152602001600020600301600060378881548110612c4257fe5b60009182526020808320909101546001600160a01b031683528201929092526040019020549050612c738183612f23565b6001600160a01b038816600090815260396020526040812060378054600390920192918a908110612ca057fe5b9060005260206000200160009054906101000a90046001600160a01b03166001600160a01b03166001600160a01b03168152602001908152602001600020819055507fda1601a54b97d5dc7b1e705b8edc7bfdbae3cd48d29b6fd9e7cc55e5100804a08786868686603960008e6001600160a01b03166001600160a01b03168152602001908152602001600020600201600060378e81548110612d3f57fe5b9060005260206000200160009054906101000a90046001600160a01b03166001600160a01b03166001600160a01b0316815260200190815260200160002054603960008f6001600160a01b03166001600160a01b03168152602001908152602001600020600301600060378f81548110612db557fe5b60009182526020808320909101546001600160a01b039081168452838201949094526040928301909120548251999093168952880196909652868601949094526060860192909252608085015260a084015260c08301524360e083015251908190036101000190a1505060019093019250612ae9915050565b60008184841115612ebd5760405162461bcd60e51b81526004018080602001828103825283818151815260200191508051906020019080838360005b83811015612e82578181015183820152602001612e6a565b50505050905090810190601f168015612eaf5780820380516001836020036101000a031916815260200191505b509250505060405180910390fd5b505050900390565b60008383018285821015612f1a5760405162461bcd60e51b8152602060048201818152835160248401528351909283926044909101919085019080838360008315612e82578181015183820152602001612e6a565b50949350505050565b6000610d3e8383604051806040016040528060118152602001706164646974696f6e206f766572666c6f7760781b815250612ec5565b60005b603754811015612ff2576036600060378381548110612f7757fe5b60009182526020808320909101546001600160a01b039081168452838201949094526040928301822060010154938616825260399052908120603780546002909201929185908110612fc557fe5b60009182526020808320909101546001600160a01b03168352820192909252604001902055600101612f5c565b506001600160a01b03166000908152603960205260409020805460ff19166001179055565b6000610d3e8383604051806040016040528060158152602001747375627472616374696f6e20756e646572666c6f7760581b815250612e2e565b600190565b303b1590565b6000610d3e83836040518060400160405280601781526020017f6d756c7469706c69636174696f6e206f766572666c6f77000000000000000000815250613101565b6130a6613285565b60405180602001604052806130d36130cd866ec097ce7bc90715b34b9f100000000061305c565b85613177565b90529392505050565b6130e4613285565b60405180602001604052806130d385600001518560000151612f23565b600083158061310e575082155b1561311b57506000610d3e565b8383028385828161312857fe5b04148390612f1a5760405162461bcd60e51b8152602060048201818152835160248401528351909283926044909101919085019080838360008315612e82578181015183820152602001612e6a565b6000610d3e83836040518060400160405280600e81526020016d646976696465206279207a65726f60901b815250600081836131f45760405162461bcd60e51b8152602060048201818152835160248401528351909283926044909101919085019080838360008315612e82578181015183820152602001612e6a565b508284816131fe57fe5b04949350505050565b828054600181600116156101000203166002900490600052602060002090601f016020900481019282601f1061324857805160ff1916838001178555613275565b82800160010185558215613275579182015b8281111561327557825182559160200191906001019061325a565b50613281929150613298565b5090565b6040518060200160405280600081525090565b61079891905b80821115613281576000815560010161329e56fe757064617465526577617264496e646578203a20426c6f636b205375627472616374696f6e20556e646572666c6f774e657720536967682062616c616e6365206973206c657373207468616e207468652070726576696f75732062616c616e63652e5468652063616c6c6572206d7573742062652074686520534947482046696e616e6365204d616e61676572416d6f756e7420746f206265207374616b656420616e642074686520616d6f756e74207472616e7366657272656420646f206e6f74206d617463685468652073656c6c20616d6f756e74206d656e74696f6e656420616e64207468652061637475616c20616d6f756e74207472616e7366657272656420646f206e6f74206d617463685468652063616c6c6572206d7573742062652074686520534947482046696e616e61636520436f6e666967757261746f7220436f6e74726163745468652070726f766964656420696e737472756d656e74206164647265737320686173206e6f74206265656e20616464656420666f7220646973747269627574696f6e20616d6f6e6720746865207374616b657273496e737472756d656e7420416363756d756c61746564206661696c656420746f206265207472616e7366657272656420746f2074686520557365725468652063616c6c6572206d75737420626520746865205349474820446973747269627574696f6e2048616e646c657220436f6e74726163745349474820746f206265205374616b65642063616e6e6f74206265207a65726f2e4e657720546f6b656e2042616c616e636520666f7220746f6b656e73207468617420617265206265696e6720426f75676874206973206c6f776572207468616e2069747320696e697469616c2062616c616e6365416d6f756e7420746f20626520756e2d7374616b656420616e642074686520616d6f756e74207472616e7366657272656420646f206e6f74206d617463685573657220646f65736e2774206861766520616e79205374616b656420616d6f756e744e6577205374616b65642042616c616e6365206164646974696f6e206572726f72436f6e747261637420696e7374616e63652068617320616c7265616479206265656e20696e697469616c697a65644e657720546f6b656e2042616c616e636520666f7220746f6b656e73207468617420617265206265696e6720536f6c6420697320686967686572207468616e2069747320696e697469616c2062616c616e63655349474820636f756c64206e6f74206265207472616e7366657272656420746f20746865205374616b696e6720436f6e74726163744e657720536967682062616c616e63652069732067726561746572207468616e207468652070726576696f75732062616c616e63652e5349474820636f756c64206e6f74206265207472616e7366657272656420746f2074686520557365725349474820746f20626520556e2d5374616b65642063616e6e6f74206265207a65726f2e5468652070726f766964656420696e737472756d656e7420616464726573732068617320616c7265616479206265656e20616464656420666f7220646973747269627574696f6e20616d6f6e6720746865207374616b657273a265627a7a723158207b836b2eaff4f20feeebff2da2ca0f38c1ebd9f3671eb7d1db2f8769d006709b64736f6c63430005100032",
  "source": "pragma solidity ^0.5.0;\n\n/**\n * @title Sigh Staking Contract\n * @notice Distributes rewards (Fee + % of Interest collected from Lending Protocol ) to SIGH Stakers\n * @author SIGH Finance\n */\n\n\nimport \"openzeppelin-solidity/contracts/math/SafeMath.sol\";\nimport \"openzeppelin-solidity/contracts/token/ERC20/IERC20.sol\";\nimport \"openzeppelin-solidity/contracts/token/ERC20/ERC20Detailed.sol\";\nimport \"openzeppelin-solidity/contracts/token/ERC20/SafeERC20.sol\";\n\nimport \"../Math/Exponential.sol\";\n\nimport \"../../openzeppelin-upgradeability/VersionedInitializable.sol\";\nimport \"../../configuration/GlobalAddressesProvider.sol\";\n\n\ncontract SighStaking is VersionedInitializable, Exponential  {\n\n    using SafeMath for uint256;\n    using SafeERC20 for IERC20;\n\n    IERC20 private sigh_Instrument;\n    GlobalAddressesProvider public addressesProvider;\n\n     struct instrumentState {\n        string name;\n        uint256 index;\n        uint rewardDistributionSpeed;\n        uint totalAmountRewarded;\n        uint lastUpdatedBlock;\n        uint balance;\n    }\n\n    mapping (address => instrumentState) private instrumentStates;\n    address[] private instrumentsRewarded;                             // Array of all the instruments that heve been rewarded\n    uint private instrumentInitialIndex = 1e36;\n\n    struct stakingBalance {\n        bool alreadyAStaker;\n        uint stakedBalance;\n        mapping (address => uint) instrumentIndex;\n        mapping (address => uint)  instrumentAccumulated;\n    }\n\n    mapping (address => stakingBalance) public stakingBalances;\n    uint private totalStakedSigh;\n    uint private numberOfStakers;\n    uint private maxSighThatCanBeStaked = 1e36;\n\n    uint256 public constant IMPLEMENTATION_REVISION = 0x1;\n\n    event SighStaked( address staker,uint amount, uint prevStakedBalance, uint staker_stakedBalance ,uint prevTotalStakedBalance, uint totalStakedSigh, uint numberOfStakers, uint blocknumber   );\n    event SighUnstaked( address staker, uint amount, uint prevStakedBalance, uint staker_stakedBalance, uint prevTotalStakedBalance, uint totalStakedSigh, uint numberOfStakers, uint blocknumber   );\n\n    event StreamingSighStaked( address staker, uint amount, uint prevBalance, uint staker_stakedBalance,uint totalStakedSigh, uint block_number   );\n\n    event updatedInstrumnetBeingDistributedIndex( address instrument_Rewarded, string instrument_name, uint instrument_DistributionSpeed, uint instrument_index, uint instrument_totalAmountRewarded,  uint instrument_lastUpdatedBlock );\n    event updateStakerIndexUpdated( address staker, uint instrumentIndex, uint stakerIndex, uint deltaIndexes, uint newInstrumentAccumulated, uint staker_instrumentIndex_instrumentRewarded, uint staker_instrumentAccumulated_instrumentBeingRewarded, uint block_number );    \n    event instrumentTransferred( address staker, address instrumentToBeClaimed, string instrument_name, uint amountToBeTransferred, uint block_number );\n    event TokensBought( address token_bought, uint prev_bought_token_amount, uint tokenBoughtAmount, uint new_bought_token_amount);\n    event TokensSold( address token_sold, uint prev_sold_token_amount, uint tokenSoldAmount, uint new_sold_token_amount );   \n    event TokenSwapTransactionData( bytes _data );\n\n    event NewInstrumentForDistributionAdded( address newInstrument, string instrument_name, uint instrument_index, uint instrument_DistributionSpeed, uint instrument_totalAmountRewarded, uint instrument_balance,  uint instrument_lastUpdatedBlock  );\n    event maxSighThatCanBeStakedUpdated( uint prevLimit, uint maxSighThatCanBeStaked, uint block_number);\n    event DistributionSpeedUpdated( address instrumentAddress, string instrument_name, uint prevSpeed , uint instrument_DistributionSpeed, uint block_number );\n\n// ########################################### \n// ##############  MODIFIERS   ###############\n// ########################################### \n\n    modifier onlySIGHFinanceManager {\n        require( addressesProvider.getSIGHFinanceManager() == msg.sender, \"The caller must be the SIGH Finance Manager\" );\n        _;\n    }\n    //only SIGH Distribution Manager can use functions affected by this modifier\n    modifier onlySighFinanceConfigurator {\n        require(addressesProvider.getSIGHFinanceConfigurator() == msg.sender, \"The caller must be the SIGH Finanace Configurator Contract\");\n        _;\n    }\n\n    modifier onlySighDistributionHandler {\n        require(addressesProvider.getSIGHMechanismHandler() == msg.sender, \"The caller must be the SIGH Distribution Handler Contract\");\n        _;\n    }\n    \n\n// ########################################################\n// ##############  INITIALIZING THE STATE   ###############\n// ########################################################\n\n    /// @notice Gets the revision number of the contract\n    /// @return The revision numeric reference\n    function getRevision() internal pure returns (uint256) {\n        return IMPLEMENTATION_REVISION;\n    }\n\n\n    /// @notice Called by the proxy when setting this contract as implementation\n    function initialize(  address addressesProvider_ ) public initializer {\n        addressesProvider = GlobalAddressesProvider(addressesProvider_);\n    }\n\n\n// ############################################\n// ##############  STAKE SIGH   ###############\n// ############################################\n\n    function stake_SIGH(uint amount) external returns (bool) {\n        require(amount > 0,\"SIGH to be Staked cannot be zero.\");\n\n        updateRewardIndexInternal();                    // UPDATES INSTRUMENT INDEX\n        if (stakingBalances[msg.sender].alreadyAStaker) {\n            updateUserIndexInternal(msg.sender);                  // UPDATES USER INDEX\n        }\n\n        uint prevBalance = sigh_Instrument.balanceOf(address(this));\n        require(sigh_Instrument.transferFrom( msg.sender, address(this), amount ),\"SIGH could not be transferred to the Staking Contract\" );\n        uint newBalance = sigh_Instrument.balanceOf(address(this));\n\n        uint diff = sub_( newBalance, prevBalance, \"New Sigh balance is less than the previous balance.\" );\n        require(diff == amount,\"Amount to be staked and the amount transferred do not match\");\n\n        uint prevStakedBalance = stakingBalances[msg.sender].stakedBalance ;                  \n        stakingBalances[msg.sender].stakedBalance = add_(prevStakedBalance, amount, \"New Staking balance overflow\");    // \"STAKED BALANCE\" UPDATED [ADDITION] (STATE UPDATE)\n\n        uint prevTotalStakedBalance = totalStakedSigh ;                  \n        totalStakedSigh = add_(prevTotalStakedBalance, amount);                                                         // \"TOTAL STAKED SIGH\" [ADDITION] (STATE UPDATE)\n\n        if (!stakingBalances[msg.sender].alreadyAStaker) {\n            initializeStakerStateInternal(msg.sender);\n        }\n\n        emit SighStaked( msg.sender, amount, prevStakedBalance, stakingBalances[msg.sender].stakedBalance , prevTotalStakedBalance,  totalStakedSigh, numberOfStakers,  block.number   );\n        return true;\n    }\n\n    function updateStakedBalanceForStreaming(address staker, uint amount) onlySighDistributionHandler external returns (bool) {\n\n        updateRewardIndexInternal();                    // UPDATES INSTRUMENT INDEX\n        if (stakingBalances[msg.sender].alreadyAStaker) {\n            updateUserIndexInternal(staker);                  // UPDATES USER INDEX\n        }\n\n        uint prevBalance = stakingBalances[staker].stakedBalance;\n        stakingBalances[staker].stakedBalance = add_(prevBalance, amount,\"New Staked Balance addition error\");\n\n        uint prevTotalStakedBalance = totalStakedSigh ;                  \n        totalStakedSigh = add_(prevTotalStakedBalance, amount);                                                         // \"TOTAL STAKED SIGH\" [ADDITION] (STATE UPDATE)\n\n        if (!stakingBalances[staker].alreadyAStaker) {\n            initializeStakerStateInternal(staker);\n        }\n\n        emit StreamingSighStaked( staker, amount, prevBalance, stakingBalances[staker].stakedBalance, totalStakedSigh,  block.number   );\n    }\n\n// ##############################################\n// ##############  UNSTAKE SIGH   ###############\n// ##############################################\n\n    function unstake_SIGH(uint amount) external returns (bool) {\n        require(amount > 0,\"SIGH to be Un-Staked cannot be zero.\");\n        require(stakingBalances[msg.sender].alreadyAStaker,\"User doesn't have any Staked amount\");\n\n        updateRewardIndexInternal();          // UPDATES INSTRUMENT INDEX\n        updateUserIndexInternal(msg.sender);             // UPDATES USER INDEX\n\n        if ( amount > stakingBalances[msg.sender].stakedBalance ) {     // Unstake the complete amount\n            amount = stakingBalances[msg.sender].stakedBalance;\n        }\n\n        uint prevBalance = sigh_Instrument.balanceOf(address(this));\n        require(sigh_Instrument.transfer( msg.sender, amount ),\"SIGH could not be transferred to the User\" );\n        uint newBalance = sigh_Instrument.balanceOf(address(this));\n\n        uint diff = sub_( prevBalance, newBalance, \"New Sigh balance is greater than the previous balance.\" );\n        require(diff == amount,\"Amount to be un-staked and the amount transferred do not match\");\n\n        uint prevStakedBalance = stakingBalances[msg.sender].stakedBalance;                  \n        stakingBalances[msg.sender].stakedBalance = sub_(prevStakedBalance, amount, \"New Staking balance underflow\");    // \"STAKED BALANCE\" UPDATED [SUBTRACTION] (STATE UPDATE)\n\n        uint prevTotalStakedBalance = totalStakedSigh ;                  \n        totalStakedSigh = sub_(prevTotalStakedBalance, amount);                                                         // \"TOTAL STAKED SIGH\" [ADDITION] (STATE UPDATE)\n\n        if (stakingBalances[msg.sender].stakedBalance == 0) {\n            stakingBalances[msg.sender].alreadyAStaker = false;\n            transferAllAccumulatedRewardsInternal(msg.sender);\n            numberOfStakers = sub_(numberOfStakers, uint(1));\n        }\n\n        emit SighUnstaked( msg.sender, amount, prevStakedBalance, stakingBalances[msg.sender].stakedBalance, prevTotalStakedBalance, totalStakedSigh, numberOfStakers, block.number   );\n        return true;\n    }\n\n\n\n// #######################################################################################################\n// ##############  INTERNAL FUNCTIONS TO UPDATE INSTRUMENT DISTRIBUTION AND USER INDEXES   ###############\n// #######################################################################################################\n\n    function updateRewardIndexInternal() internal {\n\n        uint blockNumber = block.number;\n\n        for (uint i =0 ; i<instrumentsRewarded.length ; i++ ) {\n\n            instrumentState storage currentRewardInstrument = instrumentStates[ instrumentsRewarded[i] ];\n            uint deltaBlocks = sub_(blockNumber, uint( currentRewardInstrument.lastUpdatedBlock ), 'updateRewardIndex : Block Subtraction Underflow');    // Delta Blocks \n\n            if (deltaBlocks > 0 && currentRewardInstrument.rewardDistributionSpeed > 0 && totalStakedSigh > 0) {    \n                uint reward_Accrued = mul_(deltaBlocks, currentRewardInstrument.rewardDistributionSpeed);                         // Total reward accured over delta blocks\n                Double memory ratio = fraction(reward_Accrued, totalStakedSigh);                                                 // Reward accured per Staked SIGH token\n                Double memory newIndex = add_(Double({mantissa: currentRewardInstrument.index}), ratio);                         // Updated Index\n\n                currentRewardInstrument.index = newIndex.mantissa;                                                    // STATE UPDATE - INSTRUMENT BEING DISTRIBUTED \"INDEX\" UPDATED\n                currentRewardInstrument.lastUpdatedBlock = blockNumber;                                               // STATE UPDATE - INSTRUMENT BEING DISTRIBUTED \"BLOCK NUMBER\" UPDATED\n                uint prevTotalAmountRewarded = currentRewardInstrument.totalAmountRewarded;\n                currentRewardInstrument.totalAmountRewarded = add_(prevTotalAmountRewarded, reward_Accrued);          // STATE UPDATE - INSTRUMENT BEING DISTRIBUTED \"TOTAL AMOUNT REWARDED\" UPDATED\n            } \n            else if ( deltaBlocks > 0 ) {         // When no reward is accured. Block number updated\n                currentRewardInstrument.lastUpdatedBlock = blockNumber ;                                             // STATE UPDATE - INSTRUMENT BEING DISTRIBUTED \"BLOCK NUMBER\" UPDATED\n            }\n\n            emit updatedInstrumnetBeingDistributedIndex( instrumentsRewarded[i], instrumentStates[instrumentsRewarded[i]].name, instrumentStates[instrumentsRewarded[i]].rewardDistributionSpeed, instrumentStates[instrumentsRewarded[i]].index, instrumentStates[instrumentsRewarded[i]].totalAmountRewarded, instrumentStates[instrumentsRewarded[i]].lastUpdatedBlock );\n        }\n    }\n\n    function updateUserIndexInternal(address staker) internal {\n\n        for (uint i =0 ; i<instrumentsRewarded.length ; i++ ) { \n\n            uint instrumentIndex = instrumentStates[instrumentsRewarded[i]].index;\n            uint stakerIndex = stakingBalances[staker].instrumentIndex[instrumentsRewarded[i]];\n            stakingBalances[staker].instrumentIndex[instrumentsRewarded[i]] = instrumentIndex;                                                  // STATE UPDATE - STAKER's INDEX UPDATED  \n\n            uint deltaIndexes = sub_(instrumentIndex, stakerIndex);\n            uint newInstrumentAccumulated = mul_(deltaIndexes, stakingBalances[staker].stakedBalance ); \n\n            uint prevInstrumentAccumulated   = stakingBalances[staker].instrumentAccumulated[instrumentsRewarded[i]];\n            stakingBalances[staker].instrumentAccumulated[instrumentsRewarded[i]] = add_(prevInstrumentAccumulated, newInstrumentAccumulated);   // STATE UPDATE - STAKER's \"INSTRUMENT ACCUMULATED AMOUNT\" UPDATED  \n\n            emit updateStakerIndexUpdated( staker, instrumentIndex, stakerIndex, deltaIndexes, newInstrumentAccumulated, stakingBalances[staker].instrumentIndex[instrumentsRewarded[i]], stakingBalances[staker].instrumentAccumulated[instrumentsRewarded[i]], block.number );    \n        }\n    }\n\n    function initializeStakerStateInternal(address staker) internal {\n        for (uint i=0; i < instrumentsRewarded.length ; i++) {\n            stakingBalances[staker].instrumentIndex[ instrumentsRewarded[i] ] = instrumentStates[ instrumentsRewarded[i] ].index;\n        }\n        stakingBalances[staker].alreadyAStaker = true;\n    }\n\n// ################################################################################\n// ##############  FUNCTION RELATED TO INSTRUMENT TRANSFER   ###############\n// ################################################################################\n\n    function claimAllAccumulatedInstrumentsForUsers( address[] calldata stakingAddresses ) external {\n        for (uint i=0;i<stakingAddresses.length;i++) {\n            transferAllAccumulatedRewardsInternal(msg.sender);\n        }\n    }\n\n    function claimAllAccumulatedInstruments() external {\n        transferAllAccumulatedRewardsInternal(msg.sender);\n    }\n\n    function claimAccumulatedInstrument(address instrumentToBeClaimed) external {\n        transferAccumulatedRewardsInternal(msg.sender, instrumentToBeClaimed);\n    }\n\n    function transferAllAccumulatedRewardsInternal(address staker ) internal {\n        for (uint i =0 ; i<instrumentsRewarded.length ; i++ ) { \n            transferAccumulatedRewardsInternal(staker, instrumentsRewarded[i] );\n        }        \n    }\n\n    function transferAccumulatedRewardsInternal(address staker, address instrumentToBeClaimed) internal {\n        IERC20 instrumentAccumulated_ = IERC20(instrumentToBeClaimed);       \n        uint amountToBeTransferred =  stakingBalances[msg.sender].instrumentAccumulated[instrumentToBeClaimed];  \n        if (amountToBeTransferred > 0 && instrumentAccumulated_.balanceOf(address(this)) > amountToBeTransferred ) {\n            require(instrumentAccumulated_.transfer(staker, stakingBalances[msg.sender].instrumentAccumulated[instrumentToBeClaimed]),\"Instrument Accumulated failed to be transferred to the User\");\n            stakingBalances[msg.sender].instrumentAccumulated[instrumentToBeClaimed] = uint(0);                     // STATE UPDATE (USER\"s ACCUMULATED INSTRUMENT UPDATED)\n            instrumentStates[instrumentToBeClaimed].balance = instrumentAccumulated_.balanceOf(address(this));      // STATE UPDATE (BALANCE OF THE INSTRUMENT UPDATED)\n            emit instrumentTransferred( staker, instrumentToBeClaimed, instrumentStates[instrumentToBeClaimed].name, amountToBeTransferred, block.number );\n        }\n    }\n\n// ##################################################### \n// ##############  TOKEN SWAP FUNCTION   ###############\n// ##################################################### \n\n    function swapTokensUsingOxAPI( address allowanceTarget, address payable to, bytes calldata callDataHex, address token_bought, address token_sold, uint sellAmount ) external payable onlySIGHFinanceManager returns (bool) {\n\n        IERC20 bought_token;\n        bought_token = IERC20(token_bought);\n\n        IERC20 sold_token;\n        sold_token = IERC20(token_sold);\n\n        uint prev_bought_token_amount = bought_token.balanceOf(address(this));  // Current Bought Tokens Balance\n        uint prev_sold_token_amount = sold_token.balanceOf(address(this));      // Current Tokens to be Sold Balance\n\n        require(sold_token.approve(allowanceTarget, uint256(sellAmount)));                   // Allow the allowanceTarget address to spend an the needed amount\n        (bool success, bytes memory _data) = to.call.value(msg.value)(callDataHex);          // Calling the encoded swap() function. ETH passed to cover for fee\n    \n        require(success, 'TOKEN SWAP FAILED');\n        \n        if (success) {\n            uint new_bought_token_amount = bought_token.balanceOf(address(this));       // New Bought Tokens Balance\n            uint new_sold_token_amount = sold_token.balanceOf(address(this));           // New Tokens to be Sold Balance\n            \n            uint amountSold = sub_(prev_sold_token_amount, new_sold_token_amount, \"Amount Sold underflow\");\n            require( amountSold ==  sellAmount,\"The sell amount mentioned and the actual amount transferred do not match\" );\n\n            uint tokenBoughtAmount = sub_(new_bought_token_amount,prev_bought_token_amount,\"New Token Balance for tokens that are being Bought is lower than its initial balance\");\n            uint tokenSoldAmount = sub_(prev_sold_token_amount,new_sold_token_amount,\"New Token Balance for tokens that are being Sold is higher than its initial balance\");\n\n            emit TokensBought( token_bought, prev_bought_token_amount, tokenBoughtAmount,  new_bought_token_amount);\n            emit TokensSold( token_sold, prev_sold_token_amount, tokenSoldAmount, new_sold_token_amount );   \n            emit TokenSwapTransactionData( _data );\n            return true;         \n        }\n\n        return false;\n    }\n\n// ########################################################################################## \n// ##############  CONFIGURATION FUNCTIONS (SIGH FINANCE CONFIGURATOR ONLY)   ###############\n// ##########################################################################################\n\n    function supportNewInstrumentForDistribution(address newInstrument, uint speed) external onlySighFinanceConfigurator returns (bool) {\n        require(instrumentStates[newInstrument].index == 0, \"The provided instrument address has already been added for distribution among the stakers\");\n        updateRewardIndexInternal();\n\n        instrumentsRewarded.push(newInstrument);                // STATE UPDATE - NEW INSTRUMENT ADDED TO THE LIST OF INSTRUMENTS BEING DISTRIBUTED\n        IERC20 instrumentContract = IERC20(newInstrument);\n        ERC20Detailed instrumentContract_ = ERC20Detailed(newInstrument);\n        instrumentStates[newInstrument] = instrumentState({ name: instrumentContract_.name(), \n                                                            index: instrumentInitialIndex, \n                                                            rewardDistributionSpeed: speed, \n                                                            totalAmountRewarded: uint(0), \n                                                            lastUpdatedBlock: block.number,\n                                                            balance: instrumentContract.balanceOf(address(this))\n                                                        });         // STATE UPDATE - NEW INSTRUMENT STATE INITIALIZED\n\n        emit NewInstrumentForDistributionAdded( newInstrument, instrumentStates[newInstrument].name, instrumentStates[newInstrument].index, instrumentStates[newInstrument].rewardDistributionSpeed, instrumentStates[newInstrument].totalAmountRewarded, instrumentStates[newInstrument].balance, instrumentStates[newInstrument].lastUpdatedBlock  );\n        return true;\n    }\n\n\n    function setDistributionSpeed(address instrumentAddress , uint newSpeed) external onlySighFinanceConfigurator returns (bool) {\n        require(instrumentStates[instrumentAddress].index > 0, \"The provided instrument address has not been added for distribution among the stakers\");\n\n        if ( instrumentStates[instrumentAddress].rewardDistributionSpeed > 0) {\n            updateRewardIndexInternal();\n        }\n        uint prevSpeed = newSpeed;\n        instrumentStates[instrumentAddress].rewardDistributionSpeed = newSpeed;\n        emit DistributionSpeedUpdated( instrumentAddress, instrumentStates[instrumentAddress].name, prevSpeed , instrumentStates[instrumentAddress].rewardDistributionSpeed, block.number );\n        return true;\n    }\n\n    function updateMaxSighThatCanBeStaked(uint amount) external  onlySighFinanceConfigurator returns (bool) { \n        uint prevLimit = maxSighThatCanBeStaked;\n        maxSighThatCanBeStaked = amount;\n        require(maxSighThatCanBeStaked == amount, \"New value not assigned properly\");\n        emit maxSighThatCanBeStakedUpdated(prevLimit, maxSighThatCanBeStaked, block.number);\n    }\n\n// ################################################## \n// ##############  PUBLIC FUNCTIONS   ###############\n// ################################################## \n\n    function updateBalance(address instrument) public returns (uint) {\n        IERC20 instrumentContract = IERC20(instrument);\n        uint current_balance = instrumentContract.balanceOf(address(this));\n\n        if (instrumentStates[instrument].index > 0 ) {\n            instrumentStates[instrument].balance = current_balance;\n        }\n\n        return current_balance;\n    }\n\n// ################################################## \n// ##############  VIEW FUNCTIONS   ###############\n// ################################################## \n\n    function getInstrumentsSupported() external view returns (address[] memory) {\n        return instrumentsRewarded;\n    }\n\n    function isInstrumentSupported(address instrument) external view returns (bool) {\n        if (instrumentStates[instrument].index > 0 ) {\n            return true;\n        }\n        return false;\n    }\n\n    function getDistributionSpeed(address instrument) external view returns (uint) { \n        if (instrumentStates[instrument].index > 0 ) {\n            return instrumentStates[instrument].rewardDistributionSpeed;\n        }\n        return uint(0); \n    }\n\n    function getInstrumentState(address instrumentAddress) external view returns(string memory name, uint index, uint rewardDistributionSpeed,uint totalAmountRewarded, uint balance, uint lastUpdatedBlock) {\n        // if (instrumentStates[instrumentAddress].index > 0 ) { \n            return ( instrumentStates[instrumentAddress].name, \n                    instrumentStates[instrumentAddress].index, \n                    instrumentStates[instrumentAddress].rewardDistributionSpeed,\n                    instrumentStates[instrumentAddress].totalAmountRewarded, \n                    instrumentStates[instrumentAddress].balance, \n                    instrumentStates[instrumentAddress].lastUpdatedBlock \n                    );\n        // }\n        // string memory name = '';\n        // return ( name, )\n    }\n\n    function getStakedBalanceForStaker(address account) external view returns (uint) {\n        return stakingBalances[account].stakedBalance;\n    }\n\n    function getStakersAccumulatedInstrumentAmount(address account, address instrument)  external view returns (uint) {\n        return stakingBalances[account].instrumentAccumulated[instrument];    \n    }\n\n    function getTotalStakedSIGH()  external view returns (uint) { \n        return totalStakedSigh;\n    }\n\n    function getTotalStakers()  external view returns (uint) { \n        return numberOfStakers;\n    }\n\n    function getmaxSighThatCanBeStaked()  external view returns (uint) { \n        return maxSighThatCanBeStaked;\n    }\n\n}",
  "sourcePath": "/Users/apple/Desktop/GITCOIN/Sigh_Finance/SighFinanceContracts/contracts/SIGHFinanceContracts/Sigh_Staking/SighStaking.sol",
  "compiler": {
    "name": "solc",
    "version": "0.5.16+commit.9c3226ce.Emscripten.clang"
  },
  "schemaVersion": "3.2.4",
  "updatedAt": "2020-11-05T05:43:32.693Z",
  "devdoc": {
    "methods": {}
  },
  "userdoc": {
    "methods": {
      "initialize(address)": {
        "notice": "Called by the proxy when setting this contract as implementation"
      }
    }
  }
}