{
  "contractName": "SIGH",
  "abi": [
    {
      "inputs": [],
      "payable": false,
      "stateMutability": "nonpayable",
      "type": "constructor"
    },
    {
      "anonymous": false,
      "inputs": [
        {
          "indexed": true,
          "internalType": "address",
          "name": "owner",
          "type": "address"
        },
        {
          "indexed": true,
          "internalType": "address",
          "name": "spender",
          "type": "address"
        },
        {
          "indexed": false,
          "internalType": "uint256",
          "name": "value",
          "type": "uint256"
        }
      ],
      "name": "Approval",
      "type": "event"
    },
    {
      "anonymous": false,
      "inputs": [
        {
          "indexed": false,
          "internalType": "address",
          "name": "speedController",
          "type": "address"
        },
        {
          "indexed": false,
          "internalType": "address",
          "name": "treasury",
          "type": "address"
        },
        {
          "indexed": false,
          "internalType": "uint256",
          "name": "blockNumber",
          "type": "uint256"
        }
      ],
      "name": "MintingInitialized",
      "type": "event"
    },
    {
      "anonymous": false,
      "inputs": [
        {
          "indexed": false,
          "internalType": "uint256",
          "name": "newEra",
          "type": "uint256"
        },
        {
          "indexed": false,
          "internalType": "uint256",
          "name": "blockNumber",
          "type": "uint256"
        },
        {
          "indexed": false,
          "internalType": "uint256",
          "name": "timeStamp",
          "type": "uint256"
        }
      ],
      "name": "NewEra",
      "type": "event"
    },
    {
      "anonymous": false,
      "inputs": [
        {
          "indexed": false,
          "internalType": "uint256",
          "name": "burntAmount",
          "type": "uint256"
        },
        {
          "indexed": false,
          "internalType": "uint256",
          "name": "totalBurnedAmount",
          "type": "uint256"
        },
        {
          "indexed": false,
          "internalType": "uint256",
          "name": "currentSupply",
          "type": "uint256"
        },
        {
          "indexed": false,
          "internalType": "uint256",
          "name": "blockNumber",
          "type": "uint256"
        }
      ],
      "name": "SIGHBurned",
      "type": "event"
    },
    {
      "anonymous": false,
      "inputs": [
        {
          "indexed": false,
          "internalType": "address",
          "name": "minter",
          "type": "address"
        },
        {
          "indexed": false,
          "internalType": "uint256",
          "name": "cycle",
          "type": "uint256"
        },
        {
          "indexed": false,
          "internalType": "uint256",
          "name": "Era",
          "type": "uint256"
        },
        {
          "indexed": false,
          "internalType": "uint256",
          "name": "inflationRate",
          "type": "uint256"
        },
        {
          "indexed": false,
          "internalType": "uint256",
          "name": "amountMinted",
          "type": "uint256"
        },
        {
          "indexed": false,
          "internalType": "uint256",
          "name": "mintSpeed",
          "type": "uint256"
        },
        {
          "indexed": false,
          "internalType": "uint256",
          "name": "current_supply",
          "type": "uint256"
        },
        {
          "indexed": false,
          "internalType": "uint256",
          "name": "block_number",
          "type": "uint256"
        }
      ],
      "name": "SIGHMinted",
      "type": "event"
    },
    {
      "anonymous": false,
      "inputs": [
        {
          "indexed": true,
          "internalType": "address",
          "name": "from",
          "type": "address"
        },
        {
          "indexed": true,
          "internalType": "address",
          "name": "to",
          "type": "address"
        },
        {
          "indexed": false,
          "internalType": "uint256",
          "name": "value",
          "type": "uint256"
        }
      ],
      "name": "Transfer",
      "type": "event"
    },
    {
      "constant": true,
      "inputs": [],
      "name": "CYCLE_BLOCKS",
      "outputs": [
        {
          "internalType": "uint256",
          "name": "",
          "type": "uint256"
        }
      ],
      "payable": false,
      "stateMutability": "view",
      "type": "function"
    },
    {
      "constant": true,
      "inputs": [],
      "name": "FINAL_CYCLE",
      "outputs": [
        {
          "internalType": "uint256",
          "name": "",
          "type": "uint256"
        }
      ],
      "payable": false,
      "stateMutability": "view",
      "type": "function"
    },
    {
      "constant": true,
      "inputs": [
        {
          "internalType": "address",
          "name": "owner",
          "type": "address"
        },
        {
          "internalType": "address",
          "name": "spender",
          "type": "address"
        }
      ],
      "name": "allowance",
      "outputs": [
        {
          "internalType": "uint256",
          "name": "",
          "type": "uint256"
        }
      ],
      "payable": false,
      "stateMutability": "view",
      "type": "function"
    },
    {
      "constant": false,
      "inputs": [
        {
          "internalType": "address",
          "name": "spender",
          "type": "address"
        },
        {
          "internalType": "uint256",
          "name": "amount",
          "type": "uint256"
        }
      ],
      "name": "approve",
      "outputs": [
        {
          "internalType": "bool",
          "name": "",
          "type": "bool"
        }
      ],
      "payable": false,
      "stateMutability": "nonpayable",
      "type": "function"
    },
    {
      "constant": true,
      "inputs": [
        {
          "internalType": "address",
          "name": "account",
          "type": "address"
        }
      ],
      "name": "balanceOf",
      "outputs": [
        {
          "internalType": "uint256",
          "name": "",
          "type": "uint256"
        }
      ],
      "payable": false,
      "stateMutability": "view",
      "type": "function"
    },
    {
      "constant": true,
      "inputs": [],
      "name": "decimals",
      "outputs": [
        {
          "internalType": "uint8",
          "name": "",
          "type": "uint8"
        }
      ],
      "payable": false,
      "stateMutability": "view",
      "type": "function"
    },
    {
      "constant": false,
      "inputs": [
        {
          "internalType": "address",
          "name": "spender",
          "type": "address"
        },
        {
          "internalType": "uint256",
          "name": "subtractedValue",
          "type": "uint256"
        }
      ],
      "name": "decreaseAllowance",
      "outputs": [
        {
          "internalType": "bool",
          "name": "",
          "type": "bool"
        }
      ],
      "payable": false,
      "stateMutability": "nonpayable",
      "type": "function"
    },
    {
      "constant": false,
      "inputs": [
        {
          "internalType": "address",
          "name": "spender",
          "type": "address"
        },
        {
          "internalType": "uint256",
          "name": "addedValue",
          "type": "uint256"
        }
      ],
      "name": "increaseAllowance",
      "outputs": [
        {
          "internalType": "bool",
          "name": "",
          "type": "bool"
        }
      ],
      "payable": false,
      "stateMutability": "nonpayable",
      "type": "function"
    },
    {
      "constant": true,
      "inputs": [],
      "name": "name",
      "outputs": [
        {
          "internalType": "string",
          "name": "",
          "type": "string"
        }
      ],
      "payable": false,
      "stateMutability": "view",
      "type": "function"
    },
    {
      "constant": true,
      "inputs": [],
      "name": "symbol",
      "outputs": [
        {
          "internalType": "string",
          "name": "",
          "type": "string"
        }
      ],
      "payable": false,
      "stateMutability": "view",
      "type": "function"
    },
    {
      "constant": true,
      "inputs": [],
      "name": "totalSupply",
      "outputs": [
        {
          "internalType": "uint256",
          "name": "",
          "type": "uint256"
        }
      ],
      "payable": false,
      "stateMutability": "view",
      "type": "function"
    },
    {
      "constant": false,
      "inputs": [
        {
          "internalType": "address",
          "name": "recipient",
          "type": "address"
        },
        {
          "internalType": "uint256",
          "name": "amount",
          "type": "uint256"
        }
      ],
      "name": "transfer",
      "outputs": [
        {
          "internalType": "bool",
          "name": "",
          "type": "bool"
        }
      ],
      "payable": false,
      "stateMutability": "nonpayable",
      "type": "function"
    },
    {
      "constant": false,
      "inputs": [
        {
          "internalType": "address",
          "name": "sender",
          "type": "address"
        },
        {
          "internalType": "address",
          "name": "recipient",
          "type": "address"
        },
        {
          "internalType": "uint256",
          "name": "amount",
          "type": "uint256"
        }
      ],
      "name": "transferFrom",
      "outputs": [
        {
          "internalType": "bool",
          "name": "",
          "type": "bool"
        }
      ],
      "payable": false,
      "stateMutability": "nonpayable",
      "type": "function"
    },
    {
      "constant": false,
      "inputs": [
        {
          "internalType": "address",
          "name": "newSpeedController",
          "type": "address"
        },
        {
          "internalType": "address",
          "name": "_treasury",
          "type": "address"
        }
      ],
      "name": "initMinting",
      "outputs": [
        {
          "internalType": "bool",
          "name": "",
          "type": "bool"
        }
      ],
      "payable": false,
      "stateMutability": "nonpayable",
      "type": "function"
    },
    {
      "constant": false,
      "inputs": [],
      "name": "mintCoins",
      "outputs": [
        {
          "internalType": "bool",
          "name": "",
          "type": "bool"
        }
      ],
      "payable": false,
      "stateMutability": "nonpayable",
      "type": "function"
    },
    {
      "constant": false,
      "inputs": [
        {
          "internalType": "uint256",
          "name": "amount",
          "type": "uint256"
        }
      ],
      "name": "burn",
      "outputs": [
        {
          "internalType": "bool",
          "name": "",
          "type": "bool"
        }
      ],
      "payable": false,
      "stateMutability": "nonpayable",
      "type": "function"
    },
    {
      "constant": true,
      "inputs": [],
      "name": "isMintingActivated",
      "outputs": [
        {
          "internalType": "bool",
          "name": "",
          "type": "bool"
        }
      ],
      "payable": false,
      "stateMutability": "view",
      "type": "function"
    },
    {
      "constant": true,
      "inputs": [],
      "name": "getCurrentEra",
      "outputs": [
        {
          "internalType": "uint256",
          "name": "",
          "type": "uint256"
        }
      ],
      "payable": false,
      "stateMutability": "view",
      "type": "function"
    },
    {
      "constant": true,
      "inputs": [],
      "name": "getCurrentCycle",
      "outputs": [
        {
          "internalType": "uint256",
          "name": "",
          "type": "uint256"
        }
      ],
      "payable": false,
      "stateMutability": "view",
      "type": "function"
    },
    {
      "constant": true,
      "inputs": [],
      "name": "getCurrentInflationRate",
      "outputs": [
        {
          "internalType": "uint256",
          "name": "",
          "type": "uint256"
        }
      ],
      "payable": false,
      "stateMutability": "view",
      "type": "function"
    },
    {
      "constant": true,
      "inputs": [],
      "name": "getBlocksRemainingToMint",
      "outputs": [
        {
          "internalType": "uint256",
          "name": "",
          "type": "uint256"
        }
      ],
      "payable": false,
      "stateMutability": "view",
      "type": "function"
    },
    {
      "constant": true,
      "inputs": [
        {
          "internalType": "uint256",
          "name": "cycleNumber",
          "type": "uint256"
        }
      ],
      "name": "getMintSnapshotForCycle",
      "outputs": [
        {
          "internalType": "uint256",
          "name": "era",
          "type": "uint256"
        },
        {
          "internalType": "uint256",
          "name": "inflationRate",
          "type": "uint256"
        },
        {
          "internalType": "uint256",
          "name": "mintedAmount",
          "type": "uint256"
        },
        {
          "internalType": "uint256",
          "name": "mintSpeed",
          "type": "uint256"
        },
        {
          "internalType": "uint256",
          "name": "newTotalSupply",
          "type": "uint256"
        },
        {
          "internalType": "address",
          "name": "minter",
          "type": "address"
        },
        {
          "internalType": "uint256",
          "name": "blockNumber",
          "type": "uint256"
        }
      ],
      "payable": false,
      "stateMutability": "view",
      "type": "function"
    },
    {
      "constant": true,
      "inputs": [],
      "name": "getLatestMintSnapshotForCycle",
      "outputs": [
        {
          "internalType": "uint256",
          "name": "cycle",
          "type": "uint256"
        },
        {
          "internalType": "uint256",
          "name": "era",
          "type": "uint256"
        },
        {
          "internalType": "uint256",
          "name": "inflationRate",
          "type": "uint256"
        },
        {
          "internalType": "uint256",
          "name": "mintedAmount",
          "type": "uint256"
        },
        {
          "internalType": "uint256",
          "name": "mintSpeed",
          "type": "uint256"
        },
        {
          "internalType": "uint256",
          "name": "newTotalSupply",
          "type": "uint256"
        },
        {
          "internalType": "address",
          "name": "minter",
          "type": "address"
        },
        {
          "internalType": "uint256",
          "name": "blockNumber",
          "type": "uint256"
        }
      ],
      "payable": false,
      "stateMutability": "view",
      "type": "function"
    },
    {
      "constant": true,
      "inputs": [],
      "name": "getCurrentMintSpeed",
      "outputs": [
        {
          "internalType": "uint256",
          "name": "",
          "type": "uint256"
        }
      ],
      "payable": false,
      "stateMutability": "view",
      "type": "function"
    },
    {
      "constant": true,
      "inputs": [],
      "name": "getTotalSighBurnt",
      "outputs": [
        {
          "internalType": "uint256",
          "name": "",
          "type": "uint256"
        }
      ],
      "payable": false,
      "stateMutability": "view",
      "type": "function"
    },
    {
      "constant": true,
      "inputs": [],
      "name": "getSpeedController",
      "outputs": [
        {
          "internalType": "address",
          "name": "",
          "type": "address"
        }
      ],
      "payable": false,
      "stateMutability": "view",
      "type": "function"
    },
    {
      "constant": true,
      "inputs": [],
      "name": "getTreasury",
      "outputs": [
        {
          "internalType": "address",
          "name": "",
          "type": "address"
        }
      ],
      "payable": false,
      "stateMutability": "view",
      "type": "function"
    }
  ],
  "bytecode": "0x6080604052681b1ae4d6e2ef500000606d5560646072556073805460ff191690553480156200002d57600080fd5b506040518060800160405280605d8152602001620021e4605d9139604051806040016040528060048152602001630a6928e960e31b815250601282606890805190602001906200007f92919062000450565b5081516200009590606990602085019062000450565b50606a805460ff191660ff9290921691909117905550620000b79050620002de565b606a8054610100600160a81b0319166101006001600160a01b0393841681029190911791829055620000f8929104166a0422ca8b0a00a425000000620002e3565b62000102620004d5565b60405180610100016040528060705481526020016071548152602001600081526020016a0422ca8b0a00a4250000008152602001600081526020016200014d620003e860201b60201c565b81523360208083019190915243604092830152606f805460018101825560009190915283517f39f2babe526038520877fc7c33d81accf578af4a06c5fa6b0d038cae36e12711600890920291820155908301517f39f2babe526038520877fc7c33d81accf578af4a06c5fa6b0d038cae36e12712820155908201517f39f2babe526038520877fc7c33d81accf578af4a06c5fa6b0d038cae36e1271382015560608201517f39f2babe526038520877fc7c33d81accf578af4a06c5fa6b0d038cae36e1271482015560808201517f39f2babe526038520877fc7c33d81accf578af4a06c5fa6b0d038cae36e1271582015560a08201517f39f2babe526038520877fc7c33d81accf578af4a06c5fa6b0d038cae36e1271682015560c08201517f39f2babe526038520877fc7c33d81accf578af4a06c5fa6b0d038cae36e12717820180546001600160a01b0319166001600160a01b0390921691909117905560e0909101517f39f2babe526038520877fc7c33d81accf578af4a06c5fa6b0d038cae36e12718909101555062000540565b335b90565b6001600160a01b0382166200033f576040805162461bcd60e51b815260206004820152601f60248201527f45524332303a206d696e7420746f20746865207a65726f206164647265737300604482015290519081900360640190fd5b6200035b81603554620003ee60201b62000ec41790919060201c565b6035556001600160a01b0382166000908152603360209081526040909120546200039091839062000ec4620003ee821b17901c565b6001600160a01b03831660008181526033602090815260408083209490945583518581529351929391927fddf252ad1be2c89b69c2b068fc378daa952ba7f163c4a11628f55a4df523b3ef9281900390910190a35050565b60355490565b60008282018381101562000449576040805162461bcd60e51b815260206004820152601b60248201527f536166654d6174683a206164646974696f6e206f766572666c6f770000000000604482015290519081900360640190fd5b9392505050565b828054600181600116156101000203166002900490600052602060002090601f016020900481019282601f106200049357805160ff1916838001178555620004c3565b82800160010185558215620004c3579182015b82811115620004c3578251825591602001919060010190620004a6565b50620004d192915062000523565b5090565b60405180610100016040528060008152602001600081526020016000815260200160008152602001600081526020016000815260200160006001600160a01b03168152602001600081525090565b620002e091905b80821115620004d157600081556001016200052a565b611c9480620005506000396000f3fe608060405234801561001057600080fd5b50600436106101a95760003560e01c80635c26a643116100f9578063be26ed7f11610097578063dd62ed3e11610071578063dd62ed3e146104ea578063f257c08014610518578063fa7a11e214610520578063fc399a0d14610528576101a9565b8063be26ed7f146104d2578063d250b6cb146104da578063dae0e05c146104e2576101a9565b8063798907c1116100d3578063798907c11461046a57806395d89b4114610472578063a457c2d71461047a578063a9059cbb146104a6576101a9565b80635c26a6431461040e5780635f103dc81461043c57806370a0823114610444576101a9565b80632d5a9db011610166578063395093511161014057806339509351146103995780633b19e84a146103c557806342966c68146103e95780634f9d3fd514610406576101a9565b80632d5a9db014610315578063313ce5671461037357806333c42fe014610391576101a9565b806306fdde03146101ae578063095ea7b31461022b5780631384b2191461026b57806318160ddd146102855780631a6947011461028d57806323b872dd146102df575b600080fd5b6101b6610530565b6040805160208082528351818301528351919283929083019185019080838360005b838110156101f05781810151838201526020016101d8565b50505050905090810190601f16801561021d5780820380516001836020036101000a031916815260200191505b509250505060405180910390f35b6102576004803603604081101561024157600080fd5b506001600160a01b0381351690602001356105c7565b604080519115158252519081900360200190f35b6102736105e4565b60408051918252519081900360200190f35b61027361060e565b610295610614565b604080519889526020890197909752878701959095526060870193909352608086019190915260a08501526001600160a01b031660c084015260e083015251908190036101000190f35b610257600480360360608110156102f557600080fd5b506001600160a01b0381358116916020810135909116906040013561062f565b6103326004803603602081101561032b57600080fd5b50356106bc565b60408051978852602088019690965286860194909452606086019290925260808501526001600160a01b031660a084015260c0830152519081900360e00190f35b61037b6107cc565b6040805160ff9092168252519081900360200190f35b6102736107d5565b610257600480360360408110156103af57600080fd5b506001600160a01b0381351690602001356107da565b6103cd61082e565b604080516001600160a01b039092168252519081900360200190f35b610257600480360360208110156103ff57600080fd5b503561083d565b6103cd610924565b6102576004803603604081101561042457600080fd5b506001600160a01b0381358116916020013516610933565b610273610ad0565b6102736004803603602081101561045a57600080fd5b50356001600160a01b0316610ad5565b610257610af0565b6101b6610b17565b6102576004803603604081101561049057600080fd5b506001600160a01b038135169060200135610b78565b610257600480360360408110156104bc57600080fd5b506001600160a01b038135169060200135610be6565b610273610bfa565b610273610c00565b610273610c06565b6102736004803603604081101561050057600080fd5b506001600160a01b0381358116916020013516610c69565b610273610c94565b610273610c9a565b610257610cf7565b60688054604080516020601f60026000196101006001881615020190951694909404938401819004810282018101909252828152606093909290918301828280156105bc5780601f10610591576101008083540402835291602001916105bc565b820191906000526020600020905b81548152906001019060200180831161059f57829003601f168201915b505050505090505b90565b60006105db6105d4610d16565b8484610d1a565b50600192915050565b6000604d60705411806105fa575060735460ff16155b15610607575060006105c4565b5060725490565b60355490565b606f8054600091829182918291829182918291829190819081fe5b600061063c848484610e06565b6106b284610648610d16565b6106ad85604051806060016040528060288152602001611b7d602891396001600160a01b038a16600090815260346020526040812090610686610d16565b6001600160a01b03168152602081019190915260400160002054919063ffffffff610e2d16565b610d1a565b5060019392505050565b6000806000806000806000606f88815481106106d457fe5b906000526020600020906008020160010154606f89815481106106f357fe5b906000526020600020906008020160020154606f8a8154811061071257fe5b906000526020600020906008020160030154606f8b8154811061073157fe5b906000526020600020906008020160040154606f8c8154811061075057fe5b906000526020600020906008020160050154606f8d8154811061076f57fe5b906000526020600020906008020160060160009054906101000a90046001600160a01b0316606f8e815481106107a157fe5b9060005260206000209060080201600701549650965096509650965096509650919395979092949650565b606a5460ff1690565b604d81565b60006105db6107e7610d16565b846106ad85603460006107f8610d16565b6001600160a01b03908116825260208083019390935260409182016000908120918c16815292529020549063ffffffff610ec416565b606b546001600160a01b031690565b606b546000906001600160a01b031633146108895760405162461bcd60e51b8152600401808060200182810382526022815260200180611b346022913960400191505060405180910390fd5b606b5461089f906001600160a01b031683610f25565b60006108c6606e54846040518060600160405280603a8152602001611afa603a9139611021565b606e81905590507fa97f27f366c18c45537a14af9d132390cf44128f0dadbf4aef7f020b1218cd5583826108f861060e565b60408051938452602084019290925282820152436060830152519081900360800190a150600192915050565b606c546001600160a01b031690565b606a5460009061010090046001600160a01b031661094f610d16565b6001600160a01b0316146109945760405162461bcd60e51b815260040180806020018281038252602c815260200180611ba5602c913960400191505060405180910390fd5b6001600160a01b0383166109d95760405162461bcd60e51b8152600401808060200182810382526024815260200180611a8e6024913960400191505060405180910390fd5b6001600160a01b038216610a34576040805162461bcd60e51b815260206004820152601c60248201527f4e6f7420612076616c6964205472656173757279206164647265737300000000604482015290519081900360640190fd5b606c80546001600160a01b038086166001600160a01b031992831617909255606b805492851692909116919091179055610a6c61107f565b606c54606b54604080516001600160a01b039384168152919092166020820152438183015290517f8eae0c2f651a44c8e5f3b32376232a187ebb06d44450a4c9303f9ccb90a4143a9181900360600190a16073805460ff1916600117905592915050565b600481565b6001600160a01b031660009081526033602052604090205490565b6000610afa61124d565b15610b1157610b076112c6565b50600190506105c4565b50600090565b60698054604080516020601f60026000196101006001881615020190951694909404938401819004810282018101909252828152606093909290918301828280156105bc5780601f10610591576101008083540402835291602001916105bc565b60006105db610b85610d16565b846106ad85604051806060016040528060258152602001611c3b6025913960346000610baf610d16565b6001600160a01b03908116825260208083019390935260409182016000908120918d1681529252902054919063ffffffff610e2d16565b60006105db610bf3610d16565b8484610e06565b60705490565b60715490565b6000604d6070541180610c1c575060735460ff16155b15610c29575060006105c4565b6000610c3361060e565b90506000610c4c607254836115bc90919063ffffffff16565b90506000610c6182600463ffffffff6115bc16565b935050505090565b6001600160a01b03918216600090815260346020908152604080832093909416825291909152205490565b606e5490565b6000604d6070541180610cb0575060735460ff16155b15610cbe57506000196105c4565b6000610ccc436074546115fe565b905060048110610ce05760009150506105c4565b610cf160048263ffffffff61162c16565b91505090565b6000604d6070541115610d0c575060006105c4565b5060735460ff1690565b3390565b6001600160a01b038316610d5f5760405162461bcd60e51b8152600401808060200182810382526024815260200180611c176024913960400191505060405180910390fd5b6001600160a01b038216610da45760405162461bcd60e51b8152600401808060200182810382526022815260200180611ab26022913960400191505060405180910390fd5b6001600160a01b03808416600081815260346020908152604080832094871680845294825291829020859055815185815291517f8c5be1e5ebec7d5bd14f71427d1e84f3dd0314c0f7b2291e5b200ac8c7c3b9259281900390910190a3505050565b610e0e61124d565b15610e1d57610e1b6112c6565b505b610e2883838361166e565b505050565b60008184841115610ebc5760405162461bcd60e51b81526004018080602001828103825283818151815260200191508051906020019080838360005b83811015610e81578181015183820152602001610e69565b50505050905090810190601f168015610eae5780820380516001836020036101000a031916815260200191505b509250505060405180910390fd5b505050900390565b600082820183811015610f1e576040805162461bcd60e51b815260206004820152601b60248201527f536166654d6174683a206164646974696f6e206f766572666c6f770000000000604482015290519081900360640190fd5b9392505050565b6001600160a01b038216610f6a5760405162461bcd60e51b8152600401808060200182810382526021815260200180611bd16021913960400191505060405180910390fd5b610fad81604051806060016040528060228152602001611a6c602291396001600160a01b038516600090815260336020526040902054919063ffffffff610e2d16565b6001600160a01b038316600090815260336020526040902055603554610fd9908263ffffffff61162c16565b6035556040805182815290516000916001600160a01b038516917fddf252ad1be2c89b69c2b068fc378daa952ba7f163c4a11628f55a4df523b3ef9181900360200190a35050565b600083830182858210156110765760405162461bcd60e51b8152602060048201818152835160248401528351909283926044909101919085019080838360008315610e81578181015183820152602001610e69565b50949350505050565b60408051606080820183526001808352600660208085018290526064948601859052607592909255607655607792909255825180820184526007808252600d82850181905260c8928601839052607891909155607955607a5582518082018452600e8082526014828501819052610190928601839052607b91909155607c55607d55825180820184526015808252601b828501819052610320928601839052607e91909155607f5560805582518082018452601c80825260228285018190526106409286018390526081919091556082556083558251808201845260238082526029828501819052610c8092860183905260849190915560855560865582518082018452602a80825260308285018190526119009286018390526087919091556088556089558251808201845260318082526037828501819052613200928601839052608a91909155608b55608c55825180820184526038808252603e828501819052616400928601839052608d91909155608e55608f5582518082018452603f808252604582850181905261c800928601839052609091909155609155609255825190810183526046808252604d9282018390526201900091909301819052609392909255609455609555565b60735460009060ff1680156112655750604d60705411155b801561127c5750600461127a436074546115fe565b115b156112be5760006112b16070546001604051806040016040528060088152602001674f766572666c6f7760c01b815250611021565b60705550600190506105c4565b5060006105c4565b60006112d06117cc565b607154101561137b5761131c60715460016040518060400160405280601d81526020017f4e455720455241203a204164646974696f6e2067617665206572726f72000000815250611021565b6071819055607590600b811061132e57fe5b6003020160020154607255607154604080519182524360208301524282820152517f9d472bcf372fce01fd875c3296e8e5ae0a08bfca42dedac19e202271ce8f39c5916060908290030190a15b600061138561060e565b9050600061139e607254836115bc90919063ffffffff16565b905060006113b382600463ffffffff6115bc16565b90506113bd6119fa565b6040518061010001604052806070548152602001607154815260200160725481526020018481526020018381526020016113f561060e565b815233602082015243604090910152606d5490915083111561142c57606d5461142590849063ffffffff61162c16565b9250611432565b6000606d555b61143e33606d546118a3565b606c54611454906001600160a01b0316846118a3565b61145c61060e565b8160a0018181525050606f8190806001815401808255809150509060018203906000526020600020906008020160009091929091909150600082015181600001556020820151816001015560408201518160020155606082015181600301556080820151816004015560a0820151816005015560c08201518160060160006101000a8154816001600160a01b0302191690836001600160a01b0316021790555060e08201518160070155505050436074819055507fd1199909fe7e3430ff4a50acc1aec543fc4714b8b54f90b45d6914344835f94e8160c00151826000015183602001518460400151856060015186608001518760a001518860e0015160405180896001600160a01b03166001600160a01b031681526020018881526020018781526020018681526020018581526020018481526020018381526020018281526020019850505050505050505060405180910390a1600194505050505090565b6000610f1e83836040518060400160405280601a81526020017f536166654d6174683a206469766973696f6e206279207a65726f000000000000815250611995565b6000806116248484604051806060016040528060278152602001611b5660279139610e2d565b949350505050565b6000610f1e83836040518060400160405280601e81526020017f536166654d6174683a207375627472616374696f6e206f766572666c6f770000815250610e2d565b6001600160a01b0383166116b35760405162461bcd60e51b8152600401808060200182810382526025815260200180611bf26025913960400191505060405180910390fd5b6001600160a01b0382166116f85760405162461bcd60e51b8152600401808060200182810382526023815260200180611a496023913960400191505060405180910390fd5b61173b81604051806060016040528060268152602001611ad4602691396001600160a01b038616600090815260336020526040902054919063ffffffff610e2d16565b6001600160a01b038085166000908152603360205260408082209390935590841681522054611770908263ffffffff610ec416565b6001600160a01b0380841660008181526033602090815260409182902094909455805185815290519193928716927fddf252ad1be2c89b69c2b068fc378daa952ba7f163c4a11628f55a4df523b3ef92918290030190a3505050565b60006007607054111580156117df575060015b156117ec575060006105c4565b600061183160705460076040518060400160405280601b81526020017f4552413a205375627472616374696f6e2067617665206572726f720000000000815250610e2d565b905060006118768260076040518060400160405280601981526020017f455241203a204469766973696f6e2067617665206572726f7200000000000000815250611995565b90506009811161189a5761189181600163ffffffff610ec416565b925050506105c4565b600b9250505090565b6001600160a01b0382166118fe576040805162461bcd60e51b815260206004820152601f60248201527f45524332303a206d696e7420746f20746865207a65726f206164647265737300604482015290519081900360640190fd5b603554611911908263ffffffff610ec416565b6035556001600160a01b03821660009081526033602052604090205461193d908263ffffffff610ec416565b6001600160a01b03831660008181526033602090815260408083209490945583518581529351929391927fddf252ad1be2c89b69c2b068fc378daa952ba7f163c4a11628f55a4df523b3ef9281900390910190a35050565b600081836119e45760405162461bcd60e51b8152602060048201818152835160248401528351909283926044909101919085019080838360008315610e81578181015183820152602001610e69565b5060008385816119f057fe5b0495945050505050565b60405180610100016040528060008152602001600081526020016000815260200160008152602001600081526020016000815260200160006001600160a01b0316815260200160008152509056fe45524332303a207472616e7366657220746f20746865207a65726f206164647265737345524332303a206275726e20616d6f756e7420657863656564732062616c616e63654e6f7420612076616c696420537065656420436f6e74726f6c6c6572206164647265737345524332303a20617070726f766520746f20746865207a65726f206164647265737345524332303a207472616e7366657220616d6f756e7420657863656564732062616c616e63656275726e203a20546f74616c204e756d626572206f6620746f6b656e73206275726e742067617665206164646974696f6e206f766572666c6f774f6e6c792054726561737572792063616e206275726e205349474820546f6b656e73476574456c6170736564426c6f636b733a205375627472616374696f6e20556e646572666c6f7745524332303a207472616e7366657220616d6f756e74206578636565647320616c6c6f77616e63654d696e696e672063616e206f6e6c7920626520696e697469616c697a656420627920746865206f776e65722e45524332303a206275726e2066726f6d20746865207a65726f206164647265737345524332303a207472616e736665722066726f6d20746865207a65726f206164647265737345524332303a20617070726f76652066726f6d20746865207a65726f206164647265737345524332303a2064656372656173656420616c6c6f77616e63652062656c6f77207a65726fa265627a7a7231582026734ca28aa46fee32a3c67df656423a12066f441b41a1ed0cda5a0d753f43e164736f6c634300051000325349474820496e737472756d656e74203a20412066726565206469737472696275746f72206f662066757475726520657870656374656420616363756d756c617465642076616c7565206f662066696e616e6369616c20617373657473",
  "source": "pragma solidity ^0.5.16;\n\nimport \"openzeppelin-solidity/contracts/token/ERC20/ERC20.sol\"; \nimport \"openzeppelin-solidity/contracts/token/ERC20/ERC20Detailed.sol\"; \n\nimport \"openzeppelin-solidity/contracts/utils/Address.sol\"; \nimport \"openzeppelin-solidity/contracts/math/SafeMath.sol\"; \n\ncontract SIGH is ERC20, ERC20Detailed('SIGH Instrument : A free distributor of future expected accumulated value of financial assets','SIGH',uint8(18) ) {\n\n    using SafeMath for uint256;    // Time based calculations\n    using Address for address;\n\n    address private _owner;\n    address private treasury; \n    address private SpeedController;\n\n    uint256 private constant INITIAL_SUPPLY = 5 * 10**6 * 10**18; // 5 Million (with 18 decimals)\n    uint256 private prize_amount = 500 * 10**18;\n\n    uint256 private totalAmountBurnt;\n\n    struct mintSnapshot {\n        uint cycle;\n        uint era;\n        uint inflationRate;\n        uint mintedAmount;\n        uint mintSpeed;\n        uint newTotalSupply;\n        address minter;\n        uint blockNumber;\n    }\n\n    mintSnapshot[] private mintSnapshots;\n\n    uint256 public constant CYCLE_BLOCKS = 4;  // 24*60*60 (i.e seconds in 1 day )\n    uint256 public constant FINAL_CYCLE = 77; // 10 years (3650 days) + 60 days\n\n    uint256 private Current_Cycle; \n    uint256 private Current_Era;\n    uint256 private currentDivisibilityFactor = 100;\n\n    bool private mintingActivated = false;\n    uint256 private previousMintBlock;\n\n    struct Era {\n        uint256 startCycle;\n        uint256 endCycle;\n        uint256 divisibilityFactor;\n    }\n\n    Era[11] private _eras;\n\n    event NewEra(uint newEra, uint blockNumber, uint timeStamp );\n\n    event MintingInitialized(address speedController, address treasury, uint256 blockNumber);\n    event SIGHMinted( address minter, uint256 cycle, uint256 Era, uint inflationRate, uint256 amountMinted, uint mintSpeed, uint256 current_supply, uint256 block_number);\n    event SIGHBurned( uint256 burntAmount, uint256 totalBurnedAmount, uint256 currentSupply, uint blockNumber);\n\n    // constructing  \n    constructor () public {\n        _owner = _msgSender();\n        _mint(_owner,INITIAL_SUPPLY);\n        mintSnapshot  memory currentMintSnapshot = mintSnapshot({ cycle:Current_Cycle, era:Current_Era, inflationRate: uint(0), mintedAmount:INITIAL_SUPPLY, mintSpeed:uint(0), newTotalSupply:totalSupply(), minter: msg.sender, blockNumber: block.number });\n        mintSnapshots.push(currentMintSnapshot);                                                    // MINT SNAPSHOT ADDED TO THE ARRAY\n    }\n\n    // ################################################\n    // #######   FUNCTIONS TO INITIATE MINTING  #######\n    // ################################################\n\n    function initMinting(address newSpeedController, address _treasury) public returns (bool) {\n        require(_msgSender() == _owner,\"Mining can only be initialized by the owner.\" );\n        require(newSpeedController != address(0), \"Not a valid Speed Controller address\");\n        require(_treasury != address(0), \"Not a valid Treasury address\");\n        // require(!mintingActivated, \"Minting can only be initialized once\" );\n\n        SpeedController = newSpeedController;\n        treasury = _treasury;\n        _initEras();\n        \n        emit MintingInitialized(SpeedController, treasury, block.number );\n        mintingActivated = true;\n    }\n\n    function _initEras() private {\n        _eras[0] = Era(1, 6, 100 );        // 96 days\n        _eras[1] = Era(7, 13, 200 );       // 1 year\n        _eras[2] = Era(14, 20, 400 );      // 1 year\n        _eras[3] = Era(21, 27, 800 );       // 1 year\n        _eras[4] = Era(28, 34, 1600 );     // 1 year\n        _eras[5] = Era(35, 41, 3200 );      // 1 year   \n        _eras[6] = Era(42, 48, 6400 );       // 1 year\n        _eras[7] = Era(49, 55, 12800 );        // 1 year\n        _eras[8] = Era(56, 62, 25600 );        // 1 year\n        _eras[9] = Era(63, 69, 51200 );        // 1 year\n        _eras[10] = Era(70, 77, 102400 );       // 1 year\n    }\n\n    // function _initEras() private {\n    //     _eras[0] = Era(1, 96, 100 );        // 96 days\n    //     _eras[1] = Era(97, 462, 200 );       // 1 year\n    //     _eras[2] = Era(463, 828, 400 );      // 1 year\n    //     _eras[3] = Era(829, 1194, 800 );       // 1 year\n    //     _eras[4] = Era(1195, 1560, 1600 );     // 1 year\n    //     _eras[5] = Era(1561, 1926, 3200 );      // 1 year   \n    //     _eras[6] = Era(1927, 2292, 6400 );       // 1 year\n    //     _eras[7] = Era(2293, 2658, 12800 );        // 1 year\n    //     _eras[8] = Era(2659, 3024, 25600 );        // 1 year\n    //     _eras[9] = Era(3025, 3390, 51200 );        // 1 year\n    //     _eras[10] = Era(3391, 3756, 102400 );       // 1 year\n    // }\n\n\n\n    // ############################################################\n    // ############   OVER-LOADING TRANSFER FUNCTON    ############\n    // ############################################################\n\n    function _transfer(address sender, address recipient, uint256 amount) internal {\n        if (isMintingPossible()) {\n             mintNewCoins();\n        }\n        super._transfer(sender, recipient, amount);\n    }\n\n    // ################################################\n    // ############   MINT FUNCTONS    ############\n    // ################################################\n\n    function isMintingPossible() internal returns (bool) {\n        if ( mintingActivated && Current_Cycle <= 77 && _getElapsedBlocks(block.number, previousMintBlock) > CYCLE_BLOCKS ) {\n            uint newCycle = add(Current_Cycle,uint256(1),'Overflow');\n            Current_Cycle = newCycle;                                                    // CURRENT CYCLE IS UPDATED \n            // emit NewCycle(prevCycle, Current_Cycle, block.number, now);\n            return true;\n        }\n        else {\n            return false;\n        }\n    }\n\n    function mintCoins() external returns (bool) {\n        if (isMintingPossible() ) {\n            mintNewCoins();\n            return true;\n        }\n        return false;\n    }\n\n    function mintNewCoins() internal returns (bool) {\n\n        if ( Current_Era < _CalculateCurrentEra() ) {\n            Current_Era = add(Current_Era,uint256(1),\"NEW ERA : Addition gave error\");\n            currentDivisibilityFactor = _eras[Current_Era].divisibilityFactor;\n            emit NewEra(Current_Era, block.number, now);\n        }\n\n        uint currentSupply = totalSupply();\n        uint256 newCoins = currentSupply.div(currentDivisibilityFactor);                // Calculate the number of new tokens to be minted.\n        uint newmintSpeed = newCoins.div(CYCLE_BLOCKS);                                         // mint speed, i.e tokens minted per block rate for this cycle\n        mintSnapshot  memory currentMintSnapshot = mintSnapshot({ cycle:Current_Cycle, era:Current_Era, inflationRate: currentDivisibilityFactor, mintedAmount:newCoins, mintSpeed:newmintSpeed, newTotalSupply:totalSupply(), minter: msg.sender, blockNumber: block.number });\n\n        if (newCoins > prize_amount) {\n            newCoins = newCoins.sub(prize_amount);\n        }  \n        else {\n            prize_amount = uint(0);\n        }\n\n        _mint( msg.sender, prize_amount );                                                          // PRIZE AMOUNT AWARDED TO THE MINTER\n        _mint( SpeedController, newCoins );                                                          // NEWLY MINTED SIGH TRANSFERRED TO SIGH SPEED CONTROLLER\n        \n        currentMintSnapshot.newTotalSupply = totalSupply();\n        mintSnapshots.push(currentMintSnapshot);                                                    // MINT SNAPSHOT ADDED TO THE ARRAY\n\n        previousMintBlock = block.number;        \n\n        emit SIGHMinted(currentMintSnapshot.minter, currentMintSnapshot.cycle, currentMintSnapshot.era, currentMintSnapshot.inflationRate, currentMintSnapshot.mintedAmount, currentMintSnapshot.mintSpeed, currentMintSnapshot.newTotalSupply,currentMintSnapshot.blockNumber );\n        return true;        \n    }\n\n    function _getElapsedBlocks(uint256 currentBlock , uint256 prevBlock) internal pure returns(uint256) {\n        uint deltaBlocks = sub(currentBlock,prevBlock,\"GetElapsedBlocks: Subtraction Underflow\");\n        return deltaBlocks;\n    }\n\n    function _CalculateCurrentEra() internal view returns (uint256) {\n\n        if (Current_Cycle <= 7 && Current_Cycle >= 0 ) {\n            return uint256(0);\n        }\n\n        uint256 C_Era_sub = sub(Current_Cycle,uint256(7),'ERA: Subtraction gave error');\n        uint256 _newEra = div(C_Era_sub,uint256(7),\"ERA : Division gave error\");\n\n        if (_newEra <= 9 ) {\n            return uint256(_newEra.add(1) );\n        }\n\n        return uint256(11);\n    }\n\n    // ################################################\n    // ############   BURN FUNCTON    #################\n    // ################################################\n    \n    function burn(uint amount) external returns (bool) {\n        require( msg.sender == treasury,\"Only Treasury can burn SIGH Tokens\");\n        _burn(treasury,amount) ;\n        uint total_amount_burnt = add(totalAmountBurnt , amount, 'burn : Total Number of tokens burnt gave addition overflow');\n        totalAmountBurnt = total_amount_burnt;\n        emit SIGHBurned( amount, totalAmountBurnt, totalSupply(), block.number );\n        return true;\n    }    \n\n    // ################################################\n    // ###########   MINT FUNCTONS (VIEW)   ###########\n    // ################################################\n\n    function isMintingActivated() external view returns(bool) {\n        if (Current_Cycle > 77) {\n            return false;\n        }\n        return mintingActivated;\n    }\n\n   function getCurrentEra() public view returns (uint256) {\n        return Current_Era;\n    }\n\n   function getCurrentCycle() public view returns (uint256) {\n        return Current_Cycle;\n    }\n    \n    function getCurrentInflationRate() external view returns (uint256) {\n        if (Current_Cycle > 77 || !mintingActivated) {\n            return uint(0);\n        }\n        return currentDivisibilityFactor;\n    }\n    \n    function getBlocksRemainingToMint() external view returns (uint) {\n\n        if (Current_Cycle > 77 || !mintingActivated) {\n            return uint(-1);\n        }\n\n        uint deltaBlocks = _getElapsedBlocks(block.number, previousMintBlock);\n\n        if (deltaBlocks >= CYCLE_BLOCKS ) {\n            return uint(0);\n        }\n        return CYCLE_BLOCKS.sub(deltaBlocks);\n    }\n\n\n    function getMintSnapshotForCycle(uint cycleNumber) public view returns (uint era,uint inflationRate, uint mintedAmount,uint mintSpeed, uint newTotalSupply,address minter, uint blockNumber ) {\n        return ( mintSnapshots[cycleNumber].era,\n                 mintSnapshots[cycleNumber].inflationRate,\n                 mintSnapshots[cycleNumber].mintedAmount,\n                 mintSnapshots[cycleNumber].mintSpeed,\n                 mintSnapshots[cycleNumber].newTotalSupply,\n                 mintSnapshots[cycleNumber].minter,\n                 mintSnapshots[cycleNumber].blockNumber\n                 );\n    }\n    \n    function getLatestMintSnapshotForCycle() public view returns (uint cycle, uint era,uint inflationRate, uint mintedAmount,uint mintSpeed, uint newTotalSupply,address minter, uint blockNumber ) {\n        uint len = mintSnapshots.length;\n        return ( len, \n                 mintSnapshots[len].era,\n                 mintSnapshots[len].inflationRate,\n                 mintSnapshots[len].mintedAmount,\n                 mintSnapshots[len].mintSpeed,\n                 mintSnapshots[len].newTotalSupply,\n                 mintSnapshots[len].minter,\n                 mintSnapshots[len].blockNumber\n                 );\n    }\n    \n    \n    function getCurrentMintSpeed() external view returns (uint) {\n        if (Current_Cycle > 77 || !mintingActivated) {\n            return uint(0);\n        }\n        uint currentSupply = totalSupply();\n        uint256 newCoins = currentSupply.div(currentDivisibilityFactor);                        // Calculate the number of new tokens to be minted.\n        uint newmintSpeed = newCoins.div(CYCLE_BLOCKS);                                         // mint speed, i.e tokens minted per block rate for this cycle\n        return newmintSpeed;\n    }\n\n    function getTotalSighBurnt() external view returns (uint) {\n        return totalAmountBurnt;\n    }\n\n   function getSpeedController() external view returns (address) {\n        return SpeedController;\n    }\n    \n   function getTreasury() external view returns (address) {\n        return treasury;\n    }\n    \n    \n    // ##################################################################\n    // ###########   nternal helper functions for safe math   ###########\n    // ##################################################################\n\n    function add(uint a, uint b, string memory errorMessage) internal pure returns (uint) {\n        uint c = a + b;\n        require(c >= a, errorMessage);\n        return c;\n    }\n\n    function sub(uint a, uint b, string memory errorMessage) internal pure returns (uint) {\n        require(b <= a, errorMessage);\n        uint c = a - b;\n        return c;\n    }\n\n    function mul(uint a, uint b, string memory errorMessage) internal pure returns (uint) {\n        if (a == 0) {\n        return 0;\n        }\n        uint c = a * b;\n        require(c / a == b, errorMessage);\n        return c;\n    }\n\n    function min(uint a, uint b) internal pure returns (uint) {\n        if (a <= b) {\n        return a;\n        } else {\n        return b;\n        }\n    }    \n\n    function div(uint256 a, uint256 b) internal pure returns (uint256) {\n        return div(a, b, \"SafeMath: division by zero\");\n    }\n\n    function div(uint256 a, uint256 b, string memory errorMessage) internal pure returns (uint256) {\n        // Solidity only automatically asserts when dividing by 0\n        require(b > 0, errorMessage);\n        uint256 c = a / b;\n        // assert(a == b * c + a % b); // There is no case in which this doesn't hold\n\n        return c;\n    }\n\n}\n\n\n\n\n\n\n\n\n\n",
  "sourcePath": "/Users/apple/Desktop/GITCOIN/Sigh_Finance/SighFinanceContracts/contracts/SIGHFinanceContracts/SIGH_Instrument/Sigh.sol",
  "compiler": {
    "name": "solc",
    "version": "0.5.16+commit.9c3226ce.Emscripten.clang"
  },
  "schemaVersion": "3.2.4",
  "updatedAt": "2020-11-12T07:48:38.890Z",
  "devdoc": {
    "methods": {
      "allowance(address,address)": {
        "details": "See {IERC20-allowance}."
      },
      "approve(address,uint256)": {
        "details": "See {IERC20-approve}.     * Requirements:     * - `spender` cannot be the zero address."
      },
      "balanceOf(address)": {
        "details": "See {IERC20-balanceOf}."
      },
      "decimals()": {
        "details": "Returns the number of decimals used to get its user representation. For example, if `decimals` equals `2`, a balance of `505` tokens should be displayed to a user as `5,05` (`505 / 10 ** 2`).     * Tokens usually opt for a value of 18, imitating the relationship between Ether and Wei.     * NOTE: This information is only used for _display_ purposes: it in no way affects any of the arithmetic of the contract, including {IERC20-balanceOf} and {IERC20-transfer}."
      },
      "decreaseAllowance(address,uint256)": {
        "details": "Atomically decreases the allowance granted to `spender` by the caller.     * This is an alternative to {approve} that can be used as a mitigation for problems described in {IERC20-approve}.     * Emits an {Approval} event indicating the updated allowance.     * Requirements:     * - `spender` cannot be the zero address. - `spender` must have allowance for the caller of at least `subtractedValue`."
      },
      "increaseAllowance(address,uint256)": {
        "details": "Atomically increases the allowance granted to `spender` by the caller.     * This is an alternative to {approve} that can be used as a mitigation for problems described in {IERC20-approve}.     * Emits an {Approval} event indicating the updated allowance.     * Requirements:     * - `spender` cannot be the zero address."
      },
      "name()": {
        "details": "Returns the name of the token."
      },
      "symbol()": {
        "details": "Returns the symbol of the token, usually a shorter version of the name."
      },
      "totalSupply()": {
        "details": "See {IERC20-totalSupply}."
      },
      "transfer(address,uint256)": {
        "details": "See {IERC20-transfer}.     * Requirements:     * - `recipient` cannot be the zero address. - the caller must have a balance of at least `amount`."
      },
      "transferFrom(address,address,uint256)": {
        "details": "See {IERC20-transferFrom}.     * Emits an {Approval} event indicating the updated allowance. This is not required by the EIP. See the note at the beginning of {ERC20};     * Requirements: - `sender` and `recipient` cannot be the zero address. - `sender` must have a balance of at least `amount`. - the caller must have allowance for `sender`'s tokens of at least `amount`."
      }
    }
  },
  "userdoc": {
    "methods": {}
  }
}