{
  "contractName": "SIGH",
  "abi": [
    {
      "inputs": [],
      "payable": false,
      "stateMutability": "nonpayable",
      "type": "constructor"
    },
    {
      "anonymous": false,
      "inputs": [
        {
          "indexed": true,
          "internalType": "address",
          "name": "owner",
          "type": "address"
        },
        {
          "indexed": true,
          "internalType": "address",
          "name": "spender",
          "type": "address"
        },
        {
          "indexed": false,
          "internalType": "uint256",
          "name": "value",
          "type": "uint256"
        }
      ],
      "name": "Approval",
      "type": "event"
    },
    {
      "anonymous": false,
      "inputs": [
        {
          "indexed": false,
          "internalType": "address",
          "name": "speedController",
          "type": "address"
        },
        {
          "indexed": false,
          "internalType": "address",
          "name": "treasury",
          "type": "address"
        },
        {
          "indexed": false,
          "internalType": "uint256",
          "name": "blockNumber",
          "type": "uint256"
        }
      ],
      "name": "MintingInitialized",
      "type": "event"
    },
    {
      "anonymous": false,
      "inputs": [
        {
          "indexed": false,
          "internalType": "uint256",
          "name": "newSchedule",
          "type": "uint256"
        },
        {
          "indexed": false,
          "internalType": "uint256",
          "name": "newDivisibilityFactor",
          "type": "uint256"
        },
        {
          "indexed": false,
          "internalType": "uint256",
          "name": "blockNumber",
          "type": "uint256"
        },
        {
          "indexed": false,
          "internalType": "uint256",
          "name": "timeStamp",
          "type": "uint256"
        }
      ],
      "name": "NewSchedule",
      "type": "event"
    },
    {
      "anonymous": false,
      "inputs": [
        {
          "indexed": false,
          "internalType": "uint256",
          "name": "burntAmount",
          "type": "uint256"
        },
        {
          "indexed": false,
          "internalType": "uint256",
          "name": "totalBurnedAmount",
          "type": "uint256"
        },
        {
          "indexed": false,
          "internalType": "uint256",
          "name": "currentSupply",
          "type": "uint256"
        },
        {
          "indexed": false,
          "internalType": "uint256",
          "name": "blockNumber",
          "type": "uint256"
        }
      ],
      "name": "SIGHBurned",
      "type": "event"
    },
    {
      "anonymous": false,
      "inputs": [
        {
          "indexed": false,
          "internalType": "address",
          "name": "minter",
          "type": "address"
        },
        {
          "indexed": false,
          "internalType": "uint256",
          "name": "cycle",
          "type": "uint256"
        },
        {
          "indexed": false,
          "internalType": "uint256",
          "name": "Schedule",
          "type": "uint256"
        },
        {
          "indexed": false,
          "internalType": "uint256",
          "name": "inflationRate",
          "type": "uint256"
        },
        {
          "indexed": false,
          "internalType": "uint256",
          "name": "amountMinted",
          "type": "uint256"
        },
        {
          "indexed": false,
          "internalType": "uint256",
          "name": "mintSpeed",
          "type": "uint256"
        },
        {
          "indexed": false,
          "internalType": "uint256",
          "name": "current_supply",
          "type": "uint256"
        },
        {
          "indexed": false,
          "internalType": "uint256",
          "name": "block_number",
          "type": "uint256"
        }
      ],
      "name": "SIGHMinted",
      "type": "event"
    },
    {
      "anonymous": false,
      "inputs": [
        {
          "indexed": true,
          "internalType": "address",
          "name": "from",
          "type": "address"
        },
        {
          "indexed": true,
          "internalType": "address",
          "name": "to",
          "type": "address"
        },
        {
          "indexed": false,
          "internalType": "uint256",
          "name": "value",
          "type": "uint256"
        }
      ],
      "name": "Transfer",
      "type": "event"
    },
    {
      "constant": true,
      "inputs": [],
      "name": "CYCLE_BLOCKS",
      "outputs": [
        {
          "internalType": "uint256",
          "name": "",
          "type": "uint256"
        }
      ],
      "payable": false,
      "stateMutability": "view",
      "type": "function"
    },
    {
      "constant": true,
      "inputs": [],
      "name": "FINAL_CYCLE",
      "outputs": [
        {
          "internalType": "uint256",
          "name": "",
          "type": "uint256"
        }
      ],
      "payable": false,
      "stateMutability": "view",
      "type": "function"
    },
    {
      "constant": true,
      "inputs": [
        {
          "internalType": "address",
          "name": "owner",
          "type": "address"
        },
        {
          "internalType": "address",
          "name": "spender",
          "type": "address"
        }
      ],
      "name": "allowance",
      "outputs": [
        {
          "internalType": "uint256",
          "name": "",
          "type": "uint256"
        }
      ],
      "payable": false,
      "stateMutability": "view",
      "type": "function"
    },
    {
      "constant": false,
      "inputs": [
        {
          "internalType": "address",
          "name": "spender",
          "type": "address"
        },
        {
          "internalType": "uint256",
          "name": "amount",
          "type": "uint256"
        }
      ],
      "name": "approve",
      "outputs": [
        {
          "internalType": "bool",
          "name": "",
          "type": "bool"
        }
      ],
      "payable": false,
      "stateMutability": "nonpayable",
      "type": "function"
    },
    {
      "constant": true,
      "inputs": [
        {
          "internalType": "address",
          "name": "account",
          "type": "address"
        }
      ],
      "name": "balanceOf",
      "outputs": [
        {
          "internalType": "uint256",
          "name": "",
          "type": "uint256"
        }
      ],
      "payable": false,
      "stateMutability": "view",
      "type": "function"
    },
    {
      "constant": true,
      "inputs": [],
      "name": "decimals",
      "outputs": [
        {
          "internalType": "uint8",
          "name": "",
          "type": "uint8"
        }
      ],
      "payable": false,
      "stateMutability": "view",
      "type": "function"
    },
    {
      "constant": false,
      "inputs": [
        {
          "internalType": "address",
          "name": "spender",
          "type": "address"
        },
        {
          "internalType": "uint256",
          "name": "subtractedValue",
          "type": "uint256"
        }
      ],
      "name": "decreaseAllowance",
      "outputs": [
        {
          "internalType": "bool",
          "name": "",
          "type": "bool"
        }
      ],
      "payable": false,
      "stateMutability": "nonpayable",
      "type": "function"
    },
    {
      "constant": false,
      "inputs": [
        {
          "internalType": "address",
          "name": "spender",
          "type": "address"
        },
        {
          "internalType": "uint256",
          "name": "addedValue",
          "type": "uint256"
        }
      ],
      "name": "increaseAllowance",
      "outputs": [
        {
          "internalType": "bool",
          "name": "",
          "type": "bool"
        }
      ],
      "payable": false,
      "stateMutability": "nonpayable",
      "type": "function"
    },
    {
      "constant": true,
      "inputs": [],
      "name": "name",
      "outputs": [
        {
          "internalType": "string",
          "name": "",
          "type": "string"
        }
      ],
      "payable": false,
      "stateMutability": "view",
      "type": "function"
    },
    {
      "constant": true,
      "inputs": [],
      "name": "symbol",
      "outputs": [
        {
          "internalType": "string",
          "name": "",
          "type": "string"
        }
      ],
      "payable": false,
      "stateMutability": "view",
      "type": "function"
    },
    {
      "constant": true,
      "inputs": [],
      "name": "totalSupply",
      "outputs": [
        {
          "internalType": "uint256",
          "name": "",
          "type": "uint256"
        }
      ],
      "payable": false,
      "stateMutability": "view",
      "type": "function"
    },
    {
      "constant": false,
      "inputs": [
        {
          "internalType": "address",
          "name": "recipient",
          "type": "address"
        },
        {
          "internalType": "uint256",
          "name": "amount",
          "type": "uint256"
        }
      ],
      "name": "transfer",
      "outputs": [
        {
          "internalType": "bool",
          "name": "",
          "type": "bool"
        }
      ],
      "payable": false,
      "stateMutability": "nonpayable",
      "type": "function"
    },
    {
      "constant": false,
      "inputs": [
        {
          "internalType": "address",
          "name": "sender",
          "type": "address"
        },
        {
          "internalType": "address",
          "name": "recipient",
          "type": "address"
        },
        {
          "internalType": "uint256",
          "name": "amount",
          "type": "uint256"
        }
      ],
      "name": "transferFrom",
      "outputs": [
        {
          "internalType": "bool",
          "name": "",
          "type": "bool"
        }
      ],
      "payable": false,
      "stateMutability": "nonpayable",
      "type": "function"
    },
    {
      "constant": false,
      "inputs": [
        {
          "internalType": "address",
          "name": "newSpeedController",
          "type": "address"
        },
        {
          "internalType": "address",
          "name": "_treasury",
          "type": "address"
        }
      ],
      "name": "initMinting",
      "outputs": [
        {
          "internalType": "bool",
          "name": "",
          "type": "bool"
        }
      ],
      "payable": false,
      "stateMutability": "nonpayable",
      "type": "function"
    },
    {
      "constant": false,
      "inputs": [],
      "name": "mintCoins",
      "outputs": [
        {
          "internalType": "bool",
          "name": "",
          "type": "bool"
        }
      ],
      "payable": false,
      "stateMutability": "nonpayable",
      "type": "function"
    },
    {
      "constant": false,
      "inputs": [
        {
          "internalType": "uint256",
          "name": "amount",
          "type": "uint256"
        }
      ],
      "name": "burn",
      "outputs": [
        {
          "internalType": "bool",
          "name": "",
          "type": "bool"
        }
      ],
      "payable": false,
      "stateMutability": "nonpayable",
      "type": "function"
    },
    {
      "constant": true,
      "inputs": [],
      "name": "isMintingActivated",
      "outputs": [
        {
          "internalType": "bool",
          "name": "",
          "type": "bool"
        }
      ],
      "payable": false,
      "stateMutability": "view",
      "type": "function"
    },
    {
      "constant": true,
      "inputs": [],
      "name": "getCurrentSchedule",
      "outputs": [
        {
          "internalType": "uint256",
          "name": "",
          "type": "uint256"
        }
      ],
      "payable": false,
      "stateMutability": "view",
      "type": "function"
    },
    {
      "constant": true,
      "inputs": [],
      "name": "getCurrentCycle",
      "outputs": [
        {
          "internalType": "uint256",
          "name": "",
          "type": "uint256"
        }
      ],
      "payable": false,
      "stateMutability": "view",
      "type": "function"
    },
    {
      "constant": true,
      "inputs": [],
      "name": "getCurrentInflationRate",
      "outputs": [
        {
          "internalType": "uint256",
          "name": "",
          "type": "uint256"
        }
      ],
      "payable": false,
      "stateMutability": "view",
      "type": "function"
    },
    {
      "constant": true,
      "inputs": [],
      "name": "getBlocksRemainingToMint",
      "outputs": [
        {
          "internalType": "uint256",
          "name": "",
          "type": "uint256"
        }
      ],
      "payable": false,
      "stateMutability": "view",
      "type": "function"
    },
    {
      "constant": true,
      "inputs": [
        {
          "internalType": "uint256",
          "name": "cycleNumber",
          "type": "uint256"
        }
      ],
      "name": "getMintSnapshotForCycle",
      "outputs": [
        {
          "internalType": "uint256",
          "name": "schedule",
          "type": "uint256"
        },
        {
          "internalType": "uint256",
          "name": "inflationRate",
          "type": "uint256"
        },
        {
          "internalType": "uint256",
          "name": "mintedAmount",
          "type": "uint256"
        },
        {
          "internalType": "uint256",
          "name": "mintSpeed",
          "type": "uint256"
        },
        {
          "internalType": "uint256",
          "name": "newTotalSupply",
          "type": "uint256"
        },
        {
          "internalType": "address",
          "name": "minter",
          "type": "address"
        },
        {
          "internalType": "uint256",
          "name": "blockNumber",
          "type": "uint256"
        }
      ],
      "payable": false,
      "stateMutability": "view",
      "type": "function"
    },
    {
      "constant": true,
      "inputs": [],
      "name": "getLatestMintSnapshot",
      "outputs": [
        {
          "internalType": "uint256",
          "name": "cycle",
          "type": "uint256"
        },
        {
          "internalType": "uint256",
          "name": "schedule",
          "type": "uint256"
        },
        {
          "internalType": "uint256",
          "name": "inflationRate",
          "type": "uint256"
        },
        {
          "internalType": "uint256",
          "name": "mintedAmount",
          "type": "uint256"
        },
        {
          "internalType": "uint256",
          "name": "mintSpeed",
          "type": "uint256"
        },
        {
          "internalType": "uint256",
          "name": "newTotalSupply",
          "type": "uint256"
        },
        {
          "internalType": "address",
          "name": "minter",
          "type": "address"
        },
        {
          "internalType": "uint256",
          "name": "blockNumber",
          "type": "uint256"
        }
      ],
      "payable": false,
      "stateMutability": "view",
      "type": "function"
    },
    {
      "constant": true,
      "inputs": [],
      "name": "getCurrentMintSpeed",
      "outputs": [
        {
          "internalType": "uint256",
          "name": "",
          "type": "uint256"
        }
      ],
      "payable": false,
      "stateMutability": "view",
      "type": "function"
    },
    {
      "constant": true,
      "inputs": [],
      "name": "getTotalSighBurnt",
      "outputs": [
        {
          "internalType": "uint256",
          "name": "",
          "type": "uint256"
        }
      ],
      "payable": false,
      "stateMutability": "view",
      "type": "function"
    },
    {
      "constant": true,
      "inputs": [],
      "name": "getSpeedController",
      "outputs": [
        {
          "internalType": "address",
          "name": "",
          "type": "address"
        }
      ],
      "payable": false,
      "stateMutability": "view",
      "type": "function"
    },
    {
      "constant": true,
      "inputs": [],
      "name": "getTreasury",
      "outputs": [
        {
          "internalType": "address",
          "name": "",
          "type": "address"
        }
      ],
      "payable": false,
      "stateMutability": "view",
      "type": "function"
    }
  ],
  "bytecode": "0x6080604052681b1ae4d6e2ef500000606d5560646072556073805460ff191690553480156200002d57600080fd5b506040518060800160405280605281526020016200224060529139604051806040016040528060048152602001630a6928e960e31b815250601282606890805190602001906200007f92919062000425565b5081516200009590606990602085019062000425565b50606a805460ff191660ff9290921691909117905550620000b79050620002b3565b606a8054610100600160a81b0319166101006001600160a01b0393841681029190911791829055620000f8929104166a0422ca8b0a00a425000000620002b8565b62000102620004aa565b60405180610100016040528060705481526020016071548152602001600081526020016a0422ca8b0a00a4250000008152602001600081526020016200014d620003bd60201b60201c565b8152602001336001600160a01b03168152602001438152509050606f8190806001815401808255809150509060018203906000526020600020906008020160009091929091909150600082015181600001556020820151816001015560408201518160020155606082015181600301556080820151816004015560a0820151816005015560c08201518160060160006101000a8154816001600160a01b0302191690836001600160a01b0316021790555060e082015181600701555050507fd1199909fe7e3430ff4a50acc1aec543fc4714b8b54f90b45d6914344835f94e8160c00151826000015183602001518460400151856060015186608001518760a001518860e0015160405180896001600160a01b03166001600160a01b031681526020018881526020018781526020018681526020018581526020018481526020018381526020018281526020019850505050505050505060405180910390a15062000515565b335b90565b6001600160a01b03821662000314576040805162461bcd60e51b815260206004820152601f60248201527f45524332303a206d696e7420746f20746865207a65726f206164647265737300604482015290519081900360640190fd5b6200033081603554620003c360201b620010231790919060201c565b6035556001600160a01b0382166000908152603360209081526040909120546200036591839062001023620003c3821b17901c565b6001600160a01b03831660008181526033602090815260408083209490945583518581529351929391927fddf252ad1be2c89b69c2b068fc378daa952ba7f163c4a11628f55a4df523b3ef9281900390910190a35050565b60355490565b6000828201838110156200041e576040805162461bcd60e51b815260206004820152601b60248201527f536166654d6174683a206164646974696f6e206f766572666c6f770000000000604482015290519081900360640190fd5b9392505050565b828054600181600116156101000203166002900490600052602060002090601f016020900481019282601f106200046857805160ff191683800117855562000498565b8280016001018555821562000498579182015b82811115620004985782518255916020019190600101906200047b565b50620004a6929150620004f8565b5090565b60405180610100016040528060008152602001600081526020016000815260200160008152602001600081526020016000815260200160006001600160a01b03168152602001600081525090565b620002b591905b80821115620004a65760008155600101620004ff565b611d1b80620005256000396000f3fe608060405234801561001057600080fd5b50600436106101a95760003560e01c80635f103dc8116100f9578063a9059cbb11610097578063dd62ed3e11610071578063dd62ed3e146104ea578063f257c08014610518578063fa7a11e214610520578063fc399a0d14610528576101a9565b8063a9059cbb146104ae578063be26ed7f146104da578063dae0e05c146104e2576101a9565b80638a1a5f3f116100d35780638a1a5f3f1461042057806395d89b4114610428578063a10cf07c14610430578063a457c2d714610482576101a9565b80635f103dc8146103ea57806370a08231146103f2578063798907c114610418576101a9565b8063313ce567116101665780633b19e84a116101405780633b19e84a1461037357806342966c68146103975780634f9d3fd5146103b45780635c26a643146103bc576101a9565b8063313ce5671461032157806333c42fe01461033f5780633950935114610347576101a9565b806306fdde03146101ae578063095ea7b31461022b5780631384b2191461026b57806318160ddd1461028557806323b872dd1461028d5780632d5a9db0146102c3575b600080fd5b6101b6610530565b6040805160208082528351818301528351919283929083019185019080838360005b838110156101f05781810151838201526020016101d8565b50505050905090810190601f16801561021d5780820380516001836020036101000a031916815260200191505b509250505060405180910390f35b6102576004803603604081101561024157600080fd5b506001600160a01b0381351690602001356105c7565b604080519115158252519081900360200190f35b6102736105e4565b60408051918252519081900360200190f35b61027361060f565b610257600480360360608110156102a357600080fd5b506001600160a01b03813581169160208101359091169060400135610615565b6102e0600480360360208110156102d957600080fd5b50356106a2565b60408051978852602088019690965286860194909452606086019290925260808501526001600160a01b031660a084015260c0830152519081900360e00190f35b6103296107b2565b6040805160ff9092168252519081900360200190f35b6102736107bb565b6102576004803603604081101561035d57600080fd5b506001600160a01b0381351690602001356107c1565b61037b610815565b604080516001600160a01b039092168252519081900360200190f35b610257600480360360208110156103ad57600080fd5b5035610824565b61037b610907565b610257600480360360408110156103d257600080fd5b506001600160a01b0381358116916020013516610916565b610273610af5565b6102736004803603602081101561040857600080fd5b50356001600160a01b0316610afb565b610257610b16565b610273610b3d565b6101b6610b43565b610438610ba4565b604080519889526020890197909752878701959095526060870193909352608086019190915260a08501526001600160a01b031660c084015260e083015251908190036101000190f35b6102576004803603604081101561049857600080fd5b506001600160a01b038135169060200135610cd7565b610257600480360360408110156104c457600080fd5b506001600160a01b038135169060200135610d45565b610273610d59565b610273610d5f565b6102736004803603604081101561050057600080fd5b506001600160a01b0381358116916020013516610dc4565b610273610def565b610273610df5565b610257610e55565b60688054604080516020601f60026000196101006001881615020190951694909404938401819004810282018101909252828152606093909290918301828280156105bc5780601f10610591576101008083540402835291602001916105bc565b820191906000526020600020905b81548152906001019060200180831161059f57829003601f168201915b505050505090505b90565b60006105db6105d4610e75565b8484610e79565b50600192915050565b600061061860705411806105fb575060735460ff16155b15610608575060006105c4565b5060725490565b60355490565b6000610622848484610f65565b6106988461062e610e75565b61069385604051806060016040528060288152602001611c04602891396001600160a01b038a1660009081526034602052604081209061066c610e75565b6001600160a01b03168152602081019190915260400160002054919063ffffffff610f8c16565b610e79565b5060019392505050565b6000806000806000806000606f88815481106106ba57fe5b906000526020600020906008020160010154606f89815481106106d957fe5b906000526020600020906008020160020154606f8a815481106106f857fe5b906000526020600020906008020160030154606f8b8154811061071757fe5b906000526020600020906008020160040154606f8c8154811061073657fe5b906000526020600020906008020160050154606f8d8154811061075557fe5b906000526020600020906008020160060160009054906101000a90046001600160a01b0316606f8e8154811061078757fe5b9060005260206000209060080201600701549650965096509650965096509650919395979092949650565b606a5460ff1690565b61061881565b60006105db6107ce610e75565b8461069385603460006107df610e75565b6001600160a01b03908116825260208083019390935260409182016000908120918c16815292529020549063ffffffff61102316565b606b546001600160a01b031690565b606b546000906001600160a01b031633146108705760405162461bcd60e51b8152600401808060200182810382526022815260200180611bbb6022913960400191505060405180910390fd5b606b54610886906001600160a01b031683611084565b6108ab606e54836040518060600160405280603a8152602001611b5f603a9139611180565b606e8190557fa97f27f366c18c45537a14af9d132390cf44128f0dadbf4aef7f020b1218cd559083906108dc61060f565b60408051938452602084019290925282820152436060830152519081900360800190a1506001919050565b606c546001600160a01b031690565b606a5460009061010090046001600160a01b0316610932610e75565b6001600160a01b0316146109775760405162461bcd60e51b815260040180806020018281038252602c815260200180611c2c602c913960400191505060405180910390fd5b6001600160a01b0383166109bc5760405162461bcd60e51b8152600401808060200182810382526024815260200180611acf6024913960400191505060405180910390fd5b6001600160a01b038216610a17576040805162461bcd60e51b815260206004820152601c60248201527f4e6f7420612076616c6964205472656173757279206164647265737300000000604482015290519081900360640190fd5b60735460ff1615610a595760405162461bcd60e51b8152600401808060200182810382526024815260200180611b156024913960400191505060405180910390fd5b606c80546001600160a01b038086166001600160a01b031992831617909255606b805492851692909116919091179055610a916111de565b606c54606b54604080516001600160a01b039384168152919092166020820152438183015290517f8eae0c2f651a44c8e5f3b32376232a187ebb06d44450a4c9303f9ccb90a4143a9181900360600190a16073805460ff1916600117905592915050565b61196481565b6001600160a01b031660009081526033602052604090205490565b6000610b206112bc565b15610b3757610b2d61132b565b50600190506105c4565b50600090565b60715490565b60698054604080516020601f60026000196101006001881615020190951694909404938401819004810282018101909252828152606093909290918301828280156105bc5780601f10610591576101008083540402835291602001916105bc565b6000806000806000806000806000606f80549050905080606f6001830381548110610bcb57fe5b906000526020600020906008020160010154606f6001840381548110610bed57fe5b906000526020600020906008020160020154606f6001850381548110610c0f57fe5b906000526020600020906008020160030154606f6001860381548110610c3157fe5b906000526020600020906008020160040154606f6001870381548110610c5357fe5b906000526020600020906008020160050154606f6001880381548110610c7557fe5b906000526020600020906008020160060160009054906101000a90046001600160a01b0316606f6001890381548110610caa57fe5b90600052602060002090600802016007015498509850985098509850985098509850509091929394959697565b60006105db610ce4610e75565b8461069385604051806060016040528060258152602001611cc26025913960346000610d0e610e75565b6001600160a01b03908116825260208083019390935260409182016000908120918d1681529252902054919063ffffffff610f8c16565b60006105db610d52610e75565b8484610f65565b60705490565b60006106186070541180610d76575060735460ff16155b15610d83575060006105c4565b6000610d8d61060f565b90506000610da66072548361160790919063ffffffff16565b90506000610dbc8261196463ffffffff61160716565b935050505090565b6001600160a01b03918216600090815260346020908152604080832093909416825291909152205490565b606e5490565b60006106186070541180610e0c575060735460ff16155b15610e1a57506000196105c4565b6000610e2843607454611649565b90506119648110610e3d5760009150506105c4565b610e4f6119648263ffffffff61167716565b91505090565b60006106186070541115610e6b575060006105c4565b5060735460ff1690565b3390565b6001600160a01b038316610ebe5760405162461bcd60e51b8152600401808060200182810382526024815260200180611c9e6024913960400191505060405180910390fd5b6001600160a01b038216610f035760405162461bcd60e51b8152600401808060200182810382526022815260200180611af36022913960400191505060405180910390fd5b6001600160a01b03808416600081815260346020908152604080832094871680845294825291829020859055815185815291517f8c5be1e5ebec7d5bd14f71427d1e84f3dd0314c0f7b2291e5b200ac8c7c3b9259281900390910190a3505050565b610f6d6112bc565b15610f7c57610f7a61132b565b505b610f878383836116b9565b505050565b6000818484111561101b5760405162461bcd60e51b81526004018080602001828103825283818151815260200191508051906020019080838360005b83811015610fe0578181015183820152602001610fc8565b50505050905090810190601f16801561100d5780820380516001836020036101000a031916815260200191505b509250505060405180910390fd5b505050900390565b60008282018381101561107d576040805162461bcd60e51b815260206004820152601b60248201527f536166654d6174683a206164646974696f6e206f766572666c6f770000000000604482015290519081900360640190fd5b9392505050565b6001600160a01b0382166110c95760405162461bcd60e51b8152600401808060200182810382526021815260200180611c586021913960400191505060405180910390fd5b61110c81604051806060016040528060228152602001611aad602291396001600160a01b038516600090815260336020526040902054919063ffffffff610f8c16565b6001600160a01b038316600090815260336020526040902055603554611138908263ffffffff61167716565b6035556040805182815290516000916001600160a01b038516917fddf252ad1be2c89b69c2b068fc378daa952ba7f163c4a11628f55a4df523b3ef9181900360200190a35050565b600083830182858210156111d55760405162461bcd60e51b8152602060048201818152835160248401528351909283926044909101919085019080838360008315610fe0578181015183820152602001610fc8565b50949350505050565b604080516060808201835260018083526020808401839052606493850184905260759190915560768290556077929092558251808201845260618082526101ce82850181905260c8928601839052607891909155607955607a55825180820184526101cf80825261033c828501819052610190928601839052607b91909155607c55607d558251808201845261033d8082526104aa828501819052610320928601839052607e91909155607f55608055825190810183526104ab80825261061892820183905261064091909301819052608192909255608255608355565b60735460009060ff1680156112d5575061061860705411155b80156112ed57506119646112eb43607454611649565b115b15610b37576113206070546001604051806040016040528060088152602001674f766572666c6f7760c01b815250611180565b6070555060016105c4565b6000611335611817565b60715410156113ce576113646071546001604051806060016040528060228152602001611b9960229139611180565b6071819055607590600b811061137657fe5b60030201600201546072819055607154604080519182526020820192909252438183015242606082015290517f6a8286d40417b47e46d23df7ddfd21e46c1ac56f6b970b29b7c3b790fa7a7031916080908290030190a15b60006113d861060f565b905060006113f16072548361160790919063ffffffff16565b905060006114078261196463ffffffff61160716565b9050606d5482111561142e57606d5461142790839063ffffffff61167716565b9150611434565b6000606d555b61144033606d546118e4565b606c54611456906001600160a01b0316836118e4565b61145e611a3b565b60405180610100016040528060705481526020016071548152602001607254815260200184815260200183815260200161149661060f565b8152602001336001600160a01b03168152602001438152509050606f8190806001815401808255809150509060018203906000526020600020906008020160009091929091909150600082015181600001556020820151816001015560408201518160020155606082015181600301556080820151816004015560a0820151816005015560c08201518160060160006101000a8154816001600160a01b0302191690836001600160a01b0316021790555060e08201518160070155505050436074819055507fd1199909fe7e3430ff4a50acc1aec543fc4714b8b54f90b45d6914344835f94e8160c00151826000015183602001518460400151856060015186608001518760a001518860e0015160405180896001600160a01b03166001600160a01b031681526020018881526020018781526020018681526020018581526020018481526020018381526020018281526020019850505050505050505060405180910390a1600194505050505090565b600061107d83836040518060400160405280601a81526020017f536166654d6174683a206469766973696f6e206279207a65726f0000000000008152506119d6565b60008061166f8484604051806060016040528060278152602001611bdd60279139610f8c565b949350505050565b600061107d83836040518060400160405280601e81526020017f536166654d6174683a207375627472616374696f6e206f766572666c6f770000815250610f8c565b6001600160a01b0383166116fe5760405162461bcd60e51b8152600401808060200182810382526025815260200180611c796025913960400191505060405180910390fd5b6001600160a01b0382166117435760405162461bcd60e51b8152600401808060200182810382526023815260200180611a8a6023913960400191505060405180910390fd5b61178681604051806060016040528060268152602001611b39602691396001600160a01b038616600090815260336020526040902054919063ffffffff610f8c16565b6001600160a01b0380851660009081526033602052604080822093909355908416815220546117bb908263ffffffff61102316565b6001600160a01b0380841660008181526033602090815260409182902094909455805185815290519193928716927fddf252ad1be2c89b69c2b068fc378daa952ba7f163c4a11628f55a4df523b3ef92918290030190a3505050565b600060606070541161182b575060006105c4565b600061187060705460606040518060400160405280602081526020017f5363686564756c653a205375627472616374696f6e2067617665206572726f72815250610f8c565b905060006118b68261016d6040518060400160405280601e81526020017f5363686564756c65203a204469766973696f6e2067617665206572726f7200008152506119d6565b905060048110156118db576118d281600163ffffffff61102316565b925050506105c4565b60059250505090565b6001600160a01b03821661193f576040805162461bcd60e51b815260206004820152601f60248201527f45524332303a206d696e7420746f20746865207a65726f206164647265737300604482015290519081900360640190fd5b603554611952908263ffffffff61102316565b6035556001600160a01b03821660009081526033602052604090205461197e908263ffffffff61102316565b6001600160a01b03831660008181526033602090815260408083209490945583518581529351929391927fddf252ad1be2c89b69c2b068fc378daa952ba7f163c4a11628f55a4df523b3ef9281900390910190a35050565b60008183611a255760405162461bcd60e51b8152602060048201818152835160248401528351909283926044909101919085019080838360008315610fe0578181015183820152602001610fc8565b506000838581611a3157fe5b0495945050505050565b60405180610100016040528060008152602001600081526020016000815260200160008152602001600081526020016000815260200160006001600160a01b0316815260200160008152509056fe45524332303a207472616e7366657220746f20746865207a65726f206164647265737345524332303a206275726e20616d6f756e7420657863656564732062616c616e63654e6f7420612076616c696420537065656420436f6e74726f6c6c6572206164647265737345524332303a20617070726f766520746f20746865207a65726f20616464726573734d696e74696e672063616e206f6e6c7920626520696e697469616c697a6564206f6e636545524332303a207472616e7366657220616d6f756e7420657863656564732062616c616e63656275726e203a20546f74616c204e756d626572206f6620746f6b656e73206275726e742067617665206164646974696f6e206f766572666c6f774e4557205363686564756c65203a204164646974696f6e2067617665206572726f724f6e6c792054726561737572792063616e206275726e205349474820546f6b656e73476574456c6170736564426c6f636b733a205375627472616374696f6e20556e646572666c6f7745524332303a207472616e7366657220616d6f756e74206578636565647320616c6c6f77616e63654d696e696e672063616e206f6e6c7920626520696e697469616c697a656420627920746865206f776e65722e45524332303a206275726e2066726f6d20746865207a65726f206164647265737345524332303a207472616e736665722066726f6d20746865207a65726f206164647265737345524332303a20617070726f76652066726f6d20746865207a65726f206164647265737345524332303a2064656372656173656420616c6c6f77616e63652062656c6f77207a65726fa265627a7a723158206efddc0a71bcca1157fb2aa0995a6f6dab61e75b9ba17542dc39cbb66a879c5464736f6c6343000510003253494748203a20412066726565206469737472696275746f72206f662066757475726520657870656374656420616363756d756c617465642076616c7565206f662066696e616e6369616c20617373657473",
  "source": "pragma solidity ^0.5.16;\n\nimport \"openzeppelin-solidity/contracts/token/ERC20/ERC20.sol\"; \nimport \"openzeppelin-solidity/contracts/token/ERC20/ERC20Detailed.sol\"; \n\nimport \"openzeppelin-solidity/contracts/utils/Address.sol\"; \nimport \"openzeppelin-solidity/contracts/math/SafeMath.sol\"; \n\ncontract SIGH is ERC20, ERC20Detailed('SIGH : A free distributor of future expected accumulated value of financial assets','SIGH',uint8(18) ) {\n\n    using SafeMath for uint256;    // Time based calculations\n    using Address for address;\n\n    address private _owner;\n    address private treasury; \n    address private SpeedController;\n\n    uint256 private constant INITIAL_SUPPLY = 5 * 10**6 * 10**18; // 5 Million (with 18 decimals)\n    uint256 private prize_amount = 500 * 10**18;\n\n    uint256 private totalAmountBurnt;\n\n    struct mintSnapshot {\n        uint cycle;\n        uint schedule;\n        uint inflationRate;\n        uint mintedAmount;\n        uint mintSpeed;\n        uint newTotalSupply;\n        address minter;\n        uint blockNumber;\n    }\n\n    mintSnapshot[] private mintSnapshots;\n\n    uint256 public constant CYCLE_BLOCKS = 6500;  // 15 * 60 * 24 (KOVAN blocks minted per day)\n    uint256 public constant FINAL_CYCLE = 1560; // \n\n    uint256 private Current_Cycle; \n    uint256 private Current_Schedule;\n    uint256 private currentDivisibilityFactor = 100;\n\n    bool private mintingActivated = false;\n    uint256 private previousMintBlock;\n\n    struct Schedule {\n        uint256 startCycle;\n        uint256 endCycle;\n        uint256 divisibilityFactor;\n    }\n\n    Schedule[11] private _schedules;\n\n    event NewSchedule(uint newSchedule, uint newDivisibilityFactor, uint blockNumber, uint timeStamp );\n    event MintingInitialized(address speedController, address treasury, uint256 blockNumber);\n    event SIGHMinted( address minter, uint256 cycle, uint256 Schedule, uint inflationRate, uint256 amountMinted, uint mintSpeed, uint256 current_supply, uint256 block_number);\n    event SIGHBurned( uint256 burntAmount, uint256 totalBurnedAmount, uint256 currentSupply, uint blockNumber);\n\n    // constructing  \n    constructor () public {\n        _owner = _msgSender();\n        _mint(_owner,INITIAL_SUPPLY);\n        mintSnapshot  memory currentMintSnapshot = mintSnapshot({ cycle:Current_Cycle, schedule:Current_Schedule, inflationRate: uint(0), mintedAmount:INITIAL_SUPPLY, mintSpeed:uint(0), newTotalSupply:totalSupply(), minter: msg.sender, blockNumber: block.number });\n        mintSnapshots.push(currentMintSnapshot);                                                    // MINT SNAPSHOT ADDED TO THE ARRAY\n        emit SIGHMinted(currentMintSnapshot.minter, currentMintSnapshot.cycle, currentMintSnapshot.schedule, currentMintSnapshot.inflationRate, currentMintSnapshot.mintedAmount, currentMintSnapshot.mintSpeed, currentMintSnapshot.newTotalSupply,currentMintSnapshot.blockNumber );\n    }\n\n    // ################################################\n    // #######   FUNCTIONS TO INITIATE MINTING  #######\n    // ################################################\n\n    function initMinting(address newSpeedController, address _treasury) public returns (bool) {\n        require(_msgSender() == _owner,\"Mining can only be initialized by the owner.\" );\n        require(newSpeedController != address(0), \"Not a valid Speed Controller address\");\n        require(_treasury != address(0), \"Not a valid Treasury address\");\n        require(!mintingActivated, \"Minting can only be initialized once\" );\n\n        SpeedController = newSpeedController;\n        treasury = _treasury;\n        _initSchedules();\n        \n        emit MintingInitialized(SpeedController, treasury, block.number );\n        mintingActivated = true;\n    }\n\n    function _initSchedules() private {\n        _schedules[0] = Schedule(1, 96, 100 );              // Genesis Mint Schedule\n        _schedules[1] = Schedule(97, 462, 200 );            // 1st Mint Schedule\n        _schedules[2] = Schedule(463, 828, 400 );           // 2nd Mint Schedule\n        _schedules[3] = Schedule(829, 1194, 800 );          // 3rd Mint Schedule\n        _schedules[4] = Schedule(1195, 1560, 1600 );        // 4th Mint Schedule\n    }\n\n    // function _initSchedules() private {\n    //     _schedules[0] = Schedule(1, 96, 100 );           // Genesis Mint Schedule\n    //     _schedules[1] = Schedule(97, 462, 200 );         // 1st Mint Schedule\n    //     _schedules[2] = Schedule(463, 828, 400 );        // 2nd Mint Schedule\n    //     _schedules[3] = Schedule(829, 1194, 800 );       // 12nd Mint Schedule\n    //     _schedules[4] = Schedule(1195, 1560, 1600 );     // 2nd Mint Schedule\n    //     _schedules[5] = Schedule(1561, 1926, 3200 );     // 2nd Mint Schedule\n    //     _schedules[6] = Schedule(1927, 2292, 6400 );     // 2nd Mint Schedule\n    //     _schedules[7] = Schedule(2293, 2658, 12800 );    // 2nd Mint Schedule\n    //     _schedules[8] = Schedule(2659, 3024, 25600 );    // 2nd Mint Schedule\n    //     _schedules[9] = Schedule(3025, 3390, 51200 );    // 2nd Mint Schedule\n    //     _schedules[10] = Schedule(3391, 3756, 102400 );  // 2nd Mint Schedule\n    // }\n\n\n\n    // ############################################################\n    // ############   OVER-LOADING TRANSFER FUNCTON    ############\n    // ############################################################\n\n    function _transfer(address sender, address recipient, uint256 amount) internal {\n        if (isMintingPossible()) {\n             mintNewCoins();\n        }\n        super._transfer(sender, recipient, amount);\n    }\n\n    // ################################################\n    // ############   MINT FUNCTONS    ############\n    // ################################################\n\n    function isMintingPossible() internal returns (bool) {\n        if ( mintingActivated && Current_Cycle <= FINAL_CYCLE && _getElapsedBlocks(block.number, previousMintBlock) > CYCLE_BLOCKS ) {\n            Current_Cycle = add(Current_Cycle,uint256(1),'Overflow');\n            return true;\n        }\n        return false;\n    }\n\n    function mintCoins() external returns (bool) {\n        if (isMintingPossible() ) {\n            mintNewCoins();\n            return true;\n        }\n        return false;\n    }\n\n    function mintNewCoins() internal returns (bool) {\n\n        if ( Current_Schedule < _CalculateCurrentSchedule() ) {\n            Current_Schedule = add(Current_Schedule,uint256(1),\"NEW Schedule : Addition gave error\");\n            currentDivisibilityFactor = _schedules[Current_Schedule].divisibilityFactor;\n            emit NewSchedule(Current_Schedule,currentDivisibilityFactor, block.number, now);\n        }\n\n        uint currentSupply = totalSupply();\n        uint256 newCoins = currentSupply.div(currentDivisibilityFactor);                        // Calculate the number of new tokens to be minted.\n        uint newmintSpeed = newCoins.div(CYCLE_BLOCKS);                                         // mint speed, i.e tokens minted per block rate for this cycle\n        if (newCoins > prize_amount) {\n            newCoins = newCoins.sub(prize_amount);\n        }  \n        else {\n            prize_amount = uint(0);\n        }\n\n        _mint( msg.sender, prize_amount );                                                          // PRIZE AMOUNT AWARDED TO THE MINTER\n        _mint( SpeedController, newCoins );                                                          // NEWLY MINTED SIGH TRANSFERRED TO SIGH SPEED CONTROLLER\n        \n        mintSnapshot  memory currentMintSnapshot = mintSnapshot({ cycle:Current_Cycle, schedule:Current_Schedule, inflationRate: currentDivisibilityFactor, mintedAmount:newCoins, mintSpeed:newmintSpeed, newTotalSupply:totalSupply(), minter: msg.sender, blockNumber: block.number });\n        mintSnapshots.push(currentMintSnapshot);                                                    // MINT SNAPSHOT ADDED TO THE ARRAY\n        previousMintBlock = block.number;        \n\n        emit SIGHMinted(currentMintSnapshot.minter, currentMintSnapshot.cycle, currentMintSnapshot.schedule, currentMintSnapshot.inflationRate, currentMintSnapshot.mintedAmount, currentMintSnapshot.mintSpeed, currentMintSnapshot.newTotalSupply,currentMintSnapshot.blockNumber );\n        return true;        \n    }\n\n    function _getElapsedBlocks(uint256 currentBlock , uint256 prevBlock) internal pure returns(uint256) {\n        uint deltaBlocks = sub(currentBlock,prevBlock,\"GetElapsedBlocks: Subtraction Underflow\");\n        return deltaBlocks;\n    }\n\n    function _CalculateCurrentSchedule() internal view returns (uint256) {\n\n        if (Current_Cycle <= 96) {\n            return uint256(0);\n        }\n\n        uint256 C_Schedule_sub = sub(Current_Cycle,uint256(96),'Schedule: Subtraction gave error');\n        uint256 _newSchedule = div(C_Schedule_sub,uint256(365),\"Schedule : Division gave error\");\n\n        if (_newSchedule < 4 ) {\n            return uint256(_newSchedule.add(1) );\n        }\n\n        return uint256(5);\n    }\n\n    // ################################################\n    // ############   BURN FUNCTON    #################\n    // ################################################\n    \n    function burn(uint amount) external returns (bool) {\n        require( msg.sender == treasury,\"Only Treasury can burn SIGH Tokens\");\n        _burn(treasury, amount) ;\n        totalAmountBurnt = add(totalAmountBurnt , amount, 'burn : Total Number of tokens burnt gave addition overflow');\n        emit SIGHBurned( amount, totalAmountBurnt, totalSupply(), block.number );\n        return true;\n    }    \n\n    // ################################################\n    // ###########   MINT FUNCTONS (VIEW)   ###########\n    // ################################################\n\n    function isMintingActivated() external view returns(bool) {\n        if (Current_Cycle > FINAL_CYCLE) {\n            return false;\n        }\n        return mintingActivated;\n    }\n\n   function getCurrentSchedule() public view returns (uint256) {\n        return Current_Schedule;\n    }\n\n   function getCurrentCycle() public view returns (uint256) {\n        return Current_Cycle;\n    }\n    \n    function getCurrentInflationRate() external view returns (uint256) {\n        if (Current_Cycle > FINAL_CYCLE || !mintingActivated) {\n            return uint(0);\n        }\n        return currentDivisibilityFactor;\n    }\n    \n    function getBlocksRemainingToMint() external view returns (uint) {\n\n        if (Current_Cycle > FINAL_CYCLE || !mintingActivated) {\n            return uint(-1);\n        }\n\n        uint deltaBlocks = _getElapsedBlocks(block.number, previousMintBlock);\n\n        if (deltaBlocks >= CYCLE_BLOCKS ) {\n            return uint(0);\n        }\n        return CYCLE_BLOCKS.sub(deltaBlocks);\n    }\n\n\n    function getMintSnapshotForCycle(uint cycleNumber) public view returns (uint schedule,uint inflationRate, uint mintedAmount,uint mintSpeed, uint newTotalSupply,address minter, uint blockNumber ) {\n        return ( mintSnapshots[cycleNumber].schedule,\n                 mintSnapshots[cycleNumber].inflationRate,\n                 mintSnapshots[cycleNumber].mintedAmount,\n                 mintSnapshots[cycleNumber].mintSpeed,\n                 mintSnapshots[cycleNumber].newTotalSupply,\n                 mintSnapshots[cycleNumber].minter,\n                 mintSnapshots[cycleNumber].blockNumber\n                 );\n    }\n    \n    function getLatestMintSnapshot() public view returns (uint cycle, uint schedule,uint inflationRate, uint mintedAmount,uint mintSpeed, uint newTotalSupply,address minter, uint blockNumber ) {\n        uint len = mintSnapshots.length;\n        return ( len, \n                 mintSnapshots[len - 1].schedule,\n                 mintSnapshots[len - 1].inflationRate,\n                 mintSnapshots[len - 1].mintedAmount,\n                 mintSnapshots[len - 1].mintSpeed,\n                 mintSnapshots[len - 1].newTotalSupply,\n                 mintSnapshots[len - 1].minter,\n                 mintSnapshots[len - 1].blockNumber\n                 );\n    }\n    \n    \n    function getCurrentMintSpeed() external view returns (uint) {\n        if (Current_Cycle > FINAL_CYCLE || !mintingActivated) {\n            return uint(0);\n        }\n        uint currentSupply = totalSupply();\n        uint256 newCoins = currentSupply.div(currentDivisibilityFactor);                        // Calculate the number of new tokens to be minted.\n        uint newmintSpeed = newCoins.div(CYCLE_BLOCKS);                                         // mint speed, i.e tokens minted per block rate for this cycle\n        return newmintSpeed;\n    }\n\n    function getTotalSighBurnt() external view returns (uint) {\n        return totalAmountBurnt;\n    }\n\n   function getSpeedController() external view returns (address) {\n        return SpeedController;\n    }\n    \n   function getTreasury() external view returns (address) {\n        return treasury;\n    }\n    \n    \n    // ##################################################################\n    // ###########   nternal helper functions for safe math   ###########\n    // ##################################################################\n\n    function add(uint a, uint b, string memory errorMessage) internal pure returns (uint) {\n        uint c = a + b;\n        require(c >= a, errorMessage);\n        return c;\n    }\n\n    function sub(uint a, uint b, string memory errorMessage) internal pure returns (uint) {\n        require(b <= a, errorMessage);\n        uint c = a - b;\n        return c;\n    }\n\n    function mul(uint a, uint b, string memory errorMessage) internal pure returns (uint) {\n        if (a == 0) {\n        return 0;\n        }\n        uint c = a * b;\n        require(c / a == b, errorMessage);\n        return c;\n    }\n\n    function min(uint a, uint b) internal pure returns (uint) {\n        if (a <= b) {\n        return a;\n        } else {\n        return b;\n        }\n    }    \n\n    function div(uint256 a, uint256 b) internal pure returns (uint256) {\n        return div(a, b, \"SafeMath: division by zero\");\n    }\n\n    function div(uint256 a, uint256 b, string memory errorMessage) internal pure returns (uint256) {\n        // Solidity only automatically asserts when dividing by 0\n        require(b > 0, errorMessage);\n        uint256 c = a / b;\n        // assert(a == b * c + a % b); // There is no case in which this doesn't hold\n\n        return c;\n    }\n\n}\n\n\n\n\n\n\n\n\n\n",
  "sourcePath": "/Users/apple/Desktop/GITCOIN/Sigh_Finance/SighFinanceContracts/contracts/SIGHFinanceContracts/SIGH_Instrument/Sigh.sol",
  "compiler": {
    "name": "solc",
    "version": "0.5.16+commit.9c3226ce.Emscripten.clang"
  },
  "schemaVersion": "3.2.4",
  "updatedAt": "2020-12-08T09:42:16.971Z",
  "devdoc": {
    "methods": {
      "allowance(address,address)": {
        "details": "See {IERC20-allowance}."
      },
      "approve(address,uint256)": {
        "details": "See {IERC20-approve}.     * Requirements:     * - `spender` cannot be the zero address."
      },
      "balanceOf(address)": {
        "details": "See {IERC20-balanceOf}."
      },
      "decimals()": {
        "details": "Returns the number of decimals used to get its user representation. For example, if `decimals` equals `2`, a balance of `505` tokens should be displayed to a user as `5,05` (`505 / 10 ** 2`).     * Tokens usually opt for a value of 18, imitating the relationship between Ether and Wei.     * NOTE: This information is only used for _display_ purposes: it in no way affects any of the arithmetic of the contract, including {IERC20-balanceOf} and {IERC20-transfer}."
      },
      "decreaseAllowance(address,uint256)": {
        "details": "Atomically decreases the allowance granted to `spender` by the caller.     * This is an alternative to {approve} that can be used as a mitigation for problems described in {IERC20-approve}.     * Emits an {Approval} event indicating the updated allowance.     * Requirements:     * - `spender` cannot be the zero address. - `spender` must have allowance for the caller of at least `subtractedValue`."
      },
      "increaseAllowance(address,uint256)": {
        "details": "Atomically increases the allowance granted to `spender` by the caller.     * This is an alternative to {approve} that can be used as a mitigation for problems described in {IERC20-approve}.     * Emits an {Approval} event indicating the updated allowance.     * Requirements:     * - `spender` cannot be the zero address."
      },
      "name()": {
        "details": "Returns the name of the token."
      },
      "symbol()": {
        "details": "Returns the symbol of the token, usually a shorter version of the name."
      },
      "totalSupply()": {
        "details": "See {IERC20-totalSupply}."
      },
      "transfer(address,uint256)": {
        "details": "See {IERC20-transfer}.     * Requirements:     * - `recipient` cannot be the zero address. - the caller must have a balance of at least `amount`."
      },
      "transferFrom(address,address,uint256)": {
        "details": "See {IERC20-transferFrom}.     * Emits an {Approval} event indicating the updated allowance. This is not required by the EIP. See the note at the beginning of {ERC20};     * Requirements: - `sender` and `recipient` cannot be the zero address. - `sender` must have a balance of at least `amount`. - the caller must have allowance for `sender`'s tokens of at least `amount`."
      }
    }
  },
  "userdoc": {
    "methods": {}
  }
}