{
  "contractName": "SighStream",
  "abi": [
    {
      "anonymous": false,
      "inputs": [
        {
          "indexed": false,
          "internalType": "address",
          "name": "instrument",
          "type": "address"
        },
        {
          "indexed": false,
          "internalType": "address",
          "name": "redirectionAddress",
          "type": "address"
        },
        {
          "indexed": false,
          "internalType": "uint256",
          "name": "_balanceToAdd",
          "type": "uint256"
        },
        {
          "indexed": false,
          "internalType": "uint256",
          "name": "_balanceToRemove",
          "type": "uint256"
        },
        {
          "indexed": false,
          "internalType": "uint256",
          "name": "totalRedirectedBalanceForBorrowingSIGHStream",
          "type": "uint256"
        }
      ],
      "name": "BorrowingSIGHStreamRedirectedBalanceUpdated",
      "type": "event"
    },
    {
      "anonymous": false,
      "inputs": [
        {
          "indexed": false,
          "internalType": "address",
          "name": "instrument",
          "type": "address"
        },
        {
          "indexed": false,
          "internalType": "address",
          "name": "user",
          "type": "address"
        },
        {
          "indexed": false,
          "internalType": "address",
          "name": "allowedAccount",
          "type": "address"
        }
      ],
      "name": "BorrowingSIGHStreamRedirectionAllowanceChanged",
      "type": "event"
    },
    {
      "anonymous": false,
      "inputs": [
        {
          "indexed": false,
          "internalType": "address",
          "name": "instrument",
          "type": "address"
        },
        {
          "indexed": false,
          "internalType": "address",
          "name": "fromAccount",
          "type": "address"
        },
        {
          "indexed": false,
          "internalType": "address",
          "name": "toAccount",
          "type": "address"
        },
        {
          "indexed": false,
          "internalType": "uint256",
          "name": "redirectedBalance",
          "type": "uint256"
        }
      ],
      "name": "BorrowingSIGHStreamStreamRedirected",
      "type": "event"
    },
    {
      "anonymous": false,
      "inputs": [
        {
          "indexed": false,
          "internalType": "address",
          "name": "instrument",
          "type": "address"
        },
        {
          "indexed": false,
          "internalType": "address",
          "name": "redirectionAddress",
          "type": "address"
        },
        {
          "indexed": false,
          "internalType": "uint256",
          "name": "_balanceToAdd",
          "type": "uint256"
        },
        {
          "indexed": false,
          "internalType": "uint256",
          "name": "_balanceToRemove",
          "type": "uint256"
        },
        {
          "indexed": false,
          "internalType": "uint256",
          "name": "totalRedirectedBalanceForLiquiditySIGHStream",
          "type": "uint256"
        }
      ],
      "name": "LiquiditySIGHStreamRedirectedBalanceUpdated",
      "type": "event"
    },
    {
      "anonymous": false,
      "inputs": [
        {
          "indexed": false,
          "internalType": "address",
          "name": "instrument",
          "type": "address"
        },
        {
          "indexed": false,
          "internalType": "address",
          "name": "user",
          "type": "address"
        },
        {
          "indexed": false,
          "internalType": "address",
          "name": "allowedAccount",
          "type": "address"
        }
      ],
      "name": "LiquiditySIGHStreamRedirectionAllowanceChanged",
      "type": "event"
    },
    {
      "anonymous": false,
      "inputs": [
        {
          "indexed": false,
          "internalType": "address",
          "name": "instrument",
          "type": "address"
        },
        {
          "indexed": false,
          "internalType": "address",
          "name": "fromAccount",
          "type": "address"
        },
        {
          "indexed": false,
          "internalType": "address",
          "name": "toAccount",
          "type": "address"
        },
        {
          "indexed": false,
          "internalType": "uint256",
          "name": "redirectedBalance",
          "type": "uint256"
        }
      ],
      "name": "LiquiditySIGHStreamStreamRedirected",
      "type": "event"
    },
    {
      "anonymous": false,
      "inputs": [
        {
          "indexed": false,
          "internalType": "address",
          "name": "instrument",
          "type": "address"
        },
        {
          "indexed": false,
          "internalType": "address",
          "name": "user",
          "type": "address"
        },
        {
          "indexed": false,
          "internalType": "bool",
          "name": "isLiquidityStream",
          "type": "bool"
        },
        {
          "indexed": false,
          "internalType": "uint256",
          "name": "recentSIGHAccured",
          "type": "uint256"
        },
        {
          "indexed": false,
          "internalType": "uint256",
          "name": "AccuredSighBalance",
          "type": "uint256"
        }
      ],
      "name": "SighAccured",
      "type": "event"
    },
    {
      "constant": true,
      "inputs": [],
      "name": "CONFIGURATOR_REVISION",
      "outputs": [
        {
          "internalType": "uint256",
          "name": "",
          "type": "uint256"
        }
      ],
      "payable": false,
      "stateMutability": "view",
      "type": "function"
    },
    {
      "constant": true,
      "inputs": [],
      "name": "iToken",
      "outputs": [
        {
          "internalType": "contract ITokenInterface",
          "name": "",
          "type": "address"
        }
      ],
      "payable": false,
      "stateMutability": "view",
      "type": "function"
    },
    {
      "constant": true,
      "inputs": [],
      "name": "SIGHVolatilityHarvesterContract",
      "outputs": [
        {
          "internalType": "contract ISIGHVolatilityHarvester",
          "name": "",
          "type": "address"
        }
      ],
      "payable": false,
      "stateMutability": "view",
      "type": "function"
    },
    {
      "constant": true,
      "inputs": [],
      "name": "sigh_Transfer_Threshold",
      "outputs": [
        {
          "internalType": "uint256",
          "name": "",
          "type": "uint256"
        }
      ],
      "payable": false,
      "stateMutability": "view",
      "type": "function"
    },
    {
      "constant": true,
      "inputs": [],
      "name": "underlyingInstrumentAddress",
      "outputs": [
        {
          "internalType": "address",
          "name": "",
          "type": "address"
        }
      ],
      "payable": false,
      "stateMutability": "view",
      "type": "function"
    },
    {
      "constant": false,
      "inputs": [
        {
          "internalType": "contract IGlobalAddressesProvider",
          "name": "_globalAddressesProvider",
          "type": "address"
        },
        {
          "internalType": "address",
          "name": "_underlyingAsset",
          "type": "address"
        },
        {
          "internalType": "address",
          "name": "_iTokenAddress",
          "type": "address"
        }
      ],
      "name": "initialize",
      "outputs": [],
      "payable": false,
      "stateMutability": "nonpayable",
      "type": "function"
    },
    {
      "constant": false,
      "inputs": [
        {
          "internalType": "address",
          "name": "from",
          "type": "address"
        },
        {
          "internalType": "address",
          "name": "_to",
          "type": "address"
        }
      ],
      "name": "redirectLiquiditySIGHStream",
      "outputs": [],
      "payable": false,
      "stateMutability": "nonpayable",
      "type": "function"
    },
    {
      "constant": false,
      "inputs": [
        {
          "internalType": "address",
          "name": "from",
          "type": "address"
        },
        {
          "internalType": "address",
          "name": "_to",
          "type": "address"
        }
      ],
      "name": "allowLiquiditySIGHRedirectionTo",
      "outputs": [],
      "payable": false,
      "stateMutability": "nonpayable",
      "type": "function"
    },
    {
      "constant": false,
      "inputs": [
        {
          "internalType": "address",
          "name": "user",
          "type": "address"
        },
        {
          "internalType": "address",
          "name": "_from",
          "type": "address"
        },
        {
          "internalType": "address",
          "name": "_to",
          "type": "address"
        }
      ],
      "name": "redirectLiquiditySIGHStreamOf",
      "outputs": [],
      "payable": false,
      "stateMutability": "nonpayable",
      "type": "function"
    },
    {
      "constant": false,
      "inputs": [
        {
          "internalType": "address",
          "name": "_user",
          "type": "address"
        },
        {
          "internalType": "uint256",
          "name": "_balanceToAdd",
          "type": "uint256"
        },
        {
          "internalType": "uint256",
          "name": "_balanceToRemove",
          "type": "uint256"
        }
      ],
      "name": "updateRedirectedBalanceOfLiquiditySIGHStreamRedirectionAddress",
      "outputs": [],
      "payable": false,
      "stateMutability": "nonpayable",
      "type": "function"
    },
    {
      "constant": false,
      "inputs": [
        {
          "internalType": "address",
          "name": "supplier",
          "type": "address"
        },
        {
          "internalType": "uint256",
          "name": "unaccountedBalanceIncrease",
          "type": "uint256"
        },
        {
          "internalType": "uint256",
          "name": "currentCompoundedBalance",
          "type": "uint256"
        }
      ],
      "name": "accureLiquiditySighStream",
      "outputs": [],
      "payable": false,
      "stateMutability": "nonpayable",
      "type": "function"
    },
    {
      "constant": false,
      "inputs": [
        {
          "internalType": "address",
          "name": "user",
          "type": "address"
        },
        {
          "internalType": "address",
          "name": "_to",
          "type": "address"
        }
      ],
      "name": "redirectBorrowingSIGHStream",
      "outputs": [],
      "payable": false,
      "stateMutability": "nonpayable",
      "type": "function"
    },
    {
      "constant": false,
      "inputs": [
        {
          "internalType": "address",
          "name": "user",
          "type": "address"
        },
        {
          "internalType": "address",
          "name": "_to",
          "type": "address"
        }
      ],
      "name": "allowBorrowingSIGHRedirectionTo",
      "outputs": [],
      "payable": false,
      "stateMutability": "nonpayable",
      "type": "function"
    },
    {
      "constant": false,
      "inputs": [
        {
          "internalType": "address",
          "name": "user",
          "type": "address"
        },
        {
          "internalType": "address",
          "name": "_from",
          "type": "address"
        },
        {
          "internalType": "address",
          "name": "_to",
          "type": "address"
        }
      ],
      "name": "redirectBorrowingSIGHStreamOf",
      "outputs": [],
      "payable": false,
      "stateMutability": "nonpayable",
      "type": "function"
    },
    {
      "constant": false,
      "inputs": [
        {
          "internalType": "address",
          "name": "_user",
          "type": "address"
        },
        {
          "internalType": "uint256",
          "name": "_balanceToAdd",
          "type": "uint256"
        },
        {
          "internalType": "uint256",
          "name": "_balanceToRemove",
          "type": "uint256"
        }
      ],
      "name": "updateRedirectedBalanceOfBorrowingSIGHStreamRedirectionAddress",
      "outputs": [],
      "payable": false,
      "stateMutability": "nonpayable",
      "type": "function"
    },
    {
      "constant": false,
      "inputs": [
        {
          "internalType": "address",
          "name": "user",
          "type": "address"
        }
      ],
      "name": "accure_SIGH_For_BorrowingStream",
      "outputs": [],
      "payable": false,
      "stateMutability": "nonpayable",
      "type": "function"
    },
    {
      "constant": false,
      "inputs": [
        {
          "internalType": "address",
          "name": "user",
          "type": "address"
        }
      ],
      "name": "claimMySIGH",
      "outputs": [],
      "payable": false,
      "stateMutability": "nonpayable",
      "type": "function"
    },
    {
      "constant": true,
      "inputs": [
        {
          "internalType": "address",
          "name": "account",
          "type": "address"
        }
      ],
      "name": "getSighAccured",
      "outputs": [
        {
          "internalType": "uint256",
          "name": "",
          "type": "uint256"
        }
      ],
      "payable": false,
      "stateMutability": "view",
      "type": "function"
    },
    {
      "constant": true,
      "inputs": [
        {
          "internalType": "address",
          "name": "user",
          "type": "address"
        }
      ],
      "name": "getSIGHStreamsRedirectedTo",
      "outputs": [
        {
          "internalType": "address",
          "name": "liquiditySIGHStreamRedirectionAddress",
          "type": "address"
        },
        {
          "internalType": "address",
          "name": "BorrowingSIGHStreamRedirectionAddress",
          "type": "address"
        }
      ],
      "payable": false,
      "stateMutability": "view",
      "type": "function"
    },
    {
      "constant": true,
      "inputs": [
        {
          "internalType": "address",
          "name": "user",
          "type": "address"
        }
      ],
      "name": "getSIGHStreamsAllowances",
      "outputs": [
        {
          "internalType": "address",
          "name": "liquiditySIGHStreamRedirectionAllowance",
          "type": "address"
        },
        {
          "internalType": "address",
          "name": "BorrowingSIGHStreamRedirectionAllowance",
          "type": "address"
        }
      ],
      "payable": false,
      "stateMutability": "view",
      "type": "function"
    },
    {
      "constant": true,
      "inputs": [
        {
          "internalType": "address",
          "name": "user",
          "type": "address"
        }
      ],
      "name": "getSIGHStreamsIndexes",
      "outputs": [
        {
          "internalType": "uint256",
          "name": "liquiditySIGHStreamIndex",
          "type": "uint256"
        },
        {
          "internalType": "uint256",
          "name": "borrowingSIGHStreamIndex",
          "type": "uint256"
        }
      ],
      "payable": false,
      "stateMutability": "view",
      "type": "function"
    },
    {
      "constant": true,
      "inputs": [
        {
          "internalType": "address",
          "name": "user",
          "type": "address"
        }
      ],
      "name": "getSIGHStreamsRedirectedBalances",
      "outputs": [
        {
          "internalType": "uint256",
          "name": "liquiditySIGHStreamRedirectedBalance",
          "type": "uint256"
        },
        {
          "internalType": "uint256",
          "name": "borrowingSIGHStreamRedirectedBalance",
          "type": "uint256"
        }
      ],
      "payable": false,
      "stateMutability": "view",
      "type": "function"
    }
  ],
  "bytecode": "0x6080604052600080556ec097ce7bc90715b34b9f1000000000603455678ac7230489e80000603a5534801561003357600080fd5b5061253b806100436000396000f3fe608060405234801561001057600080fd5b50600436106101425760003560e01c80638c2de3c3116100b8578063bf7814cb1161007c578063bf7814cb14610410578063c0c53b8b14610436578063c1da31c71461046e578063d821eb97146104a0578063dc89da0a146104a8578063e2bd79a3146104d657610142565b80638c2de3c314610326578063950514b31461035e578063ad0f5fa914610384578063b71adb20146103aa578063bddf3795146103d857610142565b80636755329e1161010a5780636755329e1461021257806367e6aeed1461024057806374087098146102725780637af635a6146102a057806383d65995146102a85780638432822a146102da57610142565b80631e77d68b146101475780632eaae3c71461016f578063408cfe24146101a757806365b5820b146101cb5780636722b4fa1461020a575b600080fd5b61016d6004803603602081101561015d57600080fd5b50356001600160a01b03166104de565b005b6101956004803603602081101561018557600080fd5b50356001600160a01b0316610533565b60408051918252519081900360200190f35b6101af61054e565b604080516001600160a01b039092168252519081900360200190f35b6101f1600480360360208110156101e157600080fd5b50356001600160a01b031661055d565b6040805192835260208301919091528051918290030190f35b6101af610580565b61016d6004803603604081101561022857600080fd5b506001600160a01b038135811691602001351661058f565b61016d6004803603606081101561025657600080fd5b506001600160a01b0381351690602081013590604001356106a5565b61016d6004803603604081101561028857600080fd5b506001600160a01b03813581169160200135166106fe565b610195610755565b61016d600480360360608110156102be57600080fd5b506001600160a01b03813516906020810135906040013561075a565b610300600480360360208110156102f057600080fd5b50356001600160a01b03166107ae565b604080516001600160a01b03938416815291909216602082015281519081900390910190f35b61016d6004803603606081101561033c57600080fd5b506001600160a01b0381358116916020810135821691604090910135166107db565b6101f16004803603602081101561037457600080fd5b50356001600160a01b031661088c565b61016d6004803603602081101561039a57600080fd5b50356001600160a01b03166108b2565b61016d600480360360408110156103c057600080fd5b506001600160a01b0381358116916020013516610904565b61016d600480360360608110156103ee57600080fd5b506001600160a01b038135811691602081013582169160409091013516610957565b6103006004803603602081101561042657600080fd5b50356001600160a01b0316610a08565b61016d6004803603606081101561044c57600080fd5b506001600160a01b038135811691602081013582169160409091013516610a35565b61016d6004803603606081101561048457600080fd5b506001600160a01b038135169060208101359060400135610c1c565b6101af610c70565b61016d600480360360408110156104be57600080fd5b506001600160a01b0381358116916020013516610c7f565b610195610d95565b6036546001600160a01b031633146105275760405162461bcd60e51b81526004018080602001828103825260428152602001806121486042913960600191505060405180910390fd5b61053081610d9b565b50565b6001600160a01b03166000908152603b602052604090205490565b6036546001600160a01b031681565b6001600160a01b03166000908152603c6020526040902080546001909101549091565b6035546001600160a01b031681565b6036546001600160a01b031633146105d85760405162461bcd60e51b81526004018080602001828103825260428152602001806121486042913960600191505060405180910390fd5b816001600160a01b0316816001600160a01b031614156106295760405162461bcd60e51b81526004018080602001828103825260258152602001806123526025913960400191505060405180910390fd5b6001600160a01b038083166000818152603c602090815260409182902060060180548587166001600160a01b031990911681179091556035548351951685529084019290925282810191909152517f828ee8840e58805dff4b27bdb5682bafd5fbdc5858d04d3e1296097ee16202319181900360600190a15050565b6036546001600160a01b031633146106ee5760405162461bcd60e51b81526004018080602001828103825260428152602001806121486042913960600191505060405180910390fd5b6106f9838383610f5a565b505050565b6036546001600160a01b031633146107475760405162461bcd60e51b81526004018080602001828103825260428152602001806121486042913960600191505060405180910390fd5b610751338261103a565b5050565b600181565b6036546001600160a01b031633146107a35760405162461bcd60e51b81526004018080602001828103825260428152602001806121486042913960600191505060405180910390fd5b6106f98383836113bb565b6001600160a01b039081166000908152603c60205260409020600481015460059091015490821692911690565b6036546001600160a01b031633146108245760405162461bcd60e51b81526004018080602001828103825260428152602001806121486042913960600191505060405180910390fd5b6001600160a01b038083166000908152603c60205260409020600701548482169116146108825760405162461bcd60e51b81526004018080602001828103825260488152602001806124bf6048913960600191505060405180910390fd5b6106f982826114ed565b6001600160a01b03166000908152603c6020526040902060028101546003909101549091565b6036546001600160a01b031633146108fb5760405162461bcd60e51b81526004018080602001828103825260428152602001806121486042913960600191505060405180910390fd5b6105308161177d565b6036546001600160a01b0316331461094d5760405162461bcd60e51b81526004018080602001828103825260428152602001806121486042913960600191505060405180910390fd5b61075182826114ed565b6036546001600160a01b031633146109a05760405162461bcd60e51b81526004018080602001828103825260428152602001806121486042913960600191505060405180910390fd5b6001600160a01b038083166000908152603c60205260409020600601548482169116146109fe5760405162461bcd60e51b81526004018080602001828103825260488152602001806124776048913960600191505060405180910390fd5b6106f9828261103a565b6001600160a01b039081166000908152603c60205260409020600681015460079091015490821692911690565b6000610a3f61196e565b60015490915060ff1680610a565750610a56611973565b80610a62575060005481115b610a9d5760405162461bcd60e51b815260040180806020018281038252602e815260200180612377602e913960400191505060405180910390fd5b60015460ff16158015610abc576001805460ff19168117905560008290555b603780546001600160a01b0319166001600160a01b0387811691909117918290556040805163076b7fbb60e51b81529051929091169163ed6ff76091600480820192602092909190829003018186803b158015610b1857600080fd5b505afa158015610b2c573d6000803e3d6000fd5b505050506040513d6020811015610b4257600080fd5b5051603980546001600160a01b0319166001600160a01b039283161790556037546040805163a0375c6d60e01b81529051919092169163a0375c6d916004808301926020929190829003018186803b158015610b9d57600080fd5b505afa158015610bb1573d6000803e3d6000fd5b505050506040513d6020811015610bc757600080fd5b5051603880546001600160a01b03199081166001600160a01b0393841617909155603680548216868416179055603580549091169186169190911790558015610c15576001805460ff191690555b5050505050565b6036546001600160a01b03163314610c655760405162461bcd60e51b81526004018080602001828103825260428152602001806121486042913960600191505060405180910390fd5b6106f9838383611979565b6038546001600160a01b031681565b6036546001600160a01b03163314610cc85760405162461bcd60e51b81526004018080602001828103825260428152602001806121486042913960600191505060405180910390fd5b816001600160a01b0316816001600160a01b03161415610d195760405162461bcd60e51b81526004018080602001828103825260258152602001806123526025913960400191505060405180910390fd5b6001600160a01b038083166000818152603c602090815260409182902060070180548587166001600160a01b031990911681179091556035548351951685529084019290925282810191909152517fe73dfce870719fb72387a476ccb7a4cfea6f0fed6fdd2c2282799fab5f64e18a9181900360600190a15050565b603a5481565b60395460355460408051639fb8afcd60e01b81526001600160a01b0392831660048201528483166024820152905160009384938493911691639fb8afcd91604480820192606092909190829003018186803b158015610df957600080fd5b505afa158015610e0d573d6000803e3d6000fd5b505050506040513d6060811015610e2357600080fd5b5080516020808301516040938401516001600160a01b038981166000908152603c90945294909220600501549296509450925016610e6a57610e658483611a47565b610f54565b6001600160a01b038085166000908152603c602052604080822060059081015484168084529190922090910154909116610f4a5760395460355460408051639fb8afcd60e01b81526001600160a01b039283166004820152848316602482015290516000939290921691639fb8afcd91604480820192606092909190829003018186803b158015610efa57600080fd5b505afa158015610f0e573d6000803e3d6000fd5b505050506040513d6060811015610f2457600080fd5b50602001519050610f4482610f3f838663ffffffff611c0216565b611a47565b50610c15565b610c158183611a47565b50505050565b6001600160a01b038084166000908152603c60205260409020600501541680610f8357506106f9565b6001600160a01b0381166000908152603c6020526040902060010154610fc1908390610fb5908663ffffffff611c0216565b9063ffffffff611c6516565b6001600160a01b038083166000818152603c602090815260409182902060010185905560355482519416845283019190915281810186905260608201859052608082019290925290517f02beb9835051d3abab70a27c8dc49930b7c208bb375a0c94baeef0c1f1651a5f9181900360a00190a150505050565b6001600160a01b038083166000908152603c6020526040902060040154811690821681141561109a5760405162461bcd60e51b81526004018080602001828103825260448152602001806122986044913960600191505060405180910390fd5b60365460408051630c25c4e360e41b81526001600160a01b03868116600483015291516000938493169163c25c4e3091602480830192608092919082900301818787803b1580156110ea57600080fd5b505af11580156110fe573d6000803e3d6000fd5b505050506040513d608081101561111457600080fd5b5060208082015160409283015160365484516370a0823160e01b81526001600160a01b038b81166004830152955193975091955060009416926370a0823192602480840193829003018186803b15801561116d57600080fd5b505afa158015611181573d6000803e3d6000fd5b505050506040513d602081101561119757600080fd5b5051116111d55760405162461bcd60e51b81526004018080602001828103825260768152602001806122dc6076913960800191505060405180910390fd5b6001600160a01b0383161561128b576111f085826000611979565b60365460408051630c25c4e360e41b81526001600160a01b0386811660048301529151600093929092169163c25c4e309160248082019260809290919082900301818787803b15801561124257600080fd5b505af1158015611256573d6000803e3d6000fd5b505050506040513d608081101561126c57600080fd5b5060200151905061127d8482611ca7565b61128986600085611979565b505b846001600160a01b0316846001600160a01b03161415611320576001600160a01b038086166000818152603c6020908152604080832060040180546001600160a01b0319169055603554815195168552908401929092528282015260608201849052517f55bbcec3563d3417cac9569d1963e34084ae0a4e46ee2cc06950f27a47c759209181900360800190a1505050610751565b6001600160a01b038581166000908152603c6020526040812060040180546001600160a01b0319169287169290921790915561135f9086908490611979565b603554604080516001600160a01b03928316815287831660208201529186168282015260608201849052517f55bbcec3563d3417cac9569d1963e34084ae0a4e46ee2cc06950f27a47c759209181900360800190a15050505050565b6001600160a01b038381166000908152603c6020526040902060040154166113ec576113e78382611ca7565b6106f9565b6001600160a01b038084166000908152603c6020526040808220600490810154841680845291909220909101549091166114d85760365460408051630c25c4e360e41b81526001600160a01b03848116600483015291516000938493849391169163c25c4e309160248082019260809290919082900301818787803b15801561147457600080fd5b505af1158015611488573d6000803e3d6000fd5b505050506040513d608081101561149e57600080fd5b506020810151604082015160609092015190945090925090506114d0846114cb858963ffffffff611c0216565b611ca7565b5050506114e2565b6114e28184611ca7565b610f54846000611ca7565b6001600160a01b038083166000908152603c6020526040902060050154811690821681141561154d5760405162461bcd60e51b815260040180806020018281038252604481526020018061220a6044913960600191505060405180910390fd5b60395460355460408051639fb8afcd60e01b81526001600160a01b0392831660048201528683166024820152905160009384938493911691639fb8afcd91604480820192606092909190829003018186803b1580156115ab57600080fd5b505afa1580156115bf573d6000803e3d6000fd5b505050506040513d60608110156115d557600080fd5b50805160208201516040909201519094509092509050816116275760405162461bcd60e51b815260040180806020018281038252608081526020018061218a6080913960800191505060405180910390fd5b6001600160a01b0384161561164b5761163f86610d9b565b61164b86600085610f5a565b856001600160a01b0316856001600160a01b031614156116e1576001600160a01b038087166000818152603c6020908152604080832060050180546001600160a01b0319169055603554815195168552908401929092528282015260608201859052517f2ee0d55dae2801ab7355b5c932c9ae702bfa8b6e0a7a1af7b0a230107ce4b9ae9181900360800190a150505050610751565b6001600160a01b038681166000908152603c6020526040812060050180546001600160a01b031916928816929092179091556117209087908590610f5a565b603554604080516001600160a01b03928316815288831660208201529187168282015260608201859052517f2ee0d55dae2801ab7355b5c932c9ae702bfa8b6e0a7a1af7b0a230107ce4b9ae9181900360800190a1505050505050565b60365460408051630c25c4e360e41b81526001600160a01b03848116600483015291516000938493169163c25c4e3091602480830192608092919082900301818787803b1580156117cd57600080fd5b505af11580156117e1573d6000803e3d6000fd5b505050506040513d60808110156117f757600080fd5b5060208082015160409283015160365484516370a0823160e01b81526001600160a01b03808a166004830152955193975091955061188b948894879491909216926370a08231926024808301939192829003018186803b15801561185a57600080fd5b505afa15801561186e573d6000803e3d6000fd5b505050506040513d602081101561188457600080fd5b50516113bb565b61189483610d9b565b6001600160a01b0383166000908152603b6020526040902054156106f9576038546035546001600160a01b038581166000818152603b6020908152604080832054815163b482e0d160e01b81529686166004880152602487019490945260448601939093529151929094169363b482e0d19360648082019492918390030190829087803b15801561192457600080fd5b505af1158015611938573d6000803e3d6000fd5b505050506040513d602081101561194e57600080fd5b50516001600160a01b0384166000908152603b6020526040902055505050565b600190565b303b1590565b6001600160a01b038084166000908152603c602052604090206004015416806119a257506106f9565b6001600160a01b0381166000908152603c60205260409020546119d1908390610fb5908663ffffffff611c0216565b6001600160a01b038083166000818152603c602090815260409182902085905560355482519416845283019190915281810186905260608201859052608082019290925290517f3004e4ad558d08872edbf8cf056679a1b1be171b23ffdcc05f9200a5321fede49181900360a00190a150505050565b6038546035546040805163087d30f360e11b81526001600160a01b039283166004820152905160009392909216916310fa61e691602480820192602092909190829003018186803b158015611a9b57600080fd5b505afa158015611aaf573d6000803e3d6000fd5b505050506040513d6020811015611ac557600080fd5b5051905080611b055760405162461bcd60e51b815260040180806020018281038252604a81526020018061224e604a913960600191505060405180910390fd5b6001600160a01b0383166000908152603c6020526040812060010154611b31908463ffffffff611c0216565b9050611b3b6120f9565b5060408051602080820183526001600160a01b0387166000908152603c90915291909120600301548152611b6d6120f9565b5060408051602080820183528582526001600160a01b0388166000908152603c909152919091206003018490558151158015611ba95750805115155b15611bb357805182525b611bbb6120f9565b611bc58284611e54565b805190915015801590611bd85750600084115b15611bf9576000611be98583611eb4565b9050611bf788826000611f34565b505b50505050505050565b600082820183811015611c5c576040805162461bcd60e51b815260206004820152601b60248201527f536166654d6174683a206164646974696f6e206f766572666c6f770000000000604482015290519081900360640190fd5b90505b92915050565b6000611c5c83836040518060400160405280601e81526020017f536166654d6174683a207375627472616374696f6e206f766572666c6f770000815250612062565b6038546035546040805163269c5ec960e21b81526001600160a01b03928316600482015290516000939290921691639a717b2491602480820192602092909190829003018186803b158015611cfb57600080fd5b505afa158015611d0f573d6000803e3d6000fd5b505050506040513d6020811015611d2557600080fd5b5051905080611d655760405162461bcd60e51b815260040180806020018281038252604a81526020018061242d604a913960600191505060405180910390fd5b6001600160a01b0383166000908152603c6020526040812054611d8e908463ffffffff611c0216565b9050611d986120f9565b5060408051602080820183526001600160a01b0387166000908152603c90915291909120600201548152611dca6120f9565b5060408051602080820183528582526001600160a01b0388166000908152603c909152919091206002018490558151158015611e065750805115155b15611e1057805182525b611e186120f9565b611e228284611e54565b805190915015801590611e355750600084115b15611bf9576000611e468583611eb4565b9050611bf788826001611f34565b611e5c6120f9565b825182511115611e9d5760405162461bcd60e51b81526004018080602001828103825260888152602001806123a56088913960a00191505060405180910390fd5b505190516040805160208101909152919003815290565b6000821580611ec257508151155b15611ecf57506000611c5f565b815183810290848281611ede57fe5b0414611f1b5760405162461bcd60e51b815260040180806020018281038252603b81526020018061210d603b913960400191505060405180910390fd5b6ec097ce7bc90715b34b9f100000000090049392505050565b6001600160a01b0383166000908152603b6020526040902054611f5d908363ffffffff611c0216565b6001600160a01b038085166000818152603b60209081526040918290208590556035548251941684528301919091528315158282015260608201859052608082019290925290517fa6c7ba999929d128350b8d7b476c0d3decb90386500154e6e906d910d950e95e9181900360a00190a1603a546001600160a01b0384166000908152603b602052604090205411156106f9576038546035546001600160a01b038581166000818152603b6020908152604080832054815163b482e0d160e01b81529686166004880152602487019490945260448601939093529151929094169363b482e0d19360648082019492918390030190829087803b15801561192457600080fd5b600081848411156120f15760405162461bcd60e51b81526004018080602001828103825283818151815260200191508051906020019080838360005b838110156120b657818101518382015260200161209e565b50505050905090810190601f1680156120e35780820380516001836020036101000a031916815260200191505b509250505060405180910390fd5b505050900390565b604051806020016040528060008152509056fe534947482053747265616d3a204d756c7469706c69636174696f6e202875696e74202a20446f75626c6529206c657420746f206f766572666c6f775468652063616c6c6572206f6620746869732066756e6374696f6e206d75737420626520746865206173736f6369617465642049546f6b656e20436f6e7472616374426f72726f77696e672024534947482053747265616d2073747265616d2063616e206f6e6c79206265207265646972656374656420696620746865726520697320612076616c6964205072696e636970616c20426f72726f77696e672042616c616e6365206163637572696e6720245349474820666f72207468652075736572426f72726f77696e672024534947482053747265616d20697320616c7265616479207265646972656374656420746f207468652070726f7669646564206163636f756e745349474820446973747269627574696f6e2048616e646c65722072657475726e656420696e76616c696420626f72726f7720496e64657820666f722074686520696e737472756d656e744c69717569646974792024534947482053747265616d20697320616c7265616479207265646972656374656420746f207468652070726f7669646564206163636f756e744c69717569646974792024534947482053747265616d2073747265616d2063616e206f6e6c79206265207265646972656374656420696620746865726520697320612076616c6964204c69717569646974792042616c616e6365206163637572696e6720245349474820666f72207468652075736572557365722063616e6e6f74206769766520616c6c6f77616e636520746f2068696d73656c66436f6e747261637420696e7374616e63652068617320616c7265616479206265656e20696e697469616c697a6564534947482053747265616d3a20446f75626c65204d616e7469737361205375627472616374696f6e20756e646572666c6f772c20616d6f756e7420746f20626520737562747261637465642067726561746572207468616e2074686520616d6f756e742066726f6d207768696368206974206e6565647320746f20626520737562747261637465645349474820446973747269627574696f6e2048616e646c65722072657475726e656420696e76616c696420737570706c7920496e64657820666f722074686520696e737472756d656e7443616c6c6572206973206e6f7420616c6c6f77656420746f20726564697265637420746865204c69717569646974792024534947482053747265616d206f6620746865207573657243616c6c6572206973206e6f7420616c6c6f77656420746f2072656469726563742074686520426f72726f77696e672024534947482053747265616d206f66207468652075736572a265627a7a723158209a6929fc909e47ae00897eb305c5db4aab164955ec258b85125f922b44c563b264736f6c63430005100032",
  "source": "pragma solidity ^0.5.0;\n\nimport \"../openzeppelin-upgradeability/VersionedInitializable.sol\";\n\nimport \"../Configuration/IGlobalAddressesProvider.sol\";\nimport \"../SIGHFinanceContracts/Interfaces/ISIGHVolatilityHarvester.sol\";\nimport \"./interfaces/ILendingPoolCore.sol\";\nimport \"./interfaces/ITokenInterface.sol\";\n\nimport \"./libraries/WadRayMath.sol\";\nimport \"./interfaces/ISighStream.sol\";\n\nimport \"openzeppelin-solidity/contracts/math/SafeMath.sol\";\n\n//import \"./libraries/WadRayMath.sol\";\n\n/**\n * @title  $SIGH STREAMS\n *\n * @dev Implementation of the $SIGH Liquidity & Borrowing Streams for ITokens.\n * @author SIGH Finance \n */\ncontract SighStream is ISighStream, VersionedInitializable {\n\n    using SafeMath for uint256;\n    uint private sighInitialIndex = 1e36;        // INDEX (SIGH RELATED)\n\n    address public underlyingInstrumentAddress;\n    ITokenInterface public iToken;\n\n    IGlobalAddressesProvider private globalAddressesProvider;     // Only used in Constructor()\n    ISIGHVolatilityHarvester public SIGHVolatilityHarvesterContract; // Fetches Instrument Indexes/ Calls Function to transfer accured SIGH\n    ILendingPoolCore private core;                                  // Fetches user borrow Balances\n\n    struct Double {\n        uint mantissa;\n    }\n\n    struct Exp {\n        uint mantissa;\n    }\n\n    // $SIGH PARAMETERS\n    // EACH USER HAS 2 $SIGH STREAMS :-\n    // 1. $SIGH STREAM BASED ON VOLATILITY OF THE LIQUIDITY PROVIDED\n    // 1. $SIGH STREAM BASED ON VOLATILITY OF THE BORROWED AMOUNT\n    // ---> Each $SIGH Stream can be Re-directed to another Account\n    // ---> Authority to re-direct each $SIGH Stream can be given to another Account\n    // ---> $SIGH Accured by a particular user = \n    // -----> if (Liquidity $SIGH not redirected ) => $SIGH Accured += Liquidity $SIGH Stream\n    // -----> if (Borrow balance based $SIGH not redirected ) => $SIGH Accured += Borrowing $SIGH Stream\n    // ----->  => $SIGH Accured += SUM(Liquidity $SIGH Streams re-directed to this account), this SUM is calculated by accuring $SIGH over the cummulated re-directed balance\n    // ----->  => $SIGH Accured += SUM(Borrowing $SIGH Streams re-directed to this account), this SUM is calculated by accuring $SIGH over the cummulated re-directed balance\n\n    uint public sigh_Transfer_Threshold = 1e19;                         // SIGH Transferred when accured >= 1 SIGH (in ETH)\n    mapping (address => uint256) private AccuredSighBalance;           // SIGH Collected - ADDED BY SIGH FINANCE\n    \n    struct user_SIGH_State {\n        uint256 userLiquiditySIGHStreamRedirectedBalance;        // SUM(Balance of Accounts from which Liquidity $SIGH Streams have been re-directed to this account)\n        uint256 userBorrowingSIGHStreamRedirectedBalance;        // SUM(Balance of Accounts from which Borrowing $SIGH Streams have been re-directed to this account)\n\n        uint256 userLiquiditySIGHStreamIndex;                     // SupplierIndex - ADDED BY SIGH FINANCE\n        uint256 userBorrowingSIGHStreamIndex;                     // BorrowerIndex - ADDED BY SIGH FINANCE\n\n        address userLiquiditySIGHStreamRedirectionAddress;       // Redirection Address - ADDED BY SIGH FINANCE\n        address userBorrowingSIGHStreamRedirectionAddress;       // Redirection Address - ADDED BY SIGH FINANCE\n\n        address userLiquiditySIGHStreamRedirectionAllowance;    // Allowance - ADDED BY SIGH FINANCE\n        address userBorrowingSIGHStreamRedirectionAllowance;    // Allowance - ADDED BY SIGH FINANCE\n    }\n    \n    mapping (address => user_SIGH_State) private user_SIGH_States;              \n\n    // $SIGH STREAMS RELATED EVENTS\n\n    // LIQUIDITY $SIGH STREAM\n    event LiquiditySIGHStreamRedirectionAllowanceChanged(address instrument, address user, address allowedAccount );\n    event LiquiditySIGHStreamStreamRedirected(address instrument,  address fromAccount, address toAccount, uint redirectedBalance );\n    event LiquiditySIGHStreamRedirectedBalanceUpdated(address instrument,  address redirectionAddress,uint _balanceToAdd,uint _balanceToRemove,uint totalRedirectedBalanceForLiquiditySIGHStream );\n\n    // BORROWING $SIGH STREAM\n    event BorrowingSIGHStreamRedirectionAllowanceChanged(address instrument,  address user, address allowedAccount );\n    event BorrowingSIGHStreamStreamRedirected(address instrument,  address fromAccount, address toAccount, uint redirectedBalance );\n    event BorrowingSIGHStreamRedirectedBalanceUpdated(address instrument,  address redirectionAddress,uint _balanceToAdd,uint _balanceToRemove,uint totalRedirectedBalanceForBorrowingSIGHStream );\n\n    event SighAccured(address instrument, address user, bool isLiquidityStream, uint recentSIGHAccured  , uint AccuredSighBalance );\n\n    modifier onlyITokenContract {\n        require( msg.sender == address(iToken), \"The caller of this function must be the associated IToken Contract\");\n        _;\n    }    \n    \n\n// ####################################################################################################################\n// ####### PROXY RELATED ##############################################################################################\n// ######  1. Sets the underlyingInstrumentAddress, and _iTokenAddress.              ###############################################################\n// ######  2. The GlobalAddressesProvider's address is used to get the LendingPoolCore #######################################################\n// ######     contract address, Sigh Distribution Handler contract address,  and set them.    ###################\n// ####################################################################################################################\n\n    uint256 public constant CONFIGURATOR_REVISION = 0x1;\n\n    function getRevision() internal pure returns (uint256) {\n        return CONFIGURATOR_REVISION;\n    }\n\n    function initialize(IGlobalAddressesProvider _globalAddressesProvider, address _underlyingAsset, address _iTokenAddress) public initializer {\n        globalAddressesProvider = _globalAddressesProvider;\n        core = ILendingPoolCore(globalAddressesProvider.getLendingPoolCore());\n        SIGHVolatilityHarvesterContract = ISIGHVolatilityHarvester(globalAddressesProvider.getSIGHMechanismHandler());\n        iToken = ITokenInterface(_iTokenAddress) ;\n\n        underlyingInstrumentAddress = _underlyingAsset;\n    }\n\n\n// ###########################################################################################################################################################\n// ###########################################################################################################################################################\n// ###########################################################################################################################################################\n// ###########################################################################################################################################################\n// ###########################################################################################################################################################\n// ###########################################################################################################################################################\n// ###########################################################################################################################################################\n// ###########################################################################################################################################################\n// ###########################################################################################################################################################\n// ###########################################################################################################################################################\n// ######  ____ REDIRECTING Liquidity $SIGH STREAMS : FUNCTIONALITY ____     ##############################################################################################################\n// ######  1. redirectLiquiditySIGHStream() [EXTERNAL] : User himself redirects his Liquidity SIGH stream.      #################################################################\n// ######  2. allowLiquiditySIGHRedirectionTo() [EXTERNAL] : User gives the permission of redirecting the Liquidity SIGH stream to another account     ##########################\n// ######  2. redirectLiquiditySIGHStreamOf() [EXTERNAL] : When account given the permission to redirect Liquidity SIGH stream (by the user) redirects the stream.    ###########\n// ######  3. redirectLiquiditySIGHStreamInternal() [INTERNAL] --> Executes the redirecting of the Liquidity SIGH stream    #####################################################\n// ###########################################################################################################################################################\n// ###########################################################################################################################################################\n// ###########################################################################################################################################################\n// ###########################################################################################################################################################\n// ###########################################################################################################################################################\n// ###########################################################################################################################################################\n// ###########################################################################################################################################################\n// ###########################################################################################################################################################\n// ###########################################################################################################################################################\n// ###########################################################################################################################################################\n\n\n    /**\n    * @dev redirects the Liquidity $SIGH Stream being generated to a target address. \n    * @param _to the address to which the Liquidity $SIGH Stream will be redirected\n    **/\n    function redirectLiquiditySIGHStream(address from, address _to) external onlyITokenContract {\n        redirectLiquiditySIGHStreamInternal(msg.sender, _to);\n    }\n\n    /**\n    * @dev gives allowance to an address to execute the Liquidity $SIGH Stream redirection on behalf of the caller.\n    * @param _to the address to which the Liquidity $SIGH Stream redirection permission is given. Pass address(0) to reset the allowance.\n    **/\n    function allowLiquiditySIGHRedirectionTo(address from, address _to) external onlyITokenContract {\n        require(_to != from, \"User cannot give allowance to himself\");\n        user_SIGH_States[from].userLiquiditySIGHStreamRedirectionAllowance = _to;\n        emit LiquiditySIGHStreamRedirectionAllowanceChanged( underlyingInstrumentAddress, from , _to);\n    }\n\n    /**\n    * @dev redirects the Liquidity $SIGH Stream generated by _from to a target address.\n    * The caller needs to have allowance on the Liquidity $SIGH Stream redirection to be able to execute the function.\n    * @param _from the address of the user whom Liquidity $SIGH Stream is being redirected\n    * @param _to the address to which the Liquidity $SIGH Stream will be redirected\n    **/\n    function redirectLiquiditySIGHStreamOf(address user, address _from, address _to) external onlyITokenContract {\n        require( user == user_SIGH_States[_from].userLiquiditySIGHStreamRedirectionAllowance , \"Caller is not allowed to redirect the Liquidity $SIGH Stream of the user\");\n        redirectLiquiditySIGHStreamInternal(_from,_to);\n    }\n\n    /**\n    * @dev executes the redirection of the Liquidity $SIGH Stream from one address to another.\n    * immediately after redirection, the destination address will start to accrue $SIGH from Liquidity $SIGH Stream.\n    * @param _from the source address\n    * @param _to the destination address\n    **/\n    function redirectLiquiditySIGHStreamInternal( address _from, address _to) internal {\n\n        // check 1\n        address currentRedirectionAddress = user_SIGH_States[_from].userLiquiditySIGHStreamRedirectionAddress;\n        require(_to != currentRedirectionAddress, \"Liquidity $SIGH Stream is already redirected to the provided account\");\n\n        // check 2\n        (,uint256 currentBalance , uint256 balanceIncrease, ) = iToken.cumulateBalance(_from);\n        require( iToken.balanceOf(_from) > 0, \"Liquidity $SIGH Stream stream can only be redirected if there is a valid Liquidity Balance accuring $SIGH for the user\");\n        \n\n        // if the user is already redirecting the Liquidity $SIGH Stream to someone, before changing the redirection address \n        // 1. Add the interest accured by From Account to the redirected address\n        // 1. We accure $SIGH for that address\n        // 2. We substract the redirected balance of the from account from that address\n        if (currentRedirectionAddress != address(0)) { \n             updateRedirectedBalanceOfLiquiditySIGHStreamRedirectionAddressesInternal(_from, balanceIncrease, 0 );    \n            (,uint256 redirectionAddressAccountBalance, ,) = iToken.cumulateBalance(currentRedirectionAddress);    //cumulates the balance of the user being liquidated\n            accure_SIGH_For_LiquidityStream_Internal(currentRedirectionAddress, redirectionAddressAccountBalance );\n            updateRedirectedBalanceOfLiquiditySIGHStreamRedirectionAddressesInternal(_from,0, currentBalance );\n        }\n\n        //   if the user is redirecting the Liquidity $SIGH Stream back to himself, we simply set to 0 the Liquidity $SIGH Stream redirection address\n        if(_to == _from) {               \n            user_SIGH_States[_from].userLiquiditySIGHStreamRedirectionAddress = address(0);\n            emit LiquiditySIGHStreamStreamRedirected(underlyingInstrumentAddress, _from, address(0), currentBalance );\n            return;\n        }\n\n        // Redirecting Liquidity $SIGH Stream and adding the user balance to the redirected balance of the redirection address\n        user_SIGH_States[_from].userLiquiditySIGHStreamRedirectionAddress = _to;     \n        updateRedirectedBalanceOfLiquiditySIGHStreamRedirectionAddressesInternal(_from,currentBalance,0);                               \n        emit LiquiditySIGHStreamStreamRedirected(underlyingInstrumentAddress, _from, _to, currentBalance );\n    }\n\n// ###########################################################################################################################################################\n// ######  ____  Liquidity $SIGH STREAMS : FUNCTIONALITY ____     ##############################################################################################################\n// ######  1. updateRedirectedBalanceOfLiquiditySIGHStreamRedirectionAddress() [EXTERNAL]\n// ######  ---> Addition / Subtraction from the redirected balance of the address to which the user's Liquidity $SIGH stream is redirected      \n// ######  2. accureLiquiditySighStream() [EXTERNAL]  \n// ######  ---> Calls accureLiquiditySighStreamInternal()\n// ######  3. accureLiquiditySighStreamInternal() [EXTERNAL]  \n// ######  ---> Calls accure_SIGH_For_LiquidityStream_Internal() in case SIGH needs to be accured for both the user and the address to which it is redirecting $SIGH\n// ######  4. accure_SIGH_For_LiquidityStream_Internal() [EXTERNAL]  \n// ######  ---> Accures $SIGH for the user\n// ###########################################################################################################################################################\n\n    /**\n    * @dev Updates the Liquidity $SIGH Stream Redirected Balances of the user. If the user is not redirecting anything, nothing is executed.\n    * @param _user the address of the user for which the some change in the Liquidity is happening\n    * @param _balanceToAdd the amount to add to the redirected balance\n    * @param _balanceToRemove the amount to remove from the redirected balance\n    **/\n    function updateRedirectedBalanceOfLiquiditySIGHStreamRedirectionAddress( address _user, uint256 _balanceToAdd, uint256 _balanceToRemove ) external onlyITokenContract {\n        updateRedirectedBalanceOfLiquiditySIGHStreamRedirectionAddressesInternal(_user,_balanceToAdd,_balanceToRemove);\n    }\n\n    function updateRedirectedBalanceOfLiquiditySIGHStreamRedirectionAddressesInternal( address _user, uint256 _balanceToAdd, uint256 _balanceToRemove ) internal {\n        address redirectionAddress = user_SIGH_States[_user].userLiquiditySIGHStreamRedirectionAddress;\n        if(redirectionAddress == address(0)){           //if there isn't any redirection, nothing to be done\n            return;\n        }\n        //updating the redirected balance\n        user_SIGH_States[redirectionAddress].userLiquiditySIGHStreamRedirectedBalance = user_SIGH_States[redirectionAddress].userLiquiditySIGHStreamRedirectedBalance.add(_balanceToAdd).sub(_balanceToRemove);\n        emit LiquiditySIGHStreamRedirectedBalanceUpdated(underlyingInstrumentAddress, redirectionAddress, _balanceToAdd, _balanceToRemove, user_SIGH_States[redirectionAddress].userLiquiditySIGHStreamRedirectedBalance );\n    }\n\n    function accureLiquiditySighStream( address supplier, uint unaccountedBalanceIncrease , uint256 currentCompoundedBalance )  external onlyITokenContract   {\n        accureLiquiditySighStreamInternal(supplier,unaccountedBalanceIncrease,currentCompoundedBalance);\n    }\n\n    // $SIGH Accured for the Supplier (depositor/redeemer) and the address to which it is redirecting its stream to\n    // --> For the redirected address, we cumulate its interest if it is not redirecting again\n    // SIGH Accured by Supplier = { SUM(Redirected balances) + User's Balance (Only if it is also not redirected) } * {Delta Index}\n    function accureLiquiditySighStreamInternal( address supplier, uint unaccountedBalanceIncrease , uint256 currentCompoundedBalance )  internal  {\n        if (user_SIGH_States[supplier].userLiquiditySIGHStreamRedirectionAddress == address(0)) {\n            accure_SIGH_For_LiquidityStream_Internal( supplier,currentCompoundedBalance );        \n        }\n        else {\n            address redirectionAddress = user_SIGH_States[supplier].userLiquiditySIGHStreamRedirectionAddress;\n            if (user_SIGH_States[redirectionAddress].userLiquiditySIGHStreamRedirectionAddress == address(0) ) {\n                (,uint256 accountBalance, uint256 balanceIncrease, uint256 index) = iToken.cumulateBalance(redirectionAddress);    //cumulates the balance of the user being liquidated\n                accure_SIGH_For_LiquidityStream_Internal(redirectionAddress,accountBalance.add(unaccountedBalanceIncrease) );\n            }\n            else {\n                accure_SIGH_For_LiquidityStream_Internal(redirectionAddress,unaccountedBalanceIncrease);\n            }\n            accure_SIGH_For_LiquidityStream_Internal(supplier,0);\n        }\n    }\n\n\n    function accure_SIGH_For_LiquidityStream_Internal( address user, uint256 currentCompoundedBalance ) internal  {\n        uint supplyIndex = SIGHVolatilityHarvesterContract.getInstrumentSupplyIndex( underlyingInstrumentAddress );      // Instrument index retreived from the SIGHVolatilityHarvester Contract\n        require(supplyIndex > 0, \"SIGH Distribution Handler returned invalid supply Index for the instrument\");\n\n        // Total Balance = SUM(Redirected balances) + User's Balance (Only if it is not redirected)\n        uint totalBalanceForAccuringSIGH = user_SIGH_States[user].userLiquiditySIGHStreamRedirectedBalance.add(currentCompoundedBalance);\n\n        Double memory userIndex = Double({mantissa: user_SIGH_States[user].userLiquiditySIGHStreamIndex}) ;      // Stored User Index\n        Double memory instrumentIndex = Double({mantissa: supplyIndex});                        // Instrument Index\n        user_SIGH_States[user].userLiquiditySIGHStreamIndex = instrumentIndex.mantissa;                                   // User Index is UPDATED\n\n        if (userIndex.mantissa == 0 && instrumentIndex.mantissa > 0) {\n            userIndex.mantissa = instrumentIndex.mantissa; // sighInitialIndex;\n        }\n\n        Double memory deltaIndex = sub_(instrumentIndex, userIndex);                                // , 'Distribute Supplier SIGH : supplyIndex Subtraction Underflow'\n\n        if ( deltaIndex.mantissa > 0 && totalBalanceForAccuringSIGH > 0 ) {\n            uint supplierSighDelta = mul_(totalBalanceForAccuringSIGH, deltaIndex);                                      // Supplier Delta = Balance * Double(DeltaIndex)/DoubleScale\n            accureSigh(user, supplierSighDelta, true );        // ACCURED SIGH AMOUNT IS ADDED TO THE AccuredSighBalance of the Supplier or the address to which SIGH is being redirected to \n        }\n    }\n\n// ###########################################################################################################################################################\n// ###########################################################################################################################################################\n// ###########################################################################################################################################################\n// ###########################################################################################################################################################\n// ###########################################################################################################################################################\n// ###########################################################################################################################################################\n// ###########################################################################################################################################################\n// ###########################################################################################################################################################\n// ###########################################################################################################################################################\n// ###########################################################################################################################################################\n// ######  ____ REDIRECTING Borrowing $SIGH STREAMS : FUNCTIONALITY ____     ##############################################################################################################\n// ######  1. redirectBorrowingSIGHStream() [EXTERNAL] : User himself redirects his Borrowing SIGH Stream.      #################################################################\n// ######  2. allowBorrowingSIGHRedirectionTo() [EXTERNAL] : User gives the permission of redirecting the Borrowing SIGH Stream to another account     ##########################\n// ######  2. redirectBorrowingSIGHStreamOf() [EXTERNAL] : When account given the permission to redirect Borrowing SIGH Stream (by the user) redirects the stream.    ###########\n// ######  3. redirectBorrowingSIGHStreamInternal() [INTERNAL] --> Executes the redirecting of the Borrowing SIGH Stream    #####################################################\n// ###########################################################################################################################################################\n// ###########################################################################################################################################################\n// ###########################################################################################################################################################\n// ###########################################################################################################################################################\n// ###########################################################################################################################################################\n// ###########################################################################################################################################################\n// ###########################################################################################################################################################\n// ###########################################################################################################################################################\n// ###########################################################################################################################################################\n// ###########################################################################################################################################################\n\n    /**\n    * @dev redirects the Borrowing $SIGH Stream being generated to a target address. \n    * @param _to the address to which the Borrowing $SIGH Stream will be redirected\n    **/\n    function redirectBorrowingSIGHStream(address user, address _to) external onlyITokenContract {\n        redirectBorrowingSIGHStreamInternal(user, _to);\n    }\n\n    /**\n    * @dev gives allowance to an address to execute the Borrowing $SIGH Stream redirection on behalf of the caller.\n    * @param _to the address to which the Borrowing $SIGH Stream redirection permission is given. Pass address(0) to reset the allowance.\n    **/\n    function allowBorrowingSIGHRedirectionTo(address user, address _to) external onlyITokenContract {\n        require(_to != user, \"User cannot give allowance to himself\");\n        user_SIGH_States[user].userBorrowingSIGHStreamRedirectionAllowance = _to;\n        emit BorrowingSIGHStreamRedirectionAllowanceChanged(underlyingInstrumentAddress, user, _to);\n    }\n\n    /**\n    * @dev redirects the Borrowing $SIGH Stream generated by _from to a target address.\n    * The caller needs to have allowance on the Borrowing $SIGH Stream redirection to be able to execute the function.\n    * @param _from the address of the user whom Borrowing $SIGH Stream is being redirected\n    * @param _to the address to which the Borrowing $SIGH Stream will be redirected\n    **/\n    function redirectBorrowingSIGHStreamOf(address user, address _from, address _to) external onlyITokenContract {\n        require( user == user_SIGH_States[_from].userBorrowingSIGHStreamRedirectionAllowance, \"Caller is not allowed to redirect the Borrowing $SIGH Stream of the user\");\n        redirectBorrowingSIGHStreamInternal(_from,_to);\n    }\n\n    /**\n    * @dev executes the redirection of the Borrowing $SIGH Stream from one address to another.\n    * immediately after redirection, the destination address will start to accrue $SIGH from Borrowing $SIGH Stream.\n    * @param _from the source address\n    * @param _to the destination address\n    **/\n    function redirectBorrowingSIGHStreamInternal( address _from, address _to) internal {\n\n        // check 1\n        address currentRedirectionAddress = user_SIGH_States[_from].userBorrowingSIGHStreamRedirectionAddress;\n        require(_to != currentRedirectionAddress, \"Borrowing $SIGH Stream is already redirected to the provided account\");\n\n        // check 2\n        ( uint principalBorrowBalance , uint compoundedBorrowBalance , uint balanceIncrease) = core.getUserBorrowBalances(underlyingInstrumentAddress, _from);                                 // Getting Borrow Balance of the User from LendingPool Core \n        require( compoundedBorrowBalance > 0, \"Borrowing $SIGH Stream stream can only be redirected if there is a valid Principal Borrowing Balance accuring $SIGH for the user\");\n        \n\n        // if the user is already redirecting the Borrowing $SIGH Stream to someone, before changing the redirection address \n        // 1. Add the compounded borrow interest by From Account to the redirected address\n        // 1. We accure $SIGH for that address\n        // 2. We substract the redirected compounded balance of the from account from that address\n        if (currentRedirectionAddress != address(0)) { \n            accureBorrowingSighStreamInternal( _from );\n            updateRedirectedBalanceOfBorrowingSIGHStreamRedirectionAddressInternal(_from,0, principalBorrowBalance );\n        }\n\n        //   if the user is redirecting the Borrowing $SIGH Stream back to himself, we simply set to 0 the Borrowing $SIGH Stream redirection address\n        if(_to == _from) {               \n            user_SIGH_States[_from].userBorrowingSIGHStreamRedirectionAddress = address(0);\n            emit BorrowingSIGHStreamStreamRedirected(underlyingInstrumentAddress,  _from, address(0), principalBorrowBalance );\n            return;\n        }\n\n        // Redirecting Borrowing $SIGH Stream and adding the user principal borrow balance to the redirected balance of the redirection address\n        user_SIGH_States[_from].userBorrowingSIGHStreamRedirectionAddress = _to;     \n        updateRedirectedBalanceOfBorrowingSIGHStreamRedirectionAddressInternal(_from,principalBorrowBalance,0);                               \n        emit BorrowingSIGHStreamStreamRedirected(underlyingInstrumentAddress,  _from, _to, principalBorrowBalance );\n    }\n\n// ###########################################################################################################################################################\n// ######  ____  Borrowing $SIGH Streams : FUNCTIONALITY ____     ##############################################################################################################\n// ######  1. updateRedirectedBalanceOfBorrowingSIGHStreamRedirectionAddressesInternal() [INTERNAL] : Addition / Subtraction from the redirected balance of the address to which the user's Borrowing $SIGH Stream is redirected      #################################################################\n// ######  2. accure_SIGH_For_BorrowingStream() [INTERNAL] : Accure SIGH from the Borrowing $SIGH Streams     ##########################\n// ###########################################################################################################################################################\n\n\n    /**\n    * @dev Updates the Borrowing $SIGH Stream Redirected Balances of the user. If the user is not redirecting anything, nothing is executed.\n    * @param _user the address of the user for which the some change in the Liquidity is happening\n    * @param _balanceToAdd the amount to add to the redirected balance\n    * @param _balanceToRemove the amount to remove from the redirected balance\n    **/\n    function updateRedirectedBalanceOfBorrowingSIGHStreamRedirectionAddress( address _user, uint256 _balanceToAdd, uint256 _balanceToRemove ) onlyITokenContract external {\n        updateRedirectedBalanceOfBorrowingSIGHStreamRedirectionAddressInternal(_user,_balanceToAdd,_balanceToRemove);\n    }\n\n    function updateRedirectedBalanceOfBorrowingSIGHStreamRedirectionAddressInternal( address _user, uint256 _balanceToAdd, uint256 _balanceToRemove ) internal {\n        address redirectionAddress = user_SIGH_States[_user].userBorrowingSIGHStreamRedirectionAddress;\n        if(redirectionAddress == address(0)){           //if there isn't any redirection, nothing to be done\n            return;\n        }\n        //updating the redirected balance\n        user_SIGH_States[redirectionAddress].userBorrowingSIGHStreamRedirectedBalance = user_SIGH_States[redirectionAddress].userBorrowingSIGHStreamRedirectedBalance.add(_balanceToAdd).sub(_balanceToRemove);\n        emit BorrowingSIGHStreamRedirectedBalanceUpdated(underlyingInstrumentAddress,  redirectionAddress, _balanceToAdd, _balanceToRemove, user_SIGH_States[redirectionAddress].userBorrowingSIGHStreamRedirectedBalance );\n    }\n\n\n    // \"userBorrowingSIGHStreamIndex\" tracks the SIGH Accured per Instrument. user Index tracks the Sigh Accured by the user per Instrument\n    // Delta Index = Instrument Index - User Index\n    // SIGH Accured by user = { SUM(Redirected balances) + User's Compounded Borrow Balance (Only if it is also not redirected) } * {Delta Index}\n    function accure_SIGH_For_BorrowingStream( address user) external onlyITokenContract {\n        accureBorrowingSighStreamInternal(user);\n    }\n\n    function accureBorrowingSighStreamInternal( address user) internal  {\n        ( uint principalBorrowBalance , uint compoundedBorrowBalance , uint balanceIncrease) = core.getUserBorrowBalances(underlyingInstrumentAddress, user);          // Getting Borrow Balance of the User from LendingPool Core \n        \n        // Total Balance = SUM(Redirected balances) + User's Balance (Only if it is not redirected)\n        if (user_SIGH_States[user].userBorrowingSIGHStreamRedirectionAddress == address(0)) {\n            accure_SIGH_For_BorrowingStreamInternal(user, compoundedBorrowBalance );\n        }\n        else {\n            address redirectionAddress = user_SIGH_States[user].userBorrowingSIGHStreamRedirectionAddress;\n            if (user_SIGH_States[redirectionAddress].userBorrowingSIGHStreamRedirectionAddress == address(0) ) {\n                (  , uint _compoundedBorrowBalance , ) = core.getUserBorrowBalances(underlyingInstrumentAddress, redirectionAddress);          // Getting Borrow Balance of the User from LendingPool Core \n                accure_SIGH_For_BorrowingStreamInternal(redirectionAddress, _compoundedBorrowBalance.add(balanceIncrease) );\n            }\n            else {\n                accure_SIGH_For_BorrowingStreamInternal(redirectionAddress, balanceIncrease );\n            }\n        }\n    }\n\n    function accure_SIGH_For_BorrowingStreamInternal(address user, uint compoundedBalance) internal {\n        uint borrowIndex = SIGHVolatilityHarvesterContract.getInstrumentBorrowIndex( underlyingInstrumentAddress );      // Instrument index retreived from the SIGHVolatilityHarvester Contract\n        require(borrowIndex > 0, \"SIGH Distribution Handler returned invalid borrow Index for the instrument\");\n\n        // Total Balance = SUM(Redirected balances) + User's Balance (Only if it is not redirected)\n        uint totalBalanceForAccuringSIGH = user_SIGH_States[user].userBorrowingSIGHStreamRedirectedBalance.add(compoundedBalance);\n\n        Double memory userIndex = Double({ mantissa: user_SIGH_States[user].userBorrowingSIGHStreamIndex }) ;      // Stored User Index\n        Double memory instrumentIndex = Double({mantissa: borrowIndex});                        // Instrument Index\n        user_SIGH_States[user].userBorrowingSIGHStreamIndex = instrumentIndex.mantissa;                                   // User Index is UPDATED\n\n        if (userIndex.mantissa == 0 && instrumentIndex.mantissa > 0) {\n            userIndex.mantissa = instrumentIndex.mantissa; // sighInitialIndex;\n        }\n\n        Double memory deltaIndex = sub_(instrumentIndex, userIndex);                                // , 'Distribute Supplier SIGH : supplyIndex Subtraction Underflow'\n\n        if ( deltaIndex.mantissa > 0 && totalBalanceForAccuringSIGH > 0 ) {\n            uint borrowerSighDelta = mul_(totalBalanceForAccuringSIGH, deltaIndex);                                      // Supplier Delta = Balance * Double(DeltaIndex)/DoubleScale\n            accureSigh(user, borrowerSighDelta, false );        // ACCURED SIGH AMOUNT IS ADDED TO THE AccuredSighBalance of the Supplier or the address to which SIGH is being redirected to \n        }\n    }\n\n// ###########################################################################\n// ###########################################################################\n// ###########################################################################\n// ###########################################################################\n// ###########################################################################\n// ###########################################################################\n// ###########################################################################\n// ############ ______SIGH ACCURING AND STREAMING FUNCTIONS______ ############\n// ############ 1. accureSigh() [INTERNAL] : \n// ############ 2. claimMySIGH() [EXTERNAL] : All accured SIGH is transferred to the transacting account.\n// ############ 3. claimSIGH() [EXTERNAL]  : Accepts an array of users. Same as 1 but for array of users.\n// ############ 4. claimSighInternal() [INTERNAL] : CAlled from 1. and 2.\n// ###########################################################################\n// ###########################################################################\n// ###########################################################################\n// ###########################################################################\n// ###########################################################################\n// ###########################################################################\n// ###########################################################################\n\n\n    function claimMySIGH(address user) onlyITokenContract external {\n        claimSighInternal(user);\n    }\n\n\n    function claimSighInternal(address user) internal {\n        (,uint256 currentBalance , uint256 balanceIncrease, ) = iToken.cumulateBalance(user);\n        accureLiquiditySighStreamInternal(user, balanceIncrease, iToken.balanceOf(user) );\n        accureBorrowingSighStreamInternal(user);\n        if (AccuredSighBalance[user] > 0) {\n            AccuredSighBalance[user] = SIGHVolatilityHarvesterContract.transferSighTotheUser( underlyingInstrumentAddress, user, AccuredSighBalance[user] ); // Pending Amount Not Transferred is returned\n        }\n    }\n\n    /**\n     * @notice Accured SIGH amount is added to the ACCURED_SIGH_BALANCES of the Supplier/Borrower or the address to which SIGH is being redirected to.\n     * @param user The user for which SIGH is being accured\n     * @param accuredSighAmount The amount of SIGH accured\n     */\n    function accureSigh( address user, uint accuredSighAmount, bool isLiquidityStream ) internal {\n        AccuredSighBalance[user] = AccuredSighBalance[user].add(accuredSighAmount);   // Accured SIGH added to the redirected user's sigh balance                    \n        emit SighAccured( underlyingInstrumentAddress, user, isLiquidityStream, accuredSighAmount, AccuredSighBalance[user] );\n        if ( AccuredSighBalance[user] > sigh_Transfer_Threshold ) {   // SIGH is Transferred if SIGH_ACCURED_BALANCE > 1e18 SIGH\n            AccuredSighBalance[user] = SIGHVolatilityHarvesterContract.transferSighTotheUser( underlyingInstrumentAddress, user, AccuredSighBalance[user] ); // Pending Amount Not Transferred is returned\n        }\n    }\n\n// ###########################################################################\n// ###########################################################################\n// ###########################################################################\n// ###########################################################################\n// ###########################################################################\n// ###########################################################################\n// ###########################################################################\n// ######  VIEW FUNCTIONS ($SIGH STREAMS RELATED)    ################## \n// ###########################################################################\n// ###########################################################################\n// ###########################################################################\n// ###########################################################################\n// ###########################################################################\n// ###########################################################################\n// ###########################################################################\n\n\n    function getSighAccured(address account) external view returns (uint) {\n        return AccuredSighBalance[account];\n    }\n\n\n    function getSIGHStreamsRedirectedTo(address user) external view returns (address liquiditySIGHStreamRedirectionAddress,address BorrowingSIGHStreamRedirectionAddress ) {\n        return (user_SIGH_States[user].userLiquiditySIGHStreamRedirectionAddress , user_SIGH_States[user].userBorrowingSIGHStreamRedirectionAddress );\n    }\n\n    function getSIGHStreamsAllowances(address user) external view returns (address liquiditySIGHStreamRedirectionAllowance,address BorrowingSIGHStreamRedirectionAllowance ) {\n        return (user_SIGH_States[user].userLiquiditySIGHStreamRedirectionAllowance , user_SIGH_States[user].userBorrowingSIGHStreamRedirectionAllowance );\n    }    \n\n    function getSIGHStreamsIndexes(address user) external view returns (uint liquiditySIGHStreamIndex, uint borrowingSIGHStreamIndex) {\n        return (user_SIGH_States[user].userLiquiditySIGHStreamIndex , user_SIGH_States[user].userBorrowingSIGHStreamIndex) ;\n    }    \n\n    function getSIGHStreamsRedirectedBalances(address user) external view returns (uint liquiditySIGHStreamRedirectedBalance, uint borrowingSIGHStreamRedirectedBalance ) {\n        return (user_SIGH_States[user].userLiquiditySIGHStreamRedirectedBalance , user_SIGH_States[user].userBorrowingSIGHStreamRedirectedBalance);\n    }    \n\n\n// ###### SAFE MATH ######\n\n    function sub_(Double memory a, Double memory b) pure internal returns (Double memory) {\n        require(b.mantissa <= a.mantissa, \"SIGH Stream: Double Mantissa Subtraction underflow, amount to be subtracted greater than the amount from which it needs to be subtracted\");\n        uint result = a.mantissa - b.mantissa;\n        return Double({mantissa: result});\n    }\n\n\n    function mul_(uint a, Double memory b) pure internal returns (uint) {\n        if (a == 0 || b.mantissa == 0) {\n            return 0;\n        }\n        uint c = a * b.mantissa;\n        require( (c / a) == b.mantissa, \"SIGH Stream: Multiplication (uint * Double) let to overflow\");\n        uint doubleScale = 1e36;\n        return (c / doubleScale);\n    }\n    \n}",
  "sourcePath": "/Users/apple/Desktop/GITCOIN/Sigh_Finance/SighFinanceContracts/contracts/LendingProtocolContracts/SighStream.sol",
  "compiler": {
    "name": "solc",
    "version": "0.5.16+commit.9c3226ce.Emscripten.clang"
  },
  "schemaVersion": "3.2.4",
  "updatedAt": "2020-12-08T09:42:15.925Z",
  "devdoc": {
    "author": "SIGH Finance ",
    "details": "Implementation of the $SIGH Liquidity & Borrowing Streams for ITokens.",
    "methods": {
      "allowBorrowingSIGHRedirectionTo(address,address)": {
        "details": "gives allowance to an address to execute the Borrowing $SIGH Stream redirection on behalf of the caller.",
        "params": {
          "_to": "the address to which the Borrowing $SIGH Stream redirection permission is given. Pass address(0) to reset the allowance.*"
        }
      },
      "allowLiquiditySIGHRedirectionTo(address,address)": {
        "details": "gives allowance to an address to execute the Liquidity $SIGH Stream redirection on behalf of the caller.",
        "params": {
          "_to": "the address to which the Liquidity $SIGH Stream redirection permission is given. Pass address(0) to reset the allowance.*"
        }
      },
      "redirectBorrowingSIGHStream(address,address)": {
        "details": "redirects the Borrowing $SIGH Stream being generated to a target address. ",
        "params": {
          "_to": "the address to which the Borrowing $SIGH Stream will be redirected*"
        }
      },
      "redirectBorrowingSIGHStreamOf(address,address,address)": {
        "details": "redirects the Borrowing $SIGH Stream generated by _from to a target address. The caller needs to have allowance on the Borrowing $SIGH Stream redirection to be able to execute the function.",
        "params": {
          "_from": "the address of the user whom Borrowing $SIGH Stream is being redirected",
          "_to": "the address to which the Borrowing $SIGH Stream will be redirected*"
        }
      },
      "redirectLiquiditySIGHStream(address,address)": {
        "details": "redirects the Liquidity $SIGH Stream being generated to a target address. ",
        "params": {
          "_to": "the address to which the Liquidity $SIGH Stream will be redirected*"
        }
      },
      "redirectLiquiditySIGHStreamOf(address,address,address)": {
        "details": "redirects the Liquidity $SIGH Stream generated by _from to a target address. The caller needs to have allowance on the Liquidity $SIGH Stream redirection to be able to execute the function.",
        "params": {
          "_from": "the address of the user whom Liquidity $SIGH Stream is being redirected",
          "_to": "the address to which the Liquidity $SIGH Stream will be redirected*"
        }
      },
      "updateRedirectedBalanceOfBorrowingSIGHStreamRedirectionAddress(address,uint256,uint256)": {
        "details": "Updates the Borrowing $SIGH Stream Redirected Balances of the user. If the user is not redirecting anything, nothing is executed.",
        "params": {
          "_balanceToAdd": "the amount to add to the redirected balance",
          "_balanceToRemove": "the amount to remove from the redirected balance*",
          "_user": "the address of the user for which the some change in the Liquidity is happening"
        }
      },
      "updateRedirectedBalanceOfLiquiditySIGHStreamRedirectionAddress(address,uint256,uint256)": {
        "details": "Updates the Liquidity $SIGH Stream Redirected Balances of the user. If the user is not redirecting anything, nothing is executed.",
        "params": {
          "_balanceToAdd": "the amount to add to the redirected balance",
          "_balanceToRemove": "the amount to remove from the redirected balance*",
          "_user": "the address of the user for which the some change in the Liquidity is happening"
        }
      }
    },
    "title": "$SIGH STREAMS"
  },
  "userdoc": {
    "methods": {}
  }
}