{
  "contractName": "SIGH",
  "abi": [
    {
      "inputs": [],
      "payable": false,
      "stateMutability": "nonpayable",
      "type": "constructor"
    },
    {
      "anonymous": false,
      "inputs": [
        {
          "indexed": true,
          "internalType": "address",
          "name": "owner",
          "type": "address"
        },
        {
          "indexed": true,
          "internalType": "address",
          "name": "spender",
          "type": "address"
        },
        {
          "indexed": false,
          "internalType": "uint256",
          "name": "value",
          "type": "uint256"
        }
      ],
      "name": "Approval",
      "type": "event"
    },
    {
      "anonymous": false,
      "inputs": [
        {
          "indexed": false,
          "internalType": "address",
          "name": "speedController",
          "type": "address"
        },
        {
          "indexed": false,
          "internalType": "address",
          "name": "treasury",
          "type": "address"
        },
        {
          "indexed": false,
          "internalType": "uint256",
          "name": "blockNumber",
          "type": "uint256"
        }
      ],
      "name": "MintingInitialized",
      "type": "event"
    },
    {
      "anonymous": false,
      "inputs": [
        {
          "indexed": false,
          "internalType": "uint256",
          "name": "prevCycle",
          "type": "uint256"
        },
        {
          "indexed": false,
          "internalType": "uint256",
          "name": "newCycle",
          "type": "uint256"
        },
        {
          "indexed": false,
          "internalType": "uint256",
          "name": "blockNumber",
          "type": "uint256"
        },
        {
          "indexed": false,
          "internalType": "uint256",
          "name": "timeStamp",
          "type": "uint256"
        }
      ],
      "name": "NewCycle",
      "type": "event"
    },
    {
      "anonymous": false,
      "inputs": [
        {
          "indexed": false,
          "internalType": "uint256",
          "name": "prevEra",
          "type": "uint256"
        },
        {
          "indexed": false,
          "internalType": "uint256",
          "name": "newEra",
          "type": "uint256"
        },
        {
          "indexed": false,
          "internalType": "uint256",
          "name": "blockNumber",
          "type": "uint256"
        },
        {
          "indexed": false,
          "internalType": "uint256",
          "name": "timeStamp",
          "type": "uint256"
        }
      ],
      "name": "NewEra",
      "type": "event"
    },
    {
      "anonymous": false,
      "inputs": [
        {
          "indexed": false,
          "internalType": "address",
          "name": "userAddress",
          "type": "address"
        },
        {
          "indexed": false,
          "internalType": "uint256",
          "name": "amount",
          "type": "uint256"
        },
        {
          "indexed": false,
          "internalType": "uint256",
          "name": "totalBurnedAmount",
          "type": "uint256"
        },
        {
          "indexed": false,
          "internalType": "uint256",
          "name": "currentSupply",
          "type": "uint256"
        }
      ],
      "name": "SIGHBurned",
      "type": "event"
    },
    {
      "anonymous": false,
      "inputs": [
        {
          "indexed": false,
          "internalType": "address",
          "name": "minter",
          "type": "address"
        },
        {
          "indexed": false,
          "internalType": "uint256",
          "name": "cycle",
          "type": "uint256"
        },
        {
          "indexed": false,
          "internalType": "uint256",
          "name": "Era",
          "type": "uint256"
        },
        {
          "indexed": false,
          "internalType": "uint256",
          "name": "amountMinted",
          "type": "uint256"
        },
        {
          "indexed": false,
          "internalType": "uint256",
          "name": "current_supply",
          "type": "uint256"
        },
        {
          "indexed": false,
          "internalType": "uint256",
          "name": "timestamp",
          "type": "uint256"
        },
        {
          "indexed": false,
          "internalType": "uint256",
          "name": "block_number",
          "type": "uint256"
        }
      ],
      "name": "SIGHMinted",
      "type": "event"
    },
    {
      "anonymous": false,
      "inputs": [
        {
          "indexed": true,
          "internalType": "address",
          "name": "from",
          "type": "address"
        },
        {
          "indexed": true,
          "internalType": "address",
          "name": "to",
          "type": "address"
        },
        {
          "indexed": false,
          "internalType": "uint256",
          "name": "value",
          "type": "uint256"
        }
      ],
      "name": "Transfer",
      "type": "event"
    },
    {
      "anonymous": false,
      "inputs": [
        {
          "indexed": false,
          "internalType": "address",
          "name": "prevTreasury",
          "type": "address"
        },
        {
          "indexed": false,
          "internalType": "address",
          "name": "treasury",
          "type": "address"
        },
        {
          "indexed": false,
          "internalType": "uint256",
          "name": "blockNumber",
          "type": "uint256"
        }
      ],
      "name": "TreasuryChanged",
      "type": "event"
    },
    {
      "anonymous": false,
      "inputs": [
        {
          "indexed": false,
          "internalType": "uint256",
          "name": "C_Era_sub",
          "type": "uint256"
        },
        {
          "indexed": false,
          "internalType": "uint256",
          "name": "_newEra",
          "type": "uint256"
        }
      ],
      "name": "eraCalc",
      "type": "event"
    },
    {
      "constant": true,
      "inputs": [],
      "name": "CYCLE_BLOCKS",
      "outputs": [
        {
          "internalType": "uint256",
          "name": "",
          "type": "uint256"
        }
      ],
      "payable": false,
      "stateMutability": "view",
      "type": "function"
    },
    {
      "constant": true,
      "inputs": [],
      "name": "FINAL_CYCLE",
      "outputs": [
        {
          "internalType": "uint256",
          "name": "",
          "type": "uint256"
        }
      ],
      "payable": false,
      "stateMutability": "view",
      "type": "function"
    },
    {
      "constant": true,
      "inputs": [],
      "name": "SpeedController",
      "outputs": [
        {
          "internalType": "address",
          "name": "",
          "type": "address"
        }
      ],
      "payable": false,
      "stateMutability": "view",
      "type": "function"
    },
    {
      "constant": true,
      "inputs": [
        {
          "internalType": "address",
          "name": "owner",
          "type": "address"
        },
        {
          "internalType": "address",
          "name": "spender",
          "type": "address"
        }
      ],
      "name": "allowance",
      "outputs": [
        {
          "internalType": "uint256",
          "name": "",
          "type": "uint256"
        }
      ],
      "payable": false,
      "stateMutability": "view",
      "type": "function"
    },
    {
      "constant": false,
      "inputs": [
        {
          "internalType": "address",
          "name": "spender",
          "type": "address"
        },
        {
          "internalType": "uint256",
          "name": "amount",
          "type": "uint256"
        }
      ],
      "name": "approve",
      "outputs": [
        {
          "internalType": "bool",
          "name": "",
          "type": "bool"
        }
      ],
      "payable": false,
      "stateMutability": "nonpayable",
      "type": "function"
    },
    {
      "constant": true,
      "inputs": [
        {
          "internalType": "address",
          "name": "account",
          "type": "address"
        }
      ],
      "name": "balanceOf",
      "outputs": [
        {
          "internalType": "uint256",
          "name": "",
          "type": "uint256"
        }
      ],
      "payable": false,
      "stateMutability": "view",
      "type": "function"
    },
    {
      "constant": true,
      "inputs": [],
      "name": "decimals",
      "outputs": [
        {
          "internalType": "uint8",
          "name": "",
          "type": "uint8"
        }
      ],
      "payable": false,
      "stateMutability": "view",
      "type": "function"
    },
    {
      "constant": false,
      "inputs": [
        {
          "internalType": "address",
          "name": "spender",
          "type": "address"
        },
        {
          "internalType": "uint256",
          "name": "subtractedValue",
          "type": "uint256"
        }
      ],
      "name": "decreaseAllowance",
      "outputs": [
        {
          "internalType": "bool",
          "name": "",
          "type": "bool"
        }
      ],
      "payable": false,
      "stateMutability": "nonpayable",
      "type": "function"
    },
    {
      "constant": false,
      "inputs": [
        {
          "internalType": "address",
          "name": "spender",
          "type": "address"
        },
        {
          "internalType": "uint256",
          "name": "addedValue",
          "type": "uint256"
        }
      ],
      "name": "increaseAllowance",
      "outputs": [
        {
          "internalType": "bool",
          "name": "",
          "type": "bool"
        }
      ],
      "payable": false,
      "stateMutability": "nonpayable",
      "type": "function"
    },
    {
      "constant": true,
      "inputs": [],
      "name": "name",
      "outputs": [
        {
          "internalType": "string",
          "name": "",
          "type": "string"
        }
      ],
      "payable": false,
      "stateMutability": "view",
      "type": "function"
    },
    {
      "constant": true,
      "inputs": [],
      "name": "symbol",
      "outputs": [
        {
          "internalType": "string",
          "name": "",
          "type": "string"
        }
      ],
      "payable": false,
      "stateMutability": "view",
      "type": "function"
    },
    {
      "constant": true,
      "inputs": [],
      "name": "totalSupply",
      "outputs": [
        {
          "internalType": "uint256",
          "name": "",
          "type": "uint256"
        }
      ],
      "payable": false,
      "stateMutability": "view",
      "type": "function"
    },
    {
      "constant": false,
      "inputs": [
        {
          "internalType": "address",
          "name": "recipient",
          "type": "address"
        },
        {
          "internalType": "uint256",
          "name": "amount",
          "type": "uint256"
        }
      ],
      "name": "transfer",
      "outputs": [
        {
          "internalType": "bool",
          "name": "",
          "type": "bool"
        }
      ],
      "payable": false,
      "stateMutability": "nonpayable",
      "type": "function"
    },
    {
      "constant": false,
      "inputs": [
        {
          "internalType": "address",
          "name": "sender",
          "type": "address"
        },
        {
          "internalType": "address",
          "name": "recipient",
          "type": "address"
        },
        {
          "internalType": "uint256",
          "name": "amount",
          "type": "uint256"
        }
      ],
      "name": "transferFrom",
      "outputs": [
        {
          "internalType": "bool",
          "name": "",
          "type": "bool"
        }
      ],
      "payable": false,
      "stateMutability": "nonpayable",
      "type": "function"
    },
    {
      "constant": true,
      "inputs": [],
      "name": "treasury",
      "outputs": [
        {
          "internalType": "address",
          "name": "",
          "type": "address"
        }
      ],
      "payable": false,
      "stateMutability": "view",
      "type": "function"
    },
    {
      "constant": false,
      "inputs": [
        {
          "internalType": "address",
          "name": "newSpeedController",
          "type": "address"
        },
        {
          "internalType": "address",
          "name": "_treasury",
          "type": "address"
        }
      ],
      "name": "initMinting",
      "outputs": [
        {
          "internalType": "bool",
          "name": "",
          "type": "bool"
        }
      ],
      "payable": false,
      "stateMutability": "nonpayable",
      "type": "function"
    },
    {
      "constant": false,
      "inputs": [],
      "name": "mintCoins",
      "outputs": [
        {
          "internalType": "bool",
          "name": "",
          "type": "bool"
        }
      ],
      "payable": false,
      "stateMutability": "nonpayable",
      "type": "function"
    },
    {
      "constant": false,
      "inputs": [
        {
          "internalType": "uint256",
          "name": "amount",
          "type": "uint256"
        }
      ],
      "name": "burn",
      "outputs": [
        {
          "internalType": "bool",
          "name": "",
          "type": "bool"
        }
      ],
      "payable": false,
      "stateMutability": "nonpayable",
      "type": "function"
    },
    {
      "constant": true,
      "inputs": [],
      "name": "isMintingActivated",
      "outputs": [
        {
          "internalType": "bool",
          "name": "",
          "type": "bool"
        }
      ],
      "payable": false,
      "stateMutability": "view",
      "type": "function"
    },
    {
      "constant": true,
      "inputs": [],
      "name": "getCurrentEra",
      "outputs": [
        {
          "internalType": "uint256",
          "name": "",
          "type": "uint256"
        }
      ],
      "payable": false,
      "stateMutability": "view",
      "type": "function"
    },
    {
      "constant": true,
      "inputs": [],
      "name": "getCurrentCycle",
      "outputs": [
        {
          "internalType": "uint256",
          "name": "",
          "type": "uint256"
        }
      ],
      "payable": false,
      "stateMutability": "view",
      "type": "function"
    },
    {
      "constant": true,
      "inputs": [
        {
          "internalType": "uint256",
          "name": "snapshotNumber",
          "type": "uint256"
        }
      ],
      "name": "getMintSnapshot",
      "outputs": [
        {
          "internalType": "uint256",
          "name": "cycle",
          "type": "uint256"
        },
        {
          "internalType": "uint256",
          "name": "era",
          "type": "uint256"
        },
        {
          "internalType": "uint256",
          "name": "mintedAmount",
          "type": "uint256"
        },
        {
          "internalType": "uint256",
          "name": "newTotalSupply",
          "type": "uint256"
        },
        {
          "internalType": "address",
          "name": "minter",
          "type": "address"
        },
        {
          "internalType": "uint256",
          "name": "timestamp",
          "type": "uint256"
        },
        {
          "internalType": "uint256",
          "name": "blockNumber",
          "type": "uint256"
        }
      ],
      "payable": false,
      "stateMutability": "view",
      "type": "function"
    }
  ],
  "bytecode": "0x6080604052681b1ae4d6e2ef500000606d5560646072556073805460ff191690553480156200002d57600080fd5b506040518060800160405280605d815260200162001eb7605d9139604051806040016040528060048152602001630a6928e960e31b815250601282606890805190602001906200007f9291906200026a565b508151620000959060699060208501906200026a565b50606a805460ff191660ff9290921691909117905550620000b79050620000fe565b606a8054610100600160a81b0319166101006001600160a01b0393841681029190911791829055620000f8929104166a0422ca8b0a00a42500000062000103565b6200030c565b335b90565b6001600160a01b0382166200015f576040805162461bcd60e51b815260206004820152601f60248201527f45524332303a206d696e7420746f20746865207a65726f206164647265737300604482015290519081900360640190fd5b6200017b816035546200020860201b62000cd81790919060201c565b6035556001600160a01b038216600090815260336020908152604090912054620001b091839062000cd862000208821b17901c565b6001600160a01b03831660008181526033602090815260408083209490945583518581529351929391927fddf252ad1be2c89b69c2b068fc378daa952ba7f163c4a11628f55a4df523b3ef9281900390910190a35050565b60008282018381101562000263576040805162461bcd60e51b815260206004820152601b60248201527f536166654d6174683a206164646974696f6e206f766572666c6f770000000000604482015290519081900360640190fd5b9392505050565b828054600181600116156101000203166002900490600052602060002090601f016020900481019282601f10620002ad57805160ff1916838001178555620002dd565b82800160010185558215620002dd579182015b82811115620002dd578251825591602001919060010190620002c0565b50620002eb929150620002ef565b5090565b6200010091905b80821115620002eb5760008155600101620002f6565b611b9b806200031c6000396000f3fe608060405234801561001057600080fd5b50600436106101425760003560e01c80635f103dc8116100b8578063a457c2d71161007c578063a457c2d7146103b9578063a9059cbb146103e5578063be26ed7f14610411578063d250b6cb14610419578063dd62ed3e14610421578063fc399a0d1461044f57610142565b80635f103dc81461037357806361d027b31461037b57806370a0823114610383578063798907c1146103a957806395d89b41146103b157610142565b806333c42fe01161010a57806333c42fe014610272578063395093511461027a57806342966c68146102a657806347cd63e6146102c35780634e1098a0146103215780635c26a6431461034557610142565b806306fdde0314610147578063095ea7b3146101c457806318160ddd1461020457806323b872dd1461021e578063313ce56714610254575b600080fd5b61014f610457565b6040805160208082528351818301528351919283929083019185019080838360005b83811015610189578181015183820152602001610171565b50505050905090810190601f1680156101b65780820380516001836020036101000a031916815260200191505b509250505060405180910390f35b6101f0600480360360408110156101da57600080fd5b506001600160a01b0381351690602001356104ee565b604080519115158252519081900360200190f35b61020c61050b565b60408051918252519081900360200190f35b6101f06004803603606081101561023457600080fd5b506001600160a01b03813581169160208101359091169060400135610511565b61025c61059e565b6040805160ff9092168252519081900360200190f35b61020c6105a7565b6101f06004803603604081101561029057600080fd5b506001600160a01b0381351690602001356105ad565b6101f0600480360360208110156102bc57600080fd5b5035610601565b6102e0600480360360208110156102d957600080fd5b50356106f5565b6040805197885260208801969096528686019490945260608601929092526001600160a01b0316608085015260a084015260c0830152519081900360e00190f35b610329610805565b604080516001600160a01b039092168252519081900360200190f35b6101f06004803603604081101561035b57600080fd5b506001600160a01b0381358116916020013516610814565b61020c6109b1565b6103296109b6565b61020c6004803603602081101561039957600080fd5b50356001600160a01b03166109c5565b6101f06109e0565b61014f610a07565b6101f0600480360360408110156103cf57600080fd5b506001600160a01b038135169060200135610a68565b6101f0600480360360408110156103fb57600080fd5b506001600160a01b038135169060200135610ad6565b61020c610aea565b61020c610af0565b61020c6004803603604081101561043757600080fd5b506001600160a01b0381358116916020013516610af6565b6101f0610b21565b60688054604080516020601f60026000196101006001881615020190951694909404938401819004810282018101909252828152606093909290918301828280156104e35780601f106104b8576101008083540402835291602001916104e3565b820191906000526020600020905b8154815290600101906020018083116104c657829003601f168201915b505050505090505b90565b60006105026104fb610b2a565b8484610b2e565b50600192915050565b60355490565b600061051e848484610c1a565b6105948461052a610b2a565b61058f85604051806060016040528060288152602001611a84602891396001600160a01b038a16600090815260346020526040812090610568610b2a565b6001600160a01b03168152602081019190915260400160002054919063ffffffff610c4116565b610b2e565b5060019392505050565b606a5460ff1690565b610ead81565b60006105026105ba610b2a565b8461058f85603460006105cb610b2a565b6001600160a01b03908116825260208083019390935260409182016000908120918c16815292529020549063ffffffff610cd816565b606b546000906001600160a01b0316331461064d5760405162461bcd60e51b8152600401808060200182810382526022815260200180611a3b6022913960400191505060405180910390fd5b606b54610663906001600160a01b031683610d39565b600061068a606e54846040518060600160405280603a8152602001611a01603a9139610e35565b606e81905590507f3116ed15ff49d8cc626f45bb9ee0bed8515d96a41c12c1422eb2719219f9e2153384836106bd61050b565b604080516001600160a01b0390951685526020850193909352838301919091526060830152519081900360800190a150600192915050565b6000806000806000806000606f888154811061070d57fe5b906000526020600020906007020160000154606f898154811061072c57fe5b906000526020600020906007020160010154606f8a8154811061074b57fe5b906000526020600020906007020160020154606f8b8154811061076a57fe5b906000526020600020906007020160030154606f8c8154811061078957fe5b906000526020600020906007020160040160009054906101000a90046001600160a01b0316606f8d815481106107bb57fe5b906000526020600020906007020160050154606f8e815481106107da57fe5b9060005260206000209060070201600601549650965096509650965096509650919395979092949650565b606c546001600160a01b031681565b606a5460009061010090046001600160a01b0316610830610b2a565b6001600160a01b0316146108755760405162461bcd60e51b815260040180806020018281038252602c815260200180611aac602c913960400191505060405180910390fd5b6001600160a01b0383166108ba5760405162461bcd60e51b81526004018080602001828103825260248152602001806119956024913960400191505060405180910390fd5b6001600160a01b038216610915576040805162461bcd60e51b815260206004820152601c60248201527f4e6f7420612076616c6964205472656173757279206164647265737300000000604482015290519081900360640190fd5b606c80546001600160a01b038086166001600160a01b031992831617909255606b80549285169290911691909117905561094d610e93565b606c54606b54604080516001600160a01b039384168152919092166020820152438183015290517f8eae0c2f651a44c8e5f3b32376232a187ebb06d44450a4c9303f9ccb90a4143a9181900360600190a16073805460ff1916600117905592915050565b603c81565b606b546001600160a01b031681565b6001600160a01b031660009081526033602052604090205490565b60006109ea611061565b15610a01576109f761112d565b50600190506104eb565b50600090565b60698054604080516020601f60026000196101006001881615020190951694909404938401819004810282018101909252828152606093909290918301828280156104e35780601f106104b8576101008083540402835291602001916104e3565b6000610502610a75610b2a565b8461058f85604051806060016040528060258152602001611b426025913960346000610a9f610b2a565b6001600160a01b03908116825260208083019390935260409182016000908120918d1681529252902054919063ffffffff610c4116565b6000610502610ae3610b2a565b8484610c1a565b60705490565b60715490565b6001600160a01b03918216600090815260346020908152604080832093909416825291909152205490565b60735460ff1690565b3390565b6001600160a01b038316610b735760405162461bcd60e51b8152600401808060200182810382526024815260200180611b1e6024913960400191505060405180910390fd5b6001600160a01b038216610bb85760405162461bcd60e51b81526004018080602001828103825260228152602001806119b96022913960400191505060405180910390fd5b6001600160a01b03808416600081815260346020908152604080832094871680845294825291829020859055815185815291517f8c5be1e5ebec7d5bd14f71427d1e84f3dd0314c0f7b2291e5b200ac8c7c3b9259281900390910190a3505050565b610c22611061565b15610c3157610c2f61112d565b505b610c3c83838361148f565b505050565b60008184841115610cd05760405162461bcd60e51b81526004018080602001828103825283818151815260200191508051906020019080838360005b83811015610c95578181015183820152602001610c7d565b50505050905090810190601f168015610cc25780820380516001836020036101000a031916815260200191505b509250505060405180910390fd5b505050900390565b600082820183811015610d32576040805162461bcd60e51b815260206004820152601b60248201527f536166654d6174683a206164646974696f6e206f766572666c6f770000000000604482015290519081900360640190fd5b9392505050565b6001600160a01b038216610d7e5760405162461bcd60e51b8152600401808060200182810382526021815260200180611ad86021913960400191505060405180910390fd5b610dc181604051806060016040528060228152602001611973602291396001600160a01b038516600090815260336020526040902054919063ffffffff610c4116565b6001600160a01b038316600090815260336020526040902055603554610ded908263ffffffff6115ed16565b6035556040805182815290516000916001600160a01b038516917fddf252ad1be2c89b69c2b068fc378daa952ba7f163c4a11628f55a4df523b3ef9181900360200190a35050565b60008383018285821015610e8a5760405162461bcd60e51b8152602060048201818152835160248401528351909283926044909101919085019080838360008315610c95578181015183820152602001610c7d565b50949350505050565b60408051606080820183526001808352600660208085018290526064948601859052607592909255607655607792909255825180820184526007808252600d82850181905260c8928601839052607891909155607955607a5582518082018452600e8082526014828501819052610190928601839052607b91909155607c55607d55825180820184526015808252601b828501819052610320928601839052607e91909155607f5560805582518082018452601c80825260228285018190526106409286018390526081919091556082556083558251808201845260238082526029828501819052610c8092860183905260849190915560855560865582518082018452602a80825260308285018190526119009286018390526087919091556088556089558251808201845260318082526037828501819052613200928601839052608a91909155608b55608c55825180820184526038808252603e828501819052616400928601839052608d91909155608e55608f5582518082018452603f808252604582850181905261c800928601839052609091909155609155609255825190810183526046808252604d9282018390526201900091909301819052609392909255609455609555565b60735460009060ff1680156110795750610ead607054105b80156110905750603c61108e4360745461162f565b115b15611125576000607054905060006110cc6070546001604051806040016040528060088152602001674f766572666c6f7760c01b815250610e35565b60708190556040805184815260208101839052438183015242606082015290519192507fac27c13938741aebe5a244eb97650610021a2747e4587c4e0a4969032464e6a3919081900360800190a16001925050506104eb565b5060006104eb565b600061113761165d565b60715410156111f75760006071549050600061118c60715460016040518060400160405280601d81526020017f4e455720455241203a204164646974696f6e2067617665206572726f72000000815250610e35565b60718190559050607581600b81106111a057fe5b60030201600201546072556071546040805184815260208101929092524382820152426060830152517fa7041f0c0dac061a7423e0d7d7b69a0d28e782c6e4842f4fce5523379acbb254916080908290030190a150505b600061120161050b565b9050600061122e6075607154600b811061121757fe5b60030201600201548361177090919063ffffffff16565b9050611238611909565b6040518060e001604052806070548152602001607154815260200183815260200161126161050b565b815233602082015242604082015243606090910152606d5490915082111561129e57606d5461129790839063ffffffff6115ed16565b91506112a4565b6000606d555b6112b033606d546117b2565b606c546112c6906001600160a01b0316836117b2565b606f8054600181018255600091909152815160079091027f39f2babe526038520877fc7c33d81accf578af4a06c5fa6b0d038cae36e1271181018290556020808401517f39f2babe526038520877fc7c33d81accf578af4a06c5fa6b0d038cae36e1271283018190556040808601517f39f2babe526038520877fc7c33d81accf578af4a06c5fa6b0d038cae36e1271385018190556060808801517f39f2babe526038520877fc7c33d81accf578af4a06c5fa6b0d038cae36e1271487018190556080808a01517f39f2babe526038520877fc7c33d81accf578af4a06c5fa6b0d038cae36e12715890180546001600160a01b039092166001600160a01b03199092168217905560a0808c01517f39f2babe526038520877fc7c33d81accf578af4a06c5fa6b0d038cae36e127168b0181905560c0808e01517f39f2babe526038520877fc7c33d81accf578af4a06c5fa6b0d038cae36e12717909c018c90554360745588519384529983019b909b52818701979097529283019390935291810191909152918201949094529081019190915290517f2a6474e5e244cb8a3f1ca31dec27016a0ad00fe176a8da2f83d37903a557c50f9181900360e00190a16001935050505090565b6001600160a01b0383166114d45760405162461bcd60e51b8152600401808060200182810382526025815260200180611af96025913960400191505060405180910390fd5b6001600160a01b0382166115195760405162461bcd60e51b81526004018080602001828103825260238152602001806119506023913960400191505060405180910390fd5b61155c816040518060600160405280602681526020016119db602691396001600160a01b038616600090815260336020526040902054919063ffffffff610c4116565b6001600160a01b038085166000908152603360205260408082209390935590841681522054611591908263ffffffff610cd816565b6001600160a01b0380841660008181526033602090815260409182902094909455805185815290519193928716927fddf252ad1be2c89b69c2b068fc378daa952ba7f163c4a11628f55a4df523b3ef92918290030190a3505050565b6000610d3283836040518060400160405280601e81526020017f536166654d6174683a207375627472616374696f6e206f766572666c6f770000815250610c41565b6000806116558484604051806060016040528060278152602001611a5d60279139610c41565b949350505050565b6000600760705411158015611670575060015b1561167d575060006104eb565b60006116c260705460076040518060400160405280601b81526020017f4552413a205375627472616374696f6e2067617665206572726f720000000000815250610c41565b905060006117078260076040518060400160405280601981526020017f455241203a204469766973696f6e2067617665206572726f72000000000000008152506118a4565b604080518481526020810183905281519293507f0e05f4e594deffc6f44a8a1da788cc02556c2adbfab96492fe3a419940546725929081900390910190a1600981116117675761175e81600163ffffffff610cd816565b925050506104eb565b600b9250505090565b6000610d3283836040518060400160405280601a81526020017f536166654d6174683a206469766973696f6e206279207a65726f0000000000008152506118a4565b6001600160a01b03821661180d576040805162461bcd60e51b815260206004820152601f60248201527f45524332303a206d696e7420746f20746865207a65726f206164647265737300604482015290519081900360640190fd5b603554611820908263ffffffff610cd816565b6035556001600160a01b03821660009081526033602052604090205461184c908263ffffffff610cd816565b6001600160a01b03831660008181526033602090815260408083209490945583518581529351929391927fddf252ad1be2c89b69c2b068fc378daa952ba7f163c4a11628f55a4df523b3ef9281900390910190a35050565b600081836118f35760405162461bcd60e51b8152602060048201818152835160248401528351909283926044909101919085019080838360008315610c95578181015183820152602001610c7d565b5060008385816118ff57fe5b0495945050505050565b6040518060e001604052806000815260200160008152602001600081526020016000815260200160006001600160a01b031681526020016000815260200160008152509056fe45524332303a207472616e7366657220746f20746865207a65726f206164647265737345524332303a206275726e20616d6f756e7420657863656564732062616c616e63654e6f7420612076616c696420537065656420436f6e74726f6c6c6572206164647265737345524332303a20617070726f766520746f20746865207a65726f206164647265737345524332303a207472616e7366657220616d6f756e7420657863656564732062616c616e63656275726e203a20546f74616c204e756d626572206f6620746f6b656e73206275726e742067617665206164646974696f6e206f766572666c6f774f6e6c792054726561737572792063616e206275726e205349474820546f6b656e73476574456c6170736564426c6f636b733a205375627472616374696f6e20556e646572666c6f7745524332303a207472616e7366657220616d6f756e74206578636565647320616c6c6f77616e63654d696e696e672063616e206f6e6c7920626520696e697469616c697a656420627920746865206f776e65722e45524332303a206275726e2066726f6d20746865207a65726f206164647265737345524332303a207472616e736665722066726f6d20746865207a65726f206164647265737345524332303a20617070726f76652066726f6d20746865207a65726f206164647265737345524332303a2064656372656173656420616c6c6f77616e63652062656c6f77207a65726fa265627a7a7231582030fda26caf7ae69e77f2d1668ae5ba11e7812ab5469b9eb81dc551baaba30d6164736f6c634300051000325349474820496e737472756d656e74203a20412066726565206469737472696275746f72206f662066757475726520657870656374656420616363756d756c617465642076616c7565206f662066696e616e6369616c20617373657473",
  "source": "pragma solidity ^0.5.16;\n\nimport \"openzeppelin-solidity/contracts/token/ERC20/ERC20.sol\"; \nimport \"openzeppelin-solidity/contracts/token/ERC20/ERC20Detailed.sol\"; \n\nimport \"openzeppelin-solidity/contracts/utils/Address.sol\"; \nimport \"openzeppelin-solidity/contracts/math/SafeMath.sol\"; \n\ncontract SIGH is ERC20, ERC20Detailed('SIGH Instrument : A free distributor of future expected accumulated value of financial assets','SIGH',uint8(18) ) {\n\n    using SafeMath for uint256;    // Time based calculations\n    using Address for address;\n\n    address private _owner;\n    address public treasury; \n    address public SpeedController;\n\n    event TreasuryChanged(address prevTreasury, address treasury, uint blockNumber);\n\n    uint256 private constant INITIAL_SUPPLY = 5 * 10**6 * 10**18; // 5 Million (with 18 decimals)\n    uint256 private prize_amount = 500 * 10**18;\n\n    uint256 private totalAmountBurnt;\n\n    struct mintSnapshot {\n        uint cycle;\n        uint era;\n        uint mintedAmount;\n        uint newTotalSupply;\n        address minter;\n        uint timestamp;\n        uint blockNumber;\n    }\n\n    mintSnapshot[] private mintSnapshots;\n\n    uint256 public constant CYCLE_BLOCKS = 60;  // 24*60*60 (i.e seconds in 1 day )\n    uint256 public constant FINAL_CYCLE = 3757; // 10 years (3650 days) + 60 days\n    uint256 private Current_Cycle; \n    uint256 private Current_Era;\n    uint256 private currentDivisibilityFactor = 100;\n\n    bool private mintingActivated = false;\n    uint256 private previousMintBlock;\n\n    struct Era {\n        uint256 startCycle;\n        uint256 endCycle;\n        uint256 divisibilityFactor;\n    }\n\n    Era[11] private _eras;\n\n    event NewCycle( uint prevCycle, uint newCycle, uint blockNumber, uint timeStamp );\n    event NewEra( uint prevEra, uint newEra, uint blockNumber, uint timeStamp );\n\n    event MintingInitialized(address speedController, address treasury, uint256 blockNumber);\n\n    event SIGHMinted( address minter, uint256 cycle, uint256 Era, uint256 amountMinted, uint256 current_supply, uint timestamp, uint256 block_number);\n    event SIGHBurned(address userAddress, uint256 amount, uint256 totalBurnedAmount, uint256 currentSupply);\n\n    // constructing  \n    constructor () public {\n        _owner = _msgSender();\n        _mint(_owner,INITIAL_SUPPLY);\n    }\n\n    // ################################################\n    // #######   FUNCTIONS TO INITIATE MINTING  #######\n    // ################################################\n\n    function initMinting(address newSpeedController, address _treasury) public returns (bool) {\n        require(_msgSender() == _owner,\"Mining can only be initialized by the owner.\" );\n        require(newSpeedController != address(0), \"Not a valid Speed Controller address\");\n        require(_treasury != address(0), \"Not a valid Treasury address\");\n        // require(!mintingActivated, \"Minting can only be initialized once\" );\n\n        SpeedController = newSpeedController;\n        treasury = _treasury;\n        _initEras();\n        \n        emit MintingInitialized(SpeedController, treasury, block.number );\n        mintingActivated = true;\n    }\n\n    function _initEras() private {\n        _eras[0] = Era(1, 6, 100 );        // 96 days\n        _eras[1] = Era(7, 13, 200 );       // 1 year\n        _eras[2] = Era(14, 20, 400 );      // 1 year\n        _eras[3] = Era(21, 27, 800 );       // 1 year\n        _eras[4] = Era(28, 34, 1600 );     // 1 year\n        _eras[5] = Era(35, 41, 3200 );      // 1 year   \n        _eras[6] = Era(42, 48, 6400 );       // 1 year\n        _eras[7] = Era(49, 55, 12800 );        // 1 year\n        _eras[8] = Era(56, 62, 25600 );        // 1 year\n        _eras[9] = Era(63, 69, 51200 );        // 1 year\n        _eras[10] = Era(70, 77, 102400 );       // 1 year\n    }\n\n    // function _initEras() private {\n    //     _eras[0] = Era(1, 96, 100 );        // 96 days\n    //     _eras[1] = Era(97, 462, 200 );       // 1 year\n    //     _eras[2] = Era(463, 828, 400 );      // 1 year\n    //     _eras[3] = Era(829, 1194, 800 );       // 1 year\n    //     _eras[4] = Era(1195, 1560, 1600 );     // 1 year\n    //     _eras[5] = Era(1561, 1926, 3200 );      // 1 year   \n    //     _eras[6] = Era(1927, 2292, 6400 );       // 1 year\n    //     _eras[7] = Era(2293, 2658, 12800 );        // 1 year\n    //     _eras[8] = Era(2659, 3024, 25600 );        // 1 year\n    //     _eras[9] = Era(3025, 3390, 51200 );        // 1 year\n    //     _eras[10] = Era(3391, 3756, 102400 );       // 1 year\n    // }\n\n\n\n    // ############################################################\n    // ############   OVER-LOADING TRANSFER FUNCTON    ############\n    // ############################################################\n\n    function _transfer(address sender, address recipient, uint256 amount) internal {\n        if (isMintingPossible()) {\n             mintNewCoins();\n        }\n        super._transfer(sender, recipient, amount);\n    }\n\n    // ################################################\n    // ############   MINT FUNCTONS    ############\n    // ################################################\n\n    function isMintingPossible() internal returns (bool) {\n        if ( mintingActivated && Current_Cycle < 3757 && _getElapsedBlocks(block.number, previousMintBlock) > CYCLE_BLOCKS ) {\n            uint prevCycle = Current_Cycle;      \n            uint newCycle = add(Current_Cycle,uint256(1),'Overflow');\n            Current_Cycle = newCycle;                                                    // CURRENT CYCLE IS UPDATED \n            emit NewCycle(prevCycle, Current_Cycle, block.number, now);\n            return true;\n        }\n        else {\n            return false;\n        }\n    }\n\n    function mintCoins() external returns (bool) {\n        if (isMintingPossible() ) {\n            mintNewCoins();\n            return true;\n        }\n        return false;\n    }\n\n    function mintNewCoins() internal returns (bool) {\n\n        if ( Current_Era < _CalculateCurrentEra() ) {\n            uint prevEra = Current_Era;\n            uint newEra = add(Current_Era,uint256(1),\"NEW ERA : Addition gave error\");\n            Current_Era = newEra;\n            currentDivisibilityFactor = _eras[Current_Era].divisibilityFactor;\n            emit NewEra(prevEra, Current_Era, block.number, now);\n        }\n\n        uint currentSupply = totalSupply();\n        uint256 newCoins = currentSupply.div(_eras[Current_Era].divisibilityFactor);                // Calculate the number of new tokens to be minted.\n        mintSnapshot  memory currentMintSnapshot = mintSnapshot({ cycle:Current_Cycle, era:Current_Era, mintedAmount:newCoins, newTotalSupply:totalSupply(), minter: msg.sender, timestamp: now, blockNumber: block.number });\n\n        if (newCoins > prize_amount) {\n            newCoins = newCoins.sub(prize_amount);\n        }  \n        else {\n            prize_amount = uint(0);\n        }\n\n        _mint( msg.sender, prize_amount );                                                          // PRIZE AMOUNT AWARDED TO THE MINTER\n        _mint( SpeedController, newCoins );                                                          // NEWLY MINTED SIGH TRANSFERRED TO SIGH SPEED CONTROLLER\n        mintSnapshots.push(currentMintSnapshot);                                                    // MINT SNAPSHOT ADDED TO THE ARRAY\n\n        previousMintBlock = block.number;        \n\n        emit SIGHMinted(currentMintSnapshot.minter, currentMintSnapshot.cycle, currentMintSnapshot.era, currentMintSnapshot.mintedAmount, currentMintSnapshot.newTotalSupply, currentMintSnapshot.timestamp, currentMintSnapshot.blockNumber );\n        return true;        \n    }\n\n    function _getElapsedBlocks(uint256 currentBlock , uint256 prevBlock) internal pure returns(uint256) {\n        uint deltaBlocks = sub(currentBlock,prevBlock,\"GetElapsedBlocks: Subtraction Underflow\");\n        return deltaBlocks;\n    }\n\n    event eraCalc(uint C_Era_sub, uint _newEra );\n    function _CalculateCurrentEra() internal returns (uint256) {\n\n        if (Current_Cycle <= 7 && Current_Cycle >= 0 ) {\n            return uint256(0);\n        }\n\n        uint256 C_Era_sub = sub(Current_Cycle,uint256(7),'ERA: Subtraction gave error');\n        uint256 _newEra = div(C_Era_sub,uint256(7),\"ERA : Division gave error\");\n\n        emit eraCalc(C_Era_sub, _newEra );\n\n        if (_newEra <= 9 ) {\n            return uint256(_newEra.add(1) );\n        }\n\n        return uint256(11);\n    }\n\n    // ################################################\n    // ############   BURN FUNCTON    #################\n    // ################################################\n    \n    function burn(uint amount) external returns (bool) {\n        require( msg.sender == treasury,\"Only Treasury can burn SIGH Tokens\");\n        _burn(treasury,amount) ;\n        uint total_amount_burnt = add(totalAmountBurnt , amount, 'burn : Total Number of tokens burnt gave addition overflow');\n        totalAmountBurnt = total_amount_burnt;\n        emit SIGHBurned(msg.sender, amount, totalAmountBurnt, totalSupply() );\n        return true;\n    }    \n\n    // ################################################\n    // ###########   MINT FUNCTONS (VIEW)   ###########\n    // ################################################\n\n    function isMintingActivated() external view returns(bool) {\n        return mintingActivated;\n    }\n\n   function getCurrentEra() public view returns (uint256) {\n        return Current_Era;\n    }\n\n   function getCurrentCycle() public view returns (uint256) {\n        return Current_Cycle;\n    }\n\n    function getMintSnapshot(uint snapshotNumber) public view returns (uint cycle,uint era,uint mintedAmount,uint newTotalSupply,address minter,uint timestamp,uint blockNumber ) {\n        return (mintSnapshots[snapshotNumber].cycle,\n                mintSnapshots[snapshotNumber].era,\n                mintSnapshots[snapshotNumber].mintedAmount,\n                mintSnapshots[snapshotNumber].newTotalSupply,\n                mintSnapshots[snapshotNumber].minter,\n                mintSnapshots[snapshotNumber].timestamp,\n                mintSnapshots[snapshotNumber].blockNumber);\n    }\n\n    // ##################################################################\n    // ###########   nternal helper functions for safe math   ###########\n    // ##################################################################\n\n    function add(uint a, uint b, string memory errorMessage) internal pure returns (uint) {\n        uint c = a + b;\n        require(c >= a, errorMessage);\n        return c;\n    }\n\n    function sub(uint a, uint b, string memory errorMessage) internal pure returns (uint) {\n        require(b <= a, errorMessage);\n        uint c = a - b;\n        return c;\n    }\n\n    function mul(uint a, uint b, string memory errorMessage) internal pure returns (uint) {\n        if (a == 0) {\n        return 0;\n        }\n        uint c = a * b;\n        require(c / a == b, errorMessage);\n        return c;\n    }\n\n    function min(uint a, uint b) internal pure returns (uint) {\n        if (a <= b) {\n        return a;\n        } else {\n        return b;\n        }\n    }    \n\n    function div(uint256 a, uint256 b) internal pure returns (uint256) {\n        return div(a, b, \"SafeMath: division by zero\");\n    }\n\n    function div(uint256 a, uint256 b, string memory errorMessage) internal pure returns (uint256) {\n        // Solidity only automatically asserts when dividing by 0\n        require(b > 0, errorMessage);\n        uint256 c = a / b;\n        // assert(a == b * c + a % b); // There is no case in which this doesn't hold\n\n        return c;\n    }\n\n}\n\n\n\n\n\n\n\n\n\n",
  "sourcePath": "/Users/apple/Desktop/GITCOIN/Sigh_Finance/SighFinanceContracts/contracts/SIGHFinanceContracts/SIGH_Instrument/Sigh.sol",
  "compiler": {
    "name": "solc",
    "version": "0.5.16+commit.9c3226ce.Emscripten.clang"
  },
  "schemaVersion": "3.2.4",
  "updatedAt": "2020-11-05T05:43:32.343Z",
  "devdoc": {
    "methods": {
      "allowance(address,address)": {
        "details": "See {IERC20-allowance}."
      },
      "approve(address,uint256)": {
        "details": "See {IERC20-approve}.     * Requirements:     * - `spender` cannot be the zero address."
      },
      "balanceOf(address)": {
        "details": "See {IERC20-balanceOf}."
      },
      "decimals()": {
        "details": "Returns the number of decimals used to get its user representation. For example, if `decimals` equals `2`, a balance of `505` tokens should be displayed to a user as `5,05` (`505 / 10 ** 2`).     * Tokens usually opt for a value of 18, imitating the relationship between Ether and Wei.     * NOTE: This information is only used for _display_ purposes: it in no way affects any of the arithmetic of the contract, including {IERC20-balanceOf} and {IERC20-transfer}."
      },
      "decreaseAllowance(address,uint256)": {
        "details": "Atomically decreases the allowance granted to `spender` by the caller.     * This is an alternative to {approve} that can be used as a mitigation for problems described in {IERC20-approve}.     * Emits an {Approval} event indicating the updated allowance.     * Requirements:     * - `spender` cannot be the zero address. - `spender` must have allowance for the caller of at least `subtractedValue`."
      },
      "increaseAllowance(address,uint256)": {
        "details": "Atomically increases the allowance granted to `spender` by the caller.     * This is an alternative to {approve} that can be used as a mitigation for problems described in {IERC20-approve}.     * Emits an {Approval} event indicating the updated allowance.     * Requirements:     * - `spender` cannot be the zero address."
      },
      "name()": {
        "details": "Returns the name of the token."
      },
      "symbol()": {
        "details": "Returns the symbol of the token, usually a shorter version of the name."
      },
      "totalSupply()": {
        "details": "See {IERC20-totalSupply}."
      },
      "transfer(address,uint256)": {
        "details": "See {IERC20-transfer}.     * Requirements:     * - `recipient` cannot be the zero address. - the caller must have a balance of at least `amount`."
      },
      "transferFrom(address,address,uint256)": {
        "details": "See {IERC20-transferFrom}.     * Emits an {Approval} event indicating the updated allowance. This is not required by the EIP. See the note at the beginning of {ERC20};     * Requirements: - `sender` and `recipient` cannot be the zero address. - `sender` must have a balance of at least `amount`. - the caller must have allowance for `sender`'s tokens of at least `amount`."
      }
    }
  },
  "userdoc": {
    "methods": {}
  }
}