{
  "contractName": "SighStaking",
  "abi": [
    {
      "anonymous": false,
      "inputs": [
        {
          "indexed": false,
          "internalType": "address",
          "name": "instrumentAddress",
          "type": "address"
        },
        {
          "indexed": false,
          "internalType": "string",
          "name": "instrument_name",
          "type": "string"
        },
        {
          "indexed": false,
          "internalType": "uint256",
          "name": "prevSpeed",
          "type": "uint256"
        },
        {
          "indexed": false,
          "internalType": "uint256",
          "name": "instrument_DistributionSpeed",
          "type": "uint256"
        },
        {
          "indexed": false,
          "internalType": "uint256",
          "name": "block_number",
          "type": "uint256"
        }
      ],
      "name": "DistributionSpeedUpdated",
      "type": "event"
    },
    {
      "anonymous": false,
      "inputs": [
        {
          "indexed": false,
          "internalType": "address",
          "name": "instrument",
          "type": "address"
        },
        {
          "indexed": false,
          "internalType": "string",
          "name": "instrument_name",
          "type": "string"
        },
        {
          "indexed": false,
          "internalType": "uint256",
          "name": "instrument_totalAmountRewarded",
          "type": "uint256"
        }
      ],
      "name": "InstrumentRemoved",
      "type": "event"
    },
    {
      "anonymous": false,
      "inputs": [
        {
          "indexed": false,
          "internalType": "address",
          "name": "newInstrument",
          "type": "address"
        },
        {
          "indexed": false,
          "internalType": "string",
          "name": "instrument_name",
          "type": "string"
        },
        {
          "indexed": false,
          "internalType": "uint256",
          "name": "instrument_index",
          "type": "uint256"
        },
        {
          "indexed": false,
          "internalType": "uint256",
          "name": "instrument_DistributionSpeed",
          "type": "uint256"
        },
        {
          "indexed": false,
          "internalType": "uint256",
          "name": "instrument_totalAmountRewarded",
          "type": "uint256"
        },
        {
          "indexed": false,
          "internalType": "uint256",
          "name": "instrument_balance",
          "type": "uint256"
        },
        {
          "indexed": false,
          "internalType": "uint256",
          "name": "instrument_lastUpdatedBlock",
          "type": "uint256"
        }
      ],
      "name": "NewInstrumentForDistributionAdded",
      "type": "event"
    },
    {
      "anonymous": false,
      "inputs": [
        {
          "indexed": false,
          "internalType": "address",
          "name": "staker",
          "type": "address"
        },
        {
          "indexed": false,
          "internalType": "uint256",
          "name": "amount",
          "type": "uint256"
        },
        {
          "indexed": false,
          "internalType": "uint256",
          "name": "staker_stakedBalance",
          "type": "uint256"
        },
        {
          "indexed": false,
          "internalType": "uint256",
          "name": "totalStakedSigh",
          "type": "uint256"
        },
        {
          "indexed": false,
          "internalType": "uint256",
          "name": "blocknumber",
          "type": "uint256"
        }
      ],
      "name": "SighStaked",
      "type": "event"
    },
    {
      "anonymous": false,
      "inputs": [
        {
          "indexed": false,
          "internalType": "address",
          "name": "staker",
          "type": "address"
        },
        {
          "indexed": false,
          "internalType": "uint256",
          "name": "amount",
          "type": "uint256"
        },
        {
          "indexed": false,
          "internalType": "uint256",
          "name": "staker_stakedBalance",
          "type": "uint256"
        },
        {
          "indexed": false,
          "internalType": "uint256",
          "name": "totalStakedSigh",
          "type": "uint256"
        },
        {
          "indexed": false,
          "internalType": "uint256",
          "name": "blocknumber",
          "type": "uint256"
        }
      ],
      "name": "SighUnstaked",
      "type": "event"
    },
    {
      "anonymous": false,
      "inputs": [
        {
          "indexed": false,
          "internalType": "address",
          "name": "staker",
          "type": "address"
        },
        {
          "indexed": false,
          "internalType": "uint256",
          "name": "amount",
          "type": "uint256"
        },
        {
          "indexed": false,
          "internalType": "uint256",
          "name": "staker_stakedBalance",
          "type": "uint256"
        },
        {
          "indexed": false,
          "internalType": "uint256",
          "name": "totalStakedSigh",
          "type": "uint256"
        },
        {
          "indexed": false,
          "internalType": "uint256",
          "name": "block_number",
          "type": "uint256"
        }
      ],
      "name": "StreamingSighStaked",
      "type": "event"
    },
    {
      "anonymous": false,
      "inputs": [
        {
          "indexed": false,
          "internalType": "bytes",
          "name": "_data",
          "type": "bytes"
        }
      ],
      "name": "TokenSwapTransactionData",
      "type": "event"
    },
    {
      "anonymous": false,
      "inputs": [
        {
          "indexed": false,
          "internalType": "address",
          "name": "token_bought",
          "type": "address"
        },
        {
          "indexed": false,
          "internalType": "uint256",
          "name": "prev_bought_token_amount",
          "type": "uint256"
        },
        {
          "indexed": false,
          "internalType": "uint256",
          "name": "tokenBoughtAmount",
          "type": "uint256"
        },
        {
          "indexed": false,
          "internalType": "uint256",
          "name": "new_bought_token_amount",
          "type": "uint256"
        }
      ],
      "name": "TokensBought",
      "type": "event"
    },
    {
      "anonymous": false,
      "inputs": [
        {
          "indexed": false,
          "internalType": "address",
          "name": "token_sold",
          "type": "address"
        },
        {
          "indexed": false,
          "internalType": "uint256",
          "name": "prev_sold_token_amount",
          "type": "uint256"
        },
        {
          "indexed": false,
          "internalType": "uint256",
          "name": "tokenSoldAmount",
          "type": "uint256"
        },
        {
          "indexed": false,
          "internalType": "uint256",
          "name": "new_sold_token_amount",
          "type": "uint256"
        }
      ],
      "name": "TokensSold",
      "type": "event"
    },
    {
      "anonymous": false,
      "inputs": [
        {
          "indexed": false,
          "internalType": "address",
          "name": "instrumentsRewarded",
          "type": "address"
        },
        {
          "indexed": false,
          "internalType": "uint256",
          "name": "deltaBlocks",
          "type": "uint256"
        },
        {
          "indexed": false,
          "internalType": "uint256",
          "name": "rewardDistributionSpeed",
          "type": "uint256"
        },
        {
          "indexed": false,
          "internalType": "uint256",
          "name": "reward_Accrued",
          "type": "uint256"
        },
        {
          "indexed": false,
          "internalType": "uint256",
          "name": "ratio_mantissa",
          "type": "uint256"
        },
        {
          "indexed": false,
          "internalType": "uint256",
          "name": "currentRewardInstrumentIndex",
          "type": "uint256"
        },
        {
          "indexed": false,
          "internalType": "uint256",
          "name": "newIndex_mantissa",
          "type": "uint256"
        }
      ],
      "name": "calculations",
      "type": "event"
    },
    {
      "anonymous": false,
      "inputs": [
        {
          "indexed": false,
          "internalType": "address",
          "name": "staker",
          "type": "address"
        },
        {
          "indexed": false,
          "internalType": "address",
          "name": "instrumentToBeClaimed",
          "type": "address"
        },
        {
          "indexed": false,
          "internalType": "string",
          "name": "instrument_name",
          "type": "string"
        },
        {
          "indexed": false,
          "internalType": "uint256",
          "name": "amountToBeTransferred",
          "type": "uint256"
        },
        {
          "indexed": false,
          "internalType": "uint256",
          "name": "block_number",
          "type": "uint256"
        }
      ],
      "name": "instrumentTransferred",
      "type": "event"
    },
    {
      "anonymous": false,
      "inputs": [
        {
          "indexed": false,
          "internalType": "uint256",
          "name": "prevLimit",
          "type": "uint256"
        },
        {
          "indexed": false,
          "internalType": "uint256",
          "name": "maxSighThatCanBeStaked",
          "type": "uint256"
        },
        {
          "indexed": false,
          "internalType": "uint256",
          "name": "block_number",
          "type": "uint256"
        }
      ],
      "name": "maxSighThatCanBeStakedUpdated",
      "type": "event"
    },
    {
      "anonymous": false,
      "inputs": [
        {
          "indexed": false,
          "internalType": "address",
          "name": "staker",
          "type": "address"
        },
        {
          "indexed": false,
          "internalType": "uint256",
          "name": "instrumentIndex",
          "type": "uint256"
        },
        {
          "indexed": false,
          "internalType": "uint256",
          "name": "stakerIndex",
          "type": "uint256"
        },
        {
          "indexed": false,
          "internalType": "uint256",
          "name": "deltaIndexes",
          "type": "uint256"
        },
        {
          "indexed": false,
          "internalType": "uint256",
          "name": "newInstrumentAccumulated",
          "type": "uint256"
        },
        {
          "indexed": false,
          "internalType": "uint256",
          "name": "staker_instrumentAccumulated_instrumentBeingRewarded",
          "type": "uint256"
        },
        {
          "indexed": false,
          "internalType": "uint256",
          "name": "block_number",
          "type": "uint256"
        }
      ],
      "name": "updateStakerIndexUpdated",
      "type": "event"
    },
    {
      "anonymous": false,
      "inputs": [
        {
          "indexed": false,
          "internalType": "address",
          "name": "instrument_Rewarded",
          "type": "address"
        },
        {
          "indexed": false,
          "internalType": "string",
          "name": "instrument_name",
          "type": "string"
        },
        {
          "indexed": false,
          "internalType": "uint256",
          "name": "instrument_DistributionSpeed",
          "type": "uint256"
        },
        {
          "indexed": false,
          "internalType": "uint256",
          "name": "instrument_index",
          "type": "uint256"
        },
        {
          "indexed": false,
          "internalType": "uint256",
          "name": "instrument_totalAmountRewarded",
          "type": "uint256"
        },
        {
          "indexed": false,
          "internalType": "uint256",
          "name": "instrument_lastUpdatedBlock",
          "type": "uint256"
        }
      ],
      "name": "updatedInstrumentBeingDistributedIndex",
      "type": "event"
    },
    {
      "constant": true,
      "inputs": [],
      "name": "addressesProvider",
      "outputs": [
        {
          "internalType": "contract GlobalAddressesProvider",
          "name": "",
          "type": "address"
        }
      ],
      "payable": false,
      "stateMutability": "view",
      "type": "function"
    },
    {
      "constant": true,
      "inputs": [],
      "name": "sigh_Instrument",
      "outputs": [
        {
          "internalType": "contract IERC20",
          "name": "",
          "type": "address"
        }
      ],
      "payable": false,
      "stateMutability": "view",
      "type": "function"
    },
    {
      "constant": false,
      "inputs": [
        {
          "internalType": "contract GlobalAddressesProvider",
          "name": "addressesProvider_",
          "type": "address"
        }
      ],
      "name": "initialize",
      "outputs": [],
      "payable": false,
      "stateMutability": "nonpayable",
      "type": "function"
    },
    {
      "constant": false,
      "inputs": [
        {
          "internalType": "uint256",
          "name": "amount",
          "type": "uint256"
        }
      ],
      "name": "stake_SIGH",
      "outputs": [
        {
          "internalType": "bool",
          "name": "",
          "type": "bool"
        }
      ],
      "payable": false,
      "stateMutability": "nonpayable",
      "type": "function"
    },
    {
      "constant": false,
      "inputs": [
        {
          "internalType": "address",
          "name": "staker",
          "type": "address"
        },
        {
          "internalType": "uint256",
          "name": "amount",
          "type": "uint256"
        }
      ],
      "name": "updateStakedBalanceForStreaming",
      "outputs": [
        {
          "internalType": "bool",
          "name": "",
          "type": "bool"
        }
      ],
      "payable": false,
      "stateMutability": "nonpayable",
      "type": "function"
    },
    {
      "constant": false,
      "inputs": [
        {
          "internalType": "uint256",
          "name": "amount",
          "type": "uint256"
        }
      ],
      "name": "unstake_SIGH",
      "outputs": [
        {
          "internalType": "bool",
          "name": "",
          "type": "bool"
        }
      ],
      "payable": false,
      "stateMutability": "nonpayable",
      "type": "function"
    },
    {
      "constant": false,
      "inputs": [
        {
          "internalType": "address[]",
          "name": "stakingAddresses",
          "type": "address[]"
        }
      ],
      "name": "claimAllAccumulatedInstrumentsForUsers",
      "outputs": [],
      "payable": false,
      "stateMutability": "nonpayable",
      "type": "function"
    },
    {
      "constant": false,
      "inputs": [],
      "name": "claimAllAccumulatedInstruments",
      "outputs": [],
      "payable": false,
      "stateMutability": "nonpayable",
      "type": "function"
    },
    {
      "constant": false,
      "inputs": [
        {
          "internalType": "address",
          "name": "instrumentToBeClaimed",
          "type": "address"
        }
      ],
      "name": "claimAccumulatedInstrument",
      "outputs": [],
      "payable": false,
      "stateMutability": "nonpayable",
      "type": "function"
    },
    {
      "constant": false,
      "inputs": [
        {
          "internalType": "address",
          "name": "allowanceTarget",
          "type": "address"
        },
        {
          "internalType": "address payable",
          "name": "to",
          "type": "address"
        },
        {
          "internalType": "bytes",
          "name": "callDataHex",
          "type": "bytes"
        },
        {
          "internalType": "address",
          "name": "token_bought",
          "type": "address"
        },
        {
          "internalType": "address",
          "name": "token_sold",
          "type": "address"
        },
        {
          "internalType": "uint256",
          "name": "sellAmount",
          "type": "uint256"
        }
      ],
      "name": "swapTokensUsingOxAPI",
      "outputs": [
        {
          "internalType": "bool",
          "name": "",
          "type": "bool"
        }
      ],
      "payable": true,
      "stateMutability": "payable",
      "type": "function"
    },
    {
      "constant": false,
      "inputs": [
        {
          "internalType": "address",
          "name": "newInstrument",
          "type": "address"
        },
        {
          "internalType": "uint256",
          "name": "speed",
          "type": "uint256"
        }
      ],
      "name": "supportNewInstrumentForDistribution",
      "outputs": [
        {
          "internalType": "bool",
          "name": "",
          "type": "bool"
        }
      ],
      "payable": false,
      "stateMutability": "nonpayable",
      "type": "function"
    },
    {
      "constant": false,
      "inputs": [
        {
          "internalType": "address",
          "name": "instrument",
          "type": "address"
        }
      ],
      "name": "removeInstrumentFromDistribution",
      "outputs": [
        {
          "internalType": "bool",
          "name": "",
          "type": "bool"
        }
      ],
      "payable": false,
      "stateMutability": "nonpayable",
      "type": "function"
    },
    {
      "constant": false,
      "inputs": [
        {
          "internalType": "address",
          "name": "instrumentAddress",
          "type": "address"
        },
        {
          "internalType": "uint256",
          "name": "newSpeed",
          "type": "uint256"
        }
      ],
      "name": "setDistributionSpeed",
      "outputs": [
        {
          "internalType": "bool",
          "name": "",
          "type": "bool"
        }
      ],
      "payable": false,
      "stateMutability": "nonpayable",
      "type": "function"
    },
    {
      "constant": false,
      "inputs": [
        {
          "internalType": "uint256",
          "name": "amount",
          "type": "uint256"
        }
      ],
      "name": "updateMaxSighThatCanBeStaked",
      "outputs": [
        {
          "internalType": "bool",
          "name": "",
          "type": "bool"
        }
      ],
      "payable": false,
      "stateMutability": "nonpayable",
      "type": "function"
    },
    {
      "constant": false,
      "inputs": [
        {
          "internalType": "address",
          "name": "instrument",
          "type": "address"
        }
      ],
      "name": "updateBalance",
      "outputs": [
        {
          "internalType": "uint256",
          "name": "",
          "type": "uint256"
        }
      ],
      "payable": false,
      "stateMutability": "nonpayable",
      "type": "function"
    },
    {
      "constant": true,
      "inputs": [],
      "name": "getInstrumentsSupported",
      "outputs": [
        {
          "internalType": "address[]",
          "name": "",
          "type": "address[]"
        }
      ],
      "payable": false,
      "stateMutability": "view",
      "type": "function"
    },
    {
      "constant": true,
      "inputs": [
        {
          "internalType": "address",
          "name": "instrument",
          "type": "address"
        }
      ],
      "name": "isInstrumentSupported",
      "outputs": [
        {
          "internalType": "bool",
          "name": "",
          "type": "bool"
        }
      ],
      "payable": false,
      "stateMutability": "view",
      "type": "function"
    },
    {
      "constant": true,
      "inputs": [
        {
          "internalType": "address",
          "name": "instrument",
          "type": "address"
        }
      ],
      "name": "getDistributionSpeed",
      "outputs": [
        {
          "internalType": "uint256",
          "name": "",
          "type": "uint256"
        }
      ],
      "payable": false,
      "stateMutability": "view",
      "type": "function"
    },
    {
      "constant": true,
      "inputs": [
        {
          "internalType": "address",
          "name": "instrumentAddress",
          "type": "address"
        }
      ],
      "name": "getInstrumentState",
      "outputs": [
        {
          "internalType": "string",
          "name": "name",
          "type": "string"
        },
        {
          "internalType": "uint256",
          "name": "index",
          "type": "uint256"
        },
        {
          "internalType": "uint256",
          "name": "rewardDistributionSpeed",
          "type": "uint256"
        },
        {
          "internalType": "uint256",
          "name": "totalAmountRewarded",
          "type": "uint256"
        },
        {
          "internalType": "uint256",
          "name": "balance",
          "type": "uint256"
        },
        {
          "internalType": "uint256",
          "name": "lastUpdatedBlock",
          "type": "uint256"
        }
      ],
      "payable": false,
      "stateMutability": "view",
      "type": "function"
    },
    {
      "constant": true,
      "inputs": [
        {
          "internalType": "address",
          "name": "instrument",
          "type": "address"
        }
      ],
      "name": "getInstrumentBalance",
      "outputs": [
        {
          "internalType": "uint256",
          "name": "",
          "type": "uint256"
        }
      ],
      "payable": false,
      "stateMutability": "view",
      "type": "function"
    },
    {
      "constant": true,
      "inputs": [
        {
          "internalType": "address",
          "name": "account",
          "type": "address"
        }
      ],
      "name": "getStakedBalanceForStaker",
      "outputs": [
        {
          "internalType": "uint256",
          "name": "",
          "type": "uint256"
        }
      ],
      "payable": false,
      "stateMutability": "view",
      "type": "function"
    },
    {
      "constant": true,
      "inputs": [
        {
          "internalType": "address",
          "name": "account",
          "type": "address"
        },
        {
          "internalType": "address",
          "name": "instrument",
          "type": "address"
        }
      ],
      "name": "getStakersAccumulatedInstrumentAmount",
      "outputs": [
        {
          "internalType": "uint256",
          "name": "",
          "type": "uint256"
        }
      ],
      "payable": false,
      "stateMutability": "view",
      "type": "function"
    },
    {
      "constant": true,
      "inputs": [],
      "name": "getTotalStakedSIGH",
      "outputs": [
        {
          "internalType": "uint256",
          "name": "",
          "type": "uint256"
        }
      ],
      "payable": false,
      "stateMutability": "view",
      "type": "function"
    },
    {
      "constant": true,
      "inputs": [],
      "name": "getTotalStakers",
      "outputs": [
        {
          "internalType": "uint256",
          "name": "",
          "type": "uint256"
        }
      ],
      "payable": false,
      "stateMutability": "view",
      "type": "function"
    },
    {
      "constant": true,
      "inputs": [],
      "name": "getmaxSighThatCanBeStaked",
      "outputs": [
        {
          "internalType": "uint256",
          "name": "",
          "type": "uint256"
        }
      ],
      "payable": false,
      "stateMutability": "view",
      "type": "function"
    }
  ],
  "bytecode": "0x608060405260008055600019603b5534801561001a57600080fd5b50613d778061002a6000396000f3fe6080604052600436106101665760003560e01c80637e54c794116100d1578063c4f399411161008a578063dd9125ec11610064578063dd9125ec1461060e578063df28b7f114610641578063f1c6e555146106e3578063f6270ba41461071657610166565b8063c4f39941146105b1578063c699308e146105c6578063c72c4d10146105f957610166565b80637e54c7941461047c5780639e0c20d8146104a6578063a84d7898146104e1578063b6491aaf1461051a578063c3d1b72d1461054b578063c4d66de81461057e57610166565b80633e88048c116101235780633e88048c1461035a5780633eb9bab71461039857806340b8405a146103ad57806359a8f018146103e0578063660ecbc91461040a5780636a5d6bee1461044357610166565b80630a6e49161461016b5780630cd68968146101b05780631f6c0873146101c55780632a0eb4511461029357806331ed0db4146103125780633896eb8c14610327575b600080fd5b34801561017757600080fd5b5061019e6004803603602081101561018e57600080fd5b50356001600160a01b031661077b565b60408051918252519081900360200190f35b3480156101bc57600080fd5b5061019e6107c7565b3480156101d157600080fd5b506101f8600480360360208110156101e857600080fd5b50356001600160a01b03166107ce565b6040518080602001878152602001868152602001858152602001848152602001838152602001828103825288818151815260200191508051906020019080838360005b8381101561025357818101518382015260200161023b565b50505050905090810190601f1680156102805780820380516001836020036101000a031916815260200191505b5097505050505050505060405180910390f35b34801561029f57600080fd5b50610310600480360360208110156102b657600080fd5b8101906020810181356401000000008111156102d157600080fd5b8201836020820111156102e357600080fd5b8035906020019184602083028401116401000000008311171561030557600080fd5b5090925090506108b3565b005b34801561031e57600080fd5b5061019e6108ef565b34801561033357600080fd5b506103106004803603602081101561034a57600080fd5b50356001600160a01b03166108f5565b34801561036657600080fd5b506103846004803603602081101561037d57600080fd5b5035610902565b604080519115158252519081900360200190f35b3480156103a457600080fd5b50610310610b74565b3480156103b957600080fd5b5061019e600480360360208110156103d057600080fd5b50356001600160a01b0316610b7f565b3480156103ec57600080fd5b506103846004803603602081101561040357600080fd5b5035610c90565b34801561041657600080fd5b506103846004803603604081101561042d57600080fd5b506001600160a01b038135169060200135610dab565b34801561044f57600080fd5b506103846004803603604081101561046657600080fd5b506001600160a01b038135169060200135610fa7565b34801561048857600080fd5b506103846004803603602081101561049f57600080fd5b50356111f6565b3480156104b257600080fd5b5061019e600480360360408110156104c957600080fd5b506001600160a01b03813581169160200135166114f1565b3480156104ed57600080fd5b506103846004803603604081101561050457600080fd5b506001600160a01b038135169060200135611520565b34801561052657600080fd5b5061052f611bc9565b604080516001600160a01b039092168252519081900360200190f35b34801561055757600080fd5b506103846004803603602081101561056e57600080fd5b50356001600160a01b0316611bd8565b34801561058a57600080fd5b50610310600480360360208110156105a157600080fd5b50356001600160a01b0316611c01565b3480156105bd57600080fd5b5061019e611d44565b3480156105d257600080fd5b5061019e600480360360208110156105e957600080fd5b50356001600160a01b0316611d4a565b34801561060557600080fd5b5061052f611dcc565b34801561061a57600080fd5b5061019e6004803603602081101561063157600080fd5b50356001600160a01b0316611ddb565b610384600480360360c081101561065757600080fd5b6001600160a01b03823581169260208101359091169181019060608101604082013564010000000081111561068b57600080fd5b82018360208201111561069d57600080fd5b803590602001918460018302840111640100000000831117156106bf57600080fd5b91935091506001600160a01b03813581169160208101359091169060400135611df9565b3480156106ef57600080fd5b506103846004803603602081101561070657600080fd5b50356001600160a01b031661249a565b34801561072257600080fd5b5061072b6127d5565b60408051602080825283518183015283519192839290830191858101910280838360005b8381101561076757818101518382015260200161074f565b505050509050019250505060405180910390f35b6001600160a01b038116600090815260366020526040812060010154156107be57506001600160a01b0381166000908152603660205260409020600201546107c2565b5060005b919050565b6039545b90565b6001600160a01b0381166000908152603660209081526040808320600180820154600280840154600385015460058601546004870154875489519781161561010002600019011694909404601f81018a90048a0287018a0190985287865260609998899889988998899891979196959493919290918891908301828280156108975780601f1061086c57610100808354040283529160200191610897565b820191906000526020600020905b81548152906001019060200180831161087a57829003601f168201915b5050505050955095509550955095509550955091939550919395565b60005b818110156108ea576108e28383838181106108cd57fe5b905060200201356001600160a01b0316612837565b6001016108b6565b505050565b603a5490565b6108ff338261287b565b50565b60008082116109425760405162461bcd60e51b8152600401808060200182810382526021815260200180613b196021913960400191505060405180910390fd5b61094a612b85565b3360009081526038602052604090205460ff16156109705761096b33612fc3565b610979565b610979336132ca565b603454604080516323b872dd60e01b81523360048201523060248201526044810185905290516001600160a01b03909216916323b872dd916064808201926020929091908290030181600087803b1580156109d357600080fd5b505af11580156109e7573d6000803e3d6000fd5b505050506040513d60208110156109fd57600080fd5b5051610a3a5760405162461bcd60e51b8152600401808060200182810382526035815260200180613c006035913960400191505060405180910390fd5b600060386000336001600160a01b03166001600160a01b03168152602001908152602001600020600101549050610aa781846040518060400160405280601c81526020017f4e6577205374616b696e672062616c616e6365206f766572666c6f770000000081525061339c565b33600090815260386020526040902060010155603954610ac78185613437565b6039819055603b5411610b0b5760405162461bcd60e51b815260040180806020018281038252602d815260200180613918602d913960400191505060405180910390fd5b33600081815260386020908152604091829020600101546039548351948552918401889052838301526060830152436080830152517f31997d9f388ee2bbc01654cf1abbbdb64d0d61a4c734809af4c4d46878f732779181900360a00190a15060019392505050565b610b7d33612837565b565b6034546000906001600160a01b0383811691161415610bcf5760405162461bcd60e51b81526004018080602001828103825260608152602001806138456060913960600191505060405180910390fd5b604080516370a0823160e01b8152306004820152905183916000916001600160a01b038416916370a08231916024808301926020929190829003018186803b158015610c1a57600080fd5b505afa158015610c2e573d6000803e3d6000fd5b505050506040513d6020811015610c4457600080fd5b50516001600160a01b03851660009081526036602052604090206001015490915015610c89576001600160a01b03841660009081526036602052604090206005018190555b9392505050565b6000336001600160a01b0316603560009054906101000a90046001600160a01b03166001600160a01b031663db49224b6040518163ffffffff1660e01b815260040160206040518083038186803b158015610cea57600080fd5b505afa158015610cfe573d6000803e3d6000fd5b505050506040513d6020811015610d1457600080fd5b50516001600160a01b031614610d5b5760405162461bcd60e51b815260040180806020018281038252603a8152602001806139ef603a913960400191505060405180910390fd5b603b8054908390556040805182815260208101859052438183015290517f0974c59f9ef36dd477ddc1a24df11ea7fd6039a59447a1559ee013cc132da43b9181900360600190a150600192915050565b6000336001600160a01b0316603560009054906101000a90046001600160a01b03166001600160a01b031663d72e28026040518163ffffffff1660e01b815260040160206040518083038186803b158015610e0557600080fd5b505afa158015610e19573d6000803e3d6000fd5b505050506040513d6020811015610e2f57600080fd5b50516001600160a01b031614610e765760405162461bcd60e51b8152600401808060200182810382526039815260200180613ae06039913960400191505060405180910390fd5b610e7e612b85565b6001600160a01b03831660009081526038602052604090205460ff1615610ead57610ea883612fc3565b610eb6565b610eb6836132ca565b600060386000856001600160a01b03166001600160a01b03168152602001908152602001600020600101549050610f068184604051806060016040528060218152602001613bb16021913961339c565b6001600160a01b038516600090815260386020526040902060010155603954610f2f9084613437565b60398190556001600160a01b03851660008181526038602090815260409182902060010154825193845290830187905282820152606082019290925243608082015290517f8e0abafe6237b43186db6b4c15bc1bf11fbc9e9f5f7210d3bd5dece351c5b0919181900360a00190a15060019392505050565b6000336001600160a01b0316603560009054906101000a90046001600160a01b03166001600160a01b031663db49224b6040518163ffffffff1660e01b815260040160206040518083038186803b15801561100157600080fd5b505afa158015611015573d6000803e3d6000fd5b505050506040513d602081101561102b57600080fd5b50516001600160a01b0316146110725760405162461bcd60e51b815260040180806020018281038252603a8152602001806139ef603a913960400191505060405180910390fd5b6001600160a01b0383166000908152603660205260409020600101546110c95760405162461bcd60e51b8152600401808060200182810382526055815260200180613a506055913960600191505060405180910390fd5b6001600160a01b038316600090815260366020526040902060020154156110f2576110f2612b85565b6001600160a01b038316600081815260366020908152604091829020600280820180549088905543600484018190558551968752948601819052606086018890526080860185905260a09386018481528354600019610100600183161502011692909204938601849052947faef42020169c61ae9c024eb50ccecf6eb3387a62718dd27c7234d585382cc2af94899487938a939160c0830190879080156111da5780601f106111af576101008083540402835291602001916111da565b820191906000526020600020905b8154815290600101906020018083116111bd57829003601f168201915b5050965050505050505060405180910390a15060019392505050565b60008082116112365760405162461bcd60e51b8152600401808060200182810382526024815260200180613cc66024913960400191505060405180910390fd5b3360009081526038602052604090205460ff166112845760405162461bcd60e51b8152600401808060200182810382526023815260200180613b8e6023913960400191505060405180910390fd5b61128c612b85565b61129533612fc3565b336000908152603860205260409020600101548211156112c5573360009081526038602052604090206001015491505b6034546040805163a9059cbb60e01b81523360048201526024810185905290516001600160a01b039092169163a9059cbb916044808201926020929091908290030181600087803b15801561131957600080fd5b505af115801561132d573d6000803e3d6000fd5b505050506040513d602081101561134357600080fd5b50516113805760405162461bcd60e51b8152600401808060200182810382526029815260200180613c9d6029913960400191505060405180910390fd5b600060386000336001600160a01b03166001600160a01b031681526020019081526020016000206001015490506113ed81846040518060400160405280601d81526020017f4e6577205374616b696e672062616c616e636520756e646572666c6f7700000081525061346d565b60386000336001600160a01b03166001600160a01b031681526020019081526020016000206001018190555061143e60395484604051806060016040528060278152602001613a296027913961346d565b6039553360009081526038602052604090206001015461148957336000818152603860205260409020805460ff1916905561147890612837565b611485603a5460016134c7565b603a555b33600081815260386020908152604091829020600101546039548351948552918401879052838301526060830152436080830152517f0e01c0c4c02f503d574825dcb01207f2f60d2da09744a1c9a6772b33766180599181900360a00190a150600192915050565b6001600160a01b0391821660009081526038602090815260408083209390941682526003909201909152205490565b6000336001600160a01b0316603560009054906101000a90046001600160a01b03166001600160a01b031663db49224b6040518163ffffffff1660e01b815260040160206040518083038186803b15801561157a57600080fd5b505afa15801561158e573d6000803e3d6000fd5b505050506040513d60208110156115a457600080fd5b50516001600160a01b0316146115eb5760405162461bcd60e51b815260040180806020018281038252603a8152602001806139ef603a913960400191505060405180910390fd5b6001600160a01b038316600090815260366020526040902060010154156116435760405162461bcd60e51b8152600401808060200182810382526059815260200180613cea6059913960600191505060405180910390fd5b61164b612b85565b603780546001810182556000919091527f42a7b7dd785cd69714a189dffb3fd7d7174edc9ece837694ce50f7078f7c31ae0180546001600160a01b0319166001600160a01b03851617905582806116a061370b565b60405180602001604052806ec097ce7bc90715b34b9f100000000081525090506040518060c00160405280836001600160a01b03166306fdde036040518163ffffffff1660e01b815260040160006040518083038186803b15801561170457600080fd5b505afa158015611718573d6000803e3d6000fd5b505050506040513d6000823e601f3d908101601f19168201604052602081101561174157600080fd5b810190808051604051939291908464010000000082111561176157600080fd5b90830190602082018581111561177657600080fd5b825164010000000081118282018810171561179057600080fd5b82525081516020918201929091019080838360005b838110156117bd5781810151838201526020016117a5565b50505050905090810190601f1680156117ea5780820380516001836020036101000a031916815260200191505b5060405250505081526020018260000151815260200186815260200160008152602001438152602001846001600160a01b03166370a08231306040518263ffffffff1660e01b815260040180826001600160a01b03166001600160a01b0316815260200191505060206040518083038186803b15801561186957600080fd5b505afa15801561187d573d6000803e3d6000fd5b505050506040513d602081101561189357600080fd5b505190526001600160a01b03871660009081526036602090815260409091208251805191926118c79284929091019061371e565b506020820151816001015560408201518160020155606082015181600301556080820151816004015560a082015181600501559050508460366000886001600160a01b03166001600160a01b0316815260200190815260200160002060020154146119635760405162461bcd60e51b815260040180806020018281038252602b815260200180613c72602b913960400191505060405180910390fd5b80516001600160a01b038716600090815260366020526040902060010154146119d3576040805162461bcd60e51b815260206004820152601e60248201527f496e646578206e6f7420696e697469616c697a65642070726f7065726c790000604482015290519081900360640190fd5b7f4c0426ff24ccb12fd9f9c24e771a1040d4180057bc4009761ab073f402ea80578660366000896001600160a01b03166001600160a01b03168152602001908152602001600020600001603660008a6001600160a01b03166001600160a01b0316815260200190815260200160002060010154603660008b6001600160a01b03166001600160a01b0316815260200190815260200160002060020154603660008c6001600160a01b03166001600160a01b0316815260200190815260200160002060030154603660008d6001600160a01b03166001600160a01b0316815260200190815260200160002060050154603660008e6001600160a01b03166001600160a01b031681526020019081526020016000206004015460405180886001600160a01b03166001600160a01b0316815260200180602001878152602001868152602001858152602001848152602001838152602001828103825288818154600181600116156101000203166002900481526020019150805460018160011615610100020316600290048015611ba95780601f10611b7e57610100808354040283529160200191611ba9565b820191906000526020600020905b815481529060010190602001808311611b8c57829003601f168201915b50509850505050505050505060405180910390a150600195945050505050565b6034546001600160a01b031681565b6001600160a01b038116600090815260366020526040812060010154156107be575060016107c2565b6000611c0b613501565b60015490915060ff1680611c225750611c22613506565b80611c2e575060005481115b611c695760405162461bcd60e51b815260040180806020018281038252602e815260200180613bd2602e913960400191505060405180910390fd5b60015460ff16158015611c88576001805460ff19168117905560008290555b603580546001600160a01b0319166001600160a01b03858116919091179182905560408051632106a90360e21b81529051929091169163841aa40c91600480820192602092909190829003018186803b158015611ce457600080fd5b505afa158015611cf8573d6000803e3d6000fd5b505050506040513d6020811015611d0e57600080fd5b5051603480546001600160a01b0319166001600160a01b0390921691909117905580156108ea576001805460ff19169055505050565b603b5490565b604080516370a0823160e01b81523060048201529051600091839183916001600160a01b038416916370a0823191602480820192602092909190829003018186803b158015611d9857600080fd5b505afa158015611dac573d6000803e3d6000fd5b505050506040513d6020811015611dc257600080fd5b5051949350505050565b6035546001600160a01b031681565b6001600160a01b031660009081526038602052604090206001015490565b6000336001600160a01b0316603560009054906101000a90046001600160a01b03166001600160a01b031663878543546040518163ffffffff1660e01b815260040160206040518083038186803b158015611e5357600080fd5b505afa158015611e67573d6000803e3d6000fd5b505050506040513d6020811015611e7d57600080fd5b50516001600160a01b031614611ec45760405162461bcd60e51b815260040180806020018281038252602b8152602001806138a5602b913960400191505060405180910390fd5b6034546001600160a01b0384811691161415611f115760405162461bcd60e51b815260040180806020018281038252603d815260200180613c35603d913960400191505060405180910390fd5b6034546001600160a01b0385811691161415611f5e5760405162461bcd60e51b815260040180806020018281038252603f815260200180613806603f913960400191505060405180910390fd5b604080516370a0823160e01b81523060048201529051859185916000916001600160a01b038516916370a0823191602480820192602092909190829003018186803b158015611fac57600080fd5b505afa158015611fc0573d6000803e3d6000fd5b505050506040513d6020811015611fd657600080fd5b5051604080516370a0823160e01b815230600482015290519192506000916001600160a01b038516916370a08231916024808301926020929190829003018186803b15801561202457600080fd5b505afa158015612038573d6000803e3d6000fd5b505050506040513d602081101561204e57600080fd5b50516040805163095ea7b360e01b81526001600160a01b038f81166004830152602482018a905291519293509085169163095ea7b3916044808201926020929091908290030181600087803b1580156120a657600080fd5b505af11580156120ba573d6000803e3d6000fd5b505050506040513d60208110156120d057600080fd5b50516120db57600080fd5b600060608c6001600160a01b0316348d8d604051808383808284376040519201945060009350909150508083038185875af1925050503d806000811461213d576040519150601f19603f3d011682016040523d82523d6000602084013e612142565b606091505b50915091508161218d576040805162461bcd60e51b81526020600482015260116024820152701513d2d1538814d5d05408119052531151607a1b604482015290519081900360640190fd5b811561248457604080516370a0823160e01b815230600482015290516000916001600160a01b038916916370a0823191602480820192602092909190829003018186803b1580156121dd57600080fd5b505afa1580156121f1573d6000803e3d6000fd5b505050506040513d602081101561220757600080fd5b5051604080516370a0823160e01b815230600482015290519192506000916001600160a01b038916916370a08231916024808301926020929190829003018186803b15801561225557600080fd5b505afa158015612269573d6000803e3d6000fd5b505050506040513d602081101561227f57600080fd5b5051604080518082019091526015815274416d6f756e7420536f6c6420756e646572666c6f7760581b60208201529091506000906122c0908790849061346d565b90508a81146123005760405162461bcd60e51b81526004018080602001828103825260488152602001806138d06048913960600191505060405180910390fd5b60006123258489604051806080016040528060548152602001613b3a6054913961346d565b90507f22f6af6e13430e3e7b6418d01e6a48c1fbce5e8cb1698901fc95134b4b1c58ad8e89838760405180856001600160a01b03166001600160a01b0316815260200184815260200183815260200182815260200194505050505060405180910390a1604080516001600160a01b038f168152602081018990528082018490526060810185905290517f6db63bebf1e6540277744df32846ebdb98385b1a73f2d5de49b28348add63f509181900360800190a17fdcfa816c675129132906d878736fcdb3261d869fd69cdeae5db3bef320f09e57856040518080602001828103825283818151815260200191508051906020019080838360005b8381101561243757818101518382015260200161241f565b50505050905090810190601f1680156124645780820380516001836020036101000a031916815260200191505b509250505060405180910390a160019a505050505050505050505061248f565b600096505050505050505b979650505050505050565b6000336001600160a01b0316603560009054906101000a90046001600160a01b03166001600160a01b031663db49224b6040518163ffffffff1660e01b815260040160206040518083038186803b1580156124f457600080fd5b505afa158015612508573d6000803e3d6000fd5b505050506040513d602081101561251e57600080fd5b50516001600160a01b0316146125655760405162461bcd60e51b815260040180806020018281038252603a8152602001806139ef603a913960400191505060405180910390fd5b6001600160a01b0382166000908152603660205260409020600101546125bc5760405162461bcd60e51b815260040180806020018281038252605381526020018061399c6053913960600191505060405180910390fd5b6125c4612b85565b603754600090815b8181101561261657846001600160a01b0316603782815481106125eb57fe5b6000918252602090912001546001600160a01b0316141561260e57809250612616565b6001016125cc565b506037600182038154811061262757fe5b600091825260209091200154603780546001600160a01b03909216918490811061264d57fe5b600091825260209091200180546001600160a01b0319166001600160a01b0392909216919091179055603780549061268990600019830161379c565b5060375460001982019081146126d05760405162461bcd60e51b81526004018080602001828103825260578152602001806139456057913960600191505060405180910390fd5b6001600160a01b0385166000818152603660209081526040808320600180820185905560028083018690556005830186905560048301959095556003820154835196875292860183905260609386018481528254918216156101000260001901909116949094049285018390527fcbb260cb78ae90db77cf27625c93b6704b2591294907227374b9361a34bba6ba948a9491939091906080830190859080156127ba5780601f1061278f576101008083540402835291602001916127ba565b820191906000526020600020905b81548152906001019060200180831161279d57829003601f168201915b505094505050505060405180910390a1506001949350505050565b6060603780548060200260200160405190810160405280929190818152602001828054801561282d57602002820191906000526020600020905b81546001600160a01b0316815260019091019060200180831161280f575b5050505050905090565b60005b6037548110156128775761286f826037838154811061285557fe5b6000918252602090912001546001600160a01b031661287b565b60010161283a565b5050565b6001600160a01b0380831660009081526038602090815260408083209385168352600390930190522054819080158015906129295750604080516370a0823160e01b8152306004820152905182916001600160a01b038516916370a0823191602480820192602092909190829003018186803b1580156128fa57600080fd5b505afa15801561290e573d6000803e3d6000fd5b505050506040513d602081101561292457600080fd5b505110155b15612b7f57816001600160a01b031663a9059cbb85836040518363ffffffff1660e01b815260040180836001600160a01b03166001600160a01b0316815260200182815260200192505050602060405180830381600087803b15801561298e57600080fd5b505af11580156129a2573d6000803e3d6000fd5b505050506040513d60208110156129b857600080fd5b50516129f55760405162461bcd60e51b815260040180806020018281038252603b815260200180613aa5603b913960400191505060405180910390fd5b6001600160a01b038085166000908152603860209081526040808320878516845260030182528083209290925581516370a0823160e01b81523060048201529151928516926370a08231926024808201939291829003018186803b158015612a5c57600080fd5b505afa158015612a70573d6000803e3d6000fd5b505050506040513d6020811015612a8657600080fd5b50516001600160a01b0380851660008181526036602090815260409182902060058101959095558151938916845283019190915260608201849052436080830181905260a09183018281528454600260001961010060018416150201909116049284018390527f2f8173c14da9925b33432de9ccfa5ef6ccdc2c0dbec64cef1f26936e3f9016ca948994899491938893909260c083019086908015612b6c5780601f10612b4157610100808354040283529160200191612b6c565b820191906000526020600020905b815481529060010190602001808311612b4f57829003601f168201915b5050965050505050505060405180910390a15b50505050565b4360005b6037548110156128775760006036600060378481548110612ba657fe5b9060005260206000200160009054906101000a90046001600160a01b03166001600160a01b03166001600160a01b0316815260200190815260200160002090506000612c0f8483600401546040518060600160405280602f81526020016137d7602f913961346d565b9050600081118015612c25575060008260020154115b8015612c3357506000603954115b15612d3d576000612c4882846002015461350c565b9050612c5261370b565b612c5e8260395461354e565b9050612c6861370b565b612c84604051806020016040528087600101548152508361358c565b90507fa7f05e6d3aa8e0a71a9c83f8d9f301eb88584c6718f014c8017d331f751cae9860378781548110612cb457fe5b600091825260209182902001546002880154855160018a01548651604080516001600160a01b0390961686529585018b90528486019390935260608401899052608084019190915260a083015260c082015290519081900360e00190a180516001860155600485018790556003850154612d2e8185613437565b600387015550612d4b92505050565b8015612d4b57600482018490555b7f22b5c0063600ab7a9787ef30989b291082ebc11f39d56f8e49b53433f5f6ee9860378481548110612d7957fe5b9060005260206000200160009054906101000a90046001600160a01b03166036600060378781548110612da857fe5b60009182526020808320909101546001600160a01b03168352820192909252604001812060378054919260369290919089908110612de257fe5b9060005260206000200160009054906101000a90046001600160a01b03166001600160a01b03166001600160a01b03168152602001908152602001600020600201546036600060378981548110612e3557fe5b9060005260206000200160009054906101000a90046001600160a01b03166001600160a01b03166001600160a01b03168152602001908152602001600020600101546036600060378a81548110612e8857fe5b9060005260206000200160009054906101000a90046001600160a01b03166001600160a01b03166001600160a01b03168152602001908152602001600020600301546036600060378b81548110612edb57fe5b60009182526020808320909101546001600160a01b0390811684528382019490945260409283019091206004015482519389168452918301869052606083018590526080830184905260a0830182905260c09083018181528754600260001960018316156101000201909116049184018290529192919060e083019088908015612fa65780601f10612f7b57610100808354040283529160200191612fa6565b820191906000526020600020905b815481529060010190602001808311612f8957829003601f168201915b505097505050505050505060405180910390a15050600101612b89565b60005b6037548110156128775760006036600060378481548110612fe357fe5b60009182526020808320909101546001600160a01b03908116845283820194909452604092830182206001015493871682526038905290812060378054939450919260029091019183918690811061303757fe5b60009182526020808320909101546001600160a01b039081168452838201949094526040928301822054938816825260389052908120603780549394508593600290920192918790811061308757fe5b60009182526020808320909101546001600160a01b03168352820192909252604001902055806130c357506ec097ce7bc90715b34b9f10000000005b6130cb61370b565b6130f16040518060200160405280858152506040518060200160405280858152506135b1565b6001600160a01b0386166000908152603860205260408120600101549192509061311b90836135d6565b9050600060386000886001600160a01b03166001600160a01b0316815260200190815260200160002060030160006037888154811061315657fe5b60009182526020808320909101546001600160a01b0316835282019290925260400190205490506131878183613437565b6001600160a01b038816600090815260386020526040812060378054600390920192918a9081106131b457fe5b9060005260206000200160009054906101000a90046001600160a01b03166001600160a01b03166001600160a01b03168152602001908152602001600020819055507fa4f6ff21efba945308596626fa13b80f2b453da6a42e1c2a4eae24e89956cb3b878686866000015186603860008e6001600160a01b03166001600160a01b03168152602001908152602001600020600301600060378e8154811061325757fe5b60009182526020808320909101546001600160a01b039081168452838201949094526040928301909120548251989093168852870195909552858501939093526060850191909152608084015260a08301524360c0830152519081900360e00190a1505060019093019250612fc6915050565b60005b6037548110156133635760366000603783815481106132e857fe5b60009182526020808320909101546001600160a01b03908116845283820194909452604092830182206001015493861682526038905290812060378054600290920192918590811061333657fe5b60009182526020808320909101546001600160a01b031683528201929092526040019020556001016132cd565b506001600160a01b0381166000908152603860205260409020805460ff19166001908117909155603a5461339691613437565b603a5550565b6000838301828582101561342e5760405162461bcd60e51b81526004018080602001828103825283818151815260200191508051906020019080838360005b838110156133f35781810151838201526020016133db565b50505050905090810190601f1680156134205780820380516001836020036101000a031916815260200191505b509250505060405180910390fd5b50949350505050565b6000610c898383604051806040016040528060118152602001706164646974696f6e206f766572666c6f7760781b81525061339c565b600081848411156134bf5760405162461bcd60e51b81526020600482018181528351602484015283519092839260449091019190850190808383600083156133f35781810151838201526020016133db565b505050900390565b6000610c898383604051806040016040528060158152602001747375627472616374696f6e20756e646572666c6f7760581b81525061346d565b600190565b303b1590565b6000610c8983836040518060400160405280601781526020017f6d756c7469706c69636174696f6e206f766572666c6f77000000000000000000815250613605565b61355661370b565b604051806020016040528061358361357d866ec097ce7bc90715b34b9f100000000061350c565b8561367b565b90529392505050565b61359461370b565b604051806020016040528061358385600001518560000151613437565b6135b961370b565b6040518060200160405280613583856000015185600001516134c7565b60006ec097ce7bc90715b34b9f10000000006135f684846000015161350c565b816135fd57fe5b049392505050565b6000831580613612575082155b1561361f57506000610c89565b8383028385828161362c57fe5b0414839061342e5760405162461bcd60e51b81526020600482018181528351602484015283519092839260449091019190850190808383600083156133f35781810151838201526020016133db565b6000610c8983836040518060400160405280600e81526020016d646976696465206279207a65726f60901b815250600081836136f85760405162461bcd60e51b81526020600482018181528351602484015283519092839260449091019190850190808383600083156133f35781810151838201526020016133db565b5082848161370257fe5b04949350505050565b6040518060200160405280600081525090565b828054600181600116156101000203166002900490600052602060002090601f016020900481019282601f1061375f57805160ff191683800117855561378c565b8280016001018555821561378c579182015b8281111561378c578251825591602001919060010190613771565b506137989291506137bc565b5090565b8154818355818111156108ea576000838152602090206108ea9181019083015b6107cb91905b8082111561379857600081556001016137c256fe757064617465526577617264496e646578203a20426c6f636b205375627472616374696f6e20556e646572666c6f775374616b6564205349474820496e737472756d656e742063616e6e6f7420626520626f7567687420627920746865207374616b696e6720636f6e74726163745374616b6564205349474820496e737472756d656e7427732062616c616e63652063616e6e6f742062652075706461746564206173206974206d6179206c65616420746f20616d62696775697469657320696e2063616c63756c6174696f6e735468652063616c6c6572206d7573742062652074686520534947482046696e616e6365204d616e616765725468652073656c6c20616d6f756e74206d656e74696f6e656420616e64207468652061637475616c20616d6f756e74207472616e7366657272656420646f206e6f74206d617463684d6178696d756d205349474820746861742063616e206265207374616b6564206c696d69742072656163686564496e737472756d656e74206e6f742070726f7065726c792072656d6f7665642066726f6d20746865206c697374206f6620696e737472756d656e747320737570706f7274656420666f7220646973747269627574696f6e5468652070726f766964656420696e737472756d656e7420686173206e6f74206265656e20696e697469616c697a656420666f7220646973747269627574696f6e20616d6f6e6720746865207374616b6572735468652063616c6c6572206d7573742062652074686520534947482046696e616e61636520436f6e666967757261746f7220436f6e7472616374546f74616c205374616b65642053696768205375627472616374696f6e20756e646572666c6f775468652070726f766964656420696e737472756d656e74206164647265737320686173206e6f74206265656e20616464656420666f7220646973747269627574696f6e20616d6f6e6720746865207374616b657273496e737472756d656e7420416363756d756c61746564206661696c656420746f206265207472616e7366657272656420746f2074686520557365725468652063616c6c6572206d75737420626520746865205349474820446973747269627574696f6e2048616e646c657220436f6e74726163745349474820746f206265205374616b65642063616e6e6f74206265207a65726f2e4e657720546f6b656e2042616c616e636520666f7220746f6b656e73207468617420617265206265696e6720426f75676874206973206c6f776572207468616e2069747320696e697469616c2062616c616e63655573657220646f65736e2774206861766520616e79205374616b656420616d6f756e744e6577205374616b65642042616c616e6365206164646974696f6e206572726f72436f6e747261637420696e7374616e63652068617320616c7265616479206265656e20696e697469616c697a65645349474820636f756c64206e6f74206265207472616e7366657272656420746f20746865205374616b696e6720436f6e74726163745374616b6564205349474820496e737472756d656e742063616e6e6f7420626520736f6c6420627920746865207374616b696e6720636f6e7472616374446973747269627574696f6e205370656564206e6f7420696e697469616c697a65642070726f7065726c795349474820636f756c64206e6f74206265207472616e7366657272656420746f2074686520557365725349474820746f20626520556e2d5374616b65642063616e6e6f74206265207a65726f2e5468652070726f766964656420696e737472756d656e7420616464726573732068617320616c7265616479206265656e20616464656420666f7220646973747269627574696f6e20616d6f6e6720746865207374616b657273a265627a7a723158209ab2e3310a919f93729719ddfedb4f347c06142ed3f6ce03515b51c8bb07967b64736f6c63430005100032",
  "source": "pragma solidity ^0.5.0;\n\n/**\n * @title Sigh Staking Contract\n * @notice Distributes rewards (Fee + % of Interest collected from Lending Protocol ) to SIGH Stakers\n * @author SIGH Finance\n */\n\n\nimport \"openzeppelin-solidity/contracts/math/SafeMath.sol\";\nimport \"openzeppelin-solidity/contracts/token/ERC20/IERC20.sol\";\nimport \"openzeppelin-solidity/contracts/token/ERC20/ERC20Detailed.sol\";\nimport \"openzeppelin-solidity/contracts/token/ERC20/SafeERC20.sol\";\n\nimport \"../Math/Exponential.sol\";\n\nimport \"../../openzeppelin-upgradeability/VersionedInitializable.sol\";\nimport \"../../configuration/GlobalAddressesProvider.sol\";\n\n\ncontract SighStaking is  VersionedInitializable, Exponential  { \n\n    using SafeMath for uint256;\n    using SafeERC20 for IERC20;\n\n    IERC20 public sigh_Instrument;\n    GlobalAddressesProvider public addressesProvider;\n\n     struct instrumentState {\n        string name;\n        uint256 index;\n        uint rewardDistributionSpeed;\n        uint totalAmountRewarded;\n        uint lastUpdatedBlock;\n        uint balance;\n    }\n\n    mapping (address => instrumentState) private instrumentStates;\n    address[] private instrumentsRewarded;                             // Array of all the instruments that heve been rewarded\n    \n    uint constant doubleScale = 1e36;\n\n    struct stakingBalance {\n        bool alreadyAStaker;\n        uint stakedBalance;\n        mapping (address => uint) instrumentIndex;\n        mapping (address => uint)  instrumentAccumulated;\n    }\n\n    mapping (address => stakingBalance) private stakingBalances;\n    uint private totalStakedSigh;\n    uint private numberOfStakers;\n    uint maxSighThatCanBeStaked = uint(-1);\n\n    uint256 private constant IMPLEMENTATION_REVISION = 0x1;\n\n    event SighStaked( address staker,uint amount, uint staker_stakedBalance, uint totalStakedSigh, uint blocknumber   );\n    event SighUnstaked( address staker, uint amount, uint staker_stakedBalance, uint totalStakedSigh, uint blocknumber   );\n\n    event StreamingSighStaked( address staker, uint amount, uint staker_stakedBalance, uint totalStakedSigh, uint block_number   );\n\n    event updatedInstrumentBeingDistributedIndex( address instrument_Rewarded, string instrument_name, uint instrument_DistributionSpeed, uint instrument_index, uint instrument_totalAmountRewarded,  uint instrument_lastUpdatedBlock );\n    event updateStakerIndexUpdated( address staker, uint instrumentIndex, uint stakerIndex, uint deltaIndexes, uint newInstrumentAccumulated, uint staker_instrumentAccumulated_instrumentBeingRewarded, uint block_number );    \n    event instrumentTransferred( address staker, address instrumentToBeClaimed, string instrument_name, uint amountToBeTransferred, uint block_number );\n    event TokensBought( address token_bought, uint prev_bought_token_amount, uint tokenBoughtAmount, uint new_bought_token_amount);\n    event TokensSold( address token_sold, uint prev_sold_token_amount, uint tokenSoldAmount, uint new_sold_token_amount );   \n    event TokenSwapTransactionData( bytes _data );\n\n    event NewInstrumentForDistributionAdded( address newInstrument, string instrument_name, uint instrument_index, uint instrument_DistributionSpeed, uint instrument_totalAmountRewarded, uint instrument_balance,  uint instrument_lastUpdatedBlock  );\n    event InstrumentRemoved(address instrument, string instrument_name, uint instrument_totalAmountRewarded );\n    event DistributionSpeedUpdated( address instrumentAddress, string instrument_name, uint prevSpeed , uint instrument_DistributionSpeed, uint block_number );\n\n    event maxSighThatCanBeStakedUpdated( uint prevLimit, uint maxSighThatCanBeStaked, uint block_number);\n\n// ########################################### \n// ##############  MODIFIERS   ###############\n// ########################################### \n\n    modifier onlySIGHFinanceManager {\n        require( addressesProvider.getSIGHFinanceManager() == msg.sender, \"The caller must be the SIGH Finance Manager\" );\n        _;\n    }\n    //only SIGH Distribution Manager can use functions affected by this modifier\n    modifier onlySighFinanceConfigurator {\n        require(addressesProvider.getSIGHFinanceConfigurator() == msg.sender, \"The caller must be the SIGH Finanace Configurator Contract\");\n        _;\n    }\n\n    modifier onlySIGHVolatilityHarvester {\n        require(addressesProvider.getSIGHVolatilityHarvester() == msg.sender, \"The caller must be the SIGH Distribution Handler Contract\");\n        _;\n    }\n    \n\n// ########################################################\n// ##############  INITIALIZING THE STATE   ###############\n// ########################################################\n\n    /// @notice Gets the revision number of the contract\n    /// @return The revision numeric reference\n    function getRevision() internal pure returns (uint256) {\n        return IMPLEMENTATION_REVISION;\n    }\n\n\n    /// @notice Called by the proxy when setting this contract as implementation\n    function initialize(  GlobalAddressesProvider addressesProvider_ ) public initializer {\n        addressesProvider = addressesProvider_;\n        sigh_Instrument = IERC20( addressesProvider.getSIGHAddress() );\n    }\n\n\n// ############################################\n// ##############  STAKE SIGH   ###############\n// ############################################\n\n    function stake_SIGH(uint amount) external returns (bool) {\n        require(amount > 0,\"SIGH to be Staked cannot be zero.\");\n\n        updateRewardIndexInternal();                              // UPDATES INSTRUMENT INDEX\n        if (stakingBalances[msg.sender].alreadyAStaker) {\n            updateUserIndexInternal(msg.sender);                  // UPDATES USER INDEX\n        }\n        else {\n            initializeStakerStateInternal(msg.sender);            // INITIALIZES USER INDEXES\n        }\n        \n        require(sigh_Instrument.transferFrom( msg.sender, address(this), amount ),\"SIGH could not be transferred to the Staking Contract\" );\n        uint prevStakedBalance = stakingBalances[msg.sender].stakedBalance ;                  \n        stakingBalances[msg.sender].stakedBalance = add_(prevStakedBalance, amount, \"New Staking balance overflow\");    // \"STAKED BALANCE\" UPDATED [ADDITION] (STATE UPDATE)\n\n        uint prevTotalStakedBalance = totalStakedSigh ;                  \n        totalStakedSigh = add_(prevTotalStakedBalance, amount);                                                         // \"TOTAL STAKED SIGH\" [ADDITION] (STATE UPDATE)\n        \n        require(totalStakedSigh < maxSighThatCanBeStaked,\"Maximum SIGH that can be staked limit reached\" );\n\n        emit SighStaked( msg.sender, amount, stakingBalances[msg.sender].stakedBalance , totalStakedSigh, block.number   );\n        return true;\n    }\n\n    function updateStakedBalanceForStreaming(address staker, uint amount) onlySIGHVolatilityHarvester external returns (bool) {\n\n        updateRewardIndexInternal();                             // UPDATES INSTRUMENT INDEX\n        if (stakingBalances[staker].alreadyAStaker) {\n            updateUserIndexInternal(staker);                     // UPDATES USER INDEX\n        }\n        else {\n            initializeStakerStateInternal(staker);            // INITIALIZES USER INDEXES\n        }\n\n        uint prevBalance = stakingBalances[staker].stakedBalance;\n        stakingBalances[staker].stakedBalance = add_(prevBalance, amount,\"New Staked Balance addition error\");      // STAKING BALANCE [ADDITION] UPDATED\n        totalStakedSigh = add_(totalStakedSigh, amount);                                                         // \"TOTAL STAKED SIGH\" [ADDITION] (STATE UPDATE)\n\n        emit StreamingSighStaked( staker, amount, stakingBalances[staker].stakedBalance, totalStakedSigh,  block.number   );\n        return true;\n    }\n\n// ##############################################\n// ##############  UNSTAKE SIGH   ###############\n// ##############################################\n\n    function unstake_SIGH(uint amount) external returns (bool) {\n        require(amount > 0,\"SIGH to be Un-Staked cannot be zero.\");\n        require(stakingBalances[msg.sender].alreadyAStaker,\"User doesn't have any Staked amount\");\n\n        updateRewardIndexInternal();                                     // UPDATES INSTRUMENT INDEX\n        updateUserIndexInternal(msg.sender);                             // UPDATES USER INDEX\n\n        if ( amount > stakingBalances[msg.sender].stakedBalance ) {      // Unstake the complete amount\n            amount = stakingBalances[msg.sender].stakedBalance;\n        }\n\n        require(sigh_Instrument.transfer( msg.sender, amount ),\"SIGH could not be transferred to the User\" );\n        uint prevStakedBalance = stakingBalances[msg.sender].stakedBalance;                  \n        stakingBalances[msg.sender].stakedBalance = sub_(prevStakedBalance, amount, \"New Staking balance underflow\");    // \"STAKED BALANCE\" UPDATED [SUBTRACTION] (STATE UPDATE)\n        totalStakedSigh = sub_(totalStakedSigh, amount,\"Total Staked Sigh Subtraction underflow\");                // \"TOTAL STAKED SIGH\" [ADDITION] (STATE UPDATE)\n\n        if (stakingBalances[msg.sender].stakedBalance == 0) {\n            stakingBalances[msg.sender].alreadyAStaker = false;\n            transferAllAccumulatedRewardsInternal(msg.sender);\n            numberOfStakers = sub_(numberOfStakers, uint(1));\n        }\n\n        emit SighUnstaked( msg.sender, amount, stakingBalances[msg.sender].stakedBalance, totalStakedSigh, block.number   );\n        return true;\n    }\n\n\n\n// #######################################################################################################\n// ##############  INTERNAL FUNCTIONS TO UPDATE INSTRUMENT DISTRIBUTION AND USER INDEXES   ###############\n// #######################################################################################################\n    event calculations(address instrumentsRewarded, uint deltaBlocks, uint rewardDistributionSpeed, uint reward_Accrued , uint ratio_mantissa , uint currentRewardInstrumentIndex ,  uint newIndex_mantissa );\n\n    function updateRewardIndexInternal() internal {\n\n        uint blockNumber = block.number;\n\n        for (uint i =0 ; i<instrumentsRewarded.length ; i++ ) {\n\n            instrumentState storage currentRewardInstrument = instrumentStates[ instrumentsRewarded[i] ];\n            uint deltaBlocks = sub_(blockNumber, uint( currentRewardInstrument.lastUpdatedBlock ), 'updateRewardIndex : Block Subtraction Underflow');    // Delta Blocks \n\n            if (deltaBlocks > 0 && currentRewardInstrument.rewardDistributionSpeed > 0 && totalStakedSigh > 0) {    \n                uint reward_Accrued = mul_(deltaBlocks, currentRewardInstrument.rewardDistributionSpeed);                         // Total reward accured over delta blocks\n                Double memory ratio = fraction(reward_Accrued, totalStakedSigh);                                                 // Reward accured per Staked SIGH token\n                Double memory newIndex = add_(Double({mantissa: currentRewardInstrument.index}), ratio);                         // Updated Index\n    \n                emit calculations(instrumentsRewarded[i], deltaBlocks, currentRewardInstrument.rewardDistributionSpeed, reward_Accrued , ratio.mantissa , currentRewardInstrument.index ,  newIndex.mantissa );\n\n                currentRewardInstrument.index = newIndex.mantissa;                                                    // STATE UPDATE - INSTRUMENT BEING DISTRIBUTED \"INDEX\" UPDATED\n                currentRewardInstrument.lastUpdatedBlock = blockNumber;                                               // STATE UPDATE - INSTRUMENT BEING DISTRIBUTED \"BLOCK NUMBER\" UPDATED\n                uint prevTotalAmountRewarded = currentRewardInstrument.totalAmountRewarded;\n                currentRewardInstrument.totalAmountRewarded = add_(prevTotalAmountRewarded, reward_Accrued);          // STATE UPDATE - INSTRUMENT BEING DISTRIBUTED \"TOTAL AMOUNT REWARDED\" UPDATED\n            } \n            else if ( deltaBlocks > 0 ) {         // When no reward is accured. Block number updated\n                currentRewardInstrument.lastUpdatedBlock = blockNumber ;                                             // STATE UPDATE - INSTRUMENT BEING DISTRIBUTED \"BLOCK NUMBER\" UPDATED\n            }\n            emit updatedInstrumentBeingDistributedIndex( instrumentsRewarded[i], instrumentStates[instrumentsRewarded[i]].name, instrumentStates[instrumentsRewarded[i]].rewardDistributionSpeed, instrumentStates[instrumentsRewarded[i]].index, instrumentStates[instrumentsRewarded[i]].totalAmountRewarded, instrumentStates[instrumentsRewarded[i]].lastUpdatedBlock );\n        }\n    }\n\n    function updateUserIndexInternal(address staker) internal {\n\n        for (uint i =0 ; i<instrumentsRewarded.length ; i++ ) { \n\n            uint instrumentIndex = instrumentStates[instrumentsRewarded[i]].index;\n            uint stakerIndex = stakingBalances[staker].instrumentIndex[instrumentsRewarded[i]];\n            stakingBalances[staker].instrumentIndex[instrumentsRewarded[i]] = instrumentIndex;                                                  // STATE UPDATE - STAKER's INDEX UPDATED  \n            \n            if ( stakerIndex == 0 ) {\n                stakerIndex = doubleScale;\n            }\n\n            Double memory deltaIndexes = sub_(Double({mantissa : instrumentIndex}), Double({mantissa : stakerIndex}));  // Since indexes are in Double scale, we get the deltaIndex as a double\n            uint newInstrumentAccumulated = mul_(stakingBalances[staker].stakedBalance, deltaIndexes );                 // we get (stakedBalance * deltaIndex.mantissa / DoubleScale), which is the correct amount\n\n            uint prevInstrumentAccumulated   = stakingBalances[staker].instrumentAccumulated[instrumentsRewarded[i]];\n            stakingBalances[staker].instrumentAccumulated[instrumentsRewarded[i]] = add_(prevInstrumentAccumulated, newInstrumentAccumulated);   // STATE UPDATE - STAKER's \"INSTRUMENT ACCUMULATED AMOUNT\" UPDATED  \n\n            emit updateStakerIndexUpdated( staker, instrumentIndex, stakerIndex, deltaIndexes.mantissa, newInstrumentAccumulated, stakingBalances[staker].instrumentAccumulated[instrumentsRewarded[i]], block.number );    \n        }\n    }\n\n    function initializeStakerStateInternal(address staker) internal {\n        for (uint i=0; i < instrumentsRewarded.length ; i++) {\n            stakingBalances[staker].instrumentIndex[ instrumentsRewarded[i] ] = instrumentStates[ instrumentsRewarded[i] ].index;\n        }\n        stakingBalances[staker].alreadyAStaker = true;\n        numberOfStakers = add_(numberOfStakers, uint(1));\n    }\n\n// ################################################################################\n// ##############  FUNCTION RELATED TO INSTRUMENT TRANSFER   ###############\n// ################################################################################\n\n    function claimAllAccumulatedInstrumentsForUsers( address[] calldata stakingAddresses ) external {\n        for (uint i=0;i<stakingAddresses.length;i++) {\n            transferAllAccumulatedRewardsInternal(stakingAddresses[i]);\n        }\n    }\n\n    function claimAllAccumulatedInstruments() external {\n        transferAllAccumulatedRewardsInternal(msg.sender);\n    }\n\n    function claimAccumulatedInstrument(address instrumentToBeClaimed) external {\n        transferAccumulatedRewardsInternal(msg.sender, instrumentToBeClaimed);\n    }\n\n    function transferAllAccumulatedRewardsInternal(address staker ) internal {\n        for (uint i =0 ; i<instrumentsRewarded.length ; i++ ) { \n            transferAccumulatedRewardsInternal(staker, instrumentsRewarded[i] );\n        }        \n    }\n\n    function transferAccumulatedRewardsInternal(address staker, address instrumentToBeClaimed) internal {\n        IERC20 instrumentAccumulated_ = IERC20(instrumentToBeClaimed);       \n        uint amountToBeTransferred =  stakingBalances[staker].instrumentAccumulated[instrumentToBeClaimed];  \n        if (amountToBeTransferred > 0 && instrumentAccumulated_.balanceOf(address(this)) >= amountToBeTransferred ) {\n            require(instrumentAccumulated_.transfer(staker, amountToBeTransferred ),\"Instrument Accumulated failed to be transferred to the User\");\n            stakingBalances[staker].instrumentAccumulated[instrumentToBeClaimed] = uint(0);                                      // STATE UPDATE (USER\"s ACCUMULATED INSTRUMENT UPDATED)\n            instrumentStates[instrumentToBeClaimed].balance = instrumentAccumulated_.balanceOf(address(this));                       // STATE UPDATE (BALANCE OF THE INSTRUMENT UPDATED)\n            emit instrumentTransferred( staker, instrumentToBeClaimed, instrumentStates[instrumentToBeClaimed].name, amountToBeTransferred, block.number );\n        }\n    }\n\n// ##################################################### \n// ##############  TOKEN SWAP FUNCTION   ###############\n// ##################################################### \n\n    function swapTokensUsingOxAPI( address allowanceTarget, address payable to, bytes calldata callDataHex, address token_bought, address token_sold, uint sellAmount ) external payable onlySIGHFinanceManager returns (bool) {\n        require( token_sold != address(sigh_Instrument),\"Staked SIGH Instrument cannot be sold by the staking contract\");\n        require( token_bought != address(sigh_Instrument),\"Staked SIGH Instrument cannot be bought by the staking contract\");\n\n        IERC20 bought_token;\n        bought_token = IERC20(token_bought);\n\n        IERC20 sold_token;\n        sold_token = IERC20(token_sold);\n\n        uint prev_bought_token_amount = bought_token.balanceOf(address(this));  // Current Bought Tokens Balance\n        uint prev_sold_token_amount = sold_token.balanceOf(address(this));      // Current Tokens to be Sold Balance\n\n        require(sold_token.approve(allowanceTarget, uint256(sellAmount)));                   // Allow the allowanceTarget address to spend the needed amount\n        (bool success, bytes memory _data) = to.call.value(msg.value)(callDataHex);          // Calling the encoded swap() function. ETH passed to cover for fee\n    \n        require(success, 'TOKEN SWAP FAILED');\n        \n        if (success) {\n            uint new_bought_token_amount = bought_token.balanceOf(address(this));       // New Bought Tokens Balance\n            uint new_sold_token_amount = sold_token.balanceOf(address(this));           // New Tokens to be Sold Balance\n            \n            uint amountSold = sub_(prev_sold_token_amount, new_sold_token_amount, \"Amount Sold underflow\");\n            require( amountSold ==  sellAmount,\"The sell amount mentioned and the actual amount transferred do not match\" );\n\n            uint tokenBoughtAmount = sub_(new_bought_token_amount,prev_bought_token_amount,\"New Token Balance for tokens that are being Bought is lower than its initial balance\");\n\n            emit TokensBought( token_bought, prev_bought_token_amount, tokenBoughtAmount,  new_bought_token_amount);\n            emit TokensSold( token_sold, prev_sold_token_amount, amountSold, new_sold_token_amount );   \n            emit TokenSwapTransactionData( _data );\n            return true;         \n        }\n\n        return false;\n    }\n\n// ########################################################################################## \n// ##############  CONFIGURATION FUNCTIONS (SIGH FINANCE CONFIGURATOR ONLY)   ###############\n// ##########################################################################################\n\n    function supportNewInstrumentForDistribution(address newInstrument, uint speed) external onlySighFinanceConfigurator returns (bool) {  \n        require(instrumentStates[newInstrument].index == 0, \"The provided instrument address has already been added for distribution among the stakers\");\n        updateRewardIndexInternal();\n\n        instrumentsRewarded.push(newInstrument);                                                                        // STATE UPDATE - NEW INSTRUMENT ADDED TO THE LIST OF INSTRUMENTS BEING DISTRIBUTED\n        IERC20 instrumentContract = IERC20(newInstrument);\n        ERC20Detailed instrumentContract_ = ERC20Detailed(newInstrument);\n        Double memory newIndex = Double({mantissa: doubleScale});\n        \n        instrumentStates[newInstrument] = instrumentState({ name: instrumentContract_.name(), \n                                                            index: uint256(newIndex.mantissa), \n                                                            rewardDistributionSpeed: speed, \n                                                            totalAmountRewarded: uint(0), \n                                                            lastUpdatedBlock: block.number,\n                                                            balance: instrumentContract.balanceOf(address(this))\n                                                        });                                                              // STATE UPDATE - NEW INSTRUMENT STATE INITIALIZED\n\n        require(instrumentStates[newInstrument].rewardDistributionSpeed == speed,\"Distribution Speed not initialized properly\" );\n        require(instrumentStates[newInstrument].index == newIndex.mantissa,\"Index not initialized properly\" );\n        emit NewInstrumentForDistributionAdded( newInstrument, instrumentStates[newInstrument].name, instrumentStates[newInstrument].index, instrumentStates[newInstrument].rewardDistributionSpeed, instrumentStates[newInstrument].totalAmountRewarded, instrumentStates[newInstrument].balance, instrumentStates[newInstrument].lastUpdatedBlock  );\n        return true;\n    }\n    \n    function removeInstrumentFromDistribution(address instrument) external onlySighFinanceConfigurator returns (bool) {  \n        require(instrumentStates[instrument].index > 0, \"The provided instrument has not been initialized for distribution among the stakers\");\n        updateRewardIndexInternal();\n        \n        uint index = 0;\n        uint length_ = instrumentsRewarded.length;\n        for (uint i = 0 ; i < length_ ; i++) {\n            if (instrumentsRewarded[i] == instrument) {\n                index = i;\n                break;\n            }\n        }\n        instrumentsRewarded[index] = instrumentsRewarded[length_ - 1];\n        instrumentsRewarded.length--;\n        uint newLen = length_ - 1;\n        require(instrumentsRewarded.length == newLen,\"Instrument not properly removed from the list of instruments supported for distribution\");\n\n        instrumentStates[instrument].index = uint256(0);\n        instrumentStates[instrument].rewardDistributionSpeed = uint(0);\n        instrumentStates[instrument].balance = uint(0);\n        instrumentStates[instrument].lastUpdatedBlock = uint(0);\n\n        emit InstrumentRemoved(instrument, instrumentStates[instrument].name, instrumentStates[instrument].totalAmountRewarded );\n        return true;\n    }\n\n\n    function setDistributionSpeed(address instrumentAddress , uint newSpeed) external onlySighFinanceConfigurator returns (bool) {  \n        require(instrumentStates[instrumentAddress].index > 0, \"The provided instrument address has not been added for distribution among the stakers\");\n\n        if ( instrumentStates[instrumentAddress].rewardDistributionSpeed > 0) {\n            updateRewardIndexInternal();\n        }\n        \n        uint prevSpeed = instrumentStates[instrumentAddress].rewardDistributionSpeed;\n        instrumentStates[instrumentAddress].rewardDistributionSpeed = newSpeed;                 // STATE UPDATE - DISTRIBUTION SPEED UPDATED\n        instrumentStates[instrumentAddress].lastUpdatedBlock = block.number;                    // STATE UPDATE - BLOCK NUMBER FOR THE INSTRUMENT STATE UPDATED\n        \n        emit DistributionSpeedUpdated( instrumentAddress, instrumentStates[instrumentAddress].name, prevSpeed , instrumentStates[instrumentAddress].rewardDistributionSpeed, block.number );\n        return true;\n    }\n\n    function updateMaxSighThatCanBeStaked(uint amount) external onlySighFinanceConfigurator returns (bool) { \n        uint prevLimit = maxSighThatCanBeStaked;\n        maxSighThatCanBeStaked = amount;\n        require(maxSighThatCanBeStaked == amount, \"New value not assigned properly\");\n        emit maxSighThatCanBeStakedUpdated(prevLimit, maxSighThatCanBeStaked, block.number);\n        return true;\n    }\n\n// ################################################## \n// ##############  PUBLIC FUNCTIONS   ###############\n// ################################################## \n\n    function updateBalance(address instrument) public returns (uint) {\n        require( instrument != address(sigh_Instrument),\"Staked SIGH Instrument's balance cannot be updated as it may lead to ambiguities in calculations\");\n        \n        IERC20 instrumentContract = IERC20(instrument);\n        uint current_balance = instrumentContract.balanceOf(address(this));\n\n        if (instrumentStates[instrument].index > 0 ) {\n            instrumentStates[instrument].balance = current_balance;\n        }\n\n        return current_balance;\n    }\n\n// ################################################## \n// ##############  VIEW FUNCTIONS   ###############\n// ################################################## \n\n    function getInstrumentsSupported() external view returns (address[] memory) {\n        return instrumentsRewarded;\n    }\n\n    function isInstrumentSupported(address instrument) external view returns (bool) {\n        if (instrumentStates[instrument].index > 0 ) {\n            return true;\n        }\n        return false;\n    }\n\n    function getDistributionSpeed(address instrument) external view returns (uint) { \n        if (instrumentStates[instrument].index > 0 ) {\n            return instrumentStates[instrument].rewardDistributionSpeed;\n        }\n        return uint(0); \n    }\n\n    function getInstrumentState(address instrumentAddress) external view returns(string memory name, uint index, uint rewardDistributionSpeed,uint totalAmountRewarded, uint balance, uint lastUpdatedBlock) {\n        // if (instrumentStates[instrumentAddress].index > 0 ) { \n            return ( instrumentStates[instrumentAddress].name, \n                    instrumentStates[instrumentAddress].index, \n                    instrumentStates[instrumentAddress].rewardDistributionSpeed,\n                    instrumentStates[instrumentAddress].totalAmountRewarded, \n                    instrumentStates[instrumentAddress].balance, \n                    instrumentStates[instrumentAddress].lastUpdatedBlock \n                    );\n        // }\n        // string memory name = '';\n        // return ( name, )\n    }\n    \n    function getInstrumentBalance(address instrument) external view returns (uint) {\n        IERC20 instrumentContract = IERC20(instrument);\n        uint current_balance = instrumentContract.balanceOf(address(this));\n        return current_balance;\n    }\n\n    function getStakedBalanceForStaker(address account) external view returns (uint) {\n        return stakingBalances[account].stakedBalance;\n    }\n\n    function getStakersAccumulatedInstrumentAmount(address account, address instrument)  external view returns (uint) {\n        return stakingBalances[account].instrumentAccumulated[instrument];    \n    }\n\n    function getTotalStakedSIGH()  external view returns (uint) { \n        return totalStakedSigh;\n    }\n\n    function getTotalStakers()  external view returns (uint) { \n        return numberOfStakers;\n    }\n\n    function getmaxSighThatCanBeStaked()  external view returns (uint) { \n        return maxSighThatCanBeStaked;\n    }\n\n}",
  "sourcePath": "/Users/apple/Desktop/GITCOIN/Sigh_Finance/SighFinanceContracts/contracts/SIGHFinanceContracts/Sigh_Staking/SighStaking.sol",
  "compiler": {
    "name": "solc",
    "version": "0.5.16+commit.9c3226ce.Emscripten.clang"
  },
  "schemaVersion": "3.2.4",
  "updatedAt": "2021-01-05T05:29:52.722Z",
  "devdoc": {
    "methods": {}
  },
  "userdoc": {
    "methods": {
      "initialize(address)": {
        "notice": "Called by the proxy when setting this contract as implementation"
      }
    }
  }
}