{
  "contractName": "SIGHDistributionHandler",
  "abi": [
    {
      "anonymous": false,
      "inputs": [
        {
          "indexed": false,
          "internalType": "address",
          "name": "instrument",
          "type": "address"
        },
        {
          "indexed": false,
          "internalType": "address",
          "name": "user",
          "type": "address"
        },
        {
          "indexed": false,
          "internalType": "uint256",
          "name": "sigh_Amount",
          "type": "uint256"
        }
      ],
      "name": "AccuredSIGHTransferredToTheUser",
      "type": "event"
    },
    {
      "anonymous": false,
      "inputs": [
        {
          "indexed": false,
          "internalType": "address",
          "name": "instrumentAddress_",
          "type": "address"
        },
        {
          "indexed": false,
          "internalType": "address",
          "name": "iTokenAddress",
          "type": "address"
        },
        {
          "indexed": false,
          "internalType": "address",
          "name": "sighStreamAddress",
          "type": "address"
        },
        {
          "indexed": false,
          "internalType": "uint256",
          "name": "decimals",
          "type": "uint256"
        },
        {
          "indexed": false,
          "internalType": "uint256",
          "name": "blockNumber",
          "type": "uint256"
        }
      ],
      "name": "InstrumentAdded",
      "type": "event"
    },
    {
      "anonymous": false,
      "inputs": [
        {
          "indexed": false,
          "internalType": "address",
          "name": "_instrument",
          "type": "address"
        },
        {
          "indexed": false,
          "internalType": "uint256",
          "name": "blockNumber",
          "type": "uint256"
        }
      ],
      "name": "InstrumentRemoved",
      "type": "event"
    },
    {
      "anonymous": false,
      "inputs": [
        {
          "indexed": false,
          "internalType": "address",
          "name": "instrument_",
          "type": "address"
        },
        {
          "indexed": false,
          "internalType": "bool",
          "name": "isSIGHMechanismActivated",
          "type": "bool"
        },
        {
          "indexed": false,
          "internalType": "uint256",
          "name": "maxVolatilityLimitSuppliers",
          "type": "uint256"
        },
        {
          "indexed": false,
          "internalType": "uint256",
          "name": "maxVolatilityLimitBorrowers",
          "type": "uint256"
        }
      ],
      "name": "InstrumentSIGHStateUpdated",
      "type": "event"
    },
    {
      "anonymous": false,
      "inputs": [
        {
          "indexed": false,
          "internalType": "address",
          "name": "_Instrument",
          "type": "address"
        },
        {
          "indexed": false,
          "internalType": "uint256",
          "name": "_total24HrVolatility",
          "type": "uint256"
        },
        {
          "indexed": false,
          "internalType": "uint256",
          "name": "_24HrVolatilityLimitAmount",
          "type": "uint256"
        }
      ],
      "name": "InstrumentVolatilityCalculated",
      "type": "event"
    },
    {
      "anonymous": false,
      "inputs": [
        {
          "indexed": false,
          "internalType": "uint256",
          "name": "_SIGHSpeed",
          "type": "uint256"
        },
        {
          "indexed": false,
          "internalType": "uint256",
          "name": "_SIGHSpeedUsed",
          "type": "uint256"
        },
        {
          "indexed": false,
          "internalType": "uint256",
          "name": "_totalVolatilityLimitPerBlock",
          "type": "uint256"
        },
        {
          "indexed": false,
          "internalType": "uint256",
          "name": "_maxVolatilityToAddressPerBlock",
          "type": "uint256"
        },
        {
          "indexed": false,
          "internalType": "uint256",
          "name": "_max_SIGHDistributionLimitDecimalsAdjusted",
          "type": "uint256"
        }
      ],
      "name": "MaxSIGHSpeedCalculated",
      "type": "event"
    },
    {
      "anonymous": false,
      "inputs": [
        {
          "indexed": false,
          "internalType": "address",
          "name": "instrument",
          "type": "address"
        },
        {
          "indexed": false,
          "internalType": "uint256",
          "name": "prevPrice",
          "type": "uint256"
        },
        {
          "indexed": false,
          "internalType": "uint256",
          "name": "currentPrice",
          "type": "uint256"
        },
        {
          "indexed": false,
          "internalType": "uint256",
          "name": "deltaBlocks",
          "type": "uint256"
        },
        {
          "indexed": false,
          "internalType": "uint256",
          "name": "currentClock",
          "type": "uint256"
        }
      ],
      "name": "PriceSnapped",
      "type": "event"
    },
    {
      "anonymous": false,
      "inputs": [
        {
          "indexed": false,
          "internalType": "address",
          "name": "instrument",
          "type": "address"
        },
        {
          "indexed": false,
          "internalType": "uint256",
          "name": "totalCompoundedStableBorrows",
          "type": "uint256"
        },
        {
          "indexed": false,
          "internalType": "uint256",
          "name": "totalCompoundedVariableBorrows",
          "type": "uint256"
        },
        {
          "indexed": false,
          "internalType": "uint256",
          "name": "sighAccured",
          "type": "uint256"
        },
        {
          "indexed": false,
          "internalType": "uint256",
          "name": "ratioMantissa",
          "type": "uint256"
        },
        {
          "indexed": false,
          "internalType": "uint256",
          "name": "newIndexMantissa",
          "type": "uint256"
        }
      ],
      "name": "SIGHBorrowIndexUpdated",
      "type": "event"
    },
    {
      "anonymous": false,
      "inputs": [
        {
          "indexed": false,
          "internalType": "uint256",
          "name": "oldSIGHSpeed",
          "type": "uint256"
        },
        {
          "indexed": false,
          "internalType": "uint256",
          "name": "newSIGHSpeed",
          "type": "uint256"
        },
        {
          "indexed": false,
          "internalType": "uint256",
          "name": "blockNumber_",
          "type": "uint256"
        }
      ],
      "name": "SIGHSpeedUpdated",
      "type": "event"
    },
    {
      "anonymous": false,
      "inputs": [
        {
          "indexed": false,
          "internalType": "address",
          "name": "instrument",
          "type": "address"
        },
        {
          "indexed": false,
          "internalType": "uint256",
          "name": "totalCompoundedSupply",
          "type": "uint256"
        },
        {
          "indexed": false,
          "internalType": "uint256",
          "name": "sighAccured",
          "type": "uint256"
        },
        {
          "indexed": false,
          "internalType": "uint256",
          "name": "ratioMantissa",
          "type": "uint256"
        },
        {
          "indexed": false,
          "internalType": "uint256",
          "name": "newIndexMantissa",
          "type": "uint256"
        },
        {
          "indexed": false,
          "internalType": "uint256",
          "name": "blockNum",
          "type": "uint256"
        }
      ],
      "name": "SIGHSupplyIndexUpdated",
      "type": "event"
    },
    {
      "anonymous": false,
      "inputs": [
        {
          "indexed": false,
          "internalType": "bool",
          "name": "previsSpeedUpperCheckAllowed",
          "type": "bool"
        },
        {
          "indexed": false,
          "internalType": "uint256",
          "name": "maxVolatilityProtocolLimit",
          "type": "uint256"
        }
      ],
      "name": "SpeedUpperCheckSwitched",
      "type": "event"
    },
    {
      "anonymous": false,
      "inputs": [
        {
          "indexed": false,
          "internalType": "address",
          "name": "instrumentAddress_",
          "type": "address"
        },
        {
          "indexed": false,
          "internalType": "uint256",
          "name": "prevStakingSpeed",
          "type": "uint256"
        },
        {
          "indexed": false,
          "internalType": "uint256",
          "name": "new_staking_Speed",
          "type": "uint256"
        },
        {
          "indexed": false,
          "internalType": "uint256",
          "name": "blockNumber",
          "type": "uint256"
        }
      ],
      "name": "StakingSpeedUpdated",
      "type": "event"
    },
    {
      "anonymous": false,
      "inputs": [
        {
          "indexed": false,
          "internalType": "uint256",
          "name": "prevDeltaBlocksForSpeed",
          "type": "uint256"
        },
        {
          "indexed": false,
          "internalType": "uint256",
          "name": "newDeltaBlocksForSpeed",
          "type": "uint256"
        },
        {
          "indexed": false,
          "internalType": "uint256",
          "name": "blockNumber",
          "type": "uint256"
        }
      ],
      "name": "minimumBlocksForSpeedRefreshUpdated",
      "type": "event"
    },
    {
      "anonymous": false,
      "inputs": [
        {
          "indexed": false,
          "internalType": "address",
          "name": "_Instrument",
          "type": "address"
        },
        {
          "indexed": false,
          "internalType": "uint8",
          "name": "side",
          "type": "uint8"
        },
        {
          "indexed": false,
          "internalType": "uint256",
          "name": "supplierSpeed",
          "type": "uint256"
        },
        {
          "indexed": false,
          "internalType": "uint256",
          "name": "borrowerSpeed",
          "type": "uint256"
        },
        {
          "indexed": false,
          "internalType": "uint256",
          "name": "_percentTotalVolatilityLimitAmount",
          "type": "uint256"
        },
        {
          "indexed": false,
          "internalType": "uint256",
          "name": "_percentTotalVolatility",
          "type": "uint256"
        }
      ],
      "name": "refreshingSighSpeeds",
      "type": "event"
    },
    {
      "constant": true,
      "inputs": [],
      "name": "Sigh_Address",
      "outputs": [
        {
          "internalType": "contract IERC20",
          "name": "",
          "type": "address"
        }
      ],
      "payable": false,
      "stateMutability": "view",
      "type": "function"
    },
    {
      "constant": true,
      "inputs": [],
      "name": "addressesProvider",
      "outputs": [
        {
          "internalType": "contract GlobalAddressesProvider",
          "name": "",
          "type": "address"
        }
      ],
      "payable": false,
      "stateMutability": "view",
      "type": "function"
    },
    {
      "constant": true,
      "inputs": [],
      "name": "lendingPoolCore",
      "outputs": [
        {
          "internalType": "contract ILendingPoolCore",
          "name": "",
          "type": "address"
        }
      ],
      "payable": false,
      "stateMutability": "view",
      "type": "function"
    },
    {
      "constant": true,
      "inputs": [],
      "name": "oracle",
      "outputs": [
        {
          "internalType": "contract IPriceOracleGetter",
          "name": "",
          "type": "address"
        }
      ],
      "payable": false,
      "stateMutability": "view",
      "type": "function"
    },
    {
      "constant": false,
      "inputs": [
        {
          "internalType": "contract GlobalAddressesProvider",
          "name": "addressesProvider_",
          "type": "address"
        }
      ],
      "name": "initialize",
      "outputs": [],
      "payable": false,
      "stateMutability": "nonpayable",
      "type": "function"
    },
    {
      "constant": false,
      "inputs": [],
      "name": "refreshConfig",
      "outputs": [],
      "payable": false,
      "stateMutability": "nonpayable",
      "type": "function"
    },
    {
      "constant": false,
      "inputs": [
        {
          "internalType": "address",
          "name": "_instrument",
          "type": "address"
        },
        {
          "internalType": "address",
          "name": "_iTokenAddress",
          "type": "address"
        },
        {
          "internalType": "address",
          "name": "_sighStreamAddress",
          "type": "address"
        },
        {
          "internalType": "uint256",
          "name": "_decimals",
          "type": "uint256"
        }
      ],
      "name": "addInstrument",
      "outputs": [
        {
          "internalType": "bool",
          "name": "",
          "type": "bool"
        }
      ],
      "payable": false,
      "stateMutability": "nonpayable",
      "type": "function"
    },
    {
      "constant": false,
      "inputs": [
        {
          "internalType": "address",
          "name": "_instrument",
          "type": "address"
        }
      ],
      "name": "removeInstrument",
      "outputs": [
        {
          "internalType": "bool",
          "name": "",
          "type": "bool"
        }
      ],
      "payable": false,
      "stateMutability": "nonpayable",
      "type": "function"
    },
    {
      "constant": false,
      "inputs": [
        {
          "internalType": "address",
          "name": "instrument_",
          "type": "address"
        },
        {
          "internalType": "uint256",
          "name": "_maxVolatilityLimitSuppliers",
          "type": "uint256"
        },
        {
          "internalType": "uint256",
          "name": "_maxVolatilityLimitBorrowers",
          "type": "uint256"
        },
        {
          "internalType": "bool",
          "name": "_isSIGHMechanismActivated",
          "type": "bool"
        }
      ],
      "name": "Instrument_SIGH_StateUpdated",
      "outputs": [
        {
          "internalType": "bool",
          "name": "",
          "type": "bool"
        }
      ],
      "payable": false,
      "stateMutability": "nonpayable",
      "type": "function"
    },
    {
      "constant": false,
      "inputs": [
        {
          "internalType": "uint256",
          "name": "SIGHSpeed_",
          "type": "uint256"
        }
      ],
      "name": "updateSIGHSpeed",
      "outputs": [
        {
          "internalType": "bool",
          "name": "",
          "type": "bool"
        }
      ],
      "payable": false,
      "stateMutability": "nonpayable",
      "type": "function"
    },
    {
      "constant": false,
      "inputs": [
        {
          "internalType": "address",
          "name": "instrument_",
          "type": "address"
        },
        {
          "internalType": "uint256",
          "name": "newStakingSpeed",
          "type": "uint256"
        }
      ],
      "name": "updateStakingSpeedForAnInstrument",
      "outputs": [
        {
          "internalType": "bool",
          "name": "",
          "type": "bool"
        }
      ],
      "payable": false,
      "stateMutability": "nonpayable",
      "type": "function"
    },
    {
      "constant": false,
      "inputs": [
        {
          "internalType": "uint256",
          "name": "deltaBlocksLimit",
          "type": "uint256"
        }
      ],
      "name": "updateDeltaBlocksForSpeedRefresh",
      "outputs": [
        {
          "internalType": "bool",
          "name": "",
          "type": "bool"
        }
      ],
      "payable": false,
      "stateMutability": "nonpayable",
      "type": "function"
    },
    {
      "constant": false,
      "inputs": [
        {
          "internalType": "bool",
          "name": "isSpeedUpperCheckAllowed_",
          "type": "bool"
        },
        {
          "internalType": "uint256",
          "name": "maxVolatilityProtocolLimit_",
          "type": "uint256"
        }
      ],
      "name": "updateSIGHSpeedUpperCheck",
      "outputs": [
        {
          "internalType": "bool",
          "name": "",
          "type": "bool"
        }
      ],
      "payable": false,
      "stateMutability": "nonpayable",
      "type": "function"
    },
    {
      "constant": false,
      "inputs": [],
      "name": "refreshSIGHSpeeds",
      "outputs": [
        {
          "internalType": "bool",
          "name": "",
          "type": "bool"
        }
      ],
      "payable": false,
      "stateMutability": "nonpayable",
      "type": "function"
    },
    {
      "constant": false,
      "inputs": [
        {
          "internalType": "address",
          "name": "currentInstrument",
          "type": "address"
        }
      ],
      "name": "updateSIGHSupplyIndex",
      "outputs": [
        {
          "internalType": "bool",
          "name": "",
          "type": "bool"
        }
      ],
      "payable": false,
      "stateMutability": "nonpayable",
      "type": "function"
    },
    {
      "constant": false,
      "inputs": [
        {
          "internalType": "address",
          "name": "currentInstrument",
          "type": "address"
        }
      ],
      "name": "updateSIGHBorrowIndex",
      "outputs": [
        {
          "internalType": "bool",
          "name": "",
          "type": "bool"
        }
      ],
      "payable": false,
      "stateMutability": "nonpayable",
      "type": "function"
    },
    {
      "constant": false,
      "inputs": [
        {
          "internalType": "address",
          "name": "instrument",
          "type": "address"
        },
        {
          "internalType": "address",
          "name": "user",
          "type": "address"
        },
        {
          "internalType": "uint256",
          "name": "sigh_Amount",
          "type": "uint256"
        }
      ],
      "name": "transferSighTotheUser",
      "outputs": [
        {
          "internalType": "uint256",
          "name": "",
          "type": "uint256"
        }
      ],
      "payable": false,
      "stateMutability": "nonpayable",
      "type": "function"
    },
    {
      "constant": true,
      "inputs": [],
      "name": "getSIGHBalance",
      "outputs": [
        {
          "internalType": "uint256",
          "name": "",
          "type": "uint256"
        }
      ],
      "payable": false,
      "stateMutability": "view",
      "type": "function"
    },
    {
      "constant": true,
      "inputs": [],
      "name": "getAllInstrumentsSupported",
      "outputs": [
        {
          "internalType": "address[]",
          "name": "",
          "type": "address[]"
        }
      ],
      "payable": false,
      "stateMutability": "view",
      "type": "function"
    },
    {
      "constant": true,
      "inputs": [
        {
          "internalType": "address",
          "name": "instrument_",
          "type": "address"
        }
      ],
      "name": "getInstrumentData",
      "outputs": [
        {
          "internalType": "string",
          "name": "name",
          "type": "string"
        },
        {
          "internalType": "address",
          "name": "iTokenAddress",
          "type": "address"
        },
        {
          "internalType": "uint256",
          "name": "decimals",
          "type": "uint256"
        },
        {
          "internalType": "bool",
          "name": "isSIGHMechanismActivated",
          "type": "bool"
        },
        {
          "internalType": "uint256",
          "name": "supplyindex",
          "type": "uint256"
        },
        {
          "internalType": "uint256",
          "name": "borrowindex",
          "type": "uint256"
        }
      ],
      "payable": false,
      "stateMutability": "view",
      "type": "function"
    },
    {
      "constant": true,
      "inputs": [
        {
          "internalType": "address",
          "name": "instrument",
          "type": "address"
        }
      ],
      "name": "getInstrumentSpeeds",
      "outputs": [
        {
          "internalType": "uint8",
          "name": "side",
          "type": "uint8"
        },
        {
          "internalType": "uint256",
          "name": "suppliers_speed",
          "type": "uint256"
        },
        {
          "internalType": "uint256",
          "name": "borrowers_speed",
          "type": "uint256"
        },
        {
          "internalType": "uint256",
          "name": "staking_speed",
          "type": "uint256"
        }
      ],
      "payable": false,
      "stateMutability": "view",
      "type": "function"
    },
    {
      "constant": true,
      "inputs": [
        {
          "internalType": "address",
          "name": "instrument",
          "type": "address"
        }
      ],
      "name": "getInstrumentVolatilityStates",
      "outputs": [
        {
          "internalType": "uint8",
          "name": "side",
          "type": "uint8"
        },
        {
          "internalType": "uint256",
          "name": "_24HrVolatilityLimitAmount",
          "type": "uint256"
        },
        {
          "internalType": "uint256",
          "name": "percentTotalVolatilityLimitAmount",
          "type": "uint256"
        },
        {
          "internalType": "uint256",
          "name": "_total24HrVolatility",
          "type": "uint256"
        },
        {
          "internalType": "uint256",
          "name": "percentTotalVolatility",
          "type": "uint256"
        }
      ],
      "payable": false,
      "stateMutability": "view",
      "type": "function"
    },
    {
      "constant": true,
      "inputs": [
        {
          "internalType": "address",
          "name": "instrument",
          "type": "address"
        }
      ],
      "name": "getInstrumentSighLimits",
      "outputs": [
        {
          "internalType": "uint256",
          "name": "_maxVolatilityLimitSuppliers",
          "type": "uint256"
        },
        {
          "internalType": "uint256",
          "name": "_maxVolatilityLimitBorrowers",
          "type": "uint256"
        }
      ],
      "payable": false,
      "stateMutability": "view",
      "type": "function"
    },
    {
      "constant": true,
      "inputs": [
        {
          "internalType": "address",
          "name": "instrument_",
          "type": "address"
        }
      ],
      "name": "getAllPriceSnapshots",
      "outputs": [
        {
          "internalType": "uint256[24]",
          "name": "",
          "type": "uint256[24]"
        }
      ],
      "payable": false,
      "stateMutability": "view",
      "type": "function"
    },
    {
      "constant": true,
      "inputs": [],
      "name": "getBlockNumbersForPriceSnapshots",
      "outputs": [
        {
          "internalType": "uint256[24]",
          "name": "",
          "type": "uint256[24]"
        }
      ],
      "payable": false,
      "stateMutability": "view",
      "type": "function"
    },
    {
      "constant": true,
      "inputs": [],
      "name": "getSIGHSpeed",
      "outputs": [
        {
          "internalType": "uint256",
          "name": "",
          "type": "uint256"
        }
      ],
      "payable": false,
      "stateMutability": "view",
      "type": "function"
    },
    {
      "constant": true,
      "inputs": [],
      "name": "getSIGHSpeedUsed",
      "outputs": [
        {
          "internalType": "uint256",
          "name": "",
          "type": "uint256"
        }
      ],
      "payable": false,
      "stateMutability": "view",
      "type": "function"
    },
    {
      "constant": true,
      "inputs": [
        {
          "internalType": "address",
          "name": "instrument_",
          "type": "address"
        }
      ],
      "name": "isInstrumentSupported",
      "outputs": [
        {
          "internalType": "bool",
          "name": "",
          "type": "bool"
        }
      ],
      "payable": false,
      "stateMutability": "view",
      "type": "function"
    },
    {
      "constant": true,
      "inputs": [],
      "name": "totalInstrumentsSupported",
      "outputs": [
        {
          "internalType": "uint256",
          "name": "",
          "type": "uint256"
        }
      ],
      "payable": false,
      "stateMutability": "view",
      "type": "function"
    },
    {
      "constant": true,
      "inputs": [
        {
          "internalType": "address",
          "name": "instrument_",
          "type": "address"
        }
      ],
      "name": "getInstrumentSupplyIndex",
      "outputs": [
        {
          "internalType": "uint256",
          "name": "",
          "type": "uint256"
        }
      ],
      "payable": false,
      "stateMutability": "view",
      "type": "function"
    },
    {
      "constant": true,
      "inputs": [
        {
          "internalType": "address",
          "name": "instrument_",
          "type": "address"
        }
      ],
      "name": "getInstrumentBorrowIndex",
      "outputs": [
        {
          "internalType": "uint256",
          "name": "",
          "type": "uint256"
        }
      ],
      "payable": false,
      "stateMutability": "view",
      "type": "function"
    },
    {
      "constant": true,
      "inputs": [],
      "name": "getMaxVolatilityProtocolLimit",
      "outputs": [
        {
          "internalType": "uint256",
          "name": "",
          "type": "uint256"
        }
      ],
      "payable": false,
      "stateMutability": "view",
      "type": "function"
    },
    {
      "constant": true,
      "inputs": [
        {
          "internalType": "address",
          "name": "instrument_",
          "type": "address"
        },
        {
          "internalType": "uint256",
          "name": "clock",
          "type": "uint256"
        }
      ],
      "name": "checkPriceSnapshots",
      "outputs": [
        {
          "internalType": "uint256",
          "name": "",
          "type": "uint256"
        }
      ],
      "payable": false,
      "stateMutability": "view",
      "type": "function"
    },
    {
      "constant": true,
      "inputs": [
        {
          "internalType": "address",
          "name": "instrument_",
          "type": "address"
        }
      ],
      "name": "checkinitializationCounter",
      "outputs": [
        {
          "internalType": "uint32",
          "name": "",
          "type": "uint32"
        }
      ],
      "payable": false,
      "stateMutability": "view",
      "type": "function"
    },
    {
      "constant": true,
      "inputs": [],
      "name": "getDeltaBlocksForSpeed",
      "outputs": [
        {
          "internalType": "uint256",
          "name": "",
          "type": "uint256"
        }
      ],
      "payable": false,
      "stateMutability": "view",
      "type": "function"
    },
    {
      "constant": true,
      "inputs": [],
      "name": "getPrevSpeedRefreshBlock",
      "outputs": [
        {
          "internalType": "uint256",
          "name": "",
          "type": "uint256"
        }
      ],
      "payable": false,
      "stateMutability": "view",
      "type": "function"
    },
    {
      "constant": true,
      "inputs": [],
      "name": "getBlocksRemainingToNextSpeedRefresh",
      "outputs": [
        {
          "internalType": "uint256",
          "name": "",
          "type": "uint256"
        }
      ],
      "payable": false,
      "stateMutability": "view",
      "type": "function"
    },
    {
      "constant": true,
      "inputs": [],
      "name": "getBlockNumber",
      "outputs": [
        {
          "internalType": "uint32",
          "name": "",
          "type": "uint32"
        }
      ],
      "payable": false,
      "stateMutability": "view",
      "type": "function"
    }
  ],
  "bytecode": "0x60008080556037805460ff60a01b1916905560a0604052670de0b6b3a764000060808190526038556039819055603a819055603b556001605b5534801561004557600080fd5b50614bf7806100556000396000f3fe608060405234801561001057600080fd5b50600436106102325760003560e01c80637c55ccb311610130578063bf1678f6116100b8578063c6a6bfb11161007c578063c6a6bfb11461079c578063c72c4d10146107a4578063ca2a9602146107ac578063d6357063146107eb578063eeabe79f1461081157610232565b8063bf1678f6146106ce578063c3d1b72d146106d6578063c4d66de8146106fc578063c53b299714610722578063c6486d301461074757610232565b8063975152dd116100ff578063975152dd146106285780639a717b24146106305780639df816cf14610656578063b482e0d114610690578063be36810a146106c657610232565b80637c55ccb3146105985780637dc0d1d0146105a2578063831449de146105aa5780638d9cf8641461060257610232565b806342cbb15c116101be578063575bf04a11610182578063575bf04a146104e5578063659f73c5146104ed578063676719891461052e5780636f610c501461056a5780637c52b6681461057257610232565b806342cbb15c146103935780634dc54a38146103b45780634df859fd1461048b5780634f425fbb146104b7578063570b39d0146104dd57610232565b806321428a121161020557806321428a12146102f057806326562793146102f85780632df0f9a91461031e5780633e5eee461461033b5780633e9552651461038b57610232565b806304c66321146102375780630d7ff8871461027757806310fa61e61461029b5780631e7faed9146102d3575b600080fd5b6102636004803603604081101561024d57600080fd5b506001600160a01b038135169060200135610819565b604080519115158252519081900360200190f35b61027f6109d9565b604080516001600160a01b039092168252519081900360200190f35b6102c1600480360360208110156102b157600080fd5b50356001600160a01b03166109e8565b60408051918252519081900360200190f35b610263600480360360208110156102e957600080fd5b5035610a34565b61027f610b67565b6102636004803603602081101561030e57600080fd5b50356001600160a01b0316610b76565b6102636004803603602081101561033457600080fd5b5035610ecc565b6103616004803603602081101561035157600080fd5b50356001600160a01b0316610fd3565b6040805160ff90951685526020850193909352838301919091526060830152519081900360800190f35b6102c1611008565b61039b61100f565b6040805163ffffffff9092168252519081900360200190f35b6103da600480360360208110156103ca57600080fd5b50356001600160a01b0316611013565b6040518080602001876001600160a01b03166001600160a01b0316815260200186815260200185151515158152602001848152602001838152602001828103825288818151815260200191508051906020019080838360005b8381101561044b578181015183820152602001610433565b50505050905090810190601f1680156104785780820380516001836020036101000a031916815260200191505b5097505050505050505060405180910390f35b6102c1600480360360408110156104a157600080fd5b506001600160a01b038135169060200135611101565b610263600480360360208110156104cd57600080fd5b50356001600160a01b031661112d565b6102c161122e565b6102c1611234565b6104f561123a565b604051808261030080838360005b8381101561051b578181015183820152602001610503565b5050505090500191505060405180910390f35b6102636004803603608081101561054457600080fd5b506001600160a01b03813581169160208101358216916040820135169060600135611277565b6102c1611842565b6102636004803603602081101561058857600080fd5b50356001600160a01b0316611879565b6105a0611972565b005b61027f611a31565b6105b2611a40565b60408051602080825283518183015283519192839290830191858101910280838360005b838110156105ee5781810151838201526020016105d6565b505050509050019250505060405180910390f35b61039b6004803603602081101561061857600080fd5b50356001600160a01b0316611aa1565b6102c1611ac5565b6102c16004803603602081101561064657600080fd5b50356001600160a01b0316611acb565b6102636004803603608081101561066c57600080fd5b506001600160a01b0381351690602081013590604081013590606001351515611b0e565b6102c1600480360360608110156106a657600080fd5b506001600160a01b03813581169160208101359091169060400135611df8565b6102c161215d565b610263612163565b610263600480360360208110156106ec57600080fd5b50356001600160a01b03166121b8565b6105a06004803603602081101561071257600080fd5b50356001600160a01b03166121d6565b6102636004803603604081101561073857600080fd5b50803515159060200135612296565b61076d6004803603602081101561075d57600080fd5b50356001600160a01b031661246a565b6040805160ff909616865260208601949094528484019290925260608401526080830152519081900360a00190f35b6102c16124a6565b61027f612528565b6107d2600480360360208110156107c257600080fd5b50356001600160a01b0316612537565b6040805192835260208301919091528051918290030190f35b6104f56004803603602081101561080157600080fd5b50356001600160a01b031661255d565b6102c16125b0565b6000336001600160a01b0316603460009054906101000a90046001600160a01b03166001600160a01b031663db49224b6040518163ffffffff1660e01b815260040160206040518083038186803b15801561087357600080fd5b505afa158015610887573d6000803e3d6000fd5b505050506040513d602081101561089d57600080fd5b50516001600160a01b0316146108e45760405162461bcd60e51b815260040180806020018281038252603a81526020018061480a603a913960400191505060405180910390fd5b6001600160a01b0383166000908152603f602052604090205460ff1661094d576040805162461bcd60e51b815260206004820152601960248201527824b739ba393ab6b2b73a103737ba1039bab83837b93a32b21760391b604482015290519081900360640190fd5b6001600160a01b0383166000908152605a602052604090206009018054908390557f60ab6bb8f64f97a68e803dc67f55f0a08732fe0db1e669b39f3b45dd35d9580d84828561099a61100f565b604080516001600160a01b03909516855260208501939093528383019190915263ffffffff166060830152519081900360800190a15060019392505050565b6037546001600160a01b031681565b6001600160a01b0381166000908152603f602052604081205460ff1615610a2b57506001600160a01b0381166000908152603f6020526040902060080154610a2f565b5060005b919050565b6000336001600160a01b0316603460009054906101000a90046001600160a01b03166001600160a01b031663db49224b6040518163ffffffff1660e01b815260040160206040518083038186803b158015610a8e57600080fd5b505afa158015610aa2573d6000803e3d6000fd5b505050506040513d6020811015610ab857600080fd5b50516001600160a01b031614610aff5760405162461bcd60e51b815260040180806020018281038252603a81526020018061480a603a913960400191505060405180910390fd5b610b07612163565b50605b8054908390557f8574a512a3537f7f97e2c60304507aa6816866c2d1fed5ffa1815cb01d2b1e448184610b3b61100f565b60408051938452602084019290925263ffffffff1682820152519081900360600190a150600192915050565b6035546001600160a01b031681565b6037546000906001600160a01b03163314610bc25760405162461bcd60e51b81526004018080602001828103825260318152602001806147d96031913960400191505060405180910390fd5b6001600160a01b0382166000908152603f602052604090205460ff16610c2f576040805162461bcd60e51b815260206004820152601d60248201527f496e737472756d656e7420616c726561647920737570706f727465642e000000604482015290519081900360640190fd5b610c376125b6565b610c725760405162461bcd60e51b8152600401808060200182810382526022815260200180614a156022913960400191505060405180910390fd5b603e54600090815b81811015610cc457846001600160a01b0316603e8281548110610c9957fe5b6000918252602090912001546001600160a01b03161415610cbc57809250610cc4565b600101610c7a565b50603e6001820381548110610cd557fe5b600091825260209091200154603e80546001600160a01b039092169184908110610cfb57fe5b600091825260209091200180546001600160a01b0319166001600160a01b0392909216919091179055603e805490610d37906000198301614410565b50603e546000198201908114610d7e5760405162461bcd60e51b815260040180806020018281038252604681526020018061462f6046913960600191505060405180910390fd5b6001600160a01b0385166000908152603f60205260408120805460ff1916815590610dac6001830182614434565b50600281810180546001600160a01b031990811690915560038084018054909216909155600060048085018290556005808601805460ff19908116909155600680880185905560078089018690556008808a018790556009998a018790556001600160a01b038f168752605a6020908152604080892080549096168655600186018990559985018890559784018790559483018690559282018590558101849055908101839055908101829055909301839055819052812090610e6f828261447b565b50601801805463ffffffff19169055604080516001600160a01b038716815243602082015281517f057ca28169e1c052b51583802d0c8d8c934e939672146aa3648005bf500256a7929181900390910190a1506001949350505050565b6000336001600160a01b0316603460009054906101000a90046001600160a01b03166001600160a01b031663db49224b6040518163ffffffff1660e01b815260040160206040518083038186803b158015610f2657600080fd5b505afa158015610f3a573d6000803e3d6000fd5b505050506040513d6020811015610f5057600080fd5b50516001600160a01b031614610f975760405162461bcd60e51b815260040180806020018281038252603a81526020018061480a603a913960400191505060405180910390fd5b610f9f612163565b50603c8054908390557f61108193375c8731a245b1f1f657bc84dc9031680a54eb7c816c37ae750d7a438184610b3b61100f565b6001600160a01b03166000908152605a6020526040902080546007820154600883015460099093015460ff9092169390929190565b605c545b90565b4390565b6001600160a01b038181166000908152603f6020908152604080832060028082015460048301546005840154600685015460088601546001968701805489516101009982161599909902600019011696909604601f81018a90048a0288018a0190985287875260609a8a998a998a998a9998909316969560ff16949392918891908301828280156110e55780601f106110ba576101008083540402835291602001916110e5565b820191906000526020600020905b8154815290600101906020018083116110c857829003601f168201915b5050505050955095509550955095509550955091939550919395565b6001600160a01b0382166000908152604060208190528120826018811061112457fe5b01549392505050565b6037546000906001600160a01b031633146111795760405162461bcd60e51b81526004018080602001828103825260318152602001806147d96031913960400191505060405180910390fd5b6001600160a01b0382166000908152603f602052604090205460ff166111e2576040805162461bcd60e51b815260206004820152601960248201527824b739ba393ab6b2b73a103737ba1039bab83837b93a32b21760391b604482015290519081900360640190fd5b6111eb8261260f565b6112265760405162461bcd60e51b815260040180806020018281038252602d81526020018061498f602d913960400191505060405180910390fd5b506001919050565b603c5490565b60385490565b61124261448a565b604080516103008101918290529060419060189082845b815481526020019060010190808311611259575b5050505050905090565b6037546000906001600160a01b031633146112c35760405162461bcd60e51b81526004018080602001828103825260318152602001806147d96031913960400191505060405180910390fd5b6001600160a01b0385166000908152603f602052604090205460ff1615611331576040805162461bcd60e51b815260206004820152601d60248201527f496e737472756d656e7420616c726561647920737570706f727465642e000000604482015290519081900360640190fd5b603e80546001808201835560009283527f8d800d6614d35eed73733ee453164a3b48076eb3138f466adeeb9dec7bb31f7090910180546001600160a01b0319166001600160a01b0389811691909117909155604080516101408101825292835280516306fdde0360e01b81529051889460208501938616926306fdde039260048083019392829003018186803b1580156113ca57600080fd5b505afa1580156113de573d6000803e3d6000fd5b505050506040513d6000823e601f3d908101601f19168201604052602081101561140757600080fd5b810190808051604051939291908464010000000082111561142757600080fd5b90830190602082018581111561143c57600080fd5b825164010000000081118282018810171561145657600080fd5b82525081516020918201929091019080838360005b8381101561148357818101518382015260200161146b565b50505050905090810190601f1680156114b05780820380516001836020036101000a031916815260200191505b506040525050508152602001866001600160a01b03168152602001856001600160a01b031681526020018481526020016000151581526020016ec097ce7bc90715b34b9f1000000000815260200161150661100f565b63ffffffff1681526020016ec097ce7bc90715b34b9f1000000000815260200161152e61100f565b63ffffffff1690526001600160a01b0387166000908152603f602090815260409091208251815460ff19169015151781558282015180519192611579926001850192909101906144a9565b5060408201518160020160006101000a8154816001600160a01b0302191690836001600160a01b0316021790555060608201518160030160006101000a8154816001600160a01b0302191690836001600160a01b031602179055506080820151816004015560a08201518160050160006101000a81548160ff02191690831515021790555060c0820151816006015560e0820151816007015561010082015181600801556101208201518160090155905050604051806101400160405280600060ff168152602001670de0b6b3a76400008152602001670de0b6b3a764000081526020016000815260200160008152602001600081526020016000815260200160008152602001600081526020016000815250605a6000886001600160a01b03166001600160a01b0316815260200190815260200160002060008201518160000160006101000a81548160ff021916908360ff1602179055506020820151816001015560408201518160020155606082015181600301556080820151816004015560a0820151816005015560c0820151816006015560e082015181600701556101008201518160080155610120820151816009015590505060406000876001600160a01b03166001600160a01b0316815260200190815260200160002060180160009054906101000a900463ffffffff1663ffffffff16600014156117de5761178061448a565b604080518082018252828152600060208083018290526001600160a01b038b1682528390529190912081516117b89082906018614523565b50602091909101516018909101805463ffffffff191663ffffffff909216919091179055505b604080516001600160a01b03808916825280881660208301528616818301526060810185905243608082015290517f277a3d0c5095ef666c15fd8809f0980618b283fa86541cdf3a473ce33f5c60799181900360a00190a150600195945050505050565b60008061185143605c5461284f565b905080605b54111561187157611869605b548261284f565b91505061100c565b600091505090565b6037546000906001600160a01b031633146118c55760405162461bcd60e51b81526004018080602001828103825260318152602001806147d96031913960400191505060405180910390fd5b6001600160a01b0382166000908152603f602052604090205460ff1661192e576040805162461bcd60e51b815260206004820152601960248201527824b739ba393ab6b2b73a103737ba1039bab83837b93a32b21760391b604482015290519081900360640190fd5b61193782612890565b6112265760405162461bcd60e51b815260040180806020018281038252602d815260200180614ada602d913960400191505060405180910390fd5b6034546040805163db49224b60e01b8152905133926001600160a01b03169163db49224b916004808301926020929190829003018186803b1580156119b657600080fd5b505afa1580156119ca573d6000803e3d6000fd5b505050506040513d60208110156119e057600080fd5b50516001600160a01b031614611a275760405162461bcd60e51b815260040180806020018281038252603a81526020018061480a603a913960400191505060405180910390fd5b611a2f612b8b565b565b6036546001600160a01b031681565b6060603e80548060200260200160405190810160405280929190818152602001828054801561126d57602002820191906000526020600020905b81546001600160a01b03168152600190910190602001808311611a7a575050505050905090565b6001600160a01b031660009081526040602081905290206018015463ffffffff1690565b603d5490565b6001600160a01b0381166000908152603f602052604081205460ff1615610a2b57506001600160a01b0381166000908152603f6020526040902060060154610a2f565b6000336001600160a01b0316603460009054906101000a90046001600160a01b03166001600160a01b031663db49224b6040518163ffffffff1660e01b815260040160206040518083038186803b158015611b6857600080fd5b505afa158015611b7c573d6000803e3d6000fd5b505050506040513d6020811015611b9257600080fd5b50516001600160a01b031614611bd95760405162461bcd60e51b815260040180806020018281038252603a81526020018061480a603a913960400191505060405180910390fd5b6001600160a01b0385166000908152603f602052604090205460ff16611c42576040805162461bcd60e51b815260206004820152601960248201527824b739ba393ab6b2b73a103737ba1039bab83837b93a32b21760391b604482015290519081900360640190fd5b662386f26fc10000841015611c885760405162461bcd60e51b81526004018080602001828103825260488152602001806145e76048913960600191505060405180910390fd5b678ac7230489e80000841115611ccf5760405162461bcd60e51b81526004018080602001828103825260448152602001806147956044913960600191505060405180910390fd5b662386f26fc10000831015611d155760405162461bcd60e51b81526004018080602001828103825260488152602001806148c16048913960600191505060405180910390fd5b678ac7230489e80000831115611d5c5760405162461bcd60e51b815260040180806020018281038252604481526020018061487d6044913960600191505060405180910390fd5b611d64612163565b506001600160a01b0385166000818152603f60209081526040808320600501805460ff1916871515178155605a835292819020600181018990556002018790559154825193845260ff1615159083015281810186905260608201859052517f4581958725035645ecd9f28d5a64e8667be51f54a77f1b1cf9b346f23c7f4d80916080908290030190a1506001949350505050565b600083611e03614550565b6001600160a01b0382166000908152603f6020908152604091829020825161014081018452815460ff1615158152600180830180548651600261010094831615949094026000190190911692909204601f8101869004860283018601909652858252919492938581019391929190830182828015611ec25780601f10611e9757610100808354040283529160200191611ec2565b820191906000526020600020905b815481529060010190602001808311611ea557829003601f168201915b505050918352505060028201546001600160a01b039081166020830152600383015416604082015260048201546060820152600582015460ff1615156080820152600682015460a0820152600782015460c0820152600882015460e0820152600990910154610100909101528051909150611f6e5760405162461bcd60e51b815260040180806020018281038252603d815260200180614675603d913960400191505060405180910390fd5b80606001516001600160a01b0316336001600160a01b031614611fc25760405162461bcd60e51b815260040180806020018281038252605281526020018061471b6052913960600191505060405180910390fd5b603554604080516370a0823160e01b8152306004820152905160009287926001600160a01b03909116916370a0823191602480820192602092909190829003018186803b15801561201257600080fd5b505afa158015612026573d6000803e3d6000fd5b505050506040513d602081101561203c57600080fd5b50511115612150576035546040805163a9059cbb60e01b81526001600160a01b038981166004830152602482018990529151919092169163a9059cbb9160448083019260209291908290030181600087803b15801561209a57600080fd5b505af11580156120ae573d6000803e3d6000fd5b505050506040513d60208110156120c457600080fd5b50516121015760405162461bcd60e51b815260040180806020018281038252602c815260200180614a65602c913960400191505060405180910390fd5b604080516001600160a01b03808a1682528816602082015280820187905290517f922c86da5ba82864ddc6d719ccdd80a788323e2a4dc17cfe258d00ba885b2bec9181900360600190a1612153565b50835b9695505050505050565b605b5490565b600080439050600061219082605c546040518060600160405280603681526020016146b260369139612d30565b9050605b5481106121af576121a3612dc7565b50605c5550600161100c565b60009250505090565b6001600160a01b03166000908152603f602052604090205460ff1690565b60006121e061385f565b60015490915060ff16806121f757506121f7613864565b80612203575060005481115b61223e5760405162461bcd60e51b815260040180806020018281038252602e815260200180614a37602e913960400191505060405180910390fd5b60015460ff1615801561225d576001805460ff19168117905560008290555b603480546001600160a01b0319166001600160a01b038516179055612280612b8b565b8015612291576001805460ff191690555b505050565b6000336001600160a01b0316603460009054906101000a90046001600160a01b03166001600160a01b031663db49224b6040518163ffffffff1660e01b815260040160206040518083038186803b1580156122f057600080fd5b505afa158015612304573d6000803e3d6000fd5b505050506040513d602081101561231a57600080fd5b50516001600160a01b0316146123615760405162461bcd60e51b815260040180806020018281038252603a81526020018061480a603a913960400191505060405180910390fd5b662386f26fc100008210156123a75760405162461bcd60e51b81526004018080602001828103825260488152602001806148c16048913960600191505060405180910390fd5b678ac7230489e800008211156123ee5760405162461bcd60e51b815260040180806020018281038252604481526020018061487d6044913960600191505060405180910390fd5b6037805460ff60a01b1916600160a01b851515810291909117918290556040805160208082018352908690526038869055815160ff93909404929092161515835290820184905280517f0ffe44565b30972a813a05e5c4d507e5a71aa3ffcc56911b2d6b4308a3a1e4389281900390910190a150600192915050565b6001600160a01b03166000908152605a60205260409020805460048201546006830154600384015460059094015460ff90931694919390929091565b603554604080516370a0823160e01b8152306004820152905160009283926001600160a01b03909116916370a0823191602480820192602092909190829003018186803b1580156124f657600080fd5b505afa15801561250a573d6000803e3d6000fd5b505050506040513d602081101561252057600080fd5b505191505090565b6034546001600160a01b031681565b6001600160a01b03166000908152605a6020526040902060018101546002909101549091565b61256561448a565b6001600160a01b0382166000908152604060208190529081902081516103008101928390529160189082845b8154815260200190600101908083116125915750505050509050919050565b603e5490565b6000805b603e54811015612607576000603e82815481106125d357fe5b6000918252602090912001546001600160a01b031690506125f38161260f565b506125fd81612890565b50506001016125ba565b506001905090565b60008061261a61100f565b6001600160a01b0384166000908152603f602052604090206007015463ffffffff919091169150811415612652576001915050610a2f565b6001600160a01b0383166000908152603f60209081526040808320605a8352818420600781015460099091015483516060810190945260338085529295946126a6949293919291906146e89083013961386a565b905060006126d1848460070154604051806060016040528060338152602001614b9060339139612d30565b90506000811180156126e35750600082115b156128415760006126f482846138c8565b6001600160a01b038089166000908152603f602090815260408083206002015481516318160ddd60e01b81529151959650929492909316926318160ddd9260048083019392829003018186803b15801561274d57600080fd5b505afa158015612761573d6000803e3d6000fd5b505050506040513d602081101561277757600080fd5b505190506127836145b9565b600082116127a057604051806020016040528060008152506127aa565b6127aa838361390a565b90506127b46145b9565b6127d06040518060200160405280896006015481525083613948565b82518151604080516001600160a01b038f168152602081018890528082018990526060810193909352608083019190915260a082018b9052519192507f125a275b17a028107fb8ea33eab77a419fe44c0237a8f4ec5a20e536529b3c62919081900360c00190a15160068701555050505b505060070155506001919050565b60006128898383604051806040016040528060158152602001747375627472616374696f6e20756e646572666c6f7760581b815250612d30565b9392505050565b60008061289b61100f565b6001600160a01b0384166000908152603f602052604090206009015463ffffffff9190911691508114156128d3576001915050610a2f565b6001600160a01b0383166000908152603f60209081526040808320605a835281842060088101546009909101548351606081019094526033808552929594612927949293919291906146e89083013961386a565b905060006129528484600901546040518060600160405280603381526020016149bc60339139612d30565b6037546040805163358b080b60e21b81526001600160a01b038a811660048301529151939450600093919092169163d62c202c916024808301926020929190829003018186803b1580156129a557600080fd5b505afa1580156129b9573d6000803e3d6000fd5b505050506040513d60208110156129cf57600080fd5b505160375460408051632c8dcf3f60e01b81526001600160a01b038b8116600483015291519394506000939190921691632c8dcf3f916024808301926020929190829003018186803b158015612a2457600080fd5b505afa158015612a38573d6000803e3d6000fd5b505050506040513d6020811015612a4e57600080fd5b505160408051606081019091526026808252919250600091612a7c9185918591906149ef602083013961386a565b9050600084118015612a8e5750600085115b15612b7a576000612a9f85876138c8565b9050612aa96145b9565b60008311612ac65760405180602001604052806000815250612ad0565b612ad0828461390a565b9050612ada6145b9565b612af660405180602001604052808b6008015481525083613948565b90507f1abb946ba6c022fcf874811b294895f1634872403a0b573600ae4b8f12c2bd608c8688868660000151866000015160405180876001600160a01b03166001600160a01b03168152602001868152602001858152602001848152602001838152602001828152602001965050505050505060405180910390a151600889015550505b505050505060090155506001919050565b603460009054906101000a90046001600160a01b03166001600160a01b031663841aa40c6040518163ffffffff1660e01b815260040160206040518083038186803b158015612bd957600080fd5b505afa158015612bed573d6000803e3d6000fd5b505050506040513d6020811015612c0357600080fd5b5051603580546001600160a01b0319166001600160a01b0392831617905560345460408051631f94a27560e31b81529051919092169163fca513a8916004808301926020929190829003018186803b158015612c5e57600080fd5b505afa158015612c72573d6000803e3d6000fd5b505050506040513d6020811015612c8857600080fd5b5051603680546001600160a01b0319166001600160a01b039283161790556034546040805163076b7fbb60e51b81529051919092169163ed6ff760916004808301926020929190829003018186803b158015612ce357600080fd5b505afa158015612cf7573d6000803e3d6000fd5b505050506040513d6020811015612d0d57600080fd5b5051603780546001600160a01b0319166001600160a01b03909216919091179055565b60008184841115612dbf5760405162461bcd60e51b81526004018080602001828103825283818151815260200191508051906020019080838360005b83811015612d84578181015183820152602001612d6c565b50505050905090810190601f168015612db15780820380516001836020036101000a031916815260200191505b509250505060405180910390fd5b505050900390565b6060603e805480602002602001604051908101604052809291908181526020018280548015612e1f57602002820191906000526020600020905b81546001600160a01b03168152600190910190602001808311612e01575b5050605954939450600093612e699350439250604191506001600160e01b031660188110612e4957fe5b015460405180606001604052806021815260200161496e60219139612d30565b60595490915043906041906001600160e01b031660188110612e8757fe5b0155612e916125b6565b612ecc5760405162461bcd60e51b8152600401808060200182810382526022815260200180614a156022913960400191505060405180910390fd5b612ed46145b9565b50604080516020810190915260008152612eec6145b9565b50604080516020810190915260008082525b845181101561379f576000858281518110612f1557fe5b60200260200101519050612f276145b9565b60408051602080820183526001600160a01b038516600090815290839052919091206059548291906001600160e01b031660188110612f6257fe5b015490529050612f706145b9565b60408051602080820180845260365463b3596f0760e01b9091526001600160a01b03878116602485015293519293849391169163b3596f07916044808601929190818703018186803b158015612fc557600080fd5b505afa158015612fd9573d6000803e3d6000fd5b505050506040513d6020811015612fef57600080fd5b5051905280519091506130335760405162461bcd60e51b81526004018080602001828103825260398152602001806148446039913960400191505060405180910390fd5b80516001600160a01b03841660009081526040602081905290206059546001600160e01b03166018811061306357fe5b015581516001600160a01b03841660009081526040602081905290206059547ffb7039f84d4fe0388609065a7edaaf1a5e50affbbb1c2fd19818de856e82ecb492869290916001600160e01b0316601881106130bb57fe5b0154605954604080516001600160a01b039095168552602085019390935283830191909152606083018b90526001600160e01b03166080830152519081900360a00190a16001600160a01b0383166000908152603f602052604090206005015460ff16158061314c57506001600160a01b038316600090815260406020819052902060189081015463ffffffff1614155b15613237576001600160a01b0383166000908152605a60209081526040808320805460ff191681556003810184905560040183905590819052902060189081015463ffffffff161015613232576001600160a01b03831660009081526040602081815291819020601801548151808301909252601e82527f507269636520436f756e746572206164646974696f6e206661696c65642e0000928201929092526131fe9163ffffffff169060019061386a565b6001600160a01b0384166000908152604060208190529020601801805463ffffffff191663ffffffff929092169190911790555b613735565b60006132416145b9565b506040805160208101909152600081526132596145b9565b506040805160208101909152600081526132716145b9565b5060408051602081019091526000815261328b868661396d565b15613441576001600160a01b038088166000908152603f602090815260408083206002015481516318160ddd60e01b81529151939416926318160ddd92600480840193919291829003018186803b1580156132e557600080fd5b505afa1580156132f9573d6000803e3d6000fd5b505050506040513d602081101561330f57600080fd5b5051905061331d8787613974565b909550925061332c83826139b0565b60408051602080820183526001600160a01b03808e166000818152605a84528581206001015485528651828252603f855290869020600490810154603654885163a9ec70d160e01b8152928301949094529651989d50969b509398506133e896939591169263a9ec70d192602480840193919291829003018186803b1580156133b457600080fd5b505afa1580156133c8573d6000803e3d6000fd5b505050506040513d60208110156133de57600080fd5b505160ff16613a18565b6001600160a01b0389166000908152605a602052604090206003018190556134109083613b23565b6001600160a01b0389166000908152605a602052604090206004810191909155805460ff19166001179055506136b8565b6037546040805163358b080b60e21b81526001600160a01b038a811660048301529151600093929092169163d62c202c91602480820192602092909190829003018186803b15801561349257600080fd5b505afa1580156134a6573d6000803e3d6000fd5b505050506040513d60208110156134bc57600080fd5b505160375460408051632c8dcf3f60e01b81526001600160a01b038c8116600483015291519394506000939190921691632c8dcf3f916024808301926020929190829003018186803b15801561351157600080fd5b505afa158015613525573d6000803e3d6000fd5b505050506040513d602081101561353b57600080fd5b5051604080516060810190915260268082529192506000916135699185918591906149ef602083013961386a565b9050613575888a613974565b909750945061358485826139b0565b80975081985050506040518060200160405280605a60008d6001600160a01b03166001600160a01b031681526020019081526020016000206002015481525093506136618660000151603f60008d6001600160a01b03166001600160a01b0316815260200190815260200160002060040154603660009054906101000a90046001600160a01b03166001600160a01b031663a9ec70d18e6040518263ffffffff1660e01b815260040180826001600160a01b03166001600160a01b0316815260200191505060206040518083038186803b1580156133b457600080fd5b6001600160a01b038b166000908152605a602052604090206003018190556136899085613b23565b6001600160a01b038b166000908152605a602052604090206004810191909155805460ff191660021790555050505b60408051602080820183526001600160a01b038a166000908152605a909152919091206003015481526136ec908b90613948565b995061372e896040518060200160405280605a60008c6001600160a01b03166001600160a01b0316815260200190815260200160002060040154815250613948565b9850505050505b6001600160a01b0383166000818152605a6020908152604091829020600381015460049091015483519485529184015282820152517fd472f492dc7528ff82496536e94a7e8dc3d0e6ed6c7c58731e37193d6edffa839181900360600190a1505050600101612efe565b5081516039558051603a55603b839055603c54603d55603754600160a01b900460ff16156137ff5760006137d16145b9565b6137eb6040518060200160405280603a5481525086613b4b565b915091506137fc8160000151613b66565b50505b613807613e5c565b50613810614101565b613859576040805162461bcd60e51b8152602060048201526015602482015274155c19185d1a5b99c810d31bd8dac811985a5b1959605a1b604482015290519081900360640190fd5b50505050565b600290565b303b1590565b600083830182858210156138bf5760405162461bcd60e51b8152602060048201818152835160248401528351909283926044909101919085019080838360008315612d84578181015183820152602001612d6c565b50949350505050565b600061288983836040518060400160405280601781526020017f6d756c7469706c69636174696f6e206f766572666c6f77000000000000000000815250614192565b6139126145b9565b604051806020016040528061393f613939866ec097ce7bc90715b34b9f10000000006138c8565b85614208565b90529392505050565b6139506145b9565b604051806020016040528061393f8560000151856000015161423b565b5190511190565b600061397e6145b9565b60008061399386600001518660000151614271565b6040805160208101909152908152909450925050505b9250929050565b60006139ba6145b9565b6000806139cb866000015186614294565b909250905060008260038111156139de57fe5b146139fd575060408051602081019091526000815290925090506139a9565b60408051602081019091529081526000969095509350505050565b6000808311613a585760405162461bcd60e51b8152600401808060200182810382526022815260200180614b6e6022913960400191505060405180910390fd5b60008211613a975760405162461bcd60e51b8152600401808060200182810382526026815260200180614a916026913960400191505060405180910390fd5b6000613ac485670de0b6b3a76400006040518060600160405280602e8152602001614b40602e9139614192565b90506000613aee8286600a0a60405180606001604052806028815260200161476d602891396142d3565b90506000613b188286600a0a604051806060016040528060238152602001614ab7602391396142d3565b979650505050505050565b6000670de0b6b3a7640000613b3c8484600001516138c8565b81613b4357fe5b049392505050565b6000613b556145b9565b6000806139cb866000015186614335565b6036546035546040805163b3596f0760e01b81526001600160a01b0392831660048201529051600093929092169163b3596f0791602480820192602092909190829003018186803b158015613bba57600080fd5b505afa158015613bce573d6000803e3d6000fd5b505050506040513d6020811015613be457600080fd5b50516035546036546040805163a9ec70d160e01b81526001600160a01b0393841660048201819052915194955090936000939092169163a9ec70d191602480820192602092909190829003018186803b158015613c4057600080fd5b505afa158015613c54573d6000803e3d6000fd5b505050506040513d6020811015613c6a57600080fd5b50516040805163313ce56760e01b8152905160ff90921692506000916001600160a01b0385169163313ce567916004808301926020929190829003018186803b158015613cb657600080fd5b505afa158015613cca573d6000803e3d6000fd5b505050506040513d6020811015613ce057600080fd5b5051603c5460ff9091169150600090613cfa9086906138c8565b90506000613d09828486613a18565b60408051602081019091526038548152909150600090613d2a908990613b23565b905080821115613dfe576000613d5c8286600a0a60405180606001604052806038815260200161490960389139614192565b90506000613d868288600a0a604051806060016040528060398152602001614b0760399139614192565b90506000613db582670de0b6b3a76400006040518060600160405280602d8152602001614941602d91396142d3565b9050613df7818b6040518060400160405280601d81526020017f4d6178205370656564206469766973696f6e2067617665206572726f720000008152506142d3565b603d555050505b603c54603d546040805192835260208301919091528181018a90526060820183905260808201849052517fb46f7bf4158f3a71283ac90fc060ebefd6ee78121b305c9768c5f5d9929709fa9181900360a00190a15050505050505050565b6000805b603e548110156140fd576000603e8281548110613e7957fe5b6000918252602090912001546001600160a01b03169050613e986145b9565b50604080516020810190915260008152613eb06145b9565b5060408051602081019091526000808252603a5415801590613eec57506001600160a01b0384166000908152605a602052604090206004015415155b15614006576001600160a01b0384166000908152605a6020526040902060040154603a54613f1a9190614360565b6001600160a01b0386166000908152605a6020526040902060030154603954919550919250613f499190614360565b6001600160a01b0386166000908152605a602052604090205490935090915060ff1660011415613faa57613f7f603d5484613b23565b6001600160a01b0385166000908152605a602052604081206007810192909255600890910155614001565b6001600160a01b0384166000908152605a602052604090205460ff166002141561400157613fda603d5484613b23565b6001600160a01b0385166000908152605a6020526040812060088101929092556007909101555b61402a565b6001600160a01b0384166000908152605a6020526040812060088101829055600701555b614038633b9aca0084613b23565b6001600160a01b0385166000908152605a6020526040902060060155614062633b9aca0083613b23565b6001600160a01b0385166000818152605a602090815260409182902060058101859055805460078201546008830154600690930154855196875260ff90921693860193909352848401929092526060840152608083015260a082019290925290517fb77e0c67aad5552fab291ca0f92913ed655f8193dacb98659dd705512a026e649181900360c00190a1505060019092019150613e609050565b5090565b6059546000906001600160e01b03166017146141695760595460408051808201909152601a81527f637572436c6f636b203a204164646974696f6e204661696c65640000000000006020820152614164916001600160e01b03169060019061386a565b61416c565b60005b605980546001600160e01b0319166001600160e01b039290921691909117905550600190565b600083158061419f575082155b156141ac57506000612889565b838302838582816141b957fe5b041483906138bf5760405162461bcd60e51b8152602060048201818152835160248401528351909283926044909101919085019080838360008315612d84578181015183820152602001612d6c565b600061288983836040518060400160405280600e81526020016d646976696465206279207a65726f60901b8152506142d3565b60006128898383604051806040016040528060118152602001706164646974696f6e206f766572666c6f7760781b81525061386a565b6000808383116142885750600090508183036139a9565b506003905060006139a9565b600080836142a7575060009050806139a9565b838302838582816142b457fe5b04146142c8575060029150600090506139a9565b6000925090506139a9565b600081836143225760405162461bcd60e51b8152602060048201818152835160248401528351909283926044909101919085019080838360008315612d84578181015183820152602001612d6c565b5082848161432c57fe5b04949350505050565b6000808261434957506001905060006139a9565b600083858161435457fe5b04915091509250929050565b600061436a6145b9565b60008061437f86670de0b6b3a7640000614294565b9092509050600082600381111561439257fe5b146143b1575060408051602081019091526000815290925090506139a9565b6000806143be8388614335565b909250905060008260038111156143d157fe5b146143f3575060408051602081019091526000815290945092506139a9915050565b604080516020810190915290815260009890975095505050505050565b815481835581811115612291576000838152602090206122919181019083016145cc565b50805460018160011615610100020316600290046000825580601f1061445a5750614478565b601f01602090049060005260206000209081019061447891906145cc565b50565b506144789060188101906145cc565b6040518061030001604052806018906020820280388339509192915050565b828054600181600116156101000203166002900490600052602060002090601f016020900481019282601f106144ea57805160ff1916838001178555614517565b82800160010185558215614517579182015b828111156145175782518255916020019190600101906144fc565b506140fd9291506145cc565b826018810192821561451757916020028201828111156145175782518255916020019190600101906144fc565b6040518061014001604052806000151581526020016060815260200160006001600160a01b0316815260200160006001600160a01b0316815260200160008152602001600015158152602001600081526020016000815260200160008152602001600081525090565b6040518060200160405280600081525090565b61100c91905b808211156140fd57600081556001016145d256fe546865206e657720566f6c6174696c697479204c696d697420666f7220537570706c69657273206d7573742062652067726561746572207468616e20302e30316531382028312529496e737472756d656e74206e6f742070726f7065726c792072656d6f7665642066726f6d20746865206c697374206f6620696e737472756d656e747320737570706f727465645468697320696e737472756d656e74206973206e6f7420737570706f72746564206279205349474820446973747269627574696f6e2048616e646c657252656672657368205349474820537065656473203a205375627472616374696f6e20756e646572666c6f7720666f7220626c6f636b73537570706c696572207370656564206164646974696f6e2077697468207374616b696e67207370656564206f766572666c6f77546869732066756e6374696f6e2063616e206f6e6c792062652063616c6c65642062792074686520496e737472756d656e74277320534947482053747265616d732048616e646c657220436f6e7472616374496e737472756d656e7420446563696d616c7320636f7272656374696f6e20756e646572666c6f77546865206e657720566f6c6174696c697479204c696d697420666f7220537570706c69657273206d757374206265206c657373207468616e2031306531382028313078295468652063616c6c6572206d75737420626520746865204c656e64696e6720706f6f6c20436f726520636f6e74726163745468652063616c6c6572206d7573742062652074686520534947482046696e616e61636520436f6e666967757261746f7220436f6e74726163747265667265736853494748537065656473496e7465726e616c203a204f7261636c652072657475726e656420496e76616c6964205072696365546865206e657720566f6c6174696c697479204c696d697420666f7220426f72726f77657273206d757374206265206c657373207468616e203130653138202831307829546865206e657720566f6c6174696c697479204c696d697420666f7220426f72726f77657273206d7573742062652067726561746572207468616e20302e303165313820283125294d617820566f6c6174696c697479203a205349474820446563696d616c73206d756c7469706c69636174696f6e2067617665206572726f724d617820566f6c6174696c697479203a20446563696d616c73206469766973696f6e2067617665206572726f7244656c7461426c6f636b7320726573756c74656420696e20556e646572666c6f775570646174696e67205369676820537570706c7920496e6465786573206f7065726174696f6e206661696c656475706461746553494748426f72726f77496e646578203a20426c6f636b205375627472616374696f6e20556e646572666c6f77436f6d706f756e64656420426f72726f7773204164646974696f6e2067617665206572726f725570646174696e6720496e737472756d656e7420496e6465786573204661696c6564436f6e747261637420696e7374616e63652068617320616c7265616479206265656e20696e697469616c697a65644661696c656420746f207472616e736665722061636375726564205349474820746f2074686520757365722e4f7261636c652072657475726e656420696e76616c696420707269636520446563696d616c73507269636520446563696d616c7320636f7272656374696f6e20756e646572666c6f775570646174696e67205369676820426f72726f7720496e6465786573206f7065726174696f6e206661696c65644d617820566f6c6174696c697479203a20507269636520446563696d616c73206d756c7469706c69636174696f6e2067617665206572726f724c6f737320416d6f756e74206d756c7469706c69636174696f6e2041646a7573746d656e74206f766572666c6f77496e737472756d656e7420446563696d616c732063616e6e6f74206265205a65726f75706461746553494748537570706c79496e646578203a20426c6f636b205375627472616374696f6e20556e646572666c6f77a265627a7a72315820fd265c4582d74779696fd4e5e39d027f27ed3ad508b322bbbb1b418a0dc4a9d364736f6c63430005100032",
  "source": "pragma solidity ^0.5.16;\n\n/**\n * @title Sigh Distribution Handler Contract\n * @notice Handles the SIGH Loss Minimizing Mechanism for the Lending Protocol\n * @dev Accures SIGH for the supported markets based on losses made every 24 hours, along with Staking speeds. This accuring speed is updated every hour\n * @author SIGH Finance\n */\n \nimport \"openzeppelin-solidity/contracts/token/ERC20/IERC20.sol\"; \nimport \"openzeppelin-solidity/contracts/token/ERC20/ERC20Detailed.sol\"; \nimport \"../Math/Exponential.sol\";\nimport \"../../openzeppelin-upgradeability/VersionedInitializable.sol\";\n\nimport \"../../Configuration/GlobalAddressesProvider.sol\";\nimport \"../../LendingProtocolContracts/interfaces/IPriceOracleGetter.sol\";            \n\nimport \"../../LendingProtocolContracts/interfaces/ILendingPoolCore.sol\";     \nimport \"../Interfaces/ISighStaking.sol\";       \n\n\ncontract SIGHDistributionHandler is Exponential, VersionedInitializable {       // \n    \n// ######## CONTRACT ADDRESSES ########\n    GlobalAddressesProvider public addressesProvider;\n    IERC20 public Sigh_Address;\n    IPriceOracleGetter public oracle;\n    ILendingPoolCore public lendingPoolCore;\n\n    uint constant sighInitialIndex = 1e36;            ///  The initial SIGH index for a market\n\n    // SIGH Speed Upper Check\n    bool private isSpeedUpperCheckAllowed = false;\n    Exp private maxVolatilityProtocolLimit = Exp({mantissa: 1e18 });  \n\n    // TOTAL Protocol Volatility Values (Current Session)\n    uint256 private last24HrsTotalProtocolVolatility = 0;\n    uint256 private last24HrsTotalProtocolVolatilityLimit = 0;\n    uint256 private deltaBlockslast24HrSession = 0;\n    \n    // SIGH Speed is set by SIGH Finance Manager. SIGH Speed Used = Calculated based on \"maxVolatilityProtocolLimit\" & \"last24HrsTotalProtocolVolatilityLimit\"\n    uint private SIGHSpeed;\n    uint private SIGHSpeedUsed;\n\n    address[] private all_Instruments;    // LIST OF INSTRUMENTS \n\n// ######## INDIVIDUAL INSTRUMENT STATE ########\n\n    struct SIGHInstrument {\n        bool isListed;\n        string name;\n        address iTokenAddress;\n        address sighStreamAddress;\n        uint256 decimals;\n        bool isSIGHMechanismActivated;\n        uint supplyindex;\n        uint256 supplylastupdatedblock;\n        uint borrowindex;\n        uint256 borrowlastupdatedblock;\n    }\n\n    mapping (address => SIGHInstrument) private financial_instruments;    // FINANCIAL INSTRUMENTS\n    \n// ######## 24 HOUR PRICE HISTORY FOR EACH INSTRUMENT AND THE BLOCK NUMBER WHEN THEY WERE TAKEN ########\n\n    struct InstrumentPriceCycle {\n        uint256[24] recordedPriceSnapshot;\n        uint32 initializationCounter;\n    }\n\n    mapping(address => InstrumentPriceCycle) private instrumentPriceCycles;    \n    uint256[24] private blockNumbersForPriceSnapshots_;\n    uint224 private curClock;\n\n// ######## SIGH DISTRIBUTION SPEED FOR EACH INSTRUMENT ########\n\n    struct Instrument_Sigh_Mechansim_State {\n        uint8 side;                                         // side = enum{Suppliers,Borrowers,inactive}\n        uint256 maxVolatilityLimitSuppliers;                 // Volatility Limit Ratio = maxVolatilityLimitSuppliers (if side == Suppliers)\n        uint256 maxVolatilityLimitBorrowers;                 // Volatility Limit Ratio = maxVolatilityLimitSuppliers (if side == Borrowers)\n        uint256 _total24HrVolatility;                        // TOTAL VOLATILITY = Total Compounded Balance * Price Difference\n        uint256 _24HrVolatilityLimitAmount;                  // Volatility Limit Amount = TOTAL VOLATILITY * (Volatility Limit Ratio) / 1e18\n        uint256 percentTotalVolatility;                      // TOTAL VOLATILITY / last24HrsTotalProtocolVolatility\n        uint256 percentTotalVolatilityLimitAmount;           // Volatility Limit Amount / last24HrsTotalProtocolVolatilityLimit\n        uint256 suppliers_Speed;\n        uint256 borrowers_Speed;\n        uint256 staking_Speed;\n    }\n\n    mapping(address => Instrument_Sigh_Mechansim_State) private Instrument_Sigh_Mechansim_States;\n    uint256 private deltaBlocksForSpeed = 1; // 60 * 60 \n    uint256 private prevSpeedRefreshBlock;\n\n\n    // ####################################\n    // ############## EVENTS ##############\n    // ####################################\n\n    event InstrumentAdded (address instrumentAddress_, address iTokenAddress, address sighStreamAddress,  uint decimals , uint blockNumber); \n    event InstrumentRemoved(address _instrument, uint blockNumber); \n    event InstrumentSIGHStateUpdated( address instrument_, bool isSIGHMechanismActivated, uint maxVolatilityLimitSuppliers, uint maxVolatilityLimitBorrowers );\n\n    event SIGHSpeedUpdated(uint oldSIGHSpeed, uint newSIGHSpeed, uint blockNumber_);     /// Emitted when SIGH speed is changed\n    event SpeedUpperCheckSwitched(bool previsSpeedUpperCheckAllowed, uint maxVolatilityProtocolLimit );\n    event minimumBlocksForSpeedRefreshUpdated( uint prevDeltaBlocksForSpeed,uint newDeltaBlocksForSpeed, uint blockNumber );\n\n    event StakingSpeedUpdated(address instrumentAddress_ , uint prevStakingSpeed, uint new_staking_Speed, uint blockNumber );\n    \n    event PriceSnapped(address instrument, uint prevPrice, uint currentPrice, uint deltaBlocks, uint currentClock );   \n    event MaxSIGHSpeedCalculated(uint _SIGHSpeed, uint _SIGHSpeedUsed, uint _totalVolatilityLimitPerBlock, uint _maxVolatilityToAddressPerBlock, uint _max_SIGHDistributionLimitDecimalsAdjusted );\n    event InstrumentVolatilityCalculated(address _Instrument, uint _total24HrVolatility , uint _24HrVolatilityLimitAmount);\n    event refreshingSighSpeeds( address _Instrument, uint8 side,  uint supplierSpeed, uint borrowerSpeed, uint _percentTotalVolatilityLimitAmount, uint _percentTotalVolatility );\n    \n\n    event SIGHSupplyIndexUpdated(address instrument, uint totalCompoundedSupply, uint sighAccured, uint ratioMantissa, uint newIndexMantissa,  uint blockNum );\n    event SIGHBorrowIndexUpdated(address instrument, uint totalCompoundedStableBorrows, uint totalCompoundedVariableBorrows, uint sighAccured, uint ratioMantissa, uint newIndexMantissa );\n\n    event AccuredSIGHTransferredToTheUser(address instrument, address user, uint sigh_Amount );\n\n// #######################################################\n// ##############        MODIFIERS          ##############\n// #######################################################\n        \n    //only LendingPoolCore can use functions affected by this modifier\n    modifier onlyLendingPoolCore {\n        require(address(lendingPoolCore) == msg.sender, \"The caller must be the Lending pool Core contract\");\n        _;\n    }   \n    \n    //only SIGH Distribution Manager can use functions affected by this modifier\n    modifier onlySighFinanceConfigurator {\n        require(addressesProvider.getSIGHFinanceConfigurator() == msg.sender, \"The caller must be the SIGH Finanace Configurator Contract\");\n        _;\n    }\n\n    // This function can only be called by the Instrument's IToken Contract\n    modifier onlySighStreamContract(address instrument) {\n           SIGHInstrument memory currentInstrument = financial_instruments[instrument];\n           require( currentInstrument.isListed, \"This instrument is not supported by SIGH Distribution Handler\");\n           require( msg.sender == currentInstrument.sighStreamAddress, \"This function can only be called by the Instrument's SIGH Streams Handler Contract\");\n        _;\n    }\n        \n// ######################################################################################\n// ##############        PROXY RELATED  & ADDRESSES INITIALIZATION        ###############\n// ######################################################################################\n\n    uint256 constant private SIGH_DISTRIBUTION_REVISION = 0x2;\n\n    function getRevision() internal pure returns(uint256) {\n        return SIGH_DISTRIBUTION_REVISION;\n    }\n    \n    function initialize( GlobalAddressesProvider addressesProvider_) public initializer {   // \n        addressesProvider = addressesProvider_;\n        refreshConfigInternal(); \n    }\n\n    function refreshConfig() external onlySighFinanceConfigurator {        // ()\n        refreshConfigInternal(); \n    }\n\n    function refreshConfigInternal() internal {\n        Sigh_Address = IERC20(addressesProvider.getSIGHAddress());\n        oracle = IPriceOracleGetter( addressesProvider.getPriceOracle() );\n        lendingPoolCore = ILendingPoolCore(addressesProvider.getLendingPoolCore());\n    }\n    \n    \n// #####################################################################################################################################################\n// ##############        ADDING INSTRUMENTS AND ENABLING / DISABLING SIGH's LOSS MINIMIZING DISTRIBUTION MECHANISM       ###############################\n// ##############        1. addInstrument() : Adds an instrument. Called by LendingPoolCore                              ######################################################\n// ##############        2. removeInstrument() : Instrument supported by Sigh Distribution. Called by Sigh Finance Configurator   #####################\n// ##############        3. Instrument_SIGH_StateUpdated() : Activate / Deactivate SIGH Mechanism, update Volatility Limits for Suppliers / Borrowers ###############\n// #####################################################################################################################################################\n\n    /**\n    * @dev adds an instrument - Called by LendingPool Core when an instrument is added to the Lending Protocol\n    * @param _instrument the instrument object\n    * @param _iTokenAddress the address of the overlying iToken contract\n    * @param _decimals the number of decimals of the underlying asset\n    **/\n    function addInstrument( address _instrument, address _iTokenAddress, address _sighStreamAddress, uint256 _decimals ) external onlyLendingPoolCore returns (bool) {\n        require(!financial_instruments[_instrument].isListed ,\"Instrument already supported.\");\n\n        all_Instruments.push(_instrument); // ADD THE INSTRUMENT TO THE LIST OF SUPPORTED INSTRUMENTS\n        ERC20Detailed instrumentContract = ERC20Detailed(_iTokenAddress);\n\n        // STATE UPDATED : INITIALIZE INNSTRUMENT DATA\n        financial_instruments[_instrument] = SIGHInstrument( {  isListed: true, \n                                                                name: instrumentContract.name(),\n                                                                iTokenAddress: _iTokenAddress,\n                                                                sighStreamAddress: _sighStreamAddress,\n                                                                decimals: _decimals, \n                                                                isSIGHMechanismActivated: false, \n                                                                supplyindex: sighInitialIndex, // ,\"sighInitialIndex exceeds 224 bits\"), \n                                                                supplylastupdatedblock: getBlockNumber(), \n                                                                borrowindex : sighInitialIndex, //,\"sighInitialIndex exceeds 224 bits\"), \n                                                                borrowlastupdatedblock : getBlockNumber()\n                                                                } );\n        // STATE UPDATED : INITITALIZE INSTRUMENT SPEEDS\n        Instrument_Sigh_Mechansim_States[_instrument] = Instrument_Sigh_Mechansim_State({ \n                                                            side: uint8(0) ,\n                                                            maxVolatilityLimitSuppliers : uint(1e18),\n                                                            maxVolatilityLimitBorrowers: uint(1e18),\n                                                            suppliers_Speed: uint(0),\n                                                            borrowers_Speed: uint(0),\n                                                            staking_Speed: uint(0),\n                                                            _total24HrVolatility: uint(0),\n                                                            _24HrVolatilityLimitAmount: uint(0),\n                                                            percentTotalVolatility: uint(0),\n                                                            percentTotalVolatilityLimitAmount: uint(0)\n                                                        } );\n                                                        \n\n        // STATE UPDATED : INITIALIZE PRICECYCLES\n        if ( instrumentPriceCycles[_instrument].initializationCounter == 0 ) {\n            uint256[24] memory emptyPrices;\n            instrumentPriceCycles[_instrument] = InstrumentPriceCycle({ recordedPriceSnapshot : emptyPrices, initializationCounter: uint32(0) }) ;\n        }   \n\n        emit InstrumentAdded(_instrument,_iTokenAddress, _sighStreamAddress,  _decimals, block.number); \n        return true;\n    }\n\n    /**\n    * @dev removes an instrument - Called by LendingPool Core when an instrument is removed from the Lending Protocol\n    * @param _instrument the instrument object\n    **/\n    function removeInstrument( address _instrument ) external onlyLendingPoolCore returns (bool) {   // \n        require(financial_instruments[_instrument].isListed ,\"Instrument already supported.\");\n        require(updatedInstrumentIndexesInternal(), \"Updating Instrument Indexes Failed\");       //  accure the indexes \n\n        uint index = 0;\n        uint length_ = all_Instruments.length;\n        for (uint i = 0 ; i < length_ ; i++) {\n            if (all_Instruments[i] == _instrument) {\n                index = i;\n                break;\n            }\n        }\n        all_Instruments[index] = all_Instruments[length_ - 1];\n        all_Instruments.length--;\n        uint newLen = length_ - 1;\n        require(all_Instruments.length == newLen,\"Instrument not properly removed from the list of instruments supported\");\n        \n        delete financial_instruments[_instrument];\n        delete Instrument_Sigh_Mechansim_States[_instrument];\n        delete instrumentPriceCycles[_instrument];\n\n        emit InstrumentRemoved(_instrument, block.number); \n        return true;\n    }\n\n\n\n    /**\n    * @dev Instrument to be convered under the SIGH DIstribution Mechanism and the associated Volatility Limits - Decided by the SIGH Finance Manager who \n    * can call this function through the Sigh Finance Configurator\n    * @param instrument_ the instrument object\n    **/\n    function Instrument_SIGH_StateUpdated(address instrument_, uint _maxVolatilityLimitSuppliers,uint _maxVolatilityLimitBorrowers, bool _isSIGHMechanismActivated  ) external onlySighFinanceConfigurator returns (bool) {                   // \n        require(financial_instruments[instrument_].isListed ,\"Instrument not supported.\");\n        require( _maxVolatilityLimitSuppliers >= 0.01e18, 'The new Volatility Limit for Suppliers must be greater than 0.01e18 (1%)');\n        require( _maxVolatilityLimitSuppliers <= 10e18, 'The new Volatility Limit for Suppliers must be less than 10e18 (10x)');\n        require( _maxVolatilityLimitBorrowers >= 0.01e18, 'The new Volatility Limit for Borrowers must be greater than 0.01e18 (1%)');\n        require( _maxVolatilityLimitBorrowers <= 10e18, 'The new Volatility Limit for Borrowers must be less than 10e18 (10x)');\n        refreshSIGHSpeeds(); \n        \n        financial_instruments[instrument_].isSIGHMechanismActivated = _isSIGHMechanismActivated;                       // STATE UPDATED\n        Instrument_Sigh_Mechansim_States[instrument_].maxVolatilityLimitSuppliers = _maxVolatilityLimitSuppliers;      // STATE UPDATED\n        Instrument_Sigh_Mechansim_States[instrument_].maxVolatilityLimitBorrowers = _maxVolatilityLimitBorrowers;      // STATE UPDATED\n        \n        emit InstrumentSIGHStateUpdated( instrument_, financial_instruments[instrument_].isSIGHMechanismActivated, Instrument_Sigh_Mechansim_States[instrument_].maxVolatilityLimitSuppliers, Instrument_Sigh_Mechansim_States[instrument_].maxVolatilityLimitBorrowers );\n        return true;\n    }\n    \n\n// ###########################################################################################################################\n// ##############        GLOBAL SIGH SPEED AND SIGH SPEED RATIO FOR A MARKET          ########################################\n// ##############        1. updateSIGHSpeed() : Governed by Sigh Finance Manager          ####################################\n// ##############        3. updateStakingSpeedForAnInstrument():  Decided by the SIGH Finance Manager          ###############\n// ##############        5. updateDeltaBlocksForSpeedRefresh() : Decided by the SIGH Finance Manager           ###############\n// ###########################################################################################################################\n\n    /**\n     * @notice Sets the amount of Global SIGH distributed per block - - Decided by the SIGH Finance Manager who \n     * can call this function through the Sigh Finance Configurator\n     * @param SIGHSpeed_ The amount of SIGH wei per block to distribute\n     */\n    function updateSIGHSpeed(uint SIGHSpeed_) external onlySighFinanceConfigurator returns (bool) {     \n        refreshSIGHSpeeds();\n        uint oldSpeed = SIGHSpeed;\n        SIGHSpeed = SIGHSpeed_;                                 // STATE UPDATED\n        emit SIGHSpeedUpdated(oldSpeed, SIGHSpeed, getBlockNumber());         \n        return true;\n    }\n    \n    /**\n     * @notice Sets the staking speed for an Instrument - Decided by the SIGH Finance Manager who \n     * can call this function through the Sigh Finance Configurator\n     * @param instrument_ The instrument\n     * @param newStakingSpeed The additional SIGH staking speed assigned to the Instrument\n     */\n    function updateStakingSpeedForAnInstrument(address instrument_, uint newStakingSpeed) external onlySighFinanceConfigurator returns (bool) {     // \n        require(financial_instruments[instrument_].isListed ,\"Instrument not supported.\");\n        \n        uint prevStakingSpeed = Instrument_Sigh_Mechansim_States[instrument_].staking_Speed;\n        Instrument_Sigh_Mechansim_States[instrument_].staking_Speed = newStakingSpeed;                    // STATE UPDATED\n\n        emit StakingSpeedUpdated(instrument_, prevStakingSpeed, Instrument_Sigh_Mechansim_States[instrument_].staking_Speed, getBlockNumber() );\n        return true;\n    }\n\n\n    /**\n     * @notice Updates the minimum blocks to be mined before speed can be refreshed again  - Decided by the SIGH Finance Manager who \n     * can call this function through the Sigh Finance Configurator\n     * @param deltaBlocksLimit The new Minimum blocks limit\n     */   \n    function updateDeltaBlocksForSpeedRefresh(uint deltaBlocksLimit) external onlySighFinanceConfigurator returns (bool) {      // \n        refreshSIGHSpeeds();\n        uint prevdeltaBlocksForSpeed = deltaBlocksForSpeed;\n        deltaBlocksForSpeed = deltaBlocksLimit;                                         // STATE UPDATED\n        emit minimumBlocksForSpeedRefreshUpdated( prevdeltaBlocksForSpeed,deltaBlocksForSpeed, getBlockNumber()  );\n        return true;\n    }\n\n    function updateSIGHSpeedUpperCheck (bool isSpeedUpperCheckAllowed_ , uint maxVolatilityProtocolLimit_ ) external onlySighFinanceConfigurator returns (bool) {\n        require( maxVolatilityProtocolLimit_ >= 0.01e18, 'The new Volatility Limit for Borrowers must be greater than 0.01e18 (1%)');\n        require( maxVolatilityProtocolLimit_ <= 10e18, 'The new Volatility Limit for Borrowers must be less than 10e18 (10x)');\n        \n        isSpeedUpperCheckAllowed = isSpeedUpperCheckAllowed_;\n        maxVolatilityProtocolLimit = Exp({mantissa: maxVolatilityProtocolLimit_ });  \n        emit SpeedUpperCheckSwitched( isSpeedUpperCheckAllowed, maxVolatilityProtocolLimit.mantissa );\n        return true;\n    }\n\n    // #########################################################################################################\n    // ################ REFRESH SIGH DISTRIBUTION SPEEDS FOR INSTRUMENTS (INITIALLY EVERY HOUR) ################\n    // #########################################################################################################\n\n    /**\n     * @notice Recalculate and update SIGH speeds for all Supported SIGH markets\n     */\n    function refreshSIGHSpeeds() public returns (bool) {\n        uint blockNumber = block.number;\n        uint256 blocksElapsedSinceLastRefresh = sub_(blockNumber , prevSpeedRefreshBlock, \"Refresh SIGH Speeds : Subtraction underflow for blocks\"); \n\n        if ( blocksElapsedSinceLastRefresh >= deltaBlocksForSpeed) {\n            refreshSIGHSpeedsInternal();\n            prevSpeedRefreshBlock = blockNumber;                                        // STATE UPDATED\n            return true;\n        }\n        return false;\n    }\n\n\n\n    /**\n     * @notice Recalculate and update SIGH speeds for all Supported SIGH markets\n     * 1. Instrument indexes for all instruments updated\n     * 2. Delta blocks (past 24 hours) calculated and current block number (for price snapshot) updated\n     * 3. 1st loop over all instruments --> Average loss (per block) for each of the supported instruments\n     *    along with the total lending protocol's loss (per block) calculated and stored price snapshot is updated\n     * 4. The Sigh speed that will be used for speed refersh calculated (provided if is needed to be done) \n     * 5. 1st loop over all instruments -->  Sigh Distribution speed (Loss driven speed + staking speed) calculated for \n     *    each instrument\n     * 5.1 Current Clock updated\n     */    \n    function refreshSIGHSpeedsInternal() internal {\n        address[] memory all_Instruments_ = all_Instruments;\n        uint deltaBlocks_ = sub_(block.number , blockNumbersForPriceSnapshots_[curClock], \"DeltaBlocks resulted in Underflow\");       // Delta Blocks over past 24 hours\n        blockNumbersForPriceSnapshots_[curClock] = block.number;                                                                    // STATE UPDATE : Block Number for the priceSnapshot Updated\n\n        require(updatedInstrumentIndexesInternal(), \"Updating Instrument Indexes Failed\");       //  accure the indexes \n\n        Exp memory totalProtocolVolatility = Exp({mantissa: 0});                            // TOTAL LOSSES (Over past 24 hours)\n        Exp memory totalProtocolVolatilityLimit = Exp({mantissa: 0});                            // TOTAL LOSSES (Over past 24 hours)\n        \n        // Price Snapshot for current clock replaces the pervious price snapshot\n        // DELTA BLOCKS = CURRENT BLOCK - 24HRS_OLD_STORED_BLOCK_NUMBER\n        // LOSS PER INSTRUMENT = PREVIOUS PRICE (STORED) - CURRENT PRICE (TAKEN FROM ORACLE)\n        // TOTAL VOLATILITY OF AN INSTRUMENT = LOSS PER INSTRUMENT * TOTAL COMPOUNDED LIQUIDITY\n        // VOLATILITY OF AN INSTRUMENT TO BE ACCOUNTED FOR = TOTAL VOLATILITY OF AN INSTRUMENT * VOLATILITY LIMIT (DIFFERENT FOR SUPPLIERS/BORROWERS OF INSTRUMENT)\n        // TOTAL PROTOCOL VOLATILITY =  + ( VOLATILITY OF AN INSTRUMENT TO BE ACCOUNTED FOR )\n        for (uint i = 0; i < all_Instruments_.length; i++) {\n\n            address _currentInstrument = all_Instruments_[i];       // Current Instrument\n            \n            // UPDATING PRICE SNAPSHOTS\n            Exp memory previousPriceETH = Exp({ mantissa: instrumentPriceCycles[_currentInstrument].recordedPriceSnapshot[curClock] });            // 24hr old price snapshot\n            Exp memory currentPriceETH = Exp({ mantissa: oracle.getAssetPrice( _currentInstrument ) });                                            // current price from the oracle\n            require ( currentPriceETH.mantissa > 0, \"refreshSIGHSpeedsInternal : Oracle returned Invalid Price\" );\n            instrumentPriceCycles[_currentInstrument].recordedPriceSnapshot[curClock] =  uint256(currentPriceETH.mantissa); //  STATE UPDATED : PRICE SNAPSHOT TAKEN        \n            emit PriceSnapped(_currentInstrument, previousPriceETH.mantissa, instrumentPriceCycles[_currentInstrument].recordedPriceSnapshot[curClock], deltaBlocks_, curClock );\n\n            if ( !financial_instruments[_currentInstrument].isSIGHMechanismActivated || instrumentPriceCycles[_currentInstrument].initializationCounter != uint32(24) ) {     // if LOSS MINIMIZNG MECHANISM IS NOT ACTIVATED FOR THIS INSTRUMENT\n                // STATE UPDATE\n                Instrument_Sigh_Mechansim_States[_currentInstrument].side = uint8(0);\n                Instrument_Sigh_Mechansim_States[_currentInstrument]._total24HrVolatility =  uint(0);\n                Instrument_Sigh_Mechansim_States[_currentInstrument]._24HrVolatilityLimitAmount =  uint(0);\n                //    Newly Sighed Instrument needs to reach 24 (priceSnapshots need to be taken) before it can be assigned a Sigh Speed based on VOLATILITY   \n                if (instrumentPriceCycles[_currentInstrument].initializationCounter < uint32(24) ) {\n                    instrumentPriceCycles[_currentInstrument].initializationCounter = uint32(add_(instrumentPriceCycles[_currentInstrument].initializationCounter , uint32(1) , 'Price Counter addition failed.'));  // STATE UPDATE : INITIALIZATION COUNTER UPDATED\n                }\n            }\n            else {\n                MathError error;\n                Exp memory volatility = Exp({mantissa: 0});\n                Exp memory lossPerInstrument = Exp({mantissa: 0});   \n                Exp memory instrumentVolatilityLimit = Exp({mantissa: 0});\n                \n                if ( greaterThanExp(previousPriceETH , currentPriceETH) ) {   // i.e the price has decreased so we calculate Losses accured by Suppliers of the Instrument\n                    uint totalCompoundedLiquidity = IERC20(financial_instruments[_currentInstrument].iTokenAddress).totalSupply(); // Total Compounded Liquidity\n                    ( error, lossPerInstrument) = subExp( previousPriceETH , currentPriceETH );       \n                    ( error, volatility ) = mulScalar( lossPerInstrument, totalCompoundedLiquidity );\n                    instrumentVolatilityLimit = Exp({mantissa: Instrument_Sigh_Mechansim_States[_currentInstrument].maxVolatilityLimitSuppliers });\n                    // STATE UPDATE\n                    Instrument_Sigh_Mechansim_States[_currentInstrument]._total24HrVolatility =  adjustForDecimalsInternal(volatility.mantissa, financial_instruments[_currentInstrument].decimals , oracle.getAssetPriceDecimals(_currentInstrument) );\n                    Instrument_Sigh_Mechansim_States[_currentInstrument]._24HrVolatilityLimitAmount =  mul_(Instrument_Sigh_Mechansim_States[_currentInstrument]._total24HrVolatility , instrumentVolatilityLimit );\n                    Instrument_Sigh_Mechansim_States[_currentInstrument].side = uint8(1);\n                }\n                else {                                              // i.e the price has increased so we calculate Losses accured by Borrowers of the Instrument\n                    uint totalVariableBorrows =  lendingPoolCore.getInstrumentCompoundedBorrowsVariable(_currentInstrument);\n                    uint totalStableBorrows =  lendingPoolCore.getInstrumentCompoundedBorrowsStable(_currentInstrument);\n                    uint totalCompoundedBorrows =  add_(totalVariableBorrows,totalStableBorrows,'Compounded Borrows Addition gave error'); \n                    ( error, lossPerInstrument) = subExp( currentPriceETH, previousPriceETH );       \n                    ( error, volatility ) = mulScalar( lossPerInstrument, totalCompoundedBorrows );\n                    instrumentVolatilityLimit = Exp({mantissa: Instrument_Sigh_Mechansim_States[_currentInstrument].maxVolatilityLimitBorrowers });\n                    // STATE UPDATE\n                    Instrument_Sigh_Mechansim_States[_currentInstrument]._total24HrVolatility = adjustForDecimalsInternal(volatility.mantissa , financial_instruments[_currentInstrument].decimals , oracle.getAssetPriceDecimals(_currentInstrument) );\n                    Instrument_Sigh_Mechansim_States[_currentInstrument]._24HrVolatilityLimitAmount =  mul_(Instrument_Sigh_Mechansim_States[_currentInstrument]._total24HrVolatility , instrumentVolatilityLimit );\n                    Instrument_Sigh_Mechansim_States[_currentInstrument].side = uint8(2);\n                }\n                //  Total Protocol Volatility  += Instrument Volatility \n                totalProtocolVolatility = add_(totalProtocolVolatility, Exp({mantissa: Instrument_Sigh_Mechansim_States[_currentInstrument]._total24HrVolatility}) );            \n                //  Total Protocol Volatility Limit  += Instrument Volatility Limit Amount                 \n                 totalProtocolVolatilityLimit = add_(totalProtocolVolatilityLimit, Exp({mantissa: Instrument_Sigh_Mechansim_States[_currentInstrument]._24HrVolatilityLimitAmount})) ;            \n            }\n            emit InstrumentVolatilityCalculated(_currentInstrument, Instrument_Sigh_Mechansim_States[_currentInstrument]._total24HrVolatility , Instrument_Sigh_Mechansim_States[_currentInstrument]._24HrVolatilityLimitAmount);\n        }\n        \n       \n        last24HrsTotalProtocolVolatility = totalProtocolVolatility.mantissa;              // STATE UPDATE : Last 24 Hrs Protocol Volatility  (i.e SUM(_total24HrVolatility for Instruments))  Updated\n        last24HrsTotalProtocolVolatilityLimit = totalProtocolVolatilityLimit.mantissa;     // STATE UPDATE : Last 24 Hrs Protocol Volatility Limit (i.e SUM(_24HrVolatilityLimitAmount for Instruments)) Updated\n        deltaBlockslast24HrSession = deltaBlocks_;                               // STATE UPDATE :\n        \n        // STATE UPDATE :: CALCULATING SIGH SPEED WHICH IS TO BE USED FOR CALCULATING EACH INSTRUMENT's SIGH DISTRIBUTION SPEEDS\n        SIGHSpeedUsed = SIGHSpeed;\n\n        if (isSpeedUpperCheckAllowed) {                     // SIGH SPEED BASED ON UPPER CHECK AND ADDITIONAL PROFIT POTENTIAL\n            (MathError error, Exp memory totalVolatilityLimitPerBlock) = divScalar(Exp({mantissa: last24HrsTotalProtocolVolatilityLimit }) , deltaBlocks_);   // Total Volatility per Block\n            calculateMaxSighSpeedInternal( totalVolatilityLimitPerBlock.mantissa ); \n        }\n        \n        // ###### Updates the Speed (Volatility Driven) for the Supported Instruments ######\n        updateSIGHDistributionSpeeds();\n        require(updateCurrentClockInternal(), \"Updating CLock Failed\");                         // Updates the Clock    \n    }\n\n\n    //  Updates the Supply & Borrow Indexes for all the Supported Instruments\n    function updatedInstrumentIndexesInternal() internal returns (bool) {\n        for (uint i = 0; i < all_Instruments.length; i++) {\n            address currentInstrument = all_Instruments[i];\n            updateSIGHSupplyIndexInternal(currentInstrument);\n            updateSIGHBorrowIndexInternal(currentInstrument);\n        }\n        return true;\n    }\n    \n    // UPDATES SIGH DISTRIBUTION SPEEDS\n    function updateSIGHDistributionSpeeds() internal returns (bool) {\n        \n        for (uint i=0 ; i < all_Instruments.length ; i++) {\n\n            address _currentInstrument = all_Instruments[i];       // Current Instrument\n            Exp memory limitVolatilityRatio =  Exp({mantissa: 0});\n            Exp memory totalVolatilityRatio =  Exp({mantissa: 0});\n            MathError error;\n            \n            if ( last24HrsTotalProtocolVolatilityLimit > 0 && Instrument_Sigh_Mechansim_States[_currentInstrument]._24HrVolatilityLimitAmount > 0 ) {\n                ( error, limitVolatilityRatio) = getExp(Instrument_Sigh_Mechansim_States[_currentInstrument]._24HrVolatilityLimitAmount, last24HrsTotalProtocolVolatilityLimit);\n                ( error, totalVolatilityRatio) = getExp(Instrument_Sigh_Mechansim_States[_currentInstrument]._total24HrVolatility, last24HrsTotalProtocolVolatility);\n                // CALCULATING $SIGH SPEEDS\n                if (Instrument_Sigh_Mechansim_States[_currentInstrument].side == uint8(1) ) {\n                    // STATE UPDATE\n                    Instrument_Sigh_Mechansim_States[_currentInstrument].suppliers_Speed = mul_(SIGHSpeedUsed, limitVolatilityRatio);                                         \n                    Instrument_Sigh_Mechansim_States[_currentInstrument].borrowers_Speed = uint(0);                                                           \n                } \n                else if  (Instrument_Sigh_Mechansim_States[_currentInstrument].side == uint8(2) )  {\n                    // STATE UPDATE\n                    Instrument_Sigh_Mechansim_States[_currentInstrument].borrowers_Speed = mul_(SIGHSpeedUsed, limitVolatilityRatio);                                       \n                    Instrument_Sigh_Mechansim_States[_currentInstrument].suppliers_Speed = uint(0);                                                          \n                }\n            } \n            else {\n                    // STATE UPDATE\n                Instrument_Sigh_Mechansim_States[_currentInstrument].borrowers_Speed = uint(0);                                                               \n                Instrument_Sigh_Mechansim_States[_currentInstrument].suppliers_Speed = uint(0);                                                                \n            }\n\n            Instrument_Sigh_Mechansim_States[_currentInstrument].percentTotalVolatilityLimitAmount = mul_(10**9, limitVolatilityRatio);                                              // STATE UPDATE (LOss Ratio is instrumentVolatility/totalVolatility * 100000 )\n            Instrument_Sigh_Mechansim_States[_currentInstrument].percentTotalVolatility = mul_(10**9, totalVolatilityRatio);                                              // STATE UPDATE (LOss Ratio is instrumentVolatility/totalVolatility * 100000 )\n\n            emit refreshingSighSpeeds( _currentInstrument, Instrument_Sigh_Mechansim_States[_currentInstrument].side,  Instrument_Sigh_Mechansim_States[_currentInstrument].suppliers_Speed, Instrument_Sigh_Mechansim_States[_currentInstrument].borrowers_Speed, Instrument_Sigh_Mechansim_States[_currentInstrument].percentTotalVolatilityLimitAmount, Instrument_Sigh_Mechansim_States[_currentInstrument].percentTotalVolatility );\n        }\n    }\n\n\n\n\n\n    // returns the currently maximum possible SIGH Distribution speed. Called only when upper check is activated\n    // Updated the Global \"SIGHSpeedUsed\" Variable & \"last24HrsTotalProtocolVolatilityLimitAddressedPerBlock\" Variable\n    function calculateMaxSighSpeedInternal( uint totalVolatilityLimitPerBlock ) internal {\n        uint current_Sigh_PriceETH = oracle.getAssetPrice( address(Sigh_Address) );   \n        ERC20Detailed sighContract = ERC20Detailed(address(Sigh_Address));\n        uint priceDecimals = oracle.getAssetPriceDecimals(address(Sigh_Address));\n        uint sighDecimals =  sighContract.decimals();\n\n        // MAX Value that can be distributed per block through SIGH Distribution\n        uint max_SIGHDistributionLimit = mul_( current_Sigh_PriceETH, SIGHSpeed );   \n        uint max_SIGHDistributionLimitDecimalsAdjusted = adjustForDecimalsInternal( max_SIGHDistributionLimit,sighDecimals , priceDecimals  );\n\n        // MAX Volatility that is allowed to be covered through SIGH Distribution\n        uint maxVolatilityToAddressPerBlock = mul_(totalVolatilityLimitPerBlock, maxVolatilityProtocolLimit ); // (a * b)/1e18 [b is in Exp Scale]\n\n\n        if ( max_SIGHDistributionLimitDecimalsAdjusted >  maxVolatilityToAddressPerBlock ) {\n            uint maxVolatilityToAddress_SIGHdecimalsMul = mul_( maxVolatilityToAddressPerBlock, uint(10**(sighDecimals)), \"Max Volatility : SIGH Decimals multiplication gave error\" );\n            uint maxVolatilityToAddress_PricedecimalsMul = mul_( maxVolatilityToAddress_SIGHdecimalsMul, uint(10**(priceDecimals)), \"Max Volatility : Price Decimals multiplication gave error\" );\n            uint maxVolatilityToAddress_DecimalsDiv = div_( maxVolatilityToAddress_PricedecimalsMul, uint(10**18), \"Max Volatility : Decimals division gave error\" );\n            SIGHSpeedUsed = div_( maxVolatilityToAddress_DecimalsDiv, current_Sigh_PriceETH, \"Max Speed division gave error\" );\n        }\n\n        emit MaxSIGHSpeedCalculated(SIGHSpeed, SIGHSpeedUsed, totalVolatilityLimitPerBlock, maxVolatilityToAddressPerBlock, max_SIGHDistributionLimitDecimalsAdjusted  );\n    }\n\n\n    // Updates the Current CLock (global variable tracking the current hour )\n    function updateCurrentClockInternal() internal returns (bool) {\n        curClock = curClock == 23 ? 0 : uint224(add_(curClock,1,\"curClock : Addition Failed\"));\n        return true;\n    }\n\n    \n    function adjustForDecimalsInternal(uint _amount, uint instrumentDecimals, uint priceDecimals) internal pure returns (uint) {\n        require(instrumentDecimals > 0, \"Instrument Decimals cannot be Zero\");\n        require(priceDecimals > 0, \"Oracle returned invalid price Decimals\");\n        uint adjused_Amount = mul_(_amount,uint(10**18),'Loss Amount multiplication Adjustment overflow');\n        uint instrumentDecimalsCorrected = div_( adjused_Amount,uint(10**instrumentDecimals),'Instrument Decimals correction underflow');\n        uint priceDecimalsCorrected = div_( instrumentDecimalsCorrected,uint(10**priceDecimals),'Price Decimals correction underflow');\n        return priceDecimalsCorrected;\n    }\n\n\n    // #####################################################################################################################################\n    // ################ UPDATE SIGH DISTRIBUTION INDEXES (Called from LendingPoolCore) #####################################################\n    // ################ 1. updateSIGHSupplyIndex() : Called by LendingPoolCore              ################################################\n    // ################ --> updateSIGHSupplyIndexInternal() Internal function with actual implementation  ################################## \n    // ################ 2. updateSIGHBorrowIndex() : Called by LendingPoolCore ############################################################# \n    // ################ --> updateSIGHBorrowIndexInternal() : Internal function with actual implementation #################################\n    // #####################################################################################################################################\n\n\n    /**\n     * @notice Accrue SIGH to the Instrument by updating the supply index\n     * @param currentInstrument The Instrument whose supply index to update\n     */\n    function updateSIGHSupplyIndex(address currentInstrument) external onlyLendingPoolCore returns (bool) { //     // Called on each Deposit, Redeem and Liquidation (collateral)\n        require(financial_instruments[currentInstrument].isListed ,\"Instrument not supported.\");\n        require(updateSIGHSupplyIndexInternal( currentInstrument ), \"Updating Sigh Supply Indexes operation failed\" );\n        return true;\n    }\n\n    function updateSIGHSupplyIndexInternal(address currentInstrument) internal returns (bool) {\n        uint blockNumber = getBlockNumber();\n\n        if ( financial_instruments[currentInstrument].supplylastupdatedblock == blockNumber ) {    // NO NEED TO ACCUR AGAIN\n            return true;\n        }\n\n        SIGHInstrument storage instrumentState = financial_instruments[currentInstrument];\n        uint supplySpeed = add_(Instrument_Sigh_Mechansim_States[currentInstrument].suppliers_Speed, Instrument_Sigh_Mechansim_States[currentInstrument].staking_Speed,\"Supplier speed addition with staking speed overflow\" );\n        uint deltaBlocks = sub_(blockNumber, uint( instrumentState.supplylastupdatedblock ), 'updateSIGHSupplyIndex : Block Subtraction Underflow');    // Delta Blocks \n        \n        // WE UPDATE INDEX ONLY IF $SIGH IS ACCURING\n        if (deltaBlocks > 0 && supplySpeed > 0) {       // In case SIGH would have accured\n            uint sigh_Accrued = mul_(deltaBlocks, supplySpeed);                                                                         // SIGH Accured\n            uint totalCompoundedLiquidity = IERC20(financial_instruments[currentInstrument].iTokenAddress).totalSupply();                           // Total amount supplied \n            Double memory ratio = totalCompoundedLiquidity > 0 ? fraction(sigh_Accrued, totalCompoundedLiquidity) : Double({mantissa: 0});    // SIGH Accured per Supplied Instrument Token\n            Double memory newIndex = add_(Double({mantissa: instrumentState.supplyindex}), ratio);                                      // Updated Index\n            emit SIGHSupplyIndexUpdated( currentInstrument, totalCompoundedLiquidity, sigh_Accrued, ratio.mantissa , newIndex.mantissa, blockNumber );  \n\n            instrumentState.supplyindex = newIndex.mantissa;       // STATE UPDATE: New Index Committed to Storage \n        } \n        \n        instrumentState.supplylastupdatedblock = blockNumber ;     // STATE UPDATE: Block number updated        \n        return true;\n    }\n\n\n\n    /**\n     * @notice Accrue SIGH to the market by updating the borrow index\n     * @param currentInstrument The market whose borrow index to update\n     */\n    function updateSIGHBorrowIndex(address currentInstrument) external  onlyLendingPoolCore returns (bool) {  //     // Called during Borrow, repay, SwapRate, Rebalance, Liquidation\n        require(financial_instruments[currentInstrument].isListed ,\"Instrument not supported.\");\n        require( updateSIGHBorrowIndexInternal(currentInstrument), \"Updating Sigh Borrow Indexes operation failed\" ) ;\n        return true;\n    }\n\n    function updateSIGHBorrowIndexInternal(address currentInstrument) internal returns(bool) {\n        uint blockNumber = getBlockNumber();\n\n        if ( financial_instruments[currentInstrument].borrowlastupdatedblock == blockNumber ) {    // NO NEED TO ACCUR AGAIN\n            return true;\n        }\n\n        SIGHInstrument storage instrumentState = financial_instruments[currentInstrument];\n        uint borrowSpeed = add_(Instrument_Sigh_Mechansim_States[currentInstrument].borrowers_Speed, Instrument_Sigh_Mechansim_States[currentInstrument].staking_Speed, \"Supplier speed addition with staking speed overflow\" );\n        uint deltaBlocks = sub_(blockNumber, uint(instrumentState.borrowlastupdatedblock), 'updateSIGHBorrowIndex : Block Subtraction Underflow');         // DELTA BLOCKS\n        \n        uint totalVariableBorrows =  lendingPoolCore.getInstrumentCompoundedBorrowsVariable(currentInstrument);\n        uint totalStableBorrows =  lendingPoolCore.getInstrumentCompoundedBorrowsStable(currentInstrument);\n        uint totalCompoundedBorrows =  add_(totalVariableBorrows,totalStableBorrows,'Compounded Borrows Addition gave error'); \n        \n        if (deltaBlocks > 0 && borrowSpeed > 0) {       // In case SIGH would have accured\n            uint sigh_Accrued = mul_(deltaBlocks, borrowSpeed);                             // SIGH ACCURED = DELTA BLOCKS x SIGH SPEED (BORROWERS)\n            Double memory ratio = totalCompoundedBorrows > 0 ? fraction(sigh_Accrued, totalCompoundedBorrows) : Double({mantissa: 0});      // SIGH Accured per Borrowed Instrument Token\n            Double memory newIndex = add_(Double({mantissa: instrumentState.borrowindex}), ratio);                      // New Index\n            emit SIGHBorrowIndexUpdated( currentInstrument, totalStableBorrows, totalVariableBorrows, sigh_Accrued, ratio.mantissa , newIndex.mantissa );\n\n            instrumentState.borrowindex = newIndex.mantissa ;  // STATE UPDATE: New Index Committed to Storage \n        } \n\n        instrumentState.borrowlastupdatedblock = blockNumber;   // STATE UPDATE: Block number updated        \n        return true;\n    }\n\n    // #########################################################################################\n    // ################### TRANSFERS THE SIGH TO THE MARKET PARTICIPANT  ###################\n    // #########################################################################################\n\n    /**\n     * @notice Transfer SIGH to the user. Called by the corresponding IToken Contract of the instrument\n     * @dev Note: If there is not enough SIGH, we do not perform the transfer call.\n     * @param instrument The instrument for which the SIGH has been accured\n     * @param user The address of the user to transfer SIGH to\n     * @param sigh_Amount The amount of SIGH to (possibly) transfer\n     * @return The amount of SIGH which was NOT transferred to the user\n     */\n    function transferSighTotheUser(address instrument, address user, uint sigh_Amount ) external onlySighStreamContract(instrument) returns (uint) {   // \n        uint sigh_not_transferred = 0;\n        if ( Sigh_Address.balanceOf(address(this)) > sigh_Amount ) {   // NO SIGH TRANSFERRED IF CONTRACT LACKS REQUIRED SIGH AMOUNT\n            require(Sigh_Address.transfer( user, sigh_Amount ), \"Failed to transfer accured SIGH to the user.\" );\n            emit AccuredSIGHTransferredToTheUser( instrument, user, sigh_Amount );\n        }\n        else {\n            sigh_not_transferred = sigh_Amount;\n        }\n        return sigh_not_transferred;\n    }\n\n    // #########################################################\n    // ################### GENERAL PARAMETER FUNCTIONS ###################\n    // #########################################################\n\n    function getSIGHBalance() public view returns (uint) {\n        uint sigh_Remaining = Sigh_Address.balanceOf(address(this));\n        return sigh_Remaining;\n    }\n\n    function getAllInstrumentsSupported() external view returns (address[] memory ) {\n        return all_Instruments; \n    }\n    \n    function getInstrumentData (address instrument_) external view returns (string memory name, address iTokenAddress, uint decimals, bool isSIGHMechanismActivated,uint256 supplyindex, uint256 borrowindex  ) {\n        return ( financial_instruments[instrument_].name,\n                 financial_instruments[instrument_].iTokenAddress,    \n                 financial_instruments[instrument_].decimals,    \n                 financial_instruments[instrument_].isSIGHMechanismActivated,\n                 financial_instruments[instrument_].supplyindex,\n                 financial_instruments[instrument_].borrowindex\n                ); \n    }\n\n    function getInstrumentSpeeds(address instrument) external view returns ( uint8 side, uint suppliers_speed, uint borrowers_speed, uint staking_speed ) {\n        return ( Instrument_Sigh_Mechansim_States[instrument].side,\n                 Instrument_Sigh_Mechansim_States[instrument].suppliers_Speed, \n                 Instrument_Sigh_Mechansim_States[instrument].borrowers_Speed , \n                 Instrument_Sigh_Mechansim_States[instrument].staking_Speed\n                );\n    }\n    \n    function getInstrumentVolatilityStates(address instrument) external view returns ( uint8 side, uint _24HrVolatilityLimitAmount, uint percentTotalVolatilityLimitAmount, uint _total24HrVolatility, uint percentTotalVolatility  ) {\n        return (Instrument_Sigh_Mechansim_States[instrument].side,\n                Instrument_Sigh_Mechansim_States[instrument]._24HrVolatilityLimitAmount,\n                Instrument_Sigh_Mechansim_States[instrument].percentTotalVolatilityLimitAmount,\n                Instrument_Sigh_Mechansim_States[instrument]._total24HrVolatility,\n                Instrument_Sigh_Mechansim_States[instrument].percentTotalVolatility\n                );\n    }    \n\n    function getInstrumentSighLimits(address instrument) external view returns ( uint _maxVolatilityLimitSuppliers , uint _maxVolatilityLimitBorrowers ) {\n    return ( Instrument_Sigh_Mechansim_States[instrument].maxVolatilityLimitSuppliers, Instrument_Sigh_Mechansim_States[instrument].maxVolatilityLimitBorrowers );\n    }\n\n    function getAllPriceSnapshots(address instrument_ ) external view returns (uint256[24] memory) {\n        return instrumentPriceCycles[instrument_].recordedPriceSnapshot;\n    }\n    \n    function getBlockNumbersForPriceSnapshots() external view returns (uint256[24] memory) {\n        return blockNumbersForPriceSnapshots_;\n    }\n\n    function getSIGHSpeed() external view returns (uint) {\n        return SIGHSpeed;\n    }\n\n    function getSIGHSpeedUsed() external view returns (uint) {\n        return SIGHSpeedUsed;\n    }\n\n\n    function isInstrumentSupported (address instrument_) external view returns (bool) {\n        return financial_instruments[instrument_].isListed;\n    } \n\n    function totalInstrumentsSupported() external view returns (uint) {\n        return uint(all_Instruments.length); \n    }    \n\n    function getInstrumentSupplyIndex(address instrument_) external view returns (uint) {\n        if (financial_instruments[instrument_].isListed) { //\"The provided instrument address is not supported\");\n            return financial_instruments[instrument_].supplyindex;\n        }\n        return uint(0);\n    }\n\n    function getInstrumentBorrowIndex(address instrument_) external view returns (uint) {\n        if (financial_instruments[instrument_].isListed) { //,\"The provided instrument address is not supported\");\n            return financial_instruments[instrument_].borrowindex;\n        }\n        return uint(0);\n    }\n\n\n    function getMaxVolatilityProtocolLimit () external view returns (uint) {\n        return maxVolatilityProtocolLimit.mantissa;\n    } \n\n    function checkPriceSnapshots(address instrument_, uint clock) external view returns (uint256) {\n        return instrumentPriceCycles[instrument_].recordedPriceSnapshot[clock];\n    }\n    \n    function checkinitializationCounter(address instrument_) external view returns (uint32) {\n        return instrumentPriceCycles[instrument_].initializationCounter;\n    }\n\n    function getDeltaBlocksForSpeed() external view returns (uint) {\n        return deltaBlocksForSpeed;\n    }  \n\n    function getPrevSpeedRefreshBlock() external view returns (uint) {\n        return prevSpeedRefreshBlock;\n    }  \n\n    function getBlocksRemainingToNextSpeedRefresh() external view returns (uint) {\n        uint blocksElapsed = sub_(block.number,prevSpeedRefreshBlock); \n        if ( deltaBlocksForSpeed > blocksElapsed) {\n            return sub_(deltaBlocksForSpeed,blocksElapsed);\n        }\n        return uint(0);\n    }\n    \n    function getBlockNumber() public view returns (uint32) {\n        return uint32(block.number);\n    }\n    \n    \n\n}\n",
  "sourcePath": "/Users/apple/Desktop/GITCOIN/Sigh_Finance/SighFinanceContracts/contracts/SIGHFinanceContracts/SighDistributionHandler/SighDistributionHandler.sol",
  "compiler": {
    "name": "solc",
    "version": "0.5.16+commit.9c3226ce.Emscripten.clang"
  },
  "schemaVersion": "3.2.4",
  "updatedAt": "2020-12-03T08:10:19.745Z",
  "devdoc": {
    "methods": {
      "Instrument_SIGH_StateUpdated(address,uint256,uint256,bool)": {
        "details": "Instrument to be convered under the SIGH DIstribution Mechanism and the associated Volatility Limits - Decided by the SIGH Finance Manager who  can call this function through the Sigh Finance Configurator",
        "params": {
          "instrument_": "the instrument object*"
        }
      },
      "addInstrument(address,address,address,uint256)": {
        "details": "adds an instrument - Called by LendingPool Core when an instrument is added to the Lending Protocol",
        "params": {
          "_decimals": "the number of decimals of the underlying asset*",
          "_iTokenAddress": "the address of the overlying iToken contract",
          "_instrument": "the instrument object"
        }
      },
      "removeInstrument(address)": {
        "details": "removes an instrument - Called by LendingPool Core when an instrument is removed from the Lending Protocol",
        "params": {
          "_instrument": "the instrument object*"
        }
      },
      "transferSighTotheUser(address,address,uint256)": {
        "details": "Note: If there is not enough SIGH, we do not perform the transfer call.",
        "params": {
          "instrument": "The instrument for which the SIGH has been accured",
          "sigh_Amount": "The amount of SIGH to (possibly) transfer",
          "user": "The address of the user to transfer SIGH to"
        },
        "return": "The amount of SIGH which was NOT transferred to the user"
      },
      "updateDeltaBlocksForSpeedRefresh(uint256)": {
        "params": {
          "deltaBlocksLimit": "The new Minimum blocks limit"
        }
      },
      "updateSIGHBorrowIndex(address)": {
        "params": {
          "currentInstrument": "The market whose borrow index to update"
        }
      },
      "updateSIGHSpeed(uint256)": {
        "params": {
          "SIGHSpeed_": "The amount of SIGH wei per block to distribute"
        }
      },
      "updateSIGHSupplyIndex(address)": {
        "params": {
          "currentInstrument": "The Instrument whose supply index to update"
        }
      },
      "updateStakingSpeedForAnInstrument(address,uint256)": {
        "params": {
          "instrument_": "The instrument",
          "newStakingSpeed": "The additional SIGH staking speed assigned to the Instrument"
        }
      }
    }
  },
  "userdoc": {
    "methods": {
      "refreshSIGHSpeeds()": {
        "notice": "Recalculate and update SIGH speeds for all Supported SIGH markets"
      },
      "transferSighTotheUser(address,address,uint256)": {
        "notice": "Transfer SIGH to the user. Called by the corresponding IToken Contract of the instrument"
      },
      "updateDeltaBlocksForSpeedRefresh(uint256)": {
        "notice": "Updates the minimum blocks to be mined before speed can be refreshed again  - Decided by the SIGH Finance Manager who  can call this function through the Sigh Finance Configurator"
      },
      "updateSIGHBorrowIndex(address)": {
        "notice": "Accrue SIGH to the market by updating the borrow index"
      },
      "updateSIGHSpeed(uint256)": {
        "notice": "Sets the amount of Global SIGH distributed per block - - Decided by the SIGH Finance Manager who  can call this function through the Sigh Finance Configurator"
      },
      "updateSIGHSupplyIndex(address)": {
        "notice": "Accrue SIGH to the Instrument by updating the supply index"
      },
      "updateStakingSpeedForAnInstrument(address,uint256)": {
        "notice": "Sets the staking speed for an Instrument - Decided by the SIGH Finance Manager who  can call this function through the Sigh Finance Configurator"
      }
    }
  }
}