{
  "contractName": "SighFinanceConfigurator",
  "abi": [
    {
      "anonymous": false,
      "inputs": [
        {
          "indexed": true,
          "internalType": "address",
          "name": "_instrument",
          "type": "address"
        },
        {
          "indexed": true,
          "internalType": "address",
          "name": "_iToken",
          "type": "address"
        },
        {
          "indexed": false,
          "internalType": "address",
          "name": "_interestRateStrategyAddress",
          "type": "address"
        }
      ],
      "name": "InstrumentInitialized",
      "type": "event"
    },
    {
      "anonymous": false,
      "inputs": [
        {
          "indexed": true,
          "internalType": "address",
          "name": "_instrument",
          "type": "address"
        }
      ],
      "name": "InstrumentRemoved",
      "type": "event"
    },
    {
      "constant": true,
      "inputs": [],
      "name": "CONFIGURATOR_REVISION",
      "outputs": [
        {
          "internalType": "uint256",
          "name": "",
          "type": "uint256"
        }
      ],
      "payable": false,
      "stateMutability": "view",
      "type": "function"
    },
    {
      "constant": true,
      "inputs": [],
      "name": "globalAddressesProvider",
      "outputs": [
        {
          "internalType": "contract GlobalAddressesProvider",
          "name": "",
          "type": "address"
        }
      ],
      "payable": false,
      "stateMutability": "view",
      "type": "function"
    },
    {
      "constant": false,
      "inputs": [
        {
          "internalType": "contract GlobalAddressesProvider",
          "name": "_globalAddressesProvider",
          "type": "address"
        }
      ],
      "name": "initialize",
      "outputs": [],
      "payable": false,
      "stateMutability": "nonpayable",
      "type": "function"
    },
    {
      "constant": false,
      "inputs": [],
      "name": "beginDrippingFromSIGHSpeedController",
      "outputs": [
        {
          "internalType": "bool",
          "name": "",
          "type": "bool"
        }
      ],
      "payable": false,
      "stateMutability": "nonpayable",
      "type": "function"
    },
    {
      "constant": false,
      "inputs": [
        {
          "internalType": "address",
          "name": "newProtocolAddress",
          "type": "address"
        },
        {
          "internalType": "uint256",
          "name": "sighSpeed",
          "type": "uint256"
        }
      ],
      "name": "supportNewProtocolInSIGHSpeedController",
      "outputs": [
        {
          "internalType": "bool",
          "name": "",
          "type": "bool"
        }
      ],
      "payable": false,
      "stateMutability": "nonpayable",
      "type": "function"
    },
    {
      "constant": false,
      "inputs": [
        {
          "internalType": "address",
          "name": "protocolAddress_",
          "type": "address"
        }
      ],
      "name": "removeSupportedProtocolFromSIGHSpeedController",
      "outputs": [
        {
          "internalType": "bool",
          "name": "",
          "type": "bool"
        }
      ],
      "payable": false,
      "stateMutability": "nonpayable",
      "type": "function"
    },
    {
      "constant": false,
      "inputs": [
        {
          "internalType": "address",
          "name": "targetAddress",
          "type": "address"
        },
        {
          "internalType": "uint256",
          "name": "newSpeed_",
          "type": "uint256"
        }
      ],
      "name": "changeProtocolSIGHSpeedInSIGHSpeedController",
      "outputs": [
        {
          "internalType": "bool",
          "name": "",
          "type": "bool"
        }
      ],
      "payable": false,
      "stateMutability": "nonpayable",
      "type": "function"
    },
    {
      "constant": false,
      "inputs": [],
      "name": "refreshConfig",
      "outputs": [],
      "payable": false,
      "stateMutability": "nonpayable",
      "type": "function"
    },
    {
      "constant": false,
      "inputs": [
        {
          "internalType": "address",
          "name": "instrument_",
          "type": "address"
        }
      ],
      "name": "SIGH_the_instrument",
      "outputs": [
        {
          "internalType": "bool",
          "name": "",
          "type": "bool"
        }
      ],
      "payable": false,
      "stateMutability": "nonpayable",
      "type": "function"
    },
    {
      "constant": false,
      "inputs": [
        {
          "internalType": "address",
          "name": "instrument_",
          "type": "address"
        }
      ],
      "name": "UNsigh_instrument",
      "outputs": [
        {
          "internalType": "bool",
          "name": "",
          "type": "bool"
        }
      ],
      "payable": false,
      "stateMutability": "nonpayable",
      "type": "function"
    },
    {
      "constant": false,
      "inputs": [
        {
          "internalType": "uint256",
          "name": "newSighSpeed",
          "type": "uint256"
        }
      ],
      "name": "updateSIGHSpeed",
      "outputs": [
        {
          "internalType": "bool",
          "name": "",
          "type": "bool"
        }
      ],
      "payable": false,
      "stateMutability": "nonpayable",
      "type": "function"
    },
    {
      "constant": false,
      "inputs": [
        {
          "internalType": "address",
          "name": "instrument_",
          "type": "address"
        },
        {
          "internalType": "uint256",
          "name": "newStakingSpeed",
          "type": "uint256"
        }
      ],
      "name": "updateStakingSpeedForAnInstrument",
      "outputs": [
        {
          "internalType": "bool",
          "name": "",
          "type": "bool"
        }
      ],
      "payable": false,
      "stateMutability": "nonpayable",
      "type": "function"
    },
    {
      "constant": false,
      "inputs": [
        {
          "internalType": "bool",
          "name": "isActivated",
          "type": "bool"
        },
        {
          "internalType": "uint256",
          "name": "profitPercentage",
          "type": "uint256"
        }
      ],
      "name": "SpeedUpperCheckSwitch",
      "outputs": [
        {
          "internalType": "bool",
          "name": "",
          "type": "bool"
        }
      ],
      "payable": false,
      "stateMutability": "nonpayable",
      "type": "function"
    },
    {
      "constant": false,
      "inputs": [
        {
          "internalType": "uint256",
          "name": "deltaBlocksLimit",
          "type": "uint256"
        }
      ],
      "name": "updateDeltaBlocksForSpeedRefresh",
      "outputs": [
        {
          "internalType": "bool",
          "name": "",
          "type": "bool"
        }
      ],
      "payable": false,
      "stateMutability": "nonpayable",
      "type": "function"
    },
    {
      "constant": false,
      "inputs": [],
      "name": "refreshTreasuryConfig",
      "outputs": [],
      "payable": false,
      "stateMutability": "nonpayable",
      "type": "function"
    },
    {
      "constant": false,
      "inputs": [
        {
          "internalType": "uint256",
          "name": "val",
          "type": "uint256"
        }
      ],
      "name": "changeSIGHBurnAllowed",
      "outputs": [],
      "payable": false,
      "stateMutability": "nonpayable",
      "type": "function"
    },
    {
      "constant": false,
      "inputs": [
        {
          "internalType": "uint256",
          "name": "newSpeed",
          "type": "uint256"
        }
      ],
      "name": "updateSIGHBurnSpeed",
      "outputs": [],
      "payable": false,
      "stateMutability": "nonpayable",
      "type": "function"
    },
    {
      "constant": false,
      "inputs": [
        {
          "internalType": "address",
          "name": "targetAddress",
          "type": "address"
        },
        {
          "internalType": "address",
          "name": "instrumnetToBeDistributed",
          "type": "address"
        },
        {
          "internalType": "uint256",
          "name": "distributionSpeed",
          "type": "uint256"
        }
      ],
      "name": "initializeInstrumentDistribution",
      "outputs": [],
      "payable": false,
      "stateMutability": "nonpayable",
      "type": "function"
    },
    {
      "constant": false,
      "inputs": [
        {
          "internalType": "address",
          "name": "instrumentToBeDistributed",
          "type": "address"
        }
      ],
      "name": "changeInstrumentBeingDripped",
      "outputs": [],
      "payable": false,
      "stateMutability": "nonpayable",
      "type": "function"
    },
    {
      "constant": false,
      "inputs": [
        {
          "internalType": "uint256",
          "name": "newdistributionSpeed",
          "type": "uint256"
        }
      ],
      "name": "updateDripSpeed",
      "outputs": [],
      "payable": false,
      "stateMutability": "nonpayable",
      "type": "function"
    },
    {
      "constant": false,
      "inputs": [],
      "name": "resetInstrumentDistribution",
      "outputs": [],
      "payable": false,
      "stateMutability": "nonpayable",
      "type": "function"
    },
    {
      "constant": false,
      "inputs": [
        {
          "internalType": "address",
          "name": "instrument",
          "type": "address"
        }
      ],
      "name": "initializeInstrumentState",
      "outputs": [],
      "payable": false,
      "stateMutability": "nonpayable",
      "type": "function"
    },
    {
      "constant": false,
      "inputs": [
        {
          "internalType": "address",
          "name": "target",
          "type": "address"
        },
        {
          "internalType": "uint256",
          "name": "amount",
          "type": "uint256"
        }
      ],
      "name": "transferSighTo",
      "outputs": [
        {
          "internalType": "uint256",
          "name": "",
          "type": "uint256"
        }
      ],
      "payable": false,
      "stateMutability": "nonpayable",
      "type": "function"
    },
    {
      "constant": false,
      "inputs": [
        {
          "internalType": "address",
          "name": "instrument",
          "type": "address"
        },
        {
          "internalType": "uint256",
          "name": "speed",
          "type": "uint256"
        }
      ],
      "name": "supportNewInstrumentForDistribution",
      "outputs": [],
      "payable": false,
      "stateMutability": "nonpayable",
      "type": "function"
    },
    {
      "constant": false,
      "inputs": [
        {
          "internalType": "address",
          "name": "instrument",
          "type": "address"
        },
        {
          "internalType": "uint256",
          "name": "speed",
          "type": "uint256"
        }
      ],
      "name": "setDistributionSpeedForStakingReward",
      "outputs": [],
      "payable": false,
      "stateMutability": "nonpayable",
      "type": "function"
    },
    {
      "constant": false,
      "inputs": [
        {
          "internalType": "uint256",
          "name": "amount",
          "type": "uint256"
        }
      ],
      "name": "updateMaxSighThatCanBeStaked",
      "outputs": [],
      "payable": false,
      "stateMutability": "nonpayable",
      "type": "function"
    }
  ],
  "bytecode": "0x60806040526000805534801561001457600080fd5b50613517806100246000396000f3fe608060405234801561001057600080fd5b506004361061018e5760003560e01c80637c55ccb3116100de5780639f7ee98f11610097578063c4d66de811610071578063c4d66de81461047c578063d3ec44a3146104a2578063e0ae645f146104ce578063fc5e11c3146104d65761018e565b80639f7ee98f14610404578063a84d78981461042a578063c11b2576146104565761018e565b80637c55ccb31461038457806383284f4a1461038c578063832c6c90146103945780638e5391b4146103b9578063980f795a146103c15780639ee3abea146103e75761018e565b80632df0f9a91161014b57806359a8f0181161012557806359a8f018146102fa5780636089fee91461031757806360c65900146103345780637af635a61461036a5761018e565b80632df0f9a91461028557806334876fab146102a25780634f4b7542146102ce5761018e565b80630219b9c51461019357806304c66321146101b75780631c252db1146101f75780631e7faed9146102165780632bd94704146102335780632cfa208f1461025f575b600080fd5b61019b6104fc565b604080516001600160a01b039092168252519081900360200190f35b6101e3600480360360408110156101cd57600080fd5b506001600160a01b03813516906020013561050b565b604080519115158252519081900360200190f35b6102146004803603602081101561020d57600080fd5b503561070e565b005b6101e36004803603602081101561022c57600080fd5b50356108ec565b6102146004803603604081101561024957600080fd5b506001600160a01b038135169060200135610ae5565b6101e36004803603602081101561027557600080fd5b50356001600160a01b0316610ccd565b6101e36004803603602081101561029b57600080fd5b5035610ebf565b6101e3600480360360408110156102b857600080fd5b506001600160a01b0381351690602001356110af565b6101e3600480360360408110156102e457600080fd5b506001600160a01b0381351690602001356112a8565b6102146004803603602081101561031057600080fd5b50356114a1565b6102146004803603602081101561032d57600080fd5b503561167b565b6102146004803603606081101561034a57600080fd5b506001600160a01b0381358116916020810135909116906040013561181e565b610372611a08565b60408051918252519081900360200190f35b610214611a0d565b6101e3611b93565b6101e3600480360360408110156103aa57600080fd5b50803515159060200135611d84565b610214611f7c565b6101e3600480360360208110156103d757600080fd5b50356001600160a01b031661215c565b610214600480360360208110156103fd57600080fd5b5035612350565b6101e36004803603602081101561041a57600080fd5b50356001600160a01b0316612540565b6102146004803603604081101561044057600080fd5b506001600160a01b038135169060200135612732565b6102146004803603602081101561046c57600080fd5b50356001600160a01b0316612915565b6102146004803603602081101561049257600080fd5b50356001600160a01b0316612b07565b610372600480360360408110156104b857600080fd5b506001600160a01b038135169060200135612bbe565b610214612d87565b610214600480360360208110156104ec57600080fd5b50356001600160a01b0316612f5a565b6034546001600160a01b031681565b6000336001600160a01b0316603460009054906101000a90046001600160a01b03166001600160a01b031663878543546040518163ffffffff1660e01b815260040160206040518083038186803b15801561056557600080fd5b505afa158015610579573d6000803e3d6000fd5b505050506040513d602081101561058f57600080fd5b50516001600160a01b0316146105d65760405162461bcd60e51b815260040180806020018281038252602d8152602001806134b6602d913960400191505060405180910390fd5b6034546040805163a0375c6d60e01b815290516000926001600160a01b03169163a0375c6d916004808301926020929190829003018186803b15801561061b57600080fd5b505afa15801561062f573d6000803e3d6000fd5b505050506040513d602081101561064557600080fd5b5051604080516304c6632160e01b81526001600160a01b038781166004830152602482018790529151929350908316916304c66321916044808201926020929091908290030181600087803b15801561069d57600080fd5b505af11580156106b1573d6000803e3d6000fd5b505050506040513d60208110156106c757600080fd5b50516107045760405162461bcd60e51b81526004018080602001828103825260358152602001806132376035913960400191505060405180910390fd5b5060019392505050565b603454604080516321e150d560e21b8152905133926001600160a01b0316916387854354916004808301926020929190829003018186803b15801561075257600080fd5b505afa158015610766573d6000803e3d6000fd5b505050506040513d602081101561077c57600080fd5b50516001600160a01b0316146107c35760405162461bcd60e51b815260040180806020018281038252602d8152602001806134b6602d913960400191505060405180910390fd5b6034546040805163167984c360e21b815290516000926001600160a01b0316916359e6130c916004808301926020929190829003018186803b15801561080857600080fd5b505afa15801561081c573d6000803e3d6000fd5b505050506040513d602081101561083257600080fd5b505160408051631c252db160e01b81526004810185905290519192506001600160a01b03831691631c252db1916024808201926020929091908290030181600087803b15801561088157600080fd5b505af1158015610895573d6000803e3d6000fd5b505050506040513d60208110156108ab57600080fd5b50516108e85760405162461bcd60e51b81526004018080602001828103825260308152602001806133c06030913960400191505060405180910390fd5b5050565b6000336001600160a01b0316603460009054906101000a90046001600160a01b03166001600160a01b031663878543546040518163ffffffff1660e01b815260040160206040518083038186803b15801561094657600080fd5b505afa15801561095a573d6000803e3d6000fd5b505050506040513d602081101561097057600080fd5b50516001600160a01b0316146109b75760405162461bcd60e51b815260040180806020018281038252602d8152602001806134b6602d913960400191505060405180910390fd5b6034546040805163a0375c6d60e01b815290516000926001600160a01b03169163a0375c6d916004808301926020929190829003018186803b1580156109fc57600080fd5b505afa158015610a10573d6000803e3d6000fd5b505050506040513d6020811015610a2657600080fd5b505160408051631e7faed960e01b81526004810186905290519192506001600160a01b03831691631e7faed9916024808201926020929091908290030181600087803b158015610a7557600080fd5b505af1158015610a89573d6000803e3d6000fd5b505050506040513d6020811015610a9f57600080fd5b5051610adc5760405162461bcd60e51b81526004018080602001828103825260348152602001806134826034913960400191505060405180910390fd5b50600192915050565b603454604080516321e150d560e21b8152905133926001600160a01b0316916387854354916004808301926020929190829003018186803b158015610b2957600080fd5b505afa158015610b3d573d6000803e3d6000fd5b505050506040513d6020811015610b5357600080fd5b50516001600160a01b031614610b9a5760405162461bcd60e51b815260040180806020018281038252602d8152602001806134b6602d913960400191505060405180910390fd5b60345460408051631db4f56960e01b815290516000926001600160a01b031691631db4f569916004808301926020929190829003018186803b158015610bdf57600080fd5b505afa158015610bf3573d6000803e3d6000fd5b505050506040513d6020811015610c0957600080fd5b50516040805163352eb5f760e11b81526001600160a01b03868116600483015260248201869052915192935090831691636a5d6bee916044808201926020929091908290030181600087803b158015610c6157600080fd5b505af1158015610c75573d6000803e3d6000fd5b505050506040513d6020811015610c8b57600080fd5b5051610cc85760405162461bcd60e51b815260040180806020018281038252603a815260200180613448603a913960400191505060405180910390fd5b505050565b6000336001600160a01b0316603460009054906101000a90046001600160a01b03166001600160a01b031663878543546040518163ffffffff1660e01b815260040160206040518083038186803b158015610d2757600080fd5b505afa158015610d3b573d6000803e3d6000fd5b505050506040513d6020811015610d5157600080fd5b50516001600160a01b031614610d985760405162461bcd60e51b815260040180806020018281038252602d8152602001806134b6602d913960400191505060405180910390fd5b6034546040805163a0375c6d60e01b815290516000926001600160a01b03169163a0375c6d916004808301926020929190829003018186803b158015610ddd57600080fd5b505afa158015610df1573d6000803e3d6000fd5b505050506040513d6020811015610e0757600080fd5b505160408051634f78deef60e01b81526001600160a01b038681166004830152915192935090831691634f78deef916024808201926020929091908290030181600087803b158015610e5857600080fd5b505af1158015610e6c573d6000803e3d6000fd5b505050506040513d6020811015610e8257600080fd5b5051610adc5760405162461bcd60e51b81526004018080602001828103825260278152602001806131c36027913960400191505060405180910390fd5b6000336001600160a01b0316603460009054906101000a90046001600160a01b03166001600160a01b031663878543546040518163ffffffff1660e01b815260040160206040518083038186803b158015610f1957600080fd5b505afa158015610f2d573d6000803e3d6000fd5b505050506040513d6020811015610f4357600080fd5b50516001600160a01b031614610f8a5760405162461bcd60e51b815260040180806020018281038252602d8152602001806134b6602d913960400191505060405180910390fd5b6034546040805163a0375c6d60e01b815290516000926001600160a01b03169163a0375c6d916004808301926020929190829003018186803b158015610fcf57600080fd5b505afa158015610fe3573d6000803e3d6000fd5b505050506040513d6020811015610ff957600080fd5b505160408051632df0f9a960e01b81526004810186905290519192506001600160a01b03831691632df0f9a9916024808201926020929091908290030181600087803b15801561104857600080fd5b505af115801561105c573d6000803e3d6000fd5b505050506040513d602081101561107257600080fd5b5051610adc5760405162461bcd60e51b81526004018080602001828103825260238152602001806132146023913960400191505060405180910390fd5b6000336001600160a01b0316603460009054906101000a90046001600160a01b03166001600160a01b031663878543546040518163ffffffff1660e01b815260040160206040518083038186803b15801561110957600080fd5b505afa15801561111d573d6000803e3d6000fd5b505050506040513d602081101561113357600080fd5b50516001600160a01b03161461117a5760405162461bcd60e51b815260040180806020018281038252602d8152602001806134b6602d913960400191505060405180910390fd5b6034546040805163ab3802cb60e01b815290516000926001600160a01b03169163ab3802cb916004808301926020929190829003018186803b1580156111bf57600080fd5b505afa1580156111d3573d6000803e3d6000fd5b505050506040513d60208110156111e957600080fd5b505160408051630b919fdb60e31b81526001600160a01b03878116600483015260248201879052915192935090831691635c8cfed8916044808201926020929091908290030181600087803b15801561124157600080fd5b505af1158015611255573d6000803e3d6000fd5b505050506040513d602081101561126b57600080fd5b50516107045760405162461bcd60e51b81526004018080602001828103825260498152602001806131426049913960600191505060405180910390fd5b6000336001600160a01b0316603460009054906101000a90046001600160a01b03166001600160a01b031663878543546040518163ffffffff1660e01b815260040160206040518083038186803b15801561130257600080fd5b505afa158015611316573d6000803e3d6000fd5b505050506040513d602081101561132c57600080fd5b50516001600160a01b0316146113735760405162461bcd60e51b815260040180806020018281038252602d8152602001806134b6602d913960400191505060405180910390fd5b6034546040805163ab3802cb60e01b815290516000926001600160a01b03169163ab3802cb916004808301926020929190829003018186803b1580156113b857600080fd5b505afa1580156113cc573d6000803e3d6000fd5b505050506040513d60208110156113e257600080fd5b5051604080516318cfbb1160e21b81526001600160a01b0387811660048301526024820187905291519293509083169163633eec44916044808201926020929091908290030181600087803b15801561143a57600080fd5b505af115801561144e573d6000803e3d6000fd5b505050506040513d602081101561146457600080fd5b50516107045760405162461bcd60e51b815260040180806020018281038252603681526020018061338a6036913960400191505060405180910390fd5b603454604080516321e150d560e21b8152905133926001600160a01b0316916387854354916004808301926020929190829003018186803b1580156114e557600080fd5b505afa1580156114f9573d6000803e3d6000fd5b505050506040513d602081101561150f57600080fd5b50516001600160a01b0316146115565760405162461bcd60e51b815260040180806020018281038252602d8152602001806134b6602d913960400191505060405180910390fd5b60345460408051631db4f56960e01b815290516000926001600160a01b031691631db4f569916004808301926020929190829003018186803b15801561159b57600080fd5b505afa1580156115af573d6000803e3d6000fd5b505050506040513d60208110156115c557600080fd5b505160408051630b351e0360e31b81526004810185905290519192506001600160a01b038316916359a8f018916024808201926020929091908290030181600087803b15801561161457600080fd5b505af1158015611628573d6000803e3d6000fd5b505050506040513d602081101561163e57600080fd5b50516108e85760405162461bcd60e51b815260040180806020018281038252602a8152602001806131ea602a913960400191505060405180910390fd5b603454604080516321e150d560e21b8152905133926001600160a01b0316916387854354916004808301926020929190829003018186803b1580156116bf57600080fd5b505afa1580156116d3573d6000803e3d6000fd5b505050506040513d60208110156116e957600080fd5b50516001600160a01b0316146117305760405162461bcd60e51b815260040180806020018281038252602d8152602001806134b6602d913960400191505060405180910390fd5b6034546040805163167984c360e21b815290516000926001600160a01b0316916359e6130c916004808301926020929190829003018186803b15801561177557600080fd5b505afa158015611789573d6000803e3d6000fd5b505050506040513d602081101561179f57600080fd5b505160408051636089fee960e01b81526004810185905290519192506001600160a01b03831691636089fee9916024808201926020929091908290030181600087803b1580156117ee57600080fd5b505af1158015611802573d6000803e3d6000fd5b505050506040513d602081101561181857600080fd5b50505050565b603454604080516321e150d560e21b8152905133926001600160a01b0316916387854354916004808301926020929190829003018186803b15801561186257600080fd5b505afa158015611876573d6000803e3d6000fd5b505050506040513d602081101561188c57600080fd5b50516001600160a01b0316146118d35760405162461bcd60e51b815260040180806020018281038252602d8152602001806134b6602d913960400191505060405180910390fd5b6034546040805163167984c360e21b815290516000926001600160a01b0316916359e6130c916004808301926020929190829003018186803b15801561191857600080fd5b505afa15801561192c573d6000803e3d6000fd5b505050506040513d602081101561194257600080fd5b5051604080516260c65960e81b81526001600160a01b0387811660048301528681166024830152604482018690529151929350908316916360c65900916064808201926020929091908290030181600087803b1580156119a157600080fd5b505af11580156119b5573d6000803e3d6000fd5b505050506040513d60208110156119cb57600080fd5b50516118185760405162461bcd60e51b81526004018080602001828103825260278152602001806133246027913960400191505060405180910390fd5b600181565b603454604080516321e150d560e21b8152905133926001600160a01b0316916387854354916004808301926020929190829003018186803b158015611a5157600080fd5b505afa158015611a65573d6000803e3d6000fd5b505050506040513d6020811015611a7b57600080fd5b50516001600160a01b031614611ac25760405162461bcd60e51b815260040180806020018281038252602d8152602001806134b6602d913960400191505060405180910390fd5b6034546040805163a0375c6d60e01b815290516000926001600160a01b03169163a0375c6d916004808301926020929190829003018186803b158015611b0757600080fd5b505afa158015611b1b573d6000803e3d6000fd5b505050506040513d6020811015611b3157600080fd5b505160408051637c55ccb360e01b815290519192506001600160a01b03831691637c55ccb39160048082019260009290919082900301818387803b158015611b7857600080fd5b505af1158015611b8c573d6000803e3d6000fd5b5050505050565b6000336001600160a01b0316603460009054906101000a90046001600160a01b03166001600160a01b031663878543546040518163ffffffff1660e01b815260040160206040518083038186803b158015611bed57600080fd5b505afa158015611c01573d6000803e3d6000fd5b505050506040513d6020811015611c1757600080fd5b50516001600160a01b031614611c5e5760405162461bcd60e51b815260040180806020018281038252602d8152602001806134b6602d913960400191505060405180910390fd5b6034546040805163ab3802cb60e01b815290516000926001600160a01b03169163ab3802cb916004808301926020929190829003018186803b158015611ca357600080fd5b505afa158015611cb7573d6000803e3d6000fd5b505050506040513d6020811015611ccd57600080fd5b505160408051631e2c48b760e21b815290519192506001600160a01b038316916378b122dc916004808201926020929091908290030181600087803b158015611d1557600080fd5b505af1158015611d29573d6000803e3d6000fd5b505050506040513d6020811015611d3f57600080fd5b5051611d7c5760405162461bcd60e51b815260040180806020018281038252603f81526020018061334b603f913960400191505060405180910390fd5b600191505090565b6000336001600160a01b0316603460009054906101000a90046001600160a01b03166001600160a01b031663878543546040518163ffffffff1660e01b815260040160206040518083038186803b158015611dde57600080fd5b505afa158015611df2573d6000803e3d6000fd5b505050506040513d6020811015611e0857600080fd5b50516001600160a01b031614611e4f5760405162461bcd60e51b815260040180806020018281038252602d8152602001806134b6602d913960400191505060405180910390fd5b6034546040805163a0375c6d60e01b815290516000926001600160a01b03169163a0375c6d916004808301926020929190829003018186803b158015611e9457600080fd5b505afa158015611ea8573d6000803e3d6000fd5b505050506040513d6020811015611ebe57600080fd5b505160408051630832c6c960e41b815286151560048201526024810186905290519192506001600160a01b0383169163832c6c90916044808201926020929091908290030181600087803b158015611f1557600080fd5b505af1158015611f29573d6000803e3d6000fd5b505050506040513d6020811015611f3f57600080fd5b50516107045760405162461bcd60e51b81526004018080602001828103825260298152602001806132cd6029913960400191505060405180910390fd5b603454604080516321e150d560e21b8152905133926001600160a01b0316916387854354916004808301926020929190829003018186803b158015611fc057600080fd5b505afa158015611fd4573d6000803e3d6000fd5b505050506040513d6020811015611fea57600080fd5b50516001600160a01b0316146120315760405162461bcd60e51b815260040180806020018281038252602d8152602001806134b6602d913960400191505060405180910390fd5b6034546040805163167984c360e21b815290516000926001600160a01b0316916359e6130c916004808301926020929190829003018186803b15801561207657600080fd5b505afa15801561208a573d6000803e3d6000fd5b505050506040513d60208110156120a057600080fd5b505160408051637c55ccb360e01b815290519192506001600160a01b03831691637c55ccb3916004808201926020929091908290030181600087803b1580156120e857600080fd5b505af11580156120fc573d6000803e3d6000fd5b505050506040513d602081101561211257600080fd5b5051612159576040805162461bcd60e51b815260206004820152601160248201527008cc2d2d8cac840e8de40e4cacce4cae6d607b1b604482015290519081900360640190fd5b50565b6000336001600160a01b0316603460009054906101000a90046001600160a01b03166001600160a01b031663878543546040518163ffffffff1660e01b815260040160206040518083038186803b1580156121b657600080fd5b505afa1580156121ca573d6000803e3d6000fd5b505050506040513d60208110156121e057600080fd5b50516001600160a01b0316146122275760405162461bcd60e51b815260040180806020018281038252602d8152602001806134b6602d913960400191505060405180910390fd5b6034546040805163a0375c6d60e01b815290516000926001600160a01b03169163a0375c6d916004808301926020929190829003018186803b15801561226c57600080fd5b505afa158015612280573d6000803e3d6000fd5b505050506040513d602081101561229657600080fd5b505160408051600161280560e01b031981526001600160a01b03868116600483015291519293509083169163ffffd7fb916024808201926020929091908290030181600087803b1580156122e957600080fd5b505af11580156122fd573d6000803e3d6000fd5b505050506040513d602081101561231357600080fd5b5051610adc5760405162461bcd60e51b81526004018080602001828103825260258152602001806133f06025913960400191505060405180910390fd5b603454604080516321e150d560e21b8152905133926001600160a01b0316916387854354916004808301926020929190829003018186803b15801561239457600080fd5b505afa1580156123a8573d6000803e3d6000fd5b505050506040513d60208110156123be57600080fd5b50516001600160a01b0316146124055760405162461bcd60e51b815260040180806020018281038252602d8152602001806134b6602d913960400191505060405180910390fd5b6034546040805163167984c360e21b815290516000926001600160a01b0316916359e6130c916004808301926020929190829003018186803b15801561244a57600080fd5b505afa15801561245e573d6000803e3d6000fd5b505050506040513d602081101561247457600080fd5b505160408051634f71d5f560e11b81526004810185905290519192506001600160a01b03831691639ee3abea916024808201926020929091908290030181600087803b1580156124c357600080fd5b505af11580156124d7573d6000803e3d6000fd5b505050506040513d60208110156124ed57600080fd5b50516108e8576040805162461bcd60e51b815260206004820181905260248201527f4661696c656420746f207570646174652053494748206275726e207370656564604482015290519081900360640190fd5b6000336001600160a01b0316603460009054906101000a90046001600160a01b03166001600160a01b031663878543546040518163ffffffff1660e01b815260040160206040518083038186803b15801561259a57600080fd5b505afa1580156125ae573d6000803e3d6000fd5b505050506040513d60208110156125c457600080fd5b50516001600160a01b03161461260b5760405162461bcd60e51b815260040180806020018281038252602d8152602001806134b6602d913960400191505060405180910390fd5b6034546040805163ab3802cb60e01b815290516000926001600160a01b03169163ab3802cb916004808301926020929190829003018186803b15801561265057600080fd5b505afa158015612664573d6000803e3d6000fd5b505050506040513d602081101561267a57600080fd5b505160408051638438cc2360e01b81526001600160a01b038681166004830152915192935090831691638438cc23916024808201926020929091908290030181600087803b1580156126cb57600080fd5b505af11580156126df573d6000803e3d6000fd5b505050506040513d60208110156126f557600080fd5b5051610adc5760405162461bcd60e51b81526004018080602001828103825260348152602001806132996034913960400191505060405180910390fd5b603454604080516321e150d560e21b8152905133926001600160a01b0316916387854354916004808301926020929190829003018186803b15801561277657600080fd5b505afa15801561278a573d6000803e3d6000fd5b505050506040513d60208110156127a057600080fd5b50516001600160a01b0316146127e75760405162461bcd60e51b815260040180806020018281038252602d8152602001806134b6602d913960400191505060405180910390fd5b60345460408051631db4f56960e01b815290516000926001600160a01b031691631db4f569916004808301926020929190829003018186803b15801561282c57600080fd5b505afa158015612840573d6000803e3d6000fd5b505050506040513d602081101561285657600080fd5b505160408051631509af1360e31b81526001600160a01b0386811660048301526024820186905291519293509083169163a84d7898916044808201926020929091908290030181600087803b1580156128ae57600080fd5b505af11580156128c2573d6000803e3d6000fd5b505050506040513d60208110156128d857600080fd5b5051610cc85760405162461bcd60e51b815260040180806020018281038252603881526020018061318b6038913960400191505060405180910390fd5b603454604080516321e150d560e21b8152905133926001600160a01b0316916387854354916004808301926020929190829003018186803b15801561295957600080fd5b505afa15801561296d573d6000803e3d6000fd5b505050506040513d602081101561298357600080fd5b50516001600160a01b0316146129ca5760405162461bcd60e51b815260040180806020018281038252602d8152602001806134b6602d913960400191505060405180910390fd5b6034546040805163167984c360e21b815290516000926001600160a01b0316916359e6130c916004808301926020929190829003018186803b158015612a0f57600080fd5b505afa158015612a23573d6000803e3d6000fd5b505050506040513d6020811015612a3957600080fd5b50516040805163608d92bb60e11b81526001600160a01b03858116600483015291519293509083169163c11b2576916024808201926020929091908290030181600087803b158015612a8a57600080fd5b505af1158015612a9e573d6000803e3d6000fd5b505050506040513d6020811015612ab457600080fd5b50516108e8576040805162461bcd60e51b815260206004820181905260248201527f496e737472756d656e7420696e697469616c697a6174696f6e206661696c6564604482015290519081900360640190fd5b6000612b11613136565b60015490915060ff1680612b285750612b2861313b565b80612b34575060005481115b612b6f5760405162461bcd60e51b815260040180806020018281038252602e8152602001806132f6602e913960400191505060405180910390fd5b60015460ff16158015612b8e576001805460ff19168117905560008290555b603480546001600160a01b0319166001600160a01b0385161790558015610cc8576001805460ff19169055505050565b6000336001600160a01b0316603460009054906101000a90046001600160a01b03166001600160a01b031663878543546040518163ffffffff1660e01b815260040160206040518083038186803b158015612c1857600080fd5b505afa158015612c2c573d6000803e3d6000fd5b505050506040513d6020811015612c4257600080fd5b50516001600160a01b031614612c895760405162461bcd60e51b815260040180806020018281038252602d8152602001806134b6602d913960400191505060405180910390fd5b6034546040805163167984c360e21b815290516000926001600160a01b0316916359e6130c916004808301926020929190829003018186803b158015612cce57600080fd5b505afa158015612ce2573d6000803e3d6000fd5b505050506040513d6020811015612cf857600080fd5b50516040805163d3ec44a360e01b81526001600160a01b0387811660048301526024820187905291519293506000929184169163d3ec44a39160448082019260209290919082900301818787803b158015612d5257600080fd5b505af1158015612d66573d6000803e3d6000fd5b505050506040513d6020811015612d7c57600080fd5b505195945050505050565b603454604080516321e150d560e21b8152905133926001600160a01b0316916387854354916004808301926020929190829003018186803b158015612dcb57600080fd5b505afa158015612ddf573d6000803e3d6000fd5b505050506040513d6020811015612df557600080fd5b50516001600160a01b031614612e3c5760405162461bcd60e51b815260040180806020018281038252602d8152602001806134b6602d913960400191505060405180910390fd5b6034546040805163167984c360e21b815290516000926001600160a01b0316916359e6130c916004808301926020929190829003018186803b158015612e8157600080fd5b505afa158015612e95573d6000803e3d6000fd5b505050506040513d6020811015612eab57600080fd5b50516040805163e0ae645f60e01b815290519192506001600160a01b0383169163e0ae645f916004808201926020929091908290030181600087803b158015612ef357600080fd5b505af1158015612f07573d6000803e3d6000fd5b505050506040513d6020811015612f1d57600080fd5b50516121595760405162461bcd60e51b815260040180806020018281038252602d81526020018061326c602d913960400191505060405180910390fd5b603454604080516321e150d560e21b8152905133926001600160a01b0316916387854354916004808301926020929190829003018186803b158015612f9e57600080fd5b505afa158015612fb2573d6000803e3d6000fd5b505050506040513d6020811015612fc857600080fd5b50516001600160a01b03161461300f5760405162461bcd60e51b815260040180806020018281038252602d8152602001806134b6602d913960400191505060405180910390fd5b6034546040805163167984c360e21b815290516000926001600160a01b0316916359e6130c916004808301926020929190829003018186803b15801561305457600080fd5b505afa158015613068573d6000803e3d6000fd5b505050506040513d602081101561307e57600080fd5b50516040805163fc5e11c360e01b81526001600160a01b03858116600483015291519293509083169163fc5e11c3916024808201926020929091908290030181600087803b1580156130cf57600080fd5b505af11580156130e3573d6000803e3d6000fd5b505050506040513d60208110156130f957600080fd5b50516108e85760405162461bcd60e51b81526004018080602001828103825260338152602001806134156033913960400191505060405180910390fd5b600190565b303b159056fe2050726f746f636f6c205349474820446973747269627574696f6e2073706565642075706461746520696e205349474820537065656420436f6e74726f6c6c6572206661696c65642e4164646974696f6e206f66206e657720696e737472756d656e742061732053494748205374616b696e6720726577617264206661696c6564496e737472756d656e745f554e534947486564282920657865637574696f6e206661696c65642e5570646174696e67204d6178696d756d2053494748205374616b696e67206c696d6974206661696c6564757064617465534947485370656564282920657865637574696f6e206661696c65642e7570646174655374616b696e675370656564466f72416e496e737472756d656e74282920657865637574696f6e206661696c65642e526573657420496e737472756d656e7420646973747269627574696f6e2066756e6374696f6e206661696c65642050726f746f636f6c2072656d6f76616c2066726f6d205349474820537065656420436f6e74726f6c6c6572206661696c65642e53706565645570706572436865636b537769746368282920657865637574696f6e206661696c65642e436f6e747261637420696e7374616e63652068617320616c7265616479206265656e20696e697469616c697a6564496e737472756d656e7420446973747269627574696f6e2066756e6374696f6e206661696c656453494748204472697070696e6720696e697469616c697a6174696f6e2066726f6d205349474820537065656420436f6e74726f6c6c6572206661696c65642e4e65772050726f746f636f6c206164646974696f6e20746f205349474820537065656420436f6e74726f6c6c6572206661696c65642e4368616e676520496e737472756d656e74206472697070696e672073706565642066756e6374696f6e206661696c6564496e737472756d656e745f534947486564282920657865637574696f6e206661696c65642e4368616e676520496e737472756d656e74206265696e672044697374726962757465642066756e6374696f6e206661696c65645570646174696e6720646973747269627574696f6e20737065656420666f722053494748205374616b696e6720726577617264206661696c656475706461746544656c7461426c6f636b73466f72537065656452656672657368282920657865637574696f6e206661696c65642e5468652063616c6c6572206d757374206265207468652053494748204d656368616e69736d204d616e61676572a265627a7a72315820e7596ee50fbdf730c2ff6b3823a90e954ed1a5644f7e4c3391993708a984059464736f6c63430005100032",
  "source": "pragma solidity ^0.5.0;\n\nimport \"openzeppelin-solidity/contracts/math/SafeMath.sol\";\nimport \"openzeppelin-solidity/contracts/token/ERC20/ERC20Detailed.sol\";\nimport \"../openzeppelin-upgradeability/VersionedInitializable.sol\";\n\nimport \"../configuration/GlobalAddressesProvider.sol\";\nimport \"./Interfaces/ISighDistributionHandler.sol\";\nimport \"./Interfaces/ISighTreasury.sol\";\nimport \"./Interfaces/ISighStaking.sol\";\nimport \"./Interfaces/ISighSpeedController.sol\";\n\n/**\n* @title SighFinanceConfigurator contract\n* @author SIGH Finance\n* @notice Executes configuration methods for SIGH FINANCE contract, SIGHDistributionHandler and the SighStaking Contract\n* to efficiently regulate the SIGH economics\n**/\n\ncontract SighFinanceConfigurator is VersionedInitializable {\n\n    using SafeMath for uint256;\n    GlobalAddressesProvider public globalAddressesProvider;\n\n// ######################\n// ####### EVENTS #######\n// ######################\n\n    /**\n    * @dev emitted when a instrument is initialized.\n    * @param _instrument the address of the instrument\n    * @param _iToken the address of the overlying iToken contract\n    * @param _interestRateStrategyAddress the address of the interest rate strategy for the instrument\n    **/\n    event InstrumentInitialized( address indexed _instrument, address indexed _iToken, address _interestRateStrategyAddress );\n    event InstrumentRemoved( address indexed _instrument);      // emitted when a instrument is removed.\n\n\n// #############################\n// ####### PROXY RELATED #######\n// #############################\n\n    uint256 public constant CONFIGURATOR_REVISION = 0x1;\n\n    function getRevision() internal pure returns (uint256) {\n        return CONFIGURATOR_REVISION;\n    }\n\n    function initialize(GlobalAddressesProvider _globalAddressesProvider) public initializer {\n        globalAddressesProvider = _globalAddressesProvider;\n    }\n\n// ########################\n// ####### MODIFIER #######\n// ########################\n    /**\n    * @dev only the lending pool manager can call functions affected by this modifier\n    **/\n    modifier onlySIGHFinanceManager {\n        require( globalAddressesProvider.getSIGHFinanceManager() == msg.sender, \"The caller must be the SIGH Mechanism Manager\" );\n        _;\n    }\n\n\n// #################################################\n// ####### SIGH SPEED CONTROLLER FUNCTIONS #########\n// #################################################\n\n    function beginDrippingFromSIGHSpeedController() external onlySIGHFinanceManager returns (bool) { \n        ISighSpeedController sigh_speed_Controller = ISighSpeedController( globalAddressesProvider.getSIGHSpeedController() );\n        require(sigh_speed_Controller.beginDripping(), \"SIGH Dripping initialization from SIGH Speed Controller failed.\" );\n        return true;\n    }\n\n    function supportNewProtocolInSIGHSpeedController( address newProtocolAddress, uint sighSpeed ) external onlySIGHFinanceManager returns (bool) { \n        ISighSpeedController sigh_speed_Controller = ISighSpeedController( globalAddressesProvider.getSIGHSpeedController() );\n        require(sigh_speed_Controller.supportNewProtocol(newProtocolAddress, sighSpeed), \"New Protocol addition to SIGH Speed Controller failed.\" );\n        return true;\n    }\n    \n    function removeSupportedProtocolFromSIGHSpeedController(address protocolAddress_) external onlySIGHFinanceManager returns (bool) { \n        ISighSpeedController sigh_speed_Controller = ISighSpeedController( globalAddressesProvider.getSIGHSpeedController() );\n        require(sigh_speed_Controller.removeSupportedProtocol(protocolAddress_), \" Protocol removal from SIGH Speed Controller failed.\" );\n        return true;\n    }    \n\n    function changeProtocolSIGHSpeedInSIGHSpeedController(address targetAddress, uint newSpeed_) external onlySIGHFinanceManager returns (bool) { \n        ISighSpeedController sigh_speed_Controller = ISighSpeedController( globalAddressesProvider.getSIGHSpeedController() );\n        require(sigh_speed_Controller.changeProtocolSIGHSpeed(targetAddress, newSpeed_), \" Protocol SIGH Distribution speed update in SIGH Speed Controller failed.\" );\n        return true;\n    }    \n\n\n// #####################################################\n// ####### SIGH DISTRIBUTION HANDLER FUNCTIONS #########\n// #####################################################\n\n    function refreshConfig() external onlySIGHFinanceManager  { \n        ISighDistributionHandler sigh_distribution_mechanism = ISighDistributionHandler( globalAddressesProvider.getSIGHMechanismHandler() );\n        sigh_distribution_mechanism.refreshConfig() ;\n    }\n\n    function SIGH_the_instrument(address instrument_) external onlySIGHFinanceManager returns (bool) { \n        ISighDistributionHandler sigh_distribution_mechanism = ISighDistributionHandler( globalAddressesProvider.getSIGHMechanismHandler() );\n        require(sigh_distribution_mechanism.Instrument_SIGHed( instrument_ ), \"Instrument_SIGHed() execution failed.\" );\n        return true;\n    }\n\n    function UNsigh_instrument(address instrument_) external onlySIGHFinanceManager returns (bool) { \n        ISighDistributionHandler sigh_distribution_mechanism = ISighDistributionHandler( globalAddressesProvider.getSIGHMechanismHandler() );\n        require(sigh_distribution_mechanism.Instrument_UNSIGHed( instrument_ ), \"Instrument_UNSIGHed() execution failed.\" );\n        return true;\n    }\n\n    function updateSIGHSpeed(uint newSighSpeed) external onlySIGHFinanceManager returns (bool) { \n        ISighDistributionHandler sigh_distribution_mechanism = ISighDistributionHandler( globalAddressesProvider.getSIGHMechanismHandler() );\n        require(sigh_distribution_mechanism.updateSIGHSpeed( newSighSpeed ), \"updateSIGHSpeed() execution failed.\" );\n        return true;\n    }\n\n\n    function updateStakingSpeedForAnInstrument(address instrument_, uint newStakingSpeed) external onlySIGHFinanceManager returns (bool) { \n        ISighDistributionHandler sigh_distribution_mechanism = ISighDistributionHandler( globalAddressesProvider.getSIGHMechanismHandler() );\n        require(sigh_distribution_mechanism.updateStakingSpeedForAnInstrument( instrument_, newStakingSpeed ), \"updateStakingSpeedForAnInstrument() execution failed.\" );\n        return true;\n    }        \n\n    function SpeedUpperCheckSwitch(bool isActivated, uint profitPercentage) external onlySIGHFinanceManager returns (bool) { \n        ISighDistributionHandler sigh_distribution_mechanism = ISighDistributionHandler( globalAddressesProvider.getSIGHMechanismHandler() );\n        require(sigh_distribution_mechanism.SpeedUpperCheckSwitch( isActivated, profitPercentage ), \"SpeedUpperCheckSwitch() execution failed.\" );\n        return true;\n    }        \n\n    function updateDeltaBlocksForSpeedRefresh(uint deltaBlocksLimit) external onlySIGHFinanceManager returns (bool) { \n        ISighDistributionHandler sigh_distribution_mechanism = ISighDistributionHandler( globalAddressesProvider.getSIGHMechanismHandler() );\n        require(sigh_distribution_mechanism.updateDeltaBlocksForSpeedRefresh( deltaBlocksLimit ), \"updateDeltaBlocksForSpeedRefresh() execution failed.\" );\n        return true;\n    } \n\n// #########################################\n// ####### SIGH TREASURY FUNCTIONS #########\n// #########################################\n\n    function refreshTreasuryConfig() external onlySIGHFinanceManager { \n        ISighTreasury sigh_treasury = ISighTreasury( globalAddressesProvider.getSIGHTreasury() );\n        require(sigh_treasury.refreshConfig(),\"Failed to refresh\");\n    } \n    \n    function changeSIGHBurnAllowed( uint val) external onlySIGHFinanceManager { \n        ISighTreasury sigh_treasury = ISighTreasury( globalAddressesProvider.getSIGHTreasury() );\n        sigh_treasury.changeSIGHBurnAllowed(val);\n    } \n\n    function updateSIGHBurnSpeed( uint newSpeed) external onlySIGHFinanceManager { \n        ISighTreasury sigh_treasury = ISighTreasury( globalAddressesProvider.getSIGHTreasury() );\n        require(sigh_treasury.updateSIGHBurnSpeed(newSpeed),\"Failed to update SIGH burn speed\");\n    } \n\n    function initializeInstrumentDistribution(address targetAddress, address instrumnetToBeDistributed, uint distributionSpeed) external onlySIGHFinanceManager { \n        ISighTreasury sigh_treasury = ISighTreasury( globalAddressesProvider.getSIGHTreasury() );\n        require(sigh_treasury.initializeInstrumentDistribution(targetAddress, instrumnetToBeDistributed, distributionSpeed),\"Instrument Distribution function failed\");\n    } \n\n    function changeInstrumentBeingDripped(address instrumentToBeDistributed ) external onlySIGHFinanceManager { \n        ISighTreasury sigh_treasury = ISighTreasury( globalAddressesProvider.getSIGHTreasury() );\n        require(sigh_treasury.changeInstrumentBeingDripped(instrumentToBeDistributed),\"Change Instrument being Distributed function failed\");\n    } \n\n    function updateDripSpeed( uint newdistributionSpeed ) external onlySIGHFinanceManager { \n        ISighTreasury sigh_treasury = ISighTreasury( globalAddressesProvider.getSIGHTreasury() );\n        require(sigh_treasury.updateDripSpeed(newdistributionSpeed),\"Change Instrument dripping speed function failed\");\n    } \n\n   function resetInstrumentDistribution() external onlySIGHFinanceManager { \n        ISighTreasury sigh_treasury = ISighTreasury( globalAddressesProvider.getSIGHTreasury() );\n        require(sigh_treasury.resetInstrumentDistribution(),\"Reset Instrument distribution function failed\");\n    } \n\n\n    function initializeInstrumentState(address instrument) external onlySIGHFinanceManager {\n        ISighTreasury sigh_treasury = ISighTreasury( globalAddressesProvider.getSIGHTreasury() );\n        require(sigh_treasury.initializeInstrumentState(instrument),\"Instrument initialization failed\");\n        \n    }\n\n   function transferSighTo(address target, uint amount) external onlySIGHFinanceManager returns (uint){ \n        ISighTreasury sigh_treasury = ISighTreasury( globalAddressesProvider.getSIGHTreasury() );\n        uint sighTransferred = sigh_treasury.transferSighTo(target, amount);\n        return sighTransferred;\n    } \n\n// #########################################\n// ####### SIGH STAKING FUNCTIONS ##########\n// #########################################\n\n   function supportNewInstrumentForDistribution(address instrument, uint speed) external onlySIGHFinanceManager { \n        ISighStaking sigh_staking = ISighStaking( globalAddressesProvider.getSIGHStaking() );\n        require(sigh_staking.supportNewInstrumentForDistribution(instrument, speed),\"Addition of new instrument as SIGH Staking reward failed\");\n    } \n\n   function setDistributionSpeedForStakingReward(address instrument, uint speed) external onlySIGHFinanceManager { \n        ISighStaking sigh_staking = ISighStaking( globalAddressesProvider.getSIGHStaking() );\n        require(sigh_staking.setDistributionSpeed(instrument, speed),\"Updating distribution speed for SIGH Staking reward failed\");\n    } \n\n   function updateMaxSighThatCanBeStaked( uint amount) external onlySIGHFinanceManager { \n        ISighStaking sigh_staking = ISighStaking( globalAddressesProvider.getSIGHStaking() );\n        require(sigh_staking.updateMaxSighThatCanBeStaked(amount),\"Updating Maximum SIGH Staking limit failed\");\n    } \n\n}\n",
  "sourcePath": "/Users/apple/Desktop/GITCOIN/Sigh_Finance/SighFinanceContracts/contracts/SIGHFinanceContracts/SighFinanceConfigurator.sol",
  "compiler": {
    "name": "solc",
    "version": "0.5.16+commit.9c3226ce.Emscripten.clang"
  },
  "schemaVersion": "3.2.4",
  "updatedAt": "2020-11-06T13:01:11.419Z",
  "devdoc": {
    "author": "SIGH Finance",
    "methods": {},
    "title": "SighFinanceConfigurator contract"
  },
  "userdoc": {
    "methods": {},
    "notice": "Executes configuration methods for SIGH FINANCE contract, SIGHDistributionHandler and the SighStaking Contract to efficiently regulate the SIGH economics*"
  }
}