{
  "contractName": "SighReservoir",
  "abi": [
    {
      "inputs": [
        {
          "internalType": "contract EIP20Interface",
          "name": "token_",
          "type": "address"
        }
      ],
      "payable": false,
      "stateMutability": "nonpayable",
      "type": "constructor"
    },
    {
      "payable": true,
      "stateMutability": "payable",
      "type": "fallback"
    },
    {
      "constant": true,
      "inputs": [],
      "name": "admin",
      "outputs": [
        {
          "internalType": "address",
          "name": "",
          "type": "address"
        }
      ],
      "payable": false,
      "stateMutability": "view",
      "type": "function"
    },
    {
      "constant": true,
      "inputs": [],
      "name": "dripRate",
      "outputs": [
        {
          "internalType": "uint256",
          "name": "",
          "type": "uint256"
        }
      ],
      "payable": false,
      "stateMutability": "view",
      "type": "function"
    },
    {
      "constant": true,
      "inputs": [],
      "name": "isDripAllowed",
      "outputs": [
        {
          "internalType": "bool",
          "name": "",
          "type": "bool"
        }
      ],
      "payable": false,
      "stateMutability": "view",
      "type": "function"
    },
    {
      "constant": true,
      "inputs": [],
      "name": "lastDripBlockNumber",
      "outputs": [
        {
          "internalType": "uint256",
          "name": "",
          "type": "uint256"
        }
      ],
      "payable": false,
      "stateMutability": "view",
      "type": "function"
    },
    {
      "constant": true,
      "inputs": [],
      "name": "recentlyDrippedAmount",
      "outputs": [
        {
          "internalType": "uint256",
          "name": "",
          "type": "uint256"
        }
      ],
      "payable": false,
      "stateMutability": "view",
      "type": "function"
    },
    {
      "constant": true,
      "inputs": [],
      "name": "target",
      "outputs": [
        {
          "internalType": "address",
          "name": "",
          "type": "address"
        }
      ],
      "payable": false,
      "stateMutability": "view",
      "type": "function"
    },
    {
      "constant": true,
      "inputs": [],
      "name": "token",
      "outputs": [
        {
          "internalType": "contract EIP20Interface",
          "name": "",
          "type": "address"
        }
      ],
      "payable": false,
      "stateMutability": "view",
      "type": "function"
    },
    {
      "constant": true,
      "inputs": [],
      "name": "totalDrippedAmount",
      "outputs": [
        {
          "internalType": "uint256",
          "name": "",
          "type": "uint256"
        }
      ],
      "payable": false,
      "stateMutability": "view",
      "type": "function"
    },
    {
      "constant": false,
      "inputs": [
        {
          "internalType": "uint256",
          "name": "dripRate_",
          "type": "uint256"
        },
        {
          "internalType": "address",
          "name": "target_",
          "type": "address"
        }
      ],
      "name": "beginDripping",
      "outputs": [
        {
          "internalType": "bool",
          "name": "",
          "type": "bool"
        }
      ],
      "payable": false,
      "stateMutability": "nonpayable",
      "type": "function"
    },
    {
      "constant": false,
      "inputs": [
        {
          "internalType": "uint256",
          "name": "dripRate_",
          "type": "uint256"
        }
      ],
      "name": "changeDripRate",
      "outputs": [
        {
          "internalType": "bool",
          "name": "",
          "type": "bool"
        }
      ],
      "payable": false,
      "stateMutability": "nonpayable",
      "type": "function"
    },
    {
      "constant": false,
      "inputs": [],
      "name": "drip",
      "outputs": [
        {
          "internalType": "uint256",
          "name": "",
          "type": "uint256"
        }
      ],
      "payable": false,
      "stateMutability": "nonpayable",
      "type": "function"
    },
    {
      "constant": true,
      "inputs": [],
      "name": "getSighAddress",
      "outputs": [
        {
          "internalType": "address",
          "name": "",
          "type": "address"
        }
      ],
      "payable": false,
      "stateMutability": "view",
      "type": "function"
    },
    {
      "constant": true,
      "inputs": [],
      "name": "getTargetAddress",
      "outputs": [
        {
          "internalType": "address",
          "name": "",
          "type": "address"
        }
      ],
      "payable": false,
      "stateMutability": "view",
      "type": "function"
    }
  ],
  "bytecode": "0x60806040526006805460ff60a01b1916905534801561001d57600080fd5b50604051610a0c380380610a0c8339818101604052602081101561004057600080fd5b5051600680546001600160a01b03199081163317909155600180546001600160a01b039093169290911691909117905560006004819055600555610983806100896000396000f3fe6080604052600436106100c25760003560e01c8063d32615921161007f578063f4bdffa711610059578063f4bdffa7146101e7578063f851a440146101fc578063fc0c546a14610211578063fc9f213a14610226576100c2565b8063d3261592146101a8578063d4b83992146101bd578063e8f44459146101d2576100c2565b8063213d832a146100c457806330dbdfc4146100eb5780636f338a22146101385780639f678cca14610169578063b02644d01461017e578063c55580da14610193575b005b3480156100d057600080fd5b506100d9610250565b60408051918252519081900360200190f35b3480156100f757600080fd5b506101246004803603604081101561010e57600080fd5b50803590602001356001600160a01b0316610256565b604080519115158252519081900360200190f35b34801561014457600080fd5b5061014d6103ad565b604080516001600160a01b039092168252519081900360200190f35b34801561017557600080fd5b506100d96103bc565b34801561018a57600080fd5b5061014d610417565b34801561019f57600080fd5b50610124610426565b3480156101b457600080fd5b506100d9610436565b3480156101c957600080fd5b5061014d61043c565b3480156101de57600080fd5b506100d961044b565b3480156101f357600080fd5b506100d9610451565b34801561020857600080fd5b5061014d610457565b34801561021d57600080fd5b5061014d610466565b34801561023257600080fd5b506101246004803603602081101561024957600080fd5b5035610475565b60055481565b6006546000906001600160a01b031633146102a25760405162461bcd60e51b815260040180806020018281038252602d815260200180610840602d913960400191505060405180910390fd5b600654600160a01b900460ff16156102eb5760405162461bcd60e51b81526004018080602001828103825260258152602001806108f56025913960400191505060405180910390fd5b6006805460ff60a01b1916600160a01b179055600280546001600160a01b038085166001600160a01b0319909216821792839055919091161461035f5760405162461bcd60e51b81526004018080602001828103825260308152602001806108c56030913960400191505060405180910390fd5b61036883610475565b6103a35760405162461bcd60e51b815260040180806020018281038252602b815260200180610815602b913960400191505060405180910390fd5b5060015b92915050565b6002546001600160a01b031690565b600654600090600160a01b900460ff166104075760405162461bcd60e51b815260040180806020018281038252602e81526020018061086d602e913960400191505060405180910390fd5b60006104116104d3565b91505090565b6001546001600160a01b031690565b600654600160a01b900460ff1681565b60005481565b6002546001600160a01b031681565b60035481565b60045481565b6006546001600160a01b031681565b6001546001600160a01b031681565b6006546000906001600160a01b031633146104c15760405162461bcd60e51b815260040180806020018281038252602a81526020018061089b602a913960400191505060405180910390fd5b6104c96103bc565b5050600055600190565b600154604080516370a0823160e01b815230600482015290516000926001600160a01b031691839183916370a08231916024808301926020929190829003018186803b15801561052257600080fd5b505afa158015610536573d6000803e3d6000fd5b505050506040513d602081101561054c57600080fd5b50516000805460035460408051808201909152601281527164726970546f74616c206f766572666c6f7760701b6020820152939450439361059092918503906106f5565b9050600061059e84836107a8565b9050836105dc5760405162461bcd60e51b815260040180806020018281038252603581526020018061091a6035913960400191505060405180910390fd5b6002546040805163a9059cbb60e01b81526001600160a01b0392831660048201526024810184905290519187169163a9059cbb916044808201926020929091908290030181600087803b15801561063257600080fd5b505af1158015610646573d6000803e3d6000fd5b505050506040513d602081101561065c57600080fd5b50516106af576040805162461bcd60e51b815260206004820152601e60248201527f546865207472616e7366657220646964206e6f7420636f6d706c6574652e0000604482015290519081900360640190fd5b600383905560045460058290556040805180820190915260088152674f766572666c6f7760c01b60208201526106e890829084906107bf565b6004555094505050505090565b600083610704575060006107a1565b8383028385828161071157fe5b0414839061079d5760405162461bcd60e51b81526004018080602001828103825283818151815260200191508051906020019080838360005b8381101561076257818101518382015260200161074a565b50505050905090810190601f16801561078f5780820380516001836020036101000a031916815260200191505b509250505060405180910390fd5b5090505b9392505050565b60008183116107b85750816103a7565b50806103a7565b6000838301828582101561079d5760405162461bcd60e51b815260206004820181815283516024840152835190928392604490910191908501908083836000831561076257818101518382015260200161074a56fe44726970205261746520636f756c64206e6f7420626520696e697469616c697a65642070726f7065726c794472697070696e672063616e206f6e6c7920626520696e697469616c697a6564206279207468652041646d696e4472697070696e6720686173206e6f74206265656e20696e697469616c697a6564206279207468652041646d696e4472697020726174652063616e206f6e6c79206265206368616e676564206279207468652041646d696e546172676574206164647265737320636f756c64206e6f742062652070726f7065726c7920696e697469616c697a65644472697070696e672063616e206f6e6c7920626520696e697469616c697a6564206f6e6365546865207265736572766f69722063757272656e746c7920646f6573206e6f74206861766520616e79205349474820746f6b656e73a265627a7a72315820450af7c7ca3ebfd3b1093cc19c056033cd8345b93b8bf983b4d9c89e8ead9aac64736f6c63430005100032",
  "source": "pragma solidity ^0.5.16;\n\n/**\n * @title Sigh Reservoir Contract\n * @notice Distributes a token to a different contract at a fixed rate.\n * @dev This contract must be poked via the `drip()` function every so often.\n * @author SighFinance\n */\n\nimport \"../openzeppelin/EIP20Interface.sol\";\n \ncontract SighReservoir {\n\n  /// @notice The block number when the Reservoir started (immutable)\n  // uint public dripStart;\n\n  /// @notice Tokens per block that to drip to target (immutable)\n  uint public dripRate;\n\n  /// @notice Reference to token to drip (immutable)\n  EIP20Interface public token;\n\n  /// @notice Target to receive dripped tokens (immutable)\n  address public target;\n\n  uint public lastDripBlockNumber;    \n\n  uint public totalDrippedAmount; // Dripped Amount till now\n\n  uint public recentlyDrippedAmount;  // Amount recently Dripped\n\n  address public admin;\n\n  bool public isDripAllowed = false;  \n  \n  /**\n    * @notice Constructs a Reservoir\n    * @param token_ The token to drip\n    */\n  constructor(EIP20Interface token_) public {\n    admin = msg.sender;\n    token = token_;\n    totalDrippedAmount = 0;\n    recentlyDrippedAmount = 0;\n\n  }\n\n  function beginDripping (uint dripRate_, address target_ ) public returns (bool) {\n    require(admin == msg.sender,\"Dripping can only be initialized by the Admin\");\n    require(!isDripAllowed,\"Dripping can only be initialized once\");\n    isDripAllowed = true;\n    target = target_;\n    require(target == target_,\"Target address could not be properly initialized\");\n    require(changeDripRate(dripRate_),\"Drip Rate could not be initialized properly\");\n    return true;\n  }\n\n  function changeDripRate (uint dripRate_) public returns (bool) {\n    require(admin == msg.sender,\"Drip rate can only be changed by the Admin\");\n    drip();\n    dripRate = dripRate_;\n    return true;\n  }\n\n  /**\n    * @notice Drips the maximum amount of tokens to match the drip rate since inception\n    * @dev Note: this will only drip up to the amount of tokens available.\n    * @return The amount of tokens dripped in this call\n    */\n  function drip() public returns (uint) {\n    require(isDripAllowed,'Dripping has not been initialized by the Admin');    \n    uint drippedAmount = dripInternal();\n    return drippedAmount;\n  }\n\n  function dripInternal() internal returns (uint) {\n    EIP20Interface token_ = token;\n    uint reservoirBalance_ = token_.balanceOf(address(this)); // TODO: Verify this is a static call\n    uint blockNumber_ = block.number;\n    uint deltaDrip_ = mul(dripRate, blockNumber_ - lastDripBlockNumber, \"dripTotal overflow\");\n    uint toDrip_ = min(reservoirBalance_, deltaDrip_);\n    require(reservoirBalance_ != 0, 'The reservoir currently does not have any SIGH tokens' );\n    require(token_.transfer(target, toDrip_), 'The transfer did not complete.' );\n    lastDripBlockNumber = blockNumber_; // setting the block number when the Drip is made\n    uint prevDrippedAmount = totalDrippedAmount;\n    recentlyDrippedAmount = toDrip_;\n    totalDrippedAmount = add(prevDrippedAmount,toDrip_,\"Overflow\");\n    \n    return toDrip_;\n  } \n\n  function getSighAddress() external view returns (address) {\n    return address(token);\n  }\n\n  function getTargetAddress() external view returns (address) {\n    return address(target);\n  }\n\n  function () external payable {}\n\n  /* Internal helper functions for safe math */\n\n  function add(uint a, uint b, string memory errorMessage) internal pure returns (uint) {\n    uint c = a + b;\n    require(c >= a, errorMessage);\n    return c;\n  }\n\n  function sub(uint a, uint b, string memory errorMessage) internal pure returns (uint) {\n    require(b <= a, errorMessage);\n    uint c = a - b;\n    return c;\n  }\n\n  function mul(uint a, uint b, string memory errorMessage) internal pure returns (uint) {\n    if (a == 0) {\n      return 0;\n    }\n    uint c = a * b;\n    require(c / a == b, errorMessage);\n    return c;\n  }\n\n  function min(uint a, uint b) internal pure returns (uint) {\n    if (a <= b) {\n      return a;\n    } else {\n      return b;\n    }\n  }\n}\n\nimport \"../openzeppelin/EIP20Interface.sol\";\n",
  "sourcePath": "/Users/apple/Desktop/GITCOIN/Sigh_Finance/SighFinanceContracts/contracts/Reservoir/SighReservoir.sol",
  "compiler": {
    "name": "solc",
    "version": "0.5.16+commit.9c3226ce.Emscripten.clang"
  },
  "schemaVersion": "3.2.4",
  "updatedAt": "2020-09-23T07:48:59.590Z",
  "devdoc": {
    "methods": {
      "constructor": {
        "params": {
          "token_": "The token to drip"
        }
      },
      "drip()": {
        "details": "Note: this will only drip up to the amount of tokens available.",
        "return": "The amount of tokens dripped in this call"
      }
    }
  },
  "userdoc": {
    "methods": {
      "constructor": "Constructs a Reservoir",
      "drip()": {
        "notice": "Drips the maximum amount of tokens to match the drip rate since inception"
      }
    }
  }
}