{
  "contractName": "SighSpeedController",
  "abi": [
    {
      "inputs": [
        {
          "internalType": "contract IERC20",
          "name": "token_",
          "type": "address"
        }
      ],
      "payable": false,
      "stateMutability": "nonpayable",
      "type": "constructor"
    },
    {
      "anonymous": false,
      "inputs": [
        {
          "indexed": false,
          "internalType": "uint256",
          "name": "blockNumber",
          "type": "uint256"
        }
      ],
      "name": "DistributionInitialized",
      "type": "event"
    },
    {
      "anonymous": false,
      "inputs": [
        {
          "indexed": false,
          "internalType": "address",
          "name": "protocolAddress",
          "type": "address"
        },
        {
          "indexed": false,
          "internalType": "uint256",
          "name": "prevSpeed",
          "type": "uint256"
        },
        {
          "indexed": false,
          "internalType": "uint256",
          "name": "newSpeed",
          "type": "uint256"
        }
      ],
      "name": "DistributionSpeedChanged",
      "type": "event"
    },
    {
      "anonymous": false,
      "inputs": [
        {
          "indexed": false,
          "internalType": "address",
          "name": "protocolAddress",
          "type": "address"
        },
        {
          "indexed": false,
          "internalType": "uint256",
          "name": "currentBalance",
          "type": "uint256"
        },
        {
          "indexed": false,
          "internalType": "uint256",
          "name": "AmountDripped",
          "type": "uint256"
        },
        {
          "indexed": false,
          "internalType": "uint256",
          "name": "totalAmountDripped",
          "type": "uint256"
        }
      ],
      "name": "Dripped",
      "type": "event"
    },
    {
      "anonymous": false,
      "inputs": [
        {
          "indexed": false,
          "internalType": "address",
          "name": "protocolAddress",
          "type": "address"
        },
        {
          "indexed": false,
          "internalType": "uint256",
          "name": "sighSpeed",
          "type": "uint256"
        }
      ],
      "name": "NewProtocolSupported",
      "type": "event"
    },
    {
      "anonymous": false,
      "inputs": [
        {
          "indexed": false,
          "internalType": "address",
          "name": "protocolAddress",
          "type": "address"
        },
        {
          "indexed": false,
          "internalType": "uint256",
          "name": "totalDrippedToProtocol",
          "type": "uint256"
        }
      ],
      "name": "ProtocolRemoved",
      "type": "event"
    },
    {
      "constant": true,
      "inputs": [],
      "name": "admin",
      "outputs": [
        {
          "internalType": "address",
          "name": "",
          "type": "address"
        }
      ],
      "payable": false,
      "stateMutability": "view",
      "type": "function"
    },
    {
      "constant": true,
      "inputs": [],
      "name": "isDripAllowed",
      "outputs": [
        {
          "internalType": "bool",
          "name": "",
          "type": "bool"
        }
      ],
      "payable": false,
      "stateMutability": "view",
      "type": "function"
    },
    {
      "constant": true,
      "inputs": [],
      "name": "lastDripBlockNumber",
      "outputs": [
        {
          "internalType": "uint256",
          "name": "",
          "type": "uint256"
        }
      ],
      "payable": false,
      "stateMutability": "view",
      "type": "function"
    },
    {
      "constant": true,
      "inputs": [],
      "name": "token",
      "outputs": [
        {
          "internalType": "contract IERC20",
          "name": "",
          "type": "address"
        }
      ],
      "payable": false,
      "stateMutability": "view",
      "type": "function"
    },
    {
      "constant": false,
      "inputs": [
        {
          "internalType": "address",
          "name": "_addressesProvider",
          "type": "address"
        }
      ],
      "name": "setAddressProvider",
      "outputs": [
        {
          "internalType": "bool",
          "name": "",
          "type": "bool"
        }
      ],
      "payable": false,
      "stateMutability": "nonpayable",
      "type": "function"
    },
    {
      "constant": false,
      "inputs": [],
      "name": "beginDripping",
      "outputs": [
        {
          "internalType": "bool",
          "name": "",
          "type": "bool"
        }
      ],
      "payable": false,
      "stateMutability": "nonpayable",
      "type": "function"
    },
    {
      "constant": false,
      "inputs": [
        {
          "internalType": "address",
          "name": "newProtocolAddress",
          "type": "address"
        },
        {
          "internalType": "uint256",
          "name": "sighSpeed",
          "type": "uint256"
        }
      ],
      "name": "supportNewProtocol",
      "outputs": [
        {
          "internalType": "bool",
          "name": "",
          "type": "bool"
        }
      ],
      "payable": false,
      "stateMutability": "nonpayable",
      "type": "function"
    },
    {
      "constant": false,
      "inputs": [
        {
          "internalType": "address",
          "name": "protocolAddress_",
          "type": "address"
        }
      ],
      "name": "removeSupportedProtocol",
      "outputs": [
        {
          "internalType": "bool",
          "name": "",
          "type": "bool"
        }
      ],
      "payable": false,
      "stateMutability": "nonpayable",
      "type": "function"
    },
    {
      "constant": false,
      "inputs": [
        {
          "internalType": "address",
          "name": "targetAddress",
          "type": "address"
        },
        {
          "internalType": "uint256",
          "name": "newSpeed_",
          "type": "uint256"
        }
      ],
      "name": "changeProtocolSIGHSpeed",
      "outputs": [
        {
          "internalType": "bool",
          "name": "",
          "type": "bool"
        }
      ],
      "payable": false,
      "stateMutability": "nonpayable",
      "type": "function"
    },
    {
      "constant": false,
      "inputs": [],
      "name": "drip",
      "outputs": [
        {
          "internalType": "uint256",
          "name": "",
          "type": "uint256"
        }
      ],
      "payable": false,
      "stateMutability": "nonpayable",
      "type": "function"
    },
    {
      "constant": true,
      "inputs": [],
      "name": "getSIGHBalance",
      "outputs": [
        {
          "internalType": "uint256",
          "name": "",
          "type": "uint256"
        }
      ],
      "payable": false,
      "stateMutability": "view",
      "type": "function"
    },
    {
      "constant": true,
      "inputs": [],
      "name": "getSighAddress",
      "outputs": [
        {
          "internalType": "address",
          "name": "",
          "type": "address"
        }
      ],
      "payable": false,
      "stateMutability": "view",
      "type": "function"
    },
    {
      "constant": true,
      "inputs": [],
      "name": "getSupportedProtocols",
      "outputs": [
        {
          "internalType": "address[]",
          "name": "",
          "type": "address[]"
        }
      ],
      "payable": false,
      "stateMutability": "view",
      "type": "function"
    },
    {
      "constant": true,
      "inputs": [
        {
          "internalType": "address",
          "name": "protocolAddress",
          "type": "address"
        }
      ],
      "name": "isThisProtocolSupported",
      "outputs": [
        {
          "internalType": "bool",
          "name": "",
          "type": "bool"
        }
      ],
      "payable": false,
      "stateMutability": "view",
      "type": "function"
    },
    {
      "constant": true,
      "inputs": [
        {
          "internalType": "address",
          "name": "protocolAddress",
          "type": "address"
        }
      ],
      "name": "getSupportedProtocolState",
      "outputs": [
        {
          "internalType": "bool",
          "name": "isSupported",
          "type": "bool"
        },
        {
          "internalType": "uint256",
          "name": "distributionSpeed",
          "type": "uint256"
        },
        {
          "internalType": "uint256",
          "name": "totalDrippedAmount",
          "type": "uint256"
        },
        {
          "internalType": "uint256",
          "name": "recentlyDrippedAmount",
          "type": "uint256"
        }
      ],
      "payable": false,
      "stateMutability": "view",
      "type": "function"
    },
    {
      "constant": true,
      "inputs": [
        {
          "internalType": "address",
          "name": "protocolAddress",
          "type": "address"
        }
      ],
      "name": "getTotalAmountDistributedToProtocol",
      "outputs": [
        {
          "internalType": "uint256",
          "name": "",
          "type": "uint256"
        }
      ],
      "payable": false,
      "stateMutability": "view",
      "type": "function"
    },
    {
      "constant": true,
      "inputs": [
        {
          "internalType": "address",
          "name": "protocolAddress",
          "type": "address"
        }
      ],
      "name": "getRecentAmountDistributedToProtocol",
      "outputs": [
        {
          "internalType": "uint256",
          "name": "",
          "type": "uint256"
        }
      ],
      "payable": false,
      "stateMutability": "view",
      "type": "function"
    },
    {
      "constant": true,
      "inputs": [
        {
          "internalType": "address",
          "name": "protocolAddress",
          "type": "address"
        }
      ],
      "name": "getSIGHSpeedForProtocol",
      "outputs": [
        {
          "internalType": "uint256",
          "name": "",
          "type": "uint256"
        }
      ],
      "payable": false,
      "stateMutability": "view",
      "type": "function"
    },
    {
      "constant": true,
      "inputs": [],
      "name": "totalProtocolsSupported",
      "outputs": [
        {
          "internalType": "uint256",
          "name": "",
          "type": "uint256"
        }
      ],
      "payable": false,
      "stateMutability": "view",
      "type": "function"
    }
  ],
  "bytecode": "0x60806040526002805461ffff60a01b1916905534801561001e57600080fd5b5060405161193f38038061193f8339818101604052602081101561004157600080fd5b5051600180546001600160a01b03199081163317909155600080546001600160a01b03909316929091169190911790556118bf806100806000396000f3fe608060405234801561001057600080fd5b50600436106101215760003560e01c80639f678cca116100ad578063d2ee1ea611610071578063d2ee1ea61461032e578063e8f4445914610354578063ebb3e0861461035c578063f851a44014610382578063fc0c546a1461038a57610121565b80639f678cca146102cc578063b02644d0146102d4578063c55580da146102f8578063c6a6bfb114610300578063c9c906421461030857610121565b8063532913a5116100f4578063532913a5146101ee5780635c8cfed814610246578063633eec441461027257806378b122dc1461029e5780638438cc23146102a657610121565b80630259d8c114610126578063101cd9ca146101745780631a5fa2e31461018e5780632aef904a146101c8575b600080fd5b61014c6004803603602081101561013c57600080fd5b50356001600160a01b0316610392565b6040805194151585526020850193909352838301919091526060830152519081900360800190f35b61017c6103c7565b60408051918252519081900360200190f35b6101b4600480360360208110156101a457600080fd5b50356001600160a01b03166103ce565b604080519115158252519081900360200190f35b61017c600480360360208110156101de57600080fd5b50356001600160a01b03166104e7565b6101f6610505565b60408051602080825283518183015283519192839290830191858101910280838360005b8381101561023257818101518382015260200161021a565b505050509050019250505060405180910390f35b6101b46004803603604081101561025c57600080fd5b506001600160a01b038135169060200135610567565b6101b46004803603604081101561028857600080fd5b506001600160a01b038135169060200135610714565b6101b46109e7565b6101b4600480360360208110156102bc57600080fd5b50356001600160a01b0316610b4c565b61017c610e02565b6102dc610e55565b604080516001600160a01b039092168252519081900360200190f35b6101b4610e64565b61017c610e74565b61017c6004803603602081101561031e57600080fd5b50356001600160a01b0316610ef7565b61017c6004803603602081101561034457600080fd5b50356001600160a01b0316610f15565b61017c610f33565b6101b46004803603602081101561037257600080fd5b50356001600160a01b0316610f39565b6102dc610f57565b6102dc610f66565b6001600160a01b0316600090815260046020526040902080546001820154600283015460039093015460ff9092169390929190565b6005545b90565b6001546000906001600160a01b0316331461041a5760405162461bcd60e51b815260040180806020018281038252602d815260200180611664602d913960400191505060405180910390fd5b600254600160a01b900460ff16156104635760405162461bcd60e51b815260040180806020018281038252602c81526020018061183a602c913960400191505060405180910390fd5b60028054600160a01b60ff60a01b19909116176001600160a01b0319166001600160a01b038481169182179283905591909116146104d25760405162461bcd60e51b815260040180806020018281038252602c815260200180611691602c913960400191505060405180910390fd5b600180546001600160a01b0319169055919050565b6001600160a01b031660009081526004602052604090206003015490565b6060600580548060200260200160405190810160405280929190818152602001828054801561055d57602002820191906000526020600020905b81546001600160a01b0316815260019091019060200180831161053f575b5050505050905090565b6000336001600160a01b0316600260009054906101000a90046001600160a01b03166001600160a01b031663db49224b6040518163ffffffff1660e01b815260040160206040518083038186803b1580156105c157600080fd5b505afa1580156105d5573d6000803e3d6000fd5b505050506040513d60208110156105eb57600080fd5b50516001600160a01b0316146106325760405162461bcd60e51b815260040180806020018281038252603a815260200180611744603a913960400191505060405180910390fd5b6001600160a01b03831660009081526004602052604090205460ff166106895760405162461bcd60e51b815260040180806020018281038252603a8152602001806115f6603a913960400191505060405180910390fd5b600254600160a81b900460ff16156106a3576106a3610f75565b6001600160a01b0383166000818152600460209081526040918290206001018054908690558251938452908301819052828201859052905190917f42a8048ea1a48e06cf6d500105e6054f461189f2bf63b32588d7ee15e3c15f45919081900360600190a160019150505b92915050565b6000336001600160a01b0316600260009054906101000a90046001600160a01b03166001600160a01b031663db49224b6040518163ffffffff1660e01b815260040160206040518083038186803b15801561076e57600080fd5b505afa158015610782573d6000803e3d6000fd5b505050506040513d602081101561079857600080fd5b50516001600160a01b0316146107df5760405162461bcd60e51b815260040180806020018281038252603a815260200180611744603a913960400191505060405180910390fd5b6001600160a01b03831660009081526004602052604090205460ff16156108375760405162461bcd60e51b815260040180806020018281038252603f815260200180611705603f913960400191505060405180910390fd5b600254600160a81b900460ff161561085157610851610f75565b6005805460018082019092557f036b6384b5eca791c62761152d0c79bb0604c104a5fb6f4eb0703f3154bb3db00180546001600160a01b0319166001600160a01b0386169081179091556040805160808101825283815260208082018781526000838501818152606085018281529682526004909352939093209151825460ff19169015151780835592519482019490945592516002840155905160039092019190915560ff166109335760405162461bcd60e51b815260040180806020018281038252602a8152602001806115cc602a913960400191505060405180910390fd5b6001600160a01b038316600090815260046020526040902060010154821461098c5760405162461bcd60e51b815260040180806020018281038252603d81526020018061177e603d913960400191505060405180910390fd5b6001600160a01b0383166000818152600460209081526040918290206001015482519384529083015280517f454a4e7bf83dc28e751e63cee98a7e56875bd7b2f417d998c904504aaa4a882e9281900390910190a192915050565b6000336001600160a01b0316600260009054906101000a90046001600160a01b03166001600160a01b031663db49224b6040518163ffffffff1660e01b815260040160206040518083038186803b158015610a4157600080fd5b505afa158015610a55573d6000803e3d6000fd5b505050506040513d6020811015610a6b57600080fd5b50516001600160a01b031614610ab25760405162461bcd60e51b815260040180806020018281038252603a815260200180611744603a913960400191505060405180910390fd5b600254600160a81b900460ff1615610afb5760405162461bcd60e51b81526004018080602001828103825260258152602001806118666025913960400191505060405180910390fd5b6002805460ff60a81b1916600160a81b17905543600381905560408051918252517ff030f7afe867c9186d292811b9b968f3d2c4928e6aa2f12d6cc3eadf3205a1e19181900360200190a150600190565b6000336001600160a01b0316600260009054906101000a90046001600160a01b03166001600160a01b031663db49224b6040518163ffffffff1660e01b815260040160206040518083038186803b158015610ba657600080fd5b505afa158015610bba573d6000803e3d6000fd5b505050506040513d6020811015610bd057600080fd5b50516001600160a01b031614610c175760405162461bcd60e51b815260040180806020018281038252603a815260200180611744603a913960400191505060405180910390fd5b6001600160a01b03821660009081526004602052604090205460ff16610c6e5760405162461bcd60e51b81526004018080602001828103825260428152602001806117bb6042913960600191505060405180910390fd5b600254600160a81b900460ff1615610c8857610c88610f75565b600554600090815b81811015610cda57846001600160a01b031660058281548110610caf57fe5b6000918252602090912001546001600160a01b03161415610cd257809250610cda565b600101610c90565b5060056001820381548110610ceb57fe5b600091825260209091200154600580546001600160a01b039092169184908110610d1157fe5b600091825260209091200180546001600160a01b0319166001600160a01b03929092169190911790556005805490610d4d906000198301611553565b506005546000198201908114610d945760405162461bcd60e51b81526004018080602001828103825260348152602001806116306034913960400191505060405180910390fd5b6001600160a01b0385166000818152600460209081526040808320805460ff19168155600181019390935560029092015482519384529083015280517f708643cb1bd91c80967f227a54f1bfdb24543f8a8411ca28313075360aeaf5f39281900390910190a1505050919050565b600254600090600160a81b900460ff16610e4d5760405162461bcd60e51b815260040180806020018281038252603d8152602001806117fd603d913960400191505060405180910390fd5b6103cb610f75565b6000546001600160a01b031690565b600254600160a81b900460ff1681565b60008054604080516370a0823160e01b815230600482015290516001600160a01b0390921691839183916370a0823191602480820192602092909190829003018186803b158015610ec457600080fd5b505afa158015610ed8573d6000803e3d6000fd5b505050506040513d6020811015610eee57600080fd5b50519250505090565b6001600160a01b031660009081526004602052604090206002015490565b6001600160a01b031660009081526004602052604090206001015490565b60035481565b6001600160a01b031660009081526004602052604090205460ff1690565b6001546001600160a01b031681565b6000546001600160a01b031681565b60005460058054604080516020808402820181019092528281526001600160a01b039094169360609390929091830182828015610fdb57602002820191906000526020600020905b81546001600160a01b03168152600190910190602001808311610fbd575b5050835193945050821591506113ce90505760005b818110156113cc57600083828151811061100657fe5b6020908102919091018101516001600160a01b0381166000908152600490925260409091205490915060ff16156113c357604080516370a0823160e01b815230600482015290516000916001600160a01b038816916370a0823191602480820192602092909190829003018186803b15801561108157600080fd5b505afa158015611095573d6000803e3d6000fd5b505050506040513d60208110156110ab57600080fd5b505160035460408051808201909152601781527f44656c746120426c6f636b732067617665206572726f72000000000000000000602082015291925043916000916110f8918491906113d7565b9050600061115960046000876001600160a01b03166001600160a01b0316815260200190815260200160002060010154836040518060400160405280601281526020017164726970546f74616c206f766572666c6f7760701b815250611473565b9050600061116785836114e7565b9050846111a55760405162461bcd60e51b81526004018080602001828103825260488152602001806116bd6048913960600191505060405180910390fd5b896001600160a01b031663a9059cbb87836040518363ffffffff1660e01b815260040180836001600160a01b03166001600160a01b0316815260200182815260200192505050602060405180830381600087803b15801561120557600080fd5b505af1158015611219573d6000803e3d6000fd5b505050506040513d602081101561122f57600080fd5b505161126c5760405162461bcd60e51b815260040180806020018281038252603181526020018061159b6031913960400191505060405180910390fd5b600060046000886001600160a01b03166001600160a01b031681526020019081526020016000206002015490506112c48183604051806040016040528060088152602001674f766572666c6f7760c01b8152506114fe565b6001600160a01b038089166000908152600460208181526040928390206002810195909555600390940186905581516370a0823160e01b815230918101919091529051918e16926370a0823192602480840193829003018186803b15801561132b57600080fd5b505afa15801561133f573d6000803e3d6000fd5b505050506040513d602081101561135557600080fd5b50516001600160a01b0388166000818152600460209081526040918290206002015482519384529083018490528282018690526060830152519197507ffbc861b8fae602af03125e77879589364826ebceb3ce37893557148cbd70a2e9919081900360800190a15050505050505b50600101610ff0565b505b50504360035550565b600081848411156114665760405162461bcd60e51b81526004018080602001828103825283818151815260200191508051906020019080838360005b8381101561142b578181015183820152602001611413565b50505050905090810190601f1680156114585780820380516001836020036101000a031916815260200191505b509250505060405180910390fd5b50508183035b9392505050565b6000836114825750600061146c565b8383028385828161148f57fe5b041483906114de5760405162461bcd60e51b815260206004820181815283516024840152835190928392604490910191908501908083836000831561142b578181015183820152602001611413565b50949350505050565b60008183116114f757508161070e565b508061070e565b600083830182858210156114de5760405162461bcd60e51b815260206004820181815283516024840152835190928392604490910191908501908083836000831561142b578181015183820152602001611413565b8154818355818111156115775760008381526020902061157791810190830161157c565b505050565b6103cb91905b808211156115965760008155600101611582565b509056fe50726f746f636f6c205472616e736665723a20546865207472616e7366657220646964206e6f7420636f6d706c6574652e4572726f72206f636375726564207768656e20616464696e6720746865206e65772070726f746f636f6c5468652050726f746f636f6c206973206e6f7420537570706f7274656420627920746865205369676820537065656420436f6e74726f6c6c6572546865206c656e677468206f6620746865206c69737420776173206e6f742070726f7065726c792064656372656d656e7465642e4472697070696e672063616e206f6e6c7920626520696e697469616c697a6564206279207468652041646d696e2041646472657373657350726f7669646572206e6f7420696e697469616c697a65642050726f7065726c792050726f746f636f6c205472616e736665723a20546865207265736572766f69722063757272656e746c7920646f6573206e6f74206861766520616e79205349474820746f6b656e73546869732050726f746f636f6c20697320616c726561647920737570706f7274656420627920746865205369676820537065656420436f6e74726f6c6c65725468652063616c6c6572206d7573742062652074686520534947482046696e616e61636520436f6e666967757261746f7220436f6e74726163745349474820537065656420666f7220746865206e65772070726f746f636f6c20776173206e6f7420696e697469616c697a65642070726f7065726c792e5468652050726f746f636f6c20697320616c7265616479206e6f7420537570706f7274656420627920746865205369676820537065656420436f6e74726f6c6c65724472697070696e6720686173206e6f74206265656e20696e697469616c697a65642062792074686520534947482046696e616e6365204d616e616765724164647265737350726f76696465722063616e206f6e6c7920626520696e697469616c697a6564206f6e63654472697070696e672063616e206f6e6c7920626520696e697469616c697a6564206f6e6365a265627a7a72315820fbedcb9a81cb24217e875e5c86dcf4bd65b766ea98463ce71b7495a7b5b6ea0a64736f6c63430005100032",
  "source": "pragma solidity ^0.5.16;\n\n/**\n * @title Sigh Speed Controller Contract\n * @notice Distributes a token to a different contract at a fixed rate.\n * @dev This contract must be poked via the `drip()` function every so often.\n * @author SighFinance\n */\n\nimport \"openzeppelin-solidity/contracts/token/ERC20/IERC20.sol\"; \nimport \"../Interfaces/ISighSpeedController.sol\";\nimport \"../../configuration/IGlobalAddressesProvider.sol\";\n \ncontract SighSpeedController is ISighSpeedController {\n\n  /// @notice Reference to SIGH\n  IERC20 public token;\n\n  address public admin;\n  IGlobalAddressesProvider private addressesProvider;\n  bool private isAddressesSet = false;\n\n  bool public isDripAllowed = false;  \n  uint public lastDripBlockNumber;    \n    \n  struct protocolState {\n    bool isSupported;\n    uint distributionSpeed;\n    uint totalDrippedAmount;\n    uint recentlyDrippedAmount;\n  }\n\n  mapping (address => protocolState) private supportedProtocols;\n  address[] private storedSupportedProtocols; \n\n  event DistributionInitialized(uint blockNumber);\n\n  event NewProtocolSupported (address protocolAddress, uint sighSpeed);\n  event ProtocolRemoved(address protocolAddress, uint totalDrippedToProtocol);\n  \n  event DistributionSpeedChanged(address protocolAddress, uint prevSpeed , uint newSpeed );  \n  event Dripped(address protocolAddress, uint currentBalance, uint AmountDripped, uint totalAmountDripped ); \n\n// ########################\n// ####### MODIFIER #######\n// ########################\n\n    /**\n    * @dev only the SIGH Finance Manager can call functions affected by this modifier\n    **/\n    modifier onlySIGHFinanceManager {\n        require( addressesProvider.getSIGHFinanceManager() == msg.sender, \"The caller must be the SIGH Finance Manager\" );\n        _;\n    }\n\n    //only SIGH Finance Configurator can use functions affected by this modifier\n    modifier onlySighFinanceConfigurator {\n        require(addressesProvider.getSIGHFinanceConfigurator() == msg.sender, \"The caller must be the SIGH Finanace Configurator Contract\");\n        _;\n    }\n\n// ###########################\n// ####### CONSTRUCTOR #######\n// ###########################\n\n  /**\n    * @notice Constructs a Reservoir\n    * @param token_ The token to drip\n    */\n  constructor(IERC20 token_ ) public {\n    admin = msg.sender;\n    token = token_;\n  }\n\n  function setAddressProvider(address _addressesProvider) external returns (bool) {\n    require(admin == msg.sender,\"Dripping can only be initialized by the Admin\");\n    require(!isAddressesSet,\"AddressProvider can only be initialized once\");\n    isAddressesSet = true;\n    addressesProvider = IGlobalAddressesProvider(_addressesProvider);\n    require(address(addressesProvider) == _addressesProvider, \" AddressesProvider not initialized Properly \");\n    admin = address(0);\n  }\n\n// #############################################################################################\n// ###########   SIGH DISTRIBUTION : INITIALIZED DRIPPING (Can be called only once)   ##########\n// #############################################################################################\n\n  function beginDripping () external onlySighFinanceConfigurator returns (bool) {\n    require(!isDripAllowed,\"Dripping can only be initialized once\");\n\n    isDripAllowed = true;\n    lastDripBlockNumber = block.number;\n\n    emit DistributionInitialized( lastDripBlockNumber );\n    return true;\n  }\n\n// ############################################################################################################\n// ###########   SIGH DISTRIBUTION : ADDING / REMOVING NEW PROTOCOL WHICH WILL RECEIVE SIGH TOKENS   ##########\n// ############################################################################################################\n\n  function supportNewProtocol( address newProtocolAddress, uint sighSpeed ) external onlySighFinanceConfigurator returns (bool)  {\n    require (!supportedProtocols[newProtocolAddress].isSupported, 'This Protocol is already supported by the Sigh Speed Controller');\n\n    if (isDripAllowed) {\n        dripInternal();\n    }\n    \n    storedSupportedProtocols.push(newProtocolAddress);  // ADDED TO THE LIST\n    \n    supportedProtocols[newProtocolAddress] = protocolState({ isSupported: true,\n                                                           distributionSpeed: sighSpeed,\n                                                           totalDrippedAmount: uint(0),\n                                                           recentlyDrippedAmount: uint(0)\n                                                           });\n    \n    require (supportedProtocols[newProtocolAddress].isSupported, 'Error occured when adding the new protocol');\n    require (supportedProtocols[newProtocolAddress].distributionSpeed == sighSpeed, 'SIGH Speed for the new protocol was not initialized properly.');\n    \n    emit NewProtocolSupported(newProtocolAddress, supportedProtocols[newProtocolAddress].distributionSpeed);\n  }\n  \n\n  function removeSupportedProtocol(address protocolAddress_ ) external onlySighFinanceConfigurator returns (bool) {\n    require(supportedProtocols[protocolAddress_].isSupported,'The Protocol is already not Supported by the Sigh Speed Controller' );\n    \n    if (isDripAllowed) {\n        dripInternal();\n    }\n    \n    uint index = 0;\n    uint len = storedSupportedProtocols.length;\n\n    for (uint i=0; i< len; i++) {\n        if ( storedSupportedProtocols[i] == protocolAddress_ ) {\n            index = i;\n            break;\n        }\n    }\n    \n    storedSupportedProtocols[index] = storedSupportedProtocols[len - 1];\n    storedSupportedProtocols.length--;\n    uint newLength = len - 1;\n    require(storedSupportedProtocols.length == newLength, 'The length of the list was not properly decremented.' );\n    \n    supportedProtocols[protocolAddress_].isSupported = false;\n    supportedProtocols[protocolAddress_].distributionSpeed = 0;\n    require (supportedProtocols[protocolAddress_].isSupported == false, 'Error occured when removing the protocol.');\n    require (supportedProtocols[protocolAddress_].distributionSpeed == 0, 'SIGH Speed was not properly assigned to 0.');\n\n    emit ProtocolRemoved( protocolAddress_,  supportedProtocols[protocolAddress_].totalDrippedAmount );\n  }\n  \n// ######################################################################################\n// ###########   SIGH DISTRIBUTION : FUNCTIONS TO UPDATE DISTRIBUTION SPEEDS   ##########\n// ######################################################################################\n\n  function changeProtocolSIGHSpeed (address targetAddress, uint newSpeed_) external onlySighFinanceConfigurator returns (bool) {\n    require(supportedProtocols[targetAddress].isSupported,'The Protocol is not Supported by the Sigh Speed Controller' );\n    if (isDripAllowed) {\n        dripInternal();\n    }\n    uint prevSpeed = supportedProtocols[targetAddress].distributionSpeed;\n    supportedProtocols[targetAddress].distributionSpeed = newSpeed_;\n    require(supportedProtocols[targetAddress].distributionSpeed == newSpeed_, \" Protocol's SIGH speed was not properly updated\");\n    emit DistributionSpeedChanged(targetAddress, prevSpeed , supportedProtocols[targetAddress].distributionSpeed );\n    return true;\n  }\n\n\n// #####################################################################\n// ###########   SIGH DISTRIBUTION FUNCTION - DRIP FUNCTION   ##########\n// #####################################################################\n\n  /**\n    * @notice Drips the maximum amount of tokens to match the drip rate since inception\n    * @dev Note: this will only drip up to the amount of tokens available.\n    * @return The amount of tokens dripped in this call\n    */\n  function drip() public returns (uint) {\n    require(isDripAllowed,'Dripping has not been initialized by the SIGH Finance Manager');    \n    dripInternal();\n  }\n  \n  function dripInternal() internal {\n    IERC20 token_ = token;\n    \n    address[] memory protocols = storedSupportedProtocols;\n    uint length = protocols.length;\n    \n    if (length > 0) {\n        for ( uint i=0; i < length; i++) {\n            address current_protocol = protocols[i];\n            \n            if ( supportedProtocols[ current_protocol ].isSupported ) {\n                \n                uint reservoirBalance_ = token_.balanceOf(address(this)); \n                uint blockNumber_ = block.number;\n                uint deltaBlocks = sub(blockNumber_,lastDripBlockNumber,\"Delta Blocks gave error\");\n                uint deltaDrip_ = mul(supportedProtocols[ current_protocol ].distributionSpeed, deltaBlocks , \"dripTotal overflow\");\n                uint toDrip_ = min(reservoirBalance_, deltaDrip_);\n            \n                require(reservoirBalance_ != 0, 'Protocol Transfer: The reservoir currently does not have any SIGH tokens' );\n                require(token_.transfer(current_protocol, toDrip_), 'Protocol Transfer: The transfer did not complete.' );\n                \n                uint prevDrippedAmount = supportedProtocols[current_protocol].totalDrippedAmount;\n                supportedProtocols[current_protocol].totalDrippedAmount = add(prevDrippedAmount,toDrip_,\"Overflow\");\n                supportedProtocols[current_protocol].recentlyDrippedAmount = toDrip_;\n                reservoirBalance_ = token_.balanceOf(address(this)); // TODO: Verify this is a static call\n            \n                emit Dripped( current_protocol, reservoirBalance_, toDrip_ , supportedProtocols[current_protocol].totalDrippedAmount ); \n            }\n        }\n    }\n    lastDripBlockNumber = block.number;\n  }\n\n\n// ###############################################################\n// ###########   EXTERNAL VIEW functions TO GET STATE   ##########\n// ###############################################################\n\n  function getSIGHBalance() external view returns (uint) {\n    IERC20 token_ = token;   \n    uint balance = token_.balanceOf(address(this));\n    return balance;\n  }\n\n  function getSighAddress() external view returns (address) {\n    return address(token);\n  }\n\n  function getSupportedProtocols() external view returns (address[] memory) {\n    return storedSupportedProtocols;\n  }\n\n  function isThisProtocolSupported(address protocolAddress) external view returns (bool) {\n    return supportedProtocols[protocolAddress].isSupported;\n  }\n\n  function getSupportedProtocolState(address protocolAddress) external view returns (bool isSupported,uint distributionSpeed,uint totalDrippedAmount,uint recentlyDrippedAmount ) {\n  return (supportedProtocols[protocolAddress].isSupported,\n          supportedProtocols[protocolAddress].distributionSpeed,\n          supportedProtocols[protocolAddress].totalDrippedAmount,\n          supportedProtocols[protocolAddress].recentlyDrippedAmount  );\n  \n  }\n\n  function getTotalAmountDistributedToProtocol(address protocolAddress) external view returns (uint) {\n    return supportedProtocols[protocolAddress].totalDrippedAmount;\n  }\n\n  function getRecentAmountDistributedToProtocol(address protocolAddress) external view returns (uint) {\n    return supportedProtocols[protocolAddress].recentlyDrippedAmount;\n  }\n  \n  function getSIGHSpeedForProtocol(address protocolAddress) external view returns (uint) {\n      return supportedProtocols[protocolAddress].distributionSpeed;\n  }\n  \n  function totalProtocolsSupported() external view returns (uint) {\n      uint len = storedSupportedProtocols.length;\n      return len;\n  }\n\n// ###############################################################\n// ########### Internal helper functions for safe math ###########\n// ###############################################################\n\n  function add(uint a, uint b, string memory errorMessage) internal pure returns (uint) {\n    uint c = a + b;\n    require(c >= a, errorMessage);\n    return c;\n  }\n\n  function sub(uint a, uint b, string memory errorMessage) internal pure returns (uint) {\n    require(b <= a, errorMessage);\n    uint c = a - b;\n    return c;\n  }\n\n  function mul(uint a, uint b, string memory errorMessage) internal pure returns (uint) {\n    if (a == 0) {\n      return 0;\n    }\n    uint c = a * b;\n    require(c / a == b, errorMessage);\n    return c;\n  }\n\n  function min(uint a, uint b) internal pure returns (uint) {\n    if (a <= b) {\n      return a;\n    } else {\n      return b;\n    }\n  }\n}\n",
  "sourcePath": "/Users/apple/Desktop/GITCOIN/Sigh_Finance/SighFinanceContracts/contracts/SIGHFinanceContracts/SIGH_Instrument/SighSpeedController.sol",
  "compiler": {
    "name": "solc",
    "version": "0.5.16+commit.9c3226ce.Emscripten.clang"
  },
  "schemaVersion": "3.2.4",
  "updatedAt": "2020-11-05T05:43:32.478Z",
  "devdoc": {
    "methods": {
      "constructor": {
        "params": {
          "token_": "The token to drip"
        }
      },
      "drip()": {
        "details": "Note: this will only drip up to the amount of tokens available.",
        "return": "The amount of tokens dripped in this call"
      }
    }
  },
  "userdoc": {
    "methods": {
      "constructor": "Constructs a Reservoir",
      "drip()": {
        "notice": "Drips the maximum amount of tokens to match the drip rate since inception"
      }
    }
  }
}