{
  "contractName": "SightrollerV2Storage",
  "abi": [
    {
      "constant": true,
      "inputs": [],
      "name": "_borrowGuardianPaused",
      "outputs": [
        {
          "internalType": "bool",
          "name": "",
          "type": "bool"
        }
      ],
      "payable": false,
      "stateMutability": "view",
      "type": "function"
    },
    {
      "constant": true,
      "inputs": [],
      "name": "_mintGuardianPaused",
      "outputs": [
        {
          "internalType": "bool",
          "name": "",
          "type": "bool"
        }
      ],
      "payable": false,
      "stateMutability": "view",
      "type": "function"
    },
    {
      "constant": true,
      "inputs": [
        {
          "internalType": "address",
          "name": "",
          "type": "address"
        },
        {
          "internalType": "uint256",
          "name": "",
          "type": "uint256"
        }
      ],
      "name": "accountAssets",
      "outputs": [
        {
          "internalType": "contract CToken",
          "name": "",
          "type": "address"
        }
      ],
      "payable": false,
      "stateMutability": "view",
      "type": "function"
    },
    {
      "constant": true,
      "inputs": [],
      "name": "admin",
      "outputs": [
        {
          "internalType": "address",
          "name": "",
          "type": "address"
        }
      ],
      "payable": false,
      "stateMutability": "view",
      "type": "function"
    },
    {
      "constant": true,
      "inputs": [
        {
          "internalType": "address",
          "name": "",
          "type": "address"
        }
      ],
      "name": "borrowGuardianPaused",
      "outputs": [
        {
          "internalType": "bool",
          "name": "",
          "type": "bool"
        }
      ],
      "payable": false,
      "stateMutability": "view",
      "type": "function"
    },
    {
      "constant": true,
      "inputs": [],
      "name": "closeFactorMantissa",
      "outputs": [
        {
          "internalType": "uint256",
          "name": "",
          "type": "uint256"
        }
      ],
      "payable": false,
      "stateMutability": "view",
      "type": "function"
    },
    {
      "constant": true,
      "inputs": [],
      "name": "liquidationIncentiveMantissa",
      "outputs": [
        {
          "internalType": "uint256",
          "name": "",
          "type": "uint256"
        }
      ],
      "payable": false,
      "stateMutability": "view",
      "type": "function"
    },
    {
      "constant": true,
      "inputs": [
        {
          "internalType": "address",
          "name": "",
          "type": "address"
        }
      ],
      "name": "markets",
      "outputs": [
        {
          "internalType": "bool",
          "name": "isListed",
          "type": "bool"
        },
        {
          "internalType": "uint256",
          "name": "collateralFactorMantissa",
          "type": "uint256"
        },
        {
          "internalType": "bool",
          "name": "isGsighed",
          "type": "bool"
        },
        {
          "internalType": "bool",
          "name": "isSighed",
          "type": "bool"
        }
      ],
      "payable": false,
      "stateMutability": "view",
      "type": "function"
    },
    {
      "constant": true,
      "inputs": [],
      "name": "maxAssets",
      "outputs": [
        {
          "internalType": "uint256",
          "name": "",
          "type": "uint256"
        }
      ],
      "payable": false,
      "stateMutability": "view",
      "type": "function"
    },
    {
      "constant": true,
      "inputs": [
        {
          "internalType": "address",
          "name": "",
          "type": "address"
        }
      ],
      "name": "mintGuardianPaused",
      "outputs": [
        {
          "internalType": "bool",
          "name": "",
          "type": "bool"
        }
      ],
      "payable": false,
      "stateMutability": "view",
      "type": "function"
    },
    {
      "constant": true,
      "inputs": [],
      "name": "oracle",
      "outputs": [
        {
          "internalType": "contract PriceOracle",
          "name": "",
          "type": "address"
        }
      ],
      "payable": false,
      "stateMutability": "view",
      "type": "function"
    },
    {
      "constant": true,
      "inputs": [],
      "name": "pauseGuardian",
      "outputs": [
        {
          "internalType": "address",
          "name": "",
          "type": "address"
        }
      ],
      "payable": false,
      "stateMutability": "view",
      "type": "function"
    },
    {
      "constant": true,
      "inputs": [],
      "name": "pendingAdmin",
      "outputs": [
        {
          "internalType": "address",
          "name": "",
          "type": "address"
        }
      ],
      "payable": false,
      "stateMutability": "view",
      "type": "function"
    },
    {
      "constant": true,
      "inputs": [],
      "name": "pendingSightrollerImplementation",
      "outputs": [
        {
          "internalType": "address",
          "name": "",
          "type": "address"
        }
      ],
      "payable": false,
      "stateMutability": "view",
      "type": "function"
    },
    {
      "constant": true,
      "inputs": [],
      "name": "seizeGuardianPaused",
      "outputs": [
        {
          "internalType": "bool",
          "name": "",
          "type": "bool"
        }
      ],
      "payable": false,
      "stateMutability": "view",
      "type": "function"
    },
    {
      "constant": true,
      "inputs": [],
      "name": "sightrollerImplementation",
      "outputs": [
        {
          "internalType": "address",
          "name": "",
          "type": "address"
        }
      ],
      "payable": false,
      "stateMutability": "view",
      "type": "function"
    },
    {
      "constant": true,
      "inputs": [],
      "name": "transferGuardianPaused",
      "outputs": [
        {
          "internalType": "bool",
          "name": "",
          "type": "bool"
        }
      ],
      "payable": false,
      "stateMutability": "view",
      "type": "function"
    }
  ],
  "bytecode": "0x608060405234801561001057600080fd5b506103f1806100206000396000f3fe608060405234801561001057600080fd5b506004361061010b5760003560e01c806387f76303116100a2578063dce1544911610071578063dce1544914610236578063e6653f3d14610262578063e76b97e11461026a578063e875544614610272578063f851a4401461027a5761010b565b806387f76303146101ce5780638e8f294b146101d657806394b2294b14610226578063ac0b0bb71461022e5761010b565b80634ada90af116100de5780634ada90af146101605780636d154ea51461017a578063731f0c2b146101a05780637dc0d1d0146101c65761010b565b806324a3d6221461011057806326782247146101345780633c94786f1461013c5780633e65a58d14610158575b600080fd5b610118610282565b604080516001600160a01b039092168252519081900360200190f35b610118610291565b6101446102a0565b604080519115158252519081900360200190f35b6101186102b0565b6101686102bf565b60408051918252519081900360200190f35b6101446004803603602081101561019057600080fd5b50356001600160a01b03166102c5565b610144600480360360208110156101b657600080fd5b50356001600160a01b03166102da565b6101186102ef565b6101446102fe565b6101fc600480360360208110156101ec57600080fd5b50356001600160a01b031661030e565b60408051941515855260208501939093529015158383015215156060830152519081900360800190f35b61016861033d565b610144610343565b6101186004803603604081101561024c57600080fd5b506001600160a01b038135169060200135610353565b610144610388565b610118610398565b6101686103a7565b6101186103ad565b600a546001600160a01b031681565b6001546001600160a01b031681565b600a54600160a01b900460ff1681565b6002546001600160a01b031681565b60065481565b600c6020526000908152604090205460ff1681565b600b6020526000908152604090205460ff1681565b6004546001600160a01b031681565b600a54600160b01b900460ff1681565b60096020526000908152604090208054600182015460039092015460ff91821692918181169161010090041684565b60075481565b600a54600160b81b900460ff1681565b6008602052816000526040600020818154811061036c57fe5b6000918252602090912001546001600160a01b03169150829050565b600a54600160a81b900460ff1681565b6003546001600160a01b031681565b60055481565b6000546001600160a01b03168156fea265627a7a7231582047eb20119aab6752e601fb24464d5f6c9a65ec237b1f576878616fae88041cb364736f6c63430005100032",
  "source": "pragma solidity ^0.5.16;\n\nimport \"../Tokens/CToken.sol\";\nimport \"../PriceOracle.sol\";\n\n\ncontract UnitrollerAdminStorage {\n    /**\n    * @notice Administrator for this contract\n    */\n    address public admin;\n\n    /**\n    * @notice Pending administrator for this contract\n    */\n    address public pendingAdmin;\n\n    /**\n    * @notice Active brains of Unitroller\n    */\n    address public sightrollerImplementation;\n\n    /**\n    * @notice Pending brains of Unitroller\n    */\n    address public pendingSightrollerImplementation;\n}\n\n\n\n\n\ncontract SightrollerV1Storage is UnitrollerAdminStorage {\n\n    /**\n     * @notice Oracle which gives the price of any given asset\n     */\n    PriceOracle public oracle;\n\n    /**\n     * @notice Multiplier used to calculate the maximum repayAmount when liquidating a borrow\n     */\n    uint public closeFactorMantissa;\n\n    /**\n     * @notice Multiplier representing the discount on collateral that a liquidator receives\n     */\n    uint public liquidationIncentiveMantissa;\n\n    /**\n     * @notice Max number of assets a single account can participate in (borrow or use as collateral)\n     */\n    uint public maxAssets;\n\n    /**\n     * @notice Per-account mapping of \"assets you are in\", capped by maxAssets\n     */\n    mapping(address => CToken[]) public accountAssets;\n\n}\n\n\n\n\n\ncontract SightrollerV2Storage is SightrollerV1Storage {\n\n    struct Market {\n        /// @notice Whether or not this market is listed\n        bool isListed;\n\n        /**\n         * @notice Multiplier representing the most one can borrow against their collateral in this market.\n         *  For instance, 0.9 to allow borrowing 90% of collateral value.\n         *  Must be between 0 and 1, and stored as a mantissa.\n         */\n        uint collateralFactorMantissa;\n\n        /// @notice Per-market mapping of \"accounts in this asset\"\n        mapping(address => bool) accountMembership;\n\n        /// @notice Whether or not this market receives Gsigh\n        bool isGsighed;\n\n        /// @notice Whether or not this market receives SIGH\n        bool isSighed;\n\n    }\n\n    /**\n     * @notice Official mapping of cTokens -> Market metadata\n     * @dev Used e.g. to determine if a market is supported\n     */\n    mapping(address => Market) public markets;\n\n\n    /**\n     * @notice The Pause Guardian can pause certain actions as a safety mechanism.\n     *  Actions which allow users to remove their own assets cannot be paused.\n     *  Liquidation / seizing / transfer can only be paused globally, not by market.\n     */\n    address public pauseGuardian;\n    bool public _mintGuardianPaused;\n    bool public _borrowGuardianPaused;\n    bool public transferGuardianPaused;\n    bool public seizeGuardianPaused;\n    mapping(address => bool) public mintGuardianPaused;\n    mapping(address => bool) public borrowGuardianPaused;\n}\n\n\n\n\n\n\n\ncontract SightrollerV3Storage is SightrollerV2Storage {\n\n    struct GsighMarketState {\n        /// @notice The market's last updated GsighBorrowIndex or GsighSupplyIndex\n        uint224 index;\n\n        /// @notice The block number the index was last updated at\n        uint32 block;\n    }\n\n    /// @notice A list of all markets\n    CToken[] public allMarkets;\n\n    /// @notice The rate at which the flywheel distributes Gsigh, per block\n    uint public gsighRate;\n\n    /// @notice The portion of gsighRate that each market currently receives\n    mapping(address => uint) public gsighSpeeds;\n\n    /// @notice The Gsigh market supply state for each market\n    mapping(address => GsighMarketState) public gsighSupplyState;\n\n    /// @notice The Gsigh market borrow state for each market\n    mapping(address => GsighMarketState) public gsighBorrowState;\n\n    /// @notice The Gsigh borrow index for each market for each supplier as of the last time they accrued Gsigh\n    mapping(address => mapping(address => uint)) public gsighSupplierIndex;\n\n    /// @notice The Gsigh borrow index for each market for each borrower as of the last time they accrued Gsigh\n    mapping(address => mapping(address => uint)) public gsighBorrowerIndex;\n\n    /// @notice The Gsigh accrued but not yet transferred to each user\n    mapping(address => uint) public gsighAccrued;\n}\n\n\ncontract SightrollerV4Storage is SightrollerV3Storage {\n\n    struct SighMarketState {\n\n        // uint256 totalSighDistributed;\n\n        // uint256 recentSighDistributed;\n\n        /// @notice The market's last updated Index\n        uint224 index;\n\n        /// @notice The block number the index was last updated at\n        uint32 block;\n    }\n\n\n    /// @notice The rate at which the flywheel distributes SIGH, per block. Calculated Daily\n    uint public sighRate;\n\n    /// @notice The portion of SighRate that each market currently receives, is adjusted every hour\n    mapping(address => uint) public sighSpeeds;\n\n    /// @notice The SIGH market supply state for each market\n    mapping(address => SighMarketState) public sighSupplyState;\n\n    /// @notice The SIGH market borrow state for each market\n    mapping(address => SighMarketState) public sighBorrowState;\n\n    /// @notice The SIGH borrow index for each market for each supplier as of the last time they accrued SIGH\n    mapping(address => mapping(address => uint)) public sighSupplierIndex;\n\n    /// @notice The SIGH borrow index for each market for each borrower as of the last time they accrued SIGH\n    mapping(address => mapping(address => uint)) public sighBorrowerIndex;\n\n    /// @notice The SIGH accrued but not yet transferred to each user\n    mapping(address => uint) public sighAccrued;\n}\n",
  "sourcePath": "/Users/apple/Desktop/GITCOIN/Sigh_Finance/SighFinanceContracts/contracts/Sightroller/SightrollerStorage.sol",
  "compiler": {
    "name": "solc",
    "version": "0.5.16+commit.9c3226ce.Emscripten.clang"
  },
  "schemaVersion": "3.2.4",
  "updatedAt": "2020-09-24T07:56:12.837Z",
  "devdoc": {
    "methods": {}
  },
  "userdoc": {
    "methods": {}
  }
}