{
  "contractName": "SightrollerV4Storage",
  "abi": [
    {
      "constant": true,
      "inputs": [],
      "name": "_borrowGuardianPaused",
      "outputs": [
        {
          "internalType": "bool",
          "name": "",
          "type": "bool"
        }
      ],
      "payable": false,
      "stateMutability": "view",
      "type": "function"
    },
    {
      "constant": true,
      "inputs": [],
      "name": "_mintGuardianPaused",
      "outputs": [
        {
          "internalType": "bool",
          "name": "",
          "type": "bool"
        }
      ],
      "payable": false,
      "stateMutability": "view",
      "type": "function"
    },
    {
      "constant": true,
      "inputs": [
        {
          "internalType": "address",
          "name": "",
          "type": "address"
        },
        {
          "internalType": "uint256",
          "name": "",
          "type": "uint256"
        }
      ],
      "name": "accountAssets",
      "outputs": [
        {
          "internalType": "contract CToken",
          "name": "",
          "type": "address"
        }
      ],
      "payable": false,
      "stateMutability": "view",
      "type": "function"
    },
    {
      "constant": true,
      "inputs": [],
      "name": "admin",
      "outputs": [
        {
          "internalType": "address",
          "name": "",
          "type": "address"
        }
      ],
      "payable": false,
      "stateMutability": "view",
      "type": "function"
    },
    {
      "constant": true,
      "inputs": [
        {
          "internalType": "uint256",
          "name": "",
          "type": "uint256"
        }
      ],
      "name": "allMarkets",
      "outputs": [
        {
          "internalType": "contract CToken",
          "name": "",
          "type": "address"
        }
      ],
      "payable": false,
      "stateMutability": "view",
      "type": "function"
    },
    {
      "constant": true,
      "inputs": [
        {
          "internalType": "address",
          "name": "",
          "type": "address"
        }
      ],
      "name": "borrowGuardianPaused",
      "outputs": [
        {
          "internalType": "bool",
          "name": "",
          "type": "bool"
        }
      ],
      "payable": false,
      "stateMutability": "view",
      "type": "function"
    },
    {
      "constant": true,
      "inputs": [],
      "name": "closeFactorMantissa",
      "outputs": [
        {
          "internalType": "uint256",
          "name": "",
          "type": "uint256"
        }
      ],
      "payable": false,
      "stateMutability": "view",
      "type": "function"
    },
    {
      "constant": true,
      "inputs": [
        {
          "internalType": "address",
          "name": "",
          "type": "address"
        }
      ],
      "name": "gsighAccrued",
      "outputs": [
        {
          "internalType": "uint256",
          "name": "",
          "type": "uint256"
        }
      ],
      "payable": false,
      "stateMutability": "view",
      "type": "function"
    },
    {
      "constant": true,
      "inputs": [
        {
          "internalType": "address",
          "name": "",
          "type": "address"
        }
      ],
      "name": "gsighBorrowState",
      "outputs": [
        {
          "internalType": "uint224",
          "name": "index",
          "type": "uint224"
        },
        {
          "internalType": "uint32",
          "name": "block",
          "type": "uint32"
        }
      ],
      "payable": false,
      "stateMutability": "view",
      "type": "function"
    },
    {
      "constant": true,
      "inputs": [
        {
          "internalType": "address",
          "name": "",
          "type": "address"
        },
        {
          "internalType": "address",
          "name": "",
          "type": "address"
        }
      ],
      "name": "gsighBorrowerIndex",
      "outputs": [
        {
          "internalType": "uint256",
          "name": "",
          "type": "uint256"
        }
      ],
      "payable": false,
      "stateMutability": "view",
      "type": "function"
    },
    {
      "constant": true,
      "inputs": [],
      "name": "gsighRate",
      "outputs": [
        {
          "internalType": "uint256",
          "name": "",
          "type": "uint256"
        }
      ],
      "payable": false,
      "stateMutability": "view",
      "type": "function"
    },
    {
      "constant": true,
      "inputs": [
        {
          "internalType": "address",
          "name": "",
          "type": "address"
        }
      ],
      "name": "gsighSpeeds",
      "outputs": [
        {
          "internalType": "uint256",
          "name": "",
          "type": "uint256"
        }
      ],
      "payable": false,
      "stateMutability": "view",
      "type": "function"
    },
    {
      "constant": true,
      "inputs": [
        {
          "internalType": "address",
          "name": "",
          "type": "address"
        },
        {
          "internalType": "address",
          "name": "",
          "type": "address"
        }
      ],
      "name": "gsighSupplierIndex",
      "outputs": [
        {
          "internalType": "uint256",
          "name": "",
          "type": "uint256"
        }
      ],
      "payable": false,
      "stateMutability": "view",
      "type": "function"
    },
    {
      "constant": true,
      "inputs": [
        {
          "internalType": "address",
          "name": "",
          "type": "address"
        }
      ],
      "name": "gsighSupplyState",
      "outputs": [
        {
          "internalType": "uint224",
          "name": "index",
          "type": "uint224"
        },
        {
          "internalType": "uint32",
          "name": "block",
          "type": "uint32"
        }
      ],
      "payable": false,
      "stateMutability": "view",
      "type": "function"
    },
    {
      "constant": true,
      "inputs": [],
      "name": "liquidationIncentiveMantissa",
      "outputs": [
        {
          "internalType": "uint256",
          "name": "",
          "type": "uint256"
        }
      ],
      "payable": false,
      "stateMutability": "view",
      "type": "function"
    },
    {
      "constant": true,
      "inputs": [
        {
          "internalType": "address",
          "name": "",
          "type": "address"
        }
      ],
      "name": "markets",
      "outputs": [
        {
          "internalType": "bool",
          "name": "isListed",
          "type": "bool"
        },
        {
          "internalType": "uint256",
          "name": "collateralFactorMantissa",
          "type": "uint256"
        },
        {
          "internalType": "bool",
          "name": "isGsighed",
          "type": "bool"
        },
        {
          "internalType": "bool",
          "name": "isSighed",
          "type": "bool"
        }
      ],
      "payable": false,
      "stateMutability": "view",
      "type": "function"
    },
    {
      "constant": true,
      "inputs": [],
      "name": "maxAssets",
      "outputs": [
        {
          "internalType": "uint256",
          "name": "",
          "type": "uint256"
        }
      ],
      "payable": false,
      "stateMutability": "view",
      "type": "function"
    },
    {
      "constant": true,
      "inputs": [
        {
          "internalType": "address",
          "name": "",
          "type": "address"
        }
      ],
      "name": "mintGuardianPaused",
      "outputs": [
        {
          "internalType": "bool",
          "name": "",
          "type": "bool"
        }
      ],
      "payable": false,
      "stateMutability": "view",
      "type": "function"
    },
    {
      "constant": true,
      "inputs": [],
      "name": "oracle",
      "outputs": [
        {
          "internalType": "contract PriceOracle",
          "name": "",
          "type": "address"
        }
      ],
      "payable": false,
      "stateMutability": "view",
      "type": "function"
    },
    {
      "constant": true,
      "inputs": [],
      "name": "pauseGuardian",
      "outputs": [
        {
          "internalType": "address",
          "name": "",
          "type": "address"
        }
      ],
      "payable": false,
      "stateMutability": "view",
      "type": "function"
    },
    {
      "constant": true,
      "inputs": [],
      "name": "pendingAdmin",
      "outputs": [
        {
          "internalType": "address",
          "name": "",
          "type": "address"
        }
      ],
      "payable": false,
      "stateMutability": "view",
      "type": "function"
    },
    {
      "constant": true,
      "inputs": [],
      "name": "pendingSightrollerImplementation",
      "outputs": [
        {
          "internalType": "address",
          "name": "",
          "type": "address"
        }
      ],
      "payable": false,
      "stateMutability": "view",
      "type": "function"
    },
    {
      "constant": true,
      "inputs": [],
      "name": "seizeGuardianPaused",
      "outputs": [
        {
          "internalType": "bool",
          "name": "",
          "type": "bool"
        }
      ],
      "payable": false,
      "stateMutability": "view",
      "type": "function"
    },
    {
      "constant": true,
      "inputs": [
        {
          "internalType": "address",
          "name": "",
          "type": "address"
        }
      ],
      "name": "sighAccrued",
      "outputs": [
        {
          "internalType": "uint256",
          "name": "",
          "type": "uint256"
        }
      ],
      "payable": false,
      "stateMutability": "view",
      "type": "function"
    },
    {
      "constant": true,
      "inputs": [
        {
          "internalType": "address",
          "name": "",
          "type": "address"
        }
      ],
      "name": "sighBorrowState",
      "outputs": [
        {
          "internalType": "uint224",
          "name": "index",
          "type": "uint224"
        },
        {
          "internalType": "uint32",
          "name": "block",
          "type": "uint32"
        }
      ],
      "payable": false,
      "stateMutability": "view",
      "type": "function"
    },
    {
      "constant": true,
      "inputs": [
        {
          "internalType": "address",
          "name": "",
          "type": "address"
        },
        {
          "internalType": "address",
          "name": "",
          "type": "address"
        }
      ],
      "name": "sighBorrowerIndex",
      "outputs": [
        {
          "internalType": "uint256",
          "name": "",
          "type": "uint256"
        }
      ],
      "payable": false,
      "stateMutability": "view",
      "type": "function"
    },
    {
      "constant": true,
      "inputs": [],
      "name": "sighRate",
      "outputs": [
        {
          "internalType": "uint256",
          "name": "",
          "type": "uint256"
        }
      ],
      "payable": false,
      "stateMutability": "view",
      "type": "function"
    },
    {
      "constant": true,
      "inputs": [
        {
          "internalType": "address",
          "name": "",
          "type": "address"
        }
      ],
      "name": "sighSpeeds",
      "outputs": [
        {
          "internalType": "uint256",
          "name": "",
          "type": "uint256"
        }
      ],
      "payable": false,
      "stateMutability": "view",
      "type": "function"
    },
    {
      "constant": true,
      "inputs": [
        {
          "internalType": "address",
          "name": "",
          "type": "address"
        },
        {
          "internalType": "address",
          "name": "",
          "type": "address"
        }
      ],
      "name": "sighSupplierIndex",
      "outputs": [
        {
          "internalType": "uint256",
          "name": "",
          "type": "uint256"
        }
      ],
      "payable": false,
      "stateMutability": "view",
      "type": "function"
    },
    {
      "constant": true,
      "inputs": [
        {
          "internalType": "address",
          "name": "",
          "type": "address"
        }
      ],
      "name": "sighSupplyState",
      "outputs": [
        {
          "internalType": "uint224",
          "name": "index",
          "type": "uint224"
        },
        {
          "internalType": "uint32",
          "name": "block",
          "type": "uint32"
        }
      ],
      "payable": false,
      "stateMutability": "view",
      "type": "function"
    },
    {
      "constant": true,
      "inputs": [],
      "name": "sightrollerImplementation",
      "outputs": [
        {
          "internalType": "address",
          "name": "",
          "type": "address"
        }
      ],
      "payable": false,
      "stateMutability": "view",
      "type": "function"
    },
    {
      "constant": true,
      "inputs": [],
      "name": "transferGuardianPaused",
      "outputs": [
        {
          "internalType": "bool",
          "name": "",
          "type": "bool"
        }
      ],
      "payable": false,
      "stateMutability": "view",
      "type": "function"
    }
  ],
  "bytecode": "0x608060405234801561001057600080fd5b506108aa806100206000396000f3fe608060405234801561001057600080fd5b50600436106101f05760003560e01c806377b182a31161010f578063b98ea078116100a2578063e6653f3d11610071578063e6653f3d14610584578063e76b97e11461058c578063e875544614610594578063f851a4401461059c576101f0565b8063b98ea078146104fc578063cc456b2914610522578063d1caf18814610550578063dce1544914610558576101f0565b80638e8f294b116100de5780638e8f294b1461046e57806394b2294b146104be578063956a56b6146104c6578063ac0b0bb7146104f4576101f0565b806377b182a3146104285780637dc0d1d01461043057806387f76303146104385780638bb3546814610440576101f0565b806352d84d1e116101875780636d154ea5116101565780636d154ea5146103905780636d8695b3146103b657806370ac6fc3146103dc578063731f0c2b14610402576101f0565b806352d84d1e146102d157806355f65bb1146102ee5780635e43c0c31461033c5780636bd6553614610362576101f0565b80633c94786f116101c35780633c94786f1461027f5780633e65a58d1461029b5780634ada90af146102a35780634e0212f6146102ab576101f0565b806313730907146101f557806324a3d6221461022d57806326782247146102515780633b554a0f14610259575b600080fd5b61021b6004803603602081101561020b57600080fd5b50356001600160a01b03166105a4565b60408051918252519081900360200190f35b6102356105b6565b604080516001600160a01b039092168252519081900360200190f35b6102356105c5565b61021b6004803603602081101561026f57600080fd5b50356001600160a01b03166105d4565b6102876105e6565b604080519115158252519081900360200190f35b6102356105f6565b61021b610605565b61021b600480360360208110156102c157600080fd5b50356001600160a01b031661060b565b610235600480360360208110156102e757600080fd5b503561061d565b6103146004803603602081101561030457600080fd5b50356001600160a01b0316610644565b604080516001600160e01b03909316835263ffffffff90911660208301528051918290030190f35b6103146004803603602081101561035257600080fd5b50356001600160a01b031661066e565b61021b6004803603604081101561037857600080fd5b506001600160a01b0381358116916020013516610698565b610287600480360360208110156103a657600080fd5b50356001600160a01b03166106b5565b61021b600480360360208110156103cc57600080fd5b50356001600160a01b03166106ca565b610314600480360360208110156103f257600080fd5b50356001600160a01b03166106dc565b6102876004803603602081101561041857600080fd5b50356001600160a01b0316610706565b61021b61071b565b610235610721565b610287610730565b61021b6004803603604081101561045657600080fd5b506001600160a01b0381358116916020013516610740565b6104946004803603602081101561048457600080fd5b50356001600160a01b031661075d565b60408051941515855260208501939093529015158383015215156060830152519081900360800190f35b61021b61078c565b61021b600480360360408110156104dc57600080fd5b506001600160a01b0381358116916020013516610792565b6102876107af565b6103146004803603602081101561051257600080fd5b50356001600160a01b03166107bf565b61021b6004803603604081101561053857600080fd5b506001600160a01b03813581169160200135166107e9565b61021b610806565b6102356004803603604081101561056e57600080fd5b506001600160a01b03813516906020013561080c565b610287610841565b610235610851565b61021b610860565b610235610866565b60166020526000908152604090205481565b600a546001600160a01b031681565b6001546001600160a01b031681565b60146020526000908152604090205481565b600a54600160a01b900460ff1681565b6002546001600160a01b031681565b60065481565b601b6020526000908152604090205481565b600d818154811061062a57fe5b6000918252602090912001546001600160a01b0316905081565b6011602052600090815260409020546001600160e01b03811690600160e01b900463ffffffff1682565b6010602052600090815260409020546001600160e01b03811690600160e01b900463ffffffff1682565b601360209081526000928352604080842090915290825290205481565b600c6020526000908152604090205460ff1681565b600f6020526000908152604090205481565b6017602052600090815260409020546001600160e01b03811690600160e01b900463ffffffff1682565b600b6020526000908152604090205460ff1681565b60155481565b6004546001600160a01b031681565b600a54600160b01b900460ff1681565b601a60209081526000928352604080842090915290825290205481565b60096020526000908152604090208054600182015460039092015460ff91821692918181169161010090041684565b60075481565b601960209081526000928352604080842090915290825290205481565b600a54600160b81b900460ff1681565b6018602052600090815260409020546001600160e01b03811690600160e01b900463ffffffff1682565b601260209081526000928352604080842090915290825290205481565b600e5481565b6008602052816000526040600020818154811061082557fe5b6000918252602090912001546001600160a01b03169150829050565b600a54600160a81b900460ff1681565b6003546001600160a01b031681565b60055481565b6000546001600160a01b03168156fea265627a7a72315820d77087068adcf44d88b0749513f598830119734a541114dd7bf10b620764118c64736f6c63430005100032",
  "source": "pragma solidity ^0.5.16;\n\nimport \"../Tokens/CToken.sol\";\nimport \"../PriceOracle.sol\";\n\n\ncontract UnitrollerAdminStorage {\n    /**\n    * @notice Administrator for this contract\n    */\n    address public admin;\n\n    /**\n    * @notice Pending administrator for this contract\n    */\n    address public pendingAdmin;\n\n    /**\n    * @notice Active brains of Unitroller\n    */\n    address public sightrollerImplementation;\n\n    /**\n    * @notice Pending brains of Unitroller\n    */\n    address public pendingSightrollerImplementation;\n}\n\n\n\n\n\ncontract SightrollerV1Storage is UnitrollerAdminStorage {\n\n    /**\n     * @notice Oracle which gives the price of any given asset\n     */\n    PriceOracle public oracle;\n\n    /**\n     * @notice Multiplier used to calculate the maximum repayAmount when liquidating a borrow\n     */\n    uint public closeFactorMantissa;\n\n    /**\n     * @notice Multiplier representing the discount on collateral that a liquidator receives\n     */\n    uint public liquidationIncentiveMantissa;\n\n    /**\n     * @notice Max number of assets a single account can participate in (borrow or use as collateral)\n     */\n    uint public maxAssets;\n\n    /**\n     * @notice Per-account mapping of \"assets you are in\", capped by maxAssets\n     */\n    mapping(address => CToken[]) public accountAssets;\n\n}\n\n\n\n\n\ncontract SightrollerV2Storage is SightrollerV1Storage {\n\n    struct Market {\n        /// @notice Whether or not this market is listed\n        bool isListed;\n\n        /**\n         * @notice Multiplier representing the most one can borrow against their collateral in this market.\n         *  For instance, 0.9 to allow borrowing 90% of collateral value.\n         *  Must be between 0 and 1, and stored as a mantissa.\n         */\n        uint collateralFactorMantissa;\n\n        /// @notice Per-market mapping of \"accounts in this asset\"\n        mapping(address => bool) accountMembership;\n\n        /// @notice Whether or not this market receives Gsigh\n        bool isGsighed;\n\n        /// @notice Whether or not this market receives SIGH\n        bool isSighed;\n\n    }\n\n    /**\n     * @notice Official mapping of cTokens -> Market metadata\n     * @dev Used e.g. to determine if a market is supported\n     */\n    mapping(address => Market) public markets;\n\n\n    /**\n     * @notice The Pause Guardian can pause certain actions as a safety mechanism.\n     *  Actions which allow users to remove their own assets cannot be paused.\n     *  Liquidation / seizing / transfer can only be paused globally, not by market.\n     */\n    address public pauseGuardian;\n    bool public _mintGuardianPaused;\n    bool public _borrowGuardianPaused;\n    bool public transferGuardianPaused;\n    bool public seizeGuardianPaused;\n    mapping(address => bool) public mintGuardianPaused;\n    mapping(address => bool) public borrowGuardianPaused;\n}\n\n\n\n\n\n\n\ncontract SightrollerV3Storage is SightrollerV2Storage {\n\n    struct GsighMarketState {\n        /// @notice The market's last updated GsighBorrowIndex or GsighSupplyIndex\n        uint224 index;\n\n        /// @notice The block number the index was last updated at\n        uint32 block;\n    }\n\n    /// @notice A list of all markets\n    CToken[] public allMarkets;\n\n    /// @notice The rate at which the flywheel distributes Gsigh, per block\n    uint public gsighRate;\n\n    /// @notice The portion of gsighRate that each market currently receives\n    mapping(address => uint) public gsighSpeeds;\n\n    /// @notice The Gsigh market supply state for each market\n    mapping(address => GsighMarketState) public gsighSupplyState;\n\n    /// @notice The Gsigh market borrow state for each market\n    mapping(address => GsighMarketState) public gsighBorrowState;\n\n    /// @notice The Gsigh borrow index for each market for each supplier as of the last time they accrued Gsigh\n    mapping(address => mapping(address => uint)) public gsighSupplierIndex;\n\n    /// @notice The Gsigh borrow index for each market for each borrower as of the last time they accrued Gsigh\n    mapping(address => mapping(address => uint)) public gsighBorrowerIndex;\n\n    /// @notice The Gsigh accrued but not yet transferred to each user\n    mapping(address => uint) public gsighAccrued;\n}\n\n\ncontract SightrollerV4Storage is SightrollerV3Storage {\n\n    struct SighMarketState {\n\n        // uint256 totalSighDistributed;\n\n        // uint256 recentSighDistributed;\n\n        /// @notice The market's last updated Index\n        uint224 index;\n\n        /// @notice The block number the index was last updated at\n        uint32 block;\n    }\n\n\n    /// @notice The rate at which the flywheel distributes SIGH, per block. Calculated Daily\n    uint public sighRate;\n\n    /// @notice The portion of SighRate that each market currently receives, is adjusted every hour\n    mapping(address => uint) public sighSpeeds;\n\n    /// @notice The SIGH market supply state for each market\n    mapping(address => SighMarketState) public sighSupplyState;\n\n    /// @notice The SIGH market borrow state for each market\n    mapping(address => SighMarketState) public sighBorrowState;\n\n    /// @notice The SIGH borrow index for each market for each supplier as of the last time they accrued SIGH\n    mapping(address => mapping(address => uint)) public sighSupplierIndex;\n\n    /// @notice The SIGH borrow index for each market for each borrower as of the last time they accrued SIGH\n    mapping(address => mapping(address => uint)) public sighBorrowerIndex;\n\n    /// @notice The SIGH accrued but not yet transferred to each user\n    mapping(address => uint) public sighAccrued;\n}\n",
  "sourcePath": "/Users/apple/Desktop/GITCOIN/Sigh_Finance/SighFinanceContracts/contracts/Sightroller/SightrollerStorage.sol",
  "compiler": {
    "name": "solc",
    "version": "0.5.16+commit.9c3226ce.Emscripten.clang"
  },
  "schemaVersion": "3.2.4",
  "updatedAt": "2020-09-20T13:31:31.034Z",
  "devdoc": {
    "methods": {}
  },
  "userdoc": {
    "methods": {}
  }
}