{
  "contractName": "SighSpeedController",
  "abi": [
    {
      "inputs": [
        {
          "internalType": "address",
          "name": "sighInstrument_",
          "type": "address"
        },
        {
          "internalType": "address",
          "name": "_addressesProvider",
          "type": "address"
        }
      ],
      "payable": false,
      "stateMutability": "nonpayable",
      "type": "constructor"
    },
    {
      "anonymous": false,
      "inputs": [
        {
          "indexed": false,
          "internalType": "uint256",
          "name": "blockNumber",
          "type": "uint256"
        }
      ],
      "name": "DistributionInitialized",
      "type": "event"
    },
    {
      "anonymous": false,
      "inputs": [
        {
          "indexed": false,
          "internalType": "address",
          "name": "protocolAddress",
          "type": "address"
        },
        {
          "indexed": false,
          "internalType": "uint256",
          "name": "prevSpeed",
          "type": "uint256"
        },
        {
          "indexed": false,
          "internalType": "uint256",
          "name": "newSpeed",
          "type": "uint256"
        },
        {
          "indexed": false,
          "internalType": "uint256",
          "name": "blockNumber",
          "type": "uint256"
        }
      ],
      "name": "DistributionSpeedChanged",
      "type": "event"
    },
    {
      "anonymous": false,
      "inputs": [
        {
          "indexed": false,
          "internalType": "address",
          "name": "protocolAddress",
          "type": "address"
        },
        {
          "indexed": false,
          "internalType": "uint256",
          "name": "deltaBlocks",
          "type": "uint256"
        },
        {
          "indexed": false,
          "internalType": "uint256",
          "name": "distributionSpeed",
          "type": "uint256"
        },
        {
          "indexed": false,
          "internalType": "uint256",
          "name": "AmountDripped",
          "type": "uint256"
        },
        {
          "indexed": false,
          "internalType": "uint256",
          "name": "totalAmountDripped",
          "type": "uint256"
        },
        {
          "indexed": false,
          "internalType": "uint256",
          "name": "blockNumber",
          "type": "uint256"
        }
      ],
      "name": "Dripped",
      "type": "event"
    },
    {
      "anonymous": false,
      "inputs": [
        {
          "indexed": false,
          "internalType": "address",
          "name": "protocolAddress",
          "type": "address"
        },
        {
          "indexed": false,
          "internalType": "uint256",
          "name": "sighSpeed",
          "type": "uint256"
        },
        {
          "indexed": false,
          "internalType": "uint256",
          "name": "totalDrippedAmount",
          "type": "uint256"
        },
        {
          "indexed": false,
          "internalType": "uint256",
          "name": "blockNumber",
          "type": "uint256"
        }
      ],
      "name": "NewProtocolSupported",
      "type": "event"
    },
    {
      "anonymous": false,
      "inputs": [
        {
          "indexed": false,
          "internalType": "address",
          "name": "protocolAddress",
          "type": "address"
        },
        {
          "indexed": false,
          "internalType": "uint256",
          "name": "totalDrippedToProtocol",
          "type": "uint256"
        },
        {
          "indexed": false,
          "internalType": "uint256",
          "name": "blockNumber",
          "type": "uint256"
        }
      ],
      "name": "ProtocolRemoved",
      "type": "event"
    },
    {
      "constant": false,
      "inputs": [],
      "name": "beginDripping",
      "outputs": [
        {
          "internalType": "bool",
          "name": "",
          "type": "bool"
        }
      ],
      "payable": false,
      "stateMutability": "nonpayable",
      "type": "function"
    },
    {
      "constant": false,
      "inputs": [
        {
          "internalType": "address",
          "name": "newProtocolAddress",
          "type": "address"
        },
        {
          "internalType": "uint256",
          "name": "sighSpeed",
          "type": "uint256"
        }
      ],
      "name": "supportNewProtocol",
      "outputs": [
        {
          "internalType": "bool",
          "name": "",
          "type": "bool"
        }
      ],
      "payable": false,
      "stateMutability": "nonpayable",
      "type": "function"
    },
    {
      "constant": false,
      "inputs": [
        {
          "internalType": "address",
          "name": "protocolAddress_",
          "type": "address"
        }
      ],
      "name": "removeSupportedProtocol",
      "outputs": [
        {
          "internalType": "bool",
          "name": "",
          "type": "bool"
        }
      ],
      "payable": false,
      "stateMutability": "nonpayable",
      "type": "function"
    },
    {
      "constant": false,
      "inputs": [
        {
          "internalType": "address",
          "name": "targetAddress",
          "type": "address"
        },
        {
          "internalType": "uint256",
          "name": "newSpeed_",
          "type": "uint256"
        }
      ],
      "name": "changeProtocolSIGHSpeed",
      "outputs": [
        {
          "internalType": "bool",
          "name": "",
          "type": "bool"
        }
      ],
      "payable": false,
      "stateMutability": "nonpayable",
      "type": "function"
    },
    {
      "constant": false,
      "inputs": [],
      "name": "drip",
      "outputs": [],
      "payable": false,
      "stateMutability": "nonpayable",
      "type": "function"
    },
    {
      "constant": true,
      "inputs": [],
      "name": "getSighAddress",
      "outputs": [
        {
          "internalType": "address",
          "name": "",
          "type": "address"
        }
      ],
      "payable": false,
      "stateMutability": "view",
      "type": "function"
    },
    {
      "constant": true,
      "inputs": [],
      "name": "getGlobalAddressProvider",
      "outputs": [
        {
          "internalType": "address",
          "name": "",
          "type": "address"
        }
      ],
      "payable": false,
      "stateMutability": "view",
      "type": "function"
    },
    {
      "constant": true,
      "inputs": [],
      "name": "getSIGHBalance",
      "outputs": [
        {
          "internalType": "uint256",
          "name": "",
          "type": "uint256"
        }
      ],
      "payable": false,
      "stateMutability": "view",
      "type": "function"
    },
    {
      "constant": true,
      "inputs": [],
      "name": "getSupportedProtocols",
      "outputs": [
        {
          "internalType": "address[]",
          "name": "",
          "type": "address[]"
        }
      ],
      "payable": false,
      "stateMutability": "view",
      "type": "function"
    },
    {
      "constant": true,
      "inputs": [
        {
          "internalType": "address",
          "name": "protocolAddress",
          "type": "address"
        }
      ],
      "name": "isThisProtocolSupported",
      "outputs": [
        {
          "internalType": "bool",
          "name": "",
          "type": "bool"
        }
      ],
      "payable": false,
      "stateMutability": "view",
      "type": "function"
    },
    {
      "constant": true,
      "inputs": [
        {
          "internalType": "address",
          "name": "protocolAddress",
          "type": "address"
        }
      ],
      "name": "getSupportedProtocolState",
      "outputs": [
        {
          "internalType": "bool",
          "name": "isSupported",
          "type": "bool"
        },
        {
          "internalType": "uint256",
          "name": "distributionSpeed",
          "type": "uint256"
        },
        {
          "internalType": "uint256",
          "name": "totalDrippedAmount",
          "type": "uint256"
        },
        {
          "internalType": "uint256",
          "name": "recentlyDrippedAmount",
          "type": "uint256"
        }
      ],
      "payable": false,
      "stateMutability": "view",
      "type": "function"
    },
    {
      "constant": true,
      "inputs": [
        {
          "internalType": "address",
          "name": "protocolAddress",
          "type": "address"
        }
      ],
      "name": "getTotalAmountDistributedToProtocol",
      "outputs": [
        {
          "internalType": "uint256",
          "name": "",
          "type": "uint256"
        }
      ],
      "payable": false,
      "stateMutability": "view",
      "type": "function"
    },
    {
      "constant": true,
      "inputs": [
        {
          "internalType": "address",
          "name": "protocolAddress",
          "type": "address"
        }
      ],
      "name": "getRecentAmountDistributedToProtocol",
      "outputs": [
        {
          "internalType": "uint256",
          "name": "",
          "type": "uint256"
        }
      ],
      "payable": false,
      "stateMutability": "view",
      "type": "function"
    },
    {
      "constant": true,
      "inputs": [
        {
          "internalType": "address",
          "name": "protocolAddress",
          "type": "address"
        }
      ],
      "name": "getSIGHSpeedForProtocol",
      "outputs": [
        {
          "internalType": "uint256",
          "name": "",
          "type": "uint256"
        }
      ],
      "payable": false,
      "stateMutability": "view",
      "type": "function"
    },
    {
      "constant": true,
      "inputs": [],
      "name": "totalProtocolsSupported",
      "outputs": [
        {
          "internalType": "uint256",
          "name": "",
          "type": "uint256"
        }
      ],
      "payable": false,
      "stateMutability": "view",
      "type": "function"
    },
    {
      "constant": true,
      "inputs": [],
      "name": "_isDripAllowed",
      "outputs": [
        {
          "internalType": "bool",
          "name": "",
          "type": "bool"
        }
      ],
      "payable": false,
      "stateMutability": "view",
      "type": "function"
    },
    {
      "constant": true,
      "inputs": [],
      "name": "getlastDripBlockNumber",
      "outputs": [
        {
          "internalType": "uint256",
          "name": "",
          "type": "uint256"
        }
      ],
      "payable": false,
      "stateMutability": "view",
      "type": "function"
    }
  ],
  "bytecode": "0x60806040526001805460ff60a01b1916905534801561001d57600080fd5b506040516118513803806118518339818101604052604081101561004057600080fd5b508051602090910151600080546001600160a01b03199081166001600160a01b038086169182179384905560018054909316818616179092559116146100b75760405162461bcd60e51b815260040180806020018281038252602a815260200180611827602a913960400191505060405180910390fd5b6001546001600160a01b038281169116146101035760405162461bcd60e51b815260040180806020018281038252602c8152602001806117fb602c913960400191505060405180910390fd5b50506116e7806101146000396000f3fe608060405234801561001057600080fd5b506004361061010b5760003560e01c8063633eec44116100a2578063b02644d011610071578063b02644d0146102ce578063c6a6bfb1146102d6578063c9c90642146102de578063d2ee1ea614610304578063ebb3e0861461032a5761010b565b8063633eec441461026a57806378b122dc146102965780638438cc231461029e5780639f678cca146102c45761010b565b80634c2d2333116100de5780634c2d2333146101c2578063532913a5146101de5780635a2ac256146102365780635c8cfed81461023e5761010b565b80630259d8c114610110578063101cd9ca1461015e5780632aef904a14610178578063497a8ed41461019e575b600080fd5b6101366004803603602081101561012657600080fd5b50356001600160a01b0316610350565b6040805194151585526020850193909352838301919091526060830152519081900360800190f35b610166610383565b60408051918252519081900360200190f35b6101666004803603602081101561018e57600080fd5b50356001600160a01b031661038a565b6101a66103a9565b604080516001600160a01b039092168252519081900360200190f35b6101ca6103b8565b604080519115158252519081900360200190f35b6101e66103c8565b60408051602080825283518183015283519192839290830191858101910280838360005b8381101561022257818101518382015260200161020a565b505050509050019250505060405180910390f35b61016661042a565b6101ca6004803603604081101561025457600080fd5b506001600160a01b038135169060200135610430565b6101ca6004803603604081101561028057600080fd5b506001600160a01b0381351690602001356105e3565b6101ca610930565b6101ca600480360360208110156102b457600080fd5b50356001600160a01b0316610a95565b6102cc610d52565b005b6101a6610da4565b610166610db3565b610166600480360360208110156102f457600080fd5b50356001600160a01b0316610e36565b6101666004803603602081101561031a57600080fd5b50356001600160a01b0316610e54565b6101ca6004803603602081101561034057600080fd5b50356001600160a01b0316610e72565b6001600160a01b03166000908152600360208190526040909120805460018201546002830154929093015460ff90911693565b6004545b90565b6001600160a01b03166000908152600360208190526040909120015490565b6001546001600160a01b031690565b600154600160a01b900460ff1690565b6060600480548060200260200160405190810160405280929190818152602001828054801561042057602002820191906000526020600020905b81546001600160a01b03168152600190910190602001808311610402575b5050505050905090565b60025490565b6000336001600160a01b0316600160009054906101000a90046001600160a01b03166001600160a01b031663db49224b6040518163ffffffff1660e01b815260040160206040518083038186803b15801561048a57600080fd5b505afa15801561049e573d6000803e3d6000fd5b505050506040513d60208110156104b457600080fd5b50516001600160a01b0316146104fb5760405162461bcd60e51b815260040180806020018281038252603a81526020018061154b603a913960400191505060405180910390fd5b6001600160a01b03831660009081526003602052604090205460ff166105525760405162461bcd60e51b815260040180806020018281038252603a81526020018061149e603a913960400191505060405180910390fd5b600154600160a01b900460ff161561056c5761056c610e90565b6001600160a01b0383166000818152600360209081526040918290206001018054908690558251938452908301819052828201859052436060840152905190917fd91508c5e5e51cec5f1772d2fc7dfd76bd6f0f9de3696afffe91490121d73b90919081900360800190a160019150505b92915050565b6000336001600160a01b0316600160009054906101000a90046001600160a01b03166001600160a01b031663db49224b6040518163ffffffff1660e01b815260040160206040518083038186803b15801561063d57600080fd5b505afa158015610651573d6000803e3d6000fd5b505050506040513d602081101561066757600080fd5b50516001600160a01b0316146106ae5760405162461bcd60e51b815260040180806020018281038252603a81526020018061154b603a913960400191505060405180910390fd5b6001600160a01b03831660009081526003602052604090205460ff16156107065760405162461bcd60e51b815260040180806020018281038252603f81526020018061150c603f913960400191505060405180910390fd5b600154600160a01b900460ff161561072057610720610e90565b60048054600181019091557f8a35acfbc15ff81a39ae7d344fd709f28e8600b4aa8c65c6b64bfe7fe36bd19b0180546001600160a01b0319166001600160a01b038516908117909155600090815260036020526040902060020154156107ae576001600160a01b0383166000908152600360205260409020805460ff1916600190811782550182905561080e565b60408051608081018252600180825260208083018681526000848601818152606086018281526001600160a01b038b168352600394859052969091209451855460ff19169015151785559051928401929092559051600283015591519101555b436002556001600160a01b03831660009081526003602052604090205460ff166108695760405162461bcd60e51b815260040180806020018281038252602a815260200180611474602a913960400191505060405180910390fd5b6001600160a01b03831660009081526003602052604090206001015482146108c25760405162461bcd60e51b815260040180806020018281038252603d815260200180611585603d913960400191505060405180910390fd5b6001600160a01b038316600081815260036020908152604091829020600181015460029091015483519485529184015282820152436060830152517f37c08ff6da738f1c72ae4223548bf0fc53b4f97c5314a3c0cf0c940af9598ad79181900360800190a150600192915050565b6000336001600160a01b0316600160009054906101000a90046001600160a01b03166001600160a01b031663db49224b6040518163ffffffff1660e01b815260040160206040518083038186803b15801561098a57600080fd5b505afa15801561099e573d6000803e3d6000fd5b505050506040513d60208110156109b457600080fd5b50516001600160a01b0316146109fb5760405162461bcd60e51b815260040180806020018281038252603a81526020018061154b603a913960400191505060405180910390fd5b600154600160a01b900460ff1615610a445760405162461bcd60e51b815260040180806020018281038252602581526020018061168e6025913960400191505060405180910390fd5b6001805460ff60a01b1916600160a01b17905543600281905560408051918252517ff030f7afe867c9186d292811b9b968f3d2c4928e6aa2f12d6cc3eadf3205a1e19181900360200190a150600190565b6000336001600160a01b0316600160009054906101000a90046001600160a01b03166001600160a01b031663db49224b6040518163ffffffff1660e01b815260040160206040518083038186803b158015610aef57600080fd5b505afa158015610b03573d6000803e3d6000fd5b505050506040513d6020811015610b1957600080fd5b50516001600160a01b031614610b605760405162461bcd60e51b815260040180806020018281038252603a81526020018061154b603a913960400191505060405180910390fd5b6001600160a01b03821660009081526003602052604090205460ff16610bb75760405162461bcd60e51b81526004018080602001828103825260428152602001806115c26042913960600191505060405180910390fd5b600154600160a01b900460ff1615610bd157610bd1610e90565b600454600090815b81811015610c2357846001600160a01b031660048281548110610bf857fe5b6000918252602090912001546001600160a01b03161415610c1b57809250610c23565b600101610bd9565b5060046001820381548110610c3457fe5b600091825260209091200154600480546001600160a01b039092169184908110610c5a57fe5b600091825260209091200180546001600160a01b0319166001600160a01b03929092169190911790556004805490610c969060001983016113fb565b506004546000198201908114610cdd5760405162461bcd60e51b81526004018080602001828103825260348152602001806114d86034913960400191505060405180910390fd5b6001600160a01b0385166000818152600360209081526040808320805460ff1916815560018101939093556002909201548251938452908301524382820152517fe521b99e16fdffe28054ed6110b75589a9116a2bf0c462fd55f4d3b792380c3b9181900360600190a1506001949350505050565b600154600160a01b900460ff16610d9a5760405162461bcd60e51b815260040180806020018281038252603d815260200180611604603d913960400191505060405180910390fd5b610da2610e90565b565b6000546001600160a01b031690565b60008054604080516370a0823160e01b815230600482015290516001600160a01b0390921691839183916370a0823191602480820192602092909190829003018186803b158015610e0357600080fd5b505afa158015610e17573d6000803e3d6000fd5b505050506040513d6020811015610e2d57600080fd5b50519250505090565b6001600160a01b031660009081526003602052604090206002015490565b6001600160a01b031660009081526003602052604090206001015490565b6001600160a01b031660009081526003602052604090205460ff1690565b436002541415610e9f57610da2565b60005460048054604080516020808402820181019092528281526001600160a01b039094169360609390929091830182828015610f0557602002820191906000526020600020905b81546001600160a01b03168152600190910190602001808311610ee7575b505050505090506000815190506000804390506000610f5c826002546040518060400160405280601781526020017f44656c746120426c6f636b732067617665206572726f7200000000000000000081525061127f565b905083156112735760005b84811015611271576000868281518110610f7d57fe5b6020908102919091018101516001600160a01b0381166000908152600390925260409091205490915060ff161561126857604080516370a0823160e01b815230600482015290516001600160a01b038a16916370a08231916024808301926020929190829003018186803b158015610ff457600080fd5b505afa158015611008573d6000803e3d6000fd5b505050506040513d602081101561101e57600080fd5b50516001600160a01b0382166000908152600360209081526040808320600101548151808301909252601282527164726970546f74616c206f766572666c6f7760701b9282019290925292975090916110799190869061131b565b90506000611087878361138f565b9050866110c55760405162461bcd60e51b815260040180806020018281038252604d815260200180611641604d913960600191505060405180910390fd5b896001600160a01b031663a9059cbb84836040518363ffffffff1660e01b815260040180836001600160a01b03166001600160a01b0316815260200182815260200192505050602060405180830381600087803b15801561112557600080fd5b505af1158015611139573d6000803e3d6000fd5b505050506040513d602081101561114f57600080fd5b505161118c5760405162461bcd60e51b81526004018080602001828103825260318152602001806114436031913960400191505060405180910390fd5b600060036000856001600160a01b03166001600160a01b031681526020019081526020016000206002015490506111e48183604051806040016040528060088152602001674f766572666c6f7760c01b8152506113a6565b6001600160a01b0385166000818152600360208181526040928390206002810186905591820187905560019091015482519384529083018a90528282015260608201859052608082019290925260a0810189905290517f9f349058588b272e36f7ad9fbd937a116f31b3739d787cbefc43e34f6ea9891e9181900360c00190a15050505b50600101610f67565b505b50504360025550505050565b6000818484111561130e5760405162461bcd60e51b81526004018080602001828103825283818151815260200191508051906020019080838360005b838110156112d35781810151838201526020016112bb565b50505050905090810190601f1680156113005780820380516001836020036101000a031916815260200191505b509250505060405180910390fd5b50508183035b9392505050565b60008361132a57506000611314565b8383028385828161133757fe5b041483906113865760405162461bcd60e51b81526020600482018181528351602484015283519092839260449091019190850190808383600083156112d35781810151838201526020016112bb565b50949350505050565b600081831161139f5750816105dd565b50806105dd565b600083830182858210156113865760405162461bcd60e51b81526020600482018181528351602484015283519092839260449091019190850190808383600083156112d35781810151838201526020016112bb565b81548183558181111561141f5760008381526020902061141f918101908301611424565b505050565b61038791905b8082111561143e576000815560010161142a565b509056fe50726f746f636f6c205472616e736665723a20546865207472616e7366657220646964206e6f7420636f6d706c6574652e4572726f72206f636375726564207768656e20616464696e6720746865206e65772070726f746f636f6c5468652050726f746f636f6c206973206e6f7420537570706f7274656420627920746865205369676820537065656420436f6e74726f6c6c6572546865206c656e677468206f6620746865206c69737420776173206e6f742070726f7065726c792064656372656d656e7465642e546869732050726f746f636f6c20697320616c726561647920737570706f7274656420627920746865205369676820537065656420436f6e74726f6c6c65725468652063616c6c6572206d7573742062652074686520534947482046696e616e61636520436f6e666967757261746f7220436f6e74726163745349474820537065656420666f7220746865206e65772070726f746f636f6c20776173206e6f7420696e697469616c697a65642070726f7065726c792e5468652050726f746f636f6c20697320616c7265616479206e6f7420537570706f7274656420627920746865205369676820537065656420436f6e74726f6c6c65724472697070696e6720686173206e6f74206265656e20696e697469616c697a65642062792074686520534947482046696e616e6365204d616e6167657250726f746f636f6c205472616e736665723a20546865207265736572766f69722063757272656e746c7920646f6573206e6f74206861766520616e79205349474820496e737472756d656e74734472697070696e672063616e206f6e6c7920626520696e697469616c697a6564206f6e6365a265627a7a723158203dfc88772a4d4233bac23e9da68ed7d3cf505e57c7ae94c56d5e66b36c240be964736f6c634300051000322041646472657373657350726f7669646572206e6f7420696e697469616c697a65642050726f7065726c7920205349474820496e737472756d656e74206e6f7420696e697469616c697a65642050726f7065726c7920",
  "source": "pragma solidity ^0.5.16;\n\n/**\n * @title Sigh Speed Controller Contract\n * @notice Distributes a token to a different contract at a fixed rate.\n * @dev This contract must be poked via the `drip()` function every so often.\n * @author SighFinance\n */\n\nimport \"openzeppelin-solidity/contracts/token/ERC20/IERC20.sol\"; \nimport \"../Interfaces/ISighSpeedController.sol\";\nimport \"../../configuration/IGlobalAddressesProvider.sol\";\n \ncontract SighSpeedController is ISighSpeedController {\n\n  /// @notice Reference to SIGH\n  IERC20 private sighInstrument;\n  IGlobalAddressesProvider private addressesProvider;\n\n  bool private isDripAllowed = false;  \n  uint private lastDripBlockNumber;    \n    \n  struct protocolState {\n    bool isSupported;\n    uint distributionSpeed;\n    uint totalDrippedAmount;\n    uint recentlyDrippedAmount;\n  }\n\n  mapping (address => protocolState) private supportedProtocols;\n  address[] private storedSupportedProtocols; \n\n// ########################\n// ####### EVENTS #########\n// ########################\n\n  event DistributionInitialized(uint blockNumber);\n\n  event NewProtocolSupported (address protocolAddress, uint sighSpeed, uint totalDrippedAmount, uint blockNumber);\n  event ProtocolRemoved(address protocolAddress, uint totalDrippedToProtocol, uint blockNumber);\n  \n  event DistributionSpeedChanged(address protocolAddress, uint prevSpeed , uint newSpeed, uint blockNumber );  \n  event Dripped(address protocolAddress, uint deltaBlocks, uint distributionSpeed, uint AmountDripped, uint totalAmountDripped, uint blockNumber ); \n\n// ########################\n// ####### MODIFIER #######\n// ########################\n\n    //only SIGH Finance Configurator can use functions affected by this modifier\n    modifier onlySighFinanceConfigurator {\n        require(addressesProvider.getSIGHFinanceConfigurator() == msg.sender, \"The caller must be the SIGH Finanace Configurator Contract\");\n        _;\n    }\n\n// ###########################\n// ####### CONSTRUCTOR #######\n// ###########################\n\n  /**\n    * @notice Constructs a Reservoir\n    * @param sighInstrument_ The token to drip\n    * @param _addressesProvider The global addresses provider\n    */\n  constructor(address sighInstrument_, address _addressesProvider ) public {\n    sighInstrument = IERC20(sighInstrument_);\n    addressesProvider = IGlobalAddressesProvider(_addressesProvider);\n    require(address(sighInstrument) == sighInstrument_, \" SIGH Instrument not initialized Properly \");\n    require(address(addressesProvider) == _addressesProvider, \" AddressesProvider not initialized Properly \");\n    \n  }\n\n\n// #############################################################################################\n// ###########   SIGH DISTRIBUTION : INITIALIZED DRIPPING (Can be called only once)   ##########\n// #############################################################################################\n\n  function beginDripping () external onlySighFinanceConfigurator returns (bool) {\n    require(!isDripAllowed,\"Dripping can only be initialized once\");\n\n    isDripAllowed = true;\n    lastDripBlockNumber = block.number;\n\n    emit DistributionInitialized( lastDripBlockNumber );\n    return true;\n  }\n\n// ############################################################################################################\n// ###########   SIGH DISTRIBUTION : ADDING / REMOVING NEW PROTOCOL WHICH WILL RECEIVE SIGH INSTRUMENTS   ##########\n// ############################################################################################################\n\n  function supportNewProtocol( address newProtocolAddress, uint sighSpeed ) external onlySighFinanceConfigurator returns (bool)  {\n    require (!supportedProtocols[newProtocolAddress].isSupported, 'This Protocol is already supported by the Sigh Speed Controller');\n\n    if (isDripAllowed) {\n        dripInternal();\n    }\n    \n    storedSupportedProtocols.push(newProtocolAddress);                              // ADDED TO THE LIST\n    \n    if ( supportedProtocols[newProtocolAddress].totalDrippedAmount > 0 ) {\n        supportedProtocols[newProtocolAddress].isSupported = true;\n        supportedProtocols[newProtocolAddress].distributionSpeed = sighSpeed;\n    }\n    else {\n        supportedProtocols[newProtocolAddress] = protocolState({ isSupported: true, distributionSpeed: sighSpeed, totalDrippedAmount: uint(0), recentlyDrippedAmount: uint(0) });\n    }\n    \n    lastDripBlockNumber = block.number; // EITHER THIS WAS ALREADY DONE IN DRIPINTERNAL() OR WE DO IT HERE IF DRIPPING IS NOT ALLOWED AND A PROTOCOL IS BEING ADDED\n    require (supportedProtocols[newProtocolAddress].isSupported, 'Error occured when adding the new protocol');\n    require (supportedProtocols[newProtocolAddress].distributionSpeed == sighSpeed, 'SIGH Speed for the new protocol was not initialized properly.');\n    \n    emit NewProtocolSupported(newProtocolAddress, supportedProtocols[newProtocolAddress].distributionSpeed, supportedProtocols[newProtocolAddress].totalDrippedAmount, block.number);\n    return true;\n  }\n  \n\n  function removeSupportedProtocol(address protocolAddress_ ) external onlySighFinanceConfigurator returns (bool) {\n    require(supportedProtocols[protocolAddress_].isSupported,'The Protocol is already not Supported by the Sigh Speed Controller' );\n    \n    if (isDripAllowed) {\n        dripInternal();\n    }\n    \n    uint index = 0;\n    uint len = storedSupportedProtocols.length;\n\n    for (uint i=0; i< len; i++) {\n        if ( storedSupportedProtocols[i] == protocolAddress_ ) {\n            index = i;\n            break;\n        }\n    }\n    \n    storedSupportedProtocols[index] = storedSupportedProtocols[len - 1];\n    storedSupportedProtocols.length--;\n    uint newLength = len - 1;\n    require(storedSupportedProtocols.length == newLength, 'The length of the list was not properly decremented.' );\n    \n    supportedProtocols[protocolAddress_].isSupported = false;\n    supportedProtocols[protocolAddress_].distributionSpeed = 0;\n    require (supportedProtocols[protocolAddress_].isSupported == false, 'Error occured when removing the protocol.');\n    require (supportedProtocols[protocolAddress_].distributionSpeed == 0, 'SIGH Speed was not properly assigned to 0.');\n\n    emit ProtocolRemoved( protocolAddress_,  supportedProtocols[protocolAddress_].totalDrippedAmount,  block.number );\n    return true;\n  }\n  \n// ######################################################################################\n// ###########   SIGH DISTRIBUTION : FUNCTIONS TO UPDATE DISTRIBUTION SPEEDS   ##########\n// ######################################################################################\n\n  function changeProtocolSIGHSpeed (address targetAddress, uint newSpeed_) external onlySighFinanceConfigurator returns (bool) {\n    require(supportedProtocols[targetAddress].isSupported,'The Protocol is not Supported by the Sigh Speed Controller' );\n    if (isDripAllowed) {\n        dripInternal();\n    }\n    uint prevSpeed = supportedProtocols[targetAddress].distributionSpeed;\n    supportedProtocols[targetAddress].distributionSpeed = newSpeed_;\n\n    require(supportedProtocols[targetAddress].distributionSpeed == newSpeed_, \" Protocol's SIGH speed was not properly updated\");\n    emit DistributionSpeedChanged(targetAddress, prevSpeed , supportedProtocols[targetAddress].distributionSpeed, block.number );\n    return true;\n  }\n\n\n// #####################################################################\n// ###########   SIGH DISTRIBUTION FUNCTION - DRIP FUNCTION   ##########\n// #####################################################################\n\n  /**\n    * @notice Drips the maximum amount of sighInstruments to match the drip rate since inception\n    * @dev Note: this will only drip up to the amount of sighInstruments available.\n    */\n  function drip() public {\n    require(isDripAllowed,'Dripping has not been initialized by the SIGH Finance Manager');    \n    dripInternal();\n  }\n  \n  function dripInternal() internal {\n     \n    if (lastDripBlockNumber == block.number) {\n        return;\n    }\n      \n    IERC20 sighInstrument_ = sighInstrument;\n    \n    address[] memory protocols = storedSupportedProtocols;\n    uint length = protocols.length;\n    uint reservoirBalance_; \n    uint blockNumber_ = block.number;\n    uint deltaBlocks = sub(blockNumber_,lastDripBlockNumber,\"Delta Blocks gave error\");\n    \n    if (length > 0) {\n        \n        for ( uint i=0; i < length; i++) {\n            address current_protocol = protocols[i];\n            \n            if ( supportedProtocols[ current_protocol ].isSupported ) {\n                \n                reservoirBalance_ = sighInstrument_.balanceOf(address(this));\n                uint deltaDrip_ = mul(supportedProtocols[ current_protocol ].distributionSpeed, deltaBlocks , \"dripTotal overflow\");\n                uint toDrip_ = min(reservoirBalance_, deltaDrip_);\n            \n                require(reservoirBalance_ != 0, 'Protocol Transfer: The reservoir currently does not have any SIGH Instruments' );\n                require(sighInstrument_.transfer(current_protocol, toDrip_), 'Protocol Transfer: The transfer did not complete.' );\n                \n                uint prevDrippedAmount = supportedProtocols[current_protocol].totalDrippedAmount;\n                supportedProtocols[current_protocol].totalDrippedAmount = add(prevDrippedAmount,toDrip_,\"Overflow\");\n                supportedProtocols[current_protocol].recentlyDrippedAmount = toDrip_;\n\n                emit Dripped( current_protocol, deltaBlocks, supportedProtocols[ current_protocol ].distributionSpeed, toDrip_ , supportedProtocols[current_protocol].totalDrippedAmount, blockNumber_ ); \n            }\n        }\n    }\n    \n    lastDripBlockNumber = block.number;\n  }\n\n\n// ###############################################################\n// ###########   EXTERNAL VIEW functions TO GET STATE   ##########\n// ###############################################################\n\n  function getSighAddress() external view returns (address) {\n    return address(sighInstrument);\n  }\n\n  function getGlobalAddressProvider() external view returns (address) {\n    return address(addressesProvider);\n  }\n\n  function getSIGHBalance() external view returns (uint) {\n    IERC20 sighInstrument_ = sighInstrument;   \n    uint balance = sighInstrument_.balanceOf(address(this));\n    return balance;\n  }\n  \n  function getSupportedProtocols() external view returns (address[] memory) {\n    return storedSupportedProtocols;\n  }\n\n  function isThisProtocolSupported(address protocolAddress) external view returns (bool) {\n    return supportedProtocols[protocolAddress].isSupported;\n  }\n\n  function getSupportedProtocolState(address protocolAddress) external view returns (bool isSupported,uint distributionSpeed,uint totalDrippedAmount,uint recentlyDrippedAmount ) {\n  return (supportedProtocols[protocolAddress].isSupported,\n          supportedProtocols[protocolAddress].distributionSpeed,\n          supportedProtocols[protocolAddress].totalDrippedAmount,\n          supportedProtocols[protocolAddress].recentlyDrippedAmount  );\n  \n  }\n\n  function getTotalAmountDistributedToProtocol(address protocolAddress) external view returns (uint) {\n    return supportedProtocols[protocolAddress].totalDrippedAmount;\n  }\n\n  function getRecentAmountDistributedToProtocol(address protocolAddress) external view returns (uint) {\n    return supportedProtocols[protocolAddress].recentlyDrippedAmount;\n  }\n  \n  function getSIGHSpeedForProtocol(address protocolAddress) external view returns (uint) {\n      return supportedProtocols[protocolAddress].distributionSpeed;\n  }\n  \n  function totalProtocolsSupported() external view returns (uint) {\n      uint len = storedSupportedProtocols.length;\n      return len;\n  }\n  \n\n  function _isDripAllowed() external view returns (bool) {\n      return isDripAllowed; \n  }\n  \n  function getlastDripBlockNumber() external view returns (uint) {\n      return lastDripBlockNumber;\n  }\n\n// ###############################################################\n// ########### Internal helper functions for safe math ###########\n// ###############################################################\n\n  function add(uint a, uint b, string memory errorMessage) internal pure returns (uint) {\n    uint c = a + b;\n    require(c >= a, errorMessage);\n    return c;\n  }\n\n  function sub(uint a, uint b, string memory errorMessage) internal pure returns (uint) {\n    require(b <= a, errorMessage);\n    uint c = a - b;\n    return c;\n  }\n\n  function mul(uint a, uint b, string memory errorMessage) internal pure returns (uint) {\n    if (a == 0) {\n      return 0;\n    }\n    uint c = a * b;\n    require(c / a == b, errorMessage);\n    return c;\n  }\n\n  function min(uint a, uint b) internal pure returns (uint) {\n    if (a <= b) {\n      return a;\n    } else {\n      return b;\n    }\n  }\n}\n",
  "sourcePath": "/Users/apple/Desktop/GITCOIN/Sigh_Finance/SighFinanceContracts/contracts/SIGHFinanceContracts/SIGH_Instrument/SighSpeedController.sol",
  "compiler": {
    "name": "solc",
    "version": "0.5.16+commit.9c3226ce.Emscripten.clang"
  },
  "schemaVersion": "3.2.4",
  "updatedAt": "2020-11-25T13:25:44.446Z",
  "devdoc": {
    "methods": {
      "constructor": {
        "params": {
          "_addressesProvider": "The global addresses provider",
          "sighInstrument_": "The token to drip"
        }
      },
      "drip()": {
        "details": "Note: this will only drip up to the amount of sighInstruments available."
      }
    }
  },
  "userdoc": {
    "methods": {
      "constructor": "Constructs a Reservoir",
      "drip()": {
        "notice": "Drips the maximum amount of sighInstruments to match the drip rate since inception"
      }
    }
  }
}