{
  "contractName": "SighSpeedController",
  "abi": [
    {
      "inputs": [
        {
          "internalType": "contract IERC20",
          "name": "token_",
          "type": "address"
        }
      ],
      "payable": false,
      "stateMutability": "nonpayable",
      "type": "constructor"
    },
    {
      "anonymous": false,
      "inputs": [
        {
          "indexed": false,
          "internalType": "uint256",
          "name": "blockNumber",
          "type": "uint256"
        }
      ],
      "name": "DistributionInitialized",
      "type": "event"
    },
    {
      "anonymous": false,
      "inputs": [
        {
          "indexed": false,
          "internalType": "address",
          "name": "protocolAddress",
          "type": "address"
        },
        {
          "indexed": false,
          "internalType": "uint256",
          "name": "prevSpeed",
          "type": "uint256"
        },
        {
          "indexed": false,
          "internalType": "uint256",
          "name": "newSpeed",
          "type": "uint256"
        }
      ],
      "name": "DistributionSpeedChanged",
      "type": "event"
    },
    {
      "anonymous": false,
      "inputs": [
        {
          "indexed": false,
          "internalType": "address",
          "name": "protocolAddress",
          "type": "address"
        },
        {
          "indexed": false,
          "internalType": "uint256",
          "name": "currentBalance",
          "type": "uint256"
        },
        {
          "indexed": false,
          "internalType": "uint256",
          "name": "AmountDripped",
          "type": "uint256"
        },
        {
          "indexed": false,
          "internalType": "uint256",
          "name": "totalAmountDripped",
          "type": "uint256"
        }
      ],
      "name": "Dripped",
      "type": "event"
    },
    {
      "anonymous": false,
      "inputs": [
        {
          "indexed": false,
          "internalType": "address",
          "name": "protocolAddress",
          "type": "address"
        },
        {
          "indexed": false,
          "internalType": "uint256",
          "name": "sighSpeed",
          "type": "uint256"
        }
      ],
      "name": "NewProtocolSupported",
      "type": "event"
    },
    {
      "anonymous": false,
      "inputs": [
        {
          "indexed": false,
          "internalType": "address",
          "name": "protocolAddress",
          "type": "address"
        },
        {
          "indexed": false,
          "internalType": "uint256",
          "name": "totalDrippedToProtocol",
          "type": "uint256"
        }
      ],
      "name": "ProtocolRemoved",
      "type": "event"
    },
    {
      "anonymous": false,
      "inputs": [
        {
          "indexed": false,
          "internalType": "address",
          "name": "prevAdmin",
          "type": "address"
        },
        {
          "indexed": false,
          "internalType": "address",
          "name": "admin",
          "type": "address"
        }
      ],
      "name": "newAdminAssigned",
      "type": "event"
    },
    {
      "anonymous": false,
      "inputs": [
        {
          "indexed": false,
          "internalType": "address",
          "name": "prevPendingAdmin",
          "type": "address"
        },
        {
          "indexed": false,
          "internalType": "address",
          "name": "pendingAdmin",
          "type": "address"
        }
      ],
      "name": "pendingAdminUpdated",
      "type": "event"
    },
    {
      "constant": true,
      "inputs": [],
      "name": "admin",
      "outputs": [
        {
          "internalType": "address",
          "name": "",
          "type": "address"
        }
      ],
      "payable": false,
      "stateMutability": "view",
      "type": "function"
    },
    {
      "constant": true,
      "inputs": [],
      "name": "isDripAllowed",
      "outputs": [
        {
          "internalType": "bool",
          "name": "",
          "type": "bool"
        }
      ],
      "payable": false,
      "stateMutability": "view",
      "type": "function"
    },
    {
      "constant": true,
      "inputs": [],
      "name": "lastDripBlockNumber",
      "outputs": [
        {
          "internalType": "uint256",
          "name": "",
          "type": "uint256"
        }
      ],
      "payable": false,
      "stateMutability": "view",
      "type": "function"
    },
    {
      "constant": true,
      "inputs": [
        {
          "internalType": "address",
          "name": "",
          "type": "address"
        }
      ],
      "name": "recentlyDrippedAmount",
      "outputs": [
        {
          "internalType": "uint256",
          "name": "",
          "type": "uint256"
        }
      ],
      "payable": false,
      "stateMutability": "view",
      "type": "function"
    },
    {
      "constant": true,
      "inputs": [],
      "name": "token",
      "outputs": [
        {
          "internalType": "contract IERC20",
          "name": "",
          "type": "address"
        }
      ],
      "payable": false,
      "stateMutability": "view",
      "type": "function"
    },
    {
      "constant": true,
      "inputs": [
        {
          "internalType": "address",
          "name": "",
          "type": "address"
        }
      ],
      "name": "totalDrippedAmount",
      "outputs": [
        {
          "internalType": "uint256",
          "name": "",
          "type": "uint256"
        }
      ],
      "payable": false,
      "stateMutability": "view",
      "type": "function"
    },
    {
      "constant": false,
      "inputs": [],
      "name": "beginDripping",
      "outputs": [
        {
          "internalType": "bool",
          "name": "",
          "type": "bool"
        }
      ],
      "payable": false,
      "stateMutability": "nonpayable",
      "type": "function"
    },
    {
      "constant": false,
      "inputs": [
        {
          "internalType": "address",
          "name": "newProtocolAddress",
          "type": "address"
        },
        {
          "internalType": "uint256",
          "name": "sighSpeed",
          "type": "uint256"
        }
      ],
      "name": "supportNewProtocol",
      "outputs": [
        {
          "internalType": "bool",
          "name": "",
          "type": "bool"
        }
      ],
      "payable": false,
      "stateMutability": "nonpayable",
      "type": "function"
    },
    {
      "constant": false,
      "inputs": [
        {
          "internalType": "address",
          "name": "protocolAddress_",
          "type": "address"
        }
      ],
      "name": "removeSupportedProtocol",
      "outputs": [
        {
          "internalType": "bool",
          "name": "",
          "type": "bool"
        }
      ],
      "payable": false,
      "stateMutability": "nonpayable",
      "type": "function"
    },
    {
      "constant": false,
      "inputs": [
        {
          "internalType": "address",
          "name": "targetAddress",
          "type": "address"
        },
        {
          "internalType": "uint256",
          "name": "newSpeed_",
          "type": "uint256"
        }
      ],
      "name": "changeProtocolSIGHSpeed",
      "outputs": [
        {
          "internalType": "bool",
          "name": "",
          "type": "bool"
        }
      ],
      "payable": false,
      "stateMutability": "nonpayable",
      "type": "function"
    },
    {
      "constant": false,
      "inputs": [],
      "name": "drip",
      "outputs": [
        {
          "internalType": "uint256",
          "name": "",
          "type": "uint256"
        }
      ],
      "payable": false,
      "stateMutability": "nonpayable",
      "type": "function"
    },
    {
      "constant": false,
      "inputs": [
        {
          "internalType": "address",
          "name": "newAdmin",
          "type": "address"
        }
      ],
      "name": "changeAdmin",
      "outputs": [
        {
          "internalType": "bool",
          "name": "",
          "type": "bool"
        }
      ],
      "payable": false,
      "stateMutability": "nonpayable",
      "type": "function"
    },
    {
      "constant": false,
      "inputs": [],
      "name": "acceptAdmin",
      "outputs": [
        {
          "internalType": "bool",
          "name": "",
          "type": "bool"
        }
      ],
      "payable": false,
      "stateMutability": "nonpayable",
      "type": "function"
    },
    {
      "constant": true,
      "inputs": [],
      "name": "getSIGHBalance",
      "outputs": [
        {
          "internalType": "uint256",
          "name": "",
          "type": "uint256"
        }
      ],
      "payable": false,
      "stateMutability": "view",
      "type": "function"
    },
    {
      "constant": true,
      "inputs": [],
      "name": "getSighAddress",
      "outputs": [
        {
          "internalType": "address",
          "name": "",
          "type": "address"
        }
      ],
      "payable": false,
      "stateMutability": "view",
      "type": "function"
    },
    {
      "constant": true,
      "inputs": [
        {
          "internalType": "address",
          "name": "protocolAddress",
          "type": "address"
        }
      ],
      "name": "isThisProtocolSupported",
      "outputs": [
        {
          "internalType": "bool",
          "name": "",
          "type": "bool"
        }
      ],
      "payable": false,
      "stateMutability": "view",
      "type": "function"
    },
    {
      "constant": true,
      "inputs": [
        {
          "internalType": "address",
          "name": "protocolAddress",
          "type": "address"
        }
      ],
      "name": "getTotalAmountDistributedToProtocol",
      "outputs": [
        {
          "internalType": "uint256",
          "name": "",
          "type": "uint256"
        }
      ],
      "payable": false,
      "stateMutability": "view",
      "type": "function"
    },
    {
      "constant": true,
      "inputs": [
        {
          "internalType": "address",
          "name": "protocolAddress",
          "type": "address"
        }
      ],
      "name": "getRecentAmountDistributedToProtocol",
      "outputs": [
        {
          "internalType": "uint256",
          "name": "",
          "type": "uint256"
        }
      ],
      "payable": false,
      "stateMutability": "view",
      "type": "function"
    },
    {
      "constant": true,
      "inputs": [
        {
          "internalType": "address",
          "name": "protocolAddress",
          "type": "address"
        }
      ],
      "name": "getSIGHSpeedForProtocol",
      "outputs": [
        {
          "internalType": "uint256",
          "name": "",
          "type": "uint256"
        }
      ],
      "payable": false,
      "stateMutability": "view",
      "type": "function"
    },
    {
      "constant": true,
      "inputs": [],
      "name": "totalProtocolsSupported",
      "outputs": [
        {
          "internalType": "uint256",
          "name": "",
          "type": "uint256"
        }
      ],
      "payable": false,
      "stateMutability": "view",
      "type": "function"
    }
  ],
  "bytecode": "0x60806040526002805460ff60a01b1916905534801561001d57600080fd5b506040516117963803806117968339818101604052602081101561004057600080fd5b5051600180546001600160a01b03199081163317909155600080546001600160a01b03909316929091169190911790556117178061007f6000396000f3fe608060405234801561001057600080fd5b506004361061012c5760003560e01c80639f678cca116100ad578063d2ee1ea611610071578063d2ee1ea6146102e7578063e8f444591461030d578063ebb3e08614610315578063f851a4401461033b578063fc0c546a146103435761012c565b80639f678cca14610285578063b02644d01461028d578063c55580da146102b1578063c6a6bfb1146102b9578063c9c90642146102c15761012c565b806360f63ce7116100f457806360f63ce7146101df578063633eec441461020557806378b122dc146102315780638438cc23146102395780638f2839701461025f5761012c565b80630e18b68114610131578063101cd9ca1461014d5780632aef904a14610167578063399e9b241461018d5780635c8cfed8146101b3575b600080fd5b61013961034b565b604080519115158252519081900360200190f35b610155610466565b60408051918252519081900360200190f35b6101556004803603602081101561017d57600080fd5b50356001600160a01b031661046d565b610155600480360360208110156101a357600080fd5b50356001600160a01b0316610488565b610139600480360360408110156101c957600080fd5b506001600160a01b03813516906020013561049a565b610155600480360360208110156101f557600080fd5b50356001600160a01b03166105c7565b6101396004803603604081101561021b57600080fd5b506001600160a01b0381351690602001356105d9565b6101396107fe565b6101396004803603602081101561024f57600080fd5b50356001600160a01b03166108e4565b6101396004803603602081101561027557600080fd5b50356001600160a01b0316610bb1565b610155610c64565b6102956110b8565b604080516001600160a01b039092168252519081900360200190f35b6101396110c7565b6101556110d7565b610155600480360360208110156102d757600080fd5b50356001600160a01b031661115a565b610155600480360360208110156102fd57600080fd5b50356001600160a01b0316611175565b610155611190565b6101396004803603602081101561032b57600080fd5b50356001600160a01b0316611196565b6102956111b4565b6102956111c3565b6002546000906001600160a01b031633146103975760405162461bcd60e51b815260040180806020018281038252602d815260200180611614602d913960400191505060405180910390fd5b60018054600280546001600160a01b03198084166001600160a01b038381169190911795869055911690915590811691161561041a576040805162461bcd60e51b815260206004820152601b60248201527f41646d696e206e6f742061737369676e65642070726f7065726c790000000000604482015290519081900360640190fd5b600154604080516001600160a01b038085168252909216602083015280517fbac8d2bc272c43a4635a24fcd6129e1a3efb361ffbfd85c2f0e9ac472e9771339281900390910190a15090565b6004545b90565b6001600160a01b031660009081526008602052604090205490565b60076020526000908152604090205481565b6001546000906001600160a01b031633146104e65760405162461bcd60e51b815260040180806020018281038252602a8152602001806115c0602a913960400191505060405180910390fd5b6001600160a01b03831660009081526005602052604090205460ff1661053d5760405162461bcd60e51b815260040180806020018281038252603a81526020018061136a603a913960400191505060405180910390fd5b600254600160a01b900460ff161561055957610557610c64565b505b6001600160a01b0383166000818152600660209081526040918290208054908690558251938452908301819052828201859052905190917f42a8048ea1a48e06cf6d500105e6054f461189f2bf63b32588d7ee15e3c15f45919081900360600190a160019150505b92915050565b60086020526000908152604090205481565b6001546000906001600160a01b031633146106255760405162461bcd60e51b815260040180806020018281038252602b815260200180611693602b913960400191505060405180910390fd5b6001600160a01b03831660009081526005602052604090205460ff161561067d5760405162461bcd60e51b815260040180806020018281038252603f8152602001806114a0603f913960400191505060405180910390fd5b600254600160a01b900460ff161561069957610697610c64565b505b6004805460018082019092557f8a35acfbc15ff81a39ae7d344fd709f28e8600b4aa8c65c6b64bfe7fe36bd19b0180546001600160a01b0319166001600160a01b0386169081179091556000908152600560208181526040808420805460ff1916909517855560068252808420879055600782528084208490556008825283209290925590525460ff1661075e5760405162461bcd60e51b815260040180806020018281038252605381526020018061144d6053913960600191505060405180910390fd5b6001600160a01b03831660009081526006602052604090205482146107b45760405162461bcd60e51b815260040180806020018281038252603c815260200180611521603c913960400191505060405180910390fd5b604080516001600160a01b03851681526020810184905281517f454a4e7bf83dc28e751e63cee98a7e56875bd7b2f417d998c904504aaa4a882e929181900390910190a192915050565b6001546000906001600160a01b0316331461084a5760405162461bcd60e51b815260040180806020018281038252602d8152602001806113d8602d913960400191505060405180910390fd5b600254600160a01b900460ff16156108935760405162461bcd60e51b81526004018080602001828103825260258152602001806116be6025913960400191505060405180910390fd5b6002805460ff60a01b1916600160a01b17905543600381905560408051918252517ff030f7afe867c9186d292811b9b968f3d2c4928e6aa2f12d6cc3eadf3205a1e19181900360200190a150600190565b6001546000906001600160a01b031633146109305760405162461bcd60e51b815260040180806020018281038252602981526020018061166a6029913960400191505060405180910390fd5b6001600160a01b03821660009081526005602052604090205460ff166109875760405162461bcd60e51b81526004018080602001828103825260428152602001806114df6042913960600191505060405180910390fd5b600454600090815b818110156109d957846001600160a01b0316600482815481106109ae57fe5b6000918252602090912001546001600160a01b031614156109d1578092506109d9565b60010161098f565b50600460018203815481106109ea57fe5b600091825260209091200154600480546001600160a01b039092169184908110610a1057fe5b600091825260209091200180546001600160a01b0319166001600160a01b03929092169190911790556004805490610a4c9060001983016112f1565b506004546000198201908114610a935760405162461bcd60e51b81526004018080602001828103825260348152602001806113a46034913960400191505060405180910390fd5b6001600160a01b0385166000908152600560208181526040808420805460ff191681556006835290842093909355525460ff1615610b025760405162461bcd60e51b81526004018080602001828103825260298152602001806116416029913960400191505060405180910390fd5b6001600160a01b03851660009081526006602052604090205415610b575760405162461bcd60e51b815260040180806020018281038252602a8152602001806115ea602a913960400191505060405180910390fd5b6001600160a01b0385166000818152600760209081526040918290205482519384529083015280517f708643cb1bd91c80967f227a54f1bfdb24543f8a8411ca28313075360aeaf5f39281900390910190a1505050919050565b6001546000906001600160a01b03163314610bfd5760405162461bcd60e51b815260040180806020018281038252603581526020018061158b6035913960400191505060405180910390fd5b600280546001600160a01b038481166001600160a01b0319831617928390556040805192821680845293909116602083015280517fd0bcd451f5c756fd2a2da6c93b636fc9f3261b58f85cd7b4cf540c797339152d9281900390910190a150600192915050565b600254600090600160a01b900460ff16610caf5760405162461bcd60e51b815260040180806020018281038252602e81526020018061155d602e913960400191505060405180910390fd5b60005460048054604080516020808402820181019092528281526001600160a01b039094169360609390929091830182828015610d1557602002820191906000526020600020905b81546001600160a01b03168152600190910190602001808311610cf7575b5050835193945050821591506110ae90505760005b818110156110ac576000838281518110610d4057fe5b6020908102919091018101516001600160a01b0381166000908152600590925260409091205490915060ff16156110a357604080516370a0823160e01b815230600482015290516000916001600160a01b038816916370a0823191602480820192602092909190829003018186803b158015610dbb57600080fd5b505afa158015610dcf573d6000803e3d6000fd5b505050506040513d6020811015610de557600080fd5b50516001600160a01b0383166000908152600660209081526040808320546003548251808401909352601283527164726970546f74616c206f766572666c6f7760701b938301939093529394504393610e43929091908503906111d2565b90506000610e518483611285565b905083610e8f5760405162461bcd60e51b81526004018080602001828103825260488152602001806114056048913960600191505060405180910390fd5b886001600160a01b031663a9059cbb86836040518363ffffffff1660e01b815260040180836001600160a01b03166001600160a01b0316815260200182815260200192505050602060405180830381600087803b158015610eef57600080fd5b505af1158015610f03573d6000803e3d6000fd5b505050506040513d6020811015610f1957600080fd5b5051610f565760405162461bcd60e51b81526004018080602001828103825260318152602001806113396031913960400191505060405180910390fd5b600060076000876001600160a01b03166001600160a01b03168152602001908152602001600020549050610fab8183604051806040016040528060088152602001674f766572666c6f7760c01b81525061129c565b6001600160a01b03808816600090815260076020908152604080832094909455600881529083902085905582516370a0823160e01b81523060048201529251918d16926370a082319260248083019392829003018186803b15801561100f57600080fd5b505afa158015611023573d6000803e3d6000fd5b505050506040513d602081101561103957600080fd5b50516001600160a01b0387166000818152600760209081526040918290205482519384529083018490528282018690526060830152519196507ffbc861b8fae602af03125e77879589364826ebceb3ce37893557148cbd70a2e9919081900360800190a150505050505b50600101610d2a565b505b5050436003555090565b6000546001600160a01b031690565b600254600160a01b900460ff1681565b60008054604080516370a0823160e01b815230600482015290516001600160a01b0390921691839183916370a0823191602480820192602092909190829003018186803b15801561112757600080fd5b505afa15801561113b573d6000803e3d6000fd5b505050506040513d602081101561115157600080fd5b50519250505090565b6001600160a01b031660009081526007602052604090205490565b6001600160a01b031660009081526006602052604090205490565b60035481565b6001600160a01b031660009081526005602052604090205460ff1690565b6001546001600160a01b031681565b6000546001600160a01b031681565b6000836111e15750600061127e565b838302838582816111ee57fe5b0414839061127a5760405162461bcd60e51b81526004018080602001828103825283818151815260200191508051906020019080838360005b8381101561123f578181015183820152602001611227565b50505050905090810190601f16801561126c5780820380516001836020036101000a031916815260200191505b509250505060405180910390fd5b5090505b9392505050565b60008183116112955750816105c1565b50806105c1565b6000838301828582101561127a5760405162461bcd60e51b815260206004820181815283516024840152835190928392604490910191908501908083836000831561123f578181015183820152602001611227565b8154818355818111156113155760008381526020902061131591810190830161131a565b505050565b61046a91905b808211156113345760008155600101611320565b509056fe50726f746f636f6c205472616e736665723a20546865207472616e7366657220646964206e6f7420636f6d706c6574652e5468652050726f746f636f6c206973206e6f7420537570706f7274656420627920746865205369676820537065656420436f6e74726f6c6c6572546865206c656e677468206f6620746865206c69737420776173206e6f742070726f7065726c792064656372656d656e7465642e4472697070696e672063616e206f6e6c7920626520696e697469616c697a6564206279207468652041646d696e50726f746f636f6c205472616e736665723a20546865207265736572766f69722063757272656e746c7920646f6573206e6f74206861766520616e79205349474820746f6b656e734572726f72206f636375726564207768656e20616464696e6720746865206e65772070726f746f636f6c206164647265737320746f2074686520737570706f727465642070726f746f636f6c73206c6973742e546869732050726f746f636f6c20697320616c726561647920737570706f7274656420627920746865205369676820537065656420436f6e74726f6c6c65725468652050726f746f636f6c20697320616c7265616479206e6f7420537570706f7274656420627920746865205369676820537065656420436f6e74726f6c6c65725349474820537065656420666f7220746865206e65772070726f746f636c20776173206e6f7420696e697469616c697a65642070726f7065726c792e4472697070696e6720686173206e6f74206265656e20696e697469616c697a6564206279207468652041646d696e53746f7265642041646d696e2063616e206f6e6c79206265206368616e676564206279207468652063757272656e742041646d696e4472697020726174652063616e206f6e6c79206265206368616e676564206279207468652041646d696e5349474820537065656420776173206e6f742070726f7065726c792061737369676e656420746f20302e4f6e6c79207468652070656e64696e672061646d696e2063616e2063616c6c20746869732066756e6374696f6e4572726f72206f636375726564207768656e2072656d6f76696e67207468652070726f746f636f6c2e50726f746f636f6c2063616e206f6e6c792062652072656d6f766564206279207468652041646d696e4e65772050726f746f636f6c2063616e206f6e6c79206265206164646564206279207468652041646d696e4472697070696e672063616e206f6e6c7920626520696e697469616c697a6564206f6e6365a265627a7a723158202bdabf210511e1080c3a9b2e9c10010c75a0c0b4c5a605f6d63cae01a5b8cae764736f6c63430005100032",
  "source": "pragma solidity ^0.5.16;\n\n/**\n * @title Sigh Speed Controller Contract\n * @notice Distributes a token to a different contract at a fixed rate.\n * @dev This contract must be poked via the `drip()` function every so often.\n * @author SighFinance\n */\n\nimport \"openzeppelin-solidity/contracts/token/ERC20/IERC20.sol\"; \n//import \"../openzeppelin/EIP20Interface.sol\";\n \ncontract SighSpeedController {\n\n  /// @notice Reference to SIGH\n  IERC20 public token;\n\n  address public admin;\n  address private pendingAdmin;\n\n  bool public isDripAllowed = false;  \n  uint public lastDripBlockNumber;    \n    \n  address[] private storedSupportedProtocols; \n  mapping (address => bool) supportedProtocols;\n  mapping (address => uint) distributionSpeeds;\n\n  mapping (address => uint) public totalDrippedAmount; \n  mapping (address => uint) public recentlyDrippedAmount;\n\n  event DistributionInitialized(uint blockNumber);\n\n  event NewProtocolSupported (address protocolAddress, uint sighSpeed);\n  event ProtocolRemoved(address protocolAddress, uint totalDrippedToProtocol);\n  \n  event DistributionSpeedChanged(address protocolAddress, uint prevSpeed , uint newSpeed );  \n  event Dripped(address protocolAddress, uint currentBalance, uint AmountDripped, uint totalAmountDripped ); \n\n  event pendingAdminUpdated(address prevPendingAdmin, address pendingAdmin );\n  event newAdminAssigned(address prevAdmin, address admin);\n\n  /**\n    * @notice Constructs a Reservoir\n    * @param token_ The token to drip\n    */\n  constructor(IERC20 token_ ) public {\n    admin = msg.sender;\n    token = token_;\n  }\n\n// #############################################################################################\n// ###########   SIGH DISTRIBUTION : INITIALIZED DRIPPING (Can be called only once)   ##########\n// #############################################################################################\n\n  function beginDripping () public returns (bool) {\n    require(admin == msg.sender,\"Dripping can only be initialized by the Admin\");\n    require(!isDripAllowed,\"Dripping can only be initialized once\");\n\n    isDripAllowed = true;\n    lastDripBlockNumber = block.number;\n\n    emit DistributionInitialized( lastDripBlockNumber );\n    return true;\n  }\n\n// ############################################################################################################\n// ###########   SIGH DISTRIBUTION : ADDING / REMOVING NEW PROTOCOL WHICH WILL RECEIVE SIGH TOKENS   ##########\n// ############################################################################################################\n\n  function supportNewProtocol( address newProtocolAddress, uint sighSpeed ) public returns (bool)  {\n    require(admin == msg.sender,\"New Protocol can only be added by the Admin\");\n    require (!supportedProtocols[newProtocolAddress], 'This Protocol is already supported by the Sigh Speed Controller');\n\n    if (isDripAllowed) {\n        drip();\n    }\n    \n    storedSupportedProtocols.push(newProtocolAddress);\n    \n    supportedProtocols[newProtocolAddress] = true;\n    distributionSpeeds[newProtocolAddress] = sighSpeed;\n    totalDrippedAmount[newProtocolAddress] = 0;\n    recentlyDrippedAmount[newProtocolAddress] = 0;\n    \n    require (supportedProtocols[newProtocolAddress], 'Error occured when adding the new protocol address to the supported protocols list.');\n    require (distributionSpeeds[newProtocolAddress] == sighSpeed, 'SIGH Speed for the new protocl was not initialized properly.');\n    \n    emit NewProtocolSupported(newProtocolAddress, sighSpeed);\n  }\n  \n//   ######### WE DO NOT DRIP WHEN REMOVING A PROTOCOL  ######### \n  function removeSupportedProtocol(address protocolAddress_ ) public returns (bool) {\n    require(admin == msg.sender,\"Protocol can only be removed by the Admin\");\n    require(supportedProtocols[protocolAddress_],'The Protocol is already not Supported by the Sigh Speed Controller' );\n    \n    uint index = 0;\n    uint len = storedSupportedProtocols.length;\n\n    for (uint i=0; i< len; i++) {\n        if ( storedSupportedProtocols[i] == protocolAddress_ ) {\n            index = i;\n            break;\n        }\n    }\n    \n    storedSupportedProtocols[index] = storedSupportedProtocols[len - 1];\n    storedSupportedProtocols.length--;\n    uint newLength = len - 1;\n    require(storedSupportedProtocols.length == newLength, 'The length of the list was not properly decremented.' );\n    \n    supportedProtocols[protocolAddress_] = false;\n    distributionSpeeds[protocolAddress_] = 0;\n\n    require (supportedProtocols[protocolAddress_] == false, 'Error occured when removing the protocol.');\n    require (distributionSpeeds[protocolAddress_] == 0, 'SIGH Speed was not properly assigned to 0.');\n\n      emit ProtocolRemoved( protocolAddress_,  totalDrippedAmount[protocolAddress_] );\n  }\n  \n// ######################################################################################\n// ###########   SIGH DISTRIBUTION : FUNCTIONS TO UPDATE DISTRIBUTION SPEEDS   ##########\n// ######################################################################################\n\n  function changeProtocolSIGHSpeed (address targetAddress, uint newSpeed_) public returns (bool) {\n    require(admin == msg.sender,\"Drip rate can only be changed by the Admin\");\n    require(supportedProtocols[targetAddress],'The Protocol is not Supported by the Sigh Speed Controller' );\n    if (isDripAllowed) {\n        drip();\n    }\n    uint prevSpeed = distributionSpeeds[targetAddress];\n    distributionSpeeds[targetAddress] = newSpeed_;\n    require(distributionSpeeds[targetAddress] == newSpeed_, \" Protocol's SIGH speed was not properly updated\");\n    emit DistributionSpeedChanged(targetAddress, prevSpeed , distributionSpeeds[targetAddress]);\n    return true;\n  }\n\n\n// #####################################################################\n// ###########   SIGH DISTRIBUTION FUNCTION - DRIP FUNCTION   ##########\n// #####################################################################\n\n  /**\n    * @notice Drips the maximum amount of tokens to match the drip rate since inception\n    * @dev Note: this will only drip up to the amount of tokens available.\n    * @return The amount of tokens dripped in this call\n    */\n  function drip() public returns (uint) {\n    require(isDripAllowed,'Dripping has not been initialized by the Admin');    \n\n    IERC20 token_ = token;\n    \n    address[] memory protocols = storedSupportedProtocols;\n    uint length = protocols.length;\n    \n    if (length > 0) {\n        \n        for ( uint i=0; i < length; i++) {\n            \n            address current_protocol = protocols[i];\n            \n            if ( supportedProtocols[ current_protocol ] ) {\n                \n                uint reservoirBalance_ = token_.balanceOf(address(this)); \n                uint blockNumber_ = block.number;\n                uint deltaDrip_ = mul(distributionSpeeds[ current_protocol ], blockNumber_ - lastDripBlockNumber, \"dripTotal overflow\");\n                uint toDrip_ = min(reservoirBalance_, deltaDrip_);\n            \n                require(reservoirBalance_ != 0, 'Protocol Transfer: The reservoir currently does not have any SIGH tokens' );\n                require(token_.transfer(current_protocol, toDrip_), 'Protocol Transfer: The transfer did not complete.' );\n                \n                uint prevDrippedAmount = totalDrippedAmount[current_protocol];\n                totalDrippedAmount[current_protocol] = add(prevDrippedAmount,toDrip_,\"Overflow\");\n                recentlyDrippedAmount[current_protocol] = toDrip_;\n                reservoirBalance_ = token_.balanceOf(address(this)); // TODO: Verify this is a static call\n            \n                emit Dripped( current_protocol, reservoirBalance_, toDrip_ , totalDrippedAmount[current_protocol] ); \n            }\n        }\n    }\n    lastDripBlockNumber = block.number;\n  }\n\n// ########################################################\n// ###########   FUNCTIONS TO CHANGE THE ADMIN   ##########\n// ########################################################\n\n function changeAdmin(address newAdmin) public returns (bool) {\n    require(admin == msg.sender,\"Stored Admin can only be changed by the current Admin\");\n    address prevPendingAdmin = pendingAdmin;\n    pendingAdmin = newAdmin;\n    emit pendingAdminUpdated(prevPendingAdmin,pendingAdmin );\n    return true;\n }\n\n function acceptAdmin() public returns (bool) {\n    require(pendingAdmin == msg.sender,\"Only the pending admin can call this function\");\n    address prevAdmin = admin;\n    admin = pendingAdmin;\n    pendingAdmin = address(0);\n    require (admin == pendingAdmin,'Admin not assigned properly');\n    \n    emit newAdminAssigned(prevAdmin, admin);\n     \n } \n \n\n// ###############################################################\n// ###########   EXTERNAL VIEW functions TO GET STATE   ##########\n// ###############################################################\n\n  function getSIGHBalance() external view returns (uint) {\n    IERC20 token_ = token;   \n    uint balance = token_.balanceOf(address(this));\n    return balance;\n  }\n\n  function getSighAddress() external view returns (address) {\n    return address(token);\n  }\n\n  function isThisProtocolSupported(address protocolAddress) external view returns (bool) {\n    return supportedProtocols[protocolAddress];\n  }\n\n  function getTotalAmountDistributedToProtocol(address protocolAddress) external view returns (uint) {\n    return totalDrippedAmount[protocolAddress];\n  }\n\n  function getRecentAmountDistributedToProtocol(address protocolAddress) external view returns (uint) {\n    return recentlyDrippedAmount[protocolAddress];\n  }\n  \n  function getSIGHSpeedForProtocol(address protocolAddress) external view returns (uint) {\n      return distributionSpeeds[protocolAddress];\n  }\n  \n  function totalProtocolsSupported() external view returns (uint) {\n      uint len = storedSupportedProtocols.length;\n      return len;\n  }\n\n// ###############################################################\n// ########### Internal helper functions for safe math ###########\n// ###############################################################\n\n  function add(uint a, uint b, string memory errorMessage) internal pure returns (uint) {\n    uint c = a + b;\n    require(c >= a, errorMessage);\n    return c;\n  }\n\n  function sub(uint a, uint b, string memory errorMessage) internal pure returns (uint) {\n    require(b <= a, errorMessage);\n    uint c = a - b;\n    return c;\n  }\n\n  function mul(uint a, uint b, string memory errorMessage) internal pure returns (uint) {\n    if (a == 0) {\n      return 0;\n    }\n    uint c = a * b;\n    require(c / a == b, errorMessage);\n    return c;\n  }\n\n  function min(uint a, uint b) internal pure returns (uint) {\n    if (a <= b) {\n      return a;\n    } else {\n      return b;\n    }\n  }\n}\n",
  "sourcePath": "/Users/apple/Desktop/GITCOIN/Sigh_Finance/SighFinanceContracts/contracts/SIGH/SighSpeedController.sol",
  "compiler": {
    "name": "solc",
    "version": "0.5.16+commit.9c3226ce.Emscripten.clang"
  },
  "schemaVersion": "3.2.4",
  "updatedAt": "2020-10-22T12:30:37.646Z",
  "devdoc": {
    "methods": {
      "constructor": {
        "params": {
          "token_": "The token to drip"
        }
      },
      "drip()": {
        "details": "Note: this will only drip up to the amount of tokens available.",
        "return": "The amount of tokens dripped in this call"
      }
    }
  },
  "userdoc": {
    "methods": {
      "constructor": "Constructs a Reservoir",
      "drip()": {
        "notice": "Drips the maximum amount of tokens to match the drip rate since inception"
      }
    }
  }
}