{
  "contractName": "SIGH",
  "abi": [
    {
      "inputs": [],
      "payable": false,
      "stateMutability": "nonpayable",
      "type": "constructor"
    },
    {
      "anonymous": false,
      "inputs": [
        {
          "indexed": true,
          "internalType": "address",
          "name": "owner",
          "type": "address"
        },
        {
          "indexed": true,
          "internalType": "address",
          "name": "spender",
          "type": "address"
        },
        {
          "indexed": false,
          "internalType": "uint256",
          "name": "value",
          "type": "uint256"
        }
      ],
      "name": "Approval",
      "type": "event"
    },
    {
      "anonymous": false,
      "inputs": [
        {
          "indexed": false,
          "internalType": "address",
          "name": "prevReservoir",
          "type": "address"
        },
        {
          "indexed": false,
          "internalType": "address",
          "name": "newReservoir",
          "type": "address"
        },
        {
          "indexed": false,
          "internalType": "uint256",
          "name": "blockNumber",
          "type": "uint256"
        }
      ],
      "name": "ReservoirChanged",
      "type": "event"
    },
    {
      "anonymous": false,
      "inputs": [
        {
          "indexed": true,
          "internalType": "address",
          "name": "from",
          "type": "address"
        },
        {
          "indexed": true,
          "internalType": "address",
          "name": "to",
          "type": "address"
        },
        {
          "indexed": false,
          "internalType": "uint256",
          "name": "value",
          "type": "uint256"
        }
      ],
      "name": "Transfer",
      "type": "event"
    },
    {
      "anonymous": false,
      "inputs": [
        {
          "indexed": false,
          "internalType": "uint256",
          "name": "cycle",
          "type": "uint256"
        },
        {
          "indexed": false,
          "internalType": "uint256",
          "name": "Era",
          "type": "uint256"
        },
        {
          "indexed": false,
          "internalType": "address",
          "name": "minter",
          "type": "address"
        },
        {
          "indexed": false,
          "internalType": "uint256",
          "name": "amountMinted",
          "type": "uint256"
        },
        {
          "indexed": false,
          "internalType": "uint256",
          "name": "current_supply",
          "type": "uint256"
        },
        {
          "indexed": false,
          "internalType": "uint256",
          "name": "block_number",
          "type": "uint256"
        },
        {
          "indexed": false,
          "internalType": "uint256",
          "name": "timestamp",
          "type": "uint256"
        }
      ],
      "name": "coinsMinted",
      "type": "event"
    },
    {
      "constant": true,
      "inputs": [],
      "name": "CURRENT_SUPPLY",
      "outputs": [
        {
          "internalType": "uint256",
          "name": "",
          "type": "uint256"
        }
      ],
      "payable": false,
      "stateMutability": "view",
      "type": "function"
    },
    {
      "constant": true,
      "inputs": [],
      "name": "CYCLE_SECONDS",
      "outputs": [
        {
          "internalType": "uint256",
          "name": "",
          "type": "uint256"
        }
      ],
      "payable": false,
      "stateMutability": "view",
      "type": "function"
    },
    {
      "constant": true,
      "inputs": [],
      "name": "Current_Cycle",
      "outputs": [
        {
          "internalType": "uint256",
          "name": "",
          "type": "uint256"
        }
      ],
      "payable": false,
      "stateMutability": "view",
      "type": "function"
    },
    {
      "constant": true,
      "inputs": [],
      "name": "Current_Era",
      "outputs": [
        {
          "internalType": "uint256",
          "name": "",
          "type": "uint256"
        }
      ],
      "payable": false,
      "stateMutability": "view",
      "type": "function"
    },
    {
      "constant": true,
      "inputs": [],
      "name": "FINAL_CYCLE",
      "outputs": [
        {
          "internalType": "uint256",
          "name": "",
          "type": "uint256"
        }
      ],
      "payable": false,
      "stateMutability": "view",
      "type": "function"
    },
    {
      "constant": true,
      "inputs": [],
      "name": "Reservoir",
      "outputs": [
        {
          "internalType": "address",
          "name": "",
          "type": "address"
        }
      ],
      "payable": false,
      "stateMutability": "view",
      "type": "function"
    },
    {
      "constant": true,
      "inputs": [],
      "name": "_decimals",
      "outputs": [
        {
          "internalType": "uint8",
          "name": "",
          "type": "uint8"
        }
      ],
      "payable": false,
      "stateMutability": "view",
      "type": "function"
    },
    {
      "constant": true,
      "inputs": [],
      "name": "_name",
      "outputs": [
        {
          "internalType": "string",
          "name": "",
          "type": "string"
        }
      ],
      "payable": false,
      "stateMutability": "view",
      "type": "function"
    },
    {
      "constant": true,
      "inputs": [],
      "name": "_startTime",
      "outputs": [
        {
          "internalType": "uint256",
          "name": "",
          "type": "uint256"
        }
      ],
      "payable": false,
      "stateMutability": "view",
      "type": "function"
    },
    {
      "constant": true,
      "inputs": [],
      "name": "_symbol",
      "outputs": [
        {
          "internalType": "string",
          "name": "",
          "type": "string"
        }
      ],
      "payable": false,
      "stateMutability": "view",
      "type": "function"
    },
    {
      "constant": true,
      "inputs": [],
      "name": "currentDivisibilityFactor",
      "outputs": [
        {
          "internalType": "uint256",
          "name": "",
          "type": "uint256"
        }
      ],
      "payable": false,
      "stateMutability": "view",
      "type": "function"
    },
    {
      "constant": true,
      "inputs": [],
      "name": "isReservoirSet",
      "outputs": [
        {
          "internalType": "bool",
          "name": "",
          "type": "bool"
        }
      ],
      "payable": false,
      "stateMutability": "view",
      "type": "function"
    },
    {
      "constant": true,
      "inputs": [],
      "name": "mintingActivated",
      "outputs": [
        {
          "internalType": "bool",
          "name": "",
          "type": "bool"
        }
      ],
      "payable": false,
      "stateMutability": "view",
      "type": "function"
    },
    {
      "constant": true,
      "inputs": [],
      "name": "prevReservoir",
      "outputs": [
        {
          "internalType": "address",
          "name": "",
          "type": "address"
        }
      ],
      "payable": false,
      "stateMutability": "view",
      "type": "function"
    },
    {
      "constant": true,
      "inputs": [],
      "name": "previousMintTimeStamp",
      "outputs": [
        {
          "internalType": "uint256",
          "name": "",
          "type": "uint256"
        }
      ],
      "payable": false,
      "stateMutability": "view",
      "type": "function"
    },
    {
      "constant": true,
      "inputs": [],
      "name": "recentMinter",
      "outputs": [
        {
          "internalType": "address",
          "name": "",
          "type": "address"
        }
      ],
      "payable": false,
      "stateMutability": "view",
      "type": "function"
    },
    {
      "constant": true,
      "inputs": [],
      "name": "recentlyMintedAmount",
      "outputs": [
        {
          "internalType": "uint256",
          "name": "",
          "type": "uint256"
        }
      ],
      "payable": false,
      "stateMutability": "view",
      "type": "function"
    },
    {
      "constant": false,
      "inputs": [],
      "name": "initMinting",
      "outputs": [
        {
          "internalType": "bool",
          "name": "",
          "type": "bool"
        }
      ],
      "payable": false,
      "stateMutability": "nonpayable",
      "type": "function"
    },
    {
      "constant": true,
      "inputs": [],
      "name": "name",
      "outputs": [
        {
          "internalType": "string",
          "name": "",
          "type": "string"
        }
      ],
      "payable": false,
      "stateMutability": "view",
      "type": "function"
    },
    {
      "constant": true,
      "inputs": [],
      "name": "symbol",
      "outputs": [
        {
          "internalType": "string",
          "name": "",
          "type": "string"
        }
      ],
      "payable": false,
      "stateMutability": "view",
      "type": "function"
    },
    {
      "constant": true,
      "inputs": [],
      "name": "decimals",
      "outputs": [
        {
          "internalType": "uint8",
          "name": "",
          "type": "uint8"
        }
      ],
      "payable": false,
      "stateMutability": "view",
      "type": "function"
    },
    {
      "constant": true,
      "inputs": [],
      "name": "start_Time",
      "outputs": [
        {
          "internalType": "uint256",
          "name": "",
          "type": "uint256"
        }
      ],
      "payable": false,
      "stateMutability": "view",
      "type": "function"
    },
    {
      "constant": true,
      "inputs": [],
      "name": "isMintingActivated",
      "outputs": [
        {
          "internalType": "bool",
          "name": "",
          "type": "bool"
        }
      ],
      "payable": false,
      "stateMutability": "view",
      "type": "function"
    },
    {
      "constant": true,
      "inputs": [],
      "name": "totalSupply",
      "outputs": [
        {
          "internalType": "uint256",
          "name": "",
          "type": "uint256"
        }
      ],
      "payable": false,
      "stateMutability": "view",
      "type": "function"
    },
    {
      "constant": true,
      "inputs": [
        {
          "internalType": "address",
          "name": "account",
          "type": "address"
        }
      ],
      "name": "balanceOf",
      "outputs": [
        {
          "internalType": "uint256",
          "name": "",
          "type": "uint256"
        }
      ],
      "payable": false,
      "stateMutability": "view",
      "type": "function"
    },
    {
      "constant": false,
      "inputs": [
        {
          "internalType": "address",
          "name": "recipient",
          "type": "address"
        },
        {
          "internalType": "uint256",
          "name": "amount",
          "type": "uint256"
        }
      ],
      "name": "transfer",
      "outputs": [
        {
          "internalType": "bool",
          "name": "",
          "type": "bool"
        }
      ],
      "payable": false,
      "stateMutability": "nonpayable",
      "type": "function"
    },
    {
      "constant": true,
      "inputs": [
        {
          "internalType": "address",
          "name": "owner",
          "type": "address"
        },
        {
          "internalType": "address",
          "name": "spender",
          "type": "address"
        }
      ],
      "name": "allowance",
      "outputs": [
        {
          "internalType": "uint256",
          "name": "",
          "type": "uint256"
        }
      ],
      "payable": false,
      "stateMutability": "view",
      "type": "function"
    },
    {
      "constant": false,
      "inputs": [
        {
          "internalType": "address",
          "name": "spender",
          "type": "address"
        },
        {
          "internalType": "uint256",
          "name": "amount",
          "type": "uint256"
        }
      ],
      "name": "approve",
      "outputs": [
        {
          "internalType": "bool",
          "name": "",
          "type": "bool"
        }
      ],
      "payable": false,
      "stateMutability": "nonpayable",
      "type": "function"
    },
    {
      "constant": false,
      "inputs": [
        {
          "internalType": "address",
          "name": "sender",
          "type": "address"
        },
        {
          "internalType": "address",
          "name": "recipient",
          "type": "address"
        },
        {
          "internalType": "uint256",
          "name": "amount",
          "type": "uint256"
        }
      ],
      "name": "transferFrom",
      "outputs": [
        {
          "internalType": "bool",
          "name": "",
          "type": "bool"
        }
      ],
      "payable": false,
      "stateMutability": "nonpayable",
      "type": "function"
    },
    {
      "constant": false,
      "inputs": [
        {
          "internalType": "address",
          "name": "spender",
          "type": "address"
        },
        {
          "internalType": "uint256",
          "name": "addedValue",
          "type": "uint256"
        }
      ],
      "name": "increaseAllowance",
      "outputs": [
        {
          "internalType": "bool",
          "name": "",
          "type": "bool"
        }
      ],
      "payable": false,
      "stateMutability": "nonpayable",
      "type": "function"
    },
    {
      "constant": false,
      "inputs": [
        {
          "internalType": "address",
          "name": "spender",
          "type": "address"
        },
        {
          "internalType": "uint256",
          "name": "subtractedValue",
          "type": "uint256"
        }
      ],
      "name": "decreaseAllowance",
      "outputs": [
        {
          "internalType": "bool",
          "name": "",
          "type": "bool"
        }
      ],
      "payable": false,
      "stateMutability": "nonpayable",
      "type": "function"
    },
    {
      "constant": false,
      "inputs": [],
      "name": "mintCoins",
      "outputs": [
        {
          "internalType": "bool",
          "name": "",
          "type": "bool"
        }
      ],
      "payable": false,
      "stateMutability": "nonpayable",
      "type": "function"
    },
    {
      "constant": false,
      "inputs": [
        {
          "internalType": "address",
          "name": "newReservoir",
          "type": "address"
        }
      ],
      "name": "changeReservoir",
      "outputs": [
        {
          "internalType": "bool",
          "name": "",
          "type": "bool"
        }
      ],
      "payable": false,
      "stateMutability": "nonpayable",
      "type": "function"
    },
    {
      "constant": true,
      "inputs": [],
      "name": "getCurrentEra",
      "outputs": [
        {
          "internalType": "uint256",
          "name": "",
          "type": "uint256"
        }
      ],
      "payable": false,
      "stateMutability": "view",
      "type": "function"
    },
    {
      "constant": true,
      "inputs": [],
      "name": "getCurrentCycle",
      "outputs": [
        {
          "internalType": "uint256",
          "name": "",
          "type": "uint256"
        }
      ],
      "payable": false,
      "stateMutability": "view",
      "type": "function"
    },
    {
      "constant": true,
      "inputs": [],
      "name": "getRecentMinter",
      "outputs": [
        {
          "internalType": "address",
          "name": "",
          "type": "address"
        }
      ],
      "payable": false,
      "stateMutability": "view",
      "type": "function"
    },
    {
      "constant": true,
      "inputs": [],
      "name": "getRecentyMintedAmount",
      "outputs": [
        {
          "internalType": "uint256",
          "name": "",
          "type": "uint256"
        }
      ],
      "payable": false,
      "stateMutability": "view",
      "type": "function"
    }
  ],
  "bytecode": "0x60806040526a0422ca8b0a00a4250000006003556004805460ff191690553480156200002a57600080fd5b5060408051808201909152600c8082526b534947482046494e414e434560a01b60209092019182526200006091604591620001f6565b50604080518082019091526004808252630a6928e960e31b60209092019182526200008e91604691620001f6565b506047805460ff19166012179055620000af6001600160e01b03620001f116565b600080546001600160a01b0319166001600160a01b03929092169190911781556a0422ca8b0a00a42500000090600190620000e9620001f1565b6001600160a01b03908116825260208083019390935260409091016000908120939093558254600b80546001600160a01b031916919092161790556a0422ca8b0a00a425000000600a819055918052600c90527f13649b2456f1b42fef0f0040b3aaeabcd21a76a0f3f5defd4f583839455116e855426009556006546007547fa0670224613a660cc4466d8b0e13baf543359444196ca0e93a1f5af5a354d3d091906200019e6001600160e01b03620001f116565b6003546040805194855260208501939093526001600160a01b03909116838301526a0422ca8b0a00a425000000606084015260808301524360a08301524260c0830152519081900360e00190a162000298565b335b90565b828054600181600116156101000203166002900490600052602060002090601f016020900481019282601f106200023957805160ff191683800117855562000269565b8280016001018555821562000269579182015b82811115620002695782518255916020019190600101906200024c565b50620002779291506200027b565b5090565b620001f391905b8082111562000277576000815560010162000282565b6119ce80620002a86000396000f3fe608060405234801561001057600080fd5b50600436106102265760003560e01c80636b3dee3b11610130578063b09f1266116100b8578063d28d88521161007c578063d28d8852146104f2578063dd62ed3e146104fa578063e504934214610528578063fa1acb5c14610530578063fc399a0d1461053857610226565b8063b09f1266146104ca578063b7d86829146104d2578063bd845d53146104da578063be26ed7f146104e2578063d250b6cb146104ea57610226565b80638cb7e8f5116100ff5780638cb7e8f51461045a57806395d89b4114610462578063a457c2d71461046a578063a8cc6d3214610496578063a9059cbb1461049e57610226565b80636b3dee3b146104005780636c6101fc1461042457806370a082311461042c578063798907c11461045257610226565b8063305f8e7a116101b357806338af37351161018257806338af373514610396578063395093511461039e578063482d2810146103ca5780634aed3b81146103d257806363d663bc146103da57610226565b8063305f8e7a14610360578063313ce5671461036857806332424aa31461038657806333c42fe01461038e57610226565b8063095ea7b3116101fa578063095ea7b3146102e657806318160ddd1461031257806319e943c61461031a57806322948c771461032257806323b872dd1461032a57610226565b8062dee43f1461022b57806301d6364b1461024757806306fdde031461024f57806307ec0443146102cc575b600080fd5b610233610540565b604080519115158252519081900360200190f35b6102336105fe565b610257610607565b6040805160208082528351818301528351919283929083019185019080838360005b83811015610291578181015183820152602001610279565b50505050905090810190601f1680156102be5780820380516001836020036101000a031916815260200191505b509250505060405180910390f35b6102d461069e565b60408051918252519081900360200190f35b610233600480360360408110156102fc57600080fd5b506001600160a01b0381351690602001356106a4565b6102d46106c2565b6102d46106c8565b6102d46106ce565b6102336004803603606081101561034057600080fd5b506001600160a01b038135811691602081013590911690604001356106d4565b6102d4610761565b610370610767565b6040805160ff9092168252519081900360200190f35b610370610770565b6102d4610779565b6102d461077f565b610233600480360360408110156103b457600080fd5b506001600160a01b038135169060200135610785565b6102d46107d9565b6102336107df565b610233600480360360208110156103f057600080fd5b50356001600160a01b03166107ef565b61040861090a565b604080516001600160a01b039092168252519081900360200190f35b6102d4610919565b6102d46004803603602081101561044257600080fd5b50356001600160a01b031661091f565b61023361093a565b61040861095d565b61025761096c565b6102336004803603604081101561048057600080fd5b506001600160a01b0381351690602001356109cd565b6102d4610a3b565b610233600480360360408110156104b457600080fd5b506001600160a01b038135169060200135610a42565b610257610a56565b610408610ae4565b610408610af8565b6102d4610b07565b6102d4610b0d565b610257610b13565b6102d46004803603604081101561051057600080fd5b506001600160a01b0381358116916020013516610b6e565b6102d4610b99565b6102d4610b9f565b610233610ba5565b600080546001600160a01b0316610555610bae565b6001600160a01b03161461059a5760405162461bcd60e51b815260040180806020018281038252602c8152602001806118a3602c913960400191505060405180910390fd5b600b54600160a01b900460ff166105e25760405162461bcd60e51b81526004018080602001828103825260338152602001806117496033913960400191505060405180910390fd5b6105ea610bb2565b426044556004805460ff1916600117905590565b60045460ff1681565b60458054604080516020601f60026000196101006001881615020190951694909404938401819004810282018101909252828152606093909290918301828280156106935780601f1061066857610100808354040283529160200191610693565b820191906000526020600020905b81548152906001019060200180831161067657829003601f168201915b505050505090505b90565b60075481565b60006106b86106b1610bae565b8484610fa6565b5060015b92915050565b60035490565b60445490565b60035481565b60006106e1848484611092565b610757846106ed610bae565b6107528560405180606001604052806028815260200161184b602891396001600160a01b038a1660009081526002602052604081209061072b610bae565b6001600160a01b03168152602081019190915260400160002054919063ffffffff6111ed16565b610fa6565b5060019392505050565b60085481565b60475460ff1690565b60475460ff1681565b610e7f81565b600a5490565b60006106b8610792610bae565b8461075285600260006107a3610bae565b6001600160a01b03908116825260208083019390935260409182016000908120918c16815292529020549063ffffffff61128416565b60095481565b600b54600160a01b900460ff1681565b600080546001600160a01b0316610804610bae565b6001600160a01b0316146108495760405162461bcd60e51b81526004018080602001828103825260238152602001806119526023913960400191505060405180910390fd5b60048054600580546001600160a01b0319166001600160a01b0361010080850482169290921790925590851602610100600160a81b0319909116179055600b5460ff600160a01b909104166108ac57600b805460ff60a01b1916600160a01b1790555b600554600454604080516001600160a01b0393841681526101009092049092166020820152438183015290517f8a842ed58c5a9e394bb04ce301007ae2fc4321b5b83b6b27ef269a9d56d9b9989181900360600190a1506001919050565b600b546001600160a01b031681565b600a5481565b6001600160a01b031660009081526001602052604090205490565b60006109446112e5565b6109505750600061069b565b6109586113bd565b905090565b6005546001600160a01b031681565b60468054604080516020601f60026000196101006001881615020190951694909404938401819004810282018101909252828152606093909290918301828280156106935780601f1061066857610100808354040283529160200191610693565b60006106b86109da610bae565b84610752856040518060600160405280602581526020016119756025913960026000610a04610bae565b6001600160a01b03908116825260208083019390935260409182016000908120918d1681529252902054919063ffffffff6111ed16565b6201518081565b60006106b8610a4f610bae565b8484611092565b6046805460408051602060026001851615610100026000190190941693909304601f81018490048402820184019092528181529291830182828015610adc5780601f10610ab157610100808354040283529160200191610adc565b820191906000526020600020905b815481529060010190602001808311610abf57829003601f168201915b505050505081565b60045461010090046001600160a01b031681565b600b546001600160a01b031690565b60065490565b60075490565b6045805460408051602060026001851615610100026000190190941693909304601f81018490048402820184019092528181529291830182828015610adc5780601f10610ab157610100808354040283529160200191610adc565b6001600160a01b03918216600090815260026020908152604080832093909416825291909152205490565b60065481565b60445481565b60045460ff1690565b3390565b6040805160a080820183526001808352603c6020808501829052606485870181905267028f5c28f5c28f5c606080880182905266408ac29dd34bc66080988901819052600d96909655600e859055600f92909255601080546fffffffffffffffffffffffffffffffff19908116909217905560119490945586518086018852603d8082526101a982850181905260c8838b01819052670147ae147ae147ae84860181905267018e864eb0e7c3e8948b0185905260128490556013929092556014556015805488169091179055601691909155875180870189526101aa808252610316828601819052610190838c0181905266a3d70a3d70a3d78487018190526703df69934066b112948c01859052601793909355601891909155601955601a805488169091179055601b5587518087018952610317808252610483828601819052610320838c018190526651eb851eb851eb84870181905267061c258a4f8002b8948c01859052601c93909355601d91909155601e55601f8054881690911790558355875180870189526104848082526105f0828601819052610640838c018190526628f5c28f5c28f58487018190526707accea6aa29d8f5948c018590526021939093556022919091556023556024805488169091179055602555875180870189526105f180825261075d828601819052610c80838c0181905266147ae147ae147a84870181905267089a290799316650948c018590526026939093556027919091556028556029805488169091179055602a558751808701895261075e8082526108ca828601819052611900838c01819052660a3d70a3d70a3d84870181905267091b646996bfd89b948c01859052602b93909355602c91909155602d55602e805488169091179055602f55875180870189526108cb808252610a37828601819052613200838c0181905266051eb851eb851e84870181905267095ed3deefe1ff81948c01859052603093909355603191909155603255603380548816909117905560345587518087018952610a38808252610ba4828601819052616400838c0181905266028f5c28f5c28f848701819052670981462276d9b88c948c01859052603593909355603691909155603755603880548816909117905560395587518087018952610ba5808252610d1182860181905261c800838c01819052660147ae147ae147848701819052670992aeaeafcefac5948c01859052603a93909355603b91909155909555815486169094179055603e9290925585519384018652610d12808552610e7e9185018290526201900085880181905265a3d70a3d70a393860184905267099b6ee8c7ccc3b495909601859052603f55909455604192909255604280549092169092179055604355565b6001600160a01b038316610feb5760405162461bcd60e51b81526004018080602001828103825260248152602001806118f46024913960400191505060405180910390fd5b6001600160a01b0382166110305760405162461bcd60e51b815260040180806020018281038252602281526020018061179f6022913960400191505060405180910390fd5b6001600160a01b03808416600081815260026020908152604080832094871680845294825291829020859055815185815291517f8c5be1e5ebec7d5bd14f71427d1e84f3dd0314c0f7b2291e5b200ac8c7c3b9259281900390910190a3505050565b6001600160a01b0383166110d75760405162461bcd60e51b81526004018080602001828103825260258152602001806118cf6025913960400191505060405180910390fd5b6001600160a01b03821661111c5760405162461bcd60e51b815260040180806020018281038252602381526020018061177c6023913960400191505060405180910390fd5b6111246112e5565b15611133576111316113bd565b505b6001600160a01b03831660009081526001602052604090205461115c908263ffffffff6115ca16565b6001600160a01b038085166000908152600160205260408082209390935590841681522054611191908263ffffffff61128416565b6001600160a01b0380841660008181526001602090815260409182902094909455805185815290519193928716927fddf252ad1be2c89b69c2b068fc378daa952ba7f163c4a11628f55a4df523b3ef92918290030190a3505050565b6000818484111561127c5760405162461bcd60e51b81526004018080602001828103825283818151815260200191508051906020019080838360005b83811015611241578181015183820152602001611229565b50505050905090810190601f16801561126e5780820380516001836020036101000a031916815260200191505b509250505060405180910390fd5b505050900390565b6000828201838110156112de576040805162461bcd60e51b815260206004820152601b60248201527f536166654d6174683a206164646974696f6e206f766572666c6f770000000000604482015290519081900360640190fd5b9392505050565b60045460009060ff166113295760405162461bcd60e51b81526004018080602001828103825260308152602001806118736030913960400191505060405180910390fd5b610e7f6006541061136b5760405162461bcd60e51b81526004018080602001828103825260368152602001806117eb6036913960400191505060405180910390fd5b6201518061137b6009544261160c565b116113b75760405162461bcd60e51b815260040180806020018281038252602a8152602001806117c1602a913960400191505060405180910390fd5b50600190565b6000806113cc6044544261161e565b9050600654811161140e5760405162461bcd60e51b815260040180806020018281038252602a815260200180611821602a913960400191505060405180910390fd5b600681905561141b611657565b600754101561142e576007805460010190555b600a60075411156114705760405162461bcd60e51b815260040180806020018281038252603a815260200180611918603a913960400191505060405180910390fd5b600061149d600d600754600b811061148457fe5b60050201600201546003546116a690919063ffffffff16565b60038054820190559050681b1ae4d6e2ef500000600160006114bd610bae565b6001600160a01b03908116825260208083019390935260409182016000908120805490950190945560045461010090041683526001909152902080548201681b1ae4d6e2ef4fffff19019055611511610bae565b600b80546001600160a01b0319166001600160a01b0392909216919091179055600a819055600680546000908152600c6020526040902082905542600955546007547fa0670224613a660cc4466d8b0e13baf543359444196ca0e93a1f5af5a354d3d0919061157e610bae565b6003546040805194855260208501939093526001600160a01b03909116838301526060830185905260808301524360a08301524260c0830152519081900360e00190a160019250505090565b60006112de83836040518060400160405280601e81526020017f536166654d6174683a207375627472616374696f6e206f766572666c6f7700008152506111ed565b60006112de828463ffffffff6115ca16565b60008061162b848461160c565b905060016201518080830683030401610e7f811061164f57610e7f925050506106bc565b949350505050565b6000603c6006541115801561166a575060015b156116775750600061069b565b600061016d603c600654038161168957fe5b0490506009811161169e57600101905061069b565b600b91505090565b60006112de83836040518060400160405280601a81526020017f536166654d6174683a206469766973696f6e206279207a65726f000000000000815250600081836117325760405162461bcd60e51b8152602060048201818152835160248401528351909283926044909101919085019080838360008315611241578181015183820152602001611229565b50600083858161173e57fe5b049594505050505056fe5265736572766f6972206e6565647320746f20626520736574206265666f72652074686520457261732063616e20626567696e45524332303a207472616e7366657220746f20746865207a65726f206164647265737345524332303a20617070726f766520746f20746865207a65726f2061646472657373412064617920686173206e6f7420656c61707365642073696e63652070726576696f7573206d696e742e416c6c20457261732068617665206265656e20436f6d706c657465642e204e6f206e6577204d696e74696e6720706f737369626c652e4d696e74696e6720686173206265656e20636f6d706c6574656420666f722074686973204379636c652e45524332303a207472616e7366657220616d6f756e74206578636565647320616c6c6f77616e63654d696e74696e6720686173206e6f74206265656e2061637469766174656420627920746865206f776e6572207965742e4d696e696e672063616e206f6e6c7920626520696e697469616c697a656420627920746865206f776e65722e45524332303a207472616e736665722066726f6d20746865207a65726f206164647265737345524332303a20617070726f76652066726f6d20746865207a65726f2061646472657373416c6c2074686520457261732068617665206265656e20436f6d706c657465642e204e6f206e6577204d696e74696e6720706f737369626c652e4f6e6c79207468652041646d696e2063616e206368616e6765205265736572766f697245524332303a2064656372656173656420616c6c6f77616e63652062656c6f77207a65726fa265627a7a72315820e55a6be314b43cdb3a0c65fbe0e058c87d4162c49f387e23f22f37cc871ffb8f64736f6c63430005100032",
  "source": "pragma solidity ^0.5.16;\n\nimport \"./Math/ABDKMath.sol\";\nimport \"./openzeppelin/Context.sol\";\nimport \"./openzeppelin/IERC20.sol\";\nimport \"./openzeppelin/SafeMath.sol\";\nimport \"./openzeppelin/Address.sol\";\n\ncontract SIGH is Context, IERC20 {\n\n    using SafeMath for uint256;    // Time based calculations\n    using ABDKMath64x64 for int128;\n    using Address for address;\n\n    address private _owner;\n\n    mapping (address => uint256) private balances;\n    mapping (address => mapping (address => uint256)) private _allowances;\n\n    uint256 private constant INITIAL_SUPPLY = 5 * 10**6 * 10**18; // 5 Million (with 18 decimals)\n    uint256 public CURRENT_SUPPLY = INITIAL_SUPPLY ;\n    bool public mintingActivated = false;\n\n    address public Reservoir;\n    address public prevReservoir;\n\n\n    uint256 public constant CYCLE_SECONDS = 86400;  // 24*60*60 (i.e seconds in 1 day )\n    uint256 public constant FINAL_CYCLE = 3711; // 10 years (3650 days) + 60 days\n    uint256 public Current_Cycle; \n    uint256 public Current_Era;\n    uint256 public currentDivisibilityFactor;\n    uint256 public previousMintTimeStamp;\n    uint256 public recentlyMintedAmount;\n    address public recentMinter;\n    bool public isReservoirSet;\n\n    mapping ( uint256 => uint256 ) private mintHistory;\n\n    struct Era {\n        uint256 startCycle;\n        uint256 endCycle;\n        uint256 divisibilityFactor;\n        int128 cyclicAddition;\n        uint256 finalSupply;\n    }\n\n    Era[11] private _eras;\n    uint256 public _startTime;\n\n    string public _name;\n    string public _symbol;\n    uint8 public _decimals;\n\n    event coinsMinted(uint256 cycle, uint256 Era, address minter, uint256 amountMinted, uint256 current_supply, uint256 block_number, uint timestamp);\n    event ReservoirChanged(address prevReservoir, address newReservoir, uint256 blockNumber);\n\n    // constructing  \n    constructor () public {\n        _name = 'SIGH FINANCE';\n        _symbol = 'SIGH';\n        _decimals = 18;\n        _owner = _msgSender();\n        balances[_msgSender()] = INITIAL_SUPPLY;\n        recentMinter = _owner;\n        recentlyMintedAmount = INITIAL_SUPPLY;\n        mintHistory[0] = INITIAL_SUPPLY;\n        previousMintTimeStamp = now;\n        emit coinsMinted(Current_Cycle,Current_Era,_msgSender(),INITIAL_SUPPLY,CURRENT_SUPPLY,block.number, now);\n    }\n\n    function initMinting() public returns (bool) {\n        require(_msgSender() == _owner,\"Mining can only be initialized by the owner.\" );\n        require( isReservoirSet , \"Reservoir needs to be set before the Eras can begin\" );\n        _initEras();\n        _startTime = now;\n        mintingActivated = true;\n    }\n\n    function _initEras() private {\n        _eras[0] = Era(1, 60, 100, 184467440737095516, 18166966985640902);        // 60 days\n        _eras[1] = Era(61, 425, 200, 92233720368547758, 112174713264391144);       // 1 year\n        _eras[2] = Era(426, 790, 400, 46116860184273879, 279057783081840914);      // 1 year\n        _eras[3] = Era(791, 1155, 800, 23058430092136939, 440268139544969912);       // 1 year\n        _eras[4] = Era(1156, 1520, 1600, 11529215046068469, 553044069474490613);     // 1 year\n        _eras[5] = Era(1521, 1885, 3200, 5764607523034234, 619853011328525904);      // 1 year   \n        _eras[6] = Era(1886, 2250, 6400, 2882303761517117, 656228575376038043);       // 1 year\n        _eras[7] = Era(2251, 2615, 12800, 1441151880758558, 675209948612919169);        // 1 year\n        _eras[8] = Era(2616, 2980, 25600, 720575940379279, 684905732173838476);        // 1 year\n        _eras[9] = Era(2981, 3345, 51200, 360287970189639, 689805758238227141);        // 1 year\n        _eras[10] = Era(3346, 3710, 102400, 180143985094819, 692268913795056564);       // 1 year\n    }\n\n    function name() public view returns (string memory) {\n        return _name;\n    }\n\n    function symbol() public view returns (string memory) {\n        return _symbol;\n    }\n\n    function decimals() public view returns (uint8) {\n        return _decimals;\n    }\n\n    function start_Time() external view returns(uint256) {\n        return _startTime;\n    }\n\n    function isMintingActivated() external view returns(bool) {\n        return mintingActivated;\n    }\n\n    // function sendAirdrop(address[] calldata recipients, uint256 airdropAmt) external {\n    //     for (uint256 i = 0; i < recipients.length; i++) {\n    //         transfer(recipients[i], airdropAmt);\n    //     }\n    // }\n\n    function totalSupply() public view  returns (uint256) {\n        return CURRENT_SUPPLY;\n    }\n\n    function balanceOf(address account) public view  returns (uint256) {\n        return balances[account];\n    }\n\n    // Transfer made by the address owner himself\n    function transfer(address recipient, uint256 amount) public  returns (bool) {\n        _transfer(_msgSender(), recipient, amount);\n        return true;\n    }\n\n    function allowance(address owner, address spender) public view  returns (uint256) {\n        return _allowances[owner][spender];\n    }\n\n    // Address owners Approve a spender for allowance\n    function approve(address spender, uint256 amount) public  returns (bool) {\n        _approve(_msgSender(), spender, amount);\n        return true;\n    }\n\n    // User with allowance calls the transfer function\n    function transferFrom(address sender, address recipient, uint256 amount) public  returns (bool) {\n        _transfer(sender, recipient, amount);\n        _approve(sender, _msgSender(), _allowances[sender][_msgSender()].sub(amount, \"ERC20: transfer amount exceeds allowance\"));\n        return true;\n    }\n\n    function increaseAllowance(address spender, uint256 addedValue) public returns (bool) {\n        _approve(_msgSender(), spender, _allowances[_msgSender()][spender].add(addedValue));\n        return true;\n    }\n\n    function decreaseAllowance(address spender, uint256 subtractedValue) public returns (bool) {\n        _approve(_msgSender(), spender, _allowances[_msgSender()][spender].sub(subtractedValue, \"ERC20: decreased allowance below zero\"));\n        return true;\n    }\n\n    function _approve(address owner, address spender, uint256 amount) private {\n        require(owner != address(0), \"ERC20: approve from the zero address\");\n        require(spender != address(0), \"ERC20: approve to the zero address\");\n\n        _allowances[owner][spender] = amount;\n        emit Approval(owner, spender, amount);\n    }\n\n    function _transfer(address sender, address recipient, uint256 amount) private {\n        require(sender != address(0), \"ERC20: transfer from the zero address\");\n        require(recipient != address(0), \"ERC20: transfer to the zero address\");\n\n        if (isMintingPossible()) {\n             mintNewCoins();\n        }\n\n        balances[sender] = balances[sender].sub(amount);\n        balances[recipient] = balances[recipient].add(amount);\n        emit Transfer(sender, recipient, amount);\n    }\n\n    // checks if minting can be done right now\n    function isMintingPossible() private view returns (bool) {\n        require(mintingActivated, \"Minting has not been activated by the owner yet.\");\n        require(Current_Cycle < 3711, \"All Eras have been Completed. No new Minting possible.\" );\n        require(_getElapsedSeconds(previousMintTimeStamp,now) > CYCLE_SECONDS, \"A day has not elapsed since previous mint.\" );\n        return true;\n    }\n\n    // FUNCTION TO MINT NEW COINS - CAN BE CALLED BY ANYONE ONCE THE MINTING IS ACTIVATED\n    function mintCoins() external returns (bool) {\n\n        if ( !isMintingPossible() ) {\n            return false;\n        }\n\n        return mintNewCoins();\n    }\n\n    // \n    function mintNewCoins() private returns (bool) {\n\n        uint256 cycle = _getCycle(_startTime,now);\n        require( cycle > Current_Cycle,\"Minting has been completed for this Cycle.\" );\n        Current_Cycle = cycle;  // CURRENT CYCLE IS UPDATED \n\n        // IF THE ERA HAS CHANGED\n        if ( Current_Era < _CalculateCurrentEra() ) {\n            Current_Era += 1; // ERA IS UPDATED\n        }\n\n        require( Current_Era <= 10, \"All the Eras have been Completed. No new Minting possible.\" );\n\n        uint256 newCoins = CURRENT_SUPPLY.div(_eras[Current_Era].divisibilityFactor);  // Calculate the number of new tokens to be minted.\n        CURRENT_SUPPLY += newCoins;\n        balances[_msgSender()] += 500 * 10**18;         // 500 coins given to caller for calling the mint successfully\n        balances[Reservoir] += newCoins - (500 * 10**18);     //newly minted coins provided to Reservoir\n        recentMinter = _msgSender();\n        recentlyMintedAmount = newCoins;\n        mintHistory[Current_Cycle] = newCoins;\n        previousMintTimeStamp = now;        \n        emit coinsMinted(Current_Cycle,Current_Era,_msgSender(),newCoins,CURRENT_SUPPLY,block.number, now);\n\n        return true;        \n    }\n\n    function changeReservoir(address newReservoir) public returns (bool) {\n        require(_msgSender() == _owner, \"Only the Admin can change Reservoir\");\n\n        prevReservoir = Reservoir;\n        Reservoir = newReservoir;\n        if (!isReservoirSet) {\n            isReservoirSet = true;\n        }        \n        emit ReservoirChanged(prevReservoir, Reservoir, block.number );\n        return true;\n    }\n\n    // Returns the current ERA\n   function getCurrentEra() public view returns (uint256) {\n        return Current_Era;\n    }\n\n    // Returns the current Cycle\n   function getCurrentCycle() public view returns (uint256) {\n        return Current_Cycle;\n    }\n\n    function getRecentMinter() public view returns (address) {\n        return recentMinter;\n    }\n\n    function getRecentyMintedAmount() public view returns (uint256) {\n        return recentlyMintedAmount;\n    }\n\n    // function getMintHistory() public view returns ( mapping (uint128 => uint256) ) {\n    //     return mintHistory;\n    // }\n\n\n    // gives the day number since start\n    function _getCycle(uint256 startTime, uint256 currentTime) private pure returns(uint256) {\n        uint256 secondsElapsed = _getElapsedSeconds(startTime, currentTime);\n        uint256 cycle = (secondsElapsed - (secondsElapsed % CYCLE_SECONDS)) / CYCLE_SECONDS + 1; // secondsElapsed % CYCLE_SECONDS gives remainder seconds which are subtracted. \n        // (secondsElapsed - (secondsElapsed % CYCLE_SECONDS)) is divided by CYCLE_SECONDS which gives number of days elapsed (from 0) and 1 is added to it \n\n        // if cycle is greater than 3711, i.e all eras completed\n        if (cycle >= FINAL_CYCLE) \n            return FINAL_CYCLE;\n\n        return cycle;\n    }\n\n    // subtracts startTime from currentTime\n    function _getElapsedSeconds(uint256 startTime, uint256 currentTime) private pure returns(uint256) {\n        return currentTime.sub(startTime);\n    }\n\n    function _CalculateCurrentEra() private view returns (uint256) {\n\n        if (Current_Cycle <= 60 && Current_Cycle >= 0 ) {\n            return uint256(0);\n        }\n\n        uint256 C_Era = (Current_Cycle - 60) / 365;\n\n        if (C_Era <= 9 ) {\n            return uint256(C_Era + 1);\n        }\n\n        return uint256(11);\n    }\n\n\n\n\n\n}\n\n\n\n\n\n\n\n\n\n",
  "sourcePath": "/Users/apple/Desktop/GITCOIN/Sigh_Finance/SighFinanceContracts/contracts/Sigh.sol",
  "compiler": {
    "name": "solc",
    "version": "0.5.16+commit.9c3226ce.Emscripten.clang"
  },
  "schemaVersion": "3.2.4",
  "updatedAt": "2020-09-19T13:15:46.977Z",
  "networkType": "ethereum",
  "devdoc": {
    "methods": {}
  },
  "userdoc": {
    "methods": {}
  }
}