{
  "contractName": "SighReservoir",
  "abi": [
    {
      "inputs": [
        {
          "internalType": "contract EIP20Interface",
          "name": "token_",
          "type": "address"
        }
      ],
      "payable": false,
      "stateMutability": "nonpayable",
      "type": "constructor"
    },
    {
      "constant": true,
      "inputs": [],
      "name": "admin",
      "outputs": [
        {
          "internalType": "address",
          "name": "",
          "type": "address"
        }
      ],
      "payable": false,
      "stateMutability": "view",
      "type": "function"
    },
    {
      "constant": true,
      "inputs": [],
      "name": "dripRate",
      "outputs": [
        {
          "internalType": "uint256",
          "name": "",
          "type": "uint256"
        }
      ],
      "payable": false,
      "stateMutability": "view",
      "type": "function"
    },
    {
      "constant": true,
      "inputs": [],
      "name": "dripStart",
      "outputs": [
        {
          "internalType": "uint256",
          "name": "",
          "type": "uint256"
        }
      ],
      "payable": false,
      "stateMutability": "view",
      "type": "function"
    },
    {
      "constant": true,
      "inputs": [],
      "name": "isDripAllowed",
      "outputs": [
        {
          "internalType": "bool",
          "name": "",
          "type": "bool"
        }
      ],
      "payable": false,
      "stateMutability": "view",
      "type": "function"
    },
    {
      "constant": true,
      "inputs": [],
      "name": "lastDripBlockNumber",
      "outputs": [
        {
          "internalType": "uint256",
          "name": "",
          "type": "uint256"
        }
      ],
      "payable": false,
      "stateMutability": "view",
      "type": "function"
    },
    {
      "constant": true,
      "inputs": [],
      "name": "recentlyDrippedAmount",
      "outputs": [
        {
          "internalType": "uint256",
          "name": "",
          "type": "uint256"
        }
      ],
      "payable": false,
      "stateMutability": "view",
      "type": "function"
    },
    {
      "constant": true,
      "inputs": [],
      "name": "target",
      "outputs": [
        {
          "internalType": "address",
          "name": "",
          "type": "address"
        }
      ],
      "payable": false,
      "stateMutability": "view",
      "type": "function"
    },
    {
      "constant": true,
      "inputs": [],
      "name": "token",
      "outputs": [
        {
          "internalType": "contract EIP20Interface",
          "name": "",
          "type": "address"
        }
      ],
      "payable": false,
      "stateMutability": "view",
      "type": "function"
    },
    {
      "constant": true,
      "inputs": [],
      "name": "totalDrippedAmount",
      "outputs": [
        {
          "internalType": "uint256",
          "name": "",
          "type": "uint256"
        }
      ],
      "payable": false,
      "stateMutability": "view",
      "type": "function"
    },
    {
      "constant": false,
      "inputs": [
        {
          "internalType": "uint256",
          "name": "dripRate_",
          "type": "uint256"
        },
        {
          "internalType": "address",
          "name": "target_",
          "type": "address"
        }
      ],
      "name": "beginDripping",
      "outputs": [
        {
          "internalType": "bool",
          "name": "",
          "type": "bool"
        }
      ],
      "payable": false,
      "stateMutability": "nonpayable",
      "type": "function"
    },
    {
      "constant": false,
      "inputs": [
        {
          "internalType": "uint256",
          "name": "dripRate_",
          "type": "uint256"
        }
      ],
      "name": "changeDripRate",
      "outputs": [
        {
          "internalType": "bool",
          "name": "",
          "type": "bool"
        }
      ],
      "payable": false,
      "stateMutability": "nonpayable",
      "type": "function"
    },
    {
      "constant": false,
      "inputs": [],
      "name": "drip",
      "outputs": [
        {
          "internalType": "uint256",
          "name": "",
          "type": "uint256"
        }
      ],
      "payable": false,
      "stateMutability": "nonpayable",
      "type": "function"
    },
    {
      "constant": true,
      "inputs": [],
      "name": "getSighAddress",
      "outputs": [
        {
          "internalType": "address",
          "name": "",
          "type": "address"
        }
      ],
      "payable": false,
      "stateMutability": "view",
      "type": "function"
    },
    {
      "constant": true,
      "inputs": [],
      "name": "getTargetAddress",
      "outputs": [
        {
          "internalType": "address",
          "name": "",
          "type": "address"
        }
      ],
      "payable": false,
      "stateMutability": "view",
      "type": "function"
    }
  ],
  "bytecode": "0x60806040526007805460ff60a01b1916905534801561001d57600080fd5b5060405161086d38038061086d8339818101604052602081101561004057600080fd5b5051600780546001600160a01b03199081163317909155600280546001600160a01b0390931692909116919091179055600060058190556006556107e4806100896000396000f3fe608060405234801561001057600080fd5b50600436106100ea5760003560e01c8063d32615921161008c578063f4bdffa711610066578063f4bdffa7146101a5578063f851a440146101ad578063fc0c546a146101b5578063fc9f213a146101bd576100ea565b8063d32615921461018d578063d4b8399214610195578063e8f444591461019d576100ea565b806388a91a8a116100c857806388a91a8a1461016d5780639f678cca14610175578063b02644d01461017d578063c55580da14610185576100ea565b8063213d832a146100ef57806330dbdfc4146101095780636f338a2214610149575b600080fd5b6100f76101da565b60408051918252519081900360200190f35b6101356004803603604081101561011f57600080fd5b50803590602001356001600160a01b03166101e0565b604080519115158252519081900360200190f35b6101516102bb565b604080516001600160a01b039092168252519081900360200190f35b6100f76102ca565b6100f76102d0565b61015161032b565b61013561033a565b6100f761034a565b610151610350565b6100f761035f565b6100f7610365565b61015161036b565b61015161037a565b610135600480360360208110156101d357600080fd5b5035610389565b60065481565b6007546000906001600160a01b0316331461022c5760405162461bcd60e51b815260040180806020018281038252602d8152602001806106e1602d913960400191505060405180910390fd5b600754600160a01b900460ff16156102755760405162461bcd60e51b815260040180806020018281038252602581526020018061078b6025913960400191505060405180910390fd5b5043600081905560045560018281556007805460ff60a01b1916600160a01b179055600380546001600160a01b0384166001600160a01b03199091161790555b92915050565b6003546001600160a01b031690565b60005481565b600754600090600160a01b900460ff1661031b5760405162461bcd60e51b815260040180806020018281038252602e81526020018061070e602e913960400191505060405180910390fd5b6000610325610427565b91505090565b6002546001600160a01b031690565b600754600160a01b900460ff1681565b60015481565b6003546001600160a01b031681565b60045481565b60055481565b6007546001600160a01b031681565b6002546001600160a01b031681565b6007546000906001600160a01b031633146103d55760405162461bcd60e51b815260040180806020018281038252602a81526020018061073c602a913960400191505060405180910390fd5b600754600160a01b900460ff161561041e5760405162461bcd60e51b81526004018080602001828103825260258152602001806107666025913960400191505060405180910390fd5b50600190815590565b600254604080516370a0823160e01b815230600482015290516000926001600160a01b031691839183916370a08231916024808301926020929190829003018186803b15801561047657600080fd5b505afa15801561048a573d6000803e3d6000fd5b505050506040513d60208110156104a057600080fd5b505160015460045460408051808201909152601281527164726970546f74616c206f766572666c6f7760701b602082015292935043926000926104e8929091908503906105c1565b905060006104f68483610674565b6003546040805163a9059cbb60e01b81526001600160a01b0392831660048201526024810184905290519293509087169163a9059cbb916044808201926020929091908290030181600087803b15801561054f57600080fd5b505af1158015610563573d6000803e3d6000fd5b505050506040513d602081101561057957600080fd5b5050600483905560055460068290556040805180820190915260088152674f766572666c6f7760c01b60208201526105b4908290849061068b565b6005555094505050505090565b6000836105d05750600061066d565b838302838582816105dd57fe5b041483906106695760405162461bcd60e51b81526004018080602001828103825283818151815260200191508051906020019080838360005b8381101561062e578181015183820152602001610616565b50505050905090810190601f16801561065b5780820380516001836020036101000a031916815260200191505b509250505060405180910390fd5b5090505b9392505050565b60008183116106845750816102b5565b50806102b5565b600083830182858210156106695760405162461bcd60e51b815260206004820181815283516024840152835190928392604490910191908501908083836000831561062e57818101518382015260200161061656fe4472697070696e672063616e206f6e6c7920626520696e697469616c697a6564206279207468652041646d696e4472697070696e6720686173206e6f74206265656e20696e697469616c697a6564206279207468652041646d696e4472697020726174652063616e206f6e6c79206265206368616e676564206279207468652041646d696e4472697070696e67206e6565647320746f206265206163746976617465642066697273742e4472697070696e672063616e206f6e6c7920626520696e697469616c697a6564206f6e6365a265627a7a723158207e7e8e14c6ae09fb89852742f95c4f12eedf40768cb608db5f05cbadcb3911ee64736f6c63430005100032",
  "source": "pragma solidity ^0.5.16;\n\n/**\n * @title Sigh Reservoir Contract\n * @notice Distributes a token to a different contract at a fixed rate.\n * @dev This contract must be poked via the `drip()` function every so often.\n * @author SighFinance\n */\ncontract SighReservoir {\n\n  /// @notice The block number when the Reservoir started (immutable)\n  uint public dripStart;\n\n  /// @notice Tokens per block that to drip to target (immutable)\n  uint public dripRate;\n\n  /// @notice Reference to token to drip (immutable)\n  EIP20Interface public token;\n\n  /// @notice Target to receive dripped tokens (immutable)\n  address public target;\n\n  uint public lastDripBlockNumber;    \n\n  uint public totalDrippedAmount; // Dripped Amount till now\n\n  uint public recentlyDrippedAmount;  // Amount recently Dripped\n\n  address public admin;\n\n  bool public isDripAllowed = false;  \n\n  /**\n    * @notice Constructs a Reservoir\n    * @param token_ The token to drip\n    */\n  constructor(EIP20Interface token_) public {\n    admin = msg.sender;\n    token = token_;\n    totalDrippedAmount = 0;\n    recentlyDrippedAmount = 0;\n\n  }\n\n  function beginDripping (uint dripRate_, address target_ ) public returns (bool) {\n    require(admin == msg.sender,\"Dripping can only be initialized by the Admin\");\n    require(!isDripAllowed,\"Dripping can only be initialized once\");\n    dripStart = block.number;\n    lastDripBlockNumber = block.number;\n    dripRate = dripRate_;\n    isDripAllowed = true;\n    target = target_;\n    return true;\n  }\n\n  function changeDripRate (uint dripRate_) public returns (bool) {\n    require(admin == msg.sender,\"Drip rate can only be changed by the Admin\");\n    require(!isDripAllowed,\"Dripping needs to be activated first.\");\n    dripRate = dripRate_;\n    return true;\n  }\n\n  /**\n    * @notice Drips the maximum amount of tokens to match the drip rate since inception\n    * @dev Note: this will only drip up to the amount of tokens available.\n    * @return The amount of tokens dripped in this call\n    */\n  function drip() public returns (uint) {\n    require(isDripAllowed,'Dripping has not been initialized by the Admin');    \n    uint drippedAmount = dripInternal();\n    return drippedAmount;\n  }\n\n  function dripInternal() internal returns (uint) {\n    EIP20Interface token_ = token;\n    uint reservoirBalance_ = token_.balanceOf(address(this)); // TODO: Verify this is a static call\n    uint blockNumber_ = block.number;\n    uint deltaDrip_ = mul(dripRate, blockNumber_ - lastDripBlockNumber, \"dripTotal overflow\");\n    uint toDrip_ = min(reservoirBalance_, deltaDrip_);\n    token_.transfer(target, toDrip_);\n    lastDripBlockNumber = blockNumber_; // setting the block number when the Drip is made\n    uint prevDrippedAmount = totalDrippedAmount;\n    recentlyDrippedAmount = toDrip_;\n    totalDrippedAmount = add(prevDrippedAmount,toDrip_,\"Overflow\");\n    return toDrip_;\n  } \n\n  function getSighAddress() external view returns (address) {\n    return address(token);\n  }\n\n  function getTargetAddress() external view returns (address) {\n    return address(target);\n  }\n\n  /* Internal helper functions for safe math */\n\n  function add(uint a, uint b, string memory errorMessage) internal pure returns (uint) {\n    uint c = a + b;\n    require(c >= a, errorMessage);\n    return c;\n  }\n\n  function sub(uint a, uint b, string memory errorMessage) internal pure returns (uint) {\n    require(b <= a, errorMessage);\n    uint c = a - b;\n    return c;\n  }\n\n  function mul(uint a, uint b, string memory errorMessage) internal pure returns (uint) {\n    if (a == 0) {\n      return 0;\n    }\n    uint c = a * b;\n    require(c / a == b, errorMessage);\n    return c;\n  }\n\n  function min(uint a, uint b) internal pure returns (uint) {\n    if (a <= b) {\n      return a;\n    } else {\n      return b;\n    }\n  }\n}\n\nimport \"../openzeppelin/EIP20Interface.sol\";\n",
  "sourcePath": "/Users/apple/Desktop/GITCOIN/Sigh_Finance/SighFinanceContracts/contracts/Reservoir/SighReservoir.sol",
  "compiler": {
    "name": "solc",
    "version": "0.5.16+commit.9c3226ce.Emscripten.clang"
  },
  "schemaVersion": "3.2.4",
  "updatedAt": "2020-09-19T14:33:58.414Z",
  "networkType": "ethereum",
  "devdoc": {
    "author": "SighFinance",
    "details": "This contract must be poked via the `drip()` function every so often.",
    "methods": {
      "constructor": {
        "params": {
          "token_": "The token to drip"
        }
      },
      "drip()": {
        "details": "Note: this will only drip up to the amount of tokens available.",
        "return": "The amount of tokens dripped in this call"
      }
    },
    "title": "Sigh Reservoir Contract"
  },
  "userdoc": {
    "methods": {
      "constructor": "Constructs a Reservoir",
      "drip()": {
        "notice": "Drips the maximum amount of tokens to match the drip rate since inception"
      }
    },
    "notice": "Distributes a token to a different contract at a fixed rate."
  }
}