{
  "contractName": "SighFinanceConfigurator",
  "abi": [
    {
      "anonymous": false,
      "inputs": [
        {
          "indexed": true,
          "internalType": "address",
          "name": "_instrument",
          "type": "address"
        },
        {
          "indexed": true,
          "internalType": "address",
          "name": "_iToken",
          "type": "address"
        },
        {
          "indexed": false,
          "internalType": "address",
          "name": "_interestRateStrategyAddress",
          "type": "address"
        }
      ],
      "name": "InstrumentInitialized",
      "type": "event"
    },
    {
      "anonymous": false,
      "inputs": [
        {
          "indexed": true,
          "internalType": "address",
          "name": "_instrument",
          "type": "address"
        }
      ],
      "name": "InstrumentRemoved",
      "type": "event"
    },
    {
      "constant": true,
      "inputs": [],
      "name": "CONFIGURATOR_REVISION",
      "outputs": [
        {
          "internalType": "uint256",
          "name": "",
          "type": "uint256"
        }
      ],
      "payable": false,
      "stateMutability": "view",
      "type": "function"
    },
    {
      "constant": true,
      "inputs": [],
      "name": "globalAddressesProvider",
      "outputs": [
        {
          "internalType": "contract GlobalAddressesProvider",
          "name": "",
          "type": "address"
        }
      ],
      "payable": false,
      "stateMutability": "view",
      "type": "function"
    },
    {
      "constant": false,
      "inputs": [
        {
          "internalType": "contract GlobalAddressesProvider",
          "name": "_globalAddressesProvider",
          "type": "address"
        }
      ],
      "name": "initialize",
      "outputs": [],
      "payable": false,
      "stateMutability": "nonpayable",
      "type": "function"
    },
    {
      "constant": false,
      "inputs": [],
      "name": "beginDrippingFromSIGHSpeedController",
      "outputs": [
        {
          "internalType": "bool",
          "name": "",
          "type": "bool"
        }
      ],
      "payable": false,
      "stateMutability": "nonpayable",
      "type": "function"
    },
    {
      "constant": false,
      "inputs": [
        {
          "internalType": "uint256",
          "name": "newSpeed_",
          "type": "uint256"
        }
      ],
      "name": "updateSighVolatilityDistributionSpeedInSIGHSpeedController",
      "outputs": [
        {
          "internalType": "bool",
          "name": "",
          "type": "bool"
        }
      ],
      "payable": false,
      "stateMutability": "nonpayable",
      "type": "function"
    },
    {
      "constant": false,
      "inputs": [
        {
          "internalType": "address",
          "name": "newProtocolAddress",
          "type": "address"
        },
        {
          "internalType": "uint256",
          "name": "sighSpeedRatio",
          "type": "uint256"
        }
      ],
      "name": "supportNewProtocolInSIGHSpeedController",
      "outputs": [
        {
          "internalType": "bool",
          "name": "",
          "type": "bool"
        }
      ],
      "payable": false,
      "stateMutability": "nonpayable",
      "type": "function"
    },
    {
      "constant": false,
      "inputs": [
        {
          "internalType": "address",
          "name": "protocolAddress_",
          "type": "address"
        }
      ],
      "name": "removeSupportedProtocolFromSIGHSpeedController",
      "outputs": [
        {
          "internalType": "bool",
          "name": "",
          "type": "bool"
        }
      ],
      "payable": false,
      "stateMutability": "nonpayable",
      "type": "function"
    },
    {
      "constant": false,
      "inputs": [
        {
          "internalType": "address",
          "name": "targetAddress",
          "type": "address"
        },
        {
          "internalType": "uint256",
          "name": "newRatio_",
          "type": "uint256"
        }
      ],
      "name": "changeProtocolSIGHSpeedRatioInSIGHSpeedController",
      "outputs": [
        {
          "internalType": "bool",
          "name": "",
          "type": "bool"
        }
      ],
      "payable": false,
      "stateMutability": "nonpayable",
      "type": "function"
    },
    {
      "constant": false,
      "inputs": [],
      "name": "refreshSIGHVolatilityHarvesterConfig",
      "outputs": [],
      "payable": false,
      "stateMutability": "nonpayable",
      "type": "function"
    },
    {
      "constant": false,
      "inputs": [
        {
          "internalType": "address",
          "name": "instrument_",
          "type": "address"
        },
        {
          "internalType": "uint256",
          "name": "_bearSentiment",
          "type": "uint256"
        },
        {
          "internalType": "uint256",
          "name": "_bullSentiment",
          "type": "uint256"
        },
        {
          "internalType": "bool",
          "name": "_isSIGHMechanismActivated",
          "type": "bool"
        }
      ],
      "name": "instrument__SIGH_StateUpdated_Distribution_Handler",
      "outputs": [
        {
          "internalType": "bool",
          "name": "",
          "type": "bool"
        }
      ],
      "payable": false,
      "stateMutability": "nonpayable",
      "type": "function"
    },
    {
      "constant": false,
      "inputs": [
        {
          "internalType": "uint256",
          "name": "newSighSpeed",
          "type": "uint256"
        }
      ],
      "name": "updateSIGHSpeed_In_SIGH_Distribution_Handler",
      "outputs": [
        {
          "internalType": "bool",
          "name": "",
          "type": "bool"
        }
      ],
      "payable": false,
      "stateMutability": "nonpayable",
      "type": "function"
    },
    {
      "constant": false,
      "inputs": [
        {
          "internalType": "address",
          "name": "instrument_",
          "type": "address"
        },
        {
          "internalType": "uint256",
          "name": "newStakingSpeed",
          "type": "uint256"
        }
      ],
      "name": "updateStakingSpeedForAnInstrument_In_SIGH_Distribution_Handler",
      "outputs": [
        {
          "internalType": "bool",
          "name": "",
          "type": "bool"
        }
      ],
      "payable": false,
      "stateMutability": "nonpayable",
      "type": "function"
    },
    {
      "constant": false,
      "inputs": [
        {
          "internalType": "uint256",
          "name": "maxVolatilityProtocolLimit_",
          "type": "uint256"
        }
      ],
      "name": "UpdateCryptoMarketSentiment_In_SIGH_Distribution_Handler",
      "outputs": [
        {
          "internalType": "bool",
          "name": "",
          "type": "bool"
        }
      ],
      "payable": false,
      "stateMutability": "nonpayable",
      "type": "function"
    },
    {
      "constant": false,
      "inputs": [
        {
          "internalType": "uint256",
          "name": "deltaBlocksLimit",
          "type": "uint256"
        }
      ],
      "name": "updateDeltaBlocksForSpeedRefresh_In_SIGH_Distribution_Handler",
      "outputs": [
        {
          "internalType": "bool",
          "name": "",
          "type": "bool"
        }
      ],
      "payable": false,
      "stateMutability": "nonpayable",
      "type": "function"
    },
    {
      "constant": false,
      "inputs": [
        {
          "internalType": "address",
          "name": "instrument",
          "type": "address"
        }
      ],
      "name": "initializeInstrumentStateInSIGHTreasury",
      "outputs": [],
      "payable": false,
      "stateMutability": "nonpayable",
      "type": "function"
    },
    {
      "constant": false,
      "inputs": [],
      "name": "refreshConfigInSIGHTreasury",
      "outputs": [],
      "payable": false,
      "stateMutability": "nonpayable",
      "type": "function"
    },
    {
      "constant": false,
      "inputs": [],
      "name": "switchSIGHBurnAllowedInSIGHTreasury",
      "outputs": [],
      "payable": false,
      "stateMutability": "nonpayable",
      "type": "function"
    },
    {
      "constant": false,
      "inputs": [
        {
          "internalType": "uint256",
          "name": "newSpeed",
          "type": "uint256"
        }
      ],
      "name": "updateSIGHBurnSpeedInSIGHTreasury",
      "outputs": [],
      "payable": false,
      "stateMutability": "nonpayable",
      "type": "function"
    },
    {
      "constant": false,
      "inputs": [
        {
          "internalType": "address",
          "name": "targetAddress",
          "type": "address"
        },
        {
          "internalType": "address",
          "name": "instrumnetToBeDistributed",
          "type": "address"
        },
        {
          "internalType": "uint256",
          "name": "distributionSpeed",
          "type": "uint256"
        }
      ],
      "name": "initializeInstrumentDistributionInSIGHTreasury",
      "outputs": [],
      "payable": false,
      "stateMutability": "nonpayable",
      "type": "function"
    },
    {
      "constant": false,
      "inputs": [
        {
          "internalType": "address",
          "name": "instrumentToBeDistributed",
          "type": "address"
        }
      ],
      "name": "changeInstrumentBeingDrippedInSIGHTreasury",
      "outputs": [],
      "payable": false,
      "stateMutability": "nonpayable",
      "type": "function"
    },
    {
      "constant": false,
      "inputs": [
        {
          "internalType": "uint256",
          "name": "newdistributionSpeed",
          "type": "uint256"
        }
      ],
      "name": "updateDripSpeedInSIGHTreasury",
      "outputs": [],
      "payable": false,
      "stateMutability": "nonpayable",
      "type": "function"
    },
    {
      "constant": false,
      "inputs": [],
      "name": "resetInstrumentDistributionInSIGHTreasury",
      "outputs": [],
      "payable": false,
      "stateMutability": "nonpayable",
      "type": "function"
    },
    {
      "constant": false,
      "inputs": [
        {
          "internalType": "address",
          "name": "target",
          "type": "address"
        },
        {
          "internalType": "uint256",
          "name": "amount",
          "type": "uint256"
        }
      ],
      "name": "transferSighFromSIGHTreasury",
      "outputs": [
        {
          "internalType": "uint256",
          "name": "",
          "type": "uint256"
        }
      ],
      "payable": false,
      "stateMutability": "nonpayable",
      "type": "function"
    },
    {
      "constant": false,
      "inputs": [
        {
          "internalType": "address",
          "name": "instrument",
          "type": "address"
        },
        {
          "internalType": "uint256",
          "name": "speed",
          "type": "uint256"
        }
      ],
      "name": "supportNewInstrumentForDistributionInSIGH_Staking",
      "outputs": [],
      "payable": false,
      "stateMutability": "nonpayable",
      "type": "function"
    },
    {
      "constant": false,
      "inputs": [
        {
          "internalType": "address",
          "name": "instrument",
          "type": "address"
        }
      ],
      "name": "removeInstrumentFromDistributionInSIGH_Staking",
      "outputs": [],
      "payable": false,
      "stateMutability": "nonpayable",
      "type": "function"
    },
    {
      "constant": false,
      "inputs": [
        {
          "internalType": "address",
          "name": "instrument",
          "type": "address"
        },
        {
          "internalType": "uint256",
          "name": "speed",
          "type": "uint256"
        }
      ],
      "name": "setDistributionSpeedForStakingRewardInSIGH_Staking",
      "outputs": [],
      "payable": false,
      "stateMutability": "nonpayable",
      "type": "function"
    },
    {
      "constant": false,
      "inputs": [
        {
          "internalType": "uint256",
          "name": "amount",
          "type": "uint256"
        }
      ],
      "name": "updateMaxSighThatCanBeStakedInSIGH_Staking",
      "outputs": [],
      "payable": false,
      "stateMutability": "nonpayable",
      "type": "function"
    }
  ],
  "bytecode": "0x60806040526000805534801561001457600080fd5b50613884806100246000396000f3fe608060405234801561001057600080fd5b50600436106101a95760003560e01c8063636b048a116100f95780639d11bdc711610097578063bb89996c11610071578063bb89996c14610488578063c4d66de8146104ae578063d506f8c7146104d4578063fae109451461050e576101a9565b80639d11bdc7146104195780639f7ee98f14610436578063a3c4a4a61461045c576101a9565b806383284f4a116100d357806383284f4a146103a25780638b7f04a5146103aa57806399571113146103d65780639b7a87d6146103f3576101a9565b8063636b048a1461037557806372fc8e9d1461037d5780637af635a61461039a576101a9565b80633a138d54116101665780634f4b7542116101405780634f4b7542146102e457806355c6e14f1461032457806358418e3314610350578063636569451461036d576101a9565b80633a138d54146102635780633d2fda06146102a15780634b90f3ef146102c7576101a9565b80630219b9c5146101ae57806309d61964146101d257806323391694146101dc578063249acfd9146101e45780632a73597d146102015780632d4239471461022d575b600080fd5b6101b661052b565b604080516001600160a01b039092168252519081900360200190f35b6101da61053a565b005b6101da610710565b6101da600480360360208110156101fa57600080fd5b50356108e3565b6101da6004803603604081101561021757600080fd5b506001600160a01b038135169060200135610ac1565b6101da6004803603606081101561024357600080fd5b506001600160a01b03813581169160208101359091169060400135610ca9565b61028f6004803603604081101561027957600080fd5b506001600160a01b038135169060200135610e99565b60408051918252519081900360200190f35b6101da600480360360208110156102b757600080fd5b50356001600160a01b0316611062565b6101da600480360360208110156102dd57600080fd5b503561123e565b610310600480360360408110156102fa57600080fd5b506001600160a01b038135169060200135611418565b604080519115158252519081900360200190f35b6103106004803603604081101561033a57600080fd5b506001600160a01b03813516906020013561161b565b6103106004803603602081101561036657600080fd5b5035611814565b6101da611a0d565b6101da611bea565b6103106004803603602081101561039357600080fd5b5035611d70565b61028f611f60565b610310611f65565b610310600480360360408110156103c057600080fd5b506001600160a01b0381351690602001356121d4565b6101da600480360360208110156103ec57600080fd5b50356123cd565b6101da6004803603602081101561040957600080fd5b50356001600160a01b03166125bd565b6103106004803603602081101561042f57600080fd5b50356127af565b6103106004803603602081101561044c57600080fd5b50356001600160a01b031661299f565b6101da6004803603604081101561047257600080fd5b506001600160a01b038135169060200135612b91565b6101da6004803603602081101561049e57600080fd5b50356001600160a01b0316612d74565b6101da600480360360208110156104c457600080fd5b50356001600160a01b0316612f50565b610310600480360360808110156104ea57600080fd5b506001600160a01b0381351690602081013590604081013590606001351515613007565b6103106004803603602081101561052457600080fd5b503561321b565b6034546001600160a01b031681565b603454604080516321e150d560e21b8152905133926001600160a01b0316916387854354916004808301926020929190829003018186803b15801561057e57600080fd5b505afa158015610592573d6000803e3d6000fd5b505050506040513d60208110156105a857600080fd5b50516001600160a01b0316146105ef5760405162461bcd60e51b815260040180806020018281038252602d815260200180613823602d913960400191505060405180910390fd5b6034546040805163167984c360e21b815290516000926001600160a01b0316916359e6130c916004808301926020929190829003018186803b15801561063457600080fd5b505afa158015610648573d6000803e3d6000fd5b505050506040513d602081101561065e57600080fd5b50516040805163e0ae645f60e01b815290519192506001600160a01b0383169163e0ae645f916004808201926020929091908290030181600087803b1580156106a657600080fd5b505af11580156106ba573d6000803e3d6000fd5b505050506040513d60208110156106d057600080fd5b505161070d5760405162461bcd60e51b815260040180806020018281038252602d8152602001806134f7602d913960400191505060405180910390fd5b50565b603454604080516321e150d560e21b8152905133926001600160a01b0316916387854354916004808301926020929190829003018186803b15801561075457600080fd5b505afa158015610768573d6000803e3d6000fd5b505050506040513d602081101561077e57600080fd5b50516001600160a01b0316146107c55760405162461bcd60e51b815260040180806020018281038252602d815260200180613823602d913960400191505060405180910390fd5b6034546040805163167984c360e21b815290516000926001600160a01b0316916359e6130c916004808301926020929190829003018186803b15801561080a57600080fd5b505afa15801561081e573d6000803e3d6000fd5b505050506040513d602081101561083457600080fd5b50516040805163eb2661f960e01b815290519192506001600160a01b0383169163eb2661f9916004808201926020929091908290030181600087803b15801561087c57600080fd5b505af1158015610890573d6000803e3d6000fd5b505050506040513d60208110156108a657600080fd5b505161070d5760405162461bcd60e51b81526004018080602001828103825260268152602001806134d16026913960400191505060405180910390fd5b603454604080516321e150d560e21b8152905133926001600160a01b0316916387854354916004808301926020929190829003018186803b15801561092757600080fd5b505afa15801561093b573d6000803e3d6000fd5b505050506040513d602081101561095157600080fd5b50516001600160a01b0316146109985760405162461bcd60e51b815260040180806020018281038252602d815260200180613823602d913960400191505060405180910390fd5b60345460408051631db4f56960e01b815290516000926001600160a01b031691631db4f569916004808301926020929190829003018186803b1580156109dd57600080fd5b505afa1580156109f1573d6000803e3d6000fd5b505050506040513d6020811015610a0757600080fd5b505160408051630b351e0360e31b81526004810185905290519192506001600160a01b038316916359a8f018916024808201926020929091908290030181600087803b158015610a5657600080fd5b505af1158015610a6a573d6000803e3d6000fd5b505050506040513d6020811015610a8057600080fd5b5051610abd5760405162461bcd60e51b815260040180806020018281038252602a81526020018061344f602a913960400191505060405180910390fd5b5050565b603454604080516321e150d560e21b8152905133926001600160a01b0316916387854354916004808301926020929190829003018186803b158015610b0557600080fd5b505afa158015610b19573d6000803e3d6000fd5b505050506040513d6020811015610b2f57600080fd5b50516001600160a01b031614610b765760405162461bcd60e51b815260040180806020018281038252602d815260200180613823602d913960400191505060405180910390fd5b60345460408051631db4f56960e01b815290516000926001600160a01b031691631db4f569916004808301926020929190829003018186803b158015610bbb57600080fd5b505afa158015610bcf573d6000803e3d6000fd5b505050506040513d6020811015610be557600080fd5b50516040805163352eb5f760e11b81526001600160a01b03868116600483015260248201869052915192935090831691636a5d6bee916044808201926020929091908290030181600087803b158015610c3d57600080fd5b505af1158015610c51573d6000803e3d6000fd5b505050506040513d6020811015610c6757600080fd5b5051610ca45760405162461bcd60e51b815260040180806020018281038252603a815260200180613786603a913960400191505060405180910390fd5b505050565b603454604080516321e150d560e21b8152905133926001600160a01b0316916387854354916004808301926020929190829003018186803b158015610ced57600080fd5b505afa158015610d01573d6000803e3d6000fd5b505050506040513d6020811015610d1757600080fd5b50516001600160a01b031614610d5e5760405162461bcd60e51b815260040180806020018281038252602d815260200180613823602d913960400191505060405180910390fd5b6034546040805163167984c360e21b815290516000926001600160a01b0316916359e6130c916004808301926020929190829003018186803b158015610da357600080fd5b505afa158015610db7573d6000803e3d6000fd5b505050506040513d6020811015610dcd57600080fd5b5051604080516260c65960e81b81526001600160a01b0387811660048301528681166024830152604482018690529151929350908316916360c65900916064808201926020929091908290030181600087803b158015610e2c57600080fd5b505af1158015610e40573d6000803e3d6000fd5b505050506040513d6020811015610e5657600080fd5b5051610e935760405162461bcd60e51b81526004018080602001828103825260278152602001806135d16027913960400191505060405180910390fd5b50505050565b6000336001600160a01b0316603460009054906101000a90046001600160a01b03166001600160a01b031663878543546040518163ffffffff1660e01b815260040160206040518083038186803b158015610ef357600080fd5b505afa158015610f07573d6000803e3d6000fd5b505050506040513d6020811015610f1d57600080fd5b50516001600160a01b031614610f645760405162461bcd60e51b815260040180806020018281038252602d815260200180613823602d913960400191505060405180910390fd5b6034546040805163167984c360e21b815290516000926001600160a01b0316916359e6130c916004808301926020929190829003018186803b158015610fa957600080fd5b505afa158015610fbd573d6000803e3d6000fd5b505050506040513d6020811015610fd357600080fd5b50516040805163d3ec44a360e01b81526001600160a01b0387811660048301526024820187905291519293506000929184169163d3ec44a39160448082019260209290919082900301818787803b15801561102d57600080fd5b505af1158015611041573d6000803e3d6000fd5b505050506040513d602081101561105757600080fd5b505195945050505050565b603454604080516321e150d560e21b8152905133926001600160a01b0316916387854354916004808301926020929190829003018186803b1580156110a657600080fd5b505afa1580156110ba573d6000803e3d6000fd5b505050506040513d60208110156110d057600080fd5b50516001600160a01b0316146111175760405162461bcd60e51b815260040180806020018281038252602d815260200180613823602d913960400191505060405180910390fd5b60345460408051631db4f56960e01b815290516000926001600160a01b031691631db4f569916004808301926020929190829003018186803b15801561115c57600080fd5b505afa158015611170573d6000803e3d6000fd5b505050506040513d602081101561118657600080fd5b50516040805163f1c6e55560e01b81526001600160a01b03858116600483015291519293509083169163f1c6e555916024808201926020929091908290030181600087803b1580156111d757600080fd5b505af11580156111eb573d6000803e3d6000fd5b505050506040513d602081101561120157600080fd5b5051610abd5760405162461bcd60e51b81526004018080602001828103825260378152602001806136286037913960400191505060405180910390fd5b603454604080516321e150d560e21b8152905133926001600160a01b0316916387854354916004808301926020929190829003018186803b15801561128257600080fd5b505afa158015611296573d6000803e3d6000fd5b505050506040513d60208110156112ac57600080fd5b50516001600160a01b0316146112f35760405162461bcd60e51b815260040180806020018281038252602d815260200180613823602d913960400191505060405180910390fd5b6034546040805163167984c360e21b815290516000926001600160a01b0316916359e6130c916004808301926020929190829003018186803b15801561133857600080fd5b505afa15801561134c573d6000803e3d6000fd5b505050506040513d602081101561136257600080fd5b505160408051631c252db160e01b81526004810185905290519192506001600160a01b03831691631c252db1916024808201926020929091908290030181600087803b1580156113b157600080fd5b505af11580156113c5573d6000803e3d6000fd5b505050506040513d60208110156113db57600080fd5b5051610abd5760405162461bcd60e51b81526004018080602001828103825260308152602001806136d46030913960400191505060405180910390fd5b6000336001600160a01b0316603460009054906101000a90046001600160a01b03166001600160a01b031663878543546040518163ffffffff1660e01b815260040160206040518083038186803b15801561147257600080fd5b505afa158015611486573d6000803e3d6000fd5b505050506040513d602081101561149c57600080fd5b50516001600160a01b0316146114e35760405162461bcd60e51b815260040180806020018281038252602d815260200180613823602d913960400191505060405180910390fd5b6034546040805163ab3802cb60e01b815290516000926001600160a01b03169163ab3802cb916004808301926020929190829003018186803b15801561152857600080fd5b505afa15801561153c573d6000803e3d6000fd5b505050506040513d602081101561155257600080fd5b5051604080516318cfbb1160e21b81526001600160a01b0387811660048301526024820187905291519293509083169163633eec44916044808201926020929091908290030181600087803b1580156115aa57600080fd5b505af11580156115be573d6000803e3d6000fd5b505050506040513d60208110156115d457600080fd5b50516116115760405162461bcd60e51b815260040180806020018281038252603681526020018061369e6036913960400191505060405180910390fd5b5060019392505050565b6000336001600160a01b0316603460009054906101000a90046001600160a01b03166001600160a01b031663878543546040518163ffffffff1660e01b815260040160206040518083038186803b15801561167557600080fd5b505afa158015611689573d6000803e3d6000fd5b505050506040513d602081101561169f57600080fd5b50516001600160a01b0316146116e65760405162461bcd60e51b815260040180806020018281038252602d815260200180613823602d913960400191505060405180910390fd5b6034546040805163ab3802cb60e01b815290516000926001600160a01b03169163ab3802cb916004808301926020929190829003018186803b15801561172b57600080fd5b505afa15801561173f573d6000803e3d6000fd5b505050506040513d602081101561175557600080fd5b505160408051632efa6e5360e01b81526001600160a01b03878116600483015260248201879052915192935090831691632efa6e53916044808201926020929091908290030181600087803b1580156117ad57600080fd5b505af11580156117c1573d6000803e3d6000fd5b505050506040513d60208110156117d757600080fd5b50516116115760405162461bcd60e51b815260040180806020018281038252604f815260200180613737604f913960600191505060405180910390fd5b6000336001600160a01b0316603460009054906101000a90046001600160a01b03166001600160a01b031663878543546040518163ffffffff1660e01b815260040160206040518083038186803b15801561186e57600080fd5b505afa158015611882573d6000803e3d6000fd5b505050506040513d602081101561189857600080fd5b50516001600160a01b0316146118df5760405162461bcd60e51b815260040180806020018281038252602d815260200180613823602d913960400191505060405180910390fd5b60345460408051636b97140160e11b815290516000926001600160a01b03169163d72e2802916004808301926020929190829003018186803b15801561192457600080fd5b505afa158015611938573d6000803e3d6000fd5b505050506040513d602081101561194e57600080fd5b5051604080516366648fb960e11b81526004810186905290519192506001600160a01b0383169163ccc91f72916024808201926020929091908290030181600087803b15801561199d57600080fd5b505af11580156119b1573d6000803e3d6000fd5b505050506040513d60208110156119c757600080fd5b5051611a045760405162461bcd60e51b815260040180806020018281038252602f8152602001806137c0602f913960400191505060405180910390fd5b50600192915050565b603454604080516321e150d560e21b8152905133926001600160a01b0316916387854354916004808301926020929190829003018186803b158015611a5157600080fd5b505afa158015611a65573d6000803e3d6000fd5b505050506040513d6020811015611a7b57600080fd5b50516001600160a01b031614611ac25760405162461bcd60e51b815260040180806020018281038252602d815260200180613823602d913960400191505060405180910390fd5b6034546040805163167984c360e21b815290516000926001600160a01b0316916359e6130c916004808301926020929190829003018186803b158015611b0757600080fd5b505afa158015611b1b573d6000803e3d6000fd5b505050506040513d6020811015611b3157600080fd5b505160408051637c55ccb360e01b815290519192506001600160a01b03831691637c55ccb3916004808201926020929091908290030181600087803b158015611b7957600080fd5b505af1158015611b8d573d6000803e3d6000fd5b505050506040513d6020811015611ba357600080fd5b505161070d576040805162461bcd60e51b815260206004820152601160248201527008cc2d2d8cac840e8de40e4cacce4cae6d607b1b604482015290519081900360640190fd5b603454604080516321e150d560e21b8152905133926001600160a01b0316916387854354916004808301926020929190829003018186803b158015611c2e57600080fd5b505afa158015611c42573d6000803e3d6000fd5b505050506040513d6020811015611c5857600080fd5b50516001600160a01b031614611c9f5760405162461bcd60e51b815260040180806020018281038252602d815260200180613823602d913960400191505060405180910390fd5b60345460408051636b97140160e11b815290516000926001600160a01b03169163d72e2802916004808301926020929190829003018186803b158015611ce457600080fd5b505afa158015611cf8573d6000803e3d6000fd5b505050506040513d6020811015611d0e57600080fd5b505160408051637c55ccb360e01b815290519192506001600160a01b03831691637c55ccb39160048082019260009290919082900301818387803b158015611d5557600080fd5b505af1158015611d69573d6000803e3d6000fd5b5050505050565b6000336001600160a01b0316603460009054906101000a90046001600160a01b03166001600160a01b031663878543546040518163ffffffff1660e01b815260040160206040518083038186803b158015611dca57600080fd5b505afa158015611dde573d6000803e3d6000fd5b505050506040513d6020811015611df457600080fd5b50516001600160a01b031614611e3b5760405162461bcd60e51b815260040180806020018281038252602d815260200180613823602d913960400191505060405180910390fd5b6034546040805163ab3802cb60e01b815290516000926001600160a01b03169163ab3802cb916004808301926020929190829003018186803b158015611e8057600080fd5b505afa158015611e94573d6000803e3d6000fd5b505050506040513d6020811015611eaa57600080fd5b505160408051639cfea98560e01b81526004810186905290519192506001600160a01b03831691639cfea985916024808201926020929091908290030181600087803b158015611ef957600080fd5b505af1158015611f0d573d6000803e3d6000fd5b505050506040513d6020811015611f2357600080fd5b5051611a045760405162461bcd60e51b815260040180806020018281038252604b815260200180613586604b913960600191505060405180910390fd5b600181565b6000336001600160a01b0316603460009054906101000a90046001600160a01b03166001600160a01b031663878543546040518163ffffffff1660e01b815260040160206040518083038186803b158015611fbf57600080fd5b505afa158015611fd3573d6000803e3d6000fd5b505050506040513d6020811015611fe957600080fd5b50516001600160a01b0316146120305760405162461bcd60e51b815260040180806020018281038252602d815260200180613823602d913960400191505060405180910390fd5b6034546040805163ab3802cb60e01b815290516000926001600160a01b03169163ab3802cb916004808301926020929190829003018186803b15801561207557600080fd5b505afa158015612089573d6000803e3d6000fd5b505050506040513d602081101561209f57600080fd5b505160345460408051636b97140160e11b815290519293506001600160a01b0380851693634c2602eb939091169163d72e2802916004808301926020929190829003018186803b1580156120f257600080fd5b505afa158015612106573d6000803e3d6000fd5b505050506040513d602081101561211c57600080fd5b5051604080516001600160e01b031960e085901b1681526001600160a01b0390921660048301525160248083019260209291908290030181600087803b15801561216557600080fd5b505af1158015612179573d6000803e3d6000fd5b505050506040513d602081101561218f57600080fd5b50516121cc5760405162461bcd60e51b815260040180806020018281038252603f81526020018061365f603f913960400191505060405180910390fd5b600191505090565b6000336001600160a01b0316603460009054906101000a90046001600160a01b03166001600160a01b031663878543546040518163ffffffff1660e01b815260040160206040518083038186803b15801561222e57600080fd5b505afa158015612242573d6000803e3d6000fd5b505050506040513d602081101561225857600080fd5b50516001600160a01b03161461229f5760405162461bcd60e51b815260040180806020018281038252602d815260200180613823602d913960400191505060405180910390fd5b60345460408051636b97140160e11b815290516000926001600160a01b03169163d72e2802916004808301926020929190829003018186803b1580156122e457600080fd5b505afa1580156122f8573d6000803e3d6000fd5b505050506040513d602081101561230e57600080fd5b5051604080516304c6632160e01b81526001600160a01b038781166004830152602482018790529151929350908316916304c66321916044808201926020929091908290030181600087803b15801561236657600080fd5b505af115801561237a573d6000803e3d6000fd5b505050506040513d602081101561239057600080fd5b50516116115760405162461bcd60e51b815260040180806020018281038252603581526020018061349c6035913960400191505060405180910390fd5b603454604080516321e150d560e21b8152905133926001600160a01b0316916387854354916004808301926020929190829003018186803b15801561241157600080fd5b505afa158015612425573d6000803e3d6000fd5b505050506040513d602081101561243b57600080fd5b50516001600160a01b0316146124825760405162461bcd60e51b815260040180806020018281038252602d815260200180613823602d913960400191505060405180910390fd5b6034546040805163167984c360e21b815290516000926001600160a01b0316916359e6130c916004808301926020929190829003018186803b1580156124c757600080fd5b505afa1580156124db573d6000803e3d6000fd5b505050506040513d60208110156124f157600080fd5b505160408051634f71d5f560e11b81526004810185905290519192506001600160a01b03831691639ee3abea916024808201926020929091908290030181600087803b15801561254057600080fd5b505af1158015612554573d6000803e3d6000fd5b505050506040513d602081101561256a57600080fd5b5051610abd576040805162461bcd60e51b815260206004820181905260248201527f4661696c656420746f207570646174652053494748206275726e207370656564604482015290519081900360640190fd5b603454604080516321e150d560e21b8152905133926001600160a01b0316916387854354916004808301926020929190829003018186803b15801561260157600080fd5b505afa158015612615573d6000803e3d6000fd5b505050506040513d602081101561262b57600080fd5b50516001600160a01b0316146126725760405162461bcd60e51b815260040180806020018281038252602d815260200180613823602d913960400191505060405180910390fd5b6034546040805163167984c360e21b815290516000926001600160a01b0316916359e6130c916004808301926020929190829003018186803b1580156126b757600080fd5b505afa1580156126cb573d6000803e3d6000fd5b505050506040513d60208110156126e157600080fd5b50516040805163608d92bb60e11b81526001600160a01b03858116600483015291519293509083169163c11b2576916024808201926020929091908290030181600087803b15801561273257600080fd5b505af1158015612746573d6000803e3d6000fd5b505050506040513d602081101561275c57600080fd5b5051610abd576040805162461bcd60e51b815260206004820181905260248201527f496e737472756d656e7420696e697469616c697a6174696f6e206661696c6564604482015290519081900360640190fd5b6000336001600160a01b0316603460009054906101000a90046001600160a01b03166001600160a01b031663878543546040518163ffffffff1660e01b815260040160206040518083038186803b15801561280957600080fd5b505afa15801561281d573d6000803e3d6000fd5b505050506040513d602081101561283357600080fd5b50516001600160a01b03161461287a5760405162461bcd60e51b815260040180806020018281038252602d815260200180613823602d913960400191505060405180910390fd5b60345460408051636b97140160e11b815290516000926001600160a01b03169163d72e2802916004808301926020929190829003018186803b1580156128bf57600080fd5b505afa1580156128d3573d6000803e3d6000fd5b505050506040513d60208110156128e957600080fd5b505160408051631e7faed960e01b81526004810186905290519192506001600160a01b03831691631e7faed9916024808201926020929091908290030181600087803b15801561293857600080fd5b505af115801561294c573d6000803e3d6000fd5b505050506040513d602081101561296257600080fd5b5051611a045760405162461bcd60e51b81526004018080602001828103825260348152602001806137ef6034913960400191505060405180910390fd5b6000336001600160a01b0316603460009054906101000a90046001600160a01b03166001600160a01b031663878543546040518163ffffffff1660e01b815260040160206040518083038186803b1580156129f957600080fd5b505afa158015612a0d573d6000803e3d6000fd5b505050506040513d6020811015612a2357600080fd5b50516001600160a01b031614612a6a5760405162461bcd60e51b815260040180806020018281038252602d815260200180613823602d913960400191505060405180910390fd5b6034546040805163ab3802cb60e01b815290516000926001600160a01b03169163ab3802cb916004808301926020929190829003018186803b158015612aaf57600080fd5b505afa158015612ac3573d6000803e3d6000fd5b505050506040513d6020811015612ad957600080fd5b505160408051638438cc2360e01b81526001600160a01b038681166004830152915192935090831691638438cc23916024808201926020929091908290030181600087803b158015612b2a57600080fd5b505af1158015612b3e573d6000803e3d6000fd5b505050506040513d6020811015612b5457600080fd5b5051611a045760405162461bcd60e51b81526004018080602001828103825260348152602001806135246034913960400191505060405180910390fd5b603454604080516321e150d560e21b8152905133926001600160a01b0316916387854354916004808301926020929190829003018186803b158015612bd557600080fd5b505afa158015612be9573d6000803e3d6000fd5b505050506040513d6020811015612bff57600080fd5b50516001600160a01b031614612c465760405162461bcd60e51b815260040180806020018281038252602d815260200180613823602d913960400191505060405180910390fd5b60345460408051631db4f56960e01b815290516000926001600160a01b031691631db4f569916004808301926020929190829003018186803b158015612c8b57600080fd5b505afa158015612c9f573d6000803e3d6000fd5b505050506040513d6020811015612cb557600080fd5b505160408051631509af1360e31b81526001600160a01b0386811660048301526024820186905291519293509083169163a84d7898916044808201926020929091908290030181600087803b158015612d0d57600080fd5b505af1158015612d21573d6000803e3d6000fd5b505050506040513d6020811015612d3757600080fd5b5051610ca45760405162461bcd60e51b81526004018080602001828103825260388152602001806134176038913960400191505060405180910390fd5b603454604080516321e150d560e21b8152905133926001600160a01b0316916387854354916004808301926020929190829003018186803b158015612db857600080fd5b505afa158015612dcc573d6000803e3d6000fd5b505050506040513d6020811015612de257600080fd5b50516001600160a01b031614612e295760405162461bcd60e51b815260040180806020018281038252602d815260200180613823602d913960400191505060405180910390fd5b6034546040805163167984c360e21b815290516000926001600160a01b0316916359e6130c916004808301926020929190829003018186803b158015612e6e57600080fd5b505afa158015612e82573d6000803e3d6000fd5b505050506040513d6020811015612e9857600080fd5b50516040805163fc5e11c360e01b81526001600160a01b03858116600483015291519293509083169163fc5e11c3916024808201926020929091908290030181600087803b158015612ee957600080fd5b505af1158015612efd573d6000803e3d6000fd5b505050506040513d6020811015612f1357600080fd5b5051610abd5760405162461bcd60e51b81526004018080602001828103825260338152602001806137046033913960400191505060405180910390fd5b6000612f5a61340b565b60015490915060ff1680612f715750612f71613410565b80612f7d575060005481115b612fb85760405162461bcd60e51b815260040180806020018281038252602e815260200180613558602e913960400191505060405180910390fd5b60015460ff16158015612fd7576001805460ff19168117905560008290555b603480546001600160a01b0319166001600160a01b0385161790558015610ca4576001805460ff19169055505050565b6000336001600160a01b0316603460009054906101000a90046001600160a01b03166001600160a01b031663878543546040518163ffffffff1660e01b815260040160206040518083038186803b15801561306157600080fd5b505afa158015613075573d6000803e3d6000fd5b505050506040513d602081101561308b57600080fd5b50516001600160a01b0316146130d25760405162461bcd60e51b815260040180806020018281038252602d815260200180613823602d913960400191505060405180910390fd5b60345460408051636b97140160e11b815290516000926001600160a01b03169163d72e2802916004808301926020929190829003018186803b15801561311757600080fd5b505afa15801561312b573d6000803e3d6000fd5b505050506040513d602081101561314157600080fd5b505160408051639df816cf60e01b81526001600160a01b03898116600483015260248201899052604482018890528615156064830152915192935090831691639df816cf916084808201926020929091908290030181600087803b1580156131a857600080fd5b505af11580156131bc573d6000803e3d6000fd5b505050506040513d60208110156131d257600080fd5b505161320f5760405162461bcd60e51b81526004018080602001828103825260308152602001806135f86030913960400191505060405180910390fd5b50600195945050505050565b6000336001600160a01b0316603460009054906101000a90046001600160a01b03166001600160a01b031663878543546040518163ffffffff1660e01b815260040160206040518083038186803b15801561327557600080fd5b505afa158015613289573d6000803e3d6000fd5b505050506040513d602081101561329f57600080fd5b50516001600160a01b0316146132e65760405162461bcd60e51b815260040180806020018281038252602d815260200180613823602d913960400191505060405180910390fd5b60345460408051636b97140160e11b815290516000926001600160a01b03169163d72e2802916004808301926020929190829003018186803b15801561332b57600080fd5b505afa15801561333f573d6000803e3d6000fd5b505050506040513d602081101561335557600080fd5b505160408051632df0f9a960e01b81526004810186905290519192506001600160a01b03831691632df0f9a9916024808201926020929091908290030181600087803b1580156133a457600080fd5b505af11580156133b8573d6000803e3d6000fd5b505050506040513d60208110156133ce57600080fd5b5051611a045760405162461bcd60e51b81526004018080602001828103825260238152602001806134796023913960400191505060405180910390fd5b600190565b303b159056fe4164646974696f6e206f66206e657720696e737472756d656e742061732053494748205374616b696e6720726577617264206661696c65645570646174696e67204d6178696d756d2053494748205374616b696e67206c696d6974206661696c6564757064617465534947485370656564282920657865637574696f6e206661696c65642e7570646174655374616b696e675370656564466f72416e496e737472756d656e74282920657865637574696f6e206661696c65642e537769746368696e672053494748204275726e20696e205472656173757279204661696c6564526573657420496e737472756d656e7420646973747269627574696f6e2066756e6374696f6e206661696c65642050726f746f636f6c2072656d6f76616c2066726f6d205349474820537065656420436f6e74726f6c6c6572206661696c65642e436f6e747261637420696e7374616e63652068617320616c7265616479206265656e20696e697469616c697a6564205349474820566f6c6174696c69747920446973747269627574696f6e2053706565642075706461746520696e205349474820537065656420436f6e74726f6c6c6572206661696c65642e496e737472756d656e7420446973747269627574696f6e2066756e6374696f6e206661696c6564496e737472756d656e745f534947485f537461746555706461746564282920657865637574696f6e206661696c65642e52656d6f76696e672074686520696e737472756d656e7420617320612053494748205374616b696e6720726577617264206661696c656453494748204472697070696e6720696e697469616c697a6174696f6e2066726f6d205349474820537065656420436f6e74726f6c6c6572206661696c65642e4e65772050726f746f636f6c206164646974696f6e20746f205349474820537065656420436f6e74726f6c6c6572206661696c65642e4368616e676520496e737472756d656e74206472697070696e672073706565642066756e6374696f6e206661696c65644368616e676520496e737472756d656e74206265696e672044697374726962757465642066756e6374696f6e206661696c65642050726f746f636f6c205349474820446973747269627574696f6e20526174696f2073706565642075706461746520696e205349474820537065656420436f6e74726f6c6c6572206661696c65642e5570646174696e6720646973747269627574696f6e20737065656420666f722053494748205374616b696e6720726577617264206661696c656475706461746543727970746f4d61726b657453656e74696d656e74282920657865637574696f6e206661696c65642e75706461746544656c7461426c6f636b73466f72537065656452656672657368282920657865637574696f6e206661696c65642e5468652063616c6c6572206d757374206265207468652053494748204d656368616e69736d204d616e61676572a265627a7a723158206cf97f21961fb6a34d5542f3d26835c71935f9522c8f617cc282452ff12771e464736f6c63430005100032",
  "source": "pragma solidity ^0.5.0;\n\nimport \"openzeppelin-solidity/contracts/math/SafeMath.sol\";\nimport \"openzeppelin-solidity/contracts/token/ERC20/ERC20Detailed.sol\";\nimport \"../openzeppelin-upgradeability/VersionedInitializable.sol\";\n\nimport \"../configuration/GlobalAddressesProvider.sol\";\nimport \"./Interfaces/ISIGHVolatilityHarvester.sol\";\nimport \"./Interfaces/ISighTreasury.sol\";\nimport \"./Interfaces/ISighStaking.sol\";\nimport \"./Interfaces/ISighSpeedController.sol\";\n\n/**\n* @title SighFinanceConfigurator contract\n* @author SIGH Finance\n* @notice Executes configuration methods for SIGH FINANCE contract, SIGHVolatilityHarvester and the SighStaking Contract\n* to efficiently regulate the SIGH economics\n**/\n\ncontract SighFinanceConfigurator is VersionedInitializable {\n\n    using SafeMath for uint256;\n    GlobalAddressesProvider public globalAddressesProvider;\n\n// ######################\n// ####### EVENTS #######\n// ######################\n\n    /**\n    * @dev emitted when a instrument is initialized.\n    * @param _instrument the address of the instrument\n    * @param _iToken the address of the overlying iToken contract\n    * @param _interestRateStrategyAddress the address of the interest rate strategy for the instrument\n    **/\n    event InstrumentInitialized( address indexed _instrument, address indexed _iToken, address _interestRateStrategyAddress );\n    event InstrumentRemoved( address indexed _instrument);      // emitted when a instrument is removed.\n\n\n// #############################\n// ####### PROXY RELATED #######\n// #############################\n\n    uint256 public constant CONFIGURATOR_REVISION = 0x1;\n\n    function getRevision() internal pure returns (uint256) {\n        return CONFIGURATOR_REVISION;\n    }\n\n    function initialize(GlobalAddressesProvider _globalAddressesProvider) public initializer {\n        globalAddressesProvider = _globalAddressesProvider;\n    }\n\n// ########################\n// ####### MODIFIER #######\n// ########################\n    /**\n    * @dev only the lending pool manager can call functions affected by this modifier\n    **/\n    modifier onlySIGHFinanceManager {\n        require( globalAddressesProvider.getSIGHFinanceManager() == msg.sender, \"The caller must be the SIGH Mechanism Manager\" );\n        _;\n    }\n\n\n// #################################################\n// ####### SIGH SPEED CONTROLLER FUNCTIONS #########\n// #################################################\n\n    // CALLED ONLY ONCE\n    function beginDrippingFromSIGHSpeedController() external onlySIGHFinanceManager returns (bool) { \n        ISighSpeedController sigh_speed_Controller = ISighSpeedController( globalAddressesProvider.getSIGHSpeedController() );\n        require(sigh_speed_Controller.beginDripping(globalAddressesProvider.getSIGHVolatilityHarvester() ), \"SIGH Dripping initialization from SIGH Speed Controller failed.\" );\n        return true;\n    }\n\n    function updateSighVolatilityDistributionSpeedInSIGHSpeedController(uint newSpeed_) external onlySIGHFinanceManager returns (bool) { \n        ISighSpeedController sigh_speed_Controller = ISighSpeedController( globalAddressesProvider.getSIGHSpeedController() );\n        require(sigh_speed_Controller.updateSighVolatilityDistributionSpeed(newSpeed_), \" SIGH Volatility Distribution Speed update in SIGH Speed Controller failed.\" );\n        return true;\n    }    \n\n    function supportNewProtocolInSIGHSpeedController( address newProtocolAddress, uint sighSpeedRatio ) external onlySIGHFinanceManager returns (bool) { \n        ISighSpeedController sigh_speed_Controller = ISighSpeedController( globalAddressesProvider.getSIGHSpeedController() );\n        require(sigh_speed_Controller.supportNewProtocol(newProtocolAddress, sighSpeedRatio), \"New Protocol addition to SIGH Speed Controller failed.\" );\n        return true;\n    }\n    \n    function removeSupportedProtocolFromSIGHSpeedController(address protocolAddress_) external onlySIGHFinanceManager returns (bool) { \n        ISighSpeedController sigh_speed_Controller = ISighSpeedController( globalAddressesProvider.getSIGHSpeedController() );\n        require(sigh_speed_Controller.removeSupportedProtocol(protocolAddress_), \" Protocol removal from SIGH Speed Controller failed.\" );\n        return true;\n    }    \n\n    function changeProtocolSIGHSpeedRatioInSIGHSpeedController(address targetAddress, uint newRatio_) external onlySIGHFinanceManager returns (bool) { \n        ISighSpeedController sigh_speed_Controller = ISighSpeedController( globalAddressesProvider.getSIGHSpeedController() );\n        require(sigh_speed_Controller.changeProtocolSIGHSpeedRatio(targetAddress, newRatio_), \" Protocol SIGH Distribution Ratio speed update in SIGH Speed Controller failed.\" );\n        return true;\n    }    \n\n\n// #####################################################_24HrVolatilityLimitAmount\n// ####### SIGH DISTRIBUTION HANDLER FUNCTIONS #########\n// #####################################################\n\n    function refreshSIGHVolatilityHarvesterConfig() external onlySIGHFinanceManager  { \n        ISIGHVolatilityHarvester sigh_volatilitiy_harvester = ISIGHVolatilityHarvester( globalAddressesProvider.getSIGHVolatilityHarvester() );\n        sigh_volatilitiy_harvester.refreshConfig() ;\n    }\n\n    function instrument__SIGH_StateUpdated_Distribution_Handler(address instrument_,  uint _bearSentiment,uint _bullSentiment, bool _isSIGHMechanismActivated ) external onlySIGHFinanceManager returns (bool) { \n        ISIGHVolatilityHarvester sigh_volatilitiy_harvester = ISIGHVolatilityHarvester( globalAddressesProvider.getSIGHVolatilityHarvester() );\n        require(sigh_volatilitiy_harvester.Instrument_SIGH_StateUpdated( instrument_, _bearSentiment, _bullSentiment, _isSIGHMechanismActivated ), \"Instrument_SIGH_StateUpdated() execution failed.\" );\n        return true;\n    }\n\n    function updateSIGHSpeed_In_SIGH_Distribution_Handler(uint newSighSpeed) external onlySIGHFinanceManager returns (bool) { \n        ISIGHVolatilityHarvester sigh_volatilitiy_harvester = ISIGHVolatilityHarvester( globalAddressesProvider.getSIGHVolatilityHarvester() );\n        require(sigh_volatilitiy_harvester.updateSIGHSpeed( newSighSpeed ), \"updateSIGHSpeed() execution failed.\" );\n        return true;\n    }\n\n\n    function updateStakingSpeedForAnInstrument_In_SIGH_Distribution_Handler(address instrument_, uint newStakingSpeed) external onlySIGHFinanceManager returns (bool) { \n        ISIGHVolatilityHarvester sigh_volatilitiy_harvester = ISIGHVolatilityHarvester( globalAddressesProvider.getSIGHVolatilityHarvester() );\n        require(sigh_volatilitiy_harvester.updateStakingSpeedForAnInstrument( instrument_, newStakingSpeed ), \"updateStakingSpeedForAnInstrument() execution failed.\" );\n        return true;\n    }        \n\n    function UpdateCryptoMarketSentiment_In_SIGH_Distribution_Handler( uint maxVolatilityProtocolLimit_) external onlySIGHFinanceManager returns (bool) { \n        ISIGHVolatilityHarvester sigh_volatilitiy_harvester = ISIGHVolatilityHarvester( globalAddressesProvider.getSIGHVolatilityHarvester() );\n        require(sigh_volatilitiy_harvester.updateCryptoMarketSentiment( maxVolatilityProtocolLimit_ ), \"updateCryptoMarketSentiment() execution failed.\" );\n        return true;\n    }        \n\n    function updateDeltaBlocksForSpeedRefresh_In_SIGH_Distribution_Handler(uint deltaBlocksLimit) external onlySIGHFinanceManager returns (bool) { \n        ISIGHVolatilityHarvester sigh_volatilitiy_harvester = ISIGHVolatilityHarvester( globalAddressesProvider.getSIGHVolatilityHarvester() );\n        require(sigh_volatilitiy_harvester.updateDeltaBlocksForSpeedRefresh( deltaBlocksLimit ), \"updateDeltaBlocksForSpeedRefresh() execution failed.\" );\n        return true;\n    } \n\n// #########################################\n// ####### SIGH TREASURY FUNCTIONS #########\n// #########################################\n\n    function initializeInstrumentStateInSIGHTreasury(address instrument) external onlySIGHFinanceManager {\n        ISighTreasury sigh_treasury = ISighTreasury( globalAddressesProvider.getSIGHTreasury() );\n        require(sigh_treasury.initializeInstrumentState(instrument),\"Instrument initialization failed\");\n        \n    }\n\n    function refreshConfigInSIGHTreasury() external onlySIGHFinanceManager { \n        ISighTreasury sigh_treasury = ISighTreasury( globalAddressesProvider.getSIGHTreasury() );\n        require(sigh_treasury.refreshConfig(),\"Failed to refresh\");\n    } \n    \n    function switchSIGHBurnAllowedInSIGHTreasury() external onlySIGHFinanceManager { \n        ISighTreasury sigh_treasury = ISighTreasury( globalAddressesProvider.getSIGHTreasury() );\n        require(sigh_treasury.switchSIGHBurnAllowed(),\"Switching SIGH Burn in Treasury Failed\");\n    } \n\n    function updateSIGHBurnSpeedInSIGHTreasury( uint newSpeed) external onlySIGHFinanceManager { \n        ISighTreasury sigh_treasury = ISighTreasury( globalAddressesProvider.getSIGHTreasury() );\n        require(sigh_treasury.updateSIGHBurnSpeed(newSpeed),\"Failed to update SIGH burn speed\");\n    } \n\n    function initializeInstrumentDistributionInSIGHTreasury(address targetAddress, address instrumnetToBeDistributed, uint distributionSpeed) external onlySIGHFinanceManager { \n        ISighTreasury sigh_treasury = ISighTreasury( globalAddressesProvider.getSIGHTreasury() );\n        require(sigh_treasury.initializeInstrumentDistribution(targetAddress, instrumnetToBeDistributed, distributionSpeed),\"Instrument Distribution function failed\");\n    } \n\n    function changeInstrumentBeingDrippedInSIGHTreasury(address instrumentToBeDistributed ) external onlySIGHFinanceManager { \n        ISighTreasury sigh_treasury = ISighTreasury( globalAddressesProvider.getSIGHTreasury() );\n        require(sigh_treasury.changeInstrumentBeingDripped(instrumentToBeDistributed),\"Change Instrument being Distributed function failed\");\n    } \n\n    function updateDripSpeedInSIGHTreasury( uint newdistributionSpeed ) external onlySIGHFinanceManager { \n        ISighTreasury sigh_treasury = ISighTreasury( globalAddressesProvider.getSIGHTreasury() );\n        require(sigh_treasury.updateDripSpeed(newdistributionSpeed),\"Change Instrument dripping speed function failed\");\n    } \n\n   function resetInstrumentDistributionInSIGHTreasury() external onlySIGHFinanceManager { \n        ISighTreasury sigh_treasury = ISighTreasury( globalAddressesProvider.getSIGHTreasury() );\n        require(sigh_treasury.resetInstrumentDistribution(),\"Reset Instrument distribution function failed\");\n    } \n\n   function transferSighFromSIGHTreasury(address target, uint amount) external onlySIGHFinanceManager returns (uint){ \n        ISighTreasury sigh_treasury = ISighTreasury( globalAddressesProvider.getSIGHTreasury() );\n        uint sighTransferred = sigh_treasury.transferSighTo(target, amount);\n        return sighTransferred;\n    } \n\n// #########################################\n// ####### SIGH STAKING FUNCTIONS ##########\n// #########################################\n\n   function supportNewInstrumentForDistributionInSIGH_Staking(address instrument, uint speed) external onlySIGHFinanceManager { \n        ISighStaking sigh_staking = ISighStaking( globalAddressesProvider.getSIGHStaking() );\n        require(sigh_staking.supportNewInstrumentForDistribution(instrument, speed),\"Addition of new instrument as SIGH Staking reward failed\");\n    } \n\n   function removeInstrumentFromDistributionInSIGH_Staking(address instrument ) external onlySIGHFinanceManager { \n        ISighStaking sigh_staking = ISighStaking( globalAddressesProvider.getSIGHStaking() );\n        require(sigh_staking.removeInstrumentFromDistribution(instrument ),\"Removing the instrument as a SIGH Staking reward failed\");\n    } \n\n   function setDistributionSpeedForStakingRewardInSIGH_Staking(address instrument, uint speed) external onlySIGHFinanceManager { \n        ISighStaking sigh_staking = ISighStaking( globalAddressesProvider.getSIGHStaking() );\n        require(sigh_staking.setDistributionSpeed(instrument, speed),\"Updating distribution speed for SIGH Staking reward failed\");\n    } \n\n   function updateMaxSighThatCanBeStakedInSIGH_Staking( uint amount) external onlySIGHFinanceManager { \n        ISighStaking sigh_staking = ISighStaking( globalAddressesProvider.getSIGHStaking() );\n        require(sigh_staking.updateMaxSighThatCanBeStaked(amount),\"Updating Maximum SIGH Staking limit failed\");\n    } \n\n}\n",
  "sourcePath": "/Users/apple/Desktop/GITCOIN/Sigh_Finance/SighFinanceContracts/contracts/SIGHFinanceContracts/SighFinanceConfigurator.sol",
  "compiler": {
    "name": "solc",
    "version": "0.5.16+commit.9c3226ce.Emscripten.clang"
  },
  "schemaVersion": "3.2.4",
  "updatedAt": "2021-01-05T05:29:52.678Z",
  "devdoc": {
    "author": "SIGH Finance",
    "methods": {},
    "title": "SighFinanceConfigurator contract"
  },
  "userdoc": {
    "methods": {},
    "notice": "Executes configuration methods for SIGH FINANCE contract, SIGHVolatilityHarvester and the SighStaking Contract to efficiently regulate the SIGH economics*"
  }
}