{
  "contractName": "SightrollerV1Storage",
  "abi": [
    {
      "constant": true,
      "inputs": [
        {
          "internalType": "address",
          "name": "",
          "type": "address"
        },
        {
          "internalType": "uint256",
          "name": "",
          "type": "uint256"
        }
      ],
      "name": "accountAssets",
      "outputs": [
        {
          "internalType": "contract CToken",
          "name": "",
          "type": "address"
        }
      ],
      "payable": false,
      "stateMutability": "view",
      "type": "function"
    },
    {
      "constant": true,
      "inputs": [],
      "name": "admin",
      "outputs": [
        {
          "internalType": "address",
          "name": "",
          "type": "address"
        }
      ],
      "payable": false,
      "stateMutability": "view",
      "type": "function"
    },
    {
      "constant": true,
      "inputs": [],
      "name": "closeFactorMantissa",
      "outputs": [
        {
          "internalType": "uint256",
          "name": "",
          "type": "uint256"
        }
      ],
      "payable": false,
      "stateMutability": "view",
      "type": "function"
    },
    {
      "constant": true,
      "inputs": [],
      "name": "liquidationIncentiveMantissa",
      "outputs": [
        {
          "internalType": "uint256",
          "name": "",
          "type": "uint256"
        }
      ],
      "payable": false,
      "stateMutability": "view",
      "type": "function"
    },
    {
      "constant": true,
      "inputs": [],
      "name": "maxAssets",
      "outputs": [
        {
          "internalType": "uint256",
          "name": "",
          "type": "uint256"
        }
      ],
      "payable": false,
      "stateMutability": "view",
      "type": "function"
    },
    {
      "constant": true,
      "inputs": [],
      "name": "oracle",
      "outputs": [
        {
          "internalType": "contract PriceOracle",
          "name": "",
          "type": "address"
        }
      ],
      "payable": false,
      "stateMutability": "view",
      "type": "function"
    },
    {
      "constant": true,
      "inputs": [],
      "name": "pendingAdmin",
      "outputs": [
        {
          "internalType": "address",
          "name": "",
          "type": "address"
        }
      ],
      "payable": false,
      "stateMutability": "view",
      "type": "function"
    },
    {
      "constant": true,
      "inputs": [],
      "name": "pendingSightrollerImplementation",
      "outputs": [
        {
          "internalType": "address",
          "name": "",
          "type": "address"
        }
      ],
      "payable": false,
      "stateMutability": "view",
      "type": "function"
    },
    {
      "constant": true,
      "inputs": [],
      "name": "sightrollerImplementation",
      "outputs": [
        {
          "internalType": "address",
          "name": "",
          "type": "address"
        }
      ],
      "payable": false,
      "stateMutability": "view",
      "type": "function"
    }
  ],
  "bytecode": "0x608060405234801561001057600080fd5b506101f9806100206000396000f3fe608060405234801561001057600080fd5b50600436106100935760003560e01c806394b2294b1161006657806394b2294b146100e6578063dce15449146100ee578063e76b97e11461011a578063e875544614610122578063f851a4401461012a57610093565b806326782247146100985780633e65a58d146100bc5780634ada90af146100c45780637dc0d1d0146100de575b600080fd5b6100a0610132565b604080516001600160a01b039092168252519081900360200190f35b6100a0610141565b6100cc610150565b60408051918252519081900360200190f35b6100a0610156565b6100cc610165565b6100a06004803603604081101561010457600080fd5b506001600160a01b03813516906020013561016b565b6100a06101a0565b6100cc6101af565b6100a06101b5565b6001546001600160a01b031681565b6002546001600160a01b031681565b60065481565b6004546001600160a01b031681565b60075481565b6008602052816000526040600020818154811061018457fe5b6000918252602090912001546001600160a01b03169150829050565b6003546001600160a01b031681565b60055481565b6000546001600160a01b03168156fea265627a7a72315820313c8d00968a771ceb3fa14a5b4c2276914c6becc7d3fdc00292cfba442e40d164736f6c63430005100032",
  "source": "pragma solidity ^0.5.16;\n\nimport \"../Tokens/CToken.sol\";\nimport \"../PriceOracle.sol\";\n\n\ncontract UnitrollerAdminStorage {\n    /**\n    * @notice Administrator for this contract\n    */\n    address public admin;\n\n    /**\n    * @notice Pending administrator for this contract\n    */\n    address public pendingAdmin;\n\n    /**\n    * @notice Active brains of Unitroller\n    */\n    address public sightrollerImplementation;\n\n    /**\n    * @notice Pending brains of Unitroller\n    */\n    address public pendingSightrollerImplementation;\n}\n\n\n\n\n\ncontract SightrollerV1Storage is UnitrollerAdminStorage {\n\n    /**\n     * @notice Oracle which gives the price of any given asset\n     */\n    PriceOracle public oracle;\n\n    /**\n     * @notice Multiplier used to calculate the maximum repayAmount when liquidating a borrow\n     */\n    uint public closeFactorMantissa;\n\n    /**\n     * @notice Multiplier representing the discount on collateral that a liquidator receives\n     */\n    uint public liquidationIncentiveMantissa;\n\n    /**\n     * @notice Max number of assets a single account can participate in (borrow or use as collateral)\n     */\n    uint public maxAssets;\n\n    /**\n     * @notice Per-account mapping of \"assets you are in\", capped by maxAssets\n     */\n    mapping(address => CToken[]) public accountAssets;\n\n}\n\n\n\n\n\ncontract SightrollerV2Storage is SightrollerV1Storage {\n\n    struct Market {\n        /// @notice Whether or not this market is listed\n        bool isListed;\n\n        /**\n         * @notice Multiplier representing the most one can borrow against their collateral in this market.\n         *  For instance, 0.9 to allow borrowing 90% of collateral value.\n         *  Must be between 0 and 1, and stored as a mantissa.\n         */\n        uint collateralFactorMantissa;\n\n        /// @notice Per-market mapping of \"accounts in this asset\"\n        mapping(address => bool) accountMembership;\n\n        /// @notice Whether or not this market receives Gsigh\n        bool isGsighed;\n    }\n\n    /**\n     * @notice Official mapping of cTokens -> Market metadata\n     * @dev Used e.g. to determine if a market is supported\n     */\n    mapping(address => Market) public markets;\n\n\n    /**\n     * @notice The Pause Guardian can pause certain actions as a safety mechanism.\n     *  Actions which allow users to remove their own assets cannot be paused.\n     *  Liquidation / seizing / transfer can only be paused globally, not by market.\n     */\n    address public pauseGuardian;\n    bool public _mintGuardianPaused;\n    bool public _borrowGuardianPaused;\n    bool public transferGuardianPaused;\n    bool public seizeGuardianPaused;\n    mapping(address => bool) public mintGuardianPaused;\n    mapping(address => bool) public borrowGuardianPaused;\n}\n\n\n\n\n\n\n\ncontract SightrollerV3Storage is SightrollerV2Storage {\n\n    struct GsighMarketState {\n        /// @notice The market's last updated GsighBorrowIndex or GsighSupplyIndex\n        uint224 index;\n\n        /// @notice The block number the index was last updated at\n        uint32 block;\n    }\n\n    /// @notice A list of all markets\n    CToken[] public allMarkets;\n\n    /// @notice The rate at which the flywheel distributes Gsigh, per block\n    uint public gsighRate;\n\n    /// @notice The portion of gsighRate that each market currently receives\n    mapping(address => uint) public gsighSpeeds;\n\n    /// @notice The Gsigh market supply state for each market\n    mapping(address => GsighMarketState) public gsighSupplyState;\n\n    /// @notice The Gsigh market borrow state for each market\n    mapping(address => GsighMarketState) public gsighBorrowState;\n\n    /// @notice The Gsigh borrow index for each market for each supplier as of the last time they accrued Gsigh\n    mapping(address => mapping(address => uint)) public gsighSupplierIndex;\n\n    /// @notice The Gsigh borrow index for each market for each borrower as of the last time they accrued Gsigh\n    mapping(address => mapping(address => uint)) public gsighBorrowerIndex;\n\n    /// @notice The Gsigh accrued but not yet transferred to each user\n    mapping(address => uint) public gsighAccrued;\n}\n",
  "sourcePath": "/Users/apple/Desktop/GITCOIN/Sigh_Finance/SighFinanceContracts/contracts/Sightroller/SightrollerStorage.sol",
  "compiler": {
    "name": "solc",
    "version": "0.5.16+commit.9c3226ce.Emscripten.clang"
  },
  "schemaVersion": "3.2.4",
  "updatedAt": "2020-09-13T11:29:51.615Z",
  "devdoc": {
    "methods": {}
  },
  "userdoc": {
    "methods": {}
  }
}