{
  "contractName": "SIGHDistributionHandler",
  "abi": [
    {
      "inputs": [
        {
          "internalType": "contract GlobalAddressesProvider",
          "name": "addressesProvider_",
          "type": "address"
        }
      ],
      "payable": false,
      "stateMutability": "nonpayable",
      "type": "constructor"
    },
    {
      "anonymous": false,
      "inputs": [
        {
          "indexed": false,
          "internalType": "contract IToken",
          "name": "iToken",
          "type": "address"
        },
        {
          "indexed": false,
          "internalType": "uint256",
          "name": "prevSpeed",
          "type": "uint256"
        },
        {
          "indexed": false,
          "internalType": "uint256",
          "name": "newSpeed",
          "type": "uint256"
        }
      ],
      "name": "BorrowersSIGHSpeedUpdated",
      "type": "event"
    },
    {
      "anonymous": false,
      "inputs": [
        {
          "indexed": false,
          "internalType": "uint224",
          "name": "prevClock",
          "type": "uint224"
        },
        {
          "indexed": false,
          "internalType": "uint224",
          "name": "curClock",
          "type": "uint224"
        },
        {
          "indexed": false,
          "internalType": "uint256",
          "name": "timestamp",
          "type": "uint256"
        }
      ],
      "name": "ClockUpdated",
      "type": "event"
    },
    {
      "anonymous": false,
      "inputs": [
        {
          "indexed": false,
          "internalType": "contract IToken",
          "name": "iToken",
          "type": "address"
        },
        {
          "indexed": false,
          "internalType": "address",
          "name": "borrower",
          "type": "address"
        },
        {
          "indexed": false,
          "internalType": "uint256",
          "name": "sighDelta",
          "type": "uint256"
        },
        {
          "indexed": false,
          "internalType": "uint256",
          "name": "sighBorrowIndex",
          "type": "uint256"
        }
      ],
      "name": "DistributedBorrower_SIGH",
      "type": "event"
    },
    {
      "anonymous": false,
      "inputs": [
        {
          "indexed": false,
          "internalType": "contract IToken",
          "name": "iToken",
          "type": "address"
        },
        {
          "indexed": false,
          "internalType": "address",
          "name": "supplier",
          "type": "address"
        },
        {
          "indexed": false,
          "internalType": "uint256",
          "name": "sighDelta",
          "type": "uint256"
        },
        {
          "indexed": false,
          "internalType": "uint256",
          "name": "sighSupplyIndex",
          "type": "uint256"
        }
      ],
      "name": "DistributedSupplier_SIGH",
      "type": "event"
    },
    {
      "anonymous": false,
      "inputs": [
        {
          "indexed": false,
          "internalType": "address",
          "name": "marketAddress_",
          "type": "address"
        },
        {
          "indexed": false,
          "internalType": "uint256",
          "name": "blockNumber",
          "type": "uint256"
        }
      ],
      "name": "MarketAdded",
      "type": "event"
    },
    {
      "anonymous": false,
      "inputs": [
        {
          "indexed": false,
          "internalType": "address",
          "name": "marketAddress",
          "type": "address"
        },
        {
          "indexed": false,
          "internalType": "bool",
          "name": "isSIGHed",
          "type": "bool"
        }
      ],
      "name": "MarketSIGHed",
      "type": "event"
    },
    {
      "anonymous": false,
      "inputs": [
        {
          "indexed": false,
          "internalType": "uint256",
          "name": "SIGHSpeed",
          "type": "uint256"
        },
        {
          "indexed": false,
          "internalType": "uint256",
          "name": "maxSpeed",
          "type": "uint256"
        },
        {
          "indexed": false,
          "internalType": "uint256",
          "name": "SIGH_Price",
          "type": "uint256"
        },
        {
          "indexed": false,
          "internalType": "uint256",
          "name": "totalLosses_",
          "type": "uint256"
        }
      ],
      "name": "MaxSpeedUsedWhenRefreshingPriceSnapshots",
      "type": "event"
    },
    {
      "anonymous": false,
      "inputs": [
        {
          "indexed": false,
          "internalType": "uint256",
          "name": "oldSIGHSpeed",
          "type": "uint256"
        },
        {
          "indexed": false,
          "internalType": "uint256",
          "name": "newSIGHSpeed",
          "type": "uint256"
        },
        {
          "indexed": false,
          "internalType": "uint256",
          "name": "blockNumber_",
          "type": "uint256"
        }
      ],
      "name": "NewSIGHSpeed",
      "type": "event"
    },
    {
      "anonymous": false,
      "inputs": [
        {
          "indexed": false,
          "internalType": "address",
          "name": "iToken",
          "type": "address"
        },
        {
          "indexed": false,
          "internalType": "uint256",
          "name": "prevPrice",
          "type": "uint256"
        },
        {
          "indexed": false,
          "internalType": "uint256",
          "name": "currentPrice",
          "type": "uint256"
        }
      ],
      "name": "PriceSnapped",
      "type": "event"
    },
    {
      "anonymous": false,
      "inputs": [
        {
          "indexed": false,
          "internalType": "address",
          "name": "iToken",
          "type": "address"
        },
        {
          "indexed": false,
          "internalType": "uint256",
          "name": "prevPrice",
          "type": "uint256"
        },
        {
          "indexed": false,
          "internalType": "uint256",
          "name": "currentPrice",
          "type": "uint256"
        },
        {
          "indexed": false,
          "internalType": "uint32",
          "name": "currentCounter",
          "type": "uint32"
        },
        {
          "indexed": false,
          "internalType": "uint256",
          "name": "blockNumber",
          "type": "uint256"
        }
      ],
      "name": "PriceSnappedCheck",
      "type": "event"
    },
    {
      "anonymous": false,
      "inputs": [
        {
          "indexed": false,
          "internalType": "address",
          "name": "iToken",
          "type": "address"
        },
        {
          "indexed": false,
          "internalType": "uint256",
          "name": "prevRatio",
          "type": "uint256"
        },
        {
          "indexed": false,
          "internalType": "uint256",
          "name": "newRatio",
          "type": "uint256"
        }
      ],
      "name": "SIGH_Speeds_Supplier_Ratio_Mantissa_Updated",
      "type": "event"
    },
    {
      "anonymous": false,
      "inputs": [
        {
          "indexed": false,
          "internalType": "address",
          "name": "userAddress",
          "type": "address"
        },
        {
          "indexed": false,
          "internalType": "uint256",
          "name": "amountTransferred",
          "type": "uint256"
        }
      ],
      "name": "SIGH_Transferred",
      "type": "event"
    },
    {
      "anonymous": false,
      "inputs": [
        {
          "indexed": false,
          "internalType": "bool",
          "name": "previsSpeedUpperCheckAllowed",
          "type": "bool"
        },
        {
          "indexed": false,
          "internalType": "bool",
          "name": "isSpeedUpperCheckAllowed",
          "type": "bool"
        }
      ],
      "name": "SpeedUpperCheckAllowedSwitched",
      "type": "event"
    },
    {
      "anonymous": false,
      "inputs": [
        {
          "indexed": false,
          "internalType": "address",
          "name": "marketAddress",
          "type": "address"
        },
        {
          "indexed": false,
          "internalType": "uint256",
          "name": "prevStakingSpeed",
          "type": "uint256"
        },
        {
          "indexed": false,
          "internalType": "uint256",
          "name": "new_staking_Speed",
          "type": "uint256"
        },
        {
          "indexed": false,
          "internalType": "uint256",
          "name": "blockNumber",
          "type": "uint256"
        }
      ],
      "name": "StakingSpeedUpdated",
      "type": "event"
    },
    {
      "anonymous": false,
      "inputs": [
        {
          "indexed": false,
          "internalType": "contract IToken",
          "name": "iToken",
          "type": "address"
        },
        {
          "indexed": false,
          "internalType": "uint256",
          "name": "prevSpeed",
          "type": "uint256"
        },
        {
          "indexed": false,
          "internalType": "uint256",
          "name": "newSpeed",
          "type": "uint256"
        }
      ],
      "name": "SuppliersSIGHSpeedUpdated",
      "type": "event"
    },
    {
      "anonymous": false,
      "inputs": [
        {
          "indexed": false,
          "internalType": "uint224",
          "name": "curClock",
          "type": "uint224"
        },
        {
          "indexed": false,
          "internalType": "uint256",
          "name": "prevBlockNumberForSnapshot",
          "type": "uint256"
        },
        {
          "indexed": false,
          "internalType": "uint256",
          "name": "blockNumbersForPriceSnapshots",
          "type": "uint256"
        },
        {
          "indexed": false,
          "internalType": "uint256",
          "name": "deltaBlocks_",
          "type": "uint256"
        },
        {
          "indexed": false,
          "internalType": "uint256",
          "name": "blocknumber",
          "type": "uint256"
        }
      ],
      "name": "blockNumberForSnapshotUpdated",
      "type": "event"
    },
    {
      "anonymous": false,
      "inputs": [
        {
          "indexed": false,
          "internalType": "address",
          "name": "market",
          "type": "address"
        },
        {
          "indexed": false,
          "internalType": "uint224",
          "name": "index",
          "type": "uint224"
        },
        {
          "indexed": false,
          "internalType": "uint32",
          "name": "blockNumber",
          "type": "uint32"
        }
      ],
      "name": "checkIndexes",
      "type": "event"
    },
    {
      "anonymous": false,
      "inputs": [
        {
          "indexed": false,
          "internalType": "address",
          "name": "market",
          "type": "address"
        },
        {
          "indexed": false,
          "internalType": "uint256",
          "name": "borrowIndex",
          "type": "uint256"
        },
        {
          "indexed": false,
          "internalType": "uint256",
          "name": "borrowerIndex",
          "type": "uint256"
        }
      ],
      "name": "distributeBorrower_SIGH_test3",
      "type": "event"
    },
    {
      "anonymous": false,
      "inputs": [
        {
          "indexed": false,
          "internalType": "address",
          "name": "market",
          "type": "address"
        },
        {
          "indexed": false,
          "internalType": "uint256",
          "name": "deltaIndex",
          "type": "uint256"
        },
        {
          "indexed": false,
          "internalType": "uint256",
          "name": "borrowBalance",
          "type": "uint256"
        },
        {
          "indexed": false,
          "internalType": "uint256",
          "name": "borrowerDelta",
          "type": "uint256"
        },
        {
          "indexed": false,
          "internalType": "uint256",
          "name": "borrowerAccrued",
          "type": "uint256"
        }
      ],
      "name": "distributeBorrower_SIGH_test4",
      "type": "event"
    },
    {
      "anonymous": false,
      "inputs": [
        {
          "indexed": false,
          "internalType": "address",
          "name": "market",
          "type": "address"
        },
        {
          "indexed": false,
          "internalType": "uint256",
          "name": "supplyIndex",
          "type": "uint256"
        },
        {
          "indexed": false,
          "internalType": "uint256",
          "name": "supplierIndex",
          "type": "uint256"
        }
      ],
      "name": "distributeSupplier_SIGH_test3",
      "type": "event"
    },
    {
      "anonymous": false,
      "inputs": [
        {
          "indexed": false,
          "internalType": "address",
          "name": "market",
          "type": "address"
        },
        {
          "indexed": false,
          "internalType": "uint256",
          "name": "deltaIndex",
          "type": "uint256"
        },
        {
          "indexed": false,
          "internalType": "uint256",
          "name": "supplierTokens",
          "type": "uint256"
        },
        {
          "indexed": false,
          "internalType": "uint256",
          "name": "supplierDelta",
          "type": "uint256"
        },
        {
          "indexed": false,
          "internalType": "uint256",
          "name": "supplierAccrued",
          "type": "uint256"
        }
      ],
      "name": "distributeSupplier_SIGH_test4",
      "type": "event"
    },
    {
      "anonymous": false,
      "inputs": [
        {
          "indexed": false,
          "internalType": "uint256",
          "name": "SIGH",
          "type": "uint256"
        }
      ],
      "name": "maxSpeedCheck",
      "type": "event"
    },
    {
      "anonymous": false,
      "inputs": [
        {
          "indexed": false,
          "internalType": "address",
          "name": "market",
          "type": "address"
        },
        {
          "indexed": false,
          "internalType": "uint256",
          "name": "marketLosses",
          "type": "uint256"
        },
        {
          "indexed": false,
          "internalType": "uint256",
          "name": "totalLosses",
          "type": "uint256"
        }
      ],
      "name": "refreshingSighSpeeds_1",
      "type": "event"
    },
    {
      "anonymous": false,
      "inputs": [
        {
          "indexed": false,
          "internalType": "address",
          "name": "market",
          "type": "address"
        },
        {
          "indexed": false,
          "internalType": "uint256",
          "name": "newSpeed",
          "type": "uint256"
        },
        {
          "indexed": false,
          "internalType": "uint256",
          "name": "stakingSpeed",
          "type": "uint256"
        },
        {
          "indexed": false,
          "internalType": "uint256",
          "name": "newSpeedFinal",
          "type": "uint256"
        }
      ],
      "name": "refreshingSighSpeeds_2",
      "type": "event"
    },
    {
      "anonymous": false,
      "inputs": [
        {
          "indexed": false,
          "internalType": "address",
          "name": "market",
          "type": "address"
        },
        {
          "indexed": false,
          "internalType": "uint256",
          "name": "speed",
          "type": "uint256"
        },
        {
          "indexed": false,
          "internalType": "uint256",
          "name": "currentIndex",
          "type": "uint256"
        },
        {
          "indexed": false,
          "internalType": "uint256",
          "name": "prevBlock",
          "type": "uint256"
        },
        {
          "indexed": false,
          "internalType": "uint256",
          "name": "curBlock",
          "type": "uint256"
        },
        {
          "indexed": false,
          "internalType": "uint256",
          "name": "deltaBlocks",
          "type": "uint256"
        }
      ],
      "name": "updateSIGHBorrowIndex_test1",
      "type": "event"
    },
    {
      "anonymous": false,
      "inputs": [
        {
          "indexed": false,
          "internalType": "address",
          "name": "market",
          "type": "address"
        },
        {
          "indexed": false,
          "internalType": "uint256",
          "name": "borrowAmount",
          "type": "uint256"
        },
        {
          "indexed": false,
          "internalType": "uint256",
          "name": "sigh_Accrued",
          "type": "uint256"
        },
        {
          "indexed": false,
          "internalType": "uint256",
          "name": "ratio",
          "type": "uint256"
        },
        {
          "indexed": false,
          "internalType": "uint256",
          "name": "index",
          "type": "uint256"
        }
      ],
      "name": "updateSIGHBorrowIndex_test2",
      "type": "event"
    },
    {
      "anonymous": false,
      "inputs": [
        {
          "indexed": false,
          "internalType": "address",
          "name": "market",
          "type": "address"
        },
        {
          "indexed": false,
          "internalType": "uint256",
          "name": "previndex",
          "type": "uint256"
        },
        {
          "indexed": false,
          "internalType": "uint256",
          "name": "newIndex",
          "type": "uint256"
        },
        {
          "indexed": false,
          "internalType": "uint256",
          "name": "blockNum",
          "type": "uint256"
        }
      ],
      "name": "updateSIGHBorrowIndex_test3",
      "type": "event"
    },
    {
      "anonymous": false,
      "inputs": [
        {
          "indexed": false,
          "internalType": "address",
          "name": "market",
          "type": "address"
        },
        {
          "indexed": false,
          "internalType": "uint256",
          "name": "speed",
          "type": "uint256"
        },
        {
          "indexed": false,
          "internalType": "uint256",
          "name": "currentIndex",
          "type": "uint256"
        },
        {
          "indexed": false,
          "internalType": "uint256",
          "name": "prevBlock",
          "type": "uint256"
        },
        {
          "indexed": false,
          "internalType": "uint256",
          "name": "curBlock",
          "type": "uint256"
        },
        {
          "indexed": false,
          "internalType": "uint256",
          "name": "deltaBlocks",
          "type": "uint256"
        }
      ],
      "name": "updateSIGHSupplyIndex_test1",
      "type": "event"
    },
    {
      "anonymous": false,
      "inputs": [
        {
          "indexed": false,
          "internalType": "address",
          "name": "market",
          "type": "address"
        },
        {
          "indexed": false,
          "internalType": "uint256",
          "name": "supplyTokens",
          "type": "uint256"
        },
        {
          "indexed": false,
          "internalType": "uint256",
          "name": "sigh_Accrued",
          "type": "uint256"
        },
        {
          "indexed": false,
          "internalType": "uint256",
          "name": "ratio",
          "type": "uint256"
        },
        {
          "indexed": false,
          "internalType": "uint256",
          "name": "index",
          "type": "uint256"
        }
      ],
      "name": "updateSIGHSupplyIndex_test2",
      "type": "event"
    },
    {
      "anonymous": false,
      "inputs": [
        {
          "indexed": false,
          "internalType": "address",
          "name": "market",
          "type": "address"
        },
        {
          "indexed": false,
          "internalType": "uint256",
          "name": "previndex",
          "type": "uint256"
        },
        {
          "indexed": false,
          "internalType": "uint256",
          "name": "newIndex",
          "type": "uint256"
        },
        {
          "indexed": false,
          "internalType": "uint256",
          "name": "blockNum",
          "type": "uint256"
        }
      ],
      "name": "updateSIGHSupplyIndex_test3",
      "type": "event"
    },
    {
      "constant": true,
      "inputs": [
        {
          "internalType": "address",
          "name": "",
          "type": "address"
        },
        {
          "internalType": "address",
          "name": "",
          "type": "address"
        }
      ],
      "name": "SIGHBorrowerIndex",
      "outputs": [
        {
          "internalType": "uint256",
          "name": "",
          "type": "uint256"
        }
      ],
      "payable": false,
      "stateMutability": "view",
      "type": "function"
    },
    {
      "constant": true,
      "inputs": [],
      "name": "SIGHSpeed",
      "outputs": [
        {
          "internalType": "uint256",
          "name": "",
          "type": "uint256"
        }
      ],
      "payable": false,
      "stateMutability": "view",
      "type": "function"
    },
    {
      "constant": true,
      "inputs": [
        {
          "internalType": "address",
          "name": "",
          "type": "address"
        },
        {
          "internalType": "address",
          "name": "",
          "type": "address"
        }
      ],
      "name": "SIGHSupplierIndex",
      "outputs": [
        {
          "internalType": "uint256",
          "name": "",
          "type": "uint256"
        }
      ],
      "payable": false,
      "stateMutability": "view",
      "type": "function"
    },
    {
      "constant": true,
      "inputs": [
        {
          "internalType": "address",
          "name": "",
          "type": "address"
        }
      ],
      "name": "SIGH_Accrued",
      "outputs": [
        {
          "internalType": "uint256",
          "name": "",
          "type": "uint256"
        }
      ],
      "payable": false,
      "stateMutability": "view",
      "type": "function"
    },
    {
      "constant": true,
      "inputs": [],
      "name": "SIGH_ClaimThreshold",
      "outputs": [
        {
          "internalType": "uint256",
          "name": "",
          "type": "uint256"
        }
      ],
      "payable": false,
      "stateMutability": "view",
      "type": "function"
    },
    {
      "constant": true,
      "inputs": [
        {
          "internalType": "address",
          "name": "",
          "type": "address"
        }
      ],
      "name": "SIGH_Speeds_for_Markets",
      "outputs": [
        {
          "internalType": "uint256",
          "name": "suppliers_Speed",
          "type": "uint256"
        },
        {
          "internalType": "uint256",
          "name": "borrowers_Speed",
          "type": "uint256"
        },
        {
          "internalType": "uint256",
          "name": "speeds_Ratio_Mantissa",
          "type": "uint256"
        },
        {
          "internalType": "uint256",
          "name": "staking_Speed",
          "type": "uint256"
        }
      ],
      "payable": false,
      "stateMutability": "view",
      "type": "function"
    },
    {
      "constant": true,
      "inputs": [],
      "name": "Sigh_Address",
      "outputs": [
        {
          "internalType": "address",
          "name": "",
          "type": "address"
        }
      ],
      "payable": false,
      "stateMutability": "view",
      "type": "function"
    },
    {
      "constant": true,
      "inputs": [],
      "name": "addressesProvider",
      "outputs": [
        {
          "internalType": "contract GlobalAddressesProvider",
          "name": "",
          "type": "address"
        }
      ],
      "payable": false,
      "stateMutability": "view",
      "type": "function"
    },
    {
      "constant": true,
      "inputs": [
        {
          "internalType": "uint256",
          "name": "",
          "type": "uint256"
        }
      ],
      "name": "allMarkets",
      "outputs": [
        {
          "internalType": "contract IToken",
          "name": "",
          "type": "address"
        }
      ],
      "payable": false,
      "stateMutability": "view",
      "type": "function"
    },
    {
      "constant": true,
      "inputs": [
        {
          "internalType": "uint256",
          "name": "",
          "type": "uint256"
        }
      ],
      "name": "blockNumbersForPriceSnapshots_",
      "outputs": [
        {
          "internalType": "uint256",
          "name": "",
          "type": "uint256"
        }
      ],
      "payable": false,
      "stateMutability": "view",
      "type": "function"
    },
    {
      "constant": true,
      "inputs": [],
      "name": "curClock",
      "outputs": [
        {
          "internalType": "uint224",
          "name": "",
          "type": "uint224"
        }
      ],
      "payable": false,
      "stateMutability": "view",
      "type": "function"
    },
    {
      "constant": true,
      "inputs": [],
      "name": "deltaBlocksForSpeed",
      "outputs": [
        {
          "internalType": "uint224",
          "name": "",
          "type": "uint224"
        }
      ],
      "payable": false,
      "stateMutability": "view",
      "type": "function"
    },
    {
      "constant": true,
      "inputs": [],
      "name": "isSpeedUpperCheckAllowed",
      "outputs": [
        {
          "internalType": "bool",
          "name": "",
          "type": "bool"
        }
      ],
      "payable": false,
      "stateMutability": "view",
      "type": "function"
    },
    {
      "constant": true,
      "inputs": [],
      "name": "oracle",
      "outputs": [
        {
          "internalType": "contract PriceOracle",
          "name": "",
          "type": "address"
        }
      ],
      "payable": false,
      "stateMutability": "view",
      "type": "function"
    },
    {
      "constant": true,
      "inputs": [],
      "name": "prevSpeedRefreshBlock",
      "outputs": [
        {
          "internalType": "uint256",
          "name": "",
          "type": "uint256"
        }
      ],
      "payable": false,
      "stateMutability": "view",
      "type": "function"
    },
    {
      "constant": true,
      "inputs": [],
      "name": "sighInitialIndex",
      "outputs": [
        {
          "internalType": "uint224",
          "name": "",
          "type": "uint224"
        }
      ],
      "payable": false,
      "stateMutability": "view",
      "type": "function"
    },
    {
      "constant": true,
      "inputs": [
        {
          "internalType": "address",
          "name": "",
          "type": "address"
        }
      ],
      "name": "sighMarketBorrowState",
      "outputs": [
        {
          "internalType": "uint224",
          "name": "index",
          "type": "uint224"
        },
        {
          "internalType": "uint32",
          "name": "block_",
          "type": "uint32"
        }
      ],
      "payable": false,
      "stateMutability": "view",
      "type": "function"
    },
    {
      "constant": true,
      "inputs": [
        {
          "internalType": "address",
          "name": "",
          "type": "address"
        }
      ],
      "name": "sighMarketSupplyState",
      "outputs": [
        {
          "internalType": "uint224",
          "name": "index",
          "type": "uint224"
        },
        {
          "internalType": "uint32",
          "name": "block_",
          "type": "uint32"
        }
      ],
      "payable": false,
      "stateMutability": "view",
      "type": "function"
    },
    {
      "constant": true,
      "inputs": [
        {
          "internalType": "address",
          "name": "",
          "type": "address"
        }
      ],
      "name": "sighPriceCycles",
      "outputs": [
        {
          "internalType": "bool",
          "name": "isListed",
          "type": "bool"
        },
        {
          "internalType": "uint32",
          "name": "initializationCounter",
          "type": "uint32"
        }
      ],
      "payable": false,
      "stateMutability": "view",
      "type": "function"
    },
    {
      "constant": true,
      "inputs": [],
      "name": "sightrollerAddress",
      "outputs": [
        {
          "internalType": "address",
          "name": "",
          "type": "address"
        }
      ],
      "payable": false,
      "stateMutability": "view",
      "type": "function"
    },
    {
      "constant": false,
      "inputs": [
        {
          "internalType": "address",
          "name": "marketAddress_",
          "type": "address"
        }
      ],
      "name": "addMarket",
      "outputs": [
        {
          "internalType": "bool",
          "name": "",
          "type": "bool"
        }
      ],
      "payable": false,
      "stateMutability": "nonpayable",
      "type": "function"
    },
    {
      "constant": false,
      "inputs": [
        {
          "internalType": "address",
          "name": "marketAddress_",
          "type": "address"
        }
      ],
      "name": "Market_SIGHed",
      "outputs": [
        {
          "internalType": "bool",
          "name": "",
          "type": "bool"
        }
      ],
      "payable": false,
      "stateMutability": "nonpayable",
      "type": "function"
    },
    {
      "constant": false,
      "inputs": [
        {
          "internalType": "address",
          "name": "marketAddress_",
          "type": "address"
        }
      ],
      "name": "Market_UNSIGHed",
      "outputs": [
        {
          "internalType": "bool",
          "name": "",
          "type": "bool"
        }
      ],
      "payable": false,
      "stateMutability": "nonpayable",
      "type": "function"
    },
    {
      "constant": false,
      "inputs": [
        {
          "internalType": "uint256",
          "name": "SIGHSpeed_",
          "type": "uint256"
        }
      ],
      "name": "updateSIGHSpeed",
      "outputs": [
        {
          "internalType": "bool",
          "name": "",
          "type": "bool"
        }
      ],
      "payable": false,
      "stateMutability": "nonpayable",
      "type": "function"
    },
    {
      "constant": false,
      "inputs": [
        {
          "internalType": "address",
          "name": "marketAddress",
          "type": "address"
        },
        {
          "internalType": "uint256",
          "name": "supplierRatio",
          "type": "uint256"
        }
      ],
      "name": "updateSIGHSpeedRatioForAMarket",
      "outputs": [
        {
          "internalType": "bool",
          "name": "",
          "type": "bool"
        }
      ],
      "payable": false,
      "stateMutability": "nonpayable",
      "type": "function"
    },
    {
      "constant": false,
      "inputs": [
        {
          "internalType": "address",
          "name": "marketAddress",
          "type": "address"
        },
        {
          "internalType": "uint256",
          "name": "newStakingSpeed",
          "type": "uint256"
        }
      ],
      "name": "updateStakingSpeedForAMarket",
      "outputs": [
        {
          "internalType": "bool",
          "name": "",
          "type": "bool"
        }
      ],
      "payable": false,
      "stateMutability": "nonpayable",
      "type": "function"
    },
    {
      "constant": false,
      "inputs": [],
      "name": "SpeedUpperCheckAllowedSwitch",
      "outputs": [
        {
          "internalType": "bool",
          "name": "",
          "type": "bool"
        }
      ],
      "payable": false,
      "stateMutability": "nonpayable",
      "type": "function"
    },
    {
      "constant": false,
      "inputs": [],
      "name": "refreshSIGHSpeeds",
      "outputs": [
        {
          "internalType": "bool",
          "name": "",
          "type": "bool"
        }
      ],
      "payable": false,
      "stateMutability": "nonpayable",
      "type": "function"
    },
    {
      "constant": false,
      "inputs": [
        {
          "internalType": "address",
          "name": "currentMarket",
          "type": "address"
        }
      ],
      "name": "updateSIGHSupplyIndex",
      "outputs": [],
      "payable": false,
      "stateMutability": "nonpayable",
      "type": "function"
    },
    {
      "constant": false,
      "inputs": [
        {
          "internalType": "address",
          "name": "currentMarket",
          "type": "address"
        }
      ],
      "name": "updateSIGHBorrowIndex",
      "outputs": [],
      "payable": false,
      "stateMutability": "nonpayable",
      "type": "function"
    },
    {
      "constant": false,
      "inputs": [
        {
          "internalType": "address",
          "name": "currentMarket",
          "type": "address"
        },
        {
          "internalType": "address",
          "name": "supplier",
          "type": "address"
        }
      ],
      "name": "distributeSupplier_SIGH",
      "outputs": [],
      "payable": false,
      "stateMutability": "nonpayable",
      "type": "function"
    },
    {
      "constant": false,
      "inputs": [
        {
          "internalType": "address",
          "name": "currentMarket",
          "type": "address"
        },
        {
          "internalType": "address",
          "name": "borrower",
          "type": "address"
        }
      ],
      "name": "distributeBorrower_SIGH",
      "outputs": [],
      "payable": false,
      "stateMutability": "nonpayable",
      "type": "function"
    },
    {
      "constant": false,
      "inputs": [
        {
          "internalType": "address[]",
          "name": "holders",
          "type": "address[]"
        },
        {
          "internalType": "bool",
          "name": "borrowers",
          "type": "bool"
        },
        {
          "internalType": "bool",
          "name": "suppliers",
          "type": "bool"
        }
      ],
      "name": "claimSIGH",
      "outputs": [],
      "payable": false,
      "stateMutability": "nonpayable",
      "type": "function"
    },
    {
      "constant": false,
      "inputs": [
        {
          "internalType": "address",
          "name": "newSightroller",
          "type": "address"
        }
      ],
      "name": "setSightrollerAddress",
      "outputs": [
        {
          "internalType": "bool",
          "name": "",
          "type": "bool"
        }
      ],
      "payable": false,
      "stateMutability": "nonpayable",
      "type": "function"
    },
    {
      "constant": false,
      "inputs": [
        {
          "internalType": "address",
          "name": "Sigh_Address__",
          "type": "address"
        }
      ],
      "name": "setSighAddress",
      "outputs": [
        {
          "internalType": "address",
          "name": "",
          "type": "address"
        }
      ],
      "payable": false,
      "stateMutability": "nonpayable",
      "type": "function"
    },
    {
      "constant": false,
      "inputs": [
        {
          "internalType": "address",
          "name": "newOracle",
          "type": "address"
        }
      ],
      "name": "setOracle",
      "outputs": [
        {
          "internalType": "bool",
          "name": "",
          "type": "bool"
        }
      ],
      "payable": false,
      "stateMutability": "nonpayable",
      "type": "function"
    },
    {
      "constant": true,
      "inputs": [],
      "name": "getSIGHBalance",
      "outputs": [
        {
          "internalType": "uint256",
          "name": "",
          "type": "uint256"
        }
      ],
      "payable": false,
      "stateMutability": "view",
      "type": "function"
    },
    {
      "constant": false,
      "inputs": [
        {
          "internalType": "uint224",
          "name": "newMinimumDeltaBlocks",
          "type": "uint224"
        }
      ],
      "name": "setMinimumDeltaBlocksForSpeed",
      "outputs": [],
      "payable": false,
      "stateMutability": "nonpayable",
      "type": "function"
    },
    {
      "constant": true,
      "inputs": [],
      "name": "getBlockNumber",
      "outputs": [
        {
          "internalType": "uint32",
          "name": "",
          "type": "uint32"
        }
      ],
      "payable": false,
      "stateMutability": "view",
      "type": "function"
    },
    {
      "constant": true,
      "inputs": [
        {
          "internalType": "address",
          "name": "market_",
          "type": "address"
        },
        {
          "internalType": "uint256",
          "name": "clock",
          "type": "uint256"
        }
      ],
      "name": "checkPriceSnapshots",
      "outputs": [
        {
          "internalType": "uint224",
          "name": "",
          "type": "uint224"
        }
      ],
      "payable": false,
      "stateMutability": "view",
      "type": "function"
    },
    {
      "constant": true,
      "inputs": [
        {
          "internalType": "address",
          "name": "market_",
          "type": "address"
        }
      ],
      "name": "checkinitializationCounter",
      "outputs": [
        {
          "internalType": "uint224",
          "name": "",
          "type": "uint224"
        }
      ],
      "payable": false,
      "stateMutability": "view",
      "type": "function"
    }
  ],
  "bytecode": "0x60806040526004805460ff60a01b19169055602080546001600160e01b031916600117905534801561003057600080fd5b506040516200493a3803806200493a8339818101604052602081101561005557600080fd5b505060008054336001600160a01b0319918216178255600180546001600160a01b03811692169190911790556148a89081906200009290396000f3fe608060405234801561001057600080fd5b50600436106102525760003560e01c80637c52b66811610146578063b8de65d1116100c3578063c792e8e811610087578063c792e8e8146107c3578063caf73e0a146107cb578063d9f6513a146107d3578063dd9b5b21146107f9578063de82f77914610801578063f812d1b51461082757610252565b8063b8de65d114610757578063bf1678f614610785578063c457778a1461078d578063c6a6bfb1146107b3578063c72c4d10146107bb57610252565b806393e306331161010a57806393e30633146106035780639ad38f4c14610629578063a1d02a5514610657578063b114dae31461067d578063b12e660b1461072957610252565b80637c52b668146105815780637dc0d1d0146105a757806382d6c7a4146105af57806389fb59b4146105d55780638d9cf864146105dd57610252565b80634df6bd2b116101d4578063593d19b311610198578063593d19b3146104df5780635aee5b541461052557806375810e761461052d578063770d61d1146105355780637adbf9731461055b57610252565b80634df6bd2b1461041c5780634df859fd146104425780634f425fbb1461046e578063522b02021461049657806352d84d1e146104c257610252565b80632c8eb0bb1161021b5780632c8eb0bb1461034f5780632df0f9a91461037357806331e5a6581461039057806342cbb15c146103ad5780634cdfb79f146103ce57610252565b80624636721461025757806304f604d8146102975780631da04ecc146102bb5780631e1d2026146102fb57806321428a1214610347575b600080fd5b6102856004803603604081101561026d57600080fd5b506001600160a01b038135811691602001351661082f565b60408051918252519081900360200190f35b61029f61084c565b604080516001600160a01b039092168252519081900360200190f35b6102e7600480360360408110156102d157600080fd5b506001600160a01b03813516906020013561085b565b604080519115158252519081900360200190f35b6103216004803603602081101561031157600080fd5b50356001600160a01b0316610994565b604080519485526020850193909352838301919091526060830152519081900360800190f35b61029f6109bb565b6103576109ca565b604080516001600160e01b039092168252519081900360200190f35b6102e76004803603602081101561038957600080fd5b50356109d9565b610285600480360360208110156103a657600080fd5b5035610a8b565b6103b5610a9f565b6040805163ffffffff9092168252519081900360200190f35b6103f4600480360360208110156103e457600080fd5b50356001600160a01b0316610aa4565b604080516001600160e01b03909316835263ffffffff90911660208301528051918290030190f35b6102856004803603602081101561043257600080fd5b50356001600160a01b0316610ace565b6103576004803603604081101561045857600080fd5b506001600160a01b038135169060200135610ae0565b6104946004803603602081101561048457600080fd5b50356001600160a01b0316610b18565b005b6102e7600480360360408110156104ac57600080fd5b506001600160a01b038135169060200135610fea565b61029f600480360360208110156104d857600080fd5b5035611194565b610505600480360360208110156104f557600080fd5b50356001600160a01b03166111bb565b60408051921515835263ffffffff90911660208301528051918290030190f35b6102856111e0565b6102856111e6565b61029f6004803603602081101561054b57600080fd5b50356001600160a01b03166111f1565b6102e76004803603602081101561057157600080fd5b50356001600160a01b0316611274565b6104946004803603602081101561059757600080fd5b50356001600160a01b03166112f5565b61029f611972565b6102e7600480360360208110156105c557600080fd5b50356001600160a01b0316611981565b610285611b9d565b610357600480360360208110156105f357600080fd5b50356001600160a01b0316611ba3565b6102e76004803603602081101561061957600080fd5b50356001600160a01b0316611bc7565b6104946004803603604081101561063f57600080fd5b506001600160a01b038135811691602001351661210f565b6102e76004803603602081101561066d57600080fd5b50356001600160a01b0316612469565b6104946004803603606081101561069357600080fd5b8101906020810181356401000000008111156106ae57600080fd5b8201836020820111156106c057600080fd5b803590602001918460208302840111640100000000831117156106e257600080fd5b9190808060200260200160405190810160405280939291908181526020018383602002808284376000920191909152509295505050508035151591506020013515156124ee565b6104946004803603604081101561073f57600080fd5b506001600160a01b038135811691602001351661265e565b6102856004803603604081101561076d57600080fd5b506001600160a01b0381358116916020013516612b4d565b6102e7612b6a565b6102e7600480360360208110156107a357600080fd5b50356001600160a01b0316612bc9565b610285612d6b565b61029f612df1565b610357612e00565b610357612e0f565b6103f4600480360360208110156107e957600080fd5b50356001600160a01b0316612e21565b6102e7612e4b565b6104946004803603602081101561081757600080fd5b50356001600160e01b0316612e5b565b6102e7612ed8565b602760209081526000928352604080842090915290825290205481565b6002546001600160a01b031681565b600080546001600160a01b031633146108a55760405162461bcd60e51b81526004018080602001828103825260448152602001806147336044913960600191505060405180910390fd5b6001600160a01b03831660009081526023602052604090205460ff16610900576040805162461bcd60e51b81526020600482015260156024820152600080516020614854833981519152604482015290519081900360640190fd5b6001600160a01b0383166000908152602460205260409020600301805490839055610929612b6a565b506001600160a01b03841660008181526024602090815260409182902060030154825193845290830184905282820152436060830152517f60ab6bb8f64f97a68e803dc67f55f0a08732fe0db1e669b39f3b45dd35d9580d9181900360800190a15060019392505050565b60246020526000908152604090208054600182015460028301546003909301549192909184565b6004546001600160a01b031681565b6022546001600160e01b031681565b600080546001600160a01b03163314610a235760405162461bcd60e51b815260040180806020018281038252602b815260200180614650602b913960400191505060405180910390fd5b601f8054908390557fb35ae78d38c9ad12feab06bfa59b6d4364d33e312f0e00ffb1776f0c60e5ff7a8184610a56610a9f565b60408051938452602084019290925263ffffffff1682820152519081900360600190a1610a81612b6a565b5060019392505050565b60078160188110610a9857fe5b0154905081565b435b90565b6026602052600090815260409020546001600160e01b03811690600160e01b900463ffffffff1682565b60296020526000908152604090205481565b6001600160a01b03821660009081526023602052604081206001018260188110610b0657fe5b01546001600160e01b03169392505050565b6002546001600160a01b0316331480610b3b57506000546001600160a01b031633145b610b765760405162461bcd60e51b81526004018080602001828103825260338152602001806145e46033913960400191505060405180910390fd5b6001600160a01b03811660009081526023602052604090205460ff16610bd1576040805162461bcd60e51b81526020600482015260156024820152600080516020614854833981519152604482015290519081900360640190fd5b6001600160a01b038116600090815260256020908152604080832060249092528220549091610bfe610a9f565b83546040805160608101909152603380825263ffffffff93841694506001600160e01b03831693600093610c48938793600160e01b90920490921691906148216020830139612fb7565b8554604080516001600160a01b038a168152602081018890526001600160e01b0383168183015263ffffffff600160e01b9093049290921660608301526080820186905260a08201839052519192507f33c3c4fbbf284318eed04c3cf9daac06e5923d93fe4a2be263a7ef9ca04a61d1919081900360c00190a1600081118015610cd25750600084115b15610ef6576000610ce38286613053565b90506000876001600160a01b03166318160ddd6040518163ffffffff1660e01b815260040160206040518083038186803b158015610d2057600080fd5b505afa158015610d34573d6000803e3d6000fd5b505050506040513d6020811015610d4a57600080fd5b50519050610d566144d0565b60008211610d735760405180602001604052806000815250610d7d565b610d7d8383613095565b9050610d876144d0565b604080516020810190915289546001600160e01b03168152610da990836130d2565b82518151604080516001600160a01b038f1681526020810188905280820189905260608101939093526080830191909152519192507fe95dd326fd60b246147ca887c909941be4959f1d69568fada2de48030966a6b6919081900360a00190a16040518060400160405280610e5783600001516040518060400160405280601a81526020017f6e657720696e64657820657863656564732032323420626974730000000000008152506130f7565b6001600160e01b03168152602001610e92896040518060400160405280601c8152602001600080516020614801833981519152815250613154565b63ffffffff9081169091526001600160a01b038c166000908152602560209081526040909120835181549490920151909216600160e01b026001600160e01b039182166001600160e01b0319909416939093171691909117905550610f4992505050565b8015610f4957610f29836040518060400160405280601c8152602001600080516020614801833981519152815250613154565b855463ffffffff91909116600160e01b026001600160e01b039091161785555b610f516144e3565b506001600160a01b0386166000818152602560209081526040918290208251808401845290546001600160e01b03811680835263ffffffff600160e01b909204919091168284018190528451958652928501879052848401526060840191909152905190917ff3f7e0fdea8bdab4b48e0a46de330b1548a9741b9346db25843f0401fbb5d63b919081900360800190a150505050505050565b600080546001600160a01b031633146110345760405162461bcd60e51b81526004018080602001828103825260448152602001806147336044913960600191505060405180910390fd5b6001600160a01b03831660009081526023602052604090205460ff1661108f576040805162461bcd60e51b81526020600482015260156024820152600080516020614854833981519152604482015290519081900360640190fd5b6706f05b59d3b2000082116110d55760405162461bcd60e51b81526004018080602001828103825260328152602001806147776032913960400191505060405180910390fd5b670de0b6b3a764000082111561111c5760405162461bcd60e51b815260040180806020018281038252602d815260200180614596602d913960400191505060405180910390fd5b6001600160a01b0383166000818152602460209081526040918290206002018054908690558251938452908301819052828201859052905190917fdade4f941992368dc087a600c8e7b5c61509cd6a99aba9615921929ece521da3919081900360600190a1611189612b6a565b506001949350505050565b600581815481106111a157fe5b6000918252602090912001546001600160a01b0316905081565b6023602052600090815260409020805460199091015460ff9091169063ffffffff1682565b60215481565b66038d7ea4c6800081565b600080546001600160a01b03163314611251576040805162461bcd60e51b815260206004820152601f60248201527f6f6e6c792061646d696e2063616e2073657420536967685f4164647265737300604482015290519081900360640190fd5b50600480546001600160a01b0319166001600160a01b0392831617908190551690565b600080546001600160a01b031633146112d0576040805162461bcd60e51b81526020600482015260196024820152786f6e6c792061646d696e2063616e20736574206f7261636c6560381b604482015290519081900360640190fd5b50600380546001600160a01b0383166001600160a01b03199091161790556001919050565b6002546001600160a01b031633148061131857506000546001600160a01b031633145b6113535760405162461bcd60e51b81526004018080602001828103825260338152602001806145e46033913960400191505060405180910390fd5b6001600160a01b03811660009081526023602052604090205460ff166113ae576040805162461bcd60e51b81526020600482015260156024820152600080516020614854833981519152604482015290519081900360640190fd5b6001546040805163076b7fbb60e51b815290516000926001600160a01b03169163ed6ff760916004808301926020929190829003018186803b1580156113f357600080fd5b505afa158015611407573d6000803e3d6000fd5b505050506040513d602081101561141d57600080fd5b505190506114296144d0565b6040518060200160405280836001600160a01b03166307ce32a5866040518263ffffffff1660e01b815260040180826001600160a01b03166001600160a01b0316815260200191505060206040518083038186803b15801561148a57600080fd5b505afa15801561149e573d6000803e3d6000fd5b505050506040513d60208110156114b457600080fd5b505190526001600160a01b0384166000908152602660209081526040808320602490925282206001015492935091906114eb610a9f565b835463ffffffff91821692506001600160e01b03811691600091611518918591600160e01b9004166131aa565b8554604080516001600160a01b038c168152602081018890526001600160e01b0383168183015263ffffffff600160e01b9093049290921660608301526080820186905260a08201839052519192507fa058dfd6c04d9834195c4b80ae7ca35418d9d07d684cdeb45972eec16c1b336e919081900360c00190a16000811180156115a25750600084115b1561187c5760006115b38286613053565b90506000886001600160a01b03166354e665628b6040518263ffffffff1660e01b815260040180826001600160a01b03166001600160a01b0316815260200191505060206040518083038186803b15801561160d57600080fd5b505afa158015611621573d6000803e3d6000fd5b505050506040513d602081101561163757600080fd5b50516040805163c172350b60e01b81526001600160a01b038d811660048301529151918c169163c172350b91602480820192602092909190829003018186803b15801561168357600080fd5b505afa158015611697573d6000803e3d6000fd5b505050506040513d60208110156116ad57600080fd5b505101905060006116be828a6131e4565b90506116c86144d0565b600082116116e557604051806020016040528060008152506116ef565b6116ef8483613095565b90506116f96144d0565b60408051602081019091528a546001600160e01b0316815261171b90836130d2565b90507f0be37f70e594e12d41728104a3b673f3291f124ea114f134a0880e6f5f84b16c8d84878560000151856000015160405180866001600160a01b03166001600160a01b031681526020018581526020018481526020018381526020018281526020019550505050505060405180910390a160405180604001604052806117dc83600001516040518060400160405280601a81526020017f6e657720696e64657820657863656564732032323420626974730000000000008152506130f7565b6001600160e01b031681526020016118178a6040518060400160405280601c8152602001600080516020614801833981519152815250613154565b63ffffffff9081169091526001600160a01b038f166000908152602660209081526040909120835181549490920151909216600160e01b026001600160e01b039182166001600160e01b03199094169390931716919091179055506118cf9350505050565b80156118cf576118af836040518060400160405280601c8152602001600080516020614801833981519152815250613154565b855463ffffffff91909116600160e01b026001600160e01b039091161785555b6118d76144e3565b506001600160a01b0388166000818152602660209081526040918290208251808401845290546001600160e01b03811680835263ffffffff600160e01b909204919091168284018190528451958652928501879052848401526060840191909152905190917f6e0d87063c8417fd7b8b3205d65ebdb7c8b9acdacd9a31ff3bbb870f6f40a459919081900360800190a1505050505050505050565b6003546001600160a01b031681565b6002546000906001600160a01b03163314806119a757506000546001600160a01b031633145b6119e25760405162461bcd60e51b815260040180806020018281038252602b8152602001806146e7602b913960400191505060405180910390fd5b6001600160a01b03821660009081526023602052604090205460ff16611a3d576040805162461bcd60e51b81526020600482015260156024820152600080516020614854833981519152604482015290519081900360640190fd5b6001600160a01b03821660009081526006602052604090205460ff16611aaa576040805162461bcd60e51b815260206004820152601c60248201527f4d61726b657420646f6573206e6f7420737570706f7274205349474800000000604482015290519081900360640190fd5b611ab26144fa565b604080516060810182526001808252602080830185815260008486018190526001600160a01b038916815260239092529390208251815460ff19169015151781559251919291611b06918301906018614519565b50604091820151601991909101805463ffffffff191663ffffffff9092169190911790556001600160a01b0384166000908152600660205220805460ff19169055611b4f612b6a565b50604080516001600160a01b03851681526000602082015281517fd5f5b7732da53526b112e858cdf354b8d8ad54ab944ddca1dbe803e292f181d7929181900390910190a150600192915050565b601f5481565b6001600160a01b031660009081526023602052604090206019015463ffffffff1690565b6002546000906001600160a01b0316331480611bed57506000546001600160a01b031633145b611c285760405162461bcd60e51b815260040180806020018281038252602a8152602001806147d7602a913960400191505060405180910390fd5b6001600160a01b03821660009081526023602052604090205460ff1615611c96576040805162461bcd60e51b815260206004820152601960248201527f4d61726b657420616c726561647920737570706f727465642e00000000000000604482015290519081900360640190fd5b60058054600181019091557f036b6384b5eca791c62761152d0c79bb0604c104a5fb6f4eb0703f3154bb3db00180546001600160a01b0319166001600160a01b0384169081179091556000908152602560205260409020546001600160e01b0316158015611d2757506001600160a01b038216600090815260256020526040902054600160e01b900463ffffffff16155b15611e57576040518060400160405280611d706a0c097ce7bc90715b34b9f160241b6001600160e01b03166040518060600160405280602181526020016145c3602191396130f7565b6001600160e01b03168152602001611db8611d89610a9f565b63ffffffff166040518060400160405280601c8152602001600080516020614801833981519152815250613154565b63ffffffff9081169091526001600160a01b03841660008181526025602090815260409182902085518154968301516001600160e01b03199097166001600160e01b03918216178116600160e01b978716880217918290558351948552811691840191909152939093049091168183015290517fea6ea9045fed8fdf09e1cd7b5c1a56a54a0269791d8e1474b141aa220917eaa9916060908290030190a15b6001600160a01b0382166000908152602660205260409020546001600160e01b0316158015611ea957506001600160a01b038216600090815260266020526040902054600160e01b900463ffffffff16155b15611faa576040518060400160405280611ef26a0c097ce7bc90715b34b9f160241b6001600160e01b03166040518060600160405280602181526020016145c3602191396130f7565b6001600160e01b03168152602001611f0b611d89610a9f565b63ffffffff9081169091526001600160a01b03841660008181526026602090815260409182902085518154968301516001600160e01b03199097166001600160e01b03918216178116600160e01b978716880217918290558351948552811691840191909152939093049091168183015290517fea6ea9045fed8fdf09e1cd7b5c1a56a54a0269791d8e1474b141aa220917eaa9916060908290030190a15b6001600160a01b03821660009081526023602052604090206019015463ffffffff1661205257611fd86144fa565b604080516060810182526001808252602080830185815260008486018190526001600160a01b038916815260239092529390208251815460ff1916901515178155925191929161202c918301906018614519565b50604091909101516019909101805463ffffffff191663ffffffff909216919091179055505b6040805160808101825260008082526020808301828152670de0b6b3a7640000848601908152606085018481526001600160a01b038916855260248452868520955186559151600186015551600285015551600390930192909255600690915220805460ff191690556120c3612b6a565b50604080516001600160a01b038416815243602082015281517fa64754291535175942be6f35fba8deab36d97ea608b17d06cc5efb985e17215f929181900390910190a1506001919050565b6002546001600160a01b031633148061213257506000546001600160a01b031633145b61216d5760405162461bcd60e51b81526004018080602001828103825260338152602001806145e46033913960400191505060405180910390fd5b6001600160a01b03821660009081526023602052604090205460ff166121c8576040805162461bcd60e51b81526020600482015260156024820152600080516020614854833981519152604482015290519081900360640190fd5b6001600160a01b03821660009081526025602052604090206121e86144d0565b50604080516020810190915281546001600160e01b031681526122096144d0565b5060408051602080820183526001600160a01b038088166000908152602783528481209188168082528284529481208054855286519590915291529190915580511580156122575750815115155b1561226e576a0c097ce7bc90715b34b9f160241b81525b81518151604080516001600160a01b0389168152602081019390935282810191909152517f8570f42cdf4cb0f9d23a4554baaca6538401acf7d2793bae71863a7d1d4f05e19181900360600190a16122c46144d0565b6122ce8383613202565b90506000866001600160a01b03166370a08231876040518263ffffffff1660e01b815260040180826001600160a01b03166001600160a01b0316815260200191505060206040518083038186803b15801561232857600080fd5b505afa15801561233c573d6000803e3d6000fd5b505050506040513d602081101561235257600080fd5b5051905060006123628284613227565b6001600160a01b038816600090815260296020526040812054919250906123899083613255565b8451604080516001600160a01b038d16815260208101929092528181018690526060820185905260808201839052519192507f9c41d92aa5b3c16b706af3e6514ad0658b630cdedfa37bf17c5db60233eeb647919081900360a00190a16123f8888266038d7ea4c6800061328b565b6001600160a01b03808a166000818152602960209081526040918290208590558151938e16845283019190915281810185905260608201839052517ffd9832ad1c344f70068adf57f948d4065352298b1c3e625e244a3b5fd7637f249181900360800190a150505050505050505050565b600080546001600160a01b031633146124c9576040805162461bcd60e51b815260206004820152601e60248201527f6f6e6c792061646d696e2063616e20736574205349474854524f4c4c45520000604482015290519081900360640190fd5b50600280546001600160a01b0383166001600160a01b03199091161790556001919050565b60005b6005548110156126585760006005828154811061250a57fe5b6000918252602090912001546001600160a01b031690508315156001141561256857612535816112f5565b60005b85518110156125665761255e8287838151811061255157fe5b602002602001015161265e565b600101612538565b505b600183151514156125af5761257c81610b18565b60005b85518110156125ad576125a58287838151811061259857fe5b602002602001015161210f565b60010161257f565b505b60005b855181101561264e576126128684815181106125ca57fe5b6020026020010151602960008987815181106125e257fe5b60200260200101516001600160a01b03166001600160a01b0316815260200190815260200160002054600061328b565b6029600088868151811061262257fe5b6020908102919091018101516001600160a01b03168252810191909152604001600020556001016125b2565b50506001016124f1565b50505050565b6002546001600160a01b031633148061268157506000546001600160a01b031633145b6126bc5760405162461bcd60e51b81526004018080602001828103825260338152602001806145e46033913960400191505060405180910390fd5b6001600160a01b03821660009081526023602052604090205460ff16612717576040805162461bcd60e51b81526020600482015260156024820152600080516020614854833981519152604482015290519081900360640190fd5b6001600160a01b03821660009081526026602052604090206127376144d0565b50604080516020810190915281546001600160e01b031681526127586144d0565b5060408051602080820183526001600160a01b038088166000908152602883528481209188168082528284529481208054855286519590915291529190915580511580156127a65750815115155b156127bd576a0c097ce7bc90715b34b9f160241b81525b6001546040805163076b7fbb60e51b815290516000926001600160a01b03169163ed6ff760916004808301926020929190829003018186803b15801561280257600080fd5b505afa158015612816573d6000803e3d6000fd5b505050506040513d602081101561282c57600080fd5b505190506128386144d0565b6040518060200160405280836001600160a01b03166307ce32a58a6040518263ffffffff1660e01b815260040180826001600160a01b03166001600160a01b0316815260200191505060206040518083038186803b15801561289957600080fd5b505afa1580156128ad573d6000803e3d6000fd5b505050506040513d60208110156128c357600080fd5b5051905284518451604080516001600160a01b038c168152602081019390935282810191909152519192507f1888bde808d21534089bdc68dcafd6b36033996be2f51d1dc37320a5dc85a1cd919081900360600190a1825115612b44576129286144d0565b6129328585613202565b60408051631f9fcb1960e31b81526001600160a01b038b811660048301528a8116602483015291519293506000929186169163fcfe58c891604480820192608092909190829003018186803b15801561298a57600080fd5b505afa15801561299e573d6000803e3d6000fd5b505050506040513d60808110156129b457600080fd5b5060200151905060006129c782856131e4565b905060006129d58285613227565b6001600160a01b038b16600090815260296020526040812054919250906129fc9083613255565b90507f42000b08c7b9f119837ca538ff135826a67dda3f8c21ba7cf49fe11af39cbcd28c866000015185858560405180866001600160a01b03166001600160a01b031681526020018581526020018481526020018381526020018281526020019550505050505060405180910390a1612a7d8b8266038d7ea4c6800061328b565b602960008d6001600160a01b03166001600160a01b03168152602001908152602001600020819055506000602960008d6001600160a01b03166001600160a01b031681526020019081526020016000205490507f42000b08c7b9f119837ca538ff135826a67dda3f8c21ba7cf49fe11af39cbcd28d876000015186868560405180866001600160a01b03166001600160a01b031681526020018581526020018481526020018381526020018281526020019550505050505060405180910390a15050505050505b50505050505050565b602860209081526000928352604080842090915290825290205481565b6000804390506000612b978260215460405180606001604052806034815260200161467b60349139612fb7565b6020549091506001600160e01b03168110612bc057612bb461340e565b50602155506001610aa1565b60009250505090565b6002546000906001600160a01b0316331480612bef57506000546001600160a01b031633145b612c2a5760405162461bcd60e51b815260040180806020018281038252602a8152602001806147d7602a913960400191505060405180910390fd5b6001600160a01b03821660009081526023602052604090205460ff16612c85576040805162461bcd60e51b81526020600482015260156024820152600080516020614854833981519152604482015290519081900360640190fd5b6001600160a01b03821660009081526006602052604090205460ff1615612cf3576040805162461bcd60e51b815260206004820152601c60248201527f4d61726b657420616c726561647920737570706f727473205349474800000000604482015290519081900360640190fd5b6001600160a01b0382166000908152600660205260409020805460ff19166001179055612d1e612b6a565b50604080516001600160a01b03841681526001602082015281517fd5f5b7732da53526b112e858cdf354b8d8ad54ab944ddca1dbe803e292f181d7929181900390910190a1506001919050565b60048054604080516370a0823160e01b81523093810193909352516000926001600160a01b0390921691839183916370a08231916024808301926020929190829003018186803b158015612dbe57600080fd5b505afa158015612dd2573d6000803e3d6000fd5b505050506040513d6020811015612de857600080fd5b50519250505090565b6001546001600160a01b031681565b6020546001600160e01b031681565b6a0c097ce7bc90715b34b9f160241b81565b6025602052600090815260409020546001600160e01b03811690600160e01b900463ffffffff1682565b600454600160a01b900460ff1681565b6000546001600160a01b03163314612eb6576040805162461bcd60e51b81526020600482015260196024820152786f6e6c792061646d696e2063616e20736574206f7261636c6560381b604482015290519081900360640190fd5b602080546001600160e01b0319166001600160e01b0392909216919091179055565b600080546001600160a01b03163314612f225760405162461bcd60e51b815260040180806020018281038252602e8152602001806147a9602e913960400191505060405180910390fd5b600454600160a01b900460ff168015612f47576004805460ff60a01b19169055612f5b565b6004805460ff60a01b1916600160a01b1790555b600454604080518315158152600160a01b90920460ff161515602083015280517fe8c4d110efbe597b6fb634c5542eaaab148b9e659687bf391bd2fbeda873e4709281900390910190a15050600454600160a01b900460ff1690565b600081848411156130465760405162461bcd60e51b81526004018080602001828103825283818151815260200191508051906020019080838360005b8381101561300b578181015183820152602001612ff3565b50505050905090810190601f1680156130385780820380516001836020036101000a031916815260200191505b509250505060405180910390fd5b50508183035b9392505050565b600061304c83836040518060400160405280601781526020017f6d756c7469706c69636174696f6e206f766572666c6f770000000000000000008152506140dd565b61309d6144d0565b60405180602001604052806130c96130c3866a0c097ce7bc90715b34b9f160241b613053565b8561415c565b90529392505050565b6130da6144d0565b60405180602001604052806130c985600001518560000151613255565b600081600160e01b841061314c5760405162461bcd60e51b815260206004820181815283516024840152835190928392604490910191908501908083836000831561300b578181015183820152602001612ff3565b509192915050565b600081640100000000841061314c5760405162461bcd60e51b815260206004820181815283516024840152835190928392604490910191908501908083836000831561300b578181015183820152602001612ff3565b600061304c8383604051806040016040528060158152602001747375627472616374696f6e20756e646572666c6f7760581b815250612fb7565b600061304c6131fb84670de0b6b3a7640000613053565b835161415c565b61320a6144d0565b60405180602001604052806130c9856000015185600001516131aa565b60006a0c097ce7bc90715b34b9f160241b613246848460000151613053565b8161324d57fe5b049392505050565b600061304c8383604051806040016040528060118152602001706164646974696f6e206f766572666c6f7760781b81525061418f565b600081831015801561329d5750600083115b156134065760048054604080516370a0823160e01b81523093810193909352516001600160a01b039091169160009183916370a08231916024808301926020929190829003018186803b1580156132f357600080fd5b505afa158015613307573d6000803e3d6000fd5b505050506040513d602081101561331d57600080fd5b5051905080851161340357816001600160a01b031663a9059cbb87876040518363ffffffff1660e01b815260040180836001600160a01b03166001600160a01b0316815260200182815260200192505050602060405180830381600087803b15801561338857600080fd5b505af115801561339c573d6000803e3d6000fd5b505050506040513d60208110156133b257600080fd5b5050604080516001600160a01b03881681526020810187905281517f3799b2f9b49a826c349848bd1305ef315f3b5391cc97432e0a0a84a04981bcd5929181900390910190a160009250505061304c565b50505b509092915050565b6060600580548060200260200160405190810160405280929190818152602001828054801561346657602002820191906000526020600020905b81546001600160a01b03168152600190910190602001808311613448575b505050505090506000613477610a9f565b63ffffffff16905060005b82518110156134be57600083828151811061349957fe5b602002602001015190506134ac81610b18565b6134b5816112f5565b50600101613482565b506022546001600160e01b031660178114156134e957602280546001600160e01b031916905561355d565b60225460408051808201909152601a81527f637572436c6f636b203a204164646974696f6e204661696c6564000000000000602082015260009161353b916001600160e01b039091169060019061418f565b602280546001600160e01b0319166001600160e01b0392909216919091179055505b602254604080516001600160e01b03808516825290921660208301524282820152517f4568cea75ac2a1113de7ce3671fce6d3d054b492bf2c3cf3d1f40c0dabb089f29181900360600190a16022546000906007906001600160e01b0316601881106135c557fe5b0154905060006135ee848360405180606001604052806021815260200161471260219139612fb7565b6022549091506001600160e01b0380861691600791166018811061360e57fe5b01556022547f9c027d07b3a69b62257af5d78424e15f4137abf6c3b808893ad8f4e6dc5fb260906001600160e01b0316836007826018811061364c57fe5b0154604080516001600160e01b03909416845260208401929092528282015260608201849052436080830152519081900360a00190a161368a6144d0565b604051806020016040528060008152509050606086516040519080825280602002602001820160405280156136d957816020015b6136c66144d0565b8152602001906001900390816136be5790505b50905060005b8751811015613cc15760008882815181106136f657fe5b6020908102919091018101516001600160a01b0381166000908152600690925260409091205490915060ff16613752576040518060200160405280600081525083838151811061374257fe5b6020026020010181905250613cb8565b61375a6144d0565b506040805160208101909152600081526137726144d0565b60408051602080820183526001600160a01b03861660009081526023909152919091206022548291600101906001600160e01b0316601881106137b157fe5b01546001600160e01b0316905290506137c86144d0565b6040805160208082018084526003546336f8c87d60e21b9091526001600160a01b03888116602485015293519293849391169163dbe321f49160448086019291908187030181600087803b15801561381f57600080fd5b505af1158015613833573d6000803e3d6000fd5b505050506040513d602081101561384957600080fd5b50519052604080516318160ddd60e01b815290519192506000916001600160a01b038716916318160ddd916004808301926020929190829003018186803b15801561389357600080fd5b505afa1580156138a7573d6000803e3d6000fd5b505050506040513d60208110156138bd57600080fd5b505182519091506138ff5760405162461bcd60e51b81526004018080602001828103825260398152602001806146176039913960400191505060405180910390fd5b6001600160a01b03851660009081526023602052604090206019015463ffffffff166018148015613935575061393583836141e4565b156139885760006139446144d0565b61394e85856141eb565b9150915061395c8184614227565b9650915061396a868c61428f565b89898151811061397657fe5b602002602001018190525050506139b0565b604051806020016040528060008152508787815181106139a457fe5b60200260200101819052505b60006139ba6144d0565b60405180602001604052808b6000015181525090506139ec818a8a815181106139df57fe5b60200260200101516142b0565b809b5081935050506000898981518110613a0257fe5b602090810291909101810151518c51604080516001600160a01b038d16815293840183905283810191909152519092507ff9622872fa7e502691daa7f12818532c79f24cfd656ce1623ca35e4cf2a302db9181900360600190a16000613a8d86600001516001600160e01b03166040518060600160405280603881526020016146af603891396130f7565b6001600160a01b038a1660009081526023602052604090206022546001909101906001600160e01b031660188110613ac157fe5b0180546001600160e01b0319166001600160e01b03929092169190911790556001600160a01b038916600090815260236020526040902060190154601863ffffffff9091161015613baa57506001600160a01b038816600090815260236020908152604091829020601901548251808401909352601e83527f507269636520436f756e746572206164646974696f6e206661696c65642e00009183019190915263ffffffff1690613b7690829060019061418f565b6001600160a01b038a166000908152602360205260409020601901805463ffffffff191663ffffffff929092169190911790555b86518651604080516001600160a01b038d168152602081019390935282810191909152517f2a1f12f2c48264c4af60d10754f87aa3e6d226e78010c592e9f965275cf278bf9181900360600190a186516001600160a01b038a1660009081526023602052604090206022547fda6962a3940563173fa762ceffdb13fb05a3dc5d268cacd2aee059ffbf5bb6e0928c9290916001909101906001600160e01b031660188110613c5457fe5b01546001600160a01b03808e166000908152602360209081526040918290206019015482519690931686528501939093526001600160e01b039091168383015263ffffffff166060830152436080830152519081900360a00190a150505050505050505b506001016136df565b50601f54600454600090600160a01b900460ff1615613dd157600354600480546040805163fc57d4df60e01b81526001600160a01b03928316938101939093525192169163fc57d4df91602480820192602092909190829003018186803b158015613d2b57600080fd5b505afa158015613d3f573d6000803e3d6000fd5b505050506040513d6020811015613d5557600080fd5b5051601f54909150600090613d6b908390613053565b8551909150821580613d7c57508181115b15613d8b57601f549350613dce565b613dcb81846040518060400160405280601d81526020017f4d6178205370656564206469766973696f6e2067617665206572726f720000008152506142cf565b93505b50505b601f54845160408051928352602083018590528281018490526060830191909152517f55fb4fda3f5cc0ba86ecc44b0a318ef00406601e56864eb1940deab025cad1c19181900360800190a160005b89518110156140d157600060058281548110613e3857fe5b60009182526020808320909101546001600160a01b0316808352602490915260409091208054600182015460039092015492935091613e756144d0565b895115613ea5576000613e9b8a8881518110613e8d57fe5b60200260200101518c614331565b9250613eb6915050565b506040805160208101909152600081525b8951600090613ec6576000613ed0565b613ed08983614354565b9050808315613f1f576000613f1b83866040518060400160405280601781526020017f5370656564204164646974696f6e204f766572666c6f7700000000000000000081525061418f565b9150505b613f276144d0565b5060408051602080820183526001600160a01b038a166000908152602490915291822060020154815290613f5b8383614354565b90506000613f9f84836040518060400160405280601d81526020017f426f72726f776572204e65772053706565643a20556e646572666c6f77000000815250612fb7565b6001600160a01b038b16600081815260246020908152604091829020868155600101849055815192835282018890528181018a905260608201879052519192507fde1ded2f4b125d7017f2e817a78f8e83f130c716a00e97c860aa96c1230a98dc919081900360800190a16001600160a01b038a166000818152602460209081526040918290205482519384529083018c905282820152517fd8be0957f69173e6c6d244e50cf376d6fc80092d0be1fd819e80b356ef7860159181900360600190a16001600160a01b038a166000818152602460209081526040918290206001015482519384529083018b905282820152517f443392d5d35a273b0fedfa142f0abac636428ce1c14bf3cd7f1c5dc9c94060d19181900360600190a1505060019098019750613e209650505050505050565b50505050505050505050565b60008315806140ea575082155b156140f75750600061304c565b8383028385828161410457fe5b041483906141535760405162461bcd60e51b815260206004820181815283516024840152835190928392604490910191908501908083836000831561300b578181015183820152602001612ff3565b50949350505050565b600061304c83836040518060400160405280600e81526020016d646976696465206279207a65726f60901b8152506142cf565b600083830182858210156141535760405162461bcd60e51b815260206004820181815283516024840152835190928392604490910191908501908083836000831561300b578181015183820152602001612ff3565b5190511190565b60006141f56144d0565b60008061420a8660000151866000015161436d565b6040805160208101909152908152909450925050505b9250929050565b60006142316144d0565b600080614242866000015186614390565b9092509050600082600381111561425557fe5b1461427457506040805160208101909152600081529092509050614220565b60408051602081019091529081526000969095509350505050565b6142976144d0565b60405180602001604052806130c985600001518561415c565b60006142ba6144d0565b60008061420a866000015186600001516143cf565b6000818361431e5760405162461bcd60e51b815260206004820181815283516024840152835190928392604490910191908501908083836000831561300b578181015183820152602001612ff3565b5082848161432857fe5b04949350505050565b600061433b6144d0565b8351835161434991906143f5565b915091509250929050565b6000670de0b6b3a7640000613246848460000151613053565b600080838311614384575060009050818303614220565b50600390506000614220565b600080836143a357506000905080614220565b838302838582816143b057fe5b04146143c457506002915060009050614220565b600092509050614220565b6000808383018481106143e757600092509050614220565b506002915060009050614220565b60006143ff6144d0565b60008061441486670de0b6b3a7640000614390565b9092509050600082600381111561442757fe5b1461444657506040805160208101909152600081529092509050614220565b60008061445383886144a5565b9092509050600082600381111561446657fe5b1461448857506040805160208101909152600081529094509250614220915050565b604080516020810190915290815260009890975095505050505050565b600080826144b95750600190506000614220565b60008385816144c457fe5b04915091509250929050565b6040518060200160405280600081525090565b604080518082019091526000808252602082015290565b6040518061030001604052806018906020820280388339509192915050565b8260188101928215614561579160200282015b8281111561456157825182546001600160e01b0319166001600160e01b0390911617825560209092019160019091019061452c565b5061456d929150614571565b5090565b610aa191905b8082111561456d5780546001600160e01b031916815560010161457756fe546865206e657720537570706c69657220526174696f206d757374206265206c657373207468616e203165313873696768496e697469616c496e64657820657863656564732032323420626974736f6e6c792061646d696e2f5369676874726f6c6c65722063616e20757064617465205349474820537570706c7920496e6465787265667265736853494748537065656473496e7465726e616c203a204f7261636c652072657475726e656420496e76616c69642050726963656f6e6c792061646d696e2f5369676874726f6c6c65722063616e206368616e6765205349474820726174655265667265736853494748537065656473203a205375627472616374696f6e20756e646572666c6f7720666f7220626c6f636b7341737369676e696e672063757272656e74207072696365206661696c65642e205072696365206f766572666c6f77732075696e743232342e6f6e6c792061646d696e2f5369676874726f6c6c65722063616e2064726f702053494748206d61726b657444656c7461426c6f636b7320726573756c74656420696e20556e646572666c6f774f6e6c792041646d696e2063616e206368616e676520746865205349474820537065656420446973747269627574696f6e20526174696f20666f722061204d61726b6574546865206e657720537570706c69657220526174696f206d7573742062652067726561746572207468616e20302e356531384f6e6c792041646d696e2063616e206368616e676520697353706565645570706572436865636b416c6c6f7765646f6e6c792061646d696e2f5369676874726f6c6c65722063616e206164642053494748206d61726b6574626c6f636b206e756d626572206578636565647320333220626974730000000075706461746553494748537570706c79496e646578203a20426c6f636b205375627472616374696f6e20556e646572666c6f774d61726b6574206e6f7420737570706f727465642e0000000000000000000000a265627a7a7231582041f7c2b921fd8359447b754755b28765354944c8f8cd93da1ac92c19a8ce030e64736f6c63430005100032",
  "source": "pragma solidity ^0.5.16;\n\nimport \"../ProtocolContracts/IToken.sol\";\nimport \"./Math/Exponential.sol\";\nimport \"./PriceOracle.sol\";\nimport \"./SighSpeedController.sol\";\nimport \"openzeppelin-solidity/contracts/token/ERC20/IERC20.sol\"; \n// import \"../openzeppelin/EIP20Interface.sol\";\n\nimport \"../ProtocolContracts/configuration/GlobalAddressesProvider.sol\";\nimport \"../ProtocolContracts/lendingpool/LendingPoolCore.sol\";\n\ncontract SIGHDistributionHandler is Exponential {\n    \n    address admin;\n    GlobalAddressesProvider public addressesProvider;\n\n    address public sightrollerAddress;\n    PriceOracle public oracle;\n    address public Sigh_Address;\n\n    bool public isSpeedUpperCheckAllowed = false;\n\n    IToken[] public allMarkets;\n\n    mapping (address => bool) sighedMarkets;    // Markets which receive SIGH \n    \n    struct SIGHMarketState {\n        uint224 index;              /// @notice The market's last updated SIGHIndex \n        uint32 block_;              /// @notice The block number the index was last updated at\n    }\n    \n    struct SIGH_PriceCycles {\n        bool isListed;\n        uint224[24] recordedPriceSnapshot;\n        uint32 initializationCounter;\n    }\n\n    uint256[24] public blockNumbersForPriceSnapshots_;\n    \n    struct SIGH_Speeds {\n        uint suppliers_Speed;\n        uint borrowers_Speed;\n        uint speeds_Ratio_Mantissa;\n        uint staking_Speed;\n    }\n\n    uint public SIGHSpeed;\n\n    uint224 public deltaBlocksForSpeed = 1; // 60 * 60 \n    uint256 public prevSpeedRefreshBlock;\n    uint224 public curClock;\n\n    mapping(address => SIGH_PriceCycles) public sighPriceCycles;\n    mapping(address => SIGH_Speeds) public SIGH_Speeds_for_Markets;\n\n    mapping(address => SIGHMarketState) public sighMarketSupplyState;\n    mapping(address => SIGHMarketState) public sighMarketBorrowState;\n\n    mapping(address => mapping(address => uint)) public SIGHSupplierIndex;\n    mapping(address => mapping(address => uint)) public SIGHBorrowerIndex;\n\n    mapping(address => uint) public SIGH_Accrued;           /// @notice The SIGH accrued but not yet transferred to each user\n\n    uint public constant SIGH_ClaimThreshold = 0.001e18;        /// @notice The threshold above which the flywheel transfers SIGH, in wei\n    uint224 public constant sighInitialIndex = 1e36;            /// @notice The initial SIGH index for a market\n\n\n    event MarketAdded (address marketAddress_,uint blockNumber); \n\n    /// @notice Emitted when market isSIGHed status is changed\n    event MarketSIGHed(address marketAddress, bool isSIGHed);\n\n    /// @notice Emitted when SIGH rate is changed\n    event NewSIGHSpeed(uint oldSIGHSpeed, uint newSIGHSpeed, uint blockNumber_);\n    \n    event StakingSpeedUpdated(address marketAddress, uint prevStakingSpeed, uint new_staking_Speed, uint blockNumber );\n\n    event SIGH_Speeds_Supplier_Ratio_Mantissa_Updated(address iToken, uint prevRatio, uint newRatio);\n\n    event SpeedUpperCheckAllowedSwitched(bool previsSpeedUpperCheckAllowed, bool isSpeedUpperCheckAllowed );\n\n\n    /// @notice Emitted when a new SIGH speed is calculated for a market\n    event SuppliersSIGHSpeedUpdated(IToken iToken, uint prevSpeed, uint newSpeed);\n\n    /// @notice Emitted when a new SIGH speed is calculated for a market\n    event BorrowersSIGHSpeedUpdated(IToken iToken, uint prevSpeed, uint newSpeed);\n\n    /// @notice Emitted when SIGH is distributed to a supplier\n    event DistributedSupplier_SIGH(IToken iToken, address supplier, uint sighDelta, uint sighSupplyIndex);\n\n    /// @notice Emitted when SIGH is distributed to a borrower\n    event DistributedBorrower_SIGH(IToken iToken, address borrower, uint sighDelta, uint sighBorrowIndex);\n\n    /// @notice Emitted when SIGH is transferred to a User\n    event SIGH_Transferred(address userAddress, uint amountTransferred );\n\n    /// @notice Emitted when Price snapshot is taken\n    event PriceSnapped(address iToken, uint prevPrice, uint currentPrice);\n\n    event PriceSnappedCheck(address iToken, uint prevPrice, uint currentPrice,uint32 currentCounter, uint blockNumber);\n\n\n    event ClockUpdated( uint224 prevClock, uint224 curClock, uint timestamp );\n        \n        \n    constructor(GlobalAddressesProvider addressesProvider_) public {\n        admin = msg.sender;\n        addressesProvider = addressesProvider; \n    }\n    \n    \n// ###############################################################################################\n// ##############        ADD / DROP A MARKET FROM THOSE THAT RECEIVE SIGH           ##############\n// ###############################################################################################\n    event checkIndexes(address market, uint224 index, uint32 blockNumber);\n\n    function addMarket(address marketAddress_) public returns (bool) {\n        require(msg.sender == sightrollerAddress || msg.sender == admin, \"only admin/Sightroller can add SIGH market\");\n        require(!sighPriceCycles[marketAddress_].isListed ,\"Market already supported.\");\n\n        allMarkets.push(IToken(marketAddress_)); // ADD THE MARKET TO THE LIST OF SUPPORTED MARKETS\n        \n        // INITIALIZE SUPPLY INDEXES\n        if ( sighMarketSupplyState[marketAddress_].index == 0 && sighMarketSupplyState[marketAddress_].block_ == 0 ) {\n            sighMarketSupplyState[marketAddress_] = SIGHMarketState({ index: safe224(sighInitialIndex,\"sighInitialIndex exceeds 224 bits\"), block_: safe32(getBlockNumber(), \"block number exceeds 32 bits\") });\n            emit checkIndexes(marketAddress_,sighMarketSupplyState[marketAddress_].index, sighMarketSupplyState[marketAddress_].block_);\n        }\n\n        // INITIALIZE BORROW INDEXES\n        if ( sighMarketBorrowState[marketAddress_].index == 0 && sighMarketBorrowState[marketAddress_].block_ == 0 ) {\n            sighMarketBorrowState[marketAddress_] = SIGHMarketState({ index: safe224(sighInitialIndex,\"sighInitialIndex exceeds 224 bits\"), block_: safe32(getBlockNumber(), \"block number exceeds 32 bits\") });\n            emit checkIndexes(marketAddress_,sighMarketBorrowState[marketAddress_].index, sighMarketBorrowState[marketAddress_].block_);\n        }\n\n        // INITIALIZE PRICECYCLES\n        if ( sighPriceCycles[marketAddress_].initializationCounter == 0 ) {\n            uint224[24] memory emptyPrices;\n            sighPriceCycles[marketAddress_] = SIGH_PriceCycles({ isListed: true, recordedPriceSnapshot : emptyPrices, initializationCounter: 0 }) ;\n        }   \n\n        // INITIALIZE SPEEDS\n        SIGH_Speeds_for_Markets[marketAddress_] = SIGH_Speeds( { suppliers_Speed: uint(0), borrowers_Speed: uint(0), speeds_Ratio_Mantissa: uint(1e18), staking_Speed: uint(0) } );\n        \n        sighedMarkets[marketAddress_] = false;\n        refreshSIGHSpeeds(); \n        emit MarketAdded(marketAddress_, block.number); \n        return true;\n    }\n\n    function Market_SIGHed(address marketAddress_) public returns (bool) {\n        require(msg.sender == sightrollerAddress || msg.sender == admin, \"only admin/Sightroller can add SIGH market\");\n        require(sighPriceCycles[marketAddress_].isListed ,\"Market not supported.\");\n        require(!sighedMarkets[marketAddress_], \"Market already supports SIGH\");\n        \n        sighedMarkets[marketAddress_] = true;\n        refreshSIGHSpeeds(); \n        emit MarketSIGHed( marketAddress_, true);\n        return true;\n    }\n\n    function Market_UNSIGHed(address marketAddress_) public returns (bool) {\n        require(msg.sender == sightrollerAddress || msg.sender == admin, \"only admin/Sightroller can drop SIGH market\");\n        require(sighPriceCycles[marketAddress_].isListed ,\"Market not supported.\");\n        require(sighedMarkets[marketAddress_], \"Market does not support SIGH\");\n\n        // Recorded Price snapshots initialized to 0. \n        uint224[24] memory emptyPrices;\n        sighPriceCycles[marketAddress_] = SIGH_PriceCycles({ isListed: true, recordedPriceSnapshot : emptyPrices, initializationCounter: 0 }) ;\n\n        sighedMarkets[marketAddress_] = false;\n        refreshSIGHSpeeds();\n        emit MarketSIGHed( marketAddress_, false);\n        return true;\n    }\n    \n\n// ###############################################################################################\n// ##############        GLOBAL SIGH SPEED AND SIGH SPEED RATIO FOR A MARKET          ##############\n// ###############################################################################################\n\n    /**\n     * @notice Set the amount of SIGH distributed per block\n     * @param SIGHSpeed_ The amount of SIGH wei per block to distribute\n     */\n    function updateSIGHSpeed(uint SIGHSpeed_) public returns (bool) {\n        require( msg.sender == admin, \"only admin/Sightroller can change SIGH rate\"); \n\n        uint oldSpeed = SIGHSpeed;\n        SIGHSpeed = SIGHSpeed_;\n        emit NewSIGHSpeed(oldSpeed, SIGHSpeed_,getBlockNumber());\n\n        refreshSIGHSpeeds(); \n        return true;\n    }\n\n    function updateSIGHSpeedRatioForAMarket(address marketAddress, uint supplierRatio) public returns (bool) {\n        require( msg.sender == admin, 'Only Admin can change the SIGH Speed Distribution Ratio for a Market');\n        require(sighPriceCycles[marketAddress].isListed ,\"Market not supported.\");\n        require( supplierRatio > 0.5e18, 'The new Supplier Ratio must be greater than 0.5e18');\n        require( supplierRatio <= 1e18, 'The new Supplier Ratio must be less than 1e18');\n\n        uint prevRatio = SIGH_Speeds_for_Markets[marketAddress].speeds_Ratio_Mantissa ;\n        SIGH_Speeds_for_Markets[marketAddress].speeds_Ratio_Mantissa = supplierRatio;\n        emit SIGH_Speeds_Supplier_Ratio_Mantissa_Updated( marketAddress, prevRatio , SIGH_Speeds_for_Markets[marketAddress].speeds_Ratio_Mantissa );\n        \n        refreshSIGHSpeeds();\n        return true;\n    }\n    \n    function updateStakingSpeedForAMarket(address marketAddress, uint newStakingSpeed) public returns (bool) {\n        require( msg.sender == admin, 'Only Admin can change the SIGH Speed Distribution Ratio for a Market');\n        require(sighPriceCycles[marketAddress].isListed ,\"Market not supported.\");\n        \n        uint prevStakingSpeed = SIGH_Speeds_for_Markets[marketAddress].staking_Speed;\n        SIGH_Speeds_for_Markets[marketAddress].staking_Speed = newStakingSpeed;\n        refreshSIGHSpeeds();\n\n        emit StakingSpeedUpdated(marketAddress, prevStakingSpeed, SIGH_Speeds_for_Markets[marketAddress].staking_Speed, block.number );\n        return true;\n        \n    }\n    \n    function SpeedUpperCheckAllowedSwitch() public returns (bool) {\n        require( msg.sender == admin, 'Only Admin can change isSpeedUpperCheckAllowed');\n        bool previsSpeedUpperCheckAllowed = isSpeedUpperCheckAllowed;\n        if (isSpeedUpperCheckAllowed) {\n            isSpeedUpperCheckAllowed = false;\n        }\n        else {\n            isSpeedUpperCheckAllowed = true;\n        }\n        emit SpeedUpperCheckAllowedSwitched(previsSpeedUpperCheckAllowed, isSpeedUpperCheckAllowed );\n        return isSpeedUpperCheckAllowed;        \n    }\n    \n    // ###########################################################################################\n    // ################ REFRESH SIGH DISTRIBUTION SPEEDS FOR MARKETS (EVERY HOUR) ################\n    // ###########################################################################################\n\n    /**\n     * @notice Recalculate and update SIGH speeds for all SIGH markets\n     */\n    function refreshSIGHSpeeds() public returns (bool) {\n        uint blockNumber = block.number;\n        uint256 blocksElapsedSinceLastRefresh = sub_(blockNumber , prevSpeedRefreshBlock, \"RefreshSIGHSpeeds : Subtraction underflow for blocks\"); \n\n        if ( blocksElapsedSinceLastRefresh >= deltaBlocksForSpeed) {\n            refreshSIGHSpeedsInternal();\n            prevSpeedRefreshBlock = blockNumber;\n            return true;\n        }\n        return false;\n    }\n\n    event refreshingSighSpeeds_1( address market,uint marketLosses , uint totalLosses   );\n    event refreshingSighSpeeds_2( address market,uint newSpeed, uint stakingSpeed, uint newSpeedFinal   );\n\n    event maxSpeedCheck(uint SIGH);\n    event blockNumberForSnapshotUpdated(uint224 curClock,uint prevBlockNumberForSnapshot,uint blockNumbersForPriceSnapshots, uint deltaBlocks_,uint blocknumber );    \n    event MaxSpeedUsedWhenRefreshingPriceSnapshots(uint SIGHSpeed, uint maxSpeed,uint SIGH_Price,uint totalLosses_  );\n        \n    function refreshSIGHSpeedsInternal() internal {\n        IToken[] memory allMarkets_ = allMarkets;\n        uint blockNumber = getBlockNumber();   \n        \n\n        // ###### accure the indexes ######\n        for (uint i = 0; i < allMarkets_.length; i++) {\n            IToken currentMarket = allMarkets_[i];\n            updateSIGHSupplyIndex(address(currentMarket));\n            updateSIGHBorrowIndex(address(currentMarket));\n        }\n\n        // ###### Updates the Clock ######\n        uint224 prevClock = curClock;  \n\n        if (curClock == 23) {\n            curClock = 0;               // Global clock Updated\n        }\n        else {\n            uint224 newClock = uint224(add_(curClock,1,\"curClock : Addition Failed\"));\n            curClock = newClock;        // Global clock Updated\n        }\n        \n        emit ClockUpdated(prevClock,curClock,now);\n        \n        // ###### Blocks passed since PriceSnapshot taken 24 hours back ######\n        // ###### blockNumbersForPriceSnapshots_ updated for Current Clock ######\n        uint prevBlockNumberForSnapshot = blockNumbersForPriceSnapshots_[curClock];\n        uint deltaBlocks_ = sub_(blockNumber , prevBlockNumberForSnapshot, \"DeltaBlocks resulted in Underflow\");\n        blockNumbersForPriceSnapshots_[curClock] = uint224(blockNumber);\n        \n        emit blockNumberForSnapshotUpdated(curClock, prevBlockNumberForSnapshot, blockNumbersForPriceSnapshots_[curClock], deltaBlocks_, block.number );\n        \n        // ###### Calculate the total Loss made by the protocol over the 24 hrs ######\n        Exp memory totalLosses = Exp({mantissa: 0});\n        Exp[] memory marketLosses = new Exp[](allMarkets_.length); \n        \n\n        // ######    Calculates the marketLosses[i] by subtracting the current          ######\n        // ###### price from the stored price for the current clock (24 hr old price)   ######\n        // ######         Adds the loss of the current Market to total loss             ######\n        // ######         It updates the stored Price for the current CLock             ######\n        for (uint i = 0; i < allMarkets_.length; i++) {\n            IToken iToken = allMarkets_[i];\n            \n            if ( !sighedMarkets[address(iToken)]  ) { \n                marketLosses[i] = Exp({mantissa: 0});\n            }\n            else {\n\n                // ######    Calculates the marketLosses[i] by subtracting the current          ######\n                // ###### price from the stored price for the current clock (24 hr old price)   ######\n                // ###### and then multiplying it witht the underlying token balance of the     ######\n                // ###### market (not totalSupply (stokens balance), as the price diff. is      ###### \n                // ###### for underlying, and exchangeRate will lead to wrong result if we use  ###### \n                // ######       totalSupply instead of underlying balance)                      ######\n                // ######       We then divide it by the total blocks elapsed in 24 hours       ######\n                // ######       to get the per Block loss figure                                ######\n                Exp memory totalLossesOver24hours = Exp({mantissa: 0});\n                Exp memory previousPrice = Exp({ mantissa: sighPriceCycles[address(iToken)].recordedPriceSnapshot[curClock] });\n                Exp memory currentPrice = Exp({ mantissa: oracle.getUnderlyingPriceRefresh( iToken ) });\n                uint totalUnderlyingBalance = iToken.totalSupply();\n                \n                require ( currentPrice.mantissa > 0, \"refreshSIGHSpeedsInternal : Oracle returned Invalid Price\" );\n    \n                if ( sighPriceCycles[address(iToken)].initializationCounter == 24 && greaterThanExp( previousPrice , currentPrice ) ) {  // i.e the price has decreased\n                    (MathError error, Exp memory lossPerUnderlying) = subExp( previousPrice , currentPrice );\n                    ( error, totalLossesOver24hours ) = mulScalar( lossPerUnderlying, totalUnderlyingBalance );\n                    marketLosses[i] = div_( totalLossesOver24hours, deltaBlocks_ );  // marketLosses[i] on an average per Block Basis over past 24 hours\n                }\n                else {\n                     marketLosses[i] = Exp({mantissa: 0});\n                }\n    \n                //  ###### Adds the loss of the current Market to total loss ######\n                //  ###### Adds the loss of the current Market to total loss ######            \n                MathError error;\n                Exp memory prevTotalLosses = Exp({ mantissa : totalLosses.mantissa });\n                (error, totalLosses) = addExp(prevTotalLosses, marketLosses[i]);  // Total loss made by the platform\n                uint curMarketLoss = marketLosses[i].mantissa;\n                emit refreshingSighSpeeds_1( address(iToken) , curMarketLoss, totalLosses.mantissa );\n    \n                //  ###### It updates the stored Price for the current CLock       ######\n                uint32 prevCounter;\n                sighPriceCycles[address(iToken)].recordedPriceSnapshot[curClock] =  safe224(uint224(currentPrice.mantissa), 'Assigning current price failed. Price overflows uint224.' );\n    \n                // ######                   initializationCounter is used for newly SIGHED / Added Markets.                                 ######\n                // ######   It needs to reach 24 (priceSnapshots need to be taken) before it can be assigned a Sigh Speed based on LOSSES   ######\n                if (sighPriceCycles[address(iToken)].initializationCounter < 24 ) {\n                    prevCounter = sighPriceCycles[address(iToken)].initializationCounter;\n                    sighPriceCycles[address(iToken)].initializationCounter = uint32(add_(prevCounter,uint32(1),'Price Counter addition failed.'));\n                }\n                \n                emit PriceSnapped(address(iToken), previousPrice.mantissa, currentPrice.mantissa );\n                emit PriceSnappedCheck(address(iToken), previousPrice.mantissa, sighPriceCycles[address(iToken)].recordedPriceSnapshot[curClock] ,  sighPriceCycles[address(iToken)].initializationCounter, block.number );\n            }\n        }\n        \n        // ###### Max SIGH Speed is calculated is here (can be switched off)                                    ###### \n        // ###### If the value of SIGH which can be distributed per block is greater than the total losses      ###### \n        // ###### that occured on a per block basis, then we cap SIGH Speed (loss based only) to the value      ###### \n        // ######  which will lead to a distribution of value equal to the total losses on a per block basis    ###### \n        uint maxSpeed = SIGHSpeed;\n        uint SIGH_Price;\n        if (isSpeedUpperCheckAllowed) {\n            SIGH_Price = oracle.getUnderlyingPrice( IToken(Sigh_Address) );\n            uint max_valueDistributedPerBlock = mul_(SIGH_Price,SIGHSpeed);\n            uint totalLosses_ = totalLosses.mantissa;\n            if ( SIGH_Price == 0 || totalLosses_ > max_valueDistributedPerBlock ) {\n                maxSpeed = SIGHSpeed;            \n            } \n            else  {\n                maxSpeed = div_( totalLosses_ , SIGH_Price, \"Max Speed division gave error\");\n            }\n        }\n        \n        emit MaxSpeedUsedWhenRefreshingPriceSnapshots(SIGHSpeed, maxSpeed, SIGH_Price, totalLosses.mantissa  );\n\n        // ###### Updates the Speed (loss driven) for the Supported Markets ######\n        // ###### Updates the Speed (loss driven) for the Supported Markets ######        \n        for (uint i=0 ; i < allMarkets_.length ; i++) {\n            IToken current_market = allMarkets[i];\n            \n            uint prevSpeedSupplier =  SIGH_Speeds_for_Markets[address(current_market)].suppliers_Speed ;\n            uint prevSpeedBorrower =  SIGH_Speeds_for_Markets[address(current_market)].borrowers_Speed ;\n            uint stakingSpeed = SIGH_Speeds_for_Markets[address(current_market)].staking_Speed ;\n\n            Exp memory lossRatio;\n            if (totalLosses.mantissa > 0) {\n                MathError error;\n                (error, lossRatio) = divExp(marketLosses[i], totalLosses);\n            } \n            else {\n                lossRatio = Exp({mantissa: 0});\n            }\n            \n            uint newSpeed_ = totalLosses.mantissa > 0 ? mul_(maxSpeed, lossRatio) : 0;\n            uint newSpeedFinal = newSpeed_;\n            \n            // ADDING STAKING SPEED TO THE SPEED CALCULATED FROM THE LOSSES[i]/TOTAL_LOSSES \n            if (stakingSpeed > 0) {\n                uint newSpeedWithStakingRewrds = add_(newSpeed_,stakingSpeed,'Speed Addition Overflow');\n                newSpeedFinal = newSpeedWithStakingRewrds;\n            }\n            \n            // New Supplier Speed = NewSpeed (i.e Speed from the losses + staking speed for the market) * supplierSpeedRatio\n            // New Borrower Speed = NewSpeed (i.e Speed from the losses + staking speed for the market) - New Supplier Speed \n            Exp memory supplierSpeedRatio = Exp({ mantissa : SIGH_Speeds_for_Markets[address(current_market)].speeds_Ratio_Mantissa });\n            uint supplierNewSpeed = mul_(newSpeedFinal, supplierSpeedRatio );\n            uint borrowerNewSpeed = sub_(newSpeedFinal, supplierNewSpeed, 'Borrower New Speed: Underflow' );\n\n            SIGH_Speeds_for_Markets[address(current_market)].suppliers_Speed = supplierNewSpeed;  \n            SIGH_Speeds_for_Markets[address(current_market)].borrowers_Speed = borrowerNewSpeed;  \n\n            emit refreshingSighSpeeds_2( address(current_market) ,newSpeed_, stakingSpeed,  newSpeedFinal  );\n            emit SuppliersSIGHSpeedUpdated(current_market, prevSpeedSupplier, SIGH_Speeds_for_Markets[address(current_market)].suppliers_Speed   );\n            emit BorrowersSIGHSpeedUpdated(current_market, prevSpeedBorrower, SIGH_Speeds_for_Markets[address(current_market)].borrowers_Speed   );\n        }\n    }\n\n\n    // ################################################################## \n    // ################ UPDATE SIGH DISTRIBUTION INDEXES ################\n    // ################ No need to use balanceUnderlying() as we did when calculating total loss based speeds.              ################ \n    // ################ As over there balanceUnderlying() was needed to remove differences across markets while             ################ \n    // ################ here when updating indexes or distruting SIGH's, the ratios are calculated within individual market ################ \n    // ##################################################################\n\n    event updateSIGHSupplyIndex_test1(address market,uint speed,uint currentIndex,  uint prevBlock, uint curBlock, uint deltaBlocks );\n    event updateSIGHSupplyIndex_test2(address market,uint supplyTokens, uint sigh_Accrued, uint ratio, uint index );\n    event updateSIGHSupplyIndex_test3(address market,uint previndex, uint newIndex, uint blockNum );\n\n    /**\n     * @notice Accrue SIGH to the market by updating the supply index\n     * @param currentMarket The market whose supply index to update\n     */\n    function updateSIGHSupplyIndex(address currentMarket) public {      // SHOULD ONLY BE CALLED BY SIGHTROLLER. WAS INTERNAL BEFORE\n        require(msg.sender == sightrollerAddress || msg.sender == admin, \"only admin/Sightroller can update SIGH Supply Index\"); \n        require(sighPriceCycles[currentMarket].isListed ,\"Market not supported.\");\n        \n        SIGHMarketState storage supplyState = sighMarketSupplyState[currentMarket];\n        uint supplySpeed = SIGH_Speeds_for_Markets[address(currentMarket)].suppliers_Speed; \n        uint blockNumber = getBlockNumber();\n        uint prevIndex = supplyState.index;\n        uint deltaBlocks = sub_(blockNumber, uint( supplyState.block_ ), 'updateSIGHSupplyIndex : Block Subtraction Underflow');\n        emit updateSIGHSupplyIndex_test1(currentMarket, supplySpeed, supplyState.index, supplyState.block_, blockNumber, deltaBlocks );\n        \n        if (deltaBlocks > 0 && supplySpeed > 0) {\n            uint sigh_Accrued = mul_(deltaBlocks, supplySpeed);\n            uint supplyTokens = IToken(currentMarket).totalSupply();\n            Double memory ratio = supplyTokens > 0 ? fraction(sigh_Accrued, supplyTokens) : Double({mantissa: 0});\n            Double memory newIndex = add_(Double({mantissa: supplyState.index}), ratio);\n            emit updateSIGHSupplyIndex_test2( currentMarket, supplyTokens, sigh_Accrued, ratio.mantissa , newIndex.mantissa );\n            sighMarketSupplyState[currentMarket] = SIGHMarketState({ index: safe224(newIndex.mantissa, \"new index exceeds 224 bits\"), block_: safe32(blockNumber, \"block number exceeds 32 bits\")});\n        } \n        else if (deltaBlocks > 0) {\n            supplyState.block_ = safe32(blockNumber, \"block number exceeds 32 bits\");\n        }\n        \n        SIGHMarketState memory newSupplyState = sighMarketSupplyState[currentMarket];\n        emit updateSIGHSupplyIndex_test3( currentMarket, prevIndex, newSupplyState.index, newSupplyState.block_  );\n\n    }\n\n    event updateSIGHBorrowIndex_test1(address market,uint speed,uint currentIndex,  uint prevBlock, uint curBlock, uint deltaBlocks );\n    event updateSIGHBorrowIndex_test2(address market,uint borrowAmount, uint sigh_Accrued, uint ratio, uint index );\n    event updateSIGHBorrowIndex_test3(address market,uint previndex, uint newIndex, uint blockNum );\n\n    /**\n     * @notice Accrue SIGH to the market by updating the borrow index\n     * @param currentMarket The market whose borrow index to update\n     */\n    function updateSIGHBorrowIndex(address currentMarket) public {      // SHOULD ONLY BE CALLED BY SIGHTROLLER. WAS INTERNAL BEFORE\n        require(msg.sender == sightrollerAddress || msg.sender == admin, \"only admin/Sightroller can update SIGH Supply Index\"); \n        require(sighPriceCycles[currentMarket].isListed ,\"Market not supported.\");\n        \n        LendingPoolCore lendingPoolCoreContract = LendingPoolCore(addressesProvider.getLendingPoolCore() );\n        Exp memory marketBorrowIndex = Exp({mantissa: lendingPoolCoreContract.getInstrumentVariableBorrowsCumulativeIndex( currentMarket )});\n        \n        SIGHMarketState storage borrowState = sighMarketBorrowState[currentMarket];\n        uint borrowSpeed = SIGH_Speeds_for_Markets[address(currentMarket)].borrowers_Speed; \n        uint blockNumber = getBlockNumber();\n        uint prevIndex = borrowState.index;\n        uint deltaBlocks = sub_(blockNumber, uint(borrowState.block_));\n        emit updateSIGHBorrowIndex_test1(currentMarket, borrowSpeed, borrowState.index, borrowState.block_, blockNumber, deltaBlocks );\n        \n        if (deltaBlocks > 0 && borrowSpeed > 0) {\n            uint sigh_Accrued = mul_(deltaBlocks, borrowSpeed);\n\n            uint totalBorrows =  lendingPoolCoreContract.getInstrumentTotalBorrowsStable(currentMarket) + lendingPoolCoreContract.getInstrumentTotalBorrowsVariable(currentMarket);\n            uint borrowAmount = div_(totalBorrows, marketBorrowIndex);\n            Double memory ratio = borrowAmount > 0 ? fraction(sigh_Accrued, borrowAmount) : Double({mantissa: 0});\n            Double memory newIndex = add_(Double({mantissa: borrowState.index}), ratio);\n            emit updateSIGHBorrowIndex_test2( currentMarket, borrowAmount, sigh_Accrued, ratio.mantissa , newIndex.mantissa );\n            sighMarketBorrowState[currentMarket] = SIGHMarketState({ index: safe224(newIndex.mantissa, \"new index exceeds 224 bits\"),  block_: safe32(blockNumber, \"block number exceeds 32 bits\")});\n        } \n        else if (deltaBlocks > 0) {\n            borrowState.block_ = safe32(blockNumber, \"block number exceeds 32 bits\");\n        }\n        \n        SIGHMarketState memory newBorrowState = sighMarketBorrowState[currentMarket];\n        emit updateSIGHBorrowIndex_test3( currentMarket, prevIndex, newBorrowState.index, newBorrowState.block_  );\n\n    }\n\n\n    // #########################################################################################\n    // ################ DISTRIBUTE ACCURED SIGH AMONG THE NETWORK PARTICIPANTS  ################\n    // #########################################################################################\n\n    event distributeSupplier_SIGH_test3(address market,uint supplyIndex, uint supplierIndex );\n    event distributeSupplier_SIGH_test4(address market, uint deltaIndex ,uint supplierTokens, uint supplierDelta , uint supplierAccrued);\n\n    /**\n     * @notice Calculate SIGH accrued by a supplier and possibly transfer it to them\n     * @param currentMarket The market in which the supplier is interacting\n     * @param supplier The address of the supplier to distribute SIGH to\n     */\n    function distributeSupplier_SIGH(address currentMarket, address supplier ) public {\n        require(msg.sender == sightrollerAddress || msg.sender == admin, \"only admin/Sightroller can update SIGH Supply Index\"); \n        require(sighPriceCycles[currentMarket].isListed ,\"Market not supported.\");\n\n        SIGHMarketState storage supplyState = sighMarketSupplyState[currentMarket];\n        Double memory supplyIndex = Double({mantissa: supplyState.index});\n        Double memory supplierIndex = Double({mantissa: SIGHSupplierIndex[currentMarket][supplier]});\n        SIGHSupplierIndex[currentMarket][supplier] = supplyIndex.mantissa;     // UPDATED\n\n        if (supplierIndex.mantissa == 0 && supplyIndex.mantissa > 0) {\n            supplierIndex.mantissa = sighInitialIndex;\n        }\n\n        emit distributeSupplier_SIGH_test3(currentMarket, supplyIndex.mantissa, supplierIndex.mantissa );\n\n        Double memory deltaIndex = sub_(supplyIndex, supplierIndex);    // , 'Distribute Supplier SIGH : supplyIndex Subtraction Underflow'\n        uint supplierTokens = IToken(currentMarket).balanceOf(supplier);\n        uint supplierDelta = mul_(supplierTokens, deltaIndex);\n        uint supplierAccrued = add_(SIGH_Accrued[supplier], supplierDelta);\n        emit distributeSupplier_SIGH_test4(currentMarket, deltaIndex.mantissa , supplierTokens, supplierDelta , supplierAccrued);\n        SIGH_Accrued[supplier] = transfer_Sigh(supplier, supplierAccrued, SIGH_ClaimThreshold);\n        uint sigh_accured_by_supplier = SIGH_Accrued[supplier];         \n        emit DistributedSupplier_SIGH(IToken(currentMarket), supplier, supplierDelta, sigh_accured_by_supplier);\n    }\n\n    event distributeBorrower_SIGH_test3(address market,uint borrowIndex, uint borrowerIndex );\n    event distributeBorrower_SIGH_test4(address market, uint deltaIndex ,uint borrowBalance, uint borrowerDelta , uint borrowerAccrued);\n\n    /**\n     * @notice Calculate SIGH accrued by a borrower and possibly transfer it to them\n     * @dev Borrowers will not begin to accrue until after the first interaction with the protocol.\n     * @param currentMarket The market in which the borrower is interacting\n     * @param borrower The address of the borrower to distribute Gsigh to\n     */\n    function distributeBorrower_SIGH(address currentMarket, address borrower) public {\n        require(msg.sender == sightrollerAddress || msg.sender == admin, \"only admin/Sightroller can update SIGH Supply Index\"); \n        require(sighPriceCycles[currentMarket].isListed ,\"Market not supported.\");\n\n        SIGHMarketState storage borrowState = sighMarketBorrowState[currentMarket];\n        Double memory borrowIndex = Double({mantissa: borrowState.index});\n        Double memory borrowerIndex = Double({mantissa: SIGHBorrowerIndex[currentMarket][borrower]});\n        SIGHBorrowerIndex[currentMarket][borrower] = borrowIndex.mantissa; // Updated\n\n        if (borrowerIndex.mantissa == 0 && borrowIndex.mantissa > 0) {\n            borrowerIndex.mantissa = sighInitialIndex;\n        }\n\n        LendingPoolCore lendingPoolCoreContract = LendingPoolCore(addressesProvider.getLendingPoolCore() );\n\n        Exp memory marketBorrowIndex = Exp({mantissa: lendingPoolCoreContract.getInstrumentVariableBorrowsCumulativeIndex( currentMarket )});\n        \n        emit distributeBorrower_SIGH_test3(currentMarket, borrowIndex.mantissa, borrowerIndex.mantissa );\n\n        if (borrowerIndex.mantissa > 0) {\n            Double memory deltaIndex = sub_(borrowIndex, borrowerIndex);   // , 'Distribute Borrower SIGH : borrowIndex Subtraction Underflow'\n            uint borrowBalance;\n            ( , borrowBalance , , ) = lendingPoolCoreContract.getUserBasicInstrumentData(currentMarket, borrower);\n            // uint borrowBalance = IToken(currentMarket).borrowBalanceStored(borrower);\n            uint borrowerAmount = div_(borrowBalance, marketBorrowIndex);\n            uint borrowerDelta = mul_(borrowerAmount, deltaIndex);\n            uint borrowerAccrued = add_(SIGH_Accrued[borrower], borrowerDelta);\n            emit distributeBorrower_SIGH_test4(currentMarket, deltaIndex.mantissa , borrowerAmount, borrowerDelta , borrowerAccrued);\n            SIGH_Accrued[borrower] = transfer_Sigh(borrower, borrowerAccrued, SIGH_ClaimThreshold);\n            uint sigh_accured_by_borrower = SIGH_Accrued[borrower]; \n            emit distributeBorrower_SIGH_test4(currentMarket, deltaIndex.mantissa, borrowerAmount, borrowerDelta, sigh_accured_by_borrower);\n        }\n    }\n\n    // #########################################################################################\n    // ################### MARKET PARTICIPANTS CAN CLAIM THEIR ACCURED SIGH  ###################\n    // #########################################################################################\n\n    function claimSIGH(address[] memory holders, bool borrowers, bool suppliers ) public {\n        \n        for (uint i = 0; i < allMarkets.length; i++) {  \n            IToken currentMarket = allMarkets[i];\n\n            if (borrowers == true) {\n                updateSIGHBorrowIndex(address(currentMarket));\n                for (uint j = 0; j < holders.length; j++) {\n                    distributeBorrower_SIGH(address(currentMarket), holders[j] );\n                }\n            }\n\n            if (suppliers == true) {\n                updateSIGHSupplyIndex(address(currentMarket));\n                for (uint j = 0; j < holders.length; j++) {\n                    distributeSupplier_SIGH(address(currentMarket), holders[j] );\n                }\n            }\n            \n            for (uint j = 0; j < holders.length; j++) {\n                SIGH_Accrued[holders[i]] = transfer_Sigh(holders[i] , SIGH_Accrued[ holders[i] ] , 0 );\n            }\n        }\n    }\n\n    // #########################################################################################\n    // ################### TRANSFERS THE SIGH TO THE MARKET PARTICIPANT  ###################\n    // #########################################################################################\n\n    /**\n     * @notice Transfer SIGH to the user, if they are above the threshold\n     * @dev Note: If there is not enough SIGH, we do not perform the transfer all.\n     * @param user The address of the user to transfer SIGH to\n     * @param userAccrued The amount of SIGH to (possibly) transfer\n     * @param threshold The minimum amount of SIGH to (possibly) transfer\n     * @return The amount of SIGH which was NOT transferred to the user\n     */\n    function transfer_Sigh(address user, uint userAccrued, uint threshold) internal returns (uint) {\n        if (userAccrued >= threshold && userAccrued > 0) {\n            IERC20 sigh = IERC20(Sigh_Address);\n            uint sigh_Remaining = sigh.balanceOf(address(this));\n            if (userAccrued <= sigh_Remaining) {\n                sigh.transfer(user, userAccrued);\n                emit SIGH_Transferred(user, userAccrued);\n                return 0;\n            }\n        }\n        return userAccrued;\n    }\n\n    // #########################################################\n    // ################### GENERAL PARAMETER FUNCTIONS ###################\n    // #########################################################\n\n    // SIGHTROLLER - GETTER AND SETTER\n    function setSightrollerAddress(address newSightroller) public returns (bool) {\n        require(msg.sender == admin, \"only admin can set SIGHTROLLER\");\n        sightrollerAddress = newSightroller;\n        return true;\n    }\n\n    // SIGH - GETTER AND SETTER\n    function setSighAddress(address Sigh_Address__) public returns (address) {\n        require(msg.sender == admin, \"only admin can set Sigh_Address\");\n        Sigh_Address = Sigh_Address__;\n        return Sigh_Address;\n    }\n    \n    // ORACLE - SETTER\n    function setOracle(address newOracle) public returns (bool) {\n        require(msg.sender == admin, \"only admin can set oracle\");\n        oracle = PriceOracle(newOracle);\n        return true;\n    }\n    \n    function getSIGHBalance() public view returns (uint) {\n        IERC20 sigh = IERC20(Sigh_Address);\n        uint sigh_Remaining = sigh.balanceOf(address(this));\n        return sigh_Remaining;\n    }\n    \n    function setMinimumDeltaBlocksForSpeed(uint224 newMinimumDeltaBlocks) public {\n        require(msg.sender == admin, \"only admin can set oracle\");\n        deltaBlocksForSpeed = newMinimumDeltaBlocks;\n    }\n\n    function getBlockNumber() public view returns (uint32) {\n        return uint32(block.number);\n    }\n    \n    function checkPriceSnapshots(address market_, uint clock) public view returns (uint224) {\n        return sighPriceCycles[market_].recordedPriceSnapshot[clock];\n    }\n    \n    function checkinitializationCounter(address market_) public view returns (uint224) {\n        return sighPriceCycles[market_].initializationCounter;\n    }\n    \n\n}\n",
  "sourcePath": "/Users/apple/Desktop/GITCOIN/Sigh_Finance/SighFinanceContracts/contracts/SIGH/SIGHDistributionHandler.sol",
  "compiler": {
    "name": "solc",
    "version": "0.5.16+commit.9c3226ce.Emscripten.clang"
  },
  "schemaVersion": "3.2.4",
  "updatedAt": "2020-10-22T12:30:37.552Z",
  "devdoc": {
    "methods": {
      "distributeBorrower_SIGH(address,address)": {
        "details": "Borrowers will not begin to accrue until after the first interaction with the protocol.",
        "params": {
          "borrower": "The address of the borrower to distribute Gsigh to",
          "currentMarket": "The market in which the borrower is interacting"
        }
      },
      "distributeSupplier_SIGH(address,address)": {
        "params": {
          "currentMarket": "The market in which the supplier is interacting",
          "supplier": "The address of the supplier to distribute SIGH to"
        }
      },
      "updateSIGHBorrowIndex(address)": {
        "params": {
          "currentMarket": "The market whose borrow index to update"
        }
      },
      "updateSIGHSpeed(uint256)": {
        "params": {
          "SIGHSpeed_": "The amount of SIGH wei per block to distribute"
        }
      },
      "updateSIGHSupplyIndex(address)": {
        "params": {
          "currentMarket": "The market whose supply index to update"
        }
      }
    }
  },
  "userdoc": {
    "methods": {
      "distributeBorrower_SIGH(address,address)": {
        "notice": "Calculate SIGH accrued by a borrower and possibly transfer it to them"
      },
      "distributeSupplier_SIGH(address,address)": {
        "notice": "Calculate SIGH accrued by a supplier and possibly transfer it to them"
      },
      "refreshSIGHSpeeds()": {
        "notice": "Recalculate and update SIGH speeds for all SIGH markets"
      },
      "updateSIGHBorrowIndex(address)": {
        "notice": "Accrue SIGH to the market by updating the borrow index"
      },
      "updateSIGHSpeed(uint256)": {
        "notice": "Set the amount of SIGH distributed per block"
      },
      "updateSIGHSupplyIndex(address)": {
        "notice": "Accrue SIGH to the market by updating the supply index"
      }
    }
  }
}