{
  "contractName": "SimplePriceOracle",
  "abi": [
    {
      "constant": true,
      "inputs": [],
      "name": "isPriceOracle",
      "outputs": [
        {
          "internalType": "bool",
          "name": "",
          "type": "bool"
        }
      ],
      "payable": false,
      "stateMutability": "view",
      "type": "function"
    },
    {
      "constant": true,
      "inputs": [
        {
          "internalType": "contract CToken",
          "name": "cToken",
          "type": "address"
        }
      ],
      "name": "getUnderlyingPrice",
      "outputs": [
        {
          "internalType": "uint256",
          "name": "",
          "type": "uint256"
        }
      ],
      "payable": false,
      "stateMutability": "view",
      "type": "function"
    }
  ],
  "bytecode": "0x6080604052600080546001600160a01b0319908116733af8c569ab77af5230596acf0e8c2f9351d24c381790915560018054821673396c5e36dd0a0f5a5d33dae44368d4193f69a1f0179055600280548216736135b13325bfc4b00278b4abc5e20bbce2d6580e1790556003805490911673777a68032a88e5a84678a77af2cd65a7b3c0775a17905534801561009457600080fd5b5061072d806100a46000396000f3fe608060405234801561001057600080fd5b50600436106100365760003560e01c806366331bba1461003b578063fc57d4df14610057575b600080fd5b61004361008f565b604080519115158252519081900360200190f35b61007d6004803603602081101561006d57600080fd5b50356001600160a01b0316610094565b60408051918252519081900360200190f35b600181565b60006101db826001600160a01b03166395d89b416040518163ffffffff1660e01b815260040160006040518083038186803b1580156100d257600080fd5b505afa1580156100e6573d6000803e3d6000fd5b505050506040513d6000823e601f3d908101601f19168201604052602081101561010f57600080fd5b810190808051604051939291908464010000000082111561012f57600080fd5b90830190602082018581111561014457600080fd5b825164010000000081118282018810171561015e57600080fd5b82525081516020918201929091019080838360005b8381101561018b578181015183820152602001610173565b50505050905090810190601f1680156101b85780820380516001836020036101000a031916815260200191505b506040818101905260048152636c696e6b60e01b60208201529250610611915050565b15610272576000806000806000600160009054906101000a90046001600160a01b03166001600160a01b031663feaf968c6040518163ffffffff1660e01b815260040160a06040518083038186803b15801561023657600080fd5b505afa15801561024a573d6000803e3d6000fd5b505050506040513d60a081101561026057600080fd5b5060200151955061060c945050505050565b6103ba826001600160a01b03166395d89b416040518163ffffffff1660e01b815260040160006040518083038186803b1580156102ae57600080fd5b505afa1580156102c2573d6000803e3d6000fd5b505050506040513d6000823e601f3d908101601f1916820160405260208110156102eb57600080fd5b810190808051604051939291908464010000000082111561030b57600080fd5b90830190602082018581111561032057600080fd5b825164010000000081118282018810171561033a57600080fd5b82525081516020918201929091019080838360005b8381101561036757818101518382015260200161034f565b50505050905090810190601f1680156103945780820380516001836020036101000a031916815260200191505b506040818101905260078152660a65a8ea6928e960cb1b60208201529250610611915050565b15610415576000806000806000600360009054906101000a90046001600160a01b03166001600160a01b031663feaf968c6040518163ffffffff1660e01b815260040160a06040518083038186803b15801561023657600080fd5b61055c826001600160a01b03166395d89b416040518163ffffffff1660e01b815260040160006040518083038186803b15801561045157600080fd5b505afa158015610465573d6000803e3d6000fd5b505050506040513d6000823e601f3d908101601f19168201604052602081101561048e57600080fd5b81019080805160405193929190846401000000008211156104ae57600080fd5b9083019060208201858111156104c357600080fd5b82516401000000008111828201881017156104dd57600080fd5b82525081516020918201929091019080838360005b8381101561050a5781810151838201526020016104f2565b50505050905090810190601f1680156105375780820380516001836020036101000a031916815260200191505b506040818101905260068152650a65aa6928e960d31b60208201529250610611915050565b156105b7576000806000806000600260009054906101000a90046001600160a01b03166001600160a01b031663feaf968c6040518163ffffffff1660e01b815260040160a06040518083038186803b15801561023657600080fd5b60008060008060008060009054906101000a90046001600160a01b03166001600160a01b031663feaf968c6040518163ffffffff1660e01b815260040160a06040518083038186803b15801561023657600080fd5b919050565b6000816040516020018082805190602001908083835b602083106106465780518252601f199092019160209182019101610627565b6001836020036101000a03801982511681845116808217855250505050505090500191505060405160208183030381529060405280519060200120836040516020018082805190602001908083835b602083106106b45780518252601f199092019160209182019101610695565b6001836020036101000a038019825116818451168082178552505050505050905001915050604051602081830303815290604052805190602001201490509291505056fea265627a7a7231582026db6d27d0fd51ea197eb435aea78d48970539988bd4061dbcdeb0884584ba3d64736f6c63430005100032",
  "source": "pragma solidity ^0.5.16;\n\nimport \"./PriceOracle.sol\";\nimport \"./Tokens/CErc20.sol\";\n\nimport \"./AggregatorV3Interface.sol\";\n\ncontract SimplePriceOracle is PriceOracle {\n\n    AggregatorV3Interface internal LINK_ETH = AggregatorV3Interface(0x3Af8C569ab77af5230596Acf0E8c2F9351d24C38); //ChainLink - ETH\n    AggregatorV3Interface internal LINK_USD = AggregatorV3Interface(0x396c5E36DD0a0F5a5D33dae44368D4193f69a1F0); //ChainLink - USD\n    AggregatorV3Interface internal SIGH_USD = AggregatorV3Interface(0x6135b13325bfC4B00278B4abC5e20bbce2D6580e); //Bitcoin - USD\n    AggregatorV3Interface internal GSIGH_USD = AggregatorV3Interface(0x777A68032a88E5A84678A77Af2CD65A7b3c0775a); //DAI - USD\n\n\n    function getUnderlyingPrice(CToken cToken) public view returns (uint) {\n\n        // Return LINK price in USD\n        if (compareStrings(cToken.symbol(), \"link\")) {\n            (uint80 roundID, int price,uint startedAt, uint timeStamp, uint80 answeredInRound) = LINK_USD.latestRoundData();\n            return uint(price);\n        } \n        else if (compareStrings(cToken.symbol(), \"S-GSIGH\")) {\n            (uint80 roundID, int price,uint startedAt, uint timeStamp, uint80 answeredInRound) = GSIGH_USD.latestRoundData();\n            return uint(price);\n        } \n        else if (compareStrings(cToken.symbol(), \"S-SIGH\")) {\n            (uint80 roundID, int price,uint startedAt, uint timeStamp, uint80 answeredInRound) = SIGH_USD.latestRoundData();\n            return uint(price);\n        } \n        // Return LINK price in ETH\n        else {\n            (uint80 roundID, int price,uint startedAt, uint timeStamp, uint80 answeredInRound) = LINK_ETH.latestRoundData();\n            return uint(price);\n        }\n    }\n\n\n    function compareStrings(string memory a, string memory b) internal pure returns (bool) {\n        return (keccak256(abi.encodePacked((a))) == keccak256(abi.encodePacked((b))));\n    }\n}\n",
  "sourcePath": "/Users/apple/Desktop/GITCOIN/Sigh_Finance/SighFinanceContracts/contracts/SimplePriceOracle.sol",
  "compiler": {
    "name": "solc",
    "version": "0.5.16+commit.9c3226ce.Emscripten.clang"
  },
  "schemaVersion": "3.2.4",
  "updatedAt": "2020-09-25T11:43:07.996Z",
  "networkType": "ethereum",
  "devdoc": {
    "methods": {}
  },
  "userdoc": {
    "methods": {}
  }
}