{
  "contractName": "Treasury",
  "abi": [
    {
      "inputs": [
        {
          "internalType": "contract EIP20Interface",
          "name": "sigh_token_",
          "type": "address"
        },
        {
          "internalType": "address",
          "name": "sightroller_Address_",
          "type": "address"
        }
      ],
      "payable": false,
      "stateMutability": "nonpayable",
      "type": "constructor"
    },
    {
      "anonymous": false,
      "inputs": [
        {
          "indexed": false,
          "internalType": "uint256",
          "name": "currentBalance",
          "type": "uint256"
        },
        {
          "indexed": false,
          "internalType": "uint256",
          "name": "AmountDripped",
          "type": "uint256"
        },
        {
          "indexed": false,
          "internalType": "uint256",
          "name": "totalAmountDripped",
          "type": "uint256"
        }
      ],
      "name": "AmountDripped",
      "type": "event"
    },
    {
      "anonymous": false,
      "inputs": [
        {
          "indexed": false,
          "internalType": "bool",
          "name": "prevDripAllowed",
          "type": "bool"
        },
        {
          "indexed": false,
          "internalType": "bool",
          "name": "newDripAllowed",
          "type": "bool"
        },
        {
          "indexed": false,
          "internalType": "uint256",
          "name": "blockNumber",
          "type": "uint256"
        }
      ],
      "name": "DripAllowedChanged",
      "type": "event"
    },
    {
      "anonymous": false,
      "inputs": [
        {
          "indexed": false,
          "internalType": "uint256",
          "name": "prevDripRate",
          "type": "uint256"
        },
        {
          "indexed": false,
          "internalType": "uint256",
          "name": "curDripRate",
          "type": "uint256"
        },
        {
          "indexed": false,
          "internalType": "uint256",
          "name": "blockNumber",
          "type": "uint256"
        }
      ],
      "name": "DripRateChanged",
      "type": "event"
    },
    {
      "anonymous": false,
      "inputs": [
        {
          "indexed": true,
          "internalType": "address",
          "name": "TargetAddress",
          "type": "address"
        },
        {
          "indexed": false,
          "internalType": "uint256",
          "name": "amountTransferred",
          "type": "uint256"
        },
        {
          "indexed": false,
          "internalType": "uint256",
          "name": "totalAmountTransferred",
          "type": "uint256"
        },
        {
          "indexed": false,
          "internalType": "uint256",
          "name": "blockNumber",
          "type": "uint256"
        }
      ],
      "name": "SIGHTransferred",
      "type": "event"
    },
    {
      "anonymous": false,
      "inputs": [
        {
          "indexed": false,
          "internalType": "bytes",
          "name": "data",
          "type": "bytes"
        }
      ],
      "name": "TokenSwapTransactionData",
      "type": "event"
    },
    {
      "anonymous": false,
      "inputs": [
        {
          "indexed": true,
          "internalType": "address",
          "name": "symbol",
          "type": "address"
        },
        {
          "indexed": false,
          "internalType": "string",
          "name": "symbolName",
          "type": "string"
        },
        {
          "indexed": false,
          "internalType": "uint256",
          "name": "prev_balance",
          "type": "uint256"
        },
        {
          "indexed": false,
          "internalType": "uint256",
          "name": "new_balance",
          "type": "uint256"
        }
      ],
      "name": "TokensBought",
      "type": "event"
    },
    {
      "anonymous": false,
      "inputs": [
        {
          "indexed": true,
          "internalType": "address",
          "name": "symbol",
          "type": "address"
        },
        {
          "indexed": false,
          "internalType": "string",
          "name": "symbolName",
          "type": "string"
        },
        {
          "indexed": false,
          "internalType": "uint256",
          "name": "prev_balance",
          "type": "uint256"
        },
        {
          "indexed": false,
          "internalType": "uint256",
          "name": "new_balance",
          "type": "uint256"
        }
      ],
      "name": "TokensSold",
      "type": "event"
    },
    {
      "constant": true,
      "inputs": [],
      "name": "admin",
      "outputs": [
        {
          "internalType": "address",
          "name": "",
          "type": "address"
        }
      ],
      "payable": false,
      "stateMutability": "view",
      "type": "function"
    },
    {
      "constant": true,
      "inputs": [],
      "name": "coolDownPeriod",
      "outputs": [
        {
          "internalType": "uint256",
          "name": "",
          "type": "uint256"
        }
      ],
      "payable": false,
      "stateMutability": "view",
      "type": "function"
    },
    {
      "constant": true,
      "inputs": [],
      "name": "lastDripBlockNumber",
      "outputs": [
        {
          "internalType": "uint256",
          "name": "",
          "type": "uint256"
        }
      ],
      "payable": false,
      "stateMutability": "view",
      "type": "function"
    },
    {
      "constant": true,
      "inputs": [],
      "name": "maxTransferAmount",
      "outputs": [
        {
          "internalType": "uint256",
          "name": "",
          "type": "uint256"
        }
      ],
      "payable": false,
      "stateMutability": "view",
      "type": "function"
    },
    {
      "constant": true,
      "inputs": [],
      "name": "pendingAdmin",
      "outputs": [
        {
          "internalType": "address",
          "name": "",
          "type": "address"
        }
      ],
      "payable": false,
      "stateMutability": "view",
      "type": "function"
    },
    {
      "constant": true,
      "inputs": [],
      "name": "pendingTreasuryImplementation",
      "outputs": [
        {
          "internalType": "address",
          "name": "",
          "type": "address"
        }
      ],
      "payable": false,
      "stateMutability": "view",
      "type": "function"
    },
    {
      "constant": true,
      "inputs": [],
      "name": "prevTransferBlock",
      "outputs": [
        {
          "internalType": "uint256",
          "name": "",
          "type": "uint256"
        }
      ],
      "payable": false,
      "stateMutability": "view",
      "type": "function"
    },
    {
      "constant": true,
      "inputs": [],
      "name": "recentlyDrippedAmount",
      "outputs": [
        {
          "internalType": "uint256",
          "name": "",
          "type": "uint256"
        }
      ],
      "payable": false,
      "stateMutability": "view",
      "type": "function"
    },
    {
      "constant": true,
      "inputs": [],
      "name": "sigh_token",
      "outputs": [
        {
          "internalType": "contract EIP20Interface",
          "name": "",
          "type": "address"
        }
      ],
      "payable": false,
      "stateMutability": "view",
      "type": "function"
    },
    {
      "constant": true,
      "inputs": [],
      "name": "sightroller_address",
      "outputs": [
        {
          "internalType": "address",
          "name": "",
          "type": "address"
        }
      ],
      "payable": false,
      "stateMutability": "view",
      "type": "function"
    },
    {
      "constant": true,
      "inputs": [],
      "name": "totalDrippedAmount",
      "outputs": [
        {
          "internalType": "uint256",
          "name": "",
          "type": "uint256"
        }
      ],
      "payable": false,
      "stateMutability": "view",
      "type": "function"
    },
    {
      "constant": true,
      "inputs": [],
      "name": "treasuryImplementation",
      "outputs": [
        {
          "internalType": "address",
          "name": "",
          "type": "address"
        }
      ],
      "payable": false,
      "stateMutability": "view",
      "type": "function"
    },
    {
      "constant": false,
      "inputs": [
        {
          "internalType": "uint256",
          "name": "val",
          "type": "uint256"
        }
      ],
      "name": "ChangeIsDripAllowed",
      "outputs": [
        {
          "internalType": "bool",
          "name": "",
          "type": "bool"
        }
      ],
      "payable": false,
      "stateMutability": "nonpayable",
      "type": "function"
    },
    {
      "constant": false,
      "inputs": [
        {
          "internalType": "uint256",
          "name": "dripRate_",
          "type": "uint256"
        }
      ],
      "name": "changeDripRate",
      "outputs": [
        {
          "internalType": "bool",
          "name": "",
          "type": "bool"
        }
      ],
      "payable": false,
      "stateMutability": "nonpayable",
      "type": "function"
    },
    {
      "constant": false,
      "inputs": [],
      "name": "drip",
      "outputs": [
        {
          "internalType": "uint256",
          "name": "",
          "type": "uint256"
        }
      ],
      "payable": false,
      "stateMutability": "nonpayable",
      "type": "function"
    },
    {
      "constant": false,
      "inputs": [
        {
          "internalType": "address",
          "name": "target_",
          "type": "address"
        },
        {
          "internalType": "uint256",
          "name": "amount",
          "type": "uint256"
        }
      ],
      "name": "transferSighTo",
      "outputs": [
        {
          "internalType": "bool",
          "name": "",
          "type": "bool"
        }
      ],
      "payable": false,
      "stateMutability": "nonpayable",
      "type": "function"
    },
    {
      "constant": false,
      "inputs": [
        {
          "internalType": "address",
          "name": "to",
          "type": "address"
        },
        {
          "internalType": "bytes",
          "name": "callDataHex",
          "type": "bytes"
        },
        {
          "internalType": "address",
          "name": "token_bought",
          "type": "address"
        },
        {
          "internalType": "address",
          "name": "token_sold",
          "type": "address"
        }
      ],
      "name": "swapTokensUsingOxAPI",
      "outputs": [
        {
          "internalType": "bool",
          "name": "",
          "type": "bool"
        }
      ],
      "payable": true,
      "stateMutability": "payable",
      "type": "function"
    },
    {
      "constant": true,
      "inputs": [],
      "name": "getSIGHBalance",
      "outputs": [
        {
          "internalType": "uint256",
          "name": "",
          "type": "uint256"
        }
      ],
      "payable": false,
      "stateMutability": "view",
      "type": "function"
    },
    {
      "constant": true,
      "inputs": [
        {
          "internalType": "string",
          "name": "symbol",
          "type": "string"
        }
      ],
      "name": "getTokenBalance",
      "outputs": [
        {
          "internalType": "uint256",
          "name": "",
          "type": "uint256"
        }
      ],
      "payable": false,
      "stateMutability": "view",
      "type": "function"
    },
    {
      "constant": true,
      "inputs": [
        {
          "internalType": "address",
          "name": "target",
          "type": "address"
        }
      ],
      "name": "getAmountTransferred",
      "outputs": [
        {
          "internalType": "uint256",
          "name": "",
          "type": "uint256"
        }
      ],
      "payable": false,
      "stateMutability": "view",
      "type": "function"
    },
    {
      "constant": true,
      "inputs": [],
      "name": "getDripRate",
      "outputs": [
        {
          "internalType": "uint256",
          "name": "",
          "type": "uint256"
        }
      ],
      "payable": false,
      "stateMutability": "view",
      "type": "function"
    },
    {
      "constant": true,
      "inputs": [],
      "name": "getTotalDrippedAmount",
      "outputs": [
        {
          "internalType": "uint256",
          "name": "",
          "type": "uint256"
        }
      ],
      "payable": false,
      "stateMutability": "view",
      "type": "function"
    },
    {
      "constant": false,
      "inputs": [
        {
          "internalType": "contract TreasuryCore",
          "name": "treasuryCoreAddress",
          "type": "address"
        }
      ],
      "name": "_become",
      "outputs": [],
      "payable": false,
      "stateMutability": "nonpayable",
      "type": "function"
    }
  ],
  "bytecode": "0x60806040526009805460ff191690556969e10de76676d0800000600d556001600e5534801561002d57600080fd5b50604051611c39380380611c398339818101604052604081101561005057600080fd5b508051602090910151600080546001600160a01b03199081163317909155600480546001600160a01b0394851690831617905560058054939092169216919091179055611b97806100a26000396000f3fe6080604052600436106101405760003560e01c80639da62f7f116100b6578063e04878da1161006f578063e04878da1461047e578063e8f4445914610493578063f10b71f3146104a8578063f4bdffa7146104bd578063f851a440146104d2578063fc9f213a146104e757610140565b80639da62f7f146103be5780639f678cca146103d3578063a9e75723146103e8578063c6a6bfb1146103fd578063c978306f14610412578063d3ec44a31461044557610140565b80632678224711610108578063267822471461026257806330f1ebb91461027757806339f45d631461028c5780634079141c146102a157806345d51ba5146102b657806362dc268c146102f457610140565b8063025abd58146101455780630a9e1180146101d25780631d32138f146101e75780631d504dc614610218578063213d832a1461024d575b600080fd5b34801561015157600080fd5b506101c06004803603602081101561016857600080fd5b810190602081018135600160201b81111561018257600080fd5b82018360208201111561019457600080fd5b803590602001918460018302840111600160201b831117156101b557600080fd5b509092509050610511565b60408051918252519081900360200190f35b3480156101de57600080fd5b506101c0610543565b3480156101f357600080fd5b506101fc610549565b604080516001600160a01b039092168252519081900360200190f35b34801561022457600080fd5b5061024b6004803603602081101561023b57600080fd5b50356001600160a01b0316610558565b005b34801561025957600080fd5b506101c06106b7565b34801561026e57600080fd5b506101fc6106bd565b34801561028357600080fd5b506101c06106cc565b34801561029857600080fd5b506101c06106d2565b3480156102ad57600080fd5b506101fc6106d9565b3480156102c257600080fd5b506102e0600480360360208110156102d957600080fd5b50356106e8565b604080519115158252519081900360200190f35b6102e06004803603608081101561030a57600080fd5b6001600160a01b038235169190810190604081016020820135600160201b81111561033457600080fd5b82018360208201111561034657600080fd5b803590602001918460018302840111600160201b8311171561036757600080fd5b91908080601f016020809104026020016040519081016040528093929190818152602001838380828437600092019190915250929550506001600160a01b0383358116945060209093013590921691506107b89050565b3480156103ca57600080fd5b506101c0610fed565b3480156103df57600080fd5b506101c061100a565b3480156103f457600080fd5b506101c0611349565b34801561040957600080fd5b506101c061134f565b34801561041e57600080fd5b506101c06004803603602081101561043557600080fd5b50356001600160a01b03166113d5565b34801561045157600080fd5b506102e06004803603604081101561046857600080fd5b506001600160a01b0381351690602001356113f0565b34801561048a57600080fd5b506101fc611751565b34801561049f57600080fd5b506101c0611760565b3480156104b457600080fd5b506101fc611766565b3480156104c957600080fd5b506101c0611775565b3480156104de57600080fd5b506101fc61177b565b3480156104f357600080fd5b506102e06004803603602081101561050a57600080fd5b503561178a565b600060088383604051808383808284379190910194855250506040519283900360200190922054925050505b92915050565b600f5481565b6002546001600160a01b031681565b806001600160a01b031663f851a4406040518163ffffffff1660e01b815260040160206040518083038186803b15801561059157600080fd5b505afa1580156105a5573d6000803e3d6000fd5b505050506040513d60208110156105bb57600080fd5b50516001600160a01b031633146106035760405162461bcd60e51b8152600401808060200182810382526027815260200180611b1a6027913960400191505060405180910390fd5b806001600160a01b031663c1e803346040518163ffffffff1660e01b8152600401602060405180830381600087803b15801561063e57600080fd5b505af1158015610652573d6000803e3d6000fd5b505050506040513d602081101561066857600080fd5b5051156106b4576040805162461bcd60e51b815260206004820152601560248201527418da185b99d9481b9bdd08185d5d1a1bdc9a5e9959605a1b604482015290519081900360640190fd5b50565b600b5481565b6001546001600160a01b031681565b600e5481565b600c545b90565b6004546001600160a01b031681565b600080546001600160a01b031633146107325760405162461bcd60e51b8152600401808060200182810382526022815260200180611b416022913960400191505060405180910390fd5b60095460ff16826107555761074561100a565b506009805460ff19169055610767565b6009805460ff1916600117905543600a555b60095460408051831515815260ff909216151560208301524382820152517f0261ad1ea0d89ce43687ef439984742c8ffce8a6d523f570807626ebf50f9a4a9181900360600190a150600192915050565b600080546001600160a01b031633146108025760405162461bcd60e51b81526004018080602001828103825260318152602001806119b36031913960400191505060405180910390fd5b604080516370a0823160e01b815230600482015290518691859185916000916001600160a01b038516916370a08231916024808301926020929190829003018186803b15801561085157600080fd5b505afa158015610865573d6000803e3d6000fd5b505050506040513d602081101561087b57600080fd5b5051604080516370a0823160e01b815230600482015290519192506000916001600160a01b038516916370a08231916024808301926020929190829003018186803b1580156108c957600080fd5b505afa1580156108dd573d6000803e3d6000fd5b505050506040513d60208110156108f357600080fd5b50516040518a519192506000916060916001600160a01b0389169134918e91819060208401908083835b6020831061093c5780518252601f19909201916020918201910161091d565b6001836020036101000a03801982511681845116808217855250505050505090500191505060006040518083038185875af1925050503d806000811461099e576040519150601f19603f3d011682016040523d82523d6000602084013e6109a3565b606091505b50915091508115610fd957604080516370a0823160e01b815230600482015290516000916001600160a01b038916916370a0823191602480820192602092909190829003018186803b1580156109f857600080fd5b505afa158015610a0c573d6000803e3d6000fd5b505050506040513d6020811015610a2257600080fd5b5051604080516370a0823160e01b815230600482015290519192506000916001600160a01b038916916370a08231916024808301926020929190829003018186803b158015610a7057600080fd5b505afa158015610a84573d6000803e3d6000fd5b505050506040513d6020811015610a9a57600080fd5b5051604080516395d89b4160e01b815290519192506060916001600160a01b038b16916395d89b41916004808301926000929190829003018186803b158015610ae257600080fd5b505afa158015610af6573d6000803e3d6000fd5b505050506040513d6000823e601f3d908101601f191682016040526020811015610b1f57600080fd5b8101908080516040519392919084600160201b821115610b3e57600080fd5b908301906020820185811115610b5357600080fd5b8251600160201b811182820188101715610b6c57600080fd5b82525081516020918201929091019080838360005b83811015610b99578181015183820152602001610b81565b50505050905090810190601f168015610bc65780820380516001836020036101000a031916815260200191505b5060405250505090506060886001600160a01b03166395d89b416040518163ffffffff1660e01b815260040160006040518083038186803b158015610c0a57600080fd5b505afa158015610c1e573d6000803e3d6000fd5b505050506040513d6000823e601f3d908101601f191682016040526020811015610c4757600080fd5b8101908080516040519392919084600160201b821115610c6657600080fd5b908301906020820185811115610c7b57600080fd5b8251600160201b811182820188101715610c9457600080fd5b82525081516020918201929091019080838360005b83811015610cc1578181015183820152602001610ca9565b50505050905090810190601f168015610cee5780820380516001836020036101000a031916815260200191505b506040525050509050836008836040518082805190602001908083835b60208310610d2a5780518252601f199092019160209182019101610d0b565b51815160209384036101000a6000190180199092169116179052920194855250604051938490038101842094909455505082518592600892859290918291908401908083835b60208310610d8f5780518252601f199092019160209182019101610d70565b6001836020036101000a0380198251168184511680821785525050505050509050019150509081526020016040518091039020819055508d6001600160a01b03167ff3a46e8693715cfe1d857bbd91b1db706abccf1676a6709cbb9711e35cf1e76a838a876040518080602001848152602001838152602001828103825285818151815260200191508051906020019080838360005b83811015610e3d578181015183820152602001610e25565b50505050905090810190601f168015610e6a5780820380516001836020036101000a031916815260200191505b5094505050505060405180910390a28c6001600160a01b03167f517af3b5a47b4be049247f66ec54219095ff884acd2c7533991d33bcb302b9468289866040518080602001848152602001838152602001828103825285818151815260200191508051906020019080838360005b83811015610ef0578181015183820152602001610ed8565b50505050905090810190601f168015610f1d5780820380516001836020036101000a031916815260200191505b5094505050505060405180910390a27fdcfa816c675129132906d878736fcdb3261d869fd69cdeae5db3bef320f09e57856040518080602001828103825283818151815260200191508051906020019080838360005b83811015610f8b578181015183820152602001610f73565b50505050905090810190601f168015610fb85780820380516001836020036101000a031916815260200191505b509250505060405180910390a160019b505050505050505050505050610fe5565b60009750505050505050505b949350505050565b60095460009060ff161561100457506006546106d6565b50600090565b60095460009060ff16611064576040805162461bcd60e51b815260206004820152601e60248201527f447269702069732063757272656e746c79206e6f7420616c6c6f7765642e0000604482015290519081900360640190fd5b60048054604080516370a0823160e01b81523093810193909352516001600160a01b039091169160009183916370a08231916024808301926020929190829003018186803b1580156110b557600080fd5b505afa1580156110c9573d6000803e3d6000fd5b505050506040513d60208110156110df57600080fd5b5051600654600a5460408051808201909152601281527164726970546f74616c206f766572666c6f7760701b6020820152929350439260009261112792909190850390611839565b9050600061113584836118ec565b9050836111735760405162461bcd60e51b8152600401808060200182810382526034815260200180611a746034913960400191505060405180910390fd5b6005546040805163a9059cbb60e01b81526001600160a01b0392831660048201526024810184905290519187169163a9059cbb916044808201926020929091908290030181600087803b1580156111c957600080fd5b505af11580156111dd573d6000803e3d6000fd5b505050506040513d60208110156111f357600080fd5b5051611246576040805162461bcd60e51b815260206004820152601e60248201527f546865207472616e7366657220646964206e6f7420636f6d706c6574652e0000604482015290519081900360640190fd5b600a839055600b819055600c546040805180820190915260088152674f766572666c6f7760c01b602082015261127f9082908490611903565b600c55604080516370a0823160e01b815230600482015290516001600160a01b038816916370a08231916024808301926020929190829003018186803b1580156112c857600080fd5b505afa1580156112dc573d6000803e3d6000fd5b505050506040513d60208110156112f257600080fd5b5051600b54600c5460408051848152602081019390935282810191909152519196507f88c82e38afdaf3a06d6bfa23669136cd3827d85c5cc637e43a1b3d7a42a3df19919081900360600190a15094505050505090565b600d5481565b60048054604080516370a0823160e01b81523093810193909352516000926001600160a01b0390921691839183916370a08231916024808301926020929190829003018186803b1580156113a257600080fd5b505afa1580156113b6573d6000803e3d6000fd5b505050506040513d60208110156113cc57600080fd5b50519250505090565b6001600160a01b031660009081526007602052604090205490565b600080546001600160a01b0316331461143a5760405162461bcd60e51b81526004018080602001828103825260308152602001806119e46030913960400191505060405180910390fd5b600d54821061147a5760405162461bcd60e51b8152600401808060200182810382526036815260200180611a3e6036913960400191505060405180910390fd5b600043905060006114af82600f5460405180604001604052806009815260200168756e646572666c6f7760b81b815250611958565b9050600e5481116114f15760405162461bcd60e51b8152600401808060200182810382526025815260200180611aa86025913960400191505060405180910390fd5b60048054604080516370a0823160e01b81523093810193909352516001600160a01b039091169160009183916370a08231916024808301926020929190829003018186803b15801561154257600080fd5b505afa158015611556573d6000803e3d6000fd5b505050506040513d602081101561156c57600080fd5b505190508581116115ae5760405162461bcd60e51b815260040180806020018281038252604d815260200180611acd604d913960600191505060405180910390fd5b816001600160a01b031663a9059cbb88886040518363ffffffff1660e01b815260040180836001600160a01b03166001600160a01b0316815260200182815260200192505050602060405180830381600087803b15801561160e57600080fd5b505af1158015611622573d6000803e3d6000fd5b505050506040513d602081101561163857600080fd5b505161168b576040805162461bcd60e51b815260206004820152601e60248201527f546865207472616e7366657220646964206e6f7420636f6d706c6574652e0000604482015290519081900360640190fd5b600060076000896001600160a01b03166001600160a01b0316815260200190815260200160002054905060006116e28289604051806040016040528060088152602001674f766572666c6f7760c01b815250611903565b6001600160a01b038a1660008181526007602090815260409182902084905581518c81529081018490524381830152905192935090917fffb45b7680226dc3f522b7d8733ee7f564ef6bf960f615b1a4b374f657835be69181900360600190a250600198975050505050505050565b6005546001600160a01b031681565b600a5481565b6003546001600160a01b031681565b600c5481565b6000546001600160a01b031681565b600080546001600160a01b031633146117d45760405162461bcd60e51b815260040180806020018281038252602a815260200180611a14602a913960400191505060405180910390fd5b60095460ff16156117e9576117e761100a565b505b60068054908390556040805182815260208101859052438183015290517ffdae2dcb1e1b77575f340ec7f2f4e331dbbc7ac9a0e587f6333c51d253abaa429181900360600190a150600192915050565b600083611848575060006118e5565b8383028385828161185557fe5b041483906118e15760405162461bcd60e51b81526004018080602001828103825283818151815260200191508051906020019080838360005b838110156118a657818101518382015260200161188e565b50505050905090810190601f1680156118d35780820380516001836020036101000a031916815260200191505b509250505060405180910390fd5b5090505b9392505050565b60008183116118fc57508161053d565b508061053d565b600083830182858210156118e15760405162461bcd60e51b81526020600482018181528351602484015283519092839260449091019190850190808383600083156118a657818101518382015260200161188e565b600081848411156119aa5760405162461bcd60e51b81526020600482018181528351602484015283519092839260449091019190850190808383600083156118a657818101518382015260200161188e565b50505090039056fe4f6e6c792041646d696e2063616e2063616c6c20546f6b656e20537761702046756e6374696f6e206f6e203078204150494f6e6c792041646d696e2063616e207472616e7366657220746f6b656e732066726f6d207468652054726561737572794472697020726174652063616e206f6e6c79206265206368616e676564206279207468652041646d696e54686520616d6f756e742070726f76696465642069732067726561746572207468616e2074686520616d6f756e7420616c6c6f7765645468652074726561737572792063757272656e746c7920646f6573206e6f74206861766520616e79205349474820746f6b656e7354686520636f6f6c20646f776e20706572696f64206973206e6f7420636f6d706c657465645468652063757272656e74207472656173757279277320534947482062616c616e6365206973206c657373207468616e2074686520616d6f756e7420746f206265207472616e736665727265646f6e6c7920756e6974726f6c6c65722061646d696e2063616e206368616e676520627261696e734f6e6c792041646d696e2063616e20626567696e2f73746f70204472697070696e67a265627a7a723158202ae72bcbe23b6efda898d19fadabede7622004ee1fd0b11a721b283507b44c0264736f6c63430005100032",
  "source": "pragma solidity ^0.5.16;\n\n// interfaces\nimport \"@0x/contracts-exchange-forwarder/contracts/src/interfaces/IForwarder.sol\";\nimport \"../openzeppelin/EIP20Interface.sol\";\nimport \"./TreasuryCore.sol\";\nimport \"./TreasuryStorage.sol\";\nimport \"./TreasuryInterface.sol\";\n/**\n * @title SighFinance's Treasury Contract\n * @author SighFinance\n */\ncontract Treasury is TreasuryInterfaceV1,TreasuryV1Storage   {\n    \n    bool isDripAllowed = false;\n    uint public lastDripBlockNumber; \n    uint public recentlyDrippedAmount;\n    uint public totalDrippedAmount;\n\n    uint public maxTransferAmount = 500000 * 10**18;\n    uint public coolDownPeriod = 1;\n    uint public prevTransferBlock;\n\n    /// @notice Emitted when an amount is dripped to the Sightroller\n    event AmountDripped(uint currentBalance , uint AmountDripped, uint totalAmountDripped ); \n\n    event DripRateChanged(uint prevDripRate , uint curDripRate,  uint blockNumber ); \n\n    event DripAllowedChanged(bool prevDripAllowed , bool newDripAllowed, uint blockNumber); \n\n    event SIGHTransferred(address indexed TargetAddress, uint amountTransferred, uint totalAmountTransferred, uint blockNumber);\n\n    event TokensBought( address indexed symbol, string symbolName, uint prev_balance, uint new_balance );\n\n    event TokensSold( address indexed symbol, string symbolName, uint prev_balance, uint new_balance );\n\n    event TokenSwapTransactionData( bytes data );\n\n    /**\n      * @notice Constructor\n      * @param sigh_token_ The SIGH Token Address\n      * @param sightroller_Address_ The Sightroller Contract Address \n    */    \n    constructor (EIP20Interface sigh_token_, address sightroller_Address_ ) public {\n        admin = msg.sender;\n        sigh_token = sigh_token_;\n        sightroller_address = sightroller_Address_;\n    }\n\n    /**\n      * @notice Switch to ON/OFF Dripping\n      * @param val O to Stop Dripping. Any other value to inititate Dripping.\n      * @return returns a Boolean True is Successful \n    */    \n  function ChangeIsDripAllowed(uint val) public returns (bool) {\n    require(msg.sender == admin,'Only Admin can begin/stop Dripping');\n    bool prevDripAllowed = isDripAllowed;\n    if (val == 0) {\n        drip();\n        isDripAllowed = false;\n    }\n    else {\n        isDripAllowed = true;\n        lastDripBlockNumber = block.number;\n    }\n    emit DripAllowedChanged(prevDripAllowed, isDripAllowed, block.number );\n    return true;      \n  }\n\n    /**\n      * @notice To change the Current Drip Rate\n      * @param dripRate_ New Drip Rate\n      * @return returns a Boolean True is Successful \n    */    \n    function changeDripRate (uint dripRate_) public returns (bool) {\n        require(admin == msg.sender,\"Drip rate can only be changed by the Admin\");\n        if (isDripAllowed) {\n        drip();\n        }\n        uint prevDripRate = dripRate;\n        dripRate = dripRate_;\n        emit DripRateChanged(prevDripRate , dripRate, block.number);\n        return true;\n  }\n\n\n    /**\n      * @notice Drips the SIGH Tokens to the SIGHtroller\n      * @return returns the Dripped Amount\n    */    \n    function drip() public returns (uint) {\n        require(isDripAllowed, 'Drip is currently not allowed.');\n\n        EIP20Interface token_ = sigh_token;\n\n        uint treasuryBalance_ = token_.balanceOf(address(this)); // get current SIGH balance\n        uint blockNumber_ = block.number;\n        uint deltaDrip_ = mul(dripRate, blockNumber_ - lastDripBlockNumber, \"dripTotal overflow\");\n        uint toDrip_ = min(treasuryBalance_, deltaDrip_);\n        \n        require(treasuryBalance_ != 0, 'The treasury currently does not have any SIGH tokens' );\n        require(token_.transfer(sightroller_address, toDrip_), 'The transfer did not complete.' );\n        \n        lastDripBlockNumber = blockNumber_; // setting the block number when the Drip is made\n        recentlyDrippedAmount = toDrip_;\n        uint prevTotalDrippedAmount = totalDrippedAmount;\n        totalDrippedAmount = add(prevTotalDrippedAmount,toDrip_,\"Overflow\");\n        treasuryBalance_ = token_.balanceOf(address(this)); // get current balance\n\n        emit AmountDripped( treasuryBalance_, recentlyDrippedAmount , totalDrippedAmount ); \n        \n        return toDrip_;\n    }\n\n\n    /**\n      * @notice Transfers the SIGH Tokens to the Target Address\n      * @param target_ Address to which the amount is to be transferred\n      * @param amount The Amount to be transferred\n      * @return returns the Dripped Amount\n    */    \n    function transferSighTo(address target_, uint amount) public returns (bool) {\n        require (msg.sender == admin, \"Only Admin can transfer tokens from the Treasury\");\n        require (amount < maxTransferAmount, \"The amount provided is greater than the amount allowed\");\n\n        uint blockNumber = block.number;\n        uint dif = sub(blockNumber, prevTransferBlock, 'underflow');\n        require(dif > coolDownPeriod, 'The cool down period is not completed');\n\n        EIP20Interface token_ = sigh_token;\n\n        uint treasuryBalance_ = token_.balanceOf(address(this)); // get current balance\n        require(treasuryBalance_ > amount , \"The current treasury's SIGH balance is less than the amount to be transferred\" );\n        require(token_.transfer(target_, amount), 'The transfer did not complete.' );\n\n        uint prevTransferAmount = SIGH_Transferred[target_];\n        uint totalTransferAmount = add(prevTransferAmount,amount,\"Overflow\");\n        SIGH_Transferred[target_] = totalTransferAmount;\n\n        emit SIGHTransferred( target_ , amount, totalTransferAmount,  block.number );\n        return true;\n    }\n\n    function swapTokensUsingOxAPI( address to, bytes memory callDataHex, address token_bought, address token_sold ) public payable returns (bool) {\n        require(msg.sender == admin, 'Only Admin can call Token Swap Function on 0x API');\n        IForwarder forwarder;\n        forwarder = IForwarder(to);\n        \n        EIP20Interface bought_token;\n        bought_token = EIP20Interface(token_bought);\n\n        EIP20Interface sold_token;\n        sold_token = EIP20Interface(token_sold);\n\n        uint prev_bought_token_amount = bought_token.balanceOf(address(this));\n        uint prev_sold_token_amount = sold_token.balanceOf(address(this));\n\n\n        (bool success, bytes memory _data) = address(forwarder).call.value(msg.value)(callDataHex);\n\n        if (success) {\n            uint new_bought_token_amount = bought_token.balanceOf(address(this));\n            uint new_sold_token_amount = sold_token.balanceOf(address(this));\n            string memory bought_symbol = bought_token.symbol();\n            string memory sold_symbol = sold_token.symbol();\n\n            TokenBalances[bought_symbol] = new_bought_token_amount;\n            TokenBalances[sold_symbol] = new_sold_token_amount;\n\n            emit TokensBought( token_bought, bought_symbol, prev_bought_token_amount, new_bought_token_amount );\n            emit TokensSold( token_sold, sold_symbol, prev_sold_token_amount, new_sold_token_amount );   \n            emit TokenSwapTransactionData( _data );\n            return true;         \n        }\n\n        return false;\n    }\n\n    function getSIGHBalance() external view returns (uint) {\n        EIP20Interface token_ = sigh_token;\n        uint treasuryBalance_ = token_.balanceOf(address(this)); // get current SIGH balance\n        return treasuryBalance_;\n    }\n\n    function getTokenBalance(string calldata symbol) external view returns (uint) {\n        return TokenBalances[symbol];\n    }\n\n    function getAmountTransferred(address target) external view returns (uint) {\n        return SIGH_Transferred[target];\n    }\n\n    function getDripRate() external view returns (uint) {\n        if (isDripAllowed) {\n            return dripRate;\n        }\n        return 0;\n    }\n\n    function getTotalDrippedAmount() external view returns (uint) {\n        return totalDrippedAmount;\n    }\n\n      // TreasuryCore is the storage Implementation (Function calls get redirected here from there)\n  // When new Functionality contract is being initiated (Treasury Impl Contract is updated), we use this function\n  // It is used to make the new implementation to be accepted by calling a function from TreasuryCore.\n    function _become(TreasuryCore treasuryCoreAddress) public {\n        require(msg.sender == treasuryCoreAddress.admin(), \"only unitroller admin can change brains\");\n        require(treasuryCoreAddress._acceptImplementation() == 0, \"change not authorized\");\n    }\n\n\n  /* Internal helper functions for safe math */\n\n    function add(uint a, uint b, string memory errorMessage) internal pure returns (uint) {\n        uint c = a + b;\n        require(c >= a, errorMessage);\n        return c;\n    }\n\n    function sub(uint a, uint b, string memory errorMessage) internal pure returns (uint) {\n        require(b <= a, errorMessage);\n        uint c = a - b;\n        return c;\n    }\n\n    function mul(uint a, uint b, string memory errorMessage) internal pure returns (uint) {\n        if (a == 0) {\n        return 0;\n        }\n        uint c = a * b;\n        require(c / a == b, errorMessage);\n        return c;\n    }\n\n    function min(uint a, uint b) internal pure returns (uint) {\n        if (a <= b) {\n        return a;\n        } else {\n        return b;\n        }\n    }\n}",
  "sourcePath": "/Users/apple/Desktop/GITCOIN/Sigh_Finance/SighFinanceContracts/contracts/Treasury/TreasuryV1Impl.sol",
  "compiler": {
    "name": "solc",
    "version": "0.5.16+commit.9c3226ce.Emscripten.clang"
  },
  "schemaVersion": "3.2.4",
  "updatedAt": "2020-10-12T05:49:54.850Z",
  "devdoc": {
    "author": "SighFinance",
    "methods": {
      "ChangeIsDripAllowed(uint256)": {
        "params": {
          "val": "O to Stop Dripping. Any other value to inititate Dripping."
        },
        "return": "returns a Boolean True is Successful "
      },
      "changeDripRate(uint256)": {
        "params": {
          "dripRate_": "New Drip Rate"
        },
        "return": "returns a Boolean True is Successful "
      },
      "constructor": {
        "params": {
          "sigh_token_": "The SIGH Token Address",
          "sightroller_Address_": "The Sightroller Contract Address "
        }
      },
      "drip()": {
        "return": "returns the Dripped Amount"
      },
      "transferSighTo(address,uint256)": {
        "params": {
          "amount": "The Amount to be transferred",
          "target_": "Address to which the amount is to be transferred"
        },
        "return": "returns the Dripped Amount"
      }
    },
    "title": "SighFinance's Treasury Contract"
  },
  "userdoc": {
    "methods": {
      "ChangeIsDripAllowed(uint256)": {
        "notice": "Switch to ON/OFF Dripping"
      },
      "changeDripRate(uint256)": {
        "notice": "To change the Current Drip Rate"
      },
      "constructor": "Constructor",
      "drip()": {
        "notice": "Drips the SIGH Tokens to the SIGHtroller"
      },
      "transferSighTo(address,uint256)": {
        "notice": "Transfers the SIGH Tokens to the Target Address"
      }
    }
  }
}