{
  "contractName": "Treasury",
  "abi": [
    {
      "anonymous": false,
      "inputs": [
        {
          "indexed": false,
          "internalType": "address",
          "name": "targetAddress",
          "type": "address"
        },
        {
          "indexed": false,
          "internalType": "address",
          "name": "instrumentBeingDripped",
          "type": "address"
        },
        {
          "indexed": false,
          "internalType": "uint256",
          "name": "currentBalance",
          "type": "uint256"
        },
        {
          "indexed": false,
          "internalType": "uint256",
          "name": "AmountDripped",
          "type": "uint256"
        },
        {
          "indexed": false,
          "internalType": "uint256",
          "name": "totalAmountDripped",
          "type": "uint256"
        }
      ],
      "name": "AmountDripped",
      "type": "event"
    },
    {
      "anonymous": false,
      "inputs": [
        {
          "indexed": false,
          "internalType": "bool",
          "name": "prevDripAllowed",
          "type": "bool"
        },
        {
          "indexed": false,
          "internalType": "bool",
          "name": "newDripAllowed",
          "type": "bool"
        },
        {
          "indexed": false,
          "internalType": "uint256",
          "name": "blockNumber",
          "type": "uint256"
        }
      ],
      "name": "DripAllowedChanged",
      "type": "event"
    },
    {
      "anonymous": false,
      "inputs": [
        {
          "indexed": false,
          "internalType": "uint256",
          "name": "prevDripSpeed",
          "type": "uint256"
        },
        {
          "indexed": false,
          "internalType": "uint256",
          "name": "curDripSpeed",
          "type": "uint256"
        },
        {
          "indexed": false,
          "internalType": "uint256",
          "name": "blockNumber",
          "type": "uint256"
        }
      ],
      "name": "DripSpeedChanged",
      "type": "event"
    },
    {
      "anonymous": false,
      "inputs": [
        {
          "indexed": false,
          "internalType": "address",
          "name": "instrument",
          "type": "address"
        },
        {
          "indexed": false,
          "internalType": "string",
          "name": "name",
          "type": "string"
        },
        {
          "indexed": false,
          "internalType": "uint256",
          "name": "balance",
          "type": "uint256"
        },
        {
          "indexed": false,
          "internalType": "uint256",
          "name": "totalAmountDripped",
          "type": "uint256"
        },
        {
          "indexed": false,
          "internalType": "uint256",
          "name": "totalAmountTransferred",
          "type": "uint256"
        }
      ],
      "name": "InstrumentInitialized",
      "type": "event"
    },
    {
      "anonymous": false,
      "inputs": [
        {
          "indexed": false,
          "internalType": "bool",
          "name": "prevBurnAllowed",
          "type": "bool"
        },
        {
          "indexed": false,
          "internalType": "bool",
          "name": "newBurnAllowed",
          "type": "bool"
        },
        {
          "indexed": false,
          "internalType": "uint256",
          "name": "blockNumber",
          "type": "uint256"
        }
      ],
      "name": "SIGHBurnAllowedChanged",
      "type": "event"
    },
    {
      "anonymous": false,
      "inputs": [
        {
          "indexed": false,
          "internalType": "uint256",
          "name": "prevSpeed",
          "type": "uint256"
        },
        {
          "indexed": false,
          "internalType": "uint256",
          "name": "newSpeed",
          "type": "uint256"
        },
        {
          "indexed": false,
          "internalType": "uint256",
          "name": "blockNumber",
          "type": "uint256"
        }
      ],
      "name": "SIGHBurnSpeedChanged",
      "type": "event"
    },
    {
      "anonymous": false,
      "inputs": [
        {
          "indexed": true,
          "internalType": "address",
          "name": "TargetAddress",
          "type": "address"
        },
        {
          "indexed": false,
          "internalType": "uint256",
          "name": "amountTransferred",
          "type": "uint256"
        },
        {
          "indexed": false,
          "internalType": "uint256",
          "name": "blockNumber",
          "type": "uint256"
        }
      ],
      "name": "SIGHTransferred",
      "type": "event"
    },
    {
      "anonymous": false,
      "inputs": [
        {
          "indexed": false,
          "internalType": "address",
          "name": "msgSender",
          "type": "address"
        },
        {
          "indexed": false,
          "internalType": "address",
          "name": "addressesProvider",
          "type": "address"
        },
        {
          "indexed": false,
          "internalType": "address",
          "name": "SIGH",
          "type": "address"
        },
        {
          "indexed": false,
          "internalType": "address",
          "name": "sighDistributionHandler",
          "type": "address"
        }
      ],
      "name": "SIGHTreasuryInitialized",
      "type": "event"
    },
    {
      "anonymous": false,
      "inputs": [
        {
          "indexed": false,
          "internalType": "address",
          "name": "sigh_Address",
          "type": "address"
        },
        {
          "indexed": false,
          "internalType": "uint256",
          "name": "amount",
          "type": "uint256"
        },
        {
          "indexed": false,
          "internalType": "uint256",
          "name": "totalSIGHBurned",
          "type": "uint256"
        },
        {
          "indexed": false,
          "internalType": "uint256",
          "name": "remaining_balance",
          "type": "uint256"
        },
        {
          "indexed": false,
          "internalType": "uint256",
          "name": "blockNumber",
          "type": "uint256"
        }
      ],
      "name": "SIGH_Burned",
      "type": "event"
    },
    {
      "anonymous": false,
      "inputs": [
        {
          "indexed": false,
          "internalType": "bytes",
          "name": "data",
          "type": "bytes"
        }
      ],
      "name": "TokenSwapTransactionData",
      "type": "event"
    },
    {
      "anonymous": false,
      "inputs": [
        {
          "indexed": true,
          "internalType": "address",
          "name": "instrument_address",
          "type": "address"
        },
        {
          "indexed": false,
          "internalType": "uint256",
          "name": "prev_balance",
          "type": "uint256"
        },
        {
          "indexed": false,
          "internalType": "uint256",
          "name": "amount",
          "type": "uint256"
        },
        {
          "indexed": false,
          "internalType": "uint256",
          "name": "new_balance",
          "type": "uint256"
        }
      ],
      "name": "TokensBought",
      "type": "event"
    },
    {
      "anonymous": false,
      "inputs": [
        {
          "indexed": true,
          "internalType": "address",
          "name": "instrument_address",
          "type": "address"
        },
        {
          "indexed": false,
          "internalType": "uint256",
          "name": "prev_balance",
          "type": "uint256"
        },
        {
          "indexed": false,
          "internalType": "uint256",
          "name": "amount",
          "type": "uint256"
        },
        {
          "indexed": false,
          "internalType": "uint256",
          "name": "new_balance",
          "type": "uint256"
        }
      ],
      "name": "TokensSold",
      "type": "event"
    },
    {
      "anonymous": false,
      "inputs": [
        {
          "indexed": false,
          "internalType": "address",
          "name": "prevInstrument",
          "type": "address"
        },
        {
          "indexed": false,
          "internalType": "address",
          "name": "newToken",
          "type": "address"
        },
        {
          "indexed": false,
          "internalType": "uint256",
          "name": "blockNumber",
          "type": "uint256"
        }
      ],
      "name": "instrumentBeingDistributedChanged",
      "type": "event"
    },
    {
      "anonymous": false,
      "inputs": [
        {
          "indexed": false,
          "internalType": "uint256",
          "name": "prevmaxTransferAmount",
          "type": "uint256"
        },
        {
          "indexed": false,
          "internalType": "uint256",
          "name": "newmaxTransferAmount",
          "type": "uint256"
        }
      ],
      "name": "maxTransferAmountUpdated",
      "type": "event"
    },
    {
      "constant": true,
      "inputs": [],
      "name": "periodLength",
      "outputs": [
        {
          "internalType": "uint256",
          "name": "",
          "type": "uint256"
        }
      ],
      "payable": false,
      "stateMutability": "view",
      "type": "function"
    },
    {
      "constant": false,
      "inputs": [
        {
          "internalType": "contract GlobalAddressesProvider",
          "name": "addressesProvider_",
          "type": "address"
        }
      ],
      "name": "initialize",
      "outputs": [],
      "payable": false,
      "stateMutability": "nonpayable",
      "type": "function"
    },
    {
      "constant": false,
      "inputs": [],
      "name": "refreshConfig",
      "outputs": [
        {
          "internalType": "bool",
          "name": "",
          "type": "bool"
        }
      ],
      "payable": false,
      "stateMutability": "nonpayable",
      "type": "function"
    },
    {
      "constant": false,
      "inputs": [
        {
          "internalType": "uint256",
          "name": "isAllowed",
          "type": "uint256"
        }
      ],
      "name": "changeSIGHBurnAllowed",
      "outputs": [
        {
          "internalType": "bool",
          "name": "",
          "type": "bool"
        }
      ],
      "payable": false,
      "stateMutability": "nonpayable",
      "type": "function"
    },
    {
      "constant": false,
      "inputs": [
        {
          "internalType": "uint256",
          "name": "newBurnSpeed",
          "type": "uint256"
        }
      ],
      "name": "updateSIGHBurnSpeed",
      "outputs": [
        {
          "internalType": "bool",
          "name": "",
          "type": "bool"
        }
      ],
      "payable": false,
      "stateMutability": "nonpayable",
      "type": "function"
    },
    {
      "constant": false,
      "inputs": [],
      "name": "burnSIGHTokens",
      "outputs": [
        {
          "internalType": "uint256",
          "name": "",
          "type": "uint256"
        }
      ],
      "payable": false,
      "stateMutability": "nonpayable",
      "type": "function"
    },
    {
      "constant": false,
      "inputs": [
        {
          "internalType": "address",
          "name": "targetAddress",
          "type": "address"
        },
        {
          "internalType": "address",
          "name": "instrumentToBeDistributed",
          "type": "address"
        },
        {
          "internalType": "uint256",
          "name": "distributionSpeed",
          "type": "uint256"
        }
      ],
      "name": "initializeInstrumentDistribution",
      "outputs": [
        {
          "internalType": "bool",
          "name": "",
          "type": "bool"
        }
      ],
      "payable": false,
      "stateMutability": "nonpayable",
      "type": "function"
    },
    {
      "constant": false,
      "inputs": [
        {
          "internalType": "address",
          "name": "instrumentToDrip",
          "type": "address"
        }
      ],
      "name": "changeInstrumentBeingDripped",
      "outputs": [
        {
          "internalType": "bool",
          "name": "",
          "type": "bool"
        }
      ],
      "payable": false,
      "stateMutability": "nonpayable",
      "type": "function"
    },
    {
      "constant": false,
      "inputs": [
        {
          "internalType": "uint256",
          "name": "DripSpeed_",
          "type": "uint256"
        }
      ],
      "name": "updateDripSpeed",
      "outputs": [
        {
          "internalType": "bool",
          "name": "",
          "type": "bool"
        }
      ],
      "payable": false,
      "stateMutability": "nonpayable",
      "type": "function"
    },
    {
      "constant": false,
      "inputs": [],
      "name": "resetInstrumentDistribution",
      "outputs": [
        {
          "internalType": "bool",
          "name": "",
          "type": "bool"
        }
      ],
      "payable": false,
      "stateMutability": "nonpayable",
      "type": "function"
    },
    {
      "constant": false,
      "inputs": [],
      "name": "drip",
      "outputs": [
        {
          "internalType": "uint256",
          "name": "",
          "type": "uint256"
        }
      ],
      "payable": false,
      "stateMutability": "nonpayable",
      "type": "function"
    },
    {
      "constant": false,
      "inputs": [
        {
          "internalType": "address",
          "name": "instrument",
          "type": "address"
        }
      ],
      "name": "initializeInstrumentState",
      "outputs": [
        {
          "internalType": "bool",
          "name": "",
          "type": "bool"
        }
      ],
      "payable": false,
      "stateMutability": "nonpayable",
      "type": "function"
    },
    {
      "constant": false,
      "inputs": [
        {
          "internalType": "address",
          "name": "instrument_address",
          "type": "address"
        }
      ],
      "name": "updateInstrumentBalance",
      "outputs": [
        {
          "internalType": "uint256",
          "name": "",
          "type": "uint256"
        }
      ],
      "payable": false,
      "stateMutability": "nonpayable",
      "type": "function"
    },
    {
      "constant": false,
      "inputs": [
        {
          "internalType": "address",
          "name": "allowanceTarget",
          "type": "address"
        },
        {
          "internalType": "address payable",
          "name": "to",
          "type": "address"
        },
        {
          "internalType": "bytes",
          "name": "callDataHex",
          "type": "bytes"
        },
        {
          "internalType": "address",
          "name": "token_bought",
          "type": "address"
        },
        {
          "internalType": "address",
          "name": "token_sold",
          "type": "address"
        },
        {
          "internalType": "uint256",
          "name": "sellAmount",
          "type": "uint256"
        }
      ],
      "name": "swapTokensUsingOxAPI",
      "outputs": [
        {
          "internalType": "bool",
          "name": "",
          "type": "bool"
        }
      ],
      "payable": true,
      "stateMutability": "payable",
      "type": "function"
    },
    {
      "constant": false,
      "inputs": [
        {
          "internalType": "address",
          "name": "target_",
          "type": "address"
        },
        {
          "internalType": "uint256",
          "name": "amount",
          "type": "uint256"
        }
      ],
      "name": "transferSighTo",
      "outputs": [
        {
          "internalType": "uint256",
          "name": "",
          "type": "uint256"
        }
      ],
      "payable": false,
      "stateMutability": "nonpayable",
      "type": "function"
    },
    {
      "constant": true,
      "inputs": [
        {
          "internalType": "address",
          "name": "instrument",
          "type": "address"
        }
      ],
      "name": "getInstrumentState",
      "outputs": [
        {
          "internalType": "bool",
          "name": "initialized",
          "type": "bool"
        },
        {
          "internalType": "string",
          "name": "name",
          "type": "string"
        },
        {
          "internalType": "uint256",
          "name": "balance",
          "type": "uint256"
        },
        {
          "internalType": "uint256",
          "name": "totalAmountDripped",
          "type": "uint256"
        },
        {
          "internalType": "uint256",
          "name": "totalAmountTransferred",
          "type": "uint256"
        }
      ],
      "payable": false,
      "stateMutability": "view",
      "type": "function"
    },
    {
      "constant": true,
      "inputs": [],
      "name": "getAllInstruments",
      "outputs": [
        {
          "internalType": "address[]",
          "name": "",
          "type": "address[]"
        }
      ],
      "payable": false,
      "stateMutability": "view",
      "type": "function"
    },
    {
      "constant": true,
      "inputs": [],
      "name": "totalInstruments",
      "outputs": [
        {
          "internalType": "uint256",
          "name": "",
          "type": "uint256"
        }
      ],
      "payable": false,
      "stateMutability": "view",
      "type": "function"
    },
    {
      "constant": true,
      "inputs": [
        {
          "internalType": "address",
          "name": "instrument_address",
          "type": "address"
        }
      ],
      "name": "getInstrumentBalance",
      "outputs": [
        {
          "internalType": "uint256",
          "name": "",
          "type": "uint256"
        }
      ],
      "payable": false,
      "stateMutability": "view",
      "type": "function"
    },
    {
      "constant": true,
      "inputs": [
        {
          "internalType": "address",
          "name": "instrument_address",
          "type": "address"
        }
      ],
      "name": "getTotalDrippedAmount",
      "outputs": [
        {
          "internalType": "uint256",
          "name": "",
          "type": "uint256"
        }
      ],
      "payable": false,
      "stateMutability": "view",
      "type": "function"
    },
    {
      "constant": true,
      "inputs": [
        {
          "internalType": "address",
          "name": "instrument_address",
          "type": "address"
        }
      ],
      "name": "getTotalTransferredAmount",
      "outputs": [
        {
          "internalType": "uint256",
          "name": "",
          "type": "uint256"
        }
      ],
      "payable": false,
      "stateMutability": "view",
      "type": "function"
    },
    {
      "constant": true,
      "inputs": [],
      "name": "getSIGHBalance",
      "outputs": [
        {
          "internalType": "uint256",
          "name": "",
          "type": "uint256"
        }
      ],
      "payable": false,
      "stateMutability": "view",
      "type": "function"
    },
    {
      "constant": true,
      "inputs": [],
      "name": "getDistributionState",
      "outputs": [
        {
          "internalType": "bool",
          "name": "isAllowed",
          "type": "bool"
        },
        {
          "internalType": "address",
          "name": "targetAddress",
          "type": "address"
        },
        {
          "internalType": "address",
          "name": "instrumentBeingDistributed",
          "type": "address"
        },
        {
          "internalType": "uint256",
          "name": "speed",
          "type": "uint256"
        }
      ],
      "payable": false,
      "stateMutability": "view",
      "type": "function"
    },
    {
      "constant": true,
      "inputs": [],
      "name": "isDistributionAllowed",
      "outputs": [
        {
          "internalType": "bool",
          "name": "",
          "type": "bool"
        }
      ],
      "payable": false,
      "stateMutability": "view",
      "type": "function"
    },
    {
      "constant": true,
      "inputs": [],
      "name": "getTargetAddressForDistribution",
      "outputs": [
        {
          "internalType": "address",
          "name": "",
          "type": "address"
        }
      ],
      "payable": false,
      "stateMutability": "view",
      "type": "function"
    },
    {
      "constant": true,
      "inputs": [],
      "name": "getinstrumentBeingDripped",
      "outputs": [
        {
          "internalType": "address",
          "name": "",
          "type": "address"
        }
      ],
      "payable": false,
      "stateMutability": "view",
      "type": "function"
    },
    {
      "constant": true,
      "inputs": [],
      "name": "getDistributionSpeed",
      "outputs": [
        {
          "internalType": "uint256",
          "name": "",
          "type": "uint256"
        }
      ],
      "payable": false,
      "stateMutability": "view",
      "type": "function"
    },
    {
      "constant": true,
      "inputs": [],
      "name": "getBurnState",
      "outputs": [
        {
          "internalType": "bool",
          "name": "isAllowed",
          "type": "bool"
        },
        {
          "internalType": "uint256",
          "name": "burnSpeed",
          "type": "uint256"
        },
        {
          "internalType": "uint256",
          "name": "totalSighBurnt",
          "type": "uint256"
        },
        {
          "internalType": "uint256",
          "name": "sighBalance",
          "type": "uint256"
        }
      ],
      "payable": false,
      "stateMutability": "view",
      "type": "function"
    },
    {
      "constant": true,
      "inputs": [],
      "name": "getBurnSpeed",
      "outputs": [
        {
          "internalType": "uint256",
          "name": "",
          "type": "uint256"
        }
      ],
      "payable": false,
      "stateMutability": "view",
      "type": "function"
    },
    {
      "constant": true,
      "inputs": [],
      "name": "getTotalBurntSigh",
      "outputs": [
        {
          "internalType": "uint256",
          "name": "",
          "type": "uint256"
        }
      ],
      "payable": false,
      "stateMutability": "view",
      "type": "function"
    },
    {
      "constant": true,
      "inputs": [],
      "name": "getCurrentSIGHTransferState",
      "outputs": [
        {
          "internalType": "uint256",
          "name": "maxSIGHSpentLimit",
          "type": "uint256"
        },
        {
          "internalType": "uint256",
          "name": "totalSighTransferredAndTraded",
          "type": "uint256"
        }
      ],
      "payable": false,
      "stateMutability": "view",
      "type": "function"
    },
    {
      "constant": true,
      "inputs": [],
      "name": "blocksRemainingForNextPeriod",
      "outputs": [
        {
          "internalType": "uint256",
          "name": "",
          "type": "uint256"
        }
      ],
      "payable": false,
      "stateMutability": "view",
      "type": "function"
    }
  ],
  "bytecode": "0x60806040526000805534801561001457600080fd5b50613b0c806100246000396000f3fe6080604052600436106101e35760003560e01c8063998e80e611610102578063d2ca211511610095578063e0db071411610064578063e0db07141461075a578063ee56977e1461078d578063f9309e53146107d6578063fc5e11c314610804576101e3565b8063d2ca211514610655578063d3ec44a31461066a578063df28b7f1146106a3578063e0ae645f14610745576101e3565b8063c11b2576116100d1578063c11b2576146105a5578063c4d66de8146105d8578063c699308e1461060d578063c6a6bfb114610640576101e3565b8063998e80e6146104f65780639ee3abea146105335780639f678cca1461055d578063ada9774f14610572576101e3565b80633138a4aa1161017a57806361bbea8a1161014957806361bbea8a146104a257806368fcccde146104b757806377fd1aac146104cc5780637c55ccb3146104e1576101e3565b80633138a4aa1461040b578063325eb3ee146104205780636089fee91461043557806360c659001461045f576101e3565b80631c252db1116101b65780631c252db1146102d85780631f6c08731461031657806324e7e0f4146103e15780632ff76e4c146103f6576101e3565b806301d04224146101e857806302f532191461020f57806304de9fac146102745780630a206f04146102a5575b600080fd5b3480156101f457600080fd5b506101fd610837565b60408051918252519081900360200190f35b34801561021b57600080fd5b5061022461083e565b60408051602080825283518183015283519192839290830191858101910280838360005b83811015610260578181015183820152602001610248565b505050509050019250505060405180910390f35b34801561028057600080fd5b506102896108a0565b604080516001600160a01b039092168252519081900360200190f35b3480156102b157600080fd5b506101fd600480360360208110156102c857600080fd5b50356001600160a01b03166108c6565b3480156102e457600080fd5b50610302600480360360208110156102fb57600080fd5b50356108e8565b604080519115158252519081900360200190f35b34801561032257600080fd5b506103496004803603602081101561033957600080fd5b50356001600160a01b0316610a14565b604051808615151515815260200180602001858152602001848152602001838152602001828103825286818151815260200191508051906020019080838360005b838110156103a257818101518382015260200161038a565b50505050905090810190601f1680156103cf5780820380516001836020036101000a031916815260200191505b50965050505050505060405180910390f35b3480156103ed57600080fd5b506101fd610af0565b34801561040257600080fd5b506101fd610b93565b34801561041757600080fd5b506101fd610b99565b34801561042c57600080fd5b506101fd610bb0565b34801561044157600080fd5b506103026004803603602081101561045857600080fd5b5035610f45565b34801561046b57600080fd5b506103026004803603606081101561048257600080fd5b506001600160a01b038135811691602081013590911690604001356110a1565b3480156104ae57600080fd5b506102896112ca565b3480156104c357600080fd5b506103026112de565b3480156104d857600080fd5b506101fd6112e7565b3480156104ed57600080fd5b506103026112fe565b34801561050257600080fd5b5061050b61141f565b6040805194151585526020850193909352838301919091526060830152519081900360800190f35b34801561053f57600080fd5b506103026004803603602081101561055657600080fd5b50356114bd565b34801561056957600080fd5b506101fd6115cc565b34801561057e57600080fd5b506101fd6004803603602081101561059557600080fd5b50356001600160a01b03166119a0565b3480156105b157600080fd5b50610302600480360360208110156105c857600080fd5b50356001600160a01b0316611a92565b3480156105e457600080fd5b5061060b600480360360208110156105fb57600080fd5b50356001600160a01b0316611f29565b005b34801561061957600080fd5b506101fd6004803603602081101561063057600080fd5b50356001600160a01b0316611fea565b34801561064c57600080fd5b506101fd612008565b34801561066157600080fd5b506101fd61208a565b34801561067657600080fd5b506101fd6004803603604081101561068d57600080fd5b506001600160a01b03813516906020013561208f565b610302600480360360c08110156106b957600080fd5b6001600160a01b0382358116926020810135909116918101906060810160408201356401000000008111156106ed57600080fd5b8201836020820111156106ff57600080fd5b8035906020019184600183028401116401000000008311171561072157600080fd5b91935091506001600160a01b038135811691602081013590911690604001356123dc565b34801561075157600080fd5b50610302612af3565b34801561076657600080fd5b506101fd6004803603602081101561077d57600080fd5b50356001600160a01b0316612c49565b34801561079957600080fd5b506107a2612c67565b6040805194151585526001600160a01b03938416602086015291909216838201526060830191909152519081900360800190f35b3480156107e257600080fd5b506107eb612c8c565b6040805192835260208301919091528051918290030190f35b34801561081057600080fd5b506103026004803603602081101561082757600080fd5b50356001600160a01b0316612c96565b6037545b90565b6060603780548060200260200160405190810160405280929190818152602001828054801561089657602002820191906000526020600020905b81546001600160a01b03168152600190910190602001808311610878575b5050505050905090565b60385460009060ff16156108c057506039546001600160a01b031661083b565b50600090565b6001600160a01b0381166000908152603660205260409020600401545b919050565b6000336001600160a01b0316603560009054906101000a90046001600160a01b03166001600160a01b031663db49224b6040518163ffffffff1660e01b815260040160206040518083038186803b15801561094257600080fd5b505afa158015610956573d6000803e3d6000fd5b505050506040513d602081101561096c57600080fd5b50516001600160a01b0316146109b35760405162461bcd60e51b815260040180806020018281038252603a815260200180613611603a913960400191505060405180910390fd5b60385460ff16156109c8576109c66115cc565b505b6109d182612e11565b610a0c5760405162461bcd60e51b815260040180806020018281038252602c81526020018061355a602c913960400191505060405180910390fd5b506001919050565b6001600160a01b03811660009081526036602090815260408083208054600280830154600384015460048501546001958601805488516101009882161598909802600019011694909404601f810189900489028701890190975286865260609789978897889760ff16969594939290918691830182828015610ad75780601f10610aac57610100808354040283529160200191610ad7565b820191906000526020600020905b815481529060010190602001808311610aba57829003601f168201915b50989f939e50959c50939a509198509650505050505050565b600080610b35436042546040518060400160405280601881526020017f4572726f7220647572696e67207375627472616374696f6e0000000000000000815250612e66565b905060028110610b4957600091505061083b565b6000610b8c6002836040518060400160405280601e81526020017f4572726f7220647572696e672066696e616c205375627472616374696f6e0000815250612e66565b9250505090565b603e5490565b603c5460009060ff16156108c05750603d5461083b565b6034546001600160a01b031660009081526036602052604081205460ff161580610bdd5750603c5460ff16155b80610be85750603d54155b80610bf45750603f5443145b15610c015750600061083b565b603454604080516370a0823160e01b815230600482015290516001600160a01b0390921691829160009183916370a08231916024808301926020929190829003018186803b158015610c5257600080fd5b505afa158015610c66573d6000803e3d6000fd5b505050506040513d6020811015610c7c57600080fd5b5051603f54604080516060810190915260258082529293504392600092610cac9285926135866020830139612e66565b90506000610cea603c6001015483604051806040016040528060128152602001714275726e546f74616c206f766572666c6f7760701b815250612efd565b90506000610cf88583612f71565b905084610d365760405162461bcd60e51b81526004018080602001828103825260358152602001806139a56035913960400191505060405180910390fd5b856001600160a01b03166342966c68826040518263ffffffff1660e01b815260040180828152602001915050602060405180830381600087803b158015610d7c57600080fd5b505af1158015610d90573d6000803e3d6000fd5b505050506040513d6020811015610da657600080fd5b5051610df9576040805162461bcd60e51b815260206004820181905260248201527f5468652053494748206275726e20776173206e6f74207375636365737366756c604482015290519081900360640190fd5b603f849055603e5460408051808201909152601981527f546f74616c2053696768204275726e74204f766572666c6f77000000000000006020820152610e429082908490612f88565b603e55604080516370a0823160e01b815230600482015290516001600160a01b038916916370a08231916024808301926020929190829003018186803b158015610e8b57600080fd5b505afa158015610e9f573d6000803e3d6000fd5b505050506040513d6020811015610eb557600080fd5b5051603480546001600160a01b039081166000908152603660209081526040918290206002018590559254603e54603f54835192909416825293810187905280820193909352606083018490526080830191909152519197507fb317d5e3c5d92c9e3a82d7631097452b40a2029af2d50dde53b91eaa7b638b2a919081900360a00190a150965050505050505090565b6000336001600160a01b0316603560009054906101000a90046001600160a01b03166001600160a01b031663db49224b6040518163ffffffff1660e01b815260040160206040518083038186803b158015610f9f57600080fd5b505afa158015610fb3573d6000803e3d6000fd5b505050506040513d6020811015610fc957600080fd5b50516001600160a01b0316146110105760405162461bcd60e51b815260040180806020018281038252603a815260200180613611603a913960400191505060405180910390fd5b603c5460ff168261103e57611023610bb0565b50603c805460ff191690556110386000612fdd565b5061104c565b603c805460ff191660011790555b603c5460408051831515815260ff909216151560208301524382820152517f340134b8f39dfb321185a748b00e5776174d1520fe231549f857ac5cd95891489181900360600190a15050603c5460ff16919050565b6000336001600160a01b0316603560009054906101000a90046001600160a01b03166001600160a01b031663db49224b6040518163ffffffff1660e01b815260040160206040518083038186803b1580156110fb57600080fd5b505afa15801561110f573d6000803e3d6000fd5b505050506040513d602081101561112557600080fd5b50516001600160a01b03161461116c5760405162461bcd60e51b815260040180806020018281038252603a815260200180613611603a913960400191505060405180910390fd5b60385460ff16156111ae5760405162461bcd60e51b815260040180806020018281038252604c815260200180613834604c913960600191505060405180910390fd5b6001600160a01b03831660009081526036602052604090205460ff166112055760405162461bcd60e51b81526004018080602001828103825260338152602001806135de6033913960400191505060405180910390fd5b60388054610100600160a81b0319166101006001600160a01b0387160217905561122e83613049565b6112695760405162461bcd60e51b81526004018080602001828103825260328152602001806139436032913960400191505060405180910390fd5b61127282612e11565b6112ad5760405162461bcd60e51b815260040180806020018281038252602c81526020018061355a602c913960400191505060405180910390fd5b506038805460ff1916600190811790915543603b555b9392505050565b60385461010090046001600160a01b031690565b60385460ff1690565b60385460009060ff16156108c05750603a5461083b565b6000336001600160a01b0316603560009054906101000a90046001600160a01b03166001600160a01b031663db49224b6040518163ffffffff1660e01b815260040160206040518083038186803b15801561135857600080fd5b505afa15801561136c573d6000803e3d6000fd5b505050506040513d602081101561138257600080fd5b50516001600160a01b0316146113c95760405162461bcd60e51b815260040180806020018281038252603a815260200180613611603a913960400191505060405180910390fd5b6113d16131b9565b611419576040805162461bcd60e51b8152602060048201526014602482015273536f6d657468696e672077656e742077726f6e6760601b604482015290519081900360640190fd5b50600190565b603c54603d54603e54603454604080516370a0823160e01b8152306004820152905160009586958695869560ff90931694919390926001600160a01b0316916370a08231916024808301926020929190829003018186803b15801561148357600080fd5b505afa158015611497573d6000803e3d6000fd5b505050506040513d60208110156114ad57600080fd5b5051929791965094509092509050565b6000336001600160a01b0316603560009054906101000a90046001600160a01b03166001600160a01b031663db49224b6040518163ffffffff1660e01b815260040160206040518083038186803b15801561151757600080fd5b505afa15801561152b573d6000803e3d6000fd5b505050506040513d602081101561154157600080fd5b50516001600160a01b0316146115885760405162461bcd60e51b815260040180806020018281038252603a815260200180613611603a913960400191505060405180910390fd5b61159182612fdd565b610a0c5760405162461bcd60e51b815260040180806020018281038252602881526020018061364b6028913960400191505060405180910390fd5b60385460009060ff1615806115e15750603a54155b806115fa575060385461010090046001600160a01b0316155b806116065750603b5443145b156116135750600061083b565b603954604080516370a0823160e01b815230600482015290516001600160a01b039092169160009183916370a0823191602480820192602092909190829003018186803b15801561166357600080fd5b505afa158015611677573d6000803e3d6000fd5b505050506040513d602081101561168d57600080fd5b5051603b5460408051808201909152601d81527f426c6f636b7320537562737472616374696f6e206f76657272666c6f77000000602082015291925043916000916116da91849190612e66565b90506000611718603860020154836040518060400160405280601281526020017164726970546f74616c206f766572666c6f7760701b815250612efd565b905060006117268583612f71565b9050846117645760405162461bcd60e51b815260040180806020018281038252604a8152602001806139da604a913960600191505060405180910390fd5b6038546040805163a9059cbb60e01b81526101009092046001600160a01b0390811660048401526024830184905290519088169163a9059cbb9160448083019260209291908290030181600087803b1580156117bf57600080fd5b505af11580156117d3573d6000803e3d6000fd5b505050506040513d60208110156117e957600080fd5b50516118265760405162461bcd60e51b81526004018080602001828103825260298152602001806137606029913960400191505060405180910390fd5b603b8490556039546001600160a01b031660009081526036602090815260409182902060030154825180840190935260088352674f766572666c6f7760c01b918301919091529061187a9082908490612f88565b6039546001600160a01b039081166000908152603660209081526040918290206003019390935580516370a0823160e01b81523060048201529051918a16926370a0823192602480840193829003018186803b1580156118d957600080fd5b505afa1580156118ed573d6000803e3d6000fd5b505050506040513d602081101561190357600080fd5b5051603980546001600160a01b0390811660009081526036602090815260408083206002018690556038549454841680845292819020600301548151610100909604909416855290840191909152828101869052606083018490526080830191909152519197507fa982b85190ae5aa0711a67ed15c2274b20390621b65382a3e2cda4f26251a520919081900360a00190a1509550505050505090565b6001600160a01b03811660009081526036602052604081205460ff166119f75760405162461bcd60e51b815260040180806020018281038252602a815260200180613aae602a913960400191505060405180910390fd5b604080516370a0823160e01b8152306004820152905183916001600160a01b038316916370a0823191602480820192602092909190829003018186803b158015611a4057600080fd5b505afa158015611a54573d6000803e3d6000fd5b505050506040513d6020811015611a6a57600080fd5b50516001600160a01b0384166000908152603660205260409020600201819055915050919050565b6000336001600160a01b0316603560009054906101000a90046001600160a01b03166001600160a01b031663db49224b6040518163ffffffff1660e01b815260040160206040518083038186803b158015611aec57600080fd5b505afa158015611b00573d6000803e3d6000fd5b505050506040513d6020811015611b1657600080fd5b50516001600160a01b031614611b5d5760405162461bcd60e51b815260040180806020018281038252603a815260200180613611603a913960400191505060405180910390fd5b6001600160a01b03821660009081526036602052604090205460ff1615611bb55760405162461bcd60e51b81526004018080602001828103825260348152602001806136736034913960400191505060405180910390fd5b600082905060008390506040518060a00160405280600115158152602001826001600160a01b03166306fdde036040518163ffffffff1660e01b815260040160006040518083038186803b158015611c0c57600080fd5b505afa158015611c20573d6000803e3d6000fd5b505050506040513d6000823e601f3d908101601f191682016040526020811015611c4957600080fd5b8101908080516040519392919084640100000000821115611c6957600080fd5b908301906020820185811115611c7e57600080fd5b8251640100000000811182820188101715611c9857600080fd5b82525081516020918201929091019080838360005b83811015611cc5578181015183820152602001611cad565b50505050905090810190601f168015611cf25780820380516001836020036101000a031916815260200191505b506040908152938552505081516370a0823160e01b815230600482015291516020938401936001600160a01b038816936370a08231935060248082019391829003018186803b158015611d4457600080fd5b505afa158015611d58573d6000803e3d6000fd5b505050506040513d6020811015611d6e57600080fd5b505181526000602080830182905260409283018290526001600160a01b0388168252603681529190208251815460ff19169015151781558282015180519192611dbf92600185019290910190613475565b506040828101516002808401919091556060808501516003808601919091556080958601516004958601556037805460018181019092557f42a7b7dd785cd69714a189dffb3fd7d7174edc9ece837694ce50f7078f7c31ae0180546001600160a01b038d166001600160a01b0319909116811790915560008181526036602090815290879020808701549481015498810154885193845297830185905294820188905297810186905260a09781018881529382018054928316156101000260001901909216949094049684018790527f44086b3afcbf795fb41652f5fa3a4ae27c79df709e6e83c54310541786b14b9a968b969195929491939060c083019087908015611f0d5780601f10611ee257610100808354040283529160200191611f0d565b820191906000526020600020905b815481529060010190602001808311611ef057829003601f168201915b5050965050505050505060405180910390a15060019392505050565b6000611f3361324f565b60015490915060ff1680611f4a5750611f4a613254565b80611f56575060005481115b611f915760405162461bcd60e51b815260040180806020018281038252602e8152602001806137b3602e913960400191505060405180910390fd5b60015460ff16158015611fb0576001805460ff19168117905560008290555b603580546001600160a01b0319166001600160a01b038516179055611fd36131b9565b508015611fe5576001805460ff191690555b505050565b6001600160a01b031660009081526036602052604090206002015490565b603454604080516370a0823160e01b815230600482015290516000926001600160a01b031691839183916370a08231916024808301926020929190829003018186803b15801561205757600080fd5b505afa15801561206b573d6000803e3d6000fd5b505050506040513d602081101561208157600080fd5b50519250505090565b600281565b6000336001600160a01b0316603560009054906101000a90046001600160a01b03166001600160a01b031663db49224b6040518163ffffffff1660e01b815260040160206040518083038186803b1580156120e957600080fd5b505afa1580156120fd573d6000803e3d6000fd5b505050506040513d602081101561211357600080fd5b50516001600160a01b03161461215a5760405162461bcd60e51b815260040180806020018281038252603a815260200180613611603a913960400191505060405180910390fd5b6034546001600160a01b031660009081526036602052604090205460ff166121b35760405162461bcd60e51b815260040180806020018281038252602d815260200180613733602d913960400191505060405180910390fd5b60006121be8361325a565b6034546040805163a9059cbb60e01b81526001600160a01b03888116600483015260248201859052915193945091169163a9059cbb916044808201926020929091908290030181600087803b15801561221657600080fd5b505af115801561222a573d6000803e3d6000fd5b505050506040513d602081101561224057600080fd5b5051612293576040805162461bcd60e51b815260206004820152601e60248201527f546865207472616e7366657220646964206e6f7420636f6d706c6574652e0000604482015290519081900360640190fd5b6034546001600160a01b031660009081526036602090815260409182902060040154825160608101909352602a80845290926122da92849286929161378990830139612f88565b603480546001600160a01b03908116600090815260366020908152604091829020600490810195909555925481516370a0823160e01b8152309581019590955290519116926370a08231926024808301939192829003018186803b15801561234157600080fd5b505afa158015612355573d6000803e3d6000fd5b505050506040513d602081101561236b57600080fd5b50516034546001600160a01b0390811660009081526036602090815260409182902060020193909355805185815243938101939093528051918816927fb78e8281051052bc316580ad439be0f09737b9b6bed3d0bc98830b0805c5f37b929081900390910190a25090505b92915050565b6000336001600160a01b0316603560009054906101000a90046001600160a01b03166001600160a01b031663878543546040518163ffffffff1660e01b815260040160206040518083038186803b15801561243657600080fd5b505afa15801561244a573d6000803e3d6000fd5b505050506040513d602081101561246057600080fd5b50516001600160a01b0316146124a75760405162461bcd60e51b815260040180806020018281038252602d815260200180613a24602d913960400191505060405180910390fd5b6001600160a01b03841660009081526036602052604090205460ff166124fe5760405162461bcd60e51b81526004018080602001828103825260388152602001806136fb6038913960400191505060405180910390fd5b6001600160a01b03831660009081526036602052604090205460ff166125555760405162461bcd60e51b81526004018080602001828103825260338152602001806135ab6033913960400191505060405180910390fd5b6034546001600160a01b03848116911614156125b85760006125768361325a565b90508083146125b65760405162461bcd60e51b815260040180806020018281038252604c81526020018061350e604c913960600191505060405180910390fd5b505b604080516370a0823160e01b8152306004820152905185916000916001600160a01b038416916370a08231916024808301926020929190829003018186803b15801561260357600080fd5b505afa158015612617573d6000803e3d6000fd5b505050506040513d602081101561262d57600080fd5b5051604080516370a0823160e01b8152306004820152905191925086916000916001600160a01b038416916370a0823191602480820192602092909190829003018186803b15801561267e57600080fd5b505afa158015612692573d6000803e3d6000fd5b505050506040513d60208110156126a857600080fd5b50516040805163095ea7b360e01b81526001600160a01b038f81166004830152602482018a905291519293509084169163095ea7b3916044808201926020929091908290030181600087803b15801561270057600080fd5b505af1158015612714573d6000803e3d6000fd5b505050506040513d602081101561272a57600080fd5b505161273557600080fd5b600060608c6001600160a01b0316348d8d604051808383808284376040519201945060009350909150508083038185875af1925050503d8060008114612797576040519150601f19603f3d011682016040523d82523d6000602084013e61279c565b606091505b5091509150816127e7576040805162461bcd60e51b81526020600482015260116024820152701513d2d1538814d5d05408119052531151607a1b604482015290519081900360640190fd5b8115612add57604080516370a0823160e01b815230600482015290516000916001600160a01b038916916370a0823191602480820192602092909190829003018186803b15801561283757600080fd5b505afa15801561284b573d6000803e3d6000fd5b505050506040513d602081101561286157600080fd5b5051604080516370a0823160e01b815230600482015290519192506000916001600160a01b038816916370a08231916024808301926020929190829003018186803b1580156128af57600080fd5b505afa1580156128c3573d6000803e3d6000fd5b505050506040513d60208110156128d957600080fd5b8101908080519060200190929190505050905081603660008e6001600160a01b03166001600160a01b031681526020019081526020016000206002018190555080603660008d6001600160a01b03166001600160a01b0316815260200190815260200160002060020181905550600061296b83896040518060800160405280605481526020016136a760549139612e66565b9050600061299287846040518060800160405280605381526020016137e160539139612e66565b90508d6001600160a01b03167f22f6af6e13430e3e7b6418d01e6a48c1fbce5e8cb1698901fc95134b4b1c58ad8a848760405180848152602001838152602001828152602001935050505060405180910390a2604080518881526020810183905280820185905290516001600160a01b038f16917f6db63bebf1e6540277744df32846ebdb98385b1a73f2d5de49b28348add63f50919081900360600190a27fdcfa816c675129132906d878736fcdb3261d869fd69cdeae5db3bef320f09e57856040518080602001828103825283818151815260200191508051906020019080838360005b83811015612a90578181015183820152602001612a78565b50505050905090810190601f168015612abd5780820380516001836020036101000a031916815260200191505b509250505060405180910390a160019a5050505050505050505050612ae8565b600096505050505050505b979650505050505050565b6000336001600160a01b0316603560009054906101000a90046001600160a01b03166001600160a01b031663db49224b6040518163ffffffff1660e01b815260040160206040518083038186803b158015612b4d57600080fd5b505afa158015612b61573d6000803e3d6000fd5b505050506040513d6020811015612b7757600080fd5b50516001600160a01b031614612bbe5760405162461bcd60e51b815260040180806020018281038252603a815260200180613611603a913960400191505060405180910390fd5b60385460ff16612bd05750600161083b565b612bd86115cc565b50603880546000603a819055603980546001600160a01b03191690556001600160a81b0319909116909155604080516001815260208101929092524382820152517f0261ad1ea0d89ce43687ef439984742c8ffce8a6d523f570807626ebf50f9a4a9181900360600190a150600190565b6001600160a01b031660009081526036602052604090206003015490565b603854603954603a5460ff8316926001600160a01b0361010090910481169216919293565b6040546041549091565b6000336001600160a01b0316603560009054906101000a90046001600160a01b03166001600160a01b031663db49224b6040518163ffffffff1660e01b815260040160206040518083038186803b158015612cf057600080fd5b505afa158015612d04573d6000803e3d6000fd5b505050506040513d6020811015612d1a57600080fd5b50516001600160a01b031614612d615760405162461bcd60e51b815260040180806020018281038252603a815260200180613611603a913960400191505060405180910390fd5b6001600160a01b03821660009081526036602052604090205460ff16612db85760405162461bcd60e51b81526004018080602001828103825260338152602001806135de6033913960400191505060405180910390fd5b60385460ff1615612dcd57612dcb6115cc565b505b612dd682613049565b610a0c5760405162461bcd60e51b81526004018080602001828103825260328152602001806139436032913960400191505060405180910390fd5b603a805490829055604080518281526020810184905243818301529051600092917fcb726a38993fdfa3c520bb963d26a5dada83bc186122f7b5ff9d950c937e4606919081900360600190a150600192915050565b60008184841115612ef55760405162461bcd60e51b81526004018080602001828103825283818151815260200191508051906020019080838360005b83811015612eba578181015183820152602001612ea2565b50505050905090810190601f168015612ee75780820380516001836020036101000a031916815260200191505b509250505060405180910390fd5b505050900390565b600083612f0c575060006112c3565b83830283858281612f1957fe5b04148390612f685760405162461bcd60e51b8152602060048201818152835160248401528351909283926044909101919085019080838360008315612eba578181015183820152602001612ea2565b50949350505050565b6000818311612f815750816123d6565b50806123d6565b60008383018285821015612f685760405162461bcd60e51b8152602060048201818152835160248401528351909283926044909101919085019080838360008315612eba578181015183820152602001612ea2565b603d5460009015612ff257612ff0610bb0565b505b603d80549083905543603f55603d546040805183815260208101929092524382820152517fc2958fed67c1858352579a317ba3a6c042f4694ef53d27df67d39a3ddf6392339181900360600190a150600192915050565b604080516370a0823160e01b81523060048201529051600091839183916001600160a01b038416916370a0823191602480820192602092909190829003018186803b15801561309757600080fd5b505afa1580156130ab573d6000803e3d6000fd5b505050506040513d60208110156130c157600080fd5b50519050806131015760405162461bcd60e51b81526004018080602001828103825260308152602001806138d56030913960400191505060405180910390fd5b603980546001600160a01b038681166001600160a01b031983168117938490559181169216146131625760405162461bcd60e51b815260040180806020018281038252603e815260200180613905603e913960400191505060405180910390fd5b603954604080516001600160a01b03808516825290921660208301524382820152517f626284fdb3b033c18512415564ff71847488424ad208acaaba889829f900d02e9181900360600190a1506001949350505050565b60355460408051632106a90360e21b815290516000926001600160a01b03169163841aa40c916004808301926020929190829003018186803b1580156131fe57600080fd5b505afa158015613212573d6000803e3d6000fd5b505050506040513d602081101561322857600080fd5b5051603480546001600160a01b0319166001600160a01b0390921691909117905550600190565b600190565b303b1590565b60008043905060006132908260425460405180604001604052806009815260200168756e646572666c6f7760b81b815250612e66565b9050600281111561339e57603454604080516370a0823160e01b815230600482015290516000926001600160a01b0316916370a08231916024808301926020929190829003018186803b1580156132e657600080fd5b505afa1580156132fa573d6000803e3d6000fd5b505050506040513d602081101561331057600080fd5b50516040805481516060810190925260308083529293509161333f918491601991906139756020830139613410565b6040818155436042558051838152602081019290925280517fea9edb6222b8219485bb2f65063840de8ad18d12a4b1bfddbad68b5f80eab5219281900390910190a161338d86604054612f71565b604181905594506108e39350505050565b60006133c76040546041546040518060800160405280605d8152602001613a51605d9139612e66565b905060006133d58287612f71565b905060006041549050613401818360405180608001604052806055815260200161388060559139612f88565b6041555093506108e392505050565b6000818361345f5760405162461bcd60e51b8152602060048201818152835160248401528351909283926044909101919085019080838360008315612eba578181015183820152602001612ea2565b50600083858161346b57fe5b0495945050505050565b828054600181600116156101000203166002900490600052602060002090601f016020900481019282601f106134b657805160ff19168380011785556134e3565b828001600101855582156134e3579182015b828111156134e35782518255916020019190600101906134c8565b506134ef9291506134f3565b5090565b61083b91905b808211156134ef57600081556001016134f956fe4974206973206e6f7420706f737369626c6520746f207472616465207468652070726f7669646564206e756d626572206f66205349474820746f6b656e7320617420746865206d6f6d656e74446973747269627574696f6e205370656564206e6f7420696e697469616c697a65642070726f7065726c792e426c6f636b204e756d6265727320537562737472616374696f6e2067617665206572726f72496e737472756d656e7420746f20626520736f6c6420686173206e6f74206265656e20696e697469616c697a6564207965742e496e737472756d656e7420746f206265206469737472696275746564206973206e6f7420696e697469616c697a6564207965745468652063616c6c6572206d7573742062652074686520534947482046696e616e61636520436f6e666967757261746f7220436f6e747261637453696768204275726e20737065656420776173206e6f7420757064617465642070726f7065726c795468652070726f766964656420696e737472756d656e742068617320616c7265616479206265656e20696e697469616c697a65644e657720546f6b656e2042616c616e636520666f7220746f6b656e73207468617420617265206265696e6720426f75676874206973206c6f776572207468616e2069747320696e697469616c2062616c616e6365496e737472756d656e7420746f2062652070757263686173656420686173206e6f74206265656e20696e697469616c697a6564207965742e5349474820496e737472756d656e7420686173206e6f74206265656e20696e697469616c697a6564207965742e54686520496e737472756d656e74207472616e7366657220646964206e6f7420636f6d706c6574652e4572726f72207768656e207570646174696e6720746f74616c2053494748205472616e73666572726564436f6e747261637420696e7374616e63652068617320616c7265616479206265656e20696e697469616c697a65644e657720546f6b656e2042616c616e636520666f7220746f6b656e73207468617420617265206265696e6720536f6c6420697320686967686572207468616e2069747320696e697469616c2062616c616e6365496e737472756d656e7420646973747269627574696f6e206e6565647320746f206265207265736574206265666f72652069742063616e20626520696e697469616c697a656420416761696e4572726f72207768656e207570646174696e6720746f74616c205369676820616d6f756e7420747261646564202f207472616e7366657272656420647572696e67207468652063757272656e7420706572696f642054686520547265617375727920646f6573206e6f7420686f6c64207468657365206e657720696e737472756d656e74734164647265737320666f722074686520696e737472756d656e7420746f2062652044726970706564206e6f742061737369676e65642070726f7065726c79496e737472756d656e7420746f206265206469737472696275746564206e6f742061737369676e65642070726f7065726c797570646174656d61785472616e73666572416d6f756e743a204469766973696f6e2072657475726e6564206572726f725468652074726561737572792063757272656e746c7920646f6573206e6f74206861766520616e79205349474820746f6b656e732e5468652074726561737572792063757272656e746c7920646f6573206e6f74206861766520616e79206f6620746f6b656e7320776869636820617265206265696e6720447269707065645468652063616c6c6572206d757374206265207468652053494748204d656368616e69736d204d616e616765724572726f72207768656e207375627472616374696e672063757272656e7420616d6f756e74206f6620736967682074726164652f7472616e736665727265642066726f6d206d61782073696768207472616e73666572206c696d6974205468697320696e737472756d656e742069732063757272656e74206e6f7420696e697469616c697a6564a265627a7a72315820b48eb1d17e6458c8e8bc8e39c325c975b5ab3152cd4a6278ae731d6ef5c9056664736f6c63430005100032",
  "source": "pragma solidity ^0.5.16;\n\n/**\n * @title Sigh Treasury Contract Interface\n * @notice The Treasury Contract for SIGH Finance\n * @dev Used to Swap Tokens, burns SIGH Tokens, and can ERC20 token can be distributed to a target address on a per block basis\n * @author SIGH Finance\n */\n\nimport \"openzeppelin-solidity/contracts/token/ERC20/IERC20.sol\"; \nimport \"openzeppelin-solidity/contracts/token/ERC20/ERC20Detailed.sol\";\nimport \"../../openzeppelin-upgradeability/VersionedInitializable.sol\";\n\nimport \"./EIP20InterfaceSIGH.sol\";\nimport \"../../configuration/GlobalAddressesProvider.sol\";\n\n// import \"./IForwarder.sol\";\n// import \"../openzeppelin/EIP20Interface.sol\";\n\ncontract Treasury is VersionedInitializable   {\n\n    // OTHER CONTRACTS INTERACTED WITH\n    IERC20 private sigh_Instrument;    \n    GlobalAddressesProvider private addressesProvider;\n    \n    // STATE OF THE INSTRUMENTS HELD IN THE TREASURY\n    struct instrumentState {\n        bool initialized;\n        string name;\n        uint balance;\n        uint totalAmountDripped;\n        uint totalAmountTransferred;\n    }\n\n    mapping (address => instrumentState) instrumentStates;\n    address[] private allInstruments;\n\n    // TREASURY's DRIPPING STATE PARAMETERS\n    struct dripState {\n        bool isDripAllowed;    \n        address targetAddressForDripping;\n        address instrumentBeingDripped;\n        uint DripSpeed;\n        uint lastDripBlockNumber; \n    }\n    \n    dripState private treasuryDripState;\n\n    // TREASURY's SIGH BURN STATE PARAMETERS\n    struct burnState {\n        bool is_SIGH_BurnAllowed;\n        uint SIGHBurnSpeed;\n        uint totalBurntSIGH;\n        uint lastBurnBlockNumber;\n    }\n    \n    burnState private sighBurnState;\n\n    // SIGH TRANSFER RELATED FUNCTIONS\n\n    uint private maxSIGHTransferLimit;                  // MAX SIGH that can be traded/transferred during a period\n    uint private totalSighTradedAndTransferred;      // SIGH that has been traded/transferred during the current period\n    uint public constant periodLength = 2;                      // Period Length\n    uint private periodInitializationBlock;            \n    \n\n\n    event InstrumentInitialized( address instrument, string name, uint balance, uint totalAmountDripped, uint totalAmountTransferred  );\n\n    event instrumentBeingDistributedChanged(address prevInstrument, address newToken, uint blockNumber);\n    event DripAllowedChanged(bool prevDripAllowed , bool newDripAllowed, uint blockNumber); \n    event DripSpeedChanged(uint prevDripSpeed , uint curDripSpeed,  uint blockNumber ); \n    event AmountDripped(address targetAddress, address instrumentBeingDripped, uint currentBalance , uint AmountDripped, uint totalAmountDripped ); \n\n    event maxTransferAmountUpdated(uint prevmaxTransferAmount, uint newmaxTransferAmount);\n    event SIGHTransferred(address indexed TargetAddress, uint amountTransferred, uint blockNumber);\n\n    event TokensBought( address indexed instrument_address, uint prev_balance, uint amount, uint new_balance );\n    event TokensSold( address indexed instrument_address, uint prev_balance, uint amount, uint new_balance );\n    event TokenSwapTransactionData( bytes data );\n\n    event SIGHBurnAllowedChanged(bool prevBurnAllowed , bool newBurnAllowed, uint blockNumber); \n    event SIGH_Burned(address sigh_Address, uint amount, uint totalSIGHBurned, uint remaining_balance, uint blockNumber);\n    event SIGHBurnSpeedChanged(uint prevSpeed, uint newSpeed, uint blockNumber);\n\n// ########################\n// ####### MODIFIER #######\n// ########################\n\n    /**\n    * @dev only the SIGH Finance Manager can call functions affected by this modifier\n    **/\n    modifier onlySIGHFinanceManager {\n        require( addressesProvider.getSIGHFinanceManager() == msg.sender, \"The caller must be the SIGH Mechanism Manager\" );\n        _;\n    }\n\n    //only SIGH Finance Configurator can use functions affected by this modifier\n    modifier onlySighFinanceConfigurator {\n        require(addressesProvider.getSIGHFinanceConfigurator() == msg.sender, \"The caller must be the SIGH Finanace Configurator Contract\");\n        _;\n    }\n\n// ###############################################################################################\n// ##############        PROXY RELATED          ##################################################\n// ###############################################################################################\n\n\n    event SIGHTreasuryInitialized(address msgSender, address addressesProvider, address SIGH, address sighDistributionHandler);\n\n    uint256 constant private DATA_PROVIDER_REVISION = 0x1;\n\n    function getRevision() internal pure returns(uint256) {\n        return DATA_PROVIDER_REVISION;\n    }\n    \n    \n    function initialize( GlobalAddressesProvider addressesProvider_) public initializer {\n        addressesProvider = addressesProvider_; \n        refreshConfigInternal();        \n    }\n    \n    function refreshConfig() external onlySighFinanceConfigurator() returns (bool) {\n        require(refreshConfigInternal(),\"Something went wrong\"); \n        return true;\n    }\n\n    function refreshConfigInternal() internal returns (bool) {\n        sigh_Instrument = IERC20(addressesProvider.getSIGHAddress());           // SIGH TOKEN\n        return true;\n    }\n\n// ################################################################################################################ \n// ###########   BURN SIGH TOKENS  ################################################################################\n// ###########   1. changeSIGHBurnAllowed() : Activates / Deactivates SIGH Burn (onlySighFinanceConfigurator) #####\n// ###########   2. updateSIGHBurnSpeed() : Updates the SIGH Burn Speed (onlySighFinanceConfigurator) #############\n// ###########   3. burnSIGHTokens() : Public Function. Allows anyone to burn SIGH Tokens. ########################\n// ################################################################################################################\n\n    function changeSIGHBurnAllowed(uint isAllowed) external onlySighFinanceConfigurator returns (bool) {\n        bool prevStatus = sighBurnState.is_SIGH_BurnAllowed;\n        if (isAllowed == 0) {\n            burnSIGHTokens();\n            sighBurnState.is_SIGH_BurnAllowed = false;          // STATE UPDATE : is_SIGH_BurnAllowed switched\n            updateSIGHBurnSpeedInternal(0);\n        }\n        else {\n            sighBurnState.is_SIGH_BurnAllowed = true;           // STATE UPDATE : is_SIGH_BurnAllowed switched\n        }\n        emit SIGHBurnAllowedChanged(prevStatus, sighBurnState.is_SIGH_BurnAllowed, block.number);\n        return sighBurnState.is_SIGH_BurnAllowed;\n    }\n        \n    function updateSIGHBurnSpeed(uint newBurnSpeed) external onlySighFinanceConfigurator returns (bool) {\n        require(updateSIGHBurnSpeedInternal(newBurnSpeed),\"Sigh Burn speed was not updated properly\");\n        return true;\n    }\n\n    function burnSIGHTokens() public returns (uint) {\n        if ( !instrumentStates[address(sigh_Instrument)].initialized || !sighBurnState.is_SIGH_BurnAllowed || sighBurnState.SIGHBurnSpeed == 0 || (sighBurnState.lastBurnBlockNumber == block.number) )  {\n            return uint(0);\n        }\n        \n        address sighTokenAddress = address(sigh_Instrument);\n        EIP20InterfaceSIGH token_ = EIP20InterfaceSIGH(sighTokenAddress);\n\n        uint treasuryBalance_ = token_.balanceOf(address(this)); // get current balance of SIGH\n        uint blockNumber_ = block.number;\n        uint deltaBlocks = sub(blockNumber_,sighBurnState.lastBurnBlockNumber,\"Block Numbers Substraction gave error\");\n        uint deltaBurn_ = mul(sighBurnState.SIGHBurnSpeed, deltaBlocks, \"BurnTotal overflow\");\n        uint toBurn_ = min(treasuryBalance_, deltaBurn_);\n        \n        require(treasuryBalance_ != 0, 'The treasury currently does not have any SIGH tokens.');\n        require(token_.burn(toBurn_), 'The SIGH burn was not successful' );\n        \n        sighBurnState.lastBurnBlockNumber = blockNumber_;                         // setting the block number when the Burn is made\n        uint prevTotalBurntAmount = sighBurnState.totalBurntSIGH ;\n        sighBurnState.totalBurntSIGH = add(prevTotalBurntAmount,toBurn_,\"Total Sigh Burnt Overflow\");\n        treasuryBalance_ = token_.balanceOf(address(this)); // get current balance\n\n        instrumentStates[address(sigh_Instrument)].balance = treasuryBalance_;\n\n        emit SIGH_Burned( address(sigh_Instrument), toBurn_, sighBurnState.totalBurntSIGH,  treasuryBalance_, sighBurnState.lastBurnBlockNumber ); \n\n        return toBurn_;\n    }\n\n    // INTERNAL FUNCTION\n\n    function updateSIGHBurnSpeedInternal(uint newBurnSpeed) internal returns (bool) {\n        if ( sighBurnState.SIGHBurnSpeed > 0 ) {\n            burnSIGHTokens();\n        } \n        uint prevBurnSpeed = sighBurnState.SIGHBurnSpeed;\n        sighBurnState.SIGHBurnSpeed = newBurnSpeed;\n        sighBurnState.lastBurnBlockNumber = block.number;\n        \n        require (sighBurnState.SIGHBurnSpeed == newBurnSpeed, 'New SIGH Burn Speed not initialized properly');\n        emit SIGHBurnSpeedChanged(prevBurnSpeed, sighBurnState.SIGHBurnSpeed, block.number);\n        return true;\n    }\n\n// #########################################################################################################################################################\n// ###########   _______TREASURY CAN DISTRIBUTE ANY TOKEN TO ANY ADDRESS AT A PER BLOCK BASIS_______ #######################################################\n// ###########   1. initializeInstrumentDistribution() --> To initiate an Instrument distribution Session. (onlySighFinanceConfigurator)   #################\n// ###########   2. changeInstrumentBeingDripped() --> Change the instrument being distributed (onlySighFinanceConfigurator)  ##############################\n// ###########   3. updateDripSpeed() --> To update the current Dripping Speed (onlySighFinanceConfigurator) ###############################################\n// ###########   4. resetInstrumentDistribution() --> Reset instrument distribution to start a new session (onlySighFinanceConfigurator)  ##################\n// #########################################################################################################################################################\n\n    function initializeInstrumentDistribution (address targetAddress, address instrumentToBeDistributed, uint distributionSpeed) external onlySighFinanceConfigurator returns (bool) {\n        require(!treasuryDripState.isDripAllowed,\"Instrument distribution needs to be reset before it can be initialized Again\");\n        require( instrumentStates[address(instrumentToBeDistributed)].initialized, \"Instrument to be distributed is not initialized yet\" );        \n        \n        treasuryDripState.targetAddressForDripping = targetAddress;                           // STATE UPDATE : Sets the address to which these instruments will be distributed\n        require(changeInstrumentBeingDrippedInternal(instrumentToBeDistributed),\"Instrument to be distributed not assigned properly\");    // Sets the instrument which will be distributed\n        require(updateDripSpeedInternal(distributionSpeed),\"Distribution Speed not initialized properly.\");                         // Sets the distribution Speed\n\n        treasuryDripState.isDripAllowed = true;                                               // STATE UPDATE : INITIATES DISTRIBUTION\n        treasuryDripState.lastDripBlockNumber = block.number;                                 // STATE UPDATE : Distribution commences from current block\n        return true;\n    }\n\n    /**\n      * @notice Change the token being dripped to the Target Address\n      * @param instrumentToDrip Address of the token to be dripped\n      * @return returns the address of the token that will be Dripped\n    */    \n    function changeInstrumentBeingDripped(address instrumentToDrip ) external onlySighFinanceConfigurator returns (bool) {\n        require( instrumentStates[address(instrumentToDrip)].initialized, \"Instrument to be distributed is not initialized yet\" );        \n        if ( treasuryDripState.isDripAllowed ) {  // First Distribute the remaining amount\n            drip();\n        }\n        require(changeInstrumentBeingDrippedInternal(instrumentToDrip),\"Instrument to be distributed not assigned properly\");\n        return true;\n    }\n\n    function updateDripSpeed (uint DripSpeed_) external onlySighFinanceConfigurator returns (bool) {\n        if (treasuryDripState.isDripAllowed) {\n            drip();\n        }\n        require(updateDripSpeedInternal(DripSpeed_),\"Distribution Speed not initialized properly.\");\n        return true;\n  }\n\n    /**\n      * @notice Switch to Reset (OFF) Dripping\n      * @return return is Dripping is allowed or not\n    */    \n    function resetInstrumentDistribution() external onlySighFinanceConfigurator returns (bool) {\n        if (!treasuryDripState.isDripAllowed) {\n            return true;\n        }\n        drip();\n        \n        treasuryDripState.isDripAllowed = false;                                // STATE UPDATE : DRIPPING FUNCTIONALITY BEING RESET\n        treasuryDripState.DripSpeed = uint(0);                                  // STATE UPDATE : DRIPPING FUNCTIONALITY BEING RESET\n        treasuryDripState.instrumentBeingDripped = address(0);                  // STATE UPDATE : DRIPPING FUNCTIONALITY BEING RESET\n        treasuryDripState.targetAddressForDripping = address(0);                // STATE UPDATE : DRIPPING FUNCTIONALITY BEING RESET\n        treasuryDripState.targetAddressForDripping = address(0);                // STATE UPDATE : DRIPPING FUNCTIONALITY BEING RESET\n        \n        emit DripAllowedChanged(true , treasuryDripState.isDripAllowed, block.number);\n        return true;\n    }\n    \n   function updateDripSpeedInternal( uint dripSpeed_ ) internal returns (bool) {\n        uint prevDripSpeed = treasuryDripState.DripSpeed;\n        treasuryDripState.DripSpeed = dripSpeed_;                                           // STATE UPDATE : DRIPPING SPEED UPDATED\n        emit DripSpeedChanged(prevDripSpeed , treasuryDripState.DripSpeed, block.number);\n        return true;\n   }    \n   \n    function changeInstrumentBeingDrippedInternal(address instrumentToDrip) internal returns (bool) {\n        IERC20 newToken = IERC20(instrumentToDrip);\n        uint currentBalance = newToken.balanceOf(address(this)); \n        require(currentBalance > 0, 'The Treasury does not hold these new instruments');\n\n        address prevInstrument = treasuryDripState.instrumentBeingDripped;\n        treasuryDripState.instrumentBeingDripped = instrumentToDrip;                    // STATE UPDATE : INSTRUMENT BEING DRIPPED UPDATED\n        require(treasuryDripState.instrumentBeingDripped == instrumentToDrip, 'Address for the instrument to be Dripped not assigned properly');\n\n        emit instrumentBeingDistributedChanged(prevInstrument, treasuryDripState.instrumentBeingDripped, block.number);\n        return true;\n    }  \n\n// ################################################################################\n// ###########   THE FUNCTION TO DRIP THE TOKENS TO THE TARGET ADDRESS  ###########\n// ################################################################################\n\n    /**\n      * @notice Drips the Tokens to the SIGHDistributionHandler\n      * @return returns the Dripped Amount\n    */    \n    function drip() public returns (uint) {\n        if ( !treasuryDripState.isDripAllowed || (treasuryDripState.DripSpeed == 0)  || (treasuryDripState.targetAddressForDripping == address(0)) || (treasuryDripState.lastDripBlockNumber == block.number)  ) {\n            return uint(0);\n        }\n\n        IERC20 token_ = IERC20(treasuryDripState.instrumentBeingDripped); \n        uint treasuryBalance_ = token_.balanceOf(address(this)); // get current balance of the token Being Dripped\n        uint blockNumber_ = block.number;\n        uint deltaBlocks = sub(blockNumber_,treasuryDripState.lastDripBlockNumber,\"Blocks Substraction overrflow\");\n        uint deltaDrip_ = mul(treasuryDripState.DripSpeed, deltaBlocks, \"dripTotal overflow\");\n        uint toDrip_ = min(treasuryBalance_, deltaDrip_);\n        \n        require(treasuryBalance_ != 0, 'The treasury currently does not have any of tokens which are being Dripped');\n        require(token_.transfer(treasuryDripState.targetAddressForDripping, toDrip_), 'The Instrument transfer did not complete.' );      // ONLY INSTRUMENTS WHICH IMPLEMENT STANDARD ERC20 CAN BE DISTRIBUTED BY THE TREASURY\n        \n        treasuryDripState.lastDripBlockNumber = blockNumber_;                                                                               // STATE UPDATE : setting the block number when the Drip is made\n        uint prevTotalDrippedAmount = instrumentStates[treasuryDripState.instrumentBeingDripped].totalAmountDripped;\n        instrumentStates[treasuryDripState.instrumentBeingDripped].totalAmountDripped = add(prevTotalDrippedAmount,toDrip_,\"Overflow\");     // STATE UPDATE : Total amount dripped for the instrument updated\n        treasuryBalance_ = token_.balanceOf(address(this)); // get current balance\n\n        instrumentStates[treasuryDripState.instrumentBeingDripped].balance = treasuryBalance_;                                              // STATE UPDATE: Update the instrument balance\n        emit AmountDripped( treasuryDripState.targetAddressForDripping, treasuryDripState.instrumentBeingDripped, toDrip_, treasuryBalance_, instrumentStates[treasuryDripState.instrumentBeingDripped].totalAmountDripped ); \n        return toDrip_;\n    }\n\n\n// ##################################################################################################\n// ###########   initializeInstrumentState() : INITIALIZING INSTRUMENTS #############################\n// ###########   updateInstrumentBalance() : updates the stored balance                  ############\n// ###########   swapTokensUsingOxAPI() : THE HEDGE FUND MECHANISM AND THE SIGH TRANSFER ############\n// ###########   transferSighTo() : FUNCTION TO TRANSFER SIGH TOKENS     ############################\n// ##################################################################################################\n\n    function initializeInstrumentState(address instrument) external onlySighFinanceConfigurator returns (bool) {\n        require( !instrumentStates[instrument].initialized,\"The provided instrument has already been initialized\" );\n\n        IERC20 instrumentContract = IERC20(instrument);\n        ERC20Detailed instrumentContractDetailed = ERC20Detailed(instrument);\n\n        // STATE UPDATE : NEW INSTRUMENT INITIALIZED\n        instrumentStates[instrument] = instrumentState({ initialized: true, name: instrumentContractDetailed.name(), balance: instrumentContract.balanceOf(address(this)), totalAmountDripped: uint(0), totalAmountTransferred: uint(0) });\n        allInstruments.push(instrument);        // STATE UPDATE : INSTRUMENT ADDED TO THE LIST\n        \n        emit InstrumentInitialized( instrument, instrumentStates[instrument].name, instrumentStates[instrument].balance, instrumentStates[instrument].totalAmountDripped, instrumentStates[instrument].totalAmountTransferred  );\n        return true;\n    }\n    \n    // rechecks the balance and updates the stored balance for the instrument\n    function updateInstrumentBalance(address instrument_address) external returns (uint) {\n        require(instrumentStates[instrument_address].initialized,\"This instrument is current not initialized\");\n        IERC20 token_ = IERC20(instrument_address);\n        instrumentStates[instrument_address].balance = token_.balanceOf(address(this));\n        return instrumentStates[instrument_address].balance;\n    }\n\n\n    // \n    function swapTokensUsingOxAPI( address allowanceTarget, address payable to, bytes calldata callDataHex, address token_bought, address token_sold, uint sellAmount ) external payable onlySIGHFinanceManager returns (bool) {\n        require(instrumentStates[token_bought].initialized,\"Instrument to be purchased has not been initialized yet.\");\n        require(instrumentStates[token_sold].initialized,\"Instrument to be sold has not been initialized yet.\");\n\n        if (token_sold == address(sigh_Instrument)) {\n            uint currentTradeSize = updatemaxTransferAmount(sellAmount);\n            require(sellAmount == currentTradeSize,\"It is not possible to trade the provided number of SIGH tokens at the moment\");\n        }\n        \n        IERC20 bought_token = IERC20(token_bought);\n        uint prev_bought_token_amount = bought_token.balanceOf(address(this));  // Current Bought Tokens Balance\n\n        IERC20 sold_token = IERC20(token_sold);\n        uint prev_sold_token_amount = sold_token.balanceOf(address(this));      // Current Tokens to be Sold Balance\n\n        require(sold_token.approve(allowanceTarget, uint256(sellAmount)));                   // Allow the allowanceTarget address to spend an the needed amount\n        (bool success, bytes memory _data) = to.call.value(msg.value)(callDataHex);          // Calling the encoded swap() function. ETH passed to cover for fee\n    \n        require(success, 'TOKEN SWAP FAILED');\n        \n        if (success) {\n            uint new_bought_token_amount = bought_token.balanceOf(address(this));       // New Bought Tokens Balance\n            uint new_sold_token_amount = sold_token.balanceOf(address(this));           // New Tokens to be Sold Balance\n            \n            instrumentStates[token_bought].balance = new_bought_token_amount;   // STATE UPDATE : Balance Updated for instruments bought\n            instrumentStates[token_sold].balance = new_sold_token_amount;       // STATE UPDATE : Balance Updated for instruments sold\n\n            uint tokenBoughtAmount = sub(new_bought_token_amount,prev_bought_token_amount,\"New Token Balance for tokens that are being Bought is lower than its initial balance\");\n            uint tokenSoldAmount = sub(prev_sold_token_amount,new_sold_token_amount,\"New Token Balance for tokens that are being Sold is higher than its initial balance\");\n\n            emit TokensBought( token_bought, prev_bought_token_amount, tokenBoughtAmount,  new_bought_token_amount);\n            emit TokensSold( token_sold, prev_sold_token_amount, tokenSoldAmount, new_sold_token_amount );   \n            emit TokenSwapTransactionData( _data );\n            return true;         \n        }\n\n        return false;\n    }\n\n    /**\n      * @notice Transfers the SIGH Tokens to the Target Address\n      * @param target_ Address to which the amount is to be transferred\n      * @param amount The Amount to be transferred\n      * @return returns the Dripped Amount\n    */    \n    function transferSighTo(address target_, uint amount) external onlySighFinanceConfigurator returns (uint) {\n        require(instrumentStates[address(sigh_Instrument)].initialized,\"SIGH Instrument has not been initialized yet.\");\n        uint currentTradeSize = updatemaxTransferAmount(amount);\n        \n        require(sigh_Instrument.transfer(target_, currentTradeSize), 'The transfer did not complete.' );        // TRANSFERRING SIGH\n        \n        uint prevTransferAmount = instrumentStates[address(sigh_Instrument)].totalAmountTransferred;\n        instrumentStates[address(sigh_Instrument)].totalAmountTransferred = add(prevTransferAmount,currentTradeSize,\"Error when updating total SIGH Transferred\");   // STATE UPDATE : totalAmountTransferred\n        instrumentStates[address(sigh_Instrument)].balance = sigh_Instrument.balanceOf(address(this));                                                               // STATE UPDATE : SIGH balance updated\n\n        emit SIGHTransferred( target_ , currentTradeSize,  block.number );\n        return currentTradeSize;\n    }\n    \n    // A CERTAIN NUMBER OF BLOCKS NEED TO PASS BETWEEN TRANSFER SIGH FUNCTION EXECUTION\n    function updatemaxTransferAmount(uint sigh_amount) internal returns (uint)  {\n\n        uint blockNumber = block.number;\n        uint dif = sub(blockNumber, periodInitializationBlock, 'underflow');\n        \n        if ( dif > periodLength )   {\n            uint currentBalance = sigh_Instrument.balanceOf(address(this)); // get total Supply\n            uint prevmaxTransferAmount = maxSIGHTransferLimit;\n            maxSIGHTransferLimit = div(currentBalance,25,'updatemaxTransferAmount: Division returned error');  // STATE UPDATE : MAXIMUM SIGH THAT CAN BE TRANSFERRED UPDATED (4% in a day is the max)\n            periodInitializationBlock = block.number;                                                                  // STATE UPDATE: Block number when this period begins is stored\n            emit maxTransferAmountUpdated(prevmaxTransferAmount,maxSIGHTransferLimit);\n\n            totalSighTradedAndTransferred = min(sigh_amount,maxSIGHTransferLimit );\n            return totalSighTradedAndTransferred;\n        }     \n        else {\n            uint maxTradeSize = sub(maxSIGHTransferLimit,totalSighTradedAndTransferred,\"Error when subtracting current amount of sigh trade/transferred from max sigh transfer limit \" );\n            uint currentTradeSize = min( maxTradeSize, sigh_amount);\n            uint prevtotalSighTradedAndTransferred = totalSighTradedAndTransferred;\n            totalSighTradedAndTransferred = add(prevtotalSighTradedAndTransferred,currentTradeSize,\"Error when updating total Sigh amount traded / transferred during the current period \" );\n            return currentTradeSize;\n        }\n    }\n\n\n// ########################################\n// ###########   VIEW FUNCTIONS  ##########\n// ########################################\n\n    // INSTRUMENT STATE RELATED VIEW FUNCTIONS\n    \n    function getInstrumentState(address instrument) external view returns ( bool initialized, string memory name, uint balance, uint totalAmountDripped, uint totalAmountTransferred) {\n        return (instrumentStates[instrument].initialized , instrumentStates[instrument].name , instrumentStates[instrument].balance , instrumentStates[instrument].totalAmountDripped , instrumentStates[instrument].totalAmountTransferred  );\n    }\n\n    function getAllInstruments() external view returns (address[] memory) {\n        return allInstruments;        \n    }\n\n    function totalInstruments() external view returns (uint) {\n        return allInstruments.length;\n    }\n\n    function getInstrumentBalance(address instrument_address) external view returns (uint) {\n        return instrumentStates[instrument_address].balance;\n    }\n    \n    function getTotalDrippedAmount(address instrument_address) external view returns (uint) {\n        return instrumentStates[instrument_address].totalAmountDripped;\n    }\n\n    function getTotalTransferredAmount(address instrument_address) external view returns (uint) {\n        return instrumentStates[instrument_address].totalAmountTransferred;\n    }\n\n    function getSIGHBalance() external view returns (uint) {\n        IERC20 token_ = sigh_Instrument;\n        uint treasuryBalance_ = token_.balanceOf(address(this)); // get current SIGH balance\n        return treasuryBalance_;\n    }\n\n\n    // INSTRUMENT DISTRIBUTION (PER BLOCK DRIPPING) RELATED VIEW FUNCTIONS\n\n    function getDistributionState() external view returns( bool isAllowed, address targetAddress, address instrumentBeingDistributed, uint speed ) {\n        return (treasuryDripState.isDripAllowed , treasuryDripState.targetAddressForDripping , treasuryDripState.instrumentBeingDripped , treasuryDripState.DripSpeed  );\n    }\n\n    function isDistributionAllowed() external view returns (bool) {\n        return treasuryDripState.isDripAllowed;\n    }\n\n    function getTargetAddressForDistribution() external view returns (address) {\n        return treasuryDripState.targetAddressForDripping;\n    }\n\n    function getinstrumentBeingDripped() external view returns (address) {\n        if (treasuryDripState.isDripAllowed) {\n            return treasuryDripState.instrumentBeingDripped;\n        }\n        return address(0);\n    }\n\n    function getDistributionSpeed() external view returns (uint) {\n        if (treasuryDripState.isDripAllowed) {\n            return treasuryDripState.DripSpeed;\n        }\n        return 0;\n    }\n\n    // SIGH BURN RELATED VIEW FUNCTIONS\n\n    function getBurnState() external view returns ( bool isAllowed, uint burnSpeed, uint totalSighBurnt, uint sighBalance) {\n        return (sighBurnState.is_SIGH_BurnAllowed ,sighBurnState.SIGHBurnSpeed ,sighBurnState.totalBurntSIGH, sigh_Instrument.balanceOf(address(this)) );\n    }\n\n    function getBurnSpeed() external view returns (uint) {\n        if (sighBurnState.is_SIGH_BurnAllowed) {\n            return sighBurnState.SIGHBurnSpeed;\n        }\n        return 0;\n    }\n\n    function getTotalBurntSigh() external view returns (uint) {\n        return sighBurnState.totalBurntSIGH;\n    }\n    \n    // SIGH TRANSFER LIMIT RELATED functions\n    \n    function getCurrentSIGHTransferState() external view returns (uint maxSIGHSpentLimit, uint totalSighTransferredAndTraded ) {\n        return (maxSIGHTransferLimit, totalSighTradedAndTransferred);\n    }\n    \n    function blocksRemainingForNextPeriod() external view returns (uint) {\n        uint dif = sub(block.number, periodInitializationBlock,\"Error during subtraction\" );\n        if (dif >= periodLength ) {\n            return uint(0);\n        }\n        uint deltaAns = sub(periodLength, dif,\"Error during final Subtraction\" );\n        return deltaAns;\n    }\n    \n\n// ####################################################\n// ###########   Internal helper functions  ##########\n// ####################################################\n\n\n  /* Internal helper functions for safe math */\n\n    function add(uint a, uint b, string memory errorMessage) internal pure returns (uint) {\n        uint c = a + b;\n        require(c >= a, errorMessage);\n        return c;\n    }\n\n    function sub(uint a, uint b, string memory errorMessage) internal pure returns (uint) {\n        require(b <= a, errorMessage);\n        uint c = a - b;\n        return c;\n    }\n\n    function mul(uint a, uint b, string memory errorMessage) internal pure returns (uint) {\n        if (a == 0) {\n        return 0;\n        }\n        uint c = a * b;\n        require(c / a == b, errorMessage);\n        return c;\n    }\n\n    function min(uint a, uint b) internal pure returns (uint) {\n        if (a <= b) {\n        return a;\n        } else {\n        return b;\n        }\n    }\n\n    function div(uint256 a, uint256 b, string memory errorMessage) internal pure returns (uint256) {\n        // Solidity only automatically asserts when dividing by 0\n        require(b > 0, errorMessage);\n        uint256 c = a / b;\n        // assert(a == b * c + a % b); // There is no case in which this doesn't hold\n\n        return c;\n    }\n\n\n}",
  "sourcePath": "/Users/apple/Desktop/GITCOIN/Sigh_Finance/SighFinanceContracts/contracts/SIGHFinanceContracts/Treasury/TreasuryV1Impl.sol",
  "compiler": {
    "name": "solc",
    "version": "0.5.16+commit.9c3226ce.Emscripten.clang"
  },
  "schemaVersion": "3.2.4",
  "updatedAt": "2020-11-06T13:01:11.530Z",
  "devdoc": {
    "methods": {
      "changeInstrumentBeingDripped(address)": {
        "params": {
          "instrumentToDrip": "Address of the token to be dripped"
        },
        "return": "returns the address of the token that will be Dripped"
      },
      "drip()": {
        "return": "returns the Dripped Amount"
      },
      "resetInstrumentDistribution()": {
        "return": "return is Dripping is allowed or not"
      },
      "transferSighTo(address,uint256)": {
        "params": {
          "amount": "The Amount to be transferred",
          "target_": "Address to which the amount is to be transferred"
        },
        "return": "returns the Dripped Amount"
      }
    }
  },
  "userdoc": {
    "methods": {
      "changeInstrumentBeingDripped(address)": {
        "notice": "Change the token being dripped to the Target Address"
      },
      "drip()": {
        "notice": "Drips the Tokens to the SIGHDistributionHandler"
      },
      "resetInstrumentDistribution()": {
        "notice": "Switch to Reset (OFF) Dripping"
      },
      "transferSighTo(address,uint256)": {
        "notice": "Transfers the SIGH Tokens to the Target Address"
      }
    }
  }
}