{
  "contractName": "Treasury",
  "abi": [
    {
      "anonymous": false,
      "inputs": [
        {
          "indexed": false,
          "internalType": "address",
          "name": "targetAddress",
          "type": "address"
        },
        {
          "indexed": false,
          "internalType": "address",
          "name": "instrumentBeingDripped",
          "type": "address"
        },
        {
          "indexed": false,
          "internalType": "uint256",
          "name": "currentBalance",
          "type": "uint256"
        },
        {
          "indexed": false,
          "internalType": "uint256",
          "name": "AmountDripped",
          "type": "uint256"
        },
        {
          "indexed": false,
          "internalType": "uint256",
          "name": "totalAmountDripped",
          "type": "uint256"
        }
      ],
      "name": "AmountDripped",
      "type": "event"
    },
    {
      "anonymous": false,
      "inputs": [
        {
          "indexed": false,
          "internalType": "bool",
          "name": "prevDripAllowed",
          "type": "bool"
        },
        {
          "indexed": false,
          "internalType": "bool",
          "name": "newDripAllowed",
          "type": "bool"
        },
        {
          "indexed": false,
          "internalType": "uint256",
          "name": "blockNumber",
          "type": "uint256"
        }
      ],
      "name": "DripAllowedChanged",
      "type": "event"
    },
    {
      "anonymous": false,
      "inputs": [
        {
          "indexed": false,
          "internalType": "uint256",
          "name": "prevDripSpeed",
          "type": "uint256"
        },
        {
          "indexed": false,
          "internalType": "uint256",
          "name": "curDripSpeed",
          "type": "uint256"
        },
        {
          "indexed": false,
          "internalType": "uint256",
          "name": "blockNumber",
          "type": "uint256"
        }
      ],
      "name": "DripSpeedChanged",
      "type": "event"
    },
    {
      "anonymous": false,
      "inputs": [
        {
          "indexed": false,
          "internalType": "bool",
          "name": "prevBurnAllowed",
          "type": "bool"
        },
        {
          "indexed": false,
          "internalType": "bool",
          "name": "newBurnAllowed",
          "type": "bool"
        },
        {
          "indexed": false,
          "internalType": "uint256",
          "name": "blockNumber",
          "type": "uint256"
        }
      ],
      "name": "SIGHBurnAllowedChanged",
      "type": "event"
    },
    {
      "anonymous": false,
      "inputs": [
        {
          "indexed": false,
          "internalType": "uint256",
          "name": "prevSpeed",
          "type": "uint256"
        },
        {
          "indexed": false,
          "internalType": "uint256",
          "name": "newSpeed",
          "type": "uint256"
        },
        {
          "indexed": false,
          "internalType": "uint256",
          "name": "blockNumber",
          "type": "uint256"
        }
      ],
      "name": "SIGHBurnSpeedChanged",
      "type": "event"
    },
    {
      "anonymous": false,
      "inputs": [
        {
          "indexed": true,
          "internalType": "address",
          "name": "TargetAddress",
          "type": "address"
        },
        {
          "indexed": false,
          "internalType": "uint256",
          "name": "amountTransferred",
          "type": "uint256"
        },
        {
          "indexed": false,
          "internalType": "uint256",
          "name": "blockNumber",
          "type": "uint256"
        }
      ],
      "name": "SIGHTransferred",
      "type": "event"
    },
    {
      "anonymous": false,
      "inputs": [
        {
          "indexed": false,
          "internalType": "address",
          "name": "msgSender",
          "type": "address"
        },
        {
          "indexed": false,
          "internalType": "address",
          "name": "addressesProvider",
          "type": "address"
        },
        {
          "indexed": false,
          "internalType": "address",
          "name": "SIGH",
          "type": "address"
        },
        {
          "indexed": false,
          "internalType": "address",
          "name": "sighDistributionHandler",
          "type": "address"
        }
      ],
      "name": "SIGHTreasuryInitialized",
      "type": "event"
    },
    {
      "anonymous": false,
      "inputs": [
        {
          "indexed": false,
          "internalType": "address",
          "name": "sigh_Address",
          "type": "address"
        },
        {
          "indexed": false,
          "internalType": "uint256",
          "name": "amount",
          "type": "uint256"
        },
        {
          "indexed": false,
          "internalType": "uint256",
          "name": "totalSIGHBurned",
          "type": "uint256"
        },
        {
          "indexed": false,
          "internalType": "uint256",
          "name": "remaining_balance",
          "type": "uint256"
        },
        {
          "indexed": false,
          "internalType": "uint256",
          "name": "blockNumber",
          "type": "uint256"
        }
      ],
      "name": "SIGH_Burned",
      "type": "event"
    },
    {
      "anonymous": false,
      "inputs": [
        {
          "indexed": false,
          "internalType": "bytes",
          "name": "data",
          "type": "bytes"
        }
      ],
      "name": "TokenSwapTransactionData",
      "type": "event"
    },
    {
      "anonymous": false,
      "inputs": [
        {
          "indexed": true,
          "internalType": "address",
          "name": "instrument_address",
          "type": "address"
        },
        {
          "indexed": false,
          "internalType": "uint256",
          "name": "prev_balance",
          "type": "uint256"
        },
        {
          "indexed": false,
          "internalType": "uint256",
          "name": "amount",
          "type": "uint256"
        },
        {
          "indexed": false,
          "internalType": "uint256",
          "name": "new_balance",
          "type": "uint256"
        }
      ],
      "name": "TokensBought",
      "type": "event"
    },
    {
      "anonymous": false,
      "inputs": [
        {
          "indexed": true,
          "internalType": "address",
          "name": "instrument_address",
          "type": "address"
        },
        {
          "indexed": false,
          "internalType": "uint256",
          "name": "prev_balance",
          "type": "uint256"
        },
        {
          "indexed": false,
          "internalType": "uint256",
          "name": "amount",
          "type": "uint256"
        },
        {
          "indexed": false,
          "internalType": "uint256",
          "name": "new_balance",
          "type": "uint256"
        }
      ],
      "name": "TokensSold",
      "type": "event"
    },
    {
      "anonymous": false,
      "inputs": [
        {
          "indexed": false,
          "internalType": "address",
          "name": "prevInstrument",
          "type": "address"
        },
        {
          "indexed": false,
          "internalType": "address",
          "name": "newToken",
          "type": "address"
        },
        {
          "indexed": false,
          "internalType": "uint256",
          "name": "blockNumber",
          "type": "uint256"
        }
      ],
      "name": "instrumentBeingDistributedChanged",
      "type": "event"
    },
    {
      "anonymous": false,
      "inputs": [
        {
          "indexed": false,
          "internalType": "uint256",
          "name": "prevmaxTransferAmount",
          "type": "uint256"
        },
        {
          "indexed": false,
          "internalType": "uint256",
          "name": "newmaxTransferAmount",
          "type": "uint256"
        }
      ],
      "name": "maxTransferAmountUpdated",
      "type": "event"
    },
    {
      "constant": true,
      "inputs": [],
      "name": "addressesProvider",
      "outputs": [
        {
          "internalType": "contract GlobalAddressesProvider",
          "name": "",
          "type": "address"
        }
      ],
      "payable": false,
      "stateMutability": "view",
      "type": "function"
    },
    {
      "constant": true,
      "inputs": [],
      "name": "coolDownPeriod",
      "outputs": [
        {
          "internalType": "uint256",
          "name": "",
          "type": "uint256"
        }
      ],
      "payable": false,
      "stateMutability": "view",
      "type": "function"
    },
    {
      "constant": true,
      "inputs": [],
      "name": "is_SIGH_BurnAllowed",
      "outputs": [
        {
          "internalType": "bool",
          "name": "",
          "type": "bool"
        }
      ],
      "payable": false,
      "stateMutability": "view",
      "type": "function"
    },
    {
      "constant": true,
      "inputs": [],
      "name": "lastBurnBlockNumber",
      "outputs": [
        {
          "internalType": "uint256",
          "name": "",
          "type": "uint256"
        }
      ],
      "payable": false,
      "stateMutability": "view",
      "type": "function"
    },
    {
      "constant": true,
      "inputs": [],
      "name": "lastDripBlockNumber",
      "outputs": [
        {
          "internalType": "uint256",
          "name": "",
          "type": "uint256"
        }
      ],
      "payable": false,
      "stateMutability": "view",
      "type": "function"
    },
    {
      "constant": true,
      "inputs": [],
      "name": "maxTransferAmount",
      "outputs": [
        {
          "internalType": "uint256",
          "name": "",
          "type": "uint256"
        }
      ],
      "payable": false,
      "stateMutability": "view",
      "type": "function"
    },
    {
      "constant": true,
      "inputs": [],
      "name": "oracle",
      "outputs": [
        {
          "internalType": "contract IPriceOracleGetter",
          "name": "",
          "type": "address"
        }
      ],
      "payable": false,
      "stateMutability": "view",
      "type": "function"
    },
    {
      "constant": true,
      "inputs": [],
      "name": "prevTransferBlock",
      "outputs": [
        {
          "internalType": "uint256",
          "name": "",
          "type": "uint256"
        }
      ],
      "payable": false,
      "stateMutability": "view",
      "type": "function"
    },
    {
      "constant": false,
      "inputs": [
        {
          "internalType": "address",
          "name": "addressesProvider_",
          "type": "address"
        }
      ],
      "name": "initialize",
      "outputs": [],
      "payable": false,
      "stateMutability": "nonpayable",
      "type": "function"
    },
    {
      "constant": false,
      "inputs": [],
      "name": "refreshConfig",
      "outputs": [],
      "payable": false,
      "stateMutability": "nonpayable",
      "type": "function"
    },
    {
      "constant": false,
      "inputs": [
        {
          "internalType": "address",
          "name": "allowanceTarget",
          "type": "address"
        },
        {
          "internalType": "address payable",
          "name": "to",
          "type": "address"
        },
        {
          "internalType": "bytes",
          "name": "callDataHex",
          "type": "bytes"
        },
        {
          "internalType": "address",
          "name": "token_bought",
          "type": "address"
        },
        {
          "internalType": "address",
          "name": "token_sold",
          "type": "address"
        },
        {
          "internalType": "uint256",
          "name": "sellAmount",
          "type": "uint256"
        }
      ],
      "name": "swapTokensUsingOxAPI",
      "outputs": [
        {
          "internalType": "bool",
          "name": "",
          "type": "bool"
        }
      ],
      "payable": true,
      "stateMutability": "payable",
      "type": "function"
    },
    {
      "constant": false,
      "inputs": [
        {
          "internalType": "uint256",
          "name": "isAllowed",
          "type": "uint256"
        }
      ],
      "name": "changeSIGHBurnAllowed",
      "outputs": [
        {
          "internalType": "bool",
          "name": "",
          "type": "bool"
        }
      ],
      "payable": false,
      "stateMutability": "nonpayable",
      "type": "function"
    },
    {
      "constant": false,
      "inputs": [
        {
          "internalType": "uint256",
          "name": "newBurnSpeed",
          "type": "uint256"
        }
      ],
      "name": "updateSIGHBurnSpeed",
      "outputs": [],
      "payable": false,
      "stateMutability": "nonpayable",
      "type": "function"
    },
    {
      "constant": false,
      "inputs": [],
      "name": "burnSIGHTokens",
      "outputs": [
        {
          "internalType": "uint256",
          "name": "",
          "type": "uint256"
        }
      ],
      "payable": false,
      "stateMutability": "nonpayable",
      "type": "function"
    },
    {
      "constant": false,
      "inputs": [
        {
          "internalType": "address",
          "name": "targetAddress",
          "type": "address"
        },
        {
          "internalType": "address",
          "name": "instrumentToBeDistributed",
          "type": "address"
        },
        {
          "internalType": "uint256",
          "name": "distributionSpeed",
          "type": "uint256"
        }
      ],
      "name": "initializeInstrumentDistribution",
      "outputs": [
        {
          "internalType": "bool",
          "name": "",
          "type": "bool"
        }
      ],
      "payable": false,
      "stateMutability": "nonpayable",
      "type": "function"
    },
    {
      "constant": false,
      "inputs": [
        {
          "internalType": "address",
          "name": "instrumentToDrip",
          "type": "address"
        }
      ],
      "name": "changeInstrumentBeingDripped",
      "outputs": [
        {
          "internalType": "bool",
          "name": "",
          "type": "bool"
        }
      ],
      "payable": false,
      "stateMutability": "nonpayable",
      "type": "function"
    },
    {
      "constant": false,
      "inputs": [
        {
          "internalType": "uint256",
          "name": "DripSpeed_",
          "type": "uint256"
        }
      ],
      "name": "updateDripSpeed",
      "outputs": [
        {
          "internalType": "bool",
          "name": "",
          "type": "bool"
        }
      ],
      "payable": false,
      "stateMutability": "nonpayable",
      "type": "function"
    },
    {
      "constant": false,
      "inputs": [],
      "name": "resetInstrumentDistribution",
      "outputs": [
        {
          "internalType": "bool",
          "name": "",
          "type": "bool"
        }
      ],
      "payable": false,
      "stateMutability": "nonpayable",
      "type": "function"
    },
    {
      "constant": false,
      "inputs": [],
      "name": "drip",
      "outputs": [
        {
          "internalType": "uint256",
          "name": "",
          "type": "uint256"
        }
      ],
      "payable": false,
      "stateMutability": "nonpayable",
      "type": "function"
    },
    {
      "constant": false,
      "inputs": [
        {
          "internalType": "address",
          "name": "target_",
          "type": "address"
        },
        {
          "internalType": "uint256",
          "name": "amount",
          "type": "uint256"
        }
      ],
      "name": "transferSighTo",
      "outputs": [
        {
          "internalType": "bool",
          "name": "",
          "type": "bool"
        }
      ],
      "payable": false,
      "stateMutability": "nonpayable",
      "type": "function"
    },
    {
      "constant": false,
      "inputs": [
        {
          "internalType": "address",
          "name": "instrument_address",
          "type": "address"
        }
      ],
      "name": "updateInstrumentBalance",
      "outputs": [
        {
          "internalType": "uint256",
          "name": "",
          "type": "uint256"
        }
      ],
      "payable": false,
      "stateMutability": "nonpayable",
      "type": "function"
    },
    {
      "constant": true,
      "inputs": [],
      "name": "getSIGHBalance",
      "outputs": [
        {
          "internalType": "uint256",
          "name": "",
          "type": "uint256"
        }
      ],
      "payable": false,
      "stateMutability": "view",
      "type": "function"
    },
    {
      "constant": true,
      "inputs": [
        {
          "internalType": "address",
          "name": "instrument_address",
          "type": "address"
        }
      ],
      "name": "getInstrumentBalance",
      "outputs": [
        {
          "internalType": "uint256",
          "name": "",
          "type": "uint256"
        }
      ],
      "payable": false,
      "stateMutability": "view",
      "type": "function"
    },
    {
      "constant": true,
      "inputs": [],
      "name": "isDistributionAllowed",
      "outputs": [
        {
          "internalType": "bool",
          "name": "",
          "type": "bool"
        }
      ],
      "payable": false,
      "stateMutability": "view",
      "type": "function"
    },
    {
      "constant": true,
      "inputs": [],
      "name": "getTargetAddressForDistribution",
      "outputs": [
        {
          "internalType": "address",
          "name": "",
          "type": "address"
        }
      ],
      "payable": false,
      "stateMutability": "view",
      "type": "function"
    },
    {
      "constant": true,
      "inputs": [],
      "name": "getinstrumentBeingDripped",
      "outputs": [
        {
          "internalType": "address",
          "name": "",
          "type": "address"
        }
      ],
      "payable": false,
      "stateMutability": "view",
      "type": "function"
    },
    {
      "constant": true,
      "inputs": [
        {
          "internalType": "address",
          "name": "token",
          "type": "address"
        }
      ],
      "name": "getTotalDrippedAmount",
      "outputs": [
        {
          "internalType": "uint256",
          "name": "",
          "type": "uint256"
        }
      ],
      "payable": false,
      "stateMutability": "view",
      "type": "function"
    },
    {
      "constant": true,
      "inputs": [],
      "name": "getDistributionSpeed",
      "outputs": [
        {
          "internalType": "uint256",
          "name": "",
          "type": "uint256"
        }
      ],
      "payable": false,
      "stateMutability": "view",
      "type": "function"
    },
    {
      "constant": true,
      "inputs": [],
      "name": "getBurnSpeed",
      "outputs": [
        {
          "internalType": "uint256",
          "name": "",
          "type": "uint256"
        }
      ],
      "payable": false,
      "stateMutability": "view",
      "type": "function"
    },
    {
      "constant": true,
      "inputs": [],
      "name": "getTotalBurntSigh",
      "outputs": [
        {
          "internalType": "uint256",
          "name": "",
          "type": "uint256"
        }
      ],
      "payable": false,
      "stateMutability": "view",
      "type": "function"
    }
  ],
  "bytecode": "0x608060405260006001819055603a805460ff191690556002603f5560435534801561002957600080fd5b50612ea7806100396000396000f3fe6080604052600436106101cd5760003560e01c80639ee3abea116100f7578063c72c4d1011610095578063e0db071411610064578063e0db0714146105b0578063e8f44459146105e3578063ef366b29146105f8578063fc5e11c31461060d576101cd565b8063c72c4d10146104ab578063d3ec44a3146104c0578063df28b7f1146104f9578063e0ae645f1461059b576101cd565b8063ada9774f116100d1578063ada9774f146103fd578063c4d66de814610430578063c699308e14610463578063c6a6bfb114610496576101cd565b80639ee3abea146103a95780639f678cca146103d3578063a9e75723146103e8576101cd565b80636089fee91161016f57806368fcccde1161013e57806368fcccde1461035357806377fd1aac146103685780637c55ccb31461037d5780637dc0d1d014610394576101cd565b80636089fee9146102bc57806360c65900146102e657806361bbea8a14610329578063685461a61461033e576101cd565b80632ff76e4c116101ab5780632ff76e4c1461026857806330f1ebb91461027d5780633138a4aa14610292578063325eb3ee146102a7576101cd565b806304de9fac146101d25780630a9e1180146102035780631c252db11461022a575b600080fd5b3480156101de57600080fd5b506101e7610640565b604080516001600160a01b039092168252519081900360200190f35b34801561020f57600080fd5b5061021861066c565b60408051918252519081900360200190f35b34801561023657600080fd5b506102546004803603602081101561024d57600080fd5b5035610672565b604080519115158252519081900360200190f35b34801561027457600080fd5b5061021861079f565b34801561028957600080fd5b506102186107a5565b34801561029e57600080fd5b506102186107ab565b3480156102b357600080fd5b506102186107c2565b3480156102c857600080fd5b50610254600480360360208110156102df57600080fd5b5035610b22565b3480156102f257600080fd5b506102546004803603606081101561030957600080fd5b506001600160a01b03813581169160208101359091169060400135610c75565b34801561033557600080fd5b506101e7610e42565b34801561034a57600080fd5b50610218610e51565b34801561035f57600080fd5b50610254610e57565b34801561037457600080fd5b50610218610e60565b34801561038957600080fd5b50610392610e77565b005b3480156103a057600080fd5b506101e7610f36565b3480156103b557600080fd5b50610392600480360360208110156103cc57600080fd5b5035610f45565b3480156103df57600080fd5b50610218611041565b3480156103f457600080fd5b506102186114ac565b34801561040957600080fd5b506102186004803603602081101561042057600080fd5b50356001600160a01b03166114b2565b34801561043c57600080fd5b506103926004803603602081101561045357600080fd5b50356001600160a01b0316611561565b34801561046f57600080fd5b506102186004803603602081101561048657600080fd5b50356001600160a01b0316611623565b3480156104a257600080fd5b5061021861163e565b3480156104b757600080fd5b506101e76116c0565b3480156104cc57600080fd5b50610254600480360360408110156104e357600080fd5b506001600160a01b0381351690602001356116cf565b610254600480360360c081101561050f57600080fd5b6001600160a01b03823581169260208101359091169181019060608101604082013564010000000081111561054357600080fd5b82018360208201111561055557600080fd5b8035906020019184600183028401116401000000008311171561057757600080fd5b91935091506001600160a01b03813581169160208101359091169060400135611ae0565b3480156105a757600080fd5b506102546120a8565b3480156105bc57600080fd5b50610218600480360360208110156105d357600080fd5b50356001600160a01b03166121fe565b3480156105ef57600080fd5b50610218612219565b34801561060457600080fd5b5061025461221f565b34801561061957600080fd5b506102546004803603602081101561063057600080fd5b50356001600160a01b0316612228565b603a5460009060ff16156106655750603a5461010090046001600160a01b0316610669565b5060005b90565b60405481565b6000336001600160a01b0316603660009054906101000a90046001600160a01b03166001600160a01b031663db49224b6040518163ffffffff1660e01b815260040160206040518083038186803b1580156106cc57600080fd5b505afa1580156106e0573d6000803e3d6000fd5b505050506040513d60208110156106f657600080fd5b50516001600160a01b03161461073d5760405162461bcd60e51b815260040180806020018281038252603a815260200180612a45603a913960400191505060405180910390fd5b603a5460ff161561075257610750611041565b505b61075b8261234c565b6107965760405162461bcd60e51b815260040180806020018281038252602c8152602001806129c6602c913960400191505060405180910390fd5b5060015b919050565b60435490565b603f5481565b60415460009060ff16156106655750604254610669565b60415460009060ff1615806107d75750604254155b156107e457506000610669565b603554604080516370a0823160e01b815230600482015290516001600160a01b0390921691829160009183916370a08231916024808301926020929190829003018186803b15801561083557600080fd5b505afa158015610849573d6000803e3d6000fd5b505050506040513d602081101561085f57600080fd5b505160445460408051606081019091526025808252929350439260009261088f9285926129f260208301396123a1565b905060006108ca60425483604051806040016040528060128152602001714275726e546f74616c206f766572666c6f7760701b815250612438565b905060006108d885836124ac565b9050846109165760405162461bcd60e51b8152600401808060200182810382526035815260200180612d556035913960400191505060405180910390fd5b856001600160a01b03166342966c68826040518263ffffffff1660e01b815260040180828152602001915050602060405180830381600087803b15801561095c57600080fd5b505af1158015610970573d6000803e3d6000fd5b505050506040513d602081101561098657600080fd5b50516109d9576040805162461bcd60e51b815260206004820181905260248201527f5468652053494748206275726e20776173206e6f74207375636365737366756c604482015290519081900360640190fd5b604484905560435460408051808201909152601981527f546f74616c2053696768204275726e74204f766572666c6f77000000000000006020820152610a2290829084906124c3565b604355604080516370a0823160e01b815230600482015290516001600160a01b038916916370a08231916024808301926020929190829003018186803b158015610a6b57600080fd5b505afa158015610a7f573d6000803e3d6000fd5b505050506040513d6020811015610a9557600080fd5b5051603580546001600160a01b039081166000908152603860209081526040918290208590559254604354604454835192909416825293810187905280820193909352606083018490526080830191909152519197507fb317d5e3c5d92c9e3a82d7631097452b40a2029af2d50dde53b91eaa7b638b2a919081900360a00190a150965050505050505090565b6000336001600160a01b0316603660009054906101000a90046001600160a01b03166001600160a01b031663db49224b6040518163ffffffff1660e01b815260040160206040518083038186803b158015610b7c57600080fd5b505afa158015610b90573d6000803e3d6000fd5b505050506040513d6020811015610ba657600080fd5b50516001600160a01b031614610bed5760405162461bcd60e51b815260040180806020018281038252603a815260200180612a45603a913960400191505060405180910390fd5b60415460ff1682610c12576041805460ff19169055610c0c6000612518565b50610c20565b6041805460ff191660011790555b60415460408051831515815260ff909216151560208301524382820152517f340134b8f39dfb321185a748b00e5776174d1520fe231549f857ac5cd95891489181900360600190a1505060415460ff16919050565b6000336001600160a01b0316603660009054906101000a90046001600160a01b03166001600160a01b031663db49224b6040518163ffffffff1660e01b815260040160206040518083038186803b158015610ccf57600080fd5b505afa158015610ce3573d6000803e3d6000fd5b505050506040513d6020811015610cf957600080fd5b50516001600160a01b031614610d405760405162461bcd60e51b815260040180806020018281038252603a815260200180612a45603a913960400191505060405180910390fd5b603a5460ff1615610d825760405162461bcd60e51b815260040180806020018281038252604c815260200180612c04604c913960600191505060405180910390fd5b603b80546001600160a01b0319166001600160a01b038616179055610da683612584565b610de15760405162461bcd60e51b8152600401808060200182810382526032815260200180612cf36032913960400191505060405180910390fd5b610dea8261234c565b610e255760405162461bcd60e51b815260040180806020018281038252602c8152602001806129c6602c913960400191505060405180910390fd5b50603a805460ff1916600190811790915543603d555b9392505050565b603b546001600160a01b031690565b60445481565b603a5460ff1690565b603a5460009060ff16156106655750603c54610669565b6036546040805163db49224b60e01b8152905133926001600160a01b03169163db49224b916004808301926020929190829003018186803b158015610ebb57600080fd5b505afa158015610ecf573d6000803e3d6000fd5b505050506040513d6020811015610ee557600080fd5b50516001600160a01b031614610f2c5760405162461bcd60e51b815260040180806020018281038252603a815260200180612a45603a913960400191505060405180910390fd5b610f34612708565b565b6037546001600160a01b031681565b6036546040805163db49224b60e01b8152905133926001600160a01b03169163db49224b916004808301926020929190829003018186803b158015610f8957600080fd5b505afa158015610f9d573d6000803e3d6000fd5b505050506040513d6020811015610fb357600080fd5b50516001600160a01b031614610ffa5760405162461bcd60e51b815260040180806020018281038252603a815260200180612a45603a913960400191505060405180910390fd5b61100381612518565b61103e5760405162461bcd60e51b8152600401808060200182810382526028815260200180612a7f6028913960400191505060405180910390fd5b50565b603a5460009060ff166110855760405162461bcd60e51b8152600401808060200182810382526035815260200180612cbe6035913960400191505060405180910390fd5b603b546001600160a01b03166110e2576040805162461bcd60e51b815260206004820152601f60248201527f546865207461726765742061646472657373206973206e6f742076616c696400604482015290519081900360640190fd5b6000603c54116111235760405162461bcd60e51b8152600401808060200182810382526025815260200180612dd76025913960400191505060405180910390fd5b603a54604080516370a0823160e01b815230600482015290516101009092046001600160a01b03169160009183916370a0823191602480820192602092909190829003018186803b15801561117757600080fd5b505afa15801561118b573d6000803e3d6000fd5b505050506040513d60208110156111a157600080fd5b5051603d5460408051808201909152601d81527f426c6f636b7320537562737472616374696f6e206f76657272666c6f77000000602082015291925043916000916111ee918491906123a1565b90506000611229603c54836040518060400160405280601281526020017164726970546f74616c206f766572666c6f7760701b815250612438565b9050600061123785836124ac565b9050846112755760405162461bcd60e51b815260040180806020018281038252604a815260200180612dfc604a913960600191505060405180910390fd5b603b546040805163a9059cbb60e01b81526001600160a01b0392831660048201526024810184905290519188169163a9059cbb916044808201926020929091908290030181600087803b1580156112cb57600080fd5b505af11580156112df573d6000803e3d6000fd5b505050506040513d60208110156112f557600080fd5b50516113325760405162461bcd60e51b8152600401808060200182810382526029815260200180612b246029913960400191505060405180910390fd5b603d849055603a5461010090046001600160a01b031660009081526039602090815260409182902054825180840190935260088352674f766572666c6f7760c01b918301919091529061138890829084906124c3565b603a546001600160a01b0361010090910481166000908152603960209081526040918290209390935580516370a0823160e01b81523060048201529051918a16926370a0823192602480840193829003018186803b1580156113e957600080fd5b505afa1580156113fd573d6000803e3d6000fd5b505050506040513d602081101561141357600080fd5b5051603a80546001600160a01b036101009182900481166000908152603860209081526040808320879055603b5495549490940483168083526039825291849020548451959093168552840152828201869052606083018490526080830152519197507fa982b85190ae5aa0711a67ed15c2274b20390621b65382a3e2cda4f26251a520919081900360a00190a1509550505050505090565b603e5481565b604080516370a0823160e01b81523060048201529051600091839183916001600160a01b038416916370a0823191602480820192602092909190829003018186803b15801561150057600080fd5b505afa158015611514573d6000803e3d6000fd5b505050506040513d602081101561152a57600080fd5b505190508061153e5760009250505061079a565b6001600160a01b0384166000908152603860205260409020819055915050919050565b600061156b612828565b60025490915060ff1680611582575061158261282d565b8061158e575060015481115b6115c95760405162461bcd60e51b815260040180806020018281038252602e815260200180612b4d602e913960400191505060405180910390fd5b60025460ff161580156115ea576002805460ff191660019081179091558290555b603680546001600160a01b0319166001600160a01b03851617905561160d612708565b801561161e576002805460ff191690555b505050565b6001600160a01b031660009081526038602052604090205490565b603554604080516370a0823160e01b815230600482015290516000926001600160a01b031691839183916370a08231916024808301926020929190829003018186803b15801561168d57600080fd5b505afa1580156116a1573d6000803e3d6000fd5b505050506040513d60208110156116b757600080fd5b50519250505090565b6036546001600160a01b031681565b6000336001600160a01b0316603660009054906101000a90046001600160a01b03166001600160a01b031663db49224b6040518163ffffffff1660e01b815260040160206040518083038186803b15801561172957600080fd5b505afa15801561173d573d6000803e3d6000fd5b505050506040513d602081101561175357600080fd5b50516001600160a01b03161461179a5760405162461bcd60e51b815260040180806020018281038252603a815260200180612a45603a913960400191505060405180910390fd5b6117a2612833565b50603e5482106117e35760405162461bcd60e51b8152600401808060200182810382526036815260200180612b7b6036913960400191505060405180910390fd5b600043905060006118188260405460405180604001604052806009815260200168756e646572666c6f7760b81b8152506123a1565b9050603f54811161185a5760405162461bcd60e51b8152600401808060200182810382526029815260200180612afb6029913960400191505060405180910390fd5b603554604080516370a0823160e01b815230600482015290516001600160a01b039092169160009183916370a0823191602480820192602092909190829003018186803b1580156118aa57600080fd5b505afa1580156118be573d6000803e3d6000fd5b505050506040513d60208110156118d457600080fd5b505190508581116119165760405162461bcd60e51b815260040180806020018281038252604d815260200180612d8a604d913960600191505060405180910390fd5b816001600160a01b031663a9059cbb88886040518363ffffffff1660e01b815260040180836001600160a01b03166001600160a01b0316815260200182815260200192505050602060405180830381600087803b15801561197657600080fd5b505af115801561198a573d6000803e3d6000fd5b505050506040513d60208110156119a057600080fd5b50516119f3576040805162461bcd60e51b815260206004820152601e60248201527f546865207472616e7366657220646964206e6f7420636f6d706c6574652e0000604482015290519081900360640190fd5b43604090815580516370a0823160e01b815230600482015290516000916001600160a01b038516916370a0823191602480820192602092909190829003018186803b158015611a4157600080fd5b505afa158015611a55573d6000803e3d6000fd5b505050506040513d6020811015611a6b57600080fd5b50516035546001600160a01b0390811660009081526038602090815260409182902084905581518b815243918101919091528151939450918b16927fb78e8281051052bc316580ad439be0f09737b9b6bed3d0bc98830b0805c5f37b9281900390910190a26001955050505050505b92915050565b6000336001600160a01b0316603660009054906101000a90046001600160a01b03166001600160a01b031663878543546040518163ffffffff1660e01b815260040160206040518083038186803b158015611b3a57600080fd5b505afa158015611b4e573d6000803e3d6000fd5b505050506040513d6020811015611b6457600080fd5b50516001600160a01b031614611bab5760405162461bcd60e51b815260040180806020018281038252602d815260200180612e46602d913960400191505060405180910390fd5b604080516370a0823160e01b81523060048201529051859185916000916001600160a01b038516916370a0823191602480820192602092909190829003018186803b158015611bf957600080fd5b505afa158015611c0d573d6000803e3d6000fd5b505050506040513d6020811015611c2357600080fd5b5051604080516370a0823160e01b815230600482015290519192506000916001600160a01b038516916370a08231916024808301926020929190829003018186803b158015611c7157600080fd5b505afa158015611c85573d6000803e3d6000fd5b505050506040513d6020811015611c9b57600080fd5b50516040805163095ea7b360e01b81526001600160a01b038f81166004830152602482018a905291519293509085169163095ea7b3916044808201926020929091908290030181600087803b158015611cf357600080fd5b505af1158015611d07573d6000803e3d6000fd5b505050506040513d6020811015611d1d57600080fd5b5051611d2857600080fd5b600060608c6001600160a01b0316348d8d604051808383808284376040519201945060009350909150508083038185875af1925050503d8060008114611d8a576040519150601f19603f3d011682016040523d82523d6000602084013e611d8f565b606091505b509150915081611dda576040805162461bcd60e51b81526020600482015260116024820152701513d2d1538814d5d05408119052531151607a1b604482015290519081900360640190fd5b811561209257604080516370a0823160e01b815230600482015290516000916001600160a01b038916916370a0823191602480820192602092909190829003018186803b158015611e2a57600080fd5b505afa158015611e3e573d6000803e3d6000fd5b505050506040513d6020811015611e5457600080fd5b5051604080516370a0823160e01b815230600482015290519192506000916001600160a01b038916916370a08231916024808301926020929190829003018186803b158015611ea257600080fd5b505afa158015611eb6573d6000803e3d6000fd5b505050506040513d6020811015611ecc57600080fd5b50516001600160a01b03808e166000908152603860209081526040808320879055928f16825282822084905582516080810190935260548084529394509092611f209286928b9290612aa7908301396123a1565b90506000611f478784604051806080016040528060538152602001612bb1605391396123a1565b90508d6001600160a01b03167f22f6af6e13430e3e7b6418d01e6a48c1fbce5e8cb1698901fc95134b4b1c58ad89848760405180848152602001838152602001828152602001935050505060405180910390a2604080518881526020810183905280820185905290516001600160a01b038f16917f6db63bebf1e6540277744df32846ebdb98385b1a73f2d5de49b28348add63f50919081900360600190a27fdcfa816c675129132906d878736fcdb3261d869fd69cdeae5db3bef320f09e57856040518080602001828103825283818151815260200191508051906020019080838360005b8381101561204557818101518382015260200161202d565b50505050905090810190601f1680156120725780820380516001836020036101000a031916815260200191505b509250505060405180910390a160019a505050505050505050505061209d565b600096505050505050505b979650505050505050565b6000336001600160a01b0316603660009054906101000a90046001600160a01b03166001600160a01b031663db49224b6040518163ffffffff1660e01b815260040160206040518083038186803b15801561210257600080fd5b505afa158015612116573d6000803e3d6000fd5b505050506040513d602081101561212c57600080fd5b50516001600160a01b0316146121735760405162461bcd60e51b815260040180806020018281038252603a815260200180612a45603a913960400191505060405180910390fd5b603a5460ff1661218557506001610669565b61218d611041565b50603a80546000603c8190556001600160a81b0319909116909155603b80546001600160a01b0319169055604080516001815260208101929092524382820152517f0261ad1ea0d89ce43687ef439984742c8ffce8a6d523f570807626ebf50f9a4a9181900360600190a150600190565b6001600160a01b031660009081526039602052604090205490565b603d5481565b60415460ff1681565b6000336001600160a01b0316603660009054906101000a90046001600160a01b03166001600160a01b031663db49224b6040518163ffffffff1660e01b815260040160206040518083038186803b15801561228257600080fd5b505afa158015612296573d6000803e3d6000fd5b505050506040513d60208110156122ac57600080fd5b50516001600160a01b0316146122f35760405162461bcd60e51b815260040180806020018281038252603a815260200180612a45603a913960400191505060405180910390fd5b603a5460ff161561230857612306611041565b505b61231182612584565b61079a5760405162461bcd60e51b8152600401808060200182810382526032815260200180612cf36032913960400191505060405180910390fd5b603c805490829055604080518281526020810184905243818301529051600092917fcb726a38993fdfa3c520bb963d26a5dada83bc186122f7b5ff9d950c937e4606919081900360600190a150600192915050565b600081848411156124305760405162461bcd60e51b81526004018080602001828103825283818151815260200191508051906020019080838360005b838110156123f55781810151838201526020016123dd565b50505050905090810190601f1680156124225780820380516001836020036101000a031916815260200191505b509250505060405180910390fd5b505050900390565b60008361244757506000610e3b565b8383028385828161245457fe5b041483906124a35760405162461bcd60e51b81526020600482018181528351602484015283519092839260449091019190850190808383600083156123f55781810151838201526020016123dd565b50949350505050565b60008183116124bc575081611ada565b5080611ada565b600083830182858210156124a35760405162461bcd60e51b81526020600482018181528351602484015283519092839260449091019190850190808383600083156123f55781810151838201526020016123dd565b6042546000901561252d5761252b6107c2565b505b6042805490839055436044556042546040805183815260208101929092524382820152517fc2958fed67c1858352579a317ba3a6c042f4694ef53d27df67d39a3ddf6392339181900360600190a150600192915050565b604080516370a0823160e01b81523060048201529051600091839183916001600160a01b038416916370a0823191602480820192602092909190829003018186803b1580156125d257600080fd5b505afa1580156125e6573d6000803e3d6000fd5b505050506040513d60208110156125fc57600080fd5b505190508061263c5760405162461bcd60e51b8152600401808060200182810382526030815260200180612c506030913960400191505060405180910390fd5b603a80546001600160a01b03868116610100818102610100600160a81b031985161794859055928390048216939290920416146126aa5760405162461bcd60e51b815260040180806020018281038252603e815260200180612c80603e913960400191505060405180910390fd5b603a54604080516001600160a01b0380851682526101009093049290921660208301524382820152517f626284fdb3b033c18512415564ff71847488424ad208acaaba889829f900d02e9181900360600190a1506001949350505050565b603660009054906101000a90046001600160a01b03166001600160a01b031663841aa40c6040518163ffffffff1660e01b815260040160206040518083038186803b15801561275657600080fd5b505afa15801561276a573d6000803e3d6000fd5b505050506040513d602081101561278057600080fd5b5051603580546001600160a01b0319166001600160a01b0392831617905560365460408051631f94a27560e31b81529051919092169163fca513a8916004808301926020929190829003018186803b1580156127db57600080fd5b505afa1580156127ef573d6000803e3d6000fd5b505050506040513d602081101561280557600080fd5b5051603780546001600160a01b0319166001600160a01b03909216919091179055565b600190565b303b1590565b603554604080516318160ddd60e01b815290516000926001600160a01b031691839183916318160ddd916004808301926020929190829003018186803b15801561287c57600080fd5b505afa158015612890573d6000803e3d6000fd5b505050506040513d60208110156128a657600080fd5b50519050806128e65760405162461bcd60e51b815260040180806020018281038252602e815260200180612a17602e913960400191505060405180910390fd5b600061290d826103e8604051806060016040528060308152602001612d2560309139612960565b603e8054908290556040805182815260208101849052815193945091927fea9edb6222b8219485bb2f65063840de8ad18d12a4b1bfddbad68b5f80eab5219281900390910190a1603e5494505050505090565b600081836129af5760405162461bcd60e51b81526020600482018181528351602484015283519092839260449091019190850190808383600083156123f55781810151838201526020016123dd565b5060008385816129bb57fe5b049594505050505056fe446973747269627574696f6e205370656564206e6f7420696e697469616c697a65642070726f7065726c792e426c6f636b204e756d6265727320537562737472616374696f6e2067617665206572726f72546f74616c20537570706c79206f66205349474820746f6b656e732072657475726e6564206e6f742076616c69645468652063616c6c6572206d7573742062652074686520534947482046696e616e61636520436f6e666967757261746f7220436f6e747261637453696768204275726e20737065656420776173206e6f7420757064617465642070726f7065726c794e657720546f6b656e2042616c616e636520666f7220746f6b656e73207468617420617265206265696e6720426f75676874206973206c6f776572207468616e2069747320696e697469616c2062616c616e636554686520636f6f6c20646f776e20706572696f64206973206e6f742079657420636f6d706c6574656454686520496e737472756d656e74207472616e7366657220646964206e6f7420636f6d706c6574652e436f6e747261637420696e7374616e63652068617320616c7265616479206265656e20696e697469616c697a656454686520616d6f756e742070726f76696465642069732067726561746572207468616e2074686520616d6f756e7420616c6c6f7765644e657720546f6b656e2042616c616e636520666f7220746f6b656e73207468617420617265206265696e6720536f6c6420697320686967686572207468616e2069747320696e697469616c2062616c616e6365496e737472756d656e7420646973747269627574696f6e206e6565647320746f206265207265736574206265666f72652069742063616e20626520696e697469616c697a656420416761696e54686520547265617375727920646f6573206e6f7420686f6c64207468657365206e657720696e737472756d656e74734164647265737320666f722074686520696e737472756d656e7420746f2062652044726970706564206e6f742061737369676e65642070726f7065726c79496e737472756d656e7420646973747269627574696f6e2069732063757272656e746c79206e6f7420696e697469616c697a65642e496e737472756d656e7420746f206265206469737472696275746564206e6f742061737369676e65642070726f7065726c797570646174656d61785472616e73666572416d6f756e743a204469766973696f6e2072657475726e6564206572726f725468652074726561737572792063757272656e746c7920646f6573206e6f74206861766520616e79205349474820746f6b656e732e5468652063757272656e74207472656173757279277320534947482062616c616e6365206973206c657373207468616e2074686520616d6f756e7420746f206265207472616e7366657272656454686520646973747269627574696f6e2073706565642069732073657420746f207a65726f5468652074726561737572792063757272656e746c7920646f6573206e6f74206861766520616e79206f6620746f6b656e7320776869636820617265206265696e6720447269707065645468652063616c6c6572206d757374206265207468652053494748204d656368616e69736d204d616e61676572a265627a7a7231582084b6f52a23ae3b91eddadd33c93544c57f416c2fb8f9d39a1123c19a82f665ef64736f6c63430005100032",
  "source": "pragma solidity ^0.5.16;\n\n/**\n * @title Sigh Treasury Contract Interface\n * @notice The Treasury Contract for SIGH Finance\n * @dev Used to Swap Tokens, burns SIGH Tokens, and can ERC20 token can be distributed to a target address on a per block basis\n * @author SIGH Finance\n */\n\n// interfaces\nimport \"openzeppelin-solidity/contracts/token/ERC20/IERC20.sol\"; \nimport \"../../openzeppelin-upgradeability/VersionedInitializable.sol\";\n\nimport \"./TreasuryStorage.sol\";\nimport \"./EIP20InterfaceSIGH.sol\";\nimport \"../../configuration/GlobalAddressesProvider.sol\";\nimport \"../../LendingProtocolContracts/interfaces/IPriceOracleGetter.sol\";\n\n// import \"./IForwarder.sol\";\n// import \"../openzeppelin/EIP20Interface.sol\";\n\ncontract Treasury is TreasuryV1Storage, VersionedInitializable   {\n\n    IERC20 private sigh_Instrument;    \n    GlobalAddressesProvider public addressesProvider;\n    IPriceOracleGetter public oracle;\n\n    mapping (address => uint) InstrumentBalances;\n    mapping (address => uint)  totalDrippedAmount;  // Stores the total amount of each instrument dripped\n \n    bool isDripAllowed = false;    \n    address private instrumentBeingDripped;\n    address private targetAddressForDripping;\n    uint private DripSpeed;\n    uint public lastDripBlockNumber; \n\n    uint public maxTransferAmount;\n    uint public coolDownPeriod = 2; // 5 min\n    uint public prevTransferBlock;\n    \n    bool public is_SIGH_BurnAllowed;\n    uint private SIGHBurnSpeed;\n    uint private totalBurntSIGH = 0;\n    uint public lastBurnBlockNumber;\n\n\n\n    event instrumentBeingDistributedChanged(address prevInstrument, address newToken, uint blockNumber);\n    event DripAllowedChanged(bool prevDripAllowed , bool newDripAllowed, uint blockNumber); \n    event DripSpeedChanged(uint prevDripSpeed , uint curDripSpeed,  uint blockNumber ); \n    event AmountDripped(address targetAddress, address instrumentBeingDripped, uint currentBalance , uint AmountDripped, uint totalAmountDripped ); \n\n    event maxTransferAmountUpdated(uint prevmaxTransferAmount, uint newmaxTransferAmount);\n    event SIGHTransferred(address indexed TargetAddress, uint amountTransferred, uint blockNumber);\n\n    event TokensBought( address indexed instrument_address, uint prev_balance, uint amount, uint new_balance );\n    event TokensSold( address indexed instrument_address, uint prev_balance, uint amount, uint new_balance );\n    event TokenSwapTransactionData( bytes data );\n\n    event SIGHBurnAllowedChanged(bool prevBurnAllowed , bool newBurnAllowed, uint blockNumber); \n    event SIGH_Burned(address sigh_Address, uint amount, uint totalSIGHBurned, uint remaining_balance, uint blockNumber);\n    event SIGHBurnSpeedChanged(uint prevSpeed, uint newSpeed, uint blockNumber);\n\n// ########################\n// ####### MODIFIER #######\n// ########################\n\n    /**\n    * @dev only the SIGH Finance Manager can call functions affected by this modifier\n    **/\n    modifier onlySIGHFinanceManager {\n        require( addressesProvider.getSIGHFinanceManager() == msg.sender, \"The caller must be the SIGH Mechanism Manager\" );\n        _;\n    }\n\n    //only SIGH Finance Configurator can use functions affected by this modifier\n    modifier onlySighFinanceConfigurator {\n        require(addressesProvider.getSIGHFinanceConfigurator() == msg.sender, \"The caller must be the SIGH Finanace Configurator Contract\");\n        _;\n    }\n\n// ###############################################################################################\n// ##############        PROXY RELATED          ##################################################\n// ###############################################################################################\n\n\n    event SIGHTreasuryInitialized(address msgSender, address addressesProvider, address SIGH, address sighDistributionHandler);\n\n    uint256 constant private DATA_PROVIDER_REVISION = 0x1;\n\n    function getRevision() internal pure returns(uint256) {\n        return DATA_PROVIDER_REVISION;\n    }\n    \n    \n    function initialize( address addressesProvider_) public initializer {\n        addressesProvider = GlobalAddressesProvider(addressesProvider_); \n        refreshConfigInternal();        \n    }\n    \n    function refreshConfig() external onlySighFinanceConfigurator() {\n        refreshConfigInternal(); \n    }\n\n    function refreshConfigInternal() internal {\n        sigh_Instrument = IERC20(addressesProvider.getSIGHAddress());           // SIGH TOKEN\n        oracle = IPriceOracleGetter( addressesProvider.getPriceOracle() );     // PRICE ORACLE\n        // lendingPoolCore = addressesProvider.getLendingPoolCore();       // \n    }\n\n// ######################################################################################################\n// ###########   THE HEDGE FUND MECHANISM - Only Sigh Finance Manager can call this function ############\n// ######################################################################################################\n    // \n    function swapTokensUsingOxAPI( address allowanceTarget, address payable to, bytes calldata callDataHex, address token_bought, address token_sold, uint sellAmount ) external payable onlySIGHFinanceManager returns (bool) {\n\n        IERC20 bought_token;\n        bought_token = IERC20(token_bought);\n\n        IERC20 sold_token;\n        sold_token = IERC20(token_sold);\n\n        uint prev_bought_token_amount = bought_token.balanceOf(address(this));  // Current Bought Tokens Balance\n        uint prev_sold_token_amount = sold_token.balanceOf(address(this));      // Current Tokens to be Sold Balance\n\n        require(sold_token.approve(allowanceTarget, uint256(sellAmount)));                   // Allow the allowanceTarget address to spend an the needed amount\n        (bool success, bytes memory _data) = to.call.value(msg.value)(callDataHex);          // Calling the encoded swap() function. ETH passed to cover for fee\n    \n        require(success, 'TOKEN SWAP FAILED');\n        \n        if (success) {\n            uint new_bought_token_amount = bought_token.balanceOf(address(this));       // New Bought Tokens Balance\n            uint new_sold_token_amount = sold_token.balanceOf(address(this));           // New Tokens to be Sold Balance\n            \n            InstrumentBalances[token_bought] = new_bought_token_amount;\n            InstrumentBalances[token_sold] = new_sold_token_amount;\n\n            uint tokenBoughtAmount = sub(new_bought_token_amount,prev_bought_token_amount,\"New Token Balance for tokens that are being Bought is lower than its initial balance\");\n            uint tokenSoldAmount = sub(prev_sold_token_amount,new_sold_token_amount,\"New Token Balance for tokens that are being Sold is higher than its initial balance\");\n\n            emit TokensBought( token_bought, prev_bought_token_amount, tokenBoughtAmount,  new_bought_token_amount);\n            emit TokensSold( token_sold, prev_sold_token_amount, tokenSoldAmount, new_sold_token_amount );   \n            emit TokenSwapTransactionData( _data );\n            return true;         \n        }\n\n        return false;\n    }\n\n// ################################################################################################################ \n// ###########   BURN SIGH TOKENS  ################################################################################\n// ###########   1. changeSIGHBurnAllowed() : Activates / Deactivates SIGH Burn (onlySighFinanceConfigurator) #####\n// ###########   2. updateSIGHBurnSpeed() : Updates the SIGH Burn Speed (onlySighFinanceConfigurator) #############\n// ###########   3. burnSIGHTokens() : Public Function. Allows anyone to burn SIGH Tokens. ########################\n// ################################################################################################################\n\n\n    function changeSIGHBurnAllowed(uint isAllowed) external onlySighFinanceConfigurator returns (bool) {\n        bool prevStatus = is_SIGH_BurnAllowed;\n        if (isAllowed == 0) {\n            is_SIGH_BurnAllowed = false;\n            updateSIGHBurnSpeedInternal(0);\n        }\n        else {\n            is_SIGH_BurnAllowed = true;\n        }\n        emit SIGHBurnAllowedChanged(prevStatus, is_SIGH_BurnAllowed, block.number);\n        return is_SIGH_BurnAllowed;\n    }\n        \n    function updateSIGHBurnSpeed(uint newBurnSpeed) external onlySighFinanceConfigurator {\n        require(updateSIGHBurnSpeedInternal(newBurnSpeed),\"Sigh Burn speed was not updated properly\");\n    }\n\n    function updateSIGHBurnSpeedInternal(uint newBurnSpeed) internal returns (bool) {\n        if ( SIGHBurnSpeed > 0 ) {\n            burnSIGHTokens();\n        } \n        uint prevBurnSpeed = SIGHBurnSpeed;\n        SIGHBurnSpeed = newBurnSpeed;\n        lastBurnBlockNumber = block.number;\n        \n        require (SIGHBurnSpeed == newBurnSpeed, 'New SIGH Burn Speed not initialized properly');\n        emit SIGHBurnSpeedChanged(prevBurnSpeed, SIGHBurnSpeed, block.number);\n        return true;\n    }\n\n    function burnSIGHTokens() public returns (uint) {\n        if (!is_SIGH_BurnAllowed ||SIGHBurnSpeed ==0)  {\n            return uint(0);\n        }\n        \n        address sighTokenAddress = address(sigh_Instrument);\n        EIP20InterfaceSIGH token_ = EIP20InterfaceSIGH(sighTokenAddress);\n\n        uint treasuryBalance_ = token_.balanceOf(address(this)); // get current balance of SIGH\n        uint blockNumber_ = block.number;\n        uint deltaBlocks = sub(blockNumber_,lastBurnBlockNumber,\"Block Numbers Substraction gave error\");\n        uint deltaBurn_ = mul(SIGHBurnSpeed, deltaBlocks, \"BurnTotal overflow\");\n        uint toBurn_ = min(treasuryBalance_, deltaBurn_);\n        \n        require(treasuryBalance_ != 0, 'The treasury currently does not have any SIGH tokens.');\n        require(token_.burn(toBurn_), 'The SIGH burn was not successful' );\n        \n        lastBurnBlockNumber = blockNumber_;                         // setting the block number when the Burn is made\n        uint prevTotalBurntAmount = totalBurntSIGH ;\n        totalBurntSIGH = add(prevTotalBurntAmount,toBurn_,\"Total Sigh Burnt Overflow\");\n        treasuryBalance_ = token_.balanceOf(address(this)); // get current balance\n\n        InstrumentBalances[address(sigh_Instrument)] = treasuryBalance_;\n\n        emit SIGH_Burned( address(sigh_Instrument), toBurn_, totalBurntSIGH,  treasuryBalance_, lastBurnBlockNumber ); \n\n        return toBurn_;\n    }\n\n\n// #########################################################################################################################################################\n// ###########   _______TREASURY CAN DISTRIBUTE ANY TOKEN TO ANY ADDRESS AT A PER BLOCK BASIS_______ #######################################################\n// ###########   1. initializeInstrumentDistribution() --> To initiate an Instrument distribution Session. (onlySighFinanceConfigurator)   #################\n// ###########   2. changeInstrumentBeingDripped() --> Change the instrument being distributed (onlySighFinanceConfigurator)  ##############################\n// ###########   3. updateDripSpeed() --> To update the current Dripping Speed (onlySighFinanceConfigurator) ###############################################\n// ###########   4. resetInstrumentDistribution() --> Reset instrument distribution to start a new session (onlySighFinanceConfigurator)  ##################\n// #########################################################################################################################################################\n\n    function initializeInstrumentDistribution (address targetAddress, address instrumentToBeDistributed, uint distributionSpeed) external onlySighFinanceConfigurator returns (bool) {\n        require(!isDripAllowed,\"Instrument distribution needs to be reset before it can be initialized Again\");\n\n        targetAddressForDripping = targetAddress;                           // Sets the address to which these instruments will be distributed\n        require(changeInstrumentBeingDrippedInternal(instrumentToBeDistributed),\"Instrument to be distributed not assigned properly\");    // Sets the instrument which will be distributed\n        require(updateDripSpeedInternal(distributionSpeed),\"Distribution Speed not initialized properly.\");                         // Sets the distribution Speed\n\n        isDripAllowed = true;                                               // INITIATES DISTRIBUTION\n        lastDripBlockNumber = block.number;                                 // Distribution commences from current block\n        return true;\n    }\n\n    /**\n      * @notice Change the token being dripped to the Target Address\n      * @param instrumentToDrip Address of the token to be dripped\n      * @return returns the address of the token that will be Dripped\n    */    \n    function changeInstrumentBeingDripped(address instrumentToDrip ) external onlySighFinanceConfigurator returns (bool) {\n        if ( isDripAllowed ) {  // First Distribute the remaining amount\n            drip();\n        }\n        require(changeInstrumentBeingDrippedInternal(instrumentToDrip),\"Instrument to be distributed not assigned properly\");\n\n    }\n\n    function changeInstrumentBeingDrippedInternal(address instrumentToDrip) internal returns (bool) {\n        IERC20 newToken = IERC20(instrumentToDrip);\n        uint currentBalance = newToken.balanceOf(address(this)); \n        require(currentBalance > 0, 'The Treasury does not hold these new instruments');\n\n        address prevInstrument = instrumentBeingDripped;\n        instrumentBeingDripped = instrumentToDrip;\n        require(instrumentBeingDripped == instrumentToDrip, 'Address for the instrument to be Dripped not assigned properly');\n\n        emit instrumentBeingDistributedChanged(prevInstrument, instrumentBeingDripped, block.number);\n        return true;\n    }\n\n    /**\n      * @notice To change the Current Drip Speed\n      * @param DripSpeed_ New Drip Speed\n      * @return returns a Boolean True is Successful \n    */    \n    function updateDripSpeed (uint DripSpeed_) external onlySighFinanceConfigurator returns (bool) {\n        if (isDripAllowed) {\n            drip();\n        }\n        require(updateDripSpeedInternal(DripSpeed_),\"Distribution Speed not initialized properly.\");\n        return true;\n  }\n\n   function updateDripSpeedInternal( uint DripSpeed_ ) internal returns (bool) {\n        uint prevDripSpeed = DripSpeed;\n        DripSpeed = DripSpeed_;\n        emit DripSpeedChanged(prevDripSpeed , DripSpeed, block.number);\n        return true;\n   }\n\n    /**\n      * @notice Switch to Reset (OFF) Dripping\n      * @return return is Dripping is allowed or not\n    */    \n    function resetInstrumentDistribution() external onlySighFinanceConfigurator returns (bool) {\n        if (!isDripAllowed) {\n            return true;\n        }\n        drip();\n        isDripAllowed = false;\n        DripSpeed = uint(0);\n        instrumentBeingDripped = address(0);\n        targetAddressForDripping = address(0);\n        emit DripAllowedChanged(true , isDripAllowed, block.number);\n        return true;\n    }\n\n// ################################################################################\n// ###########   THE FUNCTION TO DRIP THE TOKENS TO THE TARGET ADDRESS  ###########\n// ################################################################################\n\n    /**\n      * @notice Drips the Tokens to the SIGHDistributionHandler\n      * @return returns the Dripped Amount\n    */    \n    function drip() public returns (uint) {\n        require(isDripAllowed, 'Instrument distribution is currently not initialized.');\n        require(targetAddressForDripping != address(0),\"The target address is not valid\");\n        require(DripSpeed > 0,\"The distribution speed is set to zero\");\n\n        IERC20 token_ = IERC20(instrumentBeingDripped); \n        uint treasuryBalance_ = token_.balanceOf(address(this)); // get current balance of the token Being Dripped\n        uint blockNumber_ = block.number;\n        uint deltaBlocks = sub(blockNumber_,lastDripBlockNumber,\"Blocks Substraction overrflow\");\n        uint deltaDrip_ = mul(DripSpeed, deltaBlocks, \"dripTotal overflow\");\n        uint toDrip_ = min(treasuryBalance_, deltaDrip_);\n        \n        require(treasuryBalance_ != 0, 'The treasury currently does not have any of tokens which are being Dripped');\n        require(token_.transfer(targetAddressForDripping, toDrip_), 'The Instrument transfer did not complete.' );\n        \n        lastDripBlockNumber = blockNumber_;                         // setting the block number when the Drip is made\n        uint prevTotalDrippedAmount = totalDrippedAmount[instrumentBeingDripped];\n        totalDrippedAmount[instrumentBeingDripped] = add(prevTotalDrippedAmount,toDrip_,\"Overflow\");   \n        treasuryBalance_ = token_.balanceOf(address(this)); // get current balance\n\n        InstrumentBalances[instrumentBeingDripped] = treasuryBalance_;   // Update the instrument balance\n        emit AmountDripped( targetAddressForDripping, instrumentBeingDripped, toDrip_, treasuryBalance_, totalDrippedAmount[instrumentBeingDripped] ); \n        return toDrip_;\n    }\n\n// ##########################################################\n// ###########   FUNCTION TO TRANSFER SIGH TOKENS  ##########\n// ##########################################################\n\n    /**\n      * @notice Transfers the SIGH Tokens to the Target Address\n      * @param target_ Address to which the amount is to be transferred\n      * @param amount The Amount to be transferred\n      * @return returns the Dripped Amount\n    */    \n    function transferSighTo(address target_, uint amount) external onlySighFinanceConfigurator returns (bool) {\n        updatemaxTransferAmount();\n        require (amount < maxTransferAmount, \"The amount provided is greater than the amount allowed\");\n\n        uint blockNumber = block.number;\n        uint dif = sub(blockNumber, prevTransferBlock, 'underflow');\n        require(dif > coolDownPeriod, 'The cool down period is not yet completed');\n\n        IERC20 token_ = sigh_Instrument;\n\n        uint treasuryBalance_ = token_.balanceOf(address(this)); // get current balance\n        require(treasuryBalance_ > amount , \"The current treasury's SIGH balance is less than the amount to be transferred\" );\n        require(token_.transfer(target_, amount), 'The transfer did not complete.' );\n\n        // uint prevTransferAmount = SIGH_Transferred[target_];\n        // uint totalTransferAmount = add(prevTransferAmount,amount,\"Overflow\");\n        // SIGH_Transferred[target_] = totalTransferAmount;\n        prevTransferBlock = block.number;\n        uint new_sigh_balance = token_.balanceOf(address(this));\n        InstrumentBalances[address(sigh_Instrument)] = new_sigh_balance;\n\n        emit SIGHTransferred( target_ , amount,  block.number );\n        return true;\n    }\n    \n    // Maximum of 0.1% of total supply can be transferred from the treasury in a day\n    function updatemaxTransferAmount() internal returns (uint) {\n        IERC20 token_ = sigh_Instrument;\n        uint totalSupply = token_.totalSupply(); // get total Supply\n        require(totalSupply > 0, 'Total Supply of SIGH tokens returned not valid');\n        uint newtransferAmount = div(totalSupply,1000,'updatemaxTransferAmount: Division returned error');\n\n        uint prevmaxTransferAmount = maxTransferAmount;\n        maxTransferAmount = newtransferAmount;\n        emit maxTransferAmountUpdated(prevmaxTransferAmount,maxTransferAmount);\n        return maxTransferAmount;\n    }\n\n\n\n// ########################################\n// ###########   VIEW FUNCTIONS  ##########\n// ########################################\n\n    // rechecks the balance and updates the stored balances array\n    function updateInstrumentBalance(address instrument_address) external returns (uint) {\n        IERC20 token_ = IERC20(instrument_address);\n        uint balance = token_.balanceOf(address(this));\n        if (balance == 0) {\n            return 0;\n        }\n        InstrumentBalances[instrument_address] = balance;\n        return InstrumentBalances[instrument_address];\n    }\n\n    function getSIGHBalance() external view returns (uint) {\n        IERC20 token_ = sigh_Instrument;\n        uint treasuryBalance_ = token_.balanceOf(address(this)); // get current SIGH balance\n        return treasuryBalance_;\n    }\n\n    function getInstrumentBalance(address instrument_address) external view returns (uint) {\n        return InstrumentBalances[instrument_address];\n    }\n\n    function isDistributionAllowed() external view returns (bool) {\n        return isDripAllowed;\n    }\n\n    function getTargetAddressForDistribution() external view returns (address) {\n        return targetAddressForDripping;\n    }\n\n    function getinstrumentBeingDripped() external view returns (address) {\n        if (isDripAllowed) {\n            return instrumentBeingDripped;\n        }\n        return address(0);\n    }\n    \n    function getTotalDrippedAmount(address token) external view returns (uint) {\n        return totalDrippedAmount[token];\n    }\n\n    function getDistributionSpeed() external view returns (uint) {\n        if (isDripAllowed) {\n            return DripSpeed;\n        }\n        return 0;\n    }\n\n\n    // function getAmountTransferred(address target) external view returns (uint) {\n    //     return SIGH_Transferred[target];\n    // }\n\n\n    function getBurnSpeed() external view returns (uint) {\n        if (is_SIGH_BurnAllowed) {\n            return SIGHBurnSpeed;\n        }\n        return 0;\n    }\n\n    function getTotalBurntSigh() external view returns (uint) {\n        return totalBurntSIGH;\n    }\n    \n\n// ####################################################\n// ###########   Internal helper functions  ##########\n// ####################################################\n\n\n  /* Internal helper functions for safe math */\n\n    function add(uint a, uint b, string memory errorMessage) internal pure returns (uint) {\n        uint c = a + b;\n        require(c >= a, errorMessage);\n        return c;\n    }\n\n    function sub(uint a, uint b, string memory errorMessage) internal pure returns (uint) {\n        require(b <= a, errorMessage);\n        uint c = a - b;\n        return c;\n    }\n\n    function mul(uint a, uint b, string memory errorMessage) internal pure returns (uint) {\n        if (a == 0) {\n        return 0;\n        }\n        uint c = a * b;\n        require(c / a == b, errorMessage);\n        return c;\n    }\n\n    function min(uint a, uint b) internal pure returns (uint) {\n        if (a <= b) {\n        return a;\n        } else {\n        return b;\n        }\n    }\n\n    function div(uint256 a, uint256 b, string memory errorMessage) internal pure returns (uint256) {\n        // Solidity only automatically asserts when dividing by 0\n        require(b > 0, errorMessage);\n        uint256 c = a / b;\n        // assert(a == b * c + a % b); // There is no case in which this doesn't hold\n\n        return c;\n    }\n\n\n}",
  "sourcePath": "/Users/apple/Desktop/GITCOIN/Sigh_Finance/SighFinanceContracts/contracts/SIGHFinanceContracts/Treasury/TreasuryV1Impl.sol",
  "compiler": {
    "name": "solc",
    "version": "0.5.16+commit.9c3226ce.Emscripten.clang"
  },
  "schemaVersion": "3.2.4",
  "updatedAt": "2020-11-05T05:43:32.861Z",
  "devdoc": {
    "methods": {
      "changeInstrumentBeingDripped(address)": {
        "params": {
          "instrumentToDrip": "Address of the token to be dripped"
        },
        "return": "returns the address of the token that will be Dripped"
      },
      "drip()": {
        "return": "returns the Dripped Amount"
      },
      "resetInstrumentDistribution()": {
        "return": "return is Dripping is allowed or not"
      },
      "transferSighTo(address,uint256)": {
        "params": {
          "amount": "The Amount to be transferred",
          "target_": "Address to which the amount is to be transferred"
        },
        "return": "returns the Dripped Amount"
      },
      "updateDripSpeed(uint256)": {
        "params": {
          "DripSpeed_": "New Drip Speed"
        },
        "return": "returns a Boolean True is Successful "
      }
    }
  },
  "userdoc": {
    "methods": {
      "changeInstrumentBeingDripped(address)": {
        "notice": "Change the token being dripped to the Target Address"
      },
      "drip()": {
        "notice": "Drips the Tokens to the SIGHDistributionHandler"
      },
      "resetInstrumentDistribution()": {
        "notice": "Switch to Reset (OFF) Dripping"
      },
      "transferSighTo(address,uint256)": {
        "notice": "Transfers the SIGH Tokens to the Target Address"
      },
      "updateDripSpeed(uint256)": {
        "notice": "To change the Current Drip Speed"
      }
    }
  }
}