{
  "contractName": "Treasury",
  "abi": [
    {
      "anonymous": false,
      "inputs": [
        {
          "indexed": false,
          "internalType": "address",
          "name": "targetAddress",
          "type": "address"
        },
        {
          "indexed": false,
          "internalType": "address",
          "name": "instrumentBeingDripped",
          "type": "address"
        },
        {
          "indexed": false,
          "internalType": "uint256",
          "name": "currentBalance",
          "type": "uint256"
        },
        {
          "indexed": false,
          "internalType": "uint256",
          "name": "AmountDripped",
          "type": "uint256"
        },
        {
          "indexed": false,
          "internalType": "uint256",
          "name": "totalAmountDripped",
          "type": "uint256"
        }
      ],
      "name": "AmountDripped",
      "type": "event"
    },
    {
      "anonymous": false,
      "inputs": [
        {
          "indexed": false,
          "internalType": "uint256",
          "name": "prevDripSpeed",
          "type": "uint256"
        },
        {
          "indexed": false,
          "internalType": "uint256",
          "name": "curDripSpeed",
          "type": "uint256"
        },
        {
          "indexed": false,
          "internalType": "uint256",
          "name": "blockNumber",
          "type": "uint256"
        }
      ],
      "name": "DripSpeedChanged",
      "type": "event"
    },
    {
      "anonymous": false,
      "inputs": [
        {
          "indexed": false,
          "internalType": "bool",
          "name": "isDripAllowed",
          "type": "bool"
        },
        {
          "indexed": false,
          "internalType": "address",
          "name": "targetAddressForDripping",
          "type": "address"
        },
        {
          "indexed": false,
          "internalType": "address",
          "name": "instrumentBeingDripped",
          "type": "address"
        },
        {
          "indexed": false,
          "internalType": "uint256",
          "name": "dripSpeed",
          "type": "uint256"
        },
        {
          "indexed": false,
          "internalType": "uint256",
          "name": "initializationBlockNumber",
          "type": "uint256"
        }
      ],
      "name": "InstrumentDistributionInitialized",
      "type": "event"
    },
    {
      "anonymous": false,
      "inputs": [
        {
          "indexed": false,
          "internalType": "bool",
          "name": "isDripAllowed",
          "type": "bool"
        },
        {
          "indexed": false,
          "internalType": "address",
          "name": "targetAddressForDripping",
          "type": "address"
        },
        {
          "indexed": false,
          "internalType": "address",
          "name": "instrumentBeingDripped",
          "type": "address"
        },
        {
          "indexed": false,
          "internalType": "uint256",
          "name": "dripSpeed",
          "type": "uint256"
        },
        {
          "indexed": false,
          "internalType": "uint256",
          "name": "blockNumber",
          "type": "uint256"
        }
      ],
      "name": "InstrumentDistributionReset",
      "type": "event"
    },
    {
      "anonymous": false,
      "inputs": [
        {
          "indexed": false,
          "internalType": "address",
          "name": "instrument",
          "type": "address"
        },
        {
          "indexed": false,
          "internalType": "string",
          "name": "name",
          "type": "string"
        },
        {
          "indexed": false,
          "internalType": "uint256",
          "name": "balance",
          "type": "uint256"
        },
        {
          "indexed": false,
          "internalType": "uint256",
          "name": "totalAmountDripped",
          "type": "uint256"
        },
        {
          "indexed": false,
          "internalType": "uint256",
          "name": "totalAmountTransferred",
          "type": "uint256"
        }
      ],
      "name": "InstrumentInitialized",
      "type": "event"
    },
    {
      "anonymous": false,
      "inputs": [
        {
          "indexed": false,
          "internalType": "bool",
          "name": "newBurnAllowed",
          "type": "bool"
        },
        {
          "indexed": false,
          "internalType": "uint256",
          "name": "blockNumber",
          "type": "uint256"
        }
      ],
      "name": "SIGHBurnAllowedSwitched",
      "type": "event"
    },
    {
      "anonymous": false,
      "inputs": [
        {
          "indexed": false,
          "internalType": "uint256",
          "name": "prevSpeed",
          "type": "uint256"
        },
        {
          "indexed": false,
          "internalType": "uint256",
          "name": "newSpeed",
          "type": "uint256"
        },
        {
          "indexed": false,
          "internalType": "uint256",
          "name": "blockNumber",
          "type": "uint256"
        }
      ],
      "name": "SIGHBurnSpeedChanged",
      "type": "event"
    },
    {
      "anonymous": false,
      "inputs": [
        {
          "indexed": true,
          "internalType": "address",
          "name": "TargetAddress",
          "type": "address"
        },
        {
          "indexed": false,
          "internalType": "uint256",
          "name": "amountTransferred",
          "type": "uint256"
        },
        {
          "indexed": false,
          "internalType": "uint256",
          "name": "blockNumber",
          "type": "uint256"
        }
      ],
      "name": "SIGHTransferred",
      "type": "event"
    },
    {
      "anonymous": false,
      "inputs": [
        {
          "indexed": false,
          "internalType": "address",
          "name": "msgSender",
          "type": "address"
        },
        {
          "indexed": false,
          "internalType": "address",
          "name": "addressesProvider",
          "type": "address"
        },
        {
          "indexed": false,
          "internalType": "address",
          "name": "SIGH",
          "type": "address"
        },
        {
          "indexed": false,
          "internalType": "address",
          "name": "sighDistributionHandler",
          "type": "address"
        }
      ],
      "name": "SIGHTreasuryInitialized",
      "type": "event"
    },
    {
      "anonymous": false,
      "inputs": [
        {
          "indexed": false,
          "internalType": "address",
          "name": "sigh_Address",
          "type": "address"
        },
        {
          "indexed": false,
          "internalType": "uint256",
          "name": "amount",
          "type": "uint256"
        },
        {
          "indexed": false,
          "internalType": "uint256",
          "name": "totalSIGHBurned",
          "type": "uint256"
        },
        {
          "indexed": false,
          "internalType": "uint256",
          "name": "remaining_balance",
          "type": "uint256"
        },
        {
          "indexed": false,
          "internalType": "uint256",
          "name": "blockNumber",
          "type": "uint256"
        }
      ],
      "name": "SIGH_Burned",
      "type": "event"
    },
    {
      "anonymous": false,
      "inputs": [
        {
          "indexed": false,
          "internalType": "bytes",
          "name": "data",
          "type": "bytes"
        }
      ],
      "name": "TokenSwapTransactionData",
      "type": "event"
    },
    {
      "anonymous": false,
      "inputs": [
        {
          "indexed": false,
          "internalType": "address",
          "name": "instrument_address",
          "type": "address"
        },
        {
          "indexed": false,
          "internalType": "uint256",
          "name": "amountBought",
          "type": "uint256"
        },
        {
          "indexed": false,
          "internalType": "uint256",
          "name": "new_balance",
          "type": "uint256"
        }
      ],
      "name": "TokensBought",
      "type": "event"
    },
    {
      "anonymous": false,
      "inputs": [
        {
          "indexed": false,
          "internalType": "address",
          "name": "instrument_address",
          "type": "address"
        },
        {
          "indexed": false,
          "internalType": "uint256",
          "name": "amountSold",
          "type": "uint256"
        },
        {
          "indexed": false,
          "internalType": "uint256",
          "name": "new_balance",
          "type": "uint256"
        }
      ],
      "name": "TokensSold",
      "type": "event"
    },
    {
      "anonymous": false,
      "inputs": [
        {
          "indexed": false,
          "internalType": "address",
          "name": "newInstrumentToBeDripped",
          "type": "address"
        },
        {
          "indexed": false,
          "internalType": "uint256",
          "name": "blockNumber",
          "type": "uint256"
        }
      ],
      "name": "instrumentBeingDistributedChanged",
      "type": "event"
    },
    {
      "anonymous": false,
      "inputs": [
        {
          "indexed": false,
          "internalType": "uint256",
          "name": "prevmaxTransferLimit",
          "type": "uint256"
        },
        {
          "indexed": false,
          "internalType": "uint256",
          "name": "newmaxTransferLimit",
          "type": "uint256"
        },
        {
          "indexed": false,
          "internalType": "uint256",
          "name": "sighBalance",
          "type": "uint256"
        }
      ],
      "name": "maxTransferAmountUpdated",
      "type": "event"
    },
    {
      "constant": true,
      "inputs": [],
      "name": "periodLength",
      "outputs": [
        {
          "internalType": "uint256",
          "name": "",
          "type": "uint256"
        }
      ],
      "payable": false,
      "stateMutability": "view",
      "type": "function"
    },
    {
      "constant": false,
      "inputs": [
        {
          "internalType": "contract GlobalAddressesProvider",
          "name": "addressesProvider_",
          "type": "address"
        }
      ],
      "name": "initialize",
      "outputs": [],
      "payable": false,
      "stateMutability": "nonpayable",
      "type": "function"
    },
    {
      "constant": false,
      "inputs": [],
      "name": "refreshConfig",
      "outputs": [
        {
          "internalType": "bool",
          "name": "",
          "type": "bool"
        }
      ],
      "payable": false,
      "stateMutability": "nonpayable",
      "type": "function"
    },
    {
      "constant": false,
      "inputs": [],
      "name": "switchSIGHBurnAllowed",
      "outputs": [
        {
          "internalType": "bool",
          "name": "",
          "type": "bool"
        }
      ],
      "payable": false,
      "stateMutability": "nonpayable",
      "type": "function"
    },
    {
      "constant": false,
      "inputs": [
        {
          "internalType": "uint256",
          "name": "newBurnSpeed",
          "type": "uint256"
        }
      ],
      "name": "updateSIGHBurnSpeed",
      "outputs": [
        {
          "internalType": "bool",
          "name": "",
          "type": "bool"
        }
      ],
      "payable": false,
      "stateMutability": "nonpayable",
      "type": "function"
    },
    {
      "constant": false,
      "inputs": [],
      "name": "burnSIGHTokens",
      "outputs": [
        {
          "internalType": "uint256",
          "name": "",
          "type": "uint256"
        }
      ],
      "payable": false,
      "stateMutability": "nonpayable",
      "type": "function"
    },
    {
      "constant": false,
      "inputs": [
        {
          "internalType": "address",
          "name": "targetAddress",
          "type": "address"
        },
        {
          "internalType": "address",
          "name": "instrumentToBeDistributed",
          "type": "address"
        },
        {
          "internalType": "uint256",
          "name": "distributionSpeed",
          "type": "uint256"
        }
      ],
      "name": "initializeInstrumentDistribution",
      "outputs": [
        {
          "internalType": "bool",
          "name": "",
          "type": "bool"
        }
      ],
      "payable": false,
      "stateMutability": "nonpayable",
      "type": "function"
    },
    {
      "constant": false,
      "inputs": [
        {
          "internalType": "address",
          "name": "instrumentToDrip",
          "type": "address"
        }
      ],
      "name": "changeInstrumentBeingDripped",
      "outputs": [
        {
          "internalType": "bool",
          "name": "",
          "type": "bool"
        }
      ],
      "payable": false,
      "stateMutability": "nonpayable",
      "type": "function"
    },
    {
      "constant": false,
      "inputs": [
        {
          "internalType": "uint256",
          "name": "DripSpeed_",
          "type": "uint256"
        }
      ],
      "name": "updateDripSpeed",
      "outputs": [
        {
          "internalType": "bool",
          "name": "",
          "type": "bool"
        }
      ],
      "payable": false,
      "stateMutability": "nonpayable",
      "type": "function"
    },
    {
      "constant": false,
      "inputs": [],
      "name": "resetInstrumentDistribution",
      "outputs": [
        {
          "internalType": "bool",
          "name": "",
          "type": "bool"
        }
      ],
      "payable": false,
      "stateMutability": "nonpayable",
      "type": "function"
    },
    {
      "constant": false,
      "inputs": [],
      "name": "drip",
      "outputs": [
        {
          "internalType": "uint256",
          "name": "",
          "type": "uint256"
        }
      ],
      "payable": false,
      "stateMutability": "nonpayable",
      "type": "function"
    },
    {
      "constant": false,
      "inputs": [
        {
          "internalType": "address",
          "name": "instrument",
          "type": "address"
        }
      ],
      "name": "initializeInstrumentState",
      "outputs": [
        {
          "internalType": "bool",
          "name": "",
          "type": "bool"
        }
      ],
      "payable": false,
      "stateMutability": "nonpayable",
      "type": "function"
    },
    {
      "constant": false,
      "inputs": [
        {
          "internalType": "address",
          "name": "instrument_address",
          "type": "address"
        }
      ],
      "name": "updateInstrumentBalance",
      "outputs": [
        {
          "internalType": "uint256",
          "name": "",
          "type": "uint256"
        }
      ],
      "payable": false,
      "stateMutability": "nonpayable",
      "type": "function"
    },
    {
      "constant": false,
      "inputs": [
        {
          "internalType": "address",
          "name": "allowanceTarget",
          "type": "address"
        },
        {
          "internalType": "address payable",
          "name": "to",
          "type": "address"
        },
        {
          "internalType": "bytes",
          "name": "callDataHex",
          "type": "bytes"
        },
        {
          "internalType": "address",
          "name": "token_bought",
          "type": "address"
        },
        {
          "internalType": "address",
          "name": "token_sold",
          "type": "address"
        },
        {
          "internalType": "uint256",
          "name": "sellAmount",
          "type": "uint256"
        }
      ],
      "name": "swapTokensUsingOxAPI",
      "outputs": [
        {
          "internalType": "bool",
          "name": "",
          "type": "bool"
        }
      ],
      "payable": true,
      "stateMutability": "payable",
      "type": "function"
    },
    {
      "constant": false,
      "inputs": [
        {
          "internalType": "address",
          "name": "target_",
          "type": "address"
        },
        {
          "internalType": "uint256",
          "name": "amount",
          "type": "uint256"
        }
      ],
      "name": "transferSighTo",
      "outputs": [
        {
          "internalType": "uint256",
          "name": "",
          "type": "uint256"
        }
      ],
      "payable": false,
      "stateMutability": "nonpayable",
      "type": "function"
    },
    {
      "constant": true,
      "inputs": [
        {
          "internalType": "address",
          "name": "instrument",
          "type": "address"
        }
      ],
      "name": "getInstrumentState",
      "outputs": [
        {
          "internalType": "bool",
          "name": "initialized",
          "type": "bool"
        },
        {
          "internalType": "string",
          "name": "name",
          "type": "string"
        },
        {
          "internalType": "uint256",
          "name": "balance",
          "type": "uint256"
        },
        {
          "internalType": "uint256",
          "name": "totalAmountDripped",
          "type": "uint256"
        },
        {
          "internalType": "uint256",
          "name": "totalAmountTransferred",
          "type": "uint256"
        }
      ],
      "payable": false,
      "stateMutability": "view",
      "type": "function"
    },
    {
      "constant": true,
      "inputs": [],
      "name": "getAllInstruments",
      "outputs": [
        {
          "internalType": "address[]",
          "name": "",
          "type": "address[]"
        }
      ],
      "payable": false,
      "stateMutability": "view",
      "type": "function"
    },
    {
      "constant": true,
      "inputs": [],
      "name": "totalInstruments",
      "outputs": [
        {
          "internalType": "uint256",
          "name": "",
          "type": "uint256"
        }
      ],
      "payable": false,
      "stateMutability": "view",
      "type": "function"
    },
    {
      "constant": true,
      "inputs": [
        {
          "internalType": "address",
          "name": "instrument_address",
          "type": "address"
        }
      ],
      "name": "getInstrumentBalance",
      "outputs": [
        {
          "internalType": "uint256",
          "name": "",
          "type": "uint256"
        }
      ],
      "payable": false,
      "stateMutability": "view",
      "type": "function"
    },
    {
      "constant": true,
      "inputs": [
        {
          "internalType": "address",
          "name": "instrument_address",
          "type": "address"
        }
      ],
      "name": "getTotalDrippedAmount",
      "outputs": [
        {
          "internalType": "uint256",
          "name": "",
          "type": "uint256"
        }
      ],
      "payable": false,
      "stateMutability": "view",
      "type": "function"
    },
    {
      "constant": true,
      "inputs": [
        {
          "internalType": "address",
          "name": "instrument_address",
          "type": "address"
        }
      ],
      "name": "getTotalTransferredAmount",
      "outputs": [
        {
          "internalType": "uint256",
          "name": "",
          "type": "uint256"
        }
      ],
      "payable": false,
      "stateMutability": "view",
      "type": "function"
    },
    {
      "constant": true,
      "inputs": [],
      "name": "getSIGHBalance",
      "outputs": [
        {
          "internalType": "uint256",
          "name": "",
          "type": "uint256"
        }
      ],
      "payable": false,
      "stateMutability": "view",
      "type": "function"
    },
    {
      "constant": true,
      "inputs": [],
      "name": "getDistributionState",
      "outputs": [
        {
          "internalType": "bool",
          "name": "isAllowed",
          "type": "bool"
        },
        {
          "internalType": "address",
          "name": "targetAddress",
          "type": "address"
        },
        {
          "internalType": "address",
          "name": "instrumentBeingDistributed",
          "type": "address"
        },
        {
          "internalType": "uint256",
          "name": "speed",
          "type": "uint256"
        }
      ],
      "payable": false,
      "stateMutability": "view",
      "type": "function"
    },
    {
      "constant": true,
      "inputs": [],
      "name": "isDistributionAllowed",
      "outputs": [
        {
          "internalType": "bool",
          "name": "",
          "type": "bool"
        }
      ],
      "payable": false,
      "stateMutability": "view",
      "type": "function"
    },
    {
      "constant": true,
      "inputs": [],
      "name": "getTargetAddressForDistribution",
      "outputs": [
        {
          "internalType": "address",
          "name": "",
          "type": "address"
        }
      ],
      "payable": false,
      "stateMutability": "view",
      "type": "function"
    },
    {
      "constant": true,
      "inputs": [],
      "name": "getinstrumentBeingDripped",
      "outputs": [
        {
          "internalType": "address",
          "name": "",
          "type": "address"
        }
      ],
      "payable": false,
      "stateMutability": "view",
      "type": "function"
    },
    {
      "constant": true,
      "inputs": [],
      "name": "getDistributionSpeed",
      "outputs": [
        {
          "internalType": "uint256",
          "name": "",
          "type": "uint256"
        }
      ],
      "payable": false,
      "stateMutability": "view",
      "type": "function"
    },
    {
      "constant": true,
      "inputs": [],
      "name": "getSIGHBurnState",
      "outputs": [
        {
          "internalType": "bool",
          "name": "isAllowed",
          "type": "bool"
        },
        {
          "internalType": "uint256",
          "name": "burnSpeed",
          "type": "uint256"
        },
        {
          "internalType": "uint256",
          "name": "totalSighBurnt",
          "type": "uint256"
        },
        {
          "internalType": "uint256",
          "name": "sighBalance",
          "type": "uint256"
        }
      ],
      "payable": false,
      "stateMutability": "view",
      "type": "function"
    },
    {
      "constant": true,
      "inputs": [],
      "name": "getSIGHBurnSpeed",
      "outputs": [
        {
          "internalType": "uint256",
          "name": "",
          "type": "uint256"
        }
      ],
      "payable": false,
      "stateMutability": "view",
      "type": "function"
    },
    {
      "constant": true,
      "inputs": [],
      "name": "getTotalBurntSigh",
      "outputs": [
        {
          "internalType": "uint256",
          "name": "",
          "type": "uint256"
        }
      ],
      "payable": false,
      "stateMutability": "view",
      "type": "function"
    },
    {
      "constant": true,
      "inputs": [],
      "name": "getCurrentSIGHTransferState",
      "outputs": [
        {
          "internalType": "uint256",
          "name": "maxSIGHSpentLimit",
          "type": "uint256"
        },
        {
          "internalType": "uint256",
          "name": "totalSighTransferredAndTraded",
          "type": "uint256"
        }
      ],
      "payable": false,
      "stateMutability": "view",
      "type": "function"
    },
    {
      "constant": true,
      "inputs": [],
      "name": "blocksRemainingForNextPeriod",
      "outputs": [
        {
          "internalType": "uint256",
          "name": "",
          "type": "uint256"
        }
      ],
      "payable": false,
      "stateMutability": "view",
      "type": "function"
    }
  ],
  "bytecode": "0x60806040526000805534801561001457600080fd5b50613c11806100246000396000f3fe6080604052600436106101e35760003560e01c80639ee3abea11610102578063d3ec44a311610095578063eb2661f911610064578063eb2661f914610763578063ee56977e14610778578063f9309e53146107c1578063fc5e11c3146107ef576101e3565b8063d3ec44a314610640578063df28b7f114610679578063e0ae645f1461071b578063e0db071414610730576101e3565b8063c4d66de8116100d1578063c4d66de8146105ae578063c699308e146105e3578063c6a6bfb114610616578063d2ca21151461062b576101e3565b80639ee3abea146105095780639f678cca14610533578063ada9774f14610548578063c11b25761461057b576101e3565b8063325eb3ee1161017a5780636754b930116101495780636754b9301461048d57806368fcccde146104ca57806377fd1aac146104df5780637c55ccb3146104f4576101e3565b8063325eb3ee1461040b5780633b9c9c531461042057806360c659001461043557806361bbea8a14610478576101e3565b80631c252db1116101b65780631c252db1146102d85780631f6c08731461031657806324e7e0f4146103e15780632ff76e4c146103f6576101e3565b806301d04224146101e857806302f532191461020f57806304de9fac146102745780630a206f04146102a5575b600080fd5b3480156101f457600080fd5b506101fd610822565b60408051918252519081900360200190f35b34801561021b57600080fd5b50610224610829565b60408051602080825283518183015283519192839290830191858101910280838360005b83811015610260578181015183820152602001610248565b505050509050019250505060405180910390f35b34801561028057600080fd5b5061028961088b565b604080516001600160a01b039092168252519081900360200190f35b3480156102b157600080fd5b506101fd600480360360208110156102c857600080fd5b50356001600160a01b03166108b1565b3480156102e457600080fd5b50610302600480360360208110156102fb57600080fd5b50356108d3565b604080519115158252519081900360200190f35b34801561032257600080fd5b506103496004803603602081101561033957600080fd5b50356001600160a01b03166109ff565b604051808615151515815260200180602001858152602001848152602001838152602001828103825286818151815260200191508051906020019080838360005b838110156103a257818101518382015260200161038a565b50505050905090810190601f1680156103cf5780820380516001836020036101000a031916815260200191505b50965050505050505060405180910390f35b3480156103ed57600080fd5b506101fd610b6b565b34801561040257600080fd5b506101fd610c0e565b34801561041757600080fd5b506101fd610c14565b34801561042c57600080fd5b506101fd610f8d565b34801561044157600080fd5b506103026004803603606081101561045857600080fd5b506001600160a01b03813581169160208101359091169060400135610fa4565b34801561048457600080fd5b50610289611238565b34801561049957600080fd5b506104a261124c565b6040805194151585526020850193909352838301919091526060830152519081900360800190f35b3480156104d657600080fd5b506103026112ea565b3480156104eb57600080fd5b506101fd6112f3565b34801561050057600080fd5b5061030261130a565b34801561051557600080fd5b506103026004803603602081101561052c57600080fd5b503561142b565b34801561053f57600080fd5b506101fd611593565b34801561055457600080fd5b506101fd6004803603602081101561056b57600080fd5b50356001600160a01b0316611967565b34801561058757600080fd5b506103026004803603602081101561059e57600080fd5b50356001600160a01b0316611a59565b3480156105ba57600080fd5b506105e1600480360360208110156105d157600080fd5b50356001600160a01b0316611ef0565b005b3480156105ef57600080fd5b506101fd6004803603602081101561060657600080fd5b50356001600160a01b0316611fb1565b34801561062257600080fd5b506101fd611fcf565b34801561063757600080fd5b506101fd612051565b34801561064c57600080fd5b506101fd6004803603604081101561066357600080fd5b506001600160a01b038135169060200135612056565b610302600480360360c081101561068f57600080fd5b6001600160a01b0382358116926020810135909116918101906060810160408201356401000000008111156106c357600080fd5b8201836020820111156106d557600080fd5b803590602001918460018302840111640100000000831117156106f757600080fd5b91935091506001600160a01b038135811691602081013590911690604001356123a3565b34801561072757600080fd5b50610302612a5c565b34801561073c57600080fd5b506101fd6004803603602081101561075357600080fd5b50356001600160a01b0316612bcb565b34801561076f57600080fd5b50610302612be9565b34801561078457600080fd5b5061078d612d95565b6040805194151585526001600160a01b03938416602086015291909216838201526060830191909152519081900360800190f35b3480156107cd57600080fd5b506107d6612dba565b6040805192835260208301919091528051918290030190f35b3480156107fb57600080fd5b506103026004803603602081101561081257600080fd5b50356001600160a01b0316612dc4565b6037545b90565b6060603780548060200260200160405190810160405280929190818152602001828054801561088157602002820191906000526020600020905b81546001600160a01b03168152600190910190602001808311610863575b5050505050905090565b60385460009060ff16156108ab57506039546001600160a01b0316610826565b50600090565b6001600160a01b0381166000908152603660205260409020600401545b919050565b6000336001600160a01b0316603560009054906101000a90046001600160a01b03166001600160a01b031663db49224b6040518163ffffffff1660e01b815260040160206040518083038186803b15801561092d57600080fd5b505afa158015610941573d6000803e3d6000fd5b505050506040513d602081101561095757600080fd5b50516001600160a01b03161461099e5760405162461bcd60e51b815260040180806020018281038252603a8152602001806136f0603a913960400191505060405180910390fd5b60385460ff16156109b3576109b1611593565b505b6109bc82612f3f565b6109f75760405162461bcd60e51b815260040180806020018281038252602c815260200180613639602c913960400191505060405180910390fd5b506001919050565b600060606000806000808690506000816001600160a01b03166370a08231306040518263ffffffff1660e01b815260040180826001600160a01b03166001600160a01b0316815260200191505060206040518083038186803b158015610a6457600080fd5b505afa158015610a78573d6000803e3d6000fd5b505050506040513d6020811015610a8e57600080fd5b50516001600160a01b038916600090815260366020908152604091829020805460038201546004830154600193840180548751600261010097831615979097026000190190911695909504601f810187900487028601870190975286855296975060ff90921695948794919391869190830182828015610b4f5780601f10610b2457610100808354040283529160200191610b4f565b820191906000526020600020905b815481529060010190602001808311610b3257829003601f168201915b5050505050935096509650965096509650505091939590929450565b600080610bb0436042546040518060400160405280601881526020017f4572726f7220647572696e67207375627472616374696f6e0000000000000000815250612f94565b905060028110610bc4576000915050610826565b6000610c076002836040518060400160405280601e81526020017f4572726f7220647572696e672066696e616c205375627472616374696f6e0000815250612f94565b9250505090565b603e5490565b603c5460009060ff161580610c295750603d54155b80610c355750603f5443145b15610c4257506000610826565b603454604080516370a0823160e01b815230600482015290516001600160a01b039092169160009183916370a0823191602480820192602092909190829003018186803b158015610c9257600080fd5b505afa158015610ca6573d6000803e3d6000fd5b505050506040513d6020811015610cbc57600080fd5b5051603f54604080516060810190915260258082529293504392600092610cec9285926136656020830139612f94565b90506000610d2a603c6001015483604051806040016040528060128152602001714275726e546f74616c206f766572666c6f7760701b81525061302b565b90506000610d38858361309f565b905084610d765760405162461bcd60e51b8152600401808060200182810382526035815260200180613a846035913960400191505060405180910390fd5b856001600160a01b03166342966c68826040518263ffffffff1660e01b815260040180828152602001915050602060405180830381600087803b158015610dbc57600080fd5b505af1158015610dd0573d6000803e3d6000fd5b505050506040513d6020811015610de657600080fd5b5051610e39576040805162461bcd60e51b815260206004820181905260248201527f5468652053494748206275726e20776173206e6f74207375636365737366756c604482015290519081900360640190fd5b603f849055603e5460408051808201909152601981527f546f74616c2053696768204275726e74204f766572666c6f77000000000000006020820152610e8290829084906130b6565b603e55604080516370a0823160e01b815230600482015290516001600160a01b038916916370a08231916024808301926020929190829003018186803b158015610ecb57600080fd5b505afa158015610edf573d6000803e3d6000fd5b505050506040513d6020811015610ef557600080fd5b5051603480546001600160a01b0390811660009081526036602090815260408083206002908101969096559354603e5493168083529184902090940154603f5484519283529482018790528184019290925260608101919091526080810192909252517fb317d5e3c5d92c9e3a82d7631097452b40a2029af2d50dde53b91eaa7b638b2a9181900360a00190a1509550505050505090565b603c5460009060ff16156108ab5750603d54610826565b6000336001600160a01b0316603560009054906101000a90046001600160a01b03166001600160a01b031663db49224b6040518163ffffffff1660e01b815260040160206040518083038186803b158015610ffe57600080fd5b505afa158015611012573d6000803e3d6000fd5b505050506040513d602081101561102857600080fd5b50516001600160a01b03161461106f5760405162461bcd60e51b815260040180806020018281038252603a8152602001806136f0603a913960400191505060405180910390fd5b60385460ff16156110b15760405162461bcd60e51b815260040180806020018281038252604c815260200180613913604c913960600191505060405180910390fd5b6001600160a01b03831660009081526036602052604090205460ff166111085760405162461bcd60e51b81526004018080602001828103825260338152602001806136bd6033913960400191505060405180910390fd5b60388054610100600160a81b0319166101006001600160a01b038716021790556111318361310b565b61116c5760405162461bcd60e51b8152600401808060200182810382526032815260200180613a226032913960400191505060405180910390fd5b61117582612f3f565b6111b05760405162461bcd60e51b815260040180806020018281038252602c815260200180613639602c913960400191505060405180910390fd5b6038805460ff19166001179081905543603b819055603954603a546040805160ff8616151581526001600160a01b036101009096048616602082015292909416828501526060820152608081019190915290517fb6ddbec3887b4f765bcacfa3cee9cc52cb71339be12fa48e804663997d4521c29181900360a00190a15060015b9392505050565b60385461010090046001600160a01b031690565b603c54603d54603e54603454604080516370a0823160e01b8152306004820152905160009586958695869560ff90931694919390926001600160a01b0316916370a08231916024808301926020929190829003018186803b1580156112b057600080fd5b505afa1580156112c4573d6000803e3d6000fd5b505050506040513d60208110156112da57600080fd5b5051929791965094509092509050565b60385460ff1690565b60385460009060ff16156108ab5750603a54610826565b6000336001600160a01b0316603560009054906101000a90046001600160a01b03166001600160a01b031663db49224b6040518163ffffffff1660e01b815260040160206040518083038186803b15801561136457600080fd5b505afa158015611378573d6000803e3d6000fd5b505050506040513d602081101561138e57600080fd5b50516001600160a01b0316146113d55760405162461bcd60e51b815260040180806020018281038252603a8152602001806136f0603a913960400191505060405180910390fd5b6113dd613273565b611425576040805162461bcd60e51b8152602060048201526014602482015273536f6d657468696e672077656e742077726f6e6760601b604482015290519081900360640190fd5b50600190565b6000336001600160a01b0316603560009054906101000a90046001600160a01b03166001600160a01b031663db49224b6040518163ffffffff1660e01b815260040160206040518083038186803b15801561148557600080fd5b505afa158015611499573d6000803e3d6000fd5b505050506040513d60208110156114af57600080fd5b50516001600160a01b0316146114f65760405162461bcd60e51b815260040180806020018281038252603a8152602001806136f0603a913960400191505060405180910390fd5b6034546001600160a01b031660009081526036602052604090205460ff1661154f5760405162461bcd60e51b8152600401808060200182810382526026815260200180613ab96026913960400191505060405180910390fd5b61155882613309565b6109f75760405162461bcd60e51b815260040180806020018281038252602881526020018061372a6028913960400191505060405180910390fd5b60385460009060ff1615806115a85750603a54155b806115c1575060385461010090046001600160a01b0316155b806115cd5750603b5443145b156115da57506000610826565b603954604080516370a0823160e01b815230600482015290516001600160a01b039092169160009183916370a0823191602480820192602092909190829003018186803b15801561162a57600080fd5b505afa15801561163e573d6000803e3d6000fd5b505050506040513d602081101561165457600080fd5b5051603b5460408051808201909152601d81527f426c6f636b7320537562737472616374696f6e206f76657272666c6f77000000602082015291925043916000916116a191849190612f94565b905060006116df603860020154836040518060400160405280601281526020017164726970546f74616c206f766572666c6f7760701b81525061302b565b905060006116ed858361309f565b90508461172b5760405162461bcd60e51b815260040180806020018281038252604a815260200180613adf604a913960600191505060405180910390fd5b6038546040805163a9059cbb60e01b81526101009092046001600160a01b0390811660048401526024830184905290519088169163a9059cbb9160448083019260209291908290030181600087803b15801561178657600080fd5b505af115801561179a573d6000803e3d6000fd5b505050506040513d60208110156117b057600080fd5b50516117ed5760405162461bcd60e51b815260040180806020018281038252602981526020018061383f6029913960400191505060405180910390fd5b603b8490556039546001600160a01b031660009081526036602090815260409182902060030154825180840190935260088352674f766572666c6f7760c01b918301919091529061184190829084906130b6565b6039546001600160a01b039081166000908152603660209081526040918290206003019390935580516370a0823160e01b81523060048201529051918a16926370a0823192602480840193829003018186803b1580156118a057600080fd5b505afa1580156118b4573d6000803e3d6000fd5b505050506040513d60208110156118ca57600080fd5b5051603980546001600160a01b0390811660009081526036602090815260408083206002018690556038549454841680845292819020600301548151610100909604909416855290840191909152828101869052606083018490526080830191909152519197507fa982b85190ae5aa0711a67ed15c2274b20390621b65382a3e2cda4f26251a520919081900360a00190a1509550505050505090565b6001600160a01b03811660009081526036602052604081205460ff166119be5760405162461bcd60e51b815260040180806020018281038252602a815260200180613bb3602a913960400191505060405180910390fd5b604080516370a0823160e01b8152306004820152905183916001600160a01b038316916370a0823191602480820192602092909190829003018186803b158015611a0757600080fd5b505afa158015611a1b573d6000803e3d6000fd5b505050506040513d6020811015611a3157600080fd5b50516001600160a01b0384166000908152603660205260409020600201819055915050919050565b6000336001600160a01b0316603560009054906101000a90046001600160a01b03166001600160a01b031663db49224b6040518163ffffffff1660e01b815260040160206040518083038186803b158015611ab357600080fd5b505afa158015611ac7573d6000803e3d6000fd5b505050506040513d6020811015611add57600080fd5b50516001600160a01b031614611b245760405162461bcd60e51b815260040180806020018281038252603a8152602001806136f0603a913960400191505060405180910390fd5b6001600160a01b03821660009081526036602052604090205460ff1615611b7c5760405162461bcd60e51b81526004018080602001828103825260348152602001806137526034913960400191505060405180910390fd5b600082905060008390506040518060a00160405280600115158152602001826001600160a01b03166306fdde036040518163ffffffff1660e01b815260040160006040518083038186803b158015611bd357600080fd5b505afa158015611be7573d6000803e3d6000fd5b505050506040513d6000823e601f3d908101601f191682016040526020811015611c1057600080fd5b8101908080516040519392919084640100000000821115611c3057600080fd5b908301906020820185811115611c4557600080fd5b8251640100000000811182820188101715611c5f57600080fd5b82525081516020918201929091019080838360005b83811015611c8c578181015183820152602001611c74565b50505050905090810190601f168015611cb95780820380516001836020036101000a031916815260200191505b506040908152938552505081516370a0823160e01b815230600482015291516020938401936001600160a01b038816936370a08231935060248082019391829003018186803b158015611d0b57600080fd5b505afa158015611d1f573d6000803e3d6000fd5b505050506040513d6020811015611d3557600080fd5b505181526000602080830182905260409283018290526001600160a01b0388168252603681529190208251815460ff19169015151781558282015180519192611d86926001850192909101906135a0565b506040828101516002808401919091556060808501516003808601919091556080958601516004958601556037805460018181019092557f42a7b7dd785cd69714a189dffb3fd7d7174edc9ece837694ce50f7078f7c31ae0180546001600160a01b038d166001600160a01b0319909116811790915560008181526036602090815290879020808701549481015498810154885193845297830185905294820188905297810186905260a09781018881529382018054928316156101000260001901909216949094049684018790527f44086b3afcbf795fb41652f5fa3a4ae27c79df709e6e83c54310541786b14b9a968b969195929491939060c083019087908015611ed45780601f10611ea957610100808354040283529160200191611ed4565b820191906000526020600020905b815481529060010190602001808311611eb757829003601f168201915b5050965050505050505060405180910390a15060019392505050565b6000611efa613375565b60015490915060ff1680611f115750611f1161337a565b80611f1d575060005481115b611f585760405162461bcd60e51b815260040180806020018281038252602e815260200180613892602e913960400191505060405180910390fd5b60015460ff16158015611f77576001805460ff19168117905560008290555b603580546001600160a01b0319166001600160a01b038516179055611f9a613273565b508015611fac576001805460ff191690555b505050565b6001600160a01b031660009081526036602052604090206002015490565b603454604080516370a0823160e01b815230600482015290516000926001600160a01b031691839183916370a08231916024808301926020929190829003018186803b15801561201e57600080fd5b505afa158015612032573d6000803e3d6000fd5b505050506040513d602081101561204857600080fd5b50519250505090565b600281565b6000336001600160a01b0316603560009054906101000a90046001600160a01b03166001600160a01b031663db49224b6040518163ffffffff1660e01b815260040160206040518083038186803b1580156120b057600080fd5b505afa1580156120c4573d6000803e3d6000fd5b505050506040513d60208110156120da57600080fd5b50516001600160a01b0316146121215760405162461bcd60e51b815260040180806020018281038252603a8152602001806136f0603a913960400191505060405180910390fd5b6034546001600160a01b031660009081526036602052604090205460ff1661217a5760405162461bcd60e51b815260040180806020018281038252602d815260200180613812602d913960400191505060405180910390fd5b600061218583613380565b6034546040805163a9059cbb60e01b81526001600160a01b03888116600483015260248201859052915193945091169163a9059cbb916044808201926020929091908290030181600087803b1580156121dd57600080fd5b505af11580156121f1573d6000803e3d6000fd5b505050506040513d602081101561220757600080fd5b505161225a576040805162461bcd60e51b815260206004820152601e60248201527f546865207472616e7366657220646964206e6f7420636f6d706c6574652e0000604482015290519081900360640190fd5b6034546001600160a01b031660009081526036602090815260409182902060040154825160608101909352602a80845290926122a1928492869291613868908301396130b6565b603480546001600160a01b03908116600090815260366020908152604091829020600490810195909555925481516370a0823160e01b8152309581019590955290519116926370a08231926024808301939192829003018186803b15801561230857600080fd5b505afa15801561231c573d6000803e3d6000fd5b505050506040513d602081101561233257600080fd5b50516034546001600160a01b0390811660009081526036602090815260409182902060020193909355805185815243938101939093528051918816927fb78e8281051052bc316580ad439be0f09737b9b6bed3d0bc98830b0805c5f37b929081900390910190a25090505b92915050565b6000336001600160a01b0316603560009054906101000a90046001600160a01b03166001600160a01b031663878543546040518163ffffffff1660e01b815260040160206040518083038186803b1580156123fd57600080fd5b505afa158015612411573d6000803e3d6000fd5b505050506040513d602081101561242757600080fd5b50516001600160a01b03161461246e5760405162461bcd60e51b815260040180806020018281038252602d815260200180613b29602d913960400191505060405180910390fd5b6001600160a01b03841660009081526036602052604090205460ff166124c55760405162461bcd60e51b81526004018080602001828103825260388152602001806137da6038913960400191505060405180910390fd5b6001600160a01b03831660009081526036602052604090205460ff1661251c5760405162461bcd60e51b815260040180806020018281038252603381526020018061368a6033913960400191505060405180910390fd5b604080516370a0823160e01b8152306004820152905185916000916001600160a01b038416916370a08231916024808301926020929190829003018186803b15801561256757600080fd5b505afa15801561257b573d6000803e3d6000fd5b505050506040513d602081101561259157600080fd5b5051604080516370a0823160e01b8152306004820152905191925086916000916001600160a01b038416916370a0823191602480820192602092909190829003018186803b1580156125e257600080fd5b505afa1580156125f6573d6000803e3d6000fd5b505050506040513d602081101561260c57600080fd5b50516040805163095ea7b360e01b81526001600160a01b038f81166004830152602482018a905291519293509084169163095ea7b3916044808201926020929091908290030181600087803b15801561266457600080fd5b505af1158015612678573d6000803e3d6000fd5b505050506040513d602081101561268e57600080fd5b505161269957600080fd5b600060608c6001600160a01b0316348d8d604051808383808284376040519201945060009350909150508083038185875af1925050503d80600081146126fb576040519150601f19603f3d011682016040523d82523d6000602084013e612700565b606091505b50915091508161274b576040805162461bcd60e51b81526020600482015260116024820152701513d2d1538814d5d05408119052531151607a1b604482015290519081900360640190fd5b8115612a4657604080516370a0823160e01b815230600482015290516000916001600160a01b038916916370a0823191602480820192602092909190829003018186803b15801561279b57600080fd5b505afa1580156127af573d6000803e3d6000fd5b505050506040513d60208110156127c557600080fd5b5051604080516370a0823160e01b815230600482015290519192506000916001600160a01b038816916370a08231916024808301926020929190829003018186803b15801561281357600080fd5b505afa158015612827573d6000803e3d6000fd5b505050506040513d602081101561283d57600080fd5b8101908080519060200190929190505050905081603660008e6001600160a01b03166001600160a01b031681526020019081526020016000206002018190555080603660008d6001600160a01b03166001600160a01b031681526020019081526020016000206002018190555060006128cf838960405180608001604052806054815260200161378660549139612f94565b905060006128f687846040518060800160405280605381526020016138c060539139612f94565b90507f8442948036198f1146d3a63c3db355d7e0295c2cc5676c755990445da4fdc1c98e838660405180846001600160a01b03166001600160a01b03168152602001838152602001828152602001935050505060405180910390a1604080516001600160a01b038f1681526020810183905280820185905290517f2dcf9433d75db0d8b1c172641f85e319ffe4ad22e108a95d1847ceb906e5195d9181900360600190a17fdcfa816c675129132906d878736fcdb3261d869fd69cdeae5db3bef320f09e57856040518080602001828103825283818151815260200191508051906020019080838360005b838110156129f95781810151838201526020016129e1565b50505050905090810190601f168015612a265780820380516001836020036101000a031916815260200191505b509250505060405180910390a160019a5050505050505050505050612a51565b600096505050505050505b979650505050505050565b6000336001600160a01b0316603560009054906101000a90046001600160a01b03166001600160a01b031663db49224b6040518163ffffffff1660e01b815260040160206040518083038186803b158015612ab657600080fd5b505afa158015612aca573d6000803e3d6000fd5b505050506040513d6020811015612ae057600080fd5b50516001600160a01b031614612b275760405162461bcd60e51b815260040180806020018281038252603a8152602001806136f0603a913960400191505060405180910390fd5b60385460ff16612b3957506001610826565b612b41611593565b50603880546001600160a81b03191690819055603980546001600160a01b03191690556000603a819055604080518281526101009093046001600160a01b031660208401528281018290526060830191909152436080830152517fe181a14caf60a9bb6aea05d4ad4f0b944ac3ca325ef8a9bfcab5cef3bc2f42ed9181900360a00190a150600190565b6001600160a01b031660009081526036602052604090206003015490565b6000336001600160a01b0316603560009054906101000a90046001600160a01b03166001600160a01b031663db49224b6040518163ffffffff1660e01b815260040160206040518083038186803b158015612c4357600080fd5b505afa158015612c57573d6000803e3d6000fd5b505050506040513d6020811015612c6d57600080fd5b50516001600160a01b031614612cb45760405162461bcd60e51b815260040180806020018281038252603a8152602001806136f0603a913960400191505060405180910390fd5b6034546001600160a01b031660009081526036602052604090205460ff16612d0d5760405162461bcd60e51b8152600401808060200182810382526026815260200180613ab96026913960400191505060405180910390fd5b603c5460ff1615612d3b57612d20610c14565b50603c805460ff19169055612d356000613309565b50612d4d565b603c805460ff1916600117905543603f555b603c546040805160ff9092161515825243602083015280517fa96dd0afb343ed25a15275582d4f97cca0c631e9350538346ac3820a60c5de279281900390910190a150600190565b603854603954603a5460ff8316926001600160a01b0361010090910481169216919293565b6040546041549091565b6000336001600160a01b0316603560009054906101000a90046001600160a01b03166001600160a01b031663db49224b6040518163ffffffff1660e01b815260040160206040518083038186803b158015612e1e57600080fd5b505afa158015612e32573d6000803e3d6000fd5b505050506040513d6020811015612e4857600080fd5b50516001600160a01b031614612e8f5760405162461bcd60e51b815260040180806020018281038252603a8152602001806136f0603a913960400191505060405180910390fd5b6001600160a01b03821660009081526036602052604090205460ff16612ee65760405162461bcd60e51b81526004018080602001828103825260338152602001806136bd6033913960400191505060405180910390fd5b60385460ff1615612efb57612ef9611593565b505b612f048261310b565b6109f75760405162461bcd60e51b8152600401808060200182810382526032815260200180613a226032913960400191505060405180910390fd5b603a805490829055604080518281526020810184905243818301529051600092917fcb726a38993fdfa3c520bb963d26a5dada83bc186122f7b5ff9d950c937e4606919081900360600190a150600192915050565b600081848411156130235760405162461bcd60e51b81526004018080602001828103825283818151815260200191508051906020019080838360005b83811015612fe8578181015183820152602001612fd0565b50505050905090810190601f1680156130155780820380516001836020036101000a031916815260200191505b509250505060405180910390fd5b505050900390565b60008361303a57506000611231565b8383028385828161304757fe5b041483906130965760405162461bcd60e51b8152602060048201818152835160248401528351909283926044909101919085019080838360008315612fe8578181015183820152602001612fd0565b50949350505050565b60008183116130af57508161239d565b508061239d565b600083830182858210156130965760405162461bcd60e51b8152602060048201818152835160248401528351909283926044909101919085019080838360008315612fe8578181015183820152602001612fd0565b604080516370a0823160e01b81523060048201529051600091839183916001600160a01b038416916370a0823191602480820192602092909190829003018186803b15801561315957600080fd5b505afa15801561316d573d6000803e3d6000fd5b505050506040513d602081101561318357600080fd5b50519050806131c35760405162461bcd60e51b81526004018080602001828103825260308152602001806139b46030913960400191505060405180910390fd5b603980546001600160a01b0319166001600160a01b038681169182179283905591909116146132235760405162461bcd60e51b815260040180806020018281038252603e8152602001806139e4603e913960400191505060405180910390fd5b603954604080516001600160a01b03909216825243602083015280517f893224cf427aba63f12455f7dd9eb9e966780f320b490746c6f92cb16f9191769281900390910190a15060019392505050565b60355460408051632106a90360e21b815290516000926001600160a01b03169163841aa40c916004808301926020929190829003018186803b1580156132b857600080fd5b505afa1580156132cc573d6000803e3d6000fd5b505050506040513d60208110156132e257600080fd5b5051603480546001600160a01b0319166001600160a01b0390921691909117905550600190565b603d546000901561331e5761331c610c14565b505b603d80549083905543603f55603d546040805183815260208101929092524382820152517fc2958fed67c1858352579a317ba3a6c042f4694ef53d27df67d39a3ddf6392339181900360600190a150600192915050565b600190565b303b1590565b60008043905060006133b68260425460405180604001604052806009815260200168756e646572666c6f7760b81b815250612f94565b905060028111156134c957603454604080516370a0823160e01b815230600482015290516000926001600160a01b0316916370a08231916024808301926020929190829003018186803b15801561340c57600080fd5b505afa158015613420573d6000803e3d6000fd5b505050506040513d602081101561343657600080fd5b50516040805481516060810190925260308083529293509161346591849160199190613a54602083013961353b565b60408181554360425580518381526020810192909252818101849052517fa90c0b0a2955c09beff1f736123ca75f35d7aa343badda5aab2b8a9e81eed7f59181900360600190a16134b88660405461309f565b604181905594506108ce9350505050565b60006134f26040546041546040518060800160405280605d8152602001613b56605d9139612f94565b90506000613500828761309f565b90506000604154905061352c818360405180608001604052806055815260200161395f605591396130b6565b6041555093506108ce92505050565b6000818361358a5760405162461bcd60e51b8152602060048201818152835160248401528351909283926044909101919085019080838360008315612fe8578181015183820152602001612fd0565b50600083858161359657fe5b0495945050505050565b828054600181600116156101000203166002900490600052602060002090601f016020900481019282601f106135e157805160ff191683800117855561360e565b8280016001018555821561360e579182015b8281111561360e5782518255916020019190600101906135f3565b5061361a92915061361e565b5090565b61082691905b8082111561361a576000815560010161362456fe446973747269627574696f6e205370656564206e6f7420696e697469616c697a65642070726f7065726c792e426c6f636b204e756d6265727320537562737472616374696f6e2067617665206572726f72496e737472756d656e7420746f20626520736f6c6420686173206e6f74206265656e20696e697469616c697a6564207965742e496e737472756d656e7420746f206265206469737472696275746564206973206e6f7420696e697469616c697a6564207965745468652063616c6c6572206d7573742062652074686520534947482046696e616e61636520436f6e666967757261746f7220436f6e747261637453696768204275726e20737065656420776173206e6f7420757064617465642070726f7065726c795468652070726f766964656420696e737472756d656e742068617320616c7265616479206265656e20696e697469616c697a65644e657720546f6b656e2042616c616e636520666f7220746f6b656e73207468617420617265206265696e6720426f75676874206973206c6f776572207468616e2069747320696e697469616c2062616c616e6365496e737472756d656e7420746f2062652070757263686173656420686173206e6f74206265656e20696e697469616c697a6564207965742e5349474820496e737472756d656e7420686173206e6f74206265656e20696e697469616c697a6564207965742e54686520496e737472756d656e74207472616e7366657220646964206e6f7420636f6d706c6574652e4572726f72207768656e207570646174696e6720746f74616c2053494748205472616e73666572726564436f6e747261637420696e7374616e63652068617320616c7265616479206265656e20696e697469616c697a65644e657720546f6b656e2042616c616e636520666f7220746f6b656e73207468617420617265206265696e6720536f6c6420697320686967686572207468616e2069747320696e697469616c2062616c616e6365496e737472756d656e7420646973747269627574696f6e206e6565647320746f206265207265736574206265666f72652069742063616e20626520696e697469616c697a656420416761696e4572726f72207768656e207570646174696e6720746f74616c205369676820616d6f756e7420747261646564202f207472616e7366657272656420647572696e67207468652063757272656e7420706572696f642054686520547265617375727920646f6573206e6f7420686f6c64207468657365206e657720696e737472756d656e74734164647265737320666f722074686520696e737472756d656e7420746f2062652044726970706564206e6f742061737369676e65642070726f7065726c79496e737472756d656e7420746f206265206469737472696275746564206e6f742061737369676e65642070726f7065726c797570646174656d61785472616e73666572416d6f756e743a204469766973696f6e2072657475726e6564206572726f725468652074726561737572792063757272656e746c7920646f6573206e6f74206861766520616e79205349474820746f6b656e732e5349474820496e737472756d656e74206973206e6f7420696e697469616c697a6564207965745468652074726561737572792063757272656e746c7920646f6573206e6f74206861766520616e79206f6620746f6b656e7320776869636820617265206265696e6720447269707065645468652063616c6c6572206d757374206265207468652053494748204d656368616e69736d204d616e616765724572726f72207768656e207375627472616374696e672063757272656e7420616d6f756e74206f6620736967682074726164652f7472616e736665727265642066726f6d206d61782073696768207472616e73666572206c696d6974205468697320696e737472756d656e742069732063757272656e74206e6f7420696e697469616c697a6564a265627a7a72315820a1bb7acfb5f1d2ab4a1fe1fb789a3e6a6fe5c005959ec06ad4d2b74a6dd1d65c64736f6c63430005100032",
  "source": "pragma solidity ^0.5.16;\n\n/**\n * @title Sigh Treasury Contract Interface\n * @notice The Treasury Contract for SIGH Finance\n * @dev Used to Swap Tokens, burns SIGH Tokens, and can ERC20 token can be distributed to a target address on a per block basis\n * @author SIGH Finance\n */\n\nimport \"openzeppelin-solidity/contracts/token/ERC20/IERC20.sol\"; \nimport \"openzeppelin-solidity/contracts/token/ERC20/ERC20Detailed.sol\";\nimport \"../../openzeppelin-upgradeability/VersionedInitializable.sol\";\n\nimport \"./EIP20InterfaceSIGH.sol\";\nimport \"../../configuration/GlobalAddressesProvider.sol\";\n\n// import \"./IForwarder.sol\";\n// import \"../openzeppelin/EIP20Interface.sol\";\n\ncontract Treasury is VersionedInitializable   {\n\n    // OTHER CONTRACTS INTERACTED WITH\n    IERC20 private sigh_Instrument;    \n    GlobalAddressesProvider private addressesProvider;\n    \n    // STATE OF THE INSTRUMENTS HELD IN THE TREASURY\n    struct instrumentState {\n        bool initialized;\n        string name;\n        uint balance;\n        uint totalAmountDripped;\n        uint totalAmountTransferred;\n    }\n\n    mapping (address => instrumentState) instrumentStates;\n    address[] private allInstruments;\n\n    // TREASURY's DRIPPING STATE PARAMETERS\n    struct dripState {\n        bool isDripAllowed;    \n        address targetAddressForDripping;\n        address instrumentBeingDripped;\n        uint DripSpeed;\n        uint lastDripBlockNumber; \n    }\n    \n    dripState private treasuryDripState;\n\n    // TREASURY's SIGH BURN STATE PARAMETERS\n    struct burnState {\n        bool is_SIGH_BurnAllowed;\n        uint SIGHBurnSpeed;\n        uint totalBurntSIGH;\n        uint lastBurnBlockNumber;\n    }\n    \n    burnState private sighBurnState;\n\n    // SIGH TRANSFER RELATED FUNCTIONS\n\n    uint private maxSIGHTransferLimit;                  // MAX SIGH that can be traded/transferred during a period\n    uint private totalSighTradedAndTransferred;      // SIGH that has been traded/transferred during the current period\n    uint public constant periodLength = 2;                      // Period Length\n    uint private periodInitializationBlock;            \n    \n\n\n    event InstrumentInitialized( address instrument, string name, uint balance, uint totalAmountDripped, uint totalAmountTransferred  );\n\n    event InstrumentDistributionInitialized(bool isDripAllowed, address targetAddressForDripping, address instrumentBeingDripped,  uint dripSpeed, uint initializationBlockNumber);\n    event InstrumentDistributionReset(bool isDripAllowed, address targetAddressForDripping, address instrumentBeingDripped,  uint dripSpeed, uint blockNumber); \n    event instrumentBeingDistributedChanged(address newInstrumentToBeDripped, uint blockNumber);\n    event DripSpeedChanged(uint prevDripSpeed , uint curDripSpeed,  uint blockNumber ); \n    event AmountDripped(address targetAddress, address instrumentBeingDripped, uint currentBalance , uint AmountDripped, uint totalAmountDripped ); \n\n    event maxTransferAmountUpdated(uint prevmaxTransferLimit, uint newmaxTransferLimit, uint sighBalance);\n    event SIGHTransferred(address indexed TargetAddress, uint amountTransferred, uint blockNumber);\n\n    event TokensBought( address instrument_address,   uint amountBought, uint new_balance );\n    event TokensSold( address instrument_address,  uint amountSold, uint new_balance );\n    event TokenSwapTransactionData( bytes data );\n\n    event SIGHBurnAllowedSwitched(bool newBurnAllowed, uint blockNumber); \n    event SIGH_Burned(address sigh_Address, uint amount, uint totalSIGHBurned, uint remaining_balance, uint blockNumber);\n    event SIGHBurnSpeedChanged(uint prevSpeed, uint newSpeed, uint blockNumber);\n\n// ########################\n// ####### MODIFIER #######\n// ########################\n\n    /**\n    * @dev only the SIGH Finance Manager can call functions affected by this modifier\n    **/\n    modifier onlySIGHFinanceManager {\n        require( addressesProvider.getSIGHFinanceManager() == msg.sender, \"The caller must be the SIGH Mechanism Manager\" );\n        _;\n    }\n\n    //only SIGH Finance Configurator can use functions affected by this modifier\n    modifier onlySighFinanceConfigurator {\n        require(addressesProvider.getSIGHFinanceConfigurator() == msg.sender, \"The caller must be the SIGH Finanace Configurator Contract\");\n        _;\n    }\n\n// ###############################################################################################\n// ##############        PROXY RELATED          ##################################################\n// ###############################################################################################\n\n\n    event SIGHTreasuryInitialized(address msgSender, address addressesProvider, address SIGH, address sighDistributionHandler);\n\n    uint256 constant private DATA_PROVIDER_REVISION = 0x1;\n\n    function getRevision() internal pure returns(uint256) {\n        return DATA_PROVIDER_REVISION;\n    }\n    \n    \n    function initialize( GlobalAddressesProvider addressesProvider_) public initializer {\n        addressesProvider = addressesProvider_; \n        refreshConfigInternal();        \n    }\n    \n    function refreshConfig() external onlySighFinanceConfigurator() returns (bool) {\n        require(refreshConfigInternal(),\"Something went wrong\"); \n        return true;\n    }\n\n    function refreshConfigInternal() internal returns (bool) {\n        sigh_Instrument = IERC20(addressesProvider.getSIGHAddress());           // SIGH TOKEN\n        return true;\n    }\n\n// ################################################################################################################ \n// ###########   BURN SIGH TOKENS  ################################################################################\n// ###########   1. changeSIGHBurnAllowed() : Activates / Deactivates SIGH Burn (onlySighFinanceConfigurator) #####\n// ###########   2. updateSIGHBurnSpeed() : Updates the SIGH Burn Speed (onlySighFinanceConfigurator) #############\n// ###########   3. burnSIGHTokens() : Public Function. Allows anyone to burn SIGH Tokens. ########################\n// ################################################################################################################\n\n    function switchSIGHBurnAllowed() external onlySighFinanceConfigurator returns (bool) {\n        require( instrumentStates[address(sigh_Instrument)].initialized, \"SIGH Instrument is not initialized yet\" );        \n        \n        if (sighBurnState.is_SIGH_BurnAllowed) {\n            burnSIGHTokens();\n            sighBurnState.is_SIGH_BurnAllowed = false;          // STATE UPDATE : is_SIGH_BurnAllowed switched\n            updateSIGHBurnSpeedInternal(0);\n        }\n        else {\n            sighBurnState.is_SIGH_BurnAllowed = true;           // STATE UPDATE : is_SIGH_BurnAllowed switched\n            sighBurnState.lastBurnBlockNumber = block.number;  // STATE UPDATE : block number updated            \n        }\n        emit SIGHBurnAllowedSwitched(sighBurnState.is_SIGH_BurnAllowed, block.number);\n        return true;\n    }\n        \n    function updateSIGHBurnSpeed(uint newBurnSpeed) external onlySighFinanceConfigurator returns (bool) {\n        require( instrumentStates[address(sigh_Instrument)].initialized, \"SIGH Instrument is not initialized yet\" );        \n        require(updateSIGHBurnSpeedInternal(newBurnSpeed),\"Sigh Burn speed was not updated properly\");\n        return true;\n    }\n\n    function burnSIGHTokens() public returns (uint) {\n        if (  !sighBurnState.is_SIGH_BurnAllowed || sighBurnState.SIGHBurnSpeed == 0 || (sighBurnState.lastBurnBlockNumber == block.number) )  {\n            return uint(0);\n        }\n        \n        EIP20InterfaceSIGH token_ = EIP20InterfaceSIGH(address(sigh_Instrument));\n        uint treasuryBalance_ = token_.balanceOf(address(this)); // get current balance of SIGH\n        uint blockNumber_ = block.number;\n        \n        uint deltaBlocks = sub(blockNumber_,sighBurnState.lastBurnBlockNumber,\"Block Numbers Substraction gave error\");\n        uint deltaBurn_ = mul(sighBurnState.SIGHBurnSpeed, deltaBlocks, \"BurnTotal overflow\");\n        uint toBurn_ = min(treasuryBalance_, deltaBurn_);\n        \n        require(treasuryBalance_ != 0, 'The treasury currently does not have any SIGH tokens.');\n        require(token_.burn(toBurn_), 'The SIGH burn was not successful' );\n        \n        sighBurnState.lastBurnBlockNumber = blockNumber_;                         // STATE UPDATE : Block number when SIGH was last burnt updated\n        uint prevTotalBurntAmount = sighBurnState.totalBurntSIGH ;\n        sighBurnState.totalBurntSIGH = add(prevTotalBurntAmount,toBurn_,\"Total Sigh Burnt Overflow\");   // STATE UPDATE : Total SIGH burnt updated\n        instrumentStates[address(sigh_Instrument)].balance = token_.balanceOf(address(this));           // STATE UPDATE : SIGH BALANCE UPDATED\n\n        emit SIGH_Burned( address(sigh_Instrument), toBurn_, sighBurnState.totalBurntSIGH,  instrumentStates[address(sigh_Instrument)].balance , sighBurnState.lastBurnBlockNumber ); \n\n        return toBurn_;\n    }\n\n    // INTERNAL FUNCTION\n\n    function updateSIGHBurnSpeedInternal(uint newBurnSpeed) internal returns (bool) {\n        if ( sighBurnState.SIGHBurnSpeed > 0 ) {\n            burnSIGHTokens();\n        } \n        uint prevBurnSpeed = sighBurnState.SIGHBurnSpeed;\n        sighBurnState.SIGHBurnSpeed = newBurnSpeed;\n        sighBurnState.lastBurnBlockNumber = block.number;\n        \n        require (sighBurnState.SIGHBurnSpeed == newBurnSpeed, 'New SIGH Burn Speed not initialized properly');\n        emit SIGHBurnSpeedChanged(prevBurnSpeed, sighBurnState.SIGHBurnSpeed, block.number);\n        return true;\n    }\n\n// #########################################################################################################################################################\n// ###########   _______TREASURY CAN DISTRIBUTE ANY TOKEN TO ANY ADDRESS AT A PER BLOCK BASIS_______ #######################################################\n// ###########   1. initializeInstrumentDistribution() --> To initiate an Instrument distribution Session. (onlySighFinanceConfigurator)   #################\n// ###########   2. changeInstrumentBeingDripped() --> Change the instrument being distributed (onlySighFinanceConfigurator)  ##############################\n// ###########   3. updateDripSpeed() --> To update the current Dripping Speed (onlySighFinanceConfigurator) ###############################################\n// ###########   4. resetInstrumentDistribution() --> Reset instrument distribution to start a new session (onlySighFinanceConfigurator)  ##################\n// #########################################################################################################################################################\n\n    function initializeInstrumentDistribution (address targetAddress, address instrumentToBeDistributed, uint distributionSpeed) external onlySighFinanceConfigurator returns (bool) {\n        require(!treasuryDripState.isDripAllowed,\"Instrument distribution needs to be reset before it can be initialized Again\");\n        require( instrumentStates[address(instrumentToBeDistributed)].initialized, \"Instrument to be distributed is not initialized yet\" );        \n        \n        treasuryDripState.targetAddressForDripping = targetAddress;                           // STATE UPDATE : Sets the address to which these instruments will be distributed\n        require(changeInstrumentBeingDrippedInternal(instrumentToBeDistributed),\"Instrument to be distributed not assigned properly\");    // Sets the instrument which will be distributed\n        require(updateDripSpeedInternal(distributionSpeed),\"Distribution Speed not initialized properly.\");                         // Sets the distribution Speed\n\n        treasuryDripState.isDripAllowed = true;                                               // STATE UPDATE : INITIATES DISTRIBUTION\n        treasuryDripState.lastDripBlockNumber = block.number;                                 // STATE UPDATE : Distribution commences from current block\n        \n        emit InstrumentDistributionInitialized(treasuryDripState.isDripAllowed, treasuryDripState.targetAddressForDripping, treasuryDripState.instrumentBeingDripped, treasuryDripState.DripSpeed, treasuryDripState.lastDripBlockNumber);\n        return true;\n    }\n\n    /**\n      * @notice Change the token being dripped to the Target Address\n      * @param instrumentToDrip Address of the token to be dripped\n      * @return returns the address of the token that will be Dripped\n    */    \n    function changeInstrumentBeingDripped(address instrumentToDrip ) external onlySighFinanceConfigurator returns (bool) {\n        require( instrumentStates[address(instrumentToDrip)].initialized, \"Instrument to be distributed is not initialized yet\" );        \n        if ( treasuryDripState.isDripAllowed ) {  // First Distribute the remaining amount\n            drip();\n        }\n        require(changeInstrumentBeingDrippedInternal(instrumentToDrip),\"Instrument to be distributed not assigned properly\");\n        return true;\n    }\n\n    function updateDripSpeed (uint DripSpeed_) external onlySighFinanceConfigurator returns (bool) {\n        if (treasuryDripState.isDripAllowed) {\n            drip();\n        }\n        require(updateDripSpeedInternal(DripSpeed_),\"Distribution Speed not initialized properly.\");\n        return true;\n  }\n\n    /**\n      * @notice Switch to Reset (OFF) Dripping\n      * @return return is Dripping is allowed or not\n    */    \n    function resetInstrumentDistribution() external onlySighFinanceConfigurator returns (bool) {\n        if (!treasuryDripState.isDripAllowed) {\n            return true;\n        }\n        drip();\n        \n        treasuryDripState.isDripAllowed = false;                                // STATE UPDATE : DRIPPING FUNCTIONALITY BEING RESET\n        treasuryDripState.targetAddressForDripping = address(0);                // STATE UPDATE : DRIPPING FUNCTIONALITY BEING RESET\n        treasuryDripState.instrumentBeingDripped = address(0);                  // STATE UPDATE : DRIPPING FUNCTIONALITY BEING RESET\n        treasuryDripState.DripSpeed = uint(0);                                  // STATE UPDATE : DRIPPING FUNCTIONALITY BEING RESET\n\n        emit InstrumentDistributionReset(treasuryDripState.isDripAllowed , treasuryDripState.targetAddressForDripping, treasuryDripState.instrumentBeingDripped,  treasuryDripState.DripSpeed, block.number);\n        return true;\n    }\n\n   function updateDripSpeedInternal( uint dripSpeed_ ) internal returns (bool) {\n        uint prevDripSpeed = treasuryDripState.DripSpeed;\n        treasuryDripState.DripSpeed = dripSpeed_;                                           // STATE UPDATE : DRIPPING SPEED UPDATED\n        emit DripSpeedChanged(prevDripSpeed , treasuryDripState.DripSpeed, block.number);\n        return true;\n   }    \n   \n    function changeInstrumentBeingDrippedInternal(address instrumentToDrip) internal returns (bool) {\n        IERC20 newToken = IERC20(instrumentToDrip);\n        uint currentBalance = newToken.balanceOf(address(this)); \n        require(currentBalance > 0, 'The Treasury does not hold these new instruments');\n\n        treasuryDripState.instrumentBeingDripped = instrumentToDrip;                    // STATE UPDATE : INSTRUMENT BEING DRIPPED UPDATED\n        require(treasuryDripState.instrumentBeingDripped == instrumentToDrip, 'Address for the instrument to be Dripped not assigned properly');\n\n        emit instrumentBeingDistributedChanged(treasuryDripState.instrumentBeingDripped, block.number);\n        return true;\n    }  \n\n// ################################################################################\n// ###########   THE FUNCTION TO DRIP THE TOKENS TO THE TARGET ADDRESS  ###########\n// ################################################################################\n\n    /**\n      * @notice Drips the Tokens to the target Address\n      * @return returns the Dripped Amount\n    */    \n    function drip() public returns (uint) {\n        if ( !treasuryDripState.isDripAllowed || (treasuryDripState.DripSpeed == 0)  || (treasuryDripState.targetAddressForDripping == address(0)) || (treasuryDripState.lastDripBlockNumber == block.number)  ) {\n            return uint(0);\n        }\n\n        IERC20 token_ = IERC20(treasuryDripState.instrumentBeingDripped); \n        uint treasuryBalance_ = token_.balanceOf(address(this)); // get current balance of the token Being Dripped\n        uint blockNumber_ = block.number;\n        uint deltaBlocks = sub(blockNumber_,treasuryDripState.lastDripBlockNumber,\"Blocks Substraction overrflow\");\n        uint deltaDrip_ = mul(treasuryDripState.DripSpeed, deltaBlocks, \"dripTotal overflow\");\n        uint toDrip_ = min(treasuryBalance_, deltaDrip_);\n        \n        require(treasuryBalance_ != 0, 'The treasury currently does not have any of tokens which are being Dripped');\n        require(token_.transfer(treasuryDripState.targetAddressForDripping, toDrip_), 'The Instrument transfer did not complete.' );      // ONLY INSTRUMENTS WHICH IMPLEMENT STANDARD ERC20 CAN BE DISTRIBUTED BY THE TREASURY\n        \n        treasuryDripState.lastDripBlockNumber = blockNumber_;                                                                               // STATE UPDATE : setting the block number when the Drip is made\n        uint prevTotalDrippedAmount = instrumentStates[treasuryDripState.instrumentBeingDripped].totalAmountDripped;\n        instrumentStates[treasuryDripState.instrumentBeingDripped].totalAmountDripped = add(prevTotalDrippedAmount,toDrip_,\"Overflow\");     // STATE UPDATE : Total amount dripped for the instrument updated\n        treasuryBalance_ = token_.balanceOf(address(this)); // get current balance\n\n        instrumentStates[treasuryDripState.instrumentBeingDripped].balance = treasuryBalance_;                                              // STATE UPDATE: Update the instrument balance\n        emit AmountDripped( treasuryDripState.targetAddressForDripping, treasuryDripState.instrumentBeingDripped, toDrip_, treasuryBalance_, instrumentStates[treasuryDripState.instrumentBeingDripped].totalAmountDripped ); \n        return toDrip_;\n    }\n\n\n\n\n// ##################################################################################################\n// ###########   initializeInstrumentState() : INITIALIZING INSTRUMENTS #############################\n// ###########   updateInstrumentBalance() : updates the stored balance                  ############\n// ###########   swapTokensUsingOxAPI() : THE HEDGE FUND MECHANISM AND THE SIGH TRANSFER ############\n// ###########   transferSighTo() : FUNCTION TO TRANSFER SIGH TOKENS     ############################\n// ##################################################################################################\n\n    function initializeInstrumentState(address instrument) external onlySighFinanceConfigurator returns (bool) {\n        require( !instrumentStates[instrument].initialized,\"The provided instrument has already been initialized\" );\n\n        IERC20 instrumentContract = IERC20(instrument);\n        ERC20Detailed instrumentContractDetailed = ERC20Detailed(instrument);\n\n        // STATE UPDATE : NEW INSTRUMENT INITIALIZED\n        instrumentStates[instrument] = instrumentState({ initialized: true, name: instrumentContractDetailed.name(), balance: instrumentContract.balanceOf(address(this)), totalAmountDripped: uint(0), totalAmountTransferred: uint(0) });\n        allInstruments.push(instrument);        // STATE UPDATE : INSTRUMENT ADDED TO THE LIST\n        \n        emit InstrumentInitialized( instrument, instrumentStates[instrument].name, instrumentStates[instrument].balance, instrumentStates[instrument].totalAmountDripped, instrumentStates[instrument].totalAmountTransferred  );\n        return true;\n    }\n    \n    // rechecks the balance and updates the stored balance for the instrument\n    function updateInstrumentBalance(address instrument_address) external returns (uint) {\n        require(instrumentStates[instrument_address].initialized,\"This instrument is current not initialized\");\n        IERC20 token_ = IERC20(instrument_address);\n        instrumentStates[instrument_address].balance = token_.balanceOf(address(this));\n        return instrumentStates[instrument_address].balance;\n    }\n\n\n    // \n    function swapTokensUsingOxAPI( address allowanceTarget, address payable to, bytes calldata callDataHex, address token_bought, address token_sold, uint sellAmount ) external payable onlySIGHFinanceManager returns (bool) {\n        require(instrumentStates[token_bought].initialized,\"Instrument to be purchased has not been initialized yet.\");\n        require(instrumentStates[token_sold].initialized,\"Instrument to be sold has not been initialized yet.\");\n\n        IERC20 bought_token = IERC20(token_bought);\n        uint bought_token_prev_balance = bought_token.balanceOf(address(this));  // Current Bought Tokens Balance\n\n        IERC20 sold_token = IERC20(token_sold);\n        uint sold_token_prev_balance = sold_token.balanceOf(address(this));      // Current Tokens to be Sold Balance\n\n        require(sold_token.approve(allowanceTarget, uint256(sellAmount)));                   // Allow the allowanceTarget address to spend an the needed amount\n        (bool success, bytes memory _data) = to.call.value(msg.value)(callDataHex);          // Calling the encoded swap() function. ETH passed to cover for fee\n    \n        require(success, 'TOKEN SWAP FAILED');\n        \n        if (success) {\n            uint new_bought_token_balance = bought_token.balanceOf(address(this));       // New Bought Tokens Balance\n            uint new_sold_token_balance = sold_token.balanceOf(address(this));           // New Tokens to be Sold Balance\n            \n            instrumentStates[token_bought].balance = new_bought_token_balance;   // STATE UPDATE : Balance Updated for instruments bought\n            instrumentStates[token_sold].balance = new_sold_token_balance;       // STATE UPDATE : Balance Updated for instruments sold\n\n            uint deltaTokensBought = sub(new_bought_token_balance,bought_token_prev_balance,\"New Token Balance for tokens that are being Bought is lower than its initial balance\");\n            uint deltaTokensSold = sub(sold_token_prev_balance,new_sold_token_balance,\"New Token Balance for tokens that are being Sold is higher than its initial balance\");\n            \n            emit TokensBought( token_bought ,  deltaTokensBought,  new_bought_token_balance);\n            emit TokensSold( token_sold, deltaTokensSold, new_sold_token_balance );   \n            emit TokenSwapTransactionData( _data );\n            return true;         \n        }\n\n        return false;\n    }\n\n    /**\n      * @notice Transfers the SIGH Tokens to the Target Address\n      * @param target_ Address to which the amount is to be transferred\n      * @param amount The Amount to be transferred\n      * @return returns the Dripped Amount\n    */    \n    function transferSighTo(address target_, uint amount) external onlySighFinanceConfigurator returns (uint) {\n        require(instrumentStates[address(sigh_Instrument)].initialized,\"SIGH Instrument has not been initialized yet.\");\n        uint currentTradeSize = updatemaxTransferAmount(amount);\n        \n        require(sigh_Instrument.transfer(target_, currentTradeSize), 'The transfer did not complete.' );        // TRANSFERRING SIGH\n        \n        uint prevTransferAmount = instrumentStates[address(sigh_Instrument)].totalAmountTransferred;\n        instrumentStates[address(sigh_Instrument)].totalAmountTransferred = add(prevTransferAmount,currentTradeSize,\"Error when updating total SIGH Transferred\");   // STATE UPDATE : totalAmountTransferred\n        instrumentStates[address(sigh_Instrument)].balance = sigh_Instrument.balanceOf(address(this));                                                               // STATE UPDATE : SIGH balance updated\n\n        emit SIGHTransferred( target_ , currentTradeSize,  block.number );\n        return currentTradeSize;\n    }\n    \n    // A CERTAIN NUMBER OF BLOCKS NEED TO PASS BETWEEN TRANSFER SIGH FUNCTION EXECUTION\n    function updatemaxTransferAmount(uint sigh_amount) internal returns (uint)  {\n\n        uint blockNumber = block.number;\n        uint dif = sub(blockNumber, periodInitializationBlock, 'underflow');\n        \n        if ( dif > periodLength )   {\n            uint currentBalance = sigh_Instrument.balanceOf(address(this)); // get total Supply\n            uint prevmaxTransferLimit = maxSIGHTransferLimit;\n            maxSIGHTransferLimit = div(currentBalance,25,'updatemaxTransferAmount: Division returned error');  // STATE UPDATE : MAXIMUM SIGH THAT CAN BE TRANSFERRED UPDATED (4% in a day is the max)\n            periodInitializationBlock = block.number;                                                                  // STATE UPDATE: Block number when this period begins is stored\n            emit maxTransferAmountUpdated(prevmaxTransferLimit, maxSIGHTransferLimit, currentBalance);\n\n            totalSighTradedAndTransferred = min(sigh_amount,maxSIGHTransferLimit );\n            return totalSighTradedAndTransferred;\n        }     \n        else {\n            uint maxTradeSize = sub(maxSIGHTransferLimit,totalSighTradedAndTransferred,\"Error when subtracting current amount of sigh trade/transferred from max sigh transfer limit \" );\n            uint currentTradeSize = min( maxTradeSize, sigh_amount);\n            uint prevtotalSighTradedAndTransferred = totalSighTradedAndTransferred;\n            totalSighTradedAndTransferred = add(prevtotalSighTradedAndTransferred,currentTradeSize,\"Error when updating total Sigh amount traded / transferred during the current period \" );\n            return currentTradeSize;\n        }\n    }\n\n\n// ########################################\n// ###########   VIEW FUNCTIONS  ##########\n// ########################################\n\n    // INSTRUMENT STATE RELATED VIEW FUNCTIONS\n    \n    function getInstrumentState(address instrument) external view returns ( bool initialized, string memory name, uint balance, uint totalAmountDripped, uint totalAmountTransferred) {\n        IERC20 instrumentContract = IERC20(instrument);\n        uint balance_ = instrumentContract.balanceOf(address(this)); // get current balance of INSTRUMENT\n        return (instrumentStates[instrument].initialized , instrumentStates[instrument].name , balance_ , instrumentStates[instrument].totalAmountDripped , instrumentStates[instrument].totalAmountTransferred  );\n    }\n\n    function getAllInstruments() external view returns (address[] memory) {\n        return allInstruments;        \n    }\n\n    function totalInstruments() external view returns (uint) {\n        return allInstruments.length;\n    }\n\n    function getInstrumentBalance(address instrument_address) external view returns (uint) {\n        return instrumentStates[instrument_address].balance;\n    }\n    \n    function getTotalDrippedAmount(address instrument_address) external view returns (uint) {\n        return instrumentStates[instrument_address].totalAmountDripped;\n    }\n\n    function getTotalTransferredAmount(address instrument_address) external view returns (uint) {\n        return instrumentStates[instrument_address].totalAmountTransferred;\n    }\n\n    function getSIGHBalance() external view returns (uint) {\n        IERC20 token_ = sigh_Instrument;\n        uint treasuryBalance_ = token_.balanceOf(address(this)); // get current SIGH balance\n        return treasuryBalance_;\n    }\n\n\n    // INSTRUMENT DISTRIBUTION (PER BLOCK DRIPPING) RELATED VIEW FUNCTIONS\n\n    function getDistributionState() external view returns( bool isAllowed, address targetAddress, address instrumentBeingDistributed, uint speed ) {\n        return (treasuryDripState.isDripAllowed , treasuryDripState.targetAddressForDripping , treasuryDripState.instrumentBeingDripped , treasuryDripState.DripSpeed  );\n    }\n\n    function isDistributionAllowed() external view returns (bool) {\n        return treasuryDripState.isDripAllowed;\n    }\n\n    function getTargetAddressForDistribution() external view returns (address) {\n        return treasuryDripState.targetAddressForDripping;\n    }\n\n    function getinstrumentBeingDripped() external view returns (address) {\n        if (treasuryDripState.isDripAllowed) {\n            return treasuryDripState.instrumentBeingDripped;\n        }\n        return address(0);\n    }\n\n    function getDistributionSpeed() external view returns (uint) {\n        if (treasuryDripState.isDripAllowed) {\n            return treasuryDripState.DripSpeed;\n        }\n        return 0;\n    }\n\n    // SIGH BURN RELATED VIEW FUNCTIONS\n\n    function getSIGHBurnState() external view returns ( bool isAllowed, uint burnSpeed, uint totalSighBurnt, uint sighBalance) {\n        return (sighBurnState.is_SIGH_BurnAllowed ,sighBurnState.SIGHBurnSpeed ,sighBurnState.totalBurntSIGH, sigh_Instrument.balanceOf(address(this)) );\n    }\n\n    function getSIGHBurnSpeed() external view returns (uint) {\n        if (sighBurnState.is_SIGH_BurnAllowed) {\n            return sighBurnState.SIGHBurnSpeed;\n        }\n        return 0;\n    }\n\n    function getTotalBurntSigh() external view returns (uint) {\n        return sighBurnState.totalBurntSIGH;\n    }\n    \n    // SIGH TRANSFER LIMIT RELATED functions\n    \n    function getCurrentSIGHTransferState() external view returns (uint maxSIGHSpentLimit, uint totalSighTransferredAndTraded ) {\n        return (maxSIGHTransferLimit, totalSighTradedAndTransferred);\n    }\n    \n    function blocksRemainingForNextPeriod() external view returns (uint) {\n        uint dif = sub(block.number, periodInitializationBlock,\"Error during subtraction\" );\n        if (dif >= periodLength ) {\n            return uint(0);\n        }\n        uint deltaAns = sub(periodLength, dif,\"Error during final Subtraction\" );\n        return deltaAns;\n    }\n    \n\n// ####################################################\n// ###########   Internal helper functions  ##########\n// ####################################################\n\n\n  /* Internal helper functions for safe math */\n\n    function add(uint a, uint b, string memory errorMessage) internal pure returns (uint) {\n        uint c = a + b;\n        require(c >= a, errorMessage);\n        return c;\n    }\n\n    function sub(uint a, uint b, string memory errorMessage) internal pure returns (uint) {\n        require(b <= a, errorMessage);\n        uint c = a - b;\n        return c;\n    }\n\n    function mul(uint a, uint b, string memory errorMessage) internal pure returns (uint) {\n        if (a == 0) {\n        return 0;\n        }\n        uint c = a * b;\n        require(c / a == b, errorMessage);\n        return c;\n    }\n\n    function min(uint a, uint b) internal pure returns (uint) {\n        if (a <= b) {\n        return a;\n        } else {\n        return b;\n        }\n    }\n\n    function div(uint256 a, uint256 b, string memory errorMessage) internal pure returns (uint256) {\n        // Solidity only automatically asserts when dividing by 0\n        require(b > 0, errorMessage);\n        uint256 c = a / b;\n        // assert(a == b * c + a % b); // There is no case in which this doesn't hold\n\n        return c;\n    }\n\n\n}",
  "sourcePath": "/Users/apple/Desktop/GITCOIN/Sigh_Finance/SighFinanceContracts/contracts/SIGHFinanceContracts/Treasury/TreasuryV1Impl.sol",
  "compiler": {
    "name": "solc",
    "version": "0.5.16+commit.9c3226ce.Emscripten.clang"
  },
  "schemaVersion": "3.2.4",
  "updatedAt": "2020-11-16T00:51:24.790Z",
  "devdoc": {
    "methods": {
      "changeInstrumentBeingDripped(address)": {
        "params": {
          "instrumentToDrip": "Address of the token to be dripped"
        },
        "return": "returns the address of the token that will be Dripped"
      },
      "drip()": {
        "return": "returns the Dripped Amount"
      },
      "resetInstrumentDistribution()": {
        "return": "return is Dripping is allowed or not"
      },
      "transferSighTo(address,uint256)": {
        "params": {
          "amount": "The Amount to be transferred",
          "target_": "Address to which the amount is to be transferred"
        },
        "return": "returns the Dripped Amount"
      }
    }
  },
  "userdoc": {
    "methods": {
      "changeInstrumentBeingDripped(address)": {
        "notice": "Change the token being dripped to the Target Address"
      },
      "drip()": {
        "notice": "Drips the Tokens to the target Address"
      },
      "resetInstrumentDistribution()": {
        "notice": "Switch to Reset (OFF) Dripping"
      },
      "transferSighTo(address,uint256)": {
        "notice": "Transfers the SIGH Tokens to the Target Address"
      }
    }
  }
}