{
  "contractName": "TreasuryCoreStorage",
  "abi": [
    {
      "constant": true,
      "inputs": [],
      "name": "admin",
      "outputs": [
        {
          "internalType": "address",
          "name": "",
          "type": "address"
        }
      ],
      "payable": false,
      "stateMutability": "view",
      "type": "function"
    },
    {
      "constant": true,
      "inputs": [],
      "name": "pendingAdmin",
      "outputs": [
        {
          "internalType": "address",
          "name": "",
          "type": "address"
        }
      ],
      "payable": false,
      "stateMutability": "view",
      "type": "function"
    },
    {
      "constant": true,
      "inputs": [],
      "name": "pendingTreasuryImplementation",
      "outputs": [
        {
          "internalType": "address",
          "name": "",
          "type": "address"
        }
      ],
      "payable": false,
      "stateMutability": "view",
      "type": "function"
    },
    {
      "constant": true,
      "inputs": [],
      "name": "treasuryImplementation",
      "outputs": [
        {
          "internalType": "address",
          "name": "",
          "type": "address"
        }
      ],
      "payable": false,
      "stateMutability": "view",
      "type": "function"
    }
  ],
  "bytecode": "0x608060405234801561001057600080fd5b5060f08061001f6000396000f3fe6080604052348015600f57600080fd5b506004361060465760003560e01c80631d32138f14604b5780632678224714606d578063f10b71f3146073578063f851a440146079575b600080fd5b6051607f565b604080516001600160a01b039092168252519081900360200190f35b6051608e565b6051609d565b605160ac565b6002546001600160a01b031681565b6001546001600160a01b031681565b6003546001600160a01b031681565b6000546001600160a01b03168156fea265627a7a72315820f5c127af2dc725db6b35702377e08f9b054b7da4b04ae4b2196e66f8b0d09f0e64736f6c63430005100032",
  "source": "pragma solidity ^0.5.16;\n\nimport \"../openzeppelin/EIP20Interface.sol\";\n\n\ncontract TreasuryCoreStorage {\n    /**\n    * @notice Administrator for this contract\n    */\n    address public admin;\n\n    /**\n    * @notice Pending administrator for this contract\n    */\n    address public pendingAdmin;\n\n    /**\n    * @notice Active brains of Treasury\n    */\n    address public treasuryImplementation;\n\n    /**\n    * @notice Pending brains of Treasury\n    */\n    address public pendingTreasuryImplementation;\n}\n\n\n\n\n\ncontract TreasuryV1Storage is TreasuryCoreStorage {\n\n    /// @notice Reference to token to drip (immutable)\n    EIP20Interface public sigh_token;\n\n    /// @notice Target to receive dripped tokens (immutable)\n    address public sightroller_address;\n\n    uint dripRate;\n\n    mapping(address => uint) SIGH_Transferred;\n\n    mapping (string => uint) TokenBalances;\n}",
  "sourcePath": "/Users/apple/Desktop/GITCOIN/Sigh_Finance/SighFinanceContracts/contracts/Treasury/TreasuryStorage.sol",
  "compiler": {
    "name": "solc",
    "version": "0.5.16+commit.9c3226ce.Emscripten.clang"
  },
  "schemaVersion": "3.2.4",
  "updatedAt": "2020-10-12T05:49:54.849Z",
  "devdoc": {
    "methods": {}
  },
  "userdoc": {
    "methods": {}
  }
}