{
  "contractName": "TreasuryCoreStorage",
  "abi": [
    {
      "constant": true,
      "inputs": [],
      "name": "admin",
      "outputs": [
        {
          "internalType": "address",
          "name": "",
          "type": "address"
        }
      ],
      "payable": false,
      "stateMutability": "view",
      "type": "function"
    },
    {
      "constant": true,
      "inputs": [],
      "name": "pendingAdmin",
      "outputs": [
        {
          "internalType": "address",
          "name": "",
          "type": "address"
        }
      ],
      "payable": false,
      "stateMutability": "view",
      "type": "function"
    },
    {
      "constant": true,
      "inputs": [],
      "name": "pendingTreasuryImplementation",
      "outputs": [
        {
          "internalType": "address",
          "name": "",
          "type": "address"
        }
      ],
      "payable": false,
      "stateMutability": "view",
      "type": "function"
    },
    {
      "constant": true,
      "inputs": [],
      "name": "treasuryImplementation",
      "outputs": [
        {
          "internalType": "address",
          "name": "",
          "type": "address"
        }
      ],
      "payable": false,
      "stateMutability": "view",
      "type": "function"
    }
  ],
  "bytecode": "0x608060405234801561001057600080fd5b5060f08061001f6000396000f3fe6080604052348015600f57600080fd5b506004361060465760003560e01c80631d32138f14604b5780632678224714606d578063f10b71f3146073578063f851a440146079575b600080fd5b6051607f565b604080516001600160a01b039092168252519081900360200190f35b6051608e565b6051609d565b605160ac565b6002546001600160a01b031681565b6001546001600160a01b031681565b6003546001600160a01b031681565b6000546001600160a01b03168156fea265627a7a723158200b1fc10ca5992ef1a46239bdc893a4b4877766a9abbcaa1e58b36f61274203da64736f6c63430005100032",
  "source": "pragma solidity ^0.5.16;\n\n// import \"../openzeppelin/EIP20Interface.sol\";\nimport \"openzeppelin-solidity/contracts/token/ERC20/IERC20.sol\"; \n\ncontract TreasuryCoreStorage {\n    /**\n    * @notice Administrator for this contract\n    */\n    address public admin;\n\n    /**\n    * @notice Pending administrator for this contract\n    */\n    address public pendingAdmin;\n\n    /**\n    * @notice Active brains of Treasury\n    */\n    address public treasuryImplementation;\n\n    /**\n    * @notice Pending brains of Treasury\n    */\n    address public pendingTreasuryImplementation;\n}\n\n\n\n\n\ncontract TreasuryV1Storage {\n\n    address public admin;\n\n    address public pendingAdmin;\n\n    /// @notice Reference to token to burn / trade (immutable)\n    IERC20 public sigh_token;\n\n    /// @notice Target to receive dripped tokens (immutable)\n    address public sightroller_address;\n\n    address public tokenBeingDripped; \n    uint DripSpeed;\n    bool isDripAllowed = false;\n    \n    uint SIGHBurnSpeed;\n    \n\n    mapping(address => uint) SIGH_Transferred;\n    mapping (address => uint) TokenBalances;\n    mapping (address => uint)  totalDrippedAmount;  // Stores the total amount of each token dripped\n\n}",
  "sourcePath": "/Users/apple/Desktop/GITCOIN/Sigh_Finance/SighFinanceContracts/contracts/SIGH/Treasury/TreasuryStorage.sol",
  "compiler": {
    "name": "solc",
    "version": "0.5.16+commit.9c3226ce.Emscripten.clang"
  },
  "schemaVersion": "3.2.4",
  "updatedAt": "2020-10-22T12:30:37.705Z",
  "devdoc": {
    "methods": {}
  },
  "userdoc": {
    "methods": {}
  }
}