{
  "contractName": "UnitrollerAdminStorage",
  "abi": [
    {
      "constant": true,
      "inputs": [],
      "name": "admin",
      "outputs": [
        {
          "internalType": "address",
          "name": "",
          "type": "address"
        }
      ],
      "payable": false,
      "stateMutability": "view",
      "type": "function"
    },
    {
      "constant": true,
      "inputs": [],
      "name": "pendingAdmin",
      "outputs": [
        {
          "internalType": "address",
          "name": "",
          "type": "address"
        }
      ],
      "payable": false,
      "stateMutability": "view",
      "type": "function"
    },
    {
      "constant": true,
      "inputs": [],
      "name": "pendingSightrollerImplementation",
      "outputs": [
        {
          "internalType": "address",
          "name": "",
          "type": "address"
        }
      ],
      "payable": false,
      "stateMutability": "view",
      "type": "function"
    },
    {
      "constant": true,
      "inputs": [],
      "name": "sightrollerImplementation",
      "outputs": [
        {
          "internalType": "address",
          "name": "",
          "type": "address"
        }
      ],
      "payable": false,
      "stateMutability": "view",
      "type": "function"
    }
  ],
  "bytecode": "0x608060405234801561001057600080fd5b5060f08061001f6000396000f3fe6080604052348015600f57600080fd5b506004361060465760003560e01c80632678224714604b5780633e65a58d14606d578063e76b97e1146073578063f851a440146079575b600080fd5b6051607f565b604080516001600160a01b039092168252519081900360200190f35b6051608e565b6051609d565b605160ac565b6001546001600160a01b031681565b6002546001600160a01b031681565b6003546001600160a01b031681565b6000546001600160a01b03168156fea265627a7a723158205dccfc9081dc2537cfec1ea1f2ed0e28d3beaccdd551e4e2a49df91e15cc07be64736f6c63430005100032",
  "source": "pragma solidity ^0.5.16;\n\nimport \"../Tokens/CToken.sol\";\nimport \"../PriceOracle.sol\";\n\n\ncontract UnitrollerAdminStorage {\n    /**\n    * @notice Administrator for this contract\n    */\n    address public admin;\n\n    /**\n    * @notice Pending administrator for this contract\n    */\n    address public pendingAdmin;\n\n    /**\n    * @notice Active brains of Unitroller\n    */\n    address public sightrollerImplementation;\n\n    /**\n    * @notice Pending brains of Unitroller\n    */\n    address public pendingSightrollerImplementation;\n}\n\n\n\n\n\ncontract SightrollerV1Storage is UnitrollerAdminStorage {\n\n    /**\n     * @notice Oracle which gives the price of any given asset\n     */\n    PriceOracle public oracle;\n\n    /**\n     * @notice Multiplier used to calculate the maximum repayAmount when liquidating a borrow\n     */\n    uint public closeFactorMantissa;\n\n    /**\n     * @notice Multiplier representing the discount on collateral that a liquidator receives\n     */\n    uint public liquidationIncentiveMantissa;\n\n    /**\n     * @notice Max number of assets a single account can participate in (borrow or use as collateral)\n     */\n    uint public maxAssets;\n\n    /**\n     * @notice Per-account mapping of \"assets you are in\", capped by maxAssets\n     */\n    mapping(address => CToken[]) public accountAssets;\n\n}\n\n\n\n\n\ncontract SightrollerV2Storage is SightrollerV1Storage {\n\n    struct Market {\n        /// @notice Whether or not this market is listed\n        bool isListed;\n\n        /**\n         * @notice Multiplier representing the most one can borrow against their collateral in this market.\n         *  For instance, 0.9 to allow borrowing 90% of collateral value.\n         *  Must be between 0 and 1, and stored as a mantissa.\n         */\n        uint collateralFactorMantissa;\n\n        /// @notice Per-market mapping of \"accounts in this asset\"\n        mapping(address => bool) accountMembership;\n\n        /// @notice Whether or not this market receives Gsigh\n        bool isGsighed;\n\n        /// @notice Whether or not this market receives SIGH\n        bool isSIGHed;\n\n    }\n\n    /**\n     * @notice Official mapping of cTokens -> Market metadata\n     * @dev Used e.g. to determine if a market is supported\n     */\n    mapping(address => Market) public markets;\n\n\n    /**\n     * @notice The Pause Guardian can pause certain actions as a safety mechanism.\n     *  Actions which allow users to remove their own assets cannot be paused.\n     *  Liquidation / seizing / transfer can only be paused globally, not by market.\n     */\n    address public pauseGuardian;\n    bool public _mintGuardianPaused;\n    bool public _borrowGuardianPaused;\n    bool public transferGuardianPaused;\n    bool public seizeGuardianPaused;\n    mapping(address => bool) public mintGuardianPaused;\n    mapping(address => bool) public borrowGuardianPaused;\n}\n\n\n\n\n\n\n\ncontract SightrollerV3Storage is SightrollerV2Storage {\n\n    struct GsighMarketState {\n        /// @notice The market's last updated GsighBorrowIndex or GsighSupplyIndex\n        uint224 index;\n\n        /// @notice The block number the index was last updated at\n        uint32 block;\n    }\n\n    /// @notice A list of all markets\n    CToken[] public allMarkets;\n\n    /// @notice The rate at which the flywheel distributes Gsigh, per block\n    uint public gsighRate;\n\n    /// @notice The portion of gsighRate that each market currently receives\n    mapping(address => uint) public gsighSpeeds;\n\n    /// @notice The Gsigh market supply state for each market\n    mapping(address => GsighMarketState) public gsighSupplyState;\n\n    /// @notice The Gsigh market borrow state for each market\n    mapping(address => GsighMarketState) public gsighBorrowState;\n\n    /// @notice The Gsigh borrow index for each market for each supplier as of the last time they accrued Gsigh\n    mapping(address => mapping(address => uint)) public gsighSupplierIndex;\n\n    /// @notice The Gsigh borrow index for each market for each borrower as of the last time they accrued Gsigh\n    mapping(address => mapping(address => uint)) public gsighBorrowerIndex;\n\n    /// @notice The Gsigh accrued but not yet transferred to each user\n    mapping(address => uint) public gsighAccrued;\n}\n\n\ncontract SightrollerV4Storage is SightrollerV3Storage {\n\n    struct SIGHMarketState {\n        /// @notice The market's last updated SIGHIndex \n        uint224 index;\n\n        uint224 recordedPriceSnapshot;\n\n        /// @notice The block number the index was last updated at\n        uint32 block;\n    }\n\n\n\n    /// @notice The rate at which the flywheel distributes SIGH, per block\n    uint public SIGHRate;\n\n    /// @notice The portion of SIGHRate that each market currently receives\n    mapping(address => uint) public SIGH_Speeds;\n\n    /// @notice The SIGH market supply state for each market\n    mapping(address => SIGHMarketState) public sigh_Market_State;\n\n    // /// @notice The SIGH market supply state for each market\n    // mapping(address => SIGHMarketState) public sighMarketBorrowState;\n\n    /// @notice The Gsigh borrow index for each market for each supplier as of the last time they accrued Gsigh\n    mapping(address => mapping(address => uint)) public SIGHSupplierIndex;\n\n    // / @notice The Gsigh borrow index for each market for each borrower as of the last time they accrued Gsigh\n    // mapping(address => mapping(address => uint)) public SIGHBorrowerIndex;\n\n    /// @notice The Gsigh accrued but not yet transferred to each user\n    mapping(address => uint) public SIGH_Accrued;\n\n    // treasuryRateMantissa\n\n    // uint256 public treasury_SIGH;\n\n    // uint256 public treasury_SIGH_Ratio;\n\n    address public gelatoAddress;\n\n}\n",
  "sourcePath": "/Users/apple/Desktop/GITCOIN/Sigh_Finance/SighFinanceContracts/contracts/Sightroller/SightrollerStorage.sol",
  "compiler": {
    "name": "solc",
    "version": "0.5.16+commit.9c3226ce.Emscripten.clang"
  },
  "schemaVersion": "3.2.4",
  "updatedAt": "2020-09-27T14:09:02.008Z",
  "devdoc": {
    "methods": {}
  },
  "userdoc": {
    "methods": {}
  }
}