{
  "contractName": "WalletBalanceProvider",
  "abi": [
    {
      "inputs": [
        {
          "internalType": "contract GlobalAddressesProvider",
          "name": "_provider",
          "type": "address"
        }
      ],
      "payable": false,
      "stateMutability": "nonpayable",
      "type": "constructor"
    },
    {
      "payable": true,
      "stateMutability": "payable",
      "type": "fallback"
    },
    {
      "constant": true,
      "inputs": [
        {
          "internalType": "address",
          "name": "_user",
          "type": "address"
        },
        {
          "internalType": "address",
          "name": "_token",
          "type": "address"
        }
      ],
      "name": "balanceOf",
      "outputs": [
        {
          "internalType": "uint256",
          "name": "",
          "type": "uint256"
        }
      ],
      "payable": false,
      "stateMutability": "view",
      "type": "function"
    },
    {
      "constant": true,
      "inputs": [
        {
          "internalType": "address",
          "name": "_user",
          "type": "address"
        }
      ],
      "name": "getUserWalletBalances",
      "outputs": [
        {
          "internalType": "address[]",
          "name": "",
          "type": "address[]"
        },
        {
          "internalType": "uint256[]",
          "name": "",
          "type": "uint256[]"
        }
      ],
      "payable": false,
      "stateMutability": "view",
      "type": "function"
    }
  ],
  "bytecode": "0x608060405234801561001057600080fd5b506040516106223803806106228339818101604052602081101561003357600080fd5b5051600080546001600160a01b039092166001600160a01b03199092169190911790556105bd806100656000396000f3fe6080604052600436106100295760003560e01c80639e3c930914610060578063f7888aec1461012c575b60405162461bcd60e51b815260040180806020018281038252602e81526020018061055b602e913960400191505060405180910390fd5b34801561006c57600080fd5b506100936004803603602081101561008357600080fd5b50356001600160a01b0316610179565b604051808060200180602001838103835285818151815260200191508051906020019060200280838360005b838110156100d75781810151838201526020016100bf565b50505050905001838103825284818151815260200191508051906020019060200280838360005b838110156101165781810151838201526020016100fe565b5050505090500194505050505060405180910390f35b34801561013857600080fd5b506101676004803603604081101561014f57600080fd5b506001600160a01b0381358116916020013516610490565b60408051918252519081900360200190f35b60608060008060009054906101000a90046001600160a01b03166001600160a01b031663ed6ff7606040518163ffffffff1660e01b815260040160206040518083038186803b1580156101cb57600080fd5b505afa1580156101df573d6000803e3d6000fd5b505050506040513d60208110156101f557600080fd5b50516040805163058d5c5f60e21b815290519192506060916001600160a01b03841691631635717c916004808301926000929190829003018186803b15801561023d57600080fd5b505afa158015610251573d6000803e3d6000fd5b505050506040513d6000823e601f3d908101601f19168201604052602081101561027a57600080fd5b810190808051604051939291908464010000000082111561029a57600080fd5b9083019060208201858111156102af57600080fd5b82518660208202830111640100000000821117156102cc57600080fd5b82525081516020918201928201910280838360005b838110156102f95781810151838201526020016102e1565b50505050905001604052505050905060608151604051908082528060200260200182016040528015610335578160200160208202803883390190505b50905060005b825181101561048457836001600160a01b0316632706e94e84838151811061035f57fe5b60200260200101516040518263ffffffff1660e01b815260040180826001600160a01b03166001600160a01b0316815260200191505060206040518083038186803b1580156103ad57600080fd5b505afa1580156103c1573d6000803e3d6000fd5b505050506040513d60208110156103d757600080fd5b50516103fc5760008282815181106103eb57fe5b60200260200101818152505061047c565b61040461053c565b6001600160a01b031683828151811061041957fe5b60200260200101516001600160a01b0316146104585761044c8784838151811061043f57fe5b6020026020010151610490565b8282815181106103eb57fe5b866001600160a01b03163182828151811061046f57fe5b6020026020010181815250505b60010161033b565b50909350915050915091565b60006104a4826001600160a01b0316610554565b1561053257816001600160a01b03166370a08231846040518263ffffffff1660e01b815260040180826001600160a01b03166001600160a01b0316815260200191505060206040518083038186803b1580156104ff57600080fd5b505afa158015610513573d6000803e3d6000fd5b505050506040513d602081101561052957600080fd5b50519050610536565b5060005b92915050565b73eeeeeeeeeeeeeeeeeeeeeeeeeeeeeeeeeeeeeeee90565b3b15159056fe57616c6c657442616c616e636550726f766964657220646f6573206e6f7420616363657074207061796d656e7473a265627a7a72315820c91a89877d145d3a90477347c24a9541add935899be1cbc763bda43c01954d1964736f6c63430005100032",
  "source": "pragma solidity ^0.5.0;\n\nimport \"openzeppelin-solidity/contracts/utils/Address.sol\";\nimport \"openzeppelin-solidity/contracts/token/ERC20/IERC20.sol\";\n\nimport \"../../configuration/GlobalAddressesProvider.sol\";\nimport \"../lendingpool/LendingPoolCore.sol\";\nimport \"../libraries/EthAddressLib.sol\";\n\n\n/**\n* @title WalletBalanceProvider contract\n* @author Aave, SIGH Finance, influenced by https://github.com/wbobeirne/eth-balance-checker/blob/master/contracts/BalanceChecker.sol\n* @notice Implements a logic of getting multiple tokens balance for one user address\n* @dev NOTE: THIS CONTRACT IS NOT USED WITHIN THE SIGH FINANCE PROTOCOL. It's an accessory contract used to reduce the number of calls towards the blockchain from the Aave backend.\n**/\ncontract WalletBalanceProvider {\n\n    using Address for address;\n\n    GlobalAddressesProvider provider;\n\n    constructor(GlobalAddressesProvider _provider) public {\n        provider = _provider;\n    }\n\n    /**\n    @dev Fallback function, don't accept any ETH\n    **/\n    function() external payable {\n        revert(\"WalletBalanceProvider does not accept payments\");\n    }\n\n    /**\n    @dev Check the token balance of a wallet in a token contract\n    Returns the balance of the token for user. Avoids possible errors:\n      - return 0 on non-contract address\n    **/\n    function balanceOf(address _user, address _token) public view returns (uint256) {\n        // check if token is actually a contract\n        if (_token.isContract()) {\n            return IERC20(_token).balanceOf(_user);\n        } else {\n            return 0;\n        }\n    }\n\n\n    /**\n    @dev provides balances of user wallet for all instruments available on the pool\n    */\n    function getUserWalletBalances(address _user) public view returns (address[] memory, uint256[] memory) {\n\n        LendingPoolCore core = LendingPoolCore(provider.getLendingPoolCore());\n\n        address[] memory instruments = core.getInstruments();\n\n        uint256[] memory balances = new uint256[](instruments.length);\n\n        for (uint256 j = 0; j < instruments.length; j++) {\n            if(!core.getInstrumentIsActive(instruments[j])){\n                balances[j] = 0;\n                continue;\n            }\n            if (instruments[j] != EthAddressLib.ethAddress()) {\n                balances[j] = balanceOf(_user, instruments[j]);\n            } \n            else {\n                balances[j] = _user.balance; // ETH balance\n            }\n        }\n\n        return (instruments, balances);\n    }\n}",
  "sourcePath": "/Users/apple/Desktop/GITCOIN/Sigh_Finance/SighFinanceContracts/contracts/LendingProtocolContracts/misc/WalletBalanceProvider.sol",
  "compiler": {
    "name": "solc",
    "version": "0.5.16+commit.9c3226ce.Emscripten.clang"
  },
  "schemaVersion": "3.2.4",
  "updatedAt": "2020-11-05T05:43:32.038Z",
  "devdoc": {
    "author": "Aave, SIGH Finance, influenced by https://github.com/wbobeirne/eth-balance-checker/blob/master/contracts/BalanceChecker.sol",
    "details": "NOTE: THIS CONTRACT IS NOT USED WITHIN THE SIGH FINANCE PROTOCOL. It's an accessory contract used to reduce the number of calls towards the blockchain from the Aave backend.*",
    "methods": {
      "balanceOf(address,address)": {
        "details": "Check the token balance of a wallet in a token contract Returns the balance of the token for user. Avoids possible errors: - return 0 on non-contract address*"
      },
      "getUserWalletBalances(address)": {
        "details": "provides balances of user wallet for all instruments available on the pool"
      }
    },
    "title": "WalletBalanceProvider contract"
  },
  "userdoc": {
    "methods": {},
    "notice": "Implements a logic of getting multiple tokens balance for one user address"
  }
}