{
	"data": {
		"bytecode": {
			"linkReferences": {},
			"object": "6080604052600080556ec097ce7bc90715b34b9f1000000000603455678ac7230489e80000603a5534801561003357600080fd5b5061253b806100436000396000f3fe608060405234801561001057600080fd5b50600436106101425760003560e01c80638c2de3c3116100b8578063bf7814cb1161007c578063bf7814cb14610410578063c0c53b8b14610436578063c1da31c71461046e578063d821eb97146104a0578063dc89da0a146104a8578063e2bd79a3146104d657610142565b80638c2de3c314610326578063950514b31461035e578063ad0f5fa914610384578063b71adb20146103aa578063bddf3795146103d857610142565b80636755329e1161010a5780636755329e1461021257806367e6aeed1461024057806374087098146102725780637af635a6146102a057806383d65995146102a85780638432822a146102da57610142565b80631e77d68b146101475780632eaae3c71461016f578063408cfe24146101a757806365b5820b146101cb5780636722b4fa1461020a575b600080fd5b61016d6004803603602081101561015d57600080fd5b50356001600160a01b03166104de565b005b6101956004803603602081101561018557600080fd5b50356001600160a01b0316610533565b60408051918252519081900360200190f35b6101af61054e565b604080516001600160a01b039092168252519081900360200190f35b6101f1600480360360208110156101e157600080fd5b50356001600160a01b031661055d565b6040805192835260208301919091528051918290030190f35b6101af610580565b61016d6004803603604081101561022857600080fd5b506001600160a01b038135811691602001351661058f565b61016d6004803603606081101561025657600080fd5b506001600160a01b0381351690602081013590604001356106a5565b61016d6004803603604081101561028857600080fd5b506001600160a01b03813581169160200135166106fe565b610195610755565b61016d600480360360608110156102be57600080fd5b506001600160a01b03813516906020810135906040013561075a565b610300600480360360208110156102f057600080fd5b50356001600160a01b03166107ae565b604080516001600160a01b03938416815291909216602082015281519081900390910190f35b61016d6004803603606081101561033c57600080fd5b506001600160a01b0381358116916020810135821691604090910135166107db565b6101f16004803603602081101561037457600080fd5b50356001600160a01b031661088c565b61016d6004803603602081101561039a57600080fd5b50356001600160a01b03166108b2565b61016d600480360360408110156103c057600080fd5b506001600160a01b0381358116916020013516610904565b61016d600480360360608110156103ee57600080fd5b506001600160a01b038135811691602081013582169160409091013516610957565b6103006004803603602081101561042657600080fd5b50356001600160a01b0316610a08565b61016d6004803603606081101561044c57600080fd5b506001600160a01b038135811691602081013582169160409091013516610a35565b61016d6004803603606081101561048457600080fd5b506001600160a01b038135169060208101359060400135610c1c565b6101af610c70565b61016d600480360360408110156104be57600080fd5b506001600160a01b0381358116916020013516610c7f565b610195610d95565b6036546001600160a01b031633146105275760405162461bcd60e51b81526004018080602001828103825260428152602001806121486042913960600191505060405180910390fd5b61053081610d9b565b50565b6001600160a01b03166000908152603b602052604090205490565b6036546001600160a01b031681565b6001600160a01b03166000908152603c6020526040902080546001909101549091565b6035546001600160a01b031681565b6036546001600160a01b031633146105d85760405162461bcd60e51b81526004018080602001828103825260428152602001806121486042913960600191505060405180910390fd5b816001600160a01b0316816001600160a01b031614156106295760405162461bcd60e51b81526004018080602001828103825260258152602001806123526025913960400191505060405180910390fd5b6001600160a01b038083166000818152603c602090815260409182902060060180548587166001600160a01b031990911681179091556035548351951685529084019290925282810191909152517f828ee8840e58805dff4b27bdb5682bafd5fbdc5858d04d3e1296097ee16202319181900360600190a15050565b6036546001600160a01b031633146106ee5760405162461bcd60e51b81526004018080602001828103825260428152602001806121486042913960600191505060405180910390fd5b6106f9838383610f5a565b505050565b6036546001600160a01b031633146107475760405162461bcd60e51b81526004018080602001828103825260428152602001806121486042913960600191505060405180910390fd5b610751338261103a565b5050565b600181565b6036546001600160a01b031633146107a35760405162461bcd60e51b81526004018080602001828103825260428152602001806121486042913960600191505060405180910390fd5b6106f98383836113bb565b6001600160a01b039081166000908152603c60205260409020600481015460059091015490821692911690565b6036546001600160a01b031633146108245760405162461bcd60e51b81526004018080602001828103825260428152602001806121486042913960600191505060405180910390fd5b6001600160a01b038083166000908152603c60205260409020600701548482169116146108825760405162461bcd60e51b81526004018080602001828103825260488152602001806124bf6048913960600191505060405180910390fd5b6106f982826114ed565b6001600160a01b03166000908152603c6020526040902060028101546003909101549091565b6036546001600160a01b031633146108fb5760405162461bcd60e51b81526004018080602001828103825260428152602001806121486042913960600191505060405180910390fd5b6105308161177d565b6036546001600160a01b0316331461094d5760405162461bcd60e51b81526004018080602001828103825260428152602001806121486042913960600191505060405180910390fd5b61075182826114ed565b6036546001600160a01b031633146109a05760405162461bcd60e51b81526004018080602001828103825260428152602001806121486042913960600191505060405180910390fd5b6001600160a01b038083166000908152603c60205260409020600601548482169116146109fe5760405162461bcd60e51b81526004018080602001828103825260488152602001806124776048913960600191505060405180910390fd5b6106f9828261103a565b6001600160a01b039081166000908152603c60205260409020600681015460079091015490821692911690565b6000610a3f61196e565b60015490915060ff1680610a565750610a56611973565b80610a62575060005481115b610a9d5760405162461bcd60e51b815260040180806020018281038252602e815260200180612377602e913960400191505060405180910390fd5b60015460ff16158015610abc576001805460ff19168117905560008290555b603780546001600160a01b0319166001600160a01b0387811691909117918290556040805163076b7fbb60e51b81529051929091169163ed6ff76091600480820192602092909190829003018186803b158015610b1857600080fd5b505afa158015610b2c573d6000803e3d6000fd5b505050506040513d6020811015610b4257600080fd5b5051603980546001600160a01b0319166001600160a01b039283161790556037546040805163a0375c6d60e01b81529051919092169163a0375c6d916004808301926020929190829003018186803b158015610b9d57600080fd5b505afa158015610bb1573d6000803e3d6000fd5b505050506040513d6020811015610bc757600080fd5b5051603880546001600160a01b03199081166001600160a01b0393841617909155603680548216868416179055603580549091169186169190911790558015610c15576001805460ff191690555b5050505050565b6036546001600160a01b03163314610c655760405162461bcd60e51b81526004018080602001828103825260428152602001806121486042913960600191505060405180910390fd5b6106f9838383611979565b6038546001600160a01b031681565b6036546001600160a01b03163314610cc85760405162461bcd60e51b81526004018080602001828103825260428152602001806121486042913960600191505060405180910390fd5b816001600160a01b0316816001600160a01b03161415610d195760405162461bcd60e51b81526004018080602001828103825260258152602001806123526025913960400191505060405180910390fd5b6001600160a01b038083166000818152603c602090815260409182902060070180548587166001600160a01b031990911681179091556035548351951685529084019290925282810191909152517fe73dfce870719fb72387a476ccb7a4cfea6f0fed6fdd2c2282799fab5f64e18a9181900360600190a15050565b603a5481565b60395460355460408051639fb8afcd60e01b81526001600160a01b0392831660048201528483166024820152905160009384938493911691639fb8afcd91604480820192606092909190829003018186803b158015610df957600080fd5b505afa158015610e0d573d6000803e3d6000fd5b505050506040513d6060811015610e2357600080fd5b5080516020808301516040938401516001600160a01b038981166000908152603c90945294909220600501549296509450925016610e6a57610e658483611a47565b610f54565b6001600160a01b038085166000908152603c602052604080822060059081015484168084529190922090910154909116610f4a5760395460355460408051639fb8afcd60e01b81526001600160a01b039283166004820152848316602482015290516000939290921691639fb8afcd91604480820192606092909190829003018186803b158015610efa57600080fd5b505afa158015610f0e573d6000803e3d6000fd5b505050506040513d6060811015610f2457600080fd5b50602001519050610f4482610f3f838663ffffffff611c0216565b611a47565b50610c15565b610c158183611a47565b50505050565b6001600160a01b038084166000908152603c60205260409020600501541680610f8357506106f9565b6001600160a01b0381166000908152603c6020526040902060010154610fc1908390610fb5908663ffffffff611c0216565b9063ffffffff611c6516565b6001600160a01b038083166000818152603c602090815260409182902060010185905560355482519416845283019190915281810186905260608201859052608082019290925290517f02beb9835051d3abab70a27c8dc49930b7c208bb375a0c94baeef0c1f1651a5f9181900360a00190a150505050565b6001600160a01b038083166000908152603c6020526040902060040154811690821681141561109a5760405162461bcd60e51b81526004018080602001828103825260448152602001806122986044913960600191505060405180910390fd5b60365460408051630c25c4e360e41b81526001600160a01b03868116600483015291516000938493169163c25c4e3091602480830192608092919082900301818787803b1580156110ea57600080fd5b505af11580156110fe573d6000803e3d6000fd5b505050506040513d608081101561111457600080fd5b5060208082015160409283015160365484516370a0823160e01b81526001600160a01b038b81166004830152955193975091955060009416926370a0823192602480840193829003018186803b15801561116d57600080fd5b505afa158015611181573d6000803e3d6000fd5b505050506040513d602081101561119757600080fd5b5051116111d55760405162461bcd60e51b81526004018080602001828103825260768152602001806122dc6076913960800191505060405180910390fd5b6001600160a01b0383161561128b576111f085826000611979565b60365460408051630c25c4e360e41b81526001600160a01b0386811660048301529151600093929092169163c25c4e309160248082019260809290919082900301818787803b15801561124257600080fd5b505af1158015611256573d6000803e3d6000fd5b505050506040513d608081101561126c57600080fd5b5060200151905061127d8482611ca7565b61128986600085611979565b505b846001600160a01b0316846001600160a01b03161415611320576001600160a01b038086166000818152603c6020908152604080832060040180546001600160a01b0319169055603554815195168552908401929092528282015260608201849052517f55bbcec3563d3417cac9569d1963e34084ae0a4e46ee2cc06950f27a47c759209181900360800190a1505050610751565b6001600160a01b038581166000908152603c6020526040812060040180546001600160a01b0319169287169290921790915561135f9086908490611979565b603554604080516001600160a01b03928316815287831660208201529186168282015260608201849052517f55bbcec3563d3417cac9569d1963e34084ae0a4e46ee2cc06950f27a47c759209181900360800190a15050505050565b6001600160a01b038381166000908152603c6020526040902060040154166113ec576113e78382611ca7565b6106f9565b6001600160a01b038084166000908152603c6020526040808220600490810154841680845291909220909101549091166114d85760365460408051630c25c4e360e41b81526001600160a01b03848116600483015291516000938493849391169163c25c4e309160248082019260809290919082900301818787803b15801561147457600080fd5b505af1158015611488573d6000803e3d6000fd5b505050506040513d608081101561149e57600080fd5b506020810151604082015160609092015190945090925090506114d0846114cb858963ffffffff611c0216565b611ca7565b5050506114e2565b6114e28184611ca7565b610f54846000611ca7565b6001600160a01b038083166000908152603c6020526040902060050154811690821681141561154d5760405162461bcd60e51b815260040180806020018281038252604481526020018061220a6044913960600191505060405180910390fd5b60395460355460408051639fb8afcd60e01b81526001600160a01b0392831660048201528683166024820152905160009384938493911691639fb8afcd91604480820192606092909190829003018186803b1580156115ab57600080fd5b505afa1580156115bf573d6000803e3d6000fd5b505050506040513d60608110156115d557600080fd5b50805160208201516040909201519094509092509050816116275760405162461bcd60e51b815260040180806020018281038252608081526020018061218a6080913960800191505060405180910390fd5b6001600160a01b0384161561164b5761163f86610d9b565b61164b86600085610f5a565b856001600160a01b0316856001600160a01b031614156116e1576001600160a01b038087166000818152603c6020908152604080832060050180546001600160a01b0319169055603554815195168552908401929092528282015260608201859052517f2ee0d55dae2801ab7355b5c932c9ae702bfa8b6e0a7a1af7b0a230107ce4b9ae9181900360800190a150505050610751565b6001600160a01b038681166000908152603c6020526040812060050180546001600160a01b031916928816929092179091556117209087908590610f5a565b603554604080516001600160a01b03928316815288831660208201529187168282015260608201859052517f2ee0d55dae2801ab7355b5c932c9ae702bfa8b6e0a7a1af7b0a230107ce4b9ae9181900360800190a1505050505050565b60365460408051630c25c4e360e41b81526001600160a01b03848116600483015291516000938493169163c25c4e3091602480830192608092919082900301818787803b1580156117cd57600080fd5b505af11580156117e1573d6000803e3d6000fd5b505050506040513d60808110156117f757600080fd5b5060208082015160409283015160365484516370a0823160e01b81526001600160a01b03808a166004830152955193975091955061188b948894879491909216926370a08231926024808301939192829003018186803b15801561185a57600080fd5b505afa15801561186e573d6000803e3d6000fd5b505050506040513d602081101561188457600080fd5b50516113bb565b61189483610d9b565b6001600160a01b0383166000908152603b6020526040902054156106f9576038546035546001600160a01b038581166000818152603b6020908152604080832054815163b482e0d160e01b81529686166004880152602487019490945260448601939093529151929094169363b482e0d19360648082019492918390030190829087803b15801561192457600080fd5b505af1158015611938573d6000803e3d6000fd5b505050506040513d602081101561194e57600080fd5b50516001600160a01b0384166000908152603b6020526040902055505050565b600190565b303b1590565b6001600160a01b038084166000908152603c602052604090206004015416806119a257506106f9565b6001600160a01b0381166000908152603c60205260409020546119d1908390610fb5908663ffffffff611c0216565b6001600160a01b038083166000818152603c602090815260409182902085905560355482519416845283019190915281810186905260608201859052608082019290925290517f3004e4ad558d08872edbf8cf056679a1b1be171b23ffdcc05f9200a5321fede49181900360a00190a150505050565b6038546035546040805163087d30f360e11b81526001600160a01b039283166004820152905160009392909216916310fa61e691602480820192602092909190829003018186803b158015611a9b57600080fd5b505afa158015611aaf573d6000803e3d6000fd5b505050506040513d6020811015611ac557600080fd5b5051905080611b055760405162461bcd60e51b815260040180806020018281038252604a81526020018061224e604a913960600191505060405180910390fd5b6001600160a01b0383166000908152603c6020526040812060010154611b31908463ffffffff611c0216565b9050611b3b6120f9565b5060408051602080820183526001600160a01b0387166000908152603c90915291909120600301548152611b6d6120f9565b5060408051602080820183528582526001600160a01b0388166000908152603c909152919091206003018490558151158015611ba95750805115155b15611bb357805182525b611bbb6120f9565b611bc58284611e54565b805190915015801590611bd85750600084115b15611bf9576000611be98583611eb4565b9050611bf788826000611f34565b505b50505050505050565b600082820183811015611c5c576040805162461bcd60e51b815260206004820152601b60248201527f536166654d6174683a206164646974696f6e206f766572666c6f770000000000604482015290519081900360640190fd5b90505b92915050565b6000611c5c83836040518060400160405280601e81526020017f536166654d6174683a207375627472616374696f6e206f766572666c6f770000815250612062565b6038546035546040805163269c5ec960e21b81526001600160a01b03928316600482015290516000939290921691639a717b2491602480820192602092909190829003018186803b158015611cfb57600080fd5b505afa158015611d0f573d6000803e3d6000fd5b505050506040513d6020811015611d2557600080fd5b5051905080611d655760405162461bcd60e51b815260040180806020018281038252604a81526020018061242d604a913960600191505060405180910390fd5b6001600160a01b0383166000908152603c6020526040812054611d8e908463ffffffff611c0216565b9050611d986120f9565b5060408051602080820183526001600160a01b0387166000908152603c90915291909120600201548152611dca6120f9565b5060408051602080820183528582526001600160a01b0388166000908152603c909152919091206002018490558151158015611e065750805115155b15611e1057805182525b611e186120f9565b611e228284611e54565b805190915015801590611e355750600084115b15611bf9576000611e468583611eb4565b9050611bf788826001611f34565b611e5c6120f9565b825182511115611e9d5760405162461bcd60e51b81526004018080602001828103825260888152602001806123a56088913960a00191505060405180910390fd5b505190516040805160208101909152919003815290565b6000821580611ec257508151155b15611ecf57506000611c5f565b815183810290848281611ede57fe5b0414611f1b5760405162461bcd60e51b815260040180806020018281038252603b81526020018061210d603b913960400191505060405180910390fd5b6ec097ce7bc90715b34b9f100000000090049392505050565b6001600160a01b0383166000908152603b6020526040902054611f5d908363ffffffff611c0216565b6001600160a01b038085166000818152603b60209081526040918290208590556035548251941684528301919091528315158282015260608201859052608082019290925290517fa6c7ba999929d128350b8d7b476c0d3decb90386500154e6e906d910d950e95e9181900360a00190a1603a546001600160a01b0384166000908152603b602052604090205411156106f9576038546035546001600160a01b038581166000818152603b6020908152604080832054815163b482e0d160e01b81529686166004880152602487019490945260448601939093529151929094169363b482e0d19360648082019492918390030190829087803b15801561192457600080fd5b600081848411156120f15760405162461bcd60e51b81526004018080602001828103825283818151815260200191508051906020019080838360005b838110156120b657818101518382015260200161209e565b50505050905090810190601f1680156120e35780820380516001836020036101000a031916815260200191505b509250505060405180910390fd5b505050900390565b604051806020016040528060008152509056fe534947482053747265616d3a204d756c7469706c69636174696f6e202875696e74202a20446f75626c6529206c657420746f206f766572666c6f775468652063616c6c6572206f6620746869732066756e6374696f6e206d75737420626520746865206173736f6369617465642049546f6b656e20436f6e7472616374426f72726f77696e672024534947482053747265616d2073747265616d2063616e206f6e6c79206265207265646972656374656420696620746865726520697320612076616c6964205072696e636970616c20426f72726f77696e672042616c616e6365206163637572696e6720245349474820666f72207468652075736572426f72726f77696e672024534947482053747265616d20697320616c7265616479207265646972656374656420746f207468652070726f7669646564206163636f756e745349474820446973747269627574696f6e2048616e646c65722072657475726e656420696e76616c696420626f72726f7720496e64657820666f722074686520696e737472756d656e744c69717569646974792024534947482053747265616d20697320616c7265616479207265646972656374656420746f207468652070726f7669646564206163636f756e744c69717569646974792024534947482053747265616d2073747265616d2063616e206f6e6c79206265207265646972656374656420696620746865726520697320612076616c6964204c69717569646974792042616c616e6365206163637572696e6720245349474820666f72207468652075736572557365722063616e6e6f74206769766520616c6c6f77616e636520746f2068696d73656c66436f6e747261637420696e7374616e63652068617320616c7265616479206265656e20696e697469616c697a6564534947482053747265616d3a20446f75626c65204d616e7469737361205375627472616374696f6e20756e646572666c6f772c20616d6f756e7420746f20626520737562747261637465642067726561746572207468616e2074686520616d6f756e742066726f6d207768696368206974206e6565647320746f20626520737562747261637465645349474820446973747269627574696f6e2048616e646c65722072657475726e656420696e76616c696420737570706c7920496e64657820666f722074686520696e737472756d656e7443616c6c6572206973206e6f7420616c6c6f77656420746f20726564697265637420746865204c69717569646974792024534947482053747265616d206f6620746865207573657243616c6c6572206973206e6f7420616c6c6f77656420746f2072656469726563742074686520426f72726f77696e672024534947482053747265616d206f66207468652075736572a265627a7a72315820fb6a6961c892ad92d4c6a7fc1316209a3f927722a2d6ec77bb9abf5438cc19fd64736f6c63430005110032",
			"opcodes": "PUSH1 0x80 PUSH1 0x40 MSTORE PUSH1 0x0 DUP1 SSTORE PUSH15 0xC097CE7BC90715B34B9F1000000000 PUSH1 0x34 SSTORE PUSH8 0x8AC7230489E80000 PUSH1 0x3A SSTORE CALLVALUE DUP1 ISZERO PUSH2 0x33 JUMPI PUSH1 0x0 DUP1 REVERT JUMPDEST POP PUSH2 0x253B DUP1 PUSH2 0x43 PUSH1 0x0 CODECOPY PUSH1 0x0 RETURN INVALID PUSH1 0x80 PUSH1 0x40 MSTORE CALLVALUE DUP1 ISZERO PUSH2 0x10 JUMPI PUSH1 0x0 DUP1 REVERT JUMPDEST POP PUSH1 0x4 CALLDATASIZE LT PUSH2 0x142 JUMPI PUSH1 0x0 CALLDATALOAD PUSH1 0xE0 SHR DUP1 PUSH4 0x8C2DE3C3 GT PUSH2 0xB8 JUMPI DUP1 PUSH4 0xBF7814CB GT PUSH2 0x7C JUMPI DUP1 PUSH4 0xBF7814CB EQ PUSH2 0x410 JUMPI DUP1 PUSH4 0xC0C53B8B EQ PUSH2 0x436 JUMPI DUP1 PUSH4 0xC1DA31C7 EQ PUSH2 0x46E JUMPI DUP1 PUSH4 0xD821EB97 EQ PUSH2 0x4A0 JUMPI DUP1 PUSH4 0xDC89DA0A EQ PUSH2 0x4A8 JUMPI DUP1 PUSH4 0xE2BD79A3 EQ PUSH2 0x4D6 JUMPI PUSH2 0x142 JUMP JUMPDEST DUP1 PUSH4 0x8C2DE3C3 EQ PUSH2 0x326 JUMPI DUP1 PUSH4 0x950514B3 EQ PUSH2 0x35E JUMPI DUP1 PUSH4 0xAD0F5FA9 EQ PUSH2 0x384 JUMPI DUP1 PUSH4 0xB71ADB20 EQ PUSH2 0x3AA JUMPI DUP1 PUSH4 0xBDDF3795 EQ PUSH2 0x3D8 JUMPI PUSH2 0x142 JUMP JUMPDEST DUP1 PUSH4 0x6755329E GT PUSH2 0x10A JUMPI DUP1 PUSH4 0x6755329E EQ PUSH2 0x212 JUMPI DUP1 PUSH4 0x67E6AEED EQ PUSH2 0x240 JUMPI DUP1 PUSH4 0x74087098 EQ PUSH2 0x272 JUMPI DUP1 PUSH4 0x7AF635A6 EQ PUSH2 0x2A0 JUMPI DUP1 PUSH4 0x83D65995 EQ PUSH2 0x2A8 JUMPI DUP1 PUSH4 0x8432822A EQ PUSH2 0x2DA JUMPI PUSH2 0x142 JUMP JUMPDEST DUP1 PUSH4 0x1E77D68B EQ PUSH2 0x147 JUMPI DUP1 PUSH4 0x2EAAE3C7 EQ PUSH2 0x16F JUMPI DUP1 PUSH4 0x408CFE24 EQ PUSH2 0x1A7 JUMPI DUP1 PUSH4 0x65B5820B EQ PUSH2 0x1CB JUMPI DUP1 PUSH4 0x6722B4FA EQ PUSH2 0x20A JUMPI JUMPDEST PUSH1 0x0 DUP1 REVERT JUMPDEST PUSH2 0x16D PUSH1 0x4 DUP1 CALLDATASIZE SUB PUSH1 0x20 DUP2 LT ISZERO PUSH2 0x15D JUMPI PUSH1 0x0 DUP1 REVERT JUMPDEST POP CALLDATALOAD PUSH1 0x1 PUSH1 0x1 PUSH1 0xA0 SHL SUB AND PUSH2 0x4DE JUMP JUMPDEST STOP JUMPDEST PUSH2 0x195 PUSH1 0x4 DUP1 CALLDATASIZE SUB PUSH1 0x20 DUP2 LT ISZERO PUSH2 0x185 JUMPI PUSH1 0x0 DUP1 REVERT JUMPDEST POP CALLDATALOAD PUSH1 0x1 PUSH1 0x1 PUSH1 0xA0 SHL SUB AND PUSH2 0x533 JUMP JUMPDEST PUSH1 0x40 DUP1 MLOAD SWAP2 DUP3 MSTORE MLOAD SWAP1 DUP2 SWAP1 SUB PUSH1 0x20 ADD SWAP1 RETURN JUMPDEST PUSH2 0x1AF PUSH2 0x54E JUMP JUMPDEST PUSH1 0x40 DUP1 MLOAD PUSH1 0x1 PUSH1 0x1 PUSH1 0xA0 SHL SUB SWAP1 SWAP3 AND DUP3 MSTORE MLOAD SWAP1 DUP2 SWAP1 SUB PUSH1 0x20 ADD SWAP1 RETURN JUMPDEST PUSH2 0x1F1 PUSH1 0x4 DUP1 CALLDATASIZE SUB PUSH1 0x20 DUP2 LT ISZERO PUSH2 0x1E1 JUMPI PUSH1 0x0 DUP1 REVERT JUMPDEST POP CALLDATALOAD PUSH1 0x1 PUSH1 0x1 PUSH1 0xA0 SHL SUB AND PUSH2 0x55D JUMP JUMPDEST PUSH1 0x40 DUP1 MLOAD SWAP3 DUP4 MSTORE PUSH1 0x20 DUP4 ADD SWAP2 SWAP1 SWAP2 MSTORE DUP1 MLOAD SWAP2 DUP3 SWAP1 SUB ADD SWAP1 RETURN JUMPDEST PUSH2 0x1AF PUSH2 0x580 JUMP JUMPDEST PUSH2 0x16D PUSH1 0x4 DUP1 CALLDATASIZE SUB PUSH1 0x40 DUP2 LT ISZERO PUSH2 0x228 JUMPI PUSH1 0x0 DUP1 REVERT JUMPDEST POP PUSH1 0x1 PUSH1 0x1 PUSH1 0xA0 SHL SUB DUP2 CALLDATALOAD DUP2 AND SWAP2 PUSH1 0x20 ADD CALLDATALOAD AND PUSH2 0x58F JUMP JUMPDEST PUSH2 0x16D PUSH1 0x4 DUP1 CALLDATASIZE SUB PUSH1 0x60 DUP2 LT ISZERO PUSH2 0x256 JUMPI PUSH1 0x0 DUP1 REVERT JUMPDEST POP PUSH1 0x1 PUSH1 0x1 PUSH1 0xA0 SHL SUB DUP2 CALLDATALOAD AND SWAP1 PUSH1 0x20 DUP2 ADD CALLDATALOAD SWAP1 PUSH1 0x40 ADD CALLDATALOAD PUSH2 0x6A5 JUMP JUMPDEST PUSH2 0x16D PUSH1 0x4 DUP1 CALLDATASIZE SUB PUSH1 0x40 DUP2 LT ISZERO PUSH2 0x288 JUMPI PUSH1 0x0 DUP1 REVERT JUMPDEST POP PUSH1 0x1 PUSH1 0x1 PUSH1 0xA0 SHL SUB DUP2 CALLDATALOAD DUP2 AND SWAP2 PUSH1 0x20 ADD CALLDATALOAD AND PUSH2 0x6FE JUMP JUMPDEST PUSH2 0x195 PUSH2 0x755 JUMP JUMPDEST PUSH2 0x16D PUSH1 0x4 DUP1 CALLDATASIZE SUB PUSH1 0x60 DUP2 LT ISZERO PUSH2 0x2BE JUMPI PUSH1 0x0 DUP1 REVERT JUMPDEST POP PUSH1 0x1 PUSH1 0x1 PUSH1 0xA0 SHL SUB DUP2 CALLDATALOAD AND SWAP1 PUSH1 0x20 DUP2 ADD CALLDATALOAD SWAP1 PUSH1 0x40 ADD CALLDATALOAD PUSH2 0x75A JUMP JUMPDEST PUSH2 0x300 PUSH1 0x4 DUP1 CALLDATASIZE SUB PUSH1 0x20 DUP2 LT ISZERO PUSH2 0x2F0 JUMPI PUSH1 0x0 DUP1 REVERT JUMPDEST POP CALLDATALOAD PUSH1 0x1 PUSH1 0x1 PUSH1 0xA0 SHL SUB AND PUSH2 0x7AE JUMP JUMPDEST PUSH1 0x40 DUP1 MLOAD PUSH1 0x1 PUSH1 0x1 PUSH1 0xA0 SHL SUB SWAP4 DUP5 AND DUP2 MSTORE SWAP2 SWAP1 SWAP3 AND PUSH1 0x20 DUP3 ADD MSTORE DUP2 MLOAD SWAP1 DUP2 SWAP1 SUB SWAP1 SWAP2 ADD SWAP1 RETURN JUMPDEST PUSH2 0x16D PUSH1 0x4 DUP1 CALLDATASIZE SUB PUSH1 0x60 DUP2 LT ISZERO PUSH2 0x33C JUMPI PUSH1 0x0 DUP1 REVERT JUMPDEST POP PUSH1 0x1 PUSH1 0x1 PUSH1 0xA0 SHL SUB DUP2 CALLDATALOAD DUP2 AND SWAP2 PUSH1 0x20 DUP2 ADD CALLDATALOAD DUP3 AND SWAP2 PUSH1 0x40 SWAP1 SWAP2 ADD CALLDATALOAD AND PUSH2 0x7DB JUMP JUMPDEST PUSH2 0x1F1 PUSH1 0x4 DUP1 CALLDATASIZE SUB PUSH1 0x20 DUP2 LT ISZERO PUSH2 0x374 JUMPI PUSH1 0x0 DUP1 REVERT JUMPDEST POP CALLDATALOAD PUSH1 0x1 PUSH1 0x1 PUSH1 0xA0 SHL SUB AND PUSH2 0x88C JUMP JUMPDEST PUSH2 0x16D PUSH1 0x4 DUP1 CALLDATASIZE SUB PUSH1 0x20 DUP2 LT ISZERO PUSH2 0x39A JUMPI PUSH1 0x0 DUP1 REVERT JUMPDEST POP CALLDATALOAD PUSH1 0x1 PUSH1 0x1 PUSH1 0xA0 SHL SUB AND PUSH2 0x8B2 JUMP JUMPDEST PUSH2 0x16D PUSH1 0x4 DUP1 CALLDATASIZE SUB PUSH1 0x40 DUP2 LT ISZERO PUSH2 0x3C0 JUMPI PUSH1 0x0 DUP1 REVERT JUMPDEST POP PUSH1 0x1 PUSH1 0x1 PUSH1 0xA0 SHL SUB DUP2 CALLDATALOAD DUP2 AND SWAP2 PUSH1 0x20 ADD CALLDATALOAD AND PUSH2 0x904 JUMP JUMPDEST PUSH2 0x16D PUSH1 0x4 DUP1 CALLDATASIZE SUB PUSH1 0x60 DUP2 LT ISZERO PUSH2 0x3EE JUMPI PUSH1 0x0 DUP1 REVERT JUMPDEST POP PUSH1 0x1 PUSH1 0x1 PUSH1 0xA0 SHL SUB DUP2 CALLDATALOAD DUP2 AND SWAP2 PUSH1 0x20 DUP2 ADD CALLDATALOAD DUP3 AND SWAP2 PUSH1 0x40 SWAP1 SWAP2 ADD CALLDATALOAD AND PUSH2 0x957 JUMP JUMPDEST PUSH2 0x300 PUSH1 0x4 DUP1 CALLDATASIZE SUB PUSH1 0x20 DUP2 LT ISZERO PUSH2 0x426 JUMPI PUSH1 0x0 DUP1 REVERT JUMPDEST POP CALLDATALOAD PUSH1 0x1 PUSH1 0x1 PUSH1 0xA0 SHL SUB AND PUSH2 0xA08 JUMP JUMPDEST PUSH2 0x16D PUSH1 0x4 DUP1 CALLDATASIZE SUB PUSH1 0x60 DUP2 LT ISZERO PUSH2 0x44C JUMPI PUSH1 0x0 DUP1 REVERT JUMPDEST POP PUSH1 0x1 PUSH1 0x1 PUSH1 0xA0 SHL SUB DUP2 CALLDATALOAD DUP2 AND SWAP2 PUSH1 0x20 DUP2 ADD CALLDATALOAD DUP3 AND SWAP2 PUSH1 0x40 SWAP1 SWAP2 ADD CALLDATALOAD AND PUSH2 0xA35 JUMP JUMPDEST PUSH2 0x16D PUSH1 0x4 DUP1 CALLDATASIZE SUB PUSH1 0x60 DUP2 LT ISZERO PUSH2 0x484 JUMPI PUSH1 0x0 DUP1 REVERT JUMPDEST POP PUSH1 0x1 PUSH1 0x1 PUSH1 0xA0 SHL SUB DUP2 CALLDATALOAD AND SWAP1 PUSH1 0x20 DUP2 ADD CALLDATALOAD SWAP1 PUSH1 0x40 ADD CALLDATALOAD PUSH2 0xC1C JUMP JUMPDEST PUSH2 0x1AF PUSH2 0xC70 JUMP JUMPDEST PUSH2 0x16D PUSH1 0x4 DUP1 CALLDATASIZE SUB PUSH1 0x40 DUP2 LT ISZERO PUSH2 0x4BE JUMPI PUSH1 0x0 DUP1 REVERT JUMPDEST POP PUSH1 0x1 PUSH1 0x1 PUSH1 0xA0 SHL SUB DUP2 CALLDATALOAD DUP2 AND SWAP2 PUSH1 0x20 ADD CALLDATALOAD AND PUSH2 0xC7F JUMP JUMPDEST PUSH2 0x195 PUSH2 0xD95 JUMP JUMPDEST PUSH1 0x36 SLOAD PUSH1 0x1 PUSH1 0x1 PUSH1 0xA0 SHL SUB AND CALLER EQ PUSH2 0x527 JUMPI PUSH1 0x40 MLOAD PUSH3 0x461BCD PUSH1 0xE5 SHL DUP2 MSTORE PUSH1 0x4 ADD DUP1 DUP1 PUSH1 0x20 ADD DUP3 DUP2 SUB DUP3 MSTORE PUSH1 0x42 DUP2 MSTORE PUSH1 0x20 ADD DUP1 PUSH2 0x2148 PUSH1 0x42 SWAP2 CODECOPY PUSH1 0x60 ADD SWAP2 POP POP PUSH1 0x40 MLOAD DUP1 SWAP2 SUB SWAP1 REVERT JUMPDEST PUSH2 0x530 DUP2 PUSH2 0xD9B JUMP JUMPDEST POP JUMP JUMPDEST PUSH1 0x1 PUSH1 0x1 PUSH1 0xA0 SHL SUB AND PUSH1 0x0 SWAP1 DUP2 MSTORE PUSH1 0x3B PUSH1 0x20 MSTORE PUSH1 0x40 SWAP1 KECCAK256 SLOAD SWAP1 JUMP JUMPDEST PUSH1 0x36 SLOAD PUSH1 0x1 PUSH1 0x1 PUSH1 0xA0 SHL SUB AND DUP2 JUMP JUMPDEST PUSH1 0x1 PUSH1 0x1 PUSH1 0xA0 SHL SUB AND PUSH1 0x0 SWAP1 DUP2 MSTORE PUSH1 0x3C PUSH1 0x20 MSTORE PUSH1 0x40 SWAP1 KECCAK256 DUP1 SLOAD PUSH1 0x1 SWAP1 SWAP2 ADD SLOAD SWAP1 SWAP2 JUMP JUMPDEST PUSH1 0x35 SLOAD PUSH1 0x1 PUSH1 0x1 PUSH1 0xA0 SHL SUB AND DUP2 JUMP JUMPDEST PUSH1 0x36 SLOAD PUSH1 0x1 PUSH1 0x1 PUSH1 0xA0 SHL SUB AND CALLER EQ PUSH2 0x5D8 JUMPI PUSH1 0x40 MLOAD PUSH3 0x461BCD PUSH1 0xE5 SHL DUP2 MSTORE PUSH1 0x4 ADD DUP1 DUP1 PUSH1 0x20 ADD DUP3 DUP2 SUB DUP3 MSTORE PUSH1 0x42 DUP2 MSTORE PUSH1 0x20 ADD DUP1 PUSH2 0x2148 PUSH1 0x42 SWAP2 CODECOPY PUSH1 0x60 ADD SWAP2 POP POP PUSH1 0x40 MLOAD DUP1 SWAP2 SUB SWAP1 REVERT JUMPDEST DUP2 PUSH1 0x1 PUSH1 0x1 PUSH1 0xA0 SHL SUB AND DUP2 PUSH1 0x1 PUSH1 0x1 PUSH1 0xA0 SHL SUB AND EQ ISZERO PUSH2 0x629 JUMPI PUSH1 0x40 MLOAD PUSH3 0x461BCD PUSH1 0xE5 SHL DUP2 MSTORE PUSH1 0x4 ADD DUP1 DUP1 PUSH1 0x20 ADD DUP3 DUP2 SUB DUP3 MSTORE PUSH1 0x25 DUP2 MSTORE PUSH1 0x20 ADD DUP1 PUSH2 0x2352 PUSH1 0x25 SWAP2 CODECOPY PUSH1 0x40 ADD SWAP2 POP POP PUSH1 0x40 MLOAD DUP1 SWAP2 SUB SWAP1 REVERT JUMPDEST PUSH1 0x1 PUSH1 0x1 PUSH1 0xA0 SHL SUB DUP1 DUP4 AND PUSH1 0x0 DUP2 DUP2 MSTORE PUSH1 0x3C PUSH1 0x20 SWAP1 DUP2 MSTORE PUSH1 0x40 SWAP2 DUP3 SWAP1 KECCAK256 PUSH1 0x6 ADD DUP1 SLOAD DUP6 DUP8 AND PUSH1 0x1 PUSH1 0x1 PUSH1 0xA0 SHL SUB NOT SWAP1 SWAP2 AND DUP2 OR SWAP1 SWAP2 SSTORE PUSH1 0x35 SLOAD DUP4 MLOAD SWAP6 AND DUP6 MSTORE SWAP1 DUP5 ADD SWAP3 SWAP1 SWAP3 MSTORE DUP3 DUP2 ADD SWAP2 SWAP1 SWAP2 MSTORE MLOAD PUSH32 0x828EE8840E58805DFF4B27BDB5682BAFD5FBDC5858D04D3E1296097EE1620231 SWAP2 DUP2 SWAP1 SUB PUSH1 0x60 ADD SWAP1 LOG1 POP POP JUMP JUMPDEST PUSH1 0x36 SLOAD PUSH1 0x1 PUSH1 0x1 PUSH1 0xA0 SHL SUB AND CALLER EQ PUSH2 0x6EE JUMPI PUSH1 0x40 MLOAD PUSH3 0x461BCD PUSH1 0xE5 SHL DUP2 MSTORE PUSH1 0x4 ADD DUP1 DUP1 PUSH1 0x20 ADD DUP3 DUP2 SUB DUP3 MSTORE PUSH1 0x42 DUP2 MSTORE PUSH1 0x20 ADD DUP1 PUSH2 0x2148 PUSH1 0x42 SWAP2 CODECOPY PUSH1 0x60 ADD SWAP2 POP POP PUSH1 0x40 MLOAD DUP1 SWAP2 SUB SWAP1 REVERT JUMPDEST PUSH2 0x6F9 DUP4 DUP4 DUP4 PUSH2 0xF5A JUMP JUMPDEST POP POP POP JUMP JUMPDEST PUSH1 0x36 SLOAD PUSH1 0x1 PUSH1 0x1 PUSH1 0xA0 SHL SUB AND CALLER EQ PUSH2 0x747 JUMPI PUSH1 0x40 MLOAD PUSH3 0x461BCD PUSH1 0xE5 SHL DUP2 MSTORE PUSH1 0x4 ADD DUP1 DUP1 PUSH1 0x20 ADD DUP3 DUP2 SUB DUP3 MSTORE PUSH1 0x42 DUP2 MSTORE PUSH1 0x20 ADD DUP1 PUSH2 0x2148 PUSH1 0x42 SWAP2 CODECOPY PUSH1 0x60 ADD SWAP2 POP POP PUSH1 0x40 MLOAD DUP1 SWAP2 SUB SWAP1 REVERT JUMPDEST PUSH2 0x751 CALLER DUP3 PUSH2 0x103A JUMP JUMPDEST POP POP JUMP JUMPDEST PUSH1 0x1 DUP2 JUMP JUMPDEST PUSH1 0x36 SLOAD PUSH1 0x1 PUSH1 0x1 PUSH1 0xA0 SHL SUB AND CALLER EQ PUSH2 0x7A3 JUMPI PUSH1 0x40 MLOAD PUSH3 0x461BCD PUSH1 0xE5 SHL DUP2 MSTORE PUSH1 0x4 ADD DUP1 DUP1 PUSH1 0x20 ADD DUP3 DUP2 SUB DUP3 MSTORE PUSH1 0x42 DUP2 MSTORE PUSH1 0x20 ADD DUP1 PUSH2 0x2148 PUSH1 0x42 SWAP2 CODECOPY PUSH1 0x60 ADD SWAP2 POP POP PUSH1 0x40 MLOAD DUP1 SWAP2 SUB SWAP1 REVERT JUMPDEST PUSH2 0x6F9 DUP4 DUP4 DUP4 PUSH2 0x13BB JUMP JUMPDEST PUSH1 0x1 PUSH1 0x1 PUSH1 0xA0 SHL SUB SWAP1 DUP2 AND PUSH1 0x0 SWAP1 DUP2 MSTORE PUSH1 0x3C PUSH1 0x20 MSTORE PUSH1 0x40 SWAP1 KECCAK256 PUSH1 0x4 DUP2 ADD SLOAD PUSH1 0x5 SWAP1 SWAP2 ADD SLOAD SWAP1 DUP3 AND SWAP3 SWAP2 AND SWAP1 JUMP JUMPDEST PUSH1 0x36 SLOAD PUSH1 0x1 PUSH1 0x1 PUSH1 0xA0 SHL SUB AND CALLER EQ PUSH2 0x824 JUMPI PUSH1 0x40 MLOAD PUSH3 0x461BCD PUSH1 0xE5 SHL DUP2 MSTORE PUSH1 0x4 ADD DUP1 DUP1 PUSH1 0x20 ADD DUP3 DUP2 SUB DUP3 MSTORE PUSH1 0x42 DUP2 MSTORE PUSH1 0x20 ADD DUP1 PUSH2 0x2148 PUSH1 0x42 SWAP2 CODECOPY PUSH1 0x60 ADD SWAP2 POP POP PUSH1 0x40 MLOAD DUP1 SWAP2 SUB SWAP1 REVERT JUMPDEST PUSH1 0x1 PUSH1 0x1 PUSH1 0xA0 SHL SUB DUP1 DUP4 AND PUSH1 0x0 SWAP1 DUP2 MSTORE PUSH1 0x3C PUSH1 0x20 MSTORE PUSH1 0x40 SWAP1 KECCAK256 PUSH1 0x7 ADD SLOAD DUP5 DUP3 AND SWAP2 AND EQ PUSH2 0x882 JUMPI PUSH1 0x40 MLOAD PUSH3 0x461BCD PUSH1 0xE5 SHL DUP2 MSTORE PUSH1 0x4 ADD DUP1 DUP1 PUSH1 0x20 ADD DUP3 DUP2 SUB DUP3 MSTORE PUSH1 0x48 DUP2 MSTORE PUSH1 0x20 ADD DUP1 PUSH2 0x24BF PUSH1 0x48 SWAP2 CODECOPY PUSH1 0x60 ADD SWAP2 POP POP PUSH1 0x40 MLOAD DUP1 SWAP2 SUB SWAP1 REVERT JUMPDEST PUSH2 0x6F9 DUP3 DUP3 PUSH2 0x14ED JUMP JUMPDEST PUSH1 0x1 PUSH1 0x1 PUSH1 0xA0 SHL SUB AND PUSH1 0x0 SWAP1 DUP2 MSTORE PUSH1 0x3C PUSH1 0x20 MSTORE PUSH1 0x40 SWAP1 KECCAK256 PUSH1 0x2 DUP2 ADD SLOAD PUSH1 0x3 SWAP1 SWAP2 ADD SLOAD SWAP1 SWAP2 JUMP JUMPDEST PUSH1 0x36 SLOAD PUSH1 0x1 PUSH1 0x1 PUSH1 0xA0 SHL SUB AND CALLER EQ PUSH2 0x8FB JUMPI PUSH1 0x40 MLOAD PUSH3 0x461BCD PUSH1 0xE5 SHL DUP2 MSTORE PUSH1 0x4 ADD DUP1 DUP1 PUSH1 0x20 ADD DUP3 DUP2 SUB DUP3 MSTORE PUSH1 0x42 DUP2 MSTORE PUSH1 0x20 ADD DUP1 PUSH2 0x2148 PUSH1 0x42 SWAP2 CODECOPY PUSH1 0x60 ADD SWAP2 POP POP PUSH1 0x40 MLOAD DUP1 SWAP2 SUB SWAP1 REVERT JUMPDEST PUSH2 0x530 DUP2 PUSH2 0x177D JUMP JUMPDEST PUSH1 0x36 SLOAD PUSH1 0x1 PUSH1 0x1 PUSH1 0xA0 SHL SUB AND CALLER EQ PUSH2 0x94D JUMPI PUSH1 0x40 MLOAD PUSH3 0x461BCD PUSH1 0xE5 SHL DUP2 MSTORE PUSH1 0x4 ADD DUP1 DUP1 PUSH1 0x20 ADD DUP3 DUP2 SUB DUP3 MSTORE PUSH1 0x42 DUP2 MSTORE PUSH1 0x20 ADD DUP1 PUSH2 0x2148 PUSH1 0x42 SWAP2 CODECOPY PUSH1 0x60 ADD SWAP2 POP POP PUSH1 0x40 MLOAD DUP1 SWAP2 SUB SWAP1 REVERT JUMPDEST PUSH2 0x751 DUP3 DUP3 PUSH2 0x14ED JUMP JUMPDEST PUSH1 0x36 SLOAD PUSH1 0x1 PUSH1 0x1 PUSH1 0xA0 SHL SUB AND CALLER EQ PUSH2 0x9A0 JUMPI PUSH1 0x40 MLOAD PUSH3 0x461BCD PUSH1 0xE5 SHL DUP2 MSTORE PUSH1 0x4 ADD DUP1 DUP1 PUSH1 0x20 ADD DUP3 DUP2 SUB DUP3 MSTORE PUSH1 0x42 DUP2 MSTORE PUSH1 0x20 ADD DUP1 PUSH2 0x2148 PUSH1 0x42 SWAP2 CODECOPY PUSH1 0x60 ADD SWAP2 POP POP PUSH1 0x40 MLOAD DUP1 SWAP2 SUB SWAP1 REVERT JUMPDEST PUSH1 0x1 PUSH1 0x1 PUSH1 0xA0 SHL SUB DUP1 DUP4 AND PUSH1 0x0 SWAP1 DUP2 MSTORE PUSH1 0x3C PUSH1 0x20 MSTORE PUSH1 0x40 SWAP1 KECCAK256 PUSH1 0x6 ADD SLOAD DUP5 DUP3 AND SWAP2 AND EQ PUSH2 0x9FE JUMPI PUSH1 0x40 MLOAD PUSH3 0x461BCD PUSH1 0xE5 SHL DUP2 MSTORE PUSH1 0x4 ADD DUP1 DUP1 PUSH1 0x20 ADD DUP3 DUP2 SUB DUP3 MSTORE PUSH1 0x48 DUP2 MSTORE PUSH1 0x20 ADD DUP1 PUSH2 0x2477 PUSH1 0x48 SWAP2 CODECOPY PUSH1 0x60 ADD SWAP2 POP POP PUSH1 0x40 MLOAD DUP1 SWAP2 SUB SWAP1 REVERT JUMPDEST PUSH2 0x6F9 DUP3 DUP3 PUSH2 0x103A JUMP JUMPDEST PUSH1 0x1 PUSH1 0x1 PUSH1 0xA0 SHL SUB SWAP1 DUP2 AND PUSH1 0x0 SWAP1 DUP2 MSTORE PUSH1 0x3C PUSH1 0x20 MSTORE PUSH1 0x40 SWAP1 KECCAK256 PUSH1 0x6 DUP2 ADD SLOAD PUSH1 0x7 SWAP1 SWAP2 ADD SLOAD SWAP1 DUP3 AND SWAP3 SWAP2 AND SWAP1 JUMP JUMPDEST PUSH1 0x0 PUSH2 0xA3F PUSH2 0x196E JUMP JUMPDEST PUSH1 0x1 SLOAD SWAP1 SWAP2 POP PUSH1 0xFF AND DUP1 PUSH2 0xA56 JUMPI POP PUSH2 0xA56 PUSH2 0x1973 JUMP JUMPDEST DUP1 PUSH2 0xA62 JUMPI POP PUSH1 0x0 SLOAD DUP2 GT JUMPDEST PUSH2 0xA9D JUMPI PUSH1 0x40 MLOAD PUSH3 0x461BCD PUSH1 0xE5 SHL DUP2 MSTORE PUSH1 0x4 ADD DUP1 DUP1 PUSH1 0x20 ADD DUP3 DUP2 SUB DUP3 MSTORE PUSH1 0x2E DUP2 MSTORE PUSH1 0x20 ADD DUP1 PUSH2 0x2377 PUSH1 0x2E SWAP2 CODECOPY PUSH1 0x40 ADD SWAP2 POP POP PUSH1 0x40 MLOAD DUP1 SWAP2 SUB SWAP1 REVERT JUMPDEST PUSH1 0x1 SLOAD PUSH1 0xFF AND ISZERO DUP1 ISZERO PUSH2 0xABC JUMPI PUSH1 0x1 DUP1 SLOAD PUSH1 0xFF NOT AND DUP2 OR SWAP1 SSTORE PUSH1 0x0 DUP3 SWAP1 SSTORE JUMPDEST PUSH1 0x37 DUP1 SLOAD PUSH1 0x1 PUSH1 0x1 PUSH1 0xA0 SHL SUB NOT AND PUSH1 0x1 PUSH1 0x1 PUSH1 0xA0 SHL SUB DUP8 DUP2 AND SWAP2 SWAP1 SWAP2 OR SWAP2 DUP3 SWAP1 SSTORE PUSH1 0x40 DUP1 MLOAD PUSH4 0x76B7FBB PUSH1 0xE5 SHL DUP2 MSTORE SWAP1 MLOAD SWAP3 SWAP1 SWAP2 AND SWAP2 PUSH4 0xED6FF760 SWAP2 PUSH1 0x4 DUP1 DUP3 ADD SWAP3 PUSH1 0x20 SWAP3 SWAP1 SWAP2 SWAP1 DUP3 SWAP1 SUB ADD DUP2 DUP7 DUP1 EXTCODESIZE ISZERO DUP1 ISZERO PUSH2 0xB18 JUMPI PUSH1 0x0 DUP1 REVERT JUMPDEST POP GAS STATICCALL ISZERO DUP1 ISZERO PUSH2 0xB2C JUMPI RETURNDATASIZE PUSH1 0x0 DUP1 RETURNDATACOPY RETURNDATASIZE PUSH1 0x0 REVERT JUMPDEST POP POP POP POP PUSH1 0x40 MLOAD RETURNDATASIZE PUSH1 0x20 DUP2 LT ISZERO PUSH2 0xB42 JUMPI PUSH1 0x0 DUP1 REVERT JUMPDEST POP MLOAD PUSH1 0x39 DUP1 SLOAD PUSH1 0x1 PUSH1 0x1 PUSH1 0xA0 SHL SUB NOT AND PUSH1 0x1 PUSH1 0x1 PUSH1 0xA0 SHL SUB SWAP3 DUP4 AND OR SWAP1 SSTORE PUSH1 0x37 SLOAD PUSH1 0x40 DUP1 MLOAD PUSH4 0xA0375C6D PUSH1 0xE0 SHL DUP2 MSTORE SWAP1 MLOAD SWAP2 SWAP1 SWAP3 AND SWAP2 PUSH4 0xA0375C6D SWAP2 PUSH1 0x4 DUP1 DUP4 ADD SWAP3 PUSH1 0x20 SWAP3 SWAP2 SWAP1 DUP3 SWAP1 SUB ADD DUP2 DUP7 DUP1 EXTCODESIZE ISZERO DUP1 ISZERO PUSH2 0xB9D JUMPI PUSH1 0x0 DUP1 REVERT JUMPDEST POP GAS STATICCALL ISZERO DUP1 ISZERO PUSH2 0xBB1 JUMPI RETURNDATASIZE PUSH1 0x0 DUP1 RETURNDATACOPY RETURNDATASIZE PUSH1 0x0 REVERT JUMPDEST POP POP POP POP PUSH1 0x40 MLOAD RETURNDATASIZE PUSH1 0x20 DUP2 LT ISZERO PUSH2 0xBC7 JUMPI PUSH1 0x0 DUP1 REVERT JUMPDEST POP MLOAD PUSH1 0x38 DUP1 SLOAD PUSH1 0x1 PUSH1 0x1 PUSH1 0xA0 SHL SUB NOT SWAP1 DUP2 AND PUSH1 0x1 PUSH1 0x1 PUSH1 0xA0 SHL SUB SWAP4 DUP5 AND OR SWAP1 SWAP2 SSTORE PUSH1 0x36 DUP1 SLOAD DUP3 AND DUP7 DUP5 AND OR SWAP1 SSTORE PUSH1 0x35 DUP1 SLOAD SWAP1 SWAP2 AND SWAP2 DUP7 AND SWAP2 SWAP1 SWAP2 OR SWAP1 SSTORE DUP1 ISZERO PUSH2 0xC15 JUMPI PUSH1 0x1 DUP1 SLOAD PUSH1 0xFF NOT AND SWAP1 SSTORE JUMPDEST POP POP POP POP POP JUMP JUMPDEST PUSH1 0x36 SLOAD PUSH1 0x1 PUSH1 0x1 PUSH1 0xA0 SHL SUB AND CALLER EQ PUSH2 0xC65 JUMPI PUSH1 0x40 MLOAD PUSH3 0x461BCD PUSH1 0xE5 SHL DUP2 MSTORE PUSH1 0x4 ADD DUP1 DUP1 PUSH1 0x20 ADD DUP3 DUP2 SUB DUP3 MSTORE PUSH1 0x42 DUP2 MSTORE PUSH1 0x20 ADD DUP1 PUSH2 0x2148 PUSH1 0x42 SWAP2 CODECOPY PUSH1 0x60 ADD SWAP2 POP POP PUSH1 0x40 MLOAD DUP1 SWAP2 SUB SWAP1 REVERT JUMPDEST PUSH2 0x6F9 DUP4 DUP4 DUP4 PUSH2 0x1979 JUMP JUMPDEST PUSH1 0x38 SLOAD PUSH1 0x1 PUSH1 0x1 PUSH1 0xA0 SHL SUB AND DUP2 JUMP JUMPDEST PUSH1 0x36 SLOAD PUSH1 0x1 PUSH1 0x1 PUSH1 0xA0 SHL SUB AND CALLER EQ PUSH2 0xCC8 JUMPI PUSH1 0x40 MLOAD PUSH3 0x461BCD PUSH1 0xE5 SHL DUP2 MSTORE PUSH1 0x4 ADD DUP1 DUP1 PUSH1 0x20 ADD DUP3 DUP2 SUB DUP3 MSTORE PUSH1 0x42 DUP2 MSTORE PUSH1 0x20 ADD DUP1 PUSH2 0x2148 PUSH1 0x42 SWAP2 CODECOPY PUSH1 0x60 ADD SWAP2 POP POP PUSH1 0x40 MLOAD DUP1 SWAP2 SUB SWAP1 REVERT JUMPDEST DUP2 PUSH1 0x1 PUSH1 0x1 PUSH1 0xA0 SHL SUB AND DUP2 PUSH1 0x1 PUSH1 0x1 PUSH1 0xA0 SHL SUB AND EQ ISZERO PUSH2 0xD19 JUMPI PUSH1 0x40 MLOAD PUSH3 0x461BCD PUSH1 0xE5 SHL DUP2 MSTORE PUSH1 0x4 ADD DUP1 DUP1 PUSH1 0x20 ADD DUP3 DUP2 SUB DUP3 MSTORE PUSH1 0x25 DUP2 MSTORE PUSH1 0x20 ADD DUP1 PUSH2 0x2352 PUSH1 0x25 SWAP2 CODECOPY PUSH1 0x40 ADD SWAP2 POP POP PUSH1 0x40 MLOAD DUP1 SWAP2 SUB SWAP1 REVERT JUMPDEST PUSH1 0x1 PUSH1 0x1 PUSH1 0xA0 SHL SUB DUP1 DUP4 AND PUSH1 0x0 DUP2 DUP2 MSTORE PUSH1 0x3C PUSH1 0x20 SWAP1 DUP2 MSTORE PUSH1 0x40 SWAP2 DUP3 SWAP1 KECCAK256 PUSH1 0x7 ADD DUP1 SLOAD DUP6 DUP8 AND PUSH1 0x1 PUSH1 0x1 PUSH1 0xA0 SHL SUB NOT SWAP1 SWAP2 AND DUP2 OR SWAP1 SWAP2 SSTORE PUSH1 0x35 SLOAD DUP4 MLOAD SWAP6 AND DUP6 MSTORE SWAP1 DUP5 ADD SWAP3 SWAP1 SWAP3 MSTORE DUP3 DUP2 ADD SWAP2 SWAP1 SWAP2 MSTORE MLOAD PUSH32 0xE73DFCE870719FB72387A476CCB7A4CFEA6F0FED6FDD2C2282799FAB5F64E18A SWAP2 DUP2 SWAP1 SUB PUSH1 0x60 ADD SWAP1 LOG1 POP POP JUMP JUMPDEST PUSH1 0x3A SLOAD DUP2 JUMP JUMPDEST PUSH1 0x39 SLOAD PUSH1 0x35 SLOAD PUSH1 0x40 DUP1 MLOAD PUSH4 0x9FB8AFCD PUSH1 0xE0 SHL DUP2 MSTORE PUSH1 0x1 PUSH1 0x1 PUSH1 0xA0 SHL SUB SWAP3 DUP4 AND PUSH1 0x4 DUP3 ADD MSTORE DUP5 DUP4 AND PUSH1 0x24 DUP3 ADD MSTORE SWAP1 MLOAD PUSH1 0x0 SWAP4 DUP5 SWAP4 DUP5 SWAP4 SWAP2 AND SWAP2 PUSH4 0x9FB8AFCD SWAP2 PUSH1 0x44 DUP1 DUP3 ADD SWAP3 PUSH1 0x60 SWAP3 SWAP1 SWAP2 SWAP1 DUP3 SWAP1 SUB ADD DUP2 DUP7 DUP1 EXTCODESIZE ISZERO DUP1 ISZERO PUSH2 0xDF9 JUMPI PUSH1 0x0 DUP1 REVERT JUMPDEST POP GAS STATICCALL ISZERO DUP1 ISZERO PUSH2 0xE0D JUMPI RETURNDATASIZE PUSH1 0x0 DUP1 RETURNDATACOPY RETURNDATASIZE PUSH1 0x0 REVERT JUMPDEST POP POP POP POP PUSH1 0x40 MLOAD RETURNDATASIZE PUSH1 0x60 DUP2 LT ISZERO PUSH2 0xE23 JUMPI PUSH1 0x0 DUP1 REVERT JUMPDEST POP DUP1 MLOAD PUSH1 0x20 DUP1 DUP4 ADD MLOAD PUSH1 0x40 SWAP4 DUP5 ADD MLOAD PUSH1 0x1 PUSH1 0x1 PUSH1 0xA0 SHL SUB DUP10 DUP2 AND PUSH1 0x0 SWAP1 DUP2 MSTORE PUSH1 0x3C SWAP1 SWAP5 MSTORE SWAP5 SWAP1 SWAP3 KECCAK256 PUSH1 0x5 ADD SLOAD SWAP3 SWAP7 POP SWAP5 POP SWAP3 POP AND PUSH2 0xE6A JUMPI PUSH2 0xE65 DUP5 DUP4 PUSH2 0x1A47 JUMP JUMPDEST PUSH2 0xF54 JUMP JUMPDEST PUSH1 0x1 PUSH1 0x1 PUSH1 0xA0 SHL SUB DUP1 DUP6 AND PUSH1 0x0 SWAP1 DUP2 MSTORE PUSH1 0x3C PUSH1 0x20 MSTORE PUSH1 0x40 DUP1 DUP3 KECCAK256 PUSH1 0x5 SWAP1 DUP2 ADD SLOAD DUP5 AND DUP1 DUP5 MSTORE SWAP2 SWAP1 SWAP3 KECCAK256 SWAP1 SWAP2 ADD SLOAD SWAP1 SWAP2 AND PUSH2 0xF4A JUMPI PUSH1 0x39 SLOAD PUSH1 0x35 SLOAD PUSH1 0x40 DUP1 MLOAD PUSH4 0x9FB8AFCD PUSH1 0xE0 SHL DUP2 MSTORE PUSH1 0x1 PUSH1 0x1 PUSH1 0xA0 SHL SUB SWAP3 DUP4 AND PUSH1 0x4 DUP3 ADD MSTORE DUP5 DUP4 AND PUSH1 0x24 DUP3 ADD MSTORE SWAP1 MLOAD PUSH1 0x0 SWAP4 SWAP3 SWAP1 SWAP3 AND SWAP2 PUSH4 0x9FB8AFCD SWAP2 PUSH1 0x44 DUP1 DUP3 ADD SWAP3 PUSH1 0x60 SWAP3 SWAP1 SWAP2 SWAP1 DUP3 SWAP1 SUB ADD DUP2 DUP7 DUP1 EXTCODESIZE ISZERO DUP1 ISZERO PUSH2 0xEFA JUMPI PUSH1 0x0 DUP1 REVERT JUMPDEST POP GAS STATICCALL ISZERO DUP1 ISZERO PUSH2 0xF0E JUMPI RETURNDATASIZE PUSH1 0x0 DUP1 RETURNDATACOPY RETURNDATASIZE PUSH1 0x0 REVERT JUMPDEST POP POP POP POP PUSH1 0x40 MLOAD RETURNDATASIZE PUSH1 0x60 DUP2 LT ISZERO PUSH2 0xF24 JUMPI PUSH1 0x0 DUP1 REVERT JUMPDEST POP PUSH1 0x20 ADD MLOAD SWAP1 POP PUSH2 0xF44 DUP3 PUSH2 0xF3F DUP4 DUP7 PUSH4 0xFFFFFFFF PUSH2 0x1C02 AND JUMP JUMPDEST PUSH2 0x1A47 JUMP JUMPDEST POP PUSH2 0xC15 JUMP JUMPDEST PUSH2 0xC15 DUP2 DUP4 PUSH2 0x1A47 JUMP JUMPDEST POP POP POP POP JUMP JUMPDEST PUSH1 0x1 PUSH1 0x1 PUSH1 0xA0 SHL SUB DUP1 DUP5 AND PUSH1 0x0 SWAP1 DUP2 MSTORE PUSH1 0x3C PUSH1 0x20 MSTORE PUSH1 0x40 SWAP1 KECCAK256 PUSH1 0x5 ADD SLOAD AND DUP1 PUSH2 0xF83 JUMPI POP PUSH2 0x6F9 JUMP JUMPDEST PUSH1 0x1 PUSH1 0x1 PUSH1 0xA0 SHL SUB DUP2 AND PUSH1 0x0 SWAP1 DUP2 MSTORE PUSH1 0x3C PUSH1 0x20 MSTORE PUSH1 0x40 SWAP1 KECCAK256 PUSH1 0x1 ADD SLOAD PUSH2 0xFC1 SWAP1 DUP4 SWAP1 PUSH2 0xFB5 SWAP1 DUP7 PUSH4 0xFFFFFFFF PUSH2 0x1C02 AND JUMP JUMPDEST SWAP1 PUSH4 0xFFFFFFFF PUSH2 0x1C65 AND JUMP JUMPDEST PUSH1 0x1 PUSH1 0x1 PUSH1 0xA0 SHL SUB DUP1 DUP4 AND PUSH1 0x0 DUP2 DUP2 MSTORE PUSH1 0x3C PUSH1 0x20 SWAP1 DUP2 MSTORE PUSH1 0x40 SWAP2 DUP3 SWAP1 KECCAK256 PUSH1 0x1 ADD DUP6 SWAP1 SSTORE PUSH1 0x35 SLOAD DUP3 MLOAD SWAP5 AND DUP5 MSTORE DUP4 ADD SWAP2 SWAP1 SWAP2 MSTORE DUP2 DUP2 ADD DUP7 SWAP1 MSTORE PUSH1 0x60 DUP3 ADD DUP6 SWAP1 MSTORE PUSH1 0x80 DUP3 ADD SWAP3 SWAP1 SWAP3 MSTORE SWAP1 MLOAD PUSH32 0x2BEB9835051D3ABAB70A27C8DC49930B7C208BB375A0C94BAEEF0C1F1651A5F SWAP2 DUP2 SWAP1 SUB PUSH1 0xA0 ADD SWAP1 LOG1 POP POP POP POP JUMP JUMPDEST PUSH1 0x1 PUSH1 0x1 PUSH1 0xA0 SHL SUB DUP1 DUP4 AND PUSH1 0x0 SWAP1 DUP2 MSTORE PUSH1 0x3C PUSH1 0x20 MSTORE PUSH1 0x40 SWAP1 KECCAK256 PUSH1 0x4 ADD SLOAD DUP2 AND SWAP1 DUP3 AND DUP2 EQ ISZERO PUSH2 0x109A JUMPI PUSH1 0x40 MLOAD PUSH3 0x461BCD PUSH1 0xE5 SHL DUP2 MSTORE PUSH1 0x4 ADD DUP1 DUP1 PUSH1 0x20 ADD DUP3 DUP2 SUB DUP3 MSTORE PUSH1 0x44 DUP2 MSTORE PUSH1 0x20 ADD DUP1 PUSH2 0x2298 PUSH1 0x44 SWAP2 CODECOPY PUSH1 0x60 ADD SWAP2 POP POP PUSH1 0x40 MLOAD DUP1 SWAP2 SUB SWAP1 REVERT JUMPDEST PUSH1 0x36 SLOAD PUSH1 0x40 DUP1 MLOAD PUSH4 0xC25C4E3 PUSH1 0xE4 SHL DUP2 MSTORE PUSH1 0x1 PUSH1 0x1 PUSH1 0xA0 SHL SUB DUP7 DUP2 AND PUSH1 0x4 DUP4 ADD MSTORE SWAP2 MLOAD PUSH1 0x0 SWAP4 DUP5 SWAP4 AND SWAP2 PUSH4 0xC25C4E30 SWAP2 PUSH1 0x24 DUP1 DUP4 ADD SWAP3 PUSH1 0x80 SWAP3 SWAP2 SWAP1 DUP3 SWAP1 SUB ADD DUP2 DUP8 DUP8 DUP1 EXTCODESIZE ISZERO DUP1 ISZERO PUSH2 0x10EA JUMPI PUSH1 0x0 DUP1 REVERT JUMPDEST POP GAS CALL ISZERO DUP1 ISZERO PUSH2 0x10FE JUMPI RETURNDATASIZE PUSH1 0x0 DUP1 RETURNDATACOPY RETURNDATASIZE PUSH1 0x0 REVERT JUMPDEST POP POP POP POP PUSH1 0x40 MLOAD RETURNDATASIZE PUSH1 0x80 DUP2 LT ISZERO PUSH2 0x1114 JUMPI PUSH1 0x0 DUP1 REVERT JUMPDEST POP PUSH1 0x20 DUP1 DUP3 ADD MLOAD PUSH1 0x40 SWAP3 DUP4 ADD MLOAD PUSH1 0x36 SLOAD DUP5 MLOAD PUSH4 0x70A08231 PUSH1 0xE0 SHL DUP2 MSTORE PUSH1 0x1 PUSH1 0x1 PUSH1 0xA0 SHL SUB DUP12 DUP2 AND PUSH1 0x4 DUP4 ADD MSTORE SWAP6 MLOAD SWAP4 SWAP8 POP SWAP2 SWAP6 POP PUSH1 0x0 SWAP5 AND SWAP3 PUSH4 0x70A08231 SWAP3 PUSH1 0x24 DUP1 DUP5 ADD SWAP4 DUP3 SWAP1 SUB ADD DUP2 DUP7 DUP1 EXTCODESIZE ISZERO DUP1 ISZERO PUSH2 0x116D JUMPI PUSH1 0x0 DUP1 REVERT JUMPDEST POP GAS STATICCALL ISZERO DUP1 ISZERO PUSH2 0x1181 JUMPI RETURNDATASIZE PUSH1 0x0 DUP1 RETURNDATACOPY RETURNDATASIZE PUSH1 0x0 REVERT JUMPDEST POP POP POP POP PUSH1 0x40 MLOAD RETURNDATASIZE PUSH1 0x20 DUP2 LT ISZERO PUSH2 0x1197 JUMPI PUSH1 0x0 DUP1 REVERT JUMPDEST POP MLOAD GT PUSH2 0x11D5 JUMPI PUSH1 0x40 MLOAD PUSH3 0x461BCD PUSH1 0xE5 SHL DUP2 MSTORE PUSH1 0x4 ADD DUP1 DUP1 PUSH1 0x20 ADD DUP3 DUP2 SUB DUP3 MSTORE PUSH1 0x76 DUP2 MSTORE PUSH1 0x20 ADD DUP1 PUSH2 0x22DC PUSH1 0x76 SWAP2 CODECOPY PUSH1 0x80 ADD SWAP2 POP POP PUSH1 0x40 MLOAD DUP1 SWAP2 SUB SWAP1 REVERT JUMPDEST PUSH1 0x1 PUSH1 0x1 PUSH1 0xA0 SHL SUB DUP4 AND ISZERO PUSH2 0x128B JUMPI PUSH2 0x11F0 DUP6 DUP3 PUSH1 0x0 PUSH2 0x1979 JUMP JUMPDEST PUSH1 0x36 SLOAD PUSH1 0x40 DUP1 MLOAD PUSH4 0xC25C4E3 PUSH1 0xE4 SHL DUP2 MSTORE PUSH1 0x1 PUSH1 0x1 PUSH1 0xA0 SHL SUB DUP7 DUP2 AND PUSH1 0x4 DUP4 ADD MSTORE SWAP2 MLOAD PUSH1 0x0 SWAP4 SWAP3 SWAP1 SWAP3 AND SWAP2 PUSH4 0xC25C4E30 SWAP2 PUSH1 0x24 DUP1 DUP3 ADD SWAP3 PUSH1 0x80 SWAP3 SWAP1 SWAP2 SWAP1 DUP3 SWAP1 SUB ADD DUP2 DUP8 DUP8 DUP1 EXTCODESIZE ISZERO DUP1 ISZERO PUSH2 0x1242 JUMPI PUSH1 0x0 DUP1 REVERT JUMPDEST POP GAS CALL ISZERO DUP1 ISZERO PUSH2 0x1256 JUMPI RETURNDATASIZE PUSH1 0x0 DUP1 RETURNDATACOPY RETURNDATASIZE PUSH1 0x0 REVERT JUMPDEST POP POP POP POP PUSH1 0x40 MLOAD RETURNDATASIZE PUSH1 0x80 DUP2 LT ISZERO PUSH2 0x126C JUMPI PUSH1 0x0 DUP1 REVERT JUMPDEST POP PUSH1 0x20 ADD MLOAD SWAP1 POP PUSH2 0x127D DUP5 DUP3 PUSH2 0x1CA7 JUMP JUMPDEST PUSH2 0x1289 DUP7 PUSH1 0x0 DUP6 PUSH2 0x1979 JUMP JUMPDEST POP JUMPDEST DUP5 PUSH1 0x1 PUSH1 0x1 PUSH1 0xA0 SHL SUB AND DUP5 PUSH1 0x1 PUSH1 0x1 PUSH1 0xA0 SHL SUB AND EQ ISZERO PUSH2 0x1320 JUMPI PUSH1 0x1 PUSH1 0x1 PUSH1 0xA0 SHL SUB DUP1 DUP7 AND PUSH1 0x0 DUP2 DUP2 MSTORE PUSH1 0x3C PUSH1 0x20 SWAP1 DUP2 MSTORE PUSH1 0x40 DUP1 DUP4 KECCAK256 PUSH1 0x4 ADD DUP1 SLOAD PUSH1 0x1 PUSH1 0x1 PUSH1 0xA0 SHL SUB NOT AND SWAP1 SSTORE PUSH1 0x35 SLOAD DUP2 MLOAD SWAP6 AND DUP6 MSTORE SWAP1 DUP5 ADD SWAP3 SWAP1 SWAP3 MSTORE DUP3 DUP3 ADD MSTORE PUSH1 0x60 DUP3 ADD DUP5 SWAP1 MSTORE MLOAD PUSH32 0x55BBCEC3563D3417CAC9569D1963E34084AE0A4E46EE2CC06950F27A47C75920 SWAP2 DUP2 SWAP1 SUB PUSH1 0x80 ADD SWAP1 LOG1 POP POP POP PUSH2 0x751 JUMP JUMPDEST PUSH1 0x1 PUSH1 0x1 PUSH1 0xA0 SHL SUB DUP6 DUP2 AND PUSH1 0x0 SWAP1 DUP2 MSTORE PUSH1 0x3C PUSH1 0x20 MSTORE PUSH1 0x40 DUP2 KECCAK256 PUSH1 0x4 ADD DUP1 SLOAD PUSH1 0x1 PUSH1 0x1 PUSH1 0xA0 SHL SUB NOT AND SWAP3 DUP8 AND SWAP3 SWAP1 SWAP3 OR SWAP1 SWAP2 SSTORE PUSH2 0x135F SWAP1 DUP7 SWAP1 DUP5 SWAP1 PUSH2 0x1979 JUMP JUMPDEST PUSH1 0x35 SLOAD PUSH1 0x40 DUP1 MLOAD PUSH1 0x1 PUSH1 0x1 PUSH1 0xA0 SHL SUB SWAP3 DUP4 AND DUP2 MSTORE DUP8 DUP4 AND PUSH1 0x20 DUP3 ADD MSTORE SWAP2 DUP7 AND DUP3 DUP3 ADD MSTORE PUSH1 0x60 DUP3 ADD DUP5 SWAP1 MSTORE MLOAD PUSH32 0x55BBCEC3563D3417CAC9569D1963E34084AE0A4E46EE2CC06950F27A47C75920 SWAP2 DUP2 SWAP1 SUB PUSH1 0x80 ADD SWAP1 LOG1 POP POP POP POP POP JUMP JUMPDEST PUSH1 0x1 PUSH1 0x1 PUSH1 0xA0 SHL SUB DUP4 DUP2 AND PUSH1 0x0 SWAP1 DUP2 MSTORE PUSH1 0x3C PUSH1 0x20 MSTORE PUSH1 0x40 SWAP1 KECCAK256 PUSH1 0x4 ADD SLOAD AND PUSH2 0x13EC JUMPI PUSH2 0x13E7 DUP4 DUP3 PUSH2 0x1CA7 JUMP JUMPDEST PUSH2 0x6F9 JUMP JUMPDEST PUSH1 0x1 PUSH1 0x1 PUSH1 0xA0 SHL SUB DUP1 DUP5 AND PUSH1 0x0 SWAP1 DUP2 MSTORE PUSH1 0x3C PUSH1 0x20 MSTORE PUSH1 0x40 DUP1 DUP3 KECCAK256 PUSH1 0x4 SWAP1 DUP2 ADD SLOAD DUP5 AND DUP1 DUP5 MSTORE SWAP2 SWAP1 SWAP3 KECCAK256 SWAP1 SWAP2 ADD SLOAD SWAP1 SWAP2 AND PUSH2 0x14D8 JUMPI PUSH1 0x36 SLOAD PUSH1 0x40 DUP1 MLOAD PUSH4 0xC25C4E3 PUSH1 0xE4 SHL DUP2 MSTORE PUSH1 0x1 PUSH1 0x1 PUSH1 0xA0 SHL SUB DUP5 DUP2 AND PUSH1 0x4 DUP4 ADD MSTORE SWAP2 MLOAD PUSH1 0x0 SWAP4 DUP5 SWAP4 DUP5 SWAP4 SWAP2 AND SWAP2 PUSH4 0xC25C4E30 SWAP2 PUSH1 0x24 DUP1 DUP3 ADD SWAP3 PUSH1 0x80 SWAP3 SWAP1 SWAP2 SWAP1 DUP3 SWAP1 SUB ADD DUP2 DUP8 DUP8 DUP1 EXTCODESIZE ISZERO DUP1 ISZERO PUSH2 0x1474 JUMPI PUSH1 0x0 DUP1 REVERT JUMPDEST POP GAS CALL ISZERO DUP1 ISZERO PUSH2 0x1488 JUMPI RETURNDATASIZE PUSH1 0x0 DUP1 RETURNDATACOPY RETURNDATASIZE PUSH1 0x0 REVERT JUMPDEST POP POP POP POP PUSH1 0x40 MLOAD RETURNDATASIZE PUSH1 0x80 DUP2 LT ISZERO PUSH2 0x149E JUMPI PUSH1 0x0 DUP1 REVERT JUMPDEST POP PUSH1 0x20 DUP2 ADD MLOAD PUSH1 0x40 DUP3 ADD MLOAD PUSH1 0x60 SWAP1 SWAP3 ADD MLOAD SWAP1 SWAP5 POP SWAP1 SWAP3 POP SWAP1 POP PUSH2 0x14D0 DUP5 PUSH2 0x14CB DUP6 DUP10 PUSH4 0xFFFFFFFF PUSH2 0x1C02 AND JUMP JUMPDEST PUSH2 0x1CA7 JUMP JUMPDEST POP POP POP PUSH2 0x14E2 JUMP JUMPDEST PUSH2 0x14E2 DUP2 DUP5 PUSH2 0x1CA7 JUMP JUMPDEST PUSH2 0xF54 DUP5 PUSH1 0x0 PUSH2 0x1CA7 JUMP JUMPDEST PUSH1 0x1 PUSH1 0x1 PUSH1 0xA0 SHL SUB DUP1 DUP4 AND PUSH1 0x0 SWAP1 DUP2 MSTORE PUSH1 0x3C PUSH1 0x20 MSTORE PUSH1 0x40 SWAP1 KECCAK256 PUSH1 0x5 ADD SLOAD DUP2 AND SWAP1 DUP3 AND DUP2 EQ ISZERO PUSH2 0x154D JUMPI PUSH1 0x40 MLOAD PUSH3 0x461BCD PUSH1 0xE5 SHL DUP2 MSTORE PUSH1 0x4 ADD DUP1 DUP1 PUSH1 0x20 ADD DUP3 DUP2 SUB DUP3 MSTORE PUSH1 0x44 DUP2 MSTORE PUSH1 0x20 ADD DUP1 PUSH2 0x220A PUSH1 0x44 SWAP2 CODECOPY PUSH1 0x60 ADD SWAP2 POP POP PUSH1 0x40 MLOAD DUP1 SWAP2 SUB SWAP1 REVERT JUMPDEST PUSH1 0x39 SLOAD PUSH1 0x35 SLOAD PUSH1 0x40 DUP1 MLOAD PUSH4 0x9FB8AFCD PUSH1 0xE0 SHL DUP2 MSTORE PUSH1 0x1 PUSH1 0x1 PUSH1 0xA0 SHL SUB SWAP3 DUP4 AND PUSH1 0x4 DUP3 ADD MSTORE DUP7 DUP4 AND PUSH1 0x24 DUP3 ADD MSTORE SWAP1 MLOAD PUSH1 0x0 SWAP4 DUP5 SWAP4 DUP5 SWAP4 SWAP2 AND SWAP2 PUSH4 0x9FB8AFCD SWAP2 PUSH1 0x44 DUP1 DUP3 ADD SWAP3 PUSH1 0x60 SWAP3 SWAP1 SWAP2 SWAP1 DUP3 SWAP1 SUB ADD DUP2 DUP7 DUP1 EXTCODESIZE ISZERO DUP1 ISZERO PUSH2 0x15AB JUMPI PUSH1 0x0 DUP1 REVERT JUMPDEST POP GAS STATICCALL ISZERO DUP1 ISZERO PUSH2 0x15BF JUMPI RETURNDATASIZE PUSH1 0x0 DUP1 RETURNDATACOPY RETURNDATASIZE PUSH1 0x0 REVERT JUMPDEST POP POP POP POP PUSH1 0x40 MLOAD RETURNDATASIZE PUSH1 0x60 DUP2 LT ISZERO PUSH2 0x15D5 JUMPI PUSH1 0x0 DUP1 REVERT JUMPDEST POP DUP1 MLOAD PUSH1 0x20 DUP3 ADD MLOAD PUSH1 0x40 SWAP1 SWAP3 ADD MLOAD SWAP1 SWAP5 POP SWAP1 SWAP3 POP SWAP1 POP DUP2 PUSH2 0x1627 JUMPI PUSH1 0x40 MLOAD PUSH3 0x461BCD PUSH1 0xE5 SHL DUP2 MSTORE PUSH1 0x4 ADD DUP1 DUP1 PUSH1 0x20 ADD DUP3 DUP2 SUB DUP3 MSTORE PUSH1 0x80 DUP2 MSTORE PUSH1 0x20 ADD DUP1 PUSH2 0x218A PUSH1 0x80 SWAP2 CODECOPY PUSH1 0x80 ADD SWAP2 POP POP PUSH1 0x40 MLOAD DUP1 SWAP2 SUB SWAP1 REVERT JUMPDEST PUSH1 0x1 PUSH1 0x1 PUSH1 0xA0 SHL SUB DUP5 AND ISZERO PUSH2 0x164B JUMPI PUSH2 0x163F DUP7 PUSH2 0xD9B JUMP JUMPDEST PUSH2 0x164B DUP7 PUSH1 0x0 DUP6 PUSH2 0xF5A JUMP JUMPDEST DUP6 PUSH1 0x1 PUSH1 0x1 PUSH1 0xA0 SHL SUB AND DUP6 PUSH1 0x1 PUSH1 0x1 PUSH1 0xA0 SHL SUB AND EQ ISZERO PUSH2 0x16E1 JUMPI PUSH1 0x1 PUSH1 0x1 PUSH1 0xA0 SHL SUB DUP1 DUP8 AND PUSH1 0x0 DUP2 DUP2 MSTORE PUSH1 0x3C PUSH1 0x20 SWAP1 DUP2 MSTORE PUSH1 0x40 DUP1 DUP4 KECCAK256 PUSH1 0x5 ADD DUP1 SLOAD PUSH1 0x1 PUSH1 0x1 PUSH1 0xA0 SHL SUB NOT AND SWAP1 SSTORE PUSH1 0x35 SLOAD DUP2 MLOAD SWAP6 AND DUP6 MSTORE SWAP1 DUP5 ADD SWAP3 SWAP1 SWAP3 MSTORE DUP3 DUP3 ADD MSTORE PUSH1 0x60 DUP3 ADD DUP6 SWAP1 MSTORE MLOAD PUSH32 0x2EE0D55DAE2801AB7355B5C932C9AE702BFA8B6E0A7A1AF7B0A230107CE4B9AE SWAP2 DUP2 SWAP1 SUB PUSH1 0x80 ADD SWAP1 LOG1 POP POP POP POP PUSH2 0x751 JUMP JUMPDEST PUSH1 0x1 PUSH1 0x1 PUSH1 0xA0 SHL SUB DUP7 DUP2 AND PUSH1 0x0 SWAP1 DUP2 MSTORE PUSH1 0x3C PUSH1 0x20 MSTORE PUSH1 0x40 DUP2 KECCAK256 PUSH1 0x5 ADD DUP1 SLOAD PUSH1 0x1 PUSH1 0x1 PUSH1 0xA0 SHL SUB NOT AND SWAP3 DUP9 AND SWAP3 SWAP1 SWAP3 OR SWAP1 SWAP2 SSTORE PUSH2 0x1720 SWAP1 DUP8 SWAP1 DUP6 SWAP1 PUSH2 0xF5A JUMP JUMPDEST PUSH1 0x35 SLOAD PUSH1 0x40 DUP1 MLOAD PUSH1 0x1 PUSH1 0x1 PUSH1 0xA0 SHL SUB SWAP3 DUP4 AND DUP2 MSTORE DUP9 DUP4 AND PUSH1 0x20 DUP3 ADD MSTORE SWAP2 DUP8 AND DUP3 DUP3 ADD MSTORE PUSH1 0x60 DUP3 ADD DUP6 SWAP1 MSTORE MLOAD PUSH32 0x2EE0D55DAE2801AB7355B5C932C9AE702BFA8B6E0A7A1AF7B0A230107CE4B9AE SWAP2 DUP2 SWAP1 SUB PUSH1 0x80 ADD SWAP1 LOG1 POP POP POP POP POP POP JUMP JUMPDEST PUSH1 0x36 SLOAD PUSH1 0x40 DUP1 MLOAD PUSH4 0xC25C4E3 PUSH1 0xE4 SHL DUP2 MSTORE PUSH1 0x1 PUSH1 0x1 PUSH1 0xA0 SHL SUB DUP5 DUP2 AND PUSH1 0x4 DUP4 ADD MSTORE SWAP2 MLOAD PUSH1 0x0 SWAP4 DUP5 SWAP4 AND SWAP2 PUSH4 0xC25C4E30 SWAP2 PUSH1 0x24 DUP1 DUP4 ADD SWAP3 PUSH1 0x80 SWAP3 SWAP2 SWAP1 DUP3 SWAP1 SUB ADD DUP2 DUP8 DUP8 DUP1 EXTCODESIZE ISZERO DUP1 ISZERO PUSH2 0x17CD JUMPI PUSH1 0x0 DUP1 REVERT JUMPDEST POP GAS CALL ISZERO DUP1 ISZERO PUSH2 0x17E1 JUMPI RETURNDATASIZE PUSH1 0x0 DUP1 RETURNDATACOPY RETURNDATASIZE PUSH1 0x0 REVERT JUMPDEST POP POP POP POP PUSH1 0x40 MLOAD RETURNDATASIZE PUSH1 0x80 DUP2 LT ISZERO PUSH2 0x17F7 JUMPI PUSH1 0x0 DUP1 REVERT JUMPDEST POP PUSH1 0x20 DUP1 DUP3 ADD MLOAD PUSH1 0x40 SWAP3 DUP4 ADD MLOAD PUSH1 0x36 SLOAD DUP5 MLOAD PUSH4 0x70A08231 PUSH1 0xE0 SHL DUP2 MSTORE PUSH1 0x1 PUSH1 0x1 PUSH1 0xA0 SHL SUB DUP1 DUP11 AND PUSH1 0x4 DUP4 ADD MSTORE SWAP6 MLOAD SWAP4 SWAP8 POP SWAP2 SWAP6 POP PUSH2 0x188B SWAP5 DUP9 SWAP5 DUP8 SWAP5 SWAP2 SWAP1 SWAP3 AND SWAP3 PUSH4 0x70A08231 SWAP3 PUSH1 0x24 DUP1 DUP4 ADD SWAP4 SWAP2 SWAP3 DUP3 SWAP1 SUB ADD DUP2 DUP7 DUP1 EXTCODESIZE ISZERO DUP1 ISZERO PUSH2 0x185A JUMPI PUSH1 0x0 DUP1 REVERT JUMPDEST POP GAS STATICCALL ISZERO DUP1 ISZERO PUSH2 0x186E JUMPI RETURNDATASIZE PUSH1 0x0 DUP1 RETURNDATACOPY RETURNDATASIZE PUSH1 0x0 REVERT JUMPDEST POP POP POP POP PUSH1 0x40 MLOAD RETURNDATASIZE PUSH1 0x20 DUP2 LT ISZERO PUSH2 0x1884 JUMPI PUSH1 0x0 DUP1 REVERT JUMPDEST POP MLOAD PUSH2 0x13BB JUMP JUMPDEST PUSH2 0x1894 DUP4 PUSH2 0xD9B JUMP JUMPDEST PUSH1 0x1 PUSH1 0x1 PUSH1 0xA0 SHL SUB DUP4 AND PUSH1 0x0 SWAP1 DUP2 MSTORE PUSH1 0x3B PUSH1 0x20 MSTORE PUSH1 0x40 SWAP1 KECCAK256 SLOAD ISZERO PUSH2 0x6F9 JUMPI PUSH1 0x38 SLOAD PUSH1 0x35 SLOAD PUSH1 0x1 PUSH1 0x1 PUSH1 0xA0 SHL SUB DUP6 DUP2 AND PUSH1 0x0 DUP2 DUP2 MSTORE PUSH1 0x3B PUSH1 0x20 SWAP1 DUP2 MSTORE PUSH1 0x40 DUP1 DUP4 KECCAK256 SLOAD DUP2 MLOAD PUSH4 0xB482E0D1 PUSH1 0xE0 SHL DUP2 MSTORE SWAP7 DUP7 AND PUSH1 0x4 DUP9 ADD MSTORE PUSH1 0x24 DUP8 ADD SWAP5 SWAP1 SWAP5 MSTORE PUSH1 0x44 DUP7 ADD SWAP4 SWAP1 SWAP4 MSTORE SWAP2 MLOAD SWAP3 SWAP1 SWAP5 AND SWAP4 PUSH4 0xB482E0D1 SWAP4 PUSH1 0x64 DUP1 DUP3 ADD SWAP5 SWAP3 SWAP2 DUP4 SWAP1 SUB ADD SWAP1 DUP3 SWAP1 DUP8 DUP1 EXTCODESIZE ISZERO DUP1 ISZERO PUSH2 0x1924 JUMPI PUSH1 0x0 DUP1 REVERT JUMPDEST POP GAS CALL ISZERO DUP1 ISZERO PUSH2 0x1938 JUMPI RETURNDATASIZE PUSH1 0x0 DUP1 RETURNDATACOPY RETURNDATASIZE PUSH1 0x0 REVERT JUMPDEST POP POP POP POP PUSH1 0x40 MLOAD RETURNDATASIZE PUSH1 0x20 DUP2 LT ISZERO PUSH2 0x194E JUMPI PUSH1 0x0 DUP1 REVERT JUMPDEST POP MLOAD PUSH1 0x1 PUSH1 0x1 PUSH1 0xA0 SHL SUB DUP5 AND PUSH1 0x0 SWAP1 DUP2 MSTORE PUSH1 0x3B PUSH1 0x20 MSTORE PUSH1 0x40 SWAP1 KECCAK256 SSTORE POP POP POP JUMP JUMPDEST PUSH1 0x1 SWAP1 JUMP JUMPDEST ADDRESS EXTCODESIZE ISZERO SWAP1 JUMP JUMPDEST PUSH1 0x1 PUSH1 0x1 PUSH1 0xA0 SHL SUB DUP1 DUP5 AND PUSH1 0x0 SWAP1 DUP2 MSTORE PUSH1 0x3C PUSH1 0x20 MSTORE PUSH1 0x40 SWAP1 KECCAK256 PUSH1 0x4 ADD SLOAD AND DUP1 PUSH2 0x19A2 JUMPI POP PUSH2 0x6F9 JUMP JUMPDEST PUSH1 0x1 PUSH1 0x1 PUSH1 0xA0 SHL SUB DUP2 AND PUSH1 0x0 SWAP1 DUP2 MSTORE PUSH1 0x3C PUSH1 0x20 MSTORE PUSH1 0x40 SWAP1 KECCAK256 SLOAD PUSH2 0x19D1 SWAP1 DUP4 SWAP1 PUSH2 0xFB5 SWAP1 DUP7 PUSH4 0xFFFFFFFF PUSH2 0x1C02 AND JUMP JUMPDEST PUSH1 0x1 PUSH1 0x1 PUSH1 0xA0 SHL SUB DUP1 DUP4 AND PUSH1 0x0 DUP2 DUP2 MSTORE PUSH1 0x3C PUSH1 0x20 SWAP1 DUP2 MSTORE PUSH1 0x40 SWAP2 DUP3 SWAP1 KECCAK256 DUP6 SWAP1 SSTORE PUSH1 0x35 SLOAD DUP3 MLOAD SWAP5 AND DUP5 MSTORE DUP4 ADD SWAP2 SWAP1 SWAP2 MSTORE DUP2 DUP2 ADD DUP7 SWAP1 MSTORE PUSH1 0x60 DUP3 ADD DUP6 SWAP1 MSTORE PUSH1 0x80 DUP3 ADD SWAP3 SWAP1 SWAP3 MSTORE SWAP1 MLOAD PUSH32 0x3004E4AD558D08872EDBF8CF056679A1B1BE171B23FFDCC05F9200A5321FEDE4 SWAP2 DUP2 SWAP1 SUB PUSH1 0xA0 ADD SWAP1 LOG1 POP POP POP POP JUMP JUMPDEST PUSH1 0x38 SLOAD PUSH1 0x35 SLOAD PUSH1 0x40 DUP1 MLOAD PUSH4 0x87D30F3 PUSH1 0xE1 SHL DUP2 MSTORE PUSH1 0x1 PUSH1 0x1 PUSH1 0xA0 SHL SUB SWAP3 DUP4 AND PUSH1 0x4 DUP3 ADD MSTORE SWAP1 MLOAD PUSH1 0x0 SWAP4 SWAP3 SWAP1 SWAP3 AND SWAP2 PUSH4 0x10FA61E6 SWAP2 PUSH1 0x24 DUP1 DUP3 ADD SWAP3 PUSH1 0x20 SWAP3 SWAP1 SWAP2 SWAP1 DUP3 SWAP1 SUB ADD DUP2 DUP7 DUP1 EXTCODESIZE ISZERO DUP1 ISZERO PUSH2 0x1A9B JUMPI PUSH1 0x0 DUP1 REVERT JUMPDEST POP GAS STATICCALL ISZERO DUP1 ISZERO PUSH2 0x1AAF JUMPI RETURNDATASIZE PUSH1 0x0 DUP1 RETURNDATACOPY RETURNDATASIZE PUSH1 0x0 REVERT JUMPDEST POP POP POP POP PUSH1 0x40 MLOAD RETURNDATASIZE PUSH1 0x20 DUP2 LT ISZERO PUSH2 0x1AC5 JUMPI PUSH1 0x0 DUP1 REVERT JUMPDEST POP MLOAD SWAP1 POP DUP1 PUSH2 0x1B05 JUMPI PUSH1 0x40 MLOAD PUSH3 0x461BCD PUSH1 0xE5 SHL DUP2 MSTORE PUSH1 0x4 ADD DUP1 DUP1 PUSH1 0x20 ADD DUP3 DUP2 SUB DUP3 MSTORE PUSH1 0x4A DUP2 MSTORE PUSH1 0x20 ADD DUP1 PUSH2 0x224E PUSH1 0x4A SWAP2 CODECOPY PUSH1 0x60 ADD SWAP2 POP POP PUSH1 0x40 MLOAD DUP1 SWAP2 SUB SWAP1 REVERT JUMPDEST PUSH1 0x1 PUSH1 0x1 PUSH1 0xA0 SHL SUB DUP4 AND PUSH1 0x0 SWAP1 DUP2 MSTORE PUSH1 0x3C PUSH1 0x20 MSTORE PUSH1 0x40 DUP2 KECCAK256 PUSH1 0x1 ADD SLOAD PUSH2 0x1B31 SWAP1 DUP5 PUSH4 0xFFFFFFFF PUSH2 0x1C02 AND JUMP JUMPDEST SWAP1 POP PUSH2 0x1B3B PUSH2 0x20F9 JUMP JUMPDEST POP PUSH1 0x40 DUP1 MLOAD PUSH1 0x20 DUP1 DUP3 ADD DUP4 MSTORE PUSH1 0x1 PUSH1 0x1 PUSH1 0xA0 SHL SUB DUP8 AND PUSH1 0x0 SWAP1 DUP2 MSTORE PUSH1 0x3C SWAP1 SWAP2 MSTORE SWAP2 SWAP1 SWAP2 KECCAK256 PUSH1 0x3 ADD SLOAD DUP2 MSTORE PUSH2 0x1B6D PUSH2 0x20F9 JUMP JUMPDEST POP PUSH1 0x40 DUP1 MLOAD PUSH1 0x20 DUP1 DUP3 ADD DUP4 MSTORE DUP6 DUP3 MSTORE PUSH1 0x1 PUSH1 0x1 PUSH1 0xA0 SHL SUB DUP9 AND PUSH1 0x0 SWAP1 DUP2 MSTORE PUSH1 0x3C SWAP1 SWAP2 MSTORE SWAP2 SWAP1 SWAP2 KECCAK256 PUSH1 0x3 ADD DUP5 SWAP1 SSTORE DUP2 MLOAD ISZERO DUP1 ISZERO PUSH2 0x1BA9 JUMPI POP DUP1 MLOAD ISZERO ISZERO JUMPDEST ISZERO PUSH2 0x1BB3 JUMPI DUP1 MLOAD DUP3 MSTORE JUMPDEST PUSH2 0x1BBB PUSH2 0x20F9 JUMP JUMPDEST PUSH2 0x1BC5 DUP3 DUP5 PUSH2 0x1E54 JUMP JUMPDEST DUP1 MLOAD SWAP1 SWAP2 POP ISZERO DUP1 ISZERO SWAP1 PUSH2 0x1BD8 JUMPI POP PUSH1 0x0 DUP5 GT JUMPDEST ISZERO PUSH2 0x1BF9 JUMPI PUSH1 0x0 PUSH2 0x1BE9 DUP6 DUP4 PUSH2 0x1EB4 JUMP JUMPDEST SWAP1 POP PUSH2 0x1BF7 DUP9 DUP3 PUSH1 0x0 PUSH2 0x1F34 JUMP JUMPDEST POP JUMPDEST POP POP POP POP POP POP POP JUMP JUMPDEST PUSH1 0x0 DUP3 DUP3 ADD DUP4 DUP2 LT ISZERO PUSH2 0x1C5C JUMPI PUSH1 0x40 DUP1 MLOAD PUSH3 0x461BCD PUSH1 0xE5 SHL DUP2 MSTORE PUSH1 0x20 PUSH1 0x4 DUP3 ADD MSTORE PUSH1 0x1B PUSH1 0x24 DUP3 ADD MSTORE PUSH32 0x536166654D6174683A206164646974696F6E206F766572666C6F770000000000 PUSH1 0x44 DUP3 ADD MSTORE SWAP1 MLOAD SWAP1 DUP2 SWAP1 SUB PUSH1 0x64 ADD SWAP1 REVERT JUMPDEST SWAP1 POP JUMPDEST SWAP3 SWAP2 POP POP JUMP JUMPDEST PUSH1 0x0 PUSH2 0x1C5C DUP4 DUP4 PUSH1 0x40 MLOAD DUP1 PUSH1 0x40 ADD PUSH1 0x40 MSTORE DUP1 PUSH1 0x1E DUP2 MSTORE PUSH1 0x20 ADD PUSH32 0x536166654D6174683A207375627472616374696F6E206F766572666C6F770000 DUP2 MSTORE POP PUSH2 0x2062 JUMP JUMPDEST PUSH1 0x38 SLOAD PUSH1 0x35 SLOAD PUSH1 0x40 DUP1 MLOAD PUSH4 0x269C5EC9 PUSH1 0xE2 SHL DUP2 MSTORE PUSH1 0x1 PUSH1 0x1 PUSH1 0xA0 SHL SUB SWAP3 DUP4 AND PUSH1 0x4 DUP3 ADD MSTORE SWAP1 MLOAD PUSH1 0x0 SWAP4 SWAP3 SWAP1 SWAP3 AND SWAP2 PUSH4 0x9A717B24 SWAP2 PUSH1 0x24 DUP1 DUP3 ADD SWAP3 PUSH1 0x20 SWAP3 SWAP1 SWAP2 SWAP1 DUP3 SWAP1 SUB ADD DUP2 DUP7 DUP1 EXTCODESIZE ISZERO DUP1 ISZERO PUSH2 0x1CFB JUMPI PUSH1 0x0 DUP1 REVERT JUMPDEST POP GAS STATICCALL ISZERO DUP1 ISZERO PUSH2 0x1D0F JUMPI RETURNDATASIZE PUSH1 0x0 DUP1 RETURNDATACOPY RETURNDATASIZE PUSH1 0x0 REVERT JUMPDEST POP POP POP POP PUSH1 0x40 MLOAD RETURNDATASIZE PUSH1 0x20 DUP2 LT ISZERO PUSH2 0x1D25 JUMPI PUSH1 0x0 DUP1 REVERT JUMPDEST POP MLOAD SWAP1 POP DUP1 PUSH2 0x1D65 JUMPI PUSH1 0x40 MLOAD PUSH3 0x461BCD PUSH1 0xE5 SHL DUP2 MSTORE PUSH1 0x4 ADD DUP1 DUP1 PUSH1 0x20 ADD DUP3 DUP2 SUB DUP3 MSTORE PUSH1 0x4A DUP2 MSTORE PUSH1 0x20 ADD DUP1 PUSH2 0x242D PUSH1 0x4A SWAP2 CODECOPY PUSH1 0x60 ADD SWAP2 POP POP PUSH1 0x40 MLOAD DUP1 SWAP2 SUB SWAP1 REVERT JUMPDEST PUSH1 0x1 PUSH1 0x1 PUSH1 0xA0 SHL SUB DUP4 AND PUSH1 0x0 SWAP1 DUP2 MSTORE PUSH1 0x3C PUSH1 0x20 MSTORE PUSH1 0x40 DUP2 KECCAK256 SLOAD PUSH2 0x1D8E SWAP1 DUP5 PUSH4 0xFFFFFFFF PUSH2 0x1C02 AND JUMP JUMPDEST SWAP1 POP PUSH2 0x1D98 PUSH2 0x20F9 JUMP JUMPDEST POP PUSH1 0x40 DUP1 MLOAD PUSH1 0x20 DUP1 DUP3 ADD DUP4 MSTORE PUSH1 0x1 PUSH1 0x1 PUSH1 0xA0 SHL SUB DUP8 AND PUSH1 0x0 SWAP1 DUP2 MSTORE PUSH1 0x3C SWAP1 SWAP2 MSTORE SWAP2 SWAP1 SWAP2 KECCAK256 PUSH1 0x2 ADD SLOAD DUP2 MSTORE PUSH2 0x1DCA PUSH2 0x20F9 JUMP JUMPDEST POP PUSH1 0x40 DUP1 MLOAD PUSH1 0x20 DUP1 DUP3 ADD DUP4 MSTORE DUP6 DUP3 MSTORE PUSH1 0x1 PUSH1 0x1 PUSH1 0xA0 SHL SUB DUP9 AND PUSH1 0x0 SWAP1 DUP2 MSTORE PUSH1 0x3C SWAP1 SWAP2 MSTORE SWAP2 SWAP1 SWAP2 KECCAK256 PUSH1 0x2 ADD DUP5 SWAP1 SSTORE DUP2 MLOAD ISZERO DUP1 ISZERO PUSH2 0x1E06 JUMPI POP DUP1 MLOAD ISZERO ISZERO JUMPDEST ISZERO PUSH2 0x1E10 JUMPI DUP1 MLOAD DUP3 MSTORE JUMPDEST PUSH2 0x1E18 PUSH2 0x20F9 JUMP JUMPDEST PUSH2 0x1E22 DUP3 DUP5 PUSH2 0x1E54 JUMP JUMPDEST DUP1 MLOAD SWAP1 SWAP2 POP ISZERO DUP1 ISZERO SWAP1 PUSH2 0x1E35 JUMPI POP PUSH1 0x0 DUP5 GT JUMPDEST ISZERO PUSH2 0x1BF9 JUMPI PUSH1 0x0 PUSH2 0x1E46 DUP6 DUP4 PUSH2 0x1EB4 JUMP JUMPDEST SWAP1 POP PUSH2 0x1BF7 DUP9 DUP3 PUSH1 0x1 PUSH2 0x1F34 JUMP JUMPDEST PUSH2 0x1E5C PUSH2 0x20F9 JUMP JUMPDEST DUP3 MLOAD DUP3 MLOAD GT ISZERO PUSH2 0x1E9D JUMPI PUSH1 0x40 MLOAD PUSH3 0x461BCD PUSH1 0xE5 SHL DUP2 MSTORE PUSH1 0x4 ADD DUP1 DUP1 PUSH1 0x20 ADD DUP3 DUP2 SUB DUP3 MSTORE PUSH1 0x88 DUP2 MSTORE PUSH1 0x20 ADD DUP1 PUSH2 0x23A5 PUSH1 0x88 SWAP2 CODECOPY PUSH1 0xA0 ADD SWAP2 POP POP PUSH1 0x40 MLOAD DUP1 SWAP2 SUB SWAP1 REVERT JUMPDEST POP MLOAD SWAP1 MLOAD PUSH1 0x40 DUP1 MLOAD PUSH1 0x20 DUP2 ADD SWAP1 SWAP2 MSTORE SWAP2 SWAP1 SUB DUP2 MSTORE SWAP1 JUMP JUMPDEST PUSH1 0x0 DUP3 ISZERO DUP1 PUSH2 0x1EC2 JUMPI POP DUP2 MLOAD ISZERO JUMPDEST ISZERO PUSH2 0x1ECF JUMPI POP PUSH1 0x0 PUSH2 0x1C5F JUMP JUMPDEST DUP2 MLOAD DUP4 DUP2 MUL SWAP1 DUP5 DUP3 DUP2 PUSH2 0x1EDE JUMPI INVALID JUMPDEST DIV EQ PUSH2 0x1F1B JUMPI PUSH1 0x40 MLOAD PUSH3 0x461BCD PUSH1 0xE5 SHL DUP2 MSTORE PUSH1 0x4 ADD DUP1 DUP1 PUSH1 0x20 ADD DUP3 DUP2 SUB DUP3 MSTORE PUSH1 0x3B DUP2 MSTORE PUSH1 0x20 ADD DUP1 PUSH2 0x210D PUSH1 0x3B SWAP2 CODECOPY PUSH1 0x40 ADD SWAP2 POP POP PUSH1 0x40 MLOAD DUP1 SWAP2 SUB SWAP1 REVERT JUMPDEST PUSH15 0xC097CE7BC90715B34B9F1000000000 SWAP1 DIV SWAP4 SWAP3 POP POP POP JUMP JUMPDEST PUSH1 0x1 PUSH1 0x1 PUSH1 0xA0 SHL SUB DUP4 AND PUSH1 0x0 SWAP1 DUP2 MSTORE PUSH1 0x3B PUSH1 0x20 MSTORE PUSH1 0x40 SWAP1 KECCAK256 SLOAD PUSH2 0x1F5D SWAP1 DUP4 PUSH4 0xFFFFFFFF PUSH2 0x1C02 AND JUMP JUMPDEST PUSH1 0x1 PUSH1 0x1 PUSH1 0xA0 SHL SUB DUP1 DUP6 AND PUSH1 0x0 DUP2 DUP2 MSTORE PUSH1 0x3B PUSH1 0x20 SWAP1 DUP2 MSTORE PUSH1 0x40 SWAP2 DUP3 SWAP1 KECCAK256 DUP6 SWAP1 SSTORE PUSH1 0x35 SLOAD DUP3 MLOAD SWAP5 AND DUP5 MSTORE DUP4 ADD SWAP2 SWAP1 SWAP2 MSTORE DUP4 ISZERO ISZERO DUP3 DUP3 ADD MSTORE PUSH1 0x60 DUP3 ADD DUP6 SWAP1 MSTORE PUSH1 0x80 DUP3 ADD SWAP3 SWAP1 SWAP3 MSTORE SWAP1 MLOAD PUSH32 0xA6C7BA999929D128350B8D7B476C0D3DECB90386500154E6E906D910D950E95E SWAP2 DUP2 SWAP1 SUB PUSH1 0xA0 ADD SWAP1 LOG1 PUSH1 0x3A SLOAD PUSH1 0x1 PUSH1 0x1 PUSH1 0xA0 SHL SUB DUP5 AND PUSH1 0x0 SWAP1 DUP2 MSTORE PUSH1 0x3B PUSH1 0x20 MSTORE PUSH1 0x40 SWAP1 KECCAK256 SLOAD GT ISZERO PUSH2 0x6F9 JUMPI PUSH1 0x38 SLOAD PUSH1 0x35 SLOAD PUSH1 0x1 PUSH1 0x1 PUSH1 0xA0 SHL SUB DUP6 DUP2 AND PUSH1 0x0 DUP2 DUP2 MSTORE PUSH1 0x3B PUSH1 0x20 SWAP1 DUP2 MSTORE PUSH1 0x40 DUP1 DUP4 KECCAK256 SLOAD DUP2 MLOAD PUSH4 0xB482E0D1 PUSH1 0xE0 SHL DUP2 MSTORE SWAP7 DUP7 AND PUSH1 0x4 DUP9 ADD MSTORE PUSH1 0x24 DUP8 ADD SWAP5 SWAP1 SWAP5 MSTORE PUSH1 0x44 DUP7 ADD SWAP4 SWAP1 SWAP4 MSTORE SWAP2 MLOAD SWAP3 SWAP1 SWAP5 AND SWAP4 PUSH4 0xB482E0D1 SWAP4 PUSH1 0x64 DUP1 DUP3 ADD SWAP5 SWAP3 SWAP2 DUP4 SWAP1 SUB ADD SWAP1 DUP3 SWAP1 DUP8 DUP1 EXTCODESIZE ISZERO DUP1 ISZERO PUSH2 0x1924 JUMPI PUSH1 0x0 DUP1 REVERT JUMPDEST PUSH1 0x0 DUP2 DUP5 DUP5 GT ISZERO PUSH2 0x20F1 JUMPI PUSH1 0x40 MLOAD PUSH3 0x461BCD PUSH1 0xE5 SHL DUP2 MSTORE PUSH1 0x4 ADD DUP1 DUP1 PUSH1 0x20 ADD DUP3 DUP2 SUB DUP3 MSTORE DUP4 DUP2 DUP2 MLOAD DUP2 MSTORE PUSH1 0x20 ADD SWAP2 POP DUP1 MLOAD SWAP1 PUSH1 0x20 ADD SWAP1 DUP1 DUP4 DUP4 PUSH1 0x0 JUMPDEST DUP4 DUP2 LT ISZERO PUSH2 0x20B6 JUMPI DUP2 DUP2 ADD MLOAD DUP4 DUP3 ADD MSTORE PUSH1 0x20 ADD PUSH2 0x209E JUMP JUMPDEST POP POP POP POP SWAP1 POP SWAP1 DUP2 ADD SWAP1 PUSH1 0x1F AND DUP1 ISZERO PUSH2 0x20E3 JUMPI DUP1 DUP3 SUB DUP1 MLOAD PUSH1 0x1 DUP4 PUSH1 0x20 SUB PUSH2 0x100 EXP SUB NOT AND DUP2 MSTORE PUSH1 0x20 ADD SWAP2 POP JUMPDEST POP SWAP3 POP POP POP PUSH1 0x40 MLOAD DUP1 SWAP2 SUB SWAP1 REVERT JUMPDEST POP POP POP SWAP1 SUB SWAP1 JUMP JUMPDEST PUSH1 0x40 MLOAD DUP1 PUSH1 0x20 ADD PUSH1 0x40 MSTORE DUP1 PUSH1 0x0 DUP2 MSTORE POP SWAP1 JUMP INVALID MSTORE8 0x49 SELFBALANCE 0x48 KECCAK256 MSTORE8 PUSH21 0x7265616D3A204D756C7469706C69636174696F6E20 0x28 PUSH22 0x696E74202A20446F75626C6529206C657420746F206F PUSH23 0x6572666C6F775468652063616C6C6572206F6620746869 PUSH20 0x2066756E6374696F6E206D757374206265207468 PUSH6 0x206173736F63 PUSH10 0x617465642049546F6B65 PUSH15 0x20436F6E7472616374426F72726F77 PUSH10 0x6E672024534947482053 PUSH21 0x7265616D2073747265616D2063616E206F6E6C7920 PUSH3 0x652072 PUSH6 0x646972656374 PUSH6 0x642069662074 PUSH9 0x657265206973206120 PUSH23 0x616C6964205072696E636970616C20426F72726F77696E PUSH8 0x2042616C616E6365 KECCAK256 PUSH2 0x6363 PUSH22 0x72696E6720245349474820666F722074686520757365 PUSH19 0x426F72726F77696E6720245349474820537472 PUSH6 0x616D20697320 PUSH2 0x6C72 PUSH6 0x616479207265 PUSH5 0x6972656374 PUSH6 0x6420746F2074 PUSH9 0x652070726F76696465 PUSH5 0x206163636F PUSH22 0x6E745349474820446973747269627574696F6E204861 PUSH15 0x646C65722072657475726E65642069 PUSH15 0x76616C696420626F72726F7720496E PUSH5 0x657820666F PUSH19 0x2074686520696E737472756D656E744C697175 PUSH10 0x64697479202453494748 KECCAK256 MSTORE8 PUSH21 0x7265616D20697320616C7265616479207265646972 PUSH6 0x637465642074 PUSH16 0x207468652070726F7669646564206163 PUSH4 0x6F756E74 0x4C PUSH10 0x71756964697479202453 0x49 SELFBALANCE 0x48 KECCAK256 MSTORE8 PUSH21 0x7265616D2073747265616D2063616E206F6E6C7920 PUSH3 0x652072 PUSH6 0x646972656374 PUSH6 0x642069662074 PUSH9 0x657265206973206120 PUSH23 0x616C6964204C69717569646974792042616C616E636520 PUSH2 0x6363 PUSH22 0x72696E6720245349474820666F722074686520757365 PUSH19 0x557365722063616E6E6F74206769766520616C PUSH13 0x6F77616E636520746F2068696D PUSH20 0x656C66436F6E747261637420696E7374616E6365 KECCAK256 PUSH9 0x617320616C72656164 PUSH26 0x206265656E20696E697469616C697A6564534947482053747265 PUSH2 0x6D3A KECCAK256 DIFFICULTY PUSH16 0x75626C65204D616E7469737361205375 PUSH3 0x747261 PUSH4 0x74696F6E KECCAK256 PUSH22 0x6E646572666C6F772C20616D6F756E7420746F206265 KECCAK256 PUSH20 0x7562747261637465642067726561746572207468 PUSH2 0x6E20 PUSH21 0x686520616D6F756E742066726F6D20776869636820 PUSH10 0x74206E6565647320746F KECCAK256 PUSH3 0x652073 PUSH22 0x62747261637465645349474820446973747269627574 PUSH10 0x6F6E2048616E646C6572 KECCAK256 PUSH19 0x657475726E656420696E76616C696420737570 PUSH17 0x6C7920496E64657820666F722074686520 PUSH10 0x6E737472756D656E7443 PUSH2 0x6C6C PUSH6 0x72206973206E PUSH16 0x7420616C6C6F77656420746F20726564 PUSH10 0x7265637420746865204C PUSH10 0x71756964697479202453 0x49 SELFBALANCE 0x48 KECCAK256 MSTORE8 PUSH21 0x7265616D206F6620746865207573657243616C6C65 PUSH19 0x206973206E6F7420616C6C6F77656420746F20 PUSH19 0x656469726563742074686520426F72726F7769 PUSH15 0x672024534947482053747265616D20 PUSH16 0x66207468652075736572A265627A7A72 BALANCE PC KECCAK256 0xFB PUSH11 0x6961C892AD92D4C6A7FC13 AND KECCAK256 SWAP11 EXTCODEHASH SWAP3 PUSH24 0x22A2D6EC77BB9ABF5438CC19FD64736F6C63430005110032 "
		},
		"gasEstimates": {
			"creation": {
				"codeDepositCost": "1906200",
				"executionCost": "47030",
				"totalCost": "1953230"
			},
			"external": {
				"CONFIGURATOR_REVISION()": "287",
				"accureLiquiditySighStream(address,uint256,uint256)": "infinite",
				"accure_SIGH_For_BorrowingStream(address)": "infinite",
				"allowBorrowingSIGHRedirectionTo(address,address)": "infinite",
				"allowLiquiditySIGHRedirectionTo(address,address)": "infinite",
				"claimMySIGH(address)": "infinite",
				"getSIGHStreamsAllowances(address)": "2063",
				"getSIGHStreamsIndexes(address)": "2035",
				"getSIGHStreamsRedirectedBalances(address)": "2074",
				"getSIGHStreamsRedirectedTo(address)": "2174",
				"getSighAccured(address)": "1188",
				"iToken()": "1105",
				"initialize(address,address,address)": "infinite",
				"redirectBorrowingSIGHStream(address,address)": "infinite",
				"redirectBorrowingSIGHStreamOf(address,address,address)": "infinite",
				"redirectLiquiditySIGHStream(address,address)": "infinite",
				"redirectLiquiditySIGHStreamOf(address,address,address)": "infinite",
				"sighDistributionHandlerContract()": "1125",
				"sigh_Transfer_Threshold()": "1130",
				"underlyingInstrumentAddress()": "1149",
				"updateRedirectedBalanceOfBorrowingSIGHStreamRedirectionAddress(address,uint256,uint256)": "infinite",
				"updateRedirectedBalanceOfLiquiditySIGHStreamRedirectionAddress(address,uint256,uint256)": "infinite"
			},
			"internal": {
				"accureBorrowingSighStreamInternal(address)": "infinite",
				"accureLiquiditySighStreamInternal(address,uint256,uint256)": "infinite",
				"accureSigh(address,uint256,bool)": "infinite",
				"accure_SIGH_For_BorrowingStreamInternal(address,uint256)": "infinite",
				"accure_SIGH_For_LiquidityStream_Internal(address,uint256)": "infinite",
				"claimSighInternal(address)": "infinite",
				"getRevision()": "15",
				"mul_(uint256,struct SighStream.Double memory)": "infinite",
				"redirectBorrowingSIGHStreamInternal(address,address)": "infinite",
				"redirectLiquiditySIGHStreamInternal(address,address)": "infinite",
				"sub_(struct SighStream.Double memory,struct SighStream.Double memory)": "infinite",
				"updateRedirectedBalanceOfBorrowingSIGHStreamRedirectionAddressInternal(address,uint256,uint256)": "infinite",
				"updateRedirectedBalanceOfLiquiditySIGHStreamRedirectionAddressesInternal(address,uint256,uint256)": "infinite"
			}
		},
		"methodIdentifiers": {
			"CONFIGURATOR_REVISION()": "7af635a6",
			"accureLiquiditySighStream(address,uint256,uint256)": "83d65995",
			"accure_SIGH_For_BorrowingStream(address)": "1e77d68b",
			"allowBorrowingSIGHRedirectionTo(address,address)": "dc89da0a",
			"allowLiquiditySIGHRedirectionTo(address,address)": "6755329e",
			"claimMySIGH(address)": "ad0f5fa9",
			"getSIGHStreamsAllowances(address)": "bf7814cb",
			"getSIGHStreamsIndexes(address)": "950514b3",
			"getSIGHStreamsRedirectedBalances(address)": "65b5820b",
			"getSIGHStreamsRedirectedTo(address)": "8432822a",
			"getSighAccured(address)": "2eaae3c7",
			"iToken()": "408cfe24",
			"initialize(address,address,address)": "c0c53b8b",
			"redirectBorrowingSIGHStream(address,address)": "b71adb20",
			"redirectBorrowingSIGHStreamOf(address,address,address)": "8c2de3c3",
			"redirectLiquiditySIGHStream(address,address)": "74087098",
			"redirectLiquiditySIGHStreamOf(address,address,address)": "bddf3795",
			"sighDistributionHandlerContract()": "d821eb97",
			"sigh_Transfer_Threshold()": "e2bd79a3",
			"underlyingInstrumentAddress()": "6722b4fa",
			"updateRedirectedBalanceOfBorrowingSIGHStreamRedirectionAddress(address,uint256,uint256)": "67e6aeed",
			"updateRedirectedBalanceOfLiquiditySIGHStreamRedirectionAddress(address,uint256,uint256)": "c1da31c7"
		}
	},
	"abi": [
		{
			"anonymous": false,
			"inputs": [
				{
					"indexed": false,
					"internalType": "address",
					"name": "instrument",
					"type": "address"
				},
				{
					"indexed": false,
					"internalType": "address",
					"name": "redirectionAddress",
					"type": "address"
				},
				{
					"indexed": false,
					"internalType": "uint256",
					"name": "_balanceToAdd",
					"type": "uint256"
				},
				{
					"indexed": false,
					"internalType": "uint256",
					"name": "_balanceToRemove",
					"type": "uint256"
				},
				{
					"indexed": false,
					"internalType": "uint256",
					"name": "totalRedirectedBalanceForBorrowingSIGHStream",
					"type": "uint256"
				}
			],
			"name": "BorrowingSIGHStreamRedirectedBalanceUpdated",
			"type": "event"
		},
		{
			"anonymous": false,
			"inputs": [
				{
					"indexed": false,
					"internalType": "address",
					"name": "instrument",
					"type": "address"
				},
				{
					"indexed": false,
					"internalType": "address",
					"name": "user",
					"type": "address"
				},
				{
					"indexed": false,
					"internalType": "address",
					"name": "allowedAccount",
					"type": "address"
				}
			],
			"name": "BorrowingSIGHStreamRedirectionAllowanceChanged",
			"type": "event"
		},
		{
			"anonymous": false,
			"inputs": [
				{
					"indexed": false,
					"internalType": "address",
					"name": "instrument",
					"type": "address"
				},
				{
					"indexed": false,
					"internalType": "address",
					"name": "fromAccount",
					"type": "address"
				},
				{
					"indexed": false,
					"internalType": "address",
					"name": "toAccount",
					"type": "address"
				},
				{
					"indexed": false,
					"internalType": "uint256",
					"name": "redirectedBalance",
					"type": "uint256"
				}
			],
			"name": "BorrowingSIGHStreamStreamRedirected",
			"type": "event"
		},
		{
			"anonymous": false,
			"inputs": [
				{
					"indexed": false,
					"internalType": "address",
					"name": "instrument",
					"type": "address"
				},
				{
					"indexed": false,
					"internalType": "address",
					"name": "redirectionAddress",
					"type": "address"
				},
				{
					"indexed": false,
					"internalType": "uint256",
					"name": "_balanceToAdd",
					"type": "uint256"
				},
				{
					"indexed": false,
					"internalType": "uint256",
					"name": "_balanceToRemove",
					"type": "uint256"
				},
				{
					"indexed": false,
					"internalType": "uint256",
					"name": "totalRedirectedBalanceForLiquiditySIGHStream",
					"type": "uint256"
				}
			],
			"name": "LiquiditySIGHStreamRedirectedBalanceUpdated",
			"type": "event"
		},
		{
			"anonymous": false,
			"inputs": [
				{
					"indexed": false,
					"internalType": "address",
					"name": "instrument",
					"type": "address"
				},
				{
					"indexed": false,
					"internalType": "address",
					"name": "user",
					"type": "address"
				},
				{
					"indexed": false,
					"internalType": "address",
					"name": "allowedAccount",
					"type": "address"
				}
			],
			"name": "LiquiditySIGHStreamRedirectionAllowanceChanged",
			"type": "event"
		},
		{
			"anonymous": false,
			"inputs": [
				{
					"indexed": false,
					"internalType": "address",
					"name": "instrument",
					"type": "address"
				},
				{
					"indexed": false,
					"internalType": "address",
					"name": "fromAccount",
					"type": "address"
				},
				{
					"indexed": false,
					"internalType": "address",
					"name": "toAccount",
					"type": "address"
				},
				{
					"indexed": false,
					"internalType": "uint256",
					"name": "redirectedBalance",
					"type": "uint256"
				}
			],
			"name": "LiquiditySIGHStreamStreamRedirected",
			"type": "event"
		},
		{
			"anonymous": false,
			"inputs": [
				{
					"indexed": false,
					"internalType": "address",
					"name": "instrument",
					"type": "address"
				},
				{
					"indexed": false,
					"internalType": "address",
					"name": "user",
					"type": "address"
				},
				{
					"indexed": false,
					"internalType": "bool",
					"name": "isLiquidityStream",
					"type": "bool"
				},
				{
					"indexed": false,
					"internalType": "uint256",
					"name": "recentSIGHAccured",
					"type": "uint256"
				},
				{
					"indexed": false,
					"internalType": "uint256",
					"name": "AccuredSighBalance",
					"type": "uint256"
				}
			],
			"name": "SighAccured",
			"type": "event"
		},
		{
			"constant": true,
			"inputs": [],
			"name": "CONFIGURATOR_REVISION",
			"outputs": [
				{
					"internalType": "uint256",
					"name": "",
					"type": "uint256"
				}
			],
			"payable": false,
			"stateMutability": "view",
			"type": "function"
		},
		{
			"constant": false,
			"inputs": [
				{
					"internalType": "address",
					"name": "supplier",
					"type": "address"
				},
				{
					"internalType": "uint256",
					"name": "unaccountedBalanceIncrease",
					"type": "uint256"
				},
				{
					"internalType": "uint256",
					"name": "currentCompoundedBalance",
					"type": "uint256"
				}
			],
			"name": "accureLiquiditySighStream",
			"outputs": [],
			"payable": false,
			"stateMutability": "nonpayable",
			"type": "function"
		},
		{
			"constant": false,
			"inputs": [
				{
					"internalType": "address",
					"name": "user",
					"type": "address"
				}
			],
			"name": "accure_SIGH_For_BorrowingStream",
			"outputs": [],
			"payable": false,
			"stateMutability": "nonpayable",
			"type": "function"
		},
		{
			"constant": false,
			"inputs": [
				{
					"internalType": "address",
					"name": "user",
					"type": "address"
				},
				{
					"internalType": "address",
					"name": "_to",
					"type": "address"
				}
			],
			"name": "allowBorrowingSIGHRedirectionTo",
			"outputs": [],
			"payable": false,
			"stateMutability": "nonpayable",
			"type": "function"
		},
		{
			"constant": false,
			"inputs": [
				{
					"internalType": "address",
					"name": "from",
					"type": "address"
				},
				{
					"internalType": "address",
					"name": "_to",
					"type": "address"
				}
			],
			"name": "allowLiquiditySIGHRedirectionTo",
			"outputs": [],
			"payable": false,
			"stateMutability": "nonpayable",
			"type": "function"
		},
		{
			"constant": false,
			"inputs": [
				{
					"internalType": "address",
					"name": "user",
					"type": "address"
				}
			],
			"name": "claimMySIGH",
			"outputs": [],
			"payable": false,
			"stateMutability": "nonpayable",
			"type": "function"
		},
		{
			"constant": true,
			"inputs": [
				{
					"internalType": "address",
					"name": "user",
					"type": "address"
				}
			],
			"name": "getSIGHStreamsAllowances",
			"outputs": [
				{
					"internalType": "address",
					"name": "liquiditySIGHStreamRedirectionAllowance",
					"type": "address"
				},
				{
					"internalType": "address",
					"name": "BorrowingSIGHStreamRedirectionAllowance",
					"type": "address"
				}
			],
			"payable": false,
			"stateMutability": "view",
			"type": "function"
		},
		{
			"constant": true,
			"inputs": [
				{
					"internalType": "address",
					"name": "user",
					"type": "address"
				}
			],
			"name": "getSIGHStreamsIndexes",
			"outputs": [
				{
					"internalType": "uint256",
					"name": "liquiditySIGHStreamIndex",
					"type": "uint256"
				},
				{
					"internalType": "uint256",
					"name": "borrowingSIGHStreamIndex",
					"type": "uint256"
				}
			],
			"payable": false,
			"stateMutability": "view",
			"type": "function"
		},
		{
			"constant": true,
			"inputs": [
				{
					"internalType": "address",
					"name": "user",
					"type": "address"
				}
			],
			"name": "getSIGHStreamsRedirectedBalances",
			"outputs": [
				{
					"internalType": "uint256",
					"name": "liquiditySIGHStreamRedirectedBalance",
					"type": "uint256"
				},
				{
					"internalType": "uint256",
					"name": "borrowingSIGHStreamRedirectedBalance",
					"type": "uint256"
				}
			],
			"payable": false,
			"stateMutability": "view",
			"type": "function"
		},
		{
			"constant": true,
			"inputs": [
				{
					"internalType": "address",
					"name": "user",
					"type": "address"
				}
			],
			"name": "getSIGHStreamsRedirectedTo",
			"outputs": [
				{
					"internalType": "address",
					"name": "liquiditySIGHStreamRedirectionAddress",
					"type": "address"
				},
				{
					"internalType": "address",
					"name": "BorrowingSIGHStreamRedirectionAddress",
					"type": "address"
				}
			],
			"payable": false,
			"stateMutability": "view",
			"type": "function"
		},
		{
			"constant": true,
			"inputs": [
				{
					"internalType": "address",
					"name": "account",
					"type": "address"
				}
			],
			"name": "getSighAccured",
			"outputs": [
				{
					"internalType": "uint256",
					"name": "",
					"type": "uint256"
				}
			],
			"payable": false,
			"stateMutability": "view",
			"type": "function"
		},
		{
			"constant": true,
			"inputs": [],
			"name": "iToken",
			"outputs": [
				{
					"internalType": "contract ITokenInterface",
					"name": "",
					"type": "address"
				}
			],
			"payable": false,
			"stateMutability": "view",
			"type": "function"
		},
		{
			"constant": false,
			"inputs": [
				{
					"internalType": "contract IGlobalAddressesProvider",
					"name": "_globalAddressesProvider",
					"type": "address"
				},
				{
					"internalType": "address",
					"name": "_underlyingAsset",
					"type": "address"
				},
				{
					"internalType": "address",
					"name": "_iTokenAddress",
					"type": "address"
				}
			],
			"name": "initialize",
			"outputs": [],
			"payable": false,
			"stateMutability": "nonpayable",
			"type": "function"
		},
		{
			"constant": false,
			"inputs": [
				{
					"internalType": "address",
					"name": "user",
					"type": "address"
				},
				{
					"internalType": "address",
					"name": "_to",
					"type": "address"
				}
			],
			"name": "redirectBorrowingSIGHStream",
			"outputs": [],
			"payable": false,
			"stateMutability": "nonpayable",
			"type": "function"
		},
		{
			"constant": false,
			"inputs": [
				{
					"internalType": "address",
					"name": "user",
					"type": "address"
				},
				{
					"internalType": "address",
					"name": "_from",
					"type": "address"
				},
				{
					"internalType": "address",
					"name": "_to",
					"type": "address"
				}
			],
			"name": "redirectBorrowingSIGHStreamOf",
			"outputs": [],
			"payable": false,
			"stateMutability": "nonpayable",
			"type": "function"
		},
		{
			"constant": false,
			"inputs": [
				{
					"internalType": "address",
					"name": "from",
					"type": "address"
				},
				{
					"internalType": "address",
					"name": "_to",
					"type": "address"
				}
			],
			"name": "redirectLiquiditySIGHStream",
			"outputs": [],
			"payable": false,
			"stateMutability": "nonpayable",
			"type": "function"
		},
		{
			"constant": false,
			"inputs": [
				{
					"internalType": "address",
					"name": "user",
					"type": "address"
				},
				{
					"internalType": "address",
					"name": "_from",
					"type": "address"
				},
				{
					"internalType": "address",
					"name": "_to",
					"type": "address"
				}
			],
			"name": "redirectLiquiditySIGHStreamOf",
			"outputs": [],
			"payable": false,
			"stateMutability": "nonpayable",
			"type": "function"
		},
		{
			"constant": true,
			"inputs": [],
			"name": "sighDistributionHandlerContract",
			"outputs": [
				{
					"internalType": "contract ISighDistributionHandler",
					"name": "",
					"type": "address"
				}
			],
			"payable": false,
			"stateMutability": "view",
			"type": "function"
		},
		{
			"constant": true,
			"inputs": [],
			"name": "sigh_Transfer_Threshold",
			"outputs": [
				{
					"internalType": "uint256",
					"name": "",
					"type": "uint256"
				}
			],
			"payable": false,
			"stateMutability": "view",
			"type": "function"
		},
		{
			"constant": true,
			"inputs": [],
			"name": "underlyingInstrumentAddress",
			"outputs": [
				{
					"internalType": "address",
					"name": "",
					"type": "address"
				}
			],
			"payable": false,
			"stateMutability": "view",
			"type": "function"
		},
		{
			"constant": false,
			"inputs": [
				{
					"internalType": "address",
					"name": "_user",
					"type": "address"
				},
				{
					"internalType": "uint256",
					"name": "_balanceToAdd",
					"type": "uint256"
				},
				{
					"internalType": "uint256",
					"name": "_balanceToRemove",
					"type": "uint256"
				}
			],
			"name": "updateRedirectedBalanceOfBorrowingSIGHStreamRedirectionAddress",
			"outputs": [],
			"payable": false,
			"stateMutability": "nonpayable",
			"type": "function"
		},
		{
			"constant": false,
			"inputs": [
				{
					"internalType": "address",
					"name": "_user",
					"type": "address"
				},
				{
					"internalType": "uint256",
					"name": "_balanceToAdd",
					"type": "uint256"
				},
				{
					"internalType": "uint256",
					"name": "_balanceToRemove",
					"type": "uint256"
				}
			],
			"name": "updateRedirectedBalanceOfLiquiditySIGHStreamRedirectionAddress",
			"outputs": [],
			"payable": false,
			"stateMutability": "nonpayable",
			"type": "function"
		}
	]
}